{
  "_format": "hh-sol-artifact-1",
  "contractName": "UserRegister",
  "sourceName": "contracts/UserRegister.sol",
  "abi": [
    {
      "inputs": [
        {
          "internalType": "address",
          "name": "helperContract",
          "type": "address"
        }
      ],
      "stateMutability": "nonpayable",
      "type": "constructor"
    },
    {
      "inputs": [
        {
          "components": [
            {
              "internalType": "address",
              "name": "account",
              "type": "address"
            },
            {
              "internalType": "string",
              "name": "userName",
              "type": "string"
            },
            {
              "internalType": "string",
              "name": "mnemonic",
              "type": "string"
            },
            {
              "internalType": "string",
              "name": "publicKey",
              "type": "string"
            }
          ],
          "internalType": "struct UserRegister.User",
          "name": "user",
          "type": "tuple"
        }
      ],
      "name": "canRegister",
      "outputs": [
        {
          "internalType": "bool",
          "name": "",
          "type": "bool"
        }
      ],
      "stateMutability": "view",
      "type": "function"
    },
    {
      "inputs": [
        {
          "internalType": "address",
          "name": "account",
          "type": "address"
        }
      ],
      "name": "existingAddress",
      "outputs": [
        {
          "internalType": "bool",
          "name": "",
          "type": "bool"
        }
      ],
      "stateMutability": "view",
      "type": "function"
    },
    {
      "inputs": [
        {
          "internalType": "string",
          "name": "userName",
          "type": "string"
        }
      ],
      "name": "existingUserName",
      "outputs": [
        {
          "internalType": "bool",
          "name": "",
          "type": "bool"
        }
      ],
      "stateMutability": "view",
      "type": "function"
    },
    {
      "inputs": [
        {
          "internalType": "address",
          "name": "account",
          "type": "address"
        }
      ],
      "name": "getPublicKey",
      "outputs": [
        {
          "components": [
            {
              "internalType": "bool",
              "name": "success",
              "type": "bool"
            },
            {
              "internalType": "string",
              "name": "resultString",
              "type": "string"
            }
          ],
          "internalType": "struct Helper.ResultString",
          "name": "",
          "type": "tuple"
        }
      ],
      "stateMutability": "view",
      "type": "function"
    },
    {
      "inputs": [
        {
          "internalType": "address",
          "name": "account",
          "type": "address"
        }
      ],
      "name": "getUser",
      "outputs": [
        {
          "components": [
            {
              "internalType": "bool",
              "name": "success",
              "type": "bool"
            },
            {
              "components": [
                {
                  "internalType": "address",
                  "name": "account",
                  "type": "address"
                },
                {
                  "internalType": "string",
                  "name": "userName",
                  "type": "string"
                },
                {
                  "internalType": "string",
                  "name": "mnemonic",
                  "type": "string"
                },
                {
                  "internalType": "string",
                  "name": "publicKey",
                  "type": "string"
                }
              ],
              "internalType": "struct UserRegister.User",
              "name": "user",
              "type": "tuple"
            }
          ],
          "internalType": "struct UserRegister.ResultUser",
          "name": "",
          "type": "tuple"
        }
      ],
      "stateMutability": "view",
      "type": "function"
    },
    {
      "inputs": [
        {
          "internalType": "string",
          "name": "userName",
          "type": "string"
        }
      ],
      "name": "getUserAccount",
      "outputs": [
        {
          "components": [
            {
              "internalType": "bool",
              "name": "success",
              "type": "bool"
            },
            {
              "internalType": "address",
              "name": "resultAddress",
              "type": "address"
            }
          ],
          "internalType": "struct Helper.ResultAddress",
          "name": "",
          "type": "tuple"
        }
      ],
      "stateMutability": "view",
      "type": "function"
    },
    {
      "inputs": [
        {
          "internalType": "address",
          "name": "account",
          "type": "address"
        }
      ],
      "name": "getUserUserName",
      "outputs": [
        {
          "components": [
            {
              "internalType": "bool",
              "name": "success",
              "type": "bool"
            },
            {
              "internalType": "string",
              "name": "resultString",
              "type": "string"
            }
          ],
          "internalType": "struct Helper.ResultString",
          "name": "",
          "type": "tuple"
        }
      ],
      "stateMutability": "view",
      "type": "function"
    },
    {
      "inputs": [
        {
          "components": [
            {
              "internalType": "address",
              "name": "account",
              "type": "address"
            },
            {
              "internalType": "string",
              "name": "userName",
              "type": "string"
            },
            {
              "internalType": "string",
              "name": "mnemonic",
              "type": "string"
            },
            {
              "internalType": "string",
              "name": "publicKey",
              "type": "string"
            }
          ],
          "internalType": "struct UserRegister.User",
          "name": "user",
          "type": "tuple"
        }
      ],
      "name": "userRegistered",
      "outputs": [],
      "stateMutability": "nonpayable",
      "type": "function"
    },
    {
      "inputs": [
        {
          "internalType": "string",
          "name": "mnemonic",
          "type": "string"
        },
        {
          "internalType": "address",
          "name": "account",
          "type": "address"
        }
      ],
      "name": "verifyUserAssociatedMnemonic",
      "outputs": [
        {
          "internalType": "bool",
          "name": "",
          "type": "bool"
        }
      ],
      "stateMutability": "view",
      "type": "function"
    }
  ],
  "bytecode": "0x60806040523480156200001157600080fd5b5060405162001c4438038062001c448339818101604052810190620000379190620000e9565b80600360006101000a81548173ffffffffffffffffffffffffffffffffffffffff021916908373ffffffffffffffffffffffffffffffffffffffff160217905550506200011b565b600080fd5b600073ffffffffffffffffffffffffffffffffffffffff82169050919050565b6000620000b18262000084565b9050919050565b620000c381620000a4565b8114620000cf57600080fd5b50565b600081519050620000e381620000b8565b92915050565b6000602082840312156200010257620001016200007f565b5b60006200011284828501620000d2565b91505092915050565b611b19806200012b6000396000f3fe608060405234801561001057600080fd5b50600436106100935760003560e01c8063857cdbb811610066578063857cdbb814610144578063a240e42614610174578063b0c22a56146101a4578063eeb9ab18146101d4578063f14ab0e01461020457610093565b80632b4bce8b1461009857806367156cf1146100c85780636f77926b146100f857806375e9493f14610128575b600080fd5b6100b260048036038101906100ad91906112bb565b610234565b6040516100bf919061131f565b60405180910390f35b6100e260048036038101906100dd919061133a565b61034e565b6040516100ef9190611432565b60405180910390f35b610112600480360381019061010d919061133a565b610502565b60405161011f9190611511565b60405180910390f35b610142600480360381019061013d91906112bb565b6108ca565b005b61015e6004803603810190610159919061133a565b610b59565b60405161016b9190611432565b60405180910390f35b61018e6004803603810190610189919061133a565b610d0d565b60405161019b919061131f565b60405180910390f35b6101be60048036038101906101b99190611533565b610db6565b6040516101cb919061131f565b60405180910390f35b6101ee60048036038101906101e99190611533565b610deb565b6040516101fb91906115ab565b60405180910390f35b61021e600480360381019061021991906115c6565b610ed6565b60405161022b919061131f565b60405180910390f35b60003373ffffffffffffffffffffffffffffffffffffffff16826000015173ffffffffffffffffffffffffffffffffffffffff16036103445761027a8260000151610d0d565b158015610291575061028f8260200151610db6565b155b80156103355750600360009054906101000a900473ffffffffffffffffffffffffffffffffffffffff1673ffffffffffffffffffffffffffffffffffffffff1663e779f450836040518263ffffffff1660e01b81526004016102f39190611693565b602060405180830381865afa158015610310573d6000803e3d6000fd5b505050506040513d601f19601f8201168201806040525081019061033491906116e1565b5b156103435760019050610349565b5b600090505b919050565b610356610f7f565b600073ffffffffffffffffffffffffffffffffffffffff166000808473ffffffffffffffffffffffffffffffffffffffff1673ffffffffffffffffffffffffffffffffffffffff16815260200190815260200160002060000160009054906101000a900473ffffffffffffffffffffffffffffffffffffffff1673ffffffffffffffffffffffffffffffffffffffff16146104d35760405180604001604052806001151581526020016000808573ffffffffffffffffffffffffffffffffffffffff1673ffffffffffffffffffffffffffffffffffffffff168152602001908152602001600020600101805461044b9061173d565b80601f01602080910402602001604051908101604052809291908181526020018280546104779061173d565b80156104c45780601f10610499576101008083540402835291602001916104c4565b820191906000526020600020905b8154815290600101906020018083116104a757829003601f168201915b505050505081525090506104fd565b60405180604001604052806000151581526020016040518060200160405280600081525081525090505b919050565b61050a610f9b565b3373ffffffffffffffffffffffffffffffffffffffff168273ffffffffffffffffffffffffffffffffffffffff160361084657600073ffffffffffffffffffffffffffffffffffffffff166000808473ffffffffffffffffffffffffffffffffffffffff1673ffffffffffffffffffffffffffffffffffffffff16815260200190815260200160002060000160009054906101000a900473ffffffffffffffffffffffffffffffffffffffff1673ffffffffffffffffffffffffffffffffffffffff16146108455760405180604001604052806001151581526020016000808573ffffffffffffffffffffffffffffffffffffffff1673ffffffffffffffffffffffffffffffffffffffff1681526020019081526020016000206040518060800160405290816000820160009054906101000a900473ffffffffffffffffffffffffffffffffffffffff1673ffffffffffffffffffffffffffffffffffffffff1673ffffffffffffffffffffffffffffffffffffffff1681526020016001820180546106959061173d565b80601f01602080910402602001604051908101604052809291908181526020018280546106c19061173d565b801561070e5780601f106106e35761010080835404028352916020019161070e565b820191906000526020600020905b8154815290600101906020018083116106f157829003601f168201915b505050505081526020016002820180546107279061173d565b80601f01602080910402602001604051908101604052809291908181526020018280546107539061173d565b80156107a05780601f10610775576101008083540402835291602001916107a0565b820191906000526020600020905b81548152906001019060200180831161078357829003601f168201915b505050505081526020016003820180546107b99061173d565b80601f01602080910402602001604051908101604052809291908181526020018280546107e59061173d565b80156108325780601f1061080757610100808354040283529160200191610832565b820191906000526020600020905b81548152906001019060200180831161081557829003601f168201915b50505050508152505081525090506108c5565b5b60405180604001604052806000151581526020016040518060800160405280600073ffffffffffffffffffffffffffffffffffffffff1681526020016040518060200160405280600081525081526020016040518060200160405280600081525081526020016040518060200160405280600081525081525081525090505b919050565b3373ffffffffffffffffffffffffffffffffffffffff16816000015173ffffffffffffffffffffffffffffffffffffffff1603610b565761090a81610234565b15610b55576040518060800160405280826000015173ffffffffffffffffffffffffffffffffffffffff16815260200182602001518152602001826040015181526020018260600151815250600080836000015173ffffffffffffffffffffffffffffffffffffffff1673ffffffffffffffffffffffffffffffffffffffff16815260200190815260200160002060008201518160000160006101000a81548173ffffffffffffffffffffffffffffffffffffffff021916908373ffffffffffffffffffffffffffffffffffffffff16021790555060208201518160010190816109f49190611924565b506040820151816002019081610a0a9190611924565b506060820151816003019081610a209190611924565b509050506040518060800160405280826000015173ffffffffffffffffffffffffffffffffffffffff1681526020018260200151815260200182604001518152602001826060015181525060018260200151604051610a7f9190611a32565b908152602001604051809103902060008201518160000160006101000a81548173ffffffffffffffffffffffffffffffffffffffff021916908373ffffffffffffffffffffffffffffffffffffffff1602179055506020820151816001019081610ae99190611924565b506040820151816002019081610aff9190611924565b506060820151816003019081610b159190611924565b50905050600160028260200151604051610b2f9190611a32565b908152602001604051809103902060006101000a81548160ff0219169083151502179055505b5b50565b610b61610f7f565b600073ffffffffffffffffffffffffffffffffffffffff166000808473ffffffffffffffffffffffffffffffffffffffff1673ffffffffffffffffffffffffffffffffffffffff16815260200190815260200160002060000160009054906101000a900473ffffffffffffffffffffffffffffffffffffffff1673ffffffffffffffffffffffffffffffffffffffff1614610cde5760405180604001604052806001151581526020016000808573ffffffffffffffffffffffffffffffffffffffff1673ffffffffffffffffffffffffffffffffffffffff1681526020019081526020016000206003018054610c569061173d565b80601f0160208091040260200160405190810160405280929190818152602001828054610c829061173d565b8015610ccf5780601f10610ca457610100808354040283529160200191610ccf565b820191906000526020600020905b815481529060010190602001808311610cb257829003601f168201915b50505050508152509050610d08565b60405180604001604052806000151581526020016040518060200160405280600081525081525090505b919050565b60008073ffffffffffffffffffffffffffffffffffffffff166000808473ffffffffffffffffffffffffffffffffffffffff1673ffffffffffffffffffffffffffffffffffffffff16815260200190815260200160002060000160009054906101000a900473ffffffffffffffffffffffffffffffffffffffff1673ffffffffffffffffffffffffffffffffffffffff1614610dac5760019050610db1565b600090505b919050565b6000600282604051610dc89190611a32565b908152602001604051809103902060009054906101000a900460ff169050919050565b610df3610fbd565b6000600183604051610e059190611a32565b90815260200160405180910390206001018054610e219061173d565b90501115610e9f576040518060400160405280600115158152602001600184604051610e4d9190611a32565b908152602001604051809103902060000160009054906101000a900473ffffffffffffffffffffffffffffffffffffffff1673ffffffffffffffffffffffffffffffffffffffff168152509050610ed1565b6040518060400160405280600015158152602001600073ffffffffffffffffffffffffffffffffffffffff1681525090505b919050565b600082604051602001610ee99190611a32565b604051602081830303815290604052805190602001206000808473ffffffffffffffffffffffffffffffffffffffff1673ffffffffffffffffffffffffffffffffffffffff168152602001908152602001600020600201604051602001610f509190611acc565b6040516020818303038152906040528051906020012003610f745760019050610f79565b600090505b92915050565b6040518060400160405280600015158152602001606081525090565b6040518060400160405280600015158152602001610fb7610fef565b81525090565b6040518060400160405280600015158152602001600073ffffffffffffffffffffffffffffffffffffffff1681525090565b6040518060800160405280600073ffffffffffffffffffffffffffffffffffffffff1681526020016060815260200160608152602001606081525090565b6000604051905090565b600080fd5b600080fd5b600080fd5b6000601f19601f8301169050919050565b7f4e487b7100000000000000000000000000000000000000000000000000000000600052604160045260246000fd5b61108f82611046565b810181811067ffffffffffffffff821117156110ae576110ad611057565b5b80604052505050565b60006110c161102d565b90506110cd8282611086565b919050565b600080fd5b600073ffffffffffffffffffffffffffffffffffffffff82169050919050565b6000611102826110d7565b9050919050565b611112816110f7565b811461111d57600080fd5b50565b60008135905061112f81611109565b92915050565b600080fd5b600080fd5b600067ffffffffffffffff82111561115a57611159611057565b5b61116382611046565b9050602081019050919050565b82818337600083830152505050565b600061119261118d8461113f565b6110b7565b9050828152602081018484840111156111ae576111ad61113a565b5b6111b9848285611170565b509392505050565b600082601f8301126111d6576111d5611135565b5b81356111e684826020860161117f565b91505092915050565b60006080828403121561120557611204611041565b5b61120f60806110b7565b9050600061121f84828501611120565b600083015250602082013567ffffffffffffffff811115611243576112426110d2565b5b61124f848285016111c1565b602083015250604082013567ffffffffffffffff811115611273576112726110d2565b5b61127f848285016111c1565b604083015250606082013567ffffffffffffffff8111156112a3576112a26110d2565b5b6112af848285016111c1565b60608301525092915050565b6000602082840312156112d1576112d0611037565b5b600082013567ffffffffffffffff8111156112ef576112ee61103c565b5b6112fb848285016111ef565b91505092915050565b60008115159050919050565b61131981611304565b82525050565b60006020820190506113346000830184611310565b92915050565b6000602082840312156113505761134f611037565b5b600061135e84828501611120565b91505092915050565b61137081611304565b82525050565b600081519050919050565b600082825260208201905092915050565b60005b838110156113b0578082015181840152602081019050611395565b60008484015250505050565b60006113c782611376565b6113d18185611381565b93506113e1818560208601611392565b6113ea81611046565b840191505092915050565b600060408301600083015161140d6000860182611367565b506020830151848203602086015261142582826113bc565b9150508091505092915050565b6000602082019050818103600083015261144c81846113f5565b905092915050565b61145d816110f7565b82525050565b600060808301600083015161147b6000860182611454565b506020830151848203602086015261149382826113bc565b915050604083015184820360408601526114ad82826113bc565b915050606083015184820360608601526114c782826113bc565b9150508091505092915050565b60006040830160008301516114ec6000860182611367565b50602083015184820360208601526115048282611463565b9150508091505092915050565b6000602082019050818103600083015261152b81846114d4565b905092915050565b60006020828403121561154957611548611037565b5b600082013567ffffffffffffffff8111156115675761156661103c565b5b611573848285016111c1565b91505092915050565b6040820160008201516115926000850182611367565b5060208201516115a56020850182611454565b50505050565b60006040820190506115c0600083018461157c565b92915050565b600080604083850312156115dd576115dc611037565b5b600083013567ffffffffffffffff8111156115fb576115fa61103c565b5b611607858286016111c1565b925050602061161885828601611120565b9150509250929050565b600060808301600083015161163a6000860182611454565b506020830151848203602086015261165282826113bc565b9150506040830151848203604086015261166c82826113bc565b9150506060830151848203606086015261168682826113bc565b9150508091505092915050565b600060208201905081810360008301526116ad8184611622565b905092915050565b6116be81611304565b81146116c957600080fd5b50565b6000815190506116db816116b5565b92915050565b6000602082840312156116f7576116f6611037565b5b6000611705848285016116cc565b91505092915050565b7f4e487b7100000000000000000000000000000000000000000000000000000000600052602260045260246000fd5b6000600282049050600182168061175557607f821691505b6020821081036117685761176761170e565b5b50919050565b60008190508160005260206000209050919050565b60006020601f8301049050919050565b600082821b905092915050565b6000600883026117d07fffffffffffffffffffffffffffffffffffffffffffffffffffffffffffffffff82611793565b6117da8683611793565b95508019841693508086168417925050509392505050565b6000819050919050565b6000819050919050565b600061182161181c611817846117f2565b6117fc565b6117f2565b9050919050565b6000819050919050565b61183b83611806565b61184f61184782611828565b8484546117a0565b825550505050565b600090565b611864611857565b61186f818484611832565b505050565b5b818110156118935761188860008261185c565b600181019050611875565b5050565b601f8211156118d8576118a98161176e565b6118b284611783565b810160208510156118c1578190505b6118d56118cd85611783565b830182611874565b50505b505050565b600082821c905092915050565b60006118fb600019846008026118dd565b1980831691505092915050565b600061191483836118ea565b9150826002028217905092915050565b61192d82611376565b67ffffffffffffffff81111561194657611945611057565b5b611950825461173d565b61195b828285611897565b600060209050601f83116001811461198e576000841561197c578287015190505b6119868582611908565b8655506119ee565b601f19841661199c8661176e565b60005b828110156119c45784890151825560018201915060208501945060208101905061199f565b868310156119e157848901516119dd601f8916826118ea565b8355505b6001600288020188555050505b505050505050565b600081905092915050565b6000611a0c82611376565b611a1681856119f6565b9350611a26818560208601611392565b80840191505092915050565b6000611a3e8284611a01565b915081905092915050565b60008154611a568161173d565b611a6081866119f6565b94506001821660008114611a7b5760018114611a9057611ac3565b60ff1983168652811515820286019350611ac3565b611a998561176e565b60005b83811015611abb57815481890152600182019150602081019050611a9c565b838801955050505b50505092915050565b6000611ad88284611a49565b91508190509291505056fea264697066735822122002f0324861db677ecf02268b4eed83fdbb8de15e4315e3ccceefd5f4ba14e6bb64736f6c63430008130033",
  "linkReferences": {},
  "deployedLinkReferences": {}
}