{
  "_format": "hh-sol-artifact-1",
  "contractName": "UserRegister",
  "sourceName": "contracts/UserRegister.sol",
  "abi": [
    {
      "inputs": [
        {
          "internalType": "address",
          "name": "helperContract",
          "type": "address"
        }
      ],
      "stateMutability": "nonpayable",
      "type": "constructor"
    },
    {
      "inputs": [
        {
          "internalType": "address",
          "name": "account",
          "type": "address"
        }
      ],
      "name": "existingAddress",
      "outputs": [
        {
          "internalType": "bool",
          "name": "",
          "type": "bool"
        }
      ],
      "stateMutability": "view",
      "type": "function"
    },
    {
      "inputs": [
        {
          "internalType": "string",
          "name": "userName",
          "type": "string"
        }
      ],
      "name": "existingUserName",
      "outputs": [
        {
          "internalType": "bool",
          "name": "",
          "type": "bool"
        }
      ],
      "stateMutability": "view",
      "type": "function"
    },
    {
      "inputs": [],
      "name": "getLoginRegisterAddress",
      "outputs": [
        {
          "internalType": "address",
          "name": "",
          "type": "address"
        }
      ],
      "stateMutability": "view",
      "type": "function"
    },
    {
      "inputs": [
        {
          "internalType": "address",
          "name": "account",
          "type": "address"
        }
      ],
      "name": "getPublicKey",
      "outputs": [
        {
          "components": [
            {
              "internalType": "bool",
              "name": "success",
              "type": "bool"
            },
            {
              "internalType": "string",
              "name": "resultString",
              "type": "string"
            },
            {
              "internalType": "string",
              "name": "message",
              "type": "string"
            }
          ],
          "internalType": "struct Helper.ResultString",
          "name": "",
          "type": "tuple"
        }
      ],
      "stateMutability": "view",
      "type": "function"
    },
    {
      "inputs": [
        {
          "internalType": "address",
          "name": "account",
          "type": "address"
        }
      ],
      "name": "getUser",
      "outputs": [
        {
          "components": [
            {
              "internalType": "bool",
              "name": "success",
              "type": "bool"
            },
            {
              "components": [
                {
                  "internalType": "address",
                  "name": "account",
                  "type": "address"
                },
                {
                  "internalType": "string",
                  "name": "userName",
                  "type": "string"
                },
                {
                  "internalType": "string",
                  "name": "mnemonic",
                  "type": "string"
                },
                {
                  "internalType": "string",
                  "name": "publicKey",
                  "type": "string"
                }
              ],
              "internalType": "struct UserRegister.User",
              "name": "user",
              "type": "tuple"
            },
            {
              "internalType": "string",
              "name": "message",
              "type": "string"
            }
          ],
          "internalType": "struct UserRegister.ResultUser",
          "name": "",
          "type": "tuple"
        }
      ],
      "stateMutability": "view",
      "type": "function"
    },
    {
      "inputs": [
        {
          "internalType": "string",
          "name": "userName",
          "type": "string"
        }
      ],
      "name": "getUserAccount",
      "outputs": [
        {
          "components": [
            {
              "internalType": "bool",
              "name": "success",
              "type": "bool"
            },
            {
              "internalType": "address",
              "name": "resultAddress",
              "type": "address"
            },
            {
              "internalType": "string",
              "name": "message",
              "type": "string"
            }
          ],
          "internalType": "struct Helper.ResultAddress",
          "name": "",
          "type": "tuple"
        }
      ],
      "stateMutability": "view",
      "type": "function"
    },
    {
      "inputs": [
        {
          "internalType": "address",
          "name": "account",
          "type": "address"
        }
      ],
      "name": "getUserUserName",
      "outputs": [
        {
          "components": [
            {
              "internalType": "bool",
              "name": "success",
              "type": "bool"
            },
            {
              "internalType": "string",
              "name": "resultString",
              "type": "string"
            },
            {
              "internalType": "string",
              "name": "message",
              "type": "string"
            }
          ],
          "internalType": "struct Helper.ResultString",
          "name": "",
          "type": "tuple"
        }
      ],
      "stateMutability": "view",
      "type": "function"
    },
    {
      "inputs": [
        {
          "internalType": "address",
          "name": "loginRegisterContractAddress",
          "type": "address"
        }
      ],
      "name": "setLoginRegisterAddress",
      "outputs": [],
      "stateMutability": "nonpayable",
      "type": "function"
    },
    {
      "inputs": [
        {
          "components": [
            {
              "internalType": "address",
              "name": "account",
              "type": "address"
            },
            {
              "internalType": "string",
              "name": "userName",
              "type": "string"
            },
            {
              "internalType": "string",
              "name": "mnemonic",
              "type": "string"
            },
            {
              "internalType": "string",
              "name": "publicKey",
              "type": "string"
            }
          ],
          "internalType": "struct UserRegister.User",
          "name": "user",
          "type": "tuple"
        }
      ],
      "name": "userRegistered",
      "outputs": [],
      "stateMutability": "nonpayable",
      "type": "function"
    },
    {
      "inputs": [
        {
          "internalType": "string",
          "name": "mnemonic",
          "type": "string"
        },
        {
          "internalType": "address",
          "name": "account",
          "type": "address"
        }
      ],
      "name": "verifyUserAssociatedMnemonic",
      "outputs": [
        {
          "internalType": "bool",
          "name": "",
          "type": "bool"
        }
      ],
      "stateMutability": "view",
      "type": "function"
    }
  ],
  "bytecode": "0x60806040523480156200001157600080fd5b5060405162002155380380620021558339818101604052810190620000379190620000e9565b80600360006101000a81548173ffffffffffffffffffffffffffffffffffffffff021916908373ffffffffffffffffffffffffffffffffffffffff160217905550506200011b565b600080fd5b600073ffffffffffffffffffffffffffffffffffffffff82169050919050565b6000620000b18262000084565b9050919050565b620000c381620000a4565b8114620000cf57600080fd5b50565b600081519050620000e381620000b8565b92915050565b6000602082840312156200010257620001016200007f565b5b60006200011284828501620000d2565b91505092915050565b61202a806200012b6000396000f3fe608060405234801561001057600080fd5b506004361061009e5760003560e01c80638d060a9e116100665780638d060a9e1461016d578063a240e42614610189578063b0c22a56146101b9578063eeb9ab18146101e9578063f14ab0e0146102195761009e565b80630d310723146100a357806367156cf1146100c15780636f77926b146100f157806375e9493f14610121578063857cdbb81461013d575b600080fd5b6100ab610249565b6040516100b891906112e2565b60405180910390f35b6100db60048036038101906100d6919061133d565b610273565b6040516100e8919061146c565b60405180910390f35b61010b6004803603810190610106919061133d565b61045a565b6040516101189190611565565b60405180910390f35b61013b60048036038101906101369190611792565b610855565b005b6101576004803603810190610152919061133d565b610ba2565b604051610164919061146c565b60405180910390f35b6101876004803603810190610182919061133d565b610d89565b005b6101a3600480360381019061019e919061133d565b610dcd565b6040516101b091906117ea565b60405180910390f35b6101d360048036038101906101ce9190611805565b610e76565b6040516101e091906117ea565b60405180910390f35b61020360048036038101906101fe9190611805565b610eab565b604051610210919061189e565b60405180910390f35b610233600480360381019061022e91906118c0565b610fc9565b60405161024091906117ea565b60405180910390f35b6000600460009054906101000a900473ffffffffffffffffffffffffffffffffffffffff16905090565b61027b6111de565b600073ffffffffffffffffffffffffffffffffffffffff166000808473ffffffffffffffffffffffffffffffffffffffff1673ffffffffffffffffffffffffffffffffffffffff16815260200190815260200160002060000160009054906101000a900473ffffffffffffffffffffffffffffffffffffffff1673ffffffffffffffffffffffffffffffffffffffff161461040d5760405180606001604052806001151581526020016000808573ffffffffffffffffffffffffffffffffffffffff1673ffffffffffffffffffffffffffffffffffffffff16815260200190815260200160002060010180546103709061194b565b80601f016020809104026020016040519081016040528092919081815260200182805461039c9061194b565b80156103e95780601f106103be576101008083540402835291602001916103e9565b820191906000526020600020905b8154815290600101906020018083116103cc57829003601f168201915b50505050508152602001604051806020016040528060008152508152509050610455565b6040518060600160405280600015158152602001604051806020016040528060008152508152602001604051806060016040528060288152602001611fa46028913981525090505b919050565b610462611201565b3373ffffffffffffffffffffffffffffffffffffffff168273ffffffffffffffffffffffffffffffffffffffff16036107b357600073ffffffffffffffffffffffffffffffffffffffff166000808473ffffffffffffffffffffffffffffffffffffffff1673ffffffffffffffffffffffffffffffffffffffff16815260200190815260200160002060000160009054906101000a900473ffffffffffffffffffffffffffffffffffffffff1673ffffffffffffffffffffffffffffffffffffffff16146107b25760405180606001604052806001151581526020016000808573ffffffffffffffffffffffffffffffffffffffff1673ffffffffffffffffffffffffffffffffffffffff1681526020019081526020016000206040518060800160405290816000820160009054906101000a900473ffffffffffffffffffffffffffffffffffffffff1673ffffffffffffffffffffffffffffffffffffffff1673ffffffffffffffffffffffffffffffffffffffff1681526020016001820180546105ed9061194b565b80601f01602080910402602001604051908101604052809291908181526020018280546106199061194b565b80156106665780601f1061063b57610100808354040283529160200191610666565b820191906000526020600020905b81548152906001019060200180831161064957829003601f168201915b5050505050815260200160028201805461067f9061194b565b80601f01602080910402602001604051908101604052809291908181526020018280546106ab9061194b565b80156106f85780601f106106cd576101008083540402835291602001916106f8565b820191906000526020600020905b8154815290600101906020018083116106db57829003601f168201915b505050505081526020016003820180546107119061194b565b80601f016020809104026020016040519081016040528092919081815260200182805461073d9061194b565b801561078a5780601f1061075f5761010080835404028352916020019161078a565b820191906000526020600020905b81548152906001019060200180831161076d57829003601f168201915b5050505050815250508152602001604051806020016040528060008152508152509050610850565b5b60405180606001604052806000151581526020016040518060800160405280600073ffffffffffffffffffffffffffffffffffffffff1681526020016040518060200160405280600081525081526020016040518060200160405280600081525081526020016040518060200160405280600081525081525081526020016040518060a0016040528060798152602001611f036079913981525090505b919050565b3373ffffffffffffffffffffffffffffffffffffffff16600460009054906101000a900473ffffffffffffffffffffffffffffffffffffffff1673ffffffffffffffffffffffffffffffffffffffff1603610b9f576108b3816110a6565b15610b9e576040518060800160405280826000015173ffffffffffffffffffffffffffffffffffffffff168152602001600360009054906101000a900473ffffffffffffffffffffffffffffffffffffffff1673ffffffffffffffffffffffffffffffffffffffff16639416b42384602001516040518263ffffffff1660e01b815260040161094291906119c6565b600060405180830381865afa15801561095f573d6000803e3d6000fd5b505050506040513d6000823e3d601f19601f820116820180604052508101906109889190611a58565b8152602001826040015181526020018260600151815250600080836000015173ffffffffffffffffffffffffffffffffffffffff1673ffffffffffffffffffffffffffffffffffffffff16815260200190815260200160002060008201518160000160006101000a81548173ffffffffffffffffffffffffffffffffffffffff021916908373ffffffffffffffffffffffffffffffffffffffff1602179055506020820151816001019081610a3d9190611c57565b506040820151816002019081610a539190611c57565b506060820151816003019081610a699190611c57565b509050506040518060800160405280826000015173ffffffffffffffffffffffffffffffffffffffff1681526020018260200151815260200182604001518152602001826060015181525060018260200151604051610ac89190611d65565b908152602001604051809103902060008201518160000160006101000a81548173ffffffffffffffffffffffffffffffffffffffff021916908373ffffffffffffffffffffffffffffffffffffffff1602179055506020820151816001019081610b329190611c57565b506040820151816002019081610b489190611c57565b506060820151816003019081610b5e9190611c57565b50905050600160028260200151604051610b789190611d65565b908152602001604051809103902060006101000a81548160ff0219169083151502179055505b5b50565b610baa6111de565b600073ffffffffffffffffffffffffffffffffffffffff166000808473ffffffffffffffffffffffffffffffffffffffff1673ffffffffffffffffffffffffffffffffffffffff16815260200190815260200160002060000160009054906101000a900473ffffffffffffffffffffffffffffffffffffffff1673ffffffffffffffffffffffffffffffffffffffff1614610d3c5760405180606001604052806001151581526020016000808573ffffffffffffffffffffffffffffffffffffffff1673ffffffffffffffffffffffffffffffffffffffff1681526020019081526020016000206003018054610c9f9061194b565b80601f0160208091040260200160405190810160405280929190818152602001828054610ccb9061194b565b8015610d185780601f10610ced57610100808354040283529160200191610d18565b820191906000526020600020905b815481529060010190602001808311610cfb57829003601f168201915b50505050508152602001604051806020016040528060008152508152509050610d84565b6040518060600160405280600015158152602001604051806020016040528060008152508152602001604051806060016040528060288152602001611f7c6028913981525090505b919050565b80600460006101000a81548173ffffffffffffffffffffffffffffffffffffffff021916908373ffffffffffffffffffffffffffffffffffffffff16021790555050565b60008073ffffffffffffffffffffffffffffffffffffffff166000808473ffffffffffffffffffffffffffffffffffffffff1673ffffffffffffffffffffffffffffffffffffffff16815260200190815260200160002060000160009054906101000a900473ffffffffffffffffffffffffffffffffffffffff1673ffffffffffffffffffffffffffffffffffffffff1614610e6c5760019050610e71565b600090505b919050565b6000600282604051610e889190611d65565b908152602001604051809103902060009054906101000a900460ff169050919050565b610eb361122a565b6000600183604051610ec59190611d65565b90815260200160405180910390206001018054610ee19061194b565b90501115610f74576040518060600160405280600115158152602001600184604051610f0d9190611d65565b908152602001604051809103902060000160009054906101000a900473ffffffffffffffffffffffffffffffffffffffff1673ffffffffffffffffffffffffffffffffffffffff168152602001604051806020016040528060008152508152509050610fc4565b6040518060600160405280600015158152602001600073ffffffffffffffffffffffffffffffffffffffff168152602001604051806060016040528060298152602001611fcc6029913981525090505b919050565b60003373ffffffffffffffffffffffffffffffffffffffff168273ffffffffffffffffffffffffffffffffffffffff160361109b578260405160200161100f9190611d65565b604051602081830303815290604052805190602001206000808473ffffffffffffffffffffffffffffffffffffffff1673ffffffffffffffffffffffffffffffffffffffff1681526020019081526020016000206002016040516020016110769190611dff565b604051602081830303815290604052805190602001200361109a57600190506110a0565b5b600090505b92915050565b60003373ffffffffffffffffffffffffffffffffffffffff16600460009054906101000a900473ffffffffffffffffffffffffffffffffffffffff1673ffffffffffffffffffffffffffffffffffffffff16036111d45761110a8260000151610dcd565b158015611121575061111f8260200151610e76565b155b80156111c55750600360009054906101000a900473ffffffffffffffffffffffffffffffffffffffff1673ffffffffffffffffffffffffffffffffffffffff1663e779f450836040518263ffffffff1660e01b81526004016111839190611e87565b602060405180830381865afa1580156111a0573d6000803e3d6000fd5b505050506040513d601f19601f820116820180604052508101906111c49190611ed5565b5b156111d357600190506111d9565b5b600090505b919050565b604051806060016040528060001515815260200160608152602001606081525090565b604051806060016040528060001515815260200161121d611263565b8152602001606081525090565b6040518060600160405280600015158152602001600073ffffffffffffffffffffffffffffffffffffffff168152602001606081525090565b6040518060800160405280600073ffffffffffffffffffffffffffffffffffffffff1681526020016060815260200160608152602001606081525090565b600073ffffffffffffffffffffffffffffffffffffffff82169050919050565b60006112cc826112a1565b9050919050565b6112dc816112c1565b82525050565b60006020820190506112f760008301846112d3565b92915050565b6000604051905090565b600080fd5b600080fd5b61131a816112c1565b811461132557600080fd5b50565b60008135905061133781611311565b92915050565b60006020828403121561135357611352611307565b5b600061136184828501611328565b91505092915050565b60008115159050919050565b61137f8161136a565b82525050565b600081519050919050565b600082825260208201905092915050565b60005b838110156113bf5780820151818401526020810190506113a4565b60008484015250505050565b6000601f19601f8301169050919050565b60006113e782611385565b6113f18185611390565b93506114018185602086016113a1565b61140a816113cb565b840191505092915050565b600060608301600083015161142d6000860182611376565b506020830151848203602086015261144582826113dc565b9150506040830151848203604086015261145f82826113dc565b9150508091505092915050565b600060208201905081810360008301526114868184611415565b905092915050565b611497816112c1565b82525050565b60006080830160008301516114b5600086018261148e565b50602083015184820360208601526114cd82826113dc565b915050604083015184820360408601526114e782826113dc565b9150506060830151848203606086015261150182826113dc565b9150508091505092915050565b60006060830160008301516115266000860182611376565b506020830151848203602086015261153e828261149d565b9150506040830151848203604086015261155882826113dc565b9150508091505092915050565b6000602082019050818103600083015261157f818461150e565b905092915050565b600080fd5b7f4e487b7100000000000000000000000000000000000000000000000000000000600052604160045260246000fd5b6115c4826113cb565b810181811067ffffffffffffffff821117156115e3576115e261158c565b5b80604052505050565b60006115f66112fd565b905061160282826115bb565b919050565b600080fd5b600080fd5b600080fd5b600067ffffffffffffffff8211156116315761163061158c565b5b61163a826113cb565b9050602081019050919050565b82818337600083830152505050565b600061166961166484611616565b6115ec565b90508281526020810184848401111561168557611684611611565b5b611690848285611647565b509392505050565b600082601f8301126116ad576116ac61160c565b5b81356116bd848260208601611656565b91505092915050565b6000608082840312156116dc576116db611587565b5b6116e660806115ec565b905060006116f684828501611328565b600083015250602082013567ffffffffffffffff81111561171a57611719611607565b5b61172684828501611698565b602083015250604082013567ffffffffffffffff81111561174a57611749611607565b5b61175684828501611698565b604083015250606082013567ffffffffffffffff81111561177a57611779611607565b5b61178684828501611698565b60608301525092915050565b6000602082840312156117a8576117a7611307565b5b600082013567ffffffffffffffff8111156117c6576117c561130c565b5b6117d2848285016116c6565b91505092915050565b6117e48161136a565b82525050565b60006020820190506117ff60008301846117db565b92915050565b60006020828403121561181b5761181a611307565b5b600082013567ffffffffffffffff8111156118395761183861130c565b5b61184584828501611698565b91505092915050565b60006060830160008301516118666000860182611376565b506020830151611879602086018261148e565b506040830151848203604086015261189182826113dc565b9150508091505092915050565b600060208201905081810360008301526118b8818461184e565b905092915050565b600080604083850312156118d7576118d6611307565b5b600083013567ffffffffffffffff8111156118f5576118f461130c565b5b61190185828601611698565b925050602061191285828601611328565b9150509250929050565b7f4e487b7100000000000000000000000000000000000000000000000000000000600052602260045260246000fd5b6000600282049050600182168061196357607f821691505b6020821081036119765761197561191c565b5b50919050565b600082825260208201905092915050565b600061199882611385565b6119a2818561197c565b93506119b28185602086016113a1565b6119bb816113cb565b840191505092915050565b600060208201905081810360008301526119e0818461198d565b905092915050565b60006119fb6119f684611616565b6115ec565b905082815260208101848484011115611a1757611a16611611565b5b611a228482856113a1565b509392505050565b600082601f830112611a3f57611a3e61160c565b5b8151611a4f8482602086016119e8565b91505092915050565b600060208284031215611a6e57611a6d611307565b5b600082015167ffffffffffffffff811115611a8c57611a8b61130c565b5b611a9884828501611a2a565b91505092915050565b60008190508160005260206000209050919050565b60006020601f8301049050919050565b600082821b905092915050565b600060088302611b037fffffffffffffffffffffffffffffffffffffffffffffffffffffffffffffffff82611ac6565b611b0d8683611ac6565b95508019841693508086168417925050509392505050565b6000819050919050565b6000819050919050565b6000611b54611b4f611b4a84611b25565b611b2f565b611b25565b9050919050565b6000819050919050565b611b6e83611b39565b611b82611b7a82611b5b565b848454611ad3565b825550505050565b600090565b611b97611b8a565b611ba2818484611b65565b505050565b5b81811015611bc657611bbb600082611b8f565b600181019050611ba8565b5050565b601f821115611c0b57611bdc81611aa1565b611be584611ab6565b81016020851015611bf4578190505b611c08611c0085611ab6565b830182611ba7565b50505b505050565b600082821c905092915050565b6000611c2e60001984600802611c10565b1980831691505092915050565b6000611c478383611c1d565b9150826002028217905092915050565b611c6082611385565b67ffffffffffffffff811115611c7957611c7861158c565b5b611c83825461194b565b611c8e828285611bca565b600060209050601f831160018114611cc15760008415611caf578287015190505b611cb98582611c3b565b865550611d21565b601f198416611ccf86611aa1565b60005b82811015611cf757848901518255600182019150602085019450602081019050611cd2565b86831015611d145784890151611d10601f891682611c1d565b8355505b6001600288020188555050505b505050505050565b600081905092915050565b6000611d3f82611385565b611d498185611d29565b9350611d598185602086016113a1565b80840191505092915050565b6000611d718284611d34565b915081905092915050565b60008154611d898161194b565b611d938186611d29565b94506001821660008114611dae5760018114611dc357611df6565b60ff1983168652811515820286019350611df6565b611dcc85611aa1565b60005b83811015611dee57815481890152600182019150602081019050611dcf565b838801955050505b50505092915050565b6000611e0b8284611d7c565b915081905092915050565b6000608083016000830151611e2e600086018261148e565b5060208301518482036020860152611e4682826113dc565b91505060408301518482036040860152611e6082826113dc565b91505060608301518482036060860152611e7a82826113dc565b9150508091505092915050565b60006020820190508181036000830152611ea18184611e16565b905092915050565b611eb28161136a565b8114611ebd57600080fd5b50565b600081519050611ecf81611ea9565b92915050565b600060208284031215611eeb57611eea611307565b5b6000611ef984828501611ec0565b9150509291505056fe546865206163636f756e74206f6620746865207472616e73616374696f6e2065786563757465722073686f756c64206265207468652073616d65206f6e652061732074686520757365722077686963682074686520696e666f726d6174696f6e206973206265696e67207265717565737465642066726f6d2e5468657265206973206e6f207573657220776974682074686520666976656e206163636f756e742e5468657265206973206e6f207573657220776974682074686520676976656e206163636f756e742e5468657265206973206e6f207573657220776974682074686520676976656e20757365726e616d652ea264697066735822122092060fcd3a1609ce980abb71f3dbe5308728b6aa292fd8611ba26dcb9685a53364736f6c63430008130033",
  "linkReferences": {},
  "deployedLinkReferences": {}
}