{
  "_format": "hh-sol-artifact-1",
  "contractName": "UserRegister",
  "sourceName": "contracts/UserRegister.sol",
  "abi": [
    {
      "anonymous": false,
      "inputs": [
        {
          "indexed": false,
          "internalType": "bool",
          "name": "success",
          "type": "bool"
        },
        {
          "components": [
            {
              "internalType": "address",
              "name": "account",
              "type": "address"
            },
            {
              "internalType": "string",
              "name": "userName",
              "type": "string"
            },
            {
              "internalType": "string",
              "name": "publicKey",
              "type": "string"
            },
            {
              "internalType": "string",
              "name": "privateKey",
              "type": "string"
            }
          ],
          "indexed": false,
          "internalType": "struct UserRegister.User",
          "name": "user",
          "type": "tuple"
        }
      ],
      "name": "ResultUser",
      "type": "event"
    },
    {
      "inputs": [
        {
          "components": [
            {
              "internalType": "address",
              "name": "account",
              "type": "address"
            },
            {
              "internalType": "string",
              "name": "userName",
              "type": "string"
            },
            {
              "internalType": "string",
              "name": "publicKey",
              "type": "string"
            },
            {
              "internalType": "string",
              "name": "privateKey",
              "type": "string"
            }
          ],
          "internalType": "struct UserRegister.User",
          "name": "user",
          "type": "tuple"
        }
      ],
      "name": "canRegister",
      "outputs": [
        {
          "internalType": "bool",
          "name": "",
          "type": "bool"
        }
      ],
      "stateMutability": "view",
      "type": "function"
    },
    {
      "inputs": [
        {
          "internalType": "address",
          "name": "account",
          "type": "address"
        }
      ],
      "name": "existingAddress",
      "outputs": [
        {
          "internalType": "bool",
          "name": "",
          "type": "bool"
        }
      ],
      "stateMutability": "view",
      "type": "function"
    },
    {
      "inputs": [
        {
          "internalType": "string",
          "name": "userName",
          "type": "string"
        }
      ],
      "name": "existingUserName",
      "outputs": [
        {
          "internalType": "bool",
          "name": "",
          "type": "bool"
        }
      ],
      "stateMutability": "view",
      "type": "function"
    },
    {
      "inputs": [
        {
          "internalType": "address",
          "name": "account",
          "type": "address"
        }
      ],
      "name": "getPublicKey",
      "outputs": [
        {
          "components": [
            {
              "internalType": "bool",
              "name": "success",
              "type": "bool"
            },
            {
              "internalType": "string",
              "name": "publicKey",
              "type": "string"
            }
          ],
          "internalType": "struct UserRegister.ResultActionString",
          "name": "",
          "type": "tuple"
        }
      ],
      "stateMutability": "view",
      "type": "function"
    },
    {
      "inputs": [
        {
          "internalType": "address",
          "name": "account",
          "type": "address"
        }
      ],
      "name": "getUser",
      "outputs": [
        {
          "components": [
            {
              "internalType": "bool",
              "name": "success",
              "type": "bool"
            },
            {
              "components": [
                {
                  "internalType": "address",
                  "name": "account",
                  "type": "address"
                },
                {
                  "internalType": "string",
                  "name": "userName",
                  "type": "string"
                },
                {
                  "internalType": "string",
                  "name": "publicKey",
                  "type": "string"
                },
                {
                  "internalType": "string",
                  "name": "privateKey",
                  "type": "string"
                }
              ],
              "internalType": "struct UserRegister.User",
              "name": "user",
              "type": "tuple"
            }
          ],
          "internalType": "struct UserRegister.ResultAction",
          "name": "",
          "type": "tuple"
        }
      ],
      "stateMutability": "view",
      "type": "function"
    },
    {
      "inputs": [
        {
          "internalType": "string",
          "name": "userName",
          "type": "string"
        }
      ],
      "name": "getUserAccount",
      "outputs": [
        {
          "components": [
            {
              "internalType": "bool",
              "name": "success",
              "type": "bool"
            },
            {
              "internalType": "address",
              "name": "account",
              "type": "address"
            }
          ],
          "internalType": "struct UserRegister.ResultActionAddress",
          "name": "",
          "type": "tuple"
        }
      ],
      "stateMutability": "view",
      "type": "function"
    },
    {
      "inputs": [
        {
          "internalType": "address",
          "name": "userAccount",
          "type": "address"
        },
        {
          "internalType": "address",
          "name": "account",
          "type": "address"
        }
      ],
      "name": "isUserTheTrnsctExec",
      "outputs": [
        {
          "internalType": "bool",
          "name": "",
          "type": "bool"
        }
      ],
      "stateMutability": "pure",
      "type": "function"
    },
    {
      "inputs": [
        {
          "components": [
            {
              "internalType": "address",
              "name": "account",
              "type": "address"
            },
            {
              "internalType": "string",
              "name": "userName",
              "type": "string"
            },
            {
              "internalType": "string",
              "name": "publicKey",
              "type": "string"
            },
            {
              "internalType": "string",
              "name": "privateKey",
              "type": "string"
            }
          ],
          "internalType": "struct UserRegister.User",
          "name": "user",
          "type": "tuple"
        }
      ],
      "name": "userRegistered",
      "outputs": [],
      "stateMutability": "nonpayable",
      "type": "function"
    }
  ],
  "bytecode": "0x608060405234801561001057600080fd5b50611613806100206000396000f3fe608060405234801561001057600080fd5b50600436106100885760003560e01c8063857cdbb81161005b578063857cdbb814610139578063a240e42614610169578063b0c22a5614610199578063eeb9ab18146101c957610088565b80632b4bce8b1461008d5780632c8e7110146100bd5780636f77926b146100ed57806375e9493f1461011d575b600080fd5b6100a760048036038101906100a29190610f57565b6101f9565b6040516100b49190610fbb565b60405180910390f35b6100d760048036038101906100d29190610fd6565b610245565b6040516100e49190610fbb565b60405180910390f35b61010760048036038101906101029190611016565b61027e565b604051610114919061118e565b60405180910390f35b61013760048036038101906101329190610f57565b610622565b005b610153600480360381019061014e9190611016565b61088d565b60405161016091906111ed565b60405180910390f35b610183600480360381019061017e9190611016565b610a41565b6040516101909190610fbb565b60405180910390f35b6101b360048036038101906101ae919061120f565b610afb565b6040516101c09190610fbb565b60405180910390f35b6101e360048036038101906101de919061120f565b610b30565b6040516101f09190611287565b60405180910390f35b6000610209826000015133610245565b1561023b5761021b8260200151610afb565b151561022a8360000151610a41565b15150361023a5760019050610240565b5b600090505b919050565b60008173ffffffffffffffffffffffffffffffffffffffff168373ffffffffffffffffffffffffffffffffffffffff1614905092915050565b610286610c1b565b6102908233610245565b1561059e57600073ffffffffffffffffffffffffffffffffffffffff166000808473ffffffffffffffffffffffffffffffffffffffff1673ffffffffffffffffffffffffffffffffffffffff16815260200190815260200160002060000160009054906101000a900473ffffffffffffffffffffffffffffffffffffffff1673ffffffffffffffffffffffffffffffffffffffff161461059d5760405180604001604052806001151581526020016000808573ffffffffffffffffffffffffffffffffffffffff1673ffffffffffffffffffffffffffffffffffffffff1681526020019081526020016000206040518060800160405290816000820160009054906101000a900473ffffffffffffffffffffffffffffffffffffffff1673ffffffffffffffffffffffffffffffffffffffff1673ffffffffffffffffffffffffffffffffffffffff1681526020016001820180546103ed906112d1565b80601f0160208091040260200160405190810160405280929190818152602001828054610419906112d1565b80156104665780601f1061043b57610100808354040283529160200191610466565b820191906000526020600020905b81548152906001019060200180831161044957829003601f168201915b5050505050815260200160028201805461047f906112d1565b80601f01602080910402602001604051908101604052809291908181526020018280546104ab906112d1565b80156104f85780601f106104cd576101008083540402835291602001916104f8565b820191906000526020600020905b8154815290600101906020018083116104db57829003601f168201915b50505050508152602001600382018054610511906112d1565b80601f016020809104026020016040519081016040528092919081815260200182805461053d906112d1565b801561058a5780601f1061055f5761010080835404028352916020019161058a565b820191906000526020600020905b81548152906001019060200180831161056d57829003601f168201915b505050505081525050815250905061061d565b5b60405180604001604052806000151581526020016040518060800160405280600073ffffffffffffffffffffffffffffffffffffffff1681526020016040518060200160405280600081525081526020016040518060200160405280600081525081526020016040518060200160405280600081525081525081525090505b919050565b610630816000015133610245565b1561088a5761063e816101f9565b15610889576040518060800160405280826000015173ffffffffffffffffffffffffffffffffffffffff16815260200182602001518152602001826040015181526020018260600151815250600080836000015173ffffffffffffffffffffffffffffffffffffffff1673ffffffffffffffffffffffffffffffffffffffff16815260200190815260200160002060008201518160000160006101000a81548173ffffffffffffffffffffffffffffffffffffffff021916908373ffffffffffffffffffffffffffffffffffffffff160217905550602082015181600101908161072891906114b8565b50604082015181600201908161073e91906114b8565b50606082015181600301908161075491906114b8565b509050506040518060800160405280826000015173ffffffffffffffffffffffffffffffffffffffff16815260200182602001518152602001826040015181526020018260600151815250600182602001516040516107b391906115c6565b908152602001604051809103902060008201518160000160006101000a81548173ffffffffffffffffffffffffffffffffffffffff021916908373ffffffffffffffffffffffffffffffffffffffff160217905550602082015181600101908161081d91906114b8565b50604082015181600201908161083391906114b8565b50606082015181600301908161084991906114b8565b5090505060016002826020015160405161086391906115c6565b908152602001604051809103902060006101000a81548160ff0219169083151502179055505b5b50565b610895610c3d565b600073ffffffffffffffffffffffffffffffffffffffff166000808473ffffffffffffffffffffffffffffffffffffffff1673ffffffffffffffffffffffffffffffffffffffff16815260200190815260200160002060000160009054906101000a900473ffffffffffffffffffffffffffffffffffffffff1673ffffffffffffffffffffffffffffffffffffffff1614610a125760405180604001604052806001151581526020016000808573ffffffffffffffffffffffffffffffffffffffff1673ffffffffffffffffffffffffffffffffffffffff168152602001908152602001600020600201805461098a906112d1565b80601f01602080910402602001604051908101604052809291908181526020018280546109b6906112d1565b8015610a035780601f106109d857610100808354040283529160200191610a03565b820191906000526020600020905b8154815290600101906020018083116109e657829003601f168201915b50505050508152509050610a3c565b60405180604001604052806000151581526020016040518060200160405280600081525081525090505b919050565b6000610a4d8233610245565b15610af157600073ffffffffffffffffffffffffffffffffffffffff166000808473ffffffffffffffffffffffffffffffffffffffff1673ffffffffffffffffffffffffffffffffffffffff16815260200190815260200160002060000160009054906101000a900473ffffffffffffffffffffffffffffffffffffffff1673ffffffffffffffffffffffffffffffffffffffff1614610af05760019050610af6565b5b600090505b919050565b6000600282604051610b0d91906115c6565b908152602001604051809103902060009054906101000a900460ff169050919050565b610b38610c59565b6000600183604051610b4a91906115c6565b90815260200160405180910390206001018054610b66906112d1565b90501115610be4576040518060400160405280600115158152602001600184604051610b9291906115c6565b908152602001604051809103902060000160009054906101000a900473ffffffffffffffffffffffffffffffffffffffff1673ffffffffffffffffffffffffffffffffffffffff168152509050610c16565b6040518060400160405280600015158152602001600073ffffffffffffffffffffffffffffffffffffffff1681525090505b919050565b6040518060400160405280600015158152602001610c37610c8b565b81525090565b6040518060400160405280600015158152602001606081525090565b6040518060400160405280600015158152602001600073ffffffffffffffffffffffffffffffffffffffff1681525090565b6040518060800160405280600073ffffffffffffffffffffffffffffffffffffffff1681526020016060815260200160608152602001606081525090565b6000604051905090565b600080fd5b600080fd5b600080fd5b6000601f19601f8301169050919050565b7f4e487b7100000000000000000000000000000000000000000000000000000000600052604160045260246000fd5b610d2b82610ce2565b810181811067ffffffffffffffff82111715610d4a57610d49610cf3565b5b80604052505050565b6000610d5d610cc9565b9050610d698282610d22565b919050565b600080fd5b600073ffffffffffffffffffffffffffffffffffffffff82169050919050565b6000610d9e82610d73565b9050919050565b610dae81610d93565b8114610db957600080fd5b50565b600081359050610dcb81610da5565b92915050565b600080fd5b600080fd5b600067ffffffffffffffff821115610df657610df5610cf3565b5b610dff82610ce2565b9050602081019050919050565b82818337600083830152505050565b6000610e2e610e2984610ddb565b610d53565b905082815260208101848484011115610e4a57610e49610dd6565b5b610e55848285610e0c565b509392505050565b600082601f830112610e7257610e71610dd1565b5b8135610e82848260208601610e1b565b91505092915050565b600060808284031215610ea157610ea0610cdd565b5b610eab6080610d53565b90506000610ebb84828501610dbc565b600083015250602082013567ffffffffffffffff811115610edf57610ede610d6e565b5b610eeb84828501610e5d565b602083015250604082013567ffffffffffffffff811115610f0f57610f0e610d6e565b5b610f1b84828501610e5d565b604083015250606082013567ffffffffffffffff811115610f3f57610f3e610d6e565b5b610f4b84828501610e5d565b60608301525092915050565b600060208284031215610f6d57610f6c610cd3565b5b600082013567ffffffffffffffff811115610f8b57610f8a610cd8565b5b610f9784828501610e8b565b91505092915050565b60008115159050919050565b610fb581610fa0565b82525050565b6000602082019050610fd06000830184610fac565b92915050565b60008060408385031215610fed57610fec610cd3565b5b6000610ffb85828601610dbc565b925050602061100c85828601610dbc565b9150509250929050565b60006020828403121561102c5761102b610cd3565b5b600061103a84828501610dbc565b91505092915050565b61104c81610fa0565b82525050565b61105b81610d93565b82525050565b600081519050919050565b600082825260208201905092915050565b60005b8381101561109b578082015181840152602081019050611080565b60008484015250505050565b60006110b282611061565b6110bc818561106c565b93506110cc81856020860161107d565b6110d581610ce2565b840191505092915050565b60006080830160008301516110f86000860182611052565b506020830151848203602086015261111082826110a7565b9150506040830151848203604086015261112a82826110a7565b9150506060830151848203606086015261114482826110a7565b9150508091505092915050565b60006040830160008301516111696000860182611043565b506020830151848203602086015261118182826110e0565b9150508091505092915050565b600060208201905081810360008301526111a88184611151565b905092915050565b60006040830160008301516111c86000860182611043565b50602083015184820360208601526111e082826110a7565b9150508091505092915050565b6000602082019050818103600083015261120781846111b0565b905092915050565b60006020828403121561122557611224610cd3565b5b600082013567ffffffffffffffff81111561124357611242610cd8565b5b61124f84828501610e5d565b91505092915050565b60408201600082015161126e6000850182611043565b5060208201516112816020850182611052565b50505050565b600060408201905061129c6000830184611258565b92915050565b7f4e487b7100000000000000000000000000000000000000000000000000000000600052602260045260246000fd5b600060028204905060018216806112e957607f821691505b6020821081036112fc576112fb6112a2565b5b50919050565b60008190508160005260206000209050919050565b60006020601f8301049050919050565b600082821b905092915050565b6000600883026113647fffffffffffffffffffffffffffffffffffffffffffffffffffffffffffffffff82611327565b61136e8683611327565b95508019841693508086168417925050509392505050565b6000819050919050565b6000819050919050565b60006113b56113b06113ab84611386565b611390565b611386565b9050919050565b6000819050919050565b6113cf8361139a565b6113e36113db826113bc565b848454611334565b825550505050565b600090565b6113f86113eb565b6114038184846113c6565b505050565b5b818110156114275761141c6000826113f0565b600181019050611409565b5050565b601f82111561146c5761143d81611302565b61144684611317565b81016020851015611455578190505b61146961146185611317565b830182611408565b50505b505050565b600082821c905092915050565b600061148f60001984600802611471565b1980831691505092915050565b60006114a8838361147e565b9150826002028217905092915050565b6114c182611061565b67ffffffffffffffff8111156114da576114d9610cf3565b5b6114e482546112d1565b6114ef82828561142b565b600060209050601f8311600181146115225760008415611510578287015190505b61151a858261149c565b865550611582565b601f19841661153086611302565b60005b8281101561155857848901518255600182019150602085019450602081019050611533565b868310156115755784890151611571601f89168261147e565b8355505b6001600288020188555050505b505050505050565b600081905092915050565b60006115a082611061565b6115aa818561158a565b93506115ba81856020860161107d565b80840191505092915050565b60006115d28284611595565b91508190509291505056fea264697066735822122036901abba12a77d91ff9a82d274755335930195c3df95cf905c5324c739ebf2f64736f6c63430008130033",
  "linkReferences": {},
  "deployedLinkReferences": {}
}