{
  "_format": "hh-sol-artifact-1",
  "contractName": "UserRegister",
  "sourceName": "contracts/UserRegister.sol",
  "abi": [
    {
      "inputs": [
        {
          "internalType": "address",
          "name": "helperContract",
          "type": "address"
        }
      ],
      "stateMutability": "nonpayable",
      "type": "constructor"
    },
    {
      "inputs": [
        {
          "components": [
            {
              "internalType": "address",
              "name": "account",
              "type": "address"
            },
            {
              "internalType": "string",
              "name": "userName",
              "type": "string"
            },
            {
              "internalType": "string",
              "name": "publicKey",
              "type": "string"
            },
            {
              "internalType": "string",
              "name": "privateKey",
              "type": "string"
            }
          ],
          "internalType": "struct UserRegister.User",
          "name": "user",
          "type": "tuple"
        }
      ],
      "name": "canRegister",
      "outputs": [
        {
          "internalType": "bool",
          "name": "",
          "type": "bool"
        }
      ],
      "stateMutability": "view",
      "type": "function"
    },
    {
      "inputs": [
        {
          "internalType": "address",
          "name": "account",
          "type": "address"
        }
      ],
      "name": "existingAddress",
      "outputs": [
        {
          "internalType": "bool",
          "name": "",
          "type": "bool"
        }
      ],
      "stateMutability": "view",
      "type": "function"
    },
    {
      "inputs": [
        {
          "internalType": "string",
          "name": "userName",
          "type": "string"
        }
      ],
      "name": "existingUserName",
      "outputs": [
        {
          "internalType": "bool",
          "name": "",
          "type": "bool"
        }
      ],
      "stateMutability": "view",
      "type": "function"
    },
    {
      "inputs": [
        {
          "internalType": "address",
          "name": "account",
          "type": "address"
        }
      ],
      "name": "getPublicKey",
      "outputs": [
        {
          "components": [
            {
              "internalType": "bool",
              "name": "success",
              "type": "bool"
            },
            {
              "internalType": "string",
              "name": "resultString",
              "type": "string"
            }
          ],
          "internalType": "struct Helper.ResultString",
          "name": "",
          "type": "tuple"
        }
      ],
      "stateMutability": "view",
      "type": "function"
    },
    {
      "inputs": [
        {
          "internalType": "address",
          "name": "account",
          "type": "address"
        }
      ],
      "name": "getUser",
      "outputs": [
        {
          "components": [
            {
              "internalType": "bool",
              "name": "success",
              "type": "bool"
            },
            {
              "components": [
                {
                  "internalType": "address",
                  "name": "account",
                  "type": "address"
                },
                {
                  "internalType": "string",
                  "name": "userName",
                  "type": "string"
                },
                {
                  "internalType": "string",
                  "name": "publicKey",
                  "type": "string"
                },
                {
                  "internalType": "string",
                  "name": "privateKey",
                  "type": "string"
                }
              ],
              "internalType": "struct UserRegister.User",
              "name": "user",
              "type": "tuple"
            }
          ],
          "internalType": "struct UserRegister.ResultUser",
          "name": "",
          "type": "tuple"
        }
      ],
      "stateMutability": "view",
      "type": "function"
    },
    {
      "inputs": [
        {
          "internalType": "string",
          "name": "userName",
          "type": "string"
        }
      ],
      "name": "getUserAccount",
      "outputs": [
        {
          "components": [
            {
              "internalType": "bool",
              "name": "success",
              "type": "bool"
            },
            {
              "internalType": "address",
              "name": "resultAddress",
              "type": "address"
            }
          ],
          "internalType": "struct Helper.ResultAddress",
          "name": "",
          "type": "tuple"
        }
      ],
      "stateMutability": "view",
      "type": "function"
    },
    {
      "inputs": [
        {
          "components": [
            {
              "internalType": "address",
              "name": "account",
              "type": "address"
            },
            {
              "internalType": "string",
              "name": "userName",
              "type": "string"
            },
            {
              "internalType": "string",
              "name": "publicKey",
              "type": "string"
            },
            {
              "internalType": "string",
              "name": "privateKey",
              "type": "string"
            }
          ],
          "internalType": "struct UserRegister.User",
          "name": "user",
          "type": "tuple"
        }
      ],
      "name": "userRegistered",
      "outputs": [],
      "stateMutability": "nonpayable",
      "type": "function"
    }
  ],
  "bytecode": "0x60806040523480156200001157600080fd5b506040516200187b3803806200187b8339818101604052810190620000379190620000e9565b80600360006101000a81548173ffffffffffffffffffffffffffffffffffffffff021916908373ffffffffffffffffffffffffffffffffffffffff160217905550506200011b565b600080fd5b600073ffffffffffffffffffffffffffffffffffffffff82169050919050565b6000620000b18262000084565b9050919050565b620000c381620000a4565b8114620000cf57600080fd5b50565b600081519050620000e381620000b8565b92915050565b6000602082840312156200010257620001016200007f565b5b60006200011284828501620000d2565b91505092915050565b611750806200012b6000396000f3fe608060405234801561001057600080fd5b506004361061007d5760003560e01c8063857cdbb81161005b578063857cdbb8146100fe578063a240e4261461012e578063b0c22a561461015e578063eeb9ab181461018e5761007d565b80632b4bce8b146100825780636f77926b146100b257806375e9493f146100e2575b600080fd5b61009c60048036038101906100979190610fe8565b6101be565b6040516100a9919061104c565b60405180910390f35b6100cc60048036038101906100c79190611067565b6102d8565b6040516100d991906111df565b60405180910390f35b6100fc60048036038101906100f79190610fe8565b6106a0565b005b61011860048036038101906101139190611067565b61092f565b604051610125919061123e565b60405180910390f35b61014860048036038101906101439190611067565b610ae3565b604051610155919061104c565b60405180910390f35b61017860048036038101906101739190611260565b610b8c565b604051610185919061104c565b60405180910390f35b6101a860048036038101906101a39190611260565b610bc1565b6040516101b591906112d8565b60405180910390f35b60003373ffffffffffffffffffffffffffffffffffffffff16826000015173ffffffffffffffffffffffffffffffffffffffff16036102ce576102048260000151610ae3565b15801561021b57506102198260200151610b8c565b155b80156102bf5750600360009054906101000a900473ffffffffffffffffffffffffffffffffffffffff1673ffffffffffffffffffffffffffffffffffffffff1663e779f450836040518263ffffffff1660e01b815260040161027d9190611364565b602060405180830381865afa15801561029a573d6000803e3d6000fd5b505050506040513d601f19601f820116820180604052508101906102be91906113b2565b5b156102cd57600190506102d3565b5b600090505b919050565b6102e0610cac565b3373ffffffffffffffffffffffffffffffffffffffff168273ffffffffffffffffffffffffffffffffffffffff160361061c57600073ffffffffffffffffffffffffffffffffffffffff166000808473ffffffffffffffffffffffffffffffffffffffff1673ffffffffffffffffffffffffffffffffffffffff16815260200190815260200160002060000160009054906101000a900473ffffffffffffffffffffffffffffffffffffffff1673ffffffffffffffffffffffffffffffffffffffff161461061b5760405180604001604052806001151581526020016000808573ffffffffffffffffffffffffffffffffffffffff1673ffffffffffffffffffffffffffffffffffffffff1681526020019081526020016000206040518060800160405290816000820160009054906101000a900473ffffffffffffffffffffffffffffffffffffffff1673ffffffffffffffffffffffffffffffffffffffff1673ffffffffffffffffffffffffffffffffffffffff16815260200160018201805461046b9061140e565b80601f01602080910402602001604051908101604052809291908181526020018280546104979061140e565b80156104e45780601f106104b9576101008083540402835291602001916104e4565b820191906000526020600020905b8154815290600101906020018083116104c757829003601f168201915b505050505081526020016002820180546104fd9061140e565b80601f01602080910402602001604051908101604052809291908181526020018280546105299061140e565b80156105765780601f1061054b57610100808354040283529160200191610576565b820191906000526020600020905b81548152906001019060200180831161055957829003601f168201915b5050505050815260200160038201805461058f9061140e565b80601f01602080910402602001604051908101604052809291908181526020018280546105bb9061140e565b80156106085780601f106105dd57610100808354040283529160200191610608565b820191906000526020600020905b8154815290600101906020018083116105eb57829003601f168201915b505050505081525050815250905061069b565b5b60405180604001604052806000151581526020016040518060800160405280600073ffffffffffffffffffffffffffffffffffffffff1681526020016040518060200160405280600081525081526020016040518060200160405280600081525081526020016040518060200160405280600081525081525081525090505b919050565b3373ffffffffffffffffffffffffffffffffffffffff16816000015173ffffffffffffffffffffffffffffffffffffffff160361092c576106e0816101be565b1561092b576040518060800160405280826000015173ffffffffffffffffffffffffffffffffffffffff16815260200182602001518152602001826040015181526020018260600151815250600080836000015173ffffffffffffffffffffffffffffffffffffffff1673ffffffffffffffffffffffffffffffffffffffff16815260200190815260200160002060008201518160000160006101000a81548173ffffffffffffffffffffffffffffffffffffffff021916908373ffffffffffffffffffffffffffffffffffffffff16021790555060208201518160010190816107ca91906115f5565b5060408201518160020190816107e091906115f5565b5060608201518160030190816107f691906115f5565b509050506040518060800160405280826000015173ffffffffffffffffffffffffffffffffffffffff16815260200182602001518152602001826040015181526020018260600151815250600182602001516040516108559190611703565b908152602001604051809103902060008201518160000160006101000a81548173ffffffffffffffffffffffffffffffffffffffff021916908373ffffffffffffffffffffffffffffffffffffffff16021790555060208201518160010190816108bf91906115f5565b5060408201518160020190816108d591906115f5565b5060608201518160030190816108eb91906115f5565b509050506001600282602001516040516109059190611703565b908152602001604051809103902060006101000a81548160ff0219169083151502179055505b5b50565b610937610cce565b600073ffffffffffffffffffffffffffffffffffffffff166000808473ffffffffffffffffffffffffffffffffffffffff1673ffffffffffffffffffffffffffffffffffffffff16815260200190815260200160002060000160009054906101000a900473ffffffffffffffffffffffffffffffffffffffff1673ffffffffffffffffffffffffffffffffffffffff1614610ab45760405180604001604052806001151581526020016000808573ffffffffffffffffffffffffffffffffffffffff1673ffffffffffffffffffffffffffffffffffffffff1681526020019081526020016000206002018054610a2c9061140e565b80601f0160208091040260200160405190810160405280929190818152602001828054610a589061140e565b8015610aa55780601f10610a7a57610100808354040283529160200191610aa5565b820191906000526020600020905b815481529060010190602001808311610a8857829003601f168201915b50505050508152509050610ade565b60405180604001604052806000151581526020016040518060200160405280600081525081525090505b919050565b60008073ffffffffffffffffffffffffffffffffffffffff166000808473ffffffffffffffffffffffffffffffffffffffff1673ffffffffffffffffffffffffffffffffffffffff16815260200190815260200160002060000160009054906101000a900473ffffffffffffffffffffffffffffffffffffffff1673ffffffffffffffffffffffffffffffffffffffff1614610b825760019050610b87565b600090505b919050565b6000600282604051610b9e9190611703565b908152602001604051809103902060009054906101000a900460ff169050919050565b610bc9610cea565b6000600183604051610bdb9190611703565b90815260200160405180910390206001018054610bf79061140e565b90501115610c75576040518060400160405280600115158152602001600184604051610c239190611703565b908152602001604051809103902060000160009054906101000a900473ffffffffffffffffffffffffffffffffffffffff1673ffffffffffffffffffffffffffffffffffffffff168152509050610ca7565b6040518060400160405280600015158152602001600073ffffffffffffffffffffffffffffffffffffffff1681525090505b919050565b6040518060400160405280600015158152602001610cc8610d1c565b81525090565b6040518060400160405280600015158152602001606081525090565b6040518060400160405280600015158152602001600073ffffffffffffffffffffffffffffffffffffffff1681525090565b6040518060800160405280600073ffffffffffffffffffffffffffffffffffffffff1681526020016060815260200160608152602001606081525090565b6000604051905090565b600080fd5b600080fd5b600080fd5b6000601f19601f8301169050919050565b7f4e487b7100000000000000000000000000000000000000000000000000000000600052604160045260246000fd5b610dbc82610d73565b810181811067ffffffffffffffff82111715610ddb57610dda610d84565b5b80604052505050565b6000610dee610d5a565b9050610dfa8282610db3565b919050565b600080fd5b600073ffffffffffffffffffffffffffffffffffffffff82169050919050565b6000610e2f82610e04565b9050919050565b610e3f81610e24565b8114610e4a57600080fd5b50565b600081359050610e5c81610e36565b92915050565b600080fd5b600080fd5b600067ffffffffffffffff821115610e8757610e86610d84565b5b610e9082610d73565b9050602081019050919050565b82818337600083830152505050565b6000610ebf610eba84610e6c565b610de4565b905082815260208101848484011115610edb57610eda610e67565b5b610ee6848285610e9d565b509392505050565b600082601f830112610f0357610f02610e62565b5b8135610f13848260208601610eac565b91505092915050565b600060808284031215610f3257610f31610d6e565b5b610f3c6080610de4565b90506000610f4c84828501610e4d565b600083015250602082013567ffffffffffffffff811115610f7057610f6f610dff565b5b610f7c84828501610eee565b602083015250604082013567ffffffffffffffff811115610fa057610f9f610dff565b5b610fac84828501610eee565b604083015250606082013567ffffffffffffffff811115610fd057610fcf610dff565b5b610fdc84828501610eee565b60608301525092915050565b600060208284031215610ffe57610ffd610d64565b5b600082013567ffffffffffffffff81111561101c5761101b610d69565b5b61102884828501610f1c565b91505092915050565b60008115159050919050565b61104681611031565b82525050565b6000602082019050611061600083018461103d565b92915050565b60006020828403121561107d5761107c610d64565b5b600061108b84828501610e4d565b91505092915050565b61109d81611031565b82525050565b6110ac81610e24565b82525050565b600081519050919050565b600082825260208201905092915050565b60005b838110156110ec5780820151818401526020810190506110d1565b60008484015250505050565b6000611103826110b2565b61110d81856110bd565b935061111d8185602086016110ce565b61112681610d73565b840191505092915050565b600060808301600083015161114960008601826110a3565b506020830151848203602086015261116182826110f8565b9150506040830151848203604086015261117b82826110f8565b9150506060830151848203606086015261119582826110f8565b9150508091505092915050565b60006040830160008301516111ba6000860182611094565b50602083015184820360208601526111d28282611131565b9150508091505092915050565b600060208201905081810360008301526111f981846111a2565b905092915050565b60006040830160008301516112196000860182611094565b506020830151848203602086015261123182826110f8565b9150508091505092915050565b600060208201905081810360008301526112588184611201565b905092915050565b60006020828403121561127657611275610d64565b5b600082013567ffffffffffffffff81111561129457611293610d69565b5b6112a084828501610eee565b91505092915050565b6040820160008201516112bf6000850182611094565b5060208201516112d260208501826110a3565b50505050565b60006040820190506112ed60008301846112a9565b92915050565b600060808301600083015161130b60008601826110a3565b506020830151848203602086015261132382826110f8565b9150506040830151848203604086015261133d82826110f8565b9150506060830151848203606086015261135782826110f8565b9150508091505092915050565b6000602082019050818103600083015261137e81846112f3565b905092915050565b61138f81611031565b811461139a57600080fd5b50565b6000815190506113ac81611386565b92915050565b6000602082840312156113c8576113c7610d64565b5b60006113d68482850161139d565b91505092915050565b7f4e487b7100000000000000000000000000000000000000000000000000000000600052602260045260246000fd5b6000600282049050600182168061142657607f821691505b602082108103611439576114386113df565b5b50919050565b60008190508160005260206000209050919050565b60006020601f8301049050919050565b600082821b905092915050565b6000600883026114a17fffffffffffffffffffffffffffffffffffffffffffffffffffffffffffffffff82611464565b6114ab8683611464565b95508019841693508086168417925050509392505050565b6000819050919050565b6000819050919050565b60006114f26114ed6114e8846114c3565b6114cd565b6114c3565b9050919050565b6000819050919050565b61150c836114d7565b611520611518826114f9565b848454611471565b825550505050565b600090565b611535611528565b611540818484611503565b505050565b5b818110156115645761155960008261152d565b600181019050611546565b5050565b601f8211156115a95761157a8161143f565b61158384611454565b81016020851015611592578190505b6115a661159e85611454565b830182611545565b50505b505050565b600082821c905092915050565b60006115cc600019846008026115ae565b1980831691505092915050565b60006115e583836115bb565b9150826002028217905092915050565b6115fe826110b2565b67ffffffffffffffff81111561161757611616610d84565b5b611621825461140e565b61162c828285611568565b600060209050601f83116001811461165f576000841561164d578287015190505b61165785826115d9565b8655506116bf565b601f19841661166d8661143f565b60005b8281101561169557848901518255600182019150602085019450602081019050611670565b868310156116b257848901516116ae601f8916826115bb565b8355505b6001600288020188555050505b505050505050565b600081905092915050565b60006116dd826110b2565b6116e781856116c7565b93506116f78185602086016110ce565b80840191505092915050565b600061170f82846116d2565b91508190509291505056fea264697066735822122023e542a6f902b31bb20b0a03981850e7a6147045aa3aa9bc9c1335efab679d2564736f6c63430008130033",
  "linkReferences": {},
  "deployedLinkReferences": {}
}