{
  "_format": "hh-sol-artifact-1",
  "contractName": "UserRegister",
  "sourceName": "contracts/UserRegister.sol",
  "abi": [
    {
      "anonymous": false,
      "inputs": [
        {
          "indexed": false,
          "internalType": "bool",
          "name": "success",
          "type": "bool"
        },
        {
          "indexed": false,
          "internalType": "string",
          "name": "message",
          "type": "string"
        }
      ],
      "name": "RegistrationResult",
      "type": "event"
    },
    {
      "inputs": [
        {
          "components": [
            {
              "internalType": "address",
              "name": "account",
              "type": "address"
            },
            {
              "internalType": "string",
              "name": "userName",
              "type": "string"
            },
            {
              "internalType": "string",
              "name": "publicKey",
              "type": "string"
            },
            {
              "internalType": "string",
              "name": "privateKey",
              "type": "string"
            }
          ],
          "internalType": "struct UserRegister.User",
          "name": "user",
          "type": "tuple"
        }
      ],
      "name": "checkRegistration",
      "outputs": [
        {
          "internalType": "string",
          "name": "",
          "type": "string"
        }
      ],
      "stateMutability": "view",
      "type": "function"
    },
    {
      "inputs": [
        {
          "internalType": "address",
          "name": "account",
          "type": "address"
        }
      ],
      "name": "getUser",
      "outputs": [
        {
          "components": [
            {
              "internalType": "address",
              "name": "account",
              "type": "address"
            },
            {
              "internalType": "string",
              "name": "userName",
              "type": "string"
            },
            {
              "internalType": "string",
              "name": "publicKey",
              "type": "string"
            },
            {
              "internalType": "string",
              "name": "privateKey",
              "type": "string"
            }
          ],
          "internalType": "struct UserRegister.User",
          "name": "",
          "type": "tuple"
        }
      ],
      "stateMutability": "view",
      "type": "function"
    },
    {
      "inputs": [
        {
          "internalType": "string",
          "name": "userName",
          "type": "string"
        }
      ],
      "name": "getUserByUserName",
      "outputs": [
        {
          "components": [
            {
              "internalType": "address",
              "name": "account",
              "type": "address"
            },
            {
              "internalType": "string",
              "name": "userName",
              "type": "string"
            },
            {
              "internalType": "string",
              "name": "publicKey",
              "type": "string"
            },
            {
              "internalType": "string",
              "name": "privateKey",
              "type": "string"
            }
          ],
          "internalType": "struct UserRegister.User",
          "name": "",
          "type": "tuple"
        }
      ],
      "stateMutability": "view",
      "type": "function"
    },
    {
      "inputs": [
        {
          "components": [
            {
              "internalType": "address",
              "name": "account",
              "type": "address"
            },
            {
              "internalType": "string",
              "name": "userName",
              "type": "string"
            },
            {
              "internalType": "string",
              "name": "publicKey",
              "type": "string"
            },
            {
              "internalType": "string",
              "name": "privateKey",
              "type": "string"
            }
          ],
          "internalType": "struct UserRegister.User",
          "name": "user",
          "type": "tuple"
        }
      ],
      "name": "register",
      "outputs": [],
      "stateMutability": "nonpayable",
      "type": "function"
    }
  ],
  "bytecode": "0x608060405234801561001057600080fd5b50611566806100206000396000f3fe608060405234801561001057600080fd5b506004361061004c5760003560e01c8063610273da1461005157806362629bef146100815780636f77926b1461009d578063be6c8987146100cd575b600080fd5b61006b60048036038101906100669190610ca2565b6100fd565b6040516100789190610d6a565b60405180910390f35b61009b60048036038101906100969190610ca2565b610244565b005b6100b760048036038101906100b29190610d8c565b61038e565b6040516100c49190610e83565b60405180910390f35b6100e760048036038101906100e29190610ea5565b610685565b6040516100f49190610e83565b60405180910390f35b606060005b60008054905081101561022b57826000015173ffffffffffffffffffffffffffffffffffffffff166000828154811061013e5761013d610eee565b5b906000526020600020906004020160000160009054906101000a900473ffffffffffffffffffffffffffffffffffffffff1673ffffffffffffffffffffffffffffffffffffffff16036101ac576040518060600160405280602581526020016114e96025913991505061023f565b826020015180519060200120600082815481106101cc576101cb610eee565b5b90600052602060002090600402016001016040516101ea9190611020565b6040518091039020036102185760405180606001604052806023815260200161150e6023913991505061023f565b808061022390611070565b915050610102565b506040518060200160405280600081525090505b919050565b600061024f826100fd565b9050600081510361034f57600082908060018154018082558091505060019003906000526020600020906004020160009091909190915060008201518160000160006101000a81548173ffffffffffffffffffffffffffffffffffffffff021916908373ffffffffffffffffffffffffffffffffffffffff16021790555060208201518160010190816102e29190611264565b5060408201518160020190816102f89190611264565b50606082015181600301908161030e9190611264565b5050507f40590457641da6c4e096f4ca29eb26968297d549f04209fa29e48fa5e22405cb6001604051610341919061139d565b60405180910390a15061038b565b7f40590457641da6c4e096f4ca29eb26968297d549f04209fa29e48fa5e22405cb6000826040516103819291906113cb565b60405180910390a1505b50565b6103966109d6565b60005b600080549050811015610672578273ffffffffffffffffffffffffffffffffffffffff16600082815481106103d1576103d0610eee565b5b906000526020600020906004020160000160009054906101000a900473ffffffffffffffffffffffffffffffffffffffff1673ffffffffffffffffffffffffffffffffffffffff160361065f576000818154811061043257610431610eee565b5b90600052602060002090600402016040518060800160405290816000820160009054906101000a900473ffffffffffffffffffffffffffffffffffffffff1673ffffffffffffffffffffffffffffffffffffffff1673ffffffffffffffffffffffffffffffffffffffff1681526020016001820180546104b190610f4c565b80601f01602080910402602001604051908101604052809291908181526020018280546104dd90610f4c565b801561052a5780601f106104ff5761010080835404028352916020019161052a565b820191906000526020600020905b81548152906001019060200180831161050d57829003601f168201915b5050505050815260200160028201805461054390610f4c565b80601f016020809104026020016040519081016040528092919081815260200182805461056f90610f4c565b80156105bc5780601f10610591576101008083540402835291602001916105bc565b820191906000526020600020905b81548152906001019060200180831161059f57829003601f168201915b505050505081526020016003820180546105d590610f4c565b80601f016020809104026020016040519081016040528092919081815260200182805461060190610f4c565b801561064e5780601f106106235761010080835404028352916020019161064e565b820191906000526020600020905b81548152906001019060200180831161063157829003601f168201915b505050505081525050915050610680565b808061066a90611070565b915050610399565b5061067b6109d6565b809150505b919050565b61068d6109d6565b60005b60008054905081101561096857826040516020016106ae9190611437565b60405160208183030381529060405280519060200120600082815481106106d8576106d7610eee565b5b90600052602060002090600402016001016040516020016106f991906114d1565b6040516020818303038152906040528051906020012003610955576000818154811061072857610727610eee565b5b90600052602060002090600402016040518060800160405290816000820160009054906101000a900473ffffffffffffffffffffffffffffffffffffffff1673ffffffffffffffffffffffffffffffffffffffff1673ffffffffffffffffffffffffffffffffffffffff1681526020016001820180546107a790610f4c565b80601f01602080910402602001604051908101604052809291908181526020018280546107d390610f4c565b80156108205780601f106107f557610100808354040283529160200191610820565b820191906000526020600020905b81548152906001019060200180831161080357829003601f168201915b5050505050815260200160028201805461083990610f4c565b80601f016020809104026020016040519081016040528092919081815260200182805461086590610f4c565b80156108b25780601f10610887576101008083540402835291602001916108b2565b820191906000526020600020905b81548152906001019060200180831161089557829003601f168201915b505050505081526020016003820180546108cb90610f4c565b80601f01602080910402602001604051908101604052809291908181526020018280546108f790610f4c565b80156109445780601f1061091957610100808354040283529160200191610944565b820191906000526020600020905b81548152906001019060200180831161092757829003601f168201915b5050505050815250509150506109d1565b808061096090611070565b915050610690565b506040518060800160405280600073ffffffffffffffffffffffffffffffffffffffff1681526020016040518060200160405280600081525081526020016040518060200160405280600081525081526020016040518060200160405280600081525081525090505b919050565b6040518060800160405280600073ffffffffffffffffffffffffffffffffffffffff1681526020016060815260200160608152602001606081525090565b6000604051905090565b600080fd5b600080fd5b600080fd5b6000601f19601f8301169050919050565b7f4e487b7100000000000000000000000000000000000000000000000000000000600052604160045260246000fd5b610a7682610a2d565b810181811067ffffffffffffffff82111715610a9557610a94610a3e565b5b80604052505050565b6000610aa8610a14565b9050610ab48282610a6d565b919050565b600080fd5b600073ffffffffffffffffffffffffffffffffffffffff82169050919050565b6000610ae982610abe565b9050919050565b610af981610ade565b8114610b0457600080fd5b50565b600081359050610b1681610af0565b92915050565b600080fd5b600080fd5b600067ffffffffffffffff821115610b4157610b40610a3e565b5b610b4a82610a2d565b9050602081019050919050565b82818337600083830152505050565b6000610b79610b7484610b26565b610a9e565b905082815260208101848484011115610b9557610b94610b21565b5b610ba0848285610b57565b509392505050565b600082601f830112610bbd57610bbc610b1c565b5b8135610bcd848260208601610b66565b91505092915050565b600060808284031215610bec57610beb610a28565b5b610bf66080610a9e565b90506000610c0684828501610b07565b600083015250602082013567ffffffffffffffff811115610c2a57610c29610ab9565b5b610c3684828501610ba8565b602083015250604082013567ffffffffffffffff811115610c5a57610c59610ab9565b5b610c6684828501610ba8565b604083015250606082013567ffffffffffffffff811115610c8a57610c89610ab9565b5b610c9684828501610ba8565b60608301525092915050565b600060208284031215610cb857610cb7610a1e565b5b600082013567ffffffffffffffff811115610cd657610cd5610a23565b5b610ce284828501610bd6565b91505092915050565b600081519050919050565b600082825260208201905092915050565b60005b83811015610d25578082015181840152602081019050610d0a565b60008484015250505050565b6000610d3c82610ceb565b610d468185610cf6565b9350610d56818560208601610d07565b610d5f81610a2d565b840191505092915050565b60006020820190508181036000830152610d848184610d31565b905092915050565b600060208284031215610da257610da1610a1e565b5b6000610db084828501610b07565b91505092915050565b610dc281610ade565b82525050565b600082825260208201905092915050565b6000610de482610ceb565b610dee8185610dc8565b9350610dfe818560208601610d07565b610e0781610a2d565b840191505092915050565b6000608083016000830151610e2a6000860182610db9565b5060208301518482036020860152610e428282610dd9565b91505060408301518482036040860152610e5c8282610dd9565b91505060608301518482036060860152610e768282610dd9565b9150508091505092915050565b60006020820190508181036000830152610e9d8184610e12565b905092915050565b600060208284031215610ebb57610eba610a1e565b5b600082013567ffffffffffffffff811115610ed957610ed8610a23565b5b610ee584828501610ba8565b91505092915050565b7f4e487b7100000000000000000000000000000000000000000000000000000000600052603260045260246000fd5b7f4e487b7100000000000000000000000000000000000000000000000000000000600052602260045260246000fd5b60006002820490506001821680610f6457607f821691505b602082108103610f7757610f76610f1d565b5b50919050565b600081905092915050565b60008190508160005260206000209050919050565b60008154610faa81610f4c565b610fb48186610f7d565b94506001821660008114610fcf5760018114610fe457611017565b60ff1983168652811515820286019350611017565b610fed85610f88565b60005b8381101561100f57815481890152600182019150602081019050610ff0565b838801955050505b50505092915050565b600061102c8284610f9d565b915081905092915050565b7f4e487b7100000000000000000000000000000000000000000000000000000000600052601160045260246000fd5b6000819050919050565b600061107b82611066565b91507fffffffffffffffffffffffffffffffffffffffffffffffffffffffffffffffff82036110ad576110ac611037565b5b600182019050919050565b60008190508160005260206000209050919050565b60006020601f8301049050919050565b600082821b905092915050565b60006008830261111a7fffffffffffffffffffffffffffffffffffffffffffffffffffffffffffffffff826110dd565b61112486836110dd565b95508019841693508086168417925050509392505050565b6000819050919050565b600061116161115c61115784611066565b61113c565b611066565b9050919050565b6000819050919050565b61117b83611146565b61118f61118782611168565b8484546110ea565b825550505050565b600090565b6111a4611197565b6111af818484611172565b505050565b5b818110156111d3576111c860008261119c565b6001810190506111b5565b5050565b601f821115611218576111e9816110b8565b6111f2846110cd565b81016020851015611201578190505b61121561120d856110cd565b8301826111b4565b50505b505050565b600082821c905092915050565b600061123b6000198460080261121d565b1980831691505092915050565b6000611254838361122a565b9150826002028217905092915050565b61126d82610ceb565b67ffffffffffffffff81111561128657611285610a3e565b5b6112908254610f4c565b61129b8282856111d7565b600060209050601f8311600181146112ce57600084156112bc578287015190505b6112c68582611248565b86555061132e565b601f1984166112dc866110b8565b60005b82811015611304578489015182556001820191506020850194506020810190506112df565b86831015611321578489015161131d601f89168261122a565b8355505b6001600288020188555050505b505050505050565b60008115159050919050565b61134b81611336565b82525050565b7f557365722072656769737465726564207375636365737366756c6c7900000000600082015250565b6000611387601c83610cf6565b915061139282611351565b602082019050919050565b60006040820190506113b26000830184611342565b81810360208301526113c38161137a565b905092915050565b60006040820190506113e06000830185611342565b81810360208301526113f28184610d31565b90509392505050565b600081905092915050565b600061141182610ceb565b61141b81856113fb565b935061142b818560208601610d07565b80840191505092915050565b60006114438284611406565b915081905092915050565b6000815461145b81610f4c565b61146581866113fb565b945060018216600081146114805760018114611495576114c8565b60ff19831686528115158202860193506114c8565b61149e856110b8565b60005b838110156114c0578154818901526001820191506020810190506114a1565b838801955050505b50505092915050565b60006114dd828461144e565b91508190509291505056fe5573657220616c72656164792065786973747320666f72207468697320616464726573732e557365722068617320746f2068617665206120756e6971756520757365724e616d652ea264697066735822122049869f99a86ab5964726e98c5077cb37c978315eaff67f1c58e96ec63527563064736f6c63430008130033",
  "linkReferences": {},
  "deployedLinkReferences": {}
}