{
  "_format": "hh-sol-artifact-1",
  "contractName": "UserRegister",
  "sourceName": "contracts/UserRegister.sol",
  "abi": [
    {
      "inputs": [
        {
          "internalType": "address",
          "name": "helperContract",
          "type": "address"
        }
      ],
      "stateMutability": "nonpayable",
      "type": "constructor"
    },
    {
      "inputs": [
        {
          "components": [
            {
              "internalType": "address",
              "name": "account",
              "type": "address"
            },
            {
              "internalType": "string",
              "name": "userName",
              "type": "string"
            },
            {
              "internalType": "string",
              "name": "publicKey",
              "type": "string"
            },
            {
              "internalType": "string",
              "name": "privateKey",
              "type": "string"
            }
          ],
          "internalType": "struct UserRegister.User",
          "name": "user",
          "type": "tuple"
        }
      ],
      "name": "canRegister",
      "outputs": [
        {
          "internalType": "bool",
          "name": "",
          "type": "bool"
        }
      ],
      "stateMutability": "view",
      "type": "function"
    },
    {
      "inputs": [
        {
          "internalType": "address",
          "name": "account",
          "type": "address"
        }
      ],
      "name": "existingAddress",
      "outputs": [
        {
          "internalType": "bool",
          "name": "",
          "type": "bool"
        }
      ],
      "stateMutability": "view",
      "type": "function"
    },
    {
      "inputs": [
        {
          "internalType": "string",
          "name": "userName",
          "type": "string"
        }
      ],
      "name": "existingUserName",
      "outputs": [
        {
          "internalType": "bool",
          "name": "",
          "type": "bool"
        }
      ],
      "stateMutability": "view",
      "type": "function"
    },
    {
      "inputs": [
        {
          "internalType": "address",
          "name": "account",
          "type": "address"
        }
      ],
      "name": "getPublicKey",
      "outputs": [
        {
          "components": [
            {
              "internalType": "bool",
              "name": "success",
              "type": "bool"
            },
            {
              "internalType": "string",
              "name": "resultString",
              "type": "string"
            }
          ],
          "internalType": "struct Helper.ResultString",
          "name": "",
          "type": "tuple"
        }
      ],
      "stateMutability": "view",
      "type": "function"
    },
    {
      "inputs": [
        {
          "internalType": "address",
          "name": "account",
          "type": "address"
        }
      ],
      "name": "getUser",
      "outputs": [
        {
          "components": [
            {
              "internalType": "bool",
              "name": "success",
              "type": "bool"
            },
            {
              "components": [
                {
                  "internalType": "address",
                  "name": "account",
                  "type": "address"
                },
                {
                  "internalType": "string",
                  "name": "userName",
                  "type": "string"
                },
                {
                  "internalType": "string",
                  "name": "publicKey",
                  "type": "string"
                },
                {
                  "internalType": "string",
                  "name": "privateKey",
                  "type": "string"
                }
              ],
              "internalType": "struct UserRegister.User",
              "name": "user",
              "type": "tuple"
            }
          ],
          "internalType": "struct UserRegister.ResultUser",
          "name": "",
          "type": "tuple"
        }
      ],
      "stateMutability": "view",
      "type": "function"
    },
    {
      "inputs": [
        {
          "internalType": "string",
          "name": "userName",
          "type": "string"
        }
      ],
      "name": "getUserAccount",
      "outputs": [
        {
          "components": [
            {
              "internalType": "bool",
              "name": "success",
              "type": "bool"
            },
            {
              "internalType": "address",
              "name": "resultAddress",
              "type": "address"
            }
          ],
          "internalType": "struct Helper.ResultAddress",
          "name": "",
          "type": "tuple"
        }
      ],
      "stateMutability": "view",
      "type": "function"
    },
    {
      "inputs": [
        {
          "internalType": "address",
          "name": "account",
          "type": "address"
        }
      ],
      "name": "getUserUserName",
      "outputs": [
        {
          "components": [
            {
              "internalType": "bool",
              "name": "success",
              "type": "bool"
            },
            {
              "internalType": "string",
              "name": "resultString",
              "type": "string"
            }
          ],
          "internalType": "struct Helper.ResultString",
          "name": "",
          "type": "tuple"
        }
      ],
      "stateMutability": "view",
      "type": "function"
    },
    {
      "inputs": [
        {
          "components": [
            {
              "internalType": "address",
              "name": "account",
              "type": "address"
            },
            {
              "internalType": "string",
              "name": "userName",
              "type": "string"
            },
            {
              "internalType": "string",
              "name": "publicKey",
              "type": "string"
            },
            {
              "internalType": "string",
              "name": "privateKey",
              "type": "string"
            }
          ],
          "internalType": "struct UserRegister.User",
          "name": "user",
          "type": "tuple"
        }
      ],
      "name": "userRegistered",
      "outputs": [],
      "stateMutability": "nonpayable",
      "type": "function"
    }
  ],
  "bytecode": "0x60806040523480156200001157600080fd5b5060405162001a6a38038062001a6a8339818101604052810190620000379190620000e9565b80600360006101000a81548173ffffffffffffffffffffffffffffffffffffffff021916908373ffffffffffffffffffffffffffffffffffffffff160217905550506200011b565b600080fd5b600073ffffffffffffffffffffffffffffffffffffffff82169050919050565b6000620000b18262000084565b9050919050565b620000c381620000a4565b8114620000cf57600080fd5b50565b600081519050620000e381620000b8565b92915050565b6000602082840312156200010257620001016200007f565b5b60006200011284828501620000d2565b91505092915050565b61193f806200012b6000396000f3fe608060405234801561001057600080fd5b50600436106100885760003560e01c8063857cdbb81161005b578063857cdbb814610139578063a240e42614610169578063b0c22a5614610199578063eeb9ab18146101c957610088565b80632b4bce8b1461008d57806367156cf1146100bd5780636f77926b146100ed57806375e9493f1461011d575b600080fd5b6100a760048036038101906100a291906111d7565b6101f9565b6040516100b4919061123b565b60405180910390f35b6100d760048036038101906100d29190611256565b610313565b6040516100e4919061134e565b60405180910390f35b61010760048036038101906101029190611256565b6104c7565b604051610114919061142d565b60405180910390f35b610137600480360381019061013291906111d7565b61088f565b005b610153600480360381019061014e9190611256565b610b1e565b604051610160919061134e565b60405180910390f35b610183600480360381019061017e9190611256565b610cd2565b604051610190919061123b565b60405180910390f35b6101b360048036038101906101ae919061144f565b610d7b565b6040516101c0919061123b565b60405180910390f35b6101e360048036038101906101de919061144f565b610db0565b6040516101f091906114c7565b60405180910390f35b60003373ffffffffffffffffffffffffffffffffffffffff16826000015173ffffffffffffffffffffffffffffffffffffffff16036103095761023f8260000151610cd2565b15801561025657506102548260200151610d7b565b155b80156102fa5750600360009054906101000a900473ffffffffffffffffffffffffffffffffffffffff1673ffffffffffffffffffffffffffffffffffffffff1663e779f450836040518263ffffffff1660e01b81526004016102b89190611553565b602060405180830381865afa1580156102d5573d6000803e3d6000fd5b505050506040513d601f19601f820116820180604052508101906102f991906115a1565b5b15610308576001905061030e565b5b600090505b919050565b61031b610e9b565b600073ffffffffffffffffffffffffffffffffffffffff166000808473ffffffffffffffffffffffffffffffffffffffff1673ffffffffffffffffffffffffffffffffffffffff16815260200190815260200160002060000160009054906101000a900473ffffffffffffffffffffffffffffffffffffffff1673ffffffffffffffffffffffffffffffffffffffff16146104985760405180604001604052806001151581526020016000808573ffffffffffffffffffffffffffffffffffffffff1673ffffffffffffffffffffffffffffffffffffffff1681526020019081526020016000206001018054610410906115fd565b80601f016020809104026020016040519081016040528092919081815260200182805461043c906115fd565b80156104895780601f1061045e57610100808354040283529160200191610489565b820191906000526020600020905b81548152906001019060200180831161046c57829003601f168201915b505050505081525090506104c2565b60405180604001604052806000151581526020016040518060200160405280600081525081525090505b919050565b6104cf610eb7565b3373ffffffffffffffffffffffffffffffffffffffff168273ffffffffffffffffffffffffffffffffffffffff160361080b57600073ffffffffffffffffffffffffffffffffffffffff166000808473ffffffffffffffffffffffffffffffffffffffff1673ffffffffffffffffffffffffffffffffffffffff16815260200190815260200160002060000160009054906101000a900473ffffffffffffffffffffffffffffffffffffffff1673ffffffffffffffffffffffffffffffffffffffff161461080a5760405180604001604052806001151581526020016000808573ffffffffffffffffffffffffffffffffffffffff1673ffffffffffffffffffffffffffffffffffffffff1681526020019081526020016000206040518060800160405290816000820160009054906101000a900473ffffffffffffffffffffffffffffffffffffffff1673ffffffffffffffffffffffffffffffffffffffff1673ffffffffffffffffffffffffffffffffffffffff16815260200160018201805461065a906115fd565b80601f0160208091040260200160405190810160405280929190818152602001828054610686906115fd565b80156106d35780601f106106a8576101008083540402835291602001916106d3565b820191906000526020600020905b8154815290600101906020018083116106b657829003601f168201915b505050505081526020016002820180546106ec906115fd565b80601f0160208091040260200160405190810160405280929190818152602001828054610718906115fd565b80156107655780601f1061073a57610100808354040283529160200191610765565b820191906000526020600020905b81548152906001019060200180831161074857829003601f168201915b5050505050815260200160038201805461077e906115fd565b80601f01602080910402602001604051908101604052809291908181526020018280546107aa906115fd565b80156107f75780601f106107cc576101008083540402835291602001916107f7565b820191906000526020600020905b8154815290600101906020018083116107da57829003601f168201915b505050505081525050815250905061088a565b5b60405180604001604052806000151581526020016040518060800160405280600073ffffffffffffffffffffffffffffffffffffffff1681526020016040518060200160405280600081525081526020016040518060200160405280600081525081526020016040518060200160405280600081525081525081525090505b919050565b3373ffffffffffffffffffffffffffffffffffffffff16816000015173ffffffffffffffffffffffffffffffffffffffff1603610b1b576108cf816101f9565b15610b1a576040518060800160405280826000015173ffffffffffffffffffffffffffffffffffffffff16815260200182602001518152602001826040015181526020018260600151815250600080836000015173ffffffffffffffffffffffffffffffffffffffff1673ffffffffffffffffffffffffffffffffffffffff16815260200190815260200160002060008201518160000160006101000a81548173ffffffffffffffffffffffffffffffffffffffff021916908373ffffffffffffffffffffffffffffffffffffffff16021790555060208201518160010190816109b991906117e4565b5060408201518160020190816109cf91906117e4565b5060608201518160030190816109e591906117e4565b509050506040518060800160405280826000015173ffffffffffffffffffffffffffffffffffffffff1681526020018260200151815260200182604001518152602001826060015181525060018260200151604051610a4491906118f2565b908152602001604051809103902060008201518160000160006101000a81548173ffffffffffffffffffffffffffffffffffffffff021916908373ffffffffffffffffffffffffffffffffffffffff1602179055506020820151816001019081610aae91906117e4565b506040820151816002019081610ac491906117e4565b506060820151816003019081610ada91906117e4565b50905050600160028260200151604051610af491906118f2565b908152602001604051809103902060006101000a81548160ff0219169083151502179055505b5b50565b610b26610e9b565b600073ffffffffffffffffffffffffffffffffffffffff166000808473ffffffffffffffffffffffffffffffffffffffff1673ffffffffffffffffffffffffffffffffffffffff16815260200190815260200160002060000160009054906101000a900473ffffffffffffffffffffffffffffffffffffffff1673ffffffffffffffffffffffffffffffffffffffff1614610ca35760405180604001604052806001151581526020016000808573ffffffffffffffffffffffffffffffffffffffff1673ffffffffffffffffffffffffffffffffffffffff1681526020019081526020016000206002018054610c1b906115fd565b80601f0160208091040260200160405190810160405280929190818152602001828054610c47906115fd565b8015610c945780601f10610c6957610100808354040283529160200191610c94565b820191906000526020600020905b815481529060010190602001808311610c7757829003601f168201915b50505050508152509050610ccd565b60405180604001604052806000151581526020016040518060200160405280600081525081525090505b919050565b60008073ffffffffffffffffffffffffffffffffffffffff166000808473ffffffffffffffffffffffffffffffffffffffff1673ffffffffffffffffffffffffffffffffffffffff16815260200190815260200160002060000160009054906101000a900473ffffffffffffffffffffffffffffffffffffffff1673ffffffffffffffffffffffffffffffffffffffff1614610d715760019050610d76565b600090505b919050565b6000600282604051610d8d91906118f2565b908152602001604051809103902060009054906101000a900460ff169050919050565b610db8610ed9565b6000600183604051610dca91906118f2565b90815260200160405180910390206001018054610de6906115fd565b90501115610e64576040518060400160405280600115158152602001600184604051610e1291906118f2565b908152602001604051809103902060000160009054906101000a900473ffffffffffffffffffffffffffffffffffffffff1673ffffffffffffffffffffffffffffffffffffffff168152509050610e96565b6040518060400160405280600015158152602001600073ffffffffffffffffffffffffffffffffffffffff1681525090505b919050565b6040518060400160405280600015158152602001606081525090565b6040518060400160405280600015158152602001610ed3610f0b565b81525090565b6040518060400160405280600015158152602001600073ffffffffffffffffffffffffffffffffffffffff1681525090565b6040518060800160405280600073ffffffffffffffffffffffffffffffffffffffff1681526020016060815260200160608152602001606081525090565b6000604051905090565b600080fd5b600080fd5b600080fd5b6000601f19601f8301169050919050565b7f4e487b7100000000000000000000000000000000000000000000000000000000600052604160045260246000fd5b610fab82610f62565b810181811067ffffffffffffffff82111715610fca57610fc9610f73565b5b80604052505050565b6000610fdd610f49565b9050610fe98282610fa2565b919050565b600080fd5b600073ffffffffffffffffffffffffffffffffffffffff82169050919050565b600061101e82610ff3565b9050919050565b61102e81611013565b811461103957600080fd5b50565b60008135905061104b81611025565b92915050565b600080fd5b600080fd5b600067ffffffffffffffff82111561107657611075610f73565b5b61107f82610f62565b9050602081019050919050565b82818337600083830152505050565b60006110ae6110a98461105b565b610fd3565b9050828152602081018484840111156110ca576110c9611056565b5b6110d584828561108c565b509392505050565b600082601f8301126110f2576110f1611051565b5b813561110284826020860161109b565b91505092915050565b60006080828403121561112157611120610f5d565b5b61112b6080610fd3565b9050600061113b8482850161103c565b600083015250602082013567ffffffffffffffff81111561115f5761115e610fee565b5b61116b848285016110dd565b602083015250604082013567ffffffffffffffff81111561118f5761118e610fee565b5b61119b848285016110dd565b604083015250606082013567ffffffffffffffff8111156111bf576111be610fee565b5b6111cb848285016110dd565b60608301525092915050565b6000602082840312156111ed576111ec610f53565b5b600082013567ffffffffffffffff81111561120b5761120a610f58565b5b6112178482850161110b565b91505092915050565b60008115159050919050565b61123581611220565b82525050565b6000602082019050611250600083018461122c565b92915050565b60006020828403121561126c5761126b610f53565b5b600061127a8482850161103c565b91505092915050565b61128c81611220565b82525050565b600081519050919050565b600082825260208201905092915050565b60005b838110156112cc5780820151818401526020810190506112b1565b60008484015250505050565b60006112e382611292565b6112ed818561129d565b93506112fd8185602086016112ae565b61130681610f62565b840191505092915050565b60006040830160008301516113296000860182611283565b506020830151848203602086015261134182826112d8565b9150508091505092915050565b600060208201905081810360008301526113688184611311565b905092915050565b61137981611013565b82525050565b60006080830160008301516113976000860182611370565b50602083015184820360208601526113af82826112d8565b915050604083015184820360408601526113c982826112d8565b915050606083015184820360608601526113e382826112d8565b9150508091505092915050565b60006040830160008301516114086000860182611283565b5060208301518482036020860152611420828261137f565b9150508091505092915050565b6000602082019050818103600083015261144781846113f0565b905092915050565b60006020828403121561146557611464610f53565b5b600082013567ffffffffffffffff81111561148357611482610f58565b5b61148f848285016110dd565b91505092915050565b6040820160008201516114ae6000850182611283565b5060208201516114c16020850182611370565b50505050565b60006040820190506114dc6000830184611498565b92915050565b60006080830160008301516114fa6000860182611370565b506020830151848203602086015261151282826112d8565b9150506040830151848203604086015261152c82826112d8565b9150506060830151848203606086015261154682826112d8565b9150508091505092915050565b6000602082019050818103600083015261156d81846114e2565b905092915050565b61157e81611220565b811461158957600080fd5b50565b60008151905061159b81611575565b92915050565b6000602082840312156115b7576115b6610f53565b5b60006115c58482850161158c565b91505092915050565b7f4e487b7100000000000000000000000000000000000000000000000000000000600052602260045260246000fd5b6000600282049050600182168061161557607f821691505b602082108103611628576116276115ce565b5b50919050565b60008190508160005260206000209050919050565b60006020601f8301049050919050565b600082821b905092915050565b6000600883026116907fffffffffffffffffffffffffffffffffffffffffffffffffffffffffffffffff82611653565b61169a8683611653565b95508019841693508086168417925050509392505050565b6000819050919050565b6000819050919050565b60006116e16116dc6116d7846116b2565b6116bc565b6116b2565b9050919050565b6000819050919050565b6116fb836116c6565b61170f611707826116e8565b848454611660565b825550505050565b600090565b611724611717565b61172f8184846116f2565b505050565b5b818110156117535761174860008261171c565b600181019050611735565b5050565b601f821115611798576117698161162e565b61177284611643565b81016020851015611781578190505b61179561178d85611643565b830182611734565b50505b505050565b600082821c905092915050565b60006117bb6000198460080261179d565b1980831691505092915050565b60006117d483836117aa565b9150826002028217905092915050565b6117ed82611292565b67ffffffffffffffff81111561180657611805610f73565b5b61181082546115fd565b61181b828285611757565b600060209050601f83116001811461184e576000841561183c578287015190505b61184685826117c8565b8655506118ae565b601f19841661185c8661162e565b60005b828110156118845784890151825560018201915060208501945060208101905061185f565b868310156118a1578489015161189d601f8916826117aa565b8355505b6001600288020188555050505b505050505050565b600081905092915050565b60006118cc82611292565b6118d681856118b6565b93506118e68185602086016112ae565b80840191505092915050565b60006118fe82846118c1565b91508190509291505056fea264697066735822122003421fb8c271efb0c44c9c3c85413d0e6ee8b66470aee7213259cccbbb36f09564736f6c63430008130033",
  "linkReferences": {},
  "deployedLinkReferences": {}
}