{
  "_format": "hh-sol-artifact-1",
  "contractName": "UserRegister",
  "sourceName": "contracts/UserRegister.sol",
  "abi": [
    {
      "anonymous": false,
      "inputs": [
        {
          "indexed": false,
          "internalType": "bool",
          "name": "success",
          "type": "bool"
        },
        {
          "components": [
            {
              "internalType": "address",
              "name": "account",
              "type": "address"
            },
            {
              "internalType": "string",
              "name": "userName",
              "type": "string"
            },
            {
              "internalType": "string",
              "name": "publicKey",
              "type": "string"
            },
            {
              "internalType": "string",
              "name": "privateKey",
              "type": "string"
            }
          ],
          "indexed": false,
          "internalType": "struct UserRegister.User",
          "name": "user",
          "type": "tuple"
        }
      ],
      "name": "ResultUser",
      "type": "event"
    },
    {
      "inputs": [
        {
          "components": [
            {
              "internalType": "address",
              "name": "account",
              "type": "address"
            },
            {
              "internalType": "string",
              "name": "userName",
              "type": "string"
            },
            {
              "internalType": "string",
              "name": "publicKey",
              "type": "string"
            },
            {
              "internalType": "string",
              "name": "privateKey",
              "type": "string"
            }
          ],
          "internalType": "struct UserRegister.User",
          "name": "user",
          "type": "tuple"
        }
      ],
      "name": "canRegister",
      "outputs": [
        {
          "internalType": "bool",
          "name": "",
          "type": "bool"
        }
      ],
      "stateMutability": "view",
      "type": "function"
    },
    {
      "inputs": [
        {
          "internalType": "address",
          "name": "account",
          "type": "address"
        }
      ],
      "name": "existingAddress",
      "outputs": [
        {
          "internalType": "bool",
          "name": "",
          "type": "bool"
        }
      ],
      "stateMutability": "view",
      "type": "function"
    },
    {
      "inputs": [
        {
          "internalType": "string",
          "name": "userName",
          "type": "string"
        }
      ],
      "name": "existingUserName",
      "outputs": [
        {
          "internalType": "bool",
          "name": "",
          "type": "bool"
        }
      ],
      "stateMutability": "view",
      "type": "function"
    },
    {
      "inputs": [
        {
          "internalType": "address",
          "name": "account",
          "type": "address"
        }
      ],
      "name": "getUser",
      "outputs": [
        {
          "components": [
            {
              "internalType": "bool",
              "name": "success",
              "type": "bool"
            },
            {
              "components": [
                {
                  "internalType": "address",
                  "name": "account",
                  "type": "address"
                },
                {
                  "internalType": "string",
                  "name": "userName",
                  "type": "string"
                },
                {
                  "internalType": "string",
                  "name": "publicKey",
                  "type": "string"
                },
                {
                  "internalType": "string",
                  "name": "privateKey",
                  "type": "string"
                }
              ],
              "internalType": "struct UserRegister.User",
              "name": "user",
              "type": "tuple"
            }
          ],
          "internalType": "struct UserRegister.ResultAction",
          "name": "",
          "type": "tuple"
        }
      ],
      "stateMutability": "view",
      "type": "function"
    },
    {
      "inputs": [
        {
          "internalType": "string",
          "name": "userName",
          "type": "string"
        }
      ],
      "name": "getUserByUserName",
      "outputs": [
        {
          "components": [
            {
              "internalType": "bool",
              "name": "success",
              "type": "bool"
            },
            {
              "components": [
                {
                  "internalType": "address",
                  "name": "account",
                  "type": "address"
                },
                {
                  "internalType": "string",
                  "name": "userName",
                  "type": "string"
                },
                {
                  "internalType": "string",
                  "name": "publicKey",
                  "type": "string"
                },
                {
                  "internalType": "string",
                  "name": "privateKey",
                  "type": "string"
                }
              ],
              "internalType": "struct UserRegister.User",
              "name": "user",
              "type": "tuple"
            }
          ],
          "internalType": "struct UserRegister.ResultAction",
          "name": "",
          "type": "tuple"
        }
      ],
      "stateMutability": "view",
      "type": "function"
    },
    {
      "inputs": [
        {
          "components": [
            {
              "internalType": "address",
              "name": "account",
              "type": "address"
            },
            {
              "internalType": "string",
              "name": "userName",
              "type": "string"
            },
            {
              "internalType": "string",
              "name": "publicKey",
              "type": "string"
            },
            {
              "internalType": "string",
              "name": "privateKey",
              "type": "string"
            }
          ],
          "internalType": "struct UserRegister.User",
          "name": "user",
          "type": "tuple"
        }
      ],
      "name": "userRegistered",
      "outputs": [],
      "stateMutability": "nonpayable",
      "type": "function"
    }
  ],
  "bytecode": "0x608060405234801561001057600080fd5b5061144d806100206000396000f3fe608060405234801561001057600080fd5b50600436106100625760003560e01c80632b4bce8b146100675780636f77926b1461009757806375e9493f146100c7578063a240e426146100e3578063b0c22a5614610113578063be6c898714610143575b600080fd5b610081600480360381019061007c9190610e7a565b610173565b60405161008e9190610ede565b60405180910390f35b6100b160048036038101906100ac9190610ef9565b6101ae565b6040516100be9190611071565b60405180910390f35b6100e160048036038101906100dc9190610e7a565b610542565b005b6100fd60048036038101906100f89190610ef9565b610799565b60405161010a9190610ede565b60405180910390f35b61012d60048036038101906101289190611093565b610842565b60405161013a9190610ede565b60405180910390f35b61015d60048036038101906101589190611093565b610877565b60405161016a9190611071565b60405180910390f35b60006101828260000151610799565b8061019657506101958260200151610842565b5b156101a457600090506101a9565b600190505b919050565b6101b6610b8c565b600073ffffffffffffffffffffffffffffffffffffffff166000808473ffffffffffffffffffffffffffffffffffffffff1673ffffffffffffffffffffffffffffffffffffffff16815260200190815260200160002060000160009054906101000a900473ffffffffffffffffffffffffffffffffffffffff1673ffffffffffffffffffffffffffffffffffffffff16146104be5760405180604001604052806001151581526020016000808573ffffffffffffffffffffffffffffffffffffffff1673ffffffffffffffffffffffffffffffffffffffff1681526020019081526020016000206040518060800160405290816000820160009054906101000a900473ffffffffffffffffffffffffffffffffffffffff1673ffffffffffffffffffffffffffffffffffffffff1673ffffffffffffffffffffffffffffffffffffffff16815260200160018201805461030e9061110b565b80601f016020809104026020016040519081016040528092919081815260200182805461033a9061110b565b80156103875780601f1061035c57610100808354040283529160200191610387565b820191906000526020600020905b81548152906001019060200180831161036a57829003601f168201915b505050505081526020016002820180546103a09061110b565b80601f01602080910402602001604051908101604052809291908181526020018280546103cc9061110b565b80156104195780601f106103ee57610100808354040283529160200191610419565b820191906000526020600020905b8154815290600101906020018083116103fc57829003601f168201915b505050505081526020016003820180546104329061110b565b80601f016020809104026020016040519081016040528092919081815260200182805461045e9061110b565b80156104ab5780601f10610480576101008083540402835291602001916104ab565b820191906000526020600020905b81548152906001019060200180831161048e57829003601f168201915b505050505081525050815250905061053d565b60405180604001604052806000151581526020016040518060800160405280600073ffffffffffffffffffffffffffffffffffffffff1681526020016040518060200160405280600081525081526020016040518060200160405280600081525081526020016040518060200160405280600081525081525081525090505b919050565b61054b81610173565b15610796576040518060800160405280826000015173ffffffffffffffffffffffffffffffffffffffff16815260200182602001518152602001826040015181526020018260600151815250600080836000015173ffffffffffffffffffffffffffffffffffffffff1673ffffffffffffffffffffffffffffffffffffffff16815260200190815260200160002060008201518160000160006101000a81548173ffffffffffffffffffffffffffffffffffffffff021916908373ffffffffffffffffffffffffffffffffffffffff160217905550602082015181600101908161063591906112f2565b50604082015181600201908161064b91906112f2565b50606082015181600301908161066191906112f2565b509050506040518060800160405280826000015173ffffffffffffffffffffffffffffffffffffffff16815260200182602001518152602001826040015181526020018260600151815250600182602001516040516106c09190611400565b908152602001604051809103902060008201518160000160006101000a81548173ffffffffffffffffffffffffffffffffffffffff021916908373ffffffffffffffffffffffffffffffffffffffff160217905550602082015181600101908161072a91906112f2565b50604082015181600201908161074091906112f2565b50606082015181600301908161075691906112f2565b509050506001600282602001516040516107709190611400565b908152602001604051809103902060006101000a81548160ff0219169083151502179055505b50565b60008073ffffffffffffffffffffffffffffffffffffffff166000808473ffffffffffffffffffffffffffffffffffffffff1673ffffffffffffffffffffffffffffffffffffffff16815260200190815260200160002060000160009054906101000a900473ffffffffffffffffffffffffffffffffffffffff1673ffffffffffffffffffffffffffffffffffffffff1614610838576001905061083d565b600090505b919050565b60006002826040516108549190611400565b908152602001604051809103902060009054906101000a900460ff169050919050565b61087f610b8c565b60006001836040516108919190611400565b908152602001604051809103902060010180546108ad9061110b565b90501115610b085760405180604001604052806001151581526020016001846040516108d99190611400565b90815260200160405180910390206040518060800160405290816000820160009054906101000a900473ffffffffffffffffffffffffffffffffffffffff1673ffffffffffffffffffffffffffffffffffffffff1673ffffffffffffffffffffffffffffffffffffffff1681526020016001820180546109589061110b565b80601f01602080910402602001604051908101604052809291908181526020018280546109849061110b565b80156109d15780601f106109a6576101008083540402835291602001916109d1565b820191906000526020600020905b8154815290600101906020018083116109b457829003601f168201915b505050505081526020016002820180546109ea9061110b565b80601f0160208091040260200160405190810160405280929190818152602001828054610a169061110b565b8015610a635780601f10610a3857610100808354040283529160200191610a63565b820191906000526020600020905b815481529060010190602001808311610a4657829003601f168201915b50505050508152602001600382018054610a7c9061110b565b80601f0160208091040260200160405190810160405280929190818152602001828054610aa89061110b565b8015610af55780601f10610aca57610100808354040283529160200191610af5565b820191906000526020600020905b815481529060010190602001808311610ad857829003601f168201915b5050505050815250508152509050610b87565b60405180604001604052806000151581526020016040518060800160405280600073ffffffffffffffffffffffffffffffffffffffff1681526020016040518060200160405280600081525081526020016040518060200160405280600081525081526020016040518060200160405280600081525081525081525090505b919050565b6040518060400160405280600015158152602001610ba8610bae565b81525090565b6040518060800160405280600073ffffffffffffffffffffffffffffffffffffffff1681526020016060815260200160608152602001606081525090565b6000604051905090565b600080fd5b600080fd5b600080fd5b6000601f19601f8301169050919050565b7f4e487b7100000000000000000000000000000000000000000000000000000000600052604160045260246000fd5b610c4e82610c05565b810181811067ffffffffffffffff82111715610c6d57610c6c610c16565b5b80604052505050565b6000610c80610bec565b9050610c8c8282610c45565b919050565b600080fd5b600073ffffffffffffffffffffffffffffffffffffffff82169050919050565b6000610cc182610c96565b9050919050565b610cd181610cb6565b8114610cdc57600080fd5b50565b600081359050610cee81610cc8565b92915050565b600080fd5b600080fd5b600067ffffffffffffffff821115610d1957610d18610c16565b5b610d2282610c05565b9050602081019050919050565b82818337600083830152505050565b6000610d51610d4c84610cfe565b610c76565b905082815260208101848484011115610d6d57610d6c610cf9565b5b610d78848285610d2f565b509392505050565b600082601f830112610d9557610d94610cf4565b5b8135610da5848260208601610d3e565b91505092915050565b600060808284031215610dc457610dc3610c00565b5b610dce6080610c76565b90506000610dde84828501610cdf565b600083015250602082013567ffffffffffffffff811115610e0257610e01610c91565b5b610e0e84828501610d80565b602083015250604082013567ffffffffffffffff811115610e3257610e31610c91565b5b610e3e84828501610d80565b604083015250606082013567ffffffffffffffff811115610e6257610e61610c91565b5b610e6e84828501610d80565b60608301525092915050565b600060208284031215610e9057610e8f610bf6565b5b600082013567ffffffffffffffff811115610eae57610ead610bfb565b5b610eba84828501610dae565b91505092915050565b60008115159050919050565b610ed881610ec3565b82525050565b6000602082019050610ef36000830184610ecf565b92915050565b600060208284031215610f0f57610f0e610bf6565b5b6000610f1d84828501610cdf565b91505092915050565b610f2f81610ec3565b82525050565b610f3e81610cb6565b82525050565b600081519050919050565b600082825260208201905092915050565b60005b83811015610f7e578082015181840152602081019050610f63565b60008484015250505050565b6000610f9582610f44565b610f9f8185610f4f565b9350610faf818560208601610f60565b610fb881610c05565b840191505092915050565b6000608083016000830151610fdb6000860182610f35565b5060208301518482036020860152610ff38282610f8a565b9150506040830151848203604086015261100d8282610f8a565b915050606083015184820360608601526110278282610f8a565b9150508091505092915050565b600060408301600083015161104c6000860182610f26565b50602083015184820360208601526110648282610fc3565b9150508091505092915050565b6000602082019050818103600083015261108b8184611034565b905092915050565b6000602082840312156110a9576110a8610bf6565b5b600082013567ffffffffffffffff8111156110c7576110c6610bfb565b5b6110d384828501610d80565b91505092915050565b7f4e487b7100000000000000000000000000000000000000000000000000000000600052602260045260246000fd5b6000600282049050600182168061112357607f821691505b602082108103611136576111356110dc565b5b50919050565b60008190508160005260206000209050919050565b60006020601f8301049050919050565b600082821b905092915050565b60006008830261119e7fffffffffffffffffffffffffffffffffffffffffffffffffffffffffffffffff82611161565b6111a88683611161565b95508019841693508086168417925050509392505050565b6000819050919050565b6000819050919050565b60006111ef6111ea6111e5846111c0565b6111ca565b6111c0565b9050919050565b6000819050919050565b611209836111d4565b61121d611215826111f6565b84845461116e565b825550505050565b600090565b611232611225565b61123d818484611200565b505050565b5b818110156112615761125660008261122a565b600181019050611243565b5050565b601f8211156112a6576112778161113c565b61128084611151565b8101602085101561128f578190505b6112a361129b85611151565b830182611242565b50505b505050565b600082821c905092915050565b60006112c9600019846008026112ab565b1980831691505092915050565b60006112e283836112b8565b9150826002028217905092915050565b6112fb82610f44565b67ffffffffffffffff81111561131457611313610c16565b5b61131e825461110b565b611329828285611265565b600060209050601f83116001811461135c576000841561134a578287015190505b61135485826112d6565b8655506113bc565b601f19841661136a8661113c565b60005b828110156113925784890151825560018201915060208501945060208101905061136d565b868310156113af57848901516113ab601f8916826112b8565b8355505b6001600288020188555050505b505050505050565b600081905092915050565b60006113da82610f44565b6113e481856113c4565b93506113f4818560208601610f60565b80840191505092915050565b600061140c82846113cf565b91508190509291505056fea264697066735822122062c76642db950ed24d995a8b7aa2519aa7707a0269bb396fd03eacc5ccb5e24164736f6c63430008130033",
  "linkReferences": {},
  "deployedLinkReferences": {}
}