{
  "_format": "hh-sol-artifact-1",
  "contractName": "UserRegister",
  "sourceName": "contracts/UserRegister.sol",
  "abi": [
    {
      "inputs": [
        {
          "internalType": "address",
          "name": "helperContract",
          "type": "address"
        }
      ],
      "stateMutability": "nonpayable",
      "type": "constructor"
    },
    {
      "inputs": [
        {
          "internalType": "address",
          "name": "account",
          "type": "address"
        }
      ],
      "name": "existingAddress",
      "outputs": [
        {
          "internalType": "bool",
          "name": "",
          "type": "bool"
        }
      ],
      "stateMutability": "view",
      "type": "function"
    },
    {
      "inputs": [
        {
          "internalType": "string",
          "name": "userName",
          "type": "string"
        }
      ],
      "name": "existingUserName",
      "outputs": [
        {
          "internalType": "bool",
          "name": "",
          "type": "bool"
        }
      ],
      "stateMutability": "view",
      "type": "function"
    },
    {
      "inputs": [],
      "name": "getLoginRegisterAddress",
      "outputs": [
        {
          "internalType": "address",
          "name": "",
          "type": "address"
        }
      ],
      "stateMutability": "view",
      "type": "function"
    },
    {
      "inputs": [
        {
          "internalType": "address",
          "name": "account",
          "type": "address"
        }
      ],
      "name": "getPublicKey",
      "outputs": [
        {
          "components": [
            {
              "internalType": "bool",
              "name": "success",
              "type": "bool"
            },
            {
              "internalType": "string",
              "name": "resultString",
              "type": "string"
            },
            {
              "internalType": "string",
              "name": "message",
              "type": "string"
            }
          ],
          "internalType": "struct Helper.ResultString",
          "name": "",
          "type": "tuple"
        }
      ],
      "stateMutability": "view",
      "type": "function"
    },
    {
      "inputs": [
        {
          "internalType": "address",
          "name": "account",
          "type": "address"
        }
      ],
      "name": "getUser",
      "outputs": [
        {
          "components": [
            {
              "internalType": "bool",
              "name": "success",
              "type": "bool"
            },
            {
              "components": [
                {
                  "internalType": "address",
                  "name": "account",
                  "type": "address"
                },
                {
                  "internalType": "string",
                  "name": "userName",
                  "type": "string"
                },
                {
                  "internalType": "string",
                  "name": "mnemonic",
                  "type": "string"
                },
                {
                  "internalType": "string",
                  "name": "publicKey",
                  "type": "string"
                }
              ],
              "internalType": "struct UserRegister.User",
              "name": "user",
              "type": "tuple"
            },
            {
              "internalType": "string",
              "name": "message",
              "type": "string"
            }
          ],
          "internalType": "struct UserRegister.ResultUser",
          "name": "",
          "type": "tuple"
        }
      ],
      "stateMutability": "view",
      "type": "function"
    },
    {
      "inputs": [
        {
          "internalType": "string",
          "name": "userName",
          "type": "string"
        }
      ],
      "name": "getUserAccount",
      "outputs": [
        {
          "components": [
            {
              "internalType": "bool",
              "name": "success",
              "type": "bool"
            },
            {
              "internalType": "address",
              "name": "resultAddress",
              "type": "address"
            },
            {
              "internalType": "string",
              "name": "message",
              "type": "string"
            }
          ],
          "internalType": "struct Helper.ResultAddress",
          "name": "",
          "type": "tuple"
        }
      ],
      "stateMutability": "view",
      "type": "function"
    },
    {
      "inputs": [
        {
          "internalType": "address",
          "name": "account",
          "type": "address"
        }
      ],
      "name": "getUserUserName",
      "outputs": [
        {
          "components": [
            {
              "internalType": "bool",
              "name": "success",
              "type": "bool"
            },
            {
              "internalType": "string",
              "name": "resultString",
              "type": "string"
            },
            {
              "internalType": "string",
              "name": "message",
              "type": "string"
            }
          ],
          "internalType": "struct Helper.ResultString",
          "name": "",
          "type": "tuple"
        }
      ],
      "stateMutability": "view",
      "type": "function"
    },
    {
      "inputs": [
        {
          "internalType": "address",
          "name": "loginRegisterContractAddress",
          "type": "address"
        }
      ],
      "name": "setLoginRegisterAddress",
      "outputs": [],
      "stateMutability": "nonpayable",
      "type": "function"
    },
    {
      "inputs": [
        {
          "components": [
            {
              "internalType": "address",
              "name": "account",
              "type": "address"
            },
            {
              "internalType": "string",
              "name": "userName",
              "type": "string"
            },
            {
              "internalType": "string",
              "name": "mnemonic",
              "type": "string"
            },
            {
              "internalType": "string",
              "name": "publicKey",
              "type": "string"
            }
          ],
          "internalType": "struct UserRegister.User",
          "name": "user",
          "type": "tuple"
        }
      ],
      "name": "userRegistered",
      "outputs": [],
      "stateMutability": "nonpayable",
      "type": "function"
    },
    {
      "inputs": [
        {
          "internalType": "string",
          "name": "mnemonic",
          "type": "string"
        },
        {
          "internalType": "address",
          "name": "account",
          "type": "address"
        }
      ],
      "name": "verifyUserAssociatedMnemonic",
      "outputs": [
        {
          "internalType": "bool",
          "name": "",
          "type": "bool"
        }
      ],
      "stateMutability": "view",
      "type": "function"
    }
  ],
  "bytecode": "0x60806040523480156200001157600080fd5b506040516200291938038062002919833981810160405281019062000037919062000124565b62000053672381bb8916ac41d260c01b620000b760201b60201c565b6200006f6782ce976426c94c8960c01b620000b760201b60201c565b80600360006101000a81548173ffffffffffffffffffffffffffffffffffffffff021916908373ffffffffffffffffffffffffffffffffffffffff1602179055505062000156565b50565b600080fd5b600073ffffffffffffffffffffffffffffffffffffffff82169050919050565b6000620000ec82620000bf565b9050919050565b620000fe81620000df565b81146200010a57600080fd5b50565b6000815190506200011e81620000f3565b92915050565b6000602082840312156200013d576200013c620000ba565b5b60006200014d848285016200010d565b91505092915050565b6127b380620001666000396000f3fe608060405234801561001057600080fd5b506004361061009e5760003560e01c80638d060a9e116100665780638d060a9e1461016d578063a240e42614610189578063b0c22a56146101b9578063eeb9ab18146101e9578063f14ab0e0146102195761009e565b80630d310723146100a357806367156cf1146100c15780636f77926b146100f157806375e9493f14610121578063857cdbb81461013d575b600080fd5b6100ab610249565b6040516100b89190611a6b565b60405180910390f35b6100db60048036038101906100d69190611ac6565b6102af565b6040516100e89190611bf5565b60405180910390f35b61010b60048036038101906101069190611ac6565b61054a565b6040516101189190611cee565b60405180910390f35b61013b60048036038101906101369190611f1b565b610a4e565b005b61015760048036038101906101529190611ac6565b610e95565b6040516101649190611bf5565b60405180910390f35b61018760048036038101906101829190611ac6565b611130565b005b6101a3600480360381019061019e9190611ac6565b61119c565b6040516101b09190611f73565b60405180910390f35b6101d360048036038101906101ce9190611f8e565b6112fa565b6040516101e09190611f73565b60405180910390f35b61020360048036038101906101fe9190611f8e565b61136b565b6040516102109190612027565b60405180910390f35b610233600480360381019061022e9190612049565b61153d565b6040516102409190611f73565b60405180910390f35b600061025f6746989b748cd0ca0f60c01b611723565b61027367610f55ba24300f0c60c01b611723565b61028767ccc427116b7a0d9660c01b611723565b600460009054906101000a900473ffffffffffffffffffffffffffffffffffffffff16905090565b6102b7611967565b6102cb6787232e70623458ae60c01b611723565b6102df673ee2eedb025fb77f60c01b611723565b6102f36744d3d0b858a0c41960c01b611723565b600073ffffffffffffffffffffffffffffffffffffffff166000808473ffffffffffffffffffffffffffffffffffffffff1673ffffffffffffffffffffffffffffffffffffffff16815260200190815260200160002060000160009054906101000a900473ffffffffffffffffffffffffffffffffffffffff1673ffffffffffffffffffffffffffffffffffffffff16146104c15761039c6775dcc17959b513d660c01b611723565b6103b067d9618dfe8e9ab1c560c01b611723565b6103c4671ffc1384bd855c0960c01b611723565b60405180606001604052806001151581526020016000808573ffffffffffffffffffffffffffffffffffffffff1673ffffffffffffffffffffffffffffffffffffffff1681526020019081526020016000206001018054610424906120d4565b80601f0160208091040260200160405190810160405280929190818152602001828054610450906120d4565b801561049d5780601f106104725761010080835404028352916020019161049d565b820191906000526020600020905b81548152906001019060200180831161048057829003601f168201915b50505050508152602001604051806020016040528060008152508152509050610545565b6104d567c7ffb4d1ef7f9f6d60c01b611723565b6104e9672a729c062854272b60c01b611723565b6104fd67acdb9438eb2dbcb960c01b611723565b604051806060016040528060001515815260200160405180602001604052806000815250815260200160405180606001604052806028815260200161272d6028913981525090505b919050565b61055261198a565b610566679eccd78c846a943560c01b611723565b61057a6746a820b4f31d092c60c01b611723565b61058e6771753d69b5474ec960c01b611723565b3373ffffffffffffffffffffffffffffffffffffffff168273ffffffffffffffffffffffffffffffffffffffff160361096f576105d56737207bdb28a7dd4360c01b611723565b6105e967695797e575f78c9560c01b611723565b6105fd6796790513039a86b960c01b611723565b600073ffffffffffffffffffffffffffffffffffffffff166000808473ffffffffffffffffffffffffffffffffffffffff1673ffffffffffffffffffffffffffffffffffffffff16815260200190815260200160002060000160009054906101000a900473ffffffffffffffffffffffffffffffffffffffff1673ffffffffffffffffffffffffffffffffffffffff1614610956576106a6670b96475873c367c060c01b611723565b6106ba6701c0eca2ca1cba2d60c01b611723565b6106ce67f38423398932d05960c01b611723565b60405180606001604052806001151581526020016000808573ffffffffffffffffffffffffffffffffffffffff1673ffffffffffffffffffffffffffffffffffffffff1681526020019081526020016000206040518060800160405290816000820160009054906101000a900473ffffffffffffffffffffffffffffffffffffffff1673ffffffffffffffffffffffffffffffffffffffff1673ffffffffffffffffffffffffffffffffffffffff168152602001600182018054610791906120d4565b80601f01602080910402602001604051908101604052809291908181526020018280546107bd906120d4565b801561080a5780601f106107df5761010080835404028352916020019161080a565b820191906000526020600020905b8154815290600101906020018083116107ed57829003601f168201915b50505050508152602001600282018054610823906120d4565b80601f016020809104026020016040519081016040528092919081815260200182805461084f906120d4565b801561089c5780601f106108715761010080835404028352916020019161089c565b820191906000526020600020905b81548152906001019060200180831161087f57829003601f168201915b505050505081526020016003820180546108b5906120d4565b80601f01602080910402602001604051908101604052809291908181526020018280546108e1906120d4565b801561092e5780601f106109035761010080835404028352916020019161092e565b820191906000526020600020905b81548152906001019060200180831161091157829003601f168201915b5050505050815250508152602001604051806020016040528060008152508152509050610a49565b61096a679a90ee315339680160c01b611723565b610984565b61098367f4ac6c85a0aff11960c01b611723565b5b610998672e352377c0b81c1060c01b611723565b6109ac675b92a5b4aba5453360c01b611723565b60405180606001604052806000151581526020016040518060800160405280600073ffffffffffffffffffffffffffffffffffffffff1681526020016040518060200160405280600081525081526020016040518060200160405280600081525081526020016040518060200160405280600081525081525081526020016040518060a001604052806079815260200161268c6079913981525090505b919050565b610a626766492ad8208eec7560c01b611723565b610a76678e51c5d25c9717e660c01b611723565b610a8a676cb51009960af85160c01b611723565b3373ffffffffffffffffffffffffffffffffffffffff16600460009054906101000a900473ffffffffffffffffffffffffffffffffffffffff1673ffffffffffffffffffffffffffffffffffffffff1603610e7d57610af367c51b757a10f1620960c01b611723565b610b0767799e2338efd5bd0b60c01b611723565b610b1b6731925768ea873dcb60c01b611723565b610b2481611726565b15610e6357610b3d67cc484ccda138bfb060c01b611723565b610b5167c97ddf3d690af95d60c01b611723565b6040518060800160405280826000015173ffffffffffffffffffffffffffffffffffffffff168152602001600360009054906101000a900473ffffffffffffffffffffffffffffffffffffffff1673ffffffffffffffffffffffffffffffffffffffff16639416b42384602001516040518263ffffffff1660e01b8152600401610bdb919061214f565b600060405180830381865afa158015610bf8573d6000803e3d6000fd5b505050506040513d6000823e3d601f19601f82011682018060405250810190610c2191906121e1565b8152602001826040015181526020018260600151815250600080836000015173ffffffffffffffffffffffffffffffffffffffff1673ffffffffffffffffffffffffffffffffffffffff16815260200190815260200160002060008201518160000160006101000a81548173ffffffffffffffffffffffffffffffffffffffff021916908373ffffffffffffffffffffffffffffffffffffffff1602179055506020820151816001019081610cd691906123e0565b506040820151816002019081610cec91906123e0565b506060820151816003019081610d0291906123e0565b50905050610d1a67556878ddf26b2a7d60c01b611723565b6040518060800160405280826000015173ffffffffffffffffffffffffffffffffffffffff1681526020018260200151815260200182604001518152602001826060015181525060018260200151604051610d7591906124ee565b908152602001604051809103902060008201518160000160006101000a81548173ffffffffffffffffffffffffffffffffffffffff021916908373ffffffffffffffffffffffffffffffffffffffff1602179055506020820151816001019081610ddf91906123e0565b506040820151816002019081610df591906123e0565b506060820151816003019081610e0b91906123e0565b50905050610e23674b1d87e438c8fb1a60c01b611723565b600160028260200151604051610e3991906124ee565b908152602001604051809103902060006101000a81548160ff021916908315150217905550610e78565b610e7767f105c12e70d3e1e460c01b611723565b5b610e92565b610e9167c3eb738eadaee7ea60c01b611723565b5b50565b610e9d611967565b610eb167f261bb533af0f8d760c01b611723565b610ec567e1579930393e451f60c01b611723565b610ed9679c4a2a4179faca5b60c01b611723565b600073ffffffffffffffffffffffffffffffffffffffff166000808473ffffffffffffffffffffffffffffffffffffffff1673ffffffffffffffffffffffffffffffffffffffff16815260200190815260200160002060000160009054906101000a900473ffffffffffffffffffffffffffffffffffffffff1673ffffffffffffffffffffffffffffffffffffffff16146110a757610f8267fe4d4edf4e1105a860c01b611723565b610f9667aaf06c7c0f0a906e60c01b611723565b610faa67912b6410bb28d27760c01b611723565b60405180606001604052806001151581526020016000808573ffffffffffffffffffffffffffffffffffffffff1673ffffffffffffffffffffffffffffffffffffffff168152602001908152602001600020600301805461100a906120d4565b80601f0160208091040260200160405190810160405280929190818152602001828054611036906120d4565b80156110835780601f1061105857610100808354040283529160200191611083565b820191906000526020600020905b81548152906001019060200180831161106657829003601f168201915b5050505050815260200160405180602001604052806000815250815250905061112b565b6110bb672d486bce8a8009bc60c01b611723565b6110cf67c3e26d601362b7b860c01b611723565b6110e367f4ffb20546e2ab6760c01b611723565b60405180606001604052806000151581526020016040518060200160405280600081525081526020016040518060600160405280602881526020016127056028913981525090505b919050565b61114467be35ea3e369448dd60c01b611723565b61115867deced71b6ce14d1560c01b611723565b80600460006101000a81548173ffffffffffffffffffffffffffffffffffffffff021916908373ffffffffffffffffffffffffffffffffffffffff16021790555050565b60006111b267854d15113773a85c60c01b611723565b6111c6677de7bcc022ff011560c01b611723565b6111da67487b99b57f50424260c01b611723565b600073ffffffffffffffffffffffffffffffffffffffff166000808473ffffffffffffffffffffffffffffffffffffffff1673ffffffffffffffffffffffffffffffffffffffff16815260200190815260200160002060000160009054906101000a900473ffffffffffffffffffffffffffffffffffffffff1673ffffffffffffffffffffffffffffffffffffffff16146112b45761128367f07a535b229b0ce360c01b611723565b611297671975ae7b51c2bb8c60c01b611723565b6112ab67e9aaddb3dd47066160c01b611723565b600190506112f5565b6112c867e98bb11a7e0c1b7c60c01b611723565b6112dc679d2e64a1462d28d960c01b611723565b6112f067cd6cf468daf3813160c01b611723565b600090505b919050565b600061131067a731e320558c26de60c01b611723565b6113246792723a0068d0965c60c01b611723565b61133867b67e7206d446be5b60c01b611723565b60028260405161134891906124ee565b908152602001604051809103902060009054906101000a900460ff169050919050565b6113736119b3565b6113876798159de53166725d60c01b611723565b61139b6714ea38173b928fa160c01b611723565b6113af6735c875e4a011b19a60c01b611723565b60006001836040516113c191906124ee565b908152602001604051809103902060010180546113dd906120d4565b905011156114ac576113f9671a0f30556659a95860c01b611723565b61140d6706dfce76cd97502b60c01b611723565b6114216798a35126cfa515bc60c01b611723565b604051806060016040528060011515815260200160018460405161144591906124ee565b908152602001604051809103902060000160009054906101000a900473ffffffffffffffffffffffffffffffffffffffff1673ffffffffffffffffffffffffffffffffffffffff168152602001604051806020016040528060008152508152509050611538565b6114c0671c89e85e1a9b220b60c01b611723565b6114d467493da8522fddd59560c01b611723565b6114e8672d965e71c3eff3df60c01b611723565b6040518060600160405280600015158152602001600073ffffffffffffffffffffffffffffffffffffffff1681526020016040518060600160405280602981526020016127556029913981525090505b919050565b600061155367e0fb8a25454abd8d60c01b611723565b6115676781c174076e1157ba60c01b611723565b61157b67952ca83a9427a22960c01b611723565b3373ffffffffffffffffffffffffffffffffffffffff168273ffffffffffffffffffffffffffffffffffffffff16036116db576115c2670c0fe956b3c68a5960c01b611723565b6115d667f1f55cc317bfdb9660c01b611723565b6115ea67ccef6d8cbc9709a660c01b611723565b826040516020016115fb91906124ee565b604051602081830303815290604052805190602001206000808473ffffffffffffffffffffffffffffffffffffffff1673ffffffffffffffffffffffffffffffffffffffff1681526020019081526020016000206002016040516020016116629190612588565b60405160208183030381529060405280519060200120036116c257611691679460cf338a4b62ea60c01b611723565b6116a567a6fdc61336639a2f60c01b611723565b6116b967c083c9d7e0b7106160c01b611723565b6001905061171d565b6116d66793ef268e50cd040c60c01b611723565b6116f0565b6116ef67f6014e8f4958829660c01b611723565b5b61170467fc3a8ccbd4e113af60c01b611723565b61171867b19865b90b2d662460c01b611723565b600090505b92915050565b50565b600061173c67df943e7e46aba5b760c01b611723565b6117506743797b3c7d9a8fec60c01b611723565b61176467af952caca07cd97c60c01b611723565b3373ffffffffffffffffffffffffffffffffffffffff16600460009054906101000a900473ffffffffffffffffffffffffffffffffffffffff1673ffffffffffffffffffffffffffffffffffffffff1603611920576117cd670adf19d9f889fcbd60c01b611723565b6117e167f1070a258d45578460c01b611723565b6117f567c09258c7ff9bf79360c01b611723565b611802826000015161119c565b158015611819575061181782602001516112fa565b155b80156118bd5750600360009054906101000a900473ffffffffffffffffffffffffffffffffffffffff1673ffffffffffffffffffffffffffffffffffffffff1663e779f450836040518263ffffffff1660e01b815260040161187b9190612610565b602060405180830381865afa158015611898573d6000803e3d6000fd5b505050506040513d601f19601f820116820180604052508101906118bc919061265e565b5b15611907576118d6671457a8c82fe973db60c01b611723565b6118ea67db82daf96b15522360c01b611723565b6118fe67d200461eb4724b1360c01b611723565b60019050611962565b61191b6702888f645da9fa4e60c01b611723565b611935565b6119346719b7d991fb8c628760c01b611723565b5b61194967c4bca481db2e583c60c01b611723565b61195d67d22e1bed8d6615b760c01b611723565b600090505b919050565b604051806060016040528060001515815260200160608152602001606081525090565b60405180606001604052806000151581526020016119a66119ec565b8152602001606081525090565b6040518060600160405280600015158152602001600073ffffffffffffffffffffffffffffffffffffffff168152602001606081525090565b6040518060800160405280600073ffffffffffffffffffffffffffffffffffffffff1681526020016060815260200160608152602001606081525090565b600073ffffffffffffffffffffffffffffffffffffffff82169050919050565b6000611a5582611a2a565b9050919050565b611a6581611a4a565b82525050565b6000602082019050611a806000830184611a5c565b92915050565b6000604051905090565b600080fd5b600080fd5b611aa381611a4a565b8114611aae57600080fd5b50565b600081359050611ac081611a9a565b92915050565b600060208284031215611adc57611adb611a90565b5b6000611aea84828501611ab1565b91505092915050565b60008115159050919050565b611b0881611af3565b82525050565b600081519050919050565b600082825260208201905092915050565b60005b83811015611b48578082015181840152602081019050611b2d565b60008484015250505050565b6000601f19601f8301169050919050565b6000611b7082611b0e565b611b7a8185611b19565b9350611b8a818560208601611b2a565b611b9381611b54565b840191505092915050565b6000606083016000830151611bb66000860182611aff565b5060208301518482036020860152611bce8282611b65565b91505060408301518482036040860152611be88282611b65565b9150508091505092915050565b60006020820190508181036000830152611c0f8184611b9e565b905092915050565b611c2081611a4a565b82525050565b6000608083016000830151611c3e6000860182611c17565b5060208301518482036020860152611c568282611b65565b91505060408301518482036040860152611c708282611b65565b91505060608301518482036060860152611c8a8282611b65565b9150508091505092915050565b6000606083016000830151611caf6000860182611aff565b5060208301518482036020860152611cc78282611c26565b91505060408301518482036040860152611ce18282611b65565b9150508091505092915050565b60006020820190508181036000830152611d088184611c97565b905092915050565b600080fd5b7f4e487b7100000000000000000000000000000000000000000000000000000000600052604160045260246000fd5b611d4d82611b54565b810181811067ffffffffffffffff82111715611d6c57611d6b611d15565b5b80604052505050565b6000611d7f611a86565b9050611d8b8282611d44565b919050565b600080fd5b600080fd5b600080fd5b600067ffffffffffffffff821115611dba57611db9611d15565b5b611dc382611b54565b9050602081019050919050565b82818337600083830152505050565b6000611df2611ded84611d9f565b611d75565b905082815260208101848484011115611e0e57611e0d611d9a565b5b611e19848285611dd0565b509392505050565b600082601f830112611e3657611e35611d95565b5b8135611e46848260208601611ddf565b91505092915050565b600060808284031215611e6557611e64611d10565b5b611e6f6080611d75565b90506000611e7f84828501611ab1565b600083015250602082013567ffffffffffffffff811115611ea357611ea2611d90565b5b611eaf84828501611e21565b602083015250604082013567ffffffffffffffff811115611ed357611ed2611d90565b5b611edf84828501611e21565b604083015250606082013567ffffffffffffffff811115611f0357611f02611d90565b5b611f0f84828501611e21565b60608301525092915050565b600060208284031215611f3157611f30611a90565b5b600082013567ffffffffffffffff811115611f4f57611f4e611a95565b5b611f5b84828501611e4f565b91505092915050565b611f6d81611af3565b82525050565b6000602082019050611f886000830184611f64565b92915050565b600060208284031215611fa457611fa3611a90565b5b600082013567ffffffffffffffff811115611fc257611fc1611a95565b5b611fce84828501611e21565b91505092915050565b6000606083016000830151611fef6000860182611aff565b5060208301516120026020860182611c17565b506040830151848203604086015261201a8282611b65565b9150508091505092915050565b600060208201905081810360008301526120418184611fd7565b905092915050565b600080604083850312156120605761205f611a90565b5b600083013567ffffffffffffffff81111561207e5761207d611a95565b5b61208a85828601611e21565b925050602061209b85828601611ab1565b9150509250929050565b7f4e487b7100000000000000000000000000000000000000000000000000000000600052602260045260246000fd5b600060028204905060018216806120ec57607f821691505b6020821081036120ff576120fe6120a5565b5b50919050565b600082825260208201905092915050565b600061212182611b0e565b61212b8185612105565b935061213b818560208601611b2a565b61214481611b54565b840191505092915050565b600060208201905081810360008301526121698184612116565b905092915050565b600061218461217f84611d9f565b611d75565b9050828152602081018484840111156121a05761219f611d9a565b5b6121ab848285611b2a565b509392505050565b600082601f8301126121c8576121c7611d95565b5b81516121d8848260208601612171565b91505092915050565b6000602082840312156121f7576121f6611a90565b5b600082015167ffffffffffffffff81111561221557612214611a95565b5b612221848285016121b3565b91505092915050565b60008190508160005260206000209050919050565b60006020601f8301049050919050565b600082821b905092915050565b60006008830261228c7fffffffffffffffffffffffffffffffffffffffffffffffffffffffffffffffff8261224f565b612296868361224f565b95508019841693508086168417925050509392505050565b6000819050919050565b6000819050919050565b60006122dd6122d86122d3846122ae565b6122b8565b6122ae565b9050919050565b6000819050919050565b6122f7836122c2565b61230b612303826122e4565b84845461225c565b825550505050565b600090565b612320612313565b61232b8184846122ee565b505050565b5b8181101561234f57612344600082612318565b600181019050612331565b5050565b601f821115612394576123658161222a565b61236e8461223f565b8101602085101561237d578190505b6123916123898561223f565b830182612330565b50505b505050565b600082821c905092915050565b60006123b760001984600802612399565b1980831691505092915050565b60006123d083836123a6565b9150826002028217905092915050565b6123e982611b0e565b67ffffffffffffffff81111561240257612401611d15565b5b61240c82546120d4565b612417828285612353565b600060209050601f83116001811461244a5760008415612438578287015190505b61244285826123c4565b8655506124aa565b601f1984166124588661222a565b60005b828110156124805784890151825560018201915060208501945060208101905061245b565b8683101561249d5784890151612499601f8916826123a6565b8355505b6001600288020188555050505b505050505050565b600081905092915050565b60006124c882611b0e565b6124d281856124b2565b93506124e2818560208601611b2a565b80840191505092915050565b60006124fa82846124bd565b915081905092915050565b60008154612512816120d4565b61251c81866124b2565b94506001821660008114612537576001811461254c5761257f565b60ff198316865281151582028601935061257f565b6125558561222a565b60005b8381101561257757815481890152600182019150602081019050612558565b838801955050505b50505092915050565b60006125948284612505565b915081905092915050565b60006080830160008301516125b76000860182611c17565b50602083015184820360208601526125cf8282611b65565b915050604083015184820360408601526125e98282611b65565b915050606083015184820360608601526126038282611b65565b9150508091505092915050565b6000602082019050818103600083015261262a818461259f565b905092915050565b61263b81611af3565b811461264657600080fd5b50565b60008151905061265881612632565b92915050565b60006020828403121561267457612673611a90565b5b600061268284828501612649565b9150509291505056fe546865206163636f756e74206f6620746865207472616e73616374696f6e2065786563757465722073686f756c64206265207468652073616d65206f6e652061732074686520757365722077686963682074686520696e666f726d6174696f6e206973206265696e67207265717565737465642066726f6d2e5468657265206973206e6f207573657220776974682074686520666976656e206163636f756e742e5468657265206973206e6f207573657220776974682074686520676976656e206163636f756e742e5468657265206973206e6f207573657220776974682074686520676976656e20757365726e616d652ea264697066735822122029495fd53b278b7c4d8ec39546f3ce67802a6f2c680c734b1eadd7260d6bfb1c64736f6c63430008130033",
  "linkReferences": {},
  "deployedLinkReferences": {}
}