{
  "_format": "hh-sol-artifact-1",
  "contractName": "UserRegister",
  "sourceName": "contracts/UserRegister.sol",
  "abi": [
    {
      "inputs": [
        {
          "internalType": "address",
          "name": "helperContract",
          "type": "address"
        }
      ],
      "stateMutability": "nonpayable",
      "type": "constructor"
    },
    {
      "inputs": [
        {
          "components": [
            {
              "internalType": "address",
              "name": "account",
              "type": "address"
            },
            {
              "internalType": "string",
              "name": "userName",
              "type": "string"
            },
            {
              "internalType": "string",
              "name": "publicKey",
              "type": "string"
            },
            {
              "internalType": "string",
              "name": "privateKey",
              "type": "string"
            }
          ],
          "internalType": "struct UserRegister.User",
          "name": "user",
          "type": "tuple"
        }
      ],
      "name": "canRegister",
      "outputs": [
        {
          "internalType": "bool",
          "name": "",
          "type": "bool"
        }
      ],
      "stateMutability": "view",
      "type": "function"
    },
    {
      "inputs": [
        {
          "internalType": "address",
          "name": "account",
          "type": "address"
        }
      ],
      "name": "existingAddress",
      "outputs": [
        {
          "internalType": "bool",
          "name": "",
          "type": "bool"
        }
      ],
      "stateMutability": "view",
      "type": "function"
    },
    {
      "inputs": [
        {
          "internalType": "string",
          "name": "userName",
          "type": "string"
        }
      ],
      "name": "existingUserName",
      "outputs": [
        {
          "internalType": "bool",
          "name": "",
          "type": "bool"
        }
      ],
      "stateMutability": "view",
      "type": "function"
    },
    {
      "inputs": [
        {
          "internalType": "address",
          "name": "account",
          "type": "address"
        }
      ],
      "name": "getPublicKey",
      "outputs": [
        {
          "components": [
            {
              "internalType": "bool",
              "name": "success",
              "type": "bool"
            },
            {
              "internalType": "string",
              "name": "resultString",
              "type": "string"
            }
          ],
          "internalType": "struct Helper.ResultString",
          "name": "",
          "type": "tuple"
        }
      ],
      "stateMutability": "view",
      "type": "function"
    },
    {
      "inputs": [
        {
          "internalType": "address",
          "name": "account",
          "type": "address"
        }
      ],
      "name": "getUser",
      "outputs": [
        {
          "components": [
            {
              "internalType": "bool",
              "name": "success",
              "type": "bool"
            },
            {
              "components": [
                {
                  "internalType": "address",
                  "name": "account",
                  "type": "address"
                },
                {
                  "internalType": "string",
                  "name": "userName",
                  "type": "string"
                },
                {
                  "internalType": "string",
                  "name": "publicKey",
                  "type": "string"
                },
                {
                  "internalType": "string",
                  "name": "privateKey",
                  "type": "string"
                }
              ],
              "internalType": "struct UserRegister.User",
              "name": "user",
              "type": "tuple"
            }
          ],
          "internalType": "struct UserRegister.ResultUser",
          "name": "",
          "type": "tuple"
        }
      ],
      "stateMutability": "view",
      "type": "function"
    },
    {
      "inputs": [
        {
          "internalType": "string",
          "name": "userName",
          "type": "string"
        }
      ],
      "name": "getUserAccount",
      "outputs": [
        {
          "components": [
            {
              "internalType": "bool",
              "name": "success",
              "type": "bool"
            },
            {
              "internalType": "address",
              "name": "resultAddress",
              "type": "address"
            }
          ],
          "internalType": "struct Helper.ResultAddress",
          "name": "",
          "type": "tuple"
        }
      ],
      "stateMutability": "view",
      "type": "function"
    },
    {
      "inputs": [
        {
          "components": [
            {
              "internalType": "address",
              "name": "account",
              "type": "address"
            },
            {
              "internalType": "string",
              "name": "userName",
              "type": "string"
            },
            {
              "internalType": "string",
              "name": "publicKey",
              "type": "string"
            },
            {
              "internalType": "string",
              "name": "privateKey",
              "type": "string"
            }
          ],
          "internalType": "struct UserRegister.User",
          "name": "user",
          "type": "tuple"
        }
      ],
      "name": "userRegistered",
      "outputs": [],
      "stateMutability": "nonpayable",
      "type": "function"
    }
  ],
  "bytecode": "0x60806040523480156200001157600080fd5b5060405162001872380380620018728339818101604052810190620000379190620000e9565b80600360006101000a81548173ffffffffffffffffffffffffffffffffffffffff021916908373ffffffffffffffffffffffffffffffffffffffff160217905550506200011b565b600080fd5b600073ffffffffffffffffffffffffffffffffffffffff82169050919050565b6000620000b18262000084565b9050919050565b620000c381620000a4565b8114620000cf57600080fd5b50565b600081519050620000e381620000b8565b92915050565b6000602082840312156200010257620001016200007f565b5b60006200011284828501620000d2565b91505092915050565b611747806200012b6000396000f3fe608060405234801561001057600080fd5b506004361061007d5760003560e01c8063857cdbb81161005b578063857cdbb8146100fe578063a240e4261461012e578063b0c22a561461015e578063eeb9ab181461018e5761007d565b80632b4bce8b146100825780636f77926b146100b257806375e9493f146100e2575b600080fd5b61009c60048036038101906100979190610fdf565b6101be565b6040516100a99190611043565b60405180910390f35b6100cc60048036038101906100c7919061105e565b6102cf565b6040516100d991906111d6565b60405180910390f35b6100fc60048036038101906100f79190610fdf565b610697565b005b6101186004803603810190610113919061105e565b610926565b6040516101259190611235565b60405180910390f35b6101486004803603810190610143919061105e565b610ada565b6040516101559190611043565b60405180910390f35b61017860048036038101906101739190611257565b610b83565b6040516101859190611043565b60405180910390f35b6101a860048036038101906101a39190611257565b610bb8565b6040516101b591906112cf565b60405180910390f35b60003373ffffffffffffffffffffffffffffffffffffffff16826000015173ffffffffffffffffffffffffffffffffffffffff16036102c557600360009054906101000a900473ffffffffffffffffffffffffffffffffffffffff1673ffffffffffffffffffffffffffffffffffffffff1663e779f450836040518263ffffffff1660e01b8152600401610252919061135b565b602060405180830381865afa15801561026f573d6000803e3d6000fd5b505050506040513d601f19601f8201168201806040525081019061029391906113a9565b15156102a28360200151610b83565b15156102b18460000151610ada565b1515141515036102c457600190506102ca565b5b600090505b919050565b6102d7610ca3565b3373ffffffffffffffffffffffffffffffffffffffff168273ffffffffffffffffffffffffffffffffffffffff160361061357600073ffffffffffffffffffffffffffffffffffffffff166000808473ffffffffffffffffffffffffffffffffffffffff1673ffffffffffffffffffffffffffffffffffffffff16815260200190815260200160002060000160009054906101000a900473ffffffffffffffffffffffffffffffffffffffff1673ffffffffffffffffffffffffffffffffffffffff16146106125760405180604001604052806001151581526020016000808573ffffffffffffffffffffffffffffffffffffffff1673ffffffffffffffffffffffffffffffffffffffff1681526020019081526020016000206040518060800160405290816000820160009054906101000a900473ffffffffffffffffffffffffffffffffffffffff1673ffffffffffffffffffffffffffffffffffffffff1673ffffffffffffffffffffffffffffffffffffffff16815260200160018201805461046290611405565b80601f016020809104026020016040519081016040528092919081815260200182805461048e90611405565b80156104db5780601f106104b0576101008083540402835291602001916104db565b820191906000526020600020905b8154815290600101906020018083116104be57829003601f168201915b505050505081526020016002820180546104f490611405565b80601f016020809104026020016040519081016040528092919081815260200182805461052090611405565b801561056d5780601f106105425761010080835404028352916020019161056d565b820191906000526020600020905b81548152906001019060200180831161055057829003601f168201915b5050505050815260200160038201805461058690611405565b80601f01602080910402602001604051908101604052809291908181526020018280546105b290611405565b80156105ff5780601f106105d4576101008083540402835291602001916105ff565b820191906000526020600020905b8154815290600101906020018083116105e257829003601f168201915b5050505050815250508152509050610692565b5b60405180604001604052806000151581526020016040518060800160405280600073ffffffffffffffffffffffffffffffffffffffff1681526020016040518060200160405280600081525081526020016040518060200160405280600081525081526020016040518060200160405280600081525081525081525090505b919050565b3373ffffffffffffffffffffffffffffffffffffffff16816000015173ffffffffffffffffffffffffffffffffffffffff1603610923576106d7816101be565b15610922576040518060800160405280826000015173ffffffffffffffffffffffffffffffffffffffff16815260200182602001518152602001826040015181526020018260600151815250600080836000015173ffffffffffffffffffffffffffffffffffffffff1673ffffffffffffffffffffffffffffffffffffffff16815260200190815260200160002060008201518160000160006101000a81548173ffffffffffffffffffffffffffffffffffffffff021916908373ffffffffffffffffffffffffffffffffffffffff16021790555060208201518160010190816107c191906115ec565b5060408201518160020190816107d791906115ec565b5060608201518160030190816107ed91906115ec565b509050506040518060800160405280826000015173ffffffffffffffffffffffffffffffffffffffff168152602001826020015181526020018260400151815260200182606001518152506001826020015160405161084c91906116fa565b908152602001604051809103902060008201518160000160006101000a81548173ffffffffffffffffffffffffffffffffffffffff021916908373ffffffffffffffffffffffffffffffffffffffff16021790555060208201518160010190816108b691906115ec565b5060408201518160020190816108cc91906115ec565b5060608201518160030190816108e291906115ec565b509050506001600282602001516040516108fc91906116fa565b908152602001604051809103902060006101000a81548160ff0219169083151502179055505b5b50565b61092e610cc5565b600073ffffffffffffffffffffffffffffffffffffffff166000808473ffffffffffffffffffffffffffffffffffffffff1673ffffffffffffffffffffffffffffffffffffffff16815260200190815260200160002060000160009054906101000a900473ffffffffffffffffffffffffffffffffffffffff1673ffffffffffffffffffffffffffffffffffffffff1614610aab5760405180604001604052806001151581526020016000808573ffffffffffffffffffffffffffffffffffffffff1673ffffffffffffffffffffffffffffffffffffffff1681526020019081526020016000206002018054610a2390611405565b80601f0160208091040260200160405190810160405280929190818152602001828054610a4f90611405565b8015610a9c5780601f10610a7157610100808354040283529160200191610a9c565b820191906000526020600020905b815481529060010190602001808311610a7f57829003601f168201915b50505050508152509050610ad5565b60405180604001604052806000151581526020016040518060200160405280600081525081525090505b919050565b60008073ffffffffffffffffffffffffffffffffffffffff166000808473ffffffffffffffffffffffffffffffffffffffff1673ffffffffffffffffffffffffffffffffffffffff16815260200190815260200160002060000160009054906101000a900473ffffffffffffffffffffffffffffffffffffffff1673ffffffffffffffffffffffffffffffffffffffff1614610b795760019050610b7e565b600090505b919050565b6000600282604051610b9591906116fa565b908152602001604051809103902060009054906101000a900460ff169050919050565b610bc0610ce1565b6000600183604051610bd291906116fa565b90815260200160405180910390206001018054610bee90611405565b90501115610c6c576040518060400160405280600115158152602001600184604051610c1a91906116fa565b908152602001604051809103902060000160009054906101000a900473ffffffffffffffffffffffffffffffffffffffff1673ffffffffffffffffffffffffffffffffffffffff168152509050610c9e565b6040518060400160405280600015158152602001600073ffffffffffffffffffffffffffffffffffffffff1681525090505b919050565b6040518060400160405280600015158152602001610cbf610d13565b81525090565b6040518060400160405280600015158152602001606081525090565b6040518060400160405280600015158152602001600073ffffffffffffffffffffffffffffffffffffffff1681525090565b6040518060800160405280600073ffffffffffffffffffffffffffffffffffffffff1681526020016060815260200160608152602001606081525090565b6000604051905090565b600080fd5b600080fd5b600080fd5b6000601f19601f8301169050919050565b7f4e487b7100000000000000000000000000000000000000000000000000000000600052604160045260246000fd5b610db382610d6a565b810181811067ffffffffffffffff82111715610dd257610dd1610d7b565b5b80604052505050565b6000610de5610d51565b9050610df18282610daa565b919050565b600080fd5b600073ffffffffffffffffffffffffffffffffffffffff82169050919050565b6000610e2682610dfb565b9050919050565b610e3681610e1b565b8114610e4157600080fd5b50565b600081359050610e5381610e2d565b92915050565b600080fd5b600080fd5b600067ffffffffffffffff821115610e7e57610e7d610d7b565b5b610e8782610d6a565b9050602081019050919050565b82818337600083830152505050565b6000610eb6610eb184610e63565b610ddb565b905082815260208101848484011115610ed257610ed1610e5e565b5b610edd848285610e94565b509392505050565b600082601f830112610efa57610ef9610e59565b5b8135610f0a848260208601610ea3565b91505092915050565b600060808284031215610f2957610f28610d65565b5b610f336080610ddb565b90506000610f4384828501610e44565b600083015250602082013567ffffffffffffffff811115610f6757610f66610df6565b5b610f7384828501610ee5565b602083015250604082013567ffffffffffffffff811115610f9757610f96610df6565b5b610fa384828501610ee5565b604083015250606082013567ffffffffffffffff811115610fc757610fc6610df6565b5b610fd384828501610ee5565b60608301525092915050565b600060208284031215610ff557610ff4610d5b565b5b600082013567ffffffffffffffff81111561101357611012610d60565b5b61101f84828501610f13565b91505092915050565b60008115159050919050565b61103d81611028565b82525050565b60006020820190506110586000830184611034565b92915050565b60006020828403121561107457611073610d5b565b5b600061108284828501610e44565b91505092915050565b61109481611028565b82525050565b6110a381610e1b565b82525050565b600081519050919050565b600082825260208201905092915050565b60005b838110156110e35780820151818401526020810190506110c8565b60008484015250505050565b60006110fa826110a9565b61110481856110b4565b93506111148185602086016110c5565b61111d81610d6a565b840191505092915050565b6000608083016000830151611140600086018261109a565b506020830151848203602086015261115882826110ef565b9150506040830151848203604086015261117282826110ef565b9150506060830151848203606086015261118c82826110ef565b9150508091505092915050565b60006040830160008301516111b1600086018261108b565b50602083015184820360208601526111c98282611128565b9150508091505092915050565b600060208201905081810360008301526111f08184611199565b905092915050565b6000604083016000830151611210600086018261108b565b506020830151848203602086015261122882826110ef565b9150508091505092915050565b6000602082019050818103600083015261124f81846111f8565b905092915050565b60006020828403121561126d5761126c610d5b565b5b600082013567ffffffffffffffff81111561128b5761128a610d60565b5b61129784828501610ee5565b91505092915050565b6040820160008201516112b6600085018261108b565b5060208201516112c9602085018261109a565b50505050565b60006040820190506112e460008301846112a0565b92915050565b6000608083016000830151611302600086018261109a565b506020830151848203602086015261131a82826110ef565b9150506040830151848203604086015261133482826110ef565b9150506060830151848203606086015261134e82826110ef565b9150508091505092915050565b6000602082019050818103600083015261137581846112ea565b905092915050565b61138681611028565b811461139157600080fd5b50565b6000815190506113a38161137d565b92915050565b6000602082840312156113bf576113be610d5b565b5b60006113cd84828501611394565b91505092915050565b7f4e487b7100000000000000000000000000000000000000000000000000000000600052602260045260246000fd5b6000600282049050600182168061141d57607f821691505b6020821081036114305761142f6113d6565b5b50919050565b60008190508160005260206000209050919050565b60006020601f8301049050919050565b600082821b905092915050565b6000600883026114987fffffffffffffffffffffffffffffffffffffffffffffffffffffffffffffffff8261145b565b6114a2868361145b565b95508019841693508086168417925050509392505050565b6000819050919050565b6000819050919050565b60006114e96114e46114df846114ba565b6114c4565b6114ba565b9050919050565b6000819050919050565b611503836114ce565b61151761150f826114f0565b848454611468565b825550505050565b600090565b61152c61151f565b6115378184846114fa565b505050565b5b8181101561155b57611550600082611524565b60018101905061153d565b5050565b601f8211156115a05761157181611436565b61157a8461144b565b81016020851015611589578190505b61159d6115958561144b565b83018261153c565b50505b505050565b600082821c905092915050565b60006115c3600019846008026115a5565b1980831691505092915050565b60006115dc83836115b2565b9150826002028217905092915050565b6115f5826110a9565b67ffffffffffffffff81111561160e5761160d610d7b565b5b6116188254611405565b61162382828561155f565b600060209050601f8311600181146116565760008415611644578287015190505b61164e85826115d0565b8655506116b6565b601f19841661166486611436565b60005b8281101561168c57848901518255600182019150602085019450602081019050611667565b868310156116a957848901516116a5601f8916826115b2565b8355505b6001600288020188555050505b505050505050565b600081905092915050565b60006116d4826110a9565b6116de81856116be565b93506116ee8185602086016110c5565b80840191505092915050565b600061170682846116c9565b91508190509291505056fea2646970667358221220da5d60b739f0439951243337a0b08af987cf2f9d542a0678c9abc52026c6aee864736f6c63430008130033",
  "linkReferences": {},
  "deployedLinkReferences": {}
}