{
  "_format": "hh-sol-artifact-1",
  "contractName": "TryingTest",
  "sourceName": "contracts/TryingTest.sol",
  "abi": [
    {
      "inputs": [
        {
          "internalType": "address",
          "name": "account",
          "type": "address"
        }
      ],
      "name": "existingUserName",
      "outputs": [
        {
          "components": [
            {
              "internalType": "address",
              "name": "account",
              "type": "address"
            },
            {
              "internalType": "string",
              "name": "userName",
              "type": "string"
            },
            {
              "internalType": "string",
              "name": "publicKey",
              "type": "string"
            },
            {
              "internalType": "string",
              "name": "privateKey",
              "type": "string"
            }
          ],
          "internalType": "struct TryingTest.User",
          "name": "",
          "type": "tuple"
        }
      ],
      "stateMutability": "nonpayable",
      "type": "function"
    },
    {
      "inputs": [
        {
          "internalType": "address",
          "name": "account",
          "type": "address"
        }
      ],
      "name": "getNum",
      "outputs": [
        {
          "components": [
            {
              "internalType": "address",
              "name": "account",
              "type": "address"
            },
            {
              "internalType": "string",
              "name": "userName",
              "type": "string"
            },
            {
              "internalType": "string",
              "name": "publicKey",
              "type": "string"
            },
            {
              "internalType": "string",
              "name": "privateKey",
              "type": "string"
            }
          ],
          "internalType": "struct TryingTest.User",
          "name": "",
          "type": "tuple"
        }
      ],
      "stateMutability": "view",
      "type": "function"
    }
  ],
  "bytecode": "0x608060405234801561001057600080fd5b50610c53806100206000396000f3fe608060405234801561001057600080fd5b50600436106100365760003560e01c806370b129881461003b578063cdcbcc581461006b575b600080fd5b610055600480360381019061005091906107a7565b61009b565b60405161006291906108e4565b60405180910390f35b610085600480360381019061008091906107a7565b6102ff565b60405161009291906108e4565b60405180910390f35b6100a3610706565b6000808373ffffffffffffffffffffffffffffffffffffffff1673ffffffffffffffffffffffffffffffffffffffff1681526020019081526020016000206040518060800160405290816000820160009054906101000a900473ffffffffffffffffffffffffffffffffffffffff1673ffffffffffffffffffffffffffffffffffffffff1673ffffffffffffffffffffffffffffffffffffffff16815260200160018201805461015290610935565b80601f016020809104026020016040519081016040528092919081815260200182805461017e90610935565b80156101cb5780601f106101a0576101008083540402835291602001916101cb565b820191906000526020600020905b8154815290600101906020018083116101ae57829003601f168201915b505050505081526020016002820180546101e490610935565b80601f016020809104026020016040519081016040528092919081815260200182805461021090610935565b801561025d5780601f106102325761010080835404028352916020019161025d565b820191906000526020600020905b81548152906001019060200180831161024057829003601f168201915b5050505050815260200160038201805461027690610935565b80601f01602080910402602001604051908101604052809291908181526020018280546102a290610935565b80156102ef5780601f106102c4576101008083540402835291602001916102ef565b820191906000526020600020905b8154815290600101906020018083116102d257829003601f168201915b5050505050815250509050919050565b610307610706565b60405180608001604052806201e0f373ffffffffffffffffffffffffffffffffffffffff1681526020016040518060400160405280600481526020017f4a6f616f0000000000000000000000000000000000000000000000000000000081525081526020016040518060400160405280600381526020017f617364000000000000000000000000000000000000000000000000000000000081525081526020016040518060400160405280600381526020017f71776500000000000000000000000000000000000000000000000000000000008152508152506000808473ffffffffffffffffffffffffffffffffffffffff1673ffffffffffffffffffffffffffffffffffffffff16815260200190815260200160002060008201518160000160006101000a81548173ffffffffffffffffffffffffffffffffffffffff021916908373ffffffffffffffffffffffffffffffffffffffff160217905550602082015181600101908161047a9190610b4b565b5060408201518160020190816104909190610b4b565b5060608201518160030190816104a69190610b4b565b509050506000808373ffffffffffffffffffffffffffffffffffffffff1673ffffffffffffffffffffffffffffffffffffffff1681526020019081526020016000206040518060800160405290816000820160009054906101000a900473ffffffffffffffffffffffffffffffffffffffff1673ffffffffffffffffffffffffffffffffffffffff1673ffffffffffffffffffffffffffffffffffffffff16815260200160018201805461055990610935565b80601f016020809104026020016040519081016040528092919081815260200182805461058590610935565b80156105d25780601f106105a7576101008083540402835291602001916105d2565b820191906000526020600020905b8154815290600101906020018083116105b557829003601f168201915b505050505081526020016002820180546105eb90610935565b80601f016020809104026020016040519081016040528092919081815260200182805461061790610935565b80156106645780601f1061063957610100808354040283529160200191610664565b820191906000526020600020905b81548152906001019060200180831161064757829003601f168201915b5050505050815260200160038201805461067d90610935565b80601f01602080910402602001604051908101604052809291908181526020018280546106a990610935565b80156106f65780601f106106cb576101008083540402835291602001916106f6565b820191906000526020600020905b8154815290600101906020018083116106d957829003601f168201915b5050505050815250509050919050565b6040518060800160405280600073ffffffffffffffffffffffffffffffffffffffff1681526020016060815260200160608152602001606081525090565b600080fd5b600073ffffffffffffffffffffffffffffffffffffffff82169050919050565b600061077482610749565b9050919050565b61078481610769565b811461078f57600080fd5b50565b6000813590506107a18161077b565b92915050565b6000602082840312156107bd576107bc610744565b5b60006107cb84828501610792565b91505092915050565b6107dd81610769565b82525050565b600081519050919050565b600082825260208201905092915050565b60005b8381101561081d578082015181840152602081019050610802565b60008484015250505050565b6000601f19601f8301169050919050565b6000610845826107e3565b61084f81856107ee565b935061085f8185602086016107ff565b61086881610829565b840191505092915050565b600060808301600083015161088b60008601826107d4565b50602083015184820360208601526108a3828261083a565b915050604083015184820360408601526108bd828261083a565b915050606083015184820360608601526108d7828261083a565b9150508091505092915050565b600060208201905081810360008301526108fe8184610873565b905092915050565b7f4e487b7100000000000000000000000000000000000000000000000000000000600052602260045260246000fd5b6000600282049050600182168061094d57607f821691505b6020821081036109605761095f610906565b5b50919050565b7f4e487b7100000000000000000000000000000000000000000000000000000000600052604160045260246000fd5b60008190508160005260206000209050919050565b60006020601f8301049050919050565b600082821b905092915050565b6000600883026109f77fffffffffffffffffffffffffffffffffffffffffffffffffffffffffffffffff826109ba565b610a0186836109ba565b95508019841693508086168417925050509392505050565b6000819050919050565b6000819050919050565b6000610a48610a43610a3e84610a19565b610a23565b610a19565b9050919050565b6000819050919050565b610a6283610a2d565b610a76610a6e82610a4f565b8484546109c7565b825550505050565b600090565b610a8b610a7e565b610a96818484610a59565b505050565b5b81811015610aba57610aaf600082610a83565b600181019050610a9c565b5050565b601f821115610aff57610ad081610995565b610ad9846109aa565b81016020851015610ae8578190505b610afc610af4856109aa565b830182610a9b565b50505b505050565b600082821c905092915050565b6000610b2260001984600802610b04565b1980831691505092915050565b6000610b3b8383610b11565b9150826002028217905092915050565b610b54826107e3565b67ffffffffffffffff811115610b6d57610b6c610966565b5b610b778254610935565b610b82828285610abe565b600060209050601f831160018114610bb55760008415610ba3578287015190505b610bad8582610b2f565b865550610c15565b601f198416610bc386610995565b60005b82811015610beb57848901518255600182019150602085019450602081019050610bc6565b86831015610c085784890151610c04601f891682610b11565b8355505b6001600288020188555050505b50505050505056fea264697066735822122078b7bf5322c6028b4d8f78f3da8b219acad52b3904b7cbaf6d41985f8f5e089d64736f6c63430008130033",
  "linkReferences": {},
  "deployedLinkReferences": {}
}