{
  "_format": "hh-sol-artifact-1",
  "contractName": "StoreFile",
  "sourceName": "contracts/StoreFile.sol",
  "abi": [
    {
      "anonymous": false,
      "inputs": [
        {
          "indexed": false,
          "internalType": "bool",
          "name": "success",
          "type": "bool"
        },
        {
          "indexed": false,
          "internalType": "string",
          "name": "message",
          "type": "string"
        }
      ],
      "name": "UploadFileResult",
      "type": "event"
    },
    {
      "inputs": [
        {
          "components": [
            {
              "internalType": "string",
              "name": "fileName",
              "type": "string"
            },
            {
              "internalType": "string",
              "name": "owner",
              "type": "string"
            },
            {
              "internalType": "string",
              "name": "encSymmetricKey",
              "type": "string"
            },
            {
              "internalType": "string",
              "name": "ipfsCID",
              "type": "string"
            },
            {
              "internalType": "string",
              "name": "fileType",
              "type": "string"
            },
            {
              "internalType": "string",
              "name": "iv",
              "type": "string"
            }
          ],
          "internalType": "struct File",
          "name": "file",
          "type": "tuple"
        }
      ],
      "name": "fileExists",
      "outputs": [
        {
          "internalType": "string",
          "name": "",
          "type": "string"
        }
      ],
      "stateMutability": "view",
      "type": "function"
    },
    {
      "inputs": [],
      "name": "get",
      "outputs": [
        {
          "components": [
            {
              "internalType": "string",
              "name": "fileName",
              "type": "string"
            },
            {
              "internalType": "string",
              "name": "owner",
              "type": "string"
            },
            {
              "internalType": "string",
              "name": "encSymmetricKey",
              "type": "string"
            },
            {
              "internalType": "string",
              "name": "ipfsCID",
              "type": "string"
            },
            {
              "internalType": "string",
              "name": "fileType",
              "type": "string"
            },
            {
              "internalType": "string",
              "name": "iv",
              "type": "string"
            }
          ],
          "internalType": "struct File[]",
          "name": "",
          "type": "tuple[]"
        }
      ],
      "stateMutability": "view",
      "type": "function"
    },
    {
      "inputs": [
        {
          "components": [
            {
              "internalType": "string",
              "name": "fileName",
              "type": "string"
            },
            {
              "internalType": "string",
              "name": "owner",
              "type": "string"
            },
            {
              "internalType": "string",
              "name": "encSymmetricKey",
              "type": "string"
            },
            {
              "internalType": "string",
              "name": "ipfsCID",
              "type": "string"
            },
            {
              "internalType": "string",
              "name": "fileType",
              "type": "string"
            },
            {
              "internalType": "string",
              "name": "iv",
              "type": "string"
            }
          ],
          "internalType": "struct File",
          "name": "file",
          "type": "tuple"
        }
      ],
      "name": "uploadFile",
      "outputs": [],
      "stateMutability": "nonpayable",
      "type": "function"
    }
  ],
  "bytecode": "0x608060405234801561001057600080fd5b50611653806100206000396000f3fe608060405234801561001057600080fd5b50600436106100415760003560e01c806314de8f7a146100465780636d4ce63c146100765780637567cc6214610094575b600080fd5b610060600480360381019061005b9190610eb3565b6100b0565b60405161006d9190610f7b565b60405180910390f35b61007e6105a3565b60405161008b9190611155565b60405180910390f35b6100ae60048036038101906100a99190610eb3565b610a50565b005b606060008060003373ffffffffffffffffffffffffffffffffffffffff1673ffffffffffffffffffffffffffffffffffffffff168152602001908152602001600020805480602002602001604051908101604052809291908181526020016000905b828210156104b057838290600052602060002090600602016040518060c0016040529081600082018054610145906111a6565b80601f0160208091040260200160405190810160405280929190818152602001828054610171906111a6565b80156101be5780601f10610193576101008083540402835291602001916101be565b820191906000526020600020905b8154815290600101906020018083116101a157829003601f168201915b505050505081526020016001820180546101d7906111a6565b80601f0160208091040260200160405190810160405280929190818152602001828054610203906111a6565b80156102505780601f1061022557610100808354040283529160200191610250565b820191906000526020600020905b81548152906001019060200180831161023357829003601f168201915b50505050508152602001600282018054610269906111a6565b80601f0160208091040260200160405190810160405280929190818152602001828054610295906111a6565b80156102e25780601f106102b7576101008083540402835291602001916102e2565b820191906000526020600020905b8154815290600101906020018083116102c557829003601f168201915b505050505081526020016003820180546102fb906111a6565b80601f0160208091040260200160405190810160405280929190818152602001828054610327906111a6565b80156103745780601f1061034957610100808354040283529160200191610374565b820191906000526020600020905b81548152906001019060200180831161035757829003601f168201915b5050505050815260200160048201805461038d906111a6565b80601f01602080910402602001604051908101604052809291908181526020018280546103b9906111a6565b80156104065780601f106103db57610100808354040283529160200191610406565b820191906000526020600020905b8154815290600101906020018083116103e957829003601f168201915b5050505050815260200160058201805461041f906111a6565b80601f016020809104026020016040519081016040528092919081815260200182805461044b906111a6565b80156104985780601f1061046d57610100808354040283529160200191610498565b820191906000526020600020905b81548152906001019060200180831161047b57829003601f168201915b50505050508152505081526020019060010190610112565b50505050905060005b81518110156105895783600001516040516020016104d79190611213565b60405160208183030381529060405280519060200120828281518110610500576104ff61122a565b5b60200260200101516000015160405160200161051c9190611213565b6040516020818303038152906040528051906020012003610576576040518060400160405280601f81526020017f46696c652068617320746f2068617665206120756e69717565206e616d652e008152509250505061059e565b808061058190611292565b9150506104b9565b50604051806020016040528060008152509150505b919050565b606060008060003373ffffffffffffffffffffffffffffffffffffffff1673ffffffffffffffffffffffffffffffffffffffff16815260200190815260200160002080549050146109f5576000803373ffffffffffffffffffffffffffffffffffffffff1673ffffffffffffffffffffffffffffffffffffffff168152602001908152602001600020805480602002602001604051908101604052809291908181526020016000905b828210156109ea57838290600052602060002090600602016040518060c001604052908160008201805461067f906111a6565b80601f01602080910402602001604051908101604052809291908181526020018280546106ab906111a6565b80156106f85780601f106106cd576101008083540402835291602001916106f8565b820191906000526020600020905b8154815290600101906020018083116106db57829003601f168201915b50505050508152602001600182018054610711906111a6565b80601f016020809104026020016040519081016040528092919081815260200182805461073d906111a6565b801561078a5780601f1061075f5761010080835404028352916020019161078a565b820191906000526020600020905b81548152906001019060200180831161076d57829003601f168201915b505050505081526020016002820180546107a3906111a6565b80601f01602080910402602001604051908101604052809291908181526020018280546107cf906111a6565b801561081c5780601f106107f15761010080835404028352916020019161081c565b820191906000526020600020905b8154815290600101906020018083116107ff57829003601f168201915b50505050508152602001600382018054610835906111a6565b80601f0160208091040260200160405190810160405280929190818152602001828054610861906111a6565b80156108ae5780601f10610883576101008083540402835291602001916108ae565b820191906000526020600020905b81548152906001019060200180831161089157829003601f168201915b505050505081526020016004820180546108c7906111a6565b80601f01602080910402602001604051908101604052809291908181526020018280546108f3906111a6565b80156109405780601f1061091557610100808354040283529160200191610940565b820191906000526020600020905b81548152906001019060200180831161092357829003601f168201915b50505050508152602001600582018054610959906111a6565b80601f0160208091040260200160405190810160405280929190818152602001828054610985906111a6565b80156109d25780601f106109a7576101008083540402835291602001916109d2565b820191906000526020600020905b8154815290600101906020018083116109b557829003601f168201915b5050505050815250508152602001906001019061064c565b505050509050610a4d565b600067ffffffffffffffff811115610a1057610a0f610c31565b5b604051908082528060200260200182016040528015610a4957816020015b610a36610bd1565b815260200190600190039081610a2e5790505b5090505b90565b6000610a5b826100b0565b90506000815103610b92576000803373ffffffffffffffffffffffffffffffffffffffff1673ffffffffffffffffffffffffffffffffffffffff1681526020019081526020016000208290806001815401808255809150506001900390600052602060002090600602016000909190919091506000820151816000019081610ae39190611486565b506020820151816001019081610af99190611486565b506040820151816002019081610b0f9190611486565b506060820151816003019081610b259190611486565b506080820151816004019081610b3b9190611486565b5060a0820151816005019081610b519190611486565b5050507f6c863839cfd32d0f6385600bd22dfa35736ff518a92acb2bc960cacad49fb9bf6001604051610b8491906115bf565b60405180910390a150610bce565b7f6c863839cfd32d0f6385600bd22dfa35736ff518a92acb2bc960cacad49fb9bf600082604051610bc49291906115ed565b60405180910390a1505b50565b6040518060c001604052806060815260200160608152602001606081526020016060815260200160608152602001606081525090565b6000604051905090565b600080fd5b600080fd5b600080fd5b6000601f19601f8301169050919050565b7f4e487b7100000000000000000000000000000000000000000000000000000000600052604160045260246000fd5b610c6982610c20565b810181811067ffffffffffffffff82111715610c8857610c87610c31565b5b80604052505050565b6000610c9b610c07565b9050610ca78282610c60565b919050565b600080fd5b600080fd5b600080fd5b600067ffffffffffffffff821115610cd657610cd5610c31565b5b610cdf82610c20565b9050602081019050919050565b82818337600083830152505050565b6000610d0e610d0984610cbb565b610c91565b905082815260208101848484011115610d2a57610d29610cb6565b5b610d35848285610cec565b509392505050565b600082601f830112610d5257610d51610cb1565b5b8135610d62848260208601610cfb565b91505092915050565b600060c08284031215610d8157610d80610c1b565b5b610d8b60c0610c91565b9050600082013567ffffffffffffffff811115610dab57610daa610cac565b5b610db784828501610d3d565b600083015250602082013567ffffffffffffffff811115610ddb57610dda610cac565b5b610de784828501610d3d565b602083015250604082013567ffffffffffffffff811115610e0b57610e0a610cac565b5b610e1784828501610d3d565b604083015250606082013567ffffffffffffffff811115610e3b57610e3a610cac565b5b610e4784828501610d3d565b606083015250608082013567ffffffffffffffff811115610e6b57610e6a610cac565b5b610e7784828501610d3d565b60808301525060a082013567ffffffffffffffff811115610e9b57610e9a610cac565b5b610ea784828501610d3d565b60a08301525092915050565b600060208284031215610ec957610ec8610c11565b5b600082013567ffffffffffffffff811115610ee757610ee6610c16565b5b610ef384828501610d6b565b91505092915050565b600081519050919050565b600082825260208201905092915050565b60005b83811015610f36578082015181840152602081019050610f1b565b60008484015250505050565b6000610f4d82610efc565b610f578185610f07565b9350610f67818560208601610f18565b610f7081610c20565b840191505092915050565b60006020820190508181036000830152610f958184610f42565b905092915050565b600081519050919050565b600082825260208201905092915050565b6000819050602082019050919050565b600082825260208201905092915050565b6000610fe582610efc565b610fef8185610fc9565b9350610fff818560208601610f18565b61100881610c20565b840191505092915050565b600060c08301600083015184820360008601526110308282610fda565b9150506020830151848203602086015261104a8282610fda565b915050604083015184820360408601526110648282610fda565b9150506060830151848203606086015261107e8282610fda565b915050608083015184820360808601526110988282610fda565b91505060a083015184820360a08601526110b28282610fda565b9150508091505092915050565b60006110cb8383611013565b905092915050565b6000602082019050919050565b60006110eb82610f9d565b6110f58185610fa8565b93508360208202850161110785610fb9565b8060005b85811015611143578484038952815161112485826110bf565b945061112f836110d3565b925060208a0199505060018101905061110b565b50829750879550505050505092915050565b6000602082019050818103600083015261116f81846110e0565b905092915050565b7f4e487b7100000000000000000000000000000000000000000000000000000000600052602260045260246000fd5b600060028204905060018216806111be57607f821691505b6020821081036111d1576111d0611177565b5b50919050565b600081905092915050565b60006111ed82610efc565b6111f781856111d7565b9350611207818560208601610f18565b80840191505092915050565b600061121f82846111e2565b915081905092915050565b7f4e487b7100000000000000000000000000000000000000000000000000000000600052603260045260246000fd5b7f4e487b7100000000000000000000000000000000000000000000000000000000600052601160045260246000fd5b6000819050919050565b600061129d82611288565b91507fffffffffffffffffffffffffffffffffffffffffffffffffffffffffffffffff82036112cf576112ce611259565b5b600182019050919050565b60008190508160005260206000209050919050565b60006020601f8301049050919050565b600082821b905092915050565b60006008830261133c7fffffffffffffffffffffffffffffffffffffffffffffffffffffffffffffffff826112ff565b61134686836112ff565b95508019841693508086168417925050509392505050565b6000819050919050565b600061138361137e61137984611288565b61135e565b611288565b9050919050565b6000819050919050565b61139d83611368565b6113b16113a98261138a565b84845461130c565b825550505050565b600090565b6113c66113b9565b6113d1818484611394565b505050565b5b818110156113f5576113ea6000826113be565b6001810190506113d7565b5050565b601f82111561143a5761140b816112da565b611414846112ef565b81016020851015611423578190505b61143761142f856112ef565b8301826113d6565b50505b505050565b600082821c905092915050565b600061145d6000198460080261143f565b1980831691505092915050565b6000611476838361144c565b9150826002028217905092915050565b61148f82610efc565b67ffffffffffffffff8111156114a8576114a7610c31565b5b6114b282546111a6565b6114bd8282856113f9565b600060209050601f8311600181146114f057600084156114de578287015190505b6114e8858261146a565b865550611550565b601f1984166114fe866112da565b60005b8281101561152657848901518255600182019150602085019450602081019050611501565b86831015611543578489015161153f601f89168261144c565b8355505b6001600288020188555050505b505050505050565b60008115159050919050565b61156d81611558565b82525050565b7f46696c652075706c6f61646564207375636365737366756c6c792e0000000000600082015250565b60006115a9601b83610f07565b91506115b482611573565b602082019050919050565b60006040820190506115d46000830184611564565b81810360208301526115e58161159c565b905092915050565b60006040820190506116026000830185611564565b81810360208301526116148184610f42565b9050939250505056fea26469706673582212206a8a97d6c6cfab0c3ae27ad294495bd13d5d6d537890c48a5279888fad998c1e64736f6c63430008130033",
  "linkReferences": {},
  "deployedLinkReferences": {}
}