{
  "_format": "hh-sol-artifact-1",
  "contractName": "StoreFile",
  "sourceName": "contracts/StoreFile.sol",
  "abi": [
    {
      "anonymous": false,
      "inputs": [
        {
          "indexed": false,
          "internalType": "bool",
          "name": "success",
          "type": "bool"
        },
        {
          "indexed": false,
          "internalType": "string",
          "name": "message",
          "type": "string"
        }
      ],
      "name": "UploadFileResult",
      "type": "event"
    },
    {
      "inputs": [
        {
          "components": [
            {
              "internalType": "string",
              "name": "fileName",
              "type": "string"
            },
            {
              "internalType": "address",
              "name": "owner",
              "type": "address"
            },
            {
              "internalType": "string",
              "name": "ipfsCID",
              "type": "string"
            },
            {
              "internalType": "string",
              "name": "fileType",
              "type": "string"
            },
            {
              "internalType": "string",
              "name": "iv",
              "type": "string"
            }
          ],
          "internalType": "struct File",
          "name": "file",
          "type": "tuple"
        },
        {
          "components": [
            {
              "internalType": "address",
              "name": "account",
              "type": "address"
            },
            {
              "internalType": "string",
              "name": "name",
              "type": "string"
            },
            {
              "internalType": "string",
              "name": "publicKey",
              "type": "string"
            },
            {
              "internalType": "string",
              "name": "privateKey",
              "type": "string"
            }
          ],
          "internalType": "struct User",
          "name": "user",
          "type": "tuple"
        }
      ],
      "name": "fileExists",
      "outputs": [
        {
          "internalType": "string",
          "name": "",
          "type": "string"
        }
      ],
      "stateMutability": "view",
      "type": "function"
    },
    {
      "inputs": [
        {
          "internalType": "address",
          "name": "account",
          "type": "address"
        }
      ],
      "name": "get",
      "outputs": [
        {
          "components": [
            {
              "internalType": "string",
              "name": "fileName",
              "type": "string"
            },
            {
              "internalType": "address",
              "name": "owner",
              "type": "address"
            },
            {
              "internalType": "string",
              "name": "ipfsCID",
              "type": "string"
            },
            {
              "internalType": "string",
              "name": "fileType",
              "type": "string"
            },
            {
              "internalType": "string",
              "name": "iv",
              "type": "string"
            }
          ],
          "internalType": "struct File[]",
          "name": "",
          "type": "tuple[]"
        }
      ],
      "stateMutability": "view",
      "type": "function"
    },
    {
      "inputs": [
        {
          "components": [
            {
              "internalType": "string",
              "name": "fileName",
              "type": "string"
            },
            {
              "internalType": "address",
              "name": "owner",
              "type": "address"
            },
            {
              "internalType": "string",
              "name": "ipfsCID",
              "type": "string"
            },
            {
              "internalType": "string",
              "name": "fileType",
              "type": "string"
            },
            {
              "internalType": "string",
              "name": "iv",
              "type": "string"
            }
          ],
          "internalType": "struct File",
          "name": "file",
          "type": "tuple"
        },
        {
          "components": [
            {
              "internalType": "address",
              "name": "account",
              "type": "address"
            },
            {
              "internalType": "string",
              "name": "name",
              "type": "string"
            },
            {
              "internalType": "string",
              "name": "publicKey",
              "type": "string"
            },
            {
              "internalType": "string",
              "name": "privateKey",
              "type": "string"
            }
          ],
          "internalType": "struct User",
          "name": "user",
          "type": "tuple"
        }
      ],
      "name": "uploadFile",
      "outputs": [],
      "stateMutability": "nonpayable",
      "type": "function"
    }
  ],
  "bytecode": "0x608060405234801561001057600080fd5b506112de806100206000396000f3fe608060405234801561001057600080fd5b50600436106100415760003560e01c8063288e70e414610046578063c041a42514610062578063c2bc2efc14610092575b600080fd5b610060600480360381019061005b9190610af4565b6100c2565b005b61007c60048036038101906100779190610af4565b610224565b6040516100899190610beb565b60405180910390f35b6100ac60048036038101906100a79190610c0d565b610325565b6040516100b99190610de0565b60405180910390f35b60006100ce8383610224565b905060008151036101e4576000839080600181540180825580915050600190039060005260206000209060050201600090919091909150600082015181600001908161011a9190611018565b5060208201518160010160006101000a81548173ffffffffffffffffffffffffffffffffffffffff021916908373ffffffffffffffffffffffffffffffffffffffff16021790555060408201518160020190816101779190611018565b50606082015181600301908161018d9190611018565b5060808201518160040190816101a39190611018565b5050507f6c863839cfd32d0f6385600bd22dfa35736ff518a92acb2bc960cacad49fb9bf60016040516101d69190611151565b60405180910390a150610220565b7f6c863839cfd32d0f6385600bd22dfa35736ff518a92acb2bc960cacad49fb9bf60008260405161021692919061117f565b60405180910390a1505b5050565b606060006102358360000151610325565b905060005b815181101561030a57846000015160405160200161025891906111eb565b6040516020818303038152906040528051906020012082828151811061028157610280611202565b5b60200260200101516000015160405160200161029d91906111eb565b60405160208183030381529060405280519060200120036102f7576040518060400160405280601f81526020017f46696c652068617320746f2068617665206120756e69717565206e616d652e008152509250505061031f565b808061030290611260565b91505061023a565b50604051806020016040528060008152509150505b92915050565b60606000808054905067ffffffffffffffff81111561034757610346610794565b5b60405190808252806020026020018201604052801561038057816020015b61036d610725565b8152602001906001900390816103655790505b5090506000805b600080549050811015610717578473ffffffffffffffffffffffffffffffffffffffff16600082815481106103bf576103be611202565b5b906000526020600020906005020160010160009054906101000a900473ffffffffffffffffffffffffffffffffffffffff1673ffffffffffffffffffffffffffffffffffffffff160361070457600081815481106104205761041f611202565b5b90600052602060002090600502016040518060a001604052908160008201805461044990610e31565b80601f016020809104026020016040519081016040528092919081815260200182805461047590610e31565b80156104c25780601f10610497576101008083540402835291602001916104c2565b820191906000526020600020905b8154815290600101906020018083116104a557829003601f168201915b505050505081526020016001820160009054906101000a900473ffffffffffffffffffffffffffffffffffffffff1673ffffffffffffffffffffffffffffffffffffffff1673ffffffffffffffffffffffffffffffffffffffff16815260200160028201805461053190610e31565b80601f016020809104026020016040519081016040528092919081815260200182805461055d90610e31565b80156105aa5780601f1061057f576101008083540402835291602001916105aa565b820191906000526020600020905b81548152906001019060200180831161058d57829003601f168201915b505050505081526020016003820180546105c390610e31565b80601f01602080910402602001604051908101604052809291908181526020018280546105ef90610e31565b801561063c5780601f106106115761010080835404028352916020019161063c565b820191906000526020600020905b81548152906001019060200180831161061f57829003601f168201915b5050505050815260200160048201805461065590610e31565b80601f016020809104026020016040519081016040528092919081815260200182805461068190610e31565b80156106ce5780601f106106a3576101008083540402835291602001916106ce565b820191906000526020600020905b8154815290600101906020018083116106b157829003601f168201915b5050505050815250508383815181106106ea576106e9611202565b5b6020026020010181905250818061070090611260565b9250505b808061070f90611260565b915050610387565b508082528192505050919050565b6040518060a0016040528060608152602001600073ffffffffffffffffffffffffffffffffffffffff1681526020016060815260200160608152602001606081525090565b6000604051905090565b600080fd5b600080fd5b600080fd5b6000601f19601f8301169050919050565b7f4e487b7100000000000000000000000000000000000000000000000000000000600052604160045260246000fd5b6107cc82610783565b810181811067ffffffffffffffff821117156107eb576107ea610794565b5b80604052505050565b60006107fe61076a565b905061080a82826107c3565b919050565b600080fd5b600080fd5b600080fd5b600067ffffffffffffffff82111561083957610838610794565b5b61084282610783565b9050602081019050919050565b82818337600083830152505050565b600061087161086c8461081e565b6107f4565b90508281526020810184848401111561088d5761088c610819565b5b61089884828561084f565b509392505050565b600082601f8301126108b5576108b4610814565b5b81356108c584826020860161085e565b91505092915050565b600073ffffffffffffffffffffffffffffffffffffffff82169050919050565b60006108f9826108ce565b9050919050565b610909816108ee565b811461091457600080fd5b50565b60008135905061092681610900565b92915050565b600060a082840312156109425761094161077e565b5b61094c60a06107f4565b9050600082013567ffffffffffffffff81111561096c5761096b61080f565b5b610978848285016108a0565b600083015250602061098c84828501610917565b602083015250604082013567ffffffffffffffff8111156109b0576109af61080f565b5b6109bc848285016108a0565b604083015250606082013567ffffffffffffffff8111156109e0576109df61080f565b5b6109ec848285016108a0565b606083015250608082013567ffffffffffffffff811115610a1057610a0f61080f565b5b610a1c848285016108a0565b60808301525092915050565b600060808284031215610a3e57610a3d61077e565b5b610a4860806107f4565b90506000610a5884828501610917565b600083015250602082013567ffffffffffffffff811115610a7c57610a7b61080f565b5b610a88848285016108a0565b602083015250604082013567ffffffffffffffff811115610aac57610aab61080f565b5b610ab8848285016108a0565b604083015250606082013567ffffffffffffffff811115610adc57610adb61080f565b5b610ae8848285016108a0565b60608301525092915050565b60008060408385031215610b0b57610b0a610774565b5b600083013567ffffffffffffffff811115610b2957610b28610779565b5b610b358582860161092c565b925050602083013567ffffffffffffffff811115610b5657610b55610779565b5b610b6285828601610a28565b9150509250929050565b600081519050919050565b600082825260208201905092915050565b60005b83811015610ba6578082015181840152602081019050610b8b565b60008484015250505050565b6000610bbd82610b6c565b610bc78185610b77565b9350610bd7818560208601610b88565b610be081610783565b840191505092915050565b60006020820190508181036000830152610c058184610bb2565b905092915050565b600060208284031215610c2357610c22610774565b5b6000610c3184828501610917565b91505092915050565b600081519050919050565b600082825260208201905092915050565b6000819050602082019050919050565b600082825260208201905092915050565b6000610c8282610b6c565b610c8c8185610c66565b9350610c9c818560208601610b88565b610ca581610783565b840191505092915050565b610cb9816108ee565b82525050565b600060a0830160008301518482036000860152610cdc8282610c77565b9150506020830151610cf16020860182610cb0565b5060408301518482036040860152610d098282610c77565b91505060608301518482036060860152610d238282610c77565b91505060808301518482036080860152610d3d8282610c77565b9150508091505092915050565b6000610d568383610cbf565b905092915050565b6000602082019050919050565b6000610d7682610c3a565b610d808185610c45565b935083602082028501610d9285610c56565b8060005b85811015610dce5784840389528151610daf8582610d4a565b9450610dba83610d5e565b925060208a01995050600181019050610d96565b50829750879550505050505092915050565b60006020820190508181036000830152610dfa8184610d6b565b905092915050565b7f4e487b7100000000000000000000000000000000000000000000000000000000600052602260045260246000fd5b60006002820490506001821680610e4957607f821691505b602082108103610e5c57610e5b610e02565b5b50919050565b60008190508160005260206000209050919050565b60006020601f8301049050919050565b600082821b905092915050565b600060088302610ec47fffffffffffffffffffffffffffffffffffffffffffffffffffffffffffffffff82610e87565b610ece8683610e87565b95508019841693508086168417925050509392505050565b6000819050919050565b6000819050919050565b6000610f15610f10610f0b84610ee6565b610ef0565b610ee6565b9050919050565b6000819050919050565b610f2f83610efa565b610f43610f3b82610f1c565b848454610e94565b825550505050565b600090565b610f58610f4b565b610f63818484610f26565b505050565b5b81811015610f8757610f7c600082610f50565b600181019050610f69565b5050565b601f821115610fcc57610f9d81610e62565b610fa684610e77565b81016020851015610fb5578190505b610fc9610fc185610e77565b830182610f68565b50505b505050565b600082821c905092915050565b6000610fef60001984600802610fd1565b1980831691505092915050565b60006110088383610fde565b9150826002028217905092915050565b61102182610b6c565b67ffffffffffffffff81111561103a57611039610794565b5b6110448254610e31565b61104f828285610f8b565b600060209050601f8311600181146110825760008415611070578287015190505b61107a8582610ffc565b8655506110e2565b601f19841661109086610e62565b60005b828110156110b857848901518255600182019150602085019450602081019050611093565b868310156110d557848901516110d1601f891682610fde565b8355505b6001600288020188555050505b505050505050565b60008115159050919050565b6110ff816110ea565b82525050565b7f46696c652075706c6f61646564207375636365737366756c6c792e0000000000600082015250565b600061113b601b83610b77565b915061114682611105565b602082019050919050565b600060408201905061116660008301846110f6565b81810360208301526111778161112e565b905092915050565b600060408201905061119460008301856110f6565b81810360208301526111a68184610bb2565b90509392505050565b600081905092915050565b60006111c582610b6c565b6111cf81856111af565b93506111df818560208601610b88565b80840191505092915050565b60006111f782846111ba565b915081905092915050565b7f4e487b7100000000000000000000000000000000000000000000000000000000600052603260045260246000fd5b7f4e487b7100000000000000000000000000000000000000000000000000000000600052601160045260246000fd5b600061126b82610ee6565b91507fffffffffffffffffffffffffffffffffffffffffffffffffffffffffffffffff820361129d5761129c611231565b5b60018201905091905056fea2646970667358221220d988ed42fb9fc581a65f0256399b389eebfb7183de819e44a5e53b1ecad805da64736f6c63430008130033",
  "linkReferences": {},
  "deployedLinkReferences": {}
}