{
  "_format": "hh-sol-artifact-1",
  "contractName": "StoreFile",
  "sourceName": "contracts/StoreFile.sol",
  "abi": [
    {
      "anonymous": false,
      "inputs": [
        {
          "indexed": false,
          "internalType": "bool",
          "name": "success",
          "type": "bool"
        },
        {
          "indexed": false,
          "internalType": "string",
          "name": "message",
          "type": "string"
        }
      ],
      "name": "UploadFileResult",
      "type": "event"
    },
    {
      "inputs": [
        {
          "components": [
            {
              "internalType": "string",
              "name": "fileName",
              "type": "string"
            },
            {
              "internalType": "address",
              "name": "owner",
              "type": "address"
            },
            {
              "internalType": "string",
              "name": "ipfsCID",
              "type": "string"
            },
            {
              "internalType": "string",
              "name": "fileType",
              "type": "string"
            },
            {
              "internalType": "string",
              "name": "iv",
              "type": "string"
            }
          ],
          "internalType": "struct File",
          "name": "file",
          "type": "tuple"
        },
        {
          "components": [
            {
              "internalType": "address",
              "name": "account",
              "type": "address"
            },
            {
              "internalType": "string",
              "name": "name",
              "type": "string"
            },
            {
              "internalType": "string",
              "name": "publicKey",
              "type": "string"
            },
            {
              "internalType": "string",
              "name": "privateKey",
              "type": "string"
            }
          ],
          "internalType": "struct User",
          "name": "user",
          "type": "tuple"
        }
      ],
      "name": "fileExists",
      "outputs": [
        {
          "internalType": "string",
          "name": "",
          "type": "string"
        }
      ],
      "stateMutability": "view",
      "type": "function"
    },
    {
      "inputs": [
        {
          "components": [
            {
              "internalType": "address",
              "name": "account",
              "type": "address"
            },
            {
              "internalType": "string",
              "name": "name",
              "type": "string"
            },
            {
              "internalType": "string",
              "name": "publicKey",
              "type": "string"
            },
            {
              "internalType": "string",
              "name": "privateKey",
              "type": "string"
            }
          ],
          "internalType": "struct User",
          "name": "user",
          "type": "tuple"
        },
        {
          "components": [
            {
              "internalType": "string",
              "name": "fileName",
              "type": "string"
            },
            {
              "internalType": "address",
              "name": "owner",
              "type": "address"
            },
            {
              "internalType": "string",
              "name": "ipfsCID",
              "type": "string"
            },
            {
              "internalType": "string",
              "name": "fileType",
              "type": "string"
            },
            {
              "internalType": "string",
              "name": "iv",
              "type": "string"
            }
          ],
          "internalType": "struct File",
          "name": "file",
          "type": "tuple"
        }
      ],
      "name": "getEncSymmetricKeyFileUser",
      "outputs": [
        {
          "internalType": "string",
          "name": "",
          "type": "string"
        }
      ],
      "stateMutability": "view",
      "type": "function"
    },
    {
      "inputs": [
        {
          "components": [
            {
              "internalType": "address",
              "name": "account",
              "type": "address"
            },
            {
              "internalType": "string",
              "name": "name",
              "type": "string"
            },
            {
              "internalType": "string",
              "name": "publicKey",
              "type": "string"
            },
            {
              "internalType": "string",
              "name": "privateKey",
              "type": "string"
            }
          ],
          "internalType": "struct User",
          "name": "user",
          "type": "tuple"
        },
        {
          "components": [
            {
              "internalType": "string",
              "name": "fileName",
              "type": "string"
            },
            {
              "internalType": "address",
              "name": "owner",
              "type": "address"
            },
            {
              "internalType": "string",
              "name": "ipfsCID",
              "type": "string"
            },
            {
              "internalType": "string",
              "name": "fileType",
              "type": "string"
            },
            {
              "internalType": "string",
              "name": "iv",
              "type": "string"
            }
          ],
          "internalType": "struct File",
          "name": "file",
          "type": "tuple"
        }
      ],
      "name": "getPermissionsOverFile",
      "outputs": [
        {
          "internalType": "string[]",
          "name": "",
          "type": "string[]"
        }
      ],
      "stateMutability": "view",
      "type": "function"
    },
    {
      "inputs": [
        {
          "internalType": "address",
          "name": "account",
          "type": "address"
        }
      ],
      "name": "getUserFiles",
      "outputs": [
        {
          "components": [
            {
              "internalType": "string",
              "name": "fileName",
              "type": "string"
            },
            {
              "internalType": "address",
              "name": "owner",
              "type": "address"
            },
            {
              "internalType": "string",
              "name": "ipfsCID",
              "type": "string"
            },
            {
              "internalType": "string",
              "name": "fileType",
              "type": "string"
            },
            {
              "internalType": "string",
              "name": "iv",
              "type": "string"
            }
          ],
          "internalType": "struct File[]",
          "name": "",
          "type": "tuple[]"
        }
      ],
      "stateMutability": "view",
      "type": "function"
    },
    {
      "inputs": [
        {
          "components": [
            {
              "internalType": "address",
              "name": "account",
              "type": "address"
            },
            {
              "internalType": "string",
              "name": "name",
              "type": "string"
            },
            {
              "internalType": "string",
              "name": "publicKey",
              "type": "string"
            },
            {
              "internalType": "string",
              "name": "privateKey",
              "type": "string"
            }
          ],
          "internalType": "struct User",
          "name": "user",
          "type": "tuple"
        },
        {
          "components": [
            {
              "internalType": "string",
              "name": "fileName",
              "type": "string"
            },
            {
              "internalType": "address",
              "name": "owner",
              "type": "address"
            },
            {
              "internalType": "string",
              "name": "ipfsCID",
              "type": "string"
            },
            {
              "internalType": "string",
              "name": "fileType",
              "type": "string"
            },
            {
              "internalType": "string",
              "name": "iv",
              "type": "string"
            }
          ],
          "internalType": "struct File",
          "name": "file",
          "type": "tuple"
        },
        {
          "internalType": "string",
          "name": "encSymmetricKey",
          "type": "string"
        },
        {
          "internalType": "string[]",
          "name": "permissions",
          "type": "string[]"
        }
      ],
      "name": "storeUserHasFile",
      "outputs": [],
      "stateMutability": "nonpayable",
      "type": "function"
    },
    {
      "inputs": [
        {
          "components": [
            {
              "internalType": "string",
              "name": "fileName",
              "type": "string"
            },
            {
              "internalType": "address",
              "name": "owner",
              "type": "address"
            },
            {
              "internalType": "string",
              "name": "ipfsCID",
              "type": "string"
            },
            {
              "internalType": "string",
              "name": "fileType",
              "type": "string"
            },
            {
              "internalType": "string",
              "name": "iv",
              "type": "string"
            }
          ],
          "internalType": "struct File",
          "name": "file",
          "type": "tuple"
        },
        {
          "internalType": "string",
          "name": "encSymmetricKey",
          "type": "string"
        },
        {
          "components": [
            {
              "internalType": "address",
              "name": "account",
              "type": "address"
            },
            {
              "internalType": "string",
              "name": "name",
              "type": "string"
            },
            {
              "internalType": "string",
              "name": "publicKey",
              "type": "string"
            },
            {
              "internalType": "string",
              "name": "privateKey",
              "type": "string"
            }
          ],
          "internalType": "struct User",
          "name": "user",
          "type": "tuple"
        }
      ],
      "name": "uploadFile",
      "outputs": [],
      "stateMutability": "nonpayable",
      "type": "function"
    }
  ],
  "bytecode": "0x608060405234801561001057600080fd5b5061232d806100206000396000f3fe608060405234801561001057600080fd5b50600436106100625760003560e01c80631fc379221461006757806336d4bc6f14610097578063a4942001146100b3578063c041a425146100e3578063e0c317cf14610113578063fb629ff114610143575b600080fd5b610081600480360381019061007c9190611370565b61015f565b60405161008e9190611589565b60405180910390f35b6100b160048036038101906100ac9190611998565b61064c565b005b6100cd60048036038101906100c89190611a6f565b6108bf565b6040516100da9190611b31565b60405180910390f35b6100fd60048036038101906100f89190611b53565b610ab0565b60405161010a9190611b31565b60405180910390f35b61012d60048036038101906101289190611a6f565b610b67565b60405161013a9190611c8d565b60405180910390f35b61015d60048036038101906101589190611caf565b610dde565b005b60606000808054905067ffffffffffffffff811115610181576101806115b0565b5b6040519080825280602002602001820160405280156101ba57816020015b6101a76111df565b81526020019060019003908161019f5790505b5090506000805b60018054905081101561063e578473ffffffffffffffffffffffffffffffffffffffff16600182815481106101f9576101f8611d56565b5b906000526020600020906004020160000160009054906101000a900473ffffffffffffffffffffffffffffffffffffffff1673ffffffffffffffffffffffffffffffffffffffff160361062b5760006001828154811061025c5761025b611d56565b5b9060005260206000209060040201600101805461027890611db4565b80601f01602080910402602001604051908101604052809291908181526020018280546102a490611db4565b80156102f15780601f106102c6576101008083540402835291602001916102f1565b820191906000526020600020905b8154815290600101906020018083116102d457829003601f168201915b5050505050905060006105f9826000805480602002602001604051908101604052809291908181526020016000905b828210156105f057838290600052602060002090600502016040518060a001604052908160008201805461035390611db4565b80601f016020809104026020016040519081016040528092919081815260200182805461037f90611db4565b80156103cc5780601f106103a1576101008083540402835291602001916103cc565b820191906000526020600020905b8154815290600101906020018083116103af57829003601f168201915b505050505081526020016001820160009054906101000a900473ffffffffffffffffffffffffffffffffffffffff1673ffffffffffffffffffffffffffffffffffffffff1673ffffffffffffffffffffffffffffffffffffffff16815260200160028201805461043b90611db4565b80601f016020809104026020016040519081016040528092919081815260200182805461046790611db4565b80156104b45780601f10610489576101008083540402835291602001916104b4565b820191906000526020600020905b81548152906001019060200180831161049757829003601f168201915b505050505081526020016003820180546104cd90611db4565b80601f01602080910402602001604051908101604052809291908181526020018280546104f990611db4565b80156105465780601f1061051b57610100808354040283529160200191610546565b820191906000526020600020905b81548152906001019060200180831161052957829003601f168201915b5050505050815260200160048201805461055f90611db4565b80601f016020809104026020016040519081016040528092919081815260200182805461058b90611db4565b80156105d85780601f106105ad576101008083540402835291602001916105d8565b820191906000526020600020905b8154815290600101906020018083116105bb57829003601f168201915b50505050508152505081526020019060010190610320565b505050506110a0565b90508085858151811061060f5761060e611d56565b5b6020026020010181905250838061062590611e1e565b94505050505b808061063690611e1e565b9150506101c1565b508082528192505050919050565b6000805b6001805490508110156107af57856000015173ffffffffffffffffffffffffffffffffffffffff166001828154811061068c5761068b611d56565b5b906000526020600020906004020160000160009054906101000a900473ffffffffffffffffffffffffffffffffffffffff1673ffffffffffffffffffffffffffffffffffffffff16148015610754575084600001516040516020016106f19190611ea2565b604051602081830303815290604052805190602001206001828154811061071b5761071a611d56565b5b906000526020600020906004020160010160405160200161073c9190611f51565b60405160208183030381529060405280519060200120145b1561079c57826001828154811061076e5761076d611d56565b5b90600052602060002090600402016003019080519060200190610792929190611224565b50600191506107af565b80806107a790611e1e565b915050610650565b50806108b85760006040518060800160405280876000015173ffffffffffffffffffffffffffffffffffffffff16815260200186600001518152602001858152602001848152509050600181908060018154018082558091505060019003906000526020600020906004020160009091909190915060008201518160000160006101000a81548173ffffffffffffffffffffffffffffffffffffffff021916908373ffffffffffffffffffffffffffffffffffffffff160217905550602082015181600101908161088091906120ff565b50604082015181600201908161089691906120ff565b5060608201518160030190805190602001906108b3929190611224565b505050505b5050505050565b606060005b600180549050811015610a9657836000015173ffffffffffffffffffffffffffffffffffffffff1660018281548110610900576108ff611d56565b5b906000526020600020906004020160000160009054906101000a900473ffffffffffffffffffffffffffffffffffffffff1673ffffffffffffffffffffffffffffffffffffffff161480156109c8575082600001516040516020016109659190611ea2565b604051602081830303815290604052805190602001206001828154811061098f5761098e611d56565b5b90600052602060002090600402016001016040516020016109b09190611f51565b60405160208183030381529060405280519060200120145b15610a8357600181815481106109e1576109e0611d56565b5b906000526020600020906004020160020180546109fd90611db4565b80601f0160208091040260200160405190810160405280929190818152602001828054610a2990611db4565b8015610a765780601f10610a4b57610100808354040283529160200191610a76565b820191906000526020600020905b815481529060010190602001808311610a5957829003601f168201915b5050505050915050610aaa565b8080610a8e90611e1e565b9150506108c4565b506040518060200160405280600081525090505b92915050565b60606000610ac1836000015161015f565b90506000610ad38560000151836110a0565b9050604051602001610ae4906121f7565b604051602081830303815290604052805190602001208160000151604051602001610b0f9190611ea2565b6040516020818303038152906040528051906020012014610b4c576040518060600160405280602681526020016122d26026913992505050610b61565b60405180602001604052806000815250925050505b92915050565b606060005b600180549050811015610d8557836000015173ffffffffffffffffffffffffffffffffffffffff1660018281548110610ba857610ba7611d56565b5b906000526020600020906004020160000160009054906101000a900473ffffffffffffffffffffffffffffffffffffffff1673ffffffffffffffffffffffffffffffffffffffff16148015610c7057508260000151604051602001610c0d9190611ea2565b6040516020818303038152906040528051906020012060018281548110610c3757610c36611d56565b5b9060005260206000209060040201600101604051602001610c589190611f51565b60405160208183030381529060405280519060200120145b15610d725760018181548110610c8957610c88611d56565b5b9060005260206000209060040201600301805480602002602001604051908101604052809291908181526020016000905b82821015610d66578382906000526020600020018054610cd990611db4565b80601f0160208091040260200160405190810160405280929190818152602001828054610d0590611db4565b8015610d525780601f10610d2757610100808354040283529160200191610d52565b820191906000526020600020905b815481529060010190602001808311610d3557829003601f168201915b505050505081526020019060010190610cba565b50505050915050610dd8565b8080610d7d90611e1e565b915050610b6c565b50600067ffffffffffffffff811115610da157610da06115b0565b5b604051908082528060200260200182016040528015610dd457816020015b6060815260200190600190039081610dbf5790505b5090505b92915050565b6000610dea8483610ab0565b9050600081510361105f5760008490806001815401808255809150506001900390600052602060002090600502016000909190919091506000820151816000019081610e3691906120ff565b5060208201518160010160006101000a81548173ffffffffffffffffffffffffffffffffffffffff021916908373ffffffffffffffffffffffffffffffffffffffff1602179055506040820151816002019081610e9391906120ff565b506060820151816003019081610ea991906120ff565b506080820151816004019081610ebf91906120ff565b5050506000600367ffffffffffffffff811115610edf57610ede6115b0565b5b604051908082528060200260200182016040528015610f1257816020015b6060815260200190600190039081610efd5790505b5090506040518060400160405280600881526020017f646f776e6c6f616400000000000000000000000000000000000000000000000081525081600081518110610f5f57610f5e611d56565b5b60200260200101819052506040518060400160405280600681526020017f64656c657465000000000000000000000000000000000000000000000000000081525081600181518110610fb457610fb3611d56565b5b60200260200101819052506040518060400160405280600581526020017f73686172650000000000000000000000000000000000000000000000000000008152508160028151811061100957611008611d56565b5b60200260200101819052506110208386868461064c565b7f6c863839cfd32d0f6385600bd22dfa35736ff518a92acb2bc960cacad49fb9bf60016040516110509190612273565b60405180910390a1505061109b565b7f6c863839cfd32d0f6385600bd22dfa35736ff518a92acb2bc960cacad49fb9bf6000826040516110919291906122a1565b60405180910390a1505b505050565b6110a86111df565b60005b825181101561115b57836040516020016110c59190611ea2565b604051602081830303815290604052805190602001208382815181106110ee576110ed611d56565b5b60200260200101516000015160405160200161110a9190611ea2565b60405160208183030381529060405280519060200120036111485782818151811061113857611137611d56565b5b60200260200101519150506111d9565b808061115390611e1e565b9150506110ab565b506040518060a00160405280604051806020016040528060008152508152602001600073ffffffffffffffffffffffffffffffffffffffff1681526020016040518060200160405280600081525081526020016040518060200160405280600081525081526020016040518060200160405280600081525081525090505b92915050565b6040518060a0016040528060608152602001600073ffffffffffffffffffffffffffffffffffffffff1681526020016060815260200160608152602001606081525090565b82805482825590600052602060002090810192821561126c579160200282015b8281111561126b57825182908161125b91906120ff565b5091602001919060010190611244565b5b509050611279919061127d565b5090565b5b8082111561129d576000818161129491906112a1565b5060010161127e565b5090565b5080546112ad90611db4565b6000825580601f106112bf57506112de565b601f0160209004906000526020600020908101906112dd91906112e1565b5b50565b5b808211156112fa5760008160009055506001016112e2565b5090565b6000604051905090565b600080fd5b600080fd5b600073ffffffffffffffffffffffffffffffffffffffff82169050919050565b600061133d82611312565b9050919050565b61134d81611332565b811461135857600080fd5b50565b60008135905061136a81611344565b92915050565b60006020828403121561138657611385611308565b5b60006113948482850161135b565b91505092915050565b600081519050919050565b600082825260208201905092915050565b6000819050602082019050919050565b600081519050919050565b600082825260208201905092915050565b60005b838110156114035780820151818401526020810190506113e8565b60008484015250505050565b6000601f19601f8301169050919050565b600061142b826113c9565b61143581856113d4565b93506114458185602086016113e5565b61144e8161140f565b840191505092915050565b61146281611332565b82525050565b600060a08301600083015184820360008601526114858282611420565b915050602083015161149a6020860182611459565b50604083015184820360408601526114b28282611420565b915050606083015184820360608601526114cc8282611420565b915050608083015184820360808601526114e68282611420565b9150508091505092915050565b60006114ff8383611468565b905092915050565b6000602082019050919050565b600061151f8261139d565b61152981856113a8565b93508360208202850161153b856113b9565b8060005b85811015611577578484038952815161155885826114f3565b945061156383611507565b925060208a0199505060018101905061153f565b50829750879550505050505092915050565b600060208201905081810360008301526115a38184611514565b905092915050565b600080fd5b7f4e487b7100000000000000000000000000000000000000000000000000000000600052604160045260246000fd5b6115e88261140f565b810181811067ffffffffffffffff82111715611607576116066115b0565b5b80604052505050565b600061161a6112fe565b905061162682826115df565b919050565b600080fd5b600080fd5b600080fd5b600067ffffffffffffffff821115611655576116546115b0565b5b61165e8261140f565b9050602081019050919050565b82818337600083830152505050565b600061168d6116888461163a565b611610565b9050828152602081018484840111156116a9576116a8611635565b5b6116b484828561166b565b509392505050565b600082601f8301126116d1576116d0611630565b5b81356116e184826020860161167a565b91505092915050565b600060808284031215611700576116ff6115ab565b5b61170a6080611610565b9050600061171a8482850161135b565b600083015250602082013567ffffffffffffffff81111561173e5761173d61162b565b5b61174a848285016116bc565b602083015250604082013567ffffffffffffffff81111561176e5761176d61162b565b5b61177a848285016116bc565b604083015250606082013567ffffffffffffffff81111561179e5761179d61162b565b5b6117aa848285016116bc565b60608301525092915050565b600060a082840312156117cc576117cb6115ab565b5b6117d660a0611610565b9050600082013567ffffffffffffffff8111156117f6576117f561162b565b5b611802848285016116bc565b60008301525060206118168482850161135b565b602083015250604082013567ffffffffffffffff81111561183a5761183961162b565b5b611846848285016116bc565b604083015250606082013567ffffffffffffffff81111561186a5761186961162b565b5b611876848285016116bc565b606083015250608082013567ffffffffffffffff81111561189a5761189961162b565b5b6118a6848285016116bc565b60808301525092915050565b600067ffffffffffffffff8211156118cd576118cc6115b0565b5b602082029050602081019050919050565b600080fd5b60006118f66118f1846118b2565b611610565b90508083825260208201905060208402830185811115611919576119186118de565b5b835b8181101561196057803567ffffffffffffffff81111561193e5761193d611630565b5b80860161194b89826116bc565b8552602085019450505060208101905061191b565b5050509392505050565b600082601f83011261197f5761197e611630565b5b813561198f8482602086016118e3565b91505092915050565b600080600080608085870312156119b2576119b1611308565b5b600085013567ffffffffffffffff8111156119d0576119cf61130d565b5b6119dc878288016116ea565b945050602085013567ffffffffffffffff8111156119fd576119fc61130d565b5b611a09878288016117b6565b935050604085013567ffffffffffffffff811115611a2a57611a2961130d565b5b611a36878288016116bc565b925050606085013567ffffffffffffffff811115611a5757611a5661130d565b5b611a638782880161196a565b91505092959194509250565b60008060408385031215611a8657611a85611308565b5b600083013567ffffffffffffffff811115611aa457611aa361130d565b5b611ab0858286016116ea565b925050602083013567ffffffffffffffff811115611ad157611ad061130d565b5b611add858286016117b6565b9150509250929050565b600082825260208201905092915050565b6000611b03826113c9565b611b0d8185611ae7565b9350611b1d8185602086016113e5565b611b268161140f565b840191505092915050565b60006020820190508181036000830152611b4b8184611af8565b905092915050565b60008060408385031215611b6a57611b69611308565b5b600083013567ffffffffffffffff811115611b8857611b8761130d565b5b611b94858286016117b6565b925050602083013567ffffffffffffffff811115611bb557611bb461130d565b5b611bc1858286016116ea565b9150509250929050565b600081519050919050565b600082825260208201905092915050565b6000819050602082019050919050565b6000611c038383611420565b905092915050565b6000602082019050919050565b6000611c2382611bcb565b611c2d8185611bd6565b935083602082028501611c3f85611be7565b8060005b85811015611c7b5784840389528151611c5c8582611bf7565b9450611c6783611c0b565b925060208a01995050600181019050611c43565b50829750879550505050505092915050565b60006020820190508181036000830152611ca78184611c18565b905092915050565b600080600060608486031215611cc857611cc7611308565b5b600084013567ffffffffffffffff811115611ce657611ce561130d565b5b611cf2868287016117b6565b935050602084013567ffffffffffffffff811115611d1357611d1261130d565b5b611d1f868287016116bc565b925050604084013567ffffffffffffffff811115611d4057611d3f61130d565b5b611d4c868287016116ea565b9150509250925092565b7f4e487b7100000000000000000000000000000000000000000000000000000000600052603260045260246000fd5b7f4e487b7100000000000000000000000000000000000000000000000000000000600052602260045260246000fd5b60006002820490506001821680611dcc57607f821691505b602082108103611ddf57611dde611d85565b5b50919050565b7f4e487b7100000000000000000000000000000000000000000000000000000000600052601160045260246000fd5b6000819050919050565b6000611e2982611e14565b91507fffffffffffffffffffffffffffffffffffffffffffffffffffffffffffffffff8203611e5b57611e5a611de5565b5b600182019050919050565b600081905092915050565b6000611e7c826113c9565b611e868185611e66565b9350611e968185602086016113e5565b80840191505092915050565b6000611eae8284611e71565b915081905092915050565b60008190508160005260206000209050919050565b60008154611edb81611db4565b611ee58186611e66565b94506001821660008114611f005760018114611f1557611f48565b60ff1983168652811515820286019350611f48565b611f1e85611eb9565b60005b83811015611f4057815481890152600182019150602081019050611f21565b838801955050505b50505092915050565b6000611f5d8284611ece565b915081905092915050565b60006020601f8301049050919050565b600082821b905092915050565b600060088302611fb57fffffffffffffffffffffffffffffffffffffffffffffffffffffffffffffffff82611f78565b611fbf8683611f78565b95508019841693508086168417925050509392505050565b6000819050919050565b6000611ffc611ff7611ff284611e14565b611fd7565b611e14565b9050919050565b6000819050919050565b61201683611fe1565b61202a61202282612003565b848454611f85565b825550505050565b600090565b61203f612032565b61204a81848461200d565b505050565b5b8181101561206e57612063600082612037565b600181019050612050565b5050565b601f8211156120b35761208481611eb9565b61208d84611f68565b8101602085101561209c578190505b6120b06120a885611f68565b83018261204f565b50505b505050565b600082821c905092915050565b60006120d6600019846008026120b8565b1980831691505092915050565b60006120ef83836120c5565b9150826002028217905092915050565b612108826113c9565b67ffffffffffffffff811115612121576121206115b0565b5b61212b8254611db4565b612136828285612072565b600060209050601f8311600181146121695760008415612157578287015190505b61216185826120e3565b8655506121c9565b601f19841661217786611eb9565b60005b8281101561219f5784890151825560018201915060208501945060208101905061217a565b868310156121bc57848901516121b8601f8916826120c5565b8355505b6001600288020188555050505b505050505050565b50565b60006121e1600083611e66565b91506121ec826121d1565b600082019050919050565b6000612202826121d4565b9150819050919050565b60008115159050919050565b6122218161220c565b82525050565b7f46696c652075706c6f61646564207375636365737366756c6c792e0000000000600082015250565b600061225d601b83611ae7565b915061226882612227565b602082019050919050565b60006040820190506122886000830184612218565b818103602083015261229981612250565b905092915050565b60006040820190506122b66000830185612218565b81810360208301526122c88184611af8565b9050939250505056fe5573657220616c7265616479206173736f6369617465642077697468207468652066696c652ea2646970667358221220d4ab9f240d383bfaf821857b6eb13aef47987174274666776c21ee0546d060bd64736f6c63430008130033",
  "linkReferences": {},
  "deployedLinkReferences": {}
}