{
  "_format": "hh-sol-artifact-1",
  "contractName": "StoreFile",
  "sourceName": "contracts/StoreFile.sol",
  "abi": [
    {
      "inputs": [],
      "name": "get",
      "outputs": [
        {
          "components": [
            {
              "internalType": "string",
              "name": "fileName",
              "type": "string"
            },
            {
              "internalType": "string",
              "name": "encSymmetricKey",
              "type": "string"
            },
            {
              "internalType": "string",
              "name": "owner",
              "type": "string"
            },
            {
              "internalType": "string",
              "name": "ipfsCID",
              "type": "string"
            },
            {
              "internalType": "string",
              "name": "fileType",
              "type": "string"
            },
            {
              "internalType": "string",
              "name": "iv",
              "type": "string"
            }
          ],
          "internalType": "struct File[]",
          "name": "",
          "type": "tuple[]"
        }
      ],
      "stateMutability": "view",
      "type": "function"
    },
    {
      "inputs": [
        {
          "components": [
            {
              "internalType": "string",
              "name": "fileName",
              "type": "string"
            },
            {
              "internalType": "string",
              "name": "encSymmetricKey",
              "type": "string"
            },
            {
              "internalType": "string",
              "name": "owner",
              "type": "string"
            },
            {
              "internalType": "string",
              "name": "ipfsCID",
              "type": "string"
            },
            {
              "internalType": "string",
              "name": "fileType",
              "type": "string"
            },
            {
              "internalType": "string",
              "name": "iv",
              "type": "string"
            }
          ],
          "internalType": "struct File",
          "name": "file",
          "type": "tuple"
        }
      ],
      "name": "set",
      "outputs": [],
      "stateMutability": "nonpayable",
      "type": "function"
    }
  ],
  "bytecode": "0x608060405234801561001057600080fd5b50611500806100206000396000f3fe608060405234801561001057600080fd5b50600436106100365760003560e01c80636d4ce63c1461003b57806397d8a4f814610059575b600080fd5b610043610075565b6040516100509190610d40565b60405180910390f35b610073600480360381019061006e9190610ffd565b610522565b005b606060008060003373ffffffffffffffffffffffffffffffffffffffff1673ffffffffffffffffffffffffffffffffffffffff16815260200190815260200160002080549050146104c7576000803373ffffffffffffffffffffffffffffffffffffffff1673ffffffffffffffffffffffffffffffffffffffff168152602001908152602001600020805480602002602001604051908101604052809291908181526020016000905b828210156104bc57838290600052602060002090600602016040518060c001604052908160008201805461015190611075565b80601f016020809104026020016040519081016040528092919081815260200182805461017d90611075565b80156101ca5780601f1061019f576101008083540402835291602001916101ca565b820191906000526020600020905b8154815290600101906020018083116101ad57829003601f168201915b505050505081526020016001820180546101e390611075565b80601f016020809104026020016040519081016040528092919081815260200182805461020f90611075565b801561025c5780601f106102315761010080835404028352916020019161025c565b820191906000526020600020905b81548152906001019060200180831161023f57829003601f168201915b5050505050815260200160028201805461027590611075565b80601f01602080910402602001604051908101604052809291908181526020018280546102a190611075565b80156102ee5780601f106102c3576101008083540402835291602001916102ee565b820191906000526020600020905b8154815290600101906020018083116102d157829003601f168201915b5050505050815260200160038201805461030790611075565b80601f016020809104026020016040519081016040528092919081815260200182805461033390611075565b80156103805780601f1061035557610100808354040283529160200191610380565b820191906000526020600020905b81548152906001019060200180831161036357829003601f168201915b5050505050815260200160048201805461039990611075565b80601f01602080910402602001604051908101604052809291908181526020018280546103c590611075565b80156104125780601f106103e757610100808354040283529160200191610412565b820191906000526020600020905b8154815290600101906020018083116103f557829003601f168201915b5050505050815260200160058201805461042b90611075565b80601f016020809104026020016040519081016040528092919081815260200182805461045790611075565b80156104a45780601f10610479576101008083540402835291602001916104a4565b820191906000526020600020905b81548152906001019060200180831161048757829003601f168201915b5050505050815250508152602001906001019061011e565b50505050905061051f565b600067ffffffffffffffff8111156104e2576104e1610d7b565b5b60405190808252806020026020018201604052801561051b57816020015b610508610b0c565b8152602001906001900390816105005790505b5090505b90565b61052f8160000151610660565b1561056f576040517f08c379a000000000000000000000000000000000000000000000000000000000815260040161056690611129565b60405180910390fd5b6000803373ffffffffffffffffffffffffffffffffffffffff1673ffffffffffffffffffffffffffffffffffffffff16815260200190815260200160002081908060018154018082558091505060019003906000526020600020906006020160009091909190915060008201518160000190816105ec91906112ff565b50602082015181600101908161060291906112ff565b50604082015181600201908161061891906112ff565b50606082015181600301908161062e91906112ff565b50608082015181600401908161064491906112ff565b5060a082015181600501908161065a91906112ff565b50505050565b6000806000803373ffffffffffffffffffffffffffffffffffffffff1673ffffffffffffffffffffffffffffffffffffffff168152602001908152602001600020805480602002602001604051908101604052809291908181526020016000905b82821015610a5f57838290600052602060002090600602016040518060c00160405290816000820180546106f490611075565b80601f016020809104026020016040519081016040528092919081815260200182805461072090611075565b801561076d5780601f106107425761010080835404028352916020019161076d565b820191906000526020600020905b81548152906001019060200180831161075057829003601f168201915b5050505050815260200160018201805461078690611075565b80601f01602080910402602001604051908101604052809291908181526020018280546107b290611075565b80156107ff5780601f106107d4576101008083540402835291602001916107ff565b820191906000526020600020905b8154815290600101906020018083116107e257829003601f168201915b5050505050815260200160028201805461081890611075565b80601f016020809104026020016040519081016040528092919081815260200182805461084490611075565b80156108915780601f1061086657610100808354040283529160200191610891565b820191906000526020600020905b81548152906001019060200180831161087457829003601f168201915b505050505081526020016003820180546108aa90611075565b80601f01602080910402602001604051908101604052809291908181526020018280546108d690611075565b80156109235780601f106108f857610100808354040283529160200191610923565b820191906000526020600020905b81548152906001019060200180831161090657829003601f168201915b5050505050815260200160048201805461093c90611075565b80601f016020809104026020016040519081016040528092919081815260200182805461096890611075565b80156109b55780601f1061098a576101008083540402835291602001916109b5565b820191906000526020600020905b81548152906001019060200180831161099857829003601f168201915b505050505081526020016005820180546109ce90611075565b80601f01602080910402602001604051908101604052809291908181526020018280546109fa90611075565b8015610a475780601f10610a1c57610100808354040283529160200191610a47565b820191906000526020600020905b815481529060010190602001808311610a2a57829003601f168201915b505050505081525050815260200190600101906106c1565b50505050905060005b8151811015610b005783604051602001610a82919061140d565b60405160208183030381529060405280519060200120828281518110610aab57610aaa611424565b5b602002602001015160000151604051602001610ac7919061140d565b6040516020818303038152906040528051906020012003610aed57600192505050610b07565b8080610af890611482565b915050610a68565b5060009150505b919050565b6040518060c001604052806060815260200160608152602001606081526020016060815260200160608152602001606081525090565b600081519050919050565b600082825260208201905092915050565b6000819050602082019050919050565b600081519050919050565b600082825260208201905092915050565b60005b83811015610ba8578082015181840152602081019050610b8d565b60008484015250505050565b6000601f19601f8301169050919050565b6000610bd082610b6e565b610bda8185610b79565b9350610bea818560208601610b8a565b610bf381610bb4565b840191505092915050565b600060c0830160008301518482036000860152610c1b8282610bc5565b91505060208301518482036020860152610c358282610bc5565b91505060408301518482036040860152610c4f8282610bc5565b91505060608301518482036060860152610c698282610bc5565b91505060808301518482036080860152610c838282610bc5565b91505060a083015184820360a0860152610c9d8282610bc5565b9150508091505092915050565b6000610cb68383610bfe565b905092915050565b6000602082019050919050565b6000610cd682610b42565b610ce08185610b4d565b935083602082028501610cf285610b5e565b8060005b85811015610d2e5784840389528151610d0f8582610caa565b9450610d1a83610cbe565b925060208a01995050600181019050610cf6565b50829750879550505050505092915050565b60006020820190508181036000830152610d5a8184610ccb565b905092915050565b6000604051905090565b600080fd5b600080fd5b600080fd5b7f4e487b7100000000000000000000000000000000000000000000000000000000600052604160045260246000fd5b610db382610bb4565b810181811067ffffffffffffffff82111715610dd257610dd1610d7b565b5b80604052505050565b6000610de5610d62565b9050610df18282610daa565b919050565b600080fd5b600080fd5b600080fd5b600067ffffffffffffffff821115610e2057610e1f610d7b565b5b610e2982610bb4565b9050602081019050919050565b82818337600083830152505050565b6000610e58610e5384610e05565b610ddb565b905082815260208101848484011115610e7457610e73610e00565b5b610e7f848285610e36565b509392505050565b600082601f830112610e9c57610e9b610dfb565b5b8135610eac848260208601610e45565b91505092915050565b600060c08284031215610ecb57610eca610d76565b5b610ed560c0610ddb565b9050600082013567ffffffffffffffff811115610ef557610ef4610df6565b5b610f0184828501610e87565b600083015250602082013567ffffffffffffffff811115610f2557610f24610df6565b5b610f3184828501610e87565b602083015250604082013567ffffffffffffffff811115610f5557610f54610df6565b5b610f6184828501610e87565b604083015250606082013567ffffffffffffffff811115610f8557610f84610df6565b5b610f9184828501610e87565b606083015250608082013567ffffffffffffffff811115610fb557610fb4610df6565b5b610fc184828501610e87565b60808301525060a082013567ffffffffffffffff811115610fe557610fe4610df6565b5b610ff184828501610e87565b60a08301525092915050565b60006020828403121561101357611012610d6c565b5b600082013567ffffffffffffffff81111561103157611030610d71565b5b61103d84828501610eb5565b91505092915050565b7f4e487b7100000000000000000000000000000000000000000000000000000000600052602260045260246000fd5b6000600282049050600182168061108d57607f821691505b6020821081036110a05761109f611046565b5b50919050565b600082825260208201905092915050565b7f46696c652077697468207468652073616d65206e616d6520616c72656164792060008201527f6578697374732e00000000000000000000000000000000000000000000000000602082015250565b60006111136027836110a6565b915061111e826110b7565b604082019050919050565b6000602082019050818103600083015261114281611106565b9050919050565b60008190508160005260206000209050919050565b60006020601f8301049050919050565b600082821b905092915050565b6000600883026111ab7fffffffffffffffffffffffffffffffffffffffffffffffffffffffffffffffff8261116e565b6111b5868361116e565b95508019841693508086168417925050509392505050565b6000819050919050565b6000819050919050565b60006111fc6111f76111f2846111cd565b6111d7565b6111cd565b9050919050565b6000819050919050565b611216836111e1565b61122a61122282611203565b84845461117b565b825550505050565b600090565b61123f611232565b61124a81848461120d565b505050565b5b8181101561126e57611263600082611237565b600181019050611250565b5050565b601f8211156112b35761128481611149565b61128d8461115e565b8101602085101561129c578190505b6112b06112a88561115e565b83018261124f565b50505b505050565b600082821c905092915050565b60006112d6600019846008026112b8565b1980831691505092915050565b60006112ef83836112c5565b9150826002028217905092915050565b61130882610b6e565b67ffffffffffffffff81111561132157611320610d7b565b5b61132b8254611075565b611336828285611272565b600060209050601f8311600181146113695760008415611357578287015190505b61136185826112e3565b8655506113c9565b601f19841661137786611149565b60005b8281101561139f5784890151825560018201915060208501945060208101905061137a565b868310156113bc57848901516113b8601f8916826112c5565b8355505b6001600288020188555050505b505050505050565b600081905092915050565b60006113e782610b6e565b6113f181856113d1565b9350611401818560208601610b8a565b80840191505092915050565b600061141982846113dc565b915081905092915050565b7f4e487b7100000000000000000000000000000000000000000000000000000000600052603260045260246000fd5b7f4e487b7100000000000000000000000000000000000000000000000000000000600052601160045260246000fd5b600061148d826111cd565b91507fffffffffffffffffffffffffffffffffffffffffffffffffffffffffffffffff82036114bf576114be611453565b5b60018201905091905056fea26469706673582212200d34e45a9c3724c10bb187304d0ee2bd9fa49ce9875f642cf0ab9b827b1904e664736f6c63430008130033",
  "linkReferences": {},
  "deployedLinkReferences": {}
}