{
  "_format": "hh-sol-artifact-1",
  "contractName": "StoreFile",
  "sourceName": "contracts/StoreFile.sol",
  "abi": [
    {
      "anonymous": false,
      "inputs": [
        {
          "indexed": false,
          "internalType": "bool",
          "name": "success",
          "type": "bool"
        },
        {
          "indexed": false,
          "internalType": "string",
          "name": "message",
          "type": "string"
        }
      ],
      "name": "UploadFileResult",
      "type": "event"
    },
    {
      "inputs": [
        {
          "components": [
            {
              "internalType": "string",
              "name": "fileName",
              "type": "string"
            },
            {
              "internalType": "address",
              "name": "owner",
              "type": "address"
            },
            {
              "internalType": "string",
              "name": "ipfsCID",
              "type": "string"
            },
            {
              "internalType": "string",
              "name": "fileType",
              "type": "string"
            },
            {
              "internalType": "string",
              "name": "iv",
              "type": "string"
            }
          ],
          "internalType": "struct File",
          "name": "file",
          "type": "tuple"
        },
        {
          "components": [
            {
              "internalType": "address",
              "name": "account",
              "type": "address"
            },
            {
              "internalType": "string",
              "name": "name",
              "type": "string"
            },
            {
              "internalType": "string",
              "name": "publicKey",
              "type": "string"
            },
            {
              "internalType": "string",
              "name": "privateKey",
              "type": "string"
            }
          ],
          "internalType": "struct User",
          "name": "user",
          "type": "tuple"
        }
      ],
      "name": "fileExists",
      "outputs": [
        {
          "internalType": "string",
          "name": "",
          "type": "string"
        }
      ],
      "stateMutability": "view",
      "type": "function"
    },
    {
      "inputs": [
        {
          "components": [
            {
              "internalType": "address",
              "name": "account",
              "type": "address"
            },
            {
              "internalType": "string",
              "name": "name",
              "type": "string"
            },
            {
              "internalType": "string",
              "name": "publicKey",
              "type": "string"
            },
            {
              "internalType": "string",
              "name": "privateKey",
              "type": "string"
            }
          ],
          "internalType": "struct User",
          "name": "user",
          "type": "tuple"
        },
        {
          "components": [
            {
              "internalType": "string",
              "name": "fileName",
              "type": "string"
            },
            {
              "internalType": "address",
              "name": "owner",
              "type": "address"
            },
            {
              "internalType": "string",
              "name": "ipfsCID",
              "type": "string"
            },
            {
              "internalType": "string",
              "name": "fileType",
              "type": "string"
            },
            {
              "internalType": "string",
              "name": "iv",
              "type": "string"
            }
          ],
          "internalType": "struct File",
          "name": "file",
          "type": "tuple"
        }
      ],
      "name": "getEncSymmetricKeyFileUser",
      "outputs": [
        {
          "internalType": "string",
          "name": "",
          "type": "string"
        }
      ],
      "stateMutability": "view",
      "type": "function"
    },
    {
      "inputs": [
        {
          "internalType": "address",
          "name": "account",
          "type": "address"
        }
      ],
      "name": "getUserFiles",
      "outputs": [
        {
          "components": [
            {
              "internalType": "string",
              "name": "fileName",
              "type": "string"
            },
            {
              "internalType": "address",
              "name": "owner",
              "type": "address"
            },
            {
              "internalType": "string",
              "name": "ipfsCID",
              "type": "string"
            },
            {
              "internalType": "string",
              "name": "fileType",
              "type": "string"
            },
            {
              "internalType": "string",
              "name": "iv",
              "type": "string"
            }
          ],
          "internalType": "struct File[]",
          "name": "",
          "type": "tuple[]"
        }
      ],
      "stateMutability": "view",
      "type": "function"
    },
    {
      "inputs": [
        {
          "components": [
            {
              "internalType": "address",
              "name": "account",
              "type": "address"
            },
            {
              "internalType": "string",
              "name": "name",
              "type": "string"
            },
            {
              "internalType": "string",
              "name": "publicKey",
              "type": "string"
            },
            {
              "internalType": "string",
              "name": "privateKey",
              "type": "string"
            }
          ],
          "internalType": "struct User",
          "name": "user",
          "type": "tuple"
        },
        {
          "components": [
            {
              "internalType": "string",
              "name": "fileName",
              "type": "string"
            },
            {
              "internalType": "address",
              "name": "owner",
              "type": "address"
            },
            {
              "internalType": "string",
              "name": "ipfsCID",
              "type": "string"
            },
            {
              "internalType": "string",
              "name": "fileType",
              "type": "string"
            },
            {
              "internalType": "string",
              "name": "iv",
              "type": "string"
            }
          ],
          "internalType": "struct File",
          "name": "file",
          "type": "tuple"
        },
        {
          "internalType": "string",
          "name": "encSymmetricKey",
          "type": "string"
        }
      ],
      "name": "storeUserHasFile",
      "outputs": [],
      "stateMutability": "nonpayable",
      "type": "function"
    },
    {
      "inputs": [
        {
          "components": [
            {
              "internalType": "string",
              "name": "fileName",
              "type": "string"
            },
            {
              "internalType": "address",
              "name": "owner",
              "type": "address"
            },
            {
              "internalType": "string",
              "name": "ipfsCID",
              "type": "string"
            },
            {
              "internalType": "string",
              "name": "fileType",
              "type": "string"
            },
            {
              "internalType": "string",
              "name": "iv",
              "type": "string"
            }
          ],
          "internalType": "struct File",
          "name": "file",
          "type": "tuple"
        },
        {
          "internalType": "string",
          "name": "encSymmetricKey",
          "type": "string"
        },
        {
          "components": [
            {
              "internalType": "address",
              "name": "account",
              "type": "address"
            },
            {
              "internalType": "string",
              "name": "name",
              "type": "string"
            },
            {
              "internalType": "string",
              "name": "publicKey",
              "type": "string"
            },
            {
              "internalType": "string",
              "name": "privateKey",
              "type": "string"
            }
          ],
          "internalType": "struct User",
          "name": "user",
          "type": "tuple"
        }
      ],
      "name": "uploadFile",
      "outputs": [],
      "stateMutability": "nonpayable",
      "type": "function"
    }
  ],
  "bytecode": "0x608060405234801561001057600080fd5b50611ac4806100206000396000f3fe608060405234801561001057600080fd5b50600436106100575760003560e01c8063199e357f1461005c5780631fc3792214610078578063a4942001146100a8578063c041a425146100d8578063fb629ff114610108575b600080fd5b61007660048036038101906100719190611019565b610124565b005b610092600480360381019061008d91906110c0565b610208565b60405161009f91906112c8565b60405180910390f35b6100c260048036038101906100bd91906112ea565b6106f5565b6040516100cf91906113ac565b60405180910390f35b6100f260048036038101906100ed91906113ce565b6108e6565b6040516100ff91906113ac565b60405180910390f35b610122600480360381019061011d9190611446565b61099d565b005b60006040518060600160405280856000015173ffffffffffffffffffffffffffffffffffffffff16815260200184600001518152602001838152509050600181908060018154018082558091505060019003906000526020600020906003020160009091909190915060008201518160000160006101000a81548173ffffffffffffffffffffffffffffffffffffffff021916908373ffffffffffffffffffffffffffffffffffffffff16021790555060208201518160010190816101e99190611703565b5060408201518160020190816101ff9190611703565b50505050505050565b60606000808054905067ffffffffffffffff81111561022a57610229610cb9565b5b60405190808252806020026020018201604052801561026357816020015b610250610c4a565b8152602001906001900390816102485790505b5090506000805b6001805490508110156106e7578473ffffffffffffffffffffffffffffffffffffffff16600182815481106102a2576102a16117d5565b5b906000526020600020906003020160000160009054906101000a900473ffffffffffffffffffffffffffffffffffffffff1673ffffffffffffffffffffffffffffffffffffffff16036106d457600060018281548110610305576103046117d5565b5b906000526020600020906003020160010180546103219061151c565b80601f016020809104026020016040519081016040528092919081815260200182805461034d9061151c565b801561039a5780601f1061036f5761010080835404028352916020019161039a565b820191906000526020600020905b81548152906001019060200180831161037d57829003601f168201915b5050505050905060006106a2826000805480602002602001604051908101604052809291908181526020016000905b8282101561069957838290600052602060002090600502016040518060a00160405290816000820180546103fc9061151c565b80601f01602080910402602001604051908101604052809291908181526020018280546104289061151c565b80156104755780601f1061044a57610100808354040283529160200191610475565b820191906000526020600020905b81548152906001019060200180831161045857829003601f168201915b505050505081526020016001820160009054906101000a900473ffffffffffffffffffffffffffffffffffffffff1673ffffffffffffffffffffffffffffffffffffffff1673ffffffffffffffffffffffffffffffffffffffff1681526020016002820180546104e49061151c565b80601f01602080910402602001604051908101604052809291908181526020018280546105109061151c565b801561055d5780601f106105325761010080835404028352916020019161055d565b820191906000526020600020905b81548152906001019060200180831161054057829003601f168201915b505050505081526020016003820180546105769061151c565b80601f01602080910402602001604051908101604052809291908181526020018280546105a29061151c565b80156105ef5780601f106105c4576101008083540402835291602001916105ef565b820191906000526020600020905b8154815290600101906020018083116105d257829003601f168201915b505050505081526020016004820180546106089061151c565b80601f01602080910402602001604051908101604052809291908181526020018280546106349061151c565b80156106815780601f1061065657610100808354040283529160200191610681565b820191906000526020600020905b81548152906001019060200180831161066457829003601f168201915b505050505081525050815260200190600101906103c9565b50505050610b0b565b9050808585815181106106b8576106b76117d5565b5b602002602001018190525083806106ce90611833565b94505050505b80806106df90611833565b91505061026a565b508082528192505050919050565b606060005b6001805490508110156108cc57836000015173ffffffffffffffffffffffffffffffffffffffff1660018281548110610736576107356117d5565b5b906000526020600020906003020160000160009054906101000a900473ffffffffffffffffffffffffffffffffffffffff1673ffffffffffffffffffffffffffffffffffffffff161480156107fe5750826000015160405160200161079b91906118b7565b60405160208183030381529060405280519060200120600182815481106107c5576107c46117d5565b5b90600052602060002090600302016001016040516020016107e69190611951565b60405160208183030381529060405280519060200120145b156108b95760018181548110610817576108166117d5565b5b906000526020600020906003020160020180546108339061151c565b80601f016020809104026020016040519081016040528092919081815260200182805461085f9061151c565b80156108ac5780601f10610881576101008083540402835291602001916108ac565b820191906000526020600020905b81548152906001019060200180831161088f57829003601f168201915b50505050509150506108e0565b80806108c490611833565b9150506106fa565b506040518060200160405280600081525090505b92915050565b606060006108f78360000151610208565b90506000610909856000015183610b0b565b905060405160200161091a9061198e565b60405160208183030381529060405280519060200120816000015160405160200161094591906118b7565b604051602081830303815290604052805190602001201461098257604051806060016040528060268152602001611a696026913992505050610997565b60405180602001604052806000815250925050505b92915050565b60006109a984836108e6565b90506000815103610aca57600084908060018154018082558091505060019003906000526020600020906005020160009091909190915060008201518160000190816109f59190611703565b5060208201518160010160006101000a81548173ffffffffffffffffffffffffffffffffffffffff021916908373ffffffffffffffffffffffffffffffffffffffff1602179055506040820151816002019081610a529190611703565b506060820151816003019081610a689190611703565b506080820151816004019081610a7e9190611703565b505050610a8c828585610124565b7f6c863839cfd32d0f6385600bd22dfa35736ff518a92acb2bc960cacad49fb9bf6001604051610abc9190611a0a565b60405180910390a150610b06565b7f6c863839cfd32d0f6385600bd22dfa35736ff518a92acb2bc960cacad49fb9bf600082604051610afc929190611a38565b60405180910390a1505b505050565b610b13610c4a565b60005b8251811015610bc65783604051602001610b3091906118b7565b60405160208183030381529060405280519060200120838281518110610b5957610b586117d5565b5b602002602001015160000151604051602001610b7591906118b7565b6040516020818303038152906040528051906020012003610bb357828181518110610ba357610ba26117d5565b5b6020026020010151915050610c44565b8080610bbe90611833565b915050610b16565b506040518060a00160405280604051806020016040528060008152508152602001600073ffffffffffffffffffffffffffffffffffffffff1681526020016040518060200160405280600081525081526020016040518060200160405280600081525081526020016040518060200160405280600081525081525090505b92915050565b6040518060a0016040528060608152602001600073ffffffffffffffffffffffffffffffffffffffff1681526020016060815260200160608152602001606081525090565b6000604051905090565b600080fd5b600080fd5b600080fd5b6000601f19601f8301169050919050565b7f4e487b7100000000000000000000000000000000000000000000000000000000600052604160045260246000fd5b610cf182610ca8565b810181811067ffffffffffffffff82111715610d1057610d0f610cb9565b5b80604052505050565b6000610d23610c8f565b9050610d2f8282610ce8565b919050565b600080fd5b600073ffffffffffffffffffffffffffffffffffffffff82169050919050565b6000610d6482610d39565b9050919050565b610d7481610d59565b8114610d7f57600080fd5b50565b600081359050610d9181610d6b565b92915050565b600080fd5b600080fd5b600067ffffffffffffffff821115610dbc57610dbb610cb9565b5b610dc582610ca8565b9050602081019050919050565b82818337600083830152505050565b6000610df4610def84610da1565b610d19565b905082815260208101848484011115610e1057610e0f610d9c565b5b610e1b848285610dd2565b509392505050565b600082601f830112610e3857610e37610d97565b5b8135610e48848260208601610de1565b91505092915050565b600060808284031215610e6757610e66610ca3565b5b610e716080610d19565b90506000610e8184828501610d82565b600083015250602082013567ffffffffffffffff811115610ea557610ea4610d34565b5b610eb184828501610e23565b602083015250604082013567ffffffffffffffff811115610ed557610ed4610d34565b5b610ee184828501610e23565b604083015250606082013567ffffffffffffffff811115610f0557610f04610d34565b5b610f1184828501610e23565b60608301525092915050565b600060a08284031215610f3357610f32610ca3565b5b610f3d60a0610d19565b9050600082013567ffffffffffffffff811115610f5d57610f5c610d34565b5b610f6984828501610e23565b6000830152506020610f7d84828501610d82565b602083015250604082013567ffffffffffffffff811115610fa157610fa0610d34565b5b610fad84828501610e23565b604083015250606082013567ffffffffffffffff811115610fd157610fd0610d34565b5b610fdd84828501610e23565b606083015250608082013567ffffffffffffffff81111561100157611000610d34565b5b61100d84828501610e23565b60808301525092915050565b60008060006060848603121561103257611031610c99565b5b600084013567ffffffffffffffff8111156110505761104f610c9e565b5b61105c86828701610e51565b935050602084013567ffffffffffffffff81111561107d5761107c610c9e565b5b61108986828701610f1d565b925050604084013567ffffffffffffffff8111156110aa576110a9610c9e565b5b6110b686828701610e23565b9150509250925092565b6000602082840312156110d6576110d5610c99565b5b60006110e484828501610d82565b91505092915050565b600081519050919050565b600082825260208201905092915050565b6000819050602082019050919050565b600081519050919050565b600082825260208201905092915050565b60005b83811015611153578082015181840152602081019050611138565b60008484015250505050565b600061116a82611119565b6111748185611124565b9350611184818560208601611135565b61118d81610ca8565b840191505092915050565b6111a181610d59565b82525050565b600060a08301600083015184820360008601526111c4828261115f565b91505060208301516111d96020860182611198565b50604083015184820360408601526111f1828261115f565b9150506060830151848203606086015261120b828261115f565b91505060808301518482036080860152611225828261115f565b9150508091505092915050565b600061123e83836111a7565b905092915050565b6000602082019050919050565b600061125e826110ed565b61126881856110f8565b93508360208202850161127a85611109565b8060005b858110156112b657848403895281516112978582611232565b94506112a283611246565b925060208a0199505060018101905061127e565b50829750879550505050505092915050565b600060208201905081810360008301526112e28184611253565b905092915050565b6000806040838503121561130157611300610c99565b5b600083013567ffffffffffffffff81111561131f5761131e610c9e565b5b61132b85828601610e51565b925050602083013567ffffffffffffffff81111561134c5761134b610c9e565b5b61135885828601610f1d565b9150509250929050565b600082825260208201905092915050565b600061137e82611119565b6113888185611362565b9350611398818560208601611135565b6113a181610ca8565b840191505092915050565b600060208201905081810360008301526113c68184611373565b905092915050565b600080604083850312156113e5576113e4610c99565b5b600083013567ffffffffffffffff81111561140357611402610c9e565b5b61140f85828601610f1d565b925050602083013567ffffffffffffffff8111156114305761142f610c9e565b5b61143c85828601610e51565b9150509250929050565b60008060006060848603121561145f5761145e610c99565b5b600084013567ffffffffffffffff81111561147d5761147c610c9e565b5b61148986828701610f1d565b935050602084013567ffffffffffffffff8111156114aa576114a9610c9e565b5b6114b686828701610e23565b925050604084013567ffffffffffffffff8111156114d7576114d6610c9e565b5b6114e386828701610e51565b9150509250925092565b7f4e487b7100000000000000000000000000000000000000000000000000000000600052602260045260246000fd5b6000600282049050600182168061153457607f821691505b602082108103611547576115466114ed565b5b50919050565b60008190508160005260206000209050919050565b60006020601f8301049050919050565b600082821b905092915050565b6000600883026115af7fffffffffffffffffffffffffffffffffffffffffffffffffffffffffffffffff82611572565b6115b98683611572565b95508019841693508086168417925050509392505050565b6000819050919050565b6000819050919050565b60006116006115fb6115f6846115d1565b6115db565b6115d1565b9050919050565b6000819050919050565b61161a836115e5565b61162e61162682611607565b84845461157f565b825550505050565b600090565b611643611636565b61164e818484611611565b505050565b5b818110156116725761166760008261163b565b600181019050611654565b5050565b601f8211156116b7576116888161154d565b61169184611562565b810160208510156116a0578190505b6116b46116ac85611562565b830182611653565b50505b505050565b600082821c905092915050565b60006116da600019846008026116bc565b1980831691505092915050565b60006116f383836116c9565b9150826002028217905092915050565b61170c82611119565b67ffffffffffffffff81111561172557611724610cb9565b5b61172f825461151c565b61173a828285611676565b600060209050601f83116001811461176d576000841561175b578287015190505b61176585826116e7565b8655506117cd565b601f19841661177b8661154d565b60005b828110156117a35784890151825560018201915060208501945060208101905061177e565b868310156117c057848901516117bc601f8916826116c9565b8355505b6001600288020188555050505b505050505050565b7f4e487b7100000000000000000000000000000000000000000000000000000000600052603260045260246000fd5b7f4e487b7100000000000000000000000000000000000000000000000000000000600052601160045260246000fd5b600061183e826115d1565b91507fffffffffffffffffffffffffffffffffffffffffffffffffffffffffffffffff82036118705761186f611804565b5b600182019050919050565b600081905092915050565b600061189182611119565b61189b818561187b565b93506118ab818560208601611135565b80840191505092915050565b60006118c38284611886565b915081905092915050565b600081546118db8161151c565b6118e5818661187b565b94506001821660008114611900576001811461191557611948565b60ff1983168652811515820286019350611948565b61191e8561154d565b60005b8381101561194057815481890152600182019150602081019050611921565b838801955050505b50505092915050565b600061195d82846118ce565b915081905092915050565b50565b600061197860008361187b565b915061198382611968565b600082019050919050565b60006119998261196b565b9150819050919050565b60008115159050919050565b6119b8816119a3565b82525050565b7f46696c652075706c6f61646564207375636365737366756c6c792e0000000000600082015250565b60006119f4601b83611362565b91506119ff826119be565b602082019050919050565b6000604082019050611a1f60008301846119af565b8181036020830152611a30816119e7565b905092915050565b6000604082019050611a4d60008301856119af565b8181036020830152611a5f8184611373565b9050939250505056fe5573657220616c7265616479206173736f6369617465642077697468207468652066696c652ea2646970667358221220fb1fdb01c67d097d67a4ae0f8b2e1fca01628b06fbe5dde002393619c7e3d49f64736f6c63430008130033",
  "linkReferences": {},
  "deployedLinkReferences": {}
}