{
  "_format": "hh-sol-artifact-1",
  "contractName": "StoreFile",
  "sourceName": "contracts/StoreFile.sol",
  "abi": [
    {
      "anonymous": false,
      "inputs": [
        {
          "indexed": false,
          "internalType": "bool",
          "name": "success",
          "type": "bool"
        },
        {
          "indexed": false,
          "internalType": "string",
          "name": "message",
          "type": "string"
        }
      ],
      "name": "UploadFileResult",
      "type": "event"
    },
    {
      "inputs": [
        {
          "components": [
            {
              "internalType": "string",
              "name": "fileName",
              "type": "string"
            },
            {
              "internalType": "address",
              "name": "owner",
              "type": "address"
            },
            {
              "internalType": "string",
              "name": "ipfsCID",
              "type": "string"
            },
            {
              "internalType": "string",
              "name": "fileType",
              "type": "string"
            },
            {
              "internalType": "string",
              "name": "iv",
              "type": "string"
            }
          ],
          "internalType": "struct File",
          "name": "file",
          "type": "tuple"
        },
        {
          "components": [
            {
              "internalType": "address",
              "name": "account",
              "type": "address"
            },
            {
              "internalType": "string",
              "name": "name",
              "type": "string"
            },
            {
              "internalType": "string",
              "name": "publicKey",
              "type": "string"
            },
            {
              "internalType": "string",
              "name": "privateKey",
              "type": "string"
            }
          ],
          "internalType": "struct User",
          "name": "user",
          "type": "tuple"
        }
      ],
      "name": "fileExists",
      "outputs": [
        {
          "internalType": "string",
          "name": "",
          "type": "string"
        }
      ],
      "stateMutability": "view",
      "type": "function"
    },
    {
      "inputs": [
        {
          "components": [
            {
              "internalType": "address",
              "name": "account",
              "type": "address"
            },
            {
              "internalType": "string",
              "name": "name",
              "type": "string"
            },
            {
              "internalType": "string",
              "name": "publicKey",
              "type": "string"
            },
            {
              "internalType": "string",
              "name": "privateKey",
              "type": "string"
            }
          ],
          "internalType": "struct User",
          "name": "user",
          "type": "tuple"
        },
        {
          "components": [
            {
              "internalType": "string",
              "name": "fileName",
              "type": "string"
            },
            {
              "internalType": "address",
              "name": "owner",
              "type": "address"
            },
            {
              "internalType": "string",
              "name": "ipfsCID",
              "type": "string"
            },
            {
              "internalType": "string",
              "name": "fileType",
              "type": "string"
            },
            {
              "internalType": "string",
              "name": "iv",
              "type": "string"
            }
          ],
          "internalType": "struct File",
          "name": "file",
          "type": "tuple"
        }
      ],
      "name": "getEncSymmetricKeyFileUser",
      "outputs": [
        {
          "internalType": "string",
          "name": "",
          "type": "string"
        }
      ],
      "stateMutability": "view",
      "type": "function"
    },
    {
      "inputs": [
        {
          "internalType": "address",
          "name": "account",
          "type": "address"
        }
      ],
      "name": "getUserFiles",
      "outputs": [
        {
          "components": [
            {
              "internalType": "string",
              "name": "fileName",
              "type": "string"
            },
            {
              "internalType": "address",
              "name": "owner",
              "type": "address"
            },
            {
              "internalType": "string",
              "name": "ipfsCID",
              "type": "string"
            },
            {
              "internalType": "string",
              "name": "fileType",
              "type": "string"
            },
            {
              "internalType": "string",
              "name": "iv",
              "type": "string"
            }
          ],
          "internalType": "struct File[]",
          "name": "",
          "type": "tuple[]"
        }
      ],
      "stateMutability": "view",
      "type": "function"
    },
    {
      "inputs": [
        {
          "components": [
            {
              "internalType": "string",
              "name": "fileName",
              "type": "string"
            },
            {
              "internalType": "address",
              "name": "owner",
              "type": "address"
            },
            {
              "internalType": "string",
              "name": "ipfsCID",
              "type": "string"
            },
            {
              "internalType": "string",
              "name": "fileType",
              "type": "string"
            },
            {
              "internalType": "string",
              "name": "iv",
              "type": "string"
            }
          ],
          "internalType": "struct File",
          "name": "file",
          "type": "tuple"
        },
        {
          "internalType": "string",
          "name": "encSymmetricKey",
          "type": "string"
        },
        {
          "components": [
            {
              "internalType": "address",
              "name": "account",
              "type": "address"
            },
            {
              "internalType": "string",
              "name": "name",
              "type": "string"
            },
            {
              "internalType": "string",
              "name": "publicKey",
              "type": "string"
            },
            {
              "internalType": "string",
              "name": "privateKey",
              "type": "string"
            }
          ],
          "internalType": "struct User",
          "name": "user",
          "type": "tuple"
        }
      ],
      "name": "uploadFile",
      "outputs": [],
      "stateMutability": "nonpayable",
      "type": "function"
    }
  ],
  "bytecode": "0x608060405234801561001057600080fd5b506119dd806100206000396000f3fe608060405234801561001057600080fd5b506004361061004c5760003560e01c80631fc3792214610051578063a494200114610081578063c041a425146100b1578063fb629ff1146100e1575b600080fd5b61006b60048036038101906100669190610ce7565b6100fd565b6040516100789190610f00565b60405180910390f35b61009b60048036038101906100969190611229565b6105ea565b6040516100a891906112eb565b60405180910390f35b6100cb60048036038101906100c6919061130d565b6107db565b6040516100d891906112eb565b60405180910390f35b6100fb60048036038101906100f69190611385565b6108af565b005b60606000808054905067ffffffffffffffff81111561011f5761011e610f27565b5b60405190808252806020026020018201604052801561015857816020015b610145610c30565b81526020019060019003908161013d5790505b5090506000805b6001805490508110156105dc578473ffffffffffffffffffffffffffffffffffffffff16600182815481106101975761019661142c565b5b906000526020600020906003020160000160009054906101000a900473ffffffffffffffffffffffffffffffffffffffff1673ffffffffffffffffffffffffffffffffffffffff16036105c9576000600182815481106101fa576101f961142c565b5b906000526020600020906003020160010180546102169061148a565b80601f01602080910402602001604051908101604052809291908181526020018280546102429061148a565b801561028f5780601f106102645761010080835404028352916020019161028f565b820191906000526020600020905b81548152906001019060200180831161027257829003601f168201915b505050505090506000610597826000805480602002602001604051908101604052809291908181526020016000905b8282101561058e57838290600052602060002090600502016040518060a00160405290816000820180546102f19061148a565b80601f016020809104026020016040519081016040528092919081815260200182805461031d9061148a565b801561036a5780601f1061033f5761010080835404028352916020019161036a565b820191906000526020600020905b81548152906001019060200180831161034d57829003601f168201915b505050505081526020016001820160009054906101000a900473ffffffffffffffffffffffffffffffffffffffff1673ffffffffffffffffffffffffffffffffffffffff1673ffffffffffffffffffffffffffffffffffffffff1681526020016002820180546103d99061148a565b80601f01602080910402602001604051908101604052809291908181526020018280546104059061148a565b80156104525780601f1061042757610100808354040283529160200191610452565b820191906000526020600020905b81548152906001019060200180831161043557829003601f168201915b5050505050815260200160038201805461046b9061148a565b80601f01602080910402602001604051908101604052809291908181526020018280546104979061148a565b80156104e45780601f106104b9576101008083540402835291602001916104e4565b820191906000526020600020905b8154815290600101906020018083116104c757829003601f168201915b505050505081526020016004820180546104fd9061148a565b80601f01602080910402602001604051908101604052809291908181526020018280546105299061148a565b80156105765780601f1061054b57610100808354040283529160200191610576565b820191906000526020600020905b81548152906001019060200180831161055957829003601f168201915b505050505081525050815260200190600101906102be565b50505050610af1565b9050808585815181106105ad576105ac61142c565b5b602002602001018190525083806105c3906114f4565b94505050505b80806105d4906114f4565b91505061015f565b508082528192505050919050565b606060005b6001805490508110156107c157836000015173ffffffffffffffffffffffffffffffffffffffff166001828154811061062b5761062a61142c565b5b906000526020600020906003020160000160009054906101000a900473ffffffffffffffffffffffffffffffffffffffff1673ffffffffffffffffffffffffffffffffffffffff161480156106f3575082600001516040516020016106909190611578565b60405160208183030381529060405280519060200120600182815481106106ba576106b961142c565b5b90600052602060002090600302016001016040516020016106db9190611627565b60405160208183030381529060405280519060200120145b156107ae576001818154811061070c5761070b61142c565b5b906000526020600020906003020160020180546107289061148a565b80601f01602080910402602001604051908101604052809291908181526020018280546107549061148a565b80156107a15780601f10610776576101008083540402835291602001916107a1565b820191906000526020600020905b81548152906001019060200180831161078457829003601f168201915b50505050509150506107d5565b80806107b9906114f4565b9150506105ef565b506040518060200160405280600081525090505b92915050565b606060006107ec83600001516100fd565b905060006107fe856000015183610af1565b905060405160200161080f90611664565b60405160208183030381529060405280519060200120816000015160405160200161083a9190611578565b6040516020818303038152906040528051906020012014610894576040518060400160405280601f81526020017f46696c652068617320746f2068617665206120756e69717565206e616d652e00815250925050506108a9565b60405180602001604052806000815250925050505b92915050565b60006108bb84836107db565b90506000815103610ab057600084908060018154018082558091505060019003906000526020600020906005020160009091909190915060008201518160000190816109079190611810565b5060208201518160010160006101000a81548173ffffffffffffffffffffffffffffffffffffffff021916908373ffffffffffffffffffffffffffffffffffffffff16021790555060408201518160020190816109649190611810565b50606082015181600301908161097a9190611810565b5060808201518160040190816109909190611810565b50505060006040518060600160405280846000015173ffffffffffffffffffffffffffffffffffffffff16815260200186600001518152602001858152509050600181908060018154018082558091505060019003906000526020600020906003020160009091909190915060008201518160000160006101000a81548173ffffffffffffffffffffffffffffffffffffffff021916908373ffffffffffffffffffffffffffffffffffffffff1602179055506020820151816001019081610a589190611810565b506040820151816002019081610a6e9190611810565b5050507f6c863839cfd32d0f6385600bd22dfa35736ff518a92acb2bc960cacad49fb9bf6001604051610aa19190611949565b60405180910390a15050610aec565b7f6c863839cfd32d0f6385600bd22dfa35736ff518a92acb2bc960cacad49fb9bf600082604051610ae2929190611977565b60405180910390a1505b505050565b610af9610c30565b60005b8251811015610bac5783604051602001610b169190611578565b60405160208183030381529060405280519060200120838281518110610b3f57610b3e61142c565b5b602002602001015160000151604051602001610b5b9190611578565b6040516020818303038152906040528051906020012003610b9957828181518110610b8957610b8861142c565b5b6020026020010151915050610c2a565b8080610ba4906114f4565b915050610afc565b506040518060a00160405280604051806020016040528060008152508152602001600073ffffffffffffffffffffffffffffffffffffffff1681526020016040518060200160405280600081525081526020016040518060200160405280600081525081526020016040518060200160405280600081525081525090505b92915050565b6040518060a0016040528060608152602001600073ffffffffffffffffffffffffffffffffffffffff1681526020016060815260200160608152602001606081525090565b6000604051905090565b600080fd5b600080fd5b600073ffffffffffffffffffffffffffffffffffffffff82169050919050565b6000610cb482610c89565b9050919050565b610cc481610ca9565b8114610ccf57600080fd5b50565b600081359050610ce181610cbb565b92915050565b600060208284031215610cfd57610cfc610c7f565b5b6000610d0b84828501610cd2565b91505092915050565b600081519050919050565b600082825260208201905092915050565b6000819050602082019050919050565b600081519050919050565b600082825260208201905092915050565b60005b83811015610d7a578082015181840152602081019050610d5f565b60008484015250505050565b6000601f19601f8301169050919050565b6000610da282610d40565b610dac8185610d4b565b9350610dbc818560208601610d5c565b610dc581610d86565b840191505092915050565b610dd981610ca9565b82525050565b600060a0830160008301518482036000860152610dfc8282610d97565b9150506020830151610e116020860182610dd0565b5060408301518482036040860152610e298282610d97565b91505060608301518482036060860152610e438282610d97565b91505060808301518482036080860152610e5d8282610d97565b9150508091505092915050565b6000610e768383610ddf565b905092915050565b6000602082019050919050565b6000610e9682610d14565b610ea08185610d1f565b935083602082028501610eb285610d30565b8060005b85811015610eee5784840389528151610ecf8582610e6a565b9450610eda83610e7e565b925060208a01995050600181019050610eb6565b50829750879550505050505092915050565b60006020820190508181036000830152610f1a8184610e8b565b905092915050565b600080fd5b7f4e487b7100000000000000000000000000000000000000000000000000000000600052604160045260246000fd5b610f5f82610d86565b810181811067ffffffffffffffff82111715610f7e57610f7d610f27565b5b80604052505050565b6000610f91610c75565b9050610f9d8282610f56565b919050565b600080fd5b600080fd5b600080fd5b600067ffffffffffffffff821115610fcc57610fcb610f27565b5b610fd582610d86565b9050602081019050919050565b82818337600083830152505050565b6000611004610fff84610fb1565b610f87565b9050828152602081018484840111156110205761101f610fac565b5b61102b848285610fe2565b509392505050565b600082601f83011261104857611047610fa7565b5b8135611058848260208601610ff1565b91505092915050565b60006080828403121561107757611076610f22565b5b6110816080610f87565b9050600061109184828501610cd2565b600083015250602082013567ffffffffffffffff8111156110b5576110b4610fa2565b5b6110c184828501611033565b602083015250604082013567ffffffffffffffff8111156110e5576110e4610fa2565b5b6110f184828501611033565b604083015250606082013567ffffffffffffffff81111561111557611114610fa2565b5b61112184828501611033565b60608301525092915050565b600060a0828403121561114357611142610f22565b5b61114d60a0610f87565b9050600082013567ffffffffffffffff81111561116d5761116c610fa2565b5b61117984828501611033565b600083015250602061118d84828501610cd2565b602083015250604082013567ffffffffffffffff8111156111b1576111b0610fa2565b5b6111bd84828501611033565b604083015250606082013567ffffffffffffffff8111156111e1576111e0610fa2565b5b6111ed84828501611033565b606083015250608082013567ffffffffffffffff81111561121157611210610fa2565b5b61121d84828501611033565b60808301525092915050565b600080604083850312156112405761123f610c7f565b5b600083013567ffffffffffffffff81111561125e5761125d610c84565b5b61126a85828601611061565b925050602083013567ffffffffffffffff81111561128b5761128a610c84565b5b6112978582860161112d565b9150509250929050565b600082825260208201905092915050565b60006112bd82610d40565b6112c781856112a1565b93506112d7818560208601610d5c565b6112e081610d86565b840191505092915050565b6000602082019050818103600083015261130581846112b2565b905092915050565b6000806040838503121561132457611323610c7f565b5b600083013567ffffffffffffffff81111561134257611341610c84565b5b61134e8582860161112d565b925050602083013567ffffffffffffffff81111561136f5761136e610c84565b5b61137b85828601611061565b9150509250929050565b60008060006060848603121561139e5761139d610c7f565b5b600084013567ffffffffffffffff8111156113bc576113bb610c84565b5b6113c88682870161112d565b935050602084013567ffffffffffffffff8111156113e9576113e8610c84565b5b6113f586828701611033565b925050604084013567ffffffffffffffff81111561141657611415610c84565b5b61142286828701611061565b9150509250925092565b7f4e487b7100000000000000000000000000000000000000000000000000000000600052603260045260246000fd5b7f4e487b7100000000000000000000000000000000000000000000000000000000600052602260045260246000fd5b600060028204905060018216806114a257607f821691505b6020821081036114b5576114b461145b565b5b50919050565b7f4e487b7100000000000000000000000000000000000000000000000000000000600052601160045260246000fd5b6000819050919050565b60006114ff826114ea565b91507fffffffffffffffffffffffffffffffffffffffffffffffffffffffffffffffff8203611531576115306114bb565b5b600182019050919050565b600081905092915050565b600061155282610d40565b61155c818561153c565b935061156c818560208601610d5c565b80840191505092915050565b60006115848284611547565b915081905092915050565b60008190508160005260206000209050919050565b600081546115b18161148a565b6115bb818661153c565b945060018216600081146115d657600181146115eb5761161e565b60ff198316865281151582028601935061161e565b6115f48561158f565b60005b83811015611616578154818901526001820191506020810190506115f7565b838801955050505b50505092915050565b600061163382846115a4565b915081905092915050565b50565b600061164e60008361153c565b91506116598261163e565b600082019050919050565b600061166f82611641565b9150819050919050565b60006020601f8301049050919050565b600082821b905092915050565b6000600883026116c67fffffffffffffffffffffffffffffffffffffffffffffffffffffffffffffffff82611689565b6116d08683611689565b95508019841693508086168417925050509392505050565b6000819050919050565b600061170d611708611703846114ea565b6116e8565b6114ea565b9050919050565b6000819050919050565b611727836116f2565b61173b61173382611714565b848454611696565b825550505050565b600090565b611750611743565b61175b81848461171e565b505050565b5b8181101561177f57611774600082611748565b600181019050611761565b5050565b601f8211156117c4576117958161158f565b61179e84611679565b810160208510156117ad578190505b6117c16117b985611679565b830182611760565b50505b505050565b600082821c905092915050565b60006117e7600019846008026117c9565b1980831691505092915050565b600061180083836117d6565b9150826002028217905092915050565b61181982610d40565b67ffffffffffffffff81111561183257611831610f27565b5b61183c825461148a565b611847828285611783565b600060209050601f83116001811461187a5760008415611868578287015190505b61187285826117f4565b8655506118da565b601f1984166118888661158f565b60005b828110156118b05784890151825560018201915060208501945060208101905061188b565b868310156118cd57848901516118c9601f8916826117d6565b8355505b6001600288020188555050505b505050505050565b60008115159050919050565b6118f7816118e2565b82525050565b7f46696c652075706c6f61646564207375636365737366756c6c792e0000000000600082015250565b6000611933601b836112a1565b915061193e826118fd565b602082019050919050565b600060408201905061195e60008301846118ee565b818103602083015261196f81611926565b905092915050565b600060408201905061198c60008301856118ee565b818103602083015261199e81846112b2565b9050939250505056fea2646970667358221220fe166d2e1271a2c5647fe06e6267829c20bd4b3c57793743f272a82ecfdc0e5c64736f6c63430008130033",
  "linkReferences": {},
  "deployedLinkReferences": {}
}