{"contracts/AccessControl.sol":{"AccessControl":{"abi":[{"inputs":[{"internalType":"address","name":"fileRegisterContract","type":"address"}],"stateMutability":"nonpayable","type":"constructor"},{"inputs":[{"internalType":"address","name":"userAccount","type":"address"},{"components":[{"internalType":"string","name":"ipfsCID","type":"string"},{"internalType":"string","name":"fileName","type":"string"},{"internalType":"address","name":"owner","type":"address"},{"internalType":"string","name":"fileType","type":"string"},{"internalType":"string","name":"iv","type":"string"}],"internalType":"struct FileRegister.File","name":"file","type":"tuple"},{"internalType":"string","name":"encSymmetricKey","type":"string"},{"internalType":"string[]","name":"permissions","type":"string[]"}],"name":"addUserHasFile","outputs":[],"stateMutability":"nonpayable","type":"function"},{"inputs":[{"components":[{"internalType":"address","name":"account","type":"address"},{"internalType":"string","name":"userName","type":"string"},{"internalType":"string","name":"publicKey","type":"string"},{"internalType":"string","name":"privateKey","type":"string"}],"internalType":"struct UserRegister.User","name":"user","type":"tuple"},{"components":[{"internalType":"string","name":"ipfsCID","type":"string"},{"internalType":"string","name":"fileName","type":"string"},{"internalType":"address","name":"owner","type":"address"},{"internalType":"string","name":"fileType","type":"string"},{"internalType":"string","name":"iv","type":"string"}],"internalType":"struct FileRegister.File","name":"file","type":"tuple"}],"name":"getEncSymmetricKeyFileUser","outputs":[{"components":[{"internalType":"bool","name":"success","type":"bool"},{"internalType":"string","name":"encSymmetricKey","type":"string"}],"internalType":"struct AccessControl.ResultActionString","name":"","type":"tuple"}],"stateMutability":"view","type":"function"},{"inputs":[{"internalType":"address","name":"userAccount","type":"address"},{"components":[{"internalType":"string","name":"ipfsCID","type":"string"},{"internalType":"string","name":"fileName","type":"string"},{"internalType":"address","name":"owner","type":"address"},{"internalType":"string","name":"fileType","type":"string"},{"internalType":"string","name":"iv","type":"string"}],"internalType":"struct FileRegister.File","name":"file","type":"tuple"}],"name":"getPermissionsOverFile","outputs":[{"components":[{"internalType":"bool","name":"success","type":"bool"},{"internalType":"string[]","name":"permissions","type":"string[]"}],"internalType":"struct AccessControl.ResultActionStringArray","name":"","type":"tuple"}],"stateMutability":"view","type":"function"},{"inputs":[{"internalType":"address","name":"account","type":"address"}],"name":"getUserFiles","outputs":[{"components":[{"internalType":"bool","name":"success","type":"bool"},{"components":[{"internalType":"string","name":"ipfsCID","type":"string"},{"internalType":"string","name":"fileName","type":"string"},{"internalType":"address","name":"owner","type":"address"},{"internalType":"string","name":"fileType","type":"string"},{"internalType":"string","name":"iv","type":"string"}],"internalType":"struct FileRegister.File[]","name":"files","type":"tuple[]"}],"internalType":"struct AccessControl.ResultAction","name":"","type":"tuple"}],"stateMutability":"view","type":"function"},{"inputs":[{"internalType":"address","name":"accountInput","type":"address"},{"internalType":"address","name":"accountList","type":"address"},{"internalType":"string","name":"ipfsCIDInput","type":"string"},{"internalType":"string","name":"ipfsCIDList","type":"string"}],"name":"isKeyEqual","outputs":[{"internalType":"bool","name":"","type":"bool"}],"stateMutability":"pure","type":"function"},{"inputs":[{"internalType":"address","name":"userAccount","type":"address"},{"components":[{"internalType":"string","name":"ipfsCID","type":"string"},{"internalType":"string","name":"fileName","type":"string"},{"internalType":"address","name":"owner","type":"address"},{"internalType":"string","name":"fileType","type":"string"},{"internalType":"string","name":"iv","type":"string"}],"internalType":"struct FileRegister.File","name":"file","type":"tuple"},{"internalType":"string","name":"encSymmetricKey","type":"string"},{"internalType":"string[]","name":"permissions","type":"string[]"}],"name":"shareFile","outputs":[],"stateMutability":"nonpayable","type":"function"},{"inputs":[{"internalType":"address","name":"userAccount","type":"address"},{"components":[{"internalType":"string","name":"ipfsCID","type":"string"},{"internalType":"string","name":"fileName","type":"string"},{"internalType":"address","name":"owner","type":"address"},{"internalType":"string","name":"fileType","type":"string"},{"internalType":"string","name":"iv","type":"string"}],"internalType":"struct FileRegister.File","name":"file","type":"tuple"},{"internalType":"string[]","name":"permissions","type":"string[]"}],"name":"updateUserFilePermissions","outputs":[],"stateMutability":"nonpayable","type":"function"},{"inputs":[{"internalType":"address","name":"userAccount","type":"address"},{"components":[{"internalType":"string","name":"ipfsCID","type":"string"},{"internalType":"string","name":"fileName","type":"string"},{"internalType":"address","name":"owner","type":"address"},{"internalType":"string","name":"fileType","type":"string"},{"internalType":"string","name":"iv","type":"string"}],"internalType":"struct FileRegister.File","name":"file","type":"tuple"},{"internalType":"string","name":"encSymmetricKey","type":"string"}],"name":"uploadFile","outputs":[],"stateMutability":"nonpayable","type":"function"},{"inputs":[{"internalType":"address","name":"userAccount","type":"address"},{"components":[{"internalType":"string","name":"ipfsCID","type":"string"},{"internalType":"string","name":"fileName","type":"string"},{"internalType":"address","name":"owner","type":"address"},{"internalType":"string","name":"fileType","type":"string"},{"internalType":"string","name":"iv","type":"string"}],"internalType":"struct FileRegister.File","name":"file","type":"tuple"}],"name":"userAssociatedWithFile","outputs":[{"internalType":"bool","name":"","type":"bool"}],"stateMutability":"view","type":"function"}],"evm":{"bytecode":{"linkReferences":{},"object":"60806040523480156200001157600080fd5b5060405162002658380380620026588339818101604052810190620000379190620000e9565b80600160006101000a81548173ffffffffffffffffffffffffffffffffffffffff021916908373ffffffffffffffffffffffffffffffffffffffff160217905550506200011b565b600080fd5b600073ffffffffffffffffffffffffffffffffffffffff82169050919050565b6000620000b18262000084565b9050919050565b620000c381620000a4565b8114620000cf57600080fd5b50565b600081519050620000e381620000b8565b92915050565b6000602082840312156200010257620001016200007f565b5b60006200011284828501620000d2565b91505092915050565b61252d806200012b6000396000f3fe608060405234801561001057600080fd5b50600436106100935760003560e01c80635d02eece116100665780635d02eece146101445780637b371f7514610174578063a2a0307d146101a4578063b509210c146101c0578063e886e6e3146101dc57610093565b80631c0c2891146100985780631fc37922146100c857806325b97d6c146100f85780635c99c71b14610114575b600080fd5b6100b260048036038101906100ad9190611479565b6101f8565b6040516100bf919061166e565b60405180910390f35b6100e260048036038101906100dd9190611690565b6104ae565b6040516100ef9190611856565b60405180910390f35b610112600480360381019061010d9190611878565b61078d565b005b61012e60048036038101906101299190611903565b61099a565b60405161013b91906119b1565b60405180910390f35b61015e60048036038101906101599190611a98565b610a2c565b60405161016b9190611b4d565b60405180910390f35b61018e60048036038101906101899190611479565b610c60565b60405161019b91906119b1565b60405180910390f35b6101be60048036038101906101b99190611c55565b610da5565b005b6101da60048036038101906101d59190611d10565b610dd3565b005b6101f660048036038101906101f19190611c55565b610f44565b005b610200611048565b60005b60008054905081101561043e57610312846000838154811061022857610227611d9b565b5b906000526020600020906004020160000160009054906101000a900473ffffffffffffffffffffffffffffffffffffffff1685600001516000858154811061027357610272611d9b565b5b9060005260206000209060040201600101805461028f90611df9565b80601f01602080910402602001604051908101604052809291908181526020018280546102bb90611df9565b80156103085780601f106102dd57610100808354040283529160200191610308565b820191906000526020600020905b8154815290600101906020018083116102eb57829003601f168201915b505050505061099a565b1561042b5760405180604001604052806001151581526020016000838154811061033f5761033e611d9b565b5b9060005260206000209060040201600301805480602002602001604051908101604052809291908181526020016000905b8282101561041c57838290600052602060002001805461038f90611df9565b80601f01602080910402602001604051908101604052809291908181526020018280546103bb90611df9565b80156104085780601f106103dd57610100808354040283529160200191610408565b820191906000526020600020905b8154815290600101906020018083116103eb57829003601f168201915b505050505081526020019060010190610370565b505050508152509150506104a8565b808061043690611e63565b915050610203565b506040518060400160405280600015158152602001600067ffffffffffffffff81111561046e5761046d611243565b5b6040519080825280602002602001820160405280156104a157816020015b606081526020019060019003908161048c5790505b5081525090505b92915050565b6104b6611064565b6000808054905067ffffffffffffffff8111156104d6576104d5611243565b5b60405190808252806020026020018201604052801561050f57816020015b6104fc611080565b8152602001906001900390816104f45790505b5090506000805b60008054905081101561073e578473ffffffffffffffffffffffffffffffffffffffff166000828154811061054e5761054d611d9b565b5b906000526020600020906004020160000160009054906101000a900473ffffffffffffffffffffffffffffffffffffffff1673ffffffffffffffffffffffffffffffffffffffff160361072b5760008082815481106105b0576105af611d9b565b5b906000526020600020906004020160010180546105cc90611df9565b80601f01602080910402602001604051908101604052809291908181526020018280546105f890611df9565b80156106455780601f1061061a57610100808354040283529160200191610645565b820191906000526020600020905b81548152906001019060200180831161062857829003601f168201915b505050505090506000600160009054906101000a900473ffffffffffffffffffffffffffffffffffffffff1673ffffffffffffffffffffffffffffffffffffffff16639f5937f8836040518263ffffffff1660e01b81526004016106a99190611ef5565b600060405180830381865afa1580156106c6573d6000803e3d6000fd5b505050506040513d6000823e3d601f19601f820116820180604052508101906106ef9190612130565b90506000816020015190508086868151811061070e5761070d611d9b565b5b6020026020010181905250848061072490611e63565b9550505050505b808061073690611e63565b915050610516565b508082526000811461076b5760405180604001604052806001151581526020018381525092505050610788565b604051806040016040528060001515815260200183815250925050505b919050565b60006107998484610c60565b905080156107a75750610995565b600160009054906101000a900473ffffffffffffffffffffffffffffffffffffffff1673ffffffffffffffffffffffffffffffffffffffff16639aa7f418846040518263ffffffff1660e01b81526004016108029190612204565b600060405180830381600087803b15801561081c57600080fd5b505af1158015610830573d6000803e3d6000fd5b505050506000600367ffffffffffffffff81111561085157610850611243565b5b60405190808252806020026020018201604052801561088457816020015b606081526020019060019003908161086f5790505b5090506040518060400160405280600881526020017f646f776e6c6f6164000000000000000000000000000000000000000000000000815250816000815181106108d1576108d0611d9b565b5b60200260200101819052506040518060400160405280600681526020017f64656c65746500000000000000000000000000000000000000000000000000008152508160018151811061092657610925611d9b565b5b60200260200101819052506040518060400160405280600581526020017f73686172650000000000000000000000000000000000000000000000000000008152508160028151811061097b5761097a611d9b565b5b602002602001018190525061099285858584610f44565b50505b505050565b60008473ffffffffffffffffffffffffffffffffffffffff168473ffffffffffffffffffffffffffffffffffffffff16148015610a225750826040516020016109e39190612262565b6040516020818303038152906040528051906020012082604051602001610a0a9190612262565b60405160208183030381529060405280519060200120145b9050949350505050565b610a346110c5565b60005b600080549050811015610c2f57610b4a846000015160008381548110610a6057610a5f611d9b565b5b906000526020600020906004020160000160009054906101000a900473ffffffffffffffffffffffffffffffffffffffff16856000015160008581548110610aab57610aaa611d9b565b5b90600052602060002090600402016001018054610ac790611df9565b80601f0160208091040260200160405190810160405280929190818152602001828054610af390611df9565b8015610b405780601f10610b1557610100808354040283529160200191610b40565b820191906000526020600020905b815481529060010190602001808311610b2357829003601f168201915b505050505061099a565b15610c1c57604051806040016040528060011515815260200160008381548110610b7757610b76611d9b565b5b90600052602060002090600402016002018054610b9390611df9565b80601f0160208091040260200160405190810160405280929190818152602001828054610bbf90611df9565b8015610c0c5780601f10610be157610100808354040283529160200191610c0c565b820191906000526020600020905b815481529060010190602001808311610bef57829003601f168201915b5050505050815250915050610c5a565b8080610c2790611e63565b915050610a37565b5060405180604001604052806000151581526020016040518060200160405280600081525081525090505b92915050565b600080600090505b600080549050811015610d9957610d778460008381548110610c8d57610c8c611d9b565b5b906000526020600020906004020160000160009054906101000a900473ffffffffffffffffffffffffffffffffffffffff16856000015160008581548110610cd857610cd7611d9b565b5b90600052602060002090600402016001018054610cf490611df9565b80601f0160208091040260200160405190810160405280929190818152602001828054610d2090611df9565b8015610d6d5780601f10610d4257610100808354040283529160200191610d6d565b820191906000526020600020905b815481529060010190602001808311610d5057829003601f168201915b505050505061099a565b15610d86576001915050610d9f565b8080610d9190611e63565b915050610c68565b50600090505b92915050565b6000610db18585610c60565b90508015610dbf5750610dcd565b610dcb85858585610f44565b505b50505050565b60005b600080549050811015610f3d57610ee58460008381548110610dfb57610dfa611d9b565b5b906000526020600020906004020160000160009054906101000a900473ffffffffffffffffffffffffffffffffffffffff16856000015160008581548110610e4657610e45611d9b565b5b90600052602060002090600402016001018054610e6290611df9565b80601f0160208091040260200160405190810160405280929190818152602001828054610e8e90611df9565b8015610edb5780601f10610eb057610100808354040283529160200191610edb565b820191906000526020600020905b815481529060010190602001808311610ebe57829003601f168201915b505050505061099a565b15610f2a578160008281548110610eff57610efe611d9b565b5b90600052602060002090600402016003019080519060200190610f239291906110e1565b5050610f3f565b8080610f3590611e63565b915050610dd6565b505b505050565b600060405180608001604052808673ffffffffffffffffffffffffffffffffffffffff16815260200185600001518152602001848152602001838152509050600081908060018154018082558091505060019003906000526020600020906004020160009091909190915060008201518160000160006101000a81548173ffffffffffffffffffffffffffffffffffffffff021916908373ffffffffffffffffffffffffffffffffffffffff160217905550602082015181600101908161100b9190612425565b5060408201518160020190816110219190612425565b50606082015181600301908051906020019061103e9291906110e1565b5050505050505050565b6040518060400160405280600015158152602001606081525090565b6040518060400160405280600015158152602001606081525090565b6040518060a001604052806060815260200160608152602001600073ffffffffffffffffffffffffffffffffffffffff16815260200160608152602001606081525090565b6040518060400160405280600015158152602001606081525090565b828054828255906000526020600020908101928215611129579160200282015b828111156111285782518290816111189190612425565b5091602001919060010190611101565b5b509050611136919061113a565b5090565b5b8082111561115a5760008181611151919061115e565b5060010161113b565b5090565b50805461116a90611df9565b6000825580601f1061117c575061119b565b601f01602090049060005260206000209081019061119a919061119e565b5b50565b5b808211156111b757600081600090555060010161119f565b5090565b6000604051905090565b600080fd5b600080fd5b600073ffffffffffffffffffffffffffffffffffffffff82169050919050565b60006111fa826111cf565b9050919050565b61120a816111ef565b811461121557600080fd5b50565b60008135905061122781611201565b92915050565b600080fd5b6000601f19601f8301169050919050565b7f4e487b7100000000000000000000000000000000000000000000000000000000600052604160045260246000fd5b61127b82611232565b810181811067ffffffffffffffff8211171561129a57611299611243565b5b80604052505050565b60006112ad6111bb565b90506112b98282611272565b919050565b600080fd5b600080fd5b600080fd5b600067ffffffffffffffff8211156112e8576112e7611243565b5b6112f182611232565b9050602081019050919050565b82818337600083830152505050565b600061132061131b846112cd565b6112a3565b90508281526020810184848401111561133c5761133b6112c8565b5b6113478482856112fe565b509392505050565b600082601f830112611364576113636112c3565b5b813561137484826020860161130d565b91505092915050565b600060a082840312156113935761139261122d565b5b61139d60a06112a3565b9050600082013567ffffffffffffffff8111156113bd576113bc6112be565b5b6113c98482850161134f565b600083015250602082013567ffffffffffffffff8111156113ed576113ec6112be565b5b6113f98482850161134f565b602083015250604061140d84828501611218565b604083015250606082013567ffffffffffffffff811115611431576114306112be565b5b61143d8482850161134f565b606083015250608082013567ffffffffffffffff811115611461576114606112be565b5b61146d8482850161134f565b60808301525092915050565b600080604083850312156114905761148f6111c5565b5b600061149e85828601611218565b925050602083013567ffffffffffffffff8111156114bf576114be6111ca565b5b6114cb8582860161137d565b9150509250929050565b60008115159050919050565b6114ea816114d5565b82525050565b600081519050919050565b600082825260208201905092915050565b6000819050602082019050919050565b600081519050919050565b600082825260208201905092915050565b60005b8381101561155657808201518184015260208101905061153b565b60008484015250505050565b600061156d8261151c565b6115778185611527565b9350611587818560208601611538565b61159081611232565b840191505092915050565b60006115a78383611562565b905092915050565b6000602082019050919050565b60006115c7826114f0565b6115d181856114fb565b9350836020820285016115e38561150c565b8060005b8581101561161f5784840389528151611600858261159b565b945061160b836115af565b925060208a019950506001810190506115e7565b50829750879550505050505092915050565b600060408301600083015161164960008601826114e1565b506020830151848203602086015261166182826115bc565b9150508091505092915050565b600060208201905081810360008301526116888184611631565b905092915050565b6000602082840312156116a6576116a56111c5565b5b60006116b484828501611218565b91505092915050565b600081519050919050565b600082825260208201905092915050565b6000819050602082019050919050565b6116f2816111ef565b82525050565b600060a08301600083015184820360008601526117158282611562565b9150506020830151848203602086015261172f8282611562565b915050604083015161174460408601826116e9565b506060830151848203606086015261175c8282611562565b915050608083015184820360808601526117768282611562565b9150508091505092915050565b600061178f83836116f8565b905092915050565b6000602082019050919050565b60006117af826116bd565b6117b981856116c8565b9350836020820285016117cb856116d9565b8060005b8581101561180757848403895281516117e88582611783565b94506117f383611797565b925060208a019950506001810190506117cf565b50829750879550505050505092915050565b600060408301600083015161183160008601826114e1565b506020830151848203602086015261184982826117a4565b9150508091505092915050565b600060208201905081810360008301526118708184611819565b905092915050565b600080600060608486031215611891576118906111c5565b5b600061189f86828701611218565b935050602084013567ffffffffffffffff8111156118c0576118bf6111ca565b5b6118cc8682870161137d565b925050604084013567ffffffffffffffff8111156118ed576118ec6111ca565b5b6118f98682870161134f565b9150509250925092565b6000806000806080858703121561191d5761191c6111c5565b5b600061192b87828801611218565b945050602061193c87828801611218565b935050604085013567ffffffffffffffff81111561195d5761195c6111ca565b5b6119698782880161134f565b925050606085013567ffffffffffffffff81111561198a576119896111ca565b5b6119968782880161134f565b91505092959194509250565b6119ab816114d5565b82525050565b60006020820190506119c660008301846119a2565b92915050565b6000608082840312156119e2576119e161122d565b5b6119ec60806112a3565b905060006119fc84828501611218565b600083015250602082013567ffffffffffffffff811115611a2057611a1f6112be565b5b611a2c8482850161134f565b602083015250604082013567ffffffffffffffff811115611a5057611a4f6112be565b5b611a5c8482850161134f565b604083015250606082013567ffffffffffffffff811115611a8057611a7f6112be565b5b611a8c8482850161134f565b60608301525092915050565b60008060408385031215611aaf57611aae6111c5565b5b600083013567ffffffffffffffff811115611acd57611acc6111ca565b5b611ad9858286016119cc565b925050602083013567ffffffffffffffff811115611afa57611af96111ca565b5b611b068582860161137d565b9150509250929050565b6000604083016000830151611b2860008601826114e1565b5060208301518482036020860152611b408282611562565b9150508091505092915050565b60006020820190508181036000830152611b678184611b10565b905092915050565b600067ffffffffffffffff821115611b8a57611b89611243565b5b602082029050602081019050919050565b600080fd5b6000611bb3611bae84611b6f565b6112a3565b90508083825260208201905060208402830185811115611bd657611bd5611b9b565b5b835b81811015611c1d57803567ffffffffffffffff811115611bfb57611bfa6112c3565b5b808601611c08898261134f565b85526020850194505050602081019050611bd8565b5050509392505050565b600082601f830112611c3c57611c3b6112c3565b5b8135611c4c848260208601611ba0565b91505092915050565b60008060008060808587031215611c6f57611c6e6111c5565b5b6000611c7d87828801611218565b945050602085013567ffffffffffffffff811115611c9e57611c9d6111ca565b5b611caa8782880161137d565b935050604085013567ffffffffffffffff811115611ccb57611cca6111ca565b5b611cd78782880161134f565b925050606085013567ffffffffffffffff811115611cf857611cf76111ca565b5b611d0487828801611c27565b91505092959194509250565b600080600060608486031215611d2957611d286111c5565b5b6000611d3786828701611218565b935050602084013567ffffffffffffffff811115611d5857611d576111ca565b5b611d648682870161137d565b925050604084013567ffffffffffffffff811115611d8557611d846111ca565b5b611d9186828701611c27565b9150509250925092565b7f4e487b7100000000000000000000000000000000000000000000000000000000600052603260045260246000fd5b7f4e487b7100000000000000000000000000000000000000000000000000000000600052602260045260246000fd5b60006002820490506001821680611e1157607f821691505b602082108103611e2457611e23611dca565b5b50919050565b7f4e487b7100000000000000000000000000000000000000000000000000000000600052601160045260246000fd5b6000819050919050565b6000611e6e82611e59565b91507fffffffffffffffffffffffffffffffffffffffffffffffffffffffffffffffff8203611ea057611e9f611e2a565b5b600182019050919050565b600082825260208201905092915050565b6000611ec78261151c565b611ed18185611eab565b9350611ee1818560208601611538565b611eea81611232565b840191505092915050565b60006020820190508181036000830152611f0f8184611ebc565b905092915050565b611f20816114d5565b8114611f2b57600080fd5b50565b600081519050611f3d81611f17565b92915050565b6000611f56611f51846112cd565b6112a3565b905082815260208101848484011115611f7257611f716112c8565b5b611f7d848285611538565b509392505050565b600082601f830112611f9a57611f996112c3565b5b8151611faa848260208601611f43565b91505092915050565b600081519050611fc281611201565b92915050565b600060a08284031215611fde57611fdd61122d565b5b611fe860a06112a3565b9050600082015167ffffffffffffffff811115612008576120076112be565b5b61201484828501611f85565b600083015250602082015167ffffffffffffffff811115612038576120376112be565b5b61204484828501611f85565b602083015250604061205884828501611fb3565b604083015250606082015167ffffffffffffffff81111561207c5761207b6112be565b5b61208884828501611f85565b606083015250608082015167ffffffffffffffff8111156120ac576120ab6112be565b5b6120b884828501611f85565b60808301525092915050565b6000604082840312156120da576120d961122d565b5b6120e460406112a3565b905060006120f484828501611f2e565b600083015250602082015167ffffffffffffffff811115612118576121176112be565b5b61212484828501611fc8565b60208301525092915050565b600060208284031215612146576121456111c5565b5b600082015167ffffffffffffffff811115612164576121636111ca565b5b612170848285016120c4565b91505092915050565b600060a08301600083015184820360008601526121968282611562565b915050602083015184820360208601526121b08282611562565b91505060408301516121c560408601826116e9565b50606083015184820360608601526121dd8282611562565b915050608083015184820360808601526121f78282611562565b9150508091505092915050565b6000602082019050818103600083015261221e8184612179565b905092915050565b600081905092915050565b600061223c8261151c565b6122468185612226565b9350612256818560208601611538565b80840191505092915050565b600061226e8284612231565b915081905092915050565b60008190508160005260206000209050919050565b60006020601f8301049050919050565b600082821b905092915050565b6000600883026122db7fffffffffffffffffffffffffffffffffffffffffffffffffffffffffffffffff8261229e565b6122e5868361229e565b95508019841693508086168417925050509392505050565b6000819050919050565b600061232261231d61231884611e59565b6122fd565b611e59565b9050919050565b6000819050919050565b61233c83612307565b61235061234882612329565b8484546122ab565b825550505050565b600090565b612365612358565b612370818484612333565b505050565b5b818110156123945761238960008261235d565b600181019050612376565b5050565b601f8211156123d9576123aa81612279565b6123b38461228e565b810160208510156123c2578190505b6123d66123ce8561228e565b830182612375565b50505b505050565b600082821c905092915050565b60006123fc600019846008026123de565b1980831691505092915050565b600061241583836123eb565b9150826002028217905092915050565b61242e8261151c565b67ffffffffffffffff81111561244757612446611243565b5b6124518254611df9565b61245c828285612398565b600060209050601f83116001811461248f576000841561247d578287015190505b6124878582612409565b8655506124ef565b601f19841661249d86612279565b60005b828110156124c5578489015182556001820191506020850194506020810190506124a0565b868310156124e257848901516124de601f8916826123eb565b8355505b6001600288020188555050505b50505050505056fea26469706673582212203768ccd708eae6ed2ebf537c71cedcebe27ff85c0ae56a21c1e270021daefe7e64736f6c63430008130033","opcodes":"PUSH1 0x80 PUSH1 0x40 MSTORE CALLVALUE DUP1 ISZERO PUSH3 0x11 JUMPI PUSH1 0x0 DUP1 REVERT JUMPDEST POP PUSH1 0x40 MLOAD PUSH3 0x2658 CODESIZE SUB DUP1 PUSH3 0x2658 DUP4 CODECOPY DUP2 DUP2 ADD PUSH1 0x40 MSTORE DUP2 ADD SWAP1 PUSH3 0x37 SWAP2 SWAP1 PUSH3 0xE9 JUMP JUMPDEST DUP1 PUSH1 0x1 PUSH1 0x0 PUSH2 0x100 EXP DUP2 SLOAD DUP2 PUSH20 0xFFFFFFFFFFFFFFFFFFFFFFFFFFFFFFFFFFFFFFFF MUL NOT AND SWAP1 DUP4 PUSH20 0xFFFFFFFFFFFFFFFFFFFFFFFFFFFFFFFFFFFFFFFF AND MUL OR SWAP1 SSTORE POP POP PUSH3 0x11B JUMP JUMPDEST PUSH1 0x0 DUP1 REVERT JUMPDEST PUSH1 0x0 PUSH20 0xFFFFFFFFFFFFFFFFFFFFFFFFFFFFFFFFFFFFFFFF DUP3 AND SWAP1 POP SWAP2 SWAP1 POP JUMP JUMPDEST PUSH1 0x0 PUSH3 0xB1 DUP3 PUSH3 0x84 JUMP JUMPDEST SWAP1 POP SWAP2 SWAP1 POP JUMP JUMPDEST PUSH3 0xC3 DUP2 PUSH3 0xA4 JUMP JUMPDEST DUP2 EQ PUSH3 0xCF JUMPI PUSH1 0x0 DUP1 REVERT JUMPDEST POP JUMP JUMPDEST PUSH1 0x0 DUP2 MLOAD SWAP1 POP PUSH3 0xE3 DUP2 PUSH3 0xB8 JUMP JUMPDEST SWAP3 SWAP2 POP POP JUMP JUMPDEST PUSH1 0x0 PUSH1 0x20 DUP3 DUP5 SUB SLT ISZERO PUSH3 0x102 JUMPI PUSH3 0x101 PUSH3 0x7F JUMP JUMPDEST JUMPDEST PUSH1 0x0 PUSH3 0x112 DUP5 DUP3 DUP6 ADD PUSH3 0xD2 JUMP JUMPDEST SWAP2 POP POP SWAP3 SWAP2 POP POP JUMP JUMPDEST PUSH2 0x252D DUP1 PUSH3 0x12B PUSH1 0x0 CODECOPY PUSH1 0x0 RETURN INVALID PUSH1 0x80 PUSH1 0x40 MSTORE CALLVALUE DUP1 ISZERO PUSH2 0x10 JUMPI PUSH1 0x0 DUP1 REVERT JUMPDEST POP PUSH1 0x4 CALLDATASIZE LT PUSH2 0x93 JUMPI PUSH1 0x0 CALLDATALOAD PUSH1 0xE0 SHR DUP1 PUSH4 0x5D02EECE GT PUSH2 0x66 JUMPI DUP1 PUSH4 0x5D02EECE EQ PUSH2 0x144 JUMPI DUP1 PUSH4 0x7B371F75 EQ PUSH2 0x174 JUMPI DUP1 PUSH4 0xA2A0307D EQ PUSH2 0x1A4 JUMPI DUP1 PUSH4 0xB509210C EQ PUSH2 0x1C0 JUMPI DUP1 PUSH4 0xE886E6E3 EQ PUSH2 0x1DC JUMPI PUSH2 0x93 JUMP JUMPDEST DUP1 PUSH4 0x1C0C2891 EQ PUSH2 0x98 JUMPI DUP1 PUSH4 0x1FC37922 EQ PUSH2 0xC8 JUMPI DUP1 PUSH4 0x25B97D6C EQ PUSH2 0xF8 JUMPI DUP1 PUSH4 0x5C99C71B EQ PUSH2 0x114 JUMPI JUMPDEST PUSH1 0x0 DUP1 REVERT JUMPDEST PUSH2 0xB2 PUSH1 0x4 DUP1 CALLDATASIZE SUB DUP2 ADD SWAP1 PUSH2 0xAD SWAP2 SWAP1 PUSH2 0x1479 JUMP JUMPDEST PUSH2 0x1F8 JUMP JUMPDEST PUSH1 0x40 MLOAD PUSH2 0xBF SWAP2 SWAP1 PUSH2 0x166E JUMP JUMPDEST PUSH1 0x40 MLOAD DUP1 SWAP2 SUB SWAP1 RETURN JUMPDEST PUSH2 0xE2 PUSH1 0x4 DUP1 CALLDATASIZE SUB DUP2 ADD SWAP1 PUSH2 0xDD SWAP2 SWAP1 PUSH2 0x1690 JUMP JUMPDEST PUSH2 0x4AE JUMP JUMPDEST PUSH1 0x40 MLOAD PUSH2 0xEF SWAP2 SWAP1 PUSH2 0x1856 JUMP JUMPDEST PUSH1 0x40 MLOAD DUP1 SWAP2 SUB SWAP1 RETURN JUMPDEST PUSH2 0x112 PUSH1 0x4 DUP1 CALLDATASIZE SUB DUP2 ADD SWAP1 PUSH2 0x10D SWAP2 SWAP1 PUSH2 0x1878 JUMP JUMPDEST PUSH2 0x78D JUMP JUMPDEST STOP JUMPDEST PUSH2 0x12E PUSH1 0x4 DUP1 CALLDATASIZE SUB DUP2 ADD SWAP1 PUSH2 0x129 SWAP2 SWAP1 PUSH2 0x1903 JUMP JUMPDEST PUSH2 0x99A JUMP JUMPDEST PUSH1 0x40 MLOAD PUSH2 0x13B SWAP2 SWAP1 PUSH2 0x19B1 JUMP JUMPDEST PUSH1 0x40 MLOAD DUP1 SWAP2 SUB SWAP1 RETURN JUMPDEST PUSH2 0x15E PUSH1 0x4 DUP1 CALLDATASIZE SUB DUP2 ADD SWAP1 PUSH2 0x159 SWAP2 SWAP1 PUSH2 0x1A98 JUMP JUMPDEST PUSH2 0xA2C JUMP JUMPDEST PUSH1 0x40 MLOAD PUSH2 0x16B SWAP2 SWAP1 PUSH2 0x1B4D JUMP JUMPDEST PUSH1 0x40 MLOAD DUP1 SWAP2 SUB SWAP1 RETURN JUMPDEST PUSH2 0x18E PUSH1 0x4 DUP1 CALLDATASIZE SUB DUP2 ADD SWAP1 PUSH2 0x189 SWAP2 SWAP1 PUSH2 0x1479 JUMP JUMPDEST PUSH2 0xC60 JUMP JUMPDEST PUSH1 0x40 MLOAD PUSH2 0x19B SWAP2 SWAP1 PUSH2 0x19B1 JUMP JUMPDEST PUSH1 0x40 MLOAD DUP1 SWAP2 SUB SWAP1 RETURN JUMPDEST PUSH2 0x1BE PUSH1 0x4 DUP1 CALLDATASIZE SUB DUP2 ADD SWAP1 PUSH2 0x1B9 SWAP2 SWAP1 PUSH2 0x1C55 JUMP JUMPDEST PUSH2 0xDA5 JUMP JUMPDEST STOP JUMPDEST PUSH2 0x1DA PUSH1 0x4 DUP1 CALLDATASIZE SUB DUP2 ADD SWAP1 PUSH2 0x1D5 SWAP2 SWAP1 PUSH2 0x1D10 JUMP JUMPDEST PUSH2 0xDD3 JUMP JUMPDEST STOP JUMPDEST PUSH2 0x1F6 PUSH1 0x4 DUP1 CALLDATASIZE SUB DUP2 ADD SWAP1 PUSH2 0x1F1 SWAP2 SWAP1 PUSH2 0x1C55 JUMP JUMPDEST PUSH2 0xF44 JUMP JUMPDEST STOP JUMPDEST PUSH2 0x200 PUSH2 0x1048 JUMP JUMPDEST PUSH1 0x0 JUMPDEST PUSH1 0x0 DUP1 SLOAD SWAP1 POP DUP2 LT ISZERO PUSH2 0x43E JUMPI PUSH2 0x312 DUP5 PUSH1 0x0 DUP4 DUP2 SLOAD DUP2 LT PUSH2 0x228 JUMPI PUSH2 0x227 PUSH2 0x1D9B JUMP JUMPDEST JUMPDEST SWAP1 PUSH1 0x0 MSTORE PUSH1 0x20 PUSH1 0x0 KECCAK256 SWAP1 PUSH1 0x4 MUL ADD PUSH1 0x0 ADD PUSH1 0x0 SWAP1 SLOAD SWAP1 PUSH2 0x100 EXP SWAP1 DIV PUSH20 0xFFFFFFFFFFFFFFFFFFFFFFFFFFFFFFFFFFFFFFFF AND DUP6 PUSH1 0x0 ADD MLOAD PUSH1 0x0 DUP6 DUP2 SLOAD DUP2 LT PUSH2 0x273 JUMPI PUSH2 0x272 PUSH2 0x1D9B JUMP JUMPDEST JUMPDEST SWAP1 PUSH1 0x0 MSTORE PUSH1 0x20 PUSH1 0x0 KECCAK256 SWAP1 PUSH1 0x4 MUL ADD PUSH1 0x1 ADD DUP1 SLOAD PUSH2 0x28F SWAP1 PUSH2 0x1DF9 JUMP JUMPDEST DUP1 PUSH1 0x1F ADD PUSH1 0x20 DUP1 SWAP2 DIV MUL PUSH1 0x20 ADD PUSH1 0x40 MLOAD SWAP1 DUP2 ADD PUSH1 0x40 MSTORE DUP1 SWAP3 SWAP2 SWAP1 DUP2 DUP2 MSTORE PUSH1 0x20 ADD DUP3 DUP1 SLOAD PUSH2 0x2BB SWAP1 PUSH2 0x1DF9 JUMP JUMPDEST DUP1 ISZERO PUSH2 0x308 JUMPI DUP1 PUSH1 0x1F LT PUSH2 0x2DD JUMPI PUSH2 0x100 DUP1 DUP4 SLOAD DIV MUL DUP4 MSTORE SWAP2 PUSH1 0x20 ADD SWAP2 PUSH2 0x308 JUMP JUMPDEST DUP3 ADD SWAP2 SWAP1 PUSH1 0x0 MSTORE PUSH1 0x20 PUSH1 0x0 KECCAK256 SWAP1 JUMPDEST DUP2 SLOAD DUP2 MSTORE SWAP1 PUSH1 0x1 ADD SWAP1 PUSH1 0x20 ADD DUP1 DUP4 GT PUSH2 0x2EB JUMPI DUP3 SWAP1 SUB PUSH1 0x1F AND DUP3 ADD SWAP2 JUMPDEST POP POP POP POP POP PUSH2 0x99A JUMP JUMPDEST ISZERO PUSH2 0x42B JUMPI PUSH1 0x40 MLOAD DUP1 PUSH1 0x40 ADD PUSH1 0x40 MSTORE DUP1 PUSH1 0x1 ISZERO ISZERO DUP2 MSTORE PUSH1 0x20 ADD PUSH1 0x0 DUP4 DUP2 SLOAD DUP2 LT PUSH2 0x33F JUMPI PUSH2 0x33E PUSH2 0x1D9B JUMP JUMPDEST JUMPDEST SWAP1 PUSH1 0x0 MSTORE PUSH1 0x20 PUSH1 0x0 KECCAK256 SWAP1 PUSH1 0x4 MUL ADD PUSH1 0x3 ADD DUP1 SLOAD DUP1 PUSH1 0x20 MUL PUSH1 0x20 ADD PUSH1 0x40 MLOAD SWAP1 DUP2 ADD PUSH1 0x40 MSTORE DUP1 SWAP3 SWAP2 SWAP1 DUP2 DUP2 MSTORE PUSH1 0x20 ADD PUSH1 0x0 SWAP1 JUMPDEST DUP3 DUP3 LT ISZERO PUSH2 0x41C JUMPI DUP4 DUP3 SWAP1 PUSH1 0x0 MSTORE PUSH1 0x20 PUSH1 0x0 KECCAK256 ADD DUP1 SLOAD PUSH2 0x38F SWAP1 PUSH2 0x1DF9 JUMP JUMPDEST DUP1 PUSH1 0x1F ADD PUSH1 0x20 DUP1 SWAP2 DIV MUL PUSH1 0x20 ADD PUSH1 0x40 MLOAD SWAP1 DUP2 ADD PUSH1 0x40 MSTORE DUP1 SWAP3 SWAP2 SWAP1 DUP2 DUP2 MSTORE PUSH1 0x20 ADD DUP3 DUP1 SLOAD PUSH2 0x3BB SWAP1 PUSH2 0x1DF9 JUMP JUMPDEST DUP1 ISZERO PUSH2 0x408 JUMPI DUP1 PUSH1 0x1F LT PUSH2 0x3DD JUMPI PUSH2 0x100 DUP1 DUP4 SLOAD DIV MUL DUP4 MSTORE SWAP2 PUSH1 0x20 ADD SWAP2 PUSH2 0x408 JUMP JUMPDEST DUP3 ADD SWAP2 SWAP1 PUSH1 0x0 MSTORE PUSH1 0x20 PUSH1 0x0 KECCAK256 SWAP1 JUMPDEST DUP2 SLOAD DUP2 MSTORE SWAP1 PUSH1 0x1 ADD SWAP1 PUSH1 0x20 ADD DUP1 DUP4 GT PUSH2 0x3EB JUMPI DUP3 SWAP1 SUB PUSH1 0x1F AND DUP3 ADD SWAP2 JUMPDEST POP POP POP POP POP DUP2 MSTORE PUSH1 0x20 ADD SWAP1 PUSH1 0x1 ADD SWAP1 PUSH2 0x370 JUMP JUMPDEST POP POP POP POP DUP2 MSTORE POP SWAP2 POP POP PUSH2 0x4A8 JUMP JUMPDEST DUP1 DUP1 PUSH2 0x436 SWAP1 PUSH2 0x1E63 JUMP JUMPDEST SWAP2 POP POP PUSH2 0x203 JUMP JUMPDEST POP PUSH1 0x40 MLOAD DUP1 PUSH1 0x40 ADD PUSH1 0x40 MSTORE DUP1 PUSH1 0x0 ISZERO ISZERO DUP2 MSTORE PUSH1 0x20 ADD PUSH1 0x0 PUSH8 0xFFFFFFFFFFFFFFFF DUP2 GT ISZERO PUSH2 0x46E JUMPI PUSH2 0x46D PUSH2 0x1243 JUMP JUMPDEST JUMPDEST PUSH1 0x40 MLOAD SWAP1 DUP1 DUP3 MSTORE DUP1 PUSH1 0x20 MUL PUSH1 0x20 ADD DUP3 ADD PUSH1 0x40 MSTORE DUP1 ISZERO PUSH2 0x4A1 JUMPI DUP2 PUSH1 0x20 ADD JUMPDEST PUSH1 0x60 DUP2 MSTORE PUSH1 0x20 ADD SWAP1 PUSH1 0x1 SWAP1 SUB SWAP1 DUP2 PUSH2 0x48C JUMPI SWAP1 POP JUMPDEST POP DUP2 MSTORE POP SWAP1 POP JUMPDEST SWAP3 SWAP2 POP POP JUMP JUMPDEST PUSH2 0x4B6 PUSH2 0x1064 JUMP JUMPDEST PUSH1 0x0 DUP1 DUP1 SLOAD SWAP1 POP PUSH8 0xFFFFFFFFFFFFFFFF DUP2 GT ISZERO PUSH2 0x4D6 JUMPI PUSH2 0x4D5 PUSH2 0x1243 JUMP JUMPDEST JUMPDEST PUSH1 0x40 MLOAD SWAP1 DUP1 DUP3 MSTORE DUP1 PUSH1 0x20 MUL PUSH1 0x20 ADD DUP3 ADD PUSH1 0x40 MSTORE DUP1 ISZERO PUSH2 0x50F JUMPI DUP2 PUSH1 0x20 ADD JUMPDEST PUSH2 0x4FC PUSH2 0x1080 JUMP JUMPDEST DUP2 MSTORE PUSH1 0x20 ADD SWAP1 PUSH1 0x1 SWAP1 SUB SWAP1 DUP2 PUSH2 0x4F4 JUMPI SWAP1 POP JUMPDEST POP SWAP1 POP PUSH1 0x0 DUP1 JUMPDEST PUSH1 0x0 DUP1 SLOAD SWAP1 POP DUP2 LT ISZERO PUSH2 0x73E JUMPI DUP5 PUSH20 0xFFFFFFFFFFFFFFFFFFFFFFFFFFFFFFFFFFFFFFFF AND PUSH1 0x0 DUP3 DUP2 SLOAD DUP2 LT PUSH2 0x54E JUMPI PUSH2 0x54D PUSH2 0x1D9B JUMP JUMPDEST JUMPDEST SWAP1 PUSH1 0x0 MSTORE PUSH1 0x20 PUSH1 0x0 KECCAK256 SWAP1 PUSH1 0x4 MUL ADD PUSH1 0x0 ADD PUSH1 0x0 SWAP1 SLOAD SWAP1 PUSH2 0x100 EXP SWAP1 DIV PUSH20 0xFFFFFFFFFFFFFFFFFFFFFFFFFFFFFFFFFFFFFFFF AND PUSH20 0xFFFFFFFFFFFFFFFFFFFFFFFFFFFFFFFFFFFFFFFF AND SUB PUSH2 0x72B JUMPI PUSH1 0x0 DUP1 DUP3 DUP2 SLOAD DUP2 LT PUSH2 0x5B0 JUMPI PUSH2 0x5AF PUSH2 0x1D9B JUMP JUMPDEST JUMPDEST SWAP1 PUSH1 0x0 MSTORE PUSH1 0x20 PUSH1 0x0 KECCAK256 SWAP1 PUSH1 0x4 MUL ADD PUSH1 0x1 ADD DUP1 SLOAD PUSH2 0x5CC SWAP1 PUSH2 0x1DF9 JUMP JUMPDEST DUP1 PUSH1 0x1F ADD PUSH1 0x20 DUP1 SWAP2 DIV MUL PUSH1 0x20 ADD PUSH1 0x40 MLOAD SWAP1 DUP2 ADD PUSH1 0x40 MSTORE DUP1 SWAP3 SWAP2 SWAP1 DUP2 DUP2 MSTORE PUSH1 0x20 ADD DUP3 DUP1 SLOAD PUSH2 0x5F8 SWAP1 PUSH2 0x1DF9 JUMP JUMPDEST DUP1 ISZERO PUSH2 0x645 JUMPI DUP1 PUSH1 0x1F LT PUSH2 0x61A JUMPI PUSH2 0x100 DUP1 DUP4 SLOAD DIV MUL DUP4 MSTORE SWAP2 PUSH1 0x20 ADD SWAP2 PUSH2 0x645 JUMP JUMPDEST DUP3 ADD SWAP2 SWAP1 PUSH1 0x0 MSTORE PUSH1 0x20 PUSH1 0x0 KECCAK256 SWAP1 JUMPDEST DUP2 SLOAD DUP2 MSTORE SWAP1 PUSH1 0x1 ADD SWAP1 PUSH1 0x20 ADD DUP1 DUP4 GT PUSH2 0x628 JUMPI DUP3 SWAP1 SUB PUSH1 0x1F AND DUP3 ADD SWAP2 JUMPDEST POP POP POP POP POP SWAP1 POP PUSH1 0x0 PUSH1 0x1 PUSH1 0x0 SWAP1 SLOAD SWAP1 PUSH2 0x100 EXP SWAP1 DIV PUSH20 0xFFFFFFFFFFFFFFFFFFFFFFFFFFFFFFFFFFFFFFFF AND PUSH20 0xFFFFFFFFFFFFFFFFFFFFFFFFFFFFFFFFFFFFFFFF AND PUSH4 0x9F5937F8 DUP4 PUSH1 0x40 MLOAD DUP3 PUSH4 0xFFFFFFFF AND PUSH1 0xE0 SHL DUP2 MSTORE PUSH1 0x4 ADD PUSH2 0x6A9 SWAP2 SWAP1 PUSH2 0x1EF5 JUMP JUMPDEST PUSH1 0x0 PUSH1 0x40 MLOAD DUP1 DUP4 SUB DUP2 DUP7 GAS STATICCALL ISZERO DUP1 ISZERO PUSH2 0x6C6 JUMPI RETURNDATASIZE PUSH1 0x0 DUP1 RETURNDATACOPY RETURNDATASIZE PUSH1 0x0 REVERT JUMPDEST POP POP POP POP PUSH1 0x40 MLOAD RETURNDATASIZE PUSH1 0x0 DUP3 RETURNDATACOPY RETURNDATASIZE PUSH1 0x1F NOT PUSH1 0x1F DUP3 ADD AND DUP3 ADD DUP1 PUSH1 0x40 MSTORE POP DUP2 ADD SWAP1 PUSH2 0x6EF SWAP2 SWAP1 PUSH2 0x2130 JUMP JUMPDEST SWAP1 POP PUSH1 0x0 DUP2 PUSH1 0x20 ADD MLOAD SWAP1 POP DUP1 DUP7 DUP7 DUP2 MLOAD DUP2 LT PUSH2 0x70E JUMPI PUSH2 0x70D PUSH2 0x1D9B JUMP JUMPDEST JUMPDEST PUSH1 0x20 MUL PUSH1 0x20 ADD ADD DUP2 SWAP1 MSTORE POP DUP5 DUP1 PUSH2 0x724 SWAP1 PUSH2 0x1E63 JUMP JUMPDEST SWAP6 POP POP POP POP POP JUMPDEST DUP1 DUP1 PUSH2 0x736 SWAP1 PUSH2 0x1E63 JUMP JUMPDEST SWAP2 POP POP PUSH2 0x516 JUMP JUMPDEST POP DUP1 DUP3 MSTORE PUSH1 0x0 DUP2 EQ PUSH2 0x76B JUMPI PUSH1 0x40 MLOAD DUP1 PUSH1 0x40 ADD PUSH1 0x40 MSTORE DUP1 PUSH1 0x1 ISZERO ISZERO DUP2 MSTORE PUSH1 0x20 ADD DUP4 DUP2 MSTORE POP SWAP3 POP POP POP PUSH2 0x788 JUMP JUMPDEST PUSH1 0x40 MLOAD DUP1 PUSH1 0x40 ADD PUSH1 0x40 MSTORE DUP1 PUSH1 0x0 ISZERO ISZERO DUP2 MSTORE PUSH1 0x20 ADD DUP4 DUP2 MSTORE POP SWAP3 POP POP POP JUMPDEST SWAP2 SWAP1 POP JUMP JUMPDEST PUSH1 0x0 PUSH2 0x799 DUP5 DUP5 PUSH2 0xC60 JUMP JUMPDEST SWAP1 POP DUP1 ISZERO PUSH2 0x7A7 JUMPI POP PUSH2 0x995 JUMP JUMPDEST PUSH1 0x1 PUSH1 0x0 SWAP1 SLOAD SWAP1 PUSH2 0x100 EXP SWAP1 DIV PUSH20 0xFFFFFFFFFFFFFFFFFFFFFFFFFFFFFFFFFFFFFFFF AND PUSH20 0xFFFFFFFFFFFFFFFFFFFFFFFFFFFFFFFFFFFFFFFF AND PUSH4 0x9AA7F418 DUP5 PUSH1 0x40 MLOAD DUP3 PUSH4 0xFFFFFFFF AND PUSH1 0xE0 SHL DUP2 MSTORE PUSH1 0x4 ADD PUSH2 0x802 SWAP2 SWAP1 PUSH2 0x2204 JUMP JUMPDEST PUSH1 0x0 PUSH1 0x40 MLOAD DUP1 DUP4 SUB DUP2 PUSH1 0x0 DUP8 DUP1 EXTCODESIZE ISZERO DUP1 ISZERO PUSH2 0x81C JUMPI PUSH1 0x0 DUP1 REVERT JUMPDEST POP GAS CALL ISZERO DUP1 ISZERO PUSH2 0x830 JUMPI RETURNDATASIZE PUSH1 0x0 DUP1 RETURNDATACOPY RETURNDATASIZE PUSH1 0x0 REVERT JUMPDEST POP POP POP POP PUSH1 0x0 PUSH1 0x3 PUSH8 0xFFFFFFFFFFFFFFFF DUP2 GT ISZERO PUSH2 0x851 JUMPI PUSH2 0x850 PUSH2 0x1243 JUMP JUMPDEST JUMPDEST PUSH1 0x40 MLOAD SWAP1 DUP1 DUP3 MSTORE DUP1 PUSH1 0x20 MUL PUSH1 0x20 ADD DUP3 ADD PUSH1 0x40 MSTORE DUP1 ISZERO PUSH2 0x884 JUMPI DUP2 PUSH1 0x20 ADD JUMPDEST PUSH1 0x60 DUP2 MSTORE PUSH1 0x20 ADD SWAP1 PUSH1 0x1 SWAP1 SUB SWAP1 DUP2 PUSH2 0x86F JUMPI SWAP1 POP JUMPDEST POP SWAP1 POP PUSH1 0x40 MLOAD DUP1 PUSH1 0x40 ADD PUSH1 0x40 MSTORE DUP1 PUSH1 0x8 DUP2 MSTORE PUSH1 0x20 ADD PUSH32 0x646F776E6C6F6164000000000000000000000000000000000000000000000000 DUP2 MSTORE POP DUP2 PUSH1 0x0 DUP2 MLOAD DUP2 LT PUSH2 0x8D1 JUMPI PUSH2 0x8D0 PUSH2 0x1D9B JUMP JUMPDEST JUMPDEST PUSH1 0x20 MUL PUSH1 0x20 ADD ADD DUP2 SWAP1 MSTORE POP PUSH1 0x40 MLOAD DUP1 PUSH1 0x40 ADD PUSH1 0x40 MSTORE DUP1 PUSH1 0x6 DUP2 MSTORE PUSH1 0x20 ADD PUSH32 0x64656C6574650000000000000000000000000000000000000000000000000000 DUP2 MSTORE POP DUP2 PUSH1 0x1 DUP2 MLOAD DUP2 LT PUSH2 0x926 JUMPI PUSH2 0x925 PUSH2 0x1D9B JUMP JUMPDEST JUMPDEST PUSH1 0x20 MUL PUSH1 0x20 ADD ADD DUP2 SWAP1 MSTORE POP PUSH1 0x40 MLOAD DUP1 PUSH1 0x40 ADD PUSH1 0x40 MSTORE DUP1 PUSH1 0x5 DUP2 MSTORE PUSH1 0x20 ADD PUSH32 0x7368617265000000000000000000000000000000000000000000000000000000 DUP2 MSTORE POP DUP2 PUSH1 0x2 DUP2 MLOAD DUP2 LT PUSH2 0x97B JUMPI PUSH2 0x97A PUSH2 0x1D9B JUMP JUMPDEST JUMPDEST PUSH1 0x20 MUL PUSH1 0x20 ADD ADD DUP2 SWAP1 MSTORE POP PUSH2 0x992 DUP6 DUP6 DUP6 DUP5 PUSH2 0xF44 JUMP JUMPDEST POP POP JUMPDEST POP POP POP JUMP JUMPDEST PUSH1 0x0 DUP5 PUSH20 0xFFFFFFFFFFFFFFFFFFFFFFFFFFFFFFFFFFFFFFFF AND DUP5 PUSH20 0xFFFFFFFFFFFFFFFFFFFFFFFFFFFFFFFFFFFFFFFF AND EQ DUP1 ISZERO PUSH2 0xA22 JUMPI POP DUP3 PUSH1 0x40 MLOAD PUSH1 0x20 ADD PUSH2 0x9E3 SWAP2 SWAP1 PUSH2 0x2262 JUMP JUMPDEST PUSH1 0x40 MLOAD PUSH1 0x20 DUP2 DUP4 SUB SUB DUP2 MSTORE SWAP1 PUSH1 0x40 MSTORE DUP1 MLOAD SWAP1 PUSH1 0x20 ADD KECCAK256 DUP3 PUSH1 0x40 MLOAD PUSH1 0x20 ADD PUSH2 0xA0A SWAP2 SWAP1 PUSH2 0x2262 JUMP JUMPDEST PUSH1 0x40 MLOAD PUSH1 0x20 DUP2 DUP4 SUB SUB DUP2 MSTORE SWAP1 PUSH1 0x40 MSTORE DUP1 MLOAD SWAP1 PUSH1 0x20 ADD KECCAK256 EQ JUMPDEST SWAP1 POP SWAP5 SWAP4 POP POP POP POP JUMP JUMPDEST PUSH2 0xA34 PUSH2 0x10C5 JUMP JUMPDEST PUSH1 0x0 JUMPDEST PUSH1 0x0 DUP1 SLOAD SWAP1 POP DUP2 LT ISZERO PUSH2 0xC2F JUMPI PUSH2 0xB4A DUP5 PUSH1 0x0 ADD MLOAD PUSH1 0x0 DUP4 DUP2 SLOAD DUP2 LT PUSH2 0xA60 JUMPI PUSH2 0xA5F PUSH2 0x1D9B JUMP JUMPDEST JUMPDEST SWAP1 PUSH1 0x0 MSTORE PUSH1 0x20 PUSH1 0x0 KECCAK256 SWAP1 PUSH1 0x4 MUL ADD PUSH1 0x0 ADD PUSH1 0x0 SWAP1 SLOAD SWAP1 PUSH2 0x100 EXP SWAP1 DIV PUSH20 0xFFFFFFFFFFFFFFFFFFFFFFFFFFFFFFFFFFFFFFFF AND DUP6 PUSH1 0x0 ADD MLOAD PUSH1 0x0 DUP6 DUP2 SLOAD DUP2 LT PUSH2 0xAAB JUMPI PUSH2 0xAAA PUSH2 0x1D9B JUMP JUMPDEST JUMPDEST SWAP1 PUSH1 0x0 MSTORE PUSH1 0x20 PUSH1 0x0 KECCAK256 SWAP1 PUSH1 0x4 MUL ADD PUSH1 0x1 ADD DUP1 SLOAD PUSH2 0xAC7 SWAP1 PUSH2 0x1DF9 JUMP JUMPDEST DUP1 PUSH1 0x1F ADD PUSH1 0x20 DUP1 SWAP2 DIV MUL PUSH1 0x20 ADD PUSH1 0x40 MLOAD SWAP1 DUP2 ADD PUSH1 0x40 MSTORE DUP1 SWAP3 SWAP2 SWAP1 DUP2 DUP2 MSTORE PUSH1 0x20 ADD DUP3 DUP1 SLOAD PUSH2 0xAF3 SWAP1 PUSH2 0x1DF9 JUMP JUMPDEST DUP1 ISZERO PUSH2 0xB40 JUMPI DUP1 PUSH1 0x1F LT PUSH2 0xB15 JUMPI PUSH2 0x100 DUP1 DUP4 SLOAD DIV MUL DUP4 MSTORE SWAP2 PUSH1 0x20 ADD SWAP2 PUSH2 0xB40 JUMP JUMPDEST DUP3 ADD SWAP2 SWAP1 PUSH1 0x0 MSTORE PUSH1 0x20 PUSH1 0x0 KECCAK256 SWAP1 JUMPDEST DUP2 SLOAD DUP2 MSTORE SWAP1 PUSH1 0x1 ADD SWAP1 PUSH1 0x20 ADD DUP1 DUP4 GT PUSH2 0xB23 JUMPI DUP3 SWAP1 SUB PUSH1 0x1F AND DUP3 ADD SWAP2 JUMPDEST POP POP POP POP POP PUSH2 0x99A JUMP JUMPDEST ISZERO PUSH2 0xC1C JUMPI PUSH1 0x40 MLOAD DUP1 PUSH1 0x40 ADD PUSH1 0x40 MSTORE DUP1 PUSH1 0x1 ISZERO ISZERO DUP2 MSTORE PUSH1 0x20 ADD PUSH1 0x0 DUP4 DUP2 SLOAD DUP2 LT PUSH2 0xB77 JUMPI PUSH2 0xB76 PUSH2 0x1D9B JUMP JUMPDEST JUMPDEST SWAP1 PUSH1 0x0 MSTORE PUSH1 0x20 PUSH1 0x0 KECCAK256 SWAP1 PUSH1 0x4 MUL ADD PUSH1 0x2 ADD DUP1 SLOAD PUSH2 0xB93 SWAP1 PUSH2 0x1DF9 JUMP JUMPDEST DUP1 PUSH1 0x1F ADD PUSH1 0x20 DUP1 SWAP2 DIV MUL PUSH1 0x20 ADD PUSH1 0x40 MLOAD SWAP1 DUP2 ADD PUSH1 0x40 MSTORE DUP1 SWAP3 SWAP2 SWAP1 DUP2 DUP2 MSTORE PUSH1 0x20 ADD DUP3 DUP1 SLOAD PUSH2 0xBBF SWAP1 PUSH2 0x1DF9 JUMP JUMPDEST DUP1 ISZERO PUSH2 0xC0C JUMPI DUP1 PUSH1 0x1F LT PUSH2 0xBE1 JUMPI PUSH2 0x100 DUP1 DUP4 SLOAD DIV MUL DUP4 MSTORE SWAP2 PUSH1 0x20 ADD SWAP2 PUSH2 0xC0C JUMP JUMPDEST DUP3 ADD SWAP2 SWAP1 PUSH1 0x0 MSTORE PUSH1 0x20 PUSH1 0x0 KECCAK256 SWAP1 JUMPDEST DUP2 SLOAD DUP2 MSTORE SWAP1 PUSH1 0x1 ADD SWAP1 PUSH1 0x20 ADD DUP1 DUP4 GT PUSH2 0xBEF JUMPI DUP3 SWAP1 SUB PUSH1 0x1F AND DUP3 ADD SWAP2 JUMPDEST POP POP POP POP POP DUP2 MSTORE POP SWAP2 POP POP PUSH2 0xC5A JUMP JUMPDEST DUP1 DUP1 PUSH2 0xC27 SWAP1 PUSH2 0x1E63 JUMP JUMPDEST SWAP2 POP POP PUSH2 0xA37 JUMP JUMPDEST POP PUSH1 0x40 MLOAD DUP1 PUSH1 0x40 ADD PUSH1 0x40 MSTORE DUP1 PUSH1 0x0 ISZERO ISZERO DUP2 MSTORE PUSH1 0x20 ADD PUSH1 0x40 MLOAD DUP1 PUSH1 0x20 ADD PUSH1 0x40 MSTORE DUP1 PUSH1 0x0 DUP2 MSTORE POP DUP2 MSTORE POP SWAP1 POP JUMPDEST SWAP3 SWAP2 POP POP JUMP JUMPDEST PUSH1 0x0 DUP1 PUSH1 0x0 SWAP1 POP JUMPDEST PUSH1 0x0 DUP1 SLOAD SWAP1 POP DUP2 LT ISZERO PUSH2 0xD99 JUMPI PUSH2 0xD77 DUP5 PUSH1 0x0 DUP4 DUP2 SLOAD DUP2 LT PUSH2 0xC8D JUMPI PUSH2 0xC8C PUSH2 0x1D9B JUMP JUMPDEST JUMPDEST SWAP1 PUSH1 0x0 MSTORE PUSH1 0x20 PUSH1 0x0 KECCAK256 SWAP1 PUSH1 0x4 MUL ADD PUSH1 0x0 ADD PUSH1 0x0 SWAP1 SLOAD SWAP1 PUSH2 0x100 EXP SWAP1 DIV PUSH20 0xFFFFFFFFFFFFFFFFFFFFFFFFFFFFFFFFFFFFFFFF AND DUP6 PUSH1 0x0 ADD MLOAD PUSH1 0x0 DUP6 DUP2 SLOAD DUP2 LT PUSH2 0xCD8 JUMPI PUSH2 0xCD7 PUSH2 0x1D9B JUMP JUMPDEST JUMPDEST SWAP1 PUSH1 0x0 MSTORE PUSH1 0x20 PUSH1 0x0 KECCAK256 SWAP1 PUSH1 0x4 MUL ADD PUSH1 0x1 ADD DUP1 SLOAD PUSH2 0xCF4 SWAP1 PUSH2 0x1DF9 JUMP JUMPDEST DUP1 PUSH1 0x1F ADD PUSH1 0x20 DUP1 SWAP2 DIV MUL PUSH1 0x20 ADD PUSH1 0x40 MLOAD SWAP1 DUP2 ADD PUSH1 0x40 MSTORE DUP1 SWAP3 SWAP2 SWAP1 DUP2 DUP2 MSTORE PUSH1 0x20 ADD DUP3 DUP1 SLOAD PUSH2 0xD20 SWAP1 PUSH2 0x1DF9 JUMP JUMPDEST DUP1 ISZERO PUSH2 0xD6D JUMPI DUP1 PUSH1 0x1F LT PUSH2 0xD42 JUMPI PUSH2 0x100 DUP1 DUP4 SLOAD DIV MUL DUP4 MSTORE SWAP2 PUSH1 0x20 ADD SWAP2 PUSH2 0xD6D JUMP JUMPDEST DUP3 ADD SWAP2 SWAP1 PUSH1 0x0 MSTORE PUSH1 0x20 PUSH1 0x0 KECCAK256 SWAP1 JUMPDEST DUP2 SLOAD DUP2 MSTORE SWAP1 PUSH1 0x1 ADD SWAP1 PUSH1 0x20 ADD DUP1 DUP4 GT PUSH2 0xD50 JUMPI DUP3 SWAP1 SUB PUSH1 0x1F AND DUP3 ADD SWAP2 JUMPDEST POP POP POP POP POP PUSH2 0x99A JUMP JUMPDEST ISZERO PUSH2 0xD86 JUMPI PUSH1 0x1 SWAP2 POP POP PUSH2 0xD9F JUMP JUMPDEST DUP1 DUP1 PUSH2 0xD91 SWAP1 PUSH2 0x1E63 JUMP JUMPDEST SWAP2 POP POP PUSH2 0xC68 JUMP JUMPDEST POP PUSH1 0x0 SWAP1 POP JUMPDEST SWAP3 SWAP2 POP POP JUMP JUMPDEST PUSH1 0x0 PUSH2 0xDB1 DUP6 DUP6 PUSH2 0xC60 JUMP JUMPDEST SWAP1 POP DUP1 ISZERO PUSH2 0xDBF JUMPI POP PUSH2 0xDCD JUMP JUMPDEST PUSH2 0xDCB DUP6 DUP6 DUP6 DUP6 PUSH2 0xF44 JUMP JUMPDEST POP JUMPDEST POP POP POP POP JUMP JUMPDEST PUSH1 0x0 JUMPDEST PUSH1 0x0 DUP1 SLOAD SWAP1 POP DUP2 LT ISZERO PUSH2 0xF3D JUMPI PUSH2 0xEE5 DUP5 PUSH1 0x0 DUP4 DUP2 SLOAD DUP2 LT PUSH2 0xDFB JUMPI PUSH2 0xDFA PUSH2 0x1D9B JUMP JUMPDEST JUMPDEST SWAP1 PUSH1 0x0 MSTORE PUSH1 0x20 PUSH1 0x0 KECCAK256 SWAP1 PUSH1 0x4 MUL ADD PUSH1 0x0 ADD PUSH1 0x0 SWAP1 SLOAD SWAP1 PUSH2 0x100 EXP SWAP1 DIV PUSH20 0xFFFFFFFFFFFFFFFFFFFFFFFFFFFFFFFFFFFFFFFF AND DUP6 PUSH1 0x0 ADD MLOAD PUSH1 0x0 DUP6 DUP2 SLOAD DUP2 LT PUSH2 0xE46 JUMPI PUSH2 0xE45 PUSH2 0x1D9B JUMP JUMPDEST JUMPDEST SWAP1 PUSH1 0x0 MSTORE PUSH1 0x20 PUSH1 0x0 KECCAK256 SWAP1 PUSH1 0x4 MUL ADD PUSH1 0x1 ADD DUP1 SLOAD PUSH2 0xE62 SWAP1 PUSH2 0x1DF9 JUMP JUMPDEST DUP1 PUSH1 0x1F ADD PUSH1 0x20 DUP1 SWAP2 DIV MUL PUSH1 0x20 ADD PUSH1 0x40 MLOAD SWAP1 DUP2 ADD PUSH1 0x40 MSTORE DUP1 SWAP3 SWAP2 SWAP1 DUP2 DUP2 MSTORE PUSH1 0x20 ADD DUP3 DUP1 SLOAD PUSH2 0xE8E SWAP1 PUSH2 0x1DF9 JUMP JUMPDEST DUP1 ISZERO PUSH2 0xEDB JUMPI DUP1 PUSH1 0x1F LT PUSH2 0xEB0 JUMPI PUSH2 0x100 DUP1 DUP4 SLOAD DIV MUL DUP4 MSTORE SWAP2 PUSH1 0x20 ADD SWAP2 PUSH2 0xEDB JUMP JUMPDEST DUP3 ADD SWAP2 SWAP1 PUSH1 0x0 MSTORE PUSH1 0x20 PUSH1 0x0 KECCAK256 SWAP1 JUMPDEST DUP2 SLOAD DUP2 MSTORE SWAP1 PUSH1 0x1 ADD SWAP1 PUSH1 0x20 ADD DUP1 DUP4 GT PUSH2 0xEBE JUMPI DUP3 SWAP1 SUB PUSH1 0x1F AND DUP3 ADD SWAP2 JUMPDEST POP POP POP POP POP PUSH2 0x99A JUMP JUMPDEST ISZERO PUSH2 0xF2A JUMPI DUP2 PUSH1 0x0 DUP3 DUP2 SLOAD DUP2 LT PUSH2 0xEFF JUMPI PUSH2 0xEFE PUSH2 0x1D9B JUMP JUMPDEST JUMPDEST SWAP1 PUSH1 0x0 MSTORE PUSH1 0x20 PUSH1 0x0 KECCAK256 SWAP1 PUSH1 0x4 MUL ADD PUSH1 0x3 ADD SWAP1 DUP1 MLOAD SWAP1 PUSH1 0x20 ADD SWAP1 PUSH2 0xF23 SWAP3 SWAP2 SWAP1 PUSH2 0x10E1 JUMP JUMPDEST POP POP PUSH2 0xF3F JUMP JUMPDEST DUP1 DUP1 PUSH2 0xF35 SWAP1 PUSH2 0x1E63 JUMP JUMPDEST SWAP2 POP POP PUSH2 0xDD6 JUMP JUMPDEST POP JUMPDEST POP POP POP JUMP JUMPDEST PUSH1 0x0 PUSH1 0x40 MLOAD DUP1 PUSH1 0x80 ADD PUSH1 0x40 MSTORE DUP1 DUP7 PUSH20 0xFFFFFFFFFFFFFFFFFFFFFFFFFFFFFFFFFFFFFFFF AND DUP2 MSTORE PUSH1 0x20 ADD DUP6 PUSH1 0x0 ADD MLOAD DUP2 MSTORE PUSH1 0x20 ADD DUP5 DUP2 MSTORE PUSH1 0x20 ADD DUP4 DUP2 MSTORE POP SWAP1 POP PUSH1 0x0 DUP2 SWAP1 DUP1 PUSH1 0x1 DUP2 SLOAD ADD DUP1 DUP3 SSTORE DUP1 SWAP2 POP POP PUSH1 0x1 SWAP1 SUB SWAP1 PUSH1 0x0 MSTORE PUSH1 0x20 PUSH1 0x0 KECCAK256 SWAP1 PUSH1 0x4 MUL ADD PUSH1 0x0 SWAP1 SWAP2 SWAP1 SWAP2 SWAP1 SWAP2 POP PUSH1 0x0 DUP3 ADD MLOAD DUP2 PUSH1 0x0 ADD PUSH1 0x0 PUSH2 0x100 EXP DUP2 SLOAD DUP2 PUSH20 0xFFFFFFFFFFFFFFFFFFFFFFFFFFFFFFFFFFFFFFFF MUL NOT AND SWAP1 DUP4 PUSH20 0xFFFFFFFFFFFFFFFFFFFFFFFFFFFFFFFFFFFFFFFF AND MUL OR SWAP1 SSTORE POP PUSH1 0x20 DUP3 ADD MLOAD DUP2 PUSH1 0x1 ADD SWAP1 DUP2 PUSH2 0x100B SWAP2 SWAP1 PUSH2 0x2425 JUMP JUMPDEST POP PUSH1 0x40 DUP3 ADD MLOAD DUP2 PUSH1 0x2 ADD SWAP1 DUP2 PUSH2 0x1021 SWAP2 SWAP1 PUSH2 0x2425 JUMP JUMPDEST POP PUSH1 0x60 DUP3 ADD MLOAD DUP2 PUSH1 0x3 ADD SWAP1 DUP1 MLOAD SWAP1 PUSH1 0x20 ADD SWAP1 PUSH2 0x103E SWAP3 SWAP2 SWAP1 PUSH2 0x10E1 JUMP JUMPDEST POP POP POP POP POP POP POP POP JUMP JUMPDEST PUSH1 0x40 MLOAD DUP1 PUSH1 0x40 ADD PUSH1 0x40 MSTORE DUP1 PUSH1 0x0 ISZERO ISZERO DUP2 MSTORE PUSH1 0x20 ADD PUSH1 0x60 DUP2 MSTORE POP SWAP1 JUMP JUMPDEST PUSH1 0x40 MLOAD DUP1 PUSH1 0x40 ADD PUSH1 0x40 MSTORE DUP1 PUSH1 0x0 ISZERO ISZERO DUP2 MSTORE PUSH1 0x20 ADD PUSH1 0x60 DUP2 MSTORE POP SWAP1 JUMP JUMPDEST PUSH1 0x40 MLOAD DUP1 PUSH1 0xA0 ADD PUSH1 0x40 MSTORE DUP1 PUSH1 0x60 DUP2 MSTORE PUSH1 0x20 ADD PUSH1 0x60 DUP2 MSTORE PUSH1 0x20 ADD PUSH1 0x0 PUSH20 0xFFFFFFFFFFFFFFFFFFFFFFFFFFFFFFFFFFFFFFFF AND DUP2 MSTORE PUSH1 0x20 ADD PUSH1 0x60 DUP2 MSTORE PUSH1 0x20 ADD PUSH1 0x60 DUP2 MSTORE POP SWAP1 JUMP JUMPDEST PUSH1 0x40 MLOAD DUP1 PUSH1 0x40 ADD PUSH1 0x40 MSTORE DUP1 PUSH1 0x0 ISZERO ISZERO DUP2 MSTORE PUSH1 0x20 ADD PUSH1 0x60 DUP2 MSTORE POP SWAP1 JUMP JUMPDEST DUP3 DUP1 SLOAD DUP3 DUP3 SSTORE SWAP1 PUSH1 0x0 MSTORE PUSH1 0x20 PUSH1 0x0 KECCAK256 SWAP1 DUP2 ADD SWAP3 DUP3 ISZERO PUSH2 0x1129 JUMPI SWAP2 PUSH1 0x20 MUL DUP3 ADD JUMPDEST DUP3 DUP2 GT ISZERO PUSH2 0x1128 JUMPI DUP3 MLOAD DUP3 SWAP1 DUP2 PUSH2 0x1118 SWAP2 SWAP1 PUSH2 0x2425 JUMP JUMPDEST POP SWAP2 PUSH1 0x20 ADD SWAP2 SWAP1 PUSH1 0x1 ADD SWAP1 PUSH2 0x1101 JUMP JUMPDEST JUMPDEST POP SWAP1 POP PUSH2 0x1136 SWAP2 SWAP1 PUSH2 0x113A JUMP JUMPDEST POP SWAP1 JUMP JUMPDEST JUMPDEST DUP1 DUP3 GT ISZERO PUSH2 0x115A JUMPI PUSH1 0x0 DUP2 DUP2 PUSH2 0x1151 SWAP2 SWAP1 PUSH2 0x115E JUMP JUMPDEST POP PUSH1 0x1 ADD PUSH2 0x113B JUMP JUMPDEST POP SWAP1 JUMP JUMPDEST POP DUP1 SLOAD PUSH2 0x116A SWAP1 PUSH2 0x1DF9 JUMP JUMPDEST PUSH1 0x0 DUP3 SSTORE DUP1 PUSH1 0x1F LT PUSH2 0x117C JUMPI POP PUSH2 0x119B JUMP JUMPDEST PUSH1 0x1F ADD PUSH1 0x20 SWAP1 DIV SWAP1 PUSH1 0x0 MSTORE PUSH1 0x20 PUSH1 0x0 KECCAK256 SWAP1 DUP2 ADD SWAP1 PUSH2 0x119A SWAP2 SWAP1 PUSH2 0x119E JUMP JUMPDEST JUMPDEST POP JUMP JUMPDEST JUMPDEST DUP1 DUP3 GT ISZERO PUSH2 0x11B7 JUMPI PUSH1 0x0 DUP2 PUSH1 0x0 SWAP1 SSTORE POP PUSH1 0x1 ADD PUSH2 0x119F JUMP JUMPDEST POP SWAP1 JUMP JUMPDEST PUSH1 0x0 PUSH1 0x40 MLOAD SWAP1 POP SWAP1 JUMP JUMPDEST PUSH1 0x0 DUP1 REVERT JUMPDEST PUSH1 0x0 DUP1 REVERT JUMPDEST PUSH1 0x0 PUSH20 0xFFFFFFFFFFFFFFFFFFFFFFFFFFFFFFFFFFFFFFFF DUP3 AND SWAP1 POP SWAP2 SWAP1 POP JUMP JUMPDEST PUSH1 0x0 PUSH2 0x11FA DUP3 PUSH2 0x11CF JUMP JUMPDEST SWAP1 POP SWAP2 SWAP1 POP JUMP JUMPDEST PUSH2 0x120A DUP2 PUSH2 0x11EF JUMP JUMPDEST DUP2 EQ PUSH2 0x1215 JUMPI PUSH1 0x0 DUP1 REVERT JUMPDEST POP JUMP JUMPDEST PUSH1 0x0 DUP2 CALLDATALOAD SWAP1 POP PUSH2 0x1227 DUP2 PUSH2 0x1201 JUMP JUMPDEST SWAP3 SWAP2 POP POP JUMP JUMPDEST PUSH1 0x0 DUP1 REVERT JUMPDEST PUSH1 0x0 PUSH1 0x1F NOT PUSH1 0x1F DUP4 ADD AND SWAP1 POP SWAP2 SWAP1 POP JUMP JUMPDEST PUSH32 0x4E487B7100000000000000000000000000000000000000000000000000000000 PUSH1 0x0 MSTORE PUSH1 0x41 PUSH1 0x4 MSTORE PUSH1 0x24 PUSH1 0x0 REVERT JUMPDEST PUSH2 0x127B DUP3 PUSH2 0x1232 JUMP JUMPDEST DUP2 ADD DUP2 DUP2 LT PUSH8 0xFFFFFFFFFFFFFFFF DUP3 GT OR ISZERO PUSH2 0x129A JUMPI PUSH2 0x1299 PUSH2 0x1243 JUMP JUMPDEST JUMPDEST DUP1 PUSH1 0x40 MSTORE POP POP POP JUMP JUMPDEST PUSH1 0x0 PUSH2 0x12AD PUSH2 0x11BB JUMP JUMPDEST SWAP1 POP PUSH2 0x12B9 DUP3 DUP3 PUSH2 0x1272 JUMP JUMPDEST SWAP2 SWAP1 POP JUMP JUMPDEST PUSH1 0x0 DUP1 REVERT JUMPDEST PUSH1 0x0 DUP1 REVERT JUMPDEST PUSH1 0x0 DUP1 REVERT JUMPDEST PUSH1 0x0 PUSH8 0xFFFFFFFFFFFFFFFF DUP3 GT ISZERO PUSH2 0x12E8 JUMPI PUSH2 0x12E7 PUSH2 0x1243 JUMP JUMPDEST JUMPDEST PUSH2 0x12F1 DUP3 PUSH2 0x1232 JUMP JUMPDEST SWAP1 POP PUSH1 0x20 DUP2 ADD SWAP1 POP SWAP2 SWAP1 POP JUMP JUMPDEST DUP3 DUP2 DUP4 CALLDATACOPY PUSH1 0x0 DUP4 DUP4 ADD MSTORE POP POP POP JUMP JUMPDEST PUSH1 0x0 PUSH2 0x1320 PUSH2 0x131B DUP5 PUSH2 0x12CD JUMP JUMPDEST PUSH2 0x12A3 JUMP JUMPDEST SWAP1 POP DUP3 DUP2 MSTORE PUSH1 0x20 DUP2 ADD DUP5 DUP5 DUP5 ADD GT ISZERO PUSH2 0x133C JUMPI PUSH2 0x133B PUSH2 0x12C8 JUMP JUMPDEST JUMPDEST PUSH2 0x1347 DUP5 DUP3 DUP6 PUSH2 0x12FE JUMP JUMPDEST POP SWAP4 SWAP3 POP POP POP JUMP JUMPDEST PUSH1 0x0 DUP3 PUSH1 0x1F DUP4 ADD SLT PUSH2 0x1364 JUMPI PUSH2 0x1363 PUSH2 0x12C3 JUMP JUMPDEST JUMPDEST DUP2 CALLDATALOAD PUSH2 0x1374 DUP5 DUP3 PUSH1 0x20 DUP7 ADD PUSH2 0x130D JUMP JUMPDEST SWAP2 POP POP SWAP3 SWAP2 POP POP JUMP JUMPDEST PUSH1 0x0 PUSH1 0xA0 DUP3 DUP5 SUB SLT ISZERO PUSH2 0x1393 JUMPI PUSH2 0x1392 PUSH2 0x122D JUMP JUMPDEST JUMPDEST PUSH2 0x139D PUSH1 0xA0 PUSH2 0x12A3 JUMP JUMPDEST SWAP1 POP PUSH1 0x0 DUP3 ADD CALLDATALOAD PUSH8 0xFFFFFFFFFFFFFFFF DUP2 GT ISZERO PUSH2 0x13BD JUMPI PUSH2 0x13BC PUSH2 0x12BE JUMP JUMPDEST JUMPDEST PUSH2 0x13C9 DUP5 DUP3 DUP6 ADD PUSH2 0x134F JUMP JUMPDEST PUSH1 0x0 DUP4 ADD MSTORE POP PUSH1 0x20 DUP3 ADD CALLDATALOAD PUSH8 0xFFFFFFFFFFFFFFFF DUP2 GT ISZERO PUSH2 0x13ED JUMPI PUSH2 0x13EC PUSH2 0x12BE JUMP JUMPDEST JUMPDEST PUSH2 0x13F9 DUP5 DUP3 DUP6 ADD PUSH2 0x134F JUMP JUMPDEST PUSH1 0x20 DUP4 ADD MSTORE POP PUSH1 0x40 PUSH2 0x140D DUP5 DUP3 DUP6 ADD PUSH2 0x1218 JUMP JUMPDEST PUSH1 0x40 DUP4 ADD MSTORE POP PUSH1 0x60 DUP3 ADD CALLDATALOAD PUSH8 0xFFFFFFFFFFFFFFFF DUP2 GT ISZERO PUSH2 0x1431 JUMPI PUSH2 0x1430 PUSH2 0x12BE JUMP JUMPDEST JUMPDEST PUSH2 0x143D DUP5 DUP3 DUP6 ADD PUSH2 0x134F JUMP JUMPDEST PUSH1 0x60 DUP4 ADD MSTORE POP PUSH1 0x80 DUP3 ADD CALLDATALOAD PUSH8 0xFFFFFFFFFFFFFFFF DUP2 GT ISZERO PUSH2 0x1461 JUMPI PUSH2 0x1460 PUSH2 0x12BE JUMP JUMPDEST JUMPDEST PUSH2 0x146D DUP5 DUP3 DUP6 ADD PUSH2 0x134F JUMP JUMPDEST PUSH1 0x80 DUP4 ADD MSTORE POP SWAP3 SWAP2 POP POP JUMP JUMPDEST PUSH1 0x0 DUP1 PUSH1 0x40 DUP4 DUP6 SUB SLT ISZERO PUSH2 0x1490 JUMPI PUSH2 0x148F PUSH2 0x11C5 JUMP JUMPDEST JUMPDEST PUSH1 0x0 PUSH2 0x149E DUP6 DUP3 DUP7 ADD PUSH2 0x1218 JUMP JUMPDEST SWAP3 POP POP PUSH1 0x20 DUP4 ADD CALLDATALOAD PUSH8 0xFFFFFFFFFFFFFFFF DUP2 GT ISZERO PUSH2 0x14BF JUMPI PUSH2 0x14BE PUSH2 0x11CA JUMP JUMPDEST JUMPDEST PUSH2 0x14CB DUP6 DUP3 DUP7 ADD PUSH2 0x137D JUMP JUMPDEST SWAP2 POP POP SWAP3 POP SWAP3 SWAP1 POP JUMP JUMPDEST PUSH1 0x0 DUP2 ISZERO ISZERO SWAP1 POP SWAP2 SWAP1 POP JUMP JUMPDEST PUSH2 0x14EA DUP2 PUSH2 0x14D5 JUMP JUMPDEST DUP3 MSTORE POP POP JUMP JUMPDEST PUSH1 0x0 DUP2 MLOAD SWAP1 POP SWAP2 SWAP1 POP JUMP JUMPDEST PUSH1 0x0 DUP3 DUP3 MSTORE PUSH1 0x20 DUP3 ADD SWAP1 POP SWAP3 SWAP2 POP POP JUMP JUMPDEST PUSH1 0x0 DUP2 SWAP1 POP PUSH1 0x20 DUP3 ADD SWAP1 POP SWAP2 SWAP1 POP JUMP JUMPDEST PUSH1 0x0 DUP2 MLOAD SWAP1 POP SWAP2 SWAP1 POP JUMP JUMPDEST PUSH1 0x0 DUP3 DUP3 MSTORE PUSH1 0x20 DUP3 ADD SWAP1 POP SWAP3 SWAP2 POP POP JUMP JUMPDEST PUSH1 0x0 JUMPDEST DUP4 DUP2 LT ISZERO PUSH2 0x1556 JUMPI DUP1 DUP3 ADD MLOAD DUP2 DUP5 ADD MSTORE PUSH1 0x20 DUP2 ADD SWAP1 POP PUSH2 0x153B JUMP JUMPDEST PUSH1 0x0 DUP5 DUP5 ADD MSTORE POP POP POP POP JUMP JUMPDEST PUSH1 0x0 PUSH2 0x156D DUP3 PUSH2 0x151C JUMP JUMPDEST PUSH2 0x1577 DUP2 DUP6 PUSH2 0x1527 JUMP JUMPDEST SWAP4 POP PUSH2 0x1587 DUP2 DUP6 PUSH1 0x20 DUP7 ADD PUSH2 0x1538 JUMP JUMPDEST PUSH2 0x1590 DUP2 PUSH2 0x1232 JUMP JUMPDEST DUP5 ADD SWAP2 POP POP SWAP3 SWAP2 POP POP JUMP JUMPDEST PUSH1 0x0 PUSH2 0x15A7 DUP4 DUP4 PUSH2 0x1562 JUMP JUMPDEST SWAP1 POP SWAP3 SWAP2 POP POP JUMP JUMPDEST PUSH1 0x0 PUSH1 0x20 DUP3 ADD SWAP1 POP SWAP2 SWAP1 POP JUMP JUMPDEST PUSH1 0x0 PUSH2 0x15C7 DUP3 PUSH2 0x14F0 JUMP JUMPDEST PUSH2 0x15D1 DUP2 DUP6 PUSH2 0x14FB JUMP JUMPDEST SWAP4 POP DUP4 PUSH1 0x20 DUP3 MUL DUP6 ADD PUSH2 0x15E3 DUP6 PUSH2 0x150C JUMP JUMPDEST DUP1 PUSH1 0x0 JUMPDEST DUP6 DUP2 LT ISZERO PUSH2 0x161F JUMPI DUP5 DUP5 SUB DUP10 MSTORE DUP2 MLOAD PUSH2 0x1600 DUP6 DUP3 PUSH2 0x159B JUMP JUMPDEST SWAP5 POP PUSH2 0x160B DUP4 PUSH2 0x15AF JUMP JUMPDEST SWAP3 POP PUSH1 0x20 DUP11 ADD SWAP10 POP POP PUSH1 0x1 DUP2 ADD SWAP1 POP PUSH2 0x15E7 JUMP JUMPDEST POP DUP3 SWAP8 POP DUP8 SWAP6 POP POP POP POP POP POP SWAP3 SWAP2 POP POP JUMP JUMPDEST PUSH1 0x0 PUSH1 0x40 DUP4 ADD PUSH1 0x0 DUP4 ADD MLOAD PUSH2 0x1649 PUSH1 0x0 DUP7 ADD DUP3 PUSH2 0x14E1 JUMP JUMPDEST POP PUSH1 0x20 DUP4 ADD MLOAD DUP5 DUP3 SUB PUSH1 0x20 DUP7 ADD MSTORE PUSH2 0x1661 DUP3 DUP3 PUSH2 0x15BC JUMP JUMPDEST SWAP2 POP POP DUP1 SWAP2 POP POP SWAP3 SWAP2 POP POP JUMP JUMPDEST PUSH1 0x0 PUSH1 0x20 DUP3 ADD SWAP1 POP DUP2 DUP2 SUB PUSH1 0x0 DUP4 ADD MSTORE PUSH2 0x1688 DUP2 DUP5 PUSH2 0x1631 JUMP JUMPDEST SWAP1 POP SWAP3 SWAP2 POP POP JUMP JUMPDEST PUSH1 0x0 PUSH1 0x20 DUP3 DUP5 SUB SLT ISZERO PUSH2 0x16A6 JUMPI PUSH2 0x16A5 PUSH2 0x11C5 JUMP JUMPDEST JUMPDEST PUSH1 0x0 PUSH2 0x16B4 DUP5 DUP3 DUP6 ADD PUSH2 0x1218 JUMP JUMPDEST SWAP2 POP POP SWAP3 SWAP2 POP POP JUMP JUMPDEST PUSH1 0x0 DUP2 MLOAD SWAP1 POP SWAP2 SWAP1 POP JUMP JUMPDEST PUSH1 0x0 DUP3 DUP3 MSTORE PUSH1 0x20 DUP3 ADD SWAP1 POP SWAP3 SWAP2 POP POP JUMP JUMPDEST PUSH1 0x0 DUP2 SWAP1 POP PUSH1 0x20 DUP3 ADD SWAP1 POP SWAP2 SWAP1 POP JUMP JUMPDEST PUSH2 0x16F2 DUP2 PUSH2 0x11EF JUMP JUMPDEST DUP3 MSTORE POP POP JUMP JUMPDEST PUSH1 0x0 PUSH1 0xA0 DUP4 ADD PUSH1 0x0 DUP4 ADD MLOAD DUP5 DUP3 SUB PUSH1 0x0 DUP7 ADD MSTORE PUSH2 0x1715 DUP3 DUP3 PUSH2 0x1562 JUMP JUMPDEST SWAP2 POP POP PUSH1 0x20 DUP4 ADD MLOAD DUP5 DUP3 SUB PUSH1 0x20 DUP7 ADD MSTORE PUSH2 0x172F DUP3 DUP3 PUSH2 0x1562 JUMP JUMPDEST SWAP2 POP POP PUSH1 0x40 DUP4 ADD MLOAD PUSH2 0x1744 PUSH1 0x40 DUP7 ADD DUP3 PUSH2 0x16E9 JUMP JUMPDEST POP PUSH1 0x60 DUP4 ADD MLOAD DUP5 DUP3 SUB PUSH1 0x60 DUP7 ADD MSTORE PUSH2 0x175C DUP3 DUP3 PUSH2 0x1562 JUMP JUMPDEST SWAP2 POP POP PUSH1 0x80 DUP4 ADD MLOAD DUP5 DUP3 SUB PUSH1 0x80 DUP7 ADD MSTORE PUSH2 0x1776 DUP3 DUP3 PUSH2 0x1562 JUMP JUMPDEST SWAP2 POP POP DUP1 SWAP2 POP POP SWAP3 SWAP2 POP POP JUMP JUMPDEST PUSH1 0x0 PUSH2 0x178F DUP4 DUP4 PUSH2 0x16F8 JUMP JUMPDEST SWAP1 POP SWAP3 SWAP2 POP POP JUMP JUMPDEST PUSH1 0x0 PUSH1 0x20 DUP3 ADD SWAP1 POP SWAP2 SWAP1 POP JUMP JUMPDEST PUSH1 0x0 PUSH2 0x17AF DUP3 PUSH2 0x16BD JUMP JUMPDEST PUSH2 0x17B9 DUP2 DUP6 PUSH2 0x16C8 JUMP JUMPDEST SWAP4 POP DUP4 PUSH1 0x20 DUP3 MUL DUP6 ADD PUSH2 0x17CB DUP6 PUSH2 0x16D9 JUMP JUMPDEST DUP1 PUSH1 0x0 JUMPDEST DUP6 DUP2 LT ISZERO PUSH2 0x1807 JUMPI DUP5 DUP5 SUB DUP10 MSTORE DUP2 MLOAD PUSH2 0x17E8 DUP6 DUP3 PUSH2 0x1783 JUMP JUMPDEST SWAP5 POP PUSH2 0x17F3 DUP4 PUSH2 0x1797 JUMP JUMPDEST SWAP3 POP PUSH1 0x20 DUP11 ADD SWAP10 POP POP PUSH1 0x1 DUP2 ADD SWAP1 POP PUSH2 0x17CF JUMP JUMPDEST POP DUP3 SWAP8 POP DUP8 SWAP6 POP POP POP POP POP POP SWAP3 SWAP2 POP POP JUMP JUMPDEST PUSH1 0x0 PUSH1 0x40 DUP4 ADD PUSH1 0x0 DUP4 ADD MLOAD PUSH2 0x1831 PUSH1 0x0 DUP7 ADD DUP3 PUSH2 0x14E1 JUMP JUMPDEST POP PUSH1 0x20 DUP4 ADD MLOAD DUP5 DUP3 SUB PUSH1 0x20 DUP7 ADD MSTORE PUSH2 0x1849 DUP3 DUP3 PUSH2 0x17A4 JUMP JUMPDEST SWAP2 POP POP DUP1 SWAP2 POP POP SWAP3 SWAP2 POP POP JUMP JUMPDEST PUSH1 0x0 PUSH1 0x20 DUP3 ADD SWAP1 POP DUP2 DUP2 SUB PUSH1 0x0 DUP4 ADD MSTORE PUSH2 0x1870 DUP2 DUP5 PUSH2 0x1819 JUMP JUMPDEST SWAP1 POP SWAP3 SWAP2 POP POP JUMP JUMPDEST PUSH1 0x0 DUP1 PUSH1 0x0 PUSH1 0x60 DUP5 DUP7 SUB SLT ISZERO PUSH2 0x1891 JUMPI PUSH2 0x1890 PUSH2 0x11C5 JUMP JUMPDEST JUMPDEST PUSH1 0x0 PUSH2 0x189F DUP7 DUP3 DUP8 ADD PUSH2 0x1218 JUMP JUMPDEST SWAP4 POP POP PUSH1 0x20 DUP5 ADD CALLDATALOAD PUSH8 0xFFFFFFFFFFFFFFFF DUP2 GT ISZERO PUSH2 0x18C0 JUMPI PUSH2 0x18BF PUSH2 0x11CA JUMP JUMPDEST JUMPDEST PUSH2 0x18CC DUP7 DUP3 DUP8 ADD PUSH2 0x137D JUMP JUMPDEST SWAP3 POP POP PUSH1 0x40 DUP5 ADD CALLDATALOAD PUSH8 0xFFFFFFFFFFFFFFFF DUP2 GT ISZERO PUSH2 0x18ED JUMPI PUSH2 0x18EC PUSH2 0x11CA JUMP JUMPDEST JUMPDEST PUSH2 0x18F9 DUP7 DUP3 DUP8 ADD PUSH2 0x134F JUMP JUMPDEST SWAP2 POP POP SWAP3 POP SWAP3 POP SWAP3 JUMP JUMPDEST PUSH1 0x0 DUP1 PUSH1 0x0 DUP1 PUSH1 0x80 DUP6 DUP8 SUB SLT ISZERO PUSH2 0x191D JUMPI PUSH2 0x191C PUSH2 0x11C5 JUMP JUMPDEST JUMPDEST PUSH1 0x0 PUSH2 0x192B DUP8 DUP3 DUP9 ADD PUSH2 0x1218 JUMP JUMPDEST SWAP5 POP POP PUSH1 0x20 PUSH2 0x193C DUP8 DUP3 DUP9 ADD PUSH2 0x1218 JUMP JUMPDEST SWAP4 POP POP PUSH1 0x40 DUP6 ADD CALLDATALOAD PUSH8 0xFFFFFFFFFFFFFFFF DUP2 GT ISZERO PUSH2 0x195D JUMPI PUSH2 0x195C PUSH2 0x11CA JUMP JUMPDEST JUMPDEST PUSH2 0x1969 DUP8 DUP3 DUP9 ADD PUSH2 0x134F JUMP JUMPDEST SWAP3 POP POP PUSH1 0x60 DUP6 ADD CALLDATALOAD PUSH8 0xFFFFFFFFFFFFFFFF DUP2 GT ISZERO PUSH2 0x198A JUMPI PUSH2 0x1989 PUSH2 0x11CA JUMP JUMPDEST JUMPDEST PUSH2 0x1996 DUP8 DUP3 DUP9 ADD PUSH2 0x134F JUMP JUMPDEST SWAP2 POP POP SWAP3 SWAP6 SWAP2 SWAP5 POP SWAP3 POP JUMP JUMPDEST PUSH2 0x19AB DUP2 PUSH2 0x14D5 JUMP JUMPDEST DUP3 MSTORE POP POP JUMP JUMPDEST PUSH1 0x0 PUSH1 0x20 DUP3 ADD SWAP1 POP PUSH2 0x19C6 PUSH1 0x0 DUP4 ADD DUP5 PUSH2 0x19A2 JUMP JUMPDEST SWAP3 SWAP2 POP POP JUMP JUMPDEST PUSH1 0x0 PUSH1 0x80 DUP3 DUP5 SUB SLT ISZERO PUSH2 0x19E2 JUMPI PUSH2 0x19E1 PUSH2 0x122D JUMP JUMPDEST JUMPDEST PUSH2 0x19EC PUSH1 0x80 PUSH2 0x12A3 JUMP JUMPDEST SWAP1 POP PUSH1 0x0 PUSH2 0x19FC DUP5 DUP3 DUP6 ADD PUSH2 0x1218 JUMP JUMPDEST PUSH1 0x0 DUP4 ADD MSTORE POP PUSH1 0x20 DUP3 ADD CALLDATALOAD PUSH8 0xFFFFFFFFFFFFFFFF DUP2 GT ISZERO PUSH2 0x1A20 JUMPI PUSH2 0x1A1F PUSH2 0x12BE JUMP JUMPDEST JUMPDEST PUSH2 0x1A2C DUP5 DUP3 DUP6 ADD PUSH2 0x134F JUMP JUMPDEST PUSH1 0x20 DUP4 ADD MSTORE POP PUSH1 0x40 DUP3 ADD CALLDATALOAD PUSH8 0xFFFFFFFFFFFFFFFF DUP2 GT ISZERO PUSH2 0x1A50 JUMPI PUSH2 0x1A4F PUSH2 0x12BE JUMP JUMPDEST JUMPDEST PUSH2 0x1A5C DUP5 DUP3 DUP6 ADD PUSH2 0x134F JUMP JUMPDEST PUSH1 0x40 DUP4 ADD MSTORE POP PUSH1 0x60 DUP3 ADD CALLDATALOAD PUSH8 0xFFFFFFFFFFFFFFFF DUP2 GT ISZERO PUSH2 0x1A80 JUMPI PUSH2 0x1A7F PUSH2 0x12BE JUMP JUMPDEST JUMPDEST PUSH2 0x1A8C DUP5 DUP3 DUP6 ADD PUSH2 0x134F JUMP JUMPDEST PUSH1 0x60 DUP4 ADD MSTORE POP SWAP3 SWAP2 POP POP JUMP JUMPDEST PUSH1 0x0 DUP1 PUSH1 0x40 DUP4 DUP6 SUB SLT ISZERO PUSH2 0x1AAF JUMPI PUSH2 0x1AAE PUSH2 0x11C5 JUMP JUMPDEST JUMPDEST PUSH1 0x0 DUP4 ADD CALLDATALOAD PUSH8 0xFFFFFFFFFFFFFFFF DUP2 GT ISZERO PUSH2 0x1ACD JUMPI PUSH2 0x1ACC PUSH2 0x11CA JUMP JUMPDEST JUMPDEST PUSH2 0x1AD9 DUP6 DUP3 DUP7 ADD PUSH2 0x19CC JUMP JUMPDEST SWAP3 POP POP PUSH1 0x20 DUP4 ADD CALLDATALOAD PUSH8 0xFFFFFFFFFFFFFFFF DUP2 GT ISZERO PUSH2 0x1AFA JUMPI PUSH2 0x1AF9 PUSH2 0x11CA JUMP JUMPDEST JUMPDEST PUSH2 0x1B06 DUP6 DUP3 DUP7 ADD PUSH2 0x137D JUMP JUMPDEST SWAP2 POP POP SWAP3 POP SWAP3 SWAP1 POP JUMP JUMPDEST PUSH1 0x0 PUSH1 0x40 DUP4 ADD PUSH1 0x0 DUP4 ADD MLOAD PUSH2 0x1B28 PUSH1 0x0 DUP7 ADD DUP3 PUSH2 0x14E1 JUMP JUMPDEST POP PUSH1 0x20 DUP4 ADD MLOAD DUP5 DUP3 SUB PUSH1 0x20 DUP7 ADD MSTORE PUSH2 0x1B40 DUP3 DUP3 PUSH2 0x1562 JUMP JUMPDEST SWAP2 POP POP DUP1 SWAP2 POP POP SWAP3 SWAP2 POP POP JUMP JUMPDEST PUSH1 0x0 PUSH1 0x20 DUP3 ADD SWAP1 POP DUP2 DUP2 SUB PUSH1 0x0 DUP4 ADD MSTORE PUSH2 0x1B67 DUP2 DUP5 PUSH2 0x1B10 JUMP JUMPDEST SWAP1 POP SWAP3 SWAP2 POP POP JUMP JUMPDEST PUSH1 0x0 PUSH8 0xFFFFFFFFFFFFFFFF DUP3 GT ISZERO PUSH2 0x1B8A JUMPI PUSH2 0x1B89 PUSH2 0x1243 JUMP JUMPDEST JUMPDEST PUSH1 0x20 DUP3 MUL SWAP1 POP PUSH1 0x20 DUP2 ADD SWAP1 POP SWAP2 SWAP1 POP JUMP JUMPDEST PUSH1 0x0 DUP1 REVERT JUMPDEST PUSH1 0x0 PUSH2 0x1BB3 PUSH2 0x1BAE DUP5 PUSH2 0x1B6F JUMP JUMPDEST PUSH2 0x12A3 JUMP JUMPDEST SWAP1 POP DUP1 DUP4 DUP3 MSTORE PUSH1 0x20 DUP3 ADD SWAP1 POP PUSH1 0x20 DUP5 MUL DUP4 ADD DUP6 DUP2 GT ISZERO PUSH2 0x1BD6 JUMPI PUSH2 0x1BD5 PUSH2 0x1B9B JUMP JUMPDEST JUMPDEST DUP4 JUMPDEST DUP2 DUP2 LT ISZERO PUSH2 0x1C1D JUMPI DUP1 CALLDATALOAD PUSH8 0xFFFFFFFFFFFFFFFF DUP2 GT ISZERO PUSH2 0x1BFB JUMPI PUSH2 0x1BFA PUSH2 0x12C3 JUMP JUMPDEST JUMPDEST DUP1 DUP7 ADD PUSH2 0x1C08 DUP10 DUP3 PUSH2 0x134F JUMP JUMPDEST DUP6 MSTORE PUSH1 0x20 DUP6 ADD SWAP5 POP POP POP PUSH1 0x20 DUP2 ADD SWAP1 POP PUSH2 0x1BD8 JUMP JUMPDEST POP POP POP SWAP4 SWAP3 POP POP POP JUMP JUMPDEST PUSH1 0x0 DUP3 PUSH1 0x1F DUP4 ADD SLT PUSH2 0x1C3C JUMPI PUSH2 0x1C3B PUSH2 0x12C3 JUMP JUMPDEST JUMPDEST DUP2 CALLDATALOAD PUSH2 0x1C4C DUP5 DUP3 PUSH1 0x20 DUP7 ADD PUSH2 0x1BA0 JUMP JUMPDEST SWAP2 POP POP SWAP3 SWAP2 POP POP JUMP JUMPDEST PUSH1 0x0 DUP1 PUSH1 0x0 DUP1 PUSH1 0x80 DUP6 DUP8 SUB SLT ISZERO PUSH2 0x1C6F JUMPI PUSH2 0x1C6E PUSH2 0x11C5 JUMP JUMPDEST JUMPDEST PUSH1 0x0 PUSH2 0x1C7D DUP8 DUP3 DUP9 ADD PUSH2 0x1218 JUMP JUMPDEST SWAP5 POP POP PUSH1 0x20 DUP6 ADD CALLDATALOAD PUSH8 0xFFFFFFFFFFFFFFFF DUP2 GT ISZERO PUSH2 0x1C9E JUMPI PUSH2 0x1C9D PUSH2 0x11CA JUMP JUMPDEST JUMPDEST PUSH2 0x1CAA DUP8 DUP3 DUP9 ADD PUSH2 0x137D JUMP JUMPDEST SWAP4 POP POP PUSH1 0x40 DUP6 ADD CALLDATALOAD PUSH8 0xFFFFFFFFFFFFFFFF DUP2 GT ISZERO PUSH2 0x1CCB JUMPI PUSH2 0x1CCA PUSH2 0x11CA JUMP JUMPDEST JUMPDEST PUSH2 0x1CD7 DUP8 DUP3 DUP9 ADD PUSH2 0x134F JUMP JUMPDEST SWAP3 POP POP PUSH1 0x60 DUP6 ADD CALLDATALOAD PUSH8 0xFFFFFFFFFFFFFFFF DUP2 GT ISZERO PUSH2 0x1CF8 JUMPI PUSH2 0x1CF7 PUSH2 0x11CA JUMP JUMPDEST JUMPDEST PUSH2 0x1D04 DUP8 DUP3 DUP9 ADD PUSH2 0x1C27 JUMP JUMPDEST SWAP2 POP POP SWAP3 SWAP6 SWAP2 SWAP5 POP SWAP3 POP JUMP JUMPDEST PUSH1 0x0 DUP1 PUSH1 0x0 PUSH1 0x60 DUP5 DUP7 SUB SLT ISZERO PUSH2 0x1D29 JUMPI PUSH2 0x1D28 PUSH2 0x11C5 JUMP JUMPDEST JUMPDEST PUSH1 0x0 PUSH2 0x1D37 DUP7 DUP3 DUP8 ADD PUSH2 0x1218 JUMP JUMPDEST SWAP4 POP POP PUSH1 0x20 DUP5 ADD CALLDATALOAD PUSH8 0xFFFFFFFFFFFFFFFF DUP2 GT ISZERO PUSH2 0x1D58 JUMPI PUSH2 0x1D57 PUSH2 0x11CA JUMP JUMPDEST JUMPDEST PUSH2 0x1D64 DUP7 DUP3 DUP8 ADD PUSH2 0x137D JUMP JUMPDEST SWAP3 POP POP PUSH1 0x40 DUP5 ADD CALLDATALOAD PUSH8 0xFFFFFFFFFFFFFFFF DUP2 GT ISZERO PUSH2 0x1D85 JUMPI PUSH2 0x1D84 PUSH2 0x11CA JUMP JUMPDEST JUMPDEST PUSH2 0x1D91 DUP7 DUP3 DUP8 ADD PUSH2 0x1C27 JUMP JUMPDEST SWAP2 POP POP SWAP3 POP SWAP3 POP SWAP3 JUMP JUMPDEST PUSH32 0x4E487B7100000000000000000000000000000000000000000000000000000000 PUSH1 0x0 MSTORE PUSH1 0x32 PUSH1 0x4 MSTORE PUSH1 0x24 PUSH1 0x0 REVERT JUMPDEST PUSH32 0x4E487B7100000000000000000000000000000000000000000000000000000000 PUSH1 0x0 MSTORE PUSH1 0x22 PUSH1 0x4 MSTORE PUSH1 0x24 PUSH1 0x0 REVERT JUMPDEST PUSH1 0x0 PUSH1 0x2 DUP3 DIV SWAP1 POP PUSH1 0x1 DUP3 AND DUP1 PUSH2 0x1E11 JUMPI PUSH1 0x7F DUP3 AND SWAP2 POP JUMPDEST PUSH1 0x20 DUP3 LT DUP2 SUB PUSH2 0x1E24 JUMPI PUSH2 0x1E23 PUSH2 0x1DCA JUMP JUMPDEST JUMPDEST POP SWAP2 SWAP1 POP JUMP JUMPDEST PUSH32 0x4E487B7100000000000000000000000000000000000000000000000000000000 PUSH1 0x0 MSTORE PUSH1 0x11 PUSH1 0x4 MSTORE PUSH1 0x24 PUSH1 0x0 REVERT JUMPDEST PUSH1 0x0 DUP2 SWAP1 POP SWAP2 SWAP1 POP JUMP JUMPDEST PUSH1 0x0 PUSH2 0x1E6E DUP3 PUSH2 0x1E59 JUMP JUMPDEST SWAP2 POP PUSH32 0xFFFFFFFFFFFFFFFFFFFFFFFFFFFFFFFFFFFFFFFFFFFFFFFFFFFFFFFFFFFFFFFF DUP3 SUB PUSH2 0x1EA0 JUMPI PUSH2 0x1E9F PUSH2 0x1E2A JUMP JUMPDEST JUMPDEST PUSH1 0x1 DUP3 ADD SWAP1 POP SWAP2 SWAP1 POP JUMP JUMPDEST PUSH1 0x0 DUP3 DUP3 MSTORE PUSH1 0x20 DUP3 ADD SWAP1 POP SWAP3 SWAP2 POP POP JUMP JUMPDEST PUSH1 0x0 PUSH2 0x1EC7 DUP3 PUSH2 0x151C JUMP JUMPDEST PUSH2 0x1ED1 DUP2 DUP6 PUSH2 0x1EAB JUMP JUMPDEST SWAP4 POP PUSH2 0x1EE1 DUP2 DUP6 PUSH1 0x20 DUP7 ADD PUSH2 0x1538 JUMP JUMPDEST PUSH2 0x1EEA DUP2 PUSH2 0x1232 JUMP JUMPDEST DUP5 ADD SWAP2 POP POP SWAP3 SWAP2 POP POP JUMP JUMPDEST PUSH1 0x0 PUSH1 0x20 DUP3 ADD SWAP1 POP DUP2 DUP2 SUB PUSH1 0x0 DUP4 ADD MSTORE PUSH2 0x1F0F DUP2 DUP5 PUSH2 0x1EBC JUMP JUMPDEST SWAP1 POP SWAP3 SWAP2 POP POP JUMP JUMPDEST PUSH2 0x1F20 DUP2 PUSH2 0x14D5 JUMP JUMPDEST DUP2 EQ PUSH2 0x1F2B JUMPI PUSH1 0x0 DUP1 REVERT JUMPDEST POP JUMP JUMPDEST PUSH1 0x0 DUP2 MLOAD SWAP1 POP PUSH2 0x1F3D DUP2 PUSH2 0x1F17 JUMP JUMPDEST SWAP3 SWAP2 POP POP JUMP JUMPDEST PUSH1 0x0 PUSH2 0x1F56 PUSH2 0x1F51 DUP5 PUSH2 0x12CD JUMP JUMPDEST PUSH2 0x12A3 JUMP JUMPDEST SWAP1 POP DUP3 DUP2 MSTORE PUSH1 0x20 DUP2 ADD DUP5 DUP5 DUP5 ADD GT ISZERO PUSH2 0x1F72 JUMPI PUSH2 0x1F71 PUSH2 0x12C8 JUMP JUMPDEST JUMPDEST PUSH2 0x1F7D DUP5 DUP3 DUP6 PUSH2 0x1538 JUMP JUMPDEST POP SWAP4 SWAP3 POP POP POP JUMP JUMPDEST PUSH1 0x0 DUP3 PUSH1 0x1F DUP4 ADD SLT PUSH2 0x1F9A JUMPI PUSH2 0x1F99 PUSH2 0x12C3 JUMP JUMPDEST JUMPDEST DUP2 MLOAD PUSH2 0x1FAA DUP5 DUP3 PUSH1 0x20 DUP7 ADD PUSH2 0x1F43 JUMP JUMPDEST SWAP2 POP POP SWAP3 SWAP2 POP POP JUMP JUMPDEST PUSH1 0x0 DUP2 MLOAD SWAP1 POP PUSH2 0x1FC2 DUP2 PUSH2 0x1201 JUMP JUMPDEST SWAP3 SWAP2 POP POP JUMP JUMPDEST PUSH1 0x0 PUSH1 0xA0 DUP3 DUP5 SUB SLT ISZERO PUSH2 0x1FDE JUMPI PUSH2 0x1FDD PUSH2 0x122D JUMP JUMPDEST JUMPDEST PUSH2 0x1FE8 PUSH1 0xA0 PUSH2 0x12A3 JUMP JUMPDEST SWAP1 POP PUSH1 0x0 DUP3 ADD MLOAD PUSH8 0xFFFFFFFFFFFFFFFF DUP2 GT ISZERO PUSH2 0x2008 JUMPI PUSH2 0x2007 PUSH2 0x12BE JUMP JUMPDEST JUMPDEST PUSH2 0x2014 DUP5 DUP3 DUP6 ADD PUSH2 0x1F85 JUMP JUMPDEST PUSH1 0x0 DUP4 ADD MSTORE POP PUSH1 0x20 DUP3 ADD MLOAD PUSH8 0xFFFFFFFFFFFFFFFF DUP2 GT ISZERO PUSH2 0x2038 JUMPI PUSH2 0x2037 PUSH2 0x12BE JUMP JUMPDEST JUMPDEST PUSH2 0x2044 DUP5 DUP3 DUP6 ADD PUSH2 0x1F85 JUMP JUMPDEST PUSH1 0x20 DUP4 ADD MSTORE POP PUSH1 0x40 PUSH2 0x2058 DUP5 DUP3 DUP6 ADD PUSH2 0x1FB3 JUMP JUMPDEST PUSH1 0x40 DUP4 ADD MSTORE POP PUSH1 0x60 DUP3 ADD MLOAD PUSH8 0xFFFFFFFFFFFFFFFF DUP2 GT ISZERO PUSH2 0x207C JUMPI PUSH2 0x207B PUSH2 0x12BE JUMP JUMPDEST JUMPDEST PUSH2 0x2088 DUP5 DUP3 DUP6 ADD PUSH2 0x1F85 JUMP JUMPDEST PUSH1 0x60 DUP4 ADD MSTORE POP PUSH1 0x80 DUP3 ADD MLOAD PUSH8 0xFFFFFFFFFFFFFFFF DUP2 GT ISZERO PUSH2 0x20AC JUMPI PUSH2 0x20AB PUSH2 0x12BE JUMP JUMPDEST JUMPDEST PUSH2 0x20B8 DUP5 DUP3 DUP6 ADD PUSH2 0x1F85 JUMP JUMPDEST PUSH1 0x80 DUP4 ADD MSTORE POP SWAP3 SWAP2 POP POP JUMP JUMPDEST PUSH1 0x0 PUSH1 0x40 DUP3 DUP5 SUB SLT ISZERO PUSH2 0x20DA JUMPI PUSH2 0x20D9 PUSH2 0x122D JUMP JUMPDEST JUMPDEST PUSH2 0x20E4 PUSH1 0x40 PUSH2 0x12A3 JUMP JUMPDEST SWAP1 POP PUSH1 0x0 PUSH2 0x20F4 DUP5 DUP3 DUP6 ADD PUSH2 0x1F2E JUMP JUMPDEST PUSH1 0x0 DUP4 ADD MSTORE POP PUSH1 0x20 DUP3 ADD MLOAD PUSH8 0xFFFFFFFFFFFFFFFF DUP2 GT ISZERO PUSH2 0x2118 JUMPI PUSH2 0x2117 PUSH2 0x12BE JUMP JUMPDEST JUMPDEST PUSH2 0x2124 DUP5 DUP3 DUP6 ADD PUSH2 0x1FC8 JUMP JUMPDEST PUSH1 0x20 DUP4 ADD MSTORE POP SWAP3 SWAP2 POP POP JUMP JUMPDEST PUSH1 0x0 PUSH1 0x20 DUP3 DUP5 SUB SLT ISZERO PUSH2 0x2146 JUMPI PUSH2 0x2145 PUSH2 0x11C5 JUMP JUMPDEST JUMPDEST PUSH1 0x0 DUP3 ADD MLOAD PUSH8 0xFFFFFFFFFFFFFFFF DUP2 GT ISZERO PUSH2 0x2164 JUMPI PUSH2 0x2163 PUSH2 0x11CA JUMP JUMPDEST JUMPDEST PUSH2 0x2170 DUP5 DUP3 DUP6 ADD PUSH2 0x20C4 JUMP JUMPDEST SWAP2 POP POP SWAP3 SWAP2 POP POP JUMP JUMPDEST PUSH1 0x0 PUSH1 0xA0 DUP4 ADD PUSH1 0x0 DUP4 ADD MLOAD DUP5 DUP3 SUB PUSH1 0x0 DUP7 ADD MSTORE PUSH2 0x2196 DUP3 DUP3 PUSH2 0x1562 JUMP JUMPDEST SWAP2 POP POP PUSH1 0x20 DUP4 ADD MLOAD DUP5 DUP3 SUB PUSH1 0x20 DUP7 ADD MSTORE PUSH2 0x21B0 DUP3 DUP3 PUSH2 0x1562 JUMP JUMPDEST SWAP2 POP POP PUSH1 0x40 DUP4 ADD MLOAD PUSH2 0x21C5 PUSH1 0x40 DUP7 ADD DUP3 PUSH2 0x16E9 JUMP JUMPDEST POP PUSH1 0x60 DUP4 ADD MLOAD DUP5 DUP3 SUB PUSH1 0x60 DUP7 ADD MSTORE PUSH2 0x21DD DUP3 DUP3 PUSH2 0x1562 JUMP JUMPDEST SWAP2 POP POP PUSH1 0x80 DUP4 ADD MLOAD DUP5 DUP3 SUB PUSH1 0x80 DUP7 ADD MSTORE PUSH2 0x21F7 DUP3 DUP3 PUSH2 0x1562 JUMP JUMPDEST SWAP2 POP POP DUP1 SWAP2 POP POP SWAP3 SWAP2 POP POP JUMP JUMPDEST PUSH1 0x0 PUSH1 0x20 DUP3 ADD SWAP1 POP DUP2 DUP2 SUB PUSH1 0x0 DUP4 ADD MSTORE PUSH2 0x221E DUP2 DUP5 PUSH2 0x2179 JUMP JUMPDEST SWAP1 POP SWAP3 SWAP2 POP POP JUMP JUMPDEST PUSH1 0x0 DUP2 SWAP1 POP SWAP3 SWAP2 POP POP JUMP JUMPDEST PUSH1 0x0 PUSH2 0x223C DUP3 PUSH2 0x151C JUMP JUMPDEST PUSH2 0x2246 DUP2 DUP6 PUSH2 0x2226 JUMP JUMPDEST SWAP4 POP PUSH2 0x2256 DUP2 DUP6 PUSH1 0x20 DUP7 ADD PUSH2 0x1538 JUMP JUMPDEST DUP1 DUP5 ADD SWAP2 POP POP SWAP3 SWAP2 POP POP JUMP JUMPDEST PUSH1 0x0 PUSH2 0x226E DUP3 DUP5 PUSH2 0x2231 JUMP JUMPDEST SWAP2 POP DUP2 SWAP1 POP SWAP3 SWAP2 POP POP JUMP JUMPDEST PUSH1 0x0 DUP2 SWAP1 POP DUP2 PUSH1 0x0 MSTORE PUSH1 0x20 PUSH1 0x0 KECCAK256 SWAP1 POP SWAP2 SWAP1 POP JUMP JUMPDEST PUSH1 0x0 PUSH1 0x20 PUSH1 0x1F DUP4 ADD DIV SWAP1 POP SWAP2 SWAP1 POP JUMP JUMPDEST PUSH1 0x0 DUP3 DUP3 SHL SWAP1 POP SWAP3 SWAP2 POP POP JUMP JUMPDEST PUSH1 0x0 PUSH1 0x8 DUP4 MUL PUSH2 0x22DB PUSH32 0xFFFFFFFFFFFFFFFFFFFFFFFFFFFFFFFFFFFFFFFFFFFFFFFFFFFFFFFFFFFFFFFF DUP3 PUSH2 0x229E JUMP JUMPDEST PUSH2 0x22E5 DUP7 DUP4 PUSH2 0x229E JUMP JUMPDEST SWAP6 POP DUP1 NOT DUP5 AND SWAP4 POP DUP1 DUP7 AND DUP5 OR SWAP3 POP POP POP SWAP4 SWAP3 POP POP POP JUMP JUMPDEST PUSH1 0x0 DUP2 SWAP1 POP SWAP2 SWAP1 POP JUMP JUMPDEST PUSH1 0x0 PUSH2 0x2322 PUSH2 0x231D PUSH2 0x2318 DUP5 PUSH2 0x1E59 JUMP JUMPDEST PUSH2 0x22FD JUMP JUMPDEST PUSH2 0x1E59 JUMP JUMPDEST SWAP1 POP SWAP2 SWAP1 POP JUMP JUMPDEST PUSH1 0x0 DUP2 SWAP1 POP SWAP2 SWAP1 POP JUMP JUMPDEST PUSH2 0x233C DUP4 PUSH2 0x2307 JUMP JUMPDEST PUSH2 0x2350 PUSH2 0x2348 DUP3 PUSH2 0x2329 JUMP JUMPDEST DUP5 DUP5 SLOAD PUSH2 0x22AB JUMP JUMPDEST DUP3 SSTORE POP POP POP POP JUMP JUMPDEST PUSH1 0x0 SWAP1 JUMP JUMPDEST PUSH2 0x2365 PUSH2 0x2358 JUMP JUMPDEST PUSH2 0x2370 DUP2 DUP5 DUP5 PUSH2 0x2333 JUMP JUMPDEST POP POP POP JUMP JUMPDEST JUMPDEST DUP2 DUP2 LT ISZERO PUSH2 0x2394 JUMPI PUSH2 0x2389 PUSH1 0x0 DUP3 PUSH2 0x235D JUMP JUMPDEST PUSH1 0x1 DUP2 ADD SWAP1 POP PUSH2 0x2376 JUMP JUMPDEST POP POP JUMP JUMPDEST PUSH1 0x1F DUP3 GT ISZERO PUSH2 0x23D9 JUMPI PUSH2 0x23AA DUP2 PUSH2 0x2279 JUMP JUMPDEST PUSH2 0x23B3 DUP5 PUSH2 0x228E JUMP JUMPDEST DUP2 ADD PUSH1 0x20 DUP6 LT ISZERO PUSH2 0x23C2 JUMPI DUP2 SWAP1 POP JUMPDEST PUSH2 0x23D6 PUSH2 0x23CE DUP6 PUSH2 0x228E JUMP JUMPDEST DUP4 ADD DUP3 PUSH2 0x2375 JUMP JUMPDEST POP POP JUMPDEST POP POP POP JUMP JUMPDEST PUSH1 0x0 DUP3 DUP3 SHR SWAP1 POP SWAP3 SWAP2 POP POP JUMP JUMPDEST PUSH1 0x0 PUSH2 0x23FC PUSH1 0x0 NOT DUP5 PUSH1 0x8 MUL PUSH2 0x23DE JUMP JUMPDEST NOT DUP1 DUP4 AND SWAP2 POP POP SWAP3 SWAP2 POP POP JUMP JUMPDEST PUSH1 0x0 PUSH2 0x2415 DUP4 DUP4 PUSH2 0x23EB JUMP JUMPDEST SWAP2 POP DUP3 PUSH1 0x2 MUL DUP3 OR SWAP1 POP SWAP3 SWAP2 POP POP JUMP JUMPDEST PUSH2 0x242E DUP3 PUSH2 0x151C JUMP JUMPDEST PUSH8 0xFFFFFFFFFFFFFFFF DUP2 GT ISZERO PUSH2 0x2447 JUMPI PUSH2 0x2446 PUSH2 0x1243 JUMP JUMPDEST JUMPDEST PUSH2 0x2451 DUP3 SLOAD PUSH2 0x1DF9 JUMP JUMPDEST PUSH2 0x245C DUP3 DUP3 DUP6 PUSH2 0x2398 JUMP JUMPDEST PUSH1 0x0 PUSH1 0x20 SWAP1 POP PUSH1 0x1F DUP4 GT PUSH1 0x1 DUP2 EQ PUSH2 0x248F JUMPI PUSH1 0x0 DUP5 ISZERO PUSH2 0x247D JUMPI DUP3 DUP8 ADD MLOAD SWAP1 POP JUMPDEST PUSH2 0x2487 DUP6 DUP3 PUSH2 0x2409 JUMP JUMPDEST DUP7 SSTORE POP PUSH2 0x24EF JUMP JUMPDEST PUSH1 0x1F NOT DUP5 AND PUSH2 0x249D DUP7 PUSH2 0x2279 JUMP JUMPDEST PUSH1 0x0 JUMPDEST DUP3 DUP2 LT ISZERO PUSH2 0x24C5 JUMPI DUP5 DUP10 ADD MLOAD DUP3 SSTORE PUSH1 0x1 DUP3 ADD SWAP2 POP PUSH1 0x20 DUP6 ADD SWAP5 POP PUSH1 0x20 DUP2 ADD SWAP1 POP PUSH2 0x24A0 JUMP JUMPDEST DUP7 DUP4 LT ISZERO PUSH2 0x24E2 JUMPI DUP5 DUP10 ADD MLOAD PUSH2 0x24DE PUSH1 0x1F DUP10 AND DUP3 PUSH2 0x23EB JUMP JUMPDEST DUP4 SSTORE POP JUMPDEST PUSH1 0x1 PUSH1 0x2 DUP9 MUL ADD DUP9 SSTORE POP POP POP JUMPDEST POP POP POP POP POP POP JUMP INVALID LOG2 PUSH5 0x6970667358 0x22 SLT KECCAK256 CALLDATACOPY PUSH9 0xCCD708EAE6ED2EBF53 PUSH29 0x71CEDCEBE27FF85C0AE56A21C1E270021DAEFE7E64736F6C6343000813 STOP CALLER "},"methodIdentifiers":{"addUserHasFile(address,(string,string,address,string,string),string,string[])":"e886e6e3","getEncSymmetricKeyFileUser((address,string,string,string),(string,string,address,string,string))":"5d02eece","getPermissionsOverFile(address,(string,string,address,string,string))":"1c0c2891","getUserFiles(address)":"1fc37922","isKeyEqual(address,address,string,string)":"5c99c71b","shareFile(address,(string,string,address,string,string),string,string[])":"a2a0307d","updateUserFilePermissions(address,(string,string,address,string,string),string[])":"b509210c","uploadFile(address,(string,string,address,string,string),string)":"25b97d6c","userAssociatedWithFile(address,(string,string,address,string,string))":"7b371f75"}}}}}