{"contracts/FileRegister.sol":{"FileRegister":{"abi":[{"inputs":[{"internalType":"address","name":"helperContract","type":"address"}],"stateMutability":"nonpayable","type":"constructor"},{"inputs":[{"components":[{"internalType":"string","name":"ipfsCID","type":"string"},{"internalType":"string","name":"fileName","type":"string"},{"internalType":"int256","name":"version","type":"int256"},{"internalType":"string","name":"prevIpfsCID","type":"string"},{"internalType":"address","name":"owner","type":"address"},{"internalType":"string","name":"fileType","type":"string"},{"internalType":"string","name":"iv","type":"string"},{"internalType":"string","name":"state","type":"string"},{"internalType":"string","name":"fileHash","type":"string"}],"internalType":"struct FileRegister.File","name":"file","type":"tuple"}],"name":"addFile","outputs":[],"stateMutability":"nonpayable","type":"function"},{"inputs":[{"components":[{"internalType":"string","name":"ipfsCID","type":"string"},{"internalType":"string","name":"fileName","type":"string"},{"internalType":"int256","name":"version","type":"int256"},{"internalType":"string","name":"prevIpfsCID","type":"string"},{"internalType":"address","name":"owner","type":"address"},{"internalType":"string","name":"fileType","type":"string"},{"internalType":"string","name":"iv","type":"string"},{"internalType":"string","name":"state","type":"string"},{"internalType":"string","name":"fileHash","type":"string"}],"internalType":"struct FileRegister.File","name":"file","type":"tuple"}],"name":"canAddFile","outputs":[{"internalType":"bool","name":"","type":"bool"}],"stateMutability":"view","type":"function"},{"inputs":[{"internalType":"string","name":"fileIpfsCid","type":"string"}],"name":"deactivateFile","outputs":[],"stateMutability":"nonpayable","type":"function"},{"inputs":[{"components":[{"internalType":"string","name":"ipfsCID","type":"string"},{"internalType":"string","name":"fileName","type":"string"},{"internalType":"int256","name":"version","type":"int256"},{"internalType":"string","name":"prevIpfsCID","type":"string"},{"internalType":"address","name":"owner","type":"address"},{"internalType":"string","name":"fileType","type":"string"},{"internalType":"string","name":"iv","type":"string"},{"internalType":"string","name":"state","type":"string"},{"internalType":"string","name":"fileHash","type":"string"}],"internalType":"struct FileRegister.File","name":"selectedFile","type":"tuple"},{"components":[{"internalType":"string","name":"ipfsCID","type":"string"},{"internalType":"string","name":"fileName","type":"string"},{"internalType":"int256","name":"version","type":"int256"},{"internalType":"string","name":"prevIpfsCID","type":"string"},{"internalType":"address","name":"owner","type":"address"},{"internalType":"string","name":"fileType","type":"string"},{"internalType":"string","name":"iv","type":"string"},{"internalType":"string","name":"state","type":"string"},{"internalType":"string","name":"fileHash","type":"string"}],"internalType":"struct FileRegister.File","name":"newFile","type":"tuple"}],"name":"editFile","outputs":[],"stateMutability":"nonpayable","type":"function"},{"inputs":[{"internalType":"string","name":"fileIpfsCID","type":"string"}],"name":"fileExists","outputs":[{"internalType":"bool","name":"","type":"bool"}],"stateMutability":"view","type":"function"},{"inputs":[{"internalType":"string","name":"fileIpfsCid","type":"string"}],"name":"getEditedFileByIpfsCid","outputs":[{"components":[{"internalType":"bool","name":"success","type":"bool"},{"components":[{"internalType":"string","name":"ipfsCID","type":"string"},{"internalType":"string","name":"fileName","type":"string"},{"internalType":"int256","name":"version","type":"int256"},{"internalType":"string","name":"prevIpfsCID","type":"string"},{"internalType":"address","name":"owner","type":"address"},{"internalType":"string","name":"fileType","type":"string"},{"internalType":"string","name":"iv","type":"string"},{"internalType":"string","name":"state","type":"string"},{"internalType":"string","name":"fileHash","type":"string"}],"internalType":"struct FileRegister.File[]","name":"files","type":"tuple[]"}],"internalType":"struct FileRegister.ResultFiles","name":"","type":"tuple"}],"stateMutability":"view","type":"function"},{"inputs":[{"internalType":"string","name":"fileIpfsCid","type":"string"},{"internalType":"string","name":"state","type":"string"}],"name":"getFileByIpfsCID","outputs":[{"components":[{"internalType":"bool","name":"success","type":"bool"},{"components":[{"internalType":"string","name":"ipfsCID","type":"string"},{"internalType":"string","name":"fileName","type":"string"},{"internalType":"int256","name":"version","type":"int256"},{"internalType":"string","name":"prevIpfsCID","type":"string"},{"internalType":"address","name":"owner","type":"address"},{"internalType":"string","name":"fileType","type":"string"},{"internalType":"string","name":"iv","type":"string"},{"internalType":"string","name":"state","type":"string"},{"internalType":"string","name":"fileHash","type":"string"}],"internalType":"struct FileRegister.File","name":"file","type":"tuple"}],"internalType":"struct FileRegister.ResultFile","name":"","type":"tuple"}],"stateMutability":"view","type":"function"},{"inputs":[{"internalType":"string","name":"fileIpfsCID","type":"string"}],"name":"getFileHash","outputs":[{"components":[{"internalType":"bool","name":"success","type":"bool"},{"internalType":"string","name":"resultString","type":"string"}],"internalType":"struct Helper.ResultString","name":"","type":"tuple"}],"stateMutability":"view","type":"function"},{"inputs":[{"internalType":"string","name":"fileName","type":"string"}],"name":"getFileOwner","outputs":[{"internalType":"address","name":"","type":"address"}],"stateMutability":"view","type":"function"},{"inputs":[{"internalType":"string","name":"fileIpfsCID","type":"string"}],"name":"getFileState","outputs":[{"components":[{"internalType":"bool","name":"success","type":"bool"},{"internalType":"string","name":"resultString","type":"string"}],"internalType":"struct Helper.ResultString","name":"","type":"tuple"}],"stateMutability":"view","type":"function"},{"inputs":[{"internalType":"string","name":"name","type":"string"}],"name":"getIpfsCIDsForName","outputs":[{"internalType":"string[]","name":"","type":"string[]"}],"stateMutability":"view","type":"function"},{"inputs":[{"internalType":"string","name":"fileName","type":"string"}],"name":"getLatestVersionOfFile","outputs":[{"internalType":"int256","name":"","type":"int256"}],"stateMutability":"view","type":"function"},{"inputs":[{"internalType":"address","name":"accessControlContractAddress","type":"address"}],"name":"setAccessControlAddress","outputs":[],"stateMutability":"nonpayable","type":"function"},{"inputs":[{"internalType":"address","name":"userAccount","type":"address"},{"internalType":"string","name":"fileIpfsCID","type":"string"}],"name":"userIsFileOwner","outputs":[{"internalType":"bool","name":"","type":"bool"}],"stateMutability":"view","type":"function"}],"evm":{"bytecode":{"linkReferences":{},"object":"60806040523480156200001157600080fd5b5060405162003948380380620039488339818101604052810190620000379190620000e9565b80600260006101000a81548173ffffffffffffffffffffffffffffffffffffffff021916908373ffffffffffffffffffffffffffffffffffffffff160217905550506200011b565b600080fd5b600073ffffffffffffffffffffffffffffffffffffffff82169050919050565b6000620000b18262000084565b9050919050565b620000c381620000a4565b8114620000cf57600080fd5b50565b600081519050620000e381620000b8565b92915050565b6000602082840312156200010257620001016200007f565b5b60006200011284828501620000d2565b91505092915050565b61381d806200012b6000396000f3fe608060405234801561001057600080fd5b50600436106100e95760003560e01c806374546fdf1161008c578063bfddc42f11610066578063bfddc42f146102a6578063e5a83513146102c2578063e8d56b8b146102f2578063f880680b1461030e576100e9565b806374546fdf1461023e57806395f0f0bb1461025a5780639bccd6ad14610276576100e9565b80634907904b116100c85780634907904b1461017e57806352a9baef146101ae5780635a14f3ef146101de5780637113c4dd1461020e576100e9565b8062438ceb146100ee57806338fa8f581461011e57806347eb6fa71461014e575b600080fd5b6101086004803603810190610103919061278c565b61033e565b60405161011591906128ac565b60405180910390f35b6101386004803603810190610133919061278c565b610492565b604051610145919061290f565b60405180910390f35b6101686004803603810190610163919061292a565b610606565b6040516101759190612af6565b60405180910390f35b6101986004803603810190610193919061278c565b610c95565b6040516101a59190612b27565b60405180910390f35b6101c860048036038101906101c39190612b6e565b610e04565b6040516101d59190612bd9565b60405180910390f35b6101f860048036038101906101f39190612dce565b610ee8565b6040516102059190612bd9565b60405180910390f35b6102286004803603810190610223919061278c565b61100d565b6040516102359190612ed9565b60405180910390f35b6102586004803603810190610253919061278c565b6112af565b005b610274600480360381019061026f9190612efb565b61136c565b005b610290600480360381019061028b919061278c565b61161a565b60405161029d9190612bd9565b60405180910390f35b6102c060048036038101906102bb9190612dce565b6116be565b005b6102dc60048036038101906102d7919061278c565b6118ed565b6040516102e99190613072565b60405180910390f35b61030c60048036038101906103079190613094565b61234d565b005b6103286004803603810190610323919061278c565b612422565b60405161033591906128ac565b60405180910390f35b610346612576565b600360009054906101000a900473ffffffffffffffffffffffffffffffffffffffff1673ffffffffffffffffffffffffffffffffffffffff163373ffffffffffffffffffffffffffffffffffffffff16036104635760405180604001604052806001151581526020016000846040516103bf91906130fd565b908152602001604051809103902060070180546103db90613143565b80601f016020809104026020016040519081016040528092919081815260200182805461040790613143565b80156104545780601f1061042957610100808354040283529160200191610454565b820191906000526020600020905b81548152906001019060200180831161043757829003601f168201915b5050505050815250905061048d565b60405180604001604052806000151581526020016040518060200160405280600081525081525090505b919050565b600080600090505b6001805490508110156105fb57826040516020016104b891906130fd565b604051602081830303815290604052805190602001206000600183815481106104e4576104e3613174565b5b906000526020600020016040516104fb919061323b565b908152602001604051809103902060010160405160200161051c919061323b565b6040516020818303038152906040528051906020012014801561057c57506000806001838154811061055157610550613174565b5b90600052602060002001604051610568919061323b565b908152602001604051809103902060020154145b156105e85760006001828154811061059757610596613174565b5b906000526020600020016040516105ae919061323b565b908152602001604051809103902060040160009054906101000a900473ffffffffffffffffffffffffffffffffffffffff16915050610601565b80806105f39061328b565b91505061049a565b50600090505b919050565b61060e612592565b6000808460405161061f91906130fd565b9081526020016040518091039020600101805461063b90613143565b905011801561070957508160405160200161065691906130fd565b6040516020818303038152906040528051906020012060008460405161067c91906130fd565b908152602001604051809103902060070160405160200161069d919061323b565b60405160208183030381529060405280519060200120148061070857506040516020016106c9906132f9565b60405160208183030381529060405280519060200120826040516020016106f091906130fd565b60405160208183030381529060405280519060200120145b5b15610bb457604051806040016040528060011515815260200160008560405161073291906130fd565b90815260200160405180910390206040518061012001604052908160008201805461075c90613143565b80601f016020809104026020016040519081016040528092919081815260200182805461078890613143565b80156107d55780601f106107aa576101008083540402835291602001916107d5565b820191906000526020600020905b8154815290600101906020018083116107b857829003601f168201915b505050505081526020016001820180546107ee90613143565b80601f016020809104026020016040519081016040528092919081815260200182805461081a90613143565b80156108675780601f1061083c57610100808354040283529160200191610867565b820191906000526020600020905b81548152906001019060200180831161084a57829003601f168201915b505050505081526020016002820154815260200160038201805461088a90613143565b80601f01602080910402602001604051908101604052809291908181526020018280546108b690613143565b80156109035780601f106108d857610100808354040283529160200191610903565b820191906000526020600020905b8154815290600101906020018083116108e657829003601f168201915b505050505081526020016004820160009054906101000a900473ffffffffffffffffffffffffffffffffffffffff1673ffffffffffffffffffffffffffffffffffffffff1673ffffffffffffffffffffffffffffffffffffffff16815260200160058201805461097290613143565b80601f016020809104026020016040519081016040528092919081815260200182805461099e90613143565b80156109eb5780601f106109c0576101008083540402835291602001916109eb565b820191906000526020600020905b8154815290600101906020018083116109ce57829003601f168201915b50505050508152602001600682018054610a0490613143565b80601f0160208091040260200160405190810160405280929190818152602001828054610a3090613143565b8015610a7d5780601f10610a5257610100808354040283529160200191610a7d565b820191906000526020600020905b815481529060010190602001808311610a6057829003601f168201915b50505050508152602001600782018054610a9690613143565b80601f0160208091040260200160405190810160405280929190818152602001828054610ac290613143565b8015610b0f5780601f10610ae457610100808354040283529160200191610b0f565b820191906000526020600020905b815481529060010190602001808311610af257829003601f168201915b50505050508152602001600882018054610b2890613143565b80601f0160208091040260200160405190810160405280929190818152602001828054610b5490613143565b8015610ba15780601f10610b7657610100808354040283529160200191610ba1565b820191906000526020600020905b815481529060010190602001808311610b8457829003601f168201915b5050505050815250508152509050610c8f565b604051806040016040528060001515815260200160405180610120016040528060405180602001604052806000815250815260200160405180602001604052806000815250815260200160008152602001604051806020016040528060008152508152602001600073ffffffffffffffffffffffffffffffffffffffff1681526020016040518060200160405280600081525081526020016040518060200160405280600081525081526020016040518060200160405280600081525081526020016040518060200160405280600081525081525081525090505b92915050565b6000807fffffffffffffffffffffffffffffffffffffffffffffffffffffffffffffffff905060005b600180549050811015610dfa5783604051602001610cdc91906130fd565b60405160208183030381529060405280519060200120600060018381548110610d0857610d07613174565b5b90600052602060002001604051610d1f919061323b565b9081526020016040518091039020600101604051602001610d40919061323b565b60405160208183030381529060405280519060200120148015610da0575081600060018381548110610d7557610d74613174565b5b90600052602060002001604051610d8c919061323b565b908152602001604051809103902060020154135b15610de757600060018281548110610dbb57610dba613174565b5b90600052602060002001604051610dd2919061323b565b90815260200160405180910390206002015491505b8080610df29061328b565b915050610cbe565b5080915050919050565b60008273ffffffffffffffffffffffffffffffffffffffff16600083604051610e2d91906130fd565b908152602001604051809103902060040160009054906101000a900473ffffffffffffffffffffffffffffffffffffffff1673ffffffffffffffffffffffffffffffffffffffff16148015610ecf5750600360009054906101000a900473ffffffffffffffffffffffffffffffffffffffff1673ffffffffffffffffffffffffffffffffffffffff163373ffffffffffffffffffffffffffffffffffffffff16145b15610edd5760019050610ee2565b600090505b92915050565b6000610ef7826000015161161a565b158015610f9c5750600260009054906101000a900473ffffffffffffffffffffffffffffffffffffffff1673ffffffffffffffffffffffffffffffffffffffff16634294a5ad836040518263ffffffff1660e01b8152600401610f5a91906133fd565b602060405180830381865afa158015610f77573d6000803e3d6000fd5b505050506040513d601f19601f82011682018060405250810190610f9b919061344b565b5b8015610ff55750600360009054906101000a900473ffffffffffffffffffffffffffffffffffffffff1673ffffffffffffffffffffffffffffffffffffffff163373ffffffffffffffffffffffffffffffffffffffff16145b156110035760019050611008565b600090505b919050565b6060600060018054905067ffffffffffffffff8111156110305761102f612661565b5b60405190808252806020026020018201604052801561106357816020015b606081526020019060019003908161104e5790505b5090506000805b6001805490508110156112a1578460405160200161108891906130fd565b604051602081830303815290604052805190602001206000600183815481106110b4576110b3613174565b5b906000526020600020016040516110cb919061323b565b90815260200160405180910390206001016040516020016110ec919061323b565b604051602081830303815290604052805190602001201480156111955750604051602001611119906134c4565b6040516020818303038152906040528051906020012060006001838154811061114557611144613174565b5b9060005260206000200160405161115c919061323b565b908152602001604051809103902060070160405160200161117d919061323b565b60405160208183030381529060405280519060200120145b1561128e576000600182815481106111b0576111af613174565b5b906000526020600020016040516111c7919061323b565b908152602001604051809103902060000180546111e390613143565b80601f016020809104026020016040519081016040528092919081815260200182805461120f90613143565b801561125c5780601f106112315761010080835404028352916020019161125c565b820191906000526020600020905b81548152906001019060200180831161123f57829003601f168201915b505050505083838151811061127457611273613174565b5b6020026020010181905250818061128a9061328b565b9250505b80806112999061328b565b91505061106a565b508082528192505050919050565b600360009054906101000a900473ffffffffffffffffffffffffffffffffffffffff1673ffffffffffffffffffffffffffffffffffffffff163373ffffffffffffffffffffffffffffffffffffffff1603611369576040518060400160405280600881526020017f646561637469766500000000000000000000000000000000000000000000000081525060008260405161134a91906130fd565b908152602001604051809103902060070190816113679190613670565b505b50565b600360009054906101000a900473ffffffffffffffffffffffffffffffffffffffff1673ffffffffffffffffffffffffffffffffffffffff163373ffffffffffffffffffffffffffffffffffffffff1603611616576040518060400160405280600681526020017f65646974656400000000000000000000000000000000000000000000000000008152506000836000015160405161140b91906130fd565b908152602001604051809103902060070190816114289190613670565b508160800151816080019073ffffffffffffffffffffffffffffffffffffffff16908173ffffffffffffffffffffffffffffffffffffffff168152505081600001518160600181905250600182604001516114839190613742565b8160400181815250506040518060400160405280600681526020017f61637469766500000000000000000000000000000000000000000000000000008152508160e0018190525080600082600001516040516114df91906130fd565b908152602001604051809103902060008201518160000190816115029190613670565b5060208201518160010190816115189190613670565b506040820151816002015560608201518160030190816115389190613670565b5060808201518160040160006101000a81548173ffffffffffffffffffffffffffffffffffffffff021916908373ffffffffffffffffffffffffffffffffffffffff16021790555060a08201518160050190816115959190613670565b5060c08201518160060190816115ab9190613670565b5060e08201518160070190816115c19190613670565b506101008201518160080190816115d89190613670565b50905050600181600001519080600181540180825580915050600190039060005260206000200160009091909190915090816116149190613670565b505b5050565b60008060008360405161162d91906130fd565b9081526020016040518091039020600001805461164990613143565b9050141580156116a65750600360009054906101000a900473ffffffffffffffffffffffffffffffffffffffff1673ffffffffffffffffffffffffffffffffffffffff163373ffffffffffffffffffffffffffffffffffffffff16145b156116b457600190506116b9565b600090505b919050565b600360009054906101000a900473ffffffffffffffffffffffffffffffffffffffff1673ffffffffffffffffffffffffffffffffffffffff163373ffffffffffffffffffffffffffffffffffffffff16036118ea5761171c81610ee8565b156118e9576040518060400160405280600681526020017f61637469766500000000000000000000000000000000000000000000000000008152508160e001819052506040518060400160405280600181526020017f3000000000000000000000000000000000000000000000000000000000000000815250816060018190525080600082600001516040516117b291906130fd565b908152602001604051809103902060008201518160000190816117d59190613670565b5060208201518160010190816117eb9190613670565b5060408201518160020155606082015181600301908161180b9190613670565b5060808201518160040160006101000a81548173ffffffffffffffffffffffffffffffffffffffff021916908373ffffffffffffffffffffffffffffffffffffffff16021790555060a08201518160050190816118689190613670565b5060c082015181600601908161187e9190613670565b5060e08201518160070190816118949190613670565b506101008201518160080190816118ab9190613670565b50905050600181600001519080600181540180825580915050600190039060005260206000200160009091909190915090816118e79190613670565b505b5b50565b6118f56125b4565b600060018054905067ffffffffffffffff81111561191657611915612661565b5b60405190808252806020026020018201604052801561194f57816020015b61193c6125d0565b8152602001906001900390816119345790505b5090506000808460405161196391906130fd565b90815260200160405180910390206040518061012001604052908160008201805461198d90613143565b80601f01602080910402602001604051908101604052809291908181526020018280546119b990613143565b8015611a065780601f106119db57610100808354040283529160200191611a06565b820191906000526020600020905b8154815290600101906020018083116119e957829003601f168201915b50505050508152602001600182018054611a1f90613143565b80601f0160208091040260200160405190810160405280929190818152602001828054611a4b90613143565b8015611a985780601f10611a6d57610100808354040283529160200191611a98565b820191906000526020600020905b815481529060010190602001808311611a7b57829003601f168201915b5050505050815260200160028201548152602001600382018054611abb90613143565b80601f0160208091040260200160405190810160405280929190818152602001828054611ae790613143565b8015611b345780601f10611b0957610100808354040283529160200191611b34565b820191906000526020600020905b815481529060010190602001808311611b1757829003601f168201915b505050505081526020016004820160009054906101000a900473ffffffffffffffffffffffffffffffffffffffff1673ffffffffffffffffffffffffffffffffffffffff1673ffffffffffffffffffffffffffffffffffffffff168152602001600582018054611ba390613143565b80601f0160208091040260200160405190810160405280929190818152602001828054611bcf90613143565b8015611c1c5780601f10611bf157610100808354040283529160200191611c1c565b820191906000526020600020905b815481529060010190602001808311611bff57829003601f168201915b50505050508152602001600682018054611c3590613143565b80601f0160208091040260200160405190810160405280929190818152602001828054611c6190613143565b8015611cae5780601f10611c8357610100808354040283529160200191611cae565b820191906000526020600020905b815481529060010190602001808311611c9157829003601f168201915b50505050508152602001600782018054611cc790613143565b80601f0160208091040260200160405190810160405280929190818152602001828054611cf390613143565b8015611d405780601f10611d1557610100808354040283529160200191611d40565b820191906000526020600020905b815481529060010190602001808311611d2357829003601f168201915b50505050508152602001600882018054611d5990613143565b80601f0160208091040260200160405190810160405280929190818152602001828054611d8590613143565b8015611dd25780601f10611da757610100808354040283529160200191611dd2565b820191906000526020600020905b815481529060010190602001808311611db557829003601f168201915b505050505081525050905060005b604051602001611def906137d2565b604051602081830303815290604052805190602001208260600151604051602001611e1a91906130fd565b60405160208183030381529060405280519060200120146122fb5781838281518110611e4957611e48613174565b5b60200260200101819052508080611e5f9061328b565b915050600082606001519050600081604051611e7b91906130fd565b908152602001604051809103902060405180610120016040529081600082018054611ea590613143565b80601f0160208091040260200160405190810160405280929190818152602001828054611ed190613143565b8015611f1e5780601f10611ef357610100808354040283529160200191611f1e565b820191906000526020600020905b815481529060010190602001808311611f0157829003601f168201915b50505050508152602001600182018054611f3790613143565b80601f0160208091040260200160405190810160405280929190818152602001828054611f6390613143565b8015611fb05780601f10611f8557610100808354040283529160200191611fb0565b820191906000526020600020905b815481529060010190602001808311611f9357829003601f168201915b5050505050815260200160028201548152602001600382018054611fd390613143565b80601f0160208091040260200160405190810160405280929190818152602001828054611fff90613143565b801561204c5780601f106120215761010080835404028352916020019161204c565b820191906000526020600020905b81548152906001019060200180831161202f57829003601f168201915b505050505081526020016004820160009054906101000a900473ffffffffffffffffffffffffffffffffffffffff1673ffffffffffffffffffffffffffffffffffffffff1673ffffffffffffffffffffffffffffffffffffffff1681526020016005820180546120bb90613143565b80601f01602080910402602001604051908101604052809291908181526020018280546120e790613143565b80156121345780601f1061210957610100808354040283529160200191612134565b820191906000526020600020905b81548152906001019060200180831161211757829003601f168201915b5050505050815260200160068201805461214d90613143565b80601f016020809104026020016040519081016040528092919081815260200182805461217990613143565b80156121c65780601f1061219b576101008083540402835291602001916121c6565b820191906000526020600020905b8154815290600101906020018083116121a957829003601f168201915b505050505081526020016007820180546121df90613143565b80601f016020809104026020016040519081016040528092919081815260200182805461220b90613143565b80156122585780601f1061222d57610100808354040283529160200191612258565b820191906000526020600020905b81548152906001019060200180831161223b57829003601f168201915b5050505050815260200160088201805461227190613143565b80601f016020809104026020016040519081016040528092919081815260200182805461229d90613143565b80156122ea5780601f106122bf576101008083540402835291602001916122ea565b820191906000526020600020905b8154815290600101906020018083116122cd57829003601f168201915b505050505081525050925050611de0565b8183828151811061230f5761230e613174565b5b602002602001018190525080806123259061328b565b9150508083526040518060400160405280600115158152602001848152509350505050919050565b600073ffffffffffffffffffffffffffffffffffffffff168173ffffffffffffffffffffffffffffffffffffffff16141580156123d85750600073ffffffffffffffffffffffffffffffffffffffff16600360009054906101000a900473ffffffffffffffffffffffffffffffffffffffff1673ffffffffffffffffffffffffffffffffffffffff16145b1561241f5780600360006101000a81548173ffffffffffffffffffffffffffffffffffffffff021916908373ffffffffffffffffffffffffffffffffffffffff1602179055505b50565b61242a612576565b600360009054906101000a900473ffffffffffffffffffffffffffffffffffffffff1673ffffffffffffffffffffffffffffffffffffffff163373ffffffffffffffffffffffffffffffffffffffff16036125475760405180604001604052806001151581526020016000846040516124a391906130fd565b908152602001604051809103902060080180546124bf90613143565b80601f01602080910402602001604051908101604052809291908181526020018280546124eb90613143565b80156125385780601f1061250d57610100808354040283529160200191612538565b820191906000526020600020905b81548152906001019060200180831161251b57829003601f168201915b50505050508152509050612571565b60405180604001604052806000151581526020016040518060200160405280600081525081525090505b919050565b6040518060400160405280600015158152602001606081525090565b60405180604001604052806000151581526020016125ae6125d0565b81525090565b6040518060400160405280600015158152602001606081525090565b60405180610120016040528060608152602001606081526020016000815260200160608152602001600073ffffffffffffffffffffffffffffffffffffffff168152602001606081526020016060815260200160608152602001606081525090565b6000604051905090565b600080fd5b600080fd5b600080fd5b600080fd5b6000601f19601f8301169050919050565b7f4e487b7100000000000000000000000000000000000000000000000000000000600052604160045260246000fd5b61269982612650565b810181811067ffffffffffffffff821117156126b8576126b7612661565b5b80604052505050565b60006126cb612632565b90506126d78282612690565b919050565b600067ffffffffffffffff8211156126f7576126f6612661565b5b61270082612650565b9050602081019050919050565b82818337600083830152505050565b600061272f61272a846126dc565b6126c1565b90508281526020810184848401111561274b5761274a61264b565b5b61275684828561270d565b509392505050565b600082601f83011261277357612772612646565b5b813561278384826020860161271c565b91505092915050565b6000602082840312156127a2576127a161263c565b5b600082013567ffffffffffffffff8111156127c0576127bf612641565b5b6127cc8482850161275e565b91505092915050565b60008115159050919050565b6127ea816127d5565b82525050565b600081519050919050565b600082825260208201905092915050565b60005b8381101561282a57808201518184015260208101905061280f565b60008484015250505050565b6000612841826127f0565b61284b81856127fb565b935061285b81856020860161280c565b61286481612650565b840191505092915050565b600060408301600083015161288760008601826127e1565b506020830151848203602086015261289f8282612836565b9150508091505092915050565b600060208201905081810360008301526128c6818461286f565b905092915050565b600073ffffffffffffffffffffffffffffffffffffffff82169050919050565b60006128f9826128ce565b9050919050565b612909816128ee565b82525050565b60006020820190506129246000830184612900565b92915050565b600080604083850312156129415761294061263c565b5b600083013567ffffffffffffffff81111561295f5761295e612641565b5b61296b8582860161275e565b925050602083013567ffffffffffffffff81111561298c5761298b612641565b5b6129988582860161275e565b9150509250929050565b6000819050919050565b6129b5816129a2565b82525050565b6129c4816128ee565b82525050565b60006101208301600083015184820360008601526129e88282612836565b91505060208301518482036020860152612a028282612836565b9150506040830151612a1760408601826129ac565b5060608301518482036060860152612a2f8282612836565b9150506080830151612a4460808601826129bb565b5060a083015184820360a0860152612a5c8282612836565b91505060c083015184820360c0860152612a768282612836565b91505060e083015184820360e0860152612a908282612836565b915050610100830151848203610100860152612aac8282612836565b9150508091505092915050565b6000604083016000830151612ad160008601826127e1565b5060208301518482036020860152612ae982826129ca565b9150508091505092915050565b60006020820190508181036000830152612b108184612ab9565b905092915050565b612b21816129a2565b82525050565b6000602082019050612b3c6000830184612b18565b92915050565b612b4b816128ee565b8114612b5657600080fd5b50565b600081359050612b6881612b42565b92915050565b60008060408385031215612b8557612b8461263c565b5b6000612b9385828601612b59565b925050602083013567ffffffffffffffff811115612bb457612bb3612641565b5b612bc08582860161275e565b9150509250929050565b612bd3816127d5565b82525050565b6000602082019050612bee6000830184612bca565b92915050565b600080fd5b600080fd5b612c07816129a2565b8114612c1257600080fd5b50565b600081359050612c2481612bfe565b92915050565b60006101208284031215612c4157612c40612bf4565b5b612c4c6101206126c1565b9050600082013567ffffffffffffffff811115612c6c57612c6b612bf9565b5b612c788482850161275e565b600083015250602082013567ffffffffffffffff811115612c9c57612c9b612bf9565b5b612ca88482850161275e565b6020830152506040612cbc84828501612c15565b604083015250606082013567ffffffffffffffff811115612ce057612cdf612bf9565b5b612cec8482850161275e565b6060830152506080612d0084828501612b59565b60808301525060a082013567ffffffffffffffff811115612d2457612d23612bf9565b5b612d308482850161275e565b60a08301525060c082013567ffffffffffffffff811115612d5457612d53612bf9565b5b612d608482850161275e565b60c08301525060e082013567ffffffffffffffff811115612d8457612d83612bf9565b5b612d908482850161275e565b60e08301525061010082013567ffffffffffffffff811115612db557612db4612bf9565b5b612dc18482850161275e565b6101008301525092915050565b600060208284031215612de457612de361263c565b5b600082013567ffffffffffffffff811115612e0257612e01612641565b5b612e0e84828501612c2a565b91505092915050565b600081519050919050565b600082825260208201905092915050565b6000819050602082019050919050565b6000612e4f8383612836565b905092915050565b6000602082019050919050565b6000612e6f82612e17565b612e798185612e22565b935083602082028501612e8b85612e33565b8060005b85811015612ec75784840389528151612ea88582612e43565b9450612eb383612e57565b925060208a01995050600181019050612e8f565b50829750879550505050505092915050565b60006020820190508181036000830152612ef38184612e64565b905092915050565b60008060408385031215612f1257612f1161263c565b5b600083013567ffffffffffffffff811115612f3057612f2f612641565b5b612f3c85828601612c2a565b925050602083013567ffffffffffffffff811115612f5d57612f5c612641565b5b612f6985828601612c2a565b9150509250929050565b600081519050919050565b600082825260208201905092915050565b6000819050602082019050919050565b6000612fab83836129ca565b905092915050565b6000602082019050919050565b6000612fcb82612f73565b612fd58185612f7e565b935083602082028501612fe785612f8f565b8060005b8581101561302357848403895281516130048582612f9f565b945061300f83612fb3565b925060208a01995050600181019050612feb565b50829750879550505050505092915050565b600060408301600083015161304d60008601826127e1565b50602083015184820360208601526130658282612fc0565b9150508091505092915050565b6000602082019050818103600083015261308c8184613035565b905092915050565b6000602082840312156130aa576130a961263c565b5b60006130b884828501612b59565b91505092915050565b600081905092915050565b60006130d7826127f0565b6130e181856130c1565b93506130f181856020860161280c565b80840191505092915050565b600061310982846130cc565b915081905092915050565b7f4e487b7100000000000000000000000000000000000000000000000000000000600052602260045260246000fd5b6000600282049050600182168061315b57607f821691505b60208210810361316e5761316d613114565b5b50919050565b7f4e487b7100000000000000000000000000000000000000000000000000000000600052603260045260246000fd5b60008190508160005260206000209050919050565b600081546131c581613143565b6131cf81866130c1565b945060018216600081146131ea57600181146131ff57613232565b60ff1983168652811515820286019350613232565b613208856131a3565b60005b8381101561322a5781548189015260018201915060208101905061320b565b838801955050505b50505092915050565b600061324782846131b8565b915081905092915050565b7f4e487b7100000000000000000000000000000000000000000000000000000000600052601160045260246000fd5b6000819050919050565b600061329682613281565b91507fffffffffffffffffffffffffffffffffffffffffffffffffffffffffffffffff82036132c8576132c7613252565b5b600182019050919050565b50565b60006132e36000836130c1565b91506132ee826132d3565b600082019050919050565b6000613304826132d6565b9150819050919050565b600061012083016000830151848203600086015261332c8282612836565b915050602083015184820360208601526133468282612836565b915050604083015161335b60408601826129ac565b50606083015184820360608601526133738282612836565b915050608083015161338860808601826129bb565b5060a083015184820360a08601526133a08282612836565b91505060c083015184820360c08601526133ba8282612836565b91505060e083015184820360e08601526133d48282612836565b9150506101008301518482036101008601526133f08282612836565b9150508091505092915050565b60006020820190508181036000830152613417818461330e565b905092915050565b613428816127d5565b811461343357600080fd5b50565b6000815190506134458161341f565b92915050565b6000602082840312156134615761346061263c565b5b600061346f84828501613436565b91505092915050565b7f6163746976650000000000000000000000000000000000000000000000000000600082015250565b60006134ae6006836130c1565b91506134b982613478565b600682019050919050565b60006134cf826134a1565b9150819050919050565b60006020601f8301049050919050565b600082821b905092915050565b6000600883026135267fffffffffffffffffffffffffffffffffffffffffffffffffffffffffffffffff826134e9565b61353086836134e9565b95508019841693508086168417925050509392505050565b6000819050919050565b600061356d61356861356384613281565b613548565b613281565b9050919050565b6000819050919050565b61358783613552565b61359b61359382613574565b8484546134f6565b825550505050565b600090565b6135b06135a3565b6135bb81848461357e565b505050565b5b818110156135df576135d46000826135a8565b6001810190506135c1565b5050565b601f821115613624576135f5816131a3565b6135fe846134d9565b8101602085101561360d578190505b613621613619856134d9565b8301826135c0565b50505b505050565b600082821c905092915050565b600061364760001984600802613629565b1980831691505092915050565b60006136608383613636565b9150826002028217905092915050565b613679826127f0565b67ffffffffffffffff81111561369257613691612661565b5b61369c8254613143565b6136a78282856135e3565b600060209050601f8311600181146136da57600084156136c8578287015190505b6136d28582613654565b86555061373a565b601f1984166136e8866131a3565b60005b82811015613710578489015182556001820191506020850194506020810190506136eb565b8683101561372d5784890151613729601f891682613636565b8355505b6001600288020188555050505b505050505050565b600061374d826129a2565b9150613758836129a2565b9250828201905082811215600083121683821260008412151617156137805761377f613252565b5b92915050565b7f3000000000000000000000000000000000000000000000000000000000000000600082015250565b60006137bc6001836130c1565b91506137c782613786565b600182019050919050565b60006137dd826137af565b915081905091905056fea2646970667358221220aaea313c60410b816ae4fe5d45622b9951af2d8a12c98650b110f4615b3e79c064736f6c63430008130033","opcodes":"PUSH1 0x80 PUSH1 0x40 MSTORE CALLVALUE DUP1 ISZERO PUSH3 0x11 JUMPI PUSH1 0x0 DUP1 REVERT JUMPDEST POP PUSH1 0x40 MLOAD PUSH3 0x3948 CODESIZE SUB DUP1 PUSH3 0x3948 DUP4 CODECOPY DUP2 DUP2 ADD PUSH1 0x40 MSTORE DUP2 ADD SWAP1 PUSH3 0x37 SWAP2 SWAP1 PUSH3 0xE9 JUMP JUMPDEST DUP1 PUSH1 0x2 PUSH1 0x0 PUSH2 0x100 EXP DUP2 SLOAD DUP2 PUSH20 0xFFFFFFFFFFFFFFFFFFFFFFFFFFFFFFFFFFFFFFFF MUL NOT AND SWAP1 DUP4 PUSH20 0xFFFFFFFFFFFFFFFFFFFFFFFFFFFFFFFFFFFFFFFF AND MUL OR SWAP1 SSTORE POP POP PUSH3 0x11B JUMP JUMPDEST PUSH1 0x0 DUP1 REVERT JUMPDEST PUSH1 0x0 PUSH20 0xFFFFFFFFFFFFFFFFFFFFFFFFFFFFFFFFFFFFFFFF DUP3 AND SWAP1 POP SWAP2 SWAP1 POP JUMP JUMPDEST PUSH1 0x0 PUSH3 0xB1 DUP3 PUSH3 0x84 JUMP JUMPDEST SWAP1 POP SWAP2 SWAP1 POP JUMP JUMPDEST PUSH3 0xC3 DUP2 PUSH3 0xA4 JUMP JUMPDEST DUP2 EQ PUSH3 0xCF JUMPI PUSH1 0x0 DUP1 REVERT JUMPDEST POP JUMP JUMPDEST PUSH1 0x0 DUP2 MLOAD SWAP1 POP PUSH3 0xE3 DUP2 PUSH3 0xB8 JUMP JUMPDEST SWAP3 SWAP2 POP POP JUMP JUMPDEST PUSH1 0x0 PUSH1 0x20 DUP3 DUP5 SUB SLT ISZERO PUSH3 0x102 JUMPI PUSH3 0x101 PUSH3 0x7F JUMP JUMPDEST JUMPDEST PUSH1 0x0 PUSH3 0x112 DUP5 DUP3 DUP6 ADD PUSH3 0xD2 JUMP JUMPDEST SWAP2 POP POP SWAP3 SWAP2 POP POP JUMP JUMPDEST PUSH2 0x381D DUP1 PUSH3 0x12B PUSH1 0x0 CODECOPY PUSH1 0x0 RETURN INVALID PUSH1 0x80 PUSH1 0x40 MSTORE CALLVALUE DUP1 ISZERO PUSH2 0x10 JUMPI PUSH1 0x0 DUP1 REVERT JUMPDEST POP PUSH1 0x4 CALLDATASIZE LT PUSH2 0xE9 JUMPI PUSH1 0x0 CALLDATALOAD PUSH1 0xE0 SHR DUP1 PUSH4 0x74546FDF GT PUSH2 0x8C JUMPI DUP1 PUSH4 0xBFDDC42F GT PUSH2 0x66 JUMPI DUP1 PUSH4 0xBFDDC42F EQ PUSH2 0x2A6 JUMPI DUP1 PUSH4 0xE5A83513 EQ PUSH2 0x2C2 JUMPI DUP1 PUSH4 0xE8D56B8B EQ PUSH2 0x2F2 JUMPI DUP1 PUSH4 0xF880680B EQ PUSH2 0x30E JUMPI PUSH2 0xE9 JUMP JUMPDEST DUP1 PUSH4 0x74546FDF EQ PUSH2 0x23E JUMPI DUP1 PUSH4 0x95F0F0BB EQ PUSH2 0x25A JUMPI DUP1 PUSH4 0x9BCCD6AD EQ PUSH2 0x276 JUMPI PUSH2 0xE9 JUMP JUMPDEST DUP1 PUSH4 0x4907904B GT PUSH2 0xC8 JUMPI DUP1 PUSH4 0x4907904B EQ PUSH2 0x17E JUMPI DUP1 PUSH4 0x52A9BAEF EQ PUSH2 0x1AE JUMPI DUP1 PUSH4 0x5A14F3EF EQ PUSH2 0x1DE JUMPI DUP1 PUSH4 0x7113C4DD EQ PUSH2 0x20E JUMPI PUSH2 0xE9 JUMP JUMPDEST DUP1 PUSH3 0x438CEB EQ PUSH2 0xEE JUMPI DUP1 PUSH4 0x38FA8F58 EQ PUSH2 0x11E JUMPI DUP1 PUSH4 0x47EB6FA7 EQ PUSH2 0x14E JUMPI JUMPDEST PUSH1 0x0 DUP1 REVERT JUMPDEST PUSH2 0x108 PUSH1 0x4 DUP1 CALLDATASIZE SUB DUP2 ADD SWAP1 PUSH2 0x103 SWAP2 SWAP1 PUSH2 0x278C JUMP JUMPDEST PUSH2 0x33E JUMP JUMPDEST PUSH1 0x40 MLOAD PUSH2 0x115 SWAP2 SWAP1 PUSH2 0x28AC JUMP JUMPDEST PUSH1 0x40 MLOAD DUP1 SWAP2 SUB SWAP1 RETURN JUMPDEST PUSH2 0x138 PUSH1 0x4 DUP1 CALLDATASIZE SUB DUP2 ADD SWAP1 PUSH2 0x133 SWAP2 SWAP1 PUSH2 0x278C JUMP JUMPDEST PUSH2 0x492 JUMP JUMPDEST PUSH1 0x40 MLOAD PUSH2 0x145 SWAP2 SWAP1 PUSH2 0x290F JUMP JUMPDEST PUSH1 0x40 MLOAD DUP1 SWAP2 SUB SWAP1 RETURN JUMPDEST PUSH2 0x168 PUSH1 0x4 DUP1 CALLDATASIZE SUB DUP2 ADD SWAP1 PUSH2 0x163 SWAP2 SWAP1 PUSH2 0x292A JUMP JUMPDEST PUSH2 0x606 JUMP JUMPDEST PUSH1 0x40 MLOAD PUSH2 0x175 SWAP2 SWAP1 PUSH2 0x2AF6 JUMP JUMPDEST PUSH1 0x40 MLOAD DUP1 SWAP2 SUB SWAP1 RETURN JUMPDEST PUSH2 0x198 PUSH1 0x4 DUP1 CALLDATASIZE SUB DUP2 ADD SWAP1 PUSH2 0x193 SWAP2 SWAP1 PUSH2 0x278C JUMP JUMPDEST PUSH2 0xC95 JUMP JUMPDEST PUSH1 0x40 MLOAD PUSH2 0x1A5 SWAP2 SWAP1 PUSH2 0x2B27 JUMP JUMPDEST PUSH1 0x40 MLOAD DUP1 SWAP2 SUB SWAP1 RETURN JUMPDEST PUSH2 0x1C8 PUSH1 0x4 DUP1 CALLDATASIZE SUB DUP2 ADD SWAP1 PUSH2 0x1C3 SWAP2 SWAP1 PUSH2 0x2B6E JUMP JUMPDEST PUSH2 0xE04 JUMP JUMPDEST PUSH1 0x40 MLOAD PUSH2 0x1D5 SWAP2 SWAP1 PUSH2 0x2BD9 JUMP JUMPDEST PUSH1 0x40 MLOAD DUP1 SWAP2 SUB SWAP1 RETURN JUMPDEST PUSH2 0x1F8 PUSH1 0x4 DUP1 CALLDATASIZE SUB DUP2 ADD SWAP1 PUSH2 0x1F3 SWAP2 SWAP1 PUSH2 0x2DCE JUMP JUMPDEST PUSH2 0xEE8 JUMP JUMPDEST PUSH1 0x40 MLOAD PUSH2 0x205 SWAP2 SWAP1 PUSH2 0x2BD9 JUMP JUMPDEST PUSH1 0x40 MLOAD DUP1 SWAP2 SUB SWAP1 RETURN JUMPDEST PUSH2 0x228 PUSH1 0x4 DUP1 CALLDATASIZE SUB DUP2 ADD SWAP1 PUSH2 0x223 SWAP2 SWAP1 PUSH2 0x278C JUMP JUMPDEST PUSH2 0x100D JUMP JUMPDEST PUSH1 0x40 MLOAD PUSH2 0x235 SWAP2 SWAP1 PUSH2 0x2ED9 JUMP JUMPDEST PUSH1 0x40 MLOAD DUP1 SWAP2 SUB SWAP1 RETURN JUMPDEST PUSH2 0x258 PUSH1 0x4 DUP1 CALLDATASIZE SUB DUP2 ADD SWAP1 PUSH2 0x253 SWAP2 SWAP1 PUSH2 0x278C JUMP JUMPDEST PUSH2 0x12AF JUMP JUMPDEST STOP JUMPDEST PUSH2 0x274 PUSH1 0x4 DUP1 CALLDATASIZE SUB DUP2 ADD SWAP1 PUSH2 0x26F SWAP2 SWAP1 PUSH2 0x2EFB JUMP JUMPDEST PUSH2 0x136C JUMP JUMPDEST STOP JUMPDEST PUSH2 0x290 PUSH1 0x4 DUP1 CALLDATASIZE SUB DUP2 ADD SWAP1 PUSH2 0x28B SWAP2 SWAP1 PUSH2 0x278C JUMP JUMPDEST PUSH2 0x161A JUMP JUMPDEST PUSH1 0x40 MLOAD PUSH2 0x29D SWAP2 SWAP1 PUSH2 0x2BD9 JUMP JUMPDEST PUSH1 0x40 MLOAD DUP1 SWAP2 SUB SWAP1 RETURN JUMPDEST PUSH2 0x2C0 PUSH1 0x4 DUP1 CALLDATASIZE SUB DUP2 ADD SWAP1 PUSH2 0x2BB SWAP2 SWAP1 PUSH2 0x2DCE JUMP JUMPDEST PUSH2 0x16BE JUMP JUMPDEST STOP JUMPDEST PUSH2 0x2DC PUSH1 0x4 DUP1 CALLDATASIZE SUB DUP2 ADD SWAP1 PUSH2 0x2D7 SWAP2 SWAP1 PUSH2 0x278C JUMP JUMPDEST PUSH2 0x18ED JUMP JUMPDEST PUSH1 0x40 MLOAD PUSH2 0x2E9 SWAP2 SWAP1 PUSH2 0x3072 JUMP JUMPDEST PUSH1 0x40 MLOAD DUP1 SWAP2 SUB SWAP1 RETURN JUMPDEST PUSH2 0x30C PUSH1 0x4 DUP1 CALLDATASIZE SUB DUP2 ADD SWAP1 PUSH2 0x307 SWAP2 SWAP1 PUSH2 0x3094 JUMP JUMPDEST PUSH2 0x234D JUMP JUMPDEST STOP JUMPDEST PUSH2 0x328 PUSH1 0x4 DUP1 CALLDATASIZE SUB DUP2 ADD SWAP1 PUSH2 0x323 SWAP2 SWAP1 PUSH2 0x278C JUMP JUMPDEST PUSH2 0x2422 JUMP JUMPDEST PUSH1 0x40 MLOAD PUSH2 0x335 SWAP2 SWAP1 PUSH2 0x28AC JUMP JUMPDEST PUSH1 0x40 MLOAD DUP1 SWAP2 SUB SWAP1 RETURN JUMPDEST PUSH2 0x346 PUSH2 0x2576 JUMP JUMPDEST PUSH1 0x3 PUSH1 0x0 SWAP1 SLOAD SWAP1 PUSH2 0x100 EXP SWAP1 DIV PUSH20 0xFFFFFFFFFFFFFFFFFFFFFFFFFFFFFFFFFFFFFFFF AND PUSH20 0xFFFFFFFFFFFFFFFFFFFFFFFFFFFFFFFFFFFFFFFF AND CALLER PUSH20 0xFFFFFFFFFFFFFFFFFFFFFFFFFFFFFFFFFFFFFFFF AND SUB PUSH2 0x463 JUMPI PUSH1 0x40 MLOAD DUP1 PUSH1 0x40 ADD PUSH1 0x40 MSTORE DUP1 PUSH1 0x1 ISZERO ISZERO DUP2 MSTORE PUSH1 0x20 ADD PUSH1 0x0 DUP5 PUSH1 0x40 MLOAD PUSH2 0x3BF SWAP2 SWAP1 PUSH2 0x30FD JUMP JUMPDEST SWAP1 DUP2 MSTORE PUSH1 0x20 ADD PUSH1 0x40 MLOAD DUP1 SWAP2 SUB SWAP1 KECCAK256 PUSH1 0x7 ADD DUP1 SLOAD PUSH2 0x3DB SWAP1 PUSH2 0x3143 JUMP JUMPDEST DUP1 PUSH1 0x1F ADD PUSH1 0x20 DUP1 SWAP2 DIV MUL PUSH1 0x20 ADD PUSH1 0x40 MLOAD SWAP1 DUP2 ADD PUSH1 0x40 MSTORE DUP1 SWAP3 SWAP2 SWAP1 DUP2 DUP2 MSTORE PUSH1 0x20 ADD DUP3 DUP1 SLOAD PUSH2 0x407 SWAP1 PUSH2 0x3143 JUMP JUMPDEST DUP1 ISZERO PUSH2 0x454 JUMPI DUP1 PUSH1 0x1F LT PUSH2 0x429 JUMPI PUSH2 0x100 DUP1 DUP4 SLOAD DIV MUL DUP4 MSTORE SWAP2 PUSH1 0x20 ADD SWAP2 PUSH2 0x454 JUMP JUMPDEST DUP3 ADD SWAP2 SWAP1 PUSH1 0x0 MSTORE PUSH1 0x20 PUSH1 0x0 KECCAK256 SWAP1 JUMPDEST DUP2 SLOAD DUP2 MSTORE SWAP1 PUSH1 0x1 ADD SWAP1 PUSH1 0x20 ADD DUP1 DUP4 GT PUSH2 0x437 JUMPI DUP3 SWAP1 SUB PUSH1 0x1F AND DUP3 ADD SWAP2 JUMPDEST POP POP POP POP POP DUP2 MSTORE POP SWAP1 POP PUSH2 0x48D JUMP JUMPDEST PUSH1 0x40 MLOAD DUP1 PUSH1 0x40 ADD PUSH1 0x40 MSTORE DUP1 PUSH1 0x0 ISZERO ISZERO DUP2 MSTORE PUSH1 0x20 ADD PUSH1 0x40 MLOAD DUP1 PUSH1 0x20 ADD PUSH1 0x40 MSTORE DUP1 PUSH1 0x0 DUP2 MSTORE POP DUP2 MSTORE POP SWAP1 POP JUMPDEST SWAP2 SWAP1 POP JUMP JUMPDEST PUSH1 0x0 DUP1 PUSH1 0x0 SWAP1 POP JUMPDEST PUSH1 0x1 DUP1 SLOAD SWAP1 POP DUP2 LT ISZERO PUSH2 0x5FB JUMPI DUP3 PUSH1 0x40 MLOAD PUSH1 0x20 ADD PUSH2 0x4B8 SWAP2 SWAP1 PUSH2 0x30FD JUMP JUMPDEST PUSH1 0x40 MLOAD PUSH1 0x20 DUP2 DUP4 SUB SUB DUP2 MSTORE SWAP1 PUSH1 0x40 MSTORE DUP1 MLOAD SWAP1 PUSH1 0x20 ADD KECCAK256 PUSH1 0x0 PUSH1 0x1 DUP4 DUP2 SLOAD DUP2 LT PUSH2 0x4E4 JUMPI PUSH2 0x4E3 PUSH2 0x3174 JUMP JUMPDEST JUMPDEST SWAP1 PUSH1 0x0 MSTORE PUSH1 0x20 PUSH1 0x0 KECCAK256 ADD PUSH1 0x40 MLOAD PUSH2 0x4FB SWAP2 SWAP1 PUSH2 0x323B JUMP JUMPDEST SWAP1 DUP2 MSTORE PUSH1 0x20 ADD PUSH1 0x40 MLOAD DUP1 SWAP2 SUB SWAP1 KECCAK256 PUSH1 0x1 ADD PUSH1 0x40 MLOAD PUSH1 0x20 ADD PUSH2 0x51C SWAP2 SWAP1 PUSH2 0x323B JUMP JUMPDEST PUSH1 0x40 MLOAD PUSH1 0x20 DUP2 DUP4 SUB SUB DUP2 MSTORE SWAP1 PUSH1 0x40 MSTORE DUP1 MLOAD SWAP1 PUSH1 0x20 ADD KECCAK256 EQ DUP1 ISZERO PUSH2 0x57C JUMPI POP PUSH1 0x0 DUP1 PUSH1 0x1 DUP4 DUP2 SLOAD DUP2 LT PUSH2 0x551 JUMPI PUSH2 0x550 PUSH2 0x3174 JUMP JUMPDEST JUMPDEST SWAP1 PUSH1 0x0 MSTORE PUSH1 0x20 PUSH1 0x0 KECCAK256 ADD PUSH1 0x40 MLOAD PUSH2 0x568 SWAP2 SWAP1 PUSH2 0x323B JUMP JUMPDEST SWAP1 DUP2 MSTORE PUSH1 0x20 ADD PUSH1 0x40 MLOAD DUP1 SWAP2 SUB SWAP1 KECCAK256 PUSH1 0x2 ADD SLOAD EQ JUMPDEST ISZERO PUSH2 0x5E8 JUMPI PUSH1 0x0 PUSH1 0x1 DUP3 DUP2 SLOAD DUP2 LT PUSH2 0x597 JUMPI PUSH2 0x596 PUSH2 0x3174 JUMP JUMPDEST JUMPDEST SWAP1 PUSH1 0x0 MSTORE PUSH1 0x20 PUSH1 0x0 KECCAK256 ADD PUSH1 0x40 MLOAD PUSH2 0x5AE SWAP2 SWAP1 PUSH2 0x323B JUMP JUMPDEST SWAP1 DUP2 MSTORE PUSH1 0x20 ADD PUSH1 0x40 MLOAD DUP1 SWAP2 SUB SWAP1 KECCAK256 PUSH1 0x4 ADD PUSH1 0x0 SWAP1 SLOAD SWAP1 PUSH2 0x100 EXP SWAP1 DIV PUSH20 0xFFFFFFFFFFFFFFFFFFFFFFFFFFFFFFFFFFFFFFFF AND SWAP2 POP POP PUSH2 0x601 JUMP JUMPDEST DUP1 DUP1 PUSH2 0x5F3 SWAP1 PUSH2 0x328B JUMP JUMPDEST SWAP2 POP POP PUSH2 0x49A JUMP JUMPDEST POP PUSH1 0x0 SWAP1 POP JUMPDEST SWAP2 SWAP1 POP JUMP JUMPDEST PUSH2 0x60E PUSH2 0x2592 JUMP JUMPDEST PUSH1 0x0 DUP1 DUP5 PUSH1 0x40 MLOAD PUSH2 0x61F SWAP2 SWAP1 PUSH2 0x30FD JUMP JUMPDEST SWAP1 DUP2 MSTORE PUSH1 0x20 ADD PUSH1 0x40 MLOAD DUP1 SWAP2 SUB SWAP1 KECCAK256 PUSH1 0x1 ADD DUP1 SLOAD PUSH2 0x63B SWAP1 PUSH2 0x3143 JUMP JUMPDEST SWAP1 POP GT DUP1 ISZERO PUSH2 0x709 JUMPI POP DUP2 PUSH1 0x40 MLOAD PUSH1 0x20 ADD PUSH2 0x656 SWAP2 SWAP1 PUSH2 0x30FD JUMP JUMPDEST PUSH1 0x40 MLOAD PUSH1 0x20 DUP2 DUP4 SUB SUB DUP2 MSTORE SWAP1 PUSH1 0x40 MSTORE DUP1 MLOAD SWAP1 PUSH1 0x20 ADD KECCAK256 PUSH1 0x0 DUP5 PUSH1 0x40 MLOAD PUSH2 0x67C SWAP2 SWAP1 PUSH2 0x30FD JUMP JUMPDEST SWAP1 DUP2 MSTORE PUSH1 0x20 ADD PUSH1 0x40 MLOAD DUP1 SWAP2 SUB SWAP1 KECCAK256 PUSH1 0x7 ADD PUSH1 0x40 MLOAD PUSH1 0x20 ADD PUSH2 0x69D SWAP2 SWAP1 PUSH2 0x323B JUMP JUMPDEST PUSH1 0x40 MLOAD PUSH1 0x20 DUP2 DUP4 SUB SUB DUP2 MSTORE SWAP1 PUSH1 0x40 MSTORE DUP1 MLOAD SWAP1 PUSH1 0x20 ADD KECCAK256 EQ DUP1 PUSH2 0x708 JUMPI POP PUSH1 0x40 MLOAD PUSH1 0x20 ADD PUSH2 0x6C9 SWAP1 PUSH2 0x32F9 JUMP JUMPDEST PUSH1 0x40 MLOAD PUSH1 0x20 DUP2 DUP4 SUB SUB DUP2 MSTORE SWAP1 PUSH1 0x40 MSTORE DUP1 MLOAD SWAP1 PUSH1 0x20 ADD KECCAK256 DUP3 PUSH1 0x40 MLOAD PUSH1 0x20 ADD PUSH2 0x6F0 SWAP2 SWAP1 PUSH2 0x30FD JUMP JUMPDEST PUSH1 0x40 MLOAD PUSH1 0x20 DUP2 DUP4 SUB SUB DUP2 MSTORE SWAP1 PUSH1 0x40 MSTORE DUP1 MLOAD SWAP1 PUSH1 0x20 ADD KECCAK256 EQ JUMPDEST JUMPDEST ISZERO PUSH2 0xBB4 JUMPI PUSH1 0x40 MLOAD DUP1 PUSH1 0x40 ADD PUSH1 0x40 MSTORE DUP1 PUSH1 0x1 ISZERO ISZERO DUP2 MSTORE PUSH1 0x20 ADD PUSH1 0x0 DUP6 PUSH1 0x40 MLOAD PUSH2 0x732 SWAP2 SWAP1 PUSH2 0x30FD JUMP JUMPDEST SWAP1 DUP2 MSTORE PUSH1 0x20 ADD PUSH1 0x40 MLOAD DUP1 SWAP2 SUB SWAP1 KECCAK256 PUSH1 0x40 MLOAD DUP1 PUSH2 0x120 ADD PUSH1 0x40 MSTORE SWAP1 DUP2 PUSH1 0x0 DUP3 ADD DUP1 SLOAD PUSH2 0x75C SWAP1 PUSH2 0x3143 JUMP JUMPDEST DUP1 PUSH1 0x1F ADD PUSH1 0x20 DUP1 SWAP2 DIV MUL PUSH1 0x20 ADD PUSH1 0x40 MLOAD SWAP1 DUP2 ADD PUSH1 0x40 MSTORE DUP1 SWAP3 SWAP2 SWAP1 DUP2 DUP2 MSTORE PUSH1 0x20 ADD DUP3 DUP1 SLOAD PUSH2 0x788 SWAP1 PUSH2 0x3143 JUMP JUMPDEST DUP1 ISZERO PUSH2 0x7D5 JUMPI DUP1 PUSH1 0x1F LT PUSH2 0x7AA JUMPI PUSH2 0x100 DUP1 DUP4 SLOAD DIV MUL DUP4 MSTORE SWAP2 PUSH1 0x20 ADD SWAP2 PUSH2 0x7D5 JUMP JUMPDEST DUP3 ADD SWAP2 SWAP1 PUSH1 0x0 MSTORE PUSH1 0x20 PUSH1 0x0 KECCAK256 SWAP1 JUMPDEST DUP2 SLOAD DUP2 MSTORE SWAP1 PUSH1 0x1 ADD SWAP1 PUSH1 0x20 ADD DUP1 DUP4 GT PUSH2 0x7B8 JUMPI DUP3 SWAP1 SUB PUSH1 0x1F AND DUP3 ADD SWAP2 JUMPDEST POP POP POP POP POP DUP2 MSTORE PUSH1 0x20 ADD PUSH1 0x1 DUP3 ADD DUP1 SLOAD PUSH2 0x7EE SWAP1 PUSH2 0x3143 JUMP JUMPDEST DUP1 PUSH1 0x1F ADD PUSH1 0x20 DUP1 SWAP2 DIV MUL PUSH1 0x20 ADD PUSH1 0x40 MLOAD SWAP1 DUP2 ADD PUSH1 0x40 MSTORE DUP1 SWAP3 SWAP2 SWAP1 DUP2 DUP2 MSTORE PUSH1 0x20 ADD DUP3 DUP1 SLOAD PUSH2 0x81A SWAP1 PUSH2 0x3143 JUMP JUMPDEST DUP1 ISZERO PUSH2 0x867 JUMPI DUP1 PUSH1 0x1F LT PUSH2 0x83C JUMPI PUSH2 0x100 DUP1 DUP4 SLOAD DIV MUL DUP4 MSTORE SWAP2 PUSH1 0x20 ADD SWAP2 PUSH2 0x867 JUMP JUMPDEST DUP3 ADD SWAP2 SWAP1 PUSH1 0x0 MSTORE PUSH1 0x20 PUSH1 0x0 KECCAK256 SWAP1 JUMPDEST DUP2 SLOAD DUP2 MSTORE SWAP1 PUSH1 0x1 ADD SWAP1 PUSH1 0x20 ADD DUP1 DUP4 GT PUSH2 0x84A JUMPI DUP3 SWAP1 SUB PUSH1 0x1F AND DUP3 ADD SWAP2 JUMPDEST POP POP POP POP POP DUP2 MSTORE PUSH1 0x20 ADD PUSH1 0x2 DUP3 ADD SLOAD DUP2 MSTORE PUSH1 0x20 ADD PUSH1 0x3 DUP3 ADD DUP1 SLOAD PUSH2 0x88A SWAP1 PUSH2 0x3143 JUMP JUMPDEST DUP1 PUSH1 0x1F ADD PUSH1 0x20 DUP1 SWAP2 DIV MUL PUSH1 0x20 ADD PUSH1 0x40 MLOAD SWAP1 DUP2 ADD PUSH1 0x40 MSTORE DUP1 SWAP3 SWAP2 SWAP1 DUP2 DUP2 MSTORE PUSH1 0x20 ADD DUP3 DUP1 SLOAD PUSH2 0x8B6 SWAP1 PUSH2 0x3143 JUMP JUMPDEST DUP1 ISZERO PUSH2 0x903 JUMPI DUP1 PUSH1 0x1F LT PUSH2 0x8D8 JUMPI PUSH2 0x100 DUP1 DUP4 SLOAD DIV MUL DUP4 MSTORE SWAP2 PUSH1 0x20 ADD SWAP2 PUSH2 0x903 JUMP JUMPDEST DUP3 ADD SWAP2 SWAP1 PUSH1 0x0 MSTORE PUSH1 0x20 PUSH1 0x0 KECCAK256 SWAP1 JUMPDEST DUP2 SLOAD DUP2 MSTORE SWAP1 PUSH1 0x1 ADD SWAP1 PUSH1 0x20 ADD DUP1 DUP4 GT PUSH2 0x8E6 JUMPI DUP3 SWAP1 SUB PUSH1 0x1F AND DUP3 ADD SWAP2 JUMPDEST POP POP POP POP POP DUP2 MSTORE PUSH1 0x20 ADD PUSH1 0x4 DUP3 ADD PUSH1 0x0 SWAP1 SLOAD SWAP1 PUSH2 0x100 EXP SWAP1 DIV PUSH20 0xFFFFFFFFFFFFFFFFFFFFFFFFFFFFFFFFFFFFFFFF AND PUSH20 0xFFFFFFFFFFFFFFFFFFFFFFFFFFFFFFFFFFFFFFFF AND PUSH20 0xFFFFFFFFFFFFFFFFFFFFFFFFFFFFFFFFFFFFFFFF AND DUP2 MSTORE PUSH1 0x20 ADD PUSH1 0x5 DUP3 ADD DUP1 SLOAD PUSH2 0x972 SWAP1 PUSH2 0x3143 JUMP JUMPDEST DUP1 PUSH1 0x1F ADD PUSH1 0x20 DUP1 SWAP2 DIV MUL PUSH1 0x20 ADD PUSH1 0x40 MLOAD SWAP1 DUP2 ADD PUSH1 0x40 MSTORE DUP1 SWAP3 SWAP2 SWAP1 DUP2 DUP2 MSTORE PUSH1 0x20 ADD DUP3 DUP1 SLOAD PUSH2 0x99E SWAP1 PUSH2 0x3143 JUMP JUMPDEST DUP1 ISZERO PUSH2 0x9EB JUMPI DUP1 PUSH1 0x1F LT PUSH2 0x9C0 JUMPI PUSH2 0x100 DUP1 DUP4 SLOAD DIV MUL DUP4 MSTORE SWAP2 PUSH1 0x20 ADD SWAP2 PUSH2 0x9EB JUMP JUMPDEST DUP3 ADD SWAP2 SWAP1 PUSH1 0x0 MSTORE PUSH1 0x20 PUSH1 0x0 KECCAK256 SWAP1 JUMPDEST DUP2 SLOAD DUP2 MSTORE SWAP1 PUSH1 0x1 ADD SWAP1 PUSH1 0x20 ADD DUP1 DUP4 GT PUSH2 0x9CE JUMPI DUP3 SWAP1 SUB PUSH1 0x1F AND DUP3 ADD SWAP2 JUMPDEST POP POP POP POP POP DUP2 MSTORE PUSH1 0x20 ADD PUSH1 0x6 DUP3 ADD DUP1 SLOAD PUSH2 0xA04 SWAP1 PUSH2 0x3143 JUMP JUMPDEST DUP1 PUSH1 0x1F ADD PUSH1 0x20 DUP1 SWAP2 DIV MUL PUSH1 0x20 ADD PUSH1 0x40 MLOAD SWAP1 DUP2 ADD PUSH1 0x40 MSTORE DUP1 SWAP3 SWAP2 SWAP1 DUP2 DUP2 MSTORE PUSH1 0x20 ADD DUP3 DUP1 SLOAD PUSH2 0xA30 SWAP1 PUSH2 0x3143 JUMP JUMPDEST DUP1 ISZERO PUSH2 0xA7D JUMPI DUP1 PUSH1 0x1F LT PUSH2 0xA52 JUMPI PUSH2 0x100 DUP1 DUP4 SLOAD DIV MUL DUP4 MSTORE SWAP2 PUSH1 0x20 ADD SWAP2 PUSH2 0xA7D JUMP JUMPDEST DUP3 ADD SWAP2 SWAP1 PUSH1 0x0 MSTORE PUSH1 0x20 PUSH1 0x0 KECCAK256 SWAP1 JUMPDEST DUP2 SLOAD DUP2 MSTORE SWAP1 PUSH1 0x1 ADD SWAP1 PUSH1 0x20 ADD DUP1 DUP4 GT PUSH2 0xA60 JUMPI DUP3 SWAP1 SUB PUSH1 0x1F AND DUP3 ADD SWAP2 JUMPDEST POP POP POP POP POP DUP2 MSTORE PUSH1 0x20 ADD PUSH1 0x7 DUP3 ADD DUP1 SLOAD PUSH2 0xA96 SWAP1 PUSH2 0x3143 JUMP JUMPDEST DUP1 PUSH1 0x1F ADD PUSH1 0x20 DUP1 SWAP2 DIV MUL PUSH1 0x20 ADD PUSH1 0x40 MLOAD SWAP1 DUP2 ADD PUSH1 0x40 MSTORE DUP1 SWAP3 SWAP2 SWAP1 DUP2 DUP2 MSTORE PUSH1 0x20 ADD DUP3 DUP1 SLOAD PUSH2 0xAC2 SWAP1 PUSH2 0x3143 JUMP JUMPDEST DUP1 ISZERO PUSH2 0xB0F JUMPI DUP1 PUSH1 0x1F LT PUSH2 0xAE4 JUMPI PUSH2 0x100 DUP1 DUP4 SLOAD DIV MUL DUP4 MSTORE SWAP2 PUSH1 0x20 ADD SWAP2 PUSH2 0xB0F JUMP JUMPDEST DUP3 ADD SWAP2 SWAP1 PUSH1 0x0 MSTORE PUSH1 0x20 PUSH1 0x0 KECCAK256 SWAP1 JUMPDEST DUP2 SLOAD DUP2 MSTORE SWAP1 PUSH1 0x1 ADD SWAP1 PUSH1 0x20 ADD DUP1 DUP4 GT PUSH2 0xAF2 JUMPI DUP3 SWAP1 SUB PUSH1 0x1F AND DUP3 ADD SWAP2 JUMPDEST POP POP POP POP POP DUP2 MSTORE PUSH1 0x20 ADD PUSH1 0x8 DUP3 ADD DUP1 SLOAD PUSH2 0xB28 SWAP1 PUSH2 0x3143 JUMP JUMPDEST DUP1 PUSH1 0x1F ADD PUSH1 0x20 DUP1 SWAP2 DIV MUL PUSH1 0x20 ADD PUSH1 0x40 MLOAD SWAP1 DUP2 ADD PUSH1 0x40 MSTORE DUP1 SWAP3 SWAP2 SWAP1 DUP2 DUP2 MSTORE PUSH1 0x20 ADD DUP3 DUP1 SLOAD PUSH2 0xB54 SWAP1 PUSH2 0x3143 JUMP JUMPDEST DUP1 ISZERO PUSH2 0xBA1 JUMPI DUP1 PUSH1 0x1F LT PUSH2 0xB76 JUMPI PUSH2 0x100 DUP1 DUP4 SLOAD DIV MUL DUP4 MSTORE SWAP2 PUSH1 0x20 ADD SWAP2 PUSH2 0xBA1 JUMP JUMPDEST DUP3 ADD SWAP2 SWAP1 PUSH1 0x0 MSTORE PUSH1 0x20 PUSH1 0x0 KECCAK256 SWAP1 JUMPDEST DUP2 SLOAD DUP2 MSTORE SWAP1 PUSH1 0x1 ADD SWAP1 PUSH1 0x20 ADD DUP1 DUP4 GT PUSH2 0xB84 JUMPI DUP3 SWAP1 SUB PUSH1 0x1F AND DUP3 ADD SWAP2 JUMPDEST POP POP POP POP POP DUP2 MSTORE POP POP DUP2 MSTORE POP SWAP1 POP PUSH2 0xC8F JUMP JUMPDEST PUSH1 0x40 MLOAD DUP1 PUSH1 0x40 ADD PUSH1 0x40 MSTORE DUP1 PUSH1 0x0 ISZERO ISZERO DUP2 MSTORE PUSH1 0x20 ADD PUSH1 0x40 MLOAD DUP1 PUSH2 0x120 ADD PUSH1 0x40 MSTORE DUP1 PUSH1 0x40 MLOAD DUP1 PUSH1 0x20 ADD PUSH1 0x40 MSTORE DUP1 PUSH1 0x0 DUP2 MSTORE POP DUP2 MSTORE PUSH1 0x20 ADD PUSH1 0x40 MLOAD DUP1 PUSH1 0x20 ADD PUSH1 0x40 MSTORE DUP1 PUSH1 0x0 DUP2 MSTORE POP DUP2 MSTORE PUSH1 0x20 ADD PUSH1 0x0 DUP2 MSTORE PUSH1 0x20 ADD PUSH1 0x40 MLOAD DUP1 PUSH1 0x20 ADD PUSH1 0x40 MSTORE DUP1 PUSH1 0x0 DUP2 MSTORE POP DUP2 MSTORE PUSH1 0x20 ADD PUSH1 0x0 PUSH20 0xFFFFFFFFFFFFFFFFFFFFFFFFFFFFFFFFFFFFFFFF AND DUP2 MSTORE PUSH1 0x20 ADD PUSH1 0x40 MLOAD DUP1 PUSH1 0x20 ADD PUSH1 0x40 MSTORE DUP1 PUSH1 0x0 DUP2 MSTORE POP DUP2 MSTORE PUSH1 0x20 ADD PUSH1 0x40 MLOAD DUP1 PUSH1 0x20 ADD PUSH1 0x40 MSTORE DUP1 PUSH1 0x0 DUP2 MSTORE POP DUP2 MSTORE PUSH1 0x20 ADD PUSH1 0x40 MLOAD DUP1 PUSH1 0x20 ADD PUSH1 0x40 MSTORE DUP1 PUSH1 0x0 DUP2 MSTORE POP DUP2 MSTORE PUSH1 0x20 ADD PUSH1 0x40 MLOAD DUP1 PUSH1 0x20 ADD PUSH1 0x40 MSTORE DUP1 PUSH1 0x0 DUP2 MSTORE POP DUP2 MSTORE POP DUP2 MSTORE POP SWAP1 POP JUMPDEST SWAP3 SWAP2 POP POP JUMP JUMPDEST PUSH1 0x0 DUP1 PUSH32 0xFFFFFFFFFFFFFFFFFFFFFFFFFFFFFFFFFFFFFFFFFFFFFFFFFFFFFFFFFFFFFFFF SWAP1 POP PUSH1 0x0 JUMPDEST PUSH1 0x1 DUP1 SLOAD SWAP1 POP DUP2 LT ISZERO PUSH2 0xDFA JUMPI DUP4 PUSH1 0x40 MLOAD PUSH1 0x20 ADD PUSH2 0xCDC SWAP2 SWAP1 PUSH2 0x30FD JUMP JUMPDEST PUSH1 0x40 MLOAD PUSH1 0x20 DUP2 DUP4 SUB SUB DUP2 MSTORE SWAP1 PUSH1 0x40 MSTORE DUP1 MLOAD SWAP1 PUSH1 0x20 ADD KECCAK256 PUSH1 0x0 PUSH1 0x1 DUP4 DUP2 SLOAD DUP2 LT PUSH2 0xD08 JUMPI PUSH2 0xD07 PUSH2 0x3174 JUMP JUMPDEST JUMPDEST SWAP1 PUSH1 0x0 MSTORE PUSH1 0x20 PUSH1 0x0 KECCAK256 ADD PUSH1 0x40 MLOAD PUSH2 0xD1F SWAP2 SWAP1 PUSH2 0x323B JUMP JUMPDEST SWAP1 DUP2 MSTORE PUSH1 0x20 ADD PUSH1 0x40 MLOAD DUP1 SWAP2 SUB SWAP1 KECCAK256 PUSH1 0x1 ADD PUSH1 0x40 MLOAD PUSH1 0x20 ADD PUSH2 0xD40 SWAP2 SWAP1 PUSH2 0x323B JUMP JUMPDEST PUSH1 0x40 MLOAD PUSH1 0x20 DUP2 DUP4 SUB SUB DUP2 MSTORE SWAP1 PUSH1 0x40 MSTORE DUP1 MLOAD SWAP1 PUSH1 0x20 ADD KECCAK256 EQ DUP1 ISZERO PUSH2 0xDA0 JUMPI POP DUP2 PUSH1 0x0 PUSH1 0x1 DUP4 DUP2 SLOAD DUP2 LT PUSH2 0xD75 JUMPI PUSH2 0xD74 PUSH2 0x3174 JUMP JUMPDEST JUMPDEST SWAP1 PUSH1 0x0 MSTORE PUSH1 0x20 PUSH1 0x0 KECCAK256 ADD PUSH1 0x40 MLOAD PUSH2 0xD8C SWAP2 SWAP1 PUSH2 0x323B JUMP JUMPDEST SWAP1 DUP2 MSTORE PUSH1 0x20 ADD PUSH1 0x40 MLOAD DUP1 SWAP2 SUB SWAP1 KECCAK256 PUSH1 0x2 ADD SLOAD SGT JUMPDEST ISZERO PUSH2 0xDE7 JUMPI PUSH1 0x0 PUSH1 0x1 DUP3 DUP2 SLOAD DUP2 LT PUSH2 0xDBB JUMPI PUSH2 0xDBA PUSH2 0x3174 JUMP JUMPDEST JUMPDEST SWAP1 PUSH1 0x0 MSTORE PUSH1 0x20 PUSH1 0x0 KECCAK256 ADD PUSH1 0x40 MLOAD PUSH2 0xDD2 SWAP2 SWAP1 PUSH2 0x323B JUMP JUMPDEST SWAP1 DUP2 MSTORE PUSH1 0x20 ADD PUSH1 0x40 MLOAD DUP1 SWAP2 SUB SWAP1 KECCAK256 PUSH1 0x2 ADD SLOAD SWAP2 POP JUMPDEST DUP1 DUP1 PUSH2 0xDF2 SWAP1 PUSH2 0x328B JUMP JUMPDEST SWAP2 POP POP PUSH2 0xCBE JUMP JUMPDEST POP DUP1 SWAP2 POP POP SWAP2 SWAP1 POP JUMP JUMPDEST PUSH1 0x0 DUP3 PUSH20 0xFFFFFFFFFFFFFFFFFFFFFFFFFFFFFFFFFFFFFFFF AND PUSH1 0x0 DUP4 PUSH1 0x40 MLOAD PUSH2 0xE2D SWAP2 SWAP1 PUSH2 0x30FD JUMP JUMPDEST SWAP1 DUP2 MSTORE PUSH1 0x20 ADD PUSH1 0x40 MLOAD DUP1 SWAP2 SUB SWAP1 KECCAK256 PUSH1 0x4 ADD PUSH1 0x0 SWAP1 SLOAD SWAP1 PUSH2 0x100 EXP SWAP1 DIV PUSH20 0xFFFFFFFFFFFFFFFFFFFFFFFFFFFFFFFFFFFFFFFF AND PUSH20 0xFFFFFFFFFFFFFFFFFFFFFFFFFFFFFFFFFFFFFFFF AND EQ DUP1 ISZERO PUSH2 0xECF JUMPI POP PUSH1 0x3 PUSH1 0x0 SWAP1 SLOAD SWAP1 PUSH2 0x100 EXP SWAP1 DIV PUSH20 0xFFFFFFFFFFFFFFFFFFFFFFFFFFFFFFFFFFFFFFFF AND PUSH20 0xFFFFFFFFFFFFFFFFFFFFFFFFFFFFFFFFFFFFFFFF AND CALLER PUSH20 0xFFFFFFFFFFFFFFFFFFFFFFFFFFFFFFFFFFFFFFFF AND EQ JUMPDEST ISZERO PUSH2 0xEDD JUMPI PUSH1 0x1 SWAP1 POP PUSH2 0xEE2 JUMP JUMPDEST PUSH1 0x0 SWAP1 POP JUMPDEST SWAP3 SWAP2 POP POP JUMP JUMPDEST PUSH1 0x0 PUSH2 0xEF7 DUP3 PUSH1 0x0 ADD MLOAD PUSH2 0x161A JUMP JUMPDEST ISZERO DUP1 ISZERO PUSH2 0xF9C JUMPI POP PUSH1 0x2 PUSH1 0x0 SWAP1 SLOAD SWAP1 PUSH2 0x100 EXP SWAP1 DIV PUSH20 0xFFFFFFFFFFFFFFFFFFFFFFFFFFFFFFFFFFFFFFFF AND PUSH20 0xFFFFFFFFFFFFFFFFFFFFFFFFFFFFFFFFFFFFFFFF AND PUSH4 0x4294A5AD DUP4 PUSH1 0x40 MLOAD DUP3 PUSH4 0xFFFFFFFF AND PUSH1 0xE0 SHL DUP2 MSTORE PUSH1 0x4 ADD PUSH2 0xF5A SWAP2 SWAP1 PUSH2 0x33FD JUMP JUMPDEST PUSH1 0x20 PUSH1 0x40 MLOAD DUP1 DUP4 SUB DUP2 DUP7 GAS STATICCALL ISZERO DUP1 ISZERO PUSH2 0xF77 JUMPI RETURNDATASIZE PUSH1 0x0 DUP1 RETURNDATACOPY RETURNDATASIZE PUSH1 0x0 REVERT JUMPDEST POP POP POP POP PUSH1 0x40 MLOAD RETURNDATASIZE PUSH1 0x1F NOT PUSH1 0x1F DUP3 ADD AND DUP3 ADD DUP1 PUSH1 0x40 MSTORE POP DUP2 ADD SWAP1 PUSH2 0xF9B SWAP2 SWAP1 PUSH2 0x344B JUMP JUMPDEST JUMPDEST DUP1 ISZERO PUSH2 0xFF5 JUMPI POP PUSH1 0x3 PUSH1 0x0 SWAP1 SLOAD SWAP1 PUSH2 0x100 EXP SWAP1 DIV PUSH20 0xFFFFFFFFFFFFFFFFFFFFFFFFFFFFFFFFFFFFFFFF AND PUSH20 0xFFFFFFFFFFFFFFFFFFFFFFFFFFFFFFFFFFFFFFFF AND CALLER PUSH20 0xFFFFFFFFFFFFFFFFFFFFFFFFFFFFFFFFFFFFFFFF AND EQ JUMPDEST ISZERO PUSH2 0x1003 JUMPI PUSH1 0x1 SWAP1 POP PUSH2 0x1008 JUMP JUMPDEST PUSH1 0x0 SWAP1 POP JUMPDEST SWAP2 SWAP1 POP JUMP JUMPDEST PUSH1 0x60 PUSH1 0x0 PUSH1 0x1 DUP1 SLOAD SWAP1 POP PUSH8 0xFFFFFFFFFFFFFFFF DUP2 GT ISZERO PUSH2 0x1030 JUMPI PUSH2 0x102F PUSH2 0x2661 JUMP JUMPDEST JUMPDEST PUSH1 0x40 MLOAD SWAP1 DUP1 DUP3 MSTORE DUP1 PUSH1 0x20 MUL PUSH1 0x20 ADD DUP3 ADD PUSH1 0x40 MSTORE DUP1 ISZERO PUSH2 0x1063 JUMPI DUP2 PUSH1 0x20 ADD JUMPDEST PUSH1 0x60 DUP2 MSTORE PUSH1 0x20 ADD SWAP1 PUSH1 0x1 SWAP1 SUB SWAP1 DUP2 PUSH2 0x104E JUMPI SWAP1 POP JUMPDEST POP SWAP1 POP PUSH1 0x0 DUP1 JUMPDEST PUSH1 0x1 DUP1 SLOAD SWAP1 POP DUP2 LT ISZERO PUSH2 0x12A1 JUMPI DUP5 PUSH1 0x40 MLOAD PUSH1 0x20 ADD PUSH2 0x1088 SWAP2 SWAP1 PUSH2 0x30FD JUMP JUMPDEST PUSH1 0x40 MLOAD PUSH1 0x20 DUP2 DUP4 SUB SUB DUP2 MSTORE SWAP1 PUSH1 0x40 MSTORE DUP1 MLOAD SWAP1 PUSH1 0x20 ADD KECCAK256 PUSH1 0x0 PUSH1 0x1 DUP4 DUP2 SLOAD DUP2 LT PUSH2 0x10B4 JUMPI PUSH2 0x10B3 PUSH2 0x3174 JUMP JUMPDEST JUMPDEST SWAP1 PUSH1 0x0 MSTORE PUSH1 0x20 PUSH1 0x0 KECCAK256 ADD PUSH1 0x40 MLOAD PUSH2 0x10CB SWAP2 SWAP1 PUSH2 0x323B JUMP JUMPDEST SWAP1 DUP2 MSTORE PUSH1 0x20 ADD PUSH1 0x40 MLOAD DUP1 SWAP2 SUB SWAP1 KECCAK256 PUSH1 0x1 ADD PUSH1 0x40 MLOAD PUSH1 0x20 ADD PUSH2 0x10EC SWAP2 SWAP1 PUSH2 0x323B JUMP JUMPDEST PUSH1 0x40 MLOAD PUSH1 0x20 DUP2 DUP4 SUB SUB DUP2 MSTORE SWAP1 PUSH1 0x40 MSTORE DUP1 MLOAD SWAP1 PUSH1 0x20 ADD KECCAK256 EQ DUP1 ISZERO PUSH2 0x1195 JUMPI POP PUSH1 0x40 MLOAD PUSH1 0x20 ADD PUSH2 0x1119 SWAP1 PUSH2 0x34C4 JUMP JUMPDEST PUSH1 0x40 MLOAD PUSH1 0x20 DUP2 DUP4 SUB SUB DUP2 MSTORE SWAP1 PUSH1 0x40 MSTORE DUP1 MLOAD SWAP1 PUSH1 0x20 ADD KECCAK256 PUSH1 0x0 PUSH1 0x1 DUP4 DUP2 SLOAD DUP2 LT PUSH2 0x1145 JUMPI PUSH2 0x1144 PUSH2 0x3174 JUMP JUMPDEST JUMPDEST SWAP1 PUSH1 0x0 MSTORE PUSH1 0x20 PUSH1 0x0 KECCAK256 ADD PUSH1 0x40 MLOAD PUSH2 0x115C SWAP2 SWAP1 PUSH2 0x323B JUMP JUMPDEST SWAP1 DUP2 MSTORE PUSH1 0x20 ADD PUSH1 0x40 MLOAD DUP1 SWAP2 SUB SWAP1 KECCAK256 PUSH1 0x7 ADD PUSH1 0x40 MLOAD PUSH1 0x20 ADD PUSH2 0x117D SWAP2 SWAP1 PUSH2 0x323B JUMP JUMPDEST PUSH1 0x40 MLOAD PUSH1 0x20 DUP2 DUP4 SUB SUB DUP2 MSTORE SWAP1 PUSH1 0x40 MSTORE DUP1 MLOAD SWAP1 PUSH1 0x20 ADD KECCAK256 EQ JUMPDEST ISZERO PUSH2 0x128E JUMPI PUSH1 0x0 PUSH1 0x1 DUP3 DUP2 SLOAD DUP2 LT PUSH2 0x11B0 JUMPI PUSH2 0x11AF PUSH2 0x3174 JUMP JUMPDEST JUMPDEST SWAP1 PUSH1 0x0 MSTORE PUSH1 0x20 PUSH1 0x0 KECCAK256 ADD PUSH1 0x40 MLOAD PUSH2 0x11C7 SWAP2 SWAP1 PUSH2 0x323B JUMP JUMPDEST SWAP1 DUP2 MSTORE PUSH1 0x20 ADD PUSH1 0x40 MLOAD DUP1 SWAP2 SUB SWAP1 KECCAK256 PUSH1 0x0 ADD DUP1 SLOAD PUSH2 0x11E3 SWAP1 PUSH2 0x3143 JUMP JUMPDEST DUP1 PUSH1 0x1F ADD PUSH1 0x20 DUP1 SWAP2 DIV MUL PUSH1 0x20 ADD PUSH1 0x40 MLOAD SWAP1 DUP2 ADD PUSH1 0x40 MSTORE DUP1 SWAP3 SWAP2 SWAP1 DUP2 DUP2 MSTORE PUSH1 0x20 ADD DUP3 DUP1 SLOAD PUSH2 0x120F SWAP1 PUSH2 0x3143 JUMP JUMPDEST DUP1 ISZERO PUSH2 0x125C JUMPI DUP1 PUSH1 0x1F LT PUSH2 0x1231 JUMPI PUSH2 0x100 DUP1 DUP4 SLOAD DIV MUL DUP4 MSTORE SWAP2 PUSH1 0x20 ADD SWAP2 PUSH2 0x125C JUMP JUMPDEST DUP3 ADD SWAP2 SWAP1 PUSH1 0x0 MSTORE PUSH1 0x20 PUSH1 0x0 KECCAK256 SWAP1 JUMPDEST DUP2 SLOAD DUP2 MSTORE SWAP1 PUSH1 0x1 ADD SWAP1 PUSH1 0x20 ADD DUP1 DUP4 GT PUSH2 0x123F JUMPI DUP3 SWAP1 SUB PUSH1 0x1F AND DUP3 ADD SWAP2 JUMPDEST POP POP POP POP POP DUP4 DUP4 DUP2 MLOAD DUP2 LT PUSH2 0x1274 JUMPI PUSH2 0x1273 PUSH2 0x3174 JUMP JUMPDEST JUMPDEST PUSH1 0x20 MUL PUSH1 0x20 ADD ADD DUP2 SWAP1 MSTORE POP DUP2 DUP1 PUSH2 0x128A SWAP1 PUSH2 0x328B JUMP JUMPDEST SWAP3 POP POP JUMPDEST DUP1 DUP1 PUSH2 0x1299 SWAP1 PUSH2 0x328B JUMP JUMPDEST SWAP2 POP POP PUSH2 0x106A JUMP JUMPDEST POP DUP1 DUP3 MSTORE DUP2 SWAP3 POP POP POP SWAP2 SWAP1 POP JUMP JUMPDEST PUSH1 0x3 PUSH1 0x0 SWAP1 SLOAD SWAP1 PUSH2 0x100 EXP SWAP1 DIV PUSH20 0xFFFFFFFFFFFFFFFFFFFFFFFFFFFFFFFFFFFFFFFF AND PUSH20 0xFFFFFFFFFFFFFFFFFFFFFFFFFFFFFFFFFFFFFFFF AND CALLER PUSH20 0xFFFFFFFFFFFFFFFFFFFFFFFFFFFFFFFFFFFFFFFF AND SUB PUSH2 0x1369 JUMPI PUSH1 0x40 MLOAD DUP1 PUSH1 0x40 ADD PUSH1 0x40 MSTORE DUP1 PUSH1 0x8 DUP2 MSTORE PUSH1 0x20 ADD PUSH32 0x6465616374697665000000000000000000000000000000000000000000000000 DUP2 MSTORE POP PUSH1 0x0 DUP3 PUSH1 0x40 MLOAD PUSH2 0x134A SWAP2 SWAP1 PUSH2 0x30FD JUMP JUMPDEST SWAP1 DUP2 MSTORE PUSH1 0x20 ADD PUSH1 0x40 MLOAD DUP1 SWAP2 SUB SWAP1 KECCAK256 PUSH1 0x7 ADD SWAP1 DUP2 PUSH2 0x1367 SWAP2 SWAP1 PUSH2 0x3670 JUMP JUMPDEST POP JUMPDEST POP JUMP JUMPDEST PUSH1 0x3 PUSH1 0x0 SWAP1 SLOAD SWAP1 PUSH2 0x100 EXP SWAP1 DIV PUSH20 0xFFFFFFFFFFFFFFFFFFFFFFFFFFFFFFFFFFFFFFFF AND PUSH20 0xFFFFFFFFFFFFFFFFFFFFFFFFFFFFFFFFFFFFFFFF AND CALLER PUSH20 0xFFFFFFFFFFFFFFFFFFFFFFFFFFFFFFFFFFFFFFFF AND SUB PUSH2 0x1616 JUMPI PUSH1 0x40 MLOAD DUP1 PUSH1 0x40 ADD PUSH1 0x40 MSTORE DUP1 PUSH1 0x6 DUP2 MSTORE PUSH1 0x20 ADD PUSH32 0x6564697465640000000000000000000000000000000000000000000000000000 DUP2 MSTORE POP PUSH1 0x0 DUP4 PUSH1 0x0 ADD MLOAD PUSH1 0x40 MLOAD PUSH2 0x140B SWAP2 SWAP1 PUSH2 0x30FD JUMP JUMPDEST SWAP1 DUP2 MSTORE PUSH1 0x20 ADD PUSH1 0x40 MLOAD DUP1 SWAP2 SUB SWAP1 KECCAK256 PUSH1 0x7 ADD SWAP1 DUP2 PUSH2 0x1428 SWAP2 SWAP1 PUSH2 0x3670 JUMP JUMPDEST POP DUP2 PUSH1 0x80 ADD MLOAD DUP2 PUSH1 0x80 ADD SWAP1 PUSH20 0xFFFFFFFFFFFFFFFFFFFFFFFFFFFFFFFFFFFFFFFF AND SWAP1 DUP2 PUSH20 0xFFFFFFFFFFFFFFFFFFFFFFFFFFFFFFFFFFFFFFFF AND DUP2 MSTORE POP POP DUP2 PUSH1 0x0 ADD MLOAD DUP2 PUSH1 0x60 ADD DUP2 SWAP1 MSTORE POP PUSH1 0x1 DUP3 PUSH1 0x40 ADD MLOAD PUSH2 0x1483 SWAP2 SWAP1 PUSH2 0x3742 JUMP JUMPDEST DUP2 PUSH1 0x40 ADD DUP2 DUP2 MSTORE POP POP PUSH1 0x40 MLOAD DUP1 PUSH1 0x40 ADD PUSH1 0x40 MSTORE DUP1 PUSH1 0x6 DUP2 MSTORE PUSH1 0x20 ADD PUSH32 0x6163746976650000000000000000000000000000000000000000000000000000 DUP2 MSTORE POP DUP2 PUSH1 0xE0 ADD DUP2 SWAP1 MSTORE POP DUP1 PUSH1 0x0 DUP3 PUSH1 0x0 ADD MLOAD PUSH1 0x40 MLOAD PUSH2 0x14DF SWAP2 SWAP1 PUSH2 0x30FD JUMP JUMPDEST SWAP1 DUP2 MSTORE PUSH1 0x20 ADD PUSH1 0x40 MLOAD DUP1 SWAP2 SUB SWAP1 KECCAK256 PUSH1 0x0 DUP3 ADD MLOAD DUP2 PUSH1 0x0 ADD SWAP1 DUP2 PUSH2 0x1502 SWAP2 SWAP1 PUSH2 0x3670 JUMP JUMPDEST POP PUSH1 0x20 DUP3 ADD MLOAD DUP2 PUSH1 0x1 ADD SWAP1 DUP2 PUSH2 0x1518 SWAP2 SWAP1 PUSH2 0x3670 JUMP JUMPDEST POP PUSH1 0x40 DUP3 ADD MLOAD DUP2 PUSH1 0x2 ADD SSTORE PUSH1 0x60 DUP3 ADD MLOAD DUP2 PUSH1 0x3 ADD SWAP1 DUP2 PUSH2 0x1538 SWAP2 SWAP1 PUSH2 0x3670 JUMP JUMPDEST POP PUSH1 0x80 DUP3 ADD MLOAD DUP2 PUSH1 0x4 ADD PUSH1 0x0 PUSH2 0x100 EXP DUP2 SLOAD DUP2 PUSH20 0xFFFFFFFFFFFFFFFFFFFFFFFFFFFFFFFFFFFFFFFF MUL NOT AND SWAP1 DUP4 PUSH20 0xFFFFFFFFFFFFFFFFFFFFFFFFFFFFFFFFFFFFFFFF AND MUL OR SWAP1 SSTORE POP PUSH1 0xA0 DUP3 ADD MLOAD DUP2 PUSH1 0x5 ADD SWAP1 DUP2 PUSH2 0x1595 SWAP2 SWAP1 PUSH2 0x3670 JUMP JUMPDEST POP PUSH1 0xC0 DUP3 ADD MLOAD DUP2 PUSH1 0x6 ADD SWAP1 DUP2 PUSH2 0x15AB SWAP2 SWAP1 PUSH2 0x3670 JUMP JUMPDEST POP PUSH1 0xE0 DUP3 ADD MLOAD DUP2 PUSH1 0x7 ADD SWAP1 DUP2 PUSH2 0x15C1 SWAP2 SWAP1 PUSH2 0x3670 JUMP JUMPDEST POP PUSH2 0x100 DUP3 ADD MLOAD DUP2 PUSH1 0x8 ADD SWAP1 DUP2 PUSH2 0x15D8 SWAP2 SWAP1 PUSH2 0x3670 JUMP JUMPDEST POP SWAP1 POP POP PUSH1 0x1 DUP2 PUSH1 0x0 ADD MLOAD SWAP1 DUP1 PUSH1 0x1 DUP2 SLOAD ADD DUP1 DUP3 SSTORE DUP1 SWAP2 POP POP PUSH1 0x1 SWAP1 SUB SWAP1 PUSH1 0x0 MSTORE PUSH1 0x20 PUSH1 0x0 KECCAK256 ADD PUSH1 0x0 SWAP1 SWAP2 SWAP1 SWAP2 SWAP1 SWAP2 POP SWAP1 DUP2 PUSH2 0x1614 SWAP2 SWAP1 PUSH2 0x3670 JUMP JUMPDEST POP JUMPDEST POP POP JUMP JUMPDEST PUSH1 0x0 DUP1 PUSH1 0x0 DUP4 PUSH1 0x40 MLOAD PUSH2 0x162D SWAP2 SWAP1 PUSH2 0x30FD JUMP JUMPDEST SWAP1 DUP2 MSTORE PUSH1 0x20 ADD PUSH1 0x40 MLOAD DUP1 SWAP2 SUB SWAP1 KECCAK256 PUSH1 0x0 ADD DUP1 SLOAD PUSH2 0x1649 SWAP1 PUSH2 0x3143 JUMP JUMPDEST SWAP1 POP EQ ISZERO DUP1 ISZERO PUSH2 0x16A6 JUMPI POP PUSH1 0x3 PUSH1 0x0 SWAP1 SLOAD SWAP1 PUSH2 0x100 EXP SWAP1 DIV PUSH20 0xFFFFFFFFFFFFFFFFFFFFFFFFFFFFFFFFFFFFFFFF AND PUSH20 0xFFFFFFFFFFFFFFFFFFFFFFFFFFFFFFFFFFFFFFFF AND CALLER PUSH20 0xFFFFFFFFFFFFFFFFFFFFFFFFFFFFFFFFFFFFFFFF AND EQ JUMPDEST ISZERO PUSH2 0x16B4 JUMPI PUSH1 0x1 SWAP1 POP PUSH2 0x16B9 JUMP JUMPDEST PUSH1 0x0 SWAP1 POP JUMPDEST SWAP2 SWAP1 POP JUMP JUMPDEST PUSH1 0x3 PUSH1 0x0 SWAP1 SLOAD SWAP1 PUSH2 0x100 EXP SWAP1 DIV PUSH20 0xFFFFFFFFFFFFFFFFFFFFFFFFFFFFFFFFFFFFFFFF AND PUSH20 0xFFFFFFFFFFFFFFFFFFFFFFFFFFFFFFFFFFFFFFFF AND CALLER PUSH20 0xFFFFFFFFFFFFFFFFFFFFFFFFFFFFFFFFFFFFFFFF AND SUB PUSH2 0x18EA JUMPI PUSH2 0x171C DUP2 PUSH2 0xEE8 JUMP JUMPDEST ISZERO PUSH2 0x18E9 JUMPI PUSH1 0x40 MLOAD DUP1 PUSH1 0x40 ADD PUSH1 0x40 MSTORE DUP1 PUSH1 0x6 DUP2 MSTORE PUSH1 0x20 ADD PUSH32 0x6163746976650000000000000000000000000000000000000000000000000000 DUP2 MSTORE POP DUP2 PUSH1 0xE0 ADD DUP2 SWAP1 MSTORE POP PUSH1 0x40 MLOAD DUP1 PUSH1 0x40 ADD PUSH1 0x40 MSTORE DUP1 PUSH1 0x1 DUP2 MSTORE PUSH1 0x20 ADD PUSH32 0x3000000000000000000000000000000000000000000000000000000000000000 DUP2 MSTORE POP DUP2 PUSH1 0x60 ADD DUP2 SWAP1 MSTORE POP DUP1 PUSH1 0x0 DUP3 PUSH1 0x0 ADD MLOAD PUSH1 0x40 MLOAD PUSH2 0x17B2 SWAP2 SWAP1 PUSH2 0x30FD JUMP JUMPDEST SWAP1 DUP2 MSTORE PUSH1 0x20 ADD PUSH1 0x40 MLOAD DUP1 SWAP2 SUB SWAP1 KECCAK256 PUSH1 0x0 DUP3 ADD MLOAD DUP2 PUSH1 0x0 ADD SWAP1 DUP2 PUSH2 0x17D5 SWAP2 SWAP1 PUSH2 0x3670 JUMP JUMPDEST POP PUSH1 0x20 DUP3 ADD MLOAD DUP2 PUSH1 0x1 ADD SWAP1 DUP2 PUSH2 0x17EB SWAP2 SWAP1 PUSH2 0x3670 JUMP JUMPDEST POP PUSH1 0x40 DUP3 ADD MLOAD DUP2 PUSH1 0x2 ADD SSTORE PUSH1 0x60 DUP3 ADD MLOAD DUP2 PUSH1 0x3 ADD SWAP1 DUP2 PUSH2 0x180B SWAP2 SWAP1 PUSH2 0x3670 JUMP JUMPDEST POP PUSH1 0x80 DUP3 ADD MLOAD DUP2 PUSH1 0x4 ADD PUSH1 0x0 PUSH2 0x100 EXP DUP2 SLOAD DUP2 PUSH20 0xFFFFFFFFFFFFFFFFFFFFFFFFFFFFFFFFFFFFFFFF MUL NOT AND SWAP1 DUP4 PUSH20 0xFFFFFFFFFFFFFFFFFFFFFFFFFFFFFFFFFFFFFFFF AND MUL OR SWAP1 SSTORE POP PUSH1 0xA0 DUP3 ADD MLOAD DUP2 PUSH1 0x5 ADD SWAP1 DUP2 PUSH2 0x1868 SWAP2 SWAP1 PUSH2 0x3670 JUMP JUMPDEST POP PUSH1 0xC0 DUP3 ADD MLOAD DUP2 PUSH1 0x6 ADD SWAP1 DUP2 PUSH2 0x187E SWAP2 SWAP1 PUSH2 0x3670 JUMP JUMPDEST POP PUSH1 0xE0 DUP3 ADD MLOAD DUP2 PUSH1 0x7 ADD SWAP1 DUP2 PUSH2 0x1894 SWAP2 SWAP1 PUSH2 0x3670 JUMP JUMPDEST POP PUSH2 0x100 DUP3 ADD MLOAD DUP2 PUSH1 0x8 ADD SWAP1 DUP2 PUSH2 0x18AB SWAP2 SWAP1 PUSH2 0x3670 JUMP JUMPDEST POP SWAP1 POP POP PUSH1 0x1 DUP2 PUSH1 0x0 ADD MLOAD SWAP1 DUP1 PUSH1 0x1 DUP2 SLOAD ADD DUP1 DUP3 SSTORE DUP1 SWAP2 POP POP PUSH1 0x1 SWAP1 SUB SWAP1 PUSH1 0x0 MSTORE PUSH1 0x20 PUSH1 0x0 KECCAK256 ADD PUSH1 0x0 SWAP1 SWAP2 SWAP1 SWAP2 SWAP1 SWAP2 POP SWAP1 DUP2 PUSH2 0x18E7 SWAP2 SWAP1 PUSH2 0x3670 JUMP JUMPDEST POP JUMPDEST JUMPDEST POP JUMP JUMPDEST PUSH2 0x18F5 PUSH2 0x25B4 JUMP JUMPDEST PUSH1 0x0 PUSH1 0x1 DUP1 SLOAD SWAP1 POP PUSH8 0xFFFFFFFFFFFFFFFF DUP2 GT ISZERO PUSH2 0x1916 JUMPI PUSH2 0x1915 PUSH2 0x2661 JUMP JUMPDEST JUMPDEST PUSH1 0x40 MLOAD SWAP1 DUP1 DUP3 MSTORE DUP1 PUSH1 0x20 MUL PUSH1 0x20 ADD DUP3 ADD PUSH1 0x40 MSTORE DUP1 ISZERO PUSH2 0x194F JUMPI DUP2 PUSH1 0x20 ADD JUMPDEST PUSH2 0x193C PUSH2 0x25D0 JUMP JUMPDEST DUP2 MSTORE PUSH1 0x20 ADD SWAP1 PUSH1 0x1 SWAP1 SUB SWAP1 DUP2 PUSH2 0x1934 JUMPI SWAP1 POP JUMPDEST POP SWAP1 POP PUSH1 0x0 DUP1 DUP5 PUSH1 0x40 MLOAD PUSH2 0x1963 SWAP2 SWAP1 PUSH2 0x30FD JUMP JUMPDEST SWAP1 DUP2 MSTORE PUSH1 0x20 ADD PUSH1 0x40 MLOAD DUP1 SWAP2 SUB SWAP1 KECCAK256 PUSH1 0x40 MLOAD DUP1 PUSH2 0x120 ADD PUSH1 0x40 MSTORE SWAP1 DUP2 PUSH1 0x0 DUP3 ADD DUP1 SLOAD PUSH2 0x198D SWAP1 PUSH2 0x3143 JUMP JUMPDEST DUP1 PUSH1 0x1F ADD PUSH1 0x20 DUP1 SWAP2 DIV MUL PUSH1 0x20 ADD PUSH1 0x40 MLOAD SWAP1 DUP2 ADD PUSH1 0x40 MSTORE DUP1 SWAP3 SWAP2 SWAP1 DUP2 DUP2 MSTORE PUSH1 0x20 ADD DUP3 DUP1 SLOAD PUSH2 0x19B9 SWAP1 PUSH2 0x3143 JUMP JUMPDEST DUP1 ISZERO PUSH2 0x1A06 JUMPI DUP1 PUSH1 0x1F LT PUSH2 0x19DB JUMPI PUSH2 0x100 DUP1 DUP4 SLOAD DIV MUL DUP4 MSTORE SWAP2 PUSH1 0x20 ADD SWAP2 PUSH2 0x1A06 JUMP JUMPDEST DUP3 ADD SWAP2 SWAP1 PUSH1 0x0 MSTORE PUSH1 0x20 PUSH1 0x0 KECCAK256 SWAP1 JUMPDEST DUP2 SLOAD DUP2 MSTORE SWAP1 PUSH1 0x1 ADD SWAP1 PUSH1 0x20 ADD DUP1 DUP4 GT PUSH2 0x19E9 JUMPI DUP3 SWAP1 SUB PUSH1 0x1F AND DUP3 ADD SWAP2 JUMPDEST POP POP POP POP POP DUP2 MSTORE PUSH1 0x20 ADD PUSH1 0x1 DUP3 ADD DUP1 SLOAD PUSH2 0x1A1F SWAP1 PUSH2 0x3143 JUMP JUMPDEST DUP1 PUSH1 0x1F ADD PUSH1 0x20 DUP1 SWAP2 DIV MUL PUSH1 0x20 ADD PUSH1 0x40 MLOAD SWAP1 DUP2 ADD PUSH1 0x40 MSTORE DUP1 SWAP3 SWAP2 SWAP1 DUP2 DUP2 MSTORE PUSH1 0x20 ADD DUP3 DUP1 SLOAD PUSH2 0x1A4B SWAP1 PUSH2 0x3143 JUMP JUMPDEST DUP1 ISZERO PUSH2 0x1A98 JUMPI DUP1 PUSH1 0x1F LT PUSH2 0x1A6D JUMPI PUSH2 0x100 DUP1 DUP4 SLOAD DIV MUL DUP4 MSTORE SWAP2 PUSH1 0x20 ADD SWAP2 PUSH2 0x1A98 JUMP JUMPDEST DUP3 ADD SWAP2 SWAP1 PUSH1 0x0 MSTORE PUSH1 0x20 PUSH1 0x0 KECCAK256 SWAP1 JUMPDEST DUP2 SLOAD DUP2 MSTORE SWAP1 PUSH1 0x1 ADD SWAP1 PUSH1 0x20 ADD DUP1 DUP4 GT PUSH2 0x1A7B JUMPI DUP3 SWAP1 SUB PUSH1 0x1F AND DUP3 ADD SWAP2 JUMPDEST POP POP POP POP POP DUP2 MSTORE PUSH1 0x20 ADD PUSH1 0x2 DUP3 ADD SLOAD DUP2 MSTORE PUSH1 0x20 ADD PUSH1 0x3 DUP3 ADD DUP1 SLOAD PUSH2 0x1ABB SWAP1 PUSH2 0x3143 JUMP JUMPDEST DUP1 PUSH1 0x1F ADD PUSH1 0x20 DUP1 SWAP2 DIV MUL PUSH1 0x20 ADD PUSH1 0x40 MLOAD SWAP1 DUP2 ADD PUSH1 0x40 MSTORE DUP1 SWAP3 SWAP2 SWAP1 DUP2 DUP2 MSTORE PUSH1 0x20 ADD DUP3 DUP1 SLOAD PUSH2 0x1AE7 SWAP1 PUSH2 0x3143 JUMP JUMPDEST DUP1 ISZERO PUSH2 0x1B34 JUMPI DUP1 PUSH1 0x1F LT PUSH2 0x1B09 JUMPI PUSH2 0x100 DUP1 DUP4 SLOAD DIV MUL DUP4 MSTORE SWAP2 PUSH1 0x20 ADD SWAP2 PUSH2 0x1B34 JUMP JUMPDEST DUP3 ADD SWAP2 SWAP1 PUSH1 0x0 MSTORE PUSH1 0x20 PUSH1 0x0 KECCAK256 SWAP1 JUMPDEST DUP2 SLOAD DUP2 MSTORE SWAP1 PUSH1 0x1 ADD SWAP1 PUSH1 0x20 ADD DUP1 DUP4 GT PUSH2 0x1B17 JUMPI DUP3 SWAP1 SUB PUSH1 0x1F AND DUP3 ADD SWAP2 JUMPDEST POP POP POP POP POP DUP2 MSTORE PUSH1 0x20 ADD PUSH1 0x4 DUP3 ADD PUSH1 0x0 SWAP1 SLOAD SWAP1 PUSH2 0x100 EXP SWAP1 DIV PUSH20 0xFFFFFFFFFFFFFFFFFFFFFFFFFFFFFFFFFFFFFFFF AND PUSH20 0xFFFFFFFFFFFFFFFFFFFFFFFFFFFFFFFFFFFFFFFF AND PUSH20 0xFFFFFFFFFFFFFFFFFFFFFFFFFFFFFFFFFFFFFFFF AND DUP2 MSTORE PUSH1 0x20 ADD PUSH1 0x5 DUP3 ADD DUP1 SLOAD PUSH2 0x1BA3 SWAP1 PUSH2 0x3143 JUMP JUMPDEST DUP1 PUSH1 0x1F ADD PUSH1 0x20 DUP1 SWAP2 DIV MUL PUSH1 0x20 ADD PUSH1 0x40 MLOAD SWAP1 DUP2 ADD PUSH1 0x40 MSTORE DUP1 SWAP3 SWAP2 SWAP1 DUP2 DUP2 MSTORE PUSH1 0x20 ADD DUP3 DUP1 SLOAD PUSH2 0x1BCF SWAP1 PUSH2 0x3143 JUMP JUMPDEST DUP1 ISZERO PUSH2 0x1C1C JUMPI DUP1 PUSH1 0x1F LT PUSH2 0x1BF1 JUMPI PUSH2 0x100 DUP1 DUP4 SLOAD DIV MUL DUP4 MSTORE SWAP2 PUSH1 0x20 ADD SWAP2 PUSH2 0x1C1C JUMP JUMPDEST DUP3 ADD SWAP2 SWAP1 PUSH1 0x0 MSTORE PUSH1 0x20 PUSH1 0x0 KECCAK256 SWAP1 JUMPDEST DUP2 SLOAD DUP2 MSTORE SWAP1 PUSH1 0x1 ADD SWAP1 PUSH1 0x20 ADD DUP1 DUP4 GT PUSH2 0x1BFF JUMPI DUP3 SWAP1 SUB PUSH1 0x1F AND DUP3 ADD SWAP2 JUMPDEST POP POP POP POP POP DUP2 MSTORE PUSH1 0x20 ADD PUSH1 0x6 DUP3 ADD DUP1 SLOAD PUSH2 0x1C35 SWAP1 PUSH2 0x3143 JUMP JUMPDEST DUP1 PUSH1 0x1F ADD PUSH1 0x20 DUP1 SWAP2 DIV MUL PUSH1 0x20 ADD PUSH1 0x40 MLOAD SWAP1 DUP2 ADD PUSH1 0x40 MSTORE DUP1 SWAP3 SWAP2 SWAP1 DUP2 DUP2 MSTORE PUSH1 0x20 ADD DUP3 DUP1 SLOAD PUSH2 0x1C61 SWAP1 PUSH2 0x3143 JUMP JUMPDEST DUP1 ISZERO PUSH2 0x1CAE JUMPI DUP1 PUSH1 0x1F LT PUSH2 0x1C83 JUMPI PUSH2 0x100 DUP1 DUP4 SLOAD DIV MUL DUP4 MSTORE SWAP2 PUSH1 0x20 ADD SWAP2 PUSH2 0x1CAE JUMP JUMPDEST DUP3 ADD SWAP2 SWAP1 PUSH1 0x0 MSTORE PUSH1 0x20 PUSH1 0x0 KECCAK256 SWAP1 JUMPDEST DUP2 SLOAD DUP2 MSTORE SWAP1 PUSH1 0x1 ADD SWAP1 PUSH1 0x20 ADD DUP1 DUP4 GT PUSH2 0x1C91 JUMPI DUP3 SWAP1 SUB PUSH1 0x1F AND DUP3 ADD SWAP2 JUMPDEST POP POP POP POP POP DUP2 MSTORE PUSH1 0x20 ADD PUSH1 0x7 DUP3 ADD DUP1 SLOAD PUSH2 0x1CC7 SWAP1 PUSH2 0x3143 JUMP JUMPDEST DUP1 PUSH1 0x1F ADD PUSH1 0x20 DUP1 SWAP2 DIV MUL PUSH1 0x20 ADD PUSH1 0x40 MLOAD SWAP1 DUP2 ADD PUSH1 0x40 MSTORE DUP1 SWAP3 SWAP2 SWAP1 DUP2 DUP2 MSTORE PUSH1 0x20 ADD DUP3 DUP1 SLOAD PUSH2 0x1CF3 SWAP1 PUSH2 0x3143 JUMP JUMPDEST DUP1 ISZERO PUSH2 0x1D40 JUMPI DUP1 PUSH1 0x1F LT PUSH2 0x1D15 JUMPI PUSH2 0x100 DUP1 DUP4 SLOAD DIV MUL DUP4 MSTORE SWAP2 PUSH1 0x20 ADD SWAP2 PUSH2 0x1D40 JUMP JUMPDEST DUP3 ADD SWAP2 SWAP1 PUSH1 0x0 MSTORE PUSH1 0x20 PUSH1 0x0 KECCAK256 SWAP1 JUMPDEST DUP2 SLOAD DUP2 MSTORE SWAP1 PUSH1 0x1 ADD SWAP1 PUSH1 0x20 ADD DUP1 DUP4 GT PUSH2 0x1D23 JUMPI DUP3 SWAP1 SUB PUSH1 0x1F AND DUP3 ADD SWAP2 JUMPDEST POP POP POP POP POP DUP2 MSTORE PUSH1 0x20 ADD PUSH1 0x8 DUP3 ADD DUP1 SLOAD PUSH2 0x1D59 SWAP1 PUSH2 0x3143 JUMP JUMPDEST DUP1 PUSH1 0x1F ADD PUSH1 0x20 DUP1 SWAP2 DIV MUL PUSH1 0x20 ADD PUSH1 0x40 MLOAD SWAP1 DUP2 ADD PUSH1 0x40 MSTORE DUP1 SWAP3 SWAP2 SWAP1 DUP2 DUP2 MSTORE PUSH1 0x20 ADD DUP3 DUP1 SLOAD PUSH2 0x1D85 SWAP1 PUSH2 0x3143 JUMP JUMPDEST DUP1 ISZERO PUSH2 0x1DD2 JUMPI DUP1 PUSH1 0x1F LT PUSH2 0x1DA7 JUMPI PUSH2 0x100 DUP1 DUP4 SLOAD DIV MUL DUP4 MSTORE SWAP2 PUSH1 0x20 ADD SWAP2 PUSH2 0x1DD2 JUMP JUMPDEST DUP3 ADD SWAP2 SWAP1 PUSH1 0x0 MSTORE PUSH1 0x20 PUSH1 0x0 KECCAK256 SWAP1 JUMPDEST DUP2 SLOAD DUP2 MSTORE SWAP1 PUSH1 0x1 ADD SWAP1 PUSH1 0x20 ADD DUP1 DUP4 GT PUSH2 0x1DB5 JUMPI DUP3 SWAP1 SUB PUSH1 0x1F AND DUP3 ADD SWAP2 JUMPDEST POP POP POP POP POP DUP2 MSTORE POP POP SWAP1 POP PUSH1 0x0 JUMPDEST PUSH1 0x40 MLOAD PUSH1 0x20 ADD PUSH2 0x1DEF SWAP1 PUSH2 0x37D2 JUMP JUMPDEST PUSH1 0x40 MLOAD PUSH1 0x20 DUP2 DUP4 SUB SUB DUP2 MSTORE SWAP1 PUSH1 0x40 MSTORE DUP1 MLOAD SWAP1 PUSH1 0x20 ADD KECCAK256 DUP3 PUSH1 0x60 ADD MLOAD PUSH1 0x40 MLOAD PUSH1 0x20 ADD PUSH2 0x1E1A SWAP2 SWAP1 PUSH2 0x30FD JUMP JUMPDEST PUSH1 0x40 MLOAD PUSH1 0x20 DUP2 DUP4 SUB SUB DUP2 MSTORE SWAP1 PUSH1 0x40 MSTORE DUP1 MLOAD SWAP1 PUSH1 0x20 ADD KECCAK256 EQ PUSH2 0x22FB JUMPI DUP2 DUP4 DUP3 DUP2 MLOAD DUP2 LT PUSH2 0x1E49 JUMPI PUSH2 0x1E48 PUSH2 0x3174 JUMP JUMPDEST JUMPDEST PUSH1 0x20 MUL PUSH1 0x20 ADD ADD DUP2 SWAP1 MSTORE POP DUP1 DUP1 PUSH2 0x1E5F SWAP1 PUSH2 0x328B JUMP JUMPDEST SWAP2 POP POP PUSH1 0x0 DUP3 PUSH1 0x60 ADD MLOAD SWAP1 POP PUSH1 0x0 DUP2 PUSH1 0x40 MLOAD PUSH2 0x1E7B SWAP2 SWAP1 PUSH2 0x30FD JUMP JUMPDEST SWAP1 DUP2 MSTORE PUSH1 0x20 ADD PUSH1 0x40 MLOAD DUP1 SWAP2 SUB SWAP1 KECCAK256 PUSH1 0x40 MLOAD DUP1 PUSH2 0x120 ADD PUSH1 0x40 MSTORE SWAP1 DUP2 PUSH1 0x0 DUP3 ADD DUP1 SLOAD PUSH2 0x1EA5 SWAP1 PUSH2 0x3143 JUMP JUMPDEST DUP1 PUSH1 0x1F ADD PUSH1 0x20 DUP1 SWAP2 DIV MUL PUSH1 0x20 ADD PUSH1 0x40 MLOAD SWAP1 DUP2 ADD PUSH1 0x40 MSTORE DUP1 SWAP3 SWAP2 SWAP1 DUP2 DUP2 MSTORE PUSH1 0x20 ADD DUP3 DUP1 SLOAD PUSH2 0x1ED1 SWAP1 PUSH2 0x3143 JUMP JUMPDEST DUP1 ISZERO PUSH2 0x1F1E JUMPI DUP1 PUSH1 0x1F LT PUSH2 0x1EF3 JUMPI PUSH2 0x100 DUP1 DUP4 SLOAD DIV MUL DUP4 MSTORE SWAP2 PUSH1 0x20 ADD SWAP2 PUSH2 0x1F1E JUMP JUMPDEST DUP3 ADD SWAP2 SWAP1 PUSH1 0x0 MSTORE PUSH1 0x20 PUSH1 0x0 KECCAK256 SWAP1 JUMPDEST DUP2 SLOAD DUP2 MSTORE SWAP1 PUSH1 0x1 ADD SWAP1 PUSH1 0x20 ADD DUP1 DUP4 GT PUSH2 0x1F01 JUMPI DUP3 SWAP1 SUB PUSH1 0x1F AND DUP3 ADD SWAP2 JUMPDEST POP POP POP POP POP DUP2 MSTORE PUSH1 0x20 ADD PUSH1 0x1 DUP3 ADD DUP1 SLOAD PUSH2 0x1F37 SWAP1 PUSH2 0x3143 JUMP JUMPDEST DUP1 PUSH1 0x1F ADD PUSH1 0x20 DUP1 SWAP2 DIV MUL PUSH1 0x20 ADD PUSH1 0x40 MLOAD SWAP1 DUP2 ADD PUSH1 0x40 MSTORE DUP1 SWAP3 SWAP2 SWAP1 DUP2 DUP2 MSTORE PUSH1 0x20 ADD DUP3 DUP1 SLOAD PUSH2 0x1F63 SWAP1 PUSH2 0x3143 JUMP JUMPDEST DUP1 ISZERO PUSH2 0x1FB0 JUMPI DUP1 PUSH1 0x1F LT PUSH2 0x1F85 JUMPI PUSH2 0x100 DUP1 DUP4 SLOAD DIV MUL DUP4 MSTORE SWAP2 PUSH1 0x20 ADD SWAP2 PUSH2 0x1FB0 JUMP JUMPDEST DUP3 ADD SWAP2 SWAP1 PUSH1 0x0 MSTORE PUSH1 0x20 PUSH1 0x0 KECCAK256 SWAP1 JUMPDEST DUP2 SLOAD DUP2 MSTORE SWAP1 PUSH1 0x1 ADD SWAP1 PUSH1 0x20 ADD DUP1 DUP4 GT PUSH2 0x1F93 JUMPI DUP3 SWAP1 SUB PUSH1 0x1F AND DUP3 ADD SWAP2 JUMPDEST POP POP POP POP POP DUP2 MSTORE PUSH1 0x20 ADD PUSH1 0x2 DUP3 ADD SLOAD DUP2 MSTORE PUSH1 0x20 ADD PUSH1 0x3 DUP3 ADD DUP1 SLOAD PUSH2 0x1FD3 SWAP1 PUSH2 0x3143 JUMP JUMPDEST DUP1 PUSH1 0x1F ADD PUSH1 0x20 DUP1 SWAP2 DIV MUL PUSH1 0x20 ADD PUSH1 0x40 MLOAD SWAP1 DUP2 ADD PUSH1 0x40 MSTORE DUP1 SWAP3 SWAP2 SWAP1 DUP2 DUP2 MSTORE PUSH1 0x20 ADD DUP3 DUP1 SLOAD PUSH2 0x1FFF SWAP1 PUSH2 0x3143 JUMP JUMPDEST DUP1 ISZERO PUSH2 0x204C JUMPI DUP1 PUSH1 0x1F LT PUSH2 0x2021 JUMPI PUSH2 0x100 DUP1 DUP4 SLOAD DIV MUL DUP4 MSTORE SWAP2 PUSH1 0x20 ADD SWAP2 PUSH2 0x204C JUMP JUMPDEST DUP3 ADD SWAP2 SWAP1 PUSH1 0x0 MSTORE PUSH1 0x20 PUSH1 0x0 KECCAK256 SWAP1 JUMPDEST DUP2 SLOAD DUP2 MSTORE SWAP1 PUSH1 0x1 ADD SWAP1 PUSH1 0x20 ADD DUP1 DUP4 GT PUSH2 0x202F JUMPI DUP3 SWAP1 SUB PUSH1 0x1F AND DUP3 ADD SWAP2 JUMPDEST POP POP POP POP POP DUP2 MSTORE PUSH1 0x20 ADD PUSH1 0x4 DUP3 ADD PUSH1 0x0 SWAP1 SLOAD SWAP1 PUSH2 0x100 EXP SWAP1 DIV PUSH20 0xFFFFFFFFFFFFFFFFFFFFFFFFFFFFFFFFFFFFFFFF AND PUSH20 0xFFFFFFFFFFFFFFFFFFFFFFFFFFFFFFFFFFFFFFFF AND PUSH20 0xFFFFFFFFFFFFFFFFFFFFFFFFFFFFFFFFFFFFFFFF AND DUP2 MSTORE PUSH1 0x20 ADD PUSH1 0x5 DUP3 ADD DUP1 SLOAD PUSH2 0x20BB SWAP1 PUSH2 0x3143 JUMP JUMPDEST DUP1 PUSH1 0x1F ADD PUSH1 0x20 DUP1 SWAP2 DIV MUL PUSH1 0x20 ADD PUSH1 0x40 MLOAD SWAP1 DUP2 ADD PUSH1 0x40 MSTORE DUP1 SWAP3 SWAP2 SWAP1 DUP2 DUP2 MSTORE PUSH1 0x20 ADD DUP3 DUP1 SLOAD PUSH2 0x20E7 SWAP1 PUSH2 0x3143 JUMP JUMPDEST DUP1 ISZERO PUSH2 0x2134 JUMPI DUP1 PUSH1 0x1F LT PUSH2 0x2109 JUMPI PUSH2 0x100 DUP1 DUP4 SLOAD DIV MUL DUP4 MSTORE SWAP2 PUSH1 0x20 ADD SWAP2 PUSH2 0x2134 JUMP JUMPDEST DUP3 ADD SWAP2 SWAP1 PUSH1 0x0 MSTORE PUSH1 0x20 PUSH1 0x0 KECCAK256 SWAP1 JUMPDEST DUP2 SLOAD DUP2 MSTORE SWAP1 PUSH1 0x1 ADD SWAP1 PUSH1 0x20 ADD DUP1 DUP4 GT PUSH2 0x2117 JUMPI DUP3 SWAP1 SUB PUSH1 0x1F AND DUP3 ADD SWAP2 JUMPDEST POP POP POP POP POP DUP2 MSTORE PUSH1 0x20 ADD PUSH1 0x6 DUP3 ADD DUP1 SLOAD PUSH2 0x214D SWAP1 PUSH2 0x3143 JUMP JUMPDEST DUP1 PUSH1 0x1F ADD PUSH1 0x20 DUP1 SWAP2 DIV MUL PUSH1 0x20 ADD PUSH1 0x40 MLOAD SWAP1 DUP2 ADD PUSH1 0x40 MSTORE DUP1 SWAP3 SWAP2 SWAP1 DUP2 DUP2 MSTORE PUSH1 0x20 ADD DUP3 DUP1 SLOAD PUSH2 0x2179 SWAP1 PUSH2 0x3143 JUMP JUMPDEST DUP1 ISZERO PUSH2 0x21C6 JUMPI DUP1 PUSH1 0x1F LT PUSH2 0x219B JUMPI PUSH2 0x100 DUP1 DUP4 SLOAD DIV MUL DUP4 MSTORE SWAP2 PUSH1 0x20 ADD SWAP2 PUSH2 0x21C6 JUMP JUMPDEST DUP3 ADD SWAP2 SWAP1 PUSH1 0x0 MSTORE PUSH1 0x20 PUSH1 0x0 KECCAK256 SWAP1 JUMPDEST DUP2 SLOAD DUP2 MSTORE SWAP1 PUSH1 0x1 ADD SWAP1 PUSH1 0x20 ADD DUP1 DUP4 GT PUSH2 0x21A9 JUMPI DUP3 SWAP1 SUB PUSH1 0x1F AND DUP3 ADD SWAP2 JUMPDEST POP POP POP POP POP DUP2 MSTORE PUSH1 0x20 ADD PUSH1 0x7 DUP3 ADD DUP1 SLOAD PUSH2 0x21DF SWAP1 PUSH2 0x3143 JUMP JUMPDEST DUP1 PUSH1 0x1F ADD PUSH1 0x20 DUP1 SWAP2 DIV MUL PUSH1 0x20 ADD PUSH1 0x40 MLOAD SWAP1 DUP2 ADD PUSH1 0x40 MSTORE DUP1 SWAP3 SWAP2 SWAP1 DUP2 DUP2 MSTORE PUSH1 0x20 ADD DUP3 DUP1 SLOAD PUSH2 0x220B SWAP1 PUSH2 0x3143 JUMP JUMPDEST DUP1 ISZERO PUSH2 0x2258 JUMPI DUP1 PUSH1 0x1F LT PUSH2 0x222D JUMPI PUSH2 0x100 DUP1 DUP4 SLOAD DIV MUL DUP4 MSTORE SWAP2 PUSH1 0x20 ADD SWAP2 PUSH2 0x2258 JUMP JUMPDEST DUP3 ADD SWAP2 SWAP1 PUSH1 0x0 MSTORE PUSH1 0x20 PUSH1 0x0 KECCAK256 SWAP1 JUMPDEST DUP2 SLOAD DUP2 MSTORE SWAP1 PUSH1 0x1 ADD SWAP1 PUSH1 0x20 ADD DUP1 DUP4 GT PUSH2 0x223B JUMPI DUP3 SWAP1 SUB PUSH1 0x1F AND DUP3 ADD SWAP2 JUMPDEST POP POP POP POP POP DUP2 MSTORE PUSH1 0x20 ADD PUSH1 0x8 DUP3 ADD DUP1 SLOAD PUSH2 0x2271 SWAP1 PUSH2 0x3143 JUMP JUMPDEST DUP1 PUSH1 0x1F ADD PUSH1 0x20 DUP1 SWAP2 DIV MUL PUSH1 0x20 ADD PUSH1 0x40 MLOAD SWAP1 DUP2 ADD PUSH1 0x40 MSTORE DUP1 SWAP3 SWAP2 SWAP1 DUP2 DUP2 MSTORE PUSH1 0x20 ADD DUP3 DUP1 SLOAD PUSH2 0x229D SWAP1 PUSH2 0x3143 JUMP JUMPDEST DUP1 ISZERO PUSH2 0x22EA JUMPI DUP1 PUSH1 0x1F LT PUSH2 0x22BF JUMPI PUSH2 0x100 DUP1 DUP4 SLOAD DIV MUL DUP4 MSTORE SWAP2 PUSH1 0x20 ADD SWAP2 PUSH2 0x22EA JUMP JUMPDEST DUP3 ADD SWAP2 SWAP1 PUSH1 0x0 MSTORE PUSH1 0x20 PUSH1 0x0 KECCAK256 SWAP1 JUMPDEST DUP2 SLOAD DUP2 MSTORE SWAP1 PUSH1 0x1 ADD SWAP1 PUSH1 0x20 ADD DUP1 DUP4 GT PUSH2 0x22CD JUMPI DUP3 SWAP1 SUB PUSH1 0x1F AND DUP3 ADD SWAP2 JUMPDEST POP POP POP POP POP DUP2 MSTORE POP POP SWAP3 POP POP PUSH2 0x1DE0 JUMP JUMPDEST DUP2 DUP4 DUP3 DUP2 MLOAD DUP2 LT PUSH2 0x230F JUMPI PUSH2 0x230E PUSH2 0x3174 JUMP JUMPDEST JUMPDEST PUSH1 0x20 MUL PUSH1 0x20 ADD ADD DUP2 SWAP1 MSTORE POP DUP1 DUP1 PUSH2 0x2325 SWAP1 PUSH2 0x328B JUMP JUMPDEST SWAP2 POP POP DUP1 DUP4 MSTORE PUSH1 0x40 MLOAD DUP1 PUSH1 0x40 ADD PUSH1 0x40 MSTORE DUP1 PUSH1 0x1 ISZERO ISZERO DUP2 MSTORE PUSH1 0x20 ADD DUP5 DUP2 MSTORE POP SWAP4 POP POP POP POP SWAP2 SWAP1 POP JUMP JUMPDEST PUSH1 0x0 PUSH20 0xFFFFFFFFFFFFFFFFFFFFFFFFFFFFFFFFFFFFFFFF AND DUP2 PUSH20 0xFFFFFFFFFFFFFFFFFFFFFFFFFFFFFFFFFFFFFFFF AND EQ ISZERO DUP1 ISZERO PUSH2 0x23D8 JUMPI POP PUSH1 0x0 PUSH20 0xFFFFFFFFFFFFFFFFFFFFFFFFFFFFFFFFFFFFFFFF AND PUSH1 0x3 PUSH1 0x0 SWAP1 SLOAD SWAP1 PUSH2 0x100 EXP SWAP1 DIV PUSH20 0xFFFFFFFFFFFFFFFFFFFFFFFFFFFFFFFFFFFFFFFF AND PUSH20 0xFFFFFFFFFFFFFFFFFFFFFFFFFFFFFFFFFFFFFFFF AND EQ JUMPDEST ISZERO PUSH2 0x241F JUMPI DUP1 PUSH1 0x3 PUSH1 0x0 PUSH2 0x100 EXP DUP2 SLOAD DUP2 PUSH20 0xFFFFFFFFFFFFFFFFFFFFFFFFFFFFFFFFFFFFFFFF MUL NOT AND SWAP1 DUP4 PUSH20 0xFFFFFFFFFFFFFFFFFFFFFFFFFFFFFFFFFFFFFFFF AND MUL OR SWAP1 SSTORE POP JUMPDEST POP JUMP JUMPDEST PUSH2 0x242A PUSH2 0x2576 JUMP JUMPDEST PUSH1 0x3 PUSH1 0x0 SWAP1 SLOAD SWAP1 PUSH2 0x100 EXP SWAP1 DIV PUSH20 0xFFFFFFFFFFFFFFFFFFFFFFFFFFFFFFFFFFFFFFFF AND PUSH20 0xFFFFFFFFFFFFFFFFFFFFFFFFFFFFFFFFFFFFFFFF AND CALLER PUSH20 0xFFFFFFFFFFFFFFFFFFFFFFFFFFFFFFFFFFFFFFFF AND SUB PUSH2 0x2547 JUMPI PUSH1 0x40 MLOAD DUP1 PUSH1 0x40 ADD PUSH1 0x40 MSTORE DUP1 PUSH1 0x1 ISZERO ISZERO DUP2 MSTORE PUSH1 0x20 ADD PUSH1 0x0 DUP5 PUSH1 0x40 MLOAD PUSH2 0x24A3 SWAP2 SWAP1 PUSH2 0x30FD JUMP JUMPDEST SWAP1 DUP2 MSTORE PUSH1 0x20 ADD PUSH1 0x40 MLOAD DUP1 SWAP2 SUB SWAP1 KECCAK256 PUSH1 0x8 ADD DUP1 SLOAD PUSH2 0x24BF SWAP1 PUSH2 0x3143 JUMP JUMPDEST DUP1 PUSH1 0x1F ADD PUSH1 0x20 DUP1 SWAP2 DIV MUL PUSH1 0x20 ADD PUSH1 0x40 MLOAD SWAP1 DUP2 ADD PUSH1 0x40 MSTORE DUP1 SWAP3 SWAP2 SWAP1 DUP2 DUP2 MSTORE PUSH1 0x20 ADD DUP3 DUP1 SLOAD PUSH2 0x24EB SWAP1 PUSH2 0x3143 JUMP JUMPDEST DUP1 ISZERO PUSH2 0x2538 JUMPI DUP1 PUSH1 0x1F LT PUSH2 0x250D JUMPI PUSH2 0x100 DUP1 DUP4 SLOAD DIV MUL DUP4 MSTORE SWAP2 PUSH1 0x20 ADD SWAP2 PUSH2 0x2538 JUMP JUMPDEST DUP3 ADD SWAP2 SWAP1 PUSH1 0x0 MSTORE PUSH1 0x20 PUSH1 0x0 KECCAK256 SWAP1 JUMPDEST DUP2 SLOAD DUP2 MSTORE SWAP1 PUSH1 0x1 ADD SWAP1 PUSH1 0x20 ADD DUP1 DUP4 GT PUSH2 0x251B JUMPI DUP3 SWAP1 SUB PUSH1 0x1F AND DUP3 ADD SWAP2 JUMPDEST POP POP POP POP POP DUP2 MSTORE POP SWAP1 POP PUSH2 0x2571 JUMP JUMPDEST PUSH1 0x40 MLOAD DUP1 PUSH1 0x40 ADD PUSH1 0x40 MSTORE DUP1 PUSH1 0x0 ISZERO ISZERO DUP2 MSTORE PUSH1 0x20 ADD PUSH1 0x40 MLOAD DUP1 PUSH1 0x20 ADD PUSH1 0x40 MSTORE DUP1 PUSH1 0x0 DUP2 MSTORE POP DUP2 MSTORE POP SWAP1 POP JUMPDEST SWAP2 SWAP1 POP JUMP JUMPDEST PUSH1 0x40 MLOAD DUP1 PUSH1 0x40 ADD PUSH1 0x40 MSTORE DUP1 PUSH1 0x0 ISZERO ISZERO DUP2 MSTORE PUSH1 0x20 ADD PUSH1 0x60 DUP2 MSTORE POP SWAP1 JUMP JUMPDEST PUSH1 0x40 MLOAD DUP1 PUSH1 0x40 ADD PUSH1 0x40 MSTORE DUP1 PUSH1 0x0 ISZERO ISZERO DUP2 MSTORE PUSH1 0x20 ADD PUSH2 0x25AE PUSH2 0x25D0 JUMP JUMPDEST DUP2 MSTORE POP SWAP1 JUMP JUMPDEST PUSH1 0x40 MLOAD DUP1 PUSH1 0x40 ADD PUSH1 0x40 MSTORE DUP1 PUSH1 0x0 ISZERO ISZERO DUP2 MSTORE PUSH1 0x20 ADD PUSH1 0x60 DUP2 MSTORE POP SWAP1 JUMP JUMPDEST PUSH1 0x40 MLOAD DUP1 PUSH2 0x120 ADD PUSH1 0x40 MSTORE DUP1 PUSH1 0x60 DUP2 MSTORE PUSH1 0x20 ADD PUSH1 0x60 DUP2 MSTORE PUSH1 0x20 ADD PUSH1 0x0 DUP2 MSTORE PUSH1 0x20 ADD PUSH1 0x60 DUP2 MSTORE PUSH1 0x20 ADD PUSH1 0x0 PUSH20 0xFFFFFFFFFFFFFFFFFFFFFFFFFFFFFFFFFFFFFFFF AND DUP2 MSTORE PUSH1 0x20 ADD PUSH1 0x60 DUP2 MSTORE PUSH1 0x20 ADD PUSH1 0x60 DUP2 MSTORE PUSH1 0x20 ADD PUSH1 0x60 DUP2 MSTORE PUSH1 0x20 ADD PUSH1 0x60 DUP2 MSTORE POP SWAP1 JUMP JUMPDEST PUSH1 0x0 PUSH1 0x40 MLOAD SWAP1 POP SWAP1 JUMP JUMPDEST PUSH1 0x0 DUP1 REVERT JUMPDEST PUSH1 0x0 DUP1 REVERT JUMPDEST PUSH1 0x0 DUP1 REVERT JUMPDEST PUSH1 0x0 DUP1 REVERT JUMPDEST PUSH1 0x0 PUSH1 0x1F NOT PUSH1 0x1F DUP4 ADD AND SWAP1 POP SWAP2 SWAP1 POP JUMP JUMPDEST PUSH32 0x4E487B7100000000000000000000000000000000000000000000000000000000 PUSH1 0x0 MSTORE PUSH1 0x41 PUSH1 0x4 MSTORE PUSH1 0x24 PUSH1 0x0 REVERT JUMPDEST PUSH2 0x2699 DUP3 PUSH2 0x2650 JUMP JUMPDEST DUP2 ADD DUP2 DUP2 LT PUSH8 0xFFFFFFFFFFFFFFFF DUP3 GT OR ISZERO PUSH2 0x26B8 JUMPI PUSH2 0x26B7 PUSH2 0x2661 JUMP JUMPDEST JUMPDEST DUP1 PUSH1 0x40 MSTORE POP POP POP JUMP JUMPDEST PUSH1 0x0 PUSH2 0x26CB PUSH2 0x2632 JUMP JUMPDEST SWAP1 POP PUSH2 0x26D7 DUP3 DUP3 PUSH2 0x2690 JUMP JUMPDEST SWAP2 SWAP1 POP JUMP JUMPDEST PUSH1 0x0 PUSH8 0xFFFFFFFFFFFFFFFF DUP3 GT ISZERO PUSH2 0x26F7 JUMPI PUSH2 0x26F6 PUSH2 0x2661 JUMP JUMPDEST JUMPDEST PUSH2 0x2700 DUP3 PUSH2 0x2650 JUMP JUMPDEST SWAP1 POP PUSH1 0x20 DUP2 ADD SWAP1 POP SWAP2 SWAP1 POP JUMP JUMPDEST DUP3 DUP2 DUP4 CALLDATACOPY PUSH1 0x0 DUP4 DUP4 ADD MSTORE POP POP POP JUMP JUMPDEST PUSH1 0x0 PUSH2 0x272F PUSH2 0x272A DUP5 PUSH2 0x26DC JUMP JUMPDEST PUSH2 0x26C1 JUMP JUMPDEST SWAP1 POP DUP3 DUP2 MSTORE PUSH1 0x20 DUP2 ADD DUP5 DUP5 DUP5 ADD GT ISZERO PUSH2 0x274B JUMPI PUSH2 0x274A PUSH2 0x264B JUMP JUMPDEST JUMPDEST PUSH2 0x2756 DUP5 DUP3 DUP6 PUSH2 0x270D JUMP JUMPDEST POP SWAP4 SWAP3 POP POP POP JUMP JUMPDEST PUSH1 0x0 DUP3 PUSH1 0x1F DUP4 ADD SLT PUSH2 0x2773 JUMPI PUSH2 0x2772 PUSH2 0x2646 JUMP JUMPDEST JUMPDEST DUP2 CALLDATALOAD PUSH2 0x2783 DUP5 DUP3 PUSH1 0x20 DUP7 ADD PUSH2 0x271C JUMP JUMPDEST SWAP2 POP POP SWAP3 SWAP2 POP POP JUMP JUMPDEST PUSH1 0x0 PUSH1 0x20 DUP3 DUP5 SUB SLT ISZERO PUSH2 0x27A2 JUMPI PUSH2 0x27A1 PUSH2 0x263C JUMP JUMPDEST JUMPDEST PUSH1 0x0 DUP3 ADD CALLDATALOAD PUSH8 0xFFFFFFFFFFFFFFFF DUP2 GT ISZERO PUSH2 0x27C0 JUMPI PUSH2 0x27BF PUSH2 0x2641 JUMP JUMPDEST JUMPDEST PUSH2 0x27CC DUP5 DUP3 DUP6 ADD PUSH2 0x275E JUMP JUMPDEST SWAP2 POP POP SWAP3 SWAP2 POP POP JUMP JUMPDEST PUSH1 0x0 DUP2 ISZERO ISZERO SWAP1 POP SWAP2 SWAP1 POP JUMP JUMPDEST PUSH2 0x27EA DUP2 PUSH2 0x27D5 JUMP JUMPDEST DUP3 MSTORE POP POP JUMP JUMPDEST PUSH1 0x0 DUP2 MLOAD SWAP1 POP SWAP2 SWAP1 POP JUMP JUMPDEST PUSH1 0x0 DUP3 DUP3 MSTORE PUSH1 0x20 DUP3 ADD SWAP1 POP SWAP3 SWAP2 POP POP JUMP JUMPDEST PUSH1 0x0 JUMPDEST DUP4 DUP2 LT ISZERO PUSH2 0x282A JUMPI DUP1 DUP3 ADD MLOAD DUP2 DUP5 ADD MSTORE PUSH1 0x20 DUP2 ADD SWAP1 POP PUSH2 0x280F JUMP JUMPDEST PUSH1 0x0 DUP5 DUP5 ADD MSTORE POP POP POP POP JUMP JUMPDEST PUSH1 0x0 PUSH2 0x2841 DUP3 PUSH2 0x27F0 JUMP JUMPDEST PUSH2 0x284B DUP2 DUP6 PUSH2 0x27FB JUMP JUMPDEST SWAP4 POP PUSH2 0x285B DUP2 DUP6 PUSH1 0x20 DUP7 ADD PUSH2 0x280C JUMP JUMPDEST PUSH2 0x2864 DUP2 PUSH2 0x2650 JUMP JUMPDEST DUP5 ADD SWAP2 POP POP SWAP3 SWAP2 POP POP JUMP JUMPDEST PUSH1 0x0 PUSH1 0x40 DUP4 ADD PUSH1 0x0 DUP4 ADD MLOAD PUSH2 0x2887 PUSH1 0x0 DUP7 ADD DUP3 PUSH2 0x27E1 JUMP JUMPDEST POP PUSH1 0x20 DUP4 ADD MLOAD DUP5 DUP3 SUB PUSH1 0x20 DUP7 ADD MSTORE PUSH2 0x289F DUP3 DUP3 PUSH2 0x2836 JUMP JUMPDEST SWAP2 POP POP DUP1 SWAP2 POP POP SWAP3 SWAP2 POP POP JUMP JUMPDEST PUSH1 0x0 PUSH1 0x20 DUP3 ADD SWAP1 POP DUP2 DUP2 SUB PUSH1 0x0 DUP4 ADD MSTORE PUSH2 0x28C6 DUP2 DUP5 PUSH2 0x286F JUMP JUMPDEST SWAP1 POP SWAP3 SWAP2 POP POP JUMP JUMPDEST PUSH1 0x0 PUSH20 0xFFFFFFFFFFFFFFFFFFFFFFFFFFFFFFFFFFFFFFFF DUP3 AND SWAP1 POP SWAP2 SWAP1 POP JUMP JUMPDEST PUSH1 0x0 PUSH2 0x28F9 DUP3 PUSH2 0x28CE JUMP JUMPDEST SWAP1 POP SWAP2 SWAP1 POP JUMP JUMPDEST PUSH2 0x2909 DUP2 PUSH2 0x28EE JUMP JUMPDEST DUP3 MSTORE POP POP JUMP JUMPDEST PUSH1 0x0 PUSH1 0x20 DUP3 ADD SWAP1 POP PUSH2 0x2924 PUSH1 0x0 DUP4 ADD DUP5 PUSH2 0x2900 JUMP JUMPDEST SWAP3 SWAP2 POP POP JUMP JUMPDEST PUSH1 0x0 DUP1 PUSH1 0x40 DUP4 DUP6 SUB SLT ISZERO PUSH2 0x2941 JUMPI PUSH2 0x2940 PUSH2 0x263C JUMP JUMPDEST JUMPDEST PUSH1 0x0 DUP4 ADD CALLDATALOAD PUSH8 0xFFFFFFFFFFFFFFFF DUP2 GT ISZERO PUSH2 0x295F JUMPI PUSH2 0x295E PUSH2 0x2641 JUMP JUMPDEST JUMPDEST PUSH2 0x296B DUP6 DUP3 DUP7 ADD PUSH2 0x275E JUMP JUMPDEST SWAP3 POP POP PUSH1 0x20 DUP4 ADD CALLDATALOAD PUSH8 0xFFFFFFFFFFFFFFFF DUP2 GT ISZERO PUSH2 0x298C JUMPI PUSH2 0x298B PUSH2 0x2641 JUMP JUMPDEST JUMPDEST PUSH2 0x2998 DUP6 DUP3 DUP7 ADD PUSH2 0x275E JUMP JUMPDEST SWAP2 POP POP SWAP3 POP SWAP3 SWAP1 POP JUMP JUMPDEST PUSH1 0x0 DUP2 SWAP1 POP SWAP2 SWAP1 POP JUMP JUMPDEST PUSH2 0x29B5 DUP2 PUSH2 0x29A2 JUMP JUMPDEST DUP3 MSTORE POP POP JUMP JUMPDEST PUSH2 0x29C4 DUP2 PUSH2 0x28EE JUMP JUMPDEST DUP3 MSTORE POP POP JUMP JUMPDEST PUSH1 0x0 PUSH2 0x120 DUP4 ADD PUSH1 0x0 DUP4 ADD MLOAD DUP5 DUP3 SUB PUSH1 0x0 DUP7 ADD MSTORE PUSH2 0x29E8 DUP3 DUP3 PUSH2 0x2836 JUMP JUMPDEST SWAP2 POP POP PUSH1 0x20 DUP4 ADD MLOAD DUP5 DUP3 SUB PUSH1 0x20 DUP7 ADD MSTORE PUSH2 0x2A02 DUP3 DUP3 PUSH2 0x2836 JUMP JUMPDEST SWAP2 POP POP PUSH1 0x40 DUP4 ADD MLOAD PUSH2 0x2A17 PUSH1 0x40 DUP7 ADD DUP3 PUSH2 0x29AC JUMP JUMPDEST POP PUSH1 0x60 DUP4 ADD MLOAD DUP5 DUP3 SUB PUSH1 0x60 DUP7 ADD MSTORE PUSH2 0x2A2F DUP3 DUP3 PUSH2 0x2836 JUMP JUMPDEST SWAP2 POP POP PUSH1 0x80 DUP4 ADD MLOAD PUSH2 0x2A44 PUSH1 0x80 DUP7 ADD DUP3 PUSH2 0x29BB JUMP JUMPDEST POP PUSH1 0xA0 DUP4 ADD MLOAD DUP5 DUP3 SUB PUSH1 0xA0 DUP7 ADD MSTORE PUSH2 0x2A5C DUP3 DUP3 PUSH2 0x2836 JUMP JUMPDEST SWAP2 POP POP PUSH1 0xC0 DUP4 ADD MLOAD DUP5 DUP3 SUB PUSH1 0xC0 DUP7 ADD MSTORE PUSH2 0x2A76 DUP3 DUP3 PUSH2 0x2836 JUMP JUMPDEST SWAP2 POP POP PUSH1 0xE0 DUP4 ADD MLOAD DUP5 DUP3 SUB PUSH1 0xE0 DUP7 ADD MSTORE PUSH2 0x2A90 DUP3 DUP3 PUSH2 0x2836 JUMP JUMPDEST SWAP2 POP POP PUSH2 0x100 DUP4 ADD MLOAD DUP5 DUP3 SUB PUSH2 0x100 DUP7 ADD MSTORE PUSH2 0x2AAC DUP3 DUP3 PUSH2 0x2836 JUMP JUMPDEST SWAP2 POP POP DUP1 SWAP2 POP POP SWAP3 SWAP2 POP POP JUMP JUMPDEST PUSH1 0x0 PUSH1 0x40 DUP4 ADD PUSH1 0x0 DUP4 ADD MLOAD PUSH2 0x2AD1 PUSH1 0x0 DUP7 ADD DUP3 PUSH2 0x27E1 JUMP JUMPDEST POP PUSH1 0x20 DUP4 ADD MLOAD DUP5 DUP3 SUB PUSH1 0x20 DUP7 ADD MSTORE PUSH2 0x2AE9 DUP3 DUP3 PUSH2 0x29CA JUMP JUMPDEST SWAP2 POP POP DUP1 SWAP2 POP POP SWAP3 SWAP2 POP POP JUMP JUMPDEST PUSH1 0x0 PUSH1 0x20 DUP3 ADD SWAP1 POP DUP2 DUP2 SUB PUSH1 0x0 DUP4 ADD MSTORE PUSH2 0x2B10 DUP2 DUP5 PUSH2 0x2AB9 JUMP JUMPDEST SWAP1 POP SWAP3 SWAP2 POP POP JUMP JUMPDEST PUSH2 0x2B21 DUP2 PUSH2 0x29A2 JUMP JUMPDEST DUP3 MSTORE POP POP JUMP JUMPDEST PUSH1 0x0 PUSH1 0x20 DUP3 ADD SWAP1 POP PUSH2 0x2B3C PUSH1 0x0 DUP4 ADD DUP5 PUSH2 0x2B18 JUMP JUMPDEST SWAP3 SWAP2 POP POP JUMP JUMPDEST PUSH2 0x2B4B DUP2 PUSH2 0x28EE JUMP JUMPDEST DUP2 EQ PUSH2 0x2B56 JUMPI PUSH1 0x0 DUP1 REVERT JUMPDEST POP JUMP JUMPDEST PUSH1 0x0 DUP2 CALLDATALOAD SWAP1 POP PUSH2 0x2B68 DUP2 PUSH2 0x2B42 JUMP JUMPDEST SWAP3 SWAP2 POP POP JUMP JUMPDEST PUSH1 0x0 DUP1 PUSH1 0x40 DUP4 DUP6 SUB SLT ISZERO PUSH2 0x2B85 JUMPI PUSH2 0x2B84 PUSH2 0x263C JUMP JUMPDEST JUMPDEST PUSH1 0x0 PUSH2 0x2B93 DUP6 DUP3 DUP7 ADD PUSH2 0x2B59 JUMP JUMPDEST SWAP3 POP POP PUSH1 0x20 DUP4 ADD CALLDATALOAD PUSH8 0xFFFFFFFFFFFFFFFF DUP2 GT ISZERO PUSH2 0x2BB4 JUMPI PUSH2 0x2BB3 PUSH2 0x2641 JUMP JUMPDEST JUMPDEST PUSH2 0x2BC0 DUP6 DUP3 DUP7 ADD PUSH2 0x275E JUMP JUMPDEST SWAP2 POP POP SWAP3 POP SWAP3 SWAP1 POP JUMP JUMPDEST PUSH2 0x2BD3 DUP2 PUSH2 0x27D5 JUMP JUMPDEST DUP3 MSTORE POP POP JUMP JUMPDEST PUSH1 0x0 PUSH1 0x20 DUP3 ADD SWAP1 POP PUSH2 0x2BEE PUSH1 0x0 DUP4 ADD DUP5 PUSH2 0x2BCA JUMP JUMPDEST SWAP3 SWAP2 POP POP JUMP JUMPDEST PUSH1 0x0 DUP1 REVERT JUMPDEST PUSH1 0x0 DUP1 REVERT JUMPDEST PUSH2 0x2C07 DUP2 PUSH2 0x29A2 JUMP JUMPDEST DUP2 EQ PUSH2 0x2C12 JUMPI PUSH1 0x0 DUP1 REVERT JUMPDEST POP JUMP JUMPDEST PUSH1 0x0 DUP2 CALLDATALOAD SWAP1 POP PUSH2 0x2C24 DUP2 PUSH2 0x2BFE JUMP JUMPDEST SWAP3 SWAP2 POP POP JUMP JUMPDEST PUSH1 0x0 PUSH2 0x120 DUP3 DUP5 SUB SLT ISZERO PUSH2 0x2C41 JUMPI PUSH2 0x2C40 PUSH2 0x2BF4 JUMP JUMPDEST JUMPDEST PUSH2 0x2C4C PUSH2 0x120 PUSH2 0x26C1 JUMP JUMPDEST SWAP1 POP PUSH1 0x0 DUP3 ADD CALLDATALOAD PUSH8 0xFFFFFFFFFFFFFFFF DUP2 GT ISZERO PUSH2 0x2C6C JUMPI PUSH2 0x2C6B PUSH2 0x2BF9 JUMP JUMPDEST JUMPDEST PUSH2 0x2C78 DUP5 DUP3 DUP6 ADD PUSH2 0x275E JUMP JUMPDEST PUSH1 0x0 DUP4 ADD MSTORE POP PUSH1 0x20 DUP3 ADD CALLDATALOAD PUSH8 0xFFFFFFFFFFFFFFFF DUP2 GT ISZERO PUSH2 0x2C9C JUMPI PUSH2 0x2C9B PUSH2 0x2BF9 JUMP JUMPDEST JUMPDEST PUSH2 0x2CA8 DUP5 DUP3 DUP6 ADD PUSH2 0x275E JUMP JUMPDEST PUSH1 0x20 DUP4 ADD MSTORE POP PUSH1 0x40 PUSH2 0x2CBC DUP5 DUP3 DUP6 ADD PUSH2 0x2C15 JUMP JUMPDEST PUSH1 0x40 DUP4 ADD MSTORE POP PUSH1 0x60 DUP3 ADD CALLDATALOAD PUSH8 0xFFFFFFFFFFFFFFFF DUP2 GT ISZERO PUSH2 0x2CE0 JUMPI PUSH2 0x2CDF PUSH2 0x2BF9 JUMP JUMPDEST JUMPDEST PUSH2 0x2CEC DUP5 DUP3 DUP6 ADD PUSH2 0x275E JUMP JUMPDEST PUSH1 0x60 DUP4 ADD MSTORE POP PUSH1 0x80 PUSH2 0x2D00 DUP5 DUP3 DUP6 ADD PUSH2 0x2B59 JUMP JUMPDEST PUSH1 0x80 DUP4 ADD MSTORE POP PUSH1 0xA0 DUP3 ADD CALLDATALOAD PUSH8 0xFFFFFFFFFFFFFFFF DUP2 GT ISZERO PUSH2 0x2D24 JUMPI PUSH2 0x2D23 PUSH2 0x2BF9 JUMP JUMPDEST JUMPDEST PUSH2 0x2D30 DUP5 DUP3 DUP6 ADD PUSH2 0x275E JUMP JUMPDEST PUSH1 0xA0 DUP4 ADD MSTORE POP PUSH1 0xC0 DUP3 ADD CALLDATALOAD PUSH8 0xFFFFFFFFFFFFFFFF DUP2 GT ISZERO PUSH2 0x2D54 JUMPI PUSH2 0x2D53 PUSH2 0x2BF9 JUMP JUMPDEST JUMPDEST PUSH2 0x2D60 DUP5 DUP3 DUP6 ADD PUSH2 0x275E JUMP JUMPDEST PUSH1 0xC0 DUP4 ADD MSTORE POP PUSH1 0xE0 DUP3 ADD CALLDATALOAD PUSH8 0xFFFFFFFFFFFFFFFF DUP2 GT ISZERO PUSH2 0x2D84 JUMPI PUSH2 0x2D83 PUSH2 0x2BF9 JUMP JUMPDEST JUMPDEST PUSH2 0x2D90 DUP5 DUP3 DUP6 ADD PUSH2 0x275E JUMP JUMPDEST PUSH1 0xE0 DUP4 ADD MSTORE POP PUSH2 0x100 DUP3 ADD CALLDATALOAD PUSH8 0xFFFFFFFFFFFFFFFF DUP2 GT ISZERO PUSH2 0x2DB5 JUMPI PUSH2 0x2DB4 PUSH2 0x2BF9 JUMP JUMPDEST JUMPDEST PUSH2 0x2DC1 DUP5 DUP3 DUP6 ADD PUSH2 0x275E JUMP JUMPDEST PUSH2 0x100 DUP4 ADD MSTORE POP SWAP3 SWAP2 POP POP JUMP JUMPDEST PUSH1 0x0 PUSH1 0x20 DUP3 DUP5 SUB SLT ISZERO PUSH2 0x2DE4 JUMPI PUSH2 0x2DE3 PUSH2 0x263C JUMP JUMPDEST JUMPDEST PUSH1 0x0 DUP3 ADD CALLDATALOAD PUSH8 0xFFFFFFFFFFFFFFFF DUP2 GT ISZERO PUSH2 0x2E02 JUMPI PUSH2 0x2E01 PUSH2 0x2641 JUMP JUMPDEST JUMPDEST PUSH2 0x2E0E DUP5 DUP3 DUP6 ADD PUSH2 0x2C2A JUMP JUMPDEST SWAP2 POP POP SWAP3 SWAP2 POP POP JUMP JUMPDEST PUSH1 0x0 DUP2 MLOAD SWAP1 POP SWAP2 SWAP1 POP JUMP JUMPDEST PUSH1 0x0 DUP3 DUP3 MSTORE PUSH1 0x20 DUP3 ADD SWAP1 POP SWAP3 SWAP2 POP POP JUMP JUMPDEST PUSH1 0x0 DUP2 SWAP1 POP PUSH1 0x20 DUP3 ADD SWAP1 POP SWAP2 SWAP1 POP JUMP JUMPDEST PUSH1 0x0 PUSH2 0x2E4F DUP4 DUP4 PUSH2 0x2836 JUMP JUMPDEST SWAP1 POP SWAP3 SWAP2 POP POP JUMP JUMPDEST PUSH1 0x0 PUSH1 0x20 DUP3 ADD SWAP1 POP SWAP2 SWAP1 POP JUMP JUMPDEST PUSH1 0x0 PUSH2 0x2E6F DUP3 PUSH2 0x2E17 JUMP JUMPDEST PUSH2 0x2E79 DUP2 DUP6 PUSH2 0x2E22 JUMP JUMPDEST SWAP4 POP DUP4 PUSH1 0x20 DUP3 MUL DUP6 ADD PUSH2 0x2E8B DUP6 PUSH2 0x2E33 JUMP JUMPDEST DUP1 PUSH1 0x0 JUMPDEST DUP6 DUP2 LT ISZERO PUSH2 0x2EC7 JUMPI DUP5 DUP5 SUB DUP10 MSTORE DUP2 MLOAD PUSH2 0x2EA8 DUP6 DUP3 PUSH2 0x2E43 JUMP JUMPDEST SWAP5 POP PUSH2 0x2EB3 DUP4 PUSH2 0x2E57 JUMP JUMPDEST SWAP3 POP PUSH1 0x20 DUP11 ADD SWAP10 POP POP PUSH1 0x1 DUP2 ADD SWAP1 POP PUSH2 0x2E8F JUMP JUMPDEST POP DUP3 SWAP8 POP DUP8 SWAP6 POP POP POP POP POP POP SWAP3 SWAP2 POP POP JUMP JUMPDEST PUSH1 0x0 PUSH1 0x20 DUP3 ADD SWAP1 POP DUP2 DUP2 SUB PUSH1 0x0 DUP4 ADD MSTORE PUSH2 0x2EF3 DUP2 DUP5 PUSH2 0x2E64 JUMP JUMPDEST SWAP1 POP SWAP3 SWAP2 POP POP JUMP JUMPDEST PUSH1 0x0 DUP1 PUSH1 0x40 DUP4 DUP6 SUB SLT ISZERO PUSH2 0x2F12 JUMPI PUSH2 0x2F11 PUSH2 0x263C JUMP JUMPDEST JUMPDEST PUSH1 0x0 DUP4 ADD CALLDATALOAD PUSH8 0xFFFFFFFFFFFFFFFF DUP2 GT ISZERO PUSH2 0x2F30 JUMPI PUSH2 0x2F2F PUSH2 0x2641 JUMP JUMPDEST JUMPDEST PUSH2 0x2F3C DUP6 DUP3 DUP7 ADD PUSH2 0x2C2A JUMP JUMPDEST SWAP3 POP POP PUSH1 0x20 DUP4 ADD CALLDATALOAD PUSH8 0xFFFFFFFFFFFFFFFF DUP2 GT ISZERO PUSH2 0x2F5D JUMPI PUSH2 0x2F5C PUSH2 0x2641 JUMP JUMPDEST JUMPDEST PUSH2 0x2F69 DUP6 DUP3 DUP7 ADD PUSH2 0x2C2A JUMP JUMPDEST SWAP2 POP POP SWAP3 POP SWAP3 SWAP1 POP JUMP JUMPDEST PUSH1 0x0 DUP2 MLOAD SWAP1 POP SWAP2 SWAP1 POP JUMP JUMPDEST PUSH1 0x0 DUP3 DUP3 MSTORE PUSH1 0x20 DUP3 ADD SWAP1 POP SWAP3 SWAP2 POP POP JUMP JUMPDEST PUSH1 0x0 DUP2 SWAP1 POP PUSH1 0x20 DUP3 ADD SWAP1 POP SWAP2 SWAP1 POP JUMP JUMPDEST PUSH1 0x0 PUSH2 0x2FAB DUP4 DUP4 PUSH2 0x29CA JUMP JUMPDEST SWAP1 POP SWAP3 SWAP2 POP POP JUMP JUMPDEST PUSH1 0x0 PUSH1 0x20 DUP3 ADD SWAP1 POP SWAP2 SWAP1 POP JUMP JUMPDEST PUSH1 0x0 PUSH2 0x2FCB DUP3 PUSH2 0x2F73 JUMP JUMPDEST PUSH2 0x2FD5 DUP2 DUP6 PUSH2 0x2F7E JUMP JUMPDEST SWAP4 POP DUP4 PUSH1 0x20 DUP3 MUL DUP6 ADD PUSH2 0x2FE7 DUP6 PUSH2 0x2F8F JUMP JUMPDEST DUP1 PUSH1 0x0 JUMPDEST DUP6 DUP2 LT ISZERO PUSH2 0x3023 JUMPI DUP5 DUP5 SUB DUP10 MSTORE DUP2 MLOAD PUSH2 0x3004 DUP6 DUP3 PUSH2 0x2F9F JUMP JUMPDEST SWAP5 POP PUSH2 0x300F DUP4 PUSH2 0x2FB3 JUMP JUMPDEST SWAP3 POP PUSH1 0x20 DUP11 ADD SWAP10 POP POP PUSH1 0x1 DUP2 ADD SWAP1 POP PUSH2 0x2FEB JUMP JUMPDEST POP DUP3 SWAP8 POP DUP8 SWAP6 POP POP POP POP POP POP SWAP3 SWAP2 POP POP JUMP JUMPDEST PUSH1 0x0 PUSH1 0x40 DUP4 ADD PUSH1 0x0 DUP4 ADD MLOAD PUSH2 0x304D PUSH1 0x0 DUP7 ADD DUP3 PUSH2 0x27E1 JUMP JUMPDEST POP PUSH1 0x20 DUP4 ADD MLOAD DUP5 DUP3 SUB PUSH1 0x20 DUP7 ADD MSTORE PUSH2 0x3065 DUP3 DUP3 PUSH2 0x2FC0 JUMP JUMPDEST SWAP2 POP POP DUP1 SWAP2 POP POP SWAP3 SWAP2 POP POP JUMP JUMPDEST PUSH1 0x0 PUSH1 0x20 DUP3 ADD SWAP1 POP DUP2 DUP2 SUB PUSH1 0x0 DUP4 ADD MSTORE PUSH2 0x308C DUP2 DUP5 PUSH2 0x3035 JUMP JUMPDEST SWAP1 POP SWAP3 SWAP2 POP POP JUMP JUMPDEST PUSH1 0x0 PUSH1 0x20 DUP3 DUP5 SUB SLT ISZERO PUSH2 0x30AA JUMPI PUSH2 0x30A9 PUSH2 0x263C JUMP JUMPDEST JUMPDEST PUSH1 0x0 PUSH2 0x30B8 DUP5 DUP3 DUP6 ADD PUSH2 0x2B59 JUMP JUMPDEST SWAP2 POP POP SWAP3 SWAP2 POP POP JUMP JUMPDEST PUSH1 0x0 DUP2 SWAP1 POP SWAP3 SWAP2 POP POP JUMP JUMPDEST PUSH1 0x0 PUSH2 0x30D7 DUP3 PUSH2 0x27F0 JUMP JUMPDEST PUSH2 0x30E1 DUP2 DUP6 PUSH2 0x30C1 JUMP JUMPDEST SWAP4 POP PUSH2 0x30F1 DUP2 DUP6 PUSH1 0x20 DUP7 ADD PUSH2 0x280C JUMP JUMPDEST DUP1 DUP5 ADD SWAP2 POP POP SWAP3 SWAP2 POP POP JUMP JUMPDEST PUSH1 0x0 PUSH2 0x3109 DUP3 DUP5 PUSH2 0x30CC JUMP JUMPDEST SWAP2 POP DUP2 SWAP1 POP SWAP3 SWAP2 POP POP JUMP JUMPDEST PUSH32 0x4E487B7100000000000000000000000000000000000000000000000000000000 PUSH1 0x0 MSTORE PUSH1 0x22 PUSH1 0x4 MSTORE PUSH1 0x24 PUSH1 0x0 REVERT JUMPDEST PUSH1 0x0 PUSH1 0x2 DUP3 DIV SWAP1 POP PUSH1 0x1 DUP3 AND DUP1 PUSH2 0x315B JUMPI PUSH1 0x7F DUP3 AND SWAP2 POP JUMPDEST PUSH1 0x20 DUP3 LT DUP2 SUB PUSH2 0x316E JUMPI PUSH2 0x316D PUSH2 0x3114 JUMP JUMPDEST JUMPDEST POP SWAP2 SWAP1 POP JUMP JUMPDEST PUSH32 0x4E487B7100000000000000000000000000000000000000000000000000000000 PUSH1 0x0 MSTORE PUSH1 0x32 PUSH1 0x4 MSTORE PUSH1 0x24 PUSH1 0x0 REVERT JUMPDEST PUSH1 0x0 DUP2 SWAP1 POP DUP2 PUSH1 0x0 MSTORE PUSH1 0x20 PUSH1 0x0 KECCAK256 SWAP1 POP SWAP2 SWAP1 POP JUMP JUMPDEST PUSH1 0x0 DUP2 SLOAD PUSH2 0x31C5 DUP2 PUSH2 0x3143 JUMP JUMPDEST PUSH2 0x31CF DUP2 DUP7 PUSH2 0x30C1 JUMP JUMPDEST SWAP5 POP PUSH1 0x1 DUP3 AND PUSH1 0x0 DUP2 EQ PUSH2 0x31EA JUMPI PUSH1 0x1 DUP2 EQ PUSH2 0x31FF JUMPI PUSH2 0x3232 JUMP JUMPDEST PUSH1 0xFF NOT DUP4 AND DUP7 MSTORE DUP2 ISZERO ISZERO DUP3 MUL DUP7 ADD SWAP4 POP PUSH2 0x3232 JUMP JUMPDEST PUSH2 0x3208 DUP6 PUSH2 0x31A3 JUMP JUMPDEST PUSH1 0x0 JUMPDEST DUP4 DUP2 LT ISZERO PUSH2 0x322A JUMPI DUP2 SLOAD DUP2 DUP10 ADD MSTORE PUSH1 0x1 DUP3 ADD SWAP2 POP PUSH1 0x20 DUP2 ADD SWAP1 POP PUSH2 0x320B JUMP JUMPDEST DUP4 DUP9 ADD SWAP6 POP POP POP JUMPDEST POP POP POP SWAP3 SWAP2 POP POP JUMP JUMPDEST PUSH1 0x0 PUSH2 0x3247 DUP3 DUP5 PUSH2 0x31B8 JUMP JUMPDEST SWAP2 POP DUP2 SWAP1 POP SWAP3 SWAP2 POP POP JUMP JUMPDEST PUSH32 0x4E487B7100000000000000000000000000000000000000000000000000000000 PUSH1 0x0 MSTORE PUSH1 0x11 PUSH1 0x4 MSTORE PUSH1 0x24 PUSH1 0x0 REVERT JUMPDEST PUSH1 0x0 DUP2 SWAP1 POP SWAP2 SWAP1 POP JUMP JUMPDEST PUSH1 0x0 PUSH2 0x3296 DUP3 PUSH2 0x3281 JUMP JUMPDEST SWAP2 POP PUSH32 0xFFFFFFFFFFFFFFFFFFFFFFFFFFFFFFFFFFFFFFFFFFFFFFFFFFFFFFFFFFFFFFFF DUP3 SUB PUSH2 0x32C8 JUMPI PUSH2 0x32C7 PUSH2 0x3252 JUMP JUMPDEST JUMPDEST PUSH1 0x1 DUP3 ADD SWAP1 POP SWAP2 SWAP1 POP JUMP JUMPDEST POP JUMP JUMPDEST PUSH1 0x0 PUSH2 0x32E3 PUSH1 0x0 DUP4 PUSH2 0x30C1 JUMP JUMPDEST SWAP2 POP PUSH2 0x32EE DUP3 PUSH2 0x32D3 JUMP JUMPDEST PUSH1 0x0 DUP3 ADD SWAP1 POP SWAP2 SWAP1 POP JUMP JUMPDEST PUSH1 0x0 PUSH2 0x3304 DUP3 PUSH2 0x32D6 JUMP JUMPDEST SWAP2 POP DUP2 SWAP1 POP SWAP2 SWAP1 POP JUMP JUMPDEST PUSH1 0x0 PUSH2 0x120 DUP4 ADD PUSH1 0x0 DUP4 ADD MLOAD DUP5 DUP3 SUB PUSH1 0x0 DUP7 ADD MSTORE PUSH2 0x332C DUP3 DUP3 PUSH2 0x2836 JUMP JUMPDEST SWAP2 POP POP PUSH1 0x20 DUP4 ADD MLOAD DUP5 DUP3 SUB PUSH1 0x20 DUP7 ADD MSTORE PUSH2 0x3346 DUP3 DUP3 PUSH2 0x2836 JUMP JUMPDEST SWAP2 POP POP PUSH1 0x40 DUP4 ADD MLOAD PUSH2 0x335B PUSH1 0x40 DUP7 ADD DUP3 PUSH2 0x29AC JUMP JUMPDEST POP PUSH1 0x60 DUP4 ADD MLOAD DUP5 DUP3 SUB PUSH1 0x60 DUP7 ADD MSTORE PUSH2 0x3373 DUP3 DUP3 PUSH2 0x2836 JUMP JUMPDEST SWAP2 POP POP PUSH1 0x80 DUP4 ADD MLOAD PUSH2 0x3388 PUSH1 0x80 DUP7 ADD DUP3 PUSH2 0x29BB JUMP JUMPDEST POP PUSH1 0xA0 DUP4 ADD MLOAD DUP5 DUP3 SUB PUSH1 0xA0 DUP7 ADD MSTORE PUSH2 0x33A0 DUP3 DUP3 PUSH2 0x2836 JUMP JUMPDEST SWAP2 POP POP PUSH1 0xC0 DUP4 ADD MLOAD DUP5 DUP3 SUB PUSH1 0xC0 DUP7 ADD MSTORE PUSH2 0x33BA DUP3 DUP3 PUSH2 0x2836 JUMP JUMPDEST SWAP2 POP POP PUSH1 0xE0 DUP4 ADD MLOAD DUP5 DUP3 SUB PUSH1 0xE0 DUP7 ADD MSTORE PUSH2 0x33D4 DUP3 DUP3 PUSH2 0x2836 JUMP JUMPDEST SWAP2 POP POP PUSH2 0x100 DUP4 ADD MLOAD DUP5 DUP3 SUB PUSH2 0x100 DUP7 ADD MSTORE PUSH2 0x33F0 DUP3 DUP3 PUSH2 0x2836 JUMP JUMPDEST SWAP2 POP POP DUP1 SWAP2 POP POP SWAP3 SWAP2 POP POP JUMP JUMPDEST PUSH1 0x0 PUSH1 0x20 DUP3 ADD SWAP1 POP DUP2 DUP2 SUB PUSH1 0x0 DUP4 ADD MSTORE PUSH2 0x3417 DUP2 DUP5 PUSH2 0x330E JUMP JUMPDEST SWAP1 POP SWAP3 SWAP2 POP POP JUMP JUMPDEST PUSH2 0x3428 DUP2 PUSH2 0x27D5 JUMP JUMPDEST DUP2 EQ PUSH2 0x3433 JUMPI PUSH1 0x0 DUP1 REVERT JUMPDEST POP JUMP JUMPDEST PUSH1 0x0 DUP2 MLOAD SWAP1 POP PUSH2 0x3445 DUP2 PUSH2 0x341F JUMP JUMPDEST SWAP3 SWAP2 POP POP JUMP JUMPDEST PUSH1 0x0 PUSH1 0x20 DUP3 DUP5 SUB SLT ISZERO PUSH2 0x3461 JUMPI PUSH2 0x3460 PUSH2 0x263C JUMP JUMPDEST JUMPDEST PUSH1 0x0 PUSH2 0x346F DUP5 DUP3 DUP6 ADD PUSH2 0x3436 JUMP JUMPDEST SWAP2 POP POP SWAP3 SWAP2 POP POP JUMP JUMPDEST PUSH32 0x6163746976650000000000000000000000000000000000000000000000000000 PUSH1 0x0 DUP3 ADD MSTORE POP JUMP JUMPDEST PUSH1 0x0 PUSH2 0x34AE PUSH1 0x6 DUP4 PUSH2 0x30C1 JUMP JUMPDEST SWAP2 POP PUSH2 0x34B9 DUP3 PUSH2 0x3478 JUMP JUMPDEST PUSH1 0x6 DUP3 ADD SWAP1 POP SWAP2 SWAP1 POP JUMP JUMPDEST PUSH1 0x0 PUSH2 0x34CF DUP3 PUSH2 0x34A1 JUMP JUMPDEST SWAP2 POP DUP2 SWAP1 POP SWAP2 SWAP1 POP JUMP JUMPDEST PUSH1 0x0 PUSH1 0x20 PUSH1 0x1F DUP4 ADD DIV SWAP1 POP SWAP2 SWAP1 POP JUMP JUMPDEST PUSH1 0x0 DUP3 DUP3 SHL SWAP1 POP SWAP3 SWAP2 POP POP JUMP JUMPDEST PUSH1 0x0 PUSH1 0x8 DUP4 MUL PUSH2 0x3526 PUSH32 0xFFFFFFFFFFFFFFFFFFFFFFFFFFFFFFFFFFFFFFFFFFFFFFFFFFFFFFFFFFFFFFFF DUP3 PUSH2 0x34E9 JUMP JUMPDEST PUSH2 0x3530 DUP7 DUP4 PUSH2 0x34E9 JUMP JUMPDEST SWAP6 POP DUP1 NOT DUP5 AND SWAP4 POP DUP1 DUP7 AND DUP5 OR SWAP3 POP POP POP SWAP4 SWAP3 POP POP POP JUMP JUMPDEST PUSH1 0x0 DUP2 SWAP1 POP SWAP2 SWAP1 POP JUMP JUMPDEST PUSH1 0x0 PUSH2 0x356D PUSH2 0x3568 PUSH2 0x3563 DUP5 PUSH2 0x3281 JUMP JUMPDEST PUSH2 0x3548 JUMP JUMPDEST PUSH2 0x3281 JUMP JUMPDEST SWAP1 POP SWAP2 SWAP1 POP JUMP JUMPDEST PUSH1 0x0 DUP2 SWAP1 POP SWAP2 SWAP1 POP JUMP JUMPDEST PUSH2 0x3587 DUP4 PUSH2 0x3552 JUMP JUMPDEST PUSH2 0x359B PUSH2 0x3593 DUP3 PUSH2 0x3574 JUMP JUMPDEST DUP5 DUP5 SLOAD PUSH2 0x34F6 JUMP JUMPDEST DUP3 SSTORE POP POP POP POP JUMP JUMPDEST PUSH1 0x0 SWAP1 JUMP JUMPDEST PUSH2 0x35B0 PUSH2 0x35A3 JUMP JUMPDEST PUSH2 0x35BB DUP2 DUP5 DUP5 PUSH2 0x357E JUMP JUMPDEST POP POP POP JUMP JUMPDEST JUMPDEST DUP2 DUP2 LT ISZERO PUSH2 0x35DF JUMPI PUSH2 0x35D4 PUSH1 0x0 DUP3 PUSH2 0x35A8 JUMP JUMPDEST PUSH1 0x1 DUP2 ADD SWAP1 POP PUSH2 0x35C1 JUMP JUMPDEST POP POP JUMP JUMPDEST PUSH1 0x1F DUP3 GT ISZERO PUSH2 0x3624 JUMPI PUSH2 0x35F5 DUP2 PUSH2 0x31A3 JUMP JUMPDEST PUSH2 0x35FE DUP5 PUSH2 0x34D9 JUMP JUMPDEST DUP2 ADD PUSH1 0x20 DUP6 LT ISZERO PUSH2 0x360D JUMPI DUP2 SWAP1 POP JUMPDEST PUSH2 0x3621 PUSH2 0x3619 DUP6 PUSH2 0x34D9 JUMP JUMPDEST DUP4 ADD DUP3 PUSH2 0x35C0 JUMP JUMPDEST POP POP JUMPDEST POP POP POP JUMP JUMPDEST PUSH1 0x0 DUP3 DUP3 SHR SWAP1 POP SWAP3 SWAP2 POP POP JUMP JUMPDEST PUSH1 0x0 PUSH2 0x3647 PUSH1 0x0 NOT DUP5 PUSH1 0x8 MUL PUSH2 0x3629 JUMP JUMPDEST NOT DUP1 DUP4 AND SWAP2 POP POP SWAP3 SWAP2 POP POP JUMP JUMPDEST PUSH1 0x0 PUSH2 0x3660 DUP4 DUP4 PUSH2 0x3636 JUMP JUMPDEST SWAP2 POP DUP3 PUSH1 0x2 MUL DUP3 OR SWAP1 POP SWAP3 SWAP2 POP POP JUMP JUMPDEST PUSH2 0x3679 DUP3 PUSH2 0x27F0 JUMP JUMPDEST PUSH8 0xFFFFFFFFFFFFFFFF DUP2 GT ISZERO PUSH2 0x3692 JUMPI PUSH2 0x3691 PUSH2 0x2661 JUMP JUMPDEST JUMPDEST PUSH2 0x369C DUP3 SLOAD PUSH2 0x3143 JUMP JUMPDEST PUSH2 0x36A7 DUP3 DUP3 DUP6 PUSH2 0x35E3 JUMP JUMPDEST PUSH1 0x0 PUSH1 0x20 SWAP1 POP PUSH1 0x1F DUP4 GT PUSH1 0x1 DUP2 EQ PUSH2 0x36DA JUMPI PUSH1 0x0 DUP5 ISZERO PUSH2 0x36C8 JUMPI DUP3 DUP8 ADD MLOAD SWAP1 POP JUMPDEST PUSH2 0x36D2 DUP6 DUP3 PUSH2 0x3654 JUMP JUMPDEST DUP7 SSTORE POP PUSH2 0x373A JUMP JUMPDEST PUSH1 0x1F NOT DUP5 AND PUSH2 0x36E8 DUP7 PUSH2 0x31A3 JUMP JUMPDEST PUSH1 0x0 JUMPDEST DUP3 DUP2 LT ISZERO PUSH2 0x3710 JUMPI DUP5 DUP10 ADD MLOAD DUP3 SSTORE PUSH1 0x1 DUP3 ADD SWAP2 POP PUSH1 0x20 DUP6 ADD SWAP5 POP PUSH1 0x20 DUP2 ADD SWAP1 POP PUSH2 0x36EB JUMP JUMPDEST DUP7 DUP4 LT ISZERO PUSH2 0x372D JUMPI DUP5 DUP10 ADD MLOAD PUSH2 0x3729 PUSH1 0x1F DUP10 AND DUP3 PUSH2 0x3636 JUMP JUMPDEST DUP4 SSTORE POP JUMPDEST PUSH1 0x1 PUSH1 0x2 DUP9 MUL ADD DUP9 SSTORE POP POP POP JUMPDEST POP POP POP POP POP POP JUMP JUMPDEST PUSH1 0x0 PUSH2 0x374D DUP3 PUSH2 0x29A2 JUMP JUMPDEST SWAP2 POP PUSH2 0x3758 DUP4 PUSH2 0x29A2 JUMP JUMPDEST SWAP3 POP DUP3 DUP3 ADD SWAP1 POP DUP3 DUP2 SLT ISZERO PUSH1 0x0 DUP4 SLT AND DUP4 DUP3 SLT PUSH1 0x0 DUP5 SLT ISZERO AND OR ISZERO PUSH2 0x3780 JUMPI PUSH2 0x377F PUSH2 0x3252 JUMP JUMPDEST JUMPDEST SWAP3 SWAP2 POP POP JUMP JUMPDEST PUSH32 0x3000000000000000000000000000000000000000000000000000000000000000 PUSH1 0x0 DUP3 ADD MSTORE POP JUMP JUMPDEST PUSH1 0x0 PUSH2 0x37BC PUSH1 0x1 DUP4 PUSH2 0x30C1 JUMP JUMPDEST SWAP2 POP PUSH2 0x37C7 DUP3 PUSH2 0x3786 JUMP JUMPDEST PUSH1 0x1 DUP3 ADD SWAP1 POP SWAP2 SWAP1 POP JUMP JUMPDEST PUSH1 0x0 PUSH2 0x37DD DUP3 PUSH2 0x37AF JUMP JUMPDEST SWAP2 POP DUP2 SWAP1 POP SWAP2 SWAP1 POP JUMP INVALID LOG2 PUSH5 0x6970667358 0x22 SLT KECCAK256 0xAA 0xEA BALANCE EXTCODECOPY PUSH1 0x41 SIGNEXTEND DUP2 PUSH11 0xE4FE5D45622B9951AF2D8A SLT 0xC9 DUP7 POP 0xB1 LT DELEGATECALL PUSH2 0x5B3E PUSH26 0xC064736F6C634300081300330000000000000000000000000000 "},"methodIdentifiers":{"addFile((string,string,int256,string,address,string,string,string,string))":"bfddc42f","canAddFile((string,string,int256,string,address,string,string,string,string))":"5a14f3ef","deactivateFile(string)":"74546fdf","editFile((string,string,int256,string,address,string,string,string,string),(string,string,int256,string,address,string,string,string,string))":"95f0f0bb","fileExists(string)":"9bccd6ad","getEditedFileByIpfsCid(string)":"e5a83513","getFileByIpfsCID(string,string)":"47eb6fa7","getFileHash(string)":"f880680b","getFileOwner(string)":"38fa8f58","getFileState(string)":"00438ceb","getIpfsCIDsForName(string)":"7113c4dd","getLatestVersionOfFile(string)":"4907904b","setAccessControlAddress(address)":"e8d56b8b","userIsFileOwner(address,string)":"52a9baef"}}}}}