{"contracts/AuditLogControl.sol":{"AuditLogControl":{"abi":[{"inputs":[],"stateMutability":"nonpayable","type":"constructor"},{"inputs":[{"internalType":"string[]","name":"filesIpfsCid","type":"string[]"}],"name":"getLogs","outputs":[{"components":[{"internalType":"bool","name":"success","type":"bool"},{"components":[{"internalType":"string","name":"fileIpfsCid","type":"string"},{"internalType":"address","name":"userAccount","type":"address"},{"internalType":"uint256","name":"timestamp","type":"uint256"},{"internalType":"string","name":"action","type":"string"},{"internalType":"string","name":"permissions","type":"string"},{"internalType":"address","name":"executer","type":"address"}],"internalType":"struct AuditLogControl.AuditLog[]","name":"logs","type":"tuple[]"}],"internalType":"struct AuditLogControl.ResultAuditLogs","name":"","type":"tuple"}],"stateMutability":"view","type":"function"},{"inputs":[{"internalType":"address","name":"executer","type":"address"},{"internalType":"string","name":"fileIpfsCid","type":"string"},{"internalType":"address","name":"userAccount","type":"address"},{"internalType":"string","name":"permissions","type":"string"},{"internalType":"string","name":"action","type":"string"}],"name":"recordLogFromAccessControl","outputs":[],"stateMutability":"nonpayable","type":"function"}],"evm":{"bytecode":{"linkReferences":{},"object":"608060405234801561001057600080fd5b5033600160006101000a81548173ffffffffffffffffffffffffffffffffffffffff021916908373ffffffffffffffffffffffffffffffffffffffff16021790555033600260006101000a81548173ffffffffffffffffffffffffffffffffffffffff021916908373ffffffffffffffffffffffffffffffffffffffff1602179055506113e1806100a26000396000f3fe608060405234801561001057600080fd5b50600436106100365760003560e01c8063759ab1851461003b578063c47ebddc1461006b575b600080fd5b61005560048036038101906100509190610a68565b610087565b6040516100629190610d3b565b60405180910390f35b61008560048036038101906100809190610d89565b6105e7565b005b61008f6107aa565b6000808054905067ffffffffffffffff8111156100af576100ae610852565b5b6040519080825280602002602001820160405280156100e857816020015b6100d56107c6565b8152602001906001900390816100cd5790505b5090506000805b845181101561054457600160009054906101000a900473ffffffffffffffffffffffffffffffffffffffff1673ffffffffffffffffffffffffffffffffffffffff16631ac47dd03387848151811061014a57610149610e58565b5b60200260200101516040518363ffffffff1660e01b815260040161016f929190610ee0565b602060405180830381865afa15801561018c573d6000803e3d6000fd5b505050506040513d601f19601f820116820180604052508101906101b09190610f3c565b156105315760005b60008054905081101561052f578582815181106101d8576101d7610e58565b5b60200260200101516040516020016101f09190610fa5565b604051602081830303815290604052805190602001206000828154811061021a57610219610e58565b5b906000526020600020906006020160000160405160200161023b91906110b4565b604051602081830303815290604052805190602001200361051c576000818154811061026a57610269610e58565b5b90600052602060002090600602016040518060c001604052908160008201805461029390610feb565b80601f01602080910402602001604051908101604052809291908181526020018280546102bf90610feb565b801561030c5780601f106102e15761010080835404028352916020019161030c565b820191906000526020600020905b8154815290600101906020018083116102ef57829003601f168201915b505050505081526020016001820160009054906101000a900473ffffffffffffffffffffffffffffffffffffffff1673ffffffffffffffffffffffffffffffffffffffff1673ffffffffffffffffffffffffffffffffffffffff1681526020016002820154815260200160038201805461038590610feb565b80601f01602080910402602001604051908101604052809291908181526020018280546103b190610feb565b80156103fe5780601f106103d3576101008083540402835291602001916103fe565b820191906000526020600020905b8154815290600101906020018083116103e157829003601f168201915b5050505050815260200160048201805461041790610feb565b80601f016020809104026020016040519081016040528092919081815260200182805461044390610feb565b80156104905780601f1061046557610100808354040283529160200191610490565b820191906000526020600020905b81548152906001019060200180831161047357829003601f168201915b505050505081526020016005820160009054906101000a900473ffffffffffffffffffffffffffffffffffffffff1673ffffffffffffffffffffffffffffffffffffffff1673ffffffffffffffffffffffffffffffffffffffff168152505084848151811061050257610501610e58565b5b60200260200101819052508280610518906110fa565b9350505b8080610527906110fa565b9150506101b8565b505b808061053c906110fa565b9150506100ef565b508082526000811461057157604051806040016040528060011515815260200183815250925050506105e2565b6040518060400160405280600015158152602001600067ffffffffffffffff8111156105a05761059f610852565b5b6040519080825280602002602001820160405280156105d957816020015b6105c66107c6565b8152602001906001900390816105be5790505b50815250925050505b919050565b600260009054906101000a900473ffffffffffffffffffffffffffffffffffffffff1673ffffffffffffffffffffffffffffffffffffffff163373ffffffffffffffffffffffffffffffffffffffff16036107a35760006040518060c001604052808681526020018573ffffffffffffffffffffffffffffffffffffffff1681526020014281526020018381526020018481526020018773ffffffffffffffffffffffffffffffffffffffff168152509050600081908060018154018082558091505060019003906000526020600020906006020160009091909190915060008201518160000190816106da91906112d9565b5060208201518160010160006101000a81548173ffffffffffffffffffffffffffffffffffffffff021916908373ffffffffffffffffffffffffffffffffffffffff16021790555060408201518160020155606082015181600301908161074191906112d9565b50608082015181600401908161075791906112d9565b5060a08201518160050160006101000a81548173ffffffffffffffffffffffffffffffffffffffff021916908373ffffffffffffffffffffffffffffffffffffffff1602179055505050505b5050505050565b6040518060400160405280600015158152602001606081525090565b6040518060c0016040528060608152602001600073ffffffffffffffffffffffffffffffffffffffff168152602001600081526020016060815260200160608152602001600073ffffffffffffffffffffffffffffffffffffffff1681525090565b6000604051905090565b600080fd5b600080fd5b600080fd5b6000601f19601f8301169050919050565b7f4e487b7100000000000000000000000000000000000000000000000000000000600052604160045260246000fd5b61088a82610841565b810181811067ffffffffffffffff821117156108a9576108a8610852565b5b80604052505050565b60006108bc610828565b90506108c88282610881565b919050565b600067ffffffffffffffff8211156108e8576108e7610852565b5b602082029050602081019050919050565b600080fd5b600080fd5b600067ffffffffffffffff82111561091e5761091d610852565b5b61092782610841565b9050602081019050919050565b82818337600083830152505050565b600061095661095184610903565b6108b2565b905082815260208101848484011115610972576109716108fe565b5b61097d848285610934565b509392505050565b600082601f83011261099a5761099961083c565b5b81356109aa848260208601610943565b91505092915050565b60006109c66109c1846108cd565b6108b2565b905080838252602082019050602084028301858111156109e9576109e86108f9565b5b835b81811015610a3057803567ffffffffffffffff811115610a0e57610a0d61083c565b5b808601610a1b8982610985565b855260208501945050506020810190506109eb565b5050509392505050565b600082601f830112610a4f57610a4e61083c565b5b8135610a5f8482602086016109b3565b91505092915050565b600060208284031215610a7e57610a7d610832565b5b600082013567ffffffffffffffff811115610a9c57610a9b610837565b5b610aa884828501610a3a565b91505092915050565b60008115159050919050565b610ac681610ab1565b82525050565b600081519050919050565b600082825260208201905092915050565b6000819050602082019050919050565b600081519050919050565b600082825260208201905092915050565b60005b83811015610b32578082015181840152602081019050610b17565b60008484015250505050565b6000610b4982610af8565b610b538185610b03565b9350610b63818560208601610b14565b610b6c81610841565b840191505092915050565b600073ffffffffffffffffffffffffffffffffffffffff82169050919050565b6000610ba282610b77565b9050919050565b610bb281610b97565b82525050565b6000819050919050565b610bcb81610bb8565b82525050565b600060c0830160008301518482036000860152610bee8282610b3e565b9150506020830151610c036020860182610ba9565b506040830151610c166040860182610bc2565b5060608301518482036060860152610c2e8282610b3e565b91505060808301518482036080860152610c488282610b3e565b91505060a0830151610c5d60a0860182610ba9565b508091505092915050565b6000610c748383610bd1565b905092915050565b6000602082019050919050565b6000610c9482610acc565b610c9e8185610ad7565b935083602082028501610cb085610ae8565b8060005b85811015610cec5784840389528151610ccd8582610c68565b9450610cd883610c7c565b925060208a01995050600181019050610cb4565b50829750879550505050505092915050565b6000604083016000830151610d166000860182610abd565b5060208301518482036020860152610d2e8282610c89565b9150508091505092915050565b60006020820190508181036000830152610d558184610cfe565b905092915050565b610d6681610b97565b8114610d7157600080fd5b50565b600081359050610d8381610d5d565b92915050565b600080600080600060a08688031215610da557610da4610832565b5b6000610db388828901610d74565b955050602086013567ffffffffffffffff811115610dd457610dd3610837565b5b610de088828901610985565b9450506040610df188828901610d74565b935050606086013567ffffffffffffffff811115610e1257610e11610837565b5b610e1e88828901610985565b925050608086013567ffffffffffffffff811115610e3f57610e3e610837565b5b610e4b88828901610985565b9150509295509295909350565b7f4e487b7100000000000000000000000000000000000000000000000000000000600052603260045260246000fd5b610e9081610b97565b82525050565b600082825260208201905092915050565b6000610eb282610af8565b610ebc8185610e96565b9350610ecc818560208601610b14565b610ed581610841565b840191505092915050565b6000604082019050610ef56000830185610e87565b8181036020830152610f078184610ea7565b90509392505050565b610f1981610ab1565b8114610f2457600080fd5b50565b600081519050610f3681610f10565b92915050565b600060208284031215610f5257610f51610832565b5b6000610f6084828501610f27565b91505092915050565b600081905092915050565b6000610f7f82610af8565b610f898185610f69565b9350610f99818560208601610b14565b80840191505092915050565b6000610fb18284610f74565b915081905092915050565b7f4e487b7100000000000000000000000000000000000000000000000000000000600052602260045260246000fd5b6000600282049050600182168061100357607f821691505b60208210810361101657611015610fbc565b5b50919050565b60008190508160005260206000209050919050565b6000815461103e81610feb565b6110488186610f69565b945060018216600081146110635760018114611078576110ab565b60ff19831686528115158202860193506110ab565b6110818561101c565b60005b838110156110a357815481890152600182019150602081019050611084565b838801955050505b50505092915050565b60006110c08284611031565b915081905092915050565b7f4e487b7100000000000000000000000000000000000000000000000000000000600052601160045260246000fd5b600061110582610bb8565b91507fffffffffffffffffffffffffffffffffffffffffffffffffffffffffffffffff8203611137576111366110cb565b5b600182019050919050565b60006020601f8301049050919050565b600082821b905092915050565b60006008830261118f7fffffffffffffffffffffffffffffffffffffffffffffffffffffffffffffffff82611152565b6111998683611152565b95508019841693508086168417925050509392505050565b6000819050919050565b60006111d66111d16111cc84610bb8565b6111b1565b610bb8565b9050919050565b6000819050919050565b6111f0836111bb565b6112046111fc826111dd565b84845461115f565b825550505050565b600090565b61121961120c565b6112248184846111e7565b505050565b5b818110156112485761123d600082611211565b60018101905061122a565b5050565b601f82111561128d5761125e8161101c565b61126784611142565b81016020851015611276578190505b61128a61128285611142565b830182611229565b50505b505050565b600082821c905092915050565b60006112b060001984600802611292565b1980831691505092915050565b60006112c9838361129f565b9150826002028217905092915050565b6112e282610af8565b67ffffffffffffffff8111156112fb576112fa610852565b5b6113058254610feb565b61131082828561124c565b600060209050601f8311600181146113435760008415611331578287015190505b61133b85826112bd565b8655506113a3565b601f1984166113518661101c565b60005b8281101561137957848901518255600182019150602085019450602081019050611354565b868310156113965784890151611392601f89168261129f565b8355505b6001600288020188555050505b50505050505056fea264697066735822122039f74302453827ebf7ddff73764600d8df3f6c657ab6b638d8b695d04d33f01f64736f6c63430008130033","opcodes":"PUSH1 0x80 PUSH1 0x40 MSTORE CALLVALUE DUP1 ISZERO PUSH2 0x10 JUMPI PUSH1 0x0 DUP1 REVERT JUMPDEST POP CALLER PUSH1 0x1 PUSH1 0x0 PUSH2 0x100 EXP DUP2 SLOAD DUP2 PUSH20 0xFFFFFFFFFFFFFFFFFFFFFFFFFFFFFFFFFFFFFFFF MUL NOT AND SWAP1 DUP4 PUSH20 0xFFFFFFFFFFFFFFFFFFFFFFFFFFFFFFFFFFFFFFFF AND MUL OR SWAP1 SSTORE POP CALLER PUSH1 0x2 PUSH1 0x0 PUSH2 0x100 EXP DUP2 SLOAD DUP2 PUSH20 0xFFFFFFFFFFFFFFFFFFFFFFFFFFFFFFFFFFFFFFFF MUL NOT AND SWAP1 DUP4 PUSH20 0xFFFFFFFFFFFFFFFFFFFFFFFFFFFFFFFFFFFFFFFF AND MUL OR SWAP1 SSTORE POP PUSH2 0x13E1 DUP1 PUSH2 0xA2 PUSH1 0x0 CODECOPY PUSH1 0x0 RETURN INVALID PUSH1 0x80 PUSH1 0x40 MSTORE CALLVALUE DUP1 ISZERO PUSH2 0x10 JUMPI PUSH1 0x0 DUP1 REVERT JUMPDEST POP PUSH1 0x4 CALLDATASIZE LT PUSH2 0x36 JUMPI PUSH1 0x0 CALLDATALOAD PUSH1 0xE0 SHR DUP1 PUSH4 0x759AB185 EQ PUSH2 0x3B JUMPI DUP1 PUSH4 0xC47EBDDC EQ PUSH2 0x6B JUMPI JUMPDEST PUSH1 0x0 DUP1 REVERT JUMPDEST PUSH2 0x55 PUSH1 0x4 DUP1 CALLDATASIZE SUB DUP2 ADD SWAP1 PUSH2 0x50 SWAP2 SWAP1 PUSH2 0xA68 JUMP JUMPDEST PUSH2 0x87 JUMP JUMPDEST PUSH1 0x40 MLOAD PUSH2 0x62 SWAP2 SWAP1 PUSH2 0xD3B JUMP JUMPDEST PUSH1 0x40 MLOAD DUP1 SWAP2 SUB SWAP1 RETURN JUMPDEST PUSH2 0x85 PUSH1 0x4 DUP1 CALLDATASIZE SUB DUP2 ADD SWAP1 PUSH2 0x80 SWAP2 SWAP1 PUSH2 0xD89 JUMP JUMPDEST PUSH2 0x5E7 JUMP JUMPDEST STOP JUMPDEST PUSH2 0x8F PUSH2 0x7AA JUMP JUMPDEST PUSH1 0x0 DUP1 DUP1 SLOAD SWAP1 POP PUSH8 0xFFFFFFFFFFFFFFFF DUP2 GT ISZERO PUSH2 0xAF JUMPI PUSH2 0xAE PUSH2 0x852 JUMP JUMPDEST JUMPDEST PUSH1 0x40 MLOAD SWAP1 DUP1 DUP3 MSTORE DUP1 PUSH1 0x20 MUL PUSH1 0x20 ADD DUP3 ADD PUSH1 0x40 MSTORE DUP1 ISZERO PUSH2 0xE8 JUMPI DUP2 PUSH1 0x20 ADD JUMPDEST PUSH2 0xD5 PUSH2 0x7C6 JUMP JUMPDEST DUP2 MSTORE PUSH1 0x20 ADD SWAP1 PUSH1 0x1 SWAP1 SUB SWAP1 DUP2 PUSH2 0xCD JUMPI SWAP1 POP JUMPDEST POP SWAP1 POP PUSH1 0x0 DUP1 JUMPDEST DUP5 MLOAD DUP2 LT ISZERO PUSH2 0x544 JUMPI PUSH1 0x1 PUSH1 0x0 SWAP1 SLOAD SWAP1 PUSH2 0x100 EXP SWAP1 DIV PUSH20 0xFFFFFFFFFFFFFFFFFFFFFFFFFFFFFFFFFFFFFFFF AND PUSH20 0xFFFFFFFFFFFFFFFFFFFFFFFFFFFFFFFFFFFFFFFF AND PUSH4 0x1AC47DD0 CALLER DUP8 DUP5 DUP2 MLOAD DUP2 LT PUSH2 0x14A JUMPI PUSH2 0x149 PUSH2 0xE58 JUMP JUMPDEST JUMPDEST PUSH1 0x20 MUL PUSH1 0x20 ADD ADD MLOAD PUSH1 0x40 MLOAD DUP4 PUSH4 0xFFFFFFFF AND PUSH1 0xE0 SHL DUP2 MSTORE PUSH1 0x4 ADD PUSH2 0x16F SWAP3 SWAP2 SWAP1 PUSH2 0xEE0 JUMP JUMPDEST PUSH1 0x20 PUSH1 0x40 MLOAD DUP1 DUP4 SUB DUP2 DUP7 GAS STATICCALL ISZERO DUP1 ISZERO PUSH2 0x18C JUMPI RETURNDATASIZE PUSH1 0x0 DUP1 RETURNDATACOPY RETURNDATASIZE PUSH1 0x0 REVERT JUMPDEST POP POP POP POP PUSH1 0x40 MLOAD RETURNDATASIZE PUSH1 0x1F NOT PUSH1 0x1F DUP3 ADD AND DUP3 ADD DUP1 PUSH1 0x40 MSTORE POP DUP2 ADD SWAP1 PUSH2 0x1B0 SWAP2 SWAP1 PUSH2 0xF3C JUMP JUMPDEST ISZERO PUSH2 0x531 JUMPI PUSH1 0x0 JUMPDEST PUSH1 0x0 DUP1 SLOAD SWAP1 POP DUP2 LT ISZERO PUSH2 0x52F JUMPI DUP6 DUP3 DUP2 MLOAD DUP2 LT PUSH2 0x1D8 JUMPI PUSH2 0x1D7 PUSH2 0xE58 JUMP JUMPDEST JUMPDEST PUSH1 0x20 MUL PUSH1 0x20 ADD ADD MLOAD PUSH1 0x40 MLOAD PUSH1 0x20 ADD PUSH2 0x1F0 SWAP2 SWAP1 PUSH2 0xFA5 JUMP JUMPDEST PUSH1 0x40 MLOAD PUSH1 0x20 DUP2 DUP4 SUB SUB DUP2 MSTORE SWAP1 PUSH1 0x40 MSTORE DUP1 MLOAD SWAP1 PUSH1 0x20 ADD KECCAK256 PUSH1 0x0 DUP3 DUP2 SLOAD DUP2 LT PUSH2 0x21A JUMPI PUSH2 0x219 PUSH2 0xE58 JUMP JUMPDEST JUMPDEST SWAP1 PUSH1 0x0 MSTORE PUSH1 0x20 PUSH1 0x0 KECCAK256 SWAP1 PUSH1 0x6 MUL ADD PUSH1 0x0 ADD PUSH1 0x40 MLOAD PUSH1 0x20 ADD PUSH2 0x23B SWAP2 SWAP1 PUSH2 0x10B4 JUMP JUMPDEST PUSH1 0x40 MLOAD PUSH1 0x20 DUP2 DUP4 SUB SUB DUP2 MSTORE SWAP1 PUSH1 0x40 MSTORE DUP1 MLOAD SWAP1 PUSH1 0x20 ADD KECCAK256 SUB PUSH2 0x51C JUMPI PUSH1 0x0 DUP2 DUP2 SLOAD DUP2 LT PUSH2 0x26A JUMPI PUSH2 0x269 PUSH2 0xE58 JUMP JUMPDEST JUMPDEST SWAP1 PUSH1 0x0 MSTORE PUSH1 0x20 PUSH1 0x0 KECCAK256 SWAP1 PUSH1 0x6 MUL ADD PUSH1 0x40 MLOAD DUP1 PUSH1 0xC0 ADD PUSH1 0x40 MSTORE SWAP1 DUP2 PUSH1 0x0 DUP3 ADD DUP1 SLOAD PUSH2 0x293 SWAP1 PUSH2 0xFEB JUMP JUMPDEST DUP1 PUSH1 0x1F ADD PUSH1 0x20 DUP1 SWAP2 DIV MUL PUSH1 0x20 ADD PUSH1 0x40 MLOAD SWAP1 DUP2 ADD PUSH1 0x40 MSTORE DUP1 SWAP3 SWAP2 SWAP1 DUP2 DUP2 MSTORE PUSH1 0x20 ADD DUP3 DUP1 SLOAD PUSH2 0x2BF SWAP1 PUSH2 0xFEB JUMP JUMPDEST DUP1 ISZERO PUSH2 0x30C JUMPI DUP1 PUSH1 0x1F LT PUSH2 0x2E1 JUMPI PUSH2 0x100 DUP1 DUP4 SLOAD DIV MUL DUP4 MSTORE SWAP2 PUSH1 0x20 ADD SWAP2 PUSH2 0x30C JUMP JUMPDEST DUP3 ADD SWAP2 SWAP1 PUSH1 0x0 MSTORE PUSH1 0x20 PUSH1 0x0 KECCAK256 SWAP1 JUMPDEST DUP2 SLOAD DUP2 MSTORE SWAP1 PUSH1 0x1 ADD SWAP1 PUSH1 0x20 ADD DUP1 DUP4 GT PUSH2 0x2EF JUMPI DUP3 SWAP1 SUB PUSH1 0x1F AND DUP3 ADD SWAP2 JUMPDEST POP POP POP POP POP DUP2 MSTORE PUSH1 0x20 ADD PUSH1 0x1 DUP3 ADD PUSH1 0x0 SWAP1 SLOAD SWAP1 PUSH2 0x100 EXP SWAP1 DIV PUSH20 0xFFFFFFFFFFFFFFFFFFFFFFFFFFFFFFFFFFFFFFFF AND PUSH20 0xFFFFFFFFFFFFFFFFFFFFFFFFFFFFFFFFFFFFFFFF AND PUSH20 0xFFFFFFFFFFFFFFFFFFFFFFFFFFFFFFFFFFFFFFFF AND DUP2 MSTORE PUSH1 0x20 ADD PUSH1 0x2 DUP3 ADD SLOAD DUP2 MSTORE PUSH1 0x20 ADD PUSH1 0x3 DUP3 ADD DUP1 SLOAD PUSH2 0x385 SWAP1 PUSH2 0xFEB JUMP JUMPDEST DUP1 PUSH1 0x1F ADD PUSH1 0x20 DUP1 SWAP2 DIV MUL PUSH1 0x20 ADD PUSH1 0x40 MLOAD SWAP1 DUP2 ADD PUSH1 0x40 MSTORE DUP1 SWAP3 SWAP2 SWAP1 DUP2 DUP2 MSTORE PUSH1 0x20 ADD DUP3 DUP1 SLOAD PUSH2 0x3B1 SWAP1 PUSH2 0xFEB JUMP JUMPDEST DUP1 ISZERO PUSH2 0x3FE JUMPI DUP1 PUSH1 0x1F LT PUSH2 0x3D3 JUMPI PUSH2 0x100 DUP1 DUP4 SLOAD DIV MUL DUP4 MSTORE SWAP2 PUSH1 0x20 ADD SWAP2 PUSH2 0x3FE JUMP JUMPDEST DUP3 ADD SWAP2 SWAP1 PUSH1 0x0 MSTORE PUSH1 0x20 PUSH1 0x0 KECCAK256 SWAP1 JUMPDEST DUP2 SLOAD DUP2 MSTORE SWAP1 PUSH1 0x1 ADD SWAP1 PUSH1 0x20 ADD DUP1 DUP4 GT PUSH2 0x3E1 JUMPI DUP3 SWAP1 SUB PUSH1 0x1F AND DUP3 ADD SWAP2 JUMPDEST POP POP POP POP POP DUP2 MSTORE PUSH1 0x20 ADD PUSH1 0x4 DUP3 ADD DUP1 SLOAD PUSH2 0x417 SWAP1 PUSH2 0xFEB JUMP JUMPDEST DUP1 PUSH1 0x1F ADD PUSH1 0x20 DUP1 SWAP2 DIV MUL PUSH1 0x20 ADD PUSH1 0x40 MLOAD SWAP1 DUP2 ADD PUSH1 0x40 MSTORE DUP1 SWAP3 SWAP2 SWAP1 DUP2 DUP2 MSTORE PUSH1 0x20 ADD DUP3 DUP1 SLOAD PUSH2 0x443 SWAP1 PUSH2 0xFEB JUMP JUMPDEST DUP1 ISZERO PUSH2 0x490 JUMPI DUP1 PUSH1 0x1F LT PUSH2 0x465 JUMPI PUSH2 0x100 DUP1 DUP4 SLOAD DIV MUL DUP4 MSTORE SWAP2 PUSH1 0x20 ADD SWAP2 PUSH2 0x490 JUMP JUMPDEST DUP3 ADD SWAP2 SWAP1 PUSH1 0x0 MSTORE PUSH1 0x20 PUSH1 0x0 KECCAK256 SWAP1 JUMPDEST DUP2 SLOAD DUP2 MSTORE SWAP1 PUSH1 0x1 ADD SWAP1 PUSH1 0x20 ADD DUP1 DUP4 GT PUSH2 0x473 JUMPI DUP3 SWAP1 SUB PUSH1 0x1F AND DUP3 ADD SWAP2 JUMPDEST POP POP POP POP POP DUP2 MSTORE PUSH1 0x20 ADD PUSH1 0x5 DUP3 ADD PUSH1 0x0 SWAP1 SLOAD SWAP1 PUSH2 0x100 EXP SWAP1 DIV PUSH20 0xFFFFFFFFFFFFFFFFFFFFFFFFFFFFFFFFFFFFFFFF AND PUSH20 0xFFFFFFFFFFFFFFFFFFFFFFFFFFFFFFFFFFFFFFFF AND PUSH20 0xFFFFFFFFFFFFFFFFFFFFFFFFFFFFFFFFFFFFFFFF AND DUP2 MSTORE POP POP DUP5 DUP5 DUP2 MLOAD DUP2 LT PUSH2 0x502 JUMPI PUSH2 0x501 PUSH2 0xE58 JUMP JUMPDEST JUMPDEST PUSH1 0x20 MUL PUSH1 0x20 ADD ADD DUP2 SWAP1 MSTORE POP DUP3 DUP1 PUSH2 0x518 SWAP1 PUSH2 0x10FA JUMP JUMPDEST SWAP4 POP POP JUMPDEST DUP1 DUP1 PUSH2 0x527 SWAP1 PUSH2 0x10FA JUMP JUMPDEST SWAP2 POP POP PUSH2 0x1B8 JUMP JUMPDEST POP JUMPDEST DUP1 DUP1 PUSH2 0x53C SWAP1 PUSH2 0x10FA JUMP JUMPDEST SWAP2 POP POP PUSH2 0xEF JUMP JUMPDEST POP DUP1 DUP3 MSTORE PUSH1 0x0 DUP2 EQ PUSH2 0x571 JUMPI PUSH1 0x40 MLOAD DUP1 PUSH1 0x40 ADD PUSH1 0x40 MSTORE DUP1 PUSH1 0x1 ISZERO ISZERO DUP2 MSTORE PUSH1 0x20 ADD DUP4 DUP2 MSTORE POP SWAP3 POP POP POP PUSH2 0x5E2 JUMP JUMPDEST PUSH1 0x40 MLOAD DUP1 PUSH1 0x40 ADD PUSH1 0x40 MSTORE DUP1 PUSH1 0x0 ISZERO ISZERO DUP2 MSTORE PUSH1 0x20 ADD PUSH1 0x0 PUSH8 0xFFFFFFFFFFFFFFFF DUP2 GT ISZERO PUSH2 0x5A0 JUMPI PUSH2 0x59F PUSH2 0x852 JUMP JUMPDEST JUMPDEST PUSH1 0x40 MLOAD SWAP1 DUP1 DUP3 MSTORE DUP1 PUSH1 0x20 MUL PUSH1 0x20 ADD DUP3 ADD PUSH1 0x40 MSTORE DUP1 ISZERO PUSH2 0x5D9 JUMPI DUP2 PUSH1 0x20 ADD JUMPDEST PUSH2 0x5C6 PUSH2 0x7C6 JUMP JUMPDEST DUP2 MSTORE PUSH1 0x20 ADD SWAP1 PUSH1 0x1 SWAP1 SUB SWAP1 DUP2 PUSH2 0x5BE JUMPI SWAP1 POP JUMPDEST POP DUP2 MSTORE POP SWAP3 POP POP POP JUMPDEST SWAP2 SWAP1 POP JUMP JUMPDEST PUSH1 0x2 PUSH1 0x0 SWAP1 SLOAD SWAP1 PUSH2 0x100 EXP SWAP1 DIV PUSH20 0xFFFFFFFFFFFFFFFFFFFFFFFFFFFFFFFFFFFFFFFF AND PUSH20 0xFFFFFFFFFFFFFFFFFFFFFFFFFFFFFFFFFFFFFFFF AND CALLER PUSH20 0xFFFFFFFFFFFFFFFFFFFFFFFFFFFFFFFFFFFFFFFF AND SUB PUSH2 0x7A3 JUMPI PUSH1 0x0 PUSH1 0x40 MLOAD DUP1 PUSH1 0xC0 ADD PUSH1 0x40 MSTORE DUP1 DUP7 DUP2 MSTORE PUSH1 0x20 ADD DUP6 PUSH20 0xFFFFFFFFFFFFFFFFFFFFFFFFFFFFFFFFFFFFFFFF AND DUP2 MSTORE PUSH1 0x20 ADD TIMESTAMP DUP2 MSTORE PUSH1 0x20 ADD DUP4 DUP2 MSTORE PUSH1 0x20 ADD DUP5 DUP2 MSTORE PUSH1 0x20 ADD DUP8 PUSH20 0xFFFFFFFFFFFFFFFFFFFFFFFFFFFFFFFFFFFFFFFF AND DUP2 MSTORE POP SWAP1 POP PUSH1 0x0 DUP2 SWAP1 DUP1 PUSH1 0x1 DUP2 SLOAD ADD DUP1 DUP3 SSTORE DUP1 SWAP2 POP POP PUSH1 0x1 SWAP1 SUB SWAP1 PUSH1 0x0 MSTORE PUSH1 0x20 PUSH1 0x0 KECCAK256 SWAP1 PUSH1 0x6 MUL ADD PUSH1 0x0 SWAP1 SWAP2 SWAP1 SWAP2 SWAP1 SWAP2 POP PUSH1 0x0 DUP3 ADD MLOAD DUP2 PUSH1 0x0 ADD SWAP1 DUP2 PUSH2 0x6DA SWAP2 SWAP1 PUSH2 0x12D9 JUMP JUMPDEST POP PUSH1 0x20 DUP3 ADD MLOAD DUP2 PUSH1 0x1 ADD PUSH1 0x0 PUSH2 0x100 EXP DUP2 SLOAD DUP2 PUSH20 0xFFFFFFFFFFFFFFFFFFFFFFFFFFFFFFFFFFFFFFFF MUL NOT AND SWAP1 DUP4 PUSH20 0xFFFFFFFFFFFFFFFFFFFFFFFFFFFFFFFFFFFFFFFF AND MUL OR SWAP1 SSTORE POP PUSH1 0x40 DUP3 ADD MLOAD DUP2 PUSH1 0x2 ADD SSTORE PUSH1 0x60 DUP3 ADD MLOAD DUP2 PUSH1 0x3 ADD SWAP1 DUP2 PUSH2 0x741 SWAP2 SWAP1 PUSH2 0x12D9 JUMP JUMPDEST POP PUSH1 0x80 DUP3 ADD MLOAD DUP2 PUSH1 0x4 ADD SWAP1 DUP2 PUSH2 0x757 SWAP2 SWAP1 PUSH2 0x12D9 JUMP JUMPDEST POP PUSH1 0xA0 DUP3 ADD MLOAD DUP2 PUSH1 0x5 ADD PUSH1 0x0 PUSH2 0x100 EXP DUP2 SLOAD DUP2 PUSH20 0xFFFFFFFFFFFFFFFFFFFFFFFFFFFFFFFFFFFFFFFF MUL NOT AND SWAP1 DUP4 PUSH20 0xFFFFFFFFFFFFFFFFFFFFFFFFFFFFFFFFFFFFFFFF AND MUL OR SWAP1 SSTORE POP POP POP POP JUMPDEST POP POP POP POP POP JUMP JUMPDEST PUSH1 0x40 MLOAD DUP1 PUSH1 0x40 ADD PUSH1 0x40 MSTORE DUP1 PUSH1 0x0 ISZERO ISZERO DUP2 MSTORE PUSH1 0x20 ADD PUSH1 0x60 DUP2 MSTORE POP SWAP1 JUMP JUMPDEST PUSH1 0x40 MLOAD DUP1 PUSH1 0xC0 ADD PUSH1 0x40 MSTORE DUP1 PUSH1 0x60 DUP2 MSTORE PUSH1 0x20 ADD PUSH1 0x0 PUSH20 0xFFFFFFFFFFFFFFFFFFFFFFFFFFFFFFFFFFFFFFFF AND DUP2 MSTORE PUSH1 0x20 ADD PUSH1 0x0 DUP2 MSTORE PUSH1 0x20 ADD PUSH1 0x60 DUP2 MSTORE PUSH1 0x20 ADD PUSH1 0x60 DUP2 MSTORE PUSH1 0x20 ADD PUSH1 0x0 PUSH20 0xFFFFFFFFFFFFFFFFFFFFFFFFFFFFFFFFFFFFFFFF AND DUP2 MSTORE POP SWAP1 JUMP JUMPDEST PUSH1 0x0 PUSH1 0x40 MLOAD SWAP1 POP SWAP1 JUMP JUMPDEST PUSH1 0x0 DUP1 REVERT JUMPDEST PUSH1 0x0 DUP1 REVERT JUMPDEST PUSH1 0x0 DUP1 REVERT JUMPDEST PUSH1 0x0 PUSH1 0x1F NOT PUSH1 0x1F DUP4 ADD AND SWAP1 POP SWAP2 SWAP1 POP JUMP JUMPDEST PUSH32 0x4E487B7100000000000000000000000000000000000000000000000000000000 PUSH1 0x0 MSTORE PUSH1 0x41 PUSH1 0x4 MSTORE PUSH1 0x24 PUSH1 0x0 REVERT JUMPDEST PUSH2 0x88A DUP3 PUSH2 0x841 JUMP JUMPDEST DUP2 ADD DUP2 DUP2 LT PUSH8 0xFFFFFFFFFFFFFFFF DUP3 GT OR ISZERO PUSH2 0x8A9 JUMPI PUSH2 0x8A8 PUSH2 0x852 JUMP JUMPDEST JUMPDEST DUP1 PUSH1 0x40 MSTORE POP POP POP JUMP JUMPDEST PUSH1 0x0 PUSH2 0x8BC PUSH2 0x828 JUMP JUMPDEST SWAP1 POP PUSH2 0x8C8 DUP3 DUP3 PUSH2 0x881 JUMP JUMPDEST SWAP2 SWAP1 POP JUMP JUMPDEST PUSH1 0x0 PUSH8 0xFFFFFFFFFFFFFFFF DUP3 GT ISZERO PUSH2 0x8E8 JUMPI PUSH2 0x8E7 PUSH2 0x852 JUMP JUMPDEST JUMPDEST PUSH1 0x20 DUP3 MUL SWAP1 POP PUSH1 0x20 DUP2 ADD SWAP1 POP SWAP2 SWAP1 POP JUMP JUMPDEST PUSH1 0x0 DUP1 REVERT JUMPDEST PUSH1 0x0 DUP1 REVERT JUMPDEST PUSH1 0x0 PUSH8 0xFFFFFFFFFFFFFFFF DUP3 GT ISZERO PUSH2 0x91E JUMPI PUSH2 0x91D PUSH2 0x852 JUMP JUMPDEST JUMPDEST PUSH2 0x927 DUP3 PUSH2 0x841 JUMP JUMPDEST SWAP1 POP PUSH1 0x20 DUP2 ADD SWAP1 POP SWAP2 SWAP1 POP JUMP JUMPDEST DUP3 DUP2 DUP4 CALLDATACOPY PUSH1 0x0 DUP4 DUP4 ADD MSTORE POP POP POP JUMP JUMPDEST PUSH1 0x0 PUSH2 0x956 PUSH2 0x951 DUP5 PUSH2 0x903 JUMP JUMPDEST PUSH2 0x8B2 JUMP JUMPDEST SWAP1 POP DUP3 DUP2 MSTORE PUSH1 0x20 DUP2 ADD DUP5 DUP5 DUP5 ADD GT ISZERO PUSH2 0x972 JUMPI PUSH2 0x971 PUSH2 0x8FE JUMP JUMPDEST JUMPDEST PUSH2 0x97D DUP5 DUP3 DUP6 PUSH2 0x934 JUMP JUMPDEST POP SWAP4 SWAP3 POP POP POP JUMP JUMPDEST PUSH1 0x0 DUP3 PUSH1 0x1F DUP4 ADD SLT PUSH2 0x99A JUMPI PUSH2 0x999 PUSH2 0x83C JUMP JUMPDEST JUMPDEST DUP2 CALLDATALOAD PUSH2 0x9AA DUP5 DUP3 PUSH1 0x20 DUP7 ADD PUSH2 0x943 JUMP JUMPDEST SWAP2 POP POP SWAP3 SWAP2 POP POP JUMP JUMPDEST PUSH1 0x0 PUSH2 0x9C6 PUSH2 0x9C1 DUP5 PUSH2 0x8CD JUMP JUMPDEST PUSH2 0x8B2 JUMP JUMPDEST SWAP1 POP DUP1 DUP4 DUP3 MSTORE PUSH1 0x20 DUP3 ADD SWAP1 POP PUSH1 0x20 DUP5 MUL DUP4 ADD DUP6 DUP2 GT ISZERO PUSH2 0x9E9 JUMPI PUSH2 0x9E8 PUSH2 0x8F9 JUMP JUMPDEST JUMPDEST DUP4 JUMPDEST DUP2 DUP2 LT ISZERO PUSH2 0xA30 JUMPI DUP1 CALLDATALOAD PUSH8 0xFFFFFFFFFFFFFFFF DUP2 GT ISZERO PUSH2 0xA0E JUMPI PUSH2 0xA0D PUSH2 0x83C JUMP JUMPDEST JUMPDEST DUP1 DUP7 ADD PUSH2 0xA1B DUP10 DUP3 PUSH2 0x985 JUMP JUMPDEST DUP6 MSTORE PUSH1 0x20 DUP6 ADD SWAP5 POP POP POP PUSH1 0x20 DUP2 ADD SWAP1 POP PUSH2 0x9EB JUMP JUMPDEST POP POP POP SWAP4 SWAP3 POP POP POP JUMP JUMPDEST PUSH1 0x0 DUP3 PUSH1 0x1F DUP4 ADD SLT PUSH2 0xA4F JUMPI PUSH2 0xA4E PUSH2 0x83C JUMP JUMPDEST JUMPDEST DUP2 CALLDATALOAD PUSH2 0xA5F DUP5 DUP3 PUSH1 0x20 DUP7 ADD PUSH2 0x9B3 JUMP JUMPDEST SWAP2 POP POP SWAP3 SWAP2 POP POP JUMP JUMPDEST PUSH1 0x0 PUSH1 0x20 DUP3 DUP5 SUB SLT ISZERO PUSH2 0xA7E JUMPI PUSH2 0xA7D PUSH2 0x832 JUMP JUMPDEST JUMPDEST PUSH1 0x0 DUP3 ADD CALLDATALOAD PUSH8 0xFFFFFFFFFFFFFFFF DUP2 GT ISZERO PUSH2 0xA9C JUMPI PUSH2 0xA9B PUSH2 0x837 JUMP JUMPDEST JUMPDEST PUSH2 0xAA8 DUP5 DUP3 DUP6 ADD PUSH2 0xA3A JUMP JUMPDEST SWAP2 POP POP SWAP3 SWAP2 POP POP JUMP JUMPDEST PUSH1 0x0 DUP2 ISZERO ISZERO SWAP1 POP SWAP2 SWAP1 POP JUMP JUMPDEST PUSH2 0xAC6 DUP2 PUSH2 0xAB1 JUMP JUMPDEST DUP3 MSTORE POP POP JUMP JUMPDEST PUSH1 0x0 DUP2 MLOAD SWAP1 POP SWAP2 SWAP1 POP JUMP JUMPDEST PUSH1 0x0 DUP3 DUP3 MSTORE PUSH1 0x20 DUP3 ADD SWAP1 POP SWAP3 SWAP2 POP POP JUMP JUMPDEST PUSH1 0x0 DUP2 SWAP1 POP PUSH1 0x20 DUP3 ADD SWAP1 POP SWAP2 SWAP1 POP JUMP JUMPDEST PUSH1 0x0 DUP2 MLOAD SWAP1 POP SWAP2 SWAP1 POP JUMP JUMPDEST PUSH1 0x0 DUP3 DUP3 MSTORE PUSH1 0x20 DUP3 ADD SWAP1 POP SWAP3 SWAP2 POP POP JUMP JUMPDEST PUSH1 0x0 JUMPDEST DUP4 DUP2 LT ISZERO PUSH2 0xB32 JUMPI DUP1 DUP3 ADD MLOAD DUP2 DUP5 ADD MSTORE PUSH1 0x20 DUP2 ADD SWAP1 POP PUSH2 0xB17 JUMP JUMPDEST PUSH1 0x0 DUP5 DUP5 ADD MSTORE POP POP POP POP JUMP JUMPDEST PUSH1 0x0 PUSH2 0xB49 DUP3 PUSH2 0xAF8 JUMP JUMPDEST PUSH2 0xB53 DUP2 DUP6 PUSH2 0xB03 JUMP JUMPDEST SWAP4 POP PUSH2 0xB63 DUP2 DUP6 PUSH1 0x20 DUP7 ADD PUSH2 0xB14 JUMP JUMPDEST PUSH2 0xB6C DUP2 PUSH2 0x841 JUMP JUMPDEST DUP5 ADD SWAP2 POP POP SWAP3 SWAP2 POP POP JUMP JUMPDEST PUSH1 0x0 PUSH20 0xFFFFFFFFFFFFFFFFFFFFFFFFFFFFFFFFFFFFFFFF DUP3 AND SWAP1 POP SWAP2 SWAP1 POP JUMP JUMPDEST PUSH1 0x0 PUSH2 0xBA2 DUP3 PUSH2 0xB77 JUMP JUMPDEST SWAP1 POP SWAP2 SWAP1 POP JUMP JUMPDEST PUSH2 0xBB2 DUP2 PUSH2 0xB97 JUMP JUMPDEST DUP3 MSTORE POP POP JUMP JUMPDEST PUSH1 0x0 DUP2 SWAP1 POP SWAP2 SWAP1 POP JUMP JUMPDEST PUSH2 0xBCB DUP2 PUSH2 0xBB8 JUMP JUMPDEST DUP3 MSTORE POP POP JUMP JUMPDEST PUSH1 0x0 PUSH1 0xC0 DUP4 ADD PUSH1 0x0 DUP4 ADD MLOAD DUP5 DUP3 SUB PUSH1 0x0 DUP7 ADD MSTORE PUSH2 0xBEE DUP3 DUP3 PUSH2 0xB3E JUMP JUMPDEST SWAP2 POP POP PUSH1 0x20 DUP4 ADD MLOAD PUSH2 0xC03 PUSH1 0x20 DUP7 ADD DUP3 PUSH2 0xBA9 JUMP JUMPDEST POP PUSH1 0x40 DUP4 ADD MLOAD PUSH2 0xC16 PUSH1 0x40 DUP7 ADD DUP3 PUSH2 0xBC2 JUMP JUMPDEST POP PUSH1 0x60 DUP4 ADD MLOAD DUP5 DUP3 SUB PUSH1 0x60 DUP7 ADD MSTORE PUSH2 0xC2E DUP3 DUP3 PUSH2 0xB3E JUMP JUMPDEST SWAP2 POP POP PUSH1 0x80 DUP4 ADD MLOAD DUP5 DUP3 SUB PUSH1 0x80 DUP7 ADD MSTORE PUSH2 0xC48 DUP3 DUP3 PUSH2 0xB3E JUMP JUMPDEST SWAP2 POP POP PUSH1 0xA0 DUP4 ADD MLOAD PUSH2 0xC5D PUSH1 0xA0 DUP7 ADD DUP3 PUSH2 0xBA9 JUMP JUMPDEST POP DUP1 SWAP2 POP POP SWAP3 SWAP2 POP POP JUMP JUMPDEST PUSH1 0x0 PUSH2 0xC74 DUP4 DUP4 PUSH2 0xBD1 JUMP JUMPDEST SWAP1 POP SWAP3 SWAP2 POP POP JUMP JUMPDEST PUSH1 0x0 PUSH1 0x20 DUP3 ADD SWAP1 POP SWAP2 SWAP1 POP JUMP JUMPDEST PUSH1 0x0 PUSH2 0xC94 DUP3 PUSH2 0xACC JUMP JUMPDEST PUSH2 0xC9E DUP2 DUP6 PUSH2 0xAD7 JUMP JUMPDEST SWAP4 POP DUP4 PUSH1 0x20 DUP3 MUL DUP6 ADD PUSH2 0xCB0 DUP6 PUSH2 0xAE8 JUMP JUMPDEST DUP1 PUSH1 0x0 JUMPDEST DUP6 DUP2 LT ISZERO PUSH2 0xCEC JUMPI DUP5 DUP5 SUB DUP10 MSTORE DUP2 MLOAD PUSH2 0xCCD DUP6 DUP3 PUSH2 0xC68 JUMP JUMPDEST SWAP5 POP PUSH2 0xCD8 DUP4 PUSH2 0xC7C JUMP JUMPDEST SWAP3 POP PUSH1 0x20 DUP11 ADD SWAP10 POP POP PUSH1 0x1 DUP2 ADD SWAP1 POP PUSH2 0xCB4 JUMP JUMPDEST POP DUP3 SWAP8 POP DUP8 SWAP6 POP POP POP POP POP POP SWAP3 SWAP2 POP POP JUMP JUMPDEST PUSH1 0x0 PUSH1 0x40 DUP4 ADD PUSH1 0x0 DUP4 ADD MLOAD PUSH2 0xD16 PUSH1 0x0 DUP7 ADD DUP3 PUSH2 0xABD JUMP JUMPDEST POP PUSH1 0x20 DUP4 ADD MLOAD DUP5 DUP3 SUB PUSH1 0x20 DUP7 ADD MSTORE PUSH2 0xD2E DUP3 DUP3 PUSH2 0xC89 JUMP JUMPDEST SWAP2 POP POP DUP1 SWAP2 POP POP SWAP3 SWAP2 POP POP JUMP JUMPDEST PUSH1 0x0 PUSH1 0x20 DUP3 ADD SWAP1 POP DUP2 DUP2 SUB PUSH1 0x0 DUP4 ADD MSTORE PUSH2 0xD55 DUP2 DUP5 PUSH2 0xCFE JUMP JUMPDEST SWAP1 POP SWAP3 SWAP2 POP POP JUMP JUMPDEST PUSH2 0xD66 DUP2 PUSH2 0xB97 JUMP JUMPDEST DUP2 EQ PUSH2 0xD71 JUMPI PUSH1 0x0 DUP1 REVERT JUMPDEST POP JUMP JUMPDEST PUSH1 0x0 DUP2 CALLDATALOAD SWAP1 POP PUSH2 0xD83 DUP2 PUSH2 0xD5D JUMP JUMPDEST SWAP3 SWAP2 POP POP JUMP JUMPDEST PUSH1 0x0 DUP1 PUSH1 0x0 DUP1 PUSH1 0x0 PUSH1 0xA0 DUP7 DUP9 SUB SLT ISZERO PUSH2 0xDA5 JUMPI PUSH2 0xDA4 PUSH2 0x832 JUMP JUMPDEST JUMPDEST PUSH1 0x0 PUSH2 0xDB3 DUP9 DUP3 DUP10 ADD PUSH2 0xD74 JUMP JUMPDEST SWAP6 POP POP PUSH1 0x20 DUP7 ADD CALLDATALOAD PUSH8 0xFFFFFFFFFFFFFFFF DUP2 GT ISZERO PUSH2 0xDD4 JUMPI PUSH2 0xDD3 PUSH2 0x837 JUMP JUMPDEST JUMPDEST PUSH2 0xDE0 DUP9 DUP3 DUP10 ADD PUSH2 0x985 JUMP JUMPDEST SWAP5 POP POP PUSH1 0x40 PUSH2 0xDF1 DUP9 DUP3 DUP10 ADD PUSH2 0xD74 JUMP JUMPDEST SWAP4 POP POP PUSH1 0x60 DUP7 ADD CALLDATALOAD PUSH8 0xFFFFFFFFFFFFFFFF DUP2 GT ISZERO PUSH2 0xE12 JUMPI PUSH2 0xE11 PUSH2 0x837 JUMP JUMPDEST JUMPDEST PUSH2 0xE1E DUP9 DUP3 DUP10 ADD PUSH2 0x985 JUMP JUMPDEST SWAP3 POP POP PUSH1 0x80 DUP7 ADD CALLDATALOAD PUSH8 0xFFFFFFFFFFFFFFFF DUP2 GT ISZERO PUSH2 0xE3F JUMPI PUSH2 0xE3E PUSH2 0x837 JUMP JUMPDEST JUMPDEST PUSH2 0xE4B DUP9 DUP3 DUP10 ADD PUSH2 0x985 JUMP JUMPDEST SWAP2 POP POP SWAP3 SWAP6 POP SWAP3 SWAP6 SWAP1 SWAP4 POP JUMP JUMPDEST PUSH32 0x4E487B7100000000000000000000000000000000000000000000000000000000 PUSH1 0x0 MSTORE PUSH1 0x32 PUSH1 0x4 MSTORE PUSH1 0x24 PUSH1 0x0 REVERT JUMPDEST PUSH2 0xE90 DUP2 PUSH2 0xB97 JUMP JUMPDEST DUP3 MSTORE POP POP JUMP JUMPDEST PUSH1 0x0 DUP3 DUP3 MSTORE PUSH1 0x20 DUP3 ADD SWAP1 POP SWAP3 SWAP2 POP POP JUMP JUMPDEST PUSH1 0x0 PUSH2 0xEB2 DUP3 PUSH2 0xAF8 JUMP JUMPDEST PUSH2 0xEBC DUP2 DUP6 PUSH2 0xE96 JUMP JUMPDEST SWAP4 POP PUSH2 0xECC DUP2 DUP6 PUSH1 0x20 DUP7 ADD PUSH2 0xB14 JUMP JUMPDEST PUSH2 0xED5 DUP2 PUSH2 0x841 JUMP JUMPDEST DUP5 ADD SWAP2 POP POP SWAP3 SWAP2 POP POP JUMP JUMPDEST PUSH1 0x0 PUSH1 0x40 DUP3 ADD SWAP1 POP PUSH2 0xEF5 PUSH1 0x0 DUP4 ADD DUP6 PUSH2 0xE87 JUMP JUMPDEST DUP2 DUP2 SUB PUSH1 0x20 DUP4 ADD MSTORE PUSH2 0xF07 DUP2 DUP5 PUSH2 0xEA7 JUMP JUMPDEST SWAP1 POP SWAP4 SWAP3 POP POP POP JUMP JUMPDEST PUSH2 0xF19 DUP2 PUSH2 0xAB1 JUMP JUMPDEST DUP2 EQ PUSH2 0xF24 JUMPI PUSH1 0x0 DUP1 REVERT JUMPDEST POP JUMP JUMPDEST PUSH1 0x0 DUP2 MLOAD SWAP1 POP PUSH2 0xF36 DUP2 PUSH2 0xF10 JUMP JUMPDEST SWAP3 SWAP2 POP POP JUMP JUMPDEST PUSH1 0x0 PUSH1 0x20 DUP3 DUP5 SUB SLT ISZERO PUSH2 0xF52 JUMPI PUSH2 0xF51 PUSH2 0x832 JUMP JUMPDEST JUMPDEST PUSH1 0x0 PUSH2 0xF60 DUP5 DUP3 DUP6 ADD PUSH2 0xF27 JUMP JUMPDEST SWAP2 POP POP SWAP3 SWAP2 POP POP JUMP JUMPDEST PUSH1 0x0 DUP2 SWAP1 POP SWAP3 SWAP2 POP POP JUMP JUMPDEST PUSH1 0x0 PUSH2 0xF7F DUP3 PUSH2 0xAF8 JUMP JUMPDEST PUSH2 0xF89 DUP2 DUP6 PUSH2 0xF69 JUMP JUMPDEST SWAP4 POP PUSH2 0xF99 DUP2 DUP6 PUSH1 0x20 DUP7 ADD PUSH2 0xB14 JUMP JUMPDEST DUP1 DUP5 ADD SWAP2 POP POP SWAP3 SWAP2 POP POP JUMP JUMPDEST PUSH1 0x0 PUSH2 0xFB1 DUP3 DUP5 PUSH2 0xF74 JUMP JUMPDEST SWAP2 POP DUP2 SWAP1 POP SWAP3 SWAP2 POP POP JUMP JUMPDEST PUSH32 0x4E487B7100000000000000000000000000000000000000000000000000000000 PUSH1 0x0 MSTORE PUSH1 0x22 PUSH1 0x4 MSTORE PUSH1 0x24 PUSH1 0x0 REVERT JUMPDEST PUSH1 0x0 PUSH1 0x2 DUP3 DIV SWAP1 POP PUSH1 0x1 DUP3 AND DUP1 PUSH2 0x1003 JUMPI PUSH1 0x7F DUP3 AND SWAP2 POP JUMPDEST PUSH1 0x20 DUP3 LT DUP2 SUB PUSH2 0x1016 JUMPI PUSH2 0x1015 PUSH2 0xFBC JUMP JUMPDEST JUMPDEST POP SWAP2 SWAP1 POP JUMP JUMPDEST PUSH1 0x0 DUP2 SWAP1 POP DUP2 PUSH1 0x0 MSTORE PUSH1 0x20 PUSH1 0x0 KECCAK256 SWAP1 POP SWAP2 SWAP1 POP JUMP JUMPDEST PUSH1 0x0 DUP2 SLOAD PUSH2 0x103E DUP2 PUSH2 0xFEB JUMP JUMPDEST PUSH2 0x1048 DUP2 DUP7 PUSH2 0xF69 JUMP JUMPDEST SWAP5 POP PUSH1 0x1 DUP3 AND PUSH1 0x0 DUP2 EQ PUSH2 0x1063 JUMPI PUSH1 0x1 DUP2 EQ PUSH2 0x1078 JUMPI PUSH2 0x10AB JUMP JUMPDEST PUSH1 0xFF NOT DUP4 AND DUP7 MSTORE DUP2 ISZERO ISZERO DUP3 MUL DUP7 ADD SWAP4 POP PUSH2 0x10AB JUMP JUMPDEST PUSH2 0x1081 DUP6 PUSH2 0x101C JUMP JUMPDEST PUSH1 0x0 JUMPDEST DUP4 DUP2 LT ISZERO PUSH2 0x10A3 JUMPI DUP2 SLOAD DUP2 DUP10 ADD MSTORE PUSH1 0x1 DUP3 ADD SWAP2 POP PUSH1 0x20 DUP2 ADD SWAP1 POP PUSH2 0x1084 JUMP JUMPDEST DUP4 DUP9 ADD SWAP6 POP POP POP JUMPDEST POP POP POP SWAP3 SWAP2 POP POP JUMP JUMPDEST PUSH1 0x0 PUSH2 0x10C0 DUP3 DUP5 PUSH2 0x1031 JUMP JUMPDEST SWAP2 POP DUP2 SWAP1 POP SWAP3 SWAP2 POP POP JUMP JUMPDEST PUSH32 0x4E487B7100000000000000000000000000000000000000000000000000000000 PUSH1 0x0 MSTORE PUSH1 0x11 PUSH1 0x4 MSTORE PUSH1 0x24 PUSH1 0x0 REVERT JUMPDEST PUSH1 0x0 PUSH2 0x1105 DUP3 PUSH2 0xBB8 JUMP JUMPDEST SWAP2 POP PUSH32 0xFFFFFFFFFFFFFFFFFFFFFFFFFFFFFFFFFFFFFFFFFFFFFFFFFFFFFFFFFFFFFFFF DUP3 SUB PUSH2 0x1137 JUMPI PUSH2 0x1136 PUSH2 0x10CB JUMP JUMPDEST JUMPDEST PUSH1 0x1 DUP3 ADD SWAP1 POP SWAP2 SWAP1 POP JUMP JUMPDEST PUSH1 0x0 PUSH1 0x20 PUSH1 0x1F DUP4 ADD DIV SWAP1 POP SWAP2 SWAP1 POP JUMP JUMPDEST PUSH1 0x0 DUP3 DUP3 SHL SWAP1 POP SWAP3 SWAP2 POP POP JUMP JUMPDEST PUSH1 0x0 PUSH1 0x8 DUP4 MUL PUSH2 0x118F PUSH32 0xFFFFFFFFFFFFFFFFFFFFFFFFFFFFFFFFFFFFFFFFFFFFFFFFFFFFFFFFFFFFFFFF DUP3 PUSH2 0x1152 JUMP JUMPDEST PUSH2 0x1199 DUP7 DUP4 PUSH2 0x1152 JUMP JUMPDEST SWAP6 POP DUP1 NOT DUP5 AND SWAP4 POP DUP1 DUP7 AND DUP5 OR SWAP3 POP POP POP SWAP4 SWAP3 POP POP POP JUMP JUMPDEST PUSH1 0x0 DUP2 SWAP1 POP SWAP2 SWAP1 POP JUMP JUMPDEST PUSH1 0x0 PUSH2 0x11D6 PUSH2 0x11D1 PUSH2 0x11CC DUP5 PUSH2 0xBB8 JUMP JUMPDEST PUSH2 0x11B1 JUMP JUMPDEST PUSH2 0xBB8 JUMP JUMPDEST SWAP1 POP SWAP2 SWAP1 POP JUMP JUMPDEST PUSH1 0x0 DUP2 SWAP1 POP SWAP2 SWAP1 POP JUMP JUMPDEST PUSH2 0x11F0 DUP4 PUSH2 0x11BB JUMP JUMPDEST PUSH2 0x1204 PUSH2 0x11FC DUP3 PUSH2 0x11DD JUMP JUMPDEST DUP5 DUP5 SLOAD PUSH2 0x115F JUMP JUMPDEST DUP3 SSTORE POP POP POP POP JUMP JUMPDEST PUSH1 0x0 SWAP1 JUMP JUMPDEST PUSH2 0x1219 PUSH2 0x120C JUMP JUMPDEST PUSH2 0x1224 DUP2 DUP5 DUP5 PUSH2 0x11E7 JUMP JUMPDEST POP POP POP JUMP JUMPDEST JUMPDEST DUP2 DUP2 LT ISZERO PUSH2 0x1248 JUMPI PUSH2 0x123D PUSH1 0x0 DUP3 PUSH2 0x1211 JUMP JUMPDEST PUSH1 0x1 DUP2 ADD SWAP1 POP PUSH2 0x122A JUMP JUMPDEST POP POP JUMP JUMPDEST PUSH1 0x1F DUP3 GT ISZERO PUSH2 0x128D JUMPI PUSH2 0x125E DUP2 PUSH2 0x101C JUMP JUMPDEST PUSH2 0x1267 DUP5 PUSH2 0x1142 JUMP JUMPDEST DUP2 ADD PUSH1 0x20 DUP6 LT ISZERO PUSH2 0x1276 JUMPI DUP2 SWAP1 POP JUMPDEST PUSH2 0x128A PUSH2 0x1282 DUP6 PUSH2 0x1142 JUMP JUMPDEST DUP4 ADD DUP3 PUSH2 0x1229 JUMP JUMPDEST POP POP JUMPDEST POP POP POP JUMP JUMPDEST PUSH1 0x0 DUP3 DUP3 SHR SWAP1 POP SWAP3 SWAP2 POP POP JUMP JUMPDEST PUSH1 0x0 PUSH2 0x12B0 PUSH1 0x0 NOT DUP5 PUSH1 0x8 MUL PUSH2 0x1292 JUMP JUMPDEST NOT DUP1 DUP4 AND SWAP2 POP POP SWAP3 SWAP2 POP POP JUMP JUMPDEST PUSH1 0x0 PUSH2 0x12C9 DUP4 DUP4 PUSH2 0x129F JUMP JUMPDEST SWAP2 POP DUP3 PUSH1 0x2 MUL DUP3 OR SWAP1 POP SWAP3 SWAP2 POP POP JUMP JUMPDEST PUSH2 0x12E2 DUP3 PUSH2 0xAF8 JUMP JUMPDEST PUSH8 0xFFFFFFFFFFFFFFFF DUP2 GT ISZERO PUSH2 0x12FB JUMPI PUSH2 0x12FA PUSH2 0x852 JUMP JUMPDEST JUMPDEST PUSH2 0x1305 DUP3 SLOAD PUSH2 0xFEB JUMP JUMPDEST PUSH2 0x1310 DUP3 DUP3 DUP6 PUSH2 0x124C JUMP JUMPDEST PUSH1 0x0 PUSH1 0x20 SWAP1 POP PUSH1 0x1F DUP4 GT PUSH1 0x1 DUP2 EQ PUSH2 0x1343 JUMPI PUSH1 0x0 DUP5 ISZERO PUSH2 0x1331 JUMPI DUP3 DUP8 ADD MLOAD SWAP1 POP JUMPDEST PUSH2 0x133B DUP6 DUP3 PUSH2 0x12BD JUMP JUMPDEST DUP7 SSTORE POP PUSH2 0x13A3 JUMP JUMPDEST PUSH1 0x1F NOT DUP5 AND PUSH2 0x1351 DUP7 PUSH2 0x101C JUMP JUMPDEST PUSH1 0x0 JUMPDEST DUP3 DUP2 LT ISZERO PUSH2 0x1379 JUMPI DUP5 DUP10 ADD MLOAD DUP3 SSTORE PUSH1 0x1 DUP3 ADD SWAP2 POP PUSH1 0x20 DUP6 ADD SWAP5 POP PUSH1 0x20 DUP2 ADD SWAP1 POP PUSH2 0x1354 JUMP JUMPDEST DUP7 DUP4 LT ISZERO PUSH2 0x1396 JUMPI DUP5 DUP10 ADD MLOAD PUSH2 0x1392 PUSH1 0x1F DUP10 AND DUP3 PUSH2 0x129F JUMP JUMPDEST DUP4 SSTORE POP JUMPDEST PUSH1 0x1 PUSH1 0x2 DUP9 MUL ADD DUP9 SSTORE POP POP POP JUMPDEST POP POP POP POP POP POP JUMP INVALID LOG2 PUSH5 0x6970667358 0x22 SLT KECCAK256 CODECOPY 0xF7 NUMBER MUL GASLIMIT CODESIZE 0x27 0xEB 0xF7 0xDD SELFDESTRUCT PUSH20 0x764600D8DF3F6C657AB6B638D8B695D04D33F01F PUSH5 0x736F6C6343 STOP ADDMOD SGT STOP CALLER "},"methodIdentifiers":{"getLogs(string[])":"759ab185","recordLogFromAccessControl(address,string,address,string,string)":"c47ebddc"}}}}}