{"contracts/FileRegister.sol":{"FileRegister":{"abi":[{"inputs":[{"internalType":"address","name":"helperContract","type":"address"}],"stateMutability":"nonpayable","type":"constructor"},{"inputs":[{"components":[{"internalType":"string","name":"ipfsCID","type":"string"},{"internalType":"string","name":"fileName","type":"string"},{"internalType":"address","name":"owner","type":"address"},{"internalType":"string","name":"fileType","type":"string"},{"internalType":"string","name":"iv","type":"string"}],"internalType":"struct FileRegister.File","name":"file","type":"tuple"}],"name":"addFile","outputs":[],"stateMutability":"nonpayable","type":"function"},{"inputs":[{"components":[{"internalType":"string","name":"ipfsCID","type":"string"},{"internalType":"string","name":"fileName","type":"string"},{"internalType":"address","name":"owner","type":"address"},{"internalType":"string","name":"fileType","type":"string"},{"internalType":"string","name":"iv","type":"string"}],"internalType":"struct FileRegister.File","name":"file","type":"tuple"}],"name":"canAddFile","outputs":[{"internalType":"bool","name":"","type":"bool"}],"stateMutability":"view","type":"function"},{"inputs":[{"internalType":"string","name":"fileIpfsCID","type":"string"}],"name":"fileExists","outputs":[{"internalType":"bool","name":"","type":"bool"}],"stateMutability":"view","type":"function"},{"inputs":[{"internalType":"string","name":"fileIpfsCid","type":"string"}],"name":"getFileByIpfsCID","outputs":[{"components":[{"internalType":"bool","name":"success","type":"bool"},{"components":[{"internalType":"string","name":"ipfsCID","type":"string"},{"internalType":"string","name":"fileName","type":"string"},{"internalType":"address","name":"owner","type":"address"},{"internalType":"string","name":"fileType","type":"string"},{"internalType":"string","name":"iv","type":"string"}],"internalType":"struct FileRegister.File","name":"file","type":"tuple"}],"internalType":"struct FileRegister.ResultFile","name":"","type":"tuple"}],"stateMutability":"view","type":"function"},{"inputs":[{"internalType":"address","name":"accessControlContractAddress","type":"address"}],"name":"setAccessControlAddress","outputs":[],"stateMutability":"nonpayable","type":"function"},{"inputs":[{"internalType":"address","name":"userAccount","type":"address"},{"internalType":"string","name":"fileIpfsCID","type":"string"}],"name":"userIsFileOwner","outputs":[{"internalType":"bool","name":"","type":"bool"}],"stateMutability":"view","type":"function"}],"evm":{"bytecode":{"linkReferences":{},"object":"60806040523480156200001157600080fd5b5060405162001568380380620015688339818101604052810190620000379190620000e9565b80600160006101000a81548173ffffffffffffffffffffffffffffffffffffffff021916908373ffffffffffffffffffffffffffffffffffffffff160217905550506200011b565b600080fd5b600073ffffffffffffffffffffffffffffffffffffffff82169050919050565b6000620000b18262000084565b9050919050565b620000c381620000a4565b8114620000cf57600080fd5b50565b600081519050620000e381620000b8565b92915050565b6000602082840312156200010257620001016200007f565b5b60006200011284828501620000d2565b91505092915050565b61143d806200012b6000396000f3fe608060405234801561001057600080fd5b50600436106100625760003560e01c80631429ea041461006757806352a9baef146100975780639aa7f418146100c75780639bccd6ad146100e35780639f5937f814610113578063e8d56b8b14610143575b600080fd5b610081600480360381019061007c9190610cee565b61015f565b60405161008e9190610d52565b60405180910390f35b6100b160048036038101906100ac9190610d6d565b610284565b6040516100be9190610d52565b60405180910390f35b6100e160048036038101906100dc9190610cee565b610368565b005b6100fd60048036038101906100f89190610dc9565b610495565b60405161010a9190610d52565b60405180910390f35b61012d60048036038101906101289190610dc9565b610539565b60405161013a9190610f77565b60405180910390f35b61015d60048036038101906101589190610f99565b6108f4565b005b600061016e8260000151610495565b1580156102135750600160009054906101000a900473ffffffffffffffffffffffffffffffffffffffff1673ffffffffffffffffffffffffffffffffffffffff1663f4520b2c836040518263ffffffff1660e01b81526004016101d19190611051565b602060405180830381865afa1580156101ee573d6000803e3d6000fd5b505050506040513d601f19601f82011682018060405250810190610212919061109f565b5b801561026c5750600260009054906101000a900473ffffffffffffffffffffffffffffffffffffffff1673ffffffffffffffffffffffffffffffffffffffff163373ffffffffffffffffffffffffffffffffffffffff16145b1561027a576001905061027f565b600090505b919050565b60008273ffffffffffffffffffffffffffffffffffffffff166000836040516102ad9190611108565b908152602001604051809103902060020160009054906101000a900473ffffffffffffffffffffffffffffffffffffffff1673ffffffffffffffffffffffffffffffffffffffff1614801561034f5750600260009054906101000a900473ffffffffffffffffffffffffffffffffffffffff1673ffffffffffffffffffffffffffffffffffffffff163373ffffffffffffffffffffffffffffffffffffffff16145b1561035d5760019050610362565b600090505b92915050565b600260009054906101000a900473ffffffffffffffffffffffffffffffffffffffff1673ffffffffffffffffffffffffffffffffffffffff163373ffffffffffffffffffffffffffffffffffffffff1603610492576103c68161015f565b156104915780600082600001516040516103e09190611108565b908152602001604051809103902060008201518160000190816104039190611335565b5060208201518160010190816104199190611335565b5060408201518160020160006101000a81548173ffffffffffffffffffffffffffffffffffffffff021916908373ffffffffffffffffffffffffffffffffffffffff16021790555060608201518160030190816104769190611335565b50608082015181600401908161048c9190611335565b509050505b5b50565b6000806000836040516104a89190611108565b908152602001604051809103902060000180546104c49061114e565b9050141580156105215750600260009054906101000a900473ffffffffffffffffffffffffffffffffffffffff1673ffffffffffffffffffffffffffffffffffffffff163373ffffffffffffffffffffffffffffffffffffffff16145b1561052f5760019050610534565b600090505b919050565b6105416109c9565b600080836040516105529190611108565b9081526020016040518091039020600101805461056e9061114e565b9050111561085b57604051806040016040528060011515815260200160008460405161059a9190611108565b90815260200160405180910390206040518060a00160405290816000820180546105c39061114e565b80601f01602080910402602001604051908101604052809291908181526020018280546105ef9061114e565b801561063c5780601f106106115761010080835404028352916020019161063c565b820191906000526020600020905b81548152906001019060200180831161061f57829003601f168201915b505050505081526020016001820180546106559061114e565b80601f01602080910402602001604051908101604052809291908181526020018280546106819061114e565b80156106ce5780601f106106a3576101008083540402835291602001916106ce565b820191906000526020600020905b8154815290600101906020018083116106b157829003601f168201915b505050505081526020016002820160009054906101000a900473ffffffffffffffffffffffffffffffffffffffff1673ffffffffffffffffffffffffffffffffffffffff1673ffffffffffffffffffffffffffffffffffffffff16815260200160038201805461073d9061114e565b80601f01602080910402602001604051908101604052809291908181526020018280546107699061114e565b80156107b65780601f1061078b576101008083540402835291602001916107b6565b820191906000526020600020905b81548152906001019060200180831161079957829003601f168201915b505050505081526020016004820180546107cf9061114e565b80601f01602080910402602001604051908101604052809291908181526020018280546107fb9061114e565b80156108485780601f1061081d57610100808354040283529160200191610848565b820191906000526020600020905b81548152906001019060200180831161082b57829003601f168201915b50505050508152505081525090506108ef565b60405180604001604052806000151581526020016040518060a00160405280604051806020016040528060008152508152602001604051806020016040528060008152508152602001600073ffffffffffffffffffffffffffffffffffffffff1681526020016040518060200160405280600081525081526020016040518060200160405280600081525081525081525090505b919050565b600073ffffffffffffffffffffffffffffffffffffffff168173ffffffffffffffffffffffffffffffffffffffff161415801561097f5750600073ffffffffffffffffffffffffffffffffffffffff16600260009054906101000a900473ffffffffffffffffffffffffffffffffffffffff1673ffffffffffffffffffffffffffffffffffffffff16145b156109c65780600260006101000a81548173ffffffffffffffffffffffffffffffffffffffff021916908373ffffffffffffffffffffffffffffffffffffffff1602179055505b50565b60405180604001604052806000151581526020016109e56109eb565b81525090565b6040518060a001604052806060815260200160608152602001600073ffffffffffffffffffffffffffffffffffffffff16815260200160608152602001606081525090565b6000604051905090565b600080fd5b600080fd5b600080fd5b6000601f19601f8301169050919050565b7f4e487b7100000000000000000000000000000000000000000000000000000000600052604160045260246000fd5b610a9282610a49565b810181811067ffffffffffffffff82111715610ab157610ab0610a5a565b5b80604052505050565b6000610ac4610a30565b9050610ad08282610a89565b919050565b600080fd5b600080fd5b600080fd5b600067ffffffffffffffff821115610aff57610afe610a5a565b5b610b0882610a49565b9050602081019050919050565b82818337600083830152505050565b6000610b37610b3284610ae4565b610aba565b905082815260208101848484011115610b5357610b52610adf565b5b610b5e848285610b15565b509392505050565b600082601f830112610b7b57610b7a610ada565b5b8135610b8b848260208601610b24565b91505092915050565b600073ffffffffffffffffffffffffffffffffffffffff82169050919050565b6000610bbf82610b94565b9050919050565b610bcf81610bb4565b8114610bda57600080fd5b50565b600081359050610bec81610bc6565b92915050565b600060a08284031215610c0857610c07610a44565b5b610c1260a0610aba565b9050600082013567ffffffffffffffff811115610c3257610c31610ad5565b5b610c3e84828501610b66565b600083015250602082013567ffffffffffffffff811115610c6257610c61610ad5565b5b610c6e84828501610b66565b6020830152506040610c8284828501610bdd565b604083015250606082013567ffffffffffffffff811115610ca657610ca5610ad5565b5b610cb284828501610b66565b606083015250608082013567ffffffffffffffff811115610cd657610cd5610ad5565b5b610ce284828501610b66565b60808301525092915050565b600060208284031215610d0457610d03610a3a565b5b600082013567ffffffffffffffff811115610d2257610d21610a3f565b5b610d2e84828501610bf2565b91505092915050565b60008115159050919050565b610d4c81610d37565b82525050565b6000602082019050610d676000830184610d43565b92915050565b60008060408385031215610d8457610d83610a3a565b5b6000610d9285828601610bdd565b925050602083013567ffffffffffffffff811115610db357610db2610a3f565b5b610dbf85828601610b66565b9150509250929050565b600060208284031215610ddf57610dde610a3a565b5b600082013567ffffffffffffffff811115610dfd57610dfc610a3f565b5b610e0984828501610b66565b91505092915050565b610e1b81610d37565b82525050565b600081519050919050565b600082825260208201905092915050565b60005b83811015610e5b578082015181840152602081019050610e40565b60008484015250505050565b6000610e7282610e21565b610e7c8185610e2c565b9350610e8c818560208601610e3d565b610e9581610a49565b840191505092915050565b610ea981610bb4565b82525050565b600060a0830160008301518482036000860152610ecc8282610e67565b91505060208301518482036020860152610ee68282610e67565b9150506040830151610efb6040860182610ea0565b5060608301518482036060860152610f138282610e67565b91505060808301518482036080860152610f2d8282610e67565b9150508091505092915050565b6000604083016000830151610f526000860182610e12565b5060208301518482036020860152610f6a8282610eaf565b9150508091505092915050565b60006020820190508181036000830152610f918184610f3a565b905092915050565b600060208284031215610faf57610fae610a3a565b5b6000610fbd84828501610bdd565b91505092915050565b600060a0830160008301518482036000860152610fe38282610e67565b91505060208301518482036020860152610ffd8282610e67565b91505060408301516110126040860182610ea0565b506060830151848203606086015261102a8282610e67565b915050608083015184820360808601526110448282610e67565b9150508091505092915050565b6000602082019050818103600083015261106b8184610fc6565b905092915050565b61107c81610d37565b811461108757600080fd5b50565b60008151905061109981611073565b92915050565b6000602082840312156110b5576110b4610a3a565b5b60006110c38482850161108a565b91505092915050565b600081905092915050565b60006110e282610e21565b6110ec81856110cc565b93506110fc818560208601610e3d565b80840191505092915050565b600061111482846110d7565b915081905092915050565b7f4e487b7100000000000000000000000000000000000000000000000000000000600052602260045260246000fd5b6000600282049050600182168061116657607f821691505b6020821081036111795761117861111f565b5b50919050565b60008190508160005260206000209050919050565b60006020601f8301049050919050565b600082821b905092915050565b6000600883026111e17fffffffffffffffffffffffffffffffffffffffffffffffffffffffffffffffff826111a4565b6111eb86836111a4565b95508019841693508086168417925050509392505050565b6000819050919050565b6000819050919050565b600061123261122d61122884611203565b61120d565b611203565b9050919050565b6000819050919050565b61124c83611217565b61126061125882611239565b8484546111b1565b825550505050565b600090565b611275611268565b611280818484611243565b505050565b5b818110156112a45761129960008261126d565b600181019050611286565b5050565b601f8211156112e9576112ba8161117f565b6112c384611194565b810160208510156112d2578190505b6112e66112de85611194565b830182611285565b50505b505050565b600082821c905092915050565b600061130c600019846008026112ee565b1980831691505092915050565b600061132583836112fb565b9150826002028217905092915050565b61133e82610e21565b67ffffffffffffffff81111561135757611356610a5a565b5b611361825461114e565b61136c8282856112a8565b600060209050601f83116001811461139f576000841561138d578287015190505b6113978582611319565b8655506113ff565b601f1984166113ad8661117f565b60005b828110156113d5578489015182556001820191506020850194506020810190506113b0565b868310156113f257848901516113ee601f8916826112fb565b8355505b6001600288020188555050505b50505050505056fea2646970667358221220a9f786f809820145e5dac62e2e795d0dc71037a37d4c827a606eb8c186833bad64736f6c63430008130033","opcodes":"PUSH1 0x80 PUSH1 0x40 MSTORE CALLVALUE DUP1 ISZERO PUSH3 0x11 JUMPI PUSH1 0x0 DUP1 REVERT JUMPDEST POP PUSH1 0x40 MLOAD PUSH3 0x1568 CODESIZE SUB DUP1 PUSH3 0x1568 DUP4 CODECOPY DUP2 DUP2 ADD PUSH1 0x40 MSTORE DUP2 ADD SWAP1 PUSH3 0x37 SWAP2 SWAP1 PUSH3 0xE9 JUMP JUMPDEST DUP1 PUSH1 0x1 PUSH1 0x0 PUSH2 0x100 EXP DUP2 SLOAD DUP2 PUSH20 0xFFFFFFFFFFFFFFFFFFFFFFFFFFFFFFFFFFFFFFFF MUL NOT AND SWAP1 DUP4 PUSH20 0xFFFFFFFFFFFFFFFFFFFFFFFFFFFFFFFFFFFFFFFF AND MUL OR SWAP1 SSTORE POP POP PUSH3 0x11B JUMP JUMPDEST PUSH1 0x0 DUP1 REVERT JUMPDEST PUSH1 0x0 PUSH20 0xFFFFFFFFFFFFFFFFFFFFFFFFFFFFFFFFFFFFFFFF DUP3 AND SWAP1 POP SWAP2 SWAP1 POP JUMP JUMPDEST PUSH1 0x0 PUSH3 0xB1 DUP3 PUSH3 0x84 JUMP JUMPDEST SWAP1 POP SWAP2 SWAP1 POP JUMP JUMPDEST PUSH3 0xC3 DUP2 PUSH3 0xA4 JUMP JUMPDEST DUP2 EQ PUSH3 0xCF JUMPI PUSH1 0x0 DUP1 REVERT JUMPDEST POP JUMP JUMPDEST PUSH1 0x0 DUP2 MLOAD SWAP1 POP PUSH3 0xE3 DUP2 PUSH3 0xB8 JUMP JUMPDEST SWAP3 SWAP2 POP POP JUMP JUMPDEST PUSH1 0x0 PUSH1 0x20 DUP3 DUP5 SUB SLT ISZERO PUSH3 0x102 JUMPI PUSH3 0x101 PUSH3 0x7F JUMP JUMPDEST JUMPDEST PUSH1 0x0 PUSH3 0x112 DUP5 DUP3 DUP6 ADD PUSH3 0xD2 JUMP JUMPDEST SWAP2 POP POP SWAP3 SWAP2 POP POP JUMP JUMPDEST PUSH2 0x143D DUP1 PUSH3 0x12B PUSH1 0x0 CODECOPY PUSH1 0x0 RETURN INVALID PUSH1 0x80 PUSH1 0x40 MSTORE CALLVALUE DUP1 ISZERO PUSH2 0x10 JUMPI PUSH1 0x0 DUP1 REVERT JUMPDEST POP PUSH1 0x4 CALLDATASIZE LT PUSH2 0x62 JUMPI PUSH1 0x0 CALLDATALOAD PUSH1 0xE0 SHR DUP1 PUSH4 0x1429EA04 EQ PUSH2 0x67 JUMPI DUP1 PUSH4 0x52A9BAEF EQ PUSH2 0x97 JUMPI DUP1 PUSH4 0x9AA7F418 EQ PUSH2 0xC7 JUMPI DUP1 PUSH4 0x9BCCD6AD EQ PUSH2 0xE3 JUMPI DUP1 PUSH4 0x9F5937F8 EQ PUSH2 0x113 JUMPI DUP1 PUSH4 0xE8D56B8B EQ PUSH2 0x143 JUMPI JUMPDEST PUSH1 0x0 DUP1 REVERT JUMPDEST PUSH2 0x81 PUSH1 0x4 DUP1 CALLDATASIZE SUB DUP2 ADD SWAP1 PUSH2 0x7C SWAP2 SWAP1 PUSH2 0xCEE JUMP JUMPDEST PUSH2 0x15F JUMP JUMPDEST PUSH1 0x40 MLOAD PUSH2 0x8E SWAP2 SWAP1 PUSH2 0xD52 JUMP JUMPDEST PUSH1 0x40 MLOAD DUP1 SWAP2 SUB SWAP1 RETURN JUMPDEST PUSH2 0xB1 PUSH1 0x4 DUP1 CALLDATASIZE SUB DUP2 ADD SWAP1 PUSH2 0xAC SWAP2 SWAP1 PUSH2 0xD6D JUMP JUMPDEST PUSH2 0x284 JUMP JUMPDEST PUSH1 0x40 MLOAD PUSH2 0xBE SWAP2 SWAP1 PUSH2 0xD52 JUMP JUMPDEST PUSH1 0x40 MLOAD DUP1 SWAP2 SUB SWAP1 RETURN JUMPDEST PUSH2 0xE1 PUSH1 0x4 DUP1 CALLDATASIZE SUB DUP2 ADD SWAP1 PUSH2 0xDC SWAP2 SWAP1 PUSH2 0xCEE JUMP JUMPDEST PUSH2 0x368 JUMP JUMPDEST STOP JUMPDEST PUSH2 0xFD PUSH1 0x4 DUP1 CALLDATASIZE SUB DUP2 ADD SWAP1 PUSH2 0xF8 SWAP2 SWAP1 PUSH2 0xDC9 JUMP JUMPDEST PUSH2 0x495 JUMP JUMPDEST PUSH1 0x40 MLOAD PUSH2 0x10A SWAP2 SWAP1 PUSH2 0xD52 JUMP JUMPDEST PUSH1 0x40 MLOAD DUP1 SWAP2 SUB SWAP1 RETURN JUMPDEST PUSH2 0x12D PUSH1 0x4 DUP1 CALLDATASIZE SUB DUP2 ADD SWAP1 PUSH2 0x128 SWAP2 SWAP1 PUSH2 0xDC9 JUMP JUMPDEST PUSH2 0x539 JUMP JUMPDEST PUSH1 0x40 MLOAD PUSH2 0x13A SWAP2 SWAP1 PUSH2 0xF77 JUMP JUMPDEST PUSH1 0x40 MLOAD DUP1 SWAP2 SUB SWAP1 RETURN JUMPDEST PUSH2 0x15D PUSH1 0x4 DUP1 CALLDATASIZE SUB DUP2 ADD SWAP1 PUSH2 0x158 SWAP2 SWAP1 PUSH2 0xF99 JUMP JUMPDEST PUSH2 0x8F4 JUMP JUMPDEST STOP JUMPDEST PUSH1 0x0 PUSH2 0x16E DUP3 PUSH1 0x0 ADD MLOAD PUSH2 0x495 JUMP JUMPDEST ISZERO DUP1 ISZERO PUSH2 0x213 JUMPI POP PUSH1 0x1 PUSH1 0x0 SWAP1 SLOAD SWAP1 PUSH2 0x100 EXP SWAP1 DIV PUSH20 0xFFFFFFFFFFFFFFFFFFFFFFFFFFFFFFFFFFFFFFFF AND PUSH20 0xFFFFFFFFFFFFFFFFFFFFFFFFFFFFFFFFFFFFFFFF AND PUSH4 0xF4520B2C DUP4 PUSH1 0x40 MLOAD DUP3 PUSH4 0xFFFFFFFF AND PUSH1 0xE0 SHL DUP2 MSTORE PUSH1 0x4 ADD PUSH2 0x1D1 SWAP2 SWAP1 PUSH2 0x1051 JUMP JUMPDEST PUSH1 0x20 PUSH1 0x40 MLOAD DUP1 DUP4 SUB DUP2 DUP7 GAS STATICCALL ISZERO DUP1 ISZERO PUSH2 0x1EE JUMPI RETURNDATASIZE PUSH1 0x0 DUP1 RETURNDATACOPY RETURNDATASIZE PUSH1 0x0 REVERT JUMPDEST POP POP POP POP PUSH1 0x40 MLOAD RETURNDATASIZE PUSH1 0x1F NOT PUSH1 0x1F DUP3 ADD AND DUP3 ADD DUP1 PUSH1 0x40 MSTORE POP DUP2 ADD SWAP1 PUSH2 0x212 SWAP2 SWAP1 PUSH2 0x109F JUMP JUMPDEST JUMPDEST DUP1 ISZERO PUSH2 0x26C JUMPI POP PUSH1 0x2 PUSH1 0x0 SWAP1 SLOAD SWAP1 PUSH2 0x100 EXP SWAP1 DIV PUSH20 0xFFFFFFFFFFFFFFFFFFFFFFFFFFFFFFFFFFFFFFFF AND PUSH20 0xFFFFFFFFFFFFFFFFFFFFFFFFFFFFFFFFFFFFFFFF AND CALLER PUSH20 0xFFFFFFFFFFFFFFFFFFFFFFFFFFFFFFFFFFFFFFFF AND EQ JUMPDEST ISZERO PUSH2 0x27A JUMPI PUSH1 0x1 SWAP1 POP PUSH2 0x27F JUMP JUMPDEST PUSH1 0x0 SWAP1 POP JUMPDEST SWAP2 SWAP1 POP JUMP JUMPDEST PUSH1 0x0 DUP3 PUSH20 0xFFFFFFFFFFFFFFFFFFFFFFFFFFFFFFFFFFFFFFFF AND PUSH1 0x0 DUP4 PUSH1 0x40 MLOAD PUSH2 0x2AD SWAP2 SWAP1 PUSH2 0x1108 JUMP JUMPDEST SWAP1 DUP2 MSTORE PUSH1 0x20 ADD PUSH1 0x40 MLOAD DUP1 SWAP2 SUB SWAP1 KECCAK256 PUSH1 0x2 ADD PUSH1 0x0 SWAP1 SLOAD SWAP1 PUSH2 0x100 EXP SWAP1 DIV PUSH20 0xFFFFFFFFFFFFFFFFFFFFFFFFFFFFFFFFFFFFFFFF AND PUSH20 0xFFFFFFFFFFFFFFFFFFFFFFFFFFFFFFFFFFFFFFFF AND EQ DUP1 ISZERO PUSH2 0x34F JUMPI POP PUSH1 0x2 PUSH1 0x0 SWAP1 SLOAD SWAP1 PUSH2 0x100 EXP SWAP1 DIV PUSH20 0xFFFFFFFFFFFFFFFFFFFFFFFFFFFFFFFFFFFFFFFF AND PUSH20 0xFFFFFFFFFFFFFFFFFFFFFFFFFFFFFFFFFFFFFFFF AND CALLER PUSH20 0xFFFFFFFFFFFFFFFFFFFFFFFFFFFFFFFFFFFFFFFF AND EQ JUMPDEST ISZERO PUSH2 0x35D JUMPI PUSH1 0x1 SWAP1 POP PUSH2 0x362 JUMP JUMPDEST PUSH1 0x0 SWAP1 POP JUMPDEST SWAP3 SWAP2 POP POP JUMP JUMPDEST PUSH1 0x2 PUSH1 0x0 SWAP1 SLOAD SWAP1 PUSH2 0x100 EXP SWAP1 DIV PUSH20 0xFFFFFFFFFFFFFFFFFFFFFFFFFFFFFFFFFFFFFFFF AND PUSH20 0xFFFFFFFFFFFFFFFFFFFFFFFFFFFFFFFFFFFFFFFF AND CALLER PUSH20 0xFFFFFFFFFFFFFFFFFFFFFFFFFFFFFFFFFFFFFFFF AND SUB PUSH2 0x492 JUMPI PUSH2 0x3C6 DUP2 PUSH2 0x15F JUMP JUMPDEST ISZERO PUSH2 0x491 JUMPI DUP1 PUSH1 0x0 DUP3 PUSH1 0x0 ADD MLOAD PUSH1 0x40 MLOAD PUSH2 0x3E0 SWAP2 SWAP1 PUSH2 0x1108 JUMP JUMPDEST SWAP1 DUP2 MSTORE PUSH1 0x20 ADD PUSH1 0x40 MLOAD DUP1 SWAP2 SUB SWAP1 KECCAK256 PUSH1 0x0 DUP3 ADD MLOAD DUP2 PUSH1 0x0 ADD SWAP1 DUP2 PUSH2 0x403 SWAP2 SWAP1 PUSH2 0x1335 JUMP JUMPDEST POP PUSH1 0x20 DUP3 ADD MLOAD DUP2 PUSH1 0x1 ADD SWAP1 DUP2 PUSH2 0x419 SWAP2 SWAP1 PUSH2 0x1335 JUMP JUMPDEST POP PUSH1 0x40 DUP3 ADD MLOAD DUP2 PUSH1 0x2 ADD PUSH1 0x0 PUSH2 0x100 EXP DUP2 SLOAD DUP2 PUSH20 0xFFFFFFFFFFFFFFFFFFFFFFFFFFFFFFFFFFFFFFFF MUL NOT AND SWAP1 DUP4 PUSH20 0xFFFFFFFFFFFFFFFFFFFFFFFFFFFFFFFFFFFFFFFF AND MUL OR SWAP1 SSTORE POP PUSH1 0x60 DUP3 ADD MLOAD DUP2 PUSH1 0x3 ADD SWAP1 DUP2 PUSH2 0x476 SWAP2 SWAP1 PUSH2 0x1335 JUMP JUMPDEST POP PUSH1 0x80 DUP3 ADD MLOAD DUP2 PUSH1 0x4 ADD SWAP1 DUP2 PUSH2 0x48C SWAP2 SWAP1 PUSH2 0x1335 JUMP JUMPDEST POP SWAP1 POP POP JUMPDEST JUMPDEST POP JUMP JUMPDEST PUSH1 0x0 DUP1 PUSH1 0x0 DUP4 PUSH1 0x40 MLOAD PUSH2 0x4A8 SWAP2 SWAP1 PUSH2 0x1108 JUMP JUMPDEST SWAP1 DUP2 MSTORE PUSH1 0x20 ADD PUSH1 0x40 MLOAD DUP1 SWAP2 SUB SWAP1 KECCAK256 PUSH1 0x0 ADD DUP1 SLOAD PUSH2 0x4C4 SWAP1 PUSH2 0x114E JUMP JUMPDEST SWAP1 POP EQ ISZERO DUP1 ISZERO PUSH2 0x521 JUMPI POP PUSH1 0x2 PUSH1 0x0 SWAP1 SLOAD SWAP1 PUSH2 0x100 EXP SWAP1 DIV PUSH20 0xFFFFFFFFFFFFFFFFFFFFFFFFFFFFFFFFFFFFFFFF AND PUSH20 0xFFFFFFFFFFFFFFFFFFFFFFFFFFFFFFFFFFFFFFFF AND CALLER PUSH20 0xFFFFFFFFFFFFFFFFFFFFFFFFFFFFFFFFFFFFFFFF AND EQ JUMPDEST ISZERO PUSH2 0x52F JUMPI PUSH1 0x1 SWAP1 POP PUSH2 0x534 JUMP JUMPDEST PUSH1 0x0 SWAP1 POP JUMPDEST SWAP2 SWAP1 POP JUMP JUMPDEST PUSH2 0x541 PUSH2 0x9C9 JUMP JUMPDEST PUSH1 0x0 DUP1 DUP4 PUSH1 0x40 MLOAD PUSH2 0x552 SWAP2 SWAP1 PUSH2 0x1108 JUMP JUMPDEST SWAP1 DUP2 MSTORE PUSH1 0x20 ADD PUSH1 0x40 MLOAD DUP1 SWAP2 SUB SWAP1 KECCAK256 PUSH1 0x1 ADD DUP1 SLOAD PUSH2 0x56E SWAP1 PUSH2 0x114E JUMP JUMPDEST SWAP1 POP GT ISZERO PUSH2 0x85B JUMPI PUSH1 0x40 MLOAD DUP1 PUSH1 0x40 ADD PUSH1 0x40 MSTORE DUP1 PUSH1 0x1 ISZERO ISZERO DUP2 MSTORE PUSH1 0x20 ADD PUSH1 0x0 DUP5 PUSH1 0x40 MLOAD PUSH2 0x59A SWAP2 SWAP1 PUSH2 0x1108 JUMP JUMPDEST SWAP1 DUP2 MSTORE PUSH1 0x20 ADD PUSH1 0x40 MLOAD DUP1 SWAP2 SUB SWAP1 KECCAK256 PUSH1 0x40 MLOAD DUP1 PUSH1 0xA0 ADD PUSH1 0x40 MSTORE SWAP1 DUP2 PUSH1 0x0 DUP3 ADD DUP1 SLOAD PUSH2 0x5C3 SWAP1 PUSH2 0x114E JUMP JUMPDEST DUP1 PUSH1 0x1F ADD PUSH1 0x20 DUP1 SWAP2 DIV MUL PUSH1 0x20 ADD PUSH1 0x40 MLOAD SWAP1 DUP2 ADD PUSH1 0x40 MSTORE DUP1 SWAP3 SWAP2 SWAP1 DUP2 DUP2 MSTORE PUSH1 0x20 ADD DUP3 DUP1 SLOAD PUSH2 0x5EF SWAP1 PUSH2 0x114E JUMP JUMPDEST DUP1 ISZERO PUSH2 0x63C JUMPI DUP1 PUSH1 0x1F LT PUSH2 0x611 JUMPI PUSH2 0x100 DUP1 DUP4 SLOAD DIV MUL DUP4 MSTORE SWAP2 PUSH1 0x20 ADD SWAP2 PUSH2 0x63C JUMP JUMPDEST DUP3 ADD SWAP2 SWAP1 PUSH1 0x0 MSTORE PUSH1 0x20 PUSH1 0x0 KECCAK256 SWAP1 JUMPDEST DUP2 SLOAD DUP2 MSTORE SWAP1 PUSH1 0x1 ADD SWAP1 PUSH1 0x20 ADD DUP1 DUP4 GT PUSH2 0x61F JUMPI DUP3 SWAP1 SUB PUSH1 0x1F AND DUP3 ADD SWAP2 JUMPDEST POP POP POP POP POP DUP2 MSTORE PUSH1 0x20 ADD PUSH1 0x1 DUP3 ADD DUP1 SLOAD PUSH2 0x655 SWAP1 PUSH2 0x114E JUMP JUMPDEST DUP1 PUSH1 0x1F ADD PUSH1 0x20 DUP1 SWAP2 DIV MUL PUSH1 0x20 ADD PUSH1 0x40 MLOAD SWAP1 DUP2 ADD PUSH1 0x40 MSTORE DUP1 SWAP3 SWAP2 SWAP1 DUP2 DUP2 MSTORE PUSH1 0x20 ADD DUP3 DUP1 SLOAD PUSH2 0x681 SWAP1 PUSH2 0x114E JUMP JUMPDEST DUP1 ISZERO PUSH2 0x6CE JUMPI DUP1 PUSH1 0x1F LT PUSH2 0x6A3 JUMPI PUSH2 0x100 DUP1 DUP4 SLOAD DIV MUL DUP4 MSTORE SWAP2 PUSH1 0x20 ADD SWAP2 PUSH2 0x6CE JUMP JUMPDEST DUP3 ADD SWAP2 SWAP1 PUSH1 0x0 MSTORE PUSH1 0x20 PUSH1 0x0 KECCAK256 SWAP1 JUMPDEST DUP2 SLOAD DUP2 MSTORE SWAP1 PUSH1 0x1 ADD SWAP1 PUSH1 0x20 ADD DUP1 DUP4 GT PUSH2 0x6B1 JUMPI DUP3 SWAP1 SUB PUSH1 0x1F AND DUP3 ADD SWAP2 JUMPDEST POP POP POP POP POP DUP2 MSTORE PUSH1 0x20 ADD PUSH1 0x2 DUP3 ADD PUSH1 0x0 SWAP1 SLOAD SWAP1 PUSH2 0x100 EXP SWAP1 DIV PUSH20 0xFFFFFFFFFFFFFFFFFFFFFFFFFFFFFFFFFFFFFFFF AND PUSH20 0xFFFFFFFFFFFFFFFFFFFFFFFFFFFFFFFFFFFFFFFF AND PUSH20 0xFFFFFFFFFFFFFFFFFFFFFFFFFFFFFFFFFFFFFFFF AND DUP2 MSTORE PUSH1 0x20 ADD PUSH1 0x3 DUP3 ADD DUP1 SLOAD PUSH2 0x73D SWAP1 PUSH2 0x114E JUMP JUMPDEST DUP1 PUSH1 0x1F ADD PUSH1 0x20 DUP1 SWAP2 DIV MUL PUSH1 0x20 ADD PUSH1 0x40 MLOAD SWAP1 DUP2 ADD PUSH1 0x40 MSTORE DUP1 SWAP3 SWAP2 SWAP1 DUP2 DUP2 MSTORE PUSH1 0x20 ADD DUP3 DUP1 SLOAD PUSH2 0x769 SWAP1 PUSH2 0x114E JUMP JUMPDEST DUP1 ISZERO PUSH2 0x7B6 JUMPI DUP1 PUSH1 0x1F LT PUSH2 0x78B JUMPI PUSH2 0x100 DUP1 DUP4 SLOAD DIV MUL DUP4 MSTORE SWAP2 PUSH1 0x20 ADD SWAP2 PUSH2 0x7B6 JUMP JUMPDEST DUP3 ADD SWAP2 SWAP1 PUSH1 0x0 MSTORE PUSH1 0x20 PUSH1 0x0 KECCAK256 SWAP1 JUMPDEST DUP2 SLOAD DUP2 MSTORE SWAP1 PUSH1 0x1 ADD SWAP1 PUSH1 0x20 ADD DUP1 DUP4 GT PUSH2 0x799 JUMPI DUP3 SWAP1 SUB PUSH1 0x1F AND DUP3 ADD SWAP2 JUMPDEST POP POP POP POP POP DUP2 MSTORE PUSH1 0x20 ADD PUSH1 0x4 DUP3 ADD DUP1 SLOAD PUSH2 0x7CF SWAP1 PUSH2 0x114E JUMP JUMPDEST DUP1 PUSH1 0x1F ADD PUSH1 0x20 DUP1 SWAP2 DIV MUL PUSH1 0x20 ADD PUSH1 0x40 MLOAD SWAP1 DUP2 ADD PUSH1 0x40 MSTORE DUP1 SWAP3 SWAP2 SWAP1 DUP2 DUP2 MSTORE PUSH1 0x20 ADD DUP3 DUP1 SLOAD PUSH2 0x7FB SWAP1 PUSH2 0x114E JUMP JUMPDEST DUP1 ISZERO PUSH2 0x848 JUMPI DUP1 PUSH1 0x1F LT PUSH2 0x81D JUMPI PUSH2 0x100 DUP1 DUP4 SLOAD DIV MUL DUP4 MSTORE SWAP2 PUSH1 0x20 ADD SWAP2 PUSH2 0x848 JUMP JUMPDEST DUP3 ADD SWAP2 SWAP1 PUSH1 0x0 MSTORE PUSH1 0x20 PUSH1 0x0 KECCAK256 SWAP1 JUMPDEST DUP2 SLOAD DUP2 MSTORE SWAP1 PUSH1 0x1 ADD SWAP1 PUSH1 0x20 ADD DUP1 DUP4 GT PUSH2 0x82B JUMPI DUP3 SWAP1 SUB PUSH1 0x1F AND DUP3 ADD SWAP2 JUMPDEST POP POP POP POP POP DUP2 MSTORE POP POP DUP2 MSTORE POP SWAP1 POP PUSH2 0x8EF JUMP JUMPDEST PUSH1 0x40 MLOAD DUP1 PUSH1 0x40 ADD PUSH1 0x40 MSTORE DUP1 PUSH1 0x0 ISZERO ISZERO DUP2 MSTORE PUSH1 0x20 ADD PUSH1 0x40 MLOAD DUP1 PUSH1 0xA0 ADD PUSH1 0x40 MSTORE DUP1 PUSH1 0x40 MLOAD DUP1 PUSH1 0x20 ADD PUSH1 0x40 MSTORE DUP1 PUSH1 0x0 DUP2 MSTORE POP DUP2 MSTORE PUSH1 0x20 ADD PUSH1 0x40 MLOAD DUP1 PUSH1 0x20 ADD PUSH1 0x40 MSTORE DUP1 PUSH1 0x0 DUP2 MSTORE POP DUP2 MSTORE PUSH1 0x20 ADD PUSH1 0x0 PUSH20 0xFFFFFFFFFFFFFFFFFFFFFFFFFFFFFFFFFFFFFFFF AND DUP2 MSTORE PUSH1 0x20 ADD PUSH1 0x40 MLOAD DUP1 PUSH1 0x20 ADD PUSH1 0x40 MSTORE DUP1 PUSH1 0x0 DUP2 MSTORE POP DUP2 MSTORE PUSH1 0x20 ADD PUSH1 0x40 MLOAD DUP1 PUSH1 0x20 ADD PUSH1 0x40 MSTORE DUP1 PUSH1 0x0 DUP2 MSTORE POP DUP2 MSTORE POP DUP2 MSTORE POP SWAP1 POP JUMPDEST SWAP2 SWAP1 POP JUMP JUMPDEST PUSH1 0x0 PUSH20 0xFFFFFFFFFFFFFFFFFFFFFFFFFFFFFFFFFFFFFFFF AND DUP2 PUSH20 0xFFFFFFFFFFFFFFFFFFFFFFFFFFFFFFFFFFFFFFFF AND EQ ISZERO DUP1 ISZERO PUSH2 0x97F JUMPI POP PUSH1 0x0 PUSH20 0xFFFFFFFFFFFFFFFFFFFFFFFFFFFFFFFFFFFFFFFF AND PUSH1 0x2 PUSH1 0x0 SWAP1 SLOAD SWAP1 PUSH2 0x100 EXP SWAP1 DIV PUSH20 0xFFFFFFFFFFFFFFFFFFFFFFFFFFFFFFFFFFFFFFFF AND PUSH20 0xFFFFFFFFFFFFFFFFFFFFFFFFFFFFFFFFFFFFFFFF AND EQ JUMPDEST ISZERO PUSH2 0x9C6 JUMPI DUP1 PUSH1 0x2 PUSH1 0x0 PUSH2 0x100 EXP DUP2 SLOAD DUP2 PUSH20 0xFFFFFFFFFFFFFFFFFFFFFFFFFFFFFFFFFFFFFFFF MUL NOT AND SWAP1 DUP4 PUSH20 0xFFFFFFFFFFFFFFFFFFFFFFFFFFFFFFFFFFFFFFFF AND MUL OR SWAP1 SSTORE POP JUMPDEST POP JUMP JUMPDEST PUSH1 0x40 MLOAD DUP1 PUSH1 0x40 ADD PUSH1 0x40 MSTORE DUP1 PUSH1 0x0 ISZERO ISZERO DUP2 MSTORE PUSH1 0x20 ADD PUSH2 0x9E5 PUSH2 0x9EB JUMP JUMPDEST DUP2 MSTORE POP SWAP1 JUMP JUMPDEST PUSH1 0x40 MLOAD DUP1 PUSH1 0xA0 ADD PUSH1 0x40 MSTORE DUP1 PUSH1 0x60 DUP2 MSTORE PUSH1 0x20 ADD PUSH1 0x60 DUP2 MSTORE PUSH1 0x20 ADD PUSH1 0x0 PUSH20 0xFFFFFFFFFFFFFFFFFFFFFFFFFFFFFFFFFFFFFFFF AND DUP2 MSTORE PUSH1 0x20 ADD PUSH1 0x60 DUP2 MSTORE PUSH1 0x20 ADD PUSH1 0x60 DUP2 MSTORE POP SWAP1 JUMP JUMPDEST PUSH1 0x0 PUSH1 0x40 MLOAD SWAP1 POP SWAP1 JUMP JUMPDEST PUSH1 0x0 DUP1 REVERT JUMPDEST PUSH1 0x0 DUP1 REVERT JUMPDEST PUSH1 0x0 DUP1 REVERT JUMPDEST PUSH1 0x0 PUSH1 0x1F NOT PUSH1 0x1F DUP4 ADD AND SWAP1 POP SWAP2 SWAP1 POP JUMP JUMPDEST PUSH32 0x4E487B7100000000000000000000000000000000000000000000000000000000 PUSH1 0x0 MSTORE PUSH1 0x41 PUSH1 0x4 MSTORE PUSH1 0x24 PUSH1 0x0 REVERT JUMPDEST PUSH2 0xA92 DUP3 PUSH2 0xA49 JUMP JUMPDEST DUP2 ADD DUP2 DUP2 LT PUSH8 0xFFFFFFFFFFFFFFFF DUP3 GT OR ISZERO PUSH2 0xAB1 JUMPI PUSH2 0xAB0 PUSH2 0xA5A JUMP JUMPDEST JUMPDEST DUP1 PUSH1 0x40 MSTORE POP POP POP JUMP JUMPDEST PUSH1 0x0 PUSH2 0xAC4 PUSH2 0xA30 JUMP JUMPDEST SWAP1 POP PUSH2 0xAD0 DUP3 DUP3 PUSH2 0xA89 JUMP JUMPDEST SWAP2 SWAP1 POP JUMP JUMPDEST PUSH1 0x0 DUP1 REVERT JUMPDEST PUSH1 0x0 DUP1 REVERT JUMPDEST PUSH1 0x0 DUP1 REVERT JUMPDEST PUSH1 0x0 PUSH8 0xFFFFFFFFFFFFFFFF DUP3 GT ISZERO PUSH2 0xAFF JUMPI PUSH2 0xAFE PUSH2 0xA5A JUMP JUMPDEST JUMPDEST PUSH2 0xB08 DUP3 PUSH2 0xA49 JUMP JUMPDEST SWAP1 POP PUSH1 0x20 DUP2 ADD SWAP1 POP SWAP2 SWAP1 POP JUMP JUMPDEST DUP3 DUP2 DUP4 CALLDATACOPY PUSH1 0x0 DUP4 DUP4 ADD MSTORE POP POP POP JUMP JUMPDEST PUSH1 0x0 PUSH2 0xB37 PUSH2 0xB32 DUP5 PUSH2 0xAE4 JUMP JUMPDEST PUSH2 0xABA JUMP JUMPDEST SWAP1 POP DUP3 DUP2 MSTORE PUSH1 0x20 DUP2 ADD DUP5 DUP5 DUP5 ADD GT ISZERO PUSH2 0xB53 JUMPI PUSH2 0xB52 PUSH2 0xADF JUMP JUMPDEST JUMPDEST PUSH2 0xB5E DUP5 DUP3 DUP6 PUSH2 0xB15 JUMP JUMPDEST POP SWAP4 SWAP3 POP POP POP JUMP JUMPDEST PUSH1 0x0 DUP3 PUSH1 0x1F DUP4 ADD SLT PUSH2 0xB7B JUMPI PUSH2 0xB7A PUSH2 0xADA JUMP JUMPDEST JUMPDEST DUP2 CALLDATALOAD PUSH2 0xB8B DUP5 DUP3 PUSH1 0x20 DUP7 ADD PUSH2 0xB24 JUMP JUMPDEST SWAP2 POP POP SWAP3 SWAP2 POP POP JUMP JUMPDEST PUSH1 0x0 PUSH20 0xFFFFFFFFFFFFFFFFFFFFFFFFFFFFFFFFFFFFFFFF DUP3 AND SWAP1 POP SWAP2 SWAP1 POP JUMP JUMPDEST PUSH1 0x0 PUSH2 0xBBF DUP3 PUSH2 0xB94 JUMP JUMPDEST SWAP1 POP SWAP2 SWAP1 POP JUMP JUMPDEST PUSH2 0xBCF DUP2 PUSH2 0xBB4 JUMP JUMPDEST DUP2 EQ PUSH2 0xBDA JUMPI PUSH1 0x0 DUP1 REVERT JUMPDEST POP JUMP JUMPDEST PUSH1 0x0 DUP2 CALLDATALOAD SWAP1 POP PUSH2 0xBEC DUP2 PUSH2 0xBC6 JUMP JUMPDEST SWAP3 SWAP2 POP POP JUMP JUMPDEST PUSH1 0x0 PUSH1 0xA0 DUP3 DUP5 SUB SLT ISZERO PUSH2 0xC08 JUMPI PUSH2 0xC07 PUSH2 0xA44 JUMP JUMPDEST JUMPDEST PUSH2 0xC12 PUSH1 0xA0 PUSH2 0xABA JUMP JUMPDEST SWAP1 POP PUSH1 0x0 DUP3 ADD CALLDATALOAD PUSH8 0xFFFFFFFFFFFFFFFF DUP2 GT ISZERO PUSH2 0xC32 JUMPI PUSH2 0xC31 PUSH2 0xAD5 JUMP JUMPDEST JUMPDEST PUSH2 0xC3E DUP5 DUP3 DUP6 ADD PUSH2 0xB66 JUMP JUMPDEST PUSH1 0x0 DUP4 ADD MSTORE POP PUSH1 0x20 DUP3 ADD CALLDATALOAD PUSH8 0xFFFFFFFFFFFFFFFF DUP2 GT ISZERO PUSH2 0xC62 JUMPI PUSH2 0xC61 PUSH2 0xAD5 JUMP JUMPDEST JUMPDEST PUSH2 0xC6E DUP5 DUP3 DUP6 ADD PUSH2 0xB66 JUMP JUMPDEST PUSH1 0x20 DUP4 ADD MSTORE POP PUSH1 0x40 PUSH2 0xC82 DUP5 DUP3 DUP6 ADD PUSH2 0xBDD JUMP JUMPDEST PUSH1 0x40 DUP4 ADD MSTORE POP PUSH1 0x60 DUP3 ADD CALLDATALOAD PUSH8 0xFFFFFFFFFFFFFFFF DUP2 GT ISZERO PUSH2 0xCA6 JUMPI PUSH2 0xCA5 PUSH2 0xAD5 JUMP JUMPDEST JUMPDEST PUSH2 0xCB2 DUP5 DUP3 DUP6 ADD PUSH2 0xB66 JUMP JUMPDEST PUSH1 0x60 DUP4 ADD MSTORE POP PUSH1 0x80 DUP3 ADD CALLDATALOAD PUSH8 0xFFFFFFFFFFFFFFFF DUP2 GT ISZERO PUSH2 0xCD6 JUMPI PUSH2 0xCD5 PUSH2 0xAD5 JUMP JUMPDEST JUMPDEST PUSH2 0xCE2 DUP5 DUP3 DUP6 ADD PUSH2 0xB66 JUMP JUMPDEST PUSH1 0x80 DUP4 ADD MSTORE POP SWAP3 SWAP2 POP POP JUMP JUMPDEST PUSH1 0x0 PUSH1 0x20 DUP3 DUP5 SUB SLT ISZERO PUSH2 0xD04 JUMPI PUSH2 0xD03 PUSH2 0xA3A JUMP JUMPDEST JUMPDEST PUSH1 0x0 DUP3 ADD CALLDATALOAD PUSH8 0xFFFFFFFFFFFFFFFF DUP2 GT ISZERO PUSH2 0xD22 JUMPI PUSH2 0xD21 PUSH2 0xA3F JUMP JUMPDEST JUMPDEST PUSH2 0xD2E DUP5 DUP3 DUP6 ADD PUSH2 0xBF2 JUMP JUMPDEST SWAP2 POP POP SWAP3 SWAP2 POP POP JUMP JUMPDEST PUSH1 0x0 DUP2 ISZERO ISZERO SWAP1 POP SWAP2 SWAP1 POP JUMP JUMPDEST PUSH2 0xD4C DUP2 PUSH2 0xD37 JUMP JUMPDEST DUP3 MSTORE POP POP JUMP JUMPDEST PUSH1 0x0 PUSH1 0x20 DUP3 ADD SWAP1 POP PUSH2 0xD67 PUSH1 0x0 DUP4 ADD DUP5 PUSH2 0xD43 JUMP JUMPDEST SWAP3 SWAP2 POP POP JUMP JUMPDEST PUSH1 0x0 DUP1 PUSH1 0x40 DUP4 DUP6 SUB SLT ISZERO PUSH2 0xD84 JUMPI PUSH2 0xD83 PUSH2 0xA3A JUMP JUMPDEST JUMPDEST PUSH1 0x0 PUSH2 0xD92 DUP6 DUP3 DUP7 ADD PUSH2 0xBDD JUMP JUMPDEST SWAP3 POP POP PUSH1 0x20 DUP4 ADD CALLDATALOAD PUSH8 0xFFFFFFFFFFFFFFFF DUP2 GT ISZERO PUSH2 0xDB3 JUMPI PUSH2 0xDB2 PUSH2 0xA3F JUMP JUMPDEST JUMPDEST PUSH2 0xDBF DUP6 DUP3 DUP7 ADD PUSH2 0xB66 JUMP JUMPDEST SWAP2 POP POP SWAP3 POP SWAP3 SWAP1 POP JUMP JUMPDEST PUSH1 0x0 PUSH1 0x20 DUP3 DUP5 SUB SLT ISZERO PUSH2 0xDDF JUMPI PUSH2 0xDDE PUSH2 0xA3A JUMP JUMPDEST JUMPDEST PUSH1 0x0 DUP3 ADD CALLDATALOAD PUSH8 0xFFFFFFFFFFFFFFFF DUP2 GT ISZERO PUSH2 0xDFD JUMPI PUSH2 0xDFC PUSH2 0xA3F JUMP JUMPDEST JUMPDEST PUSH2 0xE09 DUP5 DUP3 DUP6 ADD PUSH2 0xB66 JUMP JUMPDEST SWAP2 POP POP SWAP3 SWAP2 POP POP JUMP JUMPDEST PUSH2 0xE1B DUP2 PUSH2 0xD37 JUMP JUMPDEST DUP3 MSTORE POP POP JUMP JUMPDEST PUSH1 0x0 DUP2 MLOAD SWAP1 POP SWAP2 SWAP1 POP JUMP JUMPDEST PUSH1 0x0 DUP3 DUP3 MSTORE PUSH1 0x20 DUP3 ADD SWAP1 POP SWAP3 SWAP2 POP POP JUMP JUMPDEST PUSH1 0x0 JUMPDEST DUP4 DUP2 LT ISZERO PUSH2 0xE5B JUMPI DUP1 DUP3 ADD MLOAD DUP2 DUP5 ADD MSTORE PUSH1 0x20 DUP2 ADD SWAP1 POP PUSH2 0xE40 JUMP JUMPDEST PUSH1 0x0 DUP5 DUP5 ADD MSTORE POP POP POP POP JUMP JUMPDEST PUSH1 0x0 PUSH2 0xE72 DUP3 PUSH2 0xE21 JUMP JUMPDEST PUSH2 0xE7C DUP2 DUP6 PUSH2 0xE2C JUMP JUMPDEST SWAP4 POP PUSH2 0xE8C DUP2 DUP6 PUSH1 0x20 DUP7 ADD PUSH2 0xE3D JUMP JUMPDEST PUSH2 0xE95 DUP2 PUSH2 0xA49 JUMP JUMPDEST DUP5 ADD SWAP2 POP POP SWAP3 SWAP2 POP POP JUMP JUMPDEST PUSH2 0xEA9 DUP2 PUSH2 0xBB4 JUMP JUMPDEST DUP3 MSTORE POP POP JUMP JUMPDEST PUSH1 0x0 PUSH1 0xA0 DUP4 ADD PUSH1 0x0 DUP4 ADD MLOAD DUP5 DUP3 SUB PUSH1 0x0 DUP7 ADD MSTORE PUSH2 0xECC DUP3 DUP3 PUSH2 0xE67 JUMP JUMPDEST SWAP2 POP POP PUSH1 0x20 DUP4 ADD MLOAD DUP5 DUP3 SUB PUSH1 0x20 DUP7 ADD MSTORE PUSH2 0xEE6 DUP3 DUP3 PUSH2 0xE67 JUMP JUMPDEST SWAP2 POP POP PUSH1 0x40 DUP4 ADD MLOAD PUSH2 0xEFB PUSH1 0x40 DUP7 ADD DUP3 PUSH2 0xEA0 JUMP JUMPDEST POP PUSH1 0x60 DUP4 ADD MLOAD DUP5 DUP3 SUB PUSH1 0x60 DUP7 ADD MSTORE PUSH2 0xF13 DUP3 DUP3 PUSH2 0xE67 JUMP JUMPDEST SWAP2 POP POP PUSH1 0x80 DUP4 ADD MLOAD DUP5 DUP3 SUB PUSH1 0x80 DUP7 ADD MSTORE PUSH2 0xF2D DUP3 DUP3 PUSH2 0xE67 JUMP JUMPDEST SWAP2 POP POP DUP1 SWAP2 POP POP SWAP3 SWAP2 POP POP JUMP JUMPDEST PUSH1 0x0 PUSH1 0x40 DUP4 ADD PUSH1 0x0 DUP4 ADD MLOAD PUSH2 0xF52 PUSH1 0x0 DUP7 ADD DUP3 PUSH2 0xE12 JUMP JUMPDEST POP PUSH1 0x20 DUP4 ADD MLOAD DUP5 DUP3 SUB PUSH1 0x20 DUP7 ADD MSTORE PUSH2 0xF6A DUP3 DUP3 PUSH2 0xEAF JUMP JUMPDEST SWAP2 POP POP DUP1 SWAP2 POP POP SWAP3 SWAP2 POP POP JUMP JUMPDEST PUSH1 0x0 PUSH1 0x20 DUP3 ADD SWAP1 POP DUP2 DUP2 SUB PUSH1 0x0 DUP4 ADD MSTORE PUSH2 0xF91 DUP2 DUP5 PUSH2 0xF3A JUMP JUMPDEST SWAP1 POP SWAP3 SWAP2 POP POP JUMP JUMPDEST PUSH1 0x0 PUSH1 0x20 DUP3 DUP5 SUB SLT ISZERO PUSH2 0xFAF JUMPI PUSH2 0xFAE PUSH2 0xA3A JUMP JUMPDEST JUMPDEST PUSH1 0x0 PUSH2 0xFBD DUP5 DUP3 DUP6 ADD PUSH2 0xBDD JUMP JUMPDEST SWAP2 POP POP SWAP3 SWAP2 POP POP JUMP JUMPDEST PUSH1 0x0 PUSH1 0xA0 DUP4 ADD PUSH1 0x0 DUP4 ADD MLOAD DUP5 DUP3 SUB PUSH1 0x0 DUP7 ADD MSTORE PUSH2 0xFE3 DUP3 DUP3 PUSH2 0xE67 JUMP JUMPDEST SWAP2 POP POP PUSH1 0x20 DUP4 ADD MLOAD DUP5 DUP3 SUB PUSH1 0x20 DUP7 ADD MSTORE PUSH2 0xFFD DUP3 DUP3 PUSH2 0xE67 JUMP JUMPDEST SWAP2 POP POP PUSH1 0x40 DUP4 ADD MLOAD PUSH2 0x1012 PUSH1 0x40 DUP7 ADD DUP3 PUSH2 0xEA0 JUMP JUMPDEST POP PUSH1 0x60 DUP4 ADD MLOAD DUP5 DUP3 SUB PUSH1 0x60 DUP7 ADD MSTORE PUSH2 0x102A DUP3 DUP3 PUSH2 0xE67 JUMP JUMPDEST SWAP2 POP POP PUSH1 0x80 DUP4 ADD MLOAD DUP5 DUP3 SUB PUSH1 0x80 DUP7 ADD MSTORE PUSH2 0x1044 DUP3 DUP3 PUSH2 0xE67 JUMP JUMPDEST SWAP2 POP POP DUP1 SWAP2 POP POP SWAP3 SWAP2 POP POP JUMP JUMPDEST PUSH1 0x0 PUSH1 0x20 DUP3 ADD SWAP1 POP DUP2 DUP2 SUB PUSH1 0x0 DUP4 ADD MSTORE PUSH2 0x106B DUP2 DUP5 PUSH2 0xFC6 JUMP JUMPDEST SWAP1 POP SWAP3 SWAP2 POP POP JUMP JUMPDEST PUSH2 0x107C DUP2 PUSH2 0xD37 JUMP JUMPDEST DUP2 EQ PUSH2 0x1087 JUMPI PUSH1 0x0 DUP1 REVERT JUMPDEST POP JUMP JUMPDEST PUSH1 0x0 DUP2 MLOAD SWAP1 POP PUSH2 0x1099 DUP2 PUSH2 0x1073 JUMP JUMPDEST SWAP3 SWAP2 POP POP JUMP JUMPDEST PUSH1 0x0 PUSH1 0x20 DUP3 DUP5 SUB SLT ISZERO PUSH2 0x10B5 JUMPI PUSH2 0x10B4 PUSH2 0xA3A JUMP JUMPDEST JUMPDEST PUSH1 0x0 PUSH2 0x10C3 DUP5 DUP3 DUP6 ADD PUSH2 0x108A JUMP JUMPDEST SWAP2 POP POP SWAP3 SWAP2 POP POP JUMP JUMPDEST PUSH1 0x0 DUP2 SWAP1 POP SWAP3 SWAP2 POP POP JUMP JUMPDEST PUSH1 0x0 PUSH2 0x10E2 DUP3 PUSH2 0xE21 JUMP JUMPDEST PUSH2 0x10EC DUP2 DUP6 PUSH2 0x10CC JUMP JUMPDEST SWAP4 POP PUSH2 0x10FC DUP2 DUP6 PUSH1 0x20 DUP7 ADD PUSH2 0xE3D JUMP JUMPDEST DUP1 DUP5 ADD SWAP2 POP POP SWAP3 SWAP2 POP POP JUMP JUMPDEST PUSH1 0x0 PUSH2 0x1114 DUP3 DUP5 PUSH2 0x10D7 JUMP JUMPDEST SWAP2 POP DUP2 SWAP1 POP SWAP3 SWAP2 POP POP JUMP JUMPDEST PUSH32 0x4E487B7100000000000000000000000000000000000000000000000000000000 PUSH1 0x0 MSTORE PUSH1 0x22 PUSH1 0x4 MSTORE PUSH1 0x24 PUSH1 0x0 REVERT JUMPDEST PUSH1 0x0 PUSH1 0x2 DUP3 DIV SWAP1 POP PUSH1 0x1 DUP3 AND DUP1 PUSH2 0x1166 JUMPI PUSH1 0x7F DUP3 AND SWAP2 POP JUMPDEST PUSH1 0x20 DUP3 LT DUP2 SUB PUSH2 0x1179 JUMPI PUSH2 0x1178 PUSH2 0x111F JUMP JUMPDEST JUMPDEST POP SWAP2 SWAP1 POP JUMP JUMPDEST PUSH1 0x0 DUP2 SWAP1 POP DUP2 PUSH1 0x0 MSTORE PUSH1 0x20 PUSH1 0x0 KECCAK256 SWAP1 POP SWAP2 SWAP1 POP JUMP JUMPDEST PUSH1 0x0 PUSH1 0x20 PUSH1 0x1F DUP4 ADD DIV SWAP1 POP SWAP2 SWAP1 POP JUMP JUMPDEST PUSH1 0x0 DUP3 DUP3 SHL SWAP1 POP SWAP3 SWAP2 POP POP JUMP JUMPDEST PUSH1 0x0 PUSH1 0x8 DUP4 MUL PUSH2 0x11E1 PUSH32 0xFFFFFFFFFFFFFFFFFFFFFFFFFFFFFFFFFFFFFFFFFFFFFFFFFFFFFFFFFFFFFFFF DUP3 PUSH2 0x11A4 JUMP JUMPDEST PUSH2 0x11EB DUP7 DUP4 PUSH2 0x11A4 JUMP JUMPDEST SWAP6 POP DUP1 NOT DUP5 AND SWAP4 POP DUP1 DUP7 AND DUP5 OR SWAP3 POP POP POP SWAP4 SWAP3 POP POP POP JUMP JUMPDEST PUSH1 0x0 DUP2 SWAP1 POP SWAP2 SWAP1 POP JUMP JUMPDEST PUSH1 0x0 DUP2 SWAP1 POP SWAP2 SWAP1 POP JUMP JUMPDEST PUSH1 0x0 PUSH2 0x1232 PUSH2 0x122D PUSH2 0x1228 DUP5 PUSH2 0x1203 JUMP JUMPDEST PUSH2 0x120D JUMP JUMPDEST PUSH2 0x1203 JUMP JUMPDEST SWAP1 POP SWAP2 SWAP1 POP JUMP JUMPDEST PUSH1 0x0 DUP2 SWAP1 POP SWAP2 SWAP1 POP JUMP JUMPDEST PUSH2 0x124C DUP4 PUSH2 0x1217 JUMP JUMPDEST PUSH2 0x1260 PUSH2 0x1258 DUP3 PUSH2 0x1239 JUMP JUMPDEST DUP5 DUP5 SLOAD PUSH2 0x11B1 JUMP JUMPDEST DUP3 SSTORE POP POP POP POP JUMP JUMPDEST PUSH1 0x0 SWAP1 JUMP JUMPDEST PUSH2 0x1275 PUSH2 0x1268 JUMP JUMPDEST PUSH2 0x1280 DUP2 DUP5 DUP5 PUSH2 0x1243 JUMP JUMPDEST POP POP POP JUMP JUMPDEST JUMPDEST DUP2 DUP2 LT ISZERO PUSH2 0x12A4 JUMPI PUSH2 0x1299 PUSH1 0x0 DUP3 PUSH2 0x126D JUMP JUMPDEST PUSH1 0x1 DUP2 ADD SWAP1 POP PUSH2 0x1286 JUMP JUMPDEST POP POP JUMP JUMPDEST PUSH1 0x1F DUP3 GT ISZERO PUSH2 0x12E9 JUMPI PUSH2 0x12BA DUP2 PUSH2 0x117F JUMP JUMPDEST PUSH2 0x12C3 DUP5 PUSH2 0x1194 JUMP JUMPDEST DUP2 ADD PUSH1 0x20 DUP6 LT ISZERO PUSH2 0x12D2 JUMPI DUP2 SWAP1 POP JUMPDEST PUSH2 0x12E6 PUSH2 0x12DE DUP6 PUSH2 0x1194 JUMP JUMPDEST DUP4 ADD DUP3 PUSH2 0x1285 JUMP JUMPDEST POP POP JUMPDEST POP POP POP JUMP JUMPDEST PUSH1 0x0 DUP3 DUP3 SHR SWAP1 POP SWAP3 SWAP2 POP POP JUMP JUMPDEST PUSH1 0x0 PUSH2 0x130C PUSH1 0x0 NOT DUP5 PUSH1 0x8 MUL PUSH2 0x12EE JUMP JUMPDEST NOT DUP1 DUP4 AND SWAP2 POP POP SWAP3 SWAP2 POP POP JUMP JUMPDEST PUSH1 0x0 PUSH2 0x1325 DUP4 DUP4 PUSH2 0x12FB JUMP JUMPDEST SWAP2 POP DUP3 PUSH1 0x2 MUL DUP3 OR SWAP1 POP SWAP3 SWAP2 POP POP JUMP JUMPDEST PUSH2 0x133E DUP3 PUSH2 0xE21 JUMP JUMPDEST PUSH8 0xFFFFFFFFFFFFFFFF DUP2 GT ISZERO PUSH2 0x1357 JUMPI PUSH2 0x1356 PUSH2 0xA5A JUMP JUMPDEST JUMPDEST PUSH2 0x1361 DUP3 SLOAD PUSH2 0x114E JUMP JUMPDEST PUSH2 0x136C DUP3 DUP3 DUP6 PUSH2 0x12A8 JUMP JUMPDEST PUSH1 0x0 PUSH1 0x20 SWAP1 POP PUSH1 0x1F DUP4 GT PUSH1 0x1 DUP2 EQ PUSH2 0x139F JUMPI PUSH1 0x0 DUP5 ISZERO PUSH2 0x138D JUMPI DUP3 DUP8 ADD MLOAD SWAP1 POP JUMPDEST PUSH2 0x1397 DUP6 DUP3 PUSH2 0x1319 JUMP JUMPDEST DUP7 SSTORE POP PUSH2 0x13FF JUMP JUMPDEST PUSH1 0x1F NOT DUP5 AND PUSH2 0x13AD DUP7 PUSH2 0x117F JUMP JUMPDEST PUSH1 0x0 JUMPDEST DUP3 DUP2 LT ISZERO PUSH2 0x13D5 JUMPI DUP5 DUP10 ADD MLOAD DUP3 SSTORE PUSH1 0x1 DUP3 ADD SWAP2 POP PUSH1 0x20 DUP6 ADD SWAP5 POP PUSH1 0x20 DUP2 ADD SWAP1 POP PUSH2 0x13B0 JUMP JUMPDEST DUP7 DUP4 LT ISZERO PUSH2 0x13F2 JUMPI DUP5 DUP10 ADD MLOAD PUSH2 0x13EE PUSH1 0x1F DUP10 AND DUP3 PUSH2 0x12FB JUMP JUMPDEST DUP4 SSTORE POP JUMPDEST PUSH1 0x1 PUSH1 0x2 DUP9 MUL ADD DUP9 SSTORE POP POP POP JUMPDEST POP POP POP POP POP POP JUMP INVALID LOG2 PUSH5 0x6970667358 0x22 SLT KECCAK256 0xA9 0xF7 DUP7 0xF8 MULMOD DUP3 ADD GASLIMIT 0xE5 0xDA 0xC6 0x2E 0x2E PUSH26 0x5D0DC71037A37D4C827A606EB8C186833BAD64736F6C63430008 SGT STOP CALLER "},"methodIdentifiers":{"addFile((string,string,address,string,string))":"9aa7f418","canAddFile((string,string,address,string,string))":"1429ea04","fileExists(string)":"9bccd6ad","getFileByIpfsCID(string)":"9f5937f8","setAccessControlAddress(address)":"e8d56b8b","userIsFileOwner(address,string)":"52a9baef"}}}}}