{"contracts/AccessControl.sol":{"AccessControl":{"abi":[{"inputs":[{"internalType":"address","name":"fileRegisterContract","type":"address"}],"stateMutability":"nonpayable","type":"constructor"},{"inputs":[{"components":[{"internalType":"address","name":"account","type":"address"},{"internalType":"string","name":"userName","type":"string"},{"internalType":"string","name":"publicKey","type":"string"},{"internalType":"string","name":"privateKey","type":"string"}],"internalType":"struct UserRegister.User","name":"user","type":"tuple"},{"components":[{"internalType":"string","name":"ipfsCID","type":"string"},{"internalType":"string","name":"fileName","type":"string"},{"internalType":"address","name":"owner","type":"address"},{"internalType":"string","name":"fileType","type":"string"},{"internalType":"string","name":"iv","type":"string"}],"internalType":"struct FileRegister.File","name":"file","type":"tuple"},{"internalType":"string","name":"encSymmetricKey","type":"string"},{"internalType":"string[]","name":"permissions","type":"string[]"}],"name":"addUserHasFile","outputs":[],"stateMutability":"nonpayable","type":"function"},{"inputs":[{"components":[{"internalType":"address","name":"account","type":"address"},{"internalType":"string","name":"userName","type":"string"},{"internalType":"string","name":"publicKey","type":"string"},{"internalType":"string","name":"privateKey","type":"string"}],"internalType":"struct UserRegister.User","name":"user","type":"tuple"},{"components":[{"internalType":"string","name":"ipfsCID","type":"string"},{"internalType":"string","name":"fileName","type":"string"},{"internalType":"address","name":"owner","type":"address"},{"internalType":"string","name":"fileType","type":"string"},{"internalType":"string","name":"iv","type":"string"}],"internalType":"struct FileRegister.File","name":"file","type":"tuple"}],"name":"getEncSymmetricKeyFileUser","outputs":[{"components":[{"internalType":"bool","name":"success","type":"bool"},{"internalType":"string","name":"encSymmetricKey","type":"string"}],"internalType":"struct AccessControl.ResultActionString","name":"","type":"tuple"}],"stateMutability":"view","type":"function"},{"inputs":[{"components":[{"internalType":"address","name":"account","type":"address"},{"internalType":"string","name":"userName","type":"string"},{"internalType":"string","name":"publicKey","type":"string"},{"internalType":"string","name":"privateKey","type":"string"}],"internalType":"struct UserRegister.User","name":"user","type":"tuple"},{"components":[{"internalType":"string","name":"ipfsCID","type":"string"},{"internalType":"string","name":"fileName","type":"string"},{"internalType":"address","name":"owner","type":"address"},{"internalType":"string","name":"fileType","type":"string"},{"internalType":"string","name":"iv","type":"string"}],"internalType":"struct FileRegister.File","name":"file","type":"tuple"}],"name":"getPermissionsOverFile","outputs":[{"components":[{"internalType":"bool","name":"success","type":"bool"},{"internalType":"string[]","name":"permissions","type":"string[]"}],"internalType":"struct AccessControl.ResultActionStringArray","name":"","type":"tuple"}],"stateMutability":"view","type":"function"},{"inputs":[{"internalType":"address","name":"account","type":"address"}],"name":"getUserFiles","outputs":[{"components":[{"internalType":"bool","name":"success","type":"bool"},{"components":[{"internalType":"string","name":"ipfsCID","type":"string"},{"internalType":"string","name":"fileName","type":"string"},{"internalType":"address","name":"owner","type":"address"},{"internalType":"string","name":"fileType","type":"string"},{"internalType":"string","name":"iv","type":"string"}],"internalType":"struct FileRegister.File[]","name":"files","type":"tuple[]"}],"internalType":"struct AccessControl.ResultAction","name":"","type":"tuple"}],"stateMutability":"view","type":"function"},{"inputs":[{"internalType":"address","name":"accountInput","type":"address"},{"internalType":"address","name":"accountList","type":"address"},{"internalType":"string","name":"ipfsCIDInput","type":"string"},{"internalType":"string","name":"ipfsCIDList","type":"string"}],"name":"isKeyEqual","outputs":[{"internalType":"bool","name":"","type":"bool"}],"stateMutability":"pure","type":"function"},{"inputs":[{"components":[{"internalType":"address","name":"account","type":"address"},{"internalType":"string","name":"userName","type":"string"},{"internalType":"string","name":"publicKey","type":"string"},{"internalType":"string","name":"privateKey","type":"string"}],"internalType":"struct UserRegister.User","name":"user","type":"tuple"},{"components":[{"internalType":"string","name":"ipfsCID","type":"string"},{"internalType":"string","name":"fileName","type":"string"},{"internalType":"address","name":"owner","type":"address"},{"internalType":"string","name":"fileType","type":"string"},{"internalType":"string","name":"iv","type":"string"}],"internalType":"struct FileRegister.File","name":"file","type":"tuple"},{"internalType":"string","name":"encSymmetricKey","type":"string"},{"internalType":"string[]","name":"permissions","type":"string[]"}],"name":"shareFile","outputs":[],"stateMutability":"nonpayable","type":"function"},{"inputs":[{"components":[{"internalType":"address","name":"account","type":"address"},{"internalType":"string","name":"userName","type":"string"},{"internalType":"string","name":"publicKey","type":"string"},{"internalType":"string","name":"privateKey","type":"string"}],"internalType":"struct UserRegister.User","name":"user","type":"tuple"},{"components":[{"internalType":"string","name":"ipfsCID","type":"string"},{"internalType":"string","name":"fileName","type":"string"},{"internalType":"address","name":"owner","type":"address"},{"internalType":"string","name":"fileType","type":"string"},{"internalType":"string","name":"iv","type":"string"}],"internalType":"struct FileRegister.File","name":"file","type":"tuple"},{"internalType":"string[]","name":"permissions","type":"string[]"}],"name":"updateUserFilePermissions","outputs":[],"stateMutability":"nonpayable","type":"function"},{"inputs":[{"components":[{"internalType":"address","name":"account","type":"address"},{"internalType":"string","name":"userName","type":"string"},{"internalType":"string","name":"publicKey","type":"string"},{"internalType":"string","name":"privateKey","type":"string"}],"internalType":"struct UserRegister.User","name":"user","type":"tuple"},{"components":[{"internalType":"string","name":"ipfsCID","type":"string"},{"internalType":"string","name":"fileName","type":"string"},{"internalType":"address","name":"owner","type":"address"},{"internalType":"string","name":"fileType","type":"string"},{"internalType":"string","name":"iv","type":"string"}],"internalType":"struct FileRegister.File","name":"file","type":"tuple"},{"internalType":"string","name":"encSymmetricKey","type":"string"}],"name":"uploadFile","outputs":[],"stateMutability":"nonpayable","type":"function"},{"inputs":[{"components":[{"internalType":"address","name":"account","type":"address"},{"internalType":"string","name":"userName","type":"string"},{"internalType":"string","name":"publicKey","type":"string"},{"internalType":"string","name":"privateKey","type":"string"}],"internalType":"struct UserRegister.User","name":"user","type":"tuple"},{"components":[{"internalType":"string","name":"ipfsCID","type":"string"},{"internalType":"string","name":"fileName","type":"string"},{"internalType":"address","name":"owner","type":"address"},{"internalType":"string","name":"fileType","type":"string"},{"internalType":"string","name":"iv","type":"string"}],"internalType":"struct FileRegister.File","name":"file","type":"tuple"}],"name":"userAssociatedWithFile","outputs":[{"internalType":"bool","name":"","type":"bool"}],"stateMutability":"view","type":"function"}],"evm":{"bytecode":{"linkReferences":{},"object":"60806040523480156200001157600080fd5b5060405162002660380380620026608339818101604052810190620000379190620000e9565b80600160006101000a81548173ffffffffffffffffffffffffffffffffffffffff021916908373ffffffffffffffffffffffffffffffffffffffff160217905550506200011b565b600080fd5b600073ffffffffffffffffffffffffffffffffffffffff82169050919050565b6000620000b18262000084565b9050919050565b620000c381620000a4565b8114620000cf57600080fd5b50565b600081519050620000e381620000b8565b92915050565b6000602082840312156200010257620001016200007f565b5b60006200011284828501620000d2565b91505092915050565b612535806200012b6000396000f3fe608060405234801561001057600080fd5b50600436106100935760003560e01c80635d02eece116100665780635d02eece146101445780639468a12e146101745780639e93635f14610190578063ad4d2bb2146101ac578063de6b9f7d146101dc57610093565b80631fc37922146100985780633751d246146100c8578063533f2134146100e45780635c99c71b14610114575b600080fd5b6100b260048036038101906100ad919061123d565b6101f8565b6040516100bf91906114ae565b60405180910390f35b6100e260048036038101906100dd91906118bd565b6104d7565b005b6100fe60048036038101906100f99190611994565b6105df565b60405161010b9190611b0b565b60405180910390f35b61012e60048036038101906101299190611b2d565b610899565b60405161013b9190611bdb565b60405180910390f35b61015e60048036038101906101599190611994565b61092b565b60405161016b9190611c33565b60405180910390f35b61018e600480360381019061018991906118bd565b610b5f565b005b6101aa60048036038101906101a59190611c55565b610b8d565b005b6101c660048036038101906101c19190611994565b610d02565b6040516101d39190611bdb565b60405180910390f35b6101f660048036038101906101f19190611cfc565b610e4b565b005b610200611058565b6000808054905067ffffffffffffffff8111156102205761021f6114d5565b5b60405190808252806020026020018201604052801561025957816020015b610246611074565b81526020019060019003908161023e5790505b5090506000805b600080549050811015610488578473ffffffffffffffffffffffffffffffffffffffff166000828154811061029857610297611da3565b5b906000526020600020906004020160000160009054906101000a900473ffffffffffffffffffffffffffffffffffffffff1673ffffffffffffffffffffffffffffffffffffffff16036104755760008082815481106102fa576102f9611da3565b5b9060005260206000209060040201600101805461031690611e01565b80601f016020809104026020016040519081016040528092919081815260200182805461034290611e01565b801561038f5780601f106103645761010080835404028352916020019161038f565b820191906000526020600020905b81548152906001019060200180831161037257829003601f168201915b505050505090506000600160009054906101000a900473ffffffffffffffffffffffffffffffffffffffff1673ffffffffffffffffffffffffffffffffffffffff16639f5937f8836040518263ffffffff1660e01b81526004016103f39190611e7c565b600060405180830381865afa158015610410573d6000803e3d6000fd5b505050506040513d6000823e3d601f19601f8201168201806040525081019061043991906120b7565b90506000816020015190508086868151811061045857610457611da3565b5b6020026020010181905250848061046e90612139565b9550505050505b808061048090612139565b915050610260565b50808252600081146104b557604051806040016040528060011515815260200183815250925050506104d2565b604051806040016040528060001515815260200183815250925050505b919050565b60006040518060800160405280866000015173ffffffffffffffffffffffffffffffffffffffff16815260200185600001518152602001848152602001838152509050600081908060018154018082558091505060019003906000526020600020906004020160009091909190915060008201518160000160006101000a81548173ffffffffffffffffffffffffffffffffffffffff021916908373ffffffffffffffffffffffffffffffffffffffff16021790555060208201518160010190816105a2919061232d565b5060408201518160020190816105b8919061232d565b5060608201518160030190805190602001906105d59291906110b9565b5050505050505050565b6105e7611112565b60005b600080549050811015610829576106fd84600001516000838154811061061357610612611da3565b5b906000526020600020906004020160000160009054906101000a900473ffffffffffffffffffffffffffffffffffffffff1685600001516000858154811061065e5761065d611da3565b5b9060005260206000209060040201600101805461067a90611e01565b80601f01602080910402602001604051908101604052809291908181526020018280546106a690611e01565b80156106f35780601f106106c8576101008083540402835291602001916106f3565b820191906000526020600020905b8154815290600101906020018083116106d657829003601f168201915b5050505050610899565b156108165760405180604001604052806001151581526020016000838154811061072a57610729611da3565b5b9060005260206000209060040201600301805480602002602001604051908101604052809291908181526020016000905b8282101561080757838290600052602060002001805461077a90611e01565b80601f01602080910402602001604051908101604052809291908181526020018280546107a690611e01565b80156107f35780601f106107c8576101008083540402835291602001916107f3565b820191906000526020600020905b8154815290600101906020018083116107d657829003601f168201915b50505050508152602001906001019061075b565b50505050815250915050610893565b808061082190612139565b9150506105ea565b506040518060400160405280600015158152602001600067ffffffffffffffff811115610859576108586114d5565b5b60405190808252806020026020018201604052801561088c57816020015b60608152602001906001900390816108775790505b5081525090505b92915050565b60008473ffffffffffffffffffffffffffffffffffffffff168473ffffffffffffffffffffffffffffffffffffffff161480156109215750826040516020016108e2919061243b565b6040516020818303038152906040528051906020012082604051602001610909919061243b565b60405160208183030381529060405280519060200120145b9050949350505050565b61093361112e565b60005b600080549050811015610b2e57610a4984600001516000838154811061095f5761095e611da3565b5b906000526020600020906004020160000160009054906101000a900473ffffffffffffffffffffffffffffffffffffffff168560000151600085815481106109aa576109a9611da3565b5b906000526020600020906004020160010180546109c690611e01565b80601f01602080910402602001604051908101604052809291908181526020018280546109f290611e01565b8015610a3f5780601f10610a1457610100808354040283529160200191610a3f565b820191906000526020600020905b815481529060010190602001808311610a2257829003601f168201915b5050505050610899565b15610b1b57604051806040016040528060011515815260200160008381548110610a7657610a75611da3565b5b90600052602060002090600402016002018054610a9290611e01565b80601f0160208091040260200160405190810160405280929190818152602001828054610abe90611e01565b8015610b0b5780601f10610ae057610100808354040283529160200191610b0b565b820191906000526020600020905b815481529060010190602001808311610aee57829003601f168201915b5050505050815250915050610b59565b8080610b2690612139565b915050610936565b5060405180604001604052806000151581526020016040518060200160405280600081525081525090505b92915050565b6000610b6b8585610d02565b90508015610b795750610b87565b610b85858585856104d7565b505b50505050565b60005b600080549050811015610cfb57610ca3846000015160008381548110610bb957610bb8611da3565b5b906000526020600020906004020160000160009054906101000a900473ffffffffffffffffffffffffffffffffffffffff16856000015160008581548110610c0457610c03611da3565b5b90600052602060002090600402016001018054610c2090611e01565b80601f0160208091040260200160405190810160405280929190818152602001828054610c4c90611e01565b8015610c995780601f10610c6e57610100808354040283529160200191610c99565b820191906000526020600020905b815481529060010190602001808311610c7c57829003601f168201915b5050505050610899565b15610ce8578160008281548110610cbd57610cbc611da3565b5b90600052602060002090600402016003019080519060200190610ce19291906110b9565b5050610cfd565b8080610cf390612139565b915050610b90565b505b505050565b600080600090505b600080549050811015610e3f57610e1d846000015160008381548110610d3357610d32611da3565b5b906000526020600020906004020160000160009054906101000a900473ffffffffffffffffffffffffffffffffffffffff16856000015160008581548110610d7e57610d7d611da3565b5b90600052602060002090600402016001018054610d9a90611e01565b80601f0160208091040260200160405190810160405280929190818152602001828054610dc690611e01565b8015610e135780601f10610de857610100808354040283529160200191610e13565b820191906000526020600020905b815481529060010190602001808311610df657829003601f168201915b5050505050610899565b15610e2c576001915050610e45565b8080610e3790612139565b915050610d0a565b50600090505b92915050565b6000610e578484610d02565b90508015610e655750611053565b6000600367ffffffffffffffff811115610e8257610e816114d5565b5b604051908082528060200260200182016040528015610eb557816020015b6060815260200190600190039081610ea05790505b5090506040518060400160405280600881526020017f646f776e6c6f616400000000000000000000000000000000000000000000000081525081600081518110610f0257610f01611da3565b5b60200260200101819052506040518060400160405280600681526020017f64656c657465000000000000000000000000000000000000000000000000000081525081600181518110610f5757610f56611da3565b5b60200260200101819052506040518060400160405280600581526020017f736861726500000000000000000000000000000000000000000000000000000081525081600281518110610fac57610fab611da3565b5b6020026020010181905250610fc3858585846104d7565b600160009054906101000a900473ffffffffffffffffffffffffffffffffffffffff1673ffffffffffffffffffffffffffffffffffffffff16639aa7f418856040518263ffffffff1660e01b815260040161101e91906124dd565b600060405180830381600087803b15801561103857600080fd5b505af115801561104c573d6000803e3d6000fd5b5050505050505b505050565b6040518060400160405280600015158152602001606081525090565b6040518060a001604052806060815260200160608152602001600073ffffffffffffffffffffffffffffffffffffffff16815260200160608152602001606081525090565b828054828255906000526020600020908101928215611101579160200282015b828111156111005782518290816110f0919061232d565b50916020019190600101906110d9565b5b50905061110e919061114a565b5090565b6040518060400160405280600015158152602001606081525090565b6040518060400160405280600015158152602001606081525090565b5b8082111561116a5760008181611161919061116e565b5060010161114b565b5090565b50805461117a90611e01565b6000825580601f1061118c57506111ab565b601f0160209004906000526020600020908101906111aa91906111ae565b5b50565b5b808211156111c75760008160009055506001016111af565b5090565b6000604051905090565b600080fd5b600080fd5b600073ffffffffffffffffffffffffffffffffffffffff82169050919050565b600061120a826111df565b9050919050565b61121a816111ff565b811461122557600080fd5b50565b60008135905061123781611211565b92915050565b600060208284031215611253576112526111d5565b5b600061126184828501611228565b91505092915050565b60008115159050919050565b61127f8161126a565b82525050565b600081519050919050565b600082825260208201905092915050565b6000819050602082019050919050565b600081519050919050565b600082825260208201905092915050565b60005b838110156112eb5780820151818401526020810190506112d0565b60008484015250505050565b6000601f19601f8301169050919050565b6000611313826112b1565b61131d81856112bc565b935061132d8185602086016112cd565b611336816112f7565b840191505092915050565b61134a816111ff565b82525050565b600060a083016000830151848203600086015261136d8282611308565b915050602083015184820360208601526113878282611308565b915050604083015161139c6040860182611341565b50606083015184820360608601526113b48282611308565b915050608083015184820360808601526113ce8282611308565b9150508091505092915050565b60006113e78383611350565b905092915050565b6000602082019050919050565b600061140782611285565b6114118185611290565b935083602082028501611423856112a1565b8060005b8581101561145f578484038952815161144085826113db565b945061144b836113ef565b925060208a01995050600181019050611427565b50829750879550505050505092915050565b60006040830160008301516114896000860182611276565b50602083015184820360208601526114a182826113fc565b9150508091505092915050565b600060208201905081810360008301526114c88184611471565b905092915050565b600080fd5b7f4e487b7100000000000000000000000000000000000000000000000000000000600052604160045260246000fd5b61150d826112f7565b810181811067ffffffffffffffff8211171561152c5761152b6114d5565b5b80604052505050565b600061153f6111cb565b905061154b8282611504565b919050565b600080fd5b600080fd5b600080fd5b600067ffffffffffffffff82111561157a576115796114d5565b5b611583826112f7565b9050602081019050919050565b82818337600083830152505050565b60006115b26115ad8461155f565b611535565b9050828152602081018484840111156115ce576115cd61155a565b5b6115d9848285611590565b509392505050565b600082601f8301126115f6576115f5611555565b5b813561160684826020860161159f565b91505092915050565b600060808284031215611625576116246114d0565b5b61162f6080611535565b9050600061163f84828501611228565b600083015250602082013567ffffffffffffffff81111561166357611662611550565b5b61166f848285016115e1565b602083015250604082013567ffffffffffffffff81111561169357611692611550565b5b61169f848285016115e1565b604083015250606082013567ffffffffffffffff8111156116c3576116c2611550565b5b6116cf848285016115e1565b60608301525092915050565b600060a082840312156116f1576116f06114d0565b5b6116fb60a0611535565b9050600082013567ffffffffffffffff81111561171b5761171a611550565b5b611727848285016115e1565b600083015250602082013567ffffffffffffffff81111561174b5761174a611550565b5b611757848285016115e1565b602083015250604061176b84828501611228565b604083015250606082013567ffffffffffffffff81111561178f5761178e611550565b5b61179b848285016115e1565b606083015250608082013567ffffffffffffffff8111156117bf576117be611550565b5b6117cb848285016115e1565b60808301525092915050565b600067ffffffffffffffff8211156117f2576117f16114d5565b5b602082029050602081019050919050565b600080fd5b600061181b611816846117d7565b611535565b9050808382526020820190506020840283018581111561183e5761183d611803565b5b835b8181101561188557803567ffffffffffffffff81111561186357611862611555565b5b80860161187089826115e1565b85526020850194505050602081019050611840565b5050509392505050565b600082601f8301126118a4576118a3611555565b5b81356118b4848260208601611808565b91505092915050565b600080600080608085870312156118d7576118d66111d5565b5b600085013567ffffffffffffffff8111156118f5576118f46111da565b5b6119018782880161160f565b945050602085013567ffffffffffffffff811115611922576119216111da565b5b61192e878288016116db565b935050604085013567ffffffffffffffff81111561194f5761194e6111da565b5b61195b878288016115e1565b925050606085013567ffffffffffffffff81111561197c5761197b6111da565b5b6119888782880161188f565b91505092959194509250565b600080604083850312156119ab576119aa6111d5565b5b600083013567ffffffffffffffff8111156119c9576119c86111da565b5b6119d58582860161160f565b925050602083013567ffffffffffffffff8111156119f6576119f56111da565b5b611a02858286016116db565b9150509250929050565b600081519050919050565b600082825260208201905092915050565b6000819050602082019050919050565b6000611a448383611308565b905092915050565b6000602082019050919050565b6000611a6482611a0c565b611a6e8185611a17565b935083602082028501611a8085611a28565b8060005b85811015611abc5784840389528151611a9d8582611a38565b9450611aa883611a4c565b925060208a01995050600181019050611a84565b50829750879550505050505092915050565b6000604083016000830151611ae66000860182611276565b5060208301518482036020860152611afe8282611a59565b9150508091505092915050565b60006020820190508181036000830152611b258184611ace565b905092915050565b60008060008060808587031215611b4757611b466111d5565b5b6000611b5587828801611228565b9450506020611b6687828801611228565b935050604085013567ffffffffffffffff811115611b8757611b866111da565b5b611b93878288016115e1565b925050606085013567ffffffffffffffff811115611bb457611bb36111da565b5b611bc0878288016115e1565b91505092959194509250565b611bd58161126a565b82525050565b6000602082019050611bf06000830184611bcc565b92915050565b6000604083016000830151611c0e6000860182611276565b5060208301518482036020860152611c268282611308565b9150508091505092915050565b60006020820190508181036000830152611c4d8184611bf6565b905092915050565b600080600060608486031215611c6e57611c6d6111d5565b5b600084013567ffffffffffffffff811115611c8c57611c8b6111da565b5b611c988682870161160f565b935050602084013567ffffffffffffffff811115611cb957611cb86111da565b5b611cc5868287016116db565b925050604084013567ffffffffffffffff811115611ce657611ce56111da565b5b611cf28682870161188f565b9150509250925092565b600080600060608486031215611d1557611d146111d5565b5b600084013567ffffffffffffffff811115611d3357611d326111da565b5b611d3f8682870161160f565b935050602084013567ffffffffffffffff811115611d6057611d5f6111da565b5b611d6c868287016116db565b925050604084013567ffffffffffffffff811115611d8d57611d8c6111da565b5b611d99868287016115e1565b9150509250925092565b7f4e487b7100000000000000000000000000000000000000000000000000000000600052603260045260246000fd5b7f4e487b7100000000000000000000000000000000000000000000000000000000600052602260045260246000fd5b60006002820490506001821680611e1957607f821691505b602082108103611e2c57611e2b611dd2565b5b50919050565b600082825260208201905092915050565b6000611e4e826112b1565b611e588185611e32565b9350611e688185602086016112cd565b611e71816112f7565b840191505092915050565b60006020820190508181036000830152611e968184611e43565b905092915050565b611ea78161126a565b8114611eb257600080fd5b50565b600081519050611ec481611e9e565b92915050565b6000611edd611ed88461155f565b611535565b905082815260208101848484011115611ef957611ef861155a565b5b611f048482856112cd565b509392505050565b600082601f830112611f2157611f20611555565b5b8151611f31848260208601611eca565b91505092915050565b600081519050611f4981611211565b92915050565b600060a08284031215611f6557611f646114d0565b5b611f6f60a0611535565b9050600082015167ffffffffffffffff811115611f8f57611f8e611550565b5b611f9b84828501611f0c565b600083015250602082015167ffffffffffffffff811115611fbf57611fbe611550565b5b611fcb84828501611f0c565b6020830152506040611fdf84828501611f3a565b604083015250606082015167ffffffffffffffff81111561200357612002611550565b5b61200f84828501611f0c565b606083015250608082015167ffffffffffffffff81111561203357612032611550565b5b61203f84828501611f0c565b60808301525092915050565b600060408284031215612061576120606114d0565b5b61206b6040611535565b9050600061207b84828501611eb5565b600083015250602082015167ffffffffffffffff81111561209f5761209e611550565b5b6120ab84828501611f4f565b60208301525092915050565b6000602082840312156120cd576120cc6111d5565b5b600082015167ffffffffffffffff8111156120eb576120ea6111da565b5b6120f78482850161204b565b91505092915050565b7f4e487b7100000000000000000000000000000000000000000000000000000000600052601160045260246000fd5b6000819050919050565b60006121448261212f565b91507fffffffffffffffffffffffffffffffffffffffffffffffffffffffffffffffff820361217657612175612100565b5b600182019050919050565b60008190508160005260206000209050919050565b60006020601f8301049050919050565b600082821b905092915050565b6000600883026121e37fffffffffffffffffffffffffffffffffffffffffffffffffffffffffffffffff826121a6565b6121ed86836121a6565b95508019841693508086168417925050509392505050565b6000819050919050565b600061222a6122256122208461212f565b612205565b61212f565b9050919050565b6000819050919050565b6122448361220f565b61225861225082612231565b8484546121b3565b825550505050565b600090565b61226d612260565b61227881848461223b565b505050565b5b8181101561229c57612291600082612265565b60018101905061227e565b5050565b601f8211156122e1576122b281612181565b6122bb84612196565b810160208510156122ca578190505b6122de6122d685612196565b83018261227d565b50505b505050565b600082821c905092915050565b6000612304600019846008026122e6565b1980831691505092915050565b600061231d83836122f3565b9150826002028217905092915050565b612336826112b1565b67ffffffffffffffff81111561234f5761234e6114d5565b5b6123598254611e01565b6123648282856122a0565b600060209050601f8311600181146123975760008415612385578287015190505b61238f8582612311565b8655506123f7565b601f1984166123a586612181565b60005b828110156123cd578489015182556001820191506020850194506020810190506123a8565b868310156123ea57848901516123e6601f8916826122f3565b8355505b6001600288020188555050505b505050505050565b600081905092915050565b6000612415826112b1565b61241f81856123ff565b935061242f8185602086016112cd565b80840191505092915050565b6000612447828461240a565b915081905092915050565b600060a083016000830151848203600086015261246f8282611308565b915050602083015184820360208601526124898282611308565b915050604083015161249e6040860182611341565b50606083015184820360608601526124b68282611308565b915050608083015184820360808601526124d08282611308565b9150508091505092915050565b600060208201905081810360008301526124f78184612452565b90509291505056fea26469706673582212203d05ac848f15316aa54ad6aa83d99eaaccb63029f2a546bb7c4c08cb5c29c83064736f6c63430008130033","opcodes":"PUSH1 0x80 PUSH1 0x40 MSTORE CALLVALUE DUP1 ISZERO PUSH3 0x11 JUMPI PUSH1 0x0 DUP1 REVERT JUMPDEST POP PUSH1 0x40 MLOAD PUSH3 0x2660 CODESIZE SUB DUP1 PUSH3 0x2660 DUP4 CODECOPY DUP2 DUP2 ADD PUSH1 0x40 MSTORE DUP2 ADD SWAP1 PUSH3 0x37 SWAP2 SWAP1 PUSH3 0xE9 JUMP JUMPDEST DUP1 PUSH1 0x1 PUSH1 0x0 PUSH2 0x100 EXP DUP2 SLOAD DUP2 PUSH20 0xFFFFFFFFFFFFFFFFFFFFFFFFFFFFFFFFFFFFFFFF MUL NOT AND SWAP1 DUP4 PUSH20 0xFFFFFFFFFFFFFFFFFFFFFFFFFFFFFFFFFFFFFFFF AND MUL OR SWAP1 SSTORE POP POP PUSH3 0x11B JUMP JUMPDEST PUSH1 0x0 DUP1 REVERT JUMPDEST PUSH1 0x0 PUSH20 0xFFFFFFFFFFFFFFFFFFFFFFFFFFFFFFFFFFFFFFFF DUP3 AND SWAP1 POP SWAP2 SWAP1 POP JUMP JUMPDEST PUSH1 0x0 PUSH3 0xB1 DUP3 PUSH3 0x84 JUMP JUMPDEST SWAP1 POP SWAP2 SWAP1 POP JUMP JUMPDEST PUSH3 0xC3 DUP2 PUSH3 0xA4 JUMP JUMPDEST DUP2 EQ PUSH3 0xCF JUMPI PUSH1 0x0 DUP1 REVERT JUMPDEST POP JUMP JUMPDEST PUSH1 0x0 DUP2 MLOAD SWAP1 POP PUSH3 0xE3 DUP2 PUSH3 0xB8 JUMP JUMPDEST SWAP3 SWAP2 POP POP JUMP JUMPDEST PUSH1 0x0 PUSH1 0x20 DUP3 DUP5 SUB SLT ISZERO PUSH3 0x102 JUMPI PUSH3 0x101 PUSH3 0x7F JUMP JUMPDEST JUMPDEST PUSH1 0x0 PUSH3 0x112 DUP5 DUP3 DUP6 ADD PUSH3 0xD2 JUMP JUMPDEST SWAP2 POP POP SWAP3 SWAP2 POP POP JUMP JUMPDEST PUSH2 0x2535 DUP1 PUSH3 0x12B PUSH1 0x0 CODECOPY PUSH1 0x0 RETURN INVALID PUSH1 0x80 PUSH1 0x40 MSTORE CALLVALUE DUP1 ISZERO PUSH2 0x10 JUMPI PUSH1 0x0 DUP1 REVERT JUMPDEST POP PUSH1 0x4 CALLDATASIZE LT PUSH2 0x93 JUMPI PUSH1 0x0 CALLDATALOAD PUSH1 0xE0 SHR DUP1 PUSH4 0x5D02EECE GT PUSH2 0x66 JUMPI DUP1 PUSH4 0x5D02EECE EQ PUSH2 0x144 JUMPI DUP1 PUSH4 0x9468A12E EQ PUSH2 0x174 JUMPI DUP1 PUSH4 0x9E93635F EQ PUSH2 0x190 JUMPI DUP1 PUSH4 0xAD4D2BB2 EQ PUSH2 0x1AC JUMPI DUP1 PUSH4 0xDE6B9F7D EQ PUSH2 0x1DC JUMPI PUSH2 0x93 JUMP JUMPDEST DUP1 PUSH4 0x1FC37922 EQ PUSH2 0x98 JUMPI DUP1 PUSH4 0x3751D246 EQ PUSH2 0xC8 JUMPI DUP1 PUSH4 0x533F2134 EQ PUSH2 0xE4 JUMPI DUP1 PUSH4 0x5C99C71B EQ PUSH2 0x114 JUMPI JUMPDEST PUSH1 0x0 DUP1 REVERT JUMPDEST PUSH2 0xB2 PUSH1 0x4 DUP1 CALLDATASIZE SUB DUP2 ADD SWAP1 PUSH2 0xAD SWAP2 SWAP1 PUSH2 0x123D JUMP JUMPDEST PUSH2 0x1F8 JUMP JUMPDEST PUSH1 0x40 MLOAD PUSH2 0xBF SWAP2 SWAP1 PUSH2 0x14AE JUMP JUMPDEST PUSH1 0x40 MLOAD DUP1 SWAP2 SUB SWAP1 RETURN JUMPDEST PUSH2 0xE2 PUSH1 0x4 DUP1 CALLDATASIZE SUB DUP2 ADD SWAP1 PUSH2 0xDD SWAP2 SWAP1 PUSH2 0x18BD JUMP JUMPDEST PUSH2 0x4D7 JUMP JUMPDEST STOP JUMPDEST PUSH2 0xFE PUSH1 0x4 DUP1 CALLDATASIZE SUB DUP2 ADD SWAP1 PUSH2 0xF9 SWAP2 SWAP1 PUSH2 0x1994 JUMP JUMPDEST PUSH2 0x5DF JUMP JUMPDEST PUSH1 0x40 MLOAD PUSH2 0x10B SWAP2 SWAP1 PUSH2 0x1B0B JUMP JUMPDEST PUSH1 0x40 MLOAD DUP1 SWAP2 SUB SWAP1 RETURN JUMPDEST PUSH2 0x12E PUSH1 0x4 DUP1 CALLDATASIZE SUB DUP2 ADD SWAP1 PUSH2 0x129 SWAP2 SWAP1 PUSH2 0x1B2D JUMP JUMPDEST PUSH2 0x899 JUMP JUMPDEST PUSH1 0x40 MLOAD PUSH2 0x13B SWAP2 SWAP1 PUSH2 0x1BDB JUMP JUMPDEST PUSH1 0x40 MLOAD DUP1 SWAP2 SUB SWAP1 RETURN JUMPDEST PUSH2 0x15E PUSH1 0x4 DUP1 CALLDATASIZE SUB DUP2 ADD SWAP1 PUSH2 0x159 SWAP2 SWAP1 PUSH2 0x1994 JUMP JUMPDEST PUSH2 0x92B JUMP JUMPDEST PUSH1 0x40 MLOAD PUSH2 0x16B SWAP2 SWAP1 PUSH2 0x1C33 JUMP JUMPDEST PUSH1 0x40 MLOAD DUP1 SWAP2 SUB SWAP1 RETURN JUMPDEST PUSH2 0x18E PUSH1 0x4 DUP1 CALLDATASIZE SUB DUP2 ADD SWAP1 PUSH2 0x189 SWAP2 SWAP1 PUSH2 0x18BD JUMP JUMPDEST PUSH2 0xB5F JUMP JUMPDEST STOP JUMPDEST PUSH2 0x1AA PUSH1 0x4 DUP1 CALLDATASIZE SUB DUP2 ADD SWAP1 PUSH2 0x1A5 SWAP2 SWAP1 PUSH2 0x1C55 JUMP JUMPDEST PUSH2 0xB8D JUMP JUMPDEST STOP JUMPDEST PUSH2 0x1C6 PUSH1 0x4 DUP1 CALLDATASIZE SUB DUP2 ADD SWAP1 PUSH2 0x1C1 SWAP2 SWAP1 PUSH2 0x1994 JUMP JUMPDEST PUSH2 0xD02 JUMP JUMPDEST PUSH1 0x40 MLOAD PUSH2 0x1D3 SWAP2 SWAP1 PUSH2 0x1BDB JUMP JUMPDEST PUSH1 0x40 MLOAD DUP1 SWAP2 SUB SWAP1 RETURN JUMPDEST PUSH2 0x1F6 PUSH1 0x4 DUP1 CALLDATASIZE SUB DUP2 ADD SWAP1 PUSH2 0x1F1 SWAP2 SWAP1 PUSH2 0x1CFC JUMP JUMPDEST PUSH2 0xE4B JUMP JUMPDEST STOP JUMPDEST PUSH2 0x200 PUSH2 0x1058 JUMP JUMPDEST PUSH1 0x0 DUP1 DUP1 SLOAD SWAP1 POP PUSH8 0xFFFFFFFFFFFFFFFF DUP2 GT ISZERO PUSH2 0x220 JUMPI PUSH2 0x21F PUSH2 0x14D5 JUMP JUMPDEST JUMPDEST PUSH1 0x40 MLOAD SWAP1 DUP1 DUP3 MSTORE DUP1 PUSH1 0x20 MUL PUSH1 0x20 ADD DUP3 ADD PUSH1 0x40 MSTORE DUP1 ISZERO PUSH2 0x259 JUMPI DUP2 PUSH1 0x20 ADD JUMPDEST PUSH2 0x246 PUSH2 0x1074 JUMP JUMPDEST DUP2 MSTORE PUSH1 0x20 ADD SWAP1 PUSH1 0x1 SWAP1 SUB SWAP1 DUP2 PUSH2 0x23E JUMPI SWAP1 POP JUMPDEST POP SWAP1 POP PUSH1 0x0 DUP1 JUMPDEST PUSH1 0x0 DUP1 SLOAD SWAP1 POP DUP2 LT ISZERO PUSH2 0x488 JUMPI DUP5 PUSH20 0xFFFFFFFFFFFFFFFFFFFFFFFFFFFFFFFFFFFFFFFF AND PUSH1 0x0 DUP3 DUP2 SLOAD DUP2 LT PUSH2 0x298 JUMPI PUSH2 0x297 PUSH2 0x1DA3 JUMP JUMPDEST JUMPDEST SWAP1 PUSH1 0x0 MSTORE PUSH1 0x20 PUSH1 0x0 KECCAK256 SWAP1 PUSH1 0x4 MUL ADD PUSH1 0x0 ADD PUSH1 0x0 SWAP1 SLOAD SWAP1 PUSH2 0x100 EXP SWAP1 DIV PUSH20 0xFFFFFFFFFFFFFFFFFFFFFFFFFFFFFFFFFFFFFFFF AND PUSH20 0xFFFFFFFFFFFFFFFFFFFFFFFFFFFFFFFFFFFFFFFF AND SUB PUSH2 0x475 JUMPI PUSH1 0x0 DUP1 DUP3 DUP2 SLOAD DUP2 LT PUSH2 0x2FA JUMPI PUSH2 0x2F9 PUSH2 0x1DA3 JUMP JUMPDEST JUMPDEST SWAP1 PUSH1 0x0 MSTORE PUSH1 0x20 PUSH1 0x0 KECCAK256 SWAP1 PUSH1 0x4 MUL ADD PUSH1 0x1 ADD DUP1 SLOAD PUSH2 0x316 SWAP1 PUSH2 0x1E01 JUMP JUMPDEST DUP1 PUSH1 0x1F ADD PUSH1 0x20 DUP1 SWAP2 DIV MUL PUSH1 0x20 ADD PUSH1 0x40 MLOAD SWAP1 DUP2 ADD PUSH1 0x40 MSTORE DUP1 SWAP3 SWAP2 SWAP1 DUP2 DUP2 MSTORE PUSH1 0x20 ADD DUP3 DUP1 SLOAD PUSH2 0x342 SWAP1 PUSH2 0x1E01 JUMP JUMPDEST DUP1 ISZERO PUSH2 0x38F JUMPI DUP1 PUSH1 0x1F LT PUSH2 0x364 JUMPI PUSH2 0x100 DUP1 DUP4 SLOAD DIV MUL DUP4 MSTORE SWAP2 PUSH1 0x20 ADD SWAP2 PUSH2 0x38F JUMP JUMPDEST DUP3 ADD SWAP2 SWAP1 PUSH1 0x0 MSTORE PUSH1 0x20 PUSH1 0x0 KECCAK256 SWAP1 JUMPDEST DUP2 SLOAD DUP2 MSTORE SWAP1 PUSH1 0x1 ADD SWAP1 PUSH1 0x20 ADD DUP1 DUP4 GT PUSH2 0x372 JUMPI DUP3 SWAP1 SUB PUSH1 0x1F AND DUP3 ADD SWAP2 JUMPDEST POP POP POP POP POP SWAP1 POP PUSH1 0x0 PUSH1 0x1 PUSH1 0x0 SWAP1 SLOAD SWAP1 PUSH2 0x100 EXP SWAP1 DIV PUSH20 0xFFFFFFFFFFFFFFFFFFFFFFFFFFFFFFFFFFFFFFFF AND PUSH20 0xFFFFFFFFFFFFFFFFFFFFFFFFFFFFFFFFFFFFFFFF AND PUSH4 0x9F5937F8 DUP4 PUSH1 0x40 MLOAD DUP3 PUSH4 0xFFFFFFFF AND PUSH1 0xE0 SHL DUP2 MSTORE PUSH1 0x4 ADD PUSH2 0x3F3 SWAP2 SWAP1 PUSH2 0x1E7C JUMP JUMPDEST PUSH1 0x0 PUSH1 0x40 MLOAD DUP1 DUP4 SUB DUP2 DUP7 GAS STATICCALL ISZERO DUP1 ISZERO PUSH2 0x410 JUMPI RETURNDATASIZE PUSH1 0x0 DUP1 RETURNDATACOPY RETURNDATASIZE PUSH1 0x0 REVERT JUMPDEST POP POP POP POP PUSH1 0x40 MLOAD RETURNDATASIZE PUSH1 0x0 DUP3 RETURNDATACOPY RETURNDATASIZE PUSH1 0x1F NOT PUSH1 0x1F DUP3 ADD AND DUP3 ADD DUP1 PUSH1 0x40 MSTORE POP DUP2 ADD SWAP1 PUSH2 0x439 SWAP2 SWAP1 PUSH2 0x20B7 JUMP JUMPDEST SWAP1 POP PUSH1 0x0 DUP2 PUSH1 0x20 ADD MLOAD SWAP1 POP DUP1 DUP7 DUP7 DUP2 MLOAD DUP2 LT PUSH2 0x458 JUMPI PUSH2 0x457 PUSH2 0x1DA3 JUMP JUMPDEST JUMPDEST PUSH1 0x20 MUL PUSH1 0x20 ADD ADD DUP2 SWAP1 MSTORE POP DUP5 DUP1 PUSH2 0x46E SWAP1 PUSH2 0x2139 JUMP JUMPDEST SWAP6 POP POP POP POP POP JUMPDEST DUP1 DUP1 PUSH2 0x480 SWAP1 PUSH2 0x2139 JUMP JUMPDEST SWAP2 POP POP PUSH2 0x260 JUMP JUMPDEST POP DUP1 DUP3 MSTORE PUSH1 0x0 DUP2 EQ PUSH2 0x4B5 JUMPI PUSH1 0x40 MLOAD DUP1 PUSH1 0x40 ADD PUSH1 0x40 MSTORE DUP1 PUSH1 0x1 ISZERO ISZERO DUP2 MSTORE PUSH1 0x20 ADD DUP4 DUP2 MSTORE POP SWAP3 POP POP POP PUSH2 0x4D2 JUMP JUMPDEST PUSH1 0x40 MLOAD DUP1 PUSH1 0x40 ADD PUSH1 0x40 MSTORE DUP1 PUSH1 0x0 ISZERO ISZERO DUP2 MSTORE PUSH1 0x20 ADD DUP4 DUP2 MSTORE POP SWAP3 POP POP POP JUMPDEST SWAP2 SWAP1 POP JUMP JUMPDEST PUSH1 0x0 PUSH1 0x40 MLOAD DUP1 PUSH1 0x80 ADD PUSH1 0x40 MSTORE DUP1 DUP7 PUSH1 0x0 ADD MLOAD PUSH20 0xFFFFFFFFFFFFFFFFFFFFFFFFFFFFFFFFFFFFFFFF AND DUP2 MSTORE PUSH1 0x20 ADD DUP6 PUSH1 0x0 ADD MLOAD DUP2 MSTORE PUSH1 0x20 ADD DUP5 DUP2 MSTORE PUSH1 0x20 ADD DUP4 DUP2 MSTORE POP SWAP1 POP PUSH1 0x0 DUP2 SWAP1 DUP1 PUSH1 0x1 DUP2 SLOAD ADD DUP1 DUP3 SSTORE DUP1 SWAP2 POP POP PUSH1 0x1 SWAP1 SUB SWAP1 PUSH1 0x0 MSTORE PUSH1 0x20 PUSH1 0x0 KECCAK256 SWAP1 PUSH1 0x4 MUL ADD PUSH1 0x0 SWAP1 SWAP2 SWAP1 SWAP2 SWAP1 SWAP2 POP PUSH1 0x0 DUP3 ADD MLOAD DUP2 PUSH1 0x0 ADD PUSH1 0x0 PUSH2 0x100 EXP DUP2 SLOAD DUP2 PUSH20 0xFFFFFFFFFFFFFFFFFFFFFFFFFFFFFFFFFFFFFFFF MUL NOT AND SWAP1 DUP4 PUSH20 0xFFFFFFFFFFFFFFFFFFFFFFFFFFFFFFFFFFFFFFFF AND MUL OR SWAP1 SSTORE POP PUSH1 0x20 DUP3 ADD MLOAD DUP2 PUSH1 0x1 ADD SWAP1 DUP2 PUSH2 0x5A2 SWAP2 SWAP1 PUSH2 0x232D JUMP JUMPDEST POP PUSH1 0x40 DUP3 ADD MLOAD DUP2 PUSH1 0x2 ADD SWAP1 DUP2 PUSH2 0x5B8 SWAP2 SWAP1 PUSH2 0x232D JUMP JUMPDEST POP PUSH1 0x60 DUP3 ADD MLOAD DUP2 PUSH1 0x3 ADD SWAP1 DUP1 MLOAD SWAP1 PUSH1 0x20 ADD SWAP1 PUSH2 0x5D5 SWAP3 SWAP2 SWAP1 PUSH2 0x10B9 JUMP JUMPDEST POP POP POP POP POP POP POP POP JUMP JUMPDEST PUSH2 0x5E7 PUSH2 0x1112 JUMP JUMPDEST PUSH1 0x0 JUMPDEST PUSH1 0x0 DUP1 SLOAD SWAP1 POP DUP2 LT ISZERO PUSH2 0x829 JUMPI PUSH2 0x6FD DUP5 PUSH1 0x0 ADD MLOAD PUSH1 0x0 DUP4 DUP2 SLOAD DUP2 LT PUSH2 0x613 JUMPI PUSH2 0x612 PUSH2 0x1DA3 JUMP JUMPDEST JUMPDEST SWAP1 PUSH1 0x0 MSTORE PUSH1 0x20 PUSH1 0x0 KECCAK256 SWAP1 PUSH1 0x4 MUL ADD PUSH1 0x0 ADD PUSH1 0x0 SWAP1 SLOAD SWAP1 PUSH2 0x100 EXP SWAP1 DIV PUSH20 0xFFFFFFFFFFFFFFFFFFFFFFFFFFFFFFFFFFFFFFFF AND DUP6 PUSH1 0x0 ADD MLOAD PUSH1 0x0 DUP6 DUP2 SLOAD DUP2 LT PUSH2 0x65E JUMPI PUSH2 0x65D PUSH2 0x1DA3 JUMP JUMPDEST JUMPDEST SWAP1 PUSH1 0x0 MSTORE PUSH1 0x20 PUSH1 0x0 KECCAK256 SWAP1 PUSH1 0x4 MUL ADD PUSH1 0x1 ADD DUP1 SLOAD PUSH2 0x67A SWAP1 PUSH2 0x1E01 JUMP JUMPDEST DUP1 PUSH1 0x1F ADD PUSH1 0x20 DUP1 SWAP2 DIV MUL PUSH1 0x20 ADD PUSH1 0x40 MLOAD SWAP1 DUP2 ADD PUSH1 0x40 MSTORE DUP1 SWAP3 SWAP2 SWAP1 DUP2 DUP2 MSTORE PUSH1 0x20 ADD DUP3 DUP1 SLOAD PUSH2 0x6A6 SWAP1 PUSH2 0x1E01 JUMP JUMPDEST DUP1 ISZERO PUSH2 0x6F3 JUMPI DUP1 PUSH1 0x1F LT PUSH2 0x6C8 JUMPI PUSH2 0x100 DUP1 DUP4 SLOAD DIV MUL DUP4 MSTORE SWAP2 PUSH1 0x20 ADD SWAP2 PUSH2 0x6F3 JUMP JUMPDEST DUP3 ADD SWAP2 SWAP1 PUSH1 0x0 MSTORE PUSH1 0x20 PUSH1 0x0 KECCAK256 SWAP1 JUMPDEST DUP2 SLOAD DUP2 MSTORE SWAP1 PUSH1 0x1 ADD SWAP1 PUSH1 0x20 ADD DUP1 DUP4 GT PUSH2 0x6D6 JUMPI DUP3 SWAP1 SUB PUSH1 0x1F AND DUP3 ADD SWAP2 JUMPDEST POP POP POP POP POP PUSH2 0x899 JUMP JUMPDEST ISZERO PUSH2 0x816 JUMPI PUSH1 0x40 MLOAD DUP1 PUSH1 0x40 ADD PUSH1 0x40 MSTORE DUP1 PUSH1 0x1 ISZERO ISZERO DUP2 MSTORE PUSH1 0x20 ADD PUSH1 0x0 DUP4 DUP2 SLOAD DUP2 LT PUSH2 0x72A JUMPI PUSH2 0x729 PUSH2 0x1DA3 JUMP JUMPDEST JUMPDEST SWAP1 PUSH1 0x0 MSTORE PUSH1 0x20 PUSH1 0x0 KECCAK256 SWAP1 PUSH1 0x4 MUL ADD PUSH1 0x3 ADD DUP1 SLOAD DUP1 PUSH1 0x20 MUL PUSH1 0x20 ADD PUSH1 0x40 MLOAD SWAP1 DUP2 ADD PUSH1 0x40 MSTORE DUP1 SWAP3 SWAP2 SWAP1 DUP2 DUP2 MSTORE PUSH1 0x20 ADD PUSH1 0x0 SWAP1 JUMPDEST DUP3 DUP3 LT ISZERO PUSH2 0x807 JUMPI DUP4 DUP3 SWAP1 PUSH1 0x0 MSTORE PUSH1 0x20 PUSH1 0x0 KECCAK256 ADD DUP1 SLOAD PUSH2 0x77A SWAP1 PUSH2 0x1E01 JUMP JUMPDEST DUP1 PUSH1 0x1F ADD PUSH1 0x20 DUP1 SWAP2 DIV MUL PUSH1 0x20 ADD PUSH1 0x40 MLOAD SWAP1 DUP2 ADD PUSH1 0x40 MSTORE DUP1 SWAP3 SWAP2 SWAP1 DUP2 DUP2 MSTORE PUSH1 0x20 ADD DUP3 DUP1 SLOAD PUSH2 0x7A6 SWAP1 PUSH2 0x1E01 JUMP JUMPDEST DUP1 ISZERO PUSH2 0x7F3 JUMPI DUP1 PUSH1 0x1F LT PUSH2 0x7C8 JUMPI PUSH2 0x100 DUP1 DUP4 SLOAD DIV MUL DUP4 MSTORE SWAP2 PUSH1 0x20 ADD SWAP2 PUSH2 0x7F3 JUMP JUMPDEST DUP3 ADD SWAP2 SWAP1 PUSH1 0x0 MSTORE PUSH1 0x20 PUSH1 0x0 KECCAK256 SWAP1 JUMPDEST DUP2 SLOAD DUP2 MSTORE SWAP1 PUSH1 0x1 ADD SWAP1 PUSH1 0x20 ADD DUP1 DUP4 GT PUSH2 0x7D6 JUMPI DUP3 SWAP1 SUB PUSH1 0x1F AND DUP3 ADD SWAP2 JUMPDEST POP POP POP POP POP DUP2 MSTORE PUSH1 0x20 ADD SWAP1 PUSH1 0x1 ADD SWAP1 PUSH2 0x75B JUMP JUMPDEST POP POP POP POP DUP2 MSTORE POP SWAP2 POP POP PUSH2 0x893 JUMP JUMPDEST DUP1 DUP1 PUSH2 0x821 SWAP1 PUSH2 0x2139 JUMP JUMPDEST SWAP2 POP POP PUSH2 0x5EA JUMP JUMPDEST POP PUSH1 0x40 MLOAD DUP1 PUSH1 0x40 ADD PUSH1 0x40 MSTORE DUP1 PUSH1 0x0 ISZERO ISZERO DUP2 MSTORE PUSH1 0x20 ADD PUSH1 0x0 PUSH8 0xFFFFFFFFFFFFFFFF DUP2 GT ISZERO PUSH2 0x859 JUMPI PUSH2 0x858 PUSH2 0x14D5 JUMP JUMPDEST JUMPDEST PUSH1 0x40 MLOAD SWAP1 DUP1 DUP3 MSTORE DUP1 PUSH1 0x20 MUL PUSH1 0x20 ADD DUP3 ADD PUSH1 0x40 MSTORE DUP1 ISZERO PUSH2 0x88C JUMPI DUP2 PUSH1 0x20 ADD JUMPDEST PUSH1 0x60 DUP2 MSTORE PUSH1 0x20 ADD SWAP1 PUSH1 0x1 SWAP1 SUB SWAP1 DUP2 PUSH2 0x877 JUMPI SWAP1 POP JUMPDEST POP DUP2 MSTORE POP SWAP1 POP JUMPDEST SWAP3 SWAP2 POP POP JUMP JUMPDEST PUSH1 0x0 DUP5 PUSH20 0xFFFFFFFFFFFFFFFFFFFFFFFFFFFFFFFFFFFFFFFF AND DUP5 PUSH20 0xFFFFFFFFFFFFFFFFFFFFFFFFFFFFFFFFFFFFFFFF AND EQ DUP1 ISZERO PUSH2 0x921 JUMPI POP DUP3 PUSH1 0x40 MLOAD PUSH1 0x20 ADD PUSH2 0x8E2 SWAP2 SWAP1 PUSH2 0x243B JUMP JUMPDEST PUSH1 0x40 MLOAD PUSH1 0x20 DUP2 DUP4 SUB SUB DUP2 MSTORE SWAP1 PUSH1 0x40 MSTORE DUP1 MLOAD SWAP1 PUSH1 0x20 ADD KECCAK256 DUP3 PUSH1 0x40 MLOAD PUSH1 0x20 ADD PUSH2 0x909 SWAP2 SWAP1 PUSH2 0x243B JUMP JUMPDEST PUSH1 0x40 MLOAD PUSH1 0x20 DUP2 DUP4 SUB SUB DUP2 MSTORE SWAP1 PUSH1 0x40 MSTORE DUP1 MLOAD SWAP1 PUSH1 0x20 ADD KECCAK256 EQ JUMPDEST SWAP1 POP SWAP5 SWAP4 POP POP POP POP JUMP JUMPDEST PUSH2 0x933 PUSH2 0x112E JUMP JUMPDEST PUSH1 0x0 JUMPDEST PUSH1 0x0 DUP1 SLOAD SWAP1 POP DUP2 LT ISZERO PUSH2 0xB2E JUMPI PUSH2 0xA49 DUP5 PUSH1 0x0 ADD MLOAD PUSH1 0x0 DUP4 DUP2 SLOAD DUP2 LT PUSH2 0x95F JUMPI PUSH2 0x95E PUSH2 0x1DA3 JUMP JUMPDEST JUMPDEST SWAP1 PUSH1 0x0 MSTORE PUSH1 0x20 PUSH1 0x0 KECCAK256 SWAP1 PUSH1 0x4 MUL ADD PUSH1 0x0 ADD PUSH1 0x0 SWAP1 SLOAD SWAP1 PUSH2 0x100 EXP SWAP1 DIV PUSH20 0xFFFFFFFFFFFFFFFFFFFFFFFFFFFFFFFFFFFFFFFF AND DUP6 PUSH1 0x0 ADD MLOAD PUSH1 0x0 DUP6 DUP2 SLOAD DUP2 LT PUSH2 0x9AA JUMPI PUSH2 0x9A9 PUSH2 0x1DA3 JUMP JUMPDEST JUMPDEST SWAP1 PUSH1 0x0 MSTORE PUSH1 0x20 PUSH1 0x0 KECCAK256 SWAP1 PUSH1 0x4 MUL ADD PUSH1 0x1 ADD DUP1 SLOAD PUSH2 0x9C6 SWAP1 PUSH2 0x1E01 JUMP JUMPDEST DUP1 PUSH1 0x1F ADD PUSH1 0x20 DUP1 SWAP2 DIV MUL PUSH1 0x20 ADD PUSH1 0x40 MLOAD SWAP1 DUP2 ADD PUSH1 0x40 MSTORE DUP1 SWAP3 SWAP2 SWAP1 DUP2 DUP2 MSTORE PUSH1 0x20 ADD DUP3 DUP1 SLOAD PUSH2 0x9F2 SWAP1 PUSH2 0x1E01 JUMP JUMPDEST DUP1 ISZERO PUSH2 0xA3F JUMPI DUP1 PUSH1 0x1F LT PUSH2 0xA14 JUMPI PUSH2 0x100 DUP1 DUP4 SLOAD DIV MUL DUP4 MSTORE SWAP2 PUSH1 0x20 ADD SWAP2 PUSH2 0xA3F JUMP JUMPDEST DUP3 ADD SWAP2 SWAP1 PUSH1 0x0 MSTORE PUSH1 0x20 PUSH1 0x0 KECCAK256 SWAP1 JUMPDEST DUP2 SLOAD DUP2 MSTORE SWAP1 PUSH1 0x1 ADD SWAP1 PUSH1 0x20 ADD DUP1 DUP4 GT PUSH2 0xA22 JUMPI DUP3 SWAP1 SUB PUSH1 0x1F AND DUP3 ADD SWAP2 JUMPDEST POP POP POP POP POP PUSH2 0x899 JUMP JUMPDEST ISZERO PUSH2 0xB1B JUMPI PUSH1 0x40 MLOAD DUP1 PUSH1 0x40 ADD PUSH1 0x40 MSTORE DUP1 PUSH1 0x1 ISZERO ISZERO DUP2 MSTORE PUSH1 0x20 ADD PUSH1 0x0 DUP4 DUP2 SLOAD DUP2 LT PUSH2 0xA76 JUMPI PUSH2 0xA75 PUSH2 0x1DA3 JUMP JUMPDEST JUMPDEST SWAP1 PUSH1 0x0 MSTORE PUSH1 0x20 PUSH1 0x0 KECCAK256 SWAP1 PUSH1 0x4 MUL ADD PUSH1 0x2 ADD DUP1 SLOAD PUSH2 0xA92 SWAP1 PUSH2 0x1E01 JUMP JUMPDEST DUP1 PUSH1 0x1F ADD PUSH1 0x20 DUP1 SWAP2 DIV MUL PUSH1 0x20 ADD PUSH1 0x40 MLOAD SWAP1 DUP2 ADD PUSH1 0x40 MSTORE DUP1 SWAP3 SWAP2 SWAP1 DUP2 DUP2 MSTORE PUSH1 0x20 ADD DUP3 DUP1 SLOAD PUSH2 0xABE SWAP1 PUSH2 0x1E01 JUMP JUMPDEST DUP1 ISZERO PUSH2 0xB0B JUMPI DUP1 PUSH1 0x1F LT PUSH2 0xAE0 JUMPI PUSH2 0x100 DUP1 DUP4 SLOAD DIV MUL DUP4 MSTORE SWAP2 PUSH1 0x20 ADD SWAP2 PUSH2 0xB0B JUMP JUMPDEST DUP3 ADD SWAP2 SWAP1 PUSH1 0x0 MSTORE PUSH1 0x20 PUSH1 0x0 KECCAK256 SWAP1 JUMPDEST DUP2 SLOAD DUP2 MSTORE SWAP1 PUSH1 0x1 ADD SWAP1 PUSH1 0x20 ADD DUP1 DUP4 GT PUSH2 0xAEE JUMPI DUP3 SWAP1 SUB PUSH1 0x1F AND DUP3 ADD SWAP2 JUMPDEST POP POP POP POP POP DUP2 MSTORE POP SWAP2 POP POP PUSH2 0xB59 JUMP JUMPDEST DUP1 DUP1 PUSH2 0xB26 SWAP1 PUSH2 0x2139 JUMP JUMPDEST SWAP2 POP POP PUSH2 0x936 JUMP JUMPDEST POP PUSH1 0x40 MLOAD DUP1 PUSH1 0x40 ADD PUSH1 0x40 MSTORE DUP1 PUSH1 0x0 ISZERO ISZERO DUP2 MSTORE PUSH1 0x20 ADD PUSH1 0x40 MLOAD DUP1 PUSH1 0x20 ADD PUSH1 0x40 MSTORE DUP1 PUSH1 0x0 DUP2 MSTORE POP DUP2 MSTORE POP SWAP1 POP JUMPDEST SWAP3 SWAP2 POP POP JUMP JUMPDEST PUSH1 0x0 PUSH2 0xB6B DUP6 DUP6 PUSH2 0xD02 JUMP JUMPDEST SWAP1 POP DUP1 ISZERO PUSH2 0xB79 JUMPI POP PUSH2 0xB87 JUMP JUMPDEST PUSH2 0xB85 DUP6 DUP6 DUP6 DUP6 PUSH2 0x4D7 JUMP JUMPDEST POP JUMPDEST POP POP POP POP JUMP JUMPDEST PUSH1 0x0 JUMPDEST PUSH1 0x0 DUP1 SLOAD SWAP1 POP DUP2 LT ISZERO PUSH2 0xCFB JUMPI PUSH2 0xCA3 DUP5 PUSH1 0x0 ADD MLOAD PUSH1 0x0 DUP4 DUP2 SLOAD DUP2 LT PUSH2 0xBB9 JUMPI PUSH2 0xBB8 PUSH2 0x1DA3 JUMP JUMPDEST JUMPDEST SWAP1 PUSH1 0x0 MSTORE PUSH1 0x20 PUSH1 0x0 KECCAK256 SWAP1 PUSH1 0x4 MUL ADD PUSH1 0x0 ADD PUSH1 0x0 SWAP1 SLOAD SWAP1 PUSH2 0x100 EXP SWAP1 DIV PUSH20 0xFFFFFFFFFFFFFFFFFFFFFFFFFFFFFFFFFFFFFFFF AND DUP6 PUSH1 0x0 ADD MLOAD PUSH1 0x0 DUP6 DUP2 SLOAD DUP2 LT PUSH2 0xC04 JUMPI PUSH2 0xC03 PUSH2 0x1DA3 JUMP JUMPDEST JUMPDEST SWAP1 PUSH1 0x0 MSTORE PUSH1 0x20 PUSH1 0x0 KECCAK256 SWAP1 PUSH1 0x4 MUL ADD PUSH1 0x1 ADD DUP1 SLOAD PUSH2 0xC20 SWAP1 PUSH2 0x1E01 JUMP JUMPDEST DUP1 PUSH1 0x1F ADD PUSH1 0x20 DUP1 SWAP2 DIV MUL PUSH1 0x20 ADD PUSH1 0x40 MLOAD SWAP1 DUP2 ADD PUSH1 0x40 MSTORE DUP1 SWAP3 SWAP2 SWAP1 DUP2 DUP2 MSTORE PUSH1 0x20 ADD DUP3 DUP1 SLOAD PUSH2 0xC4C SWAP1 PUSH2 0x1E01 JUMP JUMPDEST DUP1 ISZERO PUSH2 0xC99 JUMPI DUP1 PUSH1 0x1F LT PUSH2 0xC6E JUMPI PUSH2 0x100 DUP1 DUP4 SLOAD DIV MUL DUP4 MSTORE SWAP2 PUSH1 0x20 ADD SWAP2 PUSH2 0xC99 JUMP JUMPDEST DUP3 ADD SWAP2 SWAP1 PUSH1 0x0 MSTORE PUSH1 0x20 PUSH1 0x0 KECCAK256 SWAP1 JUMPDEST DUP2 SLOAD DUP2 MSTORE SWAP1 PUSH1 0x1 ADD SWAP1 PUSH1 0x20 ADD DUP1 DUP4 GT PUSH2 0xC7C JUMPI DUP3 SWAP1 SUB PUSH1 0x1F AND DUP3 ADD SWAP2 JUMPDEST POP POP POP POP POP PUSH2 0x899 JUMP JUMPDEST ISZERO PUSH2 0xCE8 JUMPI DUP2 PUSH1 0x0 DUP3 DUP2 SLOAD DUP2 LT PUSH2 0xCBD JUMPI PUSH2 0xCBC PUSH2 0x1DA3 JUMP JUMPDEST JUMPDEST SWAP1 PUSH1 0x0 MSTORE PUSH1 0x20 PUSH1 0x0 KECCAK256 SWAP1 PUSH1 0x4 MUL ADD PUSH1 0x3 ADD SWAP1 DUP1 MLOAD SWAP1 PUSH1 0x20 ADD SWAP1 PUSH2 0xCE1 SWAP3 SWAP2 SWAP1 PUSH2 0x10B9 JUMP JUMPDEST POP POP PUSH2 0xCFD JUMP JUMPDEST DUP1 DUP1 PUSH2 0xCF3 SWAP1 PUSH2 0x2139 JUMP JUMPDEST SWAP2 POP POP PUSH2 0xB90 JUMP JUMPDEST POP JUMPDEST POP POP POP JUMP JUMPDEST PUSH1 0x0 DUP1 PUSH1 0x0 SWAP1 POP JUMPDEST PUSH1 0x0 DUP1 SLOAD SWAP1 POP DUP2 LT ISZERO PUSH2 0xE3F JUMPI PUSH2 0xE1D DUP5 PUSH1 0x0 ADD MLOAD PUSH1 0x0 DUP4 DUP2 SLOAD DUP2 LT PUSH2 0xD33 JUMPI PUSH2 0xD32 PUSH2 0x1DA3 JUMP JUMPDEST JUMPDEST SWAP1 PUSH1 0x0 MSTORE PUSH1 0x20 PUSH1 0x0 KECCAK256 SWAP1 PUSH1 0x4 MUL ADD PUSH1 0x0 ADD PUSH1 0x0 SWAP1 SLOAD SWAP1 PUSH2 0x100 EXP SWAP1 DIV PUSH20 0xFFFFFFFFFFFFFFFFFFFFFFFFFFFFFFFFFFFFFFFF AND DUP6 PUSH1 0x0 ADD MLOAD PUSH1 0x0 DUP6 DUP2 SLOAD DUP2 LT PUSH2 0xD7E JUMPI PUSH2 0xD7D PUSH2 0x1DA3 JUMP JUMPDEST JUMPDEST SWAP1 PUSH1 0x0 MSTORE PUSH1 0x20 PUSH1 0x0 KECCAK256 SWAP1 PUSH1 0x4 MUL ADD PUSH1 0x1 ADD DUP1 SLOAD PUSH2 0xD9A SWAP1 PUSH2 0x1E01 JUMP JUMPDEST DUP1 PUSH1 0x1F ADD PUSH1 0x20 DUP1 SWAP2 DIV MUL PUSH1 0x20 ADD PUSH1 0x40 MLOAD SWAP1 DUP2 ADD PUSH1 0x40 MSTORE DUP1 SWAP3 SWAP2 SWAP1 DUP2 DUP2 MSTORE PUSH1 0x20 ADD DUP3 DUP1 SLOAD PUSH2 0xDC6 SWAP1 PUSH2 0x1E01 JUMP JUMPDEST DUP1 ISZERO PUSH2 0xE13 JUMPI DUP1 PUSH1 0x1F LT PUSH2 0xDE8 JUMPI PUSH2 0x100 DUP1 DUP4 SLOAD DIV MUL DUP4 MSTORE SWAP2 PUSH1 0x20 ADD SWAP2 PUSH2 0xE13 JUMP JUMPDEST DUP3 ADD SWAP2 SWAP1 PUSH1 0x0 MSTORE PUSH1 0x20 PUSH1 0x0 KECCAK256 SWAP1 JUMPDEST DUP2 SLOAD DUP2 MSTORE SWAP1 PUSH1 0x1 ADD SWAP1 PUSH1 0x20 ADD DUP1 DUP4 GT PUSH2 0xDF6 JUMPI DUP3 SWAP1 SUB PUSH1 0x1F AND DUP3 ADD SWAP2 JUMPDEST POP POP POP POP POP PUSH2 0x899 JUMP JUMPDEST ISZERO PUSH2 0xE2C JUMPI PUSH1 0x1 SWAP2 POP POP PUSH2 0xE45 JUMP JUMPDEST DUP1 DUP1 PUSH2 0xE37 SWAP1 PUSH2 0x2139 JUMP JUMPDEST SWAP2 POP POP PUSH2 0xD0A JUMP JUMPDEST POP PUSH1 0x0 SWAP1 POP JUMPDEST SWAP3 SWAP2 POP POP JUMP JUMPDEST PUSH1 0x0 PUSH2 0xE57 DUP5 DUP5 PUSH2 0xD02 JUMP JUMPDEST SWAP1 POP DUP1 ISZERO PUSH2 0xE65 JUMPI POP PUSH2 0x1053 JUMP JUMPDEST PUSH1 0x0 PUSH1 0x3 PUSH8 0xFFFFFFFFFFFFFFFF DUP2 GT ISZERO PUSH2 0xE82 JUMPI PUSH2 0xE81 PUSH2 0x14D5 JUMP JUMPDEST JUMPDEST PUSH1 0x40 MLOAD SWAP1 DUP1 DUP3 MSTORE DUP1 PUSH1 0x20 MUL PUSH1 0x20 ADD DUP3 ADD PUSH1 0x40 MSTORE DUP1 ISZERO PUSH2 0xEB5 JUMPI DUP2 PUSH1 0x20 ADD JUMPDEST PUSH1 0x60 DUP2 MSTORE PUSH1 0x20 ADD SWAP1 PUSH1 0x1 SWAP1 SUB SWAP1 DUP2 PUSH2 0xEA0 JUMPI SWAP1 POP JUMPDEST POP SWAP1 POP PUSH1 0x40 MLOAD DUP1 PUSH1 0x40 ADD PUSH1 0x40 MSTORE DUP1 PUSH1 0x8 DUP2 MSTORE PUSH1 0x20 ADD PUSH32 0x646F776E6C6F6164000000000000000000000000000000000000000000000000 DUP2 MSTORE POP DUP2 PUSH1 0x0 DUP2 MLOAD DUP2 LT PUSH2 0xF02 JUMPI PUSH2 0xF01 PUSH2 0x1DA3 JUMP JUMPDEST JUMPDEST PUSH1 0x20 MUL PUSH1 0x20 ADD ADD DUP2 SWAP1 MSTORE POP PUSH1 0x40 MLOAD DUP1 PUSH1 0x40 ADD PUSH1 0x40 MSTORE DUP1 PUSH1 0x6 DUP2 MSTORE PUSH1 0x20 ADD PUSH32 0x64656C6574650000000000000000000000000000000000000000000000000000 DUP2 MSTORE POP DUP2 PUSH1 0x1 DUP2 MLOAD DUP2 LT PUSH2 0xF57 JUMPI PUSH2 0xF56 PUSH2 0x1DA3 JUMP JUMPDEST JUMPDEST PUSH1 0x20 MUL PUSH1 0x20 ADD ADD DUP2 SWAP1 MSTORE POP PUSH1 0x40 MLOAD DUP1 PUSH1 0x40 ADD PUSH1 0x40 MSTORE DUP1 PUSH1 0x5 DUP2 MSTORE PUSH1 0x20 ADD PUSH32 0x7368617265000000000000000000000000000000000000000000000000000000 DUP2 MSTORE POP DUP2 PUSH1 0x2 DUP2 MLOAD DUP2 LT PUSH2 0xFAC JUMPI PUSH2 0xFAB PUSH2 0x1DA3 JUMP JUMPDEST JUMPDEST PUSH1 0x20 MUL PUSH1 0x20 ADD ADD DUP2 SWAP1 MSTORE POP PUSH2 0xFC3 DUP6 DUP6 DUP6 DUP5 PUSH2 0x4D7 JUMP JUMPDEST PUSH1 0x1 PUSH1 0x0 SWAP1 SLOAD SWAP1 PUSH2 0x100 EXP SWAP1 DIV PUSH20 0xFFFFFFFFFFFFFFFFFFFFFFFFFFFFFFFFFFFFFFFF AND PUSH20 0xFFFFFFFFFFFFFFFFFFFFFFFFFFFFFFFFFFFFFFFF AND PUSH4 0x9AA7F418 DUP6 PUSH1 0x40 MLOAD DUP3 PUSH4 0xFFFFFFFF AND PUSH1 0xE0 SHL DUP2 MSTORE PUSH1 0x4 ADD PUSH2 0x101E SWAP2 SWAP1 PUSH2 0x24DD JUMP JUMPDEST PUSH1 0x0 PUSH1 0x40 MLOAD DUP1 DUP4 SUB DUP2 PUSH1 0x0 DUP8 DUP1 EXTCODESIZE ISZERO DUP1 ISZERO PUSH2 0x1038 JUMPI PUSH1 0x0 DUP1 REVERT JUMPDEST POP GAS CALL ISZERO DUP1 ISZERO PUSH2 0x104C JUMPI RETURNDATASIZE PUSH1 0x0 DUP1 RETURNDATACOPY RETURNDATASIZE PUSH1 0x0 REVERT JUMPDEST POP POP POP POP POP POP JUMPDEST POP POP POP JUMP JUMPDEST PUSH1 0x40 MLOAD DUP1 PUSH1 0x40 ADD PUSH1 0x40 MSTORE DUP1 PUSH1 0x0 ISZERO ISZERO DUP2 MSTORE PUSH1 0x20 ADD PUSH1 0x60 DUP2 MSTORE POP SWAP1 JUMP JUMPDEST PUSH1 0x40 MLOAD DUP1 PUSH1 0xA0 ADD PUSH1 0x40 MSTORE DUP1 PUSH1 0x60 DUP2 MSTORE PUSH1 0x20 ADD PUSH1 0x60 DUP2 MSTORE PUSH1 0x20 ADD PUSH1 0x0 PUSH20 0xFFFFFFFFFFFFFFFFFFFFFFFFFFFFFFFFFFFFFFFF AND DUP2 MSTORE PUSH1 0x20 ADD PUSH1 0x60 DUP2 MSTORE PUSH1 0x20 ADD PUSH1 0x60 DUP2 MSTORE POP SWAP1 JUMP JUMPDEST DUP3 DUP1 SLOAD DUP3 DUP3 SSTORE SWAP1 PUSH1 0x0 MSTORE PUSH1 0x20 PUSH1 0x0 KECCAK256 SWAP1 DUP2 ADD SWAP3 DUP3 ISZERO PUSH2 0x1101 JUMPI SWAP2 PUSH1 0x20 MUL DUP3 ADD JUMPDEST DUP3 DUP2 GT ISZERO PUSH2 0x1100 JUMPI DUP3 MLOAD DUP3 SWAP1 DUP2 PUSH2 0x10F0 SWAP2 SWAP1 PUSH2 0x232D JUMP JUMPDEST POP SWAP2 PUSH1 0x20 ADD SWAP2 SWAP1 PUSH1 0x1 ADD SWAP1 PUSH2 0x10D9 JUMP JUMPDEST JUMPDEST POP SWAP1 POP PUSH2 0x110E SWAP2 SWAP1 PUSH2 0x114A JUMP JUMPDEST POP SWAP1 JUMP JUMPDEST PUSH1 0x40 MLOAD DUP1 PUSH1 0x40 ADD PUSH1 0x40 MSTORE DUP1 PUSH1 0x0 ISZERO ISZERO DUP2 MSTORE PUSH1 0x20 ADD PUSH1 0x60 DUP2 MSTORE POP SWAP1 JUMP JUMPDEST PUSH1 0x40 MLOAD DUP1 PUSH1 0x40 ADD PUSH1 0x40 MSTORE DUP1 PUSH1 0x0 ISZERO ISZERO DUP2 MSTORE PUSH1 0x20 ADD PUSH1 0x60 DUP2 MSTORE POP SWAP1 JUMP JUMPDEST JUMPDEST DUP1 DUP3 GT ISZERO PUSH2 0x116A JUMPI PUSH1 0x0 DUP2 DUP2 PUSH2 0x1161 SWAP2 SWAP1 PUSH2 0x116E JUMP JUMPDEST POP PUSH1 0x1 ADD PUSH2 0x114B JUMP JUMPDEST POP SWAP1 JUMP JUMPDEST POP DUP1 SLOAD PUSH2 0x117A SWAP1 PUSH2 0x1E01 JUMP JUMPDEST PUSH1 0x0 DUP3 SSTORE DUP1 PUSH1 0x1F LT PUSH2 0x118C JUMPI POP PUSH2 0x11AB JUMP JUMPDEST PUSH1 0x1F ADD PUSH1 0x20 SWAP1 DIV SWAP1 PUSH1 0x0 MSTORE PUSH1 0x20 PUSH1 0x0 KECCAK256 SWAP1 DUP2 ADD SWAP1 PUSH2 0x11AA SWAP2 SWAP1 PUSH2 0x11AE JUMP JUMPDEST JUMPDEST POP JUMP JUMPDEST JUMPDEST DUP1 DUP3 GT ISZERO PUSH2 0x11C7 JUMPI PUSH1 0x0 DUP2 PUSH1 0x0 SWAP1 SSTORE POP PUSH1 0x1 ADD PUSH2 0x11AF JUMP JUMPDEST POP SWAP1 JUMP JUMPDEST PUSH1 0x0 PUSH1 0x40 MLOAD SWAP1 POP SWAP1 JUMP JUMPDEST PUSH1 0x0 DUP1 REVERT JUMPDEST PUSH1 0x0 DUP1 REVERT JUMPDEST PUSH1 0x0 PUSH20 0xFFFFFFFFFFFFFFFFFFFFFFFFFFFFFFFFFFFFFFFF DUP3 AND SWAP1 POP SWAP2 SWAP1 POP JUMP JUMPDEST PUSH1 0x0 PUSH2 0x120A DUP3 PUSH2 0x11DF JUMP JUMPDEST SWAP1 POP SWAP2 SWAP1 POP JUMP JUMPDEST PUSH2 0x121A DUP2 PUSH2 0x11FF JUMP JUMPDEST DUP2 EQ PUSH2 0x1225 JUMPI PUSH1 0x0 DUP1 REVERT JUMPDEST POP JUMP JUMPDEST PUSH1 0x0 DUP2 CALLDATALOAD SWAP1 POP PUSH2 0x1237 DUP2 PUSH2 0x1211 JUMP JUMPDEST SWAP3 SWAP2 POP POP JUMP JUMPDEST PUSH1 0x0 PUSH1 0x20 DUP3 DUP5 SUB SLT ISZERO PUSH2 0x1253 JUMPI PUSH2 0x1252 PUSH2 0x11D5 JUMP JUMPDEST JUMPDEST PUSH1 0x0 PUSH2 0x1261 DUP5 DUP3 DUP6 ADD PUSH2 0x1228 JUMP JUMPDEST SWAP2 POP POP SWAP3 SWAP2 POP POP JUMP JUMPDEST PUSH1 0x0 DUP2 ISZERO ISZERO SWAP1 POP SWAP2 SWAP1 POP JUMP JUMPDEST PUSH2 0x127F DUP2 PUSH2 0x126A JUMP JUMPDEST DUP3 MSTORE POP POP JUMP JUMPDEST PUSH1 0x0 DUP2 MLOAD SWAP1 POP SWAP2 SWAP1 POP JUMP JUMPDEST PUSH1 0x0 DUP3 DUP3 MSTORE PUSH1 0x20 DUP3 ADD SWAP1 POP SWAP3 SWAP2 POP POP JUMP JUMPDEST PUSH1 0x0 DUP2 SWAP1 POP PUSH1 0x20 DUP3 ADD SWAP1 POP SWAP2 SWAP1 POP JUMP JUMPDEST PUSH1 0x0 DUP2 MLOAD SWAP1 POP SWAP2 SWAP1 POP JUMP JUMPDEST PUSH1 0x0 DUP3 DUP3 MSTORE PUSH1 0x20 DUP3 ADD SWAP1 POP SWAP3 SWAP2 POP POP JUMP JUMPDEST PUSH1 0x0 JUMPDEST DUP4 DUP2 LT ISZERO PUSH2 0x12EB JUMPI DUP1 DUP3 ADD MLOAD DUP2 DUP5 ADD MSTORE PUSH1 0x20 DUP2 ADD SWAP1 POP PUSH2 0x12D0 JUMP JUMPDEST PUSH1 0x0 DUP5 DUP5 ADD MSTORE POP POP POP POP JUMP JUMPDEST PUSH1 0x0 PUSH1 0x1F NOT PUSH1 0x1F DUP4 ADD AND SWAP1 POP SWAP2 SWAP1 POP JUMP JUMPDEST PUSH1 0x0 PUSH2 0x1313 DUP3 PUSH2 0x12B1 JUMP JUMPDEST PUSH2 0x131D DUP2 DUP6 PUSH2 0x12BC JUMP JUMPDEST SWAP4 POP PUSH2 0x132D DUP2 DUP6 PUSH1 0x20 DUP7 ADD PUSH2 0x12CD JUMP JUMPDEST PUSH2 0x1336 DUP2 PUSH2 0x12F7 JUMP JUMPDEST DUP5 ADD SWAP2 POP POP SWAP3 SWAP2 POP POP JUMP JUMPDEST PUSH2 0x134A DUP2 PUSH2 0x11FF JUMP JUMPDEST DUP3 MSTORE POP POP JUMP JUMPDEST PUSH1 0x0 PUSH1 0xA0 DUP4 ADD PUSH1 0x0 DUP4 ADD MLOAD DUP5 DUP3 SUB PUSH1 0x0 DUP7 ADD MSTORE PUSH2 0x136D DUP3 DUP3 PUSH2 0x1308 JUMP JUMPDEST SWAP2 POP POP PUSH1 0x20 DUP4 ADD MLOAD DUP5 DUP3 SUB PUSH1 0x20 DUP7 ADD MSTORE PUSH2 0x1387 DUP3 DUP3 PUSH2 0x1308 JUMP JUMPDEST SWAP2 POP POP PUSH1 0x40 DUP4 ADD MLOAD PUSH2 0x139C PUSH1 0x40 DUP7 ADD DUP3 PUSH2 0x1341 JUMP JUMPDEST POP PUSH1 0x60 DUP4 ADD MLOAD DUP5 DUP3 SUB PUSH1 0x60 DUP7 ADD MSTORE PUSH2 0x13B4 DUP3 DUP3 PUSH2 0x1308 JUMP JUMPDEST SWAP2 POP POP PUSH1 0x80 DUP4 ADD MLOAD DUP5 DUP3 SUB PUSH1 0x80 DUP7 ADD MSTORE PUSH2 0x13CE DUP3 DUP3 PUSH2 0x1308 JUMP JUMPDEST SWAP2 POP POP DUP1 SWAP2 POP POP SWAP3 SWAP2 POP POP JUMP JUMPDEST PUSH1 0x0 PUSH2 0x13E7 DUP4 DUP4 PUSH2 0x1350 JUMP JUMPDEST SWAP1 POP SWAP3 SWAP2 POP POP JUMP JUMPDEST PUSH1 0x0 PUSH1 0x20 DUP3 ADD SWAP1 POP SWAP2 SWAP1 POP JUMP JUMPDEST PUSH1 0x0 PUSH2 0x1407 DUP3 PUSH2 0x1285 JUMP JUMPDEST PUSH2 0x1411 DUP2 DUP6 PUSH2 0x1290 JUMP JUMPDEST SWAP4 POP DUP4 PUSH1 0x20 DUP3 MUL DUP6 ADD PUSH2 0x1423 DUP6 PUSH2 0x12A1 JUMP JUMPDEST DUP1 PUSH1 0x0 JUMPDEST DUP6 DUP2 LT ISZERO PUSH2 0x145F JUMPI DUP5 DUP5 SUB DUP10 MSTORE DUP2 MLOAD PUSH2 0x1440 DUP6 DUP3 PUSH2 0x13DB JUMP JUMPDEST SWAP5 POP PUSH2 0x144B DUP4 PUSH2 0x13EF JUMP JUMPDEST SWAP3 POP PUSH1 0x20 DUP11 ADD SWAP10 POP POP PUSH1 0x1 DUP2 ADD SWAP1 POP PUSH2 0x1427 JUMP JUMPDEST POP DUP3 SWAP8 POP DUP8 SWAP6 POP POP POP POP POP POP SWAP3 SWAP2 POP POP JUMP JUMPDEST PUSH1 0x0 PUSH1 0x40 DUP4 ADD PUSH1 0x0 DUP4 ADD MLOAD PUSH2 0x1489 PUSH1 0x0 DUP7 ADD DUP3 PUSH2 0x1276 JUMP JUMPDEST POP PUSH1 0x20 DUP4 ADD MLOAD DUP5 DUP3 SUB PUSH1 0x20 DUP7 ADD MSTORE PUSH2 0x14A1 DUP3 DUP3 PUSH2 0x13FC JUMP JUMPDEST SWAP2 POP POP DUP1 SWAP2 POP POP SWAP3 SWAP2 POP POP JUMP JUMPDEST PUSH1 0x0 PUSH1 0x20 DUP3 ADD SWAP1 POP DUP2 DUP2 SUB PUSH1 0x0 DUP4 ADD MSTORE PUSH2 0x14C8 DUP2 DUP5 PUSH2 0x1471 JUMP JUMPDEST SWAP1 POP SWAP3 SWAP2 POP POP JUMP JUMPDEST PUSH1 0x0 DUP1 REVERT JUMPDEST PUSH32 0x4E487B7100000000000000000000000000000000000000000000000000000000 PUSH1 0x0 MSTORE PUSH1 0x41 PUSH1 0x4 MSTORE PUSH1 0x24 PUSH1 0x0 REVERT JUMPDEST PUSH2 0x150D DUP3 PUSH2 0x12F7 JUMP JUMPDEST DUP2 ADD DUP2 DUP2 LT PUSH8 0xFFFFFFFFFFFFFFFF DUP3 GT OR ISZERO PUSH2 0x152C JUMPI PUSH2 0x152B PUSH2 0x14D5 JUMP JUMPDEST JUMPDEST DUP1 PUSH1 0x40 MSTORE POP POP POP JUMP JUMPDEST PUSH1 0x0 PUSH2 0x153F PUSH2 0x11CB JUMP JUMPDEST SWAP1 POP PUSH2 0x154B DUP3 DUP3 PUSH2 0x1504 JUMP JUMPDEST SWAP2 SWAP1 POP JUMP JUMPDEST PUSH1 0x0 DUP1 REVERT JUMPDEST PUSH1 0x0 DUP1 REVERT JUMPDEST PUSH1 0x0 DUP1 REVERT JUMPDEST PUSH1 0x0 PUSH8 0xFFFFFFFFFFFFFFFF DUP3 GT ISZERO PUSH2 0x157A JUMPI PUSH2 0x1579 PUSH2 0x14D5 JUMP JUMPDEST JUMPDEST PUSH2 0x1583 DUP3 PUSH2 0x12F7 JUMP JUMPDEST SWAP1 POP PUSH1 0x20 DUP2 ADD SWAP1 POP SWAP2 SWAP1 POP JUMP JUMPDEST DUP3 DUP2 DUP4 CALLDATACOPY PUSH1 0x0 DUP4 DUP4 ADD MSTORE POP POP POP JUMP JUMPDEST PUSH1 0x0 PUSH2 0x15B2 PUSH2 0x15AD DUP5 PUSH2 0x155F JUMP JUMPDEST PUSH2 0x1535 JUMP JUMPDEST SWAP1 POP DUP3 DUP2 MSTORE PUSH1 0x20 DUP2 ADD DUP5 DUP5 DUP5 ADD GT ISZERO PUSH2 0x15CE JUMPI PUSH2 0x15CD PUSH2 0x155A JUMP JUMPDEST JUMPDEST PUSH2 0x15D9 DUP5 DUP3 DUP6 PUSH2 0x1590 JUMP JUMPDEST POP SWAP4 SWAP3 POP POP POP JUMP JUMPDEST PUSH1 0x0 DUP3 PUSH1 0x1F DUP4 ADD SLT PUSH2 0x15F6 JUMPI PUSH2 0x15F5 PUSH2 0x1555 JUMP JUMPDEST JUMPDEST DUP2 CALLDATALOAD PUSH2 0x1606 DUP5 DUP3 PUSH1 0x20 DUP7 ADD PUSH2 0x159F JUMP JUMPDEST SWAP2 POP POP SWAP3 SWAP2 POP POP JUMP JUMPDEST PUSH1 0x0 PUSH1 0x80 DUP3 DUP5 SUB SLT ISZERO PUSH2 0x1625 JUMPI PUSH2 0x1624 PUSH2 0x14D0 JUMP JUMPDEST JUMPDEST PUSH2 0x162F PUSH1 0x80 PUSH2 0x1535 JUMP JUMPDEST SWAP1 POP PUSH1 0x0 PUSH2 0x163F DUP5 DUP3 DUP6 ADD PUSH2 0x1228 JUMP JUMPDEST PUSH1 0x0 DUP4 ADD MSTORE POP PUSH1 0x20 DUP3 ADD CALLDATALOAD PUSH8 0xFFFFFFFFFFFFFFFF DUP2 GT ISZERO PUSH2 0x1663 JUMPI PUSH2 0x1662 PUSH2 0x1550 JUMP JUMPDEST JUMPDEST PUSH2 0x166F DUP5 DUP3 DUP6 ADD PUSH2 0x15E1 JUMP JUMPDEST PUSH1 0x20 DUP4 ADD MSTORE POP PUSH1 0x40 DUP3 ADD CALLDATALOAD PUSH8 0xFFFFFFFFFFFFFFFF DUP2 GT ISZERO PUSH2 0x1693 JUMPI PUSH2 0x1692 PUSH2 0x1550 JUMP JUMPDEST JUMPDEST PUSH2 0x169F DUP5 DUP3 DUP6 ADD PUSH2 0x15E1 JUMP JUMPDEST PUSH1 0x40 DUP4 ADD MSTORE POP PUSH1 0x60 DUP3 ADD CALLDATALOAD PUSH8 0xFFFFFFFFFFFFFFFF DUP2 GT ISZERO PUSH2 0x16C3 JUMPI PUSH2 0x16C2 PUSH2 0x1550 JUMP JUMPDEST JUMPDEST PUSH2 0x16CF DUP5 DUP3 DUP6 ADD PUSH2 0x15E1 JUMP JUMPDEST PUSH1 0x60 DUP4 ADD MSTORE POP SWAP3 SWAP2 POP POP JUMP JUMPDEST PUSH1 0x0 PUSH1 0xA0 DUP3 DUP5 SUB SLT ISZERO PUSH2 0x16F1 JUMPI PUSH2 0x16F0 PUSH2 0x14D0 JUMP JUMPDEST JUMPDEST PUSH2 0x16FB PUSH1 0xA0 PUSH2 0x1535 JUMP JUMPDEST SWAP1 POP PUSH1 0x0 DUP3 ADD CALLDATALOAD PUSH8 0xFFFFFFFFFFFFFFFF DUP2 GT ISZERO PUSH2 0x171B JUMPI PUSH2 0x171A PUSH2 0x1550 JUMP JUMPDEST JUMPDEST PUSH2 0x1727 DUP5 DUP3 DUP6 ADD PUSH2 0x15E1 JUMP JUMPDEST PUSH1 0x0 DUP4 ADD MSTORE POP PUSH1 0x20 DUP3 ADD CALLDATALOAD PUSH8 0xFFFFFFFFFFFFFFFF DUP2 GT ISZERO PUSH2 0x174B JUMPI PUSH2 0x174A PUSH2 0x1550 JUMP JUMPDEST JUMPDEST PUSH2 0x1757 DUP5 DUP3 DUP6 ADD PUSH2 0x15E1 JUMP JUMPDEST PUSH1 0x20 DUP4 ADD MSTORE POP PUSH1 0x40 PUSH2 0x176B DUP5 DUP3 DUP6 ADD PUSH2 0x1228 JUMP JUMPDEST PUSH1 0x40 DUP4 ADD MSTORE POP PUSH1 0x60 DUP3 ADD CALLDATALOAD PUSH8 0xFFFFFFFFFFFFFFFF DUP2 GT ISZERO PUSH2 0x178F JUMPI PUSH2 0x178E PUSH2 0x1550 JUMP JUMPDEST JUMPDEST PUSH2 0x179B DUP5 DUP3 DUP6 ADD PUSH2 0x15E1 JUMP JUMPDEST PUSH1 0x60 DUP4 ADD MSTORE POP PUSH1 0x80 DUP3 ADD CALLDATALOAD PUSH8 0xFFFFFFFFFFFFFFFF DUP2 GT ISZERO PUSH2 0x17BF JUMPI PUSH2 0x17BE PUSH2 0x1550 JUMP JUMPDEST JUMPDEST PUSH2 0x17CB DUP5 DUP3 DUP6 ADD PUSH2 0x15E1 JUMP JUMPDEST PUSH1 0x80 DUP4 ADD MSTORE POP SWAP3 SWAP2 POP POP JUMP JUMPDEST PUSH1 0x0 PUSH8 0xFFFFFFFFFFFFFFFF DUP3 GT ISZERO PUSH2 0x17F2 JUMPI PUSH2 0x17F1 PUSH2 0x14D5 JUMP JUMPDEST JUMPDEST PUSH1 0x20 DUP3 MUL SWAP1 POP PUSH1 0x20 DUP2 ADD SWAP1 POP SWAP2 SWAP1 POP JUMP JUMPDEST PUSH1 0x0 DUP1 REVERT JUMPDEST PUSH1 0x0 PUSH2 0x181B PUSH2 0x1816 DUP5 PUSH2 0x17D7 JUMP JUMPDEST PUSH2 0x1535 JUMP JUMPDEST SWAP1 POP DUP1 DUP4 DUP3 MSTORE PUSH1 0x20 DUP3 ADD SWAP1 POP PUSH1 0x20 DUP5 MUL DUP4 ADD DUP6 DUP2 GT ISZERO PUSH2 0x183E JUMPI PUSH2 0x183D PUSH2 0x1803 JUMP JUMPDEST JUMPDEST DUP4 JUMPDEST DUP2 DUP2 LT ISZERO PUSH2 0x1885 JUMPI DUP1 CALLDATALOAD PUSH8 0xFFFFFFFFFFFFFFFF DUP2 GT ISZERO PUSH2 0x1863 JUMPI PUSH2 0x1862 PUSH2 0x1555 JUMP JUMPDEST JUMPDEST DUP1 DUP7 ADD PUSH2 0x1870 DUP10 DUP3 PUSH2 0x15E1 JUMP JUMPDEST DUP6 MSTORE PUSH1 0x20 DUP6 ADD SWAP5 POP POP POP PUSH1 0x20 DUP2 ADD SWAP1 POP PUSH2 0x1840 JUMP JUMPDEST POP POP POP SWAP4 SWAP3 POP POP POP JUMP JUMPDEST PUSH1 0x0 DUP3 PUSH1 0x1F DUP4 ADD SLT PUSH2 0x18A4 JUMPI PUSH2 0x18A3 PUSH2 0x1555 JUMP JUMPDEST JUMPDEST DUP2 CALLDATALOAD PUSH2 0x18B4 DUP5 DUP3 PUSH1 0x20 DUP7 ADD PUSH2 0x1808 JUMP JUMPDEST SWAP2 POP POP SWAP3 SWAP2 POP POP JUMP JUMPDEST PUSH1 0x0 DUP1 PUSH1 0x0 DUP1 PUSH1 0x80 DUP6 DUP8 SUB SLT ISZERO PUSH2 0x18D7 JUMPI PUSH2 0x18D6 PUSH2 0x11D5 JUMP JUMPDEST JUMPDEST PUSH1 0x0 DUP6 ADD CALLDATALOAD PUSH8 0xFFFFFFFFFFFFFFFF DUP2 GT ISZERO PUSH2 0x18F5 JUMPI PUSH2 0x18F4 PUSH2 0x11DA JUMP JUMPDEST JUMPDEST PUSH2 0x1901 DUP8 DUP3 DUP9 ADD PUSH2 0x160F JUMP JUMPDEST SWAP5 POP POP PUSH1 0x20 DUP6 ADD CALLDATALOAD PUSH8 0xFFFFFFFFFFFFFFFF DUP2 GT ISZERO PUSH2 0x1922 JUMPI PUSH2 0x1921 PUSH2 0x11DA JUMP JUMPDEST JUMPDEST PUSH2 0x192E DUP8 DUP3 DUP9 ADD PUSH2 0x16DB JUMP JUMPDEST SWAP4 POP POP PUSH1 0x40 DUP6 ADD CALLDATALOAD PUSH8 0xFFFFFFFFFFFFFFFF DUP2 GT ISZERO PUSH2 0x194F JUMPI PUSH2 0x194E PUSH2 0x11DA JUMP JUMPDEST JUMPDEST PUSH2 0x195B DUP8 DUP3 DUP9 ADD PUSH2 0x15E1 JUMP JUMPDEST SWAP3 POP POP PUSH1 0x60 DUP6 ADD CALLDATALOAD PUSH8 0xFFFFFFFFFFFFFFFF DUP2 GT ISZERO PUSH2 0x197C JUMPI PUSH2 0x197B PUSH2 0x11DA JUMP JUMPDEST JUMPDEST PUSH2 0x1988 DUP8 DUP3 DUP9 ADD PUSH2 0x188F JUMP JUMPDEST SWAP2 POP POP SWAP3 SWAP6 SWAP2 SWAP5 POP SWAP3 POP JUMP JUMPDEST PUSH1 0x0 DUP1 PUSH1 0x40 DUP4 DUP6 SUB SLT ISZERO PUSH2 0x19AB JUMPI PUSH2 0x19AA PUSH2 0x11D5 JUMP JUMPDEST JUMPDEST PUSH1 0x0 DUP4 ADD CALLDATALOAD PUSH8 0xFFFFFFFFFFFFFFFF DUP2 GT ISZERO PUSH2 0x19C9 JUMPI PUSH2 0x19C8 PUSH2 0x11DA JUMP JUMPDEST JUMPDEST PUSH2 0x19D5 DUP6 DUP3 DUP7 ADD PUSH2 0x160F JUMP JUMPDEST SWAP3 POP POP PUSH1 0x20 DUP4 ADD CALLDATALOAD PUSH8 0xFFFFFFFFFFFFFFFF DUP2 GT ISZERO PUSH2 0x19F6 JUMPI PUSH2 0x19F5 PUSH2 0x11DA JUMP JUMPDEST JUMPDEST PUSH2 0x1A02 DUP6 DUP3 DUP7 ADD PUSH2 0x16DB JUMP JUMPDEST SWAP2 POP POP SWAP3 POP SWAP3 SWAP1 POP JUMP JUMPDEST PUSH1 0x0 DUP2 MLOAD SWAP1 POP SWAP2 SWAP1 POP JUMP JUMPDEST PUSH1 0x0 DUP3 DUP3 MSTORE PUSH1 0x20 DUP3 ADD SWAP1 POP SWAP3 SWAP2 POP POP JUMP JUMPDEST PUSH1 0x0 DUP2 SWAP1 POP PUSH1 0x20 DUP3 ADD SWAP1 POP SWAP2 SWAP1 POP JUMP JUMPDEST PUSH1 0x0 PUSH2 0x1A44 DUP4 DUP4 PUSH2 0x1308 JUMP JUMPDEST SWAP1 POP SWAP3 SWAP2 POP POP JUMP JUMPDEST PUSH1 0x0 PUSH1 0x20 DUP3 ADD SWAP1 POP SWAP2 SWAP1 POP JUMP JUMPDEST PUSH1 0x0 PUSH2 0x1A64 DUP3 PUSH2 0x1A0C JUMP JUMPDEST PUSH2 0x1A6E DUP2 DUP6 PUSH2 0x1A17 JUMP JUMPDEST SWAP4 POP DUP4 PUSH1 0x20 DUP3 MUL DUP6 ADD PUSH2 0x1A80 DUP6 PUSH2 0x1A28 JUMP JUMPDEST DUP1 PUSH1 0x0 JUMPDEST DUP6 DUP2 LT ISZERO PUSH2 0x1ABC JUMPI DUP5 DUP5 SUB DUP10 MSTORE DUP2 MLOAD PUSH2 0x1A9D DUP6 DUP3 PUSH2 0x1A38 JUMP JUMPDEST SWAP5 POP PUSH2 0x1AA8 DUP4 PUSH2 0x1A4C JUMP JUMPDEST SWAP3 POP PUSH1 0x20 DUP11 ADD SWAP10 POP POP PUSH1 0x1 DUP2 ADD SWAP1 POP PUSH2 0x1A84 JUMP JUMPDEST POP DUP3 SWAP8 POP DUP8 SWAP6 POP POP POP POP POP POP SWAP3 SWAP2 POP POP JUMP JUMPDEST PUSH1 0x0 PUSH1 0x40 DUP4 ADD PUSH1 0x0 DUP4 ADD MLOAD PUSH2 0x1AE6 PUSH1 0x0 DUP7 ADD DUP3 PUSH2 0x1276 JUMP JUMPDEST POP PUSH1 0x20 DUP4 ADD MLOAD DUP5 DUP3 SUB PUSH1 0x20 DUP7 ADD MSTORE PUSH2 0x1AFE DUP3 DUP3 PUSH2 0x1A59 JUMP JUMPDEST SWAP2 POP POP DUP1 SWAP2 POP POP SWAP3 SWAP2 POP POP JUMP JUMPDEST PUSH1 0x0 PUSH1 0x20 DUP3 ADD SWAP1 POP DUP2 DUP2 SUB PUSH1 0x0 DUP4 ADD MSTORE PUSH2 0x1B25 DUP2 DUP5 PUSH2 0x1ACE JUMP JUMPDEST SWAP1 POP SWAP3 SWAP2 POP POP JUMP JUMPDEST PUSH1 0x0 DUP1 PUSH1 0x0 DUP1 PUSH1 0x80 DUP6 DUP8 SUB SLT ISZERO PUSH2 0x1B47 JUMPI PUSH2 0x1B46 PUSH2 0x11D5 JUMP JUMPDEST JUMPDEST PUSH1 0x0 PUSH2 0x1B55 DUP8 DUP3 DUP9 ADD PUSH2 0x1228 JUMP JUMPDEST SWAP5 POP POP PUSH1 0x20 PUSH2 0x1B66 DUP8 DUP3 DUP9 ADD PUSH2 0x1228 JUMP JUMPDEST SWAP4 POP POP PUSH1 0x40 DUP6 ADD CALLDATALOAD PUSH8 0xFFFFFFFFFFFFFFFF DUP2 GT ISZERO PUSH2 0x1B87 JUMPI PUSH2 0x1B86 PUSH2 0x11DA JUMP JUMPDEST JUMPDEST PUSH2 0x1B93 DUP8 DUP3 DUP9 ADD PUSH2 0x15E1 JUMP JUMPDEST SWAP3 POP POP PUSH1 0x60 DUP6 ADD CALLDATALOAD PUSH8 0xFFFFFFFFFFFFFFFF DUP2 GT ISZERO PUSH2 0x1BB4 JUMPI PUSH2 0x1BB3 PUSH2 0x11DA JUMP JUMPDEST JUMPDEST PUSH2 0x1BC0 DUP8 DUP3 DUP9 ADD PUSH2 0x15E1 JUMP JUMPDEST SWAP2 POP POP SWAP3 SWAP6 SWAP2 SWAP5 POP SWAP3 POP JUMP JUMPDEST PUSH2 0x1BD5 DUP2 PUSH2 0x126A JUMP JUMPDEST DUP3 MSTORE POP POP JUMP JUMPDEST PUSH1 0x0 PUSH1 0x20 DUP3 ADD SWAP1 POP PUSH2 0x1BF0 PUSH1 0x0 DUP4 ADD DUP5 PUSH2 0x1BCC JUMP JUMPDEST SWAP3 SWAP2 POP POP JUMP JUMPDEST PUSH1 0x0 PUSH1 0x40 DUP4 ADD PUSH1 0x0 DUP4 ADD MLOAD PUSH2 0x1C0E PUSH1 0x0 DUP7 ADD DUP3 PUSH2 0x1276 JUMP JUMPDEST POP PUSH1 0x20 DUP4 ADD MLOAD DUP5 DUP3 SUB PUSH1 0x20 DUP7 ADD MSTORE PUSH2 0x1C26 DUP3 DUP3 PUSH2 0x1308 JUMP JUMPDEST SWAP2 POP POP DUP1 SWAP2 POP POP SWAP3 SWAP2 POP POP JUMP JUMPDEST PUSH1 0x0 PUSH1 0x20 DUP3 ADD SWAP1 POP DUP2 DUP2 SUB PUSH1 0x0 DUP4 ADD MSTORE PUSH2 0x1C4D DUP2 DUP5 PUSH2 0x1BF6 JUMP JUMPDEST SWAP1 POP SWAP3 SWAP2 POP POP JUMP JUMPDEST PUSH1 0x0 DUP1 PUSH1 0x0 PUSH1 0x60 DUP5 DUP7 SUB SLT ISZERO PUSH2 0x1C6E JUMPI PUSH2 0x1C6D PUSH2 0x11D5 JUMP JUMPDEST JUMPDEST PUSH1 0x0 DUP5 ADD CALLDATALOAD PUSH8 0xFFFFFFFFFFFFFFFF DUP2 GT ISZERO PUSH2 0x1C8C JUMPI PUSH2 0x1C8B PUSH2 0x11DA JUMP JUMPDEST JUMPDEST PUSH2 0x1C98 DUP7 DUP3 DUP8 ADD PUSH2 0x160F JUMP JUMPDEST SWAP4 POP POP PUSH1 0x20 DUP5 ADD CALLDATALOAD PUSH8 0xFFFFFFFFFFFFFFFF DUP2 GT ISZERO PUSH2 0x1CB9 JUMPI PUSH2 0x1CB8 PUSH2 0x11DA JUMP JUMPDEST JUMPDEST PUSH2 0x1CC5 DUP7 DUP3 DUP8 ADD PUSH2 0x16DB JUMP JUMPDEST SWAP3 POP POP PUSH1 0x40 DUP5 ADD CALLDATALOAD PUSH8 0xFFFFFFFFFFFFFFFF DUP2 GT ISZERO PUSH2 0x1CE6 JUMPI PUSH2 0x1CE5 PUSH2 0x11DA JUMP JUMPDEST JUMPDEST PUSH2 0x1CF2 DUP7 DUP3 DUP8 ADD PUSH2 0x188F JUMP JUMPDEST SWAP2 POP POP SWAP3 POP SWAP3 POP SWAP3 JUMP JUMPDEST PUSH1 0x0 DUP1 PUSH1 0x0 PUSH1 0x60 DUP5 DUP7 SUB SLT ISZERO PUSH2 0x1D15 JUMPI PUSH2 0x1D14 PUSH2 0x11D5 JUMP JUMPDEST JUMPDEST PUSH1 0x0 DUP5 ADD CALLDATALOAD PUSH8 0xFFFFFFFFFFFFFFFF DUP2 GT ISZERO PUSH2 0x1D33 JUMPI PUSH2 0x1D32 PUSH2 0x11DA JUMP JUMPDEST JUMPDEST PUSH2 0x1D3F DUP7 DUP3 DUP8 ADD PUSH2 0x160F JUMP JUMPDEST SWAP4 POP POP PUSH1 0x20 DUP5 ADD CALLDATALOAD PUSH8 0xFFFFFFFFFFFFFFFF DUP2 GT ISZERO PUSH2 0x1D60 JUMPI PUSH2 0x1D5F PUSH2 0x11DA JUMP JUMPDEST JUMPDEST PUSH2 0x1D6C DUP7 DUP3 DUP8 ADD PUSH2 0x16DB JUMP JUMPDEST SWAP3 POP POP PUSH1 0x40 DUP5 ADD CALLDATALOAD PUSH8 0xFFFFFFFFFFFFFFFF DUP2 GT ISZERO PUSH2 0x1D8D JUMPI PUSH2 0x1D8C PUSH2 0x11DA JUMP JUMPDEST JUMPDEST PUSH2 0x1D99 DUP7 DUP3 DUP8 ADD PUSH2 0x15E1 JUMP JUMPDEST SWAP2 POP POP SWAP3 POP SWAP3 POP SWAP3 JUMP JUMPDEST PUSH32 0x4E487B7100000000000000000000000000000000000000000000000000000000 PUSH1 0x0 MSTORE PUSH1 0x32 PUSH1 0x4 MSTORE PUSH1 0x24 PUSH1 0x0 REVERT JUMPDEST PUSH32 0x4E487B7100000000000000000000000000000000000000000000000000000000 PUSH1 0x0 MSTORE PUSH1 0x22 PUSH1 0x4 MSTORE PUSH1 0x24 PUSH1 0x0 REVERT JUMPDEST PUSH1 0x0 PUSH1 0x2 DUP3 DIV SWAP1 POP PUSH1 0x1 DUP3 AND DUP1 PUSH2 0x1E19 JUMPI PUSH1 0x7F DUP3 AND SWAP2 POP JUMPDEST PUSH1 0x20 DUP3 LT DUP2 SUB PUSH2 0x1E2C JUMPI PUSH2 0x1E2B PUSH2 0x1DD2 JUMP JUMPDEST JUMPDEST POP SWAP2 SWAP1 POP JUMP JUMPDEST PUSH1 0x0 DUP3 DUP3 MSTORE PUSH1 0x20 DUP3 ADD SWAP1 POP SWAP3 SWAP2 POP POP JUMP JUMPDEST PUSH1 0x0 PUSH2 0x1E4E DUP3 PUSH2 0x12B1 JUMP JUMPDEST PUSH2 0x1E58 DUP2 DUP6 PUSH2 0x1E32 JUMP JUMPDEST SWAP4 POP PUSH2 0x1E68 DUP2 DUP6 PUSH1 0x20 DUP7 ADD PUSH2 0x12CD JUMP JUMPDEST PUSH2 0x1E71 DUP2 PUSH2 0x12F7 JUMP JUMPDEST DUP5 ADD SWAP2 POP POP SWAP3 SWAP2 POP POP JUMP JUMPDEST PUSH1 0x0 PUSH1 0x20 DUP3 ADD SWAP1 POP DUP2 DUP2 SUB PUSH1 0x0 DUP4 ADD MSTORE PUSH2 0x1E96 DUP2 DUP5 PUSH2 0x1E43 JUMP JUMPDEST SWAP1 POP SWAP3 SWAP2 POP POP JUMP JUMPDEST PUSH2 0x1EA7 DUP2 PUSH2 0x126A JUMP JUMPDEST DUP2 EQ PUSH2 0x1EB2 JUMPI PUSH1 0x0 DUP1 REVERT JUMPDEST POP JUMP JUMPDEST PUSH1 0x0 DUP2 MLOAD SWAP1 POP PUSH2 0x1EC4 DUP2 PUSH2 0x1E9E JUMP JUMPDEST SWAP3 SWAP2 POP POP JUMP JUMPDEST PUSH1 0x0 PUSH2 0x1EDD PUSH2 0x1ED8 DUP5 PUSH2 0x155F JUMP JUMPDEST PUSH2 0x1535 JUMP JUMPDEST SWAP1 POP DUP3 DUP2 MSTORE PUSH1 0x20 DUP2 ADD DUP5 DUP5 DUP5 ADD GT ISZERO PUSH2 0x1EF9 JUMPI PUSH2 0x1EF8 PUSH2 0x155A JUMP JUMPDEST JUMPDEST PUSH2 0x1F04 DUP5 DUP3 DUP6 PUSH2 0x12CD JUMP JUMPDEST POP SWAP4 SWAP3 POP POP POP JUMP JUMPDEST PUSH1 0x0 DUP3 PUSH1 0x1F DUP4 ADD SLT PUSH2 0x1F21 JUMPI PUSH2 0x1F20 PUSH2 0x1555 JUMP JUMPDEST JUMPDEST DUP2 MLOAD PUSH2 0x1F31 DUP5 DUP3 PUSH1 0x20 DUP7 ADD PUSH2 0x1ECA JUMP JUMPDEST SWAP2 POP POP SWAP3 SWAP2 POP POP JUMP JUMPDEST PUSH1 0x0 DUP2 MLOAD SWAP1 POP PUSH2 0x1F49 DUP2 PUSH2 0x1211 JUMP JUMPDEST SWAP3 SWAP2 POP POP JUMP JUMPDEST PUSH1 0x0 PUSH1 0xA0 DUP3 DUP5 SUB SLT ISZERO PUSH2 0x1F65 JUMPI PUSH2 0x1F64 PUSH2 0x14D0 JUMP JUMPDEST JUMPDEST PUSH2 0x1F6F PUSH1 0xA0 PUSH2 0x1535 JUMP JUMPDEST SWAP1 POP PUSH1 0x0 DUP3 ADD MLOAD PUSH8 0xFFFFFFFFFFFFFFFF DUP2 GT ISZERO PUSH2 0x1F8F JUMPI PUSH2 0x1F8E PUSH2 0x1550 JUMP JUMPDEST JUMPDEST PUSH2 0x1F9B DUP5 DUP3 DUP6 ADD PUSH2 0x1F0C JUMP JUMPDEST PUSH1 0x0 DUP4 ADD MSTORE POP PUSH1 0x20 DUP3 ADD MLOAD PUSH8 0xFFFFFFFFFFFFFFFF DUP2 GT ISZERO PUSH2 0x1FBF JUMPI PUSH2 0x1FBE PUSH2 0x1550 JUMP JUMPDEST JUMPDEST PUSH2 0x1FCB DUP5 DUP3 DUP6 ADD PUSH2 0x1F0C JUMP JUMPDEST PUSH1 0x20 DUP4 ADD MSTORE POP PUSH1 0x40 PUSH2 0x1FDF DUP5 DUP3 DUP6 ADD PUSH2 0x1F3A JUMP JUMPDEST PUSH1 0x40 DUP4 ADD MSTORE POP PUSH1 0x60 DUP3 ADD MLOAD PUSH8 0xFFFFFFFFFFFFFFFF DUP2 GT ISZERO PUSH2 0x2003 JUMPI PUSH2 0x2002 PUSH2 0x1550 JUMP JUMPDEST JUMPDEST PUSH2 0x200F DUP5 DUP3 DUP6 ADD PUSH2 0x1F0C JUMP JUMPDEST PUSH1 0x60 DUP4 ADD MSTORE POP PUSH1 0x80 DUP3 ADD MLOAD PUSH8 0xFFFFFFFFFFFFFFFF DUP2 GT ISZERO PUSH2 0x2033 JUMPI PUSH2 0x2032 PUSH2 0x1550 JUMP JUMPDEST JUMPDEST PUSH2 0x203F DUP5 DUP3 DUP6 ADD PUSH2 0x1F0C JUMP JUMPDEST PUSH1 0x80 DUP4 ADD MSTORE POP SWAP3 SWAP2 POP POP JUMP JUMPDEST PUSH1 0x0 PUSH1 0x40 DUP3 DUP5 SUB SLT ISZERO PUSH2 0x2061 JUMPI PUSH2 0x2060 PUSH2 0x14D0 JUMP JUMPDEST JUMPDEST PUSH2 0x206B PUSH1 0x40 PUSH2 0x1535 JUMP JUMPDEST SWAP1 POP PUSH1 0x0 PUSH2 0x207B DUP5 DUP3 DUP6 ADD PUSH2 0x1EB5 JUMP JUMPDEST PUSH1 0x0 DUP4 ADD MSTORE POP PUSH1 0x20 DUP3 ADD MLOAD PUSH8 0xFFFFFFFFFFFFFFFF DUP2 GT ISZERO PUSH2 0x209F JUMPI PUSH2 0x209E PUSH2 0x1550 JUMP JUMPDEST JUMPDEST PUSH2 0x20AB DUP5 DUP3 DUP6 ADD PUSH2 0x1F4F JUMP JUMPDEST PUSH1 0x20 DUP4 ADD MSTORE POP SWAP3 SWAP2 POP POP JUMP JUMPDEST PUSH1 0x0 PUSH1 0x20 DUP3 DUP5 SUB SLT ISZERO PUSH2 0x20CD JUMPI PUSH2 0x20CC PUSH2 0x11D5 JUMP JUMPDEST JUMPDEST PUSH1 0x0 DUP3 ADD MLOAD PUSH8 0xFFFFFFFFFFFFFFFF DUP2 GT ISZERO PUSH2 0x20EB JUMPI PUSH2 0x20EA PUSH2 0x11DA JUMP JUMPDEST JUMPDEST PUSH2 0x20F7 DUP5 DUP3 DUP6 ADD PUSH2 0x204B JUMP JUMPDEST SWAP2 POP POP SWAP3 SWAP2 POP POP JUMP JUMPDEST PUSH32 0x4E487B7100000000000000000000000000000000000000000000000000000000 PUSH1 0x0 MSTORE PUSH1 0x11 PUSH1 0x4 MSTORE PUSH1 0x24 PUSH1 0x0 REVERT JUMPDEST PUSH1 0x0 DUP2 SWAP1 POP SWAP2 SWAP1 POP JUMP JUMPDEST PUSH1 0x0 PUSH2 0x2144 DUP3 PUSH2 0x212F JUMP JUMPDEST SWAP2 POP PUSH32 0xFFFFFFFFFFFFFFFFFFFFFFFFFFFFFFFFFFFFFFFFFFFFFFFFFFFFFFFFFFFFFFFF DUP3 SUB PUSH2 0x2176 JUMPI PUSH2 0x2175 PUSH2 0x2100 JUMP JUMPDEST JUMPDEST PUSH1 0x1 DUP3 ADD SWAP1 POP SWAP2 SWAP1 POP JUMP JUMPDEST PUSH1 0x0 DUP2 SWAP1 POP DUP2 PUSH1 0x0 MSTORE PUSH1 0x20 PUSH1 0x0 KECCAK256 SWAP1 POP SWAP2 SWAP1 POP JUMP JUMPDEST PUSH1 0x0 PUSH1 0x20 PUSH1 0x1F DUP4 ADD DIV SWAP1 POP SWAP2 SWAP1 POP JUMP JUMPDEST PUSH1 0x0 DUP3 DUP3 SHL SWAP1 POP SWAP3 SWAP2 POP POP JUMP JUMPDEST PUSH1 0x0 PUSH1 0x8 DUP4 MUL PUSH2 0x21E3 PUSH32 0xFFFFFFFFFFFFFFFFFFFFFFFFFFFFFFFFFFFFFFFFFFFFFFFFFFFFFFFFFFFFFFFF DUP3 PUSH2 0x21A6 JUMP JUMPDEST PUSH2 0x21ED DUP7 DUP4 PUSH2 0x21A6 JUMP JUMPDEST SWAP6 POP DUP1 NOT DUP5 AND SWAP4 POP DUP1 DUP7 AND DUP5 OR SWAP3 POP POP POP SWAP4 SWAP3 POP POP POP JUMP JUMPDEST PUSH1 0x0 DUP2 SWAP1 POP SWAP2 SWAP1 POP JUMP JUMPDEST PUSH1 0x0 PUSH2 0x222A PUSH2 0x2225 PUSH2 0x2220 DUP5 PUSH2 0x212F JUMP JUMPDEST PUSH2 0x2205 JUMP JUMPDEST PUSH2 0x212F JUMP JUMPDEST SWAP1 POP SWAP2 SWAP1 POP JUMP JUMPDEST PUSH1 0x0 DUP2 SWAP1 POP SWAP2 SWAP1 POP JUMP JUMPDEST PUSH2 0x2244 DUP4 PUSH2 0x220F JUMP JUMPDEST PUSH2 0x2258 PUSH2 0x2250 DUP3 PUSH2 0x2231 JUMP JUMPDEST DUP5 DUP5 SLOAD PUSH2 0x21B3 JUMP JUMPDEST DUP3 SSTORE POP POP POP POP JUMP JUMPDEST PUSH1 0x0 SWAP1 JUMP JUMPDEST PUSH2 0x226D PUSH2 0x2260 JUMP JUMPDEST PUSH2 0x2278 DUP2 DUP5 DUP5 PUSH2 0x223B JUMP JUMPDEST POP POP POP JUMP JUMPDEST JUMPDEST DUP2 DUP2 LT ISZERO PUSH2 0x229C JUMPI PUSH2 0x2291 PUSH1 0x0 DUP3 PUSH2 0x2265 JUMP JUMPDEST PUSH1 0x1 DUP2 ADD SWAP1 POP PUSH2 0x227E JUMP JUMPDEST POP POP JUMP JUMPDEST PUSH1 0x1F DUP3 GT ISZERO PUSH2 0x22E1 JUMPI PUSH2 0x22B2 DUP2 PUSH2 0x2181 JUMP JUMPDEST PUSH2 0x22BB DUP5 PUSH2 0x2196 JUMP JUMPDEST DUP2 ADD PUSH1 0x20 DUP6 LT ISZERO PUSH2 0x22CA JUMPI DUP2 SWAP1 POP JUMPDEST PUSH2 0x22DE PUSH2 0x22D6 DUP6 PUSH2 0x2196 JUMP JUMPDEST DUP4 ADD DUP3 PUSH2 0x227D JUMP JUMPDEST POP POP JUMPDEST POP POP POP JUMP JUMPDEST PUSH1 0x0 DUP3 DUP3 SHR SWAP1 POP SWAP3 SWAP2 POP POP JUMP JUMPDEST PUSH1 0x0 PUSH2 0x2304 PUSH1 0x0 NOT DUP5 PUSH1 0x8 MUL PUSH2 0x22E6 JUMP JUMPDEST NOT DUP1 DUP4 AND SWAP2 POP POP SWAP3 SWAP2 POP POP JUMP JUMPDEST PUSH1 0x0 PUSH2 0x231D DUP4 DUP4 PUSH2 0x22F3 JUMP JUMPDEST SWAP2 POP DUP3 PUSH1 0x2 MUL DUP3 OR SWAP1 POP SWAP3 SWAP2 POP POP JUMP JUMPDEST PUSH2 0x2336 DUP3 PUSH2 0x12B1 JUMP JUMPDEST PUSH8 0xFFFFFFFFFFFFFFFF DUP2 GT ISZERO PUSH2 0x234F JUMPI PUSH2 0x234E PUSH2 0x14D5 JUMP JUMPDEST JUMPDEST PUSH2 0x2359 DUP3 SLOAD PUSH2 0x1E01 JUMP JUMPDEST PUSH2 0x2364 DUP3 DUP3 DUP6 PUSH2 0x22A0 JUMP JUMPDEST PUSH1 0x0 PUSH1 0x20 SWAP1 POP PUSH1 0x1F DUP4 GT PUSH1 0x1 DUP2 EQ PUSH2 0x2397 JUMPI PUSH1 0x0 DUP5 ISZERO PUSH2 0x2385 JUMPI DUP3 DUP8 ADD MLOAD SWAP1 POP JUMPDEST PUSH2 0x238F DUP6 DUP3 PUSH2 0x2311 JUMP JUMPDEST DUP7 SSTORE POP PUSH2 0x23F7 JUMP JUMPDEST PUSH1 0x1F NOT DUP5 AND PUSH2 0x23A5 DUP7 PUSH2 0x2181 JUMP JUMPDEST PUSH1 0x0 JUMPDEST DUP3 DUP2 LT ISZERO PUSH2 0x23CD JUMPI DUP5 DUP10 ADD MLOAD DUP3 SSTORE PUSH1 0x1 DUP3 ADD SWAP2 POP PUSH1 0x20 DUP6 ADD SWAP5 POP PUSH1 0x20 DUP2 ADD SWAP1 POP PUSH2 0x23A8 JUMP JUMPDEST DUP7 DUP4 LT ISZERO PUSH2 0x23EA JUMPI DUP5 DUP10 ADD MLOAD PUSH2 0x23E6 PUSH1 0x1F DUP10 AND DUP3 PUSH2 0x22F3 JUMP JUMPDEST DUP4 SSTORE POP JUMPDEST PUSH1 0x1 PUSH1 0x2 DUP9 MUL ADD DUP9 SSTORE POP POP POP JUMPDEST POP POP POP POP POP POP JUMP JUMPDEST PUSH1 0x0 DUP2 SWAP1 POP SWAP3 SWAP2 POP POP JUMP JUMPDEST PUSH1 0x0 PUSH2 0x2415 DUP3 PUSH2 0x12B1 JUMP JUMPDEST PUSH2 0x241F DUP2 DUP6 PUSH2 0x23FF JUMP JUMPDEST SWAP4 POP PUSH2 0x242F DUP2 DUP6 PUSH1 0x20 DUP7 ADD PUSH2 0x12CD JUMP JUMPDEST DUP1 DUP5 ADD SWAP2 POP POP SWAP3 SWAP2 POP POP JUMP JUMPDEST PUSH1 0x0 PUSH2 0x2447 DUP3 DUP5 PUSH2 0x240A JUMP JUMPDEST SWAP2 POP DUP2 SWAP1 POP SWAP3 SWAP2 POP POP JUMP JUMPDEST PUSH1 0x0 PUSH1 0xA0 DUP4 ADD PUSH1 0x0 DUP4 ADD MLOAD DUP5 DUP3 SUB PUSH1 0x0 DUP7 ADD MSTORE PUSH2 0x246F DUP3 DUP3 PUSH2 0x1308 JUMP JUMPDEST SWAP2 POP POP PUSH1 0x20 DUP4 ADD MLOAD DUP5 DUP3 SUB PUSH1 0x20 DUP7 ADD MSTORE PUSH2 0x2489 DUP3 DUP3 PUSH2 0x1308 JUMP JUMPDEST SWAP2 POP POP PUSH1 0x40 DUP4 ADD MLOAD PUSH2 0x249E PUSH1 0x40 DUP7 ADD DUP3 PUSH2 0x1341 JUMP JUMPDEST POP PUSH1 0x60 DUP4 ADD MLOAD DUP5 DUP3 SUB PUSH1 0x60 DUP7 ADD MSTORE PUSH2 0x24B6 DUP3 DUP3 PUSH2 0x1308 JUMP JUMPDEST SWAP2 POP POP PUSH1 0x80 DUP4 ADD MLOAD DUP5 DUP3 SUB PUSH1 0x80 DUP7 ADD MSTORE PUSH2 0x24D0 DUP3 DUP3 PUSH2 0x1308 JUMP JUMPDEST SWAP2 POP POP DUP1 SWAP2 POP POP SWAP3 SWAP2 POP POP JUMP JUMPDEST PUSH1 0x0 PUSH1 0x20 DUP3 ADD SWAP1 POP DUP2 DUP2 SUB PUSH1 0x0 DUP4 ADD MSTORE PUSH2 0x24F7 DUP2 DUP5 PUSH2 0x2452 JUMP JUMPDEST SWAP1 POP SWAP3 SWAP2 POP POP JUMP INVALID LOG2 PUSH5 0x6970667358 0x22 SLT KECCAK256 RETURNDATASIZE SDIV 0xAC DUP5 DUP16 ISZERO BALANCE PUSH11 0xA54AD6AA83D99EAACCB630 0x29 CALLCODE 0xA5 CHAINID 0xBB PUSH29 0x4C08CB5C29C83064736F6C634300081300330000000000000000000000 "},"methodIdentifiers":{"addUserHasFile((address,string,string,string),(string,string,address,string,string),string,string[])":"3751d246","getEncSymmetricKeyFileUser((address,string,string,string),(string,string,address,string,string))":"5d02eece","getPermissionsOverFile((address,string,string,string),(string,string,address,string,string))":"533f2134","getUserFiles(address)":"1fc37922","isKeyEqual(address,address,string,string)":"5c99c71b","shareFile((address,string,string,string),(string,string,address,string,string),string,string[])":"9468a12e","updateUserFilePermissions((address,string,string,string),(string,string,address,string,string),string[])":"9e93635f","uploadFile((address,string,string,string),(string,string,address,string,string),string)":"de6b9f7d","userAssociatedWithFile((address,string,string,string),(string,string,address,string,string))":"ad4d2bb2"}}}}}