{"contracts/StoreFile.sol":{"StoreFile":{"abi":[{"anonymous":false,"inputs":[{"indexed":false,"internalType":"bool","name":"success","type":"bool"},{"indexed":false,"internalType":"string","name":"message","type":"string"}],"name":"UploadFileResult","type":"event"},{"inputs":[{"components":[{"internalType":"string","name":"fileName","type":"string"},{"internalType":"address","name":"owner","type":"address"},{"internalType":"string","name":"ipfsCID","type":"string"},{"internalType":"string","name":"fileType","type":"string"},{"internalType":"string","name":"iv","type":"string"}],"internalType":"struct File","name":"file","type":"tuple"},{"components":[{"internalType":"address","name":"account","type":"address"},{"internalType":"string","name":"name","type":"string"},{"internalType":"string","name":"publicKey","type":"string"},{"internalType":"string","name":"privateKey","type":"string"}],"internalType":"struct User","name":"user","type":"tuple"}],"name":"fileExists","outputs":[{"internalType":"string","name":"","type":"string"}],"stateMutability":"view","type":"function"},{"inputs":[{"components":[{"internalType":"address","name":"account","type":"address"},{"internalType":"string","name":"name","type":"string"},{"internalType":"string","name":"publicKey","type":"string"},{"internalType":"string","name":"privateKey","type":"string"}],"internalType":"struct User","name":"user","type":"tuple"},{"components":[{"internalType":"string","name":"fileName","type":"string"},{"internalType":"address","name":"owner","type":"address"},{"internalType":"string","name":"ipfsCID","type":"string"},{"internalType":"string","name":"fileType","type":"string"},{"internalType":"string","name":"iv","type":"string"}],"internalType":"struct File","name":"file","type":"tuple"}],"name":"getEncSymmetricKeyFileUser","outputs":[{"internalType":"string","name":"","type":"string"}],"stateMutability":"view","type":"function"},{"inputs":[{"internalType":"address","name":"account","type":"address"}],"name":"getUserFiles","outputs":[{"components":[{"internalType":"string","name":"fileName","type":"string"},{"internalType":"address","name":"owner","type":"address"},{"internalType":"string","name":"ipfsCID","type":"string"},{"internalType":"string","name":"fileType","type":"string"},{"internalType":"string","name":"iv","type":"string"}],"internalType":"struct File[]","name":"","type":"tuple[]"}],"stateMutability":"view","type":"function"},{"inputs":[{"components":[{"internalType":"string","name":"fileName","type":"string"},{"internalType":"address","name":"owner","type":"address"},{"internalType":"string","name":"ipfsCID","type":"string"},{"internalType":"string","name":"fileType","type":"string"},{"internalType":"string","name":"iv","type":"string"}],"internalType":"struct File","name":"file","type":"tuple"},{"internalType":"string","name":"encSymmetricKey","type":"string"},{"components":[{"internalType":"address","name":"account","type":"address"},{"internalType":"string","name":"name","type":"string"},{"internalType":"string","name":"publicKey","type":"string"},{"internalType":"string","name":"privateKey","type":"string"}],"internalType":"struct User","name":"user","type":"tuple"}],"name":"uploadFile","outputs":[],"stateMutability":"nonpayable","type":"function"}],"evm":{"bytecode":{"linkReferences":{},"object":"608060405234801561001057600080fd5b506119dd806100206000396000f3fe608060405234801561001057600080fd5b506004361061004c5760003560e01c80631fc3792214610051578063a494200114610081578063c041a425146100b1578063fb629ff1146100e1575b600080fd5b61006b60048036038101906100669190610ce7565b6100fd565b6040516100789190610f00565b60405180910390f35b61009b60048036038101906100969190611229565b6105ea565b6040516100a891906112eb565b60405180910390f35b6100cb60048036038101906100c6919061130d565b6107db565b6040516100d891906112eb565b60405180910390f35b6100fb60048036038101906100f69190611385565b6108af565b005b60606000808054905067ffffffffffffffff81111561011f5761011e610f27565b5b60405190808252806020026020018201604052801561015857816020015b610145610c30565b81526020019060019003908161013d5790505b5090506000805b6001805490508110156105dc578473ffffffffffffffffffffffffffffffffffffffff16600182815481106101975761019661142c565b5b906000526020600020906003020160000160009054906101000a900473ffffffffffffffffffffffffffffffffffffffff1673ffffffffffffffffffffffffffffffffffffffff16036105c9576000600182815481106101fa576101f961142c565b5b906000526020600020906003020160010180546102169061148a565b80601f01602080910402602001604051908101604052809291908181526020018280546102429061148a565b801561028f5780601f106102645761010080835404028352916020019161028f565b820191906000526020600020905b81548152906001019060200180831161027257829003601f168201915b505050505090506000610597826000805480602002602001604051908101604052809291908181526020016000905b8282101561058e57838290600052602060002090600502016040518060a00160405290816000820180546102f19061148a565b80601f016020809104026020016040519081016040528092919081815260200182805461031d9061148a565b801561036a5780601f1061033f5761010080835404028352916020019161036a565b820191906000526020600020905b81548152906001019060200180831161034d57829003601f168201915b505050505081526020016001820160009054906101000a900473ffffffffffffffffffffffffffffffffffffffff1673ffffffffffffffffffffffffffffffffffffffff1673ffffffffffffffffffffffffffffffffffffffff1681526020016002820180546103d99061148a565b80601f01602080910402602001604051908101604052809291908181526020018280546104059061148a565b80156104525780601f1061042757610100808354040283529160200191610452565b820191906000526020600020905b81548152906001019060200180831161043557829003601f168201915b5050505050815260200160038201805461046b9061148a565b80601f01602080910402602001604051908101604052809291908181526020018280546104979061148a565b80156104e45780601f106104b9576101008083540402835291602001916104e4565b820191906000526020600020905b8154815290600101906020018083116104c757829003601f168201915b505050505081526020016004820180546104fd9061148a565b80601f01602080910402602001604051908101604052809291908181526020018280546105299061148a565b80156105765780601f1061054b57610100808354040283529160200191610576565b820191906000526020600020905b81548152906001019060200180831161055957829003601f168201915b505050505081525050815260200190600101906102be565b50505050610af1565b9050808585815181106105ad576105ac61142c565b5b602002602001018190525083806105c3906114f4565b94505050505b80806105d4906114f4565b91505061015f565b508082528192505050919050565b606060005b6001805490508110156107c157836000015173ffffffffffffffffffffffffffffffffffffffff166001828154811061062b5761062a61142c565b5b906000526020600020906003020160000160009054906101000a900473ffffffffffffffffffffffffffffffffffffffff1673ffffffffffffffffffffffffffffffffffffffff161480156106f3575082600001516040516020016106909190611578565b60405160208183030381529060405280519060200120600182815481106106ba576106b961142c565b5b90600052602060002090600302016001016040516020016106db9190611627565b60405160208183030381529060405280519060200120145b156107ae576001818154811061070c5761070b61142c565b5b906000526020600020906003020160020180546107289061148a565b80601f01602080910402602001604051908101604052809291908181526020018280546107549061148a565b80156107a15780601f10610776576101008083540402835291602001916107a1565b820191906000526020600020905b81548152906001019060200180831161078457829003601f168201915b50505050509150506107d5565b80806107b9906114f4565b9150506105ef565b506040518060200160405280600081525090505b92915050565b606060006107ec83600001516100fd565b905060006107fe856000015183610af1565b905060405160200161080f90611664565b60405160208183030381529060405280519060200120816000015160405160200161083a9190611578565b6040516020818303038152906040528051906020012014610894576040518060400160405280601f81526020017f46696c652068617320746f2068617665206120756e69717565206e616d652e00815250925050506108a9565b60405180602001604052806000815250925050505b92915050565b60006108bb84836107db565b90506000815103610ab057600084908060018154018082558091505060019003906000526020600020906005020160009091909190915060008201518160000190816109079190611810565b5060208201518160010160006101000a81548173ffffffffffffffffffffffffffffffffffffffff021916908373ffffffffffffffffffffffffffffffffffffffff16021790555060408201518160020190816109649190611810565b50606082015181600301908161097a9190611810565b5060808201518160040190816109909190611810565b50505060006040518060600160405280846000015173ffffffffffffffffffffffffffffffffffffffff16815260200186600001518152602001858152509050600181908060018154018082558091505060019003906000526020600020906003020160009091909190915060008201518160000160006101000a81548173ffffffffffffffffffffffffffffffffffffffff021916908373ffffffffffffffffffffffffffffffffffffffff1602179055506020820151816001019081610a589190611810565b506040820151816002019081610a6e9190611810565b5050507f6c863839cfd32d0f6385600bd22dfa35736ff518a92acb2bc960cacad49fb9bf6001604051610aa19190611949565b60405180910390a15050610aec565b7f6c863839cfd32d0f6385600bd22dfa35736ff518a92acb2bc960cacad49fb9bf600082604051610ae2929190611977565b60405180910390a1505b505050565b610af9610c30565b60005b8251811015610bac5783604051602001610b169190611578565b60405160208183030381529060405280519060200120838281518110610b3f57610b3e61142c565b5b602002602001015160000151604051602001610b5b9190611578565b6040516020818303038152906040528051906020012003610b9957828181518110610b8957610b8861142c565b5b6020026020010151915050610c2a565b8080610ba4906114f4565b915050610afc565b506040518060a00160405280604051806020016040528060008152508152602001600073ffffffffffffffffffffffffffffffffffffffff1681526020016040518060200160405280600081525081526020016040518060200160405280600081525081526020016040518060200160405280600081525081525090505b92915050565b6040518060a0016040528060608152602001600073ffffffffffffffffffffffffffffffffffffffff1681526020016060815260200160608152602001606081525090565b6000604051905090565b600080fd5b600080fd5b600073ffffffffffffffffffffffffffffffffffffffff82169050919050565b6000610cb482610c89565b9050919050565b610cc481610ca9565b8114610ccf57600080fd5b50565b600081359050610ce181610cbb565b92915050565b600060208284031215610cfd57610cfc610c7f565b5b6000610d0b84828501610cd2565b91505092915050565b600081519050919050565b600082825260208201905092915050565b6000819050602082019050919050565b600081519050919050565b600082825260208201905092915050565b60005b83811015610d7a578082015181840152602081019050610d5f565b60008484015250505050565b6000601f19601f8301169050919050565b6000610da282610d40565b610dac8185610d4b565b9350610dbc818560208601610d5c565b610dc581610d86565b840191505092915050565b610dd981610ca9565b82525050565b600060a0830160008301518482036000860152610dfc8282610d97565b9150506020830151610e116020860182610dd0565b5060408301518482036040860152610e298282610d97565b91505060608301518482036060860152610e438282610d97565b91505060808301518482036080860152610e5d8282610d97565b9150508091505092915050565b6000610e768383610ddf565b905092915050565b6000602082019050919050565b6000610e9682610d14565b610ea08185610d1f565b935083602082028501610eb285610d30565b8060005b85811015610eee5784840389528151610ecf8582610e6a565b9450610eda83610e7e565b925060208a01995050600181019050610eb6565b50829750879550505050505092915050565b60006020820190508181036000830152610f1a8184610e8b565b905092915050565b600080fd5b7f4e487b7100000000000000000000000000000000000000000000000000000000600052604160045260246000fd5b610f5f82610d86565b810181811067ffffffffffffffff82111715610f7e57610f7d610f27565b5b80604052505050565b6000610f91610c75565b9050610f9d8282610f56565b919050565b600080fd5b600080fd5b600080fd5b600067ffffffffffffffff821115610fcc57610fcb610f27565b5b610fd582610d86565b9050602081019050919050565b82818337600083830152505050565b6000611004610fff84610fb1565b610f87565b9050828152602081018484840111156110205761101f610fac565b5b61102b848285610fe2565b509392505050565b600082601f83011261104857611047610fa7565b5b8135611058848260208601610ff1565b91505092915050565b60006080828403121561107757611076610f22565b5b6110816080610f87565b9050600061109184828501610cd2565b600083015250602082013567ffffffffffffffff8111156110b5576110b4610fa2565b5b6110c184828501611033565b602083015250604082013567ffffffffffffffff8111156110e5576110e4610fa2565b5b6110f184828501611033565b604083015250606082013567ffffffffffffffff81111561111557611114610fa2565b5b61112184828501611033565b60608301525092915050565b600060a0828403121561114357611142610f22565b5b61114d60a0610f87565b9050600082013567ffffffffffffffff81111561116d5761116c610fa2565b5b61117984828501611033565b600083015250602061118d84828501610cd2565b602083015250604082013567ffffffffffffffff8111156111b1576111b0610fa2565b5b6111bd84828501611033565b604083015250606082013567ffffffffffffffff8111156111e1576111e0610fa2565b5b6111ed84828501611033565b606083015250608082013567ffffffffffffffff81111561121157611210610fa2565b5b61121d84828501611033565b60808301525092915050565b600080604083850312156112405761123f610c7f565b5b600083013567ffffffffffffffff81111561125e5761125d610c84565b5b61126a85828601611061565b925050602083013567ffffffffffffffff81111561128b5761128a610c84565b5b6112978582860161112d565b9150509250929050565b600082825260208201905092915050565b60006112bd82610d40565b6112c781856112a1565b93506112d7818560208601610d5c565b6112e081610d86565b840191505092915050565b6000602082019050818103600083015261130581846112b2565b905092915050565b6000806040838503121561132457611323610c7f565b5b600083013567ffffffffffffffff81111561134257611341610c84565b5b61134e8582860161112d565b925050602083013567ffffffffffffffff81111561136f5761136e610c84565b5b61137b85828601611061565b9150509250929050565b60008060006060848603121561139e5761139d610c7f565b5b600084013567ffffffffffffffff8111156113bc576113bb610c84565b5b6113c88682870161112d565b935050602084013567ffffffffffffffff8111156113e9576113e8610c84565b5b6113f586828701611033565b925050604084013567ffffffffffffffff81111561141657611415610c84565b5b61142286828701611061565b9150509250925092565b7f4e487b7100000000000000000000000000000000000000000000000000000000600052603260045260246000fd5b7f4e487b7100000000000000000000000000000000000000000000000000000000600052602260045260246000fd5b600060028204905060018216806114a257607f821691505b6020821081036114b5576114b461145b565b5b50919050565b7f4e487b7100000000000000000000000000000000000000000000000000000000600052601160045260246000fd5b6000819050919050565b60006114ff826114ea565b91507fffffffffffffffffffffffffffffffffffffffffffffffffffffffffffffffff8203611531576115306114bb565b5b600182019050919050565b600081905092915050565b600061155282610d40565b61155c818561153c565b935061156c818560208601610d5c565b80840191505092915050565b60006115848284611547565b915081905092915050565b60008190508160005260206000209050919050565b600081546115b18161148a565b6115bb818661153c565b945060018216600081146115d657600181146115eb5761161e565b60ff198316865281151582028601935061161e565b6115f48561158f565b60005b83811015611616578154818901526001820191506020810190506115f7565b838801955050505b50505092915050565b600061163382846115a4565b915081905092915050565b50565b600061164e60008361153c565b91506116598261163e565b600082019050919050565b600061166f82611641565b9150819050919050565b60006020601f8301049050919050565b600082821b905092915050565b6000600883026116c67fffffffffffffffffffffffffffffffffffffffffffffffffffffffffffffffff82611689565b6116d08683611689565b95508019841693508086168417925050509392505050565b6000819050919050565b600061170d611708611703846114ea565b6116e8565b6114ea565b9050919050565b6000819050919050565b611727836116f2565b61173b61173382611714565b848454611696565b825550505050565b600090565b611750611743565b61175b81848461171e565b505050565b5b8181101561177f57611774600082611748565b600181019050611761565b5050565b601f8211156117c4576117958161158f565b61179e84611679565b810160208510156117ad578190505b6117c16117b985611679565b830182611760565b50505b505050565b600082821c905092915050565b60006117e7600019846008026117c9565b1980831691505092915050565b600061180083836117d6565b9150826002028217905092915050565b61181982610d40565b67ffffffffffffffff81111561183257611831610f27565b5b61183c825461148a565b611847828285611783565b600060209050601f83116001811461187a5760008415611868578287015190505b61187285826117f4565b8655506118da565b601f1984166118888661158f565b60005b828110156118b05784890151825560018201915060208501945060208101905061188b565b868310156118cd57848901516118c9601f8916826117d6565b8355505b6001600288020188555050505b505050505050565b60008115159050919050565b6118f7816118e2565b82525050565b7f46696c652075706c6f61646564207375636365737366756c6c792e0000000000600082015250565b6000611933601b836112a1565b915061193e826118fd565b602082019050919050565b600060408201905061195e60008301846118ee565b818103602083015261196f81611926565b905092915050565b600060408201905061198c60008301856118ee565b818103602083015261199e81846112b2565b9050939250505056fea2646970667358221220fe166d2e1271a2c5647fe06e6267829c20bd4b3c57793743f272a82ecfdc0e5c64736f6c63430008130033","opcodes":"PUSH1 0x80 PUSH1 0x40 MSTORE CALLVALUE DUP1 ISZERO PUSH2 0x10 JUMPI PUSH1 0x0 DUP1 REVERT JUMPDEST POP PUSH2 0x19DD DUP1 PUSH2 0x20 PUSH1 0x0 CODECOPY PUSH1 0x0 RETURN INVALID PUSH1 0x80 PUSH1 0x40 MSTORE CALLVALUE DUP1 ISZERO PUSH2 0x10 JUMPI PUSH1 0x0 DUP1 REVERT JUMPDEST POP PUSH1 0x4 CALLDATASIZE LT PUSH2 0x4C JUMPI PUSH1 0x0 CALLDATALOAD PUSH1 0xE0 SHR DUP1 PUSH4 0x1FC37922 EQ PUSH2 0x51 JUMPI DUP1 PUSH4 0xA4942001 EQ PUSH2 0x81 JUMPI DUP1 PUSH4 0xC041A425 EQ PUSH2 0xB1 JUMPI DUP1 PUSH4 0xFB629FF1 EQ PUSH2 0xE1 JUMPI JUMPDEST PUSH1 0x0 DUP1 REVERT JUMPDEST PUSH2 0x6B PUSH1 0x4 DUP1 CALLDATASIZE SUB DUP2 ADD SWAP1 PUSH2 0x66 SWAP2 SWAP1 PUSH2 0xCE7 JUMP JUMPDEST PUSH2 0xFD JUMP JUMPDEST PUSH1 0x40 MLOAD PUSH2 0x78 SWAP2 SWAP1 PUSH2 0xF00 JUMP JUMPDEST PUSH1 0x40 MLOAD DUP1 SWAP2 SUB SWAP1 RETURN JUMPDEST PUSH2 0x9B PUSH1 0x4 DUP1 CALLDATASIZE SUB DUP2 ADD SWAP1 PUSH2 0x96 SWAP2 SWAP1 PUSH2 0x1229 JUMP JUMPDEST PUSH2 0x5EA JUMP JUMPDEST PUSH1 0x40 MLOAD PUSH2 0xA8 SWAP2 SWAP1 PUSH2 0x12EB JUMP JUMPDEST PUSH1 0x40 MLOAD DUP1 SWAP2 SUB SWAP1 RETURN JUMPDEST PUSH2 0xCB PUSH1 0x4 DUP1 CALLDATASIZE SUB DUP2 ADD SWAP1 PUSH2 0xC6 SWAP2 SWAP1 PUSH2 0x130D JUMP JUMPDEST PUSH2 0x7DB JUMP JUMPDEST PUSH1 0x40 MLOAD PUSH2 0xD8 SWAP2 SWAP1 PUSH2 0x12EB JUMP JUMPDEST PUSH1 0x40 MLOAD DUP1 SWAP2 SUB SWAP1 RETURN JUMPDEST PUSH2 0xFB PUSH1 0x4 DUP1 CALLDATASIZE SUB DUP2 ADD SWAP1 PUSH2 0xF6 SWAP2 SWAP1 PUSH2 0x1385 JUMP JUMPDEST PUSH2 0x8AF JUMP JUMPDEST STOP JUMPDEST PUSH1 0x60 PUSH1 0x0 DUP1 DUP1 SLOAD SWAP1 POP PUSH8 0xFFFFFFFFFFFFFFFF DUP2 GT ISZERO PUSH2 0x11F JUMPI PUSH2 0x11E PUSH2 0xF27 JUMP JUMPDEST JUMPDEST PUSH1 0x40 MLOAD SWAP1 DUP1 DUP3 MSTORE DUP1 PUSH1 0x20 MUL PUSH1 0x20 ADD DUP3 ADD PUSH1 0x40 MSTORE DUP1 ISZERO PUSH2 0x158 JUMPI DUP2 PUSH1 0x20 ADD JUMPDEST PUSH2 0x145 PUSH2 0xC30 JUMP JUMPDEST DUP2 MSTORE PUSH1 0x20 ADD SWAP1 PUSH1 0x1 SWAP1 SUB SWAP1 DUP2 PUSH2 0x13D JUMPI SWAP1 POP JUMPDEST POP SWAP1 POP PUSH1 0x0 DUP1 JUMPDEST PUSH1 0x1 DUP1 SLOAD SWAP1 POP DUP2 LT ISZERO PUSH2 0x5DC JUMPI DUP5 PUSH20 0xFFFFFFFFFFFFFFFFFFFFFFFFFFFFFFFFFFFFFFFF AND PUSH1 0x1 DUP3 DUP2 SLOAD DUP2 LT PUSH2 0x197 JUMPI PUSH2 0x196 PUSH2 0x142C JUMP JUMPDEST JUMPDEST SWAP1 PUSH1 0x0 MSTORE PUSH1 0x20 PUSH1 0x0 KECCAK256 SWAP1 PUSH1 0x3 MUL ADD PUSH1 0x0 ADD PUSH1 0x0 SWAP1 SLOAD SWAP1 PUSH2 0x100 EXP SWAP1 DIV PUSH20 0xFFFFFFFFFFFFFFFFFFFFFFFFFFFFFFFFFFFFFFFF AND PUSH20 0xFFFFFFFFFFFFFFFFFFFFFFFFFFFFFFFFFFFFFFFF AND SUB PUSH2 0x5C9 JUMPI PUSH1 0x0 PUSH1 0x1 DUP3 DUP2 SLOAD DUP2 LT PUSH2 0x1FA JUMPI PUSH2 0x1F9 PUSH2 0x142C JUMP JUMPDEST JUMPDEST SWAP1 PUSH1 0x0 MSTORE PUSH1 0x20 PUSH1 0x0 KECCAK256 SWAP1 PUSH1 0x3 MUL ADD PUSH1 0x1 ADD DUP1 SLOAD PUSH2 0x216 SWAP1 PUSH2 0x148A JUMP JUMPDEST DUP1 PUSH1 0x1F ADD PUSH1 0x20 DUP1 SWAP2 DIV MUL PUSH1 0x20 ADD PUSH1 0x40 MLOAD SWAP1 DUP2 ADD PUSH1 0x40 MSTORE DUP1 SWAP3 SWAP2 SWAP1 DUP2 DUP2 MSTORE PUSH1 0x20 ADD DUP3 DUP1 SLOAD PUSH2 0x242 SWAP1 PUSH2 0x148A JUMP JUMPDEST DUP1 ISZERO PUSH2 0x28F JUMPI DUP1 PUSH1 0x1F LT PUSH2 0x264 JUMPI PUSH2 0x100 DUP1 DUP4 SLOAD DIV MUL DUP4 MSTORE SWAP2 PUSH1 0x20 ADD SWAP2 PUSH2 0x28F JUMP JUMPDEST DUP3 ADD SWAP2 SWAP1 PUSH1 0x0 MSTORE PUSH1 0x20 PUSH1 0x0 KECCAK256 SWAP1 JUMPDEST DUP2 SLOAD DUP2 MSTORE SWAP1 PUSH1 0x1 ADD SWAP1 PUSH1 0x20 ADD DUP1 DUP4 GT PUSH2 0x272 JUMPI DUP3 SWAP1 SUB PUSH1 0x1F AND DUP3 ADD SWAP2 JUMPDEST POP POP POP POP POP SWAP1 POP PUSH1 0x0 PUSH2 0x597 DUP3 PUSH1 0x0 DUP1 SLOAD DUP1 PUSH1 0x20 MUL PUSH1 0x20 ADD PUSH1 0x40 MLOAD SWAP1 DUP2 ADD PUSH1 0x40 MSTORE DUP1 SWAP3 SWAP2 SWAP1 DUP2 DUP2 MSTORE PUSH1 0x20 ADD PUSH1 0x0 SWAP1 JUMPDEST DUP3 DUP3 LT ISZERO PUSH2 0x58E JUMPI DUP4 DUP3 SWAP1 PUSH1 0x0 MSTORE PUSH1 0x20 PUSH1 0x0 KECCAK256 SWAP1 PUSH1 0x5 MUL ADD PUSH1 0x40 MLOAD DUP1 PUSH1 0xA0 ADD PUSH1 0x40 MSTORE SWAP1 DUP2 PUSH1 0x0 DUP3 ADD DUP1 SLOAD PUSH2 0x2F1 SWAP1 PUSH2 0x148A JUMP JUMPDEST DUP1 PUSH1 0x1F ADD PUSH1 0x20 DUP1 SWAP2 DIV MUL PUSH1 0x20 ADD PUSH1 0x40 MLOAD SWAP1 DUP2 ADD PUSH1 0x40 MSTORE DUP1 SWAP3 SWAP2 SWAP1 DUP2 DUP2 MSTORE PUSH1 0x20 ADD DUP3 DUP1 SLOAD PUSH2 0x31D SWAP1 PUSH2 0x148A JUMP JUMPDEST DUP1 ISZERO PUSH2 0x36A JUMPI DUP1 PUSH1 0x1F LT PUSH2 0x33F JUMPI PUSH2 0x100 DUP1 DUP4 SLOAD DIV MUL DUP4 MSTORE SWAP2 PUSH1 0x20 ADD SWAP2 PUSH2 0x36A JUMP JUMPDEST DUP3 ADD SWAP2 SWAP1 PUSH1 0x0 MSTORE PUSH1 0x20 PUSH1 0x0 KECCAK256 SWAP1 JUMPDEST DUP2 SLOAD DUP2 MSTORE SWAP1 PUSH1 0x1 ADD SWAP1 PUSH1 0x20 ADD DUP1 DUP4 GT PUSH2 0x34D JUMPI DUP3 SWAP1 SUB PUSH1 0x1F AND DUP3 ADD SWAP2 JUMPDEST POP POP POP POP POP DUP2 MSTORE PUSH1 0x20 ADD PUSH1 0x1 DUP3 ADD PUSH1 0x0 SWAP1 SLOAD SWAP1 PUSH2 0x100 EXP SWAP1 DIV PUSH20 0xFFFFFFFFFFFFFFFFFFFFFFFFFFFFFFFFFFFFFFFF AND PUSH20 0xFFFFFFFFFFFFFFFFFFFFFFFFFFFFFFFFFFFFFFFF AND PUSH20 0xFFFFFFFFFFFFFFFFFFFFFFFFFFFFFFFFFFFFFFFF AND DUP2 MSTORE PUSH1 0x20 ADD PUSH1 0x2 DUP3 ADD DUP1 SLOAD PUSH2 0x3D9 SWAP1 PUSH2 0x148A JUMP JUMPDEST DUP1 PUSH1 0x1F ADD PUSH1 0x20 DUP1 SWAP2 DIV MUL PUSH1 0x20 ADD PUSH1 0x40 MLOAD SWAP1 DUP2 ADD PUSH1 0x40 MSTORE DUP1 SWAP3 SWAP2 SWAP1 DUP2 DUP2 MSTORE PUSH1 0x20 ADD DUP3 DUP1 SLOAD PUSH2 0x405 SWAP1 PUSH2 0x148A JUMP JUMPDEST DUP1 ISZERO PUSH2 0x452 JUMPI DUP1 PUSH1 0x1F LT PUSH2 0x427 JUMPI PUSH2 0x100 DUP1 DUP4 SLOAD DIV MUL DUP4 MSTORE SWAP2 PUSH1 0x20 ADD SWAP2 PUSH2 0x452 JUMP JUMPDEST DUP3 ADD SWAP2 SWAP1 PUSH1 0x0 MSTORE PUSH1 0x20 PUSH1 0x0 KECCAK256 SWAP1 JUMPDEST DUP2 SLOAD DUP2 MSTORE SWAP1 PUSH1 0x1 ADD SWAP1 PUSH1 0x20 ADD DUP1 DUP4 GT PUSH2 0x435 JUMPI DUP3 SWAP1 SUB PUSH1 0x1F AND DUP3 ADD SWAP2 JUMPDEST POP POP POP POP POP DUP2 MSTORE PUSH1 0x20 ADD PUSH1 0x3 DUP3 ADD DUP1 SLOAD PUSH2 0x46B SWAP1 PUSH2 0x148A JUMP JUMPDEST DUP1 PUSH1 0x1F ADD PUSH1 0x20 DUP1 SWAP2 DIV MUL PUSH1 0x20 ADD PUSH1 0x40 MLOAD SWAP1 DUP2 ADD PUSH1 0x40 MSTORE DUP1 SWAP3 SWAP2 SWAP1 DUP2 DUP2 MSTORE PUSH1 0x20 ADD DUP3 DUP1 SLOAD PUSH2 0x497 SWAP1 PUSH2 0x148A JUMP JUMPDEST DUP1 ISZERO PUSH2 0x4E4 JUMPI DUP1 PUSH1 0x1F LT PUSH2 0x4B9 JUMPI PUSH2 0x100 DUP1 DUP4 SLOAD DIV MUL DUP4 MSTORE SWAP2 PUSH1 0x20 ADD SWAP2 PUSH2 0x4E4 JUMP JUMPDEST DUP3 ADD SWAP2 SWAP1 PUSH1 0x0 MSTORE PUSH1 0x20 PUSH1 0x0 KECCAK256 SWAP1 JUMPDEST DUP2 SLOAD DUP2 MSTORE SWAP1 PUSH1 0x1 ADD SWAP1 PUSH1 0x20 ADD DUP1 DUP4 GT PUSH2 0x4C7 JUMPI DUP3 SWAP1 SUB PUSH1 0x1F AND DUP3 ADD SWAP2 JUMPDEST POP POP POP POP POP DUP2 MSTORE PUSH1 0x20 ADD PUSH1 0x4 DUP3 ADD DUP1 SLOAD PUSH2 0x4FD SWAP1 PUSH2 0x148A JUMP JUMPDEST DUP1 PUSH1 0x1F ADD PUSH1 0x20 DUP1 SWAP2 DIV MUL PUSH1 0x20 ADD PUSH1 0x40 MLOAD SWAP1 DUP2 ADD PUSH1 0x40 MSTORE DUP1 SWAP3 SWAP2 SWAP1 DUP2 DUP2 MSTORE PUSH1 0x20 ADD DUP3 DUP1 SLOAD PUSH2 0x529 SWAP1 PUSH2 0x148A JUMP JUMPDEST DUP1 ISZERO PUSH2 0x576 JUMPI DUP1 PUSH1 0x1F LT PUSH2 0x54B JUMPI PUSH2 0x100 DUP1 DUP4 SLOAD DIV MUL DUP4 MSTORE SWAP2 PUSH1 0x20 ADD SWAP2 PUSH2 0x576 JUMP JUMPDEST DUP3 ADD SWAP2 SWAP1 PUSH1 0x0 MSTORE PUSH1 0x20 PUSH1 0x0 KECCAK256 SWAP1 JUMPDEST DUP2 SLOAD DUP2 MSTORE SWAP1 PUSH1 0x1 ADD SWAP1 PUSH1 0x20 ADD DUP1 DUP4 GT PUSH2 0x559 JUMPI DUP3 SWAP1 SUB PUSH1 0x1F AND DUP3 ADD SWAP2 JUMPDEST POP POP POP POP POP DUP2 MSTORE POP POP DUP2 MSTORE PUSH1 0x20 ADD SWAP1 PUSH1 0x1 ADD SWAP1 PUSH2 0x2BE JUMP JUMPDEST POP POP POP POP PUSH2 0xAF1 JUMP JUMPDEST SWAP1 POP DUP1 DUP6 DUP6 DUP2 MLOAD DUP2 LT PUSH2 0x5AD JUMPI PUSH2 0x5AC PUSH2 0x142C JUMP JUMPDEST JUMPDEST PUSH1 0x20 MUL PUSH1 0x20 ADD ADD DUP2 SWAP1 MSTORE POP DUP4 DUP1 PUSH2 0x5C3 SWAP1 PUSH2 0x14F4 JUMP JUMPDEST SWAP5 POP POP POP POP JUMPDEST DUP1 DUP1 PUSH2 0x5D4 SWAP1 PUSH2 0x14F4 JUMP JUMPDEST SWAP2 POP POP PUSH2 0x15F JUMP JUMPDEST POP DUP1 DUP3 MSTORE DUP2 SWAP3 POP POP POP SWAP2 SWAP1 POP JUMP JUMPDEST PUSH1 0x60 PUSH1 0x0 JUMPDEST PUSH1 0x1 DUP1 SLOAD SWAP1 POP DUP2 LT ISZERO PUSH2 0x7C1 JUMPI DUP4 PUSH1 0x0 ADD MLOAD PUSH20 0xFFFFFFFFFFFFFFFFFFFFFFFFFFFFFFFFFFFFFFFF AND PUSH1 0x1 DUP3 DUP2 SLOAD DUP2 LT PUSH2 0x62B JUMPI PUSH2 0x62A PUSH2 0x142C JUMP JUMPDEST JUMPDEST SWAP1 PUSH1 0x0 MSTORE PUSH1 0x20 PUSH1 0x0 KECCAK256 SWAP1 PUSH1 0x3 MUL ADD PUSH1 0x0 ADD PUSH1 0x0 SWAP1 SLOAD SWAP1 PUSH2 0x100 EXP SWAP1 DIV PUSH20 0xFFFFFFFFFFFFFFFFFFFFFFFFFFFFFFFFFFFFFFFF AND PUSH20 0xFFFFFFFFFFFFFFFFFFFFFFFFFFFFFFFFFFFFFFFF AND EQ DUP1 ISZERO PUSH2 0x6F3 JUMPI POP DUP3 PUSH1 0x0 ADD MLOAD PUSH1 0x40 MLOAD PUSH1 0x20 ADD PUSH2 0x690 SWAP2 SWAP1 PUSH2 0x1578 JUMP JUMPDEST PUSH1 0x40 MLOAD PUSH1 0x20 DUP2 DUP4 SUB SUB DUP2 MSTORE SWAP1 PUSH1 0x40 MSTORE DUP1 MLOAD SWAP1 PUSH1 0x20 ADD KECCAK256 PUSH1 0x1 DUP3 DUP2 SLOAD DUP2 LT PUSH2 0x6BA JUMPI PUSH2 0x6B9 PUSH2 0x142C JUMP JUMPDEST JUMPDEST SWAP1 PUSH1 0x0 MSTORE PUSH1 0x20 PUSH1 0x0 KECCAK256 SWAP1 PUSH1 0x3 MUL ADD PUSH1 0x1 ADD PUSH1 0x40 MLOAD PUSH1 0x20 ADD PUSH2 0x6DB SWAP2 SWAP1 PUSH2 0x1627 JUMP JUMPDEST PUSH1 0x40 MLOAD PUSH1 0x20 DUP2 DUP4 SUB SUB DUP2 MSTORE SWAP1 PUSH1 0x40 MSTORE DUP1 MLOAD SWAP1 PUSH1 0x20 ADD KECCAK256 EQ JUMPDEST ISZERO PUSH2 0x7AE JUMPI PUSH1 0x1 DUP2 DUP2 SLOAD DUP2 LT PUSH2 0x70C JUMPI PUSH2 0x70B PUSH2 0x142C JUMP JUMPDEST JUMPDEST SWAP1 PUSH1 0x0 MSTORE PUSH1 0x20 PUSH1 0x0 KECCAK256 SWAP1 PUSH1 0x3 MUL ADD PUSH1 0x2 ADD DUP1 SLOAD PUSH2 0x728 SWAP1 PUSH2 0x148A JUMP JUMPDEST DUP1 PUSH1 0x1F ADD PUSH1 0x20 DUP1 SWAP2 DIV MUL PUSH1 0x20 ADD PUSH1 0x40 MLOAD SWAP1 DUP2 ADD PUSH1 0x40 MSTORE DUP1 SWAP3 SWAP2 SWAP1 DUP2 DUP2 MSTORE PUSH1 0x20 ADD DUP3 DUP1 SLOAD PUSH2 0x754 SWAP1 PUSH2 0x148A JUMP JUMPDEST DUP1 ISZERO PUSH2 0x7A1 JUMPI DUP1 PUSH1 0x1F LT PUSH2 0x776 JUMPI PUSH2 0x100 DUP1 DUP4 SLOAD DIV MUL DUP4 MSTORE SWAP2 PUSH1 0x20 ADD SWAP2 PUSH2 0x7A1 JUMP JUMPDEST DUP3 ADD SWAP2 SWAP1 PUSH1 0x0 MSTORE PUSH1 0x20 PUSH1 0x0 KECCAK256 SWAP1 JUMPDEST DUP2 SLOAD DUP2 MSTORE SWAP1 PUSH1 0x1 ADD SWAP1 PUSH1 0x20 ADD DUP1 DUP4 GT PUSH2 0x784 JUMPI DUP3 SWAP1 SUB PUSH1 0x1F AND DUP3 ADD SWAP2 JUMPDEST POP POP POP POP POP SWAP2 POP POP PUSH2 0x7D5 JUMP JUMPDEST DUP1 DUP1 PUSH2 0x7B9 SWAP1 PUSH2 0x14F4 JUMP JUMPDEST SWAP2 POP POP PUSH2 0x5EF JUMP JUMPDEST POP PUSH1 0x40 MLOAD DUP1 PUSH1 0x20 ADD PUSH1 0x40 MSTORE DUP1 PUSH1 0x0 DUP2 MSTORE POP SWAP1 POP JUMPDEST SWAP3 SWAP2 POP POP JUMP JUMPDEST PUSH1 0x60 PUSH1 0x0 PUSH2 0x7EC DUP4 PUSH1 0x0 ADD MLOAD PUSH2 0xFD JUMP JUMPDEST SWAP1 POP PUSH1 0x0 PUSH2 0x7FE DUP6 PUSH1 0x0 ADD MLOAD DUP4 PUSH2 0xAF1 JUMP JUMPDEST SWAP1 POP PUSH1 0x40 MLOAD PUSH1 0x20 ADD PUSH2 0x80F SWAP1 PUSH2 0x1664 JUMP JUMPDEST PUSH1 0x40 MLOAD PUSH1 0x20 DUP2 DUP4 SUB SUB DUP2 MSTORE SWAP1 PUSH1 0x40 MSTORE DUP1 MLOAD SWAP1 PUSH1 0x20 ADD KECCAK256 DUP2 PUSH1 0x0 ADD MLOAD PUSH1 0x40 MLOAD PUSH1 0x20 ADD PUSH2 0x83A SWAP2 SWAP1 PUSH2 0x1578 JUMP JUMPDEST PUSH1 0x40 MLOAD PUSH1 0x20 DUP2 DUP4 SUB SUB DUP2 MSTORE SWAP1 PUSH1 0x40 MSTORE DUP1 MLOAD SWAP1 PUSH1 0x20 ADD KECCAK256 EQ PUSH2 0x894 JUMPI PUSH1 0x40 MLOAD DUP1 PUSH1 0x40 ADD PUSH1 0x40 MSTORE DUP1 PUSH1 0x1F DUP2 MSTORE PUSH1 0x20 ADD PUSH32 0x46696C652068617320746F2068617665206120756E69717565206E616D652E00 DUP2 MSTORE POP SWAP3 POP POP POP PUSH2 0x8A9 JUMP JUMPDEST PUSH1 0x40 MLOAD DUP1 PUSH1 0x20 ADD PUSH1 0x40 MSTORE DUP1 PUSH1 0x0 DUP2 MSTORE POP SWAP3 POP POP POP JUMPDEST SWAP3 SWAP2 POP POP JUMP JUMPDEST PUSH1 0x0 PUSH2 0x8BB DUP5 DUP4 PUSH2 0x7DB JUMP JUMPDEST SWAP1 POP PUSH1 0x0 DUP2 MLOAD SUB PUSH2 0xAB0 JUMPI PUSH1 0x0 DUP5 SWAP1 DUP1 PUSH1 0x1 DUP2 SLOAD ADD DUP1 DUP3 SSTORE DUP1 SWAP2 POP POP PUSH1 0x1 SWAP1 SUB SWAP1 PUSH1 0x0 MSTORE PUSH1 0x20 PUSH1 0x0 KECCAK256 SWAP1 PUSH1 0x5 MUL ADD PUSH1 0x0 SWAP1 SWAP2 SWAP1 SWAP2 SWAP1 SWAP2 POP PUSH1 0x0 DUP3 ADD MLOAD DUP2 PUSH1 0x0 ADD SWAP1 DUP2 PUSH2 0x907 SWAP2 SWAP1 PUSH2 0x1810 JUMP JUMPDEST POP PUSH1 0x20 DUP3 ADD MLOAD DUP2 PUSH1 0x1 ADD PUSH1 0x0 PUSH2 0x100 EXP DUP2 SLOAD DUP2 PUSH20 0xFFFFFFFFFFFFFFFFFFFFFFFFFFFFFFFFFFFFFFFF MUL NOT AND SWAP1 DUP4 PUSH20 0xFFFFFFFFFFFFFFFFFFFFFFFFFFFFFFFFFFFFFFFF AND MUL OR SWAP1 SSTORE POP PUSH1 0x40 DUP3 ADD MLOAD DUP2 PUSH1 0x2 ADD SWAP1 DUP2 PUSH2 0x964 SWAP2 SWAP1 PUSH2 0x1810 JUMP JUMPDEST POP PUSH1 0x60 DUP3 ADD MLOAD DUP2 PUSH1 0x3 ADD SWAP1 DUP2 PUSH2 0x97A SWAP2 SWAP1 PUSH2 0x1810 JUMP JUMPDEST POP PUSH1 0x80 DUP3 ADD MLOAD DUP2 PUSH1 0x4 ADD SWAP1 DUP2 PUSH2 0x990 SWAP2 SWAP1 PUSH2 0x1810 JUMP JUMPDEST POP POP POP PUSH1 0x0 PUSH1 0x40 MLOAD DUP1 PUSH1 0x60 ADD PUSH1 0x40 MSTORE DUP1 DUP5 PUSH1 0x0 ADD MLOAD PUSH20 0xFFFFFFFFFFFFFFFFFFFFFFFFFFFFFFFFFFFFFFFF AND DUP2 MSTORE PUSH1 0x20 ADD DUP7 PUSH1 0x0 ADD MLOAD DUP2 MSTORE PUSH1 0x20 ADD DUP6 DUP2 MSTORE POP SWAP1 POP PUSH1 0x1 DUP2 SWAP1 DUP1 PUSH1 0x1 DUP2 SLOAD ADD DUP1 DUP3 SSTORE DUP1 SWAP2 POP POP PUSH1 0x1 SWAP1 SUB SWAP1 PUSH1 0x0 MSTORE PUSH1 0x20 PUSH1 0x0 KECCAK256 SWAP1 PUSH1 0x3 MUL ADD PUSH1 0x0 SWAP1 SWAP2 SWAP1 SWAP2 SWAP1 SWAP2 POP PUSH1 0x0 DUP3 ADD MLOAD DUP2 PUSH1 0x0 ADD PUSH1 0x0 PUSH2 0x100 EXP DUP2 SLOAD DUP2 PUSH20 0xFFFFFFFFFFFFFFFFFFFFFFFFFFFFFFFFFFFFFFFF MUL NOT AND SWAP1 DUP4 PUSH20 0xFFFFFFFFFFFFFFFFFFFFFFFFFFFFFFFFFFFFFFFF AND MUL OR SWAP1 SSTORE POP PUSH1 0x20 DUP3 ADD MLOAD DUP2 PUSH1 0x1 ADD SWAP1 DUP2 PUSH2 0xA58 SWAP2 SWAP1 PUSH2 0x1810 JUMP JUMPDEST POP PUSH1 0x40 DUP3 ADD MLOAD DUP2 PUSH1 0x2 ADD SWAP1 DUP2 PUSH2 0xA6E SWAP2 SWAP1 PUSH2 0x1810 JUMP JUMPDEST POP POP POP PUSH32 0x6C863839CFD32D0F6385600BD22DFA35736FF518A92ACB2BC960CACAD49FB9BF PUSH1 0x1 PUSH1 0x40 MLOAD PUSH2 0xAA1 SWAP2 SWAP1 PUSH2 0x1949 JUMP JUMPDEST PUSH1 0x40 MLOAD DUP1 SWAP2 SUB SWAP1 LOG1 POP POP PUSH2 0xAEC JUMP JUMPDEST PUSH32 0x6C863839CFD32D0F6385600BD22DFA35736FF518A92ACB2BC960CACAD49FB9BF PUSH1 0x0 DUP3 PUSH1 0x40 MLOAD PUSH2 0xAE2 SWAP3 SWAP2 SWAP1 PUSH2 0x1977 JUMP JUMPDEST PUSH1 0x40 MLOAD DUP1 SWAP2 SUB SWAP1 LOG1 POP JUMPDEST POP POP POP JUMP JUMPDEST PUSH2 0xAF9 PUSH2 0xC30 JUMP JUMPDEST PUSH1 0x0 JUMPDEST DUP3 MLOAD DUP2 LT ISZERO PUSH2 0xBAC JUMPI DUP4 PUSH1 0x40 MLOAD PUSH1 0x20 ADD PUSH2 0xB16 SWAP2 SWAP1 PUSH2 0x1578 JUMP JUMPDEST PUSH1 0x40 MLOAD PUSH1 0x20 DUP2 DUP4 SUB SUB DUP2 MSTORE SWAP1 PUSH1 0x40 MSTORE DUP1 MLOAD SWAP1 PUSH1 0x20 ADD KECCAK256 DUP4 DUP3 DUP2 MLOAD DUP2 LT PUSH2 0xB3F JUMPI PUSH2 0xB3E PUSH2 0x142C JUMP JUMPDEST JUMPDEST PUSH1 0x20 MUL PUSH1 0x20 ADD ADD MLOAD PUSH1 0x0 ADD MLOAD PUSH1 0x40 MLOAD PUSH1 0x20 ADD PUSH2 0xB5B SWAP2 SWAP1 PUSH2 0x1578 JUMP JUMPDEST PUSH1 0x40 MLOAD PUSH1 0x20 DUP2 DUP4 SUB SUB DUP2 MSTORE SWAP1 PUSH1 0x40 MSTORE DUP1 MLOAD SWAP1 PUSH1 0x20 ADD KECCAK256 SUB PUSH2 0xB99 JUMPI DUP3 DUP2 DUP2 MLOAD DUP2 LT PUSH2 0xB89 JUMPI PUSH2 0xB88 PUSH2 0x142C JUMP JUMPDEST JUMPDEST PUSH1 0x20 MUL PUSH1 0x20 ADD ADD MLOAD SWAP2 POP POP PUSH2 0xC2A JUMP JUMPDEST DUP1 DUP1 PUSH2 0xBA4 SWAP1 PUSH2 0x14F4 JUMP JUMPDEST SWAP2 POP POP PUSH2 0xAFC JUMP JUMPDEST POP PUSH1 0x40 MLOAD DUP1 PUSH1 0xA0 ADD PUSH1 0x40 MSTORE DUP1 PUSH1 0x40 MLOAD DUP1 PUSH1 0x20 ADD PUSH1 0x40 MSTORE DUP1 PUSH1 0x0 DUP2 MSTORE POP DUP2 MSTORE PUSH1 0x20 ADD PUSH1 0x0 PUSH20 0xFFFFFFFFFFFFFFFFFFFFFFFFFFFFFFFFFFFFFFFF AND DUP2 MSTORE PUSH1 0x20 ADD PUSH1 0x40 MLOAD DUP1 PUSH1 0x20 ADD PUSH1 0x40 MSTORE DUP1 PUSH1 0x0 DUP2 MSTORE POP DUP2 MSTORE PUSH1 0x20 ADD PUSH1 0x40 MLOAD DUP1 PUSH1 0x20 ADD PUSH1 0x40 MSTORE DUP1 PUSH1 0x0 DUP2 MSTORE POP DUP2 MSTORE PUSH1 0x20 ADD PUSH1 0x40 MLOAD DUP1 PUSH1 0x20 ADD PUSH1 0x40 MSTORE DUP1 PUSH1 0x0 DUP2 MSTORE POP DUP2 MSTORE POP SWAP1 POP JUMPDEST SWAP3 SWAP2 POP POP JUMP JUMPDEST PUSH1 0x40 MLOAD DUP1 PUSH1 0xA0 ADD PUSH1 0x40 MSTORE DUP1 PUSH1 0x60 DUP2 MSTORE PUSH1 0x20 ADD PUSH1 0x0 PUSH20 0xFFFFFFFFFFFFFFFFFFFFFFFFFFFFFFFFFFFFFFFF AND DUP2 MSTORE PUSH1 0x20 ADD PUSH1 0x60 DUP2 MSTORE PUSH1 0x20 ADD PUSH1 0x60 DUP2 MSTORE PUSH1 0x20 ADD PUSH1 0x60 DUP2 MSTORE POP SWAP1 JUMP JUMPDEST PUSH1 0x0 PUSH1 0x40 MLOAD SWAP1 POP SWAP1 JUMP JUMPDEST PUSH1 0x0 DUP1 REVERT JUMPDEST PUSH1 0x0 DUP1 REVERT JUMPDEST PUSH1 0x0 PUSH20 0xFFFFFFFFFFFFFFFFFFFFFFFFFFFFFFFFFFFFFFFF DUP3 AND SWAP1 POP SWAP2 SWAP1 POP JUMP JUMPDEST PUSH1 0x0 PUSH2 0xCB4 DUP3 PUSH2 0xC89 JUMP JUMPDEST SWAP1 POP SWAP2 SWAP1 POP JUMP JUMPDEST PUSH2 0xCC4 DUP2 PUSH2 0xCA9 JUMP JUMPDEST DUP2 EQ PUSH2 0xCCF JUMPI PUSH1 0x0 DUP1 REVERT JUMPDEST POP JUMP JUMPDEST PUSH1 0x0 DUP2 CALLDATALOAD SWAP1 POP PUSH2 0xCE1 DUP2 PUSH2 0xCBB JUMP JUMPDEST SWAP3 SWAP2 POP POP JUMP JUMPDEST PUSH1 0x0 PUSH1 0x20 DUP3 DUP5 SUB SLT ISZERO PUSH2 0xCFD JUMPI PUSH2 0xCFC PUSH2 0xC7F JUMP JUMPDEST JUMPDEST PUSH1 0x0 PUSH2 0xD0B DUP5 DUP3 DUP6 ADD PUSH2 0xCD2 JUMP JUMPDEST SWAP2 POP POP SWAP3 SWAP2 POP POP JUMP JUMPDEST PUSH1 0x0 DUP2 MLOAD SWAP1 POP SWAP2 SWAP1 POP JUMP JUMPDEST PUSH1 0x0 DUP3 DUP3 MSTORE PUSH1 0x20 DUP3 ADD SWAP1 POP SWAP3 SWAP2 POP POP JUMP JUMPDEST PUSH1 0x0 DUP2 SWAP1 POP PUSH1 0x20 DUP3 ADD SWAP1 POP SWAP2 SWAP1 POP JUMP JUMPDEST PUSH1 0x0 DUP2 MLOAD SWAP1 POP SWAP2 SWAP1 POP JUMP JUMPDEST PUSH1 0x0 DUP3 DUP3 MSTORE PUSH1 0x20 DUP3 ADD SWAP1 POP SWAP3 SWAP2 POP POP JUMP JUMPDEST PUSH1 0x0 JUMPDEST DUP4 DUP2 LT ISZERO PUSH2 0xD7A JUMPI DUP1 DUP3 ADD MLOAD DUP2 DUP5 ADD MSTORE PUSH1 0x20 DUP2 ADD SWAP1 POP PUSH2 0xD5F JUMP JUMPDEST PUSH1 0x0 DUP5 DUP5 ADD MSTORE POP POP POP POP JUMP JUMPDEST PUSH1 0x0 PUSH1 0x1F NOT PUSH1 0x1F DUP4 ADD AND SWAP1 POP SWAP2 SWAP1 POP JUMP JUMPDEST PUSH1 0x0 PUSH2 0xDA2 DUP3 PUSH2 0xD40 JUMP JUMPDEST PUSH2 0xDAC DUP2 DUP6 PUSH2 0xD4B JUMP JUMPDEST SWAP4 POP PUSH2 0xDBC DUP2 DUP6 PUSH1 0x20 DUP7 ADD PUSH2 0xD5C JUMP JUMPDEST PUSH2 0xDC5 DUP2 PUSH2 0xD86 JUMP JUMPDEST DUP5 ADD SWAP2 POP POP SWAP3 SWAP2 POP POP JUMP JUMPDEST PUSH2 0xDD9 DUP2 PUSH2 0xCA9 JUMP JUMPDEST DUP3 MSTORE POP POP JUMP JUMPDEST PUSH1 0x0 PUSH1 0xA0 DUP4 ADD PUSH1 0x0 DUP4 ADD MLOAD DUP5 DUP3 SUB PUSH1 0x0 DUP7 ADD MSTORE PUSH2 0xDFC DUP3 DUP3 PUSH2 0xD97 JUMP JUMPDEST SWAP2 POP POP PUSH1 0x20 DUP4 ADD MLOAD PUSH2 0xE11 PUSH1 0x20 DUP7 ADD DUP3 PUSH2 0xDD0 JUMP JUMPDEST POP PUSH1 0x40 DUP4 ADD MLOAD DUP5 DUP3 SUB PUSH1 0x40 DUP7 ADD MSTORE PUSH2 0xE29 DUP3 DUP3 PUSH2 0xD97 JUMP JUMPDEST SWAP2 POP POP PUSH1 0x60 DUP4 ADD MLOAD DUP5 DUP3 SUB PUSH1 0x60 DUP7 ADD MSTORE PUSH2 0xE43 DUP3 DUP3 PUSH2 0xD97 JUMP JUMPDEST SWAP2 POP POP PUSH1 0x80 DUP4 ADD MLOAD DUP5 DUP3 SUB PUSH1 0x80 DUP7 ADD MSTORE PUSH2 0xE5D DUP3 DUP3 PUSH2 0xD97 JUMP JUMPDEST SWAP2 POP POP DUP1 SWAP2 POP POP SWAP3 SWAP2 POP POP JUMP JUMPDEST PUSH1 0x0 PUSH2 0xE76 DUP4 DUP4 PUSH2 0xDDF JUMP JUMPDEST SWAP1 POP SWAP3 SWAP2 POP POP JUMP JUMPDEST PUSH1 0x0 PUSH1 0x20 DUP3 ADD SWAP1 POP SWAP2 SWAP1 POP JUMP JUMPDEST PUSH1 0x0 PUSH2 0xE96 DUP3 PUSH2 0xD14 JUMP JUMPDEST PUSH2 0xEA0 DUP2 DUP6 PUSH2 0xD1F JUMP JUMPDEST SWAP4 POP DUP4 PUSH1 0x20 DUP3 MUL DUP6 ADD PUSH2 0xEB2 DUP6 PUSH2 0xD30 JUMP JUMPDEST DUP1 PUSH1 0x0 JUMPDEST DUP6 DUP2 LT ISZERO PUSH2 0xEEE JUMPI DUP5 DUP5 SUB DUP10 MSTORE DUP2 MLOAD PUSH2 0xECF DUP6 DUP3 PUSH2 0xE6A JUMP JUMPDEST SWAP5 POP PUSH2 0xEDA DUP4 PUSH2 0xE7E JUMP JUMPDEST SWAP3 POP PUSH1 0x20 DUP11 ADD SWAP10 POP POP PUSH1 0x1 DUP2 ADD SWAP1 POP PUSH2 0xEB6 JUMP JUMPDEST POP DUP3 SWAP8 POP DUP8 SWAP6 POP POP POP POP POP POP SWAP3 SWAP2 POP POP JUMP JUMPDEST PUSH1 0x0 PUSH1 0x20 DUP3 ADD SWAP1 POP DUP2 DUP2 SUB PUSH1 0x0 DUP4 ADD MSTORE PUSH2 0xF1A DUP2 DUP5 PUSH2 0xE8B JUMP JUMPDEST SWAP1 POP SWAP3 SWAP2 POP POP JUMP JUMPDEST PUSH1 0x0 DUP1 REVERT JUMPDEST PUSH32 0x4E487B7100000000000000000000000000000000000000000000000000000000 PUSH1 0x0 MSTORE PUSH1 0x41 PUSH1 0x4 MSTORE PUSH1 0x24 PUSH1 0x0 REVERT JUMPDEST PUSH2 0xF5F DUP3 PUSH2 0xD86 JUMP JUMPDEST DUP2 ADD DUP2 DUP2 LT PUSH8 0xFFFFFFFFFFFFFFFF DUP3 GT OR ISZERO PUSH2 0xF7E JUMPI PUSH2 0xF7D PUSH2 0xF27 JUMP JUMPDEST JUMPDEST DUP1 PUSH1 0x40 MSTORE POP POP POP JUMP JUMPDEST PUSH1 0x0 PUSH2 0xF91 PUSH2 0xC75 JUMP JUMPDEST SWAP1 POP PUSH2 0xF9D DUP3 DUP3 PUSH2 0xF56 JUMP JUMPDEST SWAP2 SWAP1 POP JUMP JUMPDEST PUSH1 0x0 DUP1 REVERT JUMPDEST PUSH1 0x0 DUP1 REVERT JUMPDEST PUSH1 0x0 DUP1 REVERT JUMPDEST PUSH1 0x0 PUSH8 0xFFFFFFFFFFFFFFFF DUP3 GT ISZERO PUSH2 0xFCC JUMPI PUSH2 0xFCB PUSH2 0xF27 JUMP JUMPDEST JUMPDEST PUSH2 0xFD5 DUP3 PUSH2 0xD86 JUMP JUMPDEST SWAP1 POP PUSH1 0x20 DUP2 ADD SWAP1 POP SWAP2 SWAP1 POP JUMP JUMPDEST DUP3 DUP2 DUP4 CALLDATACOPY PUSH1 0x0 DUP4 DUP4 ADD MSTORE POP POP POP JUMP JUMPDEST PUSH1 0x0 PUSH2 0x1004 PUSH2 0xFFF DUP5 PUSH2 0xFB1 JUMP JUMPDEST PUSH2 0xF87 JUMP JUMPDEST SWAP1 POP DUP3 DUP2 MSTORE PUSH1 0x20 DUP2 ADD DUP5 DUP5 DUP5 ADD GT ISZERO PUSH2 0x1020 JUMPI PUSH2 0x101F PUSH2 0xFAC JUMP JUMPDEST JUMPDEST PUSH2 0x102B DUP5 DUP3 DUP6 PUSH2 0xFE2 JUMP JUMPDEST POP SWAP4 SWAP3 POP POP POP JUMP JUMPDEST PUSH1 0x0 DUP3 PUSH1 0x1F DUP4 ADD SLT PUSH2 0x1048 JUMPI PUSH2 0x1047 PUSH2 0xFA7 JUMP JUMPDEST JUMPDEST DUP2 CALLDATALOAD PUSH2 0x1058 DUP5 DUP3 PUSH1 0x20 DUP7 ADD PUSH2 0xFF1 JUMP JUMPDEST SWAP2 POP POP SWAP3 SWAP2 POP POP JUMP JUMPDEST PUSH1 0x0 PUSH1 0x80 DUP3 DUP5 SUB SLT ISZERO PUSH2 0x1077 JUMPI PUSH2 0x1076 PUSH2 0xF22 JUMP JUMPDEST JUMPDEST PUSH2 0x1081 PUSH1 0x80 PUSH2 0xF87 JUMP JUMPDEST SWAP1 POP PUSH1 0x0 PUSH2 0x1091 DUP5 DUP3 DUP6 ADD PUSH2 0xCD2 JUMP JUMPDEST PUSH1 0x0 DUP4 ADD MSTORE POP PUSH1 0x20 DUP3 ADD CALLDATALOAD PUSH8 0xFFFFFFFFFFFFFFFF DUP2 GT ISZERO PUSH2 0x10B5 JUMPI PUSH2 0x10B4 PUSH2 0xFA2 JUMP JUMPDEST JUMPDEST PUSH2 0x10C1 DUP5 DUP3 DUP6 ADD PUSH2 0x1033 JUMP JUMPDEST PUSH1 0x20 DUP4 ADD MSTORE POP PUSH1 0x40 DUP3 ADD CALLDATALOAD PUSH8 0xFFFFFFFFFFFFFFFF DUP2 GT ISZERO PUSH2 0x10E5 JUMPI PUSH2 0x10E4 PUSH2 0xFA2 JUMP JUMPDEST JUMPDEST PUSH2 0x10F1 DUP5 DUP3 DUP6 ADD PUSH2 0x1033 JUMP JUMPDEST PUSH1 0x40 DUP4 ADD MSTORE POP PUSH1 0x60 DUP3 ADD CALLDATALOAD PUSH8 0xFFFFFFFFFFFFFFFF DUP2 GT ISZERO PUSH2 0x1115 JUMPI PUSH2 0x1114 PUSH2 0xFA2 JUMP JUMPDEST JUMPDEST PUSH2 0x1121 DUP5 DUP3 DUP6 ADD PUSH2 0x1033 JUMP JUMPDEST PUSH1 0x60 DUP4 ADD MSTORE POP SWAP3 SWAP2 POP POP JUMP JUMPDEST PUSH1 0x0 PUSH1 0xA0 DUP3 DUP5 SUB SLT ISZERO PUSH2 0x1143 JUMPI PUSH2 0x1142 PUSH2 0xF22 JUMP JUMPDEST JUMPDEST PUSH2 0x114D PUSH1 0xA0 PUSH2 0xF87 JUMP JUMPDEST SWAP1 POP PUSH1 0x0 DUP3 ADD CALLDATALOAD PUSH8 0xFFFFFFFFFFFFFFFF DUP2 GT ISZERO PUSH2 0x116D JUMPI PUSH2 0x116C PUSH2 0xFA2 JUMP JUMPDEST JUMPDEST PUSH2 0x1179 DUP5 DUP3 DUP6 ADD PUSH2 0x1033 JUMP JUMPDEST PUSH1 0x0 DUP4 ADD MSTORE POP PUSH1 0x20 PUSH2 0x118D DUP5 DUP3 DUP6 ADD PUSH2 0xCD2 JUMP JUMPDEST PUSH1 0x20 DUP4 ADD MSTORE POP PUSH1 0x40 DUP3 ADD CALLDATALOAD PUSH8 0xFFFFFFFFFFFFFFFF DUP2 GT ISZERO PUSH2 0x11B1 JUMPI PUSH2 0x11B0 PUSH2 0xFA2 JUMP JUMPDEST JUMPDEST PUSH2 0x11BD DUP5 DUP3 DUP6 ADD PUSH2 0x1033 JUMP JUMPDEST PUSH1 0x40 DUP4 ADD MSTORE POP PUSH1 0x60 DUP3 ADD CALLDATALOAD PUSH8 0xFFFFFFFFFFFFFFFF DUP2 GT ISZERO PUSH2 0x11E1 JUMPI PUSH2 0x11E0 PUSH2 0xFA2 JUMP JUMPDEST JUMPDEST PUSH2 0x11ED DUP5 DUP3 DUP6 ADD PUSH2 0x1033 JUMP JUMPDEST PUSH1 0x60 DUP4 ADD MSTORE POP PUSH1 0x80 DUP3 ADD CALLDATALOAD PUSH8 0xFFFFFFFFFFFFFFFF DUP2 GT ISZERO PUSH2 0x1211 JUMPI PUSH2 0x1210 PUSH2 0xFA2 JUMP JUMPDEST JUMPDEST PUSH2 0x121D DUP5 DUP3 DUP6 ADD PUSH2 0x1033 JUMP JUMPDEST PUSH1 0x80 DUP4 ADD MSTORE POP SWAP3 SWAP2 POP POP JUMP JUMPDEST PUSH1 0x0 DUP1 PUSH1 0x40 DUP4 DUP6 SUB SLT ISZERO PUSH2 0x1240 JUMPI PUSH2 0x123F PUSH2 0xC7F JUMP JUMPDEST JUMPDEST PUSH1 0x0 DUP4 ADD CALLDATALOAD PUSH8 0xFFFFFFFFFFFFFFFF DUP2 GT ISZERO PUSH2 0x125E JUMPI PUSH2 0x125D PUSH2 0xC84 JUMP JUMPDEST JUMPDEST PUSH2 0x126A DUP6 DUP3 DUP7 ADD PUSH2 0x1061 JUMP JUMPDEST SWAP3 POP POP PUSH1 0x20 DUP4 ADD CALLDATALOAD PUSH8 0xFFFFFFFFFFFFFFFF DUP2 GT ISZERO PUSH2 0x128B JUMPI PUSH2 0x128A PUSH2 0xC84 JUMP JUMPDEST JUMPDEST PUSH2 0x1297 DUP6 DUP3 DUP7 ADD PUSH2 0x112D JUMP JUMPDEST SWAP2 POP POP SWAP3 POP SWAP3 SWAP1 POP JUMP JUMPDEST PUSH1 0x0 DUP3 DUP3 MSTORE PUSH1 0x20 DUP3 ADD SWAP1 POP SWAP3 SWAP2 POP POP JUMP JUMPDEST PUSH1 0x0 PUSH2 0x12BD DUP3 PUSH2 0xD40 JUMP JUMPDEST PUSH2 0x12C7 DUP2 DUP6 PUSH2 0x12A1 JUMP JUMPDEST SWAP4 POP PUSH2 0x12D7 DUP2 DUP6 PUSH1 0x20 DUP7 ADD PUSH2 0xD5C JUMP JUMPDEST PUSH2 0x12E0 DUP2 PUSH2 0xD86 JUMP JUMPDEST DUP5 ADD SWAP2 POP POP SWAP3 SWAP2 POP POP JUMP JUMPDEST PUSH1 0x0 PUSH1 0x20 DUP3 ADD SWAP1 POP DUP2 DUP2 SUB PUSH1 0x0 DUP4 ADD MSTORE PUSH2 0x1305 DUP2 DUP5 PUSH2 0x12B2 JUMP JUMPDEST SWAP1 POP SWAP3 SWAP2 POP POP JUMP JUMPDEST PUSH1 0x0 DUP1 PUSH1 0x40 DUP4 DUP6 SUB SLT ISZERO PUSH2 0x1324 JUMPI PUSH2 0x1323 PUSH2 0xC7F JUMP JUMPDEST JUMPDEST PUSH1 0x0 DUP4 ADD CALLDATALOAD PUSH8 0xFFFFFFFFFFFFFFFF DUP2 GT ISZERO PUSH2 0x1342 JUMPI PUSH2 0x1341 PUSH2 0xC84 JUMP JUMPDEST JUMPDEST PUSH2 0x134E DUP6 DUP3 DUP7 ADD PUSH2 0x112D JUMP JUMPDEST SWAP3 POP POP PUSH1 0x20 DUP4 ADD CALLDATALOAD PUSH8 0xFFFFFFFFFFFFFFFF DUP2 GT ISZERO PUSH2 0x136F JUMPI PUSH2 0x136E PUSH2 0xC84 JUMP JUMPDEST JUMPDEST PUSH2 0x137B DUP6 DUP3 DUP7 ADD PUSH2 0x1061 JUMP JUMPDEST SWAP2 POP POP SWAP3 POP SWAP3 SWAP1 POP JUMP JUMPDEST PUSH1 0x0 DUP1 PUSH1 0x0 PUSH1 0x60 DUP5 DUP7 SUB SLT ISZERO PUSH2 0x139E JUMPI PUSH2 0x139D PUSH2 0xC7F JUMP JUMPDEST JUMPDEST PUSH1 0x0 DUP5 ADD CALLDATALOAD PUSH8 0xFFFFFFFFFFFFFFFF DUP2 GT ISZERO PUSH2 0x13BC JUMPI PUSH2 0x13BB PUSH2 0xC84 JUMP JUMPDEST JUMPDEST PUSH2 0x13C8 DUP7 DUP3 DUP8 ADD PUSH2 0x112D JUMP JUMPDEST SWAP4 POP POP PUSH1 0x20 DUP5 ADD CALLDATALOAD PUSH8 0xFFFFFFFFFFFFFFFF DUP2 GT ISZERO PUSH2 0x13E9 JUMPI PUSH2 0x13E8 PUSH2 0xC84 JUMP JUMPDEST JUMPDEST PUSH2 0x13F5 DUP7 DUP3 DUP8 ADD PUSH2 0x1033 JUMP JUMPDEST SWAP3 POP POP PUSH1 0x40 DUP5 ADD CALLDATALOAD PUSH8 0xFFFFFFFFFFFFFFFF DUP2 GT ISZERO PUSH2 0x1416 JUMPI PUSH2 0x1415 PUSH2 0xC84 JUMP JUMPDEST JUMPDEST PUSH2 0x1422 DUP7 DUP3 DUP8 ADD PUSH2 0x1061 JUMP JUMPDEST SWAP2 POP POP SWAP3 POP SWAP3 POP SWAP3 JUMP JUMPDEST PUSH32 0x4E487B7100000000000000000000000000000000000000000000000000000000 PUSH1 0x0 MSTORE PUSH1 0x32 PUSH1 0x4 MSTORE PUSH1 0x24 PUSH1 0x0 REVERT JUMPDEST PUSH32 0x4E487B7100000000000000000000000000000000000000000000000000000000 PUSH1 0x0 MSTORE PUSH1 0x22 PUSH1 0x4 MSTORE PUSH1 0x24 PUSH1 0x0 REVERT JUMPDEST PUSH1 0x0 PUSH1 0x2 DUP3 DIV SWAP1 POP PUSH1 0x1 DUP3 AND DUP1 PUSH2 0x14A2 JUMPI PUSH1 0x7F DUP3 AND SWAP2 POP JUMPDEST PUSH1 0x20 DUP3 LT DUP2 SUB PUSH2 0x14B5 JUMPI PUSH2 0x14B4 PUSH2 0x145B JUMP JUMPDEST JUMPDEST POP SWAP2 SWAP1 POP JUMP JUMPDEST PUSH32 0x4E487B7100000000000000000000000000000000000000000000000000000000 PUSH1 0x0 MSTORE PUSH1 0x11 PUSH1 0x4 MSTORE PUSH1 0x24 PUSH1 0x0 REVERT JUMPDEST PUSH1 0x0 DUP2 SWAP1 POP SWAP2 SWAP1 POP JUMP JUMPDEST PUSH1 0x0 PUSH2 0x14FF DUP3 PUSH2 0x14EA JUMP JUMPDEST SWAP2 POP PUSH32 0xFFFFFFFFFFFFFFFFFFFFFFFFFFFFFFFFFFFFFFFFFFFFFFFFFFFFFFFFFFFFFFFF DUP3 SUB PUSH2 0x1531 JUMPI PUSH2 0x1530 PUSH2 0x14BB JUMP JUMPDEST JUMPDEST PUSH1 0x1 DUP3 ADD SWAP1 POP SWAP2 SWAP1 POP JUMP JUMPDEST PUSH1 0x0 DUP2 SWAP1 POP SWAP3 SWAP2 POP POP JUMP JUMPDEST PUSH1 0x0 PUSH2 0x1552 DUP3 PUSH2 0xD40 JUMP JUMPDEST PUSH2 0x155C DUP2 DUP6 PUSH2 0x153C JUMP JUMPDEST SWAP4 POP PUSH2 0x156C DUP2 DUP6 PUSH1 0x20 DUP7 ADD PUSH2 0xD5C JUMP JUMPDEST DUP1 DUP5 ADD SWAP2 POP POP SWAP3 SWAP2 POP POP JUMP JUMPDEST PUSH1 0x0 PUSH2 0x1584 DUP3 DUP5 PUSH2 0x1547 JUMP JUMPDEST SWAP2 POP DUP2 SWAP1 POP SWAP3 SWAP2 POP POP JUMP JUMPDEST PUSH1 0x0 DUP2 SWAP1 POP DUP2 PUSH1 0x0 MSTORE PUSH1 0x20 PUSH1 0x0 KECCAK256 SWAP1 POP SWAP2 SWAP1 POP JUMP JUMPDEST PUSH1 0x0 DUP2 SLOAD PUSH2 0x15B1 DUP2 PUSH2 0x148A JUMP JUMPDEST PUSH2 0x15BB DUP2 DUP7 PUSH2 0x153C JUMP JUMPDEST SWAP5 POP PUSH1 0x1 DUP3 AND PUSH1 0x0 DUP2 EQ PUSH2 0x15D6 JUMPI PUSH1 0x1 DUP2 EQ PUSH2 0x15EB JUMPI PUSH2 0x161E JUMP JUMPDEST PUSH1 0xFF NOT DUP4 AND DUP7 MSTORE DUP2 ISZERO ISZERO DUP3 MUL DUP7 ADD SWAP4 POP PUSH2 0x161E JUMP JUMPDEST PUSH2 0x15F4 DUP6 PUSH2 0x158F JUMP JUMPDEST PUSH1 0x0 JUMPDEST DUP4 DUP2 LT ISZERO PUSH2 0x1616 JUMPI DUP2 SLOAD DUP2 DUP10 ADD MSTORE PUSH1 0x1 DUP3 ADD SWAP2 POP PUSH1 0x20 DUP2 ADD SWAP1 POP PUSH2 0x15F7 JUMP JUMPDEST DUP4 DUP9 ADD SWAP6 POP POP POP JUMPDEST POP POP POP SWAP3 SWAP2 POP POP JUMP JUMPDEST PUSH1 0x0 PUSH2 0x1633 DUP3 DUP5 PUSH2 0x15A4 JUMP JUMPDEST SWAP2 POP DUP2 SWAP1 POP SWAP3 SWAP2 POP POP JUMP JUMPDEST POP JUMP JUMPDEST PUSH1 0x0 PUSH2 0x164E PUSH1 0x0 DUP4 PUSH2 0x153C JUMP JUMPDEST SWAP2 POP PUSH2 0x1659 DUP3 PUSH2 0x163E JUMP JUMPDEST PUSH1 0x0 DUP3 ADD SWAP1 POP SWAP2 SWAP1 POP JUMP JUMPDEST PUSH1 0x0 PUSH2 0x166F DUP3 PUSH2 0x1641 JUMP JUMPDEST SWAP2 POP DUP2 SWAP1 POP SWAP2 SWAP1 POP JUMP JUMPDEST PUSH1 0x0 PUSH1 0x20 PUSH1 0x1F DUP4 ADD DIV SWAP1 POP SWAP2 SWAP1 POP JUMP JUMPDEST PUSH1 0x0 DUP3 DUP3 SHL SWAP1 POP SWAP3 SWAP2 POP POP JUMP JUMPDEST PUSH1 0x0 PUSH1 0x8 DUP4 MUL PUSH2 0x16C6 PUSH32 0xFFFFFFFFFFFFFFFFFFFFFFFFFFFFFFFFFFFFFFFFFFFFFFFFFFFFFFFFFFFFFFFF DUP3 PUSH2 0x1689 JUMP JUMPDEST PUSH2 0x16D0 DUP7 DUP4 PUSH2 0x1689 JUMP JUMPDEST SWAP6 POP DUP1 NOT DUP5 AND SWAP4 POP DUP1 DUP7 AND DUP5 OR SWAP3 POP POP POP SWAP4 SWAP3 POP POP POP JUMP JUMPDEST PUSH1 0x0 DUP2 SWAP1 POP SWAP2 SWAP1 POP JUMP JUMPDEST PUSH1 0x0 PUSH2 0x170D PUSH2 0x1708 PUSH2 0x1703 DUP5 PUSH2 0x14EA JUMP JUMPDEST PUSH2 0x16E8 JUMP JUMPDEST PUSH2 0x14EA JUMP JUMPDEST SWAP1 POP SWAP2 SWAP1 POP JUMP JUMPDEST PUSH1 0x0 DUP2 SWAP1 POP SWAP2 SWAP1 POP JUMP JUMPDEST PUSH2 0x1727 DUP4 PUSH2 0x16F2 JUMP JUMPDEST PUSH2 0x173B PUSH2 0x1733 DUP3 PUSH2 0x1714 JUMP JUMPDEST DUP5 DUP5 SLOAD PUSH2 0x1696 JUMP JUMPDEST DUP3 SSTORE POP POP POP POP JUMP JUMPDEST PUSH1 0x0 SWAP1 JUMP JUMPDEST PUSH2 0x1750 PUSH2 0x1743 JUMP JUMPDEST PUSH2 0x175B DUP2 DUP5 DUP5 PUSH2 0x171E JUMP JUMPDEST POP POP POP JUMP JUMPDEST JUMPDEST DUP2 DUP2 LT ISZERO PUSH2 0x177F JUMPI PUSH2 0x1774 PUSH1 0x0 DUP3 PUSH2 0x1748 JUMP JUMPDEST PUSH1 0x1 DUP2 ADD SWAP1 POP PUSH2 0x1761 JUMP JUMPDEST POP POP JUMP JUMPDEST PUSH1 0x1F DUP3 GT ISZERO PUSH2 0x17C4 JUMPI PUSH2 0x1795 DUP2 PUSH2 0x158F JUMP JUMPDEST PUSH2 0x179E DUP5 PUSH2 0x1679 JUMP JUMPDEST DUP2 ADD PUSH1 0x20 DUP6 LT ISZERO PUSH2 0x17AD JUMPI DUP2 SWAP1 POP JUMPDEST PUSH2 0x17C1 PUSH2 0x17B9 DUP6 PUSH2 0x1679 JUMP JUMPDEST DUP4 ADD DUP3 PUSH2 0x1760 JUMP JUMPDEST POP POP JUMPDEST POP POP POP JUMP JUMPDEST PUSH1 0x0 DUP3 DUP3 SHR SWAP1 POP SWAP3 SWAP2 POP POP JUMP JUMPDEST PUSH1 0x0 PUSH2 0x17E7 PUSH1 0x0 NOT DUP5 PUSH1 0x8 MUL PUSH2 0x17C9 JUMP JUMPDEST NOT DUP1 DUP4 AND SWAP2 POP POP SWAP3 SWAP2 POP POP JUMP JUMPDEST PUSH1 0x0 PUSH2 0x1800 DUP4 DUP4 PUSH2 0x17D6 JUMP JUMPDEST SWAP2 POP DUP3 PUSH1 0x2 MUL DUP3 OR SWAP1 POP SWAP3 SWAP2 POP POP JUMP JUMPDEST PUSH2 0x1819 DUP3 PUSH2 0xD40 JUMP JUMPDEST PUSH8 0xFFFFFFFFFFFFFFFF DUP2 GT ISZERO PUSH2 0x1832 JUMPI PUSH2 0x1831 PUSH2 0xF27 JUMP JUMPDEST JUMPDEST PUSH2 0x183C DUP3 SLOAD PUSH2 0x148A JUMP JUMPDEST PUSH2 0x1847 DUP3 DUP3 DUP6 PUSH2 0x1783 JUMP JUMPDEST PUSH1 0x0 PUSH1 0x20 SWAP1 POP PUSH1 0x1F DUP4 GT PUSH1 0x1 DUP2 EQ PUSH2 0x187A JUMPI PUSH1 0x0 DUP5 ISZERO PUSH2 0x1868 JUMPI DUP3 DUP8 ADD MLOAD SWAP1 POP JUMPDEST PUSH2 0x1872 DUP6 DUP3 PUSH2 0x17F4 JUMP JUMPDEST DUP7 SSTORE POP PUSH2 0x18DA JUMP JUMPDEST PUSH1 0x1F NOT DUP5 AND PUSH2 0x1888 DUP7 PUSH2 0x158F JUMP JUMPDEST PUSH1 0x0 JUMPDEST DUP3 DUP2 LT ISZERO PUSH2 0x18B0 JUMPI DUP5 DUP10 ADD MLOAD DUP3 SSTORE PUSH1 0x1 DUP3 ADD SWAP2 POP PUSH1 0x20 DUP6 ADD SWAP5 POP PUSH1 0x20 DUP2 ADD SWAP1 POP PUSH2 0x188B JUMP JUMPDEST DUP7 DUP4 LT ISZERO PUSH2 0x18CD JUMPI DUP5 DUP10 ADD MLOAD PUSH2 0x18C9 PUSH1 0x1F DUP10 AND DUP3 PUSH2 0x17D6 JUMP JUMPDEST DUP4 SSTORE POP JUMPDEST PUSH1 0x1 PUSH1 0x2 DUP9 MUL ADD DUP9 SSTORE POP POP POP JUMPDEST POP POP POP POP POP POP JUMP JUMPDEST PUSH1 0x0 DUP2 ISZERO ISZERO SWAP1 POP SWAP2 SWAP1 POP JUMP JUMPDEST PUSH2 0x18F7 DUP2 PUSH2 0x18E2 JUMP JUMPDEST DUP3 MSTORE POP POP JUMP JUMPDEST PUSH32 0x46696C652075706C6F61646564207375636365737366756C6C792E0000000000 PUSH1 0x0 DUP3 ADD MSTORE POP JUMP JUMPDEST PUSH1 0x0 PUSH2 0x1933 PUSH1 0x1B DUP4 PUSH2 0x12A1 JUMP JUMPDEST SWAP2 POP PUSH2 0x193E DUP3 PUSH2 0x18FD JUMP JUMPDEST PUSH1 0x20 DUP3 ADD SWAP1 POP SWAP2 SWAP1 POP JUMP JUMPDEST PUSH1 0x0 PUSH1 0x40 DUP3 ADD SWAP1 POP PUSH2 0x195E PUSH1 0x0 DUP4 ADD DUP5 PUSH2 0x18EE JUMP JUMPDEST DUP2 DUP2 SUB PUSH1 0x20 DUP4 ADD MSTORE PUSH2 0x196F DUP2 PUSH2 0x1926 JUMP JUMPDEST SWAP1 POP SWAP3 SWAP2 POP POP JUMP JUMPDEST PUSH1 0x0 PUSH1 0x40 DUP3 ADD SWAP1 POP PUSH2 0x198C PUSH1 0x0 DUP4 ADD DUP6 PUSH2 0x18EE JUMP JUMPDEST DUP2 DUP2 SUB PUSH1 0x20 DUP4 ADD MSTORE PUSH2 0x199E DUP2 DUP5 PUSH2 0x12B2 JUMP JUMPDEST SWAP1 POP SWAP4 SWAP3 POP POP POP JUMP INVALID LOG2 PUSH5 0x6970667358 0x22 SLT KECCAK256 INVALID AND PUSH14 0x2E1271A2C5647FE06E6267829C20 0xBD 0x4B EXTCODECOPY JUMPI PUSH26 0x3743F272A82ECFDC0E5C64736F6C634300081300330000000000 "},"methodIdentifiers":{"fileExists((string,address,string,string,string),(address,string,string,string))":"c041a425","getEncSymmetricKeyFileUser((address,string,string,string),(string,address,string,string,string))":"a4942001","getUserFiles(address)":"1fc37922","uploadFile((string,address,string,string,string),string,(address,string,string,string))":"fb629ff1"}}}}}