{"contracts/UserManager.sol":{"UserManager":{"abi":[{"anonymous":false,"inputs":[{"indexed":false,"internalType":"bool","name":"success","type":"bool"},{"indexed":false,"internalType":"string","name":"message","type":"string"}],"name":"RegistrationResult","type":"event"},{"inputs":[{"components":[{"internalType":"address","name":"account","type":"address"},{"internalType":"string","name":"name","type":"string"},{"internalType":"string","name":"publicKey","type":"string"},{"internalType":"string","name":"privateKey","type":"string"}],"internalType":"struct UserManager.User","name":"user","type":"tuple"}],"name":"checkRegistration","outputs":[{"internalType":"string","name":"","type":"string"}],"stateMutability":"view","type":"function"},{"inputs":[{"internalType":"address","name":"account","type":"address"}],"name":"getUser","outputs":[{"components":[{"internalType":"address","name":"account","type":"address"},{"internalType":"string","name":"name","type":"string"},{"internalType":"string","name":"publicKey","type":"string"},{"internalType":"string","name":"privateKey","type":"string"}],"internalType":"struct UserManager.User","name":"","type":"tuple"}],"stateMutability":"view","type":"function"},{"inputs":[{"internalType":"string","name":"name","type":"string"}],"name":"getUserByName","outputs":[{"components":[{"internalType":"address","name":"account","type":"address"},{"internalType":"string","name":"name","type":"string"},{"internalType":"string","name":"publicKey","type":"string"},{"internalType":"string","name":"privateKey","type":"string"}],"internalType":"struct UserManager.User","name":"","type":"tuple"}],"stateMutability":"view","type":"function"},{"inputs":[{"components":[{"internalType":"address","name":"account","type":"address"},{"internalType":"string","name":"name","type":"string"},{"internalType":"string","name":"publicKey","type":"string"},{"internalType":"string","name":"privateKey","type":"string"}],"internalType":"struct UserManager.User","name":"user","type":"tuple"}],"name":"register","outputs":[],"stateMutability":"nonpayable","type":"function"}],"evm":{"bytecode":{"linkReferences":{},"object":"608060405234801561001057600080fd5b50611560806100206000396000f3fe608060405234801561001057600080fd5b506004361061004c5760003560e01c80634bff500914610051578063610273da1461008157806362629bef146100b15780636f77926b146100cd575b600080fd5b61006b60048036038101906100669190610b8b565b6100fd565b6040516100789190610d05565b60405180910390f35b61009b60048036038101906100969190610e29565b61044e565b6040516100a89190610ebc565b60405180910390f35b6100cb60048036038101906100c69190610e29565b6105b2565b005b6100e760048036038101906100e29190610ede565b6106fc565b6040516100f49190610d05565b60405180910390f35b6101056109f3565b60005b6000805490508110156103e057826040516020016101269190610f47565b60405160208183030381529060405280519060200120600082815481106101505761014f610f5e565b5b90600052602060002090600402016001016040516020016101719190611085565b60405160208183030381529060405280519060200120036103cd57600081815481106101a05761019f610f5e565b5b90600052602060002090600402016040518060800160405290816000820160009054906101000a900473ffffffffffffffffffffffffffffffffffffffff1673ffffffffffffffffffffffffffffffffffffffff1673ffffffffffffffffffffffffffffffffffffffff16815260200160018201805461021f90610fbc565b80601f016020809104026020016040519081016040528092919081815260200182805461024b90610fbc565b80156102985780601f1061026d57610100808354040283529160200191610298565b820191906000526020600020905b81548152906001019060200180831161027b57829003601f168201915b505050505081526020016002820180546102b190610fbc565b80601f01602080910402602001604051908101604052809291908181526020018280546102dd90610fbc565b801561032a5780601f106102ff5761010080835404028352916020019161032a565b820191906000526020600020905b81548152906001019060200180831161030d57829003601f168201915b5050505050815260200160038201805461034390610fbc565b80601f016020809104026020016040519081016040528092919081815260200182805461036f90610fbc565b80156103bc5780601f10610391576101008083540402835291602001916103bc565b820191906000526020600020905b81548152906001019060200180831161039f57829003601f168201915b505050505081525050915050610449565b80806103d8906110d5565b915050610108565b506040518060800160405280600073ffffffffffffffffffffffffffffffffffffffff1681526020016040518060200160405280600081525081526020016040518060200160405280600081525081526020016040518060200160405280600081525081525090505b919050565b606060005b60008054905081101561059957826000015173ffffffffffffffffffffffffffffffffffffffff166000828154811061048f5761048e610f5e565b5b906000526020600020906004020160000160009054906101000a900473ffffffffffffffffffffffffffffffffffffffff1673ffffffffffffffffffffffffffffffffffffffff16036104fd57604051806060016040528060258152602001611506602591399150506105ad565b8260200151805190602001206000828154811061051d5761051c610f5e565b5b906000526020600020906004020160010160405161053b91906111c0565b604051809103902003610586576040518060400160405280601f81526020017f557365722068617320746f2068617665206120756e69717565206e616d652e008152509150506105ad565b8080610591906110d5565b915050610453565b506040518060200160405280600081525090505b919050565b60006105bd8261044e565b905060008151036106bd57600082908060018154018082558091505060019003906000526020600020906004020160009091909190915060008201518160000160006101000a81548173ffffffffffffffffffffffffffffffffffffffff021916908373ffffffffffffffffffffffffffffffffffffffff1602179055506020820151816001019081610650919061136e565b506040820151816002019081610666919061136e565b50606082015181600301908161067c919061136e565b5050507f40590457641da6c4e096f4ca29eb26968297d549f04209fa29e48fa5e22405cb60016040516106af91906114a7565b60405180910390a1506106f9565b7f40590457641da6c4e096f4ca29eb26968297d549f04209fa29e48fa5e22405cb6000826040516106ef9291906114d5565b60405180910390a1505b50565b6107046109f3565b60005b6000805490508110156109e0578273ffffffffffffffffffffffffffffffffffffffff166000828154811061073f5761073e610f5e565b5b906000526020600020906004020160000160009054906101000a900473ffffffffffffffffffffffffffffffffffffffff1673ffffffffffffffffffffffffffffffffffffffff16036109cd57600081815481106107a05761079f610f5e565b5b90600052602060002090600402016040518060800160405290816000820160009054906101000a900473ffffffffffffffffffffffffffffffffffffffff1673ffffffffffffffffffffffffffffffffffffffff1673ffffffffffffffffffffffffffffffffffffffff16815260200160018201805461081f90610fbc565b80601f016020809104026020016040519081016040528092919081815260200182805461084b90610fbc565b80156108985780601f1061086d57610100808354040283529160200191610898565b820191906000526020600020905b81548152906001019060200180831161087b57829003601f168201915b505050505081526020016002820180546108b190610fbc565b80601f01602080910402602001604051908101604052809291908181526020018280546108dd90610fbc565b801561092a5780601f106108ff5761010080835404028352916020019161092a565b820191906000526020600020905b81548152906001019060200180831161090d57829003601f168201915b5050505050815260200160038201805461094390610fbc565b80601f016020809104026020016040519081016040528092919081815260200182805461096f90610fbc565b80156109bc5780601f10610991576101008083540402835291602001916109bc565b820191906000526020600020905b81548152906001019060200180831161099f57829003601f168201915b5050505050815250509150506109ee565b80806109d8906110d5565b915050610707565b506109e96109f3565b809150505b919050565b6040518060800160405280600073ffffffffffffffffffffffffffffffffffffffff1681526020016060815260200160608152602001606081525090565b6000604051905090565b600080fd5b600080fd5b600080fd5b600080fd5b6000601f19601f8301169050919050565b7f4e487b7100000000000000000000000000000000000000000000000000000000600052604160045260246000fd5b610a9882610a4f565b810181811067ffffffffffffffff82111715610ab757610ab6610a60565b5b80604052505050565b6000610aca610a31565b9050610ad68282610a8f565b919050565b600067ffffffffffffffff821115610af657610af5610a60565b5b610aff82610a4f565b9050602081019050919050565b82818337600083830152505050565b6000610b2e610b2984610adb565b610ac0565b905082815260208101848484011115610b4a57610b49610a4a565b5b610b55848285610b0c565b509392505050565b600082601f830112610b7257610b71610a45565b5b8135610b82848260208601610b1b565b91505092915050565b600060208284031215610ba157610ba0610a3b565b5b600082013567ffffffffffffffff811115610bbf57610bbe610a40565b5b610bcb84828501610b5d565b91505092915050565b600073ffffffffffffffffffffffffffffffffffffffff82169050919050565b6000610bff82610bd4565b9050919050565b610c0f81610bf4565b82525050565b600081519050919050565b600082825260208201905092915050565b60005b83811015610c4f578082015181840152602081019050610c34565b60008484015250505050565b6000610c6682610c15565b610c708185610c20565b9350610c80818560208601610c31565b610c8981610a4f565b840191505092915050565b6000608083016000830151610cac6000860182610c06565b5060208301518482036020860152610cc48282610c5b565b91505060408301518482036040860152610cde8282610c5b565b91505060608301518482036060860152610cf88282610c5b565b9150508091505092915050565b60006020820190508181036000830152610d1f8184610c94565b905092915050565b600080fd5b600080fd5b610d3a81610bf4565b8114610d4557600080fd5b50565b600081359050610d5781610d31565b92915050565b600060808284031215610d7357610d72610d27565b5b610d7d6080610ac0565b90506000610d8d84828501610d48565b600083015250602082013567ffffffffffffffff811115610db157610db0610d2c565b5b610dbd84828501610b5d565b602083015250604082013567ffffffffffffffff811115610de157610de0610d2c565b5b610ded84828501610b5d565b604083015250606082013567ffffffffffffffff811115610e1157610e10610d2c565b5b610e1d84828501610b5d565b60608301525092915050565b600060208284031215610e3f57610e3e610a3b565b5b600082013567ffffffffffffffff811115610e5d57610e5c610a40565b5b610e6984828501610d5d565b91505092915050565b600082825260208201905092915050565b6000610e8e82610c15565b610e988185610e72565b9350610ea8818560208601610c31565b610eb181610a4f565b840191505092915050565b60006020820190508181036000830152610ed68184610e83565b905092915050565b600060208284031215610ef457610ef3610a3b565b5b6000610f0284828501610d48565b91505092915050565b600081905092915050565b6000610f2182610c15565b610f2b8185610f0b565b9350610f3b818560208601610c31565b80840191505092915050565b6000610f538284610f16565b915081905092915050565b7f4e487b7100000000000000000000000000000000000000000000000000000000600052603260045260246000fd5b7f4e487b7100000000000000000000000000000000000000000000000000000000600052602260045260246000fd5b60006002820490506001821680610fd457607f821691505b602082108103610fe757610fe6610f8d565b5b50919050565b60008190508160005260206000209050919050565b6000815461100f81610fbc565b6110198186610f0b565b9450600182166000811461103457600181146110495761107c565b60ff198316865281151582028601935061107c565b61105285610fed565b60005b8381101561107457815481890152600182019150602081019050611055565b838801955050505b50505092915050565b60006110918284611002565b915081905092915050565b7f4e487b7100000000000000000000000000000000000000000000000000000000600052601160045260246000fd5b6000819050919050565b60006110e0826110cb565b91507fffffffffffffffffffffffffffffffffffffffffffffffffffffffffffffffff82036111125761111161109c565b5b600182019050919050565b600081905092915050565b60008190508160005260206000209050919050565b6000815461114a81610fbc565b611154818661111d565b9450600182166000811461116f5760018114611184576111b7565b60ff19831686528115158202860193506111b7565b61118d85611128565b60005b838110156111af57815481890152600182019150602081019050611190565b838801955050505b50505092915050565b60006111cc828461113d565b915081905092915050565b60006020601f8301049050919050565b600082821b905092915050565b6000600883026112247fffffffffffffffffffffffffffffffffffffffffffffffffffffffffffffffff826111e7565b61122e86836111e7565b95508019841693508086168417925050509392505050565b6000819050919050565b600061126b611266611261846110cb565b611246565b6110cb565b9050919050565b6000819050919050565b61128583611250565b61129961129182611272565b8484546111f4565b825550505050565b600090565b6112ae6112a1565b6112b981848461127c565b505050565b5b818110156112dd576112d26000826112a6565b6001810190506112bf565b5050565b601f821115611322576112f381610fed565b6112fc846111d7565b8101602085101561130b578190505b61131f611317856111d7565b8301826112be565b50505b505050565b600082821c905092915050565b600061134560001984600802611327565b1980831691505092915050565b600061135e8383611334565b9150826002028217905092915050565b61137782610c15565b67ffffffffffffffff8111156113905761138f610a60565b5b61139a8254610fbc565b6113a58282856112e1565b600060209050601f8311600181146113d857600084156113c6578287015190505b6113d08582611352565b865550611438565b601f1984166113e686610fed565b60005b8281101561140e578489015182556001820191506020850194506020810190506113e9565b8683101561142b5784890151611427601f891682611334565b8355505b6001600288020188555050505b505050505050565b60008115159050919050565b61145581611440565b82525050565b7f557365722072656769737465726564207375636365737366756c6c7900000000600082015250565b6000611491601c83610e72565b915061149c8261145b565b602082019050919050565b60006040820190506114bc600083018461144c565b81810360208301526114cd81611484565b905092915050565b60006040820190506114ea600083018561144c565b81810360208301526114fc8184610e83565b9050939250505056fe5573657220616c72656164792065786973747320666f72207468697320616464726573732ea264697066735822122092bce423687ed37f878eed3db045e2a53350c0fc04d702de47c716261200176264736f6c63430008130033","opcodes":"PUSH1 0x80 PUSH1 0x40 MSTORE CALLVALUE DUP1 ISZERO PUSH2 0x10 JUMPI PUSH1 0x0 DUP1 REVERT JUMPDEST POP PUSH2 0x1560 DUP1 PUSH2 0x20 PUSH1 0x0 CODECOPY PUSH1 0x0 RETURN INVALID PUSH1 0x80 PUSH1 0x40 MSTORE CALLVALUE DUP1 ISZERO PUSH2 0x10 JUMPI PUSH1 0x0 DUP1 REVERT JUMPDEST POP PUSH1 0x4 CALLDATASIZE LT PUSH2 0x4C JUMPI PUSH1 0x0 CALLDATALOAD PUSH1 0xE0 SHR DUP1 PUSH4 0x4BFF5009 EQ PUSH2 0x51 JUMPI DUP1 PUSH4 0x610273DA EQ PUSH2 0x81 JUMPI DUP1 PUSH4 0x62629BEF EQ PUSH2 0xB1 JUMPI DUP1 PUSH4 0x6F77926B EQ PUSH2 0xCD JUMPI JUMPDEST PUSH1 0x0 DUP1 REVERT JUMPDEST PUSH2 0x6B PUSH1 0x4 DUP1 CALLDATASIZE SUB DUP2 ADD SWAP1 PUSH2 0x66 SWAP2 SWAP1 PUSH2 0xB8B JUMP JUMPDEST PUSH2 0xFD JUMP JUMPDEST PUSH1 0x40 MLOAD PUSH2 0x78 SWAP2 SWAP1 PUSH2 0xD05 JUMP JUMPDEST PUSH1 0x40 MLOAD DUP1 SWAP2 SUB SWAP1 RETURN JUMPDEST PUSH2 0x9B PUSH1 0x4 DUP1 CALLDATASIZE SUB DUP2 ADD SWAP1 PUSH2 0x96 SWAP2 SWAP1 PUSH2 0xE29 JUMP JUMPDEST PUSH2 0x44E JUMP JUMPDEST PUSH1 0x40 MLOAD PUSH2 0xA8 SWAP2 SWAP1 PUSH2 0xEBC JUMP JUMPDEST PUSH1 0x40 MLOAD DUP1 SWAP2 SUB SWAP1 RETURN JUMPDEST PUSH2 0xCB PUSH1 0x4 DUP1 CALLDATASIZE SUB DUP2 ADD SWAP1 PUSH2 0xC6 SWAP2 SWAP1 PUSH2 0xE29 JUMP JUMPDEST PUSH2 0x5B2 JUMP JUMPDEST STOP JUMPDEST PUSH2 0xE7 PUSH1 0x4 DUP1 CALLDATASIZE SUB DUP2 ADD SWAP1 PUSH2 0xE2 SWAP2 SWAP1 PUSH2 0xEDE JUMP JUMPDEST PUSH2 0x6FC JUMP JUMPDEST PUSH1 0x40 MLOAD PUSH2 0xF4 SWAP2 SWAP1 PUSH2 0xD05 JUMP JUMPDEST PUSH1 0x40 MLOAD DUP1 SWAP2 SUB SWAP1 RETURN JUMPDEST PUSH2 0x105 PUSH2 0x9F3 JUMP JUMPDEST PUSH1 0x0 JUMPDEST PUSH1 0x0 DUP1 SLOAD SWAP1 POP DUP2 LT ISZERO PUSH2 0x3E0 JUMPI DUP3 PUSH1 0x40 MLOAD PUSH1 0x20 ADD PUSH2 0x126 SWAP2 SWAP1 PUSH2 0xF47 JUMP JUMPDEST PUSH1 0x40 MLOAD PUSH1 0x20 DUP2 DUP4 SUB SUB DUP2 MSTORE SWAP1 PUSH1 0x40 MSTORE DUP1 MLOAD SWAP1 PUSH1 0x20 ADD KECCAK256 PUSH1 0x0 DUP3 DUP2 SLOAD DUP2 LT PUSH2 0x150 JUMPI PUSH2 0x14F PUSH2 0xF5E JUMP JUMPDEST JUMPDEST SWAP1 PUSH1 0x0 MSTORE PUSH1 0x20 PUSH1 0x0 KECCAK256 SWAP1 PUSH1 0x4 MUL ADD PUSH1 0x1 ADD PUSH1 0x40 MLOAD PUSH1 0x20 ADD PUSH2 0x171 SWAP2 SWAP1 PUSH2 0x1085 JUMP JUMPDEST PUSH1 0x40 MLOAD PUSH1 0x20 DUP2 DUP4 SUB SUB DUP2 MSTORE SWAP1 PUSH1 0x40 MSTORE DUP1 MLOAD SWAP1 PUSH1 0x20 ADD KECCAK256 SUB PUSH2 0x3CD JUMPI PUSH1 0x0 DUP2 DUP2 SLOAD DUP2 LT PUSH2 0x1A0 JUMPI PUSH2 0x19F PUSH2 0xF5E JUMP JUMPDEST JUMPDEST SWAP1 PUSH1 0x0 MSTORE PUSH1 0x20 PUSH1 0x0 KECCAK256 SWAP1 PUSH1 0x4 MUL ADD PUSH1 0x40 MLOAD DUP1 PUSH1 0x80 ADD PUSH1 0x40 MSTORE SWAP1 DUP2 PUSH1 0x0 DUP3 ADD PUSH1 0x0 SWAP1 SLOAD SWAP1 PUSH2 0x100 EXP SWAP1 DIV PUSH20 0xFFFFFFFFFFFFFFFFFFFFFFFFFFFFFFFFFFFFFFFF AND PUSH20 0xFFFFFFFFFFFFFFFFFFFFFFFFFFFFFFFFFFFFFFFF AND PUSH20 0xFFFFFFFFFFFFFFFFFFFFFFFFFFFFFFFFFFFFFFFF AND DUP2 MSTORE PUSH1 0x20 ADD PUSH1 0x1 DUP3 ADD DUP1 SLOAD PUSH2 0x21F SWAP1 PUSH2 0xFBC JUMP JUMPDEST DUP1 PUSH1 0x1F ADD PUSH1 0x20 DUP1 SWAP2 DIV MUL PUSH1 0x20 ADD PUSH1 0x40 MLOAD SWAP1 DUP2 ADD PUSH1 0x40 MSTORE DUP1 SWAP3 SWAP2 SWAP1 DUP2 DUP2 MSTORE PUSH1 0x20 ADD DUP3 DUP1 SLOAD PUSH2 0x24B SWAP1 PUSH2 0xFBC JUMP JUMPDEST DUP1 ISZERO PUSH2 0x298 JUMPI DUP1 PUSH1 0x1F LT PUSH2 0x26D JUMPI PUSH2 0x100 DUP1 DUP4 SLOAD DIV MUL DUP4 MSTORE SWAP2 PUSH1 0x20 ADD SWAP2 PUSH2 0x298 JUMP JUMPDEST DUP3 ADD SWAP2 SWAP1 PUSH1 0x0 MSTORE PUSH1 0x20 PUSH1 0x0 KECCAK256 SWAP1 JUMPDEST DUP2 SLOAD DUP2 MSTORE SWAP1 PUSH1 0x1 ADD SWAP1 PUSH1 0x20 ADD DUP1 DUP4 GT PUSH2 0x27B JUMPI DUP3 SWAP1 SUB PUSH1 0x1F AND DUP3 ADD SWAP2 JUMPDEST POP POP POP POP POP DUP2 MSTORE PUSH1 0x20 ADD PUSH1 0x2 DUP3 ADD DUP1 SLOAD PUSH2 0x2B1 SWAP1 PUSH2 0xFBC JUMP JUMPDEST DUP1 PUSH1 0x1F ADD PUSH1 0x20 DUP1 SWAP2 DIV MUL PUSH1 0x20 ADD PUSH1 0x40 MLOAD SWAP1 DUP2 ADD PUSH1 0x40 MSTORE DUP1 SWAP3 SWAP2 SWAP1 DUP2 DUP2 MSTORE PUSH1 0x20 ADD DUP3 DUP1 SLOAD PUSH2 0x2DD SWAP1 PUSH2 0xFBC JUMP JUMPDEST DUP1 ISZERO PUSH2 0x32A JUMPI DUP1 PUSH1 0x1F LT PUSH2 0x2FF JUMPI PUSH2 0x100 DUP1 DUP4 SLOAD DIV MUL DUP4 MSTORE SWAP2 PUSH1 0x20 ADD SWAP2 PUSH2 0x32A JUMP JUMPDEST DUP3 ADD SWAP2 SWAP1 PUSH1 0x0 MSTORE PUSH1 0x20 PUSH1 0x0 KECCAK256 SWAP1 JUMPDEST DUP2 SLOAD DUP2 MSTORE SWAP1 PUSH1 0x1 ADD SWAP1 PUSH1 0x20 ADD DUP1 DUP4 GT PUSH2 0x30D JUMPI DUP3 SWAP1 SUB PUSH1 0x1F AND DUP3 ADD SWAP2 JUMPDEST POP POP POP POP POP DUP2 MSTORE PUSH1 0x20 ADD PUSH1 0x3 DUP3 ADD DUP1 SLOAD PUSH2 0x343 SWAP1 PUSH2 0xFBC JUMP JUMPDEST DUP1 PUSH1 0x1F ADD PUSH1 0x20 DUP1 SWAP2 DIV MUL PUSH1 0x20 ADD PUSH1 0x40 MLOAD SWAP1 DUP2 ADD PUSH1 0x40 MSTORE DUP1 SWAP3 SWAP2 SWAP1 DUP2 DUP2 MSTORE PUSH1 0x20 ADD DUP3 DUP1 SLOAD PUSH2 0x36F SWAP1 PUSH2 0xFBC JUMP JUMPDEST DUP1 ISZERO PUSH2 0x3BC JUMPI DUP1 PUSH1 0x1F LT PUSH2 0x391 JUMPI PUSH2 0x100 DUP1 DUP4 SLOAD DIV MUL DUP4 MSTORE SWAP2 PUSH1 0x20 ADD SWAP2 PUSH2 0x3BC JUMP JUMPDEST DUP3 ADD SWAP2 SWAP1 PUSH1 0x0 MSTORE PUSH1 0x20 PUSH1 0x0 KECCAK256 SWAP1 JUMPDEST DUP2 SLOAD DUP2 MSTORE SWAP1 PUSH1 0x1 ADD SWAP1 PUSH1 0x20 ADD DUP1 DUP4 GT PUSH2 0x39F JUMPI DUP3 SWAP1 SUB PUSH1 0x1F AND DUP3 ADD SWAP2 JUMPDEST POP POP POP POP POP DUP2 MSTORE POP POP SWAP2 POP POP PUSH2 0x449 JUMP JUMPDEST DUP1 DUP1 PUSH2 0x3D8 SWAP1 PUSH2 0x10D5 JUMP JUMPDEST SWAP2 POP POP PUSH2 0x108 JUMP JUMPDEST POP PUSH1 0x40 MLOAD DUP1 PUSH1 0x80 ADD PUSH1 0x40 MSTORE DUP1 PUSH1 0x0 PUSH20 0xFFFFFFFFFFFFFFFFFFFFFFFFFFFFFFFFFFFFFFFF AND DUP2 MSTORE PUSH1 0x20 ADD PUSH1 0x40 MLOAD DUP1 PUSH1 0x20 ADD PUSH1 0x40 MSTORE DUP1 PUSH1 0x0 DUP2 MSTORE POP DUP2 MSTORE PUSH1 0x20 ADD PUSH1 0x40 MLOAD DUP1 PUSH1 0x20 ADD PUSH1 0x40 MSTORE DUP1 PUSH1 0x0 DUP2 MSTORE POP DUP2 MSTORE PUSH1 0x20 ADD PUSH1 0x40 MLOAD DUP1 PUSH1 0x20 ADD PUSH1 0x40 MSTORE DUP1 PUSH1 0x0 DUP2 MSTORE POP DUP2 MSTORE POP SWAP1 POP JUMPDEST SWAP2 SWAP1 POP JUMP JUMPDEST PUSH1 0x60 PUSH1 0x0 JUMPDEST PUSH1 0x0 DUP1 SLOAD SWAP1 POP DUP2 LT ISZERO PUSH2 0x599 JUMPI DUP3 PUSH1 0x0 ADD MLOAD PUSH20 0xFFFFFFFFFFFFFFFFFFFFFFFFFFFFFFFFFFFFFFFF AND PUSH1 0x0 DUP3 DUP2 SLOAD DUP2 LT PUSH2 0x48F JUMPI PUSH2 0x48E PUSH2 0xF5E JUMP JUMPDEST JUMPDEST SWAP1 PUSH1 0x0 MSTORE PUSH1 0x20 PUSH1 0x0 KECCAK256 SWAP1 PUSH1 0x4 MUL ADD PUSH1 0x0 ADD PUSH1 0x0 SWAP1 SLOAD SWAP1 PUSH2 0x100 EXP SWAP1 DIV PUSH20 0xFFFFFFFFFFFFFFFFFFFFFFFFFFFFFFFFFFFFFFFF AND PUSH20 0xFFFFFFFFFFFFFFFFFFFFFFFFFFFFFFFFFFFFFFFF AND SUB PUSH2 0x4FD JUMPI PUSH1 0x40 MLOAD DUP1 PUSH1 0x60 ADD PUSH1 0x40 MSTORE DUP1 PUSH1 0x25 DUP2 MSTORE PUSH1 0x20 ADD PUSH2 0x1506 PUSH1 0x25 SWAP2 CODECOPY SWAP2 POP POP PUSH2 0x5AD JUMP JUMPDEST DUP3 PUSH1 0x20 ADD MLOAD DUP1 MLOAD SWAP1 PUSH1 0x20 ADD KECCAK256 PUSH1 0x0 DUP3 DUP2 SLOAD DUP2 LT PUSH2 0x51D JUMPI PUSH2 0x51C PUSH2 0xF5E JUMP JUMPDEST JUMPDEST SWAP1 PUSH1 0x0 MSTORE PUSH1 0x20 PUSH1 0x0 KECCAK256 SWAP1 PUSH1 0x4 MUL ADD PUSH1 0x1 ADD PUSH1 0x40 MLOAD PUSH2 0x53B SWAP2 SWAP1 PUSH2 0x11C0 JUMP JUMPDEST PUSH1 0x40 MLOAD DUP1 SWAP2 SUB SWAP1 KECCAK256 SUB PUSH2 0x586 JUMPI PUSH1 0x40 MLOAD DUP1 PUSH1 0x40 ADD PUSH1 0x40 MSTORE DUP1 PUSH1 0x1F DUP2 MSTORE PUSH1 0x20 ADD PUSH32 0x557365722068617320746F2068617665206120756E69717565206E616D652E00 DUP2 MSTORE POP SWAP2 POP POP PUSH2 0x5AD JUMP JUMPDEST DUP1 DUP1 PUSH2 0x591 SWAP1 PUSH2 0x10D5 JUMP JUMPDEST SWAP2 POP POP PUSH2 0x453 JUMP JUMPDEST POP PUSH1 0x40 MLOAD DUP1 PUSH1 0x20 ADD PUSH1 0x40 MSTORE DUP1 PUSH1 0x0 DUP2 MSTORE POP SWAP1 POP JUMPDEST SWAP2 SWAP1 POP JUMP JUMPDEST PUSH1 0x0 PUSH2 0x5BD DUP3 PUSH2 0x44E JUMP JUMPDEST SWAP1 POP PUSH1 0x0 DUP2 MLOAD SUB PUSH2 0x6BD JUMPI PUSH1 0x0 DUP3 SWAP1 DUP1 PUSH1 0x1 DUP2 SLOAD ADD DUP1 DUP3 SSTORE DUP1 SWAP2 POP POP PUSH1 0x1 SWAP1 SUB SWAP1 PUSH1 0x0 MSTORE PUSH1 0x20 PUSH1 0x0 KECCAK256 SWAP1 PUSH1 0x4 MUL ADD PUSH1 0x0 SWAP1 SWAP2 SWAP1 SWAP2 SWAP1 SWAP2 POP PUSH1 0x0 DUP3 ADD MLOAD DUP2 PUSH1 0x0 ADD PUSH1 0x0 PUSH2 0x100 EXP DUP2 SLOAD DUP2 PUSH20 0xFFFFFFFFFFFFFFFFFFFFFFFFFFFFFFFFFFFFFFFF MUL NOT AND SWAP1 DUP4 PUSH20 0xFFFFFFFFFFFFFFFFFFFFFFFFFFFFFFFFFFFFFFFF AND MUL OR SWAP1 SSTORE POP PUSH1 0x20 DUP3 ADD MLOAD DUP2 PUSH1 0x1 ADD SWAP1 DUP2 PUSH2 0x650 SWAP2 SWAP1 PUSH2 0x136E JUMP JUMPDEST POP PUSH1 0x40 DUP3 ADD MLOAD DUP2 PUSH1 0x2 ADD SWAP1 DUP2 PUSH2 0x666 SWAP2 SWAP1 PUSH2 0x136E JUMP JUMPDEST POP PUSH1 0x60 DUP3 ADD MLOAD DUP2 PUSH1 0x3 ADD SWAP1 DUP2 PUSH2 0x67C SWAP2 SWAP1 PUSH2 0x136E JUMP JUMPDEST POP POP POP PUSH32 0x40590457641DA6C4E096F4CA29EB26968297D549F04209FA29E48FA5E22405CB PUSH1 0x1 PUSH1 0x40 MLOAD PUSH2 0x6AF SWAP2 SWAP1 PUSH2 0x14A7 JUMP JUMPDEST PUSH1 0x40 MLOAD DUP1 SWAP2 SUB SWAP1 LOG1 POP PUSH2 0x6F9 JUMP JUMPDEST PUSH32 0x40590457641DA6C4E096F4CA29EB26968297D549F04209FA29E48FA5E22405CB PUSH1 0x0 DUP3 PUSH1 0x40 MLOAD PUSH2 0x6EF SWAP3 SWAP2 SWAP1 PUSH2 0x14D5 JUMP JUMPDEST PUSH1 0x40 MLOAD DUP1 SWAP2 SUB SWAP1 LOG1 POP JUMPDEST POP JUMP JUMPDEST PUSH2 0x704 PUSH2 0x9F3 JUMP JUMPDEST PUSH1 0x0 JUMPDEST PUSH1 0x0 DUP1 SLOAD SWAP1 POP DUP2 LT ISZERO PUSH2 0x9E0 JUMPI DUP3 PUSH20 0xFFFFFFFFFFFFFFFFFFFFFFFFFFFFFFFFFFFFFFFF AND PUSH1 0x0 DUP3 DUP2 SLOAD DUP2 LT PUSH2 0x73F JUMPI PUSH2 0x73E PUSH2 0xF5E JUMP JUMPDEST JUMPDEST SWAP1 PUSH1 0x0 MSTORE PUSH1 0x20 PUSH1 0x0 KECCAK256 SWAP1 PUSH1 0x4 MUL ADD PUSH1 0x0 ADD PUSH1 0x0 SWAP1 SLOAD SWAP1 PUSH2 0x100 EXP SWAP1 DIV PUSH20 0xFFFFFFFFFFFFFFFFFFFFFFFFFFFFFFFFFFFFFFFF AND PUSH20 0xFFFFFFFFFFFFFFFFFFFFFFFFFFFFFFFFFFFFFFFF AND SUB PUSH2 0x9CD JUMPI PUSH1 0x0 DUP2 DUP2 SLOAD DUP2 LT PUSH2 0x7A0 JUMPI PUSH2 0x79F PUSH2 0xF5E JUMP JUMPDEST JUMPDEST SWAP1 PUSH1 0x0 MSTORE PUSH1 0x20 PUSH1 0x0 KECCAK256 SWAP1 PUSH1 0x4 MUL ADD PUSH1 0x40 MLOAD DUP1 PUSH1 0x80 ADD PUSH1 0x40 MSTORE SWAP1 DUP2 PUSH1 0x0 DUP3 ADD PUSH1 0x0 SWAP1 SLOAD SWAP1 PUSH2 0x100 EXP SWAP1 DIV PUSH20 0xFFFFFFFFFFFFFFFFFFFFFFFFFFFFFFFFFFFFFFFF AND PUSH20 0xFFFFFFFFFFFFFFFFFFFFFFFFFFFFFFFFFFFFFFFF AND PUSH20 0xFFFFFFFFFFFFFFFFFFFFFFFFFFFFFFFFFFFFFFFF AND DUP2 MSTORE PUSH1 0x20 ADD PUSH1 0x1 DUP3 ADD DUP1 SLOAD PUSH2 0x81F SWAP1 PUSH2 0xFBC JUMP JUMPDEST DUP1 PUSH1 0x1F ADD PUSH1 0x20 DUP1 SWAP2 DIV MUL PUSH1 0x20 ADD PUSH1 0x40 MLOAD SWAP1 DUP2 ADD PUSH1 0x40 MSTORE DUP1 SWAP3 SWAP2 SWAP1 DUP2 DUP2 MSTORE PUSH1 0x20 ADD DUP3 DUP1 SLOAD PUSH2 0x84B SWAP1 PUSH2 0xFBC JUMP JUMPDEST DUP1 ISZERO PUSH2 0x898 JUMPI DUP1 PUSH1 0x1F LT PUSH2 0x86D JUMPI PUSH2 0x100 DUP1 DUP4 SLOAD DIV MUL DUP4 MSTORE SWAP2 PUSH1 0x20 ADD SWAP2 PUSH2 0x898 JUMP JUMPDEST DUP3 ADD SWAP2 SWAP1 PUSH1 0x0 MSTORE PUSH1 0x20 PUSH1 0x0 KECCAK256 SWAP1 JUMPDEST DUP2 SLOAD DUP2 MSTORE SWAP1 PUSH1 0x1 ADD SWAP1 PUSH1 0x20 ADD DUP1 DUP4 GT PUSH2 0x87B JUMPI DUP3 SWAP1 SUB PUSH1 0x1F AND DUP3 ADD SWAP2 JUMPDEST POP POP POP POP POP DUP2 MSTORE PUSH1 0x20 ADD PUSH1 0x2 DUP3 ADD DUP1 SLOAD PUSH2 0x8B1 SWAP1 PUSH2 0xFBC JUMP JUMPDEST DUP1 PUSH1 0x1F ADD PUSH1 0x20 DUP1 SWAP2 DIV MUL PUSH1 0x20 ADD PUSH1 0x40 MLOAD SWAP1 DUP2 ADD PUSH1 0x40 MSTORE DUP1 SWAP3 SWAP2 SWAP1 DUP2 DUP2 MSTORE PUSH1 0x20 ADD DUP3 DUP1 SLOAD PUSH2 0x8DD SWAP1 PUSH2 0xFBC JUMP JUMPDEST DUP1 ISZERO PUSH2 0x92A JUMPI DUP1 PUSH1 0x1F LT PUSH2 0x8FF JUMPI PUSH2 0x100 DUP1 DUP4 SLOAD DIV MUL DUP4 MSTORE SWAP2 PUSH1 0x20 ADD SWAP2 PUSH2 0x92A JUMP JUMPDEST DUP3 ADD SWAP2 SWAP1 PUSH1 0x0 MSTORE PUSH1 0x20 PUSH1 0x0 KECCAK256 SWAP1 JUMPDEST DUP2 SLOAD DUP2 MSTORE SWAP1 PUSH1 0x1 ADD SWAP1 PUSH1 0x20 ADD DUP1 DUP4 GT PUSH2 0x90D JUMPI DUP3 SWAP1 SUB PUSH1 0x1F AND DUP3 ADD SWAP2 JUMPDEST POP POP POP POP POP DUP2 MSTORE PUSH1 0x20 ADD PUSH1 0x3 DUP3 ADD DUP1 SLOAD PUSH2 0x943 SWAP1 PUSH2 0xFBC JUMP JUMPDEST DUP1 PUSH1 0x1F ADD PUSH1 0x20 DUP1 SWAP2 DIV MUL PUSH1 0x20 ADD PUSH1 0x40 MLOAD SWAP1 DUP2 ADD PUSH1 0x40 MSTORE DUP1 SWAP3 SWAP2 SWAP1 DUP2 DUP2 MSTORE PUSH1 0x20 ADD DUP3 DUP1 SLOAD PUSH2 0x96F SWAP1 PUSH2 0xFBC JUMP JUMPDEST DUP1 ISZERO PUSH2 0x9BC JUMPI DUP1 PUSH1 0x1F LT PUSH2 0x991 JUMPI PUSH2 0x100 DUP1 DUP4 SLOAD DIV MUL DUP4 MSTORE SWAP2 PUSH1 0x20 ADD SWAP2 PUSH2 0x9BC JUMP JUMPDEST DUP3 ADD SWAP2 SWAP1 PUSH1 0x0 MSTORE PUSH1 0x20 PUSH1 0x0 KECCAK256 SWAP1 JUMPDEST DUP2 SLOAD DUP2 MSTORE SWAP1 PUSH1 0x1 ADD SWAP1 PUSH1 0x20 ADD DUP1 DUP4 GT PUSH2 0x99F JUMPI DUP3 SWAP1 SUB PUSH1 0x1F AND DUP3 ADD SWAP2 JUMPDEST POP POP POP POP POP DUP2 MSTORE POP POP SWAP2 POP POP PUSH2 0x9EE JUMP JUMPDEST DUP1 DUP1 PUSH2 0x9D8 SWAP1 PUSH2 0x10D5 JUMP JUMPDEST SWAP2 POP POP PUSH2 0x707 JUMP JUMPDEST POP PUSH2 0x9E9 PUSH2 0x9F3 JUMP JUMPDEST DUP1 SWAP2 POP POP JUMPDEST SWAP2 SWAP1 POP JUMP JUMPDEST PUSH1 0x40 MLOAD DUP1 PUSH1 0x80 ADD PUSH1 0x40 MSTORE DUP1 PUSH1 0x0 PUSH20 0xFFFFFFFFFFFFFFFFFFFFFFFFFFFFFFFFFFFFFFFF AND DUP2 MSTORE PUSH1 0x20 ADD PUSH1 0x60 DUP2 MSTORE PUSH1 0x20 ADD PUSH1 0x60 DUP2 MSTORE PUSH1 0x20 ADD PUSH1 0x60 DUP2 MSTORE POP SWAP1 JUMP JUMPDEST PUSH1 0x0 PUSH1 0x40 MLOAD SWAP1 POP SWAP1 JUMP JUMPDEST PUSH1 0x0 DUP1 REVERT JUMPDEST PUSH1 0x0 DUP1 REVERT JUMPDEST PUSH1 0x0 DUP1 REVERT JUMPDEST PUSH1 0x0 DUP1 REVERT JUMPDEST PUSH1 0x0 PUSH1 0x1F NOT PUSH1 0x1F DUP4 ADD AND SWAP1 POP SWAP2 SWAP1 POP JUMP JUMPDEST PUSH32 0x4E487B7100000000000000000000000000000000000000000000000000000000 PUSH1 0x0 MSTORE PUSH1 0x41 PUSH1 0x4 MSTORE PUSH1 0x24 PUSH1 0x0 REVERT JUMPDEST PUSH2 0xA98 DUP3 PUSH2 0xA4F JUMP JUMPDEST DUP2 ADD DUP2 DUP2 LT PUSH8 0xFFFFFFFFFFFFFFFF DUP3 GT OR ISZERO PUSH2 0xAB7 JUMPI PUSH2 0xAB6 PUSH2 0xA60 JUMP JUMPDEST JUMPDEST DUP1 PUSH1 0x40 MSTORE POP POP POP JUMP JUMPDEST PUSH1 0x0 PUSH2 0xACA PUSH2 0xA31 JUMP JUMPDEST SWAP1 POP PUSH2 0xAD6 DUP3 DUP3 PUSH2 0xA8F JUMP JUMPDEST SWAP2 SWAP1 POP JUMP JUMPDEST PUSH1 0x0 PUSH8 0xFFFFFFFFFFFFFFFF DUP3 GT ISZERO PUSH2 0xAF6 JUMPI PUSH2 0xAF5 PUSH2 0xA60 JUMP JUMPDEST JUMPDEST PUSH2 0xAFF DUP3 PUSH2 0xA4F JUMP JUMPDEST SWAP1 POP PUSH1 0x20 DUP2 ADD SWAP1 POP SWAP2 SWAP1 POP JUMP JUMPDEST DUP3 DUP2 DUP4 CALLDATACOPY PUSH1 0x0 DUP4 DUP4 ADD MSTORE POP POP POP JUMP JUMPDEST PUSH1 0x0 PUSH2 0xB2E PUSH2 0xB29 DUP5 PUSH2 0xADB JUMP JUMPDEST PUSH2 0xAC0 JUMP JUMPDEST SWAP1 POP DUP3 DUP2 MSTORE PUSH1 0x20 DUP2 ADD DUP5 DUP5 DUP5 ADD GT ISZERO PUSH2 0xB4A JUMPI PUSH2 0xB49 PUSH2 0xA4A JUMP JUMPDEST JUMPDEST PUSH2 0xB55 DUP5 DUP3 DUP6 PUSH2 0xB0C JUMP JUMPDEST POP SWAP4 SWAP3 POP POP POP JUMP JUMPDEST PUSH1 0x0 DUP3 PUSH1 0x1F DUP4 ADD SLT PUSH2 0xB72 JUMPI PUSH2 0xB71 PUSH2 0xA45 JUMP JUMPDEST JUMPDEST DUP2 CALLDATALOAD PUSH2 0xB82 DUP5 DUP3 PUSH1 0x20 DUP7 ADD PUSH2 0xB1B JUMP JUMPDEST SWAP2 POP POP SWAP3 SWAP2 POP POP JUMP JUMPDEST PUSH1 0x0 PUSH1 0x20 DUP3 DUP5 SUB SLT ISZERO PUSH2 0xBA1 JUMPI PUSH2 0xBA0 PUSH2 0xA3B JUMP JUMPDEST JUMPDEST PUSH1 0x0 DUP3 ADD CALLDATALOAD PUSH8 0xFFFFFFFFFFFFFFFF DUP2 GT ISZERO PUSH2 0xBBF JUMPI PUSH2 0xBBE PUSH2 0xA40 JUMP JUMPDEST JUMPDEST PUSH2 0xBCB DUP5 DUP3 DUP6 ADD PUSH2 0xB5D JUMP JUMPDEST SWAP2 POP POP SWAP3 SWAP2 POP POP JUMP JUMPDEST PUSH1 0x0 PUSH20 0xFFFFFFFFFFFFFFFFFFFFFFFFFFFFFFFFFFFFFFFF DUP3 AND SWAP1 POP SWAP2 SWAP1 POP JUMP JUMPDEST PUSH1 0x0 PUSH2 0xBFF DUP3 PUSH2 0xBD4 JUMP JUMPDEST SWAP1 POP SWAP2 SWAP1 POP JUMP JUMPDEST PUSH2 0xC0F DUP2 PUSH2 0xBF4 JUMP JUMPDEST DUP3 MSTORE POP POP JUMP JUMPDEST PUSH1 0x0 DUP2 MLOAD SWAP1 POP SWAP2 SWAP1 POP JUMP JUMPDEST PUSH1 0x0 DUP3 DUP3 MSTORE PUSH1 0x20 DUP3 ADD SWAP1 POP SWAP3 SWAP2 POP POP JUMP JUMPDEST PUSH1 0x0 JUMPDEST DUP4 DUP2 LT ISZERO PUSH2 0xC4F JUMPI DUP1 DUP3 ADD MLOAD DUP2 DUP5 ADD MSTORE PUSH1 0x20 DUP2 ADD SWAP1 POP PUSH2 0xC34 JUMP JUMPDEST PUSH1 0x0 DUP5 DUP5 ADD MSTORE POP POP POP POP JUMP JUMPDEST PUSH1 0x0 PUSH2 0xC66 DUP3 PUSH2 0xC15 JUMP JUMPDEST PUSH2 0xC70 DUP2 DUP6 PUSH2 0xC20 JUMP JUMPDEST SWAP4 POP PUSH2 0xC80 DUP2 DUP6 PUSH1 0x20 DUP7 ADD PUSH2 0xC31 JUMP JUMPDEST PUSH2 0xC89 DUP2 PUSH2 0xA4F JUMP JUMPDEST DUP5 ADD SWAP2 POP POP SWAP3 SWAP2 POP POP JUMP JUMPDEST PUSH1 0x0 PUSH1 0x80 DUP4 ADD PUSH1 0x0 DUP4 ADD MLOAD PUSH2 0xCAC PUSH1 0x0 DUP7 ADD DUP3 PUSH2 0xC06 JUMP JUMPDEST POP PUSH1 0x20 DUP4 ADD MLOAD DUP5 DUP3 SUB PUSH1 0x20 DUP7 ADD MSTORE PUSH2 0xCC4 DUP3 DUP3 PUSH2 0xC5B JUMP JUMPDEST SWAP2 POP POP PUSH1 0x40 DUP4 ADD MLOAD DUP5 DUP3 SUB PUSH1 0x40 DUP7 ADD MSTORE PUSH2 0xCDE DUP3 DUP3 PUSH2 0xC5B JUMP JUMPDEST SWAP2 POP POP PUSH1 0x60 DUP4 ADD MLOAD DUP5 DUP3 SUB PUSH1 0x60 DUP7 ADD MSTORE PUSH2 0xCF8 DUP3 DUP3 PUSH2 0xC5B JUMP JUMPDEST SWAP2 POP POP DUP1 SWAP2 POP POP SWAP3 SWAP2 POP POP JUMP JUMPDEST PUSH1 0x0 PUSH1 0x20 DUP3 ADD SWAP1 POP DUP2 DUP2 SUB PUSH1 0x0 DUP4 ADD MSTORE PUSH2 0xD1F DUP2 DUP5 PUSH2 0xC94 JUMP JUMPDEST SWAP1 POP SWAP3 SWAP2 POP POP JUMP JUMPDEST PUSH1 0x0 DUP1 REVERT JUMPDEST PUSH1 0x0 DUP1 REVERT JUMPDEST PUSH2 0xD3A DUP2 PUSH2 0xBF4 JUMP JUMPDEST DUP2 EQ PUSH2 0xD45 JUMPI PUSH1 0x0 DUP1 REVERT JUMPDEST POP JUMP JUMPDEST PUSH1 0x0 DUP2 CALLDATALOAD SWAP1 POP PUSH2 0xD57 DUP2 PUSH2 0xD31 JUMP JUMPDEST SWAP3 SWAP2 POP POP JUMP JUMPDEST PUSH1 0x0 PUSH1 0x80 DUP3 DUP5 SUB SLT ISZERO PUSH2 0xD73 JUMPI PUSH2 0xD72 PUSH2 0xD27 JUMP JUMPDEST JUMPDEST PUSH2 0xD7D PUSH1 0x80 PUSH2 0xAC0 JUMP JUMPDEST SWAP1 POP PUSH1 0x0 PUSH2 0xD8D DUP5 DUP3 DUP6 ADD PUSH2 0xD48 JUMP JUMPDEST PUSH1 0x0 DUP4 ADD MSTORE POP PUSH1 0x20 DUP3 ADD CALLDATALOAD PUSH8 0xFFFFFFFFFFFFFFFF DUP2 GT ISZERO PUSH2 0xDB1 JUMPI PUSH2 0xDB0 PUSH2 0xD2C JUMP JUMPDEST JUMPDEST PUSH2 0xDBD DUP5 DUP3 DUP6 ADD PUSH2 0xB5D JUMP JUMPDEST PUSH1 0x20 DUP4 ADD MSTORE POP PUSH1 0x40 DUP3 ADD CALLDATALOAD PUSH8 0xFFFFFFFFFFFFFFFF DUP2 GT ISZERO PUSH2 0xDE1 JUMPI PUSH2 0xDE0 PUSH2 0xD2C JUMP JUMPDEST JUMPDEST PUSH2 0xDED DUP5 DUP3 DUP6 ADD PUSH2 0xB5D JUMP JUMPDEST PUSH1 0x40 DUP4 ADD MSTORE POP PUSH1 0x60 DUP3 ADD CALLDATALOAD PUSH8 0xFFFFFFFFFFFFFFFF DUP2 GT ISZERO PUSH2 0xE11 JUMPI PUSH2 0xE10 PUSH2 0xD2C JUMP JUMPDEST JUMPDEST PUSH2 0xE1D DUP5 DUP3 DUP6 ADD PUSH2 0xB5D JUMP JUMPDEST PUSH1 0x60 DUP4 ADD MSTORE POP SWAP3 SWAP2 POP POP JUMP JUMPDEST PUSH1 0x0 PUSH1 0x20 DUP3 DUP5 SUB SLT ISZERO PUSH2 0xE3F JUMPI PUSH2 0xE3E PUSH2 0xA3B JUMP JUMPDEST JUMPDEST PUSH1 0x0 DUP3 ADD CALLDATALOAD PUSH8 0xFFFFFFFFFFFFFFFF DUP2 GT ISZERO PUSH2 0xE5D JUMPI PUSH2 0xE5C PUSH2 0xA40 JUMP JUMPDEST JUMPDEST PUSH2 0xE69 DUP5 DUP3 DUP6 ADD PUSH2 0xD5D JUMP JUMPDEST SWAP2 POP POP SWAP3 SWAP2 POP POP JUMP JUMPDEST PUSH1 0x0 DUP3 DUP3 MSTORE PUSH1 0x20 DUP3 ADD SWAP1 POP SWAP3 SWAP2 POP POP JUMP JUMPDEST PUSH1 0x0 PUSH2 0xE8E DUP3 PUSH2 0xC15 JUMP JUMPDEST PUSH2 0xE98 DUP2 DUP6 PUSH2 0xE72 JUMP JUMPDEST SWAP4 POP PUSH2 0xEA8 DUP2 DUP6 PUSH1 0x20 DUP7 ADD PUSH2 0xC31 JUMP JUMPDEST PUSH2 0xEB1 DUP2 PUSH2 0xA4F JUMP JUMPDEST DUP5 ADD SWAP2 POP POP SWAP3 SWAP2 POP POP JUMP JUMPDEST PUSH1 0x0 PUSH1 0x20 DUP3 ADD SWAP1 POP DUP2 DUP2 SUB PUSH1 0x0 DUP4 ADD MSTORE PUSH2 0xED6 DUP2 DUP5 PUSH2 0xE83 JUMP JUMPDEST SWAP1 POP SWAP3 SWAP2 POP POP JUMP JUMPDEST PUSH1 0x0 PUSH1 0x20 DUP3 DUP5 SUB SLT ISZERO PUSH2 0xEF4 JUMPI PUSH2 0xEF3 PUSH2 0xA3B JUMP JUMPDEST JUMPDEST PUSH1 0x0 PUSH2 0xF02 DUP5 DUP3 DUP6 ADD PUSH2 0xD48 JUMP JUMPDEST SWAP2 POP POP SWAP3 SWAP2 POP POP JUMP JUMPDEST PUSH1 0x0 DUP2 SWAP1 POP SWAP3 SWAP2 POP POP JUMP JUMPDEST PUSH1 0x0 PUSH2 0xF21 DUP3 PUSH2 0xC15 JUMP JUMPDEST PUSH2 0xF2B DUP2 DUP6 PUSH2 0xF0B JUMP JUMPDEST SWAP4 POP PUSH2 0xF3B DUP2 DUP6 PUSH1 0x20 DUP7 ADD PUSH2 0xC31 JUMP JUMPDEST DUP1 DUP5 ADD SWAP2 POP POP SWAP3 SWAP2 POP POP JUMP JUMPDEST PUSH1 0x0 PUSH2 0xF53 DUP3 DUP5 PUSH2 0xF16 JUMP JUMPDEST SWAP2 POP DUP2 SWAP1 POP SWAP3 SWAP2 POP POP JUMP JUMPDEST PUSH32 0x4E487B7100000000000000000000000000000000000000000000000000000000 PUSH1 0x0 MSTORE PUSH1 0x32 PUSH1 0x4 MSTORE PUSH1 0x24 PUSH1 0x0 REVERT JUMPDEST PUSH32 0x4E487B7100000000000000000000000000000000000000000000000000000000 PUSH1 0x0 MSTORE PUSH1 0x22 PUSH1 0x4 MSTORE PUSH1 0x24 PUSH1 0x0 REVERT JUMPDEST PUSH1 0x0 PUSH1 0x2 DUP3 DIV SWAP1 POP PUSH1 0x1 DUP3 AND DUP1 PUSH2 0xFD4 JUMPI PUSH1 0x7F DUP3 AND SWAP2 POP JUMPDEST PUSH1 0x20 DUP3 LT DUP2 SUB PUSH2 0xFE7 JUMPI PUSH2 0xFE6 PUSH2 0xF8D JUMP JUMPDEST JUMPDEST POP SWAP2 SWAP1 POP JUMP JUMPDEST PUSH1 0x0 DUP2 SWAP1 POP DUP2 PUSH1 0x0 MSTORE PUSH1 0x20 PUSH1 0x0 KECCAK256 SWAP1 POP SWAP2 SWAP1 POP JUMP JUMPDEST PUSH1 0x0 DUP2 SLOAD PUSH2 0x100F DUP2 PUSH2 0xFBC JUMP JUMPDEST PUSH2 0x1019 DUP2 DUP7 PUSH2 0xF0B JUMP JUMPDEST SWAP5 POP PUSH1 0x1 DUP3 AND PUSH1 0x0 DUP2 EQ PUSH2 0x1034 JUMPI PUSH1 0x1 DUP2 EQ PUSH2 0x1049 JUMPI PUSH2 0x107C JUMP JUMPDEST PUSH1 0xFF NOT DUP4 AND DUP7 MSTORE DUP2 ISZERO ISZERO DUP3 MUL DUP7 ADD SWAP4 POP PUSH2 0x107C JUMP JUMPDEST PUSH2 0x1052 DUP6 PUSH2 0xFED JUMP JUMPDEST PUSH1 0x0 JUMPDEST DUP4 DUP2 LT ISZERO PUSH2 0x1074 JUMPI DUP2 SLOAD DUP2 DUP10 ADD MSTORE PUSH1 0x1 DUP3 ADD SWAP2 POP PUSH1 0x20 DUP2 ADD SWAP1 POP PUSH2 0x1055 JUMP JUMPDEST DUP4 DUP9 ADD SWAP6 POP POP POP JUMPDEST POP POP POP SWAP3 SWAP2 POP POP JUMP JUMPDEST PUSH1 0x0 PUSH2 0x1091 DUP3 DUP5 PUSH2 0x1002 JUMP JUMPDEST SWAP2 POP DUP2 SWAP1 POP SWAP3 SWAP2 POP POP JUMP JUMPDEST PUSH32 0x4E487B7100000000000000000000000000000000000000000000000000000000 PUSH1 0x0 MSTORE PUSH1 0x11 PUSH1 0x4 MSTORE PUSH1 0x24 PUSH1 0x0 REVERT JUMPDEST PUSH1 0x0 DUP2 SWAP1 POP SWAP2 SWAP1 POP JUMP JUMPDEST PUSH1 0x0 PUSH2 0x10E0 DUP3 PUSH2 0x10CB JUMP JUMPDEST SWAP2 POP PUSH32 0xFFFFFFFFFFFFFFFFFFFFFFFFFFFFFFFFFFFFFFFFFFFFFFFFFFFFFFFFFFFFFFFF DUP3 SUB PUSH2 0x1112 JUMPI PUSH2 0x1111 PUSH2 0x109C JUMP JUMPDEST JUMPDEST PUSH1 0x1 DUP3 ADD SWAP1 POP SWAP2 SWAP1 POP JUMP JUMPDEST PUSH1 0x0 DUP2 SWAP1 POP SWAP3 SWAP2 POP POP JUMP JUMPDEST PUSH1 0x0 DUP2 SWAP1 POP DUP2 PUSH1 0x0 MSTORE PUSH1 0x20 PUSH1 0x0 KECCAK256 SWAP1 POP SWAP2 SWAP1 POP JUMP JUMPDEST PUSH1 0x0 DUP2 SLOAD PUSH2 0x114A DUP2 PUSH2 0xFBC JUMP JUMPDEST PUSH2 0x1154 DUP2 DUP7 PUSH2 0x111D JUMP JUMPDEST SWAP5 POP PUSH1 0x1 DUP3 AND PUSH1 0x0 DUP2 EQ PUSH2 0x116F JUMPI PUSH1 0x1 DUP2 EQ PUSH2 0x1184 JUMPI PUSH2 0x11B7 JUMP JUMPDEST PUSH1 0xFF NOT DUP4 AND DUP7 MSTORE DUP2 ISZERO ISZERO DUP3 MUL DUP7 ADD SWAP4 POP PUSH2 0x11B7 JUMP JUMPDEST PUSH2 0x118D DUP6 PUSH2 0x1128 JUMP JUMPDEST PUSH1 0x0 JUMPDEST DUP4 DUP2 LT ISZERO PUSH2 0x11AF JUMPI DUP2 SLOAD DUP2 DUP10 ADD MSTORE PUSH1 0x1 DUP3 ADD SWAP2 POP PUSH1 0x20 DUP2 ADD SWAP1 POP PUSH2 0x1190 JUMP JUMPDEST DUP4 DUP9 ADD SWAP6 POP POP POP JUMPDEST POP POP POP SWAP3 SWAP2 POP POP JUMP JUMPDEST PUSH1 0x0 PUSH2 0x11CC DUP3 DUP5 PUSH2 0x113D JUMP JUMPDEST SWAP2 POP DUP2 SWAP1 POP SWAP3 SWAP2 POP POP JUMP JUMPDEST PUSH1 0x0 PUSH1 0x20 PUSH1 0x1F DUP4 ADD DIV SWAP1 POP SWAP2 SWAP1 POP JUMP JUMPDEST PUSH1 0x0 DUP3 DUP3 SHL SWAP1 POP SWAP3 SWAP2 POP POP JUMP JUMPDEST PUSH1 0x0 PUSH1 0x8 DUP4 MUL PUSH2 0x1224 PUSH32 0xFFFFFFFFFFFFFFFFFFFFFFFFFFFFFFFFFFFFFFFFFFFFFFFFFFFFFFFFFFFFFFFF DUP3 PUSH2 0x11E7 JUMP JUMPDEST PUSH2 0x122E DUP7 DUP4 PUSH2 0x11E7 JUMP JUMPDEST SWAP6 POP DUP1 NOT DUP5 AND SWAP4 POP DUP1 DUP7 AND DUP5 OR SWAP3 POP POP POP SWAP4 SWAP3 POP POP POP JUMP JUMPDEST PUSH1 0x0 DUP2 SWAP1 POP SWAP2 SWAP1 POP JUMP JUMPDEST PUSH1 0x0 PUSH2 0x126B PUSH2 0x1266 PUSH2 0x1261 DUP5 PUSH2 0x10CB JUMP JUMPDEST PUSH2 0x1246 JUMP JUMPDEST PUSH2 0x10CB JUMP JUMPDEST SWAP1 POP SWAP2 SWAP1 POP JUMP JUMPDEST PUSH1 0x0 DUP2 SWAP1 POP SWAP2 SWAP1 POP JUMP JUMPDEST PUSH2 0x1285 DUP4 PUSH2 0x1250 JUMP JUMPDEST PUSH2 0x1299 PUSH2 0x1291 DUP3 PUSH2 0x1272 JUMP JUMPDEST DUP5 DUP5 SLOAD PUSH2 0x11F4 JUMP JUMPDEST DUP3 SSTORE POP POP POP POP JUMP JUMPDEST PUSH1 0x0 SWAP1 JUMP JUMPDEST PUSH2 0x12AE PUSH2 0x12A1 JUMP JUMPDEST PUSH2 0x12B9 DUP2 DUP5 DUP5 PUSH2 0x127C JUMP JUMPDEST POP POP POP JUMP JUMPDEST JUMPDEST DUP2 DUP2 LT ISZERO PUSH2 0x12DD JUMPI PUSH2 0x12D2 PUSH1 0x0 DUP3 PUSH2 0x12A6 JUMP JUMPDEST PUSH1 0x1 DUP2 ADD SWAP1 POP PUSH2 0x12BF JUMP JUMPDEST POP POP JUMP JUMPDEST PUSH1 0x1F DUP3 GT ISZERO PUSH2 0x1322 JUMPI PUSH2 0x12F3 DUP2 PUSH2 0xFED JUMP JUMPDEST PUSH2 0x12FC DUP5 PUSH2 0x11D7 JUMP JUMPDEST DUP2 ADD PUSH1 0x20 DUP6 LT ISZERO PUSH2 0x130B JUMPI DUP2 SWAP1 POP JUMPDEST PUSH2 0x131F PUSH2 0x1317 DUP6 PUSH2 0x11D7 JUMP JUMPDEST DUP4 ADD DUP3 PUSH2 0x12BE JUMP JUMPDEST POP POP JUMPDEST POP POP POP JUMP JUMPDEST PUSH1 0x0 DUP3 DUP3 SHR SWAP1 POP SWAP3 SWAP2 POP POP JUMP JUMPDEST PUSH1 0x0 PUSH2 0x1345 PUSH1 0x0 NOT DUP5 PUSH1 0x8 MUL PUSH2 0x1327 JUMP JUMPDEST NOT DUP1 DUP4 AND SWAP2 POP POP SWAP3 SWAP2 POP POP JUMP JUMPDEST PUSH1 0x0 PUSH2 0x135E DUP4 DUP4 PUSH2 0x1334 JUMP JUMPDEST SWAP2 POP DUP3 PUSH1 0x2 MUL DUP3 OR SWAP1 POP SWAP3 SWAP2 POP POP JUMP JUMPDEST PUSH2 0x1377 DUP3 PUSH2 0xC15 JUMP JUMPDEST PUSH8 0xFFFFFFFFFFFFFFFF DUP2 GT ISZERO PUSH2 0x1390 JUMPI PUSH2 0x138F PUSH2 0xA60 JUMP JUMPDEST JUMPDEST PUSH2 0x139A DUP3 SLOAD PUSH2 0xFBC JUMP JUMPDEST PUSH2 0x13A5 DUP3 DUP3 DUP6 PUSH2 0x12E1 JUMP JUMPDEST PUSH1 0x0 PUSH1 0x20 SWAP1 POP PUSH1 0x1F DUP4 GT PUSH1 0x1 DUP2 EQ PUSH2 0x13D8 JUMPI PUSH1 0x0 DUP5 ISZERO PUSH2 0x13C6 JUMPI DUP3 DUP8 ADD MLOAD SWAP1 POP JUMPDEST PUSH2 0x13D0 DUP6 DUP3 PUSH2 0x1352 JUMP JUMPDEST DUP7 SSTORE POP PUSH2 0x1438 JUMP JUMPDEST PUSH1 0x1F NOT DUP5 AND PUSH2 0x13E6 DUP7 PUSH2 0xFED JUMP JUMPDEST PUSH1 0x0 JUMPDEST DUP3 DUP2 LT ISZERO PUSH2 0x140E JUMPI DUP5 DUP10 ADD MLOAD DUP3 SSTORE PUSH1 0x1 DUP3 ADD SWAP2 POP PUSH1 0x20 DUP6 ADD SWAP5 POP PUSH1 0x20 DUP2 ADD SWAP1 POP PUSH2 0x13E9 JUMP JUMPDEST DUP7 DUP4 LT ISZERO PUSH2 0x142B JUMPI DUP5 DUP10 ADD MLOAD PUSH2 0x1427 PUSH1 0x1F DUP10 AND DUP3 PUSH2 0x1334 JUMP JUMPDEST DUP4 SSTORE POP JUMPDEST PUSH1 0x1 PUSH1 0x2 DUP9 MUL ADD DUP9 SSTORE POP POP POP JUMPDEST POP POP POP POP POP POP JUMP JUMPDEST PUSH1 0x0 DUP2 ISZERO ISZERO SWAP1 POP SWAP2 SWAP1 POP JUMP JUMPDEST PUSH2 0x1455 DUP2 PUSH2 0x1440 JUMP JUMPDEST DUP3 MSTORE POP POP JUMP JUMPDEST PUSH32 0x557365722072656769737465726564207375636365737366756C6C7900000000 PUSH1 0x0 DUP3 ADD MSTORE POP JUMP JUMPDEST PUSH1 0x0 PUSH2 0x1491 PUSH1 0x1C DUP4 PUSH2 0xE72 JUMP JUMPDEST SWAP2 POP PUSH2 0x149C DUP3 PUSH2 0x145B JUMP JUMPDEST PUSH1 0x20 DUP3 ADD SWAP1 POP SWAP2 SWAP1 POP JUMP JUMPDEST PUSH1 0x0 PUSH1 0x40 DUP3 ADD SWAP1 POP PUSH2 0x14BC PUSH1 0x0 DUP4 ADD DUP5 PUSH2 0x144C JUMP JUMPDEST DUP2 DUP2 SUB PUSH1 0x20 DUP4 ADD MSTORE PUSH2 0x14CD DUP2 PUSH2 0x1484 JUMP JUMPDEST SWAP1 POP SWAP3 SWAP2 POP POP JUMP JUMPDEST PUSH1 0x0 PUSH1 0x40 DUP3 ADD SWAP1 POP PUSH2 0x14EA PUSH1 0x0 DUP4 ADD DUP6 PUSH2 0x144C JUMP JUMPDEST DUP2 DUP2 SUB PUSH1 0x20 DUP4 ADD MSTORE PUSH2 0x14FC DUP2 DUP5 PUSH2 0xE83 JUMP JUMPDEST SWAP1 POP SWAP4 SWAP3 POP POP POP JUMP INVALID SSTORE PUSH20 0x657220616C72656164792065786973747320666F PUSH19 0x207468697320616464726573732EA264697066 PUSH20 0x5822122092BCE423687ED37F878EED3DB045E2A5 CALLER POP 0xC0 0xFC DIV 0xD7 MUL 0xDE SELFBALANCE 0xC7 AND 0x26 SLT STOP OR PUSH3 0x64736F PUSH13 0x63430008130033000000000000 "},"methodIdentifiers":{"checkRegistration((address,string,string,string))":"610273da","getUser(address)":"6f77926b","getUserByName(string)":"4bff5009","register((address,string,string,string))":"62629bef"}}}}}