{"contracts/StoreUser.sol":{"StoreUser":{"abi":[{"inputs":[{"internalType":"address","name":"account","type":"address"}],"name":"getUser","outputs":[{"components":[{"internalType":"address","name":"account","type":"address"},{"internalType":"string","name":"name","type":"string"},{"internalType":"string","name":"publicKey","type":"string"},{"internalType":"string","name":"privateKey","type":"string"}],"internalType":"struct User","name":"","type":"tuple"}],"stateMutability":"view","type":"function"},{"inputs":[{"components":[{"internalType":"address","name":"account","type":"address"},{"internalType":"string","name":"name","type":"string"},{"internalType":"string","name":"publicKey","type":"string"},{"internalType":"string","name":"privateKey","type":"string"}],"internalType":"struct User","name":"user","type":"tuple"}],"name":"login","outputs":[],"stateMutability":"nonpayable","type":"function"}],"evm":{"bytecode":{"linkReferences":{},"object":"608060405234801561001057600080fd5b50610cb1806100206000396000f3fe608060405234801561001057600080fd5b50600436106100365760003560e01c80636f77926b1461003b578063c3b56b601461006b575b600080fd5b6100556004803603810190610050919061053d565b610087565b604051610062919061067a565b60405180910390f35b610085600480360381019061008091906108a7565b6102eb565b005b61008f61048d565b6000808373ffffffffffffffffffffffffffffffffffffffff1673ffffffffffffffffffffffffffffffffffffffff1681526020019081526020016000206040518060800160405290816000820160009054906101000a900473ffffffffffffffffffffffffffffffffffffffff1673ffffffffffffffffffffffffffffffffffffffff1673ffffffffffffffffffffffffffffffffffffffff16815260200160018201805461013e9061091f565b80601f016020809104026020016040519081016040528092919081815260200182805461016a9061091f565b80156101b75780601f1061018c576101008083540402835291602001916101b7565b820191906000526020600020905b81548152906001019060200180831161019a57829003601f168201915b505050505081526020016002820180546101d09061091f565b80601f01602080910402602001604051908101604052809291908181526020018280546101fc9061091f565b80156102495780601f1061021e57610100808354040283529160200191610249565b820191906000526020600020905b81548152906001019060200180831161022c57829003601f168201915b505050505081526020016003820180546102629061091f565b80601f016020809104026020016040519081016040528092919081815260200182805461028e9061091f565b80156102db5780601f106102b0576101008083540402835291602001916102db565b820191906000526020600020905b8154815290600101906020018083116102be57829003601f168201915b5050505050815250509050919050565b600073ffffffffffffffffffffffffffffffffffffffff16600080836000015173ffffffffffffffffffffffffffffffffffffffff1673ffffffffffffffffffffffffffffffffffffffff16815260200190815260200160002060000160009054906101000a900473ffffffffffffffffffffffffffffffffffffffff1673ffffffffffffffffffffffffffffffffffffffff16146103bf576040517f08c379a00000000000000000000000000000000000000000000000000000000081526004016103b6906109d3565b60405180910390fd5b806000803373ffffffffffffffffffffffffffffffffffffffff1673ffffffffffffffffffffffffffffffffffffffff16815260200190815260200160002060008201518160000160006101000a81548173ffffffffffffffffffffffffffffffffffffffff021916908373ffffffffffffffffffffffffffffffffffffffff160217905550602082015181600101908161045a9190610ba9565b5060408201518160020190816104709190610ba9565b5060608201518160030190816104869190610ba9565b5090505050565b6040518060800160405280600073ffffffffffffffffffffffffffffffffffffffff1681526020016060815260200160608152602001606081525090565b6000604051905090565b600080fd5b600080fd5b600073ffffffffffffffffffffffffffffffffffffffff82169050919050565b600061050a826104df565b9050919050565b61051a816104ff565b811461052557600080fd5b50565b60008135905061053781610511565b92915050565b600060208284031215610553576105526104d5565b5b600061056184828501610528565b91505092915050565b610573816104ff565b82525050565b600081519050919050565b600082825260208201905092915050565b60005b838110156105b3578082015181840152602081019050610598565b60008484015250505050565b6000601f19601f8301169050919050565b60006105db82610579565b6105e58185610584565b93506105f5818560208601610595565b6105fe816105bf565b840191505092915050565b6000608083016000830151610621600086018261056a565b506020830151848203602086015261063982826105d0565b9150506040830151848203604086015261065382826105d0565b9150506060830151848203606086015261066d82826105d0565b9150508091505092915050565b600060208201905081810360008301526106948184610609565b905092915050565b600080fd5b7f4e487b7100000000000000000000000000000000000000000000000000000000600052604160045260246000fd5b6106d9826105bf565b810181811067ffffffffffffffff821117156106f8576106f76106a1565b5b80604052505050565b600061070b6104cb565b905061071782826106d0565b919050565b600080fd5b600080fd5b600080fd5b600067ffffffffffffffff821115610746576107456106a1565b5b61074f826105bf565b9050602081019050919050565b82818337600083830152505050565b600061077e6107798461072b565b610701565b90508281526020810184848401111561079a57610799610726565b5b6107a584828561075c565b509392505050565b600082601f8301126107c2576107c1610721565b5b81356107d284826020860161076b565b91505092915050565b6000608082840312156107f1576107f061069c565b5b6107fb6080610701565b9050600061080b84828501610528565b600083015250602082013567ffffffffffffffff81111561082f5761082e61071c565b5b61083b848285016107ad565b602083015250604082013567ffffffffffffffff81111561085f5761085e61071c565b5b61086b848285016107ad565b604083015250606082013567ffffffffffffffff81111561088f5761088e61071c565b5b61089b848285016107ad565b60608301525092915050565b6000602082840312156108bd576108bc6104d5565b5b600082013567ffffffffffffffff8111156108db576108da6104da565b5b6108e7848285016107db565b91505092915050565b7f4e487b7100000000000000000000000000000000000000000000000000000000600052602260045260246000fd5b6000600282049050600182168061093757607f821691505b60208210810361094a576109496108f0565b5b50919050565b600082825260208201905092915050565b7f5573657220616c72656164792065786973747320666f7220746869732061646460008201527f7265737300000000000000000000000000000000000000000000000000000000602082015250565b60006109bd602483610950565b91506109c882610961565b604082019050919050565b600060208201905081810360008301526109ec816109b0565b9050919050565b60008190508160005260206000209050919050565b60006020601f8301049050919050565b600082821b905092915050565b600060088302610a557fffffffffffffffffffffffffffffffffffffffffffffffffffffffffffffffff82610a18565b610a5f8683610a18565b95508019841693508086168417925050509392505050565b6000819050919050565b6000819050919050565b6000610aa6610aa1610a9c84610a77565b610a81565b610a77565b9050919050565b6000819050919050565b610ac083610a8b565b610ad4610acc82610aad565b848454610a25565b825550505050565b600090565b610ae9610adc565b610af4818484610ab7565b505050565b5b81811015610b1857610b0d600082610ae1565b600181019050610afa565b5050565b601f821115610b5d57610b2e816109f3565b610b3784610a08565b81016020851015610b46578190505b610b5a610b5285610a08565b830182610af9565b50505b505050565b600082821c905092915050565b6000610b8060001984600802610b62565b1980831691505092915050565b6000610b998383610b6f565b9150826002028217905092915050565b610bb282610579565b67ffffffffffffffff811115610bcb57610bca6106a1565b5b610bd5825461091f565b610be0828285610b1c565b600060209050601f831160018114610c135760008415610c01578287015190505b610c0b8582610b8d565b865550610c73565b601f198416610c21866109f3565b60005b82811015610c4957848901518255600182019150602085019450602081019050610c24565b86831015610c665784890151610c62601f891682610b6f565b8355505b6001600288020188555050505b50505050505056fea2646970667358221220dee394131cf7ad3988aa65c6ce18922ff65a31af5866fadb84c7370533ee901b64736f6c63430008130033","opcodes":"PUSH1 0x80 PUSH1 0x40 MSTORE CALLVALUE DUP1 ISZERO PUSH2 0x10 JUMPI PUSH1 0x0 DUP1 REVERT JUMPDEST POP PUSH2 0xCB1 DUP1 PUSH2 0x20 PUSH1 0x0 CODECOPY PUSH1 0x0 RETURN INVALID PUSH1 0x80 PUSH1 0x40 MSTORE CALLVALUE DUP1 ISZERO PUSH2 0x10 JUMPI PUSH1 0x0 DUP1 REVERT JUMPDEST POP PUSH1 0x4 CALLDATASIZE LT PUSH2 0x36 JUMPI PUSH1 0x0 CALLDATALOAD PUSH1 0xE0 SHR DUP1 PUSH4 0x6F77926B EQ PUSH2 0x3B JUMPI DUP1 PUSH4 0xC3B56B60 EQ PUSH2 0x6B JUMPI JUMPDEST PUSH1 0x0 DUP1 REVERT JUMPDEST PUSH2 0x55 PUSH1 0x4 DUP1 CALLDATASIZE SUB DUP2 ADD SWAP1 PUSH2 0x50 SWAP2 SWAP1 PUSH2 0x53D JUMP JUMPDEST PUSH2 0x87 JUMP JUMPDEST PUSH1 0x40 MLOAD PUSH2 0x62 SWAP2 SWAP1 PUSH2 0x67A JUMP JUMPDEST PUSH1 0x40 MLOAD DUP1 SWAP2 SUB SWAP1 RETURN JUMPDEST PUSH2 0x85 PUSH1 0x4 DUP1 CALLDATASIZE SUB DUP2 ADD SWAP1 PUSH2 0x80 SWAP2 SWAP1 PUSH2 0x8A7 JUMP JUMPDEST PUSH2 0x2EB JUMP JUMPDEST STOP JUMPDEST PUSH2 0x8F PUSH2 0x48D JUMP JUMPDEST PUSH1 0x0 DUP1 DUP4 PUSH20 0xFFFFFFFFFFFFFFFFFFFFFFFFFFFFFFFFFFFFFFFF AND PUSH20 0xFFFFFFFFFFFFFFFFFFFFFFFFFFFFFFFFFFFFFFFF AND DUP2 MSTORE PUSH1 0x20 ADD SWAP1 DUP2 MSTORE PUSH1 0x20 ADD PUSH1 0x0 KECCAK256 PUSH1 0x40 MLOAD DUP1 PUSH1 0x80 ADD PUSH1 0x40 MSTORE SWAP1 DUP2 PUSH1 0x0 DUP3 ADD PUSH1 0x0 SWAP1 SLOAD SWAP1 PUSH2 0x100 EXP SWAP1 DIV PUSH20 0xFFFFFFFFFFFFFFFFFFFFFFFFFFFFFFFFFFFFFFFF AND PUSH20 0xFFFFFFFFFFFFFFFFFFFFFFFFFFFFFFFFFFFFFFFF AND PUSH20 0xFFFFFFFFFFFFFFFFFFFFFFFFFFFFFFFFFFFFFFFF AND DUP2 MSTORE PUSH1 0x20 ADD PUSH1 0x1 DUP3 ADD DUP1 SLOAD PUSH2 0x13E SWAP1 PUSH2 0x91F JUMP JUMPDEST DUP1 PUSH1 0x1F ADD PUSH1 0x20 DUP1 SWAP2 DIV MUL PUSH1 0x20 ADD PUSH1 0x40 MLOAD SWAP1 DUP2 ADD PUSH1 0x40 MSTORE DUP1 SWAP3 SWAP2 SWAP1 DUP2 DUP2 MSTORE PUSH1 0x20 ADD DUP3 DUP1 SLOAD PUSH2 0x16A SWAP1 PUSH2 0x91F JUMP JUMPDEST DUP1 ISZERO PUSH2 0x1B7 JUMPI DUP1 PUSH1 0x1F LT PUSH2 0x18C JUMPI PUSH2 0x100 DUP1 DUP4 SLOAD DIV MUL DUP4 MSTORE SWAP2 PUSH1 0x20 ADD SWAP2 PUSH2 0x1B7 JUMP JUMPDEST DUP3 ADD SWAP2 SWAP1 PUSH1 0x0 MSTORE PUSH1 0x20 PUSH1 0x0 KECCAK256 SWAP1 JUMPDEST DUP2 SLOAD DUP2 MSTORE SWAP1 PUSH1 0x1 ADD SWAP1 PUSH1 0x20 ADD DUP1 DUP4 GT PUSH2 0x19A JUMPI DUP3 SWAP1 SUB PUSH1 0x1F AND DUP3 ADD SWAP2 JUMPDEST POP POP POP POP POP DUP2 MSTORE PUSH1 0x20 ADD PUSH1 0x2 DUP3 ADD DUP1 SLOAD PUSH2 0x1D0 SWAP1 PUSH2 0x91F JUMP JUMPDEST DUP1 PUSH1 0x1F ADD PUSH1 0x20 DUP1 SWAP2 DIV MUL PUSH1 0x20 ADD PUSH1 0x40 MLOAD SWAP1 DUP2 ADD PUSH1 0x40 MSTORE DUP1 SWAP3 SWAP2 SWAP1 DUP2 DUP2 MSTORE PUSH1 0x20 ADD DUP3 DUP1 SLOAD PUSH2 0x1FC SWAP1 PUSH2 0x91F JUMP JUMPDEST DUP1 ISZERO PUSH2 0x249 JUMPI DUP1 PUSH1 0x1F LT PUSH2 0x21E JUMPI PUSH2 0x100 DUP1 DUP4 SLOAD DIV MUL DUP4 MSTORE SWAP2 PUSH1 0x20 ADD SWAP2 PUSH2 0x249 JUMP JUMPDEST DUP3 ADD SWAP2 SWAP1 PUSH1 0x0 MSTORE PUSH1 0x20 PUSH1 0x0 KECCAK256 SWAP1 JUMPDEST DUP2 SLOAD DUP2 MSTORE SWAP1 PUSH1 0x1 ADD SWAP1 PUSH1 0x20 ADD DUP1 DUP4 GT PUSH2 0x22C JUMPI DUP3 SWAP1 SUB PUSH1 0x1F AND DUP3 ADD SWAP2 JUMPDEST POP POP POP POP POP DUP2 MSTORE PUSH1 0x20 ADD PUSH1 0x3 DUP3 ADD DUP1 SLOAD PUSH2 0x262 SWAP1 PUSH2 0x91F JUMP JUMPDEST DUP1 PUSH1 0x1F ADD PUSH1 0x20 DUP1 SWAP2 DIV MUL PUSH1 0x20 ADD PUSH1 0x40 MLOAD SWAP1 DUP2 ADD PUSH1 0x40 MSTORE DUP1 SWAP3 SWAP2 SWAP1 DUP2 DUP2 MSTORE PUSH1 0x20 ADD DUP3 DUP1 SLOAD PUSH2 0x28E SWAP1 PUSH2 0x91F JUMP JUMPDEST DUP1 ISZERO PUSH2 0x2DB JUMPI DUP1 PUSH1 0x1F LT PUSH2 0x2B0 JUMPI PUSH2 0x100 DUP1 DUP4 SLOAD DIV MUL DUP4 MSTORE SWAP2 PUSH1 0x20 ADD SWAP2 PUSH2 0x2DB JUMP JUMPDEST DUP3 ADD SWAP2 SWAP1 PUSH1 0x0 MSTORE PUSH1 0x20 PUSH1 0x0 KECCAK256 SWAP1 JUMPDEST DUP2 SLOAD DUP2 MSTORE SWAP1 PUSH1 0x1 ADD SWAP1 PUSH1 0x20 ADD DUP1 DUP4 GT PUSH2 0x2BE JUMPI DUP3 SWAP1 SUB PUSH1 0x1F AND DUP3 ADD SWAP2 JUMPDEST POP POP POP POP POP DUP2 MSTORE POP POP SWAP1 POP SWAP2 SWAP1 POP JUMP JUMPDEST PUSH1 0x0 PUSH20 0xFFFFFFFFFFFFFFFFFFFFFFFFFFFFFFFFFFFFFFFF AND PUSH1 0x0 DUP1 DUP4 PUSH1 0x0 ADD MLOAD PUSH20 0xFFFFFFFFFFFFFFFFFFFFFFFFFFFFFFFFFFFFFFFF AND PUSH20 0xFFFFFFFFFFFFFFFFFFFFFFFFFFFFFFFFFFFFFFFF AND DUP2 MSTORE PUSH1 0x20 ADD SWAP1 DUP2 MSTORE PUSH1 0x20 ADD PUSH1 0x0 KECCAK256 PUSH1 0x0 ADD PUSH1 0x0 SWAP1 SLOAD SWAP1 PUSH2 0x100 EXP SWAP1 DIV PUSH20 0xFFFFFFFFFFFFFFFFFFFFFFFFFFFFFFFFFFFFFFFF AND PUSH20 0xFFFFFFFFFFFFFFFFFFFFFFFFFFFFFFFFFFFFFFFF AND EQ PUSH2 0x3BF JUMPI PUSH1 0x40 MLOAD PUSH32 0x8C379A000000000000000000000000000000000000000000000000000000000 DUP2 MSTORE PUSH1 0x4 ADD PUSH2 0x3B6 SWAP1 PUSH2 0x9D3 JUMP JUMPDEST PUSH1 0x40 MLOAD DUP1 SWAP2 SUB SWAP1 REVERT JUMPDEST DUP1 PUSH1 0x0 DUP1 CALLER PUSH20 0xFFFFFFFFFFFFFFFFFFFFFFFFFFFFFFFFFFFFFFFF AND PUSH20 0xFFFFFFFFFFFFFFFFFFFFFFFFFFFFFFFFFFFFFFFF AND DUP2 MSTORE PUSH1 0x20 ADD SWAP1 DUP2 MSTORE PUSH1 0x20 ADD PUSH1 0x0 KECCAK256 PUSH1 0x0 DUP3 ADD MLOAD DUP2 PUSH1 0x0 ADD PUSH1 0x0 PUSH2 0x100 EXP DUP2 SLOAD DUP2 PUSH20 0xFFFFFFFFFFFFFFFFFFFFFFFFFFFFFFFFFFFFFFFF MUL NOT AND SWAP1 DUP4 PUSH20 0xFFFFFFFFFFFFFFFFFFFFFFFFFFFFFFFFFFFFFFFF AND MUL OR SWAP1 SSTORE POP PUSH1 0x20 DUP3 ADD MLOAD DUP2 PUSH1 0x1 ADD SWAP1 DUP2 PUSH2 0x45A SWAP2 SWAP1 PUSH2 0xBA9 JUMP JUMPDEST POP PUSH1 0x40 DUP3 ADD MLOAD DUP2 PUSH1 0x2 ADD SWAP1 DUP2 PUSH2 0x470 SWAP2 SWAP1 PUSH2 0xBA9 JUMP JUMPDEST POP PUSH1 0x60 DUP3 ADD MLOAD DUP2 PUSH1 0x3 ADD SWAP1 DUP2 PUSH2 0x486 SWAP2 SWAP1 PUSH2 0xBA9 JUMP JUMPDEST POP SWAP1 POP POP POP JUMP JUMPDEST PUSH1 0x40 MLOAD DUP1 PUSH1 0x80 ADD PUSH1 0x40 MSTORE DUP1 PUSH1 0x0 PUSH20 0xFFFFFFFFFFFFFFFFFFFFFFFFFFFFFFFFFFFFFFFF AND DUP2 MSTORE PUSH1 0x20 ADD PUSH1 0x60 DUP2 MSTORE PUSH1 0x20 ADD PUSH1 0x60 DUP2 MSTORE PUSH1 0x20 ADD PUSH1 0x60 DUP2 MSTORE POP SWAP1 JUMP JUMPDEST PUSH1 0x0 PUSH1 0x40 MLOAD SWAP1 POP SWAP1 JUMP JUMPDEST PUSH1 0x0 DUP1 REVERT JUMPDEST PUSH1 0x0 DUP1 REVERT JUMPDEST PUSH1 0x0 PUSH20 0xFFFFFFFFFFFFFFFFFFFFFFFFFFFFFFFFFFFFFFFF DUP3 AND SWAP1 POP SWAP2 SWAP1 POP JUMP JUMPDEST PUSH1 0x0 PUSH2 0x50A DUP3 PUSH2 0x4DF JUMP JUMPDEST SWAP1 POP SWAP2 SWAP1 POP JUMP JUMPDEST PUSH2 0x51A DUP2 PUSH2 0x4FF JUMP JUMPDEST DUP2 EQ PUSH2 0x525 JUMPI PUSH1 0x0 DUP1 REVERT JUMPDEST POP JUMP JUMPDEST PUSH1 0x0 DUP2 CALLDATALOAD SWAP1 POP PUSH2 0x537 DUP2 PUSH2 0x511 JUMP JUMPDEST SWAP3 SWAP2 POP POP JUMP JUMPDEST PUSH1 0x0 PUSH1 0x20 DUP3 DUP5 SUB SLT ISZERO PUSH2 0x553 JUMPI PUSH2 0x552 PUSH2 0x4D5 JUMP JUMPDEST JUMPDEST PUSH1 0x0 PUSH2 0x561 DUP5 DUP3 DUP6 ADD PUSH2 0x528 JUMP JUMPDEST SWAP2 POP POP SWAP3 SWAP2 POP POP JUMP JUMPDEST PUSH2 0x573 DUP2 PUSH2 0x4FF JUMP JUMPDEST DUP3 MSTORE POP POP JUMP JUMPDEST PUSH1 0x0 DUP2 MLOAD SWAP1 POP SWAP2 SWAP1 POP JUMP JUMPDEST PUSH1 0x0 DUP3 DUP3 MSTORE PUSH1 0x20 DUP3 ADD SWAP1 POP SWAP3 SWAP2 POP POP JUMP JUMPDEST PUSH1 0x0 JUMPDEST DUP4 DUP2 LT ISZERO PUSH2 0x5B3 JUMPI DUP1 DUP3 ADD MLOAD DUP2 DUP5 ADD MSTORE PUSH1 0x20 DUP2 ADD SWAP1 POP PUSH2 0x598 JUMP JUMPDEST PUSH1 0x0 DUP5 DUP5 ADD MSTORE POP POP POP POP JUMP JUMPDEST PUSH1 0x0 PUSH1 0x1F NOT PUSH1 0x1F DUP4 ADD AND SWAP1 POP SWAP2 SWAP1 POP JUMP JUMPDEST PUSH1 0x0 PUSH2 0x5DB DUP3 PUSH2 0x579 JUMP JUMPDEST PUSH2 0x5E5 DUP2 DUP6 PUSH2 0x584 JUMP JUMPDEST SWAP4 POP PUSH2 0x5F5 DUP2 DUP6 PUSH1 0x20 DUP7 ADD PUSH2 0x595 JUMP JUMPDEST PUSH2 0x5FE DUP2 PUSH2 0x5BF JUMP JUMPDEST DUP5 ADD SWAP2 POP POP SWAP3 SWAP2 POP POP JUMP JUMPDEST PUSH1 0x0 PUSH1 0x80 DUP4 ADD PUSH1 0x0 DUP4 ADD MLOAD PUSH2 0x621 PUSH1 0x0 DUP7 ADD DUP3 PUSH2 0x56A JUMP JUMPDEST POP PUSH1 0x20 DUP4 ADD MLOAD DUP5 DUP3 SUB PUSH1 0x20 DUP7 ADD MSTORE PUSH2 0x639 DUP3 DUP3 PUSH2 0x5D0 JUMP JUMPDEST SWAP2 POP POP PUSH1 0x40 DUP4 ADD MLOAD DUP5 DUP3 SUB PUSH1 0x40 DUP7 ADD MSTORE PUSH2 0x653 DUP3 DUP3 PUSH2 0x5D0 JUMP JUMPDEST SWAP2 POP POP PUSH1 0x60 DUP4 ADD MLOAD DUP5 DUP3 SUB PUSH1 0x60 DUP7 ADD MSTORE PUSH2 0x66D DUP3 DUP3 PUSH2 0x5D0 JUMP JUMPDEST SWAP2 POP POP DUP1 SWAP2 POP POP SWAP3 SWAP2 POP POP JUMP JUMPDEST PUSH1 0x0 PUSH1 0x20 DUP3 ADD SWAP1 POP DUP2 DUP2 SUB PUSH1 0x0 DUP4 ADD MSTORE PUSH2 0x694 DUP2 DUP5 PUSH2 0x609 JUMP JUMPDEST SWAP1 POP SWAP3 SWAP2 POP POP JUMP JUMPDEST PUSH1 0x0 DUP1 REVERT JUMPDEST PUSH32 0x4E487B7100000000000000000000000000000000000000000000000000000000 PUSH1 0x0 MSTORE PUSH1 0x41 PUSH1 0x4 MSTORE PUSH1 0x24 PUSH1 0x0 REVERT JUMPDEST PUSH2 0x6D9 DUP3 PUSH2 0x5BF JUMP JUMPDEST DUP2 ADD DUP2 DUP2 LT PUSH8 0xFFFFFFFFFFFFFFFF DUP3 GT OR ISZERO PUSH2 0x6F8 JUMPI PUSH2 0x6F7 PUSH2 0x6A1 JUMP JUMPDEST JUMPDEST DUP1 PUSH1 0x40 MSTORE POP POP POP JUMP JUMPDEST PUSH1 0x0 PUSH2 0x70B PUSH2 0x4CB JUMP JUMPDEST SWAP1 POP PUSH2 0x717 DUP3 DUP3 PUSH2 0x6D0 JUMP JUMPDEST SWAP2 SWAP1 POP JUMP JUMPDEST PUSH1 0x0 DUP1 REVERT JUMPDEST PUSH1 0x0 DUP1 REVERT JUMPDEST PUSH1 0x0 DUP1 REVERT JUMPDEST PUSH1 0x0 PUSH8 0xFFFFFFFFFFFFFFFF DUP3 GT ISZERO PUSH2 0x746 JUMPI PUSH2 0x745 PUSH2 0x6A1 JUMP JUMPDEST JUMPDEST PUSH2 0x74F DUP3 PUSH2 0x5BF JUMP JUMPDEST SWAP1 POP PUSH1 0x20 DUP2 ADD SWAP1 POP SWAP2 SWAP1 POP JUMP JUMPDEST DUP3 DUP2 DUP4 CALLDATACOPY PUSH1 0x0 DUP4 DUP4 ADD MSTORE POP POP POP JUMP JUMPDEST PUSH1 0x0 PUSH2 0x77E PUSH2 0x779 DUP5 PUSH2 0x72B JUMP JUMPDEST PUSH2 0x701 JUMP JUMPDEST SWAP1 POP DUP3 DUP2 MSTORE PUSH1 0x20 DUP2 ADD DUP5 DUP5 DUP5 ADD GT ISZERO PUSH2 0x79A JUMPI PUSH2 0x799 PUSH2 0x726 JUMP JUMPDEST JUMPDEST PUSH2 0x7A5 DUP5 DUP3 DUP6 PUSH2 0x75C JUMP JUMPDEST POP SWAP4 SWAP3 POP POP POP JUMP JUMPDEST PUSH1 0x0 DUP3 PUSH1 0x1F DUP4 ADD SLT PUSH2 0x7C2 JUMPI PUSH2 0x7C1 PUSH2 0x721 JUMP JUMPDEST JUMPDEST DUP2 CALLDATALOAD PUSH2 0x7D2 DUP5 DUP3 PUSH1 0x20 DUP7 ADD PUSH2 0x76B JUMP JUMPDEST SWAP2 POP POP SWAP3 SWAP2 POP POP JUMP JUMPDEST PUSH1 0x0 PUSH1 0x80 DUP3 DUP5 SUB SLT ISZERO PUSH2 0x7F1 JUMPI PUSH2 0x7F0 PUSH2 0x69C JUMP JUMPDEST JUMPDEST PUSH2 0x7FB PUSH1 0x80 PUSH2 0x701 JUMP JUMPDEST SWAP1 POP PUSH1 0x0 PUSH2 0x80B DUP5 DUP3 DUP6 ADD PUSH2 0x528 JUMP JUMPDEST PUSH1 0x0 DUP4 ADD MSTORE POP PUSH1 0x20 DUP3 ADD CALLDATALOAD PUSH8 0xFFFFFFFFFFFFFFFF DUP2 GT ISZERO PUSH2 0x82F JUMPI PUSH2 0x82E PUSH2 0x71C JUMP JUMPDEST JUMPDEST PUSH2 0x83B DUP5 DUP3 DUP6 ADD PUSH2 0x7AD JUMP JUMPDEST PUSH1 0x20 DUP4 ADD MSTORE POP PUSH1 0x40 DUP3 ADD CALLDATALOAD PUSH8 0xFFFFFFFFFFFFFFFF DUP2 GT ISZERO PUSH2 0x85F JUMPI PUSH2 0x85E PUSH2 0x71C JUMP JUMPDEST JUMPDEST PUSH2 0x86B DUP5 DUP3 DUP6 ADD PUSH2 0x7AD JUMP JUMPDEST PUSH1 0x40 DUP4 ADD MSTORE POP PUSH1 0x60 DUP3 ADD CALLDATALOAD PUSH8 0xFFFFFFFFFFFFFFFF DUP2 GT ISZERO PUSH2 0x88F JUMPI PUSH2 0x88E PUSH2 0x71C JUMP JUMPDEST JUMPDEST PUSH2 0x89B DUP5 DUP3 DUP6 ADD PUSH2 0x7AD JUMP JUMPDEST PUSH1 0x60 DUP4 ADD MSTORE POP SWAP3 SWAP2 POP POP JUMP JUMPDEST PUSH1 0x0 PUSH1 0x20 DUP3 DUP5 SUB SLT ISZERO PUSH2 0x8BD JUMPI PUSH2 0x8BC PUSH2 0x4D5 JUMP JUMPDEST JUMPDEST PUSH1 0x0 DUP3 ADD CALLDATALOAD PUSH8 0xFFFFFFFFFFFFFFFF DUP2 GT ISZERO PUSH2 0x8DB JUMPI PUSH2 0x8DA PUSH2 0x4DA JUMP JUMPDEST JUMPDEST PUSH2 0x8E7 DUP5 DUP3 DUP6 ADD PUSH2 0x7DB JUMP JUMPDEST SWAP2 POP POP SWAP3 SWAP2 POP POP JUMP JUMPDEST PUSH32 0x4E487B7100000000000000000000000000000000000000000000000000000000 PUSH1 0x0 MSTORE PUSH1 0x22 PUSH1 0x4 MSTORE PUSH1 0x24 PUSH1 0x0 REVERT JUMPDEST PUSH1 0x0 PUSH1 0x2 DUP3 DIV SWAP1 POP PUSH1 0x1 DUP3 AND DUP1 PUSH2 0x937 JUMPI PUSH1 0x7F DUP3 AND SWAP2 POP JUMPDEST PUSH1 0x20 DUP3 LT DUP2 SUB PUSH2 0x94A JUMPI PUSH2 0x949 PUSH2 0x8F0 JUMP JUMPDEST JUMPDEST POP SWAP2 SWAP1 POP JUMP JUMPDEST PUSH1 0x0 DUP3 DUP3 MSTORE PUSH1 0x20 DUP3 ADD SWAP1 POP SWAP3 SWAP2 POP POP JUMP JUMPDEST PUSH32 0x5573657220616C72656164792065786973747320666F72207468697320616464 PUSH1 0x0 DUP3 ADD MSTORE PUSH32 0x7265737300000000000000000000000000000000000000000000000000000000 PUSH1 0x20 DUP3 ADD MSTORE POP JUMP JUMPDEST PUSH1 0x0 PUSH2 0x9BD PUSH1 0x24 DUP4 PUSH2 0x950 JUMP JUMPDEST SWAP2 POP PUSH2 0x9C8 DUP3 PUSH2 0x961 JUMP JUMPDEST PUSH1 0x40 DUP3 ADD SWAP1 POP SWAP2 SWAP1 POP JUMP JUMPDEST PUSH1 0x0 PUSH1 0x20 DUP3 ADD SWAP1 POP DUP2 DUP2 SUB PUSH1 0x0 DUP4 ADD MSTORE PUSH2 0x9EC DUP2 PUSH2 0x9B0 JUMP JUMPDEST SWAP1 POP SWAP2 SWAP1 POP JUMP JUMPDEST PUSH1 0x0 DUP2 SWAP1 POP DUP2 PUSH1 0x0 MSTORE PUSH1 0x20 PUSH1 0x0 KECCAK256 SWAP1 POP SWAP2 SWAP1 POP JUMP JUMPDEST PUSH1 0x0 PUSH1 0x20 PUSH1 0x1F DUP4 ADD DIV SWAP1 POP SWAP2 SWAP1 POP JUMP JUMPDEST PUSH1 0x0 DUP3 DUP3 SHL SWAP1 POP SWAP3 SWAP2 POP POP JUMP JUMPDEST PUSH1 0x0 PUSH1 0x8 DUP4 MUL PUSH2 0xA55 PUSH32 0xFFFFFFFFFFFFFFFFFFFFFFFFFFFFFFFFFFFFFFFFFFFFFFFFFFFFFFFFFFFFFFFF DUP3 PUSH2 0xA18 JUMP JUMPDEST PUSH2 0xA5F DUP7 DUP4 PUSH2 0xA18 JUMP JUMPDEST SWAP6 POP DUP1 NOT DUP5 AND SWAP4 POP DUP1 DUP7 AND DUP5 OR SWAP3 POP POP POP SWAP4 SWAP3 POP POP POP JUMP JUMPDEST PUSH1 0x0 DUP2 SWAP1 POP SWAP2 SWAP1 POP JUMP JUMPDEST PUSH1 0x0 DUP2 SWAP1 POP SWAP2 SWAP1 POP JUMP JUMPDEST PUSH1 0x0 PUSH2 0xAA6 PUSH2 0xAA1 PUSH2 0xA9C DUP5 PUSH2 0xA77 JUMP JUMPDEST PUSH2 0xA81 JUMP JUMPDEST PUSH2 0xA77 JUMP JUMPDEST SWAP1 POP SWAP2 SWAP1 POP JUMP JUMPDEST PUSH1 0x0 DUP2 SWAP1 POP SWAP2 SWAP1 POP JUMP JUMPDEST PUSH2 0xAC0 DUP4 PUSH2 0xA8B JUMP JUMPDEST PUSH2 0xAD4 PUSH2 0xACC DUP3 PUSH2 0xAAD JUMP JUMPDEST DUP5 DUP5 SLOAD PUSH2 0xA25 JUMP JUMPDEST DUP3 SSTORE POP POP POP POP JUMP JUMPDEST PUSH1 0x0 SWAP1 JUMP JUMPDEST PUSH2 0xAE9 PUSH2 0xADC JUMP JUMPDEST PUSH2 0xAF4 DUP2 DUP5 DUP5 PUSH2 0xAB7 JUMP JUMPDEST POP POP POP JUMP JUMPDEST JUMPDEST DUP2 DUP2 LT ISZERO PUSH2 0xB18 JUMPI PUSH2 0xB0D PUSH1 0x0 DUP3 PUSH2 0xAE1 JUMP JUMPDEST PUSH1 0x1 DUP2 ADD SWAP1 POP PUSH2 0xAFA JUMP JUMPDEST POP POP JUMP JUMPDEST PUSH1 0x1F DUP3 GT ISZERO PUSH2 0xB5D JUMPI PUSH2 0xB2E DUP2 PUSH2 0x9F3 JUMP JUMPDEST PUSH2 0xB37 DUP5 PUSH2 0xA08 JUMP JUMPDEST DUP2 ADD PUSH1 0x20 DUP6 LT ISZERO PUSH2 0xB46 JUMPI DUP2 SWAP1 POP JUMPDEST PUSH2 0xB5A PUSH2 0xB52 DUP6 PUSH2 0xA08 JUMP JUMPDEST DUP4 ADD DUP3 PUSH2 0xAF9 JUMP JUMPDEST POP POP JUMPDEST POP POP POP JUMP JUMPDEST PUSH1 0x0 DUP3 DUP3 SHR SWAP1 POP SWAP3 SWAP2 POP POP JUMP JUMPDEST PUSH1 0x0 PUSH2 0xB80 PUSH1 0x0 NOT DUP5 PUSH1 0x8 MUL PUSH2 0xB62 JUMP JUMPDEST NOT DUP1 DUP4 AND SWAP2 POP POP SWAP3 SWAP2 POP POP JUMP JUMPDEST PUSH1 0x0 PUSH2 0xB99 DUP4 DUP4 PUSH2 0xB6F JUMP JUMPDEST SWAP2 POP DUP3 PUSH1 0x2 MUL DUP3 OR SWAP1 POP SWAP3 SWAP2 POP POP JUMP JUMPDEST PUSH2 0xBB2 DUP3 PUSH2 0x579 JUMP JUMPDEST PUSH8 0xFFFFFFFFFFFFFFFF DUP2 GT ISZERO PUSH2 0xBCB JUMPI PUSH2 0xBCA PUSH2 0x6A1 JUMP JUMPDEST JUMPDEST PUSH2 0xBD5 DUP3 SLOAD PUSH2 0x91F JUMP JUMPDEST PUSH2 0xBE0 DUP3 DUP3 DUP6 PUSH2 0xB1C JUMP JUMPDEST PUSH1 0x0 PUSH1 0x20 SWAP1 POP PUSH1 0x1F DUP4 GT PUSH1 0x1 DUP2 EQ PUSH2 0xC13 JUMPI PUSH1 0x0 DUP5 ISZERO PUSH2 0xC01 JUMPI DUP3 DUP8 ADD MLOAD SWAP1 POP JUMPDEST PUSH2 0xC0B DUP6 DUP3 PUSH2 0xB8D JUMP JUMPDEST DUP7 SSTORE POP PUSH2 0xC73 JUMP JUMPDEST PUSH1 0x1F NOT DUP5 AND PUSH2 0xC21 DUP7 PUSH2 0x9F3 JUMP JUMPDEST PUSH1 0x0 JUMPDEST DUP3 DUP2 LT ISZERO PUSH2 0xC49 JUMPI DUP5 DUP10 ADD MLOAD DUP3 SSTORE PUSH1 0x1 DUP3 ADD SWAP2 POP PUSH1 0x20 DUP6 ADD SWAP5 POP PUSH1 0x20 DUP2 ADD SWAP1 POP PUSH2 0xC24 JUMP JUMPDEST DUP7 DUP4 LT ISZERO PUSH2 0xC66 JUMPI DUP5 DUP10 ADD MLOAD PUSH2 0xC62 PUSH1 0x1F DUP10 AND DUP3 PUSH2 0xB6F JUMP JUMPDEST DUP4 SSTORE POP JUMPDEST PUSH1 0x1 PUSH1 0x2 DUP9 MUL ADD DUP9 SSTORE POP POP POP JUMPDEST POP POP POP POP POP POP JUMP INVALID LOG2 PUSH5 0x6970667358 0x22 SLT KECCAK256 0xDE 0xE3 SWAP5 SGT SHR 0xF7 0xAD CODECOPY DUP9 0xAA PUSH6 0xC6CE18922FF6 GAS BALANCE 0xAF PC PUSH7 0xFADB84C7370533 0xEE SWAP1 SHL PUSH5 0x736F6C6343 STOP ADDMOD SGT STOP CALLER "},"methodIdentifiers":{"getUser(address)":"6f77926b","login((address,string,string,string))":"c3b56b60"}}}}}