{"contracts/StoreFile.sol":{"StoreFile":{"abi":[{"anonymous":false,"inputs":[{"indexed":false,"internalType":"bool","name":"success","type":"bool"},{"indexed":false,"internalType":"string","name":"message","type":"string"}],"name":"UploadFileResult","type":"event"},{"inputs":[{"components":[{"internalType":"string","name":"fileName","type":"string"},{"internalType":"address","name":"owner","type":"address"},{"internalType":"string","name":"ipfsCID","type":"string"},{"internalType":"string","name":"fileType","type":"string"},{"internalType":"string","name":"iv","type":"string"}],"internalType":"struct File","name":"file","type":"tuple"},{"components":[{"internalType":"address","name":"account","type":"address"},{"internalType":"string","name":"name","type":"string"},{"internalType":"string","name":"publicKey","type":"string"},{"internalType":"string","name":"privateKey","type":"string"}],"internalType":"struct User","name":"user","type":"tuple"}],"name":"fileExists","outputs":[{"internalType":"string","name":"","type":"string"}],"stateMutability":"view","type":"function"},{"inputs":[{"internalType":"address","name":"account","type":"address"}],"name":"get","outputs":[{"components":[{"internalType":"string","name":"fileName","type":"string"},{"internalType":"address","name":"owner","type":"address"},{"internalType":"string","name":"ipfsCID","type":"string"},{"internalType":"string","name":"fileType","type":"string"},{"internalType":"string","name":"iv","type":"string"}],"internalType":"struct File[]","name":"","type":"tuple[]"}],"stateMutability":"view","type":"function"},{"inputs":[{"components":[{"internalType":"string","name":"fileName","type":"string"},{"internalType":"address","name":"owner","type":"address"},{"internalType":"string","name":"ipfsCID","type":"string"},{"internalType":"string","name":"fileType","type":"string"},{"internalType":"string","name":"iv","type":"string"}],"internalType":"struct File","name":"file","type":"tuple"},{"components":[{"internalType":"address","name":"account","type":"address"},{"internalType":"string","name":"name","type":"string"},{"internalType":"string","name":"publicKey","type":"string"},{"internalType":"string","name":"privateKey","type":"string"}],"internalType":"struct User","name":"user","type":"tuple"}],"name":"uploadFile","outputs":[],"stateMutability":"nonpayable","type":"function"}],"evm":{"bytecode":{"linkReferences":{},"object":"608060405234801561001057600080fd5b506112de806100206000396000f3fe608060405234801561001057600080fd5b50600436106100415760003560e01c8063288e70e414610046578063c041a42514610062578063c2bc2efc14610092575b600080fd5b610060600480360381019061005b9190610af4565b6100c2565b005b61007c60048036038101906100779190610af4565b610224565b6040516100899190610beb565b60405180910390f35b6100ac60048036038101906100a79190610c0d565b610325565b6040516100b99190610de0565b60405180910390f35b60006100ce8383610224565b905060008151036101e4576000839080600181540180825580915050600190039060005260206000209060050201600090919091909150600082015181600001908161011a9190611018565b5060208201518160010160006101000a81548173ffffffffffffffffffffffffffffffffffffffff021916908373ffffffffffffffffffffffffffffffffffffffff16021790555060408201518160020190816101779190611018565b50606082015181600301908161018d9190611018565b5060808201518160040190816101a39190611018565b5050507f6c863839cfd32d0f6385600bd22dfa35736ff518a92acb2bc960cacad49fb9bf60016040516101d69190611151565b60405180910390a150610220565b7f6c863839cfd32d0f6385600bd22dfa35736ff518a92acb2bc960cacad49fb9bf60008260405161021692919061117f565b60405180910390a1505b5050565b606060006102358360000151610325565b905060005b815181101561030a57846000015160405160200161025891906111eb565b6040516020818303038152906040528051906020012082828151811061028157610280611202565b5b60200260200101516000015160405160200161029d91906111eb565b60405160208183030381529060405280519060200120036102f7576040518060400160405280601f81526020017f46696c652068617320746f2068617665206120756e69717565206e616d652e008152509250505061031f565b808061030290611260565b91505061023a565b50604051806020016040528060008152509150505b92915050565b60606000808054905067ffffffffffffffff81111561034757610346610794565b5b60405190808252806020026020018201604052801561038057816020015b61036d610725565b8152602001906001900390816103655790505b5090506000805b600080549050811015610717578473ffffffffffffffffffffffffffffffffffffffff16600082815481106103bf576103be611202565b5b906000526020600020906005020160010160009054906101000a900473ffffffffffffffffffffffffffffffffffffffff1673ffffffffffffffffffffffffffffffffffffffff160361070457600081815481106104205761041f611202565b5b90600052602060002090600502016040518060a001604052908160008201805461044990610e31565b80601f016020809104026020016040519081016040528092919081815260200182805461047590610e31565b80156104c25780601f10610497576101008083540402835291602001916104c2565b820191906000526020600020905b8154815290600101906020018083116104a557829003601f168201915b505050505081526020016001820160009054906101000a900473ffffffffffffffffffffffffffffffffffffffff1673ffffffffffffffffffffffffffffffffffffffff1673ffffffffffffffffffffffffffffffffffffffff16815260200160028201805461053190610e31565b80601f016020809104026020016040519081016040528092919081815260200182805461055d90610e31565b80156105aa5780601f1061057f576101008083540402835291602001916105aa565b820191906000526020600020905b81548152906001019060200180831161058d57829003601f168201915b505050505081526020016003820180546105c390610e31565b80601f01602080910402602001604051908101604052809291908181526020018280546105ef90610e31565b801561063c5780601f106106115761010080835404028352916020019161063c565b820191906000526020600020905b81548152906001019060200180831161061f57829003601f168201915b5050505050815260200160048201805461065590610e31565b80601f016020809104026020016040519081016040528092919081815260200182805461068190610e31565b80156106ce5780601f106106a3576101008083540402835291602001916106ce565b820191906000526020600020905b8154815290600101906020018083116106b157829003601f168201915b5050505050815250508383815181106106ea576106e9611202565b5b6020026020010181905250818061070090611260565b9250505b808061070f90611260565b915050610387565b508082528192505050919050565b6040518060a0016040528060608152602001600073ffffffffffffffffffffffffffffffffffffffff1681526020016060815260200160608152602001606081525090565b6000604051905090565b600080fd5b600080fd5b600080fd5b6000601f19601f8301169050919050565b7f4e487b7100000000000000000000000000000000000000000000000000000000600052604160045260246000fd5b6107cc82610783565b810181811067ffffffffffffffff821117156107eb576107ea610794565b5b80604052505050565b60006107fe61076a565b905061080a82826107c3565b919050565b600080fd5b600080fd5b600080fd5b600067ffffffffffffffff82111561083957610838610794565b5b61084282610783565b9050602081019050919050565b82818337600083830152505050565b600061087161086c8461081e565b6107f4565b90508281526020810184848401111561088d5761088c610819565b5b61089884828561084f565b509392505050565b600082601f8301126108b5576108b4610814565b5b81356108c584826020860161085e565b91505092915050565b600073ffffffffffffffffffffffffffffffffffffffff82169050919050565b60006108f9826108ce565b9050919050565b610909816108ee565b811461091457600080fd5b50565b60008135905061092681610900565b92915050565b600060a082840312156109425761094161077e565b5b61094c60a06107f4565b9050600082013567ffffffffffffffff81111561096c5761096b61080f565b5b610978848285016108a0565b600083015250602061098c84828501610917565b602083015250604082013567ffffffffffffffff8111156109b0576109af61080f565b5b6109bc848285016108a0565b604083015250606082013567ffffffffffffffff8111156109e0576109df61080f565b5b6109ec848285016108a0565b606083015250608082013567ffffffffffffffff811115610a1057610a0f61080f565b5b610a1c848285016108a0565b60808301525092915050565b600060808284031215610a3e57610a3d61077e565b5b610a4860806107f4565b90506000610a5884828501610917565b600083015250602082013567ffffffffffffffff811115610a7c57610a7b61080f565b5b610a88848285016108a0565b602083015250604082013567ffffffffffffffff811115610aac57610aab61080f565b5b610ab8848285016108a0565b604083015250606082013567ffffffffffffffff811115610adc57610adb61080f565b5b610ae8848285016108a0565b60608301525092915050565b60008060408385031215610b0b57610b0a610774565b5b600083013567ffffffffffffffff811115610b2957610b28610779565b5b610b358582860161092c565b925050602083013567ffffffffffffffff811115610b5657610b55610779565b5b610b6285828601610a28565b9150509250929050565b600081519050919050565b600082825260208201905092915050565b60005b83811015610ba6578082015181840152602081019050610b8b565b60008484015250505050565b6000610bbd82610b6c565b610bc78185610b77565b9350610bd7818560208601610b88565b610be081610783565b840191505092915050565b60006020820190508181036000830152610c058184610bb2565b905092915050565b600060208284031215610c2357610c22610774565b5b6000610c3184828501610917565b91505092915050565b600081519050919050565b600082825260208201905092915050565b6000819050602082019050919050565b600082825260208201905092915050565b6000610c8282610b6c565b610c8c8185610c66565b9350610c9c818560208601610b88565b610ca581610783565b840191505092915050565b610cb9816108ee565b82525050565b600060a0830160008301518482036000860152610cdc8282610c77565b9150506020830151610cf16020860182610cb0565b5060408301518482036040860152610d098282610c77565b91505060608301518482036060860152610d238282610c77565b91505060808301518482036080860152610d3d8282610c77565b9150508091505092915050565b6000610d568383610cbf565b905092915050565b6000602082019050919050565b6000610d7682610c3a565b610d808185610c45565b935083602082028501610d9285610c56565b8060005b85811015610dce5784840389528151610daf8582610d4a565b9450610dba83610d5e565b925060208a01995050600181019050610d96565b50829750879550505050505092915050565b60006020820190508181036000830152610dfa8184610d6b565b905092915050565b7f4e487b7100000000000000000000000000000000000000000000000000000000600052602260045260246000fd5b60006002820490506001821680610e4957607f821691505b602082108103610e5c57610e5b610e02565b5b50919050565b60008190508160005260206000209050919050565b60006020601f8301049050919050565b600082821b905092915050565b600060088302610ec47fffffffffffffffffffffffffffffffffffffffffffffffffffffffffffffffff82610e87565b610ece8683610e87565b95508019841693508086168417925050509392505050565b6000819050919050565b6000819050919050565b6000610f15610f10610f0b84610ee6565b610ef0565b610ee6565b9050919050565b6000819050919050565b610f2f83610efa565b610f43610f3b82610f1c565b848454610e94565b825550505050565b600090565b610f58610f4b565b610f63818484610f26565b505050565b5b81811015610f8757610f7c600082610f50565b600181019050610f69565b5050565b601f821115610fcc57610f9d81610e62565b610fa684610e77565b81016020851015610fb5578190505b610fc9610fc185610e77565b830182610f68565b50505b505050565b600082821c905092915050565b6000610fef60001984600802610fd1565b1980831691505092915050565b60006110088383610fde565b9150826002028217905092915050565b61102182610b6c565b67ffffffffffffffff81111561103a57611039610794565b5b6110448254610e31565b61104f828285610f8b565b600060209050601f8311600181146110825760008415611070578287015190505b61107a8582610ffc565b8655506110e2565b601f19841661109086610e62565b60005b828110156110b857848901518255600182019150602085019450602081019050611093565b868310156110d557848901516110d1601f891682610fde565b8355505b6001600288020188555050505b505050505050565b60008115159050919050565b6110ff816110ea565b82525050565b7f46696c652075706c6f61646564207375636365737366756c6c792e0000000000600082015250565b600061113b601b83610b77565b915061114682611105565b602082019050919050565b600060408201905061116660008301846110f6565b81810360208301526111778161112e565b905092915050565b600060408201905061119460008301856110f6565b81810360208301526111a68184610bb2565b90509392505050565b600081905092915050565b60006111c582610b6c565b6111cf81856111af565b93506111df818560208601610b88565b80840191505092915050565b60006111f782846111ba565b915081905092915050565b7f4e487b7100000000000000000000000000000000000000000000000000000000600052603260045260246000fd5b7f4e487b7100000000000000000000000000000000000000000000000000000000600052601160045260246000fd5b600061126b82610ee6565b91507fffffffffffffffffffffffffffffffffffffffffffffffffffffffffffffffff820361129d5761129c611231565b5b60018201905091905056fea2646970667358221220d988ed42fb9fc581a65f0256399b389eebfb7183de819e44a5e53b1ecad805da64736f6c63430008130033","opcodes":"PUSH1 0x80 PUSH1 0x40 MSTORE CALLVALUE DUP1 ISZERO PUSH2 0x10 JUMPI PUSH1 0x0 DUP1 REVERT JUMPDEST POP PUSH2 0x12DE DUP1 PUSH2 0x20 PUSH1 0x0 CODECOPY PUSH1 0x0 RETURN INVALID PUSH1 0x80 PUSH1 0x40 MSTORE CALLVALUE DUP1 ISZERO PUSH2 0x10 JUMPI PUSH1 0x0 DUP1 REVERT JUMPDEST POP PUSH1 0x4 CALLDATASIZE LT PUSH2 0x41 JUMPI PUSH1 0x0 CALLDATALOAD PUSH1 0xE0 SHR DUP1 PUSH4 0x288E70E4 EQ PUSH2 0x46 JUMPI DUP1 PUSH4 0xC041A425 EQ PUSH2 0x62 JUMPI DUP1 PUSH4 0xC2BC2EFC EQ PUSH2 0x92 JUMPI JUMPDEST PUSH1 0x0 DUP1 REVERT JUMPDEST PUSH2 0x60 PUSH1 0x4 DUP1 CALLDATASIZE SUB DUP2 ADD SWAP1 PUSH2 0x5B SWAP2 SWAP1 PUSH2 0xAF4 JUMP JUMPDEST PUSH2 0xC2 JUMP JUMPDEST STOP JUMPDEST PUSH2 0x7C PUSH1 0x4 DUP1 CALLDATASIZE SUB DUP2 ADD SWAP1 PUSH2 0x77 SWAP2 SWAP1 PUSH2 0xAF4 JUMP JUMPDEST PUSH2 0x224 JUMP JUMPDEST PUSH1 0x40 MLOAD PUSH2 0x89 SWAP2 SWAP1 PUSH2 0xBEB JUMP JUMPDEST PUSH1 0x40 MLOAD DUP1 SWAP2 SUB SWAP1 RETURN JUMPDEST PUSH2 0xAC PUSH1 0x4 DUP1 CALLDATASIZE SUB DUP2 ADD SWAP1 PUSH2 0xA7 SWAP2 SWAP1 PUSH2 0xC0D JUMP JUMPDEST PUSH2 0x325 JUMP JUMPDEST PUSH1 0x40 MLOAD PUSH2 0xB9 SWAP2 SWAP1 PUSH2 0xDE0 JUMP JUMPDEST PUSH1 0x40 MLOAD DUP1 SWAP2 SUB SWAP1 RETURN JUMPDEST PUSH1 0x0 PUSH2 0xCE DUP4 DUP4 PUSH2 0x224 JUMP JUMPDEST SWAP1 POP PUSH1 0x0 DUP2 MLOAD SUB PUSH2 0x1E4 JUMPI PUSH1 0x0 DUP4 SWAP1 DUP1 PUSH1 0x1 DUP2 SLOAD ADD DUP1 DUP3 SSTORE DUP1 SWAP2 POP POP PUSH1 0x1 SWAP1 SUB SWAP1 PUSH1 0x0 MSTORE PUSH1 0x20 PUSH1 0x0 KECCAK256 SWAP1 PUSH1 0x5 MUL ADD PUSH1 0x0 SWAP1 SWAP2 SWAP1 SWAP2 SWAP1 SWAP2 POP PUSH1 0x0 DUP3 ADD MLOAD DUP2 PUSH1 0x0 ADD SWAP1 DUP2 PUSH2 0x11A SWAP2 SWAP1 PUSH2 0x1018 JUMP JUMPDEST POP PUSH1 0x20 DUP3 ADD MLOAD DUP2 PUSH1 0x1 ADD PUSH1 0x0 PUSH2 0x100 EXP DUP2 SLOAD DUP2 PUSH20 0xFFFFFFFFFFFFFFFFFFFFFFFFFFFFFFFFFFFFFFFF MUL NOT AND SWAP1 DUP4 PUSH20 0xFFFFFFFFFFFFFFFFFFFFFFFFFFFFFFFFFFFFFFFF AND MUL OR SWAP1 SSTORE POP PUSH1 0x40 DUP3 ADD MLOAD DUP2 PUSH1 0x2 ADD SWAP1 DUP2 PUSH2 0x177 SWAP2 SWAP1 PUSH2 0x1018 JUMP JUMPDEST POP PUSH1 0x60 DUP3 ADD MLOAD DUP2 PUSH1 0x3 ADD SWAP1 DUP2 PUSH2 0x18D SWAP2 SWAP1 PUSH2 0x1018 JUMP JUMPDEST POP PUSH1 0x80 DUP3 ADD MLOAD DUP2 PUSH1 0x4 ADD SWAP1 DUP2 PUSH2 0x1A3 SWAP2 SWAP1 PUSH2 0x1018 JUMP JUMPDEST POP POP POP PUSH32 0x6C863839CFD32D0F6385600BD22DFA35736FF518A92ACB2BC960CACAD49FB9BF PUSH1 0x1 PUSH1 0x40 MLOAD PUSH2 0x1D6 SWAP2 SWAP1 PUSH2 0x1151 JUMP JUMPDEST PUSH1 0x40 MLOAD DUP1 SWAP2 SUB SWAP1 LOG1 POP PUSH2 0x220 JUMP JUMPDEST PUSH32 0x6C863839CFD32D0F6385600BD22DFA35736FF518A92ACB2BC960CACAD49FB9BF PUSH1 0x0 DUP3 PUSH1 0x40 MLOAD PUSH2 0x216 SWAP3 SWAP2 SWAP1 PUSH2 0x117F JUMP JUMPDEST PUSH1 0x40 MLOAD DUP1 SWAP2 SUB SWAP1 LOG1 POP JUMPDEST POP POP JUMP JUMPDEST PUSH1 0x60 PUSH1 0x0 PUSH2 0x235 DUP4 PUSH1 0x0 ADD MLOAD PUSH2 0x325 JUMP JUMPDEST SWAP1 POP PUSH1 0x0 JUMPDEST DUP2 MLOAD DUP2 LT ISZERO PUSH2 0x30A JUMPI DUP5 PUSH1 0x0 ADD MLOAD PUSH1 0x40 MLOAD PUSH1 0x20 ADD PUSH2 0x258 SWAP2 SWAP1 PUSH2 0x11EB JUMP JUMPDEST PUSH1 0x40 MLOAD PUSH1 0x20 DUP2 DUP4 SUB SUB DUP2 MSTORE SWAP1 PUSH1 0x40 MSTORE DUP1 MLOAD SWAP1 PUSH1 0x20 ADD KECCAK256 DUP3 DUP3 DUP2 MLOAD DUP2 LT PUSH2 0x281 JUMPI PUSH2 0x280 PUSH2 0x1202 JUMP JUMPDEST JUMPDEST PUSH1 0x20 MUL PUSH1 0x20 ADD ADD MLOAD PUSH1 0x0 ADD MLOAD PUSH1 0x40 MLOAD PUSH1 0x20 ADD PUSH2 0x29D SWAP2 SWAP1 PUSH2 0x11EB JUMP JUMPDEST PUSH1 0x40 MLOAD PUSH1 0x20 DUP2 DUP4 SUB SUB DUP2 MSTORE SWAP1 PUSH1 0x40 MSTORE DUP1 MLOAD SWAP1 PUSH1 0x20 ADD KECCAK256 SUB PUSH2 0x2F7 JUMPI PUSH1 0x40 MLOAD DUP1 PUSH1 0x40 ADD PUSH1 0x40 MSTORE DUP1 PUSH1 0x1F DUP2 MSTORE PUSH1 0x20 ADD PUSH32 0x46696C652068617320746F2068617665206120756E69717565206E616D652E00 DUP2 MSTORE POP SWAP3 POP POP POP PUSH2 0x31F JUMP JUMPDEST DUP1 DUP1 PUSH2 0x302 SWAP1 PUSH2 0x1260 JUMP JUMPDEST SWAP2 POP POP PUSH2 0x23A JUMP JUMPDEST POP PUSH1 0x40 MLOAD DUP1 PUSH1 0x20 ADD PUSH1 0x40 MSTORE DUP1 PUSH1 0x0 DUP2 MSTORE POP SWAP2 POP POP JUMPDEST SWAP3 SWAP2 POP POP JUMP JUMPDEST PUSH1 0x60 PUSH1 0x0 DUP1 DUP1 SLOAD SWAP1 POP PUSH8 0xFFFFFFFFFFFFFFFF DUP2 GT ISZERO PUSH2 0x347 JUMPI PUSH2 0x346 PUSH2 0x794 JUMP JUMPDEST JUMPDEST PUSH1 0x40 MLOAD SWAP1 DUP1 DUP3 MSTORE DUP1 PUSH1 0x20 MUL PUSH1 0x20 ADD DUP3 ADD PUSH1 0x40 MSTORE DUP1 ISZERO PUSH2 0x380 JUMPI DUP2 PUSH1 0x20 ADD JUMPDEST PUSH2 0x36D PUSH2 0x725 JUMP JUMPDEST DUP2 MSTORE PUSH1 0x20 ADD SWAP1 PUSH1 0x1 SWAP1 SUB SWAP1 DUP2 PUSH2 0x365 JUMPI SWAP1 POP JUMPDEST POP SWAP1 POP PUSH1 0x0 DUP1 JUMPDEST PUSH1 0x0 DUP1 SLOAD SWAP1 POP DUP2 LT ISZERO PUSH2 0x717 JUMPI DUP5 PUSH20 0xFFFFFFFFFFFFFFFFFFFFFFFFFFFFFFFFFFFFFFFF AND PUSH1 0x0 DUP3 DUP2 SLOAD DUP2 LT PUSH2 0x3BF JUMPI PUSH2 0x3BE PUSH2 0x1202 JUMP JUMPDEST JUMPDEST SWAP1 PUSH1 0x0 MSTORE PUSH1 0x20 PUSH1 0x0 KECCAK256 SWAP1 PUSH1 0x5 MUL ADD PUSH1 0x1 ADD PUSH1 0x0 SWAP1 SLOAD SWAP1 PUSH2 0x100 EXP SWAP1 DIV PUSH20 0xFFFFFFFFFFFFFFFFFFFFFFFFFFFFFFFFFFFFFFFF AND PUSH20 0xFFFFFFFFFFFFFFFFFFFFFFFFFFFFFFFFFFFFFFFF AND SUB PUSH2 0x704 JUMPI PUSH1 0x0 DUP2 DUP2 SLOAD DUP2 LT PUSH2 0x420 JUMPI PUSH2 0x41F PUSH2 0x1202 JUMP JUMPDEST JUMPDEST SWAP1 PUSH1 0x0 MSTORE PUSH1 0x20 PUSH1 0x0 KECCAK256 SWAP1 PUSH1 0x5 MUL ADD PUSH1 0x40 MLOAD DUP1 PUSH1 0xA0 ADD PUSH1 0x40 MSTORE SWAP1 DUP2 PUSH1 0x0 DUP3 ADD DUP1 SLOAD PUSH2 0x449 SWAP1 PUSH2 0xE31 JUMP JUMPDEST DUP1 PUSH1 0x1F ADD PUSH1 0x20 DUP1 SWAP2 DIV MUL PUSH1 0x20 ADD PUSH1 0x40 MLOAD SWAP1 DUP2 ADD PUSH1 0x40 MSTORE DUP1 SWAP3 SWAP2 SWAP1 DUP2 DUP2 MSTORE PUSH1 0x20 ADD DUP3 DUP1 SLOAD PUSH2 0x475 SWAP1 PUSH2 0xE31 JUMP JUMPDEST DUP1 ISZERO PUSH2 0x4C2 JUMPI DUP1 PUSH1 0x1F LT PUSH2 0x497 JUMPI PUSH2 0x100 DUP1 DUP4 SLOAD DIV MUL DUP4 MSTORE SWAP2 PUSH1 0x20 ADD SWAP2 PUSH2 0x4C2 JUMP JUMPDEST DUP3 ADD SWAP2 SWAP1 PUSH1 0x0 MSTORE PUSH1 0x20 PUSH1 0x0 KECCAK256 SWAP1 JUMPDEST DUP2 SLOAD DUP2 MSTORE SWAP1 PUSH1 0x1 ADD SWAP1 PUSH1 0x20 ADD DUP1 DUP4 GT PUSH2 0x4A5 JUMPI DUP3 SWAP1 SUB PUSH1 0x1F AND DUP3 ADD SWAP2 JUMPDEST POP POP POP POP POP DUP2 MSTORE PUSH1 0x20 ADD PUSH1 0x1 DUP3 ADD PUSH1 0x0 SWAP1 SLOAD SWAP1 PUSH2 0x100 EXP SWAP1 DIV PUSH20 0xFFFFFFFFFFFFFFFFFFFFFFFFFFFFFFFFFFFFFFFF AND PUSH20 0xFFFFFFFFFFFFFFFFFFFFFFFFFFFFFFFFFFFFFFFF AND PUSH20 0xFFFFFFFFFFFFFFFFFFFFFFFFFFFFFFFFFFFFFFFF AND DUP2 MSTORE PUSH1 0x20 ADD PUSH1 0x2 DUP3 ADD DUP1 SLOAD PUSH2 0x531 SWAP1 PUSH2 0xE31 JUMP JUMPDEST DUP1 PUSH1 0x1F ADD PUSH1 0x20 DUP1 SWAP2 DIV MUL PUSH1 0x20 ADD PUSH1 0x40 MLOAD SWAP1 DUP2 ADD PUSH1 0x40 MSTORE DUP1 SWAP3 SWAP2 SWAP1 DUP2 DUP2 MSTORE PUSH1 0x20 ADD DUP3 DUP1 SLOAD PUSH2 0x55D SWAP1 PUSH2 0xE31 JUMP JUMPDEST DUP1 ISZERO PUSH2 0x5AA JUMPI DUP1 PUSH1 0x1F LT PUSH2 0x57F JUMPI PUSH2 0x100 DUP1 DUP4 SLOAD DIV MUL DUP4 MSTORE SWAP2 PUSH1 0x20 ADD SWAP2 PUSH2 0x5AA JUMP JUMPDEST DUP3 ADD SWAP2 SWAP1 PUSH1 0x0 MSTORE PUSH1 0x20 PUSH1 0x0 KECCAK256 SWAP1 JUMPDEST DUP2 SLOAD DUP2 MSTORE SWAP1 PUSH1 0x1 ADD SWAP1 PUSH1 0x20 ADD DUP1 DUP4 GT PUSH2 0x58D JUMPI DUP3 SWAP1 SUB PUSH1 0x1F AND DUP3 ADD SWAP2 JUMPDEST POP POP POP POP POP DUP2 MSTORE PUSH1 0x20 ADD PUSH1 0x3 DUP3 ADD DUP1 SLOAD PUSH2 0x5C3 SWAP1 PUSH2 0xE31 JUMP JUMPDEST DUP1 PUSH1 0x1F ADD PUSH1 0x20 DUP1 SWAP2 DIV MUL PUSH1 0x20 ADD PUSH1 0x40 MLOAD SWAP1 DUP2 ADD PUSH1 0x40 MSTORE DUP1 SWAP3 SWAP2 SWAP1 DUP2 DUP2 MSTORE PUSH1 0x20 ADD DUP3 DUP1 SLOAD PUSH2 0x5EF SWAP1 PUSH2 0xE31 JUMP JUMPDEST DUP1 ISZERO PUSH2 0x63C JUMPI DUP1 PUSH1 0x1F LT PUSH2 0x611 JUMPI PUSH2 0x100 DUP1 DUP4 SLOAD DIV MUL DUP4 MSTORE SWAP2 PUSH1 0x20 ADD SWAP2 PUSH2 0x63C JUMP JUMPDEST DUP3 ADD SWAP2 SWAP1 PUSH1 0x0 MSTORE PUSH1 0x20 PUSH1 0x0 KECCAK256 SWAP1 JUMPDEST DUP2 SLOAD DUP2 MSTORE SWAP1 PUSH1 0x1 ADD SWAP1 PUSH1 0x20 ADD DUP1 DUP4 GT PUSH2 0x61F JUMPI DUP3 SWAP1 SUB PUSH1 0x1F AND DUP3 ADD SWAP2 JUMPDEST POP POP POP POP POP DUP2 MSTORE PUSH1 0x20 ADD PUSH1 0x4 DUP3 ADD DUP1 SLOAD PUSH2 0x655 SWAP1 PUSH2 0xE31 JUMP JUMPDEST DUP1 PUSH1 0x1F ADD PUSH1 0x20 DUP1 SWAP2 DIV MUL PUSH1 0x20 ADD PUSH1 0x40 MLOAD SWAP1 DUP2 ADD PUSH1 0x40 MSTORE DUP1 SWAP3 SWAP2 SWAP1 DUP2 DUP2 MSTORE PUSH1 0x20 ADD DUP3 DUP1 SLOAD PUSH2 0x681 SWAP1 PUSH2 0xE31 JUMP JUMPDEST DUP1 ISZERO PUSH2 0x6CE JUMPI DUP1 PUSH1 0x1F LT PUSH2 0x6A3 JUMPI PUSH2 0x100 DUP1 DUP4 SLOAD DIV MUL DUP4 MSTORE SWAP2 PUSH1 0x20 ADD SWAP2 PUSH2 0x6CE JUMP JUMPDEST DUP3 ADD SWAP2 SWAP1 PUSH1 0x0 MSTORE PUSH1 0x20 PUSH1 0x0 KECCAK256 SWAP1 JUMPDEST DUP2 SLOAD DUP2 MSTORE SWAP1 PUSH1 0x1 ADD SWAP1 PUSH1 0x20 ADD DUP1 DUP4 GT PUSH2 0x6B1 JUMPI DUP3 SWAP1 SUB PUSH1 0x1F AND DUP3 ADD SWAP2 JUMPDEST POP POP POP POP POP DUP2 MSTORE POP POP DUP4 DUP4 DUP2 MLOAD DUP2 LT PUSH2 0x6EA JUMPI PUSH2 0x6E9 PUSH2 0x1202 JUMP JUMPDEST JUMPDEST PUSH1 0x20 MUL PUSH1 0x20 ADD ADD DUP2 SWAP1 MSTORE POP DUP2 DUP1 PUSH2 0x700 SWAP1 PUSH2 0x1260 JUMP JUMPDEST SWAP3 POP POP JUMPDEST DUP1 DUP1 PUSH2 0x70F SWAP1 PUSH2 0x1260 JUMP JUMPDEST SWAP2 POP POP PUSH2 0x387 JUMP JUMPDEST POP DUP1 DUP3 MSTORE DUP2 SWAP3 POP POP POP SWAP2 SWAP1 POP JUMP JUMPDEST PUSH1 0x40 MLOAD DUP1 PUSH1 0xA0 ADD PUSH1 0x40 MSTORE DUP1 PUSH1 0x60 DUP2 MSTORE PUSH1 0x20 ADD PUSH1 0x0 PUSH20 0xFFFFFFFFFFFFFFFFFFFFFFFFFFFFFFFFFFFFFFFF AND DUP2 MSTORE PUSH1 0x20 ADD PUSH1 0x60 DUP2 MSTORE PUSH1 0x20 ADD PUSH1 0x60 DUP2 MSTORE PUSH1 0x20 ADD PUSH1 0x60 DUP2 MSTORE POP SWAP1 JUMP JUMPDEST PUSH1 0x0 PUSH1 0x40 MLOAD SWAP1 POP SWAP1 JUMP JUMPDEST PUSH1 0x0 DUP1 REVERT JUMPDEST PUSH1 0x0 DUP1 REVERT JUMPDEST PUSH1 0x0 DUP1 REVERT JUMPDEST PUSH1 0x0 PUSH1 0x1F NOT PUSH1 0x1F DUP4 ADD AND SWAP1 POP SWAP2 SWAP1 POP JUMP JUMPDEST PUSH32 0x4E487B7100000000000000000000000000000000000000000000000000000000 PUSH1 0x0 MSTORE PUSH1 0x41 PUSH1 0x4 MSTORE PUSH1 0x24 PUSH1 0x0 REVERT JUMPDEST PUSH2 0x7CC DUP3 PUSH2 0x783 JUMP JUMPDEST DUP2 ADD DUP2 DUP2 LT PUSH8 0xFFFFFFFFFFFFFFFF DUP3 GT OR ISZERO PUSH2 0x7EB JUMPI PUSH2 0x7EA PUSH2 0x794 JUMP JUMPDEST JUMPDEST DUP1 PUSH1 0x40 MSTORE POP POP POP JUMP JUMPDEST PUSH1 0x0 PUSH2 0x7FE PUSH2 0x76A JUMP JUMPDEST SWAP1 POP PUSH2 0x80A DUP3 DUP3 PUSH2 0x7C3 JUMP JUMPDEST SWAP2 SWAP1 POP JUMP JUMPDEST PUSH1 0x0 DUP1 REVERT JUMPDEST PUSH1 0x0 DUP1 REVERT JUMPDEST PUSH1 0x0 DUP1 REVERT JUMPDEST PUSH1 0x0 PUSH8 0xFFFFFFFFFFFFFFFF DUP3 GT ISZERO PUSH2 0x839 JUMPI PUSH2 0x838 PUSH2 0x794 JUMP JUMPDEST JUMPDEST PUSH2 0x842 DUP3 PUSH2 0x783 JUMP JUMPDEST SWAP1 POP PUSH1 0x20 DUP2 ADD SWAP1 POP SWAP2 SWAP1 POP JUMP JUMPDEST DUP3 DUP2 DUP4 CALLDATACOPY PUSH1 0x0 DUP4 DUP4 ADD MSTORE POP POP POP JUMP JUMPDEST PUSH1 0x0 PUSH2 0x871 PUSH2 0x86C DUP5 PUSH2 0x81E JUMP JUMPDEST PUSH2 0x7F4 JUMP JUMPDEST SWAP1 POP DUP3 DUP2 MSTORE PUSH1 0x20 DUP2 ADD DUP5 DUP5 DUP5 ADD GT ISZERO PUSH2 0x88D JUMPI PUSH2 0x88C PUSH2 0x819 JUMP JUMPDEST JUMPDEST PUSH2 0x898 DUP5 DUP3 DUP6 PUSH2 0x84F JUMP JUMPDEST POP SWAP4 SWAP3 POP POP POP JUMP JUMPDEST PUSH1 0x0 DUP3 PUSH1 0x1F DUP4 ADD SLT PUSH2 0x8B5 JUMPI PUSH2 0x8B4 PUSH2 0x814 JUMP JUMPDEST JUMPDEST DUP2 CALLDATALOAD PUSH2 0x8C5 DUP5 DUP3 PUSH1 0x20 DUP7 ADD PUSH2 0x85E JUMP JUMPDEST SWAP2 POP POP SWAP3 SWAP2 POP POP JUMP JUMPDEST PUSH1 0x0 PUSH20 0xFFFFFFFFFFFFFFFFFFFFFFFFFFFFFFFFFFFFFFFF DUP3 AND SWAP1 POP SWAP2 SWAP1 POP JUMP JUMPDEST PUSH1 0x0 PUSH2 0x8F9 DUP3 PUSH2 0x8CE JUMP JUMPDEST SWAP1 POP SWAP2 SWAP1 POP JUMP JUMPDEST PUSH2 0x909 DUP2 PUSH2 0x8EE JUMP JUMPDEST DUP2 EQ PUSH2 0x914 JUMPI PUSH1 0x0 DUP1 REVERT JUMPDEST POP JUMP JUMPDEST PUSH1 0x0 DUP2 CALLDATALOAD SWAP1 POP PUSH2 0x926 DUP2 PUSH2 0x900 JUMP JUMPDEST SWAP3 SWAP2 POP POP JUMP JUMPDEST PUSH1 0x0 PUSH1 0xA0 DUP3 DUP5 SUB SLT ISZERO PUSH2 0x942 JUMPI PUSH2 0x941 PUSH2 0x77E JUMP JUMPDEST JUMPDEST PUSH2 0x94C PUSH1 0xA0 PUSH2 0x7F4 JUMP JUMPDEST SWAP1 POP PUSH1 0x0 DUP3 ADD CALLDATALOAD PUSH8 0xFFFFFFFFFFFFFFFF DUP2 GT ISZERO PUSH2 0x96C JUMPI PUSH2 0x96B PUSH2 0x80F JUMP JUMPDEST JUMPDEST PUSH2 0x978 DUP5 DUP3 DUP6 ADD PUSH2 0x8A0 JUMP JUMPDEST PUSH1 0x0 DUP4 ADD MSTORE POP PUSH1 0x20 PUSH2 0x98C DUP5 DUP3 DUP6 ADD PUSH2 0x917 JUMP JUMPDEST PUSH1 0x20 DUP4 ADD MSTORE POP PUSH1 0x40 DUP3 ADD CALLDATALOAD PUSH8 0xFFFFFFFFFFFFFFFF DUP2 GT ISZERO PUSH2 0x9B0 JUMPI PUSH2 0x9AF PUSH2 0x80F JUMP JUMPDEST JUMPDEST PUSH2 0x9BC DUP5 DUP3 DUP6 ADD PUSH2 0x8A0 JUMP JUMPDEST PUSH1 0x40 DUP4 ADD MSTORE POP PUSH1 0x60 DUP3 ADD CALLDATALOAD PUSH8 0xFFFFFFFFFFFFFFFF DUP2 GT ISZERO PUSH2 0x9E0 JUMPI PUSH2 0x9DF PUSH2 0x80F JUMP JUMPDEST JUMPDEST PUSH2 0x9EC DUP5 DUP3 DUP6 ADD PUSH2 0x8A0 JUMP JUMPDEST PUSH1 0x60 DUP4 ADD MSTORE POP PUSH1 0x80 DUP3 ADD CALLDATALOAD PUSH8 0xFFFFFFFFFFFFFFFF DUP2 GT ISZERO PUSH2 0xA10 JUMPI PUSH2 0xA0F PUSH2 0x80F JUMP JUMPDEST JUMPDEST PUSH2 0xA1C DUP5 DUP3 DUP6 ADD PUSH2 0x8A0 JUMP JUMPDEST PUSH1 0x80 DUP4 ADD MSTORE POP SWAP3 SWAP2 POP POP JUMP JUMPDEST PUSH1 0x0 PUSH1 0x80 DUP3 DUP5 SUB SLT ISZERO PUSH2 0xA3E JUMPI PUSH2 0xA3D PUSH2 0x77E JUMP JUMPDEST JUMPDEST PUSH2 0xA48 PUSH1 0x80 PUSH2 0x7F4 JUMP JUMPDEST SWAP1 POP PUSH1 0x0 PUSH2 0xA58 DUP5 DUP3 DUP6 ADD PUSH2 0x917 JUMP JUMPDEST PUSH1 0x0 DUP4 ADD MSTORE POP PUSH1 0x20 DUP3 ADD CALLDATALOAD PUSH8 0xFFFFFFFFFFFFFFFF DUP2 GT ISZERO PUSH2 0xA7C JUMPI PUSH2 0xA7B PUSH2 0x80F JUMP JUMPDEST JUMPDEST PUSH2 0xA88 DUP5 DUP3 DUP6 ADD PUSH2 0x8A0 JUMP JUMPDEST PUSH1 0x20 DUP4 ADD MSTORE POP PUSH1 0x40 DUP3 ADD CALLDATALOAD PUSH8 0xFFFFFFFFFFFFFFFF DUP2 GT ISZERO PUSH2 0xAAC JUMPI PUSH2 0xAAB PUSH2 0x80F JUMP JUMPDEST JUMPDEST PUSH2 0xAB8 DUP5 DUP3 DUP6 ADD PUSH2 0x8A0 JUMP JUMPDEST PUSH1 0x40 DUP4 ADD MSTORE POP PUSH1 0x60 DUP3 ADD CALLDATALOAD PUSH8 0xFFFFFFFFFFFFFFFF DUP2 GT ISZERO PUSH2 0xADC JUMPI PUSH2 0xADB PUSH2 0x80F JUMP JUMPDEST JUMPDEST PUSH2 0xAE8 DUP5 DUP3 DUP6 ADD PUSH2 0x8A0 JUMP JUMPDEST PUSH1 0x60 DUP4 ADD MSTORE POP SWAP3 SWAP2 POP POP JUMP JUMPDEST PUSH1 0x0 DUP1 PUSH1 0x40 DUP4 DUP6 SUB SLT ISZERO PUSH2 0xB0B JUMPI PUSH2 0xB0A PUSH2 0x774 JUMP JUMPDEST JUMPDEST PUSH1 0x0 DUP4 ADD CALLDATALOAD PUSH8 0xFFFFFFFFFFFFFFFF DUP2 GT ISZERO PUSH2 0xB29 JUMPI PUSH2 0xB28 PUSH2 0x779 JUMP JUMPDEST JUMPDEST PUSH2 0xB35 DUP6 DUP3 DUP7 ADD PUSH2 0x92C JUMP JUMPDEST SWAP3 POP POP PUSH1 0x20 DUP4 ADD CALLDATALOAD PUSH8 0xFFFFFFFFFFFFFFFF DUP2 GT ISZERO PUSH2 0xB56 JUMPI PUSH2 0xB55 PUSH2 0x779 JUMP JUMPDEST JUMPDEST PUSH2 0xB62 DUP6 DUP3 DUP7 ADD PUSH2 0xA28 JUMP JUMPDEST SWAP2 POP POP SWAP3 POP SWAP3 SWAP1 POP JUMP JUMPDEST PUSH1 0x0 DUP2 MLOAD SWAP1 POP SWAP2 SWAP1 POP JUMP JUMPDEST PUSH1 0x0 DUP3 DUP3 MSTORE PUSH1 0x20 DUP3 ADD SWAP1 POP SWAP3 SWAP2 POP POP JUMP JUMPDEST PUSH1 0x0 JUMPDEST DUP4 DUP2 LT ISZERO PUSH2 0xBA6 JUMPI DUP1 DUP3 ADD MLOAD DUP2 DUP5 ADD MSTORE PUSH1 0x20 DUP2 ADD SWAP1 POP PUSH2 0xB8B JUMP JUMPDEST PUSH1 0x0 DUP5 DUP5 ADD MSTORE POP POP POP POP JUMP JUMPDEST PUSH1 0x0 PUSH2 0xBBD DUP3 PUSH2 0xB6C JUMP JUMPDEST PUSH2 0xBC7 DUP2 DUP6 PUSH2 0xB77 JUMP JUMPDEST SWAP4 POP PUSH2 0xBD7 DUP2 DUP6 PUSH1 0x20 DUP7 ADD PUSH2 0xB88 JUMP JUMPDEST PUSH2 0xBE0 DUP2 PUSH2 0x783 JUMP JUMPDEST DUP5 ADD SWAP2 POP POP SWAP3 SWAP2 POP POP JUMP JUMPDEST PUSH1 0x0 PUSH1 0x20 DUP3 ADD SWAP1 POP DUP2 DUP2 SUB PUSH1 0x0 DUP4 ADD MSTORE PUSH2 0xC05 DUP2 DUP5 PUSH2 0xBB2 JUMP JUMPDEST SWAP1 POP SWAP3 SWAP2 POP POP JUMP JUMPDEST PUSH1 0x0 PUSH1 0x20 DUP3 DUP5 SUB SLT ISZERO PUSH2 0xC23 JUMPI PUSH2 0xC22 PUSH2 0x774 JUMP JUMPDEST JUMPDEST PUSH1 0x0 PUSH2 0xC31 DUP5 DUP3 DUP6 ADD PUSH2 0x917 JUMP JUMPDEST SWAP2 POP POP SWAP3 SWAP2 POP POP JUMP JUMPDEST PUSH1 0x0 DUP2 MLOAD SWAP1 POP SWAP2 SWAP1 POP JUMP JUMPDEST PUSH1 0x0 DUP3 DUP3 MSTORE PUSH1 0x20 DUP3 ADD SWAP1 POP SWAP3 SWAP2 POP POP JUMP JUMPDEST PUSH1 0x0 DUP2 SWAP1 POP PUSH1 0x20 DUP3 ADD SWAP1 POP SWAP2 SWAP1 POP JUMP JUMPDEST PUSH1 0x0 DUP3 DUP3 MSTORE PUSH1 0x20 DUP3 ADD SWAP1 POP SWAP3 SWAP2 POP POP JUMP JUMPDEST PUSH1 0x0 PUSH2 0xC82 DUP3 PUSH2 0xB6C JUMP JUMPDEST PUSH2 0xC8C DUP2 DUP6 PUSH2 0xC66 JUMP JUMPDEST SWAP4 POP PUSH2 0xC9C DUP2 DUP6 PUSH1 0x20 DUP7 ADD PUSH2 0xB88 JUMP JUMPDEST PUSH2 0xCA5 DUP2 PUSH2 0x783 JUMP JUMPDEST DUP5 ADD SWAP2 POP POP SWAP3 SWAP2 POP POP JUMP JUMPDEST PUSH2 0xCB9 DUP2 PUSH2 0x8EE JUMP JUMPDEST DUP3 MSTORE POP POP JUMP JUMPDEST PUSH1 0x0 PUSH1 0xA0 DUP4 ADD PUSH1 0x0 DUP4 ADD MLOAD DUP5 DUP3 SUB PUSH1 0x0 DUP7 ADD MSTORE PUSH2 0xCDC DUP3 DUP3 PUSH2 0xC77 JUMP JUMPDEST SWAP2 POP POP PUSH1 0x20 DUP4 ADD MLOAD PUSH2 0xCF1 PUSH1 0x20 DUP7 ADD DUP3 PUSH2 0xCB0 JUMP JUMPDEST POP PUSH1 0x40 DUP4 ADD MLOAD DUP5 DUP3 SUB PUSH1 0x40 DUP7 ADD MSTORE PUSH2 0xD09 DUP3 DUP3 PUSH2 0xC77 JUMP JUMPDEST SWAP2 POP POP PUSH1 0x60 DUP4 ADD MLOAD DUP5 DUP3 SUB PUSH1 0x60 DUP7 ADD MSTORE PUSH2 0xD23 DUP3 DUP3 PUSH2 0xC77 JUMP JUMPDEST SWAP2 POP POP PUSH1 0x80 DUP4 ADD MLOAD DUP5 DUP3 SUB PUSH1 0x80 DUP7 ADD MSTORE PUSH2 0xD3D DUP3 DUP3 PUSH2 0xC77 JUMP JUMPDEST SWAP2 POP POP DUP1 SWAP2 POP POP SWAP3 SWAP2 POP POP JUMP JUMPDEST PUSH1 0x0 PUSH2 0xD56 DUP4 DUP4 PUSH2 0xCBF JUMP JUMPDEST SWAP1 POP SWAP3 SWAP2 POP POP JUMP JUMPDEST PUSH1 0x0 PUSH1 0x20 DUP3 ADD SWAP1 POP SWAP2 SWAP1 POP JUMP JUMPDEST PUSH1 0x0 PUSH2 0xD76 DUP3 PUSH2 0xC3A JUMP JUMPDEST PUSH2 0xD80 DUP2 DUP6 PUSH2 0xC45 JUMP JUMPDEST SWAP4 POP DUP4 PUSH1 0x20 DUP3 MUL DUP6 ADD PUSH2 0xD92 DUP6 PUSH2 0xC56 JUMP JUMPDEST DUP1 PUSH1 0x0 JUMPDEST DUP6 DUP2 LT ISZERO PUSH2 0xDCE JUMPI DUP5 DUP5 SUB DUP10 MSTORE DUP2 MLOAD PUSH2 0xDAF DUP6 DUP3 PUSH2 0xD4A JUMP JUMPDEST SWAP5 POP PUSH2 0xDBA DUP4 PUSH2 0xD5E JUMP JUMPDEST SWAP3 POP PUSH1 0x20 DUP11 ADD SWAP10 POP POP PUSH1 0x1 DUP2 ADD SWAP1 POP PUSH2 0xD96 JUMP JUMPDEST POP DUP3 SWAP8 POP DUP8 SWAP6 POP POP POP POP POP POP SWAP3 SWAP2 POP POP JUMP JUMPDEST PUSH1 0x0 PUSH1 0x20 DUP3 ADD SWAP1 POP DUP2 DUP2 SUB PUSH1 0x0 DUP4 ADD MSTORE PUSH2 0xDFA DUP2 DUP5 PUSH2 0xD6B JUMP JUMPDEST SWAP1 POP SWAP3 SWAP2 POP POP JUMP JUMPDEST PUSH32 0x4E487B7100000000000000000000000000000000000000000000000000000000 PUSH1 0x0 MSTORE PUSH1 0x22 PUSH1 0x4 MSTORE PUSH1 0x24 PUSH1 0x0 REVERT JUMPDEST PUSH1 0x0 PUSH1 0x2 DUP3 DIV SWAP1 POP PUSH1 0x1 DUP3 AND DUP1 PUSH2 0xE49 JUMPI PUSH1 0x7F DUP3 AND SWAP2 POP JUMPDEST PUSH1 0x20 DUP3 LT DUP2 SUB PUSH2 0xE5C JUMPI PUSH2 0xE5B PUSH2 0xE02 JUMP JUMPDEST JUMPDEST POP SWAP2 SWAP1 POP JUMP JUMPDEST PUSH1 0x0 DUP2 SWAP1 POP DUP2 PUSH1 0x0 MSTORE PUSH1 0x20 PUSH1 0x0 KECCAK256 SWAP1 POP SWAP2 SWAP1 POP JUMP JUMPDEST PUSH1 0x0 PUSH1 0x20 PUSH1 0x1F DUP4 ADD DIV SWAP1 POP SWAP2 SWAP1 POP JUMP JUMPDEST PUSH1 0x0 DUP3 DUP3 SHL SWAP1 POP SWAP3 SWAP2 POP POP JUMP JUMPDEST PUSH1 0x0 PUSH1 0x8 DUP4 MUL PUSH2 0xEC4 PUSH32 0xFFFFFFFFFFFFFFFFFFFFFFFFFFFFFFFFFFFFFFFFFFFFFFFFFFFFFFFFFFFFFFFF DUP3 PUSH2 0xE87 JUMP JUMPDEST PUSH2 0xECE DUP7 DUP4 PUSH2 0xE87 JUMP JUMPDEST SWAP6 POP DUP1 NOT DUP5 AND SWAP4 POP DUP1 DUP7 AND DUP5 OR SWAP3 POP POP POP SWAP4 SWAP3 POP POP POP JUMP JUMPDEST PUSH1 0x0 DUP2 SWAP1 POP SWAP2 SWAP1 POP JUMP JUMPDEST PUSH1 0x0 DUP2 SWAP1 POP SWAP2 SWAP1 POP JUMP JUMPDEST PUSH1 0x0 PUSH2 0xF15 PUSH2 0xF10 PUSH2 0xF0B DUP5 PUSH2 0xEE6 JUMP JUMPDEST PUSH2 0xEF0 JUMP JUMPDEST PUSH2 0xEE6 JUMP JUMPDEST SWAP1 POP SWAP2 SWAP1 POP JUMP JUMPDEST PUSH1 0x0 DUP2 SWAP1 POP SWAP2 SWAP1 POP JUMP JUMPDEST PUSH2 0xF2F DUP4 PUSH2 0xEFA JUMP JUMPDEST PUSH2 0xF43 PUSH2 0xF3B DUP3 PUSH2 0xF1C JUMP JUMPDEST DUP5 DUP5 SLOAD PUSH2 0xE94 JUMP JUMPDEST DUP3 SSTORE POP POP POP POP JUMP JUMPDEST PUSH1 0x0 SWAP1 JUMP JUMPDEST PUSH2 0xF58 PUSH2 0xF4B JUMP JUMPDEST PUSH2 0xF63 DUP2 DUP5 DUP5 PUSH2 0xF26 JUMP JUMPDEST POP POP POP JUMP JUMPDEST JUMPDEST DUP2 DUP2 LT ISZERO PUSH2 0xF87 JUMPI PUSH2 0xF7C PUSH1 0x0 DUP3 PUSH2 0xF50 JUMP JUMPDEST PUSH1 0x1 DUP2 ADD SWAP1 POP PUSH2 0xF69 JUMP JUMPDEST POP POP JUMP JUMPDEST PUSH1 0x1F DUP3 GT ISZERO PUSH2 0xFCC JUMPI PUSH2 0xF9D DUP2 PUSH2 0xE62 JUMP JUMPDEST PUSH2 0xFA6 DUP5 PUSH2 0xE77 JUMP JUMPDEST DUP2 ADD PUSH1 0x20 DUP6 LT ISZERO PUSH2 0xFB5 JUMPI DUP2 SWAP1 POP JUMPDEST PUSH2 0xFC9 PUSH2 0xFC1 DUP6 PUSH2 0xE77 JUMP JUMPDEST DUP4 ADD DUP3 PUSH2 0xF68 JUMP JUMPDEST POP POP JUMPDEST POP POP POP JUMP JUMPDEST PUSH1 0x0 DUP3 DUP3 SHR SWAP1 POP SWAP3 SWAP2 POP POP JUMP JUMPDEST PUSH1 0x0 PUSH2 0xFEF PUSH1 0x0 NOT DUP5 PUSH1 0x8 MUL PUSH2 0xFD1 JUMP JUMPDEST NOT DUP1 DUP4 AND SWAP2 POP POP SWAP3 SWAP2 POP POP JUMP JUMPDEST PUSH1 0x0 PUSH2 0x1008 DUP4 DUP4 PUSH2 0xFDE JUMP JUMPDEST SWAP2 POP DUP3 PUSH1 0x2 MUL DUP3 OR SWAP1 POP SWAP3 SWAP2 POP POP JUMP JUMPDEST PUSH2 0x1021 DUP3 PUSH2 0xB6C JUMP JUMPDEST PUSH8 0xFFFFFFFFFFFFFFFF DUP2 GT ISZERO PUSH2 0x103A JUMPI PUSH2 0x1039 PUSH2 0x794 JUMP JUMPDEST JUMPDEST PUSH2 0x1044 DUP3 SLOAD PUSH2 0xE31 JUMP JUMPDEST PUSH2 0x104F DUP3 DUP3 DUP6 PUSH2 0xF8B JUMP JUMPDEST PUSH1 0x0 PUSH1 0x20 SWAP1 POP PUSH1 0x1F DUP4 GT PUSH1 0x1 DUP2 EQ PUSH2 0x1082 JUMPI PUSH1 0x0 DUP5 ISZERO PUSH2 0x1070 JUMPI DUP3 DUP8 ADD MLOAD SWAP1 POP JUMPDEST PUSH2 0x107A DUP6 DUP3 PUSH2 0xFFC JUMP JUMPDEST DUP7 SSTORE POP PUSH2 0x10E2 JUMP JUMPDEST PUSH1 0x1F NOT DUP5 AND PUSH2 0x1090 DUP7 PUSH2 0xE62 JUMP JUMPDEST PUSH1 0x0 JUMPDEST DUP3 DUP2 LT ISZERO PUSH2 0x10B8 JUMPI DUP5 DUP10 ADD MLOAD DUP3 SSTORE PUSH1 0x1 DUP3 ADD SWAP2 POP PUSH1 0x20 DUP6 ADD SWAP5 POP PUSH1 0x20 DUP2 ADD SWAP1 POP PUSH2 0x1093 JUMP JUMPDEST DUP7 DUP4 LT ISZERO PUSH2 0x10D5 JUMPI DUP5 DUP10 ADD MLOAD PUSH2 0x10D1 PUSH1 0x1F DUP10 AND DUP3 PUSH2 0xFDE JUMP JUMPDEST DUP4 SSTORE POP JUMPDEST PUSH1 0x1 PUSH1 0x2 DUP9 MUL ADD DUP9 SSTORE POP POP POP JUMPDEST POP POP POP POP POP POP JUMP JUMPDEST PUSH1 0x0 DUP2 ISZERO ISZERO SWAP1 POP SWAP2 SWAP1 POP JUMP JUMPDEST PUSH2 0x10FF DUP2 PUSH2 0x10EA JUMP JUMPDEST DUP3 MSTORE POP POP JUMP JUMPDEST PUSH32 0x46696C652075706C6F61646564207375636365737366756C6C792E0000000000 PUSH1 0x0 DUP3 ADD MSTORE POP JUMP JUMPDEST PUSH1 0x0 PUSH2 0x113B PUSH1 0x1B DUP4 PUSH2 0xB77 JUMP JUMPDEST SWAP2 POP PUSH2 0x1146 DUP3 PUSH2 0x1105 JUMP JUMPDEST PUSH1 0x20 DUP3 ADD SWAP1 POP SWAP2 SWAP1 POP JUMP JUMPDEST PUSH1 0x0 PUSH1 0x40 DUP3 ADD SWAP1 POP PUSH2 0x1166 PUSH1 0x0 DUP4 ADD DUP5 PUSH2 0x10F6 JUMP JUMPDEST DUP2 DUP2 SUB PUSH1 0x20 DUP4 ADD MSTORE PUSH2 0x1177 DUP2 PUSH2 0x112E JUMP JUMPDEST SWAP1 POP SWAP3 SWAP2 POP POP JUMP JUMPDEST PUSH1 0x0 PUSH1 0x40 DUP3 ADD SWAP1 POP PUSH2 0x1194 PUSH1 0x0 DUP4 ADD DUP6 PUSH2 0x10F6 JUMP JUMPDEST DUP2 DUP2 SUB PUSH1 0x20 DUP4 ADD MSTORE PUSH2 0x11A6 DUP2 DUP5 PUSH2 0xBB2 JUMP JUMPDEST SWAP1 POP SWAP4 SWAP3 POP POP POP JUMP JUMPDEST PUSH1 0x0 DUP2 SWAP1 POP SWAP3 SWAP2 POP POP JUMP JUMPDEST PUSH1 0x0 PUSH2 0x11C5 DUP3 PUSH2 0xB6C JUMP JUMPDEST PUSH2 0x11CF DUP2 DUP6 PUSH2 0x11AF JUMP JUMPDEST SWAP4 POP PUSH2 0x11DF DUP2 DUP6 PUSH1 0x20 DUP7 ADD PUSH2 0xB88 JUMP JUMPDEST DUP1 DUP5 ADD SWAP2 POP POP SWAP3 SWAP2 POP POP JUMP JUMPDEST PUSH1 0x0 PUSH2 0x11F7 DUP3 DUP5 PUSH2 0x11BA JUMP JUMPDEST SWAP2 POP DUP2 SWAP1 POP SWAP3 SWAP2 POP POP JUMP JUMPDEST PUSH32 0x4E487B7100000000000000000000000000000000000000000000000000000000 PUSH1 0x0 MSTORE PUSH1 0x32 PUSH1 0x4 MSTORE PUSH1 0x24 PUSH1 0x0 REVERT JUMPDEST PUSH32 0x4E487B7100000000000000000000000000000000000000000000000000000000 PUSH1 0x0 MSTORE PUSH1 0x11 PUSH1 0x4 MSTORE PUSH1 0x24 PUSH1 0x0 REVERT JUMPDEST PUSH1 0x0 PUSH2 0x126B DUP3 PUSH2 0xEE6 JUMP JUMPDEST SWAP2 POP PUSH32 0xFFFFFFFFFFFFFFFFFFFFFFFFFFFFFFFFFFFFFFFFFFFFFFFFFFFFFFFFFFFFFFFF DUP3 SUB PUSH2 0x129D JUMPI PUSH2 0x129C PUSH2 0x1231 JUMP JUMPDEST JUMPDEST PUSH1 0x1 DUP3 ADD SWAP1 POP SWAP2 SWAP1 POP JUMP INVALID LOG2 PUSH5 0x6970667358 0x22 SLT KECCAK256 0xD9 DUP9 0xED TIMESTAMP 0xFB SWAP16 0xC5 DUP2 0xA6 0x5F MUL JUMP CODECOPY SWAP12 CODESIZE SWAP15 0xEB 0xFB PUSH18 0x83DE819E44A5E53B1ECAD805DA64736F6C63 NUMBER STOP ADDMOD SGT STOP CALLER "},"methodIdentifiers":{"fileExists((string,address,string,string,string),(address,string,string,string))":"c041a425","get(address)":"c2bc2efc","uploadFile((string,address,string,string,string),(address,string,string,string))":"288e70e4"}}}}}