{"contracts/AccessControl.sol":{"AccessControl":{"abi":[{"inputs":[{"internalType":"address","name":"fileRegisterContract","type":"address"}],"stateMutability":"nonpayable","type":"constructor"},{"inputs":[{"components":[{"internalType":"address","name":"account","type":"address"},{"internalType":"string","name":"userName","type":"string"},{"internalType":"string","name":"publicKey","type":"string"},{"internalType":"string","name":"privateKey","type":"string"}],"internalType":"struct UserRegister.User","name":"user","type":"tuple"},{"components":[{"internalType":"string","name":"ipfsCID","type":"string"},{"internalType":"string","name":"fileName","type":"string"},{"internalType":"address","name":"owner","type":"address"},{"internalType":"string","name":"fileType","type":"string"},{"internalType":"string","name":"iv","type":"string"}],"internalType":"struct FileRegister.File","name":"file","type":"tuple"}],"name":"getEncSymmetricKeyFileUser","outputs":[{"components":[{"internalType":"bool","name":"success","type":"bool"},{"internalType":"string","name":"encSymmetricKey","type":"string"}],"internalType":"struct AccessControl.ResultActionString","name":"","type":"tuple"}],"stateMutability":"view","type":"function"},{"inputs":[{"components":[{"internalType":"address","name":"account","type":"address"},{"internalType":"string","name":"userName","type":"string"},{"internalType":"string","name":"publicKey","type":"string"},{"internalType":"string","name":"privateKey","type":"string"}],"internalType":"struct UserRegister.User","name":"user","type":"tuple"},{"components":[{"internalType":"string","name":"ipfsCID","type":"string"},{"internalType":"string","name":"fileName","type":"string"},{"internalType":"address","name":"owner","type":"address"},{"internalType":"string","name":"fileType","type":"string"},{"internalType":"string","name":"iv","type":"string"}],"internalType":"struct FileRegister.File","name":"file","type":"tuple"}],"name":"getPermissionsOverFile","outputs":[{"components":[{"internalType":"bool","name":"success","type":"bool"},{"internalType":"string[]","name":"permissions","type":"string[]"}],"internalType":"struct AccessControl.ResultActionStringArray","name":"","type":"tuple"}],"stateMutability":"view","type":"function"},{"inputs":[{"internalType":"address","name":"account","type":"address"}],"name":"getUserFiles","outputs":[{"components":[{"internalType":"bool","name":"success","type":"bool"},{"components":[{"internalType":"string","name":"ipfsCID","type":"string"},{"internalType":"string","name":"fileName","type":"string"},{"internalType":"address","name":"owner","type":"address"},{"internalType":"string","name":"fileType","type":"string"},{"internalType":"string","name":"iv","type":"string"}],"internalType":"struct FileRegister.File[]","name":"files","type":"tuple[]"}],"internalType":"struct AccessControl.ResultAction","name":"","type":"tuple"}],"stateMutability":"view","type":"function"},{"inputs":[{"internalType":"address","name":"accountInput","type":"address"},{"internalType":"address","name":"accountList","type":"address"},{"internalType":"string","name":"ipfsCIDInput","type":"string"},{"internalType":"string","name":"ipfsCIDList","type":"string"}],"name":"isKeyEqual","outputs":[{"internalType":"bool","name":"","type":"bool"}],"stateMutability":"pure","type":"function"},{"inputs":[{"components":[{"internalType":"address","name":"account","type":"address"},{"internalType":"string","name":"userName","type":"string"},{"internalType":"string","name":"publicKey","type":"string"},{"internalType":"string","name":"privateKey","type":"string"}],"internalType":"struct UserRegister.User","name":"user","type":"tuple"},{"components":[{"internalType":"string","name":"ipfsCID","type":"string"},{"internalType":"string","name":"fileName","type":"string"},{"internalType":"address","name":"owner","type":"address"},{"internalType":"string","name":"fileType","type":"string"},{"internalType":"string","name":"iv","type":"string"}],"internalType":"struct FileRegister.File","name":"file","type":"tuple"},{"internalType":"string","name":"encSymmetricKey","type":"string"},{"internalType":"string[]","name":"permissions","type":"string[]"}],"name":"shareFile","outputs":[],"stateMutability":"nonpayable","type":"function"},{"inputs":[{"components":[{"internalType":"address","name":"account","type":"address"},{"internalType":"string","name":"userName","type":"string"},{"internalType":"string","name":"publicKey","type":"string"},{"internalType":"string","name":"privateKey","type":"string"}],"internalType":"struct UserRegister.User","name":"user","type":"tuple"},{"components":[{"internalType":"string","name":"ipfsCID","type":"string"},{"internalType":"string","name":"fileName","type":"string"},{"internalType":"address","name":"owner","type":"address"},{"internalType":"string","name":"fileType","type":"string"},{"internalType":"string","name":"iv","type":"string"}],"internalType":"struct FileRegister.File","name":"file","type":"tuple"},{"internalType":"string[]","name":"permissions","type":"string[]"}],"name":"updateUserFilePermissions","outputs":[],"stateMutability":"nonpayable","type":"function"},{"inputs":[{"components":[{"internalType":"address","name":"account","type":"address"},{"internalType":"string","name":"userName","type":"string"},{"internalType":"string","name":"publicKey","type":"string"},{"internalType":"string","name":"privateKey","type":"string"}],"internalType":"struct UserRegister.User","name":"user","type":"tuple"},{"components":[{"internalType":"string","name":"ipfsCID","type":"string"},{"internalType":"string","name":"fileName","type":"string"},{"internalType":"address","name":"owner","type":"address"},{"internalType":"string","name":"fileType","type":"string"},{"internalType":"string","name":"iv","type":"string"}],"internalType":"struct FileRegister.File","name":"file","type":"tuple"},{"internalType":"string","name":"encSymmetricKey","type":"string"}],"name":"uploadFile","outputs":[],"stateMutability":"nonpayable","type":"function"},{"inputs":[{"components":[{"internalType":"address","name":"account","type":"address"},{"internalType":"string","name":"userName","type":"string"},{"internalType":"string","name":"publicKey","type":"string"},{"internalType":"string","name":"privateKey","type":"string"}],"internalType":"struct UserRegister.User","name":"user","type":"tuple"},{"components":[{"internalType":"string","name":"ipfsCID","type":"string"},{"internalType":"string","name":"fileName","type":"string"},{"internalType":"address","name":"owner","type":"address"},{"internalType":"string","name":"fileType","type":"string"},{"internalType":"string","name":"iv","type":"string"}],"internalType":"struct FileRegister.File","name":"file","type":"tuple"}],"name":"userAssociatedWithFile","outputs":[{"internalType":"bool","name":"","type":"bool"}],"stateMutability":"view","type":"function"}],"evm":{"bytecode":{"linkReferences":{},"object":"60806040523480156200001157600080fd5b5060405162002639380380620026398339818101604052810190620000379190620000e9565b80600160006101000a81548173ffffffffffffffffffffffffffffffffffffffff021916908373ffffffffffffffffffffffffffffffffffffffff160217905550506200011b565b600080fd5b600073ffffffffffffffffffffffffffffffffffffffff82169050919050565b6000620000b18262000084565b9050919050565b620000c381620000a4565b8114620000cf57600080fd5b50565b600081519050620000e381620000b8565b92915050565b6000602082840312156200010257620001016200007f565b5b60006200011284828501620000d2565b91505092915050565b61250e806200012b6000396000f3fe608060405234801561001057600080fd5b50600436106100885760003560e01c80639468a12e1161005b5780639468a12e1461014d5780639e93635f14610169578063ad4d2bb214610185578063de6b9f7d146101b557610088565b80631fc379221461008d578063533f2134146100bd5780635c99c71b146100ed5780635d02eece1461011d575b600080fd5b6100a760048036038101906100a29190611216565b6101d1565b6040516100b49190611487565b60405180910390f35b6100d760048036038101906100d291906117b0565b6104b0565b6040516100e49190611927565b60405180910390f35b61010760048036038101906101029190611949565b61076a565b60405161011491906119f7565b60405180910390f35b610137600480360381019061013291906117b0565b6107fc565b6040516101449190611a4f565b60405180910390f35b61016760048036038101906101629190611b57565b610a30565b005b610183600480360381019061017e9190611c2e565b610a5e565b005b61019f600480360381019061019a91906117b0565b610bd3565b6040516101ac91906119f7565b60405180910390f35b6101cf60048036038101906101ca9190611cd5565b610d1c565b005b6101d9611031565b6000808054905067ffffffffffffffff8111156101f9576101f86114ae565b5b60405190808252806020026020018201604052801561023257816020015b61021f61104d565b8152602001906001900390816102175790505b5090506000805b600080549050811015610461578473ffffffffffffffffffffffffffffffffffffffff166000828154811061027157610270611d7c565b5b906000526020600020906004020160000160009054906101000a900473ffffffffffffffffffffffffffffffffffffffff1673ffffffffffffffffffffffffffffffffffffffff160361044e5760008082815481106102d3576102d2611d7c565b5b906000526020600020906004020160010180546102ef90611dda565b80601f016020809104026020016040519081016040528092919081815260200182805461031b90611dda565b80156103685780601f1061033d57610100808354040283529160200191610368565b820191906000526020600020905b81548152906001019060200180831161034b57829003601f168201915b505050505090506000600160009054906101000a900473ffffffffffffffffffffffffffffffffffffffff1673ffffffffffffffffffffffffffffffffffffffff16639f5937f8836040518263ffffffff1660e01b81526004016103cc9190611e55565b600060405180830381865afa1580156103e9573d6000803e3d6000fd5b505050506040513d6000823e3d601f19601f820116820180604052508101906104129190612090565b90506000816020015190508086868151811061043157610430611d7c565b5b6020026020010181905250848061044790612112565b9550505050505b808061045990612112565b915050610239565b508082526000811461048e57604051806040016040528060011515815260200183815250925050506104ab565b604051806040016040528060001515815260200183815250925050505b919050565b6104b8611092565b60005b6000805490508110156106fa576105ce8460000151600083815481106104e4576104e3611d7c565b5b906000526020600020906004020160000160009054906101000a900473ffffffffffffffffffffffffffffffffffffffff1685600001516000858154811061052f5761052e611d7c565b5b9060005260206000209060040201600101805461054b90611dda565b80601f016020809104026020016040519081016040528092919081815260200182805461057790611dda565b80156105c45780601f10610599576101008083540402835291602001916105c4565b820191906000526020600020905b8154815290600101906020018083116105a757829003601f168201915b505050505061076a565b156106e7576040518060400160405280600115158152602001600083815481106105fb576105fa611d7c565b5b9060005260206000209060040201600301805480602002602001604051908101604052809291908181526020016000905b828210156106d857838290600052602060002001805461064b90611dda565b80601f016020809104026020016040519081016040528092919081815260200182805461067790611dda565b80156106c45780601f10610699576101008083540402835291602001916106c4565b820191906000526020600020905b8154815290600101906020018083116106a757829003601f168201915b50505050508152602001906001019061062c565b50505050815250915050610764565b80806106f290612112565b9150506104bb565b506040518060400160405280600015158152602001600067ffffffffffffffff81111561072a576107296114ae565b5b60405190808252806020026020018201604052801561075d57816020015b60608152602001906001900390816107485790505b5081525090505b92915050565b60008473ffffffffffffffffffffffffffffffffffffffff168473ffffffffffffffffffffffffffffffffffffffff161480156107f25750826040516020016107b39190612196565b60405160208183030381529060405280519060200120826040516020016107da9190612196565b60405160208183030381529060405280519060200120145b9050949350505050565b6108046110ae565b60005b6000805490508110156109ff5761091a8460000151600083815481106108305761082f611d7c565b5b906000526020600020906004020160000160009054906101000a900473ffffffffffffffffffffffffffffffffffffffff1685600001516000858154811061087b5761087a611d7c565b5b9060005260206000209060040201600101805461089790611dda565b80601f01602080910402602001604051908101604052809291908181526020018280546108c390611dda565b80156109105780601f106108e557610100808354040283529160200191610910565b820191906000526020600020905b8154815290600101906020018083116108f357829003601f168201915b505050505061076a565b156109ec5760405180604001604052806001151581526020016000838154811061094757610946611d7c565b5b9060005260206000209060040201600201805461096390611dda565b80601f016020809104026020016040519081016040528092919081815260200182805461098f90611dda565b80156109dc5780601f106109b1576101008083540402835291602001916109dc565b820191906000526020600020905b8154815290600101906020018083116109bf57829003601f168201915b5050505050815250915050610a2a565b80806109f790612112565b915050610807565b5060405180604001604052806000151581526020016040518060200160405280600081525081525090505b92915050565b6000610a3c8585610bd3565b90508015610a4a5750610a58565b610a5685858585610f29565b505b50505050565b60005b600080549050811015610bcc57610b74846000015160008381548110610a8a57610a89611d7c565b5b906000526020600020906004020160000160009054906101000a900473ffffffffffffffffffffffffffffffffffffffff16856000015160008581548110610ad557610ad4611d7c565b5b90600052602060002090600402016001018054610af190611dda565b80601f0160208091040260200160405190810160405280929190818152602001828054610b1d90611dda565b8015610b6a5780601f10610b3f57610100808354040283529160200191610b6a565b820191906000526020600020905b815481529060010190602001808311610b4d57829003601f168201915b505050505061076a565b15610bb9578160008281548110610b8e57610b8d611d7c565b5b90600052602060002090600402016003019080519060200190610bb29291906110ca565b5050610bce565b8080610bc490612112565b915050610a61565b505b505050565b600080600090505b600080549050811015610d1057610cee846000015160008381548110610c0457610c03611d7c565b5b906000526020600020906004020160000160009054906101000a900473ffffffffffffffffffffffffffffffffffffffff16856000015160008581548110610c4f57610c4e611d7c565b5b90600052602060002090600402016001018054610c6b90611dda565b80601f0160208091040260200160405190810160405280929190818152602001828054610c9790611dda565b8015610ce45780601f10610cb957610100808354040283529160200191610ce4565b820191906000526020600020905b815481529060010190602001808311610cc757829003601f168201915b505050505061076a565b15610cfd576001915050610d16565b8080610d0890612112565b915050610bdb565b50600090505b92915050565b6000610d288484610bd3565b90508015610d365750610f24565b6000600367ffffffffffffffff811115610d5357610d526114ae565b5b604051908082528060200260200182016040528015610d8657816020015b6060815260200190600190039081610d715790505b5090506040518060400160405280600881526020017f646f776e6c6f616400000000000000000000000000000000000000000000000081525081600081518110610dd357610dd2611d7c565b5b60200260200101819052506040518060400160405280600681526020017f64656c657465000000000000000000000000000000000000000000000000000081525081600181518110610e2857610e27611d7c565b5b60200260200101819052506040518060400160405280600581526020017f736861726500000000000000000000000000000000000000000000000000000081525081600281518110610e7d57610e7c611d7c565b5b6020026020010181905250610e9485858584610f29565b600160009054906101000a900473ffffffffffffffffffffffffffffffffffffffff1673ffffffffffffffffffffffffffffffffffffffff16639aa7f418856040518263ffffffff1660e01b8152600401610eef9190612238565b600060405180830381600087803b158015610f0957600080fd5b505af1158015610f1d573d6000803e3d6000fd5b5050505050505b505050565b60006040518060800160405280866000015173ffffffffffffffffffffffffffffffffffffffff16815260200185600001518152602001848152602001838152509050600081908060018154018082558091505060019003906000526020600020906004020160009091909190915060008201518160000160006101000a81548173ffffffffffffffffffffffffffffffffffffffff021916908373ffffffffffffffffffffffffffffffffffffffff1602179055506020820151816001019081610ff49190612406565b50604082015181600201908161100a9190612406565b5060608201518160030190805190602001906110279291906110ca565b5050505050505050565b6040518060400160405280600015158152602001606081525090565b6040518060a001604052806060815260200160608152602001600073ffffffffffffffffffffffffffffffffffffffff16815260200160608152602001606081525090565b6040518060400160405280600015158152602001606081525090565b6040518060400160405280600015158152602001606081525090565b828054828255906000526020600020908101928215611112579160200282015b828111156111115782518290816111019190612406565b50916020019190600101906110ea565b5b50905061111f9190611123565b5090565b5b80821115611143576000818161113a9190611147565b50600101611124565b5090565b50805461115390611dda565b6000825580601f106111655750611184565b601f0160209004906000526020600020908101906111839190611187565b5b50565b5b808211156111a0576000816000905550600101611188565b5090565b6000604051905090565b600080fd5b600080fd5b600073ffffffffffffffffffffffffffffffffffffffff82169050919050565b60006111e3826111b8565b9050919050565b6111f3816111d8565b81146111fe57600080fd5b50565b600081359050611210816111ea565b92915050565b60006020828403121561122c5761122b6111ae565b5b600061123a84828501611201565b91505092915050565b60008115159050919050565b61125881611243565b82525050565b600081519050919050565b600082825260208201905092915050565b6000819050602082019050919050565b600081519050919050565b600082825260208201905092915050565b60005b838110156112c45780820151818401526020810190506112a9565b60008484015250505050565b6000601f19601f8301169050919050565b60006112ec8261128a565b6112f68185611295565b93506113068185602086016112a6565b61130f816112d0565b840191505092915050565b611323816111d8565b82525050565b600060a083016000830151848203600086015261134682826112e1565b9150506020830151848203602086015261136082826112e1565b9150506040830151611375604086018261131a565b506060830151848203606086015261138d82826112e1565b915050608083015184820360808601526113a782826112e1565b9150508091505092915050565b60006113c08383611329565b905092915050565b6000602082019050919050565b60006113e08261125e565b6113ea8185611269565b9350836020820285016113fc8561127a565b8060005b85811015611438578484038952815161141985826113b4565b9450611424836113c8565b925060208a01995050600181019050611400565b50829750879550505050505092915050565b6000604083016000830151611462600086018261124f565b506020830151848203602086015261147a82826113d5565b9150508091505092915050565b600060208201905081810360008301526114a1818461144a565b905092915050565b600080fd5b7f4e487b7100000000000000000000000000000000000000000000000000000000600052604160045260246000fd5b6114e6826112d0565b810181811067ffffffffffffffff82111715611505576115046114ae565b5b80604052505050565b60006115186111a4565b905061152482826114dd565b919050565b600080fd5b600080fd5b600080fd5b600067ffffffffffffffff821115611553576115526114ae565b5b61155c826112d0565b9050602081019050919050565b82818337600083830152505050565b600061158b61158684611538565b61150e565b9050828152602081018484840111156115a7576115a6611533565b5b6115b2848285611569565b509392505050565b600082601f8301126115cf576115ce61152e565b5b81356115df848260208601611578565b91505092915050565b6000608082840312156115fe576115fd6114a9565b5b611608608061150e565b9050600061161884828501611201565b600083015250602082013567ffffffffffffffff81111561163c5761163b611529565b5b611648848285016115ba565b602083015250604082013567ffffffffffffffff81111561166c5761166b611529565b5b611678848285016115ba565b604083015250606082013567ffffffffffffffff81111561169c5761169b611529565b5b6116a8848285016115ba565b60608301525092915050565b600060a082840312156116ca576116c96114a9565b5b6116d460a061150e565b9050600082013567ffffffffffffffff8111156116f4576116f3611529565b5b611700848285016115ba565b600083015250602082013567ffffffffffffffff81111561172457611723611529565b5b611730848285016115ba565b602083015250604061174484828501611201565b604083015250606082013567ffffffffffffffff81111561176857611767611529565b5b611774848285016115ba565b606083015250608082013567ffffffffffffffff81111561179857611797611529565b5b6117a4848285016115ba565b60808301525092915050565b600080604083850312156117c7576117c66111ae565b5b600083013567ffffffffffffffff8111156117e5576117e46111b3565b5b6117f1858286016115e8565b925050602083013567ffffffffffffffff811115611812576118116111b3565b5b61181e858286016116b4565b9150509250929050565b600081519050919050565b600082825260208201905092915050565b6000819050602082019050919050565b600061186083836112e1565b905092915050565b6000602082019050919050565b600061188082611828565b61188a8185611833565b93508360208202850161189c85611844565b8060005b858110156118d857848403895281516118b98582611854565b94506118c483611868565b925060208a019950506001810190506118a0565b50829750879550505050505092915050565b6000604083016000830151611902600086018261124f565b506020830151848203602086015261191a8282611875565b9150508091505092915050565b6000602082019050818103600083015261194181846118ea565b905092915050565b60008060008060808587031215611963576119626111ae565b5b600061197187828801611201565b945050602061198287828801611201565b935050604085013567ffffffffffffffff8111156119a3576119a26111b3565b5b6119af878288016115ba565b925050606085013567ffffffffffffffff8111156119d0576119cf6111b3565b5b6119dc878288016115ba565b91505092959194509250565b6119f181611243565b82525050565b6000602082019050611a0c60008301846119e8565b92915050565b6000604083016000830151611a2a600086018261124f565b5060208301518482036020860152611a4282826112e1565b9150508091505092915050565b60006020820190508181036000830152611a698184611a12565b905092915050565b600067ffffffffffffffff821115611a8c57611a8b6114ae565b5b602082029050602081019050919050565b600080fd5b6000611ab5611ab084611a71565b61150e565b90508083825260208201905060208402830185811115611ad857611ad7611a9d565b5b835b81811015611b1f57803567ffffffffffffffff811115611afd57611afc61152e565b5b808601611b0a89826115ba565b85526020850194505050602081019050611ada565b5050509392505050565b600082601f830112611b3e57611b3d61152e565b5b8135611b4e848260208601611aa2565b91505092915050565b60008060008060808587031215611b7157611b706111ae565b5b600085013567ffffffffffffffff811115611b8f57611b8e6111b3565b5b611b9b878288016115e8565b945050602085013567ffffffffffffffff811115611bbc57611bbb6111b3565b5b611bc8878288016116b4565b935050604085013567ffffffffffffffff811115611be957611be86111b3565b5b611bf5878288016115ba565b925050606085013567ffffffffffffffff811115611c1657611c156111b3565b5b611c2287828801611b29565b91505092959194509250565b600080600060608486031215611c4757611c466111ae565b5b600084013567ffffffffffffffff811115611c6557611c646111b3565b5b611c71868287016115e8565b935050602084013567ffffffffffffffff811115611c9257611c916111b3565b5b611c9e868287016116b4565b925050604084013567ffffffffffffffff811115611cbf57611cbe6111b3565b5b611ccb86828701611b29565b9150509250925092565b600080600060608486031215611cee57611ced6111ae565b5b600084013567ffffffffffffffff811115611d0c57611d0b6111b3565b5b611d18868287016115e8565b935050602084013567ffffffffffffffff811115611d3957611d386111b3565b5b611d45868287016116b4565b925050604084013567ffffffffffffffff811115611d6657611d656111b3565b5b611d72868287016115ba565b9150509250925092565b7f4e487b7100000000000000000000000000000000000000000000000000000000600052603260045260246000fd5b7f4e487b7100000000000000000000000000000000000000000000000000000000600052602260045260246000fd5b60006002820490506001821680611df257607f821691505b602082108103611e0557611e04611dab565b5b50919050565b600082825260208201905092915050565b6000611e278261128a565b611e318185611e0b565b9350611e418185602086016112a6565b611e4a816112d0565b840191505092915050565b60006020820190508181036000830152611e6f8184611e1c565b905092915050565b611e8081611243565b8114611e8b57600080fd5b50565b600081519050611e9d81611e77565b92915050565b6000611eb6611eb184611538565b61150e565b905082815260208101848484011115611ed257611ed1611533565b5b611edd8482856112a6565b509392505050565b600082601f830112611efa57611ef961152e565b5b8151611f0a848260208601611ea3565b91505092915050565b600081519050611f22816111ea565b92915050565b600060a08284031215611f3e57611f3d6114a9565b5b611f4860a061150e565b9050600082015167ffffffffffffffff811115611f6857611f67611529565b5b611f7484828501611ee5565b600083015250602082015167ffffffffffffffff811115611f9857611f97611529565b5b611fa484828501611ee5565b6020830152506040611fb884828501611f13565b604083015250606082015167ffffffffffffffff811115611fdc57611fdb611529565b5b611fe884828501611ee5565b606083015250608082015167ffffffffffffffff81111561200c5761200b611529565b5b61201884828501611ee5565b60808301525092915050565b60006040828403121561203a576120396114a9565b5b612044604061150e565b9050600061205484828501611e8e565b600083015250602082015167ffffffffffffffff81111561207857612077611529565b5b61208484828501611f28565b60208301525092915050565b6000602082840312156120a6576120a56111ae565b5b600082015167ffffffffffffffff8111156120c4576120c36111b3565b5b6120d084828501612024565b91505092915050565b7f4e487b7100000000000000000000000000000000000000000000000000000000600052601160045260246000fd5b6000819050919050565b600061211d82612108565b91507fffffffffffffffffffffffffffffffffffffffffffffffffffffffffffffffff820361214f5761214e6120d9565b5b600182019050919050565b600081905092915050565b60006121708261128a565b61217a818561215a565b935061218a8185602086016112a6565b80840191505092915050565b60006121a28284612165565b915081905092915050565b600060a08301600083015184820360008601526121ca82826112e1565b915050602083015184820360208601526121e482826112e1565b91505060408301516121f9604086018261131a565b506060830151848203606086015261221182826112e1565b9150506080830151848203608086015261222b82826112e1565b9150508091505092915050565b6000602082019050818103600083015261225281846121ad565b905092915050565b60008190508160005260206000209050919050565b60006020601f8301049050919050565b600082821b905092915050565b6000600883026122bc7fffffffffffffffffffffffffffffffffffffffffffffffffffffffffffffffff8261227f565b6122c6868361227f565b95508019841693508086168417925050509392505050565b6000819050919050565b60006123036122fe6122f984612108565b6122de565b612108565b9050919050565b6000819050919050565b61231d836122e8565b6123316123298261230a565b84845461228c565b825550505050565b600090565b612346612339565b612351818484612314565b505050565b5b818110156123755761236a60008261233e565b600181019050612357565b5050565b601f8211156123ba5761238b8161225a565b6123948461226f565b810160208510156123a3578190505b6123b76123af8561226f565b830182612356565b50505b505050565b600082821c905092915050565b60006123dd600019846008026123bf565b1980831691505092915050565b60006123f683836123cc565b9150826002028217905092915050565b61240f8261128a565b67ffffffffffffffff811115612428576124276114ae565b5b6124328254611dda565b61243d828285612379565b600060209050601f831160018114612470576000841561245e578287015190505b61246885826123ea565b8655506124d0565b601f19841661247e8661225a565b60005b828110156124a657848901518255600182019150602085019450602081019050612481565b868310156124c357848901516124bf601f8916826123cc565b8355505b6001600288020188555050505b50505050505056fea2646970667358221220a1fafb3c459572d950aeced01acbdb17763e7365091ad5133b83694a3221c2dc64736f6c63430008130033","opcodes":"PUSH1 0x80 PUSH1 0x40 MSTORE CALLVALUE DUP1 ISZERO PUSH3 0x11 JUMPI PUSH1 0x0 DUP1 REVERT JUMPDEST POP PUSH1 0x40 MLOAD PUSH3 0x2639 CODESIZE SUB DUP1 PUSH3 0x2639 DUP4 CODECOPY DUP2 DUP2 ADD PUSH1 0x40 MSTORE DUP2 ADD SWAP1 PUSH3 0x37 SWAP2 SWAP1 PUSH3 0xE9 JUMP JUMPDEST DUP1 PUSH1 0x1 PUSH1 0x0 PUSH2 0x100 EXP DUP2 SLOAD DUP2 PUSH20 0xFFFFFFFFFFFFFFFFFFFFFFFFFFFFFFFFFFFFFFFF MUL NOT AND SWAP1 DUP4 PUSH20 0xFFFFFFFFFFFFFFFFFFFFFFFFFFFFFFFFFFFFFFFF AND MUL OR SWAP1 SSTORE POP POP PUSH3 0x11B JUMP JUMPDEST PUSH1 0x0 DUP1 REVERT JUMPDEST PUSH1 0x0 PUSH20 0xFFFFFFFFFFFFFFFFFFFFFFFFFFFFFFFFFFFFFFFF DUP3 AND SWAP1 POP SWAP2 SWAP1 POP JUMP JUMPDEST PUSH1 0x0 PUSH3 0xB1 DUP3 PUSH3 0x84 JUMP JUMPDEST SWAP1 POP SWAP2 SWAP1 POP JUMP JUMPDEST PUSH3 0xC3 DUP2 PUSH3 0xA4 JUMP JUMPDEST DUP2 EQ PUSH3 0xCF JUMPI PUSH1 0x0 DUP1 REVERT JUMPDEST POP JUMP JUMPDEST PUSH1 0x0 DUP2 MLOAD SWAP1 POP PUSH3 0xE3 DUP2 PUSH3 0xB8 JUMP JUMPDEST SWAP3 SWAP2 POP POP JUMP JUMPDEST PUSH1 0x0 PUSH1 0x20 DUP3 DUP5 SUB SLT ISZERO PUSH3 0x102 JUMPI PUSH3 0x101 PUSH3 0x7F JUMP JUMPDEST JUMPDEST PUSH1 0x0 PUSH3 0x112 DUP5 DUP3 DUP6 ADD PUSH3 0xD2 JUMP JUMPDEST SWAP2 POP POP SWAP3 SWAP2 POP POP JUMP JUMPDEST PUSH2 0x250E DUP1 PUSH3 0x12B PUSH1 0x0 CODECOPY PUSH1 0x0 RETURN INVALID PUSH1 0x80 PUSH1 0x40 MSTORE CALLVALUE DUP1 ISZERO PUSH2 0x10 JUMPI PUSH1 0x0 DUP1 REVERT JUMPDEST POP PUSH1 0x4 CALLDATASIZE LT PUSH2 0x88 JUMPI PUSH1 0x0 CALLDATALOAD PUSH1 0xE0 SHR DUP1 PUSH4 0x9468A12E GT PUSH2 0x5B JUMPI DUP1 PUSH4 0x9468A12E EQ PUSH2 0x14D JUMPI DUP1 PUSH4 0x9E93635F EQ PUSH2 0x169 JUMPI DUP1 PUSH4 0xAD4D2BB2 EQ PUSH2 0x185 JUMPI DUP1 PUSH4 0xDE6B9F7D EQ PUSH2 0x1B5 JUMPI PUSH2 0x88 JUMP JUMPDEST DUP1 PUSH4 0x1FC37922 EQ PUSH2 0x8D JUMPI DUP1 PUSH4 0x533F2134 EQ PUSH2 0xBD JUMPI DUP1 PUSH4 0x5C99C71B EQ PUSH2 0xED JUMPI DUP1 PUSH4 0x5D02EECE EQ PUSH2 0x11D JUMPI JUMPDEST PUSH1 0x0 DUP1 REVERT JUMPDEST PUSH2 0xA7 PUSH1 0x4 DUP1 CALLDATASIZE SUB DUP2 ADD SWAP1 PUSH2 0xA2 SWAP2 SWAP1 PUSH2 0x1216 JUMP JUMPDEST PUSH2 0x1D1 JUMP JUMPDEST PUSH1 0x40 MLOAD PUSH2 0xB4 SWAP2 SWAP1 PUSH2 0x1487 JUMP JUMPDEST PUSH1 0x40 MLOAD DUP1 SWAP2 SUB SWAP1 RETURN JUMPDEST PUSH2 0xD7 PUSH1 0x4 DUP1 CALLDATASIZE SUB DUP2 ADD SWAP1 PUSH2 0xD2 SWAP2 SWAP1 PUSH2 0x17B0 JUMP JUMPDEST PUSH2 0x4B0 JUMP JUMPDEST PUSH1 0x40 MLOAD PUSH2 0xE4 SWAP2 SWAP1 PUSH2 0x1927 JUMP JUMPDEST PUSH1 0x40 MLOAD DUP1 SWAP2 SUB SWAP1 RETURN JUMPDEST PUSH2 0x107 PUSH1 0x4 DUP1 CALLDATASIZE SUB DUP2 ADD SWAP1 PUSH2 0x102 SWAP2 SWAP1 PUSH2 0x1949 JUMP JUMPDEST PUSH2 0x76A JUMP JUMPDEST PUSH1 0x40 MLOAD PUSH2 0x114 SWAP2 SWAP1 PUSH2 0x19F7 JUMP JUMPDEST PUSH1 0x40 MLOAD DUP1 SWAP2 SUB SWAP1 RETURN JUMPDEST PUSH2 0x137 PUSH1 0x4 DUP1 CALLDATASIZE SUB DUP2 ADD SWAP1 PUSH2 0x132 SWAP2 SWAP1 PUSH2 0x17B0 JUMP JUMPDEST PUSH2 0x7FC JUMP JUMPDEST PUSH1 0x40 MLOAD PUSH2 0x144 SWAP2 SWAP1 PUSH2 0x1A4F JUMP JUMPDEST PUSH1 0x40 MLOAD DUP1 SWAP2 SUB SWAP1 RETURN JUMPDEST PUSH2 0x167 PUSH1 0x4 DUP1 CALLDATASIZE SUB DUP2 ADD SWAP1 PUSH2 0x162 SWAP2 SWAP1 PUSH2 0x1B57 JUMP JUMPDEST PUSH2 0xA30 JUMP JUMPDEST STOP JUMPDEST PUSH2 0x183 PUSH1 0x4 DUP1 CALLDATASIZE SUB DUP2 ADD SWAP1 PUSH2 0x17E SWAP2 SWAP1 PUSH2 0x1C2E JUMP JUMPDEST PUSH2 0xA5E JUMP JUMPDEST STOP JUMPDEST PUSH2 0x19F PUSH1 0x4 DUP1 CALLDATASIZE SUB DUP2 ADD SWAP1 PUSH2 0x19A SWAP2 SWAP1 PUSH2 0x17B0 JUMP JUMPDEST PUSH2 0xBD3 JUMP JUMPDEST PUSH1 0x40 MLOAD PUSH2 0x1AC SWAP2 SWAP1 PUSH2 0x19F7 JUMP JUMPDEST PUSH1 0x40 MLOAD DUP1 SWAP2 SUB SWAP1 RETURN JUMPDEST PUSH2 0x1CF PUSH1 0x4 DUP1 CALLDATASIZE SUB DUP2 ADD SWAP1 PUSH2 0x1CA SWAP2 SWAP1 PUSH2 0x1CD5 JUMP JUMPDEST PUSH2 0xD1C JUMP JUMPDEST STOP JUMPDEST PUSH2 0x1D9 PUSH2 0x1031 JUMP JUMPDEST PUSH1 0x0 DUP1 DUP1 SLOAD SWAP1 POP PUSH8 0xFFFFFFFFFFFFFFFF DUP2 GT ISZERO PUSH2 0x1F9 JUMPI PUSH2 0x1F8 PUSH2 0x14AE JUMP JUMPDEST JUMPDEST PUSH1 0x40 MLOAD SWAP1 DUP1 DUP3 MSTORE DUP1 PUSH1 0x20 MUL PUSH1 0x20 ADD DUP3 ADD PUSH1 0x40 MSTORE DUP1 ISZERO PUSH2 0x232 JUMPI DUP2 PUSH1 0x20 ADD JUMPDEST PUSH2 0x21F PUSH2 0x104D JUMP JUMPDEST DUP2 MSTORE PUSH1 0x20 ADD SWAP1 PUSH1 0x1 SWAP1 SUB SWAP1 DUP2 PUSH2 0x217 JUMPI SWAP1 POP JUMPDEST POP SWAP1 POP PUSH1 0x0 DUP1 JUMPDEST PUSH1 0x0 DUP1 SLOAD SWAP1 POP DUP2 LT ISZERO PUSH2 0x461 JUMPI DUP5 PUSH20 0xFFFFFFFFFFFFFFFFFFFFFFFFFFFFFFFFFFFFFFFF AND PUSH1 0x0 DUP3 DUP2 SLOAD DUP2 LT PUSH2 0x271 JUMPI PUSH2 0x270 PUSH2 0x1D7C JUMP JUMPDEST JUMPDEST SWAP1 PUSH1 0x0 MSTORE PUSH1 0x20 PUSH1 0x0 KECCAK256 SWAP1 PUSH1 0x4 MUL ADD PUSH1 0x0 ADD PUSH1 0x0 SWAP1 SLOAD SWAP1 PUSH2 0x100 EXP SWAP1 DIV PUSH20 0xFFFFFFFFFFFFFFFFFFFFFFFFFFFFFFFFFFFFFFFF AND PUSH20 0xFFFFFFFFFFFFFFFFFFFFFFFFFFFFFFFFFFFFFFFF AND SUB PUSH2 0x44E JUMPI PUSH1 0x0 DUP1 DUP3 DUP2 SLOAD DUP2 LT PUSH2 0x2D3 JUMPI PUSH2 0x2D2 PUSH2 0x1D7C JUMP JUMPDEST JUMPDEST SWAP1 PUSH1 0x0 MSTORE PUSH1 0x20 PUSH1 0x0 KECCAK256 SWAP1 PUSH1 0x4 MUL ADD PUSH1 0x1 ADD DUP1 SLOAD PUSH2 0x2EF SWAP1 PUSH2 0x1DDA JUMP JUMPDEST DUP1 PUSH1 0x1F ADD PUSH1 0x20 DUP1 SWAP2 DIV MUL PUSH1 0x20 ADD PUSH1 0x40 MLOAD SWAP1 DUP2 ADD PUSH1 0x40 MSTORE DUP1 SWAP3 SWAP2 SWAP1 DUP2 DUP2 MSTORE PUSH1 0x20 ADD DUP3 DUP1 SLOAD PUSH2 0x31B SWAP1 PUSH2 0x1DDA JUMP JUMPDEST DUP1 ISZERO PUSH2 0x368 JUMPI DUP1 PUSH1 0x1F LT PUSH2 0x33D JUMPI PUSH2 0x100 DUP1 DUP4 SLOAD DIV MUL DUP4 MSTORE SWAP2 PUSH1 0x20 ADD SWAP2 PUSH2 0x368 JUMP JUMPDEST DUP3 ADD SWAP2 SWAP1 PUSH1 0x0 MSTORE PUSH1 0x20 PUSH1 0x0 KECCAK256 SWAP1 JUMPDEST DUP2 SLOAD DUP2 MSTORE SWAP1 PUSH1 0x1 ADD SWAP1 PUSH1 0x20 ADD DUP1 DUP4 GT PUSH2 0x34B JUMPI DUP3 SWAP1 SUB PUSH1 0x1F AND DUP3 ADD SWAP2 JUMPDEST POP POP POP POP POP SWAP1 POP PUSH1 0x0 PUSH1 0x1 PUSH1 0x0 SWAP1 SLOAD SWAP1 PUSH2 0x100 EXP SWAP1 DIV PUSH20 0xFFFFFFFFFFFFFFFFFFFFFFFFFFFFFFFFFFFFFFFF AND PUSH20 0xFFFFFFFFFFFFFFFFFFFFFFFFFFFFFFFFFFFFFFFF AND PUSH4 0x9F5937F8 DUP4 PUSH1 0x40 MLOAD DUP3 PUSH4 0xFFFFFFFF AND PUSH1 0xE0 SHL DUP2 MSTORE PUSH1 0x4 ADD PUSH2 0x3CC SWAP2 SWAP1 PUSH2 0x1E55 JUMP JUMPDEST PUSH1 0x0 PUSH1 0x40 MLOAD DUP1 DUP4 SUB DUP2 DUP7 GAS STATICCALL ISZERO DUP1 ISZERO PUSH2 0x3E9 JUMPI RETURNDATASIZE PUSH1 0x0 DUP1 RETURNDATACOPY RETURNDATASIZE PUSH1 0x0 REVERT JUMPDEST POP POP POP POP PUSH1 0x40 MLOAD RETURNDATASIZE PUSH1 0x0 DUP3 RETURNDATACOPY RETURNDATASIZE PUSH1 0x1F NOT PUSH1 0x1F DUP3 ADD AND DUP3 ADD DUP1 PUSH1 0x40 MSTORE POP DUP2 ADD SWAP1 PUSH2 0x412 SWAP2 SWAP1 PUSH2 0x2090 JUMP JUMPDEST SWAP1 POP PUSH1 0x0 DUP2 PUSH1 0x20 ADD MLOAD SWAP1 POP DUP1 DUP7 DUP7 DUP2 MLOAD DUP2 LT PUSH2 0x431 JUMPI PUSH2 0x430 PUSH2 0x1D7C JUMP JUMPDEST JUMPDEST PUSH1 0x20 MUL PUSH1 0x20 ADD ADD DUP2 SWAP1 MSTORE POP DUP5 DUP1 PUSH2 0x447 SWAP1 PUSH2 0x2112 JUMP JUMPDEST SWAP6 POP POP POP POP POP JUMPDEST DUP1 DUP1 PUSH2 0x459 SWAP1 PUSH2 0x2112 JUMP JUMPDEST SWAP2 POP POP PUSH2 0x239 JUMP JUMPDEST POP DUP1 DUP3 MSTORE PUSH1 0x0 DUP2 EQ PUSH2 0x48E JUMPI PUSH1 0x40 MLOAD DUP1 PUSH1 0x40 ADD PUSH1 0x40 MSTORE DUP1 PUSH1 0x1 ISZERO ISZERO DUP2 MSTORE PUSH1 0x20 ADD DUP4 DUP2 MSTORE POP SWAP3 POP POP POP PUSH2 0x4AB JUMP JUMPDEST PUSH1 0x40 MLOAD DUP1 PUSH1 0x40 ADD PUSH1 0x40 MSTORE DUP1 PUSH1 0x0 ISZERO ISZERO DUP2 MSTORE PUSH1 0x20 ADD DUP4 DUP2 MSTORE POP SWAP3 POP POP POP JUMPDEST SWAP2 SWAP1 POP JUMP JUMPDEST PUSH2 0x4B8 PUSH2 0x1092 JUMP JUMPDEST PUSH1 0x0 JUMPDEST PUSH1 0x0 DUP1 SLOAD SWAP1 POP DUP2 LT ISZERO PUSH2 0x6FA JUMPI PUSH2 0x5CE DUP5 PUSH1 0x0 ADD MLOAD PUSH1 0x0 DUP4 DUP2 SLOAD DUP2 LT PUSH2 0x4E4 JUMPI PUSH2 0x4E3 PUSH2 0x1D7C JUMP JUMPDEST JUMPDEST SWAP1 PUSH1 0x0 MSTORE PUSH1 0x20 PUSH1 0x0 KECCAK256 SWAP1 PUSH1 0x4 MUL ADD PUSH1 0x0 ADD PUSH1 0x0 SWAP1 SLOAD SWAP1 PUSH2 0x100 EXP SWAP1 DIV PUSH20 0xFFFFFFFFFFFFFFFFFFFFFFFFFFFFFFFFFFFFFFFF AND DUP6 PUSH1 0x0 ADD MLOAD PUSH1 0x0 DUP6 DUP2 SLOAD DUP2 LT PUSH2 0x52F JUMPI PUSH2 0x52E PUSH2 0x1D7C JUMP JUMPDEST JUMPDEST SWAP1 PUSH1 0x0 MSTORE PUSH1 0x20 PUSH1 0x0 KECCAK256 SWAP1 PUSH1 0x4 MUL ADD PUSH1 0x1 ADD DUP1 SLOAD PUSH2 0x54B SWAP1 PUSH2 0x1DDA JUMP JUMPDEST DUP1 PUSH1 0x1F ADD PUSH1 0x20 DUP1 SWAP2 DIV MUL PUSH1 0x20 ADD PUSH1 0x40 MLOAD SWAP1 DUP2 ADD PUSH1 0x40 MSTORE DUP1 SWAP3 SWAP2 SWAP1 DUP2 DUP2 MSTORE PUSH1 0x20 ADD DUP3 DUP1 SLOAD PUSH2 0x577 SWAP1 PUSH2 0x1DDA JUMP JUMPDEST DUP1 ISZERO PUSH2 0x5C4 JUMPI DUP1 PUSH1 0x1F LT PUSH2 0x599 JUMPI PUSH2 0x100 DUP1 DUP4 SLOAD DIV MUL DUP4 MSTORE SWAP2 PUSH1 0x20 ADD SWAP2 PUSH2 0x5C4 JUMP JUMPDEST DUP3 ADD SWAP2 SWAP1 PUSH1 0x0 MSTORE PUSH1 0x20 PUSH1 0x0 KECCAK256 SWAP1 JUMPDEST DUP2 SLOAD DUP2 MSTORE SWAP1 PUSH1 0x1 ADD SWAP1 PUSH1 0x20 ADD DUP1 DUP4 GT PUSH2 0x5A7 JUMPI DUP3 SWAP1 SUB PUSH1 0x1F AND DUP3 ADD SWAP2 JUMPDEST POP POP POP POP POP PUSH2 0x76A JUMP JUMPDEST ISZERO PUSH2 0x6E7 JUMPI PUSH1 0x40 MLOAD DUP1 PUSH1 0x40 ADD PUSH1 0x40 MSTORE DUP1 PUSH1 0x1 ISZERO ISZERO DUP2 MSTORE PUSH1 0x20 ADD PUSH1 0x0 DUP4 DUP2 SLOAD DUP2 LT PUSH2 0x5FB JUMPI PUSH2 0x5FA PUSH2 0x1D7C JUMP JUMPDEST JUMPDEST SWAP1 PUSH1 0x0 MSTORE PUSH1 0x20 PUSH1 0x0 KECCAK256 SWAP1 PUSH1 0x4 MUL ADD PUSH1 0x3 ADD DUP1 SLOAD DUP1 PUSH1 0x20 MUL PUSH1 0x20 ADD PUSH1 0x40 MLOAD SWAP1 DUP2 ADD PUSH1 0x40 MSTORE DUP1 SWAP3 SWAP2 SWAP1 DUP2 DUP2 MSTORE PUSH1 0x20 ADD PUSH1 0x0 SWAP1 JUMPDEST DUP3 DUP3 LT ISZERO PUSH2 0x6D8 JUMPI DUP4 DUP3 SWAP1 PUSH1 0x0 MSTORE PUSH1 0x20 PUSH1 0x0 KECCAK256 ADD DUP1 SLOAD PUSH2 0x64B SWAP1 PUSH2 0x1DDA JUMP JUMPDEST DUP1 PUSH1 0x1F ADD PUSH1 0x20 DUP1 SWAP2 DIV MUL PUSH1 0x20 ADD PUSH1 0x40 MLOAD SWAP1 DUP2 ADD PUSH1 0x40 MSTORE DUP1 SWAP3 SWAP2 SWAP1 DUP2 DUP2 MSTORE PUSH1 0x20 ADD DUP3 DUP1 SLOAD PUSH2 0x677 SWAP1 PUSH2 0x1DDA JUMP JUMPDEST DUP1 ISZERO PUSH2 0x6C4 JUMPI DUP1 PUSH1 0x1F LT PUSH2 0x699 JUMPI PUSH2 0x100 DUP1 DUP4 SLOAD DIV MUL DUP4 MSTORE SWAP2 PUSH1 0x20 ADD SWAP2 PUSH2 0x6C4 JUMP JUMPDEST DUP3 ADD SWAP2 SWAP1 PUSH1 0x0 MSTORE PUSH1 0x20 PUSH1 0x0 KECCAK256 SWAP1 JUMPDEST DUP2 SLOAD DUP2 MSTORE SWAP1 PUSH1 0x1 ADD SWAP1 PUSH1 0x20 ADD DUP1 DUP4 GT PUSH2 0x6A7 JUMPI DUP3 SWAP1 SUB PUSH1 0x1F AND DUP3 ADD SWAP2 JUMPDEST POP POP POP POP POP DUP2 MSTORE PUSH1 0x20 ADD SWAP1 PUSH1 0x1 ADD SWAP1 PUSH2 0x62C JUMP JUMPDEST POP POP POP POP DUP2 MSTORE POP SWAP2 POP POP PUSH2 0x764 JUMP JUMPDEST DUP1 DUP1 PUSH2 0x6F2 SWAP1 PUSH2 0x2112 JUMP JUMPDEST SWAP2 POP POP PUSH2 0x4BB JUMP JUMPDEST POP PUSH1 0x40 MLOAD DUP1 PUSH1 0x40 ADD PUSH1 0x40 MSTORE DUP1 PUSH1 0x0 ISZERO ISZERO DUP2 MSTORE PUSH1 0x20 ADD PUSH1 0x0 PUSH8 0xFFFFFFFFFFFFFFFF DUP2 GT ISZERO PUSH2 0x72A JUMPI PUSH2 0x729 PUSH2 0x14AE JUMP JUMPDEST JUMPDEST PUSH1 0x40 MLOAD SWAP1 DUP1 DUP3 MSTORE DUP1 PUSH1 0x20 MUL PUSH1 0x20 ADD DUP3 ADD PUSH1 0x40 MSTORE DUP1 ISZERO PUSH2 0x75D JUMPI DUP2 PUSH1 0x20 ADD JUMPDEST PUSH1 0x60 DUP2 MSTORE PUSH1 0x20 ADD SWAP1 PUSH1 0x1 SWAP1 SUB SWAP1 DUP2 PUSH2 0x748 JUMPI SWAP1 POP JUMPDEST POP DUP2 MSTORE POP SWAP1 POP JUMPDEST SWAP3 SWAP2 POP POP JUMP JUMPDEST PUSH1 0x0 DUP5 PUSH20 0xFFFFFFFFFFFFFFFFFFFFFFFFFFFFFFFFFFFFFFFF AND DUP5 PUSH20 0xFFFFFFFFFFFFFFFFFFFFFFFFFFFFFFFFFFFFFFFF AND EQ DUP1 ISZERO PUSH2 0x7F2 JUMPI POP DUP3 PUSH1 0x40 MLOAD PUSH1 0x20 ADD PUSH2 0x7B3 SWAP2 SWAP1 PUSH2 0x2196 JUMP JUMPDEST PUSH1 0x40 MLOAD PUSH1 0x20 DUP2 DUP4 SUB SUB DUP2 MSTORE SWAP1 PUSH1 0x40 MSTORE DUP1 MLOAD SWAP1 PUSH1 0x20 ADD KECCAK256 DUP3 PUSH1 0x40 MLOAD PUSH1 0x20 ADD PUSH2 0x7DA SWAP2 SWAP1 PUSH2 0x2196 JUMP JUMPDEST PUSH1 0x40 MLOAD PUSH1 0x20 DUP2 DUP4 SUB SUB DUP2 MSTORE SWAP1 PUSH1 0x40 MSTORE DUP1 MLOAD SWAP1 PUSH1 0x20 ADD KECCAK256 EQ JUMPDEST SWAP1 POP SWAP5 SWAP4 POP POP POP POP JUMP JUMPDEST PUSH2 0x804 PUSH2 0x10AE JUMP JUMPDEST PUSH1 0x0 JUMPDEST PUSH1 0x0 DUP1 SLOAD SWAP1 POP DUP2 LT ISZERO PUSH2 0x9FF JUMPI PUSH2 0x91A DUP5 PUSH1 0x0 ADD MLOAD PUSH1 0x0 DUP4 DUP2 SLOAD DUP2 LT PUSH2 0x830 JUMPI PUSH2 0x82F PUSH2 0x1D7C JUMP JUMPDEST JUMPDEST SWAP1 PUSH1 0x0 MSTORE PUSH1 0x20 PUSH1 0x0 KECCAK256 SWAP1 PUSH1 0x4 MUL ADD PUSH1 0x0 ADD PUSH1 0x0 SWAP1 SLOAD SWAP1 PUSH2 0x100 EXP SWAP1 DIV PUSH20 0xFFFFFFFFFFFFFFFFFFFFFFFFFFFFFFFFFFFFFFFF AND DUP6 PUSH1 0x0 ADD MLOAD PUSH1 0x0 DUP6 DUP2 SLOAD DUP2 LT PUSH2 0x87B JUMPI PUSH2 0x87A PUSH2 0x1D7C JUMP JUMPDEST JUMPDEST SWAP1 PUSH1 0x0 MSTORE PUSH1 0x20 PUSH1 0x0 KECCAK256 SWAP1 PUSH1 0x4 MUL ADD PUSH1 0x1 ADD DUP1 SLOAD PUSH2 0x897 SWAP1 PUSH2 0x1DDA JUMP JUMPDEST DUP1 PUSH1 0x1F ADD PUSH1 0x20 DUP1 SWAP2 DIV MUL PUSH1 0x20 ADD PUSH1 0x40 MLOAD SWAP1 DUP2 ADD PUSH1 0x40 MSTORE DUP1 SWAP3 SWAP2 SWAP1 DUP2 DUP2 MSTORE PUSH1 0x20 ADD DUP3 DUP1 SLOAD PUSH2 0x8C3 SWAP1 PUSH2 0x1DDA JUMP JUMPDEST DUP1 ISZERO PUSH2 0x910 JUMPI DUP1 PUSH1 0x1F LT PUSH2 0x8E5 JUMPI PUSH2 0x100 DUP1 DUP4 SLOAD DIV MUL DUP4 MSTORE SWAP2 PUSH1 0x20 ADD SWAP2 PUSH2 0x910 JUMP JUMPDEST DUP3 ADD SWAP2 SWAP1 PUSH1 0x0 MSTORE PUSH1 0x20 PUSH1 0x0 KECCAK256 SWAP1 JUMPDEST DUP2 SLOAD DUP2 MSTORE SWAP1 PUSH1 0x1 ADD SWAP1 PUSH1 0x20 ADD DUP1 DUP4 GT PUSH2 0x8F3 JUMPI DUP3 SWAP1 SUB PUSH1 0x1F AND DUP3 ADD SWAP2 JUMPDEST POP POP POP POP POP PUSH2 0x76A JUMP JUMPDEST ISZERO PUSH2 0x9EC JUMPI PUSH1 0x40 MLOAD DUP1 PUSH1 0x40 ADD PUSH1 0x40 MSTORE DUP1 PUSH1 0x1 ISZERO ISZERO DUP2 MSTORE PUSH1 0x20 ADD PUSH1 0x0 DUP4 DUP2 SLOAD DUP2 LT PUSH2 0x947 JUMPI PUSH2 0x946 PUSH2 0x1D7C JUMP JUMPDEST JUMPDEST SWAP1 PUSH1 0x0 MSTORE PUSH1 0x20 PUSH1 0x0 KECCAK256 SWAP1 PUSH1 0x4 MUL ADD PUSH1 0x2 ADD DUP1 SLOAD PUSH2 0x963 SWAP1 PUSH2 0x1DDA JUMP JUMPDEST DUP1 PUSH1 0x1F ADD PUSH1 0x20 DUP1 SWAP2 DIV MUL PUSH1 0x20 ADD PUSH1 0x40 MLOAD SWAP1 DUP2 ADD PUSH1 0x40 MSTORE DUP1 SWAP3 SWAP2 SWAP1 DUP2 DUP2 MSTORE PUSH1 0x20 ADD DUP3 DUP1 SLOAD PUSH2 0x98F SWAP1 PUSH2 0x1DDA JUMP JUMPDEST DUP1 ISZERO PUSH2 0x9DC JUMPI DUP1 PUSH1 0x1F LT PUSH2 0x9B1 JUMPI PUSH2 0x100 DUP1 DUP4 SLOAD DIV MUL DUP4 MSTORE SWAP2 PUSH1 0x20 ADD SWAP2 PUSH2 0x9DC JUMP JUMPDEST DUP3 ADD SWAP2 SWAP1 PUSH1 0x0 MSTORE PUSH1 0x20 PUSH1 0x0 KECCAK256 SWAP1 JUMPDEST DUP2 SLOAD DUP2 MSTORE SWAP1 PUSH1 0x1 ADD SWAP1 PUSH1 0x20 ADD DUP1 DUP4 GT PUSH2 0x9BF JUMPI DUP3 SWAP1 SUB PUSH1 0x1F AND DUP3 ADD SWAP2 JUMPDEST POP POP POP POP POP DUP2 MSTORE POP SWAP2 POP POP PUSH2 0xA2A JUMP JUMPDEST DUP1 DUP1 PUSH2 0x9F7 SWAP1 PUSH2 0x2112 JUMP JUMPDEST SWAP2 POP POP PUSH2 0x807 JUMP JUMPDEST POP PUSH1 0x40 MLOAD DUP1 PUSH1 0x40 ADD PUSH1 0x40 MSTORE DUP1 PUSH1 0x0 ISZERO ISZERO DUP2 MSTORE PUSH1 0x20 ADD PUSH1 0x40 MLOAD DUP1 PUSH1 0x20 ADD PUSH1 0x40 MSTORE DUP1 PUSH1 0x0 DUP2 MSTORE POP DUP2 MSTORE POP SWAP1 POP JUMPDEST SWAP3 SWAP2 POP POP JUMP JUMPDEST PUSH1 0x0 PUSH2 0xA3C DUP6 DUP6 PUSH2 0xBD3 JUMP JUMPDEST SWAP1 POP DUP1 ISZERO PUSH2 0xA4A JUMPI POP PUSH2 0xA58 JUMP JUMPDEST PUSH2 0xA56 DUP6 DUP6 DUP6 DUP6 PUSH2 0xF29 JUMP JUMPDEST POP JUMPDEST POP POP POP POP JUMP JUMPDEST PUSH1 0x0 JUMPDEST PUSH1 0x0 DUP1 SLOAD SWAP1 POP DUP2 LT ISZERO PUSH2 0xBCC JUMPI PUSH2 0xB74 DUP5 PUSH1 0x0 ADD MLOAD PUSH1 0x0 DUP4 DUP2 SLOAD DUP2 LT PUSH2 0xA8A JUMPI PUSH2 0xA89 PUSH2 0x1D7C JUMP JUMPDEST JUMPDEST SWAP1 PUSH1 0x0 MSTORE PUSH1 0x20 PUSH1 0x0 KECCAK256 SWAP1 PUSH1 0x4 MUL ADD PUSH1 0x0 ADD PUSH1 0x0 SWAP1 SLOAD SWAP1 PUSH2 0x100 EXP SWAP1 DIV PUSH20 0xFFFFFFFFFFFFFFFFFFFFFFFFFFFFFFFFFFFFFFFF AND DUP6 PUSH1 0x0 ADD MLOAD PUSH1 0x0 DUP6 DUP2 SLOAD DUP2 LT PUSH2 0xAD5 JUMPI PUSH2 0xAD4 PUSH2 0x1D7C JUMP JUMPDEST JUMPDEST SWAP1 PUSH1 0x0 MSTORE PUSH1 0x20 PUSH1 0x0 KECCAK256 SWAP1 PUSH1 0x4 MUL ADD PUSH1 0x1 ADD DUP1 SLOAD PUSH2 0xAF1 SWAP1 PUSH2 0x1DDA JUMP JUMPDEST DUP1 PUSH1 0x1F ADD PUSH1 0x20 DUP1 SWAP2 DIV MUL PUSH1 0x20 ADD PUSH1 0x40 MLOAD SWAP1 DUP2 ADD PUSH1 0x40 MSTORE DUP1 SWAP3 SWAP2 SWAP1 DUP2 DUP2 MSTORE PUSH1 0x20 ADD DUP3 DUP1 SLOAD PUSH2 0xB1D SWAP1 PUSH2 0x1DDA JUMP JUMPDEST DUP1 ISZERO PUSH2 0xB6A JUMPI DUP1 PUSH1 0x1F LT PUSH2 0xB3F JUMPI PUSH2 0x100 DUP1 DUP4 SLOAD DIV MUL DUP4 MSTORE SWAP2 PUSH1 0x20 ADD SWAP2 PUSH2 0xB6A JUMP JUMPDEST DUP3 ADD SWAP2 SWAP1 PUSH1 0x0 MSTORE PUSH1 0x20 PUSH1 0x0 KECCAK256 SWAP1 JUMPDEST DUP2 SLOAD DUP2 MSTORE SWAP1 PUSH1 0x1 ADD SWAP1 PUSH1 0x20 ADD DUP1 DUP4 GT PUSH2 0xB4D JUMPI DUP3 SWAP1 SUB PUSH1 0x1F AND DUP3 ADD SWAP2 JUMPDEST POP POP POP POP POP PUSH2 0x76A JUMP JUMPDEST ISZERO PUSH2 0xBB9 JUMPI DUP2 PUSH1 0x0 DUP3 DUP2 SLOAD DUP2 LT PUSH2 0xB8E JUMPI PUSH2 0xB8D PUSH2 0x1D7C JUMP JUMPDEST JUMPDEST SWAP1 PUSH1 0x0 MSTORE PUSH1 0x20 PUSH1 0x0 KECCAK256 SWAP1 PUSH1 0x4 MUL ADD PUSH1 0x3 ADD SWAP1 DUP1 MLOAD SWAP1 PUSH1 0x20 ADD SWAP1 PUSH2 0xBB2 SWAP3 SWAP2 SWAP1 PUSH2 0x10CA JUMP JUMPDEST POP POP PUSH2 0xBCE JUMP JUMPDEST DUP1 DUP1 PUSH2 0xBC4 SWAP1 PUSH2 0x2112 JUMP JUMPDEST SWAP2 POP POP PUSH2 0xA61 JUMP JUMPDEST POP JUMPDEST POP POP POP JUMP JUMPDEST PUSH1 0x0 DUP1 PUSH1 0x0 SWAP1 POP JUMPDEST PUSH1 0x0 DUP1 SLOAD SWAP1 POP DUP2 LT ISZERO PUSH2 0xD10 JUMPI PUSH2 0xCEE DUP5 PUSH1 0x0 ADD MLOAD PUSH1 0x0 DUP4 DUP2 SLOAD DUP2 LT PUSH2 0xC04 JUMPI PUSH2 0xC03 PUSH2 0x1D7C JUMP JUMPDEST JUMPDEST SWAP1 PUSH1 0x0 MSTORE PUSH1 0x20 PUSH1 0x0 KECCAK256 SWAP1 PUSH1 0x4 MUL ADD PUSH1 0x0 ADD PUSH1 0x0 SWAP1 SLOAD SWAP1 PUSH2 0x100 EXP SWAP1 DIV PUSH20 0xFFFFFFFFFFFFFFFFFFFFFFFFFFFFFFFFFFFFFFFF AND DUP6 PUSH1 0x0 ADD MLOAD PUSH1 0x0 DUP6 DUP2 SLOAD DUP2 LT PUSH2 0xC4F JUMPI PUSH2 0xC4E PUSH2 0x1D7C JUMP JUMPDEST JUMPDEST SWAP1 PUSH1 0x0 MSTORE PUSH1 0x20 PUSH1 0x0 KECCAK256 SWAP1 PUSH1 0x4 MUL ADD PUSH1 0x1 ADD DUP1 SLOAD PUSH2 0xC6B SWAP1 PUSH2 0x1DDA JUMP JUMPDEST DUP1 PUSH1 0x1F ADD PUSH1 0x20 DUP1 SWAP2 DIV MUL PUSH1 0x20 ADD PUSH1 0x40 MLOAD SWAP1 DUP2 ADD PUSH1 0x40 MSTORE DUP1 SWAP3 SWAP2 SWAP1 DUP2 DUP2 MSTORE PUSH1 0x20 ADD DUP3 DUP1 SLOAD PUSH2 0xC97 SWAP1 PUSH2 0x1DDA JUMP JUMPDEST DUP1 ISZERO PUSH2 0xCE4 JUMPI DUP1 PUSH1 0x1F LT PUSH2 0xCB9 JUMPI PUSH2 0x100 DUP1 DUP4 SLOAD DIV MUL DUP4 MSTORE SWAP2 PUSH1 0x20 ADD SWAP2 PUSH2 0xCE4 JUMP JUMPDEST DUP3 ADD SWAP2 SWAP1 PUSH1 0x0 MSTORE PUSH1 0x20 PUSH1 0x0 KECCAK256 SWAP1 JUMPDEST DUP2 SLOAD DUP2 MSTORE SWAP1 PUSH1 0x1 ADD SWAP1 PUSH1 0x20 ADD DUP1 DUP4 GT PUSH2 0xCC7 JUMPI DUP3 SWAP1 SUB PUSH1 0x1F AND DUP3 ADD SWAP2 JUMPDEST POP POP POP POP POP PUSH2 0x76A JUMP JUMPDEST ISZERO PUSH2 0xCFD JUMPI PUSH1 0x1 SWAP2 POP POP PUSH2 0xD16 JUMP JUMPDEST DUP1 DUP1 PUSH2 0xD08 SWAP1 PUSH2 0x2112 JUMP JUMPDEST SWAP2 POP POP PUSH2 0xBDB JUMP JUMPDEST POP PUSH1 0x0 SWAP1 POP JUMPDEST SWAP3 SWAP2 POP POP JUMP JUMPDEST PUSH1 0x0 PUSH2 0xD28 DUP5 DUP5 PUSH2 0xBD3 JUMP JUMPDEST SWAP1 POP DUP1 ISZERO PUSH2 0xD36 JUMPI POP PUSH2 0xF24 JUMP JUMPDEST PUSH1 0x0 PUSH1 0x3 PUSH8 0xFFFFFFFFFFFFFFFF DUP2 GT ISZERO PUSH2 0xD53 JUMPI PUSH2 0xD52 PUSH2 0x14AE JUMP JUMPDEST JUMPDEST PUSH1 0x40 MLOAD SWAP1 DUP1 DUP3 MSTORE DUP1 PUSH1 0x20 MUL PUSH1 0x20 ADD DUP3 ADD PUSH1 0x40 MSTORE DUP1 ISZERO PUSH2 0xD86 JUMPI DUP2 PUSH1 0x20 ADD JUMPDEST PUSH1 0x60 DUP2 MSTORE PUSH1 0x20 ADD SWAP1 PUSH1 0x1 SWAP1 SUB SWAP1 DUP2 PUSH2 0xD71 JUMPI SWAP1 POP JUMPDEST POP SWAP1 POP PUSH1 0x40 MLOAD DUP1 PUSH1 0x40 ADD PUSH1 0x40 MSTORE DUP1 PUSH1 0x8 DUP2 MSTORE PUSH1 0x20 ADD PUSH32 0x646F776E6C6F6164000000000000000000000000000000000000000000000000 DUP2 MSTORE POP DUP2 PUSH1 0x0 DUP2 MLOAD DUP2 LT PUSH2 0xDD3 JUMPI PUSH2 0xDD2 PUSH2 0x1D7C JUMP JUMPDEST JUMPDEST PUSH1 0x20 MUL PUSH1 0x20 ADD ADD DUP2 SWAP1 MSTORE POP PUSH1 0x40 MLOAD DUP1 PUSH1 0x40 ADD PUSH1 0x40 MSTORE DUP1 PUSH1 0x6 DUP2 MSTORE PUSH1 0x20 ADD PUSH32 0x64656C6574650000000000000000000000000000000000000000000000000000 DUP2 MSTORE POP DUP2 PUSH1 0x1 DUP2 MLOAD DUP2 LT PUSH2 0xE28 JUMPI PUSH2 0xE27 PUSH2 0x1D7C JUMP JUMPDEST JUMPDEST PUSH1 0x20 MUL PUSH1 0x20 ADD ADD DUP2 SWAP1 MSTORE POP PUSH1 0x40 MLOAD DUP1 PUSH1 0x40 ADD PUSH1 0x40 MSTORE DUP1 PUSH1 0x5 DUP2 MSTORE PUSH1 0x20 ADD PUSH32 0x7368617265000000000000000000000000000000000000000000000000000000 DUP2 MSTORE POP DUP2 PUSH1 0x2 DUP2 MLOAD DUP2 LT PUSH2 0xE7D JUMPI PUSH2 0xE7C PUSH2 0x1D7C JUMP JUMPDEST JUMPDEST PUSH1 0x20 MUL PUSH1 0x20 ADD ADD DUP2 SWAP1 MSTORE POP PUSH2 0xE94 DUP6 DUP6 DUP6 DUP5 PUSH2 0xF29 JUMP JUMPDEST PUSH1 0x1 PUSH1 0x0 SWAP1 SLOAD SWAP1 PUSH2 0x100 EXP SWAP1 DIV PUSH20 0xFFFFFFFFFFFFFFFFFFFFFFFFFFFFFFFFFFFFFFFF AND PUSH20 0xFFFFFFFFFFFFFFFFFFFFFFFFFFFFFFFFFFFFFFFF AND PUSH4 0x9AA7F418 DUP6 PUSH1 0x40 MLOAD DUP3 PUSH4 0xFFFFFFFF AND PUSH1 0xE0 SHL DUP2 MSTORE PUSH1 0x4 ADD PUSH2 0xEEF SWAP2 SWAP1 PUSH2 0x2238 JUMP JUMPDEST PUSH1 0x0 PUSH1 0x40 MLOAD DUP1 DUP4 SUB DUP2 PUSH1 0x0 DUP8 DUP1 EXTCODESIZE ISZERO DUP1 ISZERO PUSH2 0xF09 JUMPI PUSH1 0x0 DUP1 REVERT JUMPDEST POP GAS CALL ISZERO DUP1 ISZERO PUSH2 0xF1D JUMPI RETURNDATASIZE PUSH1 0x0 DUP1 RETURNDATACOPY RETURNDATASIZE PUSH1 0x0 REVERT JUMPDEST POP POP POP POP POP POP JUMPDEST POP POP POP JUMP JUMPDEST PUSH1 0x0 PUSH1 0x40 MLOAD DUP1 PUSH1 0x80 ADD PUSH1 0x40 MSTORE DUP1 DUP7 PUSH1 0x0 ADD MLOAD PUSH20 0xFFFFFFFFFFFFFFFFFFFFFFFFFFFFFFFFFFFFFFFF AND DUP2 MSTORE PUSH1 0x20 ADD DUP6 PUSH1 0x0 ADD MLOAD DUP2 MSTORE PUSH1 0x20 ADD DUP5 DUP2 MSTORE PUSH1 0x20 ADD DUP4 DUP2 MSTORE POP SWAP1 POP PUSH1 0x0 DUP2 SWAP1 DUP1 PUSH1 0x1 DUP2 SLOAD ADD DUP1 DUP3 SSTORE DUP1 SWAP2 POP POP PUSH1 0x1 SWAP1 SUB SWAP1 PUSH1 0x0 MSTORE PUSH1 0x20 PUSH1 0x0 KECCAK256 SWAP1 PUSH1 0x4 MUL ADD PUSH1 0x0 SWAP1 SWAP2 SWAP1 SWAP2 SWAP1 SWAP2 POP PUSH1 0x0 DUP3 ADD MLOAD DUP2 PUSH1 0x0 ADD PUSH1 0x0 PUSH2 0x100 EXP DUP2 SLOAD DUP2 PUSH20 0xFFFFFFFFFFFFFFFFFFFFFFFFFFFFFFFFFFFFFFFF MUL NOT AND SWAP1 DUP4 PUSH20 0xFFFFFFFFFFFFFFFFFFFFFFFFFFFFFFFFFFFFFFFF AND MUL OR SWAP1 SSTORE POP PUSH1 0x20 DUP3 ADD MLOAD DUP2 PUSH1 0x1 ADD SWAP1 DUP2 PUSH2 0xFF4 SWAP2 SWAP1 PUSH2 0x2406 JUMP JUMPDEST POP PUSH1 0x40 DUP3 ADD MLOAD DUP2 PUSH1 0x2 ADD SWAP1 DUP2 PUSH2 0x100A SWAP2 SWAP1 PUSH2 0x2406 JUMP JUMPDEST POP PUSH1 0x60 DUP3 ADD MLOAD DUP2 PUSH1 0x3 ADD SWAP1 DUP1 MLOAD SWAP1 PUSH1 0x20 ADD SWAP1 PUSH2 0x1027 SWAP3 SWAP2 SWAP1 PUSH2 0x10CA JUMP JUMPDEST POP POP POP POP POP POP POP POP JUMP JUMPDEST PUSH1 0x40 MLOAD DUP1 PUSH1 0x40 ADD PUSH1 0x40 MSTORE DUP1 PUSH1 0x0 ISZERO ISZERO DUP2 MSTORE PUSH1 0x20 ADD PUSH1 0x60 DUP2 MSTORE POP SWAP1 JUMP JUMPDEST PUSH1 0x40 MLOAD DUP1 PUSH1 0xA0 ADD PUSH1 0x40 MSTORE DUP1 PUSH1 0x60 DUP2 MSTORE PUSH1 0x20 ADD PUSH1 0x60 DUP2 MSTORE PUSH1 0x20 ADD PUSH1 0x0 PUSH20 0xFFFFFFFFFFFFFFFFFFFFFFFFFFFFFFFFFFFFFFFF AND DUP2 MSTORE PUSH1 0x20 ADD PUSH1 0x60 DUP2 MSTORE PUSH1 0x20 ADD PUSH1 0x60 DUP2 MSTORE POP SWAP1 JUMP JUMPDEST PUSH1 0x40 MLOAD DUP1 PUSH1 0x40 ADD PUSH1 0x40 MSTORE DUP1 PUSH1 0x0 ISZERO ISZERO DUP2 MSTORE PUSH1 0x20 ADD PUSH1 0x60 DUP2 MSTORE POP SWAP1 JUMP JUMPDEST PUSH1 0x40 MLOAD DUP1 PUSH1 0x40 ADD PUSH1 0x40 MSTORE DUP1 PUSH1 0x0 ISZERO ISZERO DUP2 MSTORE PUSH1 0x20 ADD PUSH1 0x60 DUP2 MSTORE POP SWAP1 JUMP JUMPDEST DUP3 DUP1 SLOAD DUP3 DUP3 SSTORE SWAP1 PUSH1 0x0 MSTORE PUSH1 0x20 PUSH1 0x0 KECCAK256 SWAP1 DUP2 ADD SWAP3 DUP3 ISZERO PUSH2 0x1112 JUMPI SWAP2 PUSH1 0x20 MUL DUP3 ADD JUMPDEST DUP3 DUP2 GT ISZERO PUSH2 0x1111 JUMPI DUP3 MLOAD DUP3 SWAP1 DUP2 PUSH2 0x1101 SWAP2 SWAP1 PUSH2 0x2406 JUMP JUMPDEST POP SWAP2 PUSH1 0x20 ADD SWAP2 SWAP1 PUSH1 0x1 ADD SWAP1 PUSH2 0x10EA JUMP JUMPDEST JUMPDEST POP SWAP1 POP PUSH2 0x111F SWAP2 SWAP1 PUSH2 0x1123 JUMP JUMPDEST POP SWAP1 JUMP JUMPDEST JUMPDEST DUP1 DUP3 GT ISZERO PUSH2 0x1143 JUMPI PUSH1 0x0 DUP2 DUP2 PUSH2 0x113A SWAP2 SWAP1 PUSH2 0x1147 JUMP JUMPDEST POP PUSH1 0x1 ADD PUSH2 0x1124 JUMP JUMPDEST POP SWAP1 JUMP JUMPDEST POP DUP1 SLOAD PUSH2 0x1153 SWAP1 PUSH2 0x1DDA JUMP JUMPDEST PUSH1 0x0 DUP3 SSTORE DUP1 PUSH1 0x1F LT PUSH2 0x1165 JUMPI POP PUSH2 0x1184 JUMP JUMPDEST PUSH1 0x1F ADD PUSH1 0x20 SWAP1 DIV SWAP1 PUSH1 0x0 MSTORE PUSH1 0x20 PUSH1 0x0 KECCAK256 SWAP1 DUP2 ADD SWAP1 PUSH2 0x1183 SWAP2 SWAP1 PUSH2 0x1187 JUMP JUMPDEST JUMPDEST POP JUMP JUMPDEST JUMPDEST DUP1 DUP3 GT ISZERO PUSH2 0x11A0 JUMPI PUSH1 0x0 DUP2 PUSH1 0x0 SWAP1 SSTORE POP PUSH1 0x1 ADD PUSH2 0x1188 JUMP JUMPDEST POP SWAP1 JUMP JUMPDEST PUSH1 0x0 PUSH1 0x40 MLOAD SWAP1 POP SWAP1 JUMP JUMPDEST PUSH1 0x0 DUP1 REVERT JUMPDEST PUSH1 0x0 DUP1 REVERT JUMPDEST PUSH1 0x0 PUSH20 0xFFFFFFFFFFFFFFFFFFFFFFFFFFFFFFFFFFFFFFFF DUP3 AND SWAP1 POP SWAP2 SWAP1 POP JUMP JUMPDEST PUSH1 0x0 PUSH2 0x11E3 DUP3 PUSH2 0x11B8 JUMP JUMPDEST SWAP1 POP SWAP2 SWAP1 POP JUMP JUMPDEST PUSH2 0x11F3 DUP2 PUSH2 0x11D8 JUMP JUMPDEST DUP2 EQ PUSH2 0x11FE JUMPI PUSH1 0x0 DUP1 REVERT JUMPDEST POP JUMP JUMPDEST PUSH1 0x0 DUP2 CALLDATALOAD SWAP1 POP PUSH2 0x1210 DUP2 PUSH2 0x11EA JUMP JUMPDEST SWAP3 SWAP2 POP POP JUMP JUMPDEST PUSH1 0x0 PUSH1 0x20 DUP3 DUP5 SUB SLT ISZERO PUSH2 0x122C JUMPI PUSH2 0x122B PUSH2 0x11AE JUMP JUMPDEST JUMPDEST PUSH1 0x0 PUSH2 0x123A DUP5 DUP3 DUP6 ADD PUSH2 0x1201 JUMP JUMPDEST SWAP2 POP POP SWAP3 SWAP2 POP POP JUMP JUMPDEST PUSH1 0x0 DUP2 ISZERO ISZERO SWAP1 POP SWAP2 SWAP1 POP JUMP JUMPDEST PUSH2 0x1258 DUP2 PUSH2 0x1243 JUMP JUMPDEST DUP3 MSTORE POP POP JUMP JUMPDEST PUSH1 0x0 DUP2 MLOAD SWAP1 POP SWAP2 SWAP1 POP JUMP JUMPDEST PUSH1 0x0 DUP3 DUP3 MSTORE PUSH1 0x20 DUP3 ADD SWAP1 POP SWAP3 SWAP2 POP POP JUMP JUMPDEST PUSH1 0x0 DUP2 SWAP1 POP PUSH1 0x20 DUP3 ADD SWAP1 POP SWAP2 SWAP1 POP JUMP JUMPDEST PUSH1 0x0 DUP2 MLOAD SWAP1 POP SWAP2 SWAP1 POP JUMP JUMPDEST PUSH1 0x0 DUP3 DUP3 MSTORE PUSH1 0x20 DUP3 ADD SWAP1 POP SWAP3 SWAP2 POP POP JUMP JUMPDEST PUSH1 0x0 JUMPDEST DUP4 DUP2 LT ISZERO PUSH2 0x12C4 JUMPI DUP1 DUP3 ADD MLOAD DUP2 DUP5 ADD MSTORE PUSH1 0x20 DUP2 ADD SWAP1 POP PUSH2 0x12A9 JUMP JUMPDEST PUSH1 0x0 DUP5 DUP5 ADD MSTORE POP POP POP POP JUMP JUMPDEST PUSH1 0x0 PUSH1 0x1F NOT PUSH1 0x1F DUP4 ADD AND SWAP1 POP SWAP2 SWAP1 POP JUMP JUMPDEST PUSH1 0x0 PUSH2 0x12EC DUP3 PUSH2 0x128A JUMP JUMPDEST PUSH2 0x12F6 DUP2 DUP6 PUSH2 0x1295 JUMP JUMPDEST SWAP4 POP PUSH2 0x1306 DUP2 DUP6 PUSH1 0x20 DUP7 ADD PUSH2 0x12A6 JUMP JUMPDEST PUSH2 0x130F DUP2 PUSH2 0x12D0 JUMP JUMPDEST DUP5 ADD SWAP2 POP POP SWAP3 SWAP2 POP POP JUMP JUMPDEST PUSH2 0x1323 DUP2 PUSH2 0x11D8 JUMP JUMPDEST DUP3 MSTORE POP POP JUMP JUMPDEST PUSH1 0x0 PUSH1 0xA0 DUP4 ADD PUSH1 0x0 DUP4 ADD MLOAD DUP5 DUP3 SUB PUSH1 0x0 DUP7 ADD MSTORE PUSH2 0x1346 DUP3 DUP3 PUSH2 0x12E1 JUMP JUMPDEST SWAP2 POP POP PUSH1 0x20 DUP4 ADD MLOAD DUP5 DUP3 SUB PUSH1 0x20 DUP7 ADD MSTORE PUSH2 0x1360 DUP3 DUP3 PUSH2 0x12E1 JUMP JUMPDEST SWAP2 POP POP PUSH1 0x40 DUP4 ADD MLOAD PUSH2 0x1375 PUSH1 0x40 DUP7 ADD DUP3 PUSH2 0x131A JUMP JUMPDEST POP PUSH1 0x60 DUP4 ADD MLOAD DUP5 DUP3 SUB PUSH1 0x60 DUP7 ADD MSTORE PUSH2 0x138D DUP3 DUP3 PUSH2 0x12E1 JUMP JUMPDEST SWAP2 POP POP PUSH1 0x80 DUP4 ADD MLOAD DUP5 DUP3 SUB PUSH1 0x80 DUP7 ADD MSTORE PUSH2 0x13A7 DUP3 DUP3 PUSH2 0x12E1 JUMP JUMPDEST SWAP2 POP POP DUP1 SWAP2 POP POP SWAP3 SWAP2 POP POP JUMP JUMPDEST PUSH1 0x0 PUSH2 0x13C0 DUP4 DUP4 PUSH2 0x1329 JUMP JUMPDEST SWAP1 POP SWAP3 SWAP2 POP POP JUMP JUMPDEST PUSH1 0x0 PUSH1 0x20 DUP3 ADD SWAP1 POP SWAP2 SWAP1 POP JUMP JUMPDEST PUSH1 0x0 PUSH2 0x13E0 DUP3 PUSH2 0x125E JUMP JUMPDEST PUSH2 0x13EA DUP2 DUP6 PUSH2 0x1269 JUMP JUMPDEST SWAP4 POP DUP4 PUSH1 0x20 DUP3 MUL DUP6 ADD PUSH2 0x13FC DUP6 PUSH2 0x127A JUMP JUMPDEST DUP1 PUSH1 0x0 JUMPDEST DUP6 DUP2 LT ISZERO PUSH2 0x1438 JUMPI DUP5 DUP5 SUB DUP10 MSTORE DUP2 MLOAD PUSH2 0x1419 DUP6 DUP3 PUSH2 0x13B4 JUMP JUMPDEST SWAP5 POP PUSH2 0x1424 DUP4 PUSH2 0x13C8 JUMP JUMPDEST SWAP3 POP PUSH1 0x20 DUP11 ADD SWAP10 POP POP PUSH1 0x1 DUP2 ADD SWAP1 POP PUSH2 0x1400 JUMP JUMPDEST POP DUP3 SWAP8 POP DUP8 SWAP6 POP POP POP POP POP POP SWAP3 SWAP2 POP POP JUMP JUMPDEST PUSH1 0x0 PUSH1 0x40 DUP4 ADD PUSH1 0x0 DUP4 ADD MLOAD PUSH2 0x1462 PUSH1 0x0 DUP7 ADD DUP3 PUSH2 0x124F JUMP JUMPDEST POP PUSH1 0x20 DUP4 ADD MLOAD DUP5 DUP3 SUB PUSH1 0x20 DUP7 ADD MSTORE PUSH2 0x147A DUP3 DUP3 PUSH2 0x13D5 JUMP JUMPDEST SWAP2 POP POP DUP1 SWAP2 POP POP SWAP3 SWAP2 POP POP JUMP JUMPDEST PUSH1 0x0 PUSH1 0x20 DUP3 ADD SWAP1 POP DUP2 DUP2 SUB PUSH1 0x0 DUP4 ADD MSTORE PUSH2 0x14A1 DUP2 DUP5 PUSH2 0x144A JUMP JUMPDEST SWAP1 POP SWAP3 SWAP2 POP POP JUMP JUMPDEST PUSH1 0x0 DUP1 REVERT JUMPDEST PUSH32 0x4E487B7100000000000000000000000000000000000000000000000000000000 PUSH1 0x0 MSTORE PUSH1 0x41 PUSH1 0x4 MSTORE PUSH1 0x24 PUSH1 0x0 REVERT JUMPDEST PUSH2 0x14E6 DUP3 PUSH2 0x12D0 JUMP JUMPDEST DUP2 ADD DUP2 DUP2 LT PUSH8 0xFFFFFFFFFFFFFFFF DUP3 GT OR ISZERO PUSH2 0x1505 JUMPI PUSH2 0x1504 PUSH2 0x14AE JUMP JUMPDEST JUMPDEST DUP1 PUSH1 0x40 MSTORE POP POP POP JUMP JUMPDEST PUSH1 0x0 PUSH2 0x1518 PUSH2 0x11A4 JUMP JUMPDEST SWAP1 POP PUSH2 0x1524 DUP3 DUP3 PUSH2 0x14DD JUMP JUMPDEST SWAP2 SWAP1 POP JUMP JUMPDEST PUSH1 0x0 DUP1 REVERT JUMPDEST PUSH1 0x0 DUP1 REVERT JUMPDEST PUSH1 0x0 DUP1 REVERT JUMPDEST PUSH1 0x0 PUSH8 0xFFFFFFFFFFFFFFFF DUP3 GT ISZERO PUSH2 0x1553 JUMPI PUSH2 0x1552 PUSH2 0x14AE JUMP JUMPDEST JUMPDEST PUSH2 0x155C DUP3 PUSH2 0x12D0 JUMP JUMPDEST SWAP1 POP PUSH1 0x20 DUP2 ADD SWAP1 POP SWAP2 SWAP1 POP JUMP JUMPDEST DUP3 DUP2 DUP4 CALLDATACOPY PUSH1 0x0 DUP4 DUP4 ADD MSTORE POP POP POP JUMP JUMPDEST PUSH1 0x0 PUSH2 0x158B PUSH2 0x1586 DUP5 PUSH2 0x1538 JUMP JUMPDEST PUSH2 0x150E JUMP JUMPDEST SWAP1 POP DUP3 DUP2 MSTORE PUSH1 0x20 DUP2 ADD DUP5 DUP5 DUP5 ADD GT ISZERO PUSH2 0x15A7 JUMPI PUSH2 0x15A6 PUSH2 0x1533 JUMP JUMPDEST JUMPDEST PUSH2 0x15B2 DUP5 DUP3 DUP6 PUSH2 0x1569 JUMP JUMPDEST POP SWAP4 SWAP3 POP POP POP JUMP JUMPDEST PUSH1 0x0 DUP3 PUSH1 0x1F DUP4 ADD SLT PUSH2 0x15CF JUMPI PUSH2 0x15CE PUSH2 0x152E JUMP JUMPDEST JUMPDEST DUP2 CALLDATALOAD PUSH2 0x15DF DUP5 DUP3 PUSH1 0x20 DUP7 ADD PUSH2 0x1578 JUMP JUMPDEST SWAP2 POP POP SWAP3 SWAP2 POP POP JUMP JUMPDEST PUSH1 0x0 PUSH1 0x80 DUP3 DUP5 SUB SLT ISZERO PUSH2 0x15FE JUMPI PUSH2 0x15FD PUSH2 0x14A9 JUMP JUMPDEST JUMPDEST PUSH2 0x1608 PUSH1 0x80 PUSH2 0x150E JUMP JUMPDEST SWAP1 POP PUSH1 0x0 PUSH2 0x1618 DUP5 DUP3 DUP6 ADD PUSH2 0x1201 JUMP JUMPDEST PUSH1 0x0 DUP4 ADD MSTORE POP PUSH1 0x20 DUP3 ADD CALLDATALOAD PUSH8 0xFFFFFFFFFFFFFFFF DUP2 GT ISZERO PUSH2 0x163C JUMPI PUSH2 0x163B PUSH2 0x1529 JUMP JUMPDEST JUMPDEST PUSH2 0x1648 DUP5 DUP3 DUP6 ADD PUSH2 0x15BA JUMP JUMPDEST PUSH1 0x20 DUP4 ADD MSTORE POP PUSH1 0x40 DUP3 ADD CALLDATALOAD PUSH8 0xFFFFFFFFFFFFFFFF DUP2 GT ISZERO PUSH2 0x166C JUMPI PUSH2 0x166B PUSH2 0x1529 JUMP JUMPDEST JUMPDEST PUSH2 0x1678 DUP5 DUP3 DUP6 ADD PUSH2 0x15BA JUMP JUMPDEST PUSH1 0x40 DUP4 ADD MSTORE POP PUSH1 0x60 DUP3 ADD CALLDATALOAD PUSH8 0xFFFFFFFFFFFFFFFF DUP2 GT ISZERO PUSH2 0x169C JUMPI PUSH2 0x169B PUSH2 0x1529 JUMP JUMPDEST JUMPDEST PUSH2 0x16A8 DUP5 DUP3 DUP6 ADD PUSH2 0x15BA JUMP JUMPDEST PUSH1 0x60 DUP4 ADD MSTORE POP SWAP3 SWAP2 POP POP JUMP JUMPDEST PUSH1 0x0 PUSH1 0xA0 DUP3 DUP5 SUB SLT ISZERO PUSH2 0x16CA JUMPI PUSH2 0x16C9 PUSH2 0x14A9 JUMP JUMPDEST JUMPDEST PUSH2 0x16D4 PUSH1 0xA0 PUSH2 0x150E JUMP JUMPDEST SWAP1 POP PUSH1 0x0 DUP3 ADD CALLDATALOAD PUSH8 0xFFFFFFFFFFFFFFFF DUP2 GT ISZERO PUSH2 0x16F4 JUMPI PUSH2 0x16F3 PUSH2 0x1529 JUMP JUMPDEST JUMPDEST PUSH2 0x1700 DUP5 DUP3 DUP6 ADD PUSH2 0x15BA JUMP JUMPDEST PUSH1 0x0 DUP4 ADD MSTORE POP PUSH1 0x20 DUP3 ADD CALLDATALOAD PUSH8 0xFFFFFFFFFFFFFFFF DUP2 GT ISZERO PUSH2 0x1724 JUMPI PUSH2 0x1723 PUSH2 0x1529 JUMP JUMPDEST JUMPDEST PUSH2 0x1730 DUP5 DUP3 DUP6 ADD PUSH2 0x15BA JUMP JUMPDEST PUSH1 0x20 DUP4 ADD MSTORE POP PUSH1 0x40 PUSH2 0x1744 DUP5 DUP3 DUP6 ADD PUSH2 0x1201 JUMP JUMPDEST PUSH1 0x40 DUP4 ADD MSTORE POP PUSH1 0x60 DUP3 ADD CALLDATALOAD PUSH8 0xFFFFFFFFFFFFFFFF DUP2 GT ISZERO PUSH2 0x1768 JUMPI PUSH2 0x1767 PUSH2 0x1529 JUMP JUMPDEST JUMPDEST PUSH2 0x1774 DUP5 DUP3 DUP6 ADD PUSH2 0x15BA JUMP JUMPDEST PUSH1 0x60 DUP4 ADD MSTORE POP PUSH1 0x80 DUP3 ADD CALLDATALOAD PUSH8 0xFFFFFFFFFFFFFFFF DUP2 GT ISZERO PUSH2 0x1798 JUMPI PUSH2 0x1797 PUSH2 0x1529 JUMP JUMPDEST JUMPDEST PUSH2 0x17A4 DUP5 DUP3 DUP6 ADD PUSH2 0x15BA JUMP JUMPDEST PUSH1 0x80 DUP4 ADD MSTORE POP SWAP3 SWAP2 POP POP JUMP JUMPDEST PUSH1 0x0 DUP1 PUSH1 0x40 DUP4 DUP6 SUB SLT ISZERO PUSH2 0x17C7 JUMPI PUSH2 0x17C6 PUSH2 0x11AE JUMP JUMPDEST JUMPDEST PUSH1 0x0 DUP4 ADD CALLDATALOAD PUSH8 0xFFFFFFFFFFFFFFFF DUP2 GT ISZERO PUSH2 0x17E5 JUMPI PUSH2 0x17E4 PUSH2 0x11B3 JUMP JUMPDEST JUMPDEST PUSH2 0x17F1 DUP6 DUP3 DUP7 ADD PUSH2 0x15E8 JUMP JUMPDEST SWAP3 POP POP PUSH1 0x20 DUP4 ADD CALLDATALOAD PUSH8 0xFFFFFFFFFFFFFFFF DUP2 GT ISZERO PUSH2 0x1812 JUMPI PUSH2 0x1811 PUSH2 0x11B3 JUMP JUMPDEST JUMPDEST PUSH2 0x181E DUP6 DUP3 DUP7 ADD PUSH2 0x16B4 JUMP JUMPDEST SWAP2 POP POP SWAP3 POP SWAP3 SWAP1 POP JUMP JUMPDEST PUSH1 0x0 DUP2 MLOAD SWAP1 POP SWAP2 SWAP1 POP JUMP JUMPDEST PUSH1 0x0 DUP3 DUP3 MSTORE PUSH1 0x20 DUP3 ADD SWAP1 POP SWAP3 SWAP2 POP POP JUMP JUMPDEST PUSH1 0x0 DUP2 SWAP1 POP PUSH1 0x20 DUP3 ADD SWAP1 POP SWAP2 SWAP1 POP JUMP JUMPDEST PUSH1 0x0 PUSH2 0x1860 DUP4 DUP4 PUSH2 0x12E1 JUMP JUMPDEST SWAP1 POP SWAP3 SWAP2 POP POP JUMP JUMPDEST PUSH1 0x0 PUSH1 0x20 DUP3 ADD SWAP1 POP SWAP2 SWAP1 POP JUMP JUMPDEST PUSH1 0x0 PUSH2 0x1880 DUP3 PUSH2 0x1828 JUMP JUMPDEST PUSH2 0x188A DUP2 DUP6 PUSH2 0x1833 JUMP JUMPDEST SWAP4 POP DUP4 PUSH1 0x20 DUP3 MUL DUP6 ADD PUSH2 0x189C DUP6 PUSH2 0x1844 JUMP JUMPDEST DUP1 PUSH1 0x0 JUMPDEST DUP6 DUP2 LT ISZERO PUSH2 0x18D8 JUMPI DUP5 DUP5 SUB DUP10 MSTORE DUP2 MLOAD PUSH2 0x18B9 DUP6 DUP3 PUSH2 0x1854 JUMP JUMPDEST SWAP5 POP PUSH2 0x18C4 DUP4 PUSH2 0x1868 JUMP JUMPDEST SWAP3 POP PUSH1 0x20 DUP11 ADD SWAP10 POP POP PUSH1 0x1 DUP2 ADD SWAP1 POP PUSH2 0x18A0 JUMP JUMPDEST POP DUP3 SWAP8 POP DUP8 SWAP6 POP POP POP POP POP POP SWAP3 SWAP2 POP POP JUMP JUMPDEST PUSH1 0x0 PUSH1 0x40 DUP4 ADD PUSH1 0x0 DUP4 ADD MLOAD PUSH2 0x1902 PUSH1 0x0 DUP7 ADD DUP3 PUSH2 0x124F JUMP JUMPDEST POP PUSH1 0x20 DUP4 ADD MLOAD DUP5 DUP3 SUB PUSH1 0x20 DUP7 ADD MSTORE PUSH2 0x191A DUP3 DUP3 PUSH2 0x1875 JUMP JUMPDEST SWAP2 POP POP DUP1 SWAP2 POP POP SWAP3 SWAP2 POP POP JUMP JUMPDEST PUSH1 0x0 PUSH1 0x20 DUP3 ADD SWAP1 POP DUP2 DUP2 SUB PUSH1 0x0 DUP4 ADD MSTORE PUSH2 0x1941 DUP2 DUP5 PUSH2 0x18EA JUMP JUMPDEST SWAP1 POP SWAP3 SWAP2 POP POP JUMP JUMPDEST PUSH1 0x0 DUP1 PUSH1 0x0 DUP1 PUSH1 0x80 DUP6 DUP8 SUB SLT ISZERO PUSH2 0x1963 JUMPI PUSH2 0x1962 PUSH2 0x11AE JUMP JUMPDEST JUMPDEST PUSH1 0x0 PUSH2 0x1971 DUP8 DUP3 DUP9 ADD PUSH2 0x1201 JUMP JUMPDEST SWAP5 POP POP PUSH1 0x20 PUSH2 0x1982 DUP8 DUP3 DUP9 ADD PUSH2 0x1201 JUMP JUMPDEST SWAP4 POP POP PUSH1 0x40 DUP6 ADD CALLDATALOAD PUSH8 0xFFFFFFFFFFFFFFFF DUP2 GT ISZERO PUSH2 0x19A3 JUMPI PUSH2 0x19A2 PUSH2 0x11B3 JUMP JUMPDEST JUMPDEST PUSH2 0x19AF DUP8 DUP3 DUP9 ADD PUSH2 0x15BA JUMP JUMPDEST SWAP3 POP POP PUSH1 0x60 DUP6 ADD CALLDATALOAD PUSH8 0xFFFFFFFFFFFFFFFF DUP2 GT ISZERO PUSH2 0x19D0 JUMPI PUSH2 0x19CF PUSH2 0x11B3 JUMP JUMPDEST JUMPDEST PUSH2 0x19DC DUP8 DUP3 DUP9 ADD PUSH2 0x15BA JUMP JUMPDEST SWAP2 POP POP SWAP3 SWAP6 SWAP2 SWAP5 POP SWAP3 POP JUMP JUMPDEST PUSH2 0x19F1 DUP2 PUSH2 0x1243 JUMP JUMPDEST DUP3 MSTORE POP POP JUMP JUMPDEST PUSH1 0x0 PUSH1 0x20 DUP3 ADD SWAP1 POP PUSH2 0x1A0C PUSH1 0x0 DUP4 ADD DUP5 PUSH2 0x19E8 JUMP JUMPDEST SWAP3 SWAP2 POP POP JUMP JUMPDEST PUSH1 0x0 PUSH1 0x40 DUP4 ADD PUSH1 0x0 DUP4 ADD MLOAD PUSH2 0x1A2A PUSH1 0x0 DUP7 ADD DUP3 PUSH2 0x124F JUMP JUMPDEST POP PUSH1 0x20 DUP4 ADD MLOAD DUP5 DUP3 SUB PUSH1 0x20 DUP7 ADD MSTORE PUSH2 0x1A42 DUP3 DUP3 PUSH2 0x12E1 JUMP JUMPDEST SWAP2 POP POP DUP1 SWAP2 POP POP SWAP3 SWAP2 POP POP JUMP JUMPDEST PUSH1 0x0 PUSH1 0x20 DUP3 ADD SWAP1 POP DUP2 DUP2 SUB PUSH1 0x0 DUP4 ADD MSTORE PUSH2 0x1A69 DUP2 DUP5 PUSH2 0x1A12 JUMP JUMPDEST SWAP1 POP SWAP3 SWAP2 POP POP JUMP JUMPDEST PUSH1 0x0 PUSH8 0xFFFFFFFFFFFFFFFF DUP3 GT ISZERO PUSH2 0x1A8C JUMPI PUSH2 0x1A8B PUSH2 0x14AE JUMP JUMPDEST JUMPDEST PUSH1 0x20 DUP3 MUL SWAP1 POP PUSH1 0x20 DUP2 ADD SWAP1 POP SWAP2 SWAP1 POP JUMP JUMPDEST PUSH1 0x0 DUP1 REVERT JUMPDEST PUSH1 0x0 PUSH2 0x1AB5 PUSH2 0x1AB0 DUP5 PUSH2 0x1A71 JUMP JUMPDEST PUSH2 0x150E JUMP JUMPDEST SWAP1 POP DUP1 DUP4 DUP3 MSTORE PUSH1 0x20 DUP3 ADD SWAP1 POP PUSH1 0x20 DUP5 MUL DUP4 ADD DUP6 DUP2 GT ISZERO PUSH2 0x1AD8 JUMPI PUSH2 0x1AD7 PUSH2 0x1A9D JUMP JUMPDEST JUMPDEST DUP4 JUMPDEST DUP2 DUP2 LT ISZERO PUSH2 0x1B1F JUMPI DUP1 CALLDATALOAD PUSH8 0xFFFFFFFFFFFFFFFF DUP2 GT ISZERO PUSH2 0x1AFD JUMPI PUSH2 0x1AFC PUSH2 0x152E JUMP JUMPDEST JUMPDEST DUP1 DUP7 ADD PUSH2 0x1B0A DUP10 DUP3 PUSH2 0x15BA JUMP JUMPDEST DUP6 MSTORE PUSH1 0x20 DUP6 ADD SWAP5 POP POP POP PUSH1 0x20 DUP2 ADD SWAP1 POP PUSH2 0x1ADA JUMP JUMPDEST POP POP POP SWAP4 SWAP3 POP POP POP JUMP JUMPDEST PUSH1 0x0 DUP3 PUSH1 0x1F DUP4 ADD SLT PUSH2 0x1B3E JUMPI PUSH2 0x1B3D PUSH2 0x152E JUMP JUMPDEST JUMPDEST DUP2 CALLDATALOAD PUSH2 0x1B4E DUP5 DUP3 PUSH1 0x20 DUP7 ADD PUSH2 0x1AA2 JUMP JUMPDEST SWAP2 POP POP SWAP3 SWAP2 POP POP JUMP JUMPDEST PUSH1 0x0 DUP1 PUSH1 0x0 DUP1 PUSH1 0x80 DUP6 DUP8 SUB SLT ISZERO PUSH2 0x1B71 JUMPI PUSH2 0x1B70 PUSH2 0x11AE JUMP JUMPDEST JUMPDEST PUSH1 0x0 DUP6 ADD CALLDATALOAD PUSH8 0xFFFFFFFFFFFFFFFF DUP2 GT ISZERO PUSH2 0x1B8F JUMPI PUSH2 0x1B8E PUSH2 0x11B3 JUMP JUMPDEST JUMPDEST PUSH2 0x1B9B DUP8 DUP3 DUP9 ADD PUSH2 0x15E8 JUMP JUMPDEST SWAP5 POP POP PUSH1 0x20 DUP6 ADD CALLDATALOAD PUSH8 0xFFFFFFFFFFFFFFFF DUP2 GT ISZERO PUSH2 0x1BBC JUMPI PUSH2 0x1BBB PUSH2 0x11B3 JUMP JUMPDEST JUMPDEST PUSH2 0x1BC8 DUP8 DUP3 DUP9 ADD PUSH2 0x16B4 JUMP JUMPDEST SWAP4 POP POP PUSH1 0x40 DUP6 ADD CALLDATALOAD PUSH8 0xFFFFFFFFFFFFFFFF DUP2 GT ISZERO PUSH2 0x1BE9 JUMPI PUSH2 0x1BE8 PUSH2 0x11B3 JUMP JUMPDEST JUMPDEST PUSH2 0x1BF5 DUP8 DUP3 DUP9 ADD PUSH2 0x15BA JUMP JUMPDEST SWAP3 POP POP PUSH1 0x60 DUP6 ADD CALLDATALOAD PUSH8 0xFFFFFFFFFFFFFFFF DUP2 GT ISZERO PUSH2 0x1C16 JUMPI PUSH2 0x1C15 PUSH2 0x11B3 JUMP JUMPDEST JUMPDEST PUSH2 0x1C22 DUP8 DUP3 DUP9 ADD PUSH2 0x1B29 JUMP JUMPDEST SWAP2 POP POP SWAP3 SWAP6 SWAP2 SWAP5 POP SWAP3 POP JUMP JUMPDEST PUSH1 0x0 DUP1 PUSH1 0x0 PUSH1 0x60 DUP5 DUP7 SUB SLT ISZERO PUSH2 0x1C47 JUMPI PUSH2 0x1C46 PUSH2 0x11AE JUMP JUMPDEST JUMPDEST PUSH1 0x0 DUP5 ADD CALLDATALOAD PUSH8 0xFFFFFFFFFFFFFFFF DUP2 GT ISZERO PUSH2 0x1C65 JUMPI PUSH2 0x1C64 PUSH2 0x11B3 JUMP JUMPDEST JUMPDEST PUSH2 0x1C71 DUP7 DUP3 DUP8 ADD PUSH2 0x15E8 JUMP JUMPDEST SWAP4 POP POP PUSH1 0x20 DUP5 ADD CALLDATALOAD PUSH8 0xFFFFFFFFFFFFFFFF DUP2 GT ISZERO PUSH2 0x1C92 JUMPI PUSH2 0x1C91 PUSH2 0x11B3 JUMP JUMPDEST JUMPDEST PUSH2 0x1C9E DUP7 DUP3 DUP8 ADD PUSH2 0x16B4 JUMP JUMPDEST SWAP3 POP POP PUSH1 0x40 DUP5 ADD CALLDATALOAD PUSH8 0xFFFFFFFFFFFFFFFF DUP2 GT ISZERO PUSH2 0x1CBF JUMPI PUSH2 0x1CBE PUSH2 0x11B3 JUMP JUMPDEST JUMPDEST PUSH2 0x1CCB DUP7 DUP3 DUP8 ADD PUSH2 0x1B29 JUMP JUMPDEST SWAP2 POP POP SWAP3 POP SWAP3 POP SWAP3 JUMP JUMPDEST PUSH1 0x0 DUP1 PUSH1 0x0 PUSH1 0x60 DUP5 DUP7 SUB SLT ISZERO PUSH2 0x1CEE JUMPI PUSH2 0x1CED PUSH2 0x11AE JUMP JUMPDEST JUMPDEST PUSH1 0x0 DUP5 ADD CALLDATALOAD PUSH8 0xFFFFFFFFFFFFFFFF DUP2 GT ISZERO PUSH2 0x1D0C JUMPI PUSH2 0x1D0B PUSH2 0x11B3 JUMP JUMPDEST JUMPDEST PUSH2 0x1D18 DUP7 DUP3 DUP8 ADD PUSH2 0x15E8 JUMP JUMPDEST SWAP4 POP POP PUSH1 0x20 DUP5 ADD CALLDATALOAD PUSH8 0xFFFFFFFFFFFFFFFF DUP2 GT ISZERO PUSH2 0x1D39 JUMPI PUSH2 0x1D38 PUSH2 0x11B3 JUMP JUMPDEST JUMPDEST PUSH2 0x1D45 DUP7 DUP3 DUP8 ADD PUSH2 0x16B4 JUMP JUMPDEST SWAP3 POP POP PUSH1 0x40 DUP5 ADD CALLDATALOAD PUSH8 0xFFFFFFFFFFFFFFFF DUP2 GT ISZERO PUSH2 0x1D66 JUMPI PUSH2 0x1D65 PUSH2 0x11B3 JUMP JUMPDEST JUMPDEST PUSH2 0x1D72 DUP7 DUP3 DUP8 ADD PUSH2 0x15BA JUMP JUMPDEST SWAP2 POP POP SWAP3 POP SWAP3 POP SWAP3 JUMP JUMPDEST PUSH32 0x4E487B7100000000000000000000000000000000000000000000000000000000 PUSH1 0x0 MSTORE PUSH1 0x32 PUSH1 0x4 MSTORE PUSH1 0x24 PUSH1 0x0 REVERT JUMPDEST PUSH32 0x4E487B7100000000000000000000000000000000000000000000000000000000 PUSH1 0x0 MSTORE PUSH1 0x22 PUSH1 0x4 MSTORE PUSH1 0x24 PUSH1 0x0 REVERT JUMPDEST PUSH1 0x0 PUSH1 0x2 DUP3 DIV SWAP1 POP PUSH1 0x1 DUP3 AND DUP1 PUSH2 0x1DF2 JUMPI PUSH1 0x7F DUP3 AND SWAP2 POP JUMPDEST PUSH1 0x20 DUP3 LT DUP2 SUB PUSH2 0x1E05 JUMPI PUSH2 0x1E04 PUSH2 0x1DAB JUMP JUMPDEST JUMPDEST POP SWAP2 SWAP1 POP JUMP JUMPDEST PUSH1 0x0 DUP3 DUP3 MSTORE PUSH1 0x20 DUP3 ADD SWAP1 POP SWAP3 SWAP2 POP POP JUMP JUMPDEST PUSH1 0x0 PUSH2 0x1E27 DUP3 PUSH2 0x128A JUMP JUMPDEST PUSH2 0x1E31 DUP2 DUP6 PUSH2 0x1E0B JUMP JUMPDEST SWAP4 POP PUSH2 0x1E41 DUP2 DUP6 PUSH1 0x20 DUP7 ADD PUSH2 0x12A6 JUMP JUMPDEST PUSH2 0x1E4A DUP2 PUSH2 0x12D0 JUMP JUMPDEST DUP5 ADD SWAP2 POP POP SWAP3 SWAP2 POP POP JUMP JUMPDEST PUSH1 0x0 PUSH1 0x20 DUP3 ADD SWAP1 POP DUP2 DUP2 SUB PUSH1 0x0 DUP4 ADD MSTORE PUSH2 0x1E6F DUP2 DUP5 PUSH2 0x1E1C JUMP JUMPDEST SWAP1 POP SWAP3 SWAP2 POP POP JUMP JUMPDEST PUSH2 0x1E80 DUP2 PUSH2 0x1243 JUMP JUMPDEST DUP2 EQ PUSH2 0x1E8B JUMPI PUSH1 0x0 DUP1 REVERT JUMPDEST POP JUMP JUMPDEST PUSH1 0x0 DUP2 MLOAD SWAP1 POP PUSH2 0x1E9D DUP2 PUSH2 0x1E77 JUMP JUMPDEST SWAP3 SWAP2 POP POP JUMP JUMPDEST PUSH1 0x0 PUSH2 0x1EB6 PUSH2 0x1EB1 DUP5 PUSH2 0x1538 JUMP JUMPDEST PUSH2 0x150E JUMP JUMPDEST SWAP1 POP DUP3 DUP2 MSTORE PUSH1 0x20 DUP2 ADD DUP5 DUP5 DUP5 ADD GT ISZERO PUSH2 0x1ED2 JUMPI PUSH2 0x1ED1 PUSH2 0x1533 JUMP JUMPDEST JUMPDEST PUSH2 0x1EDD DUP5 DUP3 DUP6 PUSH2 0x12A6 JUMP JUMPDEST POP SWAP4 SWAP3 POP POP POP JUMP JUMPDEST PUSH1 0x0 DUP3 PUSH1 0x1F DUP4 ADD SLT PUSH2 0x1EFA JUMPI PUSH2 0x1EF9 PUSH2 0x152E JUMP JUMPDEST JUMPDEST DUP2 MLOAD PUSH2 0x1F0A DUP5 DUP3 PUSH1 0x20 DUP7 ADD PUSH2 0x1EA3 JUMP JUMPDEST SWAP2 POP POP SWAP3 SWAP2 POP POP JUMP JUMPDEST PUSH1 0x0 DUP2 MLOAD SWAP1 POP PUSH2 0x1F22 DUP2 PUSH2 0x11EA JUMP JUMPDEST SWAP3 SWAP2 POP POP JUMP JUMPDEST PUSH1 0x0 PUSH1 0xA0 DUP3 DUP5 SUB SLT ISZERO PUSH2 0x1F3E JUMPI PUSH2 0x1F3D PUSH2 0x14A9 JUMP JUMPDEST JUMPDEST PUSH2 0x1F48 PUSH1 0xA0 PUSH2 0x150E JUMP JUMPDEST SWAP1 POP PUSH1 0x0 DUP3 ADD MLOAD PUSH8 0xFFFFFFFFFFFFFFFF DUP2 GT ISZERO PUSH2 0x1F68 JUMPI PUSH2 0x1F67 PUSH2 0x1529 JUMP JUMPDEST JUMPDEST PUSH2 0x1F74 DUP5 DUP3 DUP6 ADD PUSH2 0x1EE5 JUMP JUMPDEST PUSH1 0x0 DUP4 ADD MSTORE POP PUSH1 0x20 DUP3 ADD MLOAD PUSH8 0xFFFFFFFFFFFFFFFF DUP2 GT ISZERO PUSH2 0x1F98 JUMPI PUSH2 0x1F97 PUSH2 0x1529 JUMP JUMPDEST JUMPDEST PUSH2 0x1FA4 DUP5 DUP3 DUP6 ADD PUSH2 0x1EE5 JUMP JUMPDEST PUSH1 0x20 DUP4 ADD MSTORE POP PUSH1 0x40 PUSH2 0x1FB8 DUP5 DUP3 DUP6 ADD PUSH2 0x1F13 JUMP JUMPDEST PUSH1 0x40 DUP4 ADD MSTORE POP PUSH1 0x60 DUP3 ADD MLOAD PUSH8 0xFFFFFFFFFFFFFFFF DUP2 GT ISZERO PUSH2 0x1FDC JUMPI PUSH2 0x1FDB PUSH2 0x1529 JUMP JUMPDEST JUMPDEST PUSH2 0x1FE8 DUP5 DUP3 DUP6 ADD PUSH2 0x1EE5 JUMP JUMPDEST PUSH1 0x60 DUP4 ADD MSTORE POP PUSH1 0x80 DUP3 ADD MLOAD PUSH8 0xFFFFFFFFFFFFFFFF DUP2 GT ISZERO PUSH2 0x200C JUMPI PUSH2 0x200B PUSH2 0x1529 JUMP JUMPDEST JUMPDEST PUSH2 0x2018 DUP5 DUP3 DUP6 ADD PUSH2 0x1EE5 JUMP JUMPDEST PUSH1 0x80 DUP4 ADD MSTORE POP SWAP3 SWAP2 POP POP JUMP JUMPDEST PUSH1 0x0 PUSH1 0x40 DUP3 DUP5 SUB SLT ISZERO PUSH2 0x203A JUMPI PUSH2 0x2039 PUSH2 0x14A9 JUMP JUMPDEST JUMPDEST PUSH2 0x2044 PUSH1 0x40 PUSH2 0x150E JUMP JUMPDEST SWAP1 POP PUSH1 0x0 PUSH2 0x2054 DUP5 DUP3 DUP6 ADD PUSH2 0x1E8E JUMP JUMPDEST PUSH1 0x0 DUP4 ADD MSTORE POP PUSH1 0x20 DUP3 ADD MLOAD PUSH8 0xFFFFFFFFFFFFFFFF DUP2 GT ISZERO PUSH2 0x2078 JUMPI PUSH2 0x2077 PUSH2 0x1529 JUMP JUMPDEST JUMPDEST PUSH2 0x2084 DUP5 DUP3 DUP6 ADD PUSH2 0x1F28 JUMP JUMPDEST PUSH1 0x20 DUP4 ADD MSTORE POP SWAP3 SWAP2 POP POP JUMP JUMPDEST PUSH1 0x0 PUSH1 0x20 DUP3 DUP5 SUB SLT ISZERO PUSH2 0x20A6 JUMPI PUSH2 0x20A5 PUSH2 0x11AE JUMP JUMPDEST JUMPDEST PUSH1 0x0 DUP3 ADD MLOAD PUSH8 0xFFFFFFFFFFFFFFFF DUP2 GT ISZERO PUSH2 0x20C4 JUMPI PUSH2 0x20C3 PUSH2 0x11B3 JUMP JUMPDEST JUMPDEST PUSH2 0x20D0 DUP5 DUP3 DUP6 ADD PUSH2 0x2024 JUMP JUMPDEST SWAP2 POP POP SWAP3 SWAP2 POP POP JUMP JUMPDEST PUSH32 0x4E487B7100000000000000000000000000000000000000000000000000000000 PUSH1 0x0 MSTORE PUSH1 0x11 PUSH1 0x4 MSTORE PUSH1 0x24 PUSH1 0x0 REVERT JUMPDEST PUSH1 0x0 DUP2 SWAP1 POP SWAP2 SWAP1 POP JUMP JUMPDEST PUSH1 0x0 PUSH2 0x211D DUP3 PUSH2 0x2108 JUMP JUMPDEST SWAP2 POP PUSH32 0xFFFFFFFFFFFFFFFFFFFFFFFFFFFFFFFFFFFFFFFFFFFFFFFFFFFFFFFFFFFFFFFF DUP3 SUB PUSH2 0x214F JUMPI PUSH2 0x214E PUSH2 0x20D9 JUMP JUMPDEST JUMPDEST PUSH1 0x1 DUP3 ADD SWAP1 POP SWAP2 SWAP1 POP JUMP JUMPDEST PUSH1 0x0 DUP2 SWAP1 POP SWAP3 SWAP2 POP POP JUMP JUMPDEST PUSH1 0x0 PUSH2 0x2170 DUP3 PUSH2 0x128A JUMP JUMPDEST PUSH2 0x217A DUP2 DUP6 PUSH2 0x215A JUMP JUMPDEST SWAP4 POP PUSH2 0x218A DUP2 DUP6 PUSH1 0x20 DUP7 ADD PUSH2 0x12A6 JUMP JUMPDEST DUP1 DUP5 ADD SWAP2 POP POP SWAP3 SWAP2 POP POP JUMP JUMPDEST PUSH1 0x0 PUSH2 0x21A2 DUP3 DUP5 PUSH2 0x2165 JUMP JUMPDEST SWAP2 POP DUP2 SWAP1 POP SWAP3 SWAP2 POP POP JUMP JUMPDEST PUSH1 0x0 PUSH1 0xA0 DUP4 ADD PUSH1 0x0 DUP4 ADD MLOAD DUP5 DUP3 SUB PUSH1 0x0 DUP7 ADD MSTORE PUSH2 0x21CA DUP3 DUP3 PUSH2 0x12E1 JUMP JUMPDEST SWAP2 POP POP PUSH1 0x20 DUP4 ADD MLOAD DUP5 DUP3 SUB PUSH1 0x20 DUP7 ADD MSTORE PUSH2 0x21E4 DUP3 DUP3 PUSH2 0x12E1 JUMP JUMPDEST SWAP2 POP POP PUSH1 0x40 DUP4 ADD MLOAD PUSH2 0x21F9 PUSH1 0x40 DUP7 ADD DUP3 PUSH2 0x131A JUMP JUMPDEST POP PUSH1 0x60 DUP4 ADD MLOAD DUP5 DUP3 SUB PUSH1 0x60 DUP7 ADD MSTORE PUSH2 0x2211 DUP3 DUP3 PUSH2 0x12E1 JUMP JUMPDEST SWAP2 POP POP PUSH1 0x80 DUP4 ADD MLOAD DUP5 DUP3 SUB PUSH1 0x80 DUP7 ADD MSTORE PUSH2 0x222B DUP3 DUP3 PUSH2 0x12E1 JUMP JUMPDEST SWAP2 POP POP DUP1 SWAP2 POP POP SWAP3 SWAP2 POP POP JUMP JUMPDEST PUSH1 0x0 PUSH1 0x20 DUP3 ADD SWAP1 POP DUP2 DUP2 SUB PUSH1 0x0 DUP4 ADD MSTORE PUSH2 0x2252 DUP2 DUP5 PUSH2 0x21AD JUMP JUMPDEST SWAP1 POP SWAP3 SWAP2 POP POP JUMP JUMPDEST PUSH1 0x0 DUP2 SWAP1 POP DUP2 PUSH1 0x0 MSTORE PUSH1 0x20 PUSH1 0x0 KECCAK256 SWAP1 POP SWAP2 SWAP1 POP JUMP JUMPDEST PUSH1 0x0 PUSH1 0x20 PUSH1 0x1F DUP4 ADD DIV SWAP1 POP SWAP2 SWAP1 POP JUMP JUMPDEST PUSH1 0x0 DUP3 DUP3 SHL SWAP1 POP SWAP3 SWAP2 POP POP JUMP JUMPDEST PUSH1 0x0 PUSH1 0x8 DUP4 MUL PUSH2 0x22BC PUSH32 0xFFFFFFFFFFFFFFFFFFFFFFFFFFFFFFFFFFFFFFFFFFFFFFFFFFFFFFFFFFFFFFFF DUP3 PUSH2 0x227F JUMP JUMPDEST PUSH2 0x22C6 DUP7 DUP4 PUSH2 0x227F JUMP JUMPDEST SWAP6 POP DUP1 NOT DUP5 AND SWAP4 POP DUP1 DUP7 AND DUP5 OR SWAP3 POP POP POP SWAP4 SWAP3 POP POP POP JUMP JUMPDEST PUSH1 0x0 DUP2 SWAP1 POP SWAP2 SWAP1 POP JUMP JUMPDEST PUSH1 0x0 PUSH2 0x2303 PUSH2 0x22FE PUSH2 0x22F9 DUP5 PUSH2 0x2108 JUMP JUMPDEST PUSH2 0x22DE JUMP JUMPDEST PUSH2 0x2108 JUMP JUMPDEST SWAP1 POP SWAP2 SWAP1 POP JUMP JUMPDEST PUSH1 0x0 DUP2 SWAP1 POP SWAP2 SWAP1 POP JUMP JUMPDEST PUSH2 0x231D DUP4 PUSH2 0x22E8 JUMP JUMPDEST PUSH2 0x2331 PUSH2 0x2329 DUP3 PUSH2 0x230A JUMP JUMPDEST DUP5 DUP5 SLOAD PUSH2 0x228C JUMP JUMPDEST DUP3 SSTORE POP POP POP POP JUMP JUMPDEST PUSH1 0x0 SWAP1 JUMP JUMPDEST PUSH2 0x2346 PUSH2 0x2339 JUMP JUMPDEST PUSH2 0x2351 DUP2 DUP5 DUP5 PUSH2 0x2314 JUMP JUMPDEST POP POP POP JUMP JUMPDEST JUMPDEST DUP2 DUP2 LT ISZERO PUSH2 0x2375 JUMPI PUSH2 0x236A PUSH1 0x0 DUP3 PUSH2 0x233E JUMP JUMPDEST PUSH1 0x1 DUP2 ADD SWAP1 POP PUSH2 0x2357 JUMP JUMPDEST POP POP JUMP JUMPDEST PUSH1 0x1F DUP3 GT ISZERO PUSH2 0x23BA JUMPI PUSH2 0x238B DUP2 PUSH2 0x225A JUMP JUMPDEST PUSH2 0x2394 DUP5 PUSH2 0x226F JUMP JUMPDEST DUP2 ADD PUSH1 0x20 DUP6 LT ISZERO PUSH2 0x23A3 JUMPI DUP2 SWAP1 POP JUMPDEST PUSH2 0x23B7 PUSH2 0x23AF DUP6 PUSH2 0x226F JUMP JUMPDEST DUP4 ADD DUP3 PUSH2 0x2356 JUMP JUMPDEST POP POP JUMPDEST POP POP POP JUMP JUMPDEST PUSH1 0x0 DUP3 DUP3 SHR SWAP1 POP SWAP3 SWAP2 POP POP JUMP JUMPDEST PUSH1 0x0 PUSH2 0x23DD PUSH1 0x0 NOT DUP5 PUSH1 0x8 MUL PUSH2 0x23BF JUMP JUMPDEST NOT DUP1 DUP4 AND SWAP2 POP POP SWAP3 SWAP2 POP POP JUMP JUMPDEST PUSH1 0x0 PUSH2 0x23F6 DUP4 DUP4 PUSH2 0x23CC JUMP JUMPDEST SWAP2 POP DUP3 PUSH1 0x2 MUL DUP3 OR SWAP1 POP SWAP3 SWAP2 POP POP JUMP JUMPDEST PUSH2 0x240F DUP3 PUSH2 0x128A JUMP JUMPDEST PUSH8 0xFFFFFFFFFFFFFFFF DUP2 GT ISZERO PUSH2 0x2428 JUMPI PUSH2 0x2427 PUSH2 0x14AE JUMP JUMPDEST JUMPDEST PUSH2 0x2432 DUP3 SLOAD PUSH2 0x1DDA JUMP JUMPDEST PUSH2 0x243D DUP3 DUP3 DUP6 PUSH2 0x2379 JUMP JUMPDEST PUSH1 0x0 PUSH1 0x20 SWAP1 POP PUSH1 0x1F DUP4 GT PUSH1 0x1 DUP2 EQ PUSH2 0x2470 JUMPI PUSH1 0x0 DUP5 ISZERO PUSH2 0x245E JUMPI DUP3 DUP8 ADD MLOAD SWAP1 POP JUMPDEST PUSH2 0x2468 DUP6 DUP3 PUSH2 0x23EA JUMP JUMPDEST DUP7 SSTORE POP PUSH2 0x24D0 JUMP JUMPDEST PUSH1 0x1F NOT DUP5 AND PUSH2 0x247E DUP7 PUSH2 0x225A JUMP JUMPDEST PUSH1 0x0 JUMPDEST DUP3 DUP2 LT ISZERO PUSH2 0x24A6 JUMPI DUP5 DUP10 ADD MLOAD DUP3 SSTORE PUSH1 0x1 DUP3 ADD SWAP2 POP PUSH1 0x20 DUP6 ADD SWAP5 POP PUSH1 0x20 DUP2 ADD SWAP1 POP PUSH2 0x2481 JUMP JUMPDEST DUP7 DUP4 LT ISZERO PUSH2 0x24C3 JUMPI DUP5 DUP10 ADD MLOAD PUSH2 0x24BF PUSH1 0x1F DUP10 AND DUP3 PUSH2 0x23CC JUMP JUMPDEST DUP4 SSTORE POP JUMPDEST PUSH1 0x1 PUSH1 0x2 DUP9 MUL ADD DUP9 SSTORE POP POP POP JUMPDEST POP POP POP POP POP POP JUMP INVALID LOG2 PUSH5 0x6970667358 0x22 SLT KECCAK256 LOG1 STATICCALL 0xFB EXTCODECOPY GASLIMIT SWAP6 PUSH19 0xD950AECED01ACBDB17763E7365091AD5133B83 PUSH10 0x4A3221C2DC64736F6C63 NUMBER STOP ADDMOD SGT STOP CALLER "},"methodIdentifiers":{"getEncSymmetricKeyFileUser((address,string,string,string),(string,string,address,string,string))":"5d02eece","getPermissionsOverFile((address,string,string,string),(string,string,address,string,string))":"533f2134","getUserFiles(address)":"1fc37922","isKeyEqual(address,address,string,string)":"5c99c71b","shareFile((address,string,string,string),(string,string,address,string,string),string,string[])":"9468a12e","updateUserFilePermissions((address,string,string,string),(string,string,address,string,string),string[])":"9e93635f","uploadFile((address,string,string,string),(string,string,address,string,string),string)":"de6b9f7d","userAssociatedWithFile((address,string,string,string),(string,string,address,string,string))":"ad4d2bb2"}}}}}