{"contracts/Helper.sol":{"Helper":{"abi":[{"inputs":[{"components":[{"internalType":"string","name":"ipfsCID","type":"string"},{"internalType":"string","name":"fileName","type":"string"},{"internalType":"address","name":"owner","type":"address"},{"internalType":"string","name":"fileType","type":"string"},{"internalType":"string","name":"iv","type":"string"}],"internalType":"struct FileRegister.File","name":"file","type":"tuple"}],"name":"fileParamValid","outputs":[{"internalType":"bool","name":"","type":"bool"}],"stateMutability":"pure","type":"function"},{"inputs":[{"components":[{"internalType":"address","name":"account","type":"address"},{"internalType":"string","name":"userName","type":"string"},{"internalType":"string","name":"publicKey","type":"string"},{"internalType":"string","name":"privateKey","type":"string"}],"internalType":"struct UserRegister.User","name":"user","type":"tuple"}],"name":"validUserFields","outputs":[{"internalType":"bool","name":"","type":"bool"}],"stateMutability":"pure","type":"function"},{"inputs":[{"internalType":"address","name":"userAccount","type":"address"},{"internalType":"string","name":"fileIpfsCID","type":"string"},{"internalType":"string","name":"encSymmetricKey","type":"string"},{"internalType":"string[]","name":"permissions","type":"string[]"}],"name":"verifyValidFields","outputs":[{"internalType":"bool","name":"","type":"bool"}],"stateMutability":"pure","type":"function"}],"evm":{"bytecode":{"linkReferences":{},"object":"608060405234801561001057600080fd5b50610890806100206000396000f3fe608060405234801561001057600080fd5b50600436106100415760003560e01c8063c1f69fd614610046578063e779f45014610076578063f4520b2c146100a6575b600080fd5b610060600480360381019061005b9190610505565b6100d6565b60405161006d91906105db565b60405180910390f35b610090600480360381019061008b91906106cc565b61014d565b60405161009d91906105db565b60405180910390f35b6100c060048036038101906100bb9190610811565b6101d1565b6040516100cd91906105db565b60405180910390f35b60008073ffffffffffffffffffffffffffffffffffffffff168573ffffffffffffffffffffffffffffffffffffffff161415801561011657506000845114155b801561012457506000835114155b801561013257506000825114155b156101405760019050610145565b600090505b949350505050565b60008073ffffffffffffffffffffffffffffffffffffffff16826000015173ffffffffffffffffffffffffffffffffffffffff16141580156101955750600082602001515114155b80156101a75750600082604001515114155b80156101b95750600082606001515114155b156101c757600190506101cc565b600090505b919050565b600080826000015151141580156101ee5750600082602001515114155b80156102005750600082606001515114155b80156102125750600082608001515114155b801561024f5750600073ffffffffffffffffffffffffffffffffffffffff16826040015173ffffffffffffffffffffffffffffffffffffffff1614155b1561025d5760019050610262565b600090505b919050565b6000604051905090565b600080fd5b600080fd5b600073ffffffffffffffffffffffffffffffffffffffff82169050919050565b60006102a68261027b565b9050919050565b6102b68161029b565b81146102c157600080fd5b50565b6000813590506102d3816102ad565b92915050565b600080fd5b600080fd5b6000601f19601f8301169050919050565b7f4e487b7100000000000000000000000000000000000000000000000000000000600052604160045260246000fd5b61032c826102e3565b810181811067ffffffffffffffff8211171561034b5761034a6102f4565b5b80604052505050565b600061035e610267565b905061036a8282610323565b919050565b600067ffffffffffffffff82111561038a576103896102f4565b5b610393826102e3565b9050602081019050919050565b82818337600083830152505050565b60006103c26103bd8461036f565b610354565b9050828152602081018484840111156103de576103dd6102de565b5b6103e98482856103a0565b509392505050565b600082601f830112610406576104056102d9565b5b81356104168482602086016103af565b91505092915050565b600067ffffffffffffffff82111561043a576104396102f4565b5b602082029050602081019050919050565b600080fd5b600061046361045e8461041f565b610354565b905080838252602082019050602084028301858111156104865761048561044b565b5b835b818110156104cd57803567ffffffffffffffff8111156104ab576104aa6102d9565b5b8086016104b889826103f1565b85526020850194505050602081019050610488565b5050509392505050565b600082601f8301126104ec576104eb6102d9565b5b81356104fc848260208601610450565b91505092915050565b6000806000806080858703121561051f5761051e610271565b5b600061052d878288016102c4565b945050602085013567ffffffffffffffff81111561054e5761054d610276565b5b61055a878288016103f1565b935050604085013567ffffffffffffffff81111561057b5761057a610276565b5b610587878288016103f1565b925050606085013567ffffffffffffffff8111156105a8576105a7610276565b5b6105b4878288016104d7565b91505092959194509250565b60008115159050919050565b6105d5816105c0565b82525050565b60006020820190506105f060008301846105cc565b92915050565b600080fd5b600080fd5b600060808284031215610616576106156105f6565b5b6106206080610354565b90506000610630848285016102c4565b600083015250602082013567ffffffffffffffff811115610654576106536105fb565b5b610660848285016103f1565b602083015250604082013567ffffffffffffffff811115610684576106836105fb565b5b610690848285016103f1565b604083015250606082013567ffffffffffffffff8111156106b4576106b36105fb565b5b6106c0848285016103f1565b60608301525092915050565b6000602082840312156106e2576106e1610271565b5b600082013567ffffffffffffffff811115610700576106ff610276565b5b61070c84828501610600565b91505092915050565b600060a0828403121561072b5761072a6105f6565b5b61073560a0610354565b9050600082013567ffffffffffffffff811115610755576107546105fb565b5b610761848285016103f1565b600083015250602082013567ffffffffffffffff811115610785576107846105fb565b5b610791848285016103f1565b60208301525060406107a5848285016102c4565b604083015250606082013567ffffffffffffffff8111156107c9576107c86105fb565b5b6107d5848285016103f1565b606083015250608082013567ffffffffffffffff8111156107f9576107f86105fb565b5b610805848285016103f1565b60808301525092915050565b60006020828403121561082757610826610271565b5b600082013567ffffffffffffffff81111561084557610844610276565b5b61085184828501610715565b9150509291505056fea2646970667358221220e7cceb8c3a974d1a214fa9b0b9e392673675b456036eb30e04480e47c4f568c464736f6c63430008130033","opcodes":"PUSH1 0x80 PUSH1 0x40 MSTORE CALLVALUE DUP1 ISZERO PUSH2 0x10 JUMPI PUSH1 0x0 DUP1 REVERT JUMPDEST POP PUSH2 0x890 DUP1 PUSH2 0x20 PUSH1 0x0 CODECOPY PUSH1 0x0 RETURN INVALID PUSH1 0x80 PUSH1 0x40 MSTORE CALLVALUE DUP1 ISZERO PUSH2 0x10 JUMPI PUSH1 0x0 DUP1 REVERT JUMPDEST POP PUSH1 0x4 CALLDATASIZE LT PUSH2 0x41 JUMPI PUSH1 0x0 CALLDATALOAD PUSH1 0xE0 SHR DUP1 PUSH4 0xC1F69FD6 EQ PUSH2 0x46 JUMPI DUP1 PUSH4 0xE779F450 EQ PUSH2 0x76 JUMPI DUP1 PUSH4 0xF4520B2C EQ PUSH2 0xA6 JUMPI JUMPDEST PUSH1 0x0 DUP1 REVERT JUMPDEST PUSH2 0x60 PUSH1 0x4 DUP1 CALLDATASIZE SUB DUP2 ADD SWAP1 PUSH2 0x5B SWAP2 SWAP1 PUSH2 0x505 JUMP JUMPDEST PUSH2 0xD6 JUMP JUMPDEST PUSH1 0x40 MLOAD PUSH2 0x6D SWAP2 SWAP1 PUSH2 0x5DB JUMP JUMPDEST PUSH1 0x40 MLOAD DUP1 SWAP2 SUB SWAP1 RETURN JUMPDEST PUSH2 0x90 PUSH1 0x4 DUP1 CALLDATASIZE SUB DUP2 ADD SWAP1 PUSH2 0x8B SWAP2 SWAP1 PUSH2 0x6CC JUMP JUMPDEST PUSH2 0x14D JUMP JUMPDEST PUSH1 0x40 MLOAD PUSH2 0x9D SWAP2 SWAP1 PUSH2 0x5DB JUMP JUMPDEST PUSH1 0x40 MLOAD DUP1 SWAP2 SUB SWAP1 RETURN JUMPDEST PUSH2 0xC0 PUSH1 0x4 DUP1 CALLDATASIZE SUB DUP2 ADD SWAP1 PUSH2 0xBB SWAP2 SWAP1 PUSH2 0x811 JUMP JUMPDEST PUSH2 0x1D1 JUMP JUMPDEST PUSH1 0x40 MLOAD PUSH2 0xCD SWAP2 SWAP1 PUSH2 0x5DB JUMP JUMPDEST PUSH1 0x40 MLOAD DUP1 SWAP2 SUB SWAP1 RETURN JUMPDEST PUSH1 0x0 DUP1 PUSH20 0xFFFFFFFFFFFFFFFFFFFFFFFFFFFFFFFFFFFFFFFF AND DUP6 PUSH20 0xFFFFFFFFFFFFFFFFFFFFFFFFFFFFFFFFFFFFFFFF AND EQ ISZERO DUP1 ISZERO PUSH2 0x116 JUMPI POP PUSH1 0x0 DUP5 MLOAD EQ ISZERO JUMPDEST DUP1 ISZERO PUSH2 0x124 JUMPI POP PUSH1 0x0 DUP4 MLOAD EQ ISZERO JUMPDEST DUP1 ISZERO PUSH2 0x132 JUMPI POP PUSH1 0x0 DUP3 MLOAD EQ ISZERO JUMPDEST ISZERO PUSH2 0x140 JUMPI PUSH1 0x1 SWAP1 POP PUSH2 0x145 JUMP JUMPDEST PUSH1 0x0 SWAP1 POP JUMPDEST SWAP5 SWAP4 POP POP POP POP JUMP JUMPDEST PUSH1 0x0 DUP1 PUSH20 0xFFFFFFFFFFFFFFFFFFFFFFFFFFFFFFFFFFFFFFFF AND DUP3 PUSH1 0x0 ADD MLOAD PUSH20 0xFFFFFFFFFFFFFFFFFFFFFFFFFFFFFFFFFFFFFFFF AND EQ ISZERO DUP1 ISZERO PUSH2 0x195 JUMPI POP PUSH1 0x0 DUP3 PUSH1 0x20 ADD MLOAD MLOAD EQ ISZERO JUMPDEST DUP1 ISZERO PUSH2 0x1A7 JUMPI POP PUSH1 0x0 DUP3 PUSH1 0x40 ADD MLOAD MLOAD EQ ISZERO JUMPDEST DUP1 ISZERO PUSH2 0x1B9 JUMPI POP PUSH1 0x0 DUP3 PUSH1 0x60 ADD MLOAD MLOAD EQ ISZERO JUMPDEST ISZERO PUSH2 0x1C7 JUMPI PUSH1 0x1 SWAP1 POP PUSH2 0x1CC JUMP JUMPDEST PUSH1 0x0 SWAP1 POP JUMPDEST SWAP2 SWAP1 POP JUMP JUMPDEST PUSH1 0x0 DUP1 DUP3 PUSH1 0x0 ADD MLOAD MLOAD EQ ISZERO DUP1 ISZERO PUSH2 0x1EE JUMPI POP PUSH1 0x0 DUP3 PUSH1 0x20 ADD MLOAD MLOAD EQ ISZERO JUMPDEST DUP1 ISZERO PUSH2 0x200 JUMPI POP PUSH1 0x0 DUP3 PUSH1 0x60 ADD MLOAD MLOAD EQ ISZERO JUMPDEST DUP1 ISZERO PUSH2 0x212 JUMPI POP PUSH1 0x0 DUP3 PUSH1 0x80 ADD MLOAD MLOAD EQ ISZERO JUMPDEST DUP1 ISZERO PUSH2 0x24F JUMPI POP PUSH1 0x0 PUSH20 0xFFFFFFFFFFFFFFFFFFFFFFFFFFFFFFFFFFFFFFFF AND DUP3 PUSH1 0x40 ADD MLOAD PUSH20 0xFFFFFFFFFFFFFFFFFFFFFFFFFFFFFFFFFFFFFFFF AND EQ ISZERO JUMPDEST ISZERO PUSH2 0x25D JUMPI PUSH1 0x1 SWAP1 POP PUSH2 0x262 JUMP JUMPDEST PUSH1 0x0 SWAP1 POP JUMPDEST SWAP2 SWAP1 POP JUMP JUMPDEST PUSH1 0x0 PUSH1 0x40 MLOAD SWAP1 POP SWAP1 JUMP JUMPDEST PUSH1 0x0 DUP1 REVERT JUMPDEST PUSH1 0x0 DUP1 REVERT JUMPDEST PUSH1 0x0 PUSH20 0xFFFFFFFFFFFFFFFFFFFFFFFFFFFFFFFFFFFFFFFF DUP3 AND SWAP1 POP SWAP2 SWAP1 POP JUMP JUMPDEST PUSH1 0x0 PUSH2 0x2A6 DUP3 PUSH2 0x27B JUMP JUMPDEST SWAP1 POP SWAP2 SWAP1 POP JUMP JUMPDEST PUSH2 0x2B6 DUP2 PUSH2 0x29B JUMP JUMPDEST DUP2 EQ PUSH2 0x2C1 JUMPI PUSH1 0x0 DUP1 REVERT JUMPDEST POP JUMP JUMPDEST PUSH1 0x0 DUP2 CALLDATALOAD SWAP1 POP PUSH2 0x2D3 DUP2 PUSH2 0x2AD JUMP JUMPDEST SWAP3 SWAP2 POP POP JUMP JUMPDEST PUSH1 0x0 DUP1 REVERT JUMPDEST PUSH1 0x0 DUP1 REVERT JUMPDEST PUSH1 0x0 PUSH1 0x1F NOT PUSH1 0x1F DUP4 ADD AND SWAP1 POP SWAP2 SWAP1 POP JUMP JUMPDEST PUSH32 0x4E487B7100000000000000000000000000000000000000000000000000000000 PUSH1 0x0 MSTORE PUSH1 0x41 PUSH1 0x4 MSTORE PUSH1 0x24 PUSH1 0x0 REVERT JUMPDEST PUSH2 0x32C DUP3 PUSH2 0x2E3 JUMP JUMPDEST DUP2 ADD DUP2 DUP2 LT PUSH8 0xFFFFFFFFFFFFFFFF DUP3 GT OR ISZERO PUSH2 0x34B JUMPI PUSH2 0x34A PUSH2 0x2F4 JUMP JUMPDEST JUMPDEST DUP1 PUSH1 0x40 MSTORE POP POP POP JUMP JUMPDEST PUSH1 0x0 PUSH2 0x35E PUSH2 0x267 JUMP JUMPDEST SWAP1 POP PUSH2 0x36A DUP3 DUP3 PUSH2 0x323 JUMP JUMPDEST SWAP2 SWAP1 POP JUMP JUMPDEST PUSH1 0x0 PUSH8 0xFFFFFFFFFFFFFFFF DUP3 GT ISZERO PUSH2 0x38A JUMPI PUSH2 0x389 PUSH2 0x2F4 JUMP JUMPDEST JUMPDEST PUSH2 0x393 DUP3 PUSH2 0x2E3 JUMP JUMPDEST SWAP1 POP PUSH1 0x20 DUP2 ADD SWAP1 POP SWAP2 SWAP1 POP JUMP JUMPDEST DUP3 DUP2 DUP4 CALLDATACOPY PUSH1 0x0 DUP4 DUP4 ADD MSTORE POP POP POP JUMP JUMPDEST PUSH1 0x0 PUSH2 0x3C2 PUSH2 0x3BD DUP5 PUSH2 0x36F JUMP JUMPDEST PUSH2 0x354 JUMP JUMPDEST SWAP1 POP DUP3 DUP2 MSTORE PUSH1 0x20 DUP2 ADD DUP5 DUP5 DUP5 ADD GT ISZERO PUSH2 0x3DE JUMPI PUSH2 0x3DD PUSH2 0x2DE JUMP JUMPDEST JUMPDEST PUSH2 0x3E9 DUP5 DUP3 DUP6 PUSH2 0x3A0 JUMP JUMPDEST POP SWAP4 SWAP3 POP POP POP JUMP JUMPDEST PUSH1 0x0 DUP3 PUSH1 0x1F DUP4 ADD SLT PUSH2 0x406 JUMPI PUSH2 0x405 PUSH2 0x2D9 JUMP JUMPDEST JUMPDEST DUP2 CALLDATALOAD PUSH2 0x416 DUP5 DUP3 PUSH1 0x20 DUP7 ADD PUSH2 0x3AF JUMP JUMPDEST SWAP2 POP POP SWAP3 SWAP2 POP POP JUMP JUMPDEST PUSH1 0x0 PUSH8 0xFFFFFFFFFFFFFFFF DUP3 GT ISZERO PUSH2 0x43A JUMPI PUSH2 0x439 PUSH2 0x2F4 JUMP JUMPDEST JUMPDEST PUSH1 0x20 DUP3 MUL SWAP1 POP PUSH1 0x20 DUP2 ADD SWAP1 POP SWAP2 SWAP1 POP JUMP JUMPDEST PUSH1 0x0 DUP1 REVERT JUMPDEST PUSH1 0x0 PUSH2 0x463 PUSH2 0x45E DUP5 PUSH2 0x41F JUMP JUMPDEST PUSH2 0x354 JUMP JUMPDEST SWAP1 POP DUP1 DUP4 DUP3 MSTORE PUSH1 0x20 DUP3 ADD SWAP1 POP PUSH1 0x20 DUP5 MUL DUP4 ADD DUP6 DUP2 GT ISZERO PUSH2 0x486 JUMPI PUSH2 0x485 PUSH2 0x44B JUMP JUMPDEST JUMPDEST DUP4 JUMPDEST DUP2 DUP2 LT ISZERO PUSH2 0x4CD JUMPI DUP1 CALLDATALOAD PUSH8 0xFFFFFFFFFFFFFFFF DUP2 GT ISZERO PUSH2 0x4AB JUMPI PUSH2 0x4AA PUSH2 0x2D9 JUMP JUMPDEST JUMPDEST DUP1 DUP7 ADD PUSH2 0x4B8 DUP10 DUP3 PUSH2 0x3F1 JUMP JUMPDEST DUP6 MSTORE PUSH1 0x20 DUP6 ADD SWAP5 POP POP POP PUSH1 0x20 DUP2 ADD SWAP1 POP PUSH2 0x488 JUMP JUMPDEST POP POP POP SWAP4 SWAP3 POP POP POP JUMP JUMPDEST PUSH1 0x0 DUP3 PUSH1 0x1F DUP4 ADD SLT PUSH2 0x4EC JUMPI PUSH2 0x4EB PUSH2 0x2D9 JUMP JUMPDEST JUMPDEST DUP2 CALLDATALOAD PUSH2 0x4FC DUP5 DUP3 PUSH1 0x20 DUP7 ADD PUSH2 0x450 JUMP JUMPDEST SWAP2 POP POP SWAP3 SWAP2 POP POP JUMP JUMPDEST PUSH1 0x0 DUP1 PUSH1 0x0 DUP1 PUSH1 0x80 DUP6 DUP8 SUB SLT ISZERO PUSH2 0x51F JUMPI PUSH2 0x51E PUSH2 0x271 JUMP JUMPDEST JUMPDEST PUSH1 0x0 PUSH2 0x52D DUP8 DUP3 DUP9 ADD PUSH2 0x2C4 JUMP JUMPDEST SWAP5 POP POP PUSH1 0x20 DUP6 ADD CALLDATALOAD PUSH8 0xFFFFFFFFFFFFFFFF DUP2 GT ISZERO PUSH2 0x54E JUMPI PUSH2 0x54D PUSH2 0x276 JUMP JUMPDEST JUMPDEST PUSH2 0x55A DUP8 DUP3 DUP9 ADD PUSH2 0x3F1 JUMP JUMPDEST SWAP4 POP POP PUSH1 0x40 DUP6 ADD CALLDATALOAD PUSH8 0xFFFFFFFFFFFFFFFF DUP2 GT ISZERO PUSH2 0x57B JUMPI PUSH2 0x57A PUSH2 0x276 JUMP JUMPDEST JUMPDEST PUSH2 0x587 DUP8 DUP3 DUP9 ADD PUSH2 0x3F1 JUMP JUMPDEST SWAP3 POP POP PUSH1 0x60 DUP6 ADD CALLDATALOAD PUSH8 0xFFFFFFFFFFFFFFFF DUP2 GT ISZERO PUSH2 0x5A8 JUMPI PUSH2 0x5A7 PUSH2 0x276 JUMP JUMPDEST JUMPDEST PUSH2 0x5B4 DUP8 DUP3 DUP9 ADD PUSH2 0x4D7 JUMP JUMPDEST SWAP2 POP POP SWAP3 SWAP6 SWAP2 SWAP5 POP SWAP3 POP JUMP JUMPDEST PUSH1 0x0 DUP2 ISZERO ISZERO SWAP1 POP SWAP2 SWAP1 POP JUMP JUMPDEST PUSH2 0x5D5 DUP2 PUSH2 0x5C0 JUMP JUMPDEST DUP3 MSTORE POP POP JUMP JUMPDEST PUSH1 0x0 PUSH1 0x20 DUP3 ADD SWAP1 POP PUSH2 0x5F0 PUSH1 0x0 DUP4 ADD DUP5 PUSH2 0x5CC JUMP JUMPDEST SWAP3 SWAP2 POP POP JUMP JUMPDEST PUSH1 0x0 DUP1 REVERT JUMPDEST PUSH1 0x0 DUP1 REVERT JUMPDEST PUSH1 0x0 PUSH1 0x80 DUP3 DUP5 SUB SLT ISZERO PUSH2 0x616 JUMPI PUSH2 0x615 PUSH2 0x5F6 JUMP JUMPDEST JUMPDEST PUSH2 0x620 PUSH1 0x80 PUSH2 0x354 JUMP JUMPDEST SWAP1 POP PUSH1 0x0 PUSH2 0x630 DUP5 DUP3 DUP6 ADD PUSH2 0x2C4 JUMP JUMPDEST PUSH1 0x0 DUP4 ADD MSTORE POP PUSH1 0x20 DUP3 ADD CALLDATALOAD PUSH8 0xFFFFFFFFFFFFFFFF DUP2 GT ISZERO PUSH2 0x654 JUMPI PUSH2 0x653 PUSH2 0x5FB JUMP JUMPDEST JUMPDEST PUSH2 0x660 DUP5 DUP3 DUP6 ADD PUSH2 0x3F1 JUMP JUMPDEST PUSH1 0x20 DUP4 ADD MSTORE POP PUSH1 0x40 DUP3 ADD CALLDATALOAD PUSH8 0xFFFFFFFFFFFFFFFF DUP2 GT ISZERO PUSH2 0x684 JUMPI PUSH2 0x683 PUSH2 0x5FB JUMP JUMPDEST JUMPDEST PUSH2 0x690 DUP5 DUP3 DUP6 ADD PUSH2 0x3F1 JUMP JUMPDEST PUSH1 0x40 DUP4 ADD MSTORE POP PUSH1 0x60 DUP3 ADD CALLDATALOAD PUSH8 0xFFFFFFFFFFFFFFFF DUP2 GT ISZERO PUSH2 0x6B4 JUMPI PUSH2 0x6B3 PUSH2 0x5FB JUMP JUMPDEST JUMPDEST PUSH2 0x6C0 DUP5 DUP3 DUP6 ADD PUSH2 0x3F1 JUMP JUMPDEST PUSH1 0x60 DUP4 ADD MSTORE POP SWAP3 SWAP2 POP POP JUMP JUMPDEST PUSH1 0x0 PUSH1 0x20 DUP3 DUP5 SUB SLT ISZERO PUSH2 0x6E2 JUMPI PUSH2 0x6E1 PUSH2 0x271 JUMP JUMPDEST JUMPDEST PUSH1 0x0 DUP3 ADD CALLDATALOAD PUSH8 0xFFFFFFFFFFFFFFFF DUP2 GT ISZERO PUSH2 0x700 JUMPI PUSH2 0x6FF PUSH2 0x276 JUMP JUMPDEST JUMPDEST PUSH2 0x70C DUP5 DUP3 DUP6 ADD PUSH2 0x600 JUMP JUMPDEST SWAP2 POP POP SWAP3 SWAP2 POP POP JUMP JUMPDEST PUSH1 0x0 PUSH1 0xA0 DUP3 DUP5 SUB SLT ISZERO PUSH2 0x72B JUMPI PUSH2 0x72A PUSH2 0x5F6 JUMP JUMPDEST JUMPDEST PUSH2 0x735 PUSH1 0xA0 PUSH2 0x354 JUMP JUMPDEST SWAP1 POP PUSH1 0x0 DUP3 ADD CALLDATALOAD PUSH8 0xFFFFFFFFFFFFFFFF DUP2 GT ISZERO PUSH2 0x755 JUMPI PUSH2 0x754 PUSH2 0x5FB JUMP JUMPDEST JUMPDEST PUSH2 0x761 DUP5 DUP3 DUP6 ADD PUSH2 0x3F1 JUMP JUMPDEST PUSH1 0x0 DUP4 ADD MSTORE POP PUSH1 0x20 DUP3 ADD CALLDATALOAD PUSH8 0xFFFFFFFFFFFFFFFF DUP2 GT ISZERO PUSH2 0x785 JUMPI PUSH2 0x784 PUSH2 0x5FB JUMP JUMPDEST JUMPDEST PUSH2 0x791 DUP5 DUP3 DUP6 ADD PUSH2 0x3F1 JUMP JUMPDEST PUSH1 0x20 DUP4 ADD MSTORE POP PUSH1 0x40 PUSH2 0x7A5 DUP5 DUP3 DUP6 ADD PUSH2 0x2C4 JUMP JUMPDEST PUSH1 0x40 DUP4 ADD MSTORE POP PUSH1 0x60 DUP3 ADD CALLDATALOAD PUSH8 0xFFFFFFFFFFFFFFFF DUP2 GT ISZERO PUSH2 0x7C9 JUMPI PUSH2 0x7C8 PUSH2 0x5FB JUMP JUMPDEST JUMPDEST PUSH2 0x7D5 DUP5 DUP3 DUP6 ADD PUSH2 0x3F1 JUMP JUMPDEST PUSH1 0x60 DUP4 ADD MSTORE POP PUSH1 0x80 DUP3 ADD CALLDATALOAD PUSH8 0xFFFFFFFFFFFFFFFF DUP2 GT ISZERO PUSH2 0x7F9 JUMPI PUSH2 0x7F8 PUSH2 0x5FB JUMP JUMPDEST JUMPDEST PUSH2 0x805 DUP5 DUP3 DUP6 ADD PUSH2 0x3F1 JUMP JUMPDEST PUSH1 0x80 DUP4 ADD MSTORE POP SWAP3 SWAP2 POP POP JUMP JUMPDEST PUSH1 0x0 PUSH1 0x20 DUP3 DUP5 SUB SLT ISZERO PUSH2 0x827 JUMPI PUSH2 0x826 PUSH2 0x271 JUMP JUMPDEST JUMPDEST PUSH1 0x0 DUP3 ADD CALLDATALOAD PUSH8 0xFFFFFFFFFFFFFFFF DUP2 GT ISZERO PUSH2 0x845 JUMPI PUSH2 0x844 PUSH2 0x276 JUMP JUMPDEST JUMPDEST PUSH2 0x851 DUP5 DUP3 DUP6 ADD PUSH2 0x715 JUMP JUMPDEST SWAP2 POP POP SWAP3 SWAP2 POP POP JUMP INVALID LOG2 PUSH5 0x6970667358 0x22 SLT KECCAK256 0xE7 0xCC 0xEB DUP13 GASPRICE SWAP8 0x4D BYTE 0x21 0x4F 0xA9 0xB0 0xB9 0xE3 SWAP3 PUSH8 0x3675B456036EB30E DIV BASEFEE 0xE SELFBALANCE 0xC4 CREATE2 PUSH9 0xC464736F6C63430008 SGT STOP CALLER "},"methodIdentifiers":{"fileParamValid((string,string,address,string,string))":"f4520b2c","validUserFields((address,string,string,string))":"e779f450","verifyValidFields(address,string,string,string[])":"c1f69fd6"}}}}}