{"contracts/Helper.sol":{"Helper":{"abi":[{"inputs":[{"components":[{"internalType":"string","name":"ipfsCID","type":"string"},{"internalType":"string","name":"fileName","type":"string"},{"internalType":"int256","name":"version","type":"int256"},{"internalType":"string","name":"prevIpfsCID","type":"string"},{"internalType":"address","name":"owner","type":"address"},{"internalType":"string","name":"fileType","type":"string"},{"internalType":"string","name":"iv","type":"string"},{"internalType":"string","name":"state","type":"string"},{"internalType":"string","name":"fileHash","type":"string"}],"internalType":"struct FileRegister.File","name":"file","type":"tuple"}],"name":"fileParamValid","outputs":[{"internalType":"bool","name":"","type":"bool"}],"stateMutability":"pure","type":"function"},{"inputs":[{"internalType":"address","name":"accountInput","type":"address"},{"internalType":"address","name":"accountList","type":"address"},{"internalType":"string","name":"ipfsCIDInput","type":"string"},{"internalType":"string","name":"ipfsCIDList","type":"string"}],"name":"isKeyEqual","outputs":[{"internalType":"bool","name":"","type":"bool"}],"stateMutability":"pure","type":"function"},{"inputs":[{"internalType":"string[]","name":"permissions","type":"string[]"}],"name":"stringArrayToString","outputs":[{"components":[{"internalType":"bool","name":"success","type":"bool"},{"internalType":"string","name":"resultString","type":"string"},{"internalType":"string","name":"message","type":"string"}],"internalType":"struct Helper.ResultString","name":"","type":"tuple"}],"stateMutability":"pure","type":"function"},{"inputs":[{"internalType":"string","name":"_str","type":"string"}],"name":"toLower","outputs":[{"internalType":"string","name":"","type":"string"}],"stateMutability":"pure","type":"function"},{"inputs":[{"internalType":"string[]","name":"permissions","type":"string[]"}],"name":"validPermissions","outputs":[{"internalType":"bool","name":"","type":"bool"}],"stateMutability":"pure","type":"function"},{"inputs":[{"components":[{"internalType":"address","name":"account","type":"address"},{"internalType":"string","name":"userName","type":"string"},{"internalType":"string","name":"mnemonic","type":"string"},{"internalType":"string","name":"publicKey","type":"string"}],"internalType":"struct UserRegister.User","name":"user","type":"tuple"}],"name":"validUserFields","outputs":[{"internalType":"bool","name":"","type":"bool"}],"stateMutability":"pure","type":"function"},{"inputs":[{"internalType":"address","name":"userAccount","type":"address"},{"internalType":"string","name":"fileIpfsCID","type":"string"},{"internalType":"string","name":"encSymmetricKey","type":"string"},{"internalType":"string[]","name":"permissions","type":"string[]"},{"internalType":"string","name":"state","type":"string"}],"name":"verifyValidFields","outputs":[{"internalType":"bool","name":"","type":"bool"}],"stateMutability":"pure","type":"function"}],"evm":{"bytecode":{"linkReferences":{},"object":"608060405234801561001057600080fd5b5061178e806100206000396000f3fe608060405234801561001057600080fd5b506004361061007d5760003560e01c80636bb8d7681161005b5780636bb8d768146101125780639416b42314610142578063bda49b1d14610172578063e779f450146101a25761007d565b80631c209e7c146100825780634294a5ad146100b25780635c99c71b146100e2575b600080fd5b61009c60048036038101906100979190610c00565b6101d2565b6040516100a99190610d06565b60405180910390f35b6100cc60048036038101906100c79190610f05565b61028e565b6040516100d99190610d06565b60405180910390f35b6100fc60048036038101906100f79190610f4e565b610363565b6040516101099190610d06565b60405180910390f35b61012c60048036038101906101279190610fed565b6103f5565b604051610139919061111b565b60405180910390f35b61015c6004803603810190610157919061113d565b6104ca565b60405161016991906111d0565b60405180910390f35b61018c60048036038101906101879190610fed565b6105ca565b6040516101999190610d06565b60405180910390f35b6101bc60048036038101906101b791906112be565b6108a0565b6040516101c99190610d06565b60405180910390f35b60008073ffffffffffffffffffffffffffffffffffffffff168673ffffffffffffffffffffffffffffffffffffffff161415801561023b57508573ffffffffffffffffffffffffffffffffffffffff168673ffffffffffffffffffffffffffffffffffffffff16145b801561024957506000855114155b801561025757506000845114155b801561026557506000835114155b8015610272575060008251145b156102805760019050610285565b600090505b95945050505050565b600080826000015151141580156102ab5750600082602001515114155b80156102bd575060008260a001515114155b80156102cf575060008260c001515114155b801561030c5750600073ffffffffffffffffffffffffffffffffffffffff16826080015173ffffffffffffffffffffffffffffffffffffffff1614155b801561034b5750816080015173ffffffffffffffffffffffffffffffffffffffff16826080015173ffffffffffffffffffffffffffffffffffffffff16145b15610359576001905061035e565b600090505b919050565b60008473ffffffffffffffffffffffffffffffffffffffff168473ffffffffffffffffffffffffffffffffffffffff161480156103eb5750826040516020016103ac9190611343565b60405160208183030381529060405280519060200120826040516020016103d39190611343565b60405160208183030381529060405280519060200120145b9050949350505050565b6103fd61093f565b606060005b8351811015610494578184828151811061041f5761041e61135a565b5b6020026020010151604051602001610438929190611389565b60405160208183030381529060405291506001845161045791906113e6565b811015610481578160405160200161046f9190611466565b60405160208183030381529060405291505b808061048c90611488565b915050610402565b50604051806060016040528060011515815260200182815260200160405180602001604052806000815250815250915050919050565b6060600082905060005b81518110156105c05760418282815181106104f2576104f161135a565b5b602001015160f81c60f81b60f81c60ff16101580156105355750605a8282815181106105215761052061135a565b5b602001015160f81c60f81b60f81c60ff1611155b156105ad57602082828151811061054f5761054e61135a565b5b602001015160f81c60f81b60f81c61056791906114dd565b60f81b82828151811061057d5761057c61135a565b5b60200101907effffffffffffffffffffffffffffffffffffffffffffffffffffffffffffff1916908160001a9053505b80806105b890611488565b9150506104d4565b5080915050919050565b600080600090505b8251811015610895576040516020016105ea9061155e565b604051602081830303815290604052805190602001208382815181106106135761061261135a565b5b602002602001015160405160200161062b9190611343565b60405160208183030381529060405280519060200120141580156106b35750604051602001610659906115bf565b604051602081830303815290604052805190602001208382815181106106825761068161135a565b5b602002602001015160405160200161069a9190611343565b6040516020818303038152906040528051906020012014155b801561072357506040516020016106c990611620565b604051602081830303815290604052805190602001208382815181106106f2576106f161135a565b5b602002602001015160405160200161070a9190611343565b6040516020818303038152906040528051906020012014155b8015610793575060405160200161073990611681565b604051602081830303815290604052805190602001208382815181106107625761076161135a565b5b602002602001015160405160200161077a9190611343565b6040516020818303038152906040528051906020012014155b801561080357506040516020016107a9906116e2565b604051602081830303815290604052805190602001208382815181106107d2576107d161135a565b5b60200260200101516040516020016107ea9190611343565b6040516020818303038152906040528051906020012014155b8015610873575060405160200161081990611743565b604051602081830303815290604052805190602001208382815181106108425761084161135a565b5b602002602001015160405160200161085a9190611343565b6040516020818303038152906040528051906020012014155b1561088257600091505061089b565b808061088d90611488565b9150506105d2565b50600190505b919050565b60008073ffffffffffffffffffffffffffffffffffffffff16826000015173ffffffffffffffffffffffffffffffffffffffff16141580156109155750816000015173ffffffffffffffffffffffffffffffffffffffff16826000015173ffffffffffffffffffffffffffffffffffffffff16145b80156109275750600082602001515114155b15610935576001905061093a565b600090505b919050565b604051806060016040528060001515815260200160608152602001606081525090565b6000604051905090565b600080fd5b600080fd5b600073ffffffffffffffffffffffffffffffffffffffff82169050919050565b60006109a182610976565b9050919050565b6109b181610996565b81146109bc57600080fd5b50565b6000813590506109ce816109a8565b92915050565b600080fd5b600080fd5b6000601f19601f8301169050919050565b7f4e487b7100000000000000000000000000000000000000000000000000000000600052604160045260246000fd5b610a27826109de565b810181811067ffffffffffffffff82111715610a4657610a456109ef565b5b80604052505050565b6000610a59610962565b9050610a658282610a1e565b919050565b600067ffffffffffffffff821115610a8557610a846109ef565b5b610a8e826109de565b9050602081019050919050565b82818337600083830152505050565b6000610abd610ab884610a6a565b610a4f565b905082815260208101848484011115610ad957610ad86109d9565b5b610ae4848285610a9b565b509392505050565b600082601f830112610b0157610b006109d4565b5b8135610b11848260208601610aaa565b91505092915050565b600067ffffffffffffffff821115610b3557610b346109ef565b5b602082029050602081019050919050565b600080fd5b6000610b5e610b5984610b1a565b610a4f565b90508083825260208201905060208402830185811115610b8157610b80610b46565b5b835b81811015610bc857803567ffffffffffffffff811115610ba657610ba56109d4565b5b808601610bb38982610aec565b85526020850194505050602081019050610b83565b5050509392505050565b600082601f830112610be757610be66109d4565b5b8135610bf7848260208601610b4b565b91505092915050565b600080600080600060a08688031215610c1c57610c1b61096c565b5b6000610c2a888289016109bf565b955050602086013567ffffffffffffffff811115610c4b57610c4a610971565b5b610c5788828901610aec565b945050604086013567ffffffffffffffff811115610c7857610c77610971565b5b610c8488828901610aec565b935050606086013567ffffffffffffffff811115610ca557610ca4610971565b5b610cb188828901610bd2565b925050608086013567ffffffffffffffff811115610cd257610cd1610971565b5b610cde88828901610aec565b9150509295509295909350565b60008115159050919050565b610d0081610ceb565b82525050565b6000602082019050610d1b6000830184610cf7565b92915050565b600080fd5b600080fd5b6000819050919050565b610d3e81610d2b565b8114610d4957600080fd5b50565b600081359050610d5b81610d35565b92915050565b60006101208284031215610d7857610d77610d21565b5b610d83610120610a4f565b9050600082013567ffffffffffffffff811115610da357610da2610d26565b5b610daf84828501610aec565b600083015250602082013567ffffffffffffffff811115610dd357610dd2610d26565b5b610ddf84828501610aec565b6020830152506040610df384828501610d4c565b604083015250606082013567ffffffffffffffff811115610e1757610e16610d26565b5b610e2384828501610aec565b6060830152506080610e37848285016109bf565b60808301525060a082013567ffffffffffffffff811115610e5b57610e5a610d26565b5b610e6784828501610aec565b60a08301525060c082013567ffffffffffffffff811115610e8b57610e8a610d26565b5b610e9784828501610aec565b60c08301525060e082013567ffffffffffffffff811115610ebb57610eba610d26565b5b610ec784828501610aec565b60e08301525061010082013567ffffffffffffffff811115610eec57610eeb610d26565b5b610ef884828501610aec565b6101008301525092915050565b600060208284031215610f1b57610f1a61096c565b5b600082013567ffffffffffffffff811115610f3957610f38610971565b5b610f4584828501610d61565b91505092915050565b60008060008060808587031215610f6857610f6761096c565b5b6000610f76878288016109bf565b9450506020610f87878288016109bf565b935050604085013567ffffffffffffffff811115610fa857610fa7610971565b5b610fb487828801610aec565b925050606085013567ffffffffffffffff811115610fd557610fd4610971565b5b610fe187828801610aec565b91505092959194509250565b6000602082840312156110035761100261096c565b5b600082013567ffffffffffffffff81111561102157611020610971565b5b61102d84828501610bd2565b91505092915050565b61103f81610ceb565b82525050565b600081519050919050565b600082825260208201905092915050565b60005b8381101561107f578082015181840152602081019050611064565b60008484015250505050565b600061109682611045565b6110a08185611050565b93506110b0818560208601611061565b6110b9816109de565b840191505092915050565b60006060830160008301516110dc6000860182611036565b50602083015184820360208601526110f4828261108b565b9150506040830151848203604086015261110e828261108b565b9150508091505092915050565b6000602082019050818103600083015261113581846110c4565b905092915050565b6000602082840312156111535761115261096c565b5b600082013567ffffffffffffffff81111561117157611170610971565b5b61117d84828501610aec565b91505092915050565b600082825260208201905092915050565b60006111a282611045565b6111ac8185611186565b93506111bc818560208601611061565b6111c5816109de565b840191505092915050565b600060208201905081810360008301526111ea8184611197565b905092915050565b60006080828403121561120857611207610d21565b5b6112126080610a4f565b90506000611222848285016109bf565b600083015250602082013567ffffffffffffffff81111561124657611245610d26565b5b61125284828501610aec565b602083015250604082013567ffffffffffffffff81111561127657611275610d26565b5b61128284828501610aec565b604083015250606082013567ffffffffffffffff8111156112a6576112a5610d26565b5b6112b284828501610aec565b60608301525092915050565b6000602082840312156112d4576112d361096c565b5b600082013567ffffffffffffffff8111156112f2576112f1610971565b5b6112fe848285016111f2565b91505092915050565b600081905092915050565b600061131d82611045565b6113278185611307565b9350611337818560208601611061565b80840191505092915050565b600061134f8284611312565b915081905092915050565b7f4e487b7100000000000000000000000000000000000000000000000000000000600052603260045260246000fd5b60006113958285611312565b91506113a18284611312565b91508190509392505050565b6000819050919050565b7f4e487b7100000000000000000000000000000000000000000000000000000000600052601160045260246000fd5b60006113f1826113ad565b91506113fc836113ad565b9250828203905081811115611414576114136113b7565b5b92915050565b7f2c20000000000000000000000000000000000000000000000000000000000000600082015250565b6000611450600283611307565b915061145b8261141a565b600282019050919050565b60006114728284611312565b915061147d82611443565b915081905092915050565b6000611493826113ad565b91507fffffffffffffffffffffffffffffffffffffffffffffffffffffffffffffffff82036114c5576114c46113b7565b5b600182019050919050565b600060ff82169050919050565b60006114e8826114d0565b91506114f3836114d0565b9250828201905060ff81111561150c5761150b6113b7565b5b92915050565b7f646f776e6c6f6164000000000000000000000000000000000000000000000000600082015250565b6000611548600883611307565b915061155382611512565b600882019050919050565b60006115698261153b565b9150819050919050565b7f6564697400000000000000000000000000000000000000000000000000000000600082015250565b60006115a9600483611307565b91506115b482611573565b600482019050919050565b60006115ca8261159c565b9150819050919050565b7f64656c6574650000000000000000000000000000000000000000000000000000600082015250565b600061160a600683611307565b9150611615826115d4565b600682019050919050565b600061162b826115fd565b9150819050919050565b7f7368617265000000000000000000000000000000000000000000000000000000600082015250565b600061166b600583611307565b915061167682611635565b600582019050919050565b600061168c8261165e565b9150819050919050565b7f7665726966790000000000000000000000000000000000000000000000000000600082015250565b60006116cc600683611307565b91506116d782611696565b600682019050919050565b60006116ed826116bf565b9150819050919050565b7f696e666f00000000000000000000000000000000000000000000000000000000600082015250565b600061172d600483611307565b9150611738826116f7565b600482019050919050565b600061174e82611720565b915081905091905056fea26469706673582212206ff47fd5be4959b2258124a25a26bb5286c676ffd0bcf39aebe583711d7507a864736f6c63430008130033","opcodes":"PUSH1 0x80 PUSH1 0x40 MSTORE CALLVALUE DUP1 ISZERO PUSH2 0x10 JUMPI PUSH1 0x0 DUP1 REVERT JUMPDEST POP PUSH2 0x178E DUP1 PUSH2 0x20 PUSH1 0x0 CODECOPY PUSH1 0x0 RETURN INVALID PUSH1 0x80 PUSH1 0x40 MSTORE CALLVALUE DUP1 ISZERO PUSH2 0x10 JUMPI PUSH1 0x0 DUP1 REVERT JUMPDEST POP PUSH1 0x4 CALLDATASIZE LT PUSH2 0x7D JUMPI PUSH1 0x0 CALLDATALOAD PUSH1 0xE0 SHR DUP1 PUSH4 0x6BB8D768 GT PUSH2 0x5B JUMPI DUP1 PUSH4 0x6BB8D768 EQ PUSH2 0x112 JUMPI DUP1 PUSH4 0x9416B423 EQ PUSH2 0x142 JUMPI DUP1 PUSH4 0xBDA49B1D EQ PUSH2 0x172 JUMPI DUP1 PUSH4 0xE779F450 EQ PUSH2 0x1A2 JUMPI PUSH2 0x7D JUMP JUMPDEST DUP1 PUSH4 0x1C209E7C EQ PUSH2 0x82 JUMPI DUP1 PUSH4 0x4294A5AD EQ PUSH2 0xB2 JUMPI DUP1 PUSH4 0x5C99C71B EQ PUSH2 0xE2 JUMPI JUMPDEST PUSH1 0x0 DUP1 REVERT JUMPDEST PUSH2 0x9C PUSH1 0x4 DUP1 CALLDATASIZE SUB DUP2 ADD SWAP1 PUSH2 0x97 SWAP2 SWAP1 PUSH2 0xC00 JUMP JUMPDEST PUSH2 0x1D2 JUMP JUMPDEST PUSH1 0x40 MLOAD PUSH2 0xA9 SWAP2 SWAP1 PUSH2 0xD06 JUMP JUMPDEST PUSH1 0x40 MLOAD DUP1 SWAP2 SUB SWAP1 RETURN JUMPDEST PUSH2 0xCC PUSH1 0x4 DUP1 CALLDATASIZE SUB DUP2 ADD SWAP1 PUSH2 0xC7 SWAP2 SWAP1 PUSH2 0xF05 JUMP JUMPDEST PUSH2 0x28E JUMP JUMPDEST PUSH1 0x40 MLOAD PUSH2 0xD9 SWAP2 SWAP1 PUSH2 0xD06 JUMP JUMPDEST PUSH1 0x40 MLOAD DUP1 SWAP2 SUB SWAP1 RETURN JUMPDEST PUSH2 0xFC PUSH1 0x4 DUP1 CALLDATASIZE SUB DUP2 ADD SWAP1 PUSH2 0xF7 SWAP2 SWAP1 PUSH2 0xF4E JUMP JUMPDEST PUSH2 0x363 JUMP JUMPDEST PUSH1 0x40 MLOAD PUSH2 0x109 SWAP2 SWAP1 PUSH2 0xD06 JUMP JUMPDEST PUSH1 0x40 MLOAD DUP1 SWAP2 SUB SWAP1 RETURN JUMPDEST PUSH2 0x12C PUSH1 0x4 DUP1 CALLDATASIZE SUB DUP2 ADD SWAP1 PUSH2 0x127 SWAP2 SWAP1 PUSH2 0xFED JUMP JUMPDEST PUSH2 0x3F5 JUMP JUMPDEST PUSH1 0x40 MLOAD PUSH2 0x139 SWAP2 SWAP1 PUSH2 0x111B JUMP JUMPDEST PUSH1 0x40 MLOAD DUP1 SWAP2 SUB SWAP1 RETURN JUMPDEST PUSH2 0x15C PUSH1 0x4 DUP1 CALLDATASIZE SUB DUP2 ADD SWAP1 PUSH2 0x157 SWAP2 SWAP1 PUSH2 0x113D JUMP JUMPDEST PUSH2 0x4CA JUMP JUMPDEST PUSH1 0x40 MLOAD PUSH2 0x169 SWAP2 SWAP1 PUSH2 0x11D0 JUMP JUMPDEST PUSH1 0x40 MLOAD DUP1 SWAP2 SUB SWAP1 RETURN JUMPDEST PUSH2 0x18C PUSH1 0x4 DUP1 CALLDATASIZE SUB DUP2 ADD SWAP1 PUSH2 0x187 SWAP2 SWAP1 PUSH2 0xFED JUMP JUMPDEST PUSH2 0x5CA JUMP JUMPDEST PUSH1 0x40 MLOAD PUSH2 0x199 SWAP2 SWAP1 PUSH2 0xD06 JUMP JUMPDEST PUSH1 0x40 MLOAD DUP1 SWAP2 SUB SWAP1 RETURN JUMPDEST PUSH2 0x1BC PUSH1 0x4 DUP1 CALLDATASIZE SUB DUP2 ADD SWAP1 PUSH2 0x1B7 SWAP2 SWAP1 PUSH2 0x12BE JUMP JUMPDEST PUSH2 0x8A0 JUMP JUMPDEST PUSH1 0x40 MLOAD PUSH2 0x1C9 SWAP2 SWAP1 PUSH2 0xD06 JUMP JUMPDEST PUSH1 0x40 MLOAD DUP1 SWAP2 SUB SWAP1 RETURN JUMPDEST PUSH1 0x0 DUP1 PUSH20 0xFFFFFFFFFFFFFFFFFFFFFFFFFFFFFFFFFFFFFFFF AND DUP7 PUSH20 0xFFFFFFFFFFFFFFFFFFFFFFFFFFFFFFFFFFFFFFFF AND EQ ISZERO DUP1 ISZERO PUSH2 0x23B JUMPI POP DUP6 PUSH20 0xFFFFFFFFFFFFFFFFFFFFFFFFFFFFFFFFFFFFFFFF AND DUP7 PUSH20 0xFFFFFFFFFFFFFFFFFFFFFFFFFFFFFFFFFFFFFFFF AND EQ JUMPDEST DUP1 ISZERO PUSH2 0x249 JUMPI POP PUSH1 0x0 DUP6 MLOAD EQ ISZERO JUMPDEST DUP1 ISZERO PUSH2 0x257 JUMPI POP PUSH1 0x0 DUP5 MLOAD EQ ISZERO JUMPDEST DUP1 ISZERO PUSH2 0x265 JUMPI POP PUSH1 0x0 DUP4 MLOAD EQ ISZERO JUMPDEST DUP1 ISZERO PUSH2 0x272 JUMPI POP PUSH1 0x0 DUP3 MLOAD EQ JUMPDEST ISZERO PUSH2 0x280 JUMPI PUSH1 0x1 SWAP1 POP PUSH2 0x285 JUMP JUMPDEST PUSH1 0x0 SWAP1 POP JUMPDEST SWAP6 SWAP5 POP POP POP POP POP JUMP JUMPDEST PUSH1 0x0 DUP1 DUP3 PUSH1 0x0 ADD MLOAD MLOAD EQ ISZERO DUP1 ISZERO PUSH2 0x2AB JUMPI POP PUSH1 0x0 DUP3 PUSH1 0x20 ADD MLOAD MLOAD EQ ISZERO JUMPDEST DUP1 ISZERO PUSH2 0x2BD JUMPI POP PUSH1 0x0 DUP3 PUSH1 0xA0 ADD MLOAD MLOAD EQ ISZERO JUMPDEST DUP1 ISZERO PUSH2 0x2CF JUMPI POP PUSH1 0x0 DUP3 PUSH1 0xC0 ADD MLOAD MLOAD EQ ISZERO JUMPDEST DUP1 ISZERO PUSH2 0x30C JUMPI POP PUSH1 0x0 PUSH20 0xFFFFFFFFFFFFFFFFFFFFFFFFFFFFFFFFFFFFFFFF AND DUP3 PUSH1 0x80 ADD MLOAD PUSH20 0xFFFFFFFFFFFFFFFFFFFFFFFFFFFFFFFFFFFFFFFF AND EQ ISZERO JUMPDEST DUP1 ISZERO PUSH2 0x34B JUMPI POP DUP2 PUSH1 0x80 ADD MLOAD PUSH20 0xFFFFFFFFFFFFFFFFFFFFFFFFFFFFFFFFFFFFFFFF AND DUP3 PUSH1 0x80 ADD MLOAD PUSH20 0xFFFFFFFFFFFFFFFFFFFFFFFFFFFFFFFFFFFFFFFF AND EQ JUMPDEST ISZERO PUSH2 0x359 JUMPI PUSH1 0x1 SWAP1 POP PUSH2 0x35E JUMP JUMPDEST PUSH1 0x0 SWAP1 POP JUMPDEST SWAP2 SWAP1 POP JUMP JUMPDEST PUSH1 0x0 DUP5 PUSH20 0xFFFFFFFFFFFFFFFFFFFFFFFFFFFFFFFFFFFFFFFF AND DUP5 PUSH20 0xFFFFFFFFFFFFFFFFFFFFFFFFFFFFFFFFFFFFFFFF AND EQ DUP1 ISZERO PUSH2 0x3EB JUMPI POP DUP3 PUSH1 0x40 MLOAD PUSH1 0x20 ADD PUSH2 0x3AC SWAP2 SWAP1 PUSH2 0x1343 JUMP JUMPDEST PUSH1 0x40 MLOAD PUSH1 0x20 DUP2 DUP4 SUB SUB DUP2 MSTORE SWAP1 PUSH1 0x40 MSTORE DUP1 MLOAD SWAP1 PUSH1 0x20 ADD KECCAK256 DUP3 PUSH1 0x40 MLOAD PUSH1 0x20 ADD PUSH2 0x3D3 SWAP2 SWAP1 PUSH2 0x1343 JUMP JUMPDEST PUSH1 0x40 MLOAD PUSH1 0x20 DUP2 DUP4 SUB SUB DUP2 MSTORE SWAP1 PUSH1 0x40 MSTORE DUP1 MLOAD SWAP1 PUSH1 0x20 ADD KECCAK256 EQ JUMPDEST SWAP1 POP SWAP5 SWAP4 POP POP POP POP JUMP JUMPDEST PUSH2 0x3FD PUSH2 0x93F JUMP JUMPDEST PUSH1 0x60 PUSH1 0x0 JUMPDEST DUP4 MLOAD DUP2 LT ISZERO PUSH2 0x494 JUMPI DUP2 DUP5 DUP3 DUP2 MLOAD DUP2 LT PUSH2 0x41F JUMPI PUSH2 0x41E PUSH2 0x135A JUMP JUMPDEST JUMPDEST PUSH1 0x20 MUL PUSH1 0x20 ADD ADD MLOAD PUSH1 0x40 MLOAD PUSH1 0x20 ADD PUSH2 0x438 SWAP3 SWAP2 SWAP1 PUSH2 0x1389 JUMP JUMPDEST PUSH1 0x40 MLOAD PUSH1 0x20 DUP2 DUP4 SUB SUB DUP2 MSTORE SWAP1 PUSH1 0x40 MSTORE SWAP2 POP PUSH1 0x1 DUP5 MLOAD PUSH2 0x457 SWAP2 SWAP1 PUSH2 0x13E6 JUMP JUMPDEST DUP2 LT ISZERO PUSH2 0x481 JUMPI DUP2 PUSH1 0x40 MLOAD PUSH1 0x20 ADD PUSH2 0x46F SWAP2 SWAP1 PUSH2 0x1466 JUMP JUMPDEST PUSH1 0x40 MLOAD PUSH1 0x20 DUP2 DUP4 SUB SUB DUP2 MSTORE SWAP1 PUSH1 0x40 MSTORE SWAP2 POP JUMPDEST DUP1 DUP1 PUSH2 0x48C SWAP1 PUSH2 0x1488 JUMP JUMPDEST SWAP2 POP POP PUSH2 0x402 JUMP JUMPDEST POP PUSH1 0x40 MLOAD DUP1 PUSH1 0x60 ADD PUSH1 0x40 MSTORE DUP1 PUSH1 0x1 ISZERO ISZERO DUP2 MSTORE PUSH1 0x20 ADD DUP3 DUP2 MSTORE PUSH1 0x20 ADD PUSH1 0x40 MLOAD DUP1 PUSH1 0x20 ADD PUSH1 0x40 MSTORE DUP1 PUSH1 0x0 DUP2 MSTORE POP DUP2 MSTORE POP SWAP2 POP POP SWAP2 SWAP1 POP JUMP JUMPDEST PUSH1 0x60 PUSH1 0x0 DUP3 SWAP1 POP PUSH1 0x0 JUMPDEST DUP2 MLOAD DUP2 LT ISZERO PUSH2 0x5C0 JUMPI PUSH1 0x41 DUP3 DUP3 DUP2 MLOAD DUP2 LT PUSH2 0x4F2 JUMPI PUSH2 0x4F1 PUSH2 0x135A JUMP JUMPDEST JUMPDEST PUSH1 0x20 ADD ADD MLOAD PUSH1 0xF8 SHR PUSH1 0xF8 SHL PUSH1 0xF8 SHR PUSH1 0xFF AND LT ISZERO DUP1 ISZERO PUSH2 0x535 JUMPI POP PUSH1 0x5A DUP3 DUP3 DUP2 MLOAD DUP2 LT PUSH2 0x521 JUMPI PUSH2 0x520 PUSH2 0x135A JUMP JUMPDEST JUMPDEST PUSH1 0x20 ADD ADD MLOAD PUSH1 0xF8 SHR PUSH1 0xF8 SHL PUSH1 0xF8 SHR PUSH1 0xFF AND GT ISZERO JUMPDEST ISZERO PUSH2 0x5AD JUMPI PUSH1 0x20 DUP3 DUP3 DUP2 MLOAD DUP2 LT PUSH2 0x54F JUMPI PUSH2 0x54E PUSH2 0x135A JUMP JUMPDEST JUMPDEST PUSH1 0x20 ADD ADD MLOAD PUSH1 0xF8 SHR PUSH1 0xF8 SHL PUSH1 0xF8 SHR PUSH2 0x567 SWAP2 SWAP1 PUSH2 0x14DD JUMP JUMPDEST PUSH1 0xF8 SHL DUP3 DUP3 DUP2 MLOAD DUP2 LT PUSH2 0x57D JUMPI PUSH2 0x57C PUSH2 0x135A JUMP JUMPDEST JUMPDEST PUSH1 0x20 ADD ADD SWAP1 PUSH31 0xFFFFFFFFFFFFFFFFFFFFFFFFFFFFFFFFFFFFFFFFFFFFFFFFFFFFFFFFFFFFFF NOT AND SWAP1 DUP2 PUSH1 0x0 BYTE SWAP1 MSTORE8 POP JUMPDEST DUP1 DUP1 PUSH2 0x5B8 SWAP1 PUSH2 0x1488 JUMP JUMPDEST SWAP2 POP POP PUSH2 0x4D4 JUMP JUMPDEST POP DUP1 SWAP2 POP POP SWAP2 SWAP1 POP JUMP JUMPDEST PUSH1 0x0 DUP1 PUSH1 0x0 SWAP1 POP JUMPDEST DUP3 MLOAD DUP2 LT ISZERO PUSH2 0x895 JUMPI PUSH1 0x40 MLOAD PUSH1 0x20 ADD PUSH2 0x5EA SWAP1 PUSH2 0x155E JUMP JUMPDEST PUSH1 0x40 MLOAD PUSH1 0x20 DUP2 DUP4 SUB SUB DUP2 MSTORE SWAP1 PUSH1 0x40 MSTORE DUP1 MLOAD SWAP1 PUSH1 0x20 ADD KECCAK256 DUP4 DUP3 DUP2 MLOAD DUP2 LT PUSH2 0x613 JUMPI PUSH2 0x612 PUSH2 0x135A JUMP JUMPDEST JUMPDEST PUSH1 0x20 MUL PUSH1 0x20 ADD ADD MLOAD PUSH1 0x40 MLOAD PUSH1 0x20 ADD PUSH2 0x62B SWAP2 SWAP1 PUSH2 0x1343 JUMP JUMPDEST PUSH1 0x40 MLOAD PUSH1 0x20 DUP2 DUP4 SUB SUB DUP2 MSTORE SWAP1 PUSH1 0x40 MSTORE DUP1 MLOAD SWAP1 PUSH1 0x20 ADD KECCAK256 EQ ISZERO DUP1 ISZERO PUSH2 0x6B3 JUMPI POP PUSH1 0x40 MLOAD PUSH1 0x20 ADD PUSH2 0x659 SWAP1 PUSH2 0x15BF JUMP JUMPDEST PUSH1 0x40 MLOAD PUSH1 0x20 DUP2 DUP4 SUB SUB DUP2 MSTORE SWAP1 PUSH1 0x40 MSTORE DUP1 MLOAD SWAP1 PUSH1 0x20 ADD KECCAK256 DUP4 DUP3 DUP2 MLOAD DUP2 LT PUSH2 0x682 JUMPI PUSH2 0x681 PUSH2 0x135A JUMP JUMPDEST JUMPDEST PUSH1 0x20 MUL PUSH1 0x20 ADD ADD MLOAD PUSH1 0x40 MLOAD PUSH1 0x20 ADD PUSH2 0x69A SWAP2 SWAP1 PUSH2 0x1343 JUMP JUMPDEST PUSH1 0x40 MLOAD PUSH1 0x20 DUP2 DUP4 SUB SUB DUP2 MSTORE SWAP1 PUSH1 0x40 MSTORE DUP1 MLOAD SWAP1 PUSH1 0x20 ADD KECCAK256 EQ ISZERO JUMPDEST DUP1 ISZERO PUSH2 0x723 JUMPI POP PUSH1 0x40 MLOAD PUSH1 0x20 ADD PUSH2 0x6C9 SWAP1 PUSH2 0x1620 JUMP JUMPDEST PUSH1 0x40 MLOAD PUSH1 0x20 DUP2 DUP4 SUB SUB DUP2 MSTORE SWAP1 PUSH1 0x40 MSTORE DUP1 MLOAD SWAP1 PUSH1 0x20 ADD KECCAK256 DUP4 DUP3 DUP2 MLOAD DUP2 LT PUSH2 0x6F2 JUMPI PUSH2 0x6F1 PUSH2 0x135A JUMP JUMPDEST JUMPDEST PUSH1 0x20 MUL PUSH1 0x20 ADD ADD MLOAD PUSH1 0x40 MLOAD PUSH1 0x20 ADD PUSH2 0x70A SWAP2 SWAP1 PUSH2 0x1343 JUMP JUMPDEST PUSH1 0x40 MLOAD PUSH1 0x20 DUP2 DUP4 SUB SUB DUP2 MSTORE SWAP1 PUSH1 0x40 MSTORE DUP1 MLOAD SWAP1 PUSH1 0x20 ADD KECCAK256 EQ ISZERO JUMPDEST DUP1 ISZERO PUSH2 0x793 JUMPI POP PUSH1 0x40 MLOAD PUSH1 0x20 ADD PUSH2 0x739 SWAP1 PUSH2 0x1681 JUMP JUMPDEST PUSH1 0x40 MLOAD PUSH1 0x20 DUP2 DUP4 SUB SUB DUP2 MSTORE SWAP1 PUSH1 0x40 MSTORE DUP1 MLOAD SWAP1 PUSH1 0x20 ADD KECCAK256 DUP4 DUP3 DUP2 MLOAD DUP2 LT PUSH2 0x762 JUMPI PUSH2 0x761 PUSH2 0x135A JUMP JUMPDEST JUMPDEST PUSH1 0x20 MUL PUSH1 0x20 ADD ADD MLOAD PUSH1 0x40 MLOAD PUSH1 0x20 ADD PUSH2 0x77A SWAP2 SWAP1 PUSH2 0x1343 JUMP JUMPDEST PUSH1 0x40 MLOAD PUSH1 0x20 DUP2 DUP4 SUB SUB DUP2 MSTORE SWAP1 PUSH1 0x40 MSTORE DUP1 MLOAD SWAP1 PUSH1 0x20 ADD KECCAK256 EQ ISZERO JUMPDEST DUP1 ISZERO PUSH2 0x803 JUMPI POP PUSH1 0x40 MLOAD PUSH1 0x20 ADD PUSH2 0x7A9 SWAP1 PUSH2 0x16E2 JUMP JUMPDEST PUSH1 0x40 MLOAD PUSH1 0x20 DUP2 DUP4 SUB SUB DUP2 MSTORE SWAP1 PUSH1 0x40 MSTORE DUP1 MLOAD SWAP1 PUSH1 0x20 ADD KECCAK256 DUP4 DUP3 DUP2 MLOAD DUP2 LT PUSH2 0x7D2 JUMPI PUSH2 0x7D1 PUSH2 0x135A JUMP JUMPDEST JUMPDEST PUSH1 0x20 MUL PUSH1 0x20 ADD ADD MLOAD PUSH1 0x40 MLOAD PUSH1 0x20 ADD PUSH2 0x7EA SWAP2 SWAP1 PUSH2 0x1343 JUMP JUMPDEST PUSH1 0x40 MLOAD PUSH1 0x20 DUP2 DUP4 SUB SUB DUP2 MSTORE SWAP1 PUSH1 0x40 MSTORE DUP1 MLOAD SWAP1 PUSH1 0x20 ADD KECCAK256 EQ ISZERO JUMPDEST DUP1 ISZERO PUSH2 0x873 JUMPI POP PUSH1 0x40 MLOAD PUSH1 0x20 ADD PUSH2 0x819 SWAP1 PUSH2 0x1743 JUMP JUMPDEST PUSH1 0x40 MLOAD PUSH1 0x20 DUP2 DUP4 SUB SUB DUP2 MSTORE SWAP1 PUSH1 0x40 MSTORE DUP1 MLOAD SWAP1 PUSH1 0x20 ADD KECCAK256 DUP4 DUP3 DUP2 MLOAD DUP2 LT PUSH2 0x842 JUMPI PUSH2 0x841 PUSH2 0x135A JUMP JUMPDEST JUMPDEST PUSH1 0x20 MUL PUSH1 0x20 ADD ADD MLOAD PUSH1 0x40 MLOAD PUSH1 0x20 ADD PUSH2 0x85A SWAP2 SWAP1 PUSH2 0x1343 JUMP JUMPDEST PUSH1 0x40 MLOAD PUSH1 0x20 DUP2 DUP4 SUB SUB DUP2 MSTORE SWAP1 PUSH1 0x40 MSTORE DUP1 MLOAD SWAP1 PUSH1 0x20 ADD KECCAK256 EQ ISZERO JUMPDEST ISZERO PUSH2 0x882 JUMPI PUSH1 0x0 SWAP2 POP POP PUSH2 0x89B JUMP JUMPDEST DUP1 DUP1 PUSH2 0x88D SWAP1 PUSH2 0x1488 JUMP JUMPDEST SWAP2 POP POP PUSH2 0x5D2 JUMP JUMPDEST POP PUSH1 0x1 SWAP1 POP JUMPDEST SWAP2 SWAP1 POP JUMP JUMPDEST PUSH1 0x0 DUP1 PUSH20 0xFFFFFFFFFFFFFFFFFFFFFFFFFFFFFFFFFFFFFFFF AND DUP3 PUSH1 0x0 ADD MLOAD PUSH20 0xFFFFFFFFFFFFFFFFFFFFFFFFFFFFFFFFFFFFFFFF AND EQ ISZERO DUP1 ISZERO PUSH2 0x915 JUMPI POP DUP2 PUSH1 0x0 ADD MLOAD PUSH20 0xFFFFFFFFFFFFFFFFFFFFFFFFFFFFFFFFFFFFFFFF AND DUP3 PUSH1 0x0 ADD MLOAD PUSH20 0xFFFFFFFFFFFFFFFFFFFFFFFFFFFFFFFFFFFFFFFF AND EQ JUMPDEST DUP1 ISZERO PUSH2 0x927 JUMPI POP PUSH1 0x0 DUP3 PUSH1 0x20 ADD MLOAD MLOAD EQ ISZERO JUMPDEST ISZERO PUSH2 0x935 JUMPI PUSH1 0x1 SWAP1 POP PUSH2 0x93A JUMP JUMPDEST PUSH1 0x0 SWAP1 POP JUMPDEST SWAP2 SWAP1 POP JUMP JUMPDEST PUSH1 0x40 MLOAD DUP1 PUSH1 0x60 ADD PUSH1 0x40 MSTORE DUP1 PUSH1 0x0 ISZERO ISZERO DUP2 MSTORE PUSH1 0x20 ADD PUSH1 0x60 DUP2 MSTORE PUSH1 0x20 ADD PUSH1 0x60 DUP2 MSTORE POP SWAP1 JUMP JUMPDEST PUSH1 0x0 PUSH1 0x40 MLOAD SWAP1 POP SWAP1 JUMP JUMPDEST PUSH1 0x0 DUP1 REVERT JUMPDEST PUSH1 0x0 DUP1 REVERT JUMPDEST PUSH1 0x0 PUSH20 0xFFFFFFFFFFFFFFFFFFFFFFFFFFFFFFFFFFFFFFFF DUP3 AND SWAP1 POP SWAP2 SWAP1 POP JUMP JUMPDEST PUSH1 0x0 PUSH2 0x9A1 DUP3 PUSH2 0x976 JUMP JUMPDEST SWAP1 POP SWAP2 SWAP1 POP JUMP JUMPDEST PUSH2 0x9B1 DUP2 PUSH2 0x996 JUMP JUMPDEST DUP2 EQ PUSH2 0x9BC JUMPI PUSH1 0x0 DUP1 REVERT JUMPDEST POP JUMP JUMPDEST PUSH1 0x0 DUP2 CALLDATALOAD SWAP1 POP PUSH2 0x9CE DUP2 PUSH2 0x9A8 JUMP JUMPDEST SWAP3 SWAP2 POP POP JUMP JUMPDEST PUSH1 0x0 DUP1 REVERT JUMPDEST PUSH1 0x0 DUP1 REVERT JUMPDEST PUSH1 0x0 PUSH1 0x1F NOT PUSH1 0x1F DUP4 ADD AND SWAP1 POP SWAP2 SWAP1 POP JUMP JUMPDEST PUSH32 0x4E487B7100000000000000000000000000000000000000000000000000000000 PUSH1 0x0 MSTORE PUSH1 0x41 PUSH1 0x4 MSTORE PUSH1 0x24 PUSH1 0x0 REVERT JUMPDEST PUSH2 0xA27 DUP3 PUSH2 0x9DE JUMP JUMPDEST DUP2 ADD DUP2 DUP2 LT PUSH8 0xFFFFFFFFFFFFFFFF DUP3 GT OR ISZERO PUSH2 0xA46 JUMPI PUSH2 0xA45 PUSH2 0x9EF JUMP JUMPDEST JUMPDEST DUP1 PUSH1 0x40 MSTORE POP POP POP JUMP JUMPDEST PUSH1 0x0 PUSH2 0xA59 PUSH2 0x962 JUMP JUMPDEST SWAP1 POP PUSH2 0xA65 DUP3 DUP3 PUSH2 0xA1E JUMP JUMPDEST SWAP2 SWAP1 POP JUMP JUMPDEST PUSH1 0x0 PUSH8 0xFFFFFFFFFFFFFFFF DUP3 GT ISZERO PUSH2 0xA85 JUMPI PUSH2 0xA84 PUSH2 0x9EF JUMP JUMPDEST JUMPDEST PUSH2 0xA8E DUP3 PUSH2 0x9DE JUMP JUMPDEST SWAP1 POP PUSH1 0x20 DUP2 ADD SWAP1 POP SWAP2 SWAP1 POP JUMP JUMPDEST DUP3 DUP2 DUP4 CALLDATACOPY PUSH1 0x0 DUP4 DUP4 ADD MSTORE POP POP POP JUMP JUMPDEST PUSH1 0x0 PUSH2 0xABD PUSH2 0xAB8 DUP5 PUSH2 0xA6A JUMP JUMPDEST PUSH2 0xA4F JUMP JUMPDEST SWAP1 POP DUP3 DUP2 MSTORE PUSH1 0x20 DUP2 ADD DUP5 DUP5 DUP5 ADD GT ISZERO PUSH2 0xAD9 JUMPI PUSH2 0xAD8 PUSH2 0x9D9 JUMP JUMPDEST JUMPDEST PUSH2 0xAE4 DUP5 DUP3 DUP6 PUSH2 0xA9B JUMP JUMPDEST POP SWAP4 SWAP3 POP POP POP JUMP JUMPDEST PUSH1 0x0 DUP3 PUSH1 0x1F DUP4 ADD SLT PUSH2 0xB01 JUMPI PUSH2 0xB00 PUSH2 0x9D4 JUMP JUMPDEST JUMPDEST DUP2 CALLDATALOAD PUSH2 0xB11 DUP5 DUP3 PUSH1 0x20 DUP7 ADD PUSH2 0xAAA JUMP JUMPDEST SWAP2 POP POP SWAP3 SWAP2 POP POP JUMP JUMPDEST PUSH1 0x0 PUSH8 0xFFFFFFFFFFFFFFFF DUP3 GT ISZERO PUSH2 0xB35 JUMPI PUSH2 0xB34 PUSH2 0x9EF JUMP JUMPDEST JUMPDEST PUSH1 0x20 DUP3 MUL SWAP1 POP PUSH1 0x20 DUP2 ADD SWAP1 POP SWAP2 SWAP1 POP JUMP JUMPDEST PUSH1 0x0 DUP1 REVERT JUMPDEST PUSH1 0x0 PUSH2 0xB5E PUSH2 0xB59 DUP5 PUSH2 0xB1A JUMP JUMPDEST PUSH2 0xA4F JUMP JUMPDEST SWAP1 POP DUP1 DUP4 DUP3 MSTORE PUSH1 0x20 DUP3 ADD SWAP1 POP PUSH1 0x20 DUP5 MUL DUP4 ADD DUP6 DUP2 GT ISZERO PUSH2 0xB81 JUMPI PUSH2 0xB80 PUSH2 0xB46 JUMP JUMPDEST JUMPDEST DUP4 JUMPDEST DUP2 DUP2 LT ISZERO PUSH2 0xBC8 JUMPI DUP1 CALLDATALOAD PUSH8 0xFFFFFFFFFFFFFFFF DUP2 GT ISZERO PUSH2 0xBA6 JUMPI PUSH2 0xBA5 PUSH2 0x9D4 JUMP JUMPDEST JUMPDEST DUP1 DUP7 ADD PUSH2 0xBB3 DUP10 DUP3 PUSH2 0xAEC JUMP JUMPDEST DUP6 MSTORE PUSH1 0x20 DUP6 ADD SWAP5 POP POP POP PUSH1 0x20 DUP2 ADD SWAP1 POP PUSH2 0xB83 JUMP JUMPDEST POP POP POP SWAP4 SWAP3 POP POP POP JUMP JUMPDEST PUSH1 0x0 DUP3 PUSH1 0x1F DUP4 ADD SLT PUSH2 0xBE7 JUMPI PUSH2 0xBE6 PUSH2 0x9D4 JUMP JUMPDEST JUMPDEST DUP2 CALLDATALOAD PUSH2 0xBF7 DUP5 DUP3 PUSH1 0x20 DUP7 ADD PUSH2 0xB4B JUMP JUMPDEST SWAP2 POP POP SWAP3 SWAP2 POP POP JUMP JUMPDEST PUSH1 0x0 DUP1 PUSH1 0x0 DUP1 PUSH1 0x0 PUSH1 0xA0 DUP7 DUP9 SUB SLT ISZERO PUSH2 0xC1C JUMPI PUSH2 0xC1B PUSH2 0x96C JUMP JUMPDEST JUMPDEST PUSH1 0x0 PUSH2 0xC2A DUP9 DUP3 DUP10 ADD PUSH2 0x9BF JUMP JUMPDEST SWAP6 POP POP PUSH1 0x20 DUP7 ADD CALLDATALOAD PUSH8 0xFFFFFFFFFFFFFFFF DUP2 GT ISZERO PUSH2 0xC4B JUMPI PUSH2 0xC4A PUSH2 0x971 JUMP JUMPDEST JUMPDEST PUSH2 0xC57 DUP9 DUP3 DUP10 ADD PUSH2 0xAEC JUMP JUMPDEST SWAP5 POP POP PUSH1 0x40 DUP7 ADD CALLDATALOAD PUSH8 0xFFFFFFFFFFFFFFFF DUP2 GT ISZERO PUSH2 0xC78 JUMPI PUSH2 0xC77 PUSH2 0x971 JUMP JUMPDEST JUMPDEST PUSH2 0xC84 DUP9 DUP3 DUP10 ADD PUSH2 0xAEC JUMP JUMPDEST SWAP4 POP POP PUSH1 0x60 DUP7 ADD CALLDATALOAD PUSH8 0xFFFFFFFFFFFFFFFF DUP2 GT ISZERO PUSH2 0xCA5 JUMPI PUSH2 0xCA4 PUSH2 0x971 JUMP JUMPDEST JUMPDEST PUSH2 0xCB1 DUP9 DUP3 DUP10 ADD PUSH2 0xBD2 JUMP JUMPDEST SWAP3 POP POP PUSH1 0x80 DUP7 ADD CALLDATALOAD PUSH8 0xFFFFFFFFFFFFFFFF DUP2 GT ISZERO PUSH2 0xCD2 JUMPI PUSH2 0xCD1 PUSH2 0x971 JUMP JUMPDEST JUMPDEST PUSH2 0xCDE DUP9 DUP3 DUP10 ADD PUSH2 0xAEC JUMP JUMPDEST SWAP2 POP POP SWAP3 SWAP6 POP SWAP3 SWAP6 SWAP1 SWAP4 POP JUMP JUMPDEST PUSH1 0x0 DUP2 ISZERO ISZERO SWAP1 POP SWAP2 SWAP1 POP JUMP JUMPDEST PUSH2 0xD00 DUP2 PUSH2 0xCEB JUMP JUMPDEST DUP3 MSTORE POP POP JUMP JUMPDEST PUSH1 0x0 PUSH1 0x20 DUP3 ADD SWAP1 POP PUSH2 0xD1B PUSH1 0x0 DUP4 ADD DUP5 PUSH2 0xCF7 JUMP JUMPDEST SWAP3 SWAP2 POP POP JUMP JUMPDEST PUSH1 0x0 DUP1 REVERT JUMPDEST PUSH1 0x0 DUP1 REVERT JUMPDEST PUSH1 0x0 DUP2 SWAP1 POP SWAP2 SWAP1 POP JUMP JUMPDEST PUSH2 0xD3E DUP2 PUSH2 0xD2B JUMP JUMPDEST DUP2 EQ PUSH2 0xD49 JUMPI PUSH1 0x0 DUP1 REVERT JUMPDEST POP JUMP JUMPDEST PUSH1 0x0 DUP2 CALLDATALOAD SWAP1 POP PUSH2 0xD5B DUP2 PUSH2 0xD35 JUMP JUMPDEST SWAP3 SWAP2 POP POP JUMP JUMPDEST PUSH1 0x0 PUSH2 0x120 DUP3 DUP5 SUB SLT ISZERO PUSH2 0xD78 JUMPI PUSH2 0xD77 PUSH2 0xD21 JUMP JUMPDEST JUMPDEST PUSH2 0xD83 PUSH2 0x120 PUSH2 0xA4F JUMP JUMPDEST SWAP1 POP PUSH1 0x0 DUP3 ADD CALLDATALOAD PUSH8 0xFFFFFFFFFFFFFFFF DUP2 GT ISZERO PUSH2 0xDA3 JUMPI PUSH2 0xDA2 PUSH2 0xD26 JUMP JUMPDEST JUMPDEST PUSH2 0xDAF DUP5 DUP3 DUP6 ADD PUSH2 0xAEC JUMP JUMPDEST PUSH1 0x0 DUP4 ADD MSTORE POP PUSH1 0x20 DUP3 ADD CALLDATALOAD PUSH8 0xFFFFFFFFFFFFFFFF DUP2 GT ISZERO PUSH2 0xDD3 JUMPI PUSH2 0xDD2 PUSH2 0xD26 JUMP JUMPDEST JUMPDEST PUSH2 0xDDF DUP5 DUP3 DUP6 ADD PUSH2 0xAEC JUMP JUMPDEST PUSH1 0x20 DUP4 ADD MSTORE POP PUSH1 0x40 PUSH2 0xDF3 DUP5 DUP3 DUP6 ADD PUSH2 0xD4C JUMP JUMPDEST PUSH1 0x40 DUP4 ADD MSTORE POP PUSH1 0x60 DUP3 ADD CALLDATALOAD PUSH8 0xFFFFFFFFFFFFFFFF DUP2 GT ISZERO PUSH2 0xE17 JUMPI PUSH2 0xE16 PUSH2 0xD26 JUMP JUMPDEST JUMPDEST PUSH2 0xE23 DUP5 DUP3 DUP6 ADD PUSH2 0xAEC JUMP JUMPDEST PUSH1 0x60 DUP4 ADD MSTORE POP PUSH1 0x80 PUSH2 0xE37 DUP5 DUP3 DUP6 ADD PUSH2 0x9BF JUMP JUMPDEST PUSH1 0x80 DUP4 ADD MSTORE POP PUSH1 0xA0 DUP3 ADD CALLDATALOAD PUSH8 0xFFFFFFFFFFFFFFFF DUP2 GT ISZERO PUSH2 0xE5B JUMPI PUSH2 0xE5A PUSH2 0xD26 JUMP JUMPDEST JUMPDEST PUSH2 0xE67 DUP5 DUP3 DUP6 ADD PUSH2 0xAEC JUMP JUMPDEST PUSH1 0xA0 DUP4 ADD MSTORE POP PUSH1 0xC0 DUP3 ADD CALLDATALOAD PUSH8 0xFFFFFFFFFFFFFFFF DUP2 GT ISZERO PUSH2 0xE8B JUMPI PUSH2 0xE8A PUSH2 0xD26 JUMP JUMPDEST JUMPDEST PUSH2 0xE97 DUP5 DUP3 DUP6 ADD PUSH2 0xAEC JUMP JUMPDEST PUSH1 0xC0 DUP4 ADD MSTORE POP PUSH1 0xE0 DUP3 ADD CALLDATALOAD PUSH8 0xFFFFFFFFFFFFFFFF DUP2 GT ISZERO PUSH2 0xEBB JUMPI PUSH2 0xEBA PUSH2 0xD26 JUMP JUMPDEST JUMPDEST PUSH2 0xEC7 DUP5 DUP3 DUP6 ADD PUSH2 0xAEC JUMP JUMPDEST PUSH1 0xE0 DUP4 ADD MSTORE POP PUSH2 0x100 DUP3 ADD CALLDATALOAD PUSH8 0xFFFFFFFFFFFFFFFF DUP2 GT ISZERO PUSH2 0xEEC JUMPI PUSH2 0xEEB PUSH2 0xD26 JUMP JUMPDEST JUMPDEST PUSH2 0xEF8 DUP5 DUP3 DUP6 ADD PUSH2 0xAEC JUMP JUMPDEST PUSH2 0x100 DUP4 ADD MSTORE POP SWAP3 SWAP2 POP POP JUMP JUMPDEST PUSH1 0x0 PUSH1 0x20 DUP3 DUP5 SUB SLT ISZERO PUSH2 0xF1B JUMPI PUSH2 0xF1A PUSH2 0x96C JUMP JUMPDEST JUMPDEST PUSH1 0x0 DUP3 ADD CALLDATALOAD PUSH8 0xFFFFFFFFFFFFFFFF DUP2 GT ISZERO PUSH2 0xF39 JUMPI PUSH2 0xF38 PUSH2 0x971 JUMP JUMPDEST JUMPDEST PUSH2 0xF45 DUP5 DUP3 DUP6 ADD PUSH2 0xD61 JUMP JUMPDEST SWAP2 POP POP SWAP3 SWAP2 POP POP JUMP JUMPDEST PUSH1 0x0 DUP1 PUSH1 0x0 DUP1 PUSH1 0x80 DUP6 DUP8 SUB SLT ISZERO PUSH2 0xF68 JUMPI PUSH2 0xF67 PUSH2 0x96C JUMP JUMPDEST JUMPDEST PUSH1 0x0 PUSH2 0xF76 DUP8 DUP3 DUP9 ADD PUSH2 0x9BF JUMP JUMPDEST SWAP5 POP POP PUSH1 0x20 PUSH2 0xF87 DUP8 DUP3 DUP9 ADD PUSH2 0x9BF JUMP JUMPDEST SWAP4 POP POP PUSH1 0x40 DUP6 ADD CALLDATALOAD PUSH8 0xFFFFFFFFFFFFFFFF DUP2 GT ISZERO PUSH2 0xFA8 JUMPI PUSH2 0xFA7 PUSH2 0x971 JUMP JUMPDEST JUMPDEST PUSH2 0xFB4 DUP8 DUP3 DUP9 ADD PUSH2 0xAEC JUMP JUMPDEST SWAP3 POP POP PUSH1 0x60 DUP6 ADD CALLDATALOAD PUSH8 0xFFFFFFFFFFFFFFFF DUP2 GT ISZERO PUSH2 0xFD5 JUMPI PUSH2 0xFD4 PUSH2 0x971 JUMP JUMPDEST JUMPDEST PUSH2 0xFE1 DUP8 DUP3 DUP9 ADD PUSH2 0xAEC JUMP JUMPDEST SWAP2 POP POP SWAP3 SWAP6 SWAP2 SWAP5 POP SWAP3 POP JUMP JUMPDEST PUSH1 0x0 PUSH1 0x20 DUP3 DUP5 SUB SLT ISZERO PUSH2 0x1003 JUMPI PUSH2 0x1002 PUSH2 0x96C JUMP JUMPDEST JUMPDEST PUSH1 0x0 DUP3 ADD CALLDATALOAD PUSH8 0xFFFFFFFFFFFFFFFF DUP2 GT ISZERO PUSH2 0x1021 JUMPI PUSH2 0x1020 PUSH2 0x971 JUMP JUMPDEST JUMPDEST PUSH2 0x102D DUP5 DUP3 DUP6 ADD PUSH2 0xBD2 JUMP JUMPDEST SWAP2 POP POP SWAP3 SWAP2 POP POP JUMP JUMPDEST PUSH2 0x103F DUP2 PUSH2 0xCEB JUMP JUMPDEST DUP3 MSTORE POP POP JUMP JUMPDEST PUSH1 0x0 DUP2 MLOAD SWAP1 POP SWAP2 SWAP1 POP JUMP JUMPDEST PUSH1 0x0 DUP3 DUP3 MSTORE PUSH1 0x20 DUP3 ADD SWAP1 POP SWAP3 SWAP2 POP POP JUMP JUMPDEST PUSH1 0x0 JUMPDEST DUP4 DUP2 LT ISZERO PUSH2 0x107F JUMPI DUP1 DUP3 ADD MLOAD DUP2 DUP5 ADD MSTORE PUSH1 0x20 DUP2 ADD SWAP1 POP PUSH2 0x1064 JUMP JUMPDEST PUSH1 0x0 DUP5 DUP5 ADD MSTORE POP POP POP POP JUMP JUMPDEST PUSH1 0x0 PUSH2 0x1096 DUP3 PUSH2 0x1045 JUMP JUMPDEST PUSH2 0x10A0 DUP2 DUP6 PUSH2 0x1050 JUMP JUMPDEST SWAP4 POP PUSH2 0x10B0 DUP2 DUP6 PUSH1 0x20 DUP7 ADD PUSH2 0x1061 JUMP JUMPDEST PUSH2 0x10B9 DUP2 PUSH2 0x9DE JUMP JUMPDEST DUP5 ADD SWAP2 POP POP SWAP3 SWAP2 POP POP JUMP JUMPDEST PUSH1 0x0 PUSH1 0x60 DUP4 ADD PUSH1 0x0 DUP4 ADD MLOAD PUSH2 0x10DC PUSH1 0x0 DUP7 ADD DUP3 PUSH2 0x1036 JUMP JUMPDEST POP PUSH1 0x20 DUP4 ADD MLOAD DUP5 DUP3 SUB PUSH1 0x20 DUP7 ADD MSTORE PUSH2 0x10F4 DUP3 DUP3 PUSH2 0x108B JUMP JUMPDEST SWAP2 POP POP PUSH1 0x40 DUP4 ADD MLOAD DUP5 DUP3 SUB PUSH1 0x40 DUP7 ADD MSTORE PUSH2 0x110E DUP3 DUP3 PUSH2 0x108B JUMP JUMPDEST SWAP2 POP POP DUP1 SWAP2 POP POP SWAP3 SWAP2 POP POP JUMP JUMPDEST PUSH1 0x0 PUSH1 0x20 DUP3 ADD SWAP1 POP DUP2 DUP2 SUB PUSH1 0x0 DUP4 ADD MSTORE PUSH2 0x1135 DUP2 DUP5 PUSH2 0x10C4 JUMP JUMPDEST SWAP1 POP SWAP3 SWAP2 POP POP JUMP JUMPDEST PUSH1 0x0 PUSH1 0x20 DUP3 DUP5 SUB SLT ISZERO PUSH2 0x1153 JUMPI PUSH2 0x1152 PUSH2 0x96C JUMP JUMPDEST JUMPDEST PUSH1 0x0 DUP3 ADD CALLDATALOAD PUSH8 0xFFFFFFFFFFFFFFFF DUP2 GT ISZERO PUSH2 0x1171 JUMPI PUSH2 0x1170 PUSH2 0x971 JUMP JUMPDEST JUMPDEST PUSH2 0x117D DUP5 DUP3 DUP6 ADD PUSH2 0xAEC JUMP JUMPDEST SWAP2 POP POP SWAP3 SWAP2 POP POP JUMP JUMPDEST PUSH1 0x0 DUP3 DUP3 MSTORE PUSH1 0x20 DUP3 ADD SWAP1 POP SWAP3 SWAP2 POP POP JUMP JUMPDEST PUSH1 0x0 PUSH2 0x11A2 DUP3 PUSH2 0x1045 JUMP JUMPDEST PUSH2 0x11AC DUP2 DUP6 PUSH2 0x1186 JUMP JUMPDEST SWAP4 POP PUSH2 0x11BC DUP2 DUP6 PUSH1 0x20 DUP7 ADD PUSH2 0x1061 JUMP JUMPDEST PUSH2 0x11C5 DUP2 PUSH2 0x9DE JUMP JUMPDEST DUP5 ADD SWAP2 POP POP SWAP3 SWAP2 POP POP JUMP JUMPDEST PUSH1 0x0 PUSH1 0x20 DUP3 ADD SWAP1 POP DUP2 DUP2 SUB PUSH1 0x0 DUP4 ADD MSTORE PUSH2 0x11EA DUP2 DUP5 PUSH2 0x1197 JUMP JUMPDEST SWAP1 POP SWAP3 SWAP2 POP POP JUMP JUMPDEST PUSH1 0x0 PUSH1 0x80 DUP3 DUP5 SUB SLT ISZERO PUSH2 0x1208 JUMPI PUSH2 0x1207 PUSH2 0xD21 JUMP JUMPDEST JUMPDEST PUSH2 0x1212 PUSH1 0x80 PUSH2 0xA4F JUMP JUMPDEST SWAP1 POP PUSH1 0x0 PUSH2 0x1222 DUP5 DUP3 DUP6 ADD PUSH2 0x9BF JUMP JUMPDEST PUSH1 0x0 DUP4 ADD MSTORE POP PUSH1 0x20 DUP3 ADD CALLDATALOAD PUSH8 0xFFFFFFFFFFFFFFFF DUP2 GT ISZERO PUSH2 0x1246 JUMPI PUSH2 0x1245 PUSH2 0xD26 JUMP JUMPDEST JUMPDEST PUSH2 0x1252 DUP5 DUP3 DUP6 ADD PUSH2 0xAEC JUMP JUMPDEST PUSH1 0x20 DUP4 ADD MSTORE POP PUSH1 0x40 DUP3 ADD CALLDATALOAD PUSH8 0xFFFFFFFFFFFFFFFF DUP2 GT ISZERO PUSH2 0x1276 JUMPI PUSH2 0x1275 PUSH2 0xD26 JUMP JUMPDEST JUMPDEST PUSH2 0x1282 DUP5 DUP3 DUP6 ADD PUSH2 0xAEC JUMP JUMPDEST PUSH1 0x40 DUP4 ADD MSTORE POP PUSH1 0x60 DUP3 ADD CALLDATALOAD PUSH8 0xFFFFFFFFFFFFFFFF DUP2 GT ISZERO PUSH2 0x12A6 JUMPI PUSH2 0x12A5 PUSH2 0xD26 JUMP JUMPDEST JUMPDEST PUSH2 0x12B2 DUP5 DUP3 DUP6 ADD PUSH2 0xAEC JUMP JUMPDEST PUSH1 0x60 DUP4 ADD MSTORE POP SWAP3 SWAP2 POP POP JUMP JUMPDEST PUSH1 0x0 PUSH1 0x20 DUP3 DUP5 SUB SLT ISZERO PUSH2 0x12D4 JUMPI PUSH2 0x12D3 PUSH2 0x96C JUMP JUMPDEST JUMPDEST PUSH1 0x0 DUP3 ADD CALLDATALOAD PUSH8 0xFFFFFFFFFFFFFFFF DUP2 GT ISZERO PUSH2 0x12F2 JUMPI PUSH2 0x12F1 PUSH2 0x971 JUMP JUMPDEST JUMPDEST PUSH2 0x12FE DUP5 DUP3 DUP6 ADD PUSH2 0x11F2 JUMP JUMPDEST SWAP2 POP POP SWAP3 SWAP2 POP POP JUMP JUMPDEST PUSH1 0x0 DUP2 SWAP1 POP SWAP3 SWAP2 POP POP JUMP JUMPDEST PUSH1 0x0 PUSH2 0x131D DUP3 PUSH2 0x1045 JUMP JUMPDEST PUSH2 0x1327 DUP2 DUP6 PUSH2 0x1307 JUMP JUMPDEST SWAP4 POP PUSH2 0x1337 DUP2 DUP6 PUSH1 0x20 DUP7 ADD PUSH2 0x1061 JUMP JUMPDEST DUP1 DUP5 ADD SWAP2 POP POP SWAP3 SWAP2 POP POP JUMP JUMPDEST PUSH1 0x0 PUSH2 0x134F DUP3 DUP5 PUSH2 0x1312 JUMP JUMPDEST SWAP2 POP DUP2 SWAP1 POP SWAP3 SWAP2 POP POP JUMP JUMPDEST PUSH32 0x4E487B7100000000000000000000000000000000000000000000000000000000 PUSH1 0x0 MSTORE PUSH1 0x32 PUSH1 0x4 MSTORE PUSH1 0x24 PUSH1 0x0 REVERT JUMPDEST PUSH1 0x0 PUSH2 0x1395 DUP3 DUP6 PUSH2 0x1312 JUMP JUMPDEST SWAP2 POP PUSH2 0x13A1 DUP3 DUP5 PUSH2 0x1312 JUMP JUMPDEST SWAP2 POP DUP2 SWAP1 POP SWAP4 SWAP3 POP POP POP JUMP JUMPDEST PUSH1 0x0 DUP2 SWAP1 POP SWAP2 SWAP1 POP JUMP JUMPDEST PUSH32 0x4E487B7100000000000000000000000000000000000000000000000000000000 PUSH1 0x0 MSTORE PUSH1 0x11 PUSH1 0x4 MSTORE PUSH1 0x24 PUSH1 0x0 REVERT JUMPDEST PUSH1 0x0 PUSH2 0x13F1 DUP3 PUSH2 0x13AD JUMP JUMPDEST SWAP2 POP PUSH2 0x13FC DUP4 PUSH2 0x13AD JUMP JUMPDEST SWAP3 POP DUP3 DUP3 SUB SWAP1 POP DUP2 DUP2 GT ISZERO PUSH2 0x1414 JUMPI PUSH2 0x1413 PUSH2 0x13B7 JUMP JUMPDEST JUMPDEST SWAP3 SWAP2 POP POP JUMP JUMPDEST PUSH32 0x2C20000000000000000000000000000000000000000000000000000000000000 PUSH1 0x0 DUP3 ADD MSTORE POP JUMP JUMPDEST PUSH1 0x0 PUSH2 0x1450 PUSH1 0x2 DUP4 PUSH2 0x1307 JUMP JUMPDEST SWAP2 POP PUSH2 0x145B DUP3 PUSH2 0x141A JUMP JUMPDEST PUSH1 0x2 DUP3 ADD SWAP1 POP SWAP2 SWAP1 POP JUMP JUMPDEST PUSH1 0x0 PUSH2 0x1472 DUP3 DUP5 PUSH2 0x1312 JUMP JUMPDEST SWAP2 POP PUSH2 0x147D DUP3 PUSH2 0x1443 JUMP JUMPDEST SWAP2 POP DUP2 SWAP1 POP SWAP3 SWAP2 POP POP JUMP JUMPDEST PUSH1 0x0 PUSH2 0x1493 DUP3 PUSH2 0x13AD JUMP JUMPDEST SWAP2 POP PUSH32 0xFFFFFFFFFFFFFFFFFFFFFFFFFFFFFFFFFFFFFFFFFFFFFFFFFFFFFFFFFFFFFFFF DUP3 SUB PUSH2 0x14C5 JUMPI PUSH2 0x14C4 PUSH2 0x13B7 JUMP JUMPDEST JUMPDEST PUSH1 0x1 DUP3 ADD SWAP1 POP SWAP2 SWAP1 POP JUMP JUMPDEST PUSH1 0x0 PUSH1 0xFF DUP3 AND SWAP1 POP SWAP2 SWAP1 POP JUMP JUMPDEST PUSH1 0x0 PUSH2 0x14E8 DUP3 PUSH2 0x14D0 JUMP JUMPDEST SWAP2 POP PUSH2 0x14F3 DUP4 PUSH2 0x14D0 JUMP JUMPDEST SWAP3 POP DUP3 DUP3 ADD SWAP1 POP PUSH1 0xFF DUP2 GT ISZERO PUSH2 0x150C JUMPI PUSH2 0x150B PUSH2 0x13B7 JUMP JUMPDEST JUMPDEST SWAP3 SWAP2 POP POP JUMP JUMPDEST PUSH32 0x646F776E6C6F6164000000000000000000000000000000000000000000000000 PUSH1 0x0 DUP3 ADD MSTORE POP JUMP JUMPDEST PUSH1 0x0 PUSH2 0x1548 PUSH1 0x8 DUP4 PUSH2 0x1307 JUMP JUMPDEST SWAP2 POP PUSH2 0x1553 DUP3 PUSH2 0x1512 JUMP JUMPDEST PUSH1 0x8 DUP3 ADD SWAP1 POP SWAP2 SWAP1 POP JUMP JUMPDEST PUSH1 0x0 PUSH2 0x1569 DUP3 PUSH2 0x153B JUMP JUMPDEST SWAP2 POP DUP2 SWAP1 POP SWAP2 SWAP1 POP JUMP JUMPDEST PUSH32 0x6564697400000000000000000000000000000000000000000000000000000000 PUSH1 0x0 DUP3 ADD MSTORE POP JUMP JUMPDEST PUSH1 0x0 PUSH2 0x15A9 PUSH1 0x4 DUP4 PUSH2 0x1307 JUMP JUMPDEST SWAP2 POP PUSH2 0x15B4 DUP3 PUSH2 0x1573 JUMP JUMPDEST PUSH1 0x4 DUP3 ADD SWAP1 POP SWAP2 SWAP1 POP JUMP JUMPDEST PUSH1 0x0 PUSH2 0x15CA DUP3 PUSH2 0x159C JUMP JUMPDEST SWAP2 POP DUP2 SWAP1 POP SWAP2 SWAP1 POP JUMP JUMPDEST PUSH32 0x64656C6574650000000000000000000000000000000000000000000000000000 PUSH1 0x0 DUP3 ADD MSTORE POP JUMP JUMPDEST PUSH1 0x0 PUSH2 0x160A PUSH1 0x6 DUP4 PUSH2 0x1307 JUMP JUMPDEST SWAP2 POP PUSH2 0x1615 DUP3 PUSH2 0x15D4 JUMP JUMPDEST PUSH1 0x6 DUP3 ADD SWAP1 POP SWAP2 SWAP1 POP JUMP JUMPDEST PUSH1 0x0 PUSH2 0x162B DUP3 PUSH2 0x15FD JUMP JUMPDEST SWAP2 POP DUP2 SWAP1 POP SWAP2 SWAP1 POP JUMP JUMPDEST PUSH32 0x7368617265000000000000000000000000000000000000000000000000000000 PUSH1 0x0 DUP3 ADD MSTORE POP JUMP JUMPDEST PUSH1 0x0 PUSH2 0x166B PUSH1 0x5 DUP4 PUSH2 0x1307 JUMP JUMPDEST SWAP2 POP PUSH2 0x1676 DUP3 PUSH2 0x1635 JUMP JUMPDEST PUSH1 0x5 DUP3 ADD SWAP1 POP SWAP2 SWAP1 POP JUMP JUMPDEST PUSH1 0x0 PUSH2 0x168C DUP3 PUSH2 0x165E JUMP JUMPDEST SWAP2 POP DUP2 SWAP1 POP SWAP2 SWAP1 POP JUMP JUMPDEST PUSH32 0x7665726966790000000000000000000000000000000000000000000000000000 PUSH1 0x0 DUP3 ADD MSTORE POP JUMP JUMPDEST PUSH1 0x0 PUSH2 0x16CC PUSH1 0x6 DUP4 PUSH2 0x1307 JUMP JUMPDEST SWAP2 POP PUSH2 0x16D7 DUP3 PUSH2 0x1696 JUMP JUMPDEST PUSH1 0x6 DUP3 ADD SWAP1 POP SWAP2 SWAP1 POP JUMP JUMPDEST PUSH1 0x0 PUSH2 0x16ED DUP3 PUSH2 0x16BF JUMP JUMPDEST SWAP2 POP DUP2 SWAP1 POP SWAP2 SWAP1 POP JUMP JUMPDEST PUSH32 0x696E666F00000000000000000000000000000000000000000000000000000000 PUSH1 0x0 DUP3 ADD MSTORE POP JUMP JUMPDEST PUSH1 0x0 PUSH2 0x172D PUSH1 0x4 DUP4 PUSH2 0x1307 JUMP JUMPDEST SWAP2 POP PUSH2 0x1738 DUP3 PUSH2 0x16F7 JUMP JUMPDEST PUSH1 0x4 DUP3 ADD SWAP1 POP SWAP2 SWAP1 POP JUMP JUMPDEST PUSH1 0x0 PUSH2 0x174E DUP3 PUSH2 0x1720 JUMP JUMPDEST SWAP2 POP DUP2 SWAP1 POP SWAP2 SWAP1 POP JUMP INVALID LOG2 PUSH5 0x6970667358 0x22 SLT KECCAK256 PUSH16 0xF47FD5BE4959B2258124A25A26BB5286 0xC6 PUSH23 0xFFD0BCF39AEBE583711D7507A864736F6C634300081300 CALLER "},"methodIdentifiers":{"fileParamValid((string,string,int256,string,address,string,string,string,string))":"4294a5ad","isKeyEqual(address,address,string,string)":"5c99c71b","stringArrayToString(string[])":"6bb8d768","toLower(string)":"9416b423","validPermissions(string[])":"bda49b1d","validUserFields((address,string,string,string))":"e779f450","verifyValidFields(address,string,string,string[],string)":"1c209e7c"}}}}}