{"contracts/StoreFile.sol":{"StoreFile":{"abi":[{"inputs":[],"name":"get","outputs":[{"components":[{"internalType":"string","name":"fileName","type":"string"},{"internalType":"string","name":"encSymmetricKey","type":"string"},{"internalType":"string","name":"owner","type":"string"},{"internalType":"string","name":"ipfsCID","type":"string"},{"internalType":"string","name":"fileType","type":"string"}],"internalType":"struct File[]","name":"","type":"tuple[]"}],"stateMutability":"view","type":"function"},{"inputs":[{"components":[{"internalType":"string","name":"fileName","type":"string"},{"internalType":"string","name":"encSymmetricKey","type":"string"},{"internalType":"string","name":"owner","type":"string"},{"internalType":"string","name":"ipfsCID","type":"string"},{"internalType":"string","name":"fileType","type":"string"}],"internalType":"struct File","name":"file","type":"tuple"}],"name":"set","outputs":[],"stateMutability":"nonpayable","type":"function"}],"evm":{"bytecode":{"linkReferences":{},"object":"608060405234801561001057600080fd5b50611375806100206000396000f3fe608060405234801561001057600080fd5b50600436106100365760003560e01c80636d4ce63c1461003b5780638942138c14610059575b600080fd5b610043610075565b6040516100509190610be5565b60405180910390f35b610073600480360381019061006e9190610e72565b610490565b005b606060008060003373ffffffffffffffffffffffffffffffffffffffff1673ffffffffffffffffffffffffffffffffffffffff1681526020019081526020016000208054905014610435576000803373ffffffffffffffffffffffffffffffffffffffff1673ffffffffffffffffffffffffffffffffffffffff168152602001908152602001600020805480602002602001604051908101604052809291908181526020016000905b8282101561042a57838290600052602060002090600502016040518060a001604052908160008201805461015190610eea565b80601f016020809104026020016040519081016040528092919081815260200182805461017d90610eea565b80156101ca5780601f1061019f576101008083540402835291602001916101ca565b820191906000526020600020905b8154815290600101906020018083116101ad57829003601f168201915b505050505081526020016001820180546101e390610eea565b80601f016020809104026020016040519081016040528092919081815260200182805461020f90610eea565b801561025c5780601f106102315761010080835404028352916020019161025c565b820191906000526020600020905b81548152906001019060200180831161023f57829003601f168201915b5050505050815260200160028201805461027590610eea565b80601f01602080910402602001604051908101604052809291908181526020018280546102a190610eea565b80156102ee5780601f106102c3576101008083540402835291602001916102ee565b820191906000526020600020905b8154815290600101906020018083116102d157829003601f168201915b5050505050815260200160038201805461030790610eea565b80601f016020809104026020016040519081016040528092919081815260200182805461033390610eea565b80156103805780601f1061035557610100808354040283529160200191610380565b820191906000526020600020905b81548152906001019060200180831161036357829003601f168201915b5050505050815260200160048201805461039990610eea565b80601f01602080910402602001604051908101604052809291908181526020018280546103c590610eea565b80156104125780601f106103e757610100808354040283529160200191610412565b820191906000526020600020905b8154815290600101906020018083116103f557829003601f168201915b5050505050815250508152602001906001019061011e565b50505050905061048d565b600067ffffffffffffffff8111156104505761044f610c20565b5b60405190808252806020026020018201604052801561048957816020015b6104766109d2565b81526020019060019003908161046e5790505b5090505b90565b61049d81600001516105b8565b156104dd576040517f08c379a00000000000000000000000000000000000000000000000000000000081526004016104d490610f9e565b60405180910390fd5b6000803373ffffffffffffffffffffffffffffffffffffffff1673ffffffffffffffffffffffffffffffffffffffff168152602001908152602001600020819080600181540180825580915050600190039060005260206000209060050201600090919091909150600082015181600001908161055a9190611174565b5060208201518160010190816105709190611174565b5060408201518160020190816105869190611174565b50606082015181600301908161059c9190611174565b5060808201518160040190816105b29190611174565b50505050565b6000806000803373ffffffffffffffffffffffffffffffffffffffff1673ffffffffffffffffffffffffffffffffffffffff168152602001908152602001600020805480602002602001604051908101604052809291908181526020016000905b8282101561092557838290600052602060002090600502016040518060a001604052908160008201805461064c90610eea565b80601f016020809104026020016040519081016040528092919081815260200182805461067890610eea565b80156106c55780601f1061069a576101008083540402835291602001916106c5565b820191906000526020600020905b8154815290600101906020018083116106a857829003601f168201915b505050505081526020016001820180546106de90610eea565b80601f016020809104026020016040519081016040528092919081815260200182805461070a90610eea565b80156107575780601f1061072c57610100808354040283529160200191610757565b820191906000526020600020905b81548152906001019060200180831161073a57829003601f168201915b5050505050815260200160028201805461077090610eea565b80601f016020809104026020016040519081016040528092919081815260200182805461079c90610eea565b80156107e95780601f106107be576101008083540402835291602001916107e9565b820191906000526020600020905b8154815290600101906020018083116107cc57829003601f168201915b5050505050815260200160038201805461080290610eea565b80601f016020809104026020016040519081016040528092919081815260200182805461082e90610eea565b801561087b5780601f106108505761010080835404028352916020019161087b565b820191906000526020600020905b81548152906001019060200180831161085e57829003601f168201915b5050505050815260200160048201805461089490610eea565b80601f01602080910402602001604051908101604052809291908181526020018280546108c090610eea565b801561090d5780601f106108e25761010080835404028352916020019161090d565b820191906000526020600020905b8154815290600101906020018083116108f057829003601f168201915b50505050508152505081526020019060010190610619565b50505050905060005b81518110156109c657836040516020016109489190611282565b6040516020818303038152906040528051906020012082828151811061097157610970611299565b5b60200260200101516000015160405160200161098d9190611282565b60405160208183030381529060405280519060200120036109b3576001925050506109cd565b80806109be906112f7565b91505061092e565b5060009150505b919050565b6040518060a0016040528060608152602001606081526020016060815260200160608152602001606081525090565b600081519050919050565b600082825260208201905092915050565b6000819050602082019050919050565b600081519050919050565b600082825260208201905092915050565b60005b83811015610a67578082015181840152602081019050610a4c565b60008484015250505050565b6000601f19601f8301169050919050565b6000610a8f82610a2d565b610a998185610a38565b9350610aa9818560208601610a49565b610ab281610a73565b840191505092915050565b600060a0830160008301518482036000860152610ada8282610a84565b91505060208301518482036020860152610af48282610a84565b91505060408301518482036040860152610b0e8282610a84565b91505060608301518482036060860152610b288282610a84565b91505060808301518482036080860152610b428282610a84565b9150508091505092915050565b6000610b5b8383610abd565b905092915050565b6000602082019050919050565b6000610b7b82610a01565b610b858185610a0c565b935083602082028501610b9785610a1d565b8060005b85811015610bd35784840389528151610bb48582610b4f565b9450610bbf83610b63565b925060208a01995050600181019050610b9b565b50829750879550505050505092915050565b60006020820190508181036000830152610bff8184610b70565b905092915050565b6000604051905090565b600080fd5b600080fd5b600080fd5b7f4e487b7100000000000000000000000000000000000000000000000000000000600052604160045260246000fd5b610c5882610a73565b810181811067ffffffffffffffff82111715610c7757610c76610c20565b5b80604052505050565b6000610c8a610c07565b9050610c968282610c4f565b919050565b600080fd5b600080fd5b600080fd5b600067ffffffffffffffff821115610cc557610cc4610c20565b5b610cce82610a73565b9050602081019050919050565b82818337600083830152505050565b6000610cfd610cf884610caa565b610c80565b905082815260208101848484011115610d1957610d18610ca5565b5b610d24848285610cdb565b509392505050565b600082601f830112610d4157610d40610ca0565b5b8135610d51848260208601610cea565b91505092915050565b600060a08284031215610d7057610d6f610c1b565b5b610d7a60a0610c80565b9050600082013567ffffffffffffffff811115610d9a57610d99610c9b565b5b610da684828501610d2c565b600083015250602082013567ffffffffffffffff811115610dca57610dc9610c9b565b5b610dd684828501610d2c565b602083015250604082013567ffffffffffffffff811115610dfa57610df9610c9b565b5b610e0684828501610d2c565b604083015250606082013567ffffffffffffffff811115610e2a57610e29610c9b565b5b610e3684828501610d2c565b606083015250608082013567ffffffffffffffff811115610e5a57610e59610c9b565b5b610e6684828501610d2c565b60808301525092915050565b600060208284031215610e8857610e87610c11565b5b600082013567ffffffffffffffff811115610ea657610ea5610c16565b5b610eb284828501610d5a565b91505092915050565b7f4e487b7100000000000000000000000000000000000000000000000000000000600052602260045260246000fd5b60006002820490506001821680610f0257607f821691505b602082108103610f1557610f14610ebb565b5b50919050565b600082825260208201905092915050565b7f46696c652077697468207468652073616d65206e616d6520616c72656164792060008201527f6578697374732e00000000000000000000000000000000000000000000000000602082015250565b6000610f88602783610f1b565b9150610f9382610f2c565b604082019050919050565b60006020820190508181036000830152610fb781610f7b565b9050919050565b60008190508160005260206000209050919050565b60006020601f8301049050919050565b600082821b905092915050565b6000600883026110207fffffffffffffffffffffffffffffffffffffffffffffffffffffffffffffffff82610fe3565b61102a8683610fe3565b95508019841693508086168417925050509392505050565b6000819050919050565b6000819050919050565b600061107161106c61106784611042565b61104c565b611042565b9050919050565b6000819050919050565b61108b83611056565b61109f61109782611078565b848454610ff0565b825550505050565b600090565b6110b46110a7565b6110bf818484611082565b505050565b5b818110156110e3576110d86000826110ac565b6001810190506110c5565b5050565b601f821115611128576110f981610fbe565b61110284610fd3565b81016020851015611111578190505b61112561111d85610fd3565b8301826110c4565b50505b505050565b600082821c905092915050565b600061114b6000198460080261112d565b1980831691505092915050565b6000611164838361113a565b9150826002028217905092915050565b61117d82610a2d565b67ffffffffffffffff81111561119657611195610c20565b5b6111a08254610eea565b6111ab8282856110e7565b600060209050601f8311600181146111de57600084156111cc578287015190505b6111d68582611158565b86555061123e565b601f1984166111ec86610fbe565b60005b82811015611214578489015182556001820191506020850194506020810190506111ef565b86831015611231578489015161122d601f89168261113a565b8355505b6001600288020188555050505b505050505050565b600081905092915050565b600061125c82610a2d565b6112668185611246565b9350611276818560208601610a49565b80840191505092915050565b600061128e8284611251565b915081905092915050565b7f4e487b7100000000000000000000000000000000000000000000000000000000600052603260045260246000fd5b7f4e487b7100000000000000000000000000000000000000000000000000000000600052601160045260246000fd5b600061130282611042565b91507fffffffffffffffffffffffffffffffffffffffffffffffffffffffffffffffff8203611334576113336112c8565b5b60018201905091905056fea2646970667358221220107cf5f9174d13c32db4e38a4cb2b2ba622ac377fb7d5f08215e625bad79e4b364736f6c63430008130033","opcodes":"PUSH1 0x80 PUSH1 0x40 MSTORE CALLVALUE DUP1 ISZERO PUSH2 0x10 JUMPI PUSH1 0x0 DUP1 REVERT JUMPDEST POP PUSH2 0x1375 DUP1 PUSH2 0x20 PUSH1 0x0 CODECOPY PUSH1 0x0 RETURN INVALID PUSH1 0x80 PUSH1 0x40 MSTORE CALLVALUE DUP1 ISZERO PUSH2 0x10 JUMPI PUSH1 0x0 DUP1 REVERT JUMPDEST POP PUSH1 0x4 CALLDATASIZE LT PUSH2 0x36 JUMPI PUSH1 0x0 CALLDATALOAD PUSH1 0xE0 SHR DUP1 PUSH4 0x6D4CE63C EQ PUSH2 0x3B JUMPI DUP1 PUSH4 0x8942138C EQ PUSH2 0x59 JUMPI JUMPDEST PUSH1 0x0 DUP1 REVERT JUMPDEST PUSH2 0x43 PUSH2 0x75 JUMP JUMPDEST PUSH1 0x40 MLOAD PUSH2 0x50 SWAP2 SWAP1 PUSH2 0xBE5 JUMP JUMPDEST PUSH1 0x40 MLOAD DUP1 SWAP2 SUB SWAP1 RETURN JUMPDEST PUSH2 0x73 PUSH1 0x4 DUP1 CALLDATASIZE SUB DUP2 ADD SWAP1 PUSH2 0x6E SWAP2 SWAP1 PUSH2 0xE72 JUMP JUMPDEST PUSH2 0x490 JUMP JUMPDEST STOP JUMPDEST PUSH1 0x60 PUSH1 0x0 DUP1 PUSH1 0x0 CALLER PUSH20 0xFFFFFFFFFFFFFFFFFFFFFFFFFFFFFFFFFFFFFFFF AND PUSH20 0xFFFFFFFFFFFFFFFFFFFFFFFFFFFFFFFFFFFFFFFF AND DUP2 MSTORE PUSH1 0x20 ADD SWAP1 DUP2 MSTORE PUSH1 0x20 ADD PUSH1 0x0 KECCAK256 DUP1 SLOAD SWAP1 POP EQ PUSH2 0x435 JUMPI PUSH1 0x0 DUP1 CALLER PUSH20 0xFFFFFFFFFFFFFFFFFFFFFFFFFFFFFFFFFFFFFFFF AND PUSH20 0xFFFFFFFFFFFFFFFFFFFFFFFFFFFFFFFFFFFFFFFF AND DUP2 MSTORE PUSH1 0x20 ADD SWAP1 DUP2 MSTORE PUSH1 0x20 ADD PUSH1 0x0 KECCAK256 DUP1 SLOAD DUP1 PUSH1 0x20 MUL PUSH1 0x20 ADD PUSH1 0x40 MLOAD SWAP1 DUP2 ADD PUSH1 0x40 MSTORE DUP1 SWAP3 SWAP2 SWAP1 DUP2 DUP2 MSTORE PUSH1 0x20 ADD PUSH1 0x0 SWAP1 JUMPDEST DUP3 DUP3 LT ISZERO PUSH2 0x42A JUMPI DUP4 DUP3 SWAP1 PUSH1 0x0 MSTORE PUSH1 0x20 PUSH1 0x0 KECCAK256 SWAP1 PUSH1 0x5 MUL ADD PUSH1 0x40 MLOAD DUP1 PUSH1 0xA0 ADD PUSH1 0x40 MSTORE SWAP1 DUP2 PUSH1 0x0 DUP3 ADD DUP1 SLOAD PUSH2 0x151 SWAP1 PUSH2 0xEEA JUMP JUMPDEST DUP1 PUSH1 0x1F ADD PUSH1 0x20 DUP1 SWAP2 DIV MUL PUSH1 0x20 ADD PUSH1 0x40 MLOAD SWAP1 DUP2 ADD PUSH1 0x40 MSTORE DUP1 SWAP3 SWAP2 SWAP1 DUP2 DUP2 MSTORE PUSH1 0x20 ADD DUP3 DUP1 SLOAD PUSH2 0x17D SWAP1 PUSH2 0xEEA JUMP JUMPDEST DUP1 ISZERO PUSH2 0x1CA JUMPI DUP1 PUSH1 0x1F LT PUSH2 0x19F JUMPI PUSH2 0x100 DUP1 DUP4 SLOAD DIV MUL DUP4 MSTORE SWAP2 PUSH1 0x20 ADD SWAP2 PUSH2 0x1CA JUMP JUMPDEST DUP3 ADD SWAP2 SWAP1 PUSH1 0x0 MSTORE PUSH1 0x20 PUSH1 0x0 KECCAK256 SWAP1 JUMPDEST DUP2 SLOAD DUP2 MSTORE SWAP1 PUSH1 0x1 ADD SWAP1 PUSH1 0x20 ADD DUP1 DUP4 GT PUSH2 0x1AD JUMPI DUP3 SWAP1 SUB PUSH1 0x1F AND DUP3 ADD SWAP2 JUMPDEST POP POP POP POP POP DUP2 MSTORE PUSH1 0x20 ADD PUSH1 0x1 DUP3 ADD DUP1 SLOAD PUSH2 0x1E3 SWAP1 PUSH2 0xEEA JUMP JUMPDEST DUP1 PUSH1 0x1F ADD PUSH1 0x20 DUP1 SWAP2 DIV MUL PUSH1 0x20 ADD PUSH1 0x40 MLOAD SWAP1 DUP2 ADD PUSH1 0x40 MSTORE DUP1 SWAP3 SWAP2 SWAP1 DUP2 DUP2 MSTORE PUSH1 0x20 ADD DUP3 DUP1 SLOAD PUSH2 0x20F SWAP1 PUSH2 0xEEA JUMP JUMPDEST DUP1 ISZERO PUSH2 0x25C JUMPI DUP1 PUSH1 0x1F LT PUSH2 0x231 JUMPI PUSH2 0x100 DUP1 DUP4 SLOAD DIV MUL DUP4 MSTORE SWAP2 PUSH1 0x20 ADD SWAP2 PUSH2 0x25C JUMP JUMPDEST DUP3 ADD SWAP2 SWAP1 PUSH1 0x0 MSTORE PUSH1 0x20 PUSH1 0x0 KECCAK256 SWAP1 JUMPDEST DUP2 SLOAD DUP2 MSTORE SWAP1 PUSH1 0x1 ADD SWAP1 PUSH1 0x20 ADD DUP1 DUP4 GT PUSH2 0x23F JUMPI DUP3 SWAP1 SUB PUSH1 0x1F AND DUP3 ADD SWAP2 JUMPDEST POP POP POP POP POP DUP2 MSTORE PUSH1 0x20 ADD PUSH1 0x2 DUP3 ADD DUP1 SLOAD PUSH2 0x275 SWAP1 PUSH2 0xEEA JUMP JUMPDEST DUP1 PUSH1 0x1F ADD PUSH1 0x20 DUP1 SWAP2 DIV MUL PUSH1 0x20 ADD PUSH1 0x40 MLOAD SWAP1 DUP2 ADD PUSH1 0x40 MSTORE DUP1 SWAP3 SWAP2 SWAP1 DUP2 DUP2 MSTORE PUSH1 0x20 ADD DUP3 DUP1 SLOAD PUSH2 0x2A1 SWAP1 PUSH2 0xEEA JUMP JUMPDEST DUP1 ISZERO PUSH2 0x2EE JUMPI DUP1 PUSH1 0x1F LT PUSH2 0x2C3 JUMPI PUSH2 0x100 DUP1 DUP4 SLOAD DIV MUL DUP4 MSTORE SWAP2 PUSH1 0x20 ADD SWAP2 PUSH2 0x2EE JUMP JUMPDEST DUP3 ADD SWAP2 SWAP1 PUSH1 0x0 MSTORE PUSH1 0x20 PUSH1 0x0 KECCAK256 SWAP1 JUMPDEST DUP2 SLOAD DUP2 MSTORE SWAP1 PUSH1 0x1 ADD SWAP1 PUSH1 0x20 ADD DUP1 DUP4 GT PUSH2 0x2D1 JUMPI DUP3 SWAP1 SUB PUSH1 0x1F AND DUP3 ADD SWAP2 JUMPDEST POP POP POP POP POP DUP2 MSTORE PUSH1 0x20 ADD PUSH1 0x3 DUP3 ADD DUP1 SLOAD PUSH2 0x307 SWAP1 PUSH2 0xEEA JUMP JUMPDEST DUP1 PUSH1 0x1F ADD PUSH1 0x20 DUP1 SWAP2 DIV MUL PUSH1 0x20 ADD PUSH1 0x40 MLOAD SWAP1 DUP2 ADD PUSH1 0x40 MSTORE DUP1 SWAP3 SWAP2 SWAP1 DUP2 DUP2 MSTORE PUSH1 0x20 ADD DUP3 DUP1 SLOAD PUSH2 0x333 SWAP1 PUSH2 0xEEA JUMP JUMPDEST DUP1 ISZERO PUSH2 0x380 JUMPI DUP1 PUSH1 0x1F LT PUSH2 0x355 JUMPI PUSH2 0x100 DUP1 DUP4 SLOAD DIV MUL DUP4 MSTORE SWAP2 PUSH1 0x20 ADD SWAP2 PUSH2 0x380 JUMP JUMPDEST DUP3 ADD SWAP2 SWAP1 PUSH1 0x0 MSTORE PUSH1 0x20 PUSH1 0x0 KECCAK256 SWAP1 JUMPDEST DUP2 SLOAD DUP2 MSTORE SWAP1 PUSH1 0x1 ADD SWAP1 PUSH1 0x20 ADD DUP1 DUP4 GT PUSH2 0x363 JUMPI DUP3 SWAP1 SUB PUSH1 0x1F AND DUP3 ADD SWAP2 JUMPDEST POP POP POP POP POP DUP2 MSTORE PUSH1 0x20 ADD PUSH1 0x4 DUP3 ADD DUP1 SLOAD PUSH2 0x399 SWAP1 PUSH2 0xEEA JUMP JUMPDEST DUP1 PUSH1 0x1F ADD PUSH1 0x20 DUP1 SWAP2 DIV MUL PUSH1 0x20 ADD PUSH1 0x40 MLOAD SWAP1 DUP2 ADD PUSH1 0x40 MSTORE DUP1 SWAP3 SWAP2 SWAP1 DUP2 DUP2 MSTORE PUSH1 0x20 ADD DUP3 DUP1 SLOAD PUSH2 0x3C5 SWAP1 PUSH2 0xEEA JUMP JUMPDEST DUP1 ISZERO PUSH2 0x412 JUMPI DUP1 PUSH1 0x1F LT PUSH2 0x3E7 JUMPI PUSH2 0x100 DUP1 DUP4 SLOAD DIV MUL DUP4 MSTORE SWAP2 PUSH1 0x20 ADD SWAP2 PUSH2 0x412 JUMP JUMPDEST DUP3 ADD SWAP2 SWAP1 PUSH1 0x0 MSTORE PUSH1 0x20 PUSH1 0x0 KECCAK256 SWAP1 JUMPDEST DUP2 SLOAD DUP2 MSTORE SWAP1 PUSH1 0x1 ADD SWAP1 PUSH1 0x20 ADD DUP1 DUP4 GT PUSH2 0x3F5 JUMPI DUP3 SWAP1 SUB PUSH1 0x1F AND DUP3 ADD SWAP2 JUMPDEST POP POP POP POP POP DUP2 MSTORE POP POP DUP2 MSTORE PUSH1 0x20 ADD SWAP1 PUSH1 0x1 ADD SWAP1 PUSH2 0x11E JUMP JUMPDEST POP POP POP POP SWAP1 POP PUSH2 0x48D JUMP JUMPDEST PUSH1 0x0 PUSH8 0xFFFFFFFFFFFFFFFF DUP2 GT ISZERO PUSH2 0x450 JUMPI PUSH2 0x44F PUSH2 0xC20 JUMP JUMPDEST JUMPDEST PUSH1 0x40 MLOAD SWAP1 DUP1 DUP3 MSTORE DUP1 PUSH1 0x20 MUL PUSH1 0x20 ADD DUP3 ADD PUSH1 0x40 MSTORE DUP1 ISZERO PUSH2 0x489 JUMPI DUP2 PUSH1 0x20 ADD JUMPDEST PUSH2 0x476 PUSH2 0x9D2 JUMP JUMPDEST DUP2 MSTORE PUSH1 0x20 ADD SWAP1 PUSH1 0x1 SWAP1 SUB SWAP1 DUP2 PUSH2 0x46E JUMPI SWAP1 POP JUMPDEST POP SWAP1 POP JUMPDEST SWAP1 JUMP JUMPDEST PUSH2 0x49D DUP2 PUSH1 0x0 ADD MLOAD PUSH2 0x5B8 JUMP JUMPDEST ISZERO PUSH2 0x4DD JUMPI PUSH1 0x40 MLOAD PUSH32 0x8C379A000000000000000000000000000000000000000000000000000000000 DUP2 MSTORE PUSH1 0x4 ADD PUSH2 0x4D4 SWAP1 PUSH2 0xF9E JUMP JUMPDEST PUSH1 0x40 MLOAD DUP1 SWAP2 SUB SWAP1 REVERT JUMPDEST PUSH1 0x0 DUP1 CALLER PUSH20 0xFFFFFFFFFFFFFFFFFFFFFFFFFFFFFFFFFFFFFFFF AND PUSH20 0xFFFFFFFFFFFFFFFFFFFFFFFFFFFFFFFFFFFFFFFF AND DUP2 MSTORE PUSH1 0x20 ADD SWAP1 DUP2 MSTORE PUSH1 0x20 ADD PUSH1 0x0 KECCAK256 DUP2 SWAP1 DUP1 PUSH1 0x1 DUP2 SLOAD ADD DUP1 DUP3 SSTORE DUP1 SWAP2 POP POP PUSH1 0x1 SWAP1 SUB SWAP1 PUSH1 0x0 MSTORE PUSH1 0x20 PUSH1 0x0 KECCAK256 SWAP1 PUSH1 0x5 MUL ADD PUSH1 0x0 SWAP1 SWAP2 SWAP1 SWAP2 SWAP1 SWAP2 POP PUSH1 0x0 DUP3 ADD MLOAD DUP2 PUSH1 0x0 ADD SWAP1 DUP2 PUSH2 0x55A SWAP2 SWAP1 PUSH2 0x1174 JUMP JUMPDEST POP PUSH1 0x20 DUP3 ADD MLOAD DUP2 PUSH1 0x1 ADD SWAP1 DUP2 PUSH2 0x570 SWAP2 SWAP1 PUSH2 0x1174 JUMP JUMPDEST POP PUSH1 0x40 DUP3 ADD MLOAD DUP2 PUSH1 0x2 ADD SWAP1 DUP2 PUSH2 0x586 SWAP2 SWAP1 PUSH2 0x1174 JUMP JUMPDEST POP PUSH1 0x60 DUP3 ADD MLOAD DUP2 PUSH1 0x3 ADD SWAP1 DUP2 PUSH2 0x59C SWAP2 SWAP1 PUSH2 0x1174 JUMP JUMPDEST POP PUSH1 0x80 DUP3 ADD MLOAD DUP2 PUSH1 0x4 ADD SWAP1 DUP2 PUSH2 0x5B2 SWAP2 SWAP1 PUSH2 0x1174 JUMP JUMPDEST POP POP POP POP JUMP JUMPDEST PUSH1 0x0 DUP1 PUSH1 0x0 DUP1 CALLER PUSH20 0xFFFFFFFFFFFFFFFFFFFFFFFFFFFFFFFFFFFFFFFF AND PUSH20 0xFFFFFFFFFFFFFFFFFFFFFFFFFFFFFFFFFFFFFFFF AND DUP2 MSTORE PUSH1 0x20 ADD SWAP1 DUP2 MSTORE PUSH1 0x20 ADD PUSH1 0x0 KECCAK256 DUP1 SLOAD DUP1 PUSH1 0x20 MUL PUSH1 0x20 ADD PUSH1 0x40 MLOAD SWAP1 DUP2 ADD PUSH1 0x40 MSTORE DUP1 SWAP3 SWAP2 SWAP1 DUP2 DUP2 MSTORE PUSH1 0x20 ADD PUSH1 0x0 SWAP1 JUMPDEST DUP3 DUP3 LT ISZERO PUSH2 0x925 JUMPI DUP4 DUP3 SWAP1 PUSH1 0x0 MSTORE PUSH1 0x20 PUSH1 0x0 KECCAK256 SWAP1 PUSH1 0x5 MUL ADD PUSH1 0x40 MLOAD DUP1 PUSH1 0xA0 ADD PUSH1 0x40 MSTORE SWAP1 DUP2 PUSH1 0x0 DUP3 ADD DUP1 SLOAD PUSH2 0x64C SWAP1 PUSH2 0xEEA JUMP JUMPDEST DUP1 PUSH1 0x1F ADD PUSH1 0x20 DUP1 SWAP2 DIV MUL PUSH1 0x20 ADD PUSH1 0x40 MLOAD SWAP1 DUP2 ADD PUSH1 0x40 MSTORE DUP1 SWAP3 SWAP2 SWAP1 DUP2 DUP2 MSTORE PUSH1 0x20 ADD DUP3 DUP1 SLOAD PUSH2 0x678 SWAP1 PUSH2 0xEEA JUMP JUMPDEST DUP1 ISZERO PUSH2 0x6C5 JUMPI DUP1 PUSH1 0x1F LT PUSH2 0x69A JUMPI PUSH2 0x100 DUP1 DUP4 SLOAD DIV MUL DUP4 MSTORE SWAP2 PUSH1 0x20 ADD SWAP2 PUSH2 0x6C5 JUMP JUMPDEST DUP3 ADD SWAP2 SWAP1 PUSH1 0x0 MSTORE PUSH1 0x20 PUSH1 0x0 KECCAK256 SWAP1 JUMPDEST DUP2 SLOAD DUP2 MSTORE SWAP1 PUSH1 0x1 ADD SWAP1 PUSH1 0x20 ADD DUP1 DUP4 GT PUSH2 0x6A8 JUMPI DUP3 SWAP1 SUB PUSH1 0x1F AND DUP3 ADD SWAP2 JUMPDEST POP POP POP POP POP DUP2 MSTORE PUSH1 0x20 ADD PUSH1 0x1 DUP3 ADD DUP1 SLOAD PUSH2 0x6DE SWAP1 PUSH2 0xEEA JUMP JUMPDEST DUP1 PUSH1 0x1F ADD PUSH1 0x20 DUP1 SWAP2 DIV MUL PUSH1 0x20 ADD PUSH1 0x40 MLOAD SWAP1 DUP2 ADD PUSH1 0x40 MSTORE DUP1 SWAP3 SWAP2 SWAP1 DUP2 DUP2 MSTORE PUSH1 0x20 ADD DUP3 DUP1 SLOAD PUSH2 0x70A SWAP1 PUSH2 0xEEA JUMP JUMPDEST DUP1 ISZERO PUSH2 0x757 JUMPI DUP1 PUSH1 0x1F LT PUSH2 0x72C JUMPI PUSH2 0x100 DUP1 DUP4 SLOAD DIV MUL DUP4 MSTORE SWAP2 PUSH1 0x20 ADD SWAP2 PUSH2 0x757 JUMP JUMPDEST DUP3 ADD SWAP2 SWAP1 PUSH1 0x0 MSTORE PUSH1 0x20 PUSH1 0x0 KECCAK256 SWAP1 JUMPDEST DUP2 SLOAD DUP2 MSTORE SWAP1 PUSH1 0x1 ADD SWAP1 PUSH1 0x20 ADD DUP1 DUP4 GT PUSH2 0x73A JUMPI DUP3 SWAP1 SUB PUSH1 0x1F AND DUP3 ADD SWAP2 JUMPDEST POP POP POP POP POP DUP2 MSTORE PUSH1 0x20 ADD PUSH1 0x2 DUP3 ADD DUP1 SLOAD PUSH2 0x770 SWAP1 PUSH2 0xEEA JUMP JUMPDEST DUP1 PUSH1 0x1F ADD PUSH1 0x20 DUP1 SWAP2 DIV MUL PUSH1 0x20 ADD PUSH1 0x40 MLOAD SWAP1 DUP2 ADD PUSH1 0x40 MSTORE DUP1 SWAP3 SWAP2 SWAP1 DUP2 DUP2 MSTORE PUSH1 0x20 ADD DUP3 DUP1 SLOAD PUSH2 0x79C SWAP1 PUSH2 0xEEA JUMP JUMPDEST DUP1 ISZERO PUSH2 0x7E9 JUMPI DUP1 PUSH1 0x1F LT PUSH2 0x7BE JUMPI PUSH2 0x100 DUP1 DUP4 SLOAD DIV MUL DUP4 MSTORE SWAP2 PUSH1 0x20 ADD SWAP2 PUSH2 0x7E9 JUMP JUMPDEST DUP3 ADD SWAP2 SWAP1 PUSH1 0x0 MSTORE PUSH1 0x20 PUSH1 0x0 KECCAK256 SWAP1 JUMPDEST DUP2 SLOAD DUP2 MSTORE SWAP1 PUSH1 0x1 ADD SWAP1 PUSH1 0x20 ADD DUP1 DUP4 GT PUSH2 0x7CC JUMPI DUP3 SWAP1 SUB PUSH1 0x1F AND DUP3 ADD SWAP2 JUMPDEST POP POP POP POP POP DUP2 MSTORE PUSH1 0x20 ADD PUSH1 0x3 DUP3 ADD DUP1 SLOAD PUSH2 0x802 SWAP1 PUSH2 0xEEA JUMP JUMPDEST DUP1 PUSH1 0x1F ADD PUSH1 0x20 DUP1 SWAP2 DIV MUL PUSH1 0x20 ADD PUSH1 0x40 MLOAD SWAP1 DUP2 ADD PUSH1 0x40 MSTORE DUP1 SWAP3 SWAP2 SWAP1 DUP2 DUP2 MSTORE PUSH1 0x20 ADD DUP3 DUP1 SLOAD PUSH2 0x82E SWAP1 PUSH2 0xEEA JUMP JUMPDEST DUP1 ISZERO PUSH2 0x87B JUMPI DUP1 PUSH1 0x1F LT PUSH2 0x850 JUMPI PUSH2 0x100 DUP1 DUP4 SLOAD DIV MUL DUP4 MSTORE SWAP2 PUSH1 0x20 ADD SWAP2 PUSH2 0x87B JUMP JUMPDEST DUP3 ADD SWAP2 SWAP1 PUSH1 0x0 MSTORE PUSH1 0x20 PUSH1 0x0 KECCAK256 SWAP1 JUMPDEST DUP2 SLOAD DUP2 MSTORE SWAP1 PUSH1 0x1 ADD SWAP1 PUSH1 0x20 ADD DUP1 DUP4 GT PUSH2 0x85E JUMPI DUP3 SWAP1 SUB PUSH1 0x1F AND DUP3 ADD SWAP2 JUMPDEST POP POP POP POP POP DUP2 MSTORE PUSH1 0x20 ADD PUSH1 0x4 DUP3 ADD DUP1 SLOAD PUSH2 0x894 SWAP1 PUSH2 0xEEA JUMP JUMPDEST DUP1 PUSH1 0x1F ADD PUSH1 0x20 DUP1 SWAP2 DIV MUL PUSH1 0x20 ADD PUSH1 0x40 MLOAD SWAP1 DUP2 ADD PUSH1 0x40 MSTORE DUP1 SWAP3 SWAP2 SWAP1 DUP2 DUP2 MSTORE PUSH1 0x20 ADD DUP3 DUP1 SLOAD PUSH2 0x8C0 SWAP1 PUSH2 0xEEA JUMP JUMPDEST DUP1 ISZERO PUSH2 0x90D JUMPI DUP1 PUSH1 0x1F LT PUSH2 0x8E2 JUMPI PUSH2 0x100 DUP1 DUP4 SLOAD DIV MUL DUP4 MSTORE SWAP2 PUSH1 0x20 ADD SWAP2 PUSH2 0x90D JUMP JUMPDEST DUP3 ADD SWAP2 SWAP1 PUSH1 0x0 MSTORE PUSH1 0x20 PUSH1 0x0 KECCAK256 SWAP1 JUMPDEST DUP2 SLOAD DUP2 MSTORE SWAP1 PUSH1 0x1 ADD SWAP1 PUSH1 0x20 ADD DUP1 DUP4 GT PUSH2 0x8F0 JUMPI DUP3 SWAP1 SUB PUSH1 0x1F AND DUP3 ADD SWAP2 JUMPDEST POP POP POP POP POP DUP2 MSTORE POP POP DUP2 MSTORE PUSH1 0x20 ADD SWAP1 PUSH1 0x1 ADD SWAP1 PUSH2 0x619 JUMP JUMPDEST POP POP POP POP SWAP1 POP PUSH1 0x0 JUMPDEST DUP2 MLOAD DUP2 LT ISZERO PUSH2 0x9C6 JUMPI DUP4 PUSH1 0x40 MLOAD PUSH1 0x20 ADD PUSH2 0x948 SWAP2 SWAP1 PUSH2 0x1282 JUMP JUMPDEST PUSH1 0x40 MLOAD PUSH1 0x20 DUP2 DUP4 SUB SUB DUP2 MSTORE SWAP1 PUSH1 0x40 MSTORE DUP1 MLOAD SWAP1 PUSH1 0x20 ADD KECCAK256 DUP3 DUP3 DUP2 MLOAD DUP2 LT PUSH2 0x971 JUMPI PUSH2 0x970 PUSH2 0x1299 JUMP JUMPDEST JUMPDEST PUSH1 0x20 MUL PUSH1 0x20 ADD ADD MLOAD PUSH1 0x0 ADD MLOAD PUSH1 0x40 MLOAD PUSH1 0x20 ADD PUSH2 0x98D SWAP2 SWAP1 PUSH2 0x1282 JUMP JUMPDEST PUSH1 0x40 MLOAD PUSH1 0x20 DUP2 DUP4 SUB SUB DUP2 MSTORE SWAP1 PUSH1 0x40 MSTORE DUP1 MLOAD SWAP1 PUSH1 0x20 ADD KECCAK256 SUB PUSH2 0x9B3 JUMPI PUSH1 0x1 SWAP3 POP POP POP PUSH2 0x9CD JUMP JUMPDEST DUP1 DUP1 PUSH2 0x9BE SWAP1 PUSH2 0x12F7 JUMP JUMPDEST SWAP2 POP POP PUSH2 0x92E JUMP JUMPDEST POP PUSH1 0x0 SWAP2 POP POP JUMPDEST SWAP2 SWAP1 POP JUMP JUMPDEST PUSH1 0x40 MLOAD DUP1 PUSH1 0xA0 ADD PUSH1 0x40 MSTORE DUP1 PUSH1 0x60 DUP2 MSTORE PUSH1 0x20 ADD PUSH1 0x60 DUP2 MSTORE PUSH1 0x20 ADD PUSH1 0x60 DUP2 MSTORE PUSH1 0x20 ADD PUSH1 0x60 DUP2 MSTORE PUSH1 0x20 ADD PUSH1 0x60 DUP2 MSTORE POP SWAP1 JUMP JUMPDEST PUSH1 0x0 DUP2 MLOAD SWAP1 POP SWAP2 SWAP1 POP JUMP JUMPDEST PUSH1 0x0 DUP3 DUP3 MSTORE PUSH1 0x20 DUP3 ADD SWAP1 POP SWAP3 SWAP2 POP POP JUMP JUMPDEST PUSH1 0x0 DUP2 SWAP1 POP PUSH1 0x20 DUP3 ADD SWAP1 POP SWAP2 SWAP1 POP JUMP JUMPDEST PUSH1 0x0 DUP2 MLOAD SWAP1 POP SWAP2 SWAP1 POP JUMP JUMPDEST PUSH1 0x0 DUP3 DUP3 MSTORE PUSH1 0x20 DUP3 ADD SWAP1 POP SWAP3 SWAP2 POP POP JUMP JUMPDEST PUSH1 0x0 JUMPDEST DUP4 DUP2 LT ISZERO PUSH2 0xA67 JUMPI DUP1 DUP3 ADD MLOAD DUP2 DUP5 ADD MSTORE PUSH1 0x20 DUP2 ADD SWAP1 POP PUSH2 0xA4C JUMP JUMPDEST PUSH1 0x0 DUP5 DUP5 ADD MSTORE POP POP POP POP JUMP JUMPDEST PUSH1 0x0 PUSH1 0x1F NOT PUSH1 0x1F DUP4 ADD AND SWAP1 POP SWAP2 SWAP1 POP JUMP JUMPDEST PUSH1 0x0 PUSH2 0xA8F DUP3 PUSH2 0xA2D JUMP JUMPDEST PUSH2 0xA99 DUP2 DUP6 PUSH2 0xA38 JUMP JUMPDEST SWAP4 POP PUSH2 0xAA9 DUP2 DUP6 PUSH1 0x20 DUP7 ADD PUSH2 0xA49 JUMP JUMPDEST PUSH2 0xAB2 DUP2 PUSH2 0xA73 JUMP JUMPDEST DUP5 ADD SWAP2 POP POP SWAP3 SWAP2 POP POP JUMP JUMPDEST PUSH1 0x0 PUSH1 0xA0 DUP4 ADD PUSH1 0x0 DUP4 ADD MLOAD DUP5 DUP3 SUB PUSH1 0x0 DUP7 ADD MSTORE PUSH2 0xADA DUP3 DUP3 PUSH2 0xA84 JUMP JUMPDEST SWAP2 POP POP PUSH1 0x20 DUP4 ADD MLOAD DUP5 DUP3 SUB PUSH1 0x20 DUP7 ADD MSTORE PUSH2 0xAF4 DUP3 DUP3 PUSH2 0xA84 JUMP JUMPDEST SWAP2 POP POP PUSH1 0x40 DUP4 ADD MLOAD DUP5 DUP3 SUB PUSH1 0x40 DUP7 ADD MSTORE PUSH2 0xB0E DUP3 DUP3 PUSH2 0xA84 JUMP JUMPDEST SWAP2 POP POP PUSH1 0x60 DUP4 ADD MLOAD DUP5 DUP3 SUB PUSH1 0x60 DUP7 ADD MSTORE PUSH2 0xB28 DUP3 DUP3 PUSH2 0xA84 JUMP JUMPDEST SWAP2 POP POP PUSH1 0x80 DUP4 ADD MLOAD DUP5 DUP3 SUB PUSH1 0x80 DUP7 ADD MSTORE PUSH2 0xB42 DUP3 DUP3 PUSH2 0xA84 JUMP JUMPDEST SWAP2 POP POP DUP1 SWAP2 POP POP SWAP3 SWAP2 POP POP JUMP JUMPDEST PUSH1 0x0 PUSH2 0xB5B DUP4 DUP4 PUSH2 0xABD JUMP JUMPDEST SWAP1 POP SWAP3 SWAP2 POP POP JUMP JUMPDEST PUSH1 0x0 PUSH1 0x20 DUP3 ADD SWAP1 POP SWAP2 SWAP1 POP JUMP JUMPDEST PUSH1 0x0 PUSH2 0xB7B DUP3 PUSH2 0xA01 JUMP JUMPDEST PUSH2 0xB85 DUP2 DUP6 PUSH2 0xA0C JUMP JUMPDEST SWAP4 POP DUP4 PUSH1 0x20 DUP3 MUL DUP6 ADD PUSH2 0xB97 DUP6 PUSH2 0xA1D JUMP JUMPDEST DUP1 PUSH1 0x0 JUMPDEST DUP6 DUP2 LT ISZERO PUSH2 0xBD3 JUMPI DUP5 DUP5 SUB DUP10 MSTORE DUP2 MLOAD PUSH2 0xBB4 DUP6 DUP3 PUSH2 0xB4F JUMP JUMPDEST SWAP5 POP PUSH2 0xBBF DUP4 PUSH2 0xB63 JUMP JUMPDEST SWAP3 POP PUSH1 0x20 DUP11 ADD SWAP10 POP POP PUSH1 0x1 DUP2 ADD SWAP1 POP PUSH2 0xB9B JUMP JUMPDEST POP DUP3 SWAP8 POP DUP8 SWAP6 POP POP POP POP POP POP SWAP3 SWAP2 POP POP JUMP JUMPDEST PUSH1 0x0 PUSH1 0x20 DUP3 ADD SWAP1 POP DUP2 DUP2 SUB PUSH1 0x0 DUP4 ADD MSTORE PUSH2 0xBFF DUP2 DUP5 PUSH2 0xB70 JUMP JUMPDEST SWAP1 POP SWAP3 SWAP2 POP POP JUMP JUMPDEST PUSH1 0x0 PUSH1 0x40 MLOAD SWAP1 POP SWAP1 JUMP JUMPDEST PUSH1 0x0 DUP1 REVERT JUMPDEST PUSH1 0x0 DUP1 REVERT JUMPDEST PUSH1 0x0 DUP1 REVERT JUMPDEST PUSH32 0x4E487B7100000000000000000000000000000000000000000000000000000000 PUSH1 0x0 MSTORE PUSH1 0x41 PUSH1 0x4 MSTORE PUSH1 0x24 PUSH1 0x0 REVERT JUMPDEST PUSH2 0xC58 DUP3 PUSH2 0xA73 JUMP JUMPDEST DUP2 ADD DUP2 DUP2 LT PUSH8 0xFFFFFFFFFFFFFFFF DUP3 GT OR ISZERO PUSH2 0xC77 JUMPI PUSH2 0xC76 PUSH2 0xC20 JUMP JUMPDEST JUMPDEST DUP1 PUSH1 0x40 MSTORE POP POP POP JUMP JUMPDEST PUSH1 0x0 PUSH2 0xC8A PUSH2 0xC07 JUMP JUMPDEST SWAP1 POP PUSH2 0xC96 DUP3 DUP3 PUSH2 0xC4F JUMP JUMPDEST SWAP2 SWAP1 POP JUMP JUMPDEST PUSH1 0x0 DUP1 REVERT JUMPDEST PUSH1 0x0 DUP1 REVERT JUMPDEST PUSH1 0x0 DUP1 REVERT JUMPDEST PUSH1 0x0 PUSH8 0xFFFFFFFFFFFFFFFF DUP3 GT ISZERO PUSH2 0xCC5 JUMPI PUSH2 0xCC4 PUSH2 0xC20 JUMP JUMPDEST JUMPDEST PUSH2 0xCCE DUP3 PUSH2 0xA73 JUMP JUMPDEST SWAP1 POP PUSH1 0x20 DUP2 ADD SWAP1 POP SWAP2 SWAP1 POP JUMP JUMPDEST DUP3 DUP2 DUP4 CALLDATACOPY PUSH1 0x0 DUP4 DUP4 ADD MSTORE POP POP POP JUMP JUMPDEST PUSH1 0x0 PUSH2 0xCFD PUSH2 0xCF8 DUP5 PUSH2 0xCAA JUMP JUMPDEST PUSH2 0xC80 JUMP JUMPDEST SWAP1 POP DUP3 DUP2 MSTORE PUSH1 0x20 DUP2 ADD DUP5 DUP5 DUP5 ADD GT ISZERO PUSH2 0xD19 JUMPI PUSH2 0xD18 PUSH2 0xCA5 JUMP JUMPDEST JUMPDEST PUSH2 0xD24 DUP5 DUP3 DUP6 PUSH2 0xCDB JUMP JUMPDEST POP SWAP4 SWAP3 POP POP POP JUMP JUMPDEST PUSH1 0x0 DUP3 PUSH1 0x1F DUP4 ADD SLT PUSH2 0xD41 JUMPI PUSH2 0xD40 PUSH2 0xCA0 JUMP JUMPDEST JUMPDEST DUP2 CALLDATALOAD PUSH2 0xD51 DUP5 DUP3 PUSH1 0x20 DUP7 ADD PUSH2 0xCEA JUMP JUMPDEST SWAP2 POP POP SWAP3 SWAP2 POP POP JUMP JUMPDEST PUSH1 0x0 PUSH1 0xA0 DUP3 DUP5 SUB SLT ISZERO PUSH2 0xD70 JUMPI PUSH2 0xD6F PUSH2 0xC1B JUMP JUMPDEST JUMPDEST PUSH2 0xD7A PUSH1 0xA0 PUSH2 0xC80 JUMP JUMPDEST SWAP1 POP PUSH1 0x0 DUP3 ADD CALLDATALOAD PUSH8 0xFFFFFFFFFFFFFFFF DUP2 GT ISZERO PUSH2 0xD9A JUMPI PUSH2 0xD99 PUSH2 0xC9B JUMP JUMPDEST JUMPDEST PUSH2 0xDA6 DUP5 DUP3 DUP6 ADD PUSH2 0xD2C JUMP JUMPDEST PUSH1 0x0 DUP4 ADD MSTORE POP PUSH1 0x20 DUP3 ADD CALLDATALOAD PUSH8 0xFFFFFFFFFFFFFFFF DUP2 GT ISZERO PUSH2 0xDCA JUMPI PUSH2 0xDC9 PUSH2 0xC9B JUMP JUMPDEST JUMPDEST PUSH2 0xDD6 DUP5 DUP3 DUP6 ADD PUSH2 0xD2C JUMP JUMPDEST PUSH1 0x20 DUP4 ADD MSTORE POP PUSH1 0x40 DUP3 ADD CALLDATALOAD PUSH8 0xFFFFFFFFFFFFFFFF DUP2 GT ISZERO PUSH2 0xDFA JUMPI PUSH2 0xDF9 PUSH2 0xC9B JUMP JUMPDEST JUMPDEST PUSH2 0xE06 DUP5 DUP3 DUP6 ADD PUSH2 0xD2C JUMP JUMPDEST PUSH1 0x40 DUP4 ADD MSTORE POP PUSH1 0x60 DUP3 ADD CALLDATALOAD PUSH8 0xFFFFFFFFFFFFFFFF DUP2 GT ISZERO PUSH2 0xE2A JUMPI PUSH2 0xE29 PUSH2 0xC9B JUMP JUMPDEST JUMPDEST PUSH2 0xE36 DUP5 DUP3 DUP6 ADD PUSH2 0xD2C JUMP JUMPDEST PUSH1 0x60 DUP4 ADD MSTORE POP PUSH1 0x80 DUP3 ADD CALLDATALOAD PUSH8 0xFFFFFFFFFFFFFFFF DUP2 GT ISZERO PUSH2 0xE5A JUMPI PUSH2 0xE59 PUSH2 0xC9B JUMP JUMPDEST JUMPDEST PUSH2 0xE66 DUP5 DUP3 DUP6 ADD PUSH2 0xD2C JUMP JUMPDEST PUSH1 0x80 DUP4 ADD MSTORE POP SWAP3 SWAP2 POP POP JUMP JUMPDEST PUSH1 0x0 PUSH1 0x20 DUP3 DUP5 SUB SLT ISZERO PUSH2 0xE88 JUMPI PUSH2 0xE87 PUSH2 0xC11 JUMP JUMPDEST JUMPDEST PUSH1 0x0 DUP3 ADD CALLDATALOAD PUSH8 0xFFFFFFFFFFFFFFFF DUP2 GT ISZERO PUSH2 0xEA6 JUMPI PUSH2 0xEA5 PUSH2 0xC16 JUMP JUMPDEST JUMPDEST PUSH2 0xEB2 DUP5 DUP3 DUP6 ADD PUSH2 0xD5A JUMP JUMPDEST SWAP2 POP POP SWAP3 SWAP2 POP POP JUMP JUMPDEST PUSH32 0x4E487B7100000000000000000000000000000000000000000000000000000000 PUSH1 0x0 MSTORE PUSH1 0x22 PUSH1 0x4 MSTORE PUSH1 0x24 PUSH1 0x0 REVERT JUMPDEST PUSH1 0x0 PUSH1 0x2 DUP3 DIV SWAP1 POP PUSH1 0x1 DUP3 AND DUP1 PUSH2 0xF02 JUMPI PUSH1 0x7F DUP3 AND SWAP2 POP JUMPDEST PUSH1 0x20 DUP3 LT DUP2 SUB PUSH2 0xF15 JUMPI PUSH2 0xF14 PUSH2 0xEBB JUMP JUMPDEST JUMPDEST POP SWAP2 SWAP1 POP JUMP JUMPDEST PUSH1 0x0 DUP3 DUP3 MSTORE PUSH1 0x20 DUP3 ADD SWAP1 POP SWAP3 SWAP2 POP POP JUMP JUMPDEST PUSH32 0x46696C652077697468207468652073616D65206E616D6520616C726561647920 PUSH1 0x0 DUP3 ADD MSTORE PUSH32 0x6578697374732E00000000000000000000000000000000000000000000000000 PUSH1 0x20 DUP3 ADD MSTORE POP JUMP JUMPDEST PUSH1 0x0 PUSH2 0xF88 PUSH1 0x27 DUP4 PUSH2 0xF1B JUMP JUMPDEST SWAP2 POP PUSH2 0xF93 DUP3 PUSH2 0xF2C JUMP JUMPDEST PUSH1 0x40 DUP3 ADD SWAP1 POP SWAP2 SWAP1 POP JUMP JUMPDEST PUSH1 0x0 PUSH1 0x20 DUP3 ADD SWAP1 POP DUP2 DUP2 SUB PUSH1 0x0 DUP4 ADD MSTORE PUSH2 0xFB7 DUP2 PUSH2 0xF7B JUMP JUMPDEST SWAP1 POP SWAP2 SWAP1 POP JUMP JUMPDEST PUSH1 0x0 DUP2 SWAP1 POP DUP2 PUSH1 0x0 MSTORE PUSH1 0x20 PUSH1 0x0 KECCAK256 SWAP1 POP SWAP2 SWAP1 POP JUMP JUMPDEST PUSH1 0x0 PUSH1 0x20 PUSH1 0x1F DUP4 ADD DIV SWAP1 POP SWAP2 SWAP1 POP JUMP JUMPDEST PUSH1 0x0 DUP3 DUP3 SHL SWAP1 POP SWAP3 SWAP2 POP POP JUMP JUMPDEST PUSH1 0x0 PUSH1 0x8 DUP4 MUL PUSH2 0x1020 PUSH32 0xFFFFFFFFFFFFFFFFFFFFFFFFFFFFFFFFFFFFFFFFFFFFFFFFFFFFFFFFFFFFFFFF DUP3 PUSH2 0xFE3 JUMP JUMPDEST PUSH2 0x102A DUP7 DUP4 PUSH2 0xFE3 JUMP JUMPDEST SWAP6 POP DUP1 NOT DUP5 AND SWAP4 POP DUP1 DUP7 AND DUP5 OR SWAP3 POP POP POP SWAP4 SWAP3 POP POP POP JUMP JUMPDEST PUSH1 0x0 DUP2 SWAP1 POP SWAP2 SWAP1 POP JUMP JUMPDEST PUSH1 0x0 DUP2 SWAP1 POP SWAP2 SWAP1 POP JUMP JUMPDEST PUSH1 0x0 PUSH2 0x1071 PUSH2 0x106C PUSH2 0x1067 DUP5 PUSH2 0x1042 JUMP JUMPDEST PUSH2 0x104C JUMP JUMPDEST PUSH2 0x1042 JUMP JUMPDEST SWAP1 POP SWAP2 SWAP1 POP JUMP JUMPDEST PUSH1 0x0 DUP2 SWAP1 POP SWAP2 SWAP1 POP JUMP JUMPDEST PUSH2 0x108B DUP4 PUSH2 0x1056 JUMP JUMPDEST PUSH2 0x109F PUSH2 0x1097 DUP3 PUSH2 0x1078 JUMP JUMPDEST DUP5 DUP5 SLOAD PUSH2 0xFF0 JUMP JUMPDEST DUP3 SSTORE POP POP POP POP JUMP JUMPDEST PUSH1 0x0 SWAP1 JUMP JUMPDEST PUSH2 0x10B4 PUSH2 0x10A7 JUMP JUMPDEST PUSH2 0x10BF DUP2 DUP5 DUP5 PUSH2 0x1082 JUMP JUMPDEST POP POP POP JUMP JUMPDEST JUMPDEST DUP2 DUP2 LT ISZERO PUSH2 0x10E3 JUMPI PUSH2 0x10D8 PUSH1 0x0 DUP3 PUSH2 0x10AC JUMP JUMPDEST PUSH1 0x1 DUP2 ADD SWAP1 POP PUSH2 0x10C5 JUMP JUMPDEST POP POP JUMP JUMPDEST PUSH1 0x1F DUP3 GT ISZERO PUSH2 0x1128 JUMPI PUSH2 0x10F9 DUP2 PUSH2 0xFBE JUMP JUMPDEST PUSH2 0x1102 DUP5 PUSH2 0xFD3 JUMP JUMPDEST DUP2 ADD PUSH1 0x20 DUP6 LT ISZERO PUSH2 0x1111 JUMPI DUP2 SWAP1 POP JUMPDEST PUSH2 0x1125 PUSH2 0x111D DUP6 PUSH2 0xFD3 JUMP JUMPDEST DUP4 ADD DUP3 PUSH2 0x10C4 JUMP JUMPDEST POP POP JUMPDEST POP POP POP JUMP JUMPDEST PUSH1 0x0 DUP3 DUP3 SHR SWAP1 POP SWAP3 SWAP2 POP POP JUMP JUMPDEST PUSH1 0x0 PUSH2 0x114B PUSH1 0x0 NOT DUP5 PUSH1 0x8 MUL PUSH2 0x112D JUMP JUMPDEST NOT DUP1 DUP4 AND SWAP2 POP POP SWAP3 SWAP2 POP POP JUMP JUMPDEST PUSH1 0x0 PUSH2 0x1164 DUP4 DUP4 PUSH2 0x113A JUMP JUMPDEST SWAP2 POP DUP3 PUSH1 0x2 MUL DUP3 OR SWAP1 POP SWAP3 SWAP2 POP POP JUMP JUMPDEST PUSH2 0x117D DUP3 PUSH2 0xA2D JUMP JUMPDEST PUSH8 0xFFFFFFFFFFFFFFFF DUP2 GT ISZERO PUSH2 0x1196 JUMPI PUSH2 0x1195 PUSH2 0xC20 JUMP JUMPDEST JUMPDEST PUSH2 0x11A0 DUP3 SLOAD PUSH2 0xEEA JUMP JUMPDEST PUSH2 0x11AB DUP3 DUP3 DUP6 PUSH2 0x10E7 JUMP JUMPDEST PUSH1 0x0 PUSH1 0x20 SWAP1 POP PUSH1 0x1F DUP4 GT PUSH1 0x1 DUP2 EQ PUSH2 0x11DE JUMPI PUSH1 0x0 DUP5 ISZERO PUSH2 0x11CC JUMPI DUP3 DUP8 ADD MLOAD SWAP1 POP JUMPDEST PUSH2 0x11D6 DUP6 DUP3 PUSH2 0x1158 JUMP JUMPDEST DUP7 SSTORE POP PUSH2 0x123E JUMP JUMPDEST PUSH1 0x1F NOT DUP5 AND PUSH2 0x11EC DUP7 PUSH2 0xFBE JUMP JUMPDEST PUSH1 0x0 JUMPDEST DUP3 DUP2 LT ISZERO PUSH2 0x1214 JUMPI DUP5 DUP10 ADD MLOAD DUP3 SSTORE PUSH1 0x1 DUP3 ADD SWAP2 POP PUSH1 0x20 DUP6 ADD SWAP5 POP PUSH1 0x20 DUP2 ADD SWAP1 POP PUSH2 0x11EF JUMP JUMPDEST DUP7 DUP4 LT ISZERO PUSH2 0x1231 JUMPI DUP5 DUP10 ADD MLOAD PUSH2 0x122D PUSH1 0x1F DUP10 AND DUP3 PUSH2 0x113A JUMP JUMPDEST DUP4 SSTORE POP JUMPDEST PUSH1 0x1 PUSH1 0x2 DUP9 MUL ADD DUP9 SSTORE POP POP POP JUMPDEST POP POP POP POP POP POP JUMP JUMPDEST PUSH1 0x0 DUP2 SWAP1 POP SWAP3 SWAP2 POP POP JUMP JUMPDEST PUSH1 0x0 PUSH2 0x125C DUP3 PUSH2 0xA2D JUMP JUMPDEST PUSH2 0x1266 DUP2 DUP6 PUSH2 0x1246 JUMP JUMPDEST SWAP4 POP PUSH2 0x1276 DUP2 DUP6 PUSH1 0x20 DUP7 ADD PUSH2 0xA49 JUMP JUMPDEST DUP1 DUP5 ADD SWAP2 POP POP SWAP3 SWAP2 POP POP JUMP JUMPDEST PUSH1 0x0 PUSH2 0x128E DUP3 DUP5 PUSH2 0x1251 JUMP JUMPDEST SWAP2 POP DUP2 SWAP1 POP SWAP3 SWAP2 POP POP JUMP JUMPDEST PUSH32 0x4E487B7100000000000000000000000000000000000000000000000000000000 PUSH1 0x0 MSTORE PUSH1 0x32 PUSH1 0x4 MSTORE PUSH1 0x24 PUSH1 0x0 REVERT JUMPDEST PUSH32 0x4E487B7100000000000000000000000000000000000000000000000000000000 PUSH1 0x0 MSTORE PUSH1 0x11 PUSH1 0x4 MSTORE PUSH1 0x24 PUSH1 0x0 REVERT JUMPDEST PUSH1 0x0 PUSH2 0x1302 DUP3 PUSH2 0x1042 JUMP JUMPDEST SWAP2 POP PUSH32 0xFFFFFFFFFFFFFFFFFFFFFFFFFFFFFFFFFFFFFFFFFFFFFFFFFFFFFFFFFFFFFFFF DUP3 SUB PUSH2 0x1334 JUMPI PUSH2 0x1333 PUSH2 0x12C8 JUMP JUMPDEST JUMPDEST PUSH1 0x1 DUP3 ADD SWAP1 POP SWAP2 SWAP1 POP JUMP INVALID LOG2 PUSH5 0x6970667358 0x22 SLT KECCAK256 LT PUSH29 0xF5F9174D13C32DB4E38A4CB2B2BA622AC377FB7D5F08215E625BAD79E4 0xB3 PUSH5 0x736F6C6343 STOP ADDMOD SGT STOP CALLER "},"methodIdentifiers":{"get()":"6d4ce63c","set((string,string,string,string,string))":"8942138c"}}}}}