{"contracts/StoreUser.sol":{"StoreUser":{"abi":[{"inputs":[{"internalType":"address","name":"user","type":"address"}],"name":"getUser","outputs":[{"components":[{"internalType":"address","name":"account","type":"address"},{"internalType":"string","name":"publicKey","type":"string"}],"internalType":"struct User","name":"","type":"tuple"}],"stateMutability":"view","type":"function"},{"inputs":[{"components":[{"internalType":"address","name":"account","type":"address"},{"internalType":"string","name":"publicKey","type":"string"}],"internalType":"struct User","name":"user","type":"tuple"}],"name":"set","outputs":[],"stateMutability":"nonpayable","type":"function"}],"evm":{"bytecode":{"linkReferences":{},"object":"608060405234801561001057600080fd5b50610abf806100206000396000f3fe608060405234801561001057600080fd5b50600436106100365760003560e01c80636f77926b1461003b57806382001a451461006b575b600080fd5b610055600480360381019061005091906103df565b610087565b60405161006291906104e8565b60405180910390f35b610085600480360381019061008091906106b5565b6101c7565b005b61008f61033d565b6000808373ffffffffffffffffffffffffffffffffffffffff1673ffffffffffffffffffffffffffffffffffffffff1681526020019081526020016000206040518060400160405290816000820160009054906101000a900473ffffffffffffffffffffffffffffffffffffffff1673ffffffffffffffffffffffffffffffffffffffff1673ffffffffffffffffffffffffffffffffffffffff16815260200160018201805461013e9061072d565b80601f016020809104026020016040519081016040528092919081815260200182805461016a9061072d565b80156101b75780601f1061018c576101008083540402835291602001916101b7565b820191906000526020600020905b81548152906001019060200180831161019a57829003601f168201915b5050505050815250509050919050565b600073ffffffffffffffffffffffffffffffffffffffff16600080836000015173ffffffffffffffffffffffffffffffffffffffff1673ffffffffffffffffffffffffffffffffffffffff16815260200190815260200160002060000160009054906101000a900473ffffffffffffffffffffffffffffffffffffffff1673ffffffffffffffffffffffffffffffffffffffff161461029b576040517f08c379a0000000000000000000000000000000000000000000000000000000008152600401610292906107e1565b60405180910390fd5b806000803373ffffffffffffffffffffffffffffffffffffffff1673ffffffffffffffffffffffffffffffffffffffff16815260200190815260200160002060008201518160000160006101000a81548173ffffffffffffffffffffffffffffffffffffffff021916908373ffffffffffffffffffffffffffffffffffffffff160217905550602082015181600101908161033691906109b7565b5090505050565b6040518060400160405280600073ffffffffffffffffffffffffffffffffffffffff168152602001606081525090565b6000604051905090565b600080fd5b600080fd5b600073ffffffffffffffffffffffffffffffffffffffff82169050919050565b60006103ac82610381565b9050919050565b6103bc816103a1565b81146103c757600080fd5b50565b6000813590506103d9816103b3565b92915050565b6000602082840312156103f5576103f4610377565b5b6000610403848285016103ca565b91505092915050565b610415816103a1565b82525050565b600081519050919050565b600082825260208201905092915050565b60005b8381101561045557808201518184015260208101905061043a565b60008484015250505050565b6000601f19601f8301169050919050565b600061047d8261041b565b6104878185610426565b9350610497818560208601610437565b6104a081610461565b840191505092915050565b60006040830160008301516104c3600086018261040c565b50602083015184820360208601526104db8282610472565b9150508091505092915050565b6000602082019050818103600083015261050281846104ab565b905092915050565b600080fd5b7f4e487b7100000000000000000000000000000000000000000000000000000000600052604160045260246000fd5b61054782610461565b810181811067ffffffffffffffff821117156105665761056561050f565b5b80604052505050565b600061057961036d565b9050610585828261053e565b919050565b600080fd5b600080fd5b600080fd5b600067ffffffffffffffff8211156105b4576105b361050f565b5b6105bd82610461565b9050602081019050919050565b82818337600083830152505050565b60006105ec6105e784610599565b61056f565b90508281526020810184848401111561060857610607610594565b5b6106138482856105ca565b509392505050565b600082601f8301126106305761062f61058f565b5b81356106408482602086016105d9565b91505092915050565b60006040828403121561065f5761065e61050a565b5b610669604061056f565b90506000610679848285016103ca565b600083015250602082013567ffffffffffffffff81111561069d5761069c61058a565b5b6106a98482850161061b565b60208301525092915050565b6000602082840312156106cb576106ca610377565b5b600082013567ffffffffffffffff8111156106e9576106e861037c565b5b6106f584828501610649565b91505092915050565b7f4e487b7100000000000000000000000000000000000000000000000000000000600052602260045260246000fd5b6000600282049050600182168061074557607f821691505b602082108103610758576107576106fe565b5b50919050565b600082825260208201905092915050565b7f5573657220616c72656164792065786973747320666f7220746869732061646460008201527f7265737300000000000000000000000000000000000000000000000000000000602082015250565b60006107cb60248361075e565b91506107d68261076f565b604082019050919050565b600060208201905081810360008301526107fa816107be565b9050919050565b60008190508160005260206000209050919050565b60006020601f8301049050919050565b600082821b905092915050565b6000600883026108637fffffffffffffffffffffffffffffffffffffffffffffffffffffffffffffffff82610826565b61086d8683610826565b95508019841693508086168417925050509392505050565b6000819050919050565b6000819050919050565b60006108b46108af6108aa84610885565b61088f565b610885565b9050919050565b6000819050919050565b6108ce83610899565b6108e26108da826108bb565b848454610833565b825550505050565b600090565b6108f76108ea565b6109028184846108c5565b505050565b5b818110156109265761091b6000826108ef565b600181019050610908565b5050565b601f82111561096b5761093c81610801565b61094584610816565b81016020851015610954578190505b61096861096085610816565b830182610907565b50505b505050565b600082821c905092915050565b600061098e60001984600802610970565b1980831691505092915050565b60006109a7838361097d565b9150826002028217905092915050565b6109c08261041b565b67ffffffffffffffff8111156109d9576109d861050f565b5b6109e3825461072d565b6109ee82828561092a565b600060209050601f831160018114610a215760008415610a0f578287015190505b610a19858261099b565b865550610a81565b601f198416610a2f86610801565b60005b82811015610a5757848901518255600182019150602085019450602081019050610a32565b86831015610a745784890151610a70601f89168261097d565b8355505b6001600288020188555050505b50505050505056fea2646970667358221220f8902936f1934c5392a26dd3bf80597d4aac8893ae176d225a0204f40f82e1cf64736f6c63430008130033","opcodes":"PUSH1 0x80 PUSH1 0x40 MSTORE CALLVALUE DUP1 ISZERO PUSH2 0x10 JUMPI PUSH1 0x0 DUP1 REVERT JUMPDEST POP PUSH2 0xABF DUP1 PUSH2 0x20 PUSH1 0x0 CODECOPY PUSH1 0x0 RETURN INVALID PUSH1 0x80 PUSH1 0x40 MSTORE CALLVALUE DUP1 ISZERO PUSH2 0x10 JUMPI PUSH1 0x0 DUP1 REVERT JUMPDEST POP PUSH1 0x4 CALLDATASIZE LT PUSH2 0x36 JUMPI PUSH1 0x0 CALLDATALOAD PUSH1 0xE0 SHR DUP1 PUSH4 0x6F77926B EQ PUSH2 0x3B JUMPI DUP1 PUSH4 0x82001A45 EQ PUSH2 0x6B JUMPI JUMPDEST PUSH1 0x0 DUP1 REVERT JUMPDEST PUSH2 0x55 PUSH1 0x4 DUP1 CALLDATASIZE SUB DUP2 ADD SWAP1 PUSH2 0x50 SWAP2 SWAP1 PUSH2 0x3DF JUMP JUMPDEST PUSH2 0x87 JUMP JUMPDEST PUSH1 0x40 MLOAD PUSH2 0x62 SWAP2 SWAP1 PUSH2 0x4E8 JUMP JUMPDEST PUSH1 0x40 MLOAD DUP1 SWAP2 SUB SWAP1 RETURN JUMPDEST PUSH2 0x85 PUSH1 0x4 DUP1 CALLDATASIZE SUB DUP2 ADD SWAP1 PUSH2 0x80 SWAP2 SWAP1 PUSH2 0x6B5 JUMP JUMPDEST PUSH2 0x1C7 JUMP JUMPDEST STOP JUMPDEST PUSH2 0x8F PUSH2 0x33D JUMP JUMPDEST PUSH1 0x0 DUP1 DUP4 PUSH20 0xFFFFFFFFFFFFFFFFFFFFFFFFFFFFFFFFFFFFFFFF AND PUSH20 0xFFFFFFFFFFFFFFFFFFFFFFFFFFFFFFFFFFFFFFFF AND DUP2 MSTORE PUSH1 0x20 ADD SWAP1 DUP2 MSTORE PUSH1 0x20 ADD PUSH1 0x0 KECCAK256 PUSH1 0x40 MLOAD DUP1 PUSH1 0x40 ADD PUSH1 0x40 MSTORE SWAP1 DUP2 PUSH1 0x0 DUP3 ADD PUSH1 0x0 SWAP1 SLOAD SWAP1 PUSH2 0x100 EXP SWAP1 DIV PUSH20 0xFFFFFFFFFFFFFFFFFFFFFFFFFFFFFFFFFFFFFFFF AND PUSH20 0xFFFFFFFFFFFFFFFFFFFFFFFFFFFFFFFFFFFFFFFF AND PUSH20 0xFFFFFFFFFFFFFFFFFFFFFFFFFFFFFFFFFFFFFFFF AND DUP2 MSTORE PUSH1 0x20 ADD PUSH1 0x1 DUP3 ADD DUP1 SLOAD PUSH2 0x13E SWAP1 PUSH2 0x72D JUMP JUMPDEST DUP1 PUSH1 0x1F ADD PUSH1 0x20 DUP1 SWAP2 DIV MUL PUSH1 0x20 ADD PUSH1 0x40 MLOAD SWAP1 DUP2 ADD PUSH1 0x40 MSTORE DUP1 SWAP3 SWAP2 SWAP1 DUP2 DUP2 MSTORE PUSH1 0x20 ADD DUP3 DUP1 SLOAD PUSH2 0x16A SWAP1 PUSH2 0x72D JUMP JUMPDEST DUP1 ISZERO PUSH2 0x1B7 JUMPI DUP1 PUSH1 0x1F LT PUSH2 0x18C JUMPI PUSH2 0x100 DUP1 DUP4 SLOAD DIV MUL DUP4 MSTORE SWAP2 PUSH1 0x20 ADD SWAP2 PUSH2 0x1B7 JUMP JUMPDEST DUP3 ADD SWAP2 SWAP1 PUSH1 0x0 MSTORE PUSH1 0x20 PUSH1 0x0 KECCAK256 SWAP1 JUMPDEST DUP2 SLOAD DUP2 MSTORE SWAP1 PUSH1 0x1 ADD SWAP1 PUSH1 0x20 ADD DUP1 DUP4 GT PUSH2 0x19A JUMPI DUP3 SWAP1 SUB PUSH1 0x1F AND DUP3 ADD SWAP2 JUMPDEST POP POP POP POP POP DUP2 MSTORE POP POP SWAP1 POP SWAP2 SWAP1 POP JUMP JUMPDEST PUSH1 0x0 PUSH20 0xFFFFFFFFFFFFFFFFFFFFFFFFFFFFFFFFFFFFFFFF AND PUSH1 0x0 DUP1 DUP4 PUSH1 0x0 ADD MLOAD PUSH20 0xFFFFFFFFFFFFFFFFFFFFFFFFFFFFFFFFFFFFFFFF AND PUSH20 0xFFFFFFFFFFFFFFFFFFFFFFFFFFFFFFFFFFFFFFFF AND DUP2 MSTORE PUSH1 0x20 ADD SWAP1 DUP2 MSTORE PUSH1 0x20 ADD PUSH1 0x0 KECCAK256 PUSH1 0x0 ADD PUSH1 0x0 SWAP1 SLOAD SWAP1 PUSH2 0x100 EXP SWAP1 DIV PUSH20 0xFFFFFFFFFFFFFFFFFFFFFFFFFFFFFFFFFFFFFFFF AND PUSH20 0xFFFFFFFFFFFFFFFFFFFFFFFFFFFFFFFFFFFFFFFF AND EQ PUSH2 0x29B JUMPI PUSH1 0x40 MLOAD PUSH32 0x8C379A000000000000000000000000000000000000000000000000000000000 DUP2 MSTORE PUSH1 0x4 ADD PUSH2 0x292 SWAP1 PUSH2 0x7E1 JUMP JUMPDEST PUSH1 0x40 MLOAD DUP1 SWAP2 SUB SWAP1 REVERT JUMPDEST DUP1 PUSH1 0x0 DUP1 CALLER PUSH20 0xFFFFFFFFFFFFFFFFFFFFFFFFFFFFFFFFFFFFFFFF AND PUSH20 0xFFFFFFFFFFFFFFFFFFFFFFFFFFFFFFFFFFFFFFFF AND DUP2 MSTORE PUSH1 0x20 ADD SWAP1 DUP2 MSTORE PUSH1 0x20 ADD PUSH1 0x0 KECCAK256 PUSH1 0x0 DUP3 ADD MLOAD DUP2 PUSH1 0x0 ADD PUSH1 0x0 PUSH2 0x100 EXP DUP2 SLOAD DUP2 PUSH20 0xFFFFFFFFFFFFFFFFFFFFFFFFFFFFFFFFFFFFFFFF MUL NOT AND SWAP1 DUP4 PUSH20 0xFFFFFFFFFFFFFFFFFFFFFFFFFFFFFFFFFFFFFFFF AND MUL OR SWAP1 SSTORE POP PUSH1 0x20 DUP3 ADD MLOAD DUP2 PUSH1 0x1 ADD SWAP1 DUP2 PUSH2 0x336 SWAP2 SWAP1 PUSH2 0x9B7 JUMP JUMPDEST POP SWAP1 POP POP POP JUMP JUMPDEST PUSH1 0x40 MLOAD DUP1 PUSH1 0x40 ADD PUSH1 0x40 MSTORE DUP1 PUSH1 0x0 PUSH20 0xFFFFFFFFFFFFFFFFFFFFFFFFFFFFFFFFFFFFFFFF AND DUP2 MSTORE PUSH1 0x20 ADD PUSH1 0x60 DUP2 MSTORE POP SWAP1 JUMP JUMPDEST PUSH1 0x0 PUSH1 0x40 MLOAD SWAP1 POP SWAP1 JUMP JUMPDEST PUSH1 0x0 DUP1 REVERT JUMPDEST PUSH1 0x0 DUP1 REVERT JUMPDEST PUSH1 0x0 PUSH20 0xFFFFFFFFFFFFFFFFFFFFFFFFFFFFFFFFFFFFFFFF DUP3 AND SWAP1 POP SWAP2 SWAP1 POP JUMP JUMPDEST PUSH1 0x0 PUSH2 0x3AC DUP3 PUSH2 0x381 JUMP JUMPDEST SWAP1 POP SWAP2 SWAP1 POP JUMP JUMPDEST PUSH2 0x3BC DUP2 PUSH2 0x3A1 JUMP JUMPDEST DUP2 EQ PUSH2 0x3C7 JUMPI PUSH1 0x0 DUP1 REVERT JUMPDEST POP JUMP JUMPDEST PUSH1 0x0 DUP2 CALLDATALOAD SWAP1 POP PUSH2 0x3D9 DUP2 PUSH2 0x3B3 JUMP JUMPDEST SWAP3 SWAP2 POP POP JUMP JUMPDEST PUSH1 0x0 PUSH1 0x20 DUP3 DUP5 SUB SLT ISZERO PUSH2 0x3F5 JUMPI PUSH2 0x3F4 PUSH2 0x377 JUMP JUMPDEST JUMPDEST PUSH1 0x0 PUSH2 0x403 DUP5 DUP3 DUP6 ADD PUSH2 0x3CA JUMP JUMPDEST SWAP2 POP POP SWAP3 SWAP2 POP POP JUMP JUMPDEST PUSH2 0x415 DUP2 PUSH2 0x3A1 JUMP JUMPDEST DUP3 MSTORE POP POP JUMP JUMPDEST PUSH1 0x0 DUP2 MLOAD SWAP1 POP SWAP2 SWAP1 POP JUMP JUMPDEST PUSH1 0x0 DUP3 DUP3 MSTORE PUSH1 0x20 DUP3 ADD SWAP1 POP SWAP3 SWAP2 POP POP JUMP JUMPDEST PUSH1 0x0 JUMPDEST DUP4 DUP2 LT ISZERO PUSH2 0x455 JUMPI DUP1 DUP3 ADD MLOAD DUP2 DUP5 ADD MSTORE PUSH1 0x20 DUP2 ADD SWAP1 POP PUSH2 0x43A JUMP JUMPDEST PUSH1 0x0 DUP5 DUP5 ADD MSTORE POP POP POP POP JUMP JUMPDEST PUSH1 0x0 PUSH1 0x1F NOT PUSH1 0x1F DUP4 ADD AND SWAP1 POP SWAP2 SWAP1 POP JUMP JUMPDEST PUSH1 0x0 PUSH2 0x47D DUP3 PUSH2 0x41B JUMP JUMPDEST PUSH2 0x487 DUP2 DUP6 PUSH2 0x426 JUMP JUMPDEST SWAP4 POP PUSH2 0x497 DUP2 DUP6 PUSH1 0x20 DUP7 ADD PUSH2 0x437 JUMP JUMPDEST PUSH2 0x4A0 DUP2 PUSH2 0x461 JUMP JUMPDEST DUP5 ADD SWAP2 POP POP SWAP3 SWAP2 POP POP JUMP JUMPDEST PUSH1 0x0 PUSH1 0x40 DUP4 ADD PUSH1 0x0 DUP4 ADD MLOAD PUSH2 0x4C3 PUSH1 0x0 DUP7 ADD DUP3 PUSH2 0x40C JUMP JUMPDEST POP PUSH1 0x20 DUP4 ADD MLOAD DUP5 DUP3 SUB PUSH1 0x20 DUP7 ADD MSTORE PUSH2 0x4DB DUP3 DUP3 PUSH2 0x472 JUMP JUMPDEST SWAP2 POP POP DUP1 SWAP2 POP POP SWAP3 SWAP2 POP POP JUMP JUMPDEST PUSH1 0x0 PUSH1 0x20 DUP3 ADD SWAP1 POP DUP2 DUP2 SUB PUSH1 0x0 DUP4 ADD MSTORE PUSH2 0x502 DUP2 DUP5 PUSH2 0x4AB JUMP JUMPDEST SWAP1 POP SWAP3 SWAP2 POP POP JUMP JUMPDEST PUSH1 0x0 DUP1 REVERT JUMPDEST PUSH32 0x4E487B7100000000000000000000000000000000000000000000000000000000 PUSH1 0x0 MSTORE PUSH1 0x41 PUSH1 0x4 MSTORE PUSH1 0x24 PUSH1 0x0 REVERT JUMPDEST PUSH2 0x547 DUP3 PUSH2 0x461 JUMP JUMPDEST DUP2 ADD DUP2 DUP2 LT PUSH8 0xFFFFFFFFFFFFFFFF DUP3 GT OR ISZERO PUSH2 0x566 JUMPI PUSH2 0x565 PUSH2 0x50F JUMP JUMPDEST JUMPDEST DUP1 PUSH1 0x40 MSTORE POP POP POP JUMP JUMPDEST PUSH1 0x0 PUSH2 0x579 PUSH2 0x36D JUMP JUMPDEST SWAP1 POP PUSH2 0x585 DUP3 DUP3 PUSH2 0x53E JUMP JUMPDEST SWAP2 SWAP1 POP JUMP JUMPDEST PUSH1 0x0 DUP1 REVERT JUMPDEST PUSH1 0x0 DUP1 REVERT JUMPDEST PUSH1 0x0 DUP1 REVERT JUMPDEST PUSH1 0x0 PUSH8 0xFFFFFFFFFFFFFFFF DUP3 GT ISZERO PUSH2 0x5B4 JUMPI PUSH2 0x5B3 PUSH2 0x50F JUMP JUMPDEST JUMPDEST PUSH2 0x5BD DUP3 PUSH2 0x461 JUMP JUMPDEST SWAP1 POP PUSH1 0x20 DUP2 ADD SWAP1 POP SWAP2 SWAP1 POP JUMP JUMPDEST DUP3 DUP2 DUP4 CALLDATACOPY PUSH1 0x0 DUP4 DUP4 ADD MSTORE POP POP POP JUMP JUMPDEST PUSH1 0x0 PUSH2 0x5EC PUSH2 0x5E7 DUP5 PUSH2 0x599 JUMP JUMPDEST PUSH2 0x56F JUMP JUMPDEST SWAP1 POP DUP3 DUP2 MSTORE PUSH1 0x20 DUP2 ADD DUP5 DUP5 DUP5 ADD GT ISZERO PUSH2 0x608 JUMPI PUSH2 0x607 PUSH2 0x594 JUMP JUMPDEST JUMPDEST PUSH2 0x613 DUP5 DUP3 DUP6 PUSH2 0x5CA JUMP JUMPDEST POP SWAP4 SWAP3 POP POP POP JUMP JUMPDEST PUSH1 0x0 DUP3 PUSH1 0x1F DUP4 ADD SLT PUSH2 0x630 JUMPI PUSH2 0x62F PUSH2 0x58F JUMP JUMPDEST JUMPDEST DUP2 CALLDATALOAD PUSH2 0x640 DUP5 DUP3 PUSH1 0x20 DUP7 ADD PUSH2 0x5D9 JUMP JUMPDEST SWAP2 POP POP SWAP3 SWAP2 POP POP JUMP JUMPDEST PUSH1 0x0 PUSH1 0x40 DUP3 DUP5 SUB SLT ISZERO PUSH2 0x65F JUMPI PUSH2 0x65E PUSH2 0x50A JUMP JUMPDEST JUMPDEST PUSH2 0x669 PUSH1 0x40 PUSH2 0x56F JUMP JUMPDEST SWAP1 POP PUSH1 0x0 PUSH2 0x679 DUP5 DUP3 DUP6 ADD PUSH2 0x3CA JUMP JUMPDEST PUSH1 0x0 DUP4 ADD MSTORE POP PUSH1 0x20 DUP3 ADD CALLDATALOAD PUSH8 0xFFFFFFFFFFFFFFFF DUP2 GT ISZERO PUSH2 0x69D JUMPI PUSH2 0x69C PUSH2 0x58A JUMP JUMPDEST JUMPDEST PUSH2 0x6A9 DUP5 DUP3 DUP6 ADD PUSH2 0x61B JUMP JUMPDEST PUSH1 0x20 DUP4 ADD MSTORE POP SWAP3 SWAP2 POP POP JUMP JUMPDEST PUSH1 0x0 PUSH1 0x20 DUP3 DUP5 SUB SLT ISZERO PUSH2 0x6CB JUMPI PUSH2 0x6CA PUSH2 0x377 JUMP JUMPDEST JUMPDEST PUSH1 0x0 DUP3 ADD CALLDATALOAD PUSH8 0xFFFFFFFFFFFFFFFF DUP2 GT ISZERO PUSH2 0x6E9 JUMPI PUSH2 0x6E8 PUSH2 0x37C JUMP JUMPDEST JUMPDEST PUSH2 0x6F5 DUP5 DUP3 DUP6 ADD PUSH2 0x649 JUMP JUMPDEST SWAP2 POP POP SWAP3 SWAP2 POP POP JUMP JUMPDEST PUSH32 0x4E487B7100000000000000000000000000000000000000000000000000000000 PUSH1 0x0 MSTORE PUSH1 0x22 PUSH1 0x4 MSTORE PUSH1 0x24 PUSH1 0x0 REVERT JUMPDEST PUSH1 0x0 PUSH1 0x2 DUP3 DIV SWAP1 POP PUSH1 0x1 DUP3 AND DUP1 PUSH2 0x745 JUMPI PUSH1 0x7F DUP3 AND SWAP2 POP JUMPDEST PUSH1 0x20 DUP3 LT DUP2 SUB PUSH2 0x758 JUMPI PUSH2 0x757 PUSH2 0x6FE JUMP JUMPDEST JUMPDEST POP SWAP2 SWAP1 POP JUMP JUMPDEST PUSH1 0x0 DUP3 DUP3 MSTORE PUSH1 0x20 DUP3 ADD SWAP1 POP SWAP3 SWAP2 POP POP JUMP JUMPDEST PUSH32 0x5573657220616C72656164792065786973747320666F72207468697320616464 PUSH1 0x0 DUP3 ADD MSTORE PUSH32 0x7265737300000000000000000000000000000000000000000000000000000000 PUSH1 0x20 DUP3 ADD MSTORE POP JUMP JUMPDEST PUSH1 0x0 PUSH2 0x7CB PUSH1 0x24 DUP4 PUSH2 0x75E JUMP JUMPDEST SWAP2 POP PUSH2 0x7D6 DUP3 PUSH2 0x76F JUMP JUMPDEST PUSH1 0x40 DUP3 ADD SWAP1 POP SWAP2 SWAP1 POP JUMP JUMPDEST PUSH1 0x0 PUSH1 0x20 DUP3 ADD SWAP1 POP DUP2 DUP2 SUB PUSH1 0x0 DUP4 ADD MSTORE PUSH2 0x7FA DUP2 PUSH2 0x7BE JUMP JUMPDEST SWAP1 POP SWAP2 SWAP1 POP JUMP JUMPDEST PUSH1 0x0 DUP2 SWAP1 POP DUP2 PUSH1 0x0 MSTORE PUSH1 0x20 PUSH1 0x0 KECCAK256 SWAP1 POP SWAP2 SWAP1 POP JUMP JUMPDEST PUSH1 0x0 PUSH1 0x20 PUSH1 0x1F DUP4 ADD DIV SWAP1 POP SWAP2 SWAP1 POP JUMP JUMPDEST PUSH1 0x0 DUP3 DUP3 SHL SWAP1 POP SWAP3 SWAP2 POP POP JUMP JUMPDEST PUSH1 0x0 PUSH1 0x8 DUP4 MUL PUSH2 0x863 PUSH32 0xFFFFFFFFFFFFFFFFFFFFFFFFFFFFFFFFFFFFFFFFFFFFFFFFFFFFFFFFFFFFFFFF DUP3 PUSH2 0x826 JUMP JUMPDEST PUSH2 0x86D DUP7 DUP4 PUSH2 0x826 JUMP JUMPDEST SWAP6 POP DUP1 NOT DUP5 AND SWAP4 POP DUP1 DUP7 AND DUP5 OR SWAP3 POP POP POP SWAP4 SWAP3 POP POP POP JUMP JUMPDEST PUSH1 0x0 DUP2 SWAP1 POP SWAP2 SWAP1 POP JUMP JUMPDEST PUSH1 0x0 DUP2 SWAP1 POP SWAP2 SWAP1 POP JUMP JUMPDEST PUSH1 0x0 PUSH2 0x8B4 PUSH2 0x8AF PUSH2 0x8AA DUP5 PUSH2 0x885 JUMP JUMPDEST PUSH2 0x88F JUMP JUMPDEST PUSH2 0x885 JUMP JUMPDEST SWAP1 POP SWAP2 SWAP1 POP JUMP JUMPDEST PUSH1 0x0 DUP2 SWAP1 POP SWAP2 SWAP1 POP JUMP JUMPDEST PUSH2 0x8CE DUP4 PUSH2 0x899 JUMP JUMPDEST PUSH2 0x8E2 PUSH2 0x8DA DUP3 PUSH2 0x8BB JUMP JUMPDEST DUP5 DUP5 SLOAD PUSH2 0x833 JUMP JUMPDEST DUP3 SSTORE POP POP POP POP JUMP JUMPDEST PUSH1 0x0 SWAP1 JUMP JUMPDEST PUSH2 0x8F7 PUSH2 0x8EA JUMP JUMPDEST PUSH2 0x902 DUP2 DUP5 DUP5 PUSH2 0x8C5 JUMP JUMPDEST POP POP POP JUMP JUMPDEST JUMPDEST DUP2 DUP2 LT ISZERO PUSH2 0x926 JUMPI PUSH2 0x91B PUSH1 0x0 DUP3 PUSH2 0x8EF JUMP JUMPDEST PUSH1 0x1 DUP2 ADD SWAP1 POP PUSH2 0x908 JUMP JUMPDEST POP POP JUMP JUMPDEST PUSH1 0x1F DUP3 GT ISZERO PUSH2 0x96B JUMPI PUSH2 0x93C DUP2 PUSH2 0x801 JUMP JUMPDEST PUSH2 0x945 DUP5 PUSH2 0x816 JUMP JUMPDEST DUP2 ADD PUSH1 0x20 DUP6 LT ISZERO PUSH2 0x954 JUMPI DUP2 SWAP1 POP JUMPDEST PUSH2 0x968 PUSH2 0x960 DUP6 PUSH2 0x816 JUMP JUMPDEST DUP4 ADD DUP3 PUSH2 0x907 JUMP JUMPDEST POP POP JUMPDEST POP POP POP JUMP JUMPDEST PUSH1 0x0 DUP3 DUP3 SHR SWAP1 POP SWAP3 SWAP2 POP POP JUMP JUMPDEST PUSH1 0x0 PUSH2 0x98E PUSH1 0x0 NOT DUP5 PUSH1 0x8 MUL PUSH2 0x970 JUMP JUMPDEST NOT DUP1 DUP4 AND SWAP2 POP POP SWAP3 SWAP2 POP POP JUMP JUMPDEST PUSH1 0x0 PUSH2 0x9A7 DUP4 DUP4 PUSH2 0x97D JUMP JUMPDEST SWAP2 POP DUP3 PUSH1 0x2 MUL DUP3 OR SWAP1 POP SWAP3 SWAP2 POP POP JUMP JUMPDEST PUSH2 0x9C0 DUP3 PUSH2 0x41B JUMP JUMPDEST PUSH8 0xFFFFFFFFFFFFFFFF DUP2 GT ISZERO PUSH2 0x9D9 JUMPI PUSH2 0x9D8 PUSH2 0x50F JUMP JUMPDEST JUMPDEST PUSH2 0x9E3 DUP3 SLOAD PUSH2 0x72D JUMP JUMPDEST PUSH2 0x9EE DUP3 DUP3 DUP6 PUSH2 0x92A JUMP JUMPDEST PUSH1 0x0 PUSH1 0x20 SWAP1 POP PUSH1 0x1F DUP4 GT PUSH1 0x1 DUP2 EQ PUSH2 0xA21 JUMPI PUSH1 0x0 DUP5 ISZERO PUSH2 0xA0F JUMPI DUP3 DUP8 ADD MLOAD SWAP1 POP JUMPDEST PUSH2 0xA19 DUP6 DUP3 PUSH2 0x99B JUMP JUMPDEST DUP7 SSTORE POP PUSH2 0xA81 JUMP JUMPDEST PUSH1 0x1F NOT DUP5 AND PUSH2 0xA2F DUP7 PUSH2 0x801 JUMP JUMPDEST PUSH1 0x0 JUMPDEST DUP3 DUP2 LT ISZERO PUSH2 0xA57 JUMPI DUP5 DUP10 ADD MLOAD DUP3 SSTORE PUSH1 0x1 DUP3 ADD SWAP2 POP PUSH1 0x20 DUP6 ADD SWAP5 POP PUSH1 0x20 DUP2 ADD SWAP1 POP PUSH2 0xA32 JUMP JUMPDEST DUP7 DUP4 LT ISZERO PUSH2 0xA74 JUMPI DUP5 DUP10 ADD MLOAD PUSH2 0xA70 PUSH1 0x1F DUP10 AND DUP3 PUSH2 0x97D JUMP JUMPDEST DUP4 SSTORE POP JUMPDEST PUSH1 0x1 PUSH1 0x2 DUP9 MUL ADD DUP9 SSTORE POP POP POP JUMPDEST POP POP POP POP POP POP JUMP INVALID LOG2 PUSH5 0x6970667358 0x22 SLT KECCAK256 0xF8 SWAP1 0x29 CALLDATASIZE CALL SWAP4 0x4C MSTORE8 SWAP3 LOG2 PUSH14 0xD3BF80597D4AAC8893AE176D225A MUL DIV DELEGATECALL 0xF DUP3 0xE1 0xCF PUSH5 0x736F6C6343 STOP ADDMOD SGT STOP CALLER "},"methodIdentifiers":{"getUser(address)":"6f77926b","set((address,string))":"82001a45"}}}}}