{"contracts/AccessControl.sol":{"AccessControl":{"abi":[{"inputs":[{"internalType":"address","name":"fileRegisterContract","type":"address"}],"stateMutability":"nonpayable","type":"constructor"},{"inputs":[{"components":[{"internalType":"address","name":"account","type":"address"},{"internalType":"string","name":"userName","type":"string"},{"internalType":"string","name":"publicKey","type":"string"},{"internalType":"string","name":"privateKey","type":"string"}],"internalType":"struct UserRegister.User","name":"user","type":"tuple"},{"components":[{"internalType":"string","name":"ipfsCID","type":"string"},{"internalType":"string","name":"fileName","type":"string"},{"internalType":"address","name":"owner","type":"address"},{"internalType":"string","name":"fileType","type":"string"},{"internalType":"string","name":"iv","type":"string"}],"internalType":"struct FileRegister.File","name":"file","type":"tuple"}],"name":"getEncSymmetricKeyFileUser","outputs":[{"internalType":"string","name":"","type":"string"}],"stateMutability":"view","type":"function"},{"inputs":[{"components":[{"internalType":"address","name":"account","type":"address"},{"internalType":"string","name":"userName","type":"string"},{"internalType":"string","name":"publicKey","type":"string"},{"internalType":"string","name":"privateKey","type":"string"}],"internalType":"struct UserRegister.User","name":"user","type":"tuple"},{"components":[{"internalType":"string","name":"ipfsCID","type":"string"},{"internalType":"string","name":"fileName","type":"string"},{"internalType":"address","name":"owner","type":"address"},{"internalType":"string","name":"fileType","type":"string"},{"internalType":"string","name":"iv","type":"string"}],"internalType":"struct FileRegister.File","name":"file","type":"tuple"}],"name":"getPermissionsOverFile","outputs":[{"internalType":"string[]","name":"","type":"string[]"}],"stateMutability":"view","type":"function"},{"inputs":[{"internalType":"address","name":"account","type":"address"}],"name":"getUserFiles","outputs":[{"components":[{"internalType":"bool","name":"success","type":"bool"},{"components":[{"internalType":"string","name":"ipfsCID","type":"string"},{"internalType":"string","name":"fileName","type":"string"},{"internalType":"address","name":"owner","type":"address"},{"internalType":"string","name":"fileType","type":"string"},{"internalType":"string","name":"iv","type":"string"}],"internalType":"struct FileRegister.File[]","name":"files","type":"tuple[]"}],"internalType":"struct AccessControl.ResultAction","name":"","type":"tuple"}],"stateMutability":"view","type":"function"},{"inputs":[{"components":[{"internalType":"address","name":"account","type":"address"},{"internalType":"string","name":"userName","type":"string"},{"internalType":"string","name":"publicKey","type":"string"},{"internalType":"string","name":"privateKey","type":"string"}],"internalType":"struct UserRegister.User","name":"user","type":"tuple"},{"components":[{"internalType":"string","name":"ipfsCID","type":"string"},{"internalType":"string","name":"fileName","type":"string"},{"internalType":"address","name":"owner","type":"address"},{"internalType":"string","name":"fileType","type":"string"},{"internalType":"string","name":"iv","type":"string"}],"internalType":"struct FileRegister.File","name":"file","type":"tuple"},{"internalType":"string","name":"encSymmetricKey","type":"string"},{"internalType":"string[]","name":"permissions","type":"string[]"}],"name":"shareFile","outputs":[],"stateMutability":"nonpayable","type":"function"},{"inputs":[{"components":[{"internalType":"address","name":"account","type":"address"},{"internalType":"string","name":"userName","type":"string"},{"internalType":"string","name":"publicKey","type":"string"},{"internalType":"string","name":"privateKey","type":"string"}],"internalType":"struct UserRegister.User","name":"user","type":"tuple"},{"components":[{"internalType":"string","name":"ipfsCID","type":"string"},{"internalType":"string","name":"fileName","type":"string"},{"internalType":"address","name":"owner","type":"address"},{"internalType":"string","name":"fileType","type":"string"},{"internalType":"string","name":"iv","type":"string"}],"internalType":"struct FileRegister.File","name":"file","type":"tuple"},{"internalType":"string","name":"encSymmetricKey","type":"string"}],"name":"uploadFile","outputs":[],"stateMutability":"nonpayable","type":"function"},{"inputs":[{"components":[{"internalType":"address","name":"account","type":"address"},{"internalType":"string","name":"userName","type":"string"},{"internalType":"string","name":"publicKey","type":"string"},{"internalType":"string","name":"privateKey","type":"string"}],"internalType":"struct UserRegister.User","name":"user","type":"tuple"},{"components":[{"internalType":"string","name":"ipfsCID","type":"string"},{"internalType":"string","name":"fileName","type":"string"},{"internalType":"address","name":"owner","type":"address"},{"internalType":"string","name":"fileType","type":"string"},{"internalType":"string","name":"iv","type":"string"}],"internalType":"struct FileRegister.File","name":"file","type":"tuple"}],"name":"userAssociatedWithFile","outputs":[{"internalType":"bool","name":"","type":"bool"}],"stateMutability":"view","type":"function"}],"evm":{"bytecode":{"linkReferences":{},"object":"60806040523480156200001157600080fd5b5060405162002350380380620023508339818101604052810190620000379190620000e9565b80600160006101000a81548173ffffffffffffffffffffffffffffffffffffffff021916908373ffffffffffffffffffffffffffffffffffffffff160217905550506200011b565b600080fd5b600073ffffffffffffffffffffffffffffffffffffffff82169050919050565b6000620000b18262000084565b9050919050565b620000c381620000a4565b8114620000cf57600080fd5b50565b600081519050620000e381620000b8565b92915050565b6000602082840312156200010257620001016200007f565b5b60006200011284828501620000d2565b91505092915050565b612225806200012b6000396000f3fe608060405234801561001057600080fd5b50600436106100625760003560e01c80631fc3792214610067578063533f2134146100975780635d02eece146100c75780639468a12e146100f7578063ad4d2bb214610113578063de6b9f7d14610143575b600080fd5b610081600480360381019061007c919061110f565b61015f565b60405161008e9190611380565b60405180910390f35b6100b160048036038101906100ac91906116a9565b61043e565b6040516100be91906117e3565b60405180910390f35b6100e160048036038101906100dc91906116a9565b6106c4565b6040516100ee919061184f565b60405180910390f35b610111600480360381019061010c9190611957565b6108c4565b005b61012d600480360381019061012891906116a9565b6108fd565b60405161013a9190611a3d565b60405180910390f35b61015d60048036038101906101589190611a58565b610a46565b005b610167610f62565b6000808054905067ffffffffffffffff811115610187576101866113a7565b5b6040519080825280602002602001820160405280156101c057816020015b6101ad610f7e565b8152602001906001900390816101a55790505b5090506000805b6000805490508110156103ef578473ffffffffffffffffffffffffffffffffffffffff16600082815481106101ff576101fe611aff565b5b906000526020600020906004020160000160009054906101000a900473ffffffffffffffffffffffffffffffffffffffff1673ffffffffffffffffffffffffffffffffffffffff16036103dc57600080828154811061026157610260611aff565b5b9060005260206000209060040201600101805461027d90611b5d565b80601f01602080910402602001604051908101604052809291908181526020018280546102a990611b5d565b80156102f65780601f106102cb576101008083540402835291602001916102f6565b820191906000526020600020905b8154815290600101906020018083116102d957829003601f168201915b505050505090506000600160009054906101000a900473ffffffffffffffffffffffffffffffffffffffff1673ffffffffffffffffffffffffffffffffffffffff16639f5937f8836040518263ffffffff1660e01b815260040161035a919061184f565b600060405180830381865afa158015610377573d6000803e3d6000fd5b505050506040513d6000823e3d601f19601f820116820180604052508101906103a09190611da7565b9050600081602001519050808686815181106103bf576103be611aff565b5b602002602001018190525084806103d590611e29565b9550505050505b80806103e790611e29565b9150506101c7565b508082526000811461041c5760405180604001604052806001151581526020018381525092505050610439565b604051806040016040528060001515815260200183815250925050505b919050565b606060005b60008054905081101561066b5761055684600001516000838154811061046c5761046b611aff565b5b906000526020600020906004020160000160009054906101000a900473ffffffffffffffffffffffffffffffffffffffff168560000151600085815481106104b7576104b6611aff565b5b906000526020600020906004020160010180546104d390611b5d565b80601f01602080910402602001604051908101604052809291908181526020018280546104ff90611b5d565b801561054c5780601f106105215761010080835404028352916020019161054c565b820191906000526020600020905b81548152906001019060200180831161052f57829003601f168201915b5050505050610c53565b15610658576000818154811061056f5761056e611aff565b5b9060005260206000209060040201600301805480602002602001604051908101604052809291908181526020016000905b8282101561064c5783829060005260206000200180546105bf90611b5d565b80601f01602080910402602001604051908101604052809291908181526020018280546105eb90611b5d565b80156106385780601f1061060d57610100808354040283529160200191610638565b820191906000526020600020905b81548152906001019060200180831161061b57829003601f168201915b5050505050815260200190600101906105a0565b505050509150506106be565b808061066390611e29565b915050610443565b50600067ffffffffffffffff811115610687576106866113a7565b5b6040519080825280602002602001820160405280156106ba57816020015b60608152602001906001900390816106a55790505b5090505b92915050565b606060005b6000805490508110156108aa576107dc8460000151600083815481106106f2576106f1611aff565b5b906000526020600020906004020160000160009054906101000a900473ffffffffffffffffffffffffffffffffffffffff1685600001516000858154811061073d5761073c611aff565b5b9060005260206000209060040201600101805461075990611b5d565b80601f016020809104026020016040519081016040528092919081815260200182805461078590611b5d565b80156107d25780601f106107a7576101008083540402835291602001916107d2565b820191906000526020600020905b8154815290600101906020018083116107b557829003601f168201915b5050505050610c53565b1561089757600081815481106107f5576107f4611aff565b5b9060005260206000209060040201600201805461081190611b5d565b80601f016020809104026020016040519081016040528092919081815260200182805461083d90611b5d565b801561088a5780601f1061085f5761010080835404028352916020019161088a565b820191906000526020600020905b81548152906001019060200180831161086d57829003601f168201915b50505050509150506108be565b80806108a290611e29565b9150506106c9565b506040518060200160405280600081525090505b92915050565b60006108d085856108fd565b905080156108e9576108e3858584610ce5565b506108f7565b6108f585858585610e5a565b505b50505050565b600080600090505b600080549050811015610a3a57610a1884600001516000838154811061092e5761092d611aff565b5b906000526020600020906004020160000160009054906101000a900473ffffffffffffffffffffffffffffffffffffffff1685600001516000858154811061097957610978611aff565b5b9060005260206000209060040201600101805461099590611b5d565b80601f01602080910402602001604051908101604052809291908181526020018280546109c190611b5d565b8015610a0e5780601f106109e357610100808354040283529160200191610a0e565b820191906000526020600020905b8154815290600101906020018083116109f157829003601f168201915b5050505050610c53565b15610a27576001915050610a40565b8080610a3290611e29565b915050610905565b50600090505b92915050565b6000610a5284846108fd565b90508015610a605750610c4e565b6000600367ffffffffffffffff811115610a7d57610a7c6113a7565b5b604051908082528060200260200182016040528015610ab057816020015b6060815260200190600190039081610a9b5790505b5090506040518060400160405280600881526020017f646f776e6c6f616400000000000000000000000000000000000000000000000081525081600081518110610afd57610afc611aff565b5b60200260200101819052506040518060400160405280600681526020017f64656c657465000000000000000000000000000000000000000000000000000081525081600181518110610b5257610b51611aff565b5b60200260200101819052506040518060400160405280600581526020017f736861726500000000000000000000000000000000000000000000000000000081525081600281518110610ba757610ba6611aff565b5b6020026020010181905250610bbe85858584610e5a565b600160009054906101000a900473ffffffffffffffffffffffffffffffffffffffff1673ffffffffffffffffffffffffffffffffffffffff16639aa7f418856040518263ffffffff1660e01b8152600401610c199190611efc565b600060405180830381600087803b158015610c3357600080fd5b505af1158015610c47573d6000803e3d6000fd5b5050505050505b505050565b60008473ffffffffffffffffffffffffffffffffffffffff168473ffffffffffffffffffffffffffffffffffffffff16148015610cdb575082604051602001610c9c9190611f5a565b6040516020818303038152906040528051906020012082604051602001610cc39190611f5a565b60405160208183030381529060405280519060200120145b9050949350505050565b60005b600080549050811015610e5357610dfb846000015160008381548110610d1157610d10611aff565b5b906000526020600020906004020160000160009054906101000a900473ffffffffffffffffffffffffffffffffffffffff16856000015160008581548110610d5c57610d5b611aff565b5b90600052602060002090600402016001018054610d7890611b5d565b80601f0160208091040260200160405190810160405280929190818152602001828054610da490611b5d565b8015610df15780601f10610dc657610100808354040283529160200191610df1565b820191906000526020600020905b815481529060010190602001808311610dd457829003601f168201915b5050505050610c53565b15610e40578160008281548110610e1557610e14611aff565b5b90600052602060002090600402016003019080519060200190610e39929190610fc3565b5050610e55565b8080610e4b90611e29565b915050610ce8565b505b505050565b60006040518060800160405280866000015173ffffffffffffffffffffffffffffffffffffffff16815260200185600001518152602001848152602001838152509050600081908060018154018082558091505060019003906000526020600020906004020160009091909190915060008201518160000160006101000a81548173ffffffffffffffffffffffffffffffffffffffff021916908373ffffffffffffffffffffffffffffffffffffffff1602179055506020820151816001019081610f25919061211d565b506040820151816002019081610f3b919061211d565b506060820151816003019080519060200190610f58929190610fc3565b5050505050505050565b6040518060400160405280600015158152602001606081525090565b6040518060a001604052806060815260200160608152602001600073ffffffffffffffffffffffffffffffffffffffff16815260200160608152602001606081525090565b82805482825590600052602060002090810192821561100b579160200282015b8281111561100a578251829081610ffa919061211d565b5091602001919060010190610fe3565b5b509050611018919061101c565b5090565b5b8082111561103c57600081816110339190611040565b5060010161101d565b5090565b50805461104c90611b5d565b6000825580601f1061105e575061107d565b601f01602090049060005260206000209081019061107c9190611080565b5b50565b5b80821115611099576000816000905550600101611081565b5090565b6000604051905090565b600080fd5b600080fd5b600073ffffffffffffffffffffffffffffffffffffffff82169050919050565b60006110dc826110b1565b9050919050565b6110ec816110d1565b81146110f757600080fd5b50565b600081359050611109816110e3565b92915050565b600060208284031215611125576111246110a7565b5b6000611133848285016110fa565b91505092915050565b60008115159050919050565b6111518161113c565b82525050565b600081519050919050565b600082825260208201905092915050565b6000819050602082019050919050565b600081519050919050565b600082825260208201905092915050565b60005b838110156111bd5780820151818401526020810190506111a2565b60008484015250505050565b6000601f19601f8301169050919050565b60006111e582611183565b6111ef818561118e565b93506111ff81856020860161119f565b611208816111c9565b840191505092915050565b61121c816110d1565b82525050565b600060a083016000830151848203600086015261123f82826111da565b9150506020830151848203602086015261125982826111da565b915050604083015161126e6040860182611213565b506060830151848203606086015261128682826111da565b915050608083015184820360808601526112a082826111da565b9150508091505092915050565b60006112b98383611222565b905092915050565b6000602082019050919050565b60006112d982611157565b6112e38185611162565b9350836020820285016112f585611173565b8060005b85811015611331578484038952815161131285826112ad565b945061131d836112c1565b925060208a019950506001810190506112f9565b50829750879550505050505092915050565b600060408301600083015161135b6000860182611148565b506020830151848203602086015261137382826112ce565b9150508091505092915050565b6000602082019050818103600083015261139a8184611343565b905092915050565b600080fd5b7f4e487b7100000000000000000000000000000000000000000000000000000000600052604160045260246000fd5b6113df826111c9565b810181811067ffffffffffffffff821117156113fe576113fd6113a7565b5b80604052505050565b600061141161109d565b905061141d82826113d6565b919050565b600080fd5b600080fd5b600080fd5b600067ffffffffffffffff82111561144c5761144b6113a7565b5b611455826111c9565b9050602081019050919050565b82818337600083830152505050565b600061148461147f84611431565b611407565b9050828152602081018484840111156114a05761149f61142c565b5b6114ab848285611462565b509392505050565b600082601f8301126114c8576114c7611427565b5b81356114d8848260208601611471565b91505092915050565b6000608082840312156114f7576114f66113a2565b5b6115016080611407565b90506000611511848285016110fa565b600083015250602082013567ffffffffffffffff81111561153557611534611422565b5b611541848285016114b3565b602083015250604082013567ffffffffffffffff81111561156557611564611422565b5b611571848285016114b3565b604083015250606082013567ffffffffffffffff81111561159557611594611422565b5b6115a1848285016114b3565b60608301525092915050565b600060a082840312156115c3576115c26113a2565b5b6115cd60a0611407565b9050600082013567ffffffffffffffff8111156115ed576115ec611422565b5b6115f9848285016114b3565b600083015250602082013567ffffffffffffffff81111561161d5761161c611422565b5b611629848285016114b3565b602083015250604061163d848285016110fa565b604083015250606082013567ffffffffffffffff81111561166157611660611422565b5b61166d848285016114b3565b606083015250608082013567ffffffffffffffff81111561169157611690611422565b5b61169d848285016114b3565b60808301525092915050565b600080604083850312156116c0576116bf6110a7565b5b600083013567ffffffffffffffff8111156116de576116dd6110ac565b5b6116ea858286016114e1565b925050602083013567ffffffffffffffff81111561170b5761170a6110ac565b5b611717858286016115ad565b9150509250929050565b600081519050919050565b600082825260208201905092915050565b6000819050602082019050919050565b600061175983836111da565b905092915050565b6000602082019050919050565b600061177982611721565b611783818561172c565b9350836020820285016117958561173d565b8060005b858110156117d157848403895281516117b2858261174d565b94506117bd83611761565b925060208a01995050600181019050611799565b50829750879550505050505092915050565b600060208201905081810360008301526117fd818461176e565b905092915050565b600082825260208201905092915050565b600061182182611183565b61182b8185611805565b935061183b81856020860161119f565b611844816111c9565b840191505092915050565b600060208201905081810360008301526118698184611816565b905092915050565b600067ffffffffffffffff82111561188c5761188b6113a7565b5b602082029050602081019050919050565b600080fd5b60006118b56118b084611871565b611407565b905080838252602082019050602084028301858111156118d8576118d761189d565b5b835b8181101561191f57803567ffffffffffffffff8111156118fd576118fc611427565b5b80860161190a89826114b3565b855260208501945050506020810190506118da565b5050509392505050565b600082601f83011261193e5761193d611427565b5b813561194e8482602086016118a2565b91505092915050565b60008060008060808587031215611971576119706110a7565b5b600085013567ffffffffffffffff81111561198f5761198e6110ac565b5b61199b878288016114e1565b945050602085013567ffffffffffffffff8111156119bc576119bb6110ac565b5b6119c8878288016115ad565b935050604085013567ffffffffffffffff8111156119e9576119e86110ac565b5b6119f5878288016114b3565b925050606085013567ffffffffffffffff811115611a1657611a156110ac565b5b611a2287828801611929565b91505092959194509250565b611a378161113c565b82525050565b6000602082019050611a526000830184611a2e565b92915050565b600080600060608486031215611a7157611a706110a7565b5b600084013567ffffffffffffffff811115611a8f57611a8e6110ac565b5b611a9b868287016114e1565b935050602084013567ffffffffffffffff811115611abc57611abb6110ac565b5b611ac8868287016115ad565b925050604084013567ffffffffffffffff811115611ae957611ae86110ac565b5b611af5868287016114b3565b9150509250925092565b7f4e487b7100000000000000000000000000000000000000000000000000000000600052603260045260246000fd5b7f4e487b7100000000000000000000000000000000000000000000000000000000600052602260045260246000fd5b60006002820490506001821680611b7557607f821691505b602082108103611b8857611b87611b2e565b5b50919050565b611b978161113c565b8114611ba257600080fd5b50565b600081519050611bb481611b8e565b92915050565b6000611bcd611bc884611431565b611407565b905082815260208101848484011115611be957611be861142c565b5b611bf484828561119f565b509392505050565b600082601f830112611c1157611c10611427565b5b8151611c21848260208601611bba565b91505092915050565b600081519050611c39816110e3565b92915050565b600060a08284031215611c5557611c546113a2565b5b611c5f60a0611407565b9050600082015167ffffffffffffffff811115611c7f57611c7e611422565b5b611c8b84828501611bfc565b600083015250602082015167ffffffffffffffff811115611caf57611cae611422565b5b611cbb84828501611bfc565b6020830152506040611ccf84828501611c2a565b604083015250606082015167ffffffffffffffff811115611cf357611cf2611422565b5b611cff84828501611bfc565b606083015250608082015167ffffffffffffffff811115611d2357611d22611422565b5b611d2f84828501611bfc565b60808301525092915050565b600060408284031215611d5157611d506113a2565b5b611d5b6040611407565b90506000611d6b84828501611ba5565b600083015250602082015167ffffffffffffffff811115611d8f57611d8e611422565b5b611d9b84828501611c3f565b60208301525092915050565b600060208284031215611dbd57611dbc6110a7565b5b600082015167ffffffffffffffff811115611ddb57611dda6110ac565b5b611de784828501611d3b565b91505092915050565b7f4e487b7100000000000000000000000000000000000000000000000000000000600052601160045260246000fd5b6000819050919050565b6000611e3482611e1f565b91507fffffffffffffffffffffffffffffffffffffffffffffffffffffffffffffffff8203611e6657611e65611df0565b5b600182019050919050565b600060a0830160008301518482036000860152611e8e82826111da565b91505060208301518482036020860152611ea882826111da565b9150506040830151611ebd6040860182611213565b5060608301518482036060860152611ed582826111da565b91505060808301518482036080860152611eef82826111da565b9150508091505092915050565b60006020820190508181036000830152611f168184611e71565b905092915050565b600081905092915050565b6000611f3482611183565b611f3e8185611f1e565b9350611f4e81856020860161119f565b80840191505092915050565b6000611f668284611f29565b915081905092915050565b60008190508160005260206000209050919050565b60006020601f8301049050919050565b600082821b905092915050565b600060088302611fd37fffffffffffffffffffffffffffffffffffffffffffffffffffffffffffffffff82611f96565b611fdd8683611f96565b95508019841693508086168417925050509392505050565b6000819050919050565b600061201a61201561201084611e1f565b611ff5565b611e1f565b9050919050565b6000819050919050565b61203483611fff565b61204861204082612021565b848454611fa3565b825550505050565b600090565b61205d612050565b61206881848461202b565b505050565b5b8181101561208c57612081600082612055565b60018101905061206e565b5050565b601f8211156120d1576120a281611f71565b6120ab84611f86565b810160208510156120ba578190505b6120ce6120c685611f86565b83018261206d565b50505b505050565b600082821c905092915050565b60006120f4600019846008026120d6565b1980831691505092915050565b600061210d83836120e3565b9150826002028217905092915050565b61212682611183565b67ffffffffffffffff81111561213f5761213e6113a7565b5b6121498254611b5d565b612154828285612090565b600060209050601f8311600181146121875760008415612175578287015190505b61217f8582612101565b8655506121e7565b601f19841661219586611f71565b60005b828110156121bd57848901518255600182019150602085019450602081019050612198565b868310156121da57848901516121d6601f8916826120e3565b8355505b6001600288020188555050505b50505050505056fea2646970667358221220824d0eb8009e9422a085e8e864fca94fdc6cfb583fbfdbc6cb7a2e16eea80a7c64736f6c63430008130033","opcodes":"PUSH1 0x80 PUSH1 0x40 MSTORE CALLVALUE DUP1 ISZERO PUSH3 0x11 JUMPI PUSH1 0x0 DUP1 REVERT JUMPDEST POP PUSH1 0x40 MLOAD PUSH3 0x2350 CODESIZE SUB DUP1 PUSH3 0x2350 DUP4 CODECOPY DUP2 DUP2 ADD PUSH1 0x40 MSTORE DUP2 ADD SWAP1 PUSH3 0x37 SWAP2 SWAP1 PUSH3 0xE9 JUMP JUMPDEST DUP1 PUSH1 0x1 PUSH1 0x0 PUSH2 0x100 EXP DUP2 SLOAD DUP2 PUSH20 0xFFFFFFFFFFFFFFFFFFFFFFFFFFFFFFFFFFFFFFFF MUL NOT AND SWAP1 DUP4 PUSH20 0xFFFFFFFFFFFFFFFFFFFFFFFFFFFFFFFFFFFFFFFF AND MUL OR SWAP1 SSTORE POP POP PUSH3 0x11B JUMP JUMPDEST PUSH1 0x0 DUP1 REVERT JUMPDEST PUSH1 0x0 PUSH20 0xFFFFFFFFFFFFFFFFFFFFFFFFFFFFFFFFFFFFFFFF DUP3 AND SWAP1 POP SWAP2 SWAP1 POP JUMP JUMPDEST PUSH1 0x0 PUSH3 0xB1 DUP3 PUSH3 0x84 JUMP JUMPDEST SWAP1 POP SWAP2 SWAP1 POP JUMP JUMPDEST PUSH3 0xC3 DUP2 PUSH3 0xA4 JUMP JUMPDEST DUP2 EQ PUSH3 0xCF JUMPI PUSH1 0x0 DUP1 REVERT JUMPDEST POP JUMP JUMPDEST PUSH1 0x0 DUP2 MLOAD SWAP1 POP PUSH3 0xE3 DUP2 PUSH3 0xB8 JUMP JUMPDEST SWAP3 SWAP2 POP POP JUMP JUMPDEST PUSH1 0x0 PUSH1 0x20 DUP3 DUP5 SUB SLT ISZERO PUSH3 0x102 JUMPI PUSH3 0x101 PUSH3 0x7F JUMP JUMPDEST JUMPDEST PUSH1 0x0 PUSH3 0x112 DUP5 DUP3 DUP6 ADD PUSH3 0xD2 JUMP JUMPDEST SWAP2 POP POP SWAP3 SWAP2 POP POP JUMP JUMPDEST PUSH2 0x2225 DUP1 PUSH3 0x12B PUSH1 0x0 CODECOPY PUSH1 0x0 RETURN INVALID PUSH1 0x80 PUSH1 0x40 MSTORE CALLVALUE DUP1 ISZERO PUSH2 0x10 JUMPI PUSH1 0x0 DUP1 REVERT JUMPDEST POP PUSH1 0x4 CALLDATASIZE LT PUSH2 0x62 JUMPI PUSH1 0x0 CALLDATALOAD PUSH1 0xE0 SHR DUP1 PUSH4 0x1FC37922 EQ PUSH2 0x67 JUMPI DUP1 PUSH4 0x533F2134 EQ PUSH2 0x97 JUMPI DUP1 PUSH4 0x5D02EECE EQ PUSH2 0xC7 JUMPI DUP1 PUSH4 0x9468A12E EQ PUSH2 0xF7 JUMPI DUP1 PUSH4 0xAD4D2BB2 EQ PUSH2 0x113 JUMPI DUP1 PUSH4 0xDE6B9F7D EQ PUSH2 0x143 JUMPI JUMPDEST PUSH1 0x0 DUP1 REVERT JUMPDEST PUSH2 0x81 PUSH1 0x4 DUP1 CALLDATASIZE SUB DUP2 ADD SWAP1 PUSH2 0x7C SWAP2 SWAP1 PUSH2 0x110F JUMP JUMPDEST PUSH2 0x15F JUMP JUMPDEST PUSH1 0x40 MLOAD PUSH2 0x8E SWAP2 SWAP1 PUSH2 0x1380 JUMP JUMPDEST PUSH1 0x40 MLOAD DUP1 SWAP2 SUB SWAP1 RETURN JUMPDEST PUSH2 0xB1 PUSH1 0x4 DUP1 CALLDATASIZE SUB DUP2 ADD SWAP1 PUSH2 0xAC SWAP2 SWAP1 PUSH2 0x16A9 JUMP JUMPDEST PUSH2 0x43E JUMP JUMPDEST PUSH1 0x40 MLOAD PUSH2 0xBE SWAP2 SWAP1 PUSH2 0x17E3 JUMP JUMPDEST PUSH1 0x40 MLOAD DUP1 SWAP2 SUB SWAP1 RETURN JUMPDEST PUSH2 0xE1 PUSH1 0x4 DUP1 CALLDATASIZE SUB DUP2 ADD SWAP1 PUSH2 0xDC SWAP2 SWAP1 PUSH2 0x16A9 JUMP JUMPDEST PUSH2 0x6C4 JUMP JUMPDEST PUSH1 0x40 MLOAD PUSH2 0xEE SWAP2 SWAP1 PUSH2 0x184F JUMP JUMPDEST PUSH1 0x40 MLOAD DUP1 SWAP2 SUB SWAP1 RETURN JUMPDEST PUSH2 0x111 PUSH1 0x4 DUP1 CALLDATASIZE SUB DUP2 ADD SWAP1 PUSH2 0x10C SWAP2 SWAP1 PUSH2 0x1957 JUMP JUMPDEST PUSH2 0x8C4 JUMP JUMPDEST STOP JUMPDEST PUSH2 0x12D PUSH1 0x4 DUP1 CALLDATASIZE SUB DUP2 ADD SWAP1 PUSH2 0x128 SWAP2 SWAP1 PUSH2 0x16A9 JUMP JUMPDEST PUSH2 0x8FD JUMP JUMPDEST PUSH1 0x40 MLOAD PUSH2 0x13A SWAP2 SWAP1 PUSH2 0x1A3D JUMP JUMPDEST PUSH1 0x40 MLOAD DUP1 SWAP2 SUB SWAP1 RETURN JUMPDEST PUSH2 0x15D PUSH1 0x4 DUP1 CALLDATASIZE SUB DUP2 ADD SWAP1 PUSH2 0x158 SWAP2 SWAP1 PUSH2 0x1A58 JUMP JUMPDEST PUSH2 0xA46 JUMP JUMPDEST STOP JUMPDEST PUSH2 0x167 PUSH2 0xF62 JUMP JUMPDEST PUSH1 0x0 DUP1 DUP1 SLOAD SWAP1 POP PUSH8 0xFFFFFFFFFFFFFFFF DUP2 GT ISZERO PUSH2 0x187 JUMPI PUSH2 0x186 PUSH2 0x13A7 JUMP JUMPDEST JUMPDEST PUSH1 0x40 MLOAD SWAP1 DUP1 DUP3 MSTORE DUP1 PUSH1 0x20 MUL PUSH1 0x20 ADD DUP3 ADD PUSH1 0x40 MSTORE DUP1 ISZERO PUSH2 0x1C0 JUMPI DUP2 PUSH1 0x20 ADD JUMPDEST PUSH2 0x1AD PUSH2 0xF7E JUMP JUMPDEST DUP2 MSTORE PUSH1 0x20 ADD SWAP1 PUSH1 0x1 SWAP1 SUB SWAP1 DUP2 PUSH2 0x1A5 JUMPI SWAP1 POP JUMPDEST POP SWAP1 POP PUSH1 0x0 DUP1 JUMPDEST PUSH1 0x0 DUP1 SLOAD SWAP1 POP DUP2 LT ISZERO PUSH2 0x3EF JUMPI DUP5 PUSH20 0xFFFFFFFFFFFFFFFFFFFFFFFFFFFFFFFFFFFFFFFF AND PUSH1 0x0 DUP3 DUP2 SLOAD DUP2 LT PUSH2 0x1FF JUMPI PUSH2 0x1FE PUSH2 0x1AFF JUMP JUMPDEST JUMPDEST SWAP1 PUSH1 0x0 MSTORE PUSH1 0x20 PUSH1 0x0 KECCAK256 SWAP1 PUSH1 0x4 MUL ADD PUSH1 0x0 ADD PUSH1 0x0 SWAP1 SLOAD SWAP1 PUSH2 0x100 EXP SWAP1 DIV PUSH20 0xFFFFFFFFFFFFFFFFFFFFFFFFFFFFFFFFFFFFFFFF AND PUSH20 0xFFFFFFFFFFFFFFFFFFFFFFFFFFFFFFFFFFFFFFFF AND SUB PUSH2 0x3DC JUMPI PUSH1 0x0 DUP1 DUP3 DUP2 SLOAD DUP2 LT PUSH2 0x261 JUMPI PUSH2 0x260 PUSH2 0x1AFF JUMP JUMPDEST JUMPDEST SWAP1 PUSH1 0x0 MSTORE PUSH1 0x20 PUSH1 0x0 KECCAK256 SWAP1 PUSH1 0x4 MUL ADD PUSH1 0x1 ADD DUP1 SLOAD PUSH2 0x27D SWAP1 PUSH2 0x1B5D JUMP JUMPDEST DUP1 PUSH1 0x1F ADD PUSH1 0x20 DUP1 SWAP2 DIV MUL PUSH1 0x20 ADD PUSH1 0x40 MLOAD SWAP1 DUP2 ADD PUSH1 0x40 MSTORE DUP1 SWAP3 SWAP2 SWAP1 DUP2 DUP2 MSTORE PUSH1 0x20 ADD DUP3 DUP1 SLOAD PUSH2 0x2A9 SWAP1 PUSH2 0x1B5D JUMP JUMPDEST DUP1 ISZERO PUSH2 0x2F6 JUMPI DUP1 PUSH1 0x1F LT PUSH2 0x2CB JUMPI PUSH2 0x100 DUP1 DUP4 SLOAD DIV MUL DUP4 MSTORE SWAP2 PUSH1 0x20 ADD SWAP2 PUSH2 0x2F6 JUMP JUMPDEST DUP3 ADD SWAP2 SWAP1 PUSH1 0x0 MSTORE PUSH1 0x20 PUSH1 0x0 KECCAK256 SWAP1 JUMPDEST DUP2 SLOAD DUP2 MSTORE SWAP1 PUSH1 0x1 ADD SWAP1 PUSH1 0x20 ADD DUP1 DUP4 GT PUSH2 0x2D9 JUMPI DUP3 SWAP1 SUB PUSH1 0x1F AND DUP3 ADD SWAP2 JUMPDEST POP POP POP POP POP SWAP1 POP PUSH1 0x0 PUSH1 0x1 PUSH1 0x0 SWAP1 SLOAD SWAP1 PUSH2 0x100 EXP SWAP1 DIV PUSH20 0xFFFFFFFFFFFFFFFFFFFFFFFFFFFFFFFFFFFFFFFF AND PUSH20 0xFFFFFFFFFFFFFFFFFFFFFFFFFFFFFFFFFFFFFFFF AND PUSH4 0x9F5937F8 DUP4 PUSH1 0x40 MLOAD DUP3 PUSH4 0xFFFFFFFF AND PUSH1 0xE0 SHL DUP2 MSTORE PUSH1 0x4 ADD PUSH2 0x35A SWAP2 SWAP1 PUSH2 0x184F JUMP JUMPDEST PUSH1 0x0 PUSH1 0x40 MLOAD DUP1 DUP4 SUB DUP2 DUP7 GAS STATICCALL ISZERO DUP1 ISZERO PUSH2 0x377 JUMPI RETURNDATASIZE PUSH1 0x0 DUP1 RETURNDATACOPY RETURNDATASIZE PUSH1 0x0 REVERT JUMPDEST POP POP POP POP PUSH1 0x40 MLOAD RETURNDATASIZE PUSH1 0x0 DUP3 RETURNDATACOPY RETURNDATASIZE PUSH1 0x1F NOT PUSH1 0x1F DUP3 ADD AND DUP3 ADD DUP1 PUSH1 0x40 MSTORE POP DUP2 ADD SWAP1 PUSH2 0x3A0 SWAP2 SWAP1 PUSH2 0x1DA7 JUMP JUMPDEST SWAP1 POP PUSH1 0x0 DUP2 PUSH1 0x20 ADD MLOAD SWAP1 POP DUP1 DUP7 DUP7 DUP2 MLOAD DUP2 LT PUSH2 0x3BF JUMPI PUSH2 0x3BE PUSH2 0x1AFF JUMP JUMPDEST JUMPDEST PUSH1 0x20 MUL PUSH1 0x20 ADD ADD DUP2 SWAP1 MSTORE POP DUP5 DUP1 PUSH2 0x3D5 SWAP1 PUSH2 0x1E29 JUMP JUMPDEST SWAP6 POP POP POP POP POP JUMPDEST DUP1 DUP1 PUSH2 0x3E7 SWAP1 PUSH2 0x1E29 JUMP JUMPDEST SWAP2 POP POP PUSH2 0x1C7 JUMP JUMPDEST POP DUP1 DUP3 MSTORE PUSH1 0x0 DUP2 EQ PUSH2 0x41C JUMPI PUSH1 0x40 MLOAD DUP1 PUSH1 0x40 ADD PUSH1 0x40 MSTORE DUP1 PUSH1 0x1 ISZERO ISZERO DUP2 MSTORE PUSH1 0x20 ADD DUP4 DUP2 MSTORE POP SWAP3 POP POP POP PUSH2 0x439 JUMP JUMPDEST PUSH1 0x40 MLOAD DUP1 PUSH1 0x40 ADD PUSH1 0x40 MSTORE DUP1 PUSH1 0x0 ISZERO ISZERO DUP2 MSTORE PUSH1 0x20 ADD DUP4 DUP2 MSTORE POP SWAP3 POP POP POP JUMPDEST SWAP2 SWAP1 POP JUMP JUMPDEST PUSH1 0x60 PUSH1 0x0 JUMPDEST PUSH1 0x0 DUP1 SLOAD SWAP1 POP DUP2 LT ISZERO PUSH2 0x66B JUMPI PUSH2 0x556 DUP5 PUSH1 0x0 ADD MLOAD PUSH1 0x0 DUP4 DUP2 SLOAD DUP2 LT PUSH2 0x46C JUMPI PUSH2 0x46B PUSH2 0x1AFF JUMP JUMPDEST JUMPDEST SWAP1 PUSH1 0x0 MSTORE PUSH1 0x20 PUSH1 0x0 KECCAK256 SWAP1 PUSH1 0x4 MUL ADD PUSH1 0x0 ADD PUSH1 0x0 SWAP1 SLOAD SWAP1 PUSH2 0x100 EXP SWAP1 DIV PUSH20 0xFFFFFFFFFFFFFFFFFFFFFFFFFFFFFFFFFFFFFFFF AND DUP6 PUSH1 0x0 ADD MLOAD PUSH1 0x0 DUP6 DUP2 SLOAD DUP2 LT PUSH2 0x4B7 JUMPI PUSH2 0x4B6 PUSH2 0x1AFF JUMP JUMPDEST JUMPDEST SWAP1 PUSH1 0x0 MSTORE PUSH1 0x20 PUSH1 0x0 KECCAK256 SWAP1 PUSH1 0x4 MUL ADD PUSH1 0x1 ADD DUP1 SLOAD PUSH2 0x4D3 SWAP1 PUSH2 0x1B5D JUMP JUMPDEST DUP1 PUSH1 0x1F ADD PUSH1 0x20 DUP1 SWAP2 DIV MUL PUSH1 0x20 ADD PUSH1 0x40 MLOAD SWAP1 DUP2 ADD PUSH1 0x40 MSTORE DUP1 SWAP3 SWAP2 SWAP1 DUP2 DUP2 MSTORE PUSH1 0x20 ADD DUP3 DUP1 SLOAD PUSH2 0x4FF SWAP1 PUSH2 0x1B5D JUMP JUMPDEST DUP1 ISZERO PUSH2 0x54C JUMPI DUP1 PUSH1 0x1F LT PUSH2 0x521 JUMPI PUSH2 0x100 DUP1 DUP4 SLOAD DIV MUL DUP4 MSTORE SWAP2 PUSH1 0x20 ADD SWAP2 PUSH2 0x54C JUMP JUMPDEST DUP3 ADD SWAP2 SWAP1 PUSH1 0x0 MSTORE PUSH1 0x20 PUSH1 0x0 KECCAK256 SWAP1 JUMPDEST DUP2 SLOAD DUP2 MSTORE SWAP1 PUSH1 0x1 ADD SWAP1 PUSH1 0x20 ADD DUP1 DUP4 GT PUSH2 0x52F JUMPI DUP3 SWAP1 SUB PUSH1 0x1F AND DUP3 ADD SWAP2 JUMPDEST POP POP POP POP POP PUSH2 0xC53 JUMP JUMPDEST ISZERO PUSH2 0x658 JUMPI PUSH1 0x0 DUP2 DUP2 SLOAD DUP2 LT PUSH2 0x56F JUMPI PUSH2 0x56E PUSH2 0x1AFF JUMP JUMPDEST JUMPDEST SWAP1 PUSH1 0x0 MSTORE PUSH1 0x20 PUSH1 0x0 KECCAK256 SWAP1 PUSH1 0x4 MUL ADD PUSH1 0x3 ADD DUP1 SLOAD DUP1 PUSH1 0x20 MUL PUSH1 0x20 ADD PUSH1 0x40 MLOAD SWAP1 DUP2 ADD PUSH1 0x40 MSTORE DUP1 SWAP3 SWAP2 SWAP1 DUP2 DUP2 MSTORE PUSH1 0x20 ADD PUSH1 0x0 SWAP1 JUMPDEST DUP3 DUP3 LT ISZERO PUSH2 0x64C JUMPI DUP4 DUP3 SWAP1 PUSH1 0x0 MSTORE PUSH1 0x20 PUSH1 0x0 KECCAK256 ADD DUP1 SLOAD PUSH2 0x5BF SWAP1 PUSH2 0x1B5D JUMP JUMPDEST DUP1 PUSH1 0x1F ADD PUSH1 0x20 DUP1 SWAP2 DIV MUL PUSH1 0x20 ADD PUSH1 0x40 MLOAD SWAP1 DUP2 ADD PUSH1 0x40 MSTORE DUP1 SWAP3 SWAP2 SWAP1 DUP2 DUP2 MSTORE PUSH1 0x20 ADD DUP3 DUP1 SLOAD PUSH2 0x5EB SWAP1 PUSH2 0x1B5D JUMP JUMPDEST DUP1 ISZERO PUSH2 0x638 JUMPI DUP1 PUSH1 0x1F LT PUSH2 0x60D JUMPI PUSH2 0x100 DUP1 DUP4 SLOAD DIV MUL DUP4 MSTORE SWAP2 PUSH1 0x20 ADD SWAP2 PUSH2 0x638 JUMP JUMPDEST DUP3 ADD SWAP2 SWAP1 PUSH1 0x0 MSTORE PUSH1 0x20 PUSH1 0x0 KECCAK256 SWAP1 JUMPDEST DUP2 SLOAD DUP2 MSTORE SWAP1 PUSH1 0x1 ADD SWAP1 PUSH1 0x20 ADD DUP1 DUP4 GT PUSH2 0x61B JUMPI DUP3 SWAP1 SUB PUSH1 0x1F AND DUP3 ADD SWAP2 JUMPDEST POP POP POP POP POP DUP2 MSTORE PUSH1 0x20 ADD SWAP1 PUSH1 0x1 ADD SWAP1 PUSH2 0x5A0 JUMP JUMPDEST POP POP POP POP SWAP2 POP POP PUSH2 0x6BE JUMP JUMPDEST DUP1 DUP1 PUSH2 0x663 SWAP1 PUSH2 0x1E29 JUMP JUMPDEST SWAP2 POP POP PUSH2 0x443 JUMP JUMPDEST POP PUSH1 0x0 PUSH8 0xFFFFFFFFFFFFFFFF DUP2 GT ISZERO PUSH2 0x687 JUMPI PUSH2 0x686 PUSH2 0x13A7 JUMP JUMPDEST JUMPDEST PUSH1 0x40 MLOAD SWAP1 DUP1 DUP3 MSTORE DUP1 PUSH1 0x20 MUL PUSH1 0x20 ADD DUP3 ADD PUSH1 0x40 MSTORE DUP1 ISZERO PUSH2 0x6BA JUMPI DUP2 PUSH1 0x20 ADD JUMPDEST PUSH1 0x60 DUP2 MSTORE PUSH1 0x20 ADD SWAP1 PUSH1 0x1 SWAP1 SUB SWAP1 DUP2 PUSH2 0x6A5 JUMPI SWAP1 POP JUMPDEST POP SWAP1 POP JUMPDEST SWAP3 SWAP2 POP POP JUMP JUMPDEST PUSH1 0x60 PUSH1 0x0 JUMPDEST PUSH1 0x0 DUP1 SLOAD SWAP1 POP DUP2 LT ISZERO PUSH2 0x8AA JUMPI PUSH2 0x7DC DUP5 PUSH1 0x0 ADD MLOAD PUSH1 0x0 DUP4 DUP2 SLOAD DUP2 LT PUSH2 0x6F2 JUMPI PUSH2 0x6F1 PUSH2 0x1AFF JUMP JUMPDEST JUMPDEST SWAP1 PUSH1 0x0 MSTORE PUSH1 0x20 PUSH1 0x0 KECCAK256 SWAP1 PUSH1 0x4 MUL ADD PUSH1 0x0 ADD PUSH1 0x0 SWAP1 SLOAD SWAP1 PUSH2 0x100 EXP SWAP1 DIV PUSH20 0xFFFFFFFFFFFFFFFFFFFFFFFFFFFFFFFFFFFFFFFF AND DUP6 PUSH1 0x0 ADD MLOAD PUSH1 0x0 DUP6 DUP2 SLOAD DUP2 LT PUSH2 0x73D JUMPI PUSH2 0x73C PUSH2 0x1AFF JUMP JUMPDEST JUMPDEST SWAP1 PUSH1 0x0 MSTORE PUSH1 0x20 PUSH1 0x0 KECCAK256 SWAP1 PUSH1 0x4 MUL ADD PUSH1 0x1 ADD DUP1 SLOAD PUSH2 0x759 SWAP1 PUSH2 0x1B5D JUMP JUMPDEST DUP1 PUSH1 0x1F ADD PUSH1 0x20 DUP1 SWAP2 DIV MUL PUSH1 0x20 ADD PUSH1 0x40 MLOAD SWAP1 DUP2 ADD PUSH1 0x40 MSTORE DUP1 SWAP3 SWAP2 SWAP1 DUP2 DUP2 MSTORE PUSH1 0x20 ADD DUP3 DUP1 SLOAD PUSH2 0x785 SWAP1 PUSH2 0x1B5D JUMP JUMPDEST DUP1 ISZERO PUSH2 0x7D2 JUMPI DUP1 PUSH1 0x1F LT PUSH2 0x7A7 JUMPI PUSH2 0x100 DUP1 DUP4 SLOAD DIV MUL DUP4 MSTORE SWAP2 PUSH1 0x20 ADD SWAP2 PUSH2 0x7D2 JUMP JUMPDEST DUP3 ADD SWAP2 SWAP1 PUSH1 0x0 MSTORE PUSH1 0x20 PUSH1 0x0 KECCAK256 SWAP1 JUMPDEST DUP2 SLOAD DUP2 MSTORE SWAP1 PUSH1 0x1 ADD SWAP1 PUSH1 0x20 ADD DUP1 DUP4 GT PUSH2 0x7B5 JUMPI DUP3 SWAP1 SUB PUSH1 0x1F AND DUP3 ADD SWAP2 JUMPDEST POP POP POP POP POP PUSH2 0xC53 JUMP JUMPDEST ISZERO PUSH2 0x897 JUMPI PUSH1 0x0 DUP2 DUP2 SLOAD DUP2 LT PUSH2 0x7F5 JUMPI PUSH2 0x7F4 PUSH2 0x1AFF JUMP JUMPDEST JUMPDEST SWAP1 PUSH1 0x0 MSTORE PUSH1 0x20 PUSH1 0x0 KECCAK256 SWAP1 PUSH1 0x4 MUL ADD PUSH1 0x2 ADD DUP1 SLOAD PUSH2 0x811 SWAP1 PUSH2 0x1B5D JUMP JUMPDEST DUP1 PUSH1 0x1F ADD PUSH1 0x20 DUP1 SWAP2 DIV MUL PUSH1 0x20 ADD PUSH1 0x40 MLOAD SWAP1 DUP2 ADD PUSH1 0x40 MSTORE DUP1 SWAP3 SWAP2 SWAP1 DUP2 DUP2 MSTORE PUSH1 0x20 ADD DUP3 DUP1 SLOAD PUSH2 0x83D SWAP1 PUSH2 0x1B5D JUMP JUMPDEST DUP1 ISZERO PUSH2 0x88A JUMPI DUP1 PUSH1 0x1F LT PUSH2 0x85F JUMPI PUSH2 0x100 DUP1 DUP4 SLOAD DIV MUL DUP4 MSTORE SWAP2 PUSH1 0x20 ADD SWAP2 PUSH2 0x88A JUMP JUMPDEST DUP3 ADD SWAP2 SWAP1 PUSH1 0x0 MSTORE PUSH1 0x20 PUSH1 0x0 KECCAK256 SWAP1 JUMPDEST DUP2 SLOAD DUP2 MSTORE SWAP1 PUSH1 0x1 ADD SWAP1 PUSH1 0x20 ADD DUP1 DUP4 GT PUSH2 0x86D JUMPI DUP3 SWAP1 SUB PUSH1 0x1F AND DUP3 ADD SWAP2 JUMPDEST POP POP POP POP POP SWAP2 POP POP PUSH2 0x8BE JUMP JUMPDEST DUP1 DUP1 PUSH2 0x8A2 SWAP1 PUSH2 0x1E29 JUMP JUMPDEST SWAP2 POP POP PUSH2 0x6C9 JUMP JUMPDEST POP PUSH1 0x40 MLOAD DUP1 PUSH1 0x20 ADD PUSH1 0x40 MSTORE DUP1 PUSH1 0x0 DUP2 MSTORE POP SWAP1 POP JUMPDEST SWAP3 SWAP2 POP POP JUMP JUMPDEST PUSH1 0x0 PUSH2 0x8D0 DUP6 DUP6 PUSH2 0x8FD JUMP JUMPDEST SWAP1 POP DUP1 ISZERO PUSH2 0x8E9 JUMPI PUSH2 0x8E3 DUP6 DUP6 DUP5 PUSH2 0xCE5 JUMP JUMPDEST POP PUSH2 0x8F7 JUMP JUMPDEST PUSH2 0x8F5 DUP6 DUP6 DUP6 DUP6 PUSH2 0xE5A JUMP JUMPDEST POP JUMPDEST POP POP POP POP JUMP JUMPDEST PUSH1 0x0 DUP1 PUSH1 0x0 SWAP1 POP JUMPDEST PUSH1 0x0 DUP1 SLOAD SWAP1 POP DUP2 LT ISZERO PUSH2 0xA3A JUMPI PUSH2 0xA18 DUP5 PUSH1 0x0 ADD MLOAD PUSH1 0x0 DUP4 DUP2 SLOAD DUP2 LT PUSH2 0x92E JUMPI PUSH2 0x92D PUSH2 0x1AFF JUMP JUMPDEST JUMPDEST SWAP1 PUSH1 0x0 MSTORE PUSH1 0x20 PUSH1 0x0 KECCAK256 SWAP1 PUSH1 0x4 MUL ADD PUSH1 0x0 ADD PUSH1 0x0 SWAP1 SLOAD SWAP1 PUSH2 0x100 EXP SWAP1 DIV PUSH20 0xFFFFFFFFFFFFFFFFFFFFFFFFFFFFFFFFFFFFFFFF AND DUP6 PUSH1 0x0 ADD MLOAD PUSH1 0x0 DUP6 DUP2 SLOAD DUP2 LT PUSH2 0x979 JUMPI PUSH2 0x978 PUSH2 0x1AFF JUMP JUMPDEST JUMPDEST SWAP1 PUSH1 0x0 MSTORE PUSH1 0x20 PUSH1 0x0 KECCAK256 SWAP1 PUSH1 0x4 MUL ADD PUSH1 0x1 ADD DUP1 SLOAD PUSH2 0x995 SWAP1 PUSH2 0x1B5D JUMP JUMPDEST DUP1 PUSH1 0x1F ADD PUSH1 0x20 DUP1 SWAP2 DIV MUL PUSH1 0x20 ADD PUSH1 0x40 MLOAD SWAP1 DUP2 ADD PUSH1 0x40 MSTORE DUP1 SWAP3 SWAP2 SWAP1 DUP2 DUP2 MSTORE PUSH1 0x20 ADD DUP3 DUP1 SLOAD PUSH2 0x9C1 SWAP1 PUSH2 0x1B5D JUMP JUMPDEST DUP1 ISZERO PUSH2 0xA0E JUMPI DUP1 PUSH1 0x1F LT PUSH2 0x9E3 JUMPI PUSH2 0x100 DUP1 DUP4 SLOAD DIV MUL DUP4 MSTORE SWAP2 PUSH1 0x20 ADD SWAP2 PUSH2 0xA0E JUMP JUMPDEST DUP3 ADD SWAP2 SWAP1 PUSH1 0x0 MSTORE PUSH1 0x20 PUSH1 0x0 KECCAK256 SWAP1 JUMPDEST DUP2 SLOAD DUP2 MSTORE SWAP1 PUSH1 0x1 ADD SWAP1 PUSH1 0x20 ADD DUP1 DUP4 GT PUSH2 0x9F1 JUMPI DUP3 SWAP1 SUB PUSH1 0x1F AND DUP3 ADD SWAP2 JUMPDEST POP POP POP POP POP PUSH2 0xC53 JUMP JUMPDEST ISZERO PUSH2 0xA27 JUMPI PUSH1 0x1 SWAP2 POP POP PUSH2 0xA40 JUMP JUMPDEST DUP1 DUP1 PUSH2 0xA32 SWAP1 PUSH2 0x1E29 JUMP JUMPDEST SWAP2 POP POP PUSH2 0x905 JUMP JUMPDEST POP PUSH1 0x0 SWAP1 POP JUMPDEST SWAP3 SWAP2 POP POP JUMP JUMPDEST PUSH1 0x0 PUSH2 0xA52 DUP5 DUP5 PUSH2 0x8FD JUMP JUMPDEST SWAP1 POP DUP1 ISZERO PUSH2 0xA60 JUMPI POP PUSH2 0xC4E JUMP JUMPDEST PUSH1 0x0 PUSH1 0x3 PUSH8 0xFFFFFFFFFFFFFFFF DUP2 GT ISZERO PUSH2 0xA7D JUMPI PUSH2 0xA7C PUSH2 0x13A7 JUMP JUMPDEST JUMPDEST PUSH1 0x40 MLOAD SWAP1 DUP1 DUP3 MSTORE DUP1 PUSH1 0x20 MUL PUSH1 0x20 ADD DUP3 ADD PUSH1 0x40 MSTORE DUP1 ISZERO PUSH2 0xAB0 JUMPI DUP2 PUSH1 0x20 ADD JUMPDEST PUSH1 0x60 DUP2 MSTORE PUSH1 0x20 ADD SWAP1 PUSH1 0x1 SWAP1 SUB SWAP1 DUP2 PUSH2 0xA9B JUMPI SWAP1 POP JUMPDEST POP SWAP1 POP PUSH1 0x40 MLOAD DUP1 PUSH1 0x40 ADD PUSH1 0x40 MSTORE DUP1 PUSH1 0x8 DUP2 MSTORE PUSH1 0x20 ADD PUSH32 0x646F776E6C6F6164000000000000000000000000000000000000000000000000 DUP2 MSTORE POP DUP2 PUSH1 0x0 DUP2 MLOAD DUP2 LT PUSH2 0xAFD JUMPI PUSH2 0xAFC PUSH2 0x1AFF JUMP JUMPDEST JUMPDEST PUSH1 0x20 MUL PUSH1 0x20 ADD ADD DUP2 SWAP1 MSTORE POP PUSH1 0x40 MLOAD DUP1 PUSH1 0x40 ADD PUSH1 0x40 MSTORE DUP1 PUSH1 0x6 DUP2 MSTORE PUSH1 0x20 ADD PUSH32 0x64656C6574650000000000000000000000000000000000000000000000000000 DUP2 MSTORE POP DUP2 PUSH1 0x1 DUP2 MLOAD DUP2 LT PUSH2 0xB52 JUMPI PUSH2 0xB51 PUSH2 0x1AFF JUMP JUMPDEST JUMPDEST PUSH1 0x20 MUL PUSH1 0x20 ADD ADD DUP2 SWAP1 MSTORE POP PUSH1 0x40 MLOAD DUP1 PUSH1 0x40 ADD PUSH1 0x40 MSTORE DUP1 PUSH1 0x5 DUP2 MSTORE PUSH1 0x20 ADD PUSH32 0x7368617265000000000000000000000000000000000000000000000000000000 DUP2 MSTORE POP DUP2 PUSH1 0x2 DUP2 MLOAD DUP2 LT PUSH2 0xBA7 JUMPI PUSH2 0xBA6 PUSH2 0x1AFF JUMP JUMPDEST JUMPDEST PUSH1 0x20 MUL PUSH1 0x20 ADD ADD DUP2 SWAP1 MSTORE POP PUSH2 0xBBE DUP6 DUP6 DUP6 DUP5 PUSH2 0xE5A JUMP JUMPDEST PUSH1 0x1 PUSH1 0x0 SWAP1 SLOAD SWAP1 PUSH2 0x100 EXP SWAP1 DIV PUSH20 0xFFFFFFFFFFFFFFFFFFFFFFFFFFFFFFFFFFFFFFFF AND PUSH20 0xFFFFFFFFFFFFFFFFFFFFFFFFFFFFFFFFFFFFFFFF AND PUSH4 0x9AA7F418 DUP6 PUSH1 0x40 MLOAD DUP3 PUSH4 0xFFFFFFFF AND PUSH1 0xE0 SHL DUP2 MSTORE PUSH1 0x4 ADD PUSH2 0xC19 SWAP2 SWAP1 PUSH2 0x1EFC JUMP JUMPDEST PUSH1 0x0 PUSH1 0x40 MLOAD DUP1 DUP4 SUB DUP2 PUSH1 0x0 DUP8 DUP1 EXTCODESIZE ISZERO DUP1 ISZERO PUSH2 0xC33 JUMPI PUSH1 0x0 DUP1 REVERT JUMPDEST POP GAS CALL ISZERO DUP1 ISZERO PUSH2 0xC47 JUMPI RETURNDATASIZE PUSH1 0x0 DUP1 RETURNDATACOPY RETURNDATASIZE PUSH1 0x0 REVERT JUMPDEST POP POP POP POP POP POP JUMPDEST POP POP POP JUMP JUMPDEST PUSH1 0x0 DUP5 PUSH20 0xFFFFFFFFFFFFFFFFFFFFFFFFFFFFFFFFFFFFFFFF AND DUP5 PUSH20 0xFFFFFFFFFFFFFFFFFFFFFFFFFFFFFFFFFFFFFFFF AND EQ DUP1 ISZERO PUSH2 0xCDB JUMPI POP DUP3 PUSH1 0x40 MLOAD PUSH1 0x20 ADD PUSH2 0xC9C SWAP2 SWAP1 PUSH2 0x1F5A JUMP JUMPDEST PUSH1 0x40 MLOAD PUSH1 0x20 DUP2 DUP4 SUB SUB DUP2 MSTORE SWAP1 PUSH1 0x40 MSTORE DUP1 MLOAD SWAP1 PUSH1 0x20 ADD KECCAK256 DUP3 PUSH1 0x40 MLOAD PUSH1 0x20 ADD PUSH2 0xCC3 SWAP2 SWAP1 PUSH2 0x1F5A JUMP JUMPDEST PUSH1 0x40 MLOAD PUSH1 0x20 DUP2 DUP4 SUB SUB DUP2 MSTORE SWAP1 PUSH1 0x40 MSTORE DUP1 MLOAD SWAP1 PUSH1 0x20 ADD KECCAK256 EQ JUMPDEST SWAP1 POP SWAP5 SWAP4 POP POP POP POP JUMP JUMPDEST PUSH1 0x0 JUMPDEST PUSH1 0x0 DUP1 SLOAD SWAP1 POP DUP2 LT ISZERO PUSH2 0xE53 JUMPI PUSH2 0xDFB DUP5 PUSH1 0x0 ADD MLOAD PUSH1 0x0 DUP4 DUP2 SLOAD DUP2 LT PUSH2 0xD11 JUMPI PUSH2 0xD10 PUSH2 0x1AFF JUMP JUMPDEST JUMPDEST SWAP1 PUSH1 0x0 MSTORE PUSH1 0x20 PUSH1 0x0 KECCAK256 SWAP1 PUSH1 0x4 MUL ADD PUSH1 0x0 ADD PUSH1 0x0 SWAP1 SLOAD SWAP1 PUSH2 0x100 EXP SWAP1 DIV PUSH20 0xFFFFFFFFFFFFFFFFFFFFFFFFFFFFFFFFFFFFFFFF AND DUP6 PUSH1 0x0 ADD MLOAD PUSH1 0x0 DUP6 DUP2 SLOAD DUP2 LT PUSH2 0xD5C JUMPI PUSH2 0xD5B PUSH2 0x1AFF JUMP JUMPDEST JUMPDEST SWAP1 PUSH1 0x0 MSTORE PUSH1 0x20 PUSH1 0x0 KECCAK256 SWAP1 PUSH1 0x4 MUL ADD PUSH1 0x1 ADD DUP1 SLOAD PUSH2 0xD78 SWAP1 PUSH2 0x1B5D JUMP JUMPDEST DUP1 PUSH1 0x1F ADD PUSH1 0x20 DUP1 SWAP2 DIV MUL PUSH1 0x20 ADD PUSH1 0x40 MLOAD SWAP1 DUP2 ADD PUSH1 0x40 MSTORE DUP1 SWAP3 SWAP2 SWAP1 DUP2 DUP2 MSTORE PUSH1 0x20 ADD DUP3 DUP1 SLOAD PUSH2 0xDA4 SWAP1 PUSH2 0x1B5D JUMP JUMPDEST DUP1 ISZERO PUSH2 0xDF1 JUMPI DUP1 PUSH1 0x1F LT PUSH2 0xDC6 JUMPI PUSH2 0x100 DUP1 DUP4 SLOAD DIV MUL DUP4 MSTORE SWAP2 PUSH1 0x20 ADD SWAP2 PUSH2 0xDF1 JUMP JUMPDEST DUP3 ADD SWAP2 SWAP1 PUSH1 0x0 MSTORE PUSH1 0x20 PUSH1 0x0 KECCAK256 SWAP1 JUMPDEST DUP2 SLOAD DUP2 MSTORE SWAP1 PUSH1 0x1 ADD SWAP1 PUSH1 0x20 ADD DUP1 DUP4 GT PUSH2 0xDD4 JUMPI DUP3 SWAP1 SUB PUSH1 0x1F AND DUP3 ADD SWAP2 JUMPDEST POP POP POP POP POP PUSH2 0xC53 JUMP JUMPDEST ISZERO PUSH2 0xE40 JUMPI DUP2 PUSH1 0x0 DUP3 DUP2 SLOAD DUP2 LT PUSH2 0xE15 JUMPI PUSH2 0xE14 PUSH2 0x1AFF JUMP JUMPDEST JUMPDEST SWAP1 PUSH1 0x0 MSTORE PUSH1 0x20 PUSH1 0x0 KECCAK256 SWAP1 PUSH1 0x4 MUL ADD PUSH1 0x3 ADD SWAP1 DUP1 MLOAD SWAP1 PUSH1 0x20 ADD SWAP1 PUSH2 0xE39 SWAP3 SWAP2 SWAP1 PUSH2 0xFC3 JUMP JUMPDEST POP POP PUSH2 0xE55 JUMP JUMPDEST DUP1 DUP1 PUSH2 0xE4B SWAP1 PUSH2 0x1E29 JUMP JUMPDEST SWAP2 POP POP PUSH2 0xCE8 JUMP JUMPDEST POP JUMPDEST POP POP POP JUMP JUMPDEST PUSH1 0x0 PUSH1 0x40 MLOAD DUP1 PUSH1 0x80 ADD PUSH1 0x40 MSTORE DUP1 DUP7 PUSH1 0x0 ADD MLOAD PUSH20 0xFFFFFFFFFFFFFFFFFFFFFFFFFFFFFFFFFFFFFFFF AND DUP2 MSTORE PUSH1 0x20 ADD DUP6 PUSH1 0x0 ADD MLOAD DUP2 MSTORE PUSH1 0x20 ADD DUP5 DUP2 MSTORE PUSH1 0x20 ADD DUP4 DUP2 MSTORE POP SWAP1 POP PUSH1 0x0 DUP2 SWAP1 DUP1 PUSH1 0x1 DUP2 SLOAD ADD DUP1 DUP3 SSTORE DUP1 SWAP2 POP POP PUSH1 0x1 SWAP1 SUB SWAP1 PUSH1 0x0 MSTORE PUSH1 0x20 PUSH1 0x0 KECCAK256 SWAP1 PUSH1 0x4 MUL ADD PUSH1 0x0 SWAP1 SWAP2 SWAP1 SWAP2 SWAP1 SWAP2 POP PUSH1 0x0 DUP3 ADD MLOAD DUP2 PUSH1 0x0 ADD PUSH1 0x0 PUSH2 0x100 EXP DUP2 SLOAD DUP2 PUSH20 0xFFFFFFFFFFFFFFFFFFFFFFFFFFFFFFFFFFFFFFFF MUL NOT AND SWAP1 DUP4 PUSH20 0xFFFFFFFFFFFFFFFFFFFFFFFFFFFFFFFFFFFFFFFF AND MUL OR SWAP1 SSTORE POP PUSH1 0x20 DUP3 ADD MLOAD DUP2 PUSH1 0x1 ADD SWAP1 DUP2 PUSH2 0xF25 SWAP2 SWAP1 PUSH2 0x211D JUMP JUMPDEST POP PUSH1 0x40 DUP3 ADD MLOAD DUP2 PUSH1 0x2 ADD SWAP1 DUP2 PUSH2 0xF3B SWAP2 SWAP1 PUSH2 0x211D JUMP JUMPDEST POP PUSH1 0x60 DUP3 ADD MLOAD DUP2 PUSH1 0x3 ADD SWAP1 DUP1 MLOAD SWAP1 PUSH1 0x20 ADD SWAP1 PUSH2 0xF58 SWAP3 SWAP2 SWAP1 PUSH2 0xFC3 JUMP JUMPDEST POP POP POP POP POP POP POP POP JUMP JUMPDEST PUSH1 0x40 MLOAD DUP1 PUSH1 0x40 ADD PUSH1 0x40 MSTORE DUP1 PUSH1 0x0 ISZERO ISZERO DUP2 MSTORE PUSH1 0x20 ADD PUSH1 0x60 DUP2 MSTORE POP SWAP1 JUMP JUMPDEST PUSH1 0x40 MLOAD DUP1 PUSH1 0xA0 ADD PUSH1 0x40 MSTORE DUP1 PUSH1 0x60 DUP2 MSTORE PUSH1 0x20 ADD PUSH1 0x60 DUP2 MSTORE PUSH1 0x20 ADD PUSH1 0x0 PUSH20 0xFFFFFFFFFFFFFFFFFFFFFFFFFFFFFFFFFFFFFFFF AND DUP2 MSTORE PUSH1 0x20 ADD PUSH1 0x60 DUP2 MSTORE PUSH1 0x20 ADD PUSH1 0x60 DUP2 MSTORE POP SWAP1 JUMP JUMPDEST DUP3 DUP1 SLOAD DUP3 DUP3 SSTORE SWAP1 PUSH1 0x0 MSTORE PUSH1 0x20 PUSH1 0x0 KECCAK256 SWAP1 DUP2 ADD SWAP3 DUP3 ISZERO PUSH2 0x100B JUMPI SWAP2 PUSH1 0x20 MUL DUP3 ADD JUMPDEST DUP3 DUP2 GT ISZERO PUSH2 0x100A JUMPI DUP3 MLOAD DUP3 SWAP1 DUP2 PUSH2 0xFFA SWAP2 SWAP1 PUSH2 0x211D JUMP JUMPDEST POP SWAP2 PUSH1 0x20 ADD SWAP2 SWAP1 PUSH1 0x1 ADD SWAP1 PUSH2 0xFE3 JUMP JUMPDEST JUMPDEST POP SWAP1 POP PUSH2 0x1018 SWAP2 SWAP1 PUSH2 0x101C JUMP JUMPDEST POP SWAP1 JUMP JUMPDEST JUMPDEST DUP1 DUP3 GT ISZERO PUSH2 0x103C JUMPI PUSH1 0x0 DUP2 DUP2 PUSH2 0x1033 SWAP2 SWAP1 PUSH2 0x1040 JUMP JUMPDEST POP PUSH1 0x1 ADD PUSH2 0x101D JUMP JUMPDEST POP SWAP1 JUMP JUMPDEST POP DUP1 SLOAD PUSH2 0x104C SWAP1 PUSH2 0x1B5D JUMP JUMPDEST PUSH1 0x0 DUP3 SSTORE DUP1 PUSH1 0x1F LT PUSH2 0x105E JUMPI POP PUSH2 0x107D JUMP JUMPDEST PUSH1 0x1F ADD PUSH1 0x20 SWAP1 DIV SWAP1 PUSH1 0x0 MSTORE PUSH1 0x20 PUSH1 0x0 KECCAK256 SWAP1 DUP2 ADD SWAP1 PUSH2 0x107C SWAP2 SWAP1 PUSH2 0x1080 JUMP JUMPDEST JUMPDEST POP JUMP JUMPDEST JUMPDEST DUP1 DUP3 GT ISZERO PUSH2 0x1099 JUMPI PUSH1 0x0 DUP2 PUSH1 0x0 SWAP1 SSTORE POP PUSH1 0x1 ADD PUSH2 0x1081 JUMP JUMPDEST POP SWAP1 JUMP JUMPDEST PUSH1 0x0 PUSH1 0x40 MLOAD SWAP1 POP SWAP1 JUMP JUMPDEST PUSH1 0x0 DUP1 REVERT JUMPDEST PUSH1 0x0 DUP1 REVERT JUMPDEST PUSH1 0x0 PUSH20 0xFFFFFFFFFFFFFFFFFFFFFFFFFFFFFFFFFFFFFFFF DUP3 AND SWAP1 POP SWAP2 SWAP1 POP JUMP JUMPDEST PUSH1 0x0 PUSH2 0x10DC DUP3 PUSH2 0x10B1 JUMP JUMPDEST SWAP1 POP SWAP2 SWAP1 POP JUMP JUMPDEST PUSH2 0x10EC DUP2 PUSH2 0x10D1 JUMP JUMPDEST DUP2 EQ PUSH2 0x10F7 JUMPI PUSH1 0x0 DUP1 REVERT JUMPDEST POP JUMP JUMPDEST PUSH1 0x0 DUP2 CALLDATALOAD SWAP1 POP PUSH2 0x1109 DUP2 PUSH2 0x10E3 JUMP JUMPDEST SWAP3 SWAP2 POP POP JUMP JUMPDEST PUSH1 0x0 PUSH1 0x20 DUP3 DUP5 SUB SLT ISZERO PUSH2 0x1125 JUMPI PUSH2 0x1124 PUSH2 0x10A7 JUMP JUMPDEST JUMPDEST PUSH1 0x0 PUSH2 0x1133 DUP5 DUP3 DUP6 ADD PUSH2 0x10FA JUMP JUMPDEST SWAP2 POP POP SWAP3 SWAP2 POP POP JUMP JUMPDEST PUSH1 0x0 DUP2 ISZERO ISZERO SWAP1 POP SWAP2 SWAP1 POP JUMP JUMPDEST PUSH2 0x1151 DUP2 PUSH2 0x113C JUMP JUMPDEST DUP3 MSTORE POP POP JUMP JUMPDEST PUSH1 0x0 DUP2 MLOAD SWAP1 POP SWAP2 SWAP1 POP JUMP JUMPDEST PUSH1 0x0 DUP3 DUP3 MSTORE PUSH1 0x20 DUP3 ADD SWAP1 POP SWAP3 SWAP2 POP POP JUMP JUMPDEST PUSH1 0x0 DUP2 SWAP1 POP PUSH1 0x20 DUP3 ADD SWAP1 POP SWAP2 SWAP1 POP JUMP JUMPDEST PUSH1 0x0 DUP2 MLOAD SWAP1 POP SWAP2 SWAP1 POP JUMP JUMPDEST PUSH1 0x0 DUP3 DUP3 MSTORE PUSH1 0x20 DUP3 ADD SWAP1 POP SWAP3 SWAP2 POP POP JUMP JUMPDEST PUSH1 0x0 JUMPDEST DUP4 DUP2 LT ISZERO PUSH2 0x11BD JUMPI DUP1 DUP3 ADD MLOAD DUP2 DUP5 ADD MSTORE PUSH1 0x20 DUP2 ADD SWAP1 POP PUSH2 0x11A2 JUMP JUMPDEST PUSH1 0x0 DUP5 DUP5 ADD MSTORE POP POP POP POP JUMP JUMPDEST PUSH1 0x0 PUSH1 0x1F NOT PUSH1 0x1F DUP4 ADD AND SWAP1 POP SWAP2 SWAP1 POP JUMP JUMPDEST PUSH1 0x0 PUSH2 0x11E5 DUP3 PUSH2 0x1183 JUMP JUMPDEST PUSH2 0x11EF DUP2 DUP6 PUSH2 0x118E JUMP JUMPDEST SWAP4 POP PUSH2 0x11FF DUP2 DUP6 PUSH1 0x20 DUP7 ADD PUSH2 0x119F JUMP JUMPDEST PUSH2 0x1208 DUP2 PUSH2 0x11C9 JUMP JUMPDEST DUP5 ADD SWAP2 POP POP SWAP3 SWAP2 POP POP JUMP JUMPDEST PUSH2 0x121C DUP2 PUSH2 0x10D1 JUMP JUMPDEST DUP3 MSTORE POP POP JUMP JUMPDEST PUSH1 0x0 PUSH1 0xA0 DUP4 ADD PUSH1 0x0 DUP4 ADD MLOAD DUP5 DUP3 SUB PUSH1 0x0 DUP7 ADD MSTORE PUSH2 0x123F DUP3 DUP3 PUSH2 0x11DA JUMP JUMPDEST SWAP2 POP POP PUSH1 0x20 DUP4 ADD MLOAD DUP5 DUP3 SUB PUSH1 0x20 DUP7 ADD MSTORE PUSH2 0x1259 DUP3 DUP3 PUSH2 0x11DA JUMP JUMPDEST SWAP2 POP POP PUSH1 0x40 DUP4 ADD MLOAD PUSH2 0x126E PUSH1 0x40 DUP7 ADD DUP3 PUSH2 0x1213 JUMP JUMPDEST POP PUSH1 0x60 DUP4 ADD MLOAD DUP5 DUP3 SUB PUSH1 0x60 DUP7 ADD MSTORE PUSH2 0x1286 DUP3 DUP3 PUSH2 0x11DA JUMP JUMPDEST SWAP2 POP POP PUSH1 0x80 DUP4 ADD MLOAD DUP5 DUP3 SUB PUSH1 0x80 DUP7 ADD MSTORE PUSH2 0x12A0 DUP3 DUP3 PUSH2 0x11DA JUMP JUMPDEST SWAP2 POP POP DUP1 SWAP2 POP POP SWAP3 SWAP2 POP POP JUMP JUMPDEST PUSH1 0x0 PUSH2 0x12B9 DUP4 DUP4 PUSH2 0x1222 JUMP JUMPDEST SWAP1 POP SWAP3 SWAP2 POP POP JUMP JUMPDEST PUSH1 0x0 PUSH1 0x20 DUP3 ADD SWAP1 POP SWAP2 SWAP1 POP JUMP JUMPDEST PUSH1 0x0 PUSH2 0x12D9 DUP3 PUSH2 0x1157 JUMP JUMPDEST PUSH2 0x12E3 DUP2 DUP6 PUSH2 0x1162 JUMP JUMPDEST SWAP4 POP DUP4 PUSH1 0x20 DUP3 MUL DUP6 ADD PUSH2 0x12F5 DUP6 PUSH2 0x1173 JUMP JUMPDEST DUP1 PUSH1 0x0 JUMPDEST DUP6 DUP2 LT ISZERO PUSH2 0x1331 JUMPI DUP5 DUP5 SUB DUP10 MSTORE DUP2 MLOAD PUSH2 0x1312 DUP6 DUP3 PUSH2 0x12AD JUMP JUMPDEST SWAP5 POP PUSH2 0x131D DUP4 PUSH2 0x12C1 JUMP JUMPDEST SWAP3 POP PUSH1 0x20 DUP11 ADD SWAP10 POP POP PUSH1 0x1 DUP2 ADD SWAP1 POP PUSH2 0x12F9 JUMP JUMPDEST POP DUP3 SWAP8 POP DUP8 SWAP6 POP POP POP POP POP POP SWAP3 SWAP2 POP POP JUMP JUMPDEST PUSH1 0x0 PUSH1 0x40 DUP4 ADD PUSH1 0x0 DUP4 ADD MLOAD PUSH2 0x135B PUSH1 0x0 DUP7 ADD DUP3 PUSH2 0x1148 JUMP JUMPDEST POP PUSH1 0x20 DUP4 ADD MLOAD DUP5 DUP3 SUB PUSH1 0x20 DUP7 ADD MSTORE PUSH2 0x1373 DUP3 DUP3 PUSH2 0x12CE JUMP JUMPDEST SWAP2 POP POP DUP1 SWAP2 POP POP SWAP3 SWAP2 POP POP JUMP JUMPDEST PUSH1 0x0 PUSH1 0x20 DUP3 ADD SWAP1 POP DUP2 DUP2 SUB PUSH1 0x0 DUP4 ADD MSTORE PUSH2 0x139A DUP2 DUP5 PUSH2 0x1343 JUMP JUMPDEST SWAP1 POP SWAP3 SWAP2 POP POP JUMP JUMPDEST PUSH1 0x0 DUP1 REVERT JUMPDEST PUSH32 0x4E487B7100000000000000000000000000000000000000000000000000000000 PUSH1 0x0 MSTORE PUSH1 0x41 PUSH1 0x4 MSTORE PUSH1 0x24 PUSH1 0x0 REVERT JUMPDEST PUSH2 0x13DF DUP3 PUSH2 0x11C9 JUMP JUMPDEST DUP2 ADD DUP2 DUP2 LT PUSH8 0xFFFFFFFFFFFFFFFF DUP3 GT OR ISZERO PUSH2 0x13FE JUMPI PUSH2 0x13FD PUSH2 0x13A7 JUMP JUMPDEST JUMPDEST DUP1 PUSH1 0x40 MSTORE POP POP POP JUMP JUMPDEST PUSH1 0x0 PUSH2 0x1411 PUSH2 0x109D JUMP JUMPDEST SWAP1 POP PUSH2 0x141D DUP3 DUP3 PUSH2 0x13D6 JUMP JUMPDEST SWAP2 SWAP1 POP JUMP JUMPDEST PUSH1 0x0 DUP1 REVERT JUMPDEST PUSH1 0x0 DUP1 REVERT JUMPDEST PUSH1 0x0 DUP1 REVERT JUMPDEST PUSH1 0x0 PUSH8 0xFFFFFFFFFFFFFFFF DUP3 GT ISZERO PUSH2 0x144C JUMPI PUSH2 0x144B PUSH2 0x13A7 JUMP JUMPDEST JUMPDEST PUSH2 0x1455 DUP3 PUSH2 0x11C9 JUMP JUMPDEST SWAP1 POP PUSH1 0x20 DUP2 ADD SWAP1 POP SWAP2 SWAP1 POP JUMP JUMPDEST DUP3 DUP2 DUP4 CALLDATACOPY PUSH1 0x0 DUP4 DUP4 ADD MSTORE POP POP POP JUMP JUMPDEST PUSH1 0x0 PUSH2 0x1484 PUSH2 0x147F DUP5 PUSH2 0x1431 JUMP JUMPDEST PUSH2 0x1407 JUMP JUMPDEST SWAP1 POP DUP3 DUP2 MSTORE PUSH1 0x20 DUP2 ADD DUP5 DUP5 DUP5 ADD GT ISZERO PUSH2 0x14A0 JUMPI PUSH2 0x149F PUSH2 0x142C JUMP JUMPDEST JUMPDEST PUSH2 0x14AB DUP5 DUP3 DUP6 PUSH2 0x1462 JUMP JUMPDEST POP SWAP4 SWAP3 POP POP POP JUMP JUMPDEST PUSH1 0x0 DUP3 PUSH1 0x1F DUP4 ADD SLT PUSH2 0x14C8 JUMPI PUSH2 0x14C7 PUSH2 0x1427 JUMP JUMPDEST JUMPDEST DUP2 CALLDATALOAD PUSH2 0x14D8 DUP5 DUP3 PUSH1 0x20 DUP7 ADD PUSH2 0x1471 JUMP JUMPDEST SWAP2 POP POP SWAP3 SWAP2 POP POP JUMP JUMPDEST PUSH1 0x0 PUSH1 0x80 DUP3 DUP5 SUB SLT ISZERO PUSH2 0x14F7 JUMPI PUSH2 0x14F6 PUSH2 0x13A2 JUMP JUMPDEST JUMPDEST PUSH2 0x1501 PUSH1 0x80 PUSH2 0x1407 JUMP JUMPDEST SWAP1 POP PUSH1 0x0 PUSH2 0x1511 DUP5 DUP3 DUP6 ADD PUSH2 0x10FA JUMP JUMPDEST PUSH1 0x0 DUP4 ADD MSTORE POP PUSH1 0x20 DUP3 ADD CALLDATALOAD PUSH8 0xFFFFFFFFFFFFFFFF DUP2 GT ISZERO PUSH2 0x1535 JUMPI PUSH2 0x1534 PUSH2 0x1422 JUMP JUMPDEST JUMPDEST PUSH2 0x1541 DUP5 DUP3 DUP6 ADD PUSH2 0x14B3 JUMP JUMPDEST PUSH1 0x20 DUP4 ADD MSTORE POP PUSH1 0x40 DUP3 ADD CALLDATALOAD PUSH8 0xFFFFFFFFFFFFFFFF DUP2 GT ISZERO PUSH2 0x1565 JUMPI PUSH2 0x1564 PUSH2 0x1422 JUMP JUMPDEST JUMPDEST PUSH2 0x1571 DUP5 DUP3 DUP6 ADD PUSH2 0x14B3 JUMP JUMPDEST PUSH1 0x40 DUP4 ADD MSTORE POP PUSH1 0x60 DUP3 ADD CALLDATALOAD PUSH8 0xFFFFFFFFFFFFFFFF DUP2 GT ISZERO PUSH2 0x1595 JUMPI PUSH2 0x1594 PUSH2 0x1422 JUMP JUMPDEST JUMPDEST PUSH2 0x15A1 DUP5 DUP3 DUP6 ADD PUSH2 0x14B3 JUMP JUMPDEST PUSH1 0x60 DUP4 ADD MSTORE POP SWAP3 SWAP2 POP POP JUMP JUMPDEST PUSH1 0x0 PUSH1 0xA0 DUP3 DUP5 SUB SLT ISZERO PUSH2 0x15C3 JUMPI PUSH2 0x15C2 PUSH2 0x13A2 JUMP JUMPDEST JUMPDEST PUSH2 0x15CD PUSH1 0xA0 PUSH2 0x1407 JUMP JUMPDEST SWAP1 POP PUSH1 0x0 DUP3 ADD CALLDATALOAD PUSH8 0xFFFFFFFFFFFFFFFF DUP2 GT ISZERO PUSH2 0x15ED JUMPI PUSH2 0x15EC PUSH2 0x1422 JUMP JUMPDEST JUMPDEST PUSH2 0x15F9 DUP5 DUP3 DUP6 ADD PUSH2 0x14B3 JUMP JUMPDEST PUSH1 0x0 DUP4 ADD MSTORE POP PUSH1 0x20 DUP3 ADD CALLDATALOAD PUSH8 0xFFFFFFFFFFFFFFFF DUP2 GT ISZERO PUSH2 0x161D JUMPI PUSH2 0x161C PUSH2 0x1422 JUMP JUMPDEST JUMPDEST PUSH2 0x1629 DUP5 DUP3 DUP6 ADD PUSH2 0x14B3 JUMP JUMPDEST PUSH1 0x20 DUP4 ADD MSTORE POP PUSH1 0x40 PUSH2 0x163D DUP5 DUP3 DUP6 ADD PUSH2 0x10FA JUMP JUMPDEST PUSH1 0x40 DUP4 ADD MSTORE POP PUSH1 0x60 DUP3 ADD CALLDATALOAD PUSH8 0xFFFFFFFFFFFFFFFF DUP2 GT ISZERO PUSH2 0x1661 JUMPI PUSH2 0x1660 PUSH2 0x1422 JUMP JUMPDEST JUMPDEST PUSH2 0x166D DUP5 DUP3 DUP6 ADD PUSH2 0x14B3 JUMP JUMPDEST PUSH1 0x60 DUP4 ADD MSTORE POP PUSH1 0x80 DUP3 ADD CALLDATALOAD PUSH8 0xFFFFFFFFFFFFFFFF DUP2 GT ISZERO PUSH2 0x1691 JUMPI PUSH2 0x1690 PUSH2 0x1422 JUMP JUMPDEST JUMPDEST PUSH2 0x169D DUP5 DUP3 DUP6 ADD PUSH2 0x14B3 JUMP JUMPDEST PUSH1 0x80 DUP4 ADD MSTORE POP SWAP3 SWAP2 POP POP JUMP JUMPDEST PUSH1 0x0 DUP1 PUSH1 0x40 DUP4 DUP6 SUB SLT ISZERO PUSH2 0x16C0 JUMPI PUSH2 0x16BF PUSH2 0x10A7 JUMP JUMPDEST JUMPDEST PUSH1 0x0 DUP4 ADD CALLDATALOAD PUSH8 0xFFFFFFFFFFFFFFFF DUP2 GT ISZERO PUSH2 0x16DE JUMPI PUSH2 0x16DD PUSH2 0x10AC JUMP JUMPDEST JUMPDEST PUSH2 0x16EA DUP6 DUP3 DUP7 ADD PUSH2 0x14E1 JUMP JUMPDEST SWAP3 POP POP PUSH1 0x20 DUP4 ADD CALLDATALOAD PUSH8 0xFFFFFFFFFFFFFFFF DUP2 GT ISZERO PUSH2 0x170B JUMPI PUSH2 0x170A PUSH2 0x10AC JUMP JUMPDEST JUMPDEST PUSH2 0x1717 DUP6 DUP3 DUP7 ADD PUSH2 0x15AD JUMP JUMPDEST SWAP2 POP POP SWAP3 POP SWAP3 SWAP1 POP JUMP JUMPDEST PUSH1 0x0 DUP2 MLOAD SWAP1 POP SWAP2 SWAP1 POP JUMP JUMPDEST PUSH1 0x0 DUP3 DUP3 MSTORE PUSH1 0x20 DUP3 ADD SWAP1 POP SWAP3 SWAP2 POP POP JUMP JUMPDEST PUSH1 0x0 DUP2 SWAP1 POP PUSH1 0x20 DUP3 ADD SWAP1 POP SWAP2 SWAP1 POP JUMP JUMPDEST PUSH1 0x0 PUSH2 0x1759 DUP4 DUP4 PUSH2 0x11DA JUMP JUMPDEST SWAP1 POP SWAP3 SWAP2 POP POP JUMP JUMPDEST PUSH1 0x0 PUSH1 0x20 DUP3 ADD SWAP1 POP SWAP2 SWAP1 POP JUMP JUMPDEST PUSH1 0x0 PUSH2 0x1779 DUP3 PUSH2 0x1721 JUMP JUMPDEST PUSH2 0x1783 DUP2 DUP6 PUSH2 0x172C JUMP JUMPDEST SWAP4 POP DUP4 PUSH1 0x20 DUP3 MUL DUP6 ADD PUSH2 0x1795 DUP6 PUSH2 0x173D JUMP JUMPDEST DUP1 PUSH1 0x0 JUMPDEST DUP6 DUP2 LT ISZERO PUSH2 0x17D1 JUMPI DUP5 DUP5 SUB DUP10 MSTORE DUP2 MLOAD PUSH2 0x17B2 DUP6 DUP3 PUSH2 0x174D JUMP JUMPDEST SWAP5 POP PUSH2 0x17BD DUP4 PUSH2 0x1761 JUMP JUMPDEST SWAP3 POP PUSH1 0x20 DUP11 ADD SWAP10 POP POP PUSH1 0x1 DUP2 ADD SWAP1 POP PUSH2 0x1799 JUMP JUMPDEST POP DUP3 SWAP8 POP DUP8 SWAP6 POP POP POP POP POP POP SWAP3 SWAP2 POP POP JUMP JUMPDEST PUSH1 0x0 PUSH1 0x20 DUP3 ADD SWAP1 POP DUP2 DUP2 SUB PUSH1 0x0 DUP4 ADD MSTORE PUSH2 0x17FD DUP2 DUP5 PUSH2 0x176E JUMP JUMPDEST SWAP1 POP SWAP3 SWAP2 POP POP JUMP JUMPDEST PUSH1 0x0 DUP3 DUP3 MSTORE PUSH1 0x20 DUP3 ADD SWAP1 POP SWAP3 SWAP2 POP POP JUMP JUMPDEST PUSH1 0x0 PUSH2 0x1821 DUP3 PUSH2 0x1183 JUMP JUMPDEST PUSH2 0x182B DUP2 DUP6 PUSH2 0x1805 JUMP JUMPDEST SWAP4 POP PUSH2 0x183B DUP2 DUP6 PUSH1 0x20 DUP7 ADD PUSH2 0x119F JUMP JUMPDEST PUSH2 0x1844 DUP2 PUSH2 0x11C9 JUMP JUMPDEST DUP5 ADD SWAP2 POP POP SWAP3 SWAP2 POP POP JUMP JUMPDEST PUSH1 0x0 PUSH1 0x20 DUP3 ADD SWAP1 POP DUP2 DUP2 SUB PUSH1 0x0 DUP4 ADD MSTORE PUSH2 0x1869 DUP2 DUP5 PUSH2 0x1816 JUMP JUMPDEST SWAP1 POP SWAP3 SWAP2 POP POP JUMP JUMPDEST PUSH1 0x0 PUSH8 0xFFFFFFFFFFFFFFFF DUP3 GT ISZERO PUSH2 0x188C JUMPI PUSH2 0x188B PUSH2 0x13A7 JUMP JUMPDEST JUMPDEST PUSH1 0x20 DUP3 MUL SWAP1 POP PUSH1 0x20 DUP2 ADD SWAP1 POP SWAP2 SWAP1 POP JUMP JUMPDEST PUSH1 0x0 DUP1 REVERT JUMPDEST PUSH1 0x0 PUSH2 0x18B5 PUSH2 0x18B0 DUP5 PUSH2 0x1871 JUMP JUMPDEST PUSH2 0x1407 JUMP JUMPDEST SWAP1 POP DUP1 DUP4 DUP3 MSTORE PUSH1 0x20 DUP3 ADD SWAP1 POP PUSH1 0x20 DUP5 MUL DUP4 ADD DUP6 DUP2 GT ISZERO PUSH2 0x18D8 JUMPI PUSH2 0x18D7 PUSH2 0x189D JUMP JUMPDEST JUMPDEST DUP4 JUMPDEST DUP2 DUP2 LT ISZERO PUSH2 0x191F JUMPI DUP1 CALLDATALOAD PUSH8 0xFFFFFFFFFFFFFFFF DUP2 GT ISZERO PUSH2 0x18FD JUMPI PUSH2 0x18FC PUSH2 0x1427 JUMP JUMPDEST JUMPDEST DUP1 DUP7 ADD PUSH2 0x190A DUP10 DUP3 PUSH2 0x14B3 JUMP JUMPDEST DUP6 MSTORE PUSH1 0x20 DUP6 ADD SWAP5 POP POP POP PUSH1 0x20 DUP2 ADD SWAP1 POP PUSH2 0x18DA JUMP JUMPDEST POP POP POP SWAP4 SWAP3 POP POP POP JUMP JUMPDEST PUSH1 0x0 DUP3 PUSH1 0x1F DUP4 ADD SLT PUSH2 0x193E JUMPI PUSH2 0x193D PUSH2 0x1427 JUMP JUMPDEST JUMPDEST DUP2 CALLDATALOAD PUSH2 0x194E DUP5 DUP3 PUSH1 0x20 DUP7 ADD PUSH2 0x18A2 JUMP JUMPDEST SWAP2 POP POP SWAP3 SWAP2 POP POP JUMP JUMPDEST PUSH1 0x0 DUP1 PUSH1 0x0 DUP1 PUSH1 0x80 DUP6 DUP8 SUB SLT ISZERO PUSH2 0x1971 JUMPI PUSH2 0x1970 PUSH2 0x10A7 JUMP JUMPDEST JUMPDEST PUSH1 0x0 DUP6 ADD CALLDATALOAD PUSH8 0xFFFFFFFFFFFFFFFF DUP2 GT ISZERO PUSH2 0x198F JUMPI PUSH2 0x198E PUSH2 0x10AC JUMP JUMPDEST JUMPDEST PUSH2 0x199B DUP8 DUP3 DUP9 ADD PUSH2 0x14E1 JUMP JUMPDEST SWAP5 POP POP PUSH1 0x20 DUP6 ADD CALLDATALOAD PUSH8 0xFFFFFFFFFFFFFFFF DUP2 GT ISZERO PUSH2 0x19BC JUMPI PUSH2 0x19BB PUSH2 0x10AC JUMP JUMPDEST JUMPDEST PUSH2 0x19C8 DUP8 DUP3 DUP9 ADD PUSH2 0x15AD JUMP JUMPDEST SWAP4 POP POP PUSH1 0x40 DUP6 ADD CALLDATALOAD PUSH8 0xFFFFFFFFFFFFFFFF DUP2 GT ISZERO PUSH2 0x19E9 JUMPI PUSH2 0x19E8 PUSH2 0x10AC JUMP JUMPDEST JUMPDEST PUSH2 0x19F5 DUP8 DUP3 DUP9 ADD PUSH2 0x14B3 JUMP JUMPDEST SWAP3 POP POP PUSH1 0x60 DUP6 ADD CALLDATALOAD PUSH8 0xFFFFFFFFFFFFFFFF DUP2 GT ISZERO PUSH2 0x1A16 JUMPI PUSH2 0x1A15 PUSH2 0x10AC JUMP JUMPDEST JUMPDEST PUSH2 0x1A22 DUP8 DUP3 DUP9 ADD PUSH2 0x1929 JUMP JUMPDEST SWAP2 POP POP SWAP3 SWAP6 SWAP2 SWAP5 POP SWAP3 POP JUMP JUMPDEST PUSH2 0x1A37 DUP2 PUSH2 0x113C JUMP JUMPDEST DUP3 MSTORE POP POP JUMP JUMPDEST PUSH1 0x0 PUSH1 0x20 DUP3 ADD SWAP1 POP PUSH2 0x1A52 PUSH1 0x0 DUP4 ADD DUP5 PUSH2 0x1A2E JUMP JUMPDEST SWAP3 SWAP2 POP POP JUMP JUMPDEST PUSH1 0x0 DUP1 PUSH1 0x0 PUSH1 0x60 DUP5 DUP7 SUB SLT ISZERO PUSH2 0x1A71 JUMPI PUSH2 0x1A70 PUSH2 0x10A7 JUMP JUMPDEST JUMPDEST PUSH1 0x0 DUP5 ADD CALLDATALOAD PUSH8 0xFFFFFFFFFFFFFFFF DUP2 GT ISZERO PUSH2 0x1A8F JUMPI PUSH2 0x1A8E PUSH2 0x10AC JUMP JUMPDEST JUMPDEST PUSH2 0x1A9B DUP7 DUP3 DUP8 ADD PUSH2 0x14E1 JUMP JUMPDEST SWAP4 POP POP PUSH1 0x20 DUP5 ADD CALLDATALOAD PUSH8 0xFFFFFFFFFFFFFFFF DUP2 GT ISZERO PUSH2 0x1ABC JUMPI PUSH2 0x1ABB PUSH2 0x10AC JUMP JUMPDEST JUMPDEST PUSH2 0x1AC8 DUP7 DUP3 DUP8 ADD PUSH2 0x15AD JUMP JUMPDEST SWAP3 POP POP PUSH1 0x40 DUP5 ADD CALLDATALOAD PUSH8 0xFFFFFFFFFFFFFFFF DUP2 GT ISZERO PUSH2 0x1AE9 JUMPI PUSH2 0x1AE8 PUSH2 0x10AC JUMP JUMPDEST JUMPDEST PUSH2 0x1AF5 DUP7 DUP3 DUP8 ADD PUSH2 0x14B3 JUMP JUMPDEST SWAP2 POP POP SWAP3 POP SWAP3 POP SWAP3 JUMP JUMPDEST PUSH32 0x4E487B7100000000000000000000000000000000000000000000000000000000 PUSH1 0x0 MSTORE PUSH1 0x32 PUSH1 0x4 MSTORE PUSH1 0x24 PUSH1 0x0 REVERT JUMPDEST PUSH32 0x4E487B7100000000000000000000000000000000000000000000000000000000 PUSH1 0x0 MSTORE PUSH1 0x22 PUSH1 0x4 MSTORE PUSH1 0x24 PUSH1 0x0 REVERT JUMPDEST PUSH1 0x0 PUSH1 0x2 DUP3 DIV SWAP1 POP PUSH1 0x1 DUP3 AND DUP1 PUSH2 0x1B75 JUMPI PUSH1 0x7F DUP3 AND SWAP2 POP JUMPDEST PUSH1 0x20 DUP3 LT DUP2 SUB PUSH2 0x1B88 JUMPI PUSH2 0x1B87 PUSH2 0x1B2E JUMP JUMPDEST JUMPDEST POP SWAP2 SWAP1 POP JUMP JUMPDEST PUSH2 0x1B97 DUP2 PUSH2 0x113C JUMP JUMPDEST DUP2 EQ PUSH2 0x1BA2 JUMPI PUSH1 0x0 DUP1 REVERT JUMPDEST POP JUMP JUMPDEST PUSH1 0x0 DUP2 MLOAD SWAP1 POP PUSH2 0x1BB4 DUP2 PUSH2 0x1B8E JUMP JUMPDEST SWAP3 SWAP2 POP POP JUMP JUMPDEST PUSH1 0x0 PUSH2 0x1BCD PUSH2 0x1BC8 DUP5 PUSH2 0x1431 JUMP JUMPDEST PUSH2 0x1407 JUMP JUMPDEST SWAP1 POP DUP3 DUP2 MSTORE PUSH1 0x20 DUP2 ADD DUP5 DUP5 DUP5 ADD GT ISZERO PUSH2 0x1BE9 JUMPI PUSH2 0x1BE8 PUSH2 0x142C JUMP JUMPDEST JUMPDEST PUSH2 0x1BF4 DUP5 DUP3 DUP6 PUSH2 0x119F JUMP JUMPDEST POP SWAP4 SWAP3 POP POP POP JUMP JUMPDEST PUSH1 0x0 DUP3 PUSH1 0x1F DUP4 ADD SLT PUSH2 0x1C11 JUMPI PUSH2 0x1C10 PUSH2 0x1427 JUMP JUMPDEST JUMPDEST DUP2 MLOAD PUSH2 0x1C21 DUP5 DUP3 PUSH1 0x20 DUP7 ADD PUSH2 0x1BBA JUMP JUMPDEST SWAP2 POP POP SWAP3 SWAP2 POP POP JUMP JUMPDEST PUSH1 0x0 DUP2 MLOAD SWAP1 POP PUSH2 0x1C39 DUP2 PUSH2 0x10E3 JUMP JUMPDEST SWAP3 SWAP2 POP POP JUMP JUMPDEST PUSH1 0x0 PUSH1 0xA0 DUP3 DUP5 SUB SLT ISZERO PUSH2 0x1C55 JUMPI PUSH2 0x1C54 PUSH2 0x13A2 JUMP JUMPDEST JUMPDEST PUSH2 0x1C5F PUSH1 0xA0 PUSH2 0x1407 JUMP JUMPDEST SWAP1 POP PUSH1 0x0 DUP3 ADD MLOAD PUSH8 0xFFFFFFFFFFFFFFFF DUP2 GT ISZERO PUSH2 0x1C7F JUMPI PUSH2 0x1C7E PUSH2 0x1422 JUMP JUMPDEST JUMPDEST PUSH2 0x1C8B DUP5 DUP3 DUP6 ADD PUSH2 0x1BFC JUMP JUMPDEST PUSH1 0x0 DUP4 ADD MSTORE POP PUSH1 0x20 DUP3 ADD MLOAD PUSH8 0xFFFFFFFFFFFFFFFF DUP2 GT ISZERO PUSH2 0x1CAF JUMPI PUSH2 0x1CAE PUSH2 0x1422 JUMP JUMPDEST JUMPDEST PUSH2 0x1CBB DUP5 DUP3 DUP6 ADD PUSH2 0x1BFC JUMP JUMPDEST PUSH1 0x20 DUP4 ADD MSTORE POP PUSH1 0x40 PUSH2 0x1CCF DUP5 DUP3 DUP6 ADD PUSH2 0x1C2A JUMP JUMPDEST PUSH1 0x40 DUP4 ADD MSTORE POP PUSH1 0x60 DUP3 ADD MLOAD PUSH8 0xFFFFFFFFFFFFFFFF DUP2 GT ISZERO PUSH2 0x1CF3 JUMPI PUSH2 0x1CF2 PUSH2 0x1422 JUMP JUMPDEST JUMPDEST PUSH2 0x1CFF DUP5 DUP3 DUP6 ADD PUSH2 0x1BFC JUMP JUMPDEST PUSH1 0x60 DUP4 ADD MSTORE POP PUSH1 0x80 DUP3 ADD MLOAD PUSH8 0xFFFFFFFFFFFFFFFF DUP2 GT ISZERO PUSH2 0x1D23 JUMPI PUSH2 0x1D22 PUSH2 0x1422 JUMP JUMPDEST JUMPDEST PUSH2 0x1D2F DUP5 DUP3 DUP6 ADD PUSH2 0x1BFC JUMP JUMPDEST PUSH1 0x80 DUP4 ADD MSTORE POP SWAP3 SWAP2 POP POP JUMP JUMPDEST PUSH1 0x0 PUSH1 0x40 DUP3 DUP5 SUB SLT ISZERO PUSH2 0x1D51 JUMPI PUSH2 0x1D50 PUSH2 0x13A2 JUMP JUMPDEST JUMPDEST PUSH2 0x1D5B PUSH1 0x40 PUSH2 0x1407 JUMP JUMPDEST SWAP1 POP PUSH1 0x0 PUSH2 0x1D6B DUP5 DUP3 DUP6 ADD PUSH2 0x1BA5 JUMP JUMPDEST PUSH1 0x0 DUP4 ADD MSTORE POP PUSH1 0x20 DUP3 ADD MLOAD PUSH8 0xFFFFFFFFFFFFFFFF DUP2 GT ISZERO PUSH2 0x1D8F JUMPI PUSH2 0x1D8E PUSH2 0x1422 JUMP JUMPDEST JUMPDEST PUSH2 0x1D9B DUP5 DUP3 DUP6 ADD PUSH2 0x1C3F JUMP JUMPDEST PUSH1 0x20 DUP4 ADD MSTORE POP SWAP3 SWAP2 POP POP JUMP JUMPDEST PUSH1 0x0 PUSH1 0x20 DUP3 DUP5 SUB SLT ISZERO PUSH2 0x1DBD JUMPI PUSH2 0x1DBC PUSH2 0x10A7 JUMP JUMPDEST JUMPDEST PUSH1 0x0 DUP3 ADD MLOAD PUSH8 0xFFFFFFFFFFFFFFFF DUP2 GT ISZERO PUSH2 0x1DDB JUMPI PUSH2 0x1DDA PUSH2 0x10AC JUMP JUMPDEST JUMPDEST PUSH2 0x1DE7 DUP5 DUP3 DUP6 ADD PUSH2 0x1D3B JUMP JUMPDEST SWAP2 POP POP SWAP3 SWAP2 POP POP JUMP JUMPDEST PUSH32 0x4E487B7100000000000000000000000000000000000000000000000000000000 PUSH1 0x0 MSTORE PUSH1 0x11 PUSH1 0x4 MSTORE PUSH1 0x24 PUSH1 0x0 REVERT JUMPDEST PUSH1 0x0 DUP2 SWAP1 POP SWAP2 SWAP1 POP JUMP JUMPDEST PUSH1 0x0 PUSH2 0x1E34 DUP3 PUSH2 0x1E1F JUMP JUMPDEST SWAP2 POP PUSH32 0xFFFFFFFFFFFFFFFFFFFFFFFFFFFFFFFFFFFFFFFFFFFFFFFFFFFFFFFFFFFFFFFF DUP3 SUB PUSH2 0x1E66 JUMPI PUSH2 0x1E65 PUSH2 0x1DF0 JUMP JUMPDEST JUMPDEST PUSH1 0x1 DUP3 ADD SWAP1 POP SWAP2 SWAP1 POP JUMP JUMPDEST PUSH1 0x0 PUSH1 0xA0 DUP4 ADD PUSH1 0x0 DUP4 ADD MLOAD DUP5 DUP3 SUB PUSH1 0x0 DUP7 ADD MSTORE PUSH2 0x1E8E DUP3 DUP3 PUSH2 0x11DA JUMP JUMPDEST SWAP2 POP POP PUSH1 0x20 DUP4 ADD MLOAD DUP5 DUP3 SUB PUSH1 0x20 DUP7 ADD MSTORE PUSH2 0x1EA8 DUP3 DUP3 PUSH2 0x11DA JUMP JUMPDEST SWAP2 POP POP PUSH1 0x40 DUP4 ADD MLOAD PUSH2 0x1EBD PUSH1 0x40 DUP7 ADD DUP3 PUSH2 0x1213 JUMP JUMPDEST POP PUSH1 0x60 DUP4 ADD MLOAD DUP5 DUP3 SUB PUSH1 0x60 DUP7 ADD MSTORE PUSH2 0x1ED5 DUP3 DUP3 PUSH2 0x11DA JUMP JUMPDEST SWAP2 POP POP PUSH1 0x80 DUP4 ADD MLOAD DUP5 DUP3 SUB PUSH1 0x80 DUP7 ADD MSTORE PUSH2 0x1EEF DUP3 DUP3 PUSH2 0x11DA JUMP JUMPDEST SWAP2 POP POP DUP1 SWAP2 POP POP SWAP3 SWAP2 POP POP JUMP JUMPDEST PUSH1 0x0 PUSH1 0x20 DUP3 ADD SWAP1 POP DUP2 DUP2 SUB PUSH1 0x0 DUP4 ADD MSTORE PUSH2 0x1F16 DUP2 DUP5 PUSH2 0x1E71 JUMP JUMPDEST SWAP1 POP SWAP3 SWAP2 POP POP JUMP JUMPDEST PUSH1 0x0 DUP2 SWAP1 POP SWAP3 SWAP2 POP POP JUMP JUMPDEST PUSH1 0x0 PUSH2 0x1F34 DUP3 PUSH2 0x1183 JUMP JUMPDEST PUSH2 0x1F3E DUP2 DUP6 PUSH2 0x1F1E JUMP JUMPDEST SWAP4 POP PUSH2 0x1F4E DUP2 DUP6 PUSH1 0x20 DUP7 ADD PUSH2 0x119F JUMP JUMPDEST DUP1 DUP5 ADD SWAP2 POP POP SWAP3 SWAP2 POP POP JUMP JUMPDEST PUSH1 0x0 PUSH2 0x1F66 DUP3 DUP5 PUSH2 0x1F29 JUMP JUMPDEST SWAP2 POP DUP2 SWAP1 POP SWAP3 SWAP2 POP POP JUMP JUMPDEST PUSH1 0x0 DUP2 SWAP1 POP DUP2 PUSH1 0x0 MSTORE PUSH1 0x20 PUSH1 0x0 KECCAK256 SWAP1 POP SWAP2 SWAP1 POP JUMP JUMPDEST PUSH1 0x0 PUSH1 0x20 PUSH1 0x1F DUP4 ADD DIV SWAP1 POP SWAP2 SWAP1 POP JUMP JUMPDEST PUSH1 0x0 DUP3 DUP3 SHL SWAP1 POP SWAP3 SWAP2 POP POP JUMP JUMPDEST PUSH1 0x0 PUSH1 0x8 DUP4 MUL PUSH2 0x1FD3 PUSH32 0xFFFFFFFFFFFFFFFFFFFFFFFFFFFFFFFFFFFFFFFFFFFFFFFFFFFFFFFFFFFFFFFF DUP3 PUSH2 0x1F96 JUMP JUMPDEST PUSH2 0x1FDD DUP7 DUP4 PUSH2 0x1F96 JUMP JUMPDEST SWAP6 POP DUP1 NOT DUP5 AND SWAP4 POP DUP1 DUP7 AND DUP5 OR SWAP3 POP POP POP SWAP4 SWAP3 POP POP POP JUMP JUMPDEST PUSH1 0x0 DUP2 SWAP1 POP SWAP2 SWAP1 POP JUMP JUMPDEST PUSH1 0x0 PUSH2 0x201A PUSH2 0x2015 PUSH2 0x2010 DUP5 PUSH2 0x1E1F JUMP JUMPDEST PUSH2 0x1FF5 JUMP JUMPDEST PUSH2 0x1E1F JUMP JUMPDEST SWAP1 POP SWAP2 SWAP1 POP JUMP JUMPDEST PUSH1 0x0 DUP2 SWAP1 POP SWAP2 SWAP1 POP JUMP JUMPDEST PUSH2 0x2034 DUP4 PUSH2 0x1FFF JUMP JUMPDEST PUSH2 0x2048 PUSH2 0x2040 DUP3 PUSH2 0x2021 JUMP JUMPDEST DUP5 DUP5 SLOAD PUSH2 0x1FA3 JUMP JUMPDEST DUP3 SSTORE POP POP POP POP JUMP JUMPDEST PUSH1 0x0 SWAP1 JUMP JUMPDEST PUSH2 0x205D PUSH2 0x2050 JUMP JUMPDEST PUSH2 0x2068 DUP2 DUP5 DUP5 PUSH2 0x202B JUMP JUMPDEST POP POP POP JUMP JUMPDEST JUMPDEST DUP2 DUP2 LT ISZERO PUSH2 0x208C JUMPI PUSH2 0x2081 PUSH1 0x0 DUP3 PUSH2 0x2055 JUMP JUMPDEST PUSH1 0x1 DUP2 ADD SWAP1 POP PUSH2 0x206E JUMP JUMPDEST POP POP JUMP JUMPDEST PUSH1 0x1F DUP3 GT ISZERO PUSH2 0x20D1 JUMPI PUSH2 0x20A2 DUP2 PUSH2 0x1F71 JUMP JUMPDEST PUSH2 0x20AB DUP5 PUSH2 0x1F86 JUMP JUMPDEST DUP2 ADD PUSH1 0x20 DUP6 LT ISZERO PUSH2 0x20BA JUMPI DUP2 SWAP1 POP JUMPDEST PUSH2 0x20CE PUSH2 0x20C6 DUP6 PUSH2 0x1F86 JUMP JUMPDEST DUP4 ADD DUP3 PUSH2 0x206D JUMP JUMPDEST POP POP JUMPDEST POP POP POP JUMP JUMPDEST PUSH1 0x0 DUP3 DUP3 SHR SWAP1 POP SWAP3 SWAP2 POP POP JUMP JUMPDEST PUSH1 0x0 PUSH2 0x20F4 PUSH1 0x0 NOT DUP5 PUSH1 0x8 MUL PUSH2 0x20D6 JUMP JUMPDEST NOT DUP1 DUP4 AND SWAP2 POP POP SWAP3 SWAP2 POP POP JUMP JUMPDEST PUSH1 0x0 PUSH2 0x210D DUP4 DUP4 PUSH2 0x20E3 JUMP JUMPDEST SWAP2 POP DUP3 PUSH1 0x2 MUL DUP3 OR SWAP1 POP SWAP3 SWAP2 POP POP JUMP JUMPDEST PUSH2 0x2126 DUP3 PUSH2 0x1183 JUMP JUMPDEST PUSH8 0xFFFFFFFFFFFFFFFF DUP2 GT ISZERO PUSH2 0x213F JUMPI PUSH2 0x213E PUSH2 0x13A7 JUMP JUMPDEST JUMPDEST PUSH2 0x2149 DUP3 SLOAD PUSH2 0x1B5D JUMP JUMPDEST PUSH2 0x2154 DUP3 DUP3 DUP6 PUSH2 0x2090 JUMP JUMPDEST PUSH1 0x0 PUSH1 0x20 SWAP1 POP PUSH1 0x1F DUP4 GT PUSH1 0x1 DUP2 EQ PUSH2 0x2187 JUMPI PUSH1 0x0 DUP5 ISZERO PUSH2 0x2175 JUMPI DUP3 DUP8 ADD MLOAD SWAP1 POP JUMPDEST PUSH2 0x217F DUP6 DUP3 PUSH2 0x2101 JUMP JUMPDEST DUP7 SSTORE POP PUSH2 0x21E7 JUMP JUMPDEST PUSH1 0x1F NOT DUP5 AND PUSH2 0x2195 DUP7 PUSH2 0x1F71 JUMP JUMPDEST PUSH1 0x0 JUMPDEST DUP3 DUP2 LT ISZERO PUSH2 0x21BD JUMPI DUP5 DUP10 ADD MLOAD DUP3 SSTORE PUSH1 0x1 DUP3 ADD SWAP2 POP PUSH1 0x20 DUP6 ADD SWAP5 POP PUSH1 0x20 DUP2 ADD SWAP1 POP PUSH2 0x2198 JUMP JUMPDEST DUP7 DUP4 LT ISZERO PUSH2 0x21DA JUMPI DUP5 DUP10 ADD MLOAD PUSH2 0x21D6 PUSH1 0x1F DUP10 AND DUP3 PUSH2 0x20E3 JUMP JUMPDEST DUP4 SSTORE POP JUMPDEST PUSH1 0x1 PUSH1 0x2 DUP9 MUL ADD DUP9 SSTORE POP POP POP JUMPDEST POP POP POP POP POP POP JUMP INVALID LOG2 PUSH5 0x6970667358 0x22 SLT KECCAK256 DUP3 0x4D 0xE 0xB8 STOP SWAP15 SWAP5 0x22 LOG0 DUP6 0xE8 0xE8 PUSH5 0xFCA94FDC6C 0xFB PC EXTCODEHASH 0xBF 0xDB 0xC6 0xCB PUSH27 0x2E16EEA80A7C64736F6C6343000813003300000000000000000000 "},"methodIdentifiers":{"getEncSymmetricKeyFileUser((address,string,string,string),(string,string,address,string,string))":"5d02eece","getPermissionsOverFile((address,string,string,string),(string,string,address,string,string))":"533f2134","getUserFiles(address)":"1fc37922","shareFile((address,string,string,string),(string,string,address,string,string),string,string[])":"9468a12e","uploadFile((address,string,string,string),(string,string,address,string,string),string)":"de6b9f7d","userAssociatedWithFile((address,string,string,string),(string,string,address,string,string))":"ad4d2bb2"}}}}}