{"contracts/StoreUser.sol":{"StoreUser":{"abi":[{"inputs":[{"internalType":"address","name":"account","type":"address"}],"name":"getUser","outputs":[{"components":[{"internalType":"address","name":"account","type":"address"},{"internalType":"string","name":"name","type":"string"},{"internalType":"string","name":"publicKey","type":"string"},{"internalType":"string","name":"privateKey","type":"string"}],"internalType":"struct User","name":"","type":"tuple"}],"stateMutability":"view","type":"function"},{"inputs":[{"components":[{"internalType":"address","name":"account","type":"address"},{"internalType":"string","name":"name","type":"string"},{"internalType":"string","name":"publicKey","type":"string"},{"internalType":"string","name":"privateKey","type":"string"}],"internalType":"struct User","name":"user","type":"tuple"}],"name":"login","outputs":[],"stateMutability":"nonpayable","type":"function"}],"evm":{"bytecode":{"linkReferences":{},"object":"608060405234801561001057600080fd5b50611078806100206000396000f3fe608060405234801561001057600080fd5b50600436106100365760003560e01c80636f77926b1461003b578063c3b56b601461006b575b600080fd5b61005560048036038101906100509190610705565b610087565b6040516100629190610842565b60405180910390f35b61008560048036038101906100809190610a6f565b6102eb565b005b61008f610655565b6000808373ffffffffffffffffffffffffffffffffffffffff1673ffffffffffffffffffffffffffffffffffffffff1681526020019081526020016000206040518060800160405290816000820160009054906101000a900473ffffffffffffffffffffffffffffffffffffffff1673ffffffffffffffffffffffffffffffffffffffff1673ffffffffffffffffffffffffffffffffffffffff16815260200160018201805461013e90610ae7565b80601f016020809104026020016040519081016040528092919081815260200182805461016a90610ae7565b80156101b75780601f1061018c576101008083540402835291602001916101b7565b820191906000526020600020905b81548152906001019060200180831161019a57829003601f168201915b505050505081526020016002820180546101d090610ae7565b80601f01602080910402602001604051908101604052809291908181526020018280546101fc90610ae7565b80156102495780601f1061021e57610100808354040283529160200191610249565b820191906000526020600020905b81548152906001019060200180831161022c57829003601f168201915b5050505050815260200160038201805461026290610ae7565b80601f016020809104026020016040519081016040528092919081815260200182805461028e90610ae7565b80156102db5780601f106102b0576101008083540402835291602001916102db565b820191906000526020600020905b8154815290600101906020018083116102be57829003601f168201915b5050505050815250509050919050565b600073ffffffffffffffffffffffffffffffffffffffff16600080836000015173ffffffffffffffffffffffffffffffffffffffff1673ffffffffffffffffffffffffffffffffffffffff16815260200190815260200160002060000160009054906101000a900473ffffffffffffffffffffffffffffffffffffffff1673ffffffffffffffffffffffffffffffffffffffff16146103bf576040517f08c379a00000000000000000000000000000000000000000000000000000000081526004016103b690610b9b565b60405180910390fd5b6103cc8160200151610540565b61040b576040517f08c379a000000000000000000000000000000000000000000000000000000000815260040161040290610c07565b60405180910390fd5b806000803373ffffffffffffffffffffffffffffffffffffffff1673ffffffffffffffffffffffffffffffffffffffff16815260200190815260200160002060008201518160000160006101000a81548173ffffffffffffffffffffffffffffffffffffffff021916908373ffffffffffffffffffffffffffffffffffffffff16021790555060208201518160010190816104a69190610ddd565b5060408201518160020190816104bc9190610ddd565b5060608201518160030190816104d29190610ddd565b50905050600181600001519080600181540180825580915050600190039060005260206000200160009091909190916101000a81548173ffffffffffffffffffffffffffffffffffffffff021916908373ffffffffffffffffffffffffffffffffffffffff16021790555050565b600080600090505b60018054905081101561064a5760006001828154811061056b5761056a610eaf565b5b9060005260206000200160009054906101000a900473ffffffffffffffffffffffffffffffffffffffff169050836040516020016105a99190610f1a565b604051602081830303815290604052805190602001206000808373ffffffffffffffffffffffffffffffffffffffff1673ffffffffffffffffffffffffffffffffffffffff1681526020019081526020016000206001016040516020016106109190610fb4565b604051602081830303815290604052805190602001200361063657600092505050610650565b50808061064290610ffa565b915050610548565b50600190505b919050565b6040518060800160405280600073ffffffffffffffffffffffffffffffffffffffff1681526020016060815260200160608152602001606081525090565b6000604051905090565b600080fd5b600080fd5b600073ffffffffffffffffffffffffffffffffffffffff82169050919050565b60006106d2826106a7565b9050919050565b6106e2816106c7565b81146106ed57600080fd5b50565b6000813590506106ff816106d9565b92915050565b60006020828403121561071b5761071a61069d565b5b6000610729848285016106f0565b91505092915050565b61073b816106c7565b82525050565b600081519050919050565b600082825260208201905092915050565b60005b8381101561077b578082015181840152602081019050610760565b60008484015250505050565b6000601f19601f8301169050919050565b60006107a382610741565b6107ad818561074c565b93506107bd81856020860161075d565b6107c681610787565b840191505092915050565b60006080830160008301516107e96000860182610732565b50602083015184820360208601526108018282610798565b9150506040830151848203604086015261081b8282610798565b915050606083015184820360608601526108358282610798565b9150508091505092915050565b6000602082019050818103600083015261085c81846107d1565b905092915050565b600080fd5b7f4e487b7100000000000000000000000000000000000000000000000000000000600052604160045260246000fd5b6108a182610787565b810181811067ffffffffffffffff821117156108c0576108bf610869565b5b80604052505050565b60006108d3610693565b90506108df8282610898565b919050565b600080fd5b600080fd5b600080fd5b600067ffffffffffffffff82111561090e5761090d610869565b5b61091782610787565b9050602081019050919050565b82818337600083830152505050565b6000610946610941846108f3565b6108c9565b905082815260208101848484011115610962576109616108ee565b5b61096d848285610924565b509392505050565b600082601f83011261098a576109896108e9565b5b813561099a848260208601610933565b91505092915050565b6000608082840312156109b9576109b8610864565b5b6109c360806108c9565b905060006109d3848285016106f0565b600083015250602082013567ffffffffffffffff8111156109f7576109f66108e4565b5b610a0384828501610975565b602083015250604082013567ffffffffffffffff811115610a2757610a266108e4565b5b610a3384828501610975565b604083015250606082013567ffffffffffffffff811115610a5757610a566108e4565b5b610a6384828501610975565b60608301525092915050565b600060208284031215610a8557610a8461069d565b5b600082013567ffffffffffffffff811115610aa357610aa26106a2565b5b610aaf848285016109a3565b91505092915050565b7f4e487b7100000000000000000000000000000000000000000000000000000000600052602260045260246000fd5b60006002820490506001821680610aff57607f821691505b602082108103610b1257610b11610ab8565b5b50919050565b600082825260208201905092915050565b7f5573657220616c72656164792065786973747320666f7220746869732061646460008201527f726573732e000000000000000000000000000000000000000000000000000000602082015250565b6000610b85602583610b18565b9150610b9082610b29565b604082019050919050565b60006020820190508181036000830152610bb481610b78565b9050919050565b7f557365722068617320746f2068617665206120756e69717565206e616d652e00600082015250565b6000610bf1601f83610b18565b9150610bfc82610bbb565b602082019050919050565b60006020820190508181036000830152610c2081610be4565b9050919050565b60008190508160005260206000209050919050565b60006020601f8301049050919050565b600082821b905092915050565b600060088302610c897fffffffffffffffffffffffffffffffffffffffffffffffffffffffffffffffff82610c4c565b610c938683610c4c565b95508019841693508086168417925050509392505050565b6000819050919050565b6000819050919050565b6000610cda610cd5610cd084610cab565b610cb5565b610cab565b9050919050565b6000819050919050565b610cf483610cbf565b610d08610d0082610ce1565b848454610c59565b825550505050565b600090565b610d1d610d10565b610d28818484610ceb565b505050565b5b81811015610d4c57610d41600082610d15565b600181019050610d2e565b5050565b601f821115610d9157610d6281610c27565b610d6b84610c3c565b81016020851015610d7a578190505b610d8e610d8685610c3c565b830182610d2d565b50505b505050565b600082821c905092915050565b6000610db460001984600802610d96565b1980831691505092915050565b6000610dcd8383610da3565b9150826002028217905092915050565b610de682610741565b67ffffffffffffffff811115610dff57610dfe610869565b5b610e098254610ae7565b610e14828285610d50565b600060209050601f831160018114610e475760008415610e35578287015190505b610e3f8582610dc1565b865550610ea7565b601f198416610e5586610c27565b60005b82811015610e7d57848901518255600182019150602085019450602081019050610e58565b86831015610e9a5784890151610e96601f891682610da3565b8355505b6001600288020188555050505b505050505050565b7f4e487b7100000000000000000000000000000000000000000000000000000000600052603260045260246000fd5b600081905092915050565b6000610ef482610741565b610efe8185610ede565b9350610f0e81856020860161075d565b80840191505092915050565b6000610f268284610ee9565b915081905092915050565b60008154610f3e81610ae7565b610f488186610ede565b94506001821660008114610f635760018114610f7857610fab565b60ff1983168652811515820286019350610fab565b610f8185610c27565b60005b83811015610fa357815481890152600182019150602081019050610f84565b838801955050505b50505092915050565b6000610fc08284610f31565b915081905092915050565b7f4e487b7100000000000000000000000000000000000000000000000000000000600052601160045260246000fd5b600061100582610cab565b91507fffffffffffffffffffffffffffffffffffffffffffffffffffffffffffffffff820361103757611036610fcb565b5b60018201905091905056fea26469706673582212208c0374323ea1f0bc58f920b73b258ef11f922a3298159d029340fb88a6795c6264736f6c63430008130033","opcodes":"PUSH1 0x80 PUSH1 0x40 MSTORE CALLVALUE DUP1 ISZERO PUSH2 0x10 JUMPI PUSH1 0x0 DUP1 REVERT JUMPDEST POP PUSH2 0x1078 DUP1 PUSH2 0x20 PUSH1 0x0 CODECOPY PUSH1 0x0 RETURN INVALID PUSH1 0x80 PUSH1 0x40 MSTORE CALLVALUE DUP1 ISZERO PUSH2 0x10 JUMPI PUSH1 0x0 DUP1 REVERT JUMPDEST POP PUSH1 0x4 CALLDATASIZE LT PUSH2 0x36 JUMPI PUSH1 0x0 CALLDATALOAD PUSH1 0xE0 SHR DUP1 PUSH4 0x6F77926B EQ PUSH2 0x3B JUMPI DUP1 PUSH4 0xC3B56B60 EQ PUSH2 0x6B JUMPI JUMPDEST PUSH1 0x0 DUP1 REVERT JUMPDEST PUSH2 0x55 PUSH1 0x4 DUP1 CALLDATASIZE SUB DUP2 ADD SWAP1 PUSH2 0x50 SWAP2 SWAP1 PUSH2 0x705 JUMP JUMPDEST PUSH2 0x87 JUMP JUMPDEST PUSH1 0x40 MLOAD PUSH2 0x62 SWAP2 SWAP1 PUSH2 0x842 JUMP JUMPDEST PUSH1 0x40 MLOAD DUP1 SWAP2 SUB SWAP1 RETURN JUMPDEST PUSH2 0x85 PUSH1 0x4 DUP1 CALLDATASIZE SUB DUP2 ADD SWAP1 PUSH2 0x80 SWAP2 SWAP1 PUSH2 0xA6F JUMP JUMPDEST PUSH2 0x2EB JUMP JUMPDEST STOP JUMPDEST PUSH2 0x8F PUSH2 0x655 JUMP JUMPDEST PUSH1 0x0 DUP1 DUP4 PUSH20 0xFFFFFFFFFFFFFFFFFFFFFFFFFFFFFFFFFFFFFFFF AND PUSH20 0xFFFFFFFFFFFFFFFFFFFFFFFFFFFFFFFFFFFFFFFF AND DUP2 MSTORE PUSH1 0x20 ADD SWAP1 DUP2 MSTORE PUSH1 0x20 ADD PUSH1 0x0 KECCAK256 PUSH1 0x40 MLOAD DUP1 PUSH1 0x80 ADD PUSH1 0x40 MSTORE SWAP1 DUP2 PUSH1 0x0 DUP3 ADD PUSH1 0x0 SWAP1 SLOAD SWAP1 PUSH2 0x100 EXP SWAP1 DIV PUSH20 0xFFFFFFFFFFFFFFFFFFFFFFFFFFFFFFFFFFFFFFFF AND PUSH20 0xFFFFFFFFFFFFFFFFFFFFFFFFFFFFFFFFFFFFFFFF AND PUSH20 0xFFFFFFFFFFFFFFFFFFFFFFFFFFFFFFFFFFFFFFFF AND DUP2 MSTORE PUSH1 0x20 ADD PUSH1 0x1 DUP3 ADD DUP1 SLOAD PUSH2 0x13E SWAP1 PUSH2 0xAE7 JUMP JUMPDEST DUP1 PUSH1 0x1F ADD PUSH1 0x20 DUP1 SWAP2 DIV MUL PUSH1 0x20 ADD PUSH1 0x40 MLOAD SWAP1 DUP2 ADD PUSH1 0x40 MSTORE DUP1 SWAP3 SWAP2 SWAP1 DUP2 DUP2 MSTORE PUSH1 0x20 ADD DUP3 DUP1 SLOAD PUSH2 0x16A SWAP1 PUSH2 0xAE7 JUMP JUMPDEST DUP1 ISZERO PUSH2 0x1B7 JUMPI DUP1 PUSH1 0x1F LT PUSH2 0x18C JUMPI PUSH2 0x100 DUP1 DUP4 SLOAD DIV MUL DUP4 MSTORE SWAP2 PUSH1 0x20 ADD SWAP2 PUSH2 0x1B7 JUMP JUMPDEST DUP3 ADD SWAP2 SWAP1 PUSH1 0x0 MSTORE PUSH1 0x20 PUSH1 0x0 KECCAK256 SWAP1 JUMPDEST DUP2 SLOAD DUP2 MSTORE SWAP1 PUSH1 0x1 ADD SWAP1 PUSH1 0x20 ADD DUP1 DUP4 GT PUSH2 0x19A JUMPI DUP3 SWAP1 SUB PUSH1 0x1F AND DUP3 ADD SWAP2 JUMPDEST POP POP POP POP POP DUP2 MSTORE PUSH1 0x20 ADD PUSH1 0x2 DUP3 ADD DUP1 SLOAD PUSH2 0x1D0 SWAP1 PUSH2 0xAE7 JUMP JUMPDEST DUP1 PUSH1 0x1F ADD PUSH1 0x20 DUP1 SWAP2 DIV MUL PUSH1 0x20 ADD PUSH1 0x40 MLOAD SWAP1 DUP2 ADD PUSH1 0x40 MSTORE DUP1 SWAP3 SWAP2 SWAP1 DUP2 DUP2 MSTORE PUSH1 0x20 ADD DUP3 DUP1 SLOAD PUSH2 0x1FC SWAP1 PUSH2 0xAE7 JUMP JUMPDEST DUP1 ISZERO PUSH2 0x249 JUMPI DUP1 PUSH1 0x1F LT PUSH2 0x21E JUMPI PUSH2 0x100 DUP1 DUP4 SLOAD DIV MUL DUP4 MSTORE SWAP2 PUSH1 0x20 ADD SWAP2 PUSH2 0x249 JUMP JUMPDEST DUP3 ADD SWAP2 SWAP1 PUSH1 0x0 MSTORE PUSH1 0x20 PUSH1 0x0 KECCAK256 SWAP1 JUMPDEST DUP2 SLOAD DUP2 MSTORE SWAP1 PUSH1 0x1 ADD SWAP1 PUSH1 0x20 ADD DUP1 DUP4 GT PUSH2 0x22C JUMPI DUP3 SWAP1 SUB PUSH1 0x1F AND DUP3 ADD SWAP2 JUMPDEST POP POP POP POP POP DUP2 MSTORE PUSH1 0x20 ADD PUSH1 0x3 DUP3 ADD DUP1 SLOAD PUSH2 0x262 SWAP1 PUSH2 0xAE7 JUMP JUMPDEST DUP1 PUSH1 0x1F ADD PUSH1 0x20 DUP1 SWAP2 DIV MUL PUSH1 0x20 ADD PUSH1 0x40 MLOAD SWAP1 DUP2 ADD PUSH1 0x40 MSTORE DUP1 SWAP3 SWAP2 SWAP1 DUP2 DUP2 MSTORE PUSH1 0x20 ADD DUP3 DUP1 SLOAD PUSH2 0x28E SWAP1 PUSH2 0xAE7 JUMP JUMPDEST DUP1 ISZERO PUSH2 0x2DB JUMPI DUP1 PUSH1 0x1F LT PUSH2 0x2B0 JUMPI PUSH2 0x100 DUP1 DUP4 SLOAD DIV MUL DUP4 MSTORE SWAP2 PUSH1 0x20 ADD SWAP2 PUSH2 0x2DB JUMP JUMPDEST DUP3 ADD SWAP2 SWAP1 PUSH1 0x0 MSTORE PUSH1 0x20 PUSH1 0x0 KECCAK256 SWAP1 JUMPDEST DUP2 SLOAD DUP2 MSTORE SWAP1 PUSH1 0x1 ADD SWAP1 PUSH1 0x20 ADD DUP1 DUP4 GT PUSH2 0x2BE JUMPI DUP3 SWAP1 SUB PUSH1 0x1F AND DUP3 ADD SWAP2 JUMPDEST POP POP POP POP POP DUP2 MSTORE POP POP SWAP1 POP SWAP2 SWAP1 POP JUMP JUMPDEST PUSH1 0x0 PUSH20 0xFFFFFFFFFFFFFFFFFFFFFFFFFFFFFFFFFFFFFFFF AND PUSH1 0x0 DUP1 DUP4 PUSH1 0x0 ADD MLOAD PUSH20 0xFFFFFFFFFFFFFFFFFFFFFFFFFFFFFFFFFFFFFFFF AND PUSH20 0xFFFFFFFFFFFFFFFFFFFFFFFFFFFFFFFFFFFFFFFF AND DUP2 MSTORE PUSH1 0x20 ADD SWAP1 DUP2 MSTORE PUSH1 0x20 ADD PUSH1 0x0 KECCAK256 PUSH1 0x0 ADD PUSH1 0x0 SWAP1 SLOAD SWAP1 PUSH2 0x100 EXP SWAP1 DIV PUSH20 0xFFFFFFFFFFFFFFFFFFFFFFFFFFFFFFFFFFFFFFFF AND PUSH20 0xFFFFFFFFFFFFFFFFFFFFFFFFFFFFFFFFFFFFFFFF AND EQ PUSH2 0x3BF JUMPI PUSH1 0x40 MLOAD PUSH32 0x8C379A000000000000000000000000000000000000000000000000000000000 DUP2 MSTORE PUSH1 0x4 ADD PUSH2 0x3B6 SWAP1 PUSH2 0xB9B JUMP JUMPDEST PUSH1 0x40 MLOAD DUP1 SWAP2 SUB SWAP1 REVERT JUMPDEST PUSH2 0x3CC DUP2 PUSH1 0x20 ADD MLOAD PUSH2 0x540 JUMP JUMPDEST PUSH2 0x40B JUMPI PUSH1 0x40 MLOAD PUSH32 0x8C379A000000000000000000000000000000000000000000000000000000000 DUP2 MSTORE PUSH1 0x4 ADD PUSH2 0x402 SWAP1 PUSH2 0xC07 JUMP JUMPDEST PUSH1 0x40 MLOAD DUP1 SWAP2 SUB SWAP1 REVERT JUMPDEST DUP1 PUSH1 0x0 DUP1 CALLER PUSH20 0xFFFFFFFFFFFFFFFFFFFFFFFFFFFFFFFFFFFFFFFF AND PUSH20 0xFFFFFFFFFFFFFFFFFFFFFFFFFFFFFFFFFFFFFFFF AND DUP2 MSTORE PUSH1 0x20 ADD SWAP1 DUP2 MSTORE PUSH1 0x20 ADD PUSH1 0x0 KECCAK256 PUSH1 0x0 DUP3 ADD MLOAD DUP2 PUSH1 0x0 ADD PUSH1 0x0 PUSH2 0x100 EXP DUP2 SLOAD DUP2 PUSH20 0xFFFFFFFFFFFFFFFFFFFFFFFFFFFFFFFFFFFFFFFF MUL NOT AND SWAP1 DUP4 PUSH20 0xFFFFFFFFFFFFFFFFFFFFFFFFFFFFFFFFFFFFFFFF AND MUL OR SWAP1 SSTORE POP PUSH1 0x20 DUP3 ADD MLOAD DUP2 PUSH1 0x1 ADD SWAP1 DUP2 PUSH2 0x4A6 SWAP2 SWAP1 PUSH2 0xDDD JUMP JUMPDEST POP PUSH1 0x40 DUP3 ADD MLOAD DUP2 PUSH1 0x2 ADD SWAP1 DUP2 PUSH2 0x4BC SWAP2 SWAP1 PUSH2 0xDDD JUMP JUMPDEST POP PUSH1 0x60 DUP3 ADD MLOAD DUP2 PUSH1 0x3 ADD SWAP1 DUP2 PUSH2 0x4D2 SWAP2 SWAP1 PUSH2 0xDDD JUMP JUMPDEST POP SWAP1 POP POP PUSH1 0x1 DUP2 PUSH1 0x0 ADD MLOAD SWAP1 DUP1 PUSH1 0x1 DUP2 SLOAD ADD DUP1 DUP3 SSTORE DUP1 SWAP2 POP POP PUSH1 0x1 SWAP1 SUB SWAP1 PUSH1 0x0 MSTORE PUSH1 0x20 PUSH1 0x0 KECCAK256 ADD PUSH1 0x0 SWAP1 SWAP2 SWAP1 SWAP2 SWAP1 SWAP2 PUSH2 0x100 EXP DUP2 SLOAD DUP2 PUSH20 0xFFFFFFFFFFFFFFFFFFFFFFFFFFFFFFFFFFFFFFFF MUL NOT AND SWAP1 DUP4 PUSH20 0xFFFFFFFFFFFFFFFFFFFFFFFFFFFFFFFFFFFFFFFF AND MUL OR SWAP1 SSTORE POP POP JUMP JUMPDEST PUSH1 0x0 DUP1 PUSH1 0x0 SWAP1 POP JUMPDEST PUSH1 0x1 DUP1 SLOAD SWAP1 POP DUP2 LT ISZERO PUSH2 0x64A JUMPI PUSH1 0x0 PUSH1 0x1 DUP3 DUP2 SLOAD DUP2 LT PUSH2 0x56B JUMPI PUSH2 0x56A PUSH2 0xEAF JUMP JUMPDEST JUMPDEST SWAP1 PUSH1 0x0 MSTORE PUSH1 0x20 PUSH1 0x0 KECCAK256 ADD PUSH1 0x0 SWAP1 SLOAD SWAP1 PUSH2 0x100 EXP SWAP1 DIV PUSH20 0xFFFFFFFFFFFFFFFFFFFFFFFFFFFFFFFFFFFFFFFF AND SWAP1 POP DUP4 PUSH1 0x40 MLOAD PUSH1 0x20 ADD PUSH2 0x5A9 SWAP2 SWAP1 PUSH2 0xF1A JUMP JUMPDEST PUSH1 0x40 MLOAD PUSH1 0x20 DUP2 DUP4 SUB SUB DUP2 MSTORE SWAP1 PUSH1 0x40 MSTORE DUP1 MLOAD SWAP1 PUSH1 0x20 ADD KECCAK256 PUSH1 0x0 DUP1 DUP4 PUSH20 0xFFFFFFFFFFFFFFFFFFFFFFFFFFFFFFFFFFFFFFFF AND PUSH20 0xFFFFFFFFFFFFFFFFFFFFFFFFFFFFFFFFFFFFFFFF AND DUP2 MSTORE PUSH1 0x20 ADD SWAP1 DUP2 MSTORE PUSH1 0x20 ADD PUSH1 0x0 KECCAK256 PUSH1 0x1 ADD PUSH1 0x40 MLOAD PUSH1 0x20 ADD PUSH2 0x610 SWAP2 SWAP1 PUSH2 0xFB4 JUMP JUMPDEST PUSH1 0x40 MLOAD PUSH1 0x20 DUP2 DUP4 SUB SUB DUP2 MSTORE SWAP1 PUSH1 0x40 MSTORE DUP1 MLOAD SWAP1 PUSH1 0x20 ADD KECCAK256 SUB PUSH2 0x636 JUMPI PUSH1 0x0 SWAP3 POP POP POP PUSH2 0x650 JUMP JUMPDEST POP DUP1 DUP1 PUSH2 0x642 SWAP1 PUSH2 0xFFA JUMP JUMPDEST SWAP2 POP POP PUSH2 0x548 JUMP JUMPDEST POP PUSH1 0x1 SWAP1 POP JUMPDEST SWAP2 SWAP1 POP JUMP JUMPDEST PUSH1 0x40 MLOAD DUP1 PUSH1 0x80 ADD PUSH1 0x40 MSTORE DUP1 PUSH1 0x0 PUSH20 0xFFFFFFFFFFFFFFFFFFFFFFFFFFFFFFFFFFFFFFFF AND DUP2 MSTORE PUSH1 0x20 ADD PUSH1 0x60 DUP2 MSTORE PUSH1 0x20 ADD PUSH1 0x60 DUP2 MSTORE PUSH1 0x20 ADD PUSH1 0x60 DUP2 MSTORE POP SWAP1 JUMP JUMPDEST PUSH1 0x0 PUSH1 0x40 MLOAD SWAP1 POP SWAP1 JUMP JUMPDEST PUSH1 0x0 DUP1 REVERT JUMPDEST PUSH1 0x0 DUP1 REVERT JUMPDEST PUSH1 0x0 PUSH20 0xFFFFFFFFFFFFFFFFFFFFFFFFFFFFFFFFFFFFFFFF DUP3 AND SWAP1 POP SWAP2 SWAP1 POP JUMP JUMPDEST PUSH1 0x0 PUSH2 0x6D2 DUP3 PUSH2 0x6A7 JUMP JUMPDEST SWAP1 POP SWAP2 SWAP1 POP JUMP JUMPDEST PUSH2 0x6E2 DUP2 PUSH2 0x6C7 JUMP JUMPDEST DUP2 EQ PUSH2 0x6ED JUMPI PUSH1 0x0 DUP1 REVERT JUMPDEST POP JUMP JUMPDEST PUSH1 0x0 DUP2 CALLDATALOAD SWAP1 POP PUSH2 0x6FF DUP2 PUSH2 0x6D9 JUMP JUMPDEST SWAP3 SWAP2 POP POP JUMP JUMPDEST PUSH1 0x0 PUSH1 0x20 DUP3 DUP5 SUB SLT ISZERO PUSH2 0x71B JUMPI PUSH2 0x71A PUSH2 0x69D JUMP JUMPDEST JUMPDEST PUSH1 0x0 PUSH2 0x729 DUP5 DUP3 DUP6 ADD PUSH2 0x6F0 JUMP JUMPDEST SWAP2 POP POP SWAP3 SWAP2 POP POP JUMP JUMPDEST PUSH2 0x73B DUP2 PUSH2 0x6C7 JUMP JUMPDEST DUP3 MSTORE POP POP JUMP JUMPDEST PUSH1 0x0 DUP2 MLOAD SWAP1 POP SWAP2 SWAP1 POP JUMP JUMPDEST PUSH1 0x0 DUP3 DUP3 MSTORE PUSH1 0x20 DUP3 ADD SWAP1 POP SWAP3 SWAP2 POP POP JUMP JUMPDEST PUSH1 0x0 JUMPDEST DUP4 DUP2 LT ISZERO PUSH2 0x77B JUMPI DUP1 DUP3 ADD MLOAD DUP2 DUP5 ADD MSTORE PUSH1 0x20 DUP2 ADD SWAP1 POP PUSH2 0x760 JUMP JUMPDEST PUSH1 0x0 DUP5 DUP5 ADD MSTORE POP POP POP POP JUMP JUMPDEST PUSH1 0x0 PUSH1 0x1F NOT PUSH1 0x1F DUP4 ADD AND SWAP1 POP SWAP2 SWAP1 POP JUMP JUMPDEST PUSH1 0x0 PUSH2 0x7A3 DUP3 PUSH2 0x741 JUMP JUMPDEST PUSH2 0x7AD DUP2 DUP6 PUSH2 0x74C JUMP JUMPDEST SWAP4 POP PUSH2 0x7BD DUP2 DUP6 PUSH1 0x20 DUP7 ADD PUSH2 0x75D JUMP JUMPDEST PUSH2 0x7C6 DUP2 PUSH2 0x787 JUMP JUMPDEST DUP5 ADD SWAP2 POP POP SWAP3 SWAP2 POP POP JUMP JUMPDEST PUSH1 0x0 PUSH1 0x80 DUP4 ADD PUSH1 0x0 DUP4 ADD MLOAD PUSH2 0x7E9 PUSH1 0x0 DUP7 ADD DUP3 PUSH2 0x732 JUMP JUMPDEST POP PUSH1 0x20 DUP4 ADD MLOAD DUP5 DUP3 SUB PUSH1 0x20 DUP7 ADD MSTORE PUSH2 0x801 DUP3 DUP3 PUSH2 0x798 JUMP JUMPDEST SWAP2 POP POP PUSH1 0x40 DUP4 ADD MLOAD DUP5 DUP3 SUB PUSH1 0x40 DUP7 ADD MSTORE PUSH2 0x81B DUP3 DUP3 PUSH2 0x798 JUMP JUMPDEST SWAP2 POP POP PUSH1 0x60 DUP4 ADD MLOAD DUP5 DUP3 SUB PUSH1 0x60 DUP7 ADD MSTORE PUSH2 0x835 DUP3 DUP3 PUSH2 0x798 JUMP JUMPDEST SWAP2 POP POP DUP1 SWAP2 POP POP SWAP3 SWAP2 POP POP JUMP JUMPDEST PUSH1 0x0 PUSH1 0x20 DUP3 ADD SWAP1 POP DUP2 DUP2 SUB PUSH1 0x0 DUP4 ADD MSTORE PUSH2 0x85C DUP2 DUP5 PUSH2 0x7D1 JUMP JUMPDEST SWAP1 POP SWAP3 SWAP2 POP POP JUMP JUMPDEST PUSH1 0x0 DUP1 REVERT JUMPDEST PUSH32 0x4E487B7100000000000000000000000000000000000000000000000000000000 PUSH1 0x0 MSTORE PUSH1 0x41 PUSH1 0x4 MSTORE PUSH1 0x24 PUSH1 0x0 REVERT JUMPDEST PUSH2 0x8A1 DUP3 PUSH2 0x787 JUMP JUMPDEST DUP2 ADD DUP2 DUP2 LT PUSH8 0xFFFFFFFFFFFFFFFF DUP3 GT OR ISZERO PUSH2 0x8C0 JUMPI PUSH2 0x8BF PUSH2 0x869 JUMP JUMPDEST JUMPDEST DUP1 PUSH1 0x40 MSTORE POP POP POP JUMP JUMPDEST PUSH1 0x0 PUSH2 0x8D3 PUSH2 0x693 JUMP JUMPDEST SWAP1 POP PUSH2 0x8DF DUP3 DUP3 PUSH2 0x898 JUMP JUMPDEST SWAP2 SWAP1 POP JUMP JUMPDEST PUSH1 0x0 DUP1 REVERT JUMPDEST PUSH1 0x0 DUP1 REVERT JUMPDEST PUSH1 0x0 DUP1 REVERT JUMPDEST PUSH1 0x0 PUSH8 0xFFFFFFFFFFFFFFFF DUP3 GT ISZERO PUSH2 0x90E JUMPI PUSH2 0x90D PUSH2 0x869 JUMP JUMPDEST JUMPDEST PUSH2 0x917 DUP3 PUSH2 0x787 JUMP JUMPDEST SWAP1 POP PUSH1 0x20 DUP2 ADD SWAP1 POP SWAP2 SWAP1 POP JUMP JUMPDEST DUP3 DUP2 DUP4 CALLDATACOPY PUSH1 0x0 DUP4 DUP4 ADD MSTORE POP POP POP JUMP JUMPDEST PUSH1 0x0 PUSH2 0x946 PUSH2 0x941 DUP5 PUSH2 0x8F3 JUMP JUMPDEST PUSH2 0x8C9 JUMP JUMPDEST SWAP1 POP DUP3 DUP2 MSTORE PUSH1 0x20 DUP2 ADD DUP5 DUP5 DUP5 ADD GT ISZERO PUSH2 0x962 JUMPI PUSH2 0x961 PUSH2 0x8EE JUMP JUMPDEST JUMPDEST PUSH2 0x96D DUP5 DUP3 DUP6 PUSH2 0x924 JUMP JUMPDEST POP SWAP4 SWAP3 POP POP POP JUMP JUMPDEST PUSH1 0x0 DUP3 PUSH1 0x1F DUP4 ADD SLT PUSH2 0x98A JUMPI PUSH2 0x989 PUSH2 0x8E9 JUMP JUMPDEST JUMPDEST DUP2 CALLDATALOAD PUSH2 0x99A DUP5 DUP3 PUSH1 0x20 DUP7 ADD PUSH2 0x933 JUMP JUMPDEST SWAP2 POP POP SWAP3 SWAP2 POP POP JUMP JUMPDEST PUSH1 0x0 PUSH1 0x80 DUP3 DUP5 SUB SLT ISZERO PUSH2 0x9B9 JUMPI PUSH2 0x9B8 PUSH2 0x864 JUMP JUMPDEST JUMPDEST PUSH2 0x9C3 PUSH1 0x80 PUSH2 0x8C9 JUMP JUMPDEST SWAP1 POP PUSH1 0x0 PUSH2 0x9D3 DUP5 DUP3 DUP6 ADD PUSH2 0x6F0 JUMP JUMPDEST PUSH1 0x0 DUP4 ADD MSTORE POP PUSH1 0x20 DUP3 ADD CALLDATALOAD PUSH8 0xFFFFFFFFFFFFFFFF DUP2 GT ISZERO PUSH2 0x9F7 JUMPI PUSH2 0x9F6 PUSH2 0x8E4 JUMP JUMPDEST JUMPDEST PUSH2 0xA03 DUP5 DUP3 DUP6 ADD PUSH2 0x975 JUMP JUMPDEST PUSH1 0x20 DUP4 ADD MSTORE POP PUSH1 0x40 DUP3 ADD CALLDATALOAD PUSH8 0xFFFFFFFFFFFFFFFF DUP2 GT ISZERO PUSH2 0xA27 JUMPI PUSH2 0xA26 PUSH2 0x8E4 JUMP JUMPDEST JUMPDEST PUSH2 0xA33 DUP5 DUP3 DUP6 ADD PUSH2 0x975 JUMP JUMPDEST PUSH1 0x40 DUP4 ADD MSTORE POP PUSH1 0x60 DUP3 ADD CALLDATALOAD PUSH8 0xFFFFFFFFFFFFFFFF DUP2 GT ISZERO PUSH2 0xA57 JUMPI PUSH2 0xA56 PUSH2 0x8E4 JUMP JUMPDEST JUMPDEST PUSH2 0xA63 DUP5 DUP3 DUP6 ADD PUSH2 0x975 JUMP JUMPDEST PUSH1 0x60 DUP4 ADD MSTORE POP SWAP3 SWAP2 POP POP JUMP JUMPDEST PUSH1 0x0 PUSH1 0x20 DUP3 DUP5 SUB SLT ISZERO PUSH2 0xA85 JUMPI PUSH2 0xA84 PUSH2 0x69D JUMP JUMPDEST JUMPDEST PUSH1 0x0 DUP3 ADD CALLDATALOAD PUSH8 0xFFFFFFFFFFFFFFFF DUP2 GT ISZERO PUSH2 0xAA3 JUMPI PUSH2 0xAA2 PUSH2 0x6A2 JUMP JUMPDEST JUMPDEST PUSH2 0xAAF DUP5 DUP3 DUP6 ADD PUSH2 0x9A3 JUMP JUMPDEST SWAP2 POP POP SWAP3 SWAP2 POP POP JUMP JUMPDEST PUSH32 0x4E487B7100000000000000000000000000000000000000000000000000000000 PUSH1 0x0 MSTORE PUSH1 0x22 PUSH1 0x4 MSTORE PUSH1 0x24 PUSH1 0x0 REVERT JUMPDEST PUSH1 0x0 PUSH1 0x2 DUP3 DIV SWAP1 POP PUSH1 0x1 DUP3 AND DUP1 PUSH2 0xAFF JUMPI PUSH1 0x7F DUP3 AND SWAP2 POP JUMPDEST PUSH1 0x20 DUP3 LT DUP2 SUB PUSH2 0xB12 JUMPI PUSH2 0xB11 PUSH2 0xAB8 JUMP JUMPDEST JUMPDEST POP SWAP2 SWAP1 POP JUMP JUMPDEST PUSH1 0x0 DUP3 DUP3 MSTORE PUSH1 0x20 DUP3 ADD SWAP1 POP SWAP3 SWAP2 POP POP JUMP JUMPDEST PUSH32 0x5573657220616C72656164792065786973747320666F72207468697320616464 PUSH1 0x0 DUP3 ADD MSTORE PUSH32 0x726573732E000000000000000000000000000000000000000000000000000000 PUSH1 0x20 DUP3 ADD MSTORE POP JUMP JUMPDEST PUSH1 0x0 PUSH2 0xB85 PUSH1 0x25 DUP4 PUSH2 0xB18 JUMP JUMPDEST SWAP2 POP PUSH2 0xB90 DUP3 PUSH2 0xB29 JUMP JUMPDEST PUSH1 0x40 DUP3 ADD SWAP1 POP SWAP2 SWAP1 POP JUMP JUMPDEST PUSH1 0x0 PUSH1 0x20 DUP3 ADD SWAP1 POP DUP2 DUP2 SUB PUSH1 0x0 DUP4 ADD MSTORE PUSH2 0xBB4 DUP2 PUSH2 0xB78 JUMP JUMPDEST SWAP1 POP SWAP2 SWAP1 POP JUMP JUMPDEST PUSH32 0x557365722068617320746F2068617665206120756E69717565206E616D652E00 PUSH1 0x0 DUP3 ADD MSTORE POP JUMP JUMPDEST PUSH1 0x0 PUSH2 0xBF1 PUSH1 0x1F DUP4 PUSH2 0xB18 JUMP JUMPDEST SWAP2 POP PUSH2 0xBFC DUP3 PUSH2 0xBBB JUMP JUMPDEST PUSH1 0x20 DUP3 ADD SWAP1 POP SWAP2 SWAP1 POP JUMP JUMPDEST PUSH1 0x0 PUSH1 0x20 DUP3 ADD SWAP1 POP DUP2 DUP2 SUB PUSH1 0x0 DUP4 ADD MSTORE PUSH2 0xC20 DUP2 PUSH2 0xBE4 JUMP JUMPDEST SWAP1 POP SWAP2 SWAP1 POP JUMP JUMPDEST PUSH1 0x0 DUP2 SWAP1 POP DUP2 PUSH1 0x0 MSTORE PUSH1 0x20 PUSH1 0x0 KECCAK256 SWAP1 POP SWAP2 SWAP1 POP JUMP JUMPDEST PUSH1 0x0 PUSH1 0x20 PUSH1 0x1F DUP4 ADD DIV SWAP1 POP SWAP2 SWAP1 POP JUMP JUMPDEST PUSH1 0x0 DUP3 DUP3 SHL SWAP1 POP SWAP3 SWAP2 POP POP JUMP JUMPDEST PUSH1 0x0 PUSH1 0x8 DUP4 MUL PUSH2 0xC89 PUSH32 0xFFFFFFFFFFFFFFFFFFFFFFFFFFFFFFFFFFFFFFFFFFFFFFFFFFFFFFFFFFFFFFFF DUP3 PUSH2 0xC4C JUMP JUMPDEST PUSH2 0xC93 DUP7 DUP4 PUSH2 0xC4C JUMP JUMPDEST SWAP6 POP DUP1 NOT DUP5 AND SWAP4 POP DUP1 DUP7 AND DUP5 OR SWAP3 POP POP POP SWAP4 SWAP3 POP POP POP JUMP JUMPDEST PUSH1 0x0 DUP2 SWAP1 POP SWAP2 SWAP1 POP JUMP JUMPDEST PUSH1 0x0 DUP2 SWAP1 POP SWAP2 SWAP1 POP JUMP JUMPDEST PUSH1 0x0 PUSH2 0xCDA PUSH2 0xCD5 PUSH2 0xCD0 DUP5 PUSH2 0xCAB JUMP JUMPDEST PUSH2 0xCB5 JUMP JUMPDEST PUSH2 0xCAB JUMP JUMPDEST SWAP1 POP SWAP2 SWAP1 POP JUMP JUMPDEST PUSH1 0x0 DUP2 SWAP1 POP SWAP2 SWAP1 POP JUMP JUMPDEST PUSH2 0xCF4 DUP4 PUSH2 0xCBF JUMP JUMPDEST PUSH2 0xD08 PUSH2 0xD00 DUP3 PUSH2 0xCE1 JUMP JUMPDEST DUP5 DUP5 SLOAD PUSH2 0xC59 JUMP JUMPDEST DUP3 SSTORE POP POP POP POP JUMP JUMPDEST PUSH1 0x0 SWAP1 JUMP JUMPDEST PUSH2 0xD1D PUSH2 0xD10 JUMP JUMPDEST PUSH2 0xD28 DUP2 DUP5 DUP5 PUSH2 0xCEB JUMP JUMPDEST POP POP POP JUMP JUMPDEST JUMPDEST DUP2 DUP2 LT ISZERO PUSH2 0xD4C JUMPI PUSH2 0xD41 PUSH1 0x0 DUP3 PUSH2 0xD15 JUMP JUMPDEST PUSH1 0x1 DUP2 ADD SWAP1 POP PUSH2 0xD2E JUMP JUMPDEST POP POP JUMP JUMPDEST PUSH1 0x1F DUP3 GT ISZERO PUSH2 0xD91 JUMPI PUSH2 0xD62 DUP2 PUSH2 0xC27 JUMP JUMPDEST PUSH2 0xD6B DUP5 PUSH2 0xC3C JUMP JUMPDEST DUP2 ADD PUSH1 0x20 DUP6 LT ISZERO PUSH2 0xD7A JUMPI DUP2 SWAP1 POP JUMPDEST PUSH2 0xD8E PUSH2 0xD86 DUP6 PUSH2 0xC3C JUMP JUMPDEST DUP4 ADD DUP3 PUSH2 0xD2D JUMP JUMPDEST POP POP JUMPDEST POP POP POP JUMP JUMPDEST PUSH1 0x0 DUP3 DUP3 SHR SWAP1 POP SWAP3 SWAP2 POP POP JUMP JUMPDEST PUSH1 0x0 PUSH2 0xDB4 PUSH1 0x0 NOT DUP5 PUSH1 0x8 MUL PUSH2 0xD96 JUMP JUMPDEST NOT DUP1 DUP4 AND SWAP2 POP POP SWAP3 SWAP2 POP POP JUMP JUMPDEST PUSH1 0x0 PUSH2 0xDCD DUP4 DUP4 PUSH2 0xDA3 JUMP JUMPDEST SWAP2 POP DUP3 PUSH1 0x2 MUL DUP3 OR SWAP1 POP SWAP3 SWAP2 POP POP JUMP JUMPDEST PUSH2 0xDE6 DUP3 PUSH2 0x741 JUMP JUMPDEST PUSH8 0xFFFFFFFFFFFFFFFF DUP2 GT ISZERO PUSH2 0xDFF JUMPI PUSH2 0xDFE PUSH2 0x869 JUMP JUMPDEST JUMPDEST PUSH2 0xE09 DUP3 SLOAD PUSH2 0xAE7 JUMP JUMPDEST PUSH2 0xE14 DUP3 DUP3 DUP6 PUSH2 0xD50 JUMP JUMPDEST PUSH1 0x0 PUSH1 0x20 SWAP1 POP PUSH1 0x1F DUP4 GT PUSH1 0x1 DUP2 EQ PUSH2 0xE47 JUMPI PUSH1 0x0 DUP5 ISZERO PUSH2 0xE35 JUMPI DUP3 DUP8 ADD MLOAD SWAP1 POP JUMPDEST PUSH2 0xE3F DUP6 DUP3 PUSH2 0xDC1 JUMP JUMPDEST DUP7 SSTORE POP PUSH2 0xEA7 JUMP JUMPDEST PUSH1 0x1F NOT DUP5 AND PUSH2 0xE55 DUP7 PUSH2 0xC27 JUMP JUMPDEST PUSH1 0x0 JUMPDEST DUP3 DUP2 LT ISZERO PUSH2 0xE7D JUMPI DUP5 DUP10 ADD MLOAD DUP3 SSTORE PUSH1 0x1 DUP3 ADD SWAP2 POP PUSH1 0x20 DUP6 ADD SWAP5 POP PUSH1 0x20 DUP2 ADD SWAP1 POP PUSH2 0xE58 JUMP JUMPDEST DUP7 DUP4 LT ISZERO PUSH2 0xE9A JUMPI DUP5 DUP10 ADD MLOAD PUSH2 0xE96 PUSH1 0x1F DUP10 AND DUP3 PUSH2 0xDA3 JUMP JUMPDEST DUP4 SSTORE POP JUMPDEST PUSH1 0x1 PUSH1 0x2 DUP9 MUL ADD DUP9 SSTORE POP POP POP JUMPDEST POP POP POP POP POP POP JUMP JUMPDEST PUSH32 0x4E487B7100000000000000000000000000000000000000000000000000000000 PUSH1 0x0 MSTORE PUSH1 0x32 PUSH1 0x4 MSTORE PUSH1 0x24 PUSH1 0x0 REVERT JUMPDEST PUSH1 0x0 DUP2 SWAP1 POP SWAP3 SWAP2 POP POP JUMP JUMPDEST PUSH1 0x0 PUSH2 0xEF4 DUP3 PUSH2 0x741 JUMP JUMPDEST PUSH2 0xEFE DUP2 DUP6 PUSH2 0xEDE JUMP JUMPDEST SWAP4 POP PUSH2 0xF0E DUP2 DUP6 PUSH1 0x20 DUP7 ADD PUSH2 0x75D JUMP JUMPDEST DUP1 DUP5 ADD SWAP2 POP POP SWAP3 SWAP2 POP POP JUMP JUMPDEST PUSH1 0x0 PUSH2 0xF26 DUP3 DUP5 PUSH2 0xEE9 JUMP JUMPDEST SWAP2 POP DUP2 SWAP1 POP SWAP3 SWAP2 POP POP JUMP JUMPDEST PUSH1 0x0 DUP2 SLOAD PUSH2 0xF3E DUP2 PUSH2 0xAE7 JUMP JUMPDEST PUSH2 0xF48 DUP2 DUP7 PUSH2 0xEDE JUMP JUMPDEST SWAP5 POP PUSH1 0x1 DUP3 AND PUSH1 0x0 DUP2 EQ PUSH2 0xF63 JUMPI PUSH1 0x1 DUP2 EQ PUSH2 0xF78 JUMPI PUSH2 0xFAB JUMP JUMPDEST PUSH1 0xFF NOT DUP4 AND DUP7 MSTORE DUP2 ISZERO ISZERO DUP3 MUL DUP7 ADD SWAP4 POP PUSH2 0xFAB JUMP JUMPDEST PUSH2 0xF81 DUP6 PUSH2 0xC27 JUMP JUMPDEST PUSH1 0x0 JUMPDEST DUP4 DUP2 LT ISZERO PUSH2 0xFA3 JUMPI DUP2 SLOAD DUP2 DUP10 ADD MSTORE PUSH1 0x1 DUP3 ADD SWAP2 POP PUSH1 0x20 DUP2 ADD SWAP1 POP PUSH2 0xF84 JUMP JUMPDEST DUP4 DUP9 ADD SWAP6 POP POP POP JUMPDEST POP POP POP SWAP3 SWAP2 POP POP JUMP JUMPDEST PUSH1 0x0 PUSH2 0xFC0 DUP3 DUP5 PUSH2 0xF31 JUMP JUMPDEST SWAP2 POP DUP2 SWAP1 POP SWAP3 SWAP2 POP POP JUMP JUMPDEST PUSH32 0x4E487B7100000000000000000000000000000000000000000000000000000000 PUSH1 0x0 MSTORE PUSH1 0x11 PUSH1 0x4 MSTORE PUSH1 0x24 PUSH1 0x0 REVERT JUMPDEST PUSH1 0x0 PUSH2 0x1005 DUP3 PUSH2 0xCAB JUMP JUMPDEST SWAP2 POP PUSH32 0xFFFFFFFFFFFFFFFFFFFFFFFFFFFFFFFFFFFFFFFFFFFFFFFFFFFFFFFFFFFFFFFF DUP3 SUB PUSH2 0x1037 JUMPI PUSH2 0x1036 PUSH2 0xFCB JUMP JUMPDEST JUMPDEST PUSH1 0x1 DUP3 ADD SWAP1 POP SWAP2 SWAP1 POP JUMP INVALID LOG2 PUSH5 0x6970667358 0x22 SLT KECCAK256 DUP13 SUB PUSH21 0x323EA1F0BC58F920B73B258EF11F922A3298159D02 SWAP4 BLOCKHASH 0xFB DUP9 0xA6 PUSH26 0x5C6264736F6C6343000813003300000000000000000000000000 "},"methodIdentifiers":{"getUser(address)":"6f77926b","login((address,string,string,string))":"c3b56b60"}}}}}