{"contracts/UserRegister.sol":{"UserRegister":{"abi":[{"anonymous":false,"inputs":[{"indexed":false,"internalType":"bool","name":"success","type":"bool"},{"components":[{"internalType":"address","name":"account","type":"address"},{"internalType":"string","name":"userName","type":"string"},{"internalType":"string","name":"publicKey","type":"string"},{"internalType":"string","name":"privateKey","type":"string"}],"indexed":false,"internalType":"struct UserRegister.User","name":"user","type":"tuple"}],"name":"ResultUser","type":"event"},{"inputs":[{"components":[{"internalType":"address","name":"account","type":"address"},{"internalType":"string","name":"userName","type":"string"},{"internalType":"string","name":"publicKey","type":"string"},{"internalType":"string","name":"privateKey","type":"string"}],"internalType":"struct UserRegister.User","name":"user","type":"tuple"}],"name":"canRegister","outputs":[{"internalType":"bool","name":"","type":"bool"}],"stateMutability":"view","type":"function"},{"inputs":[{"internalType":"address","name":"account","type":"address"}],"name":"existingAddress","outputs":[{"internalType":"bool","name":"","type":"bool"}],"stateMutability":"view","type":"function"},{"inputs":[{"internalType":"string","name":"userName","type":"string"}],"name":"existingUserName","outputs":[{"internalType":"bool","name":"","type":"bool"}],"stateMutability":"view","type":"function"},{"inputs":[{"internalType":"address","name":"account","type":"address"}],"name":"getUser","outputs":[{"components":[{"internalType":"bool","name":"success","type":"bool"},{"components":[{"internalType":"address","name":"account","type":"address"},{"internalType":"string","name":"userName","type":"string"},{"internalType":"string","name":"publicKey","type":"string"},{"internalType":"string","name":"privateKey","type":"string"}],"internalType":"struct UserRegister.User","name":"user","type":"tuple"}],"internalType":"struct UserRegister.ResultAction","name":"","type":"tuple"}],"stateMutability":"view","type":"function"},{"inputs":[{"components":[{"internalType":"address","name":"account","type":"address"},{"internalType":"string","name":"userName","type":"string"},{"internalType":"string","name":"publicKey","type":"string"},{"internalType":"string","name":"privateKey","type":"string"}],"internalType":"struct UserRegister.User","name":"user","type":"tuple"}],"name":"userRegistered","outputs":[],"stateMutability":"nonpayable","type":"function"}],"evm":{"bytecode":{"linkReferences":{},"object":"608060405234801561001057600080fd5b50611007806100206000396000f3fe608060405234801561001057600080fd5b50600436106100575760003560e01c80632b4bce8b1461005c5780636f77926b1461008c57806375e9493f146100bc578063a240e426146100d8578063b0c22a5614610108575b600080fd5b61007660048036038101906100719190610a34565b610138565b6040516100839190610a98565b60405180910390f35b6100a660048036038101906100a19190610ab3565b610173565b6040516100b39190610c2b565b60405180910390f35b6100d660048036038101906100d19190610a34565b610507565b005b6100f260048036038101906100ed9190610ab3565b610668565b6040516100ff9190610a98565b60405180910390f35b610122600480360381019061011d9190610c4d565b610711565b60405161012f9190610a98565b60405180910390f35b60006101478260000151610668565b8061015b575061015a8260200151610711565b5b15610169576000905061016e565b600190505b919050565b61017b610746565b600073ffffffffffffffffffffffffffffffffffffffff166000808473ffffffffffffffffffffffffffffffffffffffff1673ffffffffffffffffffffffffffffffffffffffff16815260200190815260200160002060000160009054906101000a900473ffffffffffffffffffffffffffffffffffffffff1673ffffffffffffffffffffffffffffffffffffffff16146104835760405180604001604052806001151581526020016000808573ffffffffffffffffffffffffffffffffffffffff1673ffffffffffffffffffffffffffffffffffffffff1681526020019081526020016000206040518060800160405290816000820160009054906101000a900473ffffffffffffffffffffffffffffffffffffffff1673ffffffffffffffffffffffffffffffffffffffff1673ffffffffffffffffffffffffffffffffffffffff1681526020016001820180546102d390610cc5565b80601f01602080910402602001604051908101604052809291908181526020018280546102ff90610cc5565b801561034c5780601f106103215761010080835404028352916020019161034c565b820191906000526020600020905b81548152906001019060200180831161032f57829003601f168201915b5050505050815260200160028201805461036590610cc5565b80601f016020809104026020016040519081016040528092919081815260200182805461039190610cc5565b80156103de5780601f106103b3576101008083540402835291602001916103de565b820191906000526020600020905b8154815290600101906020018083116103c157829003601f168201915b505050505081526020016003820180546103f790610cc5565b80601f016020809104026020016040519081016040528092919081815260200182805461042390610cc5565b80156104705780601f1061044557610100808354040283529160200191610470565b820191906000526020600020905b81548152906001019060200180831161045357829003601f168201915b5050505050815250508152509050610502565b60405180604001604052806000151581526020016040518060800160405280600073ffffffffffffffffffffffffffffffffffffffff1681526020016040518060200160405280600081525081526020016040518060200160405280600081525081526020016040518060200160405280600081525081525081525090505b919050565b61051081610138565b15610665576040518060800160405280826000015173ffffffffffffffffffffffffffffffffffffffff16815260200182602001518152602001826040015181526020018260600151815250600080836000015173ffffffffffffffffffffffffffffffffffffffff1673ffffffffffffffffffffffffffffffffffffffff16815260200190815260200160002060008201518160000160006101000a81548173ffffffffffffffffffffffffffffffffffffffff021916908373ffffffffffffffffffffffffffffffffffffffff16021790555060208201518160010190816105fa9190610eac565b5060408201518160020190816106109190610eac565b5060608201518160030190816106269190610eac565b50905050600180826020015160405161063f9190610fba565b908152602001604051809103902060006101000a81548160ff0219169083151502179055505b50565b60008073ffffffffffffffffffffffffffffffffffffffff166000808473ffffffffffffffffffffffffffffffffffffffff1673ffffffffffffffffffffffffffffffffffffffff16815260200190815260200160002060000160009054906101000a900473ffffffffffffffffffffffffffffffffffffffff1673ffffffffffffffffffffffffffffffffffffffff1614610707576001905061070c565b600090505b919050565b60006001826040516107239190610fba565b908152602001604051809103902060009054906101000a900460ff169050919050565b6040518060400160405280600015158152602001610762610768565b81525090565b6040518060800160405280600073ffffffffffffffffffffffffffffffffffffffff1681526020016060815260200160608152602001606081525090565b6000604051905090565b600080fd5b600080fd5b600080fd5b6000601f19601f8301169050919050565b7f4e487b7100000000000000000000000000000000000000000000000000000000600052604160045260246000fd5b610808826107bf565b810181811067ffffffffffffffff82111715610827576108266107d0565b5b80604052505050565b600061083a6107a6565b905061084682826107ff565b919050565b600080fd5b600073ffffffffffffffffffffffffffffffffffffffff82169050919050565b600061087b82610850565b9050919050565b61088b81610870565b811461089657600080fd5b50565b6000813590506108a881610882565b92915050565b600080fd5b600080fd5b600067ffffffffffffffff8211156108d3576108d26107d0565b5b6108dc826107bf565b9050602081019050919050565b82818337600083830152505050565b600061090b610906846108b8565b610830565b905082815260208101848484011115610927576109266108b3565b5b6109328482856108e9565b509392505050565b600082601f83011261094f5761094e6108ae565b5b813561095f8482602086016108f8565b91505092915050565b60006080828403121561097e5761097d6107ba565b5b6109886080610830565b9050600061099884828501610899565b600083015250602082013567ffffffffffffffff8111156109bc576109bb61084b565b5b6109c88482850161093a565b602083015250604082013567ffffffffffffffff8111156109ec576109eb61084b565b5b6109f88482850161093a565b604083015250606082013567ffffffffffffffff811115610a1c57610a1b61084b565b5b610a288482850161093a565b60608301525092915050565b600060208284031215610a4a57610a496107b0565b5b600082013567ffffffffffffffff811115610a6857610a676107b5565b5b610a7484828501610968565b91505092915050565b60008115159050919050565b610a9281610a7d565b82525050565b6000602082019050610aad6000830184610a89565b92915050565b600060208284031215610ac957610ac86107b0565b5b6000610ad784828501610899565b91505092915050565b610ae981610a7d565b82525050565b610af881610870565b82525050565b600081519050919050565b600082825260208201905092915050565b60005b83811015610b38578082015181840152602081019050610b1d565b60008484015250505050565b6000610b4f82610afe565b610b598185610b09565b9350610b69818560208601610b1a565b610b72816107bf565b840191505092915050565b6000608083016000830151610b956000860182610aef565b5060208301518482036020860152610bad8282610b44565b91505060408301518482036040860152610bc78282610b44565b91505060608301518482036060860152610be18282610b44565b9150508091505092915050565b6000604083016000830151610c066000860182610ae0565b5060208301518482036020860152610c1e8282610b7d565b9150508091505092915050565b60006020820190508181036000830152610c458184610bee565b905092915050565b600060208284031215610c6357610c626107b0565b5b600082013567ffffffffffffffff811115610c8157610c806107b5565b5b610c8d8482850161093a565b91505092915050565b7f4e487b7100000000000000000000000000000000000000000000000000000000600052602260045260246000fd5b60006002820490506001821680610cdd57607f821691505b602082108103610cf057610cef610c96565b5b50919050565b60008190508160005260206000209050919050565b60006020601f8301049050919050565b600082821b905092915050565b600060088302610d587fffffffffffffffffffffffffffffffffffffffffffffffffffffffffffffffff82610d1b565b610d628683610d1b565b95508019841693508086168417925050509392505050565b6000819050919050565b6000819050919050565b6000610da9610da4610d9f84610d7a565b610d84565b610d7a565b9050919050565b6000819050919050565b610dc383610d8e565b610dd7610dcf82610db0565b848454610d28565b825550505050565b600090565b610dec610ddf565b610df7818484610dba565b505050565b5b81811015610e1b57610e10600082610de4565b600181019050610dfd565b5050565b601f821115610e6057610e3181610cf6565b610e3a84610d0b565b81016020851015610e49578190505b610e5d610e5585610d0b565b830182610dfc565b50505b505050565b600082821c905092915050565b6000610e8360001984600802610e65565b1980831691505092915050565b6000610e9c8383610e72565b9150826002028217905092915050565b610eb582610afe565b67ffffffffffffffff811115610ece57610ecd6107d0565b5b610ed88254610cc5565b610ee3828285610e1f565b600060209050601f831160018114610f165760008415610f04578287015190505b610f0e8582610e90565b865550610f76565b601f198416610f2486610cf6565b60005b82811015610f4c57848901518255600182019150602085019450602081019050610f27565b86831015610f695784890151610f65601f891682610e72565b8355505b6001600288020188555050505b505050505050565b600081905092915050565b6000610f9482610afe565b610f9e8185610f7e565b9350610fae818560208601610b1a565b80840191505092915050565b6000610fc68284610f89565b91508190509291505056fea26469706673582212208b40f361ec4750ee9a7265d079e4273605fd0117e5b492b28f530a8877b1a35664736f6c63430008130033","opcodes":"PUSH1 0x80 PUSH1 0x40 MSTORE CALLVALUE DUP1 ISZERO PUSH2 0x10 JUMPI PUSH1 0x0 DUP1 REVERT JUMPDEST POP PUSH2 0x1007 DUP1 PUSH2 0x20 PUSH1 0x0 CODECOPY PUSH1 0x0 RETURN INVALID PUSH1 0x80 PUSH1 0x40 MSTORE CALLVALUE DUP1 ISZERO PUSH2 0x10 JUMPI PUSH1 0x0 DUP1 REVERT JUMPDEST POP PUSH1 0x4 CALLDATASIZE LT PUSH2 0x57 JUMPI PUSH1 0x0 CALLDATALOAD PUSH1 0xE0 SHR DUP1 PUSH4 0x2B4BCE8B EQ PUSH2 0x5C JUMPI DUP1 PUSH4 0x6F77926B EQ PUSH2 0x8C JUMPI DUP1 PUSH4 0x75E9493F EQ PUSH2 0xBC JUMPI DUP1 PUSH4 0xA240E426 EQ PUSH2 0xD8 JUMPI DUP1 PUSH4 0xB0C22A56 EQ PUSH2 0x108 JUMPI JUMPDEST PUSH1 0x0 DUP1 REVERT JUMPDEST PUSH2 0x76 PUSH1 0x4 DUP1 CALLDATASIZE SUB DUP2 ADD SWAP1 PUSH2 0x71 SWAP2 SWAP1 PUSH2 0xA34 JUMP JUMPDEST PUSH2 0x138 JUMP JUMPDEST PUSH1 0x40 MLOAD PUSH2 0x83 SWAP2 SWAP1 PUSH2 0xA98 JUMP JUMPDEST PUSH1 0x40 MLOAD DUP1 SWAP2 SUB SWAP1 RETURN JUMPDEST PUSH2 0xA6 PUSH1 0x4 DUP1 CALLDATASIZE SUB DUP2 ADD SWAP1 PUSH2 0xA1 SWAP2 SWAP1 PUSH2 0xAB3 JUMP JUMPDEST PUSH2 0x173 JUMP JUMPDEST PUSH1 0x40 MLOAD PUSH2 0xB3 SWAP2 SWAP1 PUSH2 0xC2B JUMP JUMPDEST PUSH1 0x40 MLOAD DUP1 SWAP2 SUB SWAP1 RETURN JUMPDEST PUSH2 0xD6 PUSH1 0x4 DUP1 CALLDATASIZE SUB DUP2 ADD SWAP1 PUSH2 0xD1 SWAP2 SWAP1 PUSH2 0xA34 JUMP JUMPDEST PUSH2 0x507 JUMP JUMPDEST STOP JUMPDEST PUSH2 0xF2 PUSH1 0x4 DUP1 CALLDATASIZE SUB DUP2 ADD SWAP1 PUSH2 0xED SWAP2 SWAP1 PUSH2 0xAB3 JUMP JUMPDEST PUSH2 0x668 JUMP JUMPDEST PUSH1 0x40 MLOAD PUSH2 0xFF SWAP2 SWAP1 PUSH2 0xA98 JUMP JUMPDEST PUSH1 0x40 MLOAD DUP1 SWAP2 SUB SWAP1 RETURN JUMPDEST PUSH2 0x122 PUSH1 0x4 DUP1 CALLDATASIZE SUB DUP2 ADD SWAP1 PUSH2 0x11D SWAP2 SWAP1 PUSH2 0xC4D JUMP JUMPDEST PUSH2 0x711 JUMP JUMPDEST PUSH1 0x40 MLOAD PUSH2 0x12F SWAP2 SWAP1 PUSH2 0xA98 JUMP JUMPDEST PUSH1 0x40 MLOAD DUP1 SWAP2 SUB SWAP1 RETURN JUMPDEST PUSH1 0x0 PUSH2 0x147 DUP3 PUSH1 0x0 ADD MLOAD PUSH2 0x668 JUMP JUMPDEST DUP1 PUSH2 0x15B JUMPI POP PUSH2 0x15A DUP3 PUSH1 0x20 ADD MLOAD PUSH2 0x711 JUMP JUMPDEST JUMPDEST ISZERO PUSH2 0x169 JUMPI PUSH1 0x0 SWAP1 POP PUSH2 0x16E JUMP JUMPDEST PUSH1 0x1 SWAP1 POP JUMPDEST SWAP2 SWAP1 POP JUMP JUMPDEST PUSH2 0x17B PUSH2 0x746 JUMP JUMPDEST PUSH1 0x0 PUSH20 0xFFFFFFFFFFFFFFFFFFFFFFFFFFFFFFFFFFFFFFFF AND PUSH1 0x0 DUP1 DUP5 PUSH20 0xFFFFFFFFFFFFFFFFFFFFFFFFFFFFFFFFFFFFFFFF AND PUSH20 0xFFFFFFFFFFFFFFFFFFFFFFFFFFFFFFFFFFFFFFFF AND DUP2 MSTORE PUSH1 0x20 ADD SWAP1 DUP2 MSTORE PUSH1 0x20 ADD PUSH1 0x0 KECCAK256 PUSH1 0x0 ADD PUSH1 0x0 SWAP1 SLOAD SWAP1 PUSH2 0x100 EXP SWAP1 DIV PUSH20 0xFFFFFFFFFFFFFFFFFFFFFFFFFFFFFFFFFFFFFFFF AND PUSH20 0xFFFFFFFFFFFFFFFFFFFFFFFFFFFFFFFFFFFFFFFF AND EQ PUSH2 0x483 JUMPI PUSH1 0x40 MLOAD DUP1 PUSH1 0x40 ADD PUSH1 0x40 MSTORE DUP1 PUSH1 0x1 ISZERO ISZERO DUP2 MSTORE PUSH1 0x20 ADD PUSH1 0x0 DUP1 DUP6 PUSH20 0xFFFFFFFFFFFFFFFFFFFFFFFFFFFFFFFFFFFFFFFF AND PUSH20 0xFFFFFFFFFFFFFFFFFFFFFFFFFFFFFFFFFFFFFFFF AND DUP2 MSTORE PUSH1 0x20 ADD SWAP1 DUP2 MSTORE PUSH1 0x20 ADD PUSH1 0x0 KECCAK256 PUSH1 0x40 MLOAD DUP1 PUSH1 0x80 ADD PUSH1 0x40 MSTORE SWAP1 DUP2 PUSH1 0x0 DUP3 ADD PUSH1 0x0 SWAP1 SLOAD SWAP1 PUSH2 0x100 EXP SWAP1 DIV PUSH20 0xFFFFFFFFFFFFFFFFFFFFFFFFFFFFFFFFFFFFFFFF AND PUSH20 0xFFFFFFFFFFFFFFFFFFFFFFFFFFFFFFFFFFFFFFFF AND PUSH20 0xFFFFFFFFFFFFFFFFFFFFFFFFFFFFFFFFFFFFFFFF AND DUP2 MSTORE PUSH1 0x20 ADD PUSH1 0x1 DUP3 ADD DUP1 SLOAD PUSH2 0x2D3 SWAP1 PUSH2 0xCC5 JUMP JUMPDEST DUP1 PUSH1 0x1F ADD PUSH1 0x20 DUP1 SWAP2 DIV MUL PUSH1 0x20 ADD PUSH1 0x40 MLOAD SWAP1 DUP2 ADD PUSH1 0x40 MSTORE DUP1 SWAP3 SWAP2 SWAP1 DUP2 DUP2 MSTORE PUSH1 0x20 ADD DUP3 DUP1 SLOAD PUSH2 0x2FF SWAP1 PUSH2 0xCC5 JUMP JUMPDEST DUP1 ISZERO PUSH2 0x34C JUMPI DUP1 PUSH1 0x1F LT PUSH2 0x321 JUMPI PUSH2 0x100 DUP1 DUP4 SLOAD DIV MUL DUP4 MSTORE SWAP2 PUSH1 0x20 ADD SWAP2 PUSH2 0x34C JUMP JUMPDEST DUP3 ADD SWAP2 SWAP1 PUSH1 0x0 MSTORE PUSH1 0x20 PUSH1 0x0 KECCAK256 SWAP1 JUMPDEST DUP2 SLOAD DUP2 MSTORE SWAP1 PUSH1 0x1 ADD SWAP1 PUSH1 0x20 ADD DUP1 DUP4 GT PUSH2 0x32F JUMPI DUP3 SWAP1 SUB PUSH1 0x1F AND DUP3 ADD SWAP2 JUMPDEST POP POP POP POP POP DUP2 MSTORE PUSH1 0x20 ADD PUSH1 0x2 DUP3 ADD DUP1 SLOAD PUSH2 0x365 SWAP1 PUSH2 0xCC5 JUMP JUMPDEST DUP1 PUSH1 0x1F ADD PUSH1 0x20 DUP1 SWAP2 DIV MUL PUSH1 0x20 ADD PUSH1 0x40 MLOAD SWAP1 DUP2 ADD PUSH1 0x40 MSTORE DUP1 SWAP3 SWAP2 SWAP1 DUP2 DUP2 MSTORE PUSH1 0x20 ADD DUP3 DUP1 SLOAD PUSH2 0x391 SWAP1 PUSH2 0xCC5 JUMP JUMPDEST DUP1 ISZERO PUSH2 0x3DE JUMPI DUP1 PUSH1 0x1F LT PUSH2 0x3B3 JUMPI PUSH2 0x100 DUP1 DUP4 SLOAD DIV MUL DUP4 MSTORE SWAP2 PUSH1 0x20 ADD SWAP2 PUSH2 0x3DE JUMP JUMPDEST DUP3 ADD SWAP2 SWAP1 PUSH1 0x0 MSTORE PUSH1 0x20 PUSH1 0x0 KECCAK256 SWAP1 JUMPDEST DUP2 SLOAD DUP2 MSTORE SWAP1 PUSH1 0x1 ADD SWAP1 PUSH1 0x20 ADD DUP1 DUP4 GT PUSH2 0x3C1 JUMPI DUP3 SWAP1 SUB PUSH1 0x1F AND DUP3 ADD SWAP2 JUMPDEST POP POP POP POP POP DUP2 MSTORE PUSH1 0x20 ADD PUSH1 0x3 DUP3 ADD DUP1 SLOAD PUSH2 0x3F7 SWAP1 PUSH2 0xCC5 JUMP JUMPDEST DUP1 PUSH1 0x1F ADD PUSH1 0x20 DUP1 SWAP2 DIV MUL PUSH1 0x20 ADD PUSH1 0x40 MLOAD SWAP1 DUP2 ADD PUSH1 0x40 MSTORE DUP1 SWAP3 SWAP2 SWAP1 DUP2 DUP2 MSTORE PUSH1 0x20 ADD DUP3 DUP1 SLOAD PUSH2 0x423 SWAP1 PUSH2 0xCC5 JUMP JUMPDEST DUP1 ISZERO PUSH2 0x470 JUMPI DUP1 PUSH1 0x1F LT PUSH2 0x445 JUMPI PUSH2 0x100 DUP1 DUP4 SLOAD DIV MUL DUP4 MSTORE SWAP2 PUSH1 0x20 ADD SWAP2 PUSH2 0x470 JUMP JUMPDEST DUP3 ADD SWAP2 SWAP1 PUSH1 0x0 MSTORE PUSH1 0x20 PUSH1 0x0 KECCAK256 SWAP1 JUMPDEST DUP2 SLOAD DUP2 MSTORE SWAP1 PUSH1 0x1 ADD SWAP1 PUSH1 0x20 ADD DUP1 DUP4 GT PUSH2 0x453 JUMPI DUP3 SWAP1 SUB PUSH1 0x1F AND DUP3 ADD SWAP2 JUMPDEST POP POP POP POP POP DUP2 MSTORE POP POP DUP2 MSTORE POP SWAP1 POP PUSH2 0x502 JUMP JUMPDEST PUSH1 0x40 MLOAD DUP1 PUSH1 0x40 ADD PUSH1 0x40 MSTORE DUP1 PUSH1 0x0 ISZERO ISZERO DUP2 MSTORE PUSH1 0x20 ADD PUSH1 0x40 MLOAD DUP1 PUSH1 0x80 ADD PUSH1 0x40 MSTORE DUP1 PUSH1 0x0 PUSH20 0xFFFFFFFFFFFFFFFFFFFFFFFFFFFFFFFFFFFFFFFF AND DUP2 MSTORE PUSH1 0x20 ADD PUSH1 0x40 MLOAD DUP1 PUSH1 0x20 ADD PUSH1 0x40 MSTORE DUP1 PUSH1 0x0 DUP2 MSTORE POP DUP2 MSTORE PUSH1 0x20 ADD PUSH1 0x40 MLOAD DUP1 PUSH1 0x20 ADD PUSH1 0x40 MSTORE DUP1 PUSH1 0x0 DUP2 MSTORE POP DUP2 MSTORE PUSH1 0x20 ADD PUSH1 0x40 MLOAD DUP1 PUSH1 0x20 ADD PUSH1 0x40 MSTORE DUP1 PUSH1 0x0 DUP2 MSTORE POP DUP2 MSTORE POP DUP2 MSTORE POP SWAP1 POP JUMPDEST SWAP2 SWAP1 POP JUMP JUMPDEST PUSH2 0x510 DUP2 PUSH2 0x138 JUMP JUMPDEST ISZERO PUSH2 0x665 JUMPI PUSH1 0x40 MLOAD DUP1 PUSH1 0x80 ADD PUSH1 0x40 MSTORE DUP1 DUP3 PUSH1 0x0 ADD MLOAD PUSH20 0xFFFFFFFFFFFFFFFFFFFFFFFFFFFFFFFFFFFFFFFF AND DUP2 MSTORE PUSH1 0x20 ADD DUP3 PUSH1 0x20 ADD MLOAD DUP2 MSTORE PUSH1 0x20 ADD DUP3 PUSH1 0x40 ADD MLOAD DUP2 MSTORE PUSH1 0x20 ADD DUP3 PUSH1 0x60 ADD MLOAD DUP2 MSTORE POP PUSH1 0x0 DUP1 DUP4 PUSH1 0x0 ADD MLOAD PUSH20 0xFFFFFFFFFFFFFFFFFFFFFFFFFFFFFFFFFFFFFFFF AND PUSH20 0xFFFFFFFFFFFFFFFFFFFFFFFFFFFFFFFFFFFFFFFF AND DUP2 MSTORE PUSH1 0x20 ADD SWAP1 DUP2 MSTORE PUSH1 0x20 ADD PUSH1 0x0 KECCAK256 PUSH1 0x0 DUP3 ADD MLOAD DUP2 PUSH1 0x0 ADD PUSH1 0x0 PUSH2 0x100 EXP DUP2 SLOAD DUP2 PUSH20 0xFFFFFFFFFFFFFFFFFFFFFFFFFFFFFFFFFFFFFFFF MUL NOT AND SWAP1 DUP4 PUSH20 0xFFFFFFFFFFFFFFFFFFFFFFFFFFFFFFFFFFFFFFFF AND MUL OR SWAP1 SSTORE POP PUSH1 0x20 DUP3 ADD MLOAD DUP2 PUSH1 0x1 ADD SWAP1 DUP2 PUSH2 0x5FA SWAP2 SWAP1 PUSH2 0xEAC JUMP JUMPDEST POP PUSH1 0x40 DUP3 ADD MLOAD DUP2 PUSH1 0x2 ADD SWAP1 DUP2 PUSH2 0x610 SWAP2 SWAP1 PUSH2 0xEAC JUMP JUMPDEST POP PUSH1 0x60 DUP3 ADD MLOAD DUP2 PUSH1 0x3 ADD SWAP1 DUP2 PUSH2 0x626 SWAP2 SWAP1 PUSH2 0xEAC JUMP JUMPDEST POP SWAP1 POP POP PUSH1 0x1 DUP1 DUP3 PUSH1 0x20 ADD MLOAD PUSH1 0x40 MLOAD PUSH2 0x63F SWAP2 SWAP1 PUSH2 0xFBA JUMP JUMPDEST SWAP1 DUP2 MSTORE PUSH1 0x20 ADD PUSH1 0x40 MLOAD DUP1 SWAP2 SUB SWAP1 KECCAK256 PUSH1 0x0 PUSH2 0x100 EXP DUP2 SLOAD DUP2 PUSH1 0xFF MUL NOT AND SWAP1 DUP4 ISZERO ISZERO MUL OR SWAP1 SSTORE POP JUMPDEST POP JUMP JUMPDEST PUSH1 0x0 DUP1 PUSH20 0xFFFFFFFFFFFFFFFFFFFFFFFFFFFFFFFFFFFFFFFF AND PUSH1 0x0 DUP1 DUP5 PUSH20 0xFFFFFFFFFFFFFFFFFFFFFFFFFFFFFFFFFFFFFFFF AND PUSH20 0xFFFFFFFFFFFFFFFFFFFFFFFFFFFFFFFFFFFFFFFF AND DUP2 MSTORE PUSH1 0x20 ADD SWAP1 DUP2 MSTORE PUSH1 0x20 ADD PUSH1 0x0 KECCAK256 PUSH1 0x0 ADD PUSH1 0x0 SWAP1 SLOAD SWAP1 PUSH2 0x100 EXP SWAP1 DIV PUSH20 0xFFFFFFFFFFFFFFFFFFFFFFFFFFFFFFFFFFFFFFFF AND PUSH20 0xFFFFFFFFFFFFFFFFFFFFFFFFFFFFFFFFFFFFFFFF AND EQ PUSH2 0x707 JUMPI PUSH1 0x1 SWAP1 POP PUSH2 0x70C JUMP JUMPDEST PUSH1 0x0 SWAP1 POP JUMPDEST SWAP2 SWAP1 POP JUMP JUMPDEST PUSH1 0x0 PUSH1 0x1 DUP3 PUSH1 0x40 MLOAD PUSH2 0x723 SWAP2 SWAP1 PUSH2 0xFBA JUMP JUMPDEST SWAP1 DUP2 MSTORE PUSH1 0x20 ADD PUSH1 0x40 MLOAD DUP1 SWAP2 SUB SWAP1 KECCAK256 PUSH1 0x0 SWAP1 SLOAD SWAP1 PUSH2 0x100 EXP SWAP1 DIV PUSH1 0xFF AND SWAP1 POP SWAP2 SWAP1 POP JUMP JUMPDEST PUSH1 0x40 MLOAD DUP1 PUSH1 0x40 ADD PUSH1 0x40 MSTORE DUP1 PUSH1 0x0 ISZERO ISZERO DUP2 MSTORE PUSH1 0x20 ADD PUSH2 0x762 PUSH2 0x768 JUMP JUMPDEST DUP2 MSTORE POP SWAP1 JUMP JUMPDEST PUSH1 0x40 MLOAD DUP1 PUSH1 0x80 ADD PUSH1 0x40 MSTORE DUP1 PUSH1 0x0 PUSH20 0xFFFFFFFFFFFFFFFFFFFFFFFFFFFFFFFFFFFFFFFF AND DUP2 MSTORE PUSH1 0x20 ADD PUSH1 0x60 DUP2 MSTORE PUSH1 0x20 ADD PUSH1 0x60 DUP2 MSTORE PUSH1 0x20 ADD PUSH1 0x60 DUP2 MSTORE POP SWAP1 JUMP JUMPDEST PUSH1 0x0 PUSH1 0x40 MLOAD SWAP1 POP SWAP1 JUMP JUMPDEST PUSH1 0x0 DUP1 REVERT JUMPDEST PUSH1 0x0 DUP1 REVERT JUMPDEST PUSH1 0x0 DUP1 REVERT JUMPDEST PUSH1 0x0 PUSH1 0x1F NOT PUSH1 0x1F DUP4 ADD AND SWAP1 POP SWAP2 SWAP1 POP JUMP JUMPDEST PUSH32 0x4E487B7100000000000000000000000000000000000000000000000000000000 PUSH1 0x0 MSTORE PUSH1 0x41 PUSH1 0x4 MSTORE PUSH1 0x24 PUSH1 0x0 REVERT JUMPDEST PUSH2 0x808 DUP3 PUSH2 0x7BF JUMP JUMPDEST DUP2 ADD DUP2 DUP2 LT PUSH8 0xFFFFFFFFFFFFFFFF DUP3 GT OR ISZERO PUSH2 0x827 JUMPI PUSH2 0x826 PUSH2 0x7D0 JUMP JUMPDEST JUMPDEST DUP1 PUSH1 0x40 MSTORE POP POP POP JUMP JUMPDEST PUSH1 0x0 PUSH2 0x83A PUSH2 0x7A6 JUMP JUMPDEST SWAP1 POP PUSH2 0x846 DUP3 DUP3 PUSH2 0x7FF JUMP JUMPDEST SWAP2 SWAP1 POP JUMP JUMPDEST PUSH1 0x0 DUP1 REVERT JUMPDEST PUSH1 0x0 PUSH20 0xFFFFFFFFFFFFFFFFFFFFFFFFFFFFFFFFFFFFFFFF DUP3 AND SWAP1 POP SWAP2 SWAP1 POP JUMP JUMPDEST PUSH1 0x0 PUSH2 0x87B DUP3 PUSH2 0x850 JUMP JUMPDEST SWAP1 POP SWAP2 SWAP1 POP JUMP JUMPDEST PUSH2 0x88B DUP2 PUSH2 0x870 JUMP JUMPDEST DUP2 EQ PUSH2 0x896 JUMPI PUSH1 0x0 DUP1 REVERT JUMPDEST POP JUMP JUMPDEST PUSH1 0x0 DUP2 CALLDATALOAD SWAP1 POP PUSH2 0x8A8 DUP2 PUSH2 0x882 JUMP JUMPDEST SWAP3 SWAP2 POP POP JUMP JUMPDEST PUSH1 0x0 DUP1 REVERT JUMPDEST PUSH1 0x0 DUP1 REVERT JUMPDEST PUSH1 0x0 PUSH8 0xFFFFFFFFFFFFFFFF DUP3 GT ISZERO PUSH2 0x8D3 JUMPI PUSH2 0x8D2 PUSH2 0x7D0 JUMP JUMPDEST JUMPDEST PUSH2 0x8DC DUP3 PUSH2 0x7BF JUMP JUMPDEST SWAP1 POP PUSH1 0x20 DUP2 ADD SWAP1 POP SWAP2 SWAP1 POP JUMP JUMPDEST DUP3 DUP2 DUP4 CALLDATACOPY PUSH1 0x0 DUP4 DUP4 ADD MSTORE POP POP POP JUMP JUMPDEST PUSH1 0x0 PUSH2 0x90B PUSH2 0x906 DUP5 PUSH2 0x8B8 JUMP JUMPDEST PUSH2 0x830 JUMP JUMPDEST SWAP1 POP DUP3 DUP2 MSTORE PUSH1 0x20 DUP2 ADD DUP5 DUP5 DUP5 ADD GT ISZERO PUSH2 0x927 JUMPI PUSH2 0x926 PUSH2 0x8B3 JUMP JUMPDEST JUMPDEST PUSH2 0x932 DUP5 DUP3 DUP6 PUSH2 0x8E9 JUMP JUMPDEST POP SWAP4 SWAP3 POP POP POP JUMP JUMPDEST PUSH1 0x0 DUP3 PUSH1 0x1F DUP4 ADD SLT PUSH2 0x94F JUMPI PUSH2 0x94E PUSH2 0x8AE JUMP JUMPDEST JUMPDEST DUP2 CALLDATALOAD PUSH2 0x95F DUP5 DUP3 PUSH1 0x20 DUP7 ADD PUSH2 0x8F8 JUMP JUMPDEST SWAP2 POP POP SWAP3 SWAP2 POP POP JUMP JUMPDEST PUSH1 0x0 PUSH1 0x80 DUP3 DUP5 SUB SLT ISZERO PUSH2 0x97E JUMPI PUSH2 0x97D PUSH2 0x7BA JUMP JUMPDEST JUMPDEST PUSH2 0x988 PUSH1 0x80 PUSH2 0x830 JUMP JUMPDEST SWAP1 POP PUSH1 0x0 PUSH2 0x998 DUP5 DUP3 DUP6 ADD PUSH2 0x899 JUMP JUMPDEST PUSH1 0x0 DUP4 ADD MSTORE POP PUSH1 0x20 DUP3 ADD CALLDATALOAD PUSH8 0xFFFFFFFFFFFFFFFF DUP2 GT ISZERO PUSH2 0x9BC JUMPI PUSH2 0x9BB PUSH2 0x84B JUMP JUMPDEST JUMPDEST PUSH2 0x9C8 DUP5 DUP3 DUP6 ADD PUSH2 0x93A JUMP JUMPDEST PUSH1 0x20 DUP4 ADD MSTORE POP PUSH1 0x40 DUP3 ADD CALLDATALOAD PUSH8 0xFFFFFFFFFFFFFFFF DUP2 GT ISZERO PUSH2 0x9EC JUMPI PUSH2 0x9EB PUSH2 0x84B JUMP JUMPDEST JUMPDEST PUSH2 0x9F8 DUP5 DUP3 DUP6 ADD PUSH2 0x93A JUMP JUMPDEST PUSH1 0x40 DUP4 ADD MSTORE POP PUSH1 0x60 DUP3 ADD CALLDATALOAD PUSH8 0xFFFFFFFFFFFFFFFF DUP2 GT ISZERO PUSH2 0xA1C JUMPI PUSH2 0xA1B PUSH2 0x84B JUMP JUMPDEST JUMPDEST PUSH2 0xA28 DUP5 DUP3 DUP6 ADD PUSH2 0x93A JUMP JUMPDEST PUSH1 0x60 DUP4 ADD MSTORE POP SWAP3 SWAP2 POP POP JUMP JUMPDEST PUSH1 0x0 PUSH1 0x20 DUP3 DUP5 SUB SLT ISZERO PUSH2 0xA4A JUMPI PUSH2 0xA49 PUSH2 0x7B0 JUMP JUMPDEST JUMPDEST PUSH1 0x0 DUP3 ADD CALLDATALOAD PUSH8 0xFFFFFFFFFFFFFFFF DUP2 GT ISZERO PUSH2 0xA68 JUMPI PUSH2 0xA67 PUSH2 0x7B5 JUMP JUMPDEST JUMPDEST PUSH2 0xA74 DUP5 DUP3 DUP6 ADD PUSH2 0x968 JUMP JUMPDEST SWAP2 POP POP SWAP3 SWAP2 POP POP JUMP JUMPDEST PUSH1 0x0 DUP2 ISZERO ISZERO SWAP1 POP SWAP2 SWAP1 POP JUMP JUMPDEST PUSH2 0xA92 DUP2 PUSH2 0xA7D JUMP JUMPDEST DUP3 MSTORE POP POP JUMP JUMPDEST PUSH1 0x0 PUSH1 0x20 DUP3 ADD SWAP1 POP PUSH2 0xAAD PUSH1 0x0 DUP4 ADD DUP5 PUSH2 0xA89 JUMP JUMPDEST SWAP3 SWAP2 POP POP JUMP JUMPDEST PUSH1 0x0 PUSH1 0x20 DUP3 DUP5 SUB SLT ISZERO PUSH2 0xAC9 JUMPI PUSH2 0xAC8 PUSH2 0x7B0 JUMP JUMPDEST JUMPDEST PUSH1 0x0 PUSH2 0xAD7 DUP5 DUP3 DUP6 ADD PUSH2 0x899 JUMP JUMPDEST SWAP2 POP POP SWAP3 SWAP2 POP POP JUMP JUMPDEST PUSH2 0xAE9 DUP2 PUSH2 0xA7D JUMP JUMPDEST DUP3 MSTORE POP POP JUMP JUMPDEST PUSH2 0xAF8 DUP2 PUSH2 0x870 JUMP JUMPDEST DUP3 MSTORE POP POP JUMP JUMPDEST PUSH1 0x0 DUP2 MLOAD SWAP1 POP SWAP2 SWAP1 POP JUMP JUMPDEST PUSH1 0x0 DUP3 DUP3 MSTORE PUSH1 0x20 DUP3 ADD SWAP1 POP SWAP3 SWAP2 POP POP JUMP JUMPDEST PUSH1 0x0 JUMPDEST DUP4 DUP2 LT ISZERO PUSH2 0xB38 JUMPI DUP1 DUP3 ADD MLOAD DUP2 DUP5 ADD MSTORE PUSH1 0x20 DUP2 ADD SWAP1 POP PUSH2 0xB1D JUMP JUMPDEST PUSH1 0x0 DUP5 DUP5 ADD MSTORE POP POP POP POP JUMP JUMPDEST PUSH1 0x0 PUSH2 0xB4F DUP3 PUSH2 0xAFE JUMP JUMPDEST PUSH2 0xB59 DUP2 DUP6 PUSH2 0xB09 JUMP JUMPDEST SWAP4 POP PUSH2 0xB69 DUP2 DUP6 PUSH1 0x20 DUP7 ADD PUSH2 0xB1A JUMP JUMPDEST PUSH2 0xB72 DUP2 PUSH2 0x7BF JUMP JUMPDEST DUP5 ADD SWAP2 POP POP SWAP3 SWAP2 POP POP JUMP JUMPDEST PUSH1 0x0 PUSH1 0x80 DUP4 ADD PUSH1 0x0 DUP4 ADD MLOAD PUSH2 0xB95 PUSH1 0x0 DUP7 ADD DUP3 PUSH2 0xAEF JUMP JUMPDEST POP PUSH1 0x20 DUP4 ADD MLOAD DUP5 DUP3 SUB PUSH1 0x20 DUP7 ADD MSTORE PUSH2 0xBAD DUP3 DUP3 PUSH2 0xB44 JUMP JUMPDEST SWAP2 POP POP PUSH1 0x40 DUP4 ADD MLOAD DUP5 DUP3 SUB PUSH1 0x40 DUP7 ADD MSTORE PUSH2 0xBC7 DUP3 DUP3 PUSH2 0xB44 JUMP JUMPDEST SWAP2 POP POP PUSH1 0x60 DUP4 ADD MLOAD DUP5 DUP3 SUB PUSH1 0x60 DUP7 ADD MSTORE PUSH2 0xBE1 DUP3 DUP3 PUSH2 0xB44 JUMP JUMPDEST SWAP2 POP POP DUP1 SWAP2 POP POP SWAP3 SWAP2 POP POP JUMP JUMPDEST PUSH1 0x0 PUSH1 0x40 DUP4 ADD PUSH1 0x0 DUP4 ADD MLOAD PUSH2 0xC06 PUSH1 0x0 DUP7 ADD DUP3 PUSH2 0xAE0 JUMP JUMPDEST POP PUSH1 0x20 DUP4 ADD MLOAD DUP5 DUP3 SUB PUSH1 0x20 DUP7 ADD MSTORE PUSH2 0xC1E DUP3 DUP3 PUSH2 0xB7D JUMP JUMPDEST SWAP2 POP POP DUP1 SWAP2 POP POP SWAP3 SWAP2 POP POP JUMP JUMPDEST PUSH1 0x0 PUSH1 0x20 DUP3 ADD SWAP1 POP DUP2 DUP2 SUB PUSH1 0x0 DUP4 ADD MSTORE PUSH2 0xC45 DUP2 DUP5 PUSH2 0xBEE JUMP JUMPDEST SWAP1 POP SWAP3 SWAP2 POP POP JUMP JUMPDEST PUSH1 0x0 PUSH1 0x20 DUP3 DUP5 SUB SLT ISZERO PUSH2 0xC63 JUMPI PUSH2 0xC62 PUSH2 0x7B0 JUMP JUMPDEST JUMPDEST PUSH1 0x0 DUP3 ADD CALLDATALOAD PUSH8 0xFFFFFFFFFFFFFFFF DUP2 GT ISZERO PUSH2 0xC81 JUMPI PUSH2 0xC80 PUSH2 0x7B5 JUMP JUMPDEST JUMPDEST PUSH2 0xC8D DUP5 DUP3 DUP6 ADD PUSH2 0x93A JUMP JUMPDEST SWAP2 POP POP SWAP3 SWAP2 POP POP JUMP JUMPDEST PUSH32 0x4E487B7100000000000000000000000000000000000000000000000000000000 PUSH1 0x0 MSTORE PUSH1 0x22 PUSH1 0x4 MSTORE PUSH1 0x24 PUSH1 0x0 REVERT JUMPDEST PUSH1 0x0 PUSH1 0x2 DUP3 DIV SWAP1 POP PUSH1 0x1 DUP3 AND DUP1 PUSH2 0xCDD JUMPI PUSH1 0x7F DUP3 AND SWAP2 POP JUMPDEST PUSH1 0x20 DUP3 LT DUP2 SUB PUSH2 0xCF0 JUMPI PUSH2 0xCEF PUSH2 0xC96 JUMP JUMPDEST JUMPDEST POP SWAP2 SWAP1 POP JUMP JUMPDEST PUSH1 0x0 DUP2 SWAP1 POP DUP2 PUSH1 0x0 MSTORE PUSH1 0x20 PUSH1 0x0 KECCAK256 SWAP1 POP SWAP2 SWAP1 POP JUMP JUMPDEST PUSH1 0x0 PUSH1 0x20 PUSH1 0x1F DUP4 ADD DIV SWAP1 POP SWAP2 SWAP1 POP JUMP JUMPDEST PUSH1 0x0 DUP3 DUP3 SHL SWAP1 POP SWAP3 SWAP2 POP POP JUMP JUMPDEST PUSH1 0x0 PUSH1 0x8 DUP4 MUL PUSH2 0xD58 PUSH32 0xFFFFFFFFFFFFFFFFFFFFFFFFFFFFFFFFFFFFFFFFFFFFFFFFFFFFFFFFFFFFFFFF DUP3 PUSH2 0xD1B JUMP JUMPDEST PUSH2 0xD62 DUP7 DUP4 PUSH2 0xD1B JUMP JUMPDEST SWAP6 POP DUP1 NOT DUP5 AND SWAP4 POP DUP1 DUP7 AND DUP5 OR SWAP3 POP POP POP SWAP4 SWAP3 POP POP POP JUMP JUMPDEST PUSH1 0x0 DUP2 SWAP1 POP SWAP2 SWAP1 POP JUMP JUMPDEST PUSH1 0x0 DUP2 SWAP1 POP SWAP2 SWAP1 POP JUMP JUMPDEST PUSH1 0x0 PUSH2 0xDA9 PUSH2 0xDA4 PUSH2 0xD9F DUP5 PUSH2 0xD7A JUMP JUMPDEST PUSH2 0xD84 JUMP JUMPDEST PUSH2 0xD7A JUMP JUMPDEST SWAP1 POP SWAP2 SWAP1 POP JUMP JUMPDEST PUSH1 0x0 DUP2 SWAP1 POP SWAP2 SWAP1 POP JUMP JUMPDEST PUSH2 0xDC3 DUP4 PUSH2 0xD8E JUMP JUMPDEST PUSH2 0xDD7 PUSH2 0xDCF DUP3 PUSH2 0xDB0 JUMP JUMPDEST DUP5 DUP5 SLOAD PUSH2 0xD28 JUMP JUMPDEST DUP3 SSTORE POP POP POP POP JUMP JUMPDEST PUSH1 0x0 SWAP1 JUMP JUMPDEST PUSH2 0xDEC PUSH2 0xDDF JUMP JUMPDEST PUSH2 0xDF7 DUP2 DUP5 DUP5 PUSH2 0xDBA JUMP JUMPDEST POP POP POP JUMP JUMPDEST JUMPDEST DUP2 DUP2 LT ISZERO PUSH2 0xE1B JUMPI PUSH2 0xE10 PUSH1 0x0 DUP3 PUSH2 0xDE4 JUMP JUMPDEST PUSH1 0x1 DUP2 ADD SWAP1 POP PUSH2 0xDFD JUMP JUMPDEST POP POP JUMP JUMPDEST PUSH1 0x1F DUP3 GT ISZERO PUSH2 0xE60 JUMPI PUSH2 0xE31 DUP2 PUSH2 0xCF6 JUMP JUMPDEST PUSH2 0xE3A DUP5 PUSH2 0xD0B JUMP JUMPDEST DUP2 ADD PUSH1 0x20 DUP6 LT ISZERO PUSH2 0xE49 JUMPI DUP2 SWAP1 POP JUMPDEST PUSH2 0xE5D PUSH2 0xE55 DUP6 PUSH2 0xD0B JUMP JUMPDEST DUP4 ADD DUP3 PUSH2 0xDFC JUMP JUMPDEST POP POP JUMPDEST POP POP POP JUMP JUMPDEST PUSH1 0x0 DUP3 DUP3 SHR SWAP1 POP SWAP3 SWAP2 POP POP JUMP JUMPDEST PUSH1 0x0 PUSH2 0xE83 PUSH1 0x0 NOT DUP5 PUSH1 0x8 MUL PUSH2 0xE65 JUMP JUMPDEST NOT DUP1 DUP4 AND SWAP2 POP POP SWAP3 SWAP2 POP POP JUMP JUMPDEST PUSH1 0x0 PUSH2 0xE9C DUP4 DUP4 PUSH2 0xE72 JUMP JUMPDEST SWAP2 POP DUP3 PUSH1 0x2 MUL DUP3 OR SWAP1 POP SWAP3 SWAP2 POP POP JUMP JUMPDEST PUSH2 0xEB5 DUP3 PUSH2 0xAFE JUMP JUMPDEST PUSH8 0xFFFFFFFFFFFFFFFF DUP2 GT ISZERO PUSH2 0xECE JUMPI PUSH2 0xECD PUSH2 0x7D0 JUMP JUMPDEST JUMPDEST PUSH2 0xED8 DUP3 SLOAD PUSH2 0xCC5 JUMP JUMPDEST PUSH2 0xEE3 DUP3 DUP3 DUP6 PUSH2 0xE1F JUMP JUMPDEST PUSH1 0x0 PUSH1 0x20 SWAP1 POP PUSH1 0x1F DUP4 GT PUSH1 0x1 DUP2 EQ PUSH2 0xF16 JUMPI PUSH1 0x0 DUP5 ISZERO PUSH2 0xF04 JUMPI DUP3 DUP8 ADD MLOAD SWAP1 POP JUMPDEST PUSH2 0xF0E DUP6 DUP3 PUSH2 0xE90 JUMP JUMPDEST DUP7 SSTORE POP PUSH2 0xF76 JUMP JUMPDEST PUSH1 0x1F NOT DUP5 AND PUSH2 0xF24 DUP7 PUSH2 0xCF6 JUMP JUMPDEST PUSH1 0x0 JUMPDEST DUP3 DUP2 LT ISZERO PUSH2 0xF4C JUMPI DUP5 DUP10 ADD MLOAD DUP3 SSTORE PUSH1 0x1 DUP3 ADD SWAP2 POP PUSH1 0x20 DUP6 ADD SWAP5 POP PUSH1 0x20 DUP2 ADD SWAP1 POP PUSH2 0xF27 JUMP JUMPDEST DUP7 DUP4 LT ISZERO PUSH2 0xF69 JUMPI DUP5 DUP10 ADD MLOAD PUSH2 0xF65 PUSH1 0x1F DUP10 AND DUP3 PUSH2 0xE72 JUMP JUMPDEST DUP4 SSTORE POP JUMPDEST PUSH1 0x1 PUSH1 0x2 DUP9 MUL ADD DUP9 SSTORE POP POP POP JUMPDEST POP POP POP POP POP POP JUMP JUMPDEST PUSH1 0x0 DUP2 SWAP1 POP SWAP3 SWAP2 POP POP JUMP JUMPDEST PUSH1 0x0 PUSH2 0xF94 DUP3 PUSH2 0xAFE JUMP JUMPDEST PUSH2 0xF9E DUP2 DUP6 PUSH2 0xF7E JUMP JUMPDEST SWAP4 POP PUSH2 0xFAE DUP2 DUP6 PUSH1 0x20 DUP7 ADD PUSH2 0xB1A JUMP JUMPDEST DUP1 DUP5 ADD SWAP2 POP POP SWAP3 SWAP2 POP POP JUMP JUMPDEST PUSH1 0x0 PUSH2 0xFC6 DUP3 DUP5 PUSH2 0xF89 JUMP JUMPDEST SWAP2 POP DUP2 SWAP1 POP SWAP3 SWAP2 POP POP JUMP INVALID LOG2 PUSH5 0x6970667358 0x22 SLT KECCAK256 DUP12 BLOCKHASH RETURN PUSH2 0xEC47 POP 0xEE SWAP11 PUSH19 0x65D079E4273605FD0117E5B492B28F530A8877 0xB1 LOG3 JUMP PUSH5 0x736F6C6343 STOP ADDMOD SGT STOP CALLER "},"methodIdentifiers":{"canRegister((address,string,string,string))":"2b4bce8b","existingAddress(address)":"a240e426","existingUserName(string)":"b0c22a56","getUser(address)":"6f77926b","userRegistered((address,string,string,string))":"75e9493f"}}}}}