{"contracts/StoreUser.sol":{"StoreUser":{"abi":[{"anonymous":false,"inputs":[{"indexed":false,"internalType":"bool","name":"success","type":"bool"},{"indexed":false,"internalType":"string","name":"message","type":"string"}],"name":"RegistrationResult","type":"event"},{"inputs":[{"components":[{"internalType":"address","name":"account","type":"address"},{"internalType":"string","name":"name","type":"string"},{"internalType":"string","name":"publicKey","type":"string"},{"internalType":"string","name":"privateKey","type":"string"}],"internalType":"struct User","name":"user","type":"tuple"}],"name":"checkRegistration","outputs":[{"internalType":"string","name":"","type":"string"}],"stateMutability":"view","type":"function"},{"inputs":[{"internalType":"address","name":"account","type":"address"}],"name":"getUser","outputs":[{"components":[{"internalType":"address","name":"account","type":"address"},{"internalType":"string","name":"name","type":"string"},{"internalType":"string","name":"publicKey","type":"string"},{"internalType":"string","name":"privateKey","type":"string"}],"internalType":"struct User","name":"","type":"tuple"}],"stateMutability":"view","type":"function"},{"inputs":[{"components":[{"internalType":"address","name":"account","type":"address"},{"internalType":"string","name":"name","type":"string"},{"internalType":"string","name":"publicKey","type":"string"},{"internalType":"string","name":"privateKey","type":"string"}],"internalType":"struct User","name":"user","type":"tuple"}],"name":"register","outputs":[],"stateMutability":"nonpayable","type":"function"}],"evm":{"bytecode":{"linkReferences":{},"object":"608060405234801561001057600080fd5b5061109e806100206000396000f3fe608060405234801561001057600080fd5b50600436106100415760003560e01c8063610273da1461004657806362629bef146100765780636f77926b14610092575b600080fd5b610060600480360381019061005b9190610933565b6100c2565b60405161006d91906109fb565b60405180910390f35b610090600480360381019061008b9190610933565b610226565b005b6100ac60048036038101906100a79190610a1d565b610370565b6040516100b99190610b14565b60405180910390f35b606060005b60008054905081101561020d57826000015173ffffffffffffffffffffffffffffffffffffffff166000828154811061010357610102610b36565b5b906000526020600020906004020160000160009054906101000a900473ffffffffffffffffffffffffffffffffffffffff1673ffffffffffffffffffffffffffffffffffffffff16036101715760405180606001604052806025815260200161104460259139915050610221565b8260200151805190602001206000828154811061019157610190610b36565b5b90600052602060002090600402016001016040516101af9190610c68565b6040518091039020036101fa576040518060400160405280601f81526020017f557365722068617320746f2068617665206120756e69717565206e616d652e00815250915050610221565b808061020590610cb8565b9150506100c7565b506040518060200160405280600081525090505b919050565b6000610231826100c2565b9050600081510361033157600082908060018154018082558091505060019003906000526020600020906004020160009091909190915060008201518160000160006101000a81548173ffffffffffffffffffffffffffffffffffffffff021916908373ffffffffffffffffffffffffffffffffffffffff16021790555060208201518160010190816102c49190610eac565b5060408201518160020190816102da9190610eac565b5060608201518160030190816102f09190610eac565b5050507f40590457641da6c4e096f4ca29eb26968297d549f04209fa29e48fa5e22405cb60016040516103239190610fe5565b60405180910390a15061036d565b7f40590457641da6c4e096f4ca29eb26968297d549f04209fa29e48fa5e22405cb600082604051610363929190611013565b60405180910390a1505b50565b610378610667565b60005b600080549050811015610654578273ffffffffffffffffffffffffffffffffffffffff16600082815481106103b3576103b2610b36565b5b906000526020600020906004020160000160009054906101000a900473ffffffffffffffffffffffffffffffffffffffff1673ffffffffffffffffffffffffffffffffffffffff1603610641576000818154811061041457610413610b36565b5b90600052602060002090600402016040518060800160405290816000820160009054906101000a900473ffffffffffffffffffffffffffffffffffffffff1673ffffffffffffffffffffffffffffffffffffffff1673ffffffffffffffffffffffffffffffffffffffff16815260200160018201805461049390610b94565b80601f01602080910402602001604051908101604052809291908181526020018280546104bf90610b94565b801561050c5780601f106104e15761010080835404028352916020019161050c565b820191906000526020600020905b8154815290600101906020018083116104ef57829003601f168201915b5050505050815260200160028201805461052590610b94565b80601f016020809104026020016040519081016040528092919081815260200182805461055190610b94565b801561059e5780601f106105735761010080835404028352916020019161059e565b820191906000526020600020905b81548152906001019060200180831161058157829003601f168201915b505050505081526020016003820180546105b790610b94565b80601f01602080910402602001604051908101604052809291908181526020018280546105e390610b94565b80156106305780601f1061060557610100808354040283529160200191610630565b820191906000526020600020905b81548152906001019060200180831161061357829003601f168201915b505050505081525050915050610662565b808061064c90610cb8565b91505061037b565b5061065d610667565b809150505b919050565b6040518060800160405280600073ffffffffffffffffffffffffffffffffffffffff1681526020016060815260200160608152602001606081525090565b6000604051905090565b600080fd5b600080fd5b600080fd5b6000601f19601f8301169050919050565b7f4e487b7100000000000000000000000000000000000000000000000000000000600052604160045260246000fd5b610707826106be565b810181811067ffffffffffffffff82111715610726576107256106cf565b5b80604052505050565b60006107396106a5565b905061074582826106fe565b919050565b600080fd5b600073ffffffffffffffffffffffffffffffffffffffff82169050919050565b600061077a8261074f565b9050919050565b61078a8161076f565b811461079557600080fd5b50565b6000813590506107a781610781565b92915050565b600080fd5b600080fd5b600067ffffffffffffffff8211156107d2576107d16106cf565b5b6107db826106be565b9050602081019050919050565b82818337600083830152505050565b600061080a610805846107b7565b61072f565b905082815260208101848484011115610826576108256107b2565b5b6108318482856107e8565b509392505050565b600082601f83011261084e5761084d6107ad565b5b813561085e8482602086016107f7565b91505092915050565b60006080828403121561087d5761087c6106b9565b5b610887608061072f565b9050600061089784828501610798565b600083015250602082013567ffffffffffffffff8111156108bb576108ba61074a565b5b6108c784828501610839565b602083015250604082013567ffffffffffffffff8111156108eb576108ea61074a565b5b6108f784828501610839565b604083015250606082013567ffffffffffffffff81111561091b5761091a61074a565b5b61092784828501610839565b60608301525092915050565b600060208284031215610949576109486106af565b5b600082013567ffffffffffffffff811115610967576109666106b4565b5b61097384828501610867565b91505092915050565b600081519050919050565b600082825260208201905092915050565b60005b838110156109b657808201518184015260208101905061099b565b60008484015250505050565b60006109cd8261097c565b6109d78185610987565b93506109e7818560208601610998565b6109f0816106be565b840191505092915050565b60006020820190508181036000830152610a1581846109c2565b905092915050565b600060208284031215610a3357610a326106af565b5b6000610a4184828501610798565b91505092915050565b610a538161076f565b82525050565b600082825260208201905092915050565b6000610a758261097c565b610a7f8185610a59565b9350610a8f818560208601610998565b610a98816106be565b840191505092915050565b6000608083016000830151610abb6000860182610a4a565b5060208301518482036020860152610ad38282610a6a565b91505060408301518482036040860152610aed8282610a6a565b91505060608301518482036060860152610b078282610a6a565b9150508091505092915050565b60006020820190508181036000830152610b2e8184610aa3565b905092915050565b7f4e487b7100000000000000000000000000000000000000000000000000000000600052603260045260246000fd5b7f4e487b7100000000000000000000000000000000000000000000000000000000600052602260045260246000fd5b60006002820490506001821680610bac57607f821691505b602082108103610bbf57610bbe610b65565b5b50919050565b600081905092915050565b60008190508160005260206000209050919050565b60008154610bf281610b94565b610bfc8186610bc5565b94506001821660008114610c175760018114610c2c57610c5f565b60ff1983168652811515820286019350610c5f565b610c3585610bd0565b60005b83811015610c5757815481890152600182019150602081019050610c38565b838801955050505b50505092915050565b6000610c748284610be5565b915081905092915050565b7f4e487b7100000000000000000000000000000000000000000000000000000000600052601160045260246000fd5b6000819050919050565b6000610cc382610cae565b91507fffffffffffffffffffffffffffffffffffffffffffffffffffffffffffffffff8203610cf557610cf4610c7f565b5b600182019050919050565b60008190508160005260206000209050919050565b60006020601f8301049050919050565b600082821b905092915050565b600060088302610d627fffffffffffffffffffffffffffffffffffffffffffffffffffffffffffffffff82610d25565b610d6c8683610d25565b95508019841693508086168417925050509392505050565b6000819050919050565b6000610da9610da4610d9f84610cae565b610d84565b610cae565b9050919050565b6000819050919050565b610dc383610d8e565b610dd7610dcf82610db0565b848454610d32565b825550505050565b600090565b610dec610ddf565b610df7818484610dba565b505050565b5b81811015610e1b57610e10600082610de4565b600181019050610dfd565b5050565b601f821115610e6057610e3181610d00565b610e3a84610d15565b81016020851015610e49578190505b610e5d610e5585610d15565b830182610dfc565b50505b505050565b600082821c905092915050565b6000610e8360001984600802610e65565b1980831691505092915050565b6000610e9c8383610e72565b9150826002028217905092915050565b610eb58261097c565b67ffffffffffffffff811115610ece57610ecd6106cf565b5b610ed88254610b94565b610ee3828285610e1f565b600060209050601f831160018114610f165760008415610f04578287015190505b610f0e8582610e90565b865550610f76565b601f198416610f2486610d00565b60005b82811015610f4c57848901518255600182019150602085019450602081019050610f27565b86831015610f695784890151610f65601f891682610e72565b8355505b6001600288020188555050505b505050505050565b60008115159050919050565b610f9381610f7e565b82525050565b7f557365722072656769737465726564207375636365737366756c6c7900000000600082015250565b6000610fcf601c83610987565b9150610fda82610f99565b602082019050919050565b6000604082019050610ffa6000830184610f8a565b818103602083015261100b81610fc2565b905092915050565b60006040820190506110286000830185610f8a565b818103602083015261103a81846109c2565b9050939250505056fe5573657220616c72656164792065786973747320666f72207468697320616464726573732ea26469706673582212203d95b4734a898bef9c65ff4660ece1b6bbd006a24ee1b221f5520d282f1cc49564736f6c63430008130033","opcodes":"PUSH1 0x80 PUSH1 0x40 MSTORE CALLVALUE DUP1 ISZERO PUSH2 0x10 JUMPI PUSH1 0x0 DUP1 REVERT JUMPDEST POP PUSH2 0x109E DUP1 PUSH2 0x20 PUSH1 0x0 CODECOPY PUSH1 0x0 RETURN INVALID PUSH1 0x80 PUSH1 0x40 MSTORE CALLVALUE DUP1 ISZERO PUSH2 0x10 JUMPI PUSH1 0x0 DUP1 REVERT JUMPDEST POP PUSH1 0x4 CALLDATASIZE LT PUSH2 0x41 JUMPI PUSH1 0x0 CALLDATALOAD PUSH1 0xE0 SHR DUP1 PUSH4 0x610273DA EQ PUSH2 0x46 JUMPI DUP1 PUSH4 0x62629BEF EQ PUSH2 0x76 JUMPI DUP1 PUSH4 0x6F77926B EQ PUSH2 0x92 JUMPI JUMPDEST PUSH1 0x0 DUP1 REVERT JUMPDEST PUSH2 0x60 PUSH1 0x4 DUP1 CALLDATASIZE SUB DUP2 ADD SWAP1 PUSH2 0x5B SWAP2 SWAP1 PUSH2 0x933 JUMP JUMPDEST PUSH2 0xC2 JUMP JUMPDEST PUSH1 0x40 MLOAD PUSH2 0x6D SWAP2 SWAP1 PUSH2 0x9FB JUMP JUMPDEST PUSH1 0x40 MLOAD DUP1 SWAP2 SUB SWAP1 RETURN JUMPDEST PUSH2 0x90 PUSH1 0x4 DUP1 CALLDATASIZE SUB DUP2 ADD SWAP1 PUSH2 0x8B SWAP2 SWAP1 PUSH2 0x933 JUMP JUMPDEST PUSH2 0x226 JUMP JUMPDEST STOP JUMPDEST PUSH2 0xAC PUSH1 0x4 DUP1 CALLDATASIZE SUB DUP2 ADD SWAP1 PUSH2 0xA7 SWAP2 SWAP1 PUSH2 0xA1D JUMP JUMPDEST PUSH2 0x370 JUMP JUMPDEST PUSH1 0x40 MLOAD PUSH2 0xB9 SWAP2 SWAP1 PUSH2 0xB14 JUMP JUMPDEST PUSH1 0x40 MLOAD DUP1 SWAP2 SUB SWAP1 RETURN JUMPDEST PUSH1 0x60 PUSH1 0x0 JUMPDEST PUSH1 0x0 DUP1 SLOAD SWAP1 POP DUP2 LT ISZERO PUSH2 0x20D JUMPI DUP3 PUSH1 0x0 ADD MLOAD PUSH20 0xFFFFFFFFFFFFFFFFFFFFFFFFFFFFFFFFFFFFFFFF AND PUSH1 0x0 DUP3 DUP2 SLOAD DUP2 LT PUSH2 0x103 JUMPI PUSH2 0x102 PUSH2 0xB36 JUMP JUMPDEST JUMPDEST SWAP1 PUSH1 0x0 MSTORE PUSH1 0x20 PUSH1 0x0 KECCAK256 SWAP1 PUSH1 0x4 MUL ADD PUSH1 0x0 ADD PUSH1 0x0 SWAP1 SLOAD SWAP1 PUSH2 0x100 EXP SWAP1 DIV PUSH20 0xFFFFFFFFFFFFFFFFFFFFFFFFFFFFFFFFFFFFFFFF AND PUSH20 0xFFFFFFFFFFFFFFFFFFFFFFFFFFFFFFFFFFFFFFFF AND SUB PUSH2 0x171 JUMPI PUSH1 0x40 MLOAD DUP1 PUSH1 0x60 ADD PUSH1 0x40 MSTORE DUP1 PUSH1 0x25 DUP2 MSTORE PUSH1 0x20 ADD PUSH2 0x1044 PUSH1 0x25 SWAP2 CODECOPY SWAP2 POP POP PUSH2 0x221 JUMP JUMPDEST DUP3 PUSH1 0x20 ADD MLOAD DUP1 MLOAD SWAP1 PUSH1 0x20 ADD KECCAK256 PUSH1 0x0 DUP3 DUP2 SLOAD DUP2 LT PUSH2 0x191 JUMPI PUSH2 0x190 PUSH2 0xB36 JUMP JUMPDEST JUMPDEST SWAP1 PUSH1 0x0 MSTORE PUSH1 0x20 PUSH1 0x0 KECCAK256 SWAP1 PUSH1 0x4 MUL ADD PUSH1 0x1 ADD PUSH1 0x40 MLOAD PUSH2 0x1AF SWAP2 SWAP1 PUSH2 0xC68 JUMP JUMPDEST PUSH1 0x40 MLOAD DUP1 SWAP2 SUB SWAP1 KECCAK256 SUB PUSH2 0x1FA JUMPI PUSH1 0x40 MLOAD DUP1 PUSH1 0x40 ADD PUSH1 0x40 MSTORE DUP1 PUSH1 0x1F DUP2 MSTORE PUSH1 0x20 ADD PUSH32 0x557365722068617320746F2068617665206120756E69717565206E616D652E00 DUP2 MSTORE POP SWAP2 POP POP PUSH2 0x221 JUMP JUMPDEST DUP1 DUP1 PUSH2 0x205 SWAP1 PUSH2 0xCB8 JUMP JUMPDEST SWAP2 POP POP PUSH2 0xC7 JUMP JUMPDEST POP PUSH1 0x40 MLOAD DUP1 PUSH1 0x20 ADD PUSH1 0x40 MSTORE DUP1 PUSH1 0x0 DUP2 MSTORE POP SWAP1 POP JUMPDEST SWAP2 SWAP1 POP JUMP JUMPDEST PUSH1 0x0 PUSH2 0x231 DUP3 PUSH2 0xC2 JUMP JUMPDEST SWAP1 POP PUSH1 0x0 DUP2 MLOAD SUB PUSH2 0x331 JUMPI PUSH1 0x0 DUP3 SWAP1 DUP1 PUSH1 0x1 DUP2 SLOAD ADD DUP1 DUP3 SSTORE DUP1 SWAP2 POP POP PUSH1 0x1 SWAP1 SUB SWAP1 PUSH1 0x0 MSTORE PUSH1 0x20 PUSH1 0x0 KECCAK256 SWAP1 PUSH1 0x4 MUL ADD PUSH1 0x0 SWAP1 SWAP2 SWAP1 SWAP2 SWAP1 SWAP2 POP PUSH1 0x0 DUP3 ADD MLOAD DUP2 PUSH1 0x0 ADD PUSH1 0x0 PUSH2 0x100 EXP DUP2 SLOAD DUP2 PUSH20 0xFFFFFFFFFFFFFFFFFFFFFFFFFFFFFFFFFFFFFFFF MUL NOT AND SWAP1 DUP4 PUSH20 0xFFFFFFFFFFFFFFFFFFFFFFFFFFFFFFFFFFFFFFFF AND MUL OR SWAP1 SSTORE POP PUSH1 0x20 DUP3 ADD MLOAD DUP2 PUSH1 0x1 ADD SWAP1 DUP2 PUSH2 0x2C4 SWAP2 SWAP1 PUSH2 0xEAC JUMP JUMPDEST POP PUSH1 0x40 DUP3 ADD MLOAD DUP2 PUSH1 0x2 ADD SWAP1 DUP2 PUSH2 0x2DA SWAP2 SWAP1 PUSH2 0xEAC JUMP JUMPDEST POP PUSH1 0x60 DUP3 ADD MLOAD DUP2 PUSH1 0x3 ADD SWAP1 DUP2 PUSH2 0x2F0 SWAP2 SWAP1 PUSH2 0xEAC JUMP JUMPDEST POP POP POP PUSH32 0x40590457641DA6C4E096F4CA29EB26968297D549F04209FA29E48FA5E22405CB PUSH1 0x1 PUSH1 0x40 MLOAD PUSH2 0x323 SWAP2 SWAP1 PUSH2 0xFE5 JUMP JUMPDEST PUSH1 0x40 MLOAD DUP1 SWAP2 SUB SWAP1 LOG1 POP PUSH2 0x36D JUMP JUMPDEST PUSH32 0x40590457641DA6C4E096F4CA29EB26968297D549F04209FA29E48FA5E22405CB PUSH1 0x0 DUP3 PUSH1 0x40 MLOAD PUSH2 0x363 SWAP3 SWAP2 SWAP1 PUSH2 0x1013 JUMP JUMPDEST PUSH1 0x40 MLOAD DUP1 SWAP2 SUB SWAP1 LOG1 POP JUMPDEST POP JUMP JUMPDEST PUSH2 0x378 PUSH2 0x667 JUMP JUMPDEST PUSH1 0x0 JUMPDEST PUSH1 0x0 DUP1 SLOAD SWAP1 POP DUP2 LT ISZERO PUSH2 0x654 JUMPI DUP3 PUSH20 0xFFFFFFFFFFFFFFFFFFFFFFFFFFFFFFFFFFFFFFFF AND PUSH1 0x0 DUP3 DUP2 SLOAD DUP2 LT PUSH2 0x3B3 JUMPI PUSH2 0x3B2 PUSH2 0xB36 JUMP JUMPDEST JUMPDEST SWAP1 PUSH1 0x0 MSTORE PUSH1 0x20 PUSH1 0x0 KECCAK256 SWAP1 PUSH1 0x4 MUL ADD PUSH1 0x0 ADD PUSH1 0x0 SWAP1 SLOAD SWAP1 PUSH2 0x100 EXP SWAP1 DIV PUSH20 0xFFFFFFFFFFFFFFFFFFFFFFFFFFFFFFFFFFFFFFFF AND PUSH20 0xFFFFFFFFFFFFFFFFFFFFFFFFFFFFFFFFFFFFFFFF AND SUB PUSH2 0x641 JUMPI PUSH1 0x0 DUP2 DUP2 SLOAD DUP2 LT PUSH2 0x414 JUMPI PUSH2 0x413 PUSH2 0xB36 JUMP JUMPDEST JUMPDEST SWAP1 PUSH1 0x0 MSTORE PUSH1 0x20 PUSH1 0x0 KECCAK256 SWAP1 PUSH1 0x4 MUL ADD PUSH1 0x40 MLOAD DUP1 PUSH1 0x80 ADD PUSH1 0x40 MSTORE SWAP1 DUP2 PUSH1 0x0 DUP3 ADD PUSH1 0x0 SWAP1 SLOAD SWAP1 PUSH2 0x100 EXP SWAP1 DIV PUSH20 0xFFFFFFFFFFFFFFFFFFFFFFFFFFFFFFFFFFFFFFFF AND PUSH20 0xFFFFFFFFFFFFFFFFFFFFFFFFFFFFFFFFFFFFFFFF AND PUSH20 0xFFFFFFFFFFFFFFFFFFFFFFFFFFFFFFFFFFFFFFFF AND DUP2 MSTORE PUSH1 0x20 ADD PUSH1 0x1 DUP3 ADD DUP1 SLOAD PUSH2 0x493 SWAP1 PUSH2 0xB94 JUMP JUMPDEST DUP1 PUSH1 0x1F ADD PUSH1 0x20 DUP1 SWAP2 DIV MUL PUSH1 0x20 ADD PUSH1 0x40 MLOAD SWAP1 DUP2 ADD PUSH1 0x40 MSTORE DUP1 SWAP3 SWAP2 SWAP1 DUP2 DUP2 MSTORE PUSH1 0x20 ADD DUP3 DUP1 SLOAD PUSH2 0x4BF SWAP1 PUSH2 0xB94 JUMP JUMPDEST DUP1 ISZERO PUSH2 0x50C JUMPI DUP1 PUSH1 0x1F LT PUSH2 0x4E1 JUMPI PUSH2 0x100 DUP1 DUP4 SLOAD DIV MUL DUP4 MSTORE SWAP2 PUSH1 0x20 ADD SWAP2 PUSH2 0x50C JUMP JUMPDEST DUP3 ADD SWAP2 SWAP1 PUSH1 0x0 MSTORE PUSH1 0x20 PUSH1 0x0 KECCAK256 SWAP1 JUMPDEST DUP2 SLOAD DUP2 MSTORE SWAP1 PUSH1 0x1 ADD SWAP1 PUSH1 0x20 ADD DUP1 DUP4 GT PUSH2 0x4EF JUMPI DUP3 SWAP1 SUB PUSH1 0x1F AND DUP3 ADD SWAP2 JUMPDEST POP POP POP POP POP DUP2 MSTORE PUSH1 0x20 ADD PUSH1 0x2 DUP3 ADD DUP1 SLOAD PUSH2 0x525 SWAP1 PUSH2 0xB94 JUMP JUMPDEST DUP1 PUSH1 0x1F ADD PUSH1 0x20 DUP1 SWAP2 DIV MUL PUSH1 0x20 ADD PUSH1 0x40 MLOAD SWAP1 DUP2 ADD PUSH1 0x40 MSTORE DUP1 SWAP3 SWAP2 SWAP1 DUP2 DUP2 MSTORE PUSH1 0x20 ADD DUP3 DUP1 SLOAD PUSH2 0x551 SWAP1 PUSH2 0xB94 JUMP JUMPDEST DUP1 ISZERO PUSH2 0x59E JUMPI DUP1 PUSH1 0x1F LT PUSH2 0x573 JUMPI PUSH2 0x100 DUP1 DUP4 SLOAD DIV MUL DUP4 MSTORE SWAP2 PUSH1 0x20 ADD SWAP2 PUSH2 0x59E JUMP JUMPDEST DUP3 ADD SWAP2 SWAP1 PUSH1 0x0 MSTORE PUSH1 0x20 PUSH1 0x0 KECCAK256 SWAP1 JUMPDEST DUP2 SLOAD DUP2 MSTORE SWAP1 PUSH1 0x1 ADD SWAP1 PUSH1 0x20 ADD DUP1 DUP4 GT PUSH2 0x581 JUMPI DUP3 SWAP1 SUB PUSH1 0x1F AND DUP3 ADD SWAP2 JUMPDEST POP POP POP POP POP DUP2 MSTORE PUSH1 0x20 ADD PUSH1 0x3 DUP3 ADD DUP1 SLOAD PUSH2 0x5B7 SWAP1 PUSH2 0xB94 JUMP JUMPDEST DUP1 PUSH1 0x1F ADD PUSH1 0x20 DUP1 SWAP2 DIV MUL PUSH1 0x20 ADD PUSH1 0x40 MLOAD SWAP1 DUP2 ADD PUSH1 0x40 MSTORE DUP1 SWAP3 SWAP2 SWAP1 DUP2 DUP2 MSTORE PUSH1 0x20 ADD DUP3 DUP1 SLOAD PUSH2 0x5E3 SWAP1 PUSH2 0xB94 JUMP JUMPDEST DUP1 ISZERO PUSH2 0x630 JUMPI DUP1 PUSH1 0x1F LT PUSH2 0x605 JUMPI PUSH2 0x100 DUP1 DUP4 SLOAD DIV MUL DUP4 MSTORE SWAP2 PUSH1 0x20 ADD SWAP2 PUSH2 0x630 JUMP JUMPDEST DUP3 ADD SWAP2 SWAP1 PUSH1 0x0 MSTORE PUSH1 0x20 PUSH1 0x0 KECCAK256 SWAP1 JUMPDEST DUP2 SLOAD DUP2 MSTORE SWAP1 PUSH1 0x1 ADD SWAP1 PUSH1 0x20 ADD DUP1 DUP4 GT PUSH2 0x613 JUMPI DUP3 SWAP1 SUB PUSH1 0x1F AND DUP3 ADD SWAP2 JUMPDEST POP POP POP POP POP DUP2 MSTORE POP POP SWAP2 POP POP PUSH2 0x662 JUMP JUMPDEST DUP1 DUP1 PUSH2 0x64C SWAP1 PUSH2 0xCB8 JUMP JUMPDEST SWAP2 POP POP PUSH2 0x37B JUMP JUMPDEST POP PUSH2 0x65D PUSH2 0x667 JUMP JUMPDEST DUP1 SWAP2 POP POP JUMPDEST SWAP2 SWAP1 POP JUMP JUMPDEST PUSH1 0x40 MLOAD DUP1 PUSH1 0x80 ADD PUSH1 0x40 MSTORE DUP1 PUSH1 0x0 PUSH20 0xFFFFFFFFFFFFFFFFFFFFFFFFFFFFFFFFFFFFFFFF AND DUP2 MSTORE PUSH1 0x20 ADD PUSH1 0x60 DUP2 MSTORE PUSH1 0x20 ADD PUSH1 0x60 DUP2 MSTORE PUSH1 0x20 ADD PUSH1 0x60 DUP2 MSTORE POP SWAP1 JUMP JUMPDEST PUSH1 0x0 PUSH1 0x40 MLOAD SWAP1 POP SWAP1 JUMP JUMPDEST PUSH1 0x0 DUP1 REVERT JUMPDEST PUSH1 0x0 DUP1 REVERT JUMPDEST PUSH1 0x0 DUP1 REVERT JUMPDEST PUSH1 0x0 PUSH1 0x1F NOT PUSH1 0x1F DUP4 ADD AND SWAP1 POP SWAP2 SWAP1 POP JUMP JUMPDEST PUSH32 0x4E487B7100000000000000000000000000000000000000000000000000000000 PUSH1 0x0 MSTORE PUSH1 0x41 PUSH1 0x4 MSTORE PUSH1 0x24 PUSH1 0x0 REVERT JUMPDEST PUSH2 0x707 DUP3 PUSH2 0x6BE JUMP JUMPDEST DUP2 ADD DUP2 DUP2 LT PUSH8 0xFFFFFFFFFFFFFFFF DUP3 GT OR ISZERO PUSH2 0x726 JUMPI PUSH2 0x725 PUSH2 0x6CF JUMP JUMPDEST JUMPDEST DUP1 PUSH1 0x40 MSTORE POP POP POP JUMP JUMPDEST PUSH1 0x0 PUSH2 0x739 PUSH2 0x6A5 JUMP JUMPDEST SWAP1 POP PUSH2 0x745 DUP3 DUP3 PUSH2 0x6FE JUMP JUMPDEST SWAP2 SWAP1 POP JUMP JUMPDEST PUSH1 0x0 DUP1 REVERT JUMPDEST PUSH1 0x0 PUSH20 0xFFFFFFFFFFFFFFFFFFFFFFFFFFFFFFFFFFFFFFFF DUP3 AND SWAP1 POP SWAP2 SWAP1 POP JUMP JUMPDEST PUSH1 0x0 PUSH2 0x77A DUP3 PUSH2 0x74F JUMP JUMPDEST SWAP1 POP SWAP2 SWAP1 POP JUMP JUMPDEST PUSH2 0x78A DUP2 PUSH2 0x76F JUMP JUMPDEST DUP2 EQ PUSH2 0x795 JUMPI PUSH1 0x0 DUP1 REVERT JUMPDEST POP JUMP JUMPDEST PUSH1 0x0 DUP2 CALLDATALOAD SWAP1 POP PUSH2 0x7A7 DUP2 PUSH2 0x781 JUMP JUMPDEST SWAP3 SWAP2 POP POP JUMP JUMPDEST PUSH1 0x0 DUP1 REVERT JUMPDEST PUSH1 0x0 DUP1 REVERT JUMPDEST PUSH1 0x0 PUSH8 0xFFFFFFFFFFFFFFFF DUP3 GT ISZERO PUSH2 0x7D2 JUMPI PUSH2 0x7D1 PUSH2 0x6CF JUMP JUMPDEST JUMPDEST PUSH2 0x7DB DUP3 PUSH2 0x6BE JUMP JUMPDEST SWAP1 POP PUSH1 0x20 DUP2 ADD SWAP1 POP SWAP2 SWAP1 POP JUMP JUMPDEST DUP3 DUP2 DUP4 CALLDATACOPY PUSH1 0x0 DUP4 DUP4 ADD MSTORE POP POP POP JUMP JUMPDEST PUSH1 0x0 PUSH2 0x80A PUSH2 0x805 DUP5 PUSH2 0x7B7 JUMP JUMPDEST PUSH2 0x72F JUMP JUMPDEST SWAP1 POP DUP3 DUP2 MSTORE PUSH1 0x20 DUP2 ADD DUP5 DUP5 DUP5 ADD GT ISZERO PUSH2 0x826 JUMPI PUSH2 0x825 PUSH2 0x7B2 JUMP JUMPDEST JUMPDEST PUSH2 0x831 DUP5 DUP3 DUP6 PUSH2 0x7E8 JUMP JUMPDEST POP SWAP4 SWAP3 POP POP POP JUMP JUMPDEST PUSH1 0x0 DUP3 PUSH1 0x1F DUP4 ADD SLT PUSH2 0x84E JUMPI PUSH2 0x84D PUSH2 0x7AD JUMP JUMPDEST JUMPDEST DUP2 CALLDATALOAD PUSH2 0x85E DUP5 DUP3 PUSH1 0x20 DUP7 ADD PUSH2 0x7F7 JUMP JUMPDEST SWAP2 POP POP SWAP3 SWAP2 POP POP JUMP JUMPDEST PUSH1 0x0 PUSH1 0x80 DUP3 DUP5 SUB SLT ISZERO PUSH2 0x87D JUMPI PUSH2 0x87C PUSH2 0x6B9 JUMP JUMPDEST JUMPDEST PUSH2 0x887 PUSH1 0x80 PUSH2 0x72F JUMP JUMPDEST SWAP1 POP PUSH1 0x0 PUSH2 0x897 DUP5 DUP3 DUP6 ADD PUSH2 0x798 JUMP JUMPDEST PUSH1 0x0 DUP4 ADD MSTORE POP PUSH1 0x20 DUP3 ADD CALLDATALOAD PUSH8 0xFFFFFFFFFFFFFFFF DUP2 GT ISZERO PUSH2 0x8BB JUMPI PUSH2 0x8BA PUSH2 0x74A JUMP JUMPDEST JUMPDEST PUSH2 0x8C7 DUP5 DUP3 DUP6 ADD PUSH2 0x839 JUMP JUMPDEST PUSH1 0x20 DUP4 ADD MSTORE POP PUSH1 0x40 DUP3 ADD CALLDATALOAD PUSH8 0xFFFFFFFFFFFFFFFF DUP2 GT ISZERO PUSH2 0x8EB JUMPI PUSH2 0x8EA PUSH2 0x74A JUMP JUMPDEST JUMPDEST PUSH2 0x8F7 DUP5 DUP3 DUP6 ADD PUSH2 0x839 JUMP JUMPDEST PUSH1 0x40 DUP4 ADD MSTORE POP PUSH1 0x60 DUP3 ADD CALLDATALOAD PUSH8 0xFFFFFFFFFFFFFFFF DUP2 GT ISZERO PUSH2 0x91B JUMPI PUSH2 0x91A PUSH2 0x74A JUMP JUMPDEST JUMPDEST PUSH2 0x927 DUP5 DUP3 DUP6 ADD PUSH2 0x839 JUMP JUMPDEST PUSH1 0x60 DUP4 ADD MSTORE POP SWAP3 SWAP2 POP POP JUMP JUMPDEST PUSH1 0x0 PUSH1 0x20 DUP3 DUP5 SUB SLT ISZERO PUSH2 0x949 JUMPI PUSH2 0x948 PUSH2 0x6AF JUMP JUMPDEST JUMPDEST PUSH1 0x0 DUP3 ADD CALLDATALOAD PUSH8 0xFFFFFFFFFFFFFFFF DUP2 GT ISZERO PUSH2 0x967 JUMPI PUSH2 0x966 PUSH2 0x6B4 JUMP JUMPDEST JUMPDEST PUSH2 0x973 DUP5 DUP3 DUP6 ADD PUSH2 0x867 JUMP JUMPDEST SWAP2 POP POP SWAP3 SWAP2 POP POP JUMP JUMPDEST PUSH1 0x0 DUP2 MLOAD SWAP1 POP SWAP2 SWAP1 POP JUMP JUMPDEST PUSH1 0x0 DUP3 DUP3 MSTORE PUSH1 0x20 DUP3 ADD SWAP1 POP SWAP3 SWAP2 POP POP JUMP JUMPDEST PUSH1 0x0 JUMPDEST DUP4 DUP2 LT ISZERO PUSH2 0x9B6 JUMPI DUP1 DUP3 ADD MLOAD DUP2 DUP5 ADD MSTORE PUSH1 0x20 DUP2 ADD SWAP1 POP PUSH2 0x99B JUMP JUMPDEST PUSH1 0x0 DUP5 DUP5 ADD MSTORE POP POP POP POP JUMP JUMPDEST PUSH1 0x0 PUSH2 0x9CD DUP3 PUSH2 0x97C JUMP JUMPDEST PUSH2 0x9D7 DUP2 DUP6 PUSH2 0x987 JUMP JUMPDEST SWAP4 POP PUSH2 0x9E7 DUP2 DUP6 PUSH1 0x20 DUP7 ADD PUSH2 0x998 JUMP JUMPDEST PUSH2 0x9F0 DUP2 PUSH2 0x6BE JUMP JUMPDEST DUP5 ADD SWAP2 POP POP SWAP3 SWAP2 POP POP JUMP JUMPDEST PUSH1 0x0 PUSH1 0x20 DUP3 ADD SWAP1 POP DUP2 DUP2 SUB PUSH1 0x0 DUP4 ADD MSTORE PUSH2 0xA15 DUP2 DUP5 PUSH2 0x9C2 JUMP JUMPDEST SWAP1 POP SWAP3 SWAP2 POP POP JUMP JUMPDEST PUSH1 0x0 PUSH1 0x20 DUP3 DUP5 SUB SLT ISZERO PUSH2 0xA33 JUMPI PUSH2 0xA32 PUSH2 0x6AF JUMP JUMPDEST JUMPDEST PUSH1 0x0 PUSH2 0xA41 DUP5 DUP3 DUP6 ADD PUSH2 0x798 JUMP JUMPDEST SWAP2 POP POP SWAP3 SWAP2 POP POP JUMP JUMPDEST PUSH2 0xA53 DUP2 PUSH2 0x76F JUMP JUMPDEST DUP3 MSTORE POP POP JUMP JUMPDEST PUSH1 0x0 DUP3 DUP3 MSTORE PUSH1 0x20 DUP3 ADD SWAP1 POP SWAP3 SWAP2 POP POP JUMP JUMPDEST PUSH1 0x0 PUSH2 0xA75 DUP3 PUSH2 0x97C JUMP JUMPDEST PUSH2 0xA7F DUP2 DUP6 PUSH2 0xA59 JUMP JUMPDEST SWAP4 POP PUSH2 0xA8F DUP2 DUP6 PUSH1 0x20 DUP7 ADD PUSH2 0x998 JUMP JUMPDEST PUSH2 0xA98 DUP2 PUSH2 0x6BE JUMP JUMPDEST DUP5 ADD SWAP2 POP POP SWAP3 SWAP2 POP POP JUMP JUMPDEST PUSH1 0x0 PUSH1 0x80 DUP4 ADD PUSH1 0x0 DUP4 ADD MLOAD PUSH2 0xABB PUSH1 0x0 DUP7 ADD DUP3 PUSH2 0xA4A JUMP JUMPDEST POP PUSH1 0x20 DUP4 ADD MLOAD DUP5 DUP3 SUB PUSH1 0x20 DUP7 ADD MSTORE PUSH2 0xAD3 DUP3 DUP3 PUSH2 0xA6A JUMP JUMPDEST SWAP2 POP POP PUSH1 0x40 DUP4 ADD MLOAD DUP5 DUP3 SUB PUSH1 0x40 DUP7 ADD MSTORE PUSH2 0xAED DUP3 DUP3 PUSH2 0xA6A JUMP JUMPDEST SWAP2 POP POP PUSH1 0x60 DUP4 ADD MLOAD DUP5 DUP3 SUB PUSH1 0x60 DUP7 ADD MSTORE PUSH2 0xB07 DUP3 DUP3 PUSH2 0xA6A JUMP JUMPDEST SWAP2 POP POP DUP1 SWAP2 POP POP SWAP3 SWAP2 POP POP JUMP JUMPDEST PUSH1 0x0 PUSH1 0x20 DUP3 ADD SWAP1 POP DUP2 DUP2 SUB PUSH1 0x0 DUP4 ADD MSTORE PUSH2 0xB2E DUP2 DUP5 PUSH2 0xAA3 JUMP JUMPDEST SWAP1 POP SWAP3 SWAP2 POP POP JUMP JUMPDEST PUSH32 0x4E487B7100000000000000000000000000000000000000000000000000000000 PUSH1 0x0 MSTORE PUSH1 0x32 PUSH1 0x4 MSTORE PUSH1 0x24 PUSH1 0x0 REVERT JUMPDEST PUSH32 0x4E487B7100000000000000000000000000000000000000000000000000000000 PUSH1 0x0 MSTORE PUSH1 0x22 PUSH1 0x4 MSTORE PUSH1 0x24 PUSH1 0x0 REVERT JUMPDEST PUSH1 0x0 PUSH1 0x2 DUP3 DIV SWAP1 POP PUSH1 0x1 DUP3 AND DUP1 PUSH2 0xBAC JUMPI PUSH1 0x7F DUP3 AND SWAP2 POP JUMPDEST PUSH1 0x20 DUP3 LT DUP2 SUB PUSH2 0xBBF JUMPI PUSH2 0xBBE PUSH2 0xB65 JUMP JUMPDEST JUMPDEST POP SWAP2 SWAP1 POP JUMP JUMPDEST PUSH1 0x0 DUP2 SWAP1 POP SWAP3 SWAP2 POP POP JUMP JUMPDEST PUSH1 0x0 DUP2 SWAP1 POP DUP2 PUSH1 0x0 MSTORE PUSH1 0x20 PUSH1 0x0 KECCAK256 SWAP1 POP SWAP2 SWAP1 POP JUMP JUMPDEST PUSH1 0x0 DUP2 SLOAD PUSH2 0xBF2 DUP2 PUSH2 0xB94 JUMP JUMPDEST PUSH2 0xBFC DUP2 DUP7 PUSH2 0xBC5 JUMP JUMPDEST SWAP5 POP PUSH1 0x1 DUP3 AND PUSH1 0x0 DUP2 EQ PUSH2 0xC17 JUMPI PUSH1 0x1 DUP2 EQ PUSH2 0xC2C JUMPI PUSH2 0xC5F JUMP JUMPDEST PUSH1 0xFF NOT DUP4 AND DUP7 MSTORE DUP2 ISZERO ISZERO DUP3 MUL DUP7 ADD SWAP4 POP PUSH2 0xC5F JUMP JUMPDEST PUSH2 0xC35 DUP6 PUSH2 0xBD0 JUMP JUMPDEST PUSH1 0x0 JUMPDEST DUP4 DUP2 LT ISZERO PUSH2 0xC57 JUMPI DUP2 SLOAD DUP2 DUP10 ADD MSTORE PUSH1 0x1 DUP3 ADD SWAP2 POP PUSH1 0x20 DUP2 ADD SWAP1 POP PUSH2 0xC38 JUMP JUMPDEST DUP4 DUP9 ADD SWAP6 POP POP POP JUMPDEST POP POP POP SWAP3 SWAP2 POP POP JUMP JUMPDEST PUSH1 0x0 PUSH2 0xC74 DUP3 DUP5 PUSH2 0xBE5 JUMP JUMPDEST SWAP2 POP DUP2 SWAP1 POP SWAP3 SWAP2 POP POP JUMP JUMPDEST PUSH32 0x4E487B7100000000000000000000000000000000000000000000000000000000 PUSH1 0x0 MSTORE PUSH1 0x11 PUSH1 0x4 MSTORE PUSH1 0x24 PUSH1 0x0 REVERT JUMPDEST PUSH1 0x0 DUP2 SWAP1 POP SWAP2 SWAP1 POP JUMP JUMPDEST PUSH1 0x0 PUSH2 0xCC3 DUP3 PUSH2 0xCAE JUMP JUMPDEST SWAP2 POP PUSH32 0xFFFFFFFFFFFFFFFFFFFFFFFFFFFFFFFFFFFFFFFFFFFFFFFFFFFFFFFFFFFFFFFF DUP3 SUB PUSH2 0xCF5 JUMPI PUSH2 0xCF4 PUSH2 0xC7F JUMP JUMPDEST JUMPDEST PUSH1 0x1 DUP3 ADD SWAP1 POP SWAP2 SWAP1 POP JUMP JUMPDEST PUSH1 0x0 DUP2 SWAP1 POP DUP2 PUSH1 0x0 MSTORE PUSH1 0x20 PUSH1 0x0 KECCAK256 SWAP1 POP SWAP2 SWAP1 POP JUMP JUMPDEST PUSH1 0x0 PUSH1 0x20 PUSH1 0x1F DUP4 ADD DIV SWAP1 POP SWAP2 SWAP1 POP JUMP JUMPDEST PUSH1 0x0 DUP3 DUP3 SHL SWAP1 POP SWAP3 SWAP2 POP POP JUMP JUMPDEST PUSH1 0x0 PUSH1 0x8 DUP4 MUL PUSH2 0xD62 PUSH32 0xFFFFFFFFFFFFFFFFFFFFFFFFFFFFFFFFFFFFFFFFFFFFFFFFFFFFFFFFFFFFFFFF DUP3 PUSH2 0xD25 JUMP JUMPDEST PUSH2 0xD6C DUP7 DUP4 PUSH2 0xD25 JUMP JUMPDEST SWAP6 POP DUP1 NOT DUP5 AND SWAP4 POP DUP1 DUP7 AND DUP5 OR SWAP3 POP POP POP SWAP4 SWAP3 POP POP POP JUMP JUMPDEST PUSH1 0x0 DUP2 SWAP1 POP SWAP2 SWAP1 POP JUMP JUMPDEST PUSH1 0x0 PUSH2 0xDA9 PUSH2 0xDA4 PUSH2 0xD9F DUP5 PUSH2 0xCAE JUMP JUMPDEST PUSH2 0xD84 JUMP JUMPDEST PUSH2 0xCAE JUMP JUMPDEST SWAP1 POP SWAP2 SWAP1 POP JUMP JUMPDEST PUSH1 0x0 DUP2 SWAP1 POP SWAP2 SWAP1 POP JUMP JUMPDEST PUSH2 0xDC3 DUP4 PUSH2 0xD8E JUMP JUMPDEST PUSH2 0xDD7 PUSH2 0xDCF DUP3 PUSH2 0xDB0 JUMP JUMPDEST DUP5 DUP5 SLOAD PUSH2 0xD32 JUMP JUMPDEST DUP3 SSTORE POP POP POP POP JUMP JUMPDEST PUSH1 0x0 SWAP1 JUMP JUMPDEST PUSH2 0xDEC PUSH2 0xDDF JUMP JUMPDEST PUSH2 0xDF7 DUP2 DUP5 DUP5 PUSH2 0xDBA JUMP JUMPDEST POP POP POP JUMP JUMPDEST JUMPDEST DUP2 DUP2 LT ISZERO PUSH2 0xE1B JUMPI PUSH2 0xE10 PUSH1 0x0 DUP3 PUSH2 0xDE4 JUMP JUMPDEST PUSH1 0x1 DUP2 ADD SWAP1 POP PUSH2 0xDFD JUMP JUMPDEST POP POP JUMP JUMPDEST PUSH1 0x1F DUP3 GT ISZERO PUSH2 0xE60 JUMPI PUSH2 0xE31 DUP2 PUSH2 0xD00 JUMP JUMPDEST PUSH2 0xE3A DUP5 PUSH2 0xD15 JUMP JUMPDEST DUP2 ADD PUSH1 0x20 DUP6 LT ISZERO PUSH2 0xE49 JUMPI DUP2 SWAP1 POP JUMPDEST PUSH2 0xE5D PUSH2 0xE55 DUP6 PUSH2 0xD15 JUMP JUMPDEST DUP4 ADD DUP3 PUSH2 0xDFC JUMP JUMPDEST POP POP JUMPDEST POP POP POP JUMP JUMPDEST PUSH1 0x0 DUP3 DUP3 SHR SWAP1 POP SWAP3 SWAP2 POP POP JUMP JUMPDEST PUSH1 0x0 PUSH2 0xE83 PUSH1 0x0 NOT DUP5 PUSH1 0x8 MUL PUSH2 0xE65 JUMP JUMPDEST NOT DUP1 DUP4 AND SWAP2 POP POP SWAP3 SWAP2 POP POP JUMP JUMPDEST PUSH1 0x0 PUSH2 0xE9C DUP4 DUP4 PUSH2 0xE72 JUMP JUMPDEST SWAP2 POP DUP3 PUSH1 0x2 MUL DUP3 OR SWAP1 POP SWAP3 SWAP2 POP POP JUMP JUMPDEST PUSH2 0xEB5 DUP3 PUSH2 0x97C JUMP JUMPDEST PUSH8 0xFFFFFFFFFFFFFFFF DUP2 GT ISZERO PUSH2 0xECE JUMPI PUSH2 0xECD PUSH2 0x6CF JUMP JUMPDEST JUMPDEST PUSH2 0xED8 DUP3 SLOAD PUSH2 0xB94 JUMP JUMPDEST PUSH2 0xEE3 DUP3 DUP3 DUP6 PUSH2 0xE1F JUMP JUMPDEST PUSH1 0x0 PUSH1 0x20 SWAP1 POP PUSH1 0x1F DUP4 GT PUSH1 0x1 DUP2 EQ PUSH2 0xF16 JUMPI PUSH1 0x0 DUP5 ISZERO PUSH2 0xF04 JUMPI DUP3 DUP8 ADD MLOAD SWAP1 POP JUMPDEST PUSH2 0xF0E DUP6 DUP3 PUSH2 0xE90 JUMP JUMPDEST DUP7 SSTORE POP PUSH2 0xF76 JUMP JUMPDEST PUSH1 0x1F NOT DUP5 AND PUSH2 0xF24 DUP7 PUSH2 0xD00 JUMP JUMPDEST PUSH1 0x0 JUMPDEST DUP3 DUP2 LT ISZERO PUSH2 0xF4C JUMPI DUP5 DUP10 ADD MLOAD DUP3 SSTORE PUSH1 0x1 DUP3 ADD SWAP2 POP PUSH1 0x20 DUP6 ADD SWAP5 POP PUSH1 0x20 DUP2 ADD SWAP1 POP PUSH2 0xF27 JUMP JUMPDEST DUP7 DUP4 LT ISZERO PUSH2 0xF69 JUMPI DUP5 DUP10 ADD MLOAD PUSH2 0xF65 PUSH1 0x1F DUP10 AND DUP3 PUSH2 0xE72 JUMP JUMPDEST DUP4 SSTORE POP JUMPDEST PUSH1 0x1 PUSH1 0x2 DUP9 MUL ADD DUP9 SSTORE POP POP POP JUMPDEST POP POP POP POP POP POP JUMP JUMPDEST PUSH1 0x0 DUP2 ISZERO ISZERO SWAP1 POP SWAP2 SWAP1 POP JUMP JUMPDEST PUSH2 0xF93 DUP2 PUSH2 0xF7E JUMP JUMPDEST DUP3 MSTORE POP POP JUMP JUMPDEST PUSH32 0x557365722072656769737465726564207375636365737366756C6C7900000000 PUSH1 0x0 DUP3 ADD MSTORE POP JUMP JUMPDEST PUSH1 0x0 PUSH2 0xFCF PUSH1 0x1C DUP4 PUSH2 0x987 JUMP JUMPDEST SWAP2 POP PUSH2 0xFDA DUP3 PUSH2 0xF99 JUMP JUMPDEST PUSH1 0x20 DUP3 ADD SWAP1 POP SWAP2 SWAP1 POP JUMP JUMPDEST PUSH1 0x0 PUSH1 0x40 DUP3 ADD SWAP1 POP PUSH2 0xFFA PUSH1 0x0 DUP4 ADD DUP5 PUSH2 0xF8A JUMP JUMPDEST DUP2 DUP2 SUB PUSH1 0x20 DUP4 ADD MSTORE PUSH2 0x100B DUP2 PUSH2 0xFC2 JUMP JUMPDEST SWAP1 POP SWAP3 SWAP2 POP POP JUMP JUMPDEST PUSH1 0x0 PUSH1 0x40 DUP3 ADD SWAP1 POP PUSH2 0x1028 PUSH1 0x0 DUP4 ADD DUP6 PUSH2 0xF8A JUMP JUMPDEST DUP2 DUP2 SUB PUSH1 0x20 DUP4 ADD MSTORE PUSH2 0x103A DUP2 DUP5 PUSH2 0x9C2 JUMP JUMPDEST SWAP1 POP SWAP4 SWAP3 POP POP POP JUMP INVALID SSTORE PUSH20 0x657220616C72656164792065786973747320666F PUSH19 0x207468697320616464726573732EA264697066 PUSH20 0x582212203D95B4734A898BEF9C65FF4660ECE1B6 0xBB 0xD0 MOD LOG2 0x4E 0xE1 0xB2 0x21 CREATE2 MSTORE 0xD 0x28 0x2F SHR 0xC4 SWAP6 PUSH5 0x736F6C6343 STOP ADDMOD SGT STOP CALLER "},"methodIdentifiers":{"checkRegistration((address,string,string,string))":"610273da","getUser(address)":"6f77926b","register((address,string,string,string))":"62629bef"}}}}}