{"contracts/AccessControl.sol":{"AccessControl":{"abi":[{"inputs":[{"internalType":"address","name":"fileRegisterContract","type":"address"}],"stateMutability":"nonpayable","type":"constructor"},{"inputs":[{"internalType":"address","name":"userAccount","type":"address"},{"components":[{"internalType":"string","name":"ipfsCID","type":"string"},{"internalType":"string","name":"fileName","type":"string"},{"internalType":"address","name":"owner","type":"address"},{"internalType":"string","name":"fileType","type":"string"},{"internalType":"string","name":"iv","type":"string"}],"internalType":"struct FileRegister.File","name":"file","type":"tuple"},{"internalType":"string","name":"encSymmetricKey","type":"string"},{"internalType":"string[]","name":"permissions","type":"string[]"}],"name":"addUserHasFile","outputs":[],"stateMutability":"nonpayable","type":"function"},{"inputs":[{"components":[{"internalType":"address","name":"account","type":"address"},{"internalType":"string","name":"userName","type":"string"},{"internalType":"string","name":"publicKey","type":"string"},{"internalType":"string","name":"privateKey","type":"string"}],"internalType":"struct UserRegister.User","name":"user","type":"tuple"},{"components":[{"internalType":"string","name":"ipfsCID","type":"string"},{"internalType":"string","name":"fileName","type":"string"},{"internalType":"address","name":"owner","type":"address"},{"internalType":"string","name":"fileType","type":"string"},{"internalType":"string","name":"iv","type":"string"}],"internalType":"struct FileRegister.File","name":"file","type":"tuple"}],"name":"getEncSymmetricKeyFileUser","outputs":[{"components":[{"internalType":"bool","name":"success","type":"bool"},{"internalType":"string","name":"encSymmetricKey","type":"string"}],"internalType":"struct AccessControl.ResultActionString","name":"","type":"tuple"}],"stateMutability":"view","type":"function"},{"inputs":[{"internalType":"address","name":"userAccount","type":"address"},{"components":[{"internalType":"string","name":"ipfsCID","type":"string"},{"internalType":"string","name":"fileName","type":"string"},{"internalType":"address","name":"owner","type":"address"},{"internalType":"string","name":"fileType","type":"string"},{"internalType":"string","name":"iv","type":"string"}],"internalType":"struct FileRegister.File","name":"file","type":"tuple"}],"name":"getPermissionsOverFile","outputs":[{"components":[{"internalType":"bool","name":"success","type":"bool"},{"internalType":"string[]","name":"permissions","type":"string[]"}],"internalType":"struct AccessControl.ResultActionStringArray","name":"","type":"tuple"}],"stateMutability":"view","type":"function"},{"inputs":[{"internalType":"address","name":"account","type":"address"}],"name":"getUserFiles","outputs":[{"components":[{"internalType":"bool","name":"success","type":"bool"},{"components":[{"internalType":"string","name":"ipfsCID","type":"string"},{"internalType":"string","name":"fileName","type":"string"},{"internalType":"address","name":"owner","type":"address"},{"internalType":"string","name":"fileType","type":"string"},{"internalType":"string","name":"iv","type":"string"}],"internalType":"struct FileRegister.File[]","name":"files","type":"tuple[]"}],"internalType":"struct AccessControl.ResultAction","name":"","type":"tuple"}],"stateMutability":"view","type":"function"},{"inputs":[{"internalType":"address","name":"accountInput","type":"address"},{"internalType":"address","name":"accountList","type":"address"},{"internalType":"string","name":"ipfsCIDInput","type":"string"},{"internalType":"string","name":"ipfsCIDList","type":"string"}],"name":"isKeyEqual","outputs":[{"internalType":"bool","name":"","type":"bool"}],"stateMutability":"pure","type":"function"},{"inputs":[{"internalType":"address","name":"userAccount","type":"address"},{"components":[{"internalType":"string","name":"ipfsCID","type":"string"},{"internalType":"string","name":"fileName","type":"string"},{"internalType":"address","name":"owner","type":"address"},{"internalType":"string","name":"fileType","type":"string"},{"internalType":"string","name":"iv","type":"string"}],"internalType":"struct FileRegister.File","name":"file","type":"tuple"},{"internalType":"string[]","name":"permissions","type":"string[]"}],"name":"updateUserFilePermissions","outputs":[],"stateMutability":"nonpayable","type":"function"},{"inputs":[{"internalType":"address","name":"userAccount","type":"address"},{"components":[{"internalType":"string","name":"ipfsCID","type":"string"},{"internalType":"string","name":"fileName","type":"string"},{"internalType":"address","name":"owner","type":"address"},{"internalType":"string","name":"fileType","type":"string"},{"internalType":"string","name":"iv","type":"string"}],"internalType":"struct FileRegister.File","name":"file","type":"tuple"}],"name":"userAssociatedWithFile","outputs":[{"internalType":"bool","name":"","type":"bool"}],"stateMutability":"view","type":"function"}],"evm":{"bytecode":{"linkReferences":{},"object":"60806040523480156200001157600080fd5b5060405162002297380380620022978339818101604052810190620000379190620000e9565b80600160006101000a81548173ffffffffffffffffffffffffffffffffffffffff021916908373ffffffffffffffffffffffffffffffffffffffff160217905550506200011b565b600080fd5b600073ffffffffffffffffffffffffffffffffffffffff82169050919050565b6000620000b18262000084565b9050919050565b620000c381620000a4565b8114620000cf57600080fd5b50565b600081519050620000e381620000b8565b92915050565b6000602082840312156200010257620001016200007f565b5b60006200011284828501620000d2565b91505092915050565b61216c806200012b6000396000f3fe608060405234801561001057600080fd5b506004361061007d5760003560e01c80635d02eece1161005b5780635d02eece146101125780637b371f7514610142578063b509210c14610172578063e886e6e31461018e5761007d565b80631c0c2891146100825780631fc37922146100b25780635c99c71b146100e2575b600080fd5b61009c600480360381019061009791906111f0565b6101aa565b6040516100a991906113e5565b60405180910390f35b6100cc60048036038101906100c79190611407565b610460565b6040516100d991906115cd565b60405180910390f35b6100fc60048036038101906100f791906115ef565b61073f565b604051610109919061169d565b60405180910390f35b61012c60048036038101906101279190611784565b6107d1565b6040516101399190611839565b60405180910390f35b61015c600480360381019061015791906111f0565b610a05565b604051610169919061169d565b60405180910390f35b61018c60048036038101906101879190611941565b610b4a565b005b6101a860048036038101906101a391906119cc565b610cbb565b005b6101b2610dbf565b60005b6000805490508110156103f0576102c484600083815481106101da576101d9611a87565b5b906000526020600020906004020160000160009054906101000a900473ffffffffffffffffffffffffffffffffffffffff1685600001516000858154811061022557610224611a87565b5b9060005260206000209060040201600101805461024190611ae5565b80601f016020809104026020016040519081016040528092919081815260200182805461026d90611ae5565b80156102ba5780601f1061028f576101008083540402835291602001916102ba565b820191906000526020600020905b81548152906001019060200180831161029d57829003601f168201915b505050505061073f565b156103dd576040518060400160405280600115158152602001600083815481106102f1576102f0611a87565b5b9060005260206000209060040201600301805480602002602001604051908101604052809291908181526020016000905b828210156103ce57838290600052602060002001805461034190611ae5565b80601f016020809104026020016040519081016040528092919081815260200182805461036d90611ae5565b80156103ba5780601f1061038f576101008083540402835291602001916103ba565b820191906000526020600020905b81548152906001019060200180831161039d57829003601f168201915b505050505081526020019060010190610322565b5050505081525091505061045a565b80806103e890611b4f565b9150506101b5565b506040518060400160405280600015158152602001600067ffffffffffffffff8111156104205761041f610fba565b5b60405190808252806020026020018201604052801561045357816020015b606081526020019060019003908161043e5790505b5081525090505b92915050565b610468610ddb565b6000808054905067ffffffffffffffff81111561048857610487610fba565b5b6040519080825280602002602001820160405280156104c157816020015b6104ae610df7565b8152602001906001900390816104a65790505b5090506000805b6000805490508110156106f0578473ffffffffffffffffffffffffffffffffffffffff1660008281548110610500576104ff611a87565b5b906000526020600020906004020160000160009054906101000a900473ffffffffffffffffffffffffffffffffffffffff1673ffffffffffffffffffffffffffffffffffffffff16036106dd57600080828154811061056257610561611a87565b5b9060005260206000209060040201600101805461057e90611ae5565b80601f01602080910402602001604051908101604052809291908181526020018280546105aa90611ae5565b80156105f75780601f106105cc576101008083540402835291602001916105f7565b820191906000526020600020905b8154815290600101906020018083116105da57829003601f168201915b505050505090506000600160009054906101000a900473ffffffffffffffffffffffffffffffffffffffff1673ffffffffffffffffffffffffffffffffffffffff16639f5937f8836040518263ffffffff1660e01b815260040161065b9190611be1565b600060405180830381865afa158015610678573d6000803e3d6000fd5b505050506040513d6000823e3d601f19601f820116820180604052508101906106a19190611e1c565b9050600081602001519050808686815181106106c0576106bf611a87565b5b602002602001018190525084806106d690611b4f565b9550505050505b80806106e890611b4f565b9150506104c8565b508082526000811461071d576040518060400160405280600115158152602001838152509250505061073a565b604051806040016040528060001515815260200183815250925050505b919050565b60008473ffffffffffffffffffffffffffffffffffffffff168473ffffffffffffffffffffffffffffffffffffffff161480156107c75750826040516020016107889190611ea1565b60405160208183030381529060405280519060200120826040516020016107af9190611ea1565b60405160208183030381529060405280519060200120145b9050949350505050565b6107d9610e3c565b60005b6000805490508110156109d4576108ef84600001516000838154811061080557610804611a87565b5b906000526020600020906004020160000160009054906101000a900473ffffffffffffffffffffffffffffffffffffffff168560000151600085815481106108505761084f611a87565b5b9060005260206000209060040201600101805461086c90611ae5565b80601f016020809104026020016040519081016040528092919081815260200182805461089890611ae5565b80156108e55780601f106108ba576101008083540402835291602001916108e5565b820191906000526020600020905b8154815290600101906020018083116108c857829003601f168201915b505050505061073f565b156109c15760405180604001604052806001151581526020016000838154811061091c5761091b611a87565b5b9060005260206000209060040201600201805461093890611ae5565b80601f016020809104026020016040519081016040528092919081815260200182805461096490611ae5565b80156109b15780601f10610986576101008083540402835291602001916109b1565b820191906000526020600020905b81548152906001019060200180831161099457829003601f168201915b50505050508152509150506109ff565b80806109cc90611b4f565b9150506107dc565b5060405180604001604052806000151581526020016040518060200160405280600081525081525090505b92915050565b600080600090505b600080549050811015610b3e57610b1c8460008381548110610a3257610a31611a87565b5b906000526020600020906004020160000160009054906101000a900473ffffffffffffffffffffffffffffffffffffffff16856000015160008581548110610a7d57610a7c611a87565b5b90600052602060002090600402016001018054610a9990611ae5565b80601f0160208091040260200160405190810160405280929190818152602001828054610ac590611ae5565b8015610b125780601f10610ae757610100808354040283529160200191610b12565b820191906000526020600020905b815481529060010190602001808311610af557829003601f168201915b505050505061073f565b15610b2b576001915050610b44565b8080610b3690611b4f565b915050610a0d565b50600090505b92915050565b60005b600080549050811015610cb457610c5c8460008381548110610b7257610b71611a87565b5b906000526020600020906004020160000160009054906101000a900473ffffffffffffffffffffffffffffffffffffffff16856000015160008581548110610bbd57610bbc611a87565b5b90600052602060002090600402016001018054610bd990611ae5565b80601f0160208091040260200160405190810160405280929190818152602001828054610c0590611ae5565b8015610c525780601f10610c2757610100808354040283529160200191610c52565b820191906000526020600020905b815481529060010190602001808311610c3557829003601f168201915b505050505061073f565b15610ca1578160008281548110610c7657610c75611a87565b5b90600052602060002090600402016003019080519060200190610c9a929190610e58565b5050610cb6565b8080610cac90611b4f565b915050610b4d565b505b505050565b600060405180608001604052808673ffffffffffffffffffffffffffffffffffffffff16815260200185600001518152602001848152602001838152509050600081908060018154018082558091505060019003906000526020600020906004020160009091909190915060008201518160000160006101000a81548173ffffffffffffffffffffffffffffffffffffffff021916908373ffffffffffffffffffffffffffffffffffffffff1602179055506020820151816001019081610d829190612064565b506040820151816002019081610d989190612064565b506060820151816003019080519060200190610db5929190610e58565b5050505050505050565b6040518060400160405280600015158152602001606081525090565b6040518060400160405280600015158152602001606081525090565b6040518060a001604052806060815260200160608152602001600073ffffffffffffffffffffffffffffffffffffffff16815260200160608152602001606081525090565b6040518060400160405280600015158152602001606081525090565b828054828255906000526020600020908101928215610ea0579160200282015b82811115610e9f578251829081610e8f9190612064565b5091602001919060010190610e78565b5b509050610ead9190610eb1565b5090565b5b80821115610ed15760008181610ec89190610ed5565b50600101610eb2565b5090565b508054610ee190611ae5565b6000825580601f10610ef35750610f12565b601f016020900490600052602060002090810190610f119190610f15565b5b50565b5b80821115610f2e576000816000905550600101610f16565b5090565b6000604051905090565b600080fd5b600080fd5b600073ffffffffffffffffffffffffffffffffffffffff82169050919050565b6000610f7182610f46565b9050919050565b610f8181610f66565b8114610f8c57600080fd5b50565b600081359050610f9e81610f78565b92915050565b600080fd5b6000601f19601f8301169050919050565b7f4e487b7100000000000000000000000000000000000000000000000000000000600052604160045260246000fd5b610ff282610fa9565b810181811067ffffffffffffffff8211171561101157611010610fba565b5b80604052505050565b6000611024610f32565b90506110308282610fe9565b919050565b600080fd5b600080fd5b600080fd5b600067ffffffffffffffff82111561105f5761105e610fba565b5b61106882610fa9565b9050602081019050919050565b82818337600083830152505050565b600061109761109284611044565b61101a565b9050828152602081018484840111156110b3576110b261103f565b5b6110be848285611075565b509392505050565b600082601f8301126110db576110da61103a565b5b81356110eb848260208601611084565b91505092915050565b600060a0828403121561110a57611109610fa4565b5b61111460a061101a565b9050600082013567ffffffffffffffff81111561113457611133611035565b5b611140848285016110c6565b600083015250602082013567ffffffffffffffff81111561116457611163611035565b5b611170848285016110c6565b602083015250604061118484828501610f8f565b604083015250606082013567ffffffffffffffff8111156111a8576111a7611035565b5b6111b4848285016110c6565b606083015250608082013567ffffffffffffffff8111156111d8576111d7611035565b5b6111e4848285016110c6565b60808301525092915050565b6000806040838503121561120757611206610f3c565b5b600061121585828601610f8f565b925050602083013567ffffffffffffffff81111561123657611235610f41565b5b611242858286016110f4565b9150509250929050565b60008115159050919050565b6112618161124c565b82525050565b600081519050919050565b600082825260208201905092915050565b6000819050602082019050919050565b600081519050919050565b600082825260208201905092915050565b60005b838110156112cd5780820151818401526020810190506112b2565b60008484015250505050565b60006112e482611293565b6112ee818561129e565b93506112fe8185602086016112af565b61130781610fa9565b840191505092915050565b600061131e83836112d9565b905092915050565b6000602082019050919050565b600061133e82611267565b6113488185611272565b93508360208202850161135a85611283565b8060005b8581101561139657848403895281516113778582611312565b945061138283611326565b925060208a0199505060018101905061135e565b50829750879550505050505092915050565b60006040830160008301516113c06000860182611258565b50602083015184820360208601526113d88282611333565b9150508091505092915050565b600060208201905081810360008301526113ff81846113a8565b905092915050565b60006020828403121561141d5761141c610f3c565b5b600061142b84828501610f8f565b91505092915050565b600081519050919050565b600082825260208201905092915050565b6000819050602082019050919050565b61146981610f66565b82525050565b600060a083016000830151848203600086015261148c82826112d9565b915050602083015184820360208601526114a682826112d9565b91505060408301516114bb6040860182611460565b50606083015184820360608601526114d382826112d9565b915050608083015184820360808601526114ed82826112d9565b9150508091505092915050565b6000611506838361146f565b905092915050565b6000602082019050919050565b600061152682611434565b611530818561143f565b93508360208202850161154285611450565b8060005b8581101561157e578484038952815161155f85826114fa565b945061156a8361150e565b925060208a01995050600181019050611546565b50829750879550505050505092915050565b60006040830160008301516115a86000860182611258565b50602083015184820360208601526115c0828261151b565b9150508091505092915050565b600060208201905081810360008301526115e78184611590565b905092915050565b6000806000806080858703121561160957611608610f3c565b5b600061161787828801610f8f565b945050602061162887828801610f8f565b935050604085013567ffffffffffffffff81111561164957611648610f41565b5b611655878288016110c6565b925050606085013567ffffffffffffffff81111561167657611675610f41565b5b611682878288016110c6565b91505092959194509250565b6116978161124c565b82525050565b60006020820190506116b2600083018461168e565b92915050565b6000608082840312156116ce576116cd610fa4565b5b6116d8608061101a565b905060006116e884828501610f8f565b600083015250602082013567ffffffffffffffff81111561170c5761170b611035565b5b611718848285016110c6565b602083015250604082013567ffffffffffffffff81111561173c5761173b611035565b5b611748848285016110c6565b604083015250606082013567ffffffffffffffff81111561176c5761176b611035565b5b611778848285016110c6565b60608301525092915050565b6000806040838503121561179b5761179a610f3c565b5b600083013567ffffffffffffffff8111156117b9576117b8610f41565b5b6117c5858286016116b8565b925050602083013567ffffffffffffffff8111156117e6576117e5610f41565b5b6117f2858286016110f4565b9150509250929050565b60006040830160008301516118146000860182611258565b506020830151848203602086015261182c82826112d9565b9150508091505092915050565b6000602082019050818103600083015261185381846117fc565b905092915050565b600067ffffffffffffffff82111561187657611875610fba565b5b602082029050602081019050919050565b600080fd5b600061189f61189a8461185b565b61101a565b905080838252602082019050602084028301858111156118c2576118c1611887565b5b835b8181101561190957803567ffffffffffffffff8111156118e7576118e661103a565b5b8086016118f489826110c6565b855260208501945050506020810190506118c4565b5050509392505050565b600082601f8301126119285761192761103a565b5b813561193884826020860161188c565b91505092915050565b60008060006060848603121561195a57611959610f3c565b5b600061196886828701610f8f565b935050602084013567ffffffffffffffff81111561198957611988610f41565b5b611995868287016110f4565b925050604084013567ffffffffffffffff8111156119b6576119b5610f41565b5b6119c286828701611913565b9150509250925092565b600080600080608085870312156119e6576119e5610f3c565b5b60006119f487828801610f8f565b945050602085013567ffffffffffffffff811115611a1557611a14610f41565b5b611a21878288016110f4565b935050604085013567ffffffffffffffff811115611a4257611a41610f41565b5b611a4e878288016110c6565b925050606085013567ffffffffffffffff811115611a6f57611a6e610f41565b5b611a7b87828801611913565b91505092959194509250565b7f4e487b7100000000000000000000000000000000000000000000000000000000600052603260045260246000fd5b7f4e487b7100000000000000000000000000000000000000000000000000000000600052602260045260246000fd5b60006002820490506001821680611afd57607f821691505b602082108103611b1057611b0f611ab6565b5b50919050565b7f4e487b7100000000000000000000000000000000000000000000000000000000600052601160045260246000fd5b6000819050919050565b6000611b5a82611b45565b91507fffffffffffffffffffffffffffffffffffffffffffffffffffffffffffffffff8203611b8c57611b8b611b16565b5b600182019050919050565b600082825260208201905092915050565b6000611bb382611293565b611bbd8185611b97565b9350611bcd8185602086016112af565b611bd681610fa9565b840191505092915050565b60006020820190508181036000830152611bfb8184611ba8565b905092915050565b611c0c8161124c565b8114611c1757600080fd5b50565b600081519050611c2981611c03565b92915050565b6000611c42611c3d84611044565b61101a565b905082815260208101848484011115611c5e57611c5d61103f565b5b611c698482856112af565b509392505050565b600082601f830112611c8657611c8561103a565b5b8151611c96848260208601611c2f565b91505092915050565b600081519050611cae81610f78565b92915050565b600060a08284031215611cca57611cc9610fa4565b5b611cd460a061101a565b9050600082015167ffffffffffffffff811115611cf457611cf3611035565b5b611d0084828501611c71565b600083015250602082015167ffffffffffffffff811115611d2457611d23611035565b5b611d3084828501611c71565b6020830152506040611d4484828501611c9f565b604083015250606082015167ffffffffffffffff811115611d6857611d67611035565b5b611d7484828501611c71565b606083015250608082015167ffffffffffffffff811115611d9857611d97611035565b5b611da484828501611c71565b60808301525092915050565b600060408284031215611dc657611dc5610fa4565b5b611dd0604061101a565b90506000611de084828501611c1a565b600083015250602082015167ffffffffffffffff811115611e0457611e03611035565b5b611e1084828501611cb4565b60208301525092915050565b600060208284031215611e3257611e31610f3c565b5b600082015167ffffffffffffffff811115611e5057611e4f610f41565b5b611e5c84828501611db0565b91505092915050565b600081905092915050565b6000611e7b82611293565b611e858185611e65565b9350611e958185602086016112af565b80840191505092915050565b6000611ead8284611e70565b915081905092915050565b60008190508160005260206000209050919050565b60006020601f8301049050919050565b600082821b905092915050565b600060088302611f1a7fffffffffffffffffffffffffffffffffffffffffffffffffffffffffffffffff82611edd565b611f248683611edd565b95508019841693508086168417925050509392505050565b6000819050919050565b6000611f61611f5c611f5784611b45565b611f3c565b611b45565b9050919050565b6000819050919050565b611f7b83611f46565b611f8f611f8782611f68565b848454611eea565b825550505050565b600090565b611fa4611f97565b611faf818484611f72565b505050565b5b81811015611fd357611fc8600082611f9c565b600181019050611fb5565b5050565b601f82111561201857611fe981611eb8565b611ff284611ecd565b81016020851015612001578190505b61201561200d85611ecd565b830182611fb4565b50505b505050565b600082821c905092915050565b600061203b6000198460080261201d565b1980831691505092915050565b6000612054838361202a565b9150826002028217905092915050565b61206d82611293565b67ffffffffffffffff81111561208657612085610fba565b5b6120908254611ae5565b61209b828285611fd7565b600060209050601f8311600181146120ce57600084156120bc578287015190505b6120c68582612048565b86555061212e565b601f1984166120dc86611eb8565b60005b82811015612104578489015182556001820191506020850194506020810190506120df565b86831015612121578489015161211d601f89168261202a565b8355505b6001600288020188555050505b50505050505056fea2646970667358221220b2b00431e50cf64253f6ca7ba2a7a31d93112e6ee360c4e4b03f6c662afa425e64736f6c63430008130033","opcodes":"PUSH1 0x80 PUSH1 0x40 MSTORE CALLVALUE DUP1 ISZERO PUSH3 0x11 JUMPI PUSH1 0x0 DUP1 REVERT JUMPDEST POP PUSH1 0x40 MLOAD PUSH3 0x2297 CODESIZE SUB DUP1 PUSH3 0x2297 DUP4 CODECOPY DUP2 DUP2 ADD PUSH1 0x40 MSTORE DUP2 ADD SWAP1 PUSH3 0x37 SWAP2 SWAP1 PUSH3 0xE9 JUMP JUMPDEST DUP1 PUSH1 0x1 PUSH1 0x0 PUSH2 0x100 EXP DUP2 SLOAD DUP2 PUSH20 0xFFFFFFFFFFFFFFFFFFFFFFFFFFFFFFFFFFFFFFFF MUL NOT AND SWAP1 DUP4 PUSH20 0xFFFFFFFFFFFFFFFFFFFFFFFFFFFFFFFFFFFFFFFF AND MUL OR SWAP1 SSTORE POP POP PUSH3 0x11B JUMP JUMPDEST PUSH1 0x0 DUP1 REVERT JUMPDEST PUSH1 0x0 PUSH20 0xFFFFFFFFFFFFFFFFFFFFFFFFFFFFFFFFFFFFFFFF DUP3 AND SWAP1 POP SWAP2 SWAP1 POP JUMP JUMPDEST PUSH1 0x0 PUSH3 0xB1 DUP3 PUSH3 0x84 JUMP JUMPDEST SWAP1 POP SWAP2 SWAP1 POP JUMP JUMPDEST PUSH3 0xC3 DUP2 PUSH3 0xA4 JUMP JUMPDEST DUP2 EQ PUSH3 0xCF JUMPI PUSH1 0x0 DUP1 REVERT JUMPDEST POP JUMP JUMPDEST PUSH1 0x0 DUP2 MLOAD SWAP1 POP PUSH3 0xE3 DUP2 PUSH3 0xB8 JUMP JUMPDEST SWAP3 SWAP2 POP POP JUMP JUMPDEST PUSH1 0x0 PUSH1 0x20 DUP3 DUP5 SUB SLT ISZERO PUSH3 0x102 JUMPI PUSH3 0x101 PUSH3 0x7F JUMP JUMPDEST JUMPDEST PUSH1 0x0 PUSH3 0x112 DUP5 DUP3 DUP6 ADD PUSH3 0xD2 JUMP JUMPDEST SWAP2 POP POP SWAP3 SWAP2 POP POP JUMP JUMPDEST PUSH2 0x216C DUP1 PUSH3 0x12B PUSH1 0x0 CODECOPY PUSH1 0x0 RETURN INVALID PUSH1 0x80 PUSH1 0x40 MSTORE CALLVALUE DUP1 ISZERO PUSH2 0x10 JUMPI PUSH1 0x0 DUP1 REVERT JUMPDEST POP PUSH1 0x4 CALLDATASIZE LT PUSH2 0x7D JUMPI PUSH1 0x0 CALLDATALOAD PUSH1 0xE0 SHR DUP1 PUSH4 0x5D02EECE GT PUSH2 0x5B JUMPI DUP1 PUSH4 0x5D02EECE EQ PUSH2 0x112 JUMPI DUP1 PUSH4 0x7B371F75 EQ PUSH2 0x142 JUMPI DUP1 PUSH4 0xB509210C EQ PUSH2 0x172 JUMPI DUP1 PUSH4 0xE886E6E3 EQ PUSH2 0x18E JUMPI PUSH2 0x7D JUMP JUMPDEST DUP1 PUSH4 0x1C0C2891 EQ PUSH2 0x82 JUMPI DUP1 PUSH4 0x1FC37922 EQ PUSH2 0xB2 JUMPI DUP1 PUSH4 0x5C99C71B EQ PUSH2 0xE2 JUMPI JUMPDEST PUSH1 0x0 DUP1 REVERT JUMPDEST PUSH2 0x9C PUSH1 0x4 DUP1 CALLDATASIZE SUB DUP2 ADD SWAP1 PUSH2 0x97 SWAP2 SWAP1 PUSH2 0x11F0 JUMP JUMPDEST PUSH2 0x1AA JUMP JUMPDEST PUSH1 0x40 MLOAD PUSH2 0xA9 SWAP2 SWAP1 PUSH2 0x13E5 JUMP JUMPDEST PUSH1 0x40 MLOAD DUP1 SWAP2 SUB SWAP1 RETURN JUMPDEST PUSH2 0xCC PUSH1 0x4 DUP1 CALLDATASIZE SUB DUP2 ADD SWAP1 PUSH2 0xC7 SWAP2 SWAP1 PUSH2 0x1407 JUMP JUMPDEST PUSH2 0x460 JUMP JUMPDEST PUSH1 0x40 MLOAD PUSH2 0xD9 SWAP2 SWAP1 PUSH2 0x15CD JUMP JUMPDEST PUSH1 0x40 MLOAD DUP1 SWAP2 SUB SWAP1 RETURN JUMPDEST PUSH2 0xFC PUSH1 0x4 DUP1 CALLDATASIZE SUB DUP2 ADD SWAP1 PUSH2 0xF7 SWAP2 SWAP1 PUSH2 0x15EF JUMP JUMPDEST PUSH2 0x73F JUMP JUMPDEST PUSH1 0x40 MLOAD PUSH2 0x109 SWAP2 SWAP1 PUSH2 0x169D JUMP JUMPDEST PUSH1 0x40 MLOAD DUP1 SWAP2 SUB SWAP1 RETURN JUMPDEST PUSH2 0x12C PUSH1 0x4 DUP1 CALLDATASIZE SUB DUP2 ADD SWAP1 PUSH2 0x127 SWAP2 SWAP1 PUSH2 0x1784 JUMP JUMPDEST PUSH2 0x7D1 JUMP JUMPDEST PUSH1 0x40 MLOAD PUSH2 0x139 SWAP2 SWAP1 PUSH2 0x1839 JUMP JUMPDEST PUSH1 0x40 MLOAD DUP1 SWAP2 SUB SWAP1 RETURN JUMPDEST PUSH2 0x15C PUSH1 0x4 DUP1 CALLDATASIZE SUB DUP2 ADD SWAP1 PUSH2 0x157 SWAP2 SWAP1 PUSH2 0x11F0 JUMP JUMPDEST PUSH2 0xA05 JUMP JUMPDEST PUSH1 0x40 MLOAD PUSH2 0x169 SWAP2 SWAP1 PUSH2 0x169D JUMP JUMPDEST PUSH1 0x40 MLOAD DUP1 SWAP2 SUB SWAP1 RETURN JUMPDEST PUSH2 0x18C PUSH1 0x4 DUP1 CALLDATASIZE SUB DUP2 ADD SWAP1 PUSH2 0x187 SWAP2 SWAP1 PUSH2 0x1941 JUMP JUMPDEST PUSH2 0xB4A JUMP JUMPDEST STOP JUMPDEST PUSH2 0x1A8 PUSH1 0x4 DUP1 CALLDATASIZE SUB DUP2 ADD SWAP1 PUSH2 0x1A3 SWAP2 SWAP1 PUSH2 0x19CC JUMP JUMPDEST PUSH2 0xCBB JUMP JUMPDEST STOP JUMPDEST PUSH2 0x1B2 PUSH2 0xDBF JUMP JUMPDEST PUSH1 0x0 JUMPDEST PUSH1 0x0 DUP1 SLOAD SWAP1 POP DUP2 LT ISZERO PUSH2 0x3F0 JUMPI PUSH2 0x2C4 DUP5 PUSH1 0x0 DUP4 DUP2 SLOAD DUP2 LT PUSH2 0x1DA JUMPI PUSH2 0x1D9 PUSH2 0x1A87 JUMP JUMPDEST JUMPDEST SWAP1 PUSH1 0x0 MSTORE PUSH1 0x20 PUSH1 0x0 KECCAK256 SWAP1 PUSH1 0x4 MUL ADD PUSH1 0x0 ADD PUSH1 0x0 SWAP1 SLOAD SWAP1 PUSH2 0x100 EXP SWAP1 DIV PUSH20 0xFFFFFFFFFFFFFFFFFFFFFFFFFFFFFFFFFFFFFFFF AND DUP6 PUSH1 0x0 ADD MLOAD PUSH1 0x0 DUP6 DUP2 SLOAD DUP2 LT PUSH2 0x225 JUMPI PUSH2 0x224 PUSH2 0x1A87 JUMP JUMPDEST JUMPDEST SWAP1 PUSH1 0x0 MSTORE PUSH1 0x20 PUSH1 0x0 KECCAK256 SWAP1 PUSH1 0x4 MUL ADD PUSH1 0x1 ADD DUP1 SLOAD PUSH2 0x241 SWAP1 PUSH2 0x1AE5 JUMP JUMPDEST DUP1 PUSH1 0x1F ADD PUSH1 0x20 DUP1 SWAP2 DIV MUL PUSH1 0x20 ADD PUSH1 0x40 MLOAD SWAP1 DUP2 ADD PUSH1 0x40 MSTORE DUP1 SWAP3 SWAP2 SWAP1 DUP2 DUP2 MSTORE PUSH1 0x20 ADD DUP3 DUP1 SLOAD PUSH2 0x26D SWAP1 PUSH2 0x1AE5 JUMP JUMPDEST DUP1 ISZERO PUSH2 0x2BA JUMPI DUP1 PUSH1 0x1F LT PUSH2 0x28F JUMPI PUSH2 0x100 DUP1 DUP4 SLOAD DIV MUL DUP4 MSTORE SWAP2 PUSH1 0x20 ADD SWAP2 PUSH2 0x2BA JUMP JUMPDEST DUP3 ADD SWAP2 SWAP1 PUSH1 0x0 MSTORE PUSH1 0x20 PUSH1 0x0 KECCAK256 SWAP1 JUMPDEST DUP2 SLOAD DUP2 MSTORE SWAP1 PUSH1 0x1 ADD SWAP1 PUSH1 0x20 ADD DUP1 DUP4 GT PUSH2 0x29D JUMPI DUP3 SWAP1 SUB PUSH1 0x1F AND DUP3 ADD SWAP2 JUMPDEST POP POP POP POP POP PUSH2 0x73F JUMP JUMPDEST ISZERO PUSH2 0x3DD JUMPI PUSH1 0x40 MLOAD DUP1 PUSH1 0x40 ADD PUSH1 0x40 MSTORE DUP1 PUSH1 0x1 ISZERO ISZERO DUP2 MSTORE PUSH1 0x20 ADD PUSH1 0x0 DUP4 DUP2 SLOAD DUP2 LT PUSH2 0x2F1 JUMPI PUSH2 0x2F0 PUSH2 0x1A87 JUMP JUMPDEST JUMPDEST SWAP1 PUSH1 0x0 MSTORE PUSH1 0x20 PUSH1 0x0 KECCAK256 SWAP1 PUSH1 0x4 MUL ADD PUSH1 0x3 ADD DUP1 SLOAD DUP1 PUSH1 0x20 MUL PUSH1 0x20 ADD PUSH1 0x40 MLOAD SWAP1 DUP2 ADD PUSH1 0x40 MSTORE DUP1 SWAP3 SWAP2 SWAP1 DUP2 DUP2 MSTORE PUSH1 0x20 ADD PUSH1 0x0 SWAP1 JUMPDEST DUP3 DUP3 LT ISZERO PUSH2 0x3CE JUMPI DUP4 DUP3 SWAP1 PUSH1 0x0 MSTORE PUSH1 0x20 PUSH1 0x0 KECCAK256 ADD DUP1 SLOAD PUSH2 0x341 SWAP1 PUSH2 0x1AE5 JUMP JUMPDEST DUP1 PUSH1 0x1F ADD PUSH1 0x20 DUP1 SWAP2 DIV MUL PUSH1 0x20 ADD PUSH1 0x40 MLOAD SWAP1 DUP2 ADD PUSH1 0x40 MSTORE DUP1 SWAP3 SWAP2 SWAP1 DUP2 DUP2 MSTORE PUSH1 0x20 ADD DUP3 DUP1 SLOAD PUSH2 0x36D SWAP1 PUSH2 0x1AE5 JUMP JUMPDEST DUP1 ISZERO PUSH2 0x3BA JUMPI DUP1 PUSH1 0x1F LT PUSH2 0x38F JUMPI PUSH2 0x100 DUP1 DUP4 SLOAD DIV MUL DUP4 MSTORE SWAP2 PUSH1 0x20 ADD SWAP2 PUSH2 0x3BA JUMP JUMPDEST DUP3 ADD SWAP2 SWAP1 PUSH1 0x0 MSTORE PUSH1 0x20 PUSH1 0x0 KECCAK256 SWAP1 JUMPDEST DUP2 SLOAD DUP2 MSTORE SWAP1 PUSH1 0x1 ADD SWAP1 PUSH1 0x20 ADD DUP1 DUP4 GT PUSH2 0x39D JUMPI DUP3 SWAP1 SUB PUSH1 0x1F AND DUP3 ADD SWAP2 JUMPDEST POP POP POP POP POP DUP2 MSTORE PUSH1 0x20 ADD SWAP1 PUSH1 0x1 ADD SWAP1 PUSH2 0x322 JUMP JUMPDEST POP POP POP POP DUP2 MSTORE POP SWAP2 POP POP PUSH2 0x45A JUMP JUMPDEST DUP1 DUP1 PUSH2 0x3E8 SWAP1 PUSH2 0x1B4F JUMP JUMPDEST SWAP2 POP POP PUSH2 0x1B5 JUMP JUMPDEST POP PUSH1 0x40 MLOAD DUP1 PUSH1 0x40 ADD PUSH1 0x40 MSTORE DUP1 PUSH1 0x0 ISZERO ISZERO DUP2 MSTORE PUSH1 0x20 ADD PUSH1 0x0 PUSH8 0xFFFFFFFFFFFFFFFF DUP2 GT ISZERO PUSH2 0x420 JUMPI PUSH2 0x41F PUSH2 0xFBA JUMP JUMPDEST JUMPDEST PUSH1 0x40 MLOAD SWAP1 DUP1 DUP3 MSTORE DUP1 PUSH1 0x20 MUL PUSH1 0x20 ADD DUP3 ADD PUSH1 0x40 MSTORE DUP1 ISZERO PUSH2 0x453 JUMPI DUP2 PUSH1 0x20 ADD JUMPDEST PUSH1 0x60 DUP2 MSTORE PUSH1 0x20 ADD SWAP1 PUSH1 0x1 SWAP1 SUB SWAP1 DUP2 PUSH2 0x43E JUMPI SWAP1 POP JUMPDEST POP DUP2 MSTORE POP SWAP1 POP JUMPDEST SWAP3 SWAP2 POP POP JUMP JUMPDEST PUSH2 0x468 PUSH2 0xDDB JUMP JUMPDEST PUSH1 0x0 DUP1 DUP1 SLOAD SWAP1 POP PUSH8 0xFFFFFFFFFFFFFFFF DUP2 GT ISZERO PUSH2 0x488 JUMPI PUSH2 0x487 PUSH2 0xFBA JUMP JUMPDEST JUMPDEST PUSH1 0x40 MLOAD SWAP1 DUP1 DUP3 MSTORE DUP1 PUSH1 0x20 MUL PUSH1 0x20 ADD DUP3 ADD PUSH1 0x40 MSTORE DUP1 ISZERO PUSH2 0x4C1 JUMPI DUP2 PUSH1 0x20 ADD JUMPDEST PUSH2 0x4AE PUSH2 0xDF7 JUMP JUMPDEST DUP2 MSTORE PUSH1 0x20 ADD SWAP1 PUSH1 0x1 SWAP1 SUB SWAP1 DUP2 PUSH2 0x4A6 JUMPI SWAP1 POP JUMPDEST POP SWAP1 POP PUSH1 0x0 DUP1 JUMPDEST PUSH1 0x0 DUP1 SLOAD SWAP1 POP DUP2 LT ISZERO PUSH2 0x6F0 JUMPI DUP5 PUSH20 0xFFFFFFFFFFFFFFFFFFFFFFFFFFFFFFFFFFFFFFFF AND PUSH1 0x0 DUP3 DUP2 SLOAD DUP2 LT PUSH2 0x500 JUMPI PUSH2 0x4FF PUSH2 0x1A87 JUMP JUMPDEST JUMPDEST SWAP1 PUSH1 0x0 MSTORE PUSH1 0x20 PUSH1 0x0 KECCAK256 SWAP1 PUSH1 0x4 MUL ADD PUSH1 0x0 ADD PUSH1 0x0 SWAP1 SLOAD SWAP1 PUSH2 0x100 EXP SWAP1 DIV PUSH20 0xFFFFFFFFFFFFFFFFFFFFFFFFFFFFFFFFFFFFFFFF AND PUSH20 0xFFFFFFFFFFFFFFFFFFFFFFFFFFFFFFFFFFFFFFFF AND SUB PUSH2 0x6DD JUMPI PUSH1 0x0 DUP1 DUP3 DUP2 SLOAD DUP2 LT PUSH2 0x562 JUMPI PUSH2 0x561 PUSH2 0x1A87 JUMP JUMPDEST JUMPDEST SWAP1 PUSH1 0x0 MSTORE PUSH1 0x20 PUSH1 0x0 KECCAK256 SWAP1 PUSH1 0x4 MUL ADD PUSH1 0x1 ADD DUP1 SLOAD PUSH2 0x57E SWAP1 PUSH2 0x1AE5 JUMP JUMPDEST DUP1 PUSH1 0x1F ADD PUSH1 0x20 DUP1 SWAP2 DIV MUL PUSH1 0x20 ADD PUSH1 0x40 MLOAD SWAP1 DUP2 ADD PUSH1 0x40 MSTORE DUP1 SWAP3 SWAP2 SWAP1 DUP2 DUP2 MSTORE PUSH1 0x20 ADD DUP3 DUP1 SLOAD PUSH2 0x5AA SWAP1 PUSH2 0x1AE5 JUMP JUMPDEST DUP1 ISZERO PUSH2 0x5F7 JUMPI DUP1 PUSH1 0x1F LT PUSH2 0x5CC JUMPI PUSH2 0x100 DUP1 DUP4 SLOAD DIV MUL DUP4 MSTORE SWAP2 PUSH1 0x20 ADD SWAP2 PUSH2 0x5F7 JUMP JUMPDEST DUP3 ADD SWAP2 SWAP1 PUSH1 0x0 MSTORE PUSH1 0x20 PUSH1 0x0 KECCAK256 SWAP1 JUMPDEST DUP2 SLOAD DUP2 MSTORE SWAP1 PUSH1 0x1 ADD SWAP1 PUSH1 0x20 ADD DUP1 DUP4 GT PUSH2 0x5DA JUMPI DUP3 SWAP1 SUB PUSH1 0x1F AND DUP3 ADD SWAP2 JUMPDEST POP POP POP POP POP SWAP1 POP PUSH1 0x0 PUSH1 0x1 PUSH1 0x0 SWAP1 SLOAD SWAP1 PUSH2 0x100 EXP SWAP1 DIV PUSH20 0xFFFFFFFFFFFFFFFFFFFFFFFFFFFFFFFFFFFFFFFF AND PUSH20 0xFFFFFFFFFFFFFFFFFFFFFFFFFFFFFFFFFFFFFFFF AND PUSH4 0x9F5937F8 DUP4 PUSH1 0x40 MLOAD DUP3 PUSH4 0xFFFFFFFF AND PUSH1 0xE0 SHL DUP2 MSTORE PUSH1 0x4 ADD PUSH2 0x65B SWAP2 SWAP1 PUSH2 0x1BE1 JUMP JUMPDEST PUSH1 0x0 PUSH1 0x40 MLOAD DUP1 DUP4 SUB DUP2 DUP7 GAS STATICCALL ISZERO DUP1 ISZERO PUSH2 0x678 JUMPI RETURNDATASIZE PUSH1 0x0 DUP1 RETURNDATACOPY RETURNDATASIZE PUSH1 0x0 REVERT JUMPDEST POP POP POP POP PUSH1 0x40 MLOAD RETURNDATASIZE PUSH1 0x0 DUP3 RETURNDATACOPY RETURNDATASIZE PUSH1 0x1F NOT PUSH1 0x1F DUP3 ADD AND DUP3 ADD DUP1 PUSH1 0x40 MSTORE POP DUP2 ADD SWAP1 PUSH2 0x6A1 SWAP2 SWAP1 PUSH2 0x1E1C JUMP JUMPDEST SWAP1 POP PUSH1 0x0 DUP2 PUSH1 0x20 ADD MLOAD SWAP1 POP DUP1 DUP7 DUP7 DUP2 MLOAD DUP2 LT PUSH2 0x6C0 JUMPI PUSH2 0x6BF PUSH2 0x1A87 JUMP JUMPDEST JUMPDEST PUSH1 0x20 MUL PUSH1 0x20 ADD ADD DUP2 SWAP1 MSTORE POP DUP5 DUP1 PUSH2 0x6D6 SWAP1 PUSH2 0x1B4F JUMP JUMPDEST SWAP6 POP POP POP POP POP JUMPDEST DUP1 DUP1 PUSH2 0x6E8 SWAP1 PUSH2 0x1B4F JUMP JUMPDEST SWAP2 POP POP PUSH2 0x4C8 JUMP JUMPDEST POP DUP1 DUP3 MSTORE PUSH1 0x0 DUP2 EQ PUSH2 0x71D JUMPI PUSH1 0x40 MLOAD DUP1 PUSH1 0x40 ADD PUSH1 0x40 MSTORE DUP1 PUSH1 0x1 ISZERO ISZERO DUP2 MSTORE PUSH1 0x20 ADD DUP4 DUP2 MSTORE POP SWAP3 POP POP POP PUSH2 0x73A JUMP JUMPDEST PUSH1 0x40 MLOAD DUP1 PUSH1 0x40 ADD PUSH1 0x40 MSTORE DUP1 PUSH1 0x0 ISZERO ISZERO DUP2 MSTORE PUSH1 0x20 ADD DUP4 DUP2 MSTORE POP SWAP3 POP POP POP JUMPDEST SWAP2 SWAP1 POP JUMP JUMPDEST PUSH1 0x0 DUP5 PUSH20 0xFFFFFFFFFFFFFFFFFFFFFFFFFFFFFFFFFFFFFFFF AND DUP5 PUSH20 0xFFFFFFFFFFFFFFFFFFFFFFFFFFFFFFFFFFFFFFFF AND EQ DUP1 ISZERO PUSH2 0x7C7 JUMPI POP DUP3 PUSH1 0x40 MLOAD PUSH1 0x20 ADD PUSH2 0x788 SWAP2 SWAP1 PUSH2 0x1EA1 JUMP JUMPDEST PUSH1 0x40 MLOAD PUSH1 0x20 DUP2 DUP4 SUB SUB DUP2 MSTORE SWAP1 PUSH1 0x40 MSTORE DUP1 MLOAD SWAP1 PUSH1 0x20 ADD KECCAK256 DUP3 PUSH1 0x40 MLOAD PUSH1 0x20 ADD PUSH2 0x7AF SWAP2 SWAP1 PUSH2 0x1EA1 JUMP JUMPDEST PUSH1 0x40 MLOAD PUSH1 0x20 DUP2 DUP4 SUB SUB DUP2 MSTORE SWAP1 PUSH1 0x40 MSTORE DUP1 MLOAD SWAP1 PUSH1 0x20 ADD KECCAK256 EQ JUMPDEST SWAP1 POP SWAP5 SWAP4 POP POP POP POP JUMP JUMPDEST PUSH2 0x7D9 PUSH2 0xE3C JUMP JUMPDEST PUSH1 0x0 JUMPDEST PUSH1 0x0 DUP1 SLOAD SWAP1 POP DUP2 LT ISZERO PUSH2 0x9D4 JUMPI PUSH2 0x8EF DUP5 PUSH1 0x0 ADD MLOAD PUSH1 0x0 DUP4 DUP2 SLOAD DUP2 LT PUSH2 0x805 JUMPI PUSH2 0x804 PUSH2 0x1A87 JUMP JUMPDEST JUMPDEST SWAP1 PUSH1 0x0 MSTORE PUSH1 0x20 PUSH1 0x0 KECCAK256 SWAP1 PUSH1 0x4 MUL ADD PUSH1 0x0 ADD PUSH1 0x0 SWAP1 SLOAD SWAP1 PUSH2 0x100 EXP SWAP1 DIV PUSH20 0xFFFFFFFFFFFFFFFFFFFFFFFFFFFFFFFFFFFFFFFF AND DUP6 PUSH1 0x0 ADD MLOAD PUSH1 0x0 DUP6 DUP2 SLOAD DUP2 LT PUSH2 0x850 JUMPI PUSH2 0x84F PUSH2 0x1A87 JUMP JUMPDEST JUMPDEST SWAP1 PUSH1 0x0 MSTORE PUSH1 0x20 PUSH1 0x0 KECCAK256 SWAP1 PUSH1 0x4 MUL ADD PUSH1 0x1 ADD DUP1 SLOAD PUSH2 0x86C SWAP1 PUSH2 0x1AE5 JUMP JUMPDEST DUP1 PUSH1 0x1F ADD PUSH1 0x20 DUP1 SWAP2 DIV MUL PUSH1 0x20 ADD PUSH1 0x40 MLOAD SWAP1 DUP2 ADD PUSH1 0x40 MSTORE DUP1 SWAP3 SWAP2 SWAP1 DUP2 DUP2 MSTORE PUSH1 0x20 ADD DUP3 DUP1 SLOAD PUSH2 0x898 SWAP1 PUSH2 0x1AE5 JUMP JUMPDEST DUP1 ISZERO PUSH2 0x8E5 JUMPI DUP1 PUSH1 0x1F LT PUSH2 0x8BA JUMPI PUSH2 0x100 DUP1 DUP4 SLOAD DIV MUL DUP4 MSTORE SWAP2 PUSH1 0x20 ADD SWAP2 PUSH2 0x8E5 JUMP JUMPDEST DUP3 ADD SWAP2 SWAP1 PUSH1 0x0 MSTORE PUSH1 0x20 PUSH1 0x0 KECCAK256 SWAP1 JUMPDEST DUP2 SLOAD DUP2 MSTORE SWAP1 PUSH1 0x1 ADD SWAP1 PUSH1 0x20 ADD DUP1 DUP4 GT PUSH2 0x8C8 JUMPI DUP3 SWAP1 SUB PUSH1 0x1F AND DUP3 ADD SWAP2 JUMPDEST POP POP POP POP POP PUSH2 0x73F JUMP JUMPDEST ISZERO PUSH2 0x9C1 JUMPI PUSH1 0x40 MLOAD DUP1 PUSH1 0x40 ADD PUSH1 0x40 MSTORE DUP1 PUSH1 0x1 ISZERO ISZERO DUP2 MSTORE PUSH1 0x20 ADD PUSH1 0x0 DUP4 DUP2 SLOAD DUP2 LT PUSH2 0x91C JUMPI PUSH2 0x91B PUSH2 0x1A87 JUMP JUMPDEST JUMPDEST SWAP1 PUSH1 0x0 MSTORE PUSH1 0x20 PUSH1 0x0 KECCAK256 SWAP1 PUSH1 0x4 MUL ADD PUSH1 0x2 ADD DUP1 SLOAD PUSH2 0x938 SWAP1 PUSH2 0x1AE5 JUMP JUMPDEST DUP1 PUSH1 0x1F ADD PUSH1 0x20 DUP1 SWAP2 DIV MUL PUSH1 0x20 ADD PUSH1 0x40 MLOAD SWAP1 DUP2 ADD PUSH1 0x40 MSTORE DUP1 SWAP3 SWAP2 SWAP1 DUP2 DUP2 MSTORE PUSH1 0x20 ADD DUP3 DUP1 SLOAD PUSH2 0x964 SWAP1 PUSH2 0x1AE5 JUMP JUMPDEST DUP1 ISZERO PUSH2 0x9B1 JUMPI DUP1 PUSH1 0x1F LT PUSH2 0x986 JUMPI PUSH2 0x100 DUP1 DUP4 SLOAD DIV MUL DUP4 MSTORE SWAP2 PUSH1 0x20 ADD SWAP2 PUSH2 0x9B1 JUMP JUMPDEST DUP3 ADD SWAP2 SWAP1 PUSH1 0x0 MSTORE PUSH1 0x20 PUSH1 0x0 KECCAK256 SWAP1 JUMPDEST DUP2 SLOAD DUP2 MSTORE SWAP1 PUSH1 0x1 ADD SWAP1 PUSH1 0x20 ADD DUP1 DUP4 GT PUSH2 0x994 JUMPI DUP3 SWAP1 SUB PUSH1 0x1F AND DUP3 ADD SWAP2 JUMPDEST POP POP POP POP POP DUP2 MSTORE POP SWAP2 POP POP PUSH2 0x9FF JUMP JUMPDEST DUP1 DUP1 PUSH2 0x9CC SWAP1 PUSH2 0x1B4F JUMP JUMPDEST SWAP2 POP POP PUSH2 0x7DC JUMP JUMPDEST POP PUSH1 0x40 MLOAD DUP1 PUSH1 0x40 ADD PUSH1 0x40 MSTORE DUP1 PUSH1 0x0 ISZERO ISZERO DUP2 MSTORE PUSH1 0x20 ADD PUSH1 0x40 MLOAD DUP1 PUSH1 0x20 ADD PUSH1 0x40 MSTORE DUP1 PUSH1 0x0 DUP2 MSTORE POP DUP2 MSTORE POP SWAP1 POP JUMPDEST SWAP3 SWAP2 POP POP JUMP JUMPDEST PUSH1 0x0 DUP1 PUSH1 0x0 SWAP1 POP JUMPDEST PUSH1 0x0 DUP1 SLOAD SWAP1 POP DUP2 LT ISZERO PUSH2 0xB3E JUMPI PUSH2 0xB1C DUP5 PUSH1 0x0 DUP4 DUP2 SLOAD DUP2 LT PUSH2 0xA32 JUMPI PUSH2 0xA31 PUSH2 0x1A87 JUMP JUMPDEST JUMPDEST SWAP1 PUSH1 0x0 MSTORE PUSH1 0x20 PUSH1 0x0 KECCAK256 SWAP1 PUSH1 0x4 MUL ADD PUSH1 0x0 ADD PUSH1 0x0 SWAP1 SLOAD SWAP1 PUSH2 0x100 EXP SWAP1 DIV PUSH20 0xFFFFFFFFFFFFFFFFFFFFFFFFFFFFFFFFFFFFFFFF AND DUP6 PUSH1 0x0 ADD MLOAD PUSH1 0x0 DUP6 DUP2 SLOAD DUP2 LT PUSH2 0xA7D JUMPI PUSH2 0xA7C PUSH2 0x1A87 JUMP JUMPDEST JUMPDEST SWAP1 PUSH1 0x0 MSTORE PUSH1 0x20 PUSH1 0x0 KECCAK256 SWAP1 PUSH1 0x4 MUL ADD PUSH1 0x1 ADD DUP1 SLOAD PUSH2 0xA99 SWAP1 PUSH2 0x1AE5 JUMP JUMPDEST DUP1 PUSH1 0x1F ADD PUSH1 0x20 DUP1 SWAP2 DIV MUL PUSH1 0x20 ADD PUSH1 0x40 MLOAD SWAP1 DUP2 ADD PUSH1 0x40 MSTORE DUP1 SWAP3 SWAP2 SWAP1 DUP2 DUP2 MSTORE PUSH1 0x20 ADD DUP3 DUP1 SLOAD PUSH2 0xAC5 SWAP1 PUSH2 0x1AE5 JUMP JUMPDEST DUP1 ISZERO PUSH2 0xB12 JUMPI DUP1 PUSH1 0x1F LT PUSH2 0xAE7 JUMPI PUSH2 0x100 DUP1 DUP4 SLOAD DIV MUL DUP4 MSTORE SWAP2 PUSH1 0x20 ADD SWAP2 PUSH2 0xB12 JUMP JUMPDEST DUP3 ADD SWAP2 SWAP1 PUSH1 0x0 MSTORE PUSH1 0x20 PUSH1 0x0 KECCAK256 SWAP1 JUMPDEST DUP2 SLOAD DUP2 MSTORE SWAP1 PUSH1 0x1 ADD SWAP1 PUSH1 0x20 ADD DUP1 DUP4 GT PUSH2 0xAF5 JUMPI DUP3 SWAP1 SUB PUSH1 0x1F AND DUP3 ADD SWAP2 JUMPDEST POP POP POP POP POP PUSH2 0x73F JUMP JUMPDEST ISZERO PUSH2 0xB2B JUMPI PUSH1 0x1 SWAP2 POP POP PUSH2 0xB44 JUMP JUMPDEST DUP1 DUP1 PUSH2 0xB36 SWAP1 PUSH2 0x1B4F JUMP JUMPDEST SWAP2 POP POP PUSH2 0xA0D JUMP JUMPDEST POP PUSH1 0x0 SWAP1 POP JUMPDEST SWAP3 SWAP2 POP POP JUMP JUMPDEST PUSH1 0x0 JUMPDEST PUSH1 0x0 DUP1 SLOAD SWAP1 POP DUP2 LT ISZERO PUSH2 0xCB4 JUMPI PUSH2 0xC5C DUP5 PUSH1 0x0 DUP4 DUP2 SLOAD DUP2 LT PUSH2 0xB72 JUMPI PUSH2 0xB71 PUSH2 0x1A87 JUMP JUMPDEST JUMPDEST SWAP1 PUSH1 0x0 MSTORE PUSH1 0x20 PUSH1 0x0 KECCAK256 SWAP1 PUSH1 0x4 MUL ADD PUSH1 0x0 ADD PUSH1 0x0 SWAP1 SLOAD SWAP1 PUSH2 0x100 EXP SWAP1 DIV PUSH20 0xFFFFFFFFFFFFFFFFFFFFFFFFFFFFFFFFFFFFFFFF AND DUP6 PUSH1 0x0 ADD MLOAD PUSH1 0x0 DUP6 DUP2 SLOAD DUP2 LT PUSH2 0xBBD JUMPI PUSH2 0xBBC PUSH2 0x1A87 JUMP JUMPDEST JUMPDEST SWAP1 PUSH1 0x0 MSTORE PUSH1 0x20 PUSH1 0x0 KECCAK256 SWAP1 PUSH1 0x4 MUL ADD PUSH1 0x1 ADD DUP1 SLOAD PUSH2 0xBD9 SWAP1 PUSH2 0x1AE5 JUMP JUMPDEST DUP1 PUSH1 0x1F ADD PUSH1 0x20 DUP1 SWAP2 DIV MUL PUSH1 0x20 ADD PUSH1 0x40 MLOAD SWAP1 DUP2 ADD PUSH1 0x40 MSTORE DUP1 SWAP3 SWAP2 SWAP1 DUP2 DUP2 MSTORE PUSH1 0x20 ADD DUP3 DUP1 SLOAD PUSH2 0xC05 SWAP1 PUSH2 0x1AE5 JUMP JUMPDEST DUP1 ISZERO PUSH2 0xC52 JUMPI DUP1 PUSH1 0x1F LT PUSH2 0xC27 JUMPI PUSH2 0x100 DUP1 DUP4 SLOAD DIV MUL DUP4 MSTORE SWAP2 PUSH1 0x20 ADD SWAP2 PUSH2 0xC52 JUMP JUMPDEST DUP3 ADD SWAP2 SWAP1 PUSH1 0x0 MSTORE PUSH1 0x20 PUSH1 0x0 KECCAK256 SWAP1 JUMPDEST DUP2 SLOAD DUP2 MSTORE SWAP1 PUSH1 0x1 ADD SWAP1 PUSH1 0x20 ADD DUP1 DUP4 GT PUSH2 0xC35 JUMPI DUP3 SWAP1 SUB PUSH1 0x1F AND DUP3 ADD SWAP2 JUMPDEST POP POP POP POP POP PUSH2 0x73F JUMP JUMPDEST ISZERO PUSH2 0xCA1 JUMPI DUP2 PUSH1 0x0 DUP3 DUP2 SLOAD DUP2 LT PUSH2 0xC76 JUMPI PUSH2 0xC75 PUSH2 0x1A87 JUMP JUMPDEST JUMPDEST SWAP1 PUSH1 0x0 MSTORE PUSH1 0x20 PUSH1 0x0 KECCAK256 SWAP1 PUSH1 0x4 MUL ADD PUSH1 0x3 ADD SWAP1 DUP1 MLOAD SWAP1 PUSH1 0x20 ADD SWAP1 PUSH2 0xC9A SWAP3 SWAP2 SWAP1 PUSH2 0xE58 JUMP JUMPDEST POP POP PUSH2 0xCB6 JUMP JUMPDEST DUP1 DUP1 PUSH2 0xCAC SWAP1 PUSH2 0x1B4F JUMP JUMPDEST SWAP2 POP POP PUSH2 0xB4D JUMP JUMPDEST POP JUMPDEST POP POP POP JUMP JUMPDEST PUSH1 0x0 PUSH1 0x40 MLOAD DUP1 PUSH1 0x80 ADD PUSH1 0x40 MSTORE DUP1 DUP7 PUSH20 0xFFFFFFFFFFFFFFFFFFFFFFFFFFFFFFFFFFFFFFFF AND DUP2 MSTORE PUSH1 0x20 ADD DUP6 PUSH1 0x0 ADD MLOAD DUP2 MSTORE PUSH1 0x20 ADD DUP5 DUP2 MSTORE PUSH1 0x20 ADD DUP4 DUP2 MSTORE POP SWAP1 POP PUSH1 0x0 DUP2 SWAP1 DUP1 PUSH1 0x1 DUP2 SLOAD ADD DUP1 DUP3 SSTORE DUP1 SWAP2 POP POP PUSH1 0x1 SWAP1 SUB SWAP1 PUSH1 0x0 MSTORE PUSH1 0x20 PUSH1 0x0 KECCAK256 SWAP1 PUSH1 0x4 MUL ADD PUSH1 0x0 SWAP1 SWAP2 SWAP1 SWAP2 SWAP1 SWAP2 POP PUSH1 0x0 DUP3 ADD MLOAD DUP2 PUSH1 0x0 ADD PUSH1 0x0 PUSH2 0x100 EXP DUP2 SLOAD DUP2 PUSH20 0xFFFFFFFFFFFFFFFFFFFFFFFFFFFFFFFFFFFFFFFF MUL NOT AND SWAP1 DUP4 PUSH20 0xFFFFFFFFFFFFFFFFFFFFFFFFFFFFFFFFFFFFFFFF AND MUL OR SWAP1 SSTORE POP PUSH1 0x20 DUP3 ADD MLOAD DUP2 PUSH1 0x1 ADD SWAP1 DUP2 PUSH2 0xD82 SWAP2 SWAP1 PUSH2 0x2064 JUMP JUMPDEST POP PUSH1 0x40 DUP3 ADD MLOAD DUP2 PUSH1 0x2 ADD SWAP1 DUP2 PUSH2 0xD98 SWAP2 SWAP1 PUSH2 0x2064 JUMP JUMPDEST POP PUSH1 0x60 DUP3 ADD MLOAD DUP2 PUSH1 0x3 ADD SWAP1 DUP1 MLOAD SWAP1 PUSH1 0x20 ADD SWAP1 PUSH2 0xDB5 SWAP3 SWAP2 SWAP1 PUSH2 0xE58 JUMP JUMPDEST POP POP POP POP POP POP POP POP JUMP JUMPDEST PUSH1 0x40 MLOAD DUP1 PUSH1 0x40 ADD PUSH1 0x40 MSTORE DUP1 PUSH1 0x0 ISZERO ISZERO DUP2 MSTORE PUSH1 0x20 ADD PUSH1 0x60 DUP2 MSTORE POP SWAP1 JUMP JUMPDEST PUSH1 0x40 MLOAD DUP1 PUSH1 0x40 ADD PUSH1 0x40 MSTORE DUP1 PUSH1 0x0 ISZERO ISZERO DUP2 MSTORE PUSH1 0x20 ADD PUSH1 0x60 DUP2 MSTORE POP SWAP1 JUMP JUMPDEST PUSH1 0x40 MLOAD DUP1 PUSH1 0xA0 ADD PUSH1 0x40 MSTORE DUP1 PUSH1 0x60 DUP2 MSTORE PUSH1 0x20 ADD PUSH1 0x60 DUP2 MSTORE PUSH1 0x20 ADD PUSH1 0x0 PUSH20 0xFFFFFFFFFFFFFFFFFFFFFFFFFFFFFFFFFFFFFFFF AND DUP2 MSTORE PUSH1 0x20 ADD PUSH1 0x60 DUP2 MSTORE PUSH1 0x20 ADD PUSH1 0x60 DUP2 MSTORE POP SWAP1 JUMP JUMPDEST PUSH1 0x40 MLOAD DUP1 PUSH1 0x40 ADD PUSH1 0x40 MSTORE DUP1 PUSH1 0x0 ISZERO ISZERO DUP2 MSTORE PUSH1 0x20 ADD PUSH1 0x60 DUP2 MSTORE POP SWAP1 JUMP JUMPDEST DUP3 DUP1 SLOAD DUP3 DUP3 SSTORE SWAP1 PUSH1 0x0 MSTORE PUSH1 0x20 PUSH1 0x0 KECCAK256 SWAP1 DUP2 ADD SWAP3 DUP3 ISZERO PUSH2 0xEA0 JUMPI SWAP2 PUSH1 0x20 MUL DUP3 ADD JUMPDEST DUP3 DUP2 GT ISZERO PUSH2 0xE9F JUMPI DUP3 MLOAD DUP3 SWAP1 DUP2 PUSH2 0xE8F SWAP2 SWAP1 PUSH2 0x2064 JUMP JUMPDEST POP SWAP2 PUSH1 0x20 ADD SWAP2 SWAP1 PUSH1 0x1 ADD SWAP1 PUSH2 0xE78 JUMP JUMPDEST JUMPDEST POP SWAP1 POP PUSH2 0xEAD SWAP2 SWAP1 PUSH2 0xEB1 JUMP JUMPDEST POP SWAP1 JUMP JUMPDEST JUMPDEST DUP1 DUP3 GT ISZERO PUSH2 0xED1 JUMPI PUSH1 0x0 DUP2 DUP2 PUSH2 0xEC8 SWAP2 SWAP1 PUSH2 0xED5 JUMP JUMPDEST POP PUSH1 0x1 ADD PUSH2 0xEB2 JUMP JUMPDEST POP SWAP1 JUMP JUMPDEST POP DUP1 SLOAD PUSH2 0xEE1 SWAP1 PUSH2 0x1AE5 JUMP JUMPDEST PUSH1 0x0 DUP3 SSTORE DUP1 PUSH1 0x1F LT PUSH2 0xEF3 JUMPI POP PUSH2 0xF12 JUMP JUMPDEST PUSH1 0x1F ADD PUSH1 0x20 SWAP1 DIV SWAP1 PUSH1 0x0 MSTORE PUSH1 0x20 PUSH1 0x0 KECCAK256 SWAP1 DUP2 ADD SWAP1 PUSH2 0xF11 SWAP2 SWAP1 PUSH2 0xF15 JUMP JUMPDEST JUMPDEST POP JUMP JUMPDEST JUMPDEST DUP1 DUP3 GT ISZERO PUSH2 0xF2E JUMPI PUSH1 0x0 DUP2 PUSH1 0x0 SWAP1 SSTORE POP PUSH1 0x1 ADD PUSH2 0xF16 JUMP JUMPDEST POP SWAP1 JUMP JUMPDEST PUSH1 0x0 PUSH1 0x40 MLOAD SWAP1 POP SWAP1 JUMP JUMPDEST PUSH1 0x0 DUP1 REVERT JUMPDEST PUSH1 0x0 DUP1 REVERT JUMPDEST PUSH1 0x0 PUSH20 0xFFFFFFFFFFFFFFFFFFFFFFFFFFFFFFFFFFFFFFFF DUP3 AND SWAP1 POP SWAP2 SWAP1 POP JUMP JUMPDEST PUSH1 0x0 PUSH2 0xF71 DUP3 PUSH2 0xF46 JUMP JUMPDEST SWAP1 POP SWAP2 SWAP1 POP JUMP JUMPDEST PUSH2 0xF81 DUP2 PUSH2 0xF66 JUMP JUMPDEST DUP2 EQ PUSH2 0xF8C JUMPI PUSH1 0x0 DUP1 REVERT JUMPDEST POP JUMP JUMPDEST PUSH1 0x0 DUP2 CALLDATALOAD SWAP1 POP PUSH2 0xF9E DUP2 PUSH2 0xF78 JUMP JUMPDEST SWAP3 SWAP2 POP POP JUMP JUMPDEST PUSH1 0x0 DUP1 REVERT JUMPDEST PUSH1 0x0 PUSH1 0x1F NOT PUSH1 0x1F DUP4 ADD AND SWAP1 POP SWAP2 SWAP1 POP JUMP JUMPDEST PUSH32 0x4E487B7100000000000000000000000000000000000000000000000000000000 PUSH1 0x0 MSTORE PUSH1 0x41 PUSH1 0x4 MSTORE PUSH1 0x24 PUSH1 0x0 REVERT JUMPDEST PUSH2 0xFF2 DUP3 PUSH2 0xFA9 JUMP JUMPDEST DUP2 ADD DUP2 DUP2 LT PUSH8 0xFFFFFFFFFFFFFFFF DUP3 GT OR ISZERO PUSH2 0x1011 JUMPI PUSH2 0x1010 PUSH2 0xFBA JUMP JUMPDEST JUMPDEST DUP1 PUSH1 0x40 MSTORE POP POP POP JUMP JUMPDEST PUSH1 0x0 PUSH2 0x1024 PUSH2 0xF32 JUMP JUMPDEST SWAP1 POP PUSH2 0x1030 DUP3 DUP3 PUSH2 0xFE9 JUMP JUMPDEST SWAP2 SWAP1 POP JUMP JUMPDEST PUSH1 0x0 DUP1 REVERT JUMPDEST PUSH1 0x0 DUP1 REVERT JUMPDEST PUSH1 0x0 DUP1 REVERT JUMPDEST PUSH1 0x0 PUSH8 0xFFFFFFFFFFFFFFFF DUP3 GT ISZERO PUSH2 0x105F JUMPI PUSH2 0x105E PUSH2 0xFBA JUMP JUMPDEST JUMPDEST PUSH2 0x1068 DUP3 PUSH2 0xFA9 JUMP JUMPDEST SWAP1 POP PUSH1 0x20 DUP2 ADD SWAP1 POP SWAP2 SWAP1 POP JUMP JUMPDEST DUP3 DUP2 DUP4 CALLDATACOPY PUSH1 0x0 DUP4 DUP4 ADD MSTORE POP POP POP JUMP JUMPDEST PUSH1 0x0 PUSH2 0x1097 PUSH2 0x1092 DUP5 PUSH2 0x1044 JUMP JUMPDEST PUSH2 0x101A JUMP JUMPDEST SWAP1 POP DUP3 DUP2 MSTORE PUSH1 0x20 DUP2 ADD DUP5 DUP5 DUP5 ADD GT ISZERO PUSH2 0x10B3 JUMPI PUSH2 0x10B2 PUSH2 0x103F JUMP JUMPDEST JUMPDEST PUSH2 0x10BE DUP5 DUP3 DUP6 PUSH2 0x1075 JUMP JUMPDEST POP SWAP4 SWAP3 POP POP POP JUMP JUMPDEST PUSH1 0x0 DUP3 PUSH1 0x1F DUP4 ADD SLT PUSH2 0x10DB JUMPI PUSH2 0x10DA PUSH2 0x103A JUMP JUMPDEST JUMPDEST DUP2 CALLDATALOAD PUSH2 0x10EB DUP5 DUP3 PUSH1 0x20 DUP7 ADD PUSH2 0x1084 JUMP JUMPDEST SWAP2 POP POP SWAP3 SWAP2 POP POP JUMP JUMPDEST PUSH1 0x0 PUSH1 0xA0 DUP3 DUP5 SUB SLT ISZERO PUSH2 0x110A JUMPI PUSH2 0x1109 PUSH2 0xFA4 JUMP JUMPDEST JUMPDEST PUSH2 0x1114 PUSH1 0xA0 PUSH2 0x101A JUMP JUMPDEST SWAP1 POP PUSH1 0x0 DUP3 ADD CALLDATALOAD PUSH8 0xFFFFFFFFFFFFFFFF DUP2 GT ISZERO PUSH2 0x1134 JUMPI PUSH2 0x1133 PUSH2 0x1035 JUMP JUMPDEST JUMPDEST PUSH2 0x1140 DUP5 DUP3 DUP6 ADD PUSH2 0x10C6 JUMP JUMPDEST PUSH1 0x0 DUP4 ADD MSTORE POP PUSH1 0x20 DUP3 ADD CALLDATALOAD PUSH8 0xFFFFFFFFFFFFFFFF DUP2 GT ISZERO PUSH2 0x1164 JUMPI PUSH2 0x1163 PUSH2 0x1035 JUMP JUMPDEST JUMPDEST PUSH2 0x1170 DUP5 DUP3 DUP6 ADD PUSH2 0x10C6 JUMP JUMPDEST PUSH1 0x20 DUP4 ADD MSTORE POP PUSH1 0x40 PUSH2 0x1184 DUP5 DUP3 DUP6 ADD PUSH2 0xF8F JUMP JUMPDEST PUSH1 0x40 DUP4 ADD MSTORE POP PUSH1 0x60 DUP3 ADD CALLDATALOAD PUSH8 0xFFFFFFFFFFFFFFFF DUP2 GT ISZERO PUSH2 0x11A8 JUMPI PUSH2 0x11A7 PUSH2 0x1035 JUMP JUMPDEST JUMPDEST PUSH2 0x11B4 DUP5 DUP3 DUP6 ADD PUSH2 0x10C6 JUMP JUMPDEST PUSH1 0x60 DUP4 ADD MSTORE POP PUSH1 0x80 DUP3 ADD CALLDATALOAD PUSH8 0xFFFFFFFFFFFFFFFF DUP2 GT ISZERO PUSH2 0x11D8 JUMPI PUSH2 0x11D7 PUSH2 0x1035 JUMP JUMPDEST JUMPDEST PUSH2 0x11E4 DUP5 DUP3 DUP6 ADD PUSH2 0x10C6 JUMP JUMPDEST PUSH1 0x80 DUP4 ADD MSTORE POP SWAP3 SWAP2 POP POP JUMP JUMPDEST PUSH1 0x0 DUP1 PUSH1 0x40 DUP4 DUP6 SUB SLT ISZERO PUSH2 0x1207 JUMPI PUSH2 0x1206 PUSH2 0xF3C JUMP JUMPDEST JUMPDEST PUSH1 0x0 PUSH2 0x1215 DUP6 DUP3 DUP7 ADD PUSH2 0xF8F JUMP JUMPDEST SWAP3 POP POP PUSH1 0x20 DUP4 ADD CALLDATALOAD PUSH8 0xFFFFFFFFFFFFFFFF DUP2 GT ISZERO PUSH2 0x1236 JUMPI PUSH2 0x1235 PUSH2 0xF41 JUMP JUMPDEST JUMPDEST PUSH2 0x1242 DUP6 DUP3 DUP7 ADD PUSH2 0x10F4 JUMP JUMPDEST SWAP2 POP POP SWAP3 POP SWAP3 SWAP1 POP JUMP JUMPDEST PUSH1 0x0 DUP2 ISZERO ISZERO SWAP1 POP SWAP2 SWAP1 POP JUMP JUMPDEST PUSH2 0x1261 DUP2 PUSH2 0x124C JUMP JUMPDEST DUP3 MSTORE POP POP JUMP JUMPDEST PUSH1 0x0 DUP2 MLOAD SWAP1 POP SWAP2 SWAP1 POP JUMP JUMPDEST PUSH1 0x0 DUP3 DUP3 MSTORE PUSH1 0x20 DUP3 ADD SWAP1 POP SWAP3 SWAP2 POP POP JUMP JUMPDEST PUSH1 0x0 DUP2 SWAP1 POP PUSH1 0x20 DUP3 ADD SWAP1 POP SWAP2 SWAP1 POP JUMP JUMPDEST PUSH1 0x0 DUP2 MLOAD SWAP1 POP SWAP2 SWAP1 POP JUMP JUMPDEST PUSH1 0x0 DUP3 DUP3 MSTORE PUSH1 0x20 DUP3 ADD SWAP1 POP SWAP3 SWAP2 POP POP JUMP JUMPDEST PUSH1 0x0 JUMPDEST DUP4 DUP2 LT ISZERO PUSH2 0x12CD JUMPI DUP1 DUP3 ADD MLOAD DUP2 DUP5 ADD MSTORE PUSH1 0x20 DUP2 ADD SWAP1 POP PUSH2 0x12B2 JUMP JUMPDEST PUSH1 0x0 DUP5 DUP5 ADD MSTORE POP POP POP POP JUMP JUMPDEST PUSH1 0x0 PUSH2 0x12E4 DUP3 PUSH2 0x1293 JUMP JUMPDEST PUSH2 0x12EE DUP2 DUP6 PUSH2 0x129E JUMP JUMPDEST SWAP4 POP PUSH2 0x12FE DUP2 DUP6 PUSH1 0x20 DUP7 ADD PUSH2 0x12AF JUMP JUMPDEST PUSH2 0x1307 DUP2 PUSH2 0xFA9 JUMP JUMPDEST DUP5 ADD SWAP2 POP POP SWAP3 SWAP2 POP POP JUMP JUMPDEST PUSH1 0x0 PUSH2 0x131E DUP4 DUP4 PUSH2 0x12D9 JUMP JUMPDEST SWAP1 POP SWAP3 SWAP2 POP POP JUMP JUMPDEST PUSH1 0x0 PUSH1 0x20 DUP3 ADD SWAP1 POP SWAP2 SWAP1 POP JUMP JUMPDEST PUSH1 0x0 PUSH2 0x133E DUP3 PUSH2 0x1267 JUMP JUMPDEST PUSH2 0x1348 DUP2 DUP6 PUSH2 0x1272 JUMP JUMPDEST SWAP4 POP DUP4 PUSH1 0x20 DUP3 MUL DUP6 ADD PUSH2 0x135A DUP6 PUSH2 0x1283 JUMP JUMPDEST DUP1 PUSH1 0x0 JUMPDEST DUP6 DUP2 LT ISZERO PUSH2 0x1396 JUMPI DUP5 DUP5 SUB DUP10 MSTORE DUP2 MLOAD PUSH2 0x1377 DUP6 DUP3 PUSH2 0x1312 JUMP JUMPDEST SWAP5 POP PUSH2 0x1382 DUP4 PUSH2 0x1326 JUMP JUMPDEST SWAP3 POP PUSH1 0x20 DUP11 ADD SWAP10 POP POP PUSH1 0x1 DUP2 ADD SWAP1 POP PUSH2 0x135E JUMP JUMPDEST POP DUP3 SWAP8 POP DUP8 SWAP6 POP POP POP POP POP POP SWAP3 SWAP2 POP POP JUMP JUMPDEST PUSH1 0x0 PUSH1 0x40 DUP4 ADD PUSH1 0x0 DUP4 ADD MLOAD PUSH2 0x13C0 PUSH1 0x0 DUP7 ADD DUP3 PUSH2 0x1258 JUMP JUMPDEST POP PUSH1 0x20 DUP4 ADD MLOAD DUP5 DUP3 SUB PUSH1 0x20 DUP7 ADD MSTORE PUSH2 0x13D8 DUP3 DUP3 PUSH2 0x1333 JUMP JUMPDEST SWAP2 POP POP DUP1 SWAP2 POP POP SWAP3 SWAP2 POP POP JUMP JUMPDEST PUSH1 0x0 PUSH1 0x20 DUP3 ADD SWAP1 POP DUP2 DUP2 SUB PUSH1 0x0 DUP4 ADD MSTORE PUSH2 0x13FF DUP2 DUP5 PUSH2 0x13A8 JUMP JUMPDEST SWAP1 POP SWAP3 SWAP2 POP POP JUMP JUMPDEST PUSH1 0x0 PUSH1 0x20 DUP3 DUP5 SUB SLT ISZERO PUSH2 0x141D JUMPI PUSH2 0x141C PUSH2 0xF3C JUMP JUMPDEST JUMPDEST PUSH1 0x0 PUSH2 0x142B DUP5 DUP3 DUP6 ADD PUSH2 0xF8F JUMP JUMPDEST SWAP2 POP POP SWAP3 SWAP2 POP POP JUMP JUMPDEST PUSH1 0x0 DUP2 MLOAD SWAP1 POP SWAP2 SWAP1 POP JUMP JUMPDEST PUSH1 0x0 DUP3 DUP3 MSTORE PUSH1 0x20 DUP3 ADD SWAP1 POP SWAP3 SWAP2 POP POP JUMP JUMPDEST PUSH1 0x0 DUP2 SWAP1 POP PUSH1 0x20 DUP3 ADD SWAP1 POP SWAP2 SWAP1 POP JUMP JUMPDEST PUSH2 0x1469 DUP2 PUSH2 0xF66 JUMP JUMPDEST DUP3 MSTORE POP POP JUMP JUMPDEST PUSH1 0x0 PUSH1 0xA0 DUP4 ADD PUSH1 0x0 DUP4 ADD MLOAD DUP5 DUP3 SUB PUSH1 0x0 DUP7 ADD MSTORE PUSH2 0x148C DUP3 DUP3 PUSH2 0x12D9 JUMP JUMPDEST SWAP2 POP POP PUSH1 0x20 DUP4 ADD MLOAD DUP5 DUP3 SUB PUSH1 0x20 DUP7 ADD MSTORE PUSH2 0x14A6 DUP3 DUP3 PUSH2 0x12D9 JUMP JUMPDEST SWAP2 POP POP PUSH1 0x40 DUP4 ADD MLOAD PUSH2 0x14BB PUSH1 0x40 DUP7 ADD DUP3 PUSH2 0x1460 JUMP JUMPDEST POP PUSH1 0x60 DUP4 ADD MLOAD DUP5 DUP3 SUB PUSH1 0x60 DUP7 ADD MSTORE PUSH2 0x14D3 DUP3 DUP3 PUSH2 0x12D9 JUMP JUMPDEST SWAP2 POP POP PUSH1 0x80 DUP4 ADD MLOAD DUP5 DUP3 SUB PUSH1 0x80 DUP7 ADD MSTORE PUSH2 0x14ED DUP3 DUP3 PUSH2 0x12D9 JUMP JUMPDEST SWAP2 POP POP DUP1 SWAP2 POP POP SWAP3 SWAP2 POP POP JUMP JUMPDEST PUSH1 0x0 PUSH2 0x1506 DUP4 DUP4 PUSH2 0x146F JUMP JUMPDEST SWAP1 POP SWAP3 SWAP2 POP POP JUMP JUMPDEST PUSH1 0x0 PUSH1 0x20 DUP3 ADD SWAP1 POP SWAP2 SWAP1 POP JUMP JUMPDEST PUSH1 0x0 PUSH2 0x1526 DUP3 PUSH2 0x1434 JUMP JUMPDEST PUSH2 0x1530 DUP2 DUP6 PUSH2 0x143F JUMP JUMPDEST SWAP4 POP DUP4 PUSH1 0x20 DUP3 MUL DUP6 ADD PUSH2 0x1542 DUP6 PUSH2 0x1450 JUMP JUMPDEST DUP1 PUSH1 0x0 JUMPDEST DUP6 DUP2 LT ISZERO PUSH2 0x157E JUMPI DUP5 DUP5 SUB DUP10 MSTORE DUP2 MLOAD PUSH2 0x155F DUP6 DUP3 PUSH2 0x14FA JUMP JUMPDEST SWAP5 POP PUSH2 0x156A DUP4 PUSH2 0x150E JUMP JUMPDEST SWAP3 POP PUSH1 0x20 DUP11 ADD SWAP10 POP POP PUSH1 0x1 DUP2 ADD SWAP1 POP PUSH2 0x1546 JUMP JUMPDEST POP DUP3 SWAP8 POP DUP8 SWAP6 POP POP POP POP POP POP SWAP3 SWAP2 POP POP JUMP JUMPDEST PUSH1 0x0 PUSH1 0x40 DUP4 ADD PUSH1 0x0 DUP4 ADD MLOAD PUSH2 0x15A8 PUSH1 0x0 DUP7 ADD DUP3 PUSH2 0x1258 JUMP JUMPDEST POP PUSH1 0x20 DUP4 ADD MLOAD DUP5 DUP3 SUB PUSH1 0x20 DUP7 ADD MSTORE PUSH2 0x15C0 DUP3 DUP3 PUSH2 0x151B JUMP JUMPDEST SWAP2 POP POP DUP1 SWAP2 POP POP SWAP3 SWAP2 POP POP JUMP JUMPDEST PUSH1 0x0 PUSH1 0x20 DUP3 ADD SWAP1 POP DUP2 DUP2 SUB PUSH1 0x0 DUP4 ADD MSTORE PUSH2 0x15E7 DUP2 DUP5 PUSH2 0x1590 JUMP JUMPDEST SWAP1 POP SWAP3 SWAP2 POP POP JUMP JUMPDEST PUSH1 0x0 DUP1 PUSH1 0x0 DUP1 PUSH1 0x80 DUP6 DUP8 SUB SLT ISZERO PUSH2 0x1609 JUMPI PUSH2 0x1608 PUSH2 0xF3C JUMP JUMPDEST JUMPDEST PUSH1 0x0 PUSH2 0x1617 DUP8 DUP3 DUP9 ADD PUSH2 0xF8F JUMP JUMPDEST SWAP5 POP POP PUSH1 0x20 PUSH2 0x1628 DUP8 DUP3 DUP9 ADD PUSH2 0xF8F JUMP JUMPDEST SWAP4 POP POP PUSH1 0x40 DUP6 ADD CALLDATALOAD PUSH8 0xFFFFFFFFFFFFFFFF DUP2 GT ISZERO PUSH2 0x1649 JUMPI PUSH2 0x1648 PUSH2 0xF41 JUMP JUMPDEST JUMPDEST PUSH2 0x1655 DUP8 DUP3 DUP9 ADD PUSH2 0x10C6 JUMP JUMPDEST SWAP3 POP POP PUSH1 0x60 DUP6 ADD CALLDATALOAD PUSH8 0xFFFFFFFFFFFFFFFF DUP2 GT ISZERO PUSH2 0x1676 JUMPI PUSH2 0x1675 PUSH2 0xF41 JUMP JUMPDEST JUMPDEST PUSH2 0x1682 DUP8 DUP3 DUP9 ADD PUSH2 0x10C6 JUMP JUMPDEST SWAP2 POP POP SWAP3 SWAP6 SWAP2 SWAP5 POP SWAP3 POP JUMP JUMPDEST PUSH2 0x1697 DUP2 PUSH2 0x124C JUMP JUMPDEST DUP3 MSTORE POP POP JUMP JUMPDEST PUSH1 0x0 PUSH1 0x20 DUP3 ADD SWAP1 POP PUSH2 0x16B2 PUSH1 0x0 DUP4 ADD DUP5 PUSH2 0x168E JUMP JUMPDEST SWAP3 SWAP2 POP POP JUMP JUMPDEST PUSH1 0x0 PUSH1 0x80 DUP3 DUP5 SUB SLT ISZERO PUSH2 0x16CE JUMPI PUSH2 0x16CD PUSH2 0xFA4 JUMP JUMPDEST JUMPDEST PUSH2 0x16D8 PUSH1 0x80 PUSH2 0x101A JUMP JUMPDEST SWAP1 POP PUSH1 0x0 PUSH2 0x16E8 DUP5 DUP3 DUP6 ADD PUSH2 0xF8F JUMP JUMPDEST PUSH1 0x0 DUP4 ADD MSTORE POP PUSH1 0x20 DUP3 ADD CALLDATALOAD PUSH8 0xFFFFFFFFFFFFFFFF DUP2 GT ISZERO PUSH2 0x170C JUMPI PUSH2 0x170B PUSH2 0x1035 JUMP JUMPDEST JUMPDEST PUSH2 0x1718 DUP5 DUP3 DUP6 ADD PUSH2 0x10C6 JUMP JUMPDEST PUSH1 0x20 DUP4 ADD MSTORE POP PUSH1 0x40 DUP3 ADD CALLDATALOAD PUSH8 0xFFFFFFFFFFFFFFFF DUP2 GT ISZERO PUSH2 0x173C JUMPI PUSH2 0x173B PUSH2 0x1035 JUMP JUMPDEST JUMPDEST PUSH2 0x1748 DUP5 DUP3 DUP6 ADD PUSH2 0x10C6 JUMP JUMPDEST PUSH1 0x40 DUP4 ADD MSTORE POP PUSH1 0x60 DUP3 ADD CALLDATALOAD PUSH8 0xFFFFFFFFFFFFFFFF DUP2 GT ISZERO PUSH2 0x176C JUMPI PUSH2 0x176B PUSH2 0x1035 JUMP JUMPDEST JUMPDEST PUSH2 0x1778 DUP5 DUP3 DUP6 ADD PUSH2 0x10C6 JUMP JUMPDEST PUSH1 0x60 DUP4 ADD MSTORE POP SWAP3 SWAP2 POP POP JUMP JUMPDEST PUSH1 0x0 DUP1 PUSH1 0x40 DUP4 DUP6 SUB SLT ISZERO PUSH2 0x179B JUMPI PUSH2 0x179A PUSH2 0xF3C JUMP JUMPDEST JUMPDEST PUSH1 0x0 DUP4 ADD CALLDATALOAD PUSH8 0xFFFFFFFFFFFFFFFF DUP2 GT ISZERO PUSH2 0x17B9 JUMPI PUSH2 0x17B8 PUSH2 0xF41 JUMP JUMPDEST JUMPDEST PUSH2 0x17C5 DUP6 DUP3 DUP7 ADD PUSH2 0x16B8 JUMP JUMPDEST SWAP3 POP POP PUSH1 0x20 DUP4 ADD CALLDATALOAD PUSH8 0xFFFFFFFFFFFFFFFF DUP2 GT ISZERO PUSH2 0x17E6 JUMPI PUSH2 0x17E5 PUSH2 0xF41 JUMP JUMPDEST JUMPDEST PUSH2 0x17F2 DUP6 DUP3 DUP7 ADD PUSH2 0x10F4 JUMP JUMPDEST SWAP2 POP POP SWAP3 POP SWAP3 SWAP1 POP JUMP JUMPDEST PUSH1 0x0 PUSH1 0x40 DUP4 ADD PUSH1 0x0 DUP4 ADD MLOAD PUSH2 0x1814 PUSH1 0x0 DUP7 ADD DUP3 PUSH2 0x1258 JUMP JUMPDEST POP PUSH1 0x20 DUP4 ADD MLOAD DUP5 DUP3 SUB PUSH1 0x20 DUP7 ADD MSTORE PUSH2 0x182C DUP3 DUP3 PUSH2 0x12D9 JUMP JUMPDEST SWAP2 POP POP DUP1 SWAP2 POP POP SWAP3 SWAP2 POP POP JUMP JUMPDEST PUSH1 0x0 PUSH1 0x20 DUP3 ADD SWAP1 POP DUP2 DUP2 SUB PUSH1 0x0 DUP4 ADD MSTORE PUSH2 0x1853 DUP2 DUP5 PUSH2 0x17FC JUMP JUMPDEST SWAP1 POP SWAP3 SWAP2 POP POP JUMP JUMPDEST PUSH1 0x0 PUSH8 0xFFFFFFFFFFFFFFFF DUP3 GT ISZERO PUSH2 0x1876 JUMPI PUSH2 0x1875 PUSH2 0xFBA JUMP JUMPDEST JUMPDEST PUSH1 0x20 DUP3 MUL SWAP1 POP PUSH1 0x20 DUP2 ADD SWAP1 POP SWAP2 SWAP1 POP JUMP JUMPDEST PUSH1 0x0 DUP1 REVERT JUMPDEST PUSH1 0x0 PUSH2 0x189F PUSH2 0x189A DUP5 PUSH2 0x185B JUMP JUMPDEST PUSH2 0x101A JUMP JUMPDEST SWAP1 POP DUP1 DUP4 DUP3 MSTORE PUSH1 0x20 DUP3 ADD SWAP1 POP PUSH1 0x20 DUP5 MUL DUP4 ADD DUP6 DUP2 GT ISZERO PUSH2 0x18C2 JUMPI PUSH2 0x18C1 PUSH2 0x1887 JUMP JUMPDEST JUMPDEST DUP4 JUMPDEST DUP2 DUP2 LT ISZERO PUSH2 0x1909 JUMPI DUP1 CALLDATALOAD PUSH8 0xFFFFFFFFFFFFFFFF DUP2 GT ISZERO PUSH2 0x18E7 JUMPI PUSH2 0x18E6 PUSH2 0x103A JUMP JUMPDEST JUMPDEST DUP1 DUP7 ADD PUSH2 0x18F4 DUP10 DUP3 PUSH2 0x10C6 JUMP JUMPDEST DUP6 MSTORE PUSH1 0x20 DUP6 ADD SWAP5 POP POP POP PUSH1 0x20 DUP2 ADD SWAP1 POP PUSH2 0x18C4 JUMP JUMPDEST POP POP POP SWAP4 SWAP3 POP POP POP JUMP JUMPDEST PUSH1 0x0 DUP3 PUSH1 0x1F DUP4 ADD SLT PUSH2 0x1928 JUMPI PUSH2 0x1927 PUSH2 0x103A JUMP JUMPDEST JUMPDEST DUP2 CALLDATALOAD PUSH2 0x1938 DUP5 DUP3 PUSH1 0x20 DUP7 ADD PUSH2 0x188C JUMP JUMPDEST SWAP2 POP POP SWAP3 SWAP2 POP POP JUMP JUMPDEST PUSH1 0x0 DUP1 PUSH1 0x0 PUSH1 0x60 DUP5 DUP7 SUB SLT ISZERO PUSH2 0x195A JUMPI PUSH2 0x1959 PUSH2 0xF3C JUMP JUMPDEST JUMPDEST PUSH1 0x0 PUSH2 0x1968 DUP7 DUP3 DUP8 ADD PUSH2 0xF8F JUMP JUMPDEST SWAP4 POP POP PUSH1 0x20 DUP5 ADD CALLDATALOAD PUSH8 0xFFFFFFFFFFFFFFFF DUP2 GT ISZERO PUSH2 0x1989 JUMPI PUSH2 0x1988 PUSH2 0xF41 JUMP JUMPDEST JUMPDEST PUSH2 0x1995 DUP7 DUP3 DUP8 ADD PUSH2 0x10F4 JUMP JUMPDEST SWAP3 POP POP PUSH1 0x40 DUP5 ADD CALLDATALOAD PUSH8 0xFFFFFFFFFFFFFFFF DUP2 GT ISZERO PUSH2 0x19B6 JUMPI PUSH2 0x19B5 PUSH2 0xF41 JUMP JUMPDEST JUMPDEST PUSH2 0x19C2 DUP7 DUP3 DUP8 ADD PUSH2 0x1913 JUMP JUMPDEST SWAP2 POP POP SWAP3 POP SWAP3 POP SWAP3 JUMP JUMPDEST PUSH1 0x0 DUP1 PUSH1 0x0 DUP1 PUSH1 0x80 DUP6 DUP8 SUB SLT ISZERO PUSH2 0x19E6 JUMPI PUSH2 0x19E5 PUSH2 0xF3C JUMP JUMPDEST JUMPDEST PUSH1 0x0 PUSH2 0x19F4 DUP8 DUP3 DUP9 ADD PUSH2 0xF8F JUMP JUMPDEST SWAP5 POP POP PUSH1 0x20 DUP6 ADD CALLDATALOAD PUSH8 0xFFFFFFFFFFFFFFFF DUP2 GT ISZERO PUSH2 0x1A15 JUMPI PUSH2 0x1A14 PUSH2 0xF41 JUMP JUMPDEST JUMPDEST PUSH2 0x1A21 DUP8 DUP3 DUP9 ADD PUSH2 0x10F4 JUMP JUMPDEST SWAP4 POP POP PUSH1 0x40 DUP6 ADD CALLDATALOAD PUSH8 0xFFFFFFFFFFFFFFFF DUP2 GT ISZERO PUSH2 0x1A42 JUMPI PUSH2 0x1A41 PUSH2 0xF41 JUMP JUMPDEST JUMPDEST PUSH2 0x1A4E DUP8 DUP3 DUP9 ADD PUSH2 0x10C6 JUMP JUMPDEST SWAP3 POP POP PUSH1 0x60 DUP6 ADD CALLDATALOAD PUSH8 0xFFFFFFFFFFFFFFFF DUP2 GT ISZERO PUSH2 0x1A6F JUMPI PUSH2 0x1A6E PUSH2 0xF41 JUMP JUMPDEST JUMPDEST PUSH2 0x1A7B DUP8 DUP3 DUP9 ADD PUSH2 0x1913 JUMP JUMPDEST SWAP2 POP POP SWAP3 SWAP6 SWAP2 SWAP5 POP SWAP3 POP JUMP JUMPDEST PUSH32 0x4E487B7100000000000000000000000000000000000000000000000000000000 PUSH1 0x0 MSTORE PUSH1 0x32 PUSH1 0x4 MSTORE PUSH1 0x24 PUSH1 0x0 REVERT JUMPDEST PUSH32 0x4E487B7100000000000000000000000000000000000000000000000000000000 PUSH1 0x0 MSTORE PUSH1 0x22 PUSH1 0x4 MSTORE PUSH1 0x24 PUSH1 0x0 REVERT JUMPDEST PUSH1 0x0 PUSH1 0x2 DUP3 DIV SWAP1 POP PUSH1 0x1 DUP3 AND DUP1 PUSH2 0x1AFD JUMPI PUSH1 0x7F DUP3 AND SWAP2 POP JUMPDEST PUSH1 0x20 DUP3 LT DUP2 SUB PUSH2 0x1B10 JUMPI PUSH2 0x1B0F PUSH2 0x1AB6 JUMP JUMPDEST JUMPDEST POP SWAP2 SWAP1 POP JUMP JUMPDEST PUSH32 0x4E487B7100000000000000000000000000000000000000000000000000000000 PUSH1 0x0 MSTORE PUSH1 0x11 PUSH1 0x4 MSTORE PUSH1 0x24 PUSH1 0x0 REVERT JUMPDEST PUSH1 0x0 DUP2 SWAP1 POP SWAP2 SWAP1 POP JUMP JUMPDEST PUSH1 0x0 PUSH2 0x1B5A DUP3 PUSH2 0x1B45 JUMP JUMPDEST SWAP2 POP PUSH32 0xFFFFFFFFFFFFFFFFFFFFFFFFFFFFFFFFFFFFFFFFFFFFFFFFFFFFFFFFFFFFFFFF DUP3 SUB PUSH2 0x1B8C JUMPI PUSH2 0x1B8B PUSH2 0x1B16 JUMP JUMPDEST JUMPDEST PUSH1 0x1 DUP3 ADD SWAP1 POP SWAP2 SWAP1 POP JUMP JUMPDEST PUSH1 0x0 DUP3 DUP3 MSTORE PUSH1 0x20 DUP3 ADD SWAP1 POP SWAP3 SWAP2 POP POP JUMP JUMPDEST PUSH1 0x0 PUSH2 0x1BB3 DUP3 PUSH2 0x1293 JUMP JUMPDEST PUSH2 0x1BBD DUP2 DUP6 PUSH2 0x1B97 JUMP JUMPDEST SWAP4 POP PUSH2 0x1BCD DUP2 DUP6 PUSH1 0x20 DUP7 ADD PUSH2 0x12AF JUMP JUMPDEST PUSH2 0x1BD6 DUP2 PUSH2 0xFA9 JUMP JUMPDEST DUP5 ADD SWAP2 POP POP SWAP3 SWAP2 POP POP JUMP JUMPDEST PUSH1 0x0 PUSH1 0x20 DUP3 ADD SWAP1 POP DUP2 DUP2 SUB PUSH1 0x0 DUP4 ADD MSTORE PUSH2 0x1BFB DUP2 DUP5 PUSH2 0x1BA8 JUMP JUMPDEST SWAP1 POP SWAP3 SWAP2 POP POP JUMP JUMPDEST PUSH2 0x1C0C DUP2 PUSH2 0x124C JUMP JUMPDEST DUP2 EQ PUSH2 0x1C17 JUMPI PUSH1 0x0 DUP1 REVERT JUMPDEST POP JUMP JUMPDEST PUSH1 0x0 DUP2 MLOAD SWAP1 POP PUSH2 0x1C29 DUP2 PUSH2 0x1C03 JUMP JUMPDEST SWAP3 SWAP2 POP POP JUMP JUMPDEST PUSH1 0x0 PUSH2 0x1C42 PUSH2 0x1C3D DUP5 PUSH2 0x1044 JUMP JUMPDEST PUSH2 0x101A JUMP JUMPDEST SWAP1 POP DUP3 DUP2 MSTORE PUSH1 0x20 DUP2 ADD DUP5 DUP5 DUP5 ADD GT ISZERO PUSH2 0x1C5E JUMPI PUSH2 0x1C5D PUSH2 0x103F JUMP JUMPDEST JUMPDEST PUSH2 0x1C69 DUP5 DUP3 DUP6 PUSH2 0x12AF JUMP JUMPDEST POP SWAP4 SWAP3 POP POP POP JUMP JUMPDEST PUSH1 0x0 DUP3 PUSH1 0x1F DUP4 ADD SLT PUSH2 0x1C86 JUMPI PUSH2 0x1C85 PUSH2 0x103A JUMP JUMPDEST JUMPDEST DUP2 MLOAD PUSH2 0x1C96 DUP5 DUP3 PUSH1 0x20 DUP7 ADD PUSH2 0x1C2F JUMP JUMPDEST SWAP2 POP POP SWAP3 SWAP2 POP POP JUMP JUMPDEST PUSH1 0x0 DUP2 MLOAD SWAP1 POP PUSH2 0x1CAE DUP2 PUSH2 0xF78 JUMP JUMPDEST SWAP3 SWAP2 POP POP JUMP JUMPDEST PUSH1 0x0 PUSH1 0xA0 DUP3 DUP5 SUB SLT ISZERO PUSH2 0x1CCA JUMPI PUSH2 0x1CC9 PUSH2 0xFA4 JUMP JUMPDEST JUMPDEST PUSH2 0x1CD4 PUSH1 0xA0 PUSH2 0x101A JUMP JUMPDEST SWAP1 POP PUSH1 0x0 DUP3 ADD MLOAD PUSH8 0xFFFFFFFFFFFFFFFF DUP2 GT ISZERO PUSH2 0x1CF4 JUMPI PUSH2 0x1CF3 PUSH2 0x1035 JUMP JUMPDEST JUMPDEST PUSH2 0x1D00 DUP5 DUP3 DUP6 ADD PUSH2 0x1C71 JUMP JUMPDEST PUSH1 0x0 DUP4 ADD MSTORE POP PUSH1 0x20 DUP3 ADD MLOAD PUSH8 0xFFFFFFFFFFFFFFFF DUP2 GT ISZERO PUSH2 0x1D24 JUMPI PUSH2 0x1D23 PUSH2 0x1035 JUMP JUMPDEST JUMPDEST PUSH2 0x1D30 DUP5 DUP3 DUP6 ADD PUSH2 0x1C71 JUMP JUMPDEST PUSH1 0x20 DUP4 ADD MSTORE POP PUSH1 0x40 PUSH2 0x1D44 DUP5 DUP3 DUP6 ADD PUSH2 0x1C9F JUMP JUMPDEST PUSH1 0x40 DUP4 ADD MSTORE POP PUSH1 0x60 DUP3 ADD MLOAD PUSH8 0xFFFFFFFFFFFFFFFF DUP2 GT ISZERO PUSH2 0x1D68 JUMPI PUSH2 0x1D67 PUSH2 0x1035 JUMP JUMPDEST JUMPDEST PUSH2 0x1D74 DUP5 DUP3 DUP6 ADD PUSH2 0x1C71 JUMP JUMPDEST PUSH1 0x60 DUP4 ADD MSTORE POP PUSH1 0x80 DUP3 ADD MLOAD PUSH8 0xFFFFFFFFFFFFFFFF DUP2 GT ISZERO PUSH2 0x1D98 JUMPI PUSH2 0x1D97 PUSH2 0x1035 JUMP JUMPDEST JUMPDEST PUSH2 0x1DA4 DUP5 DUP3 DUP6 ADD PUSH2 0x1C71 JUMP JUMPDEST PUSH1 0x80 DUP4 ADD MSTORE POP SWAP3 SWAP2 POP POP JUMP JUMPDEST PUSH1 0x0 PUSH1 0x40 DUP3 DUP5 SUB SLT ISZERO PUSH2 0x1DC6 JUMPI PUSH2 0x1DC5 PUSH2 0xFA4 JUMP JUMPDEST JUMPDEST PUSH2 0x1DD0 PUSH1 0x40 PUSH2 0x101A JUMP JUMPDEST SWAP1 POP PUSH1 0x0 PUSH2 0x1DE0 DUP5 DUP3 DUP6 ADD PUSH2 0x1C1A JUMP JUMPDEST PUSH1 0x0 DUP4 ADD MSTORE POP PUSH1 0x20 DUP3 ADD MLOAD PUSH8 0xFFFFFFFFFFFFFFFF DUP2 GT ISZERO PUSH2 0x1E04 JUMPI PUSH2 0x1E03 PUSH2 0x1035 JUMP JUMPDEST JUMPDEST PUSH2 0x1E10 DUP5 DUP3 DUP6 ADD PUSH2 0x1CB4 JUMP JUMPDEST PUSH1 0x20 DUP4 ADD MSTORE POP SWAP3 SWAP2 POP POP JUMP JUMPDEST PUSH1 0x0 PUSH1 0x20 DUP3 DUP5 SUB SLT ISZERO PUSH2 0x1E32 JUMPI PUSH2 0x1E31 PUSH2 0xF3C JUMP JUMPDEST JUMPDEST PUSH1 0x0 DUP3 ADD MLOAD PUSH8 0xFFFFFFFFFFFFFFFF DUP2 GT ISZERO PUSH2 0x1E50 JUMPI PUSH2 0x1E4F PUSH2 0xF41 JUMP JUMPDEST JUMPDEST PUSH2 0x1E5C DUP5 DUP3 DUP6 ADD PUSH2 0x1DB0 JUMP JUMPDEST SWAP2 POP POP SWAP3 SWAP2 POP POP JUMP JUMPDEST PUSH1 0x0 DUP2 SWAP1 POP SWAP3 SWAP2 POP POP JUMP JUMPDEST PUSH1 0x0 PUSH2 0x1E7B DUP3 PUSH2 0x1293 JUMP JUMPDEST PUSH2 0x1E85 DUP2 DUP6 PUSH2 0x1E65 JUMP JUMPDEST SWAP4 POP PUSH2 0x1E95 DUP2 DUP6 PUSH1 0x20 DUP7 ADD PUSH2 0x12AF JUMP JUMPDEST DUP1 DUP5 ADD SWAP2 POP POP SWAP3 SWAP2 POP POP JUMP JUMPDEST PUSH1 0x0 PUSH2 0x1EAD DUP3 DUP5 PUSH2 0x1E70 JUMP JUMPDEST SWAP2 POP DUP2 SWAP1 POP SWAP3 SWAP2 POP POP JUMP JUMPDEST PUSH1 0x0 DUP2 SWAP1 POP DUP2 PUSH1 0x0 MSTORE PUSH1 0x20 PUSH1 0x0 KECCAK256 SWAP1 POP SWAP2 SWAP1 POP JUMP JUMPDEST PUSH1 0x0 PUSH1 0x20 PUSH1 0x1F DUP4 ADD DIV SWAP1 POP SWAP2 SWAP1 POP JUMP JUMPDEST PUSH1 0x0 DUP3 DUP3 SHL SWAP1 POP SWAP3 SWAP2 POP POP JUMP JUMPDEST PUSH1 0x0 PUSH1 0x8 DUP4 MUL PUSH2 0x1F1A PUSH32 0xFFFFFFFFFFFFFFFFFFFFFFFFFFFFFFFFFFFFFFFFFFFFFFFFFFFFFFFFFFFFFFFF DUP3 PUSH2 0x1EDD JUMP JUMPDEST PUSH2 0x1F24 DUP7 DUP4 PUSH2 0x1EDD JUMP JUMPDEST SWAP6 POP DUP1 NOT DUP5 AND SWAP4 POP DUP1 DUP7 AND DUP5 OR SWAP3 POP POP POP SWAP4 SWAP3 POP POP POP JUMP JUMPDEST PUSH1 0x0 DUP2 SWAP1 POP SWAP2 SWAP1 POP JUMP JUMPDEST PUSH1 0x0 PUSH2 0x1F61 PUSH2 0x1F5C PUSH2 0x1F57 DUP5 PUSH2 0x1B45 JUMP JUMPDEST PUSH2 0x1F3C JUMP JUMPDEST PUSH2 0x1B45 JUMP JUMPDEST SWAP1 POP SWAP2 SWAP1 POP JUMP JUMPDEST PUSH1 0x0 DUP2 SWAP1 POP SWAP2 SWAP1 POP JUMP JUMPDEST PUSH2 0x1F7B DUP4 PUSH2 0x1F46 JUMP JUMPDEST PUSH2 0x1F8F PUSH2 0x1F87 DUP3 PUSH2 0x1F68 JUMP JUMPDEST DUP5 DUP5 SLOAD PUSH2 0x1EEA JUMP JUMPDEST DUP3 SSTORE POP POP POP POP JUMP JUMPDEST PUSH1 0x0 SWAP1 JUMP JUMPDEST PUSH2 0x1FA4 PUSH2 0x1F97 JUMP JUMPDEST PUSH2 0x1FAF DUP2 DUP5 DUP5 PUSH2 0x1F72 JUMP JUMPDEST POP POP POP JUMP JUMPDEST JUMPDEST DUP2 DUP2 LT ISZERO PUSH2 0x1FD3 JUMPI PUSH2 0x1FC8 PUSH1 0x0 DUP3 PUSH2 0x1F9C JUMP JUMPDEST PUSH1 0x1 DUP2 ADD SWAP1 POP PUSH2 0x1FB5 JUMP JUMPDEST POP POP JUMP JUMPDEST PUSH1 0x1F DUP3 GT ISZERO PUSH2 0x2018 JUMPI PUSH2 0x1FE9 DUP2 PUSH2 0x1EB8 JUMP JUMPDEST PUSH2 0x1FF2 DUP5 PUSH2 0x1ECD JUMP JUMPDEST DUP2 ADD PUSH1 0x20 DUP6 LT ISZERO PUSH2 0x2001 JUMPI DUP2 SWAP1 POP JUMPDEST PUSH2 0x2015 PUSH2 0x200D DUP6 PUSH2 0x1ECD JUMP JUMPDEST DUP4 ADD DUP3 PUSH2 0x1FB4 JUMP JUMPDEST POP POP JUMPDEST POP POP POP JUMP JUMPDEST PUSH1 0x0 DUP3 DUP3 SHR SWAP1 POP SWAP3 SWAP2 POP POP JUMP JUMPDEST PUSH1 0x0 PUSH2 0x203B PUSH1 0x0 NOT DUP5 PUSH1 0x8 MUL PUSH2 0x201D JUMP JUMPDEST NOT DUP1 DUP4 AND SWAP2 POP POP SWAP3 SWAP2 POP POP JUMP JUMPDEST PUSH1 0x0 PUSH2 0x2054 DUP4 DUP4 PUSH2 0x202A JUMP JUMPDEST SWAP2 POP DUP3 PUSH1 0x2 MUL DUP3 OR SWAP1 POP SWAP3 SWAP2 POP POP JUMP JUMPDEST PUSH2 0x206D DUP3 PUSH2 0x1293 JUMP JUMPDEST PUSH8 0xFFFFFFFFFFFFFFFF DUP2 GT ISZERO PUSH2 0x2086 JUMPI PUSH2 0x2085 PUSH2 0xFBA JUMP JUMPDEST JUMPDEST PUSH2 0x2090 DUP3 SLOAD PUSH2 0x1AE5 JUMP JUMPDEST PUSH2 0x209B DUP3 DUP3 DUP6 PUSH2 0x1FD7 JUMP JUMPDEST PUSH1 0x0 PUSH1 0x20 SWAP1 POP PUSH1 0x1F DUP4 GT PUSH1 0x1 DUP2 EQ PUSH2 0x20CE JUMPI PUSH1 0x0 DUP5 ISZERO PUSH2 0x20BC JUMPI DUP3 DUP8 ADD MLOAD SWAP1 POP JUMPDEST PUSH2 0x20C6 DUP6 DUP3 PUSH2 0x2048 JUMP JUMPDEST DUP7 SSTORE POP PUSH2 0x212E JUMP JUMPDEST PUSH1 0x1F NOT DUP5 AND PUSH2 0x20DC DUP7 PUSH2 0x1EB8 JUMP JUMPDEST PUSH1 0x0 JUMPDEST DUP3 DUP2 LT ISZERO PUSH2 0x2104 JUMPI DUP5 DUP10 ADD MLOAD DUP3 SSTORE PUSH1 0x1 DUP3 ADD SWAP2 POP PUSH1 0x20 DUP6 ADD SWAP5 POP PUSH1 0x20 DUP2 ADD SWAP1 POP PUSH2 0x20DF JUMP JUMPDEST DUP7 DUP4 LT ISZERO PUSH2 0x2121 JUMPI DUP5 DUP10 ADD MLOAD PUSH2 0x211D PUSH1 0x1F DUP10 AND DUP3 PUSH2 0x202A JUMP JUMPDEST DUP4 SSTORE POP JUMPDEST PUSH1 0x1 PUSH1 0x2 DUP9 MUL ADD DUP9 SSTORE POP POP POP JUMPDEST POP POP POP POP POP POP JUMP INVALID LOG2 PUSH5 0x6970667358 0x22 SLT KECCAK256 0xB2 0xB0 DIV BALANCE 0xE5 0xC 0xF6 TIMESTAMP MSTORE8 0xF6 0xCA PUSH28 0xA2A7A31D93112E6EE360C4E4B03F6C662AFA425E64736F6C63430008 SGT STOP CALLER "},"methodIdentifiers":{"addUserHasFile(address,(string,string,address,string,string),string,string[])":"e886e6e3","getEncSymmetricKeyFileUser((address,string,string,string),(string,string,address,string,string))":"5d02eece","getPermissionsOverFile(address,(string,string,address,string,string))":"1c0c2891","getUserFiles(address)":"1fc37922","isKeyEqual(address,address,string,string)":"5c99c71b","updateUserFilePermissions(address,(string,string,address,string,string),string[])":"b509210c","userAssociatedWithFile(address,(string,string,address,string,string))":"7b371f75"}}}}}