{"contracts/UserRegister.sol":{"UserRegister":{"abi":[{"anonymous":false,"inputs":[{"indexed":false,"internalType":"bool","name":"success","type":"bool"},{"components":[{"internalType":"address","name":"account","type":"address"},{"internalType":"string","name":"userName","type":"string"},{"internalType":"string","name":"publicKey","type":"string"},{"internalType":"string","name":"privateKey","type":"string"}],"indexed":false,"internalType":"struct UserRegister.User","name":"user","type":"tuple"}],"name":"ResultUser","type":"event"},{"inputs":[{"components":[{"internalType":"address","name":"account","type":"address"},{"internalType":"string","name":"userName","type":"string"},{"internalType":"string","name":"publicKey","type":"string"},{"internalType":"string","name":"privateKey","type":"string"}],"internalType":"struct UserRegister.User","name":"user","type":"tuple"}],"name":"canRegister","outputs":[{"internalType":"bool","name":"","type":"bool"}],"stateMutability":"view","type":"function"},{"inputs":[{"internalType":"address","name":"account","type":"address"}],"name":"existingAddress","outputs":[{"internalType":"bool","name":"","type":"bool"}],"stateMutability":"view","type":"function"},{"inputs":[{"internalType":"string","name":"userName","type":"string"}],"name":"existingUserName","outputs":[{"internalType":"bool","name":"","type":"bool"}],"stateMutability":"view","type":"function"},{"inputs":[{"internalType":"address","name":"account","type":"address"}],"name":"getPublicKey","outputs":[{"components":[{"internalType":"bool","name":"success","type":"bool"},{"internalType":"string","name":"publicKey","type":"string"}],"internalType":"struct UserRegister.ResultActionString","name":"","type":"tuple"}],"stateMutability":"view","type":"function"},{"inputs":[{"internalType":"address","name":"account","type":"address"}],"name":"getUser","outputs":[{"components":[{"internalType":"bool","name":"success","type":"bool"},{"components":[{"internalType":"address","name":"account","type":"address"},{"internalType":"string","name":"userName","type":"string"},{"internalType":"string","name":"publicKey","type":"string"},{"internalType":"string","name":"privateKey","type":"string"}],"internalType":"struct UserRegister.User","name":"user","type":"tuple"}],"internalType":"struct UserRegister.ResultAction","name":"","type":"tuple"}],"stateMutability":"view","type":"function"},{"inputs":[{"internalType":"string","name":"userName","type":"string"}],"name":"getUserAccount","outputs":[{"components":[{"internalType":"bool","name":"success","type":"bool"},{"internalType":"address","name":"account","type":"address"}],"internalType":"struct UserRegister.ResultActionAddress","name":"","type":"tuple"}],"stateMutability":"view","type":"function"},{"inputs":[{"internalType":"address","name":"userAccount","type":"address"},{"internalType":"address","name":"account","type":"address"}],"name":"isUserTheTrnsctExec","outputs":[{"internalType":"bool","name":"","type":"bool"}],"stateMutability":"pure","type":"function"},{"inputs":[{"components":[{"internalType":"address","name":"account","type":"address"},{"internalType":"string","name":"userName","type":"string"},{"internalType":"string","name":"publicKey","type":"string"},{"internalType":"string","name":"privateKey","type":"string"}],"internalType":"struct UserRegister.User","name":"user","type":"tuple"}],"name":"userRegistered","outputs":[],"stateMutability":"nonpayable","type":"function"}],"evm":{"bytecode":{"linkReferences":{},"object":"608060405234801561001057600080fd5b506115f1806100206000396000f3fe608060405234801561001057600080fd5b50600436106100885760003560e01c8063857cdbb81161005b578063857cdbb814610139578063a240e42614610169578063b0c22a5614610199578063eeb9ab18146101c957610088565b80632b4bce8b1461008d5780632c8e7110146100bd5780636f77926b146100ed57806375e9493f1461011d575b600080fd5b6100a760048036038101906100a29190610f35565b6101f9565b6040516100b49190610f99565b60405180910390f35b6100d760048036038101906100d29190610fb4565b610234565b6040516100e49190610f99565b60405180910390f35b61010760048036038101906101029190610ff4565b61026d565b604051610114919061116c565b60405180910390f35b61013760048036038101906101329190610f35565b610611565b005b610153600480360381019061014e9190610ff4565b61087c565b60405161016091906111cb565b60405180910390f35b610183600480360381019061017e9190610ff4565b610a30565b6040516101909190610f99565b60405180910390f35b6101b360048036038101906101ae91906111ed565b610ad9565b6040516101c09190610f99565b60405180910390f35b6101e360048036038101906101de91906111ed565b610b0e565b6040516101f09190611265565b60405180910390f35b60006102088260000151610a30565b8061021c575061021b8260200151610ad9565b5b1561022a576000905061022f565b600190505b919050565b60008173ffffffffffffffffffffffffffffffffffffffff168373ffffffffffffffffffffffffffffffffffffffff1614905092915050565b610275610bf9565b61027f8233610234565b1561058d57600073ffffffffffffffffffffffffffffffffffffffff166000808473ffffffffffffffffffffffffffffffffffffffff1673ffffffffffffffffffffffffffffffffffffffff16815260200190815260200160002060000160009054906101000a900473ffffffffffffffffffffffffffffffffffffffff1673ffffffffffffffffffffffffffffffffffffffff161461058c5760405180604001604052806001151581526020016000808573ffffffffffffffffffffffffffffffffffffffff1673ffffffffffffffffffffffffffffffffffffffff1681526020019081526020016000206040518060800160405290816000820160009054906101000a900473ffffffffffffffffffffffffffffffffffffffff1673ffffffffffffffffffffffffffffffffffffffff1673ffffffffffffffffffffffffffffffffffffffff1681526020016001820180546103dc906112af565b80601f0160208091040260200160405190810160405280929190818152602001828054610408906112af565b80156104555780601f1061042a57610100808354040283529160200191610455565b820191906000526020600020905b81548152906001019060200180831161043857829003601f168201915b5050505050815260200160028201805461046e906112af565b80601f016020809104026020016040519081016040528092919081815260200182805461049a906112af565b80156104e75780601f106104bc576101008083540402835291602001916104e7565b820191906000526020600020905b8154815290600101906020018083116104ca57829003601f168201915b50505050508152602001600382018054610500906112af565b80601f016020809104026020016040519081016040528092919081815260200182805461052c906112af565b80156105795780601f1061054e57610100808354040283529160200191610579565b820191906000526020600020905b81548152906001019060200180831161055c57829003601f168201915b505050505081525050815250905061060c565b5b60405180604001604052806000151581526020016040518060800160405280600073ffffffffffffffffffffffffffffffffffffffff1681526020016040518060200160405280600081525081526020016040518060200160405280600081525081526020016040518060200160405280600081525081525081525090505b919050565b61061f816000015133610234565b156108795761062d816101f9565b15610878576040518060800160405280826000015173ffffffffffffffffffffffffffffffffffffffff16815260200182602001518152602001826040015181526020018260600151815250600080836000015173ffffffffffffffffffffffffffffffffffffffff1673ffffffffffffffffffffffffffffffffffffffff16815260200190815260200160002060008201518160000160006101000a81548173ffffffffffffffffffffffffffffffffffffffff021916908373ffffffffffffffffffffffffffffffffffffffff16021790555060208201518160010190816107179190611496565b50604082015181600201908161072d9190611496565b5060608201518160030190816107439190611496565b509050506040518060800160405280826000015173ffffffffffffffffffffffffffffffffffffffff16815260200182602001518152602001826040015181526020018260600151815250600182602001516040516107a291906115a4565b908152602001604051809103902060008201518160000160006101000a81548173ffffffffffffffffffffffffffffffffffffffff021916908373ffffffffffffffffffffffffffffffffffffffff160217905550602082015181600101908161080c9190611496565b5060408201518160020190816108229190611496565b5060608201518160030190816108389190611496565b5090505060016002826020015160405161085291906115a4565b908152602001604051809103902060006101000a81548160ff0219169083151502179055505b5b50565b610884610c1b565b600073ffffffffffffffffffffffffffffffffffffffff166000808473ffffffffffffffffffffffffffffffffffffffff1673ffffffffffffffffffffffffffffffffffffffff16815260200190815260200160002060000160009054906101000a900473ffffffffffffffffffffffffffffffffffffffff1673ffffffffffffffffffffffffffffffffffffffff1614610a015760405180604001604052806001151581526020016000808573ffffffffffffffffffffffffffffffffffffffff1673ffffffffffffffffffffffffffffffffffffffff1681526020019081526020016000206002018054610979906112af565b80601f01602080910402602001604051908101604052809291908181526020018280546109a5906112af565b80156109f25780601f106109c7576101008083540402835291602001916109f2565b820191906000526020600020905b8154815290600101906020018083116109d557829003601f168201915b50505050508152509050610a2b565b60405180604001604052806000151581526020016040518060200160405280600081525081525090505b919050565b60008073ffffffffffffffffffffffffffffffffffffffff166000808473ffffffffffffffffffffffffffffffffffffffff1673ffffffffffffffffffffffffffffffffffffffff16815260200190815260200160002060000160009054906101000a900473ffffffffffffffffffffffffffffffffffffffff1673ffffffffffffffffffffffffffffffffffffffff1614610acf5760019050610ad4565b600090505b919050565b6000600282604051610aeb91906115a4565b908152602001604051809103902060009054906101000a900460ff169050919050565b610b16610c37565b6000600183604051610b2891906115a4565b90815260200160405180910390206001018054610b44906112af565b90501115610bc2576040518060400160405280600115158152602001600184604051610b7091906115a4565b908152602001604051809103902060000160009054906101000a900473ffffffffffffffffffffffffffffffffffffffff1673ffffffffffffffffffffffffffffffffffffffff168152509050610bf4565b6040518060400160405280600015158152602001600073ffffffffffffffffffffffffffffffffffffffff1681525090505b919050565b6040518060400160405280600015158152602001610c15610c69565b81525090565b6040518060400160405280600015158152602001606081525090565b6040518060400160405280600015158152602001600073ffffffffffffffffffffffffffffffffffffffff1681525090565b6040518060800160405280600073ffffffffffffffffffffffffffffffffffffffff1681526020016060815260200160608152602001606081525090565b6000604051905090565b600080fd5b600080fd5b600080fd5b6000601f19601f8301169050919050565b7f4e487b7100000000000000000000000000000000000000000000000000000000600052604160045260246000fd5b610d0982610cc0565b810181811067ffffffffffffffff82111715610d2857610d27610cd1565b5b80604052505050565b6000610d3b610ca7565b9050610d478282610d00565b919050565b600080fd5b600073ffffffffffffffffffffffffffffffffffffffff82169050919050565b6000610d7c82610d51565b9050919050565b610d8c81610d71565b8114610d9757600080fd5b50565b600081359050610da981610d83565b92915050565b600080fd5b600080fd5b600067ffffffffffffffff821115610dd457610dd3610cd1565b5b610ddd82610cc0565b9050602081019050919050565b82818337600083830152505050565b6000610e0c610e0784610db9565b610d31565b905082815260208101848484011115610e2857610e27610db4565b5b610e33848285610dea565b509392505050565b600082601f830112610e5057610e4f610daf565b5b8135610e60848260208601610df9565b91505092915050565b600060808284031215610e7f57610e7e610cbb565b5b610e896080610d31565b90506000610e9984828501610d9a565b600083015250602082013567ffffffffffffffff811115610ebd57610ebc610d4c565b5b610ec984828501610e3b565b602083015250604082013567ffffffffffffffff811115610eed57610eec610d4c565b5b610ef984828501610e3b565b604083015250606082013567ffffffffffffffff811115610f1d57610f1c610d4c565b5b610f2984828501610e3b565b60608301525092915050565b600060208284031215610f4b57610f4a610cb1565b5b600082013567ffffffffffffffff811115610f6957610f68610cb6565b5b610f7584828501610e69565b91505092915050565b60008115159050919050565b610f9381610f7e565b82525050565b6000602082019050610fae6000830184610f8a565b92915050565b60008060408385031215610fcb57610fca610cb1565b5b6000610fd985828601610d9a565b9250506020610fea85828601610d9a565b9150509250929050565b60006020828403121561100a57611009610cb1565b5b600061101884828501610d9a565b91505092915050565b61102a81610f7e565b82525050565b61103981610d71565b82525050565b600081519050919050565b600082825260208201905092915050565b60005b8381101561107957808201518184015260208101905061105e565b60008484015250505050565b60006110908261103f565b61109a818561104a565b93506110aa81856020860161105b565b6110b381610cc0565b840191505092915050565b60006080830160008301516110d66000860182611030565b50602083015184820360208601526110ee8282611085565b915050604083015184820360408601526111088282611085565b915050606083015184820360608601526111228282611085565b9150508091505092915050565b60006040830160008301516111476000860182611021565b506020830151848203602086015261115f82826110be565b9150508091505092915050565b60006020820190508181036000830152611186818461112f565b905092915050565b60006040830160008301516111a66000860182611021565b50602083015184820360208601526111be8282611085565b9150508091505092915050565b600060208201905081810360008301526111e5818461118e565b905092915050565b60006020828403121561120357611202610cb1565b5b600082013567ffffffffffffffff81111561122157611220610cb6565b5b61122d84828501610e3b565b91505092915050565b60408201600082015161124c6000850182611021565b50602082015161125f6020850182611030565b50505050565b600060408201905061127a6000830184611236565b92915050565b7f4e487b7100000000000000000000000000000000000000000000000000000000600052602260045260246000fd5b600060028204905060018216806112c757607f821691505b6020821081036112da576112d9611280565b5b50919050565b60008190508160005260206000209050919050565b60006020601f8301049050919050565b600082821b905092915050565b6000600883026113427fffffffffffffffffffffffffffffffffffffffffffffffffffffffffffffffff82611305565b61134c8683611305565b95508019841693508086168417925050509392505050565b6000819050919050565b6000819050919050565b600061139361138e61138984611364565b61136e565b611364565b9050919050565b6000819050919050565b6113ad83611378565b6113c16113b98261139a565b848454611312565b825550505050565b600090565b6113d66113c9565b6113e18184846113a4565b505050565b5b81811015611405576113fa6000826113ce565b6001810190506113e7565b5050565b601f82111561144a5761141b816112e0565b611424846112f5565b81016020851015611433578190505b61144761143f856112f5565b8301826113e6565b50505b505050565b600082821c905092915050565b600061146d6000198460080261144f565b1980831691505092915050565b6000611486838361145c565b9150826002028217905092915050565b61149f8261103f565b67ffffffffffffffff8111156114b8576114b7610cd1565b5b6114c282546112af565b6114cd828285611409565b600060209050601f83116001811461150057600084156114ee578287015190505b6114f8858261147a565b865550611560565b601f19841661150e866112e0565b60005b8281101561153657848901518255600182019150602085019450602081019050611511565b86831015611553578489015161154f601f89168261145c565b8355505b6001600288020188555050505b505050505050565b600081905092915050565b600061157e8261103f565b6115888185611568565b935061159881856020860161105b565b80840191505092915050565b60006115b08284611573565b91508190509291505056fea2646970667358221220020e2f341c212ac066e53626fcc5c730b28d68bd9864ec791ce0f55df9ad65bd64736f6c63430008130033","opcodes":"PUSH1 0x80 PUSH1 0x40 MSTORE CALLVALUE DUP1 ISZERO PUSH2 0x10 JUMPI PUSH1 0x0 DUP1 REVERT JUMPDEST POP PUSH2 0x15F1 DUP1 PUSH2 0x20 PUSH1 0x0 CODECOPY PUSH1 0x0 RETURN INVALID PUSH1 0x80 PUSH1 0x40 MSTORE CALLVALUE DUP1 ISZERO PUSH2 0x10 JUMPI PUSH1 0x0 DUP1 REVERT JUMPDEST POP PUSH1 0x4 CALLDATASIZE LT PUSH2 0x88 JUMPI PUSH1 0x0 CALLDATALOAD PUSH1 0xE0 SHR DUP1 PUSH4 0x857CDBB8 GT PUSH2 0x5B JUMPI DUP1 PUSH4 0x857CDBB8 EQ PUSH2 0x139 JUMPI DUP1 PUSH4 0xA240E426 EQ PUSH2 0x169 JUMPI DUP1 PUSH4 0xB0C22A56 EQ PUSH2 0x199 JUMPI DUP1 PUSH4 0xEEB9AB18 EQ PUSH2 0x1C9 JUMPI PUSH2 0x88 JUMP JUMPDEST DUP1 PUSH4 0x2B4BCE8B EQ PUSH2 0x8D JUMPI DUP1 PUSH4 0x2C8E7110 EQ PUSH2 0xBD JUMPI DUP1 PUSH4 0x6F77926B EQ PUSH2 0xED JUMPI DUP1 PUSH4 0x75E9493F EQ PUSH2 0x11D JUMPI JUMPDEST PUSH1 0x0 DUP1 REVERT JUMPDEST PUSH2 0xA7 PUSH1 0x4 DUP1 CALLDATASIZE SUB DUP2 ADD SWAP1 PUSH2 0xA2 SWAP2 SWAP1 PUSH2 0xF35 JUMP JUMPDEST PUSH2 0x1F9 JUMP JUMPDEST PUSH1 0x40 MLOAD PUSH2 0xB4 SWAP2 SWAP1 PUSH2 0xF99 JUMP JUMPDEST PUSH1 0x40 MLOAD DUP1 SWAP2 SUB SWAP1 RETURN JUMPDEST PUSH2 0xD7 PUSH1 0x4 DUP1 CALLDATASIZE SUB DUP2 ADD SWAP1 PUSH2 0xD2 SWAP2 SWAP1 PUSH2 0xFB4 JUMP JUMPDEST PUSH2 0x234 JUMP JUMPDEST PUSH1 0x40 MLOAD PUSH2 0xE4 SWAP2 SWAP1 PUSH2 0xF99 JUMP JUMPDEST PUSH1 0x40 MLOAD DUP1 SWAP2 SUB SWAP1 RETURN JUMPDEST PUSH2 0x107 PUSH1 0x4 DUP1 CALLDATASIZE SUB DUP2 ADD SWAP1 PUSH2 0x102 SWAP2 SWAP1 PUSH2 0xFF4 JUMP JUMPDEST PUSH2 0x26D JUMP JUMPDEST PUSH1 0x40 MLOAD PUSH2 0x114 SWAP2 SWAP1 PUSH2 0x116C JUMP JUMPDEST PUSH1 0x40 MLOAD DUP1 SWAP2 SUB SWAP1 RETURN JUMPDEST PUSH2 0x137 PUSH1 0x4 DUP1 CALLDATASIZE SUB DUP2 ADD SWAP1 PUSH2 0x132 SWAP2 SWAP1 PUSH2 0xF35 JUMP JUMPDEST PUSH2 0x611 JUMP JUMPDEST STOP JUMPDEST PUSH2 0x153 PUSH1 0x4 DUP1 CALLDATASIZE SUB DUP2 ADD SWAP1 PUSH2 0x14E SWAP2 SWAP1 PUSH2 0xFF4 JUMP JUMPDEST PUSH2 0x87C JUMP JUMPDEST PUSH1 0x40 MLOAD PUSH2 0x160 SWAP2 SWAP1 PUSH2 0x11CB JUMP JUMPDEST PUSH1 0x40 MLOAD DUP1 SWAP2 SUB SWAP1 RETURN JUMPDEST PUSH2 0x183 PUSH1 0x4 DUP1 CALLDATASIZE SUB DUP2 ADD SWAP1 PUSH2 0x17E SWAP2 SWAP1 PUSH2 0xFF4 JUMP JUMPDEST PUSH2 0xA30 JUMP JUMPDEST PUSH1 0x40 MLOAD PUSH2 0x190 SWAP2 SWAP1 PUSH2 0xF99 JUMP JUMPDEST PUSH1 0x40 MLOAD DUP1 SWAP2 SUB SWAP1 RETURN JUMPDEST PUSH2 0x1B3 PUSH1 0x4 DUP1 CALLDATASIZE SUB DUP2 ADD SWAP1 PUSH2 0x1AE SWAP2 SWAP1 PUSH2 0x11ED JUMP JUMPDEST PUSH2 0xAD9 JUMP JUMPDEST PUSH1 0x40 MLOAD PUSH2 0x1C0 SWAP2 SWAP1 PUSH2 0xF99 JUMP JUMPDEST PUSH1 0x40 MLOAD DUP1 SWAP2 SUB SWAP1 RETURN JUMPDEST PUSH2 0x1E3 PUSH1 0x4 DUP1 CALLDATASIZE SUB DUP2 ADD SWAP1 PUSH2 0x1DE SWAP2 SWAP1 PUSH2 0x11ED JUMP JUMPDEST PUSH2 0xB0E JUMP JUMPDEST PUSH1 0x40 MLOAD PUSH2 0x1F0 SWAP2 SWAP1 PUSH2 0x1265 JUMP JUMPDEST PUSH1 0x40 MLOAD DUP1 SWAP2 SUB SWAP1 RETURN JUMPDEST PUSH1 0x0 PUSH2 0x208 DUP3 PUSH1 0x0 ADD MLOAD PUSH2 0xA30 JUMP JUMPDEST DUP1 PUSH2 0x21C JUMPI POP PUSH2 0x21B DUP3 PUSH1 0x20 ADD MLOAD PUSH2 0xAD9 JUMP JUMPDEST JUMPDEST ISZERO PUSH2 0x22A JUMPI PUSH1 0x0 SWAP1 POP PUSH2 0x22F JUMP JUMPDEST PUSH1 0x1 SWAP1 POP JUMPDEST SWAP2 SWAP1 POP JUMP JUMPDEST PUSH1 0x0 DUP2 PUSH20 0xFFFFFFFFFFFFFFFFFFFFFFFFFFFFFFFFFFFFFFFF AND DUP4 PUSH20 0xFFFFFFFFFFFFFFFFFFFFFFFFFFFFFFFFFFFFFFFF AND EQ SWAP1 POP SWAP3 SWAP2 POP POP JUMP JUMPDEST PUSH2 0x275 PUSH2 0xBF9 JUMP JUMPDEST PUSH2 0x27F DUP3 CALLER PUSH2 0x234 JUMP JUMPDEST ISZERO PUSH2 0x58D JUMPI PUSH1 0x0 PUSH20 0xFFFFFFFFFFFFFFFFFFFFFFFFFFFFFFFFFFFFFFFF AND PUSH1 0x0 DUP1 DUP5 PUSH20 0xFFFFFFFFFFFFFFFFFFFFFFFFFFFFFFFFFFFFFFFF AND PUSH20 0xFFFFFFFFFFFFFFFFFFFFFFFFFFFFFFFFFFFFFFFF AND DUP2 MSTORE PUSH1 0x20 ADD SWAP1 DUP2 MSTORE PUSH1 0x20 ADD PUSH1 0x0 KECCAK256 PUSH1 0x0 ADD PUSH1 0x0 SWAP1 SLOAD SWAP1 PUSH2 0x100 EXP SWAP1 DIV PUSH20 0xFFFFFFFFFFFFFFFFFFFFFFFFFFFFFFFFFFFFFFFF AND PUSH20 0xFFFFFFFFFFFFFFFFFFFFFFFFFFFFFFFFFFFFFFFF AND EQ PUSH2 0x58C JUMPI PUSH1 0x40 MLOAD DUP1 PUSH1 0x40 ADD PUSH1 0x40 MSTORE DUP1 PUSH1 0x1 ISZERO ISZERO DUP2 MSTORE PUSH1 0x20 ADD PUSH1 0x0 DUP1 DUP6 PUSH20 0xFFFFFFFFFFFFFFFFFFFFFFFFFFFFFFFFFFFFFFFF AND PUSH20 0xFFFFFFFFFFFFFFFFFFFFFFFFFFFFFFFFFFFFFFFF AND DUP2 MSTORE PUSH1 0x20 ADD SWAP1 DUP2 MSTORE PUSH1 0x20 ADD PUSH1 0x0 KECCAK256 PUSH1 0x40 MLOAD DUP1 PUSH1 0x80 ADD PUSH1 0x40 MSTORE SWAP1 DUP2 PUSH1 0x0 DUP3 ADD PUSH1 0x0 SWAP1 SLOAD SWAP1 PUSH2 0x100 EXP SWAP1 DIV PUSH20 0xFFFFFFFFFFFFFFFFFFFFFFFFFFFFFFFFFFFFFFFF AND PUSH20 0xFFFFFFFFFFFFFFFFFFFFFFFFFFFFFFFFFFFFFFFF AND PUSH20 0xFFFFFFFFFFFFFFFFFFFFFFFFFFFFFFFFFFFFFFFF AND DUP2 MSTORE PUSH1 0x20 ADD PUSH1 0x1 DUP3 ADD DUP1 SLOAD PUSH2 0x3DC SWAP1 PUSH2 0x12AF JUMP JUMPDEST DUP1 PUSH1 0x1F ADD PUSH1 0x20 DUP1 SWAP2 DIV MUL PUSH1 0x20 ADD PUSH1 0x40 MLOAD SWAP1 DUP2 ADD PUSH1 0x40 MSTORE DUP1 SWAP3 SWAP2 SWAP1 DUP2 DUP2 MSTORE PUSH1 0x20 ADD DUP3 DUP1 SLOAD PUSH2 0x408 SWAP1 PUSH2 0x12AF JUMP JUMPDEST DUP1 ISZERO PUSH2 0x455 JUMPI DUP1 PUSH1 0x1F LT PUSH2 0x42A JUMPI PUSH2 0x100 DUP1 DUP4 SLOAD DIV MUL DUP4 MSTORE SWAP2 PUSH1 0x20 ADD SWAP2 PUSH2 0x455 JUMP JUMPDEST DUP3 ADD SWAP2 SWAP1 PUSH1 0x0 MSTORE PUSH1 0x20 PUSH1 0x0 KECCAK256 SWAP1 JUMPDEST DUP2 SLOAD DUP2 MSTORE SWAP1 PUSH1 0x1 ADD SWAP1 PUSH1 0x20 ADD DUP1 DUP4 GT PUSH2 0x438 JUMPI DUP3 SWAP1 SUB PUSH1 0x1F AND DUP3 ADD SWAP2 JUMPDEST POP POP POP POP POP DUP2 MSTORE PUSH1 0x20 ADD PUSH1 0x2 DUP3 ADD DUP1 SLOAD PUSH2 0x46E SWAP1 PUSH2 0x12AF JUMP JUMPDEST DUP1 PUSH1 0x1F ADD PUSH1 0x20 DUP1 SWAP2 DIV MUL PUSH1 0x20 ADD PUSH1 0x40 MLOAD SWAP1 DUP2 ADD PUSH1 0x40 MSTORE DUP1 SWAP3 SWAP2 SWAP1 DUP2 DUP2 MSTORE PUSH1 0x20 ADD DUP3 DUP1 SLOAD PUSH2 0x49A SWAP1 PUSH2 0x12AF JUMP JUMPDEST DUP1 ISZERO PUSH2 0x4E7 JUMPI DUP1 PUSH1 0x1F LT PUSH2 0x4BC JUMPI PUSH2 0x100 DUP1 DUP4 SLOAD DIV MUL DUP4 MSTORE SWAP2 PUSH1 0x20 ADD SWAP2 PUSH2 0x4E7 JUMP JUMPDEST DUP3 ADD SWAP2 SWAP1 PUSH1 0x0 MSTORE PUSH1 0x20 PUSH1 0x0 KECCAK256 SWAP1 JUMPDEST DUP2 SLOAD DUP2 MSTORE SWAP1 PUSH1 0x1 ADD SWAP1 PUSH1 0x20 ADD DUP1 DUP4 GT PUSH2 0x4CA JUMPI DUP3 SWAP1 SUB PUSH1 0x1F AND DUP3 ADD SWAP2 JUMPDEST POP POP POP POP POP DUP2 MSTORE PUSH1 0x20 ADD PUSH1 0x3 DUP3 ADD DUP1 SLOAD PUSH2 0x500 SWAP1 PUSH2 0x12AF JUMP JUMPDEST DUP1 PUSH1 0x1F ADD PUSH1 0x20 DUP1 SWAP2 DIV MUL PUSH1 0x20 ADD PUSH1 0x40 MLOAD SWAP1 DUP2 ADD PUSH1 0x40 MSTORE DUP1 SWAP3 SWAP2 SWAP1 DUP2 DUP2 MSTORE PUSH1 0x20 ADD DUP3 DUP1 SLOAD PUSH2 0x52C SWAP1 PUSH2 0x12AF JUMP JUMPDEST DUP1 ISZERO PUSH2 0x579 JUMPI DUP1 PUSH1 0x1F LT PUSH2 0x54E JUMPI PUSH2 0x100 DUP1 DUP4 SLOAD DIV MUL DUP4 MSTORE SWAP2 PUSH1 0x20 ADD SWAP2 PUSH2 0x579 JUMP JUMPDEST DUP3 ADD SWAP2 SWAP1 PUSH1 0x0 MSTORE PUSH1 0x20 PUSH1 0x0 KECCAK256 SWAP1 JUMPDEST DUP2 SLOAD DUP2 MSTORE SWAP1 PUSH1 0x1 ADD SWAP1 PUSH1 0x20 ADD DUP1 DUP4 GT PUSH2 0x55C JUMPI DUP3 SWAP1 SUB PUSH1 0x1F AND DUP3 ADD SWAP2 JUMPDEST POP POP POP POP POP DUP2 MSTORE POP POP DUP2 MSTORE POP SWAP1 POP PUSH2 0x60C JUMP JUMPDEST JUMPDEST PUSH1 0x40 MLOAD DUP1 PUSH1 0x40 ADD PUSH1 0x40 MSTORE DUP1 PUSH1 0x0 ISZERO ISZERO DUP2 MSTORE PUSH1 0x20 ADD PUSH1 0x40 MLOAD DUP1 PUSH1 0x80 ADD PUSH1 0x40 MSTORE DUP1 PUSH1 0x0 PUSH20 0xFFFFFFFFFFFFFFFFFFFFFFFFFFFFFFFFFFFFFFFF AND DUP2 MSTORE PUSH1 0x20 ADD PUSH1 0x40 MLOAD DUP1 PUSH1 0x20 ADD PUSH1 0x40 MSTORE DUP1 PUSH1 0x0 DUP2 MSTORE POP DUP2 MSTORE PUSH1 0x20 ADD PUSH1 0x40 MLOAD DUP1 PUSH1 0x20 ADD PUSH1 0x40 MSTORE DUP1 PUSH1 0x0 DUP2 MSTORE POP DUP2 MSTORE PUSH1 0x20 ADD PUSH1 0x40 MLOAD DUP1 PUSH1 0x20 ADD PUSH1 0x40 MSTORE DUP1 PUSH1 0x0 DUP2 MSTORE POP DUP2 MSTORE POP DUP2 MSTORE POP SWAP1 POP JUMPDEST SWAP2 SWAP1 POP JUMP JUMPDEST PUSH2 0x61F DUP2 PUSH1 0x0 ADD MLOAD CALLER PUSH2 0x234 JUMP JUMPDEST ISZERO PUSH2 0x879 JUMPI PUSH2 0x62D DUP2 PUSH2 0x1F9 JUMP JUMPDEST ISZERO PUSH2 0x878 JUMPI PUSH1 0x40 MLOAD DUP1 PUSH1 0x80 ADD PUSH1 0x40 MSTORE DUP1 DUP3 PUSH1 0x0 ADD MLOAD PUSH20 0xFFFFFFFFFFFFFFFFFFFFFFFFFFFFFFFFFFFFFFFF AND DUP2 MSTORE PUSH1 0x20 ADD DUP3 PUSH1 0x20 ADD MLOAD DUP2 MSTORE PUSH1 0x20 ADD DUP3 PUSH1 0x40 ADD MLOAD DUP2 MSTORE PUSH1 0x20 ADD DUP3 PUSH1 0x60 ADD MLOAD DUP2 MSTORE POP PUSH1 0x0 DUP1 DUP4 PUSH1 0x0 ADD MLOAD PUSH20 0xFFFFFFFFFFFFFFFFFFFFFFFFFFFFFFFFFFFFFFFF AND PUSH20 0xFFFFFFFFFFFFFFFFFFFFFFFFFFFFFFFFFFFFFFFF AND DUP2 MSTORE PUSH1 0x20 ADD SWAP1 DUP2 MSTORE PUSH1 0x20 ADD PUSH1 0x0 KECCAK256 PUSH1 0x0 DUP3 ADD MLOAD DUP2 PUSH1 0x0 ADD PUSH1 0x0 PUSH2 0x100 EXP DUP2 SLOAD DUP2 PUSH20 0xFFFFFFFFFFFFFFFFFFFFFFFFFFFFFFFFFFFFFFFF MUL NOT AND SWAP1 DUP4 PUSH20 0xFFFFFFFFFFFFFFFFFFFFFFFFFFFFFFFFFFFFFFFF AND MUL OR SWAP1 SSTORE POP PUSH1 0x20 DUP3 ADD MLOAD DUP2 PUSH1 0x1 ADD SWAP1 DUP2 PUSH2 0x717 SWAP2 SWAP1 PUSH2 0x1496 JUMP JUMPDEST POP PUSH1 0x40 DUP3 ADD MLOAD DUP2 PUSH1 0x2 ADD SWAP1 DUP2 PUSH2 0x72D SWAP2 SWAP1 PUSH2 0x1496 JUMP JUMPDEST POP PUSH1 0x60 DUP3 ADD MLOAD DUP2 PUSH1 0x3 ADD SWAP1 DUP2 PUSH2 0x743 SWAP2 SWAP1 PUSH2 0x1496 JUMP JUMPDEST POP SWAP1 POP POP PUSH1 0x40 MLOAD DUP1 PUSH1 0x80 ADD PUSH1 0x40 MSTORE DUP1 DUP3 PUSH1 0x0 ADD MLOAD PUSH20 0xFFFFFFFFFFFFFFFFFFFFFFFFFFFFFFFFFFFFFFFF AND DUP2 MSTORE PUSH1 0x20 ADD DUP3 PUSH1 0x20 ADD MLOAD DUP2 MSTORE PUSH1 0x20 ADD DUP3 PUSH1 0x40 ADD MLOAD DUP2 MSTORE PUSH1 0x20 ADD DUP3 PUSH1 0x60 ADD MLOAD DUP2 MSTORE POP PUSH1 0x1 DUP3 PUSH1 0x20 ADD MLOAD PUSH1 0x40 MLOAD PUSH2 0x7A2 SWAP2 SWAP1 PUSH2 0x15A4 JUMP JUMPDEST SWAP1 DUP2 MSTORE PUSH1 0x20 ADD PUSH1 0x40 MLOAD DUP1 SWAP2 SUB SWAP1 KECCAK256 PUSH1 0x0 DUP3 ADD MLOAD DUP2 PUSH1 0x0 ADD PUSH1 0x0 PUSH2 0x100 EXP DUP2 SLOAD DUP2 PUSH20 0xFFFFFFFFFFFFFFFFFFFFFFFFFFFFFFFFFFFFFFFF MUL NOT AND SWAP1 DUP4 PUSH20 0xFFFFFFFFFFFFFFFFFFFFFFFFFFFFFFFFFFFFFFFF AND MUL OR SWAP1 SSTORE POP PUSH1 0x20 DUP3 ADD MLOAD DUP2 PUSH1 0x1 ADD SWAP1 DUP2 PUSH2 0x80C SWAP2 SWAP1 PUSH2 0x1496 JUMP JUMPDEST POP PUSH1 0x40 DUP3 ADD MLOAD DUP2 PUSH1 0x2 ADD SWAP1 DUP2 PUSH2 0x822 SWAP2 SWAP1 PUSH2 0x1496 JUMP JUMPDEST POP PUSH1 0x60 DUP3 ADD MLOAD DUP2 PUSH1 0x3 ADD SWAP1 DUP2 PUSH2 0x838 SWAP2 SWAP1 PUSH2 0x1496 JUMP JUMPDEST POP SWAP1 POP POP PUSH1 0x1 PUSH1 0x2 DUP3 PUSH1 0x20 ADD MLOAD PUSH1 0x40 MLOAD PUSH2 0x852 SWAP2 SWAP1 PUSH2 0x15A4 JUMP JUMPDEST SWAP1 DUP2 MSTORE PUSH1 0x20 ADD PUSH1 0x40 MLOAD DUP1 SWAP2 SUB SWAP1 KECCAK256 PUSH1 0x0 PUSH2 0x100 EXP DUP2 SLOAD DUP2 PUSH1 0xFF MUL NOT AND SWAP1 DUP4 ISZERO ISZERO MUL OR SWAP1 SSTORE POP JUMPDEST JUMPDEST POP JUMP JUMPDEST PUSH2 0x884 PUSH2 0xC1B JUMP JUMPDEST PUSH1 0x0 PUSH20 0xFFFFFFFFFFFFFFFFFFFFFFFFFFFFFFFFFFFFFFFF AND PUSH1 0x0 DUP1 DUP5 PUSH20 0xFFFFFFFFFFFFFFFFFFFFFFFFFFFFFFFFFFFFFFFF AND PUSH20 0xFFFFFFFFFFFFFFFFFFFFFFFFFFFFFFFFFFFFFFFF AND DUP2 MSTORE PUSH1 0x20 ADD SWAP1 DUP2 MSTORE PUSH1 0x20 ADD PUSH1 0x0 KECCAK256 PUSH1 0x0 ADD PUSH1 0x0 SWAP1 SLOAD SWAP1 PUSH2 0x100 EXP SWAP1 DIV PUSH20 0xFFFFFFFFFFFFFFFFFFFFFFFFFFFFFFFFFFFFFFFF AND PUSH20 0xFFFFFFFFFFFFFFFFFFFFFFFFFFFFFFFFFFFFFFFF AND EQ PUSH2 0xA01 JUMPI PUSH1 0x40 MLOAD DUP1 PUSH1 0x40 ADD PUSH1 0x40 MSTORE DUP1 PUSH1 0x1 ISZERO ISZERO DUP2 MSTORE PUSH1 0x20 ADD PUSH1 0x0 DUP1 DUP6 PUSH20 0xFFFFFFFFFFFFFFFFFFFFFFFFFFFFFFFFFFFFFFFF AND PUSH20 0xFFFFFFFFFFFFFFFFFFFFFFFFFFFFFFFFFFFFFFFF AND DUP2 MSTORE PUSH1 0x20 ADD SWAP1 DUP2 MSTORE PUSH1 0x20 ADD PUSH1 0x0 KECCAK256 PUSH1 0x2 ADD DUP1 SLOAD PUSH2 0x979 SWAP1 PUSH2 0x12AF JUMP JUMPDEST DUP1 PUSH1 0x1F ADD PUSH1 0x20 DUP1 SWAP2 DIV MUL PUSH1 0x20 ADD PUSH1 0x40 MLOAD SWAP1 DUP2 ADD PUSH1 0x40 MSTORE DUP1 SWAP3 SWAP2 SWAP1 DUP2 DUP2 MSTORE PUSH1 0x20 ADD DUP3 DUP1 SLOAD PUSH2 0x9A5 SWAP1 PUSH2 0x12AF JUMP JUMPDEST DUP1 ISZERO PUSH2 0x9F2 JUMPI DUP1 PUSH1 0x1F LT PUSH2 0x9C7 JUMPI PUSH2 0x100 DUP1 DUP4 SLOAD DIV MUL DUP4 MSTORE SWAP2 PUSH1 0x20 ADD SWAP2 PUSH2 0x9F2 JUMP JUMPDEST DUP3 ADD SWAP2 SWAP1 PUSH1 0x0 MSTORE PUSH1 0x20 PUSH1 0x0 KECCAK256 SWAP1 JUMPDEST DUP2 SLOAD DUP2 MSTORE SWAP1 PUSH1 0x1 ADD SWAP1 PUSH1 0x20 ADD DUP1 DUP4 GT PUSH2 0x9D5 JUMPI DUP3 SWAP1 SUB PUSH1 0x1F AND DUP3 ADD SWAP2 JUMPDEST POP POP POP POP POP DUP2 MSTORE POP SWAP1 POP PUSH2 0xA2B JUMP JUMPDEST PUSH1 0x40 MLOAD DUP1 PUSH1 0x40 ADD PUSH1 0x40 MSTORE DUP1 PUSH1 0x0 ISZERO ISZERO DUP2 MSTORE PUSH1 0x20 ADD PUSH1 0x40 MLOAD DUP1 PUSH1 0x20 ADD PUSH1 0x40 MSTORE DUP1 PUSH1 0x0 DUP2 MSTORE POP DUP2 MSTORE POP SWAP1 POP JUMPDEST SWAP2 SWAP1 POP JUMP JUMPDEST PUSH1 0x0 DUP1 PUSH20 0xFFFFFFFFFFFFFFFFFFFFFFFFFFFFFFFFFFFFFFFF AND PUSH1 0x0 DUP1 DUP5 PUSH20 0xFFFFFFFFFFFFFFFFFFFFFFFFFFFFFFFFFFFFFFFF AND PUSH20 0xFFFFFFFFFFFFFFFFFFFFFFFFFFFFFFFFFFFFFFFF AND DUP2 MSTORE PUSH1 0x20 ADD SWAP1 DUP2 MSTORE PUSH1 0x20 ADD PUSH1 0x0 KECCAK256 PUSH1 0x0 ADD PUSH1 0x0 SWAP1 SLOAD SWAP1 PUSH2 0x100 EXP SWAP1 DIV PUSH20 0xFFFFFFFFFFFFFFFFFFFFFFFFFFFFFFFFFFFFFFFF AND PUSH20 0xFFFFFFFFFFFFFFFFFFFFFFFFFFFFFFFFFFFFFFFF AND EQ PUSH2 0xACF JUMPI PUSH1 0x1 SWAP1 POP PUSH2 0xAD4 JUMP JUMPDEST PUSH1 0x0 SWAP1 POP JUMPDEST SWAP2 SWAP1 POP JUMP JUMPDEST PUSH1 0x0 PUSH1 0x2 DUP3 PUSH1 0x40 MLOAD PUSH2 0xAEB SWAP2 SWAP1 PUSH2 0x15A4 JUMP JUMPDEST SWAP1 DUP2 MSTORE PUSH1 0x20 ADD PUSH1 0x40 MLOAD DUP1 SWAP2 SUB SWAP1 KECCAK256 PUSH1 0x0 SWAP1 SLOAD SWAP1 PUSH2 0x100 EXP SWAP1 DIV PUSH1 0xFF AND SWAP1 POP SWAP2 SWAP1 POP JUMP JUMPDEST PUSH2 0xB16 PUSH2 0xC37 JUMP JUMPDEST PUSH1 0x0 PUSH1 0x1 DUP4 PUSH1 0x40 MLOAD PUSH2 0xB28 SWAP2 SWAP1 PUSH2 0x15A4 JUMP JUMPDEST SWAP1 DUP2 MSTORE PUSH1 0x20 ADD PUSH1 0x40 MLOAD DUP1 SWAP2 SUB SWAP1 KECCAK256 PUSH1 0x1 ADD DUP1 SLOAD PUSH2 0xB44 SWAP1 PUSH2 0x12AF JUMP JUMPDEST SWAP1 POP GT ISZERO PUSH2 0xBC2 JUMPI PUSH1 0x40 MLOAD DUP1 PUSH1 0x40 ADD PUSH1 0x40 MSTORE DUP1 PUSH1 0x1 ISZERO ISZERO DUP2 MSTORE PUSH1 0x20 ADD PUSH1 0x1 DUP5 PUSH1 0x40 MLOAD PUSH2 0xB70 SWAP2 SWAP1 PUSH2 0x15A4 JUMP JUMPDEST SWAP1 DUP2 MSTORE PUSH1 0x20 ADD PUSH1 0x40 MLOAD DUP1 SWAP2 SUB SWAP1 KECCAK256 PUSH1 0x0 ADD PUSH1 0x0 SWAP1 SLOAD SWAP1 PUSH2 0x100 EXP SWAP1 DIV PUSH20 0xFFFFFFFFFFFFFFFFFFFFFFFFFFFFFFFFFFFFFFFF AND PUSH20 0xFFFFFFFFFFFFFFFFFFFFFFFFFFFFFFFFFFFFFFFF AND DUP2 MSTORE POP SWAP1 POP PUSH2 0xBF4 JUMP JUMPDEST PUSH1 0x40 MLOAD DUP1 PUSH1 0x40 ADD PUSH1 0x40 MSTORE DUP1 PUSH1 0x0 ISZERO ISZERO DUP2 MSTORE PUSH1 0x20 ADD PUSH1 0x0 PUSH20 0xFFFFFFFFFFFFFFFFFFFFFFFFFFFFFFFFFFFFFFFF AND DUP2 MSTORE POP SWAP1 POP JUMPDEST SWAP2 SWAP1 POP JUMP JUMPDEST PUSH1 0x40 MLOAD DUP1 PUSH1 0x40 ADD PUSH1 0x40 MSTORE DUP1 PUSH1 0x0 ISZERO ISZERO DUP2 MSTORE PUSH1 0x20 ADD PUSH2 0xC15 PUSH2 0xC69 JUMP JUMPDEST DUP2 MSTORE POP SWAP1 JUMP JUMPDEST PUSH1 0x40 MLOAD DUP1 PUSH1 0x40 ADD PUSH1 0x40 MSTORE DUP1 PUSH1 0x0 ISZERO ISZERO DUP2 MSTORE PUSH1 0x20 ADD PUSH1 0x60 DUP2 MSTORE POP SWAP1 JUMP JUMPDEST PUSH1 0x40 MLOAD DUP1 PUSH1 0x40 ADD PUSH1 0x40 MSTORE DUP1 PUSH1 0x0 ISZERO ISZERO DUP2 MSTORE PUSH1 0x20 ADD PUSH1 0x0 PUSH20 0xFFFFFFFFFFFFFFFFFFFFFFFFFFFFFFFFFFFFFFFF AND DUP2 MSTORE POP SWAP1 JUMP JUMPDEST PUSH1 0x40 MLOAD DUP1 PUSH1 0x80 ADD PUSH1 0x40 MSTORE DUP1 PUSH1 0x0 PUSH20 0xFFFFFFFFFFFFFFFFFFFFFFFFFFFFFFFFFFFFFFFF AND DUP2 MSTORE PUSH1 0x20 ADD PUSH1 0x60 DUP2 MSTORE PUSH1 0x20 ADD PUSH1 0x60 DUP2 MSTORE PUSH1 0x20 ADD PUSH1 0x60 DUP2 MSTORE POP SWAP1 JUMP JUMPDEST PUSH1 0x0 PUSH1 0x40 MLOAD SWAP1 POP SWAP1 JUMP JUMPDEST PUSH1 0x0 DUP1 REVERT JUMPDEST PUSH1 0x0 DUP1 REVERT JUMPDEST PUSH1 0x0 DUP1 REVERT JUMPDEST PUSH1 0x0 PUSH1 0x1F NOT PUSH1 0x1F DUP4 ADD AND SWAP1 POP SWAP2 SWAP1 POP JUMP JUMPDEST PUSH32 0x4E487B7100000000000000000000000000000000000000000000000000000000 PUSH1 0x0 MSTORE PUSH1 0x41 PUSH1 0x4 MSTORE PUSH1 0x24 PUSH1 0x0 REVERT JUMPDEST PUSH2 0xD09 DUP3 PUSH2 0xCC0 JUMP JUMPDEST DUP2 ADD DUP2 DUP2 LT PUSH8 0xFFFFFFFFFFFFFFFF DUP3 GT OR ISZERO PUSH2 0xD28 JUMPI PUSH2 0xD27 PUSH2 0xCD1 JUMP JUMPDEST JUMPDEST DUP1 PUSH1 0x40 MSTORE POP POP POP JUMP JUMPDEST PUSH1 0x0 PUSH2 0xD3B PUSH2 0xCA7 JUMP JUMPDEST SWAP1 POP PUSH2 0xD47 DUP3 DUP3 PUSH2 0xD00 JUMP JUMPDEST SWAP2 SWAP1 POP JUMP JUMPDEST PUSH1 0x0 DUP1 REVERT JUMPDEST PUSH1 0x0 PUSH20 0xFFFFFFFFFFFFFFFFFFFFFFFFFFFFFFFFFFFFFFFF DUP3 AND SWAP1 POP SWAP2 SWAP1 POP JUMP JUMPDEST PUSH1 0x0 PUSH2 0xD7C DUP3 PUSH2 0xD51 JUMP JUMPDEST SWAP1 POP SWAP2 SWAP1 POP JUMP JUMPDEST PUSH2 0xD8C DUP2 PUSH2 0xD71 JUMP JUMPDEST DUP2 EQ PUSH2 0xD97 JUMPI PUSH1 0x0 DUP1 REVERT JUMPDEST POP JUMP JUMPDEST PUSH1 0x0 DUP2 CALLDATALOAD SWAP1 POP PUSH2 0xDA9 DUP2 PUSH2 0xD83 JUMP JUMPDEST SWAP3 SWAP2 POP POP JUMP JUMPDEST PUSH1 0x0 DUP1 REVERT JUMPDEST PUSH1 0x0 DUP1 REVERT JUMPDEST PUSH1 0x0 PUSH8 0xFFFFFFFFFFFFFFFF DUP3 GT ISZERO PUSH2 0xDD4 JUMPI PUSH2 0xDD3 PUSH2 0xCD1 JUMP JUMPDEST JUMPDEST PUSH2 0xDDD DUP3 PUSH2 0xCC0 JUMP JUMPDEST SWAP1 POP PUSH1 0x20 DUP2 ADD SWAP1 POP SWAP2 SWAP1 POP JUMP JUMPDEST DUP3 DUP2 DUP4 CALLDATACOPY PUSH1 0x0 DUP4 DUP4 ADD MSTORE POP POP POP JUMP JUMPDEST PUSH1 0x0 PUSH2 0xE0C PUSH2 0xE07 DUP5 PUSH2 0xDB9 JUMP JUMPDEST PUSH2 0xD31 JUMP JUMPDEST SWAP1 POP DUP3 DUP2 MSTORE PUSH1 0x20 DUP2 ADD DUP5 DUP5 DUP5 ADD GT ISZERO PUSH2 0xE28 JUMPI PUSH2 0xE27 PUSH2 0xDB4 JUMP JUMPDEST JUMPDEST PUSH2 0xE33 DUP5 DUP3 DUP6 PUSH2 0xDEA JUMP JUMPDEST POP SWAP4 SWAP3 POP POP POP JUMP JUMPDEST PUSH1 0x0 DUP3 PUSH1 0x1F DUP4 ADD SLT PUSH2 0xE50 JUMPI PUSH2 0xE4F PUSH2 0xDAF JUMP JUMPDEST JUMPDEST DUP2 CALLDATALOAD PUSH2 0xE60 DUP5 DUP3 PUSH1 0x20 DUP7 ADD PUSH2 0xDF9 JUMP JUMPDEST SWAP2 POP POP SWAP3 SWAP2 POP POP JUMP JUMPDEST PUSH1 0x0 PUSH1 0x80 DUP3 DUP5 SUB SLT ISZERO PUSH2 0xE7F JUMPI PUSH2 0xE7E PUSH2 0xCBB JUMP JUMPDEST JUMPDEST PUSH2 0xE89 PUSH1 0x80 PUSH2 0xD31 JUMP JUMPDEST SWAP1 POP PUSH1 0x0 PUSH2 0xE99 DUP5 DUP3 DUP6 ADD PUSH2 0xD9A JUMP JUMPDEST PUSH1 0x0 DUP4 ADD MSTORE POP PUSH1 0x20 DUP3 ADD CALLDATALOAD PUSH8 0xFFFFFFFFFFFFFFFF DUP2 GT ISZERO PUSH2 0xEBD JUMPI PUSH2 0xEBC PUSH2 0xD4C JUMP JUMPDEST JUMPDEST PUSH2 0xEC9 DUP5 DUP3 DUP6 ADD PUSH2 0xE3B JUMP JUMPDEST PUSH1 0x20 DUP4 ADD MSTORE POP PUSH1 0x40 DUP3 ADD CALLDATALOAD PUSH8 0xFFFFFFFFFFFFFFFF DUP2 GT ISZERO PUSH2 0xEED JUMPI PUSH2 0xEEC PUSH2 0xD4C JUMP JUMPDEST JUMPDEST PUSH2 0xEF9 DUP5 DUP3 DUP6 ADD PUSH2 0xE3B JUMP JUMPDEST PUSH1 0x40 DUP4 ADD MSTORE POP PUSH1 0x60 DUP3 ADD CALLDATALOAD PUSH8 0xFFFFFFFFFFFFFFFF DUP2 GT ISZERO PUSH2 0xF1D JUMPI PUSH2 0xF1C PUSH2 0xD4C JUMP JUMPDEST JUMPDEST PUSH2 0xF29 DUP5 DUP3 DUP6 ADD PUSH2 0xE3B JUMP JUMPDEST PUSH1 0x60 DUP4 ADD MSTORE POP SWAP3 SWAP2 POP POP JUMP JUMPDEST PUSH1 0x0 PUSH1 0x20 DUP3 DUP5 SUB SLT ISZERO PUSH2 0xF4B JUMPI PUSH2 0xF4A PUSH2 0xCB1 JUMP JUMPDEST JUMPDEST PUSH1 0x0 DUP3 ADD CALLDATALOAD PUSH8 0xFFFFFFFFFFFFFFFF DUP2 GT ISZERO PUSH2 0xF69 JUMPI PUSH2 0xF68 PUSH2 0xCB6 JUMP JUMPDEST JUMPDEST PUSH2 0xF75 DUP5 DUP3 DUP6 ADD PUSH2 0xE69 JUMP JUMPDEST SWAP2 POP POP SWAP3 SWAP2 POP POP JUMP JUMPDEST PUSH1 0x0 DUP2 ISZERO ISZERO SWAP1 POP SWAP2 SWAP1 POP JUMP JUMPDEST PUSH2 0xF93 DUP2 PUSH2 0xF7E JUMP JUMPDEST DUP3 MSTORE POP POP JUMP JUMPDEST PUSH1 0x0 PUSH1 0x20 DUP3 ADD SWAP1 POP PUSH2 0xFAE PUSH1 0x0 DUP4 ADD DUP5 PUSH2 0xF8A JUMP JUMPDEST SWAP3 SWAP2 POP POP JUMP JUMPDEST PUSH1 0x0 DUP1 PUSH1 0x40 DUP4 DUP6 SUB SLT ISZERO PUSH2 0xFCB JUMPI PUSH2 0xFCA PUSH2 0xCB1 JUMP JUMPDEST JUMPDEST PUSH1 0x0 PUSH2 0xFD9 DUP6 DUP3 DUP7 ADD PUSH2 0xD9A JUMP JUMPDEST SWAP3 POP POP PUSH1 0x20 PUSH2 0xFEA DUP6 DUP3 DUP7 ADD PUSH2 0xD9A JUMP JUMPDEST SWAP2 POP POP SWAP3 POP SWAP3 SWAP1 POP JUMP JUMPDEST PUSH1 0x0 PUSH1 0x20 DUP3 DUP5 SUB SLT ISZERO PUSH2 0x100A JUMPI PUSH2 0x1009 PUSH2 0xCB1 JUMP JUMPDEST JUMPDEST PUSH1 0x0 PUSH2 0x1018 DUP5 DUP3 DUP6 ADD PUSH2 0xD9A JUMP JUMPDEST SWAP2 POP POP SWAP3 SWAP2 POP POP JUMP JUMPDEST PUSH2 0x102A DUP2 PUSH2 0xF7E JUMP JUMPDEST DUP3 MSTORE POP POP JUMP JUMPDEST PUSH2 0x1039 DUP2 PUSH2 0xD71 JUMP JUMPDEST DUP3 MSTORE POP POP JUMP JUMPDEST PUSH1 0x0 DUP2 MLOAD SWAP1 POP SWAP2 SWAP1 POP JUMP JUMPDEST PUSH1 0x0 DUP3 DUP3 MSTORE PUSH1 0x20 DUP3 ADD SWAP1 POP SWAP3 SWAP2 POP POP JUMP JUMPDEST PUSH1 0x0 JUMPDEST DUP4 DUP2 LT ISZERO PUSH2 0x1079 JUMPI DUP1 DUP3 ADD MLOAD DUP2 DUP5 ADD MSTORE PUSH1 0x20 DUP2 ADD SWAP1 POP PUSH2 0x105E JUMP JUMPDEST PUSH1 0x0 DUP5 DUP5 ADD MSTORE POP POP POP POP JUMP JUMPDEST PUSH1 0x0 PUSH2 0x1090 DUP3 PUSH2 0x103F JUMP JUMPDEST PUSH2 0x109A DUP2 DUP6 PUSH2 0x104A JUMP JUMPDEST SWAP4 POP PUSH2 0x10AA DUP2 DUP6 PUSH1 0x20 DUP7 ADD PUSH2 0x105B JUMP JUMPDEST PUSH2 0x10B3 DUP2 PUSH2 0xCC0 JUMP JUMPDEST DUP5 ADD SWAP2 POP POP SWAP3 SWAP2 POP POP JUMP JUMPDEST PUSH1 0x0 PUSH1 0x80 DUP4 ADD PUSH1 0x0 DUP4 ADD MLOAD PUSH2 0x10D6 PUSH1 0x0 DUP7 ADD DUP3 PUSH2 0x1030 JUMP JUMPDEST POP PUSH1 0x20 DUP4 ADD MLOAD DUP5 DUP3 SUB PUSH1 0x20 DUP7 ADD MSTORE PUSH2 0x10EE DUP3 DUP3 PUSH2 0x1085 JUMP JUMPDEST SWAP2 POP POP PUSH1 0x40 DUP4 ADD MLOAD DUP5 DUP3 SUB PUSH1 0x40 DUP7 ADD MSTORE PUSH2 0x1108 DUP3 DUP3 PUSH2 0x1085 JUMP JUMPDEST SWAP2 POP POP PUSH1 0x60 DUP4 ADD MLOAD DUP5 DUP3 SUB PUSH1 0x60 DUP7 ADD MSTORE PUSH2 0x1122 DUP3 DUP3 PUSH2 0x1085 JUMP JUMPDEST SWAP2 POP POP DUP1 SWAP2 POP POP SWAP3 SWAP2 POP POP JUMP JUMPDEST PUSH1 0x0 PUSH1 0x40 DUP4 ADD PUSH1 0x0 DUP4 ADD MLOAD PUSH2 0x1147 PUSH1 0x0 DUP7 ADD DUP3 PUSH2 0x1021 JUMP JUMPDEST POP PUSH1 0x20 DUP4 ADD MLOAD DUP5 DUP3 SUB PUSH1 0x20 DUP7 ADD MSTORE PUSH2 0x115F DUP3 DUP3 PUSH2 0x10BE JUMP JUMPDEST SWAP2 POP POP DUP1 SWAP2 POP POP SWAP3 SWAP2 POP POP JUMP JUMPDEST PUSH1 0x0 PUSH1 0x20 DUP3 ADD SWAP1 POP DUP2 DUP2 SUB PUSH1 0x0 DUP4 ADD MSTORE PUSH2 0x1186 DUP2 DUP5 PUSH2 0x112F JUMP JUMPDEST SWAP1 POP SWAP3 SWAP2 POP POP JUMP JUMPDEST PUSH1 0x0 PUSH1 0x40 DUP4 ADD PUSH1 0x0 DUP4 ADD MLOAD PUSH2 0x11A6 PUSH1 0x0 DUP7 ADD DUP3 PUSH2 0x1021 JUMP JUMPDEST POP PUSH1 0x20 DUP4 ADD MLOAD DUP5 DUP3 SUB PUSH1 0x20 DUP7 ADD MSTORE PUSH2 0x11BE DUP3 DUP3 PUSH2 0x1085 JUMP JUMPDEST SWAP2 POP POP DUP1 SWAP2 POP POP SWAP3 SWAP2 POP POP JUMP JUMPDEST PUSH1 0x0 PUSH1 0x20 DUP3 ADD SWAP1 POP DUP2 DUP2 SUB PUSH1 0x0 DUP4 ADD MSTORE PUSH2 0x11E5 DUP2 DUP5 PUSH2 0x118E JUMP JUMPDEST SWAP1 POP SWAP3 SWAP2 POP POP JUMP JUMPDEST PUSH1 0x0 PUSH1 0x20 DUP3 DUP5 SUB SLT ISZERO PUSH2 0x1203 JUMPI PUSH2 0x1202 PUSH2 0xCB1 JUMP JUMPDEST JUMPDEST PUSH1 0x0 DUP3 ADD CALLDATALOAD PUSH8 0xFFFFFFFFFFFFFFFF DUP2 GT ISZERO PUSH2 0x1221 JUMPI PUSH2 0x1220 PUSH2 0xCB6 JUMP JUMPDEST JUMPDEST PUSH2 0x122D DUP5 DUP3 DUP6 ADD PUSH2 0xE3B JUMP JUMPDEST SWAP2 POP POP SWAP3 SWAP2 POP POP JUMP JUMPDEST PUSH1 0x40 DUP3 ADD PUSH1 0x0 DUP3 ADD MLOAD PUSH2 0x124C PUSH1 0x0 DUP6 ADD DUP3 PUSH2 0x1021 JUMP JUMPDEST POP PUSH1 0x20 DUP3 ADD MLOAD PUSH2 0x125F PUSH1 0x20 DUP6 ADD DUP3 PUSH2 0x1030 JUMP JUMPDEST POP POP POP POP JUMP JUMPDEST PUSH1 0x0 PUSH1 0x40 DUP3 ADD SWAP1 POP PUSH2 0x127A PUSH1 0x0 DUP4 ADD DUP5 PUSH2 0x1236 JUMP JUMPDEST SWAP3 SWAP2 POP POP JUMP JUMPDEST PUSH32 0x4E487B7100000000000000000000000000000000000000000000000000000000 PUSH1 0x0 MSTORE PUSH1 0x22 PUSH1 0x4 MSTORE PUSH1 0x24 PUSH1 0x0 REVERT JUMPDEST PUSH1 0x0 PUSH1 0x2 DUP3 DIV SWAP1 POP PUSH1 0x1 DUP3 AND DUP1 PUSH2 0x12C7 JUMPI PUSH1 0x7F DUP3 AND SWAP2 POP JUMPDEST PUSH1 0x20 DUP3 LT DUP2 SUB PUSH2 0x12DA JUMPI PUSH2 0x12D9 PUSH2 0x1280 JUMP JUMPDEST JUMPDEST POP SWAP2 SWAP1 POP JUMP JUMPDEST PUSH1 0x0 DUP2 SWAP1 POP DUP2 PUSH1 0x0 MSTORE PUSH1 0x20 PUSH1 0x0 KECCAK256 SWAP1 POP SWAP2 SWAP1 POP JUMP JUMPDEST PUSH1 0x0 PUSH1 0x20 PUSH1 0x1F DUP4 ADD DIV SWAP1 POP SWAP2 SWAP1 POP JUMP JUMPDEST PUSH1 0x0 DUP3 DUP3 SHL SWAP1 POP SWAP3 SWAP2 POP POP JUMP JUMPDEST PUSH1 0x0 PUSH1 0x8 DUP4 MUL PUSH2 0x1342 PUSH32 0xFFFFFFFFFFFFFFFFFFFFFFFFFFFFFFFFFFFFFFFFFFFFFFFFFFFFFFFFFFFFFFFF DUP3 PUSH2 0x1305 JUMP JUMPDEST PUSH2 0x134C DUP7 DUP4 PUSH2 0x1305 JUMP JUMPDEST SWAP6 POP DUP1 NOT DUP5 AND SWAP4 POP DUP1 DUP7 AND DUP5 OR SWAP3 POP POP POP SWAP4 SWAP3 POP POP POP JUMP JUMPDEST PUSH1 0x0 DUP2 SWAP1 POP SWAP2 SWAP1 POP JUMP JUMPDEST PUSH1 0x0 DUP2 SWAP1 POP SWAP2 SWAP1 POP JUMP JUMPDEST PUSH1 0x0 PUSH2 0x1393 PUSH2 0x138E PUSH2 0x1389 DUP5 PUSH2 0x1364 JUMP JUMPDEST PUSH2 0x136E JUMP JUMPDEST PUSH2 0x1364 JUMP JUMPDEST SWAP1 POP SWAP2 SWAP1 POP JUMP JUMPDEST PUSH1 0x0 DUP2 SWAP1 POP SWAP2 SWAP1 POP JUMP JUMPDEST PUSH2 0x13AD DUP4 PUSH2 0x1378 JUMP JUMPDEST PUSH2 0x13C1 PUSH2 0x13B9 DUP3 PUSH2 0x139A JUMP JUMPDEST DUP5 DUP5 SLOAD PUSH2 0x1312 JUMP JUMPDEST DUP3 SSTORE POP POP POP POP JUMP JUMPDEST PUSH1 0x0 SWAP1 JUMP JUMPDEST PUSH2 0x13D6 PUSH2 0x13C9 JUMP JUMPDEST PUSH2 0x13E1 DUP2 DUP5 DUP5 PUSH2 0x13A4 JUMP JUMPDEST POP POP POP JUMP JUMPDEST JUMPDEST DUP2 DUP2 LT ISZERO PUSH2 0x1405 JUMPI PUSH2 0x13FA PUSH1 0x0 DUP3 PUSH2 0x13CE JUMP JUMPDEST PUSH1 0x1 DUP2 ADD SWAP1 POP PUSH2 0x13E7 JUMP JUMPDEST POP POP JUMP JUMPDEST PUSH1 0x1F DUP3 GT ISZERO PUSH2 0x144A JUMPI PUSH2 0x141B DUP2 PUSH2 0x12E0 JUMP JUMPDEST PUSH2 0x1424 DUP5 PUSH2 0x12F5 JUMP JUMPDEST DUP2 ADD PUSH1 0x20 DUP6 LT ISZERO PUSH2 0x1433 JUMPI DUP2 SWAP1 POP JUMPDEST PUSH2 0x1447 PUSH2 0x143F DUP6 PUSH2 0x12F5 JUMP JUMPDEST DUP4 ADD DUP3 PUSH2 0x13E6 JUMP JUMPDEST POP POP JUMPDEST POP POP POP JUMP JUMPDEST PUSH1 0x0 DUP3 DUP3 SHR SWAP1 POP SWAP3 SWAP2 POP POP JUMP JUMPDEST PUSH1 0x0 PUSH2 0x146D PUSH1 0x0 NOT DUP5 PUSH1 0x8 MUL PUSH2 0x144F JUMP JUMPDEST NOT DUP1 DUP4 AND SWAP2 POP POP SWAP3 SWAP2 POP POP JUMP JUMPDEST PUSH1 0x0 PUSH2 0x1486 DUP4 DUP4 PUSH2 0x145C JUMP JUMPDEST SWAP2 POP DUP3 PUSH1 0x2 MUL DUP3 OR SWAP1 POP SWAP3 SWAP2 POP POP JUMP JUMPDEST PUSH2 0x149F DUP3 PUSH2 0x103F JUMP JUMPDEST PUSH8 0xFFFFFFFFFFFFFFFF DUP2 GT ISZERO PUSH2 0x14B8 JUMPI PUSH2 0x14B7 PUSH2 0xCD1 JUMP JUMPDEST JUMPDEST PUSH2 0x14C2 DUP3 SLOAD PUSH2 0x12AF JUMP JUMPDEST PUSH2 0x14CD DUP3 DUP3 DUP6 PUSH2 0x1409 JUMP JUMPDEST PUSH1 0x0 PUSH1 0x20 SWAP1 POP PUSH1 0x1F DUP4 GT PUSH1 0x1 DUP2 EQ PUSH2 0x1500 JUMPI PUSH1 0x0 DUP5 ISZERO PUSH2 0x14EE JUMPI DUP3 DUP8 ADD MLOAD SWAP1 POP JUMPDEST PUSH2 0x14F8 DUP6 DUP3 PUSH2 0x147A JUMP JUMPDEST DUP7 SSTORE POP PUSH2 0x1560 JUMP JUMPDEST PUSH1 0x1F NOT DUP5 AND PUSH2 0x150E DUP7 PUSH2 0x12E0 JUMP JUMPDEST PUSH1 0x0 JUMPDEST DUP3 DUP2 LT ISZERO PUSH2 0x1536 JUMPI DUP5 DUP10 ADD MLOAD DUP3 SSTORE PUSH1 0x1 DUP3 ADD SWAP2 POP PUSH1 0x20 DUP6 ADD SWAP5 POP PUSH1 0x20 DUP2 ADD SWAP1 POP PUSH2 0x1511 JUMP JUMPDEST DUP7 DUP4 LT ISZERO PUSH2 0x1553 JUMPI DUP5 DUP10 ADD MLOAD PUSH2 0x154F PUSH1 0x1F DUP10 AND DUP3 PUSH2 0x145C JUMP JUMPDEST DUP4 SSTORE POP JUMPDEST PUSH1 0x1 PUSH1 0x2 DUP9 MUL ADD DUP9 SSTORE POP POP POP JUMPDEST POP POP POP POP POP POP JUMP JUMPDEST PUSH1 0x0 DUP2 SWAP1 POP SWAP3 SWAP2 POP POP JUMP JUMPDEST PUSH1 0x0 PUSH2 0x157E DUP3 PUSH2 0x103F JUMP JUMPDEST PUSH2 0x1588 DUP2 DUP6 PUSH2 0x1568 JUMP JUMPDEST SWAP4 POP PUSH2 0x1598 DUP2 DUP6 PUSH1 0x20 DUP7 ADD PUSH2 0x105B JUMP JUMPDEST DUP1 DUP5 ADD SWAP2 POP POP SWAP3 SWAP2 POP POP JUMP JUMPDEST PUSH1 0x0 PUSH2 0x15B0 DUP3 DUP5 PUSH2 0x1573 JUMP JUMPDEST SWAP2 POP DUP2 SWAP1 POP SWAP3 SWAP2 POP POP JUMP INVALID LOG2 PUSH5 0x6970667358 0x22 SLT KECCAK256 MUL 0xE 0x2F CALLVALUE SHR 0x21 0x2A 0xC0 PUSH7 0xE53626FCC5C730 0xB2 DUP14 PUSH9 0xBD9864EC791CE0F55D 0xF9 0xAD PUSH6 0xBD64736F6C63 NUMBER STOP ADDMOD SGT STOP CALLER "},"methodIdentifiers":{"canRegister((address,string,string,string))":"2b4bce8b","existingAddress(address)":"a240e426","existingUserName(string)":"b0c22a56","getPublicKey(address)":"857cdbb8","getUser(address)":"6f77926b","getUserAccount(string)":"eeb9ab18","isUserTheTrnsctExec(address,address)":"2c8e7110","userRegistered((address,string,string,string))":"75e9493f"}}}}}