{"contracts/FileRegister.sol":{"FileRegister":{"abi":[{"inputs":[{"components":[{"internalType":"string","name":"ipfsCID","type":"string"},{"internalType":"string","name":"fileName","type":"string"},{"internalType":"address","name":"owner","type":"address"},{"internalType":"string","name":"fileType","type":"string"},{"internalType":"string","name":"iv","type":"string"}],"internalType":"struct FileRegister.File","name":"file","type":"tuple"}],"name":"addFile","outputs":[],"stateMutability":"nonpayable","type":"function"},{"inputs":[{"internalType":"string","name":"fileIpfsCid","type":"string"}],"name":"getFileByIpfsCID","outputs":[{"components":[{"internalType":"bool","name":"success","type":"bool"},{"components":[{"internalType":"string","name":"ipfsCID","type":"string"},{"internalType":"string","name":"fileName","type":"string"},{"internalType":"address","name":"owner","type":"address"},{"internalType":"string","name":"fileType","type":"string"},{"internalType":"string","name":"iv","type":"string"}],"internalType":"struct FileRegister.File","name":"file","type":"tuple"}],"internalType":"struct FileRegister.ResultAction","name":"","type":"tuple"}],"stateMutability":"view","type":"function"}],"evm":{"bytecode":{"linkReferences":{},"object":"608060405234801561001057600080fd5b50610dc5806100206000396000f3fe608060405234801561001057600080fd5b50600436106100365760003560e01c80639aa7f4181461003b5780639f5937f814610057575b600080fd5b6100556004803603810190610050919061082f565b610087565b005b610071600480360381019061006c9190610878565b61014f565b60405161007e9190610a32565b60405180910390f35b806000826000015160405161009c9190610a90565b908152602001604051809103902060008201518160000190816100bf9190610cbd565b5060208201518160010190816100d59190610cbd565b5060408201518160020160006101000a81548173ffffffffffffffffffffffffffffffffffffffff021916908373ffffffffffffffffffffffffffffffffffffffff16021790555060608201518160030190816101329190610cbd565b5060808201518160040190816101489190610cbd565b5090505050565b61015761050a565b600080836040516101689190610a90565b9081526020016040518091039020600101805461018490610ad6565b905011156104715760405180604001604052806001151581526020016000846040516101b09190610a90565b90815260200160405180910390206040518060a00160405290816000820180546101d990610ad6565b80601f016020809104026020016040519081016040528092919081815260200182805461020590610ad6565b80156102525780601f1061022757610100808354040283529160200191610252565b820191906000526020600020905b81548152906001019060200180831161023557829003601f168201915b5050505050815260200160018201805461026b90610ad6565b80601f016020809104026020016040519081016040528092919081815260200182805461029790610ad6565b80156102e45780601f106102b9576101008083540402835291602001916102e4565b820191906000526020600020905b8154815290600101906020018083116102c757829003601f168201915b505050505081526020016002820160009054906101000a900473ffffffffffffffffffffffffffffffffffffffff1673ffffffffffffffffffffffffffffffffffffffff1673ffffffffffffffffffffffffffffffffffffffff16815260200160038201805461035390610ad6565b80601f016020809104026020016040519081016040528092919081815260200182805461037f90610ad6565b80156103cc5780601f106103a1576101008083540402835291602001916103cc565b820191906000526020600020905b8154815290600101906020018083116103af57829003601f168201915b505050505081526020016004820180546103e590610ad6565b80601f016020809104026020016040519081016040528092919081815260200182805461041190610ad6565b801561045e5780601f106104335761010080835404028352916020019161045e565b820191906000526020600020905b81548152906001019060200180831161044157829003601f168201915b5050505050815250508152509050610505565b60405180604001604052806000151581526020016040518060a00160405280604051806020016040528060008152508152602001604051806020016040528060008152508152602001600073ffffffffffffffffffffffffffffffffffffffff1681526020016040518060200160405280600081525081526020016040518060200160405280600081525081525081525090505b919050565b604051806040016040528060001515815260200161052661052c565b81525090565b6040518060a001604052806060815260200160608152602001600073ffffffffffffffffffffffffffffffffffffffff16815260200160608152602001606081525090565b6000604051905090565b600080fd5b600080fd5b600080fd5b6000601f19601f8301169050919050565b7f4e487b7100000000000000000000000000000000000000000000000000000000600052604160045260246000fd5b6105d38261058a565b810181811067ffffffffffffffff821117156105f2576105f161059b565b5b80604052505050565b6000610605610571565b905061061182826105ca565b919050565b600080fd5b600080fd5b600080fd5b600067ffffffffffffffff8211156106405761063f61059b565b5b6106498261058a565b9050602081019050919050565b82818337600083830152505050565b600061067861067384610625565b6105fb565b90508281526020810184848401111561069457610693610620565b5b61069f848285610656565b509392505050565b600082601f8301126106bc576106bb61061b565b5b81356106cc848260208601610665565b91505092915050565b600073ffffffffffffffffffffffffffffffffffffffff82169050919050565b6000610700826106d5565b9050919050565b610710816106f5565b811461071b57600080fd5b50565b60008135905061072d81610707565b92915050565b600060a0828403121561074957610748610585565b5b61075360a06105fb565b9050600082013567ffffffffffffffff81111561077357610772610616565b5b61077f848285016106a7565b600083015250602082013567ffffffffffffffff8111156107a3576107a2610616565b5b6107af848285016106a7565b60208301525060406107c38482850161071e565b604083015250606082013567ffffffffffffffff8111156107e7576107e6610616565b5b6107f3848285016106a7565b606083015250608082013567ffffffffffffffff81111561081757610816610616565b5b610823848285016106a7565b60808301525092915050565b6000602082840312156108455761084461057b565b5b600082013567ffffffffffffffff81111561086357610862610580565b5b61086f84828501610733565b91505092915050565b60006020828403121561088e5761088d61057b565b5b600082013567ffffffffffffffff8111156108ac576108ab610580565b5b6108b8848285016106a7565b91505092915050565b60008115159050919050565b6108d6816108c1565b82525050565b600081519050919050565b600082825260208201905092915050565b60005b838110156109165780820151818401526020810190506108fb565b60008484015250505050565b600061092d826108dc565b61093781856108e7565b93506109478185602086016108f8565b6109508161058a565b840191505092915050565b610964816106f5565b82525050565b600060a08301600083015184820360008601526109878282610922565b915050602083015184820360208601526109a18282610922565b91505060408301516109b6604086018261095b565b50606083015184820360608601526109ce8282610922565b915050608083015184820360808601526109e88282610922565b9150508091505092915050565b6000604083016000830151610a0d60008601826108cd565b5060208301518482036020860152610a25828261096a565b9150508091505092915050565b60006020820190508181036000830152610a4c81846109f5565b905092915050565b600081905092915050565b6000610a6a826108dc565b610a748185610a54565b9350610a848185602086016108f8565b80840191505092915050565b6000610a9c8284610a5f565b915081905092915050565b7f4e487b7100000000000000000000000000000000000000000000000000000000600052602260045260246000fd5b60006002820490506001821680610aee57607f821691505b602082108103610b0157610b00610aa7565b5b50919050565b60008190508160005260206000209050919050565b60006020601f8301049050919050565b600082821b905092915050565b600060088302610b697fffffffffffffffffffffffffffffffffffffffffffffffffffffffffffffffff82610b2c565b610b738683610b2c565b95508019841693508086168417925050509392505050565b6000819050919050565b6000819050919050565b6000610bba610bb5610bb084610b8b565b610b95565b610b8b565b9050919050565b6000819050919050565b610bd483610b9f565b610be8610be082610bc1565b848454610b39565b825550505050565b600090565b610bfd610bf0565b610c08818484610bcb565b505050565b5b81811015610c2c57610c21600082610bf5565b600181019050610c0e565b5050565b601f821115610c7157610c4281610b07565b610c4b84610b1c565b81016020851015610c5a578190505b610c6e610c6685610b1c565b830182610c0d565b50505b505050565b600082821c905092915050565b6000610c9460001984600802610c76565b1980831691505092915050565b6000610cad8383610c83565b9150826002028217905092915050565b610cc6826108dc565b67ffffffffffffffff811115610cdf57610cde61059b565b5b610ce98254610ad6565b610cf4828285610c30565b600060209050601f831160018114610d275760008415610d15578287015190505b610d1f8582610ca1565b865550610d87565b601f198416610d3586610b07565b60005b82811015610d5d57848901518255600182019150602085019450602081019050610d38565b86831015610d7a5784890151610d76601f891682610c83565b8355505b6001600288020188555050505b50505050505056fea2646970667358221220d0151d5007f84b831a17209895e9f19570b19d4d752649e49caa479f6ccd19d764736f6c63430008130033","opcodes":"PUSH1 0x80 PUSH1 0x40 MSTORE CALLVALUE DUP1 ISZERO PUSH2 0x10 JUMPI PUSH1 0x0 DUP1 REVERT JUMPDEST POP PUSH2 0xDC5 DUP1 PUSH2 0x20 PUSH1 0x0 CODECOPY PUSH1 0x0 RETURN INVALID PUSH1 0x80 PUSH1 0x40 MSTORE CALLVALUE DUP1 ISZERO PUSH2 0x10 JUMPI PUSH1 0x0 DUP1 REVERT JUMPDEST POP PUSH1 0x4 CALLDATASIZE LT PUSH2 0x36 JUMPI PUSH1 0x0 CALLDATALOAD PUSH1 0xE0 SHR DUP1 PUSH4 0x9AA7F418 EQ PUSH2 0x3B JUMPI DUP1 PUSH4 0x9F5937F8 EQ PUSH2 0x57 JUMPI JUMPDEST PUSH1 0x0 DUP1 REVERT JUMPDEST PUSH2 0x55 PUSH1 0x4 DUP1 CALLDATASIZE SUB DUP2 ADD SWAP1 PUSH2 0x50 SWAP2 SWAP1 PUSH2 0x82F JUMP JUMPDEST PUSH2 0x87 JUMP JUMPDEST STOP JUMPDEST PUSH2 0x71 PUSH1 0x4 DUP1 CALLDATASIZE SUB DUP2 ADD SWAP1 PUSH2 0x6C SWAP2 SWAP1 PUSH2 0x878 JUMP JUMPDEST PUSH2 0x14F JUMP JUMPDEST PUSH1 0x40 MLOAD PUSH2 0x7E SWAP2 SWAP1 PUSH2 0xA32 JUMP JUMPDEST PUSH1 0x40 MLOAD DUP1 SWAP2 SUB SWAP1 RETURN JUMPDEST DUP1 PUSH1 0x0 DUP3 PUSH1 0x0 ADD MLOAD PUSH1 0x40 MLOAD PUSH2 0x9C SWAP2 SWAP1 PUSH2 0xA90 JUMP JUMPDEST SWAP1 DUP2 MSTORE PUSH1 0x20 ADD PUSH1 0x40 MLOAD DUP1 SWAP2 SUB SWAP1 KECCAK256 PUSH1 0x0 DUP3 ADD MLOAD DUP2 PUSH1 0x0 ADD SWAP1 DUP2 PUSH2 0xBF SWAP2 SWAP1 PUSH2 0xCBD JUMP JUMPDEST POP PUSH1 0x20 DUP3 ADD MLOAD DUP2 PUSH1 0x1 ADD SWAP1 DUP2 PUSH2 0xD5 SWAP2 SWAP1 PUSH2 0xCBD JUMP JUMPDEST POP PUSH1 0x40 DUP3 ADD MLOAD DUP2 PUSH1 0x2 ADD PUSH1 0x0 PUSH2 0x100 EXP DUP2 SLOAD DUP2 PUSH20 0xFFFFFFFFFFFFFFFFFFFFFFFFFFFFFFFFFFFFFFFF MUL NOT AND SWAP1 DUP4 PUSH20 0xFFFFFFFFFFFFFFFFFFFFFFFFFFFFFFFFFFFFFFFF AND MUL OR SWAP1 SSTORE POP PUSH1 0x60 DUP3 ADD MLOAD DUP2 PUSH1 0x3 ADD SWAP1 DUP2 PUSH2 0x132 SWAP2 SWAP1 PUSH2 0xCBD JUMP JUMPDEST POP PUSH1 0x80 DUP3 ADD MLOAD DUP2 PUSH1 0x4 ADD SWAP1 DUP2 PUSH2 0x148 SWAP2 SWAP1 PUSH2 0xCBD JUMP JUMPDEST POP SWAP1 POP POP POP JUMP JUMPDEST PUSH2 0x157 PUSH2 0x50A JUMP JUMPDEST PUSH1 0x0 DUP1 DUP4 PUSH1 0x40 MLOAD PUSH2 0x168 SWAP2 SWAP1 PUSH2 0xA90 JUMP JUMPDEST SWAP1 DUP2 MSTORE PUSH1 0x20 ADD PUSH1 0x40 MLOAD DUP1 SWAP2 SUB SWAP1 KECCAK256 PUSH1 0x1 ADD DUP1 SLOAD PUSH2 0x184 SWAP1 PUSH2 0xAD6 JUMP JUMPDEST SWAP1 POP GT ISZERO PUSH2 0x471 JUMPI PUSH1 0x40 MLOAD DUP1 PUSH1 0x40 ADD PUSH1 0x40 MSTORE DUP1 PUSH1 0x1 ISZERO ISZERO DUP2 MSTORE PUSH1 0x20 ADD PUSH1 0x0 DUP5 PUSH1 0x40 MLOAD PUSH2 0x1B0 SWAP2 SWAP1 PUSH2 0xA90 JUMP JUMPDEST SWAP1 DUP2 MSTORE PUSH1 0x20 ADD PUSH1 0x40 MLOAD DUP1 SWAP2 SUB SWAP1 KECCAK256 PUSH1 0x40 MLOAD DUP1 PUSH1 0xA0 ADD PUSH1 0x40 MSTORE SWAP1 DUP2 PUSH1 0x0 DUP3 ADD DUP1 SLOAD PUSH2 0x1D9 SWAP1 PUSH2 0xAD6 JUMP JUMPDEST DUP1 PUSH1 0x1F ADD PUSH1 0x20 DUP1 SWAP2 DIV MUL PUSH1 0x20 ADD PUSH1 0x40 MLOAD SWAP1 DUP2 ADD PUSH1 0x40 MSTORE DUP1 SWAP3 SWAP2 SWAP1 DUP2 DUP2 MSTORE PUSH1 0x20 ADD DUP3 DUP1 SLOAD PUSH2 0x205 SWAP1 PUSH2 0xAD6 JUMP JUMPDEST DUP1 ISZERO PUSH2 0x252 JUMPI DUP1 PUSH1 0x1F LT PUSH2 0x227 JUMPI PUSH2 0x100 DUP1 DUP4 SLOAD DIV MUL DUP4 MSTORE SWAP2 PUSH1 0x20 ADD SWAP2 PUSH2 0x252 JUMP JUMPDEST DUP3 ADD SWAP2 SWAP1 PUSH1 0x0 MSTORE PUSH1 0x20 PUSH1 0x0 KECCAK256 SWAP1 JUMPDEST DUP2 SLOAD DUP2 MSTORE SWAP1 PUSH1 0x1 ADD SWAP1 PUSH1 0x20 ADD DUP1 DUP4 GT PUSH2 0x235 JUMPI DUP3 SWAP1 SUB PUSH1 0x1F AND DUP3 ADD SWAP2 JUMPDEST POP POP POP POP POP DUP2 MSTORE PUSH1 0x20 ADD PUSH1 0x1 DUP3 ADD DUP1 SLOAD PUSH2 0x26B SWAP1 PUSH2 0xAD6 JUMP JUMPDEST DUP1 PUSH1 0x1F ADD PUSH1 0x20 DUP1 SWAP2 DIV MUL PUSH1 0x20 ADD PUSH1 0x40 MLOAD SWAP1 DUP2 ADD PUSH1 0x40 MSTORE DUP1 SWAP3 SWAP2 SWAP1 DUP2 DUP2 MSTORE PUSH1 0x20 ADD DUP3 DUP1 SLOAD PUSH2 0x297 SWAP1 PUSH2 0xAD6 JUMP JUMPDEST DUP1 ISZERO PUSH2 0x2E4 JUMPI DUP1 PUSH1 0x1F LT PUSH2 0x2B9 JUMPI PUSH2 0x100 DUP1 DUP4 SLOAD DIV MUL DUP4 MSTORE SWAP2 PUSH1 0x20 ADD SWAP2 PUSH2 0x2E4 JUMP JUMPDEST DUP3 ADD SWAP2 SWAP1 PUSH1 0x0 MSTORE PUSH1 0x20 PUSH1 0x0 KECCAK256 SWAP1 JUMPDEST DUP2 SLOAD DUP2 MSTORE SWAP1 PUSH1 0x1 ADD SWAP1 PUSH1 0x20 ADD DUP1 DUP4 GT PUSH2 0x2C7 JUMPI DUP3 SWAP1 SUB PUSH1 0x1F AND DUP3 ADD SWAP2 JUMPDEST POP POP POP POP POP DUP2 MSTORE PUSH1 0x20 ADD PUSH1 0x2 DUP3 ADD PUSH1 0x0 SWAP1 SLOAD SWAP1 PUSH2 0x100 EXP SWAP1 DIV PUSH20 0xFFFFFFFFFFFFFFFFFFFFFFFFFFFFFFFFFFFFFFFF AND PUSH20 0xFFFFFFFFFFFFFFFFFFFFFFFFFFFFFFFFFFFFFFFF AND PUSH20 0xFFFFFFFFFFFFFFFFFFFFFFFFFFFFFFFFFFFFFFFF AND DUP2 MSTORE PUSH1 0x20 ADD PUSH1 0x3 DUP3 ADD DUP1 SLOAD PUSH2 0x353 SWAP1 PUSH2 0xAD6 JUMP JUMPDEST DUP1 PUSH1 0x1F ADD PUSH1 0x20 DUP1 SWAP2 DIV MUL PUSH1 0x20 ADD PUSH1 0x40 MLOAD SWAP1 DUP2 ADD PUSH1 0x40 MSTORE DUP1 SWAP3 SWAP2 SWAP1 DUP2 DUP2 MSTORE PUSH1 0x20 ADD DUP3 DUP1 SLOAD PUSH2 0x37F SWAP1 PUSH2 0xAD6 JUMP JUMPDEST DUP1 ISZERO PUSH2 0x3CC JUMPI DUP1 PUSH1 0x1F LT PUSH2 0x3A1 JUMPI PUSH2 0x100 DUP1 DUP4 SLOAD DIV MUL DUP4 MSTORE SWAP2 PUSH1 0x20 ADD SWAP2 PUSH2 0x3CC JUMP JUMPDEST DUP3 ADD SWAP2 SWAP1 PUSH1 0x0 MSTORE PUSH1 0x20 PUSH1 0x0 KECCAK256 SWAP1 JUMPDEST DUP2 SLOAD DUP2 MSTORE SWAP1 PUSH1 0x1 ADD SWAP1 PUSH1 0x20 ADD DUP1 DUP4 GT PUSH2 0x3AF JUMPI DUP3 SWAP1 SUB PUSH1 0x1F AND DUP3 ADD SWAP2 JUMPDEST POP POP POP POP POP DUP2 MSTORE PUSH1 0x20 ADD PUSH1 0x4 DUP3 ADD DUP1 SLOAD PUSH2 0x3E5 SWAP1 PUSH2 0xAD6 JUMP JUMPDEST DUP1 PUSH1 0x1F ADD PUSH1 0x20 DUP1 SWAP2 DIV MUL PUSH1 0x20 ADD PUSH1 0x40 MLOAD SWAP1 DUP2 ADD PUSH1 0x40 MSTORE DUP1 SWAP3 SWAP2 SWAP1 DUP2 DUP2 MSTORE PUSH1 0x20 ADD DUP3 DUP1 SLOAD PUSH2 0x411 SWAP1 PUSH2 0xAD6 JUMP JUMPDEST DUP1 ISZERO PUSH2 0x45E JUMPI DUP1 PUSH1 0x1F LT PUSH2 0x433 JUMPI PUSH2 0x100 DUP1 DUP4 SLOAD DIV MUL DUP4 MSTORE SWAP2 PUSH1 0x20 ADD SWAP2 PUSH2 0x45E JUMP JUMPDEST DUP3 ADD SWAP2 SWAP1 PUSH1 0x0 MSTORE PUSH1 0x20 PUSH1 0x0 KECCAK256 SWAP1 JUMPDEST DUP2 SLOAD DUP2 MSTORE SWAP1 PUSH1 0x1 ADD SWAP1 PUSH1 0x20 ADD DUP1 DUP4 GT PUSH2 0x441 JUMPI DUP3 SWAP1 SUB PUSH1 0x1F AND DUP3 ADD SWAP2 JUMPDEST POP POP POP POP POP DUP2 MSTORE POP POP DUP2 MSTORE POP SWAP1 POP PUSH2 0x505 JUMP JUMPDEST PUSH1 0x40 MLOAD DUP1 PUSH1 0x40 ADD PUSH1 0x40 MSTORE DUP1 PUSH1 0x0 ISZERO ISZERO DUP2 MSTORE PUSH1 0x20 ADD PUSH1 0x40 MLOAD DUP1 PUSH1 0xA0 ADD PUSH1 0x40 MSTORE DUP1 PUSH1 0x40 MLOAD DUP1 PUSH1 0x20 ADD PUSH1 0x40 MSTORE DUP1 PUSH1 0x0 DUP2 MSTORE POP DUP2 MSTORE PUSH1 0x20 ADD PUSH1 0x40 MLOAD DUP1 PUSH1 0x20 ADD PUSH1 0x40 MSTORE DUP1 PUSH1 0x0 DUP2 MSTORE POP DUP2 MSTORE PUSH1 0x20 ADD PUSH1 0x0 PUSH20 0xFFFFFFFFFFFFFFFFFFFFFFFFFFFFFFFFFFFFFFFF AND DUP2 MSTORE PUSH1 0x20 ADD PUSH1 0x40 MLOAD DUP1 PUSH1 0x20 ADD PUSH1 0x40 MSTORE DUP1 PUSH1 0x0 DUP2 MSTORE POP DUP2 MSTORE PUSH1 0x20 ADD PUSH1 0x40 MLOAD DUP1 PUSH1 0x20 ADD PUSH1 0x40 MSTORE DUP1 PUSH1 0x0 DUP2 MSTORE POP DUP2 MSTORE POP DUP2 MSTORE POP SWAP1 POP JUMPDEST SWAP2 SWAP1 POP JUMP JUMPDEST PUSH1 0x40 MLOAD DUP1 PUSH1 0x40 ADD PUSH1 0x40 MSTORE DUP1 PUSH1 0x0 ISZERO ISZERO DUP2 MSTORE PUSH1 0x20 ADD PUSH2 0x526 PUSH2 0x52C JUMP JUMPDEST DUP2 MSTORE POP SWAP1 JUMP JUMPDEST PUSH1 0x40 MLOAD DUP1 PUSH1 0xA0 ADD PUSH1 0x40 MSTORE DUP1 PUSH1 0x60 DUP2 MSTORE PUSH1 0x20 ADD PUSH1 0x60 DUP2 MSTORE PUSH1 0x20 ADD PUSH1 0x0 PUSH20 0xFFFFFFFFFFFFFFFFFFFFFFFFFFFFFFFFFFFFFFFF AND DUP2 MSTORE PUSH1 0x20 ADD PUSH1 0x60 DUP2 MSTORE PUSH1 0x20 ADD PUSH1 0x60 DUP2 MSTORE POP SWAP1 JUMP JUMPDEST PUSH1 0x0 PUSH1 0x40 MLOAD SWAP1 POP SWAP1 JUMP JUMPDEST PUSH1 0x0 DUP1 REVERT JUMPDEST PUSH1 0x0 DUP1 REVERT JUMPDEST PUSH1 0x0 DUP1 REVERT JUMPDEST PUSH1 0x0 PUSH1 0x1F NOT PUSH1 0x1F DUP4 ADD AND SWAP1 POP SWAP2 SWAP1 POP JUMP JUMPDEST PUSH32 0x4E487B7100000000000000000000000000000000000000000000000000000000 PUSH1 0x0 MSTORE PUSH1 0x41 PUSH1 0x4 MSTORE PUSH1 0x24 PUSH1 0x0 REVERT JUMPDEST PUSH2 0x5D3 DUP3 PUSH2 0x58A JUMP JUMPDEST DUP2 ADD DUP2 DUP2 LT PUSH8 0xFFFFFFFFFFFFFFFF DUP3 GT OR ISZERO PUSH2 0x5F2 JUMPI PUSH2 0x5F1 PUSH2 0x59B JUMP JUMPDEST JUMPDEST DUP1 PUSH1 0x40 MSTORE POP POP POP JUMP JUMPDEST PUSH1 0x0 PUSH2 0x605 PUSH2 0x571 JUMP JUMPDEST SWAP1 POP PUSH2 0x611 DUP3 DUP3 PUSH2 0x5CA JUMP JUMPDEST SWAP2 SWAP1 POP JUMP JUMPDEST PUSH1 0x0 DUP1 REVERT JUMPDEST PUSH1 0x0 DUP1 REVERT JUMPDEST PUSH1 0x0 DUP1 REVERT JUMPDEST PUSH1 0x0 PUSH8 0xFFFFFFFFFFFFFFFF DUP3 GT ISZERO PUSH2 0x640 JUMPI PUSH2 0x63F PUSH2 0x59B JUMP JUMPDEST JUMPDEST PUSH2 0x649 DUP3 PUSH2 0x58A JUMP JUMPDEST SWAP1 POP PUSH1 0x20 DUP2 ADD SWAP1 POP SWAP2 SWAP1 POP JUMP JUMPDEST DUP3 DUP2 DUP4 CALLDATACOPY PUSH1 0x0 DUP4 DUP4 ADD MSTORE POP POP POP JUMP JUMPDEST PUSH1 0x0 PUSH2 0x678 PUSH2 0x673 DUP5 PUSH2 0x625 JUMP JUMPDEST PUSH2 0x5FB JUMP JUMPDEST SWAP1 POP DUP3 DUP2 MSTORE PUSH1 0x20 DUP2 ADD DUP5 DUP5 DUP5 ADD GT ISZERO PUSH2 0x694 JUMPI PUSH2 0x693 PUSH2 0x620 JUMP JUMPDEST JUMPDEST PUSH2 0x69F DUP5 DUP3 DUP6 PUSH2 0x656 JUMP JUMPDEST POP SWAP4 SWAP3 POP POP POP JUMP JUMPDEST PUSH1 0x0 DUP3 PUSH1 0x1F DUP4 ADD SLT PUSH2 0x6BC JUMPI PUSH2 0x6BB PUSH2 0x61B JUMP JUMPDEST JUMPDEST DUP2 CALLDATALOAD PUSH2 0x6CC DUP5 DUP3 PUSH1 0x20 DUP7 ADD PUSH2 0x665 JUMP JUMPDEST SWAP2 POP POP SWAP3 SWAP2 POP POP JUMP JUMPDEST PUSH1 0x0 PUSH20 0xFFFFFFFFFFFFFFFFFFFFFFFFFFFFFFFFFFFFFFFF DUP3 AND SWAP1 POP SWAP2 SWAP1 POP JUMP JUMPDEST PUSH1 0x0 PUSH2 0x700 DUP3 PUSH2 0x6D5 JUMP JUMPDEST SWAP1 POP SWAP2 SWAP1 POP JUMP JUMPDEST PUSH2 0x710 DUP2 PUSH2 0x6F5 JUMP JUMPDEST DUP2 EQ PUSH2 0x71B JUMPI PUSH1 0x0 DUP1 REVERT JUMPDEST POP JUMP JUMPDEST PUSH1 0x0 DUP2 CALLDATALOAD SWAP1 POP PUSH2 0x72D DUP2 PUSH2 0x707 JUMP JUMPDEST SWAP3 SWAP2 POP POP JUMP JUMPDEST PUSH1 0x0 PUSH1 0xA0 DUP3 DUP5 SUB SLT ISZERO PUSH2 0x749 JUMPI PUSH2 0x748 PUSH2 0x585 JUMP JUMPDEST JUMPDEST PUSH2 0x753 PUSH1 0xA0 PUSH2 0x5FB JUMP JUMPDEST SWAP1 POP PUSH1 0x0 DUP3 ADD CALLDATALOAD PUSH8 0xFFFFFFFFFFFFFFFF DUP2 GT ISZERO PUSH2 0x773 JUMPI PUSH2 0x772 PUSH2 0x616 JUMP JUMPDEST JUMPDEST PUSH2 0x77F DUP5 DUP3 DUP6 ADD PUSH2 0x6A7 JUMP JUMPDEST PUSH1 0x0 DUP4 ADD MSTORE POP PUSH1 0x20 DUP3 ADD CALLDATALOAD PUSH8 0xFFFFFFFFFFFFFFFF DUP2 GT ISZERO PUSH2 0x7A3 JUMPI PUSH2 0x7A2 PUSH2 0x616 JUMP JUMPDEST JUMPDEST PUSH2 0x7AF DUP5 DUP3 DUP6 ADD PUSH2 0x6A7 JUMP JUMPDEST PUSH1 0x20 DUP4 ADD MSTORE POP PUSH1 0x40 PUSH2 0x7C3 DUP5 DUP3 DUP6 ADD PUSH2 0x71E JUMP JUMPDEST PUSH1 0x40 DUP4 ADD MSTORE POP PUSH1 0x60 DUP3 ADD CALLDATALOAD PUSH8 0xFFFFFFFFFFFFFFFF DUP2 GT ISZERO PUSH2 0x7E7 JUMPI PUSH2 0x7E6 PUSH2 0x616 JUMP JUMPDEST JUMPDEST PUSH2 0x7F3 DUP5 DUP3 DUP6 ADD PUSH2 0x6A7 JUMP JUMPDEST PUSH1 0x60 DUP4 ADD MSTORE POP PUSH1 0x80 DUP3 ADD CALLDATALOAD PUSH8 0xFFFFFFFFFFFFFFFF DUP2 GT ISZERO PUSH2 0x817 JUMPI PUSH2 0x816 PUSH2 0x616 JUMP JUMPDEST JUMPDEST PUSH2 0x823 DUP5 DUP3 DUP6 ADD PUSH2 0x6A7 JUMP JUMPDEST PUSH1 0x80 DUP4 ADD MSTORE POP SWAP3 SWAP2 POP POP JUMP JUMPDEST PUSH1 0x0 PUSH1 0x20 DUP3 DUP5 SUB SLT ISZERO PUSH2 0x845 JUMPI PUSH2 0x844 PUSH2 0x57B JUMP JUMPDEST JUMPDEST PUSH1 0x0 DUP3 ADD CALLDATALOAD PUSH8 0xFFFFFFFFFFFFFFFF DUP2 GT ISZERO PUSH2 0x863 JUMPI PUSH2 0x862 PUSH2 0x580 JUMP JUMPDEST JUMPDEST PUSH2 0x86F DUP5 DUP3 DUP6 ADD PUSH2 0x733 JUMP JUMPDEST SWAP2 POP POP SWAP3 SWAP2 POP POP JUMP JUMPDEST PUSH1 0x0 PUSH1 0x20 DUP3 DUP5 SUB SLT ISZERO PUSH2 0x88E JUMPI PUSH2 0x88D PUSH2 0x57B JUMP JUMPDEST JUMPDEST PUSH1 0x0 DUP3 ADD CALLDATALOAD PUSH8 0xFFFFFFFFFFFFFFFF DUP2 GT ISZERO PUSH2 0x8AC JUMPI PUSH2 0x8AB PUSH2 0x580 JUMP JUMPDEST JUMPDEST PUSH2 0x8B8 DUP5 DUP3 DUP6 ADD PUSH2 0x6A7 JUMP JUMPDEST SWAP2 POP POP SWAP3 SWAP2 POP POP JUMP JUMPDEST PUSH1 0x0 DUP2 ISZERO ISZERO SWAP1 POP SWAP2 SWAP1 POP JUMP JUMPDEST PUSH2 0x8D6 DUP2 PUSH2 0x8C1 JUMP JUMPDEST DUP3 MSTORE POP POP JUMP JUMPDEST PUSH1 0x0 DUP2 MLOAD SWAP1 POP SWAP2 SWAP1 POP JUMP JUMPDEST PUSH1 0x0 DUP3 DUP3 MSTORE PUSH1 0x20 DUP3 ADD SWAP1 POP SWAP3 SWAP2 POP POP JUMP JUMPDEST PUSH1 0x0 JUMPDEST DUP4 DUP2 LT ISZERO PUSH2 0x916 JUMPI DUP1 DUP3 ADD MLOAD DUP2 DUP5 ADD MSTORE PUSH1 0x20 DUP2 ADD SWAP1 POP PUSH2 0x8FB JUMP JUMPDEST PUSH1 0x0 DUP5 DUP5 ADD MSTORE POP POP POP POP JUMP JUMPDEST PUSH1 0x0 PUSH2 0x92D DUP3 PUSH2 0x8DC JUMP JUMPDEST PUSH2 0x937 DUP2 DUP6 PUSH2 0x8E7 JUMP JUMPDEST SWAP4 POP PUSH2 0x947 DUP2 DUP6 PUSH1 0x20 DUP7 ADD PUSH2 0x8F8 JUMP JUMPDEST PUSH2 0x950 DUP2 PUSH2 0x58A JUMP JUMPDEST DUP5 ADD SWAP2 POP POP SWAP3 SWAP2 POP POP JUMP JUMPDEST PUSH2 0x964 DUP2 PUSH2 0x6F5 JUMP JUMPDEST DUP3 MSTORE POP POP JUMP JUMPDEST PUSH1 0x0 PUSH1 0xA0 DUP4 ADD PUSH1 0x0 DUP4 ADD MLOAD DUP5 DUP3 SUB PUSH1 0x0 DUP7 ADD MSTORE PUSH2 0x987 DUP3 DUP3 PUSH2 0x922 JUMP JUMPDEST SWAP2 POP POP PUSH1 0x20 DUP4 ADD MLOAD DUP5 DUP3 SUB PUSH1 0x20 DUP7 ADD MSTORE PUSH2 0x9A1 DUP3 DUP3 PUSH2 0x922 JUMP JUMPDEST SWAP2 POP POP PUSH1 0x40 DUP4 ADD MLOAD PUSH2 0x9B6 PUSH1 0x40 DUP7 ADD DUP3 PUSH2 0x95B JUMP JUMPDEST POP PUSH1 0x60 DUP4 ADD MLOAD DUP5 DUP3 SUB PUSH1 0x60 DUP7 ADD MSTORE PUSH2 0x9CE DUP3 DUP3 PUSH2 0x922 JUMP JUMPDEST SWAP2 POP POP PUSH1 0x80 DUP4 ADD MLOAD DUP5 DUP3 SUB PUSH1 0x80 DUP7 ADD MSTORE PUSH2 0x9E8 DUP3 DUP3 PUSH2 0x922 JUMP JUMPDEST SWAP2 POP POP DUP1 SWAP2 POP POP SWAP3 SWAP2 POP POP JUMP JUMPDEST PUSH1 0x0 PUSH1 0x40 DUP4 ADD PUSH1 0x0 DUP4 ADD MLOAD PUSH2 0xA0D PUSH1 0x0 DUP7 ADD DUP3 PUSH2 0x8CD JUMP JUMPDEST POP PUSH1 0x20 DUP4 ADD MLOAD DUP5 DUP3 SUB PUSH1 0x20 DUP7 ADD MSTORE PUSH2 0xA25 DUP3 DUP3 PUSH2 0x96A JUMP JUMPDEST SWAP2 POP POP DUP1 SWAP2 POP POP SWAP3 SWAP2 POP POP JUMP JUMPDEST PUSH1 0x0 PUSH1 0x20 DUP3 ADD SWAP1 POP DUP2 DUP2 SUB PUSH1 0x0 DUP4 ADD MSTORE PUSH2 0xA4C DUP2 DUP5 PUSH2 0x9F5 JUMP JUMPDEST SWAP1 POP SWAP3 SWAP2 POP POP JUMP JUMPDEST PUSH1 0x0 DUP2 SWAP1 POP SWAP3 SWAP2 POP POP JUMP JUMPDEST PUSH1 0x0 PUSH2 0xA6A DUP3 PUSH2 0x8DC JUMP JUMPDEST PUSH2 0xA74 DUP2 DUP6 PUSH2 0xA54 JUMP JUMPDEST SWAP4 POP PUSH2 0xA84 DUP2 DUP6 PUSH1 0x20 DUP7 ADD PUSH2 0x8F8 JUMP JUMPDEST DUP1 DUP5 ADD SWAP2 POP POP SWAP3 SWAP2 POP POP JUMP JUMPDEST PUSH1 0x0 PUSH2 0xA9C DUP3 DUP5 PUSH2 0xA5F JUMP JUMPDEST SWAP2 POP DUP2 SWAP1 POP SWAP3 SWAP2 POP POP JUMP JUMPDEST PUSH32 0x4E487B7100000000000000000000000000000000000000000000000000000000 PUSH1 0x0 MSTORE PUSH1 0x22 PUSH1 0x4 MSTORE PUSH1 0x24 PUSH1 0x0 REVERT JUMPDEST PUSH1 0x0 PUSH1 0x2 DUP3 DIV SWAP1 POP PUSH1 0x1 DUP3 AND DUP1 PUSH2 0xAEE JUMPI PUSH1 0x7F DUP3 AND SWAP2 POP JUMPDEST PUSH1 0x20 DUP3 LT DUP2 SUB PUSH2 0xB01 JUMPI PUSH2 0xB00 PUSH2 0xAA7 JUMP JUMPDEST JUMPDEST POP SWAP2 SWAP1 POP JUMP JUMPDEST PUSH1 0x0 DUP2 SWAP1 POP DUP2 PUSH1 0x0 MSTORE PUSH1 0x20 PUSH1 0x0 KECCAK256 SWAP1 POP SWAP2 SWAP1 POP JUMP JUMPDEST PUSH1 0x0 PUSH1 0x20 PUSH1 0x1F DUP4 ADD DIV SWAP1 POP SWAP2 SWAP1 POP JUMP JUMPDEST PUSH1 0x0 DUP3 DUP3 SHL SWAP1 POP SWAP3 SWAP2 POP POP JUMP JUMPDEST PUSH1 0x0 PUSH1 0x8 DUP4 MUL PUSH2 0xB69 PUSH32 0xFFFFFFFFFFFFFFFFFFFFFFFFFFFFFFFFFFFFFFFFFFFFFFFFFFFFFFFFFFFFFFFF DUP3 PUSH2 0xB2C JUMP JUMPDEST PUSH2 0xB73 DUP7 DUP4 PUSH2 0xB2C JUMP JUMPDEST SWAP6 POP DUP1 NOT DUP5 AND SWAP4 POP DUP1 DUP7 AND DUP5 OR SWAP3 POP POP POP SWAP4 SWAP3 POP POP POP JUMP JUMPDEST PUSH1 0x0 DUP2 SWAP1 POP SWAP2 SWAP1 POP JUMP JUMPDEST PUSH1 0x0 DUP2 SWAP1 POP SWAP2 SWAP1 POP JUMP JUMPDEST PUSH1 0x0 PUSH2 0xBBA PUSH2 0xBB5 PUSH2 0xBB0 DUP5 PUSH2 0xB8B JUMP JUMPDEST PUSH2 0xB95 JUMP JUMPDEST PUSH2 0xB8B JUMP JUMPDEST SWAP1 POP SWAP2 SWAP1 POP JUMP JUMPDEST PUSH1 0x0 DUP2 SWAP1 POP SWAP2 SWAP1 POP JUMP JUMPDEST PUSH2 0xBD4 DUP4 PUSH2 0xB9F JUMP JUMPDEST PUSH2 0xBE8 PUSH2 0xBE0 DUP3 PUSH2 0xBC1 JUMP JUMPDEST DUP5 DUP5 SLOAD PUSH2 0xB39 JUMP JUMPDEST DUP3 SSTORE POP POP POP POP JUMP JUMPDEST PUSH1 0x0 SWAP1 JUMP JUMPDEST PUSH2 0xBFD PUSH2 0xBF0 JUMP JUMPDEST PUSH2 0xC08 DUP2 DUP5 DUP5 PUSH2 0xBCB JUMP JUMPDEST POP POP POP JUMP JUMPDEST JUMPDEST DUP2 DUP2 LT ISZERO PUSH2 0xC2C JUMPI PUSH2 0xC21 PUSH1 0x0 DUP3 PUSH2 0xBF5 JUMP JUMPDEST PUSH1 0x1 DUP2 ADD SWAP1 POP PUSH2 0xC0E JUMP JUMPDEST POP POP JUMP JUMPDEST PUSH1 0x1F DUP3 GT ISZERO PUSH2 0xC71 JUMPI PUSH2 0xC42 DUP2 PUSH2 0xB07 JUMP JUMPDEST PUSH2 0xC4B DUP5 PUSH2 0xB1C JUMP JUMPDEST DUP2 ADD PUSH1 0x20 DUP6 LT ISZERO PUSH2 0xC5A JUMPI DUP2 SWAP1 POP JUMPDEST PUSH2 0xC6E PUSH2 0xC66 DUP6 PUSH2 0xB1C JUMP JUMPDEST DUP4 ADD DUP3 PUSH2 0xC0D JUMP JUMPDEST POP POP JUMPDEST POP POP POP JUMP JUMPDEST PUSH1 0x0 DUP3 DUP3 SHR SWAP1 POP SWAP3 SWAP2 POP POP JUMP JUMPDEST PUSH1 0x0 PUSH2 0xC94 PUSH1 0x0 NOT DUP5 PUSH1 0x8 MUL PUSH2 0xC76 JUMP JUMPDEST NOT DUP1 DUP4 AND SWAP2 POP POP SWAP3 SWAP2 POP POP JUMP JUMPDEST PUSH1 0x0 PUSH2 0xCAD DUP4 DUP4 PUSH2 0xC83 JUMP JUMPDEST SWAP2 POP DUP3 PUSH1 0x2 MUL DUP3 OR SWAP1 POP SWAP3 SWAP2 POP POP JUMP JUMPDEST PUSH2 0xCC6 DUP3 PUSH2 0x8DC JUMP JUMPDEST PUSH8 0xFFFFFFFFFFFFFFFF DUP2 GT ISZERO PUSH2 0xCDF JUMPI PUSH2 0xCDE PUSH2 0x59B JUMP JUMPDEST JUMPDEST PUSH2 0xCE9 DUP3 SLOAD PUSH2 0xAD6 JUMP JUMPDEST PUSH2 0xCF4 DUP3 DUP3 DUP6 PUSH2 0xC30 JUMP JUMPDEST PUSH1 0x0 PUSH1 0x20 SWAP1 POP PUSH1 0x1F DUP4 GT PUSH1 0x1 DUP2 EQ PUSH2 0xD27 JUMPI PUSH1 0x0 DUP5 ISZERO PUSH2 0xD15 JUMPI DUP3 DUP8 ADD MLOAD SWAP1 POP JUMPDEST PUSH2 0xD1F DUP6 DUP3 PUSH2 0xCA1 JUMP JUMPDEST DUP7 SSTORE POP PUSH2 0xD87 JUMP JUMPDEST PUSH1 0x1F NOT DUP5 AND PUSH2 0xD35 DUP7 PUSH2 0xB07 JUMP JUMPDEST PUSH1 0x0 JUMPDEST DUP3 DUP2 LT ISZERO PUSH2 0xD5D JUMPI DUP5 DUP10 ADD MLOAD DUP3 SSTORE PUSH1 0x1 DUP3 ADD SWAP2 POP PUSH1 0x20 DUP6 ADD SWAP5 POP PUSH1 0x20 DUP2 ADD SWAP1 POP PUSH2 0xD38 JUMP JUMPDEST DUP7 DUP4 LT ISZERO PUSH2 0xD7A JUMPI DUP5 DUP10 ADD MLOAD PUSH2 0xD76 PUSH1 0x1F DUP10 AND DUP3 PUSH2 0xC83 JUMP JUMPDEST DUP4 SSTORE POP JUMPDEST PUSH1 0x1 PUSH1 0x2 DUP9 MUL ADD DUP9 SSTORE POP POP POP JUMPDEST POP POP POP POP POP POP JUMP INVALID LOG2 PUSH5 0x6970667358 0x22 SLT KECCAK256 0xD0 ISZERO SAR POP SMOD 0xF8 0x4B DUP4 BYTE OR KECCAK256 SWAP9 SWAP6 0xE9 CALL SWAP6 PUSH17 0xB19D4D752649E49CAA479F6CCD19D76473 PUSH16 0x6C634300081300330000000000000000 "},"methodIdentifiers":{"addFile((string,string,address,string,string))":"9aa7f418","getFileByIpfsCID(string)":"9f5937f8"}}}}}