{"contracts/Helper.sol":{"Helper":{"abi":[{"inputs":[{"components":[{"internalType":"string","name":"ipfsCID","type":"string"},{"internalType":"string","name":"fileName","type":"string"},{"internalType":"int256","name":"version","type":"int256"},{"internalType":"string","name":"prevIpfsCID","type":"string"},{"internalType":"address","name":"owner","type":"address"},{"internalType":"string","name":"fileType","type":"string"},{"internalType":"string","name":"iv","type":"string"},{"internalType":"string","name":"state","type":"string"},{"internalType":"string","name":"fileHash","type":"string"}],"internalType":"struct FileRegister.File","name":"file","type":"tuple"}],"name":"fileParamValid","outputs":[{"internalType":"bool","name":"","type":"bool"}],"stateMutability":"pure","type":"function"},{"inputs":[{"internalType":"address","name":"accountInput","type":"address"},{"internalType":"address","name":"accountList","type":"address"},{"internalType":"string","name":"ipfsCIDInput","type":"string"},{"internalType":"string","name":"ipfsCIDList","type":"string"}],"name":"isKeyEqual","outputs":[{"internalType":"bool","name":"","type":"bool"}],"stateMutability":"pure","type":"function"},{"inputs":[{"internalType":"string[]","name":"permissions","type":"string[]"}],"name":"stringArrayToString","outputs":[{"components":[{"internalType":"bool","name":"success","type":"bool"},{"internalType":"string","name":"resultString","type":"string"},{"internalType":"string","name":"message","type":"string"}],"internalType":"struct Helper.ResultString","name":"","type":"tuple"}],"stateMutability":"pure","type":"function"},{"inputs":[{"internalType":"string","name":"_str","type":"string"}],"name":"toLower","outputs":[{"internalType":"string","name":"","type":"string"}],"stateMutability":"pure","type":"function"},{"inputs":[{"internalType":"string[]","name":"permissions","type":"string[]"}],"name":"validPermissions","outputs":[{"internalType":"bool","name":"","type":"bool"}],"stateMutability":"pure","type":"function"},{"inputs":[{"components":[{"internalType":"address","name":"account","type":"address"},{"internalType":"string","name":"userName","type":"string"},{"internalType":"string","name":"mnemonic","type":"string"},{"internalType":"string","name":"publicKey","type":"string"}],"internalType":"struct UserRegister.User","name":"user","type":"tuple"}],"name":"validUserFields","outputs":[{"internalType":"bool","name":"","type":"bool"}],"stateMutability":"pure","type":"function"},{"inputs":[{"internalType":"address","name":"userAccount","type":"address"},{"internalType":"string","name":"fileIpfsCID","type":"string"},{"internalType":"string[]","name":"permissions","type":"string[]"},{"internalType":"string","name":"state","type":"string"}],"name":"verifyValidFields","outputs":[{"internalType":"bool","name":"","type":"bool"}],"stateMutability":"pure","type":"function"}],"evm":{"bytecode":{"linkReferences":{},"object":"608060405234801561001057600080fd5b5061174f806100206000396000f3fe608060405234801561001057600080fd5b506004361061007d5760003560e01c8063872e35a91161005b578063872e35a9146101125780639416b42314610142578063bda49b1d14610172578063e779f450146101a25761007d565b80634294a5ad146100825780635c99c71b146100b25780636bb8d768146100e2575b600080fd5b61009c60048036038101906100979190610cef565b6101d2565b6040516100a99190610d53565b60405180910390f35b6100cc60048036038101906100c79190610d6e565b6102a7565b6040516100d99190610d53565b60405180910390f35b6100fc60048036038101906100f79190610ef3565b610339565b6040516101099190611021565b60405180910390f35b61012c60048036038101906101279190611043565b61040e565b6040516101399190610d53565b60405180910390f35b61015c600480360381019061015791906110fe565b6104bb565b6040516101699190611191565b60405180910390f35b61018c60048036038101906101879190610ef3565b6105bb565b6040516101999190610d53565b60405180910390f35b6101bc60048036038101906101b7919061127f565b610891565b6040516101c99190610d53565b60405180910390f35b600080826000015151141580156101ef5750600082602001515114155b8015610201575060008260a001515114155b8015610213575060008260c001515114155b80156102505750600073ffffffffffffffffffffffffffffffffffffffff16826080015173ffffffffffffffffffffffffffffffffffffffff1614155b801561028f5750816080015173ffffffffffffffffffffffffffffffffffffffff16826080015173ffffffffffffffffffffffffffffffffffffffff16145b1561029d57600190506102a2565b600090505b919050565b60008473ffffffffffffffffffffffffffffffffffffffff168473ffffffffffffffffffffffffffffffffffffffff1614801561032f5750826040516020016102f09190611304565b60405160208183030381529060405280519060200120826040516020016103179190611304565b60405160208183030381529060405280519060200120145b9050949350505050565b610341610930565b606060005b83518110156103d857818482815181106103635761036261131b565b5b602002602001015160405160200161037c92919061134a565b60405160208183030381529060405291506001845161039b91906113a7565b8110156103c557816040516020016103b39190611427565b60405160208183030381529060405291505b80806103d090611449565b915050610346565b50604051806060016040528060011515815260200182815260200160405180602001604052806000815250815250915050919050565b60008073ffffffffffffffffffffffffffffffffffffffff168573ffffffffffffffffffffffffffffffffffffffff161415801561047757508473ffffffffffffffffffffffffffffffffffffffff168573ffffffffffffffffffffffffffffffffffffffff16145b801561048557506000845114155b801561049357506000835114155b80156104a0575060008251145b156104ae57600190506104b3565b600090505b949350505050565b6060600082905060005b81518110156105b15760418282815181106104e3576104e261131b565b5b602001015160f81c60f81b60f81c60ff16101580156105265750605a8282815181106105125761051161131b565b5b602001015160f81c60f81b60f81c60ff1611155b1561059e5760208282815181106105405761053f61131b565b5b602001015160f81c60f81b60f81c610558919061149e565b60f81b82828151811061056e5761056d61131b565b5b60200101907effffffffffffffffffffffffffffffffffffffffffffffffffffffffffffff1916908160001a9053505b80806105a990611449565b9150506104c5565b5080915050919050565b600080600090505b8251811015610886576040516020016105db9061151f565b604051602081830303815290604052805190602001208382815181106106045761060361131b565b5b602002602001015160405160200161061c9190611304565b60405160208183030381529060405280519060200120141580156106a4575060405160200161064a90611580565b604051602081830303815290604052805190602001208382815181106106735761067261131b565b5b602002602001015160405160200161068b9190611304565b6040516020818303038152906040528051906020012014155b801561071457506040516020016106ba906115e1565b604051602081830303815290604052805190602001208382815181106106e3576106e261131b565b5b60200260200101516040516020016106fb9190611304565b6040516020818303038152906040528051906020012014155b8015610784575060405160200161072a90611642565b604051602081830303815290604052805190602001208382815181106107535761075261131b565b5b602002602001015160405160200161076b9190611304565b6040516020818303038152906040528051906020012014155b80156107f4575060405160200161079a906116a3565b604051602081830303815290604052805190602001208382815181106107c3576107c261131b565b5b60200260200101516040516020016107db9190611304565b6040516020818303038152906040528051906020012014155b8015610864575060405160200161080a90611704565b604051602081830303815290604052805190602001208382815181106108335761083261131b565b5b602002602001015160405160200161084b9190611304565b6040516020818303038152906040528051906020012014155b1561087357600091505061088c565b808061087e90611449565b9150506105c3565b50600190505b919050565b60008073ffffffffffffffffffffffffffffffffffffffff16826000015173ffffffffffffffffffffffffffffffffffffffff16141580156109065750816000015173ffffffffffffffffffffffffffffffffffffffff16826000015173ffffffffffffffffffffffffffffffffffffffff16145b80156109185750600082602001515114155b15610926576001905061092b565b600090505b919050565b604051806060016040528060001515815260200160608152602001606081525090565b6000604051905090565b600080fd5b600080fd5b600080fd5b6000601f19601f8301169050919050565b7f4e487b7100000000000000000000000000000000000000000000000000000000600052604160045260246000fd5b6109b58261096c565b810181811067ffffffffffffffff821117156109d4576109d361097d565b5b80604052505050565b60006109e7610953565b90506109f382826109ac565b919050565b600080fd5b600080fd5b600080fd5b600067ffffffffffffffff821115610a2257610a2161097d565b5b610a2b8261096c565b9050602081019050919050565b82818337600083830152505050565b6000610a5a610a5584610a07565b6109dd565b905082815260208101848484011115610a7657610a75610a02565b5b610a81848285610a38565b509392505050565b600082601f830112610a9e57610a9d6109fd565b5b8135610aae848260208601610a47565b91505092915050565b6000819050919050565b610aca81610ab7565b8114610ad557600080fd5b50565b600081359050610ae781610ac1565b92915050565b600073ffffffffffffffffffffffffffffffffffffffff82169050919050565b6000610b1882610aed565b9050919050565b610b2881610b0d565b8114610b3357600080fd5b50565b600081359050610b4581610b1f565b92915050565b60006101208284031215610b6257610b61610967565b5b610b6d6101206109dd565b9050600082013567ffffffffffffffff811115610b8d57610b8c6109f8565b5b610b9984828501610a89565b600083015250602082013567ffffffffffffffff811115610bbd57610bbc6109f8565b5b610bc984828501610a89565b6020830152506040610bdd84828501610ad8565b604083015250606082013567ffffffffffffffff811115610c0157610c006109f8565b5b610c0d84828501610a89565b6060830152506080610c2184828501610b36565b60808301525060a082013567ffffffffffffffff811115610c4557610c446109f8565b5b610c5184828501610a89565b60a08301525060c082013567ffffffffffffffff811115610c7557610c746109f8565b5b610c8184828501610a89565b60c08301525060e082013567ffffffffffffffff811115610ca557610ca46109f8565b5b610cb184828501610a89565b60e08301525061010082013567ffffffffffffffff811115610cd657610cd56109f8565b5b610ce284828501610a89565b6101008301525092915050565b600060208284031215610d0557610d0461095d565b5b600082013567ffffffffffffffff811115610d2357610d22610962565b5b610d2f84828501610b4b565b91505092915050565b60008115159050919050565b610d4d81610d38565b82525050565b6000602082019050610d686000830184610d44565b92915050565b60008060008060808587031215610d8857610d8761095d565b5b6000610d9687828801610b36565b9450506020610da787828801610b36565b935050604085013567ffffffffffffffff811115610dc857610dc7610962565b5b610dd487828801610a89565b925050606085013567ffffffffffffffff811115610df557610df4610962565b5b610e0187828801610a89565b91505092959194509250565b600067ffffffffffffffff821115610e2857610e2761097d565b5b602082029050602081019050919050565b600080fd5b6000610e51610e4c84610e0d565b6109dd565b90508083825260208201905060208402830185811115610e7457610e73610e39565b5b835b81811015610ebb57803567ffffffffffffffff811115610e9957610e986109fd565b5b808601610ea68982610a89565b85526020850194505050602081019050610e76565b5050509392505050565b600082601f830112610eda57610ed96109fd565b5b8135610eea848260208601610e3e565b91505092915050565b600060208284031215610f0957610f0861095d565b5b600082013567ffffffffffffffff811115610f2757610f26610962565b5b610f3384828501610ec5565b91505092915050565b610f4581610d38565b82525050565b600081519050919050565b600082825260208201905092915050565b60005b83811015610f85578082015181840152602081019050610f6a565b60008484015250505050565b6000610f9c82610f4b565b610fa68185610f56565b9350610fb6818560208601610f67565b610fbf8161096c565b840191505092915050565b6000606083016000830151610fe26000860182610f3c565b5060208301518482036020860152610ffa8282610f91565b915050604083015184820360408601526110148282610f91565b9150508091505092915050565b6000602082019050818103600083015261103b8184610fca565b905092915050565b6000806000806080858703121561105d5761105c61095d565b5b600061106b87828801610b36565b945050602085013567ffffffffffffffff81111561108c5761108b610962565b5b61109887828801610a89565b935050604085013567ffffffffffffffff8111156110b9576110b8610962565b5b6110c587828801610ec5565b925050606085013567ffffffffffffffff8111156110e6576110e5610962565b5b6110f287828801610a89565b91505092959194509250565b6000602082840312156111145761111361095d565b5b600082013567ffffffffffffffff81111561113257611131610962565b5b61113e84828501610a89565b91505092915050565b600082825260208201905092915050565b600061116382610f4b565b61116d8185611147565b935061117d818560208601610f67565b6111868161096c565b840191505092915050565b600060208201905081810360008301526111ab8184611158565b905092915050565b6000608082840312156111c9576111c8610967565b5b6111d360806109dd565b905060006111e384828501610b36565b600083015250602082013567ffffffffffffffff811115611207576112066109f8565b5b61121384828501610a89565b602083015250604082013567ffffffffffffffff811115611237576112366109f8565b5b61124384828501610a89565b604083015250606082013567ffffffffffffffff811115611267576112666109f8565b5b61127384828501610a89565b60608301525092915050565b6000602082840312156112955761129461095d565b5b600082013567ffffffffffffffff8111156112b3576112b2610962565b5b6112bf848285016111b3565b91505092915050565b600081905092915050565b60006112de82610f4b565b6112e881856112c8565b93506112f8818560208601610f67565b80840191505092915050565b600061131082846112d3565b915081905092915050565b7f4e487b7100000000000000000000000000000000000000000000000000000000600052603260045260246000fd5b600061135682856112d3565b915061136282846112d3565b91508190509392505050565b6000819050919050565b7f4e487b7100000000000000000000000000000000000000000000000000000000600052601160045260246000fd5b60006113b28261136e565b91506113bd8361136e565b92508282039050818111156113d5576113d4611378565b5b92915050565b7f2c20000000000000000000000000000000000000000000000000000000000000600082015250565b60006114116002836112c8565b915061141c826113db565b600282019050919050565b600061143382846112d3565b915061143e82611404565b915081905092915050565b60006114548261136e565b91507fffffffffffffffffffffffffffffffffffffffffffffffffffffffffffffffff820361148657611485611378565b5b600182019050919050565b600060ff82169050919050565b60006114a982611491565b91506114b483611491565b9250828201905060ff8111156114cd576114cc611378565b5b92915050565b7f646f776e6c6f6164000000000000000000000000000000000000000000000000600082015250565b60006115096008836112c8565b9150611514826114d3565b600882019050919050565b600061152a826114fc565b9150819050919050565b7f6564697400000000000000000000000000000000000000000000000000000000600082015250565b600061156a6004836112c8565b915061157582611534565b600482019050919050565b600061158b8261155d565b9150819050919050565b7f64656c6574650000000000000000000000000000000000000000000000000000600082015250565b60006115cb6006836112c8565b91506115d682611595565b600682019050919050565b60006115ec826115be565b9150819050919050565b7f7368617265000000000000000000000000000000000000000000000000000000600082015250565b600061162c6005836112c8565b9150611637826115f6565b600582019050919050565b600061164d8261161f565b9150819050919050565b7f7665726966790000000000000000000000000000000000000000000000000000600082015250565b600061168d6006836112c8565b915061169882611657565b600682019050919050565b60006116ae82611680565b9150819050919050565b7f696e666f00000000000000000000000000000000000000000000000000000000600082015250565b60006116ee6004836112c8565b91506116f9826116b8565b600482019050919050565b600061170f826116e1565b915081905091905056fea26469706673582212203f3e340f02590c6b141a0e01f84527cf76253e9cc3e842ea3a66def9ea2f3cf964736f6c63430008130033","opcodes":"PUSH1 0x80 PUSH1 0x40 MSTORE CALLVALUE DUP1 ISZERO PUSH2 0x10 JUMPI PUSH1 0x0 DUP1 REVERT JUMPDEST POP PUSH2 0x174F DUP1 PUSH2 0x20 PUSH1 0x0 CODECOPY PUSH1 0x0 RETURN INVALID PUSH1 0x80 PUSH1 0x40 MSTORE CALLVALUE DUP1 ISZERO PUSH2 0x10 JUMPI PUSH1 0x0 DUP1 REVERT JUMPDEST POP PUSH1 0x4 CALLDATASIZE LT PUSH2 0x7D JUMPI PUSH1 0x0 CALLDATALOAD PUSH1 0xE0 SHR DUP1 PUSH4 0x872E35A9 GT PUSH2 0x5B JUMPI DUP1 PUSH4 0x872E35A9 EQ PUSH2 0x112 JUMPI DUP1 PUSH4 0x9416B423 EQ PUSH2 0x142 JUMPI DUP1 PUSH4 0xBDA49B1D EQ PUSH2 0x172 JUMPI DUP1 PUSH4 0xE779F450 EQ PUSH2 0x1A2 JUMPI PUSH2 0x7D JUMP JUMPDEST DUP1 PUSH4 0x4294A5AD EQ PUSH2 0x82 JUMPI DUP1 PUSH4 0x5C99C71B EQ PUSH2 0xB2 JUMPI DUP1 PUSH4 0x6BB8D768 EQ PUSH2 0xE2 JUMPI JUMPDEST PUSH1 0x0 DUP1 REVERT JUMPDEST PUSH2 0x9C PUSH1 0x4 DUP1 CALLDATASIZE SUB DUP2 ADD SWAP1 PUSH2 0x97 SWAP2 SWAP1 PUSH2 0xCEF JUMP JUMPDEST PUSH2 0x1D2 JUMP JUMPDEST PUSH1 0x40 MLOAD PUSH2 0xA9 SWAP2 SWAP1 PUSH2 0xD53 JUMP JUMPDEST PUSH1 0x40 MLOAD DUP1 SWAP2 SUB SWAP1 RETURN JUMPDEST PUSH2 0xCC PUSH1 0x4 DUP1 CALLDATASIZE SUB DUP2 ADD SWAP1 PUSH2 0xC7 SWAP2 SWAP1 PUSH2 0xD6E JUMP JUMPDEST PUSH2 0x2A7 JUMP JUMPDEST PUSH1 0x40 MLOAD PUSH2 0xD9 SWAP2 SWAP1 PUSH2 0xD53 JUMP JUMPDEST PUSH1 0x40 MLOAD DUP1 SWAP2 SUB SWAP1 RETURN JUMPDEST PUSH2 0xFC PUSH1 0x4 DUP1 CALLDATASIZE SUB DUP2 ADD SWAP1 PUSH2 0xF7 SWAP2 SWAP1 PUSH2 0xEF3 JUMP JUMPDEST PUSH2 0x339 JUMP JUMPDEST PUSH1 0x40 MLOAD PUSH2 0x109 SWAP2 SWAP1 PUSH2 0x1021 JUMP JUMPDEST PUSH1 0x40 MLOAD DUP1 SWAP2 SUB SWAP1 RETURN JUMPDEST PUSH2 0x12C PUSH1 0x4 DUP1 CALLDATASIZE SUB DUP2 ADD SWAP1 PUSH2 0x127 SWAP2 SWAP1 PUSH2 0x1043 JUMP JUMPDEST PUSH2 0x40E JUMP JUMPDEST PUSH1 0x40 MLOAD PUSH2 0x139 SWAP2 SWAP1 PUSH2 0xD53 JUMP JUMPDEST PUSH1 0x40 MLOAD DUP1 SWAP2 SUB SWAP1 RETURN JUMPDEST PUSH2 0x15C PUSH1 0x4 DUP1 CALLDATASIZE SUB DUP2 ADD SWAP1 PUSH2 0x157 SWAP2 SWAP1 PUSH2 0x10FE JUMP JUMPDEST PUSH2 0x4BB JUMP JUMPDEST PUSH1 0x40 MLOAD PUSH2 0x169 SWAP2 SWAP1 PUSH2 0x1191 JUMP JUMPDEST PUSH1 0x40 MLOAD DUP1 SWAP2 SUB SWAP1 RETURN JUMPDEST PUSH2 0x18C PUSH1 0x4 DUP1 CALLDATASIZE SUB DUP2 ADD SWAP1 PUSH2 0x187 SWAP2 SWAP1 PUSH2 0xEF3 JUMP JUMPDEST PUSH2 0x5BB JUMP JUMPDEST PUSH1 0x40 MLOAD PUSH2 0x199 SWAP2 SWAP1 PUSH2 0xD53 JUMP JUMPDEST PUSH1 0x40 MLOAD DUP1 SWAP2 SUB SWAP1 RETURN JUMPDEST PUSH2 0x1BC PUSH1 0x4 DUP1 CALLDATASIZE SUB DUP2 ADD SWAP1 PUSH2 0x1B7 SWAP2 SWAP1 PUSH2 0x127F JUMP JUMPDEST PUSH2 0x891 JUMP JUMPDEST PUSH1 0x40 MLOAD PUSH2 0x1C9 SWAP2 SWAP1 PUSH2 0xD53 JUMP JUMPDEST PUSH1 0x40 MLOAD DUP1 SWAP2 SUB SWAP1 RETURN JUMPDEST PUSH1 0x0 DUP1 DUP3 PUSH1 0x0 ADD MLOAD MLOAD EQ ISZERO DUP1 ISZERO PUSH2 0x1EF JUMPI POP PUSH1 0x0 DUP3 PUSH1 0x20 ADD MLOAD MLOAD EQ ISZERO JUMPDEST DUP1 ISZERO PUSH2 0x201 JUMPI POP PUSH1 0x0 DUP3 PUSH1 0xA0 ADD MLOAD MLOAD EQ ISZERO JUMPDEST DUP1 ISZERO PUSH2 0x213 JUMPI POP PUSH1 0x0 DUP3 PUSH1 0xC0 ADD MLOAD MLOAD EQ ISZERO JUMPDEST DUP1 ISZERO PUSH2 0x250 JUMPI POP PUSH1 0x0 PUSH20 0xFFFFFFFFFFFFFFFFFFFFFFFFFFFFFFFFFFFFFFFF AND DUP3 PUSH1 0x80 ADD MLOAD PUSH20 0xFFFFFFFFFFFFFFFFFFFFFFFFFFFFFFFFFFFFFFFF AND EQ ISZERO JUMPDEST DUP1 ISZERO PUSH2 0x28F JUMPI POP DUP2 PUSH1 0x80 ADD MLOAD PUSH20 0xFFFFFFFFFFFFFFFFFFFFFFFFFFFFFFFFFFFFFFFF AND DUP3 PUSH1 0x80 ADD MLOAD PUSH20 0xFFFFFFFFFFFFFFFFFFFFFFFFFFFFFFFFFFFFFFFF AND EQ JUMPDEST ISZERO PUSH2 0x29D JUMPI PUSH1 0x1 SWAP1 POP PUSH2 0x2A2 JUMP JUMPDEST PUSH1 0x0 SWAP1 POP JUMPDEST SWAP2 SWAP1 POP JUMP JUMPDEST PUSH1 0x0 DUP5 PUSH20 0xFFFFFFFFFFFFFFFFFFFFFFFFFFFFFFFFFFFFFFFF AND DUP5 PUSH20 0xFFFFFFFFFFFFFFFFFFFFFFFFFFFFFFFFFFFFFFFF AND EQ DUP1 ISZERO PUSH2 0x32F JUMPI POP DUP3 PUSH1 0x40 MLOAD PUSH1 0x20 ADD PUSH2 0x2F0 SWAP2 SWAP1 PUSH2 0x1304 JUMP JUMPDEST PUSH1 0x40 MLOAD PUSH1 0x20 DUP2 DUP4 SUB SUB DUP2 MSTORE SWAP1 PUSH1 0x40 MSTORE DUP1 MLOAD SWAP1 PUSH1 0x20 ADD KECCAK256 DUP3 PUSH1 0x40 MLOAD PUSH1 0x20 ADD PUSH2 0x317 SWAP2 SWAP1 PUSH2 0x1304 JUMP JUMPDEST PUSH1 0x40 MLOAD PUSH1 0x20 DUP2 DUP4 SUB SUB DUP2 MSTORE SWAP1 PUSH1 0x40 MSTORE DUP1 MLOAD SWAP1 PUSH1 0x20 ADD KECCAK256 EQ JUMPDEST SWAP1 POP SWAP5 SWAP4 POP POP POP POP JUMP JUMPDEST PUSH2 0x341 PUSH2 0x930 JUMP JUMPDEST PUSH1 0x60 PUSH1 0x0 JUMPDEST DUP4 MLOAD DUP2 LT ISZERO PUSH2 0x3D8 JUMPI DUP2 DUP5 DUP3 DUP2 MLOAD DUP2 LT PUSH2 0x363 JUMPI PUSH2 0x362 PUSH2 0x131B JUMP JUMPDEST JUMPDEST PUSH1 0x20 MUL PUSH1 0x20 ADD ADD MLOAD PUSH1 0x40 MLOAD PUSH1 0x20 ADD PUSH2 0x37C SWAP3 SWAP2 SWAP1 PUSH2 0x134A JUMP JUMPDEST PUSH1 0x40 MLOAD PUSH1 0x20 DUP2 DUP4 SUB SUB DUP2 MSTORE SWAP1 PUSH1 0x40 MSTORE SWAP2 POP PUSH1 0x1 DUP5 MLOAD PUSH2 0x39B SWAP2 SWAP1 PUSH2 0x13A7 JUMP JUMPDEST DUP2 LT ISZERO PUSH2 0x3C5 JUMPI DUP2 PUSH1 0x40 MLOAD PUSH1 0x20 ADD PUSH2 0x3B3 SWAP2 SWAP1 PUSH2 0x1427 JUMP JUMPDEST PUSH1 0x40 MLOAD PUSH1 0x20 DUP2 DUP4 SUB SUB DUP2 MSTORE SWAP1 PUSH1 0x40 MSTORE SWAP2 POP JUMPDEST DUP1 DUP1 PUSH2 0x3D0 SWAP1 PUSH2 0x1449 JUMP JUMPDEST SWAP2 POP POP PUSH2 0x346 JUMP JUMPDEST POP PUSH1 0x40 MLOAD DUP1 PUSH1 0x60 ADD PUSH1 0x40 MSTORE DUP1 PUSH1 0x1 ISZERO ISZERO DUP2 MSTORE PUSH1 0x20 ADD DUP3 DUP2 MSTORE PUSH1 0x20 ADD PUSH1 0x40 MLOAD DUP1 PUSH1 0x20 ADD PUSH1 0x40 MSTORE DUP1 PUSH1 0x0 DUP2 MSTORE POP DUP2 MSTORE POP SWAP2 POP POP SWAP2 SWAP1 POP JUMP JUMPDEST PUSH1 0x0 DUP1 PUSH20 0xFFFFFFFFFFFFFFFFFFFFFFFFFFFFFFFFFFFFFFFF AND DUP6 PUSH20 0xFFFFFFFFFFFFFFFFFFFFFFFFFFFFFFFFFFFFFFFF AND EQ ISZERO DUP1 ISZERO PUSH2 0x477 JUMPI POP DUP5 PUSH20 0xFFFFFFFFFFFFFFFFFFFFFFFFFFFFFFFFFFFFFFFF AND DUP6 PUSH20 0xFFFFFFFFFFFFFFFFFFFFFFFFFFFFFFFFFFFFFFFF AND EQ JUMPDEST DUP1 ISZERO PUSH2 0x485 JUMPI POP PUSH1 0x0 DUP5 MLOAD EQ ISZERO JUMPDEST DUP1 ISZERO PUSH2 0x493 JUMPI POP PUSH1 0x0 DUP4 MLOAD EQ ISZERO JUMPDEST DUP1 ISZERO PUSH2 0x4A0 JUMPI POP PUSH1 0x0 DUP3 MLOAD EQ JUMPDEST ISZERO PUSH2 0x4AE JUMPI PUSH1 0x1 SWAP1 POP PUSH2 0x4B3 JUMP JUMPDEST PUSH1 0x0 SWAP1 POP JUMPDEST SWAP5 SWAP4 POP POP POP POP JUMP JUMPDEST PUSH1 0x60 PUSH1 0x0 DUP3 SWAP1 POP PUSH1 0x0 JUMPDEST DUP2 MLOAD DUP2 LT ISZERO PUSH2 0x5B1 JUMPI PUSH1 0x41 DUP3 DUP3 DUP2 MLOAD DUP2 LT PUSH2 0x4E3 JUMPI PUSH2 0x4E2 PUSH2 0x131B JUMP JUMPDEST JUMPDEST PUSH1 0x20 ADD ADD MLOAD PUSH1 0xF8 SHR PUSH1 0xF8 SHL PUSH1 0xF8 SHR PUSH1 0xFF AND LT ISZERO DUP1 ISZERO PUSH2 0x526 JUMPI POP PUSH1 0x5A DUP3 DUP3 DUP2 MLOAD DUP2 LT PUSH2 0x512 JUMPI PUSH2 0x511 PUSH2 0x131B JUMP JUMPDEST JUMPDEST PUSH1 0x20 ADD ADD MLOAD PUSH1 0xF8 SHR PUSH1 0xF8 SHL PUSH1 0xF8 SHR PUSH1 0xFF AND GT ISZERO JUMPDEST ISZERO PUSH2 0x59E JUMPI PUSH1 0x20 DUP3 DUP3 DUP2 MLOAD DUP2 LT PUSH2 0x540 JUMPI PUSH2 0x53F PUSH2 0x131B JUMP JUMPDEST JUMPDEST PUSH1 0x20 ADD ADD MLOAD PUSH1 0xF8 SHR PUSH1 0xF8 SHL PUSH1 0xF8 SHR PUSH2 0x558 SWAP2 SWAP1 PUSH2 0x149E JUMP JUMPDEST PUSH1 0xF8 SHL DUP3 DUP3 DUP2 MLOAD DUP2 LT PUSH2 0x56E JUMPI PUSH2 0x56D PUSH2 0x131B JUMP JUMPDEST JUMPDEST PUSH1 0x20 ADD ADD SWAP1 PUSH31 0xFFFFFFFFFFFFFFFFFFFFFFFFFFFFFFFFFFFFFFFFFFFFFFFFFFFFFFFFFFFFFF NOT AND SWAP1 DUP2 PUSH1 0x0 BYTE SWAP1 MSTORE8 POP JUMPDEST DUP1 DUP1 PUSH2 0x5A9 SWAP1 PUSH2 0x1449 JUMP JUMPDEST SWAP2 POP POP PUSH2 0x4C5 JUMP JUMPDEST POP DUP1 SWAP2 POP POP SWAP2 SWAP1 POP JUMP JUMPDEST PUSH1 0x0 DUP1 PUSH1 0x0 SWAP1 POP JUMPDEST DUP3 MLOAD DUP2 LT ISZERO PUSH2 0x886 JUMPI PUSH1 0x40 MLOAD PUSH1 0x20 ADD PUSH2 0x5DB SWAP1 PUSH2 0x151F JUMP JUMPDEST PUSH1 0x40 MLOAD PUSH1 0x20 DUP2 DUP4 SUB SUB DUP2 MSTORE SWAP1 PUSH1 0x40 MSTORE DUP1 MLOAD SWAP1 PUSH1 0x20 ADD KECCAK256 DUP4 DUP3 DUP2 MLOAD DUP2 LT PUSH2 0x604 JUMPI PUSH2 0x603 PUSH2 0x131B JUMP JUMPDEST JUMPDEST PUSH1 0x20 MUL PUSH1 0x20 ADD ADD MLOAD PUSH1 0x40 MLOAD PUSH1 0x20 ADD PUSH2 0x61C SWAP2 SWAP1 PUSH2 0x1304 JUMP JUMPDEST PUSH1 0x40 MLOAD PUSH1 0x20 DUP2 DUP4 SUB SUB DUP2 MSTORE SWAP1 PUSH1 0x40 MSTORE DUP1 MLOAD SWAP1 PUSH1 0x20 ADD KECCAK256 EQ ISZERO DUP1 ISZERO PUSH2 0x6A4 JUMPI POP PUSH1 0x40 MLOAD PUSH1 0x20 ADD PUSH2 0x64A SWAP1 PUSH2 0x1580 JUMP JUMPDEST PUSH1 0x40 MLOAD PUSH1 0x20 DUP2 DUP4 SUB SUB DUP2 MSTORE SWAP1 PUSH1 0x40 MSTORE DUP1 MLOAD SWAP1 PUSH1 0x20 ADD KECCAK256 DUP4 DUP3 DUP2 MLOAD DUP2 LT PUSH2 0x673 JUMPI PUSH2 0x672 PUSH2 0x131B JUMP JUMPDEST JUMPDEST PUSH1 0x20 MUL PUSH1 0x20 ADD ADD MLOAD PUSH1 0x40 MLOAD PUSH1 0x20 ADD PUSH2 0x68B SWAP2 SWAP1 PUSH2 0x1304 JUMP JUMPDEST PUSH1 0x40 MLOAD PUSH1 0x20 DUP2 DUP4 SUB SUB DUP2 MSTORE SWAP1 PUSH1 0x40 MSTORE DUP1 MLOAD SWAP1 PUSH1 0x20 ADD KECCAK256 EQ ISZERO JUMPDEST DUP1 ISZERO PUSH2 0x714 JUMPI POP PUSH1 0x40 MLOAD PUSH1 0x20 ADD PUSH2 0x6BA SWAP1 PUSH2 0x15E1 JUMP JUMPDEST PUSH1 0x40 MLOAD PUSH1 0x20 DUP2 DUP4 SUB SUB DUP2 MSTORE SWAP1 PUSH1 0x40 MSTORE DUP1 MLOAD SWAP1 PUSH1 0x20 ADD KECCAK256 DUP4 DUP3 DUP2 MLOAD DUP2 LT PUSH2 0x6E3 JUMPI PUSH2 0x6E2 PUSH2 0x131B JUMP JUMPDEST JUMPDEST PUSH1 0x20 MUL PUSH1 0x20 ADD ADD MLOAD PUSH1 0x40 MLOAD PUSH1 0x20 ADD PUSH2 0x6FB SWAP2 SWAP1 PUSH2 0x1304 JUMP JUMPDEST PUSH1 0x40 MLOAD PUSH1 0x20 DUP2 DUP4 SUB SUB DUP2 MSTORE SWAP1 PUSH1 0x40 MSTORE DUP1 MLOAD SWAP1 PUSH1 0x20 ADD KECCAK256 EQ ISZERO JUMPDEST DUP1 ISZERO PUSH2 0x784 JUMPI POP PUSH1 0x40 MLOAD PUSH1 0x20 ADD PUSH2 0x72A SWAP1 PUSH2 0x1642 JUMP JUMPDEST PUSH1 0x40 MLOAD PUSH1 0x20 DUP2 DUP4 SUB SUB DUP2 MSTORE SWAP1 PUSH1 0x40 MSTORE DUP1 MLOAD SWAP1 PUSH1 0x20 ADD KECCAK256 DUP4 DUP3 DUP2 MLOAD DUP2 LT PUSH2 0x753 JUMPI PUSH2 0x752 PUSH2 0x131B JUMP JUMPDEST JUMPDEST PUSH1 0x20 MUL PUSH1 0x20 ADD ADD MLOAD PUSH1 0x40 MLOAD PUSH1 0x20 ADD PUSH2 0x76B SWAP2 SWAP1 PUSH2 0x1304 JUMP JUMPDEST PUSH1 0x40 MLOAD PUSH1 0x20 DUP2 DUP4 SUB SUB DUP2 MSTORE SWAP1 PUSH1 0x40 MSTORE DUP1 MLOAD SWAP1 PUSH1 0x20 ADD KECCAK256 EQ ISZERO JUMPDEST DUP1 ISZERO PUSH2 0x7F4 JUMPI POP PUSH1 0x40 MLOAD PUSH1 0x20 ADD PUSH2 0x79A SWAP1 PUSH2 0x16A3 JUMP JUMPDEST PUSH1 0x40 MLOAD PUSH1 0x20 DUP2 DUP4 SUB SUB DUP2 MSTORE SWAP1 PUSH1 0x40 MSTORE DUP1 MLOAD SWAP1 PUSH1 0x20 ADD KECCAK256 DUP4 DUP3 DUP2 MLOAD DUP2 LT PUSH2 0x7C3 JUMPI PUSH2 0x7C2 PUSH2 0x131B JUMP JUMPDEST JUMPDEST PUSH1 0x20 MUL PUSH1 0x20 ADD ADD MLOAD PUSH1 0x40 MLOAD PUSH1 0x20 ADD PUSH2 0x7DB SWAP2 SWAP1 PUSH2 0x1304 JUMP JUMPDEST PUSH1 0x40 MLOAD PUSH1 0x20 DUP2 DUP4 SUB SUB DUP2 MSTORE SWAP1 PUSH1 0x40 MSTORE DUP1 MLOAD SWAP1 PUSH1 0x20 ADD KECCAK256 EQ ISZERO JUMPDEST DUP1 ISZERO PUSH2 0x864 JUMPI POP PUSH1 0x40 MLOAD PUSH1 0x20 ADD PUSH2 0x80A SWAP1 PUSH2 0x1704 JUMP JUMPDEST PUSH1 0x40 MLOAD PUSH1 0x20 DUP2 DUP4 SUB SUB DUP2 MSTORE SWAP1 PUSH1 0x40 MSTORE DUP1 MLOAD SWAP1 PUSH1 0x20 ADD KECCAK256 DUP4 DUP3 DUP2 MLOAD DUP2 LT PUSH2 0x833 JUMPI PUSH2 0x832 PUSH2 0x131B JUMP JUMPDEST JUMPDEST PUSH1 0x20 MUL PUSH1 0x20 ADD ADD MLOAD PUSH1 0x40 MLOAD PUSH1 0x20 ADD PUSH2 0x84B SWAP2 SWAP1 PUSH2 0x1304 JUMP JUMPDEST PUSH1 0x40 MLOAD PUSH1 0x20 DUP2 DUP4 SUB SUB DUP2 MSTORE SWAP1 PUSH1 0x40 MSTORE DUP1 MLOAD SWAP1 PUSH1 0x20 ADD KECCAK256 EQ ISZERO JUMPDEST ISZERO PUSH2 0x873 JUMPI PUSH1 0x0 SWAP2 POP POP PUSH2 0x88C JUMP JUMPDEST DUP1 DUP1 PUSH2 0x87E SWAP1 PUSH2 0x1449 JUMP JUMPDEST SWAP2 POP POP PUSH2 0x5C3 JUMP JUMPDEST POP PUSH1 0x1 SWAP1 POP JUMPDEST SWAP2 SWAP1 POP JUMP JUMPDEST PUSH1 0x0 DUP1 PUSH20 0xFFFFFFFFFFFFFFFFFFFFFFFFFFFFFFFFFFFFFFFF AND DUP3 PUSH1 0x0 ADD MLOAD PUSH20 0xFFFFFFFFFFFFFFFFFFFFFFFFFFFFFFFFFFFFFFFF AND EQ ISZERO DUP1 ISZERO PUSH2 0x906 JUMPI POP DUP2 PUSH1 0x0 ADD MLOAD PUSH20 0xFFFFFFFFFFFFFFFFFFFFFFFFFFFFFFFFFFFFFFFF AND DUP3 PUSH1 0x0 ADD MLOAD PUSH20 0xFFFFFFFFFFFFFFFFFFFFFFFFFFFFFFFFFFFFFFFF AND EQ JUMPDEST DUP1 ISZERO PUSH2 0x918 JUMPI POP PUSH1 0x0 DUP3 PUSH1 0x20 ADD MLOAD MLOAD EQ ISZERO JUMPDEST ISZERO PUSH2 0x926 JUMPI PUSH1 0x1 SWAP1 POP PUSH2 0x92B JUMP JUMPDEST PUSH1 0x0 SWAP1 POP JUMPDEST SWAP2 SWAP1 POP JUMP JUMPDEST PUSH1 0x40 MLOAD DUP1 PUSH1 0x60 ADD PUSH1 0x40 MSTORE DUP1 PUSH1 0x0 ISZERO ISZERO DUP2 MSTORE PUSH1 0x20 ADD PUSH1 0x60 DUP2 MSTORE PUSH1 0x20 ADD PUSH1 0x60 DUP2 MSTORE POP SWAP1 JUMP JUMPDEST PUSH1 0x0 PUSH1 0x40 MLOAD SWAP1 POP SWAP1 JUMP JUMPDEST PUSH1 0x0 DUP1 REVERT JUMPDEST PUSH1 0x0 DUP1 REVERT JUMPDEST PUSH1 0x0 DUP1 REVERT JUMPDEST PUSH1 0x0 PUSH1 0x1F NOT PUSH1 0x1F DUP4 ADD AND SWAP1 POP SWAP2 SWAP1 POP JUMP JUMPDEST PUSH32 0x4E487B7100000000000000000000000000000000000000000000000000000000 PUSH1 0x0 MSTORE PUSH1 0x41 PUSH1 0x4 MSTORE PUSH1 0x24 PUSH1 0x0 REVERT JUMPDEST PUSH2 0x9B5 DUP3 PUSH2 0x96C JUMP JUMPDEST DUP2 ADD DUP2 DUP2 LT PUSH8 0xFFFFFFFFFFFFFFFF DUP3 GT OR ISZERO PUSH2 0x9D4 JUMPI PUSH2 0x9D3 PUSH2 0x97D JUMP JUMPDEST JUMPDEST DUP1 PUSH1 0x40 MSTORE POP POP POP JUMP JUMPDEST PUSH1 0x0 PUSH2 0x9E7 PUSH2 0x953 JUMP JUMPDEST SWAP1 POP PUSH2 0x9F3 DUP3 DUP3 PUSH2 0x9AC JUMP JUMPDEST SWAP2 SWAP1 POP JUMP JUMPDEST PUSH1 0x0 DUP1 REVERT JUMPDEST PUSH1 0x0 DUP1 REVERT JUMPDEST PUSH1 0x0 DUP1 REVERT JUMPDEST PUSH1 0x0 PUSH8 0xFFFFFFFFFFFFFFFF DUP3 GT ISZERO PUSH2 0xA22 JUMPI PUSH2 0xA21 PUSH2 0x97D JUMP JUMPDEST JUMPDEST PUSH2 0xA2B DUP3 PUSH2 0x96C JUMP JUMPDEST SWAP1 POP PUSH1 0x20 DUP2 ADD SWAP1 POP SWAP2 SWAP1 POP JUMP JUMPDEST DUP3 DUP2 DUP4 CALLDATACOPY PUSH1 0x0 DUP4 DUP4 ADD MSTORE POP POP POP JUMP JUMPDEST PUSH1 0x0 PUSH2 0xA5A PUSH2 0xA55 DUP5 PUSH2 0xA07 JUMP JUMPDEST PUSH2 0x9DD JUMP JUMPDEST SWAP1 POP DUP3 DUP2 MSTORE PUSH1 0x20 DUP2 ADD DUP5 DUP5 DUP5 ADD GT ISZERO PUSH2 0xA76 JUMPI PUSH2 0xA75 PUSH2 0xA02 JUMP JUMPDEST JUMPDEST PUSH2 0xA81 DUP5 DUP3 DUP6 PUSH2 0xA38 JUMP JUMPDEST POP SWAP4 SWAP3 POP POP POP JUMP JUMPDEST PUSH1 0x0 DUP3 PUSH1 0x1F DUP4 ADD SLT PUSH2 0xA9E JUMPI PUSH2 0xA9D PUSH2 0x9FD JUMP JUMPDEST JUMPDEST DUP2 CALLDATALOAD PUSH2 0xAAE DUP5 DUP3 PUSH1 0x20 DUP7 ADD PUSH2 0xA47 JUMP JUMPDEST SWAP2 POP POP SWAP3 SWAP2 POP POP JUMP JUMPDEST PUSH1 0x0 DUP2 SWAP1 POP SWAP2 SWAP1 POP JUMP JUMPDEST PUSH2 0xACA DUP2 PUSH2 0xAB7 JUMP JUMPDEST DUP2 EQ PUSH2 0xAD5 JUMPI PUSH1 0x0 DUP1 REVERT JUMPDEST POP JUMP JUMPDEST PUSH1 0x0 DUP2 CALLDATALOAD SWAP1 POP PUSH2 0xAE7 DUP2 PUSH2 0xAC1 JUMP JUMPDEST SWAP3 SWAP2 POP POP JUMP JUMPDEST PUSH1 0x0 PUSH20 0xFFFFFFFFFFFFFFFFFFFFFFFFFFFFFFFFFFFFFFFF DUP3 AND SWAP1 POP SWAP2 SWAP1 POP JUMP JUMPDEST PUSH1 0x0 PUSH2 0xB18 DUP3 PUSH2 0xAED JUMP JUMPDEST SWAP1 POP SWAP2 SWAP1 POP JUMP JUMPDEST PUSH2 0xB28 DUP2 PUSH2 0xB0D JUMP JUMPDEST DUP2 EQ PUSH2 0xB33 JUMPI PUSH1 0x0 DUP1 REVERT JUMPDEST POP JUMP JUMPDEST PUSH1 0x0 DUP2 CALLDATALOAD SWAP1 POP PUSH2 0xB45 DUP2 PUSH2 0xB1F JUMP JUMPDEST SWAP3 SWAP2 POP POP JUMP JUMPDEST PUSH1 0x0 PUSH2 0x120 DUP3 DUP5 SUB SLT ISZERO PUSH2 0xB62 JUMPI PUSH2 0xB61 PUSH2 0x967 JUMP JUMPDEST JUMPDEST PUSH2 0xB6D PUSH2 0x120 PUSH2 0x9DD JUMP JUMPDEST SWAP1 POP PUSH1 0x0 DUP3 ADD CALLDATALOAD PUSH8 0xFFFFFFFFFFFFFFFF DUP2 GT ISZERO PUSH2 0xB8D JUMPI PUSH2 0xB8C PUSH2 0x9F8 JUMP JUMPDEST JUMPDEST PUSH2 0xB99 DUP5 DUP3 DUP6 ADD PUSH2 0xA89 JUMP JUMPDEST PUSH1 0x0 DUP4 ADD MSTORE POP PUSH1 0x20 DUP3 ADD CALLDATALOAD PUSH8 0xFFFFFFFFFFFFFFFF DUP2 GT ISZERO PUSH2 0xBBD JUMPI PUSH2 0xBBC PUSH2 0x9F8 JUMP JUMPDEST JUMPDEST PUSH2 0xBC9 DUP5 DUP3 DUP6 ADD PUSH2 0xA89 JUMP JUMPDEST PUSH1 0x20 DUP4 ADD MSTORE POP PUSH1 0x40 PUSH2 0xBDD DUP5 DUP3 DUP6 ADD PUSH2 0xAD8 JUMP JUMPDEST PUSH1 0x40 DUP4 ADD MSTORE POP PUSH1 0x60 DUP3 ADD CALLDATALOAD PUSH8 0xFFFFFFFFFFFFFFFF DUP2 GT ISZERO PUSH2 0xC01 JUMPI PUSH2 0xC00 PUSH2 0x9F8 JUMP JUMPDEST JUMPDEST PUSH2 0xC0D DUP5 DUP3 DUP6 ADD PUSH2 0xA89 JUMP JUMPDEST PUSH1 0x60 DUP4 ADD MSTORE POP PUSH1 0x80 PUSH2 0xC21 DUP5 DUP3 DUP6 ADD PUSH2 0xB36 JUMP JUMPDEST PUSH1 0x80 DUP4 ADD MSTORE POP PUSH1 0xA0 DUP3 ADD CALLDATALOAD PUSH8 0xFFFFFFFFFFFFFFFF DUP2 GT ISZERO PUSH2 0xC45 JUMPI PUSH2 0xC44 PUSH2 0x9F8 JUMP JUMPDEST JUMPDEST PUSH2 0xC51 DUP5 DUP3 DUP6 ADD PUSH2 0xA89 JUMP JUMPDEST PUSH1 0xA0 DUP4 ADD MSTORE POP PUSH1 0xC0 DUP3 ADD CALLDATALOAD PUSH8 0xFFFFFFFFFFFFFFFF DUP2 GT ISZERO PUSH2 0xC75 JUMPI PUSH2 0xC74 PUSH2 0x9F8 JUMP JUMPDEST JUMPDEST PUSH2 0xC81 DUP5 DUP3 DUP6 ADD PUSH2 0xA89 JUMP JUMPDEST PUSH1 0xC0 DUP4 ADD MSTORE POP PUSH1 0xE0 DUP3 ADD CALLDATALOAD PUSH8 0xFFFFFFFFFFFFFFFF DUP2 GT ISZERO PUSH2 0xCA5 JUMPI PUSH2 0xCA4 PUSH2 0x9F8 JUMP JUMPDEST JUMPDEST PUSH2 0xCB1 DUP5 DUP3 DUP6 ADD PUSH2 0xA89 JUMP JUMPDEST PUSH1 0xE0 DUP4 ADD MSTORE POP PUSH2 0x100 DUP3 ADD CALLDATALOAD PUSH8 0xFFFFFFFFFFFFFFFF DUP2 GT ISZERO PUSH2 0xCD6 JUMPI PUSH2 0xCD5 PUSH2 0x9F8 JUMP JUMPDEST JUMPDEST PUSH2 0xCE2 DUP5 DUP3 DUP6 ADD PUSH2 0xA89 JUMP JUMPDEST PUSH2 0x100 DUP4 ADD MSTORE POP SWAP3 SWAP2 POP POP JUMP JUMPDEST PUSH1 0x0 PUSH1 0x20 DUP3 DUP5 SUB SLT ISZERO PUSH2 0xD05 JUMPI PUSH2 0xD04 PUSH2 0x95D JUMP JUMPDEST JUMPDEST PUSH1 0x0 DUP3 ADD CALLDATALOAD PUSH8 0xFFFFFFFFFFFFFFFF DUP2 GT ISZERO PUSH2 0xD23 JUMPI PUSH2 0xD22 PUSH2 0x962 JUMP JUMPDEST JUMPDEST PUSH2 0xD2F DUP5 DUP3 DUP6 ADD PUSH2 0xB4B JUMP JUMPDEST SWAP2 POP POP SWAP3 SWAP2 POP POP JUMP JUMPDEST PUSH1 0x0 DUP2 ISZERO ISZERO SWAP1 POP SWAP2 SWAP1 POP JUMP JUMPDEST PUSH2 0xD4D DUP2 PUSH2 0xD38 JUMP JUMPDEST DUP3 MSTORE POP POP JUMP JUMPDEST PUSH1 0x0 PUSH1 0x20 DUP3 ADD SWAP1 POP PUSH2 0xD68 PUSH1 0x0 DUP4 ADD DUP5 PUSH2 0xD44 JUMP JUMPDEST SWAP3 SWAP2 POP POP JUMP JUMPDEST PUSH1 0x0 DUP1 PUSH1 0x0 DUP1 PUSH1 0x80 DUP6 DUP8 SUB SLT ISZERO PUSH2 0xD88 JUMPI PUSH2 0xD87 PUSH2 0x95D JUMP JUMPDEST JUMPDEST PUSH1 0x0 PUSH2 0xD96 DUP8 DUP3 DUP9 ADD PUSH2 0xB36 JUMP JUMPDEST SWAP5 POP POP PUSH1 0x20 PUSH2 0xDA7 DUP8 DUP3 DUP9 ADD PUSH2 0xB36 JUMP JUMPDEST SWAP4 POP POP PUSH1 0x40 DUP6 ADD CALLDATALOAD PUSH8 0xFFFFFFFFFFFFFFFF DUP2 GT ISZERO PUSH2 0xDC8 JUMPI PUSH2 0xDC7 PUSH2 0x962 JUMP JUMPDEST JUMPDEST PUSH2 0xDD4 DUP8 DUP3 DUP9 ADD PUSH2 0xA89 JUMP JUMPDEST SWAP3 POP POP PUSH1 0x60 DUP6 ADD CALLDATALOAD PUSH8 0xFFFFFFFFFFFFFFFF DUP2 GT ISZERO PUSH2 0xDF5 JUMPI PUSH2 0xDF4 PUSH2 0x962 JUMP JUMPDEST JUMPDEST PUSH2 0xE01 DUP8 DUP3 DUP9 ADD PUSH2 0xA89 JUMP JUMPDEST SWAP2 POP POP SWAP3 SWAP6 SWAP2 SWAP5 POP SWAP3 POP JUMP JUMPDEST PUSH1 0x0 PUSH8 0xFFFFFFFFFFFFFFFF DUP3 GT ISZERO PUSH2 0xE28 JUMPI PUSH2 0xE27 PUSH2 0x97D JUMP JUMPDEST JUMPDEST PUSH1 0x20 DUP3 MUL SWAP1 POP PUSH1 0x20 DUP2 ADD SWAP1 POP SWAP2 SWAP1 POP JUMP JUMPDEST PUSH1 0x0 DUP1 REVERT JUMPDEST PUSH1 0x0 PUSH2 0xE51 PUSH2 0xE4C DUP5 PUSH2 0xE0D JUMP JUMPDEST PUSH2 0x9DD JUMP JUMPDEST SWAP1 POP DUP1 DUP4 DUP3 MSTORE PUSH1 0x20 DUP3 ADD SWAP1 POP PUSH1 0x20 DUP5 MUL DUP4 ADD DUP6 DUP2 GT ISZERO PUSH2 0xE74 JUMPI PUSH2 0xE73 PUSH2 0xE39 JUMP JUMPDEST JUMPDEST DUP4 JUMPDEST DUP2 DUP2 LT ISZERO PUSH2 0xEBB JUMPI DUP1 CALLDATALOAD PUSH8 0xFFFFFFFFFFFFFFFF DUP2 GT ISZERO PUSH2 0xE99 JUMPI PUSH2 0xE98 PUSH2 0x9FD JUMP JUMPDEST JUMPDEST DUP1 DUP7 ADD PUSH2 0xEA6 DUP10 DUP3 PUSH2 0xA89 JUMP JUMPDEST DUP6 MSTORE PUSH1 0x20 DUP6 ADD SWAP5 POP POP POP PUSH1 0x20 DUP2 ADD SWAP1 POP PUSH2 0xE76 JUMP JUMPDEST POP POP POP SWAP4 SWAP3 POP POP POP JUMP JUMPDEST PUSH1 0x0 DUP3 PUSH1 0x1F DUP4 ADD SLT PUSH2 0xEDA JUMPI PUSH2 0xED9 PUSH2 0x9FD JUMP JUMPDEST JUMPDEST DUP2 CALLDATALOAD PUSH2 0xEEA DUP5 DUP3 PUSH1 0x20 DUP7 ADD PUSH2 0xE3E JUMP JUMPDEST SWAP2 POP POP SWAP3 SWAP2 POP POP JUMP JUMPDEST PUSH1 0x0 PUSH1 0x20 DUP3 DUP5 SUB SLT ISZERO PUSH2 0xF09 JUMPI PUSH2 0xF08 PUSH2 0x95D JUMP JUMPDEST JUMPDEST PUSH1 0x0 DUP3 ADD CALLDATALOAD PUSH8 0xFFFFFFFFFFFFFFFF DUP2 GT ISZERO PUSH2 0xF27 JUMPI PUSH2 0xF26 PUSH2 0x962 JUMP JUMPDEST JUMPDEST PUSH2 0xF33 DUP5 DUP3 DUP6 ADD PUSH2 0xEC5 JUMP JUMPDEST SWAP2 POP POP SWAP3 SWAP2 POP POP JUMP JUMPDEST PUSH2 0xF45 DUP2 PUSH2 0xD38 JUMP JUMPDEST DUP3 MSTORE POP POP JUMP JUMPDEST PUSH1 0x0 DUP2 MLOAD SWAP1 POP SWAP2 SWAP1 POP JUMP JUMPDEST PUSH1 0x0 DUP3 DUP3 MSTORE PUSH1 0x20 DUP3 ADD SWAP1 POP SWAP3 SWAP2 POP POP JUMP JUMPDEST PUSH1 0x0 JUMPDEST DUP4 DUP2 LT ISZERO PUSH2 0xF85 JUMPI DUP1 DUP3 ADD MLOAD DUP2 DUP5 ADD MSTORE PUSH1 0x20 DUP2 ADD SWAP1 POP PUSH2 0xF6A JUMP JUMPDEST PUSH1 0x0 DUP5 DUP5 ADD MSTORE POP POP POP POP JUMP JUMPDEST PUSH1 0x0 PUSH2 0xF9C DUP3 PUSH2 0xF4B JUMP JUMPDEST PUSH2 0xFA6 DUP2 DUP6 PUSH2 0xF56 JUMP JUMPDEST SWAP4 POP PUSH2 0xFB6 DUP2 DUP6 PUSH1 0x20 DUP7 ADD PUSH2 0xF67 JUMP JUMPDEST PUSH2 0xFBF DUP2 PUSH2 0x96C JUMP JUMPDEST DUP5 ADD SWAP2 POP POP SWAP3 SWAP2 POP POP JUMP JUMPDEST PUSH1 0x0 PUSH1 0x60 DUP4 ADD PUSH1 0x0 DUP4 ADD MLOAD PUSH2 0xFE2 PUSH1 0x0 DUP7 ADD DUP3 PUSH2 0xF3C JUMP JUMPDEST POP PUSH1 0x20 DUP4 ADD MLOAD DUP5 DUP3 SUB PUSH1 0x20 DUP7 ADD MSTORE PUSH2 0xFFA DUP3 DUP3 PUSH2 0xF91 JUMP JUMPDEST SWAP2 POP POP PUSH1 0x40 DUP4 ADD MLOAD DUP5 DUP3 SUB PUSH1 0x40 DUP7 ADD MSTORE PUSH2 0x1014 DUP3 DUP3 PUSH2 0xF91 JUMP JUMPDEST SWAP2 POP POP DUP1 SWAP2 POP POP SWAP3 SWAP2 POP POP JUMP JUMPDEST PUSH1 0x0 PUSH1 0x20 DUP3 ADD SWAP1 POP DUP2 DUP2 SUB PUSH1 0x0 DUP4 ADD MSTORE PUSH2 0x103B DUP2 DUP5 PUSH2 0xFCA JUMP JUMPDEST SWAP1 POP SWAP3 SWAP2 POP POP JUMP JUMPDEST PUSH1 0x0 DUP1 PUSH1 0x0 DUP1 PUSH1 0x80 DUP6 DUP8 SUB SLT ISZERO PUSH2 0x105D JUMPI PUSH2 0x105C PUSH2 0x95D JUMP JUMPDEST JUMPDEST PUSH1 0x0 PUSH2 0x106B DUP8 DUP3 DUP9 ADD PUSH2 0xB36 JUMP JUMPDEST SWAP5 POP POP PUSH1 0x20 DUP6 ADD CALLDATALOAD PUSH8 0xFFFFFFFFFFFFFFFF DUP2 GT ISZERO PUSH2 0x108C JUMPI PUSH2 0x108B PUSH2 0x962 JUMP JUMPDEST JUMPDEST PUSH2 0x1098 DUP8 DUP3 DUP9 ADD PUSH2 0xA89 JUMP JUMPDEST SWAP4 POP POP PUSH1 0x40 DUP6 ADD CALLDATALOAD PUSH8 0xFFFFFFFFFFFFFFFF DUP2 GT ISZERO PUSH2 0x10B9 JUMPI PUSH2 0x10B8 PUSH2 0x962 JUMP JUMPDEST JUMPDEST PUSH2 0x10C5 DUP8 DUP3 DUP9 ADD PUSH2 0xEC5 JUMP JUMPDEST SWAP3 POP POP PUSH1 0x60 DUP6 ADD CALLDATALOAD PUSH8 0xFFFFFFFFFFFFFFFF DUP2 GT ISZERO PUSH2 0x10E6 JUMPI PUSH2 0x10E5 PUSH2 0x962 JUMP JUMPDEST JUMPDEST PUSH2 0x10F2 DUP8 DUP3 DUP9 ADD PUSH2 0xA89 JUMP JUMPDEST SWAP2 POP POP SWAP3 SWAP6 SWAP2 SWAP5 POP SWAP3 POP JUMP JUMPDEST PUSH1 0x0 PUSH1 0x20 DUP3 DUP5 SUB SLT ISZERO PUSH2 0x1114 JUMPI PUSH2 0x1113 PUSH2 0x95D JUMP JUMPDEST JUMPDEST PUSH1 0x0 DUP3 ADD CALLDATALOAD PUSH8 0xFFFFFFFFFFFFFFFF DUP2 GT ISZERO PUSH2 0x1132 JUMPI PUSH2 0x1131 PUSH2 0x962 JUMP JUMPDEST JUMPDEST PUSH2 0x113E DUP5 DUP3 DUP6 ADD PUSH2 0xA89 JUMP JUMPDEST SWAP2 POP POP SWAP3 SWAP2 POP POP JUMP JUMPDEST PUSH1 0x0 DUP3 DUP3 MSTORE PUSH1 0x20 DUP3 ADD SWAP1 POP SWAP3 SWAP2 POP POP JUMP JUMPDEST PUSH1 0x0 PUSH2 0x1163 DUP3 PUSH2 0xF4B JUMP JUMPDEST PUSH2 0x116D DUP2 DUP6 PUSH2 0x1147 JUMP JUMPDEST SWAP4 POP PUSH2 0x117D DUP2 DUP6 PUSH1 0x20 DUP7 ADD PUSH2 0xF67 JUMP JUMPDEST PUSH2 0x1186 DUP2 PUSH2 0x96C JUMP JUMPDEST DUP5 ADD SWAP2 POP POP SWAP3 SWAP2 POP POP JUMP JUMPDEST PUSH1 0x0 PUSH1 0x20 DUP3 ADD SWAP1 POP DUP2 DUP2 SUB PUSH1 0x0 DUP4 ADD MSTORE PUSH2 0x11AB DUP2 DUP5 PUSH2 0x1158 JUMP JUMPDEST SWAP1 POP SWAP3 SWAP2 POP POP JUMP JUMPDEST PUSH1 0x0 PUSH1 0x80 DUP3 DUP5 SUB SLT ISZERO PUSH2 0x11C9 JUMPI PUSH2 0x11C8 PUSH2 0x967 JUMP JUMPDEST JUMPDEST PUSH2 0x11D3 PUSH1 0x80 PUSH2 0x9DD JUMP JUMPDEST SWAP1 POP PUSH1 0x0 PUSH2 0x11E3 DUP5 DUP3 DUP6 ADD PUSH2 0xB36 JUMP JUMPDEST PUSH1 0x0 DUP4 ADD MSTORE POP PUSH1 0x20 DUP3 ADD CALLDATALOAD PUSH8 0xFFFFFFFFFFFFFFFF DUP2 GT ISZERO PUSH2 0x1207 JUMPI PUSH2 0x1206 PUSH2 0x9F8 JUMP JUMPDEST JUMPDEST PUSH2 0x1213 DUP5 DUP3 DUP6 ADD PUSH2 0xA89 JUMP JUMPDEST PUSH1 0x20 DUP4 ADD MSTORE POP PUSH1 0x40 DUP3 ADD CALLDATALOAD PUSH8 0xFFFFFFFFFFFFFFFF DUP2 GT ISZERO PUSH2 0x1237 JUMPI PUSH2 0x1236 PUSH2 0x9F8 JUMP JUMPDEST JUMPDEST PUSH2 0x1243 DUP5 DUP3 DUP6 ADD PUSH2 0xA89 JUMP JUMPDEST PUSH1 0x40 DUP4 ADD MSTORE POP PUSH1 0x60 DUP3 ADD CALLDATALOAD PUSH8 0xFFFFFFFFFFFFFFFF DUP2 GT ISZERO PUSH2 0x1267 JUMPI PUSH2 0x1266 PUSH2 0x9F8 JUMP JUMPDEST JUMPDEST PUSH2 0x1273 DUP5 DUP3 DUP6 ADD PUSH2 0xA89 JUMP JUMPDEST PUSH1 0x60 DUP4 ADD MSTORE POP SWAP3 SWAP2 POP POP JUMP JUMPDEST PUSH1 0x0 PUSH1 0x20 DUP3 DUP5 SUB SLT ISZERO PUSH2 0x1295 JUMPI PUSH2 0x1294 PUSH2 0x95D JUMP JUMPDEST JUMPDEST PUSH1 0x0 DUP3 ADD CALLDATALOAD PUSH8 0xFFFFFFFFFFFFFFFF DUP2 GT ISZERO PUSH2 0x12B3 JUMPI PUSH2 0x12B2 PUSH2 0x962 JUMP JUMPDEST JUMPDEST PUSH2 0x12BF DUP5 DUP3 DUP6 ADD PUSH2 0x11B3 JUMP JUMPDEST SWAP2 POP POP SWAP3 SWAP2 POP POP JUMP JUMPDEST PUSH1 0x0 DUP2 SWAP1 POP SWAP3 SWAP2 POP POP JUMP JUMPDEST PUSH1 0x0 PUSH2 0x12DE DUP3 PUSH2 0xF4B JUMP JUMPDEST PUSH2 0x12E8 DUP2 DUP6 PUSH2 0x12C8 JUMP JUMPDEST SWAP4 POP PUSH2 0x12F8 DUP2 DUP6 PUSH1 0x20 DUP7 ADD PUSH2 0xF67 JUMP JUMPDEST DUP1 DUP5 ADD SWAP2 POP POP SWAP3 SWAP2 POP POP JUMP JUMPDEST PUSH1 0x0 PUSH2 0x1310 DUP3 DUP5 PUSH2 0x12D3 JUMP JUMPDEST SWAP2 POP DUP2 SWAP1 POP SWAP3 SWAP2 POP POP JUMP JUMPDEST PUSH32 0x4E487B7100000000000000000000000000000000000000000000000000000000 PUSH1 0x0 MSTORE PUSH1 0x32 PUSH1 0x4 MSTORE PUSH1 0x24 PUSH1 0x0 REVERT JUMPDEST PUSH1 0x0 PUSH2 0x1356 DUP3 DUP6 PUSH2 0x12D3 JUMP JUMPDEST SWAP2 POP PUSH2 0x1362 DUP3 DUP5 PUSH2 0x12D3 JUMP JUMPDEST SWAP2 POP DUP2 SWAP1 POP SWAP4 SWAP3 POP POP POP JUMP JUMPDEST PUSH1 0x0 DUP2 SWAP1 POP SWAP2 SWAP1 POP JUMP JUMPDEST PUSH32 0x4E487B7100000000000000000000000000000000000000000000000000000000 PUSH1 0x0 MSTORE PUSH1 0x11 PUSH1 0x4 MSTORE PUSH1 0x24 PUSH1 0x0 REVERT JUMPDEST PUSH1 0x0 PUSH2 0x13B2 DUP3 PUSH2 0x136E JUMP JUMPDEST SWAP2 POP PUSH2 0x13BD DUP4 PUSH2 0x136E JUMP JUMPDEST SWAP3 POP DUP3 DUP3 SUB SWAP1 POP DUP2 DUP2 GT ISZERO PUSH2 0x13D5 JUMPI PUSH2 0x13D4 PUSH2 0x1378 JUMP JUMPDEST JUMPDEST SWAP3 SWAP2 POP POP JUMP JUMPDEST PUSH32 0x2C20000000000000000000000000000000000000000000000000000000000000 PUSH1 0x0 DUP3 ADD MSTORE POP JUMP JUMPDEST PUSH1 0x0 PUSH2 0x1411 PUSH1 0x2 DUP4 PUSH2 0x12C8 JUMP JUMPDEST SWAP2 POP PUSH2 0x141C DUP3 PUSH2 0x13DB JUMP JUMPDEST PUSH1 0x2 DUP3 ADD SWAP1 POP SWAP2 SWAP1 POP JUMP JUMPDEST PUSH1 0x0 PUSH2 0x1433 DUP3 DUP5 PUSH2 0x12D3 JUMP JUMPDEST SWAP2 POP PUSH2 0x143E DUP3 PUSH2 0x1404 JUMP JUMPDEST SWAP2 POP DUP2 SWAP1 POP SWAP3 SWAP2 POP POP JUMP JUMPDEST PUSH1 0x0 PUSH2 0x1454 DUP3 PUSH2 0x136E JUMP JUMPDEST SWAP2 POP PUSH32 0xFFFFFFFFFFFFFFFFFFFFFFFFFFFFFFFFFFFFFFFFFFFFFFFFFFFFFFFFFFFFFFFF DUP3 SUB PUSH2 0x1486 JUMPI PUSH2 0x1485 PUSH2 0x1378 JUMP JUMPDEST JUMPDEST PUSH1 0x1 DUP3 ADD SWAP1 POP SWAP2 SWAP1 POP JUMP JUMPDEST PUSH1 0x0 PUSH1 0xFF DUP3 AND SWAP1 POP SWAP2 SWAP1 POP JUMP JUMPDEST PUSH1 0x0 PUSH2 0x14A9 DUP3 PUSH2 0x1491 JUMP JUMPDEST SWAP2 POP PUSH2 0x14B4 DUP4 PUSH2 0x1491 JUMP JUMPDEST SWAP3 POP DUP3 DUP3 ADD SWAP1 POP PUSH1 0xFF DUP2 GT ISZERO PUSH2 0x14CD JUMPI PUSH2 0x14CC PUSH2 0x1378 JUMP JUMPDEST JUMPDEST SWAP3 SWAP2 POP POP JUMP JUMPDEST PUSH32 0x646F776E6C6F6164000000000000000000000000000000000000000000000000 PUSH1 0x0 DUP3 ADD MSTORE POP JUMP JUMPDEST PUSH1 0x0 PUSH2 0x1509 PUSH1 0x8 DUP4 PUSH2 0x12C8 JUMP JUMPDEST SWAP2 POP PUSH2 0x1514 DUP3 PUSH2 0x14D3 JUMP JUMPDEST PUSH1 0x8 DUP3 ADD SWAP1 POP SWAP2 SWAP1 POP JUMP JUMPDEST PUSH1 0x0 PUSH2 0x152A DUP3 PUSH2 0x14FC JUMP JUMPDEST SWAP2 POP DUP2 SWAP1 POP SWAP2 SWAP1 POP JUMP JUMPDEST PUSH32 0x6564697400000000000000000000000000000000000000000000000000000000 PUSH1 0x0 DUP3 ADD MSTORE POP JUMP JUMPDEST PUSH1 0x0 PUSH2 0x156A PUSH1 0x4 DUP4 PUSH2 0x12C8 JUMP JUMPDEST SWAP2 POP PUSH2 0x1575 DUP3 PUSH2 0x1534 JUMP JUMPDEST PUSH1 0x4 DUP3 ADD SWAP1 POP SWAP2 SWAP1 POP JUMP JUMPDEST PUSH1 0x0 PUSH2 0x158B DUP3 PUSH2 0x155D JUMP JUMPDEST SWAP2 POP DUP2 SWAP1 POP SWAP2 SWAP1 POP JUMP JUMPDEST PUSH32 0x64656C6574650000000000000000000000000000000000000000000000000000 PUSH1 0x0 DUP3 ADD MSTORE POP JUMP JUMPDEST PUSH1 0x0 PUSH2 0x15CB PUSH1 0x6 DUP4 PUSH2 0x12C8 JUMP JUMPDEST SWAP2 POP PUSH2 0x15D6 DUP3 PUSH2 0x1595 JUMP JUMPDEST PUSH1 0x6 DUP3 ADD SWAP1 POP SWAP2 SWAP1 POP JUMP JUMPDEST PUSH1 0x0 PUSH2 0x15EC DUP3 PUSH2 0x15BE JUMP JUMPDEST SWAP2 POP DUP2 SWAP1 POP SWAP2 SWAP1 POP JUMP JUMPDEST PUSH32 0x7368617265000000000000000000000000000000000000000000000000000000 PUSH1 0x0 DUP3 ADD MSTORE POP JUMP JUMPDEST PUSH1 0x0 PUSH2 0x162C PUSH1 0x5 DUP4 PUSH2 0x12C8 JUMP JUMPDEST SWAP2 POP PUSH2 0x1637 DUP3 PUSH2 0x15F6 JUMP JUMPDEST PUSH1 0x5 DUP3 ADD SWAP1 POP SWAP2 SWAP1 POP JUMP JUMPDEST PUSH1 0x0 PUSH2 0x164D DUP3 PUSH2 0x161F JUMP JUMPDEST SWAP2 POP DUP2 SWAP1 POP SWAP2 SWAP1 POP JUMP JUMPDEST PUSH32 0x7665726966790000000000000000000000000000000000000000000000000000 PUSH1 0x0 DUP3 ADD MSTORE POP JUMP JUMPDEST PUSH1 0x0 PUSH2 0x168D PUSH1 0x6 DUP4 PUSH2 0x12C8 JUMP JUMPDEST SWAP2 POP PUSH2 0x1698 DUP3 PUSH2 0x1657 JUMP JUMPDEST PUSH1 0x6 DUP3 ADD SWAP1 POP SWAP2 SWAP1 POP JUMP JUMPDEST PUSH1 0x0 PUSH2 0x16AE DUP3 PUSH2 0x1680 JUMP JUMPDEST SWAP2 POP DUP2 SWAP1 POP SWAP2 SWAP1 POP JUMP JUMPDEST PUSH32 0x696E666F00000000000000000000000000000000000000000000000000000000 PUSH1 0x0 DUP3 ADD MSTORE POP JUMP JUMPDEST PUSH1 0x0 PUSH2 0x16EE PUSH1 0x4 DUP4 PUSH2 0x12C8 JUMP JUMPDEST SWAP2 POP PUSH2 0x16F9 DUP3 PUSH2 0x16B8 JUMP JUMPDEST PUSH1 0x4 DUP3 ADD SWAP1 POP SWAP2 SWAP1 POP JUMP JUMPDEST PUSH1 0x0 PUSH2 0x170F DUP3 PUSH2 0x16E1 JUMP JUMPDEST SWAP2 POP DUP2 SWAP1 POP SWAP2 SWAP1 POP JUMP INVALID LOG2 PUSH5 0x6970667358 0x22 SLT KECCAK256 EXTCODEHASH RETURNDATACOPY CALLVALUE 0xF MUL MSIZE 0xC PUSH12 0x141A0E01F84527CF76253E9C 0xC3 0xE8 TIMESTAMP 0xEA GASPRICE PUSH7 0xDEF9EA2F3CF964 PUSH20 0x6F6C634300081300330000000000000000000000 "},"methodIdentifiers":{"fileParamValid((string,string,int256,string,address,string,string,string,string))":"4294a5ad","isKeyEqual(address,address,string,string)":"5c99c71b","stringArrayToString(string[])":"6bb8d768","toLower(string)":"9416b423","validPermissions(string[])":"bda49b1d","validUserFields((address,string,string,string))":"e779f450","verifyValidFields(address,string,string[],string)":"872e35a9"}}}}}