{"contracts/AccessControl.sol":{"AccessControl":{"abi":[{"inputs":[{"internalType":"address","name":"helperContract","type":"address"}],"stateMutability":"nonpayable","type":"constructor"},{"anonymous":false,"inputs":[{"indexed":true,"internalType":"address","name":"userAccount","type":"address"},{"indexed":false,"internalType":"string","name":"fileIpfsCID","type":"string"},{"indexed":false,"internalType":"string","name":"permissionsOwner","type":"string"},{"indexed":false,"internalType":"string","name":"action","type":"string"}],"name":"FileActionLog","type":"event"},{"inputs":[{"internalType":"address","name":"userAccount","type":"address"},{"internalType":"string","name":"fileIpfsCid","type":"string"}],"name":"deactivateFile","outputs":[],"stateMutability":"nonpayable","type":"function"},{"inputs":[{"internalType":"string","name":"fileIpfsCid","type":"string"},{"internalType":"address","name":"userAccount","type":"address"}],"name":"downloadFileAudit","outputs":[],"stateMutability":"nonpayable","type":"function"},{"inputs":[{"components":[{"internalType":"string","name":"ipfsCID","type":"string"},{"internalType":"string","name":"fileName","type":"string"},{"internalType":"int256","name":"version","type":"int256"},{"internalType":"string","name":"prevIpfsCID","type":"string"},{"internalType":"address","name":"owner","type":"address"},{"internalType":"string","name":"fileType","type":"string"},{"internalType":"string","name":"iv","type":"string"},{"internalType":"string","name":"state","type":"string"},{"internalType":"string","name":"fileHash","type":"string"}],"internalType":"struct FileRegister.File","name":"selectedFile","type":"tuple"},{"components":[{"internalType":"string","name":"ipfsCID","type":"string"},{"internalType":"string","name":"fileName","type":"string"},{"internalType":"int256","name":"version","type":"int256"},{"internalType":"string","name":"prevIpfsCID","type":"string"},{"internalType":"address","name":"owner","type":"address"},{"internalType":"string","name":"fileType","type":"string"},{"internalType":"string","name":"iv","type":"string"},{"internalType":"string","name":"state","type":"string"},{"internalType":"string","name":"fileHash","type":"string"}],"internalType":"struct FileRegister.File","name":"newFile","type":"tuple"},{"internalType":"address[]","name":"usersWithDownlodPermSelectFile","type":"address[]"},{"internalType":"string[]","name":"pubKeyUsersWithDownloadPermSelectFile","type":"string[]"}],"name":"editFile","outputs":[],"stateMutability":"nonpayable","type":"function"},{"inputs":[{"internalType":"address","name":"userAccount","type":"address"},{"internalType":"string","name":"fileIpfsCID","type":"string"}],"name":"elegibleToShare","outputs":[{"internalType":"bool","name":"","type":"bool"}],"stateMutability":"view","type":"function"},{"inputs":[{"internalType":"address","name":"userAccount","type":"address"},{"internalType":"string","name":"fileIpfsCID","type":"string"}],"name":"elegibleToUpdPermissions","outputs":[{"internalType":"bool","name":"","type":"bool"}],"stateMutability":"view","type":"function"},{"inputs":[{"internalType":"address","name":"accountUser","type":"address"},{"internalType":"string","name":"fileIpfsCID","type":"string"}],"name":"getAllEncSymmetricKeyFileUser","outputs":[{"components":[{"internalType":"bool","name":"success","type":"bool"},{"internalType":"string[]","name":"resultStrings","type":"string[]"},{"internalType":"string","name":"message","type":"string"}],"internalType":"struct Helper.ResultStringArray","name":"","type":"tuple"}],"stateMutability":"view","type":"function"},{"inputs":[],"name":"getAuditLogControlAddress","outputs":[{"internalType":"address","name":"","type":"address"}],"stateMutability":"view","type":"function"},{"inputs":[{"internalType":"address","name":"accountUser","type":"address"},{"internalType":"string","name":"fileIpfsCID","type":"string"}],"name":"getEncSymmetricKeyFileUser","outputs":[{"components":[{"internalType":"bool","name":"success","type":"bool"},{"internalType":"string","name":"resultString","type":"string"},{"internalType":"string","name":"message","type":"string"}],"internalType":"struct Helper.ResultString","name":"","type":"tuple"}],"stateMutability":"view","type":"function"},{"inputs":[],"name":"getFileRegisterAddress","outputs":[{"internalType":"address","name":"","type":"address"}],"stateMutability":"view","type":"function"},{"inputs":[{"internalType":"address","name":"userAccount","type":"address"},{"internalType":"string","name":"fileIpfsCID","type":"string"}],"name":"getPermissionsOverFile","outputs":[{"components":[{"internalType":"bool","name":"success","type":"bool"},{"internalType":"string[]","name":"resultStrings","type":"string[]"},{"internalType":"string","name":"message","type":"string"}],"internalType":"struct Helper.ResultStringArray","name":"","type":"tuple"}],"stateMutability":"view","type":"function"},{"inputs":[{"internalType":"address","name":"account","type":"address"},{"internalType":"string","name":"state","type":"string"}],"name":"getUserFiles","outputs":[{"components":[{"internalType":"bool","name":"success","type":"bool"},{"components":[{"internalType":"string","name":"ipfsCID","type":"string"},{"internalType":"string","name":"fileName","type":"string"},{"internalType":"int256","name":"version","type":"int256"},{"internalType":"string","name":"prevIpfsCID","type":"string"},{"internalType":"address","name":"owner","type":"address"},{"internalType":"string","name":"fileType","type":"string"},{"internalType":"string","name":"iv","type":"string"},{"internalType":"string","name":"state","type":"string"},{"internalType":"string","name":"fileHash","type":"string"}],"internalType":"struct FileRegister.File[]","name":"files","type":"tuple[]"},{"internalType":"string","name":"message","type":"string"}],"internalType":"struct FileRegister.ResultFiles","name":"","type":"tuple"}],"stateMutability":"view","type":"function"},{"inputs":[],"name":"getUserRegisterAddress","outputs":[{"internalType":"address","name":"","type":"address"}],"stateMutability":"view","type":"function"},{"inputs":[{"internalType":"string","name":"fileIpfsCID","type":"string"}],"name":"getUsersAssociatedWithFile","outputs":[{"components":[{"internalType":"bool","name":"success","type":"bool"},{"internalType":"address[]","name":"resultAddresses","type":"address[]"},{"internalType":"string","name":"message","type":"string"}],"internalType":"struct Helper.ResultAddressArray","name":"","type":"tuple"}],"stateMutability":"view","type":"function"},{"inputs":[{"internalType":"address","name":"userAccount","type":"address"},{"internalType":"string","name":"fileHash","type":"string"}],"name":"recordFileVerification","outputs":[],"stateMutability":"nonpayable","type":"function"},{"inputs":[{"internalType":"address","name":"userAccount","type":"address"},{"internalType":"string","name":"fileIpfsCID","type":"string"}],"name":"removeUserFileAssociation","outputs":[],"stateMutability":"nonpayable","type":"function"},{"inputs":[{"internalType":"address","name":"userAccount","type":"address"},{"internalType":"string","name":"fileIpfsCID","type":"string"},{"internalType":"string[]","name":"encSymmetricKeys","type":"string[]"},{"internalType":"string[]","name":"permissions","type":"string[]"}],"name":"shareFile","outputs":[],"stateMutability":"nonpayable","type":"function"},{"inputs":[{"internalType":"address","name":"userAccount","type":"address"},{"internalType":"string","name":"fileIpfsCID","type":"string"},{"internalType":"string[]","name":"permissions","type":"string[]"}],"name":"updateUserFilePermissions","outputs":[],"stateMutability":"nonpayable","type":"function"},{"inputs":[{"internalType":"address","name":"userAccount","type":"address"},{"components":[{"internalType":"string","name":"ipfsCID","type":"string"},{"internalType":"string","name":"fileName","type":"string"},{"internalType":"int256","name":"version","type":"int256"},{"internalType":"string","name":"prevIpfsCID","type":"string"},{"internalType":"address","name":"owner","type":"address"},{"internalType":"string","name":"fileType","type":"string"},{"internalType":"string","name":"iv","type":"string"},{"internalType":"string","name":"state","type":"string"},{"internalType":"string","name":"fileHash","type":"string"}],"internalType":"struct FileRegister.File","name":"file","type":"tuple"},{"internalType":"string","name":"encSymmetricKey","type":"string"}],"name":"uploadFile","outputs":[],"stateMutability":"nonpayable","type":"function"},{"inputs":[{"internalType":"address","name":"userAccount","type":"address"},{"internalType":"string","name":"fileIpfsCID","type":"string"}],"name":"userAssociatedWithFile","outputs":[{"internalType":"bool","name":"","type":"bool"}],"stateMutability":"view","type":"function"},{"inputs":[{"internalType":"address","name":"userAccount","type":"address"},{"internalType":"string","name":"fileName","type":"string"}],"name":"userAssociatedWithFileName","outputs":[{"internalType":"bool","name":"","type":"bool"}],"stateMutability":"view","type":"function"},{"inputs":[{"internalType":"address","name":"userAccount","type":"address"},{"internalType":"string","name":"fileHash","type":"string"}],"name":"verifyValidFile","outputs":[{"internalType":"bool","name":"","type":"bool"}],"stateMutability":"view","type":"function"}],"evm":{"bytecode":{"linkReferences":{},"object":"60806040523480156200001157600080fd5b506040516200f1a93803806200f1a983398181016040528101906200003791906200028c565b80600460006101000a81548173ffffffffffffffffffffffffffffffffffffffff021916908373ffffffffffffffffffffffffffffffffffffffff160217905550806040516200008790620001f8565b620000939190620002cf565b604051809103906000f080158015620000b0573d6000803e3d6000fd5b50600160006101000a81548173ffffffffffffffffffffffffffffffffffffffff021916908373ffffffffffffffffffffffffffffffffffffffff16021790555080604051620001009062000206565b6200010c9190620002cf565b604051809103906000f08015801562000129573d6000803e3d6000fd5b50600260006101000a81548173ffffffffffffffffffffffffffffffffffffffff021916908373ffffffffffffffffffffffffffffffffffffffff160217905550604051620001789062000214565b604051809103906000f08015801562000195573d6000803e3d6000fd5b50600360006101000a81548173ffffffffffffffffffffffffffffffffffffffff021916908373ffffffffffffffffffffffffffffffffffffffff1602179055506000600460146101000a81548160ff02191690831515021790555050620002ec565b6138a280620081d883390190565b612031806200ba7a83390190565b6116fe806200daab83390190565b600080fd5b600073ffffffffffffffffffffffffffffffffffffffff82169050919050565b6000620002548262000227565b9050919050565b620002668162000247565b81146200027257600080fd5b50565b60008151905062000286816200025b565b92915050565b600060208284031215620002a557620002a462000222565b5b6000620002b58482850162000275565b91505092915050565b620002c98162000247565b82525050565b6000602082019050620002e66000830184620002be565b92915050565b617edc80620002fc6000396000f3fe608060405234801561001057600080fd5b50600436106101375760003560e01c80638af34fbc116100b8578063c19dcf891161007c578063c19dcf8914610386578063c5f5a232146103b6578063c61e6663146103d2578063d2ab62b4146103ee578063db54cc8c1461041e578063fe17fccc1461043a57610137565b80638af34fbc146102d0578063a126d94c146102ec578063af00c05d1461031c578063b58ea3a214610338578063b714fb201461036857610137565b80634c23fe99116100ff5780634c23fe991461022c5780634e2fc7d21461025c5780635dab19e41461027857806367cc916b14610296578063874a22ed146102b257610137565b8063097637271461013c578063173cd5581461016c57806317b5be0f1461019c5780631ac47dd0146101cc5780632321f318146101fc575b600080fd5b6101566004803603810190610151919061559a565b610456565b60405161016391906158c0565b60405180910390f35b6101866004803603810190610181919061559a565b610966565b60405161019391906159fb565b60405180910390f35b6101b660048036038101906101b1919061559a565b610d5f565b6040516101c39190615a2c565b60405180910390f35b6101e660048036038101906101e1919061559a565b61105f565b6040516101f39190615a2c565b60405180910390f35b6102166004803603810190610211919061559a565b611211565b6040516102239190615a2c565b60405180910390f35b61024660048036038101906102419190615a47565b611443565b6040516102539190615b96565b60405180910390f35b61027660048036038101906102719190615f3b565b6118bd565b005b610280611dc1565b60405161028d9190616021565b60405180910390f35b6102b060048036038101906102ab919061603c565b611deb565b005b6102ba611ff5565b6040516102c79190616021565b60405180910390f35b6102ea60048036038101906102e59190616098565b61201f565b005b6103066004803603810190610301919061559a565b612384565b604051610313919061617a565b60405180910390f35b6103366004803603810190610331919061559a565b612826565b005b610352600480360381019061034d919061559a565b612bcc565b60405161035f9190615a2c565b60405180910390f35b610370612f59565b60405161037d9190616021565b60405180910390f35b6103a0600480360381019061039b919061559a565b612f83565b6040516103ad9190615a2c565b60405180910390f35b6103d060048036038101906103cb919061619c565b613197565b005b6103ec60048036038101906103e7919061559a565b61368a565b005b6104086004803603810190610403919061559a565b6138ea565b60405161041591906159fb565b60405180910390f35b6104386004803603810190610433919061559a565b613d56565b005b610454600480360381019061044f9190616257565b614153565b005b61045e61519c565b8273ffffffffffffffffffffffffffffffffffffffff163373ffffffffffffffffffffffffffffffffffffffff16036108d3576000808054905067ffffffffffffffff8111156104b1576104b061546f565b5b6040519080825280602002602001820160405280156104ea57816020015b6104d76151bf565b8152602001906001900390816104cf5790505b5090506000805b60008054905081101561088e578573ffffffffffffffffffffffffffffffffffffffff1660008281548110610529576105286162e2565b5b906000526020600020906004020160000160009054906101000a900473ffffffffffffffffffffffffffffffffffffffff1673ffffffffffffffffffffffffffffffffffffffff161480156106e45750600160009054906101000a900473ffffffffffffffffffffffffffffffffffffffff1673ffffffffffffffffffffffffffffffffffffffff1662438ceb600083815481106105ca576105c96162e2565b5b90600052602060002090600402016001016040518263ffffffff1660e01b81526004016105f7919061641b565b600060405180830381865afa158015610614573d6000803e3d6000fd5b505050506040513d6000823e3d601f19601f8201168201806040525081019061063d9190616575565b6020015160405160200161065191906165fa565b604051602081830303815290604052805190602001208560405160200161067891906165fa565b6040516020818303038152906040528051906020012014806106e357506040516020016106a490616637565b60405160208183030381529060405280519060200120856040516020016106cb91906165fa565b60405160208183030381529060405280519060200120145b5b1561087b5760008082815481106106fe576106fd6162e2565b5b9060005260206000209060040201600101805461071a90616340565b80601f016020809104026020016040519081016040528092919081815260200182805461074690616340565b80156107935780601f1061076857610100808354040283529160200191610793565b820191906000526020600020905b81548152906001019060200180831161077657829003601f168201915b505050505090506000600160009054906101000a900473ffffffffffffffffffffffffffffffffffffffff1673ffffffffffffffffffffffffffffffffffffffff166347eb6fa783896040518363ffffffff1660e01b81526004016107f9929190616685565b600060405180830381865afa158015610816573d6000803e3d6000fd5b505050506040513d6000823e3d601f19601f8201168201806040525081019061083f9190616926565b90506000816020015190508086868151811061085e5761085d6162e2565b5b60200260200101819052508480610874906169a8565b9550505050505b8080610886906169a8565b9150506104f1565b50808252600081146108d05760405180606001604052806001151581526020018381526020016040518060200160405280600081525081525092505050610960565b50505b6040518060600160405280600015158152602001600067ffffffffffffffff8111156109025761090161546f565b5b60405190808252806020026020018201604052801561093b57816020015b6109286151bf565b8152602001906001900390816109205790505b5081526020016040518060800160405280604e8152602001617df1604e913981525090505b92915050565b61096e615221565b61097782614690565b8015610a6f575060405160200161098d90616a3c565b60405160208183030381529060405280519060200120600160009054906101000a900473ffffffffffffffffffffffffffffffffffffffff1673ffffffffffffffffffffffffffffffffffffffff1662438ceb846040518263ffffffff1660e01b81526004016109fd9190616a51565b600060405180830381865afa158015610a1a573d6000803e3d6000fd5b505050506040513d6000823e3d601f19601f82011682018060405250810190610a439190616575565b60200151604051602001610a5791906165fa565b60405160208183030381529060405280519060200120145b15610cd25760005b600080549050811015610cd057600460009054906101000a900473ffffffffffffffffffffffffffffffffffffffff1673ffffffffffffffffffffffffffffffffffffffff16635c99c71b8560008481548110610ad757610ad66162e2565b5b906000526020600020906004020160000160009054906101000a900473ffffffffffffffffffffffffffffffffffffffff168660008681548110610b1e57610b1d6162e2565b5b90600052602060002090600402016001016040518563ffffffff1660e01b8152600401610b4e9493929190616a73565b602060405180830381865afa158015610b6b573d6000803e3d6000fd5b505050506040513d601f19601f82011682018060405250810190610b8f9190616ac6565b15610cbd57604051806060016040528060011515815260200160008381548110610bbc57610bbb6162e2565b5b9060005260206000209060040201600301805480602002602001604051908101604052809291908181526020016000905b82821015610c99578382906000526020600020018054610c0c90616340565b80601f0160208091040260200160405190810160405280929190818152602001828054610c3890616340565b8015610c855780601f10610c5a57610100808354040283529160200191610c85565b820191906000526020600020905b815481529060010190602001808311610c6857829003601f168201915b505050505081526020019060010190610bed565b50505050815260200160405180602001604052806000815250815250915050610d59565b8080610cc8906169a8565b915050610a77565b505b6040518060600160405280600015158152602001600067ffffffffffffffff811115610d0157610d0061546f565b5b604051908082528060200260200182016040528015610d3457816020015b6060815260200190600190039081610d1f5790505b5081526020016040518060a0016040528060688152602001617e3f6068913981525090505b92915050565b600080600090505b600080549050811015611053576000600160009054906101000a900473ffffffffffffffffffffffffffffffffffffffff1673ffffffffffffffffffffffffffffffffffffffff1663f880680b60008481548110610dc857610dc76162e2565b5b90600052602060002090600402016001016040518263ffffffff1660e01b8152600401610df5919061641b565b600060405180830381865afa158015610e12573d6000803e3d6000fd5b505050506040513d6000823e3d601f19601f82011682018060405250810190610e3b9190616575565b6020015190506000600160009054906101000a900473ffffffffffffffffffffffffffffffffffffffff1673ffffffffffffffffffffffffffffffffffffffff1662438ceb60008581548110610e9457610e936162e2565b5b90600052602060002090600402016001016040518263ffffffff1660e01b8152600401610ec1919061641b565b600060405180830381865afa158015610ede573d6000803e3d6000fd5b505050506040513d6000823e3d601f19601f82011682018060405250810190610f079190616575565b6020015190508573ffffffffffffffffffffffffffffffffffffffff1660008481548110610f3857610f376162e2565b5b906000526020600020906004020160000160009054906101000a900473ffffffffffffffffffffffffffffffffffffffff1673ffffffffffffffffffffffffffffffffffffffff16148015610fd8575084604051602001610f9991906165fa565b6040516020818303038152906040528051906020012082604051602001610fc091906165fa565b60405160208183030381529060405280519060200120145b801561102d5750604051602001610fee90616a3c565b604051602081830303815290604052805190602001208160405160200161101591906165fa565b60405160208183030381529060405280519060200120145b1561103e5760019350505050611059565b5050808061104b906169a8565b915050610d67565b50600090505b92915050565b600061106a82614690565b806110c25750600360009054906101000a900473ffffffffffffffffffffffffffffffffffffffff1673ffffffffffffffffffffffffffffffffffffffff163373ffffffffffffffffffffffffffffffffffffffff16145b156112065760005b60008054905081101561120457600460009054906101000a900473ffffffffffffffffffffffffffffffffffffffff1673ffffffffffffffffffffffffffffffffffffffff16635c99c71b856000848154811061112a576111296162e2565b5b906000526020600020906004020160000160009054906101000a900473ffffffffffffffffffffffffffffffffffffffff168660008681548110611171576111706162e2565b5b90600052602060002090600402016001016040518563ffffffff1660e01b81526004016111a19493929190616a73565b602060405180830381865afa1580156111be573d6000803e3d6000fd5b505050506040513d601f19601f820116820180604052508101906111e29190616ac6565b156111f157600191505061120b565b80806111fc906169a8565b9150506110ca565b505b600090505b92915050565b60008273ffffffffffffffffffffffffffffffffffffffff163373ffffffffffffffffffffffffffffffffffffffff16141580156112ea5750600160009054906101000a900473ffffffffffffffffffffffffffffffffffffffff1673ffffffffffffffffffffffffffffffffffffffff166352a9baef84846040518363ffffffff1660e01b81526004016112a7929190616af3565b602060405180830381865afa1580156112c4573d6000803e3d6000fd5b505050506040513d601f19601f820116820180604052508101906112e89190616ac6565b155b8015611332575061133133836040518060400160405280600581526020017f73686172650000000000000000000000000000000000000000000000000000008152506149cc565b5b801561142a575060405160200161134890616a3c565b60405160208183030381529060405280519060200120600160009054906101000a900473ffffffffffffffffffffffffffffffffffffffff1673ffffffffffffffffffffffffffffffffffffffff1662438ceb846040518263ffffffff1660e01b81526004016113b89190616a51565b600060405180830381865afa1580156113d5573d6000803e3d6000fd5b505050506040513d6000823e3d601f19601f820116820180604052508101906113fe9190616575565b6020015160405160200161141291906165fa565b60405160208183030381529060405280519060200120145b15611438576001905061143d565b600090505b92915050565b61144b615244565b61145482614690565b801561154c575060405160200161146a90616a3c565b60405160208183030381529060405280519060200120600160009054906101000a900473ffffffffffffffffffffffffffffffffffffffff1673ffffffffffffffffffffffffffffffffffffffff1662438ceb846040518263ffffffff1660e01b81526004016114da9190616a51565b600060405180830381865afa1580156114f7573d6000803e3d6000fd5b505050506040513d6000823e3d601f19601f820116820180604052508101906115209190616575565b6020015160405160200161153491906165fa565b60405160208183030381529060405280519060200120145b15611836576000808054905067ffffffffffffffff8111156115715761157061546f565b5b60405190808252806020026020018201604052801561159f5781602001602082028036833780820191505090505b5090506000805b6000805490508110156117fc57846040516020016115c491906165fa565b60405160208183030381529060405280519060200120600082815481106115ee576115ed6162e2565b5b906000526020600020906004020160010160405160200161160f9190616ba6565b60405160208183030381529060405280519060200120148015611742575060405160200161163c90616a3c565b60405160208183030381529060405280519060200120600160009054906101000a900473ffffffffffffffffffffffffffffffffffffffff1673ffffffffffffffffffffffffffffffffffffffff1662438ceb600084815481106116a3576116a26162e2565b5b90600052602060002090600402016001016040518263ffffffff1660e01b81526004016116d0919061641b565b600060405180830381865afa1580156116ed573d6000803e3d6000fd5b505050506040513d6000823e3d601f19601f820116820180604052508101906117169190616575565b6020015160405160200161172a91906165fa565b60405160208183030381529060405280519060200120145b156117e9576000818154811061175b5761175a6162e2565b5b906000526020600020906004020160000160009054906101000a900473ffffffffffffffffffffffffffffffffffffffff168383815181106117a05761179f6162e2565b5b602002602001019073ffffffffffffffffffffffffffffffffffffffff16908173ffffffffffffffffffffffffffffffffffffffff168152505081806117e5906169a8565b9250505b80806117f4906169a8565b9150506115a6565b50808252604051806060016040528060011515815260200183815260200160405180602001604052806000815250815250925050506118b8565b6040518060600160405280600015158152602001600067ffffffffffffffff8111156118655761186461546f565b5b6040519080825280602002602001820160405280156118935781602001602082028036833780820191505090505b5081526020016040518060800160405280605b8152602001617d96605b913981525090505b919050565b6118ca8460000151614b7a565b80156118de57506118dd84848484614ccc565b5b15611dbb57600160009054906101000a900473ffffffffffffffffffffffffffffffffffffffff1673ffffffffffffffffffffffffffffffffffffffff166395f0f0bb85856040518363ffffffff1660e01b8152600401611940929190616cac565b600060405180830381600087803b15801561195a57600080fd5b505af115801561196e573d6000803e3d6000fd5b5050505060005b600080549050811015611d2457846000015160405160200161199791906165fa565b60405160208183030381529060405280519060200120600082815481106119c1576119c06162e2565b5b90600052602060002090600402016001016040516020016119e29190616ba6565b6040516020818303038152906040528051906020012003611d11576000805b8451811015611ab75760008381548110611a1e57611a1d6162e2565b5b906000526020600020906004020160000160009054906101000a900473ffffffffffffffffffffffffffffffffffffffff1673ffffffffffffffffffffffffffffffffffffffff16858281518110611a7957611a786162e2565b5b602002602001015173ffffffffffffffffffffffffffffffffffffffff1603611aa457809150611ab7565b8080611aaf906169a8565b915050611a01565b506000838281518110611acd57611acc6162e2565b5b602002602001015190506000604051806080016040528060008681548110611af857611af76162e2565b5b906000526020600020906004020160000160009054906101000a900473ffffffffffffffffffffffffffffffffffffffff1673ffffffffffffffffffffffffffffffffffffffff1681526020018860000151815260200183815260200160008681548110611b6957611b686162e2565b5b9060005260206000209060040201600301805480602002602001604051908101604052809291908181526020016000905b82821015611c46578382906000526020600020018054611bb990616340565b80601f0160208091040260200160405190810160405280929190818152602001828054611be590616340565b8015611c325780601f10611c0757610100808354040283529160200191611c32565b820191906000526020600020905b815481529060010190602001808311611c1557829003601f168201915b505050505081526020019060010190611b9a565b505050508152509050600081908060018154018082558091505060019003906000526020600020906004020160009091909190915060008201518160000160006101000a81548173ffffffffffffffffffffffffffffffffffffffff021916908373ffffffffffffffffffffffffffffffffffffffff1602179055506020820151816001019081611cd79190616e7a565b506040820151816002019081611ced9190616e7a565b506060820151816003019080519060200190611d0a929190615267565b5050505050505b8080611d1c906169a8565b915050611975565b50600360009054906101000a900473ffffffffffffffffffffffffffffffffffffffff1673ffffffffffffffffffffffffffffffffffffffff1663c47ebddc338660000151336040518463ffffffff1660e01b8152600401611d8893929190616fe4565b600060405180830381600087803b158015611da257600080fd5b505af1158015611db6573d6000803e3d6000fd5b505050505b50505050565b6000600160009054906101000a900473ffffffffffffffffffffffffffffffffffffffff16905090565b8073ffffffffffffffffffffffffffffffffffffffff163373ffffffffffffffffffffffffffffffffffffffff16148015611e625750611e6181836040518060400160405280600881526020017f646f776e6c6f61640000000000000000000000000000000000000000000000008152506149cc565b5b8015611f5a5750604051602001611e7890616a3c565b60405160208183030381529060405280519060200120600160009054906101000a900473ffffffffffffffffffffffffffffffffffffffff1673ffffffffffffffffffffffffffffffffffffffff1662438ceb846040518263ffffffff1660e01b8152600401611ee89190616a51565b600060405180830381865afa158015611f05573d6000803e3d6000fd5b505050506040513d6000823e3d601f19601f82011682018060405250810190611f2e9190616575565b60200151604051602001611f4291906165fa565b60405160208183030381529060405280519060200120145b15611ff157600360009054906101000a900473ffffffffffffffffffffffffffffffffffffffff1673ffffffffffffffffffffffffffffffffffffffff1663c47ebddc3384846040518463ffffffff1660e01b8152600401611fbe93929190617094565b600060405180830381600087803b158015611fd857600080fd5b505af1158015611fec573d6000803e3d6000fd5b505050505b5050565b6000600260009054906101000a900473ffffffffffffffffffffffffffffffffffffffff16905090565b6120298383611211565b80156120cd5750600460009054906101000a900473ffffffffffffffffffffffffffffffffffffffff1673ffffffffffffffffffffffffffffffffffffffff1663bda49b1d826040518263ffffffff1660e01b815260040161208b919061717e565b602060405180830381865afa1580156120a8573d6000803e3d6000fd5b505050506040513d601f19601f820116820180604052508101906120cc9190616ac6565b5b1561237e5760005b60008054905081101561237c57600460009054906101000a900473ffffffffffffffffffffffffffffffffffffffff1673ffffffffffffffffffffffffffffffffffffffff16635c99c71b8560008481548110612135576121346162e2565b5b906000526020600020906004020160000160009054906101000a900473ffffffffffffffffffffffffffffffffffffffff16866000868154811061217c5761217b6162e2565b5b90600052602060002090600402016001016040518563ffffffff1660e01b81526004016121ac9493929190616a73565b602060405180830381865afa1580156121c9573d6000803e3d6000fd5b505050506040513d601f19601f820116820180604052508101906121ed9190616ac6565b15612369578160008281548110612207576122066162e2565b5b9060005260206000209060040201600301908051906020019061222b929190615267565b50600360009054906101000a900473ffffffffffffffffffffffffffffffffffffffff1673ffffffffffffffffffffffffffffffffffffffff1663c47ebddc338587600460009054906101000a900473ffffffffffffffffffffffffffffffffffffffff1673ffffffffffffffffffffffffffffffffffffffff16636bb8d768886040518263ffffffff1660e01b81526004016122c8919061717e565b600060405180830381865afa1580156122e5573d6000803e3d6000fd5b505050506040513d6000823e3d601f19601f8201168201806040525081019061230e9190616575565b602001516040518563ffffffff1660e01b815260040161233194939291906171ec565b600060405180830381600087803b15801561234b57600080fd5b505af115801561235f573d6000803e3d6000fd5b505050505061237f565b8080612374906169a8565b9150506120d5565b505b5b505050565b61238c6152c0565b8273ffffffffffffffffffffffffffffffffffffffff163373ffffffffffffffffffffffffffffffffffffffff161480156123cd57506123cc838361105f565b5b80156125bc57506040516020016123e390616a3c565b60405160208183030381529060405280519060200120600160009054906101000a900473ffffffffffffffffffffffffffffffffffffffff1673ffffffffffffffffffffffffffffffffffffffff1662438ceb846040518263ffffffff1660e01b81526004016124539190616a51565b600060405180830381865afa158015612470573d6000803e3d6000fd5b505050506040513d6000823e3d601f19601f820116820180604052508101906124999190616575565b602001516040516020016124ad91906165fa565b6040516020818303038152906040528051906020012014806125bb57506040516020016124d99061729e565b60405160208183030381529060405280519060200120600160009054906101000a900473ffffffffffffffffffffffffffffffffffffffff1673ffffffffffffffffffffffffffffffffffffffff1662438ceb846040518263ffffffff1660e01b81526004016125499190616a51565b600060405180830381865afa158015612566573d6000803e3d6000fd5b505050506040513d6000823e3d601f19601f8201168201806040525081019061258f9190616575565b602001516040516020016125a391906165fa565b60405160208183030381529060405280519060200120145b5b156127d85760005b6000805490508110156127d657600460009054906101000a900473ffffffffffffffffffffffffffffffffffffffff1673ffffffffffffffffffffffffffffffffffffffff16635c99c71b8560008481548110612624576126236162e2565b5b906000526020600020906004020160000160009054906101000a900473ffffffffffffffffffffffffffffffffffffffff16866000868154811061266b5761266a6162e2565b5b90600052602060002090600402016001016040518563ffffffff1660e01b815260040161269b9493929190616a73565b602060405180830381865afa1580156126b8573d6000803e3d6000fd5b505050506040513d601f19601f820116820180604052508101906126dc9190616ac6565b156127c357604051806060016040528060011515815260200160008381548110612709576127086162e2565b5b9060005260206000209060040201600201805461272590616340565b80601f016020809104026020016040519081016040528092919081815260200182805461275190616340565b801561279e5780601f106127735761010080835404028352916020019161279e565b820191906000526020600020905b81548152906001019060200180831161278157829003601f168201915b5050505050815260200160405180602001604052806000815250815250915050612820565b80806127ce906169a8565b9150506125c4565b505b60405180606001604052806000151581526020016040518060200160405280600081525081526020016040518060e0016040528060a48152602001617cf260a4913981525090505b92915050565b60005b600080549050811015612bc6576000600160009054906101000a900473ffffffffffffffffffffffffffffffffffffffff1673ffffffffffffffffffffffffffffffffffffffff1663f880680b6000848154811061288a576128896162e2565b5b90600052602060002090600402016001016040518263ffffffff1660e01b81526004016128b7919061641b565b600060405180830381865afa1580156128d4573d6000803e3d6000fd5b505050506040513d6000823e3d601f19601f820116820180604052508101906128fd9190616575565b6020015190506000600160009054906101000a900473ffffffffffffffffffffffffffffffffffffffff1673ffffffffffffffffffffffffffffffffffffffff1662438ceb60008581548110612956576129556162e2565b5b90600052602060002090600402016001016040518263ffffffff1660e01b8152600401612983919061641b565b600060405180830381865afa1580156129a0573d6000803e3d6000fd5b505050506040513d6000823e3d601f19601f820116820180604052508101906129c99190616575565b6020015190508473ffffffffffffffffffffffffffffffffffffffff16600084815481106129fa576129f96162e2565b5b906000526020600020906004020160000160009054906101000a900473ffffffffffffffffffffffffffffffffffffffff1673ffffffffffffffffffffffffffffffffffffffff16148015612a9a575083604051602001612a5b91906165fa565b6040516020818303038152906040528051906020012082604051602001612a8291906165fa565b60405160208183030381529060405280519060200120145b8015612aef5750604051602001612ab090616a3c565b6040516020818303038152906040528051906020012081604051602001612ad791906165fa565b60405160208183030381529060405280519060200120145b15612bb157600360009054906101000a900473ffffffffffffffffffffffffffffffffffffffff1673ffffffffffffffffffffffffffffffffffffffff1663c47ebddc3360008681548110612b4757612b466162e2565b5b9060005260206000209060040201600101886040518463ffffffff1660e01b8152600401612b77939291906172ff565b600060405180830381600087803b158015612b9157600080fd5b505af1158015612ba5573d6000803e3d6000fd5b50505050505050612bc8565b50508080612bbe906169a8565b915050612829565b505b5050565b60008273ffffffffffffffffffffffffffffffffffffffff163373ffffffffffffffffffffffffffffffffffffffff1614158015612ca55750600160009054906101000a900473ffffffffffffffffffffffffffffffffffffffff1673ffffffffffffffffffffffffffffffffffffffff166352a9baef84846040518363ffffffff1660e01b8152600401612c62929190616af3565b602060405180830381865afa158015612c7f573d6000803e3d6000fd5b505050506040513d601f19601f82011682018060405250810190612ca39190616ac6565b155b8015612ced5750612cec33836040518060400160405280600581526020017f73686172650000000000000000000000000000000000000000000000000000008152506149cc565b5b8015612d005750612cfe838361105f565b155b8015612da45750600160009054906101000a900473ffffffffffffffffffffffffffffffffffffffff1673ffffffffffffffffffffffffffffffffffffffff16639bccd6ad836040518263ffffffff1660e01b8152600401612d629190616a51565b602060405180830381865afa158015612d7f573d6000803e3d6000fd5b505050506040513d601f19601f82011682018060405250810190612da39190616ac6565b5b8015612e9c5750604051602001612dba90616a3c565b60405160208183030381529060405280519060200120600160009054906101000a900473ffffffffffffffffffffffffffffffffffffffff1673ffffffffffffffffffffffffffffffffffffffff1662438ceb846040518263ffffffff1660e01b8152600401612e2a9190616a51565b600060405180830381865afa158015612e47573d6000803e3d6000fd5b505050506040513d6000823e3d601f19601f82011682018060405250810190612e709190616575565b60200151604051602001612e8491906165fa565b60405160208183030381529060405280519060200120145b8015612f405750600260009054906101000a900473ffffffffffffffffffffffffffffffffffffffff1673ffffffffffffffffffffffffffffffffffffffff1663a240e426846040518263ffffffff1660e01b8152600401612efe9190616021565b602060405180830381865afa158015612f1b573d6000803e3d6000fd5b505050506040513d601f19601f82011682018060405250810190612f3f9190616ac6565b5b15612f4e5760019050612f53565b600090505b92915050565b6000600360009054906101000a900473ffffffffffffffffffffffffffffffffffffffff16905090565b600080600160009054906101000a900473ffffffffffffffffffffffffffffffffffffffff1673ffffffffffffffffffffffffffffffffffffffff1663922243ad846040518263ffffffff1660e01b8152600401612fe19190616a51565b600060405180830381865afa158015612ffe573d6000803e3d6000fd5b505050506040513d6000823e3d601f19601f8201168201806040525081019061302791906174b4565b60200151905060005b60008054905081101561318a5760005b8251811015613176578573ffffffffffffffffffffffffffffffffffffffff1660008381548110613074576130736162e2565b5b906000526020600020906004020160000160009054906101000a900473ffffffffffffffffffffffffffffffffffffffff1673ffffffffffffffffffffffffffffffffffffffff1614801561315257508281815181106130d7576130d66162e2565b5b60200260200101516040516020016130ef91906165fa565b6040516020818303038152906040528051906020012060008381548110613119576131186162e2565b5b906000526020600020906004020160010160405160200161313a9190616ba6565b60405160208183030381529060405280519060200120145b156131635760019350505050613191565b808061316e906169a8565b915050613040565b508080613182906169a8565b915050613030565b5060009150505b92915050565b6131a18484612bcc565b801561329957506040516020016131b790616a3c565b60405160208183030381529060405280519060200120600160009054906101000a900473ffffffffffffffffffffffffffffffffffffffff1673ffffffffffffffffffffffffffffffffffffffff1662438ceb856040518263ffffffff1660e01b81526004016132279190616a51565b600060405180830381865afa158015613244573d6000803e3d6000fd5b505050506040513d6000823e3d601f19601f8201168201806040525081019061326d9190616575565b6020015160405160200161328191906165fa565b60405160208183030381529060405280519060200120145b15613684576000600460009054906101000a900473ffffffffffffffffffffffffffffffffffffffff1673ffffffffffffffffffffffffffffffffffffffff1663872e35a98686856040518463ffffffff1660e01b81526004016132ff93929190617520565b602060405180830381865afa15801561331c573d6000803e3d6000fd5b505050506040513d601f19601f820116820180604052508101906133409190616ac6565b90508015613682576000600160009054906101000a900473ffffffffffffffffffffffffffffffffffffffff1673ffffffffffffffffffffffffffffffffffffffff1663fadc54f4866040518263ffffffff1660e01b81526004016133a59190616a51565b600060405180830381865afa1580156133c2573d6000803e3d6000fd5b505050506040513d6000823e3d601f19601f820116820180604052508101906133eb91906176f5565b60200151905060005b8151811015613548576000828281518110613412576134116162e2565b5b6020026020010151600001519050600060405180608001604052808a73ffffffffffffffffffffffffffffffffffffffff168152602001838152602001888581518110613462576134616162e2565b5b60200260200101518152602001878152509050600081908060018154018082558091505060019003906000526020600020906004020160009091909190915060008201518160000160006101000a81548173ffffffffffffffffffffffffffffffffffffffff021916908373ffffffffffffffffffffffffffffffffffffffff16021790555060208201518160010190816134fd9190616e7a565b5060408201518160020190816135139190616e7a565b506060820151816003019080519060200190613530929190615267565b50505050508080613540906169a8565b9150506133f4565b50600360009054906101000a900473ffffffffffffffffffffffffffffffffffffffff1673ffffffffffffffffffffffffffffffffffffffff1663c47ebddc338789600460009054906101000a900473ffffffffffffffffffffffffffffffffffffffff1673ffffffffffffffffffffffffffffffffffffffff16636bb8d768896040518263ffffffff1660e01b81526004016135e5919061717e565b600060405180830381865afa158015613602573d6000803e3d6000fd5b505050506040513d6000823e3d601f19601f8201168201806040525081019061362b9190616575565b602001516040518563ffffffff1660e01b815260040161364e949392919061778a565b600060405180830381600087803b15801561366857600080fd5b505af115801561367c573d6000803e3d6000fd5b50505050505b505b50505050565b6136ca33826040518060400160405280600681526020017f64656c65746500000000000000000000000000000000000000000000000000008152506149cc565b80156137c257506040516020016136e090616a3c565b60405160208183030381529060405280519060200120600160009054906101000a900473ffffffffffffffffffffffffffffffffffffffff1673ffffffffffffffffffffffffffffffffffffffff1662438ceb836040518263ffffffff1660e01b81526004016137509190616a51565b600060405180830381865afa15801561376d573d6000803e3d6000fd5b505050506040513d6000823e3d601f19601f820116820180604052508101906137969190616575565b602001516040516020016137aa91906165fa565b60405160208183030381529060405280519060200120145b156138e657600160009054906101000a900473ffffffffffffffffffffffffffffffffffffffff1673ffffffffffffffffffffffffffffffffffffffff166374546fdf826040518263ffffffff1660e01b81526004016138229190616a51565b600060405180830381600087803b15801561383c57600080fd5b505af1158015613850573d6000803e3d6000fd5b50505050600360009054906101000a900473ffffffffffffffffffffffffffffffffffffffff1673ffffffffffffffffffffffffffffffffffffffff1663c47ebddc3383856040518463ffffffff1660e01b81526004016138b39392919061783c565b600060405180830381600087803b1580156138cd57600080fd5b505af11580156138e1573d6000803e3d6000fd5b505050505b5050565b6138f2615221565b8273ffffffffffffffffffffffffffffffffffffffff163373ffffffffffffffffffffffffffffffffffffffff161480156139335750613932838361105f565b5b8015613b22575060405160200161394990616a3c565b60405160208183030381529060405280519060200120600160009054906101000a900473ffffffffffffffffffffffffffffffffffffffff1673ffffffffffffffffffffffffffffffffffffffff1662438ceb846040518263ffffffff1660e01b81526004016139b99190616a51565b600060405180830381865afa1580156139d6573d6000803e3d6000fd5b505050506040513d6000823e3d601f19601f820116820180604052508101906139ff9190616575565b60200151604051602001613a1391906165fa565b604051602081830303815290604052805190602001201480613b215750604051602001613a3f9061729e565b60405160208183030381529060405280519060200120600160009054906101000a900473ffffffffffffffffffffffffffffffffffffffff1673ffffffffffffffffffffffffffffffffffffffff1662438ceb846040518263ffffffff1660e01b8152600401613aaf9190616a51565b600060405180830381865afa158015613acc573d6000803e3d6000fd5b505050506040513d6000823e3d601f19601f82011682018060405250810190613af59190616575565b60200151604051602001613b0991906165fa565b60405160208183030381529060405280519060200120145b5b15613cc9576000600160009054906101000a900473ffffffffffffffffffffffffffffffffffffffff1673ffffffffffffffffffffffffffffffffffffffff1663fadc54f4846040518263ffffffff1660e01b8152600401613b849190616a51565b600060405180830381865afa158015613ba1573d6000803e3d6000fd5b505050506040513d6000823e3d601f19601f82011682018060405250810190613bca91906176f5565b6020015190506000815167ffffffffffffffff811115613bed57613bec61546f565b5b604051908082528060200260200182016040528015613c2057816020015b6060815260200190600190039081613c0b5790505b50905060005b8251811015613c92576000613c5987858481518110613c4857613c476162e2565b5b602002602001015160000151612384565b60200151905080838381518110613c7357613c726162e2565b5b6020026020010181905250508080613c8a906169a8565b915050613c26565b5060405180606001604052806001151581526020018281526020016040518060200160405280600081525081525092505050613d50565b6040518060600160405280600015158152602001600067ffffffffffffffff811115613cf857613cf761546f565b5b604051908082528060200260200182016040528015613d2b57816020015b6060815260200190600190039081613d165790505b5081526020016040518060e0016040528060a48152602001617cf260a4913981525090505b92915050565b613d608282611211565b1561414e576000600160009054906101000a900473ffffffffffffffffffffffffffffffffffffffff1673ffffffffffffffffffffffffffffffffffffffff1663fadc54f4836040518263ffffffff1660e01b8152600401613dc29190616a51565b600060405180830381865afa158015613ddf573d6000803e3d6000fd5b505050506040513d6000823e3d601f19601f82011682018060405250810190613e0891906176f5565b60200151905060005b81518110156140b65760005b6000805490508110156140a2578473ffffffffffffffffffffffffffffffffffffffff1660008281548110613e5557613e546162e2565b5b906000526020600020906004020160000160009054906101000a900473ffffffffffffffffffffffffffffffffffffffff1673ffffffffffffffffffffffffffffffffffffffff16148015613f075750828281518110613eb857613eb76162e2565b5b6020026020010151600001518051906020012060008281548110613edf57613ede6162e2565b5b9060005260206000209060040201600101604051613efd9190617943565b6040518091039020145b1561408f5760006001600080549050613f20919061795a565b81548110613f3157613f306162e2565b5b906000526020600020906004020160008281548110613f5357613f526162e2565b5b90600052602060002090600402016000820160009054906101000a900473ffffffffffffffffffffffffffffffffffffffff168160000160006101000a81548173ffffffffffffffffffffffffffffffffffffffff021916908373ffffffffffffffffffffffffffffffffffffffff16021790555060018201816001019081613fdc91906179a4565b5060028201816002019081613ff191906179a4565b5060038201816003019080546140089291906152e3565b50905050600080548061401e5761401d617a8c565b5b6001900381819060005260206000209060040201600080820160006101000a81549073ffffffffffffffffffffffffffffffffffffffff021916905560018201600061406a9190615340565b60028201600061407a9190615340565b60038201600061408a9190615380565b505090555b808061409a906169a8565b915050613e1d565b5080806140ae906169a8565b915050613e11565b50600360009054906101000a900473ffffffffffffffffffffffffffffffffffffffff1673ffffffffffffffffffffffffffffffffffffffff1663c47ebddc3384866040518463ffffffff1660e01b815260040161411693929190617b07565b600060405180830381600087803b15801561413057600080fd5b505af1158015614144573d6000803e3d6000fd5b505050505061414f565b5b5050565b61416183836000015161509b565b1561468b576000600467ffffffffffffffff8111156141835761418261546f565b5b6040519080825280602002602001820160405280156141b657816020015b60608152602001906001900390816141a15790505b5090506040518060400160405280600581526020017f736861726500000000000000000000000000000000000000000000000000000081525081600081518110614203576142026162e2565b5b60200260200101819052506040518060400160405280600881526020017f646f776e6c6f616400000000000000000000000000000000000000000000000081525081600181518110614258576142576162e2565b5b60200260200101819052506040518060400160405280600681526020017f64656c6574650000000000000000000000000000000000000000000000000000815250816002815181106142ad576142ac6162e2565b5b60200260200101819052506040518060400160405280600481526020017f656469740000000000000000000000000000000000000000000000000000000081525081600381518110614302576143016162e2565b5b60200260200101819052506000600460009054906101000a900473ffffffffffffffffffffffffffffffffffffffff1673ffffffffffffffffffffffffffffffffffffffff1663872e35a9868660000151858860e001516040518563ffffffff1660e01b81526004016143789493929190617b6b565b602060405180830381865afa158015614395573d6000803e3d6000fd5b505050506040513d601f19601f820116820180604052508101906143b99190616ac6565b9050801561468857600160009054906101000a900473ffffffffffffffffffffffffffffffffffffffff1673ffffffffffffffffffffffffffffffffffffffff1663bfddc42f856040518263ffffffff1660e01b815260040161441c9190617bc5565b600060405180830381600087803b15801561443657600080fd5b505af115801561444a573d6000803e3d6000fd5b50505050600060405180608001604052808773ffffffffffffffffffffffffffffffffffffffff16815260200186600001518152602001858152602001848152509050600081908060018154018082558091505060019003906000526020600020906004020160009091909190915060008201518160000160006101000a81548173ffffffffffffffffffffffffffffffffffffffff021916908373ffffffffffffffffffffffffffffffffffffffff16021790555060208201518160010190816145159190616e7a565b50604082015181600201908161452b9190616e7a565b506060820151816003019080519060200190614548929190615267565b505050600360009054906101000a900473ffffffffffffffffffffffffffffffffffffffff1673ffffffffffffffffffffffffffffffffffffffff1663c47ebddc33876000015189600460009054906101000a900473ffffffffffffffffffffffffffffffffffffffff1673ffffffffffffffffffffffffffffffffffffffff16636bb8d768896040518263ffffffff1660e01b81526004016145eb919061717e565b600060405180830381865afa158015614608573d6000803e3d6000fd5b505050506040513d6000823e3d601f19601f820116820180604052508101906146319190616575565b602001516040518563ffffffff1660e01b81526004016146549493929190617c33565b600060405180830381600087803b15801561466e57600080fd5b505af1158015614682573d6000803e3d6000fd5b50505050505b50505b505050565b600080600090505b6000805490508110156149c157600460009054906101000a900473ffffffffffffffffffffffffffffffffffffffff1673ffffffffffffffffffffffffffffffffffffffff16635c99c71b33600084815481106146f8576146f76162e2565b5b906000526020600020906004020160000160009054906101000a900473ffffffffffffffffffffffffffffffffffffffff16866000868154811061473f5761473e6162e2565b5b90600052602060002090600402016001016040518563ffffffff1660e01b815260040161476f9493929190616a73565b602060405180830381865afa15801561478c573d6000803e3d6000fd5b505050506040513d601f19601f820116820180604052508101906147b09190616ac6565b801561499f57506040516020016147c690616a3c565b60405160208183030381529060405280519060200120600160009054906101000a900473ffffffffffffffffffffffffffffffffffffffff1673ffffffffffffffffffffffffffffffffffffffff1662438ceb856040518263ffffffff1660e01b81526004016148369190616a51565b600060405180830381865afa158015614853573d6000803e3d6000fd5b505050506040513d6000823e3d601f19601f8201168201806040525081019061487c9190616575565b6020015160405160200161489091906165fa565b60405160208183030381529060405280519060200120148061499e57506040516020016148bc9061729e565b60405160208183030381529060405280519060200120600160009054906101000a900473ffffffffffffffffffffffffffffffffffffffff1673ffffffffffffffffffffffffffffffffffffffff1662438ceb856040518263ffffffff1660e01b815260040161492c9190616a51565b600060405180830381865afa158015614949573d6000803e3d6000fd5b505050506040513d6000823e3d601f19601f820116820180604052508101906149729190616575565b6020015160405160200161498691906165fa565b60405160208183030381529060405280519060200120145b5b156149ae5760019150506149c7565b80806149b9906169a8565b915050614698565b50600090505b919050565b60006040516020016149dd90616a3c565b60405160208183030381529060405280519060200120600160009054906101000a900473ffffffffffffffffffffffffffffffffffffffff1673ffffffffffffffffffffffffffffffffffffffff1662438ceb856040518263ffffffff1660e01b8152600401614a4d9190616a51565b600060405180830381865afa158015614a6a573d6000803e3d6000fd5b505050506040513d6000823e3d601f19601f82011682018060405250810190614a939190616575565b60200151604051602001614aa791906165fa565b6040516020818303038152906040528051906020012003614b6e576000614ace8585610966565b60200151905060005b8151811015614b6b5783604051602001614af191906165fa565b60405160208183030381529060405280519060200120828281518110614b1a57614b196162e2565b5b6020026020010151604051602001614b3291906165fa565b6040516020818303038152906040528051906020012003614b5857600192505050614b73565b8080614b63906169a8565b915050614ad7565b50505b600090505b9392505050565b6000614bbc33836040518060400160405280600481526020017f65646974000000000000000000000000000000000000000000000000000000008152506149cc565b8015614cb45750604051602001614bd290616a3c565b60405160208183030381529060405280519060200120600160009054906101000a900473ffffffffffffffffffffffffffffffffffffffff1673ffffffffffffffffffffffffffffffffffffffff1662438ceb846040518263ffffffff1660e01b8152600401614c429190616a51565b600060405180830381865afa158015614c5f573d6000803e3d6000fd5b505050506040513d6000823e3d601f19601f82011682018060405250810190614c889190616575565b60200151604051602001614c9c91906165fa565b60405160208183030381529060405280519060200120145b15614cc25760019050614cc7565b600090505b919050565b60008073ffffffffffffffffffffffffffffffffffffffff16600160009054906101000a900473ffffffffffffffffffffffffffffffffffffffff1673ffffffffffffffffffffffffffffffffffffffff166347eb6fa787600001516040518263ffffffff1660e01b8152600401614d449190617cbc565b600060405180830381865afa158015614d61573d6000803e3d6000fd5b505050506040513d6000823e3d601f19601f82011682018060405250810190614d8a9190616926565b602001516080015173ffffffffffffffffffffffffffffffffffffffff1614158015614e8e5750600073ffffffffffffffffffffffffffffffffffffffff16600160009054906101000a900473ffffffffffffffffffffffffffffffffffffffff1673ffffffffffffffffffffffffffffffffffffffff166347eb6fa786600001516040518263ffffffff1660e01b8152600401614e289190617cbc565b600060405180830381865afa158015614e45573d6000803e3d6000fd5b505050506040513d6000823e3d601f19601f82011682018060405250810190614e6e9190616926565b602001516080015173ffffffffffffffffffffffffffffffffffffffff16145b8015614ee85750604051602001614ea490616637565b604051602081830303815290604052805190602001208460200151604051602001614ecf91906165fa565b6040516020818303038152906040528051906020012014155b8015614f425750604051602001614efe90616637565b604051602081830303815290604052805190602001208460a00151604051602001614f2991906165fa565b6040516020818303038152906040528051906020012014155b8015614f9c5750604051602001614f5890616637565b604051602081830303815290604052805190602001208460c00151604051602001614f8391906165fa565b6040516020818303038152906040528051906020012014155b8015614ff75750604051602001614fb290616637565b60405160208183030381529060405280519060200120846101000151604051602001614fde91906165fa565b6040516020818303038152906040528051906020012014155b8015615004575081518351145b80156150435750846080015173ffffffffffffffffffffffffffffffffffffffff16856080015173ffffffffffffffffffffffffffffffffffffffff16145b80156150805750600073ffffffffffffffffffffffffffffffffffffffff16856080015173ffffffffffffffffffffffffffffffffffffffff1614155b1561508e5760019050615093565b600090505b949350505050565b60008273ffffffffffffffffffffffffffffffffffffffff163373ffffffffffffffffffffffffffffffffffffffff161480156150df57506150dd838361105f565b155b80156151835750600260009054906101000a900473ffffffffffffffffffffffffffffffffffffffff1673ffffffffffffffffffffffffffffffffffffffff1663a240e426846040518263ffffffff1660e01b81526004016151419190616021565b602060405180830381865afa15801561515e573d6000803e3d6000fd5b505050506040513d601f19601f820116820180604052508101906151829190616ac6565b5b156151915760019050615196565b600090505b92915050565b604051806060016040528060001515815260200160608152602001606081525090565b60405180610120016040528060608152602001606081526020016000815260200160608152602001600073ffffffffffffffffffffffffffffffffffffffff168152602001606081526020016060815260200160608152602001606081525090565b604051806060016040528060001515815260200160608152602001606081525090565b604051806060016040528060001515815260200160608152602001606081525090565b8280548282559060005260206000209081019282156152af579160200282015b828111156152ae57825182908161529e9190616e7a565b5091602001919060010190615287565b5b5090506152bc91906153a1565b5090565b604051806060016040528060001515815260200160608152602001606081525090565b82805482825590600052602060002090810192821561532f5760005260206000209182015b8281111561532e578282908161531e91906179a4565b5091600101919060010190615308565b5b50905061533c91906153a1565b5090565b50805461534c90616340565b6000825580601f1061535e575061537d565b601f01602090049060005260206000209081019061537c91906153c5565b5b50565b508054600082559060005260206000209081019061539e91906153a1565b50565b5b808211156153c157600081816153b89190615340565b506001016153a2565b5090565b5b808211156153de5760008160009055506001016153c6565b5090565b6000604051905090565b600080fd5b600080fd5b600073ffffffffffffffffffffffffffffffffffffffff82169050919050565b6000615421826153f6565b9050919050565b61543181615416565b811461543c57600080fd5b50565b60008135905061544e81615428565b92915050565b600080fd5b600080fd5b6000601f19601f8301169050919050565b7f4e487b7100000000000000000000000000000000000000000000000000000000600052604160045260246000fd5b6154a78261545e565b810181811067ffffffffffffffff821117156154c6576154c561546f565b5b80604052505050565b60006154d96153e2565b90506154e5828261549e565b919050565b600067ffffffffffffffff8211156155055761550461546f565b5b61550e8261545e565b9050602081019050919050565b82818337600083830152505050565b600061553d615538846154ea565b6154cf565b90508281526020810184848401111561555957615558615459565b5b61556484828561551b565b509392505050565b600082601f83011261558157615580615454565b5b813561559184826020860161552a565b91505092915050565b600080604083850312156155b1576155b06153ec565b5b60006155bf8582860161543f565b925050602083013567ffffffffffffffff8111156155e0576155df6153f1565b5b6155ec8582860161556c565b9150509250929050565b60008115159050919050565b61560b816155f6565b82525050565b600081519050919050565b600082825260208201905092915050565b6000819050602082019050919050565b600081519050919050565b600082825260208201905092915050565b60005b8381101561567757808201518184015260208101905061565c565b60008484015250505050565b600061568e8261563d565b6156988185615648565b93506156a8818560208601615659565b6156b18161545e565b840191505092915050565b6000819050919050565b6156cf816156bc565b82525050565b6156de81615416565b82525050565b60006101208301600083015184820360008601526157028282615683565b9150506020830151848203602086015261571c8282615683565b915050604083015161573160408601826156c6565b50606083015184820360608601526157498282615683565b915050608083015161575e60808601826156d5565b5060a083015184820360a08601526157768282615683565b91505060c083015184820360c08601526157908282615683565b91505060e083015184820360e08601526157aa8282615683565b9150506101008301518482036101008601526157c68282615683565b9150508091505092915050565b60006157df83836156e4565b905092915050565b6000602082019050919050565b60006157ff82615611565b615809818561561c565b93508360208202850161581b8561562d565b8060005b85811015615857578484038952815161583885826157d3565b9450615843836157e7565b925060208a0199505060018101905061581f565b50829750879550505050505092915050565b60006060830160008301516158816000860182615602565b506020830151848203602086015261589982826157f4565b915050604083015184820360408601526158b38282615683565b9150508091505092915050565b600060208201905081810360008301526158da8184615869565b905092915050565b600081519050919050565b600082825260208201905092915050565b6000819050602082019050919050565b600061591a8383615683565b905092915050565b6000602082019050919050565b600061593a826158e2565b61594481856158ed565b935083602082028501615956856158fe565b8060005b858110156159925784840389528151615973858261590e565b945061597e83615922565b925060208a0199505060018101905061595a565b50829750879550505050505092915050565b60006060830160008301516159bc6000860182615602565b50602083015184820360208601526159d4828261592f565b915050604083015184820360408601526159ee8282615683565b9150508091505092915050565b60006020820190508181036000830152615a1581846159a4565b905092915050565b615a26816155f6565b82525050565b6000602082019050615a416000830184615a1d565b92915050565b600060208284031215615a5d57615a5c6153ec565b5b600082013567ffffffffffffffff811115615a7b57615a7a6153f1565b5b615a878482850161556c565b91505092915050565b600081519050919050565b600082825260208201905092915050565b6000819050602082019050919050565b6000615ac883836156d5565b60208301905092915050565b6000602082019050919050565b6000615aec82615a90565b615af68185615a9b565b9350615b0183615aac565b8060005b83811015615b32578151615b198882615abc565b9750615b2483615ad4565b925050600181019050615b05565b5085935050505092915050565b6000606083016000830151615b576000860182615602565b5060208301518482036020860152615b6f8282615ae1565b91505060408301518482036040860152615b898282615683565b9150508091505092915050565b60006020820190508181036000830152615bb08184615b3f565b905092915050565b600080fd5b600080fd5b615bcb816156bc565b8114615bd657600080fd5b50565b600081359050615be881615bc2565b92915050565b60006101208284031215615c0557615c04615bb8565b5b615c106101206154cf565b9050600082013567ffffffffffffffff811115615c3057615c2f615bbd565b5b615c3c8482850161556c565b600083015250602082013567ffffffffffffffff811115615c6057615c5f615bbd565b5b615c6c8482850161556c565b6020830152506040615c8084828501615bd9565b604083015250606082013567ffffffffffffffff811115615ca457615ca3615bbd565b5b615cb08482850161556c565b6060830152506080615cc48482850161543f565b60808301525060a082013567ffffffffffffffff811115615ce857615ce7615bbd565b5b615cf48482850161556c565b60a08301525060c082013567ffffffffffffffff811115615d1857615d17615bbd565b5b615d248482850161556c565b60c08301525060e082013567ffffffffffffffff811115615d4857615d47615bbd565b5b615d548482850161556c565b60e08301525061010082013567ffffffffffffffff811115615d7957615d78615bbd565b5b615d858482850161556c565b6101008301525092915050565b600067ffffffffffffffff821115615dad57615dac61546f565b5b602082029050602081019050919050565b600080fd5b6000615dd6615dd184615d92565b6154cf565b90508083825260208201905060208402830185811115615df957615df8615dbe565b5b835b81811015615e225780615e0e888261543f565b845260208401935050602081019050615dfb565b5050509392505050565b600082601f830112615e4157615e40615454565b5b8135615e51848260208601615dc3565b91505092915050565b600067ffffffffffffffff821115615e7557615e7461546f565b5b602082029050602081019050919050565b6000615e99615e9484615e5a565b6154cf565b90508083825260208201905060208402830185811115615ebc57615ebb615dbe565b5b835b81811015615f0357803567ffffffffffffffff811115615ee157615ee0615454565b5b808601615eee898261556c565b85526020850194505050602081019050615ebe565b5050509392505050565b600082601f830112615f2257615f21615454565b5b8135615f32848260208601615e86565b91505092915050565b60008060008060808587031215615f5557615f546153ec565b5b600085013567ffffffffffffffff811115615f7357615f726153f1565b5b615f7f87828801615bee565b945050602085013567ffffffffffffffff811115615fa057615f9f6153f1565b5b615fac87828801615bee565b935050604085013567ffffffffffffffff811115615fcd57615fcc6153f1565b5b615fd987828801615e2c565b925050606085013567ffffffffffffffff811115615ffa57615ff96153f1565b5b61600687828801615f0d565b91505092959194509250565b61601b81615416565b82525050565b60006020820190506160366000830184616012565b92915050565b60008060408385031215616053576160526153ec565b5b600083013567ffffffffffffffff811115616071576160706153f1565b5b61607d8582860161556c565b925050602061608e8582860161543f565b9150509250929050565b6000806000606084860312156160b1576160b06153ec565b5b60006160bf8682870161543f565b935050602084013567ffffffffffffffff8111156160e0576160df6153f1565b5b6160ec8682870161556c565b925050604084013567ffffffffffffffff81111561610d5761610c6153f1565b5b61611986828701615f0d565b9150509250925092565b600060608301600083015161613b6000860182615602565b50602083015184820360208601526161538282615683565b9150506040830151848203604086015261616d8282615683565b9150508091505092915050565b600060208201905081810360008301526161948184616123565b905092915050565b600080600080608085870312156161b6576161b56153ec565b5b60006161c48782880161543f565b945050602085013567ffffffffffffffff8111156161e5576161e46153f1565b5b6161f18782880161556c565b935050604085013567ffffffffffffffff811115616212576162116153f1565b5b61621e87828801615f0d565b925050606085013567ffffffffffffffff81111561623f5761623e6153f1565b5b61624b87828801615f0d565b91505092959194509250565b6000806000606084860312156162705761626f6153ec565b5b600061627e8682870161543f565b935050602084013567ffffffffffffffff81111561629f5761629e6153f1565b5b6162ab86828701615bee565b925050604084013567ffffffffffffffff8111156162cc576162cb6153f1565b5b6162d88682870161556c565b9150509250925092565b7f4e487b7100000000000000000000000000000000000000000000000000000000600052603260045260246000fd5b7f4e487b7100000000000000000000000000000000000000000000000000000000600052602260045260246000fd5b6000600282049050600182168061635857607f821691505b60208210810361636b5761636a616311565b5b50919050565b600082825260208201905092915050565b60008190508160005260206000209050919050565b600081546163a481616340565b6163ae8186616371565b945060018216600081146163c957600181146163df57616412565b60ff198316865281151560200286019350616412565b6163e885616382565b60005b8381101561640a578154818901526001820191506020810190506163eb565b808801955050505b50505092915050565b600060208201905081810360008301526164358184616397565b905092915050565b616446816155f6565b811461645157600080fd5b50565b6000815190506164638161643d565b92915050565b600061647c616477846154ea565b6154cf565b90508281526020810184848401111561649857616497615459565b5b6164a3848285615659565b509392505050565b600082601f8301126164c0576164bf615454565b5b81516164d0848260208601616469565b91505092915050565b6000606082840312156164ef576164ee615bb8565b5b6164f960606154cf565b9050600061650984828501616454565b600083015250602082015167ffffffffffffffff81111561652d5761652c615bbd565b5b616539848285016164ab565b602083015250604082015167ffffffffffffffff81111561655d5761655c615bbd565b5b616569848285016164ab565b60408301525092915050565b60006020828403121561658b5761658a6153ec565b5b600082015167ffffffffffffffff8111156165a9576165a86153f1565b5b6165b5848285016164d9565b91505092915050565b600081905092915050565b60006165d48261563d565b6165de81856165be565b93506165ee818560208601615659565b80840191505092915050565b600061660682846165c9565b915081905092915050565b50565b60006166216000836165be565b915061662c82616611565b600082019050919050565b600061664282616614565b9150819050919050565b60006166578261563d565b6166618185616371565b9350616671818560208601615659565b61667a8161545e565b840191505092915050565b6000604082019050818103600083015261669f818561664c565b905081810360208301526166b3818461664c565b90509392505050565b6000815190506166cb81615bc2565b92915050565b6000815190506166e081615428565b92915050565b600061012082840312156166fd576166fc615bb8565b5b6167086101206154cf565b9050600082015167ffffffffffffffff81111561672857616727615bbd565b5b616734848285016164ab565b600083015250602082015167ffffffffffffffff81111561675857616757615bbd565b5b616764848285016164ab565b6020830152506040616778848285016166bc565b604083015250606082015167ffffffffffffffff81111561679c5761679b615bbd565b5b6167a8848285016164ab565b60608301525060806167bc848285016166d1565b60808301525060a082015167ffffffffffffffff8111156167e0576167df615bbd565b5b6167ec848285016164ab565b60a08301525060c082015167ffffffffffffffff8111156168105761680f615bbd565b5b61681c848285016164ab565b60c08301525060e082015167ffffffffffffffff8111156168405761683f615bbd565b5b61684c848285016164ab565b60e08301525061010082015167ffffffffffffffff81111561687157616870615bbd565b5b61687d848285016164ab565b6101008301525092915050565b6000606082840312156168a05761689f615bb8565b5b6168aa60606154cf565b905060006168ba84828501616454565b600083015250602082015167ffffffffffffffff8111156168de576168dd615bbd565b5b6168ea848285016166e6565b602083015250604082015167ffffffffffffffff81111561690e5761690d615bbd565b5b61691a848285016164ab565b60408301525092915050565b60006020828403121561693c5761693b6153ec565b5b600082015167ffffffffffffffff81111561695a576169596153f1565b5b6169668482850161688a565b91505092915050565b7f4e487b7100000000000000000000000000000000000000000000000000000000600052601160045260246000fd5b6000819050919050565b60006169b38261699e565b91507fffffffffffffffffffffffffffffffffffffffffffffffffffffffffffffffff82036169e5576169e461696f565b5b600182019050919050565b7f6163746976650000000000000000000000000000000000000000000000000000600082015250565b6000616a266006836165be565b9150616a31826169f0565b600682019050919050565b6000616a4782616a19565b9150819050919050565b60006020820190508181036000830152616a6b818461664c565b905092915050565b6000608082019050616a886000830187616012565b616a956020830186616012565b8181036040830152616aa7818561664c565b90508181036060830152616abb8184616397565b905095945050505050565b600060208284031215616adc57616adb6153ec565b5b6000616aea84828501616454565b91505092915050565b6000604082019050616b086000830185616012565b8181036020830152616b1a818461664c565b90509392505050565b60008154616b3081616340565b616b3a81866165be565b94506001821660008114616b555760018114616b6a57616b9d565b60ff1983168652811515820286019350616b9d565b616b7385616382565b60005b83811015616b9557815481890152600182019150602081019050616b76565b838801955050505b50505092915050565b6000616bb28284616b23565b915081905092915050565b6000610120830160008301518482036000860152616bdb8282615683565b91505060208301518482036020860152616bf58282615683565b9150506040830151616c0a60408601826156c6565b5060608301518482036060860152616c228282615683565b9150506080830151616c3760808601826156d5565b5060a083015184820360a0860152616c4f8282615683565b91505060c083015184820360c0860152616c698282615683565b91505060e083015184820360e0860152616c838282615683565b915050610100830151848203610100860152616c9f8282615683565b9150508091505092915050565b60006040820190508181036000830152616cc68185616bbd565b90508181036020830152616cda8184616bbd565b90509392505050565b60006020601f8301049050919050565b600082821b905092915050565b600060088302616d307fffffffffffffffffffffffffffffffffffffffffffffffffffffffffffffffff82616cf3565b616d3a8683616cf3565b95508019841693508086168417925050509392505050565b6000819050919050565b6000616d77616d72616d6d8461699e565b616d52565b61699e565b9050919050565b6000819050919050565b616d9183616d5c565b616da5616d9d82616d7e565b848454616d00565b825550505050565b600090565b616dba616dad565b616dc5818484616d88565b505050565b5b81811015616de957616dde600082616db2565b600181019050616dcb565b5050565b601f821115616e2e57616dff81616382565b616e0884616ce3565b81016020851015616e17578190505b616e2b616e2385616ce3565b830182616dca565b50505b505050565b600082821c905092915050565b6000616e5160001984600802616e33565b1980831691505092915050565b6000616e6a8383616e40565b9150826002028217905092915050565b616e838261563d565b67ffffffffffffffff811115616e9c57616e9b61546f565b5b616ea68254616340565b616eb1828285616ded565b600060209050601f831160018114616ee45760008415616ed2578287015190505b616edc8582616e5e565b865550616f44565b601f198416616ef286616382565b60005b82811015616f1a57848901518255600182019150602085019450602081019050616ef5565b86831015616f375784890151616f33601f891682616e40565b8355505b6001600288020188555050505b505050505050565b7f2d00000000000000000000000000000000000000000000000000000000000000600082015250565b6000616f82600183616371565b9150616f8d82616f4c565b602082019050919050565b7f6564697400000000000000000000000000000000000000000000000000000000600082015250565b6000616fce600483616371565b9150616fd982616f98565b602082019050919050565b600060a082019050616ff96000830186616012565b818103602083015261700b818561664c565b905061701a6040830184616012565b818103606083015261702b81616f75565b9050818103608083015261703e81616fc1565b9050949350505050565b7f646f776e6c6f6164000000000000000000000000000000000000000000000000600082015250565b600061707e600883616371565b915061708982617048565b602082019050919050565b600060a0820190506170a96000830186616012565b81810360208301526170bb818561664c565b90506170ca6040830184616012565b81810360608301526170db81616f75565b905081810360808301526170ee81617071565b9050949350505050565b600082825260208201905092915050565b6000617114826158e2565b61711e81856170f8565b935083602082028501617130856158fe565b8060005b8581101561716c578484038952815161714d858261590e565b945061715883615922565b925060208a01995050600181019050617134565b50829750879550505050505092915050565b600060208201905081810360008301526171988184617109565b905092915050565b7f757064617465207065726d697373696f6e730000000000000000000000000000600082015250565b60006171d6601283616371565b91506171e1826171a0565b602082019050919050565b600060a0820190506172016000830187616012565b8181036020830152617213818661664c565b90506172226040830185616012565b8181036060830152617234818461664c565b90508181036080830152617247816171c9565b905095945050505050565b7f6564697465640000000000000000000000000000000000000000000000000000600082015250565b60006172886006836165be565b915061729382617252565b600682019050919050565b60006172a98261727b565b9150819050919050565b7f7375636365737320766572696669636174696f6e000000000000000000000000600082015250565b60006172e9601483616371565b91506172f4826172b3565b602082019050919050565b600060a0820190506173146000830186616012565b81810360208301526173268185616397565b90506173356040830184616012565b818103606083015261734681616f75565b90508181036080830152617359816172dc565b9050949350505050565b600061737661737184615e5a565b6154cf565b9050808382526020820190506020840283018581111561739957617398615dbe565b5b835b818110156173e057805167ffffffffffffffff8111156173be576173bd615454565b5b8086016173cb89826164ab565b8552602085019450505060208101905061739b565b5050509392505050565b600082601f8301126173ff576173fe615454565b5b815161740f848260208601617363565b91505092915050565b60006060828403121561742e5761742d615bb8565b5b61743860606154cf565b9050600061744884828501616454565b600083015250602082015167ffffffffffffffff81111561746c5761746b615bbd565b5b617478848285016173ea565b602083015250604082015167ffffffffffffffff81111561749c5761749b615bbd565b5b6174a8848285016164ab565b60408301525092915050565b6000602082840312156174ca576174c96153ec565b5b600082015167ffffffffffffffff8111156174e8576174e76153f1565b5b6174f484828501617418565b91505092915050565b600061750a600083616371565b915061751582616611565b600082019050919050565b60006080820190506175356000830186616012565b8181036020830152617547818561664c565b9050818103604083015261755b8184617109565b9050818103606083015261756e816174fd565b9050949350505050565b600067ffffffffffffffff8211156175935761759261546f565b5b602082029050602081019050919050565b60006175b76175b284617578565b6154cf565b905080838252602082019050602084028301858111156175da576175d9615dbe565b5b835b8181101561762157805167ffffffffffffffff8111156175ff576175fe615454565b5b80860161760c89826166e6565b855260208501945050506020810190506175dc565b5050509392505050565b600082601f8301126176405761763f615454565b5b81516176508482602086016175a4565b91505092915050565b60006060828403121561766f5761766e615bb8565b5b61767960606154cf565b9050600061768984828501616454565b600083015250602082015167ffffffffffffffff8111156176ad576176ac615bbd565b5b6176b98482850161762b565b602083015250604082015167ffffffffffffffff8111156176dd576176dc615bbd565b5b6176e9848285016164ab565b60408301525092915050565b60006020828403121561770b5761770a6153ec565b5b600082015167ffffffffffffffff811115617729576177286153f1565b5b61773584828501617659565b91505092915050565b7f7368617265000000000000000000000000000000000000000000000000000000600082015250565b6000617774600583616371565b915061777f8261773e565b602082019050919050565b600060a08201905061779f6000830187616012565b81810360208301526177b1818661664c565b90506177c06040830185616012565b81810360608301526177d2818461664c565b905081810360808301526177e581617767565b905095945050505050565b7f64656c6574656400000000000000000000000000000000000000000000000000600082015250565b6000617826600783616371565b9150617831826177f0565b602082019050919050565b600060a0820190506178516000830186616012565b8181036020830152617863818561664c565b90506178726040830184616012565b818103606083015261788381616f75565b9050818103608083015261789681617819565b9050949350505050565b600081905092915050565b60008190508160005260206000209050919050565b600081546178cd81616340565b6178d781866178a0565b945060018216600081146178f257600181146179075761793a565b60ff198316865281151582028601935061793a565b617910856178ab565b60005b8381101561793257815481890152600182019150602081019050617913565b838801955050505b50505092915050565b600061794f82846178c0565b915081905092915050565b60006179658261699e565b91506179708361699e565b92508282039050818111156179885761798761696f565b5b92915050565b60008154905061799d81616340565b9050919050565b8181036179b2575050617a8a565b6179bb8261798e565b67ffffffffffffffff8111156179d4576179d361546f565b5b6179de8254616340565b6179e9828285616ded565b6000601f831160018114617a185760008415617a06578287015490505b617a108582616e5e565b865550617a83565b601f198416617a2687616382565b9650617a3186616382565b60005b82811015617a5957848901548255600182019150600185019450602081019050617a34565b86831015617a765784890154617a72601f891682616e40565b8355505b6001600288020188555050505b5050505050505b565b7f4e487b7100000000000000000000000000000000000000000000000000000000600052603160045260246000fd5b7f72656d6f76656420616363657373000000000000000000000000000000000000600082015250565b6000617af1600e83616371565b9150617afc82617abb565b602082019050919050565b600060a082019050617b1c6000830186616012565b8181036020830152617b2e818561664c565b9050617b3d6040830184616012565b8181036060830152617b4e81616f75565b90508181036080830152617b6181617ae4565b9050949350505050565b6000608082019050617b806000830187616012565b8181036020830152617b92818661664c565b90508181036040830152617ba68185617109565b90508181036060830152617bba818461664c565b905095945050505050565b60006020820190508181036000830152617bdf8184616bbd565b905092915050565b7f75706c6f61640000000000000000000000000000000000000000000000000000600082015250565b6000617c1d600683616371565b9150617c2882617be7565b602082019050919050565b600060a082019050617c486000830187616012565b8181036020830152617c5a818661664c565b9050617c696040830185616012565b8181036060830152617c7b818461664c565b90508181036080830152617c8e81617c10565b905095945050505050565b6000617ca6600683616371565b9150617cb1826169f0565b602082019050919050565b60006040820190508181036000830152617cd6818461664c565b90508181036020830152617ce981617c99565b90509291505056fe4d616b65207375726520746865207472616e73616374696f6e20657865637574657220617320746f206265207468652073616d652061732074686520757365722c2074686520757365722068617320746f206265206173736f6369617465642077697468207468652066696c652c20616e64207468652066696c652068617320746f20626520696e2074686520616374697665206f72206564697465642073746174652e536f6d657468696e672077656e742077726f6e67207768696c6520747279696e6720746f2067657420746865207573657273207769746820646f776e6c6f6164207065726d697373696f6e73206f766572207468652066696c652e546865207472616e61736374696f6e2065786563757465722073686f756c64206265207468652073616d6520617320746865207573657220746f20676574207468652066696c65732066726f6d2e546865207472616e73616374696f6e2065786563757465722068617320746f206265206173736f6369617465642077697468207468652066696c652c20616e64207468652066696c652073686f756c6420626520696e20746865206163746976652073746174652ea2646970667358221220ab614c5d583a3c514384cf8356160f3ea1266cd493fbc733af96df074e2d794b64736f6c6343000813003360806040523480156200001157600080fd5b50604051620038a2380380620038a28339818101604052810190620000379190620000e9565b80600260006101000a81548173ffffffffffffffffffffffffffffffffffffffff021916908373ffffffffffffffffffffffffffffffffffffffff160217905550506200011b565b600080fd5b600073ffffffffffffffffffffffffffffffffffffffff82169050919050565b6000620000b18262000084565b9050919050565b620000c381620000a4565b8114620000cf57600080fd5b50565b600081519050620000e381620000b8565b92915050565b6000602082840312156200010257620001016200007f565b5b60006200011284828501620000d2565b91505092915050565b613777806200012b6000396000f3fe608060405234801561001057600080fd5b50600436106100a85760003560e01c806395f0f0bb1161007157806395f0f0bb146101895780639bccd6ad146101a5578063bfddc42f146101d5578063e8d56b8b146101f1578063f880680b1461020d578063fadc54f41461023d576100a8565b8062438ceb146100ad57806347eb6fa7146100dd57806352a9baef1461010d57806374546fdf1461013d578063922243ad14610159575b600080fd5b6100c760048036038101906100c291906125cd565b61026d565b6040516100d49190612707565b60405180910390f35b6100f760048036038101906100f29190612729565b610352565b6040516101049190612941565b60405180910390f35b6101276004803603810190610122919061298f565b610a14565b60405161013491906129fa565b60405180910390f35b610157600480360381019061015291906125cd565b610a9e565b005b610173600480360381019061016e91906125cd565b610b5b565b6040516101809190612b2e565b60405180910390f35b6101a3600480360381019061019e9190612d2a565b610f10565b005b6101bf60048036038101906101ba91906125cd565b61123b565b6040516101cc91906129fa565b60405180910390f35b6101ef60048036038101906101ea9190612da2565b6112df565b005b61020b60048036038101906102069190612deb565b61150e565b005b610227600480360381019061022291906125cd565b61165e565b6040516102349190612707565b60405180910390f35b610257600480360381019061025291906125cd565b6117e5565b6040516102649190612f31565b60405180910390f35b61027561237f565b60405180606001604052806001151581526020016000846040516102999190612f8f565b908152602001604051809103902060070180546102b590612fd5565b80601f01602080910402602001604051908101604052809291908181526020018280546102e190612fd5565b801561032e5780601f106103035761010080835404028352916020019161032e565b820191906000526020600020905b81548152906001019060200180831161031157829003601f168201915b50505050508152602001604051806020016040528060008152508152509050919050565b61035a6123a2565b6000808460405161036b9190612f8f565b9081526020016040518091039020600101805461038790612fd5565b90501180156104555750816040516020016103a29190612f8f565b604051602081830303815290604052805190602001206000846040516103c89190612f8f565b90815260200160405180910390206007016040516020016103e9919061309e565b6040516020818303038152906040528051906020012014806104545750604051602001610415906130db565b604051602081830303815290604052805190602001208260405160200161043c9190612f8f565b60405160208183030381529060405280519060200120145b5b1561091557604051806060016040528060011515815260200160008560405161047e9190612f8f565b9081526020016040518091039020604051806101200160405290816000820180546104a890612fd5565b80601f01602080910402602001604051908101604052809291908181526020018280546104d490612fd5565b80156105215780601f106104f657610100808354040283529160200191610521565b820191906000526020600020905b81548152906001019060200180831161050457829003601f168201915b5050505050815260200160018201805461053a90612fd5565b80601f016020809104026020016040519081016040528092919081815260200182805461056690612fd5565b80156105b35780601f10610588576101008083540402835291602001916105b3565b820191906000526020600020905b81548152906001019060200180831161059657829003601f168201915b50505050508152602001600282015481526020016003820180546105d690612fd5565b80601f016020809104026020016040519081016040528092919081815260200182805461060290612fd5565b801561064f5780601f106106245761010080835404028352916020019161064f565b820191906000526020600020905b81548152906001019060200180831161063257829003601f168201915b505050505081526020016004820160009054906101000a900473ffffffffffffffffffffffffffffffffffffffff1673ffffffffffffffffffffffffffffffffffffffff1673ffffffffffffffffffffffffffffffffffffffff1681526020016005820180546106be90612fd5565b80601f01602080910402602001604051908101604052809291908181526020018280546106ea90612fd5565b80156107375780601f1061070c57610100808354040283529160200191610737565b820191906000526020600020905b81548152906001019060200180831161071a57829003601f168201915b5050505050815260200160068201805461075090612fd5565b80601f016020809104026020016040519081016040528092919081815260200182805461077c90612fd5565b80156107c95780601f1061079e576101008083540402835291602001916107c9565b820191906000526020600020905b8154815290600101906020018083116107ac57829003601f168201915b505050505081526020016007820180546107e290612fd5565b80601f016020809104026020016040519081016040528092919081815260200182805461080e90612fd5565b801561085b5780601f106108305761010080835404028352916020019161085b565b820191906000526020600020905b81548152906001019060200180831161083e57829003601f168201915b5050505050815260200160088201805461087490612fd5565b80601f01602080910402602001604051908101604052809291908181526020018280546108a090612fd5565b80156108ed5780601f106108c2576101008083540402835291602001916108ed565b820191906000526020600020905b8154815290600101906020018083116108d057829003601f168201915b5050505050815250508152602001604051806020016040528060008152508152509050610a0e565b604051806060016040528060001515815260200160405180610120016040528060405180602001604052806000815250815260200160405180602001604052806000815250815260200160008152602001604051806020016040528060008152508152602001600073ffffffffffffffffffffffffffffffffffffffff16815260200160405180602001604052806000815250815260200160405180602001604052806000815250815260200160405180602001604052806000815250815260200160405180602001604052806000815250815250815260200160405180608001604052806041815260200161367a6041913981525090505b92915050565b60008273ffffffffffffffffffffffffffffffffffffffff16600083604051610a3d9190612f8f565b908152602001604051809103902060040160009054906101000a900473ffffffffffffffffffffffffffffffffffffffff1673ffffffffffffffffffffffffffffffffffffffff1603610a935760019050610a98565b600090505b92915050565b600360009054906101000a900473ffffffffffffffffffffffffffffffffffffffff1673ffffffffffffffffffffffffffffffffffffffff163373ffffffffffffffffffffffffffffffffffffffff1603610b58576040518060400160405280600881526020017f6465616374697665000000000000000000000000000000000000000000000000815250600082604051610b399190612f8f565b90815260200160405180910390206007019081610b569190613291565b505b50565b610b636123cb565b600360009054906101000a900473ffffffffffffffffffffffffffffffffffffffff1673ffffffffffffffffffffffffffffffffffffffff163373ffffffffffffffffffffffffffffffffffffffff1603610e8457600060018054905067ffffffffffffffff811115610bd957610bd86124a2565b5b604051908082528060200260200182016040528015610c0c57816020015b6060815260200190600190039081610bf75790505b5090506000805b600180549050811015610e4a5784604051602001610c319190612f8f565b60405160208183030381529060405280519060200120600060018381548110610c5d57610c5c613363565b5b90600052602060002001604051610c74919061309e565b9081526020016040518091039020600101604051602001610c95919061309e565b60405160208183030381529060405280519060200120148015610d3e5750604051602001610cc2906133de565b60405160208183030381529060405280519060200120600060018381548110610cee57610ced613363565b5b90600052602060002001604051610d05919061309e565b9081526020016040518091039020600701604051602001610d26919061309e565b60405160208183030381529060405280519060200120145b15610e3757600060018281548110610d5957610d58613363565b5b90600052602060002001604051610d70919061309e565b90815260200160405180910390206000018054610d8c90612fd5565b80601f0160208091040260200160405190810160405280929190818152602001828054610db890612fd5565b8015610e055780601f10610dda57610100808354040283529160200191610e05565b820191906000526020600020905b815481529060010190602001808311610de857829003601f168201915b5050505050838381518110610e1d57610e1c613363565b5b60200260200101819052508180610e3390613422565b9250505b8080610e4290613422565b915050610c13565b5080825260405180606001604052806001151581526020018381526020016040518060200160405280600081525081525092505050610f0b565b6040518060600160405280600015158152602001600067ffffffffffffffff811115610eb357610eb26124a2565b5b604051908082528060200260200182016040528015610ee657816020015b6060815260200190600190039081610ed15790505b5081526020016040518060800160405280604381526020016136ff6043913981525090505b919050565b600360009054906101000a900473ffffffffffffffffffffffffffffffffffffffff1673ffffffffffffffffffffffffffffffffffffffff163373ffffffffffffffffffffffffffffffffffffffff16148015610fa05750816080015173ffffffffffffffffffffffffffffffffffffffff16826080015173ffffffffffffffffffffffffffffffffffffffff16145b8015610fdd5750600073ffffffffffffffffffffffffffffffffffffffff16826080015173ffffffffffffffffffffffffffffffffffffffff1614155b15611237576040518060400160405280600681526020017f65646974656400000000000000000000000000000000000000000000000000008152506000836000015160405161102c9190612f8f565b908152602001604051809103902060070190816110499190613291565b508160800151816080019073ffffffffffffffffffffffffffffffffffffffff16908173ffffffffffffffffffffffffffffffffffffffff168152505081600001518160600181905250600182604001516110a4919061346a565b8160400181815250506040518060400160405280600681526020017f61637469766500000000000000000000000000000000000000000000000000008152508160e0018190525080600082600001516040516111009190612f8f565b908152602001604051809103902060008201518160000190816111239190613291565b5060208201518160010190816111399190613291565b506040820151816002015560608201518160030190816111599190613291565b5060808201518160040160006101000a81548173ffffffffffffffffffffffffffffffffffffffff021916908373ffffffffffffffffffffffffffffffffffffffff16021790555060a08201518160050190816111b69190613291565b5060c08201518160060190816111cc9190613291565b5060e08201518160070190816111e29190613291565b506101008201518160080190816111f99190613291565b50905050600181600001519080600181540180825580915050600190039060005260206000200160009091909190915090816112359190613291565b505b5050565b60008060008360405161124e9190612f8f565b9081526020016040518091039020600001805461126a90612fd5565b9050141580156112c75750600360009054906101000a900473ffffffffffffffffffffffffffffffffffffffff1673ffffffffffffffffffffffffffffffffffffffff163373ffffffffffffffffffffffffffffffffffffffff16145b156112d557600190506112da565b600090505b919050565b600360009054906101000a900473ffffffffffffffffffffffffffffffffffffffff1673ffffffffffffffffffffffffffffffffffffffff163373ffffffffffffffffffffffffffffffffffffffff160361150b5761133d8161225a565b1561150a576040518060400160405280600681526020017f61637469766500000000000000000000000000000000000000000000000000008152508160e001819052506040518060400160405280600181526020017f3000000000000000000000000000000000000000000000000000000000000000815250816060018190525080600082600001516040516113d39190612f8f565b908152602001604051809103902060008201518160000190816113f69190613291565b50602082015181600101908161140c9190613291565b5060408201518160020155606082015181600301908161142c9190613291565b5060808201518160040160006101000a81548173ffffffffffffffffffffffffffffffffffffffff021916908373ffffffffffffffffffffffffffffffffffffffff16021790555060a08201518160050190816114899190613291565b5060c082015181600601908161149f9190613291565b5060e08201518160070190816114b59190613291565b506101008201518160080190816114cc9190613291565b50905050600181600001519080600181540180825580915050600190039060005260206000200160009091909190915090816115089190613291565b505b5b50565b600073ffffffffffffffffffffffffffffffffffffffff168173ffffffffffffffffffffffffffffffffffffffff16141580156115995750600073ffffffffffffffffffffffffffffffffffffffff16600360009054906101000a900473ffffffffffffffffffffffffffffffffffffffff1673ffffffffffffffffffffffffffffffffffffffff16145b80156116145750600360009054906101000a900473ffffffffffffffffffffffffffffffffffffffff1673ffffffffffffffffffffffffffffffffffffffff16600360009054906101000a900473ffffffffffffffffffffffffffffffffffffffff1673ffffffffffffffffffffffffffffffffffffffff16145b1561165b5780600360006101000a81548173ffffffffffffffffffffffffffffffffffffffff021916908373ffffffffffffffffffffffffffffffffffffffff1602179055505b50565b61166661237f565b600360009054906101000a900473ffffffffffffffffffffffffffffffffffffffff1673ffffffffffffffffffffffffffffffffffffffff163373ffffffffffffffffffffffffffffffffffffffff16036117985760405180606001604052806001151581526020016000846040516116df9190612f8f565b908152602001604051809103902060080180546116fb90612fd5565b80601f016020809104026020016040519081016040528092919081815260200182805461172790612fd5565b80156117745780601f1061174957610100808354040283529160200191611774565b820191906000526020600020905b81548152906001019060200180831161175757829003601f168201915b505050505081526020016040518060200160405280600081525081525090506117e0565b60405180606001604052806000151581526020016040518060200160405280600081525081526020016040518060800160405280604481526020016136bb6044913981525090505b919050565b6117ed6123ee565b600060018054905067ffffffffffffffff81111561180e5761180d6124a2565b5b60405190808252806020026020018201604052801561184757816020015b611834612411565b81526020019060019003908161182c5790505b5090506000808460405161185b9190612f8f565b90815260200160405180910390206040518061012001604052908160008201805461188590612fd5565b80601f01602080910402602001604051908101604052809291908181526020018280546118b190612fd5565b80156118fe5780601f106118d3576101008083540402835291602001916118fe565b820191906000526020600020905b8154815290600101906020018083116118e157829003601f168201915b5050505050815260200160018201805461191790612fd5565b80601f016020809104026020016040519081016040528092919081815260200182805461194390612fd5565b80156119905780601f1061196557610100808354040283529160200191611990565b820191906000526020600020905b81548152906001019060200180831161197357829003601f168201915b50505050508152602001600282015481526020016003820180546119b390612fd5565b80601f01602080910402602001604051908101604052809291908181526020018280546119df90612fd5565b8015611a2c5780601f10611a0157610100808354040283529160200191611a2c565b820191906000526020600020905b815481529060010190602001808311611a0f57829003601f168201915b505050505081526020016004820160009054906101000a900473ffffffffffffffffffffffffffffffffffffffff1673ffffffffffffffffffffffffffffffffffffffff1673ffffffffffffffffffffffffffffffffffffffff168152602001600582018054611a9b90612fd5565b80601f0160208091040260200160405190810160405280929190818152602001828054611ac790612fd5565b8015611b145780601f10611ae957610100808354040283529160200191611b14565b820191906000526020600020905b815481529060010190602001808311611af757829003601f168201915b50505050508152602001600682018054611b2d90612fd5565b80601f0160208091040260200160405190810160405280929190818152602001828054611b5990612fd5565b8015611ba65780601f10611b7b57610100808354040283529160200191611ba6565b820191906000526020600020905b815481529060010190602001808311611b8957829003601f168201915b50505050508152602001600782018054611bbf90612fd5565b80601f0160208091040260200160405190810160405280929190818152602001828054611beb90612fd5565b8015611c385780601f10611c0d57610100808354040283529160200191611c38565b820191906000526020600020905b815481529060010190602001808311611c1b57829003601f168201915b50505050508152602001600882018054611c5190612fd5565b80601f0160208091040260200160405190810160405280929190818152602001828054611c7d90612fd5565b8015611cca5780601f10611c9f57610100808354040283529160200191611cca565b820191906000526020600020905b815481529060010190602001808311611cad57829003601f168201915b505050505081525050905060005b604051602001611ce7906134fa565b604051602081830303815290604052805190602001208260600151604051602001611d129190612f8f565b60405160208183030381529060405280519060200120146121f35781838281518110611d4157611d40613363565b5b60200260200101819052508080611d5790613422565b915050600082606001519050600081604051611d739190612f8f565b908152602001604051809103902060405180610120016040529081600082018054611d9d90612fd5565b80601f0160208091040260200160405190810160405280929190818152602001828054611dc990612fd5565b8015611e165780601f10611deb57610100808354040283529160200191611e16565b820191906000526020600020905b815481529060010190602001808311611df957829003601f168201915b50505050508152602001600182018054611e2f90612fd5565b80601f0160208091040260200160405190810160405280929190818152602001828054611e5b90612fd5565b8015611ea85780601f10611e7d57610100808354040283529160200191611ea8565b820191906000526020600020905b815481529060010190602001808311611e8b57829003601f168201915b5050505050815260200160028201548152602001600382018054611ecb90612fd5565b80601f0160208091040260200160405190810160405280929190818152602001828054611ef790612fd5565b8015611f445780601f10611f1957610100808354040283529160200191611f44565b820191906000526020600020905b815481529060010190602001808311611f2757829003601f168201915b505050505081526020016004820160009054906101000a900473ffffffffffffffffffffffffffffffffffffffff1673ffffffffffffffffffffffffffffffffffffffff1673ffffffffffffffffffffffffffffffffffffffff168152602001600582018054611fb390612fd5565b80601f0160208091040260200160405190810160405280929190818152602001828054611fdf90612fd5565b801561202c5780601f106120015761010080835404028352916020019161202c565b820191906000526020600020905b81548152906001019060200180831161200f57829003601f168201915b5050505050815260200160068201805461204590612fd5565b80601f016020809104026020016040519081016040528092919081815260200182805461207190612fd5565b80156120be5780601f10612093576101008083540402835291602001916120be565b820191906000526020600020905b8154815290600101906020018083116120a157829003601f168201915b505050505081526020016007820180546120d790612fd5565b80601f016020809104026020016040519081016040528092919081815260200182805461210390612fd5565b80156121505780601f1061212557610100808354040283529160200191612150565b820191906000526020600020905b81548152906001019060200180831161213357829003601f168201915b5050505050815260200160088201805461216990612fd5565b80601f016020809104026020016040519081016040528092919081815260200182805461219590612fd5565b80156121e25780601f106121b7576101008083540402835291602001916121e2565b820191906000526020600020905b8154815290600101906020018083116121c557829003601f168201915b505050505081525050925050611cd8565b8183828151811061220757612206613363565b5b6020026020010181905250808061221d90613422565b9150508083526040518060600160405280600115158152602001848152602001604051806020016040528060008152508152509350505050919050565b6000612269826000015161123b565b15801561230e5750600260009054906101000a900473ffffffffffffffffffffffffffffffffffffffff1673ffffffffffffffffffffffffffffffffffffffff16634294a5ad836040518263ffffffff1660e01b81526004016122cc91906135fe565b602060405180830381865afa1580156122e9573d6000803e3d6000fd5b505050506040513d601f19601f8201168201806040525081019061230d919061364c565b5b80156123675750600360009054906101000a900473ffffffffffffffffffffffffffffffffffffffff1673ffffffffffffffffffffffffffffffffffffffff163373ffffffffffffffffffffffffffffffffffffffff16145b15612375576001905061237a565b600090505b919050565b604051806060016040528060001515815260200160608152602001606081525090565b60405180606001604052806000151581526020016123be612411565b8152602001606081525090565b604051806060016040528060001515815260200160608152602001606081525090565b604051806060016040528060001515815260200160608152602001606081525090565b60405180610120016040528060608152602001606081526020016000815260200160608152602001600073ffffffffffffffffffffffffffffffffffffffff168152602001606081526020016060815260200160608152602001606081525090565b6000604051905090565b600080fd5b600080fd5b600080fd5b600080fd5b6000601f19601f8301169050919050565b7f4e487b7100000000000000000000000000000000000000000000000000000000600052604160045260246000fd5b6124da82612491565b810181811067ffffffffffffffff821117156124f9576124f86124a2565b5b80604052505050565b600061250c612473565b905061251882826124d1565b919050565b600067ffffffffffffffff821115612538576125376124a2565b5b61254182612491565b9050602081019050919050565b82818337600083830152505050565b600061257061256b8461251d565b612502565b90508281526020810184848401111561258c5761258b61248c565b5b61259784828561254e565b509392505050565b600082601f8301126125b4576125b3612487565b5b81356125c484826020860161255d565b91505092915050565b6000602082840312156125e3576125e261247d565b5b600082013567ffffffffffffffff81111561260157612600612482565b5b61260d8482850161259f565b91505092915050565b60008115159050919050565b61262b81612616565b82525050565b600081519050919050565b600082825260208201905092915050565b60005b8381101561266b578082015181840152602081019050612650565b60008484015250505050565b600061268282612631565b61268c818561263c565b935061269c81856020860161264d565b6126a581612491565b840191505092915050565b60006060830160008301516126c86000860182612622565b50602083015184820360208601526126e08282612677565b915050604083015184820360408601526126fa8282612677565b9150508091505092915050565b6000602082019050818103600083015261272181846126b0565b905092915050565b600080604083850312156127405761273f61247d565b5b600083013567ffffffffffffffff81111561275e5761275d612482565b5b61276a8582860161259f565b925050602083013567ffffffffffffffff81111561278b5761278a612482565b5b6127978582860161259f565b9150509250929050565b6000819050919050565b6127b4816127a1565b82525050565b600073ffffffffffffffffffffffffffffffffffffffff82169050919050565b60006127e5826127ba565b9050919050565b6127f5816127da565b82525050565b60006101208301600083015184820360008601526128198282612677565b915050602083015184820360208601526128338282612677565b915050604083015161284860408601826127ab565b50606083015184820360608601526128608282612677565b915050608083015161287560808601826127ec565b5060a083015184820360a086015261288d8282612677565b91505060c083015184820360c08601526128a78282612677565b91505060e083015184820360e08601526128c18282612677565b9150506101008301518482036101008601526128dd8282612677565b9150508091505092915050565b60006060830160008301516129026000860182612622565b506020830151848203602086015261291a82826127fb565b915050604083015184820360408601526129348282612677565b9150508091505092915050565b6000602082019050818103600083015261295b81846128ea565b905092915050565b61296c816127da565b811461297757600080fd5b50565b60008135905061298981612963565b92915050565b600080604083850312156129a6576129a561247d565b5b60006129b48582860161297a565b925050602083013567ffffffffffffffff8111156129d5576129d4612482565b5b6129e18582860161259f565b9150509250929050565b6129f481612616565b82525050565b6000602082019050612a0f60008301846129eb565b92915050565b600081519050919050565b600082825260208201905092915050565b6000819050602082019050919050565b6000612a4d8383612677565b905092915050565b6000602082019050919050565b6000612a6d82612a15565b612a778185612a20565b935083602082028501612a8985612a31565b8060005b85811015612ac55784840389528151612aa68582612a41565b9450612ab183612a55565b925060208a01995050600181019050612a8d565b50829750879550505050505092915050565b6000606083016000830151612aef6000860182612622565b5060208301518482036020860152612b078282612a62565b91505060408301518482036040860152612b218282612677565b9150508091505092915050565b60006020820190508181036000830152612b488184612ad7565b905092915050565b600080fd5b600080fd5b612b63816127a1565b8114612b6e57600080fd5b50565b600081359050612b8081612b5a565b92915050565b60006101208284031215612b9d57612b9c612b50565b5b612ba8610120612502565b9050600082013567ffffffffffffffff811115612bc857612bc7612b55565b5b612bd48482850161259f565b600083015250602082013567ffffffffffffffff811115612bf857612bf7612b55565b5b612c048482850161259f565b6020830152506040612c1884828501612b71565b604083015250606082013567ffffffffffffffff811115612c3c57612c3b612b55565b5b612c488482850161259f565b6060830152506080612c5c8482850161297a565b60808301525060a082013567ffffffffffffffff811115612c8057612c7f612b55565b5b612c8c8482850161259f565b60a08301525060c082013567ffffffffffffffff811115612cb057612caf612b55565b5b612cbc8482850161259f565b60c08301525060e082013567ffffffffffffffff811115612ce057612cdf612b55565b5b612cec8482850161259f565b60e08301525061010082013567ffffffffffffffff811115612d1157612d10612b55565b5b612d1d8482850161259f565b6101008301525092915050565b60008060408385031215612d4157612d4061247d565b5b600083013567ffffffffffffffff811115612d5f57612d5e612482565b5b612d6b85828601612b86565b925050602083013567ffffffffffffffff811115612d8c57612d8b612482565b5b612d9885828601612b86565b9150509250929050565b600060208284031215612db857612db761247d565b5b600082013567ffffffffffffffff811115612dd657612dd5612482565b5b612de284828501612b86565b91505092915050565b600060208284031215612e0157612e0061247d565b5b6000612e0f8482850161297a565b91505092915050565b600081519050919050565b600082825260208201905092915050565b6000819050602082019050919050565b6000612e5083836127fb565b905092915050565b6000602082019050919050565b6000612e7082612e18565b612e7a8185612e23565b935083602082028501612e8c85612e34565b8060005b85811015612ec85784840389528151612ea98582612e44565b9450612eb483612e58565b925060208a01995050600181019050612e90565b50829750879550505050505092915050565b6000606083016000830151612ef26000860182612622565b5060208301518482036020860152612f0a8282612e65565b91505060408301518482036040860152612f248282612677565b9150508091505092915050565b60006020820190508181036000830152612f4b8184612eda565b905092915050565b600081905092915050565b6000612f6982612631565b612f738185612f53565b9350612f8381856020860161264d565b80840191505092915050565b6000612f9b8284612f5e565b915081905092915050565b7f4e487b7100000000000000000000000000000000000000000000000000000000600052602260045260246000fd5b60006002820490506001821680612fed57607f821691505b60208210810361300057612fff612fa6565b5b50919050565b60008190508160005260206000209050919050565b6000815461302881612fd5565b6130328186612f53565b9450600182166000811461304d576001811461306257613095565b60ff1983168652811515820286019350613095565b61306b85613006565b60005b8381101561308d5781548189015260018201915060208101905061306e565b838801955050505b50505092915050565b60006130aa828461301b565b915081905092915050565b50565b60006130c5600083612f53565b91506130d0826130b5565b600082019050919050565b60006130e6826130b8565b9150819050919050565b60006020601f8301049050919050565b600082821b905092915050565b60006008830261313d7fffffffffffffffffffffffffffffffffffffffffffffffffffffffffffffffff82613100565b6131478683613100565b95508019841693508086168417925050509392505050565b6000819050919050565b6000819050919050565b600061318e6131896131848461315f565b613169565b61315f565b9050919050565b6000819050919050565b6131a883613173565b6131bc6131b482613195565b84845461310d565b825550505050565b600090565b6131d16131c4565b6131dc81848461319f565b505050565b5b81811015613200576131f56000826131c9565b6001810190506131e2565b5050565b601f8211156132455761321681613006565b61321f846130f0565b8101602085101561322e578190505b61324261323a856130f0565b8301826131e1565b50505b505050565b600082821c905092915050565b60006132686000198460080261324a565b1980831691505092915050565b60006132818383613257565b9150826002028217905092915050565b61329a82612631565b67ffffffffffffffff8111156132b3576132b26124a2565b5b6132bd8254612fd5565b6132c8828285613204565b600060209050601f8311600181146132fb57600084156132e9578287015190505b6132f38582613275565b86555061335b565b601f19841661330986613006565b60005b828110156133315784890151825560018201915060208501945060208101905061330c565b8683101561334e578489015161334a601f891682613257565b8355505b6001600288020188555050505b505050505050565b7f4e487b7100000000000000000000000000000000000000000000000000000000600052603260045260246000fd5b7f6163746976650000000000000000000000000000000000000000000000000000600082015250565b60006133c8600683612f53565b91506133d382613392565b600682019050919050565b60006133e9826133bb565b9150819050919050565b7f4e487b7100000000000000000000000000000000000000000000000000000000600052601160045260246000fd5b600061342d8261315f565b91507fffffffffffffffffffffffffffffffffffffffffffffffffffffffffffffffff820361345f5761345e6133f3565b5b600182019050919050565b6000613475826127a1565b9150613480836127a1565b9250828201905082811215600083121683821260008412151617156134a8576134a76133f3565b5b92915050565b7f3000000000000000000000000000000000000000000000000000000000000000600082015250565b60006134e4600183612f53565b91506134ef826134ae565b600182019050919050565b6000613505826134d7565b9150819050919050565b600061012083016000830151848203600086015261352d8282612677565b915050602083015184820360208601526135478282612677565b915050604083015161355c60408601826127ab565b50606083015184820360608601526135748282612677565b915050608083015161358960808601826127ec565b5060a083015184820360a08601526135a18282612677565b91505060c083015184820360c08601526135bb8282612677565b91505060e083015184820360e08601526135d58282612677565b9150506101008301518482036101008601526135f18282612677565b9150508091505092915050565b60006020820190508181036000830152613618818461350f565b905092915050565b61362981612616565b811461363457600080fd5b50565b60008151905061364681613620565b92915050565b6000602082840312156136625761366161247d565b5b600061367084828501613637565b9150509291505056fe54687265206973206e6f2066696c652c20696e2074686520676976656e2073746174652c2074686174206861732074686520676976656e2049504653204349442e546865207472616e73616374696f6e2065786563757465722063616e206f6e6c792062652074686520416363657373436f6e74726f6c2e736f6c20636f6e74726163742e4f6e6c792074686520416363657373436f6e74726f6c2e736f6c20636f6e74726163742069732061626c6520746f20657865637574652074686973206d6574686f642ea2646970667358221220ca82d628476e7235347db5e0ce5ea10de122784d0ce5b5049d05628bc1882fe364736f6c6343000813003360806040523480156200001157600080fd5b5060405162002031380380620020318339818101604052810190620000379190620000e9565b80600360006101000a81548173ffffffffffffffffffffffffffffffffffffffff021916908373ffffffffffffffffffffffffffffffffffffffff160217905550506200011b565b600080fd5b600073ffffffffffffffffffffffffffffffffffffffff82169050919050565b6000620000b18262000084565b9050919050565b620000c381620000a4565b8114620000cf57600080fd5b50565b600081519050620000e381620000b8565b92915050565b6000602082840312156200010257620001016200007f565b5b60006200011284828501620000d2565b91505092915050565b611f06806200012b6000396000f3fe608060405234801561001057600080fd5b50600436106100885760003560e01c8063a240e4261161005b578063a240e42614610139578063b0c22a5614610169578063eeb9ab1814610199578063f14ab0e0146101c957610088565b806367156cf11461008d5780636f77926b146100bd57806375e9493f146100ed578063857cdbb814610109575b600080fd5b6100a760048036038101906100a29190611219565b6101f9565b6040516100b49190611348565b60405180910390f35b6100d760048036038101906100d29190611219565b6103e0565b6040516100e49190611441565b60405180910390f35b6101076004803603810190610102919061166e565b6107db565b005b610123600480360381019061011e9190611219565b610b0a565b6040516101309190611348565b60405180910390f35b610153600480360381019061014e9190611219565b610cf1565b60405161016091906116c6565b60405180910390f35b610183600480360381019061017e91906116e1565b610d9a565b60405161019091906116c6565b60405180910390f35b6101b360048036038101906101ae91906116e1565b610dcf565b6040516101c0919061177a565b60405180910390f35b6101e360048036038101906101de919061179c565b610eed565b6040516101f091906116c6565b60405180910390f35b6102016110e4565b600073ffffffffffffffffffffffffffffffffffffffff166000808473ffffffffffffffffffffffffffffffffffffffff1673ffffffffffffffffffffffffffffffffffffffff16815260200190815260200160002060000160009054906101000a900473ffffffffffffffffffffffffffffffffffffffff1673ffffffffffffffffffffffffffffffffffffffff16146103935760405180606001604052806001151581526020016000808573ffffffffffffffffffffffffffffffffffffffff1673ffffffffffffffffffffffffffffffffffffffff16815260200190815260200160002060010180546102f690611827565b80601f016020809104026020016040519081016040528092919081815260200182805461032290611827565b801561036f5780601f106103445761010080835404028352916020019161036f565b820191906000526020600020905b81548152906001019060200180831161035257829003601f168201915b505050505081526020016040518060200160405280600081525081525090506103db565b6040518060600160405280600015158152602001604051806020016040528060008152508152602001604051806060016040528060288152602001611e806028913981525090505b919050565b6103e8611107565b3373ffffffffffffffffffffffffffffffffffffffff168273ffffffffffffffffffffffffffffffffffffffff160361073957600073ffffffffffffffffffffffffffffffffffffffff166000808473ffffffffffffffffffffffffffffffffffffffff1673ffffffffffffffffffffffffffffffffffffffff16815260200190815260200160002060000160009054906101000a900473ffffffffffffffffffffffffffffffffffffffff1673ffffffffffffffffffffffffffffffffffffffff16146107385760405180606001604052806001151581526020016000808573ffffffffffffffffffffffffffffffffffffffff1673ffffffffffffffffffffffffffffffffffffffff1681526020019081526020016000206040518060800160405290816000820160009054906101000a900473ffffffffffffffffffffffffffffffffffffffff1673ffffffffffffffffffffffffffffffffffffffff1673ffffffffffffffffffffffffffffffffffffffff16815260200160018201805461057390611827565b80601f016020809104026020016040519081016040528092919081815260200182805461059f90611827565b80156105ec5780601f106105c1576101008083540402835291602001916105ec565b820191906000526020600020905b8154815290600101906020018083116105cf57829003601f168201915b5050505050815260200160028201805461060590611827565b80601f016020809104026020016040519081016040528092919081815260200182805461063190611827565b801561067e5780601f106106535761010080835404028352916020019161067e565b820191906000526020600020905b81548152906001019060200180831161066157829003601f168201915b5050505050815260200160038201805461069790611827565b80601f01602080910402602001604051908101604052809291908181526020018280546106c390611827565b80156107105780601f106106e557610100808354040283529160200191610710565b820191906000526020600020905b8154815290600101906020018083116106f357829003601f168201915b50505050508152505081526020016040518060200160405280600081525081525090506107d6565b5b60405180606001604052806000151581526020016040518060800160405280600073ffffffffffffffffffffffffffffffffffffffff1681526020016040518060200160405280600081525081526020016040518060200160405280600081525081526020016040518060200160405280600081525081525081526020016040518060a0016040528060798152602001611ddf6079913981525090505b919050565b3373ffffffffffffffffffffffffffffffffffffffff16816000015173ffffffffffffffffffffffffffffffffffffffff1603610b075761081b81610fca565b15610b06576040518060800160405280826000015173ffffffffffffffffffffffffffffffffffffffff168152602001600360009054906101000a900473ffffffffffffffffffffffffffffffffffffffff1673ffffffffffffffffffffffffffffffffffffffff16639416b42384602001516040518263ffffffff1660e01b81526004016108aa91906118a2565b600060405180830381865afa1580156108c7573d6000803e3d6000fd5b505050506040513d6000823e3d601f19601f820116820180604052508101906108f09190611934565b8152602001826040015181526020018260600151815250600080836000015173ffffffffffffffffffffffffffffffffffffffff1673ffffffffffffffffffffffffffffffffffffffff16815260200190815260200160002060008201518160000160006101000a81548173ffffffffffffffffffffffffffffffffffffffff021916908373ffffffffffffffffffffffffffffffffffffffff16021790555060208201518160010190816109a59190611b33565b5060408201518160020190816109bb9190611b33565b5060608201518160030190816109d19190611b33565b509050506040518060800160405280826000015173ffffffffffffffffffffffffffffffffffffffff1681526020018260200151815260200182604001518152602001826060015181525060018260200151604051610a309190611c41565b908152602001604051809103902060008201518160000160006101000a81548173ffffffffffffffffffffffffffffffffffffffff021916908373ffffffffffffffffffffffffffffffffffffffff1602179055506020820151816001019081610a9a9190611b33565b506040820151816002019081610ab09190611b33565b506060820151816003019081610ac69190611b33565b50905050600160028260200151604051610ae09190611c41565b908152602001604051809103902060006101000a81548160ff0219169083151502179055505b5b50565b610b126110e4565b600073ffffffffffffffffffffffffffffffffffffffff166000808473ffffffffffffffffffffffffffffffffffffffff1673ffffffffffffffffffffffffffffffffffffffff16815260200190815260200160002060000160009054906101000a900473ffffffffffffffffffffffffffffffffffffffff1673ffffffffffffffffffffffffffffffffffffffff1614610ca45760405180606001604052806001151581526020016000808573ffffffffffffffffffffffffffffffffffffffff1673ffffffffffffffffffffffffffffffffffffffff1681526020019081526020016000206003018054610c0790611827565b80601f0160208091040260200160405190810160405280929190818152602001828054610c3390611827565b8015610c805780601f10610c5557610100808354040283529160200191610c80565b820191906000526020600020905b815481529060010190602001808311610c6357829003601f168201915b50505050508152602001604051806020016040528060008152508152509050610cec565b6040518060600160405280600015158152602001604051806020016040528060008152508152602001604051806060016040528060288152602001611e586028913981525090505b919050565b60008073ffffffffffffffffffffffffffffffffffffffff166000808473ffffffffffffffffffffffffffffffffffffffff1673ffffffffffffffffffffffffffffffffffffffff16815260200190815260200160002060000160009054906101000a900473ffffffffffffffffffffffffffffffffffffffff1673ffffffffffffffffffffffffffffffffffffffff1614610d905760019050610d95565b600090505b919050565b6000600282604051610dac9190611c41565b908152602001604051809103902060009054906101000a900460ff169050919050565b610dd7611130565b6000600183604051610de99190611c41565b90815260200160405180910390206001018054610e0590611827565b90501115610e98576040518060600160405280600115158152602001600184604051610e319190611c41565b908152602001604051809103902060000160009054906101000a900473ffffffffffffffffffffffffffffffffffffffff1673ffffffffffffffffffffffffffffffffffffffff168152602001604051806020016040528060008152508152509050610ee8565b6040518060600160405280600015158152602001600073ffffffffffffffffffffffffffffffffffffffff168152602001604051806060016040528060298152602001611ea86029913981525090505b919050565b60003373ffffffffffffffffffffffffffffffffffffffff168273ffffffffffffffffffffffffffffffffffffffff1603610fbf5782604051602001610f339190611c41565b604051602081830303815290604052805190602001206000808473ffffffffffffffffffffffffffffffffffffffff1673ffffffffffffffffffffffffffffffffffffffff168152602001908152602001600020600201604051602001610f9a9190611cdb565b6040516020818303038152906040528051906020012003610fbe5760019050610fc4565b5b600090505b92915050565b60003373ffffffffffffffffffffffffffffffffffffffff16826000015173ffffffffffffffffffffffffffffffffffffffff16036110da576110108260000151610cf1565b15801561102757506110258260200151610d9a565b155b80156110cb5750600360009054906101000a900473ffffffffffffffffffffffffffffffffffffffff1673ffffffffffffffffffffffffffffffffffffffff1663e779f450836040518263ffffffff1660e01b81526004016110899190611d63565b602060405180830381865afa1580156110a6573d6000803e3d6000fd5b505050506040513d601f19601f820116820180604052508101906110ca9190611db1565b5b156110d957600190506110df565b5b600090505b919050565b604051806060016040528060001515815260200160608152602001606081525090565b6040518060600160405280600015158152602001611123611169565b8152602001606081525090565b6040518060600160405280600015158152602001600073ffffffffffffffffffffffffffffffffffffffff168152602001606081525090565b6040518060800160405280600073ffffffffffffffffffffffffffffffffffffffff1681526020016060815260200160608152602001606081525090565b6000604051905090565b600080fd5b600080fd5b600073ffffffffffffffffffffffffffffffffffffffff82169050919050565b60006111e6826111bb565b9050919050565b6111f6816111db565b811461120157600080fd5b50565b600081359050611213816111ed565b92915050565b60006020828403121561122f5761122e6111b1565b5b600061123d84828501611204565b91505092915050565b60008115159050919050565b61125b81611246565b82525050565b600081519050919050565b600082825260208201905092915050565b60005b8381101561129b578082015181840152602081019050611280565b60008484015250505050565b6000601f19601f8301169050919050565b60006112c382611261565b6112cd818561126c565b93506112dd81856020860161127d565b6112e6816112a7565b840191505092915050565b60006060830160008301516113096000860182611252565b506020830151848203602086015261132182826112b8565b9150506040830151848203604086015261133b82826112b8565b9150508091505092915050565b6000602082019050818103600083015261136281846112f1565b905092915050565b611373816111db565b82525050565b6000608083016000830151611391600086018261136a565b50602083015184820360208601526113a982826112b8565b915050604083015184820360408601526113c382826112b8565b915050606083015184820360608601526113dd82826112b8565b9150508091505092915050565b60006060830160008301516114026000860182611252565b506020830151848203602086015261141a8282611379565b9150506040830151848203604086015261143482826112b8565b9150508091505092915050565b6000602082019050818103600083015261145b81846113ea565b905092915050565b600080fd5b7f4e487b7100000000000000000000000000000000000000000000000000000000600052604160045260246000fd5b6114a0826112a7565b810181811067ffffffffffffffff821117156114bf576114be611468565b5b80604052505050565b60006114d26111a7565b90506114de8282611497565b919050565b600080fd5b600080fd5b600080fd5b600067ffffffffffffffff82111561150d5761150c611468565b5b611516826112a7565b9050602081019050919050565b82818337600083830152505050565b6000611545611540846114f2565b6114c8565b905082815260208101848484011115611561576115606114ed565b5b61156c848285611523565b509392505050565b600082601f830112611589576115886114e8565b5b8135611599848260208601611532565b91505092915050565b6000608082840312156115b8576115b7611463565b5b6115c260806114c8565b905060006115d284828501611204565b600083015250602082013567ffffffffffffffff8111156115f6576115f56114e3565b5b61160284828501611574565b602083015250604082013567ffffffffffffffff811115611626576116256114e3565b5b61163284828501611574565b604083015250606082013567ffffffffffffffff811115611656576116556114e3565b5b61166284828501611574565b60608301525092915050565b600060208284031215611684576116836111b1565b5b600082013567ffffffffffffffff8111156116a2576116a16111b6565b5b6116ae848285016115a2565b91505092915050565b6116c081611246565b82525050565b60006020820190506116db60008301846116b7565b92915050565b6000602082840312156116f7576116f66111b1565b5b600082013567ffffffffffffffff811115611715576117146111b6565b5b61172184828501611574565b91505092915050565b60006060830160008301516117426000860182611252565b506020830151611755602086018261136a565b506040830151848203604086015261176d82826112b8565b9150508091505092915050565b60006020820190508181036000830152611794818461172a565b905092915050565b600080604083850312156117b3576117b26111b1565b5b600083013567ffffffffffffffff8111156117d1576117d06111b6565b5b6117dd85828601611574565b92505060206117ee85828601611204565b9150509250929050565b7f4e487b7100000000000000000000000000000000000000000000000000000000600052602260045260246000fd5b6000600282049050600182168061183f57607f821691505b602082108103611852576118516117f8565b5b50919050565b600082825260208201905092915050565b600061187482611261565b61187e8185611858565b935061188e81856020860161127d565b611897816112a7565b840191505092915050565b600060208201905081810360008301526118bc8184611869565b905092915050565b60006118d76118d2846114f2565b6114c8565b9050828152602081018484840111156118f3576118f26114ed565b5b6118fe84828561127d565b509392505050565b600082601f83011261191b5761191a6114e8565b5b815161192b8482602086016118c4565b91505092915050565b60006020828403121561194a576119496111b1565b5b600082015167ffffffffffffffff811115611968576119676111b6565b5b61197484828501611906565b91505092915050565b60008190508160005260206000209050919050565b60006020601f8301049050919050565b600082821b905092915050565b6000600883026119df7fffffffffffffffffffffffffffffffffffffffffffffffffffffffffffffffff826119a2565b6119e986836119a2565b95508019841693508086168417925050509392505050565b6000819050919050565b6000819050919050565b6000611a30611a2b611a2684611a01565b611a0b565b611a01565b9050919050565b6000819050919050565b611a4a83611a15565b611a5e611a5682611a37565b8484546119af565b825550505050565b600090565b611a73611a66565b611a7e818484611a41565b505050565b5b81811015611aa257611a97600082611a6b565b600181019050611a84565b5050565b601f821115611ae757611ab88161197d565b611ac184611992565b81016020851015611ad0578190505b611ae4611adc85611992565b830182611a83565b50505b505050565b600082821c905092915050565b6000611b0a60001984600802611aec565b1980831691505092915050565b6000611b238383611af9565b9150826002028217905092915050565b611b3c82611261565b67ffffffffffffffff811115611b5557611b54611468565b5b611b5f8254611827565b611b6a828285611aa6565b600060209050601f831160018114611b9d5760008415611b8b578287015190505b611b958582611b17565b865550611bfd565b601f198416611bab8661197d565b60005b82811015611bd357848901518255600182019150602085019450602081019050611bae565b86831015611bf05784890151611bec601f891682611af9565b8355505b6001600288020188555050505b505050505050565b600081905092915050565b6000611c1b82611261565b611c258185611c05565b9350611c3581856020860161127d565b80840191505092915050565b6000611c4d8284611c10565b915081905092915050565b60008154611c6581611827565b611c6f8186611c05565b94506001821660008114611c8a5760018114611c9f57611cd2565b60ff1983168652811515820286019350611cd2565b611ca88561197d565b60005b83811015611cca57815481890152600182019150602081019050611cab565b838801955050505b50505092915050565b6000611ce78284611c58565b915081905092915050565b6000608083016000830151611d0a600086018261136a565b5060208301518482036020860152611d2282826112b8565b91505060408301518482036040860152611d3c82826112b8565b91505060608301518482036060860152611d5682826112b8565b9150508091505092915050565b60006020820190508181036000830152611d7d8184611cf2565b905092915050565b611d8e81611246565b8114611d9957600080fd5b50565b600081519050611dab81611d85565b92915050565b600060208284031215611dc757611dc66111b1565b5b6000611dd584828501611d9c565b9150509291505056fe546865206163636f756e74206f6620746865207472616e73616374696f6e2065786563757465722073686f756c64206265207468652073616d65206f6e652061732074686520757365722077686963682074686520696e666f726d6174696f6e206973206265696e67207265717565737465642066726f6d2e5468657265206973206e6f207573657220776974682074686520666976656e206163636f756e742e5468657265206973206e6f207573657220776974682074686520676976656e206163636f756e742e5468657265206973206e6f207573657220776974682074686520676976656e20757365726e616d652ea2646970667358221220944bddf0da85bac1f21ce3992420d909fd9e1d2b1bb0e2f54e73785b12acc9d364736f6c63430008130033608060405234801561001057600080fd5b5033600160006101000a81548173ffffffffffffffffffffffffffffffffffffffff021916908373ffffffffffffffffffffffffffffffffffffffff16021790555033600260006101000a81548173ffffffffffffffffffffffffffffffffffffffff021916908373ffffffffffffffffffffffffffffffffffffffff16021790555061165c806100a26000396000f3fe608060405234801561001057600080fd5b50600436106100365760003560e01c8063759ab1851461003b578063c47ebddc1461006b575b600080fd5b61005560048036038101906100509190610c25565b610087565b6040516100629190610f12565b60405180910390f35b61008560048036038101906100809190610f60565b610765565b005b61008f610960565b6000808054905067ffffffffffffffff8111156100af576100ae610a0f565b5b6040519080825280602002602001820160405280156100e857816020015b6100d5610983565b8152602001906001900390816100cd5790505b5090506000805b845181101561054457600160009054906101000a900473ffffffffffffffffffffffffffffffffffffffff1673ffffffffffffffffffffffffffffffffffffffff16631ac47dd03387848151811061014a5761014961102f565b5b60200260200101516040518363ffffffff1660e01b815260040161016f9291906110b7565b602060405180830381865afa15801561018c573d6000803e3d6000fd5b505050506040513d601f19601f820116820180604052508101906101b09190611113565b156105315760005b60008054905081101561052f578582815181106101d8576101d761102f565b5b60200260200101516040516020016101f0919061117c565b604051602081830303815290604052805190602001206000828154811061021a5761021961102f565b5b906000526020600020906006020160000160405160200161023b919061128b565b604051602081830303815290604052805190602001200361051c576000818154811061026a5761026961102f565b5b90600052602060002090600602016040518060c0016040529081600082018054610293906111c2565b80601f01602080910402602001604051908101604052809291908181526020018280546102bf906111c2565b801561030c5780601f106102e15761010080835404028352916020019161030c565b820191906000526020600020905b8154815290600101906020018083116102ef57829003601f168201915b505050505081526020016001820160009054906101000a900473ffffffffffffffffffffffffffffffffffffffff1673ffffffffffffffffffffffffffffffffffffffff1673ffffffffffffffffffffffffffffffffffffffff16815260200160028201548152602001600382018054610385906111c2565b80601f01602080910402602001604051908101604052809291908181526020018280546103b1906111c2565b80156103fe5780601f106103d3576101008083540402835291602001916103fe565b820191906000526020600020905b8154815290600101906020018083116103e157829003601f168201915b50505050508152602001600482018054610417906111c2565b80601f0160208091040260200160405190810160405280929190818152602001828054610443906111c2565b80156104905780601f1061046557610100808354040283529160200191610490565b820191906000526020600020905b81548152906001019060200180831161047357829003601f168201915b505050505081526020016005820160009054906101000a900473ffffffffffffffffffffffffffffffffffffffff1673ffffffffffffffffffffffffffffffffffffffff1673ffffffffffffffffffffffffffffffffffffffff16815250508484815181106105025761050161102f565b5b60200260200101819052508280610518906112d1565b9350505b8080610527906112d1565b9150506101b8565b505b808061053c906112d1565b9150506100ef565b50600081146106905760005b60018261055d9190611319565b81101561068e5760005b600182846105759190611319565b61057f9190611319565b81101561067a5783600182610594919061134d565b815181106105a5576105a461102f565b5b6020026020010151604001518482815181106105c4576105c361102f565b5b60200260200101516040015111156106675760008482815181106105eb576105ea61102f565b5b6020026020010151905084600183610603919061134d565b815181106106145761061361102f565b5b602002602001015185838151811061062f5761062e61102f565b5b60200260200101819052508085600184610649919061134d565b8151811061065a5761065961102f565b5b6020026020010181905250505b8080610672906112d1565b915050610567565b508080610686906112d1565b915050610550565b505b808252600081146106d15760405180606001604052806001151581526020018381526020016040518060200160405280600081525081525092505050610760565b6040518060600160405280600015158152602001600067ffffffffffffffff811115610700576106ff610a0f565b5b60405190808252806020026020018201604052801561073957816020015b610726610983565b81526020019060019003908161071e5790505b5081526020016040518060600160405280603c81526020016115eb603c9139815250925050505b919050565b600260009054906101000a900473ffffffffffffffffffffffffffffffffffffffff1673ffffffffffffffffffffffffffffffffffffffff163373ffffffffffffffffffffffffffffffffffffffff161480156107ed57508273ffffffffffffffffffffffffffffffffffffffff168373ffffffffffffffffffffffffffffffffffffffff16145b156109595760006040518060c001604052808681526020018573ffffffffffffffffffffffffffffffffffffffff1681526020014281526020018381526020018481526020018773ffffffffffffffffffffffffffffffffffffffff168152509050600081908060018154018082558091505060019003906000526020600020906006020160009091909190915060008201518160000190816108909190611518565b5060208201518160010160006101000a81548173ffffffffffffffffffffffffffffffffffffffff021916908373ffffffffffffffffffffffffffffffffffffffff1602179055506040820151816002015560608201518160030190816108f79190611518565b50608082015181600401908161090d9190611518565b5060a08201518160050160006101000a81548173ffffffffffffffffffffffffffffffffffffffff021916908373ffffffffffffffffffffffffffffffffffffffff1602179055505050505b5050505050565b604051806060016040528060001515815260200160608152602001606081525090565b6040518060c0016040528060608152602001600073ffffffffffffffffffffffffffffffffffffffff168152602001600081526020016060815260200160608152602001600073ffffffffffffffffffffffffffffffffffffffff1681525090565b6000604051905090565b600080fd5b600080fd5b600080fd5b6000601f19601f8301169050919050565b7f4e487b7100000000000000000000000000000000000000000000000000000000600052604160045260246000fd5b610a47826109fe565b810181811067ffffffffffffffff82111715610a6657610a65610a0f565b5b80604052505050565b6000610a796109e5565b9050610a858282610a3e565b919050565b600067ffffffffffffffff821115610aa557610aa4610a0f565b5b602082029050602081019050919050565b600080fd5b600080fd5b600067ffffffffffffffff821115610adb57610ada610a0f565b5b610ae4826109fe565b9050602081019050919050565b82818337600083830152505050565b6000610b13610b0e84610ac0565b610a6f565b905082815260208101848484011115610b2f57610b2e610abb565b5b610b3a848285610af1565b509392505050565b600082601f830112610b5757610b566109f9565b5b8135610b67848260208601610b00565b91505092915050565b6000610b83610b7e84610a8a565b610a6f565b90508083825260208201905060208402830185811115610ba657610ba5610ab6565b5b835b81811015610bed57803567ffffffffffffffff811115610bcb57610bca6109f9565b5b808601610bd88982610b42565b85526020850194505050602081019050610ba8565b5050509392505050565b600082601f830112610c0c57610c0b6109f9565b5b8135610c1c848260208601610b70565b91505092915050565b600060208284031215610c3b57610c3a6109ef565b5b600082013567ffffffffffffffff811115610c5957610c586109f4565b5b610c6584828501610bf7565b91505092915050565b60008115159050919050565b610c8381610c6e565b82525050565b600081519050919050565b600082825260208201905092915050565b6000819050602082019050919050565b600081519050919050565b600082825260208201905092915050565b60005b83811015610cef578082015181840152602081019050610cd4565b60008484015250505050565b6000610d0682610cb5565b610d108185610cc0565b9350610d20818560208601610cd1565b610d29816109fe565b840191505092915050565b600073ffffffffffffffffffffffffffffffffffffffff82169050919050565b6000610d5f82610d34565b9050919050565b610d6f81610d54565b82525050565b6000819050919050565b610d8881610d75565b82525050565b600060c0830160008301518482036000860152610dab8282610cfb565b9150506020830151610dc06020860182610d66565b506040830151610dd36040860182610d7f565b5060608301518482036060860152610deb8282610cfb565b91505060808301518482036080860152610e058282610cfb565b91505060a0830151610e1a60a0860182610d66565b508091505092915050565b6000610e318383610d8e565b905092915050565b6000602082019050919050565b6000610e5182610c89565b610e5b8185610c94565b935083602082028501610e6d85610ca5565b8060005b85811015610ea95784840389528151610e8a8582610e25565b9450610e9583610e39565b925060208a01995050600181019050610e71565b50829750879550505050505092915050565b6000606083016000830151610ed36000860182610c7a565b5060208301518482036020860152610eeb8282610e46565b91505060408301518482036040860152610f058282610cfb565b9150508091505092915050565b60006020820190508181036000830152610f2c8184610ebb565b905092915050565b610f3d81610d54565b8114610f4857600080fd5b50565b600081359050610f5a81610f34565b92915050565b600080600080600060a08688031215610f7c57610f7b6109ef565b5b6000610f8a88828901610f4b565b955050602086013567ffffffffffffffff811115610fab57610faa6109f4565b5b610fb788828901610b42565b9450506040610fc888828901610f4b565b935050606086013567ffffffffffffffff811115610fe957610fe86109f4565b5b610ff588828901610b42565b925050608086013567ffffffffffffffff811115611016576110156109f4565b5b61102288828901610b42565b9150509295509295909350565b7f4e487b7100000000000000000000000000000000000000000000000000000000600052603260045260246000fd5b61106781610d54565b82525050565b600082825260208201905092915050565b600061108982610cb5565b611093818561106d565b93506110a3818560208601610cd1565b6110ac816109fe565b840191505092915050565b60006040820190506110cc600083018561105e565b81810360208301526110de818461107e565b90509392505050565b6110f081610c6e565b81146110fb57600080fd5b50565b60008151905061110d816110e7565b92915050565b600060208284031215611129576111286109ef565b5b6000611137848285016110fe565b91505092915050565b600081905092915050565b600061115682610cb5565b6111608185611140565b9350611170818560208601610cd1565b80840191505092915050565b6000611188828461114b565b915081905092915050565b7f4e487b7100000000000000000000000000000000000000000000000000000000600052602260045260246000fd5b600060028204905060018216806111da57607f821691505b6020821081036111ed576111ec611193565b5b50919050565b60008190508160005260206000209050919050565b60008154611215816111c2565b61121f8186611140565b9450600182166000811461123a576001811461124f57611282565b60ff1983168652811515820286019350611282565b611258856111f3565b60005b8381101561127a5781548189015260018201915060208101905061125b565b838801955050505b50505092915050565b60006112978284611208565b915081905092915050565b7f4e487b7100000000000000000000000000000000000000000000000000000000600052601160045260246000fd5b60006112dc82610d75565b91507fffffffffffffffffffffffffffffffffffffffffffffffffffffffffffffffff820361130e5761130d6112a2565b5b600182019050919050565b600061132482610d75565b915061132f83610d75565b9250828203905081811115611347576113466112a2565b5b92915050565b600061135882610d75565b915061136383610d75565b925082820190508082111561137b5761137a6112a2565b5b92915050565b60006020601f8301049050919050565b600082821b905092915050565b6000600883026113ce7fffffffffffffffffffffffffffffffffffffffffffffffffffffffffffffffff82611391565b6113d88683611391565b95508019841693508086168417925050509392505050565b6000819050919050565b600061141561141061140b84610d75565b6113f0565b610d75565b9050919050565b6000819050919050565b61142f836113fa565b61144361143b8261141c565b84845461139e565b825550505050565b600090565b61145861144b565b611463818484611426565b505050565b5b818110156114875761147c600082611450565b600181019050611469565b5050565b601f8211156114cc5761149d816111f3565b6114a684611381565b810160208510156114b5578190505b6114c96114c185611381565b830182611468565b50505b505050565b600082821c905092915050565b60006114ef600019846008026114d1565b1980831691505092915050565b600061150883836114de565b9150826002028217905092915050565b61152182610cb5565b67ffffffffffffffff81111561153a57611539610a0f565b5b61154482546111c2565b61154f82828561148b565b600060209050601f8311600181146115825760008415611570578287015190505b61157a85826114fc565b8655506115e2565b601f198416611590866111f3565b60005b828110156115b857848901518255600182019150602085019450602081019050611593565b868310156115d557848901516115d1601f8916826114de565b8355505b6001600288020188555050505b50505050505056fe546865207472616e73616374696f6e2065786563757465722068617320746f206265206173736f6369617465642077697468207468652066696c652ea264697066735822122059348a71b716303004065ccf9a8409ee26b747392a06e8ff1378a3a090b4700e64736f6c63430008130033","opcodes":"PUSH1 0x80 PUSH1 0x40 MSTORE CALLVALUE DUP1 ISZERO PUSH3 0x11 JUMPI PUSH1 0x0 DUP1 REVERT JUMPDEST POP PUSH1 0x40 MLOAD PUSH3 0xF1A9 CODESIZE SUB DUP1 PUSH3 0xF1A9 DUP4 CODECOPY DUP2 DUP2 ADD PUSH1 0x40 MSTORE DUP2 ADD SWAP1 PUSH3 0x37 SWAP2 SWAP1 PUSH3 0x28C JUMP JUMPDEST DUP1 PUSH1 0x4 PUSH1 0x0 PUSH2 0x100 EXP DUP2 SLOAD DUP2 PUSH20 0xFFFFFFFFFFFFFFFFFFFFFFFFFFFFFFFFFFFFFFFF MUL NOT AND SWAP1 DUP4 PUSH20 0xFFFFFFFFFFFFFFFFFFFFFFFFFFFFFFFFFFFFFFFF AND MUL OR SWAP1 SSTORE POP DUP1 PUSH1 0x40 MLOAD PUSH3 0x87 SWAP1 PUSH3 0x1F8 JUMP JUMPDEST PUSH3 0x93 SWAP2 SWAP1 PUSH3 0x2CF JUMP JUMPDEST PUSH1 0x40 MLOAD DUP1 SWAP2 SUB SWAP1 PUSH1 0x0 CREATE DUP1 ISZERO DUP1 ISZERO PUSH3 0xB0 JUMPI RETURNDATASIZE PUSH1 0x0 DUP1 RETURNDATACOPY RETURNDATASIZE PUSH1 0x0 REVERT JUMPDEST POP PUSH1 0x1 PUSH1 0x0 PUSH2 0x100 EXP DUP2 SLOAD DUP2 PUSH20 0xFFFFFFFFFFFFFFFFFFFFFFFFFFFFFFFFFFFFFFFF MUL NOT AND SWAP1 DUP4 PUSH20 0xFFFFFFFFFFFFFFFFFFFFFFFFFFFFFFFFFFFFFFFF AND MUL OR SWAP1 SSTORE POP DUP1 PUSH1 0x40 MLOAD PUSH3 0x100 SWAP1 PUSH3 0x206 JUMP JUMPDEST PUSH3 0x10C SWAP2 SWAP1 PUSH3 0x2CF JUMP JUMPDEST PUSH1 0x40 MLOAD DUP1 SWAP2 SUB SWAP1 PUSH1 0x0 CREATE DUP1 ISZERO DUP1 ISZERO PUSH3 0x129 JUMPI RETURNDATASIZE PUSH1 0x0 DUP1 RETURNDATACOPY RETURNDATASIZE PUSH1 0x0 REVERT JUMPDEST POP PUSH1 0x2 PUSH1 0x0 PUSH2 0x100 EXP DUP2 SLOAD DUP2 PUSH20 0xFFFFFFFFFFFFFFFFFFFFFFFFFFFFFFFFFFFFFFFF MUL NOT AND SWAP1 DUP4 PUSH20 0xFFFFFFFFFFFFFFFFFFFFFFFFFFFFFFFFFFFFFFFF AND MUL OR SWAP1 SSTORE POP PUSH1 0x40 MLOAD PUSH3 0x178 SWAP1 PUSH3 0x214 JUMP JUMPDEST PUSH1 0x40 MLOAD DUP1 SWAP2 SUB SWAP1 PUSH1 0x0 CREATE DUP1 ISZERO DUP1 ISZERO PUSH3 0x195 JUMPI RETURNDATASIZE PUSH1 0x0 DUP1 RETURNDATACOPY RETURNDATASIZE PUSH1 0x0 REVERT JUMPDEST POP PUSH1 0x3 PUSH1 0x0 PUSH2 0x100 EXP DUP2 SLOAD DUP2 PUSH20 0xFFFFFFFFFFFFFFFFFFFFFFFFFFFFFFFFFFFFFFFF MUL NOT AND SWAP1 DUP4 PUSH20 0xFFFFFFFFFFFFFFFFFFFFFFFFFFFFFFFFFFFFFFFF AND MUL OR SWAP1 SSTORE POP PUSH1 0x0 PUSH1 0x4 PUSH1 0x14 PUSH2 0x100 EXP DUP2 SLOAD DUP2 PUSH1 0xFF MUL NOT AND SWAP1 DUP4 ISZERO ISZERO MUL OR SWAP1 SSTORE POP POP PUSH3 0x2EC JUMP JUMPDEST PUSH2 0x38A2 DUP1 PUSH3 0x81D8 DUP4 CODECOPY ADD SWAP1 JUMP JUMPDEST PUSH2 0x2031 DUP1 PUSH3 0xBA7A DUP4 CODECOPY ADD SWAP1 JUMP JUMPDEST PUSH2 0x16FE DUP1 PUSH3 0xDAAB DUP4 CODECOPY ADD SWAP1 JUMP JUMPDEST PUSH1 0x0 DUP1 REVERT JUMPDEST PUSH1 0x0 PUSH20 0xFFFFFFFFFFFFFFFFFFFFFFFFFFFFFFFFFFFFFFFF DUP3 AND SWAP1 POP SWAP2 SWAP1 POP JUMP JUMPDEST PUSH1 0x0 PUSH3 0x254 DUP3 PUSH3 0x227 JUMP JUMPDEST SWAP1 POP SWAP2 SWAP1 POP JUMP JUMPDEST PUSH3 0x266 DUP2 PUSH3 0x247 JUMP JUMPDEST DUP2 EQ PUSH3 0x272 JUMPI PUSH1 0x0 DUP1 REVERT JUMPDEST POP JUMP JUMPDEST PUSH1 0x0 DUP2 MLOAD SWAP1 POP PUSH3 0x286 DUP2 PUSH3 0x25B JUMP JUMPDEST SWAP3 SWAP2 POP POP JUMP JUMPDEST PUSH1 0x0 PUSH1 0x20 DUP3 DUP5 SUB SLT ISZERO PUSH3 0x2A5 JUMPI PUSH3 0x2A4 PUSH3 0x222 JUMP JUMPDEST JUMPDEST PUSH1 0x0 PUSH3 0x2B5 DUP5 DUP3 DUP6 ADD PUSH3 0x275 JUMP JUMPDEST SWAP2 POP POP SWAP3 SWAP2 POP POP JUMP JUMPDEST PUSH3 0x2C9 DUP2 PUSH3 0x247 JUMP JUMPDEST DUP3 MSTORE POP POP JUMP JUMPDEST PUSH1 0x0 PUSH1 0x20 DUP3 ADD SWAP1 POP PUSH3 0x2E6 PUSH1 0x0 DUP4 ADD DUP5 PUSH3 0x2BE JUMP JUMPDEST SWAP3 SWAP2 POP POP JUMP JUMPDEST PUSH2 0x7EDC DUP1 PUSH3 0x2FC PUSH1 0x0 CODECOPY PUSH1 0x0 RETURN INVALID PUSH1 0x80 PUSH1 0x40 MSTORE CALLVALUE DUP1 ISZERO PUSH2 0x10 JUMPI PUSH1 0x0 DUP1 REVERT JUMPDEST POP PUSH1 0x4 CALLDATASIZE LT PUSH2 0x137 JUMPI PUSH1 0x0 CALLDATALOAD PUSH1 0xE0 SHR DUP1 PUSH4 0x8AF34FBC GT PUSH2 0xB8 JUMPI DUP1 PUSH4 0xC19DCF89 GT PUSH2 0x7C JUMPI DUP1 PUSH4 0xC19DCF89 EQ PUSH2 0x386 JUMPI DUP1 PUSH4 0xC5F5A232 EQ PUSH2 0x3B6 JUMPI DUP1 PUSH4 0xC61E6663 EQ PUSH2 0x3D2 JUMPI DUP1 PUSH4 0xD2AB62B4 EQ PUSH2 0x3EE JUMPI DUP1 PUSH4 0xDB54CC8C EQ PUSH2 0x41E JUMPI DUP1 PUSH4 0xFE17FCCC EQ PUSH2 0x43A JUMPI PUSH2 0x137 JUMP JUMPDEST DUP1 PUSH4 0x8AF34FBC EQ PUSH2 0x2D0 JUMPI DUP1 PUSH4 0xA126D94C EQ PUSH2 0x2EC JUMPI DUP1 PUSH4 0xAF00C05D EQ PUSH2 0x31C JUMPI DUP1 PUSH4 0xB58EA3A2 EQ PUSH2 0x338 JUMPI DUP1 PUSH4 0xB714FB20 EQ PUSH2 0x368 JUMPI PUSH2 0x137 JUMP JUMPDEST DUP1 PUSH4 0x4C23FE99 GT PUSH2 0xFF JUMPI DUP1 PUSH4 0x4C23FE99 EQ PUSH2 0x22C JUMPI DUP1 PUSH4 0x4E2FC7D2 EQ PUSH2 0x25C JUMPI DUP1 PUSH4 0x5DAB19E4 EQ PUSH2 0x278 JUMPI DUP1 PUSH4 0x67CC916B EQ PUSH2 0x296 JUMPI DUP1 PUSH4 0x874A22ED EQ PUSH2 0x2B2 JUMPI PUSH2 0x137 JUMP JUMPDEST DUP1 PUSH4 0x9763727 EQ PUSH2 0x13C JUMPI DUP1 PUSH4 0x173CD558 EQ PUSH2 0x16C JUMPI DUP1 PUSH4 0x17B5BE0F EQ PUSH2 0x19C JUMPI DUP1 PUSH4 0x1AC47DD0 EQ PUSH2 0x1CC JUMPI DUP1 PUSH4 0x2321F318 EQ PUSH2 0x1FC JUMPI JUMPDEST PUSH1 0x0 DUP1 REVERT JUMPDEST PUSH2 0x156 PUSH1 0x4 DUP1 CALLDATASIZE SUB DUP2 ADD SWAP1 PUSH2 0x151 SWAP2 SWAP1 PUSH2 0x559A JUMP JUMPDEST PUSH2 0x456 JUMP JUMPDEST PUSH1 0x40 MLOAD PUSH2 0x163 SWAP2 SWAP1 PUSH2 0x58C0 JUMP JUMPDEST PUSH1 0x40 MLOAD DUP1 SWAP2 SUB SWAP1 RETURN JUMPDEST PUSH2 0x186 PUSH1 0x4 DUP1 CALLDATASIZE SUB DUP2 ADD SWAP1 PUSH2 0x181 SWAP2 SWAP1 PUSH2 0x559A JUMP JUMPDEST PUSH2 0x966 JUMP JUMPDEST PUSH1 0x40 MLOAD PUSH2 0x193 SWAP2 SWAP1 PUSH2 0x59FB JUMP JUMPDEST PUSH1 0x40 MLOAD DUP1 SWAP2 SUB SWAP1 RETURN JUMPDEST PUSH2 0x1B6 PUSH1 0x4 DUP1 CALLDATASIZE SUB DUP2 ADD SWAP1 PUSH2 0x1B1 SWAP2 SWAP1 PUSH2 0x559A JUMP JUMPDEST PUSH2 0xD5F JUMP JUMPDEST PUSH1 0x40 MLOAD PUSH2 0x1C3 SWAP2 SWAP1 PUSH2 0x5A2C JUMP JUMPDEST PUSH1 0x40 MLOAD DUP1 SWAP2 SUB SWAP1 RETURN JUMPDEST PUSH2 0x1E6 PUSH1 0x4 DUP1 CALLDATASIZE SUB DUP2 ADD SWAP1 PUSH2 0x1E1 SWAP2 SWAP1 PUSH2 0x559A JUMP JUMPDEST PUSH2 0x105F JUMP JUMPDEST PUSH1 0x40 MLOAD PUSH2 0x1F3 SWAP2 SWAP1 PUSH2 0x5A2C JUMP JUMPDEST PUSH1 0x40 MLOAD DUP1 SWAP2 SUB SWAP1 RETURN JUMPDEST PUSH2 0x216 PUSH1 0x4 DUP1 CALLDATASIZE SUB DUP2 ADD SWAP1 PUSH2 0x211 SWAP2 SWAP1 PUSH2 0x559A JUMP JUMPDEST PUSH2 0x1211 JUMP JUMPDEST PUSH1 0x40 MLOAD PUSH2 0x223 SWAP2 SWAP1 PUSH2 0x5A2C JUMP JUMPDEST PUSH1 0x40 MLOAD DUP1 SWAP2 SUB SWAP1 RETURN JUMPDEST PUSH2 0x246 PUSH1 0x4 DUP1 CALLDATASIZE SUB DUP2 ADD SWAP1 PUSH2 0x241 SWAP2 SWAP1 PUSH2 0x5A47 JUMP JUMPDEST PUSH2 0x1443 JUMP JUMPDEST PUSH1 0x40 MLOAD PUSH2 0x253 SWAP2 SWAP1 PUSH2 0x5B96 JUMP JUMPDEST PUSH1 0x40 MLOAD DUP1 SWAP2 SUB SWAP1 RETURN JUMPDEST PUSH2 0x276 PUSH1 0x4 DUP1 CALLDATASIZE SUB DUP2 ADD SWAP1 PUSH2 0x271 SWAP2 SWAP1 PUSH2 0x5F3B JUMP JUMPDEST PUSH2 0x18BD JUMP JUMPDEST STOP JUMPDEST PUSH2 0x280 PUSH2 0x1DC1 JUMP JUMPDEST PUSH1 0x40 MLOAD PUSH2 0x28D SWAP2 SWAP1 PUSH2 0x6021 JUMP JUMPDEST PUSH1 0x40 MLOAD DUP1 SWAP2 SUB SWAP1 RETURN JUMPDEST PUSH2 0x2B0 PUSH1 0x4 DUP1 CALLDATASIZE SUB DUP2 ADD SWAP1 PUSH2 0x2AB SWAP2 SWAP1 PUSH2 0x603C JUMP JUMPDEST PUSH2 0x1DEB JUMP JUMPDEST STOP JUMPDEST PUSH2 0x2BA PUSH2 0x1FF5 JUMP JUMPDEST PUSH1 0x40 MLOAD PUSH2 0x2C7 SWAP2 SWAP1 PUSH2 0x6021 JUMP JUMPDEST PUSH1 0x40 MLOAD DUP1 SWAP2 SUB SWAP1 RETURN JUMPDEST PUSH2 0x2EA PUSH1 0x4 DUP1 CALLDATASIZE SUB DUP2 ADD SWAP1 PUSH2 0x2E5 SWAP2 SWAP1 PUSH2 0x6098 JUMP JUMPDEST PUSH2 0x201F JUMP JUMPDEST STOP JUMPDEST PUSH2 0x306 PUSH1 0x4 DUP1 CALLDATASIZE SUB DUP2 ADD SWAP1 PUSH2 0x301 SWAP2 SWAP1 PUSH2 0x559A JUMP JUMPDEST PUSH2 0x2384 JUMP JUMPDEST PUSH1 0x40 MLOAD PUSH2 0x313 SWAP2 SWAP1 PUSH2 0x617A JUMP JUMPDEST PUSH1 0x40 MLOAD DUP1 SWAP2 SUB SWAP1 RETURN JUMPDEST PUSH2 0x336 PUSH1 0x4 DUP1 CALLDATASIZE SUB DUP2 ADD SWAP1 PUSH2 0x331 SWAP2 SWAP1 PUSH2 0x559A JUMP JUMPDEST PUSH2 0x2826 JUMP JUMPDEST STOP JUMPDEST PUSH2 0x352 PUSH1 0x4 DUP1 CALLDATASIZE SUB DUP2 ADD SWAP1 PUSH2 0x34D SWAP2 SWAP1 PUSH2 0x559A JUMP JUMPDEST PUSH2 0x2BCC JUMP JUMPDEST PUSH1 0x40 MLOAD PUSH2 0x35F SWAP2 SWAP1 PUSH2 0x5A2C JUMP JUMPDEST PUSH1 0x40 MLOAD DUP1 SWAP2 SUB SWAP1 RETURN JUMPDEST PUSH2 0x370 PUSH2 0x2F59 JUMP JUMPDEST PUSH1 0x40 MLOAD PUSH2 0x37D SWAP2 SWAP1 PUSH2 0x6021 JUMP JUMPDEST PUSH1 0x40 MLOAD DUP1 SWAP2 SUB SWAP1 RETURN JUMPDEST PUSH2 0x3A0 PUSH1 0x4 DUP1 CALLDATASIZE SUB DUP2 ADD SWAP1 PUSH2 0x39B SWAP2 SWAP1 PUSH2 0x559A JUMP JUMPDEST PUSH2 0x2F83 JUMP JUMPDEST PUSH1 0x40 MLOAD PUSH2 0x3AD SWAP2 SWAP1 PUSH2 0x5A2C JUMP JUMPDEST PUSH1 0x40 MLOAD DUP1 SWAP2 SUB SWAP1 RETURN JUMPDEST PUSH2 0x3D0 PUSH1 0x4 DUP1 CALLDATASIZE SUB DUP2 ADD SWAP1 PUSH2 0x3CB SWAP2 SWAP1 PUSH2 0x619C JUMP JUMPDEST PUSH2 0x3197 JUMP JUMPDEST STOP JUMPDEST PUSH2 0x3EC PUSH1 0x4 DUP1 CALLDATASIZE SUB DUP2 ADD SWAP1 PUSH2 0x3E7 SWAP2 SWAP1 PUSH2 0x559A JUMP JUMPDEST PUSH2 0x368A JUMP JUMPDEST STOP JUMPDEST PUSH2 0x408 PUSH1 0x4 DUP1 CALLDATASIZE SUB DUP2 ADD SWAP1 PUSH2 0x403 SWAP2 SWAP1 PUSH2 0x559A JUMP JUMPDEST PUSH2 0x38EA JUMP JUMPDEST PUSH1 0x40 MLOAD PUSH2 0x415 SWAP2 SWAP1 PUSH2 0x59FB JUMP JUMPDEST PUSH1 0x40 MLOAD DUP1 SWAP2 SUB SWAP1 RETURN JUMPDEST PUSH2 0x438 PUSH1 0x4 DUP1 CALLDATASIZE SUB DUP2 ADD SWAP1 PUSH2 0x433 SWAP2 SWAP1 PUSH2 0x559A JUMP JUMPDEST PUSH2 0x3D56 JUMP JUMPDEST STOP JUMPDEST PUSH2 0x454 PUSH1 0x4 DUP1 CALLDATASIZE SUB DUP2 ADD SWAP1 PUSH2 0x44F SWAP2 SWAP1 PUSH2 0x6257 JUMP JUMPDEST PUSH2 0x4153 JUMP JUMPDEST STOP JUMPDEST PUSH2 0x45E PUSH2 0x519C JUMP JUMPDEST DUP3 PUSH20 0xFFFFFFFFFFFFFFFFFFFFFFFFFFFFFFFFFFFFFFFF AND CALLER PUSH20 0xFFFFFFFFFFFFFFFFFFFFFFFFFFFFFFFFFFFFFFFF AND SUB PUSH2 0x8D3 JUMPI PUSH1 0x0 DUP1 DUP1 SLOAD SWAP1 POP PUSH8 0xFFFFFFFFFFFFFFFF DUP2 GT ISZERO PUSH2 0x4B1 JUMPI PUSH2 0x4B0 PUSH2 0x546F JUMP JUMPDEST JUMPDEST PUSH1 0x40 MLOAD SWAP1 DUP1 DUP3 MSTORE DUP1 PUSH1 0x20 MUL PUSH1 0x20 ADD DUP3 ADD PUSH1 0x40 MSTORE DUP1 ISZERO PUSH2 0x4EA JUMPI DUP2 PUSH1 0x20 ADD JUMPDEST PUSH2 0x4D7 PUSH2 0x51BF JUMP JUMPDEST DUP2 MSTORE PUSH1 0x20 ADD SWAP1 PUSH1 0x1 SWAP1 SUB SWAP1 DUP2 PUSH2 0x4CF JUMPI SWAP1 POP JUMPDEST POP SWAP1 POP PUSH1 0x0 DUP1 JUMPDEST PUSH1 0x0 DUP1 SLOAD SWAP1 POP DUP2 LT ISZERO PUSH2 0x88E JUMPI DUP6 PUSH20 0xFFFFFFFFFFFFFFFFFFFFFFFFFFFFFFFFFFFFFFFF AND PUSH1 0x0 DUP3 DUP2 SLOAD DUP2 LT PUSH2 0x529 JUMPI PUSH2 0x528 PUSH2 0x62E2 JUMP JUMPDEST JUMPDEST SWAP1 PUSH1 0x0 MSTORE PUSH1 0x20 PUSH1 0x0 KECCAK256 SWAP1 PUSH1 0x4 MUL ADD PUSH1 0x0 ADD PUSH1 0x0 SWAP1 SLOAD SWAP1 PUSH2 0x100 EXP SWAP1 DIV PUSH20 0xFFFFFFFFFFFFFFFFFFFFFFFFFFFFFFFFFFFFFFFF AND PUSH20 0xFFFFFFFFFFFFFFFFFFFFFFFFFFFFFFFFFFFFFFFF AND EQ DUP1 ISZERO PUSH2 0x6E4 JUMPI POP PUSH1 0x1 PUSH1 0x0 SWAP1 SLOAD SWAP1 PUSH2 0x100 EXP SWAP1 DIV PUSH20 0xFFFFFFFFFFFFFFFFFFFFFFFFFFFFFFFFFFFFFFFF AND PUSH20 0xFFFFFFFFFFFFFFFFFFFFFFFFFFFFFFFFFFFFFFFF AND PUSH3 0x438CEB PUSH1 0x0 DUP4 DUP2 SLOAD DUP2 LT PUSH2 0x5CA JUMPI PUSH2 0x5C9 PUSH2 0x62E2 JUMP JUMPDEST JUMPDEST SWAP1 PUSH1 0x0 MSTORE PUSH1 0x20 PUSH1 0x0 KECCAK256 SWAP1 PUSH1 0x4 MUL ADD PUSH1 0x1 ADD PUSH1 0x40 MLOAD DUP3 PUSH4 0xFFFFFFFF AND PUSH1 0xE0 SHL DUP2 MSTORE PUSH1 0x4 ADD PUSH2 0x5F7 SWAP2 SWAP1 PUSH2 0x641B JUMP JUMPDEST PUSH1 0x0 PUSH1 0x40 MLOAD DUP1 DUP4 SUB DUP2 DUP7 GAS STATICCALL ISZERO DUP1 ISZERO PUSH2 0x614 JUMPI RETURNDATASIZE PUSH1 0x0 DUP1 RETURNDATACOPY RETURNDATASIZE PUSH1 0x0 REVERT JUMPDEST POP POP POP POP PUSH1 0x40 MLOAD RETURNDATASIZE PUSH1 0x0 DUP3 RETURNDATACOPY RETURNDATASIZE PUSH1 0x1F NOT PUSH1 0x1F DUP3 ADD AND DUP3 ADD DUP1 PUSH1 0x40 MSTORE POP DUP2 ADD SWAP1 PUSH2 0x63D SWAP2 SWAP1 PUSH2 0x6575 JUMP JUMPDEST PUSH1 0x20 ADD MLOAD PUSH1 0x40 MLOAD PUSH1 0x20 ADD PUSH2 0x651 SWAP2 SWAP1 PUSH2 0x65FA JUMP JUMPDEST PUSH1 0x40 MLOAD PUSH1 0x20 DUP2 DUP4 SUB SUB DUP2 MSTORE SWAP1 PUSH1 0x40 MSTORE DUP1 MLOAD SWAP1 PUSH1 0x20 ADD KECCAK256 DUP6 PUSH1 0x40 MLOAD PUSH1 0x20 ADD PUSH2 0x678 SWAP2 SWAP1 PUSH2 0x65FA JUMP JUMPDEST PUSH1 0x40 MLOAD PUSH1 0x20 DUP2 DUP4 SUB SUB DUP2 MSTORE SWAP1 PUSH1 0x40 MSTORE DUP1 MLOAD SWAP1 PUSH1 0x20 ADD KECCAK256 EQ DUP1 PUSH2 0x6E3 JUMPI POP PUSH1 0x40 MLOAD PUSH1 0x20 ADD PUSH2 0x6A4 SWAP1 PUSH2 0x6637 JUMP JUMPDEST PUSH1 0x40 MLOAD PUSH1 0x20 DUP2 DUP4 SUB SUB DUP2 MSTORE SWAP1 PUSH1 0x40 MSTORE DUP1 MLOAD SWAP1 PUSH1 0x20 ADD KECCAK256 DUP6 PUSH1 0x40 MLOAD PUSH1 0x20 ADD PUSH2 0x6CB SWAP2 SWAP1 PUSH2 0x65FA JUMP JUMPDEST PUSH1 0x40 MLOAD PUSH1 0x20 DUP2 DUP4 SUB SUB DUP2 MSTORE SWAP1 PUSH1 0x40 MSTORE DUP1 MLOAD SWAP1 PUSH1 0x20 ADD KECCAK256 EQ JUMPDEST JUMPDEST ISZERO PUSH2 0x87B JUMPI PUSH1 0x0 DUP1 DUP3 DUP2 SLOAD DUP2 LT PUSH2 0x6FE JUMPI PUSH2 0x6FD PUSH2 0x62E2 JUMP JUMPDEST JUMPDEST SWAP1 PUSH1 0x0 MSTORE PUSH1 0x20 PUSH1 0x0 KECCAK256 SWAP1 PUSH1 0x4 MUL ADD PUSH1 0x1 ADD DUP1 SLOAD PUSH2 0x71A SWAP1 PUSH2 0x6340 JUMP JUMPDEST DUP1 PUSH1 0x1F ADD PUSH1 0x20 DUP1 SWAP2 DIV MUL PUSH1 0x20 ADD PUSH1 0x40 MLOAD SWAP1 DUP2 ADD PUSH1 0x40 MSTORE DUP1 SWAP3 SWAP2 SWAP1 DUP2 DUP2 MSTORE PUSH1 0x20 ADD DUP3 DUP1 SLOAD PUSH2 0x746 SWAP1 PUSH2 0x6340 JUMP JUMPDEST DUP1 ISZERO PUSH2 0x793 JUMPI DUP1 PUSH1 0x1F LT PUSH2 0x768 JUMPI PUSH2 0x100 DUP1 DUP4 SLOAD DIV MUL DUP4 MSTORE SWAP2 PUSH1 0x20 ADD SWAP2 PUSH2 0x793 JUMP JUMPDEST DUP3 ADD SWAP2 SWAP1 PUSH1 0x0 MSTORE PUSH1 0x20 PUSH1 0x0 KECCAK256 SWAP1 JUMPDEST DUP2 SLOAD DUP2 MSTORE SWAP1 PUSH1 0x1 ADD SWAP1 PUSH1 0x20 ADD DUP1 DUP4 GT PUSH2 0x776 JUMPI DUP3 SWAP1 SUB PUSH1 0x1F AND DUP3 ADD SWAP2 JUMPDEST POP POP POP POP POP SWAP1 POP PUSH1 0x0 PUSH1 0x1 PUSH1 0x0 SWAP1 SLOAD SWAP1 PUSH2 0x100 EXP SWAP1 DIV PUSH20 0xFFFFFFFFFFFFFFFFFFFFFFFFFFFFFFFFFFFFFFFF AND PUSH20 0xFFFFFFFFFFFFFFFFFFFFFFFFFFFFFFFFFFFFFFFF AND PUSH4 0x47EB6FA7 DUP4 DUP10 PUSH1 0x40 MLOAD DUP4 PUSH4 0xFFFFFFFF AND PUSH1 0xE0 SHL DUP2 MSTORE PUSH1 0x4 ADD PUSH2 0x7F9 SWAP3 SWAP2 SWAP1 PUSH2 0x6685 JUMP JUMPDEST PUSH1 0x0 PUSH1 0x40 MLOAD DUP1 DUP4 SUB DUP2 DUP7 GAS STATICCALL ISZERO DUP1 ISZERO PUSH2 0x816 JUMPI RETURNDATASIZE PUSH1 0x0 DUP1 RETURNDATACOPY RETURNDATASIZE PUSH1 0x0 REVERT JUMPDEST POP POP POP POP PUSH1 0x40 MLOAD RETURNDATASIZE PUSH1 0x0 DUP3 RETURNDATACOPY RETURNDATASIZE PUSH1 0x1F NOT PUSH1 0x1F DUP3 ADD AND DUP3 ADD DUP1 PUSH1 0x40 MSTORE POP DUP2 ADD SWAP1 PUSH2 0x83F SWAP2 SWAP1 PUSH2 0x6926 JUMP JUMPDEST SWAP1 POP PUSH1 0x0 DUP2 PUSH1 0x20 ADD MLOAD SWAP1 POP DUP1 DUP7 DUP7 DUP2 MLOAD DUP2 LT PUSH2 0x85E JUMPI PUSH2 0x85D PUSH2 0x62E2 JUMP JUMPDEST JUMPDEST PUSH1 0x20 MUL PUSH1 0x20 ADD ADD DUP2 SWAP1 MSTORE POP DUP5 DUP1 PUSH2 0x874 SWAP1 PUSH2 0x69A8 JUMP JUMPDEST SWAP6 POP POP POP POP POP JUMPDEST DUP1 DUP1 PUSH2 0x886 SWAP1 PUSH2 0x69A8 JUMP JUMPDEST SWAP2 POP POP PUSH2 0x4F1 JUMP JUMPDEST POP DUP1 DUP3 MSTORE PUSH1 0x0 DUP2 EQ PUSH2 0x8D0 JUMPI PUSH1 0x40 MLOAD DUP1 PUSH1 0x60 ADD PUSH1 0x40 MSTORE DUP1 PUSH1 0x1 ISZERO ISZERO DUP2 MSTORE PUSH1 0x20 ADD DUP4 DUP2 MSTORE PUSH1 0x20 ADD PUSH1 0x40 MLOAD DUP1 PUSH1 0x20 ADD PUSH1 0x40 MSTORE DUP1 PUSH1 0x0 DUP2 MSTORE POP DUP2 MSTORE POP SWAP3 POP POP POP PUSH2 0x960 JUMP JUMPDEST POP POP JUMPDEST PUSH1 0x40 MLOAD DUP1 PUSH1 0x60 ADD PUSH1 0x40 MSTORE DUP1 PUSH1 0x0 ISZERO ISZERO DUP2 MSTORE PUSH1 0x20 ADD PUSH1 0x0 PUSH8 0xFFFFFFFFFFFFFFFF DUP2 GT ISZERO PUSH2 0x902 JUMPI PUSH2 0x901 PUSH2 0x546F JUMP JUMPDEST JUMPDEST PUSH1 0x40 MLOAD SWAP1 DUP1 DUP3 MSTORE DUP1 PUSH1 0x20 MUL PUSH1 0x20 ADD DUP3 ADD PUSH1 0x40 MSTORE DUP1 ISZERO PUSH2 0x93B JUMPI DUP2 PUSH1 0x20 ADD JUMPDEST PUSH2 0x928 PUSH2 0x51BF JUMP JUMPDEST DUP2 MSTORE PUSH1 0x20 ADD SWAP1 PUSH1 0x1 SWAP1 SUB SWAP1 DUP2 PUSH2 0x920 JUMPI SWAP1 POP JUMPDEST POP DUP2 MSTORE PUSH1 0x20 ADD PUSH1 0x40 MLOAD DUP1 PUSH1 0x80 ADD PUSH1 0x40 MSTORE DUP1 PUSH1 0x4E DUP2 MSTORE PUSH1 0x20 ADD PUSH2 0x7DF1 PUSH1 0x4E SWAP2 CODECOPY DUP2 MSTORE POP SWAP1 POP JUMPDEST SWAP3 SWAP2 POP POP JUMP JUMPDEST PUSH2 0x96E PUSH2 0x5221 JUMP JUMPDEST PUSH2 0x977 DUP3 PUSH2 0x4690 JUMP JUMPDEST DUP1 ISZERO PUSH2 0xA6F JUMPI POP PUSH1 0x40 MLOAD PUSH1 0x20 ADD PUSH2 0x98D SWAP1 PUSH2 0x6A3C JUMP JUMPDEST PUSH1 0x40 MLOAD PUSH1 0x20 DUP2 DUP4 SUB SUB DUP2 MSTORE SWAP1 PUSH1 0x40 MSTORE DUP1 MLOAD SWAP1 PUSH1 0x20 ADD KECCAK256 PUSH1 0x1 PUSH1 0x0 SWAP1 SLOAD SWAP1 PUSH2 0x100 EXP SWAP1 DIV PUSH20 0xFFFFFFFFFFFFFFFFFFFFFFFFFFFFFFFFFFFFFFFF AND PUSH20 0xFFFFFFFFFFFFFFFFFFFFFFFFFFFFFFFFFFFFFFFF AND PUSH3 0x438CEB DUP5 PUSH1 0x40 MLOAD DUP3 PUSH4 0xFFFFFFFF AND PUSH1 0xE0 SHL DUP2 MSTORE PUSH1 0x4 ADD PUSH2 0x9FD SWAP2 SWAP1 PUSH2 0x6A51 JUMP JUMPDEST PUSH1 0x0 PUSH1 0x40 MLOAD DUP1 DUP4 SUB DUP2 DUP7 GAS STATICCALL ISZERO DUP1 ISZERO PUSH2 0xA1A JUMPI RETURNDATASIZE PUSH1 0x0 DUP1 RETURNDATACOPY RETURNDATASIZE PUSH1 0x0 REVERT JUMPDEST POP POP POP POP PUSH1 0x40 MLOAD RETURNDATASIZE PUSH1 0x0 DUP3 RETURNDATACOPY RETURNDATASIZE PUSH1 0x1F NOT PUSH1 0x1F DUP3 ADD AND DUP3 ADD DUP1 PUSH1 0x40 MSTORE POP DUP2 ADD SWAP1 PUSH2 0xA43 SWAP2 SWAP1 PUSH2 0x6575 JUMP JUMPDEST PUSH1 0x20 ADD MLOAD PUSH1 0x40 MLOAD PUSH1 0x20 ADD PUSH2 0xA57 SWAP2 SWAP1 PUSH2 0x65FA JUMP JUMPDEST PUSH1 0x40 MLOAD PUSH1 0x20 DUP2 DUP4 SUB SUB DUP2 MSTORE SWAP1 PUSH1 0x40 MSTORE DUP1 MLOAD SWAP1 PUSH1 0x20 ADD KECCAK256 EQ JUMPDEST ISZERO PUSH2 0xCD2 JUMPI PUSH1 0x0 JUMPDEST PUSH1 0x0 DUP1 SLOAD SWAP1 POP DUP2 LT ISZERO PUSH2 0xCD0 JUMPI PUSH1 0x4 PUSH1 0x0 SWAP1 SLOAD SWAP1 PUSH2 0x100 EXP SWAP1 DIV PUSH20 0xFFFFFFFFFFFFFFFFFFFFFFFFFFFFFFFFFFFFFFFF AND PUSH20 0xFFFFFFFFFFFFFFFFFFFFFFFFFFFFFFFFFFFFFFFF AND PUSH4 0x5C99C71B DUP6 PUSH1 0x0 DUP5 DUP2 SLOAD DUP2 LT PUSH2 0xAD7 JUMPI PUSH2 0xAD6 PUSH2 0x62E2 JUMP JUMPDEST JUMPDEST SWAP1 PUSH1 0x0 MSTORE PUSH1 0x20 PUSH1 0x0 KECCAK256 SWAP1 PUSH1 0x4 MUL ADD PUSH1 0x0 ADD PUSH1 0x0 SWAP1 SLOAD SWAP1 PUSH2 0x100 EXP SWAP1 DIV PUSH20 0xFFFFFFFFFFFFFFFFFFFFFFFFFFFFFFFFFFFFFFFF AND DUP7 PUSH1 0x0 DUP7 DUP2 SLOAD DUP2 LT PUSH2 0xB1E JUMPI PUSH2 0xB1D PUSH2 0x62E2 JUMP JUMPDEST JUMPDEST SWAP1 PUSH1 0x0 MSTORE PUSH1 0x20 PUSH1 0x0 KECCAK256 SWAP1 PUSH1 0x4 MUL ADD PUSH1 0x1 ADD PUSH1 0x40 MLOAD DUP6 PUSH4 0xFFFFFFFF AND PUSH1 0xE0 SHL DUP2 MSTORE PUSH1 0x4 ADD PUSH2 0xB4E SWAP5 SWAP4 SWAP3 SWAP2 SWAP1 PUSH2 0x6A73 JUMP JUMPDEST PUSH1 0x20 PUSH1 0x40 MLOAD DUP1 DUP4 SUB DUP2 DUP7 GAS STATICCALL ISZERO DUP1 ISZERO PUSH2 0xB6B JUMPI RETURNDATASIZE PUSH1 0x0 DUP1 RETURNDATACOPY RETURNDATASIZE PUSH1 0x0 REVERT JUMPDEST POP POP POP POP PUSH1 0x40 MLOAD RETURNDATASIZE PUSH1 0x1F NOT PUSH1 0x1F DUP3 ADD AND DUP3 ADD DUP1 PUSH1 0x40 MSTORE POP DUP2 ADD SWAP1 PUSH2 0xB8F SWAP2 SWAP1 PUSH2 0x6AC6 JUMP JUMPDEST ISZERO PUSH2 0xCBD JUMPI PUSH1 0x40 MLOAD DUP1 PUSH1 0x60 ADD PUSH1 0x40 MSTORE DUP1 PUSH1 0x1 ISZERO ISZERO DUP2 MSTORE PUSH1 0x20 ADD PUSH1 0x0 DUP4 DUP2 SLOAD DUP2 LT PUSH2 0xBBC JUMPI PUSH2 0xBBB PUSH2 0x62E2 JUMP JUMPDEST JUMPDEST SWAP1 PUSH1 0x0 MSTORE PUSH1 0x20 PUSH1 0x0 KECCAK256 SWAP1 PUSH1 0x4 MUL ADD PUSH1 0x3 ADD DUP1 SLOAD DUP1 PUSH1 0x20 MUL PUSH1 0x20 ADD PUSH1 0x40 MLOAD SWAP1 DUP2 ADD PUSH1 0x40 MSTORE DUP1 SWAP3 SWAP2 SWAP1 DUP2 DUP2 MSTORE PUSH1 0x20 ADD PUSH1 0x0 SWAP1 JUMPDEST DUP3 DUP3 LT ISZERO PUSH2 0xC99 JUMPI DUP4 DUP3 SWAP1 PUSH1 0x0 MSTORE PUSH1 0x20 PUSH1 0x0 KECCAK256 ADD DUP1 SLOAD PUSH2 0xC0C SWAP1 PUSH2 0x6340 JUMP JUMPDEST DUP1 PUSH1 0x1F ADD PUSH1 0x20 DUP1 SWAP2 DIV MUL PUSH1 0x20 ADD PUSH1 0x40 MLOAD SWAP1 DUP2 ADD PUSH1 0x40 MSTORE DUP1 SWAP3 SWAP2 SWAP1 DUP2 DUP2 MSTORE PUSH1 0x20 ADD DUP3 DUP1 SLOAD PUSH2 0xC38 SWAP1 PUSH2 0x6340 JUMP JUMPDEST DUP1 ISZERO PUSH2 0xC85 JUMPI DUP1 PUSH1 0x1F LT PUSH2 0xC5A JUMPI PUSH2 0x100 DUP1 DUP4 SLOAD DIV MUL DUP4 MSTORE SWAP2 PUSH1 0x20 ADD SWAP2 PUSH2 0xC85 JUMP JUMPDEST DUP3 ADD SWAP2 SWAP1 PUSH1 0x0 MSTORE PUSH1 0x20 PUSH1 0x0 KECCAK256 SWAP1 JUMPDEST DUP2 SLOAD DUP2 MSTORE SWAP1 PUSH1 0x1 ADD SWAP1 PUSH1 0x20 ADD DUP1 DUP4 GT PUSH2 0xC68 JUMPI DUP3 SWAP1 SUB PUSH1 0x1F AND DUP3 ADD SWAP2 JUMPDEST POP POP POP POP POP DUP2 MSTORE PUSH1 0x20 ADD SWAP1 PUSH1 0x1 ADD SWAP1 PUSH2 0xBED JUMP JUMPDEST POP POP POP POP DUP2 MSTORE PUSH1 0x20 ADD PUSH1 0x40 MLOAD DUP1 PUSH1 0x20 ADD PUSH1 0x40 MSTORE DUP1 PUSH1 0x0 DUP2 MSTORE POP DUP2 MSTORE POP SWAP2 POP POP PUSH2 0xD59 JUMP JUMPDEST DUP1 DUP1 PUSH2 0xCC8 SWAP1 PUSH2 0x69A8 JUMP JUMPDEST SWAP2 POP POP PUSH2 0xA77 JUMP JUMPDEST POP JUMPDEST PUSH1 0x40 MLOAD DUP1 PUSH1 0x60 ADD PUSH1 0x40 MSTORE DUP1 PUSH1 0x0 ISZERO ISZERO DUP2 MSTORE PUSH1 0x20 ADD PUSH1 0x0 PUSH8 0xFFFFFFFFFFFFFFFF DUP2 GT ISZERO PUSH2 0xD01 JUMPI PUSH2 0xD00 PUSH2 0x546F JUMP JUMPDEST JUMPDEST PUSH1 0x40 MLOAD SWAP1 DUP1 DUP3 MSTORE DUP1 PUSH1 0x20 MUL PUSH1 0x20 ADD DUP3 ADD PUSH1 0x40 MSTORE DUP1 ISZERO PUSH2 0xD34 JUMPI DUP2 PUSH1 0x20 ADD JUMPDEST PUSH1 0x60 DUP2 MSTORE PUSH1 0x20 ADD SWAP1 PUSH1 0x1 SWAP1 SUB SWAP1 DUP2 PUSH2 0xD1F JUMPI SWAP1 POP JUMPDEST POP DUP2 MSTORE PUSH1 0x20 ADD PUSH1 0x40 MLOAD DUP1 PUSH1 0xA0 ADD PUSH1 0x40 MSTORE DUP1 PUSH1 0x68 DUP2 MSTORE PUSH1 0x20 ADD PUSH2 0x7E3F PUSH1 0x68 SWAP2 CODECOPY DUP2 MSTORE POP SWAP1 POP JUMPDEST SWAP3 SWAP2 POP POP JUMP JUMPDEST PUSH1 0x0 DUP1 PUSH1 0x0 SWAP1 POP JUMPDEST PUSH1 0x0 DUP1 SLOAD SWAP1 POP DUP2 LT ISZERO PUSH2 0x1053 JUMPI PUSH1 0x0 PUSH1 0x1 PUSH1 0x0 SWAP1 SLOAD SWAP1 PUSH2 0x100 EXP SWAP1 DIV PUSH20 0xFFFFFFFFFFFFFFFFFFFFFFFFFFFFFFFFFFFFFFFF AND PUSH20 0xFFFFFFFFFFFFFFFFFFFFFFFFFFFFFFFFFFFFFFFF AND PUSH4 0xF880680B PUSH1 0x0 DUP5 DUP2 SLOAD DUP2 LT PUSH2 0xDC8 JUMPI PUSH2 0xDC7 PUSH2 0x62E2 JUMP JUMPDEST JUMPDEST SWAP1 PUSH1 0x0 MSTORE PUSH1 0x20 PUSH1 0x0 KECCAK256 SWAP1 PUSH1 0x4 MUL ADD PUSH1 0x1 ADD PUSH1 0x40 MLOAD DUP3 PUSH4 0xFFFFFFFF AND PUSH1 0xE0 SHL DUP2 MSTORE PUSH1 0x4 ADD PUSH2 0xDF5 SWAP2 SWAP1 PUSH2 0x641B JUMP JUMPDEST PUSH1 0x0 PUSH1 0x40 MLOAD DUP1 DUP4 SUB DUP2 DUP7 GAS STATICCALL ISZERO DUP1 ISZERO PUSH2 0xE12 JUMPI RETURNDATASIZE PUSH1 0x0 DUP1 RETURNDATACOPY RETURNDATASIZE PUSH1 0x0 REVERT JUMPDEST POP POP POP POP PUSH1 0x40 MLOAD RETURNDATASIZE PUSH1 0x0 DUP3 RETURNDATACOPY RETURNDATASIZE PUSH1 0x1F NOT PUSH1 0x1F DUP3 ADD AND DUP3 ADD DUP1 PUSH1 0x40 MSTORE POP DUP2 ADD SWAP1 PUSH2 0xE3B SWAP2 SWAP1 PUSH2 0x6575 JUMP JUMPDEST PUSH1 0x20 ADD MLOAD SWAP1 POP PUSH1 0x0 PUSH1 0x1 PUSH1 0x0 SWAP1 SLOAD SWAP1 PUSH2 0x100 EXP SWAP1 DIV PUSH20 0xFFFFFFFFFFFFFFFFFFFFFFFFFFFFFFFFFFFFFFFF AND PUSH20 0xFFFFFFFFFFFFFFFFFFFFFFFFFFFFFFFFFFFFFFFF AND PUSH3 0x438CEB PUSH1 0x0 DUP6 DUP2 SLOAD DUP2 LT PUSH2 0xE94 JUMPI PUSH2 0xE93 PUSH2 0x62E2 JUMP JUMPDEST JUMPDEST SWAP1 PUSH1 0x0 MSTORE PUSH1 0x20 PUSH1 0x0 KECCAK256 SWAP1 PUSH1 0x4 MUL ADD PUSH1 0x1 ADD PUSH1 0x40 MLOAD DUP3 PUSH4 0xFFFFFFFF AND PUSH1 0xE0 SHL DUP2 MSTORE PUSH1 0x4 ADD PUSH2 0xEC1 SWAP2 SWAP1 PUSH2 0x641B JUMP JUMPDEST PUSH1 0x0 PUSH1 0x40 MLOAD DUP1 DUP4 SUB DUP2 DUP7 GAS STATICCALL ISZERO DUP1 ISZERO PUSH2 0xEDE JUMPI RETURNDATASIZE PUSH1 0x0 DUP1 RETURNDATACOPY RETURNDATASIZE PUSH1 0x0 REVERT JUMPDEST POP POP POP POP PUSH1 0x40 MLOAD RETURNDATASIZE PUSH1 0x0 DUP3 RETURNDATACOPY RETURNDATASIZE PUSH1 0x1F NOT PUSH1 0x1F DUP3 ADD AND DUP3 ADD DUP1 PUSH1 0x40 MSTORE POP DUP2 ADD SWAP1 PUSH2 0xF07 SWAP2 SWAP1 PUSH2 0x6575 JUMP JUMPDEST PUSH1 0x20 ADD MLOAD SWAP1 POP DUP6 PUSH20 0xFFFFFFFFFFFFFFFFFFFFFFFFFFFFFFFFFFFFFFFF AND PUSH1 0x0 DUP5 DUP2 SLOAD DUP2 LT PUSH2 0xF38 JUMPI PUSH2 0xF37 PUSH2 0x62E2 JUMP JUMPDEST JUMPDEST SWAP1 PUSH1 0x0 MSTORE PUSH1 0x20 PUSH1 0x0 KECCAK256 SWAP1 PUSH1 0x4 MUL ADD PUSH1 0x0 ADD PUSH1 0x0 SWAP1 SLOAD SWAP1 PUSH2 0x100 EXP SWAP1 DIV PUSH20 0xFFFFFFFFFFFFFFFFFFFFFFFFFFFFFFFFFFFFFFFF AND PUSH20 0xFFFFFFFFFFFFFFFFFFFFFFFFFFFFFFFFFFFFFFFF AND EQ DUP1 ISZERO PUSH2 0xFD8 JUMPI POP DUP5 PUSH1 0x40 MLOAD PUSH1 0x20 ADD PUSH2 0xF99 SWAP2 SWAP1 PUSH2 0x65FA JUMP JUMPDEST PUSH1 0x40 MLOAD PUSH1 0x20 DUP2 DUP4 SUB SUB DUP2 MSTORE SWAP1 PUSH1 0x40 MSTORE DUP1 MLOAD SWAP1 PUSH1 0x20 ADD KECCAK256 DUP3 PUSH1 0x40 MLOAD PUSH1 0x20 ADD PUSH2 0xFC0 SWAP2 SWAP1 PUSH2 0x65FA JUMP JUMPDEST PUSH1 0x40 MLOAD PUSH1 0x20 DUP2 DUP4 SUB SUB DUP2 MSTORE SWAP1 PUSH1 0x40 MSTORE DUP1 MLOAD SWAP1 PUSH1 0x20 ADD KECCAK256 EQ JUMPDEST DUP1 ISZERO PUSH2 0x102D JUMPI POP PUSH1 0x40 MLOAD PUSH1 0x20 ADD PUSH2 0xFEE SWAP1 PUSH2 0x6A3C JUMP JUMPDEST PUSH1 0x40 MLOAD PUSH1 0x20 DUP2 DUP4 SUB SUB DUP2 MSTORE SWAP1 PUSH1 0x40 MSTORE DUP1 MLOAD SWAP1 PUSH1 0x20 ADD KECCAK256 DUP2 PUSH1 0x40 MLOAD PUSH1 0x20 ADD PUSH2 0x1015 SWAP2 SWAP1 PUSH2 0x65FA JUMP JUMPDEST PUSH1 0x40 MLOAD PUSH1 0x20 DUP2 DUP4 SUB SUB DUP2 MSTORE SWAP1 PUSH1 0x40 MSTORE DUP1 MLOAD SWAP1 PUSH1 0x20 ADD KECCAK256 EQ JUMPDEST ISZERO PUSH2 0x103E JUMPI PUSH1 0x1 SWAP4 POP POP POP POP PUSH2 0x1059 JUMP JUMPDEST POP POP DUP1 DUP1 PUSH2 0x104B SWAP1 PUSH2 0x69A8 JUMP JUMPDEST SWAP2 POP POP PUSH2 0xD67 JUMP JUMPDEST POP PUSH1 0x0 SWAP1 POP JUMPDEST SWAP3 SWAP2 POP POP JUMP JUMPDEST PUSH1 0x0 PUSH2 0x106A DUP3 PUSH2 0x4690 JUMP JUMPDEST DUP1 PUSH2 0x10C2 JUMPI POP PUSH1 0x3 PUSH1 0x0 SWAP1 SLOAD SWAP1 PUSH2 0x100 EXP SWAP1 DIV PUSH20 0xFFFFFFFFFFFFFFFFFFFFFFFFFFFFFFFFFFFFFFFF AND PUSH20 0xFFFFFFFFFFFFFFFFFFFFFFFFFFFFFFFFFFFFFFFF AND CALLER PUSH20 0xFFFFFFFFFFFFFFFFFFFFFFFFFFFFFFFFFFFFFFFF AND EQ JUMPDEST ISZERO PUSH2 0x1206 JUMPI PUSH1 0x0 JUMPDEST PUSH1 0x0 DUP1 SLOAD SWAP1 POP DUP2 LT ISZERO PUSH2 0x1204 JUMPI PUSH1 0x4 PUSH1 0x0 SWAP1 SLOAD SWAP1 PUSH2 0x100 EXP SWAP1 DIV PUSH20 0xFFFFFFFFFFFFFFFFFFFFFFFFFFFFFFFFFFFFFFFF AND PUSH20 0xFFFFFFFFFFFFFFFFFFFFFFFFFFFFFFFFFFFFFFFF AND PUSH4 0x5C99C71B DUP6 PUSH1 0x0 DUP5 DUP2 SLOAD DUP2 LT PUSH2 0x112A JUMPI PUSH2 0x1129 PUSH2 0x62E2 JUMP JUMPDEST JUMPDEST SWAP1 PUSH1 0x0 MSTORE PUSH1 0x20 PUSH1 0x0 KECCAK256 SWAP1 PUSH1 0x4 MUL ADD PUSH1 0x0 ADD PUSH1 0x0 SWAP1 SLOAD SWAP1 PUSH2 0x100 EXP SWAP1 DIV PUSH20 0xFFFFFFFFFFFFFFFFFFFFFFFFFFFFFFFFFFFFFFFF AND DUP7 PUSH1 0x0 DUP7 DUP2 SLOAD DUP2 LT PUSH2 0x1171 JUMPI PUSH2 0x1170 PUSH2 0x62E2 JUMP JUMPDEST JUMPDEST SWAP1 PUSH1 0x0 MSTORE PUSH1 0x20 PUSH1 0x0 KECCAK256 SWAP1 PUSH1 0x4 MUL ADD PUSH1 0x1 ADD PUSH1 0x40 MLOAD DUP6 PUSH4 0xFFFFFFFF AND PUSH1 0xE0 SHL DUP2 MSTORE PUSH1 0x4 ADD PUSH2 0x11A1 SWAP5 SWAP4 SWAP3 SWAP2 SWAP1 PUSH2 0x6A73 JUMP JUMPDEST PUSH1 0x20 PUSH1 0x40 MLOAD DUP1 DUP4 SUB DUP2 DUP7 GAS STATICCALL ISZERO DUP1 ISZERO PUSH2 0x11BE JUMPI RETURNDATASIZE PUSH1 0x0 DUP1 RETURNDATACOPY RETURNDATASIZE PUSH1 0x0 REVERT JUMPDEST POP POP POP POP PUSH1 0x40 MLOAD RETURNDATASIZE PUSH1 0x1F NOT PUSH1 0x1F DUP3 ADD AND DUP3 ADD DUP1 PUSH1 0x40 MSTORE POP DUP2 ADD SWAP1 PUSH2 0x11E2 SWAP2 SWAP1 PUSH2 0x6AC6 JUMP JUMPDEST ISZERO PUSH2 0x11F1 JUMPI PUSH1 0x1 SWAP2 POP POP PUSH2 0x120B JUMP JUMPDEST DUP1 DUP1 PUSH2 0x11FC SWAP1 PUSH2 0x69A8 JUMP JUMPDEST SWAP2 POP POP PUSH2 0x10CA JUMP JUMPDEST POP JUMPDEST PUSH1 0x0 SWAP1 POP JUMPDEST SWAP3 SWAP2 POP POP JUMP JUMPDEST PUSH1 0x0 DUP3 PUSH20 0xFFFFFFFFFFFFFFFFFFFFFFFFFFFFFFFFFFFFFFFF AND CALLER PUSH20 0xFFFFFFFFFFFFFFFFFFFFFFFFFFFFFFFFFFFFFFFF AND EQ ISZERO DUP1 ISZERO PUSH2 0x12EA JUMPI POP PUSH1 0x1 PUSH1 0x0 SWAP1 SLOAD SWAP1 PUSH2 0x100 EXP SWAP1 DIV PUSH20 0xFFFFFFFFFFFFFFFFFFFFFFFFFFFFFFFFFFFFFFFF AND PUSH20 0xFFFFFFFFFFFFFFFFFFFFFFFFFFFFFFFFFFFFFFFF AND PUSH4 0x52A9BAEF DUP5 DUP5 PUSH1 0x40 MLOAD DUP4 PUSH4 0xFFFFFFFF AND PUSH1 0xE0 SHL DUP2 MSTORE PUSH1 0x4 ADD PUSH2 0x12A7 SWAP3 SWAP2 SWAP1 PUSH2 0x6AF3 JUMP JUMPDEST PUSH1 0x20 PUSH1 0x40 MLOAD DUP1 DUP4 SUB DUP2 DUP7 GAS STATICCALL ISZERO DUP1 ISZERO PUSH2 0x12C4 JUMPI RETURNDATASIZE PUSH1 0x0 DUP1 RETURNDATACOPY RETURNDATASIZE PUSH1 0x0 REVERT JUMPDEST POP POP POP POP PUSH1 0x40 MLOAD RETURNDATASIZE PUSH1 0x1F NOT PUSH1 0x1F DUP3 ADD AND DUP3 ADD DUP1 PUSH1 0x40 MSTORE POP DUP2 ADD SWAP1 PUSH2 0x12E8 SWAP2 SWAP1 PUSH2 0x6AC6 JUMP JUMPDEST ISZERO JUMPDEST DUP1 ISZERO PUSH2 0x1332 JUMPI POP PUSH2 0x1331 CALLER DUP4 PUSH1 0x40 MLOAD DUP1 PUSH1 0x40 ADD PUSH1 0x40 MSTORE DUP1 PUSH1 0x5 DUP2 MSTORE PUSH1 0x20 ADD PUSH32 0x7368617265000000000000000000000000000000000000000000000000000000 DUP2 MSTORE POP PUSH2 0x49CC JUMP JUMPDEST JUMPDEST DUP1 ISZERO PUSH2 0x142A JUMPI POP PUSH1 0x40 MLOAD PUSH1 0x20 ADD PUSH2 0x1348 SWAP1 PUSH2 0x6A3C JUMP JUMPDEST PUSH1 0x40 MLOAD PUSH1 0x20 DUP2 DUP4 SUB SUB DUP2 MSTORE SWAP1 PUSH1 0x40 MSTORE DUP1 MLOAD SWAP1 PUSH1 0x20 ADD KECCAK256 PUSH1 0x1 PUSH1 0x0 SWAP1 SLOAD SWAP1 PUSH2 0x100 EXP SWAP1 DIV PUSH20 0xFFFFFFFFFFFFFFFFFFFFFFFFFFFFFFFFFFFFFFFF AND PUSH20 0xFFFFFFFFFFFFFFFFFFFFFFFFFFFFFFFFFFFFFFFF AND PUSH3 0x438CEB DUP5 PUSH1 0x40 MLOAD DUP3 PUSH4 0xFFFFFFFF AND PUSH1 0xE0 SHL DUP2 MSTORE PUSH1 0x4 ADD PUSH2 0x13B8 SWAP2 SWAP1 PUSH2 0x6A51 JUMP JUMPDEST PUSH1 0x0 PUSH1 0x40 MLOAD DUP1 DUP4 SUB DUP2 DUP7 GAS STATICCALL ISZERO DUP1 ISZERO PUSH2 0x13D5 JUMPI RETURNDATASIZE PUSH1 0x0 DUP1 RETURNDATACOPY RETURNDATASIZE PUSH1 0x0 REVERT JUMPDEST POP POP POP POP PUSH1 0x40 MLOAD RETURNDATASIZE PUSH1 0x0 DUP3 RETURNDATACOPY RETURNDATASIZE PUSH1 0x1F NOT PUSH1 0x1F DUP3 ADD AND DUP3 ADD DUP1 PUSH1 0x40 MSTORE POP DUP2 ADD SWAP1 PUSH2 0x13FE SWAP2 SWAP1 PUSH2 0x6575 JUMP JUMPDEST PUSH1 0x20 ADD MLOAD PUSH1 0x40 MLOAD PUSH1 0x20 ADD PUSH2 0x1412 SWAP2 SWAP1 PUSH2 0x65FA JUMP JUMPDEST PUSH1 0x40 MLOAD PUSH1 0x20 DUP2 DUP4 SUB SUB DUP2 MSTORE SWAP1 PUSH1 0x40 MSTORE DUP1 MLOAD SWAP1 PUSH1 0x20 ADD KECCAK256 EQ JUMPDEST ISZERO PUSH2 0x1438 JUMPI PUSH1 0x1 SWAP1 POP PUSH2 0x143D JUMP JUMPDEST PUSH1 0x0 SWAP1 POP JUMPDEST SWAP3 SWAP2 POP POP JUMP JUMPDEST PUSH2 0x144B PUSH2 0x5244 JUMP JUMPDEST PUSH2 0x1454 DUP3 PUSH2 0x4690 JUMP JUMPDEST DUP1 ISZERO PUSH2 0x154C JUMPI POP PUSH1 0x40 MLOAD PUSH1 0x20 ADD PUSH2 0x146A SWAP1 PUSH2 0x6A3C JUMP JUMPDEST PUSH1 0x40 MLOAD PUSH1 0x20 DUP2 DUP4 SUB SUB DUP2 MSTORE SWAP1 PUSH1 0x40 MSTORE DUP1 MLOAD SWAP1 PUSH1 0x20 ADD KECCAK256 PUSH1 0x1 PUSH1 0x0 SWAP1 SLOAD SWAP1 PUSH2 0x100 EXP SWAP1 DIV PUSH20 0xFFFFFFFFFFFFFFFFFFFFFFFFFFFFFFFFFFFFFFFF AND PUSH20 0xFFFFFFFFFFFFFFFFFFFFFFFFFFFFFFFFFFFFFFFF AND PUSH3 0x438CEB DUP5 PUSH1 0x40 MLOAD DUP3 PUSH4 0xFFFFFFFF AND PUSH1 0xE0 SHL DUP2 MSTORE PUSH1 0x4 ADD PUSH2 0x14DA SWAP2 SWAP1 PUSH2 0x6A51 JUMP JUMPDEST PUSH1 0x0 PUSH1 0x40 MLOAD DUP1 DUP4 SUB DUP2 DUP7 GAS STATICCALL ISZERO DUP1 ISZERO PUSH2 0x14F7 JUMPI RETURNDATASIZE PUSH1 0x0 DUP1 RETURNDATACOPY RETURNDATASIZE PUSH1 0x0 REVERT JUMPDEST POP POP POP POP PUSH1 0x40 MLOAD RETURNDATASIZE PUSH1 0x0 DUP3 RETURNDATACOPY RETURNDATASIZE PUSH1 0x1F NOT PUSH1 0x1F DUP3 ADD AND DUP3 ADD DUP1 PUSH1 0x40 MSTORE POP DUP2 ADD SWAP1 PUSH2 0x1520 SWAP2 SWAP1 PUSH2 0x6575 JUMP JUMPDEST PUSH1 0x20 ADD MLOAD PUSH1 0x40 MLOAD PUSH1 0x20 ADD PUSH2 0x1534 SWAP2 SWAP1 PUSH2 0x65FA JUMP JUMPDEST PUSH1 0x40 MLOAD PUSH1 0x20 DUP2 DUP4 SUB SUB DUP2 MSTORE SWAP1 PUSH1 0x40 MSTORE DUP1 MLOAD SWAP1 PUSH1 0x20 ADD KECCAK256 EQ JUMPDEST ISZERO PUSH2 0x1836 JUMPI PUSH1 0x0 DUP1 DUP1 SLOAD SWAP1 POP PUSH8 0xFFFFFFFFFFFFFFFF DUP2 GT ISZERO PUSH2 0x1571 JUMPI PUSH2 0x1570 PUSH2 0x546F JUMP JUMPDEST JUMPDEST PUSH1 0x40 MLOAD SWAP1 DUP1 DUP3 MSTORE DUP1 PUSH1 0x20 MUL PUSH1 0x20 ADD DUP3 ADD PUSH1 0x40 MSTORE DUP1 ISZERO PUSH2 0x159F JUMPI DUP2 PUSH1 0x20 ADD PUSH1 0x20 DUP3 MUL DUP1 CALLDATASIZE DUP4 CALLDATACOPY DUP1 DUP3 ADD SWAP2 POP POP SWAP1 POP JUMPDEST POP SWAP1 POP PUSH1 0x0 DUP1 JUMPDEST PUSH1 0x0 DUP1 SLOAD SWAP1 POP DUP2 LT ISZERO PUSH2 0x17FC JUMPI DUP5 PUSH1 0x40 MLOAD PUSH1 0x20 ADD PUSH2 0x15C4 SWAP2 SWAP1 PUSH2 0x65FA JUMP JUMPDEST PUSH1 0x40 MLOAD PUSH1 0x20 DUP2 DUP4 SUB SUB DUP2 MSTORE SWAP1 PUSH1 0x40 MSTORE DUP1 MLOAD SWAP1 PUSH1 0x20 ADD KECCAK256 PUSH1 0x0 DUP3 DUP2 SLOAD DUP2 LT PUSH2 0x15EE JUMPI PUSH2 0x15ED PUSH2 0x62E2 JUMP JUMPDEST JUMPDEST SWAP1 PUSH1 0x0 MSTORE PUSH1 0x20 PUSH1 0x0 KECCAK256 SWAP1 PUSH1 0x4 MUL ADD PUSH1 0x1 ADD PUSH1 0x40 MLOAD PUSH1 0x20 ADD PUSH2 0x160F SWAP2 SWAP1 PUSH2 0x6BA6 JUMP JUMPDEST PUSH1 0x40 MLOAD PUSH1 0x20 DUP2 DUP4 SUB SUB DUP2 MSTORE SWAP1 PUSH1 0x40 MSTORE DUP1 MLOAD SWAP1 PUSH1 0x20 ADD KECCAK256 EQ DUP1 ISZERO PUSH2 0x1742 JUMPI POP PUSH1 0x40 MLOAD PUSH1 0x20 ADD PUSH2 0x163C SWAP1 PUSH2 0x6A3C JUMP JUMPDEST PUSH1 0x40 MLOAD PUSH1 0x20 DUP2 DUP4 SUB SUB DUP2 MSTORE SWAP1 PUSH1 0x40 MSTORE DUP1 MLOAD SWAP1 PUSH1 0x20 ADD KECCAK256 PUSH1 0x1 PUSH1 0x0 SWAP1 SLOAD SWAP1 PUSH2 0x100 EXP SWAP1 DIV PUSH20 0xFFFFFFFFFFFFFFFFFFFFFFFFFFFFFFFFFFFFFFFF AND PUSH20 0xFFFFFFFFFFFFFFFFFFFFFFFFFFFFFFFFFFFFFFFF AND PUSH3 0x438CEB PUSH1 0x0 DUP5 DUP2 SLOAD DUP2 LT PUSH2 0x16A3 JUMPI PUSH2 0x16A2 PUSH2 0x62E2 JUMP JUMPDEST JUMPDEST SWAP1 PUSH1 0x0 MSTORE PUSH1 0x20 PUSH1 0x0 KECCAK256 SWAP1 PUSH1 0x4 MUL ADD PUSH1 0x1 ADD PUSH1 0x40 MLOAD DUP3 PUSH4 0xFFFFFFFF AND PUSH1 0xE0 SHL DUP2 MSTORE PUSH1 0x4 ADD PUSH2 0x16D0 SWAP2 SWAP1 PUSH2 0x641B JUMP JUMPDEST PUSH1 0x0 PUSH1 0x40 MLOAD DUP1 DUP4 SUB DUP2 DUP7 GAS STATICCALL ISZERO DUP1 ISZERO PUSH2 0x16ED JUMPI RETURNDATASIZE PUSH1 0x0 DUP1 RETURNDATACOPY RETURNDATASIZE PUSH1 0x0 REVERT JUMPDEST POP POP POP POP PUSH1 0x40 MLOAD RETURNDATASIZE PUSH1 0x0 DUP3 RETURNDATACOPY RETURNDATASIZE PUSH1 0x1F NOT PUSH1 0x1F DUP3 ADD AND DUP3 ADD DUP1 PUSH1 0x40 MSTORE POP DUP2 ADD SWAP1 PUSH2 0x1716 SWAP2 SWAP1 PUSH2 0x6575 JUMP JUMPDEST PUSH1 0x20 ADD MLOAD PUSH1 0x40 MLOAD PUSH1 0x20 ADD PUSH2 0x172A SWAP2 SWAP1 PUSH2 0x65FA JUMP JUMPDEST PUSH1 0x40 MLOAD PUSH1 0x20 DUP2 DUP4 SUB SUB DUP2 MSTORE SWAP1 PUSH1 0x40 MSTORE DUP1 MLOAD SWAP1 PUSH1 0x20 ADD KECCAK256 EQ JUMPDEST ISZERO PUSH2 0x17E9 JUMPI PUSH1 0x0 DUP2 DUP2 SLOAD DUP2 LT PUSH2 0x175B JUMPI PUSH2 0x175A PUSH2 0x62E2 JUMP JUMPDEST JUMPDEST SWAP1 PUSH1 0x0 MSTORE PUSH1 0x20 PUSH1 0x0 KECCAK256 SWAP1 PUSH1 0x4 MUL ADD PUSH1 0x0 ADD PUSH1 0x0 SWAP1 SLOAD SWAP1 PUSH2 0x100 EXP SWAP1 DIV PUSH20 0xFFFFFFFFFFFFFFFFFFFFFFFFFFFFFFFFFFFFFFFF AND DUP4 DUP4 DUP2 MLOAD DUP2 LT PUSH2 0x17A0 JUMPI PUSH2 0x179F PUSH2 0x62E2 JUMP JUMPDEST JUMPDEST PUSH1 0x20 MUL PUSH1 0x20 ADD ADD SWAP1 PUSH20 0xFFFFFFFFFFFFFFFFFFFFFFFFFFFFFFFFFFFFFFFF AND SWAP1 DUP2 PUSH20 0xFFFFFFFFFFFFFFFFFFFFFFFFFFFFFFFFFFFFFFFF AND DUP2 MSTORE POP POP DUP2 DUP1 PUSH2 0x17E5 SWAP1 PUSH2 0x69A8 JUMP JUMPDEST SWAP3 POP POP JUMPDEST DUP1 DUP1 PUSH2 0x17F4 SWAP1 PUSH2 0x69A8 JUMP JUMPDEST SWAP2 POP POP PUSH2 0x15A6 JUMP JUMPDEST POP DUP1 DUP3 MSTORE PUSH1 0x40 MLOAD DUP1 PUSH1 0x60 ADD PUSH1 0x40 MSTORE DUP1 PUSH1 0x1 ISZERO ISZERO DUP2 MSTORE PUSH1 0x20 ADD DUP4 DUP2 MSTORE PUSH1 0x20 ADD PUSH1 0x40 MLOAD DUP1 PUSH1 0x20 ADD PUSH1 0x40 MSTORE DUP1 PUSH1 0x0 DUP2 MSTORE POP DUP2 MSTORE POP SWAP3 POP POP POP PUSH2 0x18B8 JUMP JUMPDEST PUSH1 0x40 MLOAD DUP1 PUSH1 0x60 ADD PUSH1 0x40 MSTORE DUP1 PUSH1 0x0 ISZERO ISZERO DUP2 MSTORE PUSH1 0x20 ADD PUSH1 0x0 PUSH8 0xFFFFFFFFFFFFFFFF DUP2 GT ISZERO PUSH2 0x1865 JUMPI PUSH2 0x1864 PUSH2 0x546F JUMP JUMPDEST JUMPDEST PUSH1 0x40 MLOAD SWAP1 DUP1 DUP3 MSTORE DUP1 PUSH1 0x20 MUL PUSH1 0x20 ADD DUP3 ADD PUSH1 0x40 MSTORE DUP1 ISZERO PUSH2 0x1893 JUMPI DUP2 PUSH1 0x20 ADD PUSH1 0x20 DUP3 MUL DUP1 CALLDATASIZE DUP4 CALLDATACOPY DUP1 DUP3 ADD SWAP2 POP POP SWAP1 POP JUMPDEST POP DUP2 MSTORE PUSH1 0x20 ADD PUSH1 0x40 MLOAD DUP1 PUSH1 0x80 ADD PUSH1 0x40 MSTORE DUP1 PUSH1 0x5B DUP2 MSTORE PUSH1 0x20 ADD PUSH2 0x7D96 PUSH1 0x5B SWAP2 CODECOPY DUP2 MSTORE POP SWAP1 POP JUMPDEST SWAP2 SWAP1 POP JUMP JUMPDEST PUSH2 0x18CA DUP5 PUSH1 0x0 ADD MLOAD PUSH2 0x4B7A JUMP JUMPDEST DUP1 ISZERO PUSH2 0x18DE JUMPI POP PUSH2 0x18DD DUP5 DUP5 DUP5 DUP5 PUSH2 0x4CCC JUMP JUMPDEST JUMPDEST ISZERO PUSH2 0x1DBB JUMPI PUSH1 0x1 PUSH1 0x0 SWAP1 SLOAD SWAP1 PUSH2 0x100 EXP SWAP1 DIV PUSH20 0xFFFFFFFFFFFFFFFFFFFFFFFFFFFFFFFFFFFFFFFF AND PUSH20 0xFFFFFFFFFFFFFFFFFFFFFFFFFFFFFFFFFFFFFFFF AND PUSH4 0x95F0F0BB DUP6 DUP6 PUSH1 0x40 MLOAD DUP4 PUSH4 0xFFFFFFFF AND PUSH1 0xE0 SHL DUP2 MSTORE PUSH1 0x4 ADD PUSH2 0x1940 SWAP3 SWAP2 SWAP1 PUSH2 0x6CAC JUMP JUMPDEST PUSH1 0x0 PUSH1 0x40 MLOAD DUP1 DUP4 SUB DUP2 PUSH1 0x0 DUP8 DUP1 EXTCODESIZE ISZERO DUP1 ISZERO PUSH2 0x195A JUMPI PUSH1 0x0 DUP1 REVERT JUMPDEST POP GAS CALL ISZERO DUP1 ISZERO PUSH2 0x196E JUMPI RETURNDATASIZE PUSH1 0x0 DUP1 RETURNDATACOPY RETURNDATASIZE PUSH1 0x0 REVERT JUMPDEST POP POP POP POP PUSH1 0x0 JUMPDEST PUSH1 0x0 DUP1 SLOAD SWAP1 POP DUP2 LT ISZERO PUSH2 0x1D24 JUMPI DUP5 PUSH1 0x0 ADD MLOAD PUSH1 0x40 MLOAD PUSH1 0x20 ADD PUSH2 0x1997 SWAP2 SWAP1 PUSH2 0x65FA JUMP JUMPDEST PUSH1 0x40 MLOAD PUSH1 0x20 DUP2 DUP4 SUB SUB DUP2 MSTORE SWAP1 PUSH1 0x40 MSTORE DUP1 MLOAD SWAP1 PUSH1 0x20 ADD KECCAK256 PUSH1 0x0 DUP3 DUP2 SLOAD DUP2 LT PUSH2 0x19C1 JUMPI PUSH2 0x19C0 PUSH2 0x62E2 JUMP JUMPDEST JUMPDEST SWAP1 PUSH1 0x0 MSTORE PUSH1 0x20 PUSH1 0x0 KECCAK256 SWAP1 PUSH1 0x4 MUL ADD PUSH1 0x1 ADD PUSH1 0x40 MLOAD PUSH1 0x20 ADD PUSH2 0x19E2 SWAP2 SWAP1 PUSH2 0x6BA6 JUMP JUMPDEST PUSH1 0x40 MLOAD PUSH1 0x20 DUP2 DUP4 SUB SUB DUP2 MSTORE SWAP1 PUSH1 0x40 MSTORE DUP1 MLOAD SWAP1 PUSH1 0x20 ADD KECCAK256 SUB PUSH2 0x1D11 JUMPI PUSH1 0x0 DUP1 JUMPDEST DUP5 MLOAD DUP2 LT ISZERO PUSH2 0x1AB7 JUMPI PUSH1 0x0 DUP4 DUP2 SLOAD DUP2 LT PUSH2 0x1A1E JUMPI PUSH2 0x1A1D PUSH2 0x62E2 JUMP JUMPDEST JUMPDEST SWAP1 PUSH1 0x0 MSTORE PUSH1 0x20 PUSH1 0x0 KECCAK256 SWAP1 PUSH1 0x4 MUL ADD PUSH1 0x0 ADD PUSH1 0x0 SWAP1 SLOAD SWAP1 PUSH2 0x100 EXP SWAP1 DIV PUSH20 0xFFFFFFFFFFFFFFFFFFFFFFFFFFFFFFFFFFFFFFFF AND PUSH20 0xFFFFFFFFFFFFFFFFFFFFFFFFFFFFFFFFFFFFFFFF AND DUP6 DUP3 DUP2 MLOAD DUP2 LT PUSH2 0x1A79 JUMPI PUSH2 0x1A78 PUSH2 0x62E2 JUMP JUMPDEST JUMPDEST PUSH1 0x20 MUL PUSH1 0x20 ADD ADD MLOAD PUSH20 0xFFFFFFFFFFFFFFFFFFFFFFFFFFFFFFFFFFFFFFFF AND SUB PUSH2 0x1AA4 JUMPI DUP1 SWAP2 POP PUSH2 0x1AB7 JUMP JUMPDEST DUP1 DUP1 PUSH2 0x1AAF SWAP1 PUSH2 0x69A8 JUMP JUMPDEST SWAP2 POP POP PUSH2 0x1A01 JUMP JUMPDEST POP PUSH1 0x0 DUP4 DUP3 DUP2 MLOAD DUP2 LT PUSH2 0x1ACD JUMPI PUSH2 0x1ACC PUSH2 0x62E2 JUMP JUMPDEST JUMPDEST PUSH1 0x20 MUL PUSH1 0x20 ADD ADD MLOAD SWAP1 POP PUSH1 0x0 PUSH1 0x40 MLOAD DUP1 PUSH1 0x80 ADD PUSH1 0x40 MSTORE DUP1 PUSH1 0x0 DUP7 DUP2 SLOAD DUP2 LT PUSH2 0x1AF8 JUMPI PUSH2 0x1AF7 PUSH2 0x62E2 JUMP JUMPDEST JUMPDEST SWAP1 PUSH1 0x0 MSTORE PUSH1 0x20 PUSH1 0x0 KECCAK256 SWAP1 PUSH1 0x4 MUL ADD PUSH1 0x0 ADD PUSH1 0x0 SWAP1 SLOAD SWAP1 PUSH2 0x100 EXP SWAP1 DIV PUSH20 0xFFFFFFFFFFFFFFFFFFFFFFFFFFFFFFFFFFFFFFFF AND PUSH20 0xFFFFFFFFFFFFFFFFFFFFFFFFFFFFFFFFFFFFFFFF AND DUP2 MSTORE PUSH1 0x20 ADD DUP9 PUSH1 0x0 ADD MLOAD DUP2 MSTORE PUSH1 0x20 ADD DUP4 DUP2 MSTORE PUSH1 0x20 ADD PUSH1 0x0 DUP7 DUP2 SLOAD DUP2 LT PUSH2 0x1B69 JUMPI PUSH2 0x1B68 PUSH2 0x62E2 JUMP JUMPDEST JUMPDEST SWAP1 PUSH1 0x0 MSTORE PUSH1 0x20 PUSH1 0x0 KECCAK256 SWAP1 PUSH1 0x4 MUL ADD PUSH1 0x3 ADD DUP1 SLOAD DUP1 PUSH1 0x20 MUL PUSH1 0x20 ADD PUSH1 0x40 MLOAD SWAP1 DUP2 ADD PUSH1 0x40 MSTORE DUP1 SWAP3 SWAP2 SWAP1 DUP2 DUP2 MSTORE PUSH1 0x20 ADD PUSH1 0x0 SWAP1 JUMPDEST DUP3 DUP3 LT ISZERO PUSH2 0x1C46 JUMPI DUP4 DUP3 SWAP1 PUSH1 0x0 MSTORE PUSH1 0x20 PUSH1 0x0 KECCAK256 ADD DUP1 SLOAD PUSH2 0x1BB9 SWAP1 PUSH2 0x6340 JUMP JUMPDEST DUP1 PUSH1 0x1F ADD PUSH1 0x20 DUP1 SWAP2 DIV MUL PUSH1 0x20 ADD PUSH1 0x40 MLOAD SWAP1 DUP2 ADD PUSH1 0x40 MSTORE DUP1 SWAP3 SWAP2 SWAP1 DUP2 DUP2 MSTORE PUSH1 0x20 ADD DUP3 DUP1 SLOAD PUSH2 0x1BE5 SWAP1 PUSH2 0x6340 JUMP JUMPDEST DUP1 ISZERO PUSH2 0x1C32 JUMPI DUP1 PUSH1 0x1F LT PUSH2 0x1C07 JUMPI PUSH2 0x100 DUP1 DUP4 SLOAD DIV MUL DUP4 MSTORE SWAP2 PUSH1 0x20 ADD SWAP2 PUSH2 0x1C32 JUMP JUMPDEST DUP3 ADD SWAP2 SWAP1 PUSH1 0x0 MSTORE PUSH1 0x20 PUSH1 0x0 KECCAK256 SWAP1 JUMPDEST DUP2 SLOAD DUP2 MSTORE SWAP1 PUSH1 0x1 ADD SWAP1 PUSH1 0x20 ADD DUP1 DUP4 GT PUSH2 0x1C15 JUMPI DUP3 SWAP1 SUB PUSH1 0x1F AND DUP3 ADD SWAP2 JUMPDEST POP POP POP POP POP DUP2 MSTORE PUSH1 0x20 ADD SWAP1 PUSH1 0x1 ADD SWAP1 PUSH2 0x1B9A JUMP JUMPDEST POP POP POP POP DUP2 MSTORE POP SWAP1 POP PUSH1 0x0 DUP2 SWAP1 DUP1 PUSH1 0x1 DUP2 SLOAD ADD DUP1 DUP3 SSTORE DUP1 SWAP2 POP POP PUSH1 0x1 SWAP1 SUB SWAP1 PUSH1 0x0 MSTORE PUSH1 0x20 PUSH1 0x0 KECCAK256 SWAP1 PUSH1 0x4 MUL ADD PUSH1 0x0 SWAP1 SWAP2 SWAP1 SWAP2 SWAP1 SWAP2 POP PUSH1 0x0 DUP3 ADD MLOAD DUP2 PUSH1 0x0 ADD PUSH1 0x0 PUSH2 0x100 EXP DUP2 SLOAD DUP2 PUSH20 0xFFFFFFFFFFFFFFFFFFFFFFFFFFFFFFFFFFFFFFFF MUL NOT AND SWAP1 DUP4 PUSH20 0xFFFFFFFFFFFFFFFFFFFFFFFFFFFFFFFFFFFFFFFF AND MUL OR SWAP1 SSTORE POP PUSH1 0x20 DUP3 ADD MLOAD DUP2 PUSH1 0x1 ADD SWAP1 DUP2 PUSH2 0x1CD7 SWAP2 SWAP1 PUSH2 0x6E7A JUMP JUMPDEST POP PUSH1 0x40 DUP3 ADD MLOAD DUP2 PUSH1 0x2 ADD SWAP1 DUP2 PUSH2 0x1CED SWAP2 SWAP1 PUSH2 0x6E7A JUMP JUMPDEST POP PUSH1 0x60 DUP3 ADD MLOAD DUP2 PUSH1 0x3 ADD SWAP1 DUP1 MLOAD SWAP1 PUSH1 0x20 ADD SWAP1 PUSH2 0x1D0A SWAP3 SWAP2 SWAP1 PUSH2 0x5267 JUMP JUMPDEST POP POP POP POP POP POP JUMPDEST DUP1 DUP1 PUSH2 0x1D1C SWAP1 PUSH2 0x69A8 JUMP JUMPDEST SWAP2 POP POP PUSH2 0x1975 JUMP JUMPDEST POP PUSH1 0x3 PUSH1 0x0 SWAP1 SLOAD SWAP1 PUSH2 0x100 EXP SWAP1 DIV PUSH20 0xFFFFFFFFFFFFFFFFFFFFFFFFFFFFFFFFFFFFFFFF AND PUSH20 0xFFFFFFFFFFFFFFFFFFFFFFFFFFFFFFFFFFFFFFFF AND PUSH4 0xC47EBDDC CALLER DUP7 PUSH1 0x0 ADD MLOAD CALLER PUSH1 0x40 MLOAD DUP5 PUSH4 0xFFFFFFFF AND PUSH1 0xE0 SHL DUP2 MSTORE PUSH1 0x4 ADD PUSH2 0x1D88 SWAP4 SWAP3 SWAP2 SWAP1 PUSH2 0x6FE4 JUMP JUMPDEST PUSH1 0x0 PUSH1 0x40 MLOAD DUP1 DUP4 SUB DUP2 PUSH1 0x0 DUP8 DUP1 EXTCODESIZE ISZERO DUP1 ISZERO PUSH2 0x1DA2 JUMPI PUSH1 0x0 DUP1 REVERT JUMPDEST POP GAS CALL ISZERO DUP1 ISZERO PUSH2 0x1DB6 JUMPI RETURNDATASIZE PUSH1 0x0 DUP1 RETURNDATACOPY RETURNDATASIZE PUSH1 0x0 REVERT JUMPDEST POP POP POP POP JUMPDEST POP POP POP POP JUMP JUMPDEST PUSH1 0x0 PUSH1 0x1 PUSH1 0x0 SWAP1 SLOAD SWAP1 PUSH2 0x100 EXP SWAP1 DIV PUSH20 0xFFFFFFFFFFFFFFFFFFFFFFFFFFFFFFFFFFFFFFFF AND SWAP1 POP SWAP1 JUMP JUMPDEST DUP1 PUSH20 0xFFFFFFFFFFFFFFFFFFFFFFFFFFFFFFFFFFFFFFFF AND CALLER PUSH20 0xFFFFFFFFFFFFFFFFFFFFFFFFFFFFFFFFFFFFFFFF AND EQ DUP1 ISZERO PUSH2 0x1E62 JUMPI POP PUSH2 0x1E61 DUP2 DUP4 PUSH1 0x40 MLOAD DUP1 PUSH1 0x40 ADD PUSH1 0x40 MSTORE DUP1 PUSH1 0x8 DUP2 MSTORE PUSH1 0x20 ADD PUSH32 0x646F776E6C6F6164000000000000000000000000000000000000000000000000 DUP2 MSTORE POP PUSH2 0x49CC JUMP JUMPDEST JUMPDEST DUP1 ISZERO PUSH2 0x1F5A JUMPI POP PUSH1 0x40 MLOAD PUSH1 0x20 ADD PUSH2 0x1E78 SWAP1 PUSH2 0x6A3C JUMP JUMPDEST PUSH1 0x40 MLOAD PUSH1 0x20 DUP2 DUP4 SUB SUB DUP2 MSTORE SWAP1 PUSH1 0x40 MSTORE DUP1 MLOAD SWAP1 PUSH1 0x20 ADD KECCAK256 PUSH1 0x1 PUSH1 0x0 SWAP1 SLOAD SWAP1 PUSH2 0x100 EXP SWAP1 DIV PUSH20 0xFFFFFFFFFFFFFFFFFFFFFFFFFFFFFFFFFFFFFFFF AND PUSH20 0xFFFFFFFFFFFFFFFFFFFFFFFFFFFFFFFFFFFFFFFF AND PUSH3 0x438CEB DUP5 PUSH1 0x40 MLOAD DUP3 PUSH4 0xFFFFFFFF AND PUSH1 0xE0 SHL DUP2 MSTORE PUSH1 0x4 ADD PUSH2 0x1EE8 SWAP2 SWAP1 PUSH2 0x6A51 JUMP JUMPDEST PUSH1 0x0 PUSH1 0x40 MLOAD DUP1 DUP4 SUB DUP2 DUP7 GAS STATICCALL ISZERO DUP1 ISZERO PUSH2 0x1F05 JUMPI RETURNDATASIZE PUSH1 0x0 DUP1 RETURNDATACOPY RETURNDATASIZE PUSH1 0x0 REVERT JUMPDEST POP POP POP POP PUSH1 0x40 MLOAD RETURNDATASIZE PUSH1 0x0 DUP3 RETURNDATACOPY RETURNDATASIZE PUSH1 0x1F NOT PUSH1 0x1F DUP3 ADD AND DUP3 ADD DUP1 PUSH1 0x40 MSTORE POP DUP2 ADD SWAP1 PUSH2 0x1F2E SWAP2 SWAP1 PUSH2 0x6575 JUMP JUMPDEST PUSH1 0x20 ADD MLOAD PUSH1 0x40 MLOAD PUSH1 0x20 ADD PUSH2 0x1F42 SWAP2 SWAP1 PUSH2 0x65FA JUMP JUMPDEST PUSH1 0x40 MLOAD PUSH1 0x20 DUP2 DUP4 SUB SUB DUP2 MSTORE SWAP1 PUSH1 0x40 MSTORE DUP1 MLOAD SWAP1 PUSH1 0x20 ADD KECCAK256 EQ JUMPDEST ISZERO PUSH2 0x1FF1 JUMPI PUSH1 0x3 PUSH1 0x0 SWAP1 SLOAD SWAP1 PUSH2 0x100 EXP SWAP1 DIV PUSH20 0xFFFFFFFFFFFFFFFFFFFFFFFFFFFFFFFFFFFFFFFF AND PUSH20 0xFFFFFFFFFFFFFFFFFFFFFFFFFFFFFFFFFFFFFFFF AND PUSH4 0xC47EBDDC CALLER DUP5 DUP5 PUSH1 0x40 MLOAD DUP5 PUSH4 0xFFFFFFFF AND PUSH1 0xE0 SHL DUP2 MSTORE PUSH1 0x4 ADD PUSH2 0x1FBE SWAP4 SWAP3 SWAP2 SWAP1 PUSH2 0x7094 JUMP JUMPDEST PUSH1 0x0 PUSH1 0x40 MLOAD DUP1 DUP4 SUB DUP2 PUSH1 0x0 DUP8 DUP1 EXTCODESIZE ISZERO DUP1 ISZERO PUSH2 0x1FD8 JUMPI PUSH1 0x0 DUP1 REVERT JUMPDEST POP GAS CALL ISZERO DUP1 ISZERO PUSH2 0x1FEC JUMPI RETURNDATASIZE PUSH1 0x0 DUP1 RETURNDATACOPY RETURNDATASIZE PUSH1 0x0 REVERT JUMPDEST POP POP POP POP JUMPDEST POP POP JUMP JUMPDEST PUSH1 0x0 PUSH1 0x2 PUSH1 0x0 SWAP1 SLOAD SWAP1 PUSH2 0x100 EXP SWAP1 DIV PUSH20 0xFFFFFFFFFFFFFFFFFFFFFFFFFFFFFFFFFFFFFFFF AND SWAP1 POP SWAP1 JUMP JUMPDEST PUSH2 0x2029 DUP4 DUP4 PUSH2 0x1211 JUMP JUMPDEST DUP1 ISZERO PUSH2 0x20CD JUMPI POP PUSH1 0x4 PUSH1 0x0 SWAP1 SLOAD SWAP1 PUSH2 0x100 EXP SWAP1 DIV PUSH20 0xFFFFFFFFFFFFFFFFFFFFFFFFFFFFFFFFFFFFFFFF AND PUSH20 0xFFFFFFFFFFFFFFFFFFFFFFFFFFFFFFFFFFFFFFFF AND PUSH4 0xBDA49B1D DUP3 PUSH1 0x40 MLOAD DUP3 PUSH4 0xFFFFFFFF AND PUSH1 0xE0 SHL DUP2 MSTORE PUSH1 0x4 ADD PUSH2 0x208B SWAP2 SWAP1 PUSH2 0x717E JUMP JUMPDEST PUSH1 0x20 PUSH1 0x40 MLOAD DUP1 DUP4 SUB DUP2 DUP7 GAS STATICCALL ISZERO DUP1 ISZERO PUSH2 0x20A8 JUMPI RETURNDATASIZE PUSH1 0x0 DUP1 RETURNDATACOPY RETURNDATASIZE PUSH1 0x0 REVERT JUMPDEST POP POP POP POP PUSH1 0x40 MLOAD RETURNDATASIZE PUSH1 0x1F NOT PUSH1 0x1F DUP3 ADD AND DUP3 ADD DUP1 PUSH1 0x40 MSTORE POP DUP2 ADD SWAP1 PUSH2 0x20CC SWAP2 SWAP1 PUSH2 0x6AC6 JUMP JUMPDEST JUMPDEST ISZERO PUSH2 0x237E JUMPI PUSH1 0x0 JUMPDEST PUSH1 0x0 DUP1 SLOAD SWAP1 POP DUP2 LT ISZERO PUSH2 0x237C JUMPI PUSH1 0x4 PUSH1 0x0 SWAP1 SLOAD SWAP1 PUSH2 0x100 EXP SWAP1 DIV PUSH20 0xFFFFFFFFFFFFFFFFFFFFFFFFFFFFFFFFFFFFFFFF AND PUSH20 0xFFFFFFFFFFFFFFFFFFFFFFFFFFFFFFFFFFFFFFFF AND PUSH4 0x5C99C71B DUP6 PUSH1 0x0 DUP5 DUP2 SLOAD DUP2 LT PUSH2 0x2135 JUMPI PUSH2 0x2134 PUSH2 0x62E2 JUMP JUMPDEST JUMPDEST SWAP1 PUSH1 0x0 MSTORE PUSH1 0x20 PUSH1 0x0 KECCAK256 SWAP1 PUSH1 0x4 MUL ADD PUSH1 0x0 ADD PUSH1 0x0 SWAP1 SLOAD SWAP1 PUSH2 0x100 EXP SWAP1 DIV PUSH20 0xFFFFFFFFFFFFFFFFFFFFFFFFFFFFFFFFFFFFFFFF AND DUP7 PUSH1 0x0 DUP7 DUP2 SLOAD DUP2 LT PUSH2 0x217C JUMPI PUSH2 0x217B PUSH2 0x62E2 JUMP JUMPDEST JUMPDEST SWAP1 PUSH1 0x0 MSTORE PUSH1 0x20 PUSH1 0x0 KECCAK256 SWAP1 PUSH1 0x4 MUL ADD PUSH1 0x1 ADD PUSH1 0x40 MLOAD DUP6 PUSH4 0xFFFFFFFF AND PUSH1 0xE0 SHL DUP2 MSTORE PUSH1 0x4 ADD PUSH2 0x21AC SWAP5 SWAP4 SWAP3 SWAP2 SWAP1 PUSH2 0x6A73 JUMP JUMPDEST PUSH1 0x20 PUSH1 0x40 MLOAD DUP1 DUP4 SUB DUP2 DUP7 GAS STATICCALL ISZERO DUP1 ISZERO PUSH2 0x21C9 JUMPI RETURNDATASIZE PUSH1 0x0 DUP1 RETURNDATACOPY RETURNDATASIZE PUSH1 0x0 REVERT JUMPDEST POP POP POP POP PUSH1 0x40 MLOAD RETURNDATASIZE PUSH1 0x1F NOT PUSH1 0x1F DUP3 ADD AND DUP3 ADD DUP1 PUSH1 0x40 MSTORE POP DUP2 ADD SWAP1 PUSH2 0x21ED SWAP2 SWAP1 PUSH2 0x6AC6 JUMP JUMPDEST ISZERO PUSH2 0x2369 JUMPI DUP2 PUSH1 0x0 DUP3 DUP2 SLOAD DUP2 LT PUSH2 0x2207 JUMPI PUSH2 0x2206 PUSH2 0x62E2 JUMP JUMPDEST JUMPDEST SWAP1 PUSH1 0x0 MSTORE PUSH1 0x20 PUSH1 0x0 KECCAK256 SWAP1 PUSH1 0x4 MUL ADD PUSH1 0x3 ADD SWAP1 DUP1 MLOAD SWAP1 PUSH1 0x20 ADD SWAP1 PUSH2 0x222B SWAP3 SWAP2 SWAP1 PUSH2 0x5267 JUMP JUMPDEST POP PUSH1 0x3 PUSH1 0x0 SWAP1 SLOAD SWAP1 PUSH2 0x100 EXP SWAP1 DIV PUSH20 0xFFFFFFFFFFFFFFFFFFFFFFFFFFFFFFFFFFFFFFFF AND PUSH20 0xFFFFFFFFFFFFFFFFFFFFFFFFFFFFFFFFFFFFFFFF AND PUSH4 0xC47EBDDC CALLER DUP6 DUP8 PUSH1 0x4 PUSH1 0x0 SWAP1 SLOAD SWAP1 PUSH2 0x100 EXP SWAP1 DIV PUSH20 0xFFFFFFFFFFFFFFFFFFFFFFFFFFFFFFFFFFFFFFFF AND PUSH20 0xFFFFFFFFFFFFFFFFFFFFFFFFFFFFFFFFFFFFFFFF AND PUSH4 0x6BB8D768 DUP9 PUSH1 0x40 MLOAD DUP3 PUSH4 0xFFFFFFFF AND PUSH1 0xE0 SHL DUP2 MSTORE PUSH1 0x4 ADD PUSH2 0x22C8 SWAP2 SWAP1 PUSH2 0x717E JUMP JUMPDEST PUSH1 0x0 PUSH1 0x40 MLOAD DUP1 DUP4 SUB DUP2 DUP7 GAS STATICCALL ISZERO DUP1 ISZERO PUSH2 0x22E5 JUMPI RETURNDATASIZE PUSH1 0x0 DUP1 RETURNDATACOPY RETURNDATASIZE PUSH1 0x0 REVERT JUMPDEST POP POP POP POP PUSH1 0x40 MLOAD RETURNDATASIZE PUSH1 0x0 DUP3 RETURNDATACOPY RETURNDATASIZE PUSH1 0x1F NOT PUSH1 0x1F DUP3 ADD AND DUP3 ADD DUP1 PUSH1 0x40 MSTORE POP DUP2 ADD SWAP1 PUSH2 0x230E SWAP2 SWAP1 PUSH2 0x6575 JUMP JUMPDEST PUSH1 0x20 ADD MLOAD PUSH1 0x40 MLOAD DUP6 PUSH4 0xFFFFFFFF AND PUSH1 0xE0 SHL DUP2 MSTORE PUSH1 0x4 ADD PUSH2 0x2331 SWAP5 SWAP4 SWAP3 SWAP2 SWAP1 PUSH2 0x71EC JUMP JUMPDEST PUSH1 0x0 PUSH1 0x40 MLOAD DUP1 DUP4 SUB DUP2 PUSH1 0x0 DUP8 DUP1 EXTCODESIZE ISZERO DUP1 ISZERO PUSH2 0x234B JUMPI PUSH1 0x0 DUP1 REVERT JUMPDEST POP GAS CALL ISZERO DUP1 ISZERO PUSH2 0x235F JUMPI RETURNDATASIZE PUSH1 0x0 DUP1 RETURNDATACOPY RETURNDATASIZE PUSH1 0x0 REVERT JUMPDEST POP POP POP POP POP PUSH2 0x237F JUMP JUMPDEST DUP1 DUP1 PUSH2 0x2374 SWAP1 PUSH2 0x69A8 JUMP JUMPDEST SWAP2 POP POP PUSH2 0x20D5 JUMP JUMPDEST POP JUMPDEST JUMPDEST POP POP POP JUMP JUMPDEST PUSH2 0x238C PUSH2 0x52C0 JUMP JUMPDEST DUP3 PUSH20 0xFFFFFFFFFFFFFFFFFFFFFFFFFFFFFFFFFFFFFFFF AND CALLER PUSH20 0xFFFFFFFFFFFFFFFFFFFFFFFFFFFFFFFFFFFFFFFF AND EQ DUP1 ISZERO PUSH2 0x23CD JUMPI POP PUSH2 0x23CC DUP4 DUP4 PUSH2 0x105F JUMP JUMPDEST JUMPDEST DUP1 ISZERO PUSH2 0x25BC JUMPI POP PUSH1 0x40 MLOAD PUSH1 0x20 ADD PUSH2 0x23E3 SWAP1 PUSH2 0x6A3C JUMP JUMPDEST PUSH1 0x40 MLOAD PUSH1 0x20 DUP2 DUP4 SUB SUB DUP2 MSTORE SWAP1 PUSH1 0x40 MSTORE DUP1 MLOAD SWAP1 PUSH1 0x20 ADD KECCAK256 PUSH1 0x1 PUSH1 0x0 SWAP1 SLOAD SWAP1 PUSH2 0x100 EXP SWAP1 DIV PUSH20 0xFFFFFFFFFFFFFFFFFFFFFFFFFFFFFFFFFFFFFFFF AND PUSH20 0xFFFFFFFFFFFFFFFFFFFFFFFFFFFFFFFFFFFFFFFF AND PUSH3 0x438CEB DUP5 PUSH1 0x40 MLOAD DUP3 PUSH4 0xFFFFFFFF AND PUSH1 0xE0 SHL DUP2 MSTORE PUSH1 0x4 ADD PUSH2 0x2453 SWAP2 SWAP1 PUSH2 0x6A51 JUMP JUMPDEST PUSH1 0x0 PUSH1 0x40 MLOAD DUP1 DUP4 SUB DUP2 DUP7 GAS STATICCALL ISZERO DUP1 ISZERO PUSH2 0x2470 JUMPI RETURNDATASIZE PUSH1 0x0 DUP1 RETURNDATACOPY RETURNDATASIZE PUSH1 0x0 REVERT JUMPDEST POP POP POP POP PUSH1 0x40 MLOAD RETURNDATASIZE PUSH1 0x0 DUP3 RETURNDATACOPY RETURNDATASIZE PUSH1 0x1F NOT PUSH1 0x1F DUP3 ADD AND DUP3 ADD DUP1 PUSH1 0x40 MSTORE POP DUP2 ADD SWAP1 PUSH2 0x2499 SWAP2 SWAP1 PUSH2 0x6575 JUMP JUMPDEST PUSH1 0x20 ADD MLOAD PUSH1 0x40 MLOAD PUSH1 0x20 ADD PUSH2 0x24AD SWAP2 SWAP1 PUSH2 0x65FA JUMP JUMPDEST PUSH1 0x40 MLOAD PUSH1 0x20 DUP2 DUP4 SUB SUB DUP2 MSTORE SWAP1 PUSH1 0x40 MSTORE DUP1 MLOAD SWAP1 PUSH1 0x20 ADD KECCAK256 EQ DUP1 PUSH2 0x25BB JUMPI POP PUSH1 0x40 MLOAD PUSH1 0x20 ADD PUSH2 0x24D9 SWAP1 PUSH2 0x729E JUMP JUMPDEST PUSH1 0x40 MLOAD PUSH1 0x20 DUP2 DUP4 SUB SUB DUP2 MSTORE SWAP1 PUSH1 0x40 MSTORE DUP1 MLOAD SWAP1 PUSH1 0x20 ADD KECCAK256 PUSH1 0x1 PUSH1 0x0 SWAP1 SLOAD SWAP1 PUSH2 0x100 EXP SWAP1 DIV PUSH20 0xFFFFFFFFFFFFFFFFFFFFFFFFFFFFFFFFFFFFFFFF AND PUSH20 0xFFFFFFFFFFFFFFFFFFFFFFFFFFFFFFFFFFFFFFFF AND PUSH3 0x438CEB DUP5 PUSH1 0x40 MLOAD DUP3 PUSH4 0xFFFFFFFF AND PUSH1 0xE0 SHL DUP2 MSTORE PUSH1 0x4 ADD PUSH2 0x2549 SWAP2 SWAP1 PUSH2 0x6A51 JUMP JUMPDEST PUSH1 0x0 PUSH1 0x40 MLOAD DUP1 DUP4 SUB DUP2 DUP7 GAS STATICCALL ISZERO DUP1 ISZERO PUSH2 0x2566 JUMPI RETURNDATASIZE PUSH1 0x0 DUP1 RETURNDATACOPY RETURNDATASIZE PUSH1 0x0 REVERT JUMPDEST POP POP POP POP PUSH1 0x40 MLOAD RETURNDATASIZE PUSH1 0x0 DUP3 RETURNDATACOPY RETURNDATASIZE PUSH1 0x1F NOT PUSH1 0x1F DUP3 ADD AND DUP3 ADD DUP1 PUSH1 0x40 MSTORE POP DUP2 ADD SWAP1 PUSH2 0x258F SWAP2 SWAP1 PUSH2 0x6575 JUMP JUMPDEST PUSH1 0x20 ADD MLOAD PUSH1 0x40 MLOAD PUSH1 0x20 ADD PUSH2 0x25A3 SWAP2 SWAP1 PUSH2 0x65FA JUMP JUMPDEST PUSH1 0x40 MLOAD PUSH1 0x20 DUP2 DUP4 SUB SUB DUP2 MSTORE SWAP1 PUSH1 0x40 MSTORE DUP1 MLOAD SWAP1 PUSH1 0x20 ADD KECCAK256 EQ JUMPDEST JUMPDEST ISZERO PUSH2 0x27D8 JUMPI PUSH1 0x0 JUMPDEST PUSH1 0x0 DUP1 SLOAD SWAP1 POP DUP2 LT ISZERO PUSH2 0x27D6 JUMPI PUSH1 0x4 PUSH1 0x0 SWAP1 SLOAD SWAP1 PUSH2 0x100 EXP SWAP1 DIV PUSH20 0xFFFFFFFFFFFFFFFFFFFFFFFFFFFFFFFFFFFFFFFF AND PUSH20 0xFFFFFFFFFFFFFFFFFFFFFFFFFFFFFFFFFFFFFFFF AND PUSH4 0x5C99C71B DUP6 PUSH1 0x0 DUP5 DUP2 SLOAD DUP2 LT PUSH2 0x2624 JUMPI PUSH2 0x2623 PUSH2 0x62E2 JUMP JUMPDEST JUMPDEST SWAP1 PUSH1 0x0 MSTORE PUSH1 0x20 PUSH1 0x0 KECCAK256 SWAP1 PUSH1 0x4 MUL ADD PUSH1 0x0 ADD PUSH1 0x0 SWAP1 SLOAD SWAP1 PUSH2 0x100 EXP SWAP1 DIV PUSH20 0xFFFFFFFFFFFFFFFFFFFFFFFFFFFFFFFFFFFFFFFF AND DUP7 PUSH1 0x0 DUP7 DUP2 SLOAD DUP2 LT PUSH2 0x266B JUMPI PUSH2 0x266A PUSH2 0x62E2 JUMP JUMPDEST JUMPDEST SWAP1 PUSH1 0x0 MSTORE PUSH1 0x20 PUSH1 0x0 KECCAK256 SWAP1 PUSH1 0x4 MUL ADD PUSH1 0x1 ADD PUSH1 0x40 MLOAD DUP6 PUSH4 0xFFFFFFFF AND PUSH1 0xE0 SHL DUP2 MSTORE PUSH1 0x4 ADD PUSH2 0x269B SWAP5 SWAP4 SWAP3 SWAP2 SWAP1 PUSH2 0x6A73 JUMP JUMPDEST PUSH1 0x20 PUSH1 0x40 MLOAD DUP1 DUP4 SUB DUP2 DUP7 GAS STATICCALL ISZERO DUP1 ISZERO PUSH2 0x26B8 JUMPI RETURNDATASIZE PUSH1 0x0 DUP1 RETURNDATACOPY RETURNDATASIZE PUSH1 0x0 REVERT JUMPDEST POP POP POP POP PUSH1 0x40 MLOAD RETURNDATASIZE PUSH1 0x1F NOT PUSH1 0x1F DUP3 ADD AND DUP3 ADD DUP1 PUSH1 0x40 MSTORE POP DUP2 ADD SWAP1 PUSH2 0x26DC SWAP2 SWAP1 PUSH2 0x6AC6 JUMP JUMPDEST ISZERO PUSH2 0x27C3 JUMPI PUSH1 0x40 MLOAD DUP1 PUSH1 0x60 ADD PUSH1 0x40 MSTORE DUP1 PUSH1 0x1 ISZERO ISZERO DUP2 MSTORE PUSH1 0x20 ADD PUSH1 0x0 DUP4 DUP2 SLOAD DUP2 LT PUSH2 0x2709 JUMPI PUSH2 0x2708 PUSH2 0x62E2 JUMP JUMPDEST JUMPDEST SWAP1 PUSH1 0x0 MSTORE PUSH1 0x20 PUSH1 0x0 KECCAK256 SWAP1 PUSH1 0x4 MUL ADD PUSH1 0x2 ADD DUP1 SLOAD PUSH2 0x2725 SWAP1 PUSH2 0x6340 JUMP JUMPDEST DUP1 PUSH1 0x1F ADD PUSH1 0x20 DUP1 SWAP2 DIV MUL PUSH1 0x20 ADD PUSH1 0x40 MLOAD SWAP1 DUP2 ADD PUSH1 0x40 MSTORE DUP1 SWAP3 SWAP2 SWAP1 DUP2 DUP2 MSTORE PUSH1 0x20 ADD DUP3 DUP1 SLOAD PUSH2 0x2751 SWAP1 PUSH2 0x6340 JUMP JUMPDEST DUP1 ISZERO PUSH2 0x279E JUMPI DUP1 PUSH1 0x1F LT PUSH2 0x2773 JUMPI PUSH2 0x100 DUP1 DUP4 SLOAD DIV MUL DUP4 MSTORE SWAP2 PUSH1 0x20 ADD SWAP2 PUSH2 0x279E JUMP JUMPDEST DUP3 ADD SWAP2 SWAP1 PUSH1 0x0 MSTORE PUSH1 0x20 PUSH1 0x0 KECCAK256 SWAP1 JUMPDEST DUP2 SLOAD DUP2 MSTORE SWAP1 PUSH1 0x1 ADD SWAP1 PUSH1 0x20 ADD DUP1 DUP4 GT PUSH2 0x2781 JUMPI DUP3 SWAP1 SUB PUSH1 0x1F AND DUP3 ADD SWAP2 JUMPDEST POP POP POP POP POP DUP2 MSTORE PUSH1 0x20 ADD PUSH1 0x40 MLOAD DUP1 PUSH1 0x20 ADD PUSH1 0x40 MSTORE DUP1 PUSH1 0x0 DUP2 MSTORE POP DUP2 MSTORE POP SWAP2 POP POP PUSH2 0x2820 JUMP JUMPDEST DUP1 DUP1 PUSH2 0x27CE SWAP1 PUSH2 0x69A8 JUMP JUMPDEST SWAP2 POP POP PUSH2 0x25C4 JUMP JUMPDEST POP JUMPDEST PUSH1 0x40 MLOAD DUP1 PUSH1 0x60 ADD PUSH1 0x40 MSTORE DUP1 PUSH1 0x0 ISZERO ISZERO DUP2 MSTORE PUSH1 0x20 ADD PUSH1 0x40 MLOAD DUP1 PUSH1 0x20 ADD PUSH1 0x40 MSTORE DUP1 PUSH1 0x0 DUP2 MSTORE POP DUP2 MSTORE PUSH1 0x20 ADD PUSH1 0x40 MLOAD DUP1 PUSH1 0xE0 ADD PUSH1 0x40 MSTORE DUP1 PUSH1 0xA4 DUP2 MSTORE PUSH1 0x20 ADD PUSH2 0x7CF2 PUSH1 0xA4 SWAP2 CODECOPY DUP2 MSTORE POP SWAP1 POP JUMPDEST SWAP3 SWAP2 POP POP JUMP JUMPDEST PUSH1 0x0 JUMPDEST PUSH1 0x0 DUP1 SLOAD SWAP1 POP DUP2 LT ISZERO PUSH2 0x2BC6 JUMPI PUSH1 0x0 PUSH1 0x1 PUSH1 0x0 SWAP1 SLOAD SWAP1 PUSH2 0x100 EXP SWAP1 DIV PUSH20 0xFFFFFFFFFFFFFFFFFFFFFFFFFFFFFFFFFFFFFFFF AND PUSH20 0xFFFFFFFFFFFFFFFFFFFFFFFFFFFFFFFFFFFFFFFF AND PUSH4 0xF880680B PUSH1 0x0 DUP5 DUP2 SLOAD DUP2 LT PUSH2 0x288A JUMPI PUSH2 0x2889 PUSH2 0x62E2 JUMP JUMPDEST JUMPDEST SWAP1 PUSH1 0x0 MSTORE PUSH1 0x20 PUSH1 0x0 KECCAK256 SWAP1 PUSH1 0x4 MUL ADD PUSH1 0x1 ADD PUSH1 0x40 MLOAD DUP3 PUSH4 0xFFFFFFFF AND PUSH1 0xE0 SHL DUP2 MSTORE PUSH1 0x4 ADD PUSH2 0x28B7 SWAP2 SWAP1 PUSH2 0x641B JUMP JUMPDEST PUSH1 0x0 PUSH1 0x40 MLOAD DUP1 DUP4 SUB DUP2 DUP7 GAS STATICCALL ISZERO DUP1 ISZERO PUSH2 0x28D4 JUMPI RETURNDATASIZE PUSH1 0x0 DUP1 RETURNDATACOPY RETURNDATASIZE PUSH1 0x0 REVERT JUMPDEST POP POP POP POP PUSH1 0x40 MLOAD RETURNDATASIZE PUSH1 0x0 DUP3 RETURNDATACOPY RETURNDATASIZE PUSH1 0x1F NOT PUSH1 0x1F DUP3 ADD AND DUP3 ADD DUP1 PUSH1 0x40 MSTORE POP DUP2 ADD SWAP1 PUSH2 0x28FD SWAP2 SWAP1 PUSH2 0x6575 JUMP JUMPDEST PUSH1 0x20 ADD MLOAD SWAP1 POP PUSH1 0x0 PUSH1 0x1 PUSH1 0x0 SWAP1 SLOAD SWAP1 PUSH2 0x100 EXP SWAP1 DIV PUSH20 0xFFFFFFFFFFFFFFFFFFFFFFFFFFFFFFFFFFFFFFFF AND PUSH20 0xFFFFFFFFFFFFFFFFFFFFFFFFFFFFFFFFFFFFFFFF AND PUSH3 0x438CEB PUSH1 0x0 DUP6 DUP2 SLOAD DUP2 LT PUSH2 0x2956 JUMPI PUSH2 0x2955 PUSH2 0x62E2 JUMP JUMPDEST JUMPDEST SWAP1 PUSH1 0x0 MSTORE PUSH1 0x20 PUSH1 0x0 KECCAK256 SWAP1 PUSH1 0x4 MUL ADD PUSH1 0x1 ADD PUSH1 0x40 MLOAD DUP3 PUSH4 0xFFFFFFFF AND PUSH1 0xE0 SHL DUP2 MSTORE PUSH1 0x4 ADD PUSH2 0x2983 SWAP2 SWAP1 PUSH2 0x641B JUMP JUMPDEST PUSH1 0x0 PUSH1 0x40 MLOAD DUP1 DUP4 SUB DUP2 DUP7 GAS STATICCALL ISZERO DUP1 ISZERO PUSH2 0x29A0 JUMPI RETURNDATASIZE PUSH1 0x0 DUP1 RETURNDATACOPY RETURNDATASIZE PUSH1 0x0 REVERT JUMPDEST POP POP POP POP PUSH1 0x40 MLOAD RETURNDATASIZE PUSH1 0x0 DUP3 RETURNDATACOPY RETURNDATASIZE PUSH1 0x1F NOT PUSH1 0x1F DUP3 ADD AND DUP3 ADD DUP1 PUSH1 0x40 MSTORE POP DUP2 ADD SWAP1 PUSH2 0x29C9 SWAP2 SWAP1 PUSH2 0x6575 JUMP JUMPDEST PUSH1 0x20 ADD MLOAD SWAP1 POP DUP5 PUSH20 0xFFFFFFFFFFFFFFFFFFFFFFFFFFFFFFFFFFFFFFFF AND PUSH1 0x0 DUP5 DUP2 SLOAD DUP2 LT PUSH2 0x29FA JUMPI PUSH2 0x29F9 PUSH2 0x62E2 JUMP JUMPDEST JUMPDEST SWAP1 PUSH1 0x0 MSTORE PUSH1 0x20 PUSH1 0x0 KECCAK256 SWAP1 PUSH1 0x4 MUL ADD PUSH1 0x0 ADD PUSH1 0x0 SWAP1 SLOAD SWAP1 PUSH2 0x100 EXP SWAP1 DIV PUSH20 0xFFFFFFFFFFFFFFFFFFFFFFFFFFFFFFFFFFFFFFFF AND PUSH20 0xFFFFFFFFFFFFFFFFFFFFFFFFFFFFFFFFFFFFFFFF AND EQ DUP1 ISZERO PUSH2 0x2A9A JUMPI POP DUP4 PUSH1 0x40 MLOAD PUSH1 0x20 ADD PUSH2 0x2A5B SWAP2 SWAP1 PUSH2 0x65FA JUMP JUMPDEST PUSH1 0x40 MLOAD PUSH1 0x20 DUP2 DUP4 SUB SUB DUP2 MSTORE SWAP1 PUSH1 0x40 MSTORE DUP1 MLOAD SWAP1 PUSH1 0x20 ADD KECCAK256 DUP3 PUSH1 0x40 MLOAD PUSH1 0x20 ADD PUSH2 0x2A82 SWAP2 SWAP1 PUSH2 0x65FA JUMP JUMPDEST PUSH1 0x40 MLOAD PUSH1 0x20 DUP2 DUP4 SUB SUB DUP2 MSTORE SWAP1 PUSH1 0x40 MSTORE DUP1 MLOAD SWAP1 PUSH1 0x20 ADD KECCAK256 EQ JUMPDEST DUP1 ISZERO PUSH2 0x2AEF JUMPI POP PUSH1 0x40 MLOAD PUSH1 0x20 ADD PUSH2 0x2AB0 SWAP1 PUSH2 0x6A3C JUMP JUMPDEST PUSH1 0x40 MLOAD PUSH1 0x20 DUP2 DUP4 SUB SUB DUP2 MSTORE SWAP1 PUSH1 0x40 MSTORE DUP1 MLOAD SWAP1 PUSH1 0x20 ADD KECCAK256 DUP2 PUSH1 0x40 MLOAD PUSH1 0x20 ADD PUSH2 0x2AD7 SWAP2 SWAP1 PUSH2 0x65FA JUMP JUMPDEST PUSH1 0x40 MLOAD PUSH1 0x20 DUP2 DUP4 SUB SUB DUP2 MSTORE SWAP1 PUSH1 0x40 MSTORE DUP1 MLOAD SWAP1 PUSH1 0x20 ADD KECCAK256 EQ JUMPDEST ISZERO PUSH2 0x2BB1 JUMPI PUSH1 0x3 PUSH1 0x0 SWAP1 SLOAD SWAP1 PUSH2 0x100 EXP SWAP1 DIV PUSH20 0xFFFFFFFFFFFFFFFFFFFFFFFFFFFFFFFFFFFFFFFF AND PUSH20 0xFFFFFFFFFFFFFFFFFFFFFFFFFFFFFFFFFFFFFFFF AND PUSH4 0xC47EBDDC CALLER PUSH1 0x0 DUP7 DUP2 SLOAD DUP2 LT PUSH2 0x2B47 JUMPI PUSH2 0x2B46 PUSH2 0x62E2 JUMP JUMPDEST JUMPDEST SWAP1 PUSH1 0x0 MSTORE PUSH1 0x20 PUSH1 0x0 KECCAK256 SWAP1 PUSH1 0x4 MUL ADD PUSH1 0x1 ADD DUP9 PUSH1 0x40 MLOAD DUP5 PUSH4 0xFFFFFFFF AND PUSH1 0xE0 SHL DUP2 MSTORE PUSH1 0x4 ADD PUSH2 0x2B77 SWAP4 SWAP3 SWAP2 SWAP1 PUSH2 0x72FF JUMP JUMPDEST PUSH1 0x0 PUSH1 0x40 MLOAD DUP1 DUP4 SUB DUP2 PUSH1 0x0 DUP8 DUP1 EXTCODESIZE ISZERO DUP1 ISZERO PUSH2 0x2B91 JUMPI PUSH1 0x0 DUP1 REVERT JUMPDEST POP GAS CALL ISZERO DUP1 ISZERO PUSH2 0x2BA5 JUMPI RETURNDATASIZE PUSH1 0x0 DUP1 RETURNDATACOPY RETURNDATASIZE PUSH1 0x0 REVERT JUMPDEST POP POP POP POP POP POP POP PUSH2 0x2BC8 JUMP JUMPDEST POP POP DUP1 DUP1 PUSH2 0x2BBE SWAP1 PUSH2 0x69A8 JUMP JUMPDEST SWAP2 POP POP PUSH2 0x2829 JUMP JUMPDEST POP JUMPDEST POP POP JUMP JUMPDEST PUSH1 0x0 DUP3 PUSH20 0xFFFFFFFFFFFFFFFFFFFFFFFFFFFFFFFFFFFFFFFF AND CALLER PUSH20 0xFFFFFFFFFFFFFFFFFFFFFFFFFFFFFFFFFFFFFFFF AND EQ ISZERO DUP1 ISZERO PUSH2 0x2CA5 JUMPI POP PUSH1 0x1 PUSH1 0x0 SWAP1 SLOAD SWAP1 PUSH2 0x100 EXP SWAP1 DIV PUSH20 0xFFFFFFFFFFFFFFFFFFFFFFFFFFFFFFFFFFFFFFFF AND PUSH20 0xFFFFFFFFFFFFFFFFFFFFFFFFFFFFFFFFFFFFFFFF AND PUSH4 0x52A9BAEF DUP5 DUP5 PUSH1 0x40 MLOAD DUP4 PUSH4 0xFFFFFFFF AND PUSH1 0xE0 SHL DUP2 MSTORE PUSH1 0x4 ADD PUSH2 0x2C62 SWAP3 SWAP2 SWAP1 PUSH2 0x6AF3 JUMP JUMPDEST PUSH1 0x20 PUSH1 0x40 MLOAD DUP1 DUP4 SUB DUP2 DUP7 GAS STATICCALL ISZERO DUP1 ISZERO PUSH2 0x2C7F JUMPI RETURNDATASIZE PUSH1 0x0 DUP1 RETURNDATACOPY RETURNDATASIZE PUSH1 0x0 REVERT JUMPDEST POP POP POP POP PUSH1 0x40 MLOAD RETURNDATASIZE PUSH1 0x1F NOT PUSH1 0x1F DUP3 ADD AND DUP3 ADD DUP1 PUSH1 0x40 MSTORE POP DUP2 ADD SWAP1 PUSH2 0x2CA3 SWAP2 SWAP1 PUSH2 0x6AC6 JUMP JUMPDEST ISZERO JUMPDEST DUP1 ISZERO PUSH2 0x2CED JUMPI POP PUSH2 0x2CEC CALLER DUP4 PUSH1 0x40 MLOAD DUP1 PUSH1 0x40 ADD PUSH1 0x40 MSTORE DUP1 PUSH1 0x5 DUP2 MSTORE PUSH1 0x20 ADD PUSH32 0x7368617265000000000000000000000000000000000000000000000000000000 DUP2 MSTORE POP PUSH2 0x49CC JUMP JUMPDEST JUMPDEST DUP1 ISZERO PUSH2 0x2D00 JUMPI POP PUSH2 0x2CFE DUP4 DUP4 PUSH2 0x105F JUMP JUMPDEST ISZERO JUMPDEST DUP1 ISZERO PUSH2 0x2DA4 JUMPI POP PUSH1 0x1 PUSH1 0x0 SWAP1 SLOAD SWAP1 PUSH2 0x100 EXP SWAP1 DIV PUSH20 0xFFFFFFFFFFFFFFFFFFFFFFFFFFFFFFFFFFFFFFFF AND PUSH20 0xFFFFFFFFFFFFFFFFFFFFFFFFFFFFFFFFFFFFFFFF AND PUSH4 0x9BCCD6AD DUP4 PUSH1 0x40 MLOAD DUP3 PUSH4 0xFFFFFFFF AND PUSH1 0xE0 SHL DUP2 MSTORE PUSH1 0x4 ADD PUSH2 0x2D62 SWAP2 SWAP1 PUSH2 0x6A51 JUMP JUMPDEST PUSH1 0x20 PUSH1 0x40 MLOAD DUP1 DUP4 SUB DUP2 DUP7 GAS STATICCALL ISZERO DUP1 ISZERO PUSH2 0x2D7F JUMPI RETURNDATASIZE PUSH1 0x0 DUP1 RETURNDATACOPY RETURNDATASIZE PUSH1 0x0 REVERT JUMPDEST POP POP POP POP PUSH1 0x40 MLOAD RETURNDATASIZE PUSH1 0x1F NOT PUSH1 0x1F DUP3 ADD AND DUP3 ADD DUP1 PUSH1 0x40 MSTORE POP DUP2 ADD SWAP1 PUSH2 0x2DA3 SWAP2 SWAP1 PUSH2 0x6AC6 JUMP JUMPDEST JUMPDEST DUP1 ISZERO PUSH2 0x2E9C JUMPI POP PUSH1 0x40 MLOAD PUSH1 0x20 ADD PUSH2 0x2DBA SWAP1 PUSH2 0x6A3C JUMP JUMPDEST PUSH1 0x40 MLOAD PUSH1 0x20 DUP2 DUP4 SUB SUB DUP2 MSTORE SWAP1 PUSH1 0x40 MSTORE DUP1 MLOAD SWAP1 PUSH1 0x20 ADD KECCAK256 PUSH1 0x1 PUSH1 0x0 SWAP1 SLOAD SWAP1 PUSH2 0x100 EXP SWAP1 DIV PUSH20 0xFFFFFFFFFFFFFFFFFFFFFFFFFFFFFFFFFFFFFFFF AND PUSH20 0xFFFFFFFFFFFFFFFFFFFFFFFFFFFFFFFFFFFFFFFF AND PUSH3 0x438CEB DUP5 PUSH1 0x40 MLOAD DUP3 PUSH4 0xFFFFFFFF AND PUSH1 0xE0 SHL DUP2 MSTORE PUSH1 0x4 ADD PUSH2 0x2E2A SWAP2 SWAP1 PUSH2 0x6A51 JUMP JUMPDEST PUSH1 0x0 PUSH1 0x40 MLOAD DUP1 DUP4 SUB DUP2 DUP7 GAS STATICCALL ISZERO DUP1 ISZERO PUSH2 0x2E47 JUMPI RETURNDATASIZE PUSH1 0x0 DUP1 RETURNDATACOPY RETURNDATASIZE PUSH1 0x0 REVERT JUMPDEST POP POP POP POP PUSH1 0x40 MLOAD RETURNDATASIZE PUSH1 0x0 DUP3 RETURNDATACOPY RETURNDATASIZE PUSH1 0x1F NOT PUSH1 0x1F DUP3 ADD AND DUP3 ADD DUP1 PUSH1 0x40 MSTORE POP DUP2 ADD SWAP1 PUSH2 0x2E70 SWAP2 SWAP1 PUSH2 0x6575 JUMP JUMPDEST PUSH1 0x20 ADD MLOAD PUSH1 0x40 MLOAD PUSH1 0x20 ADD PUSH2 0x2E84 SWAP2 SWAP1 PUSH2 0x65FA JUMP JUMPDEST PUSH1 0x40 MLOAD PUSH1 0x20 DUP2 DUP4 SUB SUB DUP2 MSTORE SWAP1 PUSH1 0x40 MSTORE DUP1 MLOAD SWAP1 PUSH1 0x20 ADD KECCAK256 EQ JUMPDEST DUP1 ISZERO PUSH2 0x2F40 JUMPI POP PUSH1 0x2 PUSH1 0x0 SWAP1 SLOAD SWAP1 PUSH2 0x100 EXP SWAP1 DIV PUSH20 0xFFFFFFFFFFFFFFFFFFFFFFFFFFFFFFFFFFFFFFFF AND PUSH20 0xFFFFFFFFFFFFFFFFFFFFFFFFFFFFFFFFFFFFFFFF AND PUSH4 0xA240E426 DUP5 PUSH1 0x40 MLOAD DUP3 PUSH4 0xFFFFFFFF AND PUSH1 0xE0 SHL DUP2 MSTORE PUSH1 0x4 ADD PUSH2 0x2EFE SWAP2 SWAP1 PUSH2 0x6021 JUMP JUMPDEST PUSH1 0x20 PUSH1 0x40 MLOAD DUP1 DUP4 SUB DUP2 DUP7 GAS STATICCALL ISZERO DUP1 ISZERO PUSH2 0x2F1B JUMPI RETURNDATASIZE PUSH1 0x0 DUP1 RETURNDATACOPY RETURNDATASIZE PUSH1 0x0 REVERT JUMPDEST POP POP POP POP PUSH1 0x40 MLOAD RETURNDATASIZE PUSH1 0x1F NOT PUSH1 0x1F DUP3 ADD AND DUP3 ADD DUP1 PUSH1 0x40 MSTORE POP DUP2 ADD SWAP1 PUSH2 0x2F3F SWAP2 SWAP1 PUSH2 0x6AC6 JUMP JUMPDEST JUMPDEST ISZERO PUSH2 0x2F4E JUMPI PUSH1 0x1 SWAP1 POP PUSH2 0x2F53 JUMP JUMPDEST PUSH1 0x0 SWAP1 POP JUMPDEST SWAP3 SWAP2 POP POP JUMP JUMPDEST PUSH1 0x0 PUSH1 0x3 PUSH1 0x0 SWAP1 SLOAD SWAP1 PUSH2 0x100 EXP SWAP1 DIV PUSH20 0xFFFFFFFFFFFFFFFFFFFFFFFFFFFFFFFFFFFFFFFF AND SWAP1 POP SWAP1 JUMP JUMPDEST PUSH1 0x0 DUP1 PUSH1 0x1 PUSH1 0x0 SWAP1 SLOAD SWAP1 PUSH2 0x100 EXP SWAP1 DIV PUSH20 0xFFFFFFFFFFFFFFFFFFFFFFFFFFFFFFFFFFFFFFFF AND PUSH20 0xFFFFFFFFFFFFFFFFFFFFFFFFFFFFFFFFFFFFFFFF AND PUSH4 0x922243AD DUP5 PUSH1 0x40 MLOAD DUP3 PUSH4 0xFFFFFFFF AND PUSH1 0xE0 SHL DUP2 MSTORE PUSH1 0x4 ADD PUSH2 0x2FE1 SWAP2 SWAP1 PUSH2 0x6A51 JUMP JUMPDEST PUSH1 0x0 PUSH1 0x40 MLOAD DUP1 DUP4 SUB DUP2 DUP7 GAS STATICCALL ISZERO DUP1 ISZERO PUSH2 0x2FFE JUMPI RETURNDATASIZE PUSH1 0x0 DUP1 RETURNDATACOPY RETURNDATASIZE PUSH1 0x0 REVERT JUMPDEST POP POP POP POP PUSH1 0x40 MLOAD RETURNDATASIZE PUSH1 0x0 DUP3 RETURNDATACOPY RETURNDATASIZE PUSH1 0x1F NOT PUSH1 0x1F DUP3 ADD AND DUP3 ADD DUP1 PUSH1 0x40 MSTORE POP DUP2 ADD SWAP1 PUSH2 0x3027 SWAP2 SWAP1 PUSH2 0x74B4 JUMP JUMPDEST PUSH1 0x20 ADD MLOAD SWAP1 POP PUSH1 0x0 JUMPDEST PUSH1 0x0 DUP1 SLOAD SWAP1 POP DUP2 LT ISZERO PUSH2 0x318A JUMPI PUSH1 0x0 JUMPDEST DUP3 MLOAD DUP2 LT ISZERO PUSH2 0x3176 JUMPI DUP6 PUSH20 0xFFFFFFFFFFFFFFFFFFFFFFFFFFFFFFFFFFFFFFFF AND PUSH1 0x0 DUP4 DUP2 SLOAD DUP2 LT PUSH2 0x3074 JUMPI PUSH2 0x3073 PUSH2 0x62E2 JUMP JUMPDEST JUMPDEST SWAP1 PUSH1 0x0 MSTORE PUSH1 0x20 PUSH1 0x0 KECCAK256 SWAP1 PUSH1 0x4 MUL ADD PUSH1 0x0 ADD PUSH1 0x0 SWAP1 SLOAD SWAP1 PUSH2 0x100 EXP SWAP1 DIV PUSH20 0xFFFFFFFFFFFFFFFFFFFFFFFFFFFFFFFFFFFFFFFF AND PUSH20 0xFFFFFFFFFFFFFFFFFFFFFFFFFFFFFFFFFFFFFFFF AND EQ DUP1 ISZERO PUSH2 0x3152 JUMPI POP DUP3 DUP2 DUP2 MLOAD DUP2 LT PUSH2 0x30D7 JUMPI PUSH2 0x30D6 PUSH2 0x62E2 JUMP JUMPDEST JUMPDEST PUSH1 0x20 MUL PUSH1 0x20 ADD ADD MLOAD PUSH1 0x40 MLOAD PUSH1 0x20 ADD PUSH2 0x30EF SWAP2 SWAP1 PUSH2 0x65FA JUMP JUMPDEST PUSH1 0x40 MLOAD PUSH1 0x20 DUP2 DUP4 SUB SUB DUP2 MSTORE SWAP1 PUSH1 0x40 MSTORE DUP1 MLOAD SWAP1 PUSH1 0x20 ADD KECCAK256 PUSH1 0x0 DUP4 DUP2 SLOAD DUP2 LT PUSH2 0x3119 JUMPI PUSH2 0x3118 PUSH2 0x62E2 JUMP JUMPDEST JUMPDEST SWAP1 PUSH1 0x0 MSTORE PUSH1 0x20 PUSH1 0x0 KECCAK256 SWAP1 PUSH1 0x4 MUL ADD PUSH1 0x1 ADD PUSH1 0x40 MLOAD PUSH1 0x20 ADD PUSH2 0x313A SWAP2 SWAP1 PUSH2 0x6BA6 JUMP JUMPDEST PUSH1 0x40 MLOAD PUSH1 0x20 DUP2 DUP4 SUB SUB DUP2 MSTORE SWAP1 PUSH1 0x40 MSTORE DUP1 MLOAD SWAP1 PUSH1 0x20 ADD KECCAK256 EQ JUMPDEST ISZERO PUSH2 0x3163 JUMPI PUSH1 0x1 SWAP4 POP POP POP POP PUSH2 0x3191 JUMP JUMPDEST DUP1 DUP1 PUSH2 0x316E SWAP1 PUSH2 0x69A8 JUMP JUMPDEST SWAP2 POP POP PUSH2 0x3040 JUMP JUMPDEST POP DUP1 DUP1 PUSH2 0x3182 SWAP1 PUSH2 0x69A8 JUMP JUMPDEST SWAP2 POP POP PUSH2 0x3030 JUMP JUMPDEST POP PUSH1 0x0 SWAP2 POP POP JUMPDEST SWAP3 SWAP2 POP POP JUMP JUMPDEST PUSH2 0x31A1 DUP5 DUP5 PUSH2 0x2BCC JUMP JUMPDEST DUP1 ISZERO PUSH2 0x3299 JUMPI POP PUSH1 0x40 MLOAD PUSH1 0x20 ADD PUSH2 0x31B7 SWAP1 PUSH2 0x6A3C JUMP JUMPDEST PUSH1 0x40 MLOAD PUSH1 0x20 DUP2 DUP4 SUB SUB DUP2 MSTORE SWAP1 PUSH1 0x40 MSTORE DUP1 MLOAD SWAP1 PUSH1 0x20 ADD KECCAK256 PUSH1 0x1 PUSH1 0x0 SWAP1 SLOAD SWAP1 PUSH2 0x100 EXP SWAP1 DIV PUSH20 0xFFFFFFFFFFFFFFFFFFFFFFFFFFFFFFFFFFFFFFFF AND PUSH20 0xFFFFFFFFFFFFFFFFFFFFFFFFFFFFFFFFFFFFFFFF AND PUSH3 0x438CEB DUP6 PUSH1 0x40 MLOAD DUP3 PUSH4 0xFFFFFFFF AND PUSH1 0xE0 SHL DUP2 MSTORE PUSH1 0x4 ADD PUSH2 0x3227 SWAP2 SWAP1 PUSH2 0x6A51 JUMP JUMPDEST PUSH1 0x0 PUSH1 0x40 MLOAD DUP1 DUP4 SUB DUP2 DUP7 GAS STATICCALL ISZERO DUP1 ISZERO PUSH2 0x3244 JUMPI RETURNDATASIZE PUSH1 0x0 DUP1 RETURNDATACOPY RETURNDATASIZE PUSH1 0x0 REVERT JUMPDEST POP POP POP POP PUSH1 0x40 MLOAD RETURNDATASIZE PUSH1 0x0 DUP3 RETURNDATACOPY RETURNDATASIZE PUSH1 0x1F NOT PUSH1 0x1F DUP3 ADD AND DUP3 ADD DUP1 PUSH1 0x40 MSTORE POP DUP2 ADD SWAP1 PUSH2 0x326D SWAP2 SWAP1 PUSH2 0x6575 JUMP JUMPDEST PUSH1 0x20 ADD MLOAD PUSH1 0x40 MLOAD PUSH1 0x20 ADD PUSH2 0x3281 SWAP2 SWAP1 PUSH2 0x65FA JUMP JUMPDEST PUSH1 0x40 MLOAD PUSH1 0x20 DUP2 DUP4 SUB SUB DUP2 MSTORE SWAP1 PUSH1 0x40 MSTORE DUP1 MLOAD SWAP1 PUSH1 0x20 ADD KECCAK256 EQ JUMPDEST ISZERO PUSH2 0x3684 JUMPI PUSH1 0x0 PUSH1 0x4 PUSH1 0x0 SWAP1 SLOAD SWAP1 PUSH2 0x100 EXP SWAP1 DIV PUSH20 0xFFFFFFFFFFFFFFFFFFFFFFFFFFFFFFFFFFFFFFFF AND PUSH20 0xFFFFFFFFFFFFFFFFFFFFFFFFFFFFFFFFFFFFFFFF AND PUSH4 0x872E35A9 DUP7 DUP7 DUP6 PUSH1 0x40 MLOAD DUP5 PUSH4 0xFFFFFFFF AND PUSH1 0xE0 SHL DUP2 MSTORE PUSH1 0x4 ADD PUSH2 0x32FF SWAP4 SWAP3 SWAP2 SWAP1 PUSH2 0x7520 JUMP JUMPDEST PUSH1 0x20 PUSH1 0x40 MLOAD DUP1 DUP4 SUB DUP2 DUP7 GAS STATICCALL ISZERO DUP1 ISZERO PUSH2 0x331C JUMPI RETURNDATASIZE PUSH1 0x0 DUP1 RETURNDATACOPY RETURNDATASIZE PUSH1 0x0 REVERT JUMPDEST POP POP POP POP PUSH1 0x40 MLOAD RETURNDATASIZE PUSH1 0x1F NOT PUSH1 0x1F DUP3 ADD AND DUP3 ADD DUP1 PUSH1 0x40 MSTORE POP DUP2 ADD SWAP1 PUSH2 0x3340 SWAP2 SWAP1 PUSH2 0x6AC6 JUMP JUMPDEST SWAP1 POP DUP1 ISZERO PUSH2 0x3682 JUMPI PUSH1 0x0 PUSH1 0x1 PUSH1 0x0 SWAP1 SLOAD SWAP1 PUSH2 0x100 EXP SWAP1 DIV PUSH20 0xFFFFFFFFFFFFFFFFFFFFFFFFFFFFFFFFFFFFFFFF AND PUSH20 0xFFFFFFFFFFFFFFFFFFFFFFFFFFFFFFFFFFFFFFFF AND PUSH4 0xFADC54F4 DUP7 PUSH1 0x40 MLOAD DUP3 PUSH4 0xFFFFFFFF AND PUSH1 0xE0 SHL DUP2 MSTORE PUSH1 0x4 ADD PUSH2 0x33A5 SWAP2 SWAP1 PUSH2 0x6A51 JUMP JUMPDEST PUSH1 0x0 PUSH1 0x40 MLOAD DUP1 DUP4 SUB DUP2 DUP7 GAS STATICCALL ISZERO DUP1 ISZERO PUSH2 0x33C2 JUMPI RETURNDATASIZE PUSH1 0x0 DUP1 RETURNDATACOPY RETURNDATASIZE PUSH1 0x0 REVERT JUMPDEST POP POP POP POP PUSH1 0x40 MLOAD RETURNDATASIZE PUSH1 0x0 DUP3 RETURNDATACOPY RETURNDATASIZE PUSH1 0x1F NOT PUSH1 0x1F DUP3 ADD AND DUP3 ADD DUP1 PUSH1 0x40 MSTORE POP DUP2 ADD SWAP1 PUSH2 0x33EB SWAP2 SWAP1 PUSH2 0x76F5 JUMP JUMPDEST PUSH1 0x20 ADD MLOAD SWAP1 POP PUSH1 0x0 JUMPDEST DUP2 MLOAD DUP2 LT ISZERO PUSH2 0x3548 JUMPI PUSH1 0x0 DUP3 DUP3 DUP2 MLOAD DUP2 LT PUSH2 0x3412 JUMPI PUSH2 0x3411 PUSH2 0x62E2 JUMP JUMPDEST JUMPDEST PUSH1 0x20 MUL PUSH1 0x20 ADD ADD MLOAD PUSH1 0x0 ADD MLOAD SWAP1 POP PUSH1 0x0 PUSH1 0x40 MLOAD DUP1 PUSH1 0x80 ADD PUSH1 0x40 MSTORE DUP1 DUP11 PUSH20 0xFFFFFFFFFFFFFFFFFFFFFFFFFFFFFFFFFFFFFFFF AND DUP2 MSTORE PUSH1 0x20 ADD DUP4 DUP2 MSTORE PUSH1 0x20 ADD DUP9 DUP6 DUP2 MLOAD DUP2 LT PUSH2 0x3462 JUMPI PUSH2 0x3461 PUSH2 0x62E2 JUMP JUMPDEST JUMPDEST PUSH1 0x20 MUL PUSH1 0x20 ADD ADD MLOAD DUP2 MSTORE PUSH1 0x20 ADD DUP8 DUP2 MSTORE POP SWAP1 POP PUSH1 0x0 DUP2 SWAP1 DUP1 PUSH1 0x1 DUP2 SLOAD ADD DUP1 DUP3 SSTORE DUP1 SWAP2 POP POP PUSH1 0x1 SWAP1 SUB SWAP1 PUSH1 0x0 MSTORE PUSH1 0x20 PUSH1 0x0 KECCAK256 SWAP1 PUSH1 0x4 MUL ADD PUSH1 0x0 SWAP1 SWAP2 SWAP1 SWAP2 SWAP1 SWAP2 POP PUSH1 0x0 DUP3 ADD MLOAD DUP2 PUSH1 0x0 ADD PUSH1 0x0 PUSH2 0x100 EXP DUP2 SLOAD DUP2 PUSH20 0xFFFFFFFFFFFFFFFFFFFFFFFFFFFFFFFFFFFFFFFF MUL NOT AND SWAP1 DUP4 PUSH20 0xFFFFFFFFFFFFFFFFFFFFFFFFFFFFFFFFFFFFFFFF AND MUL OR SWAP1 SSTORE POP PUSH1 0x20 DUP3 ADD MLOAD DUP2 PUSH1 0x1 ADD SWAP1 DUP2 PUSH2 0x34FD SWAP2 SWAP1 PUSH2 0x6E7A JUMP JUMPDEST POP PUSH1 0x40 DUP3 ADD MLOAD DUP2 PUSH1 0x2 ADD SWAP1 DUP2 PUSH2 0x3513 SWAP2 SWAP1 PUSH2 0x6E7A JUMP JUMPDEST POP PUSH1 0x60 DUP3 ADD MLOAD DUP2 PUSH1 0x3 ADD SWAP1 DUP1 MLOAD SWAP1 PUSH1 0x20 ADD SWAP1 PUSH2 0x3530 SWAP3 SWAP2 SWAP1 PUSH2 0x5267 JUMP JUMPDEST POP POP POP POP POP DUP1 DUP1 PUSH2 0x3540 SWAP1 PUSH2 0x69A8 JUMP JUMPDEST SWAP2 POP POP PUSH2 0x33F4 JUMP JUMPDEST POP PUSH1 0x3 PUSH1 0x0 SWAP1 SLOAD SWAP1 PUSH2 0x100 EXP SWAP1 DIV PUSH20 0xFFFFFFFFFFFFFFFFFFFFFFFFFFFFFFFFFFFFFFFF AND PUSH20 0xFFFFFFFFFFFFFFFFFFFFFFFFFFFFFFFFFFFFFFFF AND PUSH4 0xC47EBDDC CALLER DUP8 DUP10 PUSH1 0x4 PUSH1 0x0 SWAP1 SLOAD SWAP1 PUSH2 0x100 EXP SWAP1 DIV PUSH20 0xFFFFFFFFFFFFFFFFFFFFFFFFFFFFFFFFFFFFFFFF AND PUSH20 0xFFFFFFFFFFFFFFFFFFFFFFFFFFFFFFFFFFFFFFFF AND PUSH4 0x6BB8D768 DUP10 PUSH1 0x40 MLOAD DUP3 PUSH4 0xFFFFFFFF AND PUSH1 0xE0 SHL DUP2 MSTORE PUSH1 0x4 ADD PUSH2 0x35E5 SWAP2 SWAP1 PUSH2 0x717E JUMP JUMPDEST PUSH1 0x0 PUSH1 0x40 MLOAD DUP1 DUP4 SUB DUP2 DUP7 GAS STATICCALL ISZERO DUP1 ISZERO PUSH2 0x3602 JUMPI RETURNDATASIZE PUSH1 0x0 DUP1 RETURNDATACOPY RETURNDATASIZE PUSH1 0x0 REVERT JUMPDEST POP POP POP POP PUSH1 0x40 MLOAD RETURNDATASIZE PUSH1 0x0 DUP3 RETURNDATACOPY RETURNDATASIZE PUSH1 0x1F NOT PUSH1 0x1F DUP3 ADD AND DUP3 ADD DUP1 PUSH1 0x40 MSTORE POP DUP2 ADD SWAP1 PUSH2 0x362B SWAP2 SWAP1 PUSH2 0x6575 JUMP JUMPDEST PUSH1 0x20 ADD MLOAD PUSH1 0x40 MLOAD DUP6 PUSH4 0xFFFFFFFF AND PUSH1 0xE0 SHL DUP2 MSTORE PUSH1 0x4 ADD PUSH2 0x364E SWAP5 SWAP4 SWAP3 SWAP2 SWAP1 PUSH2 0x778A JUMP JUMPDEST PUSH1 0x0 PUSH1 0x40 MLOAD DUP1 DUP4 SUB DUP2 PUSH1 0x0 DUP8 DUP1 EXTCODESIZE ISZERO DUP1 ISZERO PUSH2 0x3668 JUMPI PUSH1 0x0 DUP1 REVERT JUMPDEST POP GAS CALL ISZERO DUP1 ISZERO PUSH2 0x367C JUMPI RETURNDATASIZE PUSH1 0x0 DUP1 RETURNDATACOPY RETURNDATASIZE PUSH1 0x0 REVERT JUMPDEST POP POP POP POP POP JUMPDEST POP JUMPDEST POP POP POP POP JUMP JUMPDEST PUSH2 0x36CA CALLER DUP3 PUSH1 0x40 MLOAD DUP1 PUSH1 0x40 ADD PUSH1 0x40 MSTORE DUP1 PUSH1 0x6 DUP2 MSTORE PUSH1 0x20 ADD PUSH32 0x64656C6574650000000000000000000000000000000000000000000000000000 DUP2 MSTORE POP PUSH2 0x49CC JUMP JUMPDEST DUP1 ISZERO PUSH2 0x37C2 JUMPI POP PUSH1 0x40 MLOAD PUSH1 0x20 ADD PUSH2 0x36E0 SWAP1 PUSH2 0x6A3C JUMP JUMPDEST PUSH1 0x40 MLOAD PUSH1 0x20 DUP2 DUP4 SUB SUB DUP2 MSTORE SWAP1 PUSH1 0x40 MSTORE DUP1 MLOAD SWAP1 PUSH1 0x20 ADD KECCAK256 PUSH1 0x1 PUSH1 0x0 SWAP1 SLOAD SWAP1 PUSH2 0x100 EXP SWAP1 DIV PUSH20 0xFFFFFFFFFFFFFFFFFFFFFFFFFFFFFFFFFFFFFFFF AND PUSH20 0xFFFFFFFFFFFFFFFFFFFFFFFFFFFFFFFFFFFFFFFF AND PUSH3 0x438CEB DUP4 PUSH1 0x40 MLOAD DUP3 PUSH4 0xFFFFFFFF AND PUSH1 0xE0 SHL DUP2 MSTORE PUSH1 0x4 ADD PUSH2 0x3750 SWAP2 SWAP1 PUSH2 0x6A51 JUMP JUMPDEST PUSH1 0x0 PUSH1 0x40 MLOAD DUP1 DUP4 SUB DUP2 DUP7 GAS STATICCALL ISZERO DUP1 ISZERO PUSH2 0x376D JUMPI RETURNDATASIZE PUSH1 0x0 DUP1 RETURNDATACOPY RETURNDATASIZE PUSH1 0x0 REVERT JUMPDEST POP POP POP POP PUSH1 0x40 MLOAD RETURNDATASIZE PUSH1 0x0 DUP3 RETURNDATACOPY RETURNDATASIZE PUSH1 0x1F NOT PUSH1 0x1F DUP3 ADD AND DUP3 ADD DUP1 PUSH1 0x40 MSTORE POP DUP2 ADD SWAP1 PUSH2 0x3796 SWAP2 SWAP1 PUSH2 0x6575 JUMP JUMPDEST PUSH1 0x20 ADD MLOAD PUSH1 0x40 MLOAD PUSH1 0x20 ADD PUSH2 0x37AA SWAP2 SWAP1 PUSH2 0x65FA JUMP JUMPDEST PUSH1 0x40 MLOAD PUSH1 0x20 DUP2 DUP4 SUB SUB DUP2 MSTORE SWAP1 PUSH1 0x40 MSTORE DUP1 MLOAD SWAP1 PUSH1 0x20 ADD KECCAK256 EQ JUMPDEST ISZERO PUSH2 0x38E6 JUMPI PUSH1 0x1 PUSH1 0x0 SWAP1 SLOAD SWAP1 PUSH2 0x100 EXP SWAP1 DIV PUSH20 0xFFFFFFFFFFFFFFFFFFFFFFFFFFFFFFFFFFFFFFFF AND PUSH20 0xFFFFFFFFFFFFFFFFFFFFFFFFFFFFFFFFFFFFFFFF AND PUSH4 0x74546FDF DUP3 PUSH1 0x40 MLOAD DUP3 PUSH4 0xFFFFFFFF AND PUSH1 0xE0 SHL DUP2 MSTORE PUSH1 0x4 ADD PUSH2 0x3822 SWAP2 SWAP1 PUSH2 0x6A51 JUMP JUMPDEST PUSH1 0x0 PUSH1 0x40 MLOAD DUP1 DUP4 SUB DUP2 PUSH1 0x0 DUP8 DUP1 EXTCODESIZE ISZERO DUP1 ISZERO PUSH2 0x383C JUMPI PUSH1 0x0 DUP1 REVERT JUMPDEST POP GAS CALL ISZERO DUP1 ISZERO PUSH2 0x3850 JUMPI RETURNDATASIZE PUSH1 0x0 DUP1 RETURNDATACOPY RETURNDATASIZE PUSH1 0x0 REVERT JUMPDEST POP POP POP POP PUSH1 0x3 PUSH1 0x0 SWAP1 SLOAD SWAP1 PUSH2 0x100 EXP SWAP1 DIV PUSH20 0xFFFFFFFFFFFFFFFFFFFFFFFFFFFFFFFFFFFFFFFF AND PUSH20 0xFFFFFFFFFFFFFFFFFFFFFFFFFFFFFFFFFFFFFFFF AND PUSH4 0xC47EBDDC CALLER DUP4 DUP6 PUSH1 0x40 MLOAD DUP5 PUSH4 0xFFFFFFFF AND PUSH1 0xE0 SHL DUP2 MSTORE PUSH1 0x4 ADD PUSH2 0x38B3 SWAP4 SWAP3 SWAP2 SWAP1 PUSH2 0x783C JUMP JUMPDEST PUSH1 0x0 PUSH1 0x40 MLOAD DUP1 DUP4 SUB DUP2 PUSH1 0x0 DUP8 DUP1 EXTCODESIZE ISZERO DUP1 ISZERO PUSH2 0x38CD JUMPI PUSH1 0x0 DUP1 REVERT JUMPDEST POP GAS CALL ISZERO DUP1 ISZERO PUSH2 0x38E1 JUMPI RETURNDATASIZE PUSH1 0x0 DUP1 RETURNDATACOPY RETURNDATASIZE PUSH1 0x0 REVERT JUMPDEST POP POP POP POP JUMPDEST POP POP JUMP JUMPDEST PUSH2 0x38F2 PUSH2 0x5221 JUMP JUMPDEST DUP3 PUSH20 0xFFFFFFFFFFFFFFFFFFFFFFFFFFFFFFFFFFFFFFFF AND CALLER PUSH20 0xFFFFFFFFFFFFFFFFFFFFFFFFFFFFFFFFFFFFFFFF AND EQ DUP1 ISZERO PUSH2 0x3933 JUMPI POP PUSH2 0x3932 DUP4 DUP4 PUSH2 0x105F JUMP JUMPDEST JUMPDEST DUP1 ISZERO PUSH2 0x3B22 JUMPI POP PUSH1 0x40 MLOAD PUSH1 0x20 ADD PUSH2 0x3949 SWAP1 PUSH2 0x6A3C JUMP JUMPDEST PUSH1 0x40 MLOAD PUSH1 0x20 DUP2 DUP4 SUB SUB DUP2 MSTORE SWAP1 PUSH1 0x40 MSTORE DUP1 MLOAD SWAP1 PUSH1 0x20 ADD KECCAK256 PUSH1 0x1 PUSH1 0x0 SWAP1 SLOAD SWAP1 PUSH2 0x100 EXP SWAP1 DIV PUSH20 0xFFFFFFFFFFFFFFFFFFFFFFFFFFFFFFFFFFFFFFFF AND PUSH20 0xFFFFFFFFFFFFFFFFFFFFFFFFFFFFFFFFFFFFFFFF AND PUSH3 0x438CEB DUP5 PUSH1 0x40 MLOAD DUP3 PUSH4 0xFFFFFFFF AND PUSH1 0xE0 SHL DUP2 MSTORE PUSH1 0x4 ADD PUSH2 0x39B9 SWAP2 SWAP1 PUSH2 0x6A51 JUMP JUMPDEST PUSH1 0x0 PUSH1 0x40 MLOAD DUP1 DUP4 SUB DUP2 DUP7 GAS STATICCALL ISZERO DUP1 ISZERO PUSH2 0x39D6 JUMPI RETURNDATASIZE PUSH1 0x0 DUP1 RETURNDATACOPY RETURNDATASIZE PUSH1 0x0 REVERT JUMPDEST POP POP POP POP PUSH1 0x40 MLOAD RETURNDATASIZE PUSH1 0x0 DUP3 RETURNDATACOPY RETURNDATASIZE PUSH1 0x1F NOT PUSH1 0x1F DUP3 ADD AND DUP3 ADD DUP1 PUSH1 0x40 MSTORE POP DUP2 ADD SWAP1 PUSH2 0x39FF SWAP2 SWAP1 PUSH2 0x6575 JUMP JUMPDEST PUSH1 0x20 ADD MLOAD PUSH1 0x40 MLOAD PUSH1 0x20 ADD PUSH2 0x3A13 SWAP2 SWAP1 PUSH2 0x65FA JUMP JUMPDEST PUSH1 0x40 MLOAD PUSH1 0x20 DUP2 DUP4 SUB SUB DUP2 MSTORE SWAP1 PUSH1 0x40 MSTORE DUP1 MLOAD SWAP1 PUSH1 0x20 ADD KECCAK256 EQ DUP1 PUSH2 0x3B21 JUMPI POP PUSH1 0x40 MLOAD PUSH1 0x20 ADD PUSH2 0x3A3F SWAP1 PUSH2 0x729E JUMP JUMPDEST PUSH1 0x40 MLOAD PUSH1 0x20 DUP2 DUP4 SUB SUB DUP2 MSTORE SWAP1 PUSH1 0x40 MSTORE DUP1 MLOAD SWAP1 PUSH1 0x20 ADD KECCAK256 PUSH1 0x1 PUSH1 0x0 SWAP1 SLOAD SWAP1 PUSH2 0x100 EXP SWAP1 DIV PUSH20 0xFFFFFFFFFFFFFFFFFFFFFFFFFFFFFFFFFFFFFFFF AND PUSH20 0xFFFFFFFFFFFFFFFFFFFFFFFFFFFFFFFFFFFFFFFF AND PUSH3 0x438CEB DUP5 PUSH1 0x40 MLOAD DUP3 PUSH4 0xFFFFFFFF AND PUSH1 0xE0 SHL DUP2 MSTORE PUSH1 0x4 ADD PUSH2 0x3AAF SWAP2 SWAP1 PUSH2 0x6A51 JUMP JUMPDEST PUSH1 0x0 PUSH1 0x40 MLOAD DUP1 DUP4 SUB DUP2 DUP7 GAS STATICCALL ISZERO DUP1 ISZERO PUSH2 0x3ACC JUMPI RETURNDATASIZE PUSH1 0x0 DUP1 RETURNDATACOPY RETURNDATASIZE PUSH1 0x0 REVERT JUMPDEST POP POP POP POP PUSH1 0x40 MLOAD RETURNDATASIZE PUSH1 0x0 DUP3 RETURNDATACOPY RETURNDATASIZE PUSH1 0x1F NOT PUSH1 0x1F DUP3 ADD AND DUP3 ADD DUP1 PUSH1 0x40 MSTORE POP DUP2 ADD SWAP1 PUSH2 0x3AF5 SWAP2 SWAP1 PUSH2 0x6575 JUMP JUMPDEST PUSH1 0x20 ADD MLOAD PUSH1 0x40 MLOAD PUSH1 0x20 ADD PUSH2 0x3B09 SWAP2 SWAP1 PUSH2 0x65FA JUMP JUMPDEST PUSH1 0x40 MLOAD PUSH1 0x20 DUP2 DUP4 SUB SUB DUP2 MSTORE SWAP1 PUSH1 0x40 MSTORE DUP1 MLOAD SWAP1 PUSH1 0x20 ADD KECCAK256 EQ JUMPDEST JUMPDEST ISZERO PUSH2 0x3CC9 JUMPI PUSH1 0x0 PUSH1 0x1 PUSH1 0x0 SWAP1 SLOAD SWAP1 PUSH2 0x100 EXP SWAP1 DIV PUSH20 0xFFFFFFFFFFFFFFFFFFFFFFFFFFFFFFFFFFFFFFFF AND PUSH20 0xFFFFFFFFFFFFFFFFFFFFFFFFFFFFFFFFFFFFFFFF AND PUSH4 0xFADC54F4 DUP5 PUSH1 0x40 MLOAD DUP3 PUSH4 0xFFFFFFFF AND PUSH1 0xE0 SHL DUP2 MSTORE PUSH1 0x4 ADD PUSH2 0x3B84 SWAP2 SWAP1 PUSH2 0x6A51 JUMP JUMPDEST PUSH1 0x0 PUSH1 0x40 MLOAD DUP1 DUP4 SUB DUP2 DUP7 GAS STATICCALL ISZERO DUP1 ISZERO PUSH2 0x3BA1 JUMPI RETURNDATASIZE PUSH1 0x0 DUP1 RETURNDATACOPY RETURNDATASIZE PUSH1 0x0 REVERT JUMPDEST POP POP POP POP PUSH1 0x40 MLOAD RETURNDATASIZE PUSH1 0x0 DUP3 RETURNDATACOPY RETURNDATASIZE PUSH1 0x1F NOT PUSH1 0x1F DUP3 ADD AND DUP3 ADD DUP1 PUSH1 0x40 MSTORE POP DUP2 ADD SWAP1 PUSH2 0x3BCA SWAP2 SWAP1 PUSH2 0x76F5 JUMP JUMPDEST PUSH1 0x20 ADD MLOAD SWAP1 POP PUSH1 0x0 DUP2 MLOAD PUSH8 0xFFFFFFFFFFFFFFFF DUP2 GT ISZERO PUSH2 0x3BED JUMPI PUSH2 0x3BEC PUSH2 0x546F JUMP JUMPDEST JUMPDEST PUSH1 0x40 MLOAD SWAP1 DUP1 DUP3 MSTORE DUP1 PUSH1 0x20 MUL PUSH1 0x20 ADD DUP3 ADD PUSH1 0x40 MSTORE DUP1 ISZERO PUSH2 0x3C20 JUMPI DUP2 PUSH1 0x20 ADD JUMPDEST PUSH1 0x60 DUP2 MSTORE PUSH1 0x20 ADD SWAP1 PUSH1 0x1 SWAP1 SUB SWAP1 DUP2 PUSH2 0x3C0B JUMPI SWAP1 POP JUMPDEST POP SWAP1 POP PUSH1 0x0 JUMPDEST DUP3 MLOAD DUP2 LT ISZERO PUSH2 0x3C92 JUMPI PUSH1 0x0 PUSH2 0x3C59 DUP8 DUP6 DUP5 DUP2 MLOAD DUP2 LT PUSH2 0x3C48 JUMPI PUSH2 0x3C47 PUSH2 0x62E2 JUMP JUMPDEST JUMPDEST PUSH1 0x20 MUL PUSH1 0x20 ADD ADD MLOAD PUSH1 0x0 ADD MLOAD PUSH2 0x2384 JUMP JUMPDEST PUSH1 0x20 ADD MLOAD SWAP1 POP DUP1 DUP4 DUP4 DUP2 MLOAD DUP2 LT PUSH2 0x3C73 JUMPI PUSH2 0x3C72 PUSH2 0x62E2 JUMP JUMPDEST JUMPDEST PUSH1 0x20 MUL PUSH1 0x20 ADD ADD DUP2 SWAP1 MSTORE POP POP DUP1 DUP1 PUSH2 0x3C8A SWAP1 PUSH2 0x69A8 JUMP JUMPDEST SWAP2 POP POP PUSH2 0x3C26 JUMP JUMPDEST POP PUSH1 0x40 MLOAD DUP1 PUSH1 0x60 ADD PUSH1 0x40 MSTORE DUP1 PUSH1 0x1 ISZERO ISZERO DUP2 MSTORE PUSH1 0x20 ADD DUP3 DUP2 MSTORE PUSH1 0x20 ADD PUSH1 0x40 MLOAD DUP1 PUSH1 0x20 ADD PUSH1 0x40 MSTORE DUP1 PUSH1 0x0 DUP2 MSTORE POP DUP2 MSTORE POP SWAP3 POP POP POP PUSH2 0x3D50 JUMP JUMPDEST PUSH1 0x40 MLOAD DUP1 PUSH1 0x60 ADD PUSH1 0x40 MSTORE DUP1 PUSH1 0x0 ISZERO ISZERO DUP2 MSTORE PUSH1 0x20 ADD PUSH1 0x0 PUSH8 0xFFFFFFFFFFFFFFFF DUP2 GT ISZERO PUSH2 0x3CF8 JUMPI PUSH2 0x3CF7 PUSH2 0x546F JUMP JUMPDEST JUMPDEST PUSH1 0x40 MLOAD SWAP1 DUP1 DUP3 MSTORE DUP1 PUSH1 0x20 MUL PUSH1 0x20 ADD DUP3 ADD PUSH1 0x40 MSTORE DUP1 ISZERO PUSH2 0x3D2B JUMPI DUP2 PUSH1 0x20 ADD JUMPDEST PUSH1 0x60 DUP2 MSTORE PUSH1 0x20 ADD SWAP1 PUSH1 0x1 SWAP1 SUB SWAP1 DUP2 PUSH2 0x3D16 JUMPI SWAP1 POP JUMPDEST POP DUP2 MSTORE PUSH1 0x20 ADD PUSH1 0x40 MLOAD DUP1 PUSH1 0xE0 ADD PUSH1 0x40 MSTORE DUP1 PUSH1 0xA4 DUP2 MSTORE PUSH1 0x20 ADD PUSH2 0x7CF2 PUSH1 0xA4 SWAP2 CODECOPY DUP2 MSTORE POP SWAP1 POP JUMPDEST SWAP3 SWAP2 POP POP JUMP JUMPDEST PUSH2 0x3D60 DUP3 DUP3 PUSH2 0x1211 JUMP JUMPDEST ISZERO PUSH2 0x414E JUMPI PUSH1 0x0 PUSH1 0x1 PUSH1 0x0 SWAP1 SLOAD SWAP1 PUSH2 0x100 EXP SWAP1 DIV PUSH20 0xFFFFFFFFFFFFFFFFFFFFFFFFFFFFFFFFFFFFFFFF AND PUSH20 0xFFFFFFFFFFFFFFFFFFFFFFFFFFFFFFFFFFFFFFFF AND PUSH4 0xFADC54F4 DUP4 PUSH1 0x40 MLOAD DUP3 PUSH4 0xFFFFFFFF AND PUSH1 0xE0 SHL DUP2 MSTORE PUSH1 0x4 ADD PUSH2 0x3DC2 SWAP2 SWAP1 PUSH2 0x6A51 JUMP JUMPDEST PUSH1 0x0 PUSH1 0x40 MLOAD DUP1 DUP4 SUB DUP2 DUP7 GAS STATICCALL ISZERO DUP1 ISZERO PUSH2 0x3DDF JUMPI RETURNDATASIZE PUSH1 0x0 DUP1 RETURNDATACOPY RETURNDATASIZE PUSH1 0x0 REVERT JUMPDEST POP POP POP POP PUSH1 0x40 MLOAD RETURNDATASIZE PUSH1 0x0 DUP3 RETURNDATACOPY RETURNDATASIZE PUSH1 0x1F NOT PUSH1 0x1F DUP3 ADD AND DUP3 ADD DUP1 PUSH1 0x40 MSTORE POP DUP2 ADD SWAP1 PUSH2 0x3E08 SWAP2 SWAP1 PUSH2 0x76F5 JUMP JUMPDEST PUSH1 0x20 ADD MLOAD SWAP1 POP PUSH1 0x0 JUMPDEST DUP2 MLOAD DUP2 LT ISZERO PUSH2 0x40B6 JUMPI PUSH1 0x0 JUMPDEST PUSH1 0x0 DUP1 SLOAD SWAP1 POP DUP2 LT ISZERO PUSH2 0x40A2 JUMPI DUP5 PUSH20 0xFFFFFFFFFFFFFFFFFFFFFFFFFFFFFFFFFFFFFFFF AND PUSH1 0x0 DUP3 DUP2 SLOAD DUP2 LT PUSH2 0x3E55 JUMPI PUSH2 0x3E54 PUSH2 0x62E2 JUMP JUMPDEST JUMPDEST SWAP1 PUSH1 0x0 MSTORE PUSH1 0x20 PUSH1 0x0 KECCAK256 SWAP1 PUSH1 0x4 MUL ADD PUSH1 0x0 ADD PUSH1 0x0 SWAP1 SLOAD SWAP1 PUSH2 0x100 EXP SWAP1 DIV PUSH20 0xFFFFFFFFFFFFFFFFFFFFFFFFFFFFFFFFFFFFFFFF AND PUSH20 0xFFFFFFFFFFFFFFFFFFFFFFFFFFFFFFFFFFFFFFFF AND EQ DUP1 ISZERO PUSH2 0x3F07 JUMPI POP DUP3 DUP3 DUP2 MLOAD DUP2 LT PUSH2 0x3EB8 JUMPI PUSH2 0x3EB7 PUSH2 0x62E2 JUMP JUMPDEST JUMPDEST PUSH1 0x20 MUL PUSH1 0x20 ADD ADD MLOAD PUSH1 0x0 ADD MLOAD DUP1 MLOAD SWAP1 PUSH1 0x20 ADD KECCAK256 PUSH1 0x0 DUP3 DUP2 SLOAD DUP2 LT PUSH2 0x3EDF JUMPI PUSH2 0x3EDE PUSH2 0x62E2 JUMP JUMPDEST JUMPDEST SWAP1 PUSH1 0x0 MSTORE PUSH1 0x20 PUSH1 0x0 KECCAK256 SWAP1 PUSH1 0x4 MUL ADD PUSH1 0x1 ADD PUSH1 0x40 MLOAD PUSH2 0x3EFD SWAP2 SWAP1 PUSH2 0x7943 JUMP JUMPDEST PUSH1 0x40 MLOAD DUP1 SWAP2 SUB SWAP1 KECCAK256 EQ JUMPDEST ISZERO PUSH2 0x408F JUMPI PUSH1 0x0 PUSH1 0x1 PUSH1 0x0 DUP1 SLOAD SWAP1 POP PUSH2 0x3F20 SWAP2 SWAP1 PUSH2 0x795A JUMP JUMPDEST DUP2 SLOAD DUP2 LT PUSH2 0x3F31 JUMPI PUSH2 0x3F30 PUSH2 0x62E2 JUMP JUMPDEST JUMPDEST SWAP1 PUSH1 0x0 MSTORE PUSH1 0x20 PUSH1 0x0 KECCAK256 SWAP1 PUSH1 0x4 MUL ADD PUSH1 0x0 DUP3 DUP2 SLOAD DUP2 LT PUSH2 0x3F53 JUMPI PUSH2 0x3F52 PUSH2 0x62E2 JUMP JUMPDEST JUMPDEST SWAP1 PUSH1 0x0 MSTORE PUSH1 0x20 PUSH1 0x0 KECCAK256 SWAP1 PUSH1 0x4 MUL ADD PUSH1 0x0 DUP3 ADD PUSH1 0x0 SWAP1 SLOAD SWAP1 PUSH2 0x100 EXP SWAP1 DIV PUSH20 0xFFFFFFFFFFFFFFFFFFFFFFFFFFFFFFFFFFFFFFFF AND DUP2 PUSH1 0x0 ADD PUSH1 0x0 PUSH2 0x100 EXP DUP2 SLOAD DUP2 PUSH20 0xFFFFFFFFFFFFFFFFFFFFFFFFFFFFFFFFFFFFFFFF MUL NOT AND SWAP1 DUP4 PUSH20 0xFFFFFFFFFFFFFFFFFFFFFFFFFFFFFFFFFFFFFFFF AND MUL OR SWAP1 SSTORE POP PUSH1 0x1 DUP3 ADD DUP2 PUSH1 0x1 ADD SWAP1 DUP2 PUSH2 0x3FDC SWAP2 SWAP1 PUSH2 0x79A4 JUMP JUMPDEST POP PUSH1 0x2 DUP3 ADD DUP2 PUSH1 0x2 ADD SWAP1 DUP2 PUSH2 0x3FF1 SWAP2 SWAP1 PUSH2 0x79A4 JUMP JUMPDEST POP PUSH1 0x3 DUP3 ADD DUP2 PUSH1 0x3 ADD SWAP1 DUP1 SLOAD PUSH2 0x4008 SWAP3 SWAP2 SWAP1 PUSH2 0x52E3 JUMP JUMPDEST POP SWAP1 POP POP PUSH1 0x0 DUP1 SLOAD DUP1 PUSH2 0x401E JUMPI PUSH2 0x401D PUSH2 0x7A8C JUMP JUMPDEST JUMPDEST PUSH1 0x1 SWAP1 SUB DUP2 DUP2 SWAP1 PUSH1 0x0 MSTORE PUSH1 0x20 PUSH1 0x0 KECCAK256 SWAP1 PUSH1 0x4 MUL ADD PUSH1 0x0 DUP1 DUP3 ADD PUSH1 0x0 PUSH2 0x100 EXP DUP2 SLOAD SWAP1 PUSH20 0xFFFFFFFFFFFFFFFFFFFFFFFFFFFFFFFFFFFFFFFF MUL NOT AND SWAP1 SSTORE PUSH1 0x1 DUP3 ADD PUSH1 0x0 PUSH2 0x406A SWAP2 SWAP1 PUSH2 0x5340 JUMP JUMPDEST PUSH1 0x2 DUP3 ADD PUSH1 0x0 PUSH2 0x407A SWAP2 SWAP1 PUSH2 0x5340 JUMP JUMPDEST PUSH1 0x3 DUP3 ADD PUSH1 0x0 PUSH2 0x408A SWAP2 SWAP1 PUSH2 0x5380 JUMP JUMPDEST POP POP SWAP1 SSTORE JUMPDEST DUP1 DUP1 PUSH2 0x409A SWAP1 PUSH2 0x69A8 JUMP JUMPDEST SWAP2 POP POP PUSH2 0x3E1D JUMP JUMPDEST POP DUP1 DUP1 PUSH2 0x40AE SWAP1 PUSH2 0x69A8 JUMP JUMPDEST SWAP2 POP POP PUSH2 0x3E11 JUMP JUMPDEST POP PUSH1 0x3 PUSH1 0x0 SWAP1 SLOAD SWAP1 PUSH2 0x100 EXP SWAP1 DIV PUSH20 0xFFFFFFFFFFFFFFFFFFFFFFFFFFFFFFFFFFFFFFFF AND PUSH20 0xFFFFFFFFFFFFFFFFFFFFFFFFFFFFFFFFFFFFFFFF AND PUSH4 0xC47EBDDC CALLER DUP5 DUP7 PUSH1 0x40 MLOAD DUP5 PUSH4 0xFFFFFFFF AND PUSH1 0xE0 SHL DUP2 MSTORE PUSH1 0x4 ADD PUSH2 0x4116 SWAP4 SWAP3 SWAP2 SWAP1 PUSH2 0x7B07 JUMP JUMPDEST PUSH1 0x0 PUSH1 0x40 MLOAD DUP1 DUP4 SUB DUP2 PUSH1 0x0 DUP8 DUP1 EXTCODESIZE ISZERO DUP1 ISZERO PUSH2 0x4130 JUMPI PUSH1 0x0 DUP1 REVERT JUMPDEST POP GAS CALL ISZERO DUP1 ISZERO PUSH2 0x4144 JUMPI RETURNDATASIZE PUSH1 0x0 DUP1 RETURNDATACOPY RETURNDATASIZE PUSH1 0x0 REVERT JUMPDEST POP POP POP POP POP PUSH2 0x414F JUMP JUMPDEST JUMPDEST POP POP JUMP JUMPDEST PUSH2 0x4161 DUP4 DUP4 PUSH1 0x0 ADD MLOAD PUSH2 0x509B JUMP JUMPDEST ISZERO PUSH2 0x468B JUMPI PUSH1 0x0 PUSH1 0x4 PUSH8 0xFFFFFFFFFFFFFFFF DUP2 GT ISZERO PUSH2 0x4183 JUMPI PUSH2 0x4182 PUSH2 0x546F JUMP JUMPDEST JUMPDEST PUSH1 0x40 MLOAD SWAP1 DUP1 DUP3 MSTORE DUP1 PUSH1 0x20 MUL PUSH1 0x20 ADD DUP3 ADD PUSH1 0x40 MSTORE DUP1 ISZERO PUSH2 0x41B6 JUMPI DUP2 PUSH1 0x20 ADD JUMPDEST PUSH1 0x60 DUP2 MSTORE PUSH1 0x20 ADD SWAP1 PUSH1 0x1 SWAP1 SUB SWAP1 DUP2 PUSH2 0x41A1 JUMPI SWAP1 POP JUMPDEST POP SWAP1 POP PUSH1 0x40 MLOAD DUP1 PUSH1 0x40 ADD PUSH1 0x40 MSTORE DUP1 PUSH1 0x5 DUP2 MSTORE PUSH1 0x20 ADD PUSH32 0x7368617265000000000000000000000000000000000000000000000000000000 DUP2 MSTORE POP DUP2 PUSH1 0x0 DUP2 MLOAD DUP2 LT PUSH2 0x4203 JUMPI PUSH2 0x4202 PUSH2 0x62E2 JUMP JUMPDEST JUMPDEST PUSH1 0x20 MUL PUSH1 0x20 ADD ADD DUP2 SWAP1 MSTORE POP PUSH1 0x40 MLOAD DUP1 PUSH1 0x40 ADD PUSH1 0x40 MSTORE DUP1 PUSH1 0x8 DUP2 MSTORE PUSH1 0x20 ADD PUSH32 0x646F776E6C6F6164000000000000000000000000000000000000000000000000 DUP2 MSTORE POP DUP2 PUSH1 0x1 DUP2 MLOAD DUP2 LT PUSH2 0x4258 JUMPI PUSH2 0x4257 PUSH2 0x62E2 JUMP JUMPDEST JUMPDEST PUSH1 0x20 MUL PUSH1 0x20 ADD ADD DUP2 SWAP1 MSTORE POP PUSH1 0x40 MLOAD DUP1 PUSH1 0x40 ADD PUSH1 0x40 MSTORE DUP1 PUSH1 0x6 DUP2 MSTORE PUSH1 0x20 ADD PUSH32 0x64656C6574650000000000000000000000000000000000000000000000000000 DUP2 MSTORE POP DUP2 PUSH1 0x2 DUP2 MLOAD DUP2 LT PUSH2 0x42AD JUMPI PUSH2 0x42AC PUSH2 0x62E2 JUMP JUMPDEST JUMPDEST PUSH1 0x20 MUL PUSH1 0x20 ADD ADD DUP2 SWAP1 MSTORE POP PUSH1 0x40 MLOAD DUP1 PUSH1 0x40 ADD PUSH1 0x40 MSTORE DUP1 PUSH1 0x4 DUP2 MSTORE PUSH1 0x20 ADD PUSH32 0x6564697400000000000000000000000000000000000000000000000000000000 DUP2 MSTORE POP DUP2 PUSH1 0x3 DUP2 MLOAD DUP2 LT PUSH2 0x4302 JUMPI PUSH2 0x4301 PUSH2 0x62E2 JUMP JUMPDEST JUMPDEST PUSH1 0x20 MUL PUSH1 0x20 ADD ADD DUP2 SWAP1 MSTORE POP PUSH1 0x0 PUSH1 0x4 PUSH1 0x0 SWAP1 SLOAD SWAP1 PUSH2 0x100 EXP SWAP1 DIV PUSH20 0xFFFFFFFFFFFFFFFFFFFFFFFFFFFFFFFFFFFFFFFF AND PUSH20 0xFFFFFFFFFFFFFFFFFFFFFFFFFFFFFFFFFFFFFFFF AND PUSH4 0x872E35A9 DUP7 DUP7 PUSH1 0x0 ADD MLOAD DUP6 DUP9 PUSH1 0xE0 ADD MLOAD PUSH1 0x40 MLOAD DUP6 PUSH4 0xFFFFFFFF AND PUSH1 0xE0 SHL DUP2 MSTORE PUSH1 0x4 ADD PUSH2 0x4378 SWAP5 SWAP4 SWAP3 SWAP2 SWAP1 PUSH2 0x7B6B JUMP JUMPDEST PUSH1 0x20 PUSH1 0x40 MLOAD DUP1 DUP4 SUB DUP2 DUP7 GAS STATICCALL ISZERO DUP1 ISZERO PUSH2 0x4395 JUMPI RETURNDATASIZE PUSH1 0x0 DUP1 RETURNDATACOPY RETURNDATASIZE PUSH1 0x0 REVERT JUMPDEST POP POP POP POP PUSH1 0x40 MLOAD RETURNDATASIZE PUSH1 0x1F NOT PUSH1 0x1F DUP3 ADD AND DUP3 ADD DUP1 PUSH1 0x40 MSTORE POP DUP2 ADD SWAP1 PUSH2 0x43B9 SWAP2 SWAP1 PUSH2 0x6AC6 JUMP JUMPDEST SWAP1 POP DUP1 ISZERO PUSH2 0x4688 JUMPI PUSH1 0x1 PUSH1 0x0 SWAP1 SLOAD SWAP1 PUSH2 0x100 EXP SWAP1 DIV PUSH20 0xFFFFFFFFFFFFFFFFFFFFFFFFFFFFFFFFFFFFFFFF AND PUSH20 0xFFFFFFFFFFFFFFFFFFFFFFFFFFFFFFFFFFFFFFFF AND PUSH4 0xBFDDC42F DUP6 PUSH1 0x40 MLOAD DUP3 PUSH4 0xFFFFFFFF AND PUSH1 0xE0 SHL DUP2 MSTORE PUSH1 0x4 ADD PUSH2 0x441C SWAP2 SWAP1 PUSH2 0x7BC5 JUMP JUMPDEST PUSH1 0x0 PUSH1 0x40 MLOAD DUP1 DUP4 SUB DUP2 PUSH1 0x0 DUP8 DUP1 EXTCODESIZE ISZERO DUP1 ISZERO PUSH2 0x4436 JUMPI PUSH1 0x0 DUP1 REVERT JUMPDEST POP GAS CALL ISZERO DUP1 ISZERO PUSH2 0x444A JUMPI RETURNDATASIZE PUSH1 0x0 DUP1 RETURNDATACOPY RETURNDATASIZE PUSH1 0x0 REVERT JUMPDEST POP POP POP POP PUSH1 0x0 PUSH1 0x40 MLOAD DUP1 PUSH1 0x80 ADD PUSH1 0x40 MSTORE DUP1 DUP8 PUSH20 0xFFFFFFFFFFFFFFFFFFFFFFFFFFFFFFFFFFFFFFFF AND DUP2 MSTORE PUSH1 0x20 ADD DUP7 PUSH1 0x0 ADD MLOAD DUP2 MSTORE PUSH1 0x20 ADD DUP6 DUP2 MSTORE PUSH1 0x20 ADD DUP5 DUP2 MSTORE POP SWAP1 POP PUSH1 0x0 DUP2 SWAP1 DUP1 PUSH1 0x1 DUP2 SLOAD ADD DUP1 DUP3 SSTORE DUP1 SWAP2 POP POP PUSH1 0x1 SWAP1 SUB SWAP1 PUSH1 0x0 MSTORE PUSH1 0x20 PUSH1 0x0 KECCAK256 SWAP1 PUSH1 0x4 MUL ADD PUSH1 0x0 SWAP1 SWAP2 SWAP1 SWAP2 SWAP1 SWAP2 POP PUSH1 0x0 DUP3 ADD MLOAD DUP2 PUSH1 0x0 ADD PUSH1 0x0 PUSH2 0x100 EXP DUP2 SLOAD DUP2 PUSH20 0xFFFFFFFFFFFFFFFFFFFFFFFFFFFFFFFFFFFFFFFF MUL NOT AND SWAP1 DUP4 PUSH20 0xFFFFFFFFFFFFFFFFFFFFFFFFFFFFFFFFFFFFFFFF AND MUL OR SWAP1 SSTORE POP PUSH1 0x20 DUP3 ADD MLOAD DUP2 PUSH1 0x1 ADD SWAP1 DUP2 PUSH2 0x4515 SWAP2 SWAP1 PUSH2 0x6E7A JUMP JUMPDEST POP PUSH1 0x40 DUP3 ADD MLOAD DUP2 PUSH1 0x2 ADD SWAP1 DUP2 PUSH2 0x452B SWAP2 SWAP1 PUSH2 0x6E7A JUMP JUMPDEST POP PUSH1 0x60 DUP3 ADD MLOAD DUP2 PUSH1 0x3 ADD SWAP1 DUP1 MLOAD SWAP1 PUSH1 0x20 ADD SWAP1 PUSH2 0x4548 SWAP3 SWAP2 SWAP1 PUSH2 0x5267 JUMP JUMPDEST POP POP POP PUSH1 0x3 PUSH1 0x0 SWAP1 SLOAD SWAP1 PUSH2 0x100 EXP SWAP1 DIV PUSH20 0xFFFFFFFFFFFFFFFFFFFFFFFFFFFFFFFFFFFFFFFF AND PUSH20 0xFFFFFFFFFFFFFFFFFFFFFFFFFFFFFFFFFFFFFFFF AND PUSH4 0xC47EBDDC CALLER DUP8 PUSH1 0x0 ADD MLOAD DUP10 PUSH1 0x4 PUSH1 0x0 SWAP1 SLOAD SWAP1 PUSH2 0x100 EXP SWAP1 DIV PUSH20 0xFFFFFFFFFFFFFFFFFFFFFFFFFFFFFFFFFFFFFFFF AND PUSH20 0xFFFFFFFFFFFFFFFFFFFFFFFFFFFFFFFFFFFFFFFF AND PUSH4 0x6BB8D768 DUP10 PUSH1 0x40 MLOAD DUP3 PUSH4 0xFFFFFFFF AND PUSH1 0xE0 SHL DUP2 MSTORE PUSH1 0x4 ADD PUSH2 0x45EB SWAP2 SWAP1 PUSH2 0x717E JUMP JUMPDEST PUSH1 0x0 PUSH1 0x40 MLOAD DUP1 DUP4 SUB DUP2 DUP7 GAS STATICCALL ISZERO DUP1 ISZERO PUSH2 0x4608 JUMPI RETURNDATASIZE PUSH1 0x0 DUP1 RETURNDATACOPY RETURNDATASIZE PUSH1 0x0 REVERT JUMPDEST POP POP POP POP PUSH1 0x40 MLOAD RETURNDATASIZE PUSH1 0x0 DUP3 RETURNDATACOPY RETURNDATASIZE PUSH1 0x1F NOT PUSH1 0x1F DUP3 ADD AND DUP3 ADD DUP1 PUSH1 0x40 MSTORE POP DUP2 ADD SWAP1 PUSH2 0x4631 SWAP2 SWAP1 PUSH2 0x6575 JUMP JUMPDEST PUSH1 0x20 ADD MLOAD PUSH1 0x40 MLOAD DUP6 PUSH4 0xFFFFFFFF AND PUSH1 0xE0 SHL DUP2 MSTORE PUSH1 0x4 ADD PUSH2 0x4654 SWAP5 SWAP4 SWAP3 SWAP2 SWAP1 PUSH2 0x7C33 JUMP JUMPDEST PUSH1 0x0 PUSH1 0x40 MLOAD DUP1 DUP4 SUB DUP2 PUSH1 0x0 DUP8 DUP1 EXTCODESIZE ISZERO DUP1 ISZERO PUSH2 0x466E JUMPI PUSH1 0x0 DUP1 REVERT JUMPDEST POP GAS CALL ISZERO DUP1 ISZERO PUSH2 0x4682 JUMPI RETURNDATASIZE PUSH1 0x0 DUP1 RETURNDATACOPY RETURNDATASIZE PUSH1 0x0 REVERT JUMPDEST POP POP POP POP POP JUMPDEST POP POP JUMPDEST POP POP POP JUMP JUMPDEST PUSH1 0x0 DUP1 PUSH1 0x0 SWAP1 POP JUMPDEST PUSH1 0x0 DUP1 SLOAD SWAP1 POP DUP2 LT ISZERO PUSH2 0x49C1 JUMPI PUSH1 0x4 PUSH1 0x0 SWAP1 SLOAD SWAP1 PUSH2 0x100 EXP SWAP1 DIV PUSH20 0xFFFFFFFFFFFFFFFFFFFFFFFFFFFFFFFFFFFFFFFF AND PUSH20 0xFFFFFFFFFFFFFFFFFFFFFFFFFFFFFFFFFFFFFFFF AND PUSH4 0x5C99C71B CALLER PUSH1 0x0 DUP5 DUP2 SLOAD DUP2 LT PUSH2 0x46F8 JUMPI PUSH2 0x46F7 PUSH2 0x62E2 JUMP JUMPDEST JUMPDEST SWAP1 PUSH1 0x0 MSTORE PUSH1 0x20 PUSH1 0x0 KECCAK256 SWAP1 PUSH1 0x4 MUL ADD PUSH1 0x0 ADD PUSH1 0x0 SWAP1 SLOAD SWAP1 PUSH2 0x100 EXP SWAP1 DIV PUSH20 0xFFFFFFFFFFFFFFFFFFFFFFFFFFFFFFFFFFFFFFFF AND DUP7 PUSH1 0x0 DUP7 DUP2 SLOAD DUP2 LT PUSH2 0x473F JUMPI PUSH2 0x473E PUSH2 0x62E2 JUMP JUMPDEST JUMPDEST SWAP1 PUSH1 0x0 MSTORE PUSH1 0x20 PUSH1 0x0 KECCAK256 SWAP1 PUSH1 0x4 MUL ADD PUSH1 0x1 ADD PUSH1 0x40 MLOAD DUP6 PUSH4 0xFFFFFFFF AND PUSH1 0xE0 SHL DUP2 MSTORE PUSH1 0x4 ADD PUSH2 0x476F SWAP5 SWAP4 SWAP3 SWAP2 SWAP1 PUSH2 0x6A73 JUMP JUMPDEST PUSH1 0x20 PUSH1 0x40 MLOAD DUP1 DUP4 SUB DUP2 DUP7 GAS STATICCALL ISZERO DUP1 ISZERO PUSH2 0x478C JUMPI RETURNDATASIZE PUSH1 0x0 DUP1 RETURNDATACOPY RETURNDATASIZE PUSH1 0x0 REVERT JUMPDEST POP POP POP POP PUSH1 0x40 MLOAD RETURNDATASIZE PUSH1 0x1F NOT PUSH1 0x1F DUP3 ADD AND DUP3 ADD DUP1 PUSH1 0x40 MSTORE POP DUP2 ADD SWAP1 PUSH2 0x47B0 SWAP2 SWAP1 PUSH2 0x6AC6 JUMP JUMPDEST DUP1 ISZERO PUSH2 0x499F JUMPI POP PUSH1 0x40 MLOAD PUSH1 0x20 ADD PUSH2 0x47C6 SWAP1 PUSH2 0x6A3C JUMP JUMPDEST PUSH1 0x40 MLOAD PUSH1 0x20 DUP2 DUP4 SUB SUB DUP2 MSTORE SWAP1 PUSH1 0x40 MSTORE DUP1 MLOAD SWAP1 PUSH1 0x20 ADD KECCAK256 PUSH1 0x1 PUSH1 0x0 SWAP1 SLOAD SWAP1 PUSH2 0x100 EXP SWAP1 DIV PUSH20 0xFFFFFFFFFFFFFFFFFFFFFFFFFFFFFFFFFFFFFFFF AND PUSH20 0xFFFFFFFFFFFFFFFFFFFFFFFFFFFFFFFFFFFFFFFF AND PUSH3 0x438CEB DUP6 PUSH1 0x40 MLOAD DUP3 PUSH4 0xFFFFFFFF AND PUSH1 0xE0 SHL DUP2 MSTORE PUSH1 0x4 ADD PUSH2 0x4836 SWAP2 SWAP1 PUSH2 0x6A51 JUMP JUMPDEST PUSH1 0x0 PUSH1 0x40 MLOAD DUP1 DUP4 SUB DUP2 DUP7 GAS STATICCALL ISZERO DUP1 ISZERO PUSH2 0x4853 JUMPI RETURNDATASIZE PUSH1 0x0 DUP1 RETURNDATACOPY RETURNDATASIZE PUSH1 0x0 REVERT JUMPDEST POP POP POP POP PUSH1 0x40 MLOAD RETURNDATASIZE PUSH1 0x0 DUP3 RETURNDATACOPY RETURNDATASIZE PUSH1 0x1F NOT PUSH1 0x1F DUP3 ADD AND DUP3 ADD DUP1 PUSH1 0x40 MSTORE POP DUP2 ADD SWAP1 PUSH2 0x487C SWAP2 SWAP1 PUSH2 0x6575 JUMP JUMPDEST PUSH1 0x20 ADD MLOAD PUSH1 0x40 MLOAD PUSH1 0x20 ADD PUSH2 0x4890 SWAP2 SWAP1 PUSH2 0x65FA JUMP JUMPDEST PUSH1 0x40 MLOAD PUSH1 0x20 DUP2 DUP4 SUB SUB DUP2 MSTORE SWAP1 PUSH1 0x40 MSTORE DUP1 MLOAD SWAP1 PUSH1 0x20 ADD KECCAK256 EQ DUP1 PUSH2 0x499E JUMPI POP PUSH1 0x40 MLOAD PUSH1 0x20 ADD PUSH2 0x48BC SWAP1 PUSH2 0x729E JUMP JUMPDEST PUSH1 0x40 MLOAD PUSH1 0x20 DUP2 DUP4 SUB SUB DUP2 MSTORE SWAP1 PUSH1 0x40 MSTORE DUP1 MLOAD SWAP1 PUSH1 0x20 ADD KECCAK256 PUSH1 0x1 PUSH1 0x0 SWAP1 SLOAD SWAP1 PUSH2 0x100 EXP SWAP1 DIV PUSH20 0xFFFFFFFFFFFFFFFFFFFFFFFFFFFFFFFFFFFFFFFF AND PUSH20 0xFFFFFFFFFFFFFFFFFFFFFFFFFFFFFFFFFFFFFFFF AND PUSH3 0x438CEB DUP6 PUSH1 0x40 MLOAD DUP3 PUSH4 0xFFFFFFFF AND PUSH1 0xE0 SHL DUP2 MSTORE PUSH1 0x4 ADD PUSH2 0x492C SWAP2 SWAP1 PUSH2 0x6A51 JUMP JUMPDEST PUSH1 0x0 PUSH1 0x40 MLOAD DUP1 DUP4 SUB DUP2 DUP7 GAS STATICCALL ISZERO DUP1 ISZERO PUSH2 0x4949 JUMPI RETURNDATASIZE PUSH1 0x0 DUP1 RETURNDATACOPY RETURNDATASIZE PUSH1 0x0 REVERT JUMPDEST POP POP POP POP PUSH1 0x40 MLOAD RETURNDATASIZE PUSH1 0x0 DUP3 RETURNDATACOPY RETURNDATASIZE PUSH1 0x1F NOT PUSH1 0x1F DUP3 ADD AND DUP3 ADD DUP1 PUSH1 0x40 MSTORE POP DUP2 ADD SWAP1 PUSH2 0x4972 SWAP2 SWAP1 PUSH2 0x6575 JUMP JUMPDEST PUSH1 0x20 ADD MLOAD PUSH1 0x40 MLOAD PUSH1 0x20 ADD PUSH2 0x4986 SWAP2 SWAP1 PUSH2 0x65FA JUMP JUMPDEST PUSH1 0x40 MLOAD PUSH1 0x20 DUP2 DUP4 SUB SUB DUP2 MSTORE SWAP1 PUSH1 0x40 MSTORE DUP1 MLOAD SWAP1 PUSH1 0x20 ADD KECCAK256 EQ JUMPDEST JUMPDEST ISZERO PUSH2 0x49AE JUMPI PUSH1 0x1 SWAP2 POP POP PUSH2 0x49C7 JUMP JUMPDEST DUP1 DUP1 PUSH2 0x49B9 SWAP1 PUSH2 0x69A8 JUMP JUMPDEST SWAP2 POP POP PUSH2 0x4698 JUMP JUMPDEST POP PUSH1 0x0 SWAP1 POP JUMPDEST SWAP2 SWAP1 POP JUMP JUMPDEST PUSH1 0x0 PUSH1 0x40 MLOAD PUSH1 0x20 ADD PUSH2 0x49DD SWAP1 PUSH2 0x6A3C JUMP JUMPDEST PUSH1 0x40 MLOAD PUSH1 0x20 DUP2 DUP4 SUB SUB DUP2 MSTORE SWAP1 PUSH1 0x40 MSTORE DUP1 MLOAD SWAP1 PUSH1 0x20 ADD KECCAK256 PUSH1 0x1 PUSH1 0x0 SWAP1 SLOAD SWAP1 PUSH2 0x100 EXP SWAP1 DIV PUSH20 0xFFFFFFFFFFFFFFFFFFFFFFFFFFFFFFFFFFFFFFFF AND PUSH20 0xFFFFFFFFFFFFFFFFFFFFFFFFFFFFFFFFFFFFFFFF AND PUSH3 0x438CEB DUP6 PUSH1 0x40 MLOAD DUP3 PUSH4 0xFFFFFFFF AND PUSH1 0xE0 SHL DUP2 MSTORE PUSH1 0x4 ADD PUSH2 0x4A4D SWAP2 SWAP1 PUSH2 0x6A51 JUMP JUMPDEST PUSH1 0x0 PUSH1 0x40 MLOAD DUP1 DUP4 SUB DUP2 DUP7 GAS STATICCALL ISZERO DUP1 ISZERO PUSH2 0x4A6A JUMPI RETURNDATASIZE PUSH1 0x0 DUP1 RETURNDATACOPY RETURNDATASIZE PUSH1 0x0 REVERT JUMPDEST POP POP POP POP PUSH1 0x40 MLOAD RETURNDATASIZE PUSH1 0x0 DUP3 RETURNDATACOPY RETURNDATASIZE PUSH1 0x1F NOT PUSH1 0x1F DUP3 ADD AND DUP3 ADD DUP1 PUSH1 0x40 MSTORE POP DUP2 ADD SWAP1 PUSH2 0x4A93 SWAP2 SWAP1 PUSH2 0x6575 JUMP JUMPDEST PUSH1 0x20 ADD MLOAD PUSH1 0x40 MLOAD PUSH1 0x20 ADD PUSH2 0x4AA7 SWAP2 SWAP1 PUSH2 0x65FA JUMP JUMPDEST PUSH1 0x40 MLOAD PUSH1 0x20 DUP2 DUP4 SUB SUB DUP2 MSTORE SWAP1 PUSH1 0x40 MSTORE DUP1 MLOAD SWAP1 PUSH1 0x20 ADD KECCAK256 SUB PUSH2 0x4B6E JUMPI PUSH1 0x0 PUSH2 0x4ACE DUP6 DUP6 PUSH2 0x966 JUMP JUMPDEST PUSH1 0x20 ADD MLOAD SWAP1 POP PUSH1 0x0 JUMPDEST DUP2 MLOAD DUP2 LT ISZERO PUSH2 0x4B6B JUMPI DUP4 PUSH1 0x40 MLOAD PUSH1 0x20 ADD PUSH2 0x4AF1 SWAP2 SWAP1 PUSH2 0x65FA JUMP JUMPDEST PUSH1 0x40 MLOAD PUSH1 0x20 DUP2 DUP4 SUB SUB DUP2 MSTORE SWAP1 PUSH1 0x40 MSTORE DUP1 MLOAD SWAP1 PUSH1 0x20 ADD KECCAK256 DUP3 DUP3 DUP2 MLOAD DUP2 LT PUSH2 0x4B1A JUMPI PUSH2 0x4B19 PUSH2 0x62E2 JUMP JUMPDEST JUMPDEST PUSH1 0x20 MUL PUSH1 0x20 ADD ADD MLOAD PUSH1 0x40 MLOAD PUSH1 0x20 ADD PUSH2 0x4B32 SWAP2 SWAP1 PUSH2 0x65FA JUMP JUMPDEST PUSH1 0x40 MLOAD PUSH1 0x20 DUP2 DUP4 SUB SUB DUP2 MSTORE SWAP1 PUSH1 0x40 MSTORE DUP1 MLOAD SWAP1 PUSH1 0x20 ADD KECCAK256 SUB PUSH2 0x4B58 JUMPI PUSH1 0x1 SWAP3 POP POP POP PUSH2 0x4B73 JUMP JUMPDEST DUP1 DUP1 PUSH2 0x4B63 SWAP1 PUSH2 0x69A8 JUMP JUMPDEST SWAP2 POP POP PUSH2 0x4AD7 JUMP JUMPDEST POP POP JUMPDEST PUSH1 0x0 SWAP1 POP JUMPDEST SWAP4 SWAP3 POP POP POP JUMP JUMPDEST PUSH1 0x0 PUSH2 0x4BBC CALLER DUP4 PUSH1 0x40 MLOAD DUP1 PUSH1 0x40 ADD PUSH1 0x40 MSTORE DUP1 PUSH1 0x4 DUP2 MSTORE PUSH1 0x20 ADD PUSH32 0x6564697400000000000000000000000000000000000000000000000000000000 DUP2 MSTORE POP PUSH2 0x49CC JUMP JUMPDEST DUP1 ISZERO PUSH2 0x4CB4 JUMPI POP PUSH1 0x40 MLOAD PUSH1 0x20 ADD PUSH2 0x4BD2 SWAP1 PUSH2 0x6A3C JUMP JUMPDEST PUSH1 0x40 MLOAD PUSH1 0x20 DUP2 DUP4 SUB SUB DUP2 MSTORE SWAP1 PUSH1 0x40 MSTORE DUP1 MLOAD SWAP1 PUSH1 0x20 ADD KECCAK256 PUSH1 0x1 PUSH1 0x0 SWAP1 SLOAD SWAP1 PUSH2 0x100 EXP SWAP1 DIV PUSH20 0xFFFFFFFFFFFFFFFFFFFFFFFFFFFFFFFFFFFFFFFF AND PUSH20 0xFFFFFFFFFFFFFFFFFFFFFFFFFFFFFFFFFFFFFFFF AND PUSH3 0x438CEB DUP5 PUSH1 0x40 MLOAD DUP3 PUSH4 0xFFFFFFFF AND PUSH1 0xE0 SHL DUP2 MSTORE PUSH1 0x4 ADD PUSH2 0x4C42 SWAP2 SWAP1 PUSH2 0x6A51 JUMP JUMPDEST PUSH1 0x0 PUSH1 0x40 MLOAD DUP1 DUP4 SUB DUP2 DUP7 GAS STATICCALL ISZERO DUP1 ISZERO PUSH2 0x4C5F JUMPI RETURNDATASIZE PUSH1 0x0 DUP1 RETURNDATACOPY RETURNDATASIZE PUSH1 0x0 REVERT JUMPDEST POP POP POP POP PUSH1 0x40 MLOAD RETURNDATASIZE PUSH1 0x0 DUP3 RETURNDATACOPY RETURNDATASIZE PUSH1 0x1F NOT PUSH1 0x1F DUP3 ADD AND DUP3 ADD DUP1 PUSH1 0x40 MSTORE POP DUP2 ADD SWAP1 PUSH2 0x4C88 SWAP2 SWAP1 PUSH2 0x6575 JUMP JUMPDEST PUSH1 0x20 ADD MLOAD PUSH1 0x40 MLOAD PUSH1 0x20 ADD PUSH2 0x4C9C SWAP2 SWAP1 PUSH2 0x65FA JUMP JUMPDEST PUSH1 0x40 MLOAD PUSH1 0x20 DUP2 DUP4 SUB SUB DUP2 MSTORE SWAP1 PUSH1 0x40 MSTORE DUP1 MLOAD SWAP1 PUSH1 0x20 ADD KECCAK256 EQ JUMPDEST ISZERO PUSH2 0x4CC2 JUMPI PUSH1 0x1 SWAP1 POP PUSH2 0x4CC7 JUMP JUMPDEST PUSH1 0x0 SWAP1 POP JUMPDEST SWAP2 SWAP1 POP JUMP JUMPDEST PUSH1 0x0 DUP1 PUSH20 0xFFFFFFFFFFFFFFFFFFFFFFFFFFFFFFFFFFFFFFFF AND PUSH1 0x1 PUSH1 0x0 SWAP1 SLOAD SWAP1 PUSH2 0x100 EXP SWAP1 DIV PUSH20 0xFFFFFFFFFFFFFFFFFFFFFFFFFFFFFFFFFFFFFFFF AND PUSH20 0xFFFFFFFFFFFFFFFFFFFFFFFFFFFFFFFFFFFFFFFF AND PUSH4 0x47EB6FA7 DUP8 PUSH1 0x0 ADD MLOAD PUSH1 0x40 MLOAD DUP3 PUSH4 0xFFFFFFFF AND PUSH1 0xE0 SHL DUP2 MSTORE PUSH1 0x4 ADD PUSH2 0x4D44 SWAP2 SWAP1 PUSH2 0x7CBC JUMP JUMPDEST PUSH1 0x0 PUSH1 0x40 MLOAD DUP1 DUP4 SUB DUP2 DUP7 GAS STATICCALL ISZERO DUP1 ISZERO PUSH2 0x4D61 JUMPI RETURNDATASIZE PUSH1 0x0 DUP1 RETURNDATACOPY RETURNDATASIZE PUSH1 0x0 REVERT JUMPDEST POP POP POP POP PUSH1 0x40 MLOAD RETURNDATASIZE PUSH1 0x0 DUP3 RETURNDATACOPY RETURNDATASIZE PUSH1 0x1F NOT PUSH1 0x1F DUP3 ADD AND DUP3 ADD DUP1 PUSH1 0x40 MSTORE POP DUP2 ADD SWAP1 PUSH2 0x4D8A SWAP2 SWAP1 PUSH2 0x6926 JUMP JUMPDEST PUSH1 0x20 ADD MLOAD PUSH1 0x80 ADD MLOAD PUSH20 0xFFFFFFFFFFFFFFFFFFFFFFFFFFFFFFFFFFFFFFFF AND EQ ISZERO DUP1 ISZERO PUSH2 0x4E8E JUMPI POP PUSH1 0x0 PUSH20 0xFFFFFFFFFFFFFFFFFFFFFFFFFFFFFFFFFFFFFFFF AND PUSH1 0x1 PUSH1 0x0 SWAP1 SLOAD SWAP1 PUSH2 0x100 EXP SWAP1 DIV PUSH20 0xFFFFFFFFFFFFFFFFFFFFFFFFFFFFFFFFFFFFFFFF AND PUSH20 0xFFFFFFFFFFFFFFFFFFFFFFFFFFFFFFFFFFFFFFFF AND PUSH4 0x47EB6FA7 DUP7 PUSH1 0x0 ADD MLOAD PUSH1 0x40 MLOAD DUP3 PUSH4 0xFFFFFFFF AND PUSH1 0xE0 SHL DUP2 MSTORE PUSH1 0x4 ADD PUSH2 0x4E28 SWAP2 SWAP1 PUSH2 0x7CBC JUMP JUMPDEST PUSH1 0x0 PUSH1 0x40 MLOAD DUP1 DUP4 SUB DUP2 DUP7 GAS STATICCALL ISZERO DUP1 ISZERO PUSH2 0x4E45 JUMPI RETURNDATASIZE PUSH1 0x0 DUP1 RETURNDATACOPY RETURNDATASIZE PUSH1 0x0 REVERT JUMPDEST POP POP POP POP PUSH1 0x40 MLOAD RETURNDATASIZE PUSH1 0x0 DUP3 RETURNDATACOPY RETURNDATASIZE PUSH1 0x1F NOT PUSH1 0x1F DUP3 ADD AND DUP3 ADD DUP1 PUSH1 0x40 MSTORE POP DUP2 ADD SWAP1 PUSH2 0x4E6E SWAP2 SWAP1 PUSH2 0x6926 JUMP JUMPDEST PUSH1 0x20 ADD MLOAD PUSH1 0x80 ADD MLOAD PUSH20 0xFFFFFFFFFFFFFFFFFFFFFFFFFFFFFFFFFFFFFFFF AND EQ JUMPDEST DUP1 ISZERO PUSH2 0x4EE8 JUMPI POP PUSH1 0x40 MLOAD PUSH1 0x20 ADD PUSH2 0x4EA4 SWAP1 PUSH2 0x6637 JUMP JUMPDEST PUSH1 0x40 MLOAD PUSH1 0x20 DUP2 DUP4 SUB SUB DUP2 MSTORE SWAP1 PUSH1 0x40 MSTORE DUP1 MLOAD SWAP1 PUSH1 0x20 ADD KECCAK256 DUP5 PUSH1 0x20 ADD MLOAD PUSH1 0x40 MLOAD PUSH1 0x20 ADD PUSH2 0x4ECF SWAP2 SWAP1 PUSH2 0x65FA JUMP JUMPDEST PUSH1 0x40 MLOAD PUSH1 0x20 DUP2 DUP4 SUB SUB DUP2 MSTORE SWAP1 PUSH1 0x40 MSTORE DUP1 MLOAD SWAP1 PUSH1 0x20 ADD KECCAK256 EQ ISZERO JUMPDEST DUP1 ISZERO PUSH2 0x4F42 JUMPI POP PUSH1 0x40 MLOAD PUSH1 0x20 ADD PUSH2 0x4EFE SWAP1 PUSH2 0x6637 JUMP JUMPDEST PUSH1 0x40 MLOAD PUSH1 0x20 DUP2 DUP4 SUB SUB DUP2 MSTORE SWAP1 PUSH1 0x40 MSTORE DUP1 MLOAD SWAP1 PUSH1 0x20 ADD KECCAK256 DUP5 PUSH1 0xA0 ADD MLOAD PUSH1 0x40 MLOAD PUSH1 0x20 ADD PUSH2 0x4F29 SWAP2 SWAP1 PUSH2 0x65FA JUMP JUMPDEST PUSH1 0x40 MLOAD PUSH1 0x20 DUP2 DUP4 SUB SUB DUP2 MSTORE SWAP1 PUSH1 0x40 MSTORE DUP1 MLOAD SWAP1 PUSH1 0x20 ADD KECCAK256 EQ ISZERO JUMPDEST DUP1 ISZERO PUSH2 0x4F9C JUMPI POP PUSH1 0x40 MLOAD PUSH1 0x20 ADD PUSH2 0x4F58 SWAP1 PUSH2 0x6637 JUMP JUMPDEST PUSH1 0x40 MLOAD PUSH1 0x20 DUP2 DUP4 SUB SUB DUP2 MSTORE SWAP1 PUSH1 0x40 MSTORE DUP1 MLOAD SWAP1 PUSH1 0x20 ADD KECCAK256 DUP5 PUSH1 0xC0 ADD MLOAD PUSH1 0x40 MLOAD PUSH1 0x20 ADD PUSH2 0x4F83 SWAP2 SWAP1 PUSH2 0x65FA JUMP JUMPDEST PUSH1 0x40 MLOAD PUSH1 0x20 DUP2 DUP4 SUB SUB DUP2 MSTORE SWAP1 PUSH1 0x40 MSTORE DUP1 MLOAD SWAP1 PUSH1 0x20 ADD KECCAK256 EQ ISZERO JUMPDEST DUP1 ISZERO PUSH2 0x4FF7 JUMPI POP PUSH1 0x40 MLOAD PUSH1 0x20 ADD PUSH2 0x4FB2 SWAP1 PUSH2 0x6637 JUMP JUMPDEST PUSH1 0x40 MLOAD PUSH1 0x20 DUP2 DUP4 SUB SUB DUP2 MSTORE SWAP1 PUSH1 0x40 MSTORE DUP1 MLOAD SWAP1 PUSH1 0x20 ADD KECCAK256 DUP5 PUSH2 0x100 ADD MLOAD PUSH1 0x40 MLOAD PUSH1 0x20 ADD PUSH2 0x4FDE SWAP2 SWAP1 PUSH2 0x65FA JUMP JUMPDEST PUSH1 0x40 MLOAD PUSH1 0x20 DUP2 DUP4 SUB SUB DUP2 MSTORE SWAP1 PUSH1 0x40 MSTORE DUP1 MLOAD SWAP1 PUSH1 0x20 ADD KECCAK256 EQ ISZERO JUMPDEST DUP1 ISZERO PUSH2 0x5004 JUMPI POP DUP2 MLOAD DUP4 MLOAD EQ JUMPDEST DUP1 ISZERO PUSH2 0x5043 JUMPI POP DUP5 PUSH1 0x80 ADD MLOAD PUSH20 0xFFFFFFFFFFFFFFFFFFFFFFFFFFFFFFFFFFFFFFFF AND DUP6 PUSH1 0x80 ADD MLOAD PUSH20 0xFFFFFFFFFFFFFFFFFFFFFFFFFFFFFFFFFFFFFFFF AND EQ JUMPDEST DUP1 ISZERO PUSH2 0x5080 JUMPI POP PUSH1 0x0 PUSH20 0xFFFFFFFFFFFFFFFFFFFFFFFFFFFFFFFFFFFFFFFF AND DUP6 PUSH1 0x80 ADD MLOAD PUSH20 0xFFFFFFFFFFFFFFFFFFFFFFFFFFFFFFFFFFFFFFFF AND EQ ISZERO JUMPDEST ISZERO PUSH2 0x508E JUMPI PUSH1 0x1 SWAP1 POP PUSH2 0x5093 JUMP JUMPDEST PUSH1 0x0 SWAP1 POP JUMPDEST SWAP5 SWAP4 POP POP POP POP JUMP JUMPDEST PUSH1 0x0 DUP3 PUSH20 0xFFFFFFFFFFFFFFFFFFFFFFFFFFFFFFFFFFFFFFFF AND CALLER PUSH20 0xFFFFFFFFFFFFFFFFFFFFFFFFFFFFFFFFFFFFFFFF AND EQ DUP1 ISZERO PUSH2 0x50DF JUMPI POP PUSH2 0x50DD DUP4 DUP4 PUSH2 0x105F JUMP JUMPDEST ISZERO JUMPDEST DUP1 ISZERO PUSH2 0x5183 JUMPI POP PUSH1 0x2 PUSH1 0x0 SWAP1 SLOAD SWAP1 PUSH2 0x100 EXP SWAP1 DIV PUSH20 0xFFFFFFFFFFFFFFFFFFFFFFFFFFFFFFFFFFFFFFFF AND PUSH20 0xFFFFFFFFFFFFFFFFFFFFFFFFFFFFFFFFFFFFFFFF AND PUSH4 0xA240E426 DUP5 PUSH1 0x40 MLOAD DUP3 PUSH4 0xFFFFFFFF AND PUSH1 0xE0 SHL DUP2 MSTORE PUSH1 0x4 ADD PUSH2 0x5141 SWAP2 SWAP1 PUSH2 0x6021 JUMP JUMPDEST PUSH1 0x20 PUSH1 0x40 MLOAD DUP1 DUP4 SUB DUP2 DUP7 GAS STATICCALL ISZERO DUP1 ISZERO PUSH2 0x515E JUMPI RETURNDATASIZE PUSH1 0x0 DUP1 RETURNDATACOPY RETURNDATASIZE PUSH1 0x0 REVERT JUMPDEST POP POP POP POP PUSH1 0x40 MLOAD RETURNDATASIZE PUSH1 0x1F NOT PUSH1 0x1F DUP3 ADD AND DUP3 ADD DUP1 PUSH1 0x40 MSTORE POP DUP2 ADD SWAP1 PUSH2 0x5182 SWAP2 SWAP1 PUSH2 0x6AC6 JUMP JUMPDEST JUMPDEST ISZERO PUSH2 0x5191 JUMPI PUSH1 0x1 SWAP1 POP PUSH2 0x5196 JUMP JUMPDEST PUSH1 0x0 SWAP1 POP JUMPDEST SWAP3 SWAP2 POP POP JUMP JUMPDEST PUSH1 0x40 MLOAD DUP1 PUSH1 0x60 ADD PUSH1 0x40 MSTORE DUP1 PUSH1 0x0 ISZERO ISZERO DUP2 MSTORE PUSH1 0x20 ADD PUSH1 0x60 DUP2 MSTORE PUSH1 0x20 ADD PUSH1 0x60 DUP2 MSTORE POP SWAP1 JUMP JUMPDEST PUSH1 0x40 MLOAD DUP1 PUSH2 0x120 ADD PUSH1 0x40 MSTORE DUP1 PUSH1 0x60 DUP2 MSTORE PUSH1 0x20 ADD PUSH1 0x60 DUP2 MSTORE PUSH1 0x20 ADD PUSH1 0x0 DUP2 MSTORE PUSH1 0x20 ADD PUSH1 0x60 DUP2 MSTORE PUSH1 0x20 ADD PUSH1 0x0 PUSH20 0xFFFFFFFFFFFFFFFFFFFFFFFFFFFFFFFFFFFFFFFF AND DUP2 MSTORE PUSH1 0x20 ADD PUSH1 0x60 DUP2 MSTORE PUSH1 0x20 ADD PUSH1 0x60 DUP2 MSTORE PUSH1 0x20 ADD PUSH1 0x60 DUP2 MSTORE PUSH1 0x20 ADD PUSH1 0x60 DUP2 MSTORE POP SWAP1 JUMP JUMPDEST PUSH1 0x40 MLOAD DUP1 PUSH1 0x60 ADD PUSH1 0x40 MSTORE DUP1 PUSH1 0x0 ISZERO ISZERO DUP2 MSTORE PUSH1 0x20 ADD PUSH1 0x60 DUP2 MSTORE PUSH1 0x20 ADD PUSH1 0x60 DUP2 MSTORE POP SWAP1 JUMP JUMPDEST PUSH1 0x40 MLOAD DUP1 PUSH1 0x60 ADD PUSH1 0x40 MSTORE DUP1 PUSH1 0x0 ISZERO ISZERO DUP2 MSTORE PUSH1 0x20 ADD PUSH1 0x60 DUP2 MSTORE PUSH1 0x20 ADD PUSH1 0x60 DUP2 MSTORE POP SWAP1 JUMP JUMPDEST DUP3 DUP1 SLOAD DUP3 DUP3 SSTORE SWAP1 PUSH1 0x0 MSTORE PUSH1 0x20 PUSH1 0x0 KECCAK256 SWAP1 DUP2 ADD SWAP3 DUP3 ISZERO PUSH2 0x52AF JUMPI SWAP2 PUSH1 0x20 MUL DUP3 ADD JUMPDEST DUP3 DUP2 GT ISZERO PUSH2 0x52AE JUMPI DUP3 MLOAD DUP3 SWAP1 DUP2 PUSH2 0x529E SWAP2 SWAP1 PUSH2 0x6E7A JUMP JUMPDEST POP SWAP2 PUSH1 0x20 ADD SWAP2 SWAP1 PUSH1 0x1 ADD SWAP1 PUSH2 0x5287 JUMP JUMPDEST JUMPDEST POP SWAP1 POP PUSH2 0x52BC SWAP2 SWAP1 PUSH2 0x53A1 JUMP JUMPDEST POP SWAP1 JUMP JUMPDEST PUSH1 0x40 MLOAD DUP1 PUSH1 0x60 ADD PUSH1 0x40 MSTORE DUP1 PUSH1 0x0 ISZERO ISZERO DUP2 MSTORE PUSH1 0x20 ADD PUSH1 0x60 DUP2 MSTORE PUSH1 0x20 ADD PUSH1 0x60 DUP2 MSTORE POP SWAP1 JUMP JUMPDEST DUP3 DUP1 SLOAD DUP3 DUP3 SSTORE SWAP1 PUSH1 0x0 MSTORE PUSH1 0x20 PUSH1 0x0 KECCAK256 SWAP1 DUP2 ADD SWAP3 DUP3 ISZERO PUSH2 0x532F JUMPI PUSH1 0x0 MSTORE PUSH1 0x20 PUSH1 0x0 KECCAK256 SWAP2 DUP3 ADD JUMPDEST DUP3 DUP2 GT ISZERO PUSH2 0x532E JUMPI DUP3 DUP3 SWAP1 DUP2 PUSH2 0x531E SWAP2 SWAP1 PUSH2 0x79A4 JUMP JUMPDEST POP SWAP2 PUSH1 0x1 ADD SWAP2 SWAP1 PUSH1 0x1 ADD SWAP1 PUSH2 0x5308 JUMP JUMPDEST JUMPDEST POP SWAP1 POP PUSH2 0x533C SWAP2 SWAP1 PUSH2 0x53A1 JUMP JUMPDEST POP SWAP1 JUMP JUMPDEST POP DUP1 SLOAD PUSH2 0x534C SWAP1 PUSH2 0x6340 JUMP JUMPDEST PUSH1 0x0 DUP3 SSTORE DUP1 PUSH1 0x1F LT PUSH2 0x535E JUMPI POP PUSH2 0x537D JUMP JUMPDEST PUSH1 0x1F ADD PUSH1 0x20 SWAP1 DIV SWAP1 PUSH1 0x0 MSTORE PUSH1 0x20 PUSH1 0x0 KECCAK256 SWAP1 DUP2 ADD SWAP1 PUSH2 0x537C SWAP2 SWAP1 PUSH2 0x53C5 JUMP JUMPDEST JUMPDEST POP JUMP JUMPDEST POP DUP1 SLOAD PUSH1 0x0 DUP3 SSTORE SWAP1 PUSH1 0x0 MSTORE PUSH1 0x20 PUSH1 0x0 KECCAK256 SWAP1 DUP2 ADD SWAP1 PUSH2 0x539E SWAP2 SWAP1 PUSH2 0x53A1 JUMP JUMPDEST POP JUMP JUMPDEST JUMPDEST DUP1 DUP3 GT ISZERO PUSH2 0x53C1 JUMPI PUSH1 0x0 DUP2 DUP2 PUSH2 0x53B8 SWAP2 SWAP1 PUSH2 0x5340 JUMP JUMPDEST POP PUSH1 0x1 ADD PUSH2 0x53A2 JUMP JUMPDEST POP SWAP1 JUMP JUMPDEST JUMPDEST DUP1 DUP3 GT ISZERO PUSH2 0x53DE JUMPI PUSH1 0x0 DUP2 PUSH1 0x0 SWAP1 SSTORE POP PUSH1 0x1 ADD PUSH2 0x53C6 JUMP JUMPDEST POP SWAP1 JUMP JUMPDEST PUSH1 0x0 PUSH1 0x40 MLOAD SWAP1 POP SWAP1 JUMP JUMPDEST PUSH1 0x0 DUP1 REVERT JUMPDEST PUSH1 0x0 DUP1 REVERT JUMPDEST PUSH1 0x0 PUSH20 0xFFFFFFFFFFFFFFFFFFFFFFFFFFFFFFFFFFFFFFFF DUP3 AND SWAP1 POP SWAP2 SWAP1 POP JUMP JUMPDEST PUSH1 0x0 PUSH2 0x5421 DUP3 PUSH2 0x53F6 JUMP JUMPDEST SWAP1 POP SWAP2 SWAP1 POP JUMP JUMPDEST PUSH2 0x5431 DUP2 PUSH2 0x5416 JUMP JUMPDEST DUP2 EQ PUSH2 0x543C JUMPI PUSH1 0x0 DUP1 REVERT JUMPDEST POP JUMP JUMPDEST PUSH1 0x0 DUP2 CALLDATALOAD SWAP1 POP PUSH2 0x544E DUP2 PUSH2 0x5428 JUMP JUMPDEST SWAP3 SWAP2 POP POP JUMP JUMPDEST PUSH1 0x0 DUP1 REVERT JUMPDEST PUSH1 0x0 DUP1 REVERT JUMPDEST PUSH1 0x0 PUSH1 0x1F NOT PUSH1 0x1F DUP4 ADD AND SWAP1 POP SWAP2 SWAP1 POP JUMP JUMPDEST PUSH32 0x4E487B7100000000000000000000000000000000000000000000000000000000 PUSH1 0x0 MSTORE PUSH1 0x41 PUSH1 0x4 MSTORE PUSH1 0x24 PUSH1 0x0 REVERT JUMPDEST PUSH2 0x54A7 DUP3 PUSH2 0x545E JUMP JUMPDEST DUP2 ADD DUP2 DUP2 LT PUSH8 0xFFFFFFFFFFFFFFFF DUP3 GT OR ISZERO PUSH2 0x54C6 JUMPI PUSH2 0x54C5 PUSH2 0x546F JUMP JUMPDEST JUMPDEST DUP1 PUSH1 0x40 MSTORE POP POP POP JUMP JUMPDEST PUSH1 0x0 PUSH2 0x54D9 PUSH2 0x53E2 JUMP JUMPDEST SWAP1 POP PUSH2 0x54E5 DUP3 DUP3 PUSH2 0x549E JUMP JUMPDEST SWAP2 SWAP1 POP JUMP JUMPDEST PUSH1 0x0 PUSH8 0xFFFFFFFFFFFFFFFF DUP3 GT ISZERO PUSH2 0x5505 JUMPI PUSH2 0x5504 PUSH2 0x546F JUMP JUMPDEST JUMPDEST PUSH2 0x550E DUP3 PUSH2 0x545E JUMP JUMPDEST SWAP1 POP PUSH1 0x20 DUP2 ADD SWAP1 POP SWAP2 SWAP1 POP JUMP JUMPDEST DUP3 DUP2 DUP4 CALLDATACOPY PUSH1 0x0 DUP4 DUP4 ADD MSTORE POP POP POP JUMP JUMPDEST PUSH1 0x0 PUSH2 0x553D PUSH2 0x5538 DUP5 PUSH2 0x54EA JUMP JUMPDEST PUSH2 0x54CF JUMP JUMPDEST SWAP1 POP DUP3 DUP2 MSTORE PUSH1 0x20 DUP2 ADD DUP5 DUP5 DUP5 ADD GT ISZERO PUSH2 0x5559 JUMPI PUSH2 0x5558 PUSH2 0x5459 JUMP JUMPDEST JUMPDEST PUSH2 0x5564 DUP5 DUP3 DUP6 PUSH2 0x551B JUMP JUMPDEST POP SWAP4 SWAP3 POP POP POP JUMP JUMPDEST PUSH1 0x0 DUP3 PUSH1 0x1F DUP4 ADD SLT PUSH2 0x5581 JUMPI PUSH2 0x5580 PUSH2 0x5454 JUMP JUMPDEST JUMPDEST DUP2 CALLDATALOAD PUSH2 0x5591 DUP5 DUP3 PUSH1 0x20 DUP7 ADD PUSH2 0x552A JUMP JUMPDEST SWAP2 POP POP SWAP3 SWAP2 POP POP JUMP JUMPDEST PUSH1 0x0 DUP1 PUSH1 0x40 DUP4 DUP6 SUB SLT ISZERO PUSH2 0x55B1 JUMPI PUSH2 0x55B0 PUSH2 0x53EC JUMP JUMPDEST JUMPDEST PUSH1 0x0 PUSH2 0x55BF DUP6 DUP3 DUP7 ADD PUSH2 0x543F JUMP JUMPDEST SWAP3 POP POP PUSH1 0x20 DUP4 ADD CALLDATALOAD PUSH8 0xFFFFFFFFFFFFFFFF DUP2 GT ISZERO PUSH2 0x55E0 JUMPI PUSH2 0x55DF PUSH2 0x53F1 JUMP JUMPDEST JUMPDEST PUSH2 0x55EC DUP6 DUP3 DUP7 ADD PUSH2 0x556C JUMP JUMPDEST SWAP2 POP POP SWAP3 POP SWAP3 SWAP1 POP JUMP JUMPDEST PUSH1 0x0 DUP2 ISZERO ISZERO SWAP1 POP SWAP2 SWAP1 POP JUMP JUMPDEST PUSH2 0x560B DUP2 PUSH2 0x55F6 JUMP JUMPDEST DUP3 MSTORE POP POP JUMP JUMPDEST PUSH1 0x0 DUP2 MLOAD SWAP1 POP SWAP2 SWAP1 POP JUMP JUMPDEST PUSH1 0x0 DUP3 DUP3 MSTORE PUSH1 0x20 DUP3 ADD SWAP1 POP SWAP3 SWAP2 POP POP JUMP JUMPDEST PUSH1 0x0 DUP2 SWAP1 POP PUSH1 0x20 DUP3 ADD SWAP1 POP SWAP2 SWAP1 POP JUMP JUMPDEST PUSH1 0x0 DUP2 MLOAD SWAP1 POP SWAP2 SWAP1 POP JUMP JUMPDEST PUSH1 0x0 DUP3 DUP3 MSTORE PUSH1 0x20 DUP3 ADD SWAP1 POP SWAP3 SWAP2 POP POP JUMP JUMPDEST PUSH1 0x0 JUMPDEST DUP4 DUP2 LT ISZERO PUSH2 0x5677 JUMPI DUP1 DUP3 ADD MLOAD DUP2 DUP5 ADD MSTORE PUSH1 0x20 DUP2 ADD SWAP1 POP PUSH2 0x565C JUMP JUMPDEST PUSH1 0x0 DUP5 DUP5 ADD MSTORE POP POP POP POP JUMP JUMPDEST PUSH1 0x0 PUSH2 0x568E DUP3 PUSH2 0x563D JUMP JUMPDEST PUSH2 0x5698 DUP2 DUP6 PUSH2 0x5648 JUMP JUMPDEST SWAP4 POP PUSH2 0x56A8 DUP2 DUP6 PUSH1 0x20 DUP7 ADD PUSH2 0x5659 JUMP JUMPDEST PUSH2 0x56B1 DUP2 PUSH2 0x545E JUMP JUMPDEST DUP5 ADD SWAP2 POP POP SWAP3 SWAP2 POP POP JUMP JUMPDEST PUSH1 0x0 DUP2 SWAP1 POP SWAP2 SWAP1 POP JUMP JUMPDEST PUSH2 0x56CF DUP2 PUSH2 0x56BC JUMP JUMPDEST DUP3 MSTORE POP POP JUMP JUMPDEST PUSH2 0x56DE DUP2 PUSH2 0x5416 JUMP JUMPDEST DUP3 MSTORE POP POP JUMP JUMPDEST PUSH1 0x0 PUSH2 0x120 DUP4 ADD PUSH1 0x0 DUP4 ADD MLOAD DUP5 DUP3 SUB PUSH1 0x0 DUP7 ADD MSTORE PUSH2 0x5702 DUP3 DUP3 PUSH2 0x5683 JUMP JUMPDEST SWAP2 POP POP PUSH1 0x20 DUP4 ADD MLOAD DUP5 DUP3 SUB PUSH1 0x20 DUP7 ADD MSTORE PUSH2 0x571C DUP3 DUP3 PUSH2 0x5683 JUMP JUMPDEST SWAP2 POP POP PUSH1 0x40 DUP4 ADD MLOAD PUSH2 0x5731 PUSH1 0x40 DUP7 ADD DUP3 PUSH2 0x56C6 JUMP JUMPDEST POP PUSH1 0x60 DUP4 ADD MLOAD DUP5 DUP3 SUB PUSH1 0x60 DUP7 ADD MSTORE PUSH2 0x5749 DUP3 DUP3 PUSH2 0x5683 JUMP JUMPDEST SWAP2 POP POP PUSH1 0x80 DUP4 ADD MLOAD PUSH2 0x575E PUSH1 0x80 DUP7 ADD DUP3 PUSH2 0x56D5 JUMP JUMPDEST POP PUSH1 0xA0 DUP4 ADD MLOAD DUP5 DUP3 SUB PUSH1 0xA0 DUP7 ADD MSTORE PUSH2 0x5776 DUP3 DUP3 PUSH2 0x5683 JUMP JUMPDEST SWAP2 POP POP PUSH1 0xC0 DUP4 ADD MLOAD DUP5 DUP3 SUB PUSH1 0xC0 DUP7 ADD MSTORE PUSH2 0x5790 DUP3 DUP3 PUSH2 0x5683 JUMP JUMPDEST SWAP2 POP POP PUSH1 0xE0 DUP4 ADD MLOAD DUP5 DUP3 SUB PUSH1 0xE0 DUP7 ADD MSTORE PUSH2 0x57AA DUP3 DUP3 PUSH2 0x5683 JUMP JUMPDEST SWAP2 POP POP PUSH2 0x100 DUP4 ADD MLOAD DUP5 DUP3 SUB PUSH2 0x100 DUP7 ADD MSTORE PUSH2 0x57C6 DUP3 DUP3 PUSH2 0x5683 JUMP JUMPDEST SWAP2 POP POP DUP1 SWAP2 POP POP SWAP3 SWAP2 POP POP JUMP JUMPDEST PUSH1 0x0 PUSH2 0x57DF DUP4 DUP4 PUSH2 0x56E4 JUMP JUMPDEST SWAP1 POP SWAP3 SWAP2 POP POP JUMP JUMPDEST PUSH1 0x0 PUSH1 0x20 DUP3 ADD SWAP1 POP SWAP2 SWAP1 POP JUMP JUMPDEST PUSH1 0x0 PUSH2 0x57FF DUP3 PUSH2 0x5611 JUMP JUMPDEST PUSH2 0x5809 DUP2 DUP6 PUSH2 0x561C JUMP JUMPDEST SWAP4 POP DUP4 PUSH1 0x20 DUP3 MUL DUP6 ADD PUSH2 0x581B DUP6 PUSH2 0x562D JUMP JUMPDEST DUP1 PUSH1 0x0 JUMPDEST DUP6 DUP2 LT ISZERO PUSH2 0x5857 JUMPI DUP5 DUP5 SUB DUP10 MSTORE DUP2 MLOAD PUSH2 0x5838 DUP6 DUP3 PUSH2 0x57D3 JUMP JUMPDEST SWAP5 POP PUSH2 0x5843 DUP4 PUSH2 0x57E7 JUMP JUMPDEST SWAP3 POP PUSH1 0x20 DUP11 ADD SWAP10 POP POP PUSH1 0x1 DUP2 ADD SWAP1 POP PUSH2 0x581F JUMP JUMPDEST POP DUP3 SWAP8 POP DUP8 SWAP6 POP POP POP POP POP POP SWAP3 SWAP2 POP POP JUMP JUMPDEST PUSH1 0x0 PUSH1 0x60 DUP4 ADD PUSH1 0x0 DUP4 ADD MLOAD PUSH2 0x5881 PUSH1 0x0 DUP7 ADD DUP3 PUSH2 0x5602 JUMP JUMPDEST POP PUSH1 0x20 DUP4 ADD MLOAD DUP5 DUP3 SUB PUSH1 0x20 DUP7 ADD MSTORE PUSH2 0x5899 DUP3 DUP3 PUSH2 0x57F4 JUMP JUMPDEST SWAP2 POP POP PUSH1 0x40 DUP4 ADD MLOAD DUP5 DUP3 SUB PUSH1 0x40 DUP7 ADD MSTORE PUSH2 0x58B3 DUP3 DUP3 PUSH2 0x5683 JUMP JUMPDEST SWAP2 POP POP DUP1 SWAP2 POP POP SWAP3 SWAP2 POP POP JUMP JUMPDEST PUSH1 0x0 PUSH1 0x20 DUP3 ADD SWAP1 POP DUP2 DUP2 SUB PUSH1 0x0 DUP4 ADD MSTORE PUSH2 0x58DA DUP2 DUP5 PUSH2 0x5869 JUMP JUMPDEST SWAP1 POP SWAP3 SWAP2 POP POP JUMP JUMPDEST PUSH1 0x0 DUP2 MLOAD SWAP1 POP SWAP2 SWAP1 POP JUMP JUMPDEST PUSH1 0x0 DUP3 DUP3 MSTORE PUSH1 0x20 DUP3 ADD SWAP1 POP SWAP3 SWAP2 POP POP JUMP JUMPDEST PUSH1 0x0 DUP2 SWAP1 POP PUSH1 0x20 DUP3 ADD SWAP1 POP SWAP2 SWAP1 POP JUMP JUMPDEST PUSH1 0x0 PUSH2 0x591A DUP4 DUP4 PUSH2 0x5683 JUMP JUMPDEST SWAP1 POP SWAP3 SWAP2 POP POP JUMP JUMPDEST PUSH1 0x0 PUSH1 0x20 DUP3 ADD SWAP1 POP SWAP2 SWAP1 POP JUMP JUMPDEST PUSH1 0x0 PUSH2 0x593A DUP3 PUSH2 0x58E2 JUMP JUMPDEST PUSH2 0x5944 DUP2 DUP6 PUSH2 0x58ED JUMP JUMPDEST SWAP4 POP DUP4 PUSH1 0x20 DUP3 MUL DUP6 ADD PUSH2 0x5956 DUP6 PUSH2 0x58FE JUMP JUMPDEST DUP1 PUSH1 0x0 JUMPDEST DUP6 DUP2 LT ISZERO PUSH2 0x5992 JUMPI DUP5 DUP5 SUB DUP10 MSTORE DUP2 MLOAD PUSH2 0x5973 DUP6 DUP3 PUSH2 0x590E JUMP JUMPDEST SWAP5 POP PUSH2 0x597E DUP4 PUSH2 0x5922 JUMP JUMPDEST SWAP3 POP PUSH1 0x20 DUP11 ADD SWAP10 POP POP PUSH1 0x1 DUP2 ADD SWAP1 POP PUSH2 0x595A JUMP JUMPDEST POP DUP3 SWAP8 POP DUP8 SWAP6 POP POP POP POP POP POP SWAP3 SWAP2 POP POP JUMP JUMPDEST PUSH1 0x0 PUSH1 0x60 DUP4 ADD PUSH1 0x0 DUP4 ADD MLOAD PUSH2 0x59BC PUSH1 0x0 DUP7 ADD DUP3 PUSH2 0x5602 JUMP JUMPDEST POP PUSH1 0x20 DUP4 ADD MLOAD DUP5 DUP3 SUB PUSH1 0x20 DUP7 ADD MSTORE PUSH2 0x59D4 DUP3 DUP3 PUSH2 0x592F JUMP JUMPDEST SWAP2 POP POP PUSH1 0x40 DUP4 ADD MLOAD DUP5 DUP3 SUB PUSH1 0x40 DUP7 ADD MSTORE PUSH2 0x59EE DUP3 DUP3 PUSH2 0x5683 JUMP JUMPDEST SWAP2 POP POP DUP1 SWAP2 POP POP SWAP3 SWAP2 POP POP JUMP JUMPDEST PUSH1 0x0 PUSH1 0x20 DUP3 ADD SWAP1 POP DUP2 DUP2 SUB PUSH1 0x0 DUP4 ADD MSTORE PUSH2 0x5A15 DUP2 DUP5 PUSH2 0x59A4 JUMP JUMPDEST SWAP1 POP SWAP3 SWAP2 POP POP JUMP JUMPDEST PUSH2 0x5A26 DUP2 PUSH2 0x55F6 JUMP JUMPDEST DUP3 MSTORE POP POP JUMP JUMPDEST PUSH1 0x0 PUSH1 0x20 DUP3 ADD SWAP1 POP PUSH2 0x5A41 PUSH1 0x0 DUP4 ADD DUP5 PUSH2 0x5A1D JUMP JUMPDEST SWAP3 SWAP2 POP POP JUMP JUMPDEST PUSH1 0x0 PUSH1 0x20 DUP3 DUP5 SUB SLT ISZERO PUSH2 0x5A5D JUMPI PUSH2 0x5A5C PUSH2 0x53EC JUMP JUMPDEST JUMPDEST PUSH1 0x0 DUP3 ADD CALLDATALOAD PUSH8 0xFFFFFFFFFFFFFFFF DUP2 GT ISZERO PUSH2 0x5A7B JUMPI PUSH2 0x5A7A PUSH2 0x53F1 JUMP JUMPDEST JUMPDEST PUSH2 0x5A87 DUP5 DUP3 DUP6 ADD PUSH2 0x556C JUMP JUMPDEST SWAP2 POP POP SWAP3 SWAP2 POP POP JUMP JUMPDEST PUSH1 0x0 DUP2 MLOAD SWAP1 POP SWAP2 SWAP1 POP JUMP JUMPDEST PUSH1 0x0 DUP3 DUP3 MSTORE PUSH1 0x20 DUP3 ADD SWAP1 POP SWAP3 SWAP2 POP POP JUMP JUMPDEST PUSH1 0x0 DUP2 SWAP1 POP PUSH1 0x20 DUP3 ADD SWAP1 POP SWAP2 SWAP1 POP JUMP JUMPDEST PUSH1 0x0 PUSH2 0x5AC8 DUP4 DUP4 PUSH2 0x56D5 JUMP JUMPDEST PUSH1 0x20 DUP4 ADD SWAP1 POP SWAP3 SWAP2 POP POP JUMP JUMPDEST PUSH1 0x0 PUSH1 0x20 DUP3 ADD SWAP1 POP SWAP2 SWAP1 POP JUMP JUMPDEST PUSH1 0x0 PUSH2 0x5AEC DUP3 PUSH2 0x5A90 JUMP JUMPDEST PUSH2 0x5AF6 DUP2 DUP6 PUSH2 0x5A9B JUMP JUMPDEST SWAP4 POP PUSH2 0x5B01 DUP4 PUSH2 0x5AAC JUMP JUMPDEST DUP1 PUSH1 0x0 JUMPDEST DUP4 DUP2 LT ISZERO PUSH2 0x5B32 JUMPI DUP2 MLOAD PUSH2 0x5B19 DUP9 DUP3 PUSH2 0x5ABC JUMP JUMPDEST SWAP8 POP PUSH2 0x5B24 DUP4 PUSH2 0x5AD4 JUMP JUMPDEST SWAP3 POP POP PUSH1 0x1 DUP2 ADD SWAP1 POP PUSH2 0x5B05 JUMP JUMPDEST POP DUP6 SWAP4 POP POP POP POP SWAP3 SWAP2 POP POP JUMP JUMPDEST PUSH1 0x0 PUSH1 0x60 DUP4 ADD PUSH1 0x0 DUP4 ADD MLOAD PUSH2 0x5B57 PUSH1 0x0 DUP7 ADD DUP3 PUSH2 0x5602 JUMP JUMPDEST POP PUSH1 0x20 DUP4 ADD MLOAD DUP5 DUP3 SUB PUSH1 0x20 DUP7 ADD MSTORE PUSH2 0x5B6F DUP3 DUP3 PUSH2 0x5AE1 JUMP JUMPDEST SWAP2 POP POP PUSH1 0x40 DUP4 ADD MLOAD DUP5 DUP3 SUB PUSH1 0x40 DUP7 ADD MSTORE PUSH2 0x5B89 DUP3 DUP3 PUSH2 0x5683 JUMP JUMPDEST SWAP2 POP POP DUP1 SWAP2 POP POP SWAP3 SWAP2 POP POP JUMP JUMPDEST PUSH1 0x0 PUSH1 0x20 DUP3 ADD SWAP1 POP DUP2 DUP2 SUB PUSH1 0x0 DUP4 ADD MSTORE PUSH2 0x5BB0 DUP2 DUP5 PUSH2 0x5B3F JUMP JUMPDEST SWAP1 POP SWAP3 SWAP2 POP POP JUMP JUMPDEST PUSH1 0x0 DUP1 REVERT JUMPDEST PUSH1 0x0 DUP1 REVERT JUMPDEST PUSH2 0x5BCB DUP2 PUSH2 0x56BC JUMP JUMPDEST DUP2 EQ PUSH2 0x5BD6 JUMPI PUSH1 0x0 DUP1 REVERT JUMPDEST POP JUMP JUMPDEST PUSH1 0x0 DUP2 CALLDATALOAD SWAP1 POP PUSH2 0x5BE8 DUP2 PUSH2 0x5BC2 JUMP JUMPDEST SWAP3 SWAP2 POP POP JUMP JUMPDEST PUSH1 0x0 PUSH2 0x120 DUP3 DUP5 SUB SLT ISZERO PUSH2 0x5C05 JUMPI PUSH2 0x5C04 PUSH2 0x5BB8 JUMP JUMPDEST JUMPDEST PUSH2 0x5C10 PUSH2 0x120 PUSH2 0x54CF JUMP JUMPDEST SWAP1 POP PUSH1 0x0 DUP3 ADD CALLDATALOAD PUSH8 0xFFFFFFFFFFFFFFFF DUP2 GT ISZERO PUSH2 0x5C30 JUMPI PUSH2 0x5C2F PUSH2 0x5BBD JUMP JUMPDEST JUMPDEST PUSH2 0x5C3C DUP5 DUP3 DUP6 ADD PUSH2 0x556C JUMP JUMPDEST PUSH1 0x0 DUP4 ADD MSTORE POP PUSH1 0x20 DUP3 ADD CALLDATALOAD PUSH8 0xFFFFFFFFFFFFFFFF DUP2 GT ISZERO PUSH2 0x5C60 JUMPI PUSH2 0x5C5F PUSH2 0x5BBD JUMP JUMPDEST JUMPDEST PUSH2 0x5C6C DUP5 DUP3 DUP6 ADD PUSH2 0x556C JUMP JUMPDEST PUSH1 0x20 DUP4 ADD MSTORE POP PUSH1 0x40 PUSH2 0x5C80 DUP5 DUP3 DUP6 ADD PUSH2 0x5BD9 JUMP JUMPDEST PUSH1 0x40 DUP4 ADD MSTORE POP PUSH1 0x60 DUP3 ADD CALLDATALOAD PUSH8 0xFFFFFFFFFFFFFFFF DUP2 GT ISZERO PUSH2 0x5CA4 JUMPI PUSH2 0x5CA3 PUSH2 0x5BBD JUMP JUMPDEST JUMPDEST PUSH2 0x5CB0 DUP5 DUP3 DUP6 ADD PUSH2 0x556C JUMP JUMPDEST PUSH1 0x60 DUP4 ADD MSTORE POP PUSH1 0x80 PUSH2 0x5CC4 DUP5 DUP3 DUP6 ADD PUSH2 0x543F JUMP JUMPDEST PUSH1 0x80 DUP4 ADD MSTORE POP PUSH1 0xA0 DUP3 ADD CALLDATALOAD PUSH8 0xFFFFFFFFFFFFFFFF DUP2 GT ISZERO PUSH2 0x5CE8 JUMPI PUSH2 0x5CE7 PUSH2 0x5BBD JUMP JUMPDEST JUMPDEST PUSH2 0x5CF4 DUP5 DUP3 DUP6 ADD PUSH2 0x556C JUMP JUMPDEST PUSH1 0xA0 DUP4 ADD MSTORE POP PUSH1 0xC0 DUP3 ADD CALLDATALOAD PUSH8 0xFFFFFFFFFFFFFFFF DUP2 GT ISZERO PUSH2 0x5D18 JUMPI PUSH2 0x5D17 PUSH2 0x5BBD JUMP JUMPDEST JUMPDEST PUSH2 0x5D24 DUP5 DUP3 DUP6 ADD PUSH2 0x556C JUMP JUMPDEST PUSH1 0xC0 DUP4 ADD MSTORE POP PUSH1 0xE0 DUP3 ADD CALLDATALOAD PUSH8 0xFFFFFFFFFFFFFFFF DUP2 GT ISZERO PUSH2 0x5D48 JUMPI PUSH2 0x5D47 PUSH2 0x5BBD JUMP JUMPDEST JUMPDEST PUSH2 0x5D54 DUP5 DUP3 DUP6 ADD PUSH2 0x556C JUMP JUMPDEST PUSH1 0xE0 DUP4 ADD MSTORE POP PUSH2 0x100 DUP3 ADD CALLDATALOAD PUSH8 0xFFFFFFFFFFFFFFFF DUP2 GT ISZERO PUSH2 0x5D79 JUMPI PUSH2 0x5D78 PUSH2 0x5BBD JUMP JUMPDEST JUMPDEST PUSH2 0x5D85 DUP5 DUP3 DUP6 ADD PUSH2 0x556C JUMP JUMPDEST PUSH2 0x100 DUP4 ADD MSTORE POP SWAP3 SWAP2 POP POP JUMP JUMPDEST PUSH1 0x0 PUSH8 0xFFFFFFFFFFFFFFFF DUP3 GT ISZERO PUSH2 0x5DAD JUMPI PUSH2 0x5DAC PUSH2 0x546F JUMP JUMPDEST JUMPDEST PUSH1 0x20 DUP3 MUL SWAP1 POP PUSH1 0x20 DUP2 ADD SWAP1 POP SWAP2 SWAP1 POP JUMP JUMPDEST PUSH1 0x0 DUP1 REVERT JUMPDEST PUSH1 0x0 PUSH2 0x5DD6 PUSH2 0x5DD1 DUP5 PUSH2 0x5D92 JUMP JUMPDEST PUSH2 0x54CF JUMP JUMPDEST SWAP1 POP DUP1 DUP4 DUP3 MSTORE PUSH1 0x20 DUP3 ADD SWAP1 POP PUSH1 0x20 DUP5 MUL DUP4 ADD DUP6 DUP2 GT ISZERO PUSH2 0x5DF9 JUMPI PUSH2 0x5DF8 PUSH2 0x5DBE JUMP JUMPDEST JUMPDEST DUP4 JUMPDEST DUP2 DUP2 LT ISZERO PUSH2 0x5E22 JUMPI DUP1 PUSH2 0x5E0E DUP9 DUP3 PUSH2 0x543F JUMP JUMPDEST DUP5 MSTORE PUSH1 0x20 DUP5 ADD SWAP4 POP POP PUSH1 0x20 DUP2 ADD SWAP1 POP PUSH2 0x5DFB JUMP JUMPDEST POP POP POP SWAP4 SWAP3 POP POP POP JUMP JUMPDEST PUSH1 0x0 DUP3 PUSH1 0x1F DUP4 ADD SLT PUSH2 0x5E41 JUMPI PUSH2 0x5E40 PUSH2 0x5454 JUMP JUMPDEST JUMPDEST DUP2 CALLDATALOAD PUSH2 0x5E51 DUP5 DUP3 PUSH1 0x20 DUP7 ADD PUSH2 0x5DC3 JUMP JUMPDEST SWAP2 POP POP SWAP3 SWAP2 POP POP JUMP JUMPDEST PUSH1 0x0 PUSH8 0xFFFFFFFFFFFFFFFF DUP3 GT ISZERO PUSH2 0x5E75 JUMPI PUSH2 0x5E74 PUSH2 0x546F JUMP JUMPDEST JUMPDEST PUSH1 0x20 DUP3 MUL SWAP1 POP PUSH1 0x20 DUP2 ADD SWAP1 POP SWAP2 SWAP1 POP JUMP JUMPDEST PUSH1 0x0 PUSH2 0x5E99 PUSH2 0x5E94 DUP5 PUSH2 0x5E5A JUMP JUMPDEST PUSH2 0x54CF JUMP JUMPDEST SWAP1 POP DUP1 DUP4 DUP3 MSTORE PUSH1 0x20 DUP3 ADD SWAP1 POP PUSH1 0x20 DUP5 MUL DUP4 ADD DUP6 DUP2 GT ISZERO PUSH2 0x5EBC JUMPI PUSH2 0x5EBB PUSH2 0x5DBE JUMP JUMPDEST JUMPDEST DUP4 JUMPDEST DUP2 DUP2 LT ISZERO PUSH2 0x5F03 JUMPI DUP1 CALLDATALOAD PUSH8 0xFFFFFFFFFFFFFFFF DUP2 GT ISZERO PUSH2 0x5EE1 JUMPI PUSH2 0x5EE0 PUSH2 0x5454 JUMP JUMPDEST JUMPDEST DUP1 DUP7 ADD PUSH2 0x5EEE DUP10 DUP3 PUSH2 0x556C JUMP JUMPDEST DUP6 MSTORE PUSH1 0x20 DUP6 ADD SWAP5 POP POP POP PUSH1 0x20 DUP2 ADD SWAP1 POP PUSH2 0x5EBE JUMP JUMPDEST POP POP POP SWAP4 SWAP3 POP POP POP JUMP JUMPDEST PUSH1 0x0 DUP3 PUSH1 0x1F DUP4 ADD SLT PUSH2 0x5F22 JUMPI PUSH2 0x5F21 PUSH2 0x5454 JUMP JUMPDEST JUMPDEST DUP2 CALLDATALOAD PUSH2 0x5F32 DUP5 DUP3 PUSH1 0x20 DUP7 ADD PUSH2 0x5E86 JUMP JUMPDEST SWAP2 POP POP SWAP3 SWAP2 POP POP JUMP JUMPDEST PUSH1 0x0 DUP1 PUSH1 0x0 DUP1 PUSH1 0x80 DUP6 DUP8 SUB SLT ISZERO PUSH2 0x5F55 JUMPI PUSH2 0x5F54 PUSH2 0x53EC JUMP JUMPDEST JUMPDEST PUSH1 0x0 DUP6 ADD CALLDATALOAD PUSH8 0xFFFFFFFFFFFFFFFF DUP2 GT ISZERO PUSH2 0x5F73 JUMPI PUSH2 0x5F72 PUSH2 0x53F1 JUMP JUMPDEST JUMPDEST PUSH2 0x5F7F DUP8 DUP3 DUP9 ADD PUSH2 0x5BEE JUMP JUMPDEST SWAP5 POP POP PUSH1 0x20 DUP6 ADD CALLDATALOAD PUSH8 0xFFFFFFFFFFFFFFFF DUP2 GT ISZERO PUSH2 0x5FA0 JUMPI PUSH2 0x5F9F PUSH2 0x53F1 JUMP JUMPDEST JUMPDEST PUSH2 0x5FAC DUP8 DUP3 DUP9 ADD PUSH2 0x5BEE JUMP JUMPDEST SWAP4 POP POP PUSH1 0x40 DUP6 ADD CALLDATALOAD PUSH8 0xFFFFFFFFFFFFFFFF DUP2 GT ISZERO PUSH2 0x5FCD JUMPI PUSH2 0x5FCC PUSH2 0x53F1 JUMP JUMPDEST JUMPDEST PUSH2 0x5FD9 DUP8 DUP3 DUP9 ADD PUSH2 0x5E2C JUMP JUMPDEST SWAP3 POP POP PUSH1 0x60 DUP6 ADD CALLDATALOAD PUSH8 0xFFFFFFFFFFFFFFFF DUP2 GT ISZERO PUSH2 0x5FFA JUMPI PUSH2 0x5FF9 PUSH2 0x53F1 JUMP JUMPDEST JUMPDEST PUSH2 0x6006 DUP8 DUP3 DUP9 ADD PUSH2 0x5F0D JUMP JUMPDEST SWAP2 POP POP SWAP3 SWAP6 SWAP2 SWAP5 POP SWAP3 POP JUMP JUMPDEST PUSH2 0x601B DUP2 PUSH2 0x5416 JUMP JUMPDEST DUP3 MSTORE POP POP JUMP JUMPDEST PUSH1 0x0 PUSH1 0x20 DUP3 ADD SWAP1 POP PUSH2 0x6036 PUSH1 0x0 DUP4 ADD DUP5 PUSH2 0x6012 JUMP JUMPDEST SWAP3 SWAP2 POP POP JUMP JUMPDEST PUSH1 0x0 DUP1 PUSH1 0x40 DUP4 DUP6 SUB SLT ISZERO PUSH2 0x6053 JUMPI PUSH2 0x6052 PUSH2 0x53EC JUMP JUMPDEST JUMPDEST PUSH1 0x0 DUP4 ADD CALLDATALOAD PUSH8 0xFFFFFFFFFFFFFFFF DUP2 GT ISZERO PUSH2 0x6071 JUMPI PUSH2 0x6070 PUSH2 0x53F1 JUMP JUMPDEST JUMPDEST PUSH2 0x607D DUP6 DUP3 DUP7 ADD PUSH2 0x556C JUMP JUMPDEST SWAP3 POP POP PUSH1 0x20 PUSH2 0x608E DUP6 DUP3 DUP7 ADD PUSH2 0x543F JUMP JUMPDEST SWAP2 POP POP SWAP3 POP SWAP3 SWAP1 POP JUMP JUMPDEST PUSH1 0x0 DUP1 PUSH1 0x0 PUSH1 0x60 DUP5 DUP7 SUB SLT ISZERO PUSH2 0x60B1 JUMPI PUSH2 0x60B0 PUSH2 0x53EC JUMP JUMPDEST JUMPDEST PUSH1 0x0 PUSH2 0x60BF DUP7 DUP3 DUP8 ADD PUSH2 0x543F JUMP JUMPDEST SWAP4 POP POP PUSH1 0x20 DUP5 ADD CALLDATALOAD PUSH8 0xFFFFFFFFFFFFFFFF DUP2 GT ISZERO PUSH2 0x60E0 JUMPI PUSH2 0x60DF PUSH2 0x53F1 JUMP JUMPDEST JUMPDEST PUSH2 0x60EC DUP7 DUP3 DUP8 ADD PUSH2 0x556C JUMP JUMPDEST SWAP3 POP POP PUSH1 0x40 DUP5 ADD CALLDATALOAD PUSH8 0xFFFFFFFFFFFFFFFF DUP2 GT ISZERO PUSH2 0x610D JUMPI PUSH2 0x610C PUSH2 0x53F1 JUMP JUMPDEST JUMPDEST PUSH2 0x6119 DUP7 DUP3 DUP8 ADD PUSH2 0x5F0D JUMP JUMPDEST SWAP2 POP POP SWAP3 POP SWAP3 POP SWAP3 JUMP JUMPDEST PUSH1 0x0 PUSH1 0x60 DUP4 ADD PUSH1 0x0 DUP4 ADD MLOAD PUSH2 0x613B PUSH1 0x0 DUP7 ADD DUP3 PUSH2 0x5602 JUMP JUMPDEST POP PUSH1 0x20 DUP4 ADD MLOAD DUP5 DUP3 SUB PUSH1 0x20 DUP7 ADD MSTORE PUSH2 0x6153 DUP3 DUP3 PUSH2 0x5683 JUMP JUMPDEST SWAP2 POP POP PUSH1 0x40 DUP4 ADD MLOAD DUP5 DUP3 SUB PUSH1 0x40 DUP7 ADD MSTORE PUSH2 0x616D DUP3 DUP3 PUSH2 0x5683 JUMP JUMPDEST SWAP2 POP POP DUP1 SWAP2 POP POP SWAP3 SWAP2 POP POP JUMP JUMPDEST PUSH1 0x0 PUSH1 0x20 DUP3 ADD SWAP1 POP DUP2 DUP2 SUB PUSH1 0x0 DUP4 ADD MSTORE PUSH2 0x6194 DUP2 DUP5 PUSH2 0x6123 JUMP JUMPDEST SWAP1 POP SWAP3 SWAP2 POP POP JUMP JUMPDEST PUSH1 0x0 DUP1 PUSH1 0x0 DUP1 PUSH1 0x80 DUP6 DUP8 SUB SLT ISZERO PUSH2 0x61B6 JUMPI PUSH2 0x61B5 PUSH2 0x53EC JUMP JUMPDEST JUMPDEST PUSH1 0x0 PUSH2 0x61C4 DUP8 DUP3 DUP9 ADD PUSH2 0x543F JUMP JUMPDEST SWAP5 POP POP PUSH1 0x20 DUP6 ADD CALLDATALOAD PUSH8 0xFFFFFFFFFFFFFFFF DUP2 GT ISZERO PUSH2 0x61E5 JUMPI PUSH2 0x61E4 PUSH2 0x53F1 JUMP JUMPDEST JUMPDEST PUSH2 0x61F1 DUP8 DUP3 DUP9 ADD PUSH2 0x556C JUMP JUMPDEST SWAP4 POP POP PUSH1 0x40 DUP6 ADD CALLDATALOAD PUSH8 0xFFFFFFFFFFFFFFFF DUP2 GT ISZERO PUSH2 0x6212 JUMPI PUSH2 0x6211 PUSH2 0x53F1 JUMP JUMPDEST JUMPDEST PUSH2 0x621E DUP8 DUP3 DUP9 ADD PUSH2 0x5F0D JUMP JUMPDEST SWAP3 POP POP PUSH1 0x60 DUP6 ADD CALLDATALOAD PUSH8 0xFFFFFFFFFFFFFFFF DUP2 GT ISZERO PUSH2 0x623F JUMPI PUSH2 0x623E PUSH2 0x53F1 JUMP JUMPDEST JUMPDEST PUSH2 0x624B DUP8 DUP3 DUP9 ADD PUSH2 0x5F0D JUMP JUMPDEST SWAP2 POP POP SWAP3 SWAP6 SWAP2 SWAP5 POP SWAP3 POP JUMP JUMPDEST PUSH1 0x0 DUP1 PUSH1 0x0 PUSH1 0x60 DUP5 DUP7 SUB SLT ISZERO PUSH2 0x6270 JUMPI PUSH2 0x626F PUSH2 0x53EC JUMP JUMPDEST JUMPDEST PUSH1 0x0 PUSH2 0x627E DUP7 DUP3 DUP8 ADD PUSH2 0x543F JUMP JUMPDEST SWAP4 POP POP PUSH1 0x20 DUP5 ADD CALLDATALOAD PUSH8 0xFFFFFFFFFFFFFFFF DUP2 GT ISZERO PUSH2 0x629F JUMPI PUSH2 0x629E PUSH2 0x53F1 JUMP JUMPDEST JUMPDEST PUSH2 0x62AB DUP7 DUP3 DUP8 ADD PUSH2 0x5BEE JUMP JUMPDEST SWAP3 POP POP PUSH1 0x40 DUP5 ADD CALLDATALOAD PUSH8 0xFFFFFFFFFFFFFFFF DUP2 GT ISZERO PUSH2 0x62CC JUMPI PUSH2 0x62CB PUSH2 0x53F1 JUMP JUMPDEST JUMPDEST PUSH2 0x62D8 DUP7 DUP3 DUP8 ADD PUSH2 0x556C JUMP JUMPDEST SWAP2 POP POP SWAP3 POP SWAP3 POP SWAP3 JUMP JUMPDEST PUSH32 0x4E487B7100000000000000000000000000000000000000000000000000000000 PUSH1 0x0 MSTORE PUSH1 0x32 PUSH1 0x4 MSTORE PUSH1 0x24 PUSH1 0x0 REVERT JUMPDEST PUSH32 0x4E487B7100000000000000000000000000000000000000000000000000000000 PUSH1 0x0 MSTORE PUSH1 0x22 PUSH1 0x4 MSTORE PUSH1 0x24 PUSH1 0x0 REVERT JUMPDEST PUSH1 0x0 PUSH1 0x2 DUP3 DIV SWAP1 POP PUSH1 0x1 DUP3 AND DUP1 PUSH2 0x6358 JUMPI PUSH1 0x7F DUP3 AND SWAP2 POP JUMPDEST PUSH1 0x20 DUP3 LT DUP2 SUB PUSH2 0x636B JUMPI PUSH2 0x636A PUSH2 0x6311 JUMP JUMPDEST JUMPDEST POP SWAP2 SWAP1 POP JUMP JUMPDEST PUSH1 0x0 DUP3 DUP3 MSTORE PUSH1 0x20 DUP3 ADD SWAP1 POP SWAP3 SWAP2 POP POP JUMP JUMPDEST PUSH1 0x0 DUP2 SWAP1 POP DUP2 PUSH1 0x0 MSTORE PUSH1 0x20 PUSH1 0x0 KECCAK256 SWAP1 POP SWAP2 SWAP1 POP JUMP JUMPDEST PUSH1 0x0 DUP2 SLOAD PUSH2 0x63A4 DUP2 PUSH2 0x6340 JUMP JUMPDEST PUSH2 0x63AE DUP2 DUP7 PUSH2 0x6371 JUMP JUMPDEST SWAP5 POP PUSH1 0x1 DUP3 AND PUSH1 0x0 DUP2 EQ PUSH2 0x63C9 JUMPI PUSH1 0x1 DUP2 EQ PUSH2 0x63DF JUMPI PUSH2 0x6412 JUMP JUMPDEST PUSH1 0xFF NOT DUP4 AND DUP7 MSTORE DUP2 ISZERO ISZERO PUSH1 0x20 MUL DUP7 ADD SWAP4 POP PUSH2 0x6412 JUMP JUMPDEST PUSH2 0x63E8 DUP6 PUSH2 0x6382 JUMP JUMPDEST PUSH1 0x0 JUMPDEST DUP4 DUP2 LT ISZERO PUSH2 0x640A JUMPI DUP2 SLOAD DUP2 DUP10 ADD MSTORE PUSH1 0x1 DUP3 ADD SWAP2 POP PUSH1 0x20 DUP2 ADD SWAP1 POP PUSH2 0x63EB JUMP JUMPDEST DUP1 DUP9 ADD SWAP6 POP POP POP JUMPDEST POP POP POP SWAP3 SWAP2 POP POP JUMP JUMPDEST PUSH1 0x0 PUSH1 0x20 DUP3 ADD SWAP1 POP DUP2 DUP2 SUB PUSH1 0x0 DUP4 ADD MSTORE PUSH2 0x6435 DUP2 DUP5 PUSH2 0x6397 JUMP JUMPDEST SWAP1 POP SWAP3 SWAP2 POP POP JUMP JUMPDEST PUSH2 0x6446 DUP2 PUSH2 0x55F6 JUMP JUMPDEST DUP2 EQ PUSH2 0x6451 JUMPI PUSH1 0x0 DUP1 REVERT JUMPDEST POP JUMP JUMPDEST PUSH1 0x0 DUP2 MLOAD SWAP1 POP PUSH2 0x6463 DUP2 PUSH2 0x643D JUMP JUMPDEST SWAP3 SWAP2 POP POP JUMP JUMPDEST PUSH1 0x0 PUSH2 0x647C PUSH2 0x6477 DUP5 PUSH2 0x54EA JUMP JUMPDEST PUSH2 0x54CF JUMP JUMPDEST SWAP1 POP DUP3 DUP2 MSTORE PUSH1 0x20 DUP2 ADD DUP5 DUP5 DUP5 ADD GT ISZERO PUSH2 0x6498 JUMPI PUSH2 0x6497 PUSH2 0x5459 JUMP JUMPDEST JUMPDEST PUSH2 0x64A3 DUP5 DUP3 DUP6 PUSH2 0x5659 JUMP JUMPDEST POP SWAP4 SWAP3 POP POP POP JUMP JUMPDEST PUSH1 0x0 DUP3 PUSH1 0x1F DUP4 ADD SLT PUSH2 0x64C0 JUMPI PUSH2 0x64BF PUSH2 0x5454 JUMP JUMPDEST JUMPDEST DUP2 MLOAD PUSH2 0x64D0 DUP5 DUP3 PUSH1 0x20 DUP7 ADD PUSH2 0x6469 JUMP JUMPDEST SWAP2 POP POP SWAP3 SWAP2 POP POP JUMP JUMPDEST PUSH1 0x0 PUSH1 0x60 DUP3 DUP5 SUB SLT ISZERO PUSH2 0x64EF JUMPI PUSH2 0x64EE PUSH2 0x5BB8 JUMP JUMPDEST JUMPDEST PUSH2 0x64F9 PUSH1 0x60 PUSH2 0x54CF JUMP JUMPDEST SWAP1 POP PUSH1 0x0 PUSH2 0x6509 DUP5 DUP3 DUP6 ADD PUSH2 0x6454 JUMP JUMPDEST PUSH1 0x0 DUP4 ADD MSTORE POP PUSH1 0x20 DUP3 ADD MLOAD PUSH8 0xFFFFFFFFFFFFFFFF DUP2 GT ISZERO PUSH2 0x652D JUMPI PUSH2 0x652C PUSH2 0x5BBD JUMP JUMPDEST JUMPDEST PUSH2 0x6539 DUP5 DUP3 DUP6 ADD PUSH2 0x64AB JUMP JUMPDEST PUSH1 0x20 DUP4 ADD MSTORE POP PUSH1 0x40 DUP3 ADD MLOAD PUSH8 0xFFFFFFFFFFFFFFFF DUP2 GT ISZERO PUSH2 0x655D JUMPI PUSH2 0x655C PUSH2 0x5BBD JUMP JUMPDEST JUMPDEST PUSH2 0x6569 DUP5 DUP3 DUP6 ADD PUSH2 0x64AB JUMP JUMPDEST PUSH1 0x40 DUP4 ADD MSTORE POP SWAP3 SWAP2 POP POP JUMP JUMPDEST PUSH1 0x0 PUSH1 0x20 DUP3 DUP5 SUB SLT ISZERO PUSH2 0x658B JUMPI PUSH2 0x658A PUSH2 0x53EC JUMP JUMPDEST JUMPDEST PUSH1 0x0 DUP3 ADD MLOAD PUSH8 0xFFFFFFFFFFFFFFFF DUP2 GT ISZERO PUSH2 0x65A9 JUMPI PUSH2 0x65A8 PUSH2 0x53F1 JUMP JUMPDEST JUMPDEST PUSH2 0x65B5 DUP5 DUP3 DUP6 ADD PUSH2 0x64D9 JUMP JUMPDEST SWAP2 POP POP SWAP3 SWAP2 POP POP JUMP JUMPDEST PUSH1 0x0 DUP2 SWAP1 POP SWAP3 SWAP2 POP POP JUMP JUMPDEST PUSH1 0x0 PUSH2 0x65D4 DUP3 PUSH2 0x563D JUMP JUMPDEST PUSH2 0x65DE DUP2 DUP6 PUSH2 0x65BE JUMP JUMPDEST SWAP4 POP PUSH2 0x65EE DUP2 DUP6 PUSH1 0x20 DUP7 ADD PUSH2 0x5659 JUMP JUMPDEST DUP1 DUP5 ADD SWAP2 POP POP SWAP3 SWAP2 POP POP JUMP JUMPDEST PUSH1 0x0 PUSH2 0x6606 DUP3 DUP5 PUSH2 0x65C9 JUMP JUMPDEST SWAP2 POP DUP2 SWAP1 POP SWAP3 SWAP2 POP POP JUMP JUMPDEST POP JUMP JUMPDEST PUSH1 0x0 PUSH2 0x6621 PUSH1 0x0 DUP4 PUSH2 0x65BE JUMP JUMPDEST SWAP2 POP PUSH2 0x662C DUP3 PUSH2 0x6611 JUMP JUMPDEST PUSH1 0x0 DUP3 ADD SWAP1 POP SWAP2 SWAP1 POP JUMP JUMPDEST PUSH1 0x0 PUSH2 0x6642 DUP3 PUSH2 0x6614 JUMP JUMPDEST SWAP2 POP DUP2 SWAP1 POP SWAP2 SWAP1 POP JUMP JUMPDEST PUSH1 0x0 PUSH2 0x6657 DUP3 PUSH2 0x563D JUMP JUMPDEST PUSH2 0x6661 DUP2 DUP6 PUSH2 0x6371 JUMP JUMPDEST SWAP4 POP PUSH2 0x6671 DUP2 DUP6 PUSH1 0x20 DUP7 ADD PUSH2 0x5659 JUMP JUMPDEST PUSH2 0x667A DUP2 PUSH2 0x545E JUMP JUMPDEST DUP5 ADD SWAP2 POP POP SWAP3 SWAP2 POP POP JUMP JUMPDEST PUSH1 0x0 PUSH1 0x40 DUP3 ADD SWAP1 POP DUP2 DUP2 SUB PUSH1 0x0 DUP4 ADD MSTORE PUSH2 0x669F DUP2 DUP6 PUSH2 0x664C JUMP JUMPDEST SWAP1 POP DUP2 DUP2 SUB PUSH1 0x20 DUP4 ADD MSTORE PUSH2 0x66B3 DUP2 DUP5 PUSH2 0x664C JUMP JUMPDEST SWAP1 POP SWAP4 SWAP3 POP POP POP JUMP JUMPDEST PUSH1 0x0 DUP2 MLOAD SWAP1 POP PUSH2 0x66CB DUP2 PUSH2 0x5BC2 JUMP JUMPDEST SWAP3 SWAP2 POP POP JUMP JUMPDEST PUSH1 0x0 DUP2 MLOAD SWAP1 POP PUSH2 0x66E0 DUP2 PUSH2 0x5428 JUMP JUMPDEST SWAP3 SWAP2 POP POP JUMP JUMPDEST PUSH1 0x0 PUSH2 0x120 DUP3 DUP5 SUB SLT ISZERO PUSH2 0x66FD JUMPI PUSH2 0x66FC PUSH2 0x5BB8 JUMP JUMPDEST JUMPDEST PUSH2 0x6708 PUSH2 0x120 PUSH2 0x54CF JUMP JUMPDEST SWAP1 POP PUSH1 0x0 DUP3 ADD MLOAD PUSH8 0xFFFFFFFFFFFFFFFF DUP2 GT ISZERO PUSH2 0x6728 JUMPI PUSH2 0x6727 PUSH2 0x5BBD JUMP JUMPDEST JUMPDEST PUSH2 0x6734 DUP5 DUP3 DUP6 ADD PUSH2 0x64AB JUMP JUMPDEST PUSH1 0x0 DUP4 ADD MSTORE POP PUSH1 0x20 DUP3 ADD MLOAD PUSH8 0xFFFFFFFFFFFFFFFF DUP2 GT ISZERO PUSH2 0x6758 JUMPI PUSH2 0x6757 PUSH2 0x5BBD JUMP JUMPDEST JUMPDEST PUSH2 0x6764 DUP5 DUP3 DUP6 ADD PUSH2 0x64AB JUMP JUMPDEST PUSH1 0x20 DUP4 ADD MSTORE POP PUSH1 0x40 PUSH2 0x6778 DUP5 DUP3 DUP6 ADD PUSH2 0x66BC JUMP JUMPDEST PUSH1 0x40 DUP4 ADD MSTORE POP PUSH1 0x60 DUP3 ADD MLOAD PUSH8 0xFFFFFFFFFFFFFFFF DUP2 GT ISZERO PUSH2 0x679C JUMPI PUSH2 0x679B PUSH2 0x5BBD JUMP JUMPDEST JUMPDEST PUSH2 0x67A8 DUP5 DUP3 DUP6 ADD PUSH2 0x64AB JUMP JUMPDEST PUSH1 0x60 DUP4 ADD MSTORE POP PUSH1 0x80 PUSH2 0x67BC DUP5 DUP3 DUP6 ADD PUSH2 0x66D1 JUMP JUMPDEST PUSH1 0x80 DUP4 ADD MSTORE POP PUSH1 0xA0 DUP3 ADD MLOAD PUSH8 0xFFFFFFFFFFFFFFFF DUP2 GT ISZERO PUSH2 0x67E0 JUMPI PUSH2 0x67DF PUSH2 0x5BBD JUMP JUMPDEST JUMPDEST PUSH2 0x67EC DUP5 DUP3 DUP6 ADD PUSH2 0x64AB JUMP JUMPDEST PUSH1 0xA0 DUP4 ADD MSTORE POP PUSH1 0xC0 DUP3 ADD MLOAD PUSH8 0xFFFFFFFFFFFFFFFF DUP2 GT ISZERO PUSH2 0x6810 JUMPI PUSH2 0x680F PUSH2 0x5BBD JUMP JUMPDEST JUMPDEST PUSH2 0x681C DUP5 DUP3 DUP6 ADD PUSH2 0x64AB JUMP JUMPDEST PUSH1 0xC0 DUP4 ADD MSTORE POP PUSH1 0xE0 DUP3 ADD MLOAD PUSH8 0xFFFFFFFFFFFFFFFF DUP2 GT ISZERO PUSH2 0x6840 JUMPI PUSH2 0x683F PUSH2 0x5BBD JUMP JUMPDEST JUMPDEST PUSH2 0x684C DUP5 DUP3 DUP6 ADD PUSH2 0x64AB JUMP JUMPDEST PUSH1 0xE0 DUP4 ADD MSTORE POP PUSH2 0x100 DUP3 ADD MLOAD PUSH8 0xFFFFFFFFFFFFFFFF DUP2 GT ISZERO PUSH2 0x6871 JUMPI PUSH2 0x6870 PUSH2 0x5BBD JUMP JUMPDEST JUMPDEST PUSH2 0x687D DUP5 DUP3 DUP6 ADD PUSH2 0x64AB JUMP JUMPDEST PUSH2 0x100 DUP4 ADD MSTORE POP SWAP3 SWAP2 POP POP JUMP JUMPDEST PUSH1 0x0 PUSH1 0x60 DUP3 DUP5 SUB SLT ISZERO PUSH2 0x68A0 JUMPI PUSH2 0x689F PUSH2 0x5BB8 JUMP JUMPDEST JUMPDEST PUSH2 0x68AA PUSH1 0x60 PUSH2 0x54CF JUMP JUMPDEST SWAP1 POP PUSH1 0x0 PUSH2 0x68BA DUP5 DUP3 DUP6 ADD PUSH2 0x6454 JUMP JUMPDEST PUSH1 0x0 DUP4 ADD MSTORE POP PUSH1 0x20 DUP3 ADD MLOAD PUSH8 0xFFFFFFFFFFFFFFFF DUP2 GT ISZERO PUSH2 0x68DE JUMPI PUSH2 0x68DD PUSH2 0x5BBD JUMP JUMPDEST JUMPDEST PUSH2 0x68EA DUP5 DUP3 DUP6 ADD PUSH2 0x66E6 JUMP JUMPDEST PUSH1 0x20 DUP4 ADD MSTORE POP PUSH1 0x40 DUP3 ADD MLOAD PUSH8 0xFFFFFFFFFFFFFFFF DUP2 GT ISZERO PUSH2 0x690E JUMPI PUSH2 0x690D PUSH2 0x5BBD JUMP JUMPDEST JUMPDEST PUSH2 0x691A DUP5 DUP3 DUP6 ADD PUSH2 0x64AB JUMP JUMPDEST PUSH1 0x40 DUP4 ADD MSTORE POP SWAP3 SWAP2 POP POP JUMP JUMPDEST PUSH1 0x0 PUSH1 0x20 DUP3 DUP5 SUB SLT ISZERO PUSH2 0x693C JUMPI PUSH2 0x693B PUSH2 0x53EC JUMP JUMPDEST JUMPDEST PUSH1 0x0 DUP3 ADD MLOAD PUSH8 0xFFFFFFFFFFFFFFFF DUP2 GT ISZERO PUSH2 0x695A JUMPI PUSH2 0x6959 PUSH2 0x53F1 JUMP JUMPDEST JUMPDEST PUSH2 0x6966 DUP5 DUP3 DUP6 ADD PUSH2 0x688A JUMP JUMPDEST SWAP2 POP POP SWAP3 SWAP2 POP POP JUMP JUMPDEST PUSH32 0x4E487B7100000000000000000000000000000000000000000000000000000000 PUSH1 0x0 MSTORE PUSH1 0x11 PUSH1 0x4 MSTORE PUSH1 0x24 PUSH1 0x0 REVERT JUMPDEST PUSH1 0x0 DUP2 SWAP1 POP SWAP2 SWAP1 POP JUMP JUMPDEST PUSH1 0x0 PUSH2 0x69B3 DUP3 PUSH2 0x699E JUMP JUMPDEST SWAP2 POP PUSH32 0xFFFFFFFFFFFFFFFFFFFFFFFFFFFFFFFFFFFFFFFFFFFFFFFFFFFFFFFFFFFFFFFF DUP3 SUB PUSH2 0x69E5 JUMPI PUSH2 0x69E4 PUSH2 0x696F JUMP JUMPDEST JUMPDEST PUSH1 0x1 DUP3 ADD SWAP1 POP SWAP2 SWAP1 POP JUMP JUMPDEST PUSH32 0x6163746976650000000000000000000000000000000000000000000000000000 PUSH1 0x0 DUP3 ADD MSTORE POP JUMP JUMPDEST PUSH1 0x0 PUSH2 0x6A26 PUSH1 0x6 DUP4 PUSH2 0x65BE JUMP JUMPDEST SWAP2 POP PUSH2 0x6A31 DUP3 PUSH2 0x69F0 JUMP JUMPDEST PUSH1 0x6 DUP3 ADD SWAP1 POP SWAP2 SWAP1 POP JUMP JUMPDEST PUSH1 0x0 PUSH2 0x6A47 DUP3 PUSH2 0x6A19 JUMP JUMPDEST SWAP2 POP DUP2 SWAP1 POP SWAP2 SWAP1 POP JUMP JUMPDEST PUSH1 0x0 PUSH1 0x20 DUP3 ADD SWAP1 POP DUP2 DUP2 SUB PUSH1 0x0 DUP4 ADD MSTORE PUSH2 0x6A6B DUP2 DUP5 PUSH2 0x664C JUMP JUMPDEST SWAP1 POP SWAP3 SWAP2 POP POP JUMP JUMPDEST PUSH1 0x0 PUSH1 0x80 DUP3 ADD SWAP1 POP PUSH2 0x6A88 PUSH1 0x0 DUP4 ADD DUP8 PUSH2 0x6012 JUMP JUMPDEST PUSH2 0x6A95 PUSH1 0x20 DUP4 ADD DUP7 PUSH2 0x6012 JUMP JUMPDEST DUP2 DUP2 SUB PUSH1 0x40 DUP4 ADD MSTORE PUSH2 0x6AA7 DUP2 DUP6 PUSH2 0x664C JUMP JUMPDEST SWAP1 POP DUP2 DUP2 SUB PUSH1 0x60 DUP4 ADD MSTORE PUSH2 0x6ABB DUP2 DUP5 PUSH2 0x6397 JUMP JUMPDEST SWAP1 POP SWAP6 SWAP5 POP POP POP POP POP JUMP JUMPDEST PUSH1 0x0 PUSH1 0x20 DUP3 DUP5 SUB SLT ISZERO PUSH2 0x6ADC JUMPI PUSH2 0x6ADB PUSH2 0x53EC JUMP JUMPDEST JUMPDEST PUSH1 0x0 PUSH2 0x6AEA DUP5 DUP3 DUP6 ADD PUSH2 0x6454 JUMP JUMPDEST SWAP2 POP POP SWAP3 SWAP2 POP POP JUMP JUMPDEST PUSH1 0x0 PUSH1 0x40 DUP3 ADD SWAP1 POP PUSH2 0x6B08 PUSH1 0x0 DUP4 ADD DUP6 PUSH2 0x6012 JUMP JUMPDEST DUP2 DUP2 SUB PUSH1 0x20 DUP4 ADD MSTORE PUSH2 0x6B1A DUP2 DUP5 PUSH2 0x664C JUMP JUMPDEST SWAP1 POP SWAP4 SWAP3 POP POP POP JUMP JUMPDEST PUSH1 0x0 DUP2 SLOAD PUSH2 0x6B30 DUP2 PUSH2 0x6340 JUMP JUMPDEST PUSH2 0x6B3A DUP2 DUP7 PUSH2 0x65BE JUMP JUMPDEST SWAP5 POP PUSH1 0x1 DUP3 AND PUSH1 0x0 DUP2 EQ PUSH2 0x6B55 JUMPI PUSH1 0x1 DUP2 EQ PUSH2 0x6B6A JUMPI PUSH2 0x6B9D JUMP JUMPDEST PUSH1 0xFF NOT DUP4 AND DUP7 MSTORE DUP2 ISZERO ISZERO DUP3 MUL DUP7 ADD SWAP4 POP PUSH2 0x6B9D JUMP JUMPDEST PUSH2 0x6B73 DUP6 PUSH2 0x6382 JUMP JUMPDEST PUSH1 0x0 JUMPDEST DUP4 DUP2 LT ISZERO PUSH2 0x6B95 JUMPI DUP2 SLOAD DUP2 DUP10 ADD MSTORE PUSH1 0x1 DUP3 ADD SWAP2 POP PUSH1 0x20 DUP2 ADD SWAP1 POP PUSH2 0x6B76 JUMP JUMPDEST DUP4 DUP9 ADD SWAP6 POP POP POP JUMPDEST POP POP POP SWAP3 SWAP2 POP POP JUMP JUMPDEST PUSH1 0x0 PUSH2 0x6BB2 DUP3 DUP5 PUSH2 0x6B23 JUMP JUMPDEST SWAP2 POP DUP2 SWAP1 POP SWAP3 SWAP2 POP POP JUMP JUMPDEST PUSH1 0x0 PUSH2 0x120 DUP4 ADD PUSH1 0x0 DUP4 ADD MLOAD DUP5 DUP3 SUB PUSH1 0x0 DUP7 ADD MSTORE PUSH2 0x6BDB DUP3 DUP3 PUSH2 0x5683 JUMP JUMPDEST SWAP2 POP POP PUSH1 0x20 DUP4 ADD MLOAD DUP5 DUP3 SUB PUSH1 0x20 DUP7 ADD MSTORE PUSH2 0x6BF5 DUP3 DUP3 PUSH2 0x5683 JUMP JUMPDEST SWAP2 POP POP PUSH1 0x40 DUP4 ADD MLOAD PUSH2 0x6C0A PUSH1 0x40 DUP7 ADD DUP3 PUSH2 0x56C6 JUMP JUMPDEST POP PUSH1 0x60 DUP4 ADD MLOAD DUP5 DUP3 SUB PUSH1 0x60 DUP7 ADD MSTORE PUSH2 0x6C22 DUP3 DUP3 PUSH2 0x5683 JUMP JUMPDEST SWAP2 POP POP PUSH1 0x80 DUP4 ADD MLOAD PUSH2 0x6C37 PUSH1 0x80 DUP7 ADD DUP3 PUSH2 0x56D5 JUMP JUMPDEST POP PUSH1 0xA0 DUP4 ADD MLOAD DUP5 DUP3 SUB PUSH1 0xA0 DUP7 ADD MSTORE PUSH2 0x6C4F DUP3 DUP3 PUSH2 0x5683 JUMP JUMPDEST SWAP2 POP POP PUSH1 0xC0 DUP4 ADD MLOAD DUP5 DUP3 SUB PUSH1 0xC0 DUP7 ADD MSTORE PUSH2 0x6C69 DUP3 DUP3 PUSH2 0x5683 JUMP JUMPDEST SWAP2 POP POP PUSH1 0xE0 DUP4 ADD MLOAD DUP5 DUP3 SUB PUSH1 0xE0 DUP7 ADD MSTORE PUSH2 0x6C83 DUP3 DUP3 PUSH2 0x5683 JUMP JUMPDEST SWAP2 POP POP PUSH2 0x100 DUP4 ADD MLOAD DUP5 DUP3 SUB PUSH2 0x100 DUP7 ADD MSTORE PUSH2 0x6C9F DUP3 DUP3 PUSH2 0x5683 JUMP JUMPDEST SWAP2 POP POP DUP1 SWAP2 POP POP SWAP3 SWAP2 POP POP JUMP JUMPDEST PUSH1 0x0 PUSH1 0x40 DUP3 ADD SWAP1 POP DUP2 DUP2 SUB PUSH1 0x0 DUP4 ADD MSTORE PUSH2 0x6CC6 DUP2 DUP6 PUSH2 0x6BBD JUMP JUMPDEST SWAP1 POP DUP2 DUP2 SUB PUSH1 0x20 DUP4 ADD MSTORE PUSH2 0x6CDA DUP2 DUP5 PUSH2 0x6BBD JUMP JUMPDEST SWAP1 POP SWAP4 SWAP3 POP POP POP JUMP JUMPDEST PUSH1 0x0 PUSH1 0x20 PUSH1 0x1F DUP4 ADD DIV SWAP1 POP SWAP2 SWAP1 POP JUMP JUMPDEST PUSH1 0x0 DUP3 DUP3 SHL SWAP1 POP SWAP3 SWAP2 POP POP JUMP JUMPDEST PUSH1 0x0 PUSH1 0x8 DUP4 MUL PUSH2 0x6D30 PUSH32 0xFFFFFFFFFFFFFFFFFFFFFFFFFFFFFFFFFFFFFFFFFFFFFFFFFFFFFFFFFFFFFFFF DUP3 PUSH2 0x6CF3 JUMP JUMPDEST PUSH2 0x6D3A DUP7 DUP4 PUSH2 0x6CF3 JUMP JUMPDEST SWAP6 POP DUP1 NOT DUP5 AND SWAP4 POP DUP1 DUP7 AND DUP5 OR SWAP3 POP POP POP SWAP4 SWAP3 POP POP POP JUMP JUMPDEST PUSH1 0x0 DUP2 SWAP1 POP SWAP2 SWAP1 POP JUMP JUMPDEST PUSH1 0x0 PUSH2 0x6D77 PUSH2 0x6D72 PUSH2 0x6D6D DUP5 PUSH2 0x699E JUMP JUMPDEST PUSH2 0x6D52 JUMP JUMPDEST PUSH2 0x699E JUMP JUMPDEST SWAP1 POP SWAP2 SWAP1 POP JUMP JUMPDEST PUSH1 0x0 DUP2 SWAP1 POP SWAP2 SWAP1 POP JUMP JUMPDEST PUSH2 0x6D91 DUP4 PUSH2 0x6D5C JUMP JUMPDEST PUSH2 0x6DA5 PUSH2 0x6D9D DUP3 PUSH2 0x6D7E JUMP JUMPDEST DUP5 DUP5 SLOAD PUSH2 0x6D00 JUMP JUMPDEST DUP3 SSTORE POP POP POP POP JUMP JUMPDEST PUSH1 0x0 SWAP1 JUMP JUMPDEST PUSH2 0x6DBA PUSH2 0x6DAD JUMP JUMPDEST PUSH2 0x6DC5 DUP2 DUP5 DUP5 PUSH2 0x6D88 JUMP JUMPDEST POP POP POP JUMP JUMPDEST JUMPDEST DUP2 DUP2 LT ISZERO PUSH2 0x6DE9 JUMPI PUSH2 0x6DDE PUSH1 0x0 DUP3 PUSH2 0x6DB2 JUMP JUMPDEST PUSH1 0x1 DUP2 ADD SWAP1 POP PUSH2 0x6DCB JUMP JUMPDEST POP POP JUMP JUMPDEST PUSH1 0x1F DUP3 GT ISZERO PUSH2 0x6E2E JUMPI PUSH2 0x6DFF DUP2 PUSH2 0x6382 JUMP JUMPDEST PUSH2 0x6E08 DUP5 PUSH2 0x6CE3 JUMP JUMPDEST DUP2 ADD PUSH1 0x20 DUP6 LT ISZERO PUSH2 0x6E17 JUMPI DUP2 SWAP1 POP JUMPDEST PUSH2 0x6E2B PUSH2 0x6E23 DUP6 PUSH2 0x6CE3 JUMP JUMPDEST DUP4 ADD DUP3 PUSH2 0x6DCA JUMP JUMPDEST POP POP JUMPDEST POP POP POP JUMP JUMPDEST PUSH1 0x0 DUP3 DUP3 SHR SWAP1 POP SWAP3 SWAP2 POP POP JUMP JUMPDEST PUSH1 0x0 PUSH2 0x6E51 PUSH1 0x0 NOT DUP5 PUSH1 0x8 MUL PUSH2 0x6E33 JUMP JUMPDEST NOT DUP1 DUP4 AND SWAP2 POP POP SWAP3 SWAP2 POP POP JUMP JUMPDEST PUSH1 0x0 PUSH2 0x6E6A DUP4 DUP4 PUSH2 0x6E40 JUMP JUMPDEST SWAP2 POP DUP3 PUSH1 0x2 MUL DUP3 OR SWAP1 POP SWAP3 SWAP2 POP POP JUMP JUMPDEST PUSH2 0x6E83 DUP3 PUSH2 0x563D JUMP JUMPDEST PUSH8 0xFFFFFFFFFFFFFFFF DUP2 GT ISZERO PUSH2 0x6E9C JUMPI PUSH2 0x6E9B PUSH2 0x546F JUMP JUMPDEST JUMPDEST PUSH2 0x6EA6 DUP3 SLOAD PUSH2 0x6340 JUMP JUMPDEST PUSH2 0x6EB1 DUP3 DUP3 DUP6 PUSH2 0x6DED JUMP JUMPDEST PUSH1 0x0 PUSH1 0x20 SWAP1 POP PUSH1 0x1F DUP4 GT PUSH1 0x1 DUP2 EQ PUSH2 0x6EE4 JUMPI PUSH1 0x0 DUP5 ISZERO PUSH2 0x6ED2 JUMPI DUP3 DUP8 ADD MLOAD SWAP1 POP JUMPDEST PUSH2 0x6EDC DUP6 DUP3 PUSH2 0x6E5E JUMP JUMPDEST DUP7 SSTORE POP PUSH2 0x6F44 JUMP JUMPDEST PUSH1 0x1F NOT DUP5 AND PUSH2 0x6EF2 DUP7 PUSH2 0x6382 JUMP JUMPDEST PUSH1 0x0 JUMPDEST DUP3 DUP2 LT ISZERO PUSH2 0x6F1A JUMPI DUP5 DUP10 ADD MLOAD DUP3 SSTORE PUSH1 0x1 DUP3 ADD SWAP2 POP PUSH1 0x20 DUP6 ADD SWAP5 POP PUSH1 0x20 DUP2 ADD SWAP1 POP PUSH2 0x6EF5 JUMP JUMPDEST DUP7 DUP4 LT ISZERO PUSH2 0x6F37 JUMPI DUP5 DUP10 ADD MLOAD PUSH2 0x6F33 PUSH1 0x1F DUP10 AND DUP3 PUSH2 0x6E40 JUMP JUMPDEST DUP4 SSTORE POP JUMPDEST PUSH1 0x1 PUSH1 0x2 DUP9 MUL ADD DUP9 SSTORE POP POP POP JUMPDEST POP POP POP POP POP POP JUMP JUMPDEST PUSH32 0x2D00000000000000000000000000000000000000000000000000000000000000 PUSH1 0x0 DUP3 ADD MSTORE POP JUMP JUMPDEST PUSH1 0x0 PUSH2 0x6F82 PUSH1 0x1 DUP4 PUSH2 0x6371 JUMP JUMPDEST SWAP2 POP PUSH2 0x6F8D DUP3 PUSH2 0x6F4C JUMP JUMPDEST PUSH1 0x20 DUP3 ADD SWAP1 POP SWAP2 SWAP1 POP JUMP JUMPDEST PUSH32 0x6564697400000000000000000000000000000000000000000000000000000000 PUSH1 0x0 DUP3 ADD MSTORE POP JUMP JUMPDEST PUSH1 0x0 PUSH2 0x6FCE PUSH1 0x4 DUP4 PUSH2 0x6371 JUMP JUMPDEST SWAP2 POP PUSH2 0x6FD9 DUP3 PUSH2 0x6F98 JUMP JUMPDEST PUSH1 0x20 DUP3 ADD SWAP1 POP SWAP2 SWAP1 POP JUMP JUMPDEST PUSH1 0x0 PUSH1 0xA0 DUP3 ADD SWAP1 POP PUSH2 0x6FF9 PUSH1 0x0 DUP4 ADD DUP7 PUSH2 0x6012 JUMP JUMPDEST DUP2 DUP2 SUB PUSH1 0x20 DUP4 ADD MSTORE PUSH2 0x700B DUP2 DUP6 PUSH2 0x664C JUMP JUMPDEST SWAP1 POP PUSH2 0x701A PUSH1 0x40 DUP4 ADD DUP5 PUSH2 0x6012 JUMP JUMPDEST DUP2 DUP2 SUB PUSH1 0x60 DUP4 ADD MSTORE PUSH2 0x702B DUP2 PUSH2 0x6F75 JUMP JUMPDEST SWAP1 POP DUP2 DUP2 SUB PUSH1 0x80 DUP4 ADD MSTORE PUSH2 0x703E DUP2 PUSH2 0x6FC1 JUMP JUMPDEST SWAP1 POP SWAP5 SWAP4 POP POP POP POP JUMP JUMPDEST PUSH32 0x646F776E6C6F6164000000000000000000000000000000000000000000000000 PUSH1 0x0 DUP3 ADD MSTORE POP JUMP JUMPDEST PUSH1 0x0 PUSH2 0x707E PUSH1 0x8 DUP4 PUSH2 0x6371 JUMP JUMPDEST SWAP2 POP PUSH2 0x7089 DUP3 PUSH2 0x7048 JUMP JUMPDEST PUSH1 0x20 DUP3 ADD SWAP1 POP SWAP2 SWAP1 POP JUMP JUMPDEST PUSH1 0x0 PUSH1 0xA0 DUP3 ADD SWAP1 POP PUSH2 0x70A9 PUSH1 0x0 DUP4 ADD DUP7 PUSH2 0x6012 JUMP JUMPDEST DUP2 DUP2 SUB PUSH1 0x20 DUP4 ADD MSTORE PUSH2 0x70BB DUP2 DUP6 PUSH2 0x664C JUMP JUMPDEST SWAP1 POP PUSH2 0x70CA PUSH1 0x40 DUP4 ADD DUP5 PUSH2 0x6012 JUMP JUMPDEST DUP2 DUP2 SUB PUSH1 0x60 DUP4 ADD MSTORE PUSH2 0x70DB DUP2 PUSH2 0x6F75 JUMP JUMPDEST SWAP1 POP DUP2 DUP2 SUB PUSH1 0x80 DUP4 ADD MSTORE PUSH2 0x70EE DUP2 PUSH2 0x7071 JUMP JUMPDEST SWAP1 POP SWAP5 SWAP4 POP POP POP POP JUMP JUMPDEST PUSH1 0x0 DUP3 DUP3 MSTORE PUSH1 0x20 DUP3 ADD SWAP1 POP SWAP3 SWAP2 POP POP JUMP JUMPDEST PUSH1 0x0 PUSH2 0x7114 DUP3 PUSH2 0x58E2 JUMP JUMPDEST PUSH2 0x711E DUP2 DUP6 PUSH2 0x70F8 JUMP JUMPDEST SWAP4 POP DUP4 PUSH1 0x20 DUP3 MUL DUP6 ADD PUSH2 0x7130 DUP6 PUSH2 0x58FE JUMP JUMPDEST DUP1 PUSH1 0x0 JUMPDEST DUP6 DUP2 LT ISZERO PUSH2 0x716C JUMPI DUP5 DUP5 SUB DUP10 MSTORE DUP2 MLOAD PUSH2 0x714D DUP6 DUP3 PUSH2 0x590E JUMP JUMPDEST SWAP5 POP PUSH2 0x7158 DUP4 PUSH2 0x5922 JUMP JUMPDEST SWAP3 POP PUSH1 0x20 DUP11 ADD SWAP10 POP POP PUSH1 0x1 DUP2 ADD SWAP1 POP PUSH2 0x7134 JUMP JUMPDEST POP DUP3 SWAP8 POP DUP8 SWAP6 POP POP POP POP POP POP SWAP3 SWAP2 POP POP JUMP JUMPDEST PUSH1 0x0 PUSH1 0x20 DUP3 ADD SWAP1 POP DUP2 DUP2 SUB PUSH1 0x0 DUP4 ADD MSTORE PUSH2 0x7198 DUP2 DUP5 PUSH2 0x7109 JUMP JUMPDEST SWAP1 POP SWAP3 SWAP2 POP POP JUMP JUMPDEST PUSH32 0x757064617465207065726D697373696F6E730000000000000000000000000000 PUSH1 0x0 DUP3 ADD MSTORE POP JUMP JUMPDEST PUSH1 0x0 PUSH2 0x71D6 PUSH1 0x12 DUP4 PUSH2 0x6371 JUMP JUMPDEST SWAP2 POP PUSH2 0x71E1 DUP3 PUSH2 0x71A0 JUMP JUMPDEST PUSH1 0x20 DUP3 ADD SWAP1 POP SWAP2 SWAP1 POP JUMP JUMPDEST PUSH1 0x0 PUSH1 0xA0 DUP3 ADD SWAP1 POP PUSH2 0x7201 PUSH1 0x0 DUP4 ADD DUP8 PUSH2 0x6012 JUMP JUMPDEST DUP2 DUP2 SUB PUSH1 0x20 DUP4 ADD MSTORE PUSH2 0x7213 DUP2 DUP7 PUSH2 0x664C JUMP JUMPDEST SWAP1 POP PUSH2 0x7222 PUSH1 0x40 DUP4 ADD DUP6 PUSH2 0x6012 JUMP JUMPDEST DUP2 DUP2 SUB PUSH1 0x60 DUP4 ADD MSTORE PUSH2 0x7234 DUP2 DUP5 PUSH2 0x664C JUMP JUMPDEST SWAP1 POP DUP2 DUP2 SUB PUSH1 0x80 DUP4 ADD MSTORE PUSH2 0x7247 DUP2 PUSH2 0x71C9 JUMP JUMPDEST SWAP1 POP SWAP6 SWAP5 POP POP POP POP POP JUMP JUMPDEST PUSH32 0x6564697465640000000000000000000000000000000000000000000000000000 PUSH1 0x0 DUP3 ADD MSTORE POP JUMP JUMPDEST PUSH1 0x0 PUSH2 0x7288 PUSH1 0x6 DUP4 PUSH2 0x65BE JUMP JUMPDEST SWAP2 POP PUSH2 0x7293 DUP3 PUSH2 0x7252 JUMP JUMPDEST PUSH1 0x6 DUP3 ADD SWAP1 POP SWAP2 SWAP1 POP JUMP JUMPDEST PUSH1 0x0 PUSH2 0x72A9 DUP3 PUSH2 0x727B JUMP JUMPDEST SWAP2 POP DUP2 SWAP1 POP SWAP2 SWAP1 POP JUMP JUMPDEST PUSH32 0x7375636365737320766572696669636174696F6E000000000000000000000000 PUSH1 0x0 DUP3 ADD MSTORE POP JUMP JUMPDEST PUSH1 0x0 PUSH2 0x72E9 PUSH1 0x14 DUP4 PUSH2 0x6371 JUMP JUMPDEST SWAP2 POP PUSH2 0x72F4 DUP3 PUSH2 0x72B3 JUMP JUMPDEST PUSH1 0x20 DUP3 ADD SWAP1 POP SWAP2 SWAP1 POP JUMP JUMPDEST PUSH1 0x0 PUSH1 0xA0 DUP3 ADD SWAP1 POP PUSH2 0x7314 PUSH1 0x0 DUP4 ADD DUP7 PUSH2 0x6012 JUMP JUMPDEST DUP2 DUP2 SUB PUSH1 0x20 DUP4 ADD MSTORE PUSH2 0x7326 DUP2 DUP6 PUSH2 0x6397 JUMP JUMPDEST SWAP1 POP PUSH2 0x7335 PUSH1 0x40 DUP4 ADD DUP5 PUSH2 0x6012 JUMP JUMPDEST DUP2 DUP2 SUB PUSH1 0x60 DUP4 ADD MSTORE PUSH2 0x7346 DUP2 PUSH2 0x6F75 JUMP JUMPDEST SWAP1 POP DUP2 DUP2 SUB PUSH1 0x80 DUP4 ADD MSTORE PUSH2 0x7359 DUP2 PUSH2 0x72DC JUMP JUMPDEST SWAP1 POP SWAP5 SWAP4 POP POP POP POP JUMP JUMPDEST PUSH1 0x0 PUSH2 0x7376 PUSH2 0x7371 DUP5 PUSH2 0x5E5A JUMP JUMPDEST PUSH2 0x54CF JUMP JUMPDEST SWAP1 POP DUP1 DUP4 DUP3 MSTORE PUSH1 0x20 DUP3 ADD SWAP1 POP PUSH1 0x20 DUP5 MUL DUP4 ADD DUP6 DUP2 GT ISZERO PUSH2 0x7399 JUMPI PUSH2 0x7398 PUSH2 0x5DBE JUMP JUMPDEST JUMPDEST DUP4 JUMPDEST DUP2 DUP2 LT ISZERO PUSH2 0x73E0 JUMPI DUP1 MLOAD PUSH8 0xFFFFFFFFFFFFFFFF DUP2 GT ISZERO PUSH2 0x73BE JUMPI PUSH2 0x73BD PUSH2 0x5454 JUMP JUMPDEST JUMPDEST DUP1 DUP7 ADD PUSH2 0x73CB DUP10 DUP3 PUSH2 0x64AB JUMP JUMPDEST DUP6 MSTORE PUSH1 0x20 DUP6 ADD SWAP5 POP POP POP PUSH1 0x20 DUP2 ADD SWAP1 POP PUSH2 0x739B JUMP JUMPDEST POP POP POP SWAP4 SWAP3 POP POP POP JUMP JUMPDEST PUSH1 0x0 DUP3 PUSH1 0x1F DUP4 ADD SLT PUSH2 0x73FF JUMPI PUSH2 0x73FE PUSH2 0x5454 JUMP JUMPDEST JUMPDEST DUP2 MLOAD PUSH2 0x740F DUP5 DUP3 PUSH1 0x20 DUP7 ADD PUSH2 0x7363 JUMP JUMPDEST SWAP2 POP POP SWAP3 SWAP2 POP POP JUMP JUMPDEST PUSH1 0x0 PUSH1 0x60 DUP3 DUP5 SUB SLT ISZERO PUSH2 0x742E JUMPI PUSH2 0x742D PUSH2 0x5BB8 JUMP JUMPDEST JUMPDEST PUSH2 0x7438 PUSH1 0x60 PUSH2 0x54CF JUMP JUMPDEST SWAP1 POP PUSH1 0x0 PUSH2 0x7448 DUP5 DUP3 DUP6 ADD PUSH2 0x6454 JUMP JUMPDEST PUSH1 0x0 DUP4 ADD MSTORE POP PUSH1 0x20 DUP3 ADD MLOAD PUSH8 0xFFFFFFFFFFFFFFFF DUP2 GT ISZERO PUSH2 0x746C JUMPI PUSH2 0x746B PUSH2 0x5BBD JUMP JUMPDEST JUMPDEST PUSH2 0x7478 DUP5 DUP3 DUP6 ADD PUSH2 0x73EA JUMP JUMPDEST PUSH1 0x20 DUP4 ADD MSTORE POP PUSH1 0x40 DUP3 ADD MLOAD PUSH8 0xFFFFFFFFFFFFFFFF DUP2 GT ISZERO PUSH2 0x749C JUMPI PUSH2 0x749B PUSH2 0x5BBD JUMP JUMPDEST JUMPDEST PUSH2 0x74A8 DUP5 DUP3 DUP6 ADD PUSH2 0x64AB JUMP JUMPDEST PUSH1 0x40 DUP4 ADD MSTORE POP SWAP3 SWAP2 POP POP JUMP JUMPDEST PUSH1 0x0 PUSH1 0x20 DUP3 DUP5 SUB SLT ISZERO PUSH2 0x74CA JUMPI PUSH2 0x74C9 PUSH2 0x53EC JUMP JUMPDEST JUMPDEST PUSH1 0x0 DUP3 ADD MLOAD PUSH8 0xFFFFFFFFFFFFFFFF DUP2 GT ISZERO PUSH2 0x74E8 JUMPI PUSH2 0x74E7 PUSH2 0x53F1 JUMP JUMPDEST JUMPDEST PUSH2 0x74F4 DUP5 DUP3 DUP6 ADD PUSH2 0x7418 JUMP JUMPDEST SWAP2 POP POP SWAP3 SWAP2 POP POP JUMP JUMPDEST PUSH1 0x0 PUSH2 0x750A PUSH1 0x0 DUP4 PUSH2 0x6371 JUMP JUMPDEST SWAP2 POP PUSH2 0x7515 DUP3 PUSH2 0x6611 JUMP JUMPDEST PUSH1 0x0 DUP3 ADD SWAP1 POP SWAP2 SWAP1 POP JUMP JUMPDEST PUSH1 0x0 PUSH1 0x80 DUP3 ADD SWAP1 POP PUSH2 0x7535 PUSH1 0x0 DUP4 ADD DUP7 PUSH2 0x6012 JUMP JUMPDEST DUP2 DUP2 SUB PUSH1 0x20 DUP4 ADD MSTORE PUSH2 0x7547 DUP2 DUP6 PUSH2 0x664C JUMP JUMPDEST SWAP1 POP DUP2 DUP2 SUB PUSH1 0x40 DUP4 ADD MSTORE PUSH2 0x755B DUP2 DUP5 PUSH2 0x7109 JUMP JUMPDEST SWAP1 POP DUP2 DUP2 SUB PUSH1 0x60 DUP4 ADD MSTORE PUSH2 0x756E DUP2 PUSH2 0x74FD JUMP JUMPDEST SWAP1 POP SWAP5 SWAP4 POP POP POP POP JUMP JUMPDEST PUSH1 0x0 PUSH8 0xFFFFFFFFFFFFFFFF DUP3 GT ISZERO PUSH2 0x7593 JUMPI PUSH2 0x7592 PUSH2 0x546F JUMP JUMPDEST JUMPDEST PUSH1 0x20 DUP3 MUL SWAP1 POP PUSH1 0x20 DUP2 ADD SWAP1 POP SWAP2 SWAP1 POP JUMP JUMPDEST PUSH1 0x0 PUSH2 0x75B7 PUSH2 0x75B2 DUP5 PUSH2 0x7578 JUMP JUMPDEST PUSH2 0x54CF JUMP JUMPDEST SWAP1 POP DUP1 DUP4 DUP3 MSTORE PUSH1 0x20 DUP3 ADD SWAP1 POP PUSH1 0x20 DUP5 MUL DUP4 ADD DUP6 DUP2 GT ISZERO PUSH2 0x75DA JUMPI PUSH2 0x75D9 PUSH2 0x5DBE JUMP JUMPDEST JUMPDEST DUP4 JUMPDEST DUP2 DUP2 LT ISZERO PUSH2 0x7621 JUMPI DUP1 MLOAD PUSH8 0xFFFFFFFFFFFFFFFF DUP2 GT ISZERO PUSH2 0x75FF JUMPI PUSH2 0x75FE PUSH2 0x5454 JUMP JUMPDEST JUMPDEST DUP1 DUP7 ADD PUSH2 0x760C DUP10 DUP3 PUSH2 0x66E6 JUMP JUMPDEST DUP6 MSTORE PUSH1 0x20 DUP6 ADD SWAP5 POP POP POP PUSH1 0x20 DUP2 ADD SWAP1 POP PUSH2 0x75DC JUMP JUMPDEST POP POP POP SWAP4 SWAP3 POP POP POP JUMP JUMPDEST PUSH1 0x0 DUP3 PUSH1 0x1F DUP4 ADD SLT PUSH2 0x7640 JUMPI PUSH2 0x763F PUSH2 0x5454 JUMP JUMPDEST JUMPDEST DUP2 MLOAD PUSH2 0x7650 DUP5 DUP3 PUSH1 0x20 DUP7 ADD PUSH2 0x75A4 JUMP JUMPDEST SWAP2 POP POP SWAP3 SWAP2 POP POP JUMP JUMPDEST PUSH1 0x0 PUSH1 0x60 DUP3 DUP5 SUB SLT ISZERO PUSH2 0x766F JUMPI PUSH2 0x766E PUSH2 0x5BB8 JUMP JUMPDEST JUMPDEST PUSH2 0x7679 PUSH1 0x60 PUSH2 0x54CF JUMP JUMPDEST SWAP1 POP PUSH1 0x0 PUSH2 0x7689 DUP5 DUP3 DUP6 ADD PUSH2 0x6454 JUMP JUMPDEST PUSH1 0x0 DUP4 ADD MSTORE POP PUSH1 0x20 DUP3 ADD MLOAD PUSH8 0xFFFFFFFFFFFFFFFF DUP2 GT ISZERO PUSH2 0x76AD JUMPI PUSH2 0x76AC PUSH2 0x5BBD JUMP JUMPDEST JUMPDEST PUSH2 0x76B9 DUP5 DUP3 DUP6 ADD PUSH2 0x762B JUMP JUMPDEST PUSH1 0x20 DUP4 ADD MSTORE POP PUSH1 0x40 DUP3 ADD MLOAD PUSH8 0xFFFFFFFFFFFFFFFF DUP2 GT ISZERO PUSH2 0x76DD JUMPI PUSH2 0x76DC PUSH2 0x5BBD JUMP JUMPDEST JUMPDEST PUSH2 0x76E9 DUP5 DUP3 DUP6 ADD PUSH2 0x64AB JUMP JUMPDEST PUSH1 0x40 DUP4 ADD MSTORE POP SWAP3 SWAP2 POP POP JUMP JUMPDEST PUSH1 0x0 PUSH1 0x20 DUP3 DUP5 SUB SLT ISZERO PUSH2 0x770B JUMPI PUSH2 0x770A PUSH2 0x53EC JUMP JUMPDEST JUMPDEST PUSH1 0x0 DUP3 ADD MLOAD PUSH8 0xFFFFFFFFFFFFFFFF DUP2 GT ISZERO PUSH2 0x7729 JUMPI PUSH2 0x7728 PUSH2 0x53F1 JUMP JUMPDEST JUMPDEST PUSH2 0x7735 DUP5 DUP3 DUP6 ADD PUSH2 0x7659 JUMP JUMPDEST SWAP2 POP POP SWAP3 SWAP2 POP POP JUMP JUMPDEST PUSH32 0x7368617265000000000000000000000000000000000000000000000000000000 PUSH1 0x0 DUP3 ADD MSTORE POP JUMP JUMPDEST PUSH1 0x0 PUSH2 0x7774 PUSH1 0x5 DUP4 PUSH2 0x6371 JUMP JUMPDEST SWAP2 POP PUSH2 0x777F DUP3 PUSH2 0x773E JUMP JUMPDEST PUSH1 0x20 DUP3 ADD SWAP1 POP SWAP2 SWAP1 POP JUMP JUMPDEST PUSH1 0x0 PUSH1 0xA0 DUP3 ADD SWAP1 POP PUSH2 0x779F PUSH1 0x0 DUP4 ADD DUP8 PUSH2 0x6012 JUMP JUMPDEST DUP2 DUP2 SUB PUSH1 0x20 DUP4 ADD MSTORE PUSH2 0x77B1 DUP2 DUP7 PUSH2 0x664C JUMP JUMPDEST SWAP1 POP PUSH2 0x77C0 PUSH1 0x40 DUP4 ADD DUP6 PUSH2 0x6012 JUMP JUMPDEST DUP2 DUP2 SUB PUSH1 0x60 DUP4 ADD MSTORE PUSH2 0x77D2 DUP2 DUP5 PUSH2 0x664C JUMP JUMPDEST SWAP1 POP DUP2 DUP2 SUB PUSH1 0x80 DUP4 ADD MSTORE PUSH2 0x77E5 DUP2 PUSH2 0x7767 JUMP JUMPDEST SWAP1 POP SWAP6 SWAP5 POP POP POP POP POP JUMP JUMPDEST PUSH32 0x64656C6574656400000000000000000000000000000000000000000000000000 PUSH1 0x0 DUP3 ADD MSTORE POP JUMP JUMPDEST PUSH1 0x0 PUSH2 0x7826 PUSH1 0x7 DUP4 PUSH2 0x6371 JUMP JUMPDEST SWAP2 POP PUSH2 0x7831 DUP3 PUSH2 0x77F0 JUMP JUMPDEST PUSH1 0x20 DUP3 ADD SWAP1 POP SWAP2 SWAP1 POP JUMP JUMPDEST PUSH1 0x0 PUSH1 0xA0 DUP3 ADD SWAP1 POP PUSH2 0x7851 PUSH1 0x0 DUP4 ADD DUP7 PUSH2 0x6012 JUMP JUMPDEST DUP2 DUP2 SUB PUSH1 0x20 DUP4 ADD MSTORE PUSH2 0x7863 DUP2 DUP6 PUSH2 0x664C JUMP JUMPDEST SWAP1 POP PUSH2 0x7872 PUSH1 0x40 DUP4 ADD DUP5 PUSH2 0x6012 JUMP JUMPDEST DUP2 DUP2 SUB PUSH1 0x60 DUP4 ADD MSTORE PUSH2 0x7883 DUP2 PUSH2 0x6F75 JUMP JUMPDEST SWAP1 POP DUP2 DUP2 SUB PUSH1 0x80 DUP4 ADD MSTORE PUSH2 0x7896 DUP2 PUSH2 0x7819 JUMP JUMPDEST SWAP1 POP SWAP5 SWAP4 POP POP POP POP JUMP JUMPDEST PUSH1 0x0 DUP2 SWAP1 POP SWAP3 SWAP2 POP POP JUMP JUMPDEST PUSH1 0x0 DUP2 SWAP1 POP DUP2 PUSH1 0x0 MSTORE PUSH1 0x20 PUSH1 0x0 KECCAK256 SWAP1 POP SWAP2 SWAP1 POP JUMP JUMPDEST PUSH1 0x0 DUP2 SLOAD PUSH2 0x78CD DUP2 PUSH2 0x6340 JUMP JUMPDEST PUSH2 0x78D7 DUP2 DUP7 PUSH2 0x78A0 JUMP JUMPDEST SWAP5 POP PUSH1 0x1 DUP3 AND PUSH1 0x0 DUP2 EQ PUSH2 0x78F2 JUMPI PUSH1 0x1 DUP2 EQ PUSH2 0x7907 JUMPI PUSH2 0x793A JUMP JUMPDEST PUSH1 0xFF NOT DUP4 AND DUP7 MSTORE DUP2 ISZERO ISZERO DUP3 MUL DUP7 ADD SWAP4 POP PUSH2 0x793A JUMP JUMPDEST PUSH2 0x7910 DUP6 PUSH2 0x78AB JUMP JUMPDEST PUSH1 0x0 JUMPDEST DUP4 DUP2 LT ISZERO PUSH2 0x7932 JUMPI DUP2 SLOAD DUP2 DUP10 ADD MSTORE PUSH1 0x1 DUP3 ADD SWAP2 POP PUSH1 0x20 DUP2 ADD SWAP1 POP PUSH2 0x7913 JUMP JUMPDEST DUP4 DUP9 ADD SWAP6 POP POP POP JUMPDEST POP POP POP SWAP3 SWAP2 POP POP JUMP JUMPDEST PUSH1 0x0 PUSH2 0x794F DUP3 DUP5 PUSH2 0x78C0 JUMP JUMPDEST SWAP2 POP DUP2 SWAP1 POP SWAP3 SWAP2 POP POP JUMP JUMPDEST PUSH1 0x0 PUSH2 0x7965 DUP3 PUSH2 0x699E JUMP JUMPDEST SWAP2 POP PUSH2 0x7970 DUP4 PUSH2 0x699E JUMP JUMPDEST SWAP3 POP DUP3 DUP3 SUB SWAP1 POP DUP2 DUP2 GT ISZERO PUSH2 0x7988 JUMPI PUSH2 0x7987 PUSH2 0x696F JUMP JUMPDEST JUMPDEST SWAP3 SWAP2 POP POP JUMP JUMPDEST PUSH1 0x0 DUP2 SLOAD SWAP1 POP PUSH2 0x799D DUP2 PUSH2 0x6340 JUMP JUMPDEST SWAP1 POP SWAP2 SWAP1 POP JUMP JUMPDEST DUP2 DUP2 SUB PUSH2 0x79B2 JUMPI POP POP PUSH2 0x7A8A JUMP JUMPDEST PUSH2 0x79BB DUP3 PUSH2 0x798E JUMP JUMPDEST PUSH8 0xFFFFFFFFFFFFFFFF DUP2 GT ISZERO PUSH2 0x79D4 JUMPI PUSH2 0x79D3 PUSH2 0x546F JUMP JUMPDEST JUMPDEST PUSH2 0x79DE DUP3 SLOAD PUSH2 0x6340 JUMP JUMPDEST PUSH2 0x79E9 DUP3 DUP3 DUP6 PUSH2 0x6DED JUMP JUMPDEST PUSH1 0x0 PUSH1 0x1F DUP4 GT PUSH1 0x1 DUP2 EQ PUSH2 0x7A18 JUMPI PUSH1 0x0 DUP5 ISZERO PUSH2 0x7A06 JUMPI DUP3 DUP8 ADD SLOAD SWAP1 POP JUMPDEST PUSH2 0x7A10 DUP6 DUP3 PUSH2 0x6E5E JUMP JUMPDEST DUP7 SSTORE POP PUSH2 0x7A83 JUMP JUMPDEST PUSH1 0x1F NOT DUP5 AND PUSH2 0x7A26 DUP8 PUSH2 0x6382 JUMP JUMPDEST SWAP7 POP PUSH2 0x7A31 DUP7 PUSH2 0x6382 JUMP JUMPDEST PUSH1 0x0 JUMPDEST DUP3 DUP2 LT ISZERO PUSH2 0x7A59 JUMPI DUP5 DUP10 ADD SLOAD DUP3 SSTORE PUSH1 0x1 DUP3 ADD SWAP2 POP PUSH1 0x1 DUP6 ADD SWAP5 POP PUSH1 0x20 DUP2 ADD SWAP1 POP PUSH2 0x7A34 JUMP JUMPDEST DUP7 DUP4 LT ISZERO PUSH2 0x7A76 JUMPI DUP5 DUP10 ADD SLOAD PUSH2 0x7A72 PUSH1 0x1F DUP10 AND DUP3 PUSH2 0x6E40 JUMP JUMPDEST DUP4 SSTORE POP JUMPDEST PUSH1 0x1 PUSH1 0x2 DUP9 MUL ADD DUP9 SSTORE POP POP POP JUMPDEST POP POP POP POP POP POP JUMPDEST JUMP JUMPDEST PUSH32 0x4E487B7100000000000000000000000000000000000000000000000000000000 PUSH1 0x0 MSTORE PUSH1 0x31 PUSH1 0x4 MSTORE PUSH1 0x24 PUSH1 0x0 REVERT JUMPDEST PUSH32 0x72656D6F76656420616363657373000000000000000000000000000000000000 PUSH1 0x0 DUP3 ADD MSTORE POP JUMP JUMPDEST PUSH1 0x0 PUSH2 0x7AF1 PUSH1 0xE DUP4 PUSH2 0x6371 JUMP JUMPDEST SWAP2 POP PUSH2 0x7AFC DUP3 PUSH2 0x7ABB JUMP JUMPDEST PUSH1 0x20 DUP3 ADD SWAP1 POP SWAP2 SWAP1 POP JUMP JUMPDEST PUSH1 0x0 PUSH1 0xA0 DUP3 ADD SWAP1 POP PUSH2 0x7B1C PUSH1 0x0 DUP4 ADD DUP7 PUSH2 0x6012 JUMP JUMPDEST DUP2 DUP2 SUB PUSH1 0x20 DUP4 ADD MSTORE PUSH2 0x7B2E DUP2 DUP6 PUSH2 0x664C JUMP JUMPDEST SWAP1 POP PUSH2 0x7B3D PUSH1 0x40 DUP4 ADD DUP5 PUSH2 0x6012 JUMP JUMPDEST DUP2 DUP2 SUB PUSH1 0x60 DUP4 ADD MSTORE PUSH2 0x7B4E DUP2 PUSH2 0x6F75 JUMP JUMPDEST SWAP1 POP DUP2 DUP2 SUB PUSH1 0x80 DUP4 ADD MSTORE PUSH2 0x7B61 DUP2 PUSH2 0x7AE4 JUMP JUMPDEST SWAP1 POP SWAP5 SWAP4 POP POP POP POP JUMP JUMPDEST PUSH1 0x0 PUSH1 0x80 DUP3 ADD SWAP1 POP PUSH2 0x7B80 PUSH1 0x0 DUP4 ADD DUP8 PUSH2 0x6012 JUMP JUMPDEST DUP2 DUP2 SUB PUSH1 0x20 DUP4 ADD MSTORE PUSH2 0x7B92 DUP2 DUP7 PUSH2 0x664C JUMP JUMPDEST SWAP1 POP DUP2 DUP2 SUB PUSH1 0x40 DUP4 ADD MSTORE PUSH2 0x7BA6 DUP2 DUP6 PUSH2 0x7109 JUMP JUMPDEST SWAP1 POP DUP2 DUP2 SUB PUSH1 0x60 DUP4 ADD MSTORE PUSH2 0x7BBA DUP2 DUP5 PUSH2 0x664C JUMP JUMPDEST SWAP1 POP SWAP6 SWAP5 POP POP POP POP POP JUMP JUMPDEST PUSH1 0x0 PUSH1 0x20 DUP3 ADD SWAP1 POP DUP2 DUP2 SUB PUSH1 0x0 DUP4 ADD MSTORE PUSH2 0x7BDF DUP2 DUP5 PUSH2 0x6BBD JUMP JUMPDEST SWAP1 POP SWAP3 SWAP2 POP POP JUMP JUMPDEST PUSH32 0x75706C6F61640000000000000000000000000000000000000000000000000000 PUSH1 0x0 DUP3 ADD MSTORE POP JUMP JUMPDEST PUSH1 0x0 PUSH2 0x7C1D PUSH1 0x6 DUP4 PUSH2 0x6371 JUMP JUMPDEST SWAP2 POP PUSH2 0x7C28 DUP3 PUSH2 0x7BE7 JUMP JUMPDEST PUSH1 0x20 DUP3 ADD SWAP1 POP SWAP2 SWAP1 POP JUMP JUMPDEST PUSH1 0x0 PUSH1 0xA0 DUP3 ADD SWAP1 POP PUSH2 0x7C48 PUSH1 0x0 DUP4 ADD DUP8 PUSH2 0x6012 JUMP JUMPDEST DUP2 DUP2 SUB PUSH1 0x20 DUP4 ADD MSTORE PUSH2 0x7C5A DUP2 DUP7 PUSH2 0x664C JUMP JUMPDEST SWAP1 POP PUSH2 0x7C69 PUSH1 0x40 DUP4 ADD DUP6 PUSH2 0x6012 JUMP JUMPDEST DUP2 DUP2 SUB PUSH1 0x60 DUP4 ADD MSTORE PUSH2 0x7C7B DUP2 DUP5 PUSH2 0x664C JUMP JUMPDEST SWAP1 POP DUP2 DUP2 SUB PUSH1 0x80 DUP4 ADD MSTORE PUSH2 0x7C8E DUP2 PUSH2 0x7C10 JUMP JUMPDEST SWAP1 POP SWAP6 SWAP5 POP POP POP POP POP JUMP JUMPDEST PUSH1 0x0 PUSH2 0x7CA6 PUSH1 0x6 DUP4 PUSH2 0x6371 JUMP JUMPDEST SWAP2 POP PUSH2 0x7CB1 DUP3 PUSH2 0x69F0 JUMP JUMPDEST PUSH1 0x20 DUP3 ADD SWAP1 POP SWAP2 SWAP1 POP JUMP JUMPDEST PUSH1 0x0 PUSH1 0x40 DUP3 ADD SWAP1 POP DUP2 DUP2 SUB PUSH1 0x0 DUP4 ADD MSTORE PUSH2 0x7CD6 DUP2 DUP5 PUSH2 0x664C JUMP JUMPDEST SWAP1 POP DUP2 DUP2 SUB PUSH1 0x20 DUP4 ADD MSTORE PUSH2 0x7CE9 DUP2 PUSH2 0x7C99 JUMP JUMPDEST SWAP1 POP SWAP3 SWAP2 POP POP JUMP INVALID 0x4D PUSH2 0x6B65 KECCAK256 PUSH20 0x75726520746865207472616E73616374696F6E20 PUSH6 0x786563757465 PUSH19 0x20617320746F206265207468652073616D6520 PUSH2 0x7320 PUSH21 0x686520757365722C20746865207573657220686173 KECCAK256 PUSH21 0x6F206265206173736F636961746564207769746820 PUSH21 0x68652066696C652C20616E64207468652066696C65 KECCAK256 PUSH9 0x617320746F20626520 PUSH10 0x6E207468652061637469 PUSH23 0x65206F72206564697465642073746174652E536F6D6574 PUSH9 0x696E672077656E7420 PUSH24 0x726F6E67207768696C6520747279696E6720746F20676574 KECCAK256 PUSH21 0x6865207573657273207769746820646F776E6C6F61 PUSH5 0x207065726D PUSH10 0x7373696F6E73206F7665 PUSH19 0x207468652066696C652E546865207472616E61 PUSH20 0x6374696F6E2065786563757465722073686F756C PUSH5 0x2062652074 PUSH9 0x652073616D65206173 KECCAK256 PUSH21 0x6865207573657220746F2067657420746865206669 PUSH13 0x65732066726F6D2E5468652074 PUSH19 0x616E73616374696F6E20657865637574657220 PUSH9 0x617320746F20626520 PUSH2 0x7373 PUSH16 0x63696174656420776974682074686520 PUSH7 0x696C652C20616E PUSH5 0x2074686520 PUSH7 0x696C652073686F PUSH22 0x6C6420626520696E2074686520616374697665207374 PUSH2 0x7465 0x2E LOG2 PUSH5 0x6970667358 0x22 SLT KECCAK256 0xAB PUSH2 0x4C5D PC GASPRICE EXTCODECOPY MLOAD NUMBER DUP5 0xCF DUP4 JUMP AND 0xF RETURNDATACOPY LOG1 0x26 PUSH13 0xD493FBC733AF96DF074E2D794B PUSH5 0x736F6C6343 STOP ADDMOD SGT STOP CALLER PUSH1 0x80 PUSH1 0x40 MSTORE CALLVALUE DUP1 ISZERO PUSH3 0x11 JUMPI PUSH1 0x0 DUP1 REVERT JUMPDEST POP PUSH1 0x40 MLOAD PUSH3 0x38A2 CODESIZE SUB DUP1 PUSH3 0x38A2 DUP4 CODECOPY DUP2 DUP2 ADD PUSH1 0x40 MSTORE DUP2 ADD SWAP1 PUSH3 0x37 SWAP2 SWAP1 PUSH3 0xE9 JUMP JUMPDEST DUP1 PUSH1 0x2 PUSH1 0x0 PUSH2 0x100 EXP DUP2 SLOAD DUP2 PUSH20 0xFFFFFFFFFFFFFFFFFFFFFFFFFFFFFFFFFFFFFFFF MUL NOT AND SWAP1 DUP4 PUSH20 0xFFFFFFFFFFFFFFFFFFFFFFFFFFFFFFFFFFFFFFFF AND MUL OR SWAP1 SSTORE POP POP PUSH3 0x11B JUMP JUMPDEST PUSH1 0x0 DUP1 REVERT JUMPDEST PUSH1 0x0 PUSH20 0xFFFFFFFFFFFFFFFFFFFFFFFFFFFFFFFFFFFFFFFF DUP3 AND SWAP1 POP SWAP2 SWAP1 POP JUMP JUMPDEST PUSH1 0x0 PUSH3 0xB1 DUP3 PUSH3 0x84 JUMP JUMPDEST SWAP1 POP SWAP2 SWAP1 POP JUMP JUMPDEST PUSH3 0xC3 DUP2 PUSH3 0xA4 JUMP JUMPDEST DUP2 EQ PUSH3 0xCF JUMPI PUSH1 0x0 DUP1 REVERT JUMPDEST POP JUMP JUMPDEST PUSH1 0x0 DUP2 MLOAD SWAP1 POP PUSH3 0xE3 DUP2 PUSH3 0xB8 JUMP JUMPDEST SWAP3 SWAP2 POP POP JUMP JUMPDEST PUSH1 0x0 PUSH1 0x20 DUP3 DUP5 SUB SLT ISZERO PUSH3 0x102 JUMPI PUSH3 0x101 PUSH3 0x7F JUMP JUMPDEST JUMPDEST PUSH1 0x0 PUSH3 0x112 DUP5 DUP3 DUP6 ADD PUSH3 0xD2 JUMP JUMPDEST SWAP2 POP POP SWAP3 SWAP2 POP POP JUMP JUMPDEST PUSH2 0x3777 DUP1 PUSH3 0x12B PUSH1 0x0 CODECOPY PUSH1 0x0 RETURN INVALID PUSH1 0x80 PUSH1 0x40 MSTORE CALLVALUE DUP1 ISZERO PUSH2 0x10 JUMPI PUSH1 0x0 DUP1 REVERT JUMPDEST POP PUSH1 0x4 CALLDATASIZE LT PUSH2 0xA8 JUMPI PUSH1 0x0 CALLDATALOAD PUSH1 0xE0 SHR DUP1 PUSH4 0x95F0F0BB GT PUSH2 0x71 JUMPI DUP1 PUSH4 0x95F0F0BB EQ PUSH2 0x189 JUMPI DUP1 PUSH4 0x9BCCD6AD EQ PUSH2 0x1A5 JUMPI DUP1 PUSH4 0xBFDDC42F EQ PUSH2 0x1D5 JUMPI DUP1 PUSH4 0xE8D56B8B EQ PUSH2 0x1F1 JUMPI DUP1 PUSH4 0xF880680B EQ PUSH2 0x20D JUMPI DUP1 PUSH4 0xFADC54F4 EQ PUSH2 0x23D JUMPI PUSH2 0xA8 JUMP JUMPDEST DUP1 PUSH3 0x438CEB EQ PUSH2 0xAD JUMPI DUP1 PUSH4 0x47EB6FA7 EQ PUSH2 0xDD JUMPI DUP1 PUSH4 0x52A9BAEF EQ PUSH2 0x10D JUMPI DUP1 PUSH4 0x74546FDF EQ PUSH2 0x13D JUMPI DUP1 PUSH4 0x922243AD EQ PUSH2 0x159 JUMPI JUMPDEST PUSH1 0x0 DUP1 REVERT JUMPDEST PUSH2 0xC7 PUSH1 0x4 DUP1 CALLDATASIZE SUB DUP2 ADD SWAP1 PUSH2 0xC2 SWAP2 SWAP1 PUSH2 0x25CD JUMP JUMPDEST PUSH2 0x26D JUMP JUMPDEST PUSH1 0x40 MLOAD PUSH2 0xD4 SWAP2 SWAP1 PUSH2 0x2707 JUMP JUMPDEST PUSH1 0x40 MLOAD DUP1 SWAP2 SUB SWAP1 RETURN JUMPDEST PUSH2 0xF7 PUSH1 0x4 DUP1 CALLDATASIZE SUB DUP2 ADD SWAP1 PUSH2 0xF2 SWAP2 SWAP1 PUSH2 0x2729 JUMP JUMPDEST PUSH2 0x352 JUMP JUMPDEST PUSH1 0x40 MLOAD PUSH2 0x104 SWAP2 SWAP1 PUSH2 0x2941 JUMP JUMPDEST PUSH1 0x40 MLOAD DUP1 SWAP2 SUB SWAP1 RETURN JUMPDEST PUSH2 0x127 PUSH1 0x4 DUP1 CALLDATASIZE SUB DUP2 ADD SWAP1 PUSH2 0x122 SWAP2 SWAP1 PUSH2 0x298F JUMP JUMPDEST PUSH2 0xA14 JUMP JUMPDEST PUSH1 0x40 MLOAD PUSH2 0x134 SWAP2 SWAP1 PUSH2 0x29FA JUMP JUMPDEST PUSH1 0x40 MLOAD DUP1 SWAP2 SUB SWAP1 RETURN JUMPDEST PUSH2 0x157 PUSH1 0x4 DUP1 CALLDATASIZE SUB DUP2 ADD SWAP1 PUSH2 0x152 SWAP2 SWAP1 PUSH2 0x25CD JUMP JUMPDEST PUSH2 0xA9E JUMP JUMPDEST STOP JUMPDEST PUSH2 0x173 PUSH1 0x4 DUP1 CALLDATASIZE SUB DUP2 ADD SWAP1 PUSH2 0x16E SWAP2 SWAP1 PUSH2 0x25CD JUMP JUMPDEST PUSH2 0xB5B JUMP JUMPDEST PUSH1 0x40 MLOAD PUSH2 0x180 SWAP2 SWAP1 PUSH2 0x2B2E JUMP JUMPDEST PUSH1 0x40 MLOAD DUP1 SWAP2 SUB SWAP1 RETURN JUMPDEST PUSH2 0x1A3 PUSH1 0x4 DUP1 CALLDATASIZE SUB DUP2 ADD SWAP1 PUSH2 0x19E SWAP2 SWAP1 PUSH2 0x2D2A JUMP JUMPDEST PUSH2 0xF10 JUMP JUMPDEST STOP JUMPDEST PUSH2 0x1BF PUSH1 0x4 DUP1 CALLDATASIZE SUB DUP2 ADD SWAP1 PUSH2 0x1BA SWAP2 SWAP1 PUSH2 0x25CD JUMP JUMPDEST PUSH2 0x123B JUMP JUMPDEST PUSH1 0x40 MLOAD PUSH2 0x1CC SWAP2 SWAP1 PUSH2 0x29FA JUMP JUMPDEST PUSH1 0x40 MLOAD DUP1 SWAP2 SUB SWAP1 RETURN JUMPDEST PUSH2 0x1EF PUSH1 0x4 DUP1 CALLDATASIZE SUB DUP2 ADD SWAP1 PUSH2 0x1EA SWAP2 SWAP1 PUSH2 0x2DA2 JUMP JUMPDEST PUSH2 0x12DF JUMP JUMPDEST STOP JUMPDEST PUSH2 0x20B PUSH1 0x4 DUP1 CALLDATASIZE SUB DUP2 ADD SWAP1 PUSH2 0x206 SWAP2 SWAP1 PUSH2 0x2DEB JUMP JUMPDEST PUSH2 0x150E JUMP JUMPDEST STOP JUMPDEST PUSH2 0x227 PUSH1 0x4 DUP1 CALLDATASIZE SUB DUP2 ADD SWAP1 PUSH2 0x222 SWAP2 SWAP1 PUSH2 0x25CD JUMP JUMPDEST PUSH2 0x165E JUMP JUMPDEST PUSH1 0x40 MLOAD PUSH2 0x234 SWAP2 SWAP1 PUSH2 0x2707 JUMP JUMPDEST PUSH1 0x40 MLOAD DUP1 SWAP2 SUB SWAP1 RETURN JUMPDEST PUSH2 0x257 PUSH1 0x4 DUP1 CALLDATASIZE SUB DUP2 ADD SWAP1 PUSH2 0x252 SWAP2 SWAP1 PUSH2 0x25CD JUMP JUMPDEST PUSH2 0x17E5 JUMP JUMPDEST PUSH1 0x40 MLOAD PUSH2 0x264 SWAP2 SWAP1 PUSH2 0x2F31 JUMP JUMPDEST PUSH1 0x40 MLOAD DUP1 SWAP2 SUB SWAP1 RETURN JUMPDEST PUSH2 0x275 PUSH2 0x237F JUMP JUMPDEST PUSH1 0x40 MLOAD DUP1 PUSH1 0x60 ADD PUSH1 0x40 MSTORE DUP1 PUSH1 0x1 ISZERO ISZERO DUP2 MSTORE PUSH1 0x20 ADD PUSH1 0x0 DUP5 PUSH1 0x40 MLOAD PUSH2 0x299 SWAP2 SWAP1 PUSH2 0x2F8F JUMP JUMPDEST SWAP1 DUP2 MSTORE PUSH1 0x20 ADD PUSH1 0x40 MLOAD DUP1 SWAP2 SUB SWAP1 KECCAK256 PUSH1 0x7 ADD DUP1 SLOAD PUSH2 0x2B5 SWAP1 PUSH2 0x2FD5 JUMP JUMPDEST DUP1 PUSH1 0x1F ADD PUSH1 0x20 DUP1 SWAP2 DIV MUL PUSH1 0x20 ADD PUSH1 0x40 MLOAD SWAP1 DUP2 ADD PUSH1 0x40 MSTORE DUP1 SWAP3 SWAP2 SWAP1 DUP2 DUP2 MSTORE PUSH1 0x20 ADD DUP3 DUP1 SLOAD PUSH2 0x2E1 SWAP1 PUSH2 0x2FD5 JUMP JUMPDEST DUP1 ISZERO PUSH2 0x32E JUMPI DUP1 PUSH1 0x1F LT PUSH2 0x303 JUMPI PUSH2 0x100 DUP1 DUP4 SLOAD DIV MUL DUP4 MSTORE SWAP2 PUSH1 0x20 ADD SWAP2 PUSH2 0x32E JUMP JUMPDEST DUP3 ADD SWAP2 SWAP1 PUSH1 0x0 MSTORE PUSH1 0x20 PUSH1 0x0 KECCAK256 SWAP1 JUMPDEST DUP2 SLOAD DUP2 MSTORE SWAP1 PUSH1 0x1 ADD SWAP1 PUSH1 0x20 ADD DUP1 DUP4 GT PUSH2 0x311 JUMPI DUP3 SWAP1 SUB PUSH1 0x1F AND DUP3 ADD SWAP2 JUMPDEST POP POP POP POP POP DUP2 MSTORE PUSH1 0x20 ADD PUSH1 0x40 MLOAD DUP1 PUSH1 0x20 ADD PUSH1 0x40 MSTORE DUP1 PUSH1 0x0 DUP2 MSTORE POP DUP2 MSTORE POP SWAP1 POP SWAP2 SWAP1 POP JUMP JUMPDEST PUSH2 0x35A PUSH2 0x23A2 JUMP JUMPDEST PUSH1 0x0 DUP1 DUP5 PUSH1 0x40 MLOAD PUSH2 0x36B SWAP2 SWAP1 PUSH2 0x2F8F JUMP JUMPDEST SWAP1 DUP2 MSTORE PUSH1 0x20 ADD PUSH1 0x40 MLOAD DUP1 SWAP2 SUB SWAP1 KECCAK256 PUSH1 0x1 ADD DUP1 SLOAD PUSH2 0x387 SWAP1 PUSH2 0x2FD5 JUMP JUMPDEST SWAP1 POP GT DUP1 ISZERO PUSH2 0x455 JUMPI POP DUP2 PUSH1 0x40 MLOAD PUSH1 0x20 ADD PUSH2 0x3A2 SWAP2 SWAP1 PUSH2 0x2F8F JUMP JUMPDEST PUSH1 0x40 MLOAD PUSH1 0x20 DUP2 DUP4 SUB SUB DUP2 MSTORE SWAP1 PUSH1 0x40 MSTORE DUP1 MLOAD SWAP1 PUSH1 0x20 ADD KECCAK256 PUSH1 0x0 DUP5 PUSH1 0x40 MLOAD PUSH2 0x3C8 SWAP2 SWAP1 PUSH2 0x2F8F JUMP JUMPDEST SWAP1 DUP2 MSTORE PUSH1 0x20 ADD PUSH1 0x40 MLOAD DUP1 SWAP2 SUB SWAP1 KECCAK256 PUSH1 0x7 ADD PUSH1 0x40 MLOAD PUSH1 0x20 ADD PUSH2 0x3E9 SWAP2 SWAP1 PUSH2 0x309E JUMP JUMPDEST PUSH1 0x40 MLOAD PUSH1 0x20 DUP2 DUP4 SUB SUB DUP2 MSTORE SWAP1 PUSH1 0x40 MSTORE DUP1 MLOAD SWAP1 PUSH1 0x20 ADD KECCAK256 EQ DUP1 PUSH2 0x454 JUMPI POP PUSH1 0x40 MLOAD PUSH1 0x20 ADD PUSH2 0x415 SWAP1 PUSH2 0x30DB JUMP JUMPDEST PUSH1 0x40 MLOAD PUSH1 0x20 DUP2 DUP4 SUB SUB DUP2 MSTORE SWAP1 PUSH1 0x40 MSTORE DUP1 MLOAD SWAP1 PUSH1 0x20 ADD KECCAK256 DUP3 PUSH1 0x40 MLOAD PUSH1 0x20 ADD PUSH2 0x43C SWAP2 SWAP1 PUSH2 0x2F8F JUMP JUMPDEST PUSH1 0x40 MLOAD PUSH1 0x20 DUP2 DUP4 SUB SUB DUP2 MSTORE SWAP1 PUSH1 0x40 MSTORE DUP1 MLOAD SWAP1 PUSH1 0x20 ADD KECCAK256 EQ JUMPDEST JUMPDEST ISZERO PUSH2 0x915 JUMPI PUSH1 0x40 MLOAD DUP1 PUSH1 0x60 ADD PUSH1 0x40 MSTORE DUP1 PUSH1 0x1 ISZERO ISZERO DUP2 MSTORE PUSH1 0x20 ADD PUSH1 0x0 DUP6 PUSH1 0x40 MLOAD PUSH2 0x47E SWAP2 SWAP1 PUSH2 0x2F8F JUMP JUMPDEST SWAP1 DUP2 MSTORE PUSH1 0x20 ADD PUSH1 0x40 MLOAD DUP1 SWAP2 SUB SWAP1 KECCAK256 PUSH1 0x40 MLOAD DUP1 PUSH2 0x120 ADD PUSH1 0x40 MSTORE SWAP1 DUP2 PUSH1 0x0 DUP3 ADD DUP1 SLOAD PUSH2 0x4A8 SWAP1 PUSH2 0x2FD5 JUMP JUMPDEST DUP1 PUSH1 0x1F ADD PUSH1 0x20 DUP1 SWAP2 DIV MUL PUSH1 0x20 ADD PUSH1 0x40 MLOAD SWAP1 DUP2 ADD PUSH1 0x40 MSTORE DUP1 SWAP3 SWAP2 SWAP1 DUP2 DUP2 MSTORE PUSH1 0x20 ADD DUP3 DUP1 SLOAD PUSH2 0x4D4 SWAP1 PUSH2 0x2FD5 JUMP JUMPDEST DUP1 ISZERO PUSH2 0x521 JUMPI DUP1 PUSH1 0x1F LT PUSH2 0x4F6 JUMPI PUSH2 0x100 DUP1 DUP4 SLOAD DIV MUL DUP4 MSTORE SWAP2 PUSH1 0x20 ADD SWAP2 PUSH2 0x521 JUMP JUMPDEST DUP3 ADD SWAP2 SWAP1 PUSH1 0x0 MSTORE PUSH1 0x20 PUSH1 0x0 KECCAK256 SWAP1 JUMPDEST DUP2 SLOAD DUP2 MSTORE SWAP1 PUSH1 0x1 ADD SWAP1 PUSH1 0x20 ADD DUP1 DUP4 GT PUSH2 0x504 JUMPI DUP3 SWAP1 SUB PUSH1 0x1F AND DUP3 ADD SWAP2 JUMPDEST POP POP POP POP POP DUP2 MSTORE PUSH1 0x20 ADD PUSH1 0x1 DUP3 ADD DUP1 SLOAD PUSH2 0x53A SWAP1 PUSH2 0x2FD5 JUMP JUMPDEST DUP1 PUSH1 0x1F ADD PUSH1 0x20 DUP1 SWAP2 DIV MUL PUSH1 0x20 ADD PUSH1 0x40 MLOAD SWAP1 DUP2 ADD PUSH1 0x40 MSTORE DUP1 SWAP3 SWAP2 SWAP1 DUP2 DUP2 MSTORE PUSH1 0x20 ADD DUP3 DUP1 SLOAD PUSH2 0x566 SWAP1 PUSH2 0x2FD5 JUMP JUMPDEST DUP1 ISZERO PUSH2 0x5B3 JUMPI DUP1 PUSH1 0x1F LT PUSH2 0x588 JUMPI PUSH2 0x100 DUP1 DUP4 SLOAD DIV MUL DUP4 MSTORE SWAP2 PUSH1 0x20 ADD SWAP2 PUSH2 0x5B3 JUMP JUMPDEST DUP3 ADD SWAP2 SWAP1 PUSH1 0x0 MSTORE PUSH1 0x20 PUSH1 0x0 KECCAK256 SWAP1 JUMPDEST DUP2 SLOAD DUP2 MSTORE SWAP1 PUSH1 0x1 ADD SWAP1 PUSH1 0x20 ADD DUP1 DUP4 GT PUSH2 0x596 JUMPI DUP3 SWAP1 SUB PUSH1 0x1F AND DUP3 ADD SWAP2 JUMPDEST POP POP POP POP POP DUP2 MSTORE PUSH1 0x20 ADD PUSH1 0x2 DUP3 ADD SLOAD DUP2 MSTORE PUSH1 0x20 ADD PUSH1 0x3 DUP3 ADD DUP1 SLOAD PUSH2 0x5D6 SWAP1 PUSH2 0x2FD5 JUMP JUMPDEST DUP1 PUSH1 0x1F ADD PUSH1 0x20 DUP1 SWAP2 DIV MUL PUSH1 0x20 ADD PUSH1 0x40 MLOAD SWAP1 DUP2 ADD PUSH1 0x40 MSTORE DUP1 SWAP3 SWAP2 SWAP1 DUP2 DUP2 MSTORE PUSH1 0x20 ADD DUP3 DUP1 SLOAD PUSH2 0x602 SWAP1 PUSH2 0x2FD5 JUMP JUMPDEST DUP1 ISZERO PUSH2 0x64F JUMPI DUP1 PUSH1 0x1F LT PUSH2 0x624 JUMPI PUSH2 0x100 DUP1 DUP4 SLOAD DIV MUL DUP4 MSTORE SWAP2 PUSH1 0x20 ADD SWAP2 PUSH2 0x64F JUMP JUMPDEST DUP3 ADD SWAP2 SWAP1 PUSH1 0x0 MSTORE PUSH1 0x20 PUSH1 0x0 KECCAK256 SWAP1 JUMPDEST DUP2 SLOAD DUP2 MSTORE SWAP1 PUSH1 0x1 ADD SWAP1 PUSH1 0x20 ADD DUP1 DUP4 GT PUSH2 0x632 JUMPI DUP3 SWAP1 SUB PUSH1 0x1F AND DUP3 ADD SWAP2 JUMPDEST POP POP POP POP POP DUP2 MSTORE PUSH1 0x20 ADD PUSH1 0x4 DUP3 ADD PUSH1 0x0 SWAP1 SLOAD SWAP1 PUSH2 0x100 EXP SWAP1 DIV PUSH20 0xFFFFFFFFFFFFFFFFFFFFFFFFFFFFFFFFFFFFFFFF AND PUSH20 0xFFFFFFFFFFFFFFFFFFFFFFFFFFFFFFFFFFFFFFFF AND PUSH20 0xFFFFFFFFFFFFFFFFFFFFFFFFFFFFFFFFFFFFFFFF AND DUP2 MSTORE PUSH1 0x20 ADD PUSH1 0x5 DUP3 ADD DUP1 SLOAD PUSH2 0x6BE SWAP1 PUSH2 0x2FD5 JUMP JUMPDEST DUP1 PUSH1 0x1F ADD PUSH1 0x20 DUP1 SWAP2 DIV MUL PUSH1 0x20 ADD PUSH1 0x40 MLOAD SWAP1 DUP2 ADD PUSH1 0x40 MSTORE DUP1 SWAP3 SWAP2 SWAP1 DUP2 DUP2 MSTORE PUSH1 0x20 ADD DUP3 DUP1 SLOAD PUSH2 0x6EA SWAP1 PUSH2 0x2FD5 JUMP JUMPDEST DUP1 ISZERO PUSH2 0x737 JUMPI DUP1 PUSH1 0x1F LT PUSH2 0x70C JUMPI PUSH2 0x100 DUP1 DUP4 SLOAD DIV MUL DUP4 MSTORE SWAP2 PUSH1 0x20 ADD SWAP2 PUSH2 0x737 JUMP JUMPDEST DUP3 ADD SWAP2 SWAP1 PUSH1 0x0 MSTORE PUSH1 0x20 PUSH1 0x0 KECCAK256 SWAP1 JUMPDEST DUP2 SLOAD DUP2 MSTORE SWAP1 PUSH1 0x1 ADD SWAP1 PUSH1 0x20 ADD DUP1 DUP4 GT PUSH2 0x71A JUMPI DUP3 SWAP1 SUB PUSH1 0x1F AND DUP3 ADD SWAP2 JUMPDEST POP POP POP POP POP DUP2 MSTORE PUSH1 0x20 ADD PUSH1 0x6 DUP3 ADD DUP1 SLOAD PUSH2 0x750 SWAP1 PUSH2 0x2FD5 JUMP JUMPDEST DUP1 PUSH1 0x1F ADD PUSH1 0x20 DUP1 SWAP2 DIV MUL PUSH1 0x20 ADD PUSH1 0x40 MLOAD SWAP1 DUP2 ADD PUSH1 0x40 MSTORE DUP1 SWAP3 SWAP2 SWAP1 DUP2 DUP2 MSTORE PUSH1 0x20 ADD DUP3 DUP1 SLOAD PUSH2 0x77C SWAP1 PUSH2 0x2FD5 JUMP JUMPDEST DUP1 ISZERO PUSH2 0x7C9 JUMPI DUP1 PUSH1 0x1F LT PUSH2 0x79E JUMPI PUSH2 0x100 DUP1 DUP4 SLOAD DIV MUL DUP4 MSTORE SWAP2 PUSH1 0x20 ADD SWAP2 PUSH2 0x7C9 JUMP JUMPDEST DUP3 ADD SWAP2 SWAP1 PUSH1 0x0 MSTORE PUSH1 0x20 PUSH1 0x0 KECCAK256 SWAP1 JUMPDEST DUP2 SLOAD DUP2 MSTORE SWAP1 PUSH1 0x1 ADD SWAP1 PUSH1 0x20 ADD DUP1 DUP4 GT PUSH2 0x7AC JUMPI DUP3 SWAP1 SUB PUSH1 0x1F AND DUP3 ADD SWAP2 JUMPDEST POP POP POP POP POP DUP2 MSTORE PUSH1 0x20 ADD PUSH1 0x7 DUP3 ADD DUP1 SLOAD PUSH2 0x7E2 SWAP1 PUSH2 0x2FD5 JUMP JUMPDEST DUP1 PUSH1 0x1F ADD PUSH1 0x20 DUP1 SWAP2 DIV MUL PUSH1 0x20 ADD PUSH1 0x40 MLOAD SWAP1 DUP2 ADD PUSH1 0x40 MSTORE DUP1 SWAP3 SWAP2 SWAP1 DUP2 DUP2 MSTORE PUSH1 0x20 ADD DUP3 DUP1 SLOAD PUSH2 0x80E SWAP1 PUSH2 0x2FD5 JUMP JUMPDEST DUP1 ISZERO PUSH2 0x85B JUMPI DUP1 PUSH1 0x1F LT PUSH2 0x830 JUMPI PUSH2 0x100 DUP1 DUP4 SLOAD DIV MUL DUP4 MSTORE SWAP2 PUSH1 0x20 ADD SWAP2 PUSH2 0x85B JUMP JUMPDEST DUP3 ADD SWAP2 SWAP1 PUSH1 0x0 MSTORE PUSH1 0x20 PUSH1 0x0 KECCAK256 SWAP1 JUMPDEST DUP2 SLOAD DUP2 MSTORE SWAP1 PUSH1 0x1 ADD SWAP1 PUSH1 0x20 ADD DUP1 DUP4 GT PUSH2 0x83E JUMPI DUP3 SWAP1 SUB PUSH1 0x1F AND DUP3 ADD SWAP2 JUMPDEST POP POP POP POP POP DUP2 MSTORE PUSH1 0x20 ADD PUSH1 0x8 DUP3 ADD DUP1 SLOAD PUSH2 0x874 SWAP1 PUSH2 0x2FD5 JUMP JUMPDEST DUP1 PUSH1 0x1F ADD PUSH1 0x20 DUP1 SWAP2 DIV MUL PUSH1 0x20 ADD PUSH1 0x40 MLOAD SWAP1 DUP2 ADD PUSH1 0x40 MSTORE DUP1 SWAP3 SWAP2 SWAP1 DUP2 DUP2 MSTORE PUSH1 0x20 ADD DUP3 DUP1 SLOAD PUSH2 0x8A0 SWAP1 PUSH2 0x2FD5 JUMP JUMPDEST DUP1 ISZERO PUSH2 0x8ED JUMPI DUP1 PUSH1 0x1F LT PUSH2 0x8C2 JUMPI PUSH2 0x100 DUP1 DUP4 SLOAD DIV MUL DUP4 MSTORE SWAP2 PUSH1 0x20 ADD SWAP2 PUSH2 0x8ED JUMP JUMPDEST DUP3 ADD SWAP2 SWAP1 PUSH1 0x0 MSTORE PUSH1 0x20 PUSH1 0x0 KECCAK256 SWAP1 JUMPDEST DUP2 SLOAD DUP2 MSTORE SWAP1 PUSH1 0x1 ADD SWAP1 PUSH1 0x20 ADD DUP1 DUP4 GT PUSH2 0x8D0 JUMPI DUP3 SWAP1 SUB PUSH1 0x1F AND DUP3 ADD SWAP2 JUMPDEST POP POP POP POP POP DUP2 MSTORE POP POP DUP2 MSTORE PUSH1 0x20 ADD PUSH1 0x40 MLOAD DUP1 PUSH1 0x20 ADD PUSH1 0x40 MSTORE DUP1 PUSH1 0x0 DUP2 MSTORE POP DUP2 MSTORE POP SWAP1 POP PUSH2 0xA0E JUMP JUMPDEST PUSH1 0x40 MLOAD DUP1 PUSH1 0x60 ADD PUSH1 0x40 MSTORE DUP1 PUSH1 0x0 ISZERO ISZERO DUP2 MSTORE PUSH1 0x20 ADD PUSH1 0x40 MLOAD DUP1 PUSH2 0x120 ADD PUSH1 0x40 MSTORE DUP1 PUSH1 0x40 MLOAD DUP1 PUSH1 0x20 ADD PUSH1 0x40 MSTORE DUP1 PUSH1 0x0 DUP2 MSTORE POP DUP2 MSTORE PUSH1 0x20 ADD PUSH1 0x40 MLOAD DUP1 PUSH1 0x20 ADD PUSH1 0x40 MSTORE DUP1 PUSH1 0x0 DUP2 MSTORE POP DUP2 MSTORE PUSH1 0x20 ADD PUSH1 0x0 DUP2 MSTORE PUSH1 0x20 ADD PUSH1 0x40 MLOAD DUP1 PUSH1 0x20 ADD PUSH1 0x40 MSTORE DUP1 PUSH1 0x0 DUP2 MSTORE POP DUP2 MSTORE PUSH1 0x20 ADD PUSH1 0x0 PUSH20 0xFFFFFFFFFFFFFFFFFFFFFFFFFFFFFFFFFFFFFFFF AND DUP2 MSTORE PUSH1 0x20 ADD PUSH1 0x40 MLOAD DUP1 PUSH1 0x20 ADD PUSH1 0x40 MSTORE DUP1 PUSH1 0x0 DUP2 MSTORE POP DUP2 MSTORE PUSH1 0x20 ADD PUSH1 0x40 MLOAD DUP1 PUSH1 0x20 ADD PUSH1 0x40 MSTORE DUP1 PUSH1 0x0 DUP2 MSTORE POP DUP2 MSTORE PUSH1 0x20 ADD PUSH1 0x40 MLOAD DUP1 PUSH1 0x20 ADD PUSH1 0x40 MSTORE DUP1 PUSH1 0x0 DUP2 MSTORE POP DUP2 MSTORE PUSH1 0x20 ADD PUSH1 0x40 MLOAD DUP1 PUSH1 0x20 ADD PUSH1 0x40 MSTORE DUP1 PUSH1 0x0 DUP2 MSTORE POP DUP2 MSTORE POP DUP2 MSTORE PUSH1 0x20 ADD PUSH1 0x40 MLOAD DUP1 PUSH1 0x80 ADD PUSH1 0x40 MSTORE DUP1 PUSH1 0x41 DUP2 MSTORE PUSH1 0x20 ADD PUSH2 0x367A PUSH1 0x41 SWAP2 CODECOPY DUP2 MSTORE POP SWAP1 POP JUMPDEST SWAP3 SWAP2 POP POP JUMP JUMPDEST PUSH1 0x0 DUP3 PUSH20 0xFFFFFFFFFFFFFFFFFFFFFFFFFFFFFFFFFFFFFFFF AND PUSH1 0x0 DUP4 PUSH1 0x40 MLOAD PUSH2 0xA3D SWAP2 SWAP1 PUSH2 0x2F8F JUMP JUMPDEST SWAP1 DUP2 MSTORE PUSH1 0x20 ADD PUSH1 0x40 MLOAD DUP1 SWAP2 SUB SWAP1 KECCAK256 PUSH1 0x4 ADD PUSH1 0x0 SWAP1 SLOAD SWAP1 PUSH2 0x100 EXP SWAP1 DIV PUSH20 0xFFFFFFFFFFFFFFFFFFFFFFFFFFFFFFFFFFFFFFFF AND PUSH20 0xFFFFFFFFFFFFFFFFFFFFFFFFFFFFFFFFFFFFFFFF AND SUB PUSH2 0xA93 JUMPI PUSH1 0x1 SWAP1 POP PUSH2 0xA98 JUMP JUMPDEST PUSH1 0x0 SWAP1 POP JUMPDEST SWAP3 SWAP2 POP POP JUMP JUMPDEST PUSH1 0x3 PUSH1 0x0 SWAP1 SLOAD SWAP1 PUSH2 0x100 EXP SWAP1 DIV PUSH20 0xFFFFFFFFFFFFFFFFFFFFFFFFFFFFFFFFFFFFFFFF AND PUSH20 0xFFFFFFFFFFFFFFFFFFFFFFFFFFFFFFFFFFFFFFFF AND CALLER PUSH20 0xFFFFFFFFFFFFFFFFFFFFFFFFFFFFFFFFFFFFFFFF AND SUB PUSH2 0xB58 JUMPI PUSH1 0x40 MLOAD DUP1 PUSH1 0x40 ADD PUSH1 0x40 MSTORE DUP1 PUSH1 0x8 DUP2 MSTORE PUSH1 0x20 ADD PUSH32 0x6465616374697665000000000000000000000000000000000000000000000000 DUP2 MSTORE POP PUSH1 0x0 DUP3 PUSH1 0x40 MLOAD PUSH2 0xB39 SWAP2 SWAP1 PUSH2 0x2F8F JUMP JUMPDEST SWAP1 DUP2 MSTORE PUSH1 0x20 ADD PUSH1 0x40 MLOAD DUP1 SWAP2 SUB SWAP1 KECCAK256 PUSH1 0x7 ADD SWAP1 DUP2 PUSH2 0xB56 SWAP2 SWAP1 PUSH2 0x3291 JUMP JUMPDEST POP JUMPDEST POP JUMP JUMPDEST PUSH2 0xB63 PUSH2 0x23CB JUMP JUMPDEST PUSH1 0x3 PUSH1 0x0 SWAP1 SLOAD SWAP1 PUSH2 0x100 EXP SWAP1 DIV PUSH20 0xFFFFFFFFFFFFFFFFFFFFFFFFFFFFFFFFFFFFFFFF AND PUSH20 0xFFFFFFFFFFFFFFFFFFFFFFFFFFFFFFFFFFFFFFFF AND CALLER PUSH20 0xFFFFFFFFFFFFFFFFFFFFFFFFFFFFFFFFFFFFFFFF AND SUB PUSH2 0xE84 JUMPI PUSH1 0x0 PUSH1 0x1 DUP1 SLOAD SWAP1 POP PUSH8 0xFFFFFFFFFFFFFFFF DUP2 GT ISZERO PUSH2 0xBD9 JUMPI PUSH2 0xBD8 PUSH2 0x24A2 JUMP JUMPDEST JUMPDEST PUSH1 0x40 MLOAD SWAP1 DUP1 DUP3 MSTORE DUP1 PUSH1 0x20 MUL PUSH1 0x20 ADD DUP3 ADD PUSH1 0x40 MSTORE DUP1 ISZERO PUSH2 0xC0C JUMPI DUP2 PUSH1 0x20 ADD JUMPDEST PUSH1 0x60 DUP2 MSTORE PUSH1 0x20 ADD SWAP1 PUSH1 0x1 SWAP1 SUB SWAP1 DUP2 PUSH2 0xBF7 JUMPI SWAP1 POP JUMPDEST POP SWAP1 POP PUSH1 0x0 DUP1 JUMPDEST PUSH1 0x1 DUP1 SLOAD SWAP1 POP DUP2 LT ISZERO PUSH2 0xE4A JUMPI DUP5 PUSH1 0x40 MLOAD PUSH1 0x20 ADD PUSH2 0xC31 SWAP2 SWAP1 PUSH2 0x2F8F JUMP JUMPDEST PUSH1 0x40 MLOAD PUSH1 0x20 DUP2 DUP4 SUB SUB DUP2 MSTORE SWAP1 PUSH1 0x40 MSTORE DUP1 MLOAD SWAP1 PUSH1 0x20 ADD KECCAK256 PUSH1 0x0 PUSH1 0x1 DUP4 DUP2 SLOAD DUP2 LT PUSH2 0xC5D JUMPI PUSH2 0xC5C PUSH2 0x3363 JUMP JUMPDEST JUMPDEST SWAP1 PUSH1 0x0 MSTORE PUSH1 0x20 PUSH1 0x0 KECCAK256 ADD PUSH1 0x40 MLOAD PUSH2 0xC74 SWAP2 SWAP1 PUSH2 0x309E JUMP JUMPDEST SWAP1 DUP2 MSTORE PUSH1 0x20 ADD PUSH1 0x40 MLOAD DUP1 SWAP2 SUB SWAP1 KECCAK256 PUSH1 0x1 ADD PUSH1 0x40 MLOAD PUSH1 0x20 ADD PUSH2 0xC95 SWAP2 SWAP1 PUSH2 0x309E JUMP JUMPDEST PUSH1 0x40 MLOAD PUSH1 0x20 DUP2 DUP4 SUB SUB DUP2 MSTORE SWAP1 PUSH1 0x40 MSTORE DUP1 MLOAD SWAP1 PUSH1 0x20 ADD KECCAK256 EQ DUP1 ISZERO PUSH2 0xD3E JUMPI POP PUSH1 0x40 MLOAD PUSH1 0x20 ADD PUSH2 0xCC2 SWAP1 PUSH2 0x33DE JUMP JUMPDEST PUSH1 0x40 MLOAD PUSH1 0x20 DUP2 DUP4 SUB SUB DUP2 MSTORE SWAP1 PUSH1 0x40 MSTORE DUP1 MLOAD SWAP1 PUSH1 0x20 ADD KECCAK256 PUSH1 0x0 PUSH1 0x1 DUP4 DUP2 SLOAD DUP2 LT PUSH2 0xCEE JUMPI PUSH2 0xCED PUSH2 0x3363 JUMP JUMPDEST JUMPDEST SWAP1 PUSH1 0x0 MSTORE PUSH1 0x20 PUSH1 0x0 KECCAK256 ADD PUSH1 0x40 MLOAD PUSH2 0xD05 SWAP2 SWAP1 PUSH2 0x309E JUMP JUMPDEST SWAP1 DUP2 MSTORE PUSH1 0x20 ADD PUSH1 0x40 MLOAD DUP1 SWAP2 SUB SWAP1 KECCAK256 PUSH1 0x7 ADD PUSH1 0x40 MLOAD PUSH1 0x20 ADD PUSH2 0xD26 SWAP2 SWAP1 PUSH2 0x309E JUMP JUMPDEST PUSH1 0x40 MLOAD PUSH1 0x20 DUP2 DUP4 SUB SUB DUP2 MSTORE SWAP1 PUSH1 0x40 MSTORE DUP1 MLOAD SWAP1 PUSH1 0x20 ADD KECCAK256 EQ JUMPDEST ISZERO PUSH2 0xE37 JUMPI PUSH1 0x0 PUSH1 0x1 DUP3 DUP2 SLOAD DUP2 LT PUSH2 0xD59 JUMPI PUSH2 0xD58 PUSH2 0x3363 JUMP JUMPDEST JUMPDEST SWAP1 PUSH1 0x0 MSTORE PUSH1 0x20 PUSH1 0x0 KECCAK256 ADD PUSH1 0x40 MLOAD PUSH2 0xD70 SWAP2 SWAP1 PUSH2 0x309E JUMP JUMPDEST SWAP1 DUP2 MSTORE PUSH1 0x20 ADD PUSH1 0x40 MLOAD DUP1 SWAP2 SUB SWAP1 KECCAK256 PUSH1 0x0 ADD DUP1 SLOAD PUSH2 0xD8C SWAP1 PUSH2 0x2FD5 JUMP JUMPDEST DUP1 PUSH1 0x1F ADD PUSH1 0x20 DUP1 SWAP2 DIV MUL PUSH1 0x20 ADD PUSH1 0x40 MLOAD SWAP1 DUP2 ADD PUSH1 0x40 MSTORE DUP1 SWAP3 SWAP2 SWAP1 DUP2 DUP2 MSTORE PUSH1 0x20 ADD DUP3 DUP1 SLOAD PUSH2 0xDB8 SWAP1 PUSH2 0x2FD5 JUMP JUMPDEST DUP1 ISZERO PUSH2 0xE05 JUMPI DUP1 PUSH1 0x1F LT PUSH2 0xDDA JUMPI PUSH2 0x100 DUP1 DUP4 SLOAD DIV MUL DUP4 MSTORE SWAP2 PUSH1 0x20 ADD SWAP2 PUSH2 0xE05 JUMP JUMPDEST DUP3 ADD SWAP2 SWAP1 PUSH1 0x0 MSTORE PUSH1 0x20 PUSH1 0x0 KECCAK256 SWAP1 JUMPDEST DUP2 SLOAD DUP2 MSTORE SWAP1 PUSH1 0x1 ADD SWAP1 PUSH1 0x20 ADD DUP1 DUP4 GT PUSH2 0xDE8 JUMPI DUP3 SWAP1 SUB PUSH1 0x1F AND DUP3 ADD SWAP2 JUMPDEST POP POP POP POP POP DUP4 DUP4 DUP2 MLOAD DUP2 LT PUSH2 0xE1D JUMPI PUSH2 0xE1C PUSH2 0x3363 JUMP JUMPDEST JUMPDEST PUSH1 0x20 MUL PUSH1 0x20 ADD ADD DUP2 SWAP1 MSTORE POP DUP2 DUP1 PUSH2 0xE33 SWAP1 PUSH2 0x3422 JUMP JUMPDEST SWAP3 POP POP JUMPDEST DUP1 DUP1 PUSH2 0xE42 SWAP1 PUSH2 0x3422 JUMP JUMPDEST SWAP2 POP POP PUSH2 0xC13 JUMP JUMPDEST POP DUP1 DUP3 MSTORE PUSH1 0x40 MLOAD DUP1 PUSH1 0x60 ADD PUSH1 0x40 MSTORE DUP1 PUSH1 0x1 ISZERO ISZERO DUP2 MSTORE PUSH1 0x20 ADD DUP4 DUP2 MSTORE PUSH1 0x20 ADD PUSH1 0x40 MLOAD DUP1 PUSH1 0x20 ADD PUSH1 0x40 MSTORE DUP1 PUSH1 0x0 DUP2 MSTORE POP DUP2 MSTORE POP SWAP3 POP POP POP PUSH2 0xF0B JUMP JUMPDEST PUSH1 0x40 MLOAD DUP1 PUSH1 0x60 ADD PUSH1 0x40 MSTORE DUP1 PUSH1 0x0 ISZERO ISZERO DUP2 MSTORE PUSH1 0x20 ADD PUSH1 0x0 PUSH8 0xFFFFFFFFFFFFFFFF DUP2 GT ISZERO PUSH2 0xEB3 JUMPI PUSH2 0xEB2 PUSH2 0x24A2 JUMP JUMPDEST JUMPDEST PUSH1 0x40 MLOAD SWAP1 DUP1 DUP3 MSTORE DUP1 PUSH1 0x20 MUL PUSH1 0x20 ADD DUP3 ADD PUSH1 0x40 MSTORE DUP1 ISZERO PUSH2 0xEE6 JUMPI DUP2 PUSH1 0x20 ADD JUMPDEST PUSH1 0x60 DUP2 MSTORE PUSH1 0x20 ADD SWAP1 PUSH1 0x1 SWAP1 SUB SWAP1 DUP2 PUSH2 0xED1 JUMPI SWAP1 POP JUMPDEST POP DUP2 MSTORE PUSH1 0x20 ADD PUSH1 0x40 MLOAD DUP1 PUSH1 0x80 ADD PUSH1 0x40 MSTORE DUP1 PUSH1 0x43 DUP2 MSTORE PUSH1 0x20 ADD PUSH2 0x36FF PUSH1 0x43 SWAP2 CODECOPY DUP2 MSTORE POP SWAP1 POP JUMPDEST SWAP2 SWAP1 POP JUMP JUMPDEST PUSH1 0x3 PUSH1 0x0 SWAP1 SLOAD SWAP1 PUSH2 0x100 EXP SWAP1 DIV PUSH20 0xFFFFFFFFFFFFFFFFFFFFFFFFFFFFFFFFFFFFFFFF AND PUSH20 0xFFFFFFFFFFFFFFFFFFFFFFFFFFFFFFFFFFFFFFFF AND CALLER PUSH20 0xFFFFFFFFFFFFFFFFFFFFFFFFFFFFFFFFFFFFFFFF AND EQ DUP1 ISZERO PUSH2 0xFA0 JUMPI POP DUP2 PUSH1 0x80 ADD MLOAD PUSH20 0xFFFFFFFFFFFFFFFFFFFFFFFFFFFFFFFFFFFFFFFF AND DUP3 PUSH1 0x80 ADD MLOAD PUSH20 0xFFFFFFFFFFFFFFFFFFFFFFFFFFFFFFFFFFFFFFFF AND EQ JUMPDEST DUP1 ISZERO PUSH2 0xFDD JUMPI POP PUSH1 0x0 PUSH20 0xFFFFFFFFFFFFFFFFFFFFFFFFFFFFFFFFFFFFFFFF AND DUP3 PUSH1 0x80 ADD MLOAD PUSH20 0xFFFFFFFFFFFFFFFFFFFFFFFFFFFFFFFFFFFFFFFF AND EQ ISZERO JUMPDEST ISZERO PUSH2 0x1237 JUMPI PUSH1 0x40 MLOAD DUP1 PUSH1 0x40 ADD PUSH1 0x40 MSTORE DUP1 PUSH1 0x6 DUP2 MSTORE PUSH1 0x20 ADD PUSH32 0x6564697465640000000000000000000000000000000000000000000000000000 DUP2 MSTORE POP PUSH1 0x0 DUP4 PUSH1 0x0 ADD MLOAD PUSH1 0x40 MLOAD PUSH2 0x102C SWAP2 SWAP1 PUSH2 0x2F8F JUMP JUMPDEST SWAP1 DUP2 MSTORE PUSH1 0x20 ADD PUSH1 0x40 MLOAD DUP1 SWAP2 SUB SWAP1 KECCAK256 PUSH1 0x7 ADD SWAP1 DUP2 PUSH2 0x1049 SWAP2 SWAP1 PUSH2 0x3291 JUMP JUMPDEST POP DUP2 PUSH1 0x80 ADD MLOAD DUP2 PUSH1 0x80 ADD SWAP1 PUSH20 0xFFFFFFFFFFFFFFFFFFFFFFFFFFFFFFFFFFFFFFFF AND SWAP1 DUP2 PUSH20 0xFFFFFFFFFFFFFFFFFFFFFFFFFFFFFFFFFFFFFFFF AND DUP2 MSTORE POP POP DUP2 PUSH1 0x0 ADD MLOAD DUP2 PUSH1 0x60 ADD DUP2 SWAP1 MSTORE POP PUSH1 0x1 DUP3 PUSH1 0x40 ADD MLOAD PUSH2 0x10A4 SWAP2 SWAP1 PUSH2 0x346A JUMP JUMPDEST DUP2 PUSH1 0x40 ADD DUP2 DUP2 MSTORE POP POP PUSH1 0x40 MLOAD DUP1 PUSH1 0x40 ADD PUSH1 0x40 MSTORE DUP1 PUSH1 0x6 DUP2 MSTORE PUSH1 0x20 ADD PUSH32 0x6163746976650000000000000000000000000000000000000000000000000000 DUP2 MSTORE POP DUP2 PUSH1 0xE0 ADD DUP2 SWAP1 MSTORE POP DUP1 PUSH1 0x0 DUP3 PUSH1 0x0 ADD MLOAD PUSH1 0x40 MLOAD PUSH2 0x1100 SWAP2 SWAP1 PUSH2 0x2F8F JUMP JUMPDEST SWAP1 DUP2 MSTORE PUSH1 0x20 ADD PUSH1 0x40 MLOAD DUP1 SWAP2 SUB SWAP1 KECCAK256 PUSH1 0x0 DUP3 ADD MLOAD DUP2 PUSH1 0x0 ADD SWAP1 DUP2 PUSH2 0x1123 SWAP2 SWAP1 PUSH2 0x3291 JUMP JUMPDEST POP PUSH1 0x20 DUP3 ADD MLOAD DUP2 PUSH1 0x1 ADD SWAP1 DUP2 PUSH2 0x1139 SWAP2 SWAP1 PUSH2 0x3291 JUMP JUMPDEST POP PUSH1 0x40 DUP3 ADD MLOAD DUP2 PUSH1 0x2 ADD SSTORE PUSH1 0x60 DUP3 ADD MLOAD DUP2 PUSH1 0x3 ADD SWAP1 DUP2 PUSH2 0x1159 SWAP2 SWAP1 PUSH2 0x3291 JUMP JUMPDEST POP PUSH1 0x80 DUP3 ADD MLOAD DUP2 PUSH1 0x4 ADD PUSH1 0x0 PUSH2 0x100 EXP DUP2 SLOAD DUP2 PUSH20 0xFFFFFFFFFFFFFFFFFFFFFFFFFFFFFFFFFFFFFFFF MUL NOT AND SWAP1 DUP4 PUSH20 0xFFFFFFFFFFFFFFFFFFFFFFFFFFFFFFFFFFFFFFFF AND MUL OR SWAP1 SSTORE POP PUSH1 0xA0 DUP3 ADD MLOAD DUP2 PUSH1 0x5 ADD SWAP1 DUP2 PUSH2 0x11B6 SWAP2 SWAP1 PUSH2 0x3291 JUMP JUMPDEST POP PUSH1 0xC0 DUP3 ADD MLOAD DUP2 PUSH1 0x6 ADD SWAP1 DUP2 PUSH2 0x11CC SWAP2 SWAP1 PUSH2 0x3291 JUMP JUMPDEST POP PUSH1 0xE0 DUP3 ADD MLOAD DUP2 PUSH1 0x7 ADD SWAP1 DUP2 PUSH2 0x11E2 SWAP2 SWAP1 PUSH2 0x3291 JUMP JUMPDEST POP PUSH2 0x100 DUP3 ADD MLOAD DUP2 PUSH1 0x8 ADD SWAP1 DUP2 PUSH2 0x11F9 SWAP2 SWAP1 PUSH2 0x3291 JUMP JUMPDEST POP SWAP1 POP POP PUSH1 0x1 DUP2 PUSH1 0x0 ADD MLOAD SWAP1 DUP1 PUSH1 0x1 DUP2 SLOAD ADD DUP1 DUP3 SSTORE DUP1 SWAP2 POP POP PUSH1 0x1 SWAP1 SUB SWAP1 PUSH1 0x0 MSTORE PUSH1 0x20 PUSH1 0x0 KECCAK256 ADD PUSH1 0x0 SWAP1 SWAP2 SWAP1 SWAP2 SWAP1 SWAP2 POP SWAP1 DUP2 PUSH2 0x1235 SWAP2 SWAP1 PUSH2 0x3291 JUMP JUMPDEST POP JUMPDEST POP POP JUMP JUMPDEST PUSH1 0x0 DUP1 PUSH1 0x0 DUP4 PUSH1 0x40 MLOAD PUSH2 0x124E SWAP2 SWAP1 PUSH2 0x2F8F JUMP JUMPDEST SWAP1 DUP2 MSTORE PUSH1 0x20 ADD PUSH1 0x40 MLOAD DUP1 SWAP2 SUB SWAP1 KECCAK256 PUSH1 0x0 ADD DUP1 SLOAD PUSH2 0x126A SWAP1 PUSH2 0x2FD5 JUMP JUMPDEST SWAP1 POP EQ ISZERO DUP1 ISZERO PUSH2 0x12C7 JUMPI POP PUSH1 0x3 PUSH1 0x0 SWAP1 SLOAD SWAP1 PUSH2 0x100 EXP SWAP1 DIV PUSH20 0xFFFFFFFFFFFFFFFFFFFFFFFFFFFFFFFFFFFFFFFF AND PUSH20 0xFFFFFFFFFFFFFFFFFFFFFFFFFFFFFFFFFFFFFFFF AND CALLER PUSH20 0xFFFFFFFFFFFFFFFFFFFFFFFFFFFFFFFFFFFFFFFF AND EQ JUMPDEST ISZERO PUSH2 0x12D5 JUMPI PUSH1 0x1 SWAP1 POP PUSH2 0x12DA JUMP JUMPDEST PUSH1 0x0 SWAP1 POP JUMPDEST SWAP2 SWAP1 POP JUMP JUMPDEST PUSH1 0x3 PUSH1 0x0 SWAP1 SLOAD SWAP1 PUSH2 0x100 EXP SWAP1 DIV PUSH20 0xFFFFFFFFFFFFFFFFFFFFFFFFFFFFFFFFFFFFFFFF AND PUSH20 0xFFFFFFFFFFFFFFFFFFFFFFFFFFFFFFFFFFFFFFFF AND CALLER PUSH20 0xFFFFFFFFFFFFFFFFFFFFFFFFFFFFFFFFFFFFFFFF AND SUB PUSH2 0x150B JUMPI PUSH2 0x133D DUP2 PUSH2 0x225A JUMP JUMPDEST ISZERO PUSH2 0x150A JUMPI PUSH1 0x40 MLOAD DUP1 PUSH1 0x40 ADD PUSH1 0x40 MSTORE DUP1 PUSH1 0x6 DUP2 MSTORE PUSH1 0x20 ADD PUSH32 0x6163746976650000000000000000000000000000000000000000000000000000 DUP2 MSTORE POP DUP2 PUSH1 0xE0 ADD DUP2 SWAP1 MSTORE POP PUSH1 0x40 MLOAD DUP1 PUSH1 0x40 ADD PUSH1 0x40 MSTORE DUP1 PUSH1 0x1 DUP2 MSTORE PUSH1 0x20 ADD PUSH32 0x3000000000000000000000000000000000000000000000000000000000000000 DUP2 MSTORE POP DUP2 PUSH1 0x60 ADD DUP2 SWAP1 MSTORE POP DUP1 PUSH1 0x0 DUP3 PUSH1 0x0 ADD MLOAD PUSH1 0x40 MLOAD PUSH2 0x13D3 SWAP2 SWAP1 PUSH2 0x2F8F JUMP JUMPDEST SWAP1 DUP2 MSTORE PUSH1 0x20 ADD PUSH1 0x40 MLOAD DUP1 SWAP2 SUB SWAP1 KECCAK256 PUSH1 0x0 DUP3 ADD MLOAD DUP2 PUSH1 0x0 ADD SWAP1 DUP2 PUSH2 0x13F6 SWAP2 SWAP1 PUSH2 0x3291 JUMP JUMPDEST POP PUSH1 0x20 DUP3 ADD MLOAD DUP2 PUSH1 0x1 ADD SWAP1 DUP2 PUSH2 0x140C SWAP2 SWAP1 PUSH2 0x3291 JUMP JUMPDEST POP PUSH1 0x40 DUP3 ADD MLOAD DUP2 PUSH1 0x2 ADD SSTORE PUSH1 0x60 DUP3 ADD MLOAD DUP2 PUSH1 0x3 ADD SWAP1 DUP2 PUSH2 0x142C SWAP2 SWAP1 PUSH2 0x3291 JUMP JUMPDEST POP PUSH1 0x80 DUP3 ADD MLOAD DUP2 PUSH1 0x4 ADD PUSH1 0x0 PUSH2 0x100 EXP DUP2 SLOAD DUP2 PUSH20 0xFFFFFFFFFFFFFFFFFFFFFFFFFFFFFFFFFFFFFFFF MUL NOT AND SWAP1 DUP4 PUSH20 0xFFFFFFFFFFFFFFFFFFFFFFFFFFFFFFFFFFFFFFFF AND MUL OR SWAP1 SSTORE POP PUSH1 0xA0 DUP3 ADD MLOAD DUP2 PUSH1 0x5 ADD SWAP1 DUP2 PUSH2 0x1489 SWAP2 SWAP1 PUSH2 0x3291 JUMP JUMPDEST POP PUSH1 0xC0 DUP3 ADD MLOAD DUP2 PUSH1 0x6 ADD SWAP1 DUP2 PUSH2 0x149F SWAP2 SWAP1 PUSH2 0x3291 JUMP JUMPDEST POP PUSH1 0xE0 DUP3 ADD MLOAD DUP2 PUSH1 0x7 ADD SWAP1 DUP2 PUSH2 0x14B5 SWAP2 SWAP1 PUSH2 0x3291 JUMP JUMPDEST POP PUSH2 0x100 DUP3 ADD MLOAD DUP2 PUSH1 0x8 ADD SWAP1 DUP2 PUSH2 0x14CC SWAP2 SWAP1 PUSH2 0x3291 JUMP JUMPDEST POP SWAP1 POP POP PUSH1 0x1 DUP2 PUSH1 0x0 ADD MLOAD SWAP1 DUP1 PUSH1 0x1 DUP2 SLOAD ADD DUP1 DUP3 SSTORE DUP1 SWAP2 POP POP PUSH1 0x1 SWAP1 SUB SWAP1 PUSH1 0x0 MSTORE PUSH1 0x20 PUSH1 0x0 KECCAK256 ADD PUSH1 0x0 SWAP1 SWAP2 SWAP1 SWAP2 SWAP1 SWAP2 POP SWAP1 DUP2 PUSH2 0x1508 SWAP2 SWAP1 PUSH2 0x3291 JUMP JUMPDEST POP JUMPDEST JUMPDEST POP JUMP JUMPDEST PUSH1 0x0 PUSH20 0xFFFFFFFFFFFFFFFFFFFFFFFFFFFFFFFFFFFFFFFF AND DUP2 PUSH20 0xFFFFFFFFFFFFFFFFFFFFFFFFFFFFFFFFFFFFFFFF AND EQ ISZERO DUP1 ISZERO PUSH2 0x1599 JUMPI POP PUSH1 0x0 PUSH20 0xFFFFFFFFFFFFFFFFFFFFFFFFFFFFFFFFFFFFFFFF AND PUSH1 0x3 PUSH1 0x0 SWAP1 SLOAD SWAP1 PUSH2 0x100 EXP SWAP1 DIV PUSH20 0xFFFFFFFFFFFFFFFFFFFFFFFFFFFFFFFFFFFFFFFF AND PUSH20 0xFFFFFFFFFFFFFFFFFFFFFFFFFFFFFFFFFFFFFFFF AND EQ JUMPDEST DUP1 ISZERO PUSH2 0x1614 JUMPI POP PUSH1 0x3 PUSH1 0x0 SWAP1 SLOAD SWAP1 PUSH2 0x100 EXP SWAP1 DIV PUSH20 0xFFFFFFFFFFFFFFFFFFFFFFFFFFFFFFFFFFFFFFFF AND PUSH20 0xFFFFFFFFFFFFFFFFFFFFFFFFFFFFFFFFFFFFFFFF AND PUSH1 0x3 PUSH1 0x0 SWAP1 SLOAD SWAP1 PUSH2 0x100 EXP SWAP1 DIV PUSH20 0xFFFFFFFFFFFFFFFFFFFFFFFFFFFFFFFFFFFFFFFF AND PUSH20 0xFFFFFFFFFFFFFFFFFFFFFFFFFFFFFFFFFFFFFFFF AND EQ JUMPDEST ISZERO PUSH2 0x165B JUMPI DUP1 PUSH1 0x3 PUSH1 0x0 PUSH2 0x100 EXP DUP2 SLOAD DUP2 PUSH20 0xFFFFFFFFFFFFFFFFFFFFFFFFFFFFFFFFFFFFFFFF MUL NOT AND SWAP1 DUP4 PUSH20 0xFFFFFFFFFFFFFFFFFFFFFFFFFFFFFFFFFFFFFFFF AND MUL OR SWAP1 SSTORE POP JUMPDEST POP JUMP JUMPDEST PUSH2 0x1666 PUSH2 0x237F JUMP JUMPDEST PUSH1 0x3 PUSH1 0x0 SWAP1 SLOAD SWAP1 PUSH2 0x100 EXP SWAP1 DIV PUSH20 0xFFFFFFFFFFFFFFFFFFFFFFFFFFFFFFFFFFFFFFFF AND PUSH20 0xFFFFFFFFFFFFFFFFFFFFFFFFFFFFFFFFFFFFFFFF AND CALLER PUSH20 0xFFFFFFFFFFFFFFFFFFFFFFFFFFFFFFFFFFFFFFFF AND SUB PUSH2 0x1798 JUMPI PUSH1 0x40 MLOAD DUP1 PUSH1 0x60 ADD PUSH1 0x40 MSTORE DUP1 PUSH1 0x1 ISZERO ISZERO DUP2 MSTORE PUSH1 0x20 ADD PUSH1 0x0 DUP5 PUSH1 0x40 MLOAD PUSH2 0x16DF SWAP2 SWAP1 PUSH2 0x2F8F JUMP JUMPDEST SWAP1 DUP2 MSTORE PUSH1 0x20 ADD PUSH1 0x40 MLOAD DUP1 SWAP2 SUB SWAP1 KECCAK256 PUSH1 0x8 ADD DUP1 SLOAD PUSH2 0x16FB SWAP1 PUSH2 0x2FD5 JUMP JUMPDEST DUP1 PUSH1 0x1F ADD PUSH1 0x20 DUP1 SWAP2 DIV MUL PUSH1 0x20 ADD PUSH1 0x40 MLOAD SWAP1 DUP2 ADD PUSH1 0x40 MSTORE DUP1 SWAP3 SWAP2 SWAP1 DUP2 DUP2 MSTORE PUSH1 0x20 ADD DUP3 DUP1 SLOAD PUSH2 0x1727 SWAP1 PUSH2 0x2FD5 JUMP JUMPDEST DUP1 ISZERO PUSH2 0x1774 JUMPI DUP1 PUSH1 0x1F LT PUSH2 0x1749 JUMPI PUSH2 0x100 DUP1 DUP4 SLOAD DIV MUL DUP4 MSTORE SWAP2 PUSH1 0x20 ADD SWAP2 PUSH2 0x1774 JUMP JUMPDEST DUP3 ADD SWAP2 SWAP1 PUSH1 0x0 MSTORE PUSH1 0x20 PUSH1 0x0 KECCAK256 SWAP1 JUMPDEST DUP2 SLOAD DUP2 MSTORE SWAP1 PUSH1 0x1 ADD SWAP1 PUSH1 0x20 ADD DUP1 DUP4 GT PUSH2 0x1757 JUMPI DUP3 SWAP1 SUB PUSH1 0x1F AND DUP3 ADD SWAP2 JUMPDEST POP POP POP POP POP DUP2 MSTORE PUSH1 0x20 ADD PUSH1 0x40 MLOAD DUP1 PUSH1 0x20 ADD PUSH1 0x40 MSTORE DUP1 PUSH1 0x0 DUP2 MSTORE POP DUP2 MSTORE POP SWAP1 POP PUSH2 0x17E0 JUMP JUMPDEST PUSH1 0x40 MLOAD DUP1 PUSH1 0x60 ADD PUSH1 0x40 MSTORE DUP1 PUSH1 0x0 ISZERO ISZERO DUP2 MSTORE PUSH1 0x20 ADD PUSH1 0x40 MLOAD DUP1 PUSH1 0x20 ADD PUSH1 0x40 MSTORE DUP1 PUSH1 0x0 DUP2 MSTORE POP DUP2 MSTORE PUSH1 0x20 ADD PUSH1 0x40 MLOAD DUP1 PUSH1 0x80 ADD PUSH1 0x40 MSTORE DUP1 PUSH1 0x44 DUP2 MSTORE PUSH1 0x20 ADD PUSH2 0x36BB PUSH1 0x44 SWAP2 CODECOPY DUP2 MSTORE POP SWAP1 POP JUMPDEST SWAP2 SWAP1 POP JUMP JUMPDEST PUSH2 0x17ED PUSH2 0x23EE JUMP JUMPDEST PUSH1 0x0 PUSH1 0x1 DUP1 SLOAD SWAP1 POP PUSH8 0xFFFFFFFFFFFFFFFF DUP2 GT ISZERO PUSH2 0x180E JUMPI PUSH2 0x180D PUSH2 0x24A2 JUMP JUMPDEST JUMPDEST PUSH1 0x40 MLOAD SWAP1 DUP1 DUP3 MSTORE DUP1 PUSH1 0x20 MUL PUSH1 0x20 ADD DUP3 ADD PUSH1 0x40 MSTORE DUP1 ISZERO PUSH2 0x1847 JUMPI DUP2 PUSH1 0x20 ADD JUMPDEST PUSH2 0x1834 PUSH2 0x2411 JUMP JUMPDEST DUP2 MSTORE PUSH1 0x20 ADD SWAP1 PUSH1 0x1 SWAP1 SUB SWAP1 DUP2 PUSH2 0x182C JUMPI SWAP1 POP JUMPDEST POP SWAP1 POP PUSH1 0x0 DUP1 DUP5 PUSH1 0x40 MLOAD PUSH2 0x185B SWAP2 SWAP1 PUSH2 0x2F8F JUMP JUMPDEST SWAP1 DUP2 MSTORE PUSH1 0x20 ADD PUSH1 0x40 MLOAD DUP1 SWAP2 SUB SWAP1 KECCAK256 PUSH1 0x40 MLOAD DUP1 PUSH2 0x120 ADD PUSH1 0x40 MSTORE SWAP1 DUP2 PUSH1 0x0 DUP3 ADD DUP1 SLOAD PUSH2 0x1885 SWAP1 PUSH2 0x2FD5 JUMP JUMPDEST DUP1 PUSH1 0x1F ADD PUSH1 0x20 DUP1 SWAP2 DIV MUL PUSH1 0x20 ADD PUSH1 0x40 MLOAD SWAP1 DUP2 ADD PUSH1 0x40 MSTORE DUP1 SWAP3 SWAP2 SWAP1 DUP2 DUP2 MSTORE PUSH1 0x20 ADD DUP3 DUP1 SLOAD PUSH2 0x18B1 SWAP1 PUSH2 0x2FD5 JUMP JUMPDEST DUP1 ISZERO PUSH2 0x18FE JUMPI DUP1 PUSH1 0x1F LT PUSH2 0x18D3 JUMPI PUSH2 0x100 DUP1 DUP4 SLOAD DIV MUL DUP4 MSTORE SWAP2 PUSH1 0x20 ADD SWAP2 PUSH2 0x18FE JUMP JUMPDEST DUP3 ADD SWAP2 SWAP1 PUSH1 0x0 MSTORE PUSH1 0x20 PUSH1 0x0 KECCAK256 SWAP1 JUMPDEST DUP2 SLOAD DUP2 MSTORE SWAP1 PUSH1 0x1 ADD SWAP1 PUSH1 0x20 ADD DUP1 DUP4 GT PUSH2 0x18E1 JUMPI DUP3 SWAP1 SUB PUSH1 0x1F AND DUP3 ADD SWAP2 JUMPDEST POP POP POP POP POP DUP2 MSTORE PUSH1 0x20 ADD PUSH1 0x1 DUP3 ADD DUP1 SLOAD PUSH2 0x1917 SWAP1 PUSH2 0x2FD5 JUMP JUMPDEST DUP1 PUSH1 0x1F ADD PUSH1 0x20 DUP1 SWAP2 DIV MUL PUSH1 0x20 ADD PUSH1 0x40 MLOAD SWAP1 DUP2 ADD PUSH1 0x40 MSTORE DUP1 SWAP3 SWAP2 SWAP1 DUP2 DUP2 MSTORE PUSH1 0x20 ADD DUP3 DUP1 SLOAD PUSH2 0x1943 SWAP1 PUSH2 0x2FD5 JUMP JUMPDEST DUP1 ISZERO PUSH2 0x1990 JUMPI DUP1 PUSH1 0x1F LT PUSH2 0x1965 JUMPI PUSH2 0x100 DUP1 DUP4 SLOAD DIV MUL DUP4 MSTORE SWAP2 PUSH1 0x20 ADD SWAP2 PUSH2 0x1990 JUMP JUMPDEST DUP3 ADD SWAP2 SWAP1 PUSH1 0x0 MSTORE PUSH1 0x20 PUSH1 0x0 KECCAK256 SWAP1 JUMPDEST DUP2 SLOAD DUP2 MSTORE SWAP1 PUSH1 0x1 ADD SWAP1 PUSH1 0x20 ADD DUP1 DUP4 GT PUSH2 0x1973 JUMPI DUP3 SWAP1 SUB PUSH1 0x1F AND DUP3 ADD SWAP2 JUMPDEST POP POP POP POP POP DUP2 MSTORE PUSH1 0x20 ADD PUSH1 0x2 DUP3 ADD SLOAD DUP2 MSTORE PUSH1 0x20 ADD PUSH1 0x3 DUP3 ADD DUP1 SLOAD PUSH2 0x19B3 SWAP1 PUSH2 0x2FD5 JUMP JUMPDEST DUP1 PUSH1 0x1F ADD PUSH1 0x20 DUP1 SWAP2 DIV MUL PUSH1 0x20 ADD PUSH1 0x40 MLOAD SWAP1 DUP2 ADD PUSH1 0x40 MSTORE DUP1 SWAP3 SWAP2 SWAP1 DUP2 DUP2 MSTORE PUSH1 0x20 ADD DUP3 DUP1 SLOAD PUSH2 0x19DF SWAP1 PUSH2 0x2FD5 JUMP JUMPDEST DUP1 ISZERO PUSH2 0x1A2C JUMPI DUP1 PUSH1 0x1F LT PUSH2 0x1A01 JUMPI PUSH2 0x100 DUP1 DUP4 SLOAD DIV MUL DUP4 MSTORE SWAP2 PUSH1 0x20 ADD SWAP2 PUSH2 0x1A2C JUMP JUMPDEST DUP3 ADD SWAP2 SWAP1 PUSH1 0x0 MSTORE PUSH1 0x20 PUSH1 0x0 KECCAK256 SWAP1 JUMPDEST DUP2 SLOAD DUP2 MSTORE SWAP1 PUSH1 0x1 ADD SWAP1 PUSH1 0x20 ADD DUP1 DUP4 GT PUSH2 0x1A0F JUMPI DUP3 SWAP1 SUB PUSH1 0x1F AND DUP3 ADD SWAP2 JUMPDEST POP POP POP POP POP DUP2 MSTORE PUSH1 0x20 ADD PUSH1 0x4 DUP3 ADD PUSH1 0x0 SWAP1 SLOAD SWAP1 PUSH2 0x100 EXP SWAP1 DIV PUSH20 0xFFFFFFFFFFFFFFFFFFFFFFFFFFFFFFFFFFFFFFFF AND PUSH20 0xFFFFFFFFFFFFFFFFFFFFFFFFFFFFFFFFFFFFFFFF AND PUSH20 0xFFFFFFFFFFFFFFFFFFFFFFFFFFFFFFFFFFFFFFFF AND DUP2 MSTORE PUSH1 0x20 ADD PUSH1 0x5 DUP3 ADD DUP1 SLOAD PUSH2 0x1A9B SWAP1 PUSH2 0x2FD5 JUMP JUMPDEST DUP1 PUSH1 0x1F ADD PUSH1 0x20 DUP1 SWAP2 DIV MUL PUSH1 0x20 ADD PUSH1 0x40 MLOAD SWAP1 DUP2 ADD PUSH1 0x40 MSTORE DUP1 SWAP3 SWAP2 SWAP1 DUP2 DUP2 MSTORE PUSH1 0x20 ADD DUP3 DUP1 SLOAD PUSH2 0x1AC7 SWAP1 PUSH2 0x2FD5 JUMP JUMPDEST DUP1 ISZERO PUSH2 0x1B14 JUMPI DUP1 PUSH1 0x1F LT PUSH2 0x1AE9 JUMPI PUSH2 0x100 DUP1 DUP4 SLOAD DIV MUL DUP4 MSTORE SWAP2 PUSH1 0x20 ADD SWAP2 PUSH2 0x1B14 JUMP JUMPDEST DUP3 ADD SWAP2 SWAP1 PUSH1 0x0 MSTORE PUSH1 0x20 PUSH1 0x0 KECCAK256 SWAP1 JUMPDEST DUP2 SLOAD DUP2 MSTORE SWAP1 PUSH1 0x1 ADD SWAP1 PUSH1 0x20 ADD DUP1 DUP4 GT PUSH2 0x1AF7 JUMPI DUP3 SWAP1 SUB PUSH1 0x1F AND DUP3 ADD SWAP2 JUMPDEST POP POP POP POP POP DUP2 MSTORE PUSH1 0x20 ADD PUSH1 0x6 DUP3 ADD DUP1 SLOAD PUSH2 0x1B2D SWAP1 PUSH2 0x2FD5 JUMP JUMPDEST DUP1 PUSH1 0x1F ADD PUSH1 0x20 DUP1 SWAP2 DIV MUL PUSH1 0x20 ADD PUSH1 0x40 MLOAD SWAP1 DUP2 ADD PUSH1 0x40 MSTORE DUP1 SWAP3 SWAP2 SWAP1 DUP2 DUP2 MSTORE PUSH1 0x20 ADD DUP3 DUP1 SLOAD PUSH2 0x1B59 SWAP1 PUSH2 0x2FD5 JUMP JUMPDEST DUP1 ISZERO PUSH2 0x1BA6 JUMPI DUP1 PUSH1 0x1F LT PUSH2 0x1B7B JUMPI PUSH2 0x100 DUP1 DUP4 SLOAD DIV MUL DUP4 MSTORE SWAP2 PUSH1 0x20 ADD SWAP2 PUSH2 0x1BA6 JUMP JUMPDEST DUP3 ADD SWAP2 SWAP1 PUSH1 0x0 MSTORE PUSH1 0x20 PUSH1 0x0 KECCAK256 SWAP1 JUMPDEST DUP2 SLOAD DUP2 MSTORE SWAP1 PUSH1 0x1 ADD SWAP1 PUSH1 0x20 ADD DUP1 DUP4 GT PUSH2 0x1B89 JUMPI DUP3 SWAP1 SUB PUSH1 0x1F AND DUP3 ADD SWAP2 JUMPDEST POP POP POP POP POP DUP2 MSTORE PUSH1 0x20 ADD PUSH1 0x7 DUP3 ADD DUP1 SLOAD PUSH2 0x1BBF SWAP1 PUSH2 0x2FD5 JUMP JUMPDEST DUP1 PUSH1 0x1F ADD PUSH1 0x20 DUP1 SWAP2 DIV MUL PUSH1 0x20 ADD PUSH1 0x40 MLOAD SWAP1 DUP2 ADD PUSH1 0x40 MSTORE DUP1 SWAP3 SWAP2 SWAP1 DUP2 DUP2 MSTORE PUSH1 0x20 ADD DUP3 DUP1 SLOAD PUSH2 0x1BEB SWAP1 PUSH2 0x2FD5 JUMP JUMPDEST DUP1 ISZERO PUSH2 0x1C38 JUMPI DUP1 PUSH1 0x1F LT PUSH2 0x1C0D JUMPI PUSH2 0x100 DUP1 DUP4 SLOAD DIV MUL DUP4 MSTORE SWAP2 PUSH1 0x20 ADD SWAP2 PUSH2 0x1C38 JUMP JUMPDEST DUP3 ADD SWAP2 SWAP1 PUSH1 0x0 MSTORE PUSH1 0x20 PUSH1 0x0 KECCAK256 SWAP1 JUMPDEST DUP2 SLOAD DUP2 MSTORE SWAP1 PUSH1 0x1 ADD SWAP1 PUSH1 0x20 ADD DUP1 DUP4 GT PUSH2 0x1C1B JUMPI DUP3 SWAP1 SUB PUSH1 0x1F AND DUP3 ADD SWAP2 JUMPDEST POP POP POP POP POP DUP2 MSTORE PUSH1 0x20 ADD PUSH1 0x8 DUP3 ADD DUP1 SLOAD PUSH2 0x1C51 SWAP1 PUSH2 0x2FD5 JUMP JUMPDEST DUP1 PUSH1 0x1F ADD PUSH1 0x20 DUP1 SWAP2 DIV MUL PUSH1 0x20 ADD PUSH1 0x40 MLOAD SWAP1 DUP2 ADD PUSH1 0x40 MSTORE DUP1 SWAP3 SWAP2 SWAP1 DUP2 DUP2 MSTORE PUSH1 0x20 ADD DUP3 DUP1 SLOAD PUSH2 0x1C7D SWAP1 PUSH2 0x2FD5 JUMP JUMPDEST DUP1 ISZERO PUSH2 0x1CCA JUMPI DUP1 PUSH1 0x1F LT PUSH2 0x1C9F JUMPI PUSH2 0x100 DUP1 DUP4 SLOAD DIV MUL DUP4 MSTORE SWAP2 PUSH1 0x20 ADD SWAP2 PUSH2 0x1CCA JUMP JUMPDEST DUP3 ADD SWAP2 SWAP1 PUSH1 0x0 MSTORE PUSH1 0x20 PUSH1 0x0 KECCAK256 SWAP1 JUMPDEST DUP2 SLOAD DUP2 MSTORE SWAP1 PUSH1 0x1 ADD SWAP1 PUSH1 0x20 ADD DUP1 DUP4 GT PUSH2 0x1CAD JUMPI DUP3 SWAP1 SUB PUSH1 0x1F AND DUP3 ADD SWAP2 JUMPDEST POP POP POP POP POP DUP2 MSTORE POP POP SWAP1 POP PUSH1 0x0 JUMPDEST PUSH1 0x40 MLOAD PUSH1 0x20 ADD PUSH2 0x1CE7 SWAP1 PUSH2 0x34FA JUMP JUMPDEST PUSH1 0x40 MLOAD PUSH1 0x20 DUP2 DUP4 SUB SUB DUP2 MSTORE SWAP1 PUSH1 0x40 MSTORE DUP1 MLOAD SWAP1 PUSH1 0x20 ADD KECCAK256 DUP3 PUSH1 0x60 ADD MLOAD PUSH1 0x40 MLOAD PUSH1 0x20 ADD PUSH2 0x1D12 SWAP2 SWAP1 PUSH2 0x2F8F JUMP JUMPDEST PUSH1 0x40 MLOAD PUSH1 0x20 DUP2 DUP4 SUB SUB DUP2 MSTORE SWAP1 PUSH1 0x40 MSTORE DUP1 MLOAD SWAP1 PUSH1 0x20 ADD KECCAK256 EQ PUSH2 0x21F3 JUMPI DUP2 DUP4 DUP3 DUP2 MLOAD DUP2 LT PUSH2 0x1D41 JUMPI PUSH2 0x1D40 PUSH2 0x3363 JUMP JUMPDEST JUMPDEST PUSH1 0x20 MUL PUSH1 0x20 ADD ADD DUP2 SWAP1 MSTORE POP DUP1 DUP1 PUSH2 0x1D57 SWAP1 PUSH2 0x3422 JUMP JUMPDEST SWAP2 POP POP PUSH1 0x0 DUP3 PUSH1 0x60 ADD MLOAD SWAP1 POP PUSH1 0x0 DUP2 PUSH1 0x40 MLOAD PUSH2 0x1D73 SWAP2 SWAP1 PUSH2 0x2F8F JUMP JUMPDEST SWAP1 DUP2 MSTORE PUSH1 0x20 ADD PUSH1 0x40 MLOAD DUP1 SWAP2 SUB SWAP1 KECCAK256 PUSH1 0x40 MLOAD DUP1 PUSH2 0x120 ADD PUSH1 0x40 MSTORE SWAP1 DUP2 PUSH1 0x0 DUP3 ADD DUP1 SLOAD PUSH2 0x1D9D SWAP1 PUSH2 0x2FD5 JUMP JUMPDEST DUP1 PUSH1 0x1F ADD PUSH1 0x20 DUP1 SWAP2 DIV MUL PUSH1 0x20 ADD PUSH1 0x40 MLOAD SWAP1 DUP2 ADD PUSH1 0x40 MSTORE DUP1 SWAP3 SWAP2 SWAP1 DUP2 DUP2 MSTORE PUSH1 0x20 ADD DUP3 DUP1 SLOAD PUSH2 0x1DC9 SWAP1 PUSH2 0x2FD5 JUMP JUMPDEST DUP1 ISZERO PUSH2 0x1E16 JUMPI DUP1 PUSH1 0x1F LT PUSH2 0x1DEB JUMPI PUSH2 0x100 DUP1 DUP4 SLOAD DIV MUL DUP4 MSTORE SWAP2 PUSH1 0x20 ADD SWAP2 PUSH2 0x1E16 JUMP JUMPDEST DUP3 ADD SWAP2 SWAP1 PUSH1 0x0 MSTORE PUSH1 0x20 PUSH1 0x0 KECCAK256 SWAP1 JUMPDEST DUP2 SLOAD DUP2 MSTORE SWAP1 PUSH1 0x1 ADD SWAP1 PUSH1 0x20 ADD DUP1 DUP4 GT PUSH2 0x1DF9 JUMPI DUP3 SWAP1 SUB PUSH1 0x1F AND DUP3 ADD SWAP2 JUMPDEST POP POP POP POP POP DUP2 MSTORE PUSH1 0x20 ADD PUSH1 0x1 DUP3 ADD DUP1 SLOAD PUSH2 0x1E2F SWAP1 PUSH2 0x2FD5 JUMP JUMPDEST DUP1 PUSH1 0x1F ADD PUSH1 0x20 DUP1 SWAP2 DIV MUL PUSH1 0x20 ADD PUSH1 0x40 MLOAD SWAP1 DUP2 ADD PUSH1 0x40 MSTORE DUP1 SWAP3 SWAP2 SWAP1 DUP2 DUP2 MSTORE PUSH1 0x20 ADD DUP3 DUP1 SLOAD PUSH2 0x1E5B SWAP1 PUSH2 0x2FD5 JUMP JUMPDEST DUP1 ISZERO PUSH2 0x1EA8 JUMPI DUP1 PUSH1 0x1F LT PUSH2 0x1E7D JUMPI PUSH2 0x100 DUP1 DUP4 SLOAD DIV MUL DUP4 MSTORE SWAP2 PUSH1 0x20 ADD SWAP2 PUSH2 0x1EA8 JUMP JUMPDEST DUP3 ADD SWAP2 SWAP1 PUSH1 0x0 MSTORE PUSH1 0x20 PUSH1 0x0 KECCAK256 SWAP1 JUMPDEST DUP2 SLOAD DUP2 MSTORE SWAP1 PUSH1 0x1 ADD SWAP1 PUSH1 0x20 ADD DUP1 DUP4 GT PUSH2 0x1E8B JUMPI DUP3 SWAP1 SUB PUSH1 0x1F AND DUP3 ADD SWAP2 JUMPDEST POP POP POP POP POP DUP2 MSTORE PUSH1 0x20 ADD PUSH1 0x2 DUP3 ADD SLOAD DUP2 MSTORE PUSH1 0x20 ADD PUSH1 0x3 DUP3 ADD DUP1 SLOAD PUSH2 0x1ECB SWAP1 PUSH2 0x2FD5 JUMP JUMPDEST DUP1 PUSH1 0x1F ADD PUSH1 0x20 DUP1 SWAP2 DIV MUL PUSH1 0x20 ADD PUSH1 0x40 MLOAD SWAP1 DUP2 ADD PUSH1 0x40 MSTORE DUP1 SWAP3 SWAP2 SWAP1 DUP2 DUP2 MSTORE PUSH1 0x20 ADD DUP3 DUP1 SLOAD PUSH2 0x1EF7 SWAP1 PUSH2 0x2FD5 JUMP JUMPDEST DUP1 ISZERO PUSH2 0x1F44 JUMPI DUP1 PUSH1 0x1F LT PUSH2 0x1F19 JUMPI PUSH2 0x100 DUP1 DUP4 SLOAD DIV MUL DUP4 MSTORE SWAP2 PUSH1 0x20 ADD SWAP2 PUSH2 0x1F44 JUMP JUMPDEST DUP3 ADD SWAP2 SWAP1 PUSH1 0x0 MSTORE PUSH1 0x20 PUSH1 0x0 KECCAK256 SWAP1 JUMPDEST DUP2 SLOAD DUP2 MSTORE SWAP1 PUSH1 0x1 ADD SWAP1 PUSH1 0x20 ADD DUP1 DUP4 GT PUSH2 0x1F27 JUMPI DUP3 SWAP1 SUB PUSH1 0x1F AND DUP3 ADD SWAP2 JUMPDEST POP POP POP POP POP DUP2 MSTORE PUSH1 0x20 ADD PUSH1 0x4 DUP3 ADD PUSH1 0x0 SWAP1 SLOAD SWAP1 PUSH2 0x100 EXP SWAP1 DIV PUSH20 0xFFFFFFFFFFFFFFFFFFFFFFFFFFFFFFFFFFFFFFFF AND PUSH20 0xFFFFFFFFFFFFFFFFFFFFFFFFFFFFFFFFFFFFFFFF AND PUSH20 0xFFFFFFFFFFFFFFFFFFFFFFFFFFFFFFFFFFFFFFFF AND DUP2 MSTORE PUSH1 0x20 ADD PUSH1 0x5 DUP3 ADD DUP1 SLOAD PUSH2 0x1FB3 SWAP1 PUSH2 0x2FD5 JUMP JUMPDEST DUP1 PUSH1 0x1F ADD PUSH1 0x20 DUP1 SWAP2 DIV MUL PUSH1 0x20 ADD PUSH1 0x40 MLOAD SWAP1 DUP2 ADD PUSH1 0x40 MSTORE DUP1 SWAP3 SWAP2 SWAP1 DUP2 DUP2 MSTORE PUSH1 0x20 ADD DUP3 DUP1 SLOAD PUSH2 0x1FDF SWAP1 PUSH2 0x2FD5 JUMP JUMPDEST DUP1 ISZERO PUSH2 0x202C JUMPI DUP1 PUSH1 0x1F LT PUSH2 0x2001 JUMPI PUSH2 0x100 DUP1 DUP4 SLOAD DIV MUL DUP4 MSTORE SWAP2 PUSH1 0x20 ADD SWAP2 PUSH2 0x202C JUMP JUMPDEST DUP3 ADD SWAP2 SWAP1 PUSH1 0x0 MSTORE PUSH1 0x20 PUSH1 0x0 KECCAK256 SWAP1 JUMPDEST DUP2 SLOAD DUP2 MSTORE SWAP1 PUSH1 0x1 ADD SWAP1 PUSH1 0x20 ADD DUP1 DUP4 GT PUSH2 0x200F JUMPI DUP3 SWAP1 SUB PUSH1 0x1F AND DUP3 ADD SWAP2 JUMPDEST POP POP POP POP POP DUP2 MSTORE PUSH1 0x20 ADD PUSH1 0x6 DUP3 ADD DUP1 SLOAD PUSH2 0x2045 SWAP1 PUSH2 0x2FD5 JUMP JUMPDEST DUP1 PUSH1 0x1F ADD PUSH1 0x20 DUP1 SWAP2 DIV MUL PUSH1 0x20 ADD PUSH1 0x40 MLOAD SWAP1 DUP2 ADD PUSH1 0x40 MSTORE DUP1 SWAP3 SWAP2 SWAP1 DUP2 DUP2 MSTORE PUSH1 0x20 ADD DUP3 DUP1 SLOAD PUSH2 0x2071 SWAP1 PUSH2 0x2FD5 JUMP JUMPDEST DUP1 ISZERO PUSH2 0x20BE JUMPI DUP1 PUSH1 0x1F LT PUSH2 0x2093 JUMPI PUSH2 0x100 DUP1 DUP4 SLOAD DIV MUL DUP4 MSTORE SWAP2 PUSH1 0x20 ADD SWAP2 PUSH2 0x20BE JUMP JUMPDEST DUP3 ADD SWAP2 SWAP1 PUSH1 0x0 MSTORE PUSH1 0x20 PUSH1 0x0 KECCAK256 SWAP1 JUMPDEST DUP2 SLOAD DUP2 MSTORE SWAP1 PUSH1 0x1 ADD SWAP1 PUSH1 0x20 ADD DUP1 DUP4 GT PUSH2 0x20A1 JUMPI DUP3 SWAP1 SUB PUSH1 0x1F AND DUP3 ADD SWAP2 JUMPDEST POP POP POP POP POP DUP2 MSTORE PUSH1 0x20 ADD PUSH1 0x7 DUP3 ADD DUP1 SLOAD PUSH2 0x20D7 SWAP1 PUSH2 0x2FD5 JUMP JUMPDEST DUP1 PUSH1 0x1F ADD PUSH1 0x20 DUP1 SWAP2 DIV MUL PUSH1 0x20 ADD PUSH1 0x40 MLOAD SWAP1 DUP2 ADD PUSH1 0x40 MSTORE DUP1 SWAP3 SWAP2 SWAP1 DUP2 DUP2 MSTORE PUSH1 0x20 ADD DUP3 DUP1 SLOAD PUSH2 0x2103 SWAP1 PUSH2 0x2FD5 JUMP JUMPDEST DUP1 ISZERO PUSH2 0x2150 JUMPI DUP1 PUSH1 0x1F LT PUSH2 0x2125 JUMPI PUSH2 0x100 DUP1 DUP4 SLOAD DIV MUL DUP4 MSTORE SWAP2 PUSH1 0x20 ADD SWAP2 PUSH2 0x2150 JUMP JUMPDEST DUP3 ADD SWAP2 SWAP1 PUSH1 0x0 MSTORE PUSH1 0x20 PUSH1 0x0 KECCAK256 SWAP1 JUMPDEST DUP2 SLOAD DUP2 MSTORE SWAP1 PUSH1 0x1 ADD SWAP1 PUSH1 0x20 ADD DUP1 DUP4 GT PUSH2 0x2133 JUMPI DUP3 SWAP1 SUB PUSH1 0x1F AND DUP3 ADD SWAP2 JUMPDEST POP POP POP POP POP DUP2 MSTORE PUSH1 0x20 ADD PUSH1 0x8 DUP3 ADD DUP1 SLOAD PUSH2 0x2169 SWAP1 PUSH2 0x2FD5 JUMP JUMPDEST DUP1 PUSH1 0x1F ADD PUSH1 0x20 DUP1 SWAP2 DIV MUL PUSH1 0x20 ADD PUSH1 0x40 MLOAD SWAP1 DUP2 ADD PUSH1 0x40 MSTORE DUP1 SWAP3 SWAP2 SWAP1 DUP2 DUP2 MSTORE PUSH1 0x20 ADD DUP3 DUP1 SLOAD PUSH2 0x2195 SWAP1 PUSH2 0x2FD5 JUMP JUMPDEST DUP1 ISZERO PUSH2 0x21E2 JUMPI DUP1 PUSH1 0x1F LT PUSH2 0x21B7 JUMPI PUSH2 0x100 DUP1 DUP4 SLOAD DIV MUL DUP4 MSTORE SWAP2 PUSH1 0x20 ADD SWAP2 PUSH2 0x21E2 JUMP JUMPDEST DUP3 ADD SWAP2 SWAP1 PUSH1 0x0 MSTORE PUSH1 0x20 PUSH1 0x0 KECCAK256 SWAP1 JUMPDEST DUP2 SLOAD DUP2 MSTORE SWAP1 PUSH1 0x1 ADD SWAP1 PUSH1 0x20 ADD DUP1 DUP4 GT PUSH2 0x21C5 JUMPI DUP3 SWAP1 SUB PUSH1 0x1F AND DUP3 ADD SWAP2 JUMPDEST POP POP POP POP POP DUP2 MSTORE POP POP SWAP3 POP POP PUSH2 0x1CD8 JUMP JUMPDEST DUP2 DUP4 DUP3 DUP2 MLOAD DUP2 LT PUSH2 0x2207 JUMPI PUSH2 0x2206 PUSH2 0x3363 JUMP JUMPDEST JUMPDEST PUSH1 0x20 MUL PUSH1 0x20 ADD ADD DUP2 SWAP1 MSTORE POP DUP1 DUP1 PUSH2 0x221D SWAP1 PUSH2 0x3422 JUMP JUMPDEST SWAP2 POP POP DUP1 DUP4 MSTORE PUSH1 0x40 MLOAD DUP1 PUSH1 0x60 ADD PUSH1 0x40 MSTORE DUP1 PUSH1 0x1 ISZERO ISZERO DUP2 MSTORE PUSH1 0x20 ADD DUP5 DUP2 MSTORE PUSH1 0x20 ADD PUSH1 0x40 MLOAD DUP1 PUSH1 0x20 ADD PUSH1 0x40 MSTORE DUP1 PUSH1 0x0 DUP2 MSTORE POP DUP2 MSTORE POP SWAP4 POP POP POP POP SWAP2 SWAP1 POP JUMP JUMPDEST PUSH1 0x0 PUSH2 0x2269 DUP3 PUSH1 0x0 ADD MLOAD PUSH2 0x123B JUMP JUMPDEST ISZERO DUP1 ISZERO PUSH2 0x230E JUMPI POP PUSH1 0x2 PUSH1 0x0 SWAP1 SLOAD SWAP1 PUSH2 0x100 EXP SWAP1 DIV PUSH20 0xFFFFFFFFFFFFFFFFFFFFFFFFFFFFFFFFFFFFFFFF AND PUSH20 0xFFFFFFFFFFFFFFFFFFFFFFFFFFFFFFFFFFFFFFFF AND PUSH4 0x4294A5AD DUP4 PUSH1 0x40 MLOAD DUP3 PUSH4 0xFFFFFFFF AND PUSH1 0xE0 SHL DUP2 MSTORE PUSH1 0x4 ADD PUSH2 0x22CC SWAP2 SWAP1 PUSH2 0x35FE JUMP JUMPDEST PUSH1 0x20 PUSH1 0x40 MLOAD DUP1 DUP4 SUB DUP2 DUP7 GAS STATICCALL ISZERO DUP1 ISZERO PUSH2 0x22E9 JUMPI RETURNDATASIZE PUSH1 0x0 DUP1 RETURNDATACOPY RETURNDATASIZE PUSH1 0x0 REVERT JUMPDEST POP POP POP POP PUSH1 0x40 MLOAD RETURNDATASIZE PUSH1 0x1F NOT PUSH1 0x1F DUP3 ADD AND DUP3 ADD DUP1 PUSH1 0x40 MSTORE POP DUP2 ADD SWAP1 PUSH2 0x230D SWAP2 SWAP1 PUSH2 0x364C JUMP JUMPDEST JUMPDEST DUP1 ISZERO PUSH2 0x2367 JUMPI POP PUSH1 0x3 PUSH1 0x0 SWAP1 SLOAD SWAP1 PUSH2 0x100 EXP SWAP1 DIV PUSH20 0xFFFFFFFFFFFFFFFFFFFFFFFFFFFFFFFFFFFFFFFF AND PUSH20 0xFFFFFFFFFFFFFFFFFFFFFFFFFFFFFFFFFFFFFFFF AND CALLER PUSH20 0xFFFFFFFFFFFFFFFFFFFFFFFFFFFFFFFFFFFFFFFF AND EQ JUMPDEST ISZERO PUSH2 0x2375 JUMPI PUSH1 0x1 SWAP1 POP PUSH2 0x237A JUMP JUMPDEST PUSH1 0x0 SWAP1 POP JUMPDEST SWAP2 SWAP1 POP JUMP JUMPDEST PUSH1 0x40 MLOAD DUP1 PUSH1 0x60 ADD PUSH1 0x40 MSTORE DUP1 PUSH1 0x0 ISZERO ISZERO DUP2 MSTORE PUSH1 0x20 ADD PUSH1 0x60 DUP2 MSTORE PUSH1 0x20 ADD PUSH1 0x60 DUP2 MSTORE POP SWAP1 JUMP JUMPDEST PUSH1 0x40 MLOAD DUP1 PUSH1 0x60 ADD PUSH1 0x40 MSTORE DUP1 PUSH1 0x0 ISZERO ISZERO DUP2 MSTORE PUSH1 0x20 ADD PUSH2 0x23BE PUSH2 0x2411 JUMP JUMPDEST DUP2 MSTORE PUSH1 0x20 ADD PUSH1 0x60 DUP2 MSTORE POP SWAP1 JUMP JUMPDEST PUSH1 0x40 MLOAD DUP1 PUSH1 0x60 ADD PUSH1 0x40 MSTORE DUP1 PUSH1 0x0 ISZERO ISZERO DUP2 MSTORE PUSH1 0x20 ADD PUSH1 0x60 DUP2 MSTORE PUSH1 0x20 ADD PUSH1 0x60 DUP2 MSTORE POP SWAP1 JUMP JUMPDEST PUSH1 0x40 MLOAD DUP1 PUSH1 0x60 ADD PUSH1 0x40 MSTORE DUP1 PUSH1 0x0 ISZERO ISZERO DUP2 MSTORE PUSH1 0x20 ADD PUSH1 0x60 DUP2 MSTORE PUSH1 0x20 ADD PUSH1 0x60 DUP2 MSTORE POP SWAP1 JUMP JUMPDEST PUSH1 0x40 MLOAD DUP1 PUSH2 0x120 ADD PUSH1 0x40 MSTORE DUP1 PUSH1 0x60 DUP2 MSTORE PUSH1 0x20 ADD PUSH1 0x60 DUP2 MSTORE PUSH1 0x20 ADD PUSH1 0x0 DUP2 MSTORE PUSH1 0x20 ADD PUSH1 0x60 DUP2 MSTORE PUSH1 0x20 ADD PUSH1 0x0 PUSH20 0xFFFFFFFFFFFFFFFFFFFFFFFFFFFFFFFFFFFFFFFF AND DUP2 MSTORE PUSH1 0x20 ADD PUSH1 0x60 DUP2 MSTORE PUSH1 0x20 ADD PUSH1 0x60 DUP2 MSTORE PUSH1 0x20 ADD PUSH1 0x60 DUP2 MSTORE PUSH1 0x20 ADD PUSH1 0x60 DUP2 MSTORE POP SWAP1 JUMP JUMPDEST PUSH1 0x0 PUSH1 0x40 MLOAD SWAP1 POP SWAP1 JUMP JUMPDEST PUSH1 0x0 DUP1 REVERT JUMPDEST PUSH1 0x0 DUP1 REVERT JUMPDEST PUSH1 0x0 DUP1 REVERT JUMPDEST PUSH1 0x0 DUP1 REVERT JUMPDEST PUSH1 0x0 PUSH1 0x1F NOT PUSH1 0x1F DUP4 ADD AND SWAP1 POP SWAP2 SWAP1 POP JUMP JUMPDEST PUSH32 0x4E487B7100000000000000000000000000000000000000000000000000000000 PUSH1 0x0 MSTORE PUSH1 0x41 PUSH1 0x4 MSTORE PUSH1 0x24 PUSH1 0x0 REVERT JUMPDEST PUSH2 0x24DA DUP3 PUSH2 0x2491 JUMP JUMPDEST DUP2 ADD DUP2 DUP2 LT PUSH8 0xFFFFFFFFFFFFFFFF DUP3 GT OR ISZERO PUSH2 0x24F9 JUMPI PUSH2 0x24F8 PUSH2 0x24A2 JUMP JUMPDEST JUMPDEST DUP1 PUSH1 0x40 MSTORE POP POP POP JUMP JUMPDEST PUSH1 0x0 PUSH2 0x250C PUSH2 0x2473 JUMP JUMPDEST SWAP1 POP PUSH2 0x2518 DUP3 DUP3 PUSH2 0x24D1 JUMP JUMPDEST SWAP2 SWAP1 POP JUMP JUMPDEST PUSH1 0x0 PUSH8 0xFFFFFFFFFFFFFFFF DUP3 GT ISZERO PUSH2 0x2538 JUMPI PUSH2 0x2537 PUSH2 0x24A2 JUMP JUMPDEST JUMPDEST PUSH2 0x2541 DUP3 PUSH2 0x2491 JUMP JUMPDEST SWAP1 POP PUSH1 0x20 DUP2 ADD SWAP1 POP SWAP2 SWAP1 POP JUMP JUMPDEST DUP3 DUP2 DUP4 CALLDATACOPY PUSH1 0x0 DUP4 DUP4 ADD MSTORE POP POP POP JUMP JUMPDEST PUSH1 0x0 PUSH2 0x2570 PUSH2 0x256B DUP5 PUSH2 0x251D JUMP JUMPDEST PUSH2 0x2502 JUMP JUMPDEST SWAP1 POP DUP3 DUP2 MSTORE PUSH1 0x20 DUP2 ADD DUP5 DUP5 DUP5 ADD GT ISZERO PUSH2 0x258C JUMPI PUSH2 0x258B PUSH2 0x248C JUMP JUMPDEST JUMPDEST PUSH2 0x2597 DUP5 DUP3 DUP6 PUSH2 0x254E JUMP JUMPDEST POP SWAP4 SWAP3 POP POP POP JUMP JUMPDEST PUSH1 0x0 DUP3 PUSH1 0x1F DUP4 ADD SLT PUSH2 0x25B4 JUMPI PUSH2 0x25B3 PUSH2 0x2487 JUMP JUMPDEST JUMPDEST DUP2 CALLDATALOAD PUSH2 0x25C4 DUP5 DUP3 PUSH1 0x20 DUP7 ADD PUSH2 0x255D JUMP JUMPDEST SWAP2 POP POP SWAP3 SWAP2 POP POP JUMP JUMPDEST PUSH1 0x0 PUSH1 0x20 DUP3 DUP5 SUB SLT ISZERO PUSH2 0x25E3 JUMPI PUSH2 0x25E2 PUSH2 0x247D JUMP JUMPDEST JUMPDEST PUSH1 0x0 DUP3 ADD CALLDATALOAD PUSH8 0xFFFFFFFFFFFFFFFF DUP2 GT ISZERO PUSH2 0x2601 JUMPI PUSH2 0x2600 PUSH2 0x2482 JUMP JUMPDEST JUMPDEST PUSH2 0x260D DUP5 DUP3 DUP6 ADD PUSH2 0x259F JUMP JUMPDEST SWAP2 POP POP SWAP3 SWAP2 POP POP JUMP JUMPDEST PUSH1 0x0 DUP2 ISZERO ISZERO SWAP1 POP SWAP2 SWAP1 POP JUMP JUMPDEST PUSH2 0x262B DUP2 PUSH2 0x2616 JUMP JUMPDEST DUP3 MSTORE POP POP JUMP JUMPDEST PUSH1 0x0 DUP2 MLOAD SWAP1 POP SWAP2 SWAP1 POP JUMP JUMPDEST PUSH1 0x0 DUP3 DUP3 MSTORE PUSH1 0x20 DUP3 ADD SWAP1 POP SWAP3 SWAP2 POP POP JUMP JUMPDEST PUSH1 0x0 JUMPDEST DUP4 DUP2 LT ISZERO PUSH2 0x266B JUMPI DUP1 DUP3 ADD MLOAD DUP2 DUP5 ADD MSTORE PUSH1 0x20 DUP2 ADD SWAP1 POP PUSH2 0x2650 JUMP JUMPDEST PUSH1 0x0 DUP5 DUP5 ADD MSTORE POP POP POP POP JUMP JUMPDEST PUSH1 0x0 PUSH2 0x2682 DUP3 PUSH2 0x2631 JUMP JUMPDEST PUSH2 0x268C DUP2 DUP6 PUSH2 0x263C JUMP JUMPDEST SWAP4 POP PUSH2 0x269C DUP2 DUP6 PUSH1 0x20 DUP7 ADD PUSH2 0x264D JUMP JUMPDEST PUSH2 0x26A5 DUP2 PUSH2 0x2491 JUMP JUMPDEST DUP5 ADD SWAP2 POP POP SWAP3 SWAP2 POP POP JUMP JUMPDEST PUSH1 0x0 PUSH1 0x60 DUP4 ADD PUSH1 0x0 DUP4 ADD MLOAD PUSH2 0x26C8 PUSH1 0x0 DUP7 ADD DUP3 PUSH2 0x2622 JUMP JUMPDEST POP PUSH1 0x20 DUP4 ADD MLOAD DUP5 DUP3 SUB PUSH1 0x20 DUP7 ADD MSTORE PUSH2 0x26E0 DUP3 DUP3 PUSH2 0x2677 JUMP JUMPDEST SWAP2 POP POP PUSH1 0x40 DUP4 ADD MLOAD DUP5 DUP3 SUB PUSH1 0x40 DUP7 ADD MSTORE PUSH2 0x26FA DUP3 DUP3 PUSH2 0x2677 JUMP JUMPDEST SWAP2 POP POP DUP1 SWAP2 POP POP SWAP3 SWAP2 POP POP JUMP JUMPDEST PUSH1 0x0 PUSH1 0x20 DUP3 ADD SWAP1 POP DUP2 DUP2 SUB PUSH1 0x0 DUP4 ADD MSTORE PUSH2 0x2721 DUP2 DUP5 PUSH2 0x26B0 JUMP JUMPDEST SWAP1 POP SWAP3 SWAP2 POP POP JUMP JUMPDEST PUSH1 0x0 DUP1 PUSH1 0x40 DUP4 DUP6 SUB SLT ISZERO PUSH2 0x2740 JUMPI PUSH2 0x273F PUSH2 0x247D JUMP JUMPDEST JUMPDEST PUSH1 0x0 DUP4 ADD CALLDATALOAD PUSH8 0xFFFFFFFFFFFFFFFF DUP2 GT ISZERO PUSH2 0x275E JUMPI PUSH2 0x275D PUSH2 0x2482 JUMP JUMPDEST JUMPDEST PUSH2 0x276A DUP6 DUP3 DUP7 ADD PUSH2 0x259F JUMP JUMPDEST SWAP3 POP POP PUSH1 0x20 DUP4 ADD CALLDATALOAD PUSH8 0xFFFFFFFFFFFFFFFF DUP2 GT ISZERO PUSH2 0x278B JUMPI PUSH2 0x278A PUSH2 0x2482 JUMP JUMPDEST JUMPDEST PUSH2 0x2797 DUP6 DUP3 DUP7 ADD PUSH2 0x259F JUMP JUMPDEST SWAP2 POP POP SWAP3 POP SWAP3 SWAP1 POP JUMP JUMPDEST PUSH1 0x0 DUP2 SWAP1 POP SWAP2 SWAP1 POP JUMP JUMPDEST PUSH2 0x27B4 DUP2 PUSH2 0x27A1 JUMP JUMPDEST DUP3 MSTORE POP POP JUMP JUMPDEST PUSH1 0x0 PUSH20 0xFFFFFFFFFFFFFFFFFFFFFFFFFFFFFFFFFFFFFFFF DUP3 AND SWAP1 POP SWAP2 SWAP1 POP JUMP JUMPDEST PUSH1 0x0 PUSH2 0x27E5 DUP3 PUSH2 0x27BA JUMP JUMPDEST SWAP1 POP SWAP2 SWAP1 POP JUMP JUMPDEST PUSH2 0x27F5 DUP2 PUSH2 0x27DA JUMP JUMPDEST DUP3 MSTORE POP POP JUMP JUMPDEST PUSH1 0x0 PUSH2 0x120 DUP4 ADD PUSH1 0x0 DUP4 ADD MLOAD DUP5 DUP3 SUB PUSH1 0x0 DUP7 ADD MSTORE PUSH2 0x2819 DUP3 DUP3 PUSH2 0x2677 JUMP JUMPDEST SWAP2 POP POP PUSH1 0x20 DUP4 ADD MLOAD DUP5 DUP3 SUB PUSH1 0x20 DUP7 ADD MSTORE PUSH2 0x2833 DUP3 DUP3 PUSH2 0x2677 JUMP JUMPDEST SWAP2 POP POP PUSH1 0x40 DUP4 ADD MLOAD PUSH2 0x2848 PUSH1 0x40 DUP7 ADD DUP3 PUSH2 0x27AB JUMP JUMPDEST POP PUSH1 0x60 DUP4 ADD MLOAD DUP5 DUP3 SUB PUSH1 0x60 DUP7 ADD MSTORE PUSH2 0x2860 DUP3 DUP3 PUSH2 0x2677 JUMP JUMPDEST SWAP2 POP POP PUSH1 0x80 DUP4 ADD MLOAD PUSH2 0x2875 PUSH1 0x80 DUP7 ADD DUP3 PUSH2 0x27EC JUMP JUMPDEST POP PUSH1 0xA0 DUP4 ADD MLOAD DUP5 DUP3 SUB PUSH1 0xA0 DUP7 ADD MSTORE PUSH2 0x288D DUP3 DUP3 PUSH2 0x2677 JUMP JUMPDEST SWAP2 POP POP PUSH1 0xC0 DUP4 ADD MLOAD DUP5 DUP3 SUB PUSH1 0xC0 DUP7 ADD MSTORE PUSH2 0x28A7 DUP3 DUP3 PUSH2 0x2677 JUMP JUMPDEST SWAP2 POP POP PUSH1 0xE0 DUP4 ADD MLOAD DUP5 DUP3 SUB PUSH1 0xE0 DUP7 ADD MSTORE PUSH2 0x28C1 DUP3 DUP3 PUSH2 0x2677 JUMP JUMPDEST SWAP2 POP POP PUSH2 0x100 DUP4 ADD MLOAD DUP5 DUP3 SUB PUSH2 0x100 DUP7 ADD MSTORE PUSH2 0x28DD DUP3 DUP3 PUSH2 0x2677 JUMP JUMPDEST SWAP2 POP POP DUP1 SWAP2 POP POP SWAP3 SWAP2 POP POP JUMP JUMPDEST PUSH1 0x0 PUSH1 0x60 DUP4 ADD PUSH1 0x0 DUP4 ADD MLOAD PUSH2 0x2902 PUSH1 0x0 DUP7 ADD DUP3 PUSH2 0x2622 JUMP JUMPDEST POP PUSH1 0x20 DUP4 ADD MLOAD DUP5 DUP3 SUB PUSH1 0x20 DUP7 ADD MSTORE PUSH2 0x291A DUP3 DUP3 PUSH2 0x27FB JUMP JUMPDEST SWAP2 POP POP PUSH1 0x40 DUP4 ADD MLOAD DUP5 DUP3 SUB PUSH1 0x40 DUP7 ADD MSTORE PUSH2 0x2934 DUP3 DUP3 PUSH2 0x2677 JUMP JUMPDEST SWAP2 POP POP DUP1 SWAP2 POP POP SWAP3 SWAP2 POP POP JUMP JUMPDEST PUSH1 0x0 PUSH1 0x20 DUP3 ADD SWAP1 POP DUP2 DUP2 SUB PUSH1 0x0 DUP4 ADD MSTORE PUSH2 0x295B DUP2 DUP5 PUSH2 0x28EA JUMP JUMPDEST SWAP1 POP SWAP3 SWAP2 POP POP JUMP JUMPDEST PUSH2 0x296C DUP2 PUSH2 0x27DA JUMP JUMPDEST DUP2 EQ PUSH2 0x2977 JUMPI PUSH1 0x0 DUP1 REVERT JUMPDEST POP JUMP JUMPDEST PUSH1 0x0 DUP2 CALLDATALOAD SWAP1 POP PUSH2 0x2989 DUP2 PUSH2 0x2963 JUMP JUMPDEST SWAP3 SWAP2 POP POP JUMP JUMPDEST PUSH1 0x0 DUP1 PUSH1 0x40 DUP4 DUP6 SUB SLT ISZERO PUSH2 0x29A6 JUMPI PUSH2 0x29A5 PUSH2 0x247D JUMP JUMPDEST JUMPDEST PUSH1 0x0 PUSH2 0x29B4 DUP6 DUP3 DUP7 ADD PUSH2 0x297A JUMP JUMPDEST SWAP3 POP POP PUSH1 0x20 DUP4 ADD CALLDATALOAD PUSH8 0xFFFFFFFFFFFFFFFF DUP2 GT ISZERO PUSH2 0x29D5 JUMPI PUSH2 0x29D4 PUSH2 0x2482 JUMP JUMPDEST JUMPDEST PUSH2 0x29E1 DUP6 DUP3 DUP7 ADD PUSH2 0x259F JUMP JUMPDEST SWAP2 POP POP SWAP3 POP SWAP3 SWAP1 POP JUMP JUMPDEST PUSH2 0x29F4 DUP2 PUSH2 0x2616 JUMP JUMPDEST DUP3 MSTORE POP POP JUMP JUMPDEST PUSH1 0x0 PUSH1 0x20 DUP3 ADD SWAP1 POP PUSH2 0x2A0F PUSH1 0x0 DUP4 ADD DUP5 PUSH2 0x29EB JUMP JUMPDEST SWAP3 SWAP2 POP POP JUMP JUMPDEST PUSH1 0x0 DUP2 MLOAD SWAP1 POP SWAP2 SWAP1 POP JUMP JUMPDEST PUSH1 0x0 DUP3 DUP3 MSTORE PUSH1 0x20 DUP3 ADD SWAP1 POP SWAP3 SWAP2 POP POP JUMP JUMPDEST PUSH1 0x0 DUP2 SWAP1 POP PUSH1 0x20 DUP3 ADD SWAP1 POP SWAP2 SWAP1 POP JUMP JUMPDEST PUSH1 0x0 PUSH2 0x2A4D DUP4 DUP4 PUSH2 0x2677 JUMP JUMPDEST SWAP1 POP SWAP3 SWAP2 POP POP JUMP JUMPDEST PUSH1 0x0 PUSH1 0x20 DUP3 ADD SWAP1 POP SWAP2 SWAP1 POP JUMP JUMPDEST PUSH1 0x0 PUSH2 0x2A6D DUP3 PUSH2 0x2A15 JUMP JUMPDEST PUSH2 0x2A77 DUP2 DUP6 PUSH2 0x2A20 JUMP JUMPDEST SWAP4 POP DUP4 PUSH1 0x20 DUP3 MUL DUP6 ADD PUSH2 0x2A89 DUP6 PUSH2 0x2A31 JUMP JUMPDEST DUP1 PUSH1 0x0 JUMPDEST DUP6 DUP2 LT ISZERO PUSH2 0x2AC5 JUMPI DUP5 DUP5 SUB DUP10 MSTORE DUP2 MLOAD PUSH2 0x2AA6 DUP6 DUP3 PUSH2 0x2A41 JUMP JUMPDEST SWAP5 POP PUSH2 0x2AB1 DUP4 PUSH2 0x2A55 JUMP JUMPDEST SWAP3 POP PUSH1 0x20 DUP11 ADD SWAP10 POP POP PUSH1 0x1 DUP2 ADD SWAP1 POP PUSH2 0x2A8D JUMP JUMPDEST POP DUP3 SWAP8 POP DUP8 SWAP6 POP POP POP POP POP POP SWAP3 SWAP2 POP POP JUMP JUMPDEST PUSH1 0x0 PUSH1 0x60 DUP4 ADD PUSH1 0x0 DUP4 ADD MLOAD PUSH2 0x2AEF PUSH1 0x0 DUP7 ADD DUP3 PUSH2 0x2622 JUMP JUMPDEST POP PUSH1 0x20 DUP4 ADD MLOAD DUP5 DUP3 SUB PUSH1 0x20 DUP7 ADD MSTORE PUSH2 0x2B07 DUP3 DUP3 PUSH2 0x2A62 JUMP JUMPDEST SWAP2 POP POP PUSH1 0x40 DUP4 ADD MLOAD DUP5 DUP3 SUB PUSH1 0x40 DUP7 ADD MSTORE PUSH2 0x2B21 DUP3 DUP3 PUSH2 0x2677 JUMP JUMPDEST SWAP2 POP POP DUP1 SWAP2 POP POP SWAP3 SWAP2 POP POP JUMP JUMPDEST PUSH1 0x0 PUSH1 0x20 DUP3 ADD SWAP1 POP DUP2 DUP2 SUB PUSH1 0x0 DUP4 ADD MSTORE PUSH2 0x2B48 DUP2 DUP5 PUSH2 0x2AD7 JUMP JUMPDEST SWAP1 POP SWAP3 SWAP2 POP POP JUMP JUMPDEST PUSH1 0x0 DUP1 REVERT JUMPDEST PUSH1 0x0 DUP1 REVERT JUMPDEST PUSH2 0x2B63 DUP2 PUSH2 0x27A1 JUMP JUMPDEST DUP2 EQ PUSH2 0x2B6E JUMPI PUSH1 0x0 DUP1 REVERT JUMPDEST POP JUMP JUMPDEST PUSH1 0x0 DUP2 CALLDATALOAD SWAP1 POP PUSH2 0x2B80 DUP2 PUSH2 0x2B5A JUMP JUMPDEST SWAP3 SWAP2 POP POP JUMP JUMPDEST PUSH1 0x0 PUSH2 0x120 DUP3 DUP5 SUB SLT ISZERO PUSH2 0x2B9D JUMPI PUSH2 0x2B9C PUSH2 0x2B50 JUMP JUMPDEST JUMPDEST PUSH2 0x2BA8 PUSH2 0x120 PUSH2 0x2502 JUMP JUMPDEST SWAP1 POP PUSH1 0x0 DUP3 ADD CALLDATALOAD PUSH8 0xFFFFFFFFFFFFFFFF DUP2 GT ISZERO PUSH2 0x2BC8 JUMPI PUSH2 0x2BC7 PUSH2 0x2B55 JUMP JUMPDEST JUMPDEST PUSH2 0x2BD4 DUP5 DUP3 DUP6 ADD PUSH2 0x259F JUMP JUMPDEST PUSH1 0x0 DUP4 ADD MSTORE POP PUSH1 0x20 DUP3 ADD CALLDATALOAD PUSH8 0xFFFFFFFFFFFFFFFF DUP2 GT ISZERO PUSH2 0x2BF8 JUMPI PUSH2 0x2BF7 PUSH2 0x2B55 JUMP JUMPDEST JUMPDEST PUSH2 0x2C04 DUP5 DUP3 DUP6 ADD PUSH2 0x259F JUMP JUMPDEST PUSH1 0x20 DUP4 ADD MSTORE POP PUSH1 0x40 PUSH2 0x2C18 DUP5 DUP3 DUP6 ADD PUSH2 0x2B71 JUMP JUMPDEST PUSH1 0x40 DUP4 ADD MSTORE POP PUSH1 0x60 DUP3 ADD CALLDATALOAD PUSH8 0xFFFFFFFFFFFFFFFF DUP2 GT ISZERO PUSH2 0x2C3C JUMPI PUSH2 0x2C3B PUSH2 0x2B55 JUMP JUMPDEST JUMPDEST PUSH2 0x2C48 DUP5 DUP3 DUP6 ADD PUSH2 0x259F JUMP JUMPDEST PUSH1 0x60 DUP4 ADD MSTORE POP PUSH1 0x80 PUSH2 0x2C5C DUP5 DUP3 DUP6 ADD PUSH2 0x297A JUMP JUMPDEST PUSH1 0x80 DUP4 ADD MSTORE POP PUSH1 0xA0 DUP3 ADD CALLDATALOAD PUSH8 0xFFFFFFFFFFFFFFFF DUP2 GT ISZERO PUSH2 0x2C80 JUMPI PUSH2 0x2C7F PUSH2 0x2B55 JUMP JUMPDEST JUMPDEST PUSH2 0x2C8C DUP5 DUP3 DUP6 ADD PUSH2 0x259F JUMP JUMPDEST PUSH1 0xA0 DUP4 ADD MSTORE POP PUSH1 0xC0 DUP3 ADD CALLDATALOAD PUSH8 0xFFFFFFFFFFFFFFFF DUP2 GT ISZERO PUSH2 0x2CB0 JUMPI PUSH2 0x2CAF PUSH2 0x2B55 JUMP JUMPDEST JUMPDEST PUSH2 0x2CBC DUP5 DUP3 DUP6 ADD PUSH2 0x259F JUMP JUMPDEST PUSH1 0xC0 DUP4 ADD MSTORE POP PUSH1 0xE0 DUP3 ADD CALLDATALOAD PUSH8 0xFFFFFFFFFFFFFFFF DUP2 GT ISZERO PUSH2 0x2CE0 JUMPI PUSH2 0x2CDF PUSH2 0x2B55 JUMP JUMPDEST JUMPDEST PUSH2 0x2CEC DUP5 DUP3 DUP6 ADD PUSH2 0x259F JUMP JUMPDEST PUSH1 0xE0 DUP4 ADD MSTORE POP PUSH2 0x100 DUP3 ADD CALLDATALOAD PUSH8 0xFFFFFFFFFFFFFFFF DUP2 GT ISZERO PUSH2 0x2D11 JUMPI PUSH2 0x2D10 PUSH2 0x2B55 JUMP JUMPDEST JUMPDEST PUSH2 0x2D1D DUP5 DUP3 DUP6 ADD PUSH2 0x259F JUMP JUMPDEST PUSH2 0x100 DUP4 ADD MSTORE POP SWAP3 SWAP2 POP POP JUMP JUMPDEST PUSH1 0x0 DUP1 PUSH1 0x40 DUP4 DUP6 SUB SLT ISZERO PUSH2 0x2D41 JUMPI PUSH2 0x2D40 PUSH2 0x247D JUMP JUMPDEST JUMPDEST PUSH1 0x0 DUP4 ADD CALLDATALOAD PUSH8 0xFFFFFFFFFFFFFFFF DUP2 GT ISZERO PUSH2 0x2D5F JUMPI PUSH2 0x2D5E PUSH2 0x2482 JUMP JUMPDEST JUMPDEST PUSH2 0x2D6B DUP6 DUP3 DUP7 ADD PUSH2 0x2B86 JUMP JUMPDEST SWAP3 POP POP PUSH1 0x20 DUP4 ADD CALLDATALOAD PUSH8 0xFFFFFFFFFFFFFFFF DUP2 GT ISZERO PUSH2 0x2D8C JUMPI PUSH2 0x2D8B PUSH2 0x2482 JUMP JUMPDEST JUMPDEST PUSH2 0x2D98 DUP6 DUP3 DUP7 ADD PUSH2 0x2B86 JUMP JUMPDEST SWAP2 POP POP SWAP3 POP SWAP3 SWAP1 POP JUMP JUMPDEST PUSH1 0x0 PUSH1 0x20 DUP3 DUP5 SUB SLT ISZERO PUSH2 0x2DB8 JUMPI PUSH2 0x2DB7 PUSH2 0x247D JUMP JUMPDEST JUMPDEST PUSH1 0x0 DUP3 ADD CALLDATALOAD PUSH8 0xFFFFFFFFFFFFFFFF DUP2 GT ISZERO PUSH2 0x2DD6 JUMPI PUSH2 0x2DD5 PUSH2 0x2482 JUMP JUMPDEST JUMPDEST PUSH2 0x2DE2 DUP5 DUP3 DUP6 ADD PUSH2 0x2B86 JUMP JUMPDEST SWAP2 POP POP SWAP3 SWAP2 POP POP JUMP JUMPDEST PUSH1 0x0 PUSH1 0x20 DUP3 DUP5 SUB SLT ISZERO PUSH2 0x2E01 JUMPI PUSH2 0x2E00 PUSH2 0x247D JUMP JUMPDEST JUMPDEST PUSH1 0x0 PUSH2 0x2E0F DUP5 DUP3 DUP6 ADD PUSH2 0x297A JUMP JUMPDEST SWAP2 POP POP SWAP3 SWAP2 POP POP JUMP JUMPDEST PUSH1 0x0 DUP2 MLOAD SWAP1 POP SWAP2 SWAP1 POP JUMP JUMPDEST PUSH1 0x0 DUP3 DUP3 MSTORE PUSH1 0x20 DUP3 ADD SWAP1 POP SWAP3 SWAP2 POP POP JUMP JUMPDEST PUSH1 0x0 DUP2 SWAP1 POP PUSH1 0x20 DUP3 ADD SWAP1 POP SWAP2 SWAP1 POP JUMP JUMPDEST PUSH1 0x0 PUSH2 0x2E50 DUP4 DUP4 PUSH2 0x27FB JUMP JUMPDEST SWAP1 POP SWAP3 SWAP2 POP POP JUMP JUMPDEST PUSH1 0x0 PUSH1 0x20 DUP3 ADD SWAP1 POP SWAP2 SWAP1 POP JUMP JUMPDEST PUSH1 0x0 PUSH2 0x2E70 DUP3 PUSH2 0x2E18 JUMP JUMPDEST PUSH2 0x2E7A DUP2 DUP6 PUSH2 0x2E23 JUMP JUMPDEST SWAP4 POP DUP4 PUSH1 0x20 DUP3 MUL DUP6 ADD PUSH2 0x2E8C DUP6 PUSH2 0x2E34 JUMP JUMPDEST DUP1 PUSH1 0x0 JUMPDEST DUP6 DUP2 LT ISZERO PUSH2 0x2EC8 JUMPI DUP5 DUP5 SUB DUP10 MSTORE DUP2 MLOAD PUSH2 0x2EA9 DUP6 DUP3 PUSH2 0x2E44 JUMP JUMPDEST SWAP5 POP PUSH2 0x2EB4 DUP4 PUSH2 0x2E58 JUMP JUMPDEST SWAP3 POP PUSH1 0x20 DUP11 ADD SWAP10 POP POP PUSH1 0x1 DUP2 ADD SWAP1 POP PUSH2 0x2E90 JUMP JUMPDEST POP DUP3 SWAP8 POP DUP8 SWAP6 POP POP POP POP POP POP SWAP3 SWAP2 POP POP JUMP JUMPDEST PUSH1 0x0 PUSH1 0x60 DUP4 ADD PUSH1 0x0 DUP4 ADD MLOAD PUSH2 0x2EF2 PUSH1 0x0 DUP7 ADD DUP3 PUSH2 0x2622 JUMP JUMPDEST POP PUSH1 0x20 DUP4 ADD MLOAD DUP5 DUP3 SUB PUSH1 0x20 DUP7 ADD MSTORE PUSH2 0x2F0A DUP3 DUP3 PUSH2 0x2E65 JUMP JUMPDEST SWAP2 POP POP PUSH1 0x40 DUP4 ADD MLOAD DUP5 DUP3 SUB PUSH1 0x40 DUP7 ADD MSTORE PUSH2 0x2F24 DUP3 DUP3 PUSH2 0x2677 JUMP JUMPDEST SWAP2 POP POP DUP1 SWAP2 POP POP SWAP3 SWAP2 POP POP JUMP JUMPDEST PUSH1 0x0 PUSH1 0x20 DUP3 ADD SWAP1 POP DUP2 DUP2 SUB PUSH1 0x0 DUP4 ADD MSTORE PUSH2 0x2F4B DUP2 DUP5 PUSH2 0x2EDA JUMP JUMPDEST SWAP1 POP SWAP3 SWAP2 POP POP JUMP JUMPDEST PUSH1 0x0 DUP2 SWAP1 POP SWAP3 SWAP2 POP POP JUMP JUMPDEST PUSH1 0x0 PUSH2 0x2F69 DUP3 PUSH2 0x2631 JUMP JUMPDEST PUSH2 0x2F73 DUP2 DUP6 PUSH2 0x2F53 JUMP JUMPDEST SWAP4 POP PUSH2 0x2F83 DUP2 DUP6 PUSH1 0x20 DUP7 ADD PUSH2 0x264D JUMP JUMPDEST DUP1 DUP5 ADD SWAP2 POP POP SWAP3 SWAP2 POP POP JUMP JUMPDEST PUSH1 0x0 PUSH2 0x2F9B DUP3 DUP5 PUSH2 0x2F5E JUMP JUMPDEST SWAP2 POP DUP2 SWAP1 POP SWAP3 SWAP2 POP POP JUMP JUMPDEST PUSH32 0x4E487B7100000000000000000000000000000000000000000000000000000000 PUSH1 0x0 MSTORE PUSH1 0x22 PUSH1 0x4 MSTORE PUSH1 0x24 PUSH1 0x0 REVERT JUMPDEST PUSH1 0x0 PUSH1 0x2 DUP3 DIV SWAP1 POP PUSH1 0x1 DUP3 AND DUP1 PUSH2 0x2FED JUMPI PUSH1 0x7F DUP3 AND SWAP2 POP JUMPDEST PUSH1 0x20 DUP3 LT DUP2 SUB PUSH2 0x3000 JUMPI PUSH2 0x2FFF PUSH2 0x2FA6 JUMP JUMPDEST JUMPDEST POP SWAP2 SWAP1 POP JUMP JUMPDEST PUSH1 0x0 DUP2 SWAP1 POP DUP2 PUSH1 0x0 MSTORE PUSH1 0x20 PUSH1 0x0 KECCAK256 SWAP1 POP SWAP2 SWAP1 POP JUMP JUMPDEST PUSH1 0x0 DUP2 SLOAD PUSH2 0x3028 DUP2 PUSH2 0x2FD5 JUMP JUMPDEST PUSH2 0x3032 DUP2 DUP7 PUSH2 0x2F53 JUMP JUMPDEST SWAP5 POP PUSH1 0x1 DUP3 AND PUSH1 0x0 DUP2 EQ PUSH2 0x304D JUMPI PUSH1 0x1 DUP2 EQ PUSH2 0x3062 JUMPI PUSH2 0x3095 JUMP JUMPDEST PUSH1 0xFF NOT DUP4 AND DUP7 MSTORE DUP2 ISZERO ISZERO DUP3 MUL DUP7 ADD SWAP4 POP PUSH2 0x3095 JUMP JUMPDEST PUSH2 0x306B DUP6 PUSH2 0x3006 JUMP JUMPDEST PUSH1 0x0 JUMPDEST DUP4 DUP2 LT ISZERO PUSH2 0x308D JUMPI DUP2 SLOAD DUP2 DUP10 ADD MSTORE PUSH1 0x1 DUP3 ADD SWAP2 POP PUSH1 0x20 DUP2 ADD SWAP1 POP PUSH2 0x306E JUMP JUMPDEST DUP4 DUP9 ADD SWAP6 POP POP POP JUMPDEST POP POP POP SWAP3 SWAP2 POP POP JUMP JUMPDEST PUSH1 0x0 PUSH2 0x30AA DUP3 DUP5 PUSH2 0x301B JUMP JUMPDEST SWAP2 POP DUP2 SWAP1 POP SWAP3 SWAP2 POP POP JUMP JUMPDEST POP JUMP JUMPDEST PUSH1 0x0 PUSH2 0x30C5 PUSH1 0x0 DUP4 PUSH2 0x2F53 JUMP JUMPDEST SWAP2 POP PUSH2 0x30D0 DUP3 PUSH2 0x30B5 JUMP JUMPDEST PUSH1 0x0 DUP3 ADD SWAP1 POP SWAP2 SWAP1 POP JUMP JUMPDEST PUSH1 0x0 PUSH2 0x30E6 DUP3 PUSH2 0x30B8 JUMP JUMPDEST SWAP2 POP DUP2 SWAP1 POP SWAP2 SWAP1 POP JUMP JUMPDEST PUSH1 0x0 PUSH1 0x20 PUSH1 0x1F DUP4 ADD DIV SWAP1 POP SWAP2 SWAP1 POP JUMP JUMPDEST PUSH1 0x0 DUP3 DUP3 SHL SWAP1 POP SWAP3 SWAP2 POP POP JUMP JUMPDEST PUSH1 0x0 PUSH1 0x8 DUP4 MUL PUSH2 0x313D PUSH32 0xFFFFFFFFFFFFFFFFFFFFFFFFFFFFFFFFFFFFFFFFFFFFFFFFFFFFFFFFFFFFFFFF DUP3 PUSH2 0x3100 JUMP JUMPDEST PUSH2 0x3147 DUP7 DUP4 PUSH2 0x3100 JUMP JUMPDEST SWAP6 POP DUP1 NOT DUP5 AND SWAP4 POP DUP1 DUP7 AND DUP5 OR SWAP3 POP POP POP SWAP4 SWAP3 POP POP POP JUMP JUMPDEST PUSH1 0x0 DUP2 SWAP1 POP SWAP2 SWAP1 POP JUMP JUMPDEST PUSH1 0x0 DUP2 SWAP1 POP SWAP2 SWAP1 POP JUMP JUMPDEST PUSH1 0x0 PUSH2 0x318E PUSH2 0x3189 PUSH2 0x3184 DUP5 PUSH2 0x315F JUMP JUMPDEST PUSH2 0x3169 JUMP JUMPDEST PUSH2 0x315F JUMP JUMPDEST SWAP1 POP SWAP2 SWAP1 POP JUMP JUMPDEST PUSH1 0x0 DUP2 SWAP1 POP SWAP2 SWAP1 POP JUMP JUMPDEST PUSH2 0x31A8 DUP4 PUSH2 0x3173 JUMP JUMPDEST PUSH2 0x31BC PUSH2 0x31B4 DUP3 PUSH2 0x3195 JUMP JUMPDEST DUP5 DUP5 SLOAD PUSH2 0x310D JUMP JUMPDEST DUP3 SSTORE POP POP POP POP JUMP JUMPDEST PUSH1 0x0 SWAP1 JUMP JUMPDEST PUSH2 0x31D1 PUSH2 0x31C4 JUMP JUMPDEST PUSH2 0x31DC DUP2 DUP5 DUP5 PUSH2 0x319F JUMP JUMPDEST POP POP POP JUMP JUMPDEST JUMPDEST DUP2 DUP2 LT ISZERO PUSH2 0x3200 JUMPI PUSH2 0x31F5 PUSH1 0x0 DUP3 PUSH2 0x31C9 JUMP JUMPDEST PUSH1 0x1 DUP2 ADD SWAP1 POP PUSH2 0x31E2 JUMP JUMPDEST POP POP JUMP JUMPDEST PUSH1 0x1F DUP3 GT ISZERO PUSH2 0x3245 JUMPI PUSH2 0x3216 DUP2 PUSH2 0x3006 JUMP JUMPDEST PUSH2 0x321F DUP5 PUSH2 0x30F0 JUMP JUMPDEST DUP2 ADD PUSH1 0x20 DUP6 LT ISZERO PUSH2 0x322E JUMPI DUP2 SWAP1 POP JUMPDEST PUSH2 0x3242 PUSH2 0x323A DUP6 PUSH2 0x30F0 JUMP JUMPDEST DUP4 ADD DUP3 PUSH2 0x31E1 JUMP JUMPDEST POP POP JUMPDEST POP POP POP JUMP JUMPDEST PUSH1 0x0 DUP3 DUP3 SHR SWAP1 POP SWAP3 SWAP2 POP POP JUMP JUMPDEST PUSH1 0x0 PUSH2 0x3268 PUSH1 0x0 NOT DUP5 PUSH1 0x8 MUL PUSH2 0x324A JUMP JUMPDEST NOT DUP1 DUP4 AND SWAP2 POP POP SWAP3 SWAP2 POP POP JUMP JUMPDEST PUSH1 0x0 PUSH2 0x3281 DUP4 DUP4 PUSH2 0x3257 JUMP JUMPDEST SWAP2 POP DUP3 PUSH1 0x2 MUL DUP3 OR SWAP1 POP SWAP3 SWAP2 POP POP JUMP JUMPDEST PUSH2 0x329A DUP3 PUSH2 0x2631 JUMP JUMPDEST PUSH8 0xFFFFFFFFFFFFFFFF DUP2 GT ISZERO PUSH2 0x32B3 JUMPI PUSH2 0x32B2 PUSH2 0x24A2 JUMP JUMPDEST JUMPDEST PUSH2 0x32BD DUP3 SLOAD PUSH2 0x2FD5 JUMP JUMPDEST PUSH2 0x32C8 DUP3 DUP3 DUP6 PUSH2 0x3204 JUMP JUMPDEST PUSH1 0x0 PUSH1 0x20 SWAP1 POP PUSH1 0x1F DUP4 GT PUSH1 0x1 DUP2 EQ PUSH2 0x32FB JUMPI PUSH1 0x0 DUP5 ISZERO PUSH2 0x32E9 JUMPI DUP3 DUP8 ADD MLOAD SWAP1 POP JUMPDEST PUSH2 0x32F3 DUP6 DUP3 PUSH2 0x3275 JUMP JUMPDEST DUP7 SSTORE POP PUSH2 0x335B JUMP JUMPDEST PUSH1 0x1F NOT DUP5 AND PUSH2 0x3309 DUP7 PUSH2 0x3006 JUMP JUMPDEST PUSH1 0x0 JUMPDEST DUP3 DUP2 LT ISZERO PUSH2 0x3331 JUMPI DUP5 DUP10 ADD MLOAD DUP3 SSTORE PUSH1 0x1 DUP3 ADD SWAP2 POP PUSH1 0x20 DUP6 ADD SWAP5 POP PUSH1 0x20 DUP2 ADD SWAP1 POP PUSH2 0x330C JUMP JUMPDEST DUP7 DUP4 LT ISZERO PUSH2 0x334E JUMPI DUP5 DUP10 ADD MLOAD PUSH2 0x334A PUSH1 0x1F DUP10 AND DUP3 PUSH2 0x3257 JUMP JUMPDEST DUP4 SSTORE POP JUMPDEST PUSH1 0x1 PUSH1 0x2 DUP9 MUL ADD DUP9 SSTORE POP POP POP JUMPDEST POP POP POP POP POP POP JUMP JUMPDEST PUSH32 0x4E487B7100000000000000000000000000000000000000000000000000000000 PUSH1 0x0 MSTORE PUSH1 0x32 PUSH1 0x4 MSTORE PUSH1 0x24 PUSH1 0x0 REVERT JUMPDEST PUSH32 0x6163746976650000000000000000000000000000000000000000000000000000 PUSH1 0x0 DUP3 ADD MSTORE POP JUMP JUMPDEST PUSH1 0x0 PUSH2 0x33C8 PUSH1 0x6 DUP4 PUSH2 0x2F53 JUMP JUMPDEST SWAP2 POP PUSH2 0x33D3 DUP3 PUSH2 0x3392 JUMP JUMPDEST PUSH1 0x6 DUP3 ADD SWAP1 POP SWAP2 SWAP1 POP JUMP JUMPDEST PUSH1 0x0 PUSH2 0x33E9 DUP3 PUSH2 0x33BB JUMP JUMPDEST SWAP2 POP DUP2 SWAP1 POP SWAP2 SWAP1 POP JUMP JUMPDEST PUSH32 0x4E487B7100000000000000000000000000000000000000000000000000000000 PUSH1 0x0 MSTORE PUSH1 0x11 PUSH1 0x4 MSTORE PUSH1 0x24 PUSH1 0x0 REVERT JUMPDEST PUSH1 0x0 PUSH2 0x342D DUP3 PUSH2 0x315F JUMP JUMPDEST SWAP2 POP PUSH32 0xFFFFFFFFFFFFFFFFFFFFFFFFFFFFFFFFFFFFFFFFFFFFFFFFFFFFFFFFFFFFFFFF DUP3 SUB PUSH2 0x345F JUMPI PUSH2 0x345E PUSH2 0x33F3 JUMP JUMPDEST JUMPDEST PUSH1 0x1 DUP3 ADD SWAP1 POP SWAP2 SWAP1 POP JUMP JUMPDEST PUSH1 0x0 PUSH2 0x3475 DUP3 PUSH2 0x27A1 JUMP JUMPDEST SWAP2 POP PUSH2 0x3480 DUP4 PUSH2 0x27A1 JUMP JUMPDEST SWAP3 POP DUP3 DUP3 ADD SWAP1 POP DUP3 DUP2 SLT ISZERO PUSH1 0x0 DUP4 SLT AND DUP4 DUP3 SLT PUSH1 0x0 DUP5 SLT ISZERO AND OR ISZERO PUSH2 0x34A8 JUMPI PUSH2 0x34A7 PUSH2 0x33F3 JUMP JUMPDEST JUMPDEST SWAP3 SWAP2 POP POP JUMP JUMPDEST PUSH32 0x3000000000000000000000000000000000000000000000000000000000000000 PUSH1 0x0 DUP3 ADD MSTORE POP JUMP JUMPDEST PUSH1 0x0 PUSH2 0x34E4 PUSH1 0x1 DUP4 PUSH2 0x2F53 JUMP JUMPDEST SWAP2 POP PUSH2 0x34EF DUP3 PUSH2 0x34AE JUMP JUMPDEST PUSH1 0x1 DUP3 ADD SWAP1 POP SWAP2 SWAP1 POP JUMP JUMPDEST PUSH1 0x0 PUSH2 0x3505 DUP3 PUSH2 0x34D7 JUMP JUMPDEST SWAP2 POP DUP2 SWAP1 POP SWAP2 SWAP1 POP JUMP JUMPDEST PUSH1 0x0 PUSH2 0x120 DUP4 ADD PUSH1 0x0 DUP4 ADD MLOAD DUP5 DUP3 SUB PUSH1 0x0 DUP7 ADD MSTORE PUSH2 0x352D DUP3 DUP3 PUSH2 0x2677 JUMP JUMPDEST SWAP2 POP POP PUSH1 0x20 DUP4 ADD MLOAD DUP5 DUP3 SUB PUSH1 0x20 DUP7 ADD MSTORE PUSH2 0x3547 DUP3 DUP3 PUSH2 0x2677 JUMP JUMPDEST SWAP2 POP POP PUSH1 0x40 DUP4 ADD MLOAD PUSH2 0x355C PUSH1 0x40 DUP7 ADD DUP3 PUSH2 0x27AB JUMP JUMPDEST POP PUSH1 0x60 DUP4 ADD MLOAD DUP5 DUP3 SUB PUSH1 0x60 DUP7 ADD MSTORE PUSH2 0x3574 DUP3 DUP3 PUSH2 0x2677 JUMP JUMPDEST SWAP2 POP POP PUSH1 0x80 DUP4 ADD MLOAD PUSH2 0x3589 PUSH1 0x80 DUP7 ADD DUP3 PUSH2 0x27EC JUMP JUMPDEST POP PUSH1 0xA0 DUP4 ADD MLOAD DUP5 DUP3 SUB PUSH1 0xA0 DUP7 ADD MSTORE PUSH2 0x35A1 DUP3 DUP3 PUSH2 0x2677 JUMP JUMPDEST SWAP2 POP POP PUSH1 0xC0 DUP4 ADD MLOAD DUP5 DUP3 SUB PUSH1 0xC0 DUP7 ADD MSTORE PUSH2 0x35BB DUP3 DUP3 PUSH2 0x2677 JUMP JUMPDEST SWAP2 POP POP PUSH1 0xE0 DUP4 ADD MLOAD DUP5 DUP3 SUB PUSH1 0xE0 DUP7 ADD MSTORE PUSH2 0x35D5 DUP3 DUP3 PUSH2 0x2677 JUMP JUMPDEST SWAP2 POP POP PUSH2 0x100 DUP4 ADD MLOAD DUP5 DUP3 SUB PUSH2 0x100 DUP7 ADD MSTORE PUSH2 0x35F1 DUP3 DUP3 PUSH2 0x2677 JUMP JUMPDEST SWAP2 POP POP DUP1 SWAP2 POP POP SWAP3 SWAP2 POP POP JUMP JUMPDEST PUSH1 0x0 PUSH1 0x20 DUP3 ADD SWAP1 POP DUP2 DUP2 SUB PUSH1 0x0 DUP4 ADD MSTORE PUSH2 0x3618 DUP2 DUP5 PUSH2 0x350F JUMP JUMPDEST SWAP1 POP SWAP3 SWAP2 POP POP JUMP JUMPDEST PUSH2 0x3629 DUP2 PUSH2 0x2616 JUMP JUMPDEST DUP2 EQ PUSH2 0x3634 JUMPI PUSH1 0x0 DUP1 REVERT JUMPDEST POP JUMP JUMPDEST PUSH1 0x0 DUP2 MLOAD SWAP1 POP PUSH2 0x3646 DUP2 PUSH2 0x3620 JUMP JUMPDEST SWAP3 SWAP2 POP POP JUMP JUMPDEST PUSH1 0x0 PUSH1 0x20 DUP3 DUP5 SUB SLT ISZERO PUSH2 0x3662 JUMPI PUSH2 0x3661 PUSH2 0x247D JUMP JUMPDEST JUMPDEST PUSH1 0x0 PUSH2 0x3670 DUP5 DUP3 DUP6 ADD PUSH2 0x3637 JUMP JUMPDEST SWAP2 POP POP SWAP3 SWAP2 POP POP JUMP INVALID SLOAD PUSH9 0x7265206973206E6F20 PUSH7 0x696C652C20696E KECCAK256 PUSH21 0x686520676976656E2073746174652C207468617420 PUSH9 0x617320746865206769 PUSH23 0x656E2049504653204349442E546865207472616E736163 PUSH21 0x696F6E2065786563757465722063616E206F6E6C79 KECCAK256 PUSH3 0x652074 PUSH9 0x652041636365737343 PUSH16 0x6E74726F6C2E736F6C20636F6E747261 PUSH4 0x742E4F6E PUSH13 0x79207468652041636365737343 PUSH16 0x6E74726F6C2E736F6C20636F6E747261 PUSH4 0x74206973 KECCAK256 PUSH2 0x626C PUSH6 0x20746F206578 PUSH6 0x637574652074 PUSH9 0x6973206D6574686F64 0x2E LOG2 PUSH5 0x6970667358 0x22 SLT KECCAK256 0xCA DUP3 0xD6 0x28 SELFBALANCE PUSH15 0x7235347DB5E0CE5EA10DE122784D0C 0xE5 0xB5 DIV SWAP14 SDIV PUSH3 0x8BC188 0x2F 0xE3 PUSH5 0x736F6C6343 STOP ADDMOD SGT STOP CALLER PUSH1 0x80 PUSH1 0x40 MSTORE CALLVALUE DUP1 ISZERO PUSH3 0x11 JUMPI PUSH1 0x0 DUP1 REVERT JUMPDEST POP PUSH1 0x40 MLOAD PUSH3 0x2031 CODESIZE SUB DUP1 PUSH3 0x2031 DUP4 CODECOPY DUP2 DUP2 ADD PUSH1 0x40 MSTORE DUP2 ADD SWAP1 PUSH3 0x37 SWAP2 SWAP1 PUSH3 0xE9 JUMP JUMPDEST DUP1 PUSH1 0x3 PUSH1 0x0 PUSH2 0x100 EXP DUP2 SLOAD DUP2 PUSH20 0xFFFFFFFFFFFFFFFFFFFFFFFFFFFFFFFFFFFFFFFF MUL NOT AND SWAP1 DUP4 PUSH20 0xFFFFFFFFFFFFFFFFFFFFFFFFFFFFFFFFFFFFFFFF AND MUL OR SWAP1 SSTORE POP POP PUSH3 0x11B JUMP JUMPDEST PUSH1 0x0 DUP1 REVERT JUMPDEST PUSH1 0x0 PUSH20 0xFFFFFFFFFFFFFFFFFFFFFFFFFFFFFFFFFFFFFFFF DUP3 AND SWAP1 POP SWAP2 SWAP1 POP JUMP JUMPDEST PUSH1 0x0 PUSH3 0xB1 DUP3 PUSH3 0x84 JUMP JUMPDEST SWAP1 POP SWAP2 SWAP1 POP JUMP JUMPDEST PUSH3 0xC3 DUP2 PUSH3 0xA4 JUMP JUMPDEST DUP2 EQ PUSH3 0xCF JUMPI PUSH1 0x0 DUP1 REVERT JUMPDEST POP JUMP JUMPDEST PUSH1 0x0 DUP2 MLOAD SWAP1 POP PUSH3 0xE3 DUP2 PUSH3 0xB8 JUMP JUMPDEST SWAP3 SWAP2 POP POP JUMP JUMPDEST PUSH1 0x0 PUSH1 0x20 DUP3 DUP5 SUB SLT ISZERO PUSH3 0x102 JUMPI PUSH3 0x101 PUSH3 0x7F JUMP JUMPDEST JUMPDEST PUSH1 0x0 PUSH3 0x112 DUP5 DUP3 DUP6 ADD PUSH3 0xD2 JUMP JUMPDEST SWAP2 POP POP SWAP3 SWAP2 POP POP JUMP JUMPDEST PUSH2 0x1F06 DUP1 PUSH3 0x12B PUSH1 0x0 CODECOPY PUSH1 0x0 RETURN INVALID PUSH1 0x80 PUSH1 0x40 MSTORE CALLVALUE DUP1 ISZERO PUSH2 0x10 JUMPI PUSH1 0x0 DUP1 REVERT JUMPDEST POP PUSH1 0x4 CALLDATASIZE LT PUSH2 0x88 JUMPI PUSH1 0x0 CALLDATALOAD PUSH1 0xE0 SHR DUP1 PUSH4 0xA240E426 GT PUSH2 0x5B JUMPI DUP1 PUSH4 0xA240E426 EQ PUSH2 0x139 JUMPI DUP1 PUSH4 0xB0C22A56 EQ PUSH2 0x169 JUMPI DUP1 PUSH4 0xEEB9AB18 EQ PUSH2 0x199 JUMPI DUP1 PUSH4 0xF14AB0E0 EQ PUSH2 0x1C9 JUMPI PUSH2 0x88 JUMP JUMPDEST DUP1 PUSH4 0x67156CF1 EQ PUSH2 0x8D JUMPI DUP1 PUSH4 0x6F77926B EQ PUSH2 0xBD JUMPI DUP1 PUSH4 0x75E9493F EQ PUSH2 0xED JUMPI DUP1 PUSH4 0x857CDBB8 EQ PUSH2 0x109 JUMPI JUMPDEST PUSH1 0x0 DUP1 REVERT JUMPDEST PUSH2 0xA7 PUSH1 0x4 DUP1 CALLDATASIZE SUB DUP2 ADD SWAP1 PUSH2 0xA2 SWAP2 SWAP1 PUSH2 0x1219 JUMP JUMPDEST PUSH2 0x1F9 JUMP JUMPDEST PUSH1 0x40 MLOAD PUSH2 0xB4 SWAP2 SWAP1 PUSH2 0x1348 JUMP JUMPDEST PUSH1 0x40 MLOAD DUP1 SWAP2 SUB SWAP1 RETURN JUMPDEST PUSH2 0xD7 PUSH1 0x4 DUP1 CALLDATASIZE SUB DUP2 ADD SWAP1 PUSH2 0xD2 SWAP2 SWAP1 PUSH2 0x1219 JUMP JUMPDEST PUSH2 0x3E0 JUMP JUMPDEST PUSH1 0x40 MLOAD PUSH2 0xE4 SWAP2 SWAP1 PUSH2 0x1441 JUMP JUMPDEST PUSH1 0x40 MLOAD DUP1 SWAP2 SUB SWAP1 RETURN JUMPDEST PUSH2 0x107 PUSH1 0x4 DUP1 CALLDATASIZE SUB DUP2 ADD SWAP1 PUSH2 0x102 SWAP2 SWAP1 PUSH2 0x166E JUMP JUMPDEST PUSH2 0x7DB JUMP JUMPDEST STOP JUMPDEST PUSH2 0x123 PUSH1 0x4 DUP1 CALLDATASIZE SUB DUP2 ADD SWAP1 PUSH2 0x11E SWAP2 SWAP1 PUSH2 0x1219 JUMP JUMPDEST PUSH2 0xB0A JUMP JUMPDEST PUSH1 0x40 MLOAD PUSH2 0x130 SWAP2 SWAP1 PUSH2 0x1348 JUMP JUMPDEST PUSH1 0x40 MLOAD DUP1 SWAP2 SUB SWAP1 RETURN JUMPDEST PUSH2 0x153 PUSH1 0x4 DUP1 CALLDATASIZE SUB DUP2 ADD SWAP1 PUSH2 0x14E SWAP2 SWAP1 PUSH2 0x1219 JUMP JUMPDEST PUSH2 0xCF1 JUMP JUMPDEST PUSH1 0x40 MLOAD PUSH2 0x160 SWAP2 SWAP1 PUSH2 0x16C6 JUMP JUMPDEST PUSH1 0x40 MLOAD DUP1 SWAP2 SUB SWAP1 RETURN JUMPDEST PUSH2 0x183 PUSH1 0x4 DUP1 CALLDATASIZE SUB DUP2 ADD SWAP1 PUSH2 0x17E SWAP2 SWAP1 PUSH2 0x16E1 JUMP JUMPDEST PUSH2 0xD9A JUMP JUMPDEST PUSH1 0x40 MLOAD PUSH2 0x190 SWAP2 SWAP1 PUSH2 0x16C6 JUMP JUMPDEST PUSH1 0x40 MLOAD DUP1 SWAP2 SUB SWAP1 RETURN JUMPDEST PUSH2 0x1B3 PUSH1 0x4 DUP1 CALLDATASIZE SUB DUP2 ADD SWAP1 PUSH2 0x1AE SWAP2 SWAP1 PUSH2 0x16E1 JUMP JUMPDEST PUSH2 0xDCF JUMP JUMPDEST PUSH1 0x40 MLOAD PUSH2 0x1C0 SWAP2 SWAP1 PUSH2 0x177A JUMP JUMPDEST PUSH1 0x40 MLOAD DUP1 SWAP2 SUB SWAP1 RETURN JUMPDEST PUSH2 0x1E3 PUSH1 0x4 DUP1 CALLDATASIZE SUB DUP2 ADD SWAP1 PUSH2 0x1DE SWAP2 SWAP1 PUSH2 0x179C JUMP JUMPDEST PUSH2 0xEED JUMP JUMPDEST PUSH1 0x40 MLOAD PUSH2 0x1F0 SWAP2 SWAP1 PUSH2 0x16C6 JUMP JUMPDEST PUSH1 0x40 MLOAD DUP1 SWAP2 SUB SWAP1 RETURN JUMPDEST PUSH2 0x201 PUSH2 0x10E4 JUMP JUMPDEST PUSH1 0x0 PUSH20 0xFFFFFFFFFFFFFFFFFFFFFFFFFFFFFFFFFFFFFFFF AND PUSH1 0x0 DUP1 DUP5 PUSH20 0xFFFFFFFFFFFFFFFFFFFFFFFFFFFFFFFFFFFFFFFF AND PUSH20 0xFFFFFFFFFFFFFFFFFFFFFFFFFFFFFFFFFFFFFFFF AND DUP2 MSTORE PUSH1 0x20 ADD SWAP1 DUP2 MSTORE PUSH1 0x20 ADD PUSH1 0x0 KECCAK256 PUSH1 0x0 ADD PUSH1 0x0 SWAP1 SLOAD SWAP1 PUSH2 0x100 EXP SWAP1 DIV PUSH20 0xFFFFFFFFFFFFFFFFFFFFFFFFFFFFFFFFFFFFFFFF AND PUSH20 0xFFFFFFFFFFFFFFFFFFFFFFFFFFFFFFFFFFFFFFFF AND EQ PUSH2 0x393 JUMPI PUSH1 0x40 MLOAD DUP1 PUSH1 0x60 ADD PUSH1 0x40 MSTORE DUP1 PUSH1 0x1 ISZERO ISZERO DUP2 MSTORE PUSH1 0x20 ADD PUSH1 0x0 DUP1 DUP6 PUSH20 0xFFFFFFFFFFFFFFFFFFFFFFFFFFFFFFFFFFFFFFFF AND PUSH20 0xFFFFFFFFFFFFFFFFFFFFFFFFFFFFFFFFFFFFFFFF AND DUP2 MSTORE PUSH1 0x20 ADD SWAP1 DUP2 MSTORE PUSH1 0x20 ADD PUSH1 0x0 KECCAK256 PUSH1 0x1 ADD DUP1 SLOAD PUSH2 0x2F6 SWAP1 PUSH2 0x1827 JUMP JUMPDEST DUP1 PUSH1 0x1F ADD PUSH1 0x20 DUP1 SWAP2 DIV MUL PUSH1 0x20 ADD PUSH1 0x40 MLOAD SWAP1 DUP2 ADD PUSH1 0x40 MSTORE DUP1 SWAP3 SWAP2 SWAP1 DUP2 DUP2 MSTORE PUSH1 0x20 ADD DUP3 DUP1 SLOAD PUSH2 0x322 SWAP1 PUSH2 0x1827 JUMP JUMPDEST DUP1 ISZERO PUSH2 0x36F JUMPI DUP1 PUSH1 0x1F LT PUSH2 0x344 JUMPI PUSH2 0x100 DUP1 DUP4 SLOAD DIV MUL DUP4 MSTORE SWAP2 PUSH1 0x20 ADD SWAP2 PUSH2 0x36F JUMP JUMPDEST DUP3 ADD SWAP2 SWAP1 PUSH1 0x0 MSTORE PUSH1 0x20 PUSH1 0x0 KECCAK256 SWAP1 JUMPDEST DUP2 SLOAD DUP2 MSTORE SWAP1 PUSH1 0x1 ADD SWAP1 PUSH1 0x20 ADD DUP1 DUP4 GT PUSH2 0x352 JUMPI DUP3 SWAP1 SUB PUSH1 0x1F AND DUP3 ADD SWAP2 JUMPDEST POP POP POP POP POP DUP2 MSTORE PUSH1 0x20 ADD PUSH1 0x40 MLOAD DUP1 PUSH1 0x20 ADD PUSH1 0x40 MSTORE DUP1 PUSH1 0x0 DUP2 MSTORE POP DUP2 MSTORE POP SWAP1 POP PUSH2 0x3DB JUMP JUMPDEST PUSH1 0x40 MLOAD DUP1 PUSH1 0x60 ADD PUSH1 0x40 MSTORE DUP1 PUSH1 0x0 ISZERO ISZERO DUP2 MSTORE PUSH1 0x20 ADD PUSH1 0x40 MLOAD DUP1 PUSH1 0x20 ADD PUSH1 0x40 MSTORE DUP1 PUSH1 0x0 DUP2 MSTORE POP DUP2 MSTORE PUSH1 0x20 ADD PUSH1 0x40 MLOAD DUP1 PUSH1 0x60 ADD PUSH1 0x40 MSTORE DUP1 PUSH1 0x28 DUP2 MSTORE PUSH1 0x20 ADD PUSH2 0x1E80 PUSH1 0x28 SWAP2 CODECOPY DUP2 MSTORE POP SWAP1 POP JUMPDEST SWAP2 SWAP1 POP JUMP JUMPDEST PUSH2 0x3E8 PUSH2 0x1107 JUMP JUMPDEST CALLER PUSH20 0xFFFFFFFFFFFFFFFFFFFFFFFFFFFFFFFFFFFFFFFF AND DUP3 PUSH20 0xFFFFFFFFFFFFFFFFFFFFFFFFFFFFFFFFFFFFFFFF AND SUB PUSH2 0x739 JUMPI PUSH1 0x0 PUSH20 0xFFFFFFFFFFFFFFFFFFFFFFFFFFFFFFFFFFFFFFFF AND PUSH1 0x0 DUP1 DUP5 PUSH20 0xFFFFFFFFFFFFFFFFFFFFFFFFFFFFFFFFFFFFFFFF AND PUSH20 0xFFFFFFFFFFFFFFFFFFFFFFFFFFFFFFFFFFFFFFFF AND DUP2 MSTORE PUSH1 0x20 ADD SWAP1 DUP2 MSTORE PUSH1 0x20 ADD PUSH1 0x0 KECCAK256 PUSH1 0x0 ADD PUSH1 0x0 SWAP1 SLOAD SWAP1 PUSH2 0x100 EXP SWAP1 DIV PUSH20 0xFFFFFFFFFFFFFFFFFFFFFFFFFFFFFFFFFFFFFFFF AND PUSH20 0xFFFFFFFFFFFFFFFFFFFFFFFFFFFFFFFFFFFFFFFF AND EQ PUSH2 0x738 JUMPI PUSH1 0x40 MLOAD DUP1 PUSH1 0x60 ADD PUSH1 0x40 MSTORE DUP1 PUSH1 0x1 ISZERO ISZERO DUP2 MSTORE PUSH1 0x20 ADD PUSH1 0x0 DUP1 DUP6 PUSH20 0xFFFFFFFFFFFFFFFFFFFFFFFFFFFFFFFFFFFFFFFF AND PUSH20 0xFFFFFFFFFFFFFFFFFFFFFFFFFFFFFFFFFFFFFFFF AND DUP2 MSTORE PUSH1 0x20 ADD SWAP1 DUP2 MSTORE PUSH1 0x20 ADD PUSH1 0x0 KECCAK256 PUSH1 0x40 MLOAD DUP1 PUSH1 0x80 ADD PUSH1 0x40 MSTORE SWAP1 DUP2 PUSH1 0x0 DUP3 ADD PUSH1 0x0 SWAP1 SLOAD SWAP1 PUSH2 0x100 EXP SWAP1 DIV PUSH20 0xFFFFFFFFFFFFFFFFFFFFFFFFFFFFFFFFFFFFFFFF AND PUSH20 0xFFFFFFFFFFFFFFFFFFFFFFFFFFFFFFFFFFFFFFFF AND PUSH20 0xFFFFFFFFFFFFFFFFFFFFFFFFFFFFFFFFFFFFFFFF AND DUP2 MSTORE PUSH1 0x20 ADD PUSH1 0x1 DUP3 ADD DUP1 SLOAD PUSH2 0x573 SWAP1 PUSH2 0x1827 JUMP JUMPDEST DUP1 PUSH1 0x1F ADD PUSH1 0x20 DUP1 SWAP2 DIV MUL PUSH1 0x20 ADD PUSH1 0x40 MLOAD SWAP1 DUP2 ADD PUSH1 0x40 MSTORE DUP1 SWAP3 SWAP2 SWAP1 DUP2 DUP2 MSTORE PUSH1 0x20 ADD DUP3 DUP1 SLOAD PUSH2 0x59F SWAP1 PUSH2 0x1827 JUMP JUMPDEST DUP1 ISZERO PUSH2 0x5EC JUMPI DUP1 PUSH1 0x1F LT PUSH2 0x5C1 JUMPI PUSH2 0x100 DUP1 DUP4 SLOAD DIV MUL DUP4 MSTORE SWAP2 PUSH1 0x20 ADD SWAP2 PUSH2 0x5EC JUMP JUMPDEST DUP3 ADD SWAP2 SWAP1 PUSH1 0x0 MSTORE PUSH1 0x20 PUSH1 0x0 KECCAK256 SWAP1 JUMPDEST DUP2 SLOAD DUP2 MSTORE SWAP1 PUSH1 0x1 ADD SWAP1 PUSH1 0x20 ADD DUP1 DUP4 GT PUSH2 0x5CF JUMPI DUP3 SWAP1 SUB PUSH1 0x1F AND DUP3 ADD SWAP2 JUMPDEST POP POP POP POP POP DUP2 MSTORE PUSH1 0x20 ADD PUSH1 0x2 DUP3 ADD DUP1 SLOAD PUSH2 0x605 SWAP1 PUSH2 0x1827 JUMP JUMPDEST DUP1 PUSH1 0x1F ADD PUSH1 0x20 DUP1 SWAP2 DIV MUL PUSH1 0x20 ADD PUSH1 0x40 MLOAD SWAP1 DUP2 ADD PUSH1 0x40 MSTORE DUP1 SWAP3 SWAP2 SWAP1 DUP2 DUP2 MSTORE PUSH1 0x20 ADD DUP3 DUP1 SLOAD PUSH2 0x631 SWAP1 PUSH2 0x1827 JUMP JUMPDEST DUP1 ISZERO PUSH2 0x67E JUMPI DUP1 PUSH1 0x1F LT PUSH2 0x653 JUMPI PUSH2 0x100 DUP1 DUP4 SLOAD DIV MUL DUP4 MSTORE SWAP2 PUSH1 0x20 ADD SWAP2 PUSH2 0x67E JUMP JUMPDEST DUP3 ADD SWAP2 SWAP1 PUSH1 0x0 MSTORE PUSH1 0x20 PUSH1 0x0 KECCAK256 SWAP1 JUMPDEST DUP2 SLOAD DUP2 MSTORE SWAP1 PUSH1 0x1 ADD SWAP1 PUSH1 0x20 ADD DUP1 DUP4 GT PUSH2 0x661 JUMPI DUP3 SWAP1 SUB PUSH1 0x1F AND DUP3 ADD SWAP2 JUMPDEST POP POP POP POP POP DUP2 MSTORE PUSH1 0x20 ADD PUSH1 0x3 DUP3 ADD DUP1 SLOAD PUSH2 0x697 SWAP1 PUSH2 0x1827 JUMP JUMPDEST DUP1 PUSH1 0x1F ADD PUSH1 0x20 DUP1 SWAP2 DIV MUL PUSH1 0x20 ADD PUSH1 0x40 MLOAD SWAP1 DUP2 ADD PUSH1 0x40 MSTORE DUP1 SWAP3 SWAP2 SWAP1 DUP2 DUP2 MSTORE PUSH1 0x20 ADD DUP3 DUP1 SLOAD PUSH2 0x6C3 SWAP1 PUSH2 0x1827 JUMP JUMPDEST DUP1 ISZERO PUSH2 0x710 JUMPI DUP1 PUSH1 0x1F LT PUSH2 0x6E5 JUMPI PUSH2 0x100 DUP1 DUP4 SLOAD DIV MUL DUP4 MSTORE SWAP2 PUSH1 0x20 ADD SWAP2 PUSH2 0x710 JUMP JUMPDEST DUP3 ADD SWAP2 SWAP1 PUSH1 0x0 MSTORE PUSH1 0x20 PUSH1 0x0 KECCAK256 SWAP1 JUMPDEST DUP2 SLOAD DUP2 MSTORE SWAP1 PUSH1 0x1 ADD SWAP1 PUSH1 0x20 ADD DUP1 DUP4 GT PUSH2 0x6F3 JUMPI DUP3 SWAP1 SUB PUSH1 0x1F AND DUP3 ADD SWAP2 JUMPDEST POP POP POP POP POP DUP2 MSTORE POP POP DUP2 MSTORE PUSH1 0x20 ADD PUSH1 0x40 MLOAD DUP1 PUSH1 0x20 ADD PUSH1 0x40 MSTORE DUP1 PUSH1 0x0 DUP2 MSTORE POP DUP2 MSTORE POP SWAP1 POP PUSH2 0x7D6 JUMP JUMPDEST JUMPDEST PUSH1 0x40 MLOAD DUP1 PUSH1 0x60 ADD PUSH1 0x40 MSTORE DUP1 PUSH1 0x0 ISZERO ISZERO DUP2 MSTORE PUSH1 0x20 ADD PUSH1 0x40 MLOAD DUP1 PUSH1 0x80 ADD PUSH1 0x40 MSTORE DUP1 PUSH1 0x0 PUSH20 0xFFFFFFFFFFFFFFFFFFFFFFFFFFFFFFFFFFFFFFFF AND DUP2 MSTORE PUSH1 0x20 ADD PUSH1 0x40 MLOAD DUP1 PUSH1 0x20 ADD PUSH1 0x40 MSTORE DUP1 PUSH1 0x0 DUP2 MSTORE POP DUP2 MSTORE PUSH1 0x20 ADD PUSH1 0x40 MLOAD DUP1 PUSH1 0x20 ADD PUSH1 0x40 MSTORE DUP1 PUSH1 0x0 DUP2 MSTORE POP DUP2 MSTORE PUSH1 0x20 ADD PUSH1 0x40 MLOAD DUP1 PUSH1 0x20 ADD PUSH1 0x40 MSTORE DUP1 PUSH1 0x0 DUP2 MSTORE POP DUP2 MSTORE POP DUP2 MSTORE PUSH1 0x20 ADD PUSH1 0x40 MLOAD DUP1 PUSH1 0xA0 ADD PUSH1 0x40 MSTORE DUP1 PUSH1 0x79 DUP2 MSTORE PUSH1 0x20 ADD PUSH2 0x1DDF PUSH1 0x79 SWAP2 CODECOPY DUP2 MSTORE POP SWAP1 POP JUMPDEST SWAP2 SWAP1 POP JUMP JUMPDEST CALLER PUSH20 0xFFFFFFFFFFFFFFFFFFFFFFFFFFFFFFFFFFFFFFFF AND DUP2 PUSH1 0x0 ADD MLOAD PUSH20 0xFFFFFFFFFFFFFFFFFFFFFFFFFFFFFFFFFFFFFFFF AND SUB PUSH2 0xB07 JUMPI PUSH2 0x81B DUP2 PUSH2 0xFCA JUMP JUMPDEST ISZERO PUSH2 0xB06 JUMPI PUSH1 0x40 MLOAD DUP1 PUSH1 0x80 ADD PUSH1 0x40 MSTORE DUP1 DUP3 PUSH1 0x0 ADD MLOAD PUSH20 0xFFFFFFFFFFFFFFFFFFFFFFFFFFFFFFFFFFFFFFFF AND DUP2 MSTORE PUSH1 0x20 ADD PUSH1 0x3 PUSH1 0x0 SWAP1 SLOAD SWAP1 PUSH2 0x100 EXP SWAP1 DIV PUSH20 0xFFFFFFFFFFFFFFFFFFFFFFFFFFFFFFFFFFFFFFFF AND PUSH20 0xFFFFFFFFFFFFFFFFFFFFFFFFFFFFFFFFFFFFFFFF AND PUSH4 0x9416B423 DUP5 PUSH1 0x20 ADD MLOAD PUSH1 0x40 MLOAD DUP3 PUSH4 0xFFFFFFFF AND PUSH1 0xE0 SHL DUP2 MSTORE PUSH1 0x4 ADD PUSH2 0x8AA SWAP2 SWAP1 PUSH2 0x18A2 JUMP JUMPDEST PUSH1 0x0 PUSH1 0x40 MLOAD DUP1 DUP4 SUB DUP2 DUP7 GAS STATICCALL ISZERO DUP1 ISZERO PUSH2 0x8C7 JUMPI RETURNDATASIZE PUSH1 0x0 DUP1 RETURNDATACOPY RETURNDATASIZE PUSH1 0x0 REVERT JUMPDEST POP POP POP POP PUSH1 0x40 MLOAD RETURNDATASIZE PUSH1 0x0 DUP3 RETURNDATACOPY RETURNDATASIZE PUSH1 0x1F NOT PUSH1 0x1F DUP3 ADD AND DUP3 ADD DUP1 PUSH1 0x40 MSTORE POP DUP2 ADD SWAP1 PUSH2 0x8F0 SWAP2 SWAP1 PUSH2 0x1934 JUMP JUMPDEST DUP2 MSTORE PUSH1 0x20 ADD DUP3 PUSH1 0x40 ADD MLOAD DUP2 MSTORE PUSH1 0x20 ADD DUP3 PUSH1 0x60 ADD MLOAD DUP2 MSTORE POP PUSH1 0x0 DUP1 DUP4 PUSH1 0x0 ADD MLOAD PUSH20 0xFFFFFFFFFFFFFFFFFFFFFFFFFFFFFFFFFFFFFFFF AND PUSH20 0xFFFFFFFFFFFFFFFFFFFFFFFFFFFFFFFFFFFFFFFF AND DUP2 MSTORE PUSH1 0x20 ADD SWAP1 DUP2 MSTORE PUSH1 0x20 ADD PUSH1 0x0 KECCAK256 PUSH1 0x0 DUP3 ADD MLOAD DUP2 PUSH1 0x0 ADD PUSH1 0x0 PUSH2 0x100 EXP DUP2 SLOAD DUP2 PUSH20 0xFFFFFFFFFFFFFFFFFFFFFFFFFFFFFFFFFFFFFFFF MUL NOT AND SWAP1 DUP4 PUSH20 0xFFFFFFFFFFFFFFFFFFFFFFFFFFFFFFFFFFFFFFFF AND MUL OR SWAP1 SSTORE POP PUSH1 0x20 DUP3 ADD MLOAD DUP2 PUSH1 0x1 ADD SWAP1 DUP2 PUSH2 0x9A5 SWAP2 SWAP1 PUSH2 0x1B33 JUMP JUMPDEST POP PUSH1 0x40 DUP3 ADD MLOAD DUP2 PUSH1 0x2 ADD SWAP1 DUP2 PUSH2 0x9BB SWAP2 SWAP1 PUSH2 0x1B33 JUMP JUMPDEST POP PUSH1 0x60 DUP3 ADD MLOAD DUP2 PUSH1 0x3 ADD SWAP1 DUP2 PUSH2 0x9D1 SWAP2 SWAP1 PUSH2 0x1B33 JUMP JUMPDEST POP SWAP1 POP POP PUSH1 0x40 MLOAD DUP1 PUSH1 0x80 ADD PUSH1 0x40 MSTORE DUP1 DUP3 PUSH1 0x0 ADD MLOAD PUSH20 0xFFFFFFFFFFFFFFFFFFFFFFFFFFFFFFFFFFFFFFFF AND DUP2 MSTORE PUSH1 0x20 ADD DUP3 PUSH1 0x20 ADD MLOAD DUP2 MSTORE PUSH1 0x20 ADD DUP3 PUSH1 0x40 ADD MLOAD DUP2 MSTORE PUSH1 0x20 ADD DUP3 PUSH1 0x60 ADD MLOAD DUP2 MSTORE POP PUSH1 0x1 DUP3 PUSH1 0x20 ADD MLOAD PUSH1 0x40 MLOAD PUSH2 0xA30 SWAP2 SWAP1 PUSH2 0x1C41 JUMP JUMPDEST SWAP1 DUP2 MSTORE PUSH1 0x20 ADD PUSH1 0x40 MLOAD DUP1 SWAP2 SUB SWAP1 KECCAK256 PUSH1 0x0 DUP3 ADD MLOAD DUP2 PUSH1 0x0 ADD PUSH1 0x0 PUSH2 0x100 EXP DUP2 SLOAD DUP2 PUSH20 0xFFFFFFFFFFFFFFFFFFFFFFFFFFFFFFFFFFFFFFFF MUL NOT AND SWAP1 DUP4 PUSH20 0xFFFFFFFFFFFFFFFFFFFFFFFFFFFFFFFFFFFFFFFF AND MUL OR SWAP1 SSTORE POP PUSH1 0x20 DUP3 ADD MLOAD DUP2 PUSH1 0x1 ADD SWAP1 DUP2 PUSH2 0xA9A SWAP2 SWAP1 PUSH2 0x1B33 JUMP JUMPDEST POP PUSH1 0x40 DUP3 ADD MLOAD DUP2 PUSH1 0x2 ADD SWAP1 DUP2 PUSH2 0xAB0 SWAP2 SWAP1 PUSH2 0x1B33 JUMP JUMPDEST POP PUSH1 0x60 DUP3 ADD MLOAD DUP2 PUSH1 0x3 ADD SWAP1 DUP2 PUSH2 0xAC6 SWAP2 SWAP1 PUSH2 0x1B33 JUMP JUMPDEST POP SWAP1 POP POP PUSH1 0x1 PUSH1 0x2 DUP3 PUSH1 0x20 ADD MLOAD PUSH1 0x40 MLOAD PUSH2 0xAE0 SWAP2 SWAP1 PUSH2 0x1C41 JUMP JUMPDEST SWAP1 DUP2 MSTORE PUSH1 0x20 ADD PUSH1 0x40 MLOAD DUP1 SWAP2 SUB SWAP1 KECCAK256 PUSH1 0x0 PUSH2 0x100 EXP DUP2 SLOAD DUP2 PUSH1 0xFF MUL NOT AND SWAP1 DUP4 ISZERO ISZERO MUL OR SWAP1 SSTORE POP JUMPDEST JUMPDEST POP JUMP JUMPDEST PUSH2 0xB12 PUSH2 0x10E4 JUMP JUMPDEST PUSH1 0x0 PUSH20 0xFFFFFFFFFFFFFFFFFFFFFFFFFFFFFFFFFFFFFFFF AND PUSH1 0x0 DUP1 DUP5 PUSH20 0xFFFFFFFFFFFFFFFFFFFFFFFFFFFFFFFFFFFFFFFF AND PUSH20 0xFFFFFFFFFFFFFFFFFFFFFFFFFFFFFFFFFFFFFFFF AND DUP2 MSTORE PUSH1 0x20 ADD SWAP1 DUP2 MSTORE PUSH1 0x20 ADD PUSH1 0x0 KECCAK256 PUSH1 0x0 ADD PUSH1 0x0 SWAP1 SLOAD SWAP1 PUSH2 0x100 EXP SWAP1 DIV PUSH20 0xFFFFFFFFFFFFFFFFFFFFFFFFFFFFFFFFFFFFFFFF AND PUSH20 0xFFFFFFFFFFFFFFFFFFFFFFFFFFFFFFFFFFFFFFFF AND EQ PUSH2 0xCA4 JUMPI PUSH1 0x40 MLOAD DUP1 PUSH1 0x60 ADD PUSH1 0x40 MSTORE DUP1 PUSH1 0x1 ISZERO ISZERO DUP2 MSTORE PUSH1 0x20 ADD PUSH1 0x0 DUP1 DUP6 PUSH20 0xFFFFFFFFFFFFFFFFFFFFFFFFFFFFFFFFFFFFFFFF AND PUSH20 0xFFFFFFFFFFFFFFFFFFFFFFFFFFFFFFFFFFFFFFFF AND DUP2 MSTORE PUSH1 0x20 ADD SWAP1 DUP2 MSTORE PUSH1 0x20 ADD PUSH1 0x0 KECCAK256 PUSH1 0x3 ADD DUP1 SLOAD PUSH2 0xC07 SWAP1 PUSH2 0x1827 JUMP JUMPDEST DUP1 PUSH1 0x1F ADD PUSH1 0x20 DUP1 SWAP2 DIV MUL PUSH1 0x20 ADD PUSH1 0x40 MLOAD SWAP1 DUP2 ADD PUSH1 0x40 MSTORE DUP1 SWAP3 SWAP2 SWAP1 DUP2 DUP2 MSTORE PUSH1 0x20 ADD DUP3 DUP1 SLOAD PUSH2 0xC33 SWAP1 PUSH2 0x1827 JUMP JUMPDEST DUP1 ISZERO PUSH2 0xC80 JUMPI DUP1 PUSH1 0x1F LT PUSH2 0xC55 JUMPI PUSH2 0x100 DUP1 DUP4 SLOAD DIV MUL DUP4 MSTORE SWAP2 PUSH1 0x20 ADD SWAP2 PUSH2 0xC80 JUMP JUMPDEST DUP3 ADD SWAP2 SWAP1 PUSH1 0x0 MSTORE PUSH1 0x20 PUSH1 0x0 KECCAK256 SWAP1 JUMPDEST DUP2 SLOAD DUP2 MSTORE SWAP1 PUSH1 0x1 ADD SWAP1 PUSH1 0x20 ADD DUP1 DUP4 GT PUSH2 0xC63 JUMPI DUP3 SWAP1 SUB PUSH1 0x1F AND DUP3 ADD SWAP2 JUMPDEST POP POP POP POP POP DUP2 MSTORE PUSH1 0x20 ADD PUSH1 0x40 MLOAD DUP1 PUSH1 0x20 ADD PUSH1 0x40 MSTORE DUP1 PUSH1 0x0 DUP2 MSTORE POP DUP2 MSTORE POP SWAP1 POP PUSH2 0xCEC JUMP JUMPDEST PUSH1 0x40 MLOAD DUP1 PUSH1 0x60 ADD PUSH1 0x40 MSTORE DUP1 PUSH1 0x0 ISZERO ISZERO DUP2 MSTORE PUSH1 0x20 ADD PUSH1 0x40 MLOAD DUP1 PUSH1 0x20 ADD PUSH1 0x40 MSTORE DUP1 PUSH1 0x0 DUP2 MSTORE POP DUP2 MSTORE PUSH1 0x20 ADD PUSH1 0x40 MLOAD DUP1 PUSH1 0x60 ADD PUSH1 0x40 MSTORE DUP1 PUSH1 0x28 DUP2 MSTORE PUSH1 0x20 ADD PUSH2 0x1E58 PUSH1 0x28 SWAP2 CODECOPY DUP2 MSTORE POP SWAP1 POP JUMPDEST SWAP2 SWAP1 POP JUMP JUMPDEST PUSH1 0x0 DUP1 PUSH20 0xFFFFFFFFFFFFFFFFFFFFFFFFFFFFFFFFFFFFFFFF AND PUSH1 0x0 DUP1 DUP5 PUSH20 0xFFFFFFFFFFFFFFFFFFFFFFFFFFFFFFFFFFFFFFFF AND PUSH20 0xFFFFFFFFFFFFFFFFFFFFFFFFFFFFFFFFFFFFFFFF AND DUP2 MSTORE PUSH1 0x20 ADD SWAP1 DUP2 MSTORE PUSH1 0x20 ADD PUSH1 0x0 KECCAK256 PUSH1 0x0 ADD PUSH1 0x0 SWAP1 SLOAD SWAP1 PUSH2 0x100 EXP SWAP1 DIV PUSH20 0xFFFFFFFFFFFFFFFFFFFFFFFFFFFFFFFFFFFFFFFF AND PUSH20 0xFFFFFFFFFFFFFFFFFFFFFFFFFFFFFFFFFFFFFFFF AND EQ PUSH2 0xD90 JUMPI PUSH1 0x1 SWAP1 POP PUSH2 0xD95 JUMP JUMPDEST PUSH1 0x0 SWAP1 POP JUMPDEST SWAP2 SWAP1 POP JUMP JUMPDEST PUSH1 0x0 PUSH1 0x2 DUP3 PUSH1 0x40 MLOAD PUSH2 0xDAC SWAP2 SWAP1 PUSH2 0x1C41 JUMP JUMPDEST SWAP1 DUP2 MSTORE PUSH1 0x20 ADD PUSH1 0x40 MLOAD DUP1 SWAP2 SUB SWAP1 KECCAK256 PUSH1 0x0 SWAP1 SLOAD SWAP1 PUSH2 0x100 EXP SWAP1 DIV PUSH1 0xFF AND SWAP1 POP SWAP2 SWAP1 POP JUMP JUMPDEST PUSH2 0xDD7 PUSH2 0x1130 JUMP JUMPDEST PUSH1 0x0 PUSH1 0x1 DUP4 PUSH1 0x40 MLOAD PUSH2 0xDE9 SWAP2 SWAP1 PUSH2 0x1C41 JUMP JUMPDEST SWAP1 DUP2 MSTORE PUSH1 0x20 ADD PUSH1 0x40 MLOAD DUP1 SWAP2 SUB SWAP1 KECCAK256 PUSH1 0x1 ADD DUP1 SLOAD PUSH2 0xE05 SWAP1 PUSH2 0x1827 JUMP JUMPDEST SWAP1 POP GT ISZERO PUSH2 0xE98 JUMPI PUSH1 0x40 MLOAD DUP1 PUSH1 0x60 ADD PUSH1 0x40 MSTORE DUP1 PUSH1 0x1 ISZERO ISZERO DUP2 MSTORE PUSH1 0x20 ADD PUSH1 0x1 DUP5 PUSH1 0x40 MLOAD PUSH2 0xE31 SWAP2 SWAP1 PUSH2 0x1C41 JUMP JUMPDEST SWAP1 DUP2 MSTORE PUSH1 0x20 ADD PUSH1 0x40 MLOAD DUP1 SWAP2 SUB SWAP1 KECCAK256 PUSH1 0x0 ADD PUSH1 0x0 SWAP1 SLOAD SWAP1 PUSH2 0x100 EXP SWAP1 DIV PUSH20 0xFFFFFFFFFFFFFFFFFFFFFFFFFFFFFFFFFFFFFFFF AND PUSH20 0xFFFFFFFFFFFFFFFFFFFFFFFFFFFFFFFFFFFFFFFF AND DUP2 MSTORE PUSH1 0x20 ADD PUSH1 0x40 MLOAD DUP1 PUSH1 0x20 ADD PUSH1 0x40 MSTORE DUP1 PUSH1 0x0 DUP2 MSTORE POP DUP2 MSTORE POP SWAP1 POP PUSH2 0xEE8 JUMP JUMPDEST PUSH1 0x40 MLOAD DUP1 PUSH1 0x60 ADD PUSH1 0x40 MSTORE DUP1 PUSH1 0x0 ISZERO ISZERO DUP2 MSTORE PUSH1 0x20 ADD PUSH1 0x0 PUSH20 0xFFFFFFFFFFFFFFFFFFFFFFFFFFFFFFFFFFFFFFFF AND DUP2 MSTORE PUSH1 0x20 ADD PUSH1 0x40 MLOAD DUP1 PUSH1 0x60 ADD PUSH1 0x40 MSTORE DUP1 PUSH1 0x29 DUP2 MSTORE PUSH1 0x20 ADD PUSH2 0x1EA8 PUSH1 0x29 SWAP2 CODECOPY DUP2 MSTORE POP SWAP1 POP JUMPDEST SWAP2 SWAP1 POP JUMP JUMPDEST PUSH1 0x0 CALLER PUSH20 0xFFFFFFFFFFFFFFFFFFFFFFFFFFFFFFFFFFFFFFFF AND DUP3 PUSH20 0xFFFFFFFFFFFFFFFFFFFFFFFFFFFFFFFFFFFFFFFF AND SUB PUSH2 0xFBF JUMPI DUP3 PUSH1 0x40 MLOAD PUSH1 0x20 ADD PUSH2 0xF33 SWAP2 SWAP1 PUSH2 0x1C41 JUMP JUMPDEST PUSH1 0x40 MLOAD PUSH1 0x20 DUP2 DUP4 SUB SUB DUP2 MSTORE SWAP1 PUSH1 0x40 MSTORE DUP1 MLOAD SWAP1 PUSH1 0x20 ADD KECCAK256 PUSH1 0x0 DUP1 DUP5 PUSH20 0xFFFFFFFFFFFFFFFFFFFFFFFFFFFFFFFFFFFFFFFF AND PUSH20 0xFFFFFFFFFFFFFFFFFFFFFFFFFFFFFFFFFFFFFFFF AND DUP2 MSTORE PUSH1 0x20 ADD SWAP1 DUP2 MSTORE PUSH1 0x20 ADD PUSH1 0x0 KECCAK256 PUSH1 0x2 ADD PUSH1 0x40 MLOAD PUSH1 0x20 ADD PUSH2 0xF9A SWAP2 SWAP1 PUSH2 0x1CDB JUMP JUMPDEST PUSH1 0x40 MLOAD PUSH1 0x20 DUP2 DUP4 SUB SUB DUP2 MSTORE SWAP1 PUSH1 0x40 MSTORE DUP1 MLOAD SWAP1 PUSH1 0x20 ADD KECCAK256 SUB PUSH2 0xFBE JUMPI PUSH1 0x1 SWAP1 POP PUSH2 0xFC4 JUMP JUMPDEST JUMPDEST PUSH1 0x0 SWAP1 POP JUMPDEST SWAP3 SWAP2 POP POP JUMP JUMPDEST PUSH1 0x0 CALLER PUSH20 0xFFFFFFFFFFFFFFFFFFFFFFFFFFFFFFFFFFFFFFFF AND DUP3 PUSH1 0x0 ADD MLOAD PUSH20 0xFFFFFFFFFFFFFFFFFFFFFFFFFFFFFFFFFFFFFFFF AND SUB PUSH2 0x10DA JUMPI PUSH2 0x1010 DUP3 PUSH1 0x0 ADD MLOAD PUSH2 0xCF1 JUMP JUMPDEST ISZERO DUP1 ISZERO PUSH2 0x1027 JUMPI POP PUSH2 0x1025 DUP3 PUSH1 0x20 ADD MLOAD PUSH2 0xD9A JUMP JUMPDEST ISZERO JUMPDEST DUP1 ISZERO PUSH2 0x10CB JUMPI POP PUSH1 0x3 PUSH1 0x0 SWAP1 SLOAD SWAP1 PUSH2 0x100 EXP SWAP1 DIV PUSH20 0xFFFFFFFFFFFFFFFFFFFFFFFFFFFFFFFFFFFFFFFF AND PUSH20 0xFFFFFFFFFFFFFFFFFFFFFFFFFFFFFFFFFFFFFFFF AND PUSH4 0xE779F450 DUP4 PUSH1 0x40 MLOAD DUP3 PUSH4 0xFFFFFFFF AND PUSH1 0xE0 SHL DUP2 MSTORE PUSH1 0x4 ADD PUSH2 0x1089 SWAP2 SWAP1 PUSH2 0x1D63 JUMP JUMPDEST PUSH1 0x20 PUSH1 0x40 MLOAD DUP1 DUP4 SUB DUP2 DUP7 GAS STATICCALL ISZERO DUP1 ISZERO PUSH2 0x10A6 JUMPI RETURNDATASIZE PUSH1 0x0 DUP1 RETURNDATACOPY RETURNDATASIZE PUSH1 0x0 REVERT JUMPDEST POP POP POP POP PUSH1 0x40 MLOAD RETURNDATASIZE PUSH1 0x1F NOT PUSH1 0x1F DUP3 ADD AND DUP3 ADD DUP1 PUSH1 0x40 MSTORE POP DUP2 ADD SWAP1 PUSH2 0x10CA SWAP2 SWAP1 PUSH2 0x1DB1 JUMP JUMPDEST JUMPDEST ISZERO PUSH2 0x10D9 JUMPI PUSH1 0x1 SWAP1 POP PUSH2 0x10DF JUMP JUMPDEST JUMPDEST PUSH1 0x0 SWAP1 POP JUMPDEST SWAP2 SWAP1 POP JUMP JUMPDEST PUSH1 0x40 MLOAD DUP1 PUSH1 0x60 ADD PUSH1 0x40 MSTORE DUP1 PUSH1 0x0 ISZERO ISZERO DUP2 MSTORE PUSH1 0x20 ADD PUSH1 0x60 DUP2 MSTORE PUSH1 0x20 ADD PUSH1 0x60 DUP2 MSTORE POP SWAP1 JUMP JUMPDEST PUSH1 0x40 MLOAD DUP1 PUSH1 0x60 ADD PUSH1 0x40 MSTORE DUP1 PUSH1 0x0 ISZERO ISZERO DUP2 MSTORE PUSH1 0x20 ADD PUSH2 0x1123 PUSH2 0x1169 JUMP JUMPDEST DUP2 MSTORE PUSH1 0x20 ADD PUSH1 0x60 DUP2 MSTORE POP SWAP1 JUMP JUMPDEST PUSH1 0x40 MLOAD DUP1 PUSH1 0x60 ADD PUSH1 0x40 MSTORE DUP1 PUSH1 0x0 ISZERO ISZERO DUP2 MSTORE PUSH1 0x20 ADD PUSH1 0x0 PUSH20 0xFFFFFFFFFFFFFFFFFFFFFFFFFFFFFFFFFFFFFFFF AND DUP2 MSTORE PUSH1 0x20 ADD PUSH1 0x60 DUP2 MSTORE POP SWAP1 JUMP JUMPDEST PUSH1 0x40 MLOAD DUP1 PUSH1 0x80 ADD PUSH1 0x40 MSTORE DUP1 PUSH1 0x0 PUSH20 0xFFFFFFFFFFFFFFFFFFFFFFFFFFFFFFFFFFFFFFFF AND DUP2 MSTORE PUSH1 0x20 ADD PUSH1 0x60 DUP2 MSTORE PUSH1 0x20 ADD PUSH1 0x60 DUP2 MSTORE PUSH1 0x20 ADD PUSH1 0x60 DUP2 MSTORE POP SWAP1 JUMP JUMPDEST PUSH1 0x0 PUSH1 0x40 MLOAD SWAP1 POP SWAP1 JUMP JUMPDEST PUSH1 0x0 DUP1 REVERT JUMPDEST PUSH1 0x0 DUP1 REVERT JUMPDEST PUSH1 0x0 PUSH20 0xFFFFFFFFFFFFFFFFFFFFFFFFFFFFFFFFFFFFFFFF DUP3 AND SWAP1 POP SWAP2 SWAP1 POP JUMP JUMPDEST PUSH1 0x0 PUSH2 0x11E6 DUP3 PUSH2 0x11BB JUMP JUMPDEST SWAP1 POP SWAP2 SWAP1 POP JUMP JUMPDEST PUSH2 0x11F6 DUP2 PUSH2 0x11DB JUMP JUMPDEST DUP2 EQ PUSH2 0x1201 JUMPI PUSH1 0x0 DUP1 REVERT JUMPDEST POP JUMP JUMPDEST PUSH1 0x0 DUP2 CALLDATALOAD SWAP1 POP PUSH2 0x1213 DUP2 PUSH2 0x11ED JUMP JUMPDEST SWAP3 SWAP2 POP POP JUMP JUMPDEST PUSH1 0x0 PUSH1 0x20 DUP3 DUP5 SUB SLT ISZERO PUSH2 0x122F JUMPI PUSH2 0x122E PUSH2 0x11B1 JUMP JUMPDEST JUMPDEST PUSH1 0x0 PUSH2 0x123D DUP5 DUP3 DUP6 ADD PUSH2 0x1204 JUMP JUMPDEST SWAP2 POP POP SWAP3 SWAP2 POP POP JUMP JUMPDEST PUSH1 0x0 DUP2 ISZERO ISZERO SWAP1 POP SWAP2 SWAP1 POP JUMP JUMPDEST PUSH2 0x125B DUP2 PUSH2 0x1246 JUMP JUMPDEST DUP3 MSTORE POP POP JUMP JUMPDEST PUSH1 0x0 DUP2 MLOAD SWAP1 POP SWAP2 SWAP1 POP JUMP JUMPDEST PUSH1 0x0 DUP3 DUP3 MSTORE PUSH1 0x20 DUP3 ADD SWAP1 POP SWAP3 SWAP2 POP POP JUMP JUMPDEST PUSH1 0x0 JUMPDEST DUP4 DUP2 LT ISZERO PUSH2 0x129B JUMPI DUP1 DUP3 ADD MLOAD DUP2 DUP5 ADD MSTORE PUSH1 0x20 DUP2 ADD SWAP1 POP PUSH2 0x1280 JUMP JUMPDEST PUSH1 0x0 DUP5 DUP5 ADD MSTORE POP POP POP POP JUMP JUMPDEST PUSH1 0x0 PUSH1 0x1F NOT PUSH1 0x1F DUP4 ADD AND SWAP1 POP SWAP2 SWAP1 POP JUMP JUMPDEST PUSH1 0x0 PUSH2 0x12C3 DUP3 PUSH2 0x1261 JUMP JUMPDEST PUSH2 0x12CD DUP2 DUP6 PUSH2 0x126C JUMP JUMPDEST SWAP4 POP PUSH2 0x12DD DUP2 DUP6 PUSH1 0x20 DUP7 ADD PUSH2 0x127D JUMP JUMPDEST PUSH2 0x12E6 DUP2 PUSH2 0x12A7 JUMP JUMPDEST DUP5 ADD SWAP2 POP POP SWAP3 SWAP2 POP POP JUMP JUMPDEST PUSH1 0x0 PUSH1 0x60 DUP4 ADD PUSH1 0x0 DUP4 ADD MLOAD PUSH2 0x1309 PUSH1 0x0 DUP7 ADD DUP3 PUSH2 0x1252 JUMP JUMPDEST POP PUSH1 0x20 DUP4 ADD MLOAD DUP5 DUP3 SUB PUSH1 0x20 DUP7 ADD MSTORE PUSH2 0x1321 DUP3 DUP3 PUSH2 0x12B8 JUMP JUMPDEST SWAP2 POP POP PUSH1 0x40 DUP4 ADD MLOAD DUP5 DUP3 SUB PUSH1 0x40 DUP7 ADD MSTORE PUSH2 0x133B DUP3 DUP3 PUSH2 0x12B8 JUMP JUMPDEST SWAP2 POP POP DUP1 SWAP2 POP POP SWAP3 SWAP2 POP POP JUMP JUMPDEST PUSH1 0x0 PUSH1 0x20 DUP3 ADD SWAP1 POP DUP2 DUP2 SUB PUSH1 0x0 DUP4 ADD MSTORE PUSH2 0x1362 DUP2 DUP5 PUSH2 0x12F1 JUMP JUMPDEST SWAP1 POP SWAP3 SWAP2 POP POP JUMP JUMPDEST PUSH2 0x1373 DUP2 PUSH2 0x11DB JUMP JUMPDEST DUP3 MSTORE POP POP JUMP JUMPDEST PUSH1 0x0 PUSH1 0x80 DUP4 ADD PUSH1 0x0 DUP4 ADD MLOAD PUSH2 0x1391 PUSH1 0x0 DUP7 ADD DUP3 PUSH2 0x136A JUMP JUMPDEST POP PUSH1 0x20 DUP4 ADD MLOAD DUP5 DUP3 SUB PUSH1 0x20 DUP7 ADD MSTORE PUSH2 0x13A9 DUP3 DUP3 PUSH2 0x12B8 JUMP JUMPDEST SWAP2 POP POP PUSH1 0x40 DUP4 ADD MLOAD DUP5 DUP3 SUB PUSH1 0x40 DUP7 ADD MSTORE PUSH2 0x13C3 DUP3 DUP3 PUSH2 0x12B8 JUMP JUMPDEST SWAP2 POP POP PUSH1 0x60 DUP4 ADD MLOAD DUP5 DUP3 SUB PUSH1 0x60 DUP7 ADD MSTORE PUSH2 0x13DD DUP3 DUP3 PUSH2 0x12B8 JUMP JUMPDEST SWAP2 POP POP DUP1 SWAP2 POP POP SWAP3 SWAP2 POP POP JUMP JUMPDEST PUSH1 0x0 PUSH1 0x60 DUP4 ADD PUSH1 0x0 DUP4 ADD MLOAD PUSH2 0x1402 PUSH1 0x0 DUP7 ADD DUP3 PUSH2 0x1252 JUMP JUMPDEST POP PUSH1 0x20 DUP4 ADD MLOAD DUP5 DUP3 SUB PUSH1 0x20 DUP7 ADD MSTORE PUSH2 0x141A DUP3 DUP3 PUSH2 0x1379 JUMP JUMPDEST SWAP2 POP POP PUSH1 0x40 DUP4 ADD MLOAD DUP5 DUP3 SUB PUSH1 0x40 DUP7 ADD MSTORE PUSH2 0x1434 DUP3 DUP3 PUSH2 0x12B8 JUMP JUMPDEST SWAP2 POP POP DUP1 SWAP2 POP POP SWAP3 SWAP2 POP POP JUMP JUMPDEST PUSH1 0x0 PUSH1 0x20 DUP3 ADD SWAP1 POP DUP2 DUP2 SUB PUSH1 0x0 DUP4 ADD MSTORE PUSH2 0x145B DUP2 DUP5 PUSH2 0x13EA JUMP JUMPDEST SWAP1 POP SWAP3 SWAP2 POP POP JUMP JUMPDEST PUSH1 0x0 DUP1 REVERT JUMPDEST PUSH32 0x4E487B7100000000000000000000000000000000000000000000000000000000 PUSH1 0x0 MSTORE PUSH1 0x41 PUSH1 0x4 MSTORE PUSH1 0x24 PUSH1 0x0 REVERT JUMPDEST PUSH2 0x14A0 DUP3 PUSH2 0x12A7 JUMP JUMPDEST DUP2 ADD DUP2 DUP2 LT PUSH8 0xFFFFFFFFFFFFFFFF DUP3 GT OR ISZERO PUSH2 0x14BF JUMPI PUSH2 0x14BE PUSH2 0x1468 JUMP JUMPDEST JUMPDEST DUP1 PUSH1 0x40 MSTORE POP POP POP JUMP JUMPDEST PUSH1 0x0 PUSH2 0x14D2 PUSH2 0x11A7 JUMP JUMPDEST SWAP1 POP PUSH2 0x14DE DUP3 DUP3 PUSH2 0x1497 JUMP JUMPDEST SWAP2 SWAP1 POP JUMP JUMPDEST PUSH1 0x0 DUP1 REVERT JUMPDEST PUSH1 0x0 DUP1 REVERT JUMPDEST PUSH1 0x0 DUP1 REVERT JUMPDEST PUSH1 0x0 PUSH8 0xFFFFFFFFFFFFFFFF DUP3 GT ISZERO PUSH2 0x150D JUMPI PUSH2 0x150C PUSH2 0x1468 JUMP JUMPDEST JUMPDEST PUSH2 0x1516 DUP3 PUSH2 0x12A7 JUMP JUMPDEST SWAP1 POP PUSH1 0x20 DUP2 ADD SWAP1 POP SWAP2 SWAP1 POP JUMP JUMPDEST DUP3 DUP2 DUP4 CALLDATACOPY PUSH1 0x0 DUP4 DUP4 ADD MSTORE POP POP POP JUMP JUMPDEST PUSH1 0x0 PUSH2 0x1545 PUSH2 0x1540 DUP5 PUSH2 0x14F2 JUMP JUMPDEST PUSH2 0x14C8 JUMP JUMPDEST SWAP1 POP DUP3 DUP2 MSTORE PUSH1 0x20 DUP2 ADD DUP5 DUP5 DUP5 ADD GT ISZERO PUSH2 0x1561 JUMPI PUSH2 0x1560 PUSH2 0x14ED JUMP JUMPDEST JUMPDEST PUSH2 0x156C DUP5 DUP3 DUP6 PUSH2 0x1523 JUMP JUMPDEST POP SWAP4 SWAP3 POP POP POP JUMP JUMPDEST PUSH1 0x0 DUP3 PUSH1 0x1F DUP4 ADD SLT PUSH2 0x1589 JUMPI PUSH2 0x1588 PUSH2 0x14E8 JUMP JUMPDEST JUMPDEST DUP2 CALLDATALOAD PUSH2 0x1599 DUP5 DUP3 PUSH1 0x20 DUP7 ADD PUSH2 0x1532 JUMP JUMPDEST SWAP2 POP POP SWAP3 SWAP2 POP POP JUMP JUMPDEST PUSH1 0x0 PUSH1 0x80 DUP3 DUP5 SUB SLT ISZERO PUSH2 0x15B8 JUMPI PUSH2 0x15B7 PUSH2 0x1463 JUMP JUMPDEST JUMPDEST PUSH2 0x15C2 PUSH1 0x80 PUSH2 0x14C8 JUMP JUMPDEST SWAP1 POP PUSH1 0x0 PUSH2 0x15D2 DUP5 DUP3 DUP6 ADD PUSH2 0x1204 JUMP JUMPDEST PUSH1 0x0 DUP4 ADD MSTORE POP PUSH1 0x20 DUP3 ADD CALLDATALOAD PUSH8 0xFFFFFFFFFFFFFFFF DUP2 GT ISZERO PUSH2 0x15F6 JUMPI PUSH2 0x15F5 PUSH2 0x14E3 JUMP JUMPDEST JUMPDEST PUSH2 0x1602 DUP5 DUP3 DUP6 ADD PUSH2 0x1574 JUMP JUMPDEST PUSH1 0x20 DUP4 ADD MSTORE POP PUSH1 0x40 DUP3 ADD CALLDATALOAD PUSH8 0xFFFFFFFFFFFFFFFF DUP2 GT ISZERO PUSH2 0x1626 JUMPI PUSH2 0x1625 PUSH2 0x14E3 JUMP JUMPDEST JUMPDEST PUSH2 0x1632 DUP5 DUP3 DUP6 ADD PUSH2 0x1574 JUMP JUMPDEST PUSH1 0x40 DUP4 ADD MSTORE POP PUSH1 0x60 DUP3 ADD CALLDATALOAD PUSH8 0xFFFFFFFFFFFFFFFF DUP2 GT ISZERO PUSH2 0x1656 JUMPI PUSH2 0x1655 PUSH2 0x14E3 JUMP JUMPDEST JUMPDEST PUSH2 0x1662 DUP5 DUP3 DUP6 ADD PUSH2 0x1574 JUMP JUMPDEST PUSH1 0x60 DUP4 ADD MSTORE POP SWAP3 SWAP2 POP POP JUMP JUMPDEST PUSH1 0x0 PUSH1 0x20 DUP3 DUP5 SUB SLT ISZERO PUSH2 0x1684 JUMPI PUSH2 0x1683 PUSH2 0x11B1 JUMP JUMPDEST JUMPDEST PUSH1 0x0 DUP3 ADD CALLDATALOAD PUSH8 0xFFFFFFFFFFFFFFFF DUP2 GT ISZERO PUSH2 0x16A2 JUMPI PUSH2 0x16A1 PUSH2 0x11B6 JUMP JUMPDEST JUMPDEST PUSH2 0x16AE DUP5 DUP3 DUP6 ADD PUSH2 0x15A2 JUMP JUMPDEST SWAP2 POP POP SWAP3 SWAP2 POP POP JUMP JUMPDEST PUSH2 0x16C0 DUP2 PUSH2 0x1246 JUMP JUMPDEST DUP3 MSTORE POP POP JUMP JUMPDEST PUSH1 0x0 PUSH1 0x20 DUP3 ADD SWAP1 POP PUSH2 0x16DB PUSH1 0x0 DUP4 ADD DUP5 PUSH2 0x16B7 JUMP JUMPDEST SWAP3 SWAP2 POP POP JUMP JUMPDEST PUSH1 0x0 PUSH1 0x20 DUP3 DUP5 SUB SLT ISZERO PUSH2 0x16F7 JUMPI PUSH2 0x16F6 PUSH2 0x11B1 JUMP JUMPDEST JUMPDEST PUSH1 0x0 DUP3 ADD CALLDATALOAD PUSH8 0xFFFFFFFFFFFFFFFF DUP2 GT ISZERO PUSH2 0x1715 JUMPI PUSH2 0x1714 PUSH2 0x11B6 JUMP JUMPDEST JUMPDEST PUSH2 0x1721 DUP5 DUP3 DUP6 ADD PUSH2 0x1574 JUMP JUMPDEST SWAP2 POP POP SWAP3 SWAP2 POP POP JUMP JUMPDEST PUSH1 0x0 PUSH1 0x60 DUP4 ADD PUSH1 0x0 DUP4 ADD MLOAD PUSH2 0x1742 PUSH1 0x0 DUP7 ADD DUP3 PUSH2 0x1252 JUMP JUMPDEST POP PUSH1 0x20 DUP4 ADD MLOAD PUSH2 0x1755 PUSH1 0x20 DUP7 ADD DUP3 PUSH2 0x136A JUMP JUMPDEST POP PUSH1 0x40 DUP4 ADD MLOAD DUP5 DUP3 SUB PUSH1 0x40 DUP7 ADD MSTORE PUSH2 0x176D DUP3 DUP3 PUSH2 0x12B8 JUMP JUMPDEST SWAP2 POP POP DUP1 SWAP2 POP POP SWAP3 SWAP2 POP POP JUMP JUMPDEST PUSH1 0x0 PUSH1 0x20 DUP3 ADD SWAP1 POP DUP2 DUP2 SUB PUSH1 0x0 DUP4 ADD MSTORE PUSH2 0x1794 DUP2 DUP5 PUSH2 0x172A JUMP JUMPDEST SWAP1 POP SWAP3 SWAP2 POP POP JUMP JUMPDEST PUSH1 0x0 DUP1 PUSH1 0x40 DUP4 DUP6 SUB SLT ISZERO PUSH2 0x17B3 JUMPI PUSH2 0x17B2 PUSH2 0x11B1 JUMP JUMPDEST JUMPDEST PUSH1 0x0 DUP4 ADD CALLDATALOAD PUSH8 0xFFFFFFFFFFFFFFFF DUP2 GT ISZERO PUSH2 0x17D1 JUMPI PUSH2 0x17D0 PUSH2 0x11B6 JUMP JUMPDEST JUMPDEST PUSH2 0x17DD DUP6 DUP3 DUP7 ADD PUSH2 0x1574 JUMP JUMPDEST SWAP3 POP POP PUSH1 0x20 PUSH2 0x17EE DUP6 DUP3 DUP7 ADD PUSH2 0x1204 JUMP JUMPDEST SWAP2 POP POP SWAP3 POP SWAP3 SWAP1 POP JUMP JUMPDEST PUSH32 0x4E487B7100000000000000000000000000000000000000000000000000000000 PUSH1 0x0 MSTORE PUSH1 0x22 PUSH1 0x4 MSTORE PUSH1 0x24 PUSH1 0x0 REVERT JUMPDEST PUSH1 0x0 PUSH1 0x2 DUP3 DIV SWAP1 POP PUSH1 0x1 DUP3 AND DUP1 PUSH2 0x183F JUMPI PUSH1 0x7F DUP3 AND SWAP2 POP JUMPDEST PUSH1 0x20 DUP3 LT DUP2 SUB PUSH2 0x1852 JUMPI PUSH2 0x1851 PUSH2 0x17F8 JUMP JUMPDEST JUMPDEST POP SWAP2 SWAP1 POP JUMP JUMPDEST PUSH1 0x0 DUP3 DUP3 MSTORE PUSH1 0x20 DUP3 ADD SWAP1 POP SWAP3 SWAP2 POP POP JUMP JUMPDEST PUSH1 0x0 PUSH2 0x1874 DUP3 PUSH2 0x1261 JUMP JUMPDEST PUSH2 0x187E DUP2 DUP6 PUSH2 0x1858 JUMP JUMPDEST SWAP4 POP PUSH2 0x188E DUP2 DUP6 PUSH1 0x20 DUP7 ADD PUSH2 0x127D JUMP JUMPDEST PUSH2 0x1897 DUP2 PUSH2 0x12A7 JUMP JUMPDEST DUP5 ADD SWAP2 POP POP SWAP3 SWAP2 POP POP JUMP JUMPDEST PUSH1 0x0 PUSH1 0x20 DUP3 ADD SWAP1 POP DUP2 DUP2 SUB PUSH1 0x0 DUP4 ADD MSTORE PUSH2 0x18BC DUP2 DUP5 PUSH2 0x1869 JUMP JUMPDEST SWAP1 POP SWAP3 SWAP2 POP POP JUMP JUMPDEST PUSH1 0x0 PUSH2 0x18D7 PUSH2 0x18D2 DUP5 PUSH2 0x14F2 JUMP JUMPDEST PUSH2 0x14C8 JUMP JUMPDEST SWAP1 POP DUP3 DUP2 MSTORE PUSH1 0x20 DUP2 ADD DUP5 DUP5 DUP5 ADD GT ISZERO PUSH2 0x18F3 JUMPI PUSH2 0x18F2 PUSH2 0x14ED JUMP JUMPDEST JUMPDEST PUSH2 0x18FE DUP5 DUP3 DUP6 PUSH2 0x127D JUMP JUMPDEST POP SWAP4 SWAP3 POP POP POP JUMP JUMPDEST PUSH1 0x0 DUP3 PUSH1 0x1F DUP4 ADD SLT PUSH2 0x191B JUMPI PUSH2 0x191A PUSH2 0x14E8 JUMP JUMPDEST JUMPDEST DUP2 MLOAD PUSH2 0x192B DUP5 DUP3 PUSH1 0x20 DUP7 ADD PUSH2 0x18C4 JUMP JUMPDEST SWAP2 POP POP SWAP3 SWAP2 POP POP JUMP JUMPDEST PUSH1 0x0 PUSH1 0x20 DUP3 DUP5 SUB SLT ISZERO PUSH2 0x194A JUMPI PUSH2 0x1949 PUSH2 0x11B1 JUMP JUMPDEST JUMPDEST PUSH1 0x0 DUP3 ADD MLOAD PUSH8 0xFFFFFFFFFFFFFFFF DUP2 GT ISZERO PUSH2 0x1968 JUMPI PUSH2 0x1967 PUSH2 0x11B6 JUMP JUMPDEST JUMPDEST PUSH2 0x1974 DUP5 DUP3 DUP6 ADD PUSH2 0x1906 JUMP JUMPDEST SWAP2 POP POP SWAP3 SWAP2 POP POP JUMP JUMPDEST PUSH1 0x0 DUP2 SWAP1 POP DUP2 PUSH1 0x0 MSTORE PUSH1 0x20 PUSH1 0x0 KECCAK256 SWAP1 POP SWAP2 SWAP1 POP JUMP JUMPDEST PUSH1 0x0 PUSH1 0x20 PUSH1 0x1F DUP4 ADD DIV SWAP1 POP SWAP2 SWAP1 POP JUMP JUMPDEST PUSH1 0x0 DUP3 DUP3 SHL SWAP1 POP SWAP3 SWAP2 POP POP JUMP JUMPDEST PUSH1 0x0 PUSH1 0x8 DUP4 MUL PUSH2 0x19DF PUSH32 0xFFFFFFFFFFFFFFFFFFFFFFFFFFFFFFFFFFFFFFFFFFFFFFFFFFFFFFFFFFFFFFFF DUP3 PUSH2 0x19A2 JUMP JUMPDEST PUSH2 0x19E9 DUP7 DUP4 PUSH2 0x19A2 JUMP JUMPDEST SWAP6 POP DUP1 NOT DUP5 AND SWAP4 POP DUP1 DUP7 AND DUP5 OR SWAP3 POP POP POP SWAP4 SWAP3 POP POP POP JUMP JUMPDEST PUSH1 0x0 DUP2 SWAP1 POP SWAP2 SWAP1 POP JUMP JUMPDEST PUSH1 0x0 DUP2 SWAP1 POP SWAP2 SWAP1 POP JUMP JUMPDEST PUSH1 0x0 PUSH2 0x1A30 PUSH2 0x1A2B PUSH2 0x1A26 DUP5 PUSH2 0x1A01 JUMP JUMPDEST PUSH2 0x1A0B JUMP JUMPDEST PUSH2 0x1A01 JUMP JUMPDEST SWAP1 POP SWAP2 SWAP1 POP JUMP JUMPDEST PUSH1 0x0 DUP2 SWAP1 POP SWAP2 SWAP1 POP JUMP JUMPDEST PUSH2 0x1A4A DUP4 PUSH2 0x1A15 JUMP JUMPDEST PUSH2 0x1A5E PUSH2 0x1A56 DUP3 PUSH2 0x1A37 JUMP JUMPDEST DUP5 DUP5 SLOAD PUSH2 0x19AF JUMP JUMPDEST DUP3 SSTORE POP POP POP POP JUMP JUMPDEST PUSH1 0x0 SWAP1 JUMP JUMPDEST PUSH2 0x1A73 PUSH2 0x1A66 JUMP JUMPDEST PUSH2 0x1A7E DUP2 DUP5 DUP5 PUSH2 0x1A41 JUMP JUMPDEST POP POP POP JUMP JUMPDEST JUMPDEST DUP2 DUP2 LT ISZERO PUSH2 0x1AA2 JUMPI PUSH2 0x1A97 PUSH1 0x0 DUP3 PUSH2 0x1A6B JUMP JUMPDEST PUSH1 0x1 DUP2 ADD SWAP1 POP PUSH2 0x1A84 JUMP JUMPDEST POP POP JUMP JUMPDEST PUSH1 0x1F DUP3 GT ISZERO PUSH2 0x1AE7 JUMPI PUSH2 0x1AB8 DUP2 PUSH2 0x197D JUMP JUMPDEST PUSH2 0x1AC1 DUP5 PUSH2 0x1992 JUMP JUMPDEST DUP2 ADD PUSH1 0x20 DUP6 LT ISZERO PUSH2 0x1AD0 JUMPI DUP2 SWAP1 POP JUMPDEST PUSH2 0x1AE4 PUSH2 0x1ADC DUP6 PUSH2 0x1992 JUMP JUMPDEST DUP4 ADD DUP3 PUSH2 0x1A83 JUMP JUMPDEST POP POP JUMPDEST POP POP POP JUMP JUMPDEST PUSH1 0x0 DUP3 DUP3 SHR SWAP1 POP SWAP3 SWAP2 POP POP JUMP JUMPDEST PUSH1 0x0 PUSH2 0x1B0A PUSH1 0x0 NOT DUP5 PUSH1 0x8 MUL PUSH2 0x1AEC JUMP JUMPDEST NOT DUP1 DUP4 AND SWAP2 POP POP SWAP3 SWAP2 POP POP JUMP JUMPDEST PUSH1 0x0 PUSH2 0x1B23 DUP4 DUP4 PUSH2 0x1AF9 JUMP JUMPDEST SWAP2 POP DUP3 PUSH1 0x2 MUL DUP3 OR SWAP1 POP SWAP3 SWAP2 POP POP JUMP JUMPDEST PUSH2 0x1B3C DUP3 PUSH2 0x1261 JUMP JUMPDEST PUSH8 0xFFFFFFFFFFFFFFFF DUP2 GT ISZERO PUSH2 0x1B55 JUMPI PUSH2 0x1B54 PUSH2 0x1468 JUMP JUMPDEST JUMPDEST PUSH2 0x1B5F DUP3 SLOAD PUSH2 0x1827 JUMP JUMPDEST PUSH2 0x1B6A DUP3 DUP3 DUP6 PUSH2 0x1AA6 JUMP JUMPDEST PUSH1 0x0 PUSH1 0x20 SWAP1 POP PUSH1 0x1F DUP4 GT PUSH1 0x1 DUP2 EQ PUSH2 0x1B9D JUMPI PUSH1 0x0 DUP5 ISZERO PUSH2 0x1B8B JUMPI DUP3 DUP8 ADD MLOAD SWAP1 POP JUMPDEST PUSH2 0x1B95 DUP6 DUP3 PUSH2 0x1B17 JUMP JUMPDEST DUP7 SSTORE POP PUSH2 0x1BFD JUMP JUMPDEST PUSH1 0x1F NOT DUP5 AND PUSH2 0x1BAB DUP7 PUSH2 0x197D JUMP JUMPDEST PUSH1 0x0 JUMPDEST DUP3 DUP2 LT ISZERO PUSH2 0x1BD3 JUMPI DUP5 DUP10 ADD MLOAD DUP3 SSTORE PUSH1 0x1 DUP3 ADD SWAP2 POP PUSH1 0x20 DUP6 ADD SWAP5 POP PUSH1 0x20 DUP2 ADD SWAP1 POP PUSH2 0x1BAE JUMP JUMPDEST DUP7 DUP4 LT ISZERO PUSH2 0x1BF0 JUMPI DUP5 DUP10 ADD MLOAD PUSH2 0x1BEC PUSH1 0x1F DUP10 AND DUP3 PUSH2 0x1AF9 JUMP JUMPDEST DUP4 SSTORE POP JUMPDEST PUSH1 0x1 PUSH1 0x2 DUP9 MUL ADD DUP9 SSTORE POP POP POP JUMPDEST POP POP POP POP POP POP JUMP JUMPDEST PUSH1 0x0 DUP2 SWAP1 POP SWAP3 SWAP2 POP POP JUMP JUMPDEST PUSH1 0x0 PUSH2 0x1C1B DUP3 PUSH2 0x1261 JUMP JUMPDEST PUSH2 0x1C25 DUP2 DUP6 PUSH2 0x1C05 JUMP JUMPDEST SWAP4 POP PUSH2 0x1C35 DUP2 DUP6 PUSH1 0x20 DUP7 ADD PUSH2 0x127D JUMP JUMPDEST DUP1 DUP5 ADD SWAP2 POP POP SWAP3 SWAP2 POP POP JUMP JUMPDEST PUSH1 0x0 PUSH2 0x1C4D DUP3 DUP5 PUSH2 0x1C10 JUMP JUMPDEST SWAP2 POP DUP2 SWAP1 POP SWAP3 SWAP2 POP POP JUMP JUMPDEST PUSH1 0x0 DUP2 SLOAD PUSH2 0x1C65 DUP2 PUSH2 0x1827 JUMP JUMPDEST PUSH2 0x1C6F DUP2 DUP7 PUSH2 0x1C05 JUMP JUMPDEST SWAP5 POP PUSH1 0x1 DUP3 AND PUSH1 0x0 DUP2 EQ PUSH2 0x1C8A JUMPI PUSH1 0x1 DUP2 EQ PUSH2 0x1C9F JUMPI PUSH2 0x1CD2 JUMP JUMPDEST PUSH1 0xFF NOT DUP4 AND DUP7 MSTORE DUP2 ISZERO ISZERO DUP3 MUL DUP7 ADD SWAP4 POP PUSH2 0x1CD2 JUMP JUMPDEST PUSH2 0x1CA8 DUP6 PUSH2 0x197D JUMP JUMPDEST PUSH1 0x0 JUMPDEST DUP4 DUP2 LT ISZERO PUSH2 0x1CCA JUMPI DUP2 SLOAD DUP2 DUP10 ADD MSTORE PUSH1 0x1 DUP3 ADD SWAP2 POP PUSH1 0x20 DUP2 ADD SWAP1 POP PUSH2 0x1CAB JUMP JUMPDEST DUP4 DUP9 ADD SWAP6 POP POP POP JUMPDEST POP POP POP SWAP3 SWAP2 POP POP JUMP JUMPDEST PUSH1 0x0 PUSH2 0x1CE7 DUP3 DUP5 PUSH2 0x1C58 JUMP JUMPDEST SWAP2 POP DUP2 SWAP1 POP SWAP3 SWAP2 POP POP JUMP JUMPDEST PUSH1 0x0 PUSH1 0x80 DUP4 ADD PUSH1 0x0 DUP4 ADD MLOAD PUSH2 0x1D0A PUSH1 0x0 DUP7 ADD DUP3 PUSH2 0x136A JUMP JUMPDEST POP PUSH1 0x20 DUP4 ADD MLOAD DUP5 DUP3 SUB PUSH1 0x20 DUP7 ADD MSTORE PUSH2 0x1D22 DUP3 DUP3 PUSH2 0x12B8 JUMP JUMPDEST SWAP2 POP POP PUSH1 0x40 DUP4 ADD MLOAD DUP5 DUP3 SUB PUSH1 0x40 DUP7 ADD MSTORE PUSH2 0x1D3C DUP3 DUP3 PUSH2 0x12B8 JUMP JUMPDEST SWAP2 POP POP PUSH1 0x60 DUP4 ADD MLOAD DUP5 DUP3 SUB PUSH1 0x60 DUP7 ADD MSTORE PUSH2 0x1D56 DUP3 DUP3 PUSH2 0x12B8 JUMP JUMPDEST SWAP2 POP POP DUP1 SWAP2 POP POP SWAP3 SWAP2 POP POP JUMP JUMPDEST PUSH1 0x0 PUSH1 0x20 DUP3 ADD SWAP1 POP DUP2 DUP2 SUB PUSH1 0x0 DUP4 ADD MSTORE PUSH2 0x1D7D DUP2 DUP5 PUSH2 0x1CF2 JUMP JUMPDEST SWAP1 POP SWAP3 SWAP2 POP POP JUMP JUMPDEST PUSH2 0x1D8E DUP2 PUSH2 0x1246 JUMP JUMPDEST DUP2 EQ PUSH2 0x1D99 JUMPI PUSH1 0x0 DUP1 REVERT JUMPDEST POP JUMP JUMPDEST PUSH1 0x0 DUP2 MLOAD SWAP1 POP PUSH2 0x1DAB DUP2 PUSH2 0x1D85 JUMP JUMPDEST SWAP3 SWAP2 POP POP JUMP JUMPDEST PUSH1 0x0 PUSH1 0x20 DUP3 DUP5 SUB SLT ISZERO PUSH2 0x1DC7 JUMPI PUSH2 0x1DC6 PUSH2 0x11B1 JUMP JUMPDEST JUMPDEST PUSH1 0x0 PUSH2 0x1DD5 DUP5 DUP3 DUP6 ADD PUSH2 0x1D9C JUMP JUMPDEST SWAP2 POP POP SWAP3 SWAP2 POP POP JUMP INVALID SLOAD PUSH9 0x65206163636F756E74 KECCAK256 PUSH16 0x6620746865207472616E73616374696F PUSH15 0x2065786563757465722073686F756C PUSH5 0x2062652074 PUSH9 0x652073616D65206F6E PUSH6 0x206173207468 PUSH6 0x207573657220 PUSH24 0x686963682074686520696E666F726D6174696F6E20697320 PUSH3 0x65696E PUSH8 0x2072657175657374 PUSH6 0x642066726F6D 0x2E SLOAD PUSH9 0x657265206973206E6F KECCAK256 PUSH22 0x73657220776974682074686520666976656E20616363 PUSH16 0x756E742E5468657265206973206E6F20 PUSH22 0x73657220776974682074686520676976656E20616363 PUSH16 0x756E742E5468657265206973206E6F20 PUSH22 0x73657220776974682074686520676976656E20757365 PUSH19 0x6E616D652EA2646970667358221220944BDDF0 0xDA DUP6 0xBA 0xC1 CALLCODE SHR 0xE3 SWAP10 0x24 KECCAK256 0xD9 MULMOD REVERT SWAP15 SAR 0x2B SHL 0xB0 0xE2 CREATE2 0x4E PUSH20 0x785B12ACC9D364736F6C63430008130033608060 BLOCKHASH MSTORE CALLVALUE DUP1 ISZERO PUSH2 0x10 JUMPI PUSH1 0x0 DUP1 REVERT JUMPDEST POP CALLER PUSH1 0x1 PUSH1 0x0 PUSH2 0x100 EXP DUP2 SLOAD DUP2 PUSH20 0xFFFFFFFFFFFFFFFFFFFFFFFFFFFFFFFFFFFFFFFF MUL NOT AND SWAP1 DUP4 PUSH20 0xFFFFFFFFFFFFFFFFFFFFFFFFFFFFFFFFFFFFFFFF AND MUL OR SWAP1 SSTORE POP CALLER PUSH1 0x2 PUSH1 0x0 PUSH2 0x100 EXP DUP2 SLOAD DUP2 PUSH20 0xFFFFFFFFFFFFFFFFFFFFFFFFFFFFFFFFFFFFFFFF MUL NOT AND SWAP1 DUP4 PUSH20 0xFFFFFFFFFFFFFFFFFFFFFFFFFFFFFFFFFFFFFFFF AND MUL OR SWAP1 SSTORE POP PUSH2 0x165C DUP1 PUSH2 0xA2 PUSH1 0x0 CODECOPY PUSH1 0x0 RETURN INVALID PUSH1 0x80 PUSH1 0x40 MSTORE CALLVALUE DUP1 ISZERO PUSH2 0x10 JUMPI PUSH1 0x0 DUP1 REVERT JUMPDEST POP PUSH1 0x4 CALLDATASIZE LT PUSH2 0x36 JUMPI PUSH1 0x0 CALLDATALOAD PUSH1 0xE0 SHR DUP1 PUSH4 0x759AB185 EQ PUSH2 0x3B JUMPI DUP1 PUSH4 0xC47EBDDC EQ PUSH2 0x6B JUMPI JUMPDEST PUSH1 0x0 DUP1 REVERT JUMPDEST PUSH2 0x55 PUSH1 0x4 DUP1 CALLDATASIZE SUB DUP2 ADD SWAP1 PUSH2 0x50 SWAP2 SWAP1 PUSH2 0xC25 JUMP JUMPDEST PUSH2 0x87 JUMP JUMPDEST PUSH1 0x40 MLOAD PUSH2 0x62 SWAP2 SWAP1 PUSH2 0xF12 JUMP JUMPDEST PUSH1 0x40 MLOAD DUP1 SWAP2 SUB SWAP1 RETURN JUMPDEST PUSH2 0x85 PUSH1 0x4 DUP1 CALLDATASIZE SUB DUP2 ADD SWAP1 PUSH2 0x80 SWAP2 SWAP1 PUSH2 0xF60 JUMP JUMPDEST PUSH2 0x765 JUMP JUMPDEST STOP JUMPDEST PUSH2 0x8F PUSH2 0x960 JUMP JUMPDEST PUSH1 0x0 DUP1 DUP1 SLOAD SWAP1 POP PUSH8 0xFFFFFFFFFFFFFFFF DUP2 GT ISZERO PUSH2 0xAF JUMPI PUSH2 0xAE PUSH2 0xA0F JUMP JUMPDEST JUMPDEST PUSH1 0x40 MLOAD SWAP1 DUP1 DUP3 MSTORE DUP1 PUSH1 0x20 MUL PUSH1 0x20 ADD DUP3 ADD PUSH1 0x40 MSTORE DUP1 ISZERO PUSH2 0xE8 JUMPI DUP2 PUSH1 0x20 ADD JUMPDEST PUSH2 0xD5 PUSH2 0x983 JUMP JUMPDEST DUP2 MSTORE PUSH1 0x20 ADD SWAP1 PUSH1 0x1 SWAP1 SUB SWAP1 DUP2 PUSH2 0xCD JUMPI SWAP1 POP JUMPDEST POP SWAP1 POP PUSH1 0x0 DUP1 JUMPDEST DUP5 MLOAD DUP2 LT ISZERO PUSH2 0x544 JUMPI PUSH1 0x1 PUSH1 0x0 SWAP1 SLOAD SWAP1 PUSH2 0x100 EXP SWAP1 DIV PUSH20 0xFFFFFFFFFFFFFFFFFFFFFFFFFFFFFFFFFFFFFFFF AND PUSH20 0xFFFFFFFFFFFFFFFFFFFFFFFFFFFFFFFFFFFFFFFF AND PUSH4 0x1AC47DD0 CALLER DUP8 DUP5 DUP2 MLOAD DUP2 LT PUSH2 0x14A JUMPI PUSH2 0x149 PUSH2 0x102F JUMP JUMPDEST JUMPDEST PUSH1 0x20 MUL PUSH1 0x20 ADD ADD MLOAD PUSH1 0x40 MLOAD DUP4 PUSH4 0xFFFFFFFF AND PUSH1 0xE0 SHL DUP2 MSTORE PUSH1 0x4 ADD PUSH2 0x16F SWAP3 SWAP2 SWAP1 PUSH2 0x10B7 JUMP JUMPDEST PUSH1 0x20 PUSH1 0x40 MLOAD DUP1 DUP4 SUB DUP2 DUP7 GAS STATICCALL ISZERO DUP1 ISZERO PUSH2 0x18C JUMPI RETURNDATASIZE PUSH1 0x0 DUP1 RETURNDATACOPY RETURNDATASIZE PUSH1 0x0 REVERT JUMPDEST POP POP POP POP PUSH1 0x40 MLOAD RETURNDATASIZE PUSH1 0x1F NOT PUSH1 0x1F DUP3 ADD AND DUP3 ADD DUP1 PUSH1 0x40 MSTORE POP DUP2 ADD SWAP1 PUSH2 0x1B0 SWAP2 SWAP1 PUSH2 0x1113 JUMP JUMPDEST ISZERO PUSH2 0x531 JUMPI PUSH1 0x0 JUMPDEST PUSH1 0x0 DUP1 SLOAD SWAP1 POP DUP2 LT ISZERO PUSH2 0x52F JUMPI DUP6 DUP3 DUP2 MLOAD DUP2 LT PUSH2 0x1D8 JUMPI PUSH2 0x1D7 PUSH2 0x102F JUMP JUMPDEST JUMPDEST PUSH1 0x20 MUL PUSH1 0x20 ADD ADD MLOAD PUSH1 0x40 MLOAD PUSH1 0x20 ADD PUSH2 0x1F0 SWAP2 SWAP1 PUSH2 0x117C JUMP JUMPDEST PUSH1 0x40 MLOAD PUSH1 0x20 DUP2 DUP4 SUB SUB DUP2 MSTORE SWAP1 PUSH1 0x40 MSTORE DUP1 MLOAD SWAP1 PUSH1 0x20 ADD KECCAK256 PUSH1 0x0 DUP3 DUP2 SLOAD DUP2 LT PUSH2 0x21A JUMPI PUSH2 0x219 PUSH2 0x102F JUMP JUMPDEST JUMPDEST SWAP1 PUSH1 0x0 MSTORE PUSH1 0x20 PUSH1 0x0 KECCAK256 SWAP1 PUSH1 0x6 MUL ADD PUSH1 0x0 ADD PUSH1 0x40 MLOAD PUSH1 0x20 ADD PUSH2 0x23B SWAP2 SWAP1 PUSH2 0x128B JUMP JUMPDEST PUSH1 0x40 MLOAD PUSH1 0x20 DUP2 DUP4 SUB SUB DUP2 MSTORE SWAP1 PUSH1 0x40 MSTORE DUP1 MLOAD SWAP1 PUSH1 0x20 ADD KECCAK256 SUB PUSH2 0x51C JUMPI PUSH1 0x0 DUP2 DUP2 SLOAD DUP2 LT PUSH2 0x26A JUMPI PUSH2 0x269 PUSH2 0x102F JUMP JUMPDEST JUMPDEST SWAP1 PUSH1 0x0 MSTORE PUSH1 0x20 PUSH1 0x0 KECCAK256 SWAP1 PUSH1 0x6 MUL ADD PUSH1 0x40 MLOAD DUP1 PUSH1 0xC0 ADD PUSH1 0x40 MSTORE SWAP1 DUP2 PUSH1 0x0 DUP3 ADD DUP1 SLOAD PUSH2 0x293 SWAP1 PUSH2 0x11C2 JUMP JUMPDEST DUP1 PUSH1 0x1F ADD PUSH1 0x20 DUP1 SWAP2 DIV MUL PUSH1 0x20 ADD PUSH1 0x40 MLOAD SWAP1 DUP2 ADD PUSH1 0x40 MSTORE DUP1 SWAP3 SWAP2 SWAP1 DUP2 DUP2 MSTORE PUSH1 0x20 ADD DUP3 DUP1 SLOAD PUSH2 0x2BF SWAP1 PUSH2 0x11C2 JUMP JUMPDEST DUP1 ISZERO PUSH2 0x30C JUMPI DUP1 PUSH1 0x1F LT PUSH2 0x2E1 JUMPI PUSH2 0x100 DUP1 DUP4 SLOAD DIV MUL DUP4 MSTORE SWAP2 PUSH1 0x20 ADD SWAP2 PUSH2 0x30C JUMP JUMPDEST DUP3 ADD SWAP2 SWAP1 PUSH1 0x0 MSTORE PUSH1 0x20 PUSH1 0x0 KECCAK256 SWAP1 JUMPDEST DUP2 SLOAD DUP2 MSTORE SWAP1 PUSH1 0x1 ADD SWAP1 PUSH1 0x20 ADD DUP1 DUP4 GT PUSH2 0x2EF JUMPI DUP3 SWAP1 SUB PUSH1 0x1F AND DUP3 ADD SWAP2 JUMPDEST POP POP POP POP POP DUP2 MSTORE PUSH1 0x20 ADD PUSH1 0x1 DUP3 ADD PUSH1 0x0 SWAP1 SLOAD SWAP1 PUSH2 0x100 EXP SWAP1 DIV PUSH20 0xFFFFFFFFFFFFFFFFFFFFFFFFFFFFFFFFFFFFFFFF AND PUSH20 0xFFFFFFFFFFFFFFFFFFFFFFFFFFFFFFFFFFFFFFFF AND PUSH20 0xFFFFFFFFFFFFFFFFFFFFFFFFFFFFFFFFFFFFFFFF AND DUP2 MSTORE PUSH1 0x20 ADD PUSH1 0x2 DUP3 ADD SLOAD DUP2 MSTORE PUSH1 0x20 ADD PUSH1 0x3 DUP3 ADD DUP1 SLOAD PUSH2 0x385 SWAP1 PUSH2 0x11C2 JUMP JUMPDEST DUP1 PUSH1 0x1F ADD PUSH1 0x20 DUP1 SWAP2 DIV MUL PUSH1 0x20 ADD PUSH1 0x40 MLOAD SWAP1 DUP2 ADD PUSH1 0x40 MSTORE DUP1 SWAP3 SWAP2 SWAP1 DUP2 DUP2 MSTORE PUSH1 0x20 ADD DUP3 DUP1 SLOAD PUSH2 0x3B1 SWAP1 PUSH2 0x11C2 JUMP JUMPDEST DUP1 ISZERO PUSH2 0x3FE JUMPI DUP1 PUSH1 0x1F LT PUSH2 0x3D3 JUMPI PUSH2 0x100 DUP1 DUP4 SLOAD DIV MUL DUP4 MSTORE SWAP2 PUSH1 0x20 ADD SWAP2 PUSH2 0x3FE JUMP JUMPDEST DUP3 ADD SWAP2 SWAP1 PUSH1 0x0 MSTORE PUSH1 0x20 PUSH1 0x0 KECCAK256 SWAP1 JUMPDEST DUP2 SLOAD DUP2 MSTORE SWAP1 PUSH1 0x1 ADD SWAP1 PUSH1 0x20 ADD DUP1 DUP4 GT PUSH2 0x3E1 JUMPI DUP3 SWAP1 SUB PUSH1 0x1F AND DUP3 ADD SWAP2 JUMPDEST POP POP POP POP POP DUP2 MSTORE PUSH1 0x20 ADD PUSH1 0x4 DUP3 ADD DUP1 SLOAD PUSH2 0x417 SWAP1 PUSH2 0x11C2 JUMP JUMPDEST DUP1 PUSH1 0x1F ADD PUSH1 0x20 DUP1 SWAP2 DIV MUL PUSH1 0x20 ADD PUSH1 0x40 MLOAD SWAP1 DUP2 ADD PUSH1 0x40 MSTORE DUP1 SWAP3 SWAP2 SWAP1 DUP2 DUP2 MSTORE PUSH1 0x20 ADD DUP3 DUP1 SLOAD PUSH2 0x443 SWAP1 PUSH2 0x11C2 JUMP JUMPDEST DUP1 ISZERO PUSH2 0x490 JUMPI DUP1 PUSH1 0x1F LT PUSH2 0x465 JUMPI PUSH2 0x100 DUP1 DUP4 SLOAD DIV MUL DUP4 MSTORE SWAP2 PUSH1 0x20 ADD SWAP2 PUSH2 0x490 JUMP JUMPDEST DUP3 ADD SWAP2 SWAP1 PUSH1 0x0 MSTORE PUSH1 0x20 PUSH1 0x0 KECCAK256 SWAP1 JUMPDEST DUP2 SLOAD DUP2 MSTORE SWAP1 PUSH1 0x1 ADD SWAP1 PUSH1 0x20 ADD DUP1 DUP4 GT PUSH2 0x473 JUMPI DUP3 SWAP1 SUB PUSH1 0x1F AND DUP3 ADD SWAP2 JUMPDEST POP POP POP POP POP DUP2 MSTORE PUSH1 0x20 ADD PUSH1 0x5 DUP3 ADD PUSH1 0x0 SWAP1 SLOAD SWAP1 PUSH2 0x100 EXP SWAP1 DIV PUSH20 0xFFFFFFFFFFFFFFFFFFFFFFFFFFFFFFFFFFFFFFFF AND PUSH20 0xFFFFFFFFFFFFFFFFFFFFFFFFFFFFFFFFFFFFFFFF AND PUSH20 0xFFFFFFFFFFFFFFFFFFFFFFFFFFFFFFFFFFFFFFFF AND DUP2 MSTORE POP POP DUP5 DUP5 DUP2 MLOAD DUP2 LT PUSH2 0x502 JUMPI PUSH2 0x501 PUSH2 0x102F JUMP JUMPDEST JUMPDEST PUSH1 0x20 MUL PUSH1 0x20 ADD ADD DUP2 SWAP1 MSTORE POP DUP3 DUP1 PUSH2 0x518 SWAP1 PUSH2 0x12D1 JUMP JUMPDEST SWAP4 POP POP JUMPDEST DUP1 DUP1 PUSH2 0x527 SWAP1 PUSH2 0x12D1 JUMP JUMPDEST SWAP2 POP POP PUSH2 0x1B8 JUMP JUMPDEST POP JUMPDEST DUP1 DUP1 PUSH2 0x53C SWAP1 PUSH2 0x12D1 JUMP JUMPDEST SWAP2 POP POP PUSH2 0xEF JUMP JUMPDEST POP PUSH1 0x0 DUP2 EQ PUSH2 0x690 JUMPI PUSH1 0x0 JUMPDEST PUSH1 0x1 DUP3 PUSH2 0x55D SWAP2 SWAP1 PUSH2 0x1319 JUMP JUMPDEST DUP2 LT ISZERO PUSH2 0x68E JUMPI PUSH1 0x0 JUMPDEST PUSH1 0x1 DUP3 DUP5 PUSH2 0x575 SWAP2 SWAP1 PUSH2 0x1319 JUMP JUMPDEST PUSH2 0x57F SWAP2 SWAP1 PUSH2 0x1319 JUMP JUMPDEST DUP2 LT ISZERO PUSH2 0x67A JUMPI DUP4 PUSH1 0x1 DUP3 PUSH2 0x594 SWAP2 SWAP1 PUSH2 0x134D JUMP JUMPDEST DUP2 MLOAD DUP2 LT PUSH2 0x5A5 JUMPI PUSH2 0x5A4 PUSH2 0x102F JUMP JUMPDEST JUMPDEST PUSH1 0x20 MUL PUSH1 0x20 ADD ADD MLOAD PUSH1 0x40 ADD MLOAD DUP5 DUP3 DUP2 MLOAD DUP2 LT PUSH2 0x5C4 JUMPI PUSH2 0x5C3 PUSH2 0x102F JUMP JUMPDEST JUMPDEST PUSH1 0x20 MUL PUSH1 0x20 ADD ADD MLOAD PUSH1 0x40 ADD MLOAD GT ISZERO PUSH2 0x667 JUMPI PUSH1 0x0 DUP5 DUP3 DUP2 MLOAD DUP2 LT PUSH2 0x5EB JUMPI PUSH2 0x5EA PUSH2 0x102F JUMP JUMPDEST JUMPDEST PUSH1 0x20 MUL PUSH1 0x20 ADD ADD MLOAD SWAP1 POP DUP5 PUSH1 0x1 DUP4 PUSH2 0x603 SWAP2 SWAP1 PUSH2 0x134D JUMP JUMPDEST DUP2 MLOAD DUP2 LT PUSH2 0x614 JUMPI PUSH2 0x613 PUSH2 0x102F JUMP JUMPDEST JUMPDEST PUSH1 0x20 MUL PUSH1 0x20 ADD ADD MLOAD DUP6 DUP4 DUP2 MLOAD DUP2 LT PUSH2 0x62F JUMPI PUSH2 0x62E PUSH2 0x102F JUMP JUMPDEST JUMPDEST PUSH1 0x20 MUL PUSH1 0x20 ADD ADD DUP2 SWAP1 MSTORE POP DUP1 DUP6 PUSH1 0x1 DUP5 PUSH2 0x649 SWAP2 SWAP1 PUSH2 0x134D JUMP JUMPDEST DUP2 MLOAD DUP2 LT PUSH2 0x65A JUMPI PUSH2 0x659 PUSH2 0x102F JUMP JUMPDEST JUMPDEST PUSH1 0x20 MUL PUSH1 0x20 ADD ADD DUP2 SWAP1 MSTORE POP POP JUMPDEST DUP1 DUP1 PUSH2 0x672 SWAP1 PUSH2 0x12D1 JUMP JUMPDEST SWAP2 POP POP PUSH2 0x567 JUMP JUMPDEST POP DUP1 DUP1 PUSH2 0x686 SWAP1 PUSH2 0x12D1 JUMP JUMPDEST SWAP2 POP POP PUSH2 0x550 JUMP JUMPDEST POP JUMPDEST DUP1 DUP3 MSTORE PUSH1 0x0 DUP2 EQ PUSH2 0x6D1 JUMPI PUSH1 0x40 MLOAD DUP1 PUSH1 0x60 ADD PUSH1 0x40 MSTORE DUP1 PUSH1 0x1 ISZERO ISZERO DUP2 MSTORE PUSH1 0x20 ADD DUP4 DUP2 MSTORE PUSH1 0x20 ADD PUSH1 0x40 MLOAD DUP1 PUSH1 0x20 ADD PUSH1 0x40 MSTORE DUP1 PUSH1 0x0 DUP2 MSTORE POP DUP2 MSTORE POP SWAP3 POP POP POP PUSH2 0x760 JUMP JUMPDEST PUSH1 0x40 MLOAD DUP1 PUSH1 0x60 ADD PUSH1 0x40 MSTORE DUP1 PUSH1 0x0 ISZERO ISZERO DUP2 MSTORE PUSH1 0x20 ADD PUSH1 0x0 PUSH8 0xFFFFFFFFFFFFFFFF DUP2 GT ISZERO PUSH2 0x700 JUMPI PUSH2 0x6FF PUSH2 0xA0F JUMP JUMPDEST JUMPDEST PUSH1 0x40 MLOAD SWAP1 DUP1 DUP3 MSTORE DUP1 PUSH1 0x20 MUL PUSH1 0x20 ADD DUP3 ADD PUSH1 0x40 MSTORE DUP1 ISZERO PUSH2 0x739 JUMPI DUP2 PUSH1 0x20 ADD JUMPDEST PUSH2 0x726 PUSH2 0x983 JUMP JUMPDEST DUP2 MSTORE PUSH1 0x20 ADD SWAP1 PUSH1 0x1 SWAP1 SUB SWAP1 DUP2 PUSH2 0x71E JUMPI SWAP1 POP JUMPDEST POP DUP2 MSTORE PUSH1 0x20 ADD PUSH1 0x40 MLOAD DUP1 PUSH1 0x60 ADD PUSH1 0x40 MSTORE DUP1 PUSH1 0x3C DUP2 MSTORE PUSH1 0x20 ADD PUSH2 0x15EB PUSH1 0x3C SWAP2 CODECOPY DUP2 MSTORE POP SWAP3 POP POP POP JUMPDEST SWAP2 SWAP1 POP JUMP JUMPDEST PUSH1 0x2 PUSH1 0x0 SWAP1 SLOAD SWAP1 PUSH2 0x100 EXP SWAP1 DIV PUSH20 0xFFFFFFFFFFFFFFFFFFFFFFFFFFFFFFFFFFFFFFFF AND PUSH20 0xFFFFFFFFFFFFFFFFFFFFFFFFFFFFFFFFFFFFFFFF AND CALLER PUSH20 0xFFFFFFFFFFFFFFFFFFFFFFFFFFFFFFFFFFFFFFFF AND EQ DUP1 ISZERO PUSH2 0x7ED JUMPI POP DUP3 PUSH20 0xFFFFFFFFFFFFFFFFFFFFFFFFFFFFFFFFFFFFFFFF AND DUP4 PUSH20 0xFFFFFFFFFFFFFFFFFFFFFFFFFFFFFFFFFFFFFFFF AND EQ JUMPDEST ISZERO PUSH2 0x959 JUMPI PUSH1 0x0 PUSH1 0x40 MLOAD DUP1 PUSH1 0xC0 ADD PUSH1 0x40 MSTORE DUP1 DUP7 DUP2 MSTORE PUSH1 0x20 ADD DUP6 PUSH20 0xFFFFFFFFFFFFFFFFFFFFFFFFFFFFFFFFFFFFFFFF AND DUP2 MSTORE PUSH1 0x20 ADD TIMESTAMP DUP2 MSTORE PUSH1 0x20 ADD DUP4 DUP2 MSTORE PUSH1 0x20 ADD DUP5 DUP2 MSTORE PUSH1 0x20 ADD DUP8 PUSH20 0xFFFFFFFFFFFFFFFFFFFFFFFFFFFFFFFFFFFFFFFF AND DUP2 MSTORE POP SWAP1 POP PUSH1 0x0 DUP2 SWAP1 DUP1 PUSH1 0x1 DUP2 SLOAD ADD DUP1 DUP3 SSTORE DUP1 SWAP2 POP POP PUSH1 0x1 SWAP1 SUB SWAP1 PUSH1 0x0 MSTORE PUSH1 0x20 PUSH1 0x0 KECCAK256 SWAP1 PUSH1 0x6 MUL ADD PUSH1 0x0 SWAP1 SWAP2 SWAP1 SWAP2 SWAP1 SWAP2 POP PUSH1 0x0 DUP3 ADD MLOAD DUP2 PUSH1 0x0 ADD SWAP1 DUP2 PUSH2 0x890 SWAP2 SWAP1 PUSH2 0x1518 JUMP JUMPDEST POP PUSH1 0x20 DUP3 ADD MLOAD DUP2 PUSH1 0x1 ADD PUSH1 0x0 PUSH2 0x100 EXP DUP2 SLOAD DUP2 PUSH20 0xFFFFFFFFFFFFFFFFFFFFFFFFFFFFFFFFFFFFFFFF MUL NOT AND SWAP1 DUP4 PUSH20 0xFFFFFFFFFFFFFFFFFFFFFFFFFFFFFFFFFFFFFFFF AND MUL OR SWAP1 SSTORE POP PUSH1 0x40 DUP3 ADD MLOAD DUP2 PUSH1 0x2 ADD SSTORE PUSH1 0x60 DUP3 ADD MLOAD DUP2 PUSH1 0x3 ADD SWAP1 DUP2 PUSH2 0x8F7 SWAP2 SWAP1 PUSH2 0x1518 JUMP JUMPDEST POP PUSH1 0x80 DUP3 ADD MLOAD DUP2 PUSH1 0x4 ADD SWAP1 DUP2 PUSH2 0x90D SWAP2 SWAP1 PUSH2 0x1518 JUMP JUMPDEST POP PUSH1 0xA0 DUP3 ADD MLOAD DUP2 PUSH1 0x5 ADD PUSH1 0x0 PUSH2 0x100 EXP DUP2 SLOAD DUP2 PUSH20 0xFFFFFFFFFFFFFFFFFFFFFFFFFFFFFFFFFFFFFFFF MUL NOT AND SWAP1 DUP4 PUSH20 0xFFFFFFFFFFFFFFFFFFFFFFFFFFFFFFFFFFFFFFFF AND MUL OR SWAP1 SSTORE POP POP POP POP JUMPDEST POP POP POP POP POP JUMP JUMPDEST PUSH1 0x40 MLOAD DUP1 PUSH1 0x60 ADD PUSH1 0x40 MSTORE DUP1 PUSH1 0x0 ISZERO ISZERO DUP2 MSTORE PUSH1 0x20 ADD PUSH1 0x60 DUP2 MSTORE PUSH1 0x20 ADD PUSH1 0x60 DUP2 MSTORE POP SWAP1 JUMP JUMPDEST PUSH1 0x40 MLOAD DUP1 PUSH1 0xC0 ADD PUSH1 0x40 MSTORE DUP1 PUSH1 0x60 DUP2 MSTORE PUSH1 0x20 ADD PUSH1 0x0 PUSH20 0xFFFFFFFFFFFFFFFFFFFFFFFFFFFFFFFFFFFFFFFF AND DUP2 MSTORE PUSH1 0x20 ADD PUSH1 0x0 DUP2 MSTORE PUSH1 0x20 ADD PUSH1 0x60 DUP2 MSTORE PUSH1 0x20 ADD PUSH1 0x60 DUP2 MSTORE PUSH1 0x20 ADD PUSH1 0x0 PUSH20 0xFFFFFFFFFFFFFFFFFFFFFFFFFFFFFFFFFFFFFFFF AND DUP2 MSTORE POP SWAP1 JUMP JUMPDEST PUSH1 0x0 PUSH1 0x40 MLOAD SWAP1 POP SWAP1 JUMP JUMPDEST PUSH1 0x0 DUP1 REVERT JUMPDEST PUSH1 0x0 DUP1 REVERT JUMPDEST PUSH1 0x0 DUP1 REVERT JUMPDEST PUSH1 0x0 PUSH1 0x1F NOT PUSH1 0x1F DUP4 ADD AND SWAP1 POP SWAP2 SWAP1 POP JUMP JUMPDEST PUSH32 0x4E487B7100000000000000000000000000000000000000000000000000000000 PUSH1 0x0 MSTORE PUSH1 0x41 PUSH1 0x4 MSTORE PUSH1 0x24 PUSH1 0x0 REVERT JUMPDEST PUSH2 0xA47 DUP3 PUSH2 0x9FE JUMP JUMPDEST DUP2 ADD DUP2 DUP2 LT PUSH8 0xFFFFFFFFFFFFFFFF DUP3 GT OR ISZERO PUSH2 0xA66 JUMPI PUSH2 0xA65 PUSH2 0xA0F JUMP JUMPDEST JUMPDEST DUP1 PUSH1 0x40 MSTORE POP POP POP JUMP JUMPDEST PUSH1 0x0 PUSH2 0xA79 PUSH2 0x9E5 JUMP JUMPDEST SWAP1 POP PUSH2 0xA85 DUP3 DUP3 PUSH2 0xA3E JUMP JUMPDEST SWAP2 SWAP1 POP JUMP JUMPDEST PUSH1 0x0 PUSH8 0xFFFFFFFFFFFFFFFF DUP3 GT ISZERO PUSH2 0xAA5 JUMPI PUSH2 0xAA4 PUSH2 0xA0F JUMP JUMPDEST JUMPDEST PUSH1 0x20 DUP3 MUL SWAP1 POP PUSH1 0x20 DUP2 ADD SWAP1 POP SWAP2 SWAP1 POP JUMP JUMPDEST PUSH1 0x0 DUP1 REVERT JUMPDEST PUSH1 0x0 DUP1 REVERT JUMPDEST PUSH1 0x0 PUSH8 0xFFFFFFFFFFFFFFFF DUP3 GT ISZERO PUSH2 0xADB JUMPI PUSH2 0xADA PUSH2 0xA0F JUMP JUMPDEST JUMPDEST PUSH2 0xAE4 DUP3 PUSH2 0x9FE JUMP JUMPDEST SWAP1 POP PUSH1 0x20 DUP2 ADD SWAP1 POP SWAP2 SWAP1 POP JUMP JUMPDEST DUP3 DUP2 DUP4 CALLDATACOPY PUSH1 0x0 DUP4 DUP4 ADD MSTORE POP POP POP JUMP JUMPDEST PUSH1 0x0 PUSH2 0xB13 PUSH2 0xB0E DUP5 PUSH2 0xAC0 JUMP JUMPDEST PUSH2 0xA6F JUMP JUMPDEST SWAP1 POP DUP3 DUP2 MSTORE PUSH1 0x20 DUP2 ADD DUP5 DUP5 DUP5 ADD GT ISZERO PUSH2 0xB2F JUMPI PUSH2 0xB2E PUSH2 0xABB JUMP JUMPDEST JUMPDEST PUSH2 0xB3A DUP5 DUP3 DUP6 PUSH2 0xAF1 JUMP JUMPDEST POP SWAP4 SWAP3 POP POP POP JUMP JUMPDEST PUSH1 0x0 DUP3 PUSH1 0x1F DUP4 ADD SLT PUSH2 0xB57 JUMPI PUSH2 0xB56 PUSH2 0x9F9 JUMP JUMPDEST JUMPDEST DUP2 CALLDATALOAD PUSH2 0xB67 DUP5 DUP3 PUSH1 0x20 DUP7 ADD PUSH2 0xB00 JUMP JUMPDEST SWAP2 POP POP SWAP3 SWAP2 POP POP JUMP JUMPDEST PUSH1 0x0 PUSH2 0xB83 PUSH2 0xB7E DUP5 PUSH2 0xA8A JUMP JUMPDEST PUSH2 0xA6F JUMP JUMPDEST SWAP1 POP DUP1 DUP4 DUP3 MSTORE PUSH1 0x20 DUP3 ADD SWAP1 POP PUSH1 0x20 DUP5 MUL DUP4 ADD DUP6 DUP2 GT ISZERO PUSH2 0xBA6 JUMPI PUSH2 0xBA5 PUSH2 0xAB6 JUMP JUMPDEST JUMPDEST DUP4 JUMPDEST DUP2 DUP2 LT ISZERO PUSH2 0xBED JUMPI DUP1 CALLDATALOAD PUSH8 0xFFFFFFFFFFFFFFFF DUP2 GT ISZERO PUSH2 0xBCB JUMPI PUSH2 0xBCA PUSH2 0x9F9 JUMP JUMPDEST JUMPDEST DUP1 DUP7 ADD PUSH2 0xBD8 DUP10 DUP3 PUSH2 0xB42 JUMP JUMPDEST DUP6 MSTORE PUSH1 0x20 DUP6 ADD SWAP5 POP POP POP PUSH1 0x20 DUP2 ADD SWAP1 POP PUSH2 0xBA8 JUMP JUMPDEST POP POP POP SWAP4 SWAP3 POP POP POP JUMP JUMPDEST PUSH1 0x0 DUP3 PUSH1 0x1F DUP4 ADD SLT PUSH2 0xC0C JUMPI PUSH2 0xC0B PUSH2 0x9F9 JUMP JUMPDEST JUMPDEST DUP2 CALLDATALOAD PUSH2 0xC1C DUP5 DUP3 PUSH1 0x20 DUP7 ADD PUSH2 0xB70 JUMP JUMPDEST SWAP2 POP POP SWAP3 SWAP2 POP POP JUMP JUMPDEST PUSH1 0x0 PUSH1 0x20 DUP3 DUP5 SUB SLT ISZERO PUSH2 0xC3B JUMPI PUSH2 0xC3A PUSH2 0x9EF JUMP JUMPDEST JUMPDEST PUSH1 0x0 DUP3 ADD CALLDATALOAD PUSH8 0xFFFFFFFFFFFFFFFF DUP2 GT ISZERO PUSH2 0xC59 JUMPI PUSH2 0xC58 PUSH2 0x9F4 JUMP JUMPDEST JUMPDEST PUSH2 0xC65 DUP5 DUP3 DUP6 ADD PUSH2 0xBF7 JUMP JUMPDEST SWAP2 POP POP SWAP3 SWAP2 POP POP JUMP JUMPDEST PUSH1 0x0 DUP2 ISZERO ISZERO SWAP1 POP SWAP2 SWAP1 POP JUMP JUMPDEST PUSH2 0xC83 DUP2 PUSH2 0xC6E JUMP JUMPDEST DUP3 MSTORE POP POP JUMP JUMPDEST PUSH1 0x0 DUP2 MLOAD SWAP1 POP SWAP2 SWAP1 POP JUMP JUMPDEST PUSH1 0x0 DUP3 DUP3 MSTORE PUSH1 0x20 DUP3 ADD SWAP1 POP SWAP3 SWAP2 POP POP JUMP JUMPDEST PUSH1 0x0 DUP2 SWAP1 POP PUSH1 0x20 DUP3 ADD SWAP1 POP SWAP2 SWAP1 POP JUMP JUMPDEST PUSH1 0x0 DUP2 MLOAD SWAP1 POP SWAP2 SWAP1 POP JUMP JUMPDEST PUSH1 0x0 DUP3 DUP3 MSTORE PUSH1 0x20 DUP3 ADD SWAP1 POP SWAP3 SWAP2 POP POP JUMP JUMPDEST PUSH1 0x0 JUMPDEST DUP4 DUP2 LT ISZERO PUSH2 0xCEF JUMPI DUP1 DUP3 ADD MLOAD DUP2 DUP5 ADD MSTORE PUSH1 0x20 DUP2 ADD SWAP1 POP PUSH2 0xCD4 JUMP JUMPDEST PUSH1 0x0 DUP5 DUP5 ADD MSTORE POP POP POP POP JUMP JUMPDEST PUSH1 0x0 PUSH2 0xD06 DUP3 PUSH2 0xCB5 JUMP JUMPDEST PUSH2 0xD10 DUP2 DUP6 PUSH2 0xCC0 JUMP JUMPDEST SWAP4 POP PUSH2 0xD20 DUP2 DUP6 PUSH1 0x20 DUP7 ADD PUSH2 0xCD1 JUMP JUMPDEST PUSH2 0xD29 DUP2 PUSH2 0x9FE JUMP JUMPDEST DUP5 ADD SWAP2 POP POP SWAP3 SWAP2 POP POP JUMP JUMPDEST PUSH1 0x0 PUSH20 0xFFFFFFFFFFFFFFFFFFFFFFFFFFFFFFFFFFFFFFFF DUP3 AND SWAP1 POP SWAP2 SWAP1 POP JUMP JUMPDEST PUSH1 0x0 PUSH2 0xD5F DUP3 PUSH2 0xD34 JUMP JUMPDEST SWAP1 POP SWAP2 SWAP1 POP JUMP JUMPDEST PUSH2 0xD6F DUP2 PUSH2 0xD54 JUMP JUMPDEST DUP3 MSTORE POP POP JUMP JUMPDEST PUSH1 0x0 DUP2 SWAP1 POP SWAP2 SWAP1 POP JUMP JUMPDEST PUSH2 0xD88 DUP2 PUSH2 0xD75 JUMP JUMPDEST DUP3 MSTORE POP POP JUMP JUMPDEST PUSH1 0x0 PUSH1 0xC0 DUP4 ADD PUSH1 0x0 DUP4 ADD MLOAD DUP5 DUP3 SUB PUSH1 0x0 DUP7 ADD MSTORE PUSH2 0xDAB DUP3 DUP3 PUSH2 0xCFB JUMP JUMPDEST SWAP2 POP POP PUSH1 0x20 DUP4 ADD MLOAD PUSH2 0xDC0 PUSH1 0x20 DUP7 ADD DUP3 PUSH2 0xD66 JUMP JUMPDEST POP PUSH1 0x40 DUP4 ADD MLOAD PUSH2 0xDD3 PUSH1 0x40 DUP7 ADD DUP3 PUSH2 0xD7F JUMP JUMPDEST POP PUSH1 0x60 DUP4 ADD MLOAD DUP5 DUP3 SUB PUSH1 0x60 DUP7 ADD MSTORE PUSH2 0xDEB DUP3 DUP3 PUSH2 0xCFB JUMP JUMPDEST SWAP2 POP POP PUSH1 0x80 DUP4 ADD MLOAD DUP5 DUP3 SUB PUSH1 0x80 DUP7 ADD MSTORE PUSH2 0xE05 DUP3 DUP3 PUSH2 0xCFB JUMP JUMPDEST SWAP2 POP POP PUSH1 0xA0 DUP4 ADD MLOAD PUSH2 0xE1A PUSH1 0xA0 DUP7 ADD DUP3 PUSH2 0xD66 JUMP JUMPDEST POP DUP1 SWAP2 POP POP SWAP3 SWAP2 POP POP JUMP JUMPDEST PUSH1 0x0 PUSH2 0xE31 DUP4 DUP4 PUSH2 0xD8E JUMP JUMPDEST SWAP1 POP SWAP3 SWAP2 POP POP JUMP JUMPDEST PUSH1 0x0 PUSH1 0x20 DUP3 ADD SWAP1 POP SWAP2 SWAP1 POP JUMP JUMPDEST PUSH1 0x0 PUSH2 0xE51 DUP3 PUSH2 0xC89 JUMP JUMPDEST PUSH2 0xE5B DUP2 DUP6 PUSH2 0xC94 JUMP JUMPDEST SWAP4 POP DUP4 PUSH1 0x20 DUP3 MUL DUP6 ADD PUSH2 0xE6D DUP6 PUSH2 0xCA5 JUMP JUMPDEST DUP1 PUSH1 0x0 JUMPDEST DUP6 DUP2 LT ISZERO PUSH2 0xEA9 JUMPI DUP5 DUP5 SUB DUP10 MSTORE DUP2 MLOAD PUSH2 0xE8A DUP6 DUP3 PUSH2 0xE25 JUMP JUMPDEST SWAP5 POP PUSH2 0xE95 DUP4 PUSH2 0xE39 JUMP JUMPDEST SWAP3 POP PUSH1 0x20 DUP11 ADD SWAP10 POP POP PUSH1 0x1 DUP2 ADD SWAP1 POP PUSH2 0xE71 JUMP JUMPDEST POP DUP3 SWAP8 POP DUP8 SWAP6 POP POP POP POP POP POP SWAP3 SWAP2 POP POP JUMP JUMPDEST PUSH1 0x0 PUSH1 0x60 DUP4 ADD PUSH1 0x0 DUP4 ADD MLOAD PUSH2 0xED3 PUSH1 0x0 DUP7 ADD DUP3 PUSH2 0xC7A JUMP JUMPDEST POP PUSH1 0x20 DUP4 ADD MLOAD DUP5 DUP3 SUB PUSH1 0x20 DUP7 ADD MSTORE PUSH2 0xEEB DUP3 DUP3 PUSH2 0xE46 JUMP JUMPDEST SWAP2 POP POP PUSH1 0x40 DUP4 ADD MLOAD DUP5 DUP3 SUB PUSH1 0x40 DUP7 ADD MSTORE PUSH2 0xF05 DUP3 DUP3 PUSH2 0xCFB JUMP JUMPDEST SWAP2 POP POP DUP1 SWAP2 POP POP SWAP3 SWAP2 POP POP JUMP JUMPDEST PUSH1 0x0 PUSH1 0x20 DUP3 ADD SWAP1 POP DUP2 DUP2 SUB PUSH1 0x0 DUP4 ADD MSTORE PUSH2 0xF2C DUP2 DUP5 PUSH2 0xEBB JUMP JUMPDEST SWAP1 POP SWAP3 SWAP2 POP POP JUMP JUMPDEST PUSH2 0xF3D DUP2 PUSH2 0xD54 JUMP JUMPDEST DUP2 EQ PUSH2 0xF48 JUMPI PUSH1 0x0 DUP1 REVERT JUMPDEST POP JUMP JUMPDEST PUSH1 0x0 DUP2 CALLDATALOAD SWAP1 POP PUSH2 0xF5A DUP2 PUSH2 0xF34 JUMP JUMPDEST SWAP3 SWAP2 POP POP JUMP JUMPDEST PUSH1 0x0 DUP1 PUSH1 0x0 DUP1 PUSH1 0x0 PUSH1 0xA0 DUP7 DUP9 SUB SLT ISZERO PUSH2 0xF7C JUMPI PUSH2 0xF7B PUSH2 0x9EF JUMP JUMPDEST JUMPDEST PUSH1 0x0 PUSH2 0xF8A DUP9 DUP3 DUP10 ADD PUSH2 0xF4B JUMP JUMPDEST SWAP6 POP POP PUSH1 0x20 DUP7 ADD CALLDATALOAD PUSH8 0xFFFFFFFFFFFFFFFF DUP2 GT ISZERO PUSH2 0xFAB JUMPI PUSH2 0xFAA PUSH2 0x9F4 JUMP JUMPDEST JUMPDEST PUSH2 0xFB7 DUP9 DUP3 DUP10 ADD PUSH2 0xB42 JUMP JUMPDEST SWAP5 POP POP PUSH1 0x40 PUSH2 0xFC8 DUP9 DUP3 DUP10 ADD PUSH2 0xF4B JUMP JUMPDEST SWAP4 POP POP PUSH1 0x60 DUP7 ADD CALLDATALOAD PUSH8 0xFFFFFFFFFFFFFFFF DUP2 GT ISZERO PUSH2 0xFE9 JUMPI PUSH2 0xFE8 PUSH2 0x9F4 JUMP JUMPDEST JUMPDEST PUSH2 0xFF5 DUP9 DUP3 DUP10 ADD PUSH2 0xB42 JUMP JUMPDEST SWAP3 POP POP PUSH1 0x80 DUP7 ADD CALLDATALOAD PUSH8 0xFFFFFFFFFFFFFFFF DUP2 GT ISZERO PUSH2 0x1016 JUMPI PUSH2 0x1015 PUSH2 0x9F4 JUMP JUMPDEST JUMPDEST PUSH2 0x1022 DUP9 DUP3 DUP10 ADD PUSH2 0xB42 JUMP JUMPDEST SWAP2 POP POP SWAP3 SWAP6 POP SWAP3 SWAP6 SWAP1 SWAP4 POP JUMP JUMPDEST PUSH32 0x4E487B7100000000000000000000000000000000000000000000000000000000 PUSH1 0x0 MSTORE PUSH1 0x32 PUSH1 0x4 MSTORE PUSH1 0x24 PUSH1 0x0 REVERT JUMPDEST PUSH2 0x1067 DUP2 PUSH2 0xD54 JUMP JUMPDEST DUP3 MSTORE POP POP JUMP JUMPDEST PUSH1 0x0 DUP3 DUP3 MSTORE PUSH1 0x20 DUP3 ADD SWAP1 POP SWAP3 SWAP2 POP POP JUMP JUMPDEST PUSH1 0x0 PUSH2 0x1089 DUP3 PUSH2 0xCB5 JUMP JUMPDEST PUSH2 0x1093 DUP2 DUP6 PUSH2 0x106D JUMP JUMPDEST SWAP4 POP PUSH2 0x10A3 DUP2 DUP6 PUSH1 0x20 DUP7 ADD PUSH2 0xCD1 JUMP JUMPDEST PUSH2 0x10AC DUP2 PUSH2 0x9FE JUMP JUMPDEST DUP5 ADD SWAP2 POP POP SWAP3 SWAP2 POP POP JUMP JUMPDEST PUSH1 0x0 PUSH1 0x40 DUP3 ADD SWAP1 POP PUSH2 0x10CC PUSH1 0x0 DUP4 ADD DUP6 PUSH2 0x105E JUMP JUMPDEST DUP2 DUP2 SUB PUSH1 0x20 DUP4 ADD MSTORE PUSH2 0x10DE DUP2 DUP5 PUSH2 0x107E JUMP JUMPDEST SWAP1 POP SWAP4 SWAP3 POP POP POP JUMP JUMPDEST PUSH2 0x10F0 DUP2 PUSH2 0xC6E JUMP JUMPDEST DUP2 EQ PUSH2 0x10FB JUMPI PUSH1 0x0 DUP1 REVERT JUMPDEST POP JUMP JUMPDEST PUSH1 0x0 DUP2 MLOAD SWAP1 POP PUSH2 0x110D DUP2 PUSH2 0x10E7 JUMP JUMPDEST SWAP3 SWAP2 POP POP JUMP JUMPDEST PUSH1 0x0 PUSH1 0x20 DUP3 DUP5 SUB SLT ISZERO PUSH2 0x1129 JUMPI PUSH2 0x1128 PUSH2 0x9EF JUMP JUMPDEST JUMPDEST PUSH1 0x0 PUSH2 0x1137 DUP5 DUP3 DUP6 ADD PUSH2 0x10FE JUMP JUMPDEST SWAP2 POP POP SWAP3 SWAP2 POP POP JUMP JUMPDEST PUSH1 0x0 DUP2 SWAP1 POP SWAP3 SWAP2 POP POP JUMP JUMPDEST PUSH1 0x0 PUSH2 0x1156 DUP3 PUSH2 0xCB5 JUMP JUMPDEST PUSH2 0x1160 DUP2 DUP6 PUSH2 0x1140 JUMP JUMPDEST SWAP4 POP PUSH2 0x1170 DUP2 DUP6 PUSH1 0x20 DUP7 ADD PUSH2 0xCD1 JUMP JUMPDEST DUP1 DUP5 ADD SWAP2 POP POP SWAP3 SWAP2 POP POP JUMP JUMPDEST PUSH1 0x0 PUSH2 0x1188 DUP3 DUP5 PUSH2 0x114B JUMP JUMPDEST SWAP2 POP DUP2 SWAP1 POP SWAP3 SWAP2 POP POP JUMP JUMPDEST PUSH32 0x4E487B7100000000000000000000000000000000000000000000000000000000 PUSH1 0x0 MSTORE PUSH1 0x22 PUSH1 0x4 MSTORE PUSH1 0x24 PUSH1 0x0 REVERT JUMPDEST PUSH1 0x0 PUSH1 0x2 DUP3 DIV SWAP1 POP PUSH1 0x1 DUP3 AND DUP1 PUSH2 0x11DA JUMPI PUSH1 0x7F DUP3 AND SWAP2 POP JUMPDEST PUSH1 0x20 DUP3 LT DUP2 SUB PUSH2 0x11ED JUMPI PUSH2 0x11EC PUSH2 0x1193 JUMP JUMPDEST JUMPDEST POP SWAP2 SWAP1 POP JUMP JUMPDEST PUSH1 0x0 DUP2 SWAP1 POP DUP2 PUSH1 0x0 MSTORE PUSH1 0x20 PUSH1 0x0 KECCAK256 SWAP1 POP SWAP2 SWAP1 POP JUMP JUMPDEST PUSH1 0x0 DUP2 SLOAD PUSH2 0x1215 DUP2 PUSH2 0x11C2 JUMP JUMPDEST PUSH2 0x121F DUP2 DUP7 PUSH2 0x1140 JUMP JUMPDEST SWAP5 POP PUSH1 0x1 DUP3 AND PUSH1 0x0 DUP2 EQ PUSH2 0x123A JUMPI PUSH1 0x1 DUP2 EQ PUSH2 0x124F JUMPI PUSH2 0x1282 JUMP JUMPDEST PUSH1 0xFF NOT DUP4 AND DUP7 MSTORE DUP2 ISZERO ISZERO DUP3 MUL DUP7 ADD SWAP4 POP PUSH2 0x1282 JUMP JUMPDEST PUSH2 0x1258 DUP6 PUSH2 0x11F3 JUMP JUMPDEST PUSH1 0x0 JUMPDEST DUP4 DUP2 LT ISZERO PUSH2 0x127A JUMPI DUP2 SLOAD DUP2 DUP10 ADD MSTORE PUSH1 0x1 DUP3 ADD SWAP2 POP PUSH1 0x20 DUP2 ADD SWAP1 POP PUSH2 0x125B JUMP JUMPDEST DUP4 DUP9 ADD SWAP6 POP POP POP JUMPDEST POP POP POP SWAP3 SWAP2 POP POP JUMP JUMPDEST PUSH1 0x0 PUSH2 0x1297 DUP3 DUP5 PUSH2 0x1208 JUMP JUMPDEST SWAP2 POP DUP2 SWAP1 POP SWAP3 SWAP2 POP POP JUMP JUMPDEST PUSH32 0x4E487B7100000000000000000000000000000000000000000000000000000000 PUSH1 0x0 MSTORE PUSH1 0x11 PUSH1 0x4 MSTORE PUSH1 0x24 PUSH1 0x0 REVERT JUMPDEST PUSH1 0x0 PUSH2 0x12DC DUP3 PUSH2 0xD75 JUMP JUMPDEST SWAP2 POP PUSH32 0xFFFFFFFFFFFFFFFFFFFFFFFFFFFFFFFFFFFFFFFFFFFFFFFFFFFFFFFFFFFFFFFF DUP3 SUB PUSH2 0x130E JUMPI PUSH2 0x130D PUSH2 0x12A2 JUMP JUMPDEST JUMPDEST PUSH1 0x1 DUP3 ADD SWAP1 POP SWAP2 SWAP1 POP JUMP JUMPDEST PUSH1 0x0 PUSH2 0x1324 DUP3 PUSH2 0xD75 JUMP JUMPDEST SWAP2 POP PUSH2 0x132F DUP4 PUSH2 0xD75 JUMP JUMPDEST SWAP3 POP DUP3 DUP3 SUB SWAP1 POP DUP2 DUP2 GT ISZERO PUSH2 0x1347 JUMPI PUSH2 0x1346 PUSH2 0x12A2 JUMP JUMPDEST JUMPDEST SWAP3 SWAP2 POP POP JUMP JUMPDEST PUSH1 0x0 PUSH2 0x1358 DUP3 PUSH2 0xD75 JUMP JUMPDEST SWAP2 POP PUSH2 0x1363 DUP4 PUSH2 0xD75 JUMP JUMPDEST SWAP3 POP DUP3 DUP3 ADD SWAP1 POP DUP1 DUP3 GT ISZERO PUSH2 0x137B JUMPI PUSH2 0x137A PUSH2 0x12A2 JUMP JUMPDEST JUMPDEST SWAP3 SWAP2 POP POP JUMP JUMPDEST PUSH1 0x0 PUSH1 0x20 PUSH1 0x1F DUP4 ADD DIV SWAP1 POP SWAP2 SWAP1 POP JUMP JUMPDEST PUSH1 0x0 DUP3 DUP3 SHL SWAP1 POP SWAP3 SWAP2 POP POP JUMP JUMPDEST PUSH1 0x0 PUSH1 0x8 DUP4 MUL PUSH2 0x13CE PUSH32 0xFFFFFFFFFFFFFFFFFFFFFFFFFFFFFFFFFFFFFFFFFFFFFFFFFFFFFFFFFFFFFFFF DUP3 PUSH2 0x1391 JUMP JUMPDEST PUSH2 0x13D8 DUP7 DUP4 PUSH2 0x1391 JUMP JUMPDEST SWAP6 POP DUP1 NOT DUP5 AND SWAP4 POP DUP1 DUP7 AND DUP5 OR SWAP3 POP POP POP SWAP4 SWAP3 POP POP POP JUMP JUMPDEST PUSH1 0x0 DUP2 SWAP1 POP SWAP2 SWAP1 POP JUMP JUMPDEST PUSH1 0x0 PUSH2 0x1415 PUSH2 0x1410 PUSH2 0x140B DUP5 PUSH2 0xD75 JUMP JUMPDEST PUSH2 0x13F0 JUMP JUMPDEST PUSH2 0xD75 JUMP JUMPDEST SWAP1 POP SWAP2 SWAP1 POP JUMP JUMPDEST PUSH1 0x0 DUP2 SWAP1 POP SWAP2 SWAP1 POP JUMP JUMPDEST PUSH2 0x142F DUP4 PUSH2 0x13FA JUMP JUMPDEST PUSH2 0x1443 PUSH2 0x143B DUP3 PUSH2 0x141C JUMP JUMPDEST DUP5 DUP5 SLOAD PUSH2 0x139E JUMP JUMPDEST DUP3 SSTORE POP POP POP POP JUMP JUMPDEST PUSH1 0x0 SWAP1 JUMP JUMPDEST PUSH2 0x1458 PUSH2 0x144B JUMP JUMPDEST PUSH2 0x1463 DUP2 DUP5 DUP5 PUSH2 0x1426 JUMP JUMPDEST POP POP POP JUMP JUMPDEST JUMPDEST DUP2 DUP2 LT ISZERO PUSH2 0x1487 JUMPI PUSH2 0x147C PUSH1 0x0 DUP3 PUSH2 0x1450 JUMP JUMPDEST PUSH1 0x1 DUP2 ADD SWAP1 POP PUSH2 0x1469 JUMP JUMPDEST POP POP JUMP JUMPDEST PUSH1 0x1F DUP3 GT ISZERO PUSH2 0x14CC JUMPI PUSH2 0x149D DUP2 PUSH2 0x11F3 JUMP JUMPDEST PUSH2 0x14A6 DUP5 PUSH2 0x1381 JUMP JUMPDEST DUP2 ADD PUSH1 0x20 DUP6 LT ISZERO PUSH2 0x14B5 JUMPI DUP2 SWAP1 POP JUMPDEST PUSH2 0x14C9 PUSH2 0x14C1 DUP6 PUSH2 0x1381 JUMP JUMPDEST DUP4 ADD DUP3 PUSH2 0x1468 JUMP JUMPDEST POP POP JUMPDEST POP POP POP JUMP JUMPDEST PUSH1 0x0 DUP3 DUP3 SHR SWAP1 POP SWAP3 SWAP2 POP POP JUMP JUMPDEST PUSH1 0x0 PUSH2 0x14EF PUSH1 0x0 NOT DUP5 PUSH1 0x8 MUL PUSH2 0x14D1 JUMP JUMPDEST NOT DUP1 DUP4 AND SWAP2 POP POP SWAP3 SWAP2 POP POP JUMP JUMPDEST PUSH1 0x0 PUSH2 0x1508 DUP4 DUP4 PUSH2 0x14DE JUMP JUMPDEST SWAP2 POP DUP3 PUSH1 0x2 MUL DUP3 OR SWAP1 POP SWAP3 SWAP2 POP POP JUMP JUMPDEST PUSH2 0x1521 DUP3 PUSH2 0xCB5 JUMP JUMPDEST PUSH8 0xFFFFFFFFFFFFFFFF DUP2 GT ISZERO PUSH2 0x153A JUMPI PUSH2 0x1539 PUSH2 0xA0F JUMP JUMPDEST JUMPDEST PUSH2 0x1544 DUP3 SLOAD PUSH2 0x11C2 JUMP JUMPDEST PUSH2 0x154F DUP3 DUP3 DUP6 PUSH2 0x148B JUMP JUMPDEST PUSH1 0x0 PUSH1 0x20 SWAP1 POP PUSH1 0x1F DUP4 GT PUSH1 0x1 DUP2 EQ PUSH2 0x1582 JUMPI PUSH1 0x0 DUP5 ISZERO PUSH2 0x1570 JUMPI DUP3 DUP8 ADD MLOAD SWAP1 POP JUMPDEST PUSH2 0x157A DUP6 DUP3 PUSH2 0x14FC JUMP JUMPDEST DUP7 SSTORE POP PUSH2 0x15E2 JUMP JUMPDEST PUSH1 0x1F NOT DUP5 AND PUSH2 0x1590 DUP7 PUSH2 0x11F3 JUMP JUMPDEST PUSH1 0x0 JUMPDEST DUP3 DUP2 LT ISZERO PUSH2 0x15B8 JUMPI DUP5 DUP10 ADD MLOAD DUP3 SSTORE PUSH1 0x1 DUP3 ADD SWAP2 POP PUSH1 0x20 DUP6 ADD SWAP5 POP PUSH1 0x20 DUP2 ADD SWAP1 POP PUSH2 0x1593 JUMP JUMPDEST DUP7 DUP4 LT ISZERO PUSH2 0x15D5 JUMPI DUP5 DUP10 ADD MLOAD PUSH2 0x15D1 PUSH1 0x1F DUP10 AND DUP3 PUSH2 0x14DE JUMP JUMPDEST DUP4 SSTORE POP JUMPDEST PUSH1 0x1 PUSH1 0x2 DUP9 MUL ADD DUP9 SSTORE POP POP POP JUMPDEST POP POP POP POP POP POP JUMP INVALID SLOAD PUSH9 0x65207472616E736163 PUSH21 0x696F6E2065786563757465722068617320746F2062 PUSH6 0x206173736F63 PUSH10 0x61746564207769746820 PUSH21 0x68652066696C652EA264697066735822122059348A PUSH18 0xB716303004065CCF9A8409EE26B747392A06 0xE8 SELFDESTRUCT SGT PUSH25 0xA3A090B4700E64736F6C634300081300330000000000000000 "},"methodIdentifiers":{"deactivateFile(address,string)":"c61e6663","downloadFileAudit(string,address)":"67cc916b","editFile((string,string,int256,string,address,string,string,string,string),(string,string,int256,string,address,string,string,string,string),address[],string[])":"4e2fc7d2","elegibleToShare(address,string)":"b58ea3a2","elegibleToUpdPermissions(address,string)":"2321f318","getAllEncSymmetricKeyFileUser(address,string)":"d2ab62b4","getAuditLogControlAddress()":"b714fb20","getEncSymmetricKeyFileUser(address,string)":"a126d94c","getFileRegisterAddress()":"5dab19e4","getPermissionsOverFile(address,string)":"173cd558","getUserFiles(address,string)":"09763727","getUserRegisterAddress()":"874a22ed","getUsersAssociatedWithFile(string)":"4c23fe99","recordFileVerification(address,string)":"af00c05d","removeUserFileAssociation(address,string)":"db54cc8c","shareFile(address,string,string[],string[])":"c5f5a232","updateUserFilePermissions(address,string,string[])":"8af34fbc","uploadFile(address,(string,string,int256,string,address,string,string,string,string),string)":"fe17fccc","userAssociatedWithFile(address,string)":"1ac47dd0","userAssociatedWithFileName(address,string)":"c19dcf89","verifyValidFile(address,string)":"17b5be0f"}}}}}