{
  "_format": "hh-sol-artifact-1",
  "contractName": "FileRegister",
  "sourceName": "contracts/FileRegister.sol",
  "abi": [
    {
      "inputs": [
        {
          "internalType": "string",
          "name": "fileIpfsCid",
          "type": "string"
        }
      ],
      "name": "getFileByIpfsCID",
      "outputs": [
        {
          "components": [
            {
              "internalType": "string",
              "name": "ipfsCID",
              "type": "string"
            },
            {
              "internalType": "string",
              "name": "fileName",
              "type": "string"
            },
            {
              "internalType": "address",
              "name": "owner",
              "type": "address"
            },
            {
              "internalType": "string",
              "name": "fileType",
              "type": "string"
            },
            {
              "internalType": "string",
              "name": "iv",
              "type": "string"
            }
          ],
          "internalType": "struct FileRegister.File",
          "name": "",
          "type": "tuple"
        }
      ],
      "stateMutability": "view",
      "type": "function"
    },
    {
      "inputs": [],
      "name": "getFiles",
      "outputs": [
        {
          "components": [
            {
              "internalType": "string",
              "name": "ipfsCID",
              "type": "string"
            },
            {
              "internalType": "string",
              "name": "fileName",
              "type": "string"
            },
            {
              "internalType": "address",
              "name": "owner",
              "type": "address"
            },
            {
              "internalType": "string",
              "name": "fileType",
              "type": "string"
            },
            {
              "internalType": "string",
              "name": "iv",
              "type": "string"
            }
          ],
          "internalType": "struct FileRegister.File[]",
          "name": "",
          "type": "tuple[]"
        }
      ],
      "stateMutability": "view",
      "type": "function"
    },
    {
      "inputs": [
        {
          "components": [
            {
              "internalType": "string",
              "name": "ipfsCID",
              "type": "string"
            },
            {
              "internalType": "string",
              "name": "fileName",
              "type": "string"
            },
            {
              "internalType": "address",
              "name": "owner",
              "type": "address"
            },
            {
              "internalType": "string",
              "name": "fileType",
              "type": "string"
            },
            {
              "internalType": "string",
              "name": "iv",
              "type": "string"
            }
          ],
          "internalType": "struct FileRegister.File",
          "name": "file",
          "type": "tuple"
        }
      ],
      "name": "uploadFile",
      "outputs": [],
      "stateMutability": "nonpayable",
      "type": "function"
    }
  ],
  "bytecode": "0x608060405234801561001057600080fd5b50611365806100206000396000f3fe608060405234801561001057600080fd5b50600436106100415760003560e01c80632da96d7314610046578063923a2803146100645780639f5937f814610080575b600080fd5b61004e6100b0565b60405161005b9190610ad8565b60405180910390f35b61007e60048036038101906100799190610d75565b6103ad565b005b61009a60048036038101906100959190610dbe565b61047d565b6040516100a79190610e92565b60405180910390f35b60606000805480602002602001604051908101604052809291908181526020016000905b828210156103a457838290600052602060002090600502016040518060a001604052908160008201805461010790610ee3565b80601f016020809104026020016040519081016040528092919081815260200182805461013390610ee3565b80156101805780601f1061015557610100808354040283529160200191610180565b820191906000526020600020905b81548152906001019060200180831161016357829003601f168201915b5050505050815260200160018201805461019990610ee3565b80601f01602080910402602001604051908101604052809291908181526020018280546101c590610ee3565b80156102125780601f106101e757610100808354040283529160200191610212565b820191906000526020600020905b8154815290600101906020018083116101f557829003601f168201915b505050505081526020016002820160009054906101000a900473ffffffffffffffffffffffffffffffffffffffff1673ffffffffffffffffffffffffffffffffffffffff1673ffffffffffffffffffffffffffffffffffffffff16815260200160038201805461028190610ee3565b80601f01602080910402602001604051908101604052809291908181526020018280546102ad90610ee3565b80156102fa5780601f106102cf576101008083540402835291602001916102fa565b820191906000526020600020905b8154815290600101906020018083116102dd57829003601f168201915b5050505050815260200160048201805461031390610ee3565b80601f016020809104026020016040519081016040528092919081815260200182805461033f90610ee3565b801561038c5780601f106103615761010080835404028352916020019161038c565b820191906000526020600020905b81548152906001019060200180831161036f57829003601f168201915b505050505081525050815260200190600101906100d4565b50505050905090565b600081908060018154018082558091505060019003906000526020600020906005020160009091909190915060008201518160000190816103ee91906110ca565b50602082015181600101908161040491906110ca565b5060408201518160020160006101000a81548173ffffffffffffffffffffffffffffffffffffffff021916908373ffffffffffffffffffffffffffffffffffffffff160217905550606082015181600301908161046191906110ca565b50608082015181600401908161047791906110ca565b50505050565b610485610875565b60005b6000805490508110156107f257826040516020016104a691906111d8565b60405160208183030381529060405280519060200120600082815481106104d0576104cf6111ef565b5b90600052602060002090600502016000016040516020016104f191906112a1565b60405160208183030381529060405280519060200120036107df57600081815481106105205761051f6111ef565b5b90600052602060002090600502016040518060a001604052908160008201805461054990610ee3565b80601f016020809104026020016040519081016040528092919081815260200182805461057590610ee3565b80156105c25780601f10610597576101008083540402835291602001916105c2565b820191906000526020600020905b8154815290600101906020018083116105a557829003601f168201915b505050505081526020016001820180546105db90610ee3565b80601f016020809104026020016040519081016040528092919081815260200182805461060790610ee3565b80156106545780601f1061062957610100808354040283529160200191610654565b820191906000526020600020905b81548152906001019060200180831161063757829003601f168201915b505050505081526020016002820160009054906101000a900473ffffffffffffffffffffffffffffffffffffffff1673ffffffffffffffffffffffffffffffffffffffff1673ffffffffffffffffffffffffffffffffffffffff1681526020016003820180546106c390610ee3565b80601f01602080910402602001604051908101604052809291908181526020018280546106ef90610ee3565b801561073c5780601f106107115761010080835404028352916020019161073c565b820191906000526020600020905b81548152906001019060200180831161071f57829003601f168201915b5050505050815260200160048201805461075590610ee3565b80601f016020809104026020016040519081016040528092919081815260200182805461078190610ee3565b80156107ce5780601f106107a3576101008083540402835291602001916107ce565b820191906000526020600020905b8154815290600101906020018083116107b157829003601f168201915b505050505081525050915050610870565b80806107ea906112e7565b915050610488565b506040518060a00160405280604051806020016040528060008152508152602001604051806020016040528060008152508152602001600073ffffffffffffffffffffffffffffffffffffffff1681526020016040518060200160405280600081525081526020016040518060200160405280600081525081525090505b919050565b6040518060a001604052806060815260200160608152602001600073ffffffffffffffffffffffffffffffffffffffff16815260200160608152602001606081525090565b600081519050919050565b600082825260208201905092915050565b6000819050602082019050919050565b600081519050919050565b600082825260208201905092915050565b60005b83811015610920578082015181840152602081019050610905565b60008484015250505050565b6000601f19601f8301169050919050565b6000610948826108e6565b61095281856108f1565b9350610962818560208601610902565b61096b8161092c565b840191505092915050565b600073ffffffffffffffffffffffffffffffffffffffff82169050919050565b60006109a182610976565b9050919050565b6109b181610996565b82525050565b600060a08301600083015184820360008601526109d4828261093d565b915050602083015184820360208601526109ee828261093d565b9150506040830151610a0360408601826109a8565b5060608301518482036060860152610a1b828261093d565b91505060808301518482036080860152610a35828261093d565b9150508091505092915050565b6000610a4e83836109b7565b905092915050565b6000602082019050919050565b6000610a6e826108ba565b610a7881856108c5565b935083602082028501610a8a856108d6565b8060005b85811015610ac65784840389528151610aa78582610a42565b9450610ab283610a56565b925060208a01995050600181019050610a8e565b50829750879550505050505092915050565b60006020820190508181036000830152610af28184610a63565b905092915050565b6000604051905090565b600080fd5b600080fd5b600080fd5b7f4e487b7100000000000000000000000000000000000000000000000000000000600052604160045260246000fd5b610b4b8261092c565b810181811067ffffffffffffffff82111715610b6a57610b69610b13565b5b80604052505050565b6000610b7d610afa565b9050610b898282610b42565b919050565b600080fd5b600080fd5b600080fd5b600067ffffffffffffffff821115610bb857610bb7610b13565b5b610bc18261092c565b9050602081019050919050565b82818337600083830152505050565b6000610bf0610beb84610b9d565b610b73565b905082815260208101848484011115610c0c57610c0b610b98565b5b610c17848285610bce565b509392505050565b600082601f830112610c3457610c33610b93565b5b8135610c44848260208601610bdd565b91505092915050565b610c5681610996565b8114610c6157600080fd5b50565b600081359050610c7381610c4d565b92915050565b600060a08284031215610c8f57610c8e610b0e565b5b610c9960a0610b73565b9050600082013567ffffffffffffffff811115610cb957610cb8610b8e565b5b610cc584828501610c1f565b600083015250602082013567ffffffffffffffff811115610ce957610ce8610b8e565b5b610cf584828501610c1f565b6020830152506040610d0984828501610c64565b604083015250606082013567ffffffffffffffff811115610d2d57610d2c610b8e565b5b610d3984828501610c1f565b606083015250608082013567ffffffffffffffff811115610d5d57610d5c610b8e565b5b610d6984828501610c1f565b60808301525092915050565b600060208284031215610d8b57610d8a610b04565b5b600082013567ffffffffffffffff811115610da957610da8610b09565b5b610db584828501610c79565b91505092915050565b600060208284031215610dd457610dd3610b04565b5b600082013567ffffffffffffffff811115610df257610df1610b09565b5b610dfe84828501610c1f565b91505092915050565b600060a0830160008301518482036000860152610e24828261093d565b91505060208301518482036020860152610e3e828261093d565b9150506040830151610e5360408601826109a8565b5060608301518482036060860152610e6b828261093d565b91505060808301518482036080860152610e85828261093d565b9150508091505092915050565b60006020820190508181036000830152610eac8184610e07565b905092915050565b7f4e487b7100000000000000000000000000000000000000000000000000000000600052602260045260246000fd5b60006002820490506001821680610efb57607f821691505b602082108103610f0e57610f0d610eb4565b5b50919050565b60008190508160005260206000209050919050565b60006020601f8301049050919050565b600082821b905092915050565b600060088302610f767fffffffffffffffffffffffffffffffffffffffffffffffffffffffffffffffff82610f39565b610f808683610f39565b95508019841693508086168417925050509392505050565b6000819050919050565b6000819050919050565b6000610fc7610fc2610fbd84610f98565b610fa2565b610f98565b9050919050565b6000819050919050565b610fe183610fac565b610ff5610fed82610fce565b848454610f46565b825550505050565b600090565b61100a610ffd565b611015818484610fd8565b505050565b5b818110156110395761102e600082611002565b60018101905061101b565b5050565b601f82111561107e5761104f81610f14565b61105884610f29565b81016020851015611067578190505b61107b61107385610f29565b83018261101a565b50505b505050565b600082821c905092915050565b60006110a160001984600802611083565b1980831691505092915050565b60006110ba8383611090565b9150826002028217905092915050565b6110d3826108e6565b67ffffffffffffffff8111156110ec576110eb610b13565b5b6110f68254610ee3565b61110182828561103d565b600060209050601f8311600181146111345760008415611122578287015190505b61112c85826110ae565b865550611194565b601f19841661114286610f14565b60005b8281101561116a57848901518255600182019150602085019450602081019050611145565b868310156111875784890151611183601f891682611090565b8355505b6001600288020188555050505b505050505050565b600081905092915050565b60006111b2826108e6565b6111bc818561119c565b93506111cc818560208601610902565b80840191505092915050565b60006111e482846111a7565b915081905092915050565b7f4e487b7100000000000000000000000000000000000000000000000000000000600052603260045260246000fd5b6000815461122b81610ee3565b611235818661119c565b94506001821660008114611250576001811461126557611298565b60ff1983168652811515820286019350611298565b61126e85610f14565b60005b8381101561129057815481890152600182019150602081019050611271565b838801955050505b50505092915050565b60006112ad828461121e565b915081905092915050565b7f4e487b7100000000000000000000000000000000000000000000000000000000600052601160045260246000fd5b60006112f282610f98565b91507fffffffffffffffffffffffffffffffffffffffffffffffffffffffffffffffff8203611324576113236112b8565b5b60018201905091905056fea26469706673582212207bf2a9b329b971c241decdc45ca5d34c3eb645fc510f5d36e224931be4d6866b64736f6c63430008130033",
  "linkReferences": {},
  "deployedLinkReferences": {}
}