{
  "_format": "hh-sol-artifact-1",
  "contractName": "FileRegister",
  "sourceName": "contracts/FileRegister.sol",
  "abi": [
    {
      "inputs": [
        {
          "internalType": "address",
          "name": "helperContract",
          "type": "address"
        }
      ],
      "stateMutability": "nonpayable",
      "type": "constructor"
    },
    {
      "inputs": [
        {
          "components": [
            {
              "internalType": "string",
              "name": "ipfsCID",
              "type": "string"
            },
            {
              "internalType": "string",
              "name": "fileName",
              "type": "string"
            },
            {
              "internalType": "int256",
              "name": "version",
              "type": "int256"
            },
            {
              "internalType": "address",
              "name": "owner",
              "type": "address"
            },
            {
              "internalType": "string",
              "name": "fileType",
              "type": "string"
            },
            {
              "internalType": "string",
              "name": "iv",
              "type": "string"
            },
            {
              "internalType": "string",
              "name": "state",
              "type": "string"
            },
            {
              "internalType": "string",
              "name": "fileHash",
              "type": "string"
            }
          ],
          "internalType": "struct FileRegister.File",
          "name": "file",
          "type": "tuple"
        }
      ],
      "name": "addFile",
      "outputs": [],
      "stateMutability": "nonpayable",
      "type": "function"
    },
    {
      "inputs": [
        {
          "components": [
            {
              "internalType": "string",
              "name": "ipfsCID",
              "type": "string"
            },
            {
              "internalType": "string",
              "name": "fileName",
              "type": "string"
            },
            {
              "internalType": "int256",
              "name": "version",
              "type": "int256"
            },
            {
              "internalType": "address",
              "name": "owner",
              "type": "address"
            },
            {
              "internalType": "string",
              "name": "fileType",
              "type": "string"
            },
            {
              "internalType": "string",
              "name": "iv",
              "type": "string"
            },
            {
              "internalType": "string",
              "name": "state",
              "type": "string"
            },
            {
              "internalType": "string",
              "name": "fileHash",
              "type": "string"
            }
          ],
          "internalType": "struct FileRegister.File",
          "name": "file",
          "type": "tuple"
        }
      ],
      "name": "canAddFile",
      "outputs": [
        {
          "internalType": "bool",
          "name": "",
          "type": "bool"
        }
      ],
      "stateMutability": "view",
      "type": "function"
    },
    {
      "inputs": [
        {
          "internalType": "string",
          "name": "fileIpfsCid",
          "type": "string"
        }
      ],
      "name": "deactivateFile",
      "outputs": [],
      "stateMutability": "nonpayable",
      "type": "function"
    },
    {
      "inputs": [
        {
          "internalType": "string",
          "name": "fileIpfsCID",
          "type": "string"
        }
      ],
      "name": "fileExists",
      "outputs": [
        {
          "internalType": "bool",
          "name": "",
          "type": "bool"
        }
      ],
      "stateMutability": "view",
      "type": "function"
    },
    {
      "inputs": [
        {
          "internalType": "string",
          "name": "fileIpfsCid",
          "type": "string"
        },
        {
          "internalType": "string",
          "name": "state",
          "type": "string"
        }
      ],
      "name": "getFileByIpfsCID",
      "outputs": [
        {
          "components": [
            {
              "internalType": "bool",
              "name": "success",
              "type": "bool"
            },
            {
              "components": [
                {
                  "internalType": "string",
                  "name": "ipfsCID",
                  "type": "string"
                },
                {
                  "internalType": "string",
                  "name": "fileName",
                  "type": "string"
                },
                {
                  "internalType": "int256",
                  "name": "version",
                  "type": "int256"
                },
                {
                  "internalType": "address",
                  "name": "owner",
                  "type": "address"
                },
                {
                  "internalType": "string",
                  "name": "fileType",
                  "type": "string"
                },
                {
                  "internalType": "string",
                  "name": "iv",
                  "type": "string"
                },
                {
                  "internalType": "string",
                  "name": "state",
                  "type": "string"
                },
                {
                  "internalType": "string",
                  "name": "fileHash",
                  "type": "string"
                }
              ],
              "internalType": "struct FileRegister.File",
              "name": "file",
              "type": "tuple"
            }
          ],
          "internalType": "struct FileRegister.ResultFile",
          "name": "",
          "type": "tuple"
        }
      ],
      "stateMutability": "view",
      "type": "function"
    },
    {
      "inputs": [
        {
          "internalType": "string",
          "name": "fileIpfsCID",
          "type": "string"
        }
      ],
      "name": "getFileHash",
      "outputs": [
        {
          "components": [
            {
              "internalType": "bool",
              "name": "success",
              "type": "bool"
            },
            {
              "internalType": "string",
              "name": "resultString",
              "type": "string"
            }
          ],
          "internalType": "struct Helper.ResultString",
          "name": "",
          "type": "tuple"
        }
      ],
      "stateMutability": "view",
      "type": "function"
    },
    {
      "inputs": [
        {
          "internalType": "string",
          "name": "fileName",
          "type": "string"
        }
      ],
      "name": "getFileOwner",
      "outputs": [
        {
          "internalType": "address",
          "name": "",
          "type": "address"
        }
      ],
      "stateMutability": "view",
      "type": "function"
    },
    {
      "inputs": [
        {
          "internalType": "string",
          "name": "fileIpfsCID",
          "type": "string"
        }
      ],
      "name": "getFileState",
      "outputs": [
        {
          "components": [
            {
              "internalType": "bool",
              "name": "success",
              "type": "bool"
            },
            {
              "internalType": "string",
              "name": "resultString",
              "type": "string"
            }
          ],
          "internalType": "struct Helper.ResultString",
          "name": "",
          "type": "tuple"
        }
      ],
      "stateMutability": "view",
      "type": "function"
    },
    {
      "inputs": [
        {
          "internalType": "string",
          "name": "name",
          "type": "string"
        }
      ],
      "name": "getIpfsCIDsForName",
      "outputs": [
        {
          "internalType": "string[]",
          "name": "",
          "type": "string[]"
        }
      ],
      "stateMutability": "view",
      "type": "function"
    },
    {
      "inputs": [
        {
          "internalType": "string",
          "name": "fileName",
          "type": "string"
        }
      ],
      "name": "getLatestVersionOfFile",
      "outputs": [
        {
          "internalType": "int256",
          "name": "",
          "type": "int256"
        }
      ],
      "stateMutability": "view",
      "type": "function"
    },
    {
      "inputs": [
        {
          "internalType": "address",
          "name": "accessControlContractAddress",
          "type": "address"
        }
      ],
      "name": "setAccessControlAddress",
      "outputs": [],
      "stateMutability": "nonpayable",
      "type": "function"
    },
    {
      "inputs": [
        {
          "internalType": "address",
          "name": "userAccount",
          "type": "address"
        },
        {
          "internalType": "string",
          "name": "fileIpfsCID",
          "type": "string"
        }
      ],
      "name": "userIsFileOwner",
      "outputs": [
        {
          "internalType": "bool",
          "name": "",
          "type": "bool"
        }
      ],
      "stateMutability": "view",
      "type": "function"
    }
  ],
  "bytecode": "0x60806040523480156200001157600080fd5b50604051620027f1380380620027f18339818101604052810190620000379190620000e9565b80600260006101000a81548173ffffffffffffffffffffffffffffffffffffffff021916908373ffffffffffffffffffffffffffffffffffffffff160217905550506200011b565b600080fd5b600073ffffffffffffffffffffffffffffffffffffffff82169050919050565b6000620000b18262000084565b9050919050565b620000c381620000a4565b8114620000cf57600080fd5b50565b600081519050620000e381620000b8565b92915050565b6000602082840312156200010257620001016200007f565b5b60006200011284828501620000d2565b91505092915050565b6126c6806200012b6000396000f3fe608060405234801561001057600080fd5b50600436106100b35760003560e01c806374546fdf1161007157806374546fdf146101d85780639bccd6ad146101f45780639ed0f66614610224578063c7d6585d14610254578063e8d56b8b14610270578063f880680b1461028c576100b3565b8062438ceb146100b857806338fa8f58146100e857806347eb6fa7146101185780634907904b1461014857806352a9baef146101785780637113c4dd146101a8575b600080fd5b6100d260048036038101906100cd91906118dd565b6102bc565b6040516100df91906119fd565b60405180910390f35b61010260048036038101906100fd91906118dd565b610410565b60405161010f9190611a60565b60405180910390f35b610132600480360381019061012d9190611a7b565b610584565b60405161013f9190611c2b565b60405180910390f35b610162600480360381019061015d91906118dd565b610b6c565b60405161016f9190611c5c565b60405180910390f35b610192600480360381019061018d9190611ca3565b610cdb565b60405161019f9190611d0e565b60405180910390f35b6101c260048036038101906101bd91906118dd565b610dbf565b6040516101cf9190611deb565b60405180910390f35b6101f260048036038101906101ed91906118dd565b611061565b005b61020e600480360381019061020991906118dd565b61111e565b60405161021b9190611d0e565b60405180910390f35b61023e60048036038101906102399190611fb5565b6111c2565b60405161024b9190611d0e565b60405180910390f35b61026e60048036038101906102699190611fb5565b6112e7565b005b61028a60048036038101906102859190611ffe565b6114c1565b005b6102a660048036038101906102a191906118dd565b611596565b6040516102b391906119fd565b60405180910390f35b6102c46116ea565b600360009054906101000a900473ffffffffffffffffffffffffffffffffffffffff1673ffffffffffffffffffffffffffffffffffffffff163373ffffffffffffffffffffffffffffffffffffffff16036103e157604051806040016040528060011515815260200160008460405161033d9190612067565b90815260200160405180910390206006018054610359906120ad565b80601f0160208091040260200160405190810160405280929190818152602001828054610385906120ad565b80156103d25780601f106103a7576101008083540402835291602001916103d2565b820191906000526020600020905b8154815290600101906020018083116103b557829003601f168201915b5050505050815250905061040b565b60405180604001604052806000151581526020016040518060200160405280600081525081525090505b919050565b600080600090505b60018054905081101561057957826040516020016104369190612067565b60405160208183030381529060405280519060200120600060018381548110610462576104616120de565b5b9060005260206000200160405161047991906121a5565b908152602001604051809103902060010160405160200161049a91906121a5565b604051602081830303815290604052805190602001201480156104fa5750600080600183815481106104cf576104ce6120de565b5b906000526020600020016040516104e691906121a5565b908152602001604051809103902060020154145b1561056657600060018281548110610515576105146120de565b5b9060005260206000200160405161052c91906121a5565b908152602001604051809103902060030160009054906101000a900473ffffffffffffffffffffffffffffffffffffffff1691505061057f565b8080610571906121f5565b915050610418565b50600090505b919050565b61058c611706565b6000808460405161059d9190612067565b908152602001604051809103902060010180546105b9906120ad565b90501180156106875750816040516020016105d49190612067565b604051602081830303815290604052805190602001206000846040516105fa9190612067565b908152602001604051809103902060060160405160200161061b91906121a5565b604051602081830303815290604052805190602001201480610686575060405160200161064790612263565b604051602081830303815290604052805190602001208260405160200161066e9190612067565b60405160208183030381529060405280519060200120145b5b15610aa05760405180604001604052806001151581526020016000856040516106b09190612067565b9081526020016040518091039020604051806101000160405290816000820180546106da906120ad565b80601f0160208091040260200160405190810160405280929190818152602001828054610706906120ad565b80156107535780601f1061072857610100808354040283529160200191610753565b820191906000526020600020905b81548152906001019060200180831161073657829003601f168201915b5050505050815260200160018201805461076c906120ad565b80601f0160208091040260200160405190810160405280929190818152602001828054610798906120ad565b80156107e55780601f106107ba576101008083540402835291602001916107e5565b820191906000526020600020905b8154815290600101906020018083116107c857829003601f168201915b50505050508152602001600282015481526020016003820160009054906101000a900473ffffffffffffffffffffffffffffffffffffffff1673ffffffffffffffffffffffffffffffffffffffff1673ffffffffffffffffffffffffffffffffffffffff16815260200160048201805461085e906120ad565b80601f016020809104026020016040519081016040528092919081815260200182805461088a906120ad565b80156108d75780601f106108ac576101008083540402835291602001916108d7565b820191906000526020600020905b8154815290600101906020018083116108ba57829003601f168201915b505050505081526020016005820180546108f0906120ad565b80601f016020809104026020016040519081016040528092919081815260200182805461091c906120ad565b80156109695780601f1061093e57610100808354040283529160200191610969565b820191906000526020600020905b81548152906001019060200180831161094c57829003601f168201915b50505050508152602001600682018054610982906120ad565b80601f01602080910402602001604051908101604052809291908181526020018280546109ae906120ad565b80156109fb5780601f106109d0576101008083540402835291602001916109fb565b820191906000526020600020905b8154815290600101906020018083116109de57829003601f168201915b50505050508152602001600782018054610a14906120ad565b80601f0160208091040260200160405190810160405280929190818152602001828054610a40906120ad565b8015610a8d5780601f10610a6257610100808354040283529160200191610a8d565b820191906000526020600020905b815481529060010190602001808311610a7057829003601f168201915b5050505050815250508152509050610b66565b604051806040016040528060001515815260200160405180610100016040528060405180602001604052806000815250815260200160405180602001604052806000815250815260200160008152602001600073ffffffffffffffffffffffffffffffffffffffff1681526020016040518060200160405280600081525081526020016040518060200160405280600081525081526020016040518060200160405280600081525081526020016040518060200160405280600081525081525081525090505b92915050565b6000807fffffffffffffffffffffffffffffffffffffffffffffffffffffffffffffffff905060005b600180549050811015610cd15783604051602001610bb39190612067565b60405160208183030381529060405280519060200120600060018381548110610bdf57610bde6120de565b5b90600052602060002001604051610bf691906121a5565b9081526020016040518091039020600101604051602001610c1791906121a5565b60405160208183030381529060405280519060200120148015610c77575081600060018381548110610c4c57610c4b6120de565b5b90600052602060002001604051610c6391906121a5565b908152602001604051809103902060020154135b15610cbe57600060018281548110610c9257610c916120de565b5b90600052602060002001604051610ca991906121a5565b90815260200160405180910390206002015491505b8080610cc9906121f5565b915050610b95565b5080915050919050565b60008273ffffffffffffffffffffffffffffffffffffffff16600083604051610d049190612067565b908152602001604051809103902060030160009054906101000a900473ffffffffffffffffffffffffffffffffffffffff1673ffffffffffffffffffffffffffffffffffffffff16148015610da65750600360009054906101000a900473ffffffffffffffffffffffffffffffffffffffff1673ffffffffffffffffffffffffffffffffffffffff163373ffffffffffffffffffffffffffffffffffffffff16145b15610db45760019050610db9565b600090505b92915050565b6060600060018054905067ffffffffffffffff811115610de257610de16117b2565b5b604051908082528060200260200182016040528015610e1557816020015b6060815260200190600190039081610e005790505b5090506000805b6001805490508110156110535784604051602001610e3a9190612067565b60405160208183030381529060405280519060200120600060018381548110610e6657610e656120de565b5b90600052602060002001604051610e7d91906121a5565b9081526020016040518091039020600101604051602001610e9e91906121a5565b60405160208183030381529060405280519060200120148015610f475750604051602001610ecb906122c4565b60405160208183030381529060405280519060200120600060018381548110610ef757610ef66120de565b5b90600052602060002001604051610f0e91906121a5565b9081526020016040518091039020600601604051602001610f2f91906121a5565b60405160208183030381529060405280519060200120145b1561104057600060018281548110610f6257610f616120de565b5b90600052602060002001604051610f7991906121a5565b90815260200160405180910390206000018054610f95906120ad565b80601f0160208091040260200160405190810160405280929190818152602001828054610fc1906120ad565b801561100e5780601f10610fe35761010080835404028352916020019161100e565b820191906000526020600020905b815481529060010190602001808311610ff157829003601f168201915b5050505050838381518110611026576110256120de565b5b6020026020010181905250818061103c906121f5565b9250505b808061104b906121f5565b915050610e1c565b508082528192505050919050565b600360009054906101000a900473ffffffffffffffffffffffffffffffffffffffff1673ffffffffffffffffffffffffffffffffffffffff163373ffffffffffffffffffffffffffffffffffffffff160361111b576040518060400160405280600881526020017f64656163746976650000000000000000000000000000000000000000000000008152506000826040516110fc9190612067565b908152602001604051809103902060060190816111199190612470565b505b50565b6000806000836040516111319190612067565b9081526020016040518091039020600001805461114d906120ad565b9050141580156111aa5750600360009054906101000a900473ffffffffffffffffffffffffffffffffffffffff1673ffffffffffffffffffffffffffffffffffffffff163373ffffffffffffffffffffffffffffffffffffffff16145b156111b857600190506111bd565b600090505b919050565b60006111d1826000015161111e565b1580156112765750600260009054906101000a900473ffffffffffffffffffffffffffffffffffffffff1673ffffffffffffffffffffffffffffffffffffffff1663488977b8836040518263ffffffff1660e01b81526004016112349190612615565b602060405180830381865afa158015611251573d6000803e3d6000fd5b505050506040513d601f19601f820116820180604052508101906112759190612663565b5b80156112cf5750600360009054906101000a900473ffffffffffffffffffffffffffffffffffffffff1673ffffffffffffffffffffffffffffffffffffffff163373ffffffffffffffffffffffffffffffffffffffff16145b156112dd57600190506112e2565b600090505b919050565b600360009054906101000a900473ffffffffffffffffffffffffffffffffffffffff1673ffffffffffffffffffffffffffffffffffffffff163373ffffffffffffffffffffffffffffffffffffffff16036114be57611345816111c2565b156114bd576040518060400160405280600681526020017f61637469766500000000000000000000000000000000000000000000000000008152508160c00181905250806000826000015160405161139d9190612067565b908152602001604051809103902060008201518160000190816113c09190612470565b5060208201518160010190816113d69190612470565b506040820151816002015560608201518160030160006101000a81548173ffffffffffffffffffffffffffffffffffffffff021916908373ffffffffffffffffffffffffffffffffffffffff160217905550608082015181600401908161143d9190612470565b5060a08201518160050190816114539190612470565b5060c08201518160060190816114699190612470565b5060e082015181600701908161147f9190612470565b50905050600181600001519080600181540180825580915050600190039060005260206000200160009091909190915090816114bb9190612470565b505b5b50565b600073ffffffffffffffffffffffffffffffffffffffff168173ffffffffffffffffffffffffffffffffffffffff161415801561154c5750600073ffffffffffffffffffffffffffffffffffffffff16600360009054906101000a900473ffffffffffffffffffffffffffffffffffffffff1673ffffffffffffffffffffffffffffffffffffffff16145b156115935780600360006101000a81548173ffffffffffffffffffffffffffffffffffffffff021916908373ffffffffffffffffffffffffffffffffffffffff1602179055505b50565b61159e6116ea565b600360009054906101000a900473ffffffffffffffffffffffffffffffffffffffff1673ffffffffffffffffffffffffffffffffffffffff163373ffffffffffffffffffffffffffffffffffffffff16036116bb5760405180604001604052806001151581526020016000846040516116179190612067565b90815260200160405180910390206007018054611633906120ad565b80601f016020809104026020016040519081016040528092919081815260200182805461165f906120ad565b80156116ac5780601f10611681576101008083540402835291602001916116ac565b820191906000526020600020905b81548152906001019060200180831161168f57829003601f168201915b505050505081525090506116e5565b60405180604001604052806000151581526020016040518060200160405280600081525081525090505b919050565b6040518060400160405280600015158152602001606081525090565b6040518060400160405280600015158152602001611722611728565b81525090565b604051806101000160405280606081526020016060815260200160008152602001600073ffffffffffffffffffffffffffffffffffffffff168152602001606081526020016060815260200160608152602001606081525090565b6000604051905090565b600080fd5b600080fd5b600080fd5b600080fd5b6000601f19601f8301169050919050565b7f4e487b7100000000000000000000000000000000000000000000000000000000600052604160045260246000fd5b6117ea826117a1565b810181811067ffffffffffffffff82111715611809576118086117b2565b5b80604052505050565b600061181c611783565b905061182882826117e1565b919050565b600067ffffffffffffffff821115611848576118476117b2565b5b611851826117a1565b9050602081019050919050565b82818337600083830152505050565b600061188061187b8461182d565b611812565b90508281526020810184848401111561189c5761189b61179c565b5b6118a784828561185e565b509392505050565b600082601f8301126118c4576118c3611797565b5b81356118d484826020860161186d565b91505092915050565b6000602082840312156118f3576118f261178d565b5b600082013567ffffffffffffffff81111561191157611910611792565b5b61191d848285016118af565b91505092915050565b60008115159050919050565b61193b81611926565b82525050565b600081519050919050565b600082825260208201905092915050565b60005b8381101561197b578082015181840152602081019050611960565b60008484015250505050565b600061199282611941565b61199c818561194c565b93506119ac81856020860161195d565b6119b5816117a1565b840191505092915050565b60006040830160008301516119d86000860182611932565b50602083015184820360208601526119f08282611987565b9150508091505092915050565b60006020820190508181036000830152611a1781846119c0565b905092915050565b600073ffffffffffffffffffffffffffffffffffffffff82169050919050565b6000611a4a82611a1f565b9050919050565b611a5a81611a3f565b82525050565b6000602082019050611a756000830184611a51565b92915050565b60008060408385031215611a9257611a9161178d565b5b600083013567ffffffffffffffff811115611ab057611aaf611792565b5b611abc858286016118af565b925050602083013567ffffffffffffffff811115611add57611adc611792565b5b611ae9858286016118af565b9150509250929050565b6000819050919050565b611b0681611af3565b82525050565b611b1581611a3f565b82525050565b6000610100830160008301518482036000860152611b398282611987565b91505060208301518482036020860152611b538282611987565b9150506040830151611b686040860182611afd565b506060830151611b7b6060860182611b0c565b5060808301518482036080860152611b938282611987565b91505060a083015184820360a0860152611bad8282611987565b91505060c083015184820360c0860152611bc78282611987565b91505060e083015184820360e0860152611be18282611987565b9150508091505092915050565b6000604083016000830151611c066000860182611932565b5060208301518482036020860152611c1e8282611b1b565b9150508091505092915050565b60006020820190508181036000830152611c458184611bee565b905092915050565b611c5681611af3565b82525050565b6000602082019050611c716000830184611c4d565b92915050565b611c8081611a3f565b8114611c8b57600080fd5b50565b600081359050611c9d81611c77565b92915050565b60008060408385031215611cba57611cb961178d565b5b6000611cc885828601611c8e565b925050602083013567ffffffffffffffff811115611ce957611ce8611792565b5b611cf5858286016118af565b9150509250929050565b611d0881611926565b82525050565b6000602082019050611d236000830184611cff565b92915050565b600081519050919050565b600082825260208201905092915050565b6000819050602082019050919050565b6000611d618383611987565b905092915050565b6000602082019050919050565b6000611d8182611d29565b611d8b8185611d34565b935083602082028501611d9d85611d45565b8060005b85811015611dd95784840389528151611dba8582611d55565b9450611dc583611d69565b925060208a01995050600181019050611da1565b50829750879550505050505092915050565b60006020820190508181036000830152611e058184611d76565b905092915050565b600080fd5b600080fd5b611e2081611af3565b8114611e2b57600080fd5b50565b600081359050611e3d81611e17565b92915050565b60006101008284031215611e5a57611e59611e0d565b5b611e65610100611812565b9050600082013567ffffffffffffffff811115611e8557611e84611e12565b5b611e91848285016118af565b600083015250602082013567ffffffffffffffff811115611eb557611eb4611e12565b5b611ec1848285016118af565b6020830152506040611ed584828501611e2e565b6040830152506060611ee984828501611c8e565b606083015250608082013567ffffffffffffffff811115611f0d57611f0c611e12565b5b611f19848285016118af565b60808301525060a082013567ffffffffffffffff811115611f3d57611f3c611e12565b5b611f49848285016118af565b60a08301525060c082013567ffffffffffffffff811115611f6d57611f6c611e12565b5b611f79848285016118af565b60c08301525060e082013567ffffffffffffffff811115611f9d57611f9c611e12565b5b611fa9848285016118af565b60e08301525092915050565b600060208284031215611fcb57611fca61178d565b5b600082013567ffffffffffffffff811115611fe957611fe8611792565b5b611ff584828501611e43565b91505092915050565b6000602082840312156120145761201361178d565b5b600061202284828501611c8e565b91505092915050565b600081905092915050565b600061204182611941565b61204b818561202b565b935061205b81856020860161195d565b80840191505092915050565b60006120738284612036565b915081905092915050565b7f4e487b7100000000000000000000000000000000000000000000000000000000600052602260045260246000fd5b600060028204905060018216806120c557607f821691505b6020821081036120d8576120d761207e565b5b50919050565b7f4e487b7100000000000000000000000000000000000000000000000000000000600052603260045260246000fd5b60008190508160005260206000209050919050565b6000815461212f816120ad565b612139818661202b565b9450600182166000811461215457600181146121695761219c565b60ff198316865281151582028601935061219c565b6121728561210d565b60005b8381101561219457815481890152600182019150602081019050612175565b838801955050505b50505092915050565b60006121b18284612122565b915081905092915050565b7f4e487b7100000000000000000000000000000000000000000000000000000000600052601160045260246000fd5b6000819050919050565b6000612200826121eb565b91507fffffffffffffffffffffffffffffffffffffffffffffffffffffffffffffffff8203612232576122316121bc565b5b600182019050919050565b50565b600061224d60008361202b565b91506122588261223d565b600082019050919050565b600061226e82612240565b9150819050919050565b7f6163746976650000000000000000000000000000000000000000000000000000600082015250565b60006122ae60068361202b565b91506122b982612278565b600682019050919050565b60006122cf826122a1565b9150819050919050565b60006020601f8301049050919050565b600082821b905092915050565b6000600883026123267fffffffffffffffffffffffffffffffffffffffffffffffffffffffffffffffff826122e9565b61233086836122e9565b95508019841693508086168417925050509392505050565b6000819050919050565b600061236d612368612363846121eb565b612348565b6121eb565b9050919050565b6000819050919050565b61238783612352565b61239b61239382612374565b8484546122f6565b825550505050565b600090565b6123b06123a3565b6123bb81848461237e565b505050565b5b818110156123df576123d46000826123a8565b6001810190506123c1565b5050565b601f821115612424576123f58161210d565b6123fe846122d9565b8101602085101561240d578190505b612421612419856122d9565b8301826123c0565b50505b505050565b600082821c905092915050565b600061244760001984600802612429565b1980831691505092915050565b60006124608383612436565b9150826002028217905092915050565b61247982611941565b67ffffffffffffffff811115612492576124916117b2565b5b61249c82546120ad565b6124a78282856123e3565b600060209050601f8311600181146124da57600084156124c8578287015190505b6124d28582612454565b86555061253a565b601f1984166124e88661210d565b60005b82811015612510578489015182556001820191506020850194506020810190506124eb565b8683101561252d5784890151612529601f891682612436565b8355505b6001600288020188555050505b505050505050565b60006101008301600083015184820360008601526125608282611987565b9150506020830151848203602086015261257a8282611987565b915050604083015161258f6040860182611afd565b5060608301516125a26060860182611b0c565b50608083015184820360808601526125ba8282611987565b91505060a083015184820360a08601526125d48282611987565b91505060c083015184820360c08601526125ee8282611987565b91505060e083015184820360e08601526126088282611987565b9150508091505092915050565b6000602082019050818103600083015261262f8184612542565b905092915050565b61264081611926565b811461264b57600080fd5b50565b60008151905061265d81612637565b92915050565b6000602082840312156126795761267861178d565b5b60006126878482850161264e565b9150509291505056fea2646970667358221220d4b9df3d8faacc841c31a91872dd5a0a830439047c2c0c7093473f7be3e92f3a64736f6c63430008130033",
  "linkReferences": {},
  "deployedLinkReferences": {}
}