{
  "_format": "hh-sol-artifact-1",
  "contractName": "FileRegister",
  "sourceName": "contracts/FileRegister.sol",
  "abi": [
    {
      "inputs": [
        {
          "internalType": "address",
          "name": "helperContract",
          "type": "address"
        }
      ],
      "stateMutability": "nonpayable",
      "type": "constructor"
    },
    {
      "inputs": [
        {
          "components": [
            {
              "internalType": "string",
              "name": "ipfsCID",
              "type": "string"
            },
            {
              "internalType": "string",
              "name": "fileName",
              "type": "string"
            },
            {
              "internalType": "int256",
              "name": "version",
              "type": "int256"
            },
            {
              "internalType": "string",
              "name": "prevIpfsCID",
              "type": "string"
            },
            {
              "internalType": "address",
              "name": "owner",
              "type": "address"
            },
            {
              "internalType": "string",
              "name": "fileType",
              "type": "string"
            },
            {
              "internalType": "string",
              "name": "iv",
              "type": "string"
            },
            {
              "internalType": "string",
              "name": "state",
              "type": "string"
            },
            {
              "internalType": "string",
              "name": "fileHash",
              "type": "string"
            }
          ],
          "internalType": "struct FileRegister.File",
          "name": "file",
          "type": "tuple"
        }
      ],
      "name": "addFile",
      "outputs": [],
      "stateMutability": "nonpayable",
      "type": "function"
    },
    {
      "inputs": [
        {
          "internalType": "string",
          "name": "fileIpfsCid",
          "type": "string"
        }
      ],
      "name": "deactivateFile",
      "outputs": [],
      "stateMutability": "nonpayable",
      "type": "function"
    },
    {
      "inputs": [
        {
          "components": [
            {
              "internalType": "string",
              "name": "ipfsCID",
              "type": "string"
            },
            {
              "internalType": "string",
              "name": "fileName",
              "type": "string"
            },
            {
              "internalType": "int256",
              "name": "version",
              "type": "int256"
            },
            {
              "internalType": "string",
              "name": "prevIpfsCID",
              "type": "string"
            },
            {
              "internalType": "address",
              "name": "owner",
              "type": "address"
            },
            {
              "internalType": "string",
              "name": "fileType",
              "type": "string"
            },
            {
              "internalType": "string",
              "name": "iv",
              "type": "string"
            },
            {
              "internalType": "string",
              "name": "state",
              "type": "string"
            },
            {
              "internalType": "string",
              "name": "fileHash",
              "type": "string"
            }
          ],
          "internalType": "struct FileRegister.File",
          "name": "selectedFile",
          "type": "tuple"
        },
        {
          "components": [
            {
              "internalType": "string",
              "name": "ipfsCID",
              "type": "string"
            },
            {
              "internalType": "string",
              "name": "fileName",
              "type": "string"
            },
            {
              "internalType": "int256",
              "name": "version",
              "type": "int256"
            },
            {
              "internalType": "string",
              "name": "prevIpfsCID",
              "type": "string"
            },
            {
              "internalType": "address",
              "name": "owner",
              "type": "address"
            },
            {
              "internalType": "string",
              "name": "fileType",
              "type": "string"
            },
            {
              "internalType": "string",
              "name": "iv",
              "type": "string"
            },
            {
              "internalType": "string",
              "name": "state",
              "type": "string"
            },
            {
              "internalType": "string",
              "name": "fileHash",
              "type": "string"
            }
          ],
          "internalType": "struct FileRegister.File",
          "name": "newFile",
          "type": "tuple"
        }
      ],
      "name": "editFile",
      "outputs": [],
      "stateMutability": "nonpayable",
      "type": "function"
    },
    {
      "inputs": [
        {
          "internalType": "string",
          "name": "fileIpfsCID",
          "type": "string"
        }
      ],
      "name": "fileExists",
      "outputs": [
        {
          "internalType": "bool",
          "name": "",
          "type": "bool"
        }
      ],
      "stateMutability": "view",
      "type": "function"
    },
    {
      "inputs": [
        {
          "internalType": "string",
          "name": "fileIpfsCid",
          "type": "string"
        }
      ],
      "name": "getEditedFilesByIpfsCid",
      "outputs": [
        {
          "components": [
            {
              "internalType": "bool",
              "name": "success",
              "type": "bool"
            },
            {
              "components": [
                {
                  "internalType": "string",
                  "name": "ipfsCID",
                  "type": "string"
                },
                {
                  "internalType": "string",
                  "name": "fileName",
                  "type": "string"
                },
                {
                  "internalType": "int256",
                  "name": "version",
                  "type": "int256"
                },
                {
                  "internalType": "string",
                  "name": "prevIpfsCID",
                  "type": "string"
                },
                {
                  "internalType": "address",
                  "name": "owner",
                  "type": "address"
                },
                {
                  "internalType": "string",
                  "name": "fileType",
                  "type": "string"
                },
                {
                  "internalType": "string",
                  "name": "iv",
                  "type": "string"
                },
                {
                  "internalType": "string",
                  "name": "state",
                  "type": "string"
                },
                {
                  "internalType": "string",
                  "name": "fileHash",
                  "type": "string"
                }
              ],
              "internalType": "struct FileRegister.File[]",
              "name": "files",
              "type": "tuple[]"
            },
            {
              "internalType": "string",
              "name": "message",
              "type": "string"
            }
          ],
          "internalType": "struct FileRegister.ResultFiles",
          "name": "",
          "type": "tuple"
        }
      ],
      "stateMutability": "view",
      "type": "function"
    },
    {
      "inputs": [
        {
          "internalType": "string",
          "name": "fileIpfsCid",
          "type": "string"
        },
        {
          "internalType": "string",
          "name": "state",
          "type": "string"
        }
      ],
      "name": "getFileByIpfsCID",
      "outputs": [
        {
          "components": [
            {
              "internalType": "bool",
              "name": "success",
              "type": "bool"
            },
            {
              "components": [
                {
                  "internalType": "string",
                  "name": "ipfsCID",
                  "type": "string"
                },
                {
                  "internalType": "string",
                  "name": "fileName",
                  "type": "string"
                },
                {
                  "internalType": "int256",
                  "name": "version",
                  "type": "int256"
                },
                {
                  "internalType": "string",
                  "name": "prevIpfsCID",
                  "type": "string"
                },
                {
                  "internalType": "address",
                  "name": "owner",
                  "type": "address"
                },
                {
                  "internalType": "string",
                  "name": "fileType",
                  "type": "string"
                },
                {
                  "internalType": "string",
                  "name": "iv",
                  "type": "string"
                },
                {
                  "internalType": "string",
                  "name": "state",
                  "type": "string"
                },
                {
                  "internalType": "string",
                  "name": "fileHash",
                  "type": "string"
                }
              ],
              "internalType": "struct FileRegister.File",
              "name": "file",
              "type": "tuple"
            },
            {
              "internalType": "string",
              "name": "message",
              "type": "string"
            }
          ],
          "internalType": "struct FileRegister.ResultFile",
          "name": "",
          "type": "tuple"
        }
      ],
      "stateMutability": "view",
      "type": "function"
    },
    {
      "inputs": [
        {
          "internalType": "string",
          "name": "fileIpfsCID",
          "type": "string"
        }
      ],
      "name": "getFileHash",
      "outputs": [
        {
          "components": [
            {
              "internalType": "bool",
              "name": "success",
              "type": "bool"
            },
            {
              "internalType": "string",
              "name": "resultString",
              "type": "string"
            },
            {
              "internalType": "string",
              "name": "message",
              "type": "string"
            }
          ],
          "internalType": "struct Helper.ResultString",
          "name": "",
          "type": "tuple"
        }
      ],
      "stateMutability": "view",
      "type": "function"
    },
    {
      "inputs": [
        {
          "internalType": "string",
          "name": "fileIpfsCID",
          "type": "string"
        }
      ],
      "name": "getFileState",
      "outputs": [
        {
          "components": [
            {
              "internalType": "bool",
              "name": "success",
              "type": "bool"
            },
            {
              "internalType": "string",
              "name": "resultString",
              "type": "string"
            },
            {
              "internalType": "string",
              "name": "message",
              "type": "string"
            }
          ],
          "internalType": "struct Helper.ResultString",
          "name": "",
          "type": "tuple"
        }
      ],
      "stateMutability": "view",
      "type": "function"
    },
    {
      "inputs": [
        {
          "internalType": "string",
          "name": "name",
          "type": "string"
        }
      ],
      "name": "getIpfsCIDsByName",
      "outputs": [
        {
          "components": [
            {
              "internalType": "bool",
              "name": "success",
              "type": "bool"
            },
            {
              "internalType": "string[]",
              "name": "resultStrings",
              "type": "string[]"
            },
            {
              "internalType": "string",
              "name": "message",
              "type": "string"
            }
          ],
          "internalType": "struct Helper.ResultStringArray",
          "name": "",
          "type": "tuple"
        }
      ],
      "stateMutability": "view",
      "type": "function"
    },
    {
      "inputs": [
        {
          "internalType": "address",
          "name": "accessControlContractAddress",
          "type": "address"
        }
      ],
      "name": "setAccessControlAddress",
      "outputs": [],
      "stateMutability": "nonpayable",
      "type": "function"
    },
    {
      "inputs": [
        {
          "internalType": "address",
          "name": "userAccount",
          "type": "address"
        },
        {
          "internalType": "string",
          "name": "fileIpfsCID",
          "type": "string"
        }
      ],
      "name": "userIsFileOwner",
      "outputs": [
        {
          "internalType": "bool",
          "name": "",
          "type": "bool"
        }
      ],
      "stateMutability": "view",
      "type": "function"
    }
  ],
  "bytecode": "0x60806040523480156200001157600080fd5b506040516200434138038062004341833981810160405281019062000037919062000124565b62000053676bfd9c1c0f006f8d60c01b620000b760201b60201c565b6200006f67f0ff99421ceb5c5d60c01b620000b760201b60201c565b80600260006101000a81548173ffffffffffffffffffffffffffffffffffffffff021916908373ffffffffffffffffffffffffffffffffffffffff1602179055505062000156565b50565b600080fd5b600073ffffffffffffffffffffffffffffffffffffffff82169050919050565b6000620000ec82620000bf565b9050919050565b620000fe81620000df565b81146200010a57600080fd5b50565b6000815190506200011e81620000f3565b92915050565b6000602082840312156200013d576200013c620000ba565b5b60006200014d848285016200010d565b91505092915050565b6141db80620001666000396000f3fe608060405234801561001057600080fd5b50600436106100a85760003560e01c806395f0f0bb1161007157806395f0f0bb146101895780639bccd6ad146101a5578063bfddc42f146101d5578063e8d56b8b146101f1578063f880680b1461020d578063fadc54f41461023d576100a8565b8062438ceb146100ad57806347eb6fa7146100dd57806352a9baef1461010d57806374546fdf1461013d578063922243ad14610159575b600080fd5b6100c760048036038101906100c29190613031565b61026d565b6040516100d4919061316b565b60405180910390f35b6100f760048036038101906100f2919061318d565b61038e565b60405161010491906133a5565b60405180910390f35b610127600480360381019061012291906133f3565b610b3b565b604051610134919061345e565b60405180910390f35b61015760048036038101906101529190613031565b610c79565b005b610173600480360381019061016e9190613031565b610db3565b6040516101809190613592565b60405180910390f35b6101a3600480360381019061019e919061378e565b611326565b005b6101bf60048036038101906101ba9190613031565b61175a565b6040516101cc919061345e565b60405180910390f35b6101ef60048036038101906101ea9190613806565b6118b2565b005b61020b6004803603810190610206919061384f565b611c03565b005b61022760048036038101906102229190613031565b611dd0565b604051610234919061316b565b60405180910390f35b61025760048036038101906102529190613031565b61200b565b6040516102649190613995565b60405180910390f35b610275612de3565b610289674d8a6fab3169e82e60c01b612bfc565b61029d6733a6706dd9fa8ab760c01b612bfc565b6102b167cdcd4dcefa61783e60c01b612bfc565b60405180606001604052806001151581526020016000846040516102d591906139f3565b908152602001604051809103902060070180546102f190613a39565b80601f016020809104026020016040519081016040528092919081815260200182805461031d90613a39565b801561036a5780601f1061033f5761010080835404028352916020019161036a565b820191906000526020600020905b81548152906001019060200180831161034d57829003601f168201915b50505050508152602001604051806020016040528060008152508152509050919050565b610396612e06565b6103aa67197eaabff4def7f360c01b612bfc565b6103be677fa436df022c0db960c01b612bfc565b6103d267ba6b7cbd7e1fc61660c01b612bfc565b600080846040516103e391906139f3565b908152602001604051809103902060010180546103ff90613a39565b905011801561050457508160405160200161041a91906139f3565b6040516020818303038152906040528051906020012060008460405161044091906139f3565b90815260200160405180910390206007016040516020016104619190613b02565b6040516020818303038152906040528051906020012014801561049457506104936719d6ef34d9913d2860c01b612bff565b5b8061050357506040516020016104a990613b3f565b60405160208183030381529060405280519060200120826040516020016104d091906139f3565b6040516020818303038152906040528051906020012014801561050257506105016666e998c8fa4ce460c01b612bff565b5b5b5b15610a005761051d67a02d768341c8a1c660c01b612bfc565b610531677d382988fa6e697060c01b612bfc565b61054567d40cd3217c06fbc860c01b612bfc565b604051806060016040528060011515815260200160008560405161056991906139f3565b90815260200160405180910390206040518061012001604052908160008201805461059390613a39565b80601f01602080910402602001604051908101604052809291908181526020018280546105bf90613a39565b801561060c5780601f106105e15761010080835404028352916020019161060c565b820191906000526020600020905b8154815290600101906020018083116105ef57829003601f168201915b5050505050815260200160018201805461062590613a39565b80601f016020809104026020016040519081016040528092919081815260200182805461065190613a39565b801561069e5780601f106106735761010080835404028352916020019161069e565b820191906000526020600020905b81548152906001019060200180831161068157829003601f168201915b50505050508152602001600282015481526020016003820180546106c190613a39565b80601f01602080910402602001604051908101604052809291908181526020018280546106ed90613a39565b801561073a5780601f1061070f5761010080835404028352916020019161073a565b820191906000526020600020905b81548152906001019060200180831161071d57829003601f168201915b505050505081526020016004820160009054906101000a900473ffffffffffffffffffffffffffffffffffffffff1673ffffffffffffffffffffffffffffffffffffffff1673ffffffffffffffffffffffffffffffffffffffff1681526020016005820180546107a990613a39565b80601f01602080910402602001604051908101604052809291908181526020018280546107d590613a39565b80156108225780601f106107f757610100808354040283529160200191610822565b820191906000526020600020905b81548152906001019060200180831161080557829003601f168201915b5050505050815260200160068201805461083b90613a39565b80601f016020809104026020016040519081016040528092919081815260200182805461086790613a39565b80156108b45780601f10610889576101008083540402835291602001916108b4565b820191906000526020600020905b81548152906001019060200180831161089757829003601f168201915b505050505081526020016007820180546108cd90613a39565b80601f01602080910402602001604051908101604052809291908181526020018280546108f990613a39565b80156109465780601f1061091b57610100808354040283529160200191610946565b820191906000526020600020905b81548152906001019060200180831161092957829003601f168201915b5050505050815260200160088201805461095f90613a39565b80601f016020809104026020016040519081016040528092919081815260200182805461098b90613a39565b80156109d85780601f106109ad576101008083540402835291602001916109d8565b820191906000526020600020905b8154815290600101906020018083116109bb57829003601f168201915b5050505050815250508152602001604051806020016040528060008152508152509050610b35565b610a1467668472187ce748be60c01b612bfc565b610a2867e370d389eb9278bb60c01b612bfc565b610a3c6775e37b30722a1d7160c01b612bfc565b604051806060016040528060001515815260200160405180610120016040528060405180602001604052806000815250815260200160405180602001604052806000815250815260200160008152602001604051806020016040528060008152508152602001600073ffffffffffffffffffffffffffffffffffffffff1681526020016040518060200160405280600081525081526020016040518060200160405280600081525081526020016040518060200160405280600081525081526020016040518060200160405280600081525081525081526020016040518060800160405280604181526020016140de6041913981525090505b92915050565b6000610b516755bd09ab470db75860c01b612bfc565b610b6567e64bc0ff9a9708aa60c01b612bfc565b610b79674b50df51a58b375360c01b612bfc565b8273ffffffffffffffffffffffffffffffffffffffff16600083604051610ba091906139f3565b908152602001604051809103902060040160009054906101000a900473ffffffffffffffffffffffffffffffffffffffff1673ffffffffffffffffffffffffffffffffffffffff1603610c3257610c016789ee7bcab460e51a60c01b612bfc565b610c15671867d1b63ddc495f60c01b612bfc565b610c296795c06f5e2835418d60c01b612bfc565b60019050610c73565b610c4667548765ece37948a760c01b612bfc565b610c5a67a72bf7a07e04a9c960c01b612bfc565b610c6e67d1c71db4998468e260c01b612bfc565b600090505b92915050565b610c8d67205a1995dedb839560c01b612bfc565b610ca167f72bf2b77419280660c01b612bfc565b610cb5671a7e8844fb68a99360c01b612bfc565b600360009054906101000a900473ffffffffffffffffffffffffffffffffffffffff1673ffffffffffffffffffffffffffffffffffffffff163373ffffffffffffffffffffffffffffffffffffffff1603610d9b57610d1e67d14bb251278fbcfd60c01b612bfc565b610d3267d0e55116b80e59bf60c01b612bfc565b6040518060400160405280600881526020017f6465616374697665000000000000000000000000000000000000000000000000815250600082604051610d7891906139f3565b90815260200160405180910390206007019081610d959190613cf5565b50610db0565b610daf6705d40533785db7fe60c01b612bfc565b5b50565b610dbb612e2f565b610dcf670381deb5da466a6360c01b612bfc565b610de36776898657e6a8d14860c01b612bfc565b610df767eeeec2344754190b60c01b612bfc565b600360009054906101000a900473ffffffffffffffffffffffffffffffffffffffff1673ffffffffffffffffffffffffffffffffffffffff163373ffffffffffffffffffffffffffffffffffffffff160361125e57610e60671393f8079176e11760c01b612bfc565b610e7467cd5bfa66d0824f4660c01b612bfc565b610e8867db8d949f1117900c60c01b612bfc565b600060018054905067ffffffffffffffff811115610ea957610ea8612f06565b5b604051908082528060200260200182016040528015610edc57816020015b6060815260200190600190039081610ec75790505b509050610ef367c92b01b4ea95dcb860c01b612bfc565b610f07678eede6a2eefa18f860c01b612bfc565b6000610f1d67431ae4dfdfc313fc60c01b612bfc565b610f31679106f53ba33a528460c01b612bfc565b60005b6001805490508110156111e857610f55674b0bbc28e6638bc560c01b612bfc565b610f696792665cc2fead6f5e60c01b612bfc565b84604051602001610f7a91906139f3565b60405160208183030381529060405280519060200120600060018381548110610fa657610fa5613dc7565b5b90600052602060002001604051610fbd9190613b02565b9081526020016040518091039020600101604051602001610fde9190613b02565b60405160208183030381529060405280519060200120148015611087575060405160200161100b90613e42565b6040516020818303038152906040528051906020012060006001838154811061103757611036613dc7565b5b9060005260206000200160405161104e9190613b02565b908152602001604051809103902060070160405160200161106f9190613b02565b60405160208183030381529060405280519060200120145b156111c0576110a06731eb0313f2e9979760c01b612bfc565b6110b4673dd76a73d1a7e87e60c01b612bfc565b6000600182815481106110ca576110c9613dc7565b5b906000526020600020016040516110e19190613b02565b908152602001604051809103902060000180546110fd90613a39565b80601f016020809104026020016040519081016040528092919081815260200182805461112990613a39565b80156111765780601f1061114b57610100808354040283529160200191611176565b820191906000526020600020905b81548152906001019060200180831161115957829003601f168201915b505050505083838151811061118e5761118d613dc7565b5b60200260200101819052506111ad67ee0227e79a305fb360c01b612bfc565b81806111b890613e86565b9250506111d5565b6111d467951105e034fee32760c01b612bfc565b5b80806111e090613e86565b915050610f34565b506111fd67f1b756ef6d89494860c01b612bfc565b8082526112146755c522173f2d53fa60c01b612bfc565b61122867651da6c5d6f3e94c60c01b612bfc565b60405180606001604052806001151581526020018381526020016040518060200160405280600081525081525092505050611321565b61127267d0052faa16b0956f60c01b612bfc565b611286674dcf171ecd45bd4b60c01b612bfc565b61129a6715e37778d9f2b9cb60c01b612bfc565b6040518060600160405280600015158152602001600067ffffffffffffffff8111156112c9576112c8612f06565b5b6040519080825280602002602001820160405280156112fc57816020015b60608152602001906001900390816112e75790505b5081526020016040518060800160405280604381526020016141636043913981525090505b919050565b61133a6701f93d42f86cd95a60c01b612bfc565b61134e676105e5829e3bda1360c01b612bfc565b61136267671d351c7a1af8b660c01b612bfc565b600360009054906101000a900473ffffffffffffffffffffffffffffffffffffffff1673ffffffffffffffffffffffffffffffffffffffff163373ffffffffffffffffffffffffffffffffffffffff161480156113f25750816080015173ffffffffffffffffffffffffffffffffffffffff16826080015173ffffffffffffffffffffffffffffffffffffffff16145b801561142f5750600073ffffffffffffffffffffffffffffffffffffffff16826080015173ffffffffffffffffffffffffffffffffffffffff1614155b1561174157611448673583191718fdee3060c01b612bfc565b61145c67a4e3c6cb71af8bde60c01b612bfc565b6040518060400160405280600681526020017f6564697465640000000000000000000000000000000000000000000000000000815250600083600001516040516114a691906139f3565b908152602001604051809103902060070190816114c39190613cf5565b506114d86717ea7cd85c0193e060c01b612bfc565b8160800151816080019073ffffffffffffffffffffffffffffffffffffffff16908173ffffffffffffffffffffffffffffffffffffffff16815250506115286783f194bd6536701660c01b612bfc565b8160000151816060018190525061154967b38ba8fa6a11908560c01b612bfc565b6001826040015161155a9190613ece565b816040018181525050611577675f3f1bfac38bcd3360c01b612bfc565b6040518060400160405280600681526020017f61637469766500000000000000000000000000000000000000000000000000008152508160e001819052506115c9674805d738bf8ffce060c01b612bfc565b80600082600001516040516115de91906139f3565b908152602001604051809103902060008201518160000190816116019190613cf5565b5060208201518160010190816116179190613cf5565b506040820151816002015560608201518160030190816116379190613cf5565b5060808201518160040160006101000a81548173ffffffffffffffffffffffffffffffffffffffff021916908373ffffffffffffffffffffffffffffffffffffffff16021790555060a08201518160050190816116949190613cf5565b5060c08201518160060190816116aa9190613cf5565b5060e08201518160070190816116c09190613cf5565b506101008201518160080190816116d79190613cf5565b509050506116ef673c2b17ee6e3fdcd260c01b612bfc565b61170367304c59043fe300e660c01b612bfc565b6001816000015190806001815401808255809150506001900390600052602060002001600090919091909150908161173b9190613cf5565b50611756565b61175567717bef79522d4c0f60c01b612bfc565b5b5050565b600061177067250a3740e4dc23d460c01b612bfc565b611784674ec1273a6becd56760c01b612bfc565b6117986717443e2fcb8cb5f460c01b612bfc565b600080836040516117a991906139f3565b908152602001604051809103902060000180546117c590613a39565b9050141580156118225750600360009054906101000a900473ffffffffffffffffffffffffffffffffffffffff1673ffffffffffffffffffffffffffffffffffffffff163373ffffffffffffffffffffffffffffffffffffffff16145b1561186c5761183b675ec4ca6178a428c860c01b612bfc565b61184f676cb10b4c12fb44b660c01b612bfc565b611863670fcc3ad99aae0b4060c01b612bfc565b600190506118ad565b61188067af9b47e8ea876d0060c01b612bfc565b611894670879485203d45b1260c01b612bfc565b6118a8677bc399182b704f1760c01b612bfc565b600090505b919050565b6118c6677c5bc950d4b1a6b360c01b612bfc565b6118da679ee80cadc3256b4b60c01b612bfc565b6118ee67bebf37a97fa506f560c01b612bfc565b600360009054906101000a900473ffffffffffffffffffffffffffffffffffffffff1673ffffffffffffffffffffffffffffffffffffffff163373ffffffffffffffffffffffffffffffffffffffff1603611beb57611957674936979bf3bbae5360c01b612bfc565b61196b6760d3fc94e88d49dd60c01b612bfc565b61197f67bd156327bc4765d960c01b612bfc565b61198881612c0a565b15611bd1576119a16785185986ea9544d560c01b612bfc565b6119b567a5aabe121156151560c01b612bfc565b6040518060400160405280600681526020017f61637469766500000000000000000000000000000000000000000000000000008152508160e00181905250611a0767d0f148f1d3e0846960c01b612bfc565b6040518060400160405280600181526020017f30000000000000000000000000000000000000000000000000000000000000008152508160600181905250611a59677b418405e9b3d1c860c01b612bfc565b8060008260000151604051611a6e91906139f3565b90815260200160405180910390206000820151816000019081611a919190613cf5565b506020820151816001019081611aa79190613cf5565b50604082015181600201556060820151816003019081611ac79190613cf5565b5060808201518160040160006101000a81548173ffffffffffffffffffffffffffffffffffffffff021916908373ffffffffffffffffffffffffffffffffffffffff16021790555060a0820151816005019081611b249190613cf5565b5060c0820151816006019081611b3a9190613cf5565b5060e0820151816007019081611b509190613cf5565b50610100820151816008019081611b679190613cf5565b50905050611b7f67383076486325ea3760c01b612bfc565b611b93670ef4f62e9db21fc360c01b612bfc565b60018160000151908060018154018082558091505060019003906000526020600020016000909190919091509081611bcb9190613cf5565b50611be6565b611be5678d905695b521427260c01b612bfc565b5b611c00565b611bff674f9f8d1b388d69d160c01b612bfc565b5b50565b611c1767734c787fdb951fb260c01b612bfc565b611c2b6724928934ee88298f60c01b612bfc565b611c3f6707b1bb2937926a7360c01b612bfc565b600073ffffffffffffffffffffffffffffffffffffffff168173ffffffffffffffffffffffffffffffffffffffff1614158015611cca5750600073ffffffffffffffffffffffffffffffffffffffff16600360009054906101000a900473ffffffffffffffffffffffffffffffffffffffff1673ffffffffffffffffffffffffffffffffffffffff16145b8015611d455750600360009054906101000a900473ffffffffffffffffffffffffffffffffffffffff1673ffffffffffffffffffffffffffffffffffffffff16600360009054906101000a900473ffffffffffffffffffffffffffffffffffffffff1673ffffffffffffffffffffffffffffffffffffffff16145b15611db857611d5e679e268fc25f5a139460c01b612bfc565b611d72679d450c4a5113e63960c01b612bfc565b80600360006101000a81548173ffffffffffffffffffffffffffffffffffffffff021916908373ffffffffffffffffffffffffffffffffffffffff160217905550611dcd565b611dcc67aabaa702dc6aa62860c01b612bfc565b5b50565b611dd8612de3565b611dec6716ce9d0fa89ed82460c01b612bfc565b611e0067f9758e4bcaf41bc260c01b612bfc565b611e1467debce8740407b66b60c01b612bfc565b600360009054906101000a900473ffffffffffffffffffffffffffffffffffffffff1673ffffffffffffffffffffffffffffffffffffffff163373ffffffffffffffffffffffffffffffffffffffff1603611f8257611e7d675b2e3d2955aca92e60c01b612bfc565b611e9167761069bc3102cd2560c01b612bfc565b611ea567180cbc982a34ebae60c01b612bfc565b6040518060600160405280600115158152602001600084604051611ec991906139f3565b90815260200160405180910390206008018054611ee590613a39565b80601f0160208091040260200160405190810160405280929190818152602001828054611f1190613a39565b8015611f5e5780601f10611f3357610100808354040283529160200191611f5e565b820191906000526020600020905b815481529060010190602001808311611f4157829003601f168201915b50505050508152602001604051806020016040528060008152508152509050612006565b611f96676aecd61450e8594460c01b612bfc565b611faa6781f9c34cf26f100460c01b612bfc565b611fbe67733dabcda795ee7b60c01b612bfc565b604051806060016040528060001515815260200160405180602001604052806000815250815260200160405180608001604052806044815260200161411f6044913981525090505b919050565b612013612e52565b61202767a1b4ca04eaabcab960c01b612bfc565b61203b6778326ad1251d34d860c01b612bfc565b61204f676e5b22faf8f15b1460c01b612bfc565b600060018054905067ffffffffffffffff8111156120705761206f612f06565b5b6040519080825280602002602001820160405280156120a957816020015b612096612e75565b81526020019060019003908161208e5790505b5090506120c067b36162fc7653d1c660c01b612bfc565b6120d4670a0e4ab2306c3c7e60c01b612bfc565b600080846040516120e591906139f3565b90815260200160405180910390206040518061012001604052908160008201805461210f90613a39565b80601f016020809104026020016040519081016040528092919081815260200182805461213b90613a39565b80156121885780601f1061215d57610100808354040283529160200191612188565b820191906000526020600020905b81548152906001019060200180831161216b57829003601f168201915b505050505081526020016001820180546121a190613a39565b80601f01602080910402602001604051908101604052809291908181526020018280546121cd90613a39565b801561221a5780601f106121ef5761010080835404028352916020019161221a565b820191906000526020600020905b8154815290600101906020018083116121fd57829003601f168201915b505050505081526020016002820154815260200160038201805461223d90613a39565b80601f016020809104026020016040519081016040528092919081815260200182805461226990613a39565b80156122b65780601f1061228b576101008083540402835291602001916122b6565b820191906000526020600020905b81548152906001019060200180831161229957829003601f168201915b505050505081526020016004820160009054906101000a900473ffffffffffffffffffffffffffffffffffffffff1673ffffffffffffffffffffffffffffffffffffffff1673ffffffffffffffffffffffffffffffffffffffff16815260200160058201805461232590613a39565b80601f016020809104026020016040519081016040528092919081815260200182805461235190613a39565b801561239e5780601f106123735761010080835404028352916020019161239e565b820191906000526020600020905b81548152906001019060200180831161238157829003601f168201915b505050505081526020016006820180546123b790613a39565b80601f01602080910402602001604051908101604052809291908181526020018280546123e390613a39565b80156124305780601f1061240557610100808354040283529160200191612430565b820191906000526020600020905b81548152906001019060200180831161241357829003601f168201915b5050505050815260200160078201805461244990613a39565b80601f016020809104026020016040519081016040528092919081815260200182805461247590613a39565b80156124c25780601f10612497576101008083540402835291602001916124c2565b820191906000526020600020905b8154815290600101906020018083116124a557829003601f168201915b505050505081526020016008820180546124db90613a39565b80601f016020809104026020016040519081016040528092919081815260200182805461250790613a39565b80156125545780601f1061252957610100808354040283529160200191612554565b820191906000526020600020905b81548152906001019060200180831161253757829003601f168201915b505050505081525050905061257367cacd6b8485d6ac2860c01b612bfc565b61258767e2c84755ba40984f60c01b612bfc565b600061259d6754fc0511c8fd62b160c01b612bfc565b6125b1674fafa510f14a17c060c01b612bfc565b5b6040516020016125c190613f5e565b6040516020818303038152906040528051906020012082606001516040516020016125ec91906139f3565b6040516020818303038152906040528051906020012014612b315761261b67e4fb7884c0c25f0e60c01b612bfc565b8183828151811061262f5761262e613dc7565b5b602002602001018190525061264e67d7b1584ac75a40f160c01b612bfc565b808061265990613e86565b91505061267067275b6073ad6b68c460c01b612bfc565b6126846762044a1d15fea4f660c01b612bfc565b6000826060015190506126a1670a4f19c582a9b5cc60c01b612bfc565b6000816040516126b191906139f3565b9081526020016040518091039020604051806101200160405290816000820180546126db90613a39565b80601f016020809104026020016040519081016040528092919081815260200182805461270790613a39565b80156127545780601f1061272957610100808354040283529160200191612754565b820191906000526020600020905b81548152906001019060200180831161273757829003601f168201915b5050505050815260200160018201805461276d90613a39565b80601f016020809104026020016040519081016040528092919081815260200182805461279990613a39565b80156127e65780601f106127bb576101008083540402835291602001916127e6565b820191906000526020600020905b8154815290600101906020018083116127c957829003601f168201915b505050505081526020016002820154815260200160038201805461280990613a39565b80601f016020809104026020016040519081016040528092919081815260200182805461283590613a39565b80156128825780601f1061285757610100808354040283529160200191612882565b820191906000526020600020905b81548152906001019060200180831161286557829003601f168201915b505050505081526020016004820160009054906101000a900473ffffffffffffffffffffffffffffffffffffffff1673ffffffffffffffffffffffffffffffffffffffff1673ffffffffffffffffffffffffffffffffffffffff1681526020016005820180546128f190613a39565b80601f016020809104026020016040519081016040528092919081815260200182805461291d90613a39565b801561296a5780601f1061293f5761010080835404028352916020019161296a565b820191906000526020600020905b81548152906001019060200180831161294d57829003601f168201915b5050505050815260200160068201805461298390613a39565b80601f01602080910402602001604051908101604052809291908181526020018280546129af90613a39565b80156129fc5780601f106129d1576101008083540402835291602001916129fc565b820191906000526020600020905b8154815290600101906020018083116129df57829003601f168201915b50505050508152602001600782018054612a1590613a39565b80601f0160208091040260200160405190810160405280929190818152602001828054612a4190613a39565b8015612a8e5780601f10612a6357610100808354040283529160200191612a8e565b820191906000526020600020905b815481529060010190602001808311612a7157829003601f168201915b50505050508152602001600882018054612aa790613a39565b80601f0160208091040260200160405190810160405280929190818152602001828054612ad390613a39565b8015612b205780601f10612af557610100808354040283529160200191612b20565b820191906000526020600020905b815481529060010190602001808311612b0357829003601f168201915b5050505050815250509250506125b2565b612b4567b18e7f57f5b368c060c01b612bfc565b81838281518110612b5957612b58613dc7565b5b6020026020010181905250612b7867bdfcaa19e5819cde60c01b612bfc565b8080612b8390613e86565b915050612b9a676aeefb3e1ad0427860c01b612bfc565b808352612bb16746b991ee4cdbb7d860c01b612bfc565b612bc5678d4233e5bc6d003b60c01b612bfc565b6040518060600160405280600115158152602001848152602001604051806020016040528060008152508152509350505050919050565b50565b600060019050919050565b6000612c206782cebf3632a611af60c01b612bfc565b612c34677b7b98fbff74eead60c01b612bfc565b612c48674cc7383d8dfce5af60c01b612bfc565b612c55826000015161175a565b158015612cfa5750600260009054906101000a900473ffffffffffffffffffffffffffffffffffffffff1673ffffffffffffffffffffffffffffffffffffffff16634294a5ad836040518263ffffffff1660e01b8152600401612cb89190614062565b602060405180830381865afa158015612cd5573d6000803e3d6000fd5b505050506040513d601f19601f82011682018060405250810190612cf991906140b0565b5b8015612d535750600360009054906101000a900473ffffffffffffffffffffffffffffffffffffffff1673ffffffffffffffffffffffffffffffffffffffff163373ffffffffffffffffffffffffffffffffffffffff16145b15612d9d57612d6c67c3c4eae26e43d86e60c01b612bfc565b612d80672374f806d2bb2acd60c01b612bfc565b612d94672efd66303451e81960c01b612bfc565b60019050612dde565b612db167e9e5dbe97d014fd460c01b612bfc565b612dc56726a971c04daff74d60c01b612bfc565b612dd9676d4d9ad2c1b9399c60c01b612bfc565b600090505b919050565b604051806060016040528060001515815260200160608152602001606081525090565b6040518060600160405280600015158152602001612e22612e75565b8152602001606081525090565b604051806060016040528060001515815260200160608152602001606081525090565b604051806060016040528060001515815260200160608152602001606081525090565b60405180610120016040528060608152602001606081526020016000815260200160608152602001600073ffffffffffffffffffffffffffffffffffffffff168152602001606081526020016060815260200160608152602001606081525090565b6000604051905090565b600080fd5b600080fd5b600080fd5b600080fd5b6000601f19601f8301169050919050565b7f4e487b7100000000000000000000000000000000000000000000000000000000600052604160045260246000fd5b612f3e82612ef5565b810181811067ffffffffffffffff82111715612f5d57612f5c612f06565b5b80604052505050565b6000612f70612ed7565b9050612f7c8282612f35565b919050565b600067ffffffffffffffff821115612f9c57612f9b612f06565b5b612fa582612ef5565b9050602081019050919050565b82818337600083830152505050565b6000612fd4612fcf84612f81565b612f66565b905082815260208101848484011115612ff057612fef612ef0565b5b612ffb848285612fb2565b509392505050565b600082601f83011261301857613017612eeb565b5b8135613028848260208601612fc1565b91505092915050565b60006020828403121561304757613046612ee1565b5b600082013567ffffffffffffffff81111561306557613064612ee6565b5b61307184828501613003565b91505092915050565b60008115159050919050565b61308f8161307a565b82525050565b600081519050919050565b600082825260208201905092915050565b60005b838110156130cf5780820151818401526020810190506130b4565b60008484015250505050565b60006130e682613095565b6130f081856130a0565b93506131008185602086016130b1565b61310981612ef5565b840191505092915050565b600060608301600083015161312c6000860182613086565b506020830151848203602086015261314482826130db565b9150506040830151848203604086015261315e82826130db565b9150508091505092915050565b600060208201905081810360008301526131858184613114565b905092915050565b600080604083850312156131a4576131a3612ee1565b5b600083013567ffffffffffffffff8111156131c2576131c1612ee6565b5b6131ce85828601613003565b925050602083013567ffffffffffffffff8111156131ef576131ee612ee6565b5b6131fb85828601613003565b9150509250929050565b6000819050919050565b61321881613205565b82525050565b600073ffffffffffffffffffffffffffffffffffffffff82169050919050565b60006132498261321e565b9050919050565b6132598161323e565b82525050565b600061012083016000830151848203600086015261327d82826130db565b9150506020830151848203602086015261329782826130db565b91505060408301516132ac604086018261320f565b50606083015184820360608601526132c482826130db565b91505060808301516132d96080860182613250565b5060a083015184820360a08601526132f182826130db565b91505060c083015184820360c086015261330b82826130db565b91505060e083015184820360e086015261332582826130db565b91505061010083015184820361010086015261334182826130db565b9150508091505092915050565b60006060830160008301516133666000860182613086565b506020830151848203602086015261337e828261325f565b9150506040830151848203604086015261339882826130db565b9150508091505092915050565b600060208201905081810360008301526133bf818461334e565b905092915050565b6133d08161323e565b81146133db57600080fd5b50565b6000813590506133ed816133c7565b92915050565b6000806040838503121561340a57613409612ee1565b5b6000613418858286016133de565b925050602083013567ffffffffffffffff81111561343957613438612ee6565b5b61344585828601613003565b9150509250929050565b6134588161307a565b82525050565b6000602082019050613473600083018461344f565b92915050565b600081519050919050565b600082825260208201905092915050565b6000819050602082019050919050565b60006134b183836130db565b905092915050565b6000602082019050919050565b60006134d182613479565b6134db8185613484565b9350836020820285016134ed85613495565b8060005b85811015613529578484038952815161350a85826134a5565b9450613515836134b9565b925060208a019950506001810190506134f1565b50829750879550505050505092915050565b60006060830160008301516135536000860182613086565b506020830151848203602086015261356b82826134c6565b9150506040830151848203604086015261358582826130db565b9150508091505092915050565b600060208201905081810360008301526135ac818461353b565b905092915050565b600080fd5b600080fd5b6135c781613205565b81146135d257600080fd5b50565b6000813590506135e4816135be565b92915050565b60006101208284031215613601576136006135b4565b5b61360c610120612f66565b9050600082013567ffffffffffffffff81111561362c5761362b6135b9565b5b61363884828501613003565b600083015250602082013567ffffffffffffffff81111561365c5761365b6135b9565b5b61366884828501613003565b602083015250604061367c848285016135d5565b604083015250606082013567ffffffffffffffff8111156136a05761369f6135b9565b5b6136ac84828501613003565b60608301525060806136c0848285016133de565b60808301525060a082013567ffffffffffffffff8111156136e4576136e36135b9565b5b6136f084828501613003565b60a08301525060c082013567ffffffffffffffff811115613714576137136135b9565b5b61372084828501613003565b60c08301525060e082013567ffffffffffffffff811115613744576137436135b9565b5b61375084828501613003565b60e08301525061010082013567ffffffffffffffff811115613775576137746135b9565b5b61378184828501613003565b6101008301525092915050565b600080604083850312156137a5576137a4612ee1565b5b600083013567ffffffffffffffff8111156137c3576137c2612ee6565b5b6137cf858286016135ea565b925050602083013567ffffffffffffffff8111156137f0576137ef612ee6565b5b6137fc858286016135ea565b9150509250929050565b60006020828403121561381c5761381b612ee1565b5b600082013567ffffffffffffffff81111561383a57613839612ee6565b5b613846848285016135ea565b91505092915050565b60006020828403121561386557613864612ee1565b5b6000613873848285016133de565b91505092915050565b600081519050919050565b600082825260208201905092915050565b6000819050602082019050919050565b60006138b4838361325f565b905092915050565b6000602082019050919050565b60006138d48261387c565b6138de8185613887565b9350836020820285016138f085613898565b8060005b8581101561392c578484038952815161390d85826138a8565b9450613918836138bc565b925060208a019950506001810190506138f4565b50829750879550505050505092915050565b60006060830160008301516139566000860182613086565b506020830151848203602086015261396e82826138c9565b9150506040830151848203604086015261398882826130db565b9150508091505092915050565b600060208201905081810360008301526139af818461393e565b905092915050565b600081905092915050565b60006139cd82613095565b6139d781856139b7565b93506139e78185602086016130b1565b80840191505092915050565b60006139ff82846139c2565b915081905092915050565b7f4e487b7100000000000000000000000000000000000000000000000000000000600052602260045260246000fd5b60006002820490506001821680613a5157607f821691505b602082108103613a6457613a63613a0a565b5b50919050565b60008190508160005260206000209050919050565b60008154613a8c81613a39565b613a9681866139b7565b94506001821660008114613ab15760018114613ac657613af9565b60ff1983168652811515820286019350613af9565b613acf85613a6a565b60005b83811015613af157815481890152600182019150602081019050613ad2565b838801955050505b50505092915050565b6000613b0e8284613a7f565b915081905092915050565b50565b6000613b296000836139b7565b9150613b3482613b19565b600082019050919050565b6000613b4a82613b1c565b9150819050919050565b60006020601f8301049050919050565b600082821b905092915050565b600060088302613ba17fffffffffffffffffffffffffffffffffffffffffffffffffffffffffffffffff82613b64565b613bab8683613b64565b95508019841693508086168417925050509392505050565b6000819050919050565b6000819050919050565b6000613bf2613bed613be884613bc3565b613bcd565b613bc3565b9050919050565b6000819050919050565b613c0c83613bd7565b613c20613c1882613bf9565b848454613b71565b825550505050565b600090565b613c35613c28565b613c40818484613c03565b505050565b5b81811015613c6457613c59600082613c2d565b600181019050613c46565b5050565b601f821115613ca957613c7a81613a6a565b613c8384613b54565b81016020851015613c92578190505b613ca6613c9e85613b54565b830182613c45565b50505b505050565b600082821c905092915050565b6000613ccc60001984600802613cae565b1980831691505092915050565b6000613ce58383613cbb565b9150826002028217905092915050565b613cfe82613095565b67ffffffffffffffff811115613d1757613d16612f06565b5b613d218254613a39565b613d2c828285613c68565b600060209050601f831160018114613d5f5760008415613d4d578287015190505b613d578582613cd9565b865550613dbf565b601f198416613d6d86613a6a565b60005b82811015613d9557848901518255600182019150602085019450602081019050613d70565b86831015613db25784890151613dae601f891682613cbb565b8355505b6001600288020188555050505b505050505050565b7f4e487b7100000000000000000000000000000000000000000000000000000000600052603260045260246000fd5b7f6163746976650000000000000000000000000000000000000000000000000000600082015250565b6000613e2c6006836139b7565b9150613e3782613df6565b600682019050919050565b6000613e4d82613e1f565b9150819050919050565b7f4e487b7100000000000000000000000000000000000000000000000000000000600052601160045260246000fd5b6000613e9182613bc3565b91507fffffffffffffffffffffffffffffffffffffffffffffffffffffffffffffffff8203613ec357613ec2613e57565b5b600182019050919050565b6000613ed982613205565b9150613ee483613205565b925082820190508281121560008312168382126000841215161715613f0c57613f0b613e57565b5b92915050565b7f3000000000000000000000000000000000000000000000000000000000000000600082015250565b6000613f486001836139b7565b9150613f5382613f12565b600182019050919050565b6000613f6982613f3b565b9150819050919050565b6000610120830160008301518482036000860152613f9182826130db565b91505060208301518482036020860152613fab82826130db565b9150506040830151613fc0604086018261320f565b5060608301518482036060860152613fd882826130db565b9150506080830151613fed6080860182613250565b5060a083015184820360a086015261400582826130db565b91505060c083015184820360c086015261401f82826130db565b91505060e083015184820360e086015261403982826130db565b91505061010083015184820361010086015261405582826130db565b9150508091505092915050565b6000602082019050818103600083015261407c8184613f73565b905092915050565b61408d8161307a565b811461409857600080fd5b50565b6000815190506140aa81614084565b92915050565b6000602082840312156140c6576140c5612ee1565b5b60006140d48482850161409b565b9150509291505056fe54687265206973206e6f2066696c652c20696e2074686520676976656e2073746174652c2074686174206861732074686520676976656e2049504653204349442e546865207472616e73616374696f6e2065786563757465722063616e206f6e6c792062652074686520416363657373436f6e74726f6c2e736f6c20636f6e74726163742e4f6e6c792074686520416363657373436f6e74726f6c2e736f6c20636f6e74726163742069732061626c6520746f20657865637574652074686973206d6574686f642ea26469706673582212208267f266befc10e080a92db57b732e3cb3d79608471c6e0bfd838673109c36d164736f6c63430008130033",
  "linkReferences": {},
  "deployedLinkReferences": {}
}