{
  "_format": "hh-sol-artifact-1",
  "contractName": "FileRegister",
  "sourceName": "contracts/FileRegister.sol",
  "abi": [
    {
      "inputs": [
        {
          "internalType": "address",
          "name": "helperContract",
          "type": "address"
        }
      ],
      "stateMutability": "nonpayable",
      "type": "constructor"
    },
    {
      "inputs": [
        {
          "components": [
            {
              "internalType": "string",
              "name": "ipfsCID",
              "type": "string"
            },
            {
              "internalType": "string",
              "name": "fileName",
              "type": "string"
            },
            {
              "internalType": "int256",
              "name": "version",
              "type": "int256"
            },
            {
              "internalType": "string",
              "name": "prevIpfsCID",
              "type": "string"
            },
            {
              "internalType": "address",
              "name": "owner",
              "type": "address"
            },
            {
              "internalType": "string",
              "name": "fileType",
              "type": "string"
            },
            {
              "internalType": "string",
              "name": "iv",
              "type": "string"
            },
            {
              "internalType": "string",
              "name": "state",
              "type": "string"
            },
            {
              "internalType": "string",
              "name": "fileHash",
              "type": "string"
            }
          ],
          "internalType": "struct FileRegister.File",
          "name": "file",
          "type": "tuple"
        }
      ],
      "name": "addFile",
      "outputs": [],
      "stateMutability": "nonpayable",
      "type": "function"
    },
    {
      "inputs": [
        {
          "components": [
            {
              "internalType": "string",
              "name": "ipfsCID",
              "type": "string"
            },
            {
              "internalType": "string",
              "name": "fileName",
              "type": "string"
            },
            {
              "internalType": "int256",
              "name": "version",
              "type": "int256"
            },
            {
              "internalType": "string",
              "name": "prevIpfsCID",
              "type": "string"
            },
            {
              "internalType": "address",
              "name": "owner",
              "type": "address"
            },
            {
              "internalType": "string",
              "name": "fileType",
              "type": "string"
            },
            {
              "internalType": "string",
              "name": "iv",
              "type": "string"
            },
            {
              "internalType": "string",
              "name": "state",
              "type": "string"
            },
            {
              "internalType": "string",
              "name": "fileHash",
              "type": "string"
            }
          ],
          "internalType": "struct FileRegister.File",
          "name": "file",
          "type": "tuple"
        }
      ],
      "name": "canAddFile",
      "outputs": [
        {
          "internalType": "bool",
          "name": "",
          "type": "bool"
        }
      ],
      "stateMutability": "view",
      "type": "function"
    },
    {
      "inputs": [
        {
          "internalType": "string",
          "name": "fileIpfsCid",
          "type": "string"
        }
      ],
      "name": "deactivateFile",
      "outputs": [],
      "stateMutability": "nonpayable",
      "type": "function"
    },
    {
      "inputs": [
        {
          "components": [
            {
              "internalType": "string",
              "name": "ipfsCID",
              "type": "string"
            },
            {
              "internalType": "string",
              "name": "fileName",
              "type": "string"
            },
            {
              "internalType": "int256",
              "name": "version",
              "type": "int256"
            },
            {
              "internalType": "string",
              "name": "prevIpfsCID",
              "type": "string"
            },
            {
              "internalType": "address",
              "name": "owner",
              "type": "address"
            },
            {
              "internalType": "string",
              "name": "fileType",
              "type": "string"
            },
            {
              "internalType": "string",
              "name": "iv",
              "type": "string"
            },
            {
              "internalType": "string",
              "name": "state",
              "type": "string"
            },
            {
              "internalType": "string",
              "name": "fileHash",
              "type": "string"
            }
          ],
          "internalType": "struct FileRegister.File",
          "name": "selectedFile",
          "type": "tuple"
        },
        {
          "components": [
            {
              "internalType": "string",
              "name": "ipfsCID",
              "type": "string"
            },
            {
              "internalType": "string",
              "name": "fileName",
              "type": "string"
            },
            {
              "internalType": "int256",
              "name": "version",
              "type": "int256"
            },
            {
              "internalType": "string",
              "name": "prevIpfsCID",
              "type": "string"
            },
            {
              "internalType": "address",
              "name": "owner",
              "type": "address"
            },
            {
              "internalType": "string",
              "name": "fileType",
              "type": "string"
            },
            {
              "internalType": "string",
              "name": "iv",
              "type": "string"
            },
            {
              "internalType": "string",
              "name": "state",
              "type": "string"
            },
            {
              "internalType": "string",
              "name": "fileHash",
              "type": "string"
            }
          ],
          "internalType": "struct FileRegister.File",
          "name": "newFile",
          "type": "tuple"
        }
      ],
      "name": "editFile",
      "outputs": [],
      "stateMutability": "nonpayable",
      "type": "function"
    },
    {
      "inputs": [
        {
          "internalType": "string",
          "name": "fileIpfsCID",
          "type": "string"
        }
      ],
      "name": "fileExists",
      "outputs": [
        {
          "internalType": "bool",
          "name": "",
          "type": "bool"
        }
      ],
      "stateMutability": "view",
      "type": "function"
    },
    {
      "inputs": [
        {
          "internalType": "string",
          "name": "fileIpfsCid",
          "type": "string"
        },
        {
          "internalType": "string",
          "name": "state",
          "type": "string"
        }
      ],
      "name": "getFileByIpfsCID",
      "outputs": [
        {
          "components": [
            {
              "internalType": "bool",
              "name": "success",
              "type": "bool"
            },
            {
              "components": [
                {
                  "internalType": "string",
                  "name": "ipfsCID",
                  "type": "string"
                },
                {
                  "internalType": "string",
                  "name": "fileName",
                  "type": "string"
                },
                {
                  "internalType": "int256",
                  "name": "version",
                  "type": "int256"
                },
                {
                  "internalType": "string",
                  "name": "prevIpfsCID",
                  "type": "string"
                },
                {
                  "internalType": "address",
                  "name": "owner",
                  "type": "address"
                },
                {
                  "internalType": "string",
                  "name": "fileType",
                  "type": "string"
                },
                {
                  "internalType": "string",
                  "name": "iv",
                  "type": "string"
                },
                {
                  "internalType": "string",
                  "name": "state",
                  "type": "string"
                },
                {
                  "internalType": "string",
                  "name": "fileHash",
                  "type": "string"
                }
              ],
              "internalType": "struct FileRegister.File",
              "name": "file",
              "type": "tuple"
            }
          ],
          "internalType": "struct FileRegister.ResultFile",
          "name": "",
          "type": "tuple"
        }
      ],
      "stateMutability": "view",
      "type": "function"
    },
    {
      "inputs": [
        {
          "internalType": "string",
          "name": "fileIpfsCID",
          "type": "string"
        }
      ],
      "name": "getFileHash",
      "outputs": [
        {
          "components": [
            {
              "internalType": "bool",
              "name": "success",
              "type": "bool"
            },
            {
              "internalType": "string",
              "name": "resultString",
              "type": "string"
            }
          ],
          "internalType": "struct Helper.ResultString",
          "name": "",
          "type": "tuple"
        }
      ],
      "stateMutability": "view",
      "type": "function"
    },
    {
      "inputs": [
        {
          "internalType": "string",
          "name": "fileName",
          "type": "string"
        }
      ],
      "name": "getFileOwner",
      "outputs": [
        {
          "internalType": "address",
          "name": "",
          "type": "address"
        }
      ],
      "stateMutability": "view",
      "type": "function"
    },
    {
      "inputs": [
        {
          "internalType": "string",
          "name": "fileIpfsCID",
          "type": "string"
        }
      ],
      "name": "getFileState",
      "outputs": [
        {
          "components": [
            {
              "internalType": "bool",
              "name": "success",
              "type": "bool"
            },
            {
              "internalType": "string",
              "name": "resultString",
              "type": "string"
            }
          ],
          "internalType": "struct Helper.ResultString",
          "name": "",
          "type": "tuple"
        }
      ],
      "stateMutability": "view",
      "type": "function"
    },
    {
      "inputs": [
        {
          "internalType": "string",
          "name": "name",
          "type": "string"
        }
      ],
      "name": "getIpfsCIDsForName",
      "outputs": [
        {
          "internalType": "string[]",
          "name": "",
          "type": "string[]"
        }
      ],
      "stateMutability": "view",
      "type": "function"
    },
    {
      "inputs": [
        {
          "internalType": "string",
          "name": "fileName",
          "type": "string"
        }
      ],
      "name": "getLatestVersionOfFile",
      "outputs": [
        {
          "internalType": "int256",
          "name": "",
          "type": "int256"
        }
      ],
      "stateMutability": "view",
      "type": "function"
    },
    {
      "inputs": [
        {
          "internalType": "address",
          "name": "accessControlContractAddress",
          "type": "address"
        }
      ],
      "name": "setAccessControlAddress",
      "outputs": [],
      "stateMutability": "nonpayable",
      "type": "function"
    },
    {
      "inputs": [
        {
          "internalType": "address",
          "name": "userAccount",
          "type": "address"
        },
        {
          "internalType": "string",
          "name": "fileIpfsCID",
          "type": "string"
        }
      ],
      "name": "userIsFileOwner",
      "outputs": [
        {
          "internalType": "bool",
          "name": "",
          "type": "bool"
        }
      ],
      "stateMutability": "view",
      "type": "function"
    }
  ],
  "bytecode": "0x60806040523480156200001157600080fd5b5060405162002cff38038062002cff8339818101604052810190620000379190620000e9565b80600260006101000a81548173ffffffffffffffffffffffffffffffffffffffff021916908373ffffffffffffffffffffffffffffffffffffffff160217905550506200011b565b600080fd5b600073ffffffffffffffffffffffffffffffffffffffff82169050919050565b6000620000b18262000084565b9050919050565b620000c381620000a4565b8114620000cf57600080fd5b50565b600081519050620000e381620000b8565b92915050565b6000602082840312156200010257620001016200007f565b5b60006200011284828501620000d2565b91505092915050565b612bd4806200012b6000396000f3fe608060405234801561001057600080fd5b50600436106100ce5760003560e01c80637113c4dd1161008c5780639bccd6ad116100665780639bccd6ad1461025b578063bfddc42f1461028b578063e8d56b8b146102a7578063f880680b146102c3576100ce565b80637113c4dd146101f357806374546fdf1461022357806395f0f0bb1461023f576100ce565b8062438ceb146100d357806338fa8f581461010357806347eb6fa7146101335780634907904b1461016357806352a9baef146101935780635a14f3ef146101c3575b600080fd5b6100ed60048036038101906100e89190611cc5565b6102f3565b6040516100fa9190611de5565b60405180910390f35b61011d60048036038101906101189190611cc5565b610447565b60405161012a9190611e48565b60405180910390f35b61014d60048036038101906101489190611e63565b6105bb565b60405161015a919061202f565b60405180910390f35b61017d60048036038101906101789190611cc5565b610c4a565b60405161018a9190612060565b60405180910390f35b6101ad60048036038101906101a891906120a7565b610db9565b6040516101ba9190612112565b60405180910390f35b6101dd60048036038101906101d89190612307565b610e9d565b6040516101ea9190612112565b60405180910390f35b61020d60048036038101906102089190611cc5565b610fc2565b60405161021a9190612412565b60405180910390f35b61023d60048036038101906102389190611cc5565b611264565b005b61025960048036038101906102549190612434565b611321565b005b61027560048036038101906102709190611cc5565b6115cf565b6040516102829190612112565b60405180910390f35b6102a560048036038101906102a09190612307565b611673565b005b6102c160048036038101906102bc91906124ac565b6118a2565b005b6102dd60048036038101906102d89190611cc5565b611977565b6040516102ea9190611de5565b60405180910390f35b6102fb611acb565b600360009054906101000a900473ffffffffffffffffffffffffffffffffffffffff1673ffffffffffffffffffffffffffffffffffffffff163373ffffffffffffffffffffffffffffffffffffffff16036104185760405180604001604052806001151581526020016000846040516103749190612515565b908152602001604051809103902060070180546103909061255b565b80601f01602080910402602001604051908101604052809291908181526020018280546103bc9061255b565b80156104095780601f106103de57610100808354040283529160200191610409565b820191906000526020600020905b8154815290600101906020018083116103ec57829003601f168201915b50505050508152509050610442565b60405180604001604052806000151581526020016040518060200160405280600081525081525090505b919050565b600080600090505b6001805490508110156105b0578260405160200161046d9190612515565b604051602081830303815290604052805190602001206000600183815481106104995761049861258c565b5b906000526020600020016040516104b09190612653565b90815260200160405180910390206001016040516020016104d19190612653565b604051602081830303815290604052805190602001201480156105315750600080600183815481106105065761050561258c565b5b9060005260206000200160405161051d9190612653565b908152602001604051809103902060020154145b1561059d5760006001828154811061054c5761054b61258c565b5b906000526020600020016040516105639190612653565b908152602001604051809103902060040160009054906101000a900473ffffffffffffffffffffffffffffffffffffffff169150506105b6565b80806105a8906126a3565b91505061044f565b50600090505b919050565b6105c3611ae7565b600080846040516105d49190612515565b908152602001604051809103902060010180546105f09061255b565b90501180156106be57508160405160200161060b9190612515565b604051602081830303815290604052805190602001206000846040516106319190612515565b90815260200160405180910390206007016040516020016106529190612653565b6040516020818303038152906040528051906020012014806106bd575060405160200161067e90612711565b60405160208183030381529060405280519060200120826040516020016106a59190612515565b60405160208183030381529060405280519060200120145b5b15610b695760405180604001604052806001151581526020016000856040516106e79190612515565b9081526020016040518091039020604051806101200160405290816000820180546107119061255b565b80601f016020809104026020016040519081016040528092919081815260200182805461073d9061255b565b801561078a5780601f1061075f5761010080835404028352916020019161078a565b820191906000526020600020905b81548152906001019060200180831161076d57829003601f168201915b505050505081526020016001820180546107a39061255b565b80601f01602080910402602001604051908101604052809291908181526020018280546107cf9061255b565b801561081c5780601f106107f15761010080835404028352916020019161081c565b820191906000526020600020905b8154815290600101906020018083116107ff57829003601f168201915b505050505081526020016002820154815260200160038201805461083f9061255b565b80601f016020809104026020016040519081016040528092919081815260200182805461086b9061255b565b80156108b85780601f1061088d576101008083540402835291602001916108b8565b820191906000526020600020905b81548152906001019060200180831161089b57829003601f168201915b505050505081526020016004820160009054906101000a900473ffffffffffffffffffffffffffffffffffffffff1673ffffffffffffffffffffffffffffffffffffffff1673ffffffffffffffffffffffffffffffffffffffff1681526020016005820180546109279061255b565b80601f01602080910402602001604051908101604052809291908181526020018280546109539061255b565b80156109a05780601f10610975576101008083540402835291602001916109a0565b820191906000526020600020905b81548152906001019060200180831161098357829003601f168201915b505050505081526020016006820180546109b99061255b565b80601f01602080910402602001604051908101604052809291908181526020018280546109e59061255b565b8015610a325780601f10610a0757610100808354040283529160200191610a32565b820191906000526020600020905b815481529060010190602001808311610a1557829003601f168201915b50505050508152602001600782018054610a4b9061255b565b80601f0160208091040260200160405190810160405280929190818152602001828054610a779061255b565b8015610ac45780601f10610a9957610100808354040283529160200191610ac4565b820191906000526020600020905b815481529060010190602001808311610aa757829003601f168201915b50505050508152602001600882018054610add9061255b565b80601f0160208091040260200160405190810160405280929190818152602001828054610b099061255b565b8015610b565780601f10610b2b57610100808354040283529160200191610b56565b820191906000526020600020905b815481529060010190602001808311610b3957829003601f168201915b5050505050815250508152509050610c44565b604051806040016040528060001515815260200160405180610120016040528060405180602001604052806000815250815260200160405180602001604052806000815250815260200160008152602001604051806020016040528060008152508152602001600073ffffffffffffffffffffffffffffffffffffffff1681526020016040518060200160405280600081525081526020016040518060200160405280600081525081526020016040518060200160405280600081525081526020016040518060200160405280600081525081525081525090505b92915050565b6000807fffffffffffffffffffffffffffffffffffffffffffffffffffffffffffffffff905060005b600180549050811015610daf5783604051602001610c919190612515565b60405160208183030381529060405280519060200120600060018381548110610cbd57610cbc61258c565b5b90600052602060002001604051610cd49190612653565b9081526020016040518091039020600101604051602001610cf59190612653565b60405160208183030381529060405280519060200120148015610d55575081600060018381548110610d2a57610d2961258c565b5b90600052602060002001604051610d419190612653565b908152602001604051809103902060020154135b15610d9c57600060018281548110610d7057610d6f61258c565b5b90600052602060002001604051610d879190612653565b90815260200160405180910390206002015491505b8080610da7906126a3565b915050610c73565b5080915050919050565b60008273ffffffffffffffffffffffffffffffffffffffff16600083604051610de29190612515565b908152602001604051809103902060040160009054906101000a900473ffffffffffffffffffffffffffffffffffffffff1673ffffffffffffffffffffffffffffffffffffffff16148015610e845750600360009054906101000a900473ffffffffffffffffffffffffffffffffffffffff1673ffffffffffffffffffffffffffffffffffffffff163373ffffffffffffffffffffffffffffffffffffffff16145b15610e925760019050610e97565b600090505b92915050565b6000610eac82600001516115cf565b158015610f515750600260009054906101000a900473ffffffffffffffffffffffffffffffffffffffff1673ffffffffffffffffffffffffffffffffffffffff16634294a5ad836040518263ffffffff1660e01b8152600401610f0f9190612815565b602060405180830381865afa158015610f2c573d6000803e3d6000fd5b505050506040513d601f19601f82011682018060405250810190610f509190612863565b5b8015610faa5750600360009054906101000a900473ffffffffffffffffffffffffffffffffffffffff1673ffffffffffffffffffffffffffffffffffffffff163373ffffffffffffffffffffffffffffffffffffffff16145b15610fb85760019050610fbd565b600090505b919050565b6060600060018054905067ffffffffffffffff811115610fe557610fe4611b9a565b5b60405190808252806020026020018201604052801561101857816020015b60608152602001906001900390816110035790505b5090506000805b600180549050811015611256578460405160200161103d9190612515565b604051602081830303815290604052805190602001206000600183815481106110695761106861258c565b5b906000526020600020016040516110809190612653565b90815260200160405180910390206001016040516020016110a19190612653565b6040516020818303038152906040528051906020012014801561114a57506040516020016110ce906128dc565b604051602081830303815290604052805190602001206000600183815481106110fa576110f961258c565b5b906000526020600020016040516111119190612653565b90815260200160405180910390206007016040516020016111329190612653565b60405160208183030381529060405280519060200120145b15611243576000600182815481106111655761116461258c565b5b9060005260206000200160405161117c9190612653565b908152602001604051809103902060000180546111989061255b565b80601f01602080910402602001604051908101604052809291908181526020018280546111c49061255b565b80156112115780601f106111e657610100808354040283529160200191611211565b820191906000526020600020905b8154815290600101906020018083116111f457829003601f168201915b50505050508383815181106112295761122861258c565b5b6020026020010181905250818061123f906126a3565b9250505b808061124e906126a3565b91505061101f565b508082528192505050919050565b600360009054906101000a900473ffffffffffffffffffffffffffffffffffffffff1673ffffffffffffffffffffffffffffffffffffffff163373ffffffffffffffffffffffffffffffffffffffff160361131e576040518060400160405280600881526020017f64656163746976650000000000000000000000000000000000000000000000008152506000826040516112ff9190612515565b9081526020016040518091039020600701908161131c9190612a88565b505b50565b600360009054906101000a900473ffffffffffffffffffffffffffffffffffffffff1673ffffffffffffffffffffffffffffffffffffffff163373ffffffffffffffffffffffffffffffffffffffff16036115cb576040518060400160405280600681526020017f6564697465640000000000000000000000000000000000000000000000000000815250600083600001516040516113c09190612515565b908152602001604051809103902060070190816113dd9190612a88565b508160800151816080019073ffffffffffffffffffffffffffffffffffffffff16908173ffffffffffffffffffffffffffffffffffffffff168152505081600001518160600181905250600182604001516114389190612b5a565b8160400181815250506040518060400160405280600681526020017f61637469766500000000000000000000000000000000000000000000000000008152508160e0018190525080600082600001516040516114949190612515565b908152602001604051809103902060008201518160000190816114b79190612a88565b5060208201518160010190816114cd9190612a88565b506040820151816002015560608201518160030190816114ed9190612a88565b5060808201518160040160006101000a81548173ffffffffffffffffffffffffffffffffffffffff021916908373ffffffffffffffffffffffffffffffffffffffff16021790555060a082015181600501908161154a9190612a88565b5060c08201518160060190816115609190612a88565b5060e08201518160070190816115769190612a88565b5061010082015181600801908161158d9190612a88565b50905050600181600001519080600181540180825580915050600190039060005260206000200160009091909190915090816115c99190612a88565b505b5050565b6000806000836040516115e29190612515565b908152602001604051809103902060000180546115fe9061255b565b90501415801561165b5750600360009054906101000a900473ffffffffffffffffffffffffffffffffffffffff1673ffffffffffffffffffffffffffffffffffffffff163373ffffffffffffffffffffffffffffffffffffffff16145b15611669576001905061166e565b600090505b919050565b600360009054906101000a900473ffffffffffffffffffffffffffffffffffffffff1673ffffffffffffffffffffffffffffffffffffffff163373ffffffffffffffffffffffffffffffffffffffff160361189f576116d181610e9d565b1561189e576040518060400160405280600681526020017f61637469766500000000000000000000000000000000000000000000000000008152508160e001819052506040518060400160405280600181526020017f3000000000000000000000000000000000000000000000000000000000000000815250816060018190525080600082600001516040516117679190612515565b9081526020016040518091039020600082015181600001908161178a9190612a88565b5060208201518160010190816117a09190612a88565b506040820151816002015560608201518160030190816117c09190612a88565b5060808201518160040160006101000a81548173ffffffffffffffffffffffffffffffffffffffff021916908373ffffffffffffffffffffffffffffffffffffffff16021790555060a082015181600501908161181d9190612a88565b5060c08201518160060190816118339190612a88565b5060e08201518160070190816118499190612a88565b506101008201518160080190816118609190612a88565b509050506001816000015190806001815401808255809150506001900390600052602060002001600090919091909150908161189c9190612a88565b505b5b50565b600073ffffffffffffffffffffffffffffffffffffffff168173ffffffffffffffffffffffffffffffffffffffff161415801561192d5750600073ffffffffffffffffffffffffffffffffffffffff16600360009054906101000a900473ffffffffffffffffffffffffffffffffffffffff1673ffffffffffffffffffffffffffffffffffffffff16145b156119745780600360006101000a81548173ffffffffffffffffffffffffffffffffffffffff021916908373ffffffffffffffffffffffffffffffffffffffff1602179055505b50565b61197f611acb565b600360009054906101000a900473ffffffffffffffffffffffffffffffffffffffff1673ffffffffffffffffffffffffffffffffffffffff163373ffffffffffffffffffffffffffffffffffffffff1603611a9c5760405180604001604052806001151581526020016000846040516119f89190612515565b90815260200160405180910390206008018054611a149061255b565b80601f0160208091040260200160405190810160405280929190818152602001828054611a409061255b565b8015611a8d5780601f10611a6257610100808354040283529160200191611a8d565b820191906000526020600020905b815481529060010190602001808311611a7057829003601f168201915b50505050508152509050611ac6565b60405180604001604052806000151581526020016040518060200160405280600081525081525090505b919050565b6040518060400160405280600015158152602001606081525090565b6040518060400160405280600015158152602001611b03611b09565b81525090565b60405180610120016040528060608152602001606081526020016000815260200160608152602001600073ffffffffffffffffffffffffffffffffffffffff168152602001606081526020016060815260200160608152602001606081525090565b6000604051905090565b600080fd5b600080fd5b600080fd5b600080fd5b6000601f19601f8301169050919050565b7f4e487b7100000000000000000000000000000000000000000000000000000000600052604160045260246000fd5b611bd282611b89565b810181811067ffffffffffffffff82111715611bf157611bf0611b9a565b5b80604052505050565b6000611c04611b6b565b9050611c108282611bc9565b919050565b600067ffffffffffffffff821115611c3057611c2f611b9a565b5b611c3982611b89565b9050602081019050919050565b82818337600083830152505050565b6000611c68611c6384611c15565b611bfa565b905082815260208101848484011115611c8457611c83611b84565b5b611c8f848285611c46565b509392505050565b600082601f830112611cac57611cab611b7f565b5b8135611cbc848260208601611c55565b91505092915050565b600060208284031215611cdb57611cda611b75565b5b600082013567ffffffffffffffff811115611cf957611cf8611b7a565b5b611d0584828501611c97565b91505092915050565b60008115159050919050565b611d2381611d0e565b82525050565b600081519050919050565b600082825260208201905092915050565b60005b83811015611d63578082015181840152602081019050611d48565b60008484015250505050565b6000611d7a82611d29565b611d848185611d34565b9350611d94818560208601611d45565b611d9d81611b89565b840191505092915050565b6000604083016000830151611dc06000860182611d1a565b5060208301518482036020860152611dd88282611d6f565b9150508091505092915050565b60006020820190508181036000830152611dff8184611da8565b905092915050565b600073ffffffffffffffffffffffffffffffffffffffff82169050919050565b6000611e3282611e07565b9050919050565b611e4281611e27565b82525050565b6000602082019050611e5d6000830184611e39565b92915050565b60008060408385031215611e7a57611e79611b75565b5b600083013567ffffffffffffffff811115611e9857611e97611b7a565b5b611ea485828601611c97565b925050602083013567ffffffffffffffff811115611ec557611ec4611b7a565b5b611ed185828601611c97565b9150509250929050565b6000819050919050565b611eee81611edb565b82525050565b611efd81611e27565b82525050565b6000610120830160008301518482036000860152611f218282611d6f565b91505060208301518482036020860152611f3b8282611d6f565b9150506040830151611f506040860182611ee5565b5060608301518482036060860152611f688282611d6f565b9150506080830151611f7d6080860182611ef4565b5060a083015184820360a0860152611f958282611d6f565b91505060c083015184820360c0860152611faf8282611d6f565b91505060e083015184820360e0860152611fc98282611d6f565b915050610100830151848203610100860152611fe58282611d6f565b9150508091505092915050565b600060408301600083015161200a6000860182611d1a565b50602083015184820360208601526120228282611f03565b9150508091505092915050565b600060208201905081810360008301526120498184611ff2565b905092915050565b61205a81611edb565b82525050565b60006020820190506120756000830184612051565b92915050565b61208481611e27565b811461208f57600080fd5b50565b6000813590506120a18161207b565b92915050565b600080604083850312156120be576120bd611b75565b5b60006120cc85828601612092565b925050602083013567ffffffffffffffff8111156120ed576120ec611b7a565b5b6120f985828601611c97565b9150509250929050565b61210c81611d0e565b82525050565b60006020820190506121276000830184612103565b92915050565b600080fd5b600080fd5b61214081611edb565b811461214b57600080fd5b50565b60008135905061215d81612137565b92915050565b6000610120828403121561217a5761217961212d565b5b612185610120611bfa565b9050600082013567ffffffffffffffff8111156121a5576121a4612132565b5b6121b184828501611c97565b600083015250602082013567ffffffffffffffff8111156121d5576121d4612132565b5b6121e184828501611c97565b60208301525060406121f58482850161214e565b604083015250606082013567ffffffffffffffff81111561221957612218612132565b5b61222584828501611c97565b606083015250608061223984828501612092565b60808301525060a082013567ffffffffffffffff81111561225d5761225c612132565b5b61226984828501611c97565b60a08301525060c082013567ffffffffffffffff81111561228d5761228c612132565b5b61229984828501611c97565b60c08301525060e082013567ffffffffffffffff8111156122bd576122bc612132565b5b6122c984828501611c97565b60e08301525061010082013567ffffffffffffffff8111156122ee576122ed612132565b5b6122fa84828501611c97565b6101008301525092915050565b60006020828403121561231d5761231c611b75565b5b600082013567ffffffffffffffff81111561233b5761233a611b7a565b5b61234784828501612163565b91505092915050565b600081519050919050565b600082825260208201905092915050565b6000819050602082019050919050565b60006123888383611d6f565b905092915050565b6000602082019050919050565b60006123a882612350565b6123b2818561235b565b9350836020820285016123c48561236c565b8060005b8581101561240057848403895281516123e1858261237c565b94506123ec83612390565b925060208a019950506001810190506123c8565b50829750879550505050505092915050565b6000602082019050818103600083015261242c818461239d565b905092915050565b6000806040838503121561244b5761244a611b75565b5b600083013567ffffffffffffffff81111561246957612468611b7a565b5b61247585828601612163565b925050602083013567ffffffffffffffff81111561249657612495611b7a565b5b6124a285828601612163565b9150509250929050565b6000602082840312156124c2576124c1611b75565b5b60006124d084828501612092565b91505092915050565b600081905092915050565b60006124ef82611d29565b6124f981856124d9565b9350612509818560208601611d45565b80840191505092915050565b600061252182846124e4565b915081905092915050565b7f4e487b7100000000000000000000000000000000000000000000000000000000600052602260045260246000fd5b6000600282049050600182168061257357607f821691505b6020821081036125865761258561252c565b5b50919050565b7f4e487b7100000000000000000000000000000000000000000000000000000000600052603260045260246000fd5b60008190508160005260206000209050919050565b600081546125dd8161255b565b6125e781866124d9565b9450600182166000811461260257600181146126175761264a565b60ff198316865281151582028601935061264a565b612620856125bb565b60005b8381101561264257815481890152600182019150602081019050612623565b838801955050505b50505092915050565b600061265f82846125d0565b915081905092915050565b7f4e487b7100000000000000000000000000000000000000000000000000000000600052601160045260246000fd5b6000819050919050565b60006126ae82612699565b91507fffffffffffffffffffffffffffffffffffffffffffffffffffffffffffffffff82036126e0576126df61266a565b5b600182019050919050565b50565b60006126fb6000836124d9565b9150612706826126eb565b600082019050919050565b600061271c826126ee565b9150819050919050565b60006101208301600083015184820360008601526127448282611d6f565b9150506020830151848203602086015261275e8282611d6f565b91505060408301516127736040860182611ee5565b506060830151848203606086015261278b8282611d6f565b91505060808301516127a06080860182611ef4565b5060a083015184820360a08601526127b88282611d6f565b91505060c083015184820360c08601526127d28282611d6f565b91505060e083015184820360e08601526127ec8282611d6f565b9150506101008301518482036101008601526128088282611d6f565b9150508091505092915050565b6000602082019050818103600083015261282f8184612726565b905092915050565b61284081611d0e565b811461284b57600080fd5b50565b60008151905061285d81612837565b92915050565b60006020828403121561287957612878611b75565b5b60006128878482850161284e565b91505092915050565b7f6163746976650000000000000000000000000000000000000000000000000000600082015250565b60006128c66006836124d9565b91506128d182612890565b600682019050919050565b60006128e7826128b9565b9150819050919050565b60006020601f8301049050919050565b600082821b905092915050565b60006008830261293e7fffffffffffffffffffffffffffffffffffffffffffffffffffffffffffffffff82612901565b6129488683612901565b95508019841693508086168417925050509392505050565b6000819050919050565b600061298561298061297b84612699565b612960565b612699565b9050919050565b6000819050919050565b61299f8361296a565b6129b36129ab8261298c565b84845461290e565b825550505050565b600090565b6129c86129bb565b6129d3818484612996565b505050565b5b818110156129f7576129ec6000826129c0565b6001810190506129d9565b5050565b601f821115612a3c57612a0d816125bb565b612a16846128f1565b81016020851015612a25578190505b612a39612a31856128f1565b8301826129d8565b50505b505050565b600082821c905092915050565b6000612a5f60001984600802612a41565b1980831691505092915050565b6000612a788383612a4e565b9150826002028217905092915050565b612a9182611d29565b67ffffffffffffffff811115612aaa57612aa9611b9a565b5b612ab4825461255b565b612abf8282856129fb565b600060209050601f831160018114612af25760008415612ae0578287015190505b612aea8582612a6c565b865550612b52565b601f198416612b00866125bb565b60005b82811015612b2857848901518255600182019150602085019450602081019050612b03565b86831015612b455784890151612b41601f891682612a4e565b8355505b6001600288020188555050505b505050505050565b6000612b6582611edb565b9150612b7083611edb565b925082820190508281121560008312168382126000841215161715612b9857612b9761266a565b5b9291505056fea264697066735822122000ea03f0bfca562016d28a4f0f7e9bd324b5a6f286750137296b8b9cfd46034b64736f6c63430008130033",
  "linkReferences": {},
  "deployedLinkReferences": {}
}