{
  "_format": "hh-sol-artifact-1",
  "contractName": "FileRegister",
  "sourceName": "contracts/FileRegister.sol",
  "abi": [
    {
      "inputs": [
        {
          "internalType": "address",
          "name": "helperContract",
          "type": "address"
        }
      ],
      "stateMutability": "nonpayable",
      "type": "constructor"
    },
    {
      "inputs": [
        {
          "components": [
            {
              "internalType": "string",
              "name": "ipfsCID",
              "type": "string"
            },
            {
              "internalType": "string",
              "name": "fileName",
              "type": "string"
            },
            {
              "internalType": "int256",
              "name": "version",
              "type": "int256"
            },
            {
              "internalType": "address",
              "name": "owner",
              "type": "address"
            },
            {
              "internalType": "string",
              "name": "fileType",
              "type": "string"
            },
            {
              "internalType": "string",
              "name": "iv",
              "type": "string"
            },
            {
              "internalType": "string",
              "name": "state",
              "type": "string"
            }
          ],
          "internalType": "struct FileRegister.File",
          "name": "file",
          "type": "tuple"
        }
      ],
      "name": "addFile",
      "outputs": [],
      "stateMutability": "nonpayable",
      "type": "function"
    },
    {
      "inputs": [
        {
          "components": [
            {
              "internalType": "string",
              "name": "ipfsCID",
              "type": "string"
            },
            {
              "internalType": "string",
              "name": "fileName",
              "type": "string"
            },
            {
              "internalType": "int256",
              "name": "version",
              "type": "int256"
            },
            {
              "internalType": "address",
              "name": "owner",
              "type": "address"
            },
            {
              "internalType": "string",
              "name": "fileType",
              "type": "string"
            },
            {
              "internalType": "string",
              "name": "iv",
              "type": "string"
            },
            {
              "internalType": "string",
              "name": "state",
              "type": "string"
            }
          ],
          "internalType": "struct FileRegister.File",
          "name": "file",
          "type": "tuple"
        }
      ],
      "name": "canAddFile",
      "outputs": [
        {
          "internalType": "bool",
          "name": "",
          "type": "bool"
        }
      ],
      "stateMutability": "view",
      "type": "function"
    },
    {
      "inputs": [
        {
          "internalType": "string",
          "name": "fileIpfsCid",
          "type": "string"
        }
      ],
      "name": "deactivateFile",
      "outputs": [],
      "stateMutability": "nonpayable",
      "type": "function"
    },
    {
      "inputs": [
        {
          "internalType": "string",
          "name": "fileIpfsCID",
          "type": "string"
        }
      ],
      "name": "fileExists",
      "outputs": [
        {
          "internalType": "bool",
          "name": "",
          "type": "bool"
        }
      ],
      "stateMutability": "view",
      "type": "function"
    },
    {
      "inputs": [
        {
          "internalType": "string",
          "name": "fileIpfsCid",
          "type": "string"
        },
        {
          "internalType": "string",
          "name": "state",
          "type": "string"
        }
      ],
      "name": "getFileByIpfsCID",
      "outputs": [
        {
          "components": [
            {
              "internalType": "bool",
              "name": "success",
              "type": "bool"
            },
            {
              "components": [
                {
                  "internalType": "string",
                  "name": "ipfsCID",
                  "type": "string"
                },
                {
                  "internalType": "string",
                  "name": "fileName",
                  "type": "string"
                },
                {
                  "internalType": "int256",
                  "name": "version",
                  "type": "int256"
                },
                {
                  "internalType": "address",
                  "name": "owner",
                  "type": "address"
                },
                {
                  "internalType": "string",
                  "name": "fileType",
                  "type": "string"
                },
                {
                  "internalType": "string",
                  "name": "iv",
                  "type": "string"
                },
                {
                  "internalType": "string",
                  "name": "state",
                  "type": "string"
                }
              ],
              "internalType": "struct FileRegister.File",
              "name": "file",
              "type": "tuple"
            }
          ],
          "internalType": "struct FileRegister.ResultFile",
          "name": "",
          "type": "tuple"
        }
      ],
      "stateMutability": "view",
      "type": "function"
    },
    {
      "inputs": [
        {
          "internalType": "string",
          "name": "fileIpfsCID",
          "type": "string"
        }
      ],
      "name": "getFileState",
      "outputs": [
        {
          "components": [
            {
              "internalType": "bool",
              "name": "success",
              "type": "bool"
            },
            {
              "internalType": "string",
              "name": "resultString",
              "type": "string"
            }
          ],
          "internalType": "struct Helper.ResultString",
          "name": "",
          "type": "tuple"
        }
      ],
      "stateMutability": "view",
      "type": "function"
    },
    {
      "inputs": [
        {
          "internalType": "string",
          "name": "name",
          "type": "string"
        }
      ],
      "name": "getIpfsCIDsForName",
      "outputs": [
        {
          "internalType": "string[]",
          "name": "",
          "type": "string[]"
        }
      ],
      "stateMutability": "view",
      "type": "function"
    },
    {
      "inputs": [
        {
          "internalType": "string",
          "name": "fileName",
          "type": "string"
        }
      ],
      "name": "getLatestVersionOfFile",
      "outputs": [
        {
          "internalType": "int256",
          "name": "",
          "type": "int256"
        }
      ],
      "stateMutability": "view",
      "type": "function"
    },
    {
      "inputs": [
        {
          "internalType": "address",
          "name": "accessControlContractAddress",
          "type": "address"
        }
      ],
      "name": "setAccessControlAddress",
      "outputs": [],
      "stateMutability": "nonpayable",
      "type": "function"
    },
    {
      "inputs": [
        {
          "internalType": "address",
          "name": "userAccount",
          "type": "address"
        },
        {
          "internalType": "string",
          "name": "fileIpfsCID",
          "type": "string"
        }
      ],
      "name": "userIsFileOwner",
      "outputs": [
        {
          "internalType": "bool",
          "name": "",
          "type": "bool"
        }
      ],
      "stateMutability": "view",
      "type": "function"
    }
  ],
  "bytecode": "0x60806040523480156200001157600080fd5b506040516200235a3803806200235a8339818101604052810190620000379190620000e9565b80600260006101000a81548173ffffffffffffffffffffffffffffffffffffffff021916908373ffffffffffffffffffffffffffffffffffffffff160217905550506200011b565b600080fd5b600073ffffffffffffffffffffffffffffffffffffffff82169050919050565b6000620000b18262000084565b9050919050565b620000c381620000a4565b8114620000cf57600080fd5b50565b600081519050620000e381620000b8565b92915050565b6000602082840312156200010257620001016200007f565b5b60006200011284828501620000d2565b91505092915050565b61222f806200012b6000396000f3fe608060405234801561001057600080fd5b506004361061009d5760003560e01c806374546fdf1161006657806374546fdf1461019257806384c107ff146101ae5780639bccd6ad146101de578063af205f5c1461020e578063e8d56b8b1461022a5761009d565b8062438ceb146100a257806347eb6fa7146100d25780634907904b1461010257806352a9baef146101325780637113c4dd14610162575b600080fd5b6100bc60048036038101906100b791906114d8565b610246565b6040516100c991906115f8565b60405180910390f35b6100ec60048036038101906100e7919061161a565b61039a565b6040516100f991906117e1565b60405180910390f35b61011c600480360381019061011791906114d8565b6108d9565b6040516101299190611812565b60405180910390f35b61014c60048036038101906101479190611859565b610a48565b60405161015991906118c4565b60405180910390f35b61017c600480360381019061017791906114d8565b610b2c565b60405161018991906119a1565b60405180910390f35b6101ac60048036038101906101a791906114d8565b610dce565b005b6101c860048036038101906101c39190611b39565b610e8b565b6040516101d591906118c4565b60405180910390f35b6101f860048036038101906101f391906114d8565b610fb0565b60405161020591906118c4565b60405180910390f35b61022860048036038101906102239190611b39565b611054565b005b610244600480360381019061023f9190611b82565b611218565b005b61024e6112ed565b600360009054906101000a900473ffffffffffffffffffffffffffffffffffffffff1673ffffffffffffffffffffffffffffffffffffffff163373ffffffffffffffffffffffffffffffffffffffff160361036b5760405180604001604052806001151581526020016000846040516102c79190611beb565b908152602001604051809103902060060180546102e390611c31565b80601f016020809104026020016040519081016040528092919081815260200182805461030f90611c31565b801561035c5780601f106103315761010080835404028352916020019161035c565b820191906000526020600020905b81548152906001019060200180831161033f57829003601f168201915b50505050508152509050610395565b60405180604001604052806000151581526020016040518060200160405280600081525081525090505b919050565b6103a2611309565b600080846040516103b39190611beb565b908152602001604051809103902060010180546103cf90611c31565b905011801561049d5750816040516020016103ea9190611beb565b604051602081830303815290604052805190602001206000846040516104109190611beb565b90815260200160405180910390206006016040516020016104319190611cfa565b60405160208183030381529060405280519060200120148061049c575060405160200161045d90611d37565b60405160208183030381529060405280519060200120826040516020016104849190611beb565b60405160208183030381529060405280519060200120145b5b156108235760405180604001604052806001151581526020016000856040516104c69190611beb565b90815260200160405180910390206040518060e00160405290816000820180546104ef90611c31565b80601f016020809104026020016040519081016040528092919081815260200182805461051b90611c31565b80156105685780601f1061053d57610100808354040283529160200191610568565b820191906000526020600020905b81548152906001019060200180831161054b57829003601f168201915b5050505050815260200160018201805461058190611c31565b80601f01602080910402602001604051908101604052809291908181526020018280546105ad90611c31565b80156105fa5780601f106105cf576101008083540402835291602001916105fa565b820191906000526020600020905b8154815290600101906020018083116105dd57829003601f168201915b50505050508152602001600282015481526020016003820160009054906101000a900473ffffffffffffffffffffffffffffffffffffffff1673ffffffffffffffffffffffffffffffffffffffff1673ffffffffffffffffffffffffffffffffffffffff16815260200160048201805461067390611c31565b80601f016020809104026020016040519081016040528092919081815260200182805461069f90611c31565b80156106ec5780601f106106c1576101008083540402835291602001916106ec565b820191906000526020600020905b8154815290600101906020018083116106cf57829003601f168201915b5050505050815260200160058201805461070590611c31565b80601f016020809104026020016040519081016040528092919081815260200182805461073190611c31565b801561077e5780601f106107535761010080835404028352916020019161077e565b820191906000526020600020905b81548152906001019060200180831161076157829003601f168201915b5050505050815260200160068201805461079790611c31565b80601f01602080910402602001604051908101604052809291908181526020018280546107c390611c31565b80156108105780601f106107e557610100808354040283529160200191610810565b820191906000526020600020905b8154815290600101906020018083116107f357829003601f168201915b50505050508152505081525090506108d3565b60405180604001604052806000151581526020016040518060e0016040528060405180602001604052806000815250815260200160405180602001604052806000815250815260200160008152602001600073ffffffffffffffffffffffffffffffffffffffff1681526020016040518060200160405280600081525081526020016040518060200160405280600081525081526020016040518060200160405280600081525081525081525090505b92915050565b6000807fffffffffffffffffffffffffffffffffffffffffffffffffffffffffffffffff905060005b600180549050811015610a3e57836040516020016109209190611beb565b6040516020818303038152906040528051906020012060006001838154811061094c5761094b611d4c565b5b906000526020600020016040516109639190611cfa565b90815260200160405180910390206001016040516020016109849190611cfa565b604051602081830303815290604052805190602001201480156109e45750816000600183815481106109b9576109b8611d4c565b5b906000526020600020016040516109d09190611cfa565b908152602001604051809103902060020154135b15610a2b576000600182815481106109ff576109fe611d4c565b5b90600052602060002001604051610a169190611cfa565b90815260200160405180910390206002015491505b8080610a3690611db4565b915050610902565b5080915050919050565b60008273ffffffffffffffffffffffffffffffffffffffff16600083604051610a719190611beb565b908152602001604051809103902060030160009054906101000a900473ffffffffffffffffffffffffffffffffffffffff1673ffffffffffffffffffffffffffffffffffffffff16148015610b135750600360009054906101000a900473ffffffffffffffffffffffffffffffffffffffff1673ffffffffffffffffffffffffffffffffffffffff163373ffffffffffffffffffffffffffffffffffffffff16145b15610b215760019050610b26565b600090505b92915050565b6060600060018054905067ffffffffffffffff811115610b4f57610b4e6113ad565b5b604051908082528060200260200182016040528015610b8257816020015b6060815260200190600190039081610b6d5790505b5090506000805b600180549050811015610dc05784604051602001610ba79190611beb565b60405160208183030381529060405280519060200120600060018381548110610bd357610bd2611d4c565b5b90600052602060002001604051610bea9190611cfa565b9081526020016040518091039020600101604051602001610c0b9190611cfa565b60405160208183030381529060405280519060200120148015610cb45750604051602001610c3890611e48565b60405160208183030381529060405280519060200120600060018381548110610c6457610c63611d4c565b5b90600052602060002001604051610c7b9190611cfa565b9081526020016040518091039020600601604051602001610c9c9190611cfa565b60405160208183030381529060405280519060200120145b15610dad57600060018281548110610ccf57610cce611d4c565b5b90600052602060002001604051610ce69190611cfa565b90815260200160405180910390206000018054610d0290611c31565b80601f0160208091040260200160405190810160405280929190818152602001828054610d2e90611c31565b8015610d7b5780601f10610d5057610100808354040283529160200191610d7b565b820191906000526020600020905b815481529060010190602001808311610d5e57829003601f168201915b5050505050838381518110610d9357610d92611d4c565b5b60200260200101819052508180610da990611db4565b9250505b8080610db890611db4565b915050610b89565b508082528192505050919050565b600360009054906101000a900473ffffffffffffffffffffffffffffffffffffffff1673ffffffffffffffffffffffffffffffffffffffff163373ffffffffffffffffffffffffffffffffffffffff1603610e88576040518060400160405280600881526020017f6465616374697665000000000000000000000000000000000000000000000000815250600082604051610e699190611beb565b90815260200160405180910390206006019081610e869190611ff4565b505b50565b6000610e9a8260000151610fb0565b158015610f3f5750600260009054906101000a900473ffffffffffffffffffffffffffffffffffffffff1673ffffffffffffffffffffffffffffffffffffffff166312a8d91c836040518263ffffffff1660e01b8152600401610efd919061217e565b602060405180830381865afa158015610f1a573d6000803e3d6000fd5b505050506040513d601f19601f82011682018060405250810190610f3e91906121cc565b5b8015610f985750600360009054906101000a900473ffffffffffffffffffffffffffffffffffffffff1673ffffffffffffffffffffffffffffffffffffffff163373ffffffffffffffffffffffffffffffffffffffff16145b15610fa65760019050610fab565b600090505b919050565b600080600083604051610fc39190611beb565b90815260200160405180910390206000018054610fdf90611c31565b90501415801561103c5750600360009054906101000a900473ffffffffffffffffffffffffffffffffffffffff1673ffffffffffffffffffffffffffffffffffffffff163373ffffffffffffffffffffffffffffffffffffffff16145b1561104a576001905061104f565b600090505b919050565b600360009054906101000a900473ffffffffffffffffffffffffffffffffffffffff1673ffffffffffffffffffffffffffffffffffffffff163373ffffffffffffffffffffffffffffffffffffffff1603611215576110b281610e8b565b15611214576040518060400160405280600681526020017f61637469766500000000000000000000000000000000000000000000000000008152508160c00181905250806000826000015160405161110a9190611beb565b9081526020016040518091039020600082015181600001908161112d9190611ff4565b5060208201518160010190816111439190611ff4565b506040820151816002015560608201518160030160006101000a81548173ffffffffffffffffffffffffffffffffffffffff021916908373ffffffffffffffffffffffffffffffffffffffff16021790555060808201518160040190816111aa9190611ff4565b5060a08201518160050190816111c09190611ff4565b5060c08201518160060190816111d69190611ff4565b50905050600181600001519080600181540180825580915050600190039060005260206000200160009091909190915090816112129190611ff4565b505b5b50565b600073ffffffffffffffffffffffffffffffffffffffff168173ffffffffffffffffffffffffffffffffffffffff16141580156112a35750600073ffffffffffffffffffffffffffffffffffffffff16600360009054906101000a900473ffffffffffffffffffffffffffffffffffffffff1673ffffffffffffffffffffffffffffffffffffffff16145b156112ea5780600360006101000a81548173ffffffffffffffffffffffffffffffffffffffff021916908373ffffffffffffffffffffffffffffffffffffffff1602179055505b50565b6040518060400160405280600015158152602001606081525090565b604051806040016040528060001515815260200161132561132b565b81525090565b6040518060e00160405280606081526020016060815260200160008152602001600073ffffffffffffffffffffffffffffffffffffffff1681526020016060815260200160608152602001606081525090565b6000604051905090565b600080fd5b600080fd5b600080fd5b600080fd5b6000601f19601f8301169050919050565b7f4e487b7100000000000000000000000000000000000000000000000000000000600052604160045260246000fd5b6113e58261139c565b810181811067ffffffffffffffff82111715611404576114036113ad565b5b80604052505050565b600061141761137e565b905061142382826113dc565b919050565b600067ffffffffffffffff821115611443576114426113ad565b5b61144c8261139c565b9050602081019050919050565b82818337600083830152505050565b600061147b61147684611428565b61140d565b90508281526020810184848401111561149757611496611397565b5b6114a2848285611459565b509392505050565b600082601f8301126114bf576114be611392565b5b81356114cf848260208601611468565b91505092915050565b6000602082840312156114ee576114ed611388565b5b600082013567ffffffffffffffff81111561150c5761150b61138d565b5b611518848285016114aa565b91505092915050565b60008115159050919050565b61153681611521565b82525050565b600081519050919050565b600082825260208201905092915050565b60005b8381101561157657808201518184015260208101905061155b565b60008484015250505050565b600061158d8261153c565b6115978185611547565b93506115a7818560208601611558565b6115b08161139c565b840191505092915050565b60006040830160008301516115d3600086018261152d565b50602083015184820360208601526115eb8282611582565b9150508091505092915050565b6000602082019050818103600083015261161281846115bb565b905092915050565b6000806040838503121561163157611630611388565b5b600083013567ffffffffffffffff81111561164f5761164e61138d565b5b61165b858286016114aa565b925050602083013567ffffffffffffffff81111561167c5761167b61138d565b5b611688858286016114aa565b9150509250929050565b6000819050919050565b6116a581611692565b82525050565b600073ffffffffffffffffffffffffffffffffffffffff82169050919050565b60006116d6826116ab565b9050919050565b6116e6816116cb565b82525050565b600060e08301600083015184820360008601526117098282611582565b915050602083015184820360208601526117238282611582565b9150506040830151611738604086018261169c565b50606083015161174b60608601826116dd565b50608083015184820360808601526117638282611582565b91505060a083015184820360a086015261177d8282611582565b91505060c083015184820360c08601526117978282611582565b9150508091505092915050565b60006040830160008301516117bc600086018261152d565b50602083015184820360208601526117d482826116ec565b9150508091505092915050565b600060208201905081810360008301526117fb81846117a4565b905092915050565b61180c81611692565b82525050565b60006020820190506118276000830184611803565b92915050565b611836816116cb565b811461184157600080fd5b50565b6000813590506118538161182d565b92915050565b600080604083850312156118705761186f611388565b5b600061187e85828601611844565b925050602083013567ffffffffffffffff81111561189f5761189e61138d565b5b6118ab858286016114aa565b9150509250929050565b6118be81611521565b82525050565b60006020820190506118d960008301846118b5565b92915050565b600081519050919050565b600082825260208201905092915050565b6000819050602082019050919050565b60006119178383611582565b905092915050565b6000602082019050919050565b6000611937826118df565b61194181856118ea565b935083602082028501611953856118fb565b8060005b8581101561198f5784840389528151611970858261190b565b945061197b8361191f565b925060208a01995050600181019050611957565b50829750879550505050505092915050565b600060208201905081810360008301526119bb818461192c565b905092915050565b600080fd5b600080fd5b6119d681611692565b81146119e157600080fd5b50565b6000813590506119f3816119cd565b92915050565b600060e08284031215611a0f57611a0e6119c3565b5b611a1960e061140d565b9050600082013567ffffffffffffffff811115611a3957611a386119c8565b5b611a45848285016114aa565b600083015250602082013567ffffffffffffffff811115611a6957611a686119c8565b5b611a75848285016114aa565b6020830152506040611a89848285016119e4565b6040830152506060611a9d84828501611844565b606083015250608082013567ffffffffffffffff811115611ac157611ac06119c8565b5b611acd848285016114aa565b60808301525060a082013567ffffffffffffffff811115611af157611af06119c8565b5b611afd848285016114aa565b60a08301525060c082013567ffffffffffffffff811115611b2157611b206119c8565b5b611b2d848285016114aa565b60c08301525092915050565b600060208284031215611b4f57611b4e611388565b5b600082013567ffffffffffffffff811115611b6d57611b6c61138d565b5b611b79848285016119f9565b91505092915050565b600060208284031215611b9857611b97611388565b5b6000611ba684828501611844565b91505092915050565b600081905092915050565b6000611bc58261153c565b611bcf8185611baf565b9350611bdf818560208601611558565b80840191505092915050565b6000611bf78284611bba565b915081905092915050565b7f4e487b7100000000000000000000000000000000000000000000000000000000600052602260045260246000fd5b60006002820490506001821680611c4957607f821691505b602082108103611c5c57611c5b611c02565b5b50919050565b60008190508160005260206000209050919050565b60008154611c8481611c31565b611c8e8186611baf565b94506001821660008114611ca95760018114611cbe57611cf1565b60ff1983168652811515820286019350611cf1565b611cc785611c62565b60005b83811015611ce957815481890152600182019150602081019050611cca565b838801955050505b50505092915050565b6000611d068284611c77565b915081905092915050565b50565b6000611d21600083611baf565b9150611d2c82611d11565b600082019050919050565b6000611d4282611d14565b9150819050919050565b7f4e487b7100000000000000000000000000000000000000000000000000000000600052603260045260246000fd5b7f4e487b7100000000000000000000000000000000000000000000000000000000600052601160045260246000fd5b6000819050919050565b6000611dbf82611daa565b91507fffffffffffffffffffffffffffffffffffffffffffffffffffffffffffffffff8203611df157611df0611d7b565b5b600182019050919050565b7f6163746976650000000000000000000000000000000000000000000000000000600082015250565b6000611e32600683611baf565b9150611e3d82611dfc565b600682019050919050565b6000611e5382611e25565b9150819050919050565b60006020601f8301049050919050565b600082821b905092915050565b600060088302611eaa7fffffffffffffffffffffffffffffffffffffffffffffffffffffffffffffffff82611e6d565b611eb48683611e6d565b95508019841693508086168417925050509392505050565b6000819050919050565b6000611ef1611eec611ee784611daa565b611ecc565b611daa565b9050919050565b6000819050919050565b611f0b83611ed6565b611f1f611f1782611ef8565b848454611e7a565b825550505050565b600090565b611f34611f27565b611f3f818484611f02565b505050565b5b81811015611f6357611f58600082611f2c565b600181019050611f45565b5050565b601f821115611fa857611f7981611c62565b611f8284611e5d565b81016020851015611f91578190505b611fa5611f9d85611e5d565b830182611f44565b50505b505050565b600082821c905092915050565b6000611fcb60001984600802611fad565b1980831691505092915050565b6000611fe48383611fba565b9150826002028217905092915050565b611ffd8261153c565b67ffffffffffffffff811115612016576120156113ad565b5b6120208254611c31565b61202b828285611f67565b600060209050601f83116001811461205e576000841561204c578287015190505b6120568582611fd8565b8655506120be565b601f19841661206c86611c62565b60005b828110156120945784890151825560018201915060208501945060208101905061206f565b868310156120b157848901516120ad601f891682611fba565b8355505b6001600288020188555050505b505050505050565b600060e08301600083015184820360008601526120e38282611582565b915050602083015184820360208601526120fd8282611582565b9150506040830151612112604086018261169c565b50606083015161212560608601826116dd565b506080830151848203608086015261213d8282611582565b91505060a083015184820360a08601526121578282611582565b91505060c083015184820360c08601526121718282611582565b9150508091505092915050565b6000602082019050818103600083015261219881846120c6565b905092915050565b6121a981611521565b81146121b457600080fd5b50565b6000815190506121c6816121a0565b92915050565b6000602082840312156121e2576121e1611388565b5b60006121f0848285016121b7565b9150509291505056fea2646970667358221220e99e1245621a6d64c7343419ddb3425e0ec508f76c213520fe4a047a2cf73aba64736f6c63430008130033",
  "linkReferences": {},
  "deployedLinkReferences": {}
}