{
  "_format": "hh-sol-artifact-1",
  "contractName": "FileRegister",
  "sourceName": "contracts/FileRegister.sol",
  "abi": [
    {
      "inputs": [
        {
          "internalType": "address",
          "name": "helperContract",
          "type": "address"
        }
      ],
      "stateMutability": "nonpayable",
      "type": "constructor"
    },
    {
      "inputs": [
        {
          "components": [
            {
              "internalType": "string",
              "name": "ipfsCID",
              "type": "string"
            },
            {
              "internalType": "string",
              "name": "fileName",
              "type": "string"
            },
            {
              "internalType": "int256",
              "name": "version",
              "type": "int256"
            },
            {
              "internalType": "address",
              "name": "owner",
              "type": "address"
            },
            {
              "internalType": "string",
              "name": "fileType",
              "type": "string"
            },
            {
              "internalType": "string",
              "name": "iv",
              "type": "string"
            }
          ],
          "internalType": "struct FileRegister.File",
          "name": "file",
          "type": "tuple"
        }
      ],
      "name": "addFile",
      "outputs": [],
      "stateMutability": "nonpayable",
      "type": "function"
    },
    {
      "inputs": [
        {
          "components": [
            {
              "internalType": "string",
              "name": "ipfsCID",
              "type": "string"
            },
            {
              "internalType": "string",
              "name": "fileName",
              "type": "string"
            },
            {
              "internalType": "int256",
              "name": "version",
              "type": "int256"
            },
            {
              "internalType": "address",
              "name": "owner",
              "type": "address"
            },
            {
              "internalType": "string",
              "name": "fileType",
              "type": "string"
            },
            {
              "internalType": "string",
              "name": "iv",
              "type": "string"
            }
          ],
          "internalType": "struct FileRegister.File",
          "name": "file",
          "type": "tuple"
        }
      ],
      "name": "canAddFile",
      "outputs": [
        {
          "internalType": "bool",
          "name": "",
          "type": "bool"
        }
      ],
      "stateMutability": "view",
      "type": "function"
    },
    {
      "inputs": [
        {
          "internalType": "string",
          "name": "fileIpfsCID",
          "type": "string"
        }
      ],
      "name": "fileExists",
      "outputs": [
        {
          "internalType": "bool",
          "name": "",
          "type": "bool"
        }
      ],
      "stateMutability": "view",
      "type": "function"
    },
    {
      "inputs": [
        {
          "internalType": "string",
          "name": "fileIpfsCid",
          "type": "string"
        }
      ],
      "name": "getFileByIpfsCID",
      "outputs": [
        {
          "components": [
            {
              "internalType": "bool",
              "name": "success",
              "type": "bool"
            },
            {
              "components": [
                {
                  "internalType": "string",
                  "name": "ipfsCID",
                  "type": "string"
                },
                {
                  "internalType": "string",
                  "name": "fileName",
                  "type": "string"
                },
                {
                  "internalType": "int256",
                  "name": "version",
                  "type": "int256"
                },
                {
                  "internalType": "address",
                  "name": "owner",
                  "type": "address"
                },
                {
                  "internalType": "string",
                  "name": "fileType",
                  "type": "string"
                },
                {
                  "internalType": "string",
                  "name": "iv",
                  "type": "string"
                }
              ],
              "internalType": "struct FileRegister.File",
              "name": "file",
              "type": "tuple"
            }
          ],
          "internalType": "struct FileRegister.ResultFile",
          "name": "",
          "type": "tuple"
        }
      ],
      "stateMutability": "view",
      "type": "function"
    },
    {
      "inputs": [
        {
          "internalType": "string",
          "name": "name",
          "type": "string"
        }
      ],
      "name": "getIpfsCIDsForName",
      "outputs": [
        {
          "internalType": "string[]",
          "name": "",
          "type": "string[]"
        }
      ],
      "stateMutability": "view",
      "type": "function"
    },
    {
      "inputs": [
        {
          "internalType": "string",
          "name": "fileName",
          "type": "string"
        }
      ],
      "name": "getLatestVersionOfFile",
      "outputs": [
        {
          "internalType": "int256",
          "name": "",
          "type": "int256"
        }
      ],
      "stateMutability": "view",
      "type": "function"
    },
    {
      "inputs": [
        {
          "internalType": "address",
          "name": "accessControlContractAddress",
          "type": "address"
        }
      ],
      "name": "setAccessControlAddress",
      "outputs": [],
      "stateMutability": "nonpayable",
      "type": "function"
    },
    {
      "inputs": [
        {
          "internalType": "address",
          "name": "userAccount",
          "type": "address"
        },
        {
          "internalType": "string",
          "name": "fileIpfsCID",
          "type": "string"
        }
      ],
      "name": "userIsFileOwner",
      "outputs": [
        {
          "internalType": "bool",
          "name": "",
          "type": "bool"
        }
      ],
      "stateMutability": "view",
      "type": "function"
    }
  ],
  "bytecode": "0x60806040523480156200001157600080fd5b5060405162001c9438038062001c948339818101604052810190620000379190620000e9565b80600260006101000a81548173ffffffffffffffffffffffffffffffffffffffff021916908373ffffffffffffffffffffffffffffffffffffffff160217905550506200011b565b600080fd5b600073ffffffffffffffffffffffffffffffffffffffff82169050919050565b6000620000b18262000084565b9050919050565b620000c381620000a4565b8114620000cf57600080fd5b50565b600081519050620000e381620000b8565b92915050565b6000602082840312156200010257620001016200007f565b5b60006200011284828501620000d2565b91505092915050565b611b69806200012b6000396000f3fe608060405234801561001057600080fd5b50600436106100885760003560e01c80638811fe811161005b5780638811fe811461014d5780639bccd6ad146101695780639f5937f814610199578063e8d56b8b146101c957610088565b80634907904b1461008d57806352a9baef146100bd5780635b8b718c146100ed5780637113c4dd1461011d575b600080fd5b6100a760048036038101906100a29190610fe9565b6101e5565b6040516100b4919061104b565b60405180910390f35b6100d760048036038101906100d291906110c4565b610354565b6040516100e4919061113b565b60405180910390f35b6101076004803603810190610102919061129c565b610438565b604051610114919061113b565b60405180910390f35b61013760048036038101906101329190610fe9565b61055d565b6040516101449190611426565b60405180910390f35b6101676004803603810190610162919061129c565b61076c565b005b610183600480360381019061017e9190610fe9565b6108dc565b604051610190919061113b565b60405180910390f35b6101b360048036038101906101ae9190610fe9565b610980565b6040516101c09190611550565b60405180910390f35b6101e360048036038101906101de9190611572565b610d4c565b005b6000807fffffffffffffffffffffffffffffffffffffffffffffffffffffffffffffffff905060005b60018054905081101561034a578360405160200161022c91906115db565b60405160208183030381529060405280519060200120600060018381548110610258576102576115f2565b5b9060005260206000200160405161026f9190611719565b90815260200160405180910390206001016040516020016102909190611719565b604051602081830303815290604052805190602001201480156102f05750816000600183815481106102c5576102c46115f2565b5b906000526020600020016040516102dc9190611719565b908152602001604051809103902060020154135b156103375760006001828154811061030b5761030a6115f2565b5b906000526020600020016040516103229190611719565b90815260200160405180910390206002015491505b808061034290611769565b91505061020e565b5080915050919050565b60008273ffffffffffffffffffffffffffffffffffffffff1660008360405161037d91906115db565b908152602001604051809103902060030160009054906101000a900473ffffffffffffffffffffffffffffffffffffffff1673ffffffffffffffffffffffffffffffffffffffff1614801561041f5750600360009054906101000a900473ffffffffffffffffffffffffffffffffffffffff1673ffffffffffffffffffffffffffffffffffffffff163373ffffffffffffffffffffffffffffffffffffffff16145b1561042d5760019050610432565b600090505b92915050565b600061044782600001516108dc565b1580156104ec5750600260009054906101000a900473ffffffffffffffffffffffffffffffffffffffff1673ffffffffffffffffffffffffffffffffffffffff1663236241a4836040518263ffffffff1660e01b81526004016104aa919061184f565b602060405180830381865afa1580156104c7573d6000803e3d6000fd5b505050506040513d601f19601f820116820180604052508101906104eb919061189d565b5b80156105455750600360009054906101000a900473ffffffffffffffffffffffffffffffffffffffff1673ffffffffffffffffffffffffffffffffffffffff163373ffffffffffffffffffffffffffffffffffffffff16145b156105535760019050610558565b600090505b919050565b6060600060018054905067ffffffffffffffff8111156105805761057f610ebe565b5b6040519080825280602002602001820160405280156105b357816020015b606081526020019060019003908161059e5790505b5090506000805b60018054905081101561075e57846040516020016105d891906115db565b60405160208183030381529060405280519060200120600060018381548110610604576106036115f2565b5b9060005260206000200160405161061b9190611719565b908152602001604051809103902060010160405160200161063c9190611719565b604051602081830303815290604052805190602001200361074b5760006001828154811061066d5761066c6115f2565b5b906000526020600020016040516106849190611719565b908152602001604051809103902060000180546106a090611650565b80601f01602080910402602001604051908101604052809291908181526020018280546106cc90611650565b80156107195780601f106106ee57610100808354040283529160200191610719565b820191906000526020600020905b8154815290600101906020018083116106fc57829003601f168201915b5050505050838381518110610731576107306115f2565b5b6020026020010181905250818061074790611769565b9250505b808061075690611769565b9150506105ba565b508082528192505050919050565b600360009054906101000a900473ffffffffffffffffffffffffffffffffffffffff1673ffffffffffffffffffffffffffffffffffffffff163373ffffffffffffffffffffffffffffffffffffffff16036108d9576107ca81610438565b156108d85780600082600001516040516107e491906115db565b908152602001604051809103902060008201518160000190816108079190611a61565b50602082015181600101908161081d9190611a61565b506040820151816002015560608201518160030160006101000a81548173ffffffffffffffffffffffffffffffffffffffff021916908373ffffffffffffffffffffffffffffffffffffffff16021790555060808201518160040190816108849190611a61565b5060a082015181600501908161089a9190611a61565b50905050600181600001519080600181540180825580915050600190039060005260206000200160009091909190915090816108d69190611a61565b505b5b50565b6000806000836040516108ef91906115db565b9081526020016040518091039020600001805461090b90611650565b9050141580156109685750600360009054906101000a900473ffffffffffffffffffffffffffffffffffffffff1673ffffffffffffffffffffffffffffffffffffffff163373ffffffffffffffffffffffffffffffffffffffff16145b15610976576001905061097b565b600090505b919050565b610988610e21565b6000808360405161099991906115db565b908152602001604051809103902060010180546109b590611650565b90501115610cac5760405180604001604052806001151581526020016000846040516109e191906115db565b90815260200160405180910390206040518060c0016040529081600082018054610a0a90611650565b80601f0160208091040260200160405190810160405280929190818152602001828054610a3690611650565b8015610a835780601f10610a5857610100808354040283529160200191610a83565b820191906000526020600020905b815481529060010190602001808311610a6657829003601f168201915b50505050508152602001600182018054610a9c90611650565b80601f0160208091040260200160405190810160405280929190818152602001828054610ac890611650565b8015610b155780601f10610aea57610100808354040283529160200191610b15565b820191906000526020600020905b815481529060010190602001808311610af857829003601f168201915b50505050508152602001600282015481526020016003820160009054906101000a900473ffffffffffffffffffffffffffffffffffffffff1673ffffffffffffffffffffffffffffffffffffffff1673ffffffffffffffffffffffffffffffffffffffff168152602001600482018054610b8e90611650565b80601f0160208091040260200160405190810160405280929190818152602001828054610bba90611650565b8015610c075780601f10610bdc57610100808354040283529160200191610c07565b820191906000526020600020905b815481529060010190602001808311610bea57829003601f168201915b50505050508152602001600582018054610c2090611650565b80601f0160208091040260200160405190810160405280929190818152602001828054610c4c90611650565b8015610c995780601f10610c6e57610100808354040283529160200191610c99565b820191906000526020600020905b815481529060010190602001808311610c7c57829003601f168201915b5050505050815250508152509050610d47565b60405180604001604052806000151581526020016040518060c0016040528060405180602001604052806000815250815260200160405180602001604052806000815250815260200160008152602001600073ffffffffffffffffffffffffffffffffffffffff1681526020016040518060200160405280600081525081526020016040518060200160405280600081525081525081525090505b919050565b600073ffffffffffffffffffffffffffffffffffffffff168173ffffffffffffffffffffffffffffffffffffffff1614158015610dd75750600073ffffffffffffffffffffffffffffffffffffffff16600360009054906101000a900473ffffffffffffffffffffffffffffffffffffffff1673ffffffffffffffffffffffffffffffffffffffff16145b15610e1e5780600360006101000a81548173ffffffffffffffffffffffffffffffffffffffff021916908373ffffffffffffffffffffffffffffffffffffffff1602179055505b50565b6040518060400160405280600015158152602001610e3d610e43565b81525090565b6040518060c00160405280606081526020016060815260200160008152602001600073ffffffffffffffffffffffffffffffffffffffff16815260200160608152602001606081525090565b6000604051905090565b600080fd5b600080fd5b600080fd5b600080fd5b6000601f19601f8301169050919050565b7f4e487b7100000000000000000000000000000000000000000000000000000000600052604160045260246000fd5b610ef682610ead565b810181811067ffffffffffffffff82111715610f1557610f14610ebe565b5b80604052505050565b6000610f28610e8f565b9050610f348282610eed565b919050565b600067ffffffffffffffff821115610f5457610f53610ebe565b5b610f5d82610ead565b9050602081019050919050565b82818337600083830152505050565b6000610f8c610f8784610f39565b610f1e565b905082815260208101848484011115610fa857610fa7610ea8565b5b610fb3848285610f6a565b509392505050565b600082601f830112610fd057610fcf610ea3565b5b8135610fe0848260208601610f79565b91505092915050565b600060208284031215610fff57610ffe610e99565b5b600082013567ffffffffffffffff81111561101d5761101c610e9e565b5b61102984828501610fbb565b91505092915050565b6000819050919050565b61104581611032565b82525050565b6000602082019050611060600083018461103c565b92915050565b600073ffffffffffffffffffffffffffffffffffffffff82169050919050565b600061109182611066565b9050919050565b6110a181611086565b81146110ac57600080fd5b50565b6000813590506110be81611098565b92915050565b600080604083850312156110db576110da610e99565b5b60006110e9858286016110af565b925050602083013567ffffffffffffffff81111561110a57611109610e9e565b5b61111685828601610fbb565b9150509250929050565b60008115159050919050565b61113581611120565b82525050565b6000602082019050611150600083018461112c565b92915050565b600080fd5b600080fd5b61116981611032565b811461117457600080fd5b50565b60008135905061118681611160565b92915050565b600060c082840312156111a2576111a1611156565b5b6111ac60c0610f1e565b9050600082013567ffffffffffffffff8111156111cc576111cb61115b565b5b6111d884828501610fbb565b600083015250602082013567ffffffffffffffff8111156111fc576111fb61115b565b5b61120884828501610fbb565b602083015250604061121c84828501611177565b6040830152506060611230848285016110af565b606083015250608082013567ffffffffffffffff8111156112545761125361115b565b5b61126084828501610fbb565b60808301525060a082013567ffffffffffffffff8111156112845761128361115b565b5b61129084828501610fbb565b60a08301525092915050565b6000602082840312156112b2576112b1610e99565b5b600082013567ffffffffffffffff8111156112d0576112cf610e9e565b5b6112dc8482850161118c565b91505092915050565b600081519050919050565b600082825260208201905092915050565b6000819050602082019050919050565b600081519050919050565b600082825260208201905092915050565b60005b8381101561134b578082015181840152602081019050611330565b60008484015250505050565b600061136282611311565b61136c818561131c565b935061137c81856020860161132d565b61138581610ead565b840191505092915050565b600061139c8383611357565b905092915050565b6000602082019050919050565b60006113bc826112e5565b6113c681856112f0565b9350836020820285016113d885611301565b8060005b8581101561141457848403895281516113f58582611390565b9450611400836113a4565b925060208a019950506001810190506113dc565b50829750879550505050505092915050565b6000602082019050818103600083015261144081846113b1565b905092915050565b61145181611120565b82525050565b61146081611032565b82525050565b61146f81611086565b82525050565b600060c08301600083015184820360008601526114928282611357565b915050602083015184820360208601526114ac8282611357565b91505060408301516114c16040860182611457565b5060608301516114d46060860182611466565b50608083015184820360808601526114ec8282611357565b91505060a083015184820360a08601526115068282611357565b9150508091505092915050565b600060408301600083015161152b6000860182611448565b50602083015184820360208601526115438282611475565b9150508091505092915050565b6000602082019050818103600083015261156a8184611513565b905092915050565b60006020828403121561158857611587610e99565b5b6000611596848285016110af565b91505092915050565b600081905092915050565b60006115b582611311565b6115bf818561159f565b93506115cf81856020860161132d565b80840191505092915050565b60006115e782846115aa565b915081905092915050565b7f4e487b7100000000000000000000000000000000000000000000000000000000600052603260045260246000fd5b7f4e487b7100000000000000000000000000000000000000000000000000000000600052602260045260246000fd5b6000600282049050600182168061166857607f821691505b60208210810361167b5761167a611621565b5b50919050565b60008190508160005260206000209050919050565b600081546116a381611650565b6116ad818661159f565b945060018216600081146116c857600181146116dd57611710565b60ff1983168652811515820286019350611710565b6116e685611681565b60005b83811015611708578154818901526001820191506020810190506116e9565b838801955050505b50505092915050565b60006117258284611696565b915081905092915050565b7f4e487b7100000000000000000000000000000000000000000000000000000000600052601160045260246000fd5b6000819050919050565b60006117748261175f565b91507fffffffffffffffffffffffffffffffffffffffffffffffffffffffffffffffff82036117a6576117a5611730565b5b600182019050919050565b600060c08301600083015184820360008601526117ce8282611357565b915050602083015184820360208601526117e88282611357565b91505060408301516117fd6040860182611457565b5060608301516118106060860182611466565b50608083015184820360808601526118288282611357565b91505060a083015184820360a08601526118428282611357565b9150508091505092915050565b6000602082019050818103600083015261186981846117b1565b905092915050565b61187a81611120565b811461188557600080fd5b50565b60008151905061189781611871565b92915050565b6000602082840312156118b3576118b2610e99565b5b60006118c184828501611888565b91505092915050565b60006020601f8301049050919050565b600082821b905092915050565b6000600883026119177fffffffffffffffffffffffffffffffffffffffffffffffffffffffffffffffff826118da565b61192186836118da565b95508019841693508086168417925050509392505050565b6000819050919050565b600061195e6119596119548461175f565b611939565b61175f565b9050919050565b6000819050919050565b61197883611943565b61198c61198482611965565b8484546118e7565b825550505050565b600090565b6119a1611994565b6119ac81848461196f565b505050565b5b818110156119d0576119c5600082611999565b6001810190506119b2565b5050565b601f821115611a15576119e681611681565b6119ef846118ca565b810160208510156119fe578190505b611a12611a0a856118ca565b8301826119b1565b50505b505050565b600082821c905092915050565b6000611a3860001984600802611a1a565b1980831691505092915050565b6000611a518383611a27565b9150826002028217905092915050565b611a6a82611311565b67ffffffffffffffff811115611a8357611a82610ebe565b5b611a8d8254611650565b611a988282856119d4565b600060209050601f831160018114611acb5760008415611ab9578287015190505b611ac38582611a45565b865550611b2b565b601f198416611ad986611681565b60005b82811015611b0157848901518255600182019150602085019450602081019050611adc565b86831015611b1e5784890151611b1a601f891682611a27565b8355505b6001600288020188555050505b50505050505056fea26469706673582212201555ab15ffb93ccb9c63647b51a582636acf43a86faeb6bc245b1cdb84b56c0a64736f6c63430008130033",
  "linkReferences": {},
  "deployedLinkReferences": {}
}