{
  "_format": "hh-sol-artifact-1",
  "contractName": "FileRegister",
  "sourceName": "contracts/FileRegister.sol",
  "abi": [
    {
      "inputs": [
        {
          "internalType": "string",
          "name": "fileIpfsCid",
          "type": "string"
        }
      ],
      "name": "getFileByIpfsCID",
      "outputs": [
        {
          "components": [
            {
              "internalType": "bool",
              "name": "success",
              "type": "bool"
            },
            {
              "components": [
                {
                  "internalType": "string",
                  "name": "ipfsCID",
                  "type": "string"
                },
                {
                  "internalType": "string",
                  "name": "fileName",
                  "type": "string"
                },
                {
                  "internalType": "address",
                  "name": "owner",
                  "type": "address"
                },
                {
                  "internalType": "string",
                  "name": "fileType",
                  "type": "string"
                },
                {
                  "internalType": "string",
                  "name": "iv",
                  "type": "string"
                }
              ],
              "internalType": "struct FileRegister.File",
              "name": "file",
              "type": "tuple"
            }
          ],
          "internalType": "struct FileRegister.ResultAction",
          "name": "",
          "type": "tuple"
        }
      ],
      "stateMutability": "view",
      "type": "function"
    }
  ],
  "bytecode": "0x608060405234801561001057600080fd5b506108d3806100206000396000f3fe608060405234801561001057600080fd5b506004361061002b5760003560e01c80639f5937f814610030575b600080fd5b61004a600480360381019061004591906105dc565b610060565b60405161005791906107c8565b60405180910390f35b61006861041b565b600080836040516100799190610826565b908152602001604051809103902060010180546100959061086c565b905011156103825760405180604001604052806001151581526020016000846040516100c19190610826565b90815260200160405180910390206040518060a00160405290816000820180546100ea9061086c565b80601f01602080910402602001604051908101604052809291908181526020018280546101169061086c565b80156101635780601f1061013857610100808354040283529160200191610163565b820191906000526020600020905b81548152906001019060200180831161014657829003601f168201915b5050505050815260200160018201805461017c9061086c565b80601f01602080910402602001604051908101604052809291908181526020018280546101a89061086c565b80156101f55780601f106101ca576101008083540402835291602001916101f5565b820191906000526020600020905b8154815290600101906020018083116101d857829003601f168201915b505050505081526020016002820160009054906101000a900473ffffffffffffffffffffffffffffffffffffffff1673ffffffffffffffffffffffffffffffffffffffff1673ffffffffffffffffffffffffffffffffffffffff1681526020016003820180546102649061086c565b80601f01602080910402602001604051908101604052809291908181526020018280546102909061086c565b80156102dd5780601f106102b2576101008083540402835291602001916102dd565b820191906000526020600020905b8154815290600101906020018083116102c057829003601f168201915b505050505081526020016004820180546102f69061086c565b80601f01602080910402602001604051908101604052809291908181526020018280546103229061086c565b801561036f5780601f106103445761010080835404028352916020019161036f565b820191906000526020600020905b81548152906001019060200180831161035257829003601f168201915b5050505050815250508152509050610416565b60405180604001604052806000151581526020016040518060a00160405280604051806020016040528060008152508152602001604051806020016040528060008152508152602001600073ffffffffffffffffffffffffffffffffffffffff1681526020016040518060200160405280600081525081526020016040518060200160405280600081525081525081525090505b919050565b604051806040016040528060001515815260200161043761043d565b81525090565b6040518060a001604052806060815260200160608152602001600073ffffffffffffffffffffffffffffffffffffffff16815260200160608152602001606081525090565b6000604051905090565b600080fd5b600080fd5b600080fd5b600080fd5b6000601f19601f8301169050919050565b7f4e487b7100000000000000000000000000000000000000000000000000000000600052604160045260246000fd5b6104e9826104a0565b810181811067ffffffffffffffff82111715610508576105076104b1565b5b80604052505050565b600061051b610482565b905061052782826104e0565b919050565b600067ffffffffffffffff821115610547576105466104b1565b5b610550826104a0565b9050602081019050919050565b82818337600083830152505050565b600061057f61057a8461052c565b610511565b90508281526020810184848401111561059b5761059a61049b565b5b6105a684828561055d565b509392505050565b600082601f8301126105c3576105c2610496565b5b81356105d384826020860161056c565b91505092915050565b6000602082840312156105f2576105f161048c565b5b600082013567ffffffffffffffff8111156106105761060f610491565b5b61061c848285016105ae565b91505092915050565b60008115159050919050565b61063a81610625565b82525050565b600081519050919050565b600082825260208201905092915050565b60005b8381101561067a57808201518184015260208101905061065f565b60008484015250505050565b600061069182610640565b61069b818561064b565b93506106ab81856020860161065c565b6106b4816104a0565b840191505092915050565b600073ffffffffffffffffffffffffffffffffffffffff82169050919050565b60006106ea826106bf565b9050919050565b6106fa816106df565b82525050565b600060a083016000830151848203600086015261071d8282610686565b915050602083015184820360208601526107378282610686565b915050604083015161074c60408601826106f1565b50606083015184820360608601526107648282610686565b9150506080830151848203608086015261077e8282610686565b9150508091505092915050565b60006040830160008301516107a36000860182610631565b50602083015184820360208601526107bb8282610700565b9150508091505092915050565b600060208201905081810360008301526107e2818461078b565b905092915050565b600081905092915050565b600061080082610640565b61080a81856107ea565b935061081a81856020860161065c565b80840191505092915050565b600061083282846107f5565b915081905092915050565b7f4e487b7100000000000000000000000000000000000000000000000000000000600052602260045260246000fd5b6000600282049050600182168061088457607f821691505b6020821081036108975761089661083d565b5b5091905056fea264697066735822122075922df43a455d38638548fc7e805260a9f4774108a65038c66438a0e0b6539b64736f6c63430008130033",
  "linkReferences": {},
  "deployedLinkReferences": {}
}