{
  "_format": "hh-sol-artifact-1",
  "contractName": "FileRegister",
  "sourceName": "contracts/FileRegister.sol",
  "abi": [
    {
      "inputs": [
        {
          "internalType": "address",
          "name": "helperContract",
          "type": "address"
        }
      ],
      "stateMutability": "nonpayable",
      "type": "constructor"
    },
    {
      "inputs": [
        {
          "components": [
            {
              "internalType": "string",
              "name": "ipfsCID",
              "type": "string"
            },
            {
              "internalType": "string",
              "name": "fileName",
              "type": "string"
            },
            {
              "internalType": "address",
              "name": "owner",
              "type": "address"
            },
            {
              "internalType": "string",
              "name": "fileType",
              "type": "string"
            },
            {
              "internalType": "string",
              "name": "iv",
              "type": "string"
            }
          ],
          "internalType": "struct FileRegister.File",
          "name": "file",
          "type": "tuple"
        }
      ],
      "name": "addFile",
      "outputs": [],
      "stateMutability": "nonpayable",
      "type": "function"
    },
    {
      "inputs": [
        {
          "components": [
            {
              "internalType": "string",
              "name": "ipfsCID",
              "type": "string"
            },
            {
              "internalType": "string",
              "name": "fileName",
              "type": "string"
            },
            {
              "internalType": "address",
              "name": "owner",
              "type": "address"
            },
            {
              "internalType": "string",
              "name": "fileType",
              "type": "string"
            },
            {
              "internalType": "string",
              "name": "iv",
              "type": "string"
            }
          ],
          "internalType": "struct FileRegister.File",
          "name": "file",
          "type": "tuple"
        }
      ],
      "name": "canAddFile",
      "outputs": [
        {
          "internalType": "bool",
          "name": "",
          "type": "bool"
        }
      ],
      "stateMutability": "view",
      "type": "function"
    },
    {
      "inputs": [
        {
          "internalType": "string",
          "name": "fileIpfsCID",
          "type": "string"
        }
      ],
      "name": "fileExists",
      "outputs": [
        {
          "internalType": "bool",
          "name": "",
          "type": "bool"
        }
      ],
      "stateMutability": "view",
      "type": "function"
    },
    {
      "inputs": [
        {
          "internalType": "string",
          "name": "fileIpfsCid",
          "type": "string"
        }
      ],
      "name": "getFileByIpfsCID",
      "outputs": [
        {
          "components": [
            {
              "internalType": "bool",
              "name": "success",
              "type": "bool"
            },
            {
              "components": [
                {
                  "internalType": "string",
                  "name": "ipfsCID",
                  "type": "string"
                },
                {
                  "internalType": "string",
                  "name": "fileName",
                  "type": "string"
                },
                {
                  "internalType": "address",
                  "name": "owner",
                  "type": "address"
                },
                {
                  "internalType": "string",
                  "name": "fileType",
                  "type": "string"
                },
                {
                  "internalType": "string",
                  "name": "iv",
                  "type": "string"
                }
              ],
              "internalType": "struct FileRegister.File",
              "name": "file",
              "type": "tuple"
            }
          ],
          "internalType": "struct FileRegister.ResultFile",
          "name": "",
          "type": "tuple"
        }
      ],
      "stateMutability": "view",
      "type": "function"
    },
    {
      "inputs": [
        {
          "internalType": "address",
          "name": "userAccount",
          "type": "address"
        },
        {
          "internalType": "string",
          "name": "fileIpfsCID",
          "type": "string"
        }
      ],
      "name": "userIsFileOwner",
      "outputs": [
        {
          "internalType": "bool",
          "name": "",
          "type": "bool"
        }
      ],
      "stateMutability": "view",
      "type": "function"
    }
  ],
  "bytecode": "0x60806040523480156200001157600080fd5b506040516200134b3803806200134b8339818101604052810190620000379190620000e9565b80600160006101000a81548173ffffffffffffffffffffffffffffffffffffffff021916908373ffffffffffffffffffffffffffffffffffffffff160217905550506200011b565b600080fd5b600073ffffffffffffffffffffffffffffffffffffffff82169050919050565b6000620000b18262000084565b9050919050565b620000c381620000a4565b8114620000cf57600080fd5b50565b600081519050620000e381620000b8565b92915050565b6000602082840312156200010257620001016200007f565b5b60006200011284828501620000d2565b91505092915050565b611220806200012b6000396000f3fe608060405234801561001057600080fd5b50600436106100575760003560e01c80631429ea041461005c57806352a9baef1461008c5780639aa7f418146100bc5780639bccd6ad146100d85780639f5937f814610108575b600080fd5b61007660048036038101906100719190610afe565b610138565b6040516100839190610b62565b60405180910390f35b6100a660048036038101906100a19190610b7d565b61023c565b6040516100b39190610b62565b60405180910390f35b6100d660048036038101906100d19190610afe565b6102c6565b005b6100f260048036038101906100ed9190610bd9565b6103d5565b6040516100ff9190610b62565b60405180910390f35b610122600480360381019061011d9190610bd9565b61041e565b60405161012f9190610d87565b60405180910390f35b60003373ffffffffffffffffffffffffffffffffffffffff16826040015173ffffffffffffffffffffffffffffffffffffffff16036102325761017e82600001516103d5565b1580156102235750600160009054906101000a900473ffffffffffffffffffffffffffffffffffffffff1673ffffffffffffffffffffffffffffffffffffffff1663f4520b2c836040518263ffffffff1660e01b81526004016101e19190610e34565b602060405180830381865afa1580156101fe573d6000803e3d6000fd5b505050506040513d601f19601f820116820180604052508101906102229190610e82565b5b156102315760019050610237565b5b600090505b919050565b60008273ffffffffffffffffffffffffffffffffffffffff166000836040516102659190610eeb565b908152602001604051809103902060020160009054906101000a900473ffffffffffffffffffffffffffffffffffffffff1673ffffffffffffffffffffffffffffffffffffffff16036102bb57600190506102c0565b600090505b92915050565b3373ffffffffffffffffffffffffffffffffffffffff16816040015173ffffffffffffffffffffffffffffffffffffffff16036103d25761030681610138565b156103d15780600082600001516040516103209190610eeb565b908152602001604051809103902060008201518160000190816103439190611118565b5060208201518160010190816103599190611118565b5060408201518160020160006101000a81548173ffffffffffffffffffffffffffffffffffffffff021916908373ffffffffffffffffffffffffffffffffffffffff16021790555060608201518160030190816103b69190611118565b5060808201518160040190816103cc9190611118565b509050505b5b50565b6000806000836040516103e89190610eeb565b9081526020016040518091039020600001805461040490610f31565b9050146104145760019050610419565b600090505b919050565b6104266107d9565b600080836040516104379190610eeb565b9081526020016040518091039020600101805461045390610f31565b9050111561074057604051806040016040528060011515815260200160008460405161047f9190610eeb565b90815260200160405180910390206040518060a00160405290816000820180546104a890610f31565b80601f01602080910402602001604051908101604052809291908181526020018280546104d490610f31565b80156105215780601f106104f657610100808354040283529160200191610521565b820191906000526020600020905b81548152906001019060200180831161050457829003601f168201915b5050505050815260200160018201805461053a90610f31565b80601f016020809104026020016040519081016040528092919081815260200182805461056690610f31565b80156105b35780601f10610588576101008083540402835291602001916105b3565b820191906000526020600020905b81548152906001019060200180831161059657829003601f168201915b505050505081526020016002820160009054906101000a900473ffffffffffffffffffffffffffffffffffffffff1673ffffffffffffffffffffffffffffffffffffffff1673ffffffffffffffffffffffffffffffffffffffff16815260200160038201805461062290610f31565b80601f016020809104026020016040519081016040528092919081815260200182805461064e90610f31565b801561069b5780601f106106705761010080835404028352916020019161069b565b820191906000526020600020905b81548152906001019060200180831161067e57829003601f168201915b505050505081526020016004820180546106b490610f31565b80601f01602080910402602001604051908101604052809291908181526020018280546106e090610f31565b801561072d5780601f106107025761010080835404028352916020019161072d565b820191906000526020600020905b81548152906001019060200180831161071057829003601f168201915b50505050508152505081525090506107d4565b60405180604001604052806000151581526020016040518060a00160405280604051806020016040528060008152508152602001604051806020016040528060008152508152602001600073ffffffffffffffffffffffffffffffffffffffff1681526020016040518060200160405280600081525081526020016040518060200160405280600081525081525081525090505b919050565b60405180604001604052806000151581526020016107f56107fb565b81525090565b6040518060a001604052806060815260200160608152602001600073ffffffffffffffffffffffffffffffffffffffff16815260200160608152602001606081525090565b6000604051905090565b600080fd5b600080fd5b600080fd5b6000601f19601f8301169050919050565b7f4e487b7100000000000000000000000000000000000000000000000000000000600052604160045260246000fd5b6108a282610859565b810181811067ffffffffffffffff821117156108c1576108c061086a565b5b80604052505050565b60006108d4610840565b90506108e08282610899565b919050565b600080fd5b600080fd5b600080fd5b600067ffffffffffffffff82111561090f5761090e61086a565b5b61091882610859565b9050602081019050919050565b82818337600083830152505050565b6000610947610942846108f4565b6108ca565b905082815260208101848484011115610963576109626108ef565b5b61096e848285610925565b509392505050565b600082601f83011261098b5761098a6108ea565b5b813561099b848260208601610934565b91505092915050565b600073ffffffffffffffffffffffffffffffffffffffff82169050919050565b60006109cf826109a4565b9050919050565b6109df816109c4565b81146109ea57600080fd5b50565b6000813590506109fc816109d6565b92915050565b600060a08284031215610a1857610a17610854565b5b610a2260a06108ca565b9050600082013567ffffffffffffffff811115610a4257610a416108e5565b5b610a4e84828501610976565b600083015250602082013567ffffffffffffffff811115610a7257610a716108e5565b5b610a7e84828501610976565b6020830152506040610a92848285016109ed565b604083015250606082013567ffffffffffffffff811115610ab657610ab56108e5565b5b610ac284828501610976565b606083015250608082013567ffffffffffffffff811115610ae657610ae56108e5565b5b610af284828501610976565b60808301525092915050565b600060208284031215610b1457610b1361084a565b5b600082013567ffffffffffffffff811115610b3257610b3161084f565b5b610b3e84828501610a02565b91505092915050565b60008115159050919050565b610b5c81610b47565b82525050565b6000602082019050610b776000830184610b53565b92915050565b60008060408385031215610b9457610b9361084a565b5b6000610ba2858286016109ed565b925050602083013567ffffffffffffffff811115610bc357610bc261084f565b5b610bcf85828601610976565b9150509250929050565b600060208284031215610bef57610bee61084a565b5b600082013567ffffffffffffffff811115610c0d57610c0c61084f565b5b610c1984828501610976565b91505092915050565b610c2b81610b47565b82525050565b600081519050919050565b600082825260208201905092915050565b60005b83811015610c6b578082015181840152602081019050610c50565b60008484015250505050565b6000610c8282610c31565b610c8c8185610c3c565b9350610c9c818560208601610c4d565b610ca581610859565b840191505092915050565b610cb9816109c4565b82525050565b600060a0830160008301518482036000860152610cdc8282610c77565b91505060208301518482036020860152610cf68282610c77565b9150506040830151610d0b6040860182610cb0565b5060608301518482036060860152610d238282610c77565b91505060808301518482036080860152610d3d8282610c77565b9150508091505092915050565b6000604083016000830151610d626000860182610c22565b5060208301518482036020860152610d7a8282610cbf565b9150508091505092915050565b60006020820190508181036000830152610da18184610d4a565b905092915050565b600060a0830160008301518482036000860152610dc68282610c77565b91505060208301518482036020860152610de08282610c77565b9150506040830151610df56040860182610cb0565b5060608301518482036060860152610e0d8282610c77565b91505060808301518482036080860152610e278282610c77565b9150508091505092915050565b60006020820190508181036000830152610e4e8184610da9565b905092915050565b610e5f81610b47565b8114610e6a57600080fd5b50565b600081519050610e7c81610e56565b92915050565b600060208284031215610e9857610e9761084a565b5b6000610ea684828501610e6d565b91505092915050565b600081905092915050565b6000610ec582610c31565b610ecf8185610eaf565b9350610edf818560208601610c4d565b80840191505092915050565b6000610ef78284610eba565b915081905092915050565b7f4e487b7100000000000000000000000000000000000000000000000000000000600052602260045260246000fd5b60006002820490506001821680610f4957607f821691505b602082108103610f5c57610f5b610f02565b5b50919050565b60008190508160005260206000209050919050565b60006020601f8301049050919050565b600082821b905092915050565b600060088302610fc47fffffffffffffffffffffffffffffffffffffffffffffffffffffffffffffffff82610f87565b610fce8683610f87565b95508019841693508086168417925050509392505050565b6000819050919050565b6000819050919050565b600061101561101061100b84610fe6565b610ff0565b610fe6565b9050919050565b6000819050919050565b61102f83610ffa565b61104361103b8261101c565b848454610f94565b825550505050565b600090565b61105861104b565b611063818484611026565b505050565b5b818110156110875761107c600082611050565b600181019050611069565b5050565b601f8211156110cc5761109d81610f62565b6110a684610f77565b810160208510156110b5578190505b6110c96110c185610f77565b830182611068565b50505b505050565b600082821c905092915050565b60006110ef600019846008026110d1565b1980831691505092915050565b600061110883836110de565b9150826002028217905092915050565b61112182610c31565b67ffffffffffffffff81111561113a5761113961086a565b5b6111448254610f31565b61114f82828561108b565b600060209050601f8311600181146111825760008415611170578287015190505b61117a85826110fc565b8655506111e2565b601f19841661119086610f62565b60005b828110156111b857848901518255600182019150602085019450602081019050611193565b868310156111d557848901516111d1601f8916826110de565b8355505b6001600288020188555050505b50505050505056fea26469706673582212204b66f2979a3c5948545eeedad9b7475d45894ded3b692544ed65601c9594532164736f6c63430008130033",
  "linkReferences": {},
  "deployedLinkReferences": {}
}