{
  "_format": "hh-sol-artifact-1",
  "contractName": "FileRegister",
  "sourceName": "contracts/FileRegister.sol",
  "abi": [
    {
      "inputs": [
        {
          "internalType": "address",
          "name": "helperContract",
          "type": "address"
        }
      ],
      "stateMutability": "nonpayable",
      "type": "constructor"
    },
    {
      "inputs": [
        {
          "components": [
            {
              "internalType": "string",
              "name": "ipfsCID",
              "type": "string"
            },
            {
              "internalType": "string",
              "name": "fileName",
              "type": "string"
            },
            {
              "internalType": "int256",
              "name": "version",
              "type": "int256"
            },
            {
              "internalType": "address",
              "name": "owner",
              "type": "address"
            },
            {
              "internalType": "string",
              "name": "fileType",
              "type": "string"
            },
            {
              "internalType": "string",
              "name": "iv",
              "type": "string"
            },
            {
              "internalType": "string",
              "name": "state",
              "type": "string"
            }
          ],
          "internalType": "struct FileRegister.File",
          "name": "file",
          "type": "tuple"
        }
      ],
      "name": "addFile",
      "outputs": [],
      "stateMutability": "nonpayable",
      "type": "function"
    },
    {
      "inputs": [
        {
          "components": [
            {
              "internalType": "string",
              "name": "ipfsCID",
              "type": "string"
            },
            {
              "internalType": "string",
              "name": "fileName",
              "type": "string"
            },
            {
              "internalType": "int256",
              "name": "version",
              "type": "int256"
            },
            {
              "internalType": "address",
              "name": "owner",
              "type": "address"
            },
            {
              "internalType": "string",
              "name": "fileType",
              "type": "string"
            },
            {
              "internalType": "string",
              "name": "iv",
              "type": "string"
            },
            {
              "internalType": "string",
              "name": "state",
              "type": "string"
            }
          ],
          "internalType": "struct FileRegister.File",
          "name": "file",
          "type": "tuple"
        }
      ],
      "name": "canAddFile",
      "outputs": [
        {
          "internalType": "bool",
          "name": "",
          "type": "bool"
        }
      ],
      "stateMutability": "view",
      "type": "function"
    },
    {
      "inputs": [
        {
          "internalType": "string",
          "name": "fileIpfsCid",
          "type": "string"
        }
      ],
      "name": "deactivateFile",
      "outputs": [],
      "stateMutability": "nonpayable",
      "type": "function"
    },
    {
      "inputs": [
        {
          "internalType": "string",
          "name": "fileIpfsCID",
          "type": "string"
        }
      ],
      "name": "fileExists",
      "outputs": [
        {
          "internalType": "bool",
          "name": "",
          "type": "bool"
        }
      ],
      "stateMutability": "view",
      "type": "function"
    },
    {
      "inputs": [
        {
          "internalType": "string",
          "name": "fileIpfsCid",
          "type": "string"
        },
        {
          "internalType": "string",
          "name": "state",
          "type": "string"
        }
      ],
      "name": "getFileByIpfsCID",
      "outputs": [
        {
          "components": [
            {
              "internalType": "bool",
              "name": "success",
              "type": "bool"
            },
            {
              "components": [
                {
                  "internalType": "string",
                  "name": "ipfsCID",
                  "type": "string"
                },
                {
                  "internalType": "string",
                  "name": "fileName",
                  "type": "string"
                },
                {
                  "internalType": "int256",
                  "name": "version",
                  "type": "int256"
                },
                {
                  "internalType": "address",
                  "name": "owner",
                  "type": "address"
                },
                {
                  "internalType": "string",
                  "name": "fileType",
                  "type": "string"
                },
                {
                  "internalType": "string",
                  "name": "iv",
                  "type": "string"
                },
                {
                  "internalType": "string",
                  "name": "state",
                  "type": "string"
                }
              ],
              "internalType": "struct FileRegister.File",
              "name": "file",
              "type": "tuple"
            }
          ],
          "internalType": "struct FileRegister.ResultFile",
          "name": "",
          "type": "tuple"
        }
      ],
      "stateMutability": "view",
      "type": "function"
    },
    {
      "inputs": [
        {
          "internalType": "string",
          "name": "fileName",
          "type": "string"
        }
      ],
      "name": "getFileOwner",
      "outputs": [
        {
          "internalType": "address",
          "name": "",
          "type": "address"
        }
      ],
      "stateMutability": "view",
      "type": "function"
    },
    {
      "inputs": [
        {
          "internalType": "string",
          "name": "fileIpfsCID",
          "type": "string"
        }
      ],
      "name": "getFileState",
      "outputs": [
        {
          "components": [
            {
              "internalType": "bool",
              "name": "success",
              "type": "bool"
            },
            {
              "internalType": "string",
              "name": "resultString",
              "type": "string"
            }
          ],
          "internalType": "struct Helper.ResultString",
          "name": "",
          "type": "tuple"
        }
      ],
      "stateMutability": "view",
      "type": "function"
    },
    {
      "inputs": [
        {
          "internalType": "string",
          "name": "name",
          "type": "string"
        }
      ],
      "name": "getIpfsCIDsForName",
      "outputs": [
        {
          "internalType": "string[]",
          "name": "",
          "type": "string[]"
        }
      ],
      "stateMutability": "view",
      "type": "function"
    },
    {
      "inputs": [
        {
          "internalType": "string",
          "name": "fileName",
          "type": "string"
        }
      ],
      "name": "getLatestVersionOfFile",
      "outputs": [
        {
          "internalType": "int256",
          "name": "",
          "type": "int256"
        }
      ],
      "stateMutability": "view",
      "type": "function"
    },
    {
      "inputs": [
        {
          "internalType": "address",
          "name": "accessControlContractAddress",
          "type": "address"
        }
      ],
      "name": "setAccessControlAddress",
      "outputs": [],
      "stateMutability": "nonpayable",
      "type": "function"
    },
    {
      "inputs": [
        {
          "internalType": "address",
          "name": "userAccount",
          "type": "address"
        },
        {
          "internalType": "string",
          "name": "fileIpfsCID",
          "type": "string"
        }
      ],
      "name": "userIsFileOwner",
      "outputs": [
        {
          "internalType": "bool",
          "name": "",
          "type": "bool"
        }
      ],
      "stateMutability": "view",
      "type": "function"
    }
  ],
  "bytecode": "0x60806040523480156200001157600080fd5b5060405162002533380380620025338339818101604052810190620000379190620000e9565b80600260006101000a81548173ffffffffffffffffffffffffffffffffffffffff021916908373ffffffffffffffffffffffffffffffffffffffff160217905550506200011b565b600080fd5b600073ffffffffffffffffffffffffffffffffffffffff82169050919050565b6000620000b18262000084565b9050919050565b620000c381620000a4565b8114620000cf57600080fd5b50565b600081519050620000e381620000b8565b92915050565b6000602082840312156200010257620001016200007f565b5b60006200011284828501620000d2565b91505092915050565b612408806200012b6000396000f3fe608060405234801561001057600080fd5b50600436106100a85760003560e01c80637113c4dd116100715780637113c4dd1461019d57806374546fdf146101cd57806384c107ff146101e95780639bccd6ad14610219578063af205f5c14610249578063e8d56b8b14610265576100a8565b8062438ceb146100ad57806338fa8f58146100dd57806347eb6fa71461010d5780634907904b1461013d57806352a9baef1461016d575b600080fd5b6100c760048036038101906100c29190611687565b610281565b6040516100d491906117a7565b60405180910390f35b6100f760048036038101906100f29190611687565b6103d5565b604051610104919061180a565b60405180910390f35b61012760048036038101906101229190611825565b610549565b60405161013491906119ba565b60405180910390f35b61015760048036038101906101529190611687565b610a88565b60405161016491906119eb565b60405180910390f35b61018760048036038101906101829190611a32565b610bf7565b6040516101949190611a9d565b60405180910390f35b6101b760048036038101906101b29190611687565b610cdb565b6040516101c49190611b7a565b60405180910390f35b6101e760048036038101906101e29190611687565b610f7d565b005b61020360048036038101906101fe9190611d12565b61103a565b6040516102109190611a9d565b60405180910390f35b610233600480360381019061022e9190611687565b61115f565b6040516102409190611a9d565b60405180910390f35b610263600480360381019061025e9190611d12565b611203565b005b61027f600480360381019061027a9190611d5b565b6113c7565b005b61028961149c565b600360009054906101000a900473ffffffffffffffffffffffffffffffffffffffff1673ffffffffffffffffffffffffffffffffffffffff163373ffffffffffffffffffffffffffffffffffffffff16036103a65760405180604001604052806001151581526020016000846040516103029190611dc4565b9081526020016040518091039020600601805461031e90611e0a565b80601f016020809104026020016040519081016040528092919081815260200182805461034a90611e0a565b80156103975780601f1061036c57610100808354040283529160200191610397565b820191906000526020600020905b81548152906001019060200180831161037a57829003601f168201915b505050505081525090506103d0565b60405180604001604052806000151581526020016040518060200160405280600081525081525090505b919050565b600080600090505b60018054905081101561053e57826040516020016103fb9190611dc4565b6040516020818303038152906040528051906020012060006001838154811061042757610426611e3b565b5b9060005260206000200160405161043e9190611f02565b908152602001604051809103902060010160405160200161045f9190611f02565b604051602081830303815290604052805190602001201480156104bf57506000806001838154811061049457610493611e3b565b5b906000526020600020016040516104ab9190611f02565b908152602001604051809103902060020154145b1561052b576000600182815481106104da576104d9611e3b565b5b906000526020600020016040516104f19190611f02565b908152602001604051809103902060030160009054906101000a900473ffffffffffffffffffffffffffffffffffffffff16915050610544565b808061053690611f52565b9150506103dd565b50600090505b919050565b6105516114b8565b600080846040516105629190611dc4565b9081526020016040518091039020600101805461057e90611e0a565b905011801561064c5750816040516020016105999190611dc4565b604051602081830303815290604052805190602001206000846040516105bf9190611dc4565b90815260200160405180910390206006016040516020016105e09190611f02565b60405160208183030381529060405280519060200120148061064b575060405160200161060c90611fc0565b60405160208183030381529060405280519060200120826040516020016106339190611dc4565b60405160208183030381529060405280519060200120145b5b156109d25760405180604001604052806001151581526020016000856040516106759190611dc4565b90815260200160405180910390206040518060e001604052908160008201805461069e90611e0a565b80601f01602080910402602001604051908101604052809291908181526020018280546106ca90611e0a565b80156107175780601f106106ec57610100808354040283529160200191610717565b820191906000526020600020905b8154815290600101906020018083116106fa57829003601f168201915b5050505050815260200160018201805461073090611e0a565b80601f016020809104026020016040519081016040528092919081815260200182805461075c90611e0a565b80156107a95780601f1061077e576101008083540402835291602001916107a9565b820191906000526020600020905b81548152906001019060200180831161078c57829003601f168201915b50505050508152602001600282015481526020016003820160009054906101000a900473ffffffffffffffffffffffffffffffffffffffff1673ffffffffffffffffffffffffffffffffffffffff1673ffffffffffffffffffffffffffffffffffffffff16815260200160048201805461082290611e0a565b80601f016020809104026020016040519081016040528092919081815260200182805461084e90611e0a565b801561089b5780601f106108705761010080835404028352916020019161089b565b820191906000526020600020905b81548152906001019060200180831161087e57829003601f168201915b505050505081526020016005820180546108b490611e0a565b80601f01602080910402602001604051908101604052809291908181526020018280546108e090611e0a565b801561092d5780601f106109025761010080835404028352916020019161092d565b820191906000526020600020905b81548152906001019060200180831161091057829003601f168201915b5050505050815260200160068201805461094690611e0a565b80601f016020809104026020016040519081016040528092919081815260200182805461097290611e0a565b80156109bf5780601f10610994576101008083540402835291602001916109bf565b820191906000526020600020905b8154815290600101906020018083116109a257829003601f168201915b5050505050815250508152509050610a82565b60405180604001604052806000151581526020016040518060e0016040528060405180602001604052806000815250815260200160405180602001604052806000815250815260200160008152602001600073ffffffffffffffffffffffffffffffffffffffff1681526020016040518060200160405280600081525081526020016040518060200160405280600081525081526020016040518060200160405280600081525081525081525090505b92915050565b6000807fffffffffffffffffffffffffffffffffffffffffffffffffffffffffffffffff905060005b600180549050811015610bed5783604051602001610acf9190611dc4565b60405160208183030381529060405280519060200120600060018381548110610afb57610afa611e3b565b5b90600052602060002001604051610b129190611f02565b9081526020016040518091039020600101604051602001610b339190611f02565b60405160208183030381529060405280519060200120148015610b93575081600060018381548110610b6857610b67611e3b565b5b90600052602060002001604051610b7f9190611f02565b908152602001604051809103902060020154135b15610bda57600060018281548110610bae57610bad611e3b565b5b90600052602060002001604051610bc59190611f02565b90815260200160405180910390206002015491505b8080610be590611f52565b915050610ab1565b5080915050919050565b60008273ffffffffffffffffffffffffffffffffffffffff16600083604051610c209190611dc4565b908152602001604051809103902060030160009054906101000a900473ffffffffffffffffffffffffffffffffffffffff1673ffffffffffffffffffffffffffffffffffffffff16148015610cc25750600360009054906101000a900473ffffffffffffffffffffffffffffffffffffffff1673ffffffffffffffffffffffffffffffffffffffff163373ffffffffffffffffffffffffffffffffffffffff16145b15610cd05760019050610cd5565b600090505b92915050565b6060600060018054905067ffffffffffffffff811115610cfe57610cfd61155c565b5b604051908082528060200260200182016040528015610d3157816020015b6060815260200190600190039081610d1c5790505b5090506000805b600180549050811015610f6f5784604051602001610d569190611dc4565b60405160208183030381529060405280519060200120600060018381548110610d8257610d81611e3b565b5b90600052602060002001604051610d999190611f02565b9081526020016040518091039020600101604051602001610dba9190611f02565b60405160208183030381529060405280519060200120148015610e635750604051602001610de790612021565b60405160208183030381529060405280519060200120600060018381548110610e1357610e12611e3b565b5b90600052602060002001604051610e2a9190611f02565b9081526020016040518091039020600601604051602001610e4b9190611f02565b60405160208183030381529060405280519060200120145b15610f5c57600060018281548110610e7e57610e7d611e3b565b5b90600052602060002001604051610e959190611f02565b90815260200160405180910390206000018054610eb190611e0a565b80601f0160208091040260200160405190810160405280929190818152602001828054610edd90611e0a565b8015610f2a5780601f10610eff57610100808354040283529160200191610f2a565b820191906000526020600020905b815481529060010190602001808311610f0d57829003601f168201915b5050505050838381518110610f4257610f41611e3b565b5b60200260200101819052508180610f5890611f52565b9250505b8080610f6790611f52565b915050610d38565b508082528192505050919050565b600360009054906101000a900473ffffffffffffffffffffffffffffffffffffffff1673ffffffffffffffffffffffffffffffffffffffff163373ffffffffffffffffffffffffffffffffffffffff1603611037576040518060400160405280600881526020017f64656163746976650000000000000000000000000000000000000000000000008152506000826040516110189190611dc4565b9081526020016040518091039020600601908161103591906121cd565b505b50565b6000611049826000015161115f565b1580156110ee5750600260009054906101000a900473ffffffffffffffffffffffffffffffffffffffff1673ffffffffffffffffffffffffffffffffffffffff166312a8d91c836040518263ffffffff1660e01b81526004016110ac9190612357565b602060405180830381865afa1580156110c9573d6000803e3d6000fd5b505050506040513d601f19601f820116820180604052508101906110ed91906123a5565b5b80156111475750600360009054906101000a900473ffffffffffffffffffffffffffffffffffffffff1673ffffffffffffffffffffffffffffffffffffffff163373ffffffffffffffffffffffffffffffffffffffff16145b15611155576001905061115a565b600090505b919050565b6000806000836040516111729190611dc4565b9081526020016040518091039020600001805461118e90611e0a565b9050141580156111eb5750600360009054906101000a900473ffffffffffffffffffffffffffffffffffffffff1673ffffffffffffffffffffffffffffffffffffffff163373ffffffffffffffffffffffffffffffffffffffff16145b156111f957600190506111fe565b600090505b919050565b600360009054906101000a900473ffffffffffffffffffffffffffffffffffffffff1673ffffffffffffffffffffffffffffffffffffffff163373ffffffffffffffffffffffffffffffffffffffff16036113c4576112618161103a565b156113c3576040518060400160405280600681526020017f61637469766500000000000000000000000000000000000000000000000000008152508160c0018190525080600082600001516040516112b99190611dc4565b908152602001604051809103902060008201518160000190816112dc91906121cd565b5060208201518160010190816112f291906121cd565b506040820151816002015560608201518160030160006101000a81548173ffffffffffffffffffffffffffffffffffffffff021916908373ffffffffffffffffffffffffffffffffffffffff160217905550608082015181600401908161135991906121cd565b5060a082015181600501908161136f91906121cd565b5060c082015181600601908161138591906121cd565b50905050600181600001519080600181540180825580915050600190039060005260206000200160009091909190915090816113c191906121cd565b505b5b50565b600073ffffffffffffffffffffffffffffffffffffffff168173ffffffffffffffffffffffffffffffffffffffff16141580156114525750600073ffffffffffffffffffffffffffffffffffffffff16600360009054906101000a900473ffffffffffffffffffffffffffffffffffffffff1673ffffffffffffffffffffffffffffffffffffffff16145b156114995780600360006101000a81548173ffffffffffffffffffffffffffffffffffffffff021916908373ffffffffffffffffffffffffffffffffffffffff1602179055505b50565b6040518060400160405280600015158152602001606081525090565b60405180604001604052806000151581526020016114d46114da565b81525090565b6040518060e00160405280606081526020016060815260200160008152602001600073ffffffffffffffffffffffffffffffffffffffff1681526020016060815260200160608152602001606081525090565b6000604051905090565b600080fd5b600080fd5b600080fd5b600080fd5b6000601f19601f8301169050919050565b7f4e487b7100000000000000000000000000000000000000000000000000000000600052604160045260246000fd5b6115948261154b565b810181811067ffffffffffffffff821117156115b3576115b261155c565b5b80604052505050565b60006115c661152d565b90506115d2828261158b565b919050565b600067ffffffffffffffff8211156115f2576115f161155c565b5b6115fb8261154b565b9050602081019050919050565b82818337600083830152505050565b600061162a611625846115d7565b6115bc565b90508281526020810184848401111561164657611645611546565b5b611651848285611608565b509392505050565b600082601f83011261166e5761166d611541565b5b813561167e848260208601611617565b91505092915050565b60006020828403121561169d5761169c611537565b5b600082013567ffffffffffffffff8111156116bb576116ba61153c565b5b6116c784828501611659565b91505092915050565b60008115159050919050565b6116e5816116d0565b82525050565b600081519050919050565b600082825260208201905092915050565b60005b8381101561172557808201518184015260208101905061170a565b60008484015250505050565b600061173c826116eb565b61174681856116f6565b9350611756818560208601611707565b61175f8161154b565b840191505092915050565b600060408301600083015161178260008601826116dc565b506020830151848203602086015261179a8282611731565b9150508091505092915050565b600060208201905081810360008301526117c1818461176a565b905092915050565b600073ffffffffffffffffffffffffffffffffffffffff82169050919050565b60006117f4826117c9565b9050919050565b611804816117e9565b82525050565b600060208201905061181f60008301846117fb565b92915050565b6000806040838503121561183c5761183b611537565b5b600083013567ffffffffffffffff81111561185a5761185961153c565b5b61186685828601611659565b925050602083013567ffffffffffffffff8111156118875761188661153c565b5b61189385828601611659565b9150509250929050565b6000819050919050565b6118b08161189d565b82525050565b6118bf816117e9565b82525050565b600060e08301600083015184820360008601526118e28282611731565b915050602083015184820360208601526118fc8282611731565b915050604083015161191160408601826118a7565b50606083015161192460608601826118b6565b506080830151848203608086015261193c8282611731565b91505060a083015184820360a08601526119568282611731565b91505060c083015184820360c08601526119708282611731565b9150508091505092915050565b600060408301600083015161199560008601826116dc565b50602083015184820360208601526119ad82826118c5565b9150508091505092915050565b600060208201905081810360008301526119d4818461197d565b905092915050565b6119e58161189d565b82525050565b6000602082019050611a0060008301846119dc565b92915050565b611a0f816117e9565b8114611a1a57600080fd5b50565b600081359050611a2c81611a06565b92915050565b60008060408385031215611a4957611a48611537565b5b6000611a5785828601611a1d565b925050602083013567ffffffffffffffff811115611a7857611a7761153c565b5b611a8485828601611659565b9150509250929050565b611a97816116d0565b82525050565b6000602082019050611ab26000830184611a8e565b92915050565b600081519050919050565b600082825260208201905092915050565b6000819050602082019050919050565b6000611af08383611731565b905092915050565b6000602082019050919050565b6000611b1082611ab8565b611b1a8185611ac3565b935083602082028501611b2c85611ad4565b8060005b85811015611b685784840389528151611b498582611ae4565b9450611b5483611af8565b925060208a01995050600181019050611b30565b50829750879550505050505092915050565b60006020820190508181036000830152611b948184611b05565b905092915050565b600080fd5b600080fd5b611baf8161189d565b8114611bba57600080fd5b50565b600081359050611bcc81611ba6565b92915050565b600060e08284031215611be857611be7611b9c565b5b611bf260e06115bc565b9050600082013567ffffffffffffffff811115611c1257611c11611ba1565b5b611c1e84828501611659565b600083015250602082013567ffffffffffffffff811115611c4257611c41611ba1565b5b611c4e84828501611659565b6020830152506040611c6284828501611bbd565b6040830152506060611c7684828501611a1d565b606083015250608082013567ffffffffffffffff811115611c9a57611c99611ba1565b5b611ca684828501611659565b60808301525060a082013567ffffffffffffffff811115611cca57611cc9611ba1565b5b611cd684828501611659565b60a08301525060c082013567ffffffffffffffff811115611cfa57611cf9611ba1565b5b611d0684828501611659565b60c08301525092915050565b600060208284031215611d2857611d27611537565b5b600082013567ffffffffffffffff811115611d4657611d4561153c565b5b611d5284828501611bd2565b91505092915050565b600060208284031215611d7157611d70611537565b5b6000611d7f84828501611a1d565b91505092915050565b600081905092915050565b6000611d9e826116eb565b611da88185611d88565b9350611db8818560208601611707565b80840191505092915050565b6000611dd08284611d93565b915081905092915050565b7f4e487b7100000000000000000000000000000000000000000000000000000000600052602260045260246000fd5b60006002820490506001821680611e2257607f821691505b602082108103611e3557611e34611ddb565b5b50919050565b7f4e487b7100000000000000000000000000000000000000000000000000000000600052603260045260246000fd5b60008190508160005260206000209050919050565b60008154611e8c81611e0a565b611e968186611d88565b94506001821660008114611eb15760018114611ec657611ef9565b60ff1983168652811515820286019350611ef9565b611ecf85611e6a565b60005b83811015611ef157815481890152600182019150602081019050611ed2565b838801955050505b50505092915050565b6000611f0e8284611e7f565b915081905092915050565b7f4e487b7100000000000000000000000000000000000000000000000000000000600052601160045260246000fd5b6000819050919050565b6000611f5d82611f48565b91507fffffffffffffffffffffffffffffffffffffffffffffffffffffffffffffffff8203611f8f57611f8e611f19565b5b600182019050919050565b50565b6000611faa600083611d88565b9150611fb582611f9a565b600082019050919050565b6000611fcb82611f9d565b9150819050919050565b7f6163746976650000000000000000000000000000000000000000000000000000600082015250565b600061200b600683611d88565b915061201682611fd5565b600682019050919050565b600061202c82611ffe565b9150819050919050565b60006020601f8301049050919050565b600082821b905092915050565b6000600883026120837fffffffffffffffffffffffffffffffffffffffffffffffffffffffffffffffff82612046565b61208d8683612046565b95508019841693508086168417925050509392505050565b6000819050919050565b60006120ca6120c56120c084611f48565b6120a5565b611f48565b9050919050565b6000819050919050565b6120e4836120af565b6120f86120f0826120d1565b848454612053565b825550505050565b600090565b61210d612100565b6121188184846120db565b505050565b5b8181101561213c57612131600082612105565b60018101905061211e565b5050565b601f8211156121815761215281611e6a565b61215b84612036565b8101602085101561216a578190505b61217e61217685612036565b83018261211d565b50505b505050565b600082821c905092915050565b60006121a460001984600802612186565b1980831691505092915050565b60006121bd8383612193565b9150826002028217905092915050565b6121d6826116eb565b67ffffffffffffffff8111156121ef576121ee61155c565b5b6121f98254611e0a565b612204828285612140565b600060209050601f8311600181146122375760008415612225578287015190505b61222f85826121b1565b865550612297565b601f19841661224586611e6a565b60005b8281101561226d57848901518255600182019150602085019450602081019050612248565b8683101561228a5784890151612286601f891682612193565b8355505b6001600288020188555050505b505050505050565b600060e08301600083015184820360008601526122bc8282611731565b915050602083015184820360208601526122d68282611731565b91505060408301516122eb60408601826118a7565b5060608301516122fe60608601826118b6565b50608083015184820360808601526123168282611731565b91505060a083015184820360a08601526123308282611731565b91505060c083015184820360c086015261234a8282611731565b9150508091505092915050565b60006020820190508181036000830152612371818461229f565b905092915050565b612382816116d0565b811461238d57600080fd5b50565b60008151905061239f81612379565b92915050565b6000602082840312156123bb576123ba611537565b5b60006123c984828501612390565b9150509291505056fea2646970667358221220f6fa3f76782b9c14234267ade671d0fe9b6a27de9cca03aac442c4bb233178b364736f6c63430008130033",
  "linkReferences": {},
  "deployedLinkReferences": {}
}