{
  "_format": "hh-sol-artifact-1",
  "contractName": "FileRegister",
  "sourceName": "contracts/FileRegister.sol",
  "abi": [
    {
      "inputs": [
        {
          "components": [
            {
              "internalType": "string",
              "name": "ipfsCID",
              "type": "string"
            },
            {
              "internalType": "string",
              "name": "fileName",
              "type": "string"
            },
            {
              "internalType": "address",
              "name": "owner",
              "type": "address"
            },
            {
              "internalType": "string",
              "name": "fileType",
              "type": "string"
            },
            {
              "internalType": "string",
              "name": "iv",
              "type": "string"
            }
          ],
          "internalType": "struct FileRegister.File",
          "name": "file",
          "type": "tuple"
        }
      ],
      "name": "addFile",
      "outputs": [],
      "stateMutability": "nonpayable",
      "type": "function"
    },
    {
      "inputs": [
        {
          "components": [
            {
              "internalType": "string",
              "name": "ipfsCID",
              "type": "string"
            },
            {
              "internalType": "string",
              "name": "fileName",
              "type": "string"
            },
            {
              "internalType": "address",
              "name": "owner",
              "type": "address"
            },
            {
              "internalType": "string",
              "name": "fileType",
              "type": "string"
            },
            {
              "internalType": "string",
              "name": "iv",
              "type": "string"
            }
          ],
          "internalType": "struct FileRegister.File",
          "name": "file",
          "type": "tuple"
        }
      ],
      "name": "canAddFile",
      "outputs": [
        {
          "internalType": "bool",
          "name": "",
          "type": "bool"
        }
      ],
      "stateMutability": "view",
      "type": "function"
    },
    {
      "inputs": [
        {
          "internalType": "string",
          "name": "fileIpfsCID",
          "type": "string"
        }
      ],
      "name": "fileExists",
      "outputs": [
        {
          "internalType": "bool",
          "name": "",
          "type": "bool"
        }
      ],
      "stateMutability": "view",
      "type": "function"
    },
    {
      "inputs": [
        {
          "components": [
            {
              "internalType": "string",
              "name": "ipfsCID",
              "type": "string"
            },
            {
              "internalType": "string",
              "name": "fileName",
              "type": "string"
            },
            {
              "internalType": "address",
              "name": "owner",
              "type": "address"
            },
            {
              "internalType": "string",
              "name": "fileType",
              "type": "string"
            },
            {
              "internalType": "string",
              "name": "iv",
              "type": "string"
            }
          ],
          "internalType": "struct FileRegister.File",
          "name": "file",
          "type": "tuple"
        }
      ],
      "name": "fileParamValid",
      "outputs": [
        {
          "internalType": "bool",
          "name": "",
          "type": "bool"
        }
      ],
      "stateMutability": "view",
      "type": "function"
    },
    {
      "inputs": [
        {
          "internalType": "string",
          "name": "fileIpfsCid",
          "type": "string"
        }
      ],
      "name": "getFileByIpfsCID",
      "outputs": [
        {
          "components": [
            {
              "internalType": "bool",
              "name": "success",
              "type": "bool"
            },
            {
              "components": [
                {
                  "internalType": "string",
                  "name": "ipfsCID",
                  "type": "string"
                },
                {
                  "internalType": "string",
                  "name": "fileName",
                  "type": "string"
                },
                {
                  "internalType": "address",
                  "name": "owner",
                  "type": "address"
                },
                {
                  "internalType": "string",
                  "name": "fileType",
                  "type": "string"
                },
                {
                  "internalType": "string",
                  "name": "iv",
                  "type": "string"
                }
              ],
              "internalType": "struct FileRegister.File",
              "name": "file",
              "type": "tuple"
            }
          ],
          "internalType": "struct FileRegister.ResultAction",
          "name": "",
          "type": "tuple"
        }
      ],
      "stateMutability": "view",
      "type": "function"
    },
    {
      "inputs": [
        {
          "internalType": "address",
          "name": "userAccount",
          "type": "address"
        },
        {
          "internalType": "string",
          "name": "fileIpfsCID",
          "type": "string"
        }
      ],
      "name": "userIsFileOwner",
      "outputs": [
        {
          "internalType": "bool",
          "name": "",
          "type": "bool"
        }
      ],
      "stateMutability": "view",
      "type": "function"
    }
  ],
  "bytecode": "0x608060405234801561001057600080fd5b50611191806100206000396000f3fe608060405234801561001057600080fd5b50600436106100625760003560e01c80631429ea041461006757806352a9baef146100975780639aa7f418146100c75780639bccd6ad146100e35780639f5937f814610113578063f4520b2c14610143575b600080fd5b610081600480360381019061007c9190610b75565b610173565b60405161008e9190610bd9565b60405180910390f35b6100b160048036038101906100ac9190610bf4565b6101e4565b6040516100be9190610bd9565b60405180910390f35b6100e160048036038101906100dc9190610b75565b61026e565b005b6100fd60048036038101906100f89190610c50565b61037d565b60405161010a9190610bd9565b60405180910390f35b61012d60048036038101906101289190610c50565b6103c6565b60405161013a9190610dfe565b60405180910390f35b61015d60048036038101906101589190610b75565b610781565b60405161016a9190610bd9565b60405180910390f35b60003373ffffffffffffffffffffffffffffffffffffffff16826040015173ffffffffffffffffffffffffffffffffffffffff16036101da576101b9826000015161037d565b1580156101cb57506101ca82610781565b5b156101d957600190506101df565b5b600090505b919050565b60008273ffffffffffffffffffffffffffffffffffffffff1660008360405161020d9190610e5c565b908152602001604051809103902060020160009054906101000a900473ffffffffffffffffffffffffffffffffffffffff1673ffffffffffffffffffffffffffffffffffffffff16036102635760019050610268565b600090505b92915050565b3373ffffffffffffffffffffffffffffffffffffffff16816040015173ffffffffffffffffffffffffffffffffffffffff160361037a576102ae81610173565b156103795780600082600001516040516102c89190610e5c565b908152602001604051809103902060008201518160000190816102eb9190611089565b5060208201518160010190816103019190611089565b5060408201518160020160006101000a81548173ffffffffffffffffffffffffffffffffffffffff021916908373ffffffffffffffffffffffffffffffffffffffff160217905550606082015181600301908161035e9190611089565b5060808201518160040190816103749190611089565b509050505b5b50565b6000806000836040516103909190610e5c565b908152602001604051809103902060000180546103ac90610ea2565b9050146103bc57600190506103c1565b600090505b919050565b6103ce610850565b600080836040516103df9190610e5c565b908152602001604051809103902060010180546103fb90610ea2565b905011156106e85760405180604001604052806001151581526020016000846040516104279190610e5c565b90815260200160405180910390206040518060a001604052908160008201805461045090610ea2565b80601f016020809104026020016040519081016040528092919081815260200182805461047c90610ea2565b80156104c95780601f1061049e576101008083540402835291602001916104c9565b820191906000526020600020905b8154815290600101906020018083116104ac57829003601f168201915b505050505081526020016001820180546104e290610ea2565b80601f016020809104026020016040519081016040528092919081815260200182805461050e90610ea2565b801561055b5780601f106105305761010080835404028352916020019161055b565b820191906000526020600020905b81548152906001019060200180831161053e57829003601f168201915b505050505081526020016002820160009054906101000a900473ffffffffffffffffffffffffffffffffffffffff1673ffffffffffffffffffffffffffffffffffffffff1673ffffffffffffffffffffffffffffffffffffffff1681526020016003820180546105ca90610ea2565b80601f01602080910402602001604051908101604052809291908181526020018280546105f690610ea2565b80156106435780601f1061061857610100808354040283529160200191610643565b820191906000526020600020905b81548152906001019060200180831161062657829003601f168201915b5050505050815260200160048201805461065c90610ea2565b80601f016020809104026020016040519081016040528092919081815260200182805461068890610ea2565b80156106d55780601f106106aa576101008083540402835291602001916106d5565b820191906000526020600020905b8154815290600101906020018083116106b857829003601f168201915b505050505081525050815250905061077c565b60405180604001604052806000151581526020016040518060a00160405280604051806020016040528060008152508152602001604051806020016040528060008152508152602001600073ffffffffffffffffffffffffffffffffffffffff1681526020016040518060200160405280600081525081526020016040518060200160405280600081525081525081525090505b919050565b60003373ffffffffffffffffffffffffffffffffffffffff16826040015173ffffffffffffffffffffffffffffffffffffffff1603610846576000826000015151141580156107d65750600082602001515114155b80156107e85750600082606001515114155b80156107fa5750600082608001515114155b80156108375750600073ffffffffffffffffffffffffffffffffffffffff16826040015173ffffffffffffffffffffffffffffffffffffffff1614155b15610845576001905061084b565b5b600090505b919050565b604051806040016040528060001515815260200161086c610872565b81525090565b6040518060a001604052806060815260200160608152602001600073ffffffffffffffffffffffffffffffffffffffff16815260200160608152602001606081525090565b6000604051905090565b600080fd5b600080fd5b600080fd5b6000601f19601f8301169050919050565b7f4e487b7100000000000000000000000000000000000000000000000000000000600052604160045260246000fd5b610919826108d0565b810181811067ffffffffffffffff82111715610938576109376108e1565b5b80604052505050565b600061094b6108b7565b90506109578282610910565b919050565b600080fd5b600080fd5b600080fd5b600067ffffffffffffffff821115610986576109856108e1565b5b61098f826108d0565b9050602081019050919050565b82818337600083830152505050565b60006109be6109b98461096b565b610941565b9050828152602081018484840111156109da576109d9610966565b5b6109e584828561099c565b509392505050565b600082601f830112610a0257610a01610961565b5b8135610a128482602086016109ab565b91505092915050565b600073ffffffffffffffffffffffffffffffffffffffff82169050919050565b6000610a4682610a1b565b9050919050565b610a5681610a3b565b8114610a6157600080fd5b50565b600081359050610a7381610a4d565b92915050565b600060a08284031215610a8f57610a8e6108cb565b5b610a9960a0610941565b9050600082013567ffffffffffffffff811115610ab957610ab861095c565b5b610ac5848285016109ed565b600083015250602082013567ffffffffffffffff811115610ae957610ae861095c565b5b610af5848285016109ed565b6020830152506040610b0984828501610a64565b604083015250606082013567ffffffffffffffff811115610b2d57610b2c61095c565b5b610b39848285016109ed565b606083015250608082013567ffffffffffffffff811115610b5d57610b5c61095c565b5b610b69848285016109ed565b60808301525092915050565b600060208284031215610b8b57610b8a6108c1565b5b600082013567ffffffffffffffff811115610ba957610ba86108c6565b5b610bb584828501610a79565b91505092915050565b60008115159050919050565b610bd381610bbe565b82525050565b6000602082019050610bee6000830184610bca565b92915050565b60008060408385031215610c0b57610c0a6108c1565b5b6000610c1985828601610a64565b925050602083013567ffffffffffffffff811115610c3a57610c396108c6565b5b610c46858286016109ed565b9150509250929050565b600060208284031215610c6657610c656108c1565b5b600082013567ffffffffffffffff811115610c8457610c836108c6565b5b610c90848285016109ed565b91505092915050565b610ca281610bbe565b82525050565b600081519050919050565b600082825260208201905092915050565b60005b83811015610ce2578082015181840152602081019050610cc7565b60008484015250505050565b6000610cf982610ca8565b610d038185610cb3565b9350610d13818560208601610cc4565b610d1c816108d0565b840191505092915050565b610d3081610a3b565b82525050565b600060a0830160008301518482036000860152610d538282610cee565b91505060208301518482036020860152610d6d8282610cee565b9150506040830151610d826040860182610d27565b5060608301518482036060860152610d9a8282610cee565b91505060808301518482036080860152610db48282610cee565b9150508091505092915050565b6000604083016000830151610dd96000860182610c99565b5060208301518482036020860152610df18282610d36565b9150508091505092915050565b60006020820190508181036000830152610e188184610dc1565b905092915050565b600081905092915050565b6000610e3682610ca8565b610e408185610e20565b9350610e50818560208601610cc4565b80840191505092915050565b6000610e688284610e2b565b915081905092915050565b7f4e487b7100000000000000000000000000000000000000000000000000000000600052602260045260246000fd5b60006002820490506001821680610eba57607f821691505b602082108103610ecd57610ecc610e73565b5b50919050565b60008190508160005260206000209050919050565b60006020601f8301049050919050565b600082821b905092915050565b600060088302610f357fffffffffffffffffffffffffffffffffffffffffffffffffffffffffffffffff82610ef8565b610f3f8683610ef8565b95508019841693508086168417925050509392505050565b6000819050919050565b6000819050919050565b6000610f86610f81610f7c84610f57565b610f61565b610f57565b9050919050565b6000819050919050565b610fa083610f6b565b610fb4610fac82610f8d565b848454610f05565b825550505050565b600090565b610fc9610fbc565b610fd4818484610f97565b505050565b5b81811015610ff857610fed600082610fc1565b600181019050610fda565b5050565b601f82111561103d5761100e81610ed3565b61101784610ee8565b81016020851015611026578190505b61103a61103285610ee8565b830182610fd9565b50505b505050565b600082821c905092915050565b600061106060001984600802611042565b1980831691505092915050565b6000611079838361104f565b9150826002028217905092915050565b61109282610ca8565b67ffffffffffffffff8111156110ab576110aa6108e1565b5b6110b58254610ea2565b6110c0828285610ffc565b600060209050601f8311600181146110f357600084156110e1578287015190505b6110eb858261106d565b865550611153565b601f19841661110186610ed3565b60005b8281101561112957848901518255600182019150602085019450602081019050611104565b868310156111465784890151611142601f89168261104f565b8355505b6001600288020188555050505b50505050505056fea2646970667358221220bb25fe2d065a342a301beaa2c8c82f9ceabdffea190948beeb487151d2788cad64736f6c63430008130033",
  "linkReferences": {},
  "deployedLinkReferences": {}
}