{
  "_format": "hh-sol-artifact-1",
  "contractName": "FileRegister",
  "sourceName": "contracts/FileRegister.sol",
  "abi": [
    {
      "inputs": [
        {
          "internalType": "address",
          "name": "helperContract",
          "type": "address"
        }
      ],
      "stateMutability": "nonpayable",
      "type": "constructor"
    },
    {
      "inputs": [
        {
          "components": [
            {
              "internalType": "string",
              "name": "ipfsCID",
              "type": "string"
            },
            {
              "internalType": "string",
              "name": "fileName",
              "type": "string"
            },
            {
              "internalType": "address",
              "name": "owner",
              "type": "address"
            },
            {
              "internalType": "string",
              "name": "fileType",
              "type": "string"
            },
            {
              "internalType": "string",
              "name": "iv",
              "type": "string"
            }
          ],
          "internalType": "struct FileRegister.File",
          "name": "file",
          "type": "tuple"
        }
      ],
      "name": "addFile",
      "outputs": [],
      "stateMutability": "nonpayable",
      "type": "function"
    },
    {
      "inputs": [
        {
          "components": [
            {
              "internalType": "string",
              "name": "ipfsCID",
              "type": "string"
            },
            {
              "internalType": "string",
              "name": "fileName",
              "type": "string"
            },
            {
              "internalType": "address",
              "name": "owner",
              "type": "address"
            },
            {
              "internalType": "string",
              "name": "fileType",
              "type": "string"
            },
            {
              "internalType": "string",
              "name": "iv",
              "type": "string"
            }
          ],
          "internalType": "struct FileRegister.File",
          "name": "file",
          "type": "tuple"
        }
      ],
      "name": "canAddFile",
      "outputs": [
        {
          "internalType": "bool",
          "name": "",
          "type": "bool"
        }
      ],
      "stateMutability": "view",
      "type": "function"
    },
    {
      "inputs": [
        {
          "internalType": "string",
          "name": "fileIpfsCID",
          "type": "string"
        }
      ],
      "name": "fileExists",
      "outputs": [
        {
          "internalType": "bool",
          "name": "",
          "type": "bool"
        }
      ],
      "stateMutability": "view",
      "type": "function"
    },
    {
      "inputs": [
        {
          "internalType": "string",
          "name": "fileIpfsCid",
          "type": "string"
        }
      ],
      "name": "getFileByIpfsCID",
      "outputs": [
        {
          "components": [
            {
              "internalType": "bool",
              "name": "success",
              "type": "bool"
            },
            {
              "components": [
                {
                  "internalType": "string",
                  "name": "ipfsCID",
                  "type": "string"
                },
                {
                  "internalType": "string",
                  "name": "fileName",
                  "type": "string"
                },
                {
                  "internalType": "address",
                  "name": "owner",
                  "type": "address"
                },
                {
                  "internalType": "string",
                  "name": "fileType",
                  "type": "string"
                },
                {
                  "internalType": "string",
                  "name": "iv",
                  "type": "string"
                }
              ],
              "internalType": "struct FileRegister.File",
              "name": "file",
              "type": "tuple"
            }
          ],
          "internalType": "struct FileRegister.ResultFile",
          "name": "",
          "type": "tuple"
        }
      ],
      "stateMutability": "view",
      "type": "function"
    },
    {
      "inputs": [
        {
          "internalType": "address",
          "name": "accessControlContractAddress",
          "type": "address"
        }
      ],
      "name": "setAccessControlAddress",
      "outputs": [],
      "stateMutability": "nonpayable",
      "type": "function"
    },
    {
      "inputs": [
        {
          "internalType": "address",
          "name": "userAccount",
          "type": "address"
        },
        {
          "internalType": "string",
          "name": "fileIpfsCID",
          "type": "string"
        }
      ],
      "name": "userIsFileOwner",
      "outputs": [
        {
          "internalType": "bool",
          "name": "",
          "type": "bool"
        }
      ],
      "stateMutability": "view",
      "type": "function"
    }
  ],
  "bytecode": "0x60806040523480156200001157600080fd5b5060405162001568380380620015688339818101604052810190620000379190620000e9565b80600160006101000a81548173ffffffffffffffffffffffffffffffffffffffff021916908373ffffffffffffffffffffffffffffffffffffffff160217905550506200011b565b600080fd5b600073ffffffffffffffffffffffffffffffffffffffff82169050919050565b6000620000b18262000084565b9050919050565b620000c381620000a4565b8114620000cf57600080fd5b50565b600081519050620000e381620000b8565b92915050565b6000602082840312156200010257620001016200007f565b5b60006200011284828501620000d2565b91505092915050565b61143d806200012b6000396000f3fe608060405234801561001057600080fd5b50600436106100625760003560e01c80631429ea041461006757806352a9baef146100975780639aa7f418146100c75780639bccd6ad146100e35780639f5937f814610113578063e8d56b8b14610143575b600080fd5b610081600480360381019061007c9190610cee565b61015f565b60405161008e9190610d52565b60405180910390f35b6100b160048036038101906100ac9190610d6d565b610284565b6040516100be9190610d52565b60405180910390f35b6100e160048036038101906100dc9190610cee565b610368565b005b6100fd60048036038101906100f89190610dc9565b610495565b60405161010a9190610d52565b60405180910390f35b61012d60048036038101906101289190610dc9565b610539565b60405161013a9190610f77565b60405180910390f35b61015d60048036038101906101589190610f99565b6108f4565b005b600061016e8260000151610495565b1580156102135750600160009054906101000a900473ffffffffffffffffffffffffffffffffffffffff1673ffffffffffffffffffffffffffffffffffffffff1663f4520b2c836040518263ffffffff1660e01b81526004016101d19190611051565b602060405180830381865afa1580156101ee573d6000803e3d6000fd5b505050506040513d601f19601f82011682018060405250810190610212919061109f565b5b801561026c5750600260009054906101000a900473ffffffffffffffffffffffffffffffffffffffff1673ffffffffffffffffffffffffffffffffffffffff163373ffffffffffffffffffffffffffffffffffffffff16145b1561027a576001905061027f565b600090505b919050565b60008273ffffffffffffffffffffffffffffffffffffffff166000836040516102ad9190611108565b908152602001604051809103902060020160009054906101000a900473ffffffffffffffffffffffffffffffffffffffff1673ffffffffffffffffffffffffffffffffffffffff1614801561034f5750600260009054906101000a900473ffffffffffffffffffffffffffffffffffffffff1673ffffffffffffffffffffffffffffffffffffffff163373ffffffffffffffffffffffffffffffffffffffff16145b1561035d5760019050610362565b600090505b92915050565b600260009054906101000a900473ffffffffffffffffffffffffffffffffffffffff1673ffffffffffffffffffffffffffffffffffffffff163373ffffffffffffffffffffffffffffffffffffffff1603610492576103c68161015f565b156104915780600082600001516040516103e09190611108565b908152602001604051809103902060008201518160000190816104039190611335565b5060208201518160010190816104199190611335565b5060408201518160020160006101000a81548173ffffffffffffffffffffffffffffffffffffffff021916908373ffffffffffffffffffffffffffffffffffffffff16021790555060608201518160030190816104769190611335565b50608082015181600401908161048c9190611335565b509050505b5b50565b6000806000836040516104a89190611108565b908152602001604051809103902060000180546104c49061114e565b9050141580156105215750600260009054906101000a900473ffffffffffffffffffffffffffffffffffffffff1673ffffffffffffffffffffffffffffffffffffffff163373ffffffffffffffffffffffffffffffffffffffff16145b1561052f5760019050610534565b600090505b919050565b6105416109c9565b600080836040516105529190611108565b9081526020016040518091039020600101805461056e9061114e565b9050111561085b57604051806040016040528060011515815260200160008460405161059a9190611108565b90815260200160405180910390206040518060a00160405290816000820180546105c39061114e565b80601f01602080910402602001604051908101604052809291908181526020018280546105ef9061114e565b801561063c5780601f106106115761010080835404028352916020019161063c565b820191906000526020600020905b81548152906001019060200180831161061f57829003601f168201915b505050505081526020016001820180546106559061114e565b80601f01602080910402602001604051908101604052809291908181526020018280546106819061114e565b80156106ce5780601f106106a3576101008083540402835291602001916106ce565b820191906000526020600020905b8154815290600101906020018083116106b157829003601f168201915b505050505081526020016002820160009054906101000a900473ffffffffffffffffffffffffffffffffffffffff1673ffffffffffffffffffffffffffffffffffffffff1673ffffffffffffffffffffffffffffffffffffffff16815260200160038201805461073d9061114e565b80601f01602080910402602001604051908101604052809291908181526020018280546107699061114e565b80156107b65780601f1061078b576101008083540402835291602001916107b6565b820191906000526020600020905b81548152906001019060200180831161079957829003601f168201915b505050505081526020016004820180546107cf9061114e565b80601f01602080910402602001604051908101604052809291908181526020018280546107fb9061114e565b80156108485780601f1061081d57610100808354040283529160200191610848565b820191906000526020600020905b81548152906001019060200180831161082b57829003601f168201915b50505050508152505081525090506108ef565b60405180604001604052806000151581526020016040518060a00160405280604051806020016040528060008152508152602001604051806020016040528060008152508152602001600073ffffffffffffffffffffffffffffffffffffffff1681526020016040518060200160405280600081525081526020016040518060200160405280600081525081525081525090505b919050565b600073ffffffffffffffffffffffffffffffffffffffff168173ffffffffffffffffffffffffffffffffffffffff161415801561097f5750600073ffffffffffffffffffffffffffffffffffffffff16600260009054906101000a900473ffffffffffffffffffffffffffffffffffffffff1673ffffffffffffffffffffffffffffffffffffffff16145b156109c65780600260006101000a81548173ffffffffffffffffffffffffffffffffffffffff021916908373ffffffffffffffffffffffffffffffffffffffff1602179055505b50565b60405180604001604052806000151581526020016109e56109eb565b81525090565b6040518060a001604052806060815260200160608152602001600073ffffffffffffffffffffffffffffffffffffffff16815260200160608152602001606081525090565b6000604051905090565b600080fd5b600080fd5b600080fd5b6000601f19601f8301169050919050565b7f4e487b7100000000000000000000000000000000000000000000000000000000600052604160045260246000fd5b610a9282610a49565b810181811067ffffffffffffffff82111715610ab157610ab0610a5a565b5b80604052505050565b6000610ac4610a30565b9050610ad08282610a89565b919050565b600080fd5b600080fd5b600080fd5b600067ffffffffffffffff821115610aff57610afe610a5a565b5b610b0882610a49565b9050602081019050919050565b82818337600083830152505050565b6000610b37610b3284610ae4565b610aba565b905082815260208101848484011115610b5357610b52610adf565b5b610b5e848285610b15565b509392505050565b600082601f830112610b7b57610b7a610ada565b5b8135610b8b848260208601610b24565b91505092915050565b600073ffffffffffffffffffffffffffffffffffffffff82169050919050565b6000610bbf82610b94565b9050919050565b610bcf81610bb4565b8114610bda57600080fd5b50565b600081359050610bec81610bc6565b92915050565b600060a08284031215610c0857610c07610a44565b5b610c1260a0610aba565b9050600082013567ffffffffffffffff811115610c3257610c31610ad5565b5b610c3e84828501610b66565b600083015250602082013567ffffffffffffffff811115610c6257610c61610ad5565b5b610c6e84828501610b66565b6020830152506040610c8284828501610bdd565b604083015250606082013567ffffffffffffffff811115610ca657610ca5610ad5565b5b610cb284828501610b66565b606083015250608082013567ffffffffffffffff811115610cd657610cd5610ad5565b5b610ce284828501610b66565b60808301525092915050565b600060208284031215610d0457610d03610a3a565b5b600082013567ffffffffffffffff811115610d2257610d21610a3f565b5b610d2e84828501610bf2565b91505092915050565b60008115159050919050565b610d4c81610d37565b82525050565b6000602082019050610d676000830184610d43565b92915050565b60008060408385031215610d8457610d83610a3a565b5b6000610d9285828601610bdd565b925050602083013567ffffffffffffffff811115610db357610db2610a3f565b5b610dbf85828601610b66565b9150509250929050565b600060208284031215610ddf57610dde610a3a565b5b600082013567ffffffffffffffff811115610dfd57610dfc610a3f565b5b610e0984828501610b66565b91505092915050565b610e1b81610d37565b82525050565b600081519050919050565b600082825260208201905092915050565b60005b83811015610e5b578082015181840152602081019050610e40565b60008484015250505050565b6000610e7282610e21565b610e7c8185610e2c565b9350610e8c818560208601610e3d565b610e9581610a49565b840191505092915050565b610ea981610bb4565b82525050565b600060a0830160008301518482036000860152610ecc8282610e67565b91505060208301518482036020860152610ee68282610e67565b9150506040830151610efb6040860182610ea0565b5060608301518482036060860152610f138282610e67565b91505060808301518482036080860152610f2d8282610e67565b9150508091505092915050565b6000604083016000830151610f526000860182610e12565b5060208301518482036020860152610f6a8282610eaf565b9150508091505092915050565b60006020820190508181036000830152610f918184610f3a565b905092915050565b600060208284031215610faf57610fae610a3a565b5b6000610fbd84828501610bdd565b91505092915050565b600060a0830160008301518482036000860152610fe38282610e67565b91505060208301518482036020860152610ffd8282610e67565b91505060408301516110126040860182610ea0565b506060830151848203606086015261102a8282610e67565b915050608083015184820360808601526110448282610e67565b9150508091505092915050565b6000602082019050818103600083015261106b8184610fc6565b905092915050565b61107c81610d37565b811461108757600080fd5b50565b60008151905061109981611073565b92915050565b6000602082840312156110b5576110b4610a3a565b5b60006110c38482850161108a565b91505092915050565b600081905092915050565b60006110e282610e21565b6110ec81856110cc565b93506110fc818560208601610e3d565b80840191505092915050565b600061111482846110d7565b915081905092915050565b7f4e487b7100000000000000000000000000000000000000000000000000000000600052602260045260246000fd5b6000600282049050600182168061116657607f821691505b6020821081036111795761117861111f565b5b50919050565b60008190508160005260206000209050919050565b60006020601f8301049050919050565b600082821b905092915050565b6000600883026111e17fffffffffffffffffffffffffffffffffffffffffffffffffffffffffffffffff826111a4565b6111eb86836111a4565b95508019841693508086168417925050509392505050565b6000819050919050565b6000819050919050565b600061123261122d61122884611203565b61120d565b611203565b9050919050565b6000819050919050565b61124c83611217565b61126061125882611239565b8484546111b1565b825550505050565b600090565b611275611268565b611280818484611243565b505050565b5b818110156112a45761129960008261126d565b600181019050611286565b5050565b601f8211156112e9576112ba8161117f565b6112c384611194565b810160208510156112d2578190505b6112e66112de85611194565b830182611285565b50505b505050565b600082821c905092915050565b600061130c600019846008026112ee565b1980831691505092915050565b600061132583836112fb565b9150826002028217905092915050565b61133e82610e21565b67ffffffffffffffff81111561135757611356610a5a565b5b611361825461114e565b61136c8282856112a8565b600060209050601f83116001811461139f576000841561138d578287015190505b6113978582611319565b8655506113ff565b601f1984166113ad8661117f565b60005b828110156113d5578489015182556001820191506020850194506020810190506113b0565b868310156113f257848901516113ee601f8916826112fb565b8355505b6001600288020188555050505b50505050505056fea2646970667358221220a9f786f809820145e5dac62e2e795d0dc71037a37d4c827a606eb8c186833bad64736f6c63430008130033",
  "linkReferences": {},
  "deployedLinkReferences": {}
}