{
  "_format": "hh-sol-artifact-1",
  "contractName": "AccessControl",
  "sourceName": "contracts/AccessControl.sol",
  "abi": [
    {
      "inputs": [
        {
          "internalType": "address",
          "name": "helperContract",
          "type": "address"
        }
      ],
      "stateMutability": "nonpayable",
      "type": "constructor"
    },
    {
      "anonymous": false,
      "inputs": [
        {
          "indexed": true,
          "internalType": "address",
          "name": "userAccount",
          "type": "address"
        },
        {
          "indexed": false,
          "internalType": "string",
          "name": "fileIpfsCID",
          "type": "string"
        },
        {
          "indexed": false,
          "internalType": "string",
          "name": "permissionsOwner",
          "type": "string"
        },
        {
          "indexed": false,
          "internalType": "string",
          "name": "action",
          "type": "string"
        }
      ],
      "name": "FileActionLog",
      "type": "event"
    },
    {
      "inputs": [
        {
          "internalType": "address",
          "name": "userAccount",
          "type": "address"
        },
        {
          "internalType": "string",
          "name": "fileIpfsCid",
          "type": "string"
        }
      ],
      "name": "deactivateFileUserAssociation",
      "outputs": [],
      "stateMutability": "nonpayable",
      "type": "function"
    },
    {
      "inputs": [
        {
          "internalType": "string",
          "name": "fileIpfsCid",
          "type": "string"
        },
        {
          "internalType": "address",
          "name": "userAccount",
          "type": "address"
        }
      ],
      "name": "downloadFileAudit",
      "outputs": [],
      "stateMutability": "nonpayable",
      "type": "function"
    },
    {
      "inputs": [
        {
          "internalType": "address",
          "name": "userAccount",
          "type": "address"
        },
        {
          "internalType": "string",
          "name": "fileIpfsCID",
          "type": "string"
        }
      ],
      "name": "elegibleToShare",
      "outputs": [
        {
          "internalType": "bool",
          "name": "",
          "type": "bool"
        }
      ],
      "stateMutability": "view",
      "type": "function"
    },
    {
      "inputs": [
        {
          "internalType": "address",
          "name": "userAccount",
          "type": "address"
        },
        {
          "internalType": "string",
          "name": "fileIpfsCID",
          "type": "string"
        }
      ],
      "name": "elegibleToUpdPermissions",
      "outputs": [
        {
          "internalType": "bool",
          "name": "",
          "type": "bool"
        }
      ],
      "stateMutability": "view",
      "type": "function"
    },
    {
      "inputs": [
        {
          "internalType": "address",
          "name": "userAccount",
          "type": "address"
        },
        {
          "internalType": "string",
          "name": "fileIpfsCID",
          "type": "string"
        }
      ],
      "name": "elegibleToUpload",
      "outputs": [
        {
          "internalType": "bool",
          "name": "",
          "type": "bool"
        }
      ],
      "stateMutability": "view",
      "type": "function"
    },
    {
      "inputs": [],
      "name": "getAuditLogControlAddress",
      "outputs": [
        {
          "internalType": "address",
          "name": "",
          "type": "address"
        }
      ],
      "stateMutability": "view",
      "type": "function"
    },
    {
      "inputs": [
        {
          "internalType": "address",
          "name": "accountUser",
          "type": "address"
        },
        {
          "internalType": "string",
          "name": "fileIpfsCID",
          "type": "string"
        }
      ],
      "name": "getEncSymmetricKeyFileUser",
      "outputs": [
        {
          "components": [
            {
              "internalType": "bool",
              "name": "success",
              "type": "bool"
            },
            {
              "internalType": "string",
              "name": "resultString",
              "type": "string"
            }
          ],
          "internalType": "struct Helper.ResultString",
          "name": "",
          "type": "tuple"
        }
      ],
      "stateMutability": "view",
      "type": "function"
    },
    {
      "inputs": [],
      "name": "getFileRegisterAddress",
      "outputs": [
        {
          "internalType": "address",
          "name": "",
          "type": "address"
        }
      ],
      "stateMutability": "view",
      "type": "function"
    },
    {
      "inputs": [
        {
          "internalType": "string",
          "name": "fileIpfsCid",
          "type": "string"
        }
      ],
      "name": "getFileState",
      "outputs": [
        {
          "components": [
            {
              "internalType": "bool",
              "name": "success",
              "type": "bool"
            },
            {
              "internalType": "string",
              "name": "resultString",
              "type": "string"
            }
          ],
          "internalType": "struct Helper.ResultString",
          "name": "",
          "type": "tuple"
        }
      ],
      "stateMutability": "view",
      "type": "function"
    },
    {
      "inputs": [
        {
          "internalType": "address",
          "name": "userAccount",
          "type": "address"
        },
        {
          "internalType": "string",
          "name": "fileIpfsCID",
          "type": "string"
        }
      ],
      "name": "getPermissionsOverFile",
      "outputs": [
        {
          "components": [
            {
              "internalType": "bool",
              "name": "success",
              "type": "bool"
            },
            {
              "internalType": "string[]",
              "name": "resultStrings",
              "type": "string[]"
            }
          ],
          "internalType": "struct Helper.ResultStringArray",
          "name": "",
          "type": "tuple"
        }
      ],
      "stateMutability": "view",
      "type": "function"
    },
    {
      "inputs": [
        {
          "internalType": "address",
          "name": "account",
          "type": "address"
        },
        {
          "internalType": "string",
          "name": "state",
          "type": "string"
        }
      ],
      "name": "getUserFiles",
      "outputs": [
        {
          "components": [
            {
              "internalType": "bool",
              "name": "success",
              "type": "bool"
            },
            {
              "components": [
                {
                  "internalType": "string",
                  "name": "ipfsCID",
                  "type": "string"
                },
                {
                  "internalType": "string",
                  "name": "fileName",
                  "type": "string"
                },
                {
                  "internalType": "address",
                  "name": "owner",
                  "type": "address"
                },
                {
                  "internalType": "string",
                  "name": "fileType",
                  "type": "string"
                },
                {
                  "internalType": "string",
                  "name": "iv",
                  "type": "string"
                }
              ],
              "internalType": "struct FileRegister.File[]",
              "name": "files",
              "type": "tuple[]"
            }
          ],
          "internalType": "struct FileRegister.ResultFiles",
          "name": "",
          "type": "tuple"
        }
      ],
      "stateMutability": "view",
      "type": "function"
    },
    {
      "inputs": [],
      "name": "getUserRegisterAddress",
      "outputs": [
        {
          "internalType": "address",
          "name": "",
          "type": "address"
        }
      ],
      "stateMutability": "view",
      "type": "function"
    },
    {
      "inputs": [
        {
          "internalType": "address",
          "name": "accountInput",
          "type": "address"
        },
        {
          "internalType": "address",
          "name": "accountList",
          "type": "address"
        },
        {
          "internalType": "string",
          "name": "ipfsCIDInput",
          "type": "string"
        },
        {
          "internalType": "string",
          "name": "ipfsCIDList",
          "type": "string"
        }
      ],
      "name": "isKeyEqual",
      "outputs": [
        {
          "internalType": "bool",
          "name": "",
          "type": "bool"
        }
      ],
      "stateMutability": "pure",
      "type": "function"
    },
    {
      "inputs": [
        {
          "internalType": "string",
          "name": "fileIpfsCID",
          "type": "string"
        }
      ],
      "name": "messageSenderAssociatedToFile",
      "outputs": [
        {
          "internalType": "bool",
          "name": "",
          "type": "bool"
        }
      ],
      "stateMutability": "view",
      "type": "function"
    },
    {
      "inputs": [
        {
          "internalType": "address",
          "name": "userAccount",
          "type": "address"
        },
        {
          "internalType": "string",
          "name": "fileIpfsCID",
          "type": "string"
        },
        {
          "internalType": "string",
          "name": "encSymmetricKey",
          "type": "string"
        },
        {
          "internalType": "string[]",
          "name": "permissions",
          "type": "string[]"
        }
      ],
      "name": "shareFile",
      "outputs": [],
      "stateMutability": "nonpayable",
      "type": "function"
    },
    {
      "inputs": [
        {
          "internalType": "address",
          "name": "userAccount",
          "type": "address"
        },
        {
          "internalType": "string",
          "name": "fileIpfsCID",
          "type": "string"
        },
        {
          "internalType": "string[]",
          "name": "permissions",
          "type": "string[]"
        }
      ],
      "name": "updateUserFilePermissions",
      "outputs": [],
      "stateMutability": "nonpayable",
      "type": "function"
    },
    {
      "inputs": [
        {
          "internalType": "address",
          "name": "userAccount",
          "type": "address"
        },
        {
          "components": [
            {
              "internalType": "string",
              "name": "ipfsCID",
              "type": "string"
            },
            {
              "internalType": "string",
              "name": "fileName",
              "type": "string"
            },
            {
              "internalType": "address",
              "name": "owner",
              "type": "address"
            },
            {
              "internalType": "string",
              "name": "fileType",
              "type": "string"
            },
            {
              "internalType": "string",
              "name": "iv",
              "type": "string"
            }
          ],
          "internalType": "struct FileRegister.File",
          "name": "file",
          "type": "tuple"
        },
        {
          "internalType": "string",
          "name": "encSymmetricKey",
          "type": "string"
        }
      ],
      "name": "uploadFile",
      "outputs": [],
      "stateMutability": "nonpayable",
      "type": "function"
    },
    {
      "inputs": [
        {
          "internalType": "address",
          "name": "userAccount",
          "type": "address"
        },
        {
          "internalType": "string",
          "name": "fileIpfsCID",
          "type": "string"
        }
      ],
      "name": "userAssociatedWithFile",
      "outputs": [
        {
          "internalType": "bool",
          "name": "",
          "type": "bool"
        }
      ],
      "stateMutability": "view",
      "type": "function"
    },
    {
      "inputs": [
        {
          "internalType": "address",
          "name": "userAccount",
          "type": "address"
        },
        {
          "internalType": "string",
          "name": "fileIpfsCID",
          "type": "string"
        },
        {
          "internalType": "string",
          "name": "permission",
          "type": "string"
        }
      ],
      "name": "userHasPermissionOverFile",
      "outputs": [
        {
          "internalType": "bool",
          "name": "",
          "type": "bool"
        }
      ],
      "stateMutability": "view",
      "type": "function"
    }
  ],
  "bytecode": "0x60806040523480156200001157600080fd5b5060405162008ce638038062008ce683398181016040528101906200003791906200028c565b80600460006101000a81548173ffffffffffffffffffffffffffffffffffffffff021916908373ffffffffffffffffffffffffffffffffffffffff160217905550806040516200008790620001f8565b620000939190620002cf565b604051809103906000f080158015620000b0573d6000803e3d6000fd5b50600160006101000a81548173ffffffffffffffffffffffffffffffffffffffff021916908373ffffffffffffffffffffffffffffffffffffffff16021790555080604051620001009062000206565b6200010c9190620002cf565b604051809103906000f08015801562000129573d6000803e3d6000fd5b50600260006101000a81548173ffffffffffffffffffffffffffffffffffffffff021916908373ffffffffffffffffffffffffffffffffffffffff160217905550604051620001789062000214565b604051809103906000f08015801562000195573d6000803e3d6000fd5b50600360006101000a81548173ffffffffffffffffffffffffffffffffffffffff021916908373ffffffffffffffffffffffffffffffffffffffff1602179055506000600460146101000a81548160ff02191690831515021790555050620002ec565b611568806200489183390190565b611a6a8062005df983390190565b611483806200786383390190565b600080fd5b600073ffffffffffffffffffffffffffffffffffffffff82169050919050565b6000620002548262000227565b9050919050565b620002668162000247565b81146200027257600080fd5b50565b60008151905062000286816200025b565b92915050565b600060208284031215620002a557620002a462000222565b5b6000620002b58482850162000275565b91505092915050565b620002c98162000247565b82525050565b6000602082019050620002e66000830184620002be565b92915050565b61459580620002fc6000396000f3fe608060405234801561001057600080fd5b506004361061011f5760003560e01c80635c99c71b116100ad578063a126d94c11610071578063a126d94c1461033c578063b58ea3a21461036c578063b6d234df1461039c578063b714fb20146103cc578063dee63aa1146103ea5761011f565b80635c99c71b146102985780635dab19e4146102c857806367cc916b146102e6578063874a22ed146103025780638af34fbc146103205761011f565b80631ac47dd0116100f45780631ac47dd0146101d05780632321f3181461020057806325b97d6c14610230578063299768c81461024c5780635784be731461027c5761011f565b8062438ceb14610124578062c5e614146101545780630976372714610170578063173cd558146101a0575b600080fd5b61013e60048036038101906101399190612cf4565b61041a565b60405161014b9190612e14565b60405180910390f35b61016e60048036038101906101699190612f7a565b6105c8565b005b61018a60048036038101906101859190613035565b61090a565b604051610197919061322a565b60405180910390f35b6101ba60048036038101906101b59190613035565b610d42565b6040516101c7919061334b565b60405180910390f35b6101ea60048036038101906101e59190613035565b611064565b6040516101f7919061337c565b60405180910390f35b61021a60048036038101906102159190613035565b611209565b604051610227919061337c565b60405180910390f35b61024a6004803603810190610245919061349d565b6113a4565b005b61026660048036038101906102619190612cf4565b6118d5565b604051610273919061337c565b60405180910390f35b61029660048036038101906102919190613035565b611a15565b005b6102b260048036038101906102ad9190613528565b611d12565b6040516102bf919061337c565b60405180910390f35b6102d0611da4565b6040516102dd91906135d6565b60405180910390f35b61030060048036038101906102fb91906135f1565b611dce565b005b61030a611f41565b60405161031791906135d6565b60405180910390f35b61033a6004803603810190610335919061364d565b611f6b565b005b61035660048036038101906103519190613035565b61221b565b6040516103639190612e14565b60405180910390f35b61038660048036038101906103819190613035565b6124ef565b604051610393919061337c565b60405180910390f35b6103b660048036038101906103b191906136d8565b6127e5565b6040516103c3919061337c565b60405180910390f35b6103d46128fc565b6040516103e191906135d6565b60405180910390f35b61040460048036038101906103ff9190613035565b612926565b604051610411919061337c565b60405180910390f35b610422612a27565b61042b826118d5565b156105995760005b6000805490508110156105975782604051602001610451919061379f565b604051602081830303815290604052805190602001206000828154811061047b5761047a6137b6565b5b906000526020600020906005020160010160405160200161049c91906138dd565b6040516020818303038152906040528051906020012003610584576040518060400160405280600115158152602001600083815481106104df576104de6137b6565b5b906000526020600020906005020160040180546104fb90613814565b80601f016020809104026020016040519081016040528092919081815260200182805461052790613814565b80156105745780601f1061054957610100808354040283529160200191610574565b820191906000526020600020905b81548152906001019060200180831161055757829003601f168201915b50505050508152509150506105c3565b808061058f9061392d565b915050610433565b505b60405180604001604052806000151581526020016040518060200160405280600081525081525090505b919050565b6105d284846124ef565b15610904576000600460009054906101000a900473ffffffffffffffffffffffffffffffffffffffff1673ffffffffffffffffffffffffffffffffffffffff1663c1f69fd6868686866040518563ffffffff1660e01b815260040161063a9493929190613a45565b602060405180830381865afa158015610657573d6000803e3d6000fd5b505050506040513d601f19601f8201168201806040525081019061067b9190613acb565b905080156109025760006040518060a001604052808773ffffffffffffffffffffffffffffffffffffffff1681526020018681526020018581526020018481526020016040518060400160405280600681526020017f61637469766500000000000000000000000000000000000000000000000000008152508152509050600081908060018154018082558091505060019003906000526020600020906005020160009091909190915060008201518160000160006101000a81548173ffffffffffffffffffffffffffffffffffffffff021916908373ffffffffffffffffffffffffffffffffffffffff16021790555060208201518160010190816107819190613c8f565b5060408201518160020190816107979190613c8f565b5060608201518160030190805190602001906107b4929190612a43565b5060808201518160040190816107ca9190613c8f565b505050600360009054906101000a900473ffffffffffffffffffffffffffffffffffffffff1673ffffffffffffffffffffffffffffffffffffffff1663c47ebddc338789600460009054906101000a900473ffffffffffffffffffffffffffffffffffffffff1673ffffffffffffffffffffffffffffffffffffffff16636bb8d768896040518263ffffffff1660e01b81526004016108699190613d61565b600060405180830381865afa158015610886573d6000803e3d6000fd5b505050506040513d6000823e3d601f19601f820116820180604052508101906108af9190613df3565b6040518563ffffffff1660e01b81526004016108ce9493929190613e88565b600060405180830381600087803b1580156108e857600080fd5b505af11580156108fc573d6000803e3d6000fd5b50505050505b505b50505050565b610912612a9c565b8273ffffffffffffffffffffffffffffffffffffffff163373ffffffffffffffffffffffffffffffffffffffff1603610ccd576000808054905067ffffffffffffffff81111561096557610964612bc9565b5b60405190808252806020026020018201604052801561099e57816020015b61098b612ab8565b8152602001906001900390816109835790505b5090506000805b600080549050811015610c9d578573ffffffffffffffffffffffffffffffffffffffff16600082815481106109dd576109dc6137b6565b5b906000526020600020906005020160000160009054906101000a900473ffffffffffffffffffffffffffffffffffffffff1673ffffffffffffffffffffffffffffffffffffffff16148015610af5575060008181548110610a4157610a406137b6565b5b9060005260206000209060050201600401604051602001610a6291906138dd565b6040516020818303038152906040528051906020012085604051602001610a89919061379f565b604051602081830303815290604052805190602001201480610af45750604051602001610ab590613f14565b6040516020818303038152906040528051906020012085604051602001610adc919061379f565b60405160208183030381529060405280519060200120145b5b15610c8a576000808281548110610b0f57610b0e6137b6565b5b90600052602060002090600502016001018054610b2b90613814565b80601f0160208091040260200160405190810160405280929190818152602001828054610b5790613814565b8015610ba45780601f10610b7957610100808354040283529160200191610ba4565b820191906000526020600020905b815481529060010190602001808311610b8757829003601f168201915b505050505090506000600160009054906101000a900473ffffffffffffffffffffffffffffffffffffffff1673ffffffffffffffffffffffffffffffffffffffff16639f5937f8836040518263ffffffff1660e01b8152600401610c089190613f29565b600060405180830381865afa158015610c25573d6000803e3d6000fd5b505050506040513d6000823e3d601f19601f82011682018060405250810190610c4e91906140c8565b905060008160200151905080868681518110610c6d57610c6c6137b6565b5b60200260200101819052508480610c839061392d565b9550505050505b8080610c959061392d565b9150506109a5565b5080825260008114610cca5760405180604001604052806001151581526020018381525092505050610d3c565b50505b6040518060400160405280600015158152602001600067ffffffffffffffff811115610cfc57610cfb612bc9565b5b604051908082528060200260200182016040528015610d3557816020015b610d22612ab8565b815260200190600190039081610d1a5790505b5081525090505b92915050565b610d4a612afd565b610d53826118d5565b8015610db45750604051602001610d699061415d565b60405160208183030381529060405280519060200120610d888361041a565b60200151604051602001610d9c919061379f565b60405160208183030381529060405280519060200120145b15610ff55760005b600080549050811015610ff357610ec78460008381548110610de157610de06137b6565b5b906000526020600020906005020160000160009054906101000a900473ffffffffffffffffffffffffffffffffffffffff168560008581548110610e2857610e276137b6565b5b90600052602060002090600502016001018054610e4490613814565b80601f0160208091040260200160405190810160405280929190818152602001828054610e7090613814565b8015610ebd5780601f10610e9257610100808354040283529160200191610ebd565b820191906000526020600020905b815481529060010190602001808311610ea057829003601f168201915b5050505050611d12565b15610fe057604051806040016040528060011515815260200160008381548110610ef457610ef36137b6565b5b9060005260206000209060050201600301805480602002602001604051908101604052809291908181526020016000905b82821015610fd1578382906000526020600020018054610f4490613814565b80601f0160208091040260200160405190810160405280929190818152602001828054610f7090613814565b8015610fbd5780601f10610f9257610100808354040283529160200191610fbd565b820191906000526020600020905b815481529060010190602001808311610fa057829003601f168201915b505050505081526020019060010190610f25565b5050505081525091505061105e565b8080610feb9061392d565b915050610dbc565b505b6040518060400160405280600015158152602001600067ffffffffffffffff81111561102457611023612bc9565b5b60405190808252806020026020018201604052801561105757816020015b60608152602001906001900390816110425790505b5081525090505b92915050565b600061106f826118d5565b806110c75750600360009054906101000a900473ffffffffffffffffffffffffffffffffffffffff1673ffffffffffffffffffffffffffffffffffffffff163373ffffffffffffffffffffffffffffffffffffffff16145b156111fe5760005b6000805490508110156111fc576111da84600083815481106110f4576110f36137b6565b5b906000526020600020906005020160000160009054906101000a900473ffffffffffffffffffffffffffffffffffffffff16856000858154811061113b5761113a6137b6565b5b9060005260206000209060050201600101805461115790613814565b80601f016020809104026020016040519081016040528092919081815260200182805461118390613814565b80156111d05780601f106111a5576101008083540402835291602001916111d0565b820191906000526020600020905b8154815290600101906020018083116111b357829003601f168201915b5050505050611d12565b156111e9576001915050611203565b80806111f49061392d565b9150506110cf565b505b600090505b92915050565b60008273ffffffffffffffffffffffffffffffffffffffff163373ffffffffffffffffffffffffffffffffffffffff16141580156112e25750600160009054906101000a900473ffffffffffffffffffffffffffffffffffffffff1673ffffffffffffffffffffffffffffffffffffffff166352a9baef84846040518363ffffffff1660e01b815260040161129f929190614172565b602060405180830381865afa1580156112bc573d6000803e3d6000fd5b505050506040513d601f19601f820116820180604052508101906112e09190613acb565b155b801561132a575061132933836040518060400160405280600581526020017f73686172650000000000000000000000000000000000000000000000000000008152506127e5565b5b801561138b57506040516020016113409061415d565b6040516020818303038152906040528051906020012061135f8361041a565b60200151604051602001611373919061379f565b60405160208183030381529060405280519060200120145b15611399576001905061139e565b600090505b92915050565b6113b2838360000151612926565b156118d0576000600367ffffffffffffffff8111156113d4576113d3612bc9565b5b60405190808252806020026020018201604052801561140757816020015b60608152602001906001900390816113f25790505b5090506040518060400160405280600581526020017f736861726500000000000000000000000000000000000000000000000000000081525081600081518110611454576114536137b6565b5b60200260200101819052506040518060400160405280600881526020017f646f776e6c6f6164000000000000000000000000000000000000000000000000815250816001815181106114a9576114a86137b6565b5b60200260200101819052506040518060400160405280600681526020017f64656c6574650000000000000000000000000000000000000000000000000000815250816002815181106114fe576114fd6137b6565b5b60200260200101819052506000600460009054906101000a900473ffffffffffffffffffffffffffffffffffffffff1673ffffffffffffffffffffffffffffffffffffffff1663c1f69fd686866000015186866040518563ffffffff1660e01b81526004016115709493929190613a45565b602060405180830381865afa15801561158d573d6000803e3d6000fd5b505050506040513d601f19601f820116820180604052508101906115b19190613acb565b905080156118cd57600160009054906101000a900473ffffffffffffffffffffffffffffffffffffffff1673ffffffffffffffffffffffffffffffffffffffff16639aa7f418856040518263ffffffff1660e01b8152600401611614919061422d565b600060405180830381600087803b15801561162e57600080fd5b505af1158015611642573d6000803e3d6000fd5b5050505060006040518060a001604052808773ffffffffffffffffffffffffffffffffffffffff168152602001866000015181526020018581526020018481526020016040518060400160405280600681526020017f61637469766500000000000000000000000000000000000000000000000000008152508152509050600081908060018154018082558091505060019003906000526020600020906005020160009091909190915060008201518160000160006101000a81548173ffffffffffffffffffffffffffffffffffffffff021916908373ffffffffffffffffffffffffffffffffffffffff16021790555060208201518160010190816117489190613c8f565b50604082015181600201908161175e9190613c8f565b50606082015181600301908051906020019061177b929190612a43565b5060808201518160040190816117919190613c8f565b505050600360009054906101000a900473ffffffffffffffffffffffffffffffffffffffff1673ffffffffffffffffffffffffffffffffffffffff1663c47ebddc33876000015189600460009054906101000a900473ffffffffffffffffffffffffffffffffffffffff1673ffffffffffffffffffffffffffffffffffffffff16636bb8d768896040518263ffffffff1660e01b81526004016118349190613d61565b600060405180830381865afa158015611851573d6000803e3d6000fd5b505050506040513d6000823e3d601f19601f8201168201806040525081019061187a9190613df3565b6040518563ffffffff1660e01b8152600401611899949392919061429b565b600060405180830381600087803b1580156118b357600080fd5b505af11580156118c7573d6000803e3d6000fd5b50505050505b50505b505050565b600080600090505b600080549050811015611a0a576119e83360008381548110611902576119016137b6565b5b906000526020600020906005020160000160009054906101000a900473ffffffffffffffffffffffffffffffffffffffff168560008581548110611949576119486137b6565b5b9060005260206000209060050201600101805461196590613814565b80601f016020809104026020016040519081016040528092919081815260200182805461199190613814565b80156119de5780601f106119b3576101008083540402835291602001916119de565b820191906000526020600020905b8154815290600101906020018083116119c157829003601f168201915b5050505050611d12565b156119f7576001915050611a10565b8080611a029061392d565b9150506118dd565b50600090505b919050565b611a5533826040518060400160405280600681526020017f64656c65746500000000000000000000000000000000000000000000000000008152506127e5565b8015611af95750600160009054906101000a900473ffffffffffffffffffffffffffffffffffffffff1673ffffffffffffffffffffffffffffffffffffffff16639bccd6ad826040518263ffffffff1660e01b8152600401611ab79190613f29565b602060405180830381865afa158015611ad4573d6000803e3d6000fd5b505050506040513d601f19601f82011682018060405250810190611af89190613acb565b5b15611d0e5760005b600080549050811015611c7b5781604051602001611b1f919061379f565b6040516020818303038152906040528051906020012060008281548110611b4957611b486137b6565b5b9060005260206000209060050201600101604051602001611b6a91906138dd565b60405160208183030381529060405280519060200120148015611bfa5750604051602001611b979061415d565b6040516020818303038152906040528051906020012060008281548110611bc157611bc06137b6565b5b9060005260206000209060050201600401604051602001611be291906138dd565b60405160208183030381529060405280519060200120145b15611c68576040518060400160405280600881526020017f646561637469766500000000000000000000000000000000000000000000000081525060008281548110611c4957611c486137b6565b5b90600052602060002090600502016004019081611c669190613c8f565b505b8080611c739061392d565b915050611b01565b50600360009054906101000a900473ffffffffffffffffffffffffffffffffffffffff1673ffffffffffffffffffffffffffffffffffffffff1663c47ebddc3383856040518463ffffffff1660e01b8152600401611cdb93929190614399565b600060405180830381600087803b158015611cf557600080fd5b505af1158015611d09573d6000803e3d6000fd5b505050505b5050565b60008473ffffffffffffffffffffffffffffffffffffffff168473ffffffffffffffffffffffffffffffffffffffff16148015611d9a575082604051602001611d5b919061379f565b6040516020818303038152906040528051906020012082604051602001611d82919061379f565b60405160208183030381529060405280519060200120145b9050949350505050565b6000600160009054906101000a900473ffffffffffffffffffffffffffffffffffffffff16905090565b8073ffffffffffffffffffffffffffffffffffffffff163373ffffffffffffffffffffffffffffffffffffffff16148015611e455750611e4481836040518060400160405280600881526020017f646f776e6c6f61640000000000000000000000000000000000000000000000008152506127e5565b5b8015611ea65750604051602001611e5b9061415d565b60405160208183030381529060405280519060200120611e7a8361041a565b60200151604051602001611e8e919061379f565b60405160208183030381529060405280519060200120145b15611f3d57600360009054906101000a900473ffffffffffffffffffffffffffffffffffffffff1673ffffffffffffffffffffffffffffffffffffffff1663c47ebddc3384846040518463ffffffff1660e01b8152600401611f0a93929190614449565b600060405180830381600087803b158015611f2457600080fd5b505af1158015611f38573d6000803e3d6000fd5b505050505b5050565b6000600260009054906101000a900473ffffffffffffffffffffffffffffffffffffffff16905090565b611f758383611209565b156122155760005b600080549050811015612213576120888460008381548110611fa257611fa16137b6565b5b906000526020600020906005020160000160009054906101000a900473ffffffffffffffffffffffffffffffffffffffff168560008581548110611fe957611fe86137b6565b5b9060005260206000209060050201600101805461200590613814565b80601f016020809104026020016040519081016040528092919081815260200182805461203190613814565b801561207e5780601f106120535761010080835404028352916020019161207e565b820191906000526020600020905b81548152906001019060200180831161206157829003601f168201915b5050505050611d12565b156122005781600082815481106120a2576120a16137b6565b5b906000526020600020906005020160030190805190602001906120c6929190612a43565b50600360009054906101000a900473ffffffffffffffffffffffffffffffffffffffff1673ffffffffffffffffffffffffffffffffffffffff1663c47ebddc338587600460009054906101000a900473ffffffffffffffffffffffffffffffffffffffff1673ffffffffffffffffffffffffffffffffffffffff16636bb8d768886040518263ffffffff1660e01b81526004016121639190613d61565b600060405180830381865afa158015612180573d6000803e3d6000fd5b505050506040513d6000823e3d601f19601f820116820180604052508101906121a99190613df3565b6040518563ffffffff1660e01b81526004016121c894939291906144f9565b600060405180830381600087803b1580156121e257600080fd5b505af11580156121f6573d6000803e3d6000fd5b5050505050612216565b808061220b9061392d565b915050611f7d565b505b5b505050565b612223612a27565b8273ffffffffffffffffffffffffffffffffffffffff163373ffffffffffffffffffffffffffffffffffffffff1614801561226457506122638383611064565b5b80156122c5575060405160200161227a9061415d565b604051602081830303815290604052805190602001206122998361041a565b602001516040516020016122ad919061379f565b60405160208183030381529060405280519060200120145b156124bf5760005b6000805490508110156124bd576123d884600083815481106122f2576122f16137b6565b5b906000526020600020906005020160000160009054906101000a900473ffffffffffffffffffffffffffffffffffffffff168560008581548110612339576123386137b6565b5b9060005260206000209060050201600101805461235590613814565b80601f016020809104026020016040519081016040528092919081815260200182805461238190613814565b80156123ce5780601f106123a3576101008083540402835291602001916123ce565b820191906000526020600020905b8154815290600101906020018083116123b157829003601f168201915b5050505050611d12565b156124aa57604051806040016040528060011515815260200160008381548110612405576124046137b6565b5b9060005260206000209060050201600201805461242190613814565b80601f016020809104026020016040519081016040528092919081815260200182805461244d90613814565b801561249a5780601f1061246f5761010080835404028352916020019161249a565b820191906000526020600020905b81548152906001019060200180831161247d57829003601f168201915b50505050508152509150506124e9565b80806124b59061392d565b9150506122cd565b505b60405180604001604052806000151581526020016040518060200160405280600081525081525090505b92915050565b60008273ffffffffffffffffffffffffffffffffffffffff163373ffffffffffffffffffffffffffffffffffffffff16141580156125c85750600160009054906101000a900473ffffffffffffffffffffffffffffffffffffffff1673ffffffffffffffffffffffffffffffffffffffff166352a9baef84846040518363ffffffff1660e01b8152600401612585929190614172565b602060405180830381865afa1580156125a2573d6000803e3d6000fd5b505050506040513d601f19601f820116820180604052508101906125c69190613acb565b155b8015612610575061260f33836040518060400160405280600581526020017f73686172650000000000000000000000000000000000000000000000000000008152506127e5565b5b801561262357506126218383611064565b155b80156126c75750600160009054906101000a900473ffffffffffffffffffffffffffffffffffffffff1673ffffffffffffffffffffffffffffffffffffffff16639bccd6ad836040518263ffffffff1660e01b81526004016126859190613f29565b602060405180830381865afa1580156126a2573d6000803e3d6000fd5b505050506040513d601f19601f820116820180604052508101906126c69190613acb565b5b801561272857506040516020016126dd9061415d565b604051602081830303815290604052805190602001206126fc8361041a565b60200151604051602001612710919061379f565b60405160208183030381529060405280519060200120145b80156127cc5750600260009054906101000a900473ffffffffffffffffffffffffffffffffffffffff1673ffffffffffffffffffffffffffffffffffffffff1663a240e426846040518263ffffffff1660e01b815260040161278a91906135d6565b602060405180830381865afa1580156127a7573d6000803e3d6000fd5b505050506040513d601f19601f820116820180604052508101906127cb9190613acb565b5b156127da57600190506127df565b600090505b92915050565b60006040516020016127f69061415d565b604051602081830303815290604052805190602001206128158461041a565b60200151604051602001612829919061379f565b60405160208183030381529060405280519060200120036128f05760006128508585610d42565b60200151905060005b81518110156128ed5783604051602001612873919061379f565b6040516020818303038152906040528051906020012082828151811061289c5761289b6137b6565b5b60200260200101516040516020016128b4919061379f565b60405160208183030381529060405280519060200120036128da576001925050506128f5565b80806128e59061392d565b915050612859565b50505b600090505b9392505050565b6000600360009054906101000a900473ffffffffffffffffffffffffffffffffffffffff16905090565b60008273ffffffffffffffffffffffffffffffffffffffff163373ffffffffffffffffffffffffffffffffffffffff1614801561296a57506129688383611064565b155b8015612a0e5750600260009054906101000a900473ffffffffffffffffffffffffffffffffffffffff1673ffffffffffffffffffffffffffffffffffffffff1663a240e426846040518263ffffffff1660e01b81526004016129cc91906135d6565b602060405180830381865afa1580156129e9573d6000803e3d6000fd5b505050506040513d601f19601f82011682018060405250810190612a0d9190613acb565b5b15612a1c5760019050612a21565b600090505b92915050565b6040518060400160405280600015158152602001606081525090565b828054828255906000526020600020908101928215612a8b579160200282015b82811115612a8a578251829081612a7a9190613c8f565b5091602001919060010190612a63565b5b509050612a989190612b19565b5090565b6040518060400160405280600015158152602001606081525090565b6040518060a001604052806060815260200160608152602001600073ffffffffffffffffffffffffffffffffffffffff16815260200160608152602001606081525090565b6040518060400160405280600015158152602001606081525090565b5b80821115612b395760008181612b309190612b3d565b50600101612b1a565b5090565b508054612b4990613814565b6000825580601f10612b5b5750612b7a565b601f016020900490600052602060002090810190612b799190612b7d565b5b50565b5b80821115612b96576000816000905550600101612b7e565b5090565b6000604051905090565b600080fd5b600080fd5b600080fd5b600080fd5b6000601f19601f8301169050919050565b7f4e487b7100000000000000000000000000000000000000000000000000000000600052604160045260246000fd5b612c0182612bb8565b810181811067ffffffffffffffff82111715612c2057612c1f612bc9565b5b80604052505050565b6000612c33612b9a565b9050612c3f8282612bf8565b919050565b600067ffffffffffffffff821115612c5f57612c5e612bc9565b5b612c6882612bb8565b9050602081019050919050565b82818337600083830152505050565b6000612c97612c9284612c44565b612c29565b905082815260208101848484011115612cb357612cb2612bb3565b5b612cbe848285612c75565b509392505050565b600082601f830112612cdb57612cda612bae565b5b8135612ceb848260208601612c84565b91505092915050565b600060208284031215612d0a57612d09612ba4565b5b600082013567ffffffffffffffff811115612d2857612d27612ba9565b5b612d3484828501612cc6565b91505092915050565b60008115159050919050565b612d5281612d3d565b82525050565b600081519050919050565b600082825260208201905092915050565b60005b83811015612d92578082015181840152602081019050612d77565b60008484015250505050565b6000612da982612d58565b612db38185612d63565b9350612dc3818560208601612d74565b612dcc81612bb8565b840191505092915050565b6000604083016000830151612def6000860182612d49565b5060208301518482036020860152612e078282612d9e565b9150508091505092915050565b60006020820190508181036000830152612e2e8184612dd7565b905092915050565b600073ffffffffffffffffffffffffffffffffffffffff82169050919050565b6000612e6182612e36565b9050919050565b612e7181612e56565b8114612e7c57600080fd5b50565b600081359050612e8e81612e68565b92915050565b600067ffffffffffffffff821115612eaf57612eae612bc9565b5b602082029050602081019050919050565b600080fd5b6000612ed8612ed384612e94565b612c29565b90508083825260208201905060208402830185811115612efb57612efa612ec0565b5b835b81811015612f4257803567ffffffffffffffff811115612f2057612f1f612bae565b5b808601612f2d8982612cc6565b85526020850194505050602081019050612efd565b5050509392505050565b600082601f830112612f6157612f60612bae565b5b8135612f71848260208601612ec5565b91505092915050565b60008060008060808587031215612f9457612f93612ba4565b5b6000612fa287828801612e7f565b945050602085013567ffffffffffffffff811115612fc357612fc2612ba9565b5b612fcf87828801612cc6565b935050604085013567ffffffffffffffff811115612ff057612fef612ba9565b5b612ffc87828801612cc6565b925050606085013567ffffffffffffffff81111561301d5761301c612ba9565b5b61302987828801612f4c565b91505092959194509250565b6000806040838503121561304c5761304b612ba4565b5b600061305a85828601612e7f565b925050602083013567ffffffffffffffff81111561307b5761307a612ba9565b5b61308785828601612cc6565b9150509250929050565b600081519050919050565b600082825260208201905092915050565b6000819050602082019050919050565b6130c681612e56565b82525050565b600060a08301600083015184820360008601526130e98282612d9e565b915050602083015184820360208601526131038282612d9e565b915050604083015161311860408601826130bd565b50606083015184820360608601526131308282612d9e565b9150506080830151848203608086015261314a8282612d9e565b9150508091505092915050565b600061316383836130cc565b905092915050565b6000602082019050919050565b600061318382613091565b61318d818561309c565b93508360208202850161319f856130ad565b8060005b858110156131db57848403895281516131bc8582613157565b94506131c78361316b565b925060208a019950506001810190506131a3565b50829750879550505050505092915050565b60006040830160008301516132056000860182612d49565b506020830151848203602086015261321d8282613178565b9150508091505092915050565b6000602082019050818103600083015261324481846131ed565b905092915050565b600081519050919050565b600082825260208201905092915050565b6000819050602082019050919050565b60006132848383612d9e565b905092915050565b6000602082019050919050565b60006132a48261324c565b6132ae8185613257565b9350836020820285016132c085613268565b8060005b858110156132fc57848403895281516132dd8582613278565b94506132e88361328c565b925060208a019950506001810190506132c4565b50829750879550505050505092915050565b60006040830160008301516133266000860182612d49565b506020830151848203602086015261333e8282613299565b9150508091505092915050565b60006020820190508181036000830152613365818461330e565b905092915050565b61337681612d3d565b82525050565b6000602082019050613391600083018461336d565b92915050565b600080fd5b600080fd5b600060a082840312156133b7576133b6613397565b5b6133c160a0612c29565b9050600082013567ffffffffffffffff8111156133e1576133e061339c565b5b6133ed84828501612cc6565b600083015250602082013567ffffffffffffffff8111156134115761341061339c565b5b61341d84828501612cc6565b602083015250604061343184828501612e7f565b604083015250606082013567ffffffffffffffff8111156134555761345461339c565b5b61346184828501612cc6565b606083015250608082013567ffffffffffffffff8111156134855761348461339c565b5b61349184828501612cc6565b60808301525092915050565b6000806000606084860312156134b6576134b5612ba4565b5b60006134c486828701612e7f565b935050602084013567ffffffffffffffff8111156134e5576134e4612ba9565b5b6134f1868287016133a1565b925050604084013567ffffffffffffffff81111561351257613511612ba9565b5b61351e86828701612cc6565b9150509250925092565b6000806000806080858703121561354257613541612ba4565b5b600061355087828801612e7f565b945050602061356187828801612e7f565b935050604085013567ffffffffffffffff81111561358257613581612ba9565b5b61358e87828801612cc6565b925050606085013567ffffffffffffffff8111156135af576135ae612ba9565b5b6135bb87828801612cc6565b91505092959194509250565b6135d081612e56565b82525050565b60006020820190506135eb60008301846135c7565b92915050565b6000806040838503121561360857613607612ba4565b5b600083013567ffffffffffffffff81111561362657613625612ba9565b5b61363285828601612cc6565b925050602061364385828601612e7f565b9150509250929050565b60008060006060848603121561366657613665612ba4565b5b600061367486828701612e7f565b935050602084013567ffffffffffffffff81111561369557613694612ba9565b5b6136a186828701612cc6565b925050604084013567ffffffffffffffff8111156136c2576136c1612ba9565b5b6136ce86828701612f4c565b9150509250925092565b6000806000606084860312156136f1576136f0612ba4565b5b60006136ff86828701612e7f565b935050602084013567ffffffffffffffff8111156137205761371f612ba9565b5b61372c86828701612cc6565b925050604084013567ffffffffffffffff81111561374d5761374c612ba9565b5b61375986828701612cc6565b9150509250925092565b600081905092915050565b600061377982612d58565b6137838185613763565b9350613793818560208601612d74565b80840191505092915050565b60006137ab828461376e565b915081905092915050565b7f4e487b7100000000000000000000000000000000000000000000000000000000600052603260045260246000fd5b7f4e487b7100000000000000000000000000000000000000000000000000000000600052602260045260246000fd5b6000600282049050600182168061382c57607f821691505b60208210810361383f5761383e6137e5565b5b50919050565b60008190508160005260206000209050919050565b6000815461386781613814565b6138718186613763565b9450600182166000811461388c57600181146138a1576138d4565b60ff19831686528115158202860193506138d4565b6138aa85613845565b60005b838110156138cc578154818901526001820191506020810190506138ad565b838801955050505b50505092915050565b60006138e9828461385a565b915081905092915050565b7f4e487b7100000000000000000000000000000000000000000000000000000000600052601160045260246000fd5b6000819050919050565b600061393882613923565b91507fffffffffffffffffffffffffffffffffffffffffffffffffffffffffffffffff820361396a576139696138f4565b5b600182019050919050565b600082825260208201905092915050565b600061399182612d58565b61399b8185613975565b93506139ab818560208601612d74565b6139b481612bb8565b840191505092915050565b600082825260208201905092915050565b60006139db8261324c565b6139e581856139bf565b9350836020820285016139f785613268565b8060005b85811015613a335784840389528151613a148582613278565b9450613a1f8361328c565b925060208a019950506001810190506139fb565b50829750879550505050505092915050565b6000608082019050613a5a60008301876135c7565b8181036020830152613a6c8186613986565b90508181036040830152613a808185613986565b90508181036060830152613a9481846139d0565b905095945050505050565b613aa881612d3d565b8114613ab357600080fd5b50565b600081519050613ac581613a9f565b92915050565b600060208284031215613ae157613ae0612ba4565b5b6000613aef84828501613ab6565b91505092915050565b60006020601f8301049050919050565b600082821b905092915050565b600060088302613b457fffffffffffffffffffffffffffffffffffffffffffffffffffffffffffffffff82613b08565b613b4f8683613b08565b95508019841693508086168417925050509392505050565b6000819050919050565b6000613b8c613b87613b8284613923565b613b67565b613923565b9050919050565b6000819050919050565b613ba683613b71565b613bba613bb282613b93565b848454613b15565b825550505050565b600090565b613bcf613bc2565b613bda818484613b9d565b505050565b5b81811015613bfe57613bf3600082613bc7565b600181019050613be0565b5050565b601f821115613c4357613c1481613845565b613c1d84613af8565b81016020851015613c2c578190505b613c40613c3885613af8565b830182613bdf565b50505b505050565b600082821c905092915050565b6000613c6660001984600802613c48565b1980831691505092915050565b6000613c7f8383613c55565b9150826002028217905092915050565b613c9882612d58565b67ffffffffffffffff811115613cb157613cb0612bc9565b5b613cbb8254613814565b613cc6828285613c02565b600060209050601f831160018114613cf95760008415613ce7578287015190505b613cf18582613c73565b865550613d59565b601f198416613d0786613845565b60005b82811015613d2f57848901518255600182019150602085019450602081019050613d0a565b86831015613d4c5784890151613d48601f891682613c55565b8355505b6001600288020188555050505b505050505050565b60006020820190508181036000830152613d7b81846139d0565b905092915050565b6000613d96613d9184612c44565b612c29565b905082815260208101848484011115613db257613db1612bb3565b5b613dbd848285612d74565b509392505050565b600082601f830112613dda57613dd9612bae565b5b8151613dea848260208601613d83565b91505092915050565b600060208284031215613e0957613e08612ba4565b5b600082015167ffffffffffffffff811115613e2757613e26612ba9565b5b613e3384828501613dc5565b91505092915050565b7f7368617265000000000000000000000000000000000000000000000000000000600082015250565b6000613e72600583613975565b9150613e7d82613e3c565b602082019050919050565b600060a082019050613e9d60008301876135c7565b8181036020830152613eaf8186613986565b9050613ebe60408301856135c7565b8181036060830152613ed08184613986565b90508181036080830152613ee381613e65565b905095945050505050565b50565b6000613efe600083613763565b9150613f0982613eee565b600082019050919050565b6000613f1f82613ef1565b9150819050919050565b60006020820190508181036000830152613f438184613986565b905092915050565b600081519050613f5a81612e68565b92915050565b600060a08284031215613f7657613f75613397565b5b613f8060a0612c29565b9050600082015167ffffffffffffffff811115613fa057613f9f61339c565b5b613fac84828501613dc5565b600083015250602082015167ffffffffffffffff811115613fd057613fcf61339c565b5b613fdc84828501613dc5565b6020830152506040613ff084828501613f4b565b604083015250606082015167ffffffffffffffff8111156140145761401361339c565b5b61402084828501613dc5565b606083015250608082015167ffffffffffffffff8111156140445761404361339c565b5b61405084828501613dc5565b60808301525092915050565b60006040828403121561407257614071613397565b5b61407c6040612c29565b9050600061408c84828501613ab6565b600083015250602082015167ffffffffffffffff8111156140b0576140af61339c565b5b6140bc84828501613f60565b60208301525092915050565b6000602082840312156140de576140dd612ba4565b5b600082015167ffffffffffffffff8111156140fc576140fb612ba9565b5b6141088482850161405c565b91505092915050565b7f6163746976650000000000000000000000000000000000000000000000000000600082015250565b6000614147600683613763565b915061415282614111565b600682019050919050565b60006141688261413a565b9150819050919050565b600060408201905061418760008301856135c7565b81810360208301526141998184613986565b90509392505050565b600060a08301600083015184820360008601526141bf8282612d9e565b915050602083015184820360208601526141d98282612d9e565b91505060408301516141ee60408601826130bd565b50606083015184820360608601526142068282612d9e565b915050608083015184820360808601526142208282612d9e565b9150508091505092915050565b6000602082019050818103600083015261424781846141a2565b905092915050565b7f75706c6f61640000000000000000000000000000000000000000000000000000600082015250565b6000614285600683613975565b91506142908261424f565b602082019050919050565b600060a0820190506142b060008301876135c7565b81810360208301526142c28186613986565b90506142d160408301856135c7565b81810360608301526142e38184613986565b905081810360808301526142f681614278565b905095945050505050565b7f2d00000000000000000000000000000000000000000000000000000000000000600082015250565b6000614337600183613975565b915061434282614301565b602082019050919050565b7f64656c6574656400000000000000000000000000000000000000000000000000600082015250565b6000614383600783613975565b915061438e8261434d565b602082019050919050565b600060a0820190506143ae60008301866135c7565b81810360208301526143c08185613986565b90506143cf60408301846135c7565b81810360608301526143e08161432a565b905081810360808301526143f381614376565b9050949350505050565b7f646f776e6c6f6164000000000000000000000000000000000000000000000000600082015250565b6000614433600883613975565b915061443e826143fd565b602082019050919050565b600060a08201905061445e60008301866135c7565b81810360208301526144708185613986565b905061447f60408301846135c7565b81810360608301526144908161432a565b905081810360808301526144a381614426565b9050949350505050565b7f757064617465207065726d697373696f6e730000000000000000000000000000600082015250565b60006144e3601283613975565b91506144ee826144ad565b602082019050919050565b600060a08201905061450e60008301876135c7565b81810360208301526145208186613986565b905061452f60408301856135c7565b81810360608301526145418184613986565b90508181036080830152614554816144d6565b90509594505050505056fea26469706673582212201161baea70848f1e2e8b8ff0cc80c8c5aad632b1212a7c91489fd1003679d16564736f6c6343000813003360806040523480156200001157600080fd5b5060405162001568380380620015688339818101604052810190620000379190620000e9565b80600160006101000a81548173ffffffffffffffffffffffffffffffffffffffff021916908373ffffffffffffffffffffffffffffffffffffffff160217905550506200011b565b600080fd5b600073ffffffffffffffffffffffffffffffffffffffff82169050919050565b6000620000b18262000084565b9050919050565b620000c381620000a4565b8114620000cf57600080fd5b50565b600081519050620000e381620000b8565b92915050565b6000602082840312156200010257620001016200007f565b5b60006200011284828501620000d2565b91505092915050565b61143d806200012b6000396000f3fe608060405234801561001057600080fd5b50600436106100625760003560e01c80631429ea041461006757806352a9baef146100975780639aa7f418146100c75780639bccd6ad146100e35780639f5937f814610113578063e8d56b8b14610143575b600080fd5b610081600480360381019061007c9190610cee565b61015f565b60405161008e9190610d52565b60405180910390f35b6100b160048036038101906100ac9190610d6d565b610284565b6040516100be9190610d52565b60405180910390f35b6100e160048036038101906100dc9190610cee565b610368565b005b6100fd60048036038101906100f89190610dc9565b610495565b60405161010a9190610d52565b60405180910390f35b61012d60048036038101906101289190610dc9565b610539565b60405161013a9190610f77565b60405180910390f35b61015d60048036038101906101589190610f99565b6108f4565b005b600061016e8260000151610495565b1580156102135750600160009054906101000a900473ffffffffffffffffffffffffffffffffffffffff1673ffffffffffffffffffffffffffffffffffffffff1663f4520b2c836040518263ffffffff1660e01b81526004016101d19190611051565b602060405180830381865afa1580156101ee573d6000803e3d6000fd5b505050506040513d601f19601f82011682018060405250810190610212919061109f565b5b801561026c5750600260009054906101000a900473ffffffffffffffffffffffffffffffffffffffff1673ffffffffffffffffffffffffffffffffffffffff163373ffffffffffffffffffffffffffffffffffffffff16145b1561027a576001905061027f565b600090505b919050565b60008273ffffffffffffffffffffffffffffffffffffffff166000836040516102ad9190611108565b908152602001604051809103902060020160009054906101000a900473ffffffffffffffffffffffffffffffffffffffff1673ffffffffffffffffffffffffffffffffffffffff1614801561034f5750600260009054906101000a900473ffffffffffffffffffffffffffffffffffffffff1673ffffffffffffffffffffffffffffffffffffffff163373ffffffffffffffffffffffffffffffffffffffff16145b1561035d5760019050610362565b600090505b92915050565b600260009054906101000a900473ffffffffffffffffffffffffffffffffffffffff1673ffffffffffffffffffffffffffffffffffffffff163373ffffffffffffffffffffffffffffffffffffffff1603610492576103c68161015f565b156104915780600082600001516040516103e09190611108565b908152602001604051809103902060008201518160000190816104039190611335565b5060208201518160010190816104199190611335565b5060408201518160020160006101000a81548173ffffffffffffffffffffffffffffffffffffffff021916908373ffffffffffffffffffffffffffffffffffffffff16021790555060608201518160030190816104769190611335565b50608082015181600401908161048c9190611335565b509050505b5b50565b6000806000836040516104a89190611108565b908152602001604051809103902060000180546104c49061114e565b9050141580156105215750600260009054906101000a900473ffffffffffffffffffffffffffffffffffffffff1673ffffffffffffffffffffffffffffffffffffffff163373ffffffffffffffffffffffffffffffffffffffff16145b1561052f5760019050610534565b600090505b919050565b6105416109c9565b600080836040516105529190611108565b9081526020016040518091039020600101805461056e9061114e565b9050111561085b57604051806040016040528060011515815260200160008460405161059a9190611108565b90815260200160405180910390206040518060a00160405290816000820180546105c39061114e565b80601f01602080910402602001604051908101604052809291908181526020018280546105ef9061114e565b801561063c5780601f106106115761010080835404028352916020019161063c565b820191906000526020600020905b81548152906001019060200180831161061f57829003601f168201915b505050505081526020016001820180546106559061114e565b80601f01602080910402602001604051908101604052809291908181526020018280546106819061114e565b80156106ce5780601f106106a3576101008083540402835291602001916106ce565b820191906000526020600020905b8154815290600101906020018083116106b157829003601f168201915b505050505081526020016002820160009054906101000a900473ffffffffffffffffffffffffffffffffffffffff1673ffffffffffffffffffffffffffffffffffffffff1673ffffffffffffffffffffffffffffffffffffffff16815260200160038201805461073d9061114e565b80601f01602080910402602001604051908101604052809291908181526020018280546107699061114e565b80156107b65780601f1061078b576101008083540402835291602001916107b6565b820191906000526020600020905b81548152906001019060200180831161079957829003601f168201915b505050505081526020016004820180546107cf9061114e565b80601f01602080910402602001604051908101604052809291908181526020018280546107fb9061114e565b80156108485780601f1061081d57610100808354040283529160200191610848565b820191906000526020600020905b81548152906001019060200180831161082b57829003601f168201915b50505050508152505081525090506108ef565b60405180604001604052806000151581526020016040518060a00160405280604051806020016040528060008152508152602001604051806020016040528060008152508152602001600073ffffffffffffffffffffffffffffffffffffffff1681526020016040518060200160405280600081525081526020016040518060200160405280600081525081525081525090505b919050565b600073ffffffffffffffffffffffffffffffffffffffff168173ffffffffffffffffffffffffffffffffffffffff161415801561097f5750600073ffffffffffffffffffffffffffffffffffffffff16600260009054906101000a900473ffffffffffffffffffffffffffffffffffffffff1673ffffffffffffffffffffffffffffffffffffffff16145b156109c65780600260006101000a81548173ffffffffffffffffffffffffffffffffffffffff021916908373ffffffffffffffffffffffffffffffffffffffff1602179055505b50565b60405180604001604052806000151581526020016109e56109eb565b81525090565b6040518060a001604052806060815260200160608152602001600073ffffffffffffffffffffffffffffffffffffffff16815260200160608152602001606081525090565b6000604051905090565b600080fd5b600080fd5b600080fd5b6000601f19601f8301169050919050565b7f4e487b7100000000000000000000000000000000000000000000000000000000600052604160045260246000fd5b610a9282610a49565b810181811067ffffffffffffffff82111715610ab157610ab0610a5a565b5b80604052505050565b6000610ac4610a30565b9050610ad08282610a89565b919050565b600080fd5b600080fd5b600080fd5b600067ffffffffffffffff821115610aff57610afe610a5a565b5b610b0882610a49565b9050602081019050919050565b82818337600083830152505050565b6000610b37610b3284610ae4565b610aba565b905082815260208101848484011115610b5357610b52610adf565b5b610b5e848285610b15565b509392505050565b600082601f830112610b7b57610b7a610ada565b5b8135610b8b848260208601610b24565b91505092915050565b600073ffffffffffffffffffffffffffffffffffffffff82169050919050565b6000610bbf82610b94565b9050919050565b610bcf81610bb4565b8114610bda57600080fd5b50565b600081359050610bec81610bc6565b92915050565b600060a08284031215610c0857610c07610a44565b5b610c1260a0610aba565b9050600082013567ffffffffffffffff811115610c3257610c31610ad5565b5b610c3e84828501610b66565b600083015250602082013567ffffffffffffffff811115610c6257610c61610ad5565b5b610c6e84828501610b66565b6020830152506040610c8284828501610bdd565b604083015250606082013567ffffffffffffffff811115610ca657610ca5610ad5565b5b610cb284828501610b66565b606083015250608082013567ffffffffffffffff811115610cd657610cd5610ad5565b5b610ce284828501610b66565b60808301525092915050565b600060208284031215610d0457610d03610a3a565b5b600082013567ffffffffffffffff811115610d2257610d21610a3f565b5b610d2e84828501610bf2565b91505092915050565b60008115159050919050565b610d4c81610d37565b82525050565b6000602082019050610d676000830184610d43565b92915050565b60008060408385031215610d8457610d83610a3a565b5b6000610d9285828601610bdd565b925050602083013567ffffffffffffffff811115610db357610db2610a3f565b5b610dbf85828601610b66565b9150509250929050565b600060208284031215610ddf57610dde610a3a565b5b600082013567ffffffffffffffff811115610dfd57610dfc610a3f565b5b610e0984828501610b66565b91505092915050565b610e1b81610d37565b82525050565b600081519050919050565b600082825260208201905092915050565b60005b83811015610e5b578082015181840152602081019050610e40565b60008484015250505050565b6000610e7282610e21565b610e7c8185610e2c565b9350610e8c818560208601610e3d565b610e9581610a49565b840191505092915050565b610ea981610bb4565b82525050565b600060a0830160008301518482036000860152610ecc8282610e67565b91505060208301518482036020860152610ee68282610e67565b9150506040830151610efb6040860182610ea0565b5060608301518482036060860152610f138282610e67565b91505060808301518482036080860152610f2d8282610e67565b9150508091505092915050565b6000604083016000830151610f526000860182610e12565b5060208301518482036020860152610f6a8282610eaf565b9150508091505092915050565b60006020820190508181036000830152610f918184610f3a565b905092915050565b600060208284031215610faf57610fae610a3a565b5b6000610fbd84828501610bdd565b91505092915050565b600060a0830160008301518482036000860152610fe38282610e67565b91505060208301518482036020860152610ffd8282610e67565b91505060408301516110126040860182610ea0565b506060830151848203606086015261102a8282610e67565b915050608083015184820360808601526110448282610e67565b9150508091505092915050565b6000602082019050818103600083015261106b8184610fc6565b905092915050565b61107c81610d37565b811461108757600080fd5b50565b60008151905061109981611073565b92915050565b6000602082840312156110b5576110b4610a3a565b5b60006110c38482850161108a565b91505092915050565b600081905092915050565b60006110e282610e21565b6110ec81856110cc565b93506110fc818560208601610e3d565b80840191505092915050565b600061111482846110d7565b915081905092915050565b7f4e487b7100000000000000000000000000000000000000000000000000000000600052602260045260246000fd5b6000600282049050600182168061116657607f821691505b6020821081036111795761117861111f565b5b50919050565b60008190508160005260206000209050919050565b60006020601f8301049050919050565b600082821b905092915050565b6000600883026111e17fffffffffffffffffffffffffffffffffffffffffffffffffffffffffffffffff826111a4565b6111eb86836111a4565b95508019841693508086168417925050509392505050565b6000819050919050565b6000819050919050565b600061123261122d61122884611203565b61120d565b611203565b9050919050565b6000819050919050565b61124c83611217565b61126061125882611239565b8484546111b1565b825550505050565b600090565b611275611268565b611280818484611243565b505050565b5b818110156112a45761129960008261126d565b600181019050611286565b5050565b601f8211156112e9576112ba8161117f565b6112c384611194565b810160208510156112d2578190505b6112e66112de85611194565b830182611285565b50505b505050565b600082821c905092915050565b600061130c600019846008026112ee565b1980831691505092915050565b600061132583836112fb565b9150826002028217905092915050565b61133e82610e21565b67ffffffffffffffff81111561135757611356610a5a565b5b611361825461114e565b61136c8282856112a8565b600060209050601f83116001811461139f576000841561138d578287015190505b6113978582611319565b8655506113ff565b601f1984166113ad8661117f565b60005b828110156113d5578489015182556001820191506020850194506020810190506113b0565b868310156113f257848901516113ee601f8916826112fb565b8355505b6001600288020188555050505b50505050505056fea2646970667358221220a9f786f809820145e5dac62e2e795d0dc71037a37d4c827a606eb8c186833bad64736f6c6343000813003360806040523480156200001157600080fd5b5060405162001a6a38038062001a6a8339818101604052810190620000379190620000e9565b80600360006101000a81548173ffffffffffffffffffffffffffffffffffffffff021916908373ffffffffffffffffffffffffffffffffffffffff160217905550506200011b565b600080fd5b600073ffffffffffffffffffffffffffffffffffffffff82169050919050565b6000620000b18262000084565b9050919050565b620000c381620000a4565b8114620000cf57600080fd5b50565b600081519050620000e381620000b8565b92915050565b6000602082840312156200010257620001016200007f565b5b60006200011284828501620000d2565b91505092915050565b61193f806200012b6000396000f3fe608060405234801561001057600080fd5b50600436106100885760003560e01c8063857cdbb81161005b578063857cdbb814610139578063a240e42614610169578063b0c22a5614610199578063eeb9ab18146101c957610088565b80632b4bce8b1461008d57806367156cf1146100bd5780636f77926b146100ed57806375e9493f1461011d575b600080fd5b6100a760048036038101906100a291906111d7565b6101f9565b6040516100b4919061123b565b60405180910390f35b6100d760048036038101906100d29190611256565b610313565b6040516100e4919061134e565b60405180910390f35b61010760048036038101906101029190611256565b6104c7565b604051610114919061142d565b60405180910390f35b610137600480360381019061013291906111d7565b61088f565b005b610153600480360381019061014e9190611256565b610b1e565b604051610160919061134e565b60405180910390f35b610183600480360381019061017e9190611256565b610cd2565b604051610190919061123b565b60405180910390f35b6101b360048036038101906101ae919061144f565b610d7b565b6040516101c0919061123b565b60405180910390f35b6101e360048036038101906101de919061144f565b610db0565b6040516101f091906114c7565b60405180910390f35b60003373ffffffffffffffffffffffffffffffffffffffff16826000015173ffffffffffffffffffffffffffffffffffffffff16036103095761023f8260000151610cd2565b15801561025657506102548260200151610d7b565b155b80156102fa5750600360009054906101000a900473ffffffffffffffffffffffffffffffffffffffff1673ffffffffffffffffffffffffffffffffffffffff1663e779f450836040518263ffffffff1660e01b81526004016102b89190611553565b602060405180830381865afa1580156102d5573d6000803e3d6000fd5b505050506040513d601f19601f820116820180604052508101906102f991906115a1565b5b15610308576001905061030e565b5b600090505b919050565b61031b610e9b565b600073ffffffffffffffffffffffffffffffffffffffff166000808473ffffffffffffffffffffffffffffffffffffffff1673ffffffffffffffffffffffffffffffffffffffff16815260200190815260200160002060000160009054906101000a900473ffffffffffffffffffffffffffffffffffffffff1673ffffffffffffffffffffffffffffffffffffffff16146104985760405180604001604052806001151581526020016000808573ffffffffffffffffffffffffffffffffffffffff1673ffffffffffffffffffffffffffffffffffffffff1681526020019081526020016000206001018054610410906115fd565b80601f016020809104026020016040519081016040528092919081815260200182805461043c906115fd565b80156104895780601f1061045e57610100808354040283529160200191610489565b820191906000526020600020905b81548152906001019060200180831161046c57829003601f168201915b505050505081525090506104c2565b60405180604001604052806000151581526020016040518060200160405280600081525081525090505b919050565b6104cf610eb7565b3373ffffffffffffffffffffffffffffffffffffffff168273ffffffffffffffffffffffffffffffffffffffff160361080b57600073ffffffffffffffffffffffffffffffffffffffff166000808473ffffffffffffffffffffffffffffffffffffffff1673ffffffffffffffffffffffffffffffffffffffff16815260200190815260200160002060000160009054906101000a900473ffffffffffffffffffffffffffffffffffffffff1673ffffffffffffffffffffffffffffffffffffffff161461080a5760405180604001604052806001151581526020016000808573ffffffffffffffffffffffffffffffffffffffff1673ffffffffffffffffffffffffffffffffffffffff1681526020019081526020016000206040518060800160405290816000820160009054906101000a900473ffffffffffffffffffffffffffffffffffffffff1673ffffffffffffffffffffffffffffffffffffffff1673ffffffffffffffffffffffffffffffffffffffff16815260200160018201805461065a906115fd565b80601f0160208091040260200160405190810160405280929190818152602001828054610686906115fd565b80156106d35780601f106106a8576101008083540402835291602001916106d3565b820191906000526020600020905b8154815290600101906020018083116106b657829003601f168201915b505050505081526020016002820180546106ec906115fd565b80601f0160208091040260200160405190810160405280929190818152602001828054610718906115fd565b80156107655780601f1061073a57610100808354040283529160200191610765565b820191906000526020600020905b81548152906001019060200180831161074857829003601f168201915b5050505050815260200160038201805461077e906115fd565b80601f01602080910402602001604051908101604052809291908181526020018280546107aa906115fd565b80156107f75780601f106107cc576101008083540402835291602001916107f7565b820191906000526020600020905b8154815290600101906020018083116107da57829003601f168201915b505050505081525050815250905061088a565b5b60405180604001604052806000151581526020016040518060800160405280600073ffffffffffffffffffffffffffffffffffffffff1681526020016040518060200160405280600081525081526020016040518060200160405280600081525081526020016040518060200160405280600081525081525081525090505b919050565b3373ffffffffffffffffffffffffffffffffffffffff16816000015173ffffffffffffffffffffffffffffffffffffffff1603610b1b576108cf816101f9565b15610b1a576040518060800160405280826000015173ffffffffffffffffffffffffffffffffffffffff16815260200182602001518152602001826040015181526020018260600151815250600080836000015173ffffffffffffffffffffffffffffffffffffffff1673ffffffffffffffffffffffffffffffffffffffff16815260200190815260200160002060008201518160000160006101000a81548173ffffffffffffffffffffffffffffffffffffffff021916908373ffffffffffffffffffffffffffffffffffffffff16021790555060208201518160010190816109b991906117e4565b5060408201518160020190816109cf91906117e4565b5060608201518160030190816109e591906117e4565b509050506040518060800160405280826000015173ffffffffffffffffffffffffffffffffffffffff1681526020018260200151815260200182604001518152602001826060015181525060018260200151604051610a4491906118f2565b908152602001604051809103902060008201518160000160006101000a81548173ffffffffffffffffffffffffffffffffffffffff021916908373ffffffffffffffffffffffffffffffffffffffff1602179055506020820151816001019081610aae91906117e4565b506040820151816002019081610ac491906117e4565b506060820151816003019081610ada91906117e4565b50905050600160028260200151604051610af491906118f2565b908152602001604051809103902060006101000a81548160ff0219169083151502179055505b5b50565b610b26610e9b565b600073ffffffffffffffffffffffffffffffffffffffff166000808473ffffffffffffffffffffffffffffffffffffffff1673ffffffffffffffffffffffffffffffffffffffff16815260200190815260200160002060000160009054906101000a900473ffffffffffffffffffffffffffffffffffffffff1673ffffffffffffffffffffffffffffffffffffffff1614610ca35760405180604001604052806001151581526020016000808573ffffffffffffffffffffffffffffffffffffffff1673ffffffffffffffffffffffffffffffffffffffff1681526020019081526020016000206002018054610c1b906115fd565b80601f0160208091040260200160405190810160405280929190818152602001828054610c47906115fd565b8015610c945780601f10610c6957610100808354040283529160200191610c94565b820191906000526020600020905b815481529060010190602001808311610c7757829003601f168201915b50505050508152509050610ccd565b60405180604001604052806000151581526020016040518060200160405280600081525081525090505b919050565b60008073ffffffffffffffffffffffffffffffffffffffff166000808473ffffffffffffffffffffffffffffffffffffffff1673ffffffffffffffffffffffffffffffffffffffff16815260200190815260200160002060000160009054906101000a900473ffffffffffffffffffffffffffffffffffffffff1673ffffffffffffffffffffffffffffffffffffffff1614610d715760019050610d76565b600090505b919050565b6000600282604051610d8d91906118f2565b908152602001604051809103902060009054906101000a900460ff169050919050565b610db8610ed9565b6000600183604051610dca91906118f2565b90815260200160405180910390206001018054610de6906115fd565b90501115610e64576040518060400160405280600115158152602001600184604051610e1291906118f2565b908152602001604051809103902060000160009054906101000a900473ffffffffffffffffffffffffffffffffffffffff1673ffffffffffffffffffffffffffffffffffffffff168152509050610e96565b6040518060400160405280600015158152602001600073ffffffffffffffffffffffffffffffffffffffff1681525090505b919050565b6040518060400160405280600015158152602001606081525090565b6040518060400160405280600015158152602001610ed3610f0b565b81525090565b6040518060400160405280600015158152602001600073ffffffffffffffffffffffffffffffffffffffff1681525090565b6040518060800160405280600073ffffffffffffffffffffffffffffffffffffffff1681526020016060815260200160608152602001606081525090565b6000604051905090565b600080fd5b600080fd5b600080fd5b6000601f19601f8301169050919050565b7f4e487b7100000000000000000000000000000000000000000000000000000000600052604160045260246000fd5b610fab82610f62565b810181811067ffffffffffffffff82111715610fca57610fc9610f73565b5b80604052505050565b6000610fdd610f49565b9050610fe98282610fa2565b919050565b600080fd5b600073ffffffffffffffffffffffffffffffffffffffff82169050919050565b600061101e82610ff3565b9050919050565b61102e81611013565b811461103957600080fd5b50565b60008135905061104b81611025565b92915050565b600080fd5b600080fd5b600067ffffffffffffffff82111561107657611075610f73565b5b61107f82610f62565b9050602081019050919050565b82818337600083830152505050565b60006110ae6110a98461105b565b610fd3565b9050828152602081018484840111156110ca576110c9611056565b5b6110d584828561108c565b509392505050565b600082601f8301126110f2576110f1611051565b5b813561110284826020860161109b565b91505092915050565b60006080828403121561112157611120610f5d565b5b61112b6080610fd3565b9050600061113b8482850161103c565b600083015250602082013567ffffffffffffffff81111561115f5761115e610fee565b5b61116b848285016110dd565b602083015250604082013567ffffffffffffffff81111561118f5761118e610fee565b5b61119b848285016110dd565b604083015250606082013567ffffffffffffffff8111156111bf576111be610fee565b5b6111cb848285016110dd565b60608301525092915050565b6000602082840312156111ed576111ec610f53565b5b600082013567ffffffffffffffff81111561120b5761120a610f58565b5b6112178482850161110b565b91505092915050565b60008115159050919050565b61123581611220565b82525050565b6000602082019050611250600083018461122c565b92915050565b60006020828403121561126c5761126b610f53565b5b600061127a8482850161103c565b91505092915050565b61128c81611220565b82525050565b600081519050919050565b600082825260208201905092915050565b60005b838110156112cc5780820151818401526020810190506112b1565b60008484015250505050565b60006112e382611292565b6112ed818561129d565b93506112fd8185602086016112ae565b61130681610f62565b840191505092915050565b60006040830160008301516113296000860182611283565b506020830151848203602086015261134182826112d8565b9150508091505092915050565b600060208201905081810360008301526113688184611311565b905092915050565b61137981611013565b82525050565b60006080830160008301516113976000860182611370565b50602083015184820360208601526113af82826112d8565b915050604083015184820360408601526113c982826112d8565b915050606083015184820360608601526113e382826112d8565b9150508091505092915050565b60006040830160008301516114086000860182611283565b5060208301518482036020860152611420828261137f565b9150508091505092915050565b6000602082019050818103600083015261144781846113f0565b905092915050565b60006020828403121561146557611464610f53565b5b600082013567ffffffffffffffff81111561148357611482610f58565b5b61148f848285016110dd565b91505092915050565b6040820160008201516114ae6000850182611283565b5060208201516114c16020850182611370565b50505050565b60006040820190506114dc6000830184611498565b92915050565b60006080830160008301516114fa6000860182611370565b506020830151848203602086015261151282826112d8565b9150506040830151848203604086015261152c82826112d8565b9150506060830151848203606086015261154682826112d8565b9150508091505092915050565b6000602082019050818103600083015261156d81846114e2565b905092915050565b61157e81611220565b811461158957600080fd5b50565b60008151905061159b81611575565b92915050565b6000602082840312156115b7576115b6610f53565b5b60006115c58482850161158c565b91505092915050565b7f4e487b7100000000000000000000000000000000000000000000000000000000600052602260045260246000fd5b6000600282049050600182168061161557607f821691505b602082108103611628576116276115ce565b5b50919050565b60008190508160005260206000209050919050565b60006020601f8301049050919050565b600082821b905092915050565b6000600883026116907fffffffffffffffffffffffffffffffffffffffffffffffffffffffffffffffff82611653565b61169a8683611653565b95508019841693508086168417925050509392505050565b6000819050919050565b6000819050919050565b60006116e16116dc6116d7846116b2565b6116bc565b6116b2565b9050919050565b6000819050919050565b6116fb836116c6565b61170f611707826116e8565b848454611660565b825550505050565b600090565b611724611717565b61172f8184846116f2565b505050565b5b818110156117535761174860008261171c565b600181019050611735565b5050565b601f821115611798576117698161162e565b61177284611643565b81016020851015611781578190505b61179561178d85611643565b830182611734565b50505b505050565b600082821c905092915050565b60006117bb6000198460080261179d565b1980831691505092915050565b60006117d483836117aa565b9150826002028217905092915050565b6117ed82611292565b67ffffffffffffffff81111561180657611805610f73565b5b61181082546115fd565b61181b828285611757565b600060209050601f83116001811461184e576000841561183c578287015190505b61184685826117c8565b8655506118ae565b601f19841661185c8661162e565b60005b828110156118845784890151825560018201915060208501945060208101905061185f565b868310156118a1578489015161189d601f8916826117aa565b8355505b6001600288020188555050505b505050505050565b600081905092915050565b60006118cc82611292565b6118d681856118b6565b93506118e68185602086016112ae565b80840191505092915050565b60006118fe82846118c1565b91508190509291505056fea26469706673582212201d78eab15c615437bd82f73b992f3c0187a9bfa3cf21c688c6a625082326dd6964736f6c63430008130033608060405234801561001057600080fd5b5033600160006101000a81548173ffffffffffffffffffffffffffffffffffffffff021916908373ffffffffffffffffffffffffffffffffffffffff16021790555033600260006101000a81548173ffffffffffffffffffffffffffffffffffffffff021916908373ffffffffffffffffffffffffffffffffffffffff1602179055506113e1806100a26000396000f3fe608060405234801561001057600080fd5b50600436106100365760003560e01c8063759ab1851461003b578063c47ebddc1461006b575b600080fd5b61005560048036038101906100509190610a68565b610087565b6040516100629190610d3b565b60405180910390f35b61008560048036038101906100809190610d89565b6105e7565b005b61008f6107aa565b6000808054905067ffffffffffffffff8111156100af576100ae610852565b5b6040519080825280602002602001820160405280156100e857816020015b6100d56107c6565b8152602001906001900390816100cd5790505b5090506000805b845181101561054457600160009054906101000a900473ffffffffffffffffffffffffffffffffffffffff1673ffffffffffffffffffffffffffffffffffffffff16631ac47dd03387848151811061014a57610149610e58565b5b60200260200101516040518363ffffffff1660e01b815260040161016f929190610ee0565b602060405180830381865afa15801561018c573d6000803e3d6000fd5b505050506040513d601f19601f820116820180604052508101906101b09190610f3c565b156105315760005b60008054905081101561052f578582815181106101d8576101d7610e58565b5b60200260200101516040516020016101f09190610fa5565b604051602081830303815290604052805190602001206000828154811061021a57610219610e58565b5b906000526020600020906006020160000160405160200161023b91906110b4565b604051602081830303815290604052805190602001200361051c576000818154811061026a57610269610e58565b5b90600052602060002090600602016040518060c001604052908160008201805461029390610feb565b80601f01602080910402602001604051908101604052809291908181526020018280546102bf90610feb565b801561030c5780601f106102e15761010080835404028352916020019161030c565b820191906000526020600020905b8154815290600101906020018083116102ef57829003601f168201915b505050505081526020016001820160009054906101000a900473ffffffffffffffffffffffffffffffffffffffff1673ffffffffffffffffffffffffffffffffffffffff1673ffffffffffffffffffffffffffffffffffffffff1681526020016002820154815260200160038201805461038590610feb565b80601f01602080910402602001604051908101604052809291908181526020018280546103b190610feb565b80156103fe5780601f106103d3576101008083540402835291602001916103fe565b820191906000526020600020905b8154815290600101906020018083116103e157829003601f168201915b5050505050815260200160048201805461041790610feb565b80601f016020809104026020016040519081016040528092919081815260200182805461044390610feb565b80156104905780601f1061046557610100808354040283529160200191610490565b820191906000526020600020905b81548152906001019060200180831161047357829003601f168201915b505050505081526020016005820160009054906101000a900473ffffffffffffffffffffffffffffffffffffffff1673ffffffffffffffffffffffffffffffffffffffff1673ffffffffffffffffffffffffffffffffffffffff168152505084848151811061050257610501610e58565b5b60200260200101819052508280610518906110fa565b9350505b8080610527906110fa565b9150506101b8565b505b808061053c906110fa565b9150506100ef565b508082526000811461057157604051806040016040528060011515815260200183815250925050506105e2565b6040518060400160405280600015158152602001600067ffffffffffffffff8111156105a05761059f610852565b5b6040519080825280602002602001820160405280156105d957816020015b6105c66107c6565b8152602001906001900390816105be5790505b50815250925050505b919050565b600260009054906101000a900473ffffffffffffffffffffffffffffffffffffffff1673ffffffffffffffffffffffffffffffffffffffff163373ffffffffffffffffffffffffffffffffffffffff16036107a35760006040518060c001604052808681526020018573ffffffffffffffffffffffffffffffffffffffff1681526020014281526020018381526020018481526020018773ffffffffffffffffffffffffffffffffffffffff168152509050600081908060018154018082558091505060019003906000526020600020906006020160009091909190915060008201518160000190816106da91906112d9565b5060208201518160010160006101000a81548173ffffffffffffffffffffffffffffffffffffffff021916908373ffffffffffffffffffffffffffffffffffffffff16021790555060408201518160020155606082015181600301908161074191906112d9565b50608082015181600401908161075791906112d9565b5060a08201518160050160006101000a81548173ffffffffffffffffffffffffffffffffffffffff021916908373ffffffffffffffffffffffffffffffffffffffff1602179055505050505b5050505050565b6040518060400160405280600015158152602001606081525090565b6040518060c0016040528060608152602001600073ffffffffffffffffffffffffffffffffffffffff168152602001600081526020016060815260200160608152602001600073ffffffffffffffffffffffffffffffffffffffff1681525090565b6000604051905090565b600080fd5b600080fd5b600080fd5b6000601f19601f8301169050919050565b7f4e487b7100000000000000000000000000000000000000000000000000000000600052604160045260246000fd5b61088a82610841565b810181811067ffffffffffffffff821117156108a9576108a8610852565b5b80604052505050565b60006108bc610828565b90506108c88282610881565b919050565b600067ffffffffffffffff8211156108e8576108e7610852565b5b602082029050602081019050919050565b600080fd5b600080fd5b600067ffffffffffffffff82111561091e5761091d610852565b5b61092782610841565b9050602081019050919050565b82818337600083830152505050565b600061095661095184610903565b6108b2565b905082815260208101848484011115610972576109716108fe565b5b61097d848285610934565b509392505050565b600082601f83011261099a5761099961083c565b5b81356109aa848260208601610943565b91505092915050565b60006109c66109c1846108cd565b6108b2565b905080838252602082019050602084028301858111156109e9576109e86108f9565b5b835b81811015610a3057803567ffffffffffffffff811115610a0e57610a0d61083c565b5b808601610a1b8982610985565b855260208501945050506020810190506109eb565b5050509392505050565b600082601f830112610a4f57610a4e61083c565b5b8135610a5f8482602086016109b3565b91505092915050565b600060208284031215610a7e57610a7d610832565b5b600082013567ffffffffffffffff811115610a9c57610a9b610837565b5b610aa884828501610a3a565b91505092915050565b60008115159050919050565b610ac681610ab1565b82525050565b600081519050919050565b600082825260208201905092915050565b6000819050602082019050919050565b600081519050919050565b600082825260208201905092915050565b60005b83811015610b32578082015181840152602081019050610b17565b60008484015250505050565b6000610b4982610af8565b610b538185610b03565b9350610b63818560208601610b14565b610b6c81610841565b840191505092915050565b600073ffffffffffffffffffffffffffffffffffffffff82169050919050565b6000610ba282610b77565b9050919050565b610bb281610b97565b82525050565b6000819050919050565b610bcb81610bb8565b82525050565b600060c0830160008301518482036000860152610bee8282610b3e565b9150506020830151610c036020860182610ba9565b506040830151610c166040860182610bc2565b5060608301518482036060860152610c2e8282610b3e565b91505060808301518482036080860152610c488282610b3e565b91505060a0830151610c5d60a0860182610ba9565b508091505092915050565b6000610c748383610bd1565b905092915050565b6000602082019050919050565b6000610c9482610acc565b610c9e8185610ad7565b935083602082028501610cb085610ae8565b8060005b85811015610cec5784840389528151610ccd8582610c68565b9450610cd883610c7c565b925060208a01995050600181019050610cb4565b50829750879550505050505092915050565b6000604083016000830151610d166000860182610abd565b5060208301518482036020860152610d2e8282610c89565b9150508091505092915050565b60006020820190508181036000830152610d558184610cfe565b905092915050565b610d6681610b97565b8114610d7157600080fd5b50565b600081359050610d8381610d5d565b92915050565b600080600080600060a08688031215610da557610da4610832565b5b6000610db388828901610d74565b955050602086013567ffffffffffffffff811115610dd457610dd3610837565b5b610de088828901610985565b9450506040610df188828901610d74565b935050606086013567ffffffffffffffff811115610e1257610e11610837565b5b610e1e88828901610985565b925050608086013567ffffffffffffffff811115610e3f57610e3e610837565b5b610e4b88828901610985565b9150509295509295909350565b7f4e487b7100000000000000000000000000000000000000000000000000000000600052603260045260246000fd5b610e9081610b97565b82525050565b600082825260208201905092915050565b6000610eb282610af8565b610ebc8185610e96565b9350610ecc818560208601610b14565b610ed581610841565b840191505092915050565b6000604082019050610ef56000830185610e87565b8181036020830152610f078184610ea7565b90509392505050565b610f1981610ab1565b8114610f2457600080fd5b50565b600081519050610f3681610f10565b92915050565b600060208284031215610f5257610f51610832565b5b6000610f6084828501610f27565b91505092915050565b600081905092915050565b6000610f7f82610af8565b610f898185610f69565b9350610f99818560208601610b14565b80840191505092915050565b6000610fb18284610f74565b915081905092915050565b7f4e487b7100000000000000000000000000000000000000000000000000000000600052602260045260246000fd5b6000600282049050600182168061100357607f821691505b60208210810361101657611015610fbc565b5b50919050565b60008190508160005260206000209050919050565b6000815461103e81610feb565b6110488186610f69565b945060018216600081146110635760018114611078576110ab565b60ff19831686528115158202860193506110ab565b6110818561101c565b60005b838110156110a357815481890152600182019150602081019050611084565b838801955050505b50505092915050565b60006110c08284611031565b915081905092915050565b7f4e487b7100000000000000000000000000000000000000000000000000000000600052601160045260246000fd5b600061110582610bb8565b91507fffffffffffffffffffffffffffffffffffffffffffffffffffffffffffffffff8203611137576111366110cb565b5b600182019050919050565b60006020601f8301049050919050565b600082821b905092915050565b60006008830261118f7fffffffffffffffffffffffffffffffffffffffffffffffffffffffffffffffff82611152565b6111998683611152565b95508019841693508086168417925050509392505050565b6000819050919050565b60006111d66111d16111cc84610bb8565b6111b1565b610bb8565b9050919050565b6000819050919050565b6111f0836111bb565b6112046111fc826111dd565b84845461115f565b825550505050565b600090565b61121961120c565b6112248184846111e7565b505050565b5b818110156112485761123d600082611211565b60018101905061122a565b5050565b601f82111561128d5761125e8161101c565b61126784611142565b81016020851015611276578190505b61128a61128285611142565b830182611229565b50505b505050565b600082821c905092915050565b60006112b060001984600802611292565b1980831691505092915050565b60006112c9838361129f565b9150826002028217905092915050565b6112e282610af8565b67ffffffffffffffff8111156112fb576112fa610852565b5b6113058254610feb565b61131082828561124c565b600060209050601f8311600181146113435760008415611331578287015190505b61133b85826112bd565b8655506113a3565b601f1984166113518661101c565b60005b8281101561137957848901518255600182019150602085019450602081019050611354565b868310156113965784890151611392601f89168261129f565b8355505b6001600288020188555050505b50505050505056fea264697066735822122039f74302453827ebf7ddff73764600d8df3f6c657ab6b638d8b695d04d33f01f64736f6c63430008130033",
  "linkReferences": {},
  "deployedLinkReferences": {}
}