{
  "_format": "hh-sol-artifact-1",
  "contractName": "AccessControl",
  "sourceName": "contracts/AccessControl.sol",
  "abi": [
    {
      "inputs": [
        {
          "internalType": "address",
          "name": "helperContract",
          "type": "address"
        }
      ],
      "stateMutability": "nonpayable",
      "type": "constructor"
    },
    {
      "anonymous": false,
      "inputs": [
        {
          "indexed": true,
          "internalType": "address",
          "name": "userAccount",
          "type": "address"
        },
        {
          "indexed": false,
          "internalType": "string",
          "name": "fileIpfsCID",
          "type": "string"
        },
        {
          "indexed": false,
          "internalType": "string",
          "name": "permissionsOwner",
          "type": "string"
        },
        {
          "indexed": false,
          "internalType": "string",
          "name": "action",
          "type": "string"
        }
      ],
      "name": "FileActionLog",
      "type": "event"
    },
    {
      "inputs": [
        {
          "internalType": "address",
          "name": "userAccount",
          "type": "address"
        },
        {
          "internalType": "string",
          "name": "fileIpfsCid",
          "type": "string"
        }
      ],
      "name": "deactivateFile",
      "outputs": [],
      "stateMutability": "nonpayable",
      "type": "function"
    },
    {
      "inputs": [
        {
          "internalType": "string",
          "name": "fileIpfsCid",
          "type": "string"
        },
        {
          "internalType": "address",
          "name": "userAccount",
          "type": "address"
        }
      ],
      "name": "downloadFileAudit",
      "outputs": [],
      "stateMutability": "nonpayable",
      "type": "function"
    },
    {
      "inputs": [
        {
          "components": [
            {
              "internalType": "string",
              "name": "ipfsCID",
              "type": "string"
            },
            {
              "internalType": "string",
              "name": "fileName",
              "type": "string"
            },
            {
              "internalType": "int256",
              "name": "version",
              "type": "int256"
            },
            {
              "internalType": "string",
              "name": "prevIpfsCID",
              "type": "string"
            },
            {
              "internalType": "address",
              "name": "owner",
              "type": "address"
            },
            {
              "internalType": "string",
              "name": "fileType",
              "type": "string"
            },
            {
              "internalType": "string",
              "name": "iv",
              "type": "string"
            },
            {
              "internalType": "string",
              "name": "state",
              "type": "string"
            },
            {
              "internalType": "string",
              "name": "fileHash",
              "type": "string"
            }
          ],
          "internalType": "struct FileRegister.File",
          "name": "selectedFile",
          "type": "tuple"
        },
        {
          "components": [
            {
              "internalType": "string",
              "name": "ipfsCID",
              "type": "string"
            },
            {
              "internalType": "string",
              "name": "fileName",
              "type": "string"
            },
            {
              "internalType": "int256",
              "name": "version",
              "type": "int256"
            },
            {
              "internalType": "string",
              "name": "prevIpfsCID",
              "type": "string"
            },
            {
              "internalType": "address",
              "name": "owner",
              "type": "address"
            },
            {
              "internalType": "string",
              "name": "fileType",
              "type": "string"
            },
            {
              "internalType": "string",
              "name": "iv",
              "type": "string"
            },
            {
              "internalType": "string",
              "name": "state",
              "type": "string"
            },
            {
              "internalType": "string",
              "name": "fileHash",
              "type": "string"
            }
          ],
          "internalType": "struct FileRegister.File",
          "name": "newFile",
          "type": "tuple"
        },
        {
          "internalType": "string",
          "name": "encSymmetricKey",
          "type": "string"
        }
      ],
      "name": "editFile",
      "outputs": [],
      "stateMutability": "nonpayable",
      "type": "function"
    },
    {
      "inputs": [
        {
          "internalType": "string",
          "name": "fileIpfsCID",
          "type": "string"
        }
      ],
      "name": "elegibleToEdit",
      "outputs": [
        {
          "internalType": "bool",
          "name": "",
          "type": "bool"
        }
      ],
      "stateMutability": "view",
      "type": "function"
    },
    {
      "inputs": [
        {
          "internalType": "address",
          "name": "userAccount",
          "type": "address"
        },
        {
          "internalType": "string",
          "name": "fileIpfsCID",
          "type": "string"
        }
      ],
      "name": "elegibleToShare",
      "outputs": [
        {
          "internalType": "bool",
          "name": "",
          "type": "bool"
        }
      ],
      "stateMutability": "view",
      "type": "function"
    },
    {
      "inputs": [
        {
          "internalType": "address",
          "name": "userAccount",
          "type": "address"
        },
        {
          "internalType": "string",
          "name": "fileIpfsCID",
          "type": "string"
        }
      ],
      "name": "elegibleToUpdPermissions",
      "outputs": [
        {
          "internalType": "bool",
          "name": "",
          "type": "bool"
        }
      ],
      "stateMutability": "view",
      "type": "function"
    },
    {
      "inputs": [
        {
          "internalType": "address",
          "name": "userAccount",
          "type": "address"
        },
        {
          "internalType": "string",
          "name": "fileIpfsCID",
          "type": "string"
        }
      ],
      "name": "elegibleToUpload",
      "outputs": [
        {
          "internalType": "bool",
          "name": "",
          "type": "bool"
        }
      ],
      "stateMutability": "view",
      "type": "function"
    },
    {
      "inputs": [],
      "name": "getAuditLogControlAddress",
      "outputs": [
        {
          "internalType": "address",
          "name": "",
          "type": "address"
        }
      ],
      "stateMutability": "view",
      "type": "function"
    },
    {
      "inputs": [
        {
          "internalType": "address",
          "name": "accountUser",
          "type": "address"
        },
        {
          "internalType": "string",
          "name": "fileIpfsCID",
          "type": "string"
        }
      ],
      "name": "getEncSymmetricKeyFileUser",
      "outputs": [
        {
          "components": [
            {
              "internalType": "bool",
              "name": "success",
              "type": "bool"
            },
            {
              "internalType": "string",
              "name": "resultString",
              "type": "string"
            }
          ],
          "internalType": "struct Helper.ResultString",
          "name": "",
          "type": "tuple"
        }
      ],
      "stateMutability": "view",
      "type": "function"
    },
    {
      "inputs": [],
      "name": "getFileRegisterAddress",
      "outputs": [
        {
          "internalType": "address",
          "name": "",
          "type": "address"
        }
      ],
      "stateMutability": "view",
      "type": "function"
    },
    {
      "inputs": [
        {
          "internalType": "address",
          "name": "userAccount",
          "type": "address"
        },
        {
          "internalType": "string",
          "name": "fileIpfsCID",
          "type": "string"
        }
      ],
      "name": "getPermissionsOverFile",
      "outputs": [
        {
          "components": [
            {
              "internalType": "bool",
              "name": "success",
              "type": "bool"
            },
            {
              "internalType": "string[]",
              "name": "resultStrings",
              "type": "string[]"
            }
          ],
          "internalType": "struct Helper.ResultStringArray",
          "name": "",
          "type": "tuple"
        }
      ],
      "stateMutability": "view",
      "type": "function"
    },
    {
      "inputs": [
        {
          "internalType": "address",
          "name": "account",
          "type": "address"
        },
        {
          "internalType": "string",
          "name": "state",
          "type": "string"
        }
      ],
      "name": "getUserFiles",
      "outputs": [
        {
          "components": [
            {
              "internalType": "bool",
              "name": "success",
              "type": "bool"
            },
            {
              "components": [
                {
                  "internalType": "string",
                  "name": "ipfsCID",
                  "type": "string"
                },
                {
                  "internalType": "string",
                  "name": "fileName",
                  "type": "string"
                },
                {
                  "internalType": "int256",
                  "name": "version",
                  "type": "int256"
                },
                {
                  "internalType": "string",
                  "name": "prevIpfsCID",
                  "type": "string"
                },
                {
                  "internalType": "address",
                  "name": "owner",
                  "type": "address"
                },
                {
                  "internalType": "string",
                  "name": "fileType",
                  "type": "string"
                },
                {
                  "internalType": "string",
                  "name": "iv",
                  "type": "string"
                },
                {
                  "internalType": "string",
                  "name": "state",
                  "type": "string"
                },
                {
                  "internalType": "string",
                  "name": "fileHash",
                  "type": "string"
                }
              ],
              "internalType": "struct FileRegister.File[]",
              "name": "files",
              "type": "tuple[]"
            }
          ],
          "internalType": "struct FileRegister.ResultFiles",
          "name": "",
          "type": "tuple"
        }
      ],
      "stateMutability": "view",
      "type": "function"
    },
    {
      "inputs": [],
      "name": "getUserRegisterAddress",
      "outputs": [
        {
          "internalType": "address",
          "name": "",
          "type": "address"
        }
      ],
      "stateMutability": "view",
      "type": "function"
    },
    {
      "inputs": [
        {
          "internalType": "address",
          "name": "accountInput",
          "type": "address"
        },
        {
          "internalType": "address",
          "name": "accountList",
          "type": "address"
        },
        {
          "internalType": "string",
          "name": "ipfsCIDInput",
          "type": "string"
        },
        {
          "internalType": "string",
          "name": "ipfsCIDList",
          "type": "string"
        }
      ],
      "name": "isKeyEqual",
      "outputs": [
        {
          "internalType": "bool",
          "name": "",
          "type": "bool"
        }
      ],
      "stateMutability": "pure",
      "type": "function"
    },
    {
      "inputs": [
        {
          "internalType": "string",
          "name": "fileIpfsCID",
          "type": "string"
        }
      ],
      "name": "messageSenderAssociatedToFile",
      "outputs": [
        {
          "internalType": "bool",
          "name": "",
          "type": "bool"
        }
      ],
      "stateMutability": "view",
      "type": "function"
    },
    {
      "inputs": [
        {
          "internalType": "address",
          "name": "userAccount",
          "type": "address"
        },
        {
          "internalType": "string",
          "name": "fileIpfsCID",
          "type": "string"
        }
      ],
      "name": "removeUserFileAssociation",
      "outputs": [],
      "stateMutability": "nonpayable",
      "type": "function"
    },
    {
      "inputs": [
        {
          "internalType": "address",
          "name": "userAccount",
          "type": "address"
        },
        {
          "internalType": "string",
          "name": "fileIpfsCID",
          "type": "string"
        },
        {
          "internalType": "string",
          "name": "encSymmetricKey",
          "type": "string"
        },
        {
          "internalType": "string[]",
          "name": "permissions",
          "type": "string[]"
        }
      ],
      "name": "shareFile",
      "outputs": [],
      "stateMutability": "nonpayable",
      "type": "function"
    },
    {
      "inputs": [
        {
          "internalType": "address",
          "name": "userAccount",
          "type": "address"
        },
        {
          "internalType": "string",
          "name": "fileIpfsCID",
          "type": "string"
        },
        {
          "internalType": "string[]",
          "name": "permissions",
          "type": "string[]"
        }
      ],
      "name": "updateUserFilePermissions",
      "outputs": [],
      "stateMutability": "nonpayable",
      "type": "function"
    },
    {
      "inputs": [
        {
          "internalType": "address",
          "name": "userAccount",
          "type": "address"
        },
        {
          "components": [
            {
              "internalType": "string",
              "name": "ipfsCID",
              "type": "string"
            },
            {
              "internalType": "string",
              "name": "fileName",
              "type": "string"
            },
            {
              "internalType": "int256",
              "name": "version",
              "type": "int256"
            },
            {
              "internalType": "string",
              "name": "prevIpfsCID",
              "type": "string"
            },
            {
              "internalType": "address",
              "name": "owner",
              "type": "address"
            },
            {
              "internalType": "string",
              "name": "fileType",
              "type": "string"
            },
            {
              "internalType": "string",
              "name": "iv",
              "type": "string"
            },
            {
              "internalType": "string",
              "name": "state",
              "type": "string"
            },
            {
              "internalType": "string",
              "name": "fileHash",
              "type": "string"
            }
          ],
          "internalType": "struct FileRegister.File",
          "name": "file",
          "type": "tuple"
        },
        {
          "internalType": "string",
          "name": "encSymmetricKey",
          "type": "string"
        }
      ],
      "name": "uploadFile",
      "outputs": [],
      "stateMutability": "nonpayable",
      "type": "function"
    },
    {
      "inputs": [
        {
          "internalType": "address",
          "name": "userAccount",
          "type": "address"
        },
        {
          "internalType": "string",
          "name": "fileIpfsCID",
          "type": "string"
        }
      ],
      "name": "userAssociatedWithFile",
      "outputs": [
        {
          "internalType": "bool",
          "name": "",
          "type": "bool"
        }
      ],
      "stateMutability": "view",
      "type": "function"
    },
    {
      "inputs": [
        {
          "internalType": "address",
          "name": "userAccount",
          "type": "address"
        },
        {
          "internalType": "string",
          "name": "fileName",
          "type": "string"
        }
      ],
      "name": "userAssociatedWithFileName",
      "outputs": [
        {
          "internalType": "bool",
          "name": "",
          "type": "bool"
        }
      ],
      "stateMutability": "view",
      "type": "function"
    },
    {
      "inputs": [
        {
          "internalType": "address",
          "name": "userAccount",
          "type": "address"
        },
        {
          "internalType": "string",
          "name": "fileIpfsCID",
          "type": "string"
        },
        {
          "internalType": "string",
          "name": "permission",
          "type": "string"
        }
      ],
      "name": "userHasPermissionOverFile",
      "outputs": [
        {
          "internalType": "bool",
          "name": "",
          "type": "bool"
        }
      ],
      "stateMutability": "view",
      "type": "function"
    },
    {
      "inputs": [
        {
          "internalType": "address",
          "name": "userAccount",
          "type": "address"
        },
        {
          "internalType": "string",
          "name": "fileHash",
          "type": "string"
        }
      ],
      "name": "verifyValidFile",
      "outputs": [
        {
          "internalType": "bool",
          "name": "",
          "type": "bool"
        }
      ],
      "stateMutability": "view",
      "type": "function"
    }
  ],
  "bytecode": "0x60806040523480156200001157600080fd5b506040516200ce1b3803806200ce1b83398181016040528101906200003791906200028c565b80600460006101000a81548173ffffffffffffffffffffffffffffffffffffffff021916908373ffffffffffffffffffffffffffffffffffffffff160217905550806040516200008790620001f8565b620000939190620002cf565b604051809103906000f080158015620000b0573d6000803e3d6000fd5b50600160006101000a81548173ffffffffffffffffffffffffffffffffffffffff021916908373ffffffffffffffffffffffffffffffffffffffff16021790555080604051620001009062000206565b6200010c9190620002cf565b604051809103906000f08015801562000129573d6000803e3d6000fd5b50600260006101000a81548173ffffffffffffffffffffffffffffffffffffffff021916908373ffffffffffffffffffffffffffffffffffffffff160217905550604051620001789062000214565b604051809103906000f08015801562000195573d6000803e3d6000fd5b50600360006101000a81548173ffffffffffffffffffffffffffffffffffffffff021916908373ffffffffffffffffffffffffffffffffffffffff1602179055506000600460146101000a81548160ff02191690831515021790555050620002ec565b613948806200640c83390190565b611c448062009d5483390190565b611483806200b99883390190565b600080fd5b600073ffffffffffffffffffffffffffffffffffffffff82169050919050565b6000620002548262000227565b9050919050565b620002668162000247565b81146200027257600080fd5b50565b60008151905062000286816200025b565b92915050565b600060208284031215620002a557620002a462000222565b5b6000620002b58482850162000275565b91505092915050565b620002c98162000247565b82525050565b6000602082019050620002e66000830184620002be565b92915050565b61611080620002fc6000396000f3fe608060405234801561001057600080fd5b506004361061014c5760003560e01c8063874a22ed116100c3578063c19dcf891161007c578063c19dcf89146103fb578063c61e66631461042b578063db54cc8c14610447578063dee63aa114610463578063e0d4e5de14610493578063fe17fccc146104c35761014c565b8063874a22ed146103135780638af34fbc14610331578063a126d94c1461034d578063b58ea3a21461037d578063b6d234df146103ad578063b714fb20146103dd5761014c565b80631ac47dd0116101155780631ac47dd0146102195780632321f31814610249578063299768c8146102795780635c99c71b146102a95780635dab19e4146102d957806367cc916b146102f75761014c565b8062c5e61414610151578063023eff141461016d5780630976372714610189578063173cd558146101b957806317b5be0f146101e9575b600080fd5b61016b60048036038101906101669190613fb3565b6104df565b005b61018760048036038101906101829190614252565b6108c8565b005b6101a3600480360381019061019e91906142f9565b610cdb565b6040516101b091906145fb565b60405180910390f35b6101d360048036038101906101ce91906142f9565b6111b8565b6040516101e0919061471c565b60405180910390f35b61020360048036038101906101fe91906142f9565b611571565b604051610210919061474d565b60405180910390f35b610233600480360381019061022e91906142f9565b611871565b604051610240919061474d565b60405180910390f35b610263600480360381019061025e91906142f9565b611a16565b604051610270919061474d565b60405180910390f35b610293600480360381019061028e9190614768565b611c48565b6040516102a0919061474d565b60405180910390f35b6102c360048036038101906102be91906147b1565b611e80565b6040516102d0919061474d565b60405180910390f35b6102e1611f12565b6040516102ee919061485f565b60405180910390f35b610311600480360381019061030c919061487a565b611f3c565b005b61031b612146565b604051610328919061485f565b60405180910390f35b61034b600480360381019061034691906148d6565b612170565b005b610367600480360381019061036291906142f9565b612420565b604051610374919061499e565b60405180910390f35b610397600480360381019061039291906142f9565b61278b565b6040516103a4919061474d565b60405180910390f35b6103c760048036038101906103c291906149c0565b612b18565b6040516103d4919061474d565b60405180910390f35b6103e5612bd9565b6040516103f2919061485f565b60405180910390f35b610415600480360381019061041091906142f9565b612c03565b604051610422919061474d565b60405180910390f35b610445600480360381019061044091906142f9565b612e13565b005b610461600480360381019061045c91906142f9565b613073565b005b61047d600480360381019061047891906142f9565b613379565b60405161048a919061474d565b60405180910390f35b6104ad60048036038101906104a89190614768565b61347a565b6040516104ba919061474d565b60405180910390f35b6104dd60048036038101906104d89190614a4b565b6135cc565b005b6104e9848461278b565b80156105e157506040516020016104ff90614b2d565b60405160208183030381529060405280519060200120600160009054906101000a900473ffffffffffffffffffffffffffffffffffffffff1673ffffffffffffffffffffffffffffffffffffffff1662438ceb856040518263ffffffff1660e01b815260040161056f9190614b8c565b600060405180830381865afa15801561058c573d6000803e3d6000fd5b505050506040513d6000823e3d601f19601f820116820180604052508101906105b59190614cb6565b602001516040516020016105c99190614d30565b60405160208183030381529060405280519060200120145b156108c2576000600460009054906101000a900473ffffffffffffffffffffffffffffffffffffffff1673ffffffffffffffffffffffffffffffffffffffff16631c209e7c868686866040518563ffffffff1660e01b81526004016106499493929190614df3565b602060405180830381865afa158015610666573d6000803e3d6000fd5b505050506040513d601f19601f8201168201806040525081019061068a9190614e60565b905080156108c057600060405180608001604052808773ffffffffffffffffffffffffffffffffffffffff168152602001868152602001858152602001848152509050600081908060018154018082558091505060019003906000526020600020906004020160009091909190915060008201518160000160006101000a81548173ffffffffffffffffffffffffffffffffffffffff021916908373ffffffffffffffffffffffffffffffffffffffff160217905550602082015181600101908161075591906150a3565b50604082015181600201908161076b91906150a3565b506060820151816003019080519060200190610788929190613b07565b505050600360009054906101000a900473ffffffffffffffffffffffffffffffffffffffff1673ffffffffffffffffffffffffffffffffffffffff1663c47ebddc338789600460009054906101000a900473ffffffffffffffffffffffffffffffffffffffff1673ffffffffffffffffffffffffffffffffffffffff16636bb8d768896040518263ffffffff1660e01b81526004016108279190615175565b600060405180830381865afa158015610844573d6000803e3d6000fd5b505050506040513d6000823e3d601f19601f8201168201806040525081019061086d9190615197565b6040518563ffffffff1660e01b815260040161088c949392919061522c565b600060405180830381600087803b1580156108a657600080fd5b505af11580156108ba573d6000803e3d6000fd5b50505050505b505b50505050565b6108d5836000015161347a565b15610cd657600160009054906101000a900473ffffffffffffffffffffffffffffffffffffffff1673ffffffffffffffffffffffffffffffffffffffff166395f0f0bb84846040518363ffffffff1660e01b8152600401610937929190615381565b600060405180830381600087803b15801561095157600080fd5b505af1158015610965573d6000803e3d6000fd5b5050505060005b600080549050811015610c3f57836000015160405160200161098e9190614d30565b60405160208183030381529060405280519060200120600082815481106109b8576109b76153b8565b5b90600052602060002090600402016001016040516020016109d9919061546a565b6040516020818303038152906040528051906020012003610c2c576000604051806080016040528060008481548110610a1557610a146153b8565b5b906000526020600020906004020160000160009054906101000a900473ffffffffffffffffffffffffffffffffffffffff1673ffffffffffffffffffffffffffffffffffffffff1681526020018560000151815260200184815260200160008481548110610a8657610a856153b8565b5b9060005260206000209060040201600301805480602002602001604051908101604052809291908181526020016000905b82821015610b63578382906000526020600020018054610ad690614ebc565b80601f0160208091040260200160405190810160405280929190818152602001828054610b0290614ebc565b8015610b4f5780601f10610b2457610100808354040283529160200191610b4f565b820191906000526020600020905b815481529060010190602001808311610b3257829003601f168201915b505050505081526020019060010190610ab7565b505050508152509050600081908060018154018082558091505060019003906000526020600020906004020160009091909190915060008201518160000160006101000a81548173ffffffffffffffffffffffffffffffffffffffff021916908373ffffffffffffffffffffffffffffffffffffffff1602179055506020820151816001019081610bf491906150a3565b506040820151816002019081610c0a91906150a3565b506060820151816003019080519060200190610c27929190613b07565b505050505b8080610c37906154b0565b91505061096c565b50600360009054906101000a900473ffffffffffffffffffffffffffffffffffffffff1673ffffffffffffffffffffffffffffffffffffffff1663c47ebddc338560000151336040518463ffffffff1660e01b8152600401610ca393929190615590565b600060405180830381600087803b158015610cbd57600080fd5b505af1158015610cd1573d6000803e3d6000fd5b505050505b505050565b610ce3613b60565b8273ffffffffffffffffffffffffffffffffffffffff163373ffffffffffffffffffffffffffffffffffffffff1603611143576000808054905067ffffffffffffffff811115610d3657610d35613da2565b5b604051908082528060200260200182016040528015610d6f57816020015b610d5c613b7c565b815260200190600190039081610d545790505b5090506000805b600080549050811015611113578573ffffffffffffffffffffffffffffffffffffffff1660008281548110610dae57610dad6153b8565b5b906000526020600020906004020160000160009054906101000a900473ffffffffffffffffffffffffffffffffffffffff1673ffffffffffffffffffffffffffffffffffffffff16148015610f695750600160009054906101000a900473ffffffffffffffffffffffffffffffffffffffff1673ffffffffffffffffffffffffffffffffffffffff1662438ceb60008381548110610e4f57610e4e6153b8565b5b90600052602060002090600402016001016040518263ffffffff1660e01b8152600401610e7c9190615678565b600060405180830381865afa158015610e99573d6000803e3d6000fd5b505050506040513d6000823e3d601f19601f82011682018060405250810190610ec29190614cb6565b60200151604051602001610ed69190614d30565b6040516020818303038152906040528051906020012085604051602001610efd9190614d30565b604051602081830303815290604052805190602001201480610f685750604051602001610f29906156bd565b6040516020818303038152906040528051906020012085604051602001610f509190614d30565b60405160208183030381529060405280519060200120145b5b15611100576000808281548110610f8357610f826153b8565b5b90600052602060002090600402016001018054610f9f90614ebc565b80601f0160208091040260200160405190810160405280929190818152602001828054610fcb90614ebc565b80156110185780601f10610fed57610100808354040283529160200191611018565b820191906000526020600020905b815481529060010190602001808311610ffb57829003601f168201915b505050505090506000600160009054906101000a900473ffffffffffffffffffffffffffffffffffffffff1673ffffffffffffffffffffffffffffffffffffffff166347eb6fa783896040518363ffffffff1660e01b815260040161107e9291906156d2565b600060405180830381865afa15801561109b573d6000803e3d6000fd5b505050506040513d6000823e3d601f19601f820116820180604052508101906110c49190615943565b9050600081602001519050808686815181106110e3576110e26153b8565b5b602002602001018190525084806110f9906154b0565b9550505050505b808061110b906154b0565b915050610d76565b508082526000811461114057604051806040016040528060011515815260200183815250925050506111b2565b50505b6040518060400160405280600015158152602001600067ffffffffffffffff81111561117257611171613da2565b5b6040519080825280602002602001820160405280156111ab57816020015b611198613b7c565b8152602001906001900390816111905790505b5081525090505b92915050565b6111c0613bde565b6111c982611c48565b80156112c157506040516020016111df90614b2d565b60405160208183030381529060405280519060200120600160009054906101000a900473ffffffffffffffffffffffffffffffffffffffff1673ffffffffffffffffffffffffffffffffffffffff1662438ceb846040518263ffffffff1660e01b815260040161124f9190614b8c565b600060405180830381865afa15801561126c573d6000803e3d6000fd5b505050506040513d6000823e3d601f19601f820116820180604052508101906112959190614cb6565b602001516040516020016112a99190614d30565b60405160208183030381529060405280519060200120145b156115025760005b600080549050811015611500576113d484600083815481106112ee576112ed6153b8565b5b906000526020600020906004020160000160009054906101000a900473ffffffffffffffffffffffffffffffffffffffff168560008581548110611335576113346153b8565b5b9060005260206000209060040201600101805461135190614ebc565b80601f016020809104026020016040519081016040528092919081815260200182805461137d90614ebc565b80156113ca5780601f1061139f576101008083540402835291602001916113ca565b820191906000526020600020905b8154815290600101906020018083116113ad57829003601f168201915b5050505050611e80565b156114ed57604051806040016040528060011515815260200160008381548110611401576114006153b8565b5b9060005260206000209060040201600301805480602002602001604051908101604052809291908181526020016000905b828210156114de57838290600052602060002001805461145190614ebc565b80601f016020809104026020016040519081016040528092919081815260200182805461147d90614ebc565b80156114ca5780601f1061149f576101008083540402835291602001916114ca565b820191906000526020600020905b8154815290600101906020018083116114ad57829003601f168201915b505050505081526020019060010190611432565b5050505081525091505061156b565b80806114f8906154b0565b9150506112c9565b505b6040518060400160405280600015158152602001600067ffffffffffffffff81111561153157611530613da2565b5b60405190808252806020026020018201604052801561156457816020015b606081526020019060019003908161154f5790505b5081525090505b92915050565b600080600090505b600080549050811015611865576000600160009054906101000a900473ffffffffffffffffffffffffffffffffffffffff1673ffffffffffffffffffffffffffffffffffffffff1663f880680b600084815481106115da576115d96153b8565b5b90600052602060002090600402016001016040518263ffffffff1660e01b81526004016116079190615678565b600060405180830381865afa158015611624573d6000803e3d6000fd5b505050506040513d6000823e3d601f19601f8201168201806040525081019061164d9190614cb6565b6020015190506000600160009054906101000a900473ffffffffffffffffffffffffffffffffffffffff1673ffffffffffffffffffffffffffffffffffffffff1662438ceb600085815481106116a6576116a56153b8565b5b90600052602060002090600402016001016040518263ffffffff1660e01b81526004016116d39190615678565b600060405180830381865afa1580156116f0573d6000803e3d6000fd5b505050506040513d6000823e3d601f19601f820116820180604052508101906117199190614cb6565b6020015190508573ffffffffffffffffffffffffffffffffffffffff166000848154811061174a576117496153b8565b5b906000526020600020906004020160000160009054906101000a900473ffffffffffffffffffffffffffffffffffffffff1673ffffffffffffffffffffffffffffffffffffffff161480156117ea5750846040516020016117ab9190614d30565b60405160208183030381529060405280519060200120826040516020016117d29190614d30565b60405160208183030381529060405280519060200120145b801561183f575060405160200161180090614b2d565b60405160208183030381529060405280519060200120816040516020016118279190614d30565b60405160208183030381529060405280519060200120145b15611850576001935050505061186b565b5050808061185d906154b0565b915050611579565b50600090505b92915050565b600061187c82611c48565b806118d45750600360009054906101000a900473ffffffffffffffffffffffffffffffffffffffff1673ffffffffffffffffffffffffffffffffffffffff163373ffffffffffffffffffffffffffffffffffffffff16145b15611a0b5760005b600080549050811015611a09576119e78460008381548110611901576119006153b8565b5b906000526020600020906004020160000160009054906101000a900473ffffffffffffffffffffffffffffffffffffffff168560008581548110611948576119476153b8565b5b9060005260206000209060040201600101805461196490614ebc565b80601f016020809104026020016040519081016040528092919081815260200182805461199090614ebc565b80156119dd5780601f106119b2576101008083540402835291602001916119dd565b820191906000526020600020905b8154815290600101906020018083116119c057829003601f168201915b5050505050611e80565b156119f6576001915050611a10565b8080611a01906154b0565b9150506118dc565b505b600090505b92915050565b60008273ffffffffffffffffffffffffffffffffffffffff163373ffffffffffffffffffffffffffffffffffffffff1614158015611aef5750600160009054906101000a900473ffffffffffffffffffffffffffffffffffffffff1673ffffffffffffffffffffffffffffffffffffffff166352a9baef84846040518363ffffffff1660e01b8152600401611aac92919061598c565b602060405180830381865afa158015611ac9573d6000803e3d6000fd5b505050506040513d601f19601f82011682018060405250810190611aed9190614e60565b155b8015611b375750611b3633836040518060400160405280600581526020017f7368617265000000000000000000000000000000000000000000000000000000815250612b18565b5b8015611c2f5750604051602001611b4d90614b2d565b60405160208183030381529060405280519060200120600160009054906101000a900473ffffffffffffffffffffffffffffffffffffffff1673ffffffffffffffffffffffffffffffffffffffff1662438ceb846040518263ffffffff1660e01b8152600401611bbd9190614b8c565b600060405180830381865afa158015611bda573d6000803e3d6000fd5b505050506040513d6000823e3d601f19601f82011682018060405250810190611c039190614cb6565b60200151604051602001611c179190614d30565b60405160208183030381529060405280519060200120145b15611c3d5760019050611c42565b600090505b92915050565b600080600090505b600080549050811015611e7557611d5b3360008381548110611c7557611c746153b8565b5b906000526020600020906004020160000160009054906101000a900473ffffffffffffffffffffffffffffffffffffffff168560008581548110611cbc57611cbb6153b8565b5b90600052602060002090600402016001018054611cd890614ebc565b80601f0160208091040260200160405190810160405280929190818152602001828054611d0490614ebc565b8015611d515780601f10611d2657610100808354040283529160200191611d51565b820191906000526020600020905b815481529060010190602001808311611d3457829003601f168201915b5050505050611e80565b8015611e535750604051602001611d7190614b2d565b60405160208183030381529060405280519060200120600160009054906101000a900473ffffffffffffffffffffffffffffffffffffffff1673ffffffffffffffffffffffffffffffffffffffff1662438ceb856040518263ffffffff1660e01b8152600401611de19190614b8c565b600060405180830381865afa158015611dfe573d6000803e3d6000fd5b505050506040513d6000823e3d601f19601f82011682018060405250810190611e279190614cb6565b60200151604051602001611e3b9190614d30565b60405160208183030381529060405280519060200120145b15611e62576001915050611e7b565b8080611e6d906154b0565b915050611c50565b50600090505b919050565b60008473ffffffffffffffffffffffffffffffffffffffff168473ffffffffffffffffffffffffffffffffffffffff16148015611f08575082604051602001611ec99190614d30565b6040516020818303038152906040528051906020012082604051602001611ef09190614d30565b60405160208183030381529060405280519060200120145b9050949350505050565b6000600160009054906101000a900473ffffffffffffffffffffffffffffffffffffffff16905090565b8073ffffffffffffffffffffffffffffffffffffffff163373ffffffffffffffffffffffffffffffffffffffff16148015611fb35750611fb281836040518060400160405280600881526020017f646f776e6c6f6164000000000000000000000000000000000000000000000000815250612b18565b5b80156120ab5750604051602001611fc990614b2d565b60405160208183030381529060405280519060200120600160009054906101000a900473ffffffffffffffffffffffffffffffffffffffff1673ffffffffffffffffffffffffffffffffffffffff1662438ceb846040518263ffffffff1660e01b81526004016120399190614b8c565b600060405180830381865afa158015612056573d6000803e3d6000fd5b505050506040513d6000823e3d601f19601f8201168201806040525081019061207f9190614cb6565b602001516040516020016120939190614d30565b60405160208183030381529060405280519060200120145b1561214257600360009054906101000a900473ffffffffffffffffffffffffffffffffffffffff1673ffffffffffffffffffffffffffffffffffffffff1663c47ebddc3384846040518463ffffffff1660e01b815260040161210f93929190615a08565b600060405180830381600087803b15801561212957600080fd5b505af115801561213d573d6000803e3d6000fd5b505050505b5050565b6000600260009054906101000a900473ffffffffffffffffffffffffffffffffffffffff16905090565b61217a8383611a16565b1561241a5760005b6000805490508110156124185761228d84600083815481106121a7576121a66153b8565b5b906000526020600020906004020160000160009054906101000a900473ffffffffffffffffffffffffffffffffffffffff1685600085815481106121ee576121ed6153b8565b5b9060005260206000209060040201600101805461220a90614ebc565b80601f016020809104026020016040519081016040528092919081815260200182805461223690614ebc565b80156122835780601f1061225857610100808354040283529160200191612283565b820191906000526020600020905b81548152906001019060200180831161226657829003601f168201915b5050505050611e80565b156124055781600082815481106122a7576122a66153b8565b5b906000526020600020906004020160030190805190602001906122cb929190613b07565b50600360009054906101000a900473ffffffffffffffffffffffffffffffffffffffff1673ffffffffffffffffffffffffffffffffffffffff1663c47ebddc338587600460009054906101000a900473ffffffffffffffffffffffffffffffffffffffff1673ffffffffffffffffffffffffffffffffffffffff16636bb8d768886040518263ffffffff1660e01b81526004016123689190615175565b600060405180830381865afa158015612385573d6000803e3d6000fd5b505050506040513d6000823e3d601f19601f820116820180604052508101906123ae9190615197565b6040518563ffffffff1660e01b81526004016123cd9493929190615ab8565b600060405180830381600087803b1580156123e757600080fd5b505af11580156123fb573d6000803e3d6000fd5b505050505061241b565b8080612410906154b0565b915050612182565b505b5b505050565b612428613bfa565b8273ffffffffffffffffffffffffffffffffffffffff163373ffffffffffffffffffffffffffffffffffffffff1614801561246957506124688383611871565b5b8015612561575060405160200161247f90614b2d565b60405160208183030381529060405280519060200120600160009054906101000a900473ffffffffffffffffffffffffffffffffffffffff1673ffffffffffffffffffffffffffffffffffffffff1662438ceb846040518263ffffffff1660e01b81526004016124ef9190614b8c565b600060405180830381865afa15801561250c573d6000803e3d6000fd5b505050506040513d6000823e3d601f19601f820116820180604052508101906125359190614cb6565b602001516040516020016125499190614d30565b60405160208183030381529060405280519060200120145b1561275b5760005b60008054905081101561275957612674846000838154811061258e5761258d6153b8565b5b906000526020600020906004020160000160009054906101000a900473ffffffffffffffffffffffffffffffffffffffff1685600085815481106125d5576125d46153b8565b5b906000526020600020906004020160010180546125f190614ebc565b80601f016020809104026020016040519081016040528092919081815260200182805461261d90614ebc565b801561266a5780601f1061263f5761010080835404028352916020019161266a565b820191906000526020600020905b81548152906001019060200180831161264d57829003601f168201915b5050505050611e80565b15612746576040518060400160405280600115158152602001600083815481106126a1576126a06153b8565b5b906000526020600020906004020160020180546126bd90614ebc565b80601f01602080910402602001604051908101604052809291908181526020018280546126e990614ebc565b80156127365780601f1061270b57610100808354040283529160200191612736565b820191906000526020600020905b81548152906001019060200180831161271957829003601f168201915b5050505050815250915050612785565b8080612751906154b0565b915050612569565b505b60405180604001604052806000151581526020016040518060200160405280600081525081525090505b92915050565b60008273ffffffffffffffffffffffffffffffffffffffff163373ffffffffffffffffffffffffffffffffffffffff16141580156128645750600160009054906101000a900473ffffffffffffffffffffffffffffffffffffffff1673ffffffffffffffffffffffffffffffffffffffff166352a9baef84846040518363ffffffff1660e01b815260040161282192919061598c565b602060405180830381865afa15801561283e573d6000803e3d6000fd5b505050506040513d601f19601f820116820180604052508101906128629190614e60565b155b80156128ac57506128ab33836040518060400160405280600581526020017f7368617265000000000000000000000000000000000000000000000000000000815250612b18565b5b80156128bf57506128bd8383611871565b155b80156129635750600160009054906101000a900473ffffffffffffffffffffffffffffffffffffffff1673ffffffffffffffffffffffffffffffffffffffff16639bccd6ad836040518263ffffffff1660e01b81526004016129219190614b8c565b602060405180830381865afa15801561293e573d6000803e3d6000fd5b505050506040513d601f19601f820116820180604052508101906129629190614e60565b5b8015612a5b575060405160200161297990614b2d565b60405160208183030381529060405280519060200120600160009054906101000a900473ffffffffffffffffffffffffffffffffffffffff1673ffffffffffffffffffffffffffffffffffffffff1662438ceb846040518263ffffffff1660e01b81526004016129e99190614b8c565b600060405180830381865afa158015612a06573d6000803e3d6000fd5b505050506040513d6000823e3d601f19601f82011682018060405250810190612a2f9190614cb6565b60200151604051602001612a439190614d30565b60405160208183030381529060405280519060200120145b8015612aff5750600260009054906101000a900473ffffffffffffffffffffffffffffffffffffffff1673ffffffffffffffffffffffffffffffffffffffff1663a240e426846040518263ffffffff1660e01b8152600401612abd919061485f565b602060405180830381865afa158015612ada573d6000803e3d6000fd5b505050506040513d601f19601f82011682018060405250810190612afe9190614e60565b5b15612b0d5760019050612b12565b600090505b92915050565b6000600115612bcd576000612b2d85856111b8565b60200151905060005b8151811015612bca5783604051602001612b509190614d30565b60405160208183030381529060405280519060200120828281518110612b7957612b786153b8565b5b6020026020010151604051602001612b919190614d30565b6040516020818303038152906040528051906020012003612bb757600192505050612bd2565b8080612bc2906154b0565b915050612b36565b50505b600090505b9392505050565b6000600360009054906101000a900473ffffffffffffffffffffffffffffffffffffffff16905090565b600080600160009054906101000a900473ffffffffffffffffffffffffffffffffffffffff1673ffffffffffffffffffffffffffffffffffffffff16637113c4dd846040518263ffffffff1660e01b8152600401612c619190614b8c565b600060405180830381865afa158015612c7e573d6000803e3d6000fd5b505050506040513d6000823e3d601f19601f82011682018060405250810190612ca79190615bd3565b905060005b600080549050811015612e065760005b8251811015612df2578573ffffffffffffffffffffffffffffffffffffffff1660008381548110612cf057612cef6153b8565b5b906000526020600020906004020160000160009054906101000a900473ffffffffffffffffffffffffffffffffffffffff1673ffffffffffffffffffffffffffffffffffffffff16148015612dce5750828181518110612d5357612d526153b8565b5b6020026020010151604051602001612d6b9190614d30565b6040516020818303038152906040528051906020012060008381548110612d9557612d946153b8565b5b9060005260206000209060040201600101604051602001612db6919061546a565b60405160208183030381529060405280519060200120145b15612ddf5760019350505050612e0d565b8080612dea906154b0565b915050612cbc565b508080612dfe906154b0565b915050612cac565b5060009150505b92915050565b612e5333826040518060400160405280600681526020017f64656c6574650000000000000000000000000000000000000000000000000000815250612b18565b8015612f4b5750604051602001612e6990614b2d565b60405160208183030381529060405280519060200120600160009054906101000a900473ffffffffffffffffffffffffffffffffffffffff1673ffffffffffffffffffffffffffffffffffffffff1662438ceb836040518263ffffffff1660e01b8152600401612ed99190614b8c565b600060405180830381865afa158015612ef6573d6000803e3d6000fd5b505050506040513d6000823e3d601f19601f82011682018060405250810190612f1f9190614cb6565b60200151604051602001612f339190614d30565b60405160208183030381529060405280519060200120145b1561306f57600160009054906101000a900473ffffffffffffffffffffffffffffffffffffffff1673ffffffffffffffffffffffffffffffffffffffff166374546fdf826040518263ffffffff1660e01b8152600401612fab9190614b8c565b600060405180830381600087803b158015612fc557600080fd5b505af1158015612fd9573d6000803e3d6000fd5b50505050600360009054906101000a900473ffffffffffffffffffffffffffffffffffffffff1673ffffffffffffffffffffffffffffffffffffffff1663c47ebddc3383856040518463ffffffff1660e01b815260040161303c93929190615c68565b600060405180830381600087803b15801561305657600080fd5b505af115801561306a573d6000803e3d6000fd5b505050505b5050565b60005b600080549050811015613373578273ffffffffffffffffffffffffffffffffffffffff16600082815481106130ae576130ad6153b8565b5b906000526020600020906004020160000160009054906101000a900473ffffffffffffffffffffffffffffffffffffffff1673ffffffffffffffffffffffffffffffffffffffff16148015613142575081805190602001206000828154811061311a576131196153b8565b5b90600052602060002090600402016001016040516131389190615d6f565b6040518091039020145b15613360576000600160008054905061315b9190615d86565b8154811061316c5761316b6153b8565b5b90600052602060002090600402016000828154811061318e5761318d6153b8565b5b90600052602060002090600402016000820160009054906101000a900473ffffffffffffffffffffffffffffffffffffffff168160000160006101000a81548173ffffffffffffffffffffffffffffffffffffffff021916908373ffffffffffffffffffffffffffffffffffffffff160217905550600182018160010190816132179190615dd0565b506002820181600201908161322c9190615dd0565b506003820181600301908054613243929190613c16565b50905050600080548061325957613258615eb8565b5b6001900381819060005260206000209060040201600080820160006101000a81549073ffffffffffffffffffffffffffffffffffffffff02191690556001820160006132a59190613c73565b6002820160006132b59190613c73565b6003820160006132c59190613cb3565b50509055600360009054906101000a900473ffffffffffffffffffffffffffffffffffffffff1673ffffffffffffffffffffffffffffffffffffffff1663c47ebddc3384866040518463ffffffff1660e01b815260040161332893929190615f33565b600060405180830381600087803b15801561334257600080fd5b505af1158015613356573d6000803e3d6000fd5b5050505050613375565b808061336b906154b0565b915050613076565b505b5050565b60008273ffffffffffffffffffffffffffffffffffffffff163373ffffffffffffffffffffffffffffffffffffffff161480156133bd57506133bb8383611871565b155b80156134615750600260009054906101000a900473ffffffffffffffffffffffffffffffffffffffff1673ffffffffffffffffffffffffffffffffffffffff1663a240e426846040518263ffffffff1660e01b815260040161341f919061485f565b602060405180830381865afa15801561343c573d6000803e3d6000fd5b505050506040513d601f19601f820116820180604052508101906134609190614e60565b5b1561346f5760019050613474565b600090505b92915050565b60006134bc33836040518060400160405280600481526020017f6564697400000000000000000000000000000000000000000000000000000000815250612b18565b80156135b457506040516020016134d290614b2d565b60405160208183030381529060405280519060200120600160009054906101000a900473ffffffffffffffffffffffffffffffffffffffff1673ffffffffffffffffffffffffffffffffffffffff1662438ceb846040518263ffffffff1660e01b81526004016135429190614b8c565b600060405180830381865afa15801561355f573d6000803e3d6000fd5b505050506040513d6000823e3d601f19601f820116820180604052508101906135889190614cb6565b6020015160405160200161359c9190614d30565b60405160208183030381529060405280519060200120145b156135c257600190506135c7565b600090505b919050565b6135da838360000151613379565b15613b02576000600467ffffffffffffffff8111156135fc576135fb613da2565b5b60405190808252806020026020018201604052801561362f57816020015b606081526020019060019003908161361a5790505b5090506040518060400160405280600581526020017f73686172650000000000000000000000000000000000000000000000000000008152508160008151811061367c5761367b6153b8565b5b60200260200101819052506040518060400160405280600881526020017f646f776e6c6f6164000000000000000000000000000000000000000000000000815250816001815181106136d1576136d06153b8565b5b60200260200101819052506040518060400160405280600681526020017f64656c657465000000000000000000000000000000000000000000000000000081525081600281518110613726576137256153b8565b5b60200260200101819052506040518060400160405280600481526020017f65646974000000000000000000000000000000000000000000000000000000008152508160038151811061377b5761377a6153b8565b5b60200260200101819052506000600460009054906101000a900473ffffffffffffffffffffffffffffffffffffffff1673ffffffffffffffffffffffffffffffffffffffff16631c209e7c86866000015186868960e001516040518663ffffffff1660e01b81526004016137f3959493929190615f97565b602060405180830381865afa158015613810573d6000803e3d6000fd5b505050506040513d601f19601f820116820180604052508101906138349190614e60565b90508015613aff57600160009054906101000a900473ffffffffffffffffffffffffffffffffffffffff1673ffffffffffffffffffffffffffffffffffffffff1663bfddc42f856040518263ffffffff1660e01b81526004016138979190616006565b600060405180830381600087803b1580156138b157600080fd5b505af11580156138c5573d6000803e3d6000fd5b50505050600060405180608001604052808773ffffffffffffffffffffffffffffffffffffffff16815260200186600001518152602001858152602001848152509050600081908060018154018082558091505060019003906000526020600020906004020160009091909190915060008201518160000160006101000a81548173ffffffffffffffffffffffffffffffffffffffff021916908373ffffffffffffffffffffffffffffffffffffffff160217905550602082015181600101908161399091906150a3565b5060408201518160020190816139a691906150a3565b5060608201518160030190805190602001906139c3929190613b07565b505050600360009054906101000a900473ffffffffffffffffffffffffffffffffffffffff1673ffffffffffffffffffffffffffffffffffffffff1663c47ebddc33876000015189600460009054906101000a900473ffffffffffffffffffffffffffffffffffffffff1673ffffffffffffffffffffffffffffffffffffffff16636bb8d768896040518263ffffffff1660e01b8152600401613a669190615175565b600060405180830381865afa158015613a83573d6000803e3d6000fd5b505050506040513d6000823e3d601f19601f82011682018060405250810190613aac9190615197565b6040518563ffffffff1660e01b8152600401613acb9493929190616074565b600060405180830381600087803b158015613ae557600080fd5b505af1158015613af9573d6000803e3d6000fd5b50505050505b50505b505050565b828054828255906000526020600020908101928215613b4f579160200282015b82811115613b4e578251829081613b3e91906150a3565b5091602001919060010190613b27565b5b509050613b5c9190613cd4565b5090565b6040518060400160405280600015158152602001606081525090565b60405180610120016040528060608152602001606081526020016000815260200160608152602001600073ffffffffffffffffffffffffffffffffffffffff168152602001606081526020016060815260200160608152602001606081525090565b6040518060400160405280600015158152602001606081525090565b6040518060400160405280600015158152602001606081525090565b828054828255906000526020600020908101928215613c625760005260206000209182015b82811115613c615782829081613c519190615dd0565b5091600101919060010190613c3b565b5b509050613c6f9190613cd4565b5090565b508054613c7f90614ebc565b6000825580601f10613c915750613cb0565b601f016020900490600052602060002090810190613caf9190613cf8565b5b50565b5080546000825590600052602060002090810190613cd19190613cd4565b50565b5b80821115613cf45760008181613ceb9190613c73565b50600101613cd5565b5090565b5b80821115613d11576000816000905550600101613cf9565b5090565b6000604051905090565b600080fd5b600080fd5b600073ffffffffffffffffffffffffffffffffffffffff82169050919050565b6000613d5482613d29565b9050919050565b613d6481613d49565b8114613d6f57600080fd5b50565b600081359050613d8181613d5b565b92915050565b600080fd5b600080fd5b6000601f19601f8301169050919050565b7f4e487b7100000000000000000000000000000000000000000000000000000000600052604160045260246000fd5b613dda82613d91565b810181811067ffffffffffffffff82111715613df957613df8613da2565b5b80604052505050565b6000613e0c613d15565b9050613e188282613dd1565b919050565b600067ffffffffffffffff821115613e3857613e37613da2565b5b613e4182613d91565b9050602081019050919050565b82818337600083830152505050565b6000613e70613e6b84613e1d565b613e02565b905082815260208101848484011115613e8c57613e8b613d8c565b5b613e97848285613e4e565b509392505050565b600082601f830112613eb457613eb3613d87565b5b8135613ec4848260208601613e5d565b91505092915050565b600067ffffffffffffffff821115613ee857613ee7613da2565b5b602082029050602081019050919050565b600080fd5b6000613f11613f0c84613ecd565b613e02565b90508083825260208201905060208402830185811115613f3457613f33613ef9565b5b835b81811015613f7b57803567ffffffffffffffff811115613f5957613f58613d87565b5b808601613f668982613e9f565b85526020850194505050602081019050613f36565b5050509392505050565b600082601f830112613f9a57613f99613d87565b5b8135613faa848260208601613efe565b91505092915050565b60008060008060808587031215613fcd57613fcc613d1f565b5b6000613fdb87828801613d72565b945050602085013567ffffffffffffffff811115613ffc57613ffb613d24565b5b61400887828801613e9f565b935050604085013567ffffffffffffffff81111561402957614028613d24565b5b61403587828801613e9f565b925050606085013567ffffffffffffffff81111561405657614055613d24565b5b61406287828801613f85565b91505092959194509250565b600080fd5b600080fd5b6000819050919050565b61408b81614078565b811461409657600080fd5b50565b6000813590506140a881614082565b92915050565b600061012082840312156140c5576140c461406e565b5b6140d0610120613e02565b9050600082013567ffffffffffffffff8111156140f0576140ef614073565b5b6140fc84828501613e9f565b600083015250602082013567ffffffffffffffff8111156141205761411f614073565b5b61412c84828501613e9f565b602083015250604061414084828501614099565b604083015250606082013567ffffffffffffffff81111561416457614163614073565b5b61417084828501613e9f565b606083015250608061418484828501613d72565b60808301525060a082013567ffffffffffffffff8111156141a8576141a7614073565b5b6141b484828501613e9f565b60a08301525060c082013567ffffffffffffffff8111156141d8576141d7614073565b5b6141e484828501613e9f565b60c08301525060e082013567ffffffffffffffff81111561420857614207614073565b5b61421484828501613e9f565b60e08301525061010082013567ffffffffffffffff81111561423957614238614073565b5b61424584828501613e9f565b6101008301525092915050565b60008060006060848603121561426b5761426a613d1f565b5b600084013567ffffffffffffffff81111561428957614288613d24565b5b614295868287016140ae565b935050602084013567ffffffffffffffff8111156142b6576142b5613d24565b5b6142c2868287016140ae565b925050604084013567ffffffffffffffff8111156142e3576142e2613d24565b5b6142ef86828701613e9f565b9150509250925092565b600080604083850312156143105761430f613d1f565b5b600061431e85828601613d72565b925050602083013567ffffffffffffffff81111561433f5761433e613d24565b5b61434b85828601613e9f565b9150509250929050565b60008115159050919050565b61436a81614355565b82525050565b600081519050919050565b600082825260208201905092915050565b6000819050602082019050919050565b600081519050919050565b600082825260208201905092915050565b60005b838110156143d65780820151818401526020810190506143bb565b60008484015250505050565b60006143ed8261439c565b6143f781856143a7565b93506144078185602086016143b8565b61441081613d91565b840191505092915050565b61442481614078565b82525050565b61443381613d49565b82525050565b600061012083016000830151848203600086015261445782826143e2565b9150506020830151848203602086015261447182826143e2565b9150506040830151614486604086018261441b565b506060830151848203606086015261449e82826143e2565b91505060808301516144b3608086018261442a565b5060a083015184820360a08601526144cb82826143e2565b91505060c083015184820360c08601526144e582826143e2565b91505060e083015184820360e08601526144ff82826143e2565b91505061010083015184820361010086015261451b82826143e2565b9150508091505092915050565b60006145348383614439565b905092915050565b6000602082019050919050565b600061455482614370565b61455e818561437b565b9350836020820285016145708561438c565b8060005b858110156145ac578484038952815161458d8582614528565b94506145988361453c565b925060208a01995050600181019050614574565b50829750879550505050505092915050565b60006040830160008301516145d66000860182614361565b50602083015184820360208601526145ee8282614549565b9150508091505092915050565b6000602082019050818103600083015261461581846145be565b905092915050565b600081519050919050565b600082825260208201905092915050565b6000819050602082019050919050565b600061465583836143e2565b905092915050565b6000602082019050919050565b60006146758261461d565b61467f8185614628565b93508360208202850161469185614639565b8060005b858110156146cd57848403895281516146ae8582614649565b94506146b98361465d565b925060208a01995050600181019050614695565b50829750879550505050505092915050565b60006040830160008301516146f76000860182614361565b506020830151848203602086015261470f828261466a565b9150508091505092915050565b6000602082019050818103600083015261473681846146df565b905092915050565b61474781614355565b82525050565b6000602082019050614762600083018461473e565b92915050565b60006020828403121561477e5761477d613d1f565b5b600082013567ffffffffffffffff81111561479c5761479b613d24565b5b6147a884828501613e9f565b91505092915050565b600080600080608085870312156147cb576147ca613d1f565b5b60006147d987828801613d72565b94505060206147ea87828801613d72565b935050604085013567ffffffffffffffff81111561480b5761480a613d24565b5b61481787828801613e9f565b925050606085013567ffffffffffffffff81111561483857614837613d24565b5b61484487828801613e9f565b91505092959194509250565b61485981613d49565b82525050565b60006020820190506148746000830184614850565b92915050565b6000806040838503121561489157614890613d1f565b5b600083013567ffffffffffffffff8111156148af576148ae613d24565b5b6148bb85828601613e9f565b92505060206148cc85828601613d72565b9150509250929050565b6000806000606084860312156148ef576148ee613d1f565b5b60006148fd86828701613d72565b935050602084013567ffffffffffffffff81111561491e5761491d613d24565b5b61492a86828701613e9f565b925050604084013567ffffffffffffffff81111561494b5761494a613d24565b5b61495786828701613f85565b9150509250925092565b60006040830160008301516149796000860182614361565b506020830151848203602086015261499182826143e2565b9150508091505092915050565b600060208201905081810360008301526149b88184614961565b905092915050565b6000806000606084860312156149d9576149d8613d1f565b5b60006149e786828701613d72565b935050602084013567ffffffffffffffff811115614a0857614a07613d24565b5b614a1486828701613e9f565b925050604084013567ffffffffffffffff811115614a3557614a34613d24565b5b614a4186828701613e9f565b9150509250925092565b600080600060608486031215614a6457614a63613d1f565b5b6000614a7286828701613d72565b935050602084013567ffffffffffffffff811115614a9357614a92613d24565b5b614a9f868287016140ae565b925050604084013567ffffffffffffffff811115614ac057614abf613d24565b5b614acc86828701613e9f565b9150509250925092565b600081905092915050565b7f6163746976650000000000000000000000000000000000000000000000000000600082015250565b6000614b17600683614ad6565b9150614b2282614ae1565b600682019050919050565b6000614b3882614b0a565b9150819050919050565b600082825260208201905092915050565b6000614b5e8261439c565b614b688185614b42565b9350614b788185602086016143b8565b614b8181613d91565b840191505092915050565b60006020820190508181036000830152614ba68184614b53565b905092915050565b614bb781614355565b8114614bc257600080fd5b50565b600081519050614bd481614bae565b92915050565b6000614bed614be884613e1d565b613e02565b905082815260208101848484011115614c0957614c08613d8c565b5b614c148482856143b8565b509392505050565b600082601f830112614c3157614c30613d87565b5b8151614c41848260208601614bda565b91505092915050565b600060408284031215614c6057614c5f61406e565b5b614c6a6040613e02565b90506000614c7a84828501614bc5565b600083015250602082015167ffffffffffffffff811115614c9e57614c9d614073565b5b614caa84828501614c1c565b60208301525092915050565b600060208284031215614ccc57614ccb613d1f565b5b600082015167ffffffffffffffff811115614cea57614ce9613d24565b5b614cf684828501614c4a565b91505092915050565b6000614d0a8261439c565b614d148185614ad6565b9350614d248185602086016143b8565b80840191505092915050565b6000614d3c8284614cff565b915081905092915050565b600082825260208201905092915050565b6000614d638261461d565b614d6d8185614d47565b935083602082028501614d7f85614639565b8060005b85811015614dbb5784840389528151614d9c8582614649565b9450614da78361465d565b925060208a01995050600181019050614d83565b50829750879550505050505092915050565b50565b6000614ddd600083614b42565b9150614de882614dcd565b600082019050919050565b600060a082019050614e086000830187614850565b8181036020830152614e1a8186614b53565b90508181036040830152614e2e8185614b53565b90508181036060830152614e428184614d58565b90508181036080830152614e5581614dd0565b905095945050505050565b600060208284031215614e7657614e75613d1f565b5b6000614e8484828501614bc5565b91505092915050565b7f4e487b7100000000000000000000000000000000000000000000000000000000600052602260045260246000fd5b60006002820490506001821680614ed457607f821691505b602082108103614ee757614ee6614e8d565b5b50919050565b60008190508160005260206000209050919050565b60006020601f8301049050919050565b600082821b905092915050565b600060088302614f4f7fffffffffffffffffffffffffffffffffffffffffffffffffffffffffffffffff82614f12565b614f598683614f12565b95508019841693508086168417925050509392505050565b6000819050919050565b6000819050919050565b6000614fa0614f9b614f9684614f71565b614f7b565b614f71565b9050919050565b6000819050919050565b614fba83614f85565b614fce614fc682614fa7565b848454614f1f565b825550505050565b600090565b614fe3614fd6565b614fee818484614fb1565b505050565b5b8181101561501257615007600082614fdb565b600181019050614ff4565b5050565b601f8211156150575761502881614eed565b61503184614f02565b81016020851015615040578190505b61505461504c85614f02565b830182614ff3565b50505b505050565b600082821c905092915050565b600061507a6000198460080261505c565b1980831691505092915050565b60006150938383615069565b9150826002028217905092915050565b6150ac8261439c565b67ffffffffffffffff8111156150c5576150c4613da2565b5b6150cf8254614ebc565b6150da828285615016565b600060209050601f83116001811461510d57600084156150fb578287015190505b6151058582615087565b86555061516d565b601f19841661511b86614eed565b60005b828110156151435784890151825560018201915060208501945060208101905061511e565b86831015615160578489015161515c601f891682615069565b8355505b6001600288020188555050505b505050505050565b6000602082019050818103600083015261518f8184614d58565b905092915050565b6000602082840312156151ad576151ac613d1f565b5b600082015167ffffffffffffffff8111156151cb576151ca613d24565b5b6151d784828501614c1c565b91505092915050565b7f7368617265000000000000000000000000000000000000000000000000000000600082015250565b6000615216600583614b42565b9150615221826151e0565b602082019050919050565b600060a0820190506152416000830187614850565b81810360208301526152538186614b53565b90506152626040830185614850565b81810360608301526152748184614b53565b9050818103608083015261528781615209565b905095945050505050565b60006101208301600083015184820360008601526152b082826143e2565b915050602083015184820360208601526152ca82826143e2565b91505060408301516152df604086018261441b565b50606083015184820360608601526152f782826143e2565b915050608083015161530c608086018261442a565b5060a083015184820360a086015261532482826143e2565b91505060c083015184820360c086015261533e82826143e2565b91505060e083015184820360e086015261535882826143e2565b91505061010083015184820361010086015261537482826143e2565b9150508091505092915050565b6000604082019050818103600083015261539b8185615292565b905081810360208301526153af8184615292565b90509392505050565b7f4e487b7100000000000000000000000000000000000000000000000000000000600052603260045260246000fd5b600081546153f481614ebc565b6153fe8186614ad6565b94506001821660008114615419576001811461542e57615461565b60ff1983168652811515820286019350615461565b61543785614eed565b60005b838110156154595781548189015260018201915060208101905061543a565b838801955050505b50505092915050565b600061547682846153e7565b915081905092915050565b7f4e487b7100000000000000000000000000000000000000000000000000000000600052601160045260246000fd5b60006154bb82614f71565b91507fffffffffffffffffffffffffffffffffffffffffffffffffffffffffffffffff82036154ed576154ec615481565b5b600182019050919050565b7f2d00000000000000000000000000000000000000000000000000000000000000600082015250565b600061552e600183614b42565b9150615539826154f8565b602082019050919050565b7f6564697400000000000000000000000000000000000000000000000000000000600082015250565b600061557a600483614b42565b915061558582615544565b602082019050919050565b600060a0820190506155a56000830186614850565b81810360208301526155b78185614b53565b90506155c66040830184614850565b81810360608301526155d781615521565b905081810360808301526155ea8161556d565b9050949350505050565b6000815461560181614ebc565b61560b8186614b42565b94506001821660008114615626576001811461563c5761566f565b60ff19831686528115156020028601935061566f565b61564585614eed565b60005b8381101561566757815481890152600182019150602081019050615648565b808801955050505b50505092915050565b6000602082019050818103600083015261569281846155f4565b905092915050565b60006156a7600083614ad6565b91506156b282614dcd565b600082019050919050565b60006156c88261569a565b9150819050919050565b600060408201905081810360008301526156ec8185614b53565b905081810360208301526157008184614b53565b90509392505050565b60008151905061571881614082565b92915050565b60008151905061572d81613d5b565b92915050565b6000610120828403121561574a5761574961406e565b5b615755610120613e02565b9050600082015167ffffffffffffffff81111561577557615774614073565b5b61578184828501614c1c565b600083015250602082015167ffffffffffffffff8111156157a5576157a4614073565b5b6157b184828501614c1c565b60208301525060406157c584828501615709565b604083015250606082015167ffffffffffffffff8111156157e9576157e8614073565b5b6157f584828501614c1c565b60608301525060806158098482850161571e565b60808301525060a082015167ffffffffffffffff81111561582d5761582c614073565b5b61583984828501614c1c565b60a08301525060c082015167ffffffffffffffff81111561585d5761585c614073565b5b61586984828501614c1c565b60c08301525060e082015167ffffffffffffffff81111561588d5761588c614073565b5b61589984828501614c1c565b60e08301525061010082015167ffffffffffffffff8111156158be576158bd614073565b5b6158ca84828501614c1c565b6101008301525092915050565b6000604082840312156158ed576158ec61406e565b5b6158f76040613e02565b9050600061590784828501614bc5565b600083015250602082015167ffffffffffffffff81111561592b5761592a614073565b5b61593784828501615733565b60208301525092915050565b60006020828403121561595957615958613d1f565b5b600082015167ffffffffffffffff81111561597757615976613d24565b5b615983848285016158d7565b91505092915050565b60006040820190506159a16000830185614850565b81810360208301526159b38184614b53565b90509392505050565b7f646f776e6c6f6164000000000000000000000000000000000000000000000000600082015250565b60006159f2600883614b42565b91506159fd826159bc565b602082019050919050565b600060a082019050615a1d6000830186614850565b8181036020830152615a2f8185614b53565b9050615a3e6040830184614850565b8181036060830152615a4f81615521565b90508181036080830152615a62816159e5565b9050949350505050565b7f757064617465207065726d697373696f6e730000000000000000000000000000600082015250565b6000615aa2601283614b42565b9150615aad82615a6c565b602082019050919050565b600060a082019050615acd6000830187614850565b8181036020830152615adf8186614b53565b9050615aee6040830185614850565b8181036060830152615b008184614b53565b90508181036080830152615b1381615a95565b905095945050505050565b6000615b31615b2c84613ecd565b613e02565b90508083825260208201905060208402830185811115615b5457615b53613ef9565b5b835b81811015615b9b57805167ffffffffffffffff811115615b7957615b78613d87565b5b808601615b868982614c1c565b85526020850194505050602081019050615b56565b5050509392505050565b600082601f830112615bba57615bb9613d87565b5b8151615bca848260208601615b1e565b91505092915050565b600060208284031215615be957615be8613d1f565b5b600082015167ffffffffffffffff811115615c0757615c06613d24565b5b615c1384828501615ba5565b91505092915050565b7f64656c6574656400000000000000000000000000000000000000000000000000600082015250565b6000615c52600783614b42565b9150615c5d82615c1c565b602082019050919050565b600060a082019050615c7d6000830186614850565b8181036020830152615c8f8185614b53565b9050615c9e6040830184614850565b8181036060830152615caf81615521565b90508181036080830152615cc281615c45565b9050949350505050565b600081905092915050565b60008190508160005260206000209050919050565b60008154615cf981614ebc565b615d038186615ccc565b94506001821660008114615d1e5760018114615d3357615d66565b60ff1983168652811515820286019350615d66565b615d3c85615cd7565b60005b83811015615d5e57815481890152600182019150602081019050615d3f565b838801955050505b50505092915050565b6000615d7b8284615cec565b915081905092915050565b6000615d9182614f71565b9150615d9c83614f71565b9250828203905081811115615db457615db3615481565b5b92915050565b600081549050615dc981614ebc565b9050919050565b818103615dde575050615eb6565b615de782615dba565b67ffffffffffffffff811115615e0057615dff613da2565b5b615e0a8254614ebc565b615e15828285615016565b6000601f831160018114615e445760008415615e32578287015490505b615e3c8582615087565b865550615eaf565b601f198416615e5287614eed565b9650615e5d86614eed565b60005b82811015615e8557848901548255600182019150600185019450602081019050615e60565b86831015615ea25784890154615e9e601f891682615069565b8355505b6001600288020188555050505b5050505050505b565b7f4e487b7100000000000000000000000000000000000000000000000000000000600052603160045260246000fd5b7f72656d6f76656420616363657373000000000000000000000000000000000000600082015250565b6000615f1d600e83614b42565b9150615f2882615ee7565b602082019050919050565b600060a082019050615f486000830186614850565b8181036020830152615f5a8185614b53565b9050615f696040830184614850565b8181036060830152615f7a81615521565b90508181036080830152615f8d81615f10565b9050949350505050565b600060a082019050615fac6000830188614850565b8181036020830152615fbe8187614b53565b90508181036040830152615fd28186614b53565b90508181036060830152615fe68185614d58565b90508181036080830152615ffa8184614b53565b90509695505050505050565b600060208201905081810360008301526160208184615292565b905092915050565b7f75706c6f61640000000000000000000000000000000000000000000000000000600082015250565b600061605e600683614b42565b915061606982616028565b602082019050919050565b600060a0820190506160896000830187614850565b818103602083015261609b8186614b53565b90506160aa6040830185614850565b81810360608301526160bc8184614b53565b905081810360808301526160cf81616051565b90509594505050505056fea26469706673582212209bfe19c2828b4da1a3b8e2a83a0d8fb33db389796726baf4ffc6b360dff604eb64736f6c6343000813003360806040523480156200001157600080fd5b5060405162003948380380620039488339818101604052810190620000379190620000e9565b80600260006101000a81548173ffffffffffffffffffffffffffffffffffffffff021916908373ffffffffffffffffffffffffffffffffffffffff160217905550506200011b565b600080fd5b600073ffffffffffffffffffffffffffffffffffffffff82169050919050565b6000620000b18262000084565b9050919050565b620000c381620000a4565b8114620000cf57600080fd5b50565b600081519050620000e381620000b8565b92915050565b6000602082840312156200010257620001016200007f565b5b60006200011284828501620000d2565b91505092915050565b61381d806200012b6000396000f3fe608060405234801561001057600080fd5b50600436106100e95760003560e01c806374546fdf1161008c578063bfddc42f11610066578063bfddc42f146102a6578063e5a83513146102c2578063e8d56b8b146102f2578063f880680b1461030e576100e9565b806374546fdf1461023e57806395f0f0bb1461025a5780639bccd6ad14610276576100e9565b80634907904b116100c85780634907904b1461017e57806352a9baef146101ae5780635a14f3ef146101de5780637113c4dd1461020e576100e9565b8062438ceb146100ee57806338fa8f581461011e57806347eb6fa71461014e575b600080fd5b6101086004803603810190610103919061278c565b61033e565b60405161011591906128ac565b60405180910390f35b6101386004803603810190610133919061278c565b610492565b604051610145919061290f565b60405180910390f35b6101686004803603810190610163919061292a565b610606565b6040516101759190612af6565b60405180910390f35b6101986004803603810190610193919061278c565b610c95565b6040516101a59190612b27565b60405180910390f35b6101c860048036038101906101c39190612b6e565b610e04565b6040516101d59190612bd9565b60405180910390f35b6101f860048036038101906101f39190612dce565b610ee8565b6040516102059190612bd9565b60405180910390f35b6102286004803603810190610223919061278c565b61100d565b6040516102359190612ed9565b60405180910390f35b6102586004803603810190610253919061278c565b6112af565b005b610274600480360381019061026f9190612efb565b61136c565b005b610290600480360381019061028b919061278c565b61161a565b60405161029d9190612bd9565b60405180910390f35b6102c060048036038101906102bb9190612dce565b6116be565b005b6102dc60048036038101906102d7919061278c565b6118ed565b6040516102e99190613072565b60405180910390f35b61030c60048036038101906103079190613094565b61234d565b005b6103286004803603810190610323919061278c565b612422565b60405161033591906128ac565b60405180910390f35b610346612576565b600360009054906101000a900473ffffffffffffffffffffffffffffffffffffffff1673ffffffffffffffffffffffffffffffffffffffff163373ffffffffffffffffffffffffffffffffffffffff16036104635760405180604001604052806001151581526020016000846040516103bf91906130fd565b908152602001604051809103902060070180546103db90613143565b80601f016020809104026020016040519081016040528092919081815260200182805461040790613143565b80156104545780601f1061042957610100808354040283529160200191610454565b820191906000526020600020905b81548152906001019060200180831161043757829003601f168201915b5050505050815250905061048d565b60405180604001604052806000151581526020016040518060200160405280600081525081525090505b919050565b600080600090505b6001805490508110156105fb57826040516020016104b891906130fd565b604051602081830303815290604052805190602001206000600183815481106104e4576104e3613174565b5b906000526020600020016040516104fb919061323b565b908152602001604051809103902060010160405160200161051c919061323b565b6040516020818303038152906040528051906020012014801561057c57506000806001838154811061055157610550613174565b5b90600052602060002001604051610568919061323b565b908152602001604051809103902060020154145b156105e85760006001828154811061059757610596613174565b5b906000526020600020016040516105ae919061323b565b908152602001604051809103902060040160009054906101000a900473ffffffffffffffffffffffffffffffffffffffff16915050610601565b80806105f39061328b565b91505061049a565b50600090505b919050565b61060e612592565b6000808460405161061f91906130fd565b9081526020016040518091039020600101805461063b90613143565b905011801561070957508160405160200161065691906130fd565b6040516020818303038152906040528051906020012060008460405161067c91906130fd565b908152602001604051809103902060070160405160200161069d919061323b565b60405160208183030381529060405280519060200120148061070857506040516020016106c9906132f9565b60405160208183030381529060405280519060200120826040516020016106f091906130fd565b60405160208183030381529060405280519060200120145b5b15610bb457604051806040016040528060011515815260200160008560405161073291906130fd565b90815260200160405180910390206040518061012001604052908160008201805461075c90613143565b80601f016020809104026020016040519081016040528092919081815260200182805461078890613143565b80156107d55780601f106107aa576101008083540402835291602001916107d5565b820191906000526020600020905b8154815290600101906020018083116107b857829003601f168201915b505050505081526020016001820180546107ee90613143565b80601f016020809104026020016040519081016040528092919081815260200182805461081a90613143565b80156108675780601f1061083c57610100808354040283529160200191610867565b820191906000526020600020905b81548152906001019060200180831161084a57829003601f168201915b505050505081526020016002820154815260200160038201805461088a90613143565b80601f01602080910402602001604051908101604052809291908181526020018280546108b690613143565b80156109035780601f106108d857610100808354040283529160200191610903565b820191906000526020600020905b8154815290600101906020018083116108e657829003601f168201915b505050505081526020016004820160009054906101000a900473ffffffffffffffffffffffffffffffffffffffff1673ffffffffffffffffffffffffffffffffffffffff1673ffffffffffffffffffffffffffffffffffffffff16815260200160058201805461097290613143565b80601f016020809104026020016040519081016040528092919081815260200182805461099e90613143565b80156109eb5780601f106109c0576101008083540402835291602001916109eb565b820191906000526020600020905b8154815290600101906020018083116109ce57829003601f168201915b50505050508152602001600682018054610a0490613143565b80601f0160208091040260200160405190810160405280929190818152602001828054610a3090613143565b8015610a7d5780601f10610a5257610100808354040283529160200191610a7d565b820191906000526020600020905b815481529060010190602001808311610a6057829003601f168201915b50505050508152602001600782018054610a9690613143565b80601f0160208091040260200160405190810160405280929190818152602001828054610ac290613143565b8015610b0f5780601f10610ae457610100808354040283529160200191610b0f565b820191906000526020600020905b815481529060010190602001808311610af257829003601f168201915b50505050508152602001600882018054610b2890613143565b80601f0160208091040260200160405190810160405280929190818152602001828054610b5490613143565b8015610ba15780601f10610b7657610100808354040283529160200191610ba1565b820191906000526020600020905b815481529060010190602001808311610b8457829003601f168201915b5050505050815250508152509050610c8f565b604051806040016040528060001515815260200160405180610120016040528060405180602001604052806000815250815260200160405180602001604052806000815250815260200160008152602001604051806020016040528060008152508152602001600073ffffffffffffffffffffffffffffffffffffffff1681526020016040518060200160405280600081525081526020016040518060200160405280600081525081526020016040518060200160405280600081525081526020016040518060200160405280600081525081525081525090505b92915050565b6000807fffffffffffffffffffffffffffffffffffffffffffffffffffffffffffffffff905060005b600180549050811015610dfa5783604051602001610cdc91906130fd565b60405160208183030381529060405280519060200120600060018381548110610d0857610d07613174565b5b90600052602060002001604051610d1f919061323b565b9081526020016040518091039020600101604051602001610d40919061323b565b60405160208183030381529060405280519060200120148015610da0575081600060018381548110610d7557610d74613174565b5b90600052602060002001604051610d8c919061323b565b908152602001604051809103902060020154135b15610de757600060018281548110610dbb57610dba613174565b5b90600052602060002001604051610dd2919061323b565b90815260200160405180910390206002015491505b8080610df29061328b565b915050610cbe565b5080915050919050565b60008273ffffffffffffffffffffffffffffffffffffffff16600083604051610e2d91906130fd565b908152602001604051809103902060040160009054906101000a900473ffffffffffffffffffffffffffffffffffffffff1673ffffffffffffffffffffffffffffffffffffffff16148015610ecf5750600360009054906101000a900473ffffffffffffffffffffffffffffffffffffffff1673ffffffffffffffffffffffffffffffffffffffff163373ffffffffffffffffffffffffffffffffffffffff16145b15610edd5760019050610ee2565b600090505b92915050565b6000610ef7826000015161161a565b158015610f9c5750600260009054906101000a900473ffffffffffffffffffffffffffffffffffffffff1673ffffffffffffffffffffffffffffffffffffffff16634294a5ad836040518263ffffffff1660e01b8152600401610f5a91906133fd565b602060405180830381865afa158015610f77573d6000803e3d6000fd5b505050506040513d601f19601f82011682018060405250810190610f9b919061344b565b5b8015610ff55750600360009054906101000a900473ffffffffffffffffffffffffffffffffffffffff1673ffffffffffffffffffffffffffffffffffffffff163373ffffffffffffffffffffffffffffffffffffffff16145b156110035760019050611008565b600090505b919050565b6060600060018054905067ffffffffffffffff8111156110305761102f612661565b5b60405190808252806020026020018201604052801561106357816020015b606081526020019060019003908161104e5790505b5090506000805b6001805490508110156112a1578460405160200161108891906130fd565b604051602081830303815290604052805190602001206000600183815481106110b4576110b3613174565b5b906000526020600020016040516110cb919061323b565b90815260200160405180910390206001016040516020016110ec919061323b565b604051602081830303815290604052805190602001201480156111955750604051602001611119906134c4565b6040516020818303038152906040528051906020012060006001838154811061114557611144613174565b5b9060005260206000200160405161115c919061323b565b908152602001604051809103902060070160405160200161117d919061323b565b60405160208183030381529060405280519060200120145b1561128e576000600182815481106111b0576111af613174565b5b906000526020600020016040516111c7919061323b565b908152602001604051809103902060000180546111e390613143565b80601f016020809104026020016040519081016040528092919081815260200182805461120f90613143565b801561125c5780601f106112315761010080835404028352916020019161125c565b820191906000526020600020905b81548152906001019060200180831161123f57829003601f168201915b505050505083838151811061127457611273613174565b5b6020026020010181905250818061128a9061328b565b9250505b80806112999061328b565b91505061106a565b508082528192505050919050565b600360009054906101000a900473ffffffffffffffffffffffffffffffffffffffff1673ffffffffffffffffffffffffffffffffffffffff163373ffffffffffffffffffffffffffffffffffffffff1603611369576040518060400160405280600881526020017f646561637469766500000000000000000000000000000000000000000000000081525060008260405161134a91906130fd565b908152602001604051809103902060070190816113679190613670565b505b50565b600360009054906101000a900473ffffffffffffffffffffffffffffffffffffffff1673ffffffffffffffffffffffffffffffffffffffff163373ffffffffffffffffffffffffffffffffffffffff1603611616576040518060400160405280600681526020017f65646974656400000000000000000000000000000000000000000000000000008152506000836000015160405161140b91906130fd565b908152602001604051809103902060070190816114289190613670565b508160800151816080019073ffffffffffffffffffffffffffffffffffffffff16908173ffffffffffffffffffffffffffffffffffffffff168152505081600001518160600181905250600182604001516114839190613742565b8160400181815250506040518060400160405280600681526020017f61637469766500000000000000000000000000000000000000000000000000008152508160e0018190525080600082600001516040516114df91906130fd565b908152602001604051809103902060008201518160000190816115029190613670565b5060208201518160010190816115189190613670565b506040820151816002015560608201518160030190816115389190613670565b5060808201518160040160006101000a81548173ffffffffffffffffffffffffffffffffffffffff021916908373ffffffffffffffffffffffffffffffffffffffff16021790555060a08201518160050190816115959190613670565b5060c08201518160060190816115ab9190613670565b5060e08201518160070190816115c19190613670565b506101008201518160080190816115d89190613670565b50905050600181600001519080600181540180825580915050600190039060005260206000200160009091909190915090816116149190613670565b505b5050565b60008060008360405161162d91906130fd565b9081526020016040518091039020600001805461164990613143565b9050141580156116a65750600360009054906101000a900473ffffffffffffffffffffffffffffffffffffffff1673ffffffffffffffffffffffffffffffffffffffff163373ffffffffffffffffffffffffffffffffffffffff16145b156116b457600190506116b9565b600090505b919050565b600360009054906101000a900473ffffffffffffffffffffffffffffffffffffffff1673ffffffffffffffffffffffffffffffffffffffff163373ffffffffffffffffffffffffffffffffffffffff16036118ea5761171c81610ee8565b156118e9576040518060400160405280600681526020017f61637469766500000000000000000000000000000000000000000000000000008152508160e001819052506040518060400160405280600181526020017f3000000000000000000000000000000000000000000000000000000000000000815250816060018190525080600082600001516040516117b291906130fd565b908152602001604051809103902060008201518160000190816117d59190613670565b5060208201518160010190816117eb9190613670565b5060408201518160020155606082015181600301908161180b9190613670565b5060808201518160040160006101000a81548173ffffffffffffffffffffffffffffffffffffffff021916908373ffffffffffffffffffffffffffffffffffffffff16021790555060a08201518160050190816118689190613670565b5060c082015181600601908161187e9190613670565b5060e08201518160070190816118949190613670565b506101008201518160080190816118ab9190613670565b50905050600181600001519080600181540180825580915050600190039060005260206000200160009091909190915090816118e79190613670565b505b5b50565b6118f56125b4565b600060018054905067ffffffffffffffff81111561191657611915612661565b5b60405190808252806020026020018201604052801561194f57816020015b61193c6125d0565b8152602001906001900390816119345790505b5090506000808460405161196391906130fd565b90815260200160405180910390206040518061012001604052908160008201805461198d90613143565b80601f01602080910402602001604051908101604052809291908181526020018280546119b990613143565b8015611a065780601f106119db57610100808354040283529160200191611a06565b820191906000526020600020905b8154815290600101906020018083116119e957829003601f168201915b50505050508152602001600182018054611a1f90613143565b80601f0160208091040260200160405190810160405280929190818152602001828054611a4b90613143565b8015611a985780601f10611a6d57610100808354040283529160200191611a98565b820191906000526020600020905b815481529060010190602001808311611a7b57829003601f168201915b5050505050815260200160028201548152602001600382018054611abb90613143565b80601f0160208091040260200160405190810160405280929190818152602001828054611ae790613143565b8015611b345780601f10611b0957610100808354040283529160200191611b34565b820191906000526020600020905b815481529060010190602001808311611b1757829003601f168201915b505050505081526020016004820160009054906101000a900473ffffffffffffffffffffffffffffffffffffffff1673ffffffffffffffffffffffffffffffffffffffff1673ffffffffffffffffffffffffffffffffffffffff168152602001600582018054611ba390613143565b80601f0160208091040260200160405190810160405280929190818152602001828054611bcf90613143565b8015611c1c5780601f10611bf157610100808354040283529160200191611c1c565b820191906000526020600020905b815481529060010190602001808311611bff57829003601f168201915b50505050508152602001600682018054611c3590613143565b80601f0160208091040260200160405190810160405280929190818152602001828054611c6190613143565b8015611cae5780601f10611c8357610100808354040283529160200191611cae565b820191906000526020600020905b815481529060010190602001808311611c9157829003601f168201915b50505050508152602001600782018054611cc790613143565b80601f0160208091040260200160405190810160405280929190818152602001828054611cf390613143565b8015611d405780601f10611d1557610100808354040283529160200191611d40565b820191906000526020600020905b815481529060010190602001808311611d2357829003601f168201915b50505050508152602001600882018054611d5990613143565b80601f0160208091040260200160405190810160405280929190818152602001828054611d8590613143565b8015611dd25780601f10611da757610100808354040283529160200191611dd2565b820191906000526020600020905b815481529060010190602001808311611db557829003601f168201915b505050505081525050905060005b604051602001611def906137d2565b604051602081830303815290604052805190602001208260600151604051602001611e1a91906130fd565b60405160208183030381529060405280519060200120146122fb5781838281518110611e4957611e48613174565b5b60200260200101819052508080611e5f9061328b565b915050600082606001519050600081604051611e7b91906130fd565b908152602001604051809103902060405180610120016040529081600082018054611ea590613143565b80601f0160208091040260200160405190810160405280929190818152602001828054611ed190613143565b8015611f1e5780601f10611ef357610100808354040283529160200191611f1e565b820191906000526020600020905b815481529060010190602001808311611f0157829003601f168201915b50505050508152602001600182018054611f3790613143565b80601f0160208091040260200160405190810160405280929190818152602001828054611f6390613143565b8015611fb05780601f10611f8557610100808354040283529160200191611fb0565b820191906000526020600020905b815481529060010190602001808311611f9357829003601f168201915b5050505050815260200160028201548152602001600382018054611fd390613143565b80601f0160208091040260200160405190810160405280929190818152602001828054611fff90613143565b801561204c5780601f106120215761010080835404028352916020019161204c565b820191906000526020600020905b81548152906001019060200180831161202f57829003601f168201915b505050505081526020016004820160009054906101000a900473ffffffffffffffffffffffffffffffffffffffff1673ffffffffffffffffffffffffffffffffffffffff1673ffffffffffffffffffffffffffffffffffffffff1681526020016005820180546120bb90613143565b80601f01602080910402602001604051908101604052809291908181526020018280546120e790613143565b80156121345780601f1061210957610100808354040283529160200191612134565b820191906000526020600020905b81548152906001019060200180831161211757829003601f168201915b5050505050815260200160068201805461214d90613143565b80601f016020809104026020016040519081016040528092919081815260200182805461217990613143565b80156121c65780601f1061219b576101008083540402835291602001916121c6565b820191906000526020600020905b8154815290600101906020018083116121a957829003601f168201915b505050505081526020016007820180546121df90613143565b80601f016020809104026020016040519081016040528092919081815260200182805461220b90613143565b80156122585780601f1061222d57610100808354040283529160200191612258565b820191906000526020600020905b81548152906001019060200180831161223b57829003601f168201915b5050505050815260200160088201805461227190613143565b80601f016020809104026020016040519081016040528092919081815260200182805461229d90613143565b80156122ea5780601f106122bf576101008083540402835291602001916122ea565b820191906000526020600020905b8154815290600101906020018083116122cd57829003601f168201915b505050505081525050925050611de0565b8183828151811061230f5761230e613174565b5b602002602001018190525080806123259061328b565b9150508083526040518060400160405280600115158152602001848152509350505050919050565b600073ffffffffffffffffffffffffffffffffffffffff168173ffffffffffffffffffffffffffffffffffffffff16141580156123d85750600073ffffffffffffffffffffffffffffffffffffffff16600360009054906101000a900473ffffffffffffffffffffffffffffffffffffffff1673ffffffffffffffffffffffffffffffffffffffff16145b1561241f5780600360006101000a81548173ffffffffffffffffffffffffffffffffffffffff021916908373ffffffffffffffffffffffffffffffffffffffff1602179055505b50565b61242a612576565b600360009054906101000a900473ffffffffffffffffffffffffffffffffffffffff1673ffffffffffffffffffffffffffffffffffffffff163373ffffffffffffffffffffffffffffffffffffffff16036125475760405180604001604052806001151581526020016000846040516124a391906130fd565b908152602001604051809103902060080180546124bf90613143565b80601f01602080910402602001604051908101604052809291908181526020018280546124eb90613143565b80156125385780601f1061250d57610100808354040283529160200191612538565b820191906000526020600020905b81548152906001019060200180831161251b57829003601f168201915b50505050508152509050612571565b60405180604001604052806000151581526020016040518060200160405280600081525081525090505b919050565b6040518060400160405280600015158152602001606081525090565b60405180604001604052806000151581526020016125ae6125d0565b81525090565b6040518060400160405280600015158152602001606081525090565b60405180610120016040528060608152602001606081526020016000815260200160608152602001600073ffffffffffffffffffffffffffffffffffffffff168152602001606081526020016060815260200160608152602001606081525090565b6000604051905090565b600080fd5b600080fd5b600080fd5b600080fd5b6000601f19601f8301169050919050565b7f4e487b7100000000000000000000000000000000000000000000000000000000600052604160045260246000fd5b61269982612650565b810181811067ffffffffffffffff821117156126b8576126b7612661565b5b80604052505050565b60006126cb612632565b90506126d78282612690565b919050565b600067ffffffffffffffff8211156126f7576126f6612661565b5b61270082612650565b9050602081019050919050565b82818337600083830152505050565b600061272f61272a846126dc565b6126c1565b90508281526020810184848401111561274b5761274a61264b565b5b61275684828561270d565b509392505050565b600082601f83011261277357612772612646565b5b813561278384826020860161271c565b91505092915050565b6000602082840312156127a2576127a161263c565b5b600082013567ffffffffffffffff8111156127c0576127bf612641565b5b6127cc8482850161275e565b91505092915050565b60008115159050919050565b6127ea816127d5565b82525050565b600081519050919050565b600082825260208201905092915050565b60005b8381101561282a57808201518184015260208101905061280f565b60008484015250505050565b6000612841826127f0565b61284b81856127fb565b935061285b81856020860161280c565b61286481612650565b840191505092915050565b600060408301600083015161288760008601826127e1565b506020830151848203602086015261289f8282612836565b9150508091505092915050565b600060208201905081810360008301526128c6818461286f565b905092915050565b600073ffffffffffffffffffffffffffffffffffffffff82169050919050565b60006128f9826128ce565b9050919050565b612909816128ee565b82525050565b60006020820190506129246000830184612900565b92915050565b600080604083850312156129415761294061263c565b5b600083013567ffffffffffffffff81111561295f5761295e612641565b5b61296b8582860161275e565b925050602083013567ffffffffffffffff81111561298c5761298b612641565b5b6129988582860161275e565b9150509250929050565b6000819050919050565b6129b5816129a2565b82525050565b6129c4816128ee565b82525050565b60006101208301600083015184820360008601526129e88282612836565b91505060208301518482036020860152612a028282612836565b9150506040830151612a1760408601826129ac565b5060608301518482036060860152612a2f8282612836565b9150506080830151612a4460808601826129bb565b5060a083015184820360a0860152612a5c8282612836565b91505060c083015184820360c0860152612a768282612836565b91505060e083015184820360e0860152612a908282612836565b915050610100830151848203610100860152612aac8282612836565b9150508091505092915050565b6000604083016000830151612ad160008601826127e1565b5060208301518482036020860152612ae982826129ca565b9150508091505092915050565b60006020820190508181036000830152612b108184612ab9565b905092915050565b612b21816129a2565b82525050565b6000602082019050612b3c6000830184612b18565b92915050565b612b4b816128ee565b8114612b5657600080fd5b50565b600081359050612b6881612b42565b92915050565b60008060408385031215612b8557612b8461263c565b5b6000612b9385828601612b59565b925050602083013567ffffffffffffffff811115612bb457612bb3612641565b5b612bc08582860161275e565b9150509250929050565b612bd3816127d5565b82525050565b6000602082019050612bee6000830184612bca565b92915050565b600080fd5b600080fd5b612c07816129a2565b8114612c1257600080fd5b50565b600081359050612c2481612bfe565b92915050565b60006101208284031215612c4157612c40612bf4565b5b612c4c6101206126c1565b9050600082013567ffffffffffffffff811115612c6c57612c6b612bf9565b5b612c788482850161275e565b600083015250602082013567ffffffffffffffff811115612c9c57612c9b612bf9565b5b612ca88482850161275e565b6020830152506040612cbc84828501612c15565b604083015250606082013567ffffffffffffffff811115612ce057612cdf612bf9565b5b612cec8482850161275e565b6060830152506080612d0084828501612b59565b60808301525060a082013567ffffffffffffffff811115612d2457612d23612bf9565b5b612d308482850161275e565b60a08301525060c082013567ffffffffffffffff811115612d5457612d53612bf9565b5b612d608482850161275e565b60c08301525060e082013567ffffffffffffffff811115612d8457612d83612bf9565b5b612d908482850161275e565b60e08301525061010082013567ffffffffffffffff811115612db557612db4612bf9565b5b612dc18482850161275e565b6101008301525092915050565b600060208284031215612de457612de361263c565b5b600082013567ffffffffffffffff811115612e0257612e01612641565b5b612e0e84828501612c2a565b91505092915050565b600081519050919050565b600082825260208201905092915050565b6000819050602082019050919050565b6000612e4f8383612836565b905092915050565b6000602082019050919050565b6000612e6f82612e17565b612e798185612e22565b935083602082028501612e8b85612e33565b8060005b85811015612ec75784840389528151612ea88582612e43565b9450612eb383612e57565b925060208a01995050600181019050612e8f565b50829750879550505050505092915050565b60006020820190508181036000830152612ef38184612e64565b905092915050565b60008060408385031215612f1257612f1161263c565b5b600083013567ffffffffffffffff811115612f3057612f2f612641565b5b612f3c85828601612c2a565b925050602083013567ffffffffffffffff811115612f5d57612f5c612641565b5b612f6985828601612c2a565b9150509250929050565b600081519050919050565b600082825260208201905092915050565b6000819050602082019050919050565b6000612fab83836129ca565b905092915050565b6000602082019050919050565b6000612fcb82612f73565b612fd58185612f7e565b935083602082028501612fe785612f8f565b8060005b8581101561302357848403895281516130048582612f9f565b945061300f83612fb3565b925060208a01995050600181019050612feb565b50829750879550505050505092915050565b600060408301600083015161304d60008601826127e1565b50602083015184820360208601526130658282612fc0565b9150508091505092915050565b6000602082019050818103600083015261308c8184613035565b905092915050565b6000602082840312156130aa576130a961263c565b5b60006130b884828501612b59565b91505092915050565b600081905092915050565b60006130d7826127f0565b6130e181856130c1565b93506130f181856020860161280c565b80840191505092915050565b600061310982846130cc565b915081905092915050565b7f4e487b7100000000000000000000000000000000000000000000000000000000600052602260045260246000fd5b6000600282049050600182168061315b57607f821691505b60208210810361316e5761316d613114565b5b50919050565b7f4e487b7100000000000000000000000000000000000000000000000000000000600052603260045260246000fd5b60008190508160005260206000209050919050565b600081546131c581613143565b6131cf81866130c1565b945060018216600081146131ea57600181146131ff57613232565b60ff1983168652811515820286019350613232565b613208856131a3565b60005b8381101561322a5781548189015260018201915060208101905061320b565b838801955050505b50505092915050565b600061324782846131b8565b915081905092915050565b7f4e487b7100000000000000000000000000000000000000000000000000000000600052601160045260246000fd5b6000819050919050565b600061329682613281565b91507fffffffffffffffffffffffffffffffffffffffffffffffffffffffffffffffff82036132c8576132c7613252565b5b600182019050919050565b50565b60006132e36000836130c1565b91506132ee826132d3565b600082019050919050565b6000613304826132d6565b9150819050919050565b600061012083016000830151848203600086015261332c8282612836565b915050602083015184820360208601526133468282612836565b915050604083015161335b60408601826129ac565b50606083015184820360608601526133738282612836565b915050608083015161338860808601826129bb565b5060a083015184820360a08601526133a08282612836565b91505060c083015184820360c08601526133ba8282612836565b91505060e083015184820360e08601526133d48282612836565b9150506101008301518482036101008601526133f08282612836565b9150508091505092915050565b60006020820190508181036000830152613417818461330e565b905092915050565b613428816127d5565b811461343357600080fd5b50565b6000815190506134458161341f565b92915050565b6000602082840312156134615761346061263c565b5b600061346f84828501613436565b91505092915050565b7f6163746976650000000000000000000000000000000000000000000000000000600082015250565b60006134ae6006836130c1565b91506134b982613478565b600682019050919050565b60006134cf826134a1565b9150819050919050565b60006020601f8301049050919050565b600082821b905092915050565b6000600883026135267fffffffffffffffffffffffffffffffffffffffffffffffffffffffffffffffff826134e9565b61353086836134e9565b95508019841693508086168417925050509392505050565b6000819050919050565b600061356d61356861356384613281565b613548565b613281565b9050919050565b6000819050919050565b61358783613552565b61359b61359382613574565b8484546134f6565b825550505050565b600090565b6135b06135a3565b6135bb81848461357e565b505050565b5b818110156135df576135d46000826135a8565b6001810190506135c1565b5050565b601f821115613624576135f5816131a3565b6135fe846134d9565b8101602085101561360d578190505b613621613619856134d9565b8301826135c0565b50505b505050565b600082821c905092915050565b600061364760001984600802613629565b1980831691505092915050565b60006136608383613636565b9150826002028217905092915050565b613679826127f0565b67ffffffffffffffff81111561369257613691612661565b5b61369c8254613143565b6136a78282856135e3565b600060209050601f8311600181146136da57600084156136c8578287015190505b6136d28582613654565b86555061373a565b601f1984166136e8866131a3565b60005b82811015613710578489015182556001820191506020850194506020810190506136eb565b8683101561372d5784890151613729601f891682613636565b8355505b6001600288020188555050505b505050505050565b600061374d826129a2565b9150613758836129a2565b9250828201905082811215600083121683821260008412151617156137805761377f613252565b5b92915050565b7f3000000000000000000000000000000000000000000000000000000000000000600082015250565b60006137bc6001836130c1565b91506137c782613786565b600182019050919050565b60006137dd826137af565b915081905091905056fea26469706673582212200527293fd8eb168be8cf733ba79d95a2875937d6fc005c9b8c0681ae259cc68d64736f6c6343000813003360806040523480156200001157600080fd5b5060405162001c4438038062001c448339818101604052810190620000379190620000e9565b80600360006101000a81548173ffffffffffffffffffffffffffffffffffffffff021916908373ffffffffffffffffffffffffffffffffffffffff160217905550506200011b565b600080fd5b600073ffffffffffffffffffffffffffffffffffffffff82169050919050565b6000620000b18262000084565b9050919050565b620000c381620000a4565b8114620000cf57600080fd5b50565b600081519050620000e381620000b8565b92915050565b6000602082840312156200010257620001016200007f565b5b60006200011284828501620000d2565b91505092915050565b611b19806200012b6000396000f3fe608060405234801561001057600080fd5b50600436106100935760003560e01c8063857cdbb811610066578063857cdbb814610144578063a240e42614610174578063b0c22a56146101a4578063eeb9ab18146101d4578063f14ab0e01461020457610093565b80632b4bce8b1461009857806367156cf1146100c85780636f77926b146100f857806375e9493f14610128575b600080fd5b6100b260048036038101906100ad91906112bb565b610234565b6040516100bf919061131f565b60405180910390f35b6100e260048036038101906100dd919061133a565b61034e565b6040516100ef9190611432565b60405180910390f35b610112600480360381019061010d919061133a565b610502565b60405161011f9190611511565b60405180910390f35b610142600480360381019061013d91906112bb565b6108ca565b005b61015e6004803603810190610159919061133a565b610b59565b60405161016b9190611432565b60405180910390f35b61018e6004803603810190610189919061133a565b610d0d565b60405161019b919061131f565b60405180910390f35b6101be60048036038101906101b99190611533565b610db6565b6040516101cb919061131f565b60405180910390f35b6101ee60048036038101906101e99190611533565b610deb565b6040516101fb91906115ab565b60405180910390f35b61021e600480360381019061021991906115c6565b610ed6565b60405161022b919061131f565b60405180910390f35b60003373ffffffffffffffffffffffffffffffffffffffff16826000015173ffffffffffffffffffffffffffffffffffffffff16036103445761027a8260000151610d0d565b158015610291575061028f8260200151610db6565b155b80156103355750600360009054906101000a900473ffffffffffffffffffffffffffffffffffffffff1673ffffffffffffffffffffffffffffffffffffffff1663e779f450836040518263ffffffff1660e01b81526004016102f39190611693565b602060405180830381865afa158015610310573d6000803e3d6000fd5b505050506040513d601f19601f8201168201806040525081019061033491906116e1565b5b156103435760019050610349565b5b600090505b919050565b610356610f7f565b600073ffffffffffffffffffffffffffffffffffffffff166000808473ffffffffffffffffffffffffffffffffffffffff1673ffffffffffffffffffffffffffffffffffffffff16815260200190815260200160002060000160009054906101000a900473ffffffffffffffffffffffffffffffffffffffff1673ffffffffffffffffffffffffffffffffffffffff16146104d35760405180604001604052806001151581526020016000808573ffffffffffffffffffffffffffffffffffffffff1673ffffffffffffffffffffffffffffffffffffffff168152602001908152602001600020600101805461044b9061173d565b80601f01602080910402602001604051908101604052809291908181526020018280546104779061173d565b80156104c45780601f10610499576101008083540402835291602001916104c4565b820191906000526020600020905b8154815290600101906020018083116104a757829003601f168201915b505050505081525090506104fd565b60405180604001604052806000151581526020016040518060200160405280600081525081525090505b919050565b61050a610f9b565b3373ffffffffffffffffffffffffffffffffffffffff168273ffffffffffffffffffffffffffffffffffffffff160361084657600073ffffffffffffffffffffffffffffffffffffffff166000808473ffffffffffffffffffffffffffffffffffffffff1673ffffffffffffffffffffffffffffffffffffffff16815260200190815260200160002060000160009054906101000a900473ffffffffffffffffffffffffffffffffffffffff1673ffffffffffffffffffffffffffffffffffffffff16146108455760405180604001604052806001151581526020016000808573ffffffffffffffffffffffffffffffffffffffff1673ffffffffffffffffffffffffffffffffffffffff1681526020019081526020016000206040518060800160405290816000820160009054906101000a900473ffffffffffffffffffffffffffffffffffffffff1673ffffffffffffffffffffffffffffffffffffffff1673ffffffffffffffffffffffffffffffffffffffff1681526020016001820180546106959061173d565b80601f01602080910402602001604051908101604052809291908181526020018280546106c19061173d565b801561070e5780601f106106e35761010080835404028352916020019161070e565b820191906000526020600020905b8154815290600101906020018083116106f157829003601f168201915b505050505081526020016002820180546107279061173d565b80601f01602080910402602001604051908101604052809291908181526020018280546107539061173d565b80156107a05780601f10610775576101008083540402835291602001916107a0565b820191906000526020600020905b81548152906001019060200180831161078357829003601f168201915b505050505081526020016003820180546107b99061173d565b80601f01602080910402602001604051908101604052809291908181526020018280546107e59061173d565b80156108325780601f1061080757610100808354040283529160200191610832565b820191906000526020600020905b81548152906001019060200180831161081557829003601f168201915b50505050508152505081525090506108c5565b5b60405180604001604052806000151581526020016040518060800160405280600073ffffffffffffffffffffffffffffffffffffffff1681526020016040518060200160405280600081525081526020016040518060200160405280600081525081526020016040518060200160405280600081525081525081525090505b919050565b3373ffffffffffffffffffffffffffffffffffffffff16816000015173ffffffffffffffffffffffffffffffffffffffff1603610b565761090a81610234565b15610b55576040518060800160405280826000015173ffffffffffffffffffffffffffffffffffffffff16815260200182602001518152602001826040015181526020018260600151815250600080836000015173ffffffffffffffffffffffffffffffffffffffff1673ffffffffffffffffffffffffffffffffffffffff16815260200190815260200160002060008201518160000160006101000a81548173ffffffffffffffffffffffffffffffffffffffff021916908373ffffffffffffffffffffffffffffffffffffffff16021790555060208201518160010190816109f49190611924565b506040820151816002019081610a0a9190611924565b506060820151816003019081610a209190611924565b509050506040518060800160405280826000015173ffffffffffffffffffffffffffffffffffffffff1681526020018260200151815260200182604001518152602001826060015181525060018260200151604051610a7f9190611a32565b908152602001604051809103902060008201518160000160006101000a81548173ffffffffffffffffffffffffffffffffffffffff021916908373ffffffffffffffffffffffffffffffffffffffff1602179055506020820151816001019081610ae99190611924565b506040820151816002019081610aff9190611924565b506060820151816003019081610b159190611924565b50905050600160028260200151604051610b2f9190611a32565b908152602001604051809103902060006101000a81548160ff0219169083151502179055505b5b50565b610b61610f7f565b600073ffffffffffffffffffffffffffffffffffffffff166000808473ffffffffffffffffffffffffffffffffffffffff1673ffffffffffffffffffffffffffffffffffffffff16815260200190815260200160002060000160009054906101000a900473ffffffffffffffffffffffffffffffffffffffff1673ffffffffffffffffffffffffffffffffffffffff1614610cde5760405180604001604052806001151581526020016000808573ffffffffffffffffffffffffffffffffffffffff1673ffffffffffffffffffffffffffffffffffffffff1681526020019081526020016000206003018054610c569061173d565b80601f0160208091040260200160405190810160405280929190818152602001828054610c829061173d565b8015610ccf5780601f10610ca457610100808354040283529160200191610ccf565b820191906000526020600020905b815481529060010190602001808311610cb257829003601f168201915b50505050508152509050610d08565b60405180604001604052806000151581526020016040518060200160405280600081525081525090505b919050565b60008073ffffffffffffffffffffffffffffffffffffffff166000808473ffffffffffffffffffffffffffffffffffffffff1673ffffffffffffffffffffffffffffffffffffffff16815260200190815260200160002060000160009054906101000a900473ffffffffffffffffffffffffffffffffffffffff1673ffffffffffffffffffffffffffffffffffffffff1614610dac5760019050610db1565b600090505b919050565b6000600282604051610dc89190611a32565b908152602001604051809103902060009054906101000a900460ff169050919050565b610df3610fbd565b6000600183604051610e059190611a32565b90815260200160405180910390206001018054610e219061173d565b90501115610e9f576040518060400160405280600115158152602001600184604051610e4d9190611a32565b908152602001604051809103902060000160009054906101000a900473ffffffffffffffffffffffffffffffffffffffff1673ffffffffffffffffffffffffffffffffffffffff168152509050610ed1565b6040518060400160405280600015158152602001600073ffffffffffffffffffffffffffffffffffffffff1681525090505b919050565b600082604051602001610ee99190611a32565b604051602081830303815290604052805190602001206000808473ffffffffffffffffffffffffffffffffffffffff1673ffffffffffffffffffffffffffffffffffffffff168152602001908152602001600020600201604051602001610f509190611acc565b6040516020818303038152906040528051906020012003610f745760019050610f79565b600090505b92915050565b6040518060400160405280600015158152602001606081525090565b6040518060400160405280600015158152602001610fb7610fef565b81525090565b6040518060400160405280600015158152602001600073ffffffffffffffffffffffffffffffffffffffff1681525090565b6040518060800160405280600073ffffffffffffffffffffffffffffffffffffffff1681526020016060815260200160608152602001606081525090565b6000604051905090565b600080fd5b600080fd5b600080fd5b6000601f19601f8301169050919050565b7f4e487b7100000000000000000000000000000000000000000000000000000000600052604160045260246000fd5b61108f82611046565b810181811067ffffffffffffffff821117156110ae576110ad611057565b5b80604052505050565b60006110c161102d565b90506110cd8282611086565b919050565b600080fd5b600073ffffffffffffffffffffffffffffffffffffffff82169050919050565b6000611102826110d7565b9050919050565b611112816110f7565b811461111d57600080fd5b50565b60008135905061112f81611109565b92915050565b600080fd5b600080fd5b600067ffffffffffffffff82111561115a57611159611057565b5b61116382611046565b9050602081019050919050565b82818337600083830152505050565b600061119261118d8461113f565b6110b7565b9050828152602081018484840111156111ae576111ad61113a565b5b6111b9848285611170565b509392505050565b600082601f8301126111d6576111d5611135565b5b81356111e684826020860161117f565b91505092915050565b60006080828403121561120557611204611041565b5b61120f60806110b7565b9050600061121f84828501611120565b600083015250602082013567ffffffffffffffff811115611243576112426110d2565b5b61124f848285016111c1565b602083015250604082013567ffffffffffffffff811115611273576112726110d2565b5b61127f848285016111c1565b604083015250606082013567ffffffffffffffff8111156112a3576112a26110d2565b5b6112af848285016111c1565b60608301525092915050565b6000602082840312156112d1576112d0611037565b5b600082013567ffffffffffffffff8111156112ef576112ee61103c565b5b6112fb848285016111ef565b91505092915050565b60008115159050919050565b61131981611304565b82525050565b60006020820190506113346000830184611310565b92915050565b6000602082840312156113505761134f611037565b5b600061135e84828501611120565b91505092915050565b61137081611304565b82525050565b600081519050919050565b600082825260208201905092915050565b60005b838110156113b0578082015181840152602081019050611395565b60008484015250505050565b60006113c782611376565b6113d18185611381565b93506113e1818560208601611392565b6113ea81611046565b840191505092915050565b600060408301600083015161140d6000860182611367565b506020830151848203602086015261142582826113bc565b9150508091505092915050565b6000602082019050818103600083015261144c81846113f5565b905092915050565b61145d816110f7565b82525050565b600060808301600083015161147b6000860182611454565b506020830151848203602086015261149382826113bc565b915050604083015184820360408601526114ad82826113bc565b915050606083015184820360608601526114c782826113bc565b9150508091505092915050565b60006040830160008301516114ec6000860182611367565b50602083015184820360208601526115048282611463565b9150508091505092915050565b6000602082019050818103600083015261152b81846114d4565b905092915050565b60006020828403121561154957611548611037565b5b600082013567ffffffffffffffff8111156115675761156661103c565b5b611573848285016111c1565b91505092915050565b6040820160008201516115926000850182611367565b5060208201516115a56020850182611454565b50505050565b60006040820190506115c0600083018461157c565b92915050565b600080604083850312156115dd576115dc611037565b5b600083013567ffffffffffffffff8111156115fb576115fa61103c565b5b611607858286016111c1565b925050602061161885828601611120565b9150509250929050565b600060808301600083015161163a6000860182611454565b506020830151848203602086015261165282826113bc565b9150506040830151848203604086015261166c82826113bc565b9150506060830151848203606086015261168682826113bc565b9150508091505092915050565b600060208201905081810360008301526116ad8184611622565b905092915050565b6116be81611304565b81146116c957600080fd5b50565b6000815190506116db816116b5565b92915050565b6000602082840312156116f7576116f6611037565b5b6000611705848285016116cc565b91505092915050565b7f4e487b7100000000000000000000000000000000000000000000000000000000600052602260045260246000fd5b6000600282049050600182168061175557607f821691505b6020821081036117685761176761170e565b5b50919050565b60008190508160005260206000209050919050565b60006020601f8301049050919050565b600082821b905092915050565b6000600883026117d07fffffffffffffffffffffffffffffffffffffffffffffffffffffffffffffffff82611793565b6117da8683611793565b95508019841693508086168417925050509392505050565b6000819050919050565b6000819050919050565b600061182161181c611817846117f2565b6117fc565b6117f2565b9050919050565b6000819050919050565b61183b83611806565b61184f61184782611828565b8484546117a0565b825550505050565b600090565b611864611857565b61186f818484611832565b505050565b5b818110156118935761188860008261185c565b600181019050611875565b5050565b601f8211156118d8576118a98161176e565b6118b284611783565b810160208510156118c1578190505b6118d56118cd85611783565b830182611874565b50505b505050565b600082821c905092915050565b60006118fb600019846008026118dd565b1980831691505092915050565b600061191483836118ea565b9150826002028217905092915050565b61192d82611376565b67ffffffffffffffff81111561194657611945611057565b5b611950825461173d565b61195b828285611897565b600060209050601f83116001811461198e576000841561197c578287015190505b6119868582611908565b8655506119ee565b601f19841661199c8661176e565b60005b828110156119c45784890151825560018201915060208501945060208101905061199f565b868310156119e157848901516119dd601f8916826118ea565b8355505b6001600288020188555050505b505050505050565b600081905092915050565b6000611a0c82611376565b611a1681856119f6565b9350611a26818560208601611392565b80840191505092915050565b6000611a3e8284611a01565b915081905092915050565b60008154611a568161173d565b611a6081866119f6565b94506001821660008114611a7b5760018114611a9057611ac3565b60ff1983168652811515820286019350611ac3565b611a998561176e565b60005b83811015611abb57815481890152600182019150602081019050611a9c565b838801955050505b50505092915050565b6000611ad88284611a49565b91508190509291505056fea2646970667358221220a6b8ff36feb0713ecfd7e9592d84bfb8e6838caa372cbfa4425ae389da28a82d64736f6c63430008130033608060405234801561001057600080fd5b5033600160006101000a81548173ffffffffffffffffffffffffffffffffffffffff021916908373ffffffffffffffffffffffffffffffffffffffff16021790555033600260006101000a81548173ffffffffffffffffffffffffffffffffffffffff021916908373ffffffffffffffffffffffffffffffffffffffff1602179055506113e1806100a26000396000f3fe608060405234801561001057600080fd5b50600436106100365760003560e01c8063759ab1851461003b578063c47ebddc1461006b575b600080fd5b61005560048036038101906100509190610a68565b610087565b6040516100629190610d3b565b60405180910390f35b61008560048036038101906100809190610d89565b6105e7565b005b61008f6107aa565b6000808054905067ffffffffffffffff8111156100af576100ae610852565b5b6040519080825280602002602001820160405280156100e857816020015b6100d56107c6565b8152602001906001900390816100cd5790505b5090506000805b845181101561054457600160009054906101000a900473ffffffffffffffffffffffffffffffffffffffff1673ffffffffffffffffffffffffffffffffffffffff16631ac47dd03387848151811061014a57610149610e58565b5b60200260200101516040518363ffffffff1660e01b815260040161016f929190610ee0565b602060405180830381865afa15801561018c573d6000803e3d6000fd5b505050506040513d601f19601f820116820180604052508101906101b09190610f3c565b156105315760005b60008054905081101561052f578582815181106101d8576101d7610e58565b5b60200260200101516040516020016101f09190610fa5565b604051602081830303815290604052805190602001206000828154811061021a57610219610e58565b5b906000526020600020906006020160000160405160200161023b91906110b4565b604051602081830303815290604052805190602001200361051c576000818154811061026a57610269610e58565b5b90600052602060002090600602016040518060c001604052908160008201805461029390610feb565b80601f01602080910402602001604051908101604052809291908181526020018280546102bf90610feb565b801561030c5780601f106102e15761010080835404028352916020019161030c565b820191906000526020600020905b8154815290600101906020018083116102ef57829003601f168201915b505050505081526020016001820160009054906101000a900473ffffffffffffffffffffffffffffffffffffffff1673ffffffffffffffffffffffffffffffffffffffff1673ffffffffffffffffffffffffffffffffffffffff1681526020016002820154815260200160038201805461038590610feb565b80601f01602080910402602001604051908101604052809291908181526020018280546103b190610feb565b80156103fe5780601f106103d3576101008083540402835291602001916103fe565b820191906000526020600020905b8154815290600101906020018083116103e157829003601f168201915b5050505050815260200160048201805461041790610feb565b80601f016020809104026020016040519081016040528092919081815260200182805461044390610feb565b80156104905780601f1061046557610100808354040283529160200191610490565b820191906000526020600020905b81548152906001019060200180831161047357829003601f168201915b505050505081526020016005820160009054906101000a900473ffffffffffffffffffffffffffffffffffffffff1673ffffffffffffffffffffffffffffffffffffffff1673ffffffffffffffffffffffffffffffffffffffff168152505084848151811061050257610501610e58565b5b60200260200101819052508280610518906110fa565b9350505b8080610527906110fa565b9150506101b8565b505b808061053c906110fa565b9150506100ef565b508082526000811461057157604051806040016040528060011515815260200183815250925050506105e2565b6040518060400160405280600015158152602001600067ffffffffffffffff8111156105a05761059f610852565b5b6040519080825280602002602001820160405280156105d957816020015b6105c66107c6565b8152602001906001900390816105be5790505b50815250925050505b919050565b600260009054906101000a900473ffffffffffffffffffffffffffffffffffffffff1673ffffffffffffffffffffffffffffffffffffffff163373ffffffffffffffffffffffffffffffffffffffff16036107a35760006040518060c001604052808681526020018573ffffffffffffffffffffffffffffffffffffffff1681526020014281526020018381526020018481526020018773ffffffffffffffffffffffffffffffffffffffff168152509050600081908060018154018082558091505060019003906000526020600020906006020160009091909190915060008201518160000190816106da91906112d9565b5060208201518160010160006101000a81548173ffffffffffffffffffffffffffffffffffffffff021916908373ffffffffffffffffffffffffffffffffffffffff16021790555060408201518160020155606082015181600301908161074191906112d9565b50608082015181600401908161075791906112d9565b5060a08201518160050160006101000a81548173ffffffffffffffffffffffffffffffffffffffff021916908373ffffffffffffffffffffffffffffffffffffffff1602179055505050505b5050505050565b6040518060400160405280600015158152602001606081525090565b6040518060c0016040528060608152602001600073ffffffffffffffffffffffffffffffffffffffff168152602001600081526020016060815260200160608152602001600073ffffffffffffffffffffffffffffffffffffffff1681525090565b6000604051905090565b600080fd5b600080fd5b600080fd5b6000601f19601f8301169050919050565b7f4e487b7100000000000000000000000000000000000000000000000000000000600052604160045260246000fd5b61088a82610841565b810181811067ffffffffffffffff821117156108a9576108a8610852565b5b80604052505050565b60006108bc610828565b90506108c88282610881565b919050565b600067ffffffffffffffff8211156108e8576108e7610852565b5b602082029050602081019050919050565b600080fd5b600080fd5b600067ffffffffffffffff82111561091e5761091d610852565b5b61092782610841565b9050602081019050919050565b82818337600083830152505050565b600061095661095184610903565b6108b2565b905082815260208101848484011115610972576109716108fe565b5b61097d848285610934565b509392505050565b600082601f83011261099a5761099961083c565b5b81356109aa848260208601610943565b91505092915050565b60006109c66109c1846108cd565b6108b2565b905080838252602082019050602084028301858111156109e9576109e86108f9565b5b835b81811015610a3057803567ffffffffffffffff811115610a0e57610a0d61083c565b5b808601610a1b8982610985565b855260208501945050506020810190506109eb565b5050509392505050565b600082601f830112610a4f57610a4e61083c565b5b8135610a5f8482602086016109b3565b91505092915050565b600060208284031215610a7e57610a7d610832565b5b600082013567ffffffffffffffff811115610a9c57610a9b610837565b5b610aa884828501610a3a565b91505092915050565b60008115159050919050565b610ac681610ab1565b82525050565b600081519050919050565b600082825260208201905092915050565b6000819050602082019050919050565b600081519050919050565b600082825260208201905092915050565b60005b83811015610b32578082015181840152602081019050610b17565b60008484015250505050565b6000610b4982610af8565b610b538185610b03565b9350610b63818560208601610b14565b610b6c81610841565b840191505092915050565b600073ffffffffffffffffffffffffffffffffffffffff82169050919050565b6000610ba282610b77565b9050919050565b610bb281610b97565b82525050565b6000819050919050565b610bcb81610bb8565b82525050565b600060c0830160008301518482036000860152610bee8282610b3e565b9150506020830151610c036020860182610ba9565b506040830151610c166040860182610bc2565b5060608301518482036060860152610c2e8282610b3e565b91505060808301518482036080860152610c488282610b3e565b91505060a0830151610c5d60a0860182610ba9565b508091505092915050565b6000610c748383610bd1565b905092915050565b6000602082019050919050565b6000610c9482610acc565b610c9e8185610ad7565b935083602082028501610cb085610ae8565b8060005b85811015610cec5784840389528151610ccd8582610c68565b9450610cd883610c7c565b925060208a01995050600181019050610cb4565b50829750879550505050505092915050565b6000604083016000830151610d166000860182610abd565b5060208301518482036020860152610d2e8282610c89565b9150508091505092915050565b60006020820190508181036000830152610d558184610cfe565b905092915050565b610d6681610b97565b8114610d7157600080fd5b50565b600081359050610d8381610d5d565b92915050565b600080600080600060a08688031215610da557610da4610832565b5b6000610db388828901610d74565b955050602086013567ffffffffffffffff811115610dd457610dd3610837565b5b610de088828901610985565b9450506040610df188828901610d74565b935050606086013567ffffffffffffffff811115610e1257610e11610837565b5b610e1e88828901610985565b925050608086013567ffffffffffffffff811115610e3f57610e3e610837565b5b610e4b88828901610985565b9150509295509295909350565b7f4e487b7100000000000000000000000000000000000000000000000000000000600052603260045260246000fd5b610e9081610b97565b82525050565b600082825260208201905092915050565b6000610eb282610af8565b610ebc8185610e96565b9350610ecc818560208601610b14565b610ed581610841565b840191505092915050565b6000604082019050610ef56000830185610e87565b8181036020830152610f078184610ea7565b90509392505050565b610f1981610ab1565b8114610f2457600080fd5b50565b600081519050610f3681610f10565b92915050565b600060208284031215610f5257610f51610832565b5b6000610f6084828501610f27565b91505092915050565b600081905092915050565b6000610f7f82610af8565b610f898185610f69565b9350610f99818560208601610b14565b80840191505092915050565b6000610fb18284610f74565b915081905092915050565b7f4e487b7100000000000000000000000000000000000000000000000000000000600052602260045260246000fd5b6000600282049050600182168061100357607f821691505b60208210810361101657611015610fbc565b5b50919050565b60008190508160005260206000209050919050565b6000815461103e81610feb565b6110488186610f69565b945060018216600081146110635760018114611078576110ab565b60ff19831686528115158202860193506110ab565b6110818561101c565b60005b838110156110a357815481890152600182019150602081019050611084565b838801955050505b50505092915050565b60006110c08284611031565b915081905092915050565b7f4e487b7100000000000000000000000000000000000000000000000000000000600052601160045260246000fd5b600061110582610bb8565b91507fffffffffffffffffffffffffffffffffffffffffffffffffffffffffffffffff8203611137576111366110cb565b5b600182019050919050565b60006020601f8301049050919050565b600082821b905092915050565b60006008830261118f7fffffffffffffffffffffffffffffffffffffffffffffffffffffffffffffffff82611152565b6111998683611152565b95508019841693508086168417925050509392505050565b6000819050919050565b60006111d66111d16111cc84610bb8565b6111b1565b610bb8565b9050919050565b6000819050919050565b6111f0836111bb565b6112046111fc826111dd565b84845461115f565b825550505050565b600090565b61121961120c565b6112248184846111e7565b505050565b5b818110156112485761123d600082611211565b60018101905061122a565b5050565b601f82111561128d5761125e8161101c565b61126784611142565b81016020851015611276578190505b61128a61128285611142565b830182611229565b50505b505050565b600082821c905092915050565b60006112b060001984600802611292565b1980831691505092915050565b60006112c9838361129f565b9150826002028217905092915050565b6112e282610af8565b67ffffffffffffffff8111156112fb576112fa610852565b5b6113058254610feb565b61131082828561124c565b600060209050601f8311600181146113435760008415611331578287015190505b61133b85826112bd565b8655506113a3565b601f1984166113518661101c565b60005b8281101561137957848901518255600182019150602085019450602081019050611354565b868310156113965784890151611392601f89168261129f565b8355505b6001600288020188555050505b50505050505056fea26469706673582212209feca62a043524d161ae434a5ba4a5d558f4b1e6df45f29408c525cc3ef0045b64736f6c63430008130033",
  "linkReferences": {},
  "deployedLinkReferences": {}
}