{
  "_format": "hh-sol-artifact-1",
  "contractName": "AccessControl",
  "sourceName": "contracts/AccessControl.sol",
  "abi": [
    {
      "inputs": [
        {
          "internalType": "address",
          "name": "fileRegisterContract",
          "type": "address"
        },
        {
          "internalType": "address",
          "name": "userRegisterContract",
          "type": "address"
        },
        {
          "internalType": "address",
          "name": "helperContract",
          "type": "address"
        }
      ],
      "stateMutability": "nonpayable",
      "type": "constructor"
    },
    {
      "anonymous": false,
      "inputs": [
        {
          "indexed": true,
          "internalType": "address",
          "name": "userAccount",
          "type": "address"
        },
        {
          "indexed": false,
          "internalType": "string",
          "name": "fileIpfsCID",
          "type": "string"
        },
        {
          "indexed": false,
          "internalType": "string",
          "name": "permissionsOwner",
          "type": "string"
        },
        {
          "indexed": false,
          "internalType": "string",
          "name": "action",
          "type": "string"
        }
      ],
      "name": "FileActionLog",
      "type": "event"
    },
    {
      "inputs": [
        {
          "internalType": "string",
          "name": "fileIpfsCid",
          "type": "string"
        },
        {
          "internalType": "address",
          "name": "userAccount",
          "type": "address"
        }
      ],
      "name": "downloadFileAudit",
      "outputs": [],
      "stateMutability": "nonpayable",
      "type": "function"
    },
    {
      "inputs": [
        {
          "internalType": "address",
          "name": "userAccount",
          "type": "address"
        },
        {
          "internalType": "string",
          "name": "fileIpfsCID",
          "type": "string"
        }
      ],
      "name": "elegibleToShare",
      "outputs": [
        {
          "internalType": "bool",
          "name": "",
          "type": "bool"
        }
      ],
      "stateMutability": "view",
      "type": "function"
    },
    {
      "inputs": [
        {
          "internalType": "address",
          "name": "userAccount",
          "type": "address"
        },
        {
          "internalType": "string",
          "name": "fileIpfsCID",
          "type": "string"
        }
      ],
      "name": "elegibleToUpdPermissions",
      "outputs": [
        {
          "internalType": "bool",
          "name": "",
          "type": "bool"
        }
      ],
      "stateMutability": "view",
      "type": "function"
    },
    {
      "inputs": [
        {
          "internalType": "address",
          "name": "userAccount",
          "type": "address"
        },
        {
          "internalType": "string",
          "name": "fileIpfsCID",
          "type": "string"
        }
      ],
      "name": "elegibleToUpload",
      "outputs": [
        {
          "internalType": "bool",
          "name": "",
          "type": "bool"
        }
      ],
      "stateMutability": "view",
      "type": "function"
    },
    {
      "inputs": [],
      "name": "getAuditLogControlAddress",
      "outputs": [
        {
          "internalType": "address",
          "name": "",
          "type": "address"
        }
      ],
      "stateMutability": "view",
      "type": "function"
    },
    {
      "inputs": [
        {
          "internalType": "address",
          "name": "accountUser",
          "type": "address"
        },
        {
          "internalType": "string",
          "name": "fileIpfsCID",
          "type": "string"
        }
      ],
      "name": "getEncSymmetricKeyFileUser",
      "outputs": [
        {
          "components": [
            {
              "internalType": "bool",
              "name": "success",
              "type": "bool"
            },
            {
              "internalType": "string",
              "name": "resultString",
              "type": "string"
            }
          ],
          "internalType": "struct Helper.ResultString",
          "name": "",
          "type": "tuple"
        }
      ],
      "stateMutability": "view",
      "type": "function"
    },
    {
      "inputs": [
        {
          "internalType": "address",
          "name": "userAccount",
          "type": "address"
        },
        {
          "internalType": "string",
          "name": "fileIpfsCID",
          "type": "string"
        }
      ],
      "name": "getPermissionsOverFile",
      "outputs": [
        {
          "components": [
            {
              "internalType": "bool",
              "name": "success",
              "type": "bool"
            },
            {
              "internalType": "string[]",
              "name": "resultStrings",
              "type": "string[]"
            }
          ],
          "internalType": "struct Helper.ResultStringArray",
          "name": "",
          "type": "tuple"
        }
      ],
      "stateMutability": "view",
      "type": "function"
    },
    {
      "inputs": [
        {
          "internalType": "address",
          "name": "account",
          "type": "address"
        }
      ],
      "name": "getUserFiles",
      "outputs": [
        {
          "components": [
            {
              "internalType": "bool",
              "name": "success",
              "type": "bool"
            },
            {
              "components": [
                {
                  "internalType": "string",
                  "name": "ipfsCID",
                  "type": "string"
                },
                {
                  "internalType": "string",
                  "name": "fileName",
                  "type": "string"
                },
                {
                  "internalType": "address",
                  "name": "owner",
                  "type": "address"
                },
                {
                  "internalType": "string",
                  "name": "fileType",
                  "type": "string"
                },
                {
                  "internalType": "string",
                  "name": "iv",
                  "type": "string"
                }
              ],
              "internalType": "struct FileRegister.File[]",
              "name": "files",
              "type": "tuple[]"
            }
          ],
          "internalType": "struct FileRegister.ResultFiles",
          "name": "",
          "type": "tuple"
        }
      ],
      "stateMutability": "view",
      "type": "function"
    },
    {
      "inputs": [
        {
          "internalType": "address",
          "name": "accountInput",
          "type": "address"
        },
        {
          "internalType": "address",
          "name": "accountList",
          "type": "address"
        },
        {
          "internalType": "string",
          "name": "ipfsCIDInput",
          "type": "string"
        },
        {
          "internalType": "string",
          "name": "ipfsCIDList",
          "type": "string"
        }
      ],
      "name": "isKeyEqual",
      "outputs": [
        {
          "internalType": "bool",
          "name": "",
          "type": "bool"
        }
      ],
      "stateMutability": "pure",
      "type": "function"
    },
    {
      "inputs": [
        {
          "internalType": "string",
          "name": "fileIpfsCID",
          "type": "string"
        }
      ],
      "name": "messageSenderAssociatedToFile",
      "outputs": [
        {
          "internalType": "bool",
          "name": "",
          "type": "bool"
        }
      ],
      "stateMutability": "view",
      "type": "function"
    },
    {
      "inputs": [
        {
          "internalType": "address",
          "name": "userAccount",
          "type": "address"
        },
        {
          "internalType": "string",
          "name": "fileIpfsCID",
          "type": "string"
        },
        {
          "internalType": "string",
          "name": "encSymmetricKey",
          "type": "string"
        },
        {
          "internalType": "string[]",
          "name": "permissions",
          "type": "string[]"
        }
      ],
      "name": "shareFile",
      "outputs": [],
      "stateMutability": "nonpayable",
      "type": "function"
    },
    {
      "inputs": [
        {
          "internalType": "address",
          "name": "userAccount",
          "type": "address"
        },
        {
          "internalType": "string",
          "name": "fileIpfsCID",
          "type": "string"
        },
        {
          "internalType": "string[]",
          "name": "permissions",
          "type": "string[]"
        }
      ],
      "name": "updateUserFilePermissions",
      "outputs": [],
      "stateMutability": "nonpayable",
      "type": "function"
    },
    {
      "inputs": [
        {
          "internalType": "address",
          "name": "userAccount",
          "type": "address"
        },
        {
          "internalType": "string",
          "name": "fileIpfsCID",
          "type": "string"
        },
        {
          "internalType": "string",
          "name": "encSymmetricKey",
          "type": "string"
        }
      ],
      "name": "uploadFile",
      "outputs": [],
      "stateMutability": "nonpayable",
      "type": "function"
    },
    {
      "inputs": [
        {
          "internalType": "address",
          "name": "userAccount",
          "type": "address"
        },
        {
          "internalType": "string",
          "name": "fileIpfsCID",
          "type": "string"
        }
      ],
      "name": "userAssociatedWithFile",
      "outputs": [
        {
          "internalType": "bool",
          "name": "",
          "type": "bool"
        }
      ],
      "stateMutability": "view",
      "type": "function"
    },
    {
      "inputs": [
        {
          "internalType": "address",
          "name": "userAccount",
          "type": "address"
        },
        {
          "internalType": "string",
          "name": "fileIpfsCID",
          "type": "string"
        }
      ],
      "name": "userHasDownloadPermissionOverFile",
      "outputs": [
        {
          "internalType": "bool",
          "name": "",
          "type": "bool"
        }
      ],
      "stateMutability": "view",
      "type": "function"
    },
    {
      "inputs": [
        {
          "internalType": "address",
          "name": "userAccount",
          "type": "address"
        },
        {
          "internalType": "string",
          "name": "fileIpfsCID",
          "type": "string"
        }
      ],
      "name": "userHasSharePermissionOverFile",
      "outputs": [
        {
          "internalType": "bool",
          "name": "",
          "type": "bool"
        }
      ],
      "stateMutability": "view",
      "type": "function"
    }
  ],
  "bytecode": "0x60806040523480156200001157600080fd5b506040516200507d3803806200507d8339818101604052810190620000379190620001e7565b82600160006101000a81548173ffffffffffffffffffffffffffffffffffffffff021916908373ffffffffffffffffffffffffffffffffffffffff16021790555081600260006101000a81548173ffffffffffffffffffffffffffffffffffffffff021916908373ffffffffffffffffffffffffffffffffffffffff16021790555080600460006101000a81548173ffffffffffffffffffffffffffffffffffffffff021916908373ffffffffffffffffffffffffffffffffffffffff16021790555060405162000108906200016f565b604051809103906000f08015801562000125573d6000803e3d6000fd5b50600360006101000a81548173ffffffffffffffffffffffffffffffffffffffff021916908373ffffffffffffffffffffffffffffffffffffffff16021790555050505062000243565b6114838062003bfa83390190565b600080fd5b600073ffffffffffffffffffffffffffffffffffffffff82169050919050565b6000620001af8262000182565b9050919050565b620001c181620001a2565b8114620001cd57600080fd5b50565b600081519050620001e181620001b6565b92915050565b6000806000606084860312156200020357620002026200017d565b5b60006200021386828701620001d0565b93505060206200022686828701620001d0565b92505060406200023986828701620001d0565b9150509250925092565b6139a780620002536000396000f3fe608060405234801561001057600080fd5b50600436106100ff5760003560e01c806367cc916b11610097578063b714fb2011610066578063b714fb2014610308578063d131202314610326578063dee63aa114610342578063f1fcc0bf14610372576100ff565b806367cc916b146102705780638af34fbc1461028c578063a126d94c146102a8578063b58ea3a2146102d8576100ff565b8063203536d4116100d3578063203536d4146101b05780632321f318146101e0578063299768c8146102105780635c99c71b14610240576100ff565b8062c5e61414610104578063173cd558146101205780631ac47dd0146101505780631fc3792214610180575b600080fd5b61011e600480360381019061011991906125c7565b6103a2565b005b61013a60048036038101906101359190612682565b610693565b6040516101479190612877565b60405180910390f35b61016a60048036038101906101659190612682565b610954565b60405161017791906128a8565b60405180910390f35b61019a600480360381019061019591906128c3565b610af9565b6040516101a79190612a89565b60405180910390f35b6101ca60048036038101906101c59190612682565b610e60565b6040516101d791906128a8565b60405180910390f35b6101fa60048036038101906101f59190612682565b610f15565b60405161020791906128a8565b60405180910390f35b61022a60048036038101906102259190612aab565b611019565b60405161023791906128a8565b60405180910390f35b61025a60048036038101906102559190612af4565b611159565b60405161026791906128a8565b60405180910390f35b61028a60048036038101906102859190612b93565b6111eb565b005b6102a660048036038101906102a19190612bef565b6112c7565b005b6102c260048036038101906102bd9190612682565b611577565b6040516102cf9190612cb7565b60405180910390f35b6102f260048036038101906102ed9190612682565b6117ea565b6040516102ff91906128a8565b60405180910390f35b610310611a49565b60405161031d9190612ce8565b60405180910390f35b610340600480360381019061033b9190612d03565b611a73565b005b61035c60048036038101906103579190612682565b611eb6565b60405161036991906128a8565b60405180910390f35b61038c60048036038101906103879190612682565b612101565b60405161039991906128a8565b60405180910390f35b6103ac84846117ea565b1561068d576000600460009054906101000a900473ffffffffffffffffffffffffffffffffffffffff1673ffffffffffffffffffffffffffffffffffffffff1663c1f69fd6868686866040518563ffffffff1660e01b81526004016104149493929190612e5e565b602060405180830381865afa158015610431573d6000803e3d6000fd5b505050506040513d601f19601f820116820180604052508101906104559190612ee4565b9050801561068b57600060405180608001604052808773ffffffffffffffffffffffffffffffffffffffff168152602001868152602001858152602001848152509050600081908060018154018082558091505060019003906000526020600020906004020160009091909190915060008201518160000160006101000a81548173ffffffffffffffffffffffffffffffffffffffff021916908373ffffffffffffffffffffffffffffffffffffffff16021790555060208201518160010190816105209190613127565b5060408201518160020190816105369190613127565b5060608201518160030190805190602001906105539291906121b6565b505050600360009054906101000a900473ffffffffffffffffffffffffffffffffffffffff1673ffffffffffffffffffffffffffffffffffffffff1663c47ebddc338789600460009054906101000a900473ffffffffffffffffffffffffffffffffffffffff1673ffffffffffffffffffffffffffffffffffffffff16636bb8d768896040518263ffffffff1660e01b81526004016105f291906131f9565b600060405180830381865afa15801561060f573d6000803e3d6000fd5b505050506040513d6000823e3d601f19601f82011682018060405250810190610638919061328b565b6040518563ffffffff1660e01b81526004016106579493929190613320565b600060405180830381600087803b15801561067157600080fd5b505af1158015610685573d6000803e3d6000fd5b50505050505b505b50505050565b61069b61220f565b6106a482611019565b156108e55760005b6000805490508110156108e3576107b784600083815481106106d1576106d0613386565b5b906000526020600020906004020160000160009054906101000a900473ffffffffffffffffffffffffffffffffffffffff16856000858154811061071857610717613386565b5b9060005260206000209060040201600101805461073490612f40565b80601f016020809104026020016040519081016040528092919081815260200182805461076090612f40565b80156107ad5780601f10610782576101008083540402835291602001916107ad565b820191906000526020600020905b81548152906001019060200180831161079057829003601f168201915b5050505050611159565b156108d0576040518060400160405280600115158152602001600083815481106107e4576107e3613386565b5b9060005260206000209060040201600301805480602002602001604051908101604052809291908181526020016000905b828210156108c157838290600052602060002001805461083490612f40565b80601f016020809104026020016040519081016040528092919081815260200182805461086090612f40565b80156108ad5780601f10610882576101008083540402835291602001916108ad565b820191906000526020600020905b81548152906001019060200180831161089057829003601f168201915b505050505081526020019060010190610815565b5050505081525091505061094e565b80806108db906133e4565b9150506106ac565b505b6040518060400160405280600015158152602001600067ffffffffffffffff811115610914576109136123b6565b5b60405190808252806020026020018201604052801561094757816020015b60608152602001906001900390816109325790505b5081525090505b92915050565b600061095f82611019565b806109b75750600360009054906101000a900473ffffffffffffffffffffffffffffffffffffffff1673ffffffffffffffffffffffffffffffffffffffff163373ffffffffffffffffffffffffffffffffffffffff16145b15610aee5760005b600080549050811015610aec57610aca84600083815481106109e4576109e3613386565b5b906000526020600020906004020160000160009054906101000a900473ffffffffffffffffffffffffffffffffffffffff168560008581548110610a2b57610a2a613386565b5b90600052602060002090600402016001018054610a4790612f40565b80601f0160208091040260200160405190810160405280929190818152602001828054610a7390612f40565b8015610ac05780601f10610a9557610100808354040283529160200191610ac0565b820191906000526020600020905b815481529060010190602001808311610aa357829003601f168201915b5050505050611159565b15610ad9576001915050610af3565b8080610ae4906133e4565b9150506109bf565b505b600090505b92915050565b610b0161222b565b8173ffffffffffffffffffffffffffffffffffffffff163373ffffffffffffffffffffffffffffffffffffffff1603610dec576000808054905067ffffffffffffffff811115610b5457610b536123b6565b5b604051908082528060200260200182016040528015610b8d57816020015b610b7a612247565b815260200190600190039081610b725790505b5090506000805b600080549050811015610dbc578473ffffffffffffffffffffffffffffffffffffffff1660008281548110610bcc57610bcb613386565b5b906000526020600020906004020160000160009054906101000a900473ffffffffffffffffffffffffffffffffffffffff1673ffffffffffffffffffffffffffffffffffffffff1603610da9576000808281548110610c2e57610c2d613386565b5b90600052602060002090600402016001018054610c4a90612f40565b80601f0160208091040260200160405190810160405280929190818152602001828054610c7690612f40565b8015610cc35780601f10610c9857610100808354040283529160200191610cc3565b820191906000526020600020905b815481529060010190602001808311610ca657829003601f168201915b505050505090506000600160009054906101000a900473ffffffffffffffffffffffffffffffffffffffff1673ffffffffffffffffffffffffffffffffffffffff16639f5937f8836040518263ffffffff1660e01b8152600401610d27919061342c565b600060405180830381865afa158015610d44573d6000803e3d6000fd5b505050506040513d6000823e3d601f19601f82011682018060405250810190610d6d91906135d5565b905060008160200151905080868681518110610d8c57610d8b613386565b5b60200260200101819052508480610da2906133e4565b9550505050505b8080610db4906133e4565b915050610b94565b5080825260008114610de95760405180604001604052806001151581526020018381525092505050610e5b565b50505b6040518060400160405280600015158152602001600067ffffffffffffffff811115610e1b57610e1a6123b6565b5b604051908082528060200260200182016040528015610e5457816020015b610e41612247565b815260200190600190039081610e395790505b5081525090505b919050565b600080610e6d8484610693565b60200151905060005b8151811015610f0857604051602001610e8e90613675565b60405160208183030381529060405280519060200120828281518110610eb757610eb6613386565b5b6020026020010151604051602001610ecf91906136bb565b6040516020818303038152906040528051906020012003610ef557600192505050610f0f565b8080610f00906133e4565b915050610e76565b5060009150505b92915050565b60008273ffffffffffffffffffffffffffffffffffffffff163373ffffffffffffffffffffffffffffffffffffffff1614158015610fee5750600160009054906101000a900473ffffffffffffffffffffffffffffffffffffffff1673ffffffffffffffffffffffffffffffffffffffff166352a9baef84846040518363ffffffff1660e01b8152600401610fab9291906136d2565b602060405180830381865afa158015610fc8573d6000803e3d6000fd5b505050506040513d601f19601f82011682018060405250810190610fec9190612ee4565b155b80156110005750610fff3383612101565b5b1561100e5760019050611013565b600090505b92915050565b600080600090505b60008054905081101561114e5761112c336000838154811061104657611045613386565b5b906000526020600020906004020160000160009054906101000a900473ffffffffffffffffffffffffffffffffffffffff16856000858154811061108d5761108c613386565b5b906000526020600020906004020160010180546110a990612f40565b80601f01602080910402602001604051908101604052809291908181526020018280546110d590612f40565b80156111225780601f106110f757610100808354040283529160200191611122565b820191906000526020600020905b81548152906001019060200180831161110557829003601f168201915b5050505050611159565b1561113b576001915050611154565b8080611146906133e4565b915050611021565b50600090505b919050565b60008473ffffffffffffffffffffffffffffffffffffffff168473ffffffffffffffffffffffffffffffffffffffff161480156111e15750826040516020016111a291906136bb565b60405160208183030381529060405280519060200120826040516020016111c991906136bb565b60405160208183030381529060405280519060200120145b9050949350505050565b8073ffffffffffffffffffffffffffffffffffffffff163373ffffffffffffffffffffffffffffffffffffffff1614801561122c575061122b8183610e60565b5b156112c357600360009054906101000a900473ffffffffffffffffffffffffffffffffffffffff1673ffffffffffffffffffffffffffffffffffffffff1663c47ebddc3384846040518463ffffffff1660e01b815260040161129093929190613771565b600060405180830381600087803b1580156112aa57600080fd5b505af11580156112be573d6000803e3d6000fd5b505050505b5050565b6112d18383610f15565b156115715760005b60008054905081101561156f576113e484600083815481106112fe576112fd613386565b5b906000526020600020906004020160000160009054906101000a900473ffffffffffffffffffffffffffffffffffffffff16856000858154811061134557611344613386565b5b9060005260206000209060040201600101805461136190612f40565b80601f016020809104026020016040519081016040528092919081815260200182805461138d90612f40565b80156113da5780601f106113af576101008083540402835291602001916113da565b820191906000526020600020905b8154815290600101906020018083116113bd57829003601f168201915b5050505050611159565b1561155c5781600082815481106113fe576113fd613386565b5b906000526020600020906004020160030190805190602001906114229291906121b6565b50600360009054906101000a900473ffffffffffffffffffffffffffffffffffffffff1673ffffffffffffffffffffffffffffffffffffffff1663c47ebddc338587600460009054906101000a900473ffffffffffffffffffffffffffffffffffffffff1673ffffffffffffffffffffffffffffffffffffffff16636bb8d768886040518263ffffffff1660e01b81526004016114bf91906131f9565b600060405180830381865afa1580156114dc573d6000803e3d6000fd5b505050506040513d6000823e3d601f19601f82011682018060405250810190611505919061328b565b6040518563ffffffff1660e01b81526004016115249493929190613821565b600060405180830381600087803b15801561153e57600080fd5b505af1158015611552573d6000803e3d6000fd5b5050505050611572565b8080611567906133e4565b9150506112d9565b505b5b505050565b61157f61228c565b8273ffffffffffffffffffffffffffffffffffffffff163373ffffffffffffffffffffffffffffffffffffffff161480156115c057506115bf8383610954565b5b156117ba5760005b6000805490508110156117b8576116d384600083815481106115ed576115ec613386565b5b906000526020600020906004020160000160009054906101000a900473ffffffffffffffffffffffffffffffffffffffff16856000858154811061163457611633613386565b5b9060005260206000209060040201600101805461165090612f40565b80601f016020809104026020016040519081016040528092919081815260200182805461167c90612f40565b80156116c95780601f1061169e576101008083540402835291602001916116c9565b820191906000526020600020905b8154815290600101906020018083116116ac57829003601f168201915b5050505050611159565b156117a557604051806040016040528060011515815260200160008381548110611700576116ff613386565b5b9060005260206000209060040201600201805461171c90612f40565b80601f016020809104026020016040519081016040528092919081815260200182805461174890612f40565b80156117955780601f1061176a57610100808354040283529160200191611795565b820191906000526020600020905b81548152906001019060200180831161177857829003601f168201915b50505050508152509150506117e4565b80806117b0906133e4565b9150506115c8565b505b60405180604001604052806000151581526020016040518060200160405280600081525081525090505b92915050565b60008273ffffffffffffffffffffffffffffffffffffffff163373ffffffffffffffffffffffffffffffffffffffff16141580156118c35750600160009054906101000a900473ffffffffffffffffffffffffffffffffffffffff1673ffffffffffffffffffffffffffffffffffffffff166352a9baef84846040518363ffffffff1660e01b81526004016118809291906136d2565b602060405180830381865afa15801561189d573d6000803e3d6000fd5b505050506040513d601f19601f820116820180604052508101906118c19190612ee4565b155b80156118d557506118d43383612101565b5b80156118e857506118e68383610954565b155b801561198c5750600160009054906101000a900473ffffffffffffffffffffffffffffffffffffffff1673ffffffffffffffffffffffffffffffffffffffff16639bccd6ad836040518263ffffffff1660e01b815260040161194a919061342c565b602060405180830381865afa158015611967573d6000803e3d6000fd5b505050506040513d601f19601f8201168201806040525081019061198b9190612ee4565b5b8015611a305750600260009054906101000a900473ffffffffffffffffffffffffffffffffffffffff1673ffffffffffffffffffffffffffffffffffffffff1663a240e426846040518263ffffffff1660e01b81526004016119ee9190612ce8565b602060405180830381865afa158015611a0b573d6000803e3d6000fd5b505050506040513d601f19601f82011682018060405250810190611a2f9190612ee4565b5b15611a3e5760019050611a43565b600090505b92915050565b6000600360009054906101000a900473ffffffffffffffffffffffffffffffffffffffff16905090565b611a7d8383611eb6565b15611eb1576000600367ffffffffffffffff811115611a9f57611a9e6123b6565b5b604051908082528060200260200182016040528015611ad257816020015b6060815260200190600190039081611abd5790505b5090506040518060400160405280600581526020017f736861726500000000000000000000000000000000000000000000000000000081525081600081518110611b1f57611b1e613386565b5b60200260200101819052506040518060400160405280600881526020017f646f776e6c6f616400000000000000000000000000000000000000000000000081525081600181518110611b7457611b73613386565b5b60200260200101819052506040518060400160405280600681526020017f64656c657465000000000000000000000000000000000000000000000000000081525081600281518110611bc957611bc8613386565b5b60200260200101819052506000600460009054906101000a900473ffffffffffffffffffffffffffffffffffffffff1673ffffffffffffffffffffffffffffffffffffffff1663c1f69fd6868686866040518563ffffffff1660e01b8152600401611c379493929190612e5e565b602060405180830381865afa158015611c54573d6000803e3d6000fd5b505050506040513d601f19601f82011682018060405250810190611c789190612ee4565b90508015611eae57600060405180608001604052808773ffffffffffffffffffffffffffffffffffffffff168152602001868152602001858152602001848152509050600081908060018154018082558091505060019003906000526020600020906004020160009091909190915060008201518160000160006101000a81548173ffffffffffffffffffffffffffffffffffffffff021916908373ffffffffffffffffffffffffffffffffffffffff1602179055506020820151816001019081611d439190613127565b506040820151816002019081611d599190613127565b506060820151816003019080519060200190611d769291906121b6565b505050600360009054906101000a900473ffffffffffffffffffffffffffffffffffffffff1673ffffffffffffffffffffffffffffffffffffffff1663c47ebddc338789600460009054906101000a900473ffffffffffffffffffffffffffffffffffffffff1673ffffffffffffffffffffffffffffffffffffffff16636bb8d768896040518263ffffffff1660e01b8152600401611e1591906131f9565b600060405180830381865afa158015611e32573d6000803e3d6000fd5b505050506040513d6000823e3d601f19601f82011682018060405250810190611e5b919061328b565b6040518563ffffffff1660e01b8152600401611e7a94939291906138d3565b600060405180830381600087803b158015611e9457600080fd5b505af1158015611ea8573d6000803e3d6000fd5b50505050505b50505b505050565b60008273ffffffffffffffffffffffffffffffffffffffff163373ffffffffffffffffffffffffffffffffffffffff16148015611efa5750611ef88383610954565b155b8015611fa05750600160009054906101000a900473ffffffffffffffffffffffffffffffffffffffff1673ffffffffffffffffffffffffffffffffffffffff166352a9baef84846040518363ffffffff1660e01b8152600401611f5e9291906136d2565b602060405180830381865afa158015611f7b573d6000803e3d6000fd5b505050506040513d601f19601f82011682018060405250810190611f9f9190612ee4565b5b80156120445750600160009054906101000a900473ffffffffffffffffffffffffffffffffffffffff1673ffffffffffffffffffffffffffffffffffffffff16639bccd6ad836040518263ffffffff1660e01b8152600401612002919061342c565b602060405180830381865afa15801561201f573d6000803e3d6000fd5b505050506040513d601f19601f820116820180604052508101906120439190612ee4565b5b80156120e85750600260009054906101000a900473ffffffffffffffffffffffffffffffffffffffff1673ffffffffffffffffffffffffffffffffffffffff1663a240e426846040518263ffffffff1660e01b81526004016120a69190612ce8565b602060405180830381865afa1580156120c3573d6000803e3d6000fd5b505050506040513d601f19601f820116820180604052508101906120e79190612ee4565b5b156120f657600190506120fb565b600090505b92915050565b60008061210e8484610693565b60200151905060005b81518110156121a95760405160200161212f9061395c565b6040516020818303038152906040528051906020012082828151811061215857612157613386565b5b602002602001015160405160200161217091906136bb565b6040516020818303038152906040528051906020012003612196576001925050506121b0565b80806121a1906133e4565b915050612117565b5060009150505b92915050565b8280548282559060005260206000209081019282156121fe579160200282015b828111156121fd5782518290816121ed9190613127565b50916020019190600101906121d6565b5b50905061220b91906122a8565b5090565b6040518060400160405280600015158152602001606081525090565b6040518060400160405280600015158152602001606081525090565b6040518060a001604052806060815260200160608152602001600073ffffffffffffffffffffffffffffffffffffffff16815260200160608152602001606081525090565b6040518060400160405280600015158152602001606081525090565b5b808211156122c857600081816122bf91906122cc565b506001016122a9565b5090565b5080546122d890612f40565b6000825580601f106122ea5750612309565b601f016020900490600052602060002090810190612308919061230c565b5b50565b5b8082111561232557600081600090555060010161230d565b5090565b6000604051905090565b600080fd5b600080fd5b600073ffffffffffffffffffffffffffffffffffffffff82169050919050565b60006123688261233d565b9050919050565b6123788161235d565b811461238357600080fd5b50565b6000813590506123958161236f565b92915050565b600080fd5b600080fd5b6000601f19601f8301169050919050565b7f4e487b7100000000000000000000000000000000000000000000000000000000600052604160045260246000fd5b6123ee826123a5565b810181811067ffffffffffffffff8211171561240d5761240c6123b6565b5b80604052505050565b6000612420612329565b905061242c82826123e5565b919050565b600067ffffffffffffffff82111561244c5761244b6123b6565b5b612455826123a5565b9050602081019050919050565b82818337600083830152505050565b600061248461247f84612431565b612416565b9050828152602081018484840111156124a05761249f6123a0565b5b6124ab848285612462565b509392505050565b600082601f8301126124c8576124c761239b565b5b81356124d8848260208601612471565b91505092915050565b600067ffffffffffffffff8211156124fc576124fb6123b6565b5b602082029050602081019050919050565b600080fd5b6000612525612520846124e1565b612416565b905080838252602082019050602084028301858111156125485761254761250d565b5b835b8181101561258f57803567ffffffffffffffff81111561256d5761256c61239b565b5b80860161257a89826124b3565b8552602085019450505060208101905061254a565b5050509392505050565b600082601f8301126125ae576125ad61239b565b5b81356125be848260208601612512565b91505092915050565b600080600080608085870312156125e1576125e0612333565b5b60006125ef87828801612386565b945050602085013567ffffffffffffffff8111156126105761260f612338565b5b61261c878288016124b3565b935050604085013567ffffffffffffffff81111561263d5761263c612338565b5b612649878288016124b3565b925050606085013567ffffffffffffffff81111561266a57612669612338565b5b61267687828801612599565b91505092959194509250565b6000806040838503121561269957612698612333565b5b60006126a785828601612386565b925050602083013567ffffffffffffffff8111156126c8576126c7612338565b5b6126d4858286016124b3565b9150509250929050565b60008115159050919050565b6126f3816126de565b82525050565b600081519050919050565b600082825260208201905092915050565b6000819050602082019050919050565b600081519050919050565b600082825260208201905092915050565b60005b8381101561275f578082015181840152602081019050612744565b60008484015250505050565b600061277682612725565b6127808185612730565b9350612790818560208601612741565b612799816123a5565b840191505092915050565b60006127b0838361276b565b905092915050565b6000602082019050919050565b60006127d0826126f9565b6127da8185612704565b9350836020820285016127ec85612715565b8060005b85811015612828578484038952815161280985826127a4565b9450612814836127b8565b925060208a019950506001810190506127f0565b50829750879550505050505092915050565b600060408301600083015161285260008601826126ea565b506020830151848203602086015261286a82826127c5565b9150508091505092915050565b60006020820190508181036000830152612891818461283a565b905092915050565b6128a2816126de565b82525050565b60006020820190506128bd6000830184612899565b92915050565b6000602082840312156128d9576128d8612333565b5b60006128e784828501612386565b91505092915050565b600081519050919050565b600082825260208201905092915050565b6000819050602082019050919050565b6129258161235d565b82525050565b600060a0830160008301518482036000860152612948828261276b565b91505060208301518482036020860152612962828261276b565b9150506040830151612977604086018261291c565b506060830151848203606086015261298f828261276b565b915050608083015184820360808601526129a9828261276b565b9150508091505092915050565b60006129c2838361292b565b905092915050565b6000602082019050919050565b60006129e2826128f0565b6129ec81856128fb565b9350836020820285016129fe8561290c565b8060005b85811015612a3a5784840389528151612a1b85826129b6565b9450612a26836129ca565b925060208a01995050600181019050612a02565b50829750879550505050505092915050565b6000604083016000830151612a6460008601826126ea565b5060208301518482036020860152612a7c82826129d7565b9150508091505092915050565b60006020820190508181036000830152612aa38184612a4c565b905092915050565b600060208284031215612ac157612ac0612333565b5b600082013567ffffffffffffffff811115612adf57612ade612338565b5b612aeb848285016124b3565b91505092915050565b60008060008060808587031215612b0e57612b0d612333565b5b6000612b1c87828801612386565b9450506020612b2d87828801612386565b935050604085013567ffffffffffffffff811115612b4e57612b4d612338565b5b612b5a878288016124b3565b925050606085013567ffffffffffffffff811115612b7b57612b7a612338565b5b612b87878288016124b3565b91505092959194509250565b60008060408385031215612baa57612ba9612333565b5b600083013567ffffffffffffffff811115612bc857612bc7612338565b5b612bd4858286016124b3565b9250506020612be585828601612386565b9150509250929050565b600080600060608486031215612c0857612c07612333565b5b6000612c1686828701612386565b935050602084013567ffffffffffffffff811115612c3757612c36612338565b5b612c43868287016124b3565b925050604084013567ffffffffffffffff811115612c6457612c63612338565b5b612c7086828701612599565b9150509250925092565b6000604083016000830151612c9260008601826126ea565b5060208301518482036020860152612caa828261276b565b9150508091505092915050565b60006020820190508181036000830152612cd18184612c7a565b905092915050565b612ce28161235d565b82525050565b6000602082019050612cfd6000830184612cd9565b92915050565b600080600060608486031215612d1c57612d1b612333565b5b6000612d2a86828701612386565b935050602084013567ffffffffffffffff811115612d4b57612d4a612338565b5b612d57868287016124b3565b925050604084013567ffffffffffffffff811115612d7857612d77612338565b5b612d84868287016124b3565b9150509250925092565b600082825260208201905092915050565b6000612daa82612725565b612db48185612d8e565b9350612dc4818560208601612741565b612dcd816123a5565b840191505092915050565b600082825260208201905092915050565b6000612df4826126f9565b612dfe8185612dd8565b935083602082028501612e1085612715565b8060005b85811015612e4c5784840389528151612e2d85826127a4565b9450612e38836127b8565b925060208a01995050600181019050612e14565b50829750879550505050505092915050565b6000608082019050612e736000830187612cd9565b8181036020830152612e858186612d9f565b90508181036040830152612e998185612d9f565b90508181036060830152612ead8184612de9565b905095945050505050565b612ec1816126de565b8114612ecc57600080fd5b50565b600081519050612ede81612eb8565b92915050565b600060208284031215612efa57612ef9612333565b5b6000612f0884828501612ecf565b91505092915050565b7f4e487b7100000000000000000000000000000000000000000000000000000000600052602260045260246000fd5b60006002820490506001821680612f5857607f821691505b602082108103612f6b57612f6a612f11565b5b50919050565b60008190508160005260206000209050919050565b60006020601f8301049050919050565b600082821b905092915050565b600060088302612fd37fffffffffffffffffffffffffffffffffffffffffffffffffffffffffffffffff82612f96565b612fdd8683612f96565b95508019841693508086168417925050509392505050565b6000819050919050565b6000819050919050565b600061302461301f61301a84612ff5565b612fff565b612ff5565b9050919050565b6000819050919050565b61303e83613009565b61305261304a8261302b565b848454612fa3565b825550505050565b600090565b61306761305a565b613072818484613035565b505050565b5b818110156130965761308b60008261305f565b600181019050613078565b5050565b601f8211156130db576130ac81612f71565b6130b584612f86565b810160208510156130c4578190505b6130d86130d085612f86565b830182613077565b50505b505050565b600082821c905092915050565b60006130fe600019846008026130e0565b1980831691505092915050565b600061311783836130ed565b9150826002028217905092915050565b61313082612725565b67ffffffffffffffff811115613149576131486123b6565b5b6131538254612f40565b61315e82828561309a565b600060209050601f831160018114613191576000841561317f578287015190505b613189858261310b565b8655506131f1565b601f19841661319f86612f71565b60005b828110156131c7578489015182556001820191506020850194506020810190506131a2565b868310156131e457848901516131e0601f8916826130ed565b8355505b6001600288020188555050505b505050505050565b600060208201905081810360008301526132138184612de9565b905092915050565b600061322e61322984612431565b612416565b90508281526020810184848401111561324a576132496123a0565b5b613255848285612741565b509392505050565b600082601f8301126132725761327161239b565b5b815161328284826020860161321b565b91505092915050565b6000602082840312156132a1576132a0612333565b5b600082015167ffffffffffffffff8111156132bf576132be612338565b5b6132cb8482850161325d565b91505092915050565b7f7368617265000000000000000000000000000000000000000000000000000000600082015250565b600061330a600583612d8e565b9150613315826132d4565b602082019050919050565b600060a0820190506133356000830187612cd9565b81810360208301526133478186612d9f565b90506133566040830185612cd9565b81810360608301526133688184612d9f565b9050818103608083015261337b816132fd565b905095945050505050565b7f4e487b7100000000000000000000000000000000000000000000000000000000600052603260045260246000fd5b7f4e487b7100000000000000000000000000000000000000000000000000000000600052601160045260246000fd5b60006133ef82612ff5565b91507fffffffffffffffffffffffffffffffffffffffffffffffffffffffffffffffff8203613421576134206133b5565b5b600182019050919050565b600060208201905081810360008301526134468184612d9f565b905092915050565b600080fd5b600080fd5b6000815190506134678161236f565b92915050565b600060a082840312156134835761348261344e565b5b61348d60a0612416565b9050600082015167ffffffffffffffff8111156134ad576134ac613453565b5b6134b98482850161325d565b600083015250602082015167ffffffffffffffff8111156134dd576134dc613453565b5b6134e98482850161325d565b60208301525060406134fd84828501613458565b604083015250606082015167ffffffffffffffff81111561352157613520613453565b5b61352d8482850161325d565b606083015250608082015167ffffffffffffffff81111561355157613550613453565b5b61355d8482850161325d565b60808301525092915050565b60006040828403121561357f5761357e61344e565b5b6135896040612416565b9050600061359984828501612ecf565b600083015250602082015167ffffffffffffffff8111156135bd576135bc613453565b5b6135c98482850161346d565b60208301525092915050565b6000602082840312156135eb576135ea612333565b5b600082015167ffffffffffffffff81111561360957613608612338565b5b61361584828501613569565b91505092915050565b600081905092915050565b7f646f776e6c6f6164000000000000000000000000000000000000000000000000600082015250565b600061365f60088361361e565b915061366a82613629565b600882019050919050565b600061368082613652565b9150819050919050565b600061369582612725565b61369f818561361e565b93506136af818560208601612741565b80840191505092915050565b60006136c7828461368a565b915081905092915050565b60006040820190506136e76000830185612cd9565b81810360208301526136f98184612d9f565b90509392505050565b7f2d00000000000000000000000000000000000000000000000000000000000000600082015250565b6000613738600183612d8e565b915061374382613702565b602082019050919050565b600061375b600883612d8e565b915061376682613629565b602082019050919050565b600060a0820190506137866000830186612cd9565b81810360208301526137988185612d9f565b90506137a76040830184612cd9565b81810360608301526137b88161372b565b905081810360808301526137cb8161374e565b9050949350505050565b7f757064617465207065726d697373696f6e730000000000000000000000000000600082015250565b600061380b601283612d8e565b9150613816826137d5565b602082019050919050565b600060a0820190506138366000830187612cd9565b81810360208301526138488186612d9f565b90506138576040830185612cd9565b81810360608301526138698184612d9f565b9050818103608083015261387c816137fe565b905095945050505050565b7f75706c6f61640000000000000000000000000000000000000000000000000000600082015250565b60006138bd600683612d8e565b91506138c882613887565b602082019050919050565b600060a0820190506138e86000830187612cd9565b81810360208301526138fa8186612d9f565b90506139096040830185612cd9565b818103606083015261391b8184612d9f565b9050818103608083015261392e816138b0565b905095945050505050565b600061394660058361361e565b9150613951826132d4565b600582019050919050565b600061396782613939565b915081905091905056fea2646970667358221220244a72a0141e236929d1431374505f613dea38a7014c89edcd4c343c2fc8f8a164736f6c63430008130033608060405234801561001057600080fd5b5033600160006101000a81548173ffffffffffffffffffffffffffffffffffffffff021916908373ffffffffffffffffffffffffffffffffffffffff16021790555033600260006101000a81548173ffffffffffffffffffffffffffffffffffffffff021916908373ffffffffffffffffffffffffffffffffffffffff1602179055506113e1806100a26000396000f3fe608060405234801561001057600080fd5b50600436106100365760003560e01c8063759ab1851461003b578063c47ebddc1461006b575b600080fd5b61005560048036038101906100509190610a68565b610087565b6040516100629190610d3b565b60405180910390f35b61008560048036038101906100809190610d89565b6105e7565b005b61008f6107aa565b6000808054905067ffffffffffffffff8111156100af576100ae610852565b5b6040519080825280602002602001820160405280156100e857816020015b6100d56107c6565b8152602001906001900390816100cd5790505b5090506000805b845181101561054457600160009054906101000a900473ffffffffffffffffffffffffffffffffffffffff1673ffffffffffffffffffffffffffffffffffffffff16631ac47dd03387848151811061014a57610149610e58565b5b60200260200101516040518363ffffffff1660e01b815260040161016f929190610ee0565b602060405180830381865afa15801561018c573d6000803e3d6000fd5b505050506040513d601f19601f820116820180604052508101906101b09190610f3c565b156105315760005b60008054905081101561052f578582815181106101d8576101d7610e58565b5b60200260200101516040516020016101f09190610fa5565b604051602081830303815290604052805190602001206000828154811061021a57610219610e58565b5b906000526020600020906006020160000160405160200161023b91906110b4565b604051602081830303815290604052805190602001200361051c576000818154811061026a57610269610e58565b5b90600052602060002090600602016040518060c001604052908160008201805461029390610feb565b80601f01602080910402602001604051908101604052809291908181526020018280546102bf90610feb565b801561030c5780601f106102e15761010080835404028352916020019161030c565b820191906000526020600020905b8154815290600101906020018083116102ef57829003601f168201915b505050505081526020016001820160009054906101000a900473ffffffffffffffffffffffffffffffffffffffff1673ffffffffffffffffffffffffffffffffffffffff1673ffffffffffffffffffffffffffffffffffffffff1681526020016002820154815260200160038201805461038590610feb565b80601f01602080910402602001604051908101604052809291908181526020018280546103b190610feb565b80156103fe5780601f106103d3576101008083540402835291602001916103fe565b820191906000526020600020905b8154815290600101906020018083116103e157829003601f168201915b5050505050815260200160048201805461041790610feb565b80601f016020809104026020016040519081016040528092919081815260200182805461044390610feb565b80156104905780601f1061046557610100808354040283529160200191610490565b820191906000526020600020905b81548152906001019060200180831161047357829003601f168201915b505050505081526020016005820160009054906101000a900473ffffffffffffffffffffffffffffffffffffffff1673ffffffffffffffffffffffffffffffffffffffff1673ffffffffffffffffffffffffffffffffffffffff168152505084848151811061050257610501610e58565b5b60200260200101819052508280610518906110fa565b9350505b8080610527906110fa565b9150506101b8565b505b808061053c906110fa565b9150506100ef565b508082526000811461057157604051806040016040528060011515815260200183815250925050506105e2565b6040518060400160405280600015158152602001600067ffffffffffffffff8111156105a05761059f610852565b5b6040519080825280602002602001820160405280156105d957816020015b6105c66107c6565b8152602001906001900390816105be5790505b50815250925050505b919050565b600260009054906101000a900473ffffffffffffffffffffffffffffffffffffffff1673ffffffffffffffffffffffffffffffffffffffff163373ffffffffffffffffffffffffffffffffffffffff16036107a35760006040518060c001604052808681526020018573ffffffffffffffffffffffffffffffffffffffff1681526020014281526020018381526020018481526020018773ffffffffffffffffffffffffffffffffffffffff168152509050600081908060018154018082558091505060019003906000526020600020906006020160009091909190915060008201518160000190816106da91906112d9565b5060208201518160010160006101000a81548173ffffffffffffffffffffffffffffffffffffffff021916908373ffffffffffffffffffffffffffffffffffffffff16021790555060408201518160020155606082015181600301908161074191906112d9565b50608082015181600401908161075791906112d9565b5060a08201518160050160006101000a81548173ffffffffffffffffffffffffffffffffffffffff021916908373ffffffffffffffffffffffffffffffffffffffff1602179055505050505b5050505050565b6040518060400160405280600015158152602001606081525090565b6040518060c0016040528060608152602001600073ffffffffffffffffffffffffffffffffffffffff168152602001600081526020016060815260200160608152602001600073ffffffffffffffffffffffffffffffffffffffff1681525090565b6000604051905090565b600080fd5b600080fd5b600080fd5b6000601f19601f8301169050919050565b7f4e487b7100000000000000000000000000000000000000000000000000000000600052604160045260246000fd5b61088a82610841565b810181811067ffffffffffffffff821117156108a9576108a8610852565b5b80604052505050565b60006108bc610828565b90506108c88282610881565b919050565b600067ffffffffffffffff8211156108e8576108e7610852565b5b602082029050602081019050919050565b600080fd5b600080fd5b600067ffffffffffffffff82111561091e5761091d610852565b5b61092782610841565b9050602081019050919050565b82818337600083830152505050565b600061095661095184610903565b6108b2565b905082815260208101848484011115610972576109716108fe565b5b61097d848285610934565b509392505050565b600082601f83011261099a5761099961083c565b5b81356109aa848260208601610943565b91505092915050565b60006109c66109c1846108cd565b6108b2565b905080838252602082019050602084028301858111156109e9576109e86108f9565b5b835b81811015610a3057803567ffffffffffffffff811115610a0e57610a0d61083c565b5b808601610a1b8982610985565b855260208501945050506020810190506109eb565b5050509392505050565b600082601f830112610a4f57610a4e61083c565b5b8135610a5f8482602086016109b3565b91505092915050565b600060208284031215610a7e57610a7d610832565b5b600082013567ffffffffffffffff811115610a9c57610a9b610837565b5b610aa884828501610a3a565b91505092915050565b60008115159050919050565b610ac681610ab1565b82525050565b600081519050919050565b600082825260208201905092915050565b6000819050602082019050919050565b600081519050919050565b600082825260208201905092915050565b60005b83811015610b32578082015181840152602081019050610b17565b60008484015250505050565b6000610b4982610af8565b610b538185610b03565b9350610b63818560208601610b14565b610b6c81610841565b840191505092915050565b600073ffffffffffffffffffffffffffffffffffffffff82169050919050565b6000610ba282610b77565b9050919050565b610bb281610b97565b82525050565b6000819050919050565b610bcb81610bb8565b82525050565b600060c0830160008301518482036000860152610bee8282610b3e565b9150506020830151610c036020860182610ba9565b506040830151610c166040860182610bc2565b5060608301518482036060860152610c2e8282610b3e565b91505060808301518482036080860152610c488282610b3e565b91505060a0830151610c5d60a0860182610ba9565b508091505092915050565b6000610c748383610bd1565b905092915050565b6000602082019050919050565b6000610c9482610acc565b610c9e8185610ad7565b935083602082028501610cb085610ae8565b8060005b85811015610cec5784840389528151610ccd8582610c68565b9450610cd883610c7c565b925060208a01995050600181019050610cb4565b50829750879550505050505092915050565b6000604083016000830151610d166000860182610abd565b5060208301518482036020860152610d2e8282610c89565b9150508091505092915050565b60006020820190508181036000830152610d558184610cfe565b905092915050565b610d6681610b97565b8114610d7157600080fd5b50565b600081359050610d8381610d5d565b92915050565b600080600080600060a08688031215610da557610da4610832565b5b6000610db388828901610d74565b955050602086013567ffffffffffffffff811115610dd457610dd3610837565b5b610de088828901610985565b9450506040610df188828901610d74565b935050606086013567ffffffffffffffff811115610e1257610e11610837565b5b610e1e88828901610985565b925050608086013567ffffffffffffffff811115610e3f57610e3e610837565b5b610e4b88828901610985565b9150509295509295909350565b7f4e487b7100000000000000000000000000000000000000000000000000000000600052603260045260246000fd5b610e9081610b97565b82525050565b600082825260208201905092915050565b6000610eb282610af8565b610ebc8185610e96565b9350610ecc818560208601610b14565b610ed581610841565b840191505092915050565b6000604082019050610ef56000830185610e87565b8181036020830152610f078184610ea7565b90509392505050565b610f1981610ab1565b8114610f2457600080fd5b50565b600081519050610f3681610f10565b92915050565b600060208284031215610f5257610f51610832565b5b6000610f6084828501610f27565b91505092915050565b600081905092915050565b6000610f7f82610af8565b610f898185610f69565b9350610f99818560208601610b14565b80840191505092915050565b6000610fb18284610f74565b915081905092915050565b7f4e487b7100000000000000000000000000000000000000000000000000000000600052602260045260246000fd5b6000600282049050600182168061100357607f821691505b60208210810361101657611015610fbc565b5b50919050565b60008190508160005260206000209050919050565b6000815461103e81610feb565b6110488186610f69565b945060018216600081146110635760018114611078576110ab565b60ff19831686528115158202860193506110ab565b6110818561101c565b60005b838110156110a357815481890152600182019150602081019050611084565b838801955050505b50505092915050565b60006110c08284611031565b915081905092915050565b7f4e487b7100000000000000000000000000000000000000000000000000000000600052601160045260246000fd5b600061110582610bb8565b91507fffffffffffffffffffffffffffffffffffffffffffffffffffffffffffffffff8203611137576111366110cb565b5b600182019050919050565b60006020601f8301049050919050565b600082821b905092915050565b60006008830261118f7fffffffffffffffffffffffffffffffffffffffffffffffffffffffffffffffff82611152565b6111998683611152565b95508019841693508086168417925050509392505050565b6000819050919050565b60006111d66111d16111cc84610bb8565b6111b1565b610bb8565b9050919050565b6000819050919050565b6111f0836111bb565b6112046111fc826111dd565b84845461115f565b825550505050565b600090565b61121961120c565b6112248184846111e7565b505050565b5b818110156112485761123d600082611211565b60018101905061122a565b5050565b601f82111561128d5761125e8161101c565b61126784611142565b81016020851015611276578190505b61128a61128285611142565b830182611229565b50505b505050565b600082821c905092915050565b60006112b060001984600802611292565b1980831691505092915050565b60006112c9838361129f565b9150826002028217905092915050565b6112e282610af8565b67ffffffffffffffff8111156112fb576112fa610852565b5b6113058254610feb565b61131082828561124c565b600060209050601f8311600181146113435760008415611331578287015190505b61133b85826112bd565b8655506113a3565b601f1984166113518661101c565b60005b8281101561137957848901518255600182019150602085019450602081019050611354565b868310156113965784890151611392601f89168261129f565b8355505b6001600288020188555050505b50505050505056fea2646970667358221220c52497f48163c4bb5493138c96732da8912ef1cde7f4518fe03137ae7cb08d4964736f6c63430008130033",
  "linkReferences": {},
  "deployedLinkReferences": {}
}