{
  "_format": "hh-sol-artifact-1",
  "contractName": "AccessControl",
  "sourceName": "contracts/AccessControl.sol",
  "abi": [
    {
      "inputs": [
        {
          "internalType": "address",
          "name": "fileRegisterContract",
          "type": "address"
        }
      ],
      "stateMutability": "nonpayable",
      "type": "constructor"
    },
    {
      "inputs": [
        {
          "components": [
            {
              "internalType": "address",
              "name": "account",
              "type": "address"
            },
            {
              "internalType": "string",
              "name": "userName",
              "type": "string"
            },
            {
              "internalType": "string",
              "name": "publicKey",
              "type": "string"
            },
            {
              "internalType": "string",
              "name": "privateKey",
              "type": "string"
            }
          ],
          "internalType": "struct UserRegister.User",
          "name": "user",
          "type": "tuple"
        },
        {
          "components": [
            {
              "internalType": "string",
              "name": "ipfsCID",
              "type": "string"
            },
            {
              "internalType": "string",
              "name": "fileName",
              "type": "string"
            },
            {
              "internalType": "address",
              "name": "owner",
              "type": "address"
            },
            {
              "internalType": "string",
              "name": "fileType",
              "type": "string"
            },
            {
              "internalType": "string",
              "name": "iv",
              "type": "string"
            }
          ],
          "internalType": "struct FileRegister.File",
          "name": "file",
          "type": "tuple"
        }
      ],
      "name": "getEncSymmetricKeyFileUser",
      "outputs": [
        {
          "internalType": "string",
          "name": "",
          "type": "string"
        }
      ],
      "stateMutability": "view",
      "type": "function"
    },
    {
      "inputs": [
        {
          "components": [
            {
              "internalType": "address",
              "name": "account",
              "type": "address"
            },
            {
              "internalType": "string",
              "name": "userName",
              "type": "string"
            },
            {
              "internalType": "string",
              "name": "publicKey",
              "type": "string"
            },
            {
              "internalType": "string",
              "name": "privateKey",
              "type": "string"
            }
          ],
          "internalType": "struct UserRegister.User",
          "name": "user",
          "type": "tuple"
        },
        {
          "components": [
            {
              "internalType": "string",
              "name": "ipfsCID",
              "type": "string"
            },
            {
              "internalType": "string",
              "name": "fileName",
              "type": "string"
            },
            {
              "internalType": "address",
              "name": "owner",
              "type": "address"
            },
            {
              "internalType": "string",
              "name": "fileType",
              "type": "string"
            },
            {
              "internalType": "string",
              "name": "iv",
              "type": "string"
            }
          ],
          "internalType": "struct FileRegister.File",
          "name": "file",
          "type": "tuple"
        }
      ],
      "name": "getPermissionsOverFile",
      "outputs": [
        {
          "internalType": "string[]",
          "name": "",
          "type": "string[]"
        }
      ],
      "stateMutability": "view",
      "type": "function"
    },
    {
      "inputs": [
        {
          "internalType": "address",
          "name": "account",
          "type": "address"
        }
      ],
      "name": "getUserFiles",
      "outputs": [
        {
          "components": [
            {
              "internalType": "bool",
              "name": "success",
              "type": "bool"
            },
            {
              "components": [
                {
                  "internalType": "string",
                  "name": "ipfsCID",
                  "type": "string"
                },
                {
                  "internalType": "string",
                  "name": "fileName",
                  "type": "string"
                },
                {
                  "internalType": "address",
                  "name": "owner",
                  "type": "address"
                },
                {
                  "internalType": "string",
                  "name": "fileType",
                  "type": "string"
                },
                {
                  "internalType": "string",
                  "name": "iv",
                  "type": "string"
                }
              ],
              "internalType": "struct FileRegister.File[]",
              "name": "files",
              "type": "tuple[]"
            }
          ],
          "internalType": "struct AccessControl.ResultAction",
          "name": "",
          "type": "tuple"
        }
      ],
      "stateMutability": "view",
      "type": "function"
    },
    {
      "inputs": [
        {
          "components": [
            {
              "internalType": "address",
              "name": "account",
              "type": "address"
            },
            {
              "internalType": "string",
              "name": "userName",
              "type": "string"
            },
            {
              "internalType": "string",
              "name": "publicKey",
              "type": "string"
            },
            {
              "internalType": "string",
              "name": "privateKey",
              "type": "string"
            }
          ],
          "internalType": "struct UserRegister.User",
          "name": "user",
          "type": "tuple"
        },
        {
          "components": [
            {
              "internalType": "string",
              "name": "ipfsCID",
              "type": "string"
            },
            {
              "internalType": "string",
              "name": "fileName",
              "type": "string"
            },
            {
              "internalType": "address",
              "name": "owner",
              "type": "address"
            },
            {
              "internalType": "string",
              "name": "fileType",
              "type": "string"
            },
            {
              "internalType": "string",
              "name": "iv",
              "type": "string"
            }
          ],
          "internalType": "struct FileRegister.File",
          "name": "file",
          "type": "tuple"
        },
        {
          "internalType": "string",
          "name": "encSymmetricKey",
          "type": "string"
        },
        {
          "internalType": "string[]",
          "name": "permissions",
          "type": "string[]"
        }
      ],
      "name": "shareFile",
      "outputs": [],
      "stateMutability": "nonpayable",
      "type": "function"
    },
    {
      "inputs": [
        {
          "components": [
            {
              "internalType": "address",
              "name": "account",
              "type": "address"
            },
            {
              "internalType": "string",
              "name": "userName",
              "type": "string"
            },
            {
              "internalType": "string",
              "name": "publicKey",
              "type": "string"
            },
            {
              "internalType": "string",
              "name": "privateKey",
              "type": "string"
            }
          ],
          "internalType": "struct UserRegister.User",
          "name": "user",
          "type": "tuple"
        },
        {
          "components": [
            {
              "internalType": "string",
              "name": "ipfsCID",
              "type": "string"
            },
            {
              "internalType": "string",
              "name": "fileName",
              "type": "string"
            },
            {
              "internalType": "address",
              "name": "owner",
              "type": "address"
            },
            {
              "internalType": "string",
              "name": "fileType",
              "type": "string"
            },
            {
              "internalType": "string",
              "name": "iv",
              "type": "string"
            }
          ],
          "internalType": "struct FileRegister.File",
          "name": "file",
          "type": "tuple"
        },
        {
          "internalType": "string",
          "name": "encSymmetricKey",
          "type": "string"
        }
      ],
      "name": "uploadFile",
      "outputs": [],
      "stateMutability": "nonpayable",
      "type": "function"
    },
    {
      "inputs": [
        {
          "components": [
            {
              "internalType": "address",
              "name": "account",
              "type": "address"
            },
            {
              "internalType": "string",
              "name": "userName",
              "type": "string"
            },
            {
              "internalType": "string",
              "name": "publicKey",
              "type": "string"
            },
            {
              "internalType": "string",
              "name": "privateKey",
              "type": "string"
            }
          ],
          "internalType": "struct UserRegister.User",
          "name": "user",
          "type": "tuple"
        },
        {
          "components": [
            {
              "internalType": "string",
              "name": "ipfsCID",
              "type": "string"
            },
            {
              "internalType": "string",
              "name": "fileName",
              "type": "string"
            },
            {
              "internalType": "address",
              "name": "owner",
              "type": "address"
            },
            {
              "internalType": "string",
              "name": "fileType",
              "type": "string"
            },
            {
              "internalType": "string",
              "name": "iv",
              "type": "string"
            }
          ],
          "internalType": "struct FileRegister.File",
          "name": "file",
          "type": "tuple"
        }
      ],
      "name": "userAssociatedWithFile",
      "outputs": [
        {
          "internalType": "bool",
          "name": "",
          "type": "bool"
        }
      ],
      "stateMutability": "view",
      "type": "function"
    }
  ],
  "bytecode": "0x60806040523480156200001157600080fd5b5060405162002350380380620023508339818101604052810190620000379190620000e9565b80600160006101000a81548173ffffffffffffffffffffffffffffffffffffffff021916908373ffffffffffffffffffffffffffffffffffffffff160217905550506200011b565b600080fd5b600073ffffffffffffffffffffffffffffffffffffffff82169050919050565b6000620000b18262000084565b9050919050565b620000c381620000a4565b8114620000cf57600080fd5b50565b600081519050620000e381620000b8565b92915050565b6000602082840312156200010257620001016200007f565b5b60006200011284828501620000d2565b91505092915050565b612225806200012b6000396000f3fe608060405234801561001057600080fd5b50600436106100625760003560e01c80631fc3792214610067578063533f2134146100975780635d02eece146100c75780639468a12e146100f7578063ad4d2bb214610113578063de6b9f7d14610143575b600080fd5b610081600480360381019061007c919061110f565b61015f565b60405161008e9190611380565b60405180910390f35b6100b160048036038101906100ac91906116a9565b61043e565b6040516100be91906117e3565b60405180910390f35b6100e160048036038101906100dc91906116a9565b6106c4565b6040516100ee919061184f565b60405180910390f35b610111600480360381019061010c9190611957565b6108c4565b005b61012d600480360381019061012891906116a9565b6108fd565b60405161013a9190611a3d565b60405180910390f35b61015d60048036038101906101589190611a58565b610a46565b005b610167610f62565b6000808054905067ffffffffffffffff811115610187576101866113a7565b5b6040519080825280602002602001820160405280156101c057816020015b6101ad610f7e565b8152602001906001900390816101a55790505b5090506000805b6000805490508110156103ef578473ffffffffffffffffffffffffffffffffffffffff16600082815481106101ff576101fe611aff565b5b906000526020600020906004020160000160009054906101000a900473ffffffffffffffffffffffffffffffffffffffff1673ffffffffffffffffffffffffffffffffffffffff16036103dc57600080828154811061026157610260611aff565b5b9060005260206000209060040201600101805461027d90611b5d565b80601f01602080910402602001604051908101604052809291908181526020018280546102a990611b5d565b80156102f65780601f106102cb576101008083540402835291602001916102f6565b820191906000526020600020905b8154815290600101906020018083116102d957829003601f168201915b505050505090506000600160009054906101000a900473ffffffffffffffffffffffffffffffffffffffff1673ffffffffffffffffffffffffffffffffffffffff16639f5937f8836040518263ffffffff1660e01b815260040161035a919061184f565b600060405180830381865afa158015610377573d6000803e3d6000fd5b505050506040513d6000823e3d601f19601f820116820180604052508101906103a09190611da7565b9050600081602001519050808686815181106103bf576103be611aff565b5b602002602001018190525084806103d590611e29565b9550505050505b80806103e790611e29565b9150506101c7565b508082526000811461041c5760405180604001604052806001151581526020018381525092505050610439565b604051806040016040528060001515815260200183815250925050505b919050565b606060005b60008054905081101561066b5761055684600001516000838154811061046c5761046b611aff565b5b906000526020600020906004020160000160009054906101000a900473ffffffffffffffffffffffffffffffffffffffff168560000151600085815481106104b7576104b6611aff565b5b906000526020600020906004020160010180546104d390611b5d565b80601f01602080910402602001604051908101604052809291908181526020018280546104ff90611b5d565b801561054c5780601f106105215761010080835404028352916020019161054c565b820191906000526020600020905b81548152906001019060200180831161052f57829003601f168201915b5050505050610c53565b15610658576000818154811061056f5761056e611aff565b5b9060005260206000209060040201600301805480602002602001604051908101604052809291908181526020016000905b8282101561064c5783829060005260206000200180546105bf90611b5d565b80601f01602080910402602001604051908101604052809291908181526020018280546105eb90611b5d565b80156106385780601f1061060d57610100808354040283529160200191610638565b820191906000526020600020905b81548152906001019060200180831161061b57829003601f168201915b5050505050815260200190600101906105a0565b505050509150506106be565b808061066390611e29565b915050610443565b50600067ffffffffffffffff811115610687576106866113a7565b5b6040519080825280602002602001820160405280156106ba57816020015b60608152602001906001900390816106a55790505b5090505b92915050565b606060005b6000805490508110156108aa576107dc8460000151600083815481106106f2576106f1611aff565b5b906000526020600020906004020160000160009054906101000a900473ffffffffffffffffffffffffffffffffffffffff1685600001516000858154811061073d5761073c611aff565b5b9060005260206000209060040201600101805461075990611b5d565b80601f016020809104026020016040519081016040528092919081815260200182805461078590611b5d565b80156107d25780601f106107a7576101008083540402835291602001916107d2565b820191906000526020600020905b8154815290600101906020018083116107b557829003601f168201915b5050505050610c53565b1561089757600081815481106107f5576107f4611aff565b5b9060005260206000209060040201600201805461081190611b5d565b80601f016020809104026020016040519081016040528092919081815260200182805461083d90611b5d565b801561088a5780601f1061085f5761010080835404028352916020019161088a565b820191906000526020600020905b81548152906001019060200180831161086d57829003601f168201915b50505050509150506108be565b80806108a290611e29565b9150506106c9565b506040518060200160405280600081525090505b92915050565b60006108d085856108fd565b905080156108e9576108e3858584610ce5565b506108f7565b6108f585858585610e5a565b505b50505050565b600080600090505b600080549050811015610a3a57610a1884600001516000838154811061092e5761092d611aff565b5b906000526020600020906004020160000160009054906101000a900473ffffffffffffffffffffffffffffffffffffffff1685600001516000858154811061097957610978611aff565b5b9060005260206000209060040201600101805461099590611b5d565b80601f01602080910402602001604051908101604052809291908181526020018280546109c190611b5d565b8015610a0e5780601f106109e357610100808354040283529160200191610a0e565b820191906000526020600020905b8154815290600101906020018083116109f157829003601f168201915b5050505050610c53565b15610a27576001915050610a40565b8080610a3290611e29565b915050610905565b50600090505b92915050565b6000610a5284846108fd565b90508015610a605750610c4e565b6000600367ffffffffffffffff811115610a7d57610a7c6113a7565b5b604051908082528060200260200182016040528015610ab057816020015b6060815260200190600190039081610a9b5790505b5090506040518060400160405280600881526020017f646f776e6c6f616400000000000000000000000000000000000000000000000081525081600081518110610afd57610afc611aff565b5b60200260200101819052506040518060400160405280600681526020017f64656c657465000000000000000000000000000000000000000000000000000081525081600181518110610b5257610b51611aff565b5b60200260200101819052506040518060400160405280600581526020017f736861726500000000000000000000000000000000000000000000000000000081525081600281518110610ba757610ba6611aff565b5b6020026020010181905250610bbe85858584610e5a565b600160009054906101000a900473ffffffffffffffffffffffffffffffffffffffff1673ffffffffffffffffffffffffffffffffffffffff16639aa7f418856040518263ffffffff1660e01b8152600401610c199190611efc565b600060405180830381600087803b158015610c3357600080fd5b505af1158015610c47573d6000803e3d6000fd5b5050505050505b505050565b60008473ffffffffffffffffffffffffffffffffffffffff168473ffffffffffffffffffffffffffffffffffffffff16148015610cdb575082604051602001610c9c9190611f5a565b6040516020818303038152906040528051906020012082604051602001610cc39190611f5a565b60405160208183030381529060405280519060200120145b9050949350505050565b60005b600080549050811015610e5357610dfb846000015160008381548110610d1157610d10611aff565b5b906000526020600020906004020160000160009054906101000a900473ffffffffffffffffffffffffffffffffffffffff16856000015160008581548110610d5c57610d5b611aff565b5b90600052602060002090600402016001018054610d7890611b5d565b80601f0160208091040260200160405190810160405280929190818152602001828054610da490611b5d565b8015610df15780601f10610dc657610100808354040283529160200191610df1565b820191906000526020600020905b815481529060010190602001808311610dd457829003601f168201915b5050505050610c53565b15610e40578160008281548110610e1557610e14611aff565b5b90600052602060002090600402016003019080519060200190610e39929190610fc3565b5050610e55565b8080610e4b90611e29565b915050610ce8565b505b505050565b60006040518060800160405280866000015173ffffffffffffffffffffffffffffffffffffffff16815260200185600001518152602001848152602001838152509050600081908060018154018082558091505060019003906000526020600020906004020160009091909190915060008201518160000160006101000a81548173ffffffffffffffffffffffffffffffffffffffff021916908373ffffffffffffffffffffffffffffffffffffffff1602179055506020820151816001019081610f25919061211d565b506040820151816002019081610f3b919061211d565b506060820151816003019080519060200190610f58929190610fc3565b5050505050505050565b6040518060400160405280600015158152602001606081525090565b6040518060a001604052806060815260200160608152602001600073ffffffffffffffffffffffffffffffffffffffff16815260200160608152602001606081525090565b82805482825590600052602060002090810192821561100b579160200282015b8281111561100a578251829081610ffa919061211d565b5091602001919060010190610fe3565b5b509050611018919061101c565b5090565b5b8082111561103c57600081816110339190611040565b5060010161101d565b5090565b50805461104c90611b5d565b6000825580601f1061105e575061107d565b601f01602090049060005260206000209081019061107c9190611080565b5b50565b5b80821115611099576000816000905550600101611081565b5090565b6000604051905090565b600080fd5b600080fd5b600073ffffffffffffffffffffffffffffffffffffffff82169050919050565b60006110dc826110b1565b9050919050565b6110ec816110d1565b81146110f757600080fd5b50565b600081359050611109816110e3565b92915050565b600060208284031215611125576111246110a7565b5b6000611133848285016110fa565b91505092915050565b60008115159050919050565b6111518161113c565b82525050565b600081519050919050565b600082825260208201905092915050565b6000819050602082019050919050565b600081519050919050565b600082825260208201905092915050565b60005b838110156111bd5780820151818401526020810190506111a2565b60008484015250505050565b6000601f19601f8301169050919050565b60006111e582611183565b6111ef818561118e565b93506111ff81856020860161119f565b611208816111c9565b840191505092915050565b61121c816110d1565b82525050565b600060a083016000830151848203600086015261123f82826111da565b9150506020830151848203602086015261125982826111da565b915050604083015161126e6040860182611213565b506060830151848203606086015261128682826111da565b915050608083015184820360808601526112a082826111da565b9150508091505092915050565b60006112b98383611222565b905092915050565b6000602082019050919050565b60006112d982611157565b6112e38185611162565b9350836020820285016112f585611173565b8060005b85811015611331578484038952815161131285826112ad565b945061131d836112c1565b925060208a019950506001810190506112f9565b50829750879550505050505092915050565b600060408301600083015161135b6000860182611148565b506020830151848203602086015261137382826112ce565b9150508091505092915050565b6000602082019050818103600083015261139a8184611343565b905092915050565b600080fd5b7f4e487b7100000000000000000000000000000000000000000000000000000000600052604160045260246000fd5b6113df826111c9565b810181811067ffffffffffffffff821117156113fe576113fd6113a7565b5b80604052505050565b600061141161109d565b905061141d82826113d6565b919050565b600080fd5b600080fd5b600080fd5b600067ffffffffffffffff82111561144c5761144b6113a7565b5b611455826111c9565b9050602081019050919050565b82818337600083830152505050565b600061148461147f84611431565b611407565b9050828152602081018484840111156114a05761149f61142c565b5b6114ab848285611462565b509392505050565b600082601f8301126114c8576114c7611427565b5b81356114d8848260208601611471565b91505092915050565b6000608082840312156114f7576114f66113a2565b5b6115016080611407565b90506000611511848285016110fa565b600083015250602082013567ffffffffffffffff81111561153557611534611422565b5b611541848285016114b3565b602083015250604082013567ffffffffffffffff81111561156557611564611422565b5b611571848285016114b3565b604083015250606082013567ffffffffffffffff81111561159557611594611422565b5b6115a1848285016114b3565b60608301525092915050565b600060a082840312156115c3576115c26113a2565b5b6115cd60a0611407565b9050600082013567ffffffffffffffff8111156115ed576115ec611422565b5b6115f9848285016114b3565b600083015250602082013567ffffffffffffffff81111561161d5761161c611422565b5b611629848285016114b3565b602083015250604061163d848285016110fa565b604083015250606082013567ffffffffffffffff81111561166157611660611422565b5b61166d848285016114b3565b606083015250608082013567ffffffffffffffff81111561169157611690611422565b5b61169d848285016114b3565b60808301525092915050565b600080604083850312156116c0576116bf6110a7565b5b600083013567ffffffffffffffff8111156116de576116dd6110ac565b5b6116ea858286016114e1565b925050602083013567ffffffffffffffff81111561170b5761170a6110ac565b5b611717858286016115ad565b9150509250929050565b600081519050919050565b600082825260208201905092915050565b6000819050602082019050919050565b600061175983836111da565b905092915050565b6000602082019050919050565b600061177982611721565b611783818561172c565b9350836020820285016117958561173d565b8060005b858110156117d157848403895281516117b2858261174d565b94506117bd83611761565b925060208a01995050600181019050611799565b50829750879550505050505092915050565b600060208201905081810360008301526117fd818461176e565b905092915050565b600082825260208201905092915050565b600061182182611183565b61182b8185611805565b935061183b81856020860161119f565b611844816111c9565b840191505092915050565b600060208201905081810360008301526118698184611816565b905092915050565b600067ffffffffffffffff82111561188c5761188b6113a7565b5b602082029050602081019050919050565b600080fd5b60006118b56118b084611871565b611407565b905080838252602082019050602084028301858111156118d8576118d761189d565b5b835b8181101561191f57803567ffffffffffffffff8111156118fd576118fc611427565b5b80860161190a89826114b3565b855260208501945050506020810190506118da565b5050509392505050565b600082601f83011261193e5761193d611427565b5b813561194e8482602086016118a2565b91505092915050565b60008060008060808587031215611971576119706110a7565b5b600085013567ffffffffffffffff81111561198f5761198e6110ac565b5b61199b878288016114e1565b945050602085013567ffffffffffffffff8111156119bc576119bb6110ac565b5b6119c8878288016115ad565b935050604085013567ffffffffffffffff8111156119e9576119e86110ac565b5b6119f5878288016114b3565b925050606085013567ffffffffffffffff811115611a1657611a156110ac565b5b611a2287828801611929565b91505092959194509250565b611a378161113c565b82525050565b6000602082019050611a526000830184611a2e565b92915050565b600080600060608486031215611a7157611a706110a7565b5b600084013567ffffffffffffffff811115611a8f57611a8e6110ac565b5b611a9b868287016114e1565b935050602084013567ffffffffffffffff811115611abc57611abb6110ac565b5b611ac8868287016115ad565b925050604084013567ffffffffffffffff811115611ae957611ae86110ac565b5b611af5868287016114b3565b9150509250925092565b7f4e487b7100000000000000000000000000000000000000000000000000000000600052603260045260246000fd5b7f4e487b7100000000000000000000000000000000000000000000000000000000600052602260045260246000fd5b60006002820490506001821680611b7557607f821691505b602082108103611b8857611b87611b2e565b5b50919050565b611b978161113c565b8114611ba257600080fd5b50565b600081519050611bb481611b8e565b92915050565b6000611bcd611bc884611431565b611407565b905082815260208101848484011115611be957611be861142c565b5b611bf484828561119f565b509392505050565b600082601f830112611c1157611c10611427565b5b8151611c21848260208601611bba565b91505092915050565b600081519050611c39816110e3565b92915050565b600060a08284031215611c5557611c546113a2565b5b611c5f60a0611407565b9050600082015167ffffffffffffffff811115611c7f57611c7e611422565b5b611c8b84828501611bfc565b600083015250602082015167ffffffffffffffff811115611caf57611cae611422565b5b611cbb84828501611bfc565b6020830152506040611ccf84828501611c2a565b604083015250606082015167ffffffffffffffff811115611cf357611cf2611422565b5b611cff84828501611bfc565b606083015250608082015167ffffffffffffffff811115611d2357611d22611422565b5b611d2f84828501611bfc565b60808301525092915050565b600060408284031215611d5157611d506113a2565b5b611d5b6040611407565b90506000611d6b84828501611ba5565b600083015250602082015167ffffffffffffffff811115611d8f57611d8e611422565b5b611d9b84828501611c3f565b60208301525092915050565b600060208284031215611dbd57611dbc6110a7565b5b600082015167ffffffffffffffff811115611ddb57611dda6110ac565b5b611de784828501611d3b565b91505092915050565b7f4e487b7100000000000000000000000000000000000000000000000000000000600052601160045260246000fd5b6000819050919050565b6000611e3482611e1f565b91507fffffffffffffffffffffffffffffffffffffffffffffffffffffffffffffffff8203611e6657611e65611df0565b5b600182019050919050565b600060a0830160008301518482036000860152611e8e82826111da565b91505060208301518482036020860152611ea882826111da565b9150506040830151611ebd6040860182611213565b5060608301518482036060860152611ed582826111da565b91505060808301518482036080860152611eef82826111da565b9150508091505092915050565b60006020820190508181036000830152611f168184611e71565b905092915050565b600081905092915050565b6000611f3482611183565b611f3e8185611f1e565b9350611f4e81856020860161119f565b80840191505092915050565b6000611f668284611f29565b915081905092915050565b60008190508160005260206000209050919050565b60006020601f8301049050919050565b600082821b905092915050565b600060088302611fd37fffffffffffffffffffffffffffffffffffffffffffffffffffffffffffffffff82611f96565b611fdd8683611f96565b95508019841693508086168417925050509392505050565b6000819050919050565b600061201a61201561201084611e1f565b611ff5565b611e1f565b9050919050565b6000819050919050565b61203483611fff565b61204861204082612021565b848454611fa3565b825550505050565b600090565b61205d612050565b61206881848461202b565b505050565b5b8181101561208c57612081600082612055565b60018101905061206e565b5050565b601f8211156120d1576120a281611f71565b6120ab84611f86565b810160208510156120ba578190505b6120ce6120c685611f86565b83018261206d565b50505b505050565b600082821c905092915050565b60006120f4600019846008026120d6565b1980831691505092915050565b600061210d83836120e3565b9150826002028217905092915050565b61212682611183565b67ffffffffffffffff81111561213f5761213e6113a7565b5b6121498254611b5d565b612154828285612090565b600060209050601f8311600181146121875760008415612175578287015190505b61217f8582612101565b8655506121e7565b601f19841661219586611f71565b60005b828110156121bd57848901518255600182019150602085019450602081019050612198565b868310156121da57848901516121d6601f8916826120e3565b8355505b6001600288020188555050505b50505050505056fea26469706673582212204d60f85d9c379e4983242062b8a5c9e2ed9c7c3f21f5aab06a979e45415953cc64736f6c63430008130033",
  "linkReferences": {},
  "deployedLinkReferences": {}
}