{
  "_format": "hh-sol-artifact-1",
  "contractName": "AccessControl",
  "sourceName": "contracts/AccessControl.sol",
  "abi": [
    {
      "inputs": [
        {
          "internalType": "address",
          "name": "helperContract",
          "type": "address"
        }
      ],
      "stateMutability": "nonpayable",
      "type": "constructor"
    },
    {
      "anonymous": false,
      "inputs": [
        {
          "indexed": true,
          "internalType": "address",
          "name": "userAccount",
          "type": "address"
        },
        {
          "indexed": false,
          "internalType": "string",
          "name": "fileIpfsCID",
          "type": "string"
        },
        {
          "indexed": false,
          "internalType": "string",
          "name": "permissionsOwner",
          "type": "string"
        },
        {
          "indexed": false,
          "internalType": "string",
          "name": "action",
          "type": "string"
        }
      ],
      "name": "FileActionLog",
      "type": "event"
    },
    {
      "inputs": [
        {
          "internalType": "address",
          "name": "userAccount",
          "type": "address"
        },
        {
          "internalType": "string",
          "name": "fileIpfsCid",
          "type": "string"
        }
      ],
      "name": "deactivateFile",
      "outputs": [],
      "stateMutability": "nonpayable",
      "type": "function"
    },
    {
      "inputs": [
        {
          "internalType": "string",
          "name": "fileIpfsCid",
          "type": "string"
        },
        {
          "internalType": "address",
          "name": "userAccount",
          "type": "address"
        }
      ],
      "name": "downloadFileAudit",
      "outputs": [],
      "stateMutability": "nonpayable",
      "type": "function"
    },
    {
      "inputs": [
        {
          "components": [
            {
              "internalType": "string",
              "name": "ipfsCID",
              "type": "string"
            },
            {
              "internalType": "string",
              "name": "fileName",
              "type": "string"
            },
            {
              "internalType": "int256",
              "name": "version",
              "type": "int256"
            },
            {
              "internalType": "string",
              "name": "prevIpfsCID",
              "type": "string"
            },
            {
              "internalType": "address",
              "name": "owner",
              "type": "address"
            },
            {
              "internalType": "string",
              "name": "fileType",
              "type": "string"
            },
            {
              "internalType": "string",
              "name": "iv",
              "type": "string"
            },
            {
              "internalType": "string",
              "name": "state",
              "type": "string"
            },
            {
              "internalType": "string",
              "name": "fileHash",
              "type": "string"
            }
          ],
          "internalType": "struct FileRegister.File",
          "name": "selectedFile",
          "type": "tuple"
        },
        {
          "components": [
            {
              "internalType": "string",
              "name": "ipfsCID",
              "type": "string"
            },
            {
              "internalType": "string",
              "name": "fileName",
              "type": "string"
            },
            {
              "internalType": "int256",
              "name": "version",
              "type": "int256"
            },
            {
              "internalType": "string",
              "name": "prevIpfsCID",
              "type": "string"
            },
            {
              "internalType": "address",
              "name": "owner",
              "type": "address"
            },
            {
              "internalType": "string",
              "name": "fileType",
              "type": "string"
            },
            {
              "internalType": "string",
              "name": "iv",
              "type": "string"
            },
            {
              "internalType": "string",
              "name": "state",
              "type": "string"
            },
            {
              "internalType": "string",
              "name": "fileHash",
              "type": "string"
            }
          ],
          "internalType": "struct FileRegister.File",
          "name": "newFile",
          "type": "tuple"
        },
        {
          "internalType": "address[]",
          "name": "usersWithDownlodPermSelectFile",
          "type": "address[]"
        },
        {
          "internalType": "string[]",
          "name": "pubKeyUsersWithDownloadPermSelectFile",
          "type": "string[]"
        }
      ],
      "name": "editFile",
      "outputs": [],
      "stateMutability": "nonpayable",
      "type": "function"
    },
    {
      "inputs": [
        {
          "internalType": "address",
          "name": "userAccount",
          "type": "address"
        },
        {
          "internalType": "string",
          "name": "fileIpfsCID",
          "type": "string"
        }
      ],
      "name": "elegibleToShare",
      "outputs": [
        {
          "internalType": "bool",
          "name": "",
          "type": "bool"
        }
      ],
      "stateMutability": "view",
      "type": "function"
    },
    {
      "inputs": [
        {
          "internalType": "address",
          "name": "userAccount",
          "type": "address"
        },
        {
          "internalType": "string",
          "name": "fileIpfsCID",
          "type": "string"
        }
      ],
      "name": "elegibleToUpdPermissions",
      "outputs": [
        {
          "internalType": "bool",
          "name": "",
          "type": "bool"
        }
      ],
      "stateMutability": "view",
      "type": "function"
    },
    {
      "inputs": [
        {
          "internalType": "address",
          "name": "accountUser",
          "type": "address"
        },
        {
          "internalType": "string",
          "name": "fileIpfsCID",
          "type": "string"
        }
      ],
      "name": "getAllEncSymmetricKeyFileUser",
      "outputs": [
        {
          "components": [
            {
              "internalType": "bool",
              "name": "success",
              "type": "bool"
            },
            {
              "internalType": "string[]",
              "name": "resultStrings",
              "type": "string[]"
            },
            {
              "internalType": "string",
              "name": "message",
              "type": "string"
            }
          ],
          "internalType": "struct Helper.ResultStringArray",
          "name": "",
          "type": "tuple"
        }
      ],
      "stateMutability": "view",
      "type": "function"
    },
    {
      "inputs": [],
      "name": "getAuditLogControlAddress",
      "outputs": [
        {
          "internalType": "address",
          "name": "",
          "type": "address"
        }
      ],
      "stateMutability": "view",
      "type": "function"
    },
    {
      "inputs": [
        {
          "internalType": "address",
          "name": "accountUser",
          "type": "address"
        },
        {
          "internalType": "string",
          "name": "fileIpfsCID",
          "type": "string"
        }
      ],
      "name": "getEncSymmetricKeyFileUser",
      "outputs": [
        {
          "components": [
            {
              "internalType": "bool",
              "name": "success",
              "type": "bool"
            },
            {
              "internalType": "string",
              "name": "resultString",
              "type": "string"
            },
            {
              "internalType": "string",
              "name": "message",
              "type": "string"
            }
          ],
          "internalType": "struct Helper.ResultString",
          "name": "",
          "type": "tuple"
        }
      ],
      "stateMutability": "view",
      "type": "function"
    },
    {
      "inputs": [],
      "name": "getFileRegisterAddress",
      "outputs": [
        {
          "internalType": "address",
          "name": "",
          "type": "address"
        }
      ],
      "stateMutability": "view",
      "type": "function"
    },
    {
      "inputs": [],
      "name": "getLoginRegister",
      "outputs": [
        {
          "internalType": "address",
          "name": "",
          "type": "address"
        }
      ],
      "stateMutability": "view",
      "type": "function"
    },
    {
      "inputs": [
        {
          "internalType": "address",
          "name": "userAccount",
          "type": "address"
        },
        {
          "internalType": "string",
          "name": "fileIpfsCID",
          "type": "string"
        }
      ],
      "name": "getPermissionsOverFile",
      "outputs": [
        {
          "components": [
            {
              "internalType": "bool",
              "name": "success",
              "type": "bool"
            },
            {
              "internalType": "string[]",
              "name": "resultStrings",
              "type": "string[]"
            },
            {
              "internalType": "string",
              "name": "message",
              "type": "string"
            }
          ],
          "internalType": "struct Helper.ResultStringArray",
          "name": "",
          "type": "tuple"
        }
      ],
      "stateMutability": "view",
      "type": "function"
    },
    {
      "inputs": [
        {
          "internalType": "address",
          "name": "account",
          "type": "address"
        },
        {
          "internalType": "string",
          "name": "state",
          "type": "string"
        }
      ],
      "name": "getUserFiles",
      "outputs": [
        {
          "components": [
            {
              "internalType": "bool",
              "name": "success",
              "type": "bool"
            },
            {
              "components": [
                {
                  "internalType": "string",
                  "name": "ipfsCID",
                  "type": "string"
                },
                {
                  "internalType": "string",
                  "name": "fileName",
                  "type": "string"
                },
                {
                  "internalType": "int256",
                  "name": "version",
                  "type": "int256"
                },
                {
                  "internalType": "string",
                  "name": "prevIpfsCID",
                  "type": "string"
                },
                {
                  "internalType": "address",
                  "name": "owner",
                  "type": "address"
                },
                {
                  "internalType": "string",
                  "name": "fileType",
                  "type": "string"
                },
                {
                  "internalType": "string",
                  "name": "iv",
                  "type": "string"
                },
                {
                  "internalType": "string",
                  "name": "state",
                  "type": "string"
                },
                {
                  "internalType": "string",
                  "name": "fileHash",
                  "type": "string"
                }
              ],
              "internalType": "struct FileRegister.File[]",
              "name": "files",
              "type": "tuple[]"
            },
            {
              "internalType": "string",
              "name": "message",
              "type": "string"
            }
          ],
          "internalType": "struct FileRegister.ResultFiles",
          "name": "",
          "type": "tuple"
        }
      ],
      "stateMutability": "view",
      "type": "function"
    },
    {
      "inputs": [],
      "name": "getUserRegisterAddress",
      "outputs": [
        {
          "internalType": "address",
          "name": "",
          "type": "address"
        }
      ],
      "stateMutability": "view",
      "type": "function"
    },
    {
      "inputs": [
        {
          "internalType": "string",
          "name": "fileIpfsCID",
          "type": "string"
        }
      ],
      "name": "getUsersAssociatedWithFile",
      "outputs": [
        {
          "components": [
            {
              "internalType": "bool",
              "name": "success",
              "type": "bool"
            },
            {
              "internalType": "address[]",
              "name": "resultAddresses",
              "type": "address[]"
            },
            {
              "internalType": "string",
              "name": "message",
              "type": "string"
            }
          ],
          "internalType": "struct Helper.ResultAddressArray",
          "name": "",
          "type": "tuple"
        }
      ],
      "stateMutability": "view",
      "type": "function"
    },
    {
      "inputs": [
        {
          "internalType": "address",
          "name": "userAccount",
          "type": "address"
        },
        {
          "internalType": "string",
          "name": "fileHash",
          "type": "string"
        }
      ],
      "name": "recordFileVerification",
      "outputs": [],
      "stateMutability": "nonpayable",
      "type": "function"
    },
    {
      "inputs": [
        {
          "internalType": "address",
          "name": "userAccount",
          "type": "address"
        },
        {
          "internalType": "string",
          "name": "fileIpfsCID",
          "type": "string"
        }
      ],
      "name": "removeUserFileAssociation",
      "outputs": [],
      "stateMutability": "nonpayable",
      "type": "function"
    },
    {
      "inputs": [
        {
          "internalType": "address",
          "name": "userAccount",
          "type": "address"
        },
        {
          "internalType": "string",
          "name": "fileIpfsCID",
          "type": "string"
        },
        {
          "internalType": "string[]",
          "name": "encSymmetricKeys",
          "type": "string[]"
        },
        {
          "internalType": "string[]",
          "name": "permissions",
          "type": "string[]"
        }
      ],
      "name": "shareFile",
      "outputs": [],
      "stateMutability": "nonpayable",
      "type": "function"
    },
    {
      "inputs": [
        {
          "internalType": "address",
          "name": "userAccount",
          "type": "address"
        },
        {
          "internalType": "string",
          "name": "fileIpfsCID",
          "type": "string"
        },
        {
          "internalType": "string[]",
          "name": "permissions",
          "type": "string[]"
        }
      ],
      "name": "updateUserFilePermissions",
      "outputs": [],
      "stateMutability": "nonpayable",
      "type": "function"
    },
    {
      "inputs": [
        {
          "internalType": "address",
          "name": "userAccount",
          "type": "address"
        },
        {
          "components": [
            {
              "internalType": "string",
              "name": "ipfsCID",
              "type": "string"
            },
            {
              "internalType": "string",
              "name": "fileName",
              "type": "string"
            },
            {
              "internalType": "int256",
              "name": "version",
              "type": "int256"
            },
            {
              "internalType": "string",
              "name": "prevIpfsCID",
              "type": "string"
            },
            {
              "internalType": "address",
              "name": "owner",
              "type": "address"
            },
            {
              "internalType": "string",
              "name": "fileType",
              "type": "string"
            },
            {
              "internalType": "string",
              "name": "iv",
              "type": "string"
            },
            {
              "internalType": "string",
              "name": "state",
              "type": "string"
            },
            {
              "internalType": "string",
              "name": "fileHash",
              "type": "string"
            }
          ],
          "internalType": "struct FileRegister.File",
          "name": "file",
          "type": "tuple"
        },
        {
          "internalType": "string",
          "name": "encSymmetricKey",
          "type": "string"
        }
      ],
      "name": "uploadFile",
      "outputs": [],
      "stateMutability": "nonpayable",
      "type": "function"
    },
    {
      "inputs": [
        {
          "internalType": "address",
          "name": "userAccount",
          "type": "address"
        },
        {
          "internalType": "string",
          "name": "fileIpfsCID",
          "type": "string"
        }
      ],
      "name": "userAssociatedWithFile",
      "outputs": [
        {
          "internalType": "bool",
          "name": "",
          "type": "bool"
        }
      ],
      "stateMutability": "view",
      "type": "function"
    },
    {
      "inputs": [
        {
          "internalType": "address",
          "name": "userAccount",
          "type": "address"
        },
        {
          "internalType": "string",
          "name": "fileName",
          "type": "string"
        }
      ],
      "name": "userAssociatedWithFileName",
      "outputs": [
        {
          "internalType": "bool",
          "name": "",
          "type": "bool"
        }
      ],
      "stateMutability": "view",
      "type": "function"
    },
    {
      "inputs": [
        {
          "internalType": "address",
          "name": "userAccount",
          "type": "address"
        },
        {
          "internalType": "string",
          "name": "fileHash",
          "type": "string"
        }
      ],
      "name": "verifyValidFile",
      "outputs": [
        {
          "internalType": "bool",
          "name": "",
          "type": "bool"
        }
      ],
      "stateMutability": "view",
      "type": "function"
    }
  ],
  "bytecode": "0x60806040523480156200001157600080fd5b50604051620144b8380380620144b88339818101604052810190620000379190620004e7565b6200005367a87ea5d72fe6073a60c01b6200044260201b60201c565b6200006f6736bce6ce82fb357b60c01b6200044260201b60201c565b80600460006101000a81548173ffffffffffffffffffffffffffffffffffffffff021916908373ffffffffffffffffffffffffffffffffffffffff160217905550620000cc677a8df36819dc36db60c01b6200044260201b60201c565b80604051620000db9062000445565b620000e791906200052a565b604051809103906000f08015801562000104573d6000803e3d6000fd5b50600160006101000a81548173ffffffffffffffffffffffffffffffffffffffff021916908373ffffffffffffffffffffffffffffffffffffffff16021790555062000161673a774f22d576f45660c01b6200044260201b60201c565b80604051620001709062000453565b6200017c91906200052a565b604051809103906000f08015801562000199573d6000803e3d6000fd5b50600260006101000a81548173ffffffffffffffffffffffffffffffffffffffff021916908373ffffffffffffffffffffffffffffffffffffffff160217905550620001f667b1740c0ff7a062fe60c01b6200044260201b60201c565b600260009054906101000a900473ffffffffffffffffffffffffffffffffffffffff16604051620002279062000461565b6200023391906200052a565b604051809103906000f08015801562000250573d6000803e3d6000fd5b50600560006101000a81548173ffffffffffffffffffffffffffffffffffffffff021916908373ffffffffffffffffffffffffffffffffffffffff160217905550620002ad674a63779d4e090f7560c01b6200044260201b60201c565b604051620002bb906200046f565b604051809103906000f080158015620002d8573d6000803e3d6000fd5b50600360006101000a81548173ffffffffffffffffffffffffffffffffffffffff021916908373ffffffffffffffffffffffffffffffffffffffff16021790555062000335670bdba4cecac0b0a160c01b6200044260201b60201c565b6000600560146101000a81548160ff0219169083151502179055506200036c674d96a1c4c440d2d460c01b6200044260201b60201c565b6200038867ec6855b0f5924c9160c01b6200044260201b60201c565b600260009054906101000a900473ffffffffffffffffffffffffffffffffffffffff1673ffffffffffffffffffffffffffffffffffffffff16638d060a9e600560009054906101000a900473ffffffffffffffffffffffffffffffffffffffff166040518263ffffffff1660e01b81526004016200040791906200052a565b600060405180830381600087803b1580156200042257600080fd5b505af115801562000437573d6000803e3d6000fd5b505050505062000547565b50565b614340806200ae4183390190565b612919806200f18183390190565b610e888062011a9a83390190565b611b96806201292283390190565b600080fd5b600073ffffffffffffffffffffffffffffffffffffffff82169050919050565b6000620004af8262000482565b9050919050565b620004c181620004a2565b8114620004cd57600080fd5b50565b600081519050620004e181620004b6565b92915050565b6000602082840312156200050057620004ff6200047d565b5b60006200051084828501620004d0565b91505092915050565b6200052481620004a2565b82525050565b600060208201905062000541600083018462000519565b92915050565b61a8ea80620005576000396000f3fe608060405234801561001057600080fd5b50600436106101425760003560e01c806398956de9116100b8578063c19dcf891161007c578063c19dcf89146103af578063c5f5a232146103df578063c61e6663146103fb578063d2ab62b414610417578063db54cc8c14610447578063fe17fccc1461046357610142565b806398956de9146102f7578063a126d94c14610315578063af00c05d14610345578063b58ea3a214610361578063b714fb201461039157610142565b80634c23fe991161010a5780634c23fe99146102375780634e2fc7d2146102675780635dab19e41461028357806367cc916b146102a1578063874a22ed146102bd5780638af34fbc146102db57610142565b80630976372714610147578063173cd5581461017757806317b5be0f146101a75780631ac47dd0146101d75780632321f31814610207575b600080fd5b610161600480360381019061015c9190617fa8565b61047f565b60405161016e91906182ce565b60405180910390f35b610191600480360381019061018c9190617fa8565b610c51565b60405161019e9190618409565b60405180910390f35b6101c160048036038101906101bc9190617fa8565b61117b565b6040516101ce919061843a565b60405180910390f35b6101f160048036038101906101ec9190617fa8565b6115a4565b6040516101fe919061843a565b60405180910390f35b610221600480360381019061021c9190617fa8565b6118bf565b60405161022e919061843a565b60405180910390f35b610251600480360381019061024c9190618455565b611ba5565b60405161025e91906185a4565b60405180910390f35b610281600480360381019061027c9190618949565b6121dd565b005b61028b612a9f565b6040516102989190618a2f565b60405180910390f35b6102bb60048036038101906102b69190618a4a565b612b05565b005b6102c5612ee8565b6040516102d29190618a2f565b60405180910390f35b6102f560048036038101906102f09190618aa6565b612f4e565b005b6102ff613540565b60405161030c9190618a2f565b60405180910390f35b61032f600480360381019061032a9190617fa8565b6135a6565b60405161033c9190618b88565b60405180910390f35b61035f600480360381019061035a9190617fa8565b613bb1565b005b61037b60048036038101906103769190617fa8565b61421e565b604051610388919061843a565b60405180910390f35b61039961465f565b6040516103a69190618a2f565b60405180910390f35b6103c960048036038101906103c49190617fa8565b6146c5565b6040516103d6919061843a565b60405180910390f35b6103f960048036038101906103f49190618baa565b614a06565b005b61041560048036038101906104109190617fa8565b615217565b005b610431600480360381019061042c9190617fa8565b615678565b60405161043e9190618409565b60405180910390f35b610461600480360381019061045c9190617fa8565b615c84565b005b61047d60048036038101906104789190618c65565b616386565b005b610487617baa565b61049b677f34dd62a6cb73ca60c01b616c09565b6104af67029fd253b21a344760c01b616c09565b6104c367532cf42c5197193e60c01b616c09565b8273ffffffffffffffffffffffffffffffffffffffff163373ffffffffffffffffffffffffffffffffffffffff1603610b815761050a672a682ffa0dcfcadf60c01b616c09565b61051e67b23bcb8c4f75ab3e60c01b616c09565b6105326795ff6c6d2335323a60c01b616c09565b6000808054905067ffffffffffffffff81111561055257610551617e7d565b5b60405190808252806020026020018201604052801561058b57816020015b610578617bcd565b8152602001906001900390816105705790505b5090506105a267e9fc1c9d669f726260c01b616c09565b6105b6673c846bab5a41a46e60c01b616c09565b60006105cc67f0943e83fb1bc07960c01b616c09565b6105e067f21ce4b3aab5b2e260c01b616c09565b60005b600080549050811015610aac5761060467bda84c23f0b4bb4d60c01b616c09565b61061867bdc1483afe5bd87960c01b616c09565b8573ffffffffffffffffffffffffffffffffffffffff166000828154811061064357610642618cf0565b5b906000526020600020906004020160000160009054906101000a900473ffffffffffffffffffffffffffffffffffffffff1673ffffffffffffffffffffffffffffffffffffffff161480156108365750600160009054906101000a900473ffffffffffffffffffffffffffffffffffffffff1673ffffffffffffffffffffffffffffffffffffffff1662438ceb600083815481106106e4576106e3618cf0565b5b90600052602060002090600402016001016040518263ffffffff1660e01b81526004016107119190618e29565b600060405180830381865afa15801561072e573d6000803e3d6000fd5b505050506040513d6000823e3d601f19601f820116820180604052508101906107579190618f83565b6020015160405160200161076b9190619008565b60405160208183030381529060405280519060200120856040516020016107929190619008565b604051602081830303815290604052805190602001201480156107c557506107c4674e83747380c76bd560c01b616c0c565b5b8061083557506040516020016107da90619045565b60405160208183030381529060405280519060200120856040516020016108019190619008565b60405160208183030381529060405280519060200120148015610834575061083367b3cd1d8a0c08854460c01b616c0c565b5b5b5b15610a845761084f6702e1bd10ad589b4760c01b616c09565b610863675185f6bfe0fdb76e60c01b616c09565b61087666f71112ec33132760c01b616c09565b600080828154811061088b5761088a618cf0565b5b906000526020600020906004020160010180546108a790618d4e565b80601f01602080910402602001604051908101604052809291908181526020018280546108d390618d4e565b80156109205780601f106108f557610100808354040283529160200191610920565b820191906000526020600020905b81548152906001019060200180831161090357829003601f168201915b5050505050905061093b6726a4b1401367d93460c01b616c09565b61094f67fb3e515de77639ea60c01b616c09565b6000600160009054906101000a900473ffffffffffffffffffffffffffffffffffffffff1673ffffffffffffffffffffffffffffffffffffffff166347eb6fa783896040518363ffffffff1660e01b81526004016109ae929190619093565b600060405180830381865afa1580156109cb573d6000803e3d6000fd5b505050506040513d6000823e3d601f19601f820116820180604052508101906109f49190619334565b9050610a0a6789a03f5dcdfee25f60c01b616c09565b610a1e673630f84df8f2e02c60c01b616c09565b600081602001519050610a3b67d6e9100a2eb967c060c01b616c09565b80868681518110610a4f57610a4e618cf0565b5b6020026020010181905250610a6e675fac8cbd4ff681eb60c01b616c09565b8480610a79906193b6565b955050505050610a99565b610a9867b3931f82e4185e6f60c01b616c09565b5b8080610aa4906193b6565b9150506105e3565b50610ac1679f35f3cef3555b5260c01b616c09565b808252610ad8677c32091bc59804f360c01b616c09565b610aec67e6f7d4a4188ebd3660c01b616c09565b60008114610b6657610b0867e09cef09f777fc5a60c01b616c09565b610b1c67477de9216628829d60c01b616c09565b610b3067ca11a58f56f9419660c01b616c09565b60405180606001604052806001151581526020018381526020016040518060200160405280600081525081525092505050610c4b565b610b7a679970601293b9da6e60c01b616c09565b5050610b96565b610b95671cf5ae5a8e9a04f160c01b616c09565b5b610baa679804b839603a674c60c01b616c09565b610bbe677b1ec3da58a6b2ff60c01b616c09565b6040518060600160405280600015158152602001600067ffffffffffffffff811115610bed57610bec617e7d565b5b604051908082528060200260200182016040528015610c2657816020015b610c13617bcd565b815260200190600190039081610c0b5790505b5081526020016040518060800160405280604e815260200161a7ff604e913981525090505b92915050565b610c59617c2f565b610c6d670dfc1ed1fa69b0f060c01b616c09565b610c816775343920058e27a460c01b616c09565b610c9567f141d5d67d1d1fb160c01b616c09565b610c9e82616c17565b8015610d965750604051602001610cb49061944a565b60405160208183030381529060405280519060200120600160009054906101000a900473ffffffffffffffffffffffffffffffffffffffff1673ffffffffffffffffffffffffffffffffffffffff1662438ceb846040518263ffffffff1660e01b8152600401610d24919061945f565b600060405180830381865afa158015610d41573d6000803e3d6000fd5b505050506040513d6000823e3d601f19601f82011682018060405250810190610d6a9190618f83565b60200151604051602001610d7e9190619008565b60405160208183030381529060405280519060200120145b156110b157610daf679dfe37ec53e602e960c01b616c09565b610dc36757ee6a48d4ceb92b60c01b616c09565b610dd767c1e2e96448bca07160c01b616c09565b60005b6000805490508110156110ab57610dfb67c4410a6e40f0246b60c01b616c09565b610e0f672f9d448185b0344d60c01b616c09565b600460009054906101000a900473ffffffffffffffffffffffffffffffffffffffff1673ffffffffffffffffffffffffffffffffffffffff16635c99c71b8560008481548110610e6257610e61618cf0565b5b906000526020600020906004020160000160009054906101000a900473ffffffffffffffffffffffffffffffffffffffff168660008681548110610ea957610ea8618cf0565b5b90600052602060002090600402016001016040518563ffffffff1660e01b8152600401610ed99493929190619481565b602060405180830381865afa158015610ef6573d6000803e3d6000fd5b505050506040513d601f19601f82011682018060405250810190610f1a91906194d4565b1561108457610f33673fa05659473f3f8760c01b616c09565b610f4767b24843c8184de70160c01b616c09565b610f5b67305ca8fa42bffcb560c01b616c09565b604051806060016040528060011515815260200160008381548110610f8357610f82618cf0565b5b9060005260206000209060040201600301805480602002602001604051908101604052809291908181526020016000905b82821015611060578382906000526020600020018054610fd390618d4e565b80601f0160208091040260200160405190810160405280929190818152602001828054610fff90618d4e565b801561104c5780601f106110215761010080835404028352916020019161104c565b820191906000526020600020905b81548152906001019060200180831161102f57829003601f168201915b505050505081526020019060010190610fb4565b50505050815260200160405180602001604052806000815250815250915050611175565b61109867d4f05d4d5c45ec8360c01b616c09565b80806110a3906193b6565b915050610dda565b506110c6565b6110c56765dd4cbfc489fee360c01b616c09565b5b6110da670dc8ff698df0510a60c01b616c09565b6110ee67a421ea6547d7c57960c01b616c09565b6040518060600160405280600015158152602001600067ffffffffffffffff81111561111d5761111c617e7d565b5b60405190808252806020026020018201604052801561115057816020015b606081526020019060019003908161113b5790505b5081526020016040518060a001604052806068815260200161a84d6068913981525090505b92915050565b6000611191670bae96bd6dbd300f60c01b616c09565b6111a56790bfb3b508ddc68760c01b616c09565b6111b967c2a5f7e0ed5cdeef60c01b616c09565b60005b600080549050811015611570576111dd67bd19de649d42fb7260c01b616c09565b6111f167da2a0ba421bf2dfb60c01b616c09565b6000600160009054906101000a900473ffffffffffffffffffffffffffffffffffffffff1673ffffffffffffffffffffffffffffffffffffffff1663f880680b6000848154811061124557611244618cf0565b5b90600052602060002090600402016001016040518263ffffffff1660e01b81526004016112729190618e29565b600060405180830381865afa15801561128f573d6000803e3d6000fd5b505050506040513d6000823e3d601f19601f820116820180604052508101906112b89190618f83565b6020015190506112d267f9d42fc7536a7ac260c01b616c09565b6112e667a8b35087ca33eb4360c01b616c09565b6000600160009054906101000a900473ffffffffffffffffffffffffffffffffffffffff1673ffffffffffffffffffffffffffffffffffffffff1662438ceb6000858154811061133957611338618cf0565b5b90600052602060002090600402016001016040518263ffffffff1660e01b81526004016113669190618e29565b600060405180830381865afa158015611383573d6000803e3d6000fd5b505050506040513d6000823e3d601f19601f820116820180604052508101906113ac9190618f83565b6020015190506113c667d3f5230088cb4cf760c01b616c09565b6113da67a5bda9f20dab358760c01b616c09565b8573ffffffffffffffffffffffffffffffffffffffff166000848154811061140557611404618cf0565b5b906000526020600020906004020160000160009054906101000a900473ffffffffffffffffffffffffffffffffffffffff1673ffffffffffffffffffffffffffffffffffffffff161480156114a55750846040516020016114669190619008565b604051602081830303815290604052805190602001208260405160200161148d9190619008565b60405160208183030381529060405280519060200120145b80156114fa57506040516020016114bb9061944a565b60405160208183030381529060405280519060200120816040516020016114e29190619008565b60405160208183030381529060405280519060200120145b156115475761151367e9ce4e3459c45b4560c01b616c09565b611527675bcf4167dc42f8b460c01b616c09565b61153b67f51cd037a3ce7f9060c01b616c09565b6001935050505061159e565b61155b675546c7cfa0fe181e60c01b616c09565b50508080611568906193b6565b9150506111bc565b5061158567dba73b5f6d4fe8b460c01b616c09565b61159967c106ac204b7db06460c01b616c09565b600090505b92915050565b60006115ba676b8ad89b4ca703ad60c01b616c09565b6115ce677f5482f38ffdd6b460c01b616c09565b6115e26772dff3d076959e7460c01b616c09565b6115eb82616c17565b801561160757506116066773481c2639aafc2560c01b616c0c565b5b8061167b5750600360009054906101000a900473ffffffffffffffffffffffffffffffffffffffff1673ffffffffffffffffffffffffffffffffffffffff163373ffffffffffffffffffffffffffffffffffffffff1614801561167a5750611679674e5d6ee308b2272f60c01b616c0c565b5b5b156118775761169467553d6bae7b36b75b60c01b616c09565b6116a867944c0d895036babc60c01b616c09565b6116bc675ef860019bd5be0b60c01b616c09565b60005b600080549050811015611871576116e067e02c05f84265848360c01b616c09565b6116f467622e090c316abd3260c01b616c09565b600460009054906101000a900473ffffffffffffffffffffffffffffffffffffffff1673ffffffffffffffffffffffffffffffffffffffff16635c99c71b856000848154811061174757611746618cf0565b5b906000526020600020906004020160000160009054906101000a900473ffffffffffffffffffffffffffffffffffffffff16866000868154811061178e5761178d618cf0565b5b90600052602060002090600402016001016040518563ffffffff1660e01b81526004016117be9493929190619481565b602060405180830381865afa1580156117db573d6000803e3d6000fd5b505050506040513d601f19601f820116820180604052508101906117ff91906194d4565b1561184a57611818676851779faebc5c1960c01b616c09565b61182c67ca279a8df0fda58660c01b616c09565b61184067472244de9519bd8160c01b616c09565b60019150506118b9565b61185e6741638ddc0df345bc60c01b616c09565b8080611869906193b6565b9150506116bf565b5061188c565b61188b672a866d61f85580b060c01b616c09565b5b6118a0677e7e1e48723b908b60c01b616c09565b6118b467fc6efab330660b3b60c01b616c09565b600090505b92915050565b60006118d567521ec434c64b594d60c01b616c09565b6118e9679ca64bf871082c6b60c01b616c09565b6118fd671382792c7965b0e160c01b616c09565b8273ffffffffffffffffffffffffffffffffffffffff163373ffffffffffffffffffffffffffffffffffffffff16141580156119d45750600160009054906101000a900473ffffffffffffffffffffffffffffffffffffffff1673ffffffffffffffffffffffffffffffffffffffff166352a9baef84846040518363ffffffff1660e01b8152600401611991929190619501565b602060405180830381865afa1580156119ae573d6000803e3d6000fd5b505050506040513d601f19601f820116820180604052508101906119d291906194d4565b155b8015611a1c5750611a1b33836040518060400160405280600581526020017f7368617265000000000000000000000000000000000000000000000000000000815250617064565b5b8015611b145750604051602001611a329061944a565b60405160208183030381529060405280519060200120600160009054906101000a900473ffffffffffffffffffffffffffffffffffffffff1673ffffffffffffffffffffffffffffffffffffffff1662438ceb846040518263ffffffff1660e01b8152600401611aa2919061945f565b600060405180830381865afa158015611abf573d6000803e3d6000fd5b505050506040513d6000823e3d601f19601f82011682018060405250810190611ae89190618f83565b60200151604051602001611afc9190619008565b60405160208183030381529060405280519060200120145b15611b5e57611b2d679f435996b3be427660c01b616c09565b611b4167c5fb31a05348b43760c01b616c09565b611b55673bdc81efd573d4b560c01b616c09565b60019050611b9f565b611b7267ef96011a4c44298160c01b616c09565b611b8667f4f7e6d02767aeab60c01b616c09565b611b9a675c25877e265699bf60c01b616c09565b600090505b92915050565b611bad617c52565b611bc167d880e0172d54bbe760c01b616c09565b611bd567cda3e50999af065060c01b616c09565b611be9674208f3048daee86b60c01b616c09565b611bf282616c17565b8015611cea5750604051602001611c089061944a565b60405160208183030381529060405280519060200120600160009054906101000a900473ffffffffffffffffffffffffffffffffffffffff1673ffffffffffffffffffffffffffffffffffffffff1662438ceb846040518263ffffffff1660e01b8152600401611c78919061945f565b600060405180830381865afa158015611c95573d6000803e3d6000fd5b505050506040513d6000823e3d601f19601f82011682018060405250810190611cbe9190618f83565b60200151604051602001611cd29190619008565b60405160208183030381529060405280519060200120145b1561211a57611d03675d55a8cfe884176960c01b616c09565b611d1767241920dfc8bb7b1c60c01b616c09565b611d2b67b484fac74a88313360c01b616c09565b6000808054905067ffffffffffffffff811115611d4b57611d4a617e7d565b5b604051908082528060200260200182016040528015611d795781602001602082028036833780820191505090505b509050611d90674ab33b576fda2d6760c01b616c09565b611da467353f6a193565aec060c01b616c09565b6000611dba6732fe34c8b0ea739b60c01b616c09565b611dce67d9ad7fa848be649d60c01b616c09565b60005b6000805490508110156120a457611df2670cac7db0cb08ba3560c01b616c09565b611e0667e4221d38f72a498260c01b616c09565b84604051602001611e179190619008565b6040516020818303038152906040528051906020012060008281548110611e4157611e40618cf0565b5b9060005260206000209060040201600101604051602001611e6291906195b4565b60405160208183030381529060405280519060200120148015611f955750604051602001611e8f9061944a565b60405160208183030381529060405280519060200120600160009054906101000a900473ffffffffffffffffffffffffffffffffffffffff1673ffffffffffffffffffffffffffffffffffffffff1662438ceb60008481548110611ef657611ef5618cf0565b5b90600052602060002090600402016001016040518263ffffffff1660e01b8152600401611f239190618e29565b600060405180830381865afa158015611f40573d6000803e3d6000fd5b505050506040513d6000823e3d601f19601f82011682018060405250810190611f699190618f83565b60200151604051602001611f7d9190619008565b60405160208183030381529060405280519060200120145b1561207c57611fae6740e303a2e098d3a260c01b616c09565b611fc26736f2843677a1338f60c01b616c09565b60008181548110611fd657611fd5618cf0565b5b906000526020600020906004020160000160009054906101000a900473ffffffffffffffffffffffffffffffffffffffff1683838151811061201b5761201a618cf0565b5b602002602001019073ffffffffffffffffffffffffffffffffffffffff16908173ffffffffffffffffffffffffffffffffffffffff1681525050612069670480c4f9ed63a81560c01b616c09565b8180612074906193b6565b925050612091565b612090673500a1e36748c44b60c01b616c09565b5b808061209c906193b6565b915050611dd1565b506120b967da459dd5489f583a60c01b616c09565b8082526120d067c03ceb8c2fd3847b60c01b616c09565b6120e467eef3f7bfb7d2e7de60c01b616c09565b604051806060016040528060011515815260200183815260200160405180602001604052806000815250815250925050506121d8565b61212e67d626bd49b88a9d3e60c01b616c09565b61214267c3d459d2d28da35f60c01b616c09565b612156671a5bfc71fb414d6960c01b616c09565b6040518060600160405280600015158152602001600067ffffffffffffffff81111561218557612184617e7d565b5b6040519080825280602002602001820160405280156121b35781602001602082028036833780820191505090505b5081526020016040518060800160405280605b815260200161a7a4605b913981525090505b919050565b6121f066ea2b17258da50060c01b616c09565b61220467e9beb6ae69c1b71b60c01b616c09565b6122186748d4d6a2cbcc22cb60c01b616c09565b612225846000015161736b565b8015612239575061223884848484617571565b5b80156122dd5750600560009054906101000a900473ffffffffffffffffffffffffffffffffffffffff1673ffffffffffffffffffffffffffffffffffffffff16638aaa7370336040518263ffffffff1660e01b815260040161229b9190618a2f565b602060405180830381865afa1580156122b8573d6000803e3d6000fd5b505050506040513d601f19601f820116820180604052508101906122dc91906194d4565b5b80156123815750600560009054906101000a900473ffffffffffffffffffffffffffffffffffffffff1673ffffffffffffffffffffffffffffffffffffffff16639506d9e3336040518263ffffffff1660e01b815260040161233f9190618a2f565b602060405180830381865afa15801561235c573d6000803e3d6000fd5b505050506040513d601f19601f8201168201806040525081019061238091906194d4565b5b15612a845761239a67264ddcc4216c5df360c01b616c09565b6123ae679586ce23f8ea96f960c01b616c09565b6123c2673e3b12545c8bd30660c01b616c09565b600160009054906101000a900473ffffffffffffffffffffffffffffffffffffffff1673ffffffffffffffffffffffffffffffffffffffff166395f0f0bb85856040518363ffffffff1660e01b815260040161241f9291906196ba565b600060405180830381600087803b15801561243957600080fd5b505af115801561244d573d6000803e3d6000fd5b50505050612465679fb627c149154a4460c01b616c09565b612479670faf00bbda6c128060c01b616c09565b60005b6000805490508110156129c15761249d67bff9d04935a302d960c01b616c09565b6124b1677237c582c94f485460c01b616c09565b84600001516040516020016124c69190619008565b60405160208183030381529060405280519060200120600082815481106124f0576124ef618cf0565b5b906000526020600020906004020160010160405160200161251191906195b4565b604051602081830303815290604052805190602001200361299957612540675236582a378adfc560c01b616c09565b61255467a7419f13d427cb6460c01b616c09565b612568678e9178936042e21760c01b616c09565b600061257e67285ddd2fc4d2b00c60c01b616c09565b61259267e8aa5f81eec088ab60c01b616c09565b60005b84518110156126c3576125b2678c52d87492d5020760c01b616c09565b6125c6672a8a12d53a29d12260c01b616c09565b600083815481106125da576125d9618cf0565b5b906000526020600020906004020160000160009054906101000a900473ffffffffffffffffffffffffffffffffffffffff1673ffffffffffffffffffffffffffffffffffffffff1685828151811061263557612634618cf0565b5b602002602001015173ffffffffffffffffffffffffffffffffffffffff160361269c5761266c6787bdd7ce328d2c3560c01b616c09565b612680674bc82708e52e1b0060c01b616c09565b80915061269767f400d55db7a945fa60c01b616c09565b6126c3565b6126b0679e1126870a4aa1aa60c01b616c09565b80806126bb906193b6565b915050612595565b506126d8670207ee459e1d758160c01b616c09565b6126ec674599b8caa5e34abd60c01b616c09565b600083828151811061270157612700618cf0565b5b6020026020010151905061271f67e912512cfb5a803960c01b616c09565b612733674ca42fc6c9d12f0e60c01b616c09565b600060405180608001604052806000868154811061275457612753618cf0565b5b906000526020600020906004020160000160009054906101000a900473ffffffffffffffffffffffffffffffffffffffff1673ffffffffffffffffffffffffffffffffffffffff16815260200188600001518152602001838152602001600086815481106127c5576127c4618cf0565b5b9060005260206000209060040201600301805480602002602001604051908101604052809291908181526020016000905b828210156128a257838290600052602060002001805461281590618d4e565b80601f016020809104026020016040519081016040528092919081815260200182805461284190618d4e565b801561288e5780601f106128635761010080835404028352916020019161288e565b820191906000526020600020905b81548152906001019060200180831161287157829003601f168201915b5050505050815260200190600101906127f6565b5050505081525090506128bf67abab375dd8c5d54260c01b616c09565b6128d367bb5b6c74d67fc64460c01b616c09565b600081908060018154018082558091505060019003906000526020600020906004020160009091909190915060008201518160000160006101000a81548173ffffffffffffffffffffffffffffffffffffffff021916908373ffffffffffffffffffffffffffffffffffffffff160217905550602082015181600101908161295b9190619888565b5060408201518160020190816129719190619888565b50606082015181600301908051906020019061298e929190617c75565b5050505050506129ae565b6129ad67971a1df66d0632af60c01b616c09565b5b80806129b9906193b6565b91505061247c565b506129d667ba76a21108bbc0bd60c01b616c09565b6129ea67bc31294ae6988edb60c01b616c09565b600360009054906101000a900473ffffffffffffffffffffffffffffffffffffffff1673ffffffffffffffffffffffffffffffffffffffff1663c47ebddc338660000151336040518463ffffffff1660e01b8152600401612a4d939291906199f2565b600060405180830381600087803b158015612a6757600080fd5b505af1158015612a7b573d6000803e3d6000fd5b50505050612a99565b612a9867fd7d49e3dd2860c560c01b616c09565b5b50505050565b6000612ab56771c7be421dd7f24560c01b616c09565b612ac9675e6f6dac49a8eec660c01b616c09565b612add679d75eec1bc349b7460c01b616c09565b600160009054906101000a900473ffffffffffffffffffffffffffffffffffffffff16905090565b612b1967127e84c1455bb24660c01b616c09565b612b2d677d9718baadafcd9760c01b616c09565b612b4167c7859b4dfae72bd760c01b616c09565b8073ffffffffffffffffffffffffffffffffffffffff163373ffffffffffffffffffffffffffffffffffffffff16148015612bb85750612bb781836040518060400160405280600881526020017f646f776e6c6f6164000000000000000000000000000000000000000000000000815250617064565b5b8015612cb05750604051602001612bce9061944a565b60405160208183030381529060405280519060200120600160009054906101000a900473ffffffffffffffffffffffffffffffffffffffff1673ffffffffffffffffffffffffffffffffffffffff1662438ceb846040518263ffffffff1660e01b8152600401612c3e919061945f565b600060405180830381865afa158015612c5b573d6000803e3d6000fd5b505050506040513d6000823e3d601f19601f82011682018060405250810190612c849190618f83565b60200151604051602001612c989190619008565b60405160208183030381529060405280519060200120145b8015612d545750600560009054906101000a900473ffffffffffffffffffffffffffffffffffffffff1673ffffffffffffffffffffffffffffffffffffffff16638aaa7370826040518263ffffffff1660e01b8152600401612d129190618a2f565b602060405180830381865afa158015612d2f573d6000803e3d6000fd5b505050506040513d601f19601f82011682018060405250810190612d5391906194d4565b5b8015612df85750600560009054906101000a900473ffffffffffffffffffffffffffffffffffffffff1673ffffffffffffffffffffffffffffffffffffffff16639506d9e3826040518263ffffffff1660e01b8152600401612db69190618a2f565b602060405180830381865afa158015612dd3573d6000803e3d6000fd5b505050506040513d601f19601f82011682018060405250810190612df791906194d4565b5b15612ecf57612e1167baf7692ed17211d760c01b616c09565b612e25677f6eb3261fea791360c01b616c09565b612e39679bc86c67eb2cffe760c01b616c09565b600360009054906101000a900473ffffffffffffffffffffffffffffffffffffffff1673ffffffffffffffffffffffffffffffffffffffff1663c47ebddc3384846040518463ffffffff1660e01b8152600401612e9893929190619aa2565b600060405180830381600087803b158015612eb257600080fd5b505af1158015612ec6573d6000803e3d6000fd5b50505050612ee4565b612ee367eadc088d38400f7360c01b616c09565b5b5050565b6000612efe67542d05d95fbfa3ab60c01b616c09565b612f126704fd127c0ade07d260c01b616c09565b612f2667a5e2e9e46d157be260c01b616c09565b600260009054906101000a900473ffffffffffffffffffffffffffffffffffffffff16905090565b612f62678f54c968a1aa3e2960c01b616c09565b612f7667fd4701fd3b9d081260c01b616c09565b612f8a6760515395b45e2f4360c01b616c09565b612f9483836118bf565b80156130385750600460009054906101000a900473ffffffffffffffffffffffffffffffffffffffff1673ffffffffffffffffffffffffffffffffffffffff1663bda49b1d826040518263ffffffff1660e01b8152600401612ff69190619b8c565b602060405180830381865afa158015613013573d6000803e3d6000fd5b505050506040513d601f19601f8201168201806040525081019061303791906194d4565b5b80156130dc5750600560009054906101000a900473ffffffffffffffffffffffffffffffffffffffff1673ffffffffffffffffffffffffffffffffffffffff16638aaa7370846040518263ffffffff1660e01b815260040161309a9190618a2f565b602060405180830381865afa1580156130b7573d6000803e3d6000fd5b505050506040513d601f19601f820116820180604052508101906130db91906194d4565b5b80156131805750600560009054906101000a900473ffffffffffffffffffffffffffffffffffffffff1673ffffffffffffffffffffffffffffffffffffffff16639506d9e3846040518263ffffffff1660e01b815260040161313e9190618a2f565b602060405180830381865afa15801561315b573d6000803e3d6000fd5b505050506040513d601f19601f8201168201806040525081019061317f91906194d4565b5b156135255761319967cfd936708a1c393f60c01b616c09565b6131ad672240fac7594fc58b60c01b616c09565b6131c1671e9ba00f091c886b60c01b616c09565b60005b60008054905081101561351f576131e567a814e84c72531f8960c01b616c09565b6131f96786630dd54baeb9e260c01b616c09565b600460009054906101000a900473ffffffffffffffffffffffffffffffffffffffff1673ffffffffffffffffffffffffffffffffffffffff16635c99c71b856000848154811061324c5761324b618cf0565b5b906000526020600020906004020160000160009054906101000a900473ffffffffffffffffffffffffffffffffffffffff16866000868154811061329357613292618cf0565b5b90600052602060002090600402016001016040518563ffffffff1660e01b81526004016132c39493929190619481565b602060405180830381865afa1580156132e0573d6000803e3d6000fd5b505050506040513d601f19601f8201168201806040525081019061330491906194d4565b156134f85761331d67aaf9d5c69b3dd15a60c01b616c09565b61333167f5c56582f984820460c01b616c09565b816000828154811061334657613345618cf0565b5b9060005260206000209060040201600301908051906020019061336a929190617c75565b5061337f6752bc5e2e7a9fe91a60c01b616c09565b61339367f913bd31b2701fb360c01b616c09565b600360009054906101000a900473ffffffffffffffffffffffffffffffffffffffff1673ffffffffffffffffffffffffffffffffffffffff1663c47ebddc338587600460009054906101000a900473ffffffffffffffffffffffffffffffffffffffff1673ffffffffffffffffffffffffffffffffffffffff16636bb8d768886040518263ffffffff1660e01b815260040161342f9190619b8c565b600060405180830381865afa15801561344c573d6000803e3d6000fd5b505050506040513d6000823e3d601f19601f820116820180604052508101906134759190618f83565b602001516040518563ffffffff1660e01b81526004016134989493929190619bfa565b600060405180830381600087803b1580156134b257600080fd5b505af11580156134c6573d6000803e3d6000fd5b505050506134de67ef35bededfe4a7c660c01b616c09565b6134f26799efa77af87c66a860c01b616c09565b5061353b565b61350c67bae2f23ff205efb760c01b616c09565b8080613517906193b6565b9150506131c4565b5061353a565b61353967bd9d471bab55df1960c01b616c09565b5b5b505050565b600061355667ee1cd6dc6e37feb460c01b616c09565b61356a673a85b934b915e84a60c01b616c09565b61357e676b1c23ee3e96cca160c01b616c09565b600560009054906101000a900473ffffffffffffffffffffffffffffffffffffffff16905090565b6135ae617cce565b6135c26738ae490879f879af60c01b616c09565b6135d667a5bbed79ec4dea6f60c01b616c09565b6135ea677bab1e2fc7cbc29860c01b616c09565b8273ffffffffffffffffffffffffffffffffffffffff163373ffffffffffffffffffffffffffffffffffffffff1614801561362b575061362a83836115a4565b5b801561385257506040516020016136419061944a565b60405160208183030381529060405280519060200120600160009054906101000a900473ffffffffffffffffffffffffffffffffffffffff1673ffffffffffffffffffffffffffffffffffffffff1662438ceb846040518263ffffffff1660e01b81526004016136b1919061945f565b600060405180830381865afa1580156136ce573d6000803e3d6000fd5b505050506040513d6000823e3d601f19601f820116820180604052508101906136f79190618f83565b6020015160405160200161370b9190619008565b6040516020818303038152906040528051906020012014801561373e575061373d6773174e9d7a9190ae60c01b616c0c565b5b80613851575060405160200161375390619cac565b60405160208183030381529060405280519060200120600160009054906101000a900473ffffffffffffffffffffffffffffffffffffffff1673ffffffffffffffffffffffffffffffffffffffff1662438ceb846040518263ffffffff1660e01b81526004016137c3919061945f565b600060405180830381865afa1580156137e0573d6000803e3d6000fd5b505050506040513d6000823e3d601f19601f820116820180604052508101906138099190618f83565b6020015160405160200161381d9190619008565b60405160208183030381529060405280519060200120148015613850575061384f676ffe97faf72963b760c01b616c0c565b5b5b5b15613b265761386b678bf88c7cbb0cb9bc60c01b616c09565b61387f67b5b4e17aa97cbab060c01b616c09565b61389367f1ba63c316958bab60c01b616c09565b60005b600080549050811015613b20576138b7679cf4b2c8da20f89b60c01b616c09565b6138cb6715f6270dccad74f060c01b616c09565b600460009054906101000a900473ffffffffffffffffffffffffffffffffffffffff1673ffffffffffffffffffffffffffffffffffffffff16635c99c71b856000848154811061391e5761391d618cf0565b5b906000526020600020906004020160000160009054906101000a900473ffffffffffffffffffffffffffffffffffffffff16866000868154811061396557613964618cf0565b5b90600052602060002090600402016001016040518563ffffffff1660e01b81526004016139959493929190619481565b602060405180830381865afa1580156139b2573d6000803e3d6000fd5b505050506040513d601f19601f820116820180604052508101906139d691906194d4565b15613af9576139ef67be6f9dc97ffd9d7460c01b616c09565b613a036762fed04d68d80db060c01b616c09565b613a1767bb69978ca5881dd660c01b616c09565b604051806060016040528060011515815260200160008381548110613a3f57613a3e618cf0565b5b90600052602060002090600402016002018054613a5b90618d4e565b80601f0160208091040260200160405190810160405280929190818152602001828054613a8790618d4e565b8015613ad45780601f10613aa957610100808354040283529160200191613ad4565b820191906000526020600020905b815481529060010190602001808311613ab757829003601f168201915b5050505050815260200160405180602001604052806000815250815250915050613bab565b613b0d674931aaa8924d2c4360c01b616c09565b8080613b18906193b6565b915050613896565b50613b3b565b613b3a675d8c3ede211fe97660c01b616c09565b5b613b4f675eda1e91511185b860c01b616c09565b613b636726be12ec9b4697bb60c01b616c09565b60405180606001604052806000151581526020016040518060200160405280600081525081526020016040518060e0016040528060a4815260200161a70060a4913981525090505b92915050565b613bc567d2b55708e7d1c03260c01b616c09565b613bd967692e6c605306641260c01b616c09565b613bed671c021ae8a66dd6a860c01b616c09565b600560009054906101000a900473ffffffffffffffffffffffffffffffffffffffff1673ffffffffffffffffffffffffffffffffffffffff16638aaa7370836040518263ffffffff1660e01b8152600401613c489190618a2f565b602060405180830381865afa158015613c65573d6000803e3d6000fd5b505050506040513d601f19601f82011682018060405250810190613c8991906194d4565b8015613d2d5750600560009054906101000a900473ffffffffffffffffffffffffffffffffffffffff1673ffffffffffffffffffffffffffffffffffffffff16639506d9e3836040518263ffffffff1660e01b8152600401613ceb9190618a2f565b602060405180830381865afa158015613d08573d6000803e3d6000fd5b505050506040513d601f19601f82011682018060405250810190613d2c91906194d4565b5b1561420457613d46675498fd19ead92a6e60c01b616c09565b613d5a67370b699bc247179160c01b616c09565b613d6e67287fe60eaa90bf2660c01b616c09565b60005b6000805490508110156141fe57613d9267f599ab45bc61218560c01b616c09565b613da6673d3d66ab8b77899c60c01b616c09565b6000600160009054906101000a900473ffffffffffffffffffffffffffffffffffffffff1673ffffffffffffffffffffffffffffffffffffffff1663f880680b60008481548110613dfa57613df9618cf0565b5b90600052602060002090600402016001016040518263ffffffff1660e01b8152600401613e279190618e29565b600060405180830381865afa158015613e44573d6000803e3d6000fd5b505050506040513d6000823e3d601f19601f82011682018060405250810190613e6d9190618f83565b602001519050613e8767692ce9bb0088de0460c01b616c09565b613e9b67ef561f12649bab3460c01b616c09565b6000600160009054906101000a900473ffffffffffffffffffffffffffffffffffffffff1673ffffffffffffffffffffffffffffffffffffffff1662438ceb60008581548110613eee57613eed618cf0565b5b90600052602060002090600402016001016040518263ffffffff1660e01b8152600401613f1b9190618e29565b600060405180830381865afa158015613f38573d6000803e3d6000fd5b505050506040513d6000823e3d601f19601f82011682018060405250810190613f619190618f83565b602001519050613f7b67c758468dda19c59360c01b616c09565b613f8f6708bf52ab8ebc2c1460c01b616c09565b8473ffffffffffffffffffffffffffffffffffffffff1660008481548110613fba57613fb9618cf0565b5b906000526020600020906004020160000160009054906101000a900473ffffffffffffffffffffffffffffffffffffffff1673ffffffffffffffffffffffffffffffffffffffff1614801561405a57508360405160200161401b9190619008565b60405160208183030381529060405280519060200120826040516020016140429190619008565b60405160208183030381529060405280519060200120145b80156140af57506040516020016140709061944a565b60405160208183030381529060405280519060200120816040516020016140979190619008565b60405160208183030381529060405280519060200120145b156141d5576140c86769d514ae1fe705ae60c01b616c09565b6140dc673624d6f135f1d40b60c01b616c09565b6140f0676b655291b991d33060c01b616c09565b600360009054906101000a900473ffffffffffffffffffffffffffffffffffffffff1673ffffffffffffffffffffffffffffffffffffffff1663c47ebddc336000868154811061414357614142618cf0565b5b9060005260206000209060040201600101886040518463ffffffff1660e01b815260040161417393929190619d0d565b600060405180830381600087803b15801561418d57600080fd5b505af11580156141a1573d6000803e3d6000fd5b505050506141b967762f80f3dc9a4a4c60c01b616c09565b6141cd67cc7d2bb1c892294660c01b616c09565b50505061421a565b6141e967f6723223b6a644bb60c01b616c09565b505080806141f6906193b6565b915050613d71565b50614219565b614218672e17490ba80ee1df60c01b616c09565b5b5b5050565b600061423467ed19f5dc6bc61e1660c01b616c09565b6142486791e3abfe0bf0917e60c01b616c09565b61425c6713625c48668f0c1160c01b616c09565b8273ffffffffffffffffffffffffffffffffffffffff163373ffffffffffffffffffffffffffffffffffffffff16141580156143335750600160009054906101000a900473ffffffffffffffffffffffffffffffffffffffff1673ffffffffffffffffffffffffffffffffffffffff166352a9baef84846040518363ffffffff1660e01b81526004016142f0929190619501565b602060405180830381865afa15801561430d573d6000803e3d6000fd5b505050506040513d601f19601f8201168201806040525081019061433191906194d4565b155b801561437b575061437a33836040518060400160405280600581526020017f7368617265000000000000000000000000000000000000000000000000000000815250617064565b5b801561438e575061438c83836115a4565b155b80156144325750600160009054906101000a900473ffffffffffffffffffffffffffffffffffffffff1673ffffffffffffffffffffffffffffffffffffffff16639bccd6ad836040518263ffffffff1660e01b81526004016143f0919061945f565b602060405180830381865afa15801561440d573d6000803e3d6000fd5b505050506040513d601f19601f8201168201806040525081019061443191906194d4565b5b801561452a57506040516020016144489061944a565b60405160208183030381529060405280519060200120600160009054906101000a900473ffffffffffffffffffffffffffffffffffffffff1673ffffffffffffffffffffffffffffffffffffffff1662438ceb846040518263ffffffff1660e01b81526004016144b8919061945f565b600060405180830381865afa1580156144d5573d6000803e3d6000fd5b505050506040513d6000823e3d601f19601f820116820180604052508101906144fe9190618f83565b602001516040516020016145129190619008565b60405160208183030381529060405280519060200120145b80156145ce5750600260009054906101000a900473ffffffffffffffffffffffffffffffffffffffff1673ffffffffffffffffffffffffffffffffffffffff1663a240e426846040518263ffffffff1660e01b815260040161458c9190618a2f565b602060405180830381865afa1580156145a9573d6000803e3d6000fd5b505050506040513d601f19601f820116820180604052508101906145cd91906194d4565b5b15614618576145e76750c65710aab462bf60c01b616c09565b6145fb67db4cd1f7777c510860c01b616c09565b61460f67166b9b5fcdb29bd960c01b616c09565b60019050614659565b61462c67ced55c77de4d592b60c01b616c09565b61464067b58f48a9d045359160c01b616c09565b614654670923864b525a084460c01b616c09565b600090505b92915050565b600061467567089853f7d9985ead60c01b616c09565b61468967a7380cc5e1c0bd7d60c01b616c09565b61469d67d25ee80b52f99d8360c01b616c09565b600360009054906101000a900473ffffffffffffffffffffffffffffffffffffffff16905090565b60006146db6792a5fc74287021a760c01b616c09565b6146ef677785439ad8f2753160c01b616c09565b61470367f7562ea846d08ad560c01b616c09565b6000600160009054906101000a900473ffffffffffffffffffffffffffffffffffffffff1673ffffffffffffffffffffffffffffffffffffffff1663922243ad846040518263ffffffff1660e01b8152600401614760919061945f565b600060405180830381865afa15801561477d573d6000803e3d6000fd5b505050506040513d6000823e3d601f19601f820116820180604052508101906147a69190619ec2565b6020015190506147c06728de1febbfaf7e1660c01b616c09565b6147d467d2236e82639e8ccf60c01b616c09565b60005b6000805490508110156149d1576147f867c19b953fc02daabc60c01b616c09565b61480c673a440a511a85144560c01b616c09565b60005b82518110156149bd5761482c671205da336066632460c01b616c09565b614840675a02cf247432da3560c01b616c09565b8573ffffffffffffffffffffffffffffffffffffffff166000838154811061486b5761486a618cf0565b5b906000526020600020906004020160000160009054906101000a900473ffffffffffffffffffffffffffffffffffffffff1673ffffffffffffffffffffffffffffffffffffffff1614801561494957508281815181106148ce576148cd618cf0565b5b60200260200101516040516020016148e69190619008565b60405160208183030381529060405280519060200120600083815481106149105761490f618cf0565b5b906000526020600020906004020160010160405160200161493191906195b4565b60405160208183030381529060405280519060200120145b156149965761496267e9258c838fd7018360c01b616c09565b61497667631ee3a43fd62e7260c01b616c09565b61498a67d405da541d254a7660c01b616c09565b60019350505050614a00565b6149aa67cdacd5beca3549f660c01b616c09565b80806149b5906193b6565b91505061480f565b5080806149c9906193b6565b9150506147d7565b506149e66759069b539c9f3dda60c01b616c09565b6149fa67a6e18ab0de5905d660c01b616c09565b60009150505b92915050565b614a1a67a7b29582cbd620b760c01b616c09565b614a2e670679aaebe8e54d5a60c01b616c09565b614a4267017c61a85ecd257860c01b616c09565b614a4c848461421e565b8015614b445750604051602001614a629061944a565b60405160208183030381529060405280519060200120600160009054906101000a900473ffffffffffffffffffffffffffffffffffffffff1673ffffffffffffffffffffffffffffffffffffffff1662438ceb856040518263ffffffff1660e01b8152600401614ad2919061945f565b600060405180830381865afa158015614aef573d6000803e3d6000fd5b505050506040513d6000823e3d601f19601f82011682018060405250810190614b189190618f83565b60200151604051602001614b2c9190619008565b60405160208183030381529060405280519060200120145b8015614be85750600560009054906101000a900473ffffffffffffffffffffffffffffffffffffffff1673ffffffffffffffffffffffffffffffffffffffff16638aaa7370856040518263ffffffff1660e01b8152600401614ba69190618a2f565b602060405180830381865afa158015614bc3573d6000803e3d6000fd5b505050506040513d601f19601f82011682018060405250810190614be791906194d4565b5b8015614c8c5750600560009054906101000a900473ffffffffffffffffffffffffffffffffffffffff1673ffffffffffffffffffffffffffffffffffffffff16639506d9e3856040518263ffffffff1660e01b8152600401614c4a9190618a2f565b602060405180830381865afa158015614c67573d6000803e3d6000fd5b505050506040513d601f19601f82011682018060405250810190614c8b91906194d4565b5b156151fc57614ca5671d509bd872c1be3460c01b616c09565b614cb967eaff12b72b6aad4d60c01b616c09565b614ccd67a067479b9cb7164760c01b616c09565b6000600460009054906101000a900473ffffffffffffffffffffffffffffffffffffffff1673ffffffffffffffffffffffffffffffffffffffff1663872e35a98686856040518463ffffffff1660e01b8152600401614d2e93929190619f2e565b602060405180830381865afa158015614d4b573d6000803e3d6000fd5b505050506040513d601f19601f82011682018060405250810190614d6f91906194d4565b9050614d85678caabe542106af3d60c01b616c09565b614d996781afe9b172b2b37b60c01b616c09565b80156151e157614db3675169556d271837ae60c01b616c09565b614dc76719eb7cdb18b6fb3c60c01b616c09565b614ddb67551e8e6258b8022b60c01b616c09565b6000600160009054906101000a900473ffffffffffffffffffffffffffffffffffffffff1673ffffffffffffffffffffffffffffffffffffffff1663fadc54f4866040518263ffffffff1660e01b8152600401614e38919061945f565b600060405180830381865afa158015614e55573d6000803e3d6000fd5b505050506040513d6000823e3d601f19601f82011682018060405250810190614e7e919061a103565b602001519050614e9867ca8cf58bbbbb9a9760c01b616c09565b614eac6751b9dccb7a24d8fa60c01b616c09565b60005b815181101561507b57614ecc678fc72093ec8bca3760c01b616c09565b614ee067819574afa839170360c01b616c09565b6000828281518110614ef557614ef4618cf0565b5b6020026020010151600001519050614f1767a52db158281a0b9260c01b616c09565b614f2b67c9d52b8a580b59d560c01b616c09565b600060405180608001604052808a73ffffffffffffffffffffffffffffffffffffffff168152602001838152602001888581518110614f6d57614f6c618cf0565b5b60200260200101518152602001878152509050614f9467da3ad065dfa0c41760c01b616c09565b614fa867cfc39b5b6fafcb1d60c01b616c09565b600081908060018154018082558091505060019003906000526020600020906004020160009091909190915060008201518160000160006101000a81548173ffffffffffffffffffffffffffffffffffffffff021916908373ffffffffffffffffffffffffffffffffffffffff16021790555060208201518160010190816150309190619888565b5060408201518160020190816150469190619888565b506060820151816003019080519060200190615063929190617c75565b50505050508080615073906193b6565b915050614eaf565b506150906713092b1f6b19a71160c01b616c09565b6150a4679cfa6ed5f510ec5660c01b616c09565b600360009054906101000a900473ffffffffffffffffffffffffffffffffffffffff1673ffffffffffffffffffffffffffffffffffffffff1663c47ebddc338789600460009054906101000a900473ffffffffffffffffffffffffffffffffffffffff1673ffffffffffffffffffffffffffffffffffffffff16636bb8d768896040518263ffffffff1660e01b81526004016151409190619b8c565b600060405180830381865afa15801561515d573d6000803e3d6000fd5b505050506040513d6000823e3d601f19601f820116820180604052508101906151869190618f83565b602001516040518563ffffffff1660e01b81526004016151a9949392919061a198565b600060405180830381600087803b1580156151c357600080fd5b505af11580156151d7573d6000803e3d6000fd5b50505050506151f6565b6151f567bd8664fe764242b160c01b616c09565b5b50615211565b615210671b51ed0c6bbc934c60c01b616c09565b5b50505050565b61522b676c3d7a9465a1ce6b60c01b616c09565b61523f679e081f232e67e88f60c01b616c09565b61525367f8d7c396cd281a7860c01b616c09565b61529333826040518060400160405280600681526020017f64656c6574650000000000000000000000000000000000000000000000000000815250617064565b801561538b57506040516020016152a99061944a565b60405160208183030381529060405280519060200120600160009054906101000a900473ffffffffffffffffffffffffffffffffffffffff1673ffffffffffffffffffffffffffffffffffffffff1662438ceb836040518263ffffffff1660e01b8152600401615319919061945f565b600060405180830381865afa158015615336573d6000803e3d6000fd5b505050506040513d6000823e3d601f19601f8201168201806040525081019061535f9190618f83565b602001516040516020016153739190619008565b60405160208183030381529060405280519060200120145b801561542f5750600560009054906101000a900473ffffffffffffffffffffffffffffffffffffffff1673ffffffffffffffffffffffffffffffffffffffff16638aaa7370836040518263ffffffff1660e01b81526004016153ed9190618a2f565b602060405180830381865afa15801561540a573d6000803e3d6000fd5b505050506040513d601f19601f8201168201806040525081019061542e91906194d4565b5b80156154d35750600560009054906101000a900473ffffffffffffffffffffffffffffffffffffffff1673ffffffffffffffffffffffffffffffffffffffff16639506d9e3836040518263ffffffff1660e01b81526004016154919190618a2f565b602060405180830381865afa1580156154ae573d6000803e3d6000fd5b505050506040513d601f19601f820116820180604052508101906154d291906194d4565b5b1561565f576154ec671652f11c0e8b570d60c01b616c09565b6155006742de232977dfe34160c01b616c09565b61551467c1467031291081e260c01b616c09565b600160009054906101000a900473ffffffffffffffffffffffffffffffffffffffff1673ffffffffffffffffffffffffffffffffffffffff166374546fdf826040518263ffffffff1660e01b815260040161556f919061945f565b600060405180830381600087803b15801561558957600080fd5b505af115801561559d573d6000803e3d6000fd5b505050506155b56743e48cf9a0bb9b8060c01b616c09565b6155c967b3790bbb387e0e3560c01b616c09565b600360009054906101000a900473ffffffffffffffffffffffffffffffffffffffff1673ffffffffffffffffffffffffffffffffffffffff1663c47ebddc3383856040518463ffffffff1660e01b81526004016156289392919061a24a565b600060405180830381600087803b15801561564257600080fd5b505af1158015615656573d6000803e3d6000fd5b50505050615674565b61567367beb399cd86cd2a3760c01b616c09565b5b5050565b615680617c2f565b61569467667578612b3fcdc160c01b616c09565b6156a8676905658609dc8fe560c01b616c09565b6156bc67052687488f3351e060c01b616c09565b8273ffffffffffffffffffffffffffffffffffffffff163373ffffffffffffffffffffffffffffffffffffffff161480156156fd57506156fc83836115a4565b5b801561592457506040516020016157139061944a565b60405160208183030381529060405280519060200120600160009054906101000a900473ffffffffffffffffffffffffffffffffffffffff1673ffffffffffffffffffffffffffffffffffffffff1662438ceb846040518263ffffffff1660e01b8152600401615783919061945f565b600060405180830381865afa1580156157a0573d6000803e3d6000fd5b505050506040513d6000823e3d601f19601f820116820180604052508101906157c99190618f83565b602001516040516020016157dd9190619008565b60405160208183030381529060405280519060200120148015615810575061580f672a458c6fe6865e7860c01b616c0c565b5b80615923575060405160200161582590619cac565b60405160208183030381529060405280519060200120600160009054906101000a900473ffffffffffffffffffffffffffffffffffffffff1673ffffffffffffffffffffffffffffffffffffffff1662438ceb846040518263ffffffff1660e01b8152600401615895919061945f565b600060405180830381865afa1580156158b2573d6000803e3d6000fd5b505050506040513d6000823e3d601f19601f820116820180604052508101906158db9190618f83565b602001516040516020016158ef9190619008565b6040516020818303038152906040528051906020012014801561592257506159216708db4a5b0bec57bf60c01b616c0c565b5b5b5b15615bbb5761593d67554219fa4749aac860c01b616c09565b61595167ce2cb5fdd571c1ee60c01b616c09565b6159656780071f2ce41218d460c01b616c09565b6000600160009054906101000a900473ffffffffffffffffffffffffffffffffffffffff1673ffffffffffffffffffffffffffffffffffffffff1663fadc54f4846040518263ffffffff1660e01b81526004016159c2919061945f565b600060405180830381865afa1580156159df573d6000803e3d6000fd5b505050506040513d6000823e3d601f19601f82011682018060405250810190615a08919061a103565b602001519050615a2267787a89d7b01e698560c01b616c09565b615a36671dd8d2d3607eeb6c60c01b616c09565b6000815167ffffffffffffffff811115615a5357615a52617e7d565b5b604051908082528060200260200182016040528015615a8657816020015b6060815260200190600190039081615a715790505b509050615a9d67ff29d5ba780b90f460c01b616c09565b615ab167d2b89a05a66c1ce460c01b616c09565b60005b8251811015615b5c57615ad167110f78322466045a60c01b616c09565b615ae567ee873359416f555c60c01b616c09565b6000615b0f87858481518110615afe57615afd618cf0565b5b6020026020010151600001516135a6565b602001519050615b2967f5c23e84b801253760c01b616c09565b80838381518110615b3d57615b3c618cf0565b5b6020026020010181905250508080615b54906193b6565b915050615ab4565b50615b7167e79772263dfd6a5460c01b616c09565b615b856774899dcc10e635dc60c01b616c09565b60405180606001604052806001151581526020018281526020016040518060200160405280600081525081525092505050615c7e565b615bcf677f0aaf74b12f042d60c01b616c09565b615be367849ea00ab9f1cb6a60c01b616c09565b615bf767e33e1595d5aad0e860c01b616c09565b6040518060600160405280600015158152602001600067ffffffffffffffff811115615c2657615c25617e7d565b5b604051908082528060200260200182016040528015615c5957816020015b6060815260200190600190039081615c445790505b5081526020016040518060e0016040528060a4815260200161a70060a4913981525090505b92915050565b615c9867b8dbd12837597a9860c01b616c09565b615cac67b1a54f6c6a67653a60c01b616c09565b615cc06762f104a126cbda7a60c01b616c09565b615cca82826118bf565b8015615d6e5750600560009054906101000a900473ffffffffffffffffffffffffffffffffffffffff1673ffffffffffffffffffffffffffffffffffffffff16638aaa7370836040518263ffffffff1660e01b8152600401615d2c9190618a2f565b602060405180830381865afa158015615d49573d6000803e3d6000fd5b505050506040513d601f19601f82011682018060405250810190615d6d91906194d4565b5b8015615e125750600560009054906101000a900473ffffffffffffffffffffffffffffffffffffffff1673ffffffffffffffffffffffffffffffffffffffff16639506d9e3836040518263ffffffff1660e01b8152600401615dd09190618a2f565b602060405180830381865afa158015615ded573d6000803e3d6000fd5b505050506040513d601f19601f82011682018060405250810190615e1191906194d4565b5b1561636d57615e2b67dee42a369e85e7c260c01b616c09565b615e3f676cba292f0527b9f260c01b616c09565b615e53673fc71fe38f9189b660c01b616c09565b6000600160009054906101000a900473ffffffffffffffffffffffffffffffffffffffff1673ffffffffffffffffffffffffffffffffffffffff1663fadc54f4836040518263ffffffff1660e01b8152600401615eb0919061945f565b600060405180830381865afa158015615ecd573d6000803e3d6000fd5b505050506040513d6000823e3d601f19601f82011682018060405250810190615ef6919061a103565b602001519050615f106735380e625b4643fd60c01b616c09565b615f246723272805e9b176fb60c01b616c09565b60005b815181101561628557615f446713fc176ed5f2f76d60c01b616c09565b615f58676743ceb860ae685560c01b616c09565b60005b60008054905081101561627157615f7c67b739cf0435f4e63260c01b616c09565b615f90679cec31188e72eea060c01b616c09565b8473ffffffffffffffffffffffffffffffffffffffff1660008281548110615fbb57615fba618cf0565b5b906000526020600020906004020160000160009054906101000a900473ffffffffffffffffffffffffffffffffffffffff1673ffffffffffffffffffffffffffffffffffffffff1614801561606d575082828151811061601e5761601d618cf0565b5b602002602001015160000151805190602001206000828154811061604557616044618cf0565b5b9060005260206000209060040201600101604051616063919061a351565b6040518091039020145b156162495761608667aaa53014ff3cdcaa60c01b616c09565b61609a6765fe46e71974f0d760c01b616c09565b600060016000805490506160ae919061a368565b815481106160bf576160be618cf0565b5b9060005260206000209060040201600082815481106160e1576160e0618cf0565b5b90600052602060002090600402016000820160009054906101000a900473ffffffffffffffffffffffffffffffffffffffff168160000160006101000a81548173ffffffffffffffffffffffffffffffffffffffff021916908373ffffffffffffffffffffffffffffffffffffffff1602179055506001820181600101908161616a919061a3b2565b506002820181600201908161617f919061a3b2565b506003820181600301908054616196929190617cf1565b509050506161ae676334edcc099aad5d60c01b616c09565b6161c26765b5e4c0298ad48760c01b616c09565b60008054806161d4576161d361a49a565b5b6001900381819060005260206000209060040201600080820160006101000a81549073ffffffffffffffffffffffffffffffffffffffff02191690556001820160006162209190617d4e565b6002820160006162309190617d4e565b6003820160006162409190617d8e565b5050905561625e565b61625d67b31f7edc60d73e6e60c01b616c09565b5b8080616269906193b6565b915050615f5b565b50808061627d906193b6565b915050615f27565b5061629a67df6820f6ad11613760c01b616c09565b6162ae67bd64acd621e75b5760c01b616c09565b600360009054906101000a900473ffffffffffffffffffffffffffffffffffffffff1673ffffffffffffffffffffffffffffffffffffffff1663c47ebddc3384866040518463ffffffff1660e01b815260040161630d9392919061a515565b600060405180830381600087803b15801561632757600080fd5b505af115801561633b573d6000803e3d6000fd5b5050505061635367739671b401d5564d60c01b616c09565b616367671e5cc85f252ccef360c01b616c09565b50616382565b616381673305d1aa3729baef60c01b616c09565b5b5050565b61639a676b3c5087273bf66060c01b616c09565b6163ae67b0fc3fd382e7de1f60c01b616c09565b6163c267f7a3ee6af1df71d560c01b616c09565b6163d08383600001516179f5565b80156164745750600560009054906101000a900473ffffffffffffffffffffffffffffffffffffffff1673ffffffffffffffffffffffffffffffffffffffff16638aaa7370846040518263ffffffff1660e01b81526004016164329190618a2f565b602060405180830381865afa15801561644f573d6000803e3d6000fd5b505050506040513d601f19601f8201168201806040525081019061647391906194d4565b5b80156165185750600560009054906101000a900473ffffffffffffffffffffffffffffffffffffffff1673ffffffffffffffffffffffffffffffffffffffff16639506d9e3846040518263ffffffff1660e01b81526004016164d69190618a2f565b602060405180830381865afa1580156164f3573d6000803e3d6000fd5b505050506040513d601f19601f8201168201806040525081019061651791906194d4565b5b15616bef5761653167f6793bfebf30b7c560c01b616c09565b616545676c487c3d019337e260c01b616c09565b61655967da852194a00fb6a260c01b616c09565b6000600467ffffffffffffffff81111561657657616575617e7d565b5b6040519080825280602002602001820160405280156165a957816020015b60608152602001906001900390816165945790505b5090506165c067a23e6b1161cb4e7560c01b616c09565b6040518060400160405280600581526020017f73686172650000000000000000000000000000000000000000000000000000008152508160008151811061660a57616609618cf0565b5b602002602001018190525061662967ebce79615dc10c8e60c01b616c09565b6040518060400160405280600881526020017f646f776e6c6f61640000000000000000000000000000000000000000000000008152508160018151811061667357616672618cf0565b5b602002602001018190525061669267c33d1686246d4d0560c01b616c09565b6040518060400160405280600681526020017f64656c6574650000000000000000000000000000000000000000000000000000815250816002815181106166dc576166db618cf0565b5b60200260200101819052506166fb6759e407c7ded906be60c01b616c09565b6040518060400160405280600481526020017f65646974000000000000000000000000000000000000000000000000000000008152508160038151811061674557616744618cf0565b5b6020026020010181905250616764674b390bf61c43500760c01b616c09565b61677867a1f4232f40aee24860c01b616c09565b6000600460009054906101000a900473ffffffffffffffffffffffffffffffffffffffff1673ffffffffffffffffffffffffffffffffffffffff1663872e35a9868660000151858860e001516040518563ffffffff1660e01b81526004016167e3949392919061a579565b602060405180830381865afa158015616800573d6000803e3d6000fd5b505050506040513d601f19601f8201168201806040525081019061682491906194d4565b905061683a6749ae0d0f76e0591f60c01b616c09565b61684e67d247bb7837e7e16260c01b616c09565b8015616bd35761686867ebfe73d92836eccd60c01b616c09565b61687c671f6a776a5aa51e6560c01b616c09565b6168906731555132dfe9f83060c01b616c09565b600160009054906101000a900473ffffffffffffffffffffffffffffffffffffffff1673ffffffffffffffffffffffffffffffffffffffff1663bfddc42f856040518263ffffffff1660e01b81526004016168eb919061a5d3565b600060405180830381600087803b15801561690557600080fd5b505af1158015616919573d6000803e3d6000fd5b5050505061693167c33f639ca383e3e160c01b616c09565b616945675a464a62572c487860c01b616c09565b600060405180608001604052808773ffffffffffffffffffffffffffffffffffffffff168152602001866000015181526020018581526020018481525090506169986747fbf1da3d87ea3c60c01b616c09565b6169ac67399db61225dff87e60c01b616c09565b600081908060018154018082558091505060019003906000526020600020906004020160009091909190915060008201518160000160006101000a81548173ffffffffffffffffffffffffffffffffffffffff021916908373ffffffffffffffffffffffffffffffffffffffff1602179055506020820151816001019081616a349190619888565b506040820151816002019081616a4a9190619888565b506060820151816003019080519060200190616a67929190617c75565b505050616a7e6726ce32696d3bee9660c01b616c09565b616a9267c37066bfbf8744e360c01b616c09565b600360009054906101000a900473ffffffffffffffffffffffffffffffffffffffff1673ffffffffffffffffffffffffffffffffffffffff1663c47ebddc33876000015189600460009054906101000a900473ffffffffffffffffffffffffffffffffffffffff1673ffffffffffffffffffffffffffffffffffffffff16636bb8d768896040518263ffffffff1660e01b8152600401616b329190619b8c565b600060405180830381865afa158015616b4f573d6000803e3d6000fd5b505050506040513d6000823e3d601f19601f82011682018060405250810190616b789190618f83565b602001516040518563ffffffff1660e01b8152600401616b9b949392919061a641565b600060405180830381600087803b158015616bb557600080fd5b505af1158015616bc9573d6000803e3d6000fd5b5050505050616be8565b616be767f654754b56ece68560c01b616c09565b5b5050616c04565b616c0367aed16680bb7f3b2360c01b616c09565b5b505050565b50565b600060019050919050565b6000616c2d67a29e5b943aee324560c01b616c09565b616c4167315a40658e8a19b160c01b616c09565b616c5567bfc8392ce42aac1960c01b616c09565b60005b60008054905081101561703157616c79674a0aedfe0922477a60c01b616c09565b616c8d67b164626392d330c360c01b616c09565b600460009054906101000a900473ffffffffffffffffffffffffffffffffffffffff1673ffffffffffffffffffffffffffffffffffffffff16635c99c71b3360008481548110616ce057616cdf618cf0565b5b906000526020600020906004020160000160009054906101000a900473ffffffffffffffffffffffffffffffffffffffff168660008681548110616d2757616d26618cf0565b5b90600052602060002090600402016001016040518563ffffffff1660e01b8152600401616d579493929190619481565b602060405180830381865afa158015616d74573d6000803e3d6000fd5b505050506040513d601f19601f82011682018060405250810190616d9891906194d4565b8015616fbf5750604051602001616dae9061944a565b60405160208183030381529060405280519060200120600160009054906101000a900473ffffffffffffffffffffffffffffffffffffffff1673ffffffffffffffffffffffffffffffffffffffff1662438ceb856040518263ffffffff1660e01b8152600401616e1e919061945f565b600060405180830381865afa158015616e3b573d6000803e3d6000fd5b505050506040513d6000823e3d601f19601f82011682018060405250810190616e649190618f83565b60200151604051602001616e789190619008565b60405160208183030381529060405280519060200120148015616eab5750616eaa6784f7b681586eb63560c01b616c0c565b5b80616fbe5750604051602001616ec090619cac565b60405160208183030381529060405280519060200120600160009054906101000a900473ffffffffffffffffffffffffffffffffffffffff1673ffffffffffffffffffffffffffffffffffffffff1662438ceb856040518263ffffffff1660e01b8152600401616f30919061945f565b600060405180830381865afa158015616f4d573d6000803e3d6000fd5b505050506040513d6000823e3d601f19601f82011682018060405250810190616f769190618f83565b60200151604051602001616f8a9190619008565b60405160208183030381529060405280519060200120148015616fbd5750616fbc67f8d579fac759edd660c01b616c0c565b5b5b5b1561700a57616fd867975fe74085e8968160c01b616c09565b616fec67e3851b69a080279860c01b616c09565b61700067603a8d7573aefc6860c01b616c09565b600191505061705f565b61701e675aec5972b917e43060c01b616c09565b8080617029906193b6565b915050616c58565b506170466726bb133cd3b7e8b060c01b616c09565b61705a6739f5171e5cff842060c01b616c09565b600090505b919050565b600061707a67aec4e9d29352afa160c01b616c09565b61708e67c95fb40cc5f435a560c01b616c09565b6170a267bf872ecceb16a64160c01b616c09565b6040516020016170b19061944a565b60405160208183030381529060405280519060200120600160009054906101000a900473ffffffffffffffffffffffffffffffffffffffff1673ffffffffffffffffffffffffffffffffffffffff1662438ceb856040518263ffffffff1660e01b8152600401617121919061945f565b600060405180830381865afa15801561713e573d6000803e3d6000fd5b505050506040513d6000823e3d601f19601f820116820180604052508101906171679190618f83565b6020015160405160200161717b9190619008565b6040516020818303038152906040528051906020012003617322576171aa673fff97df25e5eddc60c01b616c09565b6171be67d34f4c24a0d1aa2060c01b616c09565b6171d2679904c70b046577a060c01b616c09565b60006171de8585610c51565b6020015190506171f8679b550cd7db96021c60c01b616c09565b61720c671765b1893b33708260c01b616c09565b60005b815181101561731b5761722c67768728685da9280c60c01b616c09565b61724067641323169496e64e60c01b616c09565b836040516020016172519190619008565b6040516020818303038152906040528051906020012082828151811061727a57617279618cf0565b5b60200260200101516040516020016172929190619008565b60405160208183030381529060405280519060200120036172f4576172c1676bdbc29d9371ae2f60c01b616c09565b6172d56742dbb64479967d5160c01b616c09565b6172e9673a7ccb3d40c9b0b660c01b616c09565b600192505050617364565b6173086711dffa8d637ba28560c01b616c09565b8080617313906193b6565b91505061720f565b5050617337565b61733667218dd54e7dfbd21760c01b616c09565b5b61734b676fa2edfbe4bb610460c01b616c09565b61735f67464819de031926df60c01b616c09565b600090505b9392505050565b6000617381679982e280be42187060c01b616c09565b61739567fec29afdfcdf8e8160c01b616c09565b6173a9679923f03302f3f5cd60c01b616c09565b6173e933836040518060400160405280600481526020017f6564697400000000000000000000000000000000000000000000000000000000815250617064565b80156174e157506040516020016173ff9061944a565b60405160208183030381529060405280519060200120600160009054906101000a900473ffffffffffffffffffffffffffffffffffffffff1673ffffffffffffffffffffffffffffffffffffffff1662438ceb846040518263ffffffff1660e01b815260040161746f919061945f565b600060405180830381865afa15801561748c573d6000803e3d6000fd5b505050506040513d6000823e3d601f19601f820116820180604052508101906174b59190618f83565b602001516040516020016174c99190619008565b60405160208183030381529060405280519060200120145b1561752b576174fa67a0564e7860a6fcac60c01b616c09565b61750e678cf30af9a4853f6260c01b616c09565b617522670d49af6a5b856c2c60c01b616c09565b6001905061756c565b61753f67298936983ea3f6ac60c01b616c09565b61755367ecc43586e8d81ef660c01b616c09565b61756767731d2e820a2f2b7960c01b616c09565b600090505b919050565b6000617587676de38b5d579108ea60c01b616c09565b61759b67b7519bbc35d4c0d660c01b616c09565b6175af67ae62a5c4b740543e60c01b616c09565b600073ffffffffffffffffffffffffffffffffffffffff16600160009054906101000a900473ffffffffffffffffffffffffffffffffffffffff1673ffffffffffffffffffffffffffffffffffffffff166347eb6fa787600001516040518263ffffffff1660e01b8152600401617626919061a6ca565b600060405180830381865afa158015617643573d6000803e3d6000fd5b505050506040513d6000823e3d601f19601f8201168201806040525081019061766c9190619334565b602001516080015173ffffffffffffffffffffffffffffffffffffffff16141580156177705750600073ffffffffffffffffffffffffffffffffffffffff16600160009054906101000a900473ffffffffffffffffffffffffffffffffffffffff1673ffffffffffffffffffffffffffffffffffffffff166347eb6fa786600001516040518263ffffffff1660e01b815260040161770a919061a6ca565b600060405180830381865afa158015617727573d6000803e3d6000fd5b505050506040513d6000823e3d601f19601f820116820180604052508101906177509190619334565b602001516080015173ffffffffffffffffffffffffffffffffffffffff16145b80156177ca575060405160200161778690619045565b6040516020818303038152906040528051906020012084602001516040516020016177b19190619008565b6040516020818303038152906040528051906020012014155b801561782457506040516020016177e090619045565b604051602081830303815290604052805190602001208460a0015160405160200161780b9190619008565b6040516020818303038152906040528051906020012014155b801561787e575060405160200161783a90619045565b604051602081830303815290604052805190602001208460c001516040516020016178659190619008565b6040516020818303038152906040528051906020012014155b80156178d9575060405160200161789490619045565b604051602081830303815290604052805190602001208461010001516040516020016178c09190619008565b6040516020818303038152906040528051906020012014155b80156178e6575081518351145b80156179255750846080015173ffffffffffffffffffffffffffffffffffffffff16856080015173ffffffffffffffffffffffffffffffffffffffff16145b80156179625750600073ffffffffffffffffffffffffffffffffffffffff16856080015173ffffffffffffffffffffffffffffffffffffffff1614155b156179ac5761797b6762e29bf6e4c2fc2160c01b616c09565b61798f6707b9c35fba400af960c01b616c09565b6179a3678bb508c66ea56de860c01b616c09565b600190506179ed565b6179c06718c82a7a71011c5c60c01b616c09565b6179d46712143d98658beb9d60c01b616c09565b6179e8672c8b00280befef2760c01b616c09565b600090505b949350505050565b6000617a0b6726ed174b8fb5358360c01b616c09565b617a1f675e1e3aaf68f3e10c60c01b616c09565b617a33675d568f8d0942b89660c01b616c09565b8273ffffffffffffffffffffffffffffffffffffffff163373ffffffffffffffffffffffffffffffffffffffff16148015617a755750617a7383836115a4565b155b8015617b195750600260009054906101000a900473ffffffffffffffffffffffffffffffffffffffff1673ffffffffffffffffffffffffffffffffffffffff1663a240e426846040518263ffffffff1660e01b8152600401617ad79190618a2f565b602060405180830381865afa158015617af4573d6000803e3d6000fd5b505050506040513d601f19601f82011682018060405250810190617b1891906194d4565b5b15617b6357617b3267673375c746d01ad760c01b616c09565b617b46678cb01537fa1f9c4f60c01b616c09565b617b5a6729fda7c42e61ea7b60c01b616c09565b60019050617ba4565b617b7767ef53330179ed674760c01b616c09565b617b8b67a25291b45345a21a60c01b616c09565b617b9f6782bcd52f53e562dd60c01b616c09565b600090505b92915050565b604051806060016040528060001515815260200160608152602001606081525090565b60405180610120016040528060608152602001606081526020016000815260200160608152602001600073ffffffffffffffffffffffffffffffffffffffff168152602001606081526020016060815260200160608152602001606081525090565b604051806060016040528060001515815260200160608152602001606081525090565b604051806060016040528060001515815260200160608152602001606081525090565b828054828255906000526020600020908101928215617cbd579160200282015b82811115617cbc578251829081617cac9190619888565b5091602001919060010190617c95565b5b509050617cca9190617daf565b5090565b604051806060016040528060001515815260200160608152602001606081525090565b828054828255906000526020600020908101928215617d3d5760005260206000209182015b82811115617d3c5782829081617d2c919061a3b2565b5091600101919060010190617d16565b5b509050617d4a9190617daf565b5090565b508054617d5a90618d4e565b6000825580601f10617d6c5750617d8b565b601f016020900490600052602060002090810190617d8a9190617dd3565b5b50565b5080546000825590600052602060002090810190617dac9190617daf565b50565b5b80821115617dcf5760008181617dc69190617d4e565b50600101617db0565b5090565b5b80821115617dec576000816000905550600101617dd4565b5090565b6000604051905090565b600080fd5b600080fd5b600073ffffffffffffffffffffffffffffffffffffffff82169050919050565b6000617e2f82617e04565b9050919050565b617e3f81617e24565b8114617e4a57600080fd5b50565b600081359050617e5c81617e36565b92915050565b600080fd5b600080fd5b6000601f19601f8301169050919050565b7f4e487b7100000000000000000000000000000000000000000000000000000000600052604160045260246000fd5b617eb582617e6c565b810181811067ffffffffffffffff82111715617ed457617ed3617e7d565b5b80604052505050565b6000617ee7617df0565b9050617ef38282617eac565b919050565b600067ffffffffffffffff821115617f1357617f12617e7d565b5b617f1c82617e6c565b9050602081019050919050565b82818337600083830152505050565b6000617f4b617f4684617ef8565b617edd565b905082815260208101848484011115617f6757617f66617e67565b5b617f72848285617f29565b509392505050565b600082601f830112617f8f57617f8e617e62565b5b8135617f9f848260208601617f38565b91505092915050565b60008060408385031215617fbf57617fbe617dfa565b5b6000617fcd85828601617e4d565b925050602083013567ffffffffffffffff811115617fee57617fed617dff565b5b617ffa85828601617f7a565b9150509250929050565b60008115159050919050565b61801981618004565b82525050565b600081519050919050565b600082825260208201905092915050565b6000819050602082019050919050565b600081519050919050565b600082825260208201905092915050565b60005b8381101561808557808201518184015260208101905061806a565b60008484015250505050565b600061809c8261804b565b6180a68185618056565b93506180b6818560208601618067565b6180bf81617e6c565b840191505092915050565b6000819050919050565b6180dd816180ca565b82525050565b6180ec81617e24565b82525050565b60006101208301600083015184820360008601526181108282618091565b9150506020830151848203602086015261812a8282618091565b915050604083015161813f60408601826180d4565b50606083015184820360608601526181578282618091565b915050608083015161816c60808601826180e3565b5060a083015184820360a08601526181848282618091565b91505060c083015184820360c086015261819e8282618091565b91505060e083015184820360e08601526181b88282618091565b9150506101008301518482036101008601526181d48282618091565b9150508091505092915050565b60006181ed83836180f2565b905092915050565b6000602082019050919050565b600061820d8261801f565b618217818561802a565b9350836020820285016182298561803b565b8060005b85811015618265578484038952815161824685826181e1565b9450618251836181f5565b925060208a0199505060018101905061822d565b50829750879550505050505092915050565b600060608301600083015161828f6000860182618010565b50602083015184820360208601526182a78282618202565b915050604083015184820360408601526182c18282618091565b9150508091505092915050565b600060208201905081810360008301526182e88184618277565b905092915050565b600081519050919050565b600082825260208201905092915050565b6000819050602082019050919050565b60006183288383618091565b905092915050565b6000602082019050919050565b6000618348826182f0565b61835281856182fb565b9350836020820285016183648561830c565b8060005b858110156183a05784840389528151618381858261831c565b945061838c83618330565b925060208a01995050600181019050618368565b50829750879550505050505092915050565b60006060830160008301516183ca6000860182618010565b50602083015184820360208601526183e2828261833d565b915050604083015184820360408601526183fc8282618091565b9150508091505092915050565b6000602082019050818103600083015261842381846183b2565b905092915050565b61843481618004565b82525050565b600060208201905061844f600083018461842b565b92915050565b60006020828403121561846b5761846a617dfa565b5b600082013567ffffffffffffffff81111561848957618488617dff565b5b61849584828501617f7a565b91505092915050565b600081519050919050565b600082825260208201905092915050565b6000819050602082019050919050565b60006184d683836180e3565b60208301905092915050565b6000602082019050919050565b60006184fa8261849e565b61850481856184a9565b935061850f836184ba565b8060005b8381101561854057815161852788826184ca565b9750618532836184e2565b925050600181019050618513565b5085935050505092915050565b60006060830160008301516185656000860182618010565b506020830151848203602086015261857d82826184ef565b915050604083015184820360408601526185978282618091565b9150508091505092915050565b600060208201905081810360008301526185be818461854d565b905092915050565b600080fd5b600080fd5b6185d9816180ca565b81146185e457600080fd5b50565b6000813590506185f6816185d0565b92915050565b60006101208284031215618613576186126185c6565b5b61861e610120617edd565b9050600082013567ffffffffffffffff81111561863e5761863d6185cb565b5b61864a84828501617f7a565b600083015250602082013567ffffffffffffffff81111561866e5761866d6185cb565b5b61867a84828501617f7a565b602083015250604061868e848285016185e7565b604083015250606082013567ffffffffffffffff8111156186b2576186b16185cb565b5b6186be84828501617f7a565b60608301525060806186d284828501617e4d565b60808301525060a082013567ffffffffffffffff8111156186f6576186f56185cb565b5b61870284828501617f7a565b60a08301525060c082013567ffffffffffffffff811115618726576187256185cb565b5b61873284828501617f7a565b60c08301525060e082013567ffffffffffffffff811115618756576187556185cb565b5b61876284828501617f7a565b60e08301525061010082013567ffffffffffffffff811115618787576187866185cb565b5b61879384828501617f7a565b6101008301525092915050565b600067ffffffffffffffff8211156187bb576187ba617e7d565b5b602082029050602081019050919050565b600080fd5b60006187e46187df846187a0565b617edd565b90508083825260208201905060208402830185811115618807576188066187cc565b5b835b81811015618830578061881c8882617e4d565b845260208401935050602081019050618809565b5050509392505050565b600082601f83011261884f5761884e617e62565b5b813561885f8482602086016187d1565b91505092915050565b600067ffffffffffffffff82111561888357618882617e7d565b5b602082029050602081019050919050565b60006188a76188a284618868565b617edd565b905080838252602082019050602084028301858111156188ca576188c96187cc565b5b835b8181101561891157803567ffffffffffffffff8111156188ef576188ee617e62565b5b8086016188fc8982617f7a565b855260208501945050506020810190506188cc565b5050509392505050565b600082601f8301126189305761892f617e62565b5b8135618940848260208601618894565b91505092915050565b6000806000806080858703121561896357618962617dfa565b5b600085013567ffffffffffffffff81111561898157618980617dff565b5b61898d878288016185fc565b945050602085013567ffffffffffffffff8111156189ae576189ad617dff565b5b6189ba878288016185fc565b935050604085013567ffffffffffffffff8111156189db576189da617dff565b5b6189e78782880161883a565b925050606085013567ffffffffffffffff811115618a0857618a07617dff565b5b618a148782880161891b565b91505092959194509250565b618a2981617e24565b82525050565b6000602082019050618a446000830184618a20565b92915050565b60008060408385031215618a6157618a60617dfa565b5b600083013567ffffffffffffffff811115618a7f57618a7e617dff565b5b618a8b85828601617f7a565b9250506020618a9c85828601617e4d565b9150509250929050565b600080600060608486031215618abf57618abe617dfa565b5b6000618acd86828701617e4d565b935050602084013567ffffffffffffffff811115618aee57618aed617dff565b5b618afa86828701617f7a565b925050604084013567ffffffffffffffff811115618b1b57618b1a617dff565b5b618b278682870161891b565b9150509250925092565b6000606083016000830151618b496000860182618010565b5060208301518482036020860152618b618282618091565b91505060408301518482036040860152618b7b8282618091565b9150508091505092915050565b60006020820190508181036000830152618ba28184618b31565b905092915050565b60008060008060808587031215618bc457618bc3617dfa565b5b6000618bd287828801617e4d565b945050602085013567ffffffffffffffff811115618bf357618bf2617dff565b5b618bff87828801617f7a565b935050604085013567ffffffffffffffff811115618c2057618c1f617dff565b5b618c2c8782880161891b565b925050606085013567ffffffffffffffff811115618c4d57618c4c617dff565b5b618c598782880161891b565b91505092959194509250565b600080600060608486031215618c7e57618c7d617dfa565b5b6000618c8c86828701617e4d565b935050602084013567ffffffffffffffff811115618cad57618cac617dff565b5b618cb9868287016185fc565b925050604084013567ffffffffffffffff811115618cda57618cd9617dff565b5b618ce686828701617f7a565b9150509250925092565b7f4e487b7100000000000000000000000000000000000000000000000000000000600052603260045260246000fd5b7f4e487b7100000000000000000000000000000000000000000000000000000000600052602260045260246000fd5b60006002820490506001821680618d6657607f821691505b602082108103618d7957618d78618d1f565b5b50919050565b600082825260208201905092915050565b60008190508160005260206000209050919050565b60008154618db281618d4e565b618dbc8186618d7f565b94506001821660008114618dd75760018114618ded57618e20565b60ff198316865281151560200286019350618e20565b618df685618d90565b60005b83811015618e1857815481890152600182019150602081019050618df9565b808801955050505b50505092915050565b60006020820190508181036000830152618e438184618da5565b905092915050565b618e5481618004565b8114618e5f57600080fd5b50565b600081519050618e7181618e4b565b92915050565b6000618e8a618e8584617ef8565b617edd565b905082815260208101848484011115618ea657618ea5617e67565b5b618eb1848285618067565b509392505050565b600082601f830112618ece57618ecd617e62565b5b8151618ede848260208601618e77565b91505092915050565b600060608284031215618efd57618efc6185c6565b5b618f076060617edd565b90506000618f1784828501618e62565b600083015250602082015167ffffffffffffffff811115618f3b57618f3a6185cb565b5b618f4784828501618eb9565b602083015250604082015167ffffffffffffffff811115618f6b57618f6a6185cb565b5b618f7784828501618eb9565b60408301525092915050565b600060208284031215618f9957618f98617dfa565b5b600082015167ffffffffffffffff811115618fb757618fb6617dff565b5b618fc384828501618ee7565b91505092915050565b600081905092915050565b6000618fe28261804b565b618fec8185618fcc565b9350618ffc818560208601618067565b80840191505092915050565b60006190148284618fd7565b915081905092915050565b50565b600061902f600083618fcc565b915061903a8261901f565b600082019050919050565b600061905082619022565b9150819050919050565b60006190658261804b565b61906f8185618d7f565b935061907f818560208601618067565b61908881617e6c565b840191505092915050565b600060408201905081810360008301526190ad818561905a565b905081810360208301526190c1818461905a565b90509392505050565b6000815190506190d9816185d0565b92915050565b6000815190506190ee81617e36565b92915050565b6000610120828403121561910b5761910a6185c6565b5b619116610120617edd565b9050600082015167ffffffffffffffff811115619136576191356185cb565b5b61914284828501618eb9565b600083015250602082015167ffffffffffffffff811115619166576191656185cb565b5b61917284828501618eb9565b6020830152506040619186848285016190ca565b604083015250606082015167ffffffffffffffff8111156191aa576191a96185cb565b5b6191b684828501618eb9565b60608301525060806191ca848285016190df565b60808301525060a082015167ffffffffffffffff8111156191ee576191ed6185cb565b5b6191fa84828501618eb9565b60a08301525060c082015167ffffffffffffffff81111561921e5761921d6185cb565b5b61922a84828501618eb9565b60c08301525060e082015167ffffffffffffffff81111561924e5761924d6185cb565b5b61925a84828501618eb9565b60e08301525061010082015167ffffffffffffffff81111561927f5761927e6185cb565b5b61928b84828501618eb9565b6101008301525092915050565b6000606082840312156192ae576192ad6185c6565b5b6192b86060617edd565b905060006192c884828501618e62565b600083015250602082015167ffffffffffffffff8111156192ec576192eb6185cb565b5b6192f8848285016190f4565b602083015250604082015167ffffffffffffffff81111561931c5761931b6185cb565b5b61932884828501618eb9565b60408301525092915050565b60006020828403121561934a57619349617dfa565b5b600082015167ffffffffffffffff81111561936857619367617dff565b5b61937484828501619298565b91505092915050565b7f4e487b7100000000000000000000000000000000000000000000000000000000600052601160045260246000fd5b6000819050919050565b60006193c1826193ac565b91507fffffffffffffffffffffffffffffffffffffffffffffffffffffffffffffffff82036193f3576193f261937d565b5b600182019050919050565b7f6163746976650000000000000000000000000000000000000000000000000000600082015250565b6000619434600683618fcc565b915061943f826193fe565b600682019050919050565b600061945582619427565b9150819050919050565b60006020820190508181036000830152619479818461905a565b905092915050565b60006080820190506194966000830187618a20565b6194a36020830186618a20565b81810360408301526194b5818561905a565b905081810360608301526194c98184618da5565b905095945050505050565b6000602082840312156194ea576194e9617dfa565b5b60006194f884828501618e62565b91505092915050565b60006040820190506195166000830185618a20565b8181036020830152619528818461905a565b90509392505050565b6000815461953e81618d4e565b6195488186618fcc565b945060018216600081146195635760018114619578576195ab565b60ff19831686528115158202860193506195ab565b61958185618d90565b60005b838110156195a357815481890152600182019150602081019050619584565b838801955050505b50505092915050565b60006195c08284619531565b915081905092915050565b60006101208301600083015184820360008601526195e98282618091565b915050602083015184820360208601526196038282618091565b915050604083015161961860408601826180d4565b50606083015184820360608601526196308282618091565b915050608083015161964560808601826180e3565b5060a083015184820360a086015261965d8282618091565b91505060c083015184820360c08601526196778282618091565b91505060e083015184820360e08601526196918282618091565b9150506101008301518482036101008601526196ad8282618091565b9150508091505092915050565b600060408201905081810360008301526196d481856195cb565b905081810360208301526196e881846195cb565b90509392505050565b60006020601f8301049050919050565b600082821b905092915050565b60006008830261973e7fffffffffffffffffffffffffffffffffffffffffffffffffffffffffffffffff82619701565b6197488683619701565b95508019841693508086168417925050509392505050565b6000819050919050565b600061978561978061977b846193ac565b619760565b6193ac565b9050919050565b6000819050919050565b61979f8361976a565b6197b36197ab8261978c565b84845461970e565b825550505050565b600090565b6197c86197bb565b6197d3818484619796565b505050565b5b818110156197f7576197ec6000826197c0565b6001810190506197d9565b5050565b601f82111561983c5761980d81618d90565b619816846196f1565b81016020851015619825578190505b619839619831856196f1565b8301826197d8565b50505b505050565b600082821c905092915050565b600061985f60001984600802619841565b1980831691505092915050565b6000619878838361984e565b9150826002028217905092915050565b6198918261804b565b67ffffffffffffffff8111156198aa576198a9617e7d565b5b6198b48254618d4e565b6198bf8282856197fb565b600060209050601f8311600181146198f257600084156198e0578287015190505b6198ea858261986c565b865550619952565b601f19841661990086618d90565b60005b8281101561992857848901518255600182019150602085019450602081019050619903565b868310156199455784890151619941601f89168261984e565b8355505b6001600288020188555050505b505050505050565b7f2d00000000000000000000000000000000000000000000000000000000000000600082015250565b6000619990600183618d7f565b915061999b8261995a565b602082019050919050565b7f6564697400000000000000000000000000000000000000000000000000000000600082015250565b60006199dc600483618d7f565b91506199e7826199a6565b602082019050919050565b600060a082019050619a076000830186618a20565b8181036020830152619a19818561905a565b9050619a286040830184618a20565b8181036060830152619a3981619983565b90508181036080830152619a4c816199cf565b9050949350505050565b7f646f776e6c6f6164000000000000000000000000000000000000000000000000600082015250565b6000619a8c600883618d7f565b9150619a9782619a56565b602082019050919050565b600060a082019050619ab76000830186618a20565b8181036020830152619ac9818561905a565b9050619ad86040830184618a20565b8181036060830152619ae981619983565b90508181036080830152619afc81619a7f565b9050949350505050565b600082825260208201905092915050565b6000619b22826182f0565b619b2c8185619b06565b935083602082028501619b3e8561830c565b8060005b85811015619b7a5784840389528151619b5b858261831c565b9450619b6683618330565b925060208a01995050600181019050619b42565b50829750879550505050505092915050565b60006020820190508181036000830152619ba68184619b17565b905092915050565b7f757064617465207065726d697373696f6e730000000000000000000000000000600082015250565b6000619be4601283618d7f565b9150619bef82619bae565b602082019050919050565b600060a082019050619c0f6000830187618a20565b8181036020830152619c21818661905a565b9050619c306040830185618a20565b8181036060830152619c42818461905a565b90508181036080830152619c5581619bd7565b905095945050505050565b7f6564697465640000000000000000000000000000000000000000000000000000600082015250565b6000619c96600683618fcc565b9150619ca182619c60565b600682019050919050565b6000619cb782619c89565b9150819050919050565b7f7375636365737320766572696669636174696f6e000000000000000000000000600082015250565b6000619cf7601483618d7f565b9150619d0282619cc1565b602082019050919050565b600060a082019050619d226000830186618a20565b8181036020830152619d348185618da5565b9050619d436040830184618a20565b8181036060830152619d5481619983565b90508181036080830152619d6781619cea565b9050949350505050565b6000619d84619d7f84618868565b617edd565b90508083825260208201905060208402830185811115619da757619da66187cc565b5b835b81811015619dee57805167ffffffffffffffff811115619dcc57619dcb617e62565b5b808601619dd98982618eb9565b85526020850194505050602081019050619da9565b5050509392505050565b600082601f830112619e0d57619e0c617e62565b5b8151619e1d848260208601619d71565b91505092915050565b600060608284031215619e3c57619e3b6185c6565b5b619e466060617edd565b90506000619e5684828501618e62565b600083015250602082015167ffffffffffffffff811115619e7a57619e796185cb565b5b619e8684828501619df8565b602083015250604082015167ffffffffffffffff811115619eaa57619ea96185cb565b5b619eb684828501618eb9565b60408301525092915050565b600060208284031215619ed857619ed7617dfa565b5b600082015167ffffffffffffffff811115619ef657619ef5617dff565b5b619f0284828501619e26565b91505092915050565b6000619f18600083618d7f565b9150619f238261901f565b600082019050919050565b6000608082019050619f436000830186618a20565b8181036020830152619f55818561905a565b90508181036040830152619f698184619b17565b90508181036060830152619f7c81619f0b565b9050949350505050565b600067ffffffffffffffff821115619fa157619fa0617e7d565b5b602082029050602081019050919050565b6000619fc5619fc084619f86565b617edd565b90508083825260208201905060208402830185811115619fe857619fe76187cc565b5b835b8181101561a02f57805167ffffffffffffffff81111561a00d5761a00c617e62565b5b80860161a01a89826190f4565b85526020850194505050602081019050619fea565b5050509392505050565b600082601f83011261a04e5761a04d617e62565b5b815161a05e848260208601619fb2565b91505092915050565b60006060828403121561a07d5761a07c6185c6565b5b61a0876060617edd565b9050600061a09784828501618e62565b600083015250602082015167ffffffffffffffff81111561a0bb5761a0ba6185cb565b5b61a0c78482850161a039565b602083015250604082015167ffffffffffffffff81111561a0eb5761a0ea6185cb565b5b61a0f784828501618eb9565b60408301525092915050565b60006020828403121561a1195761a118617dfa565b5b600082015167ffffffffffffffff81111561a1375761a136617dff565b5b61a1438482850161a067565b91505092915050565b7f7368617265000000000000000000000000000000000000000000000000000000600082015250565b600061a182600583618d7f565b915061a18d8261a14c565b602082019050919050565b600060a08201905061a1ad6000830187618a20565b818103602083015261a1bf818661905a565b905061a1ce6040830185618a20565b818103606083015261a1e0818461905a565b9050818103608083015261a1f38161a175565b905095945050505050565b7f64656c6574656400000000000000000000000000000000000000000000000000600082015250565b600061a234600783618d7f565b915061a23f8261a1fe565b602082019050919050565b600060a08201905061a25f6000830186618a20565b818103602083015261a271818561905a565b905061a2806040830184618a20565b818103606083015261a29181619983565b9050818103608083015261a2a48161a227565b9050949350505050565b600081905092915050565b60008190508160005260206000209050919050565b6000815461a2db81618d4e565b61a2e5818661a2ae565b9450600182166000811461a300576001811461a3155761a348565b60ff198316865281151582028601935061a348565b61a31e8561a2b9565b60005b8381101561a3405781548189015260018201915060208101905061a321565b838801955050505b50505092915050565b600061a35d828461a2ce565b915081905092915050565b600061a373826193ac565b915061a37e836193ac565b925082820390508181111561a3965761a39561937d565b5b92915050565b60008154905061a3ab81618d4e565b9050919050565b81810361a3c057505061a498565b61a3c98261a39c565b67ffffffffffffffff81111561a3e25761a3e1617e7d565b5b61a3ec8254618d4e565b61a3f78282856197fb565b6000601f83116001811461a426576000841561a414578287015490505b61a41e858261986c565b86555061a491565b601f19841661a43487618d90565b965061a43f86618d90565b60005b8281101561a4675784890154825560018201915060018501945060208101905061a442565b8683101561a484578489015461a480601f89168261984e565b8355505b6001600288020188555050505b5050505050505b565b7f4e487b7100000000000000000000000000000000000000000000000000000000600052603160045260246000fd5b7f72656d6f76656420616363657373000000000000000000000000000000000000600082015250565b600061a4ff600e83618d7f565b915061a50a8261a4c9565b602082019050919050565b600060a08201905061a52a6000830186618a20565b818103602083015261a53c818561905a565b905061a54b6040830184618a20565b818103606083015261a55c81619983565b9050818103608083015261a56f8161a4f2565b9050949350505050565b600060808201905061a58e6000830187618a20565b818103602083015261a5a0818661905a565b9050818103604083015261a5b48185619b17565b9050818103606083015261a5c8818461905a565b905095945050505050565b6000602082019050818103600083015261a5ed81846195cb565b905092915050565b7f75706c6f61640000000000000000000000000000000000000000000000000000600082015250565b600061a62b600683618d7f565b915061a6368261a5f5565b602082019050919050565b600060a08201905061a6566000830187618a20565b818103602083015261a668818661905a565b905061a6776040830185618a20565b818103606083015261a689818461905a565b9050818103608083015261a69c8161a61e565b905095945050505050565b600061a6b4600683618d7f565b915061a6bf826193fe565b602082019050919050565b6000604082019050818103600083015261a6e4818461905a565b9050818103602083015261a6f78161a6a7565b90509291505056fe4d616b65207375726520746865207472616e73616374696f6e20657865637574657220617320746f206265207468652073616d652061732074686520757365722c2074686520757365722068617320746f206265206173736f6369617465642077697468207468652066696c652c20616e64207468652066696c652068617320746f20626520696e2074686520616374697665206f72206564697465642073746174652e536f6d657468696e672077656e742077726f6e67207768696c6520747279696e6720746f2067657420746865207573657273207769746820646f776e6c6f6164207065726d697373696f6e73206f766572207468652066696c652e546865207472616e61736374696f6e2065786563757465722073686f756c64206265207468652073616d6520617320746865207573657220746f20676574207468652066696c65732066726f6d2e546865207472616e73616374696f6e2065786563757465722068617320746f206265206173736f6369617465642077697468207468652066696c652c20616e64207468652066696c652073686f756c6420626520696e20746865206163746976652073746174652ea2646970667358221220950bd0bf314a42534471404c02bedaa7316eaea250d753949f7657622968572464736f6c6343000813003360806040523480156200001157600080fd5b506040516200434038038062004340833981810160405281019062000037919062000124565b62000053675d0407e1a19a4dbd60c01b620000b760201b60201c565b6200006f674377f1335741409960c01b620000b760201b60201c565b80600260006101000a81548173ffffffffffffffffffffffffffffffffffffffff021916908373ffffffffffffffffffffffffffffffffffffffff1602179055505062000156565b50565b600080fd5b600073ffffffffffffffffffffffffffffffffffffffff82169050919050565b6000620000ec82620000bf565b9050919050565b620000fe81620000df565b81146200010a57600080fd5b50565b6000815190506200011e81620000f3565b92915050565b6000602082840312156200013d576200013c620000ba565b5b60006200014d848285016200010d565b91505092915050565b6141da80620001666000396000f3fe608060405234801561001057600080fd5b50600436106100a85760003560e01c806395f0f0bb1161007157806395f0f0bb146101895780639bccd6ad146101a5578063bfddc42f146101d5578063e8d56b8b146101f1578063f880680b1461020d578063fadc54f41461023d576100a8565b8062438ceb146100ad57806347eb6fa7146100dd57806352a9baef1461010d57806374546fdf1461013d578063922243ad14610159575b600080fd5b6100c760048036038101906100c29190613030565b61026d565b6040516100d4919061316a565b60405180910390f35b6100f760048036038101906100f2919061318c565b61038e565b60405161010491906133a4565b60405180910390f35b610127600480360381019061012291906133f2565b610b3c565b604051610134919061345d565b60405180910390f35b61015760048036038101906101529190613030565b610c7a565b005b610173600480360381019061016e9190613030565b610db3565b6040516101809190613591565b60405180910390f35b6101a3600480360381019061019e919061378d565b611326565b005b6101bf60048036038101906101ba9190613030565b61175a565b6040516101cc919061345d565b60405180910390f35b6101ef60048036038101906101ea9190613805565b6118b1565b005b61020b6004803603810190610206919061384e565b611c02565b005b61022760048036038101906102229190613030565b611dcf565b604051610234919061316a565b60405180910390f35b61025760048036038101906102529190613030565b61200a565b6040516102649190613994565b60405180910390f35b610275612de2565b6102896701f93d42f86cd95a60c01b612bfb565b61029d676105e5829e3bda1360c01b612bfb565b6102b167671d351c7a1af8b660c01b612bfb565b60405180606001604052806001151581526020016000846040516102d591906139f2565b908152602001604051809103902060070180546102f190613a38565b80601f016020809104026020016040519081016040528092919081815260200182805461031d90613a38565b801561036a5780601f1061033f5761010080835404028352916020019161036a565b820191906000526020600020905b81548152906001019060200180831161034d57829003601f168201915b50505050508152602001604051806020016040528060008152508152509050919050565b610396612e05565b6103aa67586464d1f470c49960c01b612bfb565b6103be679caaddd1b9c7c5b560c01b612bfb565b6103d26776b6f92071dd20f060c01b612bfb565b600080846040516103e391906139f2565b908152602001604051809103902060010180546103ff90613a38565b905011801561050557508160405160200161041a91906139f2565b6040516020818303038152906040528051906020012060008460405161044091906139f2565b90815260200160405180910390206007016040516020016104619190613b01565b604051602081830303815290604052805190602001201480156104945750610493677dd29b22264779e660c01b612bfe565b5b8061050457506040516020016104a990613b3e565b60405160208183030381529060405280519060200120826040516020016104d091906139f2565b60405160208183030381529060405280519060200120148015610503575061050267cdd176f1ddfaf63c60c01b612bfe565b5b5b5b15610a015761051e673021a5460b0ed1e760c01b612bfb565b610532679f2c9fb910c0ebcb60c01b612bfb565b6105466752c7874f8ddae3dc60c01b612bfb565b604051806060016040528060011515815260200160008560405161056a91906139f2565b90815260200160405180910390206040518061012001604052908160008201805461059490613a38565b80601f01602080910402602001604051908101604052809291908181526020018280546105c090613a38565b801561060d5780601f106105e25761010080835404028352916020019161060d565b820191906000526020600020905b8154815290600101906020018083116105f057829003601f168201915b5050505050815260200160018201805461062690613a38565b80601f016020809104026020016040519081016040528092919081815260200182805461065290613a38565b801561069f5780601f106106745761010080835404028352916020019161069f565b820191906000526020600020905b81548152906001019060200180831161068257829003601f168201915b50505050508152602001600282015481526020016003820180546106c290613a38565b80601f01602080910402602001604051908101604052809291908181526020018280546106ee90613a38565b801561073b5780601f106107105761010080835404028352916020019161073b565b820191906000526020600020905b81548152906001019060200180831161071e57829003601f168201915b505050505081526020016004820160009054906101000a900473ffffffffffffffffffffffffffffffffffffffff1673ffffffffffffffffffffffffffffffffffffffff1673ffffffffffffffffffffffffffffffffffffffff1681526020016005820180546107aa90613a38565b80601f01602080910402602001604051908101604052809291908181526020018280546107d690613a38565b80156108235780601f106107f857610100808354040283529160200191610823565b820191906000526020600020905b81548152906001019060200180831161080657829003601f168201915b5050505050815260200160068201805461083c90613a38565b80601f016020809104026020016040519081016040528092919081815260200182805461086890613a38565b80156108b55780601f1061088a576101008083540402835291602001916108b5565b820191906000526020600020905b81548152906001019060200180831161089857829003601f168201915b505050505081526020016007820180546108ce90613a38565b80601f01602080910402602001604051908101604052809291908181526020018280546108fa90613a38565b80156109475780601f1061091c57610100808354040283529160200191610947565b820191906000526020600020905b81548152906001019060200180831161092a57829003601f168201915b5050505050815260200160088201805461096090613a38565b80601f016020809104026020016040519081016040528092919081815260200182805461098c90613a38565b80156109d95780601f106109ae576101008083540402835291602001916109d9565b820191906000526020600020905b8154815290600101906020018083116109bc57829003601f168201915b5050505050815250508152602001604051806020016040528060008152508152509050610b36565b610a15673ec9822907b88fc260c01b612bfb565b610a2967577fe1c3db5ee03060c01b612bfb565b610a3d679b6fb4f00c349c1460c01b612bfb565b604051806060016040528060001515815260200160405180610120016040528060405180602001604052806000815250815260200160405180602001604052806000815250815260200160008152602001604051806020016040528060008152508152602001600073ffffffffffffffffffffffffffffffffffffffff1681526020016040518060200160405280600081525081526020016040518060200160405280600081525081526020016040518060200160405280600081525081526020016040518060200160405280600081525081525081526020016040518060800160405280604181526020016140dd6041913981525090505b92915050565b6000610b5267a1b4ca04eaabcab960c01b612bfb565b610b666778326ad1251d34d860c01b612bfb565b610b7a676e5b22faf8f15b1460c01b612bfb565b8273ffffffffffffffffffffffffffffffffffffffff16600083604051610ba191906139f2565b908152602001604051809103902060040160009054906101000a900473ffffffffffffffffffffffffffffffffffffffff1673ffffffffffffffffffffffffffffffffffffffff1603610c3357610c0267b36162fc7653d1c660c01b612bfb565b610c16670a0e4ab2306c3c7e60c01b612bfb565b610c2a67cacd6b8485d6ac2860c01b612bfb565b60019050610c74565b610c4767e2c84755ba40984f60c01b612bfb565b610c5b6754fc0511c8fd62b160c01b612bfb565b610c6f674fafa510f14a17c060c01b612bfb565b600090505b92915050565b610c8d66234b9d2019d8fd60c01b612bfb565b610ca167ca428636e06212ca60c01b612bfb565b610cb567bad147499f993edc60c01b612bfb565b600360009054906101000a900473ffffffffffffffffffffffffffffffffffffffff1673ffffffffffffffffffffffffffffffffffffffff163373ffffffffffffffffffffffffffffffffffffffff1603610d9b57610d1e6708c12de7afd5d57d60c01b612bfb565b610d32676cefaf2a6d3027c360c01b612bfb565b6040518060400160405280600881526020017f6465616374697665000000000000000000000000000000000000000000000000815250600082604051610d7891906139f2565b90815260200160405180910390206007019081610d959190613cf4565b50610db0565b610daf6783a2fb54bf0886db60c01b612bfb565b5b50565b610dbb612e2e565b610dcf676bfd9c1c0f006f8d60c01b612bfb565b610de367f0ff99421ceb5c5d60c01b612bfb565b610df767734c787fdb951fb260c01b612bfb565b600360009054906101000a900473ffffffffffffffffffffffffffffffffffffffff1673ffffffffffffffffffffffffffffffffffffffff163373ffffffffffffffffffffffffffffffffffffffff160361125e57610e606724928934ee88298f60c01b612bfb565b610e746707b1bb2937926a7360c01b612bfb565b610e88679e268fc25f5a139460c01b612bfb565b600060018054905067ffffffffffffffff811115610ea957610ea8612f05565b5b604051908082528060200260200182016040528015610edc57816020015b6060815260200190600190039081610ec75790505b509050610ef3679d450c4a5113e63960c01b612bfb565b610f0767aabaa702dc6aa62860c01b612bfb565b6000610f1d677c5bc950d4b1a6b360c01b612bfb565b610f31679ee80cadc3256b4b60c01b612bfb565b60005b6001805490508110156111e857610f5567bebf37a97fa506f560c01b612bfb565b610f69674936979bf3bbae5360c01b612bfb565b84604051602001610f7a91906139f2565b60405160208183030381529060405280519060200120600060018381548110610fa657610fa5613dc6565b5b90600052602060002001604051610fbd9190613b01565b9081526020016040518091039020600101604051602001610fde9190613b01565b60405160208183030381529060405280519060200120148015611087575060405160200161100b90613e41565b6040516020818303038152906040528051906020012060006001838154811061103757611036613dc6565b5b9060005260206000200160405161104e9190613b01565b908152602001604051809103902060070160405160200161106f9190613b01565b60405160208183030381529060405280519060200120145b156111c0576110a06760d3fc94e88d49dd60c01b612bfb565b6110b467bd156327bc4765d960c01b612bfb565b6000600182815481106110ca576110c9613dc6565b5b906000526020600020016040516110e19190613b01565b908152602001604051809103902060000180546110fd90613a38565b80601f016020809104026020016040519081016040528092919081815260200182805461112990613a38565b80156111765780601f1061114b57610100808354040283529160200191611176565b820191906000526020600020905b81548152906001019060200180831161115957829003601f168201915b505050505083838151811061118e5761118d613dc6565b5b60200260200101819052506111ad6785185986ea9544d560c01b612bfb565b81806111b890613e85565b9250506111d5565b6111d467a5aabe121156151560c01b612bfb565b5b80806111e090613e85565b915050610f34565b506111fd67d0f148f1d3e0846960c01b612bfb565b808252611214677b418405e9b3d1c860c01b612bfb565b61122867383076486325ea3760c01b612bfb565b60405180606001604052806001151581526020018381526020016040518060200160405280600081525081525092505050611321565b611272670ef4f62e9db21fc360c01b612bfb565b611286678d905695b521427260c01b612bfb565b61129a674f9f8d1b388d69d160c01b612bfb565b6040518060600160405280600015158152602001600067ffffffffffffffff8111156112c9576112c8612f05565b5b6040519080825280602002602001820160405280156112fc57816020015b60608152602001906001900390816112e75790505b5081526020016040518060800160405280604381526020016141626043913981525090505b919050565b61133a6785cdbb8dca514c4660c01b612bfb565b61134e6755183236ac4d5fc660c01b612bfb565b61136267eff10fc87c1144c960c01b612bfb565b600360009054906101000a900473ffffffffffffffffffffffffffffffffffffffff1673ffffffffffffffffffffffffffffffffffffffff163373ffffffffffffffffffffffffffffffffffffffff161480156113f25750816080015173ffffffffffffffffffffffffffffffffffffffff16826080015173ffffffffffffffffffffffffffffffffffffffff16145b801561142f5750600073ffffffffffffffffffffffffffffffffffffffff16826080015173ffffffffffffffffffffffffffffffffffffffff1614155b156117415761144867aabe89edaea5054160c01b612bfb565b61145c6741573259c3ac61b160c01b612bfb565b6040518060400160405280600681526020017f6564697465640000000000000000000000000000000000000000000000000000815250600083600001516040516114a691906139f2565b908152602001604051809103902060070190816114c39190613cf4565b506114d86752ebbb73190ab0f460c01b612bfb565b8160800151816080019073ffffffffffffffffffffffffffffffffffffffff16908173ffffffffffffffffffffffffffffffffffffffff168152505061152867b906127b9124f16f60c01b612bfb565b81600001518160600181905250611549672042d007a97415cb60c01b612bfb565b6001826040015161155a9190613ecd565b816040018181525050611577675d5527c372c374e160c01b612bfb565b6040518060400160405280600681526020017f61637469766500000000000000000000000000000000000000000000000000008152508160e001819052506115c96706fa63da521f03e260c01b612bfb565b80600082600001516040516115de91906139f2565b908152602001604051809103902060008201518160000190816116019190613cf4565b5060208201518160010190816116179190613cf4565b506040820151816002015560608201518160030190816116379190613cf4565b5060808201518160040160006101000a81548173ffffffffffffffffffffffffffffffffffffffff021916908373ffffffffffffffffffffffffffffffffffffffff16021790555060a08201518160050190816116949190613cf4565b5060c08201518160060190816116aa9190613cf4565b5060e08201518160070190816116c09190613cf4565b506101008201518160080190816116d79190613cf4565b509050506116ef679d58e3b07aa66e1460c01b612bfb565b611703676ae825afd2e7095260c01b612bfb565b6001816000015190806001815401808255809150506001900390600052602060002001600090919091909150908161173b9190613cf4565b50611756565b611755674646e886a40060ee60c01b612bfb565b5b5050565b600061177067ba6b7cbd7e1fc61660c01b612bfb565b6117846719d6ef34d9913d2860c01b612bfb565b6117976666e998c8fa4ce460c01b612bfb565b600080836040516117a891906139f2565b908152602001604051809103902060000180546117c490613a38565b9050141580156118215750600360009054906101000a900473ffffffffffffffffffffffffffffffffffffffff1673ffffffffffffffffffffffffffffffffffffffff163373ffffffffffffffffffffffffffffffffffffffff16145b1561186b5761183a67a02d768341c8a1c660c01b612bfb565b61184e677d382988fa6e697060c01b612bfb565b61186267d40cd3217c06fbc860c01b612bfb565b600190506118ac565b61187f67668472187ce748be60c01b612bfb565b61189367e370d389eb9278bb60c01b612bfb565b6118a76775e37b30722a1d7160c01b612bfb565b600090505b919050565b6118c567194c834323b0a4c060c01b612bfb565b6118d967257b411d1babda9f60c01b612bfb565b6118ed67ff3b6abdceafacaa60c01b612bfb565b600360009054906101000a900473ffffffffffffffffffffffffffffffffffffffff1673ffffffffffffffffffffffffffffffffffffffff163373ffffffffffffffffffffffffffffffffffffffff1603611bea5761195667eeec9334585374f260c01b612bfb565b61196a67e60a1cdf3915bf5e60c01b612bfb565b61197e67a15c8152d8efa61e60c01b612bfb565b61198781612c09565b15611bd0576119a0670b6b36d3c1b225c960c01b612bfb565b6119b467bf26be31dfcb564960c01b612bfb565b6040518060400160405280600681526020017f61637469766500000000000000000000000000000000000000000000000000008152508160e00181905250611a06671f8ec3c8975bbab260c01b612bfb565b6040518060400160405280600181526020017f30000000000000000000000000000000000000000000000000000000000000008152508160600181905250611a5867e532a53c079542de60c01b612bfb565b8060008260000151604051611a6d91906139f2565b90815260200160405180910390206000820151816000019081611a909190613cf4565b506020820151816001019081611aa69190613cf4565b50604082015181600201556060820151816003019081611ac69190613cf4565b5060808201518160040160006101000a81548173ffffffffffffffffffffffffffffffffffffffff021916908373ffffffffffffffffffffffffffffffffffffffff16021790555060a0820151816005019081611b239190613cf4565b5060c0820151816006019081611b399190613cf4565b5060e0820151816007019081611b4f9190613cf4565b50610100820151816008019081611b669190613cf4565b50905050611b7e67379944d49db53d0960c01b612bfb565b611b9267bdbb2acfaff9132360c01b612bfb565b60018160000151908060018154018082558091505060019003906000526020600020016000909190919091509081611bca9190613cf4565b50611be5565b611be4670267286d259b26ec60c01b612bfb565b5b611bff565b611bfe671cd0a2b5e2ecdc7b60c01b612bfb565b5b50565b611c1667efe4e61c12f6929e60c01b612bfb565b611c2a67958a872f40793cb660c01b612bfb565b611c3e67eb1fc842802c278460c01b612bfb565b600073ffffffffffffffffffffffffffffffffffffffff168173ffffffffffffffffffffffffffffffffffffffff1614158015611cc95750600073ffffffffffffffffffffffffffffffffffffffff16600360009054906101000a900473ffffffffffffffffffffffffffffffffffffffff1673ffffffffffffffffffffffffffffffffffffffff16145b8015611d445750600360009054906101000a900473ffffffffffffffffffffffffffffffffffffffff1673ffffffffffffffffffffffffffffffffffffffff16600360009054906101000a900473ffffffffffffffffffffffffffffffffffffffff1673ffffffffffffffffffffffffffffffffffffffff16145b15611db757611d5d6722322f1e0c8621f660c01b612bfb565b611d7167def3a28aad6fffb460c01b612bfb565b80600360006101000a81548173ffffffffffffffffffffffffffffffffffffffff021916908373ffffffffffffffffffffffffffffffffffffffff160217905550611dcc565b611dcb6701becd9ce716169260c01b612bfb565b5b50565b611dd7612de2565b611deb673583191718fdee3060c01b612bfb565b611dff67a4e3c6cb71af8bde60c01b612bfb565b611e136717ea7cd85c0193e060c01b612bfb565b600360009054906101000a900473ffffffffffffffffffffffffffffffffffffffff1673ffffffffffffffffffffffffffffffffffffffff163373ffffffffffffffffffffffffffffffffffffffff1603611f8157611e7c6783f194bd6536701660c01b612bfb565b611e9067b38ba8fa6a11908560c01b612bfb565b611ea4675f3f1bfac38bcd3360c01b612bfb565b6040518060600160405280600115158152602001600084604051611ec891906139f2565b90815260200160405180910390206008018054611ee490613a38565b80601f0160208091040260200160405190810160405280929190818152602001828054611f1090613a38565b8015611f5d5780601f10611f3257610100808354040283529160200191611f5d565b820191906000526020600020905b815481529060010190602001808311611f4057829003601f168201915b50505050508152602001604051806020016040528060008152508152509050612005565b611f95674805d738bf8ffce060c01b612bfb565b611fa9673c2b17ee6e3fdcd260c01b612bfb565b611fbd67304c59043fe300e660c01b612bfb565b604051806060016040528060001515815260200160405180602001604052806000815250815260200160405180608001604052806044815260200161411e6044913981525090505b919050565b612012612e51565b612026671314fb00979ae7a860c01b612bfb565b61203a6755f23e7266dd722560c01b612bfb565b61204e677416a7ebf0e23ef060c01b612bfb565b600060018054905067ffffffffffffffff81111561206f5761206e612f05565b5b6040519080825280602002602001820160405280156120a857816020015b612095612e74565b81526020019060019003908161208d5790505b5090506120bf67d35fcf35cdeb091760c01b612bfb565b6120d367e53b7f4fdccaaaa360c01b612bfb565b600080846040516120e491906139f2565b90815260200160405180910390206040518061012001604052908160008201805461210e90613a38565b80601f016020809104026020016040519081016040528092919081815260200182805461213a90613a38565b80156121875780601f1061215c57610100808354040283529160200191612187565b820191906000526020600020905b81548152906001019060200180831161216a57829003601f168201915b505050505081526020016001820180546121a090613a38565b80601f01602080910402602001604051908101604052809291908181526020018280546121cc90613a38565b80156122195780601f106121ee57610100808354040283529160200191612219565b820191906000526020600020905b8154815290600101906020018083116121fc57829003601f168201915b505050505081526020016002820154815260200160038201805461223c90613a38565b80601f016020809104026020016040519081016040528092919081815260200182805461226890613a38565b80156122b55780601f1061228a576101008083540402835291602001916122b5565b820191906000526020600020905b81548152906001019060200180831161229857829003601f168201915b505050505081526020016004820160009054906101000a900473ffffffffffffffffffffffffffffffffffffffff1673ffffffffffffffffffffffffffffffffffffffff1673ffffffffffffffffffffffffffffffffffffffff16815260200160058201805461232490613a38565b80601f016020809104026020016040519081016040528092919081815260200182805461235090613a38565b801561239d5780601f106123725761010080835404028352916020019161239d565b820191906000526020600020905b81548152906001019060200180831161238057829003601f168201915b505050505081526020016006820180546123b690613a38565b80601f01602080910402602001604051908101604052809291908181526020018280546123e290613a38565b801561242f5780601f106124045761010080835404028352916020019161242f565b820191906000526020600020905b81548152906001019060200180831161241257829003601f168201915b5050505050815260200160078201805461244890613a38565b80601f016020809104026020016040519081016040528092919081815260200182805461247490613a38565b80156124c15780601f10612496576101008083540402835291602001916124c1565b820191906000526020600020905b8154815290600101906020018083116124a457829003601f168201915b505050505081526020016008820180546124da90613a38565b80601f016020809104026020016040519081016040528092919081815260200182805461250690613a38565b80156125535780601f1061252857610100808354040283529160200191612553565b820191906000526020600020905b81548152906001019060200180831161253657829003601f168201915b505050505081525050905061257267d9efc789e9c84e1f60c01b612bfb565b6125866783d923070ed1e54f60c01b612bfb565b600061259c67e5009b103ad9f1c760c01b612bfb565b6125b067e4552d6a6a24365660c01b612bfb565b5b6040516020016125c090613f5d565b6040516020818303038152906040528051906020012082606001516040516020016125eb91906139f2565b6040516020818303038152906040528051906020012014612b305761261a673121114d8cd916a060c01b612bfb565b8183828151811061262e5761262d613dc6565b5b602002602001018190525061264d67aa054e00f7ac75c060c01b612bfb565b808061265890613e85565b91505061266f67ca93853436d2f50b60c01b612bfb565b61268367b991202b853a5d5160c01b612bfb565b6000826060015190506126a06705e4261f0fcf7a6860c01b612bfb565b6000816040516126b091906139f2565b9081526020016040518091039020604051806101200160405290816000820180546126da90613a38565b80601f016020809104026020016040519081016040528092919081815260200182805461270690613a38565b80156127535780601f1061272857610100808354040283529160200191612753565b820191906000526020600020905b81548152906001019060200180831161273657829003601f168201915b5050505050815260200160018201805461276c90613a38565b80601f016020809104026020016040519081016040528092919081815260200182805461279890613a38565b80156127e55780601f106127ba576101008083540402835291602001916127e5565b820191906000526020600020905b8154815290600101906020018083116127c857829003601f168201915b505050505081526020016002820154815260200160038201805461280890613a38565b80601f016020809104026020016040519081016040528092919081815260200182805461283490613a38565b80156128815780601f1061285657610100808354040283529160200191612881565b820191906000526020600020905b81548152906001019060200180831161286457829003601f168201915b505050505081526020016004820160009054906101000a900473ffffffffffffffffffffffffffffffffffffffff1673ffffffffffffffffffffffffffffffffffffffff1673ffffffffffffffffffffffffffffffffffffffff1681526020016005820180546128f090613a38565b80601f016020809104026020016040519081016040528092919081815260200182805461291c90613a38565b80156129695780601f1061293e57610100808354040283529160200191612969565b820191906000526020600020905b81548152906001019060200180831161294c57829003601f168201915b5050505050815260200160068201805461298290613a38565b80601f01602080910402602001604051908101604052809291908181526020018280546129ae90613a38565b80156129fb5780601f106129d0576101008083540402835291602001916129fb565b820191906000526020600020905b8154815290600101906020018083116129de57829003601f168201915b50505050508152602001600782018054612a1490613a38565b80601f0160208091040260200160405190810160405280929190818152602001828054612a4090613a38565b8015612a8d5780601f10612a6257610100808354040283529160200191612a8d565b820191906000526020600020905b815481529060010190602001808311612a7057829003601f168201915b50505050508152602001600882018054612aa690613a38565b80601f0160208091040260200160405190810160405280929190818152602001828054612ad290613a38565b8015612b1f5780601f10612af457610100808354040283529160200191612b1f565b820191906000526020600020905b815481529060010190602001808311612b0257829003601f168201915b5050505050815250509250506125b1565b612b4467244f10c6e138059b60c01b612bfb565b81838281518110612b5857612b57613dc6565b5b6020026020010181905250612b77673802608acc94756660c01b612bfb565b8080612b8290613e85565b915050612b9967eb3b261043566e3c60c01b612bfb565b808352612bb067d9c3c15ebe0ba4f560c01b612bfb565b612bc467c214e75a1ac48d6160c01b612bfb565b6040518060600160405280600115158152602001848152602001604051806020016040528060008152508152509350505050919050565b50565b600060019050919050565b6000612c1f67717bef79522d4c0f60c01b612bfb565b612c3367205a1995dedb839560c01b612bfb565b612c4767f72bf2b77419280660c01b612bfb565b612c54826000015161175a565b158015612cf95750600260009054906101000a900473ffffffffffffffffffffffffffffffffffffffff1673ffffffffffffffffffffffffffffffffffffffff16634294a5ad836040518263ffffffff1660e01b8152600401612cb79190614061565b602060405180830381865afa158015612cd4573d6000803e3d6000fd5b505050506040513d601f19601f82011682018060405250810190612cf891906140af565b5b8015612d525750600360009054906101000a900473ffffffffffffffffffffffffffffffffffffffff1673ffffffffffffffffffffffffffffffffffffffff163373ffffffffffffffffffffffffffffffffffffffff16145b15612d9c57612d6b671a7e8844fb68a99360c01b612bfb565b612d7f67d14bb251278fbcfd60c01b612bfb565b612d9367d0e55116b80e59bf60c01b612bfb565b60019050612ddd565b612db06705d40533785db7fe60c01b612bfb565b612dc467197eaabff4def7f360c01b612bfb565b612dd8677fa436df022c0db960c01b612bfb565b600090505b919050565b604051806060016040528060001515815260200160608152602001606081525090565b6040518060600160405280600015158152602001612e21612e74565b8152602001606081525090565b604051806060016040528060001515815260200160608152602001606081525090565b604051806060016040528060001515815260200160608152602001606081525090565b60405180610120016040528060608152602001606081526020016000815260200160608152602001600073ffffffffffffffffffffffffffffffffffffffff168152602001606081526020016060815260200160608152602001606081525090565b6000604051905090565b600080fd5b600080fd5b600080fd5b600080fd5b6000601f19601f8301169050919050565b7f4e487b7100000000000000000000000000000000000000000000000000000000600052604160045260246000fd5b612f3d82612ef4565b810181811067ffffffffffffffff82111715612f5c57612f5b612f05565b5b80604052505050565b6000612f6f612ed6565b9050612f7b8282612f34565b919050565b600067ffffffffffffffff821115612f9b57612f9a612f05565b5b612fa482612ef4565b9050602081019050919050565b82818337600083830152505050565b6000612fd3612fce84612f80565b612f65565b905082815260208101848484011115612fef57612fee612eef565b5b612ffa848285612fb1565b509392505050565b600082601f83011261301757613016612eea565b5b8135613027848260208601612fc0565b91505092915050565b60006020828403121561304657613045612ee0565b5b600082013567ffffffffffffffff81111561306457613063612ee5565b5b61307084828501613002565b91505092915050565b60008115159050919050565b61308e81613079565b82525050565b600081519050919050565b600082825260208201905092915050565b60005b838110156130ce5780820151818401526020810190506130b3565b60008484015250505050565b60006130e582613094565b6130ef818561309f565b93506130ff8185602086016130b0565b61310881612ef4565b840191505092915050565b600060608301600083015161312b6000860182613085565b506020830151848203602086015261314382826130da565b9150506040830151848203604086015261315d82826130da565b9150508091505092915050565b600060208201905081810360008301526131848184613113565b905092915050565b600080604083850312156131a3576131a2612ee0565b5b600083013567ffffffffffffffff8111156131c1576131c0612ee5565b5b6131cd85828601613002565b925050602083013567ffffffffffffffff8111156131ee576131ed612ee5565b5b6131fa85828601613002565b9150509250929050565b6000819050919050565b61321781613204565b82525050565b600073ffffffffffffffffffffffffffffffffffffffff82169050919050565b60006132488261321d565b9050919050565b6132588161323d565b82525050565b600061012083016000830151848203600086015261327c82826130da565b9150506020830151848203602086015261329682826130da565b91505060408301516132ab604086018261320e565b50606083015184820360608601526132c382826130da565b91505060808301516132d8608086018261324f565b5060a083015184820360a08601526132f082826130da565b91505060c083015184820360c086015261330a82826130da565b91505060e083015184820360e086015261332482826130da565b91505061010083015184820361010086015261334082826130da565b9150508091505092915050565b60006060830160008301516133656000860182613085565b506020830151848203602086015261337d828261325e565b9150506040830151848203604086015261339782826130da565b9150508091505092915050565b600060208201905081810360008301526133be818461334d565b905092915050565b6133cf8161323d565b81146133da57600080fd5b50565b6000813590506133ec816133c6565b92915050565b6000806040838503121561340957613408612ee0565b5b6000613417858286016133dd565b925050602083013567ffffffffffffffff81111561343857613437612ee5565b5b61344485828601613002565b9150509250929050565b61345781613079565b82525050565b6000602082019050613472600083018461344e565b92915050565b600081519050919050565b600082825260208201905092915050565b6000819050602082019050919050565b60006134b083836130da565b905092915050565b6000602082019050919050565b60006134d082613478565b6134da8185613483565b9350836020820285016134ec85613494565b8060005b85811015613528578484038952815161350985826134a4565b9450613514836134b8565b925060208a019950506001810190506134f0565b50829750879550505050505092915050565b60006060830160008301516135526000860182613085565b506020830151848203602086015261356a82826134c5565b9150506040830151848203604086015261358482826130da565b9150508091505092915050565b600060208201905081810360008301526135ab818461353a565b905092915050565b600080fd5b600080fd5b6135c681613204565b81146135d157600080fd5b50565b6000813590506135e3816135bd565b92915050565b60006101208284031215613600576135ff6135b3565b5b61360b610120612f65565b9050600082013567ffffffffffffffff81111561362b5761362a6135b8565b5b61363784828501613002565b600083015250602082013567ffffffffffffffff81111561365b5761365a6135b8565b5b61366784828501613002565b602083015250604061367b848285016135d4565b604083015250606082013567ffffffffffffffff81111561369f5761369e6135b8565b5b6136ab84828501613002565b60608301525060806136bf848285016133dd565b60808301525060a082013567ffffffffffffffff8111156136e3576136e26135b8565b5b6136ef84828501613002565b60a08301525060c082013567ffffffffffffffff811115613713576137126135b8565b5b61371f84828501613002565b60c08301525060e082013567ffffffffffffffff811115613743576137426135b8565b5b61374f84828501613002565b60e08301525061010082013567ffffffffffffffff811115613774576137736135b8565b5b61378084828501613002565b6101008301525092915050565b600080604083850312156137a4576137a3612ee0565b5b600083013567ffffffffffffffff8111156137c2576137c1612ee5565b5b6137ce858286016135e9565b925050602083013567ffffffffffffffff8111156137ef576137ee612ee5565b5b6137fb858286016135e9565b9150509250929050565b60006020828403121561381b5761381a612ee0565b5b600082013567ffffffffffffffff81111561383957613838612ee5565b5b613845848285016135e9565b91505092915050565b60006020828403121561386457613863612ee0565b5b6000613872848285016133dd565b91505092915050565b600081519050919050565b600082825260208201905092915050565b6000819050602082019050919050565b60006138b3838361325e565b905092915050565b6000602082019050919050565b60006138d38261387b565b6138dd8185613886565b9350836020820285016138ef85613897565b8060005b8581101561392b578484038952815161390c85826138a7565b9450613917836138bb565b925060208a019950506001810190506138f3565b50829750879550505050505092915050565b60006060830160008301516139556000860182613085565b506020830151848203602086015261396d82826138c8565b9150506040830151848203604086015261398782826130da565b9150508091505092915050565b600060208201905081810360008301526139ae818461393d565b905092915050565b600081905092915050565b60006139cc82613094565b6139d681856139b6565b93506139e68185602086016130b0565b80840191505092915050565b60006139fe82846139c1565b915081905092915050565b7f4e487b7100000000000000000000000000000000000000000000000000000000600052602260045260246000fd5b60006002820490506001821680613a5057607f821691505b602082108103613a6357613a62613a09565b5b50919050565b60008190508160005260206000209050919050565b60008154613a8b81613a38565b613a9581866139b6565b94506001821660008114613ab05760018114613ac557613af8565b60ff1983168652811515820286019350613af8565b613ace85613a69565b60005b83811015613af057815481890152600182019150602081019050613ad1565b838801955050505b50505092915050565b6000613b0d8284613a7e565b915081905092915050565b50565b6000613b286000836139b6565b9150613b3382613b18565b600082019050919050565b6000613b4982613b1b565b9150819050919050565b60006020601f8301049050919050565b600082821b905092915050565b600060088302613ba07fffffffffffffffffffffffffffffffffffffffffffffffffffffffffffffffff82613b63565b613baa8683613b63565b95508019841693508086168417925050509392505050565b6000819050919050565b6000819050919050565b6000613bf1613bec613be784613bc2565b613bcc565b613bc2565b9050919050565b6000819050919050565b613c0b83613bd6565b613c1f613c1782613bf8565b848454613b70565b825550505050565b600090565b613c34613c27565b613c3f818484613c02565b505050565b5b81811015613c6357613c58600082613c2c565b600181019050613c45565b5050565b601f821115613ca857613c7981613a69565b613c8284613b53565b81016020851015613c91578190505b613ca5613c9d85613b53565b830182613c44565b50505b505050565b600082821c905092915050565b6000613ccb60001984600802613cad565b1980831691505092915050565b6000613ce48383613cba565b9150826002028217905092915050565b613cfd82613094565b67ffffffffffffffff811115613d1657613d15612f05565b5b613d208254613a38565b613d2b828285613c67565b600060209050601f831160018114613d5e5760008415613d4c578287015190505b613d568582613cd8565b865550613dbe565b601f198416613d6c86613a69565b60005b82811015613d9457848901518255600182019150602085019450602081019050613d6f565b86831015613db15784890151613dad601f891682613cba565b8355505b6001600288020188555050505b505050505050565b7f4e487b7100000000000000000000000000000000000000000000000000000000600052603260045260246000fd5b7f6163746976650000000000000000000000000000000000000000000000000000600082015250565b6000613e2b6006836139b6565b9150613e3682613df5565b600682019050919050565b6000613e4c82613e1e565b9150819050919050565b7f4e487b7100000000000000000000000000000000000000000000000000000000600052601160045260246000fd5b6000613e9082613bc2565b91507fffffffffffffffffffffffffffffffffffffffffffffffffffffffffffffffff8203613ec257613ec1613e56565b5b600182019050919050565b6000613ed882613204565b9150613ee383613204565b925082820190508281121560008312168382126000841215161715613f0b57613f0a613e56565b5b92915050565b7f3000000000000000000000000000000000000000000000000000000000000000600082015250565b6000613f476001836139b6565b9150613f5282613f11565b600182019050919050565b6000613f6882613f3a565b9150819050919050565b6000610120830160008301518482036000860152613f9082826130da565b91505060208301518482036020860152613faa82826130da565b9150506040830151613fbf604086018261320e565b5060608301518482036060860152613fd782826130da565b9150506080830151613fec608086018261324f565b5060a083015184820360a086015261400482826130da565b91505060c083015184820360c086015261401e82826130da565b91505060e083015184820360e086015261403882826130da565b91505061010083015184820361010086015261405482826130da565b9150508091505092915050565b6000602082019050818103600083015261407b8184613f72565b905092915050565b61408c81613079565b811461409757600080fd5b50565b6000815190506140a981614083565b92915050565b6000602082840312156140c5576140c4612ee0565b5b60006140d38482850161409a565b9150509291505056fe54687265206973206e6f2066696c652c20696e2074686520676976656e2073746174652c2074686174206861732074686520676976656e2049504653204349442e546865207472616e73616374696f6e2065786563757465722063616e206f6e6c792062652074686520416363657373436f6e74726f6c2e736f6c20636f6e74726163742e4f6e6c792074686520416363657373436f6e74726f6c2e736f6c20636f6e74726163742069732061626c6520746f20657865637574652074686973206d6574686f642ea2646970667358221220db8c23c8052943e6690c4e67cf8aea5796a67191e3425cf271fe48838e12139164736f6c6343000813003360806040523480156200001157600080fd5b506040516200291938038062002919833981810160405281019062000037919062000124565b62000053672381bb8916ac41d260c01b620000b760201b60201c565b6200006f6782ce976426c94c8960c01b620000b760201b60201c565b80600360006101000a81548173ffffffffffffffffffffffffffffffffffffffff021916908373ffffffffffffffffffffffffffffffffffffffff1602179055505062000156565b50565b600080fd5b600073ffffffffffffffffffffffffffffffffffffffff82169050919050565b6000620000ec82620000bf565b9050919050565b620000fe81620000df565b81146200010a57600080fd5b50565b6000815190506200011e81620000f3565b92915050565b6000602082840312156200013d576200013c620000ba565b5b60006200014d848285016200010d565b91505092915050565b6127b380620001666000396000f3fe608060405234801561001057600080fd5b506004361061009e5760003560e01c80638d060a9e116100665780638d060a9e1461016d578063a240e42614610189578063b0c22a56146101b9578063eeb9ab18146101e9578063f14ab0e0146102195761009e565b80630d310723146100a357806367156cf1146100c15780636f77926b146100f157806375e9493f14610121578063857cdbb81461013d575b600080fd5b6100ab610249565b6040516100b89190611a6b565b60405180910390f35b6100db60048036038101906100d69190611ac6565b6102af565b6040516100e89190611bf5565b60405180910390f35b61010b60048036038101906101069190611ac6565b61054a565b6040516101189190611cee565b60405180910390f35b61013b60048036038101906101369190611f1b565b610a4e565b005b61015760048036038101906101529190611ac6565b610e95565b6040516101649190611bf5565b60405180910390f35b61018760048036038101906101829190611ac6565b611130565b005b6101a3600480360381019061019e9190611ac6565b61119c565b6040516101b09190611f73565b60405180910390f35b6101d360048036038101906101ce9190611f8e565b6112fa565b6040516101e09190611f73565b60405180910390f35b61020360048036038101906101fe9190611f8e565b61136b565b6040516102109190612027565b60405180910390f35b610233600480360381019061022e9190612049565b61153d565b6040516102409190611f73565b60405180910390f35b600061025f6746989b748cd0ca0f60c01b611723565b61027367610f55ba24300f0c60c01b611723565b61028767ccc427116b7a0d9660c01b611723565b600460009054906101000a900473ffffffffffffffffffffffffffffffffffffffff16905090565b6102b7611967565b6102cb6787232e70623458ae60c01b611723565b6102df673ee2eedb025fb77f60c01b611723565b6102f36744d3d0b858a0c41960c01b611723565b600073ffffffffffffffffffffffffffffffffffffffff166000808473ffffffffffffffffffffffffffffffffffffffff1673ffffffffffffffffffffffffffffffffffffffff16815260200190815260200160002060000160009054906101000a900473ffffffffffffffffffffffffffffffffffffffff1673ffffffffffffffffffffffffffffffffffffffff16146104c15761039c6775dcc17959b513d660c01b611723565b6103b067d9618dfe8e9ab1c560c01b611723565b6103c4671ffc1384bd855c0960c01b611723565b60405180606001604052806001151581526020016000808573ffffffffffffffffffffffffffffffffffffffff1673ffffffffffffffffffffffffffffffffffffffff1681526020019081526020016000206001018054610424906120d4565b80601f0160208091040260200160405190810160405280929190818152602001828054610450906120d4565b801561049d5780601f106104725761010080835404028352916020019161049d565b820191906000526020600020905b81548152906001019060200180831161048057829003601f168201915b50505050508152602001604051806020016040528060008152508152509050610545565b6104d567c7ffb4d1ef7f9f6d60c01b611723565b6104e9672a729c062854272b60c01b611723565b6104fd67acdb9438eb2dbcb960c01b611723565b604051806060016040528060001515815260200160405180602001604052806000815250815260200160405180606001604052806028815260200161272d6028913981525090505b919050565b61055261198a565b610566679eccd78c846a943560c01b611723565b61057a6746a820b4f31d092c60c01b611723565b61058e6771753d69b5474ec960c01b611723565b3373ffffffffffffffffffffffffffffffffffffffff168273ffffffffffffffffffffffffffffffffffffffff160361096f576105d56737207bdb28a7dd4360c01b611723565b6105e967695797e575f78c9560c01b611723565b6105fd6796790513039a86b960c01b611723565b600073ffffffffffffffffffffffffffffffffffffffff166000808473ffffffffffffffffffffffffffffffffffffffff1673ffffffffffffffffffffffffffffffffffffffff16815260200190815260200160002060000160009054906101000a900473ffffffffffffffffffffffffffffffffffffffff1673ffffffffffffffffffffffffffffffffffffffff1614610956576106a6670b96475873c367c060c01b611723565b6106ba6701c0eca2ca1cba2d60c01b611723565b6106ce67f38423398932d05960c01b611723565b60405180606001604052806001151581526020016000808573ffffffffffffffffffffffffffffffffffffffff1673ffffffffffffffffffffffffffffffffffffffff1681526020019081526020016000206040518060800160405290816000820160009054906101000a900473ffffffffffffffffffffffffffffffffffffffff1673ffffffffffffffffffffffffffffffffffffffff1673ffffffffffffffffffffffffffffffffffffffff168152602001600182018054610791906120d4565b80601f01602080910402602001604051908101604052809291908181526020018280546107bd906120d4565b801561080a5780601f106107df5761010080835404028352916020019161080a565b820191906000526020600020905b8154815290600101906020018083116107ed57829003601f168201915b50505050508152602001600282018054610823906120d4565b80601f016020809104026020016040519081016040528092919081815260200182805461084f906120d4565b801561089c5780601f106108715761010080835404028352916020019161089c565b820191906000526020600020905b81548152906001019060200180831161087f57829003601f168201915b505050505081526020016003820180546108b5906120d4565b80601f01602080910402602001604051908101604052809291908181526020018280546108e1906120d4565b801561092e5780601f106109035761010080835404028352916020019161092e565b820191906000526020600020905b81548152906001019060200180831161091157829003601f168201915b5050505050815250508152602001604051806020016040528060008152508152509050610a49565b61096a679a90ee315339680160c01b611723565b610984565b61098367f4ac6c85a0aff11960c01b611723565b5b610998672e352377c0b81c1060c01b611723565b6109ac675b92a5b4aba5453360c01b611723565b60405180606001604052806000151581526020016040518060800160405280600073ffffffffffffffffffffffffffffffffffffffff1681526020016040518060200160405280600081525081526020016040518060200160405280600081525081526020016040518060200160405280600081525081525081526020016040518060a001604052806079815260200161268c6079913981525090505b919050565b610a626766492ad8208eec7560c01b611723565b610a76678e51c5d25c9717e660c01b611723565b610a8a676cb51009960af85160c01b611723565b3373ffffffffffffffffffffffffffffffffffffffff16600460009054906101000a900473ffffffffffffffffffffffffffffffffffffffff1673ffffffffffffffffffffffffffffffffffffffff1603610e7d57610af367c51b757a10f1620960c01b611723565b610b0767799e2338efd5bd0b60c01b611723565b610b1b6731925768ea873dcb60c01b611723565b610b2481611726565b15610e6357610b3d67cc484ccda138bfb060c01b611723565b610b5167c97ddf3d690af95d60c01b611723565b6040518060800160405280826000015173ffffffffffffffffffffffffffffffffffffffff168152602001600360009054906101000a900473ffffffffffffffffffffffffffffffffffffffff1673ffffffffffffffffffffffffffffffffffffffff16639416b42384602001516040518263ffffffff1660e01b8152600401610bdb919061214f565b600060405180830381865afa158015610bf8573d6000803e3d6000fd5b505050506040513d6000823e3d601f19601f82011682018060405250810190610c2191906121e1565b8152602001826040015181526020018260600151815250600080836000015173ffffffffffffffffffffffffffffffffffffffff1673ffffffffffffffffffffffffffffffffffffffff16815260200190815260200160002060008201518160000160006101000a81548173ffffffffffffffffffffffffffffffffffffffff021916908373ffffffffffffffffffffffffffffffffffffffff1602179055506020820151816001019081610cd691906123e0565b506040820151816002019081610cec91906123e0565b506060820151816003019081610d0291906123e0565b50905050610d1a67556878ddf26b2a7d60c01b611723565b6040518060800160405280826000015173ffffffffffffffffffffffffffffffffffffffff1681526020018260200151815260200182604001518152602001826060015181525060018260200151604051610d7591906124ee565b908152602001604051809103902060008201518160000160006101000a81548173ffffffffffffffffffffffffffffffffffffffff021916908373ffffffffffffffffffffffffffffffffffffffff1602179055506020820151816001019081610ddf91906123e0565b506040820151816002019081610df591906123e0565b506060820151816003019081610e0b91906123e0565b50905050610e23674b1d87e438c8fb1a60c01b611723565b600160028260200151604051610e3991906124ee565b908152602001604051809103902060006101000a81548160ff021916908315150217905550610e78565b610e7767f105c12e70d3e1e460c01b611723565b5b610e92565b610e9167c3eb738eadaee7ea60c01b611723565b5b50565b610e9d611967565b610eb167f261bb533af0f8d760c01b611723565b610ec567e1579930393e451f60c01b611723565b610ed9679c4a2a4179faca5b60c01b611723565b600073ffffffffffffffffffffffffffffffffffffffff166000808473ffffffffffffffffffffffffffffffffffffffff1673ffffffffffffffffffffffffffffffffffffffff16815260200190815260200160002060000160009054906101000a900473ffffffffffffffffffffffffffffffffffffffff1673ffffffffffffffffffffffffffffffffffffffff16146110a757610f8267fe4d4edf4e1105a860c01b611723565b610f9667aaf06c7c0f0a906e60c01b611723565b610faa67912b6410bb28d27760c01b611723565b60405180606001604052806001151581526020016000808573ffffffffffffffffffffffffffffffffffffffff1673ffffffffffffffffffffffffffffffffffffffff168152602001908152602001600020600301805461100a906120d4565b80601f0160208091040260200160405190810160405280929190818152602001828054611036906120d4565b80156110835780601f1061105857610100808354040283529160200191611083565b820191906000526020600020905b81548152906001019060200180831161106657829003601f168201915b5050505050815260200160405180602001604052806000815250815250905061112b565b6110bb672d486bce8a8009bc60c01b611723565b6110cf67c3e26d601362b7b860c01b611723565b6110e367f4ffb20546e2ab6760c01b611723565b60405180606001604052806000151581526020016040518060200160405280600081525081526020016040518060600160405280602881526020016127056028913981525090505b919050565b61114467be35ea3e369448dd60c01b611723565b61115867deced71b6ce14d1560c01b611723565b80600460006101000a81548173ffffffffffffffffffffffffffffffffffffffff021916908373ffffffffffffffffffffffffffffffffffffffff16021790555050565b60006111b267854d15113773a85c60c01b611723565b6111c6677de7bcc022ff011560c01b611723565b6111da67487b99b57f50424260c01b611723565b600073ffffffffffffffffffffffffffffffffffffffff166000808473ffffffffffffffffffffffffffffffffffffffff1673ffffffffffffffffffffffffffffffffffffffff16815260200190815260200160002060000160009054906101000a900473ffffffffffffffffffffffffffffffffffffffff1673ffffffffffffffffffffffffffffffffffffffff16146112b45761128367f07a535b229b0ce360c01b611723565b611297671975ae7b51c2bb8c60c01b611723565b6112ab67e9aaddb3dd47066160c01b611723565b600190506112f5565b6112c867e98bb11a7e0c1b7c60c01b611723565b6112dc679d2e64a1462d28d960c01b611723565b6112f067cd6cf468daf3813160c01b611723565b600090505b919050565b600061131067a731e320558c26de60c01b611723565b6113246792723a0068d0965c60c01b611723565b61133867b67e7206d446be5b60c01b611723565b60028260405161134891906124ee565b908152602001604051809103902060009054906101000a900460ff169050919050565b6113736119b3565b6113876798159de53166725d60c01b611723565b61139b6714ea38173b928fa160c01b611723565b6113af6735c875e4a011b19a60c01b611723565b60006001836040516113c191906124ee565b908152602001604051809103902060010180546113dd906120d4565b905011156114ac576113f9671a0f30556659a95860c01b611723565b61140d6706dfce76cd97502b60c01b611723565b6114216798a35126cfa515bc60c01b611723565b604051806060016040528060011515815260200160018460405161144591906124ee565b908152602001604051809103902060000160009054906101000a900473ffffffffffffffffffffffffffffffffffffffff1673ffffffffffffffffffffffffffffffffffffffff168152602001604051806020016040528060008152508152509050611538565b6114c0671c89e85e1a9b220b60c01b611723565b6114d467493da8522fddd59560c01b611723565b6114e8672d965e71c3eff3df60c01b611723565b6040518060600160405280600015158152602001600073ffffffffffffffffffffffffffffffffffffffff1681526020016040518060600160405280602981526020016127556029913981525090505b919050565b600061155367e0fb8a25454abd8d60c01b611723565b6115676781c174076e1157ba60c01b611723565b61157b67952ca83a9427a22960c01b611723565b3373ffffffffffffffffffffffffffffffffffffffff168273ffffffffffffffffffffffffffffffffffffffff16036116db576115c2670c0fe956b3c68a5960c01b611723565b6115d667f1f55cc317bfdb9660c01b611723565b6115ea67ccef6d8cbc9709a660c01b611723565b826040516020016115fb91906124ee565b604051602081830303815290604052805190602001206000808473ffffffffffffffffffffffffffffffffffffffff1673ffffffffffffffffffffffffffffffffffffffff1681526020019081526020016000206002016040516020016116629190612588565b60405160208183030381529060405280519060200120036116c257611691679460cf338a4b62ea60c01b611723565b6116a567a6fdc61336639a2f60c01b611723565b6116b967c083c9d7e0b7106160c01b611723565b6001905061171d565b6116d66793ef268e50cd040c60c01b611723565b6116f0565b6116ef67f6014e8f4958829660c01b611723565b5b61170467fc3a8ccbd4e113af60c01b611723565b61171867b19865b90b2d662460c01b611723565b600090505b92915050565b50565b600061173c67df943e7e46aba5b760c01b611723565b6117506743797b3c7d9a8fec60c01b611723565b61176467af952caca07cd97c60c01b611723565b3373ffffffffffffffffffffffffffffffffffffffff16600460009054906101000a900473ffffffffffffffffffffffffffffffffffffffff1673ffffffffffffffffffffffffffffffffffffffff1603611920576117cd670adf19d9f889fcbd60c01b611723565b6117e167f1070a258d45578460c01b611723565b6117f567c09258c7ff9bf79360c01b611723565b611802826000015161119c565b158015611819575061181782602001516112fa565b155b80156118bd5750600360009054906101000a900473ffffffffffffffffffffffffffffffffffffffff1673ffffffffffffffffffffffffffffffffffffffff1663e779f450836040518263ffffffff1660e01b815260040161187b9190612610565b602060405180830381865afa158015611898573d6000803e3d6000fd5b505050506040513d601f19601f820116820180604052508101906118bc919061265e565b5b15611907576118d6671457a8c82fe973db60c01b611723565b6118ea67db82daf96b15522360c01b611723565b6118fe67d200461eb4724b1360c01b611723565b60019050611962565b61191b6702888f645da9fa4e60c01b611723565b611935565b6119346719b7d991fb8c628760c01b611723565b5b61194967c4bca481db2e583c60c01b611723565b61195d67d22e1bed8d6615b760c01b611723565b600090505b919050565b604051806060016040528060001515815260200160608152602001606081525090565b60405180606001604052806000151581526020016119a66119ec565b8152602001606081525090565b6040518060600160405280600015158152602001600073ffffffffffffffffffffffffffffffffffffffff168152602001606081525090565b6040518060800160405280600073ffffffffffffffffffffffffffffffffffffffff1681526020016060815260200160608152602001606081525090565b600073ffffffffffffffffffffffffffffffffffffffff82169050919050565b6000611a5582611a2a565b9050919050565b611a6581611a4a565b82525050565b6000602082019050611a806000830184611a5c565b92915050565b6000604051905090565b600080fd5b600080fd5b611aa381611a4a565b8114611aae57600080fd5b50565b600081359050611ac081611a9a565b92915050565b600060208284031215611adc57611adb611a90565b5b6000611aea84828501611ab1565b91505092915050565b60008115159050919050565b611b0881611af3565b82525050565b600081519050919050565b600082825260208201905092915050565b60005b83811015611b48578082015181840152602081019050611b2d565b60008484015250505050565b6000601f19601f8301169050919050565b6000611b7082611b0e565b611b7a8185611b19565b9350611b8a818560208601611b2a565b611b9381611b54565b840191505092915050565b6000606083016000830151611bb66000860182611aff565b5060208301518482036020860152611bce8282611b65565b91505060408301518482036040860152611be88282611b65565b9150508091505092915050565b60006020820190508181036000830152611c0f8184611b9e565b905092915050565b611c2081611a4a565b82525050565b6000608083016000830151611c3e6000860182611c17565b5060208301518482036020860152611c568282611b65565b91505060408301518482036040860152611c708282611b65565b91505060608301518482036060860152611c8a8282611b65565b9150508091505092915050565b6000606083016000830151611caf6000860182611aff565b5060208301518482036020860152611cc78282611c26565b91505060408301518482036040860152611ce18282611b65565b9150508091505092915050565b60006020820190508181036000830152611d088184611c97565b905092915050565b600080fd5b7f4e487b7100000000000000000000000000000000000000000000000000000000600052604160045260246000fd5b611d4d82611b54565b810181811067ffffffffffffffff82111715611d6c57611d6b611d15565b5b80604052505050565b6000611d7f611a86565b9050611d8b8282611d44565b919050565b600080fd5b600080fd5b600080fd5b600067ffffffffffffffff821115611dba57611db9611d15565b5b611dc382611b54565b9050602081019050919050565b82818337600083830152505050565b6000611df2611ded84611d9f565b611d75565b905082815260208101848484011115611e0e57611e0d611d9a565b5b611e19848285611dd0565b509392505050565b600082601f830112611e3657611e35611d95565b5b8135611e46848260208601611ddf565b91505092915050565b600060808284031215611e6557611e64611d10565b5b611e6f6080611d75565b90506000611e7f84828501611ab1565b600083015250602082013567ffffffffffffffff811115611ea357611ea2611d90565b5b611eaf84828501611e21565b602083015250604082013567ffffffffffffffff811115611ed357611ed2611d90565b5b611edf84828501611e21565b604083015250606082013567ffffffffffffffff811115611f0357611f02611d90565b5b611f0f84828501611e21565b60608301525092915050565b600060208284031215611f3157611f30611a90565b5b600082013567ffffffffffffffff811115611f4f57611f4e611a95565b5b611f5b84828501611e4f565b91505092915050565b611f6d81611af3565b82525050565b6000602082019050611f886000830184611f64565b92915050565b600060208284031215611fa457611fa3611a90565b5b600082013567ffffffffffffffff811115611fc257611fc1611a95565b5b611fce84828501611e21565b91505092915050565b6000606083016000830151611fef6000860182611aff565b5060208301516120026020860182611c17565b506040830151848203604086015261201a8282611b65565b9150508091505092915050565b600060208201905081810360008301526120418184611fd7565b905092915050565b600080604083850312156120605761205f611a90565b5b600083013567ffffffffffffffff81111561207e5761207d611a95565b5b61208a85828601611e21565b925050602061209b85828601611ab1565b9150509250929050565b7f4e487b7100000000000000000000000000000000000000000000000000000000600052602260045260246000fd5b600060028204905060018216806120ec57607f821691505b6020821081036120ff576120fe6120a5565b5b50919050565b600082825260208201905092915050565b600061212182611b0e565b61212b8185612105565b935061213b818560208601611b2a565b61214481611b54565b840191505092915050565b600060208201905081810360008301526121698184612116565b905092915050565b600061218461217f84611d9f565b611d75565b9050828152602081018484840111156121a05761219f611d9a565b5b6121ab848285611b2a565b509392505050565b600082601f8301126121c8576121c7611d95565b5b81516121d8848260208601612171565b91505092915050565b6000602082840312156121f7576121f6611a90565b5b600082015167ffffffffffffffff81111561221557612214611a95565b5b612221848285016121b3565b91505092915050565b60008190508160005260206000209050919050565b60006020601f8301049050919050565b600082821b905092915050565b60006008830261228c7fffffffffffffffffffffffffffffffffffffffffffffffffffffffffffffffff8261224f565b612296868361224f565b95508019841693508086168417925050509392505050565b6000819050919050565b6000819050919050565b60006122dd6122d86122d3846122ae565b6122b8565b6122ae565b9050919050565b6000819050919050565b6122f7836122c2565b61230b612303826122e4565b84845461225c565b825550505050565b600090565b612320612313565b61232b8184846122ee565b505050565b5b8181101561234f57612344600082612318565b600181019050612331565b5050565b601f821115612394576123658161222a565b61236e8461223f565b8101602085101561237d578190505b6123916123898561223f565b830182612330565b50505b505050565b600082821c905092915050565b60006123b760001984600802612399565b1980831691505092915050565b60006123d083836123a6565b9150826002028217905092915050565b6123e982611b0e565b67ffffffffffffffff81111561240257612401611d15565b5b61240c82546120d4565b612417828285612353565b600060209050601f83116001811461244a5760008415612438578287015190505b61244285826123c4565b8655506124aa565b601f1984166124588661222a565b60005b828110156124805784890151825560018201915060208501945060208101905061245b565b8683101561249d5784890151612499601f8916826123a6565b8355505b6001600288020188555050505b505050505050565b600081905092915050565b60006124c882611b0e565b6124d281856124b2565b93506124e2818560208601611b2a565b80840191505092915050565b60006124fa82846124bd565b915081905092915050565b60008154612512816120d4565b61251c81866124b2565b94506001821660008114612537576001811461254c5761257f565b60ff198316865281151582028601935061257f565b6125558561222a565b60005b8381101561257757815481890152600182019150602081019050612558565b838801955050505b50505092915050565b60006125948284612505565b915081905092915050565b60006080830160008301516125b76000860182611c17565b50602083015184820360208601526125cf8282611b65565b915050604083015184820360408601526125e98282611b65565b915050606083015184820360608601526126038282611b65565b9150508091505092915050565b6000602082019050818103600083015261262a818461259f565b905092915050565b61263b81611af3565b811461264657600080fd5b50565b60008151905061265881612632565b92915050565b60006020828403121561267457612673611a90565b5b600061268284828501612649565b9150509291505056fe546865206163636f756e74206f6620746865207472616e73616374696f6e2065786563757465722073686f756c64206265207468652073616d65206f6e652061732074686520757365722077686963682074686520696e666f726d6174696f6e206973206265696e67207265717565737465642066726f6d2e5468657265206973206e6f207573657220776974682074686520666976656e206163636f756e742e5468657265206973206e6f207573657220776974682074686520676976656e206163636f756e742e5468657265206973206e6f207573657220776974682074686520676976656e20757365726e616d652ea264697066735822122029495fd53b278b7c4d8ec39546f3ce67802a6f2c680c734b1eadd7260d6bfb1c64736f6c6343000813003360806040523480156200001157600080fd5b5060405162000e8838038062000e88833981810160405281019062000037919062000124565b62000053672b6c1237c7787ca260c01b620000b760201b60201c565b6200006f672983e76c07a318d360c01b620000b760201b60201c565b80600260006101000a81548173ffffffffffffffffffffffffffffffffffffffff021916908373ffffffffffffffffffffffffffffffffffffffff1602179055505062000156565b50565b600080fd5b600073ffffffffffffffffffffffffffffffffffffffff82169050919050565b6000620000ec82620000bf565b9050919050565b620000fe81620000df565b81146200010a57600080fd5b50565b6000815190506200011e81620000f3565b92915050565b6000602082840312156200013d576200013c620000ba565b5b60006200014d848285016200010d565b91505092915050565b610d2280620001666000396000f3fe608060405234801561001057600080fd5b50600436106100625760003560e01c806353d5981814610067578063587ff0ff146100715780638aaa73701461007b5780639506d9e3146100ab578063a4e07ee4146100db578063b65bd925146100f7575b600080fd5b61006f610115565b005b61007961023f565b005b6100956004803603810190610090919061086c565b6103be565b6040516100a291906108b4565b60405180910390f35b6100c560048036038101906100c0919061086c565b6104d9565b6040516100d291906108b4565b60405180910390f35b6100f560048036038101906100f09190610aeb565b610623565b005b6100ff6107b1565b60405161010c9190610b4d565b60405180910390f35b6101296703ef8907fcc4377560c01b6107f7565b61013d67c795660e51106ef060c01b6107f7565b610151672536d85b3258fb8b60c01b6107f7565b600160003373ffffffffffffffffffffffffffffffffffffffff1673ffffffffffffffffffffffffffffffffffffffff16815260200190815260200160002060009054906101000a900460ff1615610228576101b767403a32a4b312b1b360c01b6107f7565b6101cb6724ea3fe992d1dfb060c01b6107f7565b6000600160003373ffffffffffffffffffffffffffffffffffffffff1673ffffffffffffffffffffffffffffffffffffffff16815260200190815260200160002060006101000a81548160ff02191690831515021790555061023d565b61023c67519720d5cba52b2860c01b6107f7565b5b565b610253672e9054c8a36f057760c01b6107f7565b610267677b906fbe2e62ee6160c01b6107f7565b61027b673e22bd9caed105bd60c01b6107f7565b600160003373ffffffffffffffffffffffffffffffffffffffff1673ffffffffffffffffffffffffffffffffffffffff16815260200190815260200160002060009054906101000a900460ff166103a7576102e067487862fae8c9c9ee60c01b6107f7565b6102f467dd321cc0ade6629d60c01b6107f7565b60018060003373ffffffffffffffffffffffffffffffffffffffff1673ffffffffffffffffffffffffffffffffffffffff16815260200190815260200160002060006101000a81548160ff02191690831515021790555061035f67c6751c6c3920db6a60c01b6107f7565b426000803373ffffffffffffffffffffffffffffffffffffffff1673ffffffffffffffffffffffffffffffffffffffff168152602001908152602001600020819055506103bc565b6103bb670e5d2c257f78002d60c01b6107f7565b5b565b60006103d4678bcce266717edb9860c01b6107f7565b6103e867f3c1d6e6867c0f3c60c01b6107f7565b6103fc67f4af5886a87649d760c01b6107f7565b600160008373ffffffffffffffffffffffffffffffffffffffff1673ffffffffffffffffffffffffffffffffffffffff16815260200190815260200160002060009054906101000a900460ff161561049357610462675f67b3f6239bc13a60c01b6107f7565b61047667bbf395d92c66ab8e60c01b6107f7565b61048a67b0e1d5ad27d6cc8560c01b6107f7565b600190506104d4565b6104a767081dcd0679b2d4b860c01b6107f7565b6104bb67042571a41d09b72860c01b6107f7565b6104cf67e140e64db4ec3eb560c01b6107f7565b600090505b919050565b60006104ef67db7939d6179995e760c01b6107f7565b61050367f0d7570f6061c94b60c01b6107f7565b61051767efe372438499fcec60c01b6107f7565b60008060008473ffffffffffffffffffffffffffffffffffffffff1673ffffffffffffffffffffffffffffffffffffffff16815260200190815260200160002054426105639190610b97565b9050610579671f3c8e0320f007fe60c01b6107f7565b61058d67c8cbd33c0f26c17560c01b6107f7565b61271081116105dc576105aa67f77493f10cf0a4c660c01b6107f7565b6105be674a05bef781bcfb4660c01b6107f7565b6105d267260f2b628131ee0d60c01b6107f7565b600191505061061e565b6105f0674f18faedfaa62c4560c01b6107f7565b61060467fcddb0cde9f637b560c01b6107f7565b61061867b9ae0b3f43f8331360c01b6107f7565b60009150505b919050565b610637676ab465e47899413060c01b6107f7565b61064b67bdb878daf50d326960c01b6107f7565b61065f678500b68e40e278bd60c01b6107f7565b600260009054906101000a900473ffffffffffffffffffffffffffffffffffffffff1673ffffffffffffffffffffffffffffffffffffffff166375e9493f826040518263ffffffff1660e01b81526004016106ba9190610cca565b600060405180830381600087803b1580156106d457600080fd5b505af11580156106e8573d6000803e3d6000fd5b50505050610700679175dbea84e2168760c01b6107f7565b60018060003373ffffffffffffffffffffffffffffffffffffffff1673ffffffffffffffffffffffffffffffffffffffff16815260200190815260200160002060006101000a81548160ff02191690831515021790555061076b673517fe7bc72d3e9c60c01b6107f7565b426000803373ffffffffffffffffffffffffffffffffffffffff1673ffffffffffffffffffffffffffffffffffffffff1681526020019081526020016000208190555050565b60006107c7679330bd6f6033ffab60c01b6107f7565b6107db678211952f4fea732860c01b6107f7565b6107ef6713dd82e0959319a160c01b6107f7565b612710905090565b50565b6000604051905090565b600080fd5b600080fd5b600073ffffffffffffffffffffffffffffffffffffffff82169050919050565b60006108398261080e565b9050919050565b6108498161082e565b811461085457600080fd5b50565b60008135905061086681610840565b92915050565b60006020828403121561088257610881610804565b5b600061089084828501610857565b91505092915050565b60008115159050919050565b6108ae81610899565b82525050565b60006020820190506108c960008301846108a5565b92915050565b600080fd5b6000601f19601f8301169050919050565b7f4e487b7100000000000000000000000000000000000000000000000000000000600052604160045260246000fd5b61091d826108d4565b810181811067ffffffffffffffff8211171561093c5761093b6108e5565b5b80604052505050565b600061094f6107fa565b905061095b8282610914565b919050565b600080fd5b600080fd5b600080fd5b600067ffffffffffffffff82111561098a576109896108e5565b5b610993826108d4565b9050602081019050919050565b82818337600083830152505050565b60006109c26109bd8461096f565b610945565b9050828152602081018484840111156109de576109dd61096a565b5b6109e98482856109a0565b509392505050565b600082601f830112610a0657610a05610965565b5b8135610a168482602086016109af565b91505092915050565b600060808284031215610a3557610a346108cf565b5b610a3f6080610945565b90506000610a4f84828501610857565b600083015250602082013567ffffffffffffffff811115610a7357610a72610960565b5b610a7f848285016109f1565b602083015250604082013567ffffffffffffffff811115610aa357610aa2610960565b5b610aaf848285016109f1565b604083015250606082013567ffffffffffffffff811115610ad357610ad2610960565b5b610adf848285016109f1565b60608301525092915050565b600060208284031215610b0157610b00610804565b5b600082013567ffffffffffffffff811115610b1f57610b1e610809565b5b610b2b84828501610a1f565b91505092915050565b6000819050919050565b610b4781610b34565b82525050565b6000602082019050610b626000830184610b3e565b92915050565b7f4e487b7100000000000000000000000000000000000000000000000000000000600052601160045260246000fd5b6000610ba282610b34565b9150610bad83610b34565b9250828203905081811115610bc557610bc4610b68565b5b92915050565b610bd48161082e565b82525050565b600081519050919050565b600082825260208201905092915050565b60005b83811015610c14578082015181840152602081019050610bf9565b60008484015250505050565b6000610c2b82610bda565b610c358185610be5565b9350610c45818560208601610bf6565b610c4e816108d4565b840191505092915050565b6000608083016000830151610c716000860182610bcb565b5060208301518482036020860152610c898282610c20565b91505060408301518482036040860152610ca38282610c20565b91505060608301518482036060860152610cbd8282610c20565b9150508091505092915050565b60006020820190508181036000830152610ce48184610c59565b90509291505056fea264697066735822122004d0c6e92f5d4071534bc113b6a0d981a3c23438081dc143d99aeaa2653be01964736f6c63430008130033608060405234801561001057600080fd5b5061002b67fd3ca13cc6ab40e460c01b6100e660201b60201c565b610045674865b1eb3f84a29260c01b6100e660201b60201c565b33600160006101000a81548173ffffffffffffffffffffffffffffffffffffffff021916908373ffffffffffffffffffffffffffffffffffffffff1602179055506100a0679395ff5bf03e753d60c01b6100e660201b60201c565b33600260006101000a81548173ffffffffffffffffffffffffffffffffffffffff021916908373ffffffffffffffffffffffffffffffffffffffff1602179055506100e9565b50565b611a9d80620000f96000396000f3fe608060405234801561001057600080fd5b50600436106100365760003560e01c8063759ab1851461003b578063c47ebddc1461006b575b600080fd5b61005560048036038101906100509190611066565b610087565b6040516100629190611353565b60405180910390f35b610085600480360381019061008091906113a1565b610aea565b005b61008f610da1565b6100a36725598e0e4b213e4f60c01b610d9e565b6100b767114a03e5dbbe09af60c01b610d9e565b6100cb67c0f112adfd9fcfda60c01b610d9e565b6000808054905067ffffffffffffffff8111156100eb576100ea610e50565b5b60405190808252806020026020018201604052801561012457816020015b610111610dc4565b8152602001906001900390816101095790505b50905061013b675f3203790d9e0fd860c01b610d9e565b61014f67185de30e4c98c49960c01b610d9e565b6000610165679b2209f891f81bc660c01b610d9e565b6101796701ed1f8a33010f4260c01b610d9e565b60005b84518110156106cb576101996781a34c6754477c4460c01b610d9e565b6101ad67710650f9f2b1e40460c01b610d9e565b600160009054906101000a900473ffffffffffffffffffffffffffffffffffffffff1673ffffffffffffffffffffffffffffffffffffffff16631ac47dd0338784815181106101ff576101fe611470565b5b60200260200101516040518363ffffffff1660e01b81526004016102249291906114f8565b602060405180830381865afa158015610241573d6000803e3d6000fd5b505050506040513d601f19601f820116820180604052508101906102659190611554565b156106a35761027e675397a813169c1f1960c01b610d9e565b610292679c1e61c06986af8560c01b610d9e565b6102a667f05b1f03e1740f8060c01b610d9e565b60005b60008054905081101561069d576102ca675acbe6e5cb62bdc360c01b610d9e565b6102de677550685dcc60b0e660c01b610d9e565b8582815181106102f1576102f0611470565b5b602002602001015160405160200161030991906115bd565b604051602081830303815290604052805190602001206000828154811061033357610332611470565b5b906000526020600020906006020160000160405160200161035491906116cc565b6040516020818303038152906040528051906020012003610675576103836754a801b29437280860c01b610d9e565b61039767576cc43511bdbf0660c01b610d9e565b600081815481106103ab576103aa611470565b5b90600052602060002090600602016040518060c00160405290816000820180546103d490611603565b80601f016020809104026020016040519081016040528092919081815260200182805461040090611603565b801561044d5780601f106104225761010080835404028352916020019161044d565b820191906000526020600020905b81548152906001019060200180831161043057829003601f168201915b505050505081526020016001820160009054906101000a900473ffffffffffffffffffffffffffffffffffffffff1673ffffffffffffffffffffffffffffffffffffffff1673ffffffffffffffffffffffffffffffffffffffff168152602001600282015481526020016003820180546104c690611603565b80601f01602080910402602001604051908101604052809291908181526020018280546104f290611603565b801561053f5780601f106105145761010080835404028352916020019161053f565b820191906000526020600020905b81548152906001019060200180831161052257829003601f168201915b5050505050815260200160048201805461055890611603565b80601f016020809104026020016040519081016040528092919081815260200182805461058490611603565b80156105d15780601f106105a6576101008083540402835291602001916105d1565b820191906000526020600020905b8154815290600101906020018083116105b457829003601f168201915b505050505081526020016005820160009054906101000a900473ffffffffffffffffffffffffffffffffffffffff1673ffffffffffffffffffffffffffffffffffffffff1673ffffffffffffffffffffffffffffffffffffffff168152505084848151811061064357610642611470565b5b602002602001018190525061066267ba0daee73fec375560c01b610d9e565b828061066d90611712565b93505061068a565b610689671f2b7672ff160c5560c01b610d9e565b5b808061069590611712565b9150506102a9565b506106b8565b6106b7677d529166569a82c460c01b610d9e565b5b80806106c390611712565b91505061017c565b506106e067ba1fd58f2771be4860c01b610d9e565b6106f467939d79d8f4f3176f60c01b610d9e565b6000811461094c57610710675a6173d87d69ae6c60c01b610d9e565b610724670c928b308e2ba3f360c01b610d9e565b610738677a0203a54f9a106b60c01b610d9e565b60005b600182610748919061175a565b81101561094657610763674adcf81e08c1b81760c01b610d9e565b61077767e70e347791ed0a0960c01b610d9e565b60005b60018284610788919061175a565b610792919061175a565b811015610932576107ad67d2f0a3dfb67756f960c01b610d9e565b6107c16718ecc573b9423b6360c01b610d9e565b836001826107cf919061178e565b815181106107e0576107df611470565b5b6020026020010151604001518482815181106107ff576107fe611470565b5b602002602001015160400151111561090a576108256738bc12b823291d0f60c01b610d9e565b610839670bc13ecf16adda4d60c01b610d9e565b61084d67ac32cf84c5e386e560c01b610d9e565b600084828151811061086257610861611470565b5b6020026020010151905061088067a367cfe4c2daec0a60c01b610d9e565b8460018361088e919061178e565b8151811061089f5761089e611470565b5b60200260200101518583815181106108ba576108b9611470565b5b60200260200101819052506108d967b20d805f4dbeedc960c01b610d9e565b80856001846108e8919061178e565b815181106108f9576108f8611470565b5b60200260200101819052505061091f565b61091e67513117a87388795660c01b610d9e565b5b808061092a90611712565b91505061077a565b50808061093e90611712565b91505061073b565b50610961565b610960677b1103073d5cb3e260c01b610d9e565b5b6109756705c308f7cf02131b60c01b610d9e565b80825261098c67e8b68616cf73ecab60c01b610d9e565b6109a067dd722b9ecec3b0bd60c01b610d9e565b60008114610a1a576109bc67b3138c00096467b260c01b610d9e565b6109d067feee3d3cee0205e660c01b610d9e565b6109e467463228c2d74993b560c01b610d9e565b60405180606001604052806001151581526020018381526020016040518060200160405280600081525081525092505050610ae5565b610a2e67da4695d123f6272e60c01b610d9e565b610a42671fb22e3fb16ac4ad60c01b610d9e565b610a5667ca90efea733416c760c01b610d9e565b6040518060600160405280600015158152602001600067ffffffffffffffff811115610a8557610a84610e50565b5b604051908082528060200260200182016040528015610abe57816020015b610aab610dc4565b815260200190600190039081610aa35790505b5081526020016040518060600160405280603c8152602001611a2c603c9139815250925050505b919050565b610afe67d35ea4a66f99c9de60c01b610d9e565b610b126736b6981a27e5a5c860c01b610d9e565b610b2667fdb148265c2f7d3a60c01b610d9e565b600260009054906101000a900473ffffffffffffffffffffffffffffffffffffffff1673ffffffffffffffffffffffffffffffffffffffff163373ffffffffffffffffffffffffffffffffffffffff16148015610bae57508273ffffffffffffffffffffffffffffffffffffffff168373ffffffffffffffffffffffffffffffffffffffff16145b15610d8257610bc767a591111c81e7a93b60c01b610d9e565b610bdb67fa320427eb02ea5f60c01b610d9e565b610bef675c3792bf96f785a560c01b610d9e565b60006040518060c001604052808681526020018573ffffffffffffffffffffffffffffffffffffffff1681526020014281526020018381526020018481526020018773ffffffffffffffffffffffffffffffffffffffff168152509050610c60674eb4b1aa74446b9f60c01b610d9e565b610c74674af2cfcfe491199860c01b610d9e565b60008190806001815401808255809150506001900390600052602060002090600602016000909190919091506000820151816000019081610cb59190611959565b5060208201518160010160006101000a81548173ffffffffffffffffffffffffffffffffffffffff021916908373ffffffffffffffffffffffffffffffffffffffff160217905550604082015181600201556060820151816003019081610d1c9190611959565b506080820151816004019081610d329190611959565b5060a08201518160050160006101000a81548173ffffffffffffffffffffffffffffffffffffffff021916908373ffffffffffffffffffffffffffffffffffffffff160217905550505050610d97565b610d9667e969b941745cb45a60c01b610d9e565b5b5050505050565b50565b604051806060016040528060001515815260200160608152602001606081525090565b6040518060c0016040528060608152602001600073ffffffffffffffffffffffffffffffffffffffff168152602001600081526020016060815260200160608152602001600073ffffffffffffffffffffffffffffffffffffffff1681525090565b6000604051905090565b600080fd5b600080fd5b600080fd5b6000601f19601f8301169050919050565b7f4e487b7100000000000000000000000000000000000000000000000000000000600052604160045260246000fd5b610e8882610e3f565b810181811067ffffffffffffffff82111715610ea757610ea6610e50565b5b80604052505050565b6000610eba610e26565b9050610ec68282610e7f565b919050565b600067ffffffffffffffff821115610ee657610ee5610e50565b5b602082029050602081019050919050565b600080fd5b600080fd5b600067ffffffffffffffff821115610f1c57610f1b610e50565b5b610f2582610e3f565b9050602081019050919050565b82818337600083830152505050565b6000610f54610f4f84610f01565b610eb0565b905082815260208101848484011115610f7057610f6f610efc565b5b610f7b848285610f32565b509392505050565b600082601f830112610f9857610f97610e3a565b5b8135610fa8848260208601610f41565b91505092915050565b6000610fc4610fbf84610ecb565b610eb0565b90508083825260208201905060208402830185811115610fe757610fe6610ef7565b5b835b8181101561102e57803567ffffffffffffffff81111561100c5761100b610e3a565b5b8086016110198982610f83565b85526020850194505050602081019050610fe9565b5050509392505050565b600082601f83011261104d5761104c610e3a565b5b813561105d848260208601610fb1565b91505092915050565b60006020828403121561107c5761107b610e30565b5b600082013567ffffffffffffffff81111561109a57611099610e35565b5b6110a684828501611038565b91505092915050565b60008115159050919050565b6110c4816110af565b82525050565b600081519050919050565b600082825260208201905092915050565b6000819050602082019050919050565b600081519050919050565b600082825260208201905092915050565b60005b83811015611130578082015181840152602081019050611115565b60008484015250505050565b6000611147826110f6565b6111518185611101565b9350611161818560208601611112565b61116a81610e3f565b840191505092915050565b600073ffffffffffffffffffffffffffffffffffffffff82169050919050565b60006111a082611175565b9050919050565b6111b081611195565b82525050565b6000819050919050565b6111c9816111b6565b82525050565b600060c08301600083015184820360008601526111ec828261113c565b915050602083015161120160208601826111a7565b50604083015161121460408601826111c0565b506060830151848203606086015261122c828261113c565b91505060808301518482036080860152611246828261113c565b91505060a083015161125b60a08601826111a7565b508091505092915050565b600061127283836111cf565b905092915050565b6000602082019050919050565b6000611292826110ca565b61129c81856110d5565b9350836020820285016112ae856110e6565b8060005b858110156112ea57848403895281516112cb8582611266565b94506112d68361127a565b925060208a019950506001810190506112b2565b50829750879550505050505092915050565b600060608301600083015161131460008601826110bb565b506020830151848203602086015261132c8282611287565b91505060408301518482036040860152611346828261113c565b9150508091505092915050565b6000602082019050818103600083015261136d81846112fc565b905092915050565b61137e81611195565b811461138957600080fd5b50565b60008135905061139b81611375565b92915050565b600080600080600060a086880312156113bd576113bc610e30565b5b60006113cb8882890161138c565b955050602086013567ffffffffffffffff8111156113ec576113eb610e35565b5b6113f888828901610f83565b94505060406114098882890161138c565b935050606086013567ffffffffffffffff81111561142a57611429610e35565b5b61143688828901610f83565b925050608086013567ffffffffffffffff81111561145757611456610e35565b5b61146388828901610f83565b9150509295509295909350565b7f4e487b7100000000000000000000000000000000000000000000000000000000600052603260045260246000fd5b6114a881611195565b82525050565b600082825260208201905092915050565b60006114ca826110f6565b6114d481856114ae565b93506114e4818560208601611112565b6114ed81610e3f565b840191505092915050565b600060408201905061150d600083018561149f565b818103602083015261151f81846114bf565b90509392505050565b611531816110af565b811461153c57600080fd5b50565b60008151905061154e81611528565b92915050565b60006020828403121561156a57611569610e30565b5b60006115788482850161153f565b91505092915050565b600081905092915050565b6000611597826110f6565b6115a18185611581565b93506115b1818560208601611112565b80840191505092915050565b60006115c9828461158c565b915081905092915050565b7f4e487b7100000000000000000000000000000000000000000000000000000000600052602260045260246000fd5b6000600282049050600182168061161b57607f821691505b60208210810361162e5761162d6115d4565b5b50919050565b60008190508160005260206000209050919050565b6000815461165681611603565b6116608186611581565b9450600182166000811461167b5760018114611690576116c3565b60ff19831686528115158202860193506116c3565b61169985611634565b60005b838110156116bb5781548189015260018201915060208101905061169c565b838801955050505b50505092915050565b60006116d88284611649565b915081905092915050565b7f4e487b7100000000000000000000000000000000000000000000000000000000600052601160045260246000fd5b600061171d826111b6565b91507fffffffffffffffffffffffffffffffffffffffffffffffffffffffffffffffff820361174f5761174e6116e3565b5b600182019050919050565b6000611765826111b6565b9150611770836111b6565b9250828203905081811115611788576117876116e3565b5b92915050565b6000611799826111b6565b91506117a4836111b6565b92508282019050808211156117bc576117bb6116e3565b5b92915050565b60006020601f8301049050919050565b600082821b905092915050565b60006008830261180f7fffffffffffffffffffffffffffffffffffffffffffffffffffffffffffffffff826117d2565b61181986836117d2565b95508019841693508086168417925050509392505050565b6000819050919050565b600061185661185161184c846111b6565b611831565b6111b6565b9050919050565b6000819050919050565b6118708361183b565b61188461187c8261185d565b8484546117df565b825550505050565b600090565b61189961188c565b6118a4818484611867565b505050565b5b818110156118c8576118bd600082611891565b6001810190506118aa565b5050565b601f82111561190d576118de81611634565b6118e7846117c2565b810160208510156118f6578190505b61190a611902856117c2565b8301826118a9565b50505b505050565b600082821c905092915050565b600061193060001984600802611912565b1980831691505092915050565b6000611949838361191f565b9150826002028217905092915050565b611962826110f6565b67ffffffffffffffff81111561197b5761197a610e50565b5b6119858254611603565b6119908282856118cc565b600060209050601f8311600181146119c357600084156119b1578287015190505b6119bb858261193d565b865550611a23565b601f1984166119d186611634565b60005b828110156119f9578489015182556001820191506020850194506020810190506119d4565b86831015611a165784890151611a12601f89168261191f565b8355505b6001600288020188555050505b50505050505056fe546865207472616e73616374696f6e2065786563757465722068617320746f206265206173736f6369617465642077697468207468652066696c652ea264697066735822122002c006236461be2cc0da17e6d817dcb72383969e6b6e8e32bdc0d892485e3ecd64736f6c63430008130033",
  "linkReferences": {},
  "deployedLinkReferences": {}
}