{
  "_format": "hh-sol-artifact-1",
  "contractName": "AccessControl",
  "sourceName": "contracts/AccessControl.sol",
  "abi": [
    {
      "inputs": [
        {
          "internalType": "address",
          "name": "helperContract",
          "type": "address"
        }
      ],
      "stateMutability": "nonpayable",
      "type": "constructor"
    },
    {
      "anonymous": false,
      "inputs": [
        {
          "indexed": true,
          "internalType": "address",
          "name": "userAccount",
          "type": "address"
        },
        {
          "indexed": false,
          "internalType": "string",
          "name": "fileIpfsCID",
          "type": "string"
        },
        {
          "indexed": false,
          "internalType": "string",
          "name": "permissionsOwner",
          "type": "string"
        },
        {
          "indexed": false,
          "internalType": "string",
          "name": "action",
          "type": "string"
        }
      ],
      "name": "FileActionLog",
      "type": "event"
    },
    {
      "inputs": [
        {
          "internalType": "address",
          "name": "userAccount",
          "type": "address"
        },
        {
          "internalType": "string",
          "name": "fileIpfsCid",
          "type": "string"
        }
      ],
      "name": "deactivateFileUserAssociation",
      "outputs": [],
      "stateMutability": "nonpayable",
      "type": "function"
    },
    {
      "inputs": [
        {
          "internalType": "string",
          "name": "fileIpfsCid",
          "type": "string"
        },
        {
          "internalType": "address",
          "name": "userAccount",
          "type": "address"
        }
      ],
      "name": "downloadFileAudit",
      "outputs": [],
      "stateMutability": "nonpayable",
      "type": "function"
    },
    {
      "inputs": [
        {
          "internalType": "address",
          "name": "userAccount",
          "type": "address"
        },
        {
          "internalType": "string",
          "name": "fileIpfsCID",
          "type": "string"
        }
      ],
      "name": "elegibleToShare",
      "outputs": [
        {
          "internalType": "bool",
          "name": "",
          "type": "bool"
        }
      ],
      "stateMutability": "view",
      "type": "function"
    },
    {
      "inputs": [
        {
          "internalType": "address",
          "name": "userAccount",
          "type": "address"
        },
        {
          "internalType": "string",
          "name": "fileIpfsCID",
          "type": "string"
        }
      ],
      "name": "elegibleToUpdPermissions",
      "outputs": [
        {
          "internalType": "bool",
          "name": "",
          "type": "bool"
        }
      ],
      "stateMutability": "view",
      "type": "function"
    },
    {
      "inputs": [
        {
          "internalType": "address",
          "name": "userAccount",
          "type": "address"
        },
        {
          "internalType": "string",
          "name": "fileIpfsCID",
          "type": "string"
        }
      ],
      "name": "elegibleToUpload",
      "outputs": [
        {
          "internalType": "bool",
          "name": "",
          "type": "bool"
        }
      ],
      "stateMutability": "view",
      "type": "function"
    },
    {
      "inputs": [],
      "name": "getAuditLogControlAddress",
      "outputs": [
        {
          "internalType": "address",
          "name": "",
          "type": "address"
        }
      ],
      "stateMutability": "view",
      "type": "function"
    },
    {
      "inputs": [
        {
          "internalType": "address",
          "name": "accountUser",
          "type": "address"
        },
        {
          "internalType": "string",
          "name": "fileIpfsCID",
          "type": "string"
        }
      ],
      "name": "getEncSymmetricKeyFileUser",
      "outputs": [
        {
          "components": [
            {
              "internalType": "bool",
              "name": "success",
              "type": "bool"
            },
            {
              "internalType": "string",
              "name": "resultString",
              "type": "string"
            }
          ],
          "internalType": "struct Helper.ResultString",
          "name": "",
          "type": "tuple"
        }
      ],
      "stateMutability": "view",
      "type": "function"
    },
    {
      "inputs": [],
      "name": "getFileRegisterAddress",
      "outputs": [
        {
          "internalType": "address",
          "name": "",
          "type": "address"
        }
      ],
      "stateMutability": "view",
      "type": "function"
    },
    {
      "inputs": [
        {
          "internalType": "string",
          "name": "fileIpfsCid",
          "type": "string"
        }
      ],
      "name": "getFileState",
      "outputs": [
        {
          "components": [
            {
              "internalType": "bool",
              "name": "success",
              "type": "bool"
            },
            {
              "internalType": "string",
              "name": "resultString",
              "type": "string"
            }
          ],
          "internalType": "struct Helper.ResultString",
          "name": "",
          "type": "tuple"
        }
      ],
      "stateMutability": "view",
      "type": "function"
    },
    {
      "inputs": [
        {
          "internalType": "address",
          "name": "userAccount",
          "type": "address"
        },
        {
          "internalType": "string",
          "name": "fileIpfsCID",
          "type": "string"
        }
      ],
      "name": "getPermissionsOverFile",
      "outputs": [
        {
          "components": [
            {
              "internalType": "bool",
              "name": "success",
              "type": "bool"
            },
            {
              "internalType": "string[]",
              "name": "resultStrings",
              "type": "string[]"
            }
          ],
          "internalType": "struct Helper.ResultStringArray",
          "name": "",
          "type": "tuple"
        }
      ],
      "stateMutability": "view",
      "type": "function"
    },
    {
      "inputs": [
        {
          "internalType": "address",
          "name": "account",
          "type": "address"
        },
        {
          "internalType": "string",
          "name": "state",
          "type": "string"
        }
      ],
      "name": "getUserFiles",
      "outputs": [
        {
          "components": [
            {
              "internalType": "bool",
              "name": "success",
              "type": "bool"
            },
            {
              "components": [
                {
                  "internalType": "string",
                  "name": "ipfsCID",
                  "type": "string"
                },
                {
                  "internalType": "string",
                  "name": "fileName",
                  "type": "string"
                },
                {
                  "internalType": "int256",
                  "name": "version",
                  "type": "int256"
                },
                {
                  "internalType": "address",
                  "name": "owner",
                  "type": "address"
                },
                {
                  "internalType": "string",
                  "name": "fileType",
                  "type": "string"
                },
                {
                  "internalType": "string",
                  "name": "iv",
                  "type": "string"
                }
              ],
              "internalType": "struct FileRegister.File[]",
              "name": "files",
              "type": "tuple[]"
            }
          ],
          "internalType": "struct FileRegister.ResultFiles",
          "name": "",
          "type": "tuple"
        }
      ],
      "stateMutability": "view",
      "type": "function"
    },
    {
      "inputs": [],
      "name": "getUserRegisterAddress",
      "outputs": [
        {
          "internalType": "address",
          "name": "",
          "type": "address"
        }
      ],
      "stateMutability": "view",
      "type": "function"
    },
    {
      "inputs": [
        {
          "internalType": "address",
          "name": "accountInput",
          "type": "address"
        },
        {
          "internalType": "address",
          "name": "accountList",
          "type": "address"
        },
        {
          "internalType": "string",
          "name": "ipfsCIDInput",
          "type": "string"
        },
        {
          "internalType": "string",
          "name": "ipfsCIDList",
          "type": "string"
        }
      ],
      "name": "isKeyEqual",
      "outputs": [
        {
          "internalType": "bool",
          "name": "",
          "type": "bool"
        }
      ],
      "stateMutability": "pure",
      "type": "function"
    },
    {
      "inputs": [
        {
          "internalType": "string",
          "name": "fileIpfsCID",
          "type": "string"
        }
      ],
      "name": "messageSenderAssociatedToFile",
      "outputs": [
        {
          "internalType": "bool",
          "name": "",
          "type": "bool"
        }
      ],
      "stateMutability": "view",
      "type": "function"
    },
    {
      "inputs": [
        {
          "internalType": "address",
          "name": "userAccount",
          "type": "address"
        },
        {
          "internalType": "string",
          "name": "fileIpfsCID",
          "type": "string"
        },
        {
          "internalType": "string",
          "name": "encSymmetricKey",
          "type": "string"
        },
        {
          "internalType": "string[]",
          "name": "permissions",
          "type": "string[]"
        }
      ],
      "name": "shareFile",
      "outputs": [],
      "stateMutability": "nonpayable",
      "type": "function"
    },
    {
      "inputs": [
        {
          "internalType": "address",
          "name": "userAccount",
          "type": "address"
        },
        {
          "internalType": "string",
          "name": "fileIpfsCID",
          "type": "string"
        },
        {
          "internalType": "string[]",
          "name": "permissions",
          "type": "string[]"
        }
      ],
      "name": "updateUserFilePermissions",
      "outputs": [],
      "stateMutability": "nonpayable",
      "type": "function"
    },
    {
      "inputs": [
        {
          "internalType": "address",
          "name": "userAccount",
          "type": "address"
        },
        {
          "components": [
            {
              "internalType": "string",
              "name": "ipfsCID",
              "type": "string"
            },
            {
              "internalType": "string",
              "name": "fileName",
              "type": "string"
            },
            {
              "internalType": "int256",
              "name": "version",
              "type": "int256"
            },
            {
              "internalType": "address",
              "name": "owner",
              "type": "address"
            },
            {
              "internalType": "string",
              "name": "fileType",
              "type": "string"
            },
            {
              "internalType": "string",
              "name": "iv",
              "type": "string"
            }
          ],
          "internalType": "struct FileRegister.File",
          "name": "file",
          "type": "tuple"
        },
        {
          "internalType": "string",
          "name": "encSymmetricKey",
          "type": "string"
        }
      ],
      "name": "uploadFile",
      "outputs": [],
      "stateMutability": "nonpayable",
      "type": "function"
    },
    {
      "inputs": [
        {
          "internalType": "address",
          "name": "userAccount",
          "type": "address"
        },
        {
          "internalType": "string",
          "name": "fileIpfsCID",
          "type": "string"
        }
      ],
      "name": "userAssociatedWithFile",
      "outputs": [
        {
          "internalType": "bool",
          "name": "",
          "type": "bool"
        }
      ],
      "stateMutability": "view",
      "type": "function"
    },
    {
      "inputs": [
        {
          "internalType": "address",
          "name": "userAccount",
          "type": "address"
        },
        {
          "internalType": "string",
          "name": "fileName",
          "type": "string"
        }
      ],
      "name": "userAssociatedWithFileName",
      "outputs": [
        {
          "internalType": "bool",
          "name": "",
          "type": "bool"
        }
      ],
      "stateMutability": "view",
      "type": "function"
    },
    {
      "inputs": [
        {
          "internalType": "address",
          "name": "userAccount",
          "type": "address"
        },
        {
          "internalType": "string",
          "name": "fileIpfsCID",
          "type": "string"
        },
        {
          "internalType": "string",
          "name": "permission",
          "type": "string"
        }
      ],
      "name": "userHasPermissionOverFile",
      "outputs": [
        {
          "internalType": "bool",
          "name": "",
          "type": "bool"
        }
      ],
      "stateMutability": "view",
      "type": "function"
    }
  ],
  "bytecode": "0x60806040523480156200001157600080fd5b506040516200980a3803806200980a83398181016040528101906200003791906200028c565b80600460006101000a81548173ffffffffffffffffffffffffffffffffffffffff021916908373ffffffffffffffffffffffffffffffffffffffff160217905550806040516200008790620001f8565b620000939190620002cf565b604051809103906000f080158015620000b0573d6000803e3d6000fd5b50600160006101000a81548173ffffffffffffffffffffffffffffffffffffffff021916908373ffffffffffffffffffffffffffffffffffffffff16021790555080604051620001009062000206565b6200010c9190620002cf565b604051809103906000f08015801562000129573d6000803e3d6000fd5b50600260006101000a81548173ffffffffffffffffffffffffffffffffffffffff021916908373ffffffffffffffffffffffffffffffffffffffff160217905550604051620001789062000214565b604051809103906000f08015801562000195573d6000803e3d6000fd5b50600360006101000a81548173ffffffffffffffffffffffffffffffffffffffff021916908373ffffffffffffffffffffffffffffffffffffffff1602179055506000600460146101000a81548160ff02191690831515021790555050620002ec565b611c948062004c8983390190565b611a6a806200691d83390190565b611483806200838783390190565b600080fd5b600073ffffffffffffffffffffffffffffffffffffffff82169050919050565b6000620002548262000227565b9050919050565b620002668162000247565b81146200027257600080fd5b50565b60008151905062000286816200025b565b92915050565b600060208284031215620002a557620002a462000222565b5b6000620002b58482850162000275565b91505092915050565b620002c98162000247565b82525050565b6000602082019050620002e66000830184620002be565b92915050565b61498d80620002fc6000396000f3fe608060405234801561001057600080fd5b506004361061012a5760003560e01c80635dab19e4116100ad578063b58ea3a211610071578063b58ea3a214610377578063b6d234df146103a7578063b714fb20146103d7578063c19dcf89146103f5578063dee63aa1146104255761012a565b80635dab19e4146102d357806367cc916b146102f1578063874a22ed1461030d5780638af34fbc1461032b578063a126d94c146103475761012a565b80631ac47dd0116100f45780631ac47dd0146101f75780632321f31814610227578063299768c8146102575780635784be73146102875780635c99c71b146102a35761012a565b8062438ceb1461012f578062c5e6141461015f578063097637271461017b578063173cd558146101ab5780631a0fce3c146101db575b600080fd5b61014960048036038101906101449190612f46565b610455565b6040516101569190613066565b60405180910390f35b610179600480360381019061017491906131cc565b610603565b005b61019560048036038101906101909190613287565b610945565b6040516101a291906134a8565b60405180910390f35b6101c560048036038101906101c09190613287565b610d7d565b6040516101d291906135c9565b60405180910390f35b6101f560048036038101906101f09190613731565b61109f565b005b610211600480360381019061020c9190613287565b6115d0565b60405161021e91906137cb565b60405180910390f35b610241600480360381019061023c9190613287565b611775565b60405161024e91906137cb565b60405180910390f35b610271600480360381019061026c9190612f46565b611910565b60405161027e91906137cb565b60405180910390f35b6102a1600480360381019061029c9190613287565b611a50565b005b6102bd60048036038101906102b891906137e6565b611d4d565b6040516102ca91906137cb565b60405180910390f35b6102db611ddf565b6040516102e89190613894565b60405180910390f35b61030b600480360381019061030691906138af565b611e09565b005b610315611f7c565b6040516103229190613894565b60405180910390f35b6103456004803603810190610340919061390b565b611fa6565b005b610361600480360381019061035c9190613287565b612256565b60405161036e9190613066565b60405180910390f35b610391600480360381019061038c9190613287565b61252a565b60405161039e91906137cb565b60405180910390f35b6103c160048036038101906103bc9190613996565b612820565b6040516103ce91906137cb565b60405180910390f35b6103df612937565b6040516103ec9190613894565b60405180910390f35b61040f600480360381019061040a9190613287565b612961565b60405161041c91906137cb565b60405180910390f35b61043f600480360381019061043a9190613287565b612b71565b60405161044c91906137cb565b60405180910390f35b61045d612c72565b61046682611910565b156105d45760005b6000805490508110156105d2578260405160200161048c9190613a5d565b60405160208183030381529060405280519060200120600082815481106104b6576104b5613a74565b5b90600052602060002090600502016001016040516020016104d79190613b9b565b60405160208183030381529060405280519060200120036105bf5760405180604001604052806001151581526020016000838154811061051a57610519613a74565b5b9060005260206000209060050201600401805461053690613ad2565b80601f016020809104026020016040519081016040528092919081815260200182805461056290613ad2565b80156105af5780601f10610584576101008083540402835291602001916105af565b820191906000526020600020905b81548152906001019060200180831161059257829003601f168201915b50505050508152509150506105fe565b80806105ca90613beb565b91505061046e565b505b60405180604001604052806000151581526020016040518060200160405280600081525081525090505b919050565b61060d848461252a565b1561093f576000600460009054906101000a900473ffffffffffffffffffffffffffffffffffffffff1673ffffffffffffffffffffffffffffffffffffffff1663c1f69fd6868686866040518563ffffffff1660e01b81526004016106759493929190613d03565b602060405180830381865afa158015610692573d6000803e3d6000fd5b505050506040513d601f19601f820116820180604052508101906106b69190613d89565b9050801561093d5760006040518060a001604052808773ffffffffffffffffffffffffffffffffffffffff1681526020018681526020018581526020018481526020016040518060400160405280600681526020017f61637469766500000000000000000000000000000000000000000000000000008152508152509050600081908060018154018082558091505060019003906000526020600020906005020160009091909190915060008201518160000160006101000a81548173ffffffffffffffffffffffffffffffffffffffff021916908373ffffffffffffffffffffffffffffffffffffffff16021790555060208201518160010190816107bc9190613f4d565b5060408201518160020190816107d29190613f4d565b5060608201518160030190805190602001906107ef929190612c8e565b5060808201518160040190816108059190613f4d565b505050600360009054906101000a900473ffffffffffffffffffffffffffffffffffffffff1673ffffffffffffffffffffffffffffffffffffffff1663c47ebddc338789600460009054906101000a900473ffffffffffffffffffffffffffffffffffffffff1673ffffffffffffffffffffffffffffffffffffffff16636bb8d768896040518263ffffffff1660e01b81526004016108a4919061401f565b600060405180830381865afa1580156108c1573d6000803e3d6000fd5b505050506040513d6000823e3d601f19601f820116820180604052508101906108ea91906140b1565b6040518563ffffffff1660e01b81526004016109099493929190614146565b600060405180830381600087803b15801561092357600080fd5b505af1158015610937573d6000803e3d6000fd5b50505050505b505b50505050565b61094d612ce7565b8273ffffffffffffffffffffffffffffffffffffffff163373ffffffffffffffffffffffffffffffffffffffff1603610d08576000808054905067ffffffffffffffff8111156109a05761099f612e1b565b5b6040519080825280602002602001820160405280156109d957816020015b6109c6612d03565b8152602001906001900390816109be5790505b5090506000805b600080549050811015610cd8578573ffffffffffffffffffffffffffffffffffffffff1660008281548110610a1857610a17613a74565b5b906000526020600020906005020160000160009054906101000a900473ffffffffffffffffffffffffffffffffffffffff1673ffffffffffffffffffffffffffffffffffffffff16148015610b30575060008181548110610a7c57610a7b613a74565b5b9060005260206000209060050201600401604051602001610a9d9190613b9b565b6040516020818303038152906040528051906020012085604051602001610ac49190613a5d565b604051602081830303815290604052805190602001201480610b2f5750604051602001610af0906141d2565b6040516020818303038152906040528051906020012085604051602001610b179190613a5d565b60405160208183030381529060405280519060200120145b5b15610cc5576000808281548110610b4a57610b49613a74565b5b90600052602060002090600502016001018054610b6690613ad2565b80601f0160208091040260200160405190810160405280929190818152602001828054610b9290613ad2565b8015610bdf5780601f10610bb457610100808354040283529160200191610bdf565b820191906000526020600020905b815481529060010190602001808311610bc257829003601f168201915b505050505090506000600160009054906101000a900473ffffffffffffffffffffffffffffffffffffffff1673ffffffffffffffffffffffffffffffffffffffff16639f5937f8836040518263ffffffff1660e01b8152600401610c4391906141e7565b600060405180830381865afa158015610c60573d6000803e3d6000fd5b505050506040513d6000823e3d601f19601f82011682018060405250810190610c8991906143af565b905060008160200151905080868681518110610ca857610ca7613a74565b5b60200260200101819052508480610cbe90613beb565b9550505050505b8080610cd090613beb565b9150506109e0565b5080825260008114610d055760405180604001604052806001151581526020018381525092505050610d77565b50505b6040518060400160405280600015158152602001600067ffffffffffffffff811115610d3757610d36612e1b565b5b604051908082528060200260200182016040528015610d7057816020015b610d5d612d03565b815260200190600190039081610d555790505b5081525090505b92915050565b610d85612d4f565b610d8e82611910565b8015610def5750604051602001610da490614444565b60405160208183030381529060405280519060200120610dc383610455565b60200151604051602001610dd79190613a5d565b60405160208183030381529060405280519060200120145b156110305760005b60008054905081101561102e57610f028460008381548110610e1c57610e1b613a74565b5b906000526020600020906005020160000160009054906101000a900473ffffffffffffffffffffffffffffffffffffffff168560008581548110610e6357610e62613a74565b5b90600052602060002090600502016001018054610e7f90613ad2565b80601f0160208091040260200160405190810160405280929190818152602001828054610eab90613ad2565b8015610ef85780601f10610ecd57610100808354040283529160200191610ef8565b820191906000526020600020905b815481529060010190602001808311610edb57829003601f168201915b5050505050611d4d565b1561101b57604051806040016040528060011515815260200160008381548110610f2f57610f2e613a74565b5b9060005260206000209060050201600301805480602002602001604051908101604052809291908181526020016000905b8282101561100c578382906000526020600020018054610f7f90613ad2565b80601f0160208091040260200160405190810160405280929190818152602001828054610fab90613ad2565b8015610ff85780601f10610fcd57610100808354040283529160200191610ff8565b820191906000526020600020905b815481529060010190602001808311610fdb57829003601f168201915b505050505081526020019060010190610f60565b50505050815250915050611099565b808061102690613beb565b915050610df7565b505b6040518060400160405280600015158152602001600067ffffffffffffffff81111561105f5761105e612e1b565b5b60405190808252806020026020018201604052801561109257816020015b606081526020019060019003908161107d5790505b5081525090505b92915050565b6110ad838360000151612b71565b156115cb576000600367ffffffffffffffff8111156110cf576110ce612e1b565b5b60405190808252806020026020018201604052801561110257816020015b60608152602001906001900390816110ed5790505b5090506040518060400160405280600581526020017f73686172650000000000000000000000000000000000000000000000000000008152508160008151811061114f5761114e613a74565b5b60200260200101819052506040518060400160405280600881526020017f646f776e6c6f6164000000000000000000000000000000000000000000000000815250816001815181106111a4576111a3613a74565b5b60200260200101819052506040518060400160405280600681526020017f64656c6574650000000000000000000000000000000000000000000000000000815250816002815181106111f9576111f8613a74565b5b60200260200101819052506000600460009054906101000a900473ffffffffffffffffffffffffffffffffffffffff1673ffffffffffffffffffffffffffffffffffffffff1663c1f69fd686866000015186866040518563ffffffff1660e01b815260040161126b9493929190613d03565b602060405180830381865afa158015611288573d6000803e3d6000fd5b505050506040513d601f19601f820116820180604052508101906112ac9190613d89565b905080156115c857600160009054906101000a900473ffffffffffffffffffffffffffffffffffffffff1673ffffffffffffffffffffffffffffffffffffffff16638811fe81856040518263ffffffff1660e01b815260040161130f91906144f7565b600060405180830381600087803b15801561132957600080fd5b505af115801561133d573d6000803e3d6000fd5b5050505060006040518060a001604052808773ffffffffffffffffffffffffffffffffffffffff168152602001866000015181526020018581526020018481526020016040518060400160405280600681526020017f61637469766500000000000000000000000000000000000000000000000000008152508152509050600081908060018154018082558091505060019003906000526020600020906005020160009091909190915060008201518160000160006101000a81548173ffffffffffffffffffffffffffffffffffffffff021916908373ffffffffffffffffffffffffffffffffffffffff16021790555060208201518160010190816114439190613f4d565b5060408201518160020190816114599190613f4d565b506060820151816003019080519060200190611476929190612c8e565b50608082015181600401908161148c9190613f4d565b505050600360009054906101000a900473ffffffffffffffffffffffffffffffffffffffff1673ffffffffffffffffffffffffffffffffffffffff1663c47ebddc33876000015189600460009054906101000a900473ffffffffffffffffffffffffffffffffffffffff1673ffffffffffffffffffffffffffffffffffffffff16636bb8d768896040518263ffffffff1660e01b815260040161152f919061401f565b600060405180830381865afa15801561154c573d6000803e3d6000fd5b505050506040513d6000823e3d601f19601f8201168201806040525081019061157591906140b1565b6040518563ffffffff1660e01b81526004016115949493929190614565565b600060405180830381600087803b1580156115ae57600080fd5b505af11580156115c2573d6000803e3d6000fd5b50505050505b50505b505050565b60006115db82611910565b806116335750600360009054906101000a900473ffffffffffffffffffffffffffffffffffffffff1673ffffffffffffffffffffffffffffffffffffffff163373ffffffffffffffffffffffffffffffffffffffff16145b1561176a5760005b6000805490508110156117685761174684600083815481106116605761165f613a74565b5b906000526020600020906005020160000160009054906101000a900473ffffffffffffffffffffffffffffffffffffffff1685600085815481106116a7576116a6613a74565b5b906000526020600020906005020160010180546116c390613ad2565b80601f01602080910402602001604051908101604052809291908181526020018280546116ef90613ad2565b801561173c5780601f106117115761010080835404028352916020019161173c565b820191906000526020600020905b81548152906001019060200180831161171f57829003601f168201915b5050505050611d4d565b1561175557600191505061176f565b808061176090613beb565b91505061163b565b505b600090505b92915050565b60008273ffffffffffffffffffffffffffffffffffffffff163373ffffffffffffffffffffffffffffffffffffffff161415801561184e5750600160009054906101000a900473ffffffffffffffffffffffffffffffffffffffff1673ffffffffffffffffffffffffffffffffffffffff166352a9baef84846040518363ffffffff1660e01b815260040161180b9291906145cb565b602060405180830381865afa158015611828573d6000803e3d6000fd5b505050506040513d601f19601f8201168201806040525081019061184c9190613d89565b155b8015611896575061189533836040518060400160405280600581526020017f7368617265000000000000000000000000000000000000000000000000000000815250612820565b5b80156118f757506040516020016118ac90614444565b604051602081830303815290604052805190602001206118cb83610455565b602001516040516020016118df9190613a5d565b60405160208183030381529060405280519060200120145b15611905576001905061190a565b600090505b92915050565b600080600090505b600080549050811015611a4557611a23336000838154811061193d5761193c613a74565b5b906000526020600020906005020160000160009054906101000a900473ffffffffffffffffffffffffffffffffffffffff16856000858154811061198457611983613a74565b5b906000526020600020906005020160010180546119a090613ad2565b80601f01602080910402602001604051908101604052809291908181526020018280546119cc90613ad2565b8015611a195780601f106119ee57610100808354040283529160200191611a19565b820191906000526020600020905b8154815290600101906020018083116119fc57829003601f168201915b5050505050611d4d565b15611a32576001915050611a4b565b8080611a3d90613beb565b915050611918565b50600090505b919050565b611a9033826040518060400160405280600681526020017f64656c6574650000000000000000000000000000000000000000000000000000815250612820565b8015611b345750600160009054906101000a900473ffffffffffffffffffffffffffffffffffffffff1673ffffffffffffffffffffffffffffffffffffffff16639bccd6ad826040518263ffffffff1660e01b8152600401611af291906141e7565b602060405180830381865afa158015611b0f573d6000803e3d6000fd5b505050506040513d601f19601f82011682018060405250810190611b339190613d89565b5b15611d495760005b600080549050811015611cb65781604051602001611b5a9190613a5d565b6040516020818303038152906040528051906020012060008281548110611b8457611b83613a74565b5b9060005260206000209060050201600101604051602001611ba59190613b9b565b60405160208183030381529060405280519060200120148015611c355750604051602001611bd290614444565b6040516020818303038152906040528051906020012060008281548110611bfc57611bfb613a74565b5b9060005260206000209060050201600401604051602001611c1d9190613b9b565b60405160208183030381529060405280519060200120145b15611ca3576040518060400160405280600881526020017f646561637469766500000000000000000000000000000000000000000000000081525060008281548110611c8457611c83613a74565b5b90600052602060002090600502016004019081611ca19190613f4d565b505b8080611cae90613beb565b915050611b3c565b50600360009054906101000a900473ffffffffffffffffffffffffffffffffffffffff1673ffffffffffffffffffffffffffffffffffffffff1663c47ebddc3383856040518463ffffffff1660e01b8152600401611d1693929190614693565b600060405180830381600087803b158015611d3057600080fd5b505af1158015611d44573d6000803e3d6000fd5b505050505b5050565b60008473ffffffffffffffffffffffffffffffffffffffff168473ffffffffffffffffffffffffffffffffffffffff16148015611dd5575082604051602001611d969190613a5d565b6040516020818303038152906040528051906020012082604051602001611dbd9190613a5d565b60405160208183030381529060405280519060200120145b9050949350505050565b6000600160009054906101000a900473ffffffffffffffffffffffffffffffffffffffff16905090565b8073ffffffffffffffffffffffffffffffffffffffff163373ffffffffffffffffffffffffffffffffffffffff16148015611e805750611e7f81836040518060400160405280600881526020017f646f776e6c6f6164000000000000000000000000000000000000000000000000815250612820565b5b8015611ee15750604051602001611e9690614444565b60405160208183030381529060405280519060200120611eb583610455565b60200151604051602001611ec99190613a5d565b60405160208183030381529060405280519060200120145b15611f7857600360009054906101000a900473ffffffffffffffffffffffffffffffffffffffff1673ffffffffffffffffffffffffffffffffffffffff1663c47ebddc3384846040518463ffffffff1660e01b8152600401611f4593929190614743565b600060405180830381600087803b158015611f5f57600080fd5b505af1158015611f73573d6000803e3d6000fd5b505050505b5050565b6000600260009054906101000a900473ffffffffffffffffffffffffffffffffffffffff16905090565b611fb08383611775565b156122505760005b60008054905081101561224e576120c38460008381548110611fdd57611fdc613a74565b5b906000526020600020906005020160000160009054906101000a900473ffffffffffffffffffffffffffffffffffffffff16856000858154811061202457612023613a74565b5b9060005260206000209060050201600101805461204090613ad2565b80601f016020809104026020016040519081016040528092919081815260200182805461206c90613ad2565b80156120b95780601f1061208e576101008083540402835291602001916120b9565b820191906000526020600020905b81548152906001019060200180831161209c57829003601f168201915b5050505050611d4d565b1561223b5781600082815481106120dd576120dc613a74565b5b90600052602060002090600502016003019080519060200190612101929190612c8e565b50600360009054906101000a900473ffffffffffffffffffffffffffffffffffffffff1673ffffffffffffffffffffffffffffffffffffffff1663c47ebddc338587600460009054906101000a900473ffffffffffffffffffffffffffffffffffffffff1673ffffffffffffffffffffffffffffffffffffffff16636bb8d768886040518263ffffffff1660e01b815260040161219e919061401f565b600060405180830381865afa1580156121bb573d6000803e3d6000fd5b505050506040513d6000823e3d601f19601f820116820180604052508101906121e491906140b1565b6040518563ffffffff1660e01b815260040161220394939291906147f3565b600060405180830381600087803b15801561221d57600080fd5b505af1158015612231573d6000803e3d6000fd5b5050505050612251565b808061224690613beb565b915050611fb8565b505b5b505050565b61225e612c72565b8273ffffffffffffffffffffffffffffffffffffffff163373ffffffffffffffffffffffffffffffffffffffff1614801561229f575061229e83836115d0565b5b801561230057506040516020016122b590614444565b604051602081830303815290604052805190602001206122d483610455565b602001516040516020016122e89190613a5d565b60405160208183030381529060405280519060200120145b156124fa5760005b6000805490508110156124f857612413846000838154811061232d5761232c613a74565b5b906000526020600020906005020160000160009054906101000a900473ffffffffffffffffffffffffffffffffffffffff16856000858154811061237457612373613a74565b5b9060005260206000209060050201600101805461239090613ad2565b80601f01602080910402602001604051908101604052809291908181526020018280546123bc90613ad2565b80156124095780601f106123de57610100808354040283529160200191612409565b820191906000526020600020905b8154815290600101906020018083116123ec57829003601f168201915b5050505050611d4d565b156124e5576040518060400160405280600115158152602001600083815481106124405761243f613a74565b5b9060005260206000209060050201600201805461245c90613ad2565b80601f016020809104026020016040519081016040528092919081815260200182805461248890613ad2565b80156124d55780601f106124aa576101008083540402835291602001916124d5565b820191906000526020600020905b8154815290600101906020018083116124b857829003601f168201915b5050505050815250915050612524565b80806124f090613beb565b915050612308565b505b60405180604001604052806000151581526020016040518060200160405280600081525081525090505b92915050565b60008273ffffffffffffffffffffffffffffffffffffffff163373ffffffffffffffffffffffffffffffffffffffff16141580156126035750600160009054906101000a900473ffffffffffffffffffffffffffffffffffffffff1673ffffffffffffffffffffffffffffffffffffffff166352a9baef84846040518363ffffffff1660e01b81526004016125c09291906145cb565b602060405180830381865afa1580156125dd573d6000803e3d6000fd5b505050506040513d601f19601f820116820180604052508101906126019190613d89565b155b801561264b575061264a33836040518060400160405280600581526020017f7368617265000000000000000000000000000000000000000000000000000000815250612820565b5b801561265e575061265c83836115d0565b155b80156127025750600160009054906101000a900473ffffffffffffffffffffffffffffffffffffffff1673ffffffffffffffffffffffffffffffffffffffff16639bccd6ad836040518263ffffffff1660e01b81526004016126c091906141e7565b602060405180830381865afa1580156126dd573d6000803e3d6000fd5b505050506040513d601f19601f820116820180604052508101906127019190613d89565b5b8015612763575060405160200161271890614444565b6040516020818303038152906040528051906020012061273783610455565b6020015160405160200161274b9190613a5d565b60405160208183030381529060405280519060200120145b80156128075750600260009054906101000a900473ffffffffffffffffffffffffffffffffffffffff1673ffffffffffffffffffffffffffffffffffffffff1663a240e426846040518263ffffffff1660e01b81526004016127c59190613894565b602060405180830381865afa1580156127e2573d6000803e3d6000fd5b505050506040513d601f19601f820116820180604052508101906128069190613d89565b5b15612815576001905061281a565b600090505b92915050565b600060405160200161283190614444565b6040516020818303038152906040528051906020012061285084610455565b602001516040516020016128649190613a5d565b604051602081830303815290604052805190602001200361292b57600061288b8585610d7d565b60200151905060005b815181101561292857836040516020016128ae9190613a5d565b604051602081830303815290604052805190602001208282815181106128d7576128d6613a74565b5b60200260200101516040516020016128ef9190613a5d565b604051602081830303815290604052805190602001200361291557600192505050612930565b808061292090613beb565b915050612894565b50505b600090505b9392505050565b6000600360009054906101000a900473ffffffffffffffffffffffffffffffffffffffff16905090565b600080600160009054906101000a900473ffffffffffffffffffffffffffffffffffffffff1673ffffffffffffffffffffffffffffffffffffffff16637113c4dd846040518263ffffffff1660e01b81526004016129bf91906141e7565b600060405180830381865afa1580156129dc573d6000803e3d6000fd5b505050506040513d6000823e3d601f19601f82011682018060405250810190612a05919061490e565b905060005b600080549050811015612b645760005b8251811015612b50578573ffffffffffffffffffffffffffffffffffffffff1660008381548110612a4e57612a4d613a74565b5b906000526020600020906005020160000160009054906101000a900473ffffffffffffffffffffffffffffffffffffffff1673ffffffffffffffffffffffffffffffffffffffff16148015612b2c5750828181518110612ab157612ab0613a74565b5b6020026020010151604051602001612ac99190613a5d565b6040516020818303038152906040528051906020012060008381548110612af357612af2613a74565b5b9060005260206000209060050201600101604051602001612b149190613b9b565b60405160208183030381529060405280519060200120145b15612b3d5760019350505050612b6b565b8080612b4890613beb565b915050612a1a565b508080612b5c90613beb565b915050612a0a565b5060009150505b92915050565b60008273ffffffffffffffffffffffffffffffffffffffff163373ffffffffffffffffffffffffffffffffffffffff16148015612bb55750612bb383836115d0565b155b8015612c595750600260009054906101000a900473ffffffffffffffffffffffffffffffffffffffff1673ffffffffffffffffffffffffffffffffffffffff1663a240e426846040518263ffffffff1660e01b8152600401612c179190613894565b602060405180830381865afa158015612c34573d6000803e3d6000fd5b505050506040513d601f19601f82011682018060405250810190612c589190613d89565b5b15612c675760019050612c6c565b600090505b92915050565b6040518060400160405280600015158152602001606081525090565b828054828255906000526020600020908101928215612cd6579160200282015b82811115612cd5578251829081612cc59190613f4d565b5091602001919060010190612cae565b5b509050612ce39190612d6b565b5090565b6040518060400160405280600015158152602001606081525090565b6040518060c00160405280606081526020016060815260200160008152602001600073ffffffffffffffffffffffffffffffffffffffff16815260200160608152602001606081525090565b6040518060400160405280600015158152602001606081525090565b5b80821115612d8b5760008181612d829190612d8f565b50600101612d6c565b5090565b508054612d9b90613ad2565b6000825580601f10612dad5750612dcc565b601f016020900490600052602060002090810190612dcb9190612dcf565b5b50565b5b80821115612de8576000816000905550600101612dd0565b5090565b6000604051905090565b600080fd5b600080fd5b600080fd5b600080fd5b6000601f19601f8301169050919050565b7f4e487b7100000000000000000000000000000000000000000000000000000000600052604160045260246000fd5b612e5382612e0a565b810181811067ffffffffffffffff82111715612e7257612e71612e1b565b5b80604052505050565b6000612e85612dec565b9050612e918282612e4a565b919050565b600067ffffffffffffffff821115612eb157612eb0612e1b565b5b612eba82612e0a565b9050602081019050919050565b82818337600083830152505050565b6000612ee9612ee484612e96565b612e7b565b905082815260208101848484011115612f0557612f04612e05565b5b612f10848285612ec7565b509392505050565b600082601f830112612f2d57612f2c612e00565b5b8135612f3d848260208601612ed6565b91505092915050565b600060208284031215612f5c57612f5b612df6565b5b600082013567ffffffffffffffff811115612f7a57612f79612dfb565b5b612f8684828501612f18565b91505092915050565b60008115159050919050565b612fa481612f8f565b82525050565b600081519050919050565b600082825260208201905092915050565b60005b83811015612fe4578082015181840152602081019050612fc9565b60008484015250505050565b6000612ffb82612faa565b6130058185612fb5565b9350613015818560208601612fc6565b61301e81612e0a565b840191505092915050565b60006040830160008301516130416000860182612f9b565b50602083015184820360208601526130598282612ff0565b9150508091505092915050565b600060208201905081810360008301526130808184613029565b905092915050565b600073ffffffffffffffffffffffffffffffffffffffff82169050919050565b60006130b382613088565b9050919050565b6130c3816130a8565b81146130ce57600080fd5b50565b6000813590506130e0816130ba565b92915050565b600067ffffffffffffffff82111561310157613100612e1b565b5b602082029050602081019050919050565b600080fd5b600061312a613125846130e6565b612e7b565b9050808382526020820190506020840283018581111561314d5761314c613112565b5b835b8181101561319457803567ffffffffffffffff81111561317257613171612e00565b5b80860161317f8982612f18565b8552602085019450505060208101905061314f565b5050509392505050565b600082601f8301126131b3576131b2612e00565b5b81356131c3848260208601613117565b91505092915050565b600080600080608085870312156131e6576131e5612df6565b5b60006131f4878288016130d1565b945050602085013567ffffffffffffffff81111561321557613214612dfb565b5b61322187828801612f18565b935050604085013567ffffffffffffffff81111561324257613241612dfb565b5b61324e87828801612f18565b925050606085013567ffffffffffffffff81111561326f5761326e612dfb565b5b61327b8782880161319e565b91505092959194509250565b6000806040838503121561329e5761329d612df6565b5b60006132ac858286016130d1565b925050602083013567ffffffffffffffff8111156132cd576132cc612dfb565b5b6132d985828601612f18565b9150509250929050565b600081519050919050565b600082825260208201905092915050565b6000819050602082019050919050565b6000819050919050565b6133228161330f565b82525050565b613331816130a8565b82525050565b600060c08301600083015184820360008601526133548282612ff0565b9150506020830151848203602086015261336e8282612ff0565b91505060408301516133836040860182613319565b5060608301516133966060860182613328565b50608083015184820360808601526133ae8282612ff0565b91505060a083015184820360a08601526133c88282612ff0565b9150508091505092915050565b60006133e18383613337565b905092915050565b6000602082019050919050565b6000613401826132e3565b61340b81856132ee565b93508360208202850161341d856132ff565b8060005b85811015613459578484038952815161343a85826133d5565b9450613445836133e9565b925060208a01995050600181019050613421565b50829750879550505050505092915050565b60006040830160008301516134836000860182612f9b565b506020830151848203602086015261349b82826133f6565b9150508091505092915050565b600060208201905081810360008301526134c2818461346b565b905092915050565b600081519050919050565b600082825260208201905092915050565b6000819050602082019050919050565b60006135028383612ff0565b905092915050565b6000602082019050919050565b6000613522826134ca565b61352c81856134d5565b93508360208202850161353e856134e6565b8060005b8581101561357a578484038952815161355b85826134f6565b94506135668361350a565b925060208a01995050600181019050613542565b50829750879550505050505092915050565b60006040830160008301516135a46000860182612f9b565b50602083015184820360208601526135bc8282613517565b9150508091505092915050565b600060208201905081810360008301526135e3818461358c565b905092915050565b600080fd5b600080fd5b6135fe8161330f565b811461360957600080fd5b50565b60008135905061361b816135f5565b92915050565b600060c08284031215613637576136366135eb565b5b61364160c0612e7b565b9050600082013567ffffffffffffffff811115613661576136606135f0565b5b61366d84828501612f18565b600083015250602082013567ffffffffffffffff811115613691576136906135f0565b5b61369d84828501612f18565b60208301525060406136b18482850161360c565b60408301525060606136c5848285016130d1565b606083015250608082013567ffffffffffffffff8111156136e9576136e86135f0565b5b6136f584828501612f18565b60808301525060a082013567ffffffffffffffff811115613719576137186135f0565b5b61372584828501612f18565b60a08301525092915050565b60008060006060848603121561374a57613749612df6565b5b6000613758868287016130d1565b935050602084013567ffffffffffffffff81111561377957613778612dfb565b5b61378586828701613621565b925050604084013567ffffffffffffffff8111156137a6576137a5612dfb565b5b6137b286828701612f18565b9150509250925092565b6137c581612f8f565b82525050565b60006020820190506137e060008301846137bc565b92915050565b60008060008060808587031215613800576137ff612df6565b5b600061380e878288016130d1565b945050602061381f878288016130d1565b935050604085013567ffffffffffffffff8111156138405761383f612dfb565b5b61384c87828801612f18565b925050606085013567ffffffffffffffff81111561386d5761386c612dfb565b5b61387987828801612f18565b91505092959194509250565b61388e816130a8565b82525050565b60006020820190506138a96000830184613885565b92915050565b600080604083850312156138c6576138c5612df6565b5b600083013567ffffffffffffffff8111156138e4576138e3612dfb565b5b6138f085828601612f18565b9250506020613901858286016130d1565b9150509250929050565b60008060006060848603121561392457613923612df6565b5b6000613932868287016130d1565b935050602084013567ffffffffffffffff81111561395357613952612dfb565b5b61395f86828701612f18565b925050604084013567ffffffffffffffff8111156139805761397f612dfb565b5b61398c8682870161319e565b9150509250925092565b6000806000606084860312156139af576139ae612df6565b5b60006139bd868287016130d1565b935050602084013567ffffffffffffffff8111156139de576139dd612dfb565b5b6139ea86828701612f18565b925050604084013567ffffffffffffffff811115613a0b57613a0a612dfb565b5b613a1786828701612f18565b9150509250925092565b600081905092915050565b6000613a3782612faa565b613a418185613a21565b9350613a51818560208601612fc6565b80840191505092915050565b6000613a698284613a2c565b915081905092915050565b7f4e487b7100000000000000000000000000000000000000000000000000000000600052603260045260246000fd5b7f4e487b7100000000000000000000000000000000000000000000000000000000600052602260045260246000fd5b60006002820490506001821680613aea57607f821691505b602082108103613afd57613afc613aa3565b5b50919050565b60008190508160005260206000209050919050565b60008154613b2581613ad2565b613b2f8186613a21565b94506001821660008114613b4a5760018114613b5f57613b92565b60ff1983168652811515820286019350613b92565b613b6885613b03565b60005b83811015613b8a57815481890152600182019150602081019050613b6b565b838801955050505b50505092915050565b6000613ba78284613b18565b915081905092915050565b7f4e487b7100000000000000000000000000000000000000000000000000000000600052601160045260246000fd5b6000819050919050565b6000613bf682613be1565b91507fffffffffffffffffffffffffffffffffffffffffffffffffffffffffffffffff8203613c2857613c27613bb2565b5b600182019050919050565b600082825260208201905092915050565b6000613c4f82612faa565b613c598185613c33565b9350613c69818560208601612fc6565b613c7281612e0a565b840191505092915050565b600082825260208201905092915050565b6000613c99826134ca565b613ca38185613c7d565b935083602082028501613cb5856134e6565b8060005b85811015613cf15784840389528151613cd285826134f6565b9450613cdd8361350a565b925060208a01995050600181019050613cb9565b50829750879550505050505092915050565b6000608082019050613d186000830187613885565b8181036020830152613d2a8186613c44565b90508181036040830152613d3e8185613c44565b90508181036060830152613d528184613c8e565b905095945050505050565b613d6681612f8f565b8114613d7157600080fd5b50565b600081519050613d8381613d5d565b92915050565b600060208284031215613d9f57613d9e612df6565b5b6000613dad84828501613d74565b91505092915050565b60006020601f8301049050919050565b600082821b905092915050565b600060088302613e037fffffffffffffffffffffffffffffffffffffffffffffffffffffffffffffffff82613dc6565b613e0d8683613dc6565b95508019841693508086168417925050509392505050565b6000819050919050565b6000613e4a613e45613e4084613be1565b613e25565b613be1565b9050919050565b6000819050919050565b613e6483613e2f565b613e78613e7082613e51565b848454613dd3565b825550505050565b600090565b613e8d613e80565b613e98818484613e5b565b505050565b5b81811015613ebc57613eb1600082613e85565b600181019050613e9e565b5050565b601f821115613f0157613ed281613b03565b613edb84613db6565b81016020851015613eea578190505b613efe613ef685613db6565b830182613e9d565b50505b505050565b600082821c905092915050565b6000613f2460001984600802613f06565b1980831691505092915050565b6000613f3d8383613f13565b9150826002028217905092915050565b613f5682612faa565b67ffffffffffffffff811115613f6f57613f6e612e1b565b5b613f798254613ad2565b613f84828285613ec0565b600060209050601f831160018114613fb75760008415613fa5578287015190505b613faf8582613f31565b865550614017565b601f198416613fc586613b03565b60005b82811015613fed57848901518255600182019150602085019450602081019050613fc8565b8683101561400a5784890151614006601f891682613f13565b8355505b6001600288020188555050505b505050505050565b600060208201905081810360008301526140398184613c8e565b905092915050565b600061405461404f84612e96565b612e7b565b9050828152602081018484840111156140705761406f612e05565b5b61407b848285612fc6565b509392505050565b600082601f83011261409857614097612e00565b5b81516140a8848260208601614041565b91505092915050565b6000602082840312156140c7576140c6612df6565b5b600082015167ffffffffffffffff8111156140e5576140e4612dfb565b5b6140f184828501614083565b91505092915050565b7f7368617265000000000000000000000000000000000000000000000000000000600082015250565b6000614130600583613c33565b915061413b826140fa565b602082019050919050565b600060a08201905061415b6000830187613885565b818103602083015261416d8186613c44565b905061417c6040830185613885565b818103606083015261418e8184613c44565b905081810360808301526141a181614123565b905095945050505050565b50565b60006141bc600083613a21565b91506141c7826141ac565b600082019050919050565b60006141dd826141af565b9150819050919050565b600060208201905081810360008301526142018184613c44565b905092915050565b600081519050614218816135f5565b92915050565b60008151905061422d816130ba565b92915050565b600060c08284031215614249576142486135eb565b5b61425360c0612e7b565b9050600082015167ffffffffffffffff811115614273576142726135f0565b5b61427f84828501614083565b600083015250602082015167ffffffffffffffff8111156142a3576142a26135f0565b5b6142af84828501614083565b60208301525060406142c384828501614209565b60408301525060606142d78482850161421e565b606083015250608082015167ffffffffffffffff8111156142fb576142fa6135f0565b5b61430784828501614083565b60808301525060a082015167ffffffffffffffff81111561432b5761432a6135f0565b5b61433784828501614083565b60a08301525092915050565b600060408284031215614359576143586135eb565b5b6143636040612e7b565b9050600061437384828501613d74565b600083015250602082015167ffffffffffffffff811115614397576143966135f0565b5b6143a384828501614233565b60208301525092915050565b6000602082840312156143c5576143c4612df6565b5b600082015167ffffffffffffffff8111156143e3576143e2612dfb565b5b6143ef84828501614343565b91505092915050565b7f6163746976650000000000000000000000000000000000000000000000000000600082015250565b600061442e600683613a21565b9150614439826143f8565b600682019050919050565b600061444f82614421565b9150819050919050565b600060c08301600083015184820360008601526144768282612ff0565b915050602083015184820360208601526144908282612ff0565b91505060408301516144a56040860182613319565b5060608301516144b86060860182613328565b50608083015184820360808601526144d08282612ff0565b91505060a083015184820360a08601526144ea8282612ff0565b9150508091505092915050565b600060208201905081810360008301526145118184614459565b905092915050565b7f75706c6f61640000000000000000000000000000000000000000000000000000600082015250565b600061454f600683613c33565b915061455a82614519565b602082019050919050565b600060a08201905061457a6000830187613885565b818103602083015261458c8186613c44565b905061459b6040830185613885565b81810360608301526145ad8184613c44565b905081810360808301526145c081614542565b905095945050505050565b60006040820190506145e06000830185613885565b81810360208301526145f28184613c44565b90509392505050565b7f2d00000000000000000000000000000000000000000000000000000000000000600082015250565b6000614631600183613c33565b915061463c826145fb565b602082019050919050565b7f64656c6574656400000000000000000000000000000000000000000000000000600082015250565b600061467d600783613c33565b915061468882614647565b602082019050919050565b600060a0820190506146a86000830186613885565b81810360208301526146ba8185613c44565b90506146c96040830184613885565b81810360608301526146da81614624565b905081810360808301526146ed81614670565b9050949350505050565b7f646f776e6c6f6164000000000000000000000000000000000000000000000000600082015250565b600061472d600883613c33565b9150614738826146f7565b602082019050919050565b600060a0820190506147586000830186613885565b818103602083015261476a8185613c44565b90506147796040830184613885565b818103606083015261478a81614624565b9050818103608083015261479d81614720565b9050949350505050565b7f757064617465207065726d697373696f6e730000000000000000000000000000600082015250565b60006147dd601283613c33565b91506147e8826147a7565b602082019050919050565b600060a0820190506148086000830187613885565b818103602083015261481a8186613c44565b90506148296040830185613885565b818103606083015261483b8184613c44565b9050818103608083015261484e816147d0565b905095945050505050565b600061486c614867846130e6565b612e7b565b9050808382526020820190506020840283018581111561488f5761488e613112565b5b835b818110156148d657805167ffffffffffffffff8111156148b4576148b3612e00565b5b8086016148c18982614083565b85526020850194505050602081019050614891565b5050509392505050565b600082601f8301126148f5576148f4612e00565b5b8151614905848260208601614859565b91505092915050565b60006020828403121561492457614923612df6565b5b600082015167ffffffffffffffff81111561494257614941612dfb565b5b61494e848285016148e0565b9150509291505056fea264697066735822122005740c1429f926f599e80a89ec5342b39ecb9c2c6b29ba8170ddfb8b957d371664736f6c6343000813003360806040523480156200001157600080fd5b5060405162001c9438038062001c948339818101604052810190620000379190620000e9565b80600260006101000a81548173ffffffffffffffffffffffffffffffffffffffff021916908373ffffffffffffffffffffffffffffffffffffffff160217905550506200011b565b600080fd5b600073ffffffffffffffffffffffffffffffffffffffff82169050919050565b6000620000b18262000084565b9050919050565b620000c381620000a4565b8114620000cf57600080fd5b50565b600081519050620000e381620000b8565b92915050565b6000602082840312156200010257620001016200007f565b5b60006200011284828501620000d2565b91505092915050565b611b69806200012b6000396000f3fe608060405234801561001057600080fd5b50600436106100885760003560e01c80638811fe811161005b5780638811fe811461014d5780639bccd6ad146101695780639f5937f814610199578063e8d56b8b146101c957610088565b80634907904b1461008d57806352a9baef146100bd5780635b8b718c146100ed5780637113c4dd1461011d575b600080fd5b6100a760048036038101906100a29190610fe9565b6101e5565b6040516100b4919061104b565b60405180910390f35b6100d760048036038101906100d291906110c4565b610354565b6040516100e4919061113b565b60405180910390f35b6101076004803603810190610102919061129c565b610438565b604051610114919061113b565b60405180910390f35b61013760048036038101906101329190610fe9565b61055d565b6040516101449190611426565b60405180910390f35b6101676004803603810190610162919061129c565b61076c565b005b610183600480360381019061017e9190610fe9565b6108dc565b604051610190919061113b565b60405180910390f35b6101b360048036038101906101ae9190610fe9565b610980565b6040516101c09190611550565b60405180910390f35b6101e360048036038101906101de9190611572565b610d4c565b005b6000807fffffffffffffffffffffffffffffffffffffffffffffffffffffffffffffffff905060005b60018054905081101561034a578360405160200161022c91906115db565b60405160208183030381529060405280519060200120600060018381548110610258576102576115f2565b5b9060005260206000200160405161026f9190611719565b90815260200160405180910390206001016040516020016102909190611719565b604051602081830303815290604052805190602001201480156102f05750816000600183815481106102c5576102c46115f2565b5b906000526020600020016040516102dc9190611719565b908152602001604051809103902060020154135b156103375760006001828154811061030b5761030a6115f2565b5b906000526020600020016040516103229190611719565b90815260200160405180910390206002015491505b808061034290611769565b91505061020e565b5080915050919050565b60008273ffffffffffffffffffffffffffffffffffffffff1660008360405161037d91906115db565b908152602001604051809103902060030160009054906101000a900473ffffffffffffffffffffffffffffffffffffffff1673ffffffffffffffffffffffffffffffffffffffff1614801561041f5750600360009054906101000a900473ffffffffffffffffffffffffffffffffffffffff1673ffffffffffffffffffffffffffffffffffffffff163373ffffffffffffffffffffffffffffffffffffffff16145b1561042d5760019050610432565b600090505b92915050565b600061044782600001516108dc565b1580156104ec5750600260009054906101000a900473ffffffffffffffffffffffffffffffffffffffff1673ffffffffffffffffffffffffffffffffffffffff1663236241a4836040518263ffffffff1660e01b81526004016104aa919061184f565b602060405180830381865afa1580156104c7573d6000803e3d6000fd5b505050506040513d601f19601f820116820180604052508101906104eb919061189d565b5b80156105455750600360009054906101000a900473ffffffffffffffffffffffffffffffffffffffff1673ffffffffffffffffffffffffffffffffffffffff163373ffffffffffffffffffffffffffffffffffffffff16145b156105535760019050610558565b600090505b919050565b6060600060018054905067ffffffffffffffff8111156105805761057f610ebe565b5b6040519080825280602002602001820160405280156105b357816020015b606081526020019060019003908161059e5790505b5090506000805b60018054905081101561075e57846040516020016105d891906115db565b60405160208183030381529060405280519060200120600060018381548110610604576106036115f2565b5b9060005260206000200160405161061b9190611719565b908152602001604051809103902060010160405160200161063c9190611719565b604051602081830303815290604052805190602001200361074b5760006001828154811061066d5761066c6115f2565b5b906000526020600020016040516106849190611719565b908152602001604051809103902060000180546106a090611650565b80601f01602080910402602001604051908101604052809291908181526020018280546106cc90611650565b80156107195780601f106106ee57610100808354040283529160200191610719565b820191906000526020600020905b8154815290600101906020018083116106fc57829003601f168201915b5050505050838381518110610731576107306115f2565b5b6020026020010181905250818061074790611769565b9250505b808061075690611769565b9150506105ba565b508082528192505050919050565b600360009054906101000a900473ffffffffffffffffffffffffffffffffffffffff1673ffffffffffffffffffffffffffffffffffffffff163373ffffffffffffffffffffffffffffffffffffffff16036108d9576107ca81610438565b156108d85780600082600001516040516107e491906115db565b908152602001604051809103902060008201518160000190816108079190611a61565b50602082015181600101908161081d9190611a61565b506040820151816002015560608201518160030160006101000a81548173ffffffffffffffffffffffffffffffffffffffff021916908373ffffffffffffffffffffffffffffffffffffffff16021790555060808201518160040190816108849190611a61565b5060a082015181600501908161089a9190611a61565b50905050600181600001519080600181540180825580915050600190039060005260206000200160009091909190915090816108d69190611a61565b505b5b50565b6000806000836040516108ef91906115db565b9081526020016040518091039020600001805461090b90611650565b9050141580156109685750600360009054906101000a900473ffffffffffffffffffffffffffffffffffffffff1673ffffffffffffffffffffffffffffffffffffffff163373ffffffffffffffffffffffffffffffffffffffff16145b15610976576001905061097b565b600090505b919050565b610988610e21565b6000808360405161099991906115db565b908152602001604051809103902060010180546109b590611650565b90501115610cac5760405180604001604052806001151581526020016000846040516109e191906115db565b90815260200160405180910390206040518060c0016040529081600082018054610a0a90611650565b80601f0160208091040260200160405190810160405280929190818152602001828054610a3690611650565b8015610a835780601f10610a5857610100808354040283529160200191610a83565b820191906000526020600020905b815481529060010190602001808311610a6657829003601f168201915b50505050508152602001600182018054610a9c90611650565b80601f0160208091040260200160405190810160405280929190818152602001828054610ac890611650565b8015610b155780601f10610aea57610100808354040283529160200191610b15565b820191906000526020600020905b815481529060010190602001808311610af857829003601f168201915b50505050508152602001600282015481526020016003820160009054906101000a900473ffffffffffffffffffffffffffffffffffffffff1673ffffffffffffffffffffffffffffffffffffffff1673ffffffffffffffffffffffffffffffffffffffff168152602001600482018054610b8e90611650565b80601f0160208091040260200160405190810160405280929190818152602001828054610bba90611650565b8015610c075780601f10610bdc57610100808354040283529160200191610c07565b820191906000526020600020905b815481529060010190602001808311610bea57829003601f168201915b50505050508152602001600582018054610c2090611650565b80601f0160208091040260200160405190810160405280929190818152602001828054610c4c90611650565b8015610c995780601f10610c6e57610100808354040283529160200191610c99565b820191906000526020600020905b815481529060010190602001808311610c7c57829003601f168201915b5050505050815250508152509050610d47565b60405180604001604052806000151581526020016040518060c0016040528060405180602001604052806000815250815260200160405180602001604052806000815250815260200160008152602001600073ffffffffffffffffffffffffffffffffffffffff1681526020016040518060200160405280600081525081526020016040518060200160405280600081525081525081525090505b919050565b600073ffffffffffffffffffffffffffffffffffffffff168173ffffffffffffffffffffffffffffffffffffffff1614158015610dd75750600073ffffffffffffffffffffffffffffffffffffffff16600360009054906101000a900473ffffffffffffffffffffffffffffffffffffffff1673ffffffffffffffffffffffffffffffffffffffff16145b15610e1e5780600360006101000a81548173ffffffffffffffffffffffffffffffffffffffff021916908373ffffffffffffffffffffffffffffffffffffffff1602179055505b50565b6040518060400160405280600015158152602001610e3d610e43565b81525090565b6040518060c00160405280606081526020016060815260200160008152602001600073ffffffffffffffffffffffffffffffffffffffff16815260200160608152602001606081525090565b6000604051905090565b600080fd5b600080fd5b600080fd5b600080fd5b6000601f19601f8301169050919050565b7f4e487b7100000000000000000000000000000000000000000000000000000000600052604160045260246000fd5b610ef682610ead565b810181811067ffffffffffffffff82111715610f1557610f14610ebe565b5b80604052505050565b6000610f28610e8f565b9050610f348282610eed565b919050565b600067ffffffffffffffff821115610f5457610f53610ebe565b5b610f5d82610ead565b9050602081019050919050565b82818337600083830152505050565b6000610f8c610f8784610f39565b610f1e565b905082815260208101848484011115610fa857610fa7610ea8565b5b610fb3848285610f6a565b509392505050565b600082601f830112610fd057610fcf610ea3565b5b8135610fe0848260208601610f79565b91505092915050565b600060208284031215610fff57610ffe610e99565b5b600082013567ffffffffffffffff81111561101d5761101c610e9e565b5b61102984828501610fbb565b91505092915050565b6000819050919050565b61104581611032565b82525050565b6000602082019050611060600083018461103c565b92915050565b600073ffffffffffffffffffffffffffffffffffffffff82169050919050565b600061109182611066565b9050919050565b6110a181611086565b81146110ac57600080fd5b50565b6000813590506110be81611098565b92915050565b600080604083850312156110db576110da610e99565b5b60006110e9858286016110af565b925050602083013567ffffffffffffffff81111561110a57611109610e9e565b5b61111685828601610fbb565b9150509250929050565b60008115159050919050565b61113581611120565b82525050565b6000602082019050611150600083018461112c565b92915050565b600080fd5b600080fd5b61116981611032565b811461117457600080fd5b50565b60008135905061118681611160565b92915050565b600060c082840312156111a2576111a1611156565b5b6111ac60c0610f1e565b9050600082013567ffffffffffffffff8111156111cc576111cb61115b565b5b6111d884828501610fbb565b600083015250602082013567ffffffffffffffff8111156111fc576111fb61115b565b5b61120884828501610fbb565b602083015250604061121c84828501611177565b6040830152506060611230848285016110af565b606083015250608082013567ffffffffffffffff8111156112545761125361115b565b5b61126084828501610fbb565b60808301525060a082013567ffffffffffffffff8111156112845761128361115b565b5b61129084828501610fbb565b60a08301525092915050565b6000602082840312156112b2576112b1610e99565b5b600082013567ffffffffffffffff8111156112d0576112cf610e9e565b5b6112dc8482850161118c565b91505092915050565b600081519050919050565b600082825260208201905092915050565b6000819050602082019050919050565b600081519050919050565b600082825260208201905092915050565b60005b8381101561134b578082015181840152602081019050611330565b60008484015250505050565b600061136282611311565b61136c818561131c565b935061137c81856020860161132d565b61138581610ead565b840191505092915050565b600061139c8383611357565b905092915050565b6000602082019050919050565b60006113bc826112e5565b6113c681856112f0565b9350836020820285016113d885611301565b8060005b8581101561141457848403895281516113f58582611390565b9450611400836113a4565b925060208a019950506001810190506113dc565b50829750879550505050505092915050565b6000602082019050818103600083015261144081846113b1565b905092915050565b61145181611120565b82525050565b61146081611032565b82525050565b61146f81611086565b82525050565b600060c08301600083015184820360008601526114928282611357565b915050602083015184820360208601526114ac8282611357565b91505060408301516114c16040860182611457565b5060608301516114d46060860182611466565b50608083015184820360808601526114ec8282611357565b91505060a083015184820360a08601526115068282611357565b9150508091505092915050565b600060408301600083015161152b6000860182611448565b50602083015184820360208601526115438282611475565b9150508091505092915050565b6000602082019050818103600083015261156a8184611513565b905092915050565b60006020828403121561158857611587610e99565b5b6000611596848285016110af565b91505092915050565b600081905092915050565b60006115b582611311565b6115bf818561159f565b93506115cf81856020860161132d565b80840191505092915050565b60006115e782846115aa565b915081905092915050565b7f4e487b7100000000000000000000000000000000000000000000000000000000600052603260045260246000fd5b7f4e487b7100000000000000000000000000000000000000000000000000000000600052602260045260246000fd5b6000600282049050600182168061166857607f821691505b60208210810361167b5761167a611621565b5b50919050565b60008190508160005260206000209050919050565b600081546116a381611650565b6116ad818661159f565b945060018216600081146116c857600181146116dd57611710565b60ff1983168652811515820286019350611710565b6116e685611681565b60005b83811015611708578154818901526001820191506020810190506116e9565b838801955050505b50505092915050565b60006117258284611696565b915081905092915050565b7f4e487b7100000000000000000000000000000000000000000000000000000000600052601160045260246000fd5b6000819050919050565b60006117748261175f565b91507fffffffffffffffffffffffffffffffffffffffffffffffffffffffffffffffff82036117a6576117a5611730565b5b600182019050919050565b600060c08301600083015184820360008601526117ce8282611357565b915050602083015184820360208601526117e88282611357565b91505060408301516117fd6040860182611457565b5060608301516118106060860182611466565b50608083015184820360808601526118288282611357565b91505060a083015184820360a08601526118428282611357565b9150508091505092915050565b6000602082019050818103600083015261186981846117b1565b905092915050565b61187a81611120565b811461188557600080fd5b50565b60008151905061189781611871565b92915050565b6000602082840312156118b3576118b2610e99565b5b60006118c184828501611888565b91505092915050565b60006020601f8301049050919050565b600082821b905092915050565b6000600883026119177fffffffffffffffffffffffffffffffffffffffffffffffffffffffffffffffff826118da565b61192186836118da565b95508019841693508086168417925050509392505050565b6000819050919050565b600061195e6119596119548461175f565b611939565b61175f565b9050919050565b6000819050919050565b61197883611943565b61198c61198482611965565b8484546118e7565b825550505050565b600090565b6119a1611994565b6119ac81848461196f565b505050565b5b818110156119d0576119c5600082611999565b6001810190506119b2565b5050565b601f821115611a15576119e681611681565b6119ef846118ca565b810160208510156119fe578190505b611a12611a0a856118ca565b8301826119b1565b50505b505050565b600082821c905092915050565b6000611a3860001984600802611a1a565b1980831691505092915050565b6000611a518383611a27565b9150826002028217905092915050565b611a6a82611311565b67ffffffffffffffff811115611a8357611a82610ebe565b5b611a8d8254611650565b611a988282856119d4565b600060209050601f831160018114611acb5760008415611ab9578287015190505b611ac38582611a45565b865550611b2b565b601f198416611ad986611681565b60005b82811015611b0157848901518255600182019150602085019450602081019050611adc565b86831015611b1e5784890151611b1a601f891682611a27565b8355505b6001600288020188555050505b50505050505056fea26469706673582212201555ab15ffb93ccb9c63647b51a582636acf43a86faeb6bc245b1cdb84b56c0a64736f6c6343000813003360806040523480156200001157600080fd5b5060405162001a6a38038062001a6a8339818101604052810190620000379190620000e9565b80600360006101000a81548173ffffffffffffffffffffffffffffffffffffffff021916908373ffffffffffffffffffffffffffffffffffffffff160217905550506200011b565b600080fd5b600073ffffffffffffffffffffffffffffffffffffffff82169050919050565b6000620000b18262000084565b9050919050565b620000c381620000a4565b8114620000cf57600080fd5b50565b600081519050620000e381620000b8565b92915050565b6000602082840312156200010257620001016200007f565b5b60006200011284828501620000d2565b91505092915050565b61193f806200012b6000396000f3fe608060405234801561001057600080fd5b50600436106100885760003560e01c8063857cdbb81161005b578063857cdbb814610139578063a240e42614610169578063b0c22a5614610199578063eeb9ab18146101c957610088565b80632b4bce8b1461008d57806367156cf1146100bd5780636f77926b146100ed57806375e9493f1461011d575b600080fd5b6100a760048036038101906100a291906111d7565b6101f9565b6040516100b4919061123b565b60405180910390f35b6100d760048036038101906100d29190611256565b610313565b6040516100e4919061134e565b60405180910390f35b61010760048036038101906101029190611256565b6104c7565b604051610114919061142d565b60405180910390f35b610137600480360381019061013291906111d7565b61088f565b005b610153600480360381019061014e9190611256565b610b1e565b604051610160919061134e565b60405180910390f35b610183600480360381019061017e9190611256565b610cd2565b604051610190919061123b565b60405180910390f35b6101b360048036038101906101ae919061144f565b610d7b565b6040516101c0919061123b565b60405180910390f35b6101e360048036038101906101de919061144f565b610db0565b6040516101f091906114c7565b60405180910390f35b60003373ffffffffffffffffffffffffffffffffffffffff16826000015173ffffffffffffffffffffffffffffffffffffffff16036103095761023f8260000151610cd2565b15801561025657506102548260200151610d7b565b155b80156102fa5750600360009054906101000a900473ffffffffffffffffffffffffffffffffffffffff1673ffffffffffffffffffffffffffffffffffffffff1663e779f450836040518263ffffffff1660e01b81526004016102b89190611553565b602060405180830381865afa1580156102d5573d6000803e3d6000fd5b505050506040513d601f19601f820116820180604052508101906102f991906115a1565b5b15610308576001905061030e565b5b600090505b919050565b61031b610e9b565b600073ffffffffffffffffffffffffffffffffffffffff166000808473ffffffffffffffffffffffffffffffffffffffff1673ffffffffffffffffffffffffffffffffffffffff16815260200190815260200160002060000160009054906101000a900473ffffffffffffffffffffffffffffffffffffffff1673ffffffffffffffffffffffffffffffffffffffff16146104985760405180604001604052806001151581526020016000808573ffffffffffffffffffffffffffffffffffffffff1673ffffffffffffffffffffffffffffffffffffffff1681526020019081526020016000206001018054610410906115fd565b80601f016020809104026020016040519081016040528092919081815260200182805461043c906115fd565b80156104895780601f1061045e57610100808354040283529160200191610489565b820191906000526020600020905b81548152906001019060200180831161046c57829003601f168201915b505050505081525090506104c2565b60405180604001604052806000151581526020016040518060200160405280600081525081525090505b919050565b6104cf610eb7565b3373ffffffffffffffffffffffffffffffffffffffff168273ffffffffffffffffffffffffffffffffffffffff160361080b57600073ffffffffffffffffffffffffffffffffffffffff166000808473ffffffffffffffffffffffffffffffffffffffff1673ffffffffffffffffffffffffffffffffffffffff16815260200190815260200160002060000160009054906101000a900473ffffffffffffffffffffffffffffffffffffffff1673ffffffffffffffffffffffffffffffffffffffff161461080a5760405180604001604052806001151581526020016000808573ffffffffffffffffffffffffffffffffffffffff1673ffffffffffffffffffffffffffffffffffffffff1681526020019081526020016000206040518060800160405290816000820160009054906101000a900473ffffffffffffffffffffffffffffffffffffffff1673ffffffffffffffffffffffffffffffffffffffff1673ffffffffffffffffffffffffffffffffffffffff16815260200160018201805461065a906115fd565b80601f0160208091040260200160405190810160405280929190818152602001828054610686906115fd565b80156106d35780601f106106a8576101008083540402835291602001916106d3565b820191906000526020600020905b8154815290600101906020018083116106b657829003601f168201915b505050505081526020016002820180546106ec906115fd565b80601f0160208091040260200160405190810160405280929190818152602001828054610718906115fd565b80156107655780601f1061073a57610100808354040283529160200191610765565b820191906000526020600020905b81548152906001019060200180831161074857829003601f168201915b5050505050815260200160038201805461077e906115fd565b80601f01602080910402602001604051908101604052809291908181526020018280546107aa906115fd565b80156107f75780601f106107cc576101008083540402835291602001916107f7565b820191906000526020600020905b8154815290600101906020018083116107da57829003601f168201915b505050505081525050815250905061088a565b5b60405180604001604052806000151581526020016040518060800160405280600073ffffffffffffffffffffffffffffffffffffffff1681526020016040518060200160405280600081525081526020016040518060200160405280600081525081526020016040518060200160405280600081525081525081525090505b919050565b3373ffffffffffffffffffffffffffffffffffffffff16816000015173ffffffffffffffffffffffffffffffffffffffff1603610b1b576108cf816101f9565b15610b1a576040518060800160405280826000015173ffffffffffffffffffffffffffffffffffffffff16815260200182602001518152602001826040015181526020018260600151815250600080836000015173ffffffffffffffffffffffffffffffffffffffff1673ffffffffffffffffffffffffffffffffffffffff16815260200190815260200160002060008201518160000160006101000a81548173ffffffffffffffffffffffffffffffffffffffff021916908373ffffffffffffffffffffffffffffffffffffffff16021790555060208201518160010190816109b991906117e4565b5060408201518160020190816109cf91906117e4565b5060608201518160030190816109e591906117e4565b509050506040518060800160405280826000015173ffffffffffffffffffffffffffffffffffffffff1681526020018260200151815260200182604001518152602001826060015181525060018260200151604051610a4491906118f2565b908152602001604051809103902060008201518160000160006101000a81548173ffffffffffffffffffffffffffffffffffffffff021916908373ffffffffffffffffffffffffffffffffffffffff1602179055506020820151816001019081610aae91906117e4565b506040820151816002019081610ac491906117e4565b506060820151816003019081610ada91906117e4565b50905050600160028260200151604051610af491906118f2565b908152602001604051809103902060006101000a81548160ff0219169083151502179055505b5b50565b610b26610e9b565b600073ffffffffffffffffffffffffffffffffffffffff166000808473ffffffffffffffffffffffffffffffffffffffff1673ffffffffffffffffffffffffffffffffffffffff16815260200190815260200160002060000160009054906101000a900473ffffffffffffffffffffffffffffffffffffffff1673ffffffffffffffffffffffffffffffffffffffff1614610ca35760405180604001604052806001151581526020016000808573ffffffffffffffffffffffffffffffffffffffff1673ffffffffffffffffffffffffffffffffffffffff1681526020019081526020016000206002018054610c1b906115fd565b80601f0160208091040260200160405190810160405280929190818152602001828054610c47906115fd565b8015610c945780601f10610c6957610100808354040283529160200191610c94565b820191906000526020600020905b815481529060010190602001808311610c7757829003601f168201915b50505050508152509050610ccd565b60405180604001604052806000151581526020016040518060200160405280600081525081525090505b919050565b60008073ffffffffffffffffffffffffffffffffffffffff166000808473ffffffffffffffffffffffffffffffffffffffff1673ffffffffffffffffffffffffffffffffffffffff16815260200190815260200160002060000160009054906101000a900473ffffffffffffffffffffffffffffffffffffffff1673ffffffffffffffffffffffffffffffffffffffff1614610d715760019050610d76565b600090505b919050565b6000600282604051610d8d91906118f2565b908152602001604051809103902060009054906101000a900460ff169050919050565b610db8610ed9565b6000600183604051610dca91906118f2565b90815260200160405180910390206001018054610de6906115fd565b90501115610e64576040518060400160405280600115158152602001600184604051610e1291906118f2565b908152602001604051809103902060000160009054906101000a900473ffffffffffffffffffffffffffffffffffffffff1673ffffffffffffffffffffffffffffffffffffffff168152509050610e96565b6040518060400160405280600015158152602001600073ffffffffffffffffffffffffffffffffffffffff1681525090505b919050565b6040518060400160405280600015158152602001606081525090565b6040518060400160405280600015158152602001610ed3610f0b565b81525090565b6040518060400160405280600015158152602001600073ffffffffffffffffffffffffffffffffffffffff1681525090565b6040518060800160405280600073ffffffffffffffffffffffffffffffffffffffff1681526020016060815260200160608152602001606081525090565b6000604051905090565b600080fd5b600080fd5b600080fd5b6000601f19601f8301169050919050565b7f4e487b7100000000000000000000000000000000000000000000000000000000600052604160045260246000fd5b610fab82610f62565b810181811067ffffffffffffffff82111715610fca57610fc9610f73565b5b80604052505050565b6000610fdd610f49565b9050610fe98282610fa2565b919050565b600080fd5b600073ffffffffffffffffffffffffffffffffffffffff82169050919050565b600061101e82610ff3565b9050919050565b61102e81611013565b811461103957600080fd5b50565b60008135905061104b81611025565b92915050565b600080fd5b600080fd5b600067ffffffffffffffff82111561107657611075610f73565b5b61107f82610f62565b9050602081019050919050565b82818337600083830152505050565b60006110ae6110a98461105b565b610fd3565b9050828152602081018484840111156110ca576110c9611056565b5b6110d584828561108c565b509392505050565b600082601f8301126110f2576110f1611051565b5b813561110284826020860161109b565b91505092915050565b60006080828403121561112157611120610f5d565b5b61112b6080610fd3565b9050600061113b8482850161103c565b600083015250602082013567ffffffffffffffff81111561115f5761115e610fee565b5b61116b848285016110dd565b602083015250604082013567ffffffffffffffff81111561118f5761118e610fee565b5b61119b848285016110dd565b604083015250606082013567ffffffffffffffff8111156111bf576111be610fee565b5b6111cb848285016110dd565b60608301525092915050565b6000602082840312156111ed576111ec610f53565b5b600082013567ffffffffffffffff81111561120b5761120a610f58565b5b6112178482850161110b565b91505092915050565b60008115159050919050565b61123581611220565b82525050565b6000602082019050611250600083018461122c565b92915050565b60006020828403121561126c5761126b610f53565b5b600061127a8482850161103c565b91505092915050565b61128c81611220565b82525050565b600081519050919050565b600082825260208201905092915050565b60005b838110156112cc5780820151818401526020810190506112b1565b60008484015250505050565b60006112e382611292565b6112ed818561129d565b93506112fd8185602086016112ae565b61130681610f62565b840191505092915050565b60006040830160008301516113296000860182611283565b506020830151848203602086015261134182826112d8565b9150508091505092915050565b600060208201905081810360008301526113688184611311565b905092915050565b61137981611013565b82525050565b60006080830160008301516113976000860182611370565b50602083015184820360208601526113af82826112d8565b915050604083015184820360408601526113c982826112d8565b915050606083015184820360608601526113e382826112d8565b9150508091505092915050565b60006040830160008301516114086000860182611283565b5060208301518482036020860152611420828261137f565b9150508091505092915050565b6000602082019050818103600083015261144781846113f0565b905092915050565b60006020828403121561146557611464610f53565b5b600082013567ffffffffffffffff81111561148357611482610f58565b5b61148f848285016110dd565b91505092915050565b6040820160008201516114ae6000850182611283565b5060208201516114c16020850182611370565b50505050565b60006040820190506114dc6000830184611498565b92915050565b60006080830160008301516114fa6000860182611370565b506020830151848203602086015261151282826112d8565b9150506040830151848203604086015261152c82826112d8565b9150506060830151848203606086015261154682826112d8565b9150508091505092915050565b6000602082019050818103600083015261156d81846114e2565b905092915050565b61157e81611220565b811461158957600080fd5b50565b60008151905061159b81611575565b92915050565b6000602082840312156115b7576115b6610f53565b5b60006115c58482850161158c565b91505092915050565b7f4e487b7100000000000000000000000000000000000000000000000000000000600052602260045260246000fd5b6000600282049050600182168061161557607f821691505b602082108103611628576116276115ce565b5b50919050565b60008190508160005260206000209050919050565b60006020601f8301049050919050565b600082821b905092915050565b6000600883026116907fffffffffffffffffffffffffffffffffffffffffffffffffffffffffffffffff82611653565b61169a8683611653565b95508019841693508086168417925050509392505050565b6000819050919050565b6000819050919050565b60006116e16116dc6116d7846116b2565b6116bc565b6116b2565b9050919050565b6000819050919050565b6116fb836116c6565b61170f611707826116e8565b848454611660565b825550505050565b600090565b611724611717565b61172f8184846116f2565b505050565b5b818110156117535761174860008261171c565b600181019050611735565b5050565b601f821115611798576117698161162e565b61177284611643565b81016020851015611781578190505b61179561178d85611643565b830182611734565b50505b505050565b600082821c905092915050565b60006117bb6000198460080261179d565b1980831691505092915050565b60006117d483836117aa565b9150826002028217905092915050565b6117ed82611292565b67ffffffffffffffff81111561180657611805610f73565b5b61181082546115fd565b61181b828285611757565b600060209050601f83116001811461184e576000841561183c578287015190505b61184685826117c8565b8655506118ae565b601f19841661185c8661162e565b60005b828110156118845784890151825560018201915060208501945060208101905061185f565b868310156118a1578489015161189d601f8916826117aa565b8355505b6001600288020188555050505b505050505050565b600081905092915050565b60006118cc82611292565b6118d681856118b6565b93506118e68185602086016112ae565b80840191505092915050565b60006118fe82846118c1565b91508190509291505056fea264697066735822122033a650e832aad81825e152df30e48aff72e6aea509f58d9e06c29faed088ad9764736f6c63430008130033608060405234801561001057600080fd5b5033600160006101000a81548173ffffffffffffffffffffffffffffffffffffffff021916908373ffffffffffffffffffffffffffffffffffffffff16021790555033600260006101000a81548173ffffffffffffffffffffffffffffffffffffffff021916908373ffffffffffffffffffffffffffffffffffffffff1602179055506113e1806100a26000396000f3fe608060405234801561001057600080fd5b50600436106100365760003560e01c8063759ab1851461003b578063c47ebddc1461006b575b600080fd5b61005560048036038101906100509190610a68565b610087565b6040516100629190610d3b565b60405180910390f35b61008560048036038101906100809190610d89565b6105e7565b005b61008f6107aa565b6000808054905067ffffffffffffffff8111156100af576100ae610852565b5b6040519080825280602002602001820160405280156100e857816020015b6100d56107c6565b8152602001906001900390816100cd5790505b5090506000805b845181101561054457600160009054906101000a900473ffffffffffffffffffffffffffffffffffffffff1673ffffffffffffffffffffffffffffffffffffffff16631ac47dd03387848151811061014a57610149610e58565b5b60200260200101516040518363ffffffff1660e01b815260040161016f929190610ee0565b602060405180830381865afa15801561018c573d6000803e3d6000fd5b505050506040513d601f19601f820116820180604052508101906101b09190610f3c565b156105315760005b60008054905081101561052f578582815181106101d8576101d7610e58565b5b60200260200101516040516020016101f09190610fa5565b604051602081830303815290604052805190602001206000828154811061021a57610219610e58565b5b906000526020600020906006020160000160405160200161023b91906110b4565b604051602081830303815290604052805190602001200361051c576000818154811061026a57610269610e58565b5b90600052602060002090600602016040518060c001604052908160008201805461029390610feb565b80601f01602080910402602001604051908101604052809291908181526020018280546102bf90610feb565b801561030c5780601f106102e15761010080835404028352916020019161030c565b820191906000526020600020905b8154815290600101906020018083116102ef57829003601f168201915b505050505081526020016001820160009054906101000a900473ffffffffffffffffffffffffffffffffffffffff1673ffffffffffffffffffffffffffffffffffffffff1673ffffffffffffffffffffffffffffffffffffffff1681526020016002820154815260200160038201805461038590610feb565b80601f01602080910402602001604051908101604052809291908181526020018280546103b190610feb565b80156103fe5780601f106103d3576101008083540402835291602001916103fe565b820191906000526020600020905b8154815290600101906020018083116103e157829003601f168201915b5050505050815260200160048201805461041790610feb565b80601f016020809104026020016040519081016040528092919081815260200182805461044390610feb565b80156104905780601f1061046557610100808354040283529160200191610490565b820191906000526020600020905b81548152906001019060200180831161047357829003601f168201915b505050505081526020016005820160009054906101000a900473ffffffffffffffffffffffffffffffffffffffff1673ffffffffffffffffffffffffffffffffffffffff1673ffffffffffffffffffffffffffffffffffffffff168152505084848151811061050257610501610e58565b5b60200260200101819052508280610518906110fa565b9350505b8080610527906110fa565b9150506101b8565b505b808061053c906110fa565b9150506100ef565b508082526000811461057157604051806040016040528060011515815260200183815250925050506105e2565b6040518060400160405280600015158152602001600067ffffffffffffffff8111156105a05761059f610852565b5b6040519080825280602002602001820160405280156105d957816020015b6105c66107c6565b8152602001906001900390816105be5790505b50815250925050505b919050565b600260009054906101000a900473ffffffffffffffffffffffffffffffffffffffff1673ffffffffffffffffffffffffffffffffffffffff163373ffffffffffffffffffffffffffffffffffffffff16036107a35760006040518060c001604052808681526020018573ffffffffffffffffffffffffffffffffffffffff1681526020014281526020018381526020018481526020018773ffffffffffffffffffffffffffffffffffffffff168152509050600081908060018154018082558091505060019003906000526020600020906006020160009091909190915060008201518160000190816106da91906112d9565b5060208201518160010160006101000a81548173ffffffffffffffffffffffffffffffffffffffff021916908373ffffffffffffffffffffffffffffffffffffffff16021790555060408201518160020155606082015181600301908161074191906112d9565b50608082015181600401908161075791906112d9565b5060a08201518160050160006101000a81548173ffffffffffffffffffffffffffffffffffffffff021916908373ffffffffffffffffffffffffffffffffffffffff1602179055505050505b5050505050565b6040518060400160405280600015158152602001606081525090565b6040518060c0016040528060608152602001600073ffffffffffffffffffffffffffffffffffffffff168152602001600081526020016060815260200160608152602001600073ffffffffffffffffffffffffffffffffffffffff1681525090565b6000604051905090565b600080fd5b600080fd5b600080fd5b6000601f19601f8301169050919050565b7f4e487b7100000000000000000000000000000000000000000000000000000000600052604160045260246000fd5b61088a82610841565b810181811067ffffffffffffffff821117156108a9576108a8610852565b5b80604052505050565b60006108bc610828565b90506108c88282610881565b919050565b600067ffffffffffffffff8211156108e8576108e7610852565b5b602082029050602081019050919050565b600080fd5b600080fd5b600067ffffffffffffffff82111561091e5761091d610852565b5b61092782610841565b9050602081019050919050565b82818337600083830152505050565b600061095661095184610903565b6108b2565b905082815260208101848484011115610972576109716108fe565b5b61097d848285610934565b509392505050565b600082601f83011261099a5761099961083c565b5b81356109aa848260208601610943565b91505092915050565b60006109c66109c1846108cd565b6108b2565b905080838252602082019050602084028301858111156109e9576109e86108f9565b5b835b81811015610a3057803567ffffffffffffffff811115610a0e57610a0d61083c565b5b808601610a1b8982610985565b855260208501945050506020810190506109eb565b5050509392505050565b600082601f830112610a4f57610a4e61083c565b5b8135610a5f8482602086016109b3565b91505092915050565b600060208284031215610a7e57610a7d610832565b5b600082013567ffffffffffffffff811115610a9c57610a9b610837565b5b610aa884828501610a3a565b91505092915050565b60008115159050919050565b610ac681610ab1565b82525050565b600081519050919050565b600082825260208201905092915050565b6000819050602082019050919050565b600081519050919050565b600082825260208201905092915050565b60005b83811015610b32578082015181840152602081019050610b17565b60008484015250505050565b6000610b4982610af8565b610b538185610b03565b9350610b63818560208601610b14565b610b6c81610841565b840191505092915050565b600073ffffffffffffffffffffffffffffffffffffffff82169050919050565b6000610ba282610b77565b9050919050565b610bb281610b97565b82525050565b6000819050919050565b610bcb81610bb8565b82525050565b600060c0830160008301518482036000860152610bee8282610b3e565b9150506020830151610c036020860182610ba9565b506040830151610c166040860182610bc2565b5060608301518482036060860152610c2e8282610b3e565b91505060808301518482036080860152610c488282610b3e565b91505060a0830151610c5d60a0860182610ba9565b508091505092915050565b6000610c748383610bd1565b905092915050565b6000602082019050919050565b6000610c9482610acc565b610c9e8185610ad7565b935083602082028501610cb085610ae8565b8060005b85811015610cec5784840389528151610ccd8582610c68565b9450610cd883610c7c565b925060208a01995050600181019050610cb4565b50829750879550505050505092915050565b6000604083016000830151610d166000860182610abd565b5060208301518482036020860152610d2e8282610c89565b9150508091505092915050565b60006020820190508181036000830152610d558184610cfe565b905092915050565b610d6681610b97565b8114610d7157600080fd5b50565b600081359050610d8381610d5d565b92915050565b600080600080600060a08688031215610da557610da4610832565b5b6000610db388828901610d74565b955050602086013567ffffffffffffffff811115610dd457610dd3610837565b5b610de088828901610985565b9450506040610df188828901610d74565b935050606086013567ffffffffffffffff811115610e1257610e11610837565b5b610e1e88828901610985565b925050608086013567ffffffffffffffff811115610e3f57610e3e610837565b5b610e4b88828901610985565b9150509295509295909350565b7f4e487b7100000000000000000000000000000000000000000000000000000000600052603260045260246000fd5b610e9081610b97565b82525050565b600082825260208201905092915050565b6000610eb282610af8565b610ebc8185610e96565b9350610ecc818560208601610b14565b610ed581610841565b840191505092915050565b6000604082019050610ef56000830185610e87565b8181036020830152610f078184610ea7565b90509392505050565b610f1981610ab1565b8114610f2457600080fd5b50565b600081519050610f3681610f10565b92915050565b600060208284031215610f5257610f51610832565b5b6000610f6084828501610f27565b91505092915050565b600081905092915050565b6000610f7f82610af8565b610f898185610f69565b9350610f99818560208601610b14565b80840191505092915050565b6000610fb18284610f74565b915081905092915050565b7f4e487b7100000000000000000000000000000000000000000000000000000000600052602260045260246000fd5b6000600282049050600182168061100357607f821691505b60208210810361101657611015610fbc565b5b50919050565b60008190508160005260206000209050919050565b6000815461103e81610feb565b6110488186610f69565b945060018216600081146110635760018114611078576110ab565b60ff19831686528115158202860193506110ab565b6110818561101c565b60005b838110156110a357815481890152600182019150602081019050611084565b838801955050505b50505092915050565b60006110c08284611031565b915081905092915050565b7f4e487b7100000000000000000000000000000000000000000000000000000000600052601160045260246000fd5b600061110582610bb8565b91507fffffffffffffffffffffffffffffffffffffffffffffffffffffffffffffffff8203611137576111366110cb565b5b600182019050919050565b60006020601f8301049050919050565b600082821b905092915050565b60006008830261118f7fffffffffffffffffffffffffffffffffffffffffffffffffffffffffffffffff82611152565b6111998683611152565b95508019841693508086168417925050509392505050565b6000819050919050565b60006111d66111d16111cc84610bb8565b6111b1565b610bb8565b9050919050565b6000819050919050565b6111f0836111bb565b6112046111fc826111dd565b84845461115f565b825550505050565b600090565b61121961120c565b6112248184846111e7565b505050565b5b818110156112485761123d600082611211565b60018101905061122a565b5050565b601f82111561128d5761125e8161101c565b61126784611142565b81016020851015611276578190505b61128a61128285611142565b830182611229565b50505b505050565b600082821c905092915050565b60006112b060001984600802611292565b1980831691505092915050565b60006112c9838361129f565b9150826002028217905092915050565b6112e282610af8565b67ffffffffffffffff8111156112fb576112fa610852565b5b6113058254610feb565b61131082828561124c565b600060209050601f8311600181146113435760008415611331578287015190505b61133b85826112bd565b8655506113a3565b601f1984166113518661101c565b60005b8281101561137957848901518255600182019150602085019450602081019050611354565b868310156113965784890151611392601f89168261129f565b8355505b6001600288020188555050505b50505050505056fea2646970667358221220558117ccc43b4d280f68c0803967c67bdea563bae21c0b55abae550e16a91b6364736f6c63430008130033",
  "linkReferences": {},
  "deployedLinkReferences": {}
}