{
  "_format": "hh-sol-artifact-1",
  "contractName": "AccessControl",
  "sourceName": "contracts/AccessControl.sol",
  "abi": [
    {
      "inputs": [
        {
          "internalType": "address",
          "name": "helperContract",
          "type": "address"
        }
      ],
      "stateMutability": "nonpayable",
      "type": "constructor"
    },
    {
      "anonymous": false,
      "inputs": [
        {
          "indexed": true,
          "internalType": "address",
          "name": "userAccount",
          "type": "address"
        },
        {
          "indexed": false,
          "internalType": "string",
          "name": "fileIpfsCID",
          "type": "string"
        },
        {
          "indexed": false,
          "internalType": "string",
          "name": "permissionsOwner",
          "type": "string"
        },
        {
          "indexed": false,
          "internalType": "string",
          "name": "action",
          "type": "string"
        }
      ],
      "name": "FileActionLog",
      "type": "event"
    },
    {
      "inputs": [
        {
          "internalType": "address",
          "name": "userAccount",
          "type": "address"
        },
        {
          "internalType": "string",
          "name": "fileIpfsCid",
          "type": "string"
        }
      ],
      "name": "deactivateFile",
      "outputs": [],
      "stateMutability": "nonpayable",
      "type": "function"
    },
    {
      "inputs": [
        {
          "internalType": "string",
          "name": "fileIpfsCid",
          "type": "string"
        },
        {
          "internalType": "address",
          "name": "userAccount",
          "type": "address"
        }
      ],
      "name": "downloadFileAudit",
      "outputs": [],
      "stateMutability": "nonpayable",
      "type": "function"
    },
    {
      "inputs": [
        {
          "internalType": "address",
          "name": "userAccount",
          "type": "address"
        },
        {
          "internalType": "string",
          "name": "fileIpfsCID",
          "type": "string"
        }
      ],
      "name": "elegibleToShare",
      "outputs": [
        {
          "internalType": "bool",
          "name": "",
          "type": "bool"
        }
      ],
      "stateMutability": "view",
      "type": "function"
    },
    {
      "inputs": [
        {
          "internalType": "address",
          "name": "userAccount",
          "type": "address"
        },
        {
          "internalType": "string",
          "name": "fileIpfsCID",
          "type": "string"
        }
      ],
      "name": "elegibleToUpdPermissions",
      "outputs": [
        {
          "internalType": "bool",
          "name": "",
          "type": "bool"
        }
      ],
      "stateMutability": "view",
      "type": "function"
    },
    {
      "inputs": [
        {
          "internalType": "address",
          "name": "userAccount",
          "type": "address"
        },
        {
          "internalType": "string",
          "name": "fileIpfsCID",
          "type": "string"
        }
      ],
      "name": "elegibleToUpload",
      "outputs": [
        {
          "internalType": "bool",
          "name": "",
          "type": "bool"
        }
      ],
      "stateMutability": "view",
      "type": "function"
    },
    {
      "inputs": [],
      "name": "getAuditLogControlAddress",
      "outputs": [
        {
          "internalType": "address",
          "name": "",
          "type": "address"
        }
      ],
      "stateMutability": "view",
      "type": "function"
    },
    {
      "inputs": [
        {
          "internalType": "address",
          "name": "accountUser",
          "type": "address"
        },
        {
          "internalType": "string",
          "name": "fileIpfsCID",
          "type": "string"
        }
      ],
      "name": "getEncSymmetricKeyFileUser",
      "outputs": [
        {
          "components": [
            {
              "internalType": "bool",
              "name": "success",
              "type": "bool"
            },
            {
              "internalType": "string",
              "name": "resultString",
              "type": "string"
            }
          ],
          "internalType": "struct Helper.ResultString",
          "name": "",
          "type": "tuple"
        }
      ],
      "stateMutability": "view",
      "type": "function"
    },
    {
      "inputs": [],
      "name": "getFileRegisterAddress",
      "outputs": [
        {
          "internalType": "address",
          "name": "",
          "type": "address"
        }
      ],
      "stateMutability": "view",
      "type": "function"
    },
    {
      "inputs": [
        {
          "internalType": "address",
          "name": "userAccount",
          "type": "address"
        },
        {
          "internalType": "string",
          "name": "fileIpfsCID",
          "type": "string"
        }
      ],
      "name": "getPermissionsOverFile",
      "outputs": [
        {
          "components": [
            {
              "internalType": "bool",
              "name": "success",
              "type": "bool"
            },
            {
              "internalType": "string[]",
              "name": "resultStrings",
              "type": "string[]"
            }
          ],
          "internalType": "struct Helper.ResultStringArray",
          "name": "",
          "type": "tuple"
        }
      ],
      "stateMutability": "view",
      "type": "function"
    },
    {
      "inputs": [
        {
          "internalType": "address",
          "name": "account",
          "type": "address"
        },
        {
          "internalType": "string",
          "name": "state",
          "type": "string"
        }
      ],
      "name": "getUserFiles",
      "outputs": [
        {
          "components": [
            {
              "internalType": "bool",
              "name": "success",
              "type": "bool"
            },
            {
              "components": [
                {
                  "internalType": "string",
                  "name": "ipfsCID",
                  "type": "string"
                },
                {
                  "internalType": "string",
                  "name": "fileName",
                  "type": "string"
                },
                {
                  "internalType": "int256",
                  "name": "version",
                  "type": "int256"
                },
                {
                  "internalType": "address",
                  "name": "owner",
                  "type": "address"
                },
                {
                  "internalType": "string",
                  "name": "fileType",
                  "type": "string"
                },
                {
                  "internalType": "string",
                  "name": "iv",
                  "type": "string"
                },
                {
                  "internalType": "string",
                  "name": "state",
                  "type": "string"
                }
              ],
              "internalType": "struct FileRegister.File[]",
              "name": "files",
              "type": "tuple[]"
            }
          ],
          "internalType": "struct FileRegister.ResultFiles",
          "name": "",
          "type": "tuple"
        }
      ],
      "stateMutability": "view",
      "type": "function"
    },
    {
      "inputs": [],
      "name": "getUserRegisterAddress",
      "outputs": [
        {
          "internalType": "address",
          "name": "",
          "type": "address"
        }
      ],
      "stateMutability": "view",
      "type": "function"
    },
    {
      "inputs": [
        {
          "internalType": "address",
          "name": "accountInput",
          "type": "address"
        },
        {
          "internalType": "address",
          "name": "accountList",
          "type": "address"
        },
        {
          "internalType": "string",
          "name": "ipfsCIDInput",
          "type": "string"
        },
        {
          "internalType": "string",
          "name": "ipfsCIDList",
          "type": "string"
        }
      ],
      "name": "isKeyEqual",
      "outputs": [
        {
          "internalType": "bool",
          "name": "",
          "type": "bool"
        }
      ],
      "stateMutability": "pure",
      "type": "function"
    },
    {
      "inputs": [
        {
          "internalType": "string",
          "name": "fileIpfsCID",
          "type": "string"
        }
      ],
      "name": "messageSenderAssociatedToFile",
      "outputs": [
        {
          "internalType": "bool",
          "name": "",
          "type": "bool"
        }
      ],
      "stateMutability": "view",
      "type": "function"
    },
    {
      "inputs": [
        {
          "internalType": "address",
          "name": "userAccount",
          "type": "address"
        },
        {
          "internalType": "string",
          "name": "fileIpfsCID",
          "type": "string"
        },
        {
          "internalType": "string",
          "name": "encSymmetricKey",
          "type": "string"
        },
        {
          "internalType": "string[]",
          "name": "permissions",
          "type": "string[]"
        }
      ],
      "name": "shareFile",
      "outputs": [],
      "stateMutability": "nonpayable",
      "type": "function"
    },
    {
      "inputs": [
        {
          "internalType": "address",
          "name": "userAccount",
          "type": "address"
        },
        {
          "internalType": "string",
          "name": "fileIpfsCID",
          "type": "string"
        },
        {
          "internalType": "string[]",
          "name": "permissions",
          "type": "string[]"
        }
      ],
      "name": "updateUserFilePermissions",
      "outputs": [],
      "stateMutability": "nonpayable",
      "type": "function"
    },
    {
      "inputs": [
        {
          "internalType": "address",
          "name": "userAccount",
          "type": "address"
        },
        {
          "components": [
            {
              "internalType": "string",
              "name": "ipfsCID",
              "type": "string"
            },
            {
              "internalType": "string",
              "name": "fileName",
              "type": "string"
            },
            {
              "internalType": "int256",
              "name": "version",
              "type": "int256"
            },
            {
              "internalType": "address",
              "name": "owner",
              "type": "address"
            },
            {
              "internalType": "string",
              "name": "fileType",
              "type": "string"
            },
            {
              "internalType": "string",
              "name": "iv",
              "type": "string"
            },
            {
              "internalType": "string",
              "name": "state",
              "type": "string"
            }
          ],
          "internalType": "struct FileRegister.File",
          "name": "file",
          "type": "tuple"
        },
        {
          "internalType": "string",
          "name": "encSymmetricKey",
          "type": "string"
        }
      ],
      "name": "uploadFile",
      "outputs": [],
      "stateMutability": "nonpayable",
      "type": "function"
    },
    {
      "inputs": [
        {
          "internalType": "address",
          "name": "userAccount",
          "type": "address"
        },
        {
          "internalType": "string",
          "name": "fileIpfsCID",
          "type": "string"
        }
      ],
      "name": "userAssociatedWithFile",
      "outputs": [
        {
          "internalType": "bool",
          "name": "",
          "type": "bool"
        }
      ],
      "stateMutability": "view",
      "type": "function"
    },
    {
      "inputs": [
        {
          "internalType": "address",
          "name": "userAccount",
          "type": "address"
        },
        {
          "internalType": "string",
          "name": "fileName",
          "type": "string"
        }
      ],
      "name": "userAssociatedWithFileName",
      "outputs": [
        {
          "internalType": "bool",
          "name": "",
          "type": "bool"
        }
      ],
      "stateMutability": "view",
      "type": "function"
    },
    {
      "inputs": [
        {
          "internalType": "address",
          "name": "userAccount",
          "type": "address"
        },
        {
          "internalType": "string",
          "name": "fileIpfsCID",
          "type": "string"
        },
        {
          "internalType": "string",
          "name": "permission",
          "type": "string"
        }
      ],
      "name": "userHasPermissionOverFile",
      "outputs": [
        {
          "internalType": "bool",
          "name": "",
          "type": "bool"
        }
      ],
      "stateMutability": "view",
      "type": "function"
    }
  ],
  "bytecode": "0x60806040523480156200001157600080fd5b506040516200a3b33803806200a3b383398181016040528101906200003791906200028c565b80600460006101000a81548173ffffffffffffffffffffffffffffffffffffffff021916908373ffffffffffffffffffffffffffffffffffffffff160217905550806040516200008790620001f8565b620000939190620002cf565b604051809103906000f080158015620000b0573d6000803e3d6000fd5b50600160006101000a81548173ffffffffffffffffffffffffffffffffffffffff021916908373ffffffffffffffffffffffffffffffffffffffff16021790555080604051620001009062000206565b6200010c9190620002cf565b604051809103906000f08015801562000129573d6000803e3d6000fd5b50600260006101000a81548173ffffffffffffffffffffffffffffffffffffffff021916908373ffffffffffffffffffffffffffffffffffffffff160217905550604051620001789062000214565b604051809103906000f08015801562000195573d6000803e3d6000fd5b50600360006101000a81548173ffffffffffffffffffffffffffffffffffffffff021916908373ffffffffffffffffffffffffffffffffffffffff1602179055506000600460146101000a81548160ff02191690831515021790555050620002ec565b61235a806200516c83390190565b611a6a80620074c683390190565b6114838062008f3083390190565b600080fd5b600073ffffffffffffffffffffffffffffffffffffffff82169050919050565b6000620002548262000227565b9050919050565b620002668162000247565b81146200027257600080fd5b50565b60008151905062000286816200025b565b92915050565b600060208284031215620002a557620002a462000222565b5b6000620002b58482850162000275565b91505092915050565b620002c98162000247565b82525050565b6000602082019050620002e66000830184620002be565b92915050565b614e7080620002fc6000396000f3fe608060405234801561001057600080fd5b50600436106101205760003560e01c806367cc916b116100ad578063b6d234df11610071578063b6d234df14610351578063b714fb2014610381578063c19dcf891461039f578063c61e6663146103cf578063dee63aa1146103eb57610120565b806367cc916b1461029b578063874a22ed146102b75780638af34fbc146102d5578063a126d94c146102f1578063b58ea3a21461032157610120565b80632321f318116100f45780632321f318146101d1578063299768c8146102015780635c99c71b146102315780635dab19e414610261578063600d07641461027f57610120565b8062c5e614146101255780630976372714610141578063173cd558146101715780631ac47dd0146101a1575b600080fd5b61013f600480360381019061013a91906132a2565b61041b565b005b61015b6004803603810190610156919061335d565b61070c565b6040516101689190613632565b60405180910390f35b61018b6004803603810190610186919061335d565b610be9565b6040516101989190613753565b60405180910390f35b6101bb60048036038101906101b6919061335d565b610fa2565b6040516101c89190613784565b60405180910390f35b6101eb60048036038101906101e6919061335d565b61123f565b6040516101f89190613784565b60405180910390f35b61021b6004803603810190610216919061379f565b611471565b6040516102289190613784565b60405180910390f35b61024b600480360381019061024691906137e8565b6116a9565b6040516102589190613784565b60405180910390f35b61026961173b565b6040516102769190613896565b60405180910390f35b61029960048036038101906102949190613a27565b611765565b005b6102b560048036038101906102b09190613ab2565b611c4b565b005b6102bf611e55565b6040516102cc9190613896565b60405180910390f35b6102ef60048036038101906102ea9190613b0e565b611e7f565b005b61030b6004803603810190610306919061335d565b61212f565b6040516103189190613bd6565b60405180910390f35b61033b6004803603810190610336919061335d565b61249a565b6040516103489190613784565b60405180910390f35b61036b60048036038101906103669190613bf8565b612827565b6040516103789190613784565b60405180910390f35b6103896128e8565b6040516103969190613896565b60405180910390f35b6103b960048036038101906103b4919061335d565b612912565b6040516103c69190613784565b60405180910390f35b6103e960048036038101906103e4919061335d565b612b22565b005b6104056004803603810190610400919061335d565b612d82565b6040516104129190613784565b60405180910390f35b610425848461249a565b15610706576000600460009054906101000a900473ffffffffffffffffffffffffffffffffffffffff1673ffffffffffffffffffffffffffffffffffffffff16631c209e7c868686866040518563ffffffff1660e01b815260040161048d9493929190613d79565b602060405180830381865afa1580156104aa573d6000803e3d6000fd5b505050506040513d601f19601f820116820180604052508101906104ce9190613e12565b9050801561070457600060405180608001604052808773ffffffffffffffffffffffffffffffffffffffff168152602001868152602001858152602001848152509050600081908060018154018082558091505060019003906000526020600020906004020160009091909190915060008201518160000160006101000a81548173ffffffffffffffffffffffffffffffffffffffff021916908373ffffffffffffffffffffffffffffffffffffffff16021790555060208201518160010190816105999190614055565b5060408201518160020190816105af9190614055565b5060608201518160030190805190602001906105cc929190612e83565b505050600360009054906101000a900473ffffffffffffffffffffffffffffffffffffffff1673ffffffffffffffffffffffffffffffffffffffff1663c47ebddc338789600460009054906101000a900473ffffffffffffffffffffffffffffffffffffffff1673ffffffffffffffffffffffffffffffffffffffff16636bb8d768896040518263ffffffff1660e01b815260040161066b9190614127565b600060405180830381865afa158015610688573d6000803e3d6000fd5b505050506040513d6000823e3d601f19601f820116820180604052508101906106b191906141b9565b6040518563ffffffff1660e01b81526004016106d0949392919061424e565b600060405180830381600087803b1580156106ea57600080fd5b505af11580156106fe573d6000803e3d6000fd5b50505050505b505b50505050565b610714612edc565b8273ffffffffffffffffffffffffffffffffffffffff163373ffffffffffffffffffffffffffffffffffffffff1603610b74576000808054905067ffffffffffffffff81111561076757610766613091565b5b6040519080825280602002602001820160405280156107a057816020015b61078d612ef8565b8152602001906001900390816107855790505b5090506000805b600080549050811015610b44578573ffffffffffffffffffffffffffffffffffffffff16600082815481106107df576107de6142b4565b5b906000526020600020906004020160000160009054906101000a900473ffffffffffffffffffffffffffffffffffffffff1673ffffffffffffffffffffffffffffffffffffffff1614801561099a5750600160009054906101000a900473ffffffffffffffffffffffffffffffffffffffff1673ffffffffffffffffffffffffffffffffffffffff1662438ceb600083815481106108805761087f6142b4565b5b90600052602060002090600402016001016040518263ffffffff1660e01b81526004016108ad9190614367565b600060405180830381865afa1580156108ca573d6000803e3d6000fd5b505050506040513d6000823e3d601f19601f820116820180604052508101906108f391906143f5565b60200151604051602001610907919061447a565b604051602081830303815290604052805190602001208560405160200161092e919061447a565b604051602081830303815290604052805190602001201480610999575060405160200161095a906144b4565b6040516020818303038152906040528051906020012085604051602001610981919061447a565b60405160208183030381529060405280519060200120145b5b15610b315760008082815481106109b4576109b36142b4565b5b906000526020600020906004020160010180546109d090613e6e565b80601f01602080910402602001604051908101604052809291908181526020018280546109fc90613e6e565b8015610a495780601f10610a1e57610100808354040283529160200191610a49565b820191906000526020600020905b815481529060010190602001808311610a2c57829003601f168201915b505050505090506000600160009054906101000a900473ffffffffffffffffffffffffffffffffffffffff1673ffffffffffffffffffffffffffffffffffffffff166347eb6fa783896040518363ffffffff1660e01b8152600401610aaf9291906144c9565b600060405180830381865afa158015610acc573d6000803e3d6000fd5b505050506040513d6000823e3d601f19601f82011682018060405250810190610af591906146d6565b905060008160200151905080868681518110610b1457610b136142b4565b5b60200260200101819052508480610b2a9061474e565b9550505050505b8080610b3c9061474e565b9150506107a7565b5080825260008114610b715760405180604001604052806001151581526020018381525092505050610be3565b50505b6040518060400160405280600015158152602001600067ffffffffffffffff811115610ba357610ba2613091565b5b604051908082528060200260200182016040528015610bdc57816020015b610bc9612ef8565b815260200190600190039081610bc15790505b5081525090505b92915050565b610bf1612f4b565b610bfa82611471565b8015610cf25750604051602001610c10906147e2565b60405160208183030381529060405280519060200120600160009054906101000a900473ffffffffffffffffffffffffffffffffffffffff1673ffffffffffffffffffffffffffffffffffffffff1662438ceb846040518263ffffffff1660e01b8152600401610c8091906147f7565b600060405180830381865afa158015610c9d573d6000803e3d6000fd5b505050506040513d6000823e3d601f19601f82011682018060405250810190610cc691906143f5565b60200151604051602001610cda919061447a565b60405160208183030381529060405280519060200120145b15610f335760005b600080549050811015610f3157610e058460008381548110610d1f57610d1e6142b4565b5b906000526020600020906004020160000160009054906101000a900473ffffffffffffffffffffffffffffffffffffffff168560008581548110610d6657610d656142b4565b5b90600052602060002090600402016001018054610d8290613e6e565b80601f0160208091040260200160405190810160405280929190818152602001828054610dae90613e6e565b8015610dfb5780601f10610dd057610100808354040283529160200191610dfb565b820191906000526020600020905b815481529060010190602001808311610dde57829003601f168201915b50505050506116a9565b15610f1e57604051806040016040528060011515815260200160008381548110610e3257610e316142b4565b5b9060005260206000209060040201600301805480602002602001604051908101604052809291908181526020016000905b82821015610f0f578382906000526020600020018054610e8290613e6e565b80601f0160208091040260200160405190810160405280929190818152602001828054610eae90613e6e565b8015610efb5780601f10610ed057610100808354040283529160200191610efb565b820191906000526020600020905b815481529060010190602001808311610ede57829003601f168201915b505050505081526020019060010190610e63565b50505050815250915050610f9c565b8080610f299061474e565b915050610cfa565b505b6040518060400160405280600015158152602001600067ffffffffffffffff811115610f6257610f61613091565b5b604051908082528060200260200182016040528015610f9557816020015b6060815260200190600190039081610f805790505b5081525090505b92915050565b6000610fad82611471565b806110055750600360009054906101000a900473ffffffffffffffffffffffffffffffffffffffff1673ffffffffffffffffffffffffffffffffffffffff163373ffffffffffffffffffffffffffffffffffffffff16145b80156110fd575060405160200161101b906147e2565b60405160208183030381529060405280519060200120600160009054906101000a900473ffffffffffffffffffffffffffffffffffffffff1673ffffffffffffffffffffffffffffffffffffffff1662438ceb846040518263ffffffff1660e01b815260040161108b91906147f7565b600060405180830381865afa1580156110a8573d6000803e3d6000fd5b505050506040513d6000823e3d601f19601f820116820180604052508101906110d191906143f5565b602001516040516020016110e5919061447a565b60405160208183030381529060405280519060200120145b156112345760005b60008054905081101561123257611210846000838154811061112a576111296142b4565b5b906000526020600020906004020160000160009054906101000a900473ffffffffffffffffffffffffffffffffffffffff168560008581548110611171576111706142b4565b5b9060005260206000209060040201600101805461118d90613e6e565b80601f01602080910402602001604051908101604052809291908181526020018280546111b990613e6e565b80156112065780601f106111db57610100808354040283529160200191611206565b820191906000526020600020905b8154815290600101906020018083116111e957829003601f168201915b50505050506116a9565b1561121f576001915050611239565b808061122a9061474e565b915050611105565b505b600090505b92915050565b60008273ffffffffffffffffffffffffffffffffffffffff163373ffffffffffffffffffffffffffffffffffffffff16141580156113185750600160009054906101000a900473ffffffffffffffffffffffffffffffffffffffff1673ffffffffffffffffffffffffffffffffffffffff166352a9baef84846040518363ffffffff1660e01b81526004016112d5929190614819565b602060405180830381865afa1580156112f2573d6000803e3d6000fd5b505050506040513d601f19601f820116820180604052508101906113169190613e12565b155b8015611360575061135f33836040518060400160405280600581526020017f7368617265000000000000000000000000000000000000000000000000000000815250612827565b5b80156114585750604051602001611376906147e2565b60405160208183030381529060405280519060200120600160009054906101000a900473ffffffffffffffffffffffffffffffffffffffff1673ffffffffffffffffffffffffffffffffffffffff1662438ceb846040518263ffffffff1660e01b81526004016113e691906147f7565b600060405180830381865afa158015611403573d6000803e3d6000fd5b505050506040513d6000823e3d601f19601f8201168201806040525081019061142c91906143f5565b60200151604051602001611440919061447a565b60405160208183030381529060405280519060200120145b15611466576001905061146b565b600090505b92915050565b600080600090505b60008054905081101561169e57611584336000838154811061149e5761149d6142b4565b5b906000526020600020906004020160000160009054906101000a900473ffffffffffffffffffffffffffffffffffffffff1685600085815481106114e5576114e46142b4565b5b9060005260206000209060040201600101805461150190613e6e565b80601f016020809104026020016040519081016040528092919081815260200182805461152d90613e6e565b801561157a5780601f1061154f5761010080835404028352916020019161157a565b820191906000526020600020905b81548152906001019060200180831161155d57829003601f168201915b50505050506116a9565b801561167c575060405160200161159a906147e2565b60405160208183030381529060405280519060200120600160009054906101000a900473ffffffffffffffffffffffffffffffffffffffff1673ffffffffffffffffffffffffffffffffffffffff1662438ceb856040518263ffffffff1660e01b815260040161160a91906147f7565b600060405180830381865afa158015611627573d6000803e3d6000fd5b505050506040513d6000823e3d601f19601f8201168201806040525081019061165091906143f5565b60200151604051602001611664919061447a565b60405160208183030381529060405280519060200120145b1561168b5760019150506116a4565b80806116969061474e565b915050611479565b50600090505b919050565b60008473ffffffffffffffffffffffffffffffffffffffff168473ffffffffffffffffffffffffffffffffffffffff161480156117315750826040516020016116f2919061447a565b6040516020818303038152906040528051906020012082604051602001611719919061447a565b60405160208183030381529060405280519060200120145b9050949350505050565b6000600160009054906101000a900473ffffffffffffffffffffffffffffffffffffffff16905090565b611773838360000151612d82565b15611c46576000600367ffffffffffffffff81111561179557611794613091565b5b6040519080825280602002602001820160405280156117c857816020015b60608152602001906001900390816117b35790505b5090506040518060400160405280600581526020017f736861726500000000000000000000000000000000000000000000000000000081525081600081518110611815576118146142b4565b5b60200260200101819052506040518060400160405280600881526020017f646f776e6c6f61640000000000000000000000000000000000000000000000008152508160018151811061186a576118696142b4565b5b60200260200101819052506040518060400160405280600681526020017f64656c6574650000000000000000000000000000000000000000000000000000815250816002815181106118bf576118be6142b4565b5b60200260200101819052506000600460009054906101000a900473ffffffffffffffffffffffffffffffffffffffff1673ffffffffffffffffffffffffffffffffffffffff16631c209e7c86866000015186868960c001516040518663ffffffff1660e01b8152600401611937959493929190614849565b602060405180830381865afa158015611954573d6000803e3d6000fd5b505050506040513d601f19601f820116820180604052508101906119789190613e12565b90508015611c4357600160009054906101000a900473ffffffffffffffffffffffffffffffffffffffff1673ffffffffffffffffffffffffffffffffffffffff1663af205f5c856040518263ffffffff1660e01b81526004016119db9190614970565b600060405180830381600087803b1580156119f557600080fd5b505af1158015611a09573d6000803e3d6000fd5b50505050600060405180608001604052808773ffffffffffffffffffffffffffffffffffffffff16815260200186600001518152602001858152602001848152509050600081908060018154018082558091505060019003906000526020600020906004020160009091909190915060008201518160000160006101000a81548173ffffffffffffffffffffffffffffffffffffffff021916908373ffffffffffffffffffffffffffffffffffffffff1602179055506020820151816001019081611ad49190614055565b506040820151816002019081611aea9190614055565b506060820151816003019080519060200190611b07929190612e83565b505050600360009054906101000a900473ffffffffffffffffffffffffffffffffffffffff1673ffffffffffffffffffffffffffffffffffffffff1663c47ebddc33876000015189600460009054906101000a900473ffffffffffffffffffffffffffffffffffffffff1673ffffffffffffffffffffffffffffffffffffffff16636bb8d768896040518263ffffffff1660e01b8152600401611baa9190614127565b600060405180830381865afa158015611bc7573d6000803e3d6000fd5b505050506040513d6000823e3d601f19601f82011682018060405250810190611bf091906141b9565b6040518563ffffffff1660e01b8152600401611c0f94939291906149de565b600060405180830381600087803b158015611c2957600080fd5b505af1158015611c3d573d6000803e3d6000fd5b50505050505b50505b505050565b8073ffffffffffffffffffffffffffffffffffffffff163373ffffffffffffffffffffffffffffffffffffffff16148015611cc25750611cc181836040518060400160405280600881526020017f646f776e6c6f6164000000000000000000000000000000000000000000000000815250612827565b5b8015611dba5750604051602001611cd8906147e2565b60405160208183030381529060405280519060200120600160009054906101000a900473ffffffffffffffffffffffffffffffffffffffff1673ffffffffffffffffffffffffffffffffffffffff1662438ceb846040518263ffffffff1660e01b8152600401611d4891906147f7565b600060405180830381865afa158015611d65573d6000803e3d6000fd5b505050506040513d6000823e3d601f19601f82011682018060405250810190611d8e91906143f5565b60200151604051602001611da2919061447a565b60405160208183030381529060405280519060200120145b15611e5157600360009054906101000a900473ffffffffffffffffffffffffffffffffffffffff1673ffffffffffffffffffffffffffffffffffffffff1663c47ebddc3384846040518463ffffffff1660e01b8152600401611e1e93929190614adc565b600060405180830381600087803b158015611e3857600080fd5b505af1158015611e4c573d6000803e3d6000fd5b505050505b5050565b6000600260009054906101000a900473ffffffffffffffffffffffffffffffffffffffff16905090565b611e89838361123f565b156121295760005b60008054905081101561212757611f9c8460008381548110611eb657611eb56142b4565b5b906000526020600020906004020160000160009054906101000a900473ffffffffffffffffffffffffffffffffffffffff168560008581548110611efd57611efc6142b4565b5b90600052602060002090600402016001018054611f1990613e6e565b80601f0160208091040260200160405190810160405280929190818152602001828054611f4590613e6e565b8015611f925780601f10611f6757610100808354040283529160200191611f92565b820191906000526020600020905b815481529060010190602001808311611f7557829003601f168201915b50505050506116a9565b15612114578160008281548110611fb657611fb56142b4565b5b90600052602060002090600402016003019080519060200190611fda929190612e83565b50600360009054906101000a900473ffffffffffffffffffffffffffffffffffffffff1673ffffffffffffffffffffffffffffffffffffffff1663c47ebddc338587600460009054906101000a900473ffffffffffffffffffffffffffffffffffffffff1673ffffffffffffffffffffffffffffffffffffffff16636bb8d768886040518263ffffffff1660e01b81526004016120779190614127565b600060405180830381865afa158015612094573d6000803e3d6000fd5b505050506040513d6000823e3d601f19601f820116820180604052508101906120bd91906141b9565b6040518563ffffffff1660e01b81526004016120dc9493929190614b8c565b600060405180830381600087803b1580156120f657600080fd5b505af115801561210a573d6000803e3d6000fd5b505050505061212a565b808061211f9061474e565b915050611e91565b505b5b505050565b612137612f67565b8273ffffffffffffffffffffffffffffffffffffffff163373ffffffffffffffffffffffffffffffffffffffff1614801561217857506121778383610fa2565b5b8015612270575060405160200161218e906147e2565b60405160208183030381529060405280519060200120600160009054906101000a900473ffffffffffffffffffffffffffffffffffffffff1673ffffffffffffffffffffffffffffffffffffffff1662438ceb846040518263ffffffff1660e01b81526004016121fe91906147f7565b600060405180830381865afa15801561221b573d6000803e3d6000fd5b505050506040513d6000823e3d601f19601f8201168201806040525081019061224491906143f5565b60200151604051602001612258919061447a565b60405160208183030381529060405280519060200120145b1561246a5760005b60008054905081101561246857612383846000838154811061229d5761229c6142b4565b5b906000526020600020906004020160000160009054906101000a900473ffffffffffffffffffffffffffffffffffffffff1685600085815481106122e4576122e36142b4565b5b9060005260206000209060040201600101805461230090613e6e565b80601f016020809104026020016040519081016040528092919081815260200182805461232c90613e6e565b80156123795780601f1061234e57610100808354040283529160200191612379565b820191906000526020600020905b81548152906001019060200180831161235c57829003601f168201915b50505050506116a9565b15612455576040518060400160405280600115158152602001600083815481106123b0576123af6142b4565b5b906000526020600020906004020160020180546123cc90613e6e565b80601f01602080910402602001604051908101604052809291908181526020018280546123f890613e6e565b80156124455780601f1061241a57610100808354040283529160200191612445565b820191906000526020600020905b81548152906001019060200180831161242857829003601f168201915b5050505050815250915050612494565b80806124609061474e565b915050612278565b505b60405180604001604052806000151581526020016040518060200160405280600081525081525090505b92915050565b60008273ffffffffffffffffffffffffffffffffffffffff163373ffffffffffffffffffffffffffffffffffffffff16141580156125735750600160009054906101000a900473ffffffffffffffffffffffffffffffffffffffff1673ffffffffffffffffffffffffffffffffffffffff166352a9baef84846040518363ffffffff1660e01b8152600401612530929190614819565b602060405180830381865afa15801561254d573d6000803e3d6000fd5b505050506040513d601f19601f820116820180604052508101906125719190613e12565b155b80156125bb57506125ba33836040518060400160405280600581526020017f7368617265000000000000000000000000000000000000000000000000000000815250612827565b5b80156125ce57506125cc8383610fa2565b155b80156126725750600160009054906101000a900473ffffffffffffffffffffffffffffffffffffffff1673ffffffffffffffffffffffffffffffffffffffff16639bccd6ad836040518263ffffffff1660e01b815260040161263091906147f7565b602060405180830381865afa15801561264d573d6000803e3d6000fd5b505050506040513d601f19601f820116820180604052508101906126719190613e12565b5b801561276a5750604051602001612688906147e2565b60405160208183030381529060405280519060200120600160009054906101000a900473ffffffffffffffffffffffffffffffffffffffff1673ffffffffffffffffffffffffffffffffffffffff1662438ceb846040518263ffffffff1660e01b81526004016126f891906147f7565b600060405180830381865afa158015612715573d6000803e3d6000fd5b505050506040513d6000823e3d601f19601f8201168201806040525081019061273e91906143f5565b60200151604051602001612752919061447a565b60405160208183030381529060405280519060200120145b801561280e5750600260009054906101000a900473ffffffffffffffffffffffffffffffffffffffff1673ffffffffffffffffffffffffffffffffffffffff1663a240e426846040518263ffffffff1660e01b81526004016127cc9190613896565b602060405180830381865afa1580156127e9573d6000803e3d6000fd5b505050506040513d601f19601f8201168201806040525081019061280d9190613e12565b5b1561281c5760019050612821565b600090505b92915050565b60006001156128dc57600061283c8585610be9565b60200151905060005b81518110156128d9578360405160200161285f919061447a565b60405160208183030381529060405280519060200120828281518110612888576128876142b4565b5b60200260200101516040516020016128a0919061447a565b60405160208183030381529060405280519060200120036128c6576001925050506128e1565b80806128d19061474e565b915050612845565b50505b600090505b9392505050565b6000600360009054906101000a900473ffffffffffffffffffffffffffffffffffffffff16905090565b600080600160009054906101000a900473ffffffffffffffffffffffffffffffffffffffff1673ffffffffffffffffffffffffffffffffffffffff16637113c4dd846040518263ffffffff1660e01b815260040161297091906147f7565b600060405180830381865afa15801561298d573d6000803e3d6000fd5b505050506040513d6000823e3d601f19601f820116820180604052508101906129b69190614ca7565b905060005b600080549050811015612b155760005b8251811015612b01578573ffffffffffffffffffffffffffffffffffffffff16600083815481106129ff576129fe6142b4565b5b906000526020600020906004020160000160009054906101000a900473ffffffffffffffffffffffffffffffffffffffff1673ffffffffffffffffffffffffffffffffffffffff16148015612add5750828181518110612a6257612a616142b4565b5b6020026020010151604051602001612a7a919061447a565b6040516020818303038152906040528051906020012060008381548110612aa457612aa36142b4565b5b9060005260206000209060040201600101604051602001612ac59190614d73565b60405160208183030381529060405280519060200120145b15612aee5760019350505050612b1c565b8080612af99061474e565b9150506129cb565b508080612b0d9061474e565b9150506129bb565b5060009150505b92915050565b612b6233826040518060400160405280600681526020017f64656c6574650000000000000000000000000000000000000000000000000000815250612827565b8015612c5a5750604051602001612b78906147e2565b60405160208183030381529060405280519060200120600160009054906101000a900473ffffffffffffffffffffffffffffffffffffffff1673ffffffffffffffffffffffffffffffffffffffff1662438ceb836040518263ffffffff1660e01b8152600401612be891906147f7565b600060405180830381865afa158015612c05573d6000803e3d6000fd5b505050506040513d6000823e3d601f19601f82011682018060405250810190612c2e91906143f5565b60200151604051602001612c42919061447a565b60405160208183030381529060405280519060200120145b15612d7e57600160009054906101000a900473ffffffffffffffffffffffffffffffffffffffff1673ffffffffffffffffffffffffffffffffffffffff166374546fdf826040518263ffffffff1660e01b8152600401612cba91906147f7565b600060405180830381600087803b158015612cd457600080fd5b505af1158015612ce8573d6000803e3d6000fd5b50505050600360009054906101000a900473ffffffffffffffffffffffffffffffffffffffff1673ffffffffffffffffffffffffffffffffffffffff1663c47ebddc3383856040518463ffffffff1660e01b8152600401612d4b93929190614dd6565b600060405180830381600087803b158015612d6557600080fd5b505af1158015612d79573d6000803e3d6000fd5b505050505b5050565b60008273ffffffffffffffffffffffffffffffffffffffff163373ffffffffffffffffffffffffffffffffffffffff16148015612dc65750612dc48383610fa2565b155b8015612e6a5750600260009054906101000a900473ffffffffffffffffffffffffffffffffffffffff1673ffffffffffffffffffffffffffffffffffffffff1663a240e426846040518263ffffffff1660e01b8152600401612e289190613896565b602060405180830381865afa158015612e45573d6000803e3d6000fd5b505050506040513d601f19601f82011682018060405250810190612e699190613e12565b5b15612e785760019050612e7d565b600090505b92915050565b828054828255906000526020600020908101928215612ecb579160200282015b82811115612eca578251829081612eba9190614055565b5091602001919060010190612ea3565b5b509050612ed89190612f83565b5090565b6040518060400160405280600015158152602001606081525090565b6040518060e00160405280606081526020016060815260200160008152602001600073ffffffffffffffffffffffffffffffffffffffff1681526020016060815260200160608152602001606081525090565b6040518060400160405280600015158152602001606081525090565b6040518060400160405280600015158152602001606081525090565b5b80821115612fa35760008181612f9a9190612fa7565b50600101612f84565b5090565b508054612fb390613e6e565b6000825580601f10612fc55750612fe4565b601f016020900490600052602060002090810190612fe39190612fe7565b5b50565b5b80821115613000576000816000905550600101612fe8565b5090565b6000604051905090565b600080fd5b600080fd5b600073ffffffffffffffffffffffffffffffffffffffff82169050919050565b600061304382613018565b9050919050565b61305381613038565b811461305e57600080fd5b50565b6000813590506130708161304a565b92915050565b600080fd5b600080fd5b6000601f19601f8301169050919050565b7f4e487b7100000000000000000000000000000000000000000000000000000000600052604160045260246000fd5b6130c982613080565b810181811067ffffffffffffffff821117156130e8576130e7613091565b5b80604052505050565b60006130fb613004565b905061310782826130c0565b919050565b600067ffffffffffffffff82111561312757613126613091565b5b61313082613080565b9050602081019050919050565b82818337600083830152505050565b600061315f61315a8461310c565b6130f1565b90508281526020810184848401111561317b5761317a61307b565b5b61318684828561313d565b509392505050565b600082601f8301126131a3576131a2613076565b5b81356131b384826020860161314c565b91505092915050565b600067ffffffffffffffff8211156131d7576131d6613091565b5b602082029050602081019050919050565b600080fd5b60006132006131fb846131bc565b6130f1565b90508083825260208201905060208402830185811115613223576132226131e8565b5b835b8181101561326a57803567ffffffffffffffff81111561324857613247613076565b5b808601613255898261318e565b85526020850194505050602081019050613225565b5050509392505050565b600082601f83011261328957613288613076565b5b81356132998482602086016131ed565b91505092915050565b600080600080608085870312156132bc576132bb61300e565b5b60006132ca87828801613061565b945050602085013567ffffffffffffffff8111156132eb576132ea613013565b5b6132f78782880161318e565b935050604085013567ffffffffffffffff81111561331857613317613013565b5b6133248782880161318e565b925050606085013567ffffffffffffffff81111561334557613344613013565b5b61335187828801613274565b91505092959194509250565b600080604083850312156133745761337361300e565b5b600061338285828601613061565b925050602083013567ffffffffffffffff8111156133a3576133a2613013565b5b6133af8582860161318e565b9150509250929050565b60008115159050919050565b6133ce816133b9565b82525050565b600081519050919050565b600082825260208201905092915050565b6000819050602082019050919050565b600081519050919050565b600082825260208201905092915050565b60005b8381101561343a57808201518184015260208101905061341f565b60008484015250505050565b600061345182613400565b61345b818561340b565b935061346b81856020860161341c565b61347481613080565b840191505092915050565b6000819050919050565b6134928161347f565b82525050565b6134a181613038565b82525050565b600060e08301600083015184820360008601526134c48282613446565b915050602083015184820360208601526134de8282613446565b91505060408301516134f36040860182613489565b5060608301516135066060860182613498565b506080830151848203608086015261351e8282613446565b91505060a083015184820360a08601526135388282613446565b91505060c083015184820360c08601526135528282613446565b9150508091505092915050565b600061356b83836134a7565b905092915050565b6000602082019050919050565b600061358b826133d4565b61359581856133df565b9350836020820285016135a7856133f0565b8060005b858110156135e357848403895281516135c4858261355f565b94506135cf83613573565b925060208a019950506001810190506135ab565b50829750879550505050505092915050565b600060408301600083015161360d60008601826133c5565b50602083015184820360208601526136258282613580565b9150508091505092915050565b6000602082019050818103600083015261364c81846135f5565b905092915050565b600081519050919050565b600082825260208201905092915050565b6000819050602082019050919050565b600061368c8383613446565b905092915050565b6000602082019050919050565b60006136ac82613654565b6136b6818561365f565b9350836020820285016136c885613670565b8060005b8581101561370457848403895281516136e58582613680565b94506136f083613694565b925060208a019950506001810190506136cc565b50829750879550505050505092915050565b600060408301600083015161372e60008601826133c5565b506020830151848203602086015261374682826136a1565b9150508091505092915050565b6000602082019050818103600083015261376d8184613716565b905092915050565b61377e816133b9565b82525050565b60006020820190506137996000830184613775565b92915050565b6000602082840312156137b5576137b461300e565b5b600082013567ffffffffffffffff8111156137d3576137d2613013565b5b6137df8482850161318e565b91505092915050565b600080600080608085870312156138025761380161300e565b5b600061381087828801613061565b945050602061382187828801613061565b935050604085013567ffffffffffffffff81111561384257613841613013565b5b61384e8782880161318e565b925050606085013567ffffffffffffffff81111561386f5761386e613013565b5b61387b8782880161318e565b91505092959194509250565b61389081613038565b82525050565b60006020820190506138ab6000830184613887565b92915050565b600080fd5b600080fd5b6138c48161347f565b81146138cf57600080fd5b50565b6000813590506138e1816138bb565b92915050565b600060e082840312156138fd576138fc6138b1565b5b61390760e06130f1565b9050600082013567ffffffffffffffff811115613927576139266138b6565b5b6139338482850161318e565b600083015250602082013567ffffffffffffffff811115613957576139566138b6565b5b6139638482850161318e565b6020830152506040613977848285016138d2565b604083015250606061398b84828501613061565b606083015250608082013567ffffffffffffffff8111156139af576139ae6138b6565b5b6139bb8482850161318e565b60808301525060a082013567ffffffffffffffff8111156139df576139de6138b6565b5b6139eb8482850161318e565b60a08301525060c082013567ffffffffffffffff811115613a0f57613a0e6138b6565b5b613a1b8482850161318e565b60c08301525092915050565b600080600060608486031215613a4057613a3f61300e565b5b6000613a4e86828701613061565b935050602084013567ffffffffffffffff811115613a6f57613a6e613013565b5b613a7b868287016138e7565b925050604084013567ffffffffffffffff811115613a9c57613a9b613013565b5b613aa88682870161318e565b9150509250925092565b60008060408385031215613ac957613ac861300e565b5b600083013567ffffffffffffffff811115613ae757613ae6613013565b5b613af38582860161318e565b9250506020613b0485828601613061565b9150509250929050565b600080600060608486031215613b2757613b2661300e565b5b6000613b3586828701613061565b935050602084013567ffffffffffffffff811115613b5657613b55613013565b5b613b628682870161318e565b925050604084013567ffffffffffffffff811115613b8357613b82613013565b5b613b8f86828701613274565b9150509250925092565b6000604083016000830151613bb160008601826133c5565b5060208301518482036020860152613bc98282613446565b9150508091505092915050565b60006020820190508181036000830152613bf08184613b99565b905092915050565b600080600060608486031215613c1157613c1061300e565b5b6000613c1f86828701613061565b935050602084013567ffffffffffffffff811115613c4057613c3f613013565b5b613c4c8682870161318e565b925050604084013567ffffffffffffffff811115613c6d57613c6c613013565b5b613c798682870161318e565b9150509250925092565b600082825260208201905092915050565b6000613c9f82613400565b613ca98185613c83565b9350613cb981856020860161341c565b613cc281613080565b840191505092915050565b600082825260208201905092915050565b6000613ce982613654565b613cf38185613ccd565b935083602082028501613d0585613670565b8060005b85811015613d415784840389528151613d228582613680565b9450613d2d83613694565b925060208a01995050600181019050613d09565b50829750879550505050505092915050565b50565b6000613d63600083613c83565b9150613d6e82613d53565b600082019050919050565b600060a082019050613d8e6000830187613887565b8181036020830152613da08186613c94565b90508181036040830152613db48185613c94565b90508181036060830152613dc88184613cde565b90508181036080830152613ddb81613d56565b905095945050505050565b613def816133b9565b8114613dfa57600080fd5b50565b600081519050613e0c81613de6565b92915050565b600060208284031215613e2857613e2761300e565b5b6000613e3684828501613dfd565b91505092915050565b7f4e487b7100000000000000000000000000000000000000000000000000000000600052602260045260246000fd5b60006002820490506001821680613e8657607f821691505b602082108103613e9957613e98613e3f565b5b50919050565b60008190508160005260206000209050919050565b60006020601f8301049050919050565b600082821b905092915050565b600060088302613f017fffffffffffffffffffffffffffffffffffffffffffffffffffffffffffffffff82613ec4565b613f0b8683613ec4565b95508019841693508086168417925050509392505050565b6000819050919050565b6000819050919050565b6000613f52613f4d613f4884613f23565b613f2d565b613f23565b9050919050565b6000819050919050565b613f6c83613f37565b613f80613f7882613f59565b848454613ed1565b825550505050565b600090565b613f95613f88565b613fa0818484613f63565b505050565b5b81811015613fc457613fb9600082613f8d565b600181019050613fa6565b5050565b601f82111561400957613fda81613e9f565b613fe384613eb4565b81016020851015613ff2578190505b614006613ffe85613eb4565b830182613fa5565b50505b505050565b600082821c905092915050565b600061402c6000198460080261400e565b1980831691505092915050565b6000614045838361401b565b9150826002028217905092915050565b61405e82613400565b67ffffffffffffffff81111561407757614076613091565b5b6140818254613e6e565b61408c828285613fc8565b600060209050601f8311600181146140bf57600084156140ad578287015190505b6140b78582614039565b86555061411f565b601f1984166140cd86613e9f565b60005b828110156140f5578489015182556001820191506020850194506020810190506140d0565b86831015614112578489015161410e601f89168261401b565b8355505b6001600288020188555050505b505050505050565b600060208201905081810360008301526141418184613cde565b905092915050565b600061415c6141578461310c565b6130f1565b9050828152602081018484840111156141785761417761307b565b5b61418384828561341c565b509392505050565b600082601f8301126141a05761419f613076565b5b81516141b0848260208601614149565b91505092915050565b6000602082840312156141cf576141ce61300e565b5b600082015167ffffffffffffffff8111156141ed576141ec613013565b5b6141f98482850161418b565b91505092915050565b7f7368617265000000000000000000000000000000000000000000000000000000600082015250565b6000614238600583613c83565b915061424382614202565b602082019050919050565b600060a0820190506142636000830187613887565b81810360208301526142758186613c94565b90506142846040830185613887565b81810360608301526142968184613c94565b905081810360808301526142a98161422b565b905095945050505050565b7f4e487b7100000000000000000000000000000000000000000000000000000000600052603260045260246000fd5b600081546142f081613e6e565b6142fa8186613c83565b94506001821660008114614315576001811461432b5761435e565b60ff19831686528115156020028601935061435e565b61433485613e9f565b60005b8381101561435657815481890152600182019150602081019050614337565b808801955050505b50505092915050565b6000602082019050818103600083015261438181846142e3565b905092915050565b60006040828403121561439f5761439e6138b1565b5b6143a960406130f1565b905060006143b984828501613dfd565b600083015250602082015167ffffffffffffffff8111156143dd576143dc6138b6565b5b6143e98482850161418b565b60208301525092915050565b60006020828403121561440b5761440a61300e565b5b600082015167ffffffffffffffff81111561442957614428613013565b5b61443584828501614389565b91505092915050565b600081905092915050565b600061445482613400565b61445e818561443e565b935061446e81856020860161341c565b80840191505092915050565b60006144868284614449565b915081905092915050565b600061449e60008361443e565b91506144a982613d53565b600082019050919050565b60006144bf82614491565b9150819050919050565b600060408201905081810360008301526144e38185613c94565b905081810360208301526144f78184613c94565b90509392505050565b60008151905061450f816138bb565b92915050565b6000815190506145248161304a565b92915050565b600060e082840312156145405761453f6138b1565b5b61454a60e06130f1565b9050600082015167ffffffffffffffff81111561456a576145696138b6565b5b6145768482850161418b565b600083015250602082015167ffffffffffffffff81111561459a576145996138b6565b5b6145a68482850161418b565b60208301525060406145ba84828501614500565b60408301525060606145ce84828501614515565b606083015250608082015167ffffffffffffffff8111156145f2576145f16138b6565b5b6145fe8482850161418b565b60808301525060a082015167ffffffffffffffff811115614622576146216138b6565b5b61462e8482850161418b565b60a08301525060c082015167ffffffffffffffff811115614652576146516138b6565b5b61465e8482850161418b565b60c08301525092915050565b6000604082840312156146805761467f6138b1565b5b61468a60406130f1565b9050600061469a84828501613dfd565b600083015250602082015167ffffffffffffffff8111156146be576146bd6138b6565b5b6146ca8482850161452a565b60208301525092915050565b6000602082840312156146ec576146eb61300e565b5b600082015167ffffffffffffffff81111561470a57614709613013565b5b6147168482850161466a565b91505092915050565b7f4e487b7100000000000000000000000000000000000000000000000000000000600052601160045260246000fd5b600061475982613f23565b91507fffffffffffffffffffffffffffffffffffffffffffffffffffffffffffffffff820361478b5761478a61471f565b5b600182019050919050565b7f6163746976650000000000000000000000000000000000000000000000000000600082015250565b60006147cc60068361443e565b91506147d782614796565b600682019050919050565b60006147ed826147bf565b9150819050919050565b600060208201905081810360008301526148118184613c94565b905092915050565b600060408201905061482e6000830185613887565b81810360208301526148408184613c94565b90509392505050565b600060a08201905061485e6000830188613887565b81810360208301526148708187613c94565b905081810360408301526148848186613c94565b905081810360608301526148988185613cde565b905081810360808301526148ac8184613c94565b90509695505050505050565b600060e08301600083015184820360008601526148d58282613446565b915050602083015184820360208601526148ef8282613446565b91505060408301516149046040860182613489565b5060608301516149176060860182613498565b506080830151848203608086015261492f8282613446565b91505060a083015184820360a08601526149498282613446565b91505060c083015184820360c08601526149638282613446565b9150508091505092915050565b6000602082019050818103600083015261498a81846148b8565b905092915050565b7f75706c6f61640000000000000000000000000000000000000000000000000000600082015250565b60006149c8600683613c83565b91506149d382614992565b602082019050919050565b600060a0820190506149f36000830187613887565b8181036020830152614a058186613c94565b9050614a146040830185613887565b8181036060830152614a268184613c94565b90508181036080830152614a39816149bb565b905095945050505050565b7f2d00000000000000000000000000000000000000000000000000000000000000600082015250565b6000614a7a600183613c83565b9150614a8582614a44565b602082019050919050565b7f646f776e6c6f6164000000000000000000000000000000000000000000000000600082015250565b6000614ac6600883613c83565b9150614ad182614a90565b602082019050919050565b600060a082019050614af16000830186613887565b8181036020830152614b038185613c94565b9050614b126040830184613887565b8181036060830152614b2381614a6d565b90508181036080830152614b3681614ab9565b9050949350505050565b7f757064617465207065726d697373696f6e730000000000000000000000000000600082015250565b6000614b76601283613c83565b9150614b8182614b40565b602082019050919050565b600060a082019050614ba16000830187613887565b8181036020830152614bb38186613c94565b9050614bc26040830185613887565b8181036060830152614bd48184613c94565b90508181036080830152614be781614b69565b905095945050505050565b6000614c05614c00846131bc565b6130f1565b90508083825260208201905060208402830185811115614c2857614c276131e8565b5b835b81811015614c6f57805167ffffffffffffffff811115614c4d57614c4c613076565b5b808601614c5a898261418b565b85526020850194505050602081019050614c2a565b5050509392505050565b600082601f830112614c8e57614c8d613076565b5b8151614c9e848260208601614bf2565b91505092915050565b600060208284031215614cbd57614cbc61300e565b5b600082015167ffffffffffffffff811115614cdb57614cda613013565b5b614ce784828501614c79565b91505092915050565b60008154614cfd81613e6e565b614d07818661443e565b94506001821660008114614d225760018114614d3757614d6a565b60ff1983168652811515820286019350614d6a565b614d4085613e9f565b60005b83811015614d6257815481890152600182019150602081019050614d43565b838801955050505b50505092915050565b6000614d7f8284614cf0565b915081905092915050565b7f64656c6574656400000000000000000000000000000000000000000000000000600082015250565b6000614dc0600783613c83565b9150614dcb82614d8a565b602082019050919050565b600060a082019050614deb6000830186613887565b8181036020830152614dfd8185613c94565b9050614e0c6040830184613887565b8181036060830152614e1d81614a6d565b90508181036080830152614e3081614db3565b905094935050505056fea26469706673582212206a4a23594c2fe2599cbe7d08378713156c9b45eb6be833ed77526fc4837dbd6e64736f6c6343000813003360806040523480156200001157600080fd5b506040516200235a3803806200235a8339818101604052810190620000379190620000e9565b80600260006101000a81548173ffffffffffffffffffffffffffffffffffffffff021916908373ffffffffffffffffffffffffffffffffffffffff160217905550506200011b565b600080fd5b600073ffffffffffffffffffffffffffffffffffffffff82169050919050565b6000620000b18262000084565b9050919050565b620000c381620000a4565b8114620000cf57600080fd5b50565b600081519050620000e381620000b8565b92915050565b6000602082840312156200010257620001016200007f565b5b60006200011284828501620000d2565b91505092915050565b61222f806200012b6000396000f3fe608060405234801561001057600080fd5b506004361061009d5760003560e01c806374546fdf1161006657806374546fdf1461019257806384c107ff146101ae5780639bccd6ad146101de578063af205f5c1461020e578063e8d56b8b1461022a5761009d565b8062438ceb146100a257806347eb6fa7146100d25780634907904b1461010257806352a9baef146101325780637113c4dd14610162575b600080fd5b6100bc60048036038101906100b791906114d8565b610246565b6040516100c991906115f8565b60405180910390f35b6100ec60048036038101906100e7919061161a565b61039a565b6040516100f991906117e1565b60405180910390f35b61011c600480360381019061011791906114d8565b6108d9565b6040516101299190611812565b60405180910390f35b61014c60048036038101906101479190611859565b610a48565b60405161015991906118c4565b60405180910390f35b61017c600480360381019061017791906114d8565b610b2c565b60405161018991906119a1565b60405180910390f35b6101ac60048036038101906101a791906114d8565b610dce565b005b6101c860048036038101906101c39190611b39565b610e8b565b6040516101d591906118c4565b60405180910390f35b6101f860048036038101906101f391906114d8565b610fb0565b60405161020591906118c4565b60405180910390f35b61022860048036038101906102239190611b39565b611054565b005b610244600480360381019061023f9190611b82565b611218565b005b61024e6112ed565b600360009054906101000a900473ffffffffffffffffffffffffffffffffffffffff1673ffffffffffffffffffffffffffffffffffffffff163373ffffffffffffffffffffffffffffffffffffffff160361036b5760405180604001604052806001151581526020016000846040516102c79190611beb565b908152602001604051809103902060060180546102e390611c31565b80601f016020809104026020016040519081016040528092919081815260200182805461030f90611c31565b801561035c5780601f106103315761010080835404028352916020019161035c565b820191906000526020600020905b81548152906001019060200180831161033f57829003601f168201915b50505050508152509050610395565b60405180604001604052806000151581526020016040518060200160405280600081525081525090505b919050565b6103a2611309565b600080846040516103b39190611beb565b908152602001604051809103902060010180546103cf90611c31565b905011801561049d5750816040516020016103ea9190611beb565b604051602081830303815290604052805190602001206000846040516104109190611beb565b90815260200160405180910390206006016040516020016104319190611cfa565b60405160208183030381529060405280519060200120148061049c575060405160200161045d90611d37565b60405160208183030381529060405280519060200120826040516020016104849190611beb565b60405160208183030381529060405280519060200120145b5b156108235760405180604001604052806001151581526020016000856040516104c69190611beb565b90815260200160405180910390206040518060e00160405290816000820180546104ef90611c31565b80601f016020809104026020016040519081016040528092919081815260200182805461051b90611c31565b80156105685780601f1061053d57610100808354040283529160200191610568565b820191906000526020600020905b81548152906001019060200180831161054b57829003601f168201915b5050505050815260200160018201805461058190611c31565b80601f01602080910402602001604051908101604052809291908181526020018280546105ad90611c31565b80156105fa5780601f106105cf576101008083540402835291602001916105fa565b820191906000526020600020905b8154815290600101906020018083116105dd57829003601f168201915b50505050508152602001600282015481526020016003820160009054906101000a900473ffffffffffffffffffffffffffffffffffffffff1673ffffffffffffffffffffffffffffffffffffffff1673ffffffffffffffffffffffffffffffffffffffff16815260200160048201805461067390611c31565b80601f016020809104026020016040519081016040528092919081815260200182805461069f90611c31565b80156106ec5780601f106106c1576101008083540402835291602001916106ec565b820191906000526020600020905b8154815290600101906020018083116106cf57829003601f168201915b5050505050815260200160058201805461070590611c31565b80601f016020809104026020016040519081016040528092919081815260200182805461073190611c31565b801561077e5780601f106107535761010080835404028352916020019161077e565b820191906000526020600020905b81548152906001019060200180831161076157829003601f168201915b5050505050815260200160068201805461079790611c31565b80601f01602080910402602001604051908101604052809291908181526020018280546107c390611c31565b80156108105780601f106107e557610100808354040283529160200191610810565b820191906000526020600020905b8154815290600101906020018083116107f357829003601f168201915b50505050508152505081525090506108d3565b60405180604001604052806000151581526020016040518060e0016040528060405180602001604052806000815250815260200160405180602001604052806000815250815260200160008152602001600073ffffffffffffffffffffffffffffffffffffffff1681526020016040518060200160405280600081525081526020016040518060200160405280600081525081526020016040518060200160405280600081525081525081525090505b92915050565b6000807fffffffffffffffffffffffffffffffffffffffffffffffffffffffffffffffff905060005b600180549050811015610a3e57836040516020016109209190611beb565b6040516020818303038152906040528051906020012060006001838154811061094c5761094b611d4c565b5b906000526020600020016040516109639190611cfa565b90815260200160405180910390206001016040516020016109849190611cfa565b604051602081830303815290604052805190602001201480156109e45750816000600183815481106109b9576109b8611d4c565b5b906000526020600020016040516109d09190611cfa565b908152602001604051809103902060020154135b15610a2b576000600182815481106109ff576109fe611d4c565b5b90600052602060002001604051610a169190611cfa565b90815260200160405180910390206002015491505b8080610a3690611db4565b915050610902565b5080915050919050565b60008273ffffffffffffffffffffffffffffffffffffffff16600083604051610a719190611beb565b908152602001604051809103902060030160009054906101000a900473ffffffffffffffffffffffffffffffffffffffff1673ffffffffffffffffffffffffffffffffffffffff16148015610b135750600360009054906101000a900473ffffffffffffffffffffffffffffffffffffffff1673ffffffffffffffffffffffffffffffffffffffff163373ffffffffffffffffffffffffffffffffffffffff16145b15610b215760019050610b26565b600090505b92915050565b6060600060018054905067ffffffffffffffff811115610b4f57610b4e6113ad565b5b604051908082528060200260200182016040528015610b8257816020015b6060815260200190600190039081610b6d5790505b5090506000805b600180549050811015610dc05784604051602001610ba79190611beb565b60405160208183030381529060405280519060200120600060018381548110610bd357610bd2611d4c565b5b90600052602060002001604051610bea9190611cfa565b9081526020016040518091039020600101604051602001610c0b9190611cfa565b60405160208183030381529060405280519060200120148015610cb45750604051602001610c3890611e48565b60405160208183030381529060405280519060200120600060018381548110610c6457610c63611d4c565b5b90600052602060002001604051610c7b9190611cfa565b9081526020016040518091039020600601604051602001610c9c9190611cfa565b60405160208183030381529060405280519060200120145b15610dad57600060018281548110610ccf57610cce611d4c565b5b90600052602060002001604051610ce69190611cfa565b90815260200160405180910390206000018054610d0290611c31565b80601f0160208091040260200160405190810160405280929190818152602001828054610d2e90611c31565b8015610d7b5780601f10610d5057610100808354040283529160200191610d7b565b820191906000526020600020905b815481529060010190602001808311610d5e57829003601f168201915b5050505050838381518110610d9357610d92611d4c565b5b60200260200101819052508180610da990611db4565b9250505b8080610db890611db4565b915050610b89565b508082528192505050919050565b600360009054906101000a900473ffffffffffffffffffffffffffffffffffffffff1673ffffffffffffffffffffffffffffffffffffffff163373ffffffffffffffffffffffffffffffffffffffff1603610e88576040518060400160405280600881526020017f6465616374697665000000000000000000000000000000000000000000000000815250600082604051610e699190611beb565b90815260200160405180910390206006019081610e869190611ff4565b505b50565b6000610e9a8260000151610fb0565b158015610f3f5750600260009054906101000a900473ffffffffffffffffffffffffffffffffffffffff1673ffffffffffffffffffffffffffffffffffffffff166312a8d91c836040518263ffffffff1660e01b8152600401610efd919061217e565b602060405180830381865afa158015610f1a573d6000803e3d6000fd5b505050506040513d601f19601f82011682018060405250810190610f3e91906121cc565b5b8015610f985750600360009054906101000a900473ffffffffffffffffffffffffffffffffffffffff1673ffffffffffffffffffffffffffffffffffffffff163373ffffffffffffffffffffffffffffffffffffffff16145b15610fa65760019050610fab565b600090505b919050565b600080600083604051610fc39190611beb565b90815260200160405180910390206000018054610fdf90611c31565b90501415801561103c5750600360009054906101000a900473ffffffffffffffffffffffffffffffffffffffff1673ffffffffffffffffffffffffffffffffffffffff163373ffffffffffffffffffffffffffffffffffffffff16145b1561104a576001905061104f565b600090505b919050565b600360009054906101000a900473ffffffffffffffffffffffffffffffffffffffff1673ffffffffffffffffffffffffffffffffffffffff163373ffffffffffffffffffffffffffffffffffffffff1603611215576110b281610e8b565b15611214576040518060400160405280600681526020017f61637469766500000000000000000000000000000000000000000000000000008152508160c00181905250806000826000015160405161110a9190611beb565b9081526020016040518091039020600082015181600001908161112d9190611ff4565b5060208201518160010190816111439190611ff4565b506040820151816002015560608201518160030160006101000a81548173ffffffffffffffffffffffffffffffffffffffff021916908373ffffffffffffffffffffffffffffffffffffffff16021790555060808201518160040190816111aa9190611ff4565b5060a08201518160050190816111c09190611ff4565b5060c08201518160060190816111d69190611ff4565b50905050600181600001519080600181540180825580915050600190039060005260206000200160009091909190915090816112129190611ff4565b505b5b50565b600073ffffffffffffffffffffffffffffffffffffffff168173ffffffffffffffffffffffffffffffffffffffff16141580156112a35750600073ffffffffffffffffffffffffffffffffffffffff16600360009054906101000a900473ffffffffffffffffffffffffffffffffffffffff1673ffffffffffffffffffffffffffffffffffffffff16145b156112ea5780600360006101000a81548173ffffffffffffffffffffffffffffffffffffffff021916908373ffffffffffffffffffffffffffffffffffffffff1602179055505b50565b6040518060400160405280600015158152602001606081525090565b604051806040016040528060001515815260200161132561132b565b81525090565b6040518060e00160405280606081526020016060815260200160008152602001600073ffffffffffffffffffffffffffffffffffffffff1681526020016060815260200160608152602001606081525090565b6000604051905090565b600080fd5b600080fd5b600080fd5b600080fd5b6000601f19601f8301169050919050565b7f4e487b7100000000000000000000000000000000000000000000000000000000600052604160045260246000fd5b6113e58261139c565b810181811067ffffffffffffffff82111715611404576114036113ad565b5b80604052505050565b600061141761137e565b905061142382826113dc565b919050565b600067ffffffffffffffff821115611443576114426113ad565b5b61144c8261139c565b9050602081019050919050565b82818337600083830152505050565b600061147b61147684611428565b61140d565b90508281526020810184848401111561149757611496611397565b5b6114a2848285611459565b509392505050565b600082601f8301126114bf576114be611392565b5b81356114cf848260208601611468565b91505092915050565b6000602082840312156114ee576114ed611388565b5b600082013567ffffffffffffffff81111561150c5761150b61138d565b5b611518848285016114aa565b91505092915050565b60008115159050919050565b61153681611521565b82525050565b600081519050919050565b600082825260208201905092915050565b60005b8381101561157657808201518184015260208101905061155b565b60008484015250505050565b600061158d8261153c565b6115978185611547565b93506115a7818560208601611558565b6115b08161139c565b840191505092915050565b60006040830160008301516115d3600086018261152d565b50602083015184820360208601526115eb8282611582565b9150508091505092915050565b6000602082019050818103600083015261161281846115bb565b905092915050565b6000806040838503121561163157611630611388565b5b600083013567ffffffffffffffff81111561164f5761164e61138d565b5b61165b858286016114aa565b925050602083013567ffffffffffffffff81111561167c5761167b61138d565b5b611688858286016114aa565b9150509250929050565b6000819050919050565b6116a581611692565b82525050565b600073ffffffffffffffffffffffffffffffffffffffff82169050919050565b60006116d6826116ab565b9050919050565b6116e6816116cb565b82525050565b600060e08301600083015184820360008601526117098282611582565b915050602083015184820360208601526117238282611582565b9150506040830151611738604086018261169c565b50606083015161174b60608601826116dd565b50608083015184820360808601526117638282611582565b91505060a083015184820360a086015261177d8282611582565b91505060c083015184820360c08601526117978282611582565b9150508091505092915050565b60006040830160008301516117bc600086018261152d565b50602083015184820360208601526117d482826116ec565b9150508091505092915050565b600060208201905081810360008301526117fb81846117a4565b905092915050565b61180c81611692565b82525050565b60006020820190506118276000830184611803565b92915050565b611836816116cb565b811461184157600080fd5b50565b6000813590506118538161182d565b92915050565b600080604083850312156118705761186f611388565b5b600061187e85828601611844565b925050602083013567ffffffffffffffff81111561189f5761189e61138d565b5b6118ab858286016114aa565b9150509250929050565b6118be81611521565b82525050565b60006020820190506118d960008301846118b5565b92915050565b600081519050919050565b600082825260208201905092915050565b6000819050602082019050919050565b60006119178383611582565b905092915050565b6000602082019050919050565b6000611937826118df565b61194181856118ea565b935083602082028501611953856118fb565b8060005b8581101561198f5784840389528151611970858261190b565b945061197b8361191f565b925060208a01995050600181019050611957565b50829750879550505050505092915050565b600060208201905081810360008301526119bb818461192c565b905092915050565b600080fd5b600080fd5b6119d681611692565b81146119e157600080fd5b50565b6000813590506119f3816119cd565b92915050565b600060e08284031215611a0f57611a0e6119c3565b5b611a1960e061140d565b9050600082013567ffffffffffffffff811115611a3957611a386119c8565b5b611a45848285016114aa565b600083015250602082013567ffffffffffffffff811115611a6957611a686119c8565b5b611a75848285016114aa565b6020830152506040611a89848285016119e4565b6040830152506060611a9d84828501611844565b606083015250608082013567ffffffffffffffff811115611ac157611ac06119c8565b5b611acd848285016114aa565b60808301525060a082013567ffffffffffffffff811115611af157611af06119c8565b5b611afd848285016114aa565b60a08301525060c082013567ffffffffffffffff811115611b2157611b206119c8565b5b611b2d848285016114aa565b60c08301525092915050565b600060208284031215611b4f57611b4e611388565b5b600082013567ffffffffffffffff811115611b6d57611b6c61138d565b5b611b79848285016119f9565b91505092915050565b600060208284031215611b9857611b97611388565b5b6000611ba684828501611844565b91505092915050565b600081905092915050565b6000611bc58261153c565b611bcf8185611baf565b9350611bdf818560208601611558565b80840191505092915050565b6000611bf78284611bba565b915081905092915050565b7f4e487b7100000000000000000000000000000000000000000000000000000000600052602260045260246000fd5b60006002820490506001821680611c4957607f821691505b602082108103611c5c57611c5b611c02565b5b50919050565b60008190508160005260206000209050919050565b60008154611c8481611c31565b611c8e8186611baf565b94506001821660008114611ca95760018114611cbe57611cf1565b60ff1983168652811515820286019350611cf1565b611cc785611c62565b60005b83811015611ce957815481890152600182019150602081019050611cca565b838801955050505b50505092915050565b6000611d068284611c77565b915081905092915050565b50565b6000611d21600083611baf565b9150611d2c82611d11565b600082019050919050565b6000611d4282611d14565b9150819050919050565b7f4e487b7100000000000000000000000000000000000000000000000000000000600052603260045260246000fd5b7f4e487b7100000000000000000000000000000000000000000000000000000000600052601160045260246000fd5b6000819050919050565b6000611dbf82611daa565b91507fffffffffffffffffffffffffffffffffffffffffffffffffffffffffffffffff8203611df157611df0611d7b565b5b600182019050919050565b7f6163746976650000000000000000000000000000000000000000000000000000600082015250565b6000611e32600683611baf565b9150611e3d82611dfc565b600682019050919050565b6000611e5382611e25565b9150819050919050565b60006020601f8301049050919050565b600082821b905092915050565b600060088302611eaa7fffffffffffffffffffffffffffffffffffffffffffffffffffffffffffffffff82611e6d565b611eb48683611e6d565b95508019841693508086168417925050509392505050565b6000819050919050565b6000611ef1611eec611ee784611daa565b611ecc565b611daa565b9050919050565b6000819050919050565b611f0b83611ed6565b611f1f611f1782611ef8565b848454611e7a565b825550505050565b600090565b611f34611f27565b611f3f818484611f02565b505050565b5b81811015611f6357611f58600082611f2c565b600181019050611f45565b5050565b601f821115611fa857611f7981611c62565b611f8284611e5d565b81016020851015611f91578190505b611fa5611f9d85611e5d565b830182611f44565b50505b505050565b600082821c905092915050565b6000611fcb60001984600802611fad565b1980831691505092915050565b6000611fe48383611fba565b9150826002028217905092915050565b611ffd8261153c565b67ffffffffffffffff811115612016576120156113ad565b5b6120208254611c31565b61202b828285611f67565b600060209050601f83116001811461205e576000841561204c578287015190505b6120568582611fd8565b8655506120be565b601f19841661206c86611c62565b60005b828110156120945784890151825560018201915060208501945060208101905061206f565b868310156120b157848901516120ad601f891682611fba565b8355505b6001600288020188555050505b505050505050565b600060e08301600083015184820360008601526120e38282611582565b915050602083015184820360208601526120fd8282611582565b9150506040830151612112604086018261169c565b50606083015161212560608601826116dd565b506080830151848203608086015261213d8282611582565b91505060a083015184820360a08601526121578282611582565b91505060c083015184820360c08601526121718282611582565b9150508091505092915050565b6000602082019050818103600083015261219881846120c6565b905092915050565b6121a981611521565b81146121b457600080fd5b50565b6000815190506121c6816121a0565b92915050565b6000602082840312156121e2576121e1611388565b5b60006121f0848285016121b7565b9150509291505056fea2646970667358221220f9adca5d45e1d16e0be8f2801acca2b64183f836011a897f7ac2c8198ff4b18864736f6c6343000813003360806040523480156200001157600080fd5b5060405162001a6a38038062001a6a8339818101604052810190620000379190620000e9565b80600360006101000a81548173ffffffffffffffffffffffffffffffffffffffff021916908373ffffffffffffffffffffffffffffffffffffffff160217905550506200011b565b600080fd5b600073ffffffffffffffffffffffffffffffffffffffff82169050919050565b6000620000b18262000084565b9050919050565b620000c381620000a4565b8114620000cf57600080fd5b50565b600081519050620000e381620000b8565b92915050565b6000602082840312156200010257620001016200007f565b5b60006200011284828501620000d2565b91505092915050565b61193f806200012b6000396000f3fe608060405234801561001057600080fd5b50600436106100885760003560e01c8063857cdbb81161005b578063857cdbb814610139578063a240e42614610169578063b0c22a5614610199578063eeb9ab18146101c957610088565b80632b4bce8b1461008d57806367156cf1146100bd5780636f77926b146100ed57806375e9493f1461011d575b600080fd5b6100a760048036038101906100a291906111d7565b6101f9565b6040516100b4919061123b565b60405180910390f35b6100d760048036038101906100d29190611256565b610313565b6040516100e4919061134e565b60405180910390f35b61010760048036038101906101029190611256565b6104c7565b604051610114919061142d565b60405180910390f35b610137600480360381019061013291906111d7565b61088f565b005b610153600480360381019061014e9190611256565b610b1e565b604051610160919061134e565b60405180910390f35b610183600480360381019061017e9190611256565b610cd2565b604051610190919061123b565b60405180910390f35b6101b360048036038101906101ae919061144f565b610d7b565b6040516101c0919061123b565b60405180910390f35b6101e360048036038101906101de919061144f565b610db0565b6040516101f091906114c7565b60405180910390f35b60003373ffffffffffffffffffffffffffffffffffffffff16826000015173ffffffffffffffffffffffffffffffffffffffff16036103095761023f8260000151610cd2565b15801561025657506102548260200151610d7b565b155b80156102fa5750600360009054906101000a900473ffffffffffffffffffffffffffffffffffffffff1673ffffffffffffffffffffffffffffffffffffffff1663e779f450836040518263ffffffff1660e01b81526004016102b89190611553565b602060405180830381865afa1580156102d5573d6000803e3d6000fd5b505050506040513d601f19601f820116820180604052508101906102f991906115a1565b5b15610308576001905061030e565b5b600090505b919050565b61031b610e9b565b600073ffffffffffffffffffffffffffffffffffffffff166000808473ffffffffffffffffffffffffffffffffffffffff1673ffffffffffffffffffffffffffffffffffffffff16815260200190815260200160002060000160009054906101000a900473ffffffffffffffffffffffffffffffffffffffff1673ffffffffffffffffffffffffffffffffffffffff16146104985760405180604001604052806001151581526020016000808573ffffffffffffffffffffffffffffffffffffffff1673ffffffffffffffffffffffffffffffffffffffff1681526020019081526020016000206001018054610410906115fd565b80601f016020809104026020016040519081016040528092919081815260200182805461043c906115fd565b80156104895780601f1061045e57610100808354040283529160200191610489565b820191906000526020600020905b81548152906001019060200180831161046c57829003601f168201915b505050505081525090506104c2565b60405180604001604052806000151581526020016040518060200160405280600081525081525090505b919050565b6104cf610eb7565b3373ffffffffffffffffffffffffffffffffffffffff168273ffffffffffffffffffffffffffffffffffffffff160361080b57600073ffffffffffffffffffffffffffffffffffffffff166000808473ffffffffffffffffffffffffffffffffffffffff1673ffffffffffffffffffffffffffffffffffffffff16815260200190815260200160002060000160009054906101000a900473ffffffffffffffffffffffffffffffffffffffff1673ffffffffffffffffffffffffffffffffffffffff161461080a5760405180604001604052806001151581526020016000808573ffffffffffffffffffffffffffffffffffffffff1673ffffffffffffffffffffffffffffffffffffffff1681526020019081526020016000206040518060800160405290816000820160009054906101000a900473ffffffffffffffffffffffffffffffffffffffff1673ffffffffffffffffffffffffffffffffffffffff1673ffffffffffffffffffffffffffffffffffffffff16815260200160018201805461065a906115fd565b80601f0160208091040260200160405190810160405280929190818152602001828054610686906115fd565b80156106d35780601f106106a8576101008083540402835291602001916106d3565b820191906000526020600020905b8154815290600101906020018083116106b657829003601f168201915b505050505081526020016002820180546106ec906115fd565b80601f0160208091040260200160405190810160405280929190818152602001828054610718906115fd565b80156107655780601f1061073a57610100808354040283529160200191610765565b820191906000526020600020905b81548152906001019060200180831161074857829003601f168201915b5050505050815260200160038201805461077e906115fd565b80601f01602080910402602001604051908101604052809291908181526020018280546107aa906115fd565b80156107f75780601f106107cc576101008083540402835291602001916107f7565b820191906000526020600020905b8154815290600101906020018083116107da57829003601f168201915b505050505081525050815250905061088a565b5b60405180604001604052806000151581526020016040518060800160405280600073ffffffffffffffffffffffffffffffffffffffff1681526020016040518060200160405280600081525081526020016040518060200160405280600081525081526020016040518060200160405280600081525081525081525090505b919050565b3373ffffffffffffffffffffffffffffffffffffffff16816000015173ffffffffffffffffffffffffffffffffffffffff1603610b1b576108cf816101f9565b15610b1a576040518060800160405280826000015173ffffffffffffffffffffffffffffffffffffffff16815260200182602001518152602001826040015181526020018260600151815250600080836000015173ffffffffffffffffffffffffffffffffffffffff1673ffffffffffffffffffffffffffffffffffffffff16815260200190815260200160002060008201518160000160006101000a81548173ffffffffffffffffffffffffffffffffffffffff021916908373ffffffffffffffffffffffffffffffffffffffff16021790555060208201518160010190816109b991906117e4565b5060408201518160020190816109cf91906117e4565b5060608201518160030190816109e591906117e4565b509050506040518060800160405280826000015173ffffffffffffffffffffffffffffffffffffffff1681526020018260200151815260200182604001518152602001826060015181525060018260200151604051610a4491906118f2565b908152602001604051809103902060008201518160000160006101000a81548173ffffffffffffffffffffffffffffffffffffffff021916908373ffffffffffffffffffffffffffffffffffffffff1602179055506020820151816001019081610aae91906117e4565b506040820151816002019081610ac491906117e4565b506060820151816003019081610ada91906117e4565b50905050600160028260200151604051610af491906118f2565b908152602001604051809103902060006101000a81548160ff0219169083151502179055505b5b50565b610b26610e9b565b600073ffffffffffffffffffffffffffffffffffffffff166000808473ffffffffffffffffffffffffffffffffffffffff1673ffffffffffffffffffffffffffffffffffffffff16815260200190815260200160002060000160009054906101000a900473ffffffffffffffffffffffffffffffffffffffff1673ffffffffffffffffffffffffffffffffffffffff1614610ca35760405180604001604052806001151581526020016000808573ffffffffffffffffffffffffffffffffffffffff1673ffffffffffffffffffffffffffffffffffffffff1681526020019081526020016000206002018054610c1b906115fd565b80601f0160208091040260200160405190810160405280929190818152602001828054610c47906115fd565b8015610c945780601f10610c6957610100808354040283529160200191610c94565b820191906000526020600020905b815481529060010190602001808311610c7757829003601f168201915b50505050508152509050610ccd565b60405180604001604052806000151581526020016040518060200160405280600081525081525090505b919050565b60008073ffffffffffffffffffffffffffffffffffffffff166000808473ffffffffffffffffffffffffffffffffffffffff1673ffffffffffffffffffffffffffffffffffffffff16815260200190815260200160002060000160009054906101000a900473ffffffffffffffffffffffffffffffffffffffff1673ffffffffffffffffffffffffffffffffffffffff1614610d715760019050610d76565b600090505b919050565b6000600282604051610d8d91906118f2565b908152602001604051809103902060009054906101000a900460ff169050919050565b610db8610ed9565b6000600183604051610dca91906118f2565b90815260200160405180910390206001018054610de6906115fd565b90501115610e64576040518060400160405280600115158152602001600184604051610e1291906118f2565b908152602001604051809103902060000160009054906101000a900473ffffffffffffffffffffffffffffffffffffffff1673ffffffffffffffffffffffffffffffffffffffff168152509050610e96565b6040518060400160405280600015158152602001600073ffffffffffffffffffffffffffffffffffffffff1681525090505b919050565b6040518060400160405280600015158152602001606081525090565b6040518060400160405280600015158152602001610ed3610f0b565b81525090565b6040518060400160405280600015158152602001600073ffffffffffffffffffffffffffffffffffffffff1681525090565b6040518060800160405280600073ffffffffffffffffffffffffffffffffffffffff1681526020016060815260200160608152602001606081525090565b6000604051905090565b600080fd5b600080fd5b600080fd5b6000601f19601f8301169050919050565b7f4e487b7100000000000000000000000000000000000000000000000000000000600052604160045260246000fd5b610fab82610f62565b810181811067ffffffffffffffff82111715610fca57610fc9610f73565b5b80604052505050565b6000610fdd610f49565b9050610fe98282610fa2565b919050565b600080fd5b600073ffffffffffffffffffffffffffffffffffffffff82169050919050565b600061101e82610ff3565b9050919050565b61102e81611013565b811461103957600080fd5b50565b60008135905061104b81611025565b92915050565b600080fd5b600080fd5b600067ffffffffffffffff82111561107657611075610f73565b5b61107f82610f62565b9050602081019050919050565b82818337600083830152505050565b60006110ae6110a98461105b565b610fd3565b9050828152602081018484840111156110ca576110c9611056565b5b6110d584828561108c565b509392505050565b600082601f8301126110f2576110f1611051565b5b813561110284826020860161109b565b91505092915050565b60006080828403121561112157611120610f5d565b5b61112b6080610fd3565b9050600061113b8482850161103c565b600083015250602082013567ffffffffffffffff81111561115f5761115e610fee565b5b61116b848285016110dd565b602083015250604082013567ffffffffffffffff81111561118f5761118e610fee565b5b61119b848285016110dd565b604083015250606082013567ffffffffffffffff8111156111bf576111be610fee565b5b6111cb848285016110dd565b60608301525092915050565b6000602082840312156111ed576111ec610f53565b5b600082013567ffffffffffffffff81111561120b5761120a610f58565b5b6112178482850161110b565b91505092915050565b60008115159050919050565b61123581611220565b82525050565b6000602082019050611250600083018461122c565b92915050565b60006020828403121561126c5761126b610f53565b5b600061127a8482850161103c565b91505092915050565b61128c81611220565b82525050565b600081519050919050565b600082825260208201905092915050565b60005b838110156112cc5780820151818401526020810190506112b1565b60008484015250505050565b60006112e382611292565b6112ed818561129d565b93506112fd8185602086016112ae565b61130681610f62565b840191505092915050565b60006040830160008301516113296000860182611283565b506020830151848203602086015261134182826112d8565b9150508091505092915050565b600060208201905081810360008301526113688184611311565b905092915050565b61137981611013565b82525050565b60006080830160008301516113976000860182611370565b50602083015184820360208601526113af82826112d8565b915050604083015184820360408601526113c982826112d8565b915050606083015184820360608601526113e382826112d8565b9150508091505092915050565b60006040830160008301516114086000860182611283565b5060208301518482036020860152611420828261137f565b9150508091505092915050565b6000602082019050818103600083015261144781846113f0565b905092915050565b60006020828403121561146557611464610f53565b5b600082013567ffffffffffffffff81111561148357611482610f58565b5b61148f848285016110dd565b91505092915050565b6040820160008201516114ae6000850182611283565b5060208201516114c16020850182611370565b50505050565b60006040820190506114dc6000830184611498565b92915050565b60006080830160008301516114fa6000860182611370565b506020830151848203602086015261151282826112d8565b9150506040830151848203604086015261152c82826112d8565b9150506060830151848203606086015261154682826112d8565b9150508091505092915050565b6000602082019050818103600083015261156d81846114e2565b905092915050565b61157e81611220565b811461158957600080fd5b50565b60008151905061159b81611575565b92915050565b6000602082840312156115b7576115b6610f53565b5b60006115c58482850161158c565b91505092915050565b7f4e487b7100000000000000000000000000000000000000000000000000000000600052602260045260246000fd5b6000600282049050600182168061161557607f821691505b602082108103611628576116276115ce565b5b50919050565b60008190508160005260206000209050919050565b60006020601f8301049050919050565b600082821b905092915050565b6000600883026116907fffffffffffffffffffffffffffffffffffffffffffffffffffffffffffffffff82611653565b61169a8683611653565b95508019841693508086168417925050509392505050565b6000819050919050565b6000819050919050565b60006116e16116dc6116d7846116b2565b6116bc565b6116b2565b9050919050565b6000819050919050565b6116fb836116c6565b61170f611707826116e8565b848454611660565b825550505050565b600090565b611724611717565b61172f8184846116f2565b505050565b5b818110156117535761174860008261171c565b600181019050611735565b5050565b601f821115611798576117698161162e565b61177284611643565b81016020851015611781578190505b61179561178d85611643565b830182611734565b50505b505050565b600082821c905092915050565b60006117bb6000198460080261179d565b1980831691505092915050565b60006117d483836117aa565b9150826002028217905092915050565b6117ed82611292565b67ffffffffffffffff81111561180657611805610f73565b5b61181082546115fd565b61181b828285611757565b600060209050601f83116001811461184e576000841561183c578287015190505b61184685826117c8565b8655506118ae565b601f19841661185c8661162e565b60005b828110156118845784890151825560018201915060208501945060208101905061185f565b868310156118a1578489015161189d601f8916826117aa565b8355505b6001600288020188555050505b505050505050565b600081905092915050565b60006118cc82611292565b6118d681856118b6565b93506118e68185602086016112ae565b80840191505092915050565b60006118fe82846118c1565b91508190509291505056fea26469706673582212206b3e538dadce8f4d3ffbd71f1ec0ceec8dd340c4e1b7a379b16f64ef024bb05764736f6c63430008130033608060405234801561001057600080fd5b5033600160006101000a81548173ffffffffffffffffffffffffffffffffffffffff021916908373ffffffffffffffffffffffffffffffffffffffff16021790555033600260006101000a81548173ffffffffffffffffffffffffffffffffffffffff021916908373ffffffffffffffffffffffffffffffffffffffff1602179055506113e1806100a26000396000f3fe608060405234801561001057600080fd5b50600436106100365760003560e01c8063759ab1851461003b578063c47ebddc1461006b575b600080fd5b61005560048036038101906100509190610a68565b610087565b6040516100629190610d3b565b60405180910390f35b61008560048036038101906100809190610d89565b6105e7565b005b61008f6107aa565b6000808054905067ffffffffffffffff8111156100af576100ae610852565b5b6040519080825280602002602001820160405280156100e857816020015b6100d56107c6565b8152602001906001900390816100cd5790505b5090506000805b845181101561054457600160009054906101000a900473ffffffffffffffffffffffffffffffffffffffff1673ffffffffffffffffffffffffffffffffffffffff16631ac47dd03387848151811061014a57610149610e58565b5b60200260200101516040518363ffffffff1660e01b815260040161016f929190610ee0565b602060405180830381865afa15801561018c573d6000803e3d6000fd5b505050506040513d601f19601f820116820180604052508101906101b09190610f3c565b156105315760005b60008054905081101561052f578582815181106101d8576101d7610e58565b5b60200260200101516040516020016101f09190610fa5565b604051602081830303815290604052805190602001206000828154811061021a57610219610e58565b5b906000526020600020906006020160000160405160200161023b91906110b4565b604051602081830303815290604052805190602001200361051c576000818154811061026a57610269610e58565b5b90600052602060002090600602016040518060c001604052908160008201805461029390610feb565b80601f01602080910402602001604051908101604052809291908181526020018280546102bf90610feb565b801561030c5780601f106102e15761010080835404028352916020019161030c565b820191906000526020600020905b8154815290600101906020018083116102ef57829003601f168201915b505050505081526020016001820160009054906101000a900473ffffffffffffffffffffffffffffffffffffffff1673ffffffffffffffffffffffffffffffffffffffff1673ffffffffffffffffffffffffffffffffffffffff1681526020016002820154815260200160038201805461038590610feb565b80601f01602080910402602001604051908101604052809291908181526020018280546103b190610feb565b80156103fe5780601f106103d3576101008083540402835291602001916103fe565b820191906000526020600020905b8154815290600101906020018083116103e157829003601f168201915b5050505050815260200160048201805461041790610feb565b80601f016020809104026020016040519081016040528092919081815260200182805461044390610feb565b80156104905780601f1061046557610100808354040283529160200191610490565b820191906000526020600020905b81548152906001019060200180831161047357829003601f168201915b505050505081526020016005820160009054906101000a900473ffffffffffffffffffffffffffffffffffffffff1673ffffffffffffffffffffffffffffffffffffffff1673ffffffffffffffffffffffffffffffffffffffff168152505084848151811061050257610501610e58565b5b60200260200101819052508280610518906110fa565b9350505b8080610527906110fa565b9150506101b8565b505b808061053c906110fa565b9150506100ef565b508082526000811461057157604051806040016040528060011515815260200183815250925050506105e2565b6040518060400160405280600015158152602001600067ffffffffffffffff8111156105a05761059f610852565b5b6040519080825280602002602001820160405280156105d957816020015b6105c66107c6565b8152602001906001900390816105be5790505b50815250925050505b919050565b600260009054906101000a900473ffffffffffffffffffffffffffffffffffffffff1673ffffffffffffffffffffffffffffffffffffffff163373ffffffffffffffffffffffffffffffffffffffff16036107a35760006040518060c001604052808681526020018573ffffffffffffffffffffffffffffffffffffffff1681526020014281526020018381526020018481526020018773ffffffffffffffffffffffffffffffffffffffff168152509050600081908060018154018082558091505060019003906000526020600020906006020160009091909190915060008201518160000190816106da91906112d9565b5060208201518160010160006101000a81548173ffffffffffffffffffffffffffffffffffffffff021916908373ffffffffffffffffffffffffffffffffffffffff16021790555060408201518160020155606082015181600301908161074191906112d9565b50608082015181600401908161075791906112d9565b5060a08201518160050160006101000a81548173ffffffffffffffffffffffffffffffffffffffff021916908373ffffffffffffffffffffffffffffffffffffffff1602179055505050505b5050505050565b6040518060400160405280600015158152602001606081525090565b6040518060c0016040528060608152602001600073ffffffffffffffffffffffffffffffffffffffff168152602001600081526020016060815260200160608152602001600073ffffffffffffffffffffffffffffffffffffffff1681525090565b6000604051905090565b600080fd5b600080fd5b600080fd5b6000601f19601f8301169050919050565b7f4e487b7100000000000000000000000000000000000000000000000000000000600052604160045260246000fd5b61088a82610841565b810181811067ffffffffffffffff821117156108a9576108a8610852565b5b80604052505050565b60006108bc610828565b90506108c88282610881565b919050565b600067ffffffffffffffff8211156108e8576108e7610852565b5b602082029050602081019050919050565b600080fd5b600080fd5b600067ffffffffffffffff82111561091e5761091d610852565b5b61092782610841565b9050602081019050919050565b82818337600083830152505050565b600061095661095184610903565b6108b2565b905082815260208101848484011115610972576109716108fe565b5b61097d848285610934565b509392505050565b600082601f83011261099a5761099961083c565b5b81356109aa848260208601610943565b91505092915050565b60006109c66109c1846108cd565b6108b2565b905080838252602082019050602084028301858111156109e9576109e86108f9565b5b835b81811015610a3057803567ffffffffffffffff811115610a0e57610a0d61083c565b5b808601610a1b8982610985565b855260208501945050506020810190506109eb565b5050509392505050565b600082601f830112610a4f57610a4e61083c565b5b8135610a5f8482602086016109b3565b91505092915050565b600060208284031215610a7e57610a7d610832565b5b600082013567ffffffffffffffff811115610a9c57610a9b610837565b5b610aa884828501610a3a565b91505092915050565b60008115159050919050565b610ac681610ab1565b82525050565b600081519050919050565b600082825260208201905092915050565b6000819050602082019050919050565b600081519050919050565b600082825260208201905092915050565b60005b83811015610b32578082015181840152602081019050610b17565b60008484015250505050565b6000610b4982610af8565b610b538185610b03565b9350610b63818560208601610b14565b610b6c81610841565b840191505092915050565b600073ffffffffffffffffffffffffffffffffffffffff82169050919050565b6000610ba282610b77565b9050919050565b610bb281610b97565b82525050565b6000819050919050565b610bcb81610bb8565b82525050565b600060c0830160008301518482036000860152610bee8282610b3e565b9150506020830151610c036020860182610ba9565b506040830151610c166040860182610bc2565b5060608301518482036060860152610c2e8282610b3e565b91505060808301518482036080860152610c488282610b3e565b91505060a0830151610c5d60a0860182610ba9565b508091505092915050565b6000610c748383610bd1565b905092915050565b6000602082019050919050565b6000610c9482610acc565b610c9e8185610ad7565b935083602082028501610cb085610ae8565b8060005b85811015610cec5784840389528151610ccd8582610c68565b9450610cd883610c7c565b925060208a01995050600181019050610cb4565b50829750879550505050505092915050565b6000604083016000830151610d166000860182610abd565b5060208301518482036020860152610d2e8282610c89565b9150508091505092915050565b60006020820190508181036000830152610d558184610cfe565b905092915050565b610d6681610b97565b8114610d7157600080fd5b50565b600081359050610d8381610d5d565b92915050565b600080600080600060a08688031215610da557610da4610832565b5b6000610db388828901610d74565b955050602086013567ffffffffffffffff811115610dd457610dd3610837565b5b610de088828901610985565b9450506040610df188828901610d74565b935050606086013567ffffffffffffffff811115610e1257610e11610837565b5b610e1e88828901610985565b925050608086013567ffffffffffffffff811115610e3f57610e3e610837565b5b610e4b88828901610985565b9150509295509295909350565b7f4e487b7100000000000000000000000000000000000000000000000000000000600052603260045260246000fd5b610e9081610b97565b82525050565b600082825260208201905092915050565b6000610eb282610af8565b610ebc8185610e96565b9350610ecc818560208601610b14565b610ed581610841565b840191505092915050565b6000604082019050610ef56000830185610e87565b8181036020830152610f078184610ea7565b90509392505050565b610f1981610ab1565b8114610f2457600080fd5b50565b600081519050610f3681610f10565b92915050565b600060208284031215610f5257610f51610832565b5b6000610f6084828501610f27565b91505092915050565b600081905092915050565b6000610f7f82610af8565b610f898185610f69565b9350610f99818560208601610b14565b80840191505092915050565b6000610fb18284610f74565b915081905092915050565b7f4e487b7100000000000000000000000000000000000000000000000000000000600052602260045260246000fd5b6000600282049050600182168061100357607f821691505b60208210810361101657611015610fbc565b5b50919050565b60008190508160005260206000209050919050565b6000815461103e81610feb565b6110488186610f69565b945060018216600081146110635760018114611078576110ab565b60ff19831686528115158202860193506110ab565b6110818561101c565b60005b838110156110a357815481890152600182019150602081019050611084565b838801955050505b50505092915050565b60006110c08284611031565b915081905092915050565b7f4e487b7100000000000000000000000000000000000000000000000000000000600052601160045260246000fd5b600061110582610bb8565b91507fffffffffffffffffffffffffffffffffffffffffffffffffffffffffffffffff8203611137576111366110cb565b5b600182019050919050565b60006020601f8301049050919050565b600082821b905092915050565b60006008830261118f7fffffffffffffffffffffffffffffffffffffffffffffffffffffffffffffffff82611152565b6111998683611152565b95508019841693508086168417925050509392505050565b6000819050919050565b60006111d66111d16111cc84610bb8565b6111b1565b610bb8565b9050919050565b6000819050919050565b6111f0836111bb565b6112046111fc826111dd565b84845461115f565b825550505050565b600090565b61121961120c565b6112248184846111e7565b505050565b5b818110156112485761123d600082611211565b60018101905061122a565b5050565b601f82111561128d5761125e8161101c565b61126784611142565b81016020851015611276578190505b61128a61128285611142565b830182611229565b50505b505050565b600082821c905092915050565b60006112b060001984600802611292565b1980831691505092915050565b60006112c9838361129f565b9150826002028217905092915050565b6112e282610af8565b67ffffffffffffffff8111156112fb576112fa610852565b5b6113058254610feb565b61131082828561124c565b600060209050601f8311600181146113435760008415611331578287015190505b61133b85826112bd565b8655506113a3565b601f1984166113518661101c565b60005b8281101561137957848901518255600182019150602085019450602081019050611354565b868310156113965784890151611392601f89168261129f565b8355505b6001600288020188555050505b50505050505056fea2646970667358221220970f18faadf8f50d574e18e00ccd98f8d296e62cbf1fe04ee494770deba4939964736f6c63430008130033",
  "linkReferences": {},
  "deployedLinkReferences": {}
}