{
  "_format": "hh-sol-artifact-1",
  "contractName": "AccessControl",
  "sourceName": "contracts/AccessControl.sol",
  "abi": [
    {
      "inputs": [
        {
          "internalType": "address",
          "name": "fileRegisterContract",
          "type": "address"
        },
        {
          "internalType": "address",
          "name": "userRegisterContract",
          "type": "address"
        },
        {
          "internalType": "address",
          "name": "helperContract",
          "type": "address"
        }
      ],
      "stateMutability": "nonpayable",
      "type": "constructor"
    },
    {
      "inputs": [
        {
          "internalType": "address",
          "name": "userAccount",
          "type": "address"
        },
        {
          "internalType": "string",
          "name": "fileIpfsCID",
          "type": "string"
        }
      ],
      "name": "elegibleToShare",
      "outputs": [
        {
          "internalType": "bool",
          "name": "",
          "type": "bool"
        }
      ],
      "stateMutability": "view",
      "type": "function"
    },
    {
      "inputs": [
        {
          "internalType": "address",
          "name": "userAccount",
          "type": "address"
        },
        {
          "internalType": "string",
          "name": "fileIpfsCID",
          "type": "string"
        }
      ],
      "name": "elegibleToUpdPermissions",
      "outputs": [
        {
          "internalType": "bool",
          "name": "",
          "type": "bool"
        }
      ],
      "stateMutability": "view",
      "type": "function"
    },
    {
      "inputs": [
        {
          "internalType": "address",
          "name": "userAccount",
          "type": "address"
        },
        {
          "internalType": "string",
          "name": "fileIpfsCID",
          "type": "string"
        }
      ],
      "name": "elegibleToUpload",
      "outputs": [
        {
          "internalType": "bool",
          "name": "",
          "type": "bool"
        }
      ],
      "stateMutability": "view",
      "type": "function"
    },
    {
      "inputs": [
        {
          "internalType": "address",
          "name": "accountUser",
          "type": "address"
        },
        {
          "internalType": "string",
          "name": "fileIpfsCID",
          "type": "string"
        }
      ],
      "name": "getEncSymmetricKeyFileUser",
      "outputs": [
        {
          "components": [
            {
              "internalType": "bool",
              "name": "success",
              "type": "bool"
            },
            {
              "internalType": "string",
              "name": "resultString",
              "type": "string"
            }
          ],
          "internalType": "struct Helper.ResultString",
          "name": "",
          "type": "tuple"
        }
      ],
      "stateMutability": "view",
      "type": "function"
    },
    {
      "inputs": [
        {
          "internalType": "address",
          "name": "userAccount",
          "type": "address"
        },
        {
          "internalType": "string",
          "name": "fileIpfsCID",
          "type": "string"
        }
      ],
      "name": "getPermissionsOverFile",
      "outputs": [
        {
          "components": [
            {
              "internalType": "bool",
              "name": "success",
              "type": "bool"
            },
            {
              "internalType": "string[]",
              "name": "resultStrings",
              "type": "string[]"
            }
          ],
          "internalType": "struct Helper.ResultStringArray",
          "name": "",
          "type": "tuple"
        }
      ],
      "stateMutability": "view",
      "type": "function"
    },
    {
      "inputs": [
        {
          "internalType": "address",
          "name": "account",
          "type": "address"
        }
      ],
      "name": "getUserFiles",
      "outputs": [
        {
          "components": [
            {
              "internalType": "bool",
              "name": "success",
              "type": "bool"
            },
            {
              "components": [
                {
                  "internalType": "string",
                  "name": "ipfsCID",
                  "type": "string"
                },
                {
                  "internalType": "string",
                  "name": "fileName",
                  "type": "string"
                },
                {
                  "internalType": "address",
                  "name": "owner",
                  "type": "address"
                },
                {
                  "internalType": "string",
                  "name": "fileType",
                  "type": "string"
                },
                {
                  "internalType": "string",
                  "name": "iv",
                  "type": "string"
                }
              ],
              "internalType": "struct FileRegister.File[]",
              "name": "files",
              "type": "tuple[]"
            }
          ],
          "internalType": "struct FileRegister.ResultFiles",
          "name": "",
          "type": "tuple"
        }
      ],
      "stateMutability": "view",
      "type": "function"
    },
    {
      "inputs": [
        {
          "internalType": "address",
          "name": "accountInput",
          "type": "address"
        },
        {
          "internalType": "address",
          "name": "accountList",
          "type": "address"
        },
        {
          "internalType": "string",
          "name": "ipfsCIDInput",
          "type": "string"
        },
        {
          "internalType": "string",
          "name": "ipfsCIDList",
          "type": "string"
        }
      ],
      "name": "isKeyEqual",
      "outputs": [
        {
          "internalType": "bool",
          "name": "",
          "type": "bool"
        }
      ],
      "stateMutability": "pure",
      "type": "function"
    },
    {
      "inputs": [
        {
          "internalType": "string",
          "name": "fileIpfsCID",
          "type": "string"
        }
      ],
      "name": "messageSenderAssociatedToFile",
      "outputs": [
        {
          "internalType": "bool",
          "name": "",
          "type": "bool"
        }
      ],
      "stateMutability": "view",
      "type": "function"
    },
    {
      "inputs": [
        {
          "internalType": "address",
          "name": "userAccount",
          "type": "address"
        },
        {
          "internalType": "string",
          "name": "fileIpfsCID",
          "type": "string"
        },
        {
          "internalType": "string",
          "name": "encSymmetricKey",
          "type": "string"
        },
        {
          "internalType": "string[]",
          "name": "permissions",
          "type": "string[]"
        }
      ],
      "name": "shareFile",
      "outputs": [],
      "stateMutability": "nonpayable",
      "type": "function"
    },
    {
      "inputs": [
        {
          "internalType": "address",
          "name": "userAccount",
          "type": "address"
        },
        {
          "internalType": "string",
          "name": "fileIpfsCID",
          "type": "string"
        },
        {
          "internalType": "string[]",
          "name": "permissions",
          "type": "string[]"
        }
      ],
      "name": "updateUserFilePermissions",
      "outputs": [],
      "stateMutability": "nonpayable",
      "type": "function"
    },
    {
      "inputs": [
        {
          "internalType": "address",
          "name": "userAccount",
          "type": "address"
        },
        {
          "internalType": "string",
          "name": "fileIpfsCID",
          "type": "string"
        },
        {
          "internalType": "string",
          "name": "encSymmetricKey",
          "type": "string"
        }
      ],
      "name": "uploadFile",
      "outputs": [],
      "stateMutability": "nonpayable",
      "type": "function"
    },
    {
      "inputs": [
        {
          "internalType": "address",
          "name": "userAccount",
          "type": "address"
        },
        {
          "internalType": "string",
          "name": "fileIpfsCID",
          "type": "string"
        }
      ],
      "name": "userAssociatedWithFile",
      "outputs": [
        {
          "internalType": "bool",
          "name": "",
          "type": "bool"
        }
      ],
      "stateMutability": "view",
      "type": "function"
    },
    {
      "inputs": [
        {
          "internalType": "address",
          "name": "userAccount",
          "type": "address"
        },
        {
          "internalType": "string",
          "name": "fileIpfsCID",
          "type": "string"
        }
      ],
      "name": "userHasSharePermissionOverFile",
      "outputs": [
        {
          "internalType": "bool",
          "name": "",
          "type": "bool"
        }
      ],
      "stateMutability": "view",
      "type": "function"
    }
  ],
  "bytecode": "0x60806040523480156200001157600080fd5b50604051620031513803806200315183398181016040528101906200003791906200016d565b82600160006101000a81548173ffffffffffffffffffffffffffffffffffffffff021916908373ffffffffffffffffffffffffffffffffffffffff16021790555081600260006101000a81548173ffffffffffffffffffffffffffffffffffffffff021916908373ffffffffffffffffffffffffffffffffffffffff16021790555080600360006101000a81548173ffffffffffffffffffffffffffffffffffffffff021916908373ffffffffffffffffffffffffffffffffffffffff160217905550505050620001c9565b600080fd5b600073ffffffffffffffffffffffffffffffffffffffff82169050919050565b6000620001358262000108565b9050919050565b620001478162000128565b81146200015357600080fd5b50565b60008151905062000167816200013c565b92915050565b60008060006060848603121562000189576200018862000103565b5b6000620001998682870162000156565b9350506020620001ac8682870162000156565b9250506040620001bf8682870162000156565b9150509250925092565b612f7880620001d96000396000f3fe608060405234801561001057600080fd5b50600436106100ce5760003560e01c80635c99c71b1161008c578063b58ea3a211610066578063b58ea3a21461025b578063d13120231461028b578063dee63aa1146102a7578063f1fcc0bf146102d7576100ce565b80635c99c71b146101df5780638af34fbc1461020f578063a126d94c1461022b576100ce565b8062c5e614146100d3578063173cd558146100ef5780631ac47dd01461011f5780631fc379221461014f5780632321f3181461017f578063299768c8146101af575b600080fd5b6100ed60048036038101906100e89190611f80565b610307565b005b6101096004803603810190610104919061203b565b6104c5565b6040516101169190612230565b60405180910390f35b6101396004803603810190610134919061203b565b610786565b6040516101469190612261565b60405180910390f35b6101696004803603810190610164919061227c565b6108d3565b6040516101769190612442565b60405180910390f35b6101996004803603810190610194919061203b565b610c3a565b6040516101a69190612261565b60405180910390f35b6101c960048036038101906101c49190612464565b610d3e565b6040516101d69190612261565b60405180910390f35b6101f960048036038101906101f491906124ad565b610e7e565b6040516102069190612261565b60405180910390f35b6102296004803603810190610224919061254c565b610f10565b005b6102456004803603810190610240919061203b565b61108d565b6040516102529190612614565b60405180910390f35b6102756004803603810190610270919061203b565b611300565b6040516102829190612261565b60405180910390f35b6102a560048036038101906102a09190612636565b61155f565b005b6102c160048036038101906102bc919061203b565b61186f565b6040516102ce9190612261565b60405180910390f35b6102f160048036038101906102ec919061203b565b611aba565b6040516102fe9190612261565b60405180910390f35b6103118484611300565b156104bf576000600360009054906101000a900473ffffffffffffffffffffffffffffffffffffffff1673ffffffffffffffffffffffffffffffffffffffff1663c1f69fd6868686866040518563ffffffff1660e01b815260040161037994939291906127a0565b602060405180830381865afa158015610396573d6000803e3d6000fd5b505050506040513d601f19601f820116820180604052508101906103ba9190612826565b905080156104bd57600060405180608001604052808773ffffffffffffffffffffffffffffffffffffffff168152602001868152602001858152602001848152509050600081908060018154018082558091505060019003906000526020600020906004020160009091909190915060008201518160000160006101000a81548173ffffffffffffffffffffffffffffffffffffffff021916908373ffffffffffffffffffffffffffffffffffffffff16021790555060208201518160010190816104859190612a69565b50604082015181600201908161049b9190612a69565b5060608201518160030190805190602001906104b8929190611b6f565b505050505b505b50505050565b6104cd611bc8565b6104d682610d3e565b156107175760005b600080549050811015610715576105e9846000838154811061050357610502612b3b565b5b906000526020600020906004020160000160009054906101000a900473ffffffffffffffffffffffffffffffffffffffff16856000858154811061054a57610549612b3b565b5b9060005260206000209060040201600101805461056690612882565b80601f016020809104026020016040519081016040528092919081815260200182805461059290612882565b80156105df5780601f106105b4576101008083540402835291602001916105df565b820191906000526020600020905b8154815290600101906020018083116105c257829003601f168201915b5050505050610e7e565b156107025760405180604001604052806001151581526020016000838154811061061657610615612b3b565b5b9060005260206000209060040201600301805480602002602001604051908101604052809291908181526020016000905b828210156106f357838290600052602060002001805461066690612882565b80601f016020809104026020016040519081016040528092919081815260200182805461069290612882565b80156106df5780601f106106b4576101008083540402835291602001916106df565b820191906000526020600020905b8154815290600101906020018083116106c257829003601f168201915b505050505081526020019060010190610647565b50505050815250915050610780565b808061070d90612b99565b9150506104de565b505b6040518060400160405280600015158152602001600067ffffffffffffffff81111561074657610745611d6f565b5b60405190808252806020026020018201604052801561077957816020015b60608152602001906001900390816107645790505b5081525090505b92915050565b600061079182610d3e565b156108c85760005b6000805490508110156108c6576108a484600083815481106107be576107bd612b3b565b5b906000526020600020906004020160000160009054906101000a900473ffffffffffffffffffffffffffffffffffffffff16856000858154811061080557610804612b3b565b5b9060005260206000209060040201600101805461082190612882565b80601f016020809104026020016040519081016040528092919081815260200182805461084d90612882565b801561089a5780601f1061086f5761010080835404028352916020019161089a565b820191906000526020600020905b81548152906001019060200180831161087d57829003601f168201915b5050505050610e7e565b156108b35760019150506108cd565b80806108be90612b99565b915050610799565b505b600090505b92915050565b6108db611be4565b8173ffffffffffffffffffffffffffffffffffffffff163373ffffffffffffffffffffffffffffffffffffffff1603610bc6576000808054905067ffffffffffffffff81111561092e5761092d611d6f565b5b60405190808252806020026020018201604052801561096757816020015b610954611c00565b81526020019060019003908161094c5790505b5090506000805b600080549050811015610b96578473ffffffffffffffffffffffffffffffffffffffff16600082815481106109a6576109a5612b3b565b5b906000526020600020906004020160000160009054906101000a900473ffffffffffffffffffffffffffffffffffffffff1673ffffffffffffffffffffffffffffffffffffffff1603610b83576000808281548110610a0857610a07612b3b565b5b90600052602060002090600402016001018054610a2490612882565b80601f0160208091040260200160405190810160405280929190818152602001828054610a5090612882565b8015610a9d5780601f10610a7257610100808354040283529160200191610a9d565b820191906000526020600020905b815481529060010190602001808311610a8057829003601f168201915b505050505090506000600160009054906101000a900473ffffffffffffffffffffffffffffffffffffffff1673ffffffffffffffffffffffffffffffffffffffff16639f5937f8836040518263ffffffff1660e01b8152600401610b019190612be1565b600060405180830381865afa158015610b1e573d6000803e3d6000fd5b505050506040513d6000823e3d601f19601f82011682018060405250810190610b479190612dfa565b905060008160200151905080868681518110610b6657610b65612b3b565b5b60200260200101819052508480610b7c90612b99565b9550505050505b8080610b8e90612b99565b91505061096e565b5080825260008114610bc35760405180604001604052806001151581526020018381525092505050610c35565b50505b6040518060400160405280600015158152602001600067ffffffffffffffff811115610bf557610bf4611d6f565b5b604051908082528060200260200182016040528015610c2e57816020015b610c1b611c00565b815260200190600190039081610c135790505b5081525090505b919050565b60008273ffffffffffffffffffffffffffffffffffffffff163373ffffffffffffffffffffffffffffffffffffffff1614158015610d135750600160009054906101000a900473ffffffffffffffffffffffffffffffffffffffff1673ffffffffffffffffffffffffffffffffffffffff166352a9baef84846040518363ffffffff1660e01b8152600401610cd0929190612e43565b602060405180830381865afa158015610ced573d6000803e3d6000fd5b505050506040513d601f19601f82011682018060405250810190610d119190612826565b155b8015610d255750610d243383611aba565b5b15610d335760019050610d38565b600090505b92915050565b600080600090505b600080549050811015610e7357610e513360008381548110610d6b57610d6a612b3b565b5b906000526020600020906004020160000160009054906101000a900473ffffffffffffffffffffffffffffffffffffffff168560008581548110610db257610db1612b3b565b5b90600052602060002090600402016001018054610dce90612882565b80601f0160208091040260200160405190810160405280929190818152602001828054610dfa90612882565b8015610e475780601f10610e1c57610100808354040283529160200191610e47565b820191906000526020600020905b815481529060010190602001808311610e2a57829003601f168201915b5050505050610e7e565b15610e60576001915050610e79565b8080610e6b90612b99565b915050610d46565b50600090505b919050565b60008473ffffffffffffffffffffffffffffffffffffffff168473ffffffffffffffffffffffffffffffffffffffff16148015610f06575082604051602001610ec79190612eaf565b6040516020818303038152906040528051906020012082604051602001610eee9190612eaf565b60405160208183030381529060405280519060200120145b9050949350505050565b610f1a8383610c3a565b156110875760005b6000805490508110156110855761102d8460008381548110610f4757610f46612b3b565b5b906000526020600020906004020160000160009054906101000a900473ffffffffffffffffffffffffffffffffffffffff168560008581548110610f8e57610f8d612b3b565b5b90600052602060002090600402016001018054610faa90612882565b80601f0160208091040260200160405190810160405280929190818152602001828054610fd690612882565b80156110235780601f10610ff857610100808354040283529160200191611023565b820191906000526020600020905b81548152906001019060200180831161100657829003601f168201915b5050505050610e7e565b1561107257816000828154811061104757611046612b3b565b5b9060005260206000209060040201600301908051906020019061106b929190611b6f565b5050611088565b808061107d90612b99565b915050610f22565b505b5b505050565b611095611c45565b8273ffffffffffffffffffffffffffffffffffffffff163373ffffffffffffffffffffffffffffffffffffffff161480156110d657506110d58383610786565b5b156112d05760005b6000805490508110156112ce576111e9846000838154811061110357611102612b3b565b5b906000526020600020906004020160000160009054906101000a900473ffffffffffffffffffffffffffffffffffffffff16856000858154811061114a57611149612b3b565b5b9060005260206000209060040201600101805461116690612882565b80601f016020809104026020016040519081016040528092919081815260200182805461119290612882565b80156111df5780601f106111b4576101008083540402835291602001916111df565b820191906000526020600020905b8154815290600101906020018083116111c257829003601f168201915b5050505050610e7e565b156112bb5760405180604001604052806001151581526020016000838154811061121657611215612b3b565b5b9060005260206000209060040201600201805461123290612882565b80601f016020809104026020016040519081016040528092919081815260200182805461125e90612882565b80156112ab5780601f10611280576101008083540402835291602001916112ab565b820191906000526020600020905b81548152906001019060200180831161128e57829003601f168201915b50505050508152509150506112fa565b80806112c690612b99565b9150506110de565b505b60405180604001604052806000151581526020016040518060200160405280600081525081525090505b92915050565b60008273ffffffffffffffffffffffffffffffffffffffff163373ffffffffffffffffffffffffffffffffffffffff16141580156113d95750600160009054906101000a900473ffffffffffffffffffffffffffffffffffffffff1673ffffffffffffffffffffffffffffffffffffffff166352a9baef84846040518363ffffffff1660e01b8152600401611396929190612e43565b602060405180830381865afa1580156113b3573d6000803e3d6000fd5b505050506040513d601f19601f820116820180604052508101906113d79190612826565b155b80156113eb57506113ea3383611aba565b5b80156113fe57506113fc8383610786565b155b80156114a25750600160009054906101000a900473ffffffffffffffffffffffffffffffffffffffff1673ffffffffffffffffffffffffffffffffffffffff16639bccd6ad836040518263ffffffff1660e01b81526004016114609190612be1565b602060405180830381865afa15801561147d573d6000803e3d6000fd5b505050506040513d601f19601f820116820180604052508101906114a19190612826565b5b80156115465750600260009054906101000a900473ffffffffffffffffffffffffffffffffffffffff1673ffffffffffffffffffffffffffffffffffffffff1663a240e426846040518263ffffffff1660e01b81526004016115049190612ec6565b602060405180830381865afa158015611521573d6000803e3d6000fd5b505050506040513d601f19601f820116820180604052508101906115459190612826565b5b156115545760019050611559565b600090505b92915050565b611569838361186f565b1561186a576000600367ffffffffffffffff81111561158b5761158a611d6f565b5b6040519080825280602002602001820160405280156115be57816020015b60608152602001906001900390816115a95790505b5090506040518060400160405280600581526020017f73686172650000000000000000000000000000000000000000000000000000008152508160008151811061160b5761160a612b3b565b5b60200260200101819052506040518060400160405280600881526020017f646f776e6c6f6164000000000000000000000000000000000000000000000000815250816001815181106116605761165f612b3b565b5b60200260200101819052506040518060400160405280600681526020017f64656c6574650000000000000000000000000000000000000000000000000000815250816002815181106116b5576116b4612b3b565b5b60200260200101819052506000600360009054906101000a900473ffffffffffffffffffffffffffffffffffffffff1673ffffffffffffffffffffffffffffffffffffffff1663c1f69fd6868686866040518563ffffffff1660e01b815260040161172394939291906127a0565b602060405180830381865afa158015611740573d6000803e3d6000fd5b505050506040513d601f19601f820116820180604052508101906117649190612826565b9050801561186757600060405180608001604052808773ffffffffffffffffffffffffffffffffffffffff168152602001868152602001858152602001848152509050600081908060018154018082558091505060019003906000526020600020906004020160009091909190915060008201518160000160006101000a81548173ffffffffffffffffffffffffffffffffffffffff021916908373ffffffffffffffffffffffffffffffffffffffff160217905550602082015181600101908161182f9190612a69565b5060408201518160020190816118459190612a69565b506060820151816003019080519060200190611862929190611b6f565b505050505b50505b505050565b60008273ffffffffffffffffffffffffffffffffffffffff163373ffffffffffffffffffffffffffffffffffffffff161480156118b357506118b18383610786565b155b80156119595750600160009054906101000a900473ffffffffffffffffffffffffffffffffffffffff1673ffffffffffffffffffffffffffffffffffffffff166352a9baef84846040518363ffffffff1660e01b8152600401611917929190612e43565b602060405180830381865afa158015611934573d6000803e3d6000fd5b505050506040513d601f19601f820116820180604052508101906119589190612826565b5b80156119fd5750600160009054906101000a900473ffffffffffffffffffffffffffffffffffffffff1673ffffffffffffffffffffffffffffffffffffffff16639bccd6ad836040518263ffffffff1660e01b81526004016119bb9190612be1565b602060405180830381865afa1580156119d8573d6000803e3d6000fd5b505050506040513d601f19601f820116820180604052508101906119fc9190612826565b5b8015611aa15750600260009054906101000a900473ffffffffffffffffffffffffffffffffffffffff1673ffffffffffffffffffffffffffffffffffffffff1663a240e426846040518263ffffffff1660e01b8152600401611a5f9190612ec6565b602060405180830381865afa158015611a7c573d6000803e3d6000fd5b505050506040513d601f19601f82011682018060405250810190611aa09190612826565b5b15611aaf5760019050611ab4565b600090505b92915050565b600080611ac784846104c5565b60200151905060005b8151811015611b6257604051602001611ae890612f2d565b60405160208183030381529060405280519060200120828281518110611b1157611b10612b3b565b5b6020026020010151604051602001611b299190612eaf565b6040516020818303038152906040528051906020012003611b4f57600192505050611b69565b8080611b5a90612b99565b915050611ad0565b5060009150505b92915050565b828054828255906000526020600020908101928215611bb7579160200282015b82811115611bb6578251829081611ba69190612a69565b5091602001919060010190611b8f565b5b509050611bc49190611c61565b5090565b6040518060400160405280600015158152602001606081525090565b6040518060400160405280600015158152602001606081525090565b6040518060a001604052806060815260200160608152602001600073ffffffffffffffffffffffffffffffffffffffff16815260200160608152602001606081525090565b6040518060400160405280600015158152602001606081525090565b5b80821115611c815760008181611c789190611c85565b50600101611c62565b5090565b508054611c9190612882565b6000825580601f10611ca35750611cc2565b601f016020900490600052602060002090810190611cc19190611cc5565b5b50565b5b80821115611cde576000816000905550600101611cc6565b5090565b6000604051905090565b600080fd5b600080fd5b600073ffffffffffffffffffffffffffffffffffffffff82169050919050565b6000611d2182611cf6565b9050919050565b611d3181611d16565b8114611d3c57600080fd5b50565b600081359050611d4e81611d28565b92915050565b600080fd5b600080fd5b6000601f19601f8301169050919050565b7f4e487b7100000000000000000000000000000000000000000000000000000000600052604160045260246000fd5b611da782611d5e565b810181811067ffffffffffffffff82111715611dc657611dc5611d6f565b5b80604052505050565b6000611dd9611ce2565b9050611de58282611d9e565b919050565b600067ffffffffffffffff821115611e0557611e04611d6f565b5b611e0e82611d5e565b9050602081019050919050565b82818337600083830152505050565b6000611e3d611e3884611dea565b611dcf565b905082815260208101848484011115611e5957611e58611d59565b5b611e64848285611e1b565b509392505050565b600082601f830112611e8157611e80611d54565b5b8135611e91848260208601611e2a565b91505092915050565b600067ffffffffffffffff821115611eb557611eb4611d6f565b5b602082029050602081019050919050565b600080fd5b6000611ede611ed984611e9a565b611dcf565b90508083825260208201905060208402830185811115611f0157611f00611ec6565b5b835b81811015611f4857803567ffffffffffffffff811115611f2657611f25611d54565b5b808601611f338982611e6c565b85526020850194505050602081019050611f03565b5050509392505050565b600082601f830112611f6757611f66611d54565b5b8135611f77848260208601611ecb565b91505092915050565b60008060008060808587031215611f9a57611f99611cec565b5b6000611fa887828801611d3f565b945050602085013567ffffffffffffffff811115611fc957611fc8611cf1565b5b611fd587828801611e6c565b935050604085013567ffffffffffffffff811115611ff657611ff5611cf1565b5b61200287828801611e6c565b925050606085013567ffffffffffffffff81111561202357612022611cf1565b5b61202f87828801611f52565b91505092959194509250565b6000806040838503121561205257612051611cec565b5b600061206085828601611d3f565b925050602083013567ffffffffffffffff81111561208157612080611cf1565b5b61208d85828601611e6c565b9150509250929050565b60008115159050919050565b6120ac81612097565b82525050565b600081519050919050565b600082825260208201905092915050565b6000819050602082019050919050565b600081519050919050565b600082825260208201905092915050565b60005b838110156121185780820151818401526020810190506120fd565b60008484015250505050565b600061212f826120de565b61213981856120e9565b93506121498185602086016120fa565b61215281611d5e565b840191505092915050565b60006121698383612124565b905092915050565b6000602082019050919050565b6000612189826120b2565b61219381856120bd565b9350836020820285016121a5856120ce565b8060005b858110156121e157848403895281516121c2858261215d565b94506121cd83612171565b925060208a019950506001810190506121a9565b50829750879550505050505092915050565b600060408301600083015161220b60008601826120a3565b5060208301518482036020860152612223828261217e565b9150508091505092915050565b6000602082019050818103600083015261224a81846121f3565b905092915050565b61225b81612097565b82525050565b60006020820190506122766000830184612252565b92915050565b60006020828403121561229257612291611cec565b5b60006122a084828501611d3f565b91505092915050565b600081519050919050565b600082825260208201905092915050565b6000819050602082019050919050565b6122de81611d16565b82525050565b600060a08301600083015184820360008601526123018282612124565b9150506020830151848203602086015261231b8282612124565b915050604083015161233060408601826122d5565b50606083015184820360608601526123488282612124565b915050608083015184820360808601526123628282612124565b9150508091505092915050565b600061237b83836122e4565b905092915050565b6000602082019050919050565b600061239b826122a9565b6123a581856122b4565b9350836020820285016123b7856122c5565b8060005b858110156123f357848403895281516123d4858261236f565b94506123df83612383565b925060208a019950506001810190506123bb565b50829750879550505050505092915050565b600060408301600083015161241d60008601826120a3565b50602083015184820360208601526124358282612390565b9150508091505092915050565b6000602082019050818103600083015261245c8184612405565b905092915050565b60006020828403121561247a57612479611cec565b5b600082013567ffffffffffffffff81111561249857612497611cf1565b5b6124a484828501611e6c565b91505092915050565b600080600080608085870312156124c7576124c6611cec565b5b60006124d587828801611d3f565b94505060206124e687828801611d3f565b935050604085013567ffffffffffffffff81111561250757612506611cf1565b5b61251387828801611e6c565b925050606085013567ffffffffffffffff81111561253457612533611cf1565b5b61254087828801611e6c565b91505092959194509250565b60008060006060848603121561256557612564611cec565b5b600061257386828701611d3f565b935050602084013567ffffffffffffffff81111561259457612593611cf1565b5b6125a086828701611e6c565b925050604084013567ffffffffffffffff8111156125c1576125c0611cf1565b5b6125cd86828701611f52565b9150509250925092565b60006040830160008301516125ef60008601826120a3565b50602083015184820360208601526126078282612124565b9150508091505092915050565b6000602082019050818103600083015261262e81846125d7565b905092915050565b60008060006060848603121561264f5761264e611cec565b5b600061265d86828701611d3f565b935050602084013567ffffffffffffffff81111561267e5761267d611cf1565b5b61268a86828701611e6c565b925050604084013567ffffffffffffffff8111156126ab576126aa611cf1565b5b6126b786828701611e6c565b9150509250925092565b6126ca81611d16565b82525050565b600082825260208201905092915050565b60006126ec826120de565b6126f681856126d0565b93506127068185602086016120fa565b61270f81611d5e565b840191505092915050565b600082825260208201905092915050565b6000612736826120b2565b612740818561271a565b935083602082028501612752856120ce565b8060005b8581101561278e578484038952815161276f858261215d565b945061277a83612171565b925060208a01995050600181019050612756565b50829750879550505050505092915050565b60006080820190506127b560008301876126c1565b81810360208301526127c781866126e1565b905081810360408301526127db81856126e1565b905081810360608301526127ef818461272b565b905095945050505050565b61280381612097565b811461280e57600080fd5b50565b600081519050612820816127fa565b92915050565b60006020828403121561283c5761283b611cec565b5b600061284a84828501612811565b91505092915050565b7f4e487b7100000000000000000000000000000000000000000000000000000000600052602260045260246000fd5b6000600282049050600182168061289a57607f821691505b6020821081036128ad576128ac612853565b5b50919050565b60008190508160005260206000209050919050565b60006020601f8301049050919050565b600082821b905092915050565b6000600883026129157fffffffffffffffffffffffffffffffffffffffffffffffffffffffffffffffff826128d8565b61291f86836128d8565b95508019841693508086168417925050509392505050565b6000819050919050565b6000819050919050565b600061296661296161295c84612937565b612941565b612937565b9050919050565b6000819050919050565b6129808361294b565b61299461298c8261296d565b8484546128e5565b825550505050565b600090565b6129a961299c565b6129b4818484612977565b505050565b5b818110156129d8576129cd6000826129a1565b6001810190506129ba565b5050565b601f821115612a1d576129ee816128b3565b6129f7846128c8565b81016020851015612a06578190505b612a1a612a12856128c8565b8301826129b9565b50505b505050565b600082821c905092915050565b6000612a4060001984600802612a22565b1980831691505092915050565b6000612a598383612a2f565b9150826002028217905092915050565b612a72826120de565b67ffffffffffffffff811115612a8b57612a8a611d6f565b5b612a958254612882565b612aa08282856129dc565b600060209050601f831160018114612ad35760008415612ac1578287015190505b612acb8582612a4d565b865550612b33565b601f198416612ae1866128b3565b60005b82811015612b0957848901518255600182019150602085019450602081019050612ae4565b86831015612b265784890151612b22601f891682612a2f565b8355505b6001600288020188555050505b505050505050565b7f4e487b7100000000000000000000000000000000000000000000000000000000600052603260045260246000fd5b7f4e487b7100000000000000000000000000000000000000000000000000000000600052601160045260246000fd5b6000612ba482612937565b91507fffffffffffffffffffffffffffffffffffffffffffffffffffffffffffffffff8203612bd657612bd5612b6a565b5b600182019050919050565b60006020820190508181036000830152612bfb81846126e1565b905092915050565b600080fd5b600080fd5b6000612c20612c1b84611dea565b611dcf565b905082815260208101848484011115612c3c57612c3b611d59565b5b612c478482856120fa565b509392505050565b600082601f830112612c6457612c63611d54565b5b8151612c74848260208601612c0d565b91505092915050565b600081519050612c8c81611d28565b92915050565b600060a08284031215612ca857612ca7612c03565b5b612cb260a0611dcf565b9050600082015167ffffffffffffffff811115612cd257612cd1612c08565b5b612cde84828501612c4f565b600083015250602082015167ffffffffffffffff811115612d0257612d01612c08565b5b612d0e84828501612c4f565b6020830152506040612d2284828501612c7d565b604083015250606082015167ffffffffffffffff811115612d4657612d45612c08565b5b612d5284828501612c4f565b606083015250608082015167ffffffffffffffff811115612d7657612d75612c08565b5b612d8284828501612c4f565b60808301525092915050565b600060408284031215612da457612da3612c03565b5b612dae6040611dcf565b90506000612dbe84828501612811565b600083015250602082015167ffffffffffffffff811115612de257612de1612c08565b5b612dee84828501612c92565b60208301525092915050565b600060208284031215612e1057612e0f611cec565b5b600082015167ffffffffffffffff811115612e2e57612e2d611cf1565b5b612e3a84828501612d8e565b91505092915050565b6000604082019050612e5860008301856126c1565b8181036020830152612e6a81846126e1565b90509392505050565b600081905092915050565b6000612e89826120de565b612e938185612e73565b9350612ea38185602086016120fa565b80840191505092915050565b6000612ebb8284612e7e565b915081905092915050565b6000602082019050612edb60008301846126c1565b92915050565b7f7368617265000000000000000000000000000000000000000000000000000000600082015250565b6000612f17600583612e73565b9150612f2282612ee1565b600582019050919050565b6000612f3882612f0a565b915081905091905056fea26469706673582212206d2f4427099d0e0e04caba2dec3097290a22369109fa0303b38e8e9d4559b38364736f6c63430008130033",
  "linkReferences": {},
  "deployedLinkReferences": {}
}