{
  "_format": "hh-sol-artifact-1",
  "contractName": "AccessControl",
  "sourceName": "contracts/AccessControl.sol",
  "abi": [
    {
      "inputs": [
        {
          "internalType": "address",
          "name": "fileRegisterContract",
          "type": "address"
        }
      ],
      "stateMutability": "nonpayable",
      "type": "constructor"
    },
    {
      "inputs": [
        {
          "internalType": "address",
          "name": "userAccount",
          "type": "address"
        },
        {
          "components": [
            {
              "internalType": "string",
              "name": "ipfsCID",
              "type": "string"
            },
            {
              "internalType": "string",
              "name": "fileName",
              "type": "string"
            },
            {
              "internalType": "address",
              "name": "owner",
              "type": "address"
            },
            {
              "internalType": "string",
              "name": "fileType",
              "type": "string"
            },
            {
              "internalType": "string",
              "name": "iv",
              "type": "string"
            }
          ],
          "internalType": "struct FileRegister.File",
          "name": "file",
          "type": "tuple"
        },
        {
          "internalType": "string",
          "name": "encSymmetricKey",
          "type": "string"
        },
        {
          "internalType": "string[]",
          "name": "permissions",
          "type": "string[]"
        }
      ],
      "name": "addUserHasFile",
      "outputs": [],
      "stateMutability": "nonpayable",
      "type": "function"
    },
    {
      "inputs": [
        {
          "components": [
            {
              "internalType": "address",
              "name": "account",
              "type": "address"
            },
            {
              "internalType": "string",
              "name": "userName",
              "type": "string"
            },
            {
              "internalType": "string",
              "name": "publicKey",
              "type": "string"
            },
            {
              "internalType": "string",
              "name": "privateKey",
              "type": "string"
            }
          ],
          "internalType": "struct UserRegister.User",
          "name": "user",
          "type": "tuple"
        },
        {
          "components": [
            {
              "internalType": "string",
              "name": "ipfsCID",
              "type": "string"
            },
            {
              "internalType": "string",
              "name": "fileName",
              "type": "string"
            },
            {
              "internalType": "address",
              "name": "owner",
              "type": "address"
            },
            {
              "internalType": "string",
              "name": "fileType",
              "type": "string"
            },
            {
              "internalType": "string",
              "name": "iv",
              "type": "string"
            }
          ],
          "internalType": "struct FileRegister.File",
          "name": "file",
          "type": "tuple"
        }
      ],
      "name": "getEncSymmetricKeyFileUser",
      "outputs": [
        {
          "components": [
            {
              "internalType": "bool",
              "name": "success",
              "type": "bool"
            },
            {
              "internalType": "string",
              "name": "encSymmetricKey",
              "type": "string"
            }
          ],
          "internalType": "struct AccessControl.ResultActionString",
          "name": "",
          "type": "tuple"
        }
      ],
      "stateMutability": "view",
      "type": "function"
    },
    {
      "inputs": [
        {
          "internalType": "address",
          "name": "userAccount",
          "type": "address"
        },
        {
          "components": [
            {
              "internalType": "string",
              "name": "ipfsCID",
              "type": "string"
            },
            {
              "internalType": "string",
              "name": "fileName",
              "type": "string"
            },
            {
              "internalType": "address",
              "name": "owner",
              "type": "address"
            },
            {
              "internalType": "string",
              "name": "fileType",
              "type": "string"
            },
            {
              "internalType": "string",
              "name": "iv",
              "type": "string"
            }
          ],
          "internalType": "struct FileRegister.File",
          "name": "file",
          "type": "tuple"
        }
      ],
      "name": "getPermissionsOverFile",
      "outputs": [
        {
          "components": [
            {
              "internalType": "bool",
              "name": "success",
              "type": "bool"
            },
            {
              "internalType": "string[]",
              "name": "permissions",
              "type": "string[]"
            }
          ],
          "internalType": "struct AccessControl.ResultActionStringArray",
          "name": "",
          "type": "tuple"
        }
      ],
      "stateMutability": "view",
      "type": "function"
    },
    {
      "inputs": [
        {
          "internalType": "address",
          "name": "account",
          "type": "address"
        }
      ],
      "name": "getUserFiles",
      "outputs": [
        {
          "components": [
            {
              "internalType": "bool",
              "name": "success",
              "type": "bool"
            },
            {
              "components": [
                {
                  "internalType": "string",
                  "name": "ipfsCID",
                  "type": "string"
                },
                {
                  "internalType": "string",
                  "name": "fileName",
                  "type": "string"
                },
                {
                  "internalType": "address",
                  "name": "owner",
                  "type": "address"
                },
                {
                  "internalType": "string",
                  "name": "fileType",
                  "type": "string"
                },
                {
                  "internalType": "string",
                  "name": "iv",
                  "type": "string"
                }
              ],
              "internalType": "struct FileRegister.File[]",
              "name": "files",
              "type": "tuple[]"
            }
          ],
          "internalType": "struct AccessControl.ResultAction",
          "name": "",
          "type": "tuple"
        }
      ],
      "stateMutability": "view",
      "type": "function"
    },
    {
      "inputs": [
        {
          "internalType": "address",
          "name": "accountInput",
          "type": "address"
        },
        {
          "internalType": "address",
          "name": "accountList",
          "type": "address"
        },
        {
          "internalType": "string",
          "name": "ipfsCIDInput",
          "type": "string"
        },
        {
          "internalType": "string",
          "name": "ipfsCIDList",
          "type": "string"
        }
      ],
      "name": "isKeyEqual",
      "outputs": [
        {
          "internalType": "bool",
          "name": "",
          "type": "bool"
        }
      ],
      "stateMutability": "pure",
      "type": "function"
    },
    {
      "inputs": [
        {
          "internalType": "address",
          "name": "userAccount",
          "type": "address"
        },
        {
          "components": [
            {
              "internalType": "string",
              "name": "ipfsCID",
              "type": "string"
            },
            {
              "internalType": "string",
              "name": "fileName",
              "type": "string"
            },
            {
              "internalType": "address",
              "name": "owner",
              "type": "address"
            },
            {
              "internalType": "string",
              "name": "fileType",
              "type": "string"
            },
            {
              "internalType": "string",
              "name": "iv",
              "type": "string"
            }
          ],
          "internalType": "struct FileRegister.File",
          "name": "file",
          "type": "tuple"
        },
        {
          "internalType": "string[]",
          "name": "permissions",
          "type": "string[]"
        }
      ],
      "name": "updateUserFilePermissions",
      "outputs": [],
      "stateMutability": "nonpayable",
      "type": "function"
    },
    {
      "inputs": [
        {
          "internalType": "address",
          "name": "userAccount",
          "type": "address"
        },
        {
          "components": [
            {
              "internalType": "string",
              "name": "ipfsCID",
              "type": "string"
            },
            {
              "internalType": "string",
              "name": "fileName",
              "type": "string"
            },
            {
              "internalType": "address",
              "name": "owner",
              "type": "address"
            },
            {
              "internalType": "string",
              "name": "fileType",
              "type": "string"
            },
            {
              "internalType": "string",
              "name": "iv",
              "type": "string"
            }
          ],
          "internalType": "struct FileRegister.File",
          "name": "file",
          "type": "tuple"
        }
      ],
      "name": "userAssociatedWithFile",
      "outputs": [
        {
          "internalType": "bool",
          "name": "",
          "type": "bool"
        }
      ],
      "stateMutability": "view",
      "type": "function"
    }
  ],
  "bytecode": "0x60806040523480156200001157600080fd5b5060405162002297380380620022978339818101604052810190620000379190620000e9565b80600160006101000a81548173ffffffffffffffffffffffffffffffffffffffff021916908373ffffffffffffffffffffffffffffffffffffffff160217905550506200011b565b600080fd5b600073ffffffffffffffffffffffffffffffffffffffff82169050919050565b6000620000b18262000084565b9050919050565b620000c381620000a4565b8114620000cf57600080fd5b50565b600081519050620000e381620000b8565b92915050565b6000602082840312156200010257620001016200007f565b5b60006200011284828501620000d2565b91505092915050565b61216c806200012b6000396000f3fe608060405234801561001057600080fd5b506004361061007d5760003560e01c80635d02eece1161005b5780635d02eece146101125780637b371f7514610142578063b509210c14610172578063e886e6e31461018e5761007d565b80631c0c2891146100825780631fc37922146100b25780635c99c71b146100e2575b600080fd5b61009c600480360381019061009791906111f0565b6101aa565b6040516100a991906113e5565b60405180910390f35b6100cc60048036038101906100c79190611407565b610460565b6040516100d991906115cd565b60405180910390f35b6100fc60048036038101906100f791906115ef565b61073f565b604051610109919061169d565b60405180910390f35b61012c60048036038101906101279190611784565b6107d1565b6040516101399190611839565b60405180910390f35b61015c600480360381019061015791906111f0565b610a05565b604051610169919061169d565b60405180910390f35b61018c60048036038101906101879190611941565b610b4a565b005b6101a860048036038101906101a391906119cc565b610cbb565b005b6101b2610dbf565b60005b6000805490508110156103f0576102c484600083815481106101da576101d9611a87565b5b906000526020600020906004020160000160009054906101000a900473ffffffffffffffffffffffffffffffffffffffff1685600001516000858154811061022557610224611a87565b5b9060005260206000209060040201600101805461024190611ae5565b80601f016020809104026020016040519081016040528092919081815260200182805461026d90611ae5565b80156102ba5780601f1061028f576101008083540402835291602001916102ba565b820191906000526020600020905b81548152906001019060200180831161029d57829003601f168201915b505050505061073f565b156103dd576040518060400160405280600115158152602001600083815481106102f1576102f0611a87565b5b9060005260206000209060040201600301805480602002602001604051908101604052809291908181526020016000905b828210156103ce57838290600052602060002001805461034190611ae5565b80601f016020809104026020016040519081016040528092919081815260200182805461036d90611ae5565b80156103ba5780601f1061038f576101008083540402835291602001916103ba565b820191906000526020600020905b81548152906001019060200180831161039d57829003601f168201915b505050505081526020019060010190610322565b5050505081525091505061045a565b80806103e890611b4f565b9150506101b5565b506040518060400160405280600015158152602001600067ffffffffffffffff8111156104205761041f610fba565b5b60405190808252806020026020018201604052801561045357816020015b606081526020019060019003908161043e5790505b5081525090505b92915050565b610468610ddb565b6000808054905067ffffffffffffffff81111561048857610487610fba565b5b6040519080825280602002602001820160405280156104c157816020015b6104ae610df7565b8152602001906001900390816104a65790505b5090506000805b6000805490508110156106f0578473ffffffffffffffffffffffffffffffffffffffff1660008281548110610500576104ff611a87565b5b906000526020600020906004020160000160009054906101000a900473ffffffffffffffffffffffffffffffffffffffff1673ffffffffffffffffffffffffffffffffffffffff16036106dd57600080828154811061056257610561611a87565b5b9060005260206000209060040201600101805461057e90611ae5565b80601f01602080910402602001604051908101604052809291908181526020018280546105aa90611ae5565b80156105f75780601f106105cc576101008083540402835291602001916105f7565b820191906000526020600020905b8154815290600101906020018083116105da57829003601f168201915b505050505090506000600160009054906101000a900473ffffffffffffffffffffffffffffffffffffffff1673ffffffffffffffffffffffffffffffffffffffff16639f5937f8836040518263ffffffff1660e01b815260040161065b9190611be1565b600060405180830381865afa158015610678573d6000803e3d6000fd5b505050506040513d6000823e3d601f19601f820116820180604052508101906106a19190611e1c565b9050600081602001519050808686815181106106c0576106bf611a87565b5b602002602001018190525084806106d690611b4f565b9550505050505b80806106e890611b4f565b9150506104c8565b508082526000811461071d576040518060400160405280600115158152602001838152509250505061073a565b604051806040016040528060001515815260200183815250925050505b919050565b60008473ffffffffffffffffffffffffffffffffffffffff168473ffffffffffffffffffffffffffffffffffffffff161480156107c75750826040516020016107889190611ea1565b60405160208183030381529060405280519060200120826040516020016107af9190611ea1565b60405160208183030381529060405280519060200120145b9050949350505050565b6107d9610e3c565b60005b6000805490508110156109d4576108ef84600001516000838154811061080557610804611a87565b5b906000526020600020906004020160000160009054906101000a900473ffffffffffffffffffffffffffffffffffffffff168560000151600085815481106108505761084f611a87565b5b9060005260206000209060040201600101805461086c90611ae5565b80601f016020809104026020016040519081016040528092919081815260200182805461089890611ae5565b80156108e55780601f106108ba576101008083540402835291602001916108e5565b820191906000526020600020905b8154815290600101906020018083116108c857829003601f168201915b505050505061073f565b156109c15760405180604001604052806001151581526020016000838154811061091c5761091b611a87565b5b9060005260206000209060040201600201805461093890611ae5565b80601f016020809104026020016040519081016040528092919081815260200182805461096490611ae5565b80156109b15780601f10610986576101008083540402835291602001916109b1565b820191906000526020600020905b81548152906001019060200180831161099457829003601f168201915b50505050508152509150506109ff565b80806109cc90611b4f565b9150506107dc565b5060405180604001604052806000151581526020016040518060200160405280600081525081525090505b92915050565b600080600090505b600080549050811015610b3e57610b1c8460008381548110610a3257610a31611a87565b5b906000526020600020906004020160000160009054906101000a900473ffffffffffffffffffffffffffffffffffffffff16856000015160008581548110610a7d57610a7c611a87565b5b90600052602060002090600402016001018054610a9990611ae5565b80601f0160208091040260200160405190810160405280929190818152602001828054610ac590611ae5565b8015610b125780601f10610ae757610100808354040283529160200191610b12565b820191906000526020600020905b815481529060010190602001808311610af557829003601f168201915b505050505061073f565b15610b2b576001915050610b44565b8080610b3690611b4f565b915050610a0d565b50600090505b92915050565b60005b600080549050811015610cb457610c5c8460008381548110610b7257610b71611a87565b5b906000526020600020906004020160000160009054906101000a900473ffffffffffffffffffffffffffffffffffffffff16856000015160008581548110610bbd57610bbc611a87565b5b90600052602060002090600402016001018054610bd990611ae5565b80601f0160208091040260200160405190810160405280929190818152602001828054610c0590611ae5565b8015610c525780601f10610c2757610100808354040283529160200191610c52565b820191906000526020600020905b815481529060010190602001808311610c3557829003601f168201915b505050505061073f565b15610ca1578160008281548110610c7657610c75611a87565b5b90600052602060002090600402016003019080519060200190610c9a929190610e58565b5050610cb6565b8080610cac90611b4f565b915050610b4d565b505b505050565b600060405180608001604052808673ffffffffffffffffffffffffffffffffffffffff16815260200185600001518152602001848152602001838152509050600081908060018154018082558091505060019003906000526020600020906004020160009091909190915060008201518160000160006101000a81548173ffffffffffffffffffffffffffffffffffffffff021916908373ffffffffffffffffffffffffffffffffffffffff1602179055506020820151816001019081610d829190612064565b506040820151816002019081610d989190612064565b506060820151816003019080519060200190610db5929190610e58565b5050505050505050565b6040518060400160405280600015158152602001606081525090565b6040518060400160405280600015158152602001606081525090565b6040518060a001604052806060815260200160608152602001600073ffffffffffffffffffffffffffffffffffffffff16815260200160608152602001606081525090565b6040518060400160405280600015158152602001606081525090565b828054828255906000526020600020908101928215610ea0579160200282015b82811115610e9f578251829081610e8f9190612064565b5091602001919060010190610e78565b5b509050610ead9190610eb1565b5090565b5b80821115610ed15760008181610ec89190610ed5565b50600101610eb2565b5090565b508054610ee190611ae5565b6000825580601f10610ef35750610f12565b601f016020900490600052602060002090810190610f119190610f15565b5b50565b5b80821115610f2e576000816000905550600101610f16565b5090565b6000604051905090565b600080fd5b600080fd5b600073ffffffffffffffffffffffffffffffffffffffff82169050919050565b6000610f7182610f46565b9050919050565b610f8181610f66565b8114610f8c57600080fd5b50565b600081359050610f9e81610f78565b92915050565b600080fd5b6000601f19601f8301169050919050565b7f4e487b7100000000000000000000000000000000000000000000000000000000600052604160045260246000fd5b610ff282610fa9565b810181811067ffffffffffffffff8211171561101157611010610fba565b5b80604052505050565b6000611024610f32565b90506110308282610fe9565b919050565b600080fd5b600080fd5b600080fd5b600067ffffffffffffffff82111561105f5761105e610fba565b5b61106882610fa9565b9050602081019050919050565b82818337600083830152505050565b600061109761109284611044565b61101a565b9050828152602081018484840111156110b3576110b261103f565b5b6110be848285611075565b509392505050565b600082601f8301126110db576110da61103a565b5b81356110eb848260208601611084565b91505092915050565b600060a0828403121561110a57611109610fa4565b5b61111460a061101a565b9050600082013567ffffffffffffffff81111561113457611133611035565b5b611140848285016110c6565b600083015250602082013567ffffffffffffffff81111561116457611163611035565b5b611170848285016110c6565b602083015250604061118484828501610f8f565b604083015250606082013567ffffffffffffffff8111156111a8576111a7611035565b5b6111b4848285016110c6565b606083015250608082013567ffffffffffffffff8111156111d8576111d7611035565b5b6111e4848285016110c6565b60808301525092915050565b6000806040838503121561120757611206610f3c565b5b600061121585828601610f8f565b925050602083013567ffffffffffffffff81111561123657611235610f41565b5b611242858286016110f4565b9150509250929050565b60008115159050919050565b6112618161124c565b82525050565b600081519050919050565b600082825260208201905092915050565b6000819050602082019050919050565b600081519050919050565b600082825260208201905092915050565b60005b838110156112cd5780820151818401526020810190506112b2565b60008484015250505050565b60006112e482611293565b6112ee818561129e565b93506112fe8185602086016112af565b61130781610fa9565b840191505092915050565b600061131e83836112d9565b905092915050565b6000602082019050919050565b600061133e82611267565b6113488185611272565b93508360208202850161135a85611283565b8060005b8581101561139657848403895281516113778582611312565b945061138283611326565b925060208a0199505060018101905061135e565b50829750879550505050505092915050565b60006040830160008301516113c06000860182611258565b50602083015184820360208601526113d88282611333565b9150508091505092915050565b600060208201905081810360008301526113ff81846113a8565b905092915050565b60006020828403121561141d5761141c610f3c565b5b600061142b84828501610f8f565b91505092915050565b600081519050919050565b600082825260208201905092915050565b6000819050602082019050919050565b61146981610f66565b82525050565b600060a083016000830151848203600086015261148c82826112d9565b915050602083015184820360208601526114a682826112d9565b91505060408301516114bb6040860182611460565b50606083015184820360608601526114d382826112d9565b915050608083015184820360808601526114ed82826112d9565b9150508091505092915050565b6000611506838361146f565b905092915050565b6000602082019050919050565b600061152682611434565b611530818561143f565b93508360208202850161154285611450565b8060005b8581101561157e578484038952815161155f85826114fa565b945061156a8361150e565b925060208a01995050600181019050611546565b50829750879550505050505092915050565b60006040830160008301516115a86000860182611258565b50602083015184820360208601526115c0828261151b565b9150508091505092915050565b600060208201905081810360008301526115e78184611590565b905092915050565b6000806000806080858703121561160957611608610f3c565b5b600061161787828801610f8f565b945050602061162887828801610f8f565b935050604085013567ffffffffffffffff81111561164957611648610f41565b5b611655878288016110c6565b925050606085013567ffffffffffffffff81111561167657611675610f41565b5b611682878288016110c6565b91505092959194509250565b6116978161124c565b82525050565b60006020820190506116b2600083018461168e565b92915050565b6000608082840312156116ce576116cd610fa4565b5b6116d8608061101a565b905060006116e884828501610f8f565b600083015250602082013567ffffffffffffffff81111561170c5761170b611035565b5b611718848285016110c6565b602083015250604082013567ffffffffffffffff81111561173c5761173b611035565b5b611748848285016110c6565b604083015250606082013567ffffffffffffffff81111561176c5761176b611035565b5b611778848285016110c6565b60608301525092915050565b6000806040838503121561179b5761179a610f3c565b5b600083013567ffffffffffffffff8111156117b9576117b8610f41565b5b6117c5858286016116b8565b925050602083013567ffffffffffffffff8111156117e6576117e5610f41565b5b6117f2858286016110f4565b9150509250929050565b60006040830160008301516118146000860182611258565b506020830151848203602086015261182c82826112d9565b9150508091505092915050565b6000602082019050818103600083015261185381846117fc565b905092915050565b600067ffffffffffffffff82111561187657611875610fba565b5b602082029050602081019050919050565b600080fd5b600061189f61189a8461185b565b61101a565b905080838252602082019050602084028301858111156118c2576118c1611887565b5b835b8181101561190957803567ffffffffffffffff8111156118e7576118e661103a565b5b8086016118f489826110c6565b855260208501945050506020810190506118c4565b5050509392505050565b600082601f8301126119285761192761103a565b5b813561193884826020860161188c565b91505092915050565b60008060006060848603121561195a57611959610f3c565b5b600061196886828701610f8f565b935050602084013567ffffffffffffffff81111561198957611988610f41565b5b611995868287016110f4565b925050604084013567ffffffffffffffff8111156119b6576119b5610f41565b5b6119c286828701611913565b9150509250925092565b600080600080608085870312156119e6576119e5610f3c565b5b60006119f487828801610f8f565b945050602085013567ffffffffffffffff811115611a1557611a14610f41565b5b611a21878288016110f4565b935050604085013567ffffffffffffffff811115611a4257611a41610f41565b5b611a4e878288016110c6565b925050606085013567ffffffffffffffff811115611a6f57611a6e610f41565b5b611a7b87828801611913565b91505092959194509250565b7f4e487b7100000000000000000000000000000000000000000000000000000000600052603260045260246000fd5b7f4e487b7100000000000000000000000000000000000000000000000000000000600052602260045260246000fd5b60006002820490506001821680611afd57607f821691505b602082108103611b1057611b0f611ab6565b5b50919050565b7f4e487b7100000000000000000000000000000000000000000000000000000000600052601160045260246000fd5b6000819050919050565b6000611b5a82611b45565b91507fffffffffffffffffffffffffffffffffffffffffffffffffffffffffffffffff8203611b8c57611b8b611b16565b5b600182019050919050565b600082825260208201905092915050565b6000611bb382611293565b611bbd8185611b97565b9350611bcd8185602086016112af565b611bd681610fa9565b840191505092915050565b60006020820190508181036000830152611bfb8184611ba8565b905092915050565b611c0c8161124c565b8114611c1757600080fd5b50565b600081519050611c2981611c03565b92915050565b6000611c42611c3d84611044565b61101a565b905082815260208101848484011115611c5e57611c5d61103f565b5b611c698482856112af565b509392505050565b600082601f830112611c8657611c8561103a565b5b8151611c96848260208601611c2f565b91505092915050565b600081519050611cae81610f78565b92915050565b600060a08284031215611cca57611cc9610fa4565b5b611cd460a061101a565b9050600082015167ffffffffffffffff811115611cf457611cf3611035565b5b611d0084828501611c71565b600083015250602082015167ffffffffffffffff811115611d2457611d23611035565b5b611d3084828501611c71565b6020830152506040611d4484828501611c9f565b604083015250606082015167ffffffffffffffff811115611d6857611d67611035565b5b611d7484828501611c71565b606083015250608082015167ffffffffffffffff811115611d9857611d97611035565b5b611da484828501611c71565b60808301525092915050565b600060408284031215611dc657611dc5610fa4565b5b611dd0604061101a565b90506000611de084828501611c1a565b600083015250602082015167ffffffffffffffff811115611e0457611e03611035565b5b611e1084828501611cb4565b60208301525092915050565b600060208284031215611e3257611e31610f3c565b5b600082015167ffffffffffffffff811115611e5057611e4f610f41565b5b611e5c84828501611db0565b91505092915050565b600081905092915050565b6000611e7b82611293565b611e858185611e65565b9350611e958185602086016112af565b80840191505092915050565b6000611ead8284611e70565b915081905092915050565b60008190508160005260206000209050919050565b60006020601f8301049050919050565b600082821b905092915050565b600060088302611f1a7fffffffffffffffffffffffffffffffffffffffffffffffffffffffffffffffff82611edd565b611f248683611edd565b95508019841693508086168417925050509392505050565b6000819050919050565b6000611f61611f5c611f5784611b45565b611f3c565b611b45565b9050919050565b6000819050919050565b611f7b83611f46565b611f8f611f8782611f68565b848454611eea565b825550505050565b600090565b611fa4611f97565b611faf818484611f72565b505050565b5b81811015611fd357611fc8600082611f9c565b600181019050611fb5565b5050565b601f82111561201857611fe981611eb8565b611ff284611ecd565b81016020851015612001578190505b61201561200d85611ecd565b830182611fb4565b50505b505050565b600082821c905092915050565b600061203b6000198460080261201d565b1980831691505092915050565b6000612054838361202a565b9150826002028217905092915050565b61206d82611293565b67ffffffffffffffff81111561208657612085610fba565b5b6120908254611ae5565b61209b828285611fd7565b600060209050601f8311600181146120ce57600084156120bc578287015190505b6120c68582612048565b86555061212e565b601f1984166120dc86611eb8565b60005b82811015612104578489015182556001820191506020850194506020810190506120df565b86831015612121578489015161211d601f89168261202a565b8355505b6001600288020188555050505b50505050505056fea2646970667358221220b2b00431e50cf64253f6ca7ba2a7a31d93112e6ee360c4e4b03f6c662afa425e64736f6c63430008130033",
  "linkReferences": {},
  "deployedLinkReferences": {}
}