{
  "_format": "hh-sol-artifact-1",
  "contractName": "AccessControl",
  "sourceName": "contracts/AccessControl.sol",
  "abi": [
    {
      "inputs": [
        {
          "internalType": "address",
          "name": "fileRegisterContract",
          "type": "address"
        }
      ],
      "stateMutability": "nonpayable",
      "type": "constructor"
    },
    {
      "inputs": [
        {
          "components": [
            {
              "internalType": "address",
              "name": "account",
              "type": "address"
            },
            {
              "internalType": "string",
              "name": "userName",
              "type": "string"
            },
            {
              "internalType": "string",
              "name": "publicKey",
              "type": "string"
            },
            {
              "internalType": "string",
              "name": "privateKey",
              "type": "string"
            }
          ],
          "internalType": "struct UserRegister.User",
          "name": "user",
          "type": "tuple"
        },
        {
          "components": [
            {
              "internalType": "string",
              "name": "ipfsCID",
              "type": "string"
            },
            {
              "internalType": "string",
              "name": "fileName",
              "type": "string"
            },
            {
              "internalType": "address",
              "name": "owner",
              "type": "address"
            },
            {
              "internalType": "string",
              "name": "fileType",
              "type": "string"
            },
            {
              "internalType": "string",
              "name": "iv",
              "type": "string"
            }
          ],
          "internalType": "struct FileRegister.File",
          "name": "file",
          "type": "tuple"
        }
      ],
      "name": "getEncSymmetricKeyFileUser",
      "outputs": [
        {
          "internalType": "string",
          "name": "",
          "type": "string"
        }
      ],
      "stateMutability": "view",
      "type": "function"
    },
    {
      "inputs": [
        {
          "components": [
            {
              "internalType": "address",
              "name": "account",
              "type": "address"
            },
            {
              "internalType": "string",
              "name": "userName",
              "type": "string"
            },
            {
              "internalType": "string",
              "name": "publicKey",
              "type": "string"
            },
            {
              "internalType": "string",
              "name": "privateKey",
              "type": "string"
            }
          ],
          "internalType": "struct UserRegister.User",
          "name": "user",
          "type": "tuple"
        },
        {
          "components": [
            {
              "internalType": "string",
              "name": "ipfsCID",
              "type": "string"
            },
            {
              "internalType": "string",
              "name": "fileName",
              "type": "string"
            },
            {
              "internalType": "address",
              "name": "owner",
              "type": "address"
            },
            {
              "internalType": "string",
              "name": "fileType",
              "type": "string"
            },
            {
              "internalType": "string",
              "name": "iv",
              "type": "string"
            }
          ],
          "internalType": "struct FileRegister.File",
          "name": "file",
          "type": "tuple"
        }
      ],
      "name": "getPermissionsOverFile",
      "outputs": [
        {
          "internalType": "string[]",
          "name": "",
          "type": "string[]"
        }
      ],
      "stateMutability": "view",
      "type": "function"
    },
    {
      "inputs": [
        {
          "internalType": "address",
          "name": "account",
          "type": "address"
        }
      ],
      "name": "getUserFiles",
      "outputs": [
        {
          "components": [
            {
              "internalType": "bool",
              "name": "success",
              "type": "bool"
            },
            {
              "components": [
                {
                  "internalType": "string",
                  "name": "ipfsCID",
                  "type": "string"
                },
                {
                  "internalType": "string",
                  "name": "fileName",
                  "type": "string"
                },
                {
                  "internalType": "address",
                  "name": "owner",
                  "type": "address"
                },
                {
                  "internalType": "string",
                  "name": "fileType",
                  "type": "string"
                },
                {
                  "internalType": "string",
                  "name": "iv",
                  "type": "string"
                }
              ],
              "internalType": "struct FileRegister.File[]",
              "name": "files",
              "type": "tuple[]"
            }
          ],
          "internalType": "struct AccessControl.ResultAction",
          "name": "",
          "type": "tuple"
        }
      ],
      "stateMutability": "view",
      "type": "function"
    },
    {
      "inputs": [
        {
          "internalType": "address",
          "name": "accountInput",
          "type": "address"
        },
        {
          "internalType": "address",
          "name": "accountList",
          "type": "address"
        },
        {
          "internalType": "string",
          "name": "ipfsCIDInput",
          "type": "string"
        },
        {
          "internalType": "string",
          "name": "ipfsCIDList",
          "type": "string"
        }
      ],
      "name": "isKeyEqual",
      "outputs": [
        {
          "internalType": "bool",
          "name": "",
          "type": "bool"
        }
      ],
      "stateMutability": "pure",
      "type": "function"
    },
    {
      "inputs": [
        {
          "components": [
            {
              "internalType": "address",
              "name": "account",
              "type": "address"
            },
            {
              "internalType": "string",
              "name": "userName",
              "type": "string"
            },
            {
              "internalType": "string",
              "name": "publicKey",
              "type": "string"
            },
            {
              "internalType": "string",
              "name": "privateKey",
              "type": "string"
            }
          ],
          "internalType": "struct UserRegister.User",
          "name": "user",
          "type": "tuple"
        },
        {
          "components": [
            {
              "internalType": "string",
              "name": "ipfsCID",
              "type": "string"
            },
            {
              "internalType": "string",
              "name": "fileName",
              "type": "string"
            },
            {
              "internalType": "address",
              "name": "owner",
              "type": "address"
            },
            {
              "internalType": "string",
              "name": "fileType",
              "type": "string"
            },
            {
              "internalType": "string",
              "name": "iv",
              "type": "string"
            }
          ],
          "internalType": "struct FileRegister.File",
          "name": "file",
          "type": "tuple"
        },
        {
          "internalType": "string",
          "name": "encSymmetricKey",
          "type": "string"
        },
        {
          "internalType": "string[]",
          "name": "permissions",
          "type": "string[]"
        }
      ],
      "name": "shareFile",
      "outputs": [],
      "stateMutability": "nonpayable",
      "type": "function"
    },
    {
      "inputs": [
        {
          "components": [
            {
              "internalType": "address",
              "name": "account",
              "type": "address"
            },
            {
              "internalType": "string",
              "name": "userName",
              "type": "string"
            },
            {
              "internalType": "string",
              "name": "publicKey",
              "type": "string"
            },
            {
              "internalType": "string",
              "name": "privateKey",
              "type": "string"
            }
          ],
          "internalType": "struct UserRegister.User",
          "name": "user",
          "type": "tuple"
        },
        {
          "components": [
            {
              "internalType": "string",
              "name": "ipfsCID",
              "type": "string"
            },
            {
              "internalType": "string",
              "name": "fileName",
              "type": "string"
            },
            {
              "internalType": "address",
              "name": "owner",
              "type": "address"
            },
            {
              "internalType": "string",
              "name": "fileType",
              "type": "string"
            },
            {
              "internalType": "string",
              "name": "iv",
              "type": "string"
            }
          ],
          "internalType": "struct FileRegister.File",
          "name": "file",
          "type": "tuple"
        },
        {
          "internalType": "string",
          "name": "encSymmetricKey",
          "type": "string"
        }
      ],
      "name": "uploadFile",
      "outputs": [],
      "stateMutability": "nonpayable",
      "type": "function"
    },
    {
      "inputs": [
        {
          "components": [
            {
              "internalType": "address",
              "name": "account",
              "type": "address"
            },
            {
              "internalType": "string",
              "name": "userName",
              "type": "string"
            },
            {
              "internalType": "string",
              "name": "publicKey",
              "type": "string"
            },
            {
              "internalType": "string",
              "name": "privateKey",
              "type": "string"
            }
          ],
          "internalType": "struct UserRegister.User",
          "name": "user",
          "type": "tuple"
        },
        {
          "components": [
            {
              "internalType": "string",
              "name": "ipfsCID",
              "type": "string"
            },
            {
              "internalType": "string",
              "name": "fileName",
              "type": "string"
            },
            {
              "internalType": "address",
              "name": "owner",
              "type": "address"
            },
            {
              "internalType": "string",
              "name": "fileType",
              "type": "string"
            },
            {
              "internalType": "string",
              "name": "iv",
              "type": "string"
            }
          ],
          "internalType": "struct FileRegister.File",
          "name": "file",
          "type": "tuple"
        }
      ],
      "name": "userAssociatedWithFile",
      "outputs": [
        {
          "internalType": "bool",
          "name": "",
          "type": "bool"
        }
      ],
      "stateMutability": "view",
      "type": "function"
    }
  ],
  "bytecode": "0x60806040523480156200001157600080fd5b506040516200243a3803806200243a8339818101604052810190620000379190620000e9565b80600160006101000a81548173ffffffffffffffffffffffffffffffffffffffff021916908373ffffffffffffffffffffffffffffffffffffffff160217905550506200011b565b600080fd5b600073ffffffffffffffffffffffffffffffffffffffff82169050919050565b6000620000b18262000084565b9050919050565b620000c381620000a4565b8114620000cf57600080fd5b50565b600081519050620000e381620000b8565b92915050565b6000602082840312156200010257620001016200007f565b5b60006200011284828501620000d2565b91505092915050565b61230f806200012b6000396000f3fe608060405234801561001057600080fd5b506004361061007d5760003560e01c80635d02eece1161005b5780635d02eece146101125780639468a12e14610142578063ad4d2bb21461015e578063de6b9f7d1461018e5761007d565b80631fc3792214610082578063533f2134146100b25780635c99c71b146100e2575b600080fd5b61009c6004803603810190610097919061115a565b6101aa565b6040516100a991906113cb565b60405180910390f35b6100cc60048036038101906100c791906116f4565b610489565b6040516100d9919061182e565b60405180910390f35b6100fc60048036038101906100f79190611850565b61070f565b60405161010991906118fe565b60405180910390f35b61012c600480360381019061012791906116f4565b6107a1565b6040516101399190611963565b60405180910390f35b61015c60048036038101906101579190611a6b565b6109a1565b005b610178600480360381019061017391906116f4565b6109da565b60405161018591906118fe565b60405180910390f35b6101a860048036038101906101a39190611b42565b610b23565b005b6101b2610fad565b6000808054905067ffffffffffffffff8111156101d2576101d16113f2565b5b60405190808252806020026020018201604052801561020b57816020015b6101f8610fc9565b8152602001906001900390816101f05790505b5090506000805b60008054905081101561043a578473ffffffffffffffffffffffffffffffffffffffff166000828154811061024a57610249611be9565b5b906000526020600020906004020160000160009054906101000a900473ffffffffffffffffffffffffffffffffffffffff1673ffffffffffffffffffffffffffffffffffffffff16036104275760008082815481106102ac576102ab611be9565b5b906000526020600020906004020160010180546102c890611c47565b80601f01602080910402602001604051908101604052809291908181526020018280546102f490611c47565b80156103415780601f1061031657610100808354040283529160200191610341565b820191906000526020600020905b81548152906001019060200180831161032457829003601f168201915b505050505090506000600160009054906101000a900473ffffffffffffffffffffffffffffffffffffffff1673ffffffffffffffffffffffffffffffffffffffff16639f5937f8836040518263ffffffff1660e01b81526004016103a59190611963565b600060405180830381865afa1580156103c2573d6000803e3d6000fd5b505050506040513d6000823e3d601f19601f820116820180604052508101906103eb9190611e91565b90506000816020015190508086868151811061040a57610409611be9565b5b6020026020010181905250848061042090611f13565b9550505050505b808061043290611f13565b915050610212565b50808252600081146104675760405180604001604052806001151581526020018381525092505050610484565b604051806040016040528060001515815260200183815250925050505b919050565b606060005b6000805490508110156106b6576105a18460000151600083815481106104b7576104b6611be9565b5b906000526020600020906004020160000160009054906101000a900473ffffffffffffffffffffffffffffffffffffffff1685600001516000858154811061050257610501611be9565b5b9060005260206000209060040201600101805461051e90611c47565b80601f016020809104026020016040519081016040528092919081815260200182805461054a90611c47565b80156105975780601f1061056c57610100808354040283529160200191610597565b820191906000526020600020905b81548152906001019060200180831161057a57829003601f168201915b505050505061070f565b156106a357600081815481106105ba576105b9611be9565b5b9060005260206000209060040201600301805480602002602001604051908101604052809291908181526020016000905b8282101561069757838290600052602060002001805461060a90611c47565b80601f016020809104026020016040519081016040528092919081815260200182805461063690611c47565b80156106835780601f1061065857610100808354040283529160200191610683565b820191906000526020600020905b81548152906001019060200180831161066657829003601f168201915b5050505050815260200190600101906105eb565b50505050915050610709565b80806106ae90611f13565b91505061048e565b50600067ffffffffffffffff8111156106d2576106d16113f2565b5b60405190808252806020026020018201604052801561070557816020015b60608152602001906001900390816106f05790505b5090505b92915050565b60008473ffffffffffffffffffffffffffffffffffffffff168473ffffffffffffffffffffffffffffffffffffffff161480156107975750826040516020016107589190611f97565b604051602081830303815290604052805190602001208260405160200161077f9190611f97565b60405160208183030381529060405280519060200120145b9050949350505050565b606060005b600080549050811015610987576108b98460000151600083815481106107cf576107ce611be9565b5b906000526020600020906004020160000160009054906101000a900473ffffffffffffffffffffffffffffffffffffffff1685600001516000858154811061081a57610819611be9565b5b9060005260206000209060040201600101805461083690611c47565b80601f016020809104026020016040519081016040528092919081815260200182805461086290611c47565b80156108af5780601f10610884576101008083540402835291602001916108af565b820191906000526020600020905b81548152906001019060200180831161089257829003601f168201915b505050505061070f565b1561097457600081815481106108d2576108d1611be9565b5b906000526020600020906004020160020180546108ee90611c47565b80601f016020809104026020016040519081016040528092919081815260200182805461091a90611c47565b80156109675780601f1061093c57610100808354040283529160200191610967565b820191906000526020600020905b81548152906001019060200180831161094a57829003601f168201915b505050505091505061099b565b808061097f90611f13565b9150506107a6565b506040518060200160405280600081525090505b92915050565b60006109ad85856109da565b905080156109c6576109c0858584610d30565b506109d4565b6109d285858585610ea5565b505b50505050565b600080600090505b600080549050811015610b1757610af5846000015160008381548110610a0b57610a0a611be9565b5b906000526020600020906004020160000160009054906101000a900473ffffffffffffffffffffffffffffffffffffffff16856000015160008581548110610a5657610a55611be9565b5b90600052602060002090600402016001018054610a7290611c47565b80601f0160208091040260200160405190810160405280929190818152602001828054610a9e90611c47565b8015610aeb5780601f10610ac057610100808354040283529160200191610aeb565b820191906000526020600020905b815481529060010190602001808311610ace57829003601f168201915b505050505061070f565b15610b04576001915050610b1d565b8080610b0f90611f13565b9150506109e2565b50600090505b92915050565b6000610b2f84846109da565b90508015610b3d5750610d2b565b6000600367ffffffffffffffff811115610b5a57610b596113f2565b5b604051908082528060200260200182016040528015610b8d57816020015b6060815260200190600190039081610b785790505b5090506040518060400160405280600881526020017f646f776e6c6f616400000000000000000000000000000000000000000000000081525081600081518110610bda57610bd9611be9565b5b60200260200101819052506040518060400160405280600681526020017f64656c657465000000000000000000000000000000000000000000000000000081525081600181518110610c2f57610c2e611be9565b5b60200260200101819052506040518060400160405280600581526020017f736861726500000000000000000000000000000000000000000000000000000081525081600281518110610c8457610c83611be9565b5b6020026020010181905250610c9b85858584610ea5565b600160009054906101000a900473ffffffffffffffffffffffffffffffffffffffff1673ffffffffffffffffffffffffffffffffffffffff16639aa7f418856040518263ffffffff1660e01b8152600401610cf69190612039565b600060405180830381600087803b158015610d1057600080fd5b505af1158015610d24573d6000803e3d6000fd5b5050505050505b505050565b60005b600080549050811015610e9e57610e46846000015160008381548110610d5c57610d5b611be9565b5b906000526020600020906004020160000160009054906101000a900473ffffffffffffffffffffffffffffffffffffffff16856000015160008581548110610da757610da6611be9565b5b90600052602060002090600402016001018054610dc390611c47565b80601f0160208091040260200160405190810160405280929190818152602001828054610def90611c47565b8015610e3c5780601f10610e1157610100808354040283529160200191610e3c565b820191906000526020600020905b815481529060010190602001808311610e1f57829003601f168201915b505050505061070f565b15610e8b578160008281548110610e6057610e5f611be9565b5b90600052602060002090600402016003019080519060200190610e8492919061100e565b5050610ea0565b8080610e9690611f13565b915050610d33565b505b505050565b60006040518060800160405280866000015173ffffffffffffffffffffffffffffffffffffffff16815260200185600001518152602001848152602001838152509050600081908060018154018082558091505060019003906000526020600020906004020160009091909190915060008201518160000160006101000a81548173ffffffffffffffffffffffffffffffffffffffff021916908373ffffffffffffffffffffffffffffffffffffffff1602179055506020820151816001019081610f709190612207565b506040820151816002019081610f869190612207565b506060820151816003019080519060200190610fa392919061100e565b5050505050505050565b6040518060400160405280600015158152602001606081525090565b6040518060a001604052806060815260200160608152602001600073ffffffffffffffffffffffffffffffffffffffff16815260200160608152602001606081525090565b828054828255906000526020600020908101928215611056579160200282015b828111156110555782518290816110459190612207565b509160200191906001019061102e565b5b5090506110639190611067565b5090565b5b80821115611087576000818161107e919061108b565b50600101611068565b5090565b50805461109790611c47565b6000825580601f106110a957506110c8565b601f0160209004906000526020600020908101906110c791906110cb565b5b50565b5b808211156110e45760008160009055506001016110cc565b5090565b6000604051905090565b600080fd5b600080fd5b600073ffffffffffffffffffffffffffffffffffffffff82169050919050565b6000611127826110fc565b9050919050565b6111378161111c565b811461114257600080fd5b50565b6000813590506111548161112e565b92915050565b6000602082840312156111705761116f6110f2565b5b600061117e84828501611145565b91505092915050565b60008115159050919050565b61119c81611187565b82525050565b600081519050919050565b600082825260208201905092915050565b6000819050602082019050919050565b600081519050919050565b600082825260208201905092915050565b60005b838110156112085780820151818401526020810190506111ed565b60008484015250505050565b6000601f19601f8301169050919050565b6000611230826111ce565b61123a81856111d9565b935061124a8185602086016111ea565b61125381611214565b840191505092915050565b6112678161111c565b82525050565b600060a083016000830151848203600086015261128a8282611225565b915050602083015184820360208601526112a48282611225565b91505060408301516112b9604086018261125e565b50606083015184820360608601526112d18282611225565b915050608083015184820360808601526112eb8282611225565b9150508091505092915050565b6000611304838361126d565b905092915050565b6000602082019050919050565b6000611324826111a2565b61132e81856111ad565b935083602082028501611340856111be565b8060005b8581101561137c578484038952815161135d85826112f8565b94506113688361130c565b925060208a01995050600181019050611344565b50829750879550505050505092915050565b60006040830160008301516113a66000860182611193565b50602083015184820360208601526113be8282611319565b9150508091505092915050565b600060208201905081810360008301526113e5818461138e565b905092915050565b600080fd5b7f4e487b7100000000000000000000000000000000000000000000000000000000600052604160045260246000fd5b61142a82611214565b810181811067ffffffffffffffff82111715611449576114486113f2565b5b80604052505050565b600061145c6110e8565b90506114688282611421565b919050565b600080fd5b600080fd5b600080fd5b600067ffffffffffffffff821115611497576114966113f2565b5b6114a082611214565b9050602081019050919050565b82818337600083830152505050565b60006114cf6114ca8461147c565b611452565b9050828152602081018484840111156114eb576114ea611477565b5b6114f68482856114ad565b509392505050565b600082601f83011261151357611512611472565b5b81356115238482602086016114bc565b91505092915050565b600060808284031215611542576115416113ed565b5b61154c6080611452565b9050600061155c84828501611145565b600083015250602082013567ffffffffffffffff8111156115805761157f61146d565b5b61158c848285016114fe565b602083015250604082013567ffffffffffffffff8111156115b0576115af61146d565b5b6115bc848285016114fe565b604083015250606082013567ffffffffffffffff8111156115e0576115df61146d565b5b6115ec848285016114fe565b60608301525092915050565b600060a0828403121561160e5761160d6113ed565b5b61161860a0611452565b9050600082013567ffffffffffffffff8111156116385761163761146d565b5b611644848285016114fe565b600083015250602082013567ffffffffffffffff8111156116685761166761146d565b5b611674848285016114fe565b602083015250604061168884828501611145565b604083015250606082013567ffffffffffffffff8111156116ac576116ab61146d565b5b6116b8848285016114fe565b606083015250608082013567ffffffffffffffff8111156116dc576116db61146d565b5b6116e8848285016114fe565b60808301525092915050565b6000806040838503121561170b5761170a6110f2565b5b600083013567ffffffffffffffff811115611729576117286110f7565b5b6117358582860161152c565b925050602083013567ffffffffffffffff811115611756576117556110f7565b5b611762858286016115f8565b9150509250929050565b600081519050919050565b600082825260208201905092915050565b6000819050602082019050919050565b60006117a48383611225565b905092915050565b6000602082019050919050565b60006117c48261176c565b6117ce8185611777565b9350836020820285016117e085611788565b8060005b8581101561181c57848403895281516117fd8582611798565b9450611808836117ac565b925060208a019950506001810190506117e4565b50829750879550505050505092915050565b6000602082019050818103600083015261184881846117b9565b905092915050565b6000806000806080858703121561186a576118696110f2565b5b600061187887828801611145565b945050602061188987828801611145565b935050604085013567ffffffffffffffff8111156118aa576118a96110f7565b5b6118b6878288016114fe565b925050606085013567ffffffffffffffff8111156118d7576118d66110f7565b5b6118e3878288016114fe565b91505092959194509250565b6118f881611187565b82525050565b600060208201905061191360008301846118ef565b92915050565b600082825260208201905092915050565b6000611935826111ce565b61193f8185611919565b935061194f8185602086016111ea565b61195881611214565b840191505092915050565b6000602082019050818103600083015261197d818461192a565b905092915050565b600067ffffffffffffffff8211156119a05761199f6113f2565b5b602082029050602081019050919050565b600080fd5b60006119c96119c484611985565b611452565b905080838252602082019050602084028301858111156119ec576119eb6119b1565b5b835b81811015611a3357803567ffffffffffffffff811115611a1157611a10611472565b5b808601611a1e89826114fe565b855260208501945050506020810190506119ee565b5050509392505050565b600082601f830112611a5257611a51611472565b5b8135611a628482602086016119b6565b91505092915050565b60008060008060808587031215611a8557611a846110f2565b5b600085013567ffffffffffffffff811115611aa357611aa26110f7565b5b611aaf8782880161152c565b945050602085013567ffffffffffffffff811115611ad057611acf6110f7565b5b611adc878288016115f8565b935050604085013567ffffffffffffffff811115611afd57611afc6110f7565b5b611b09878288016114fe565b925050606085013567ffffffffffffffff811115611b2a57611b296110f7565b5b611b3687828801611a3d565b91505092959194509250565b600080600060608486031215611b5b57611b5a6110f2565b5b600084013567ffffffffffffffff811115611b7957611b786110f7565b5b611b858682870161152c565b935050602084013567ffffffffffffffff811115611ba657611ba56110f7565b5b611bb2868287016115f8565b925050604084013567ffffffffffffffff811115611bd357611bd26110f7565b5b611bdf868287016114fe565b9150509250925092565b7f4e487b7100000000000000000000000000000000000000000000000000000000600052603260045260246000fd5b7f4e487b7100000000000000000000000000000000000000000000000000000000600052602260045260246000fd5b60006002820490506001821680611c5f57607f821691505b602082108103611c7257611c71611c18565b5b50919050565b611c8181611187565b8114611c8c57600080fd5b50565b600081519050611c9e81611c78565b92915050565b6000611cb7611cb28461147c565b611452565b905082815260208101848484011115611cd357611cd2611477565b5b611cde8482856111ea565b509392505050565b600082601f830112611cfb57611cfa611472565b5b8151611d0b848260208601611ca4565b91505092915050565b600081519050611d238161112e565b92915050565b600060a08284031215611d3f57611d3e6113ed565b5b611d4960a0611452565b9050600082015167ffffffffffffffff811115611d6957611d6861146d565b5b611d7584828501611ce6565b600083015250602082015167ffffffffffffffff811115611d9957611d9861146d565b5b611da584828501611ce6565b6020830152506040611db984828501611d14565b604083015250606082015167ffffffffffffffff811115611ddd57611ddc61146d565b5b611de984828501611ce6565b606083015250608082015167ffffffffffffffff811115611e0d57611e0c61146d565b5b611e1984828501611ce6565b60808301525092915050565b600060408284031215611e3b57611e3a6113ed565b5b611e456040611452565b90506000611e5584828501611c8f565b600083015250602082015167ffffffffffffffff811115611e7957611e7861146d565b5b611e8584828501611d29565b60208301525092915050565b600060208284031215611ea757611ea66110f2565b5b600082015167ffffffffffffffff811115611ec557611ec46110f7565b5b611ed184828501611e25565b91505092915050565b7f4e487b7100000000000000000000000000000000000000000000000000000000600052601160045260246000fd5b6000819050919050565b6000611f1e82611f09565b91507fffffffffffffffffffffffffffffffffffffffffffffffffffffffffffffffff8203611f5057611f4f611eda565b5b600182019050919050565b600081905092915050565b6000611f71826111ce565b611f7b8185611f5b565b9350611f8b8185602086016111ea565b80840191505092915050565b6000611fa38284611f66565b915081905092915050565b600060a0830160008301518482036000860152611fcb8282611225565b91505060208301518482036020860152611fe58282611225565b9150506040830151611ffa604086018261125e565b50606083015184820360608601526120128282611225565b9150506080830151848203608086015261202c8282611225565b9150508091505092915050565b600060208201905081810360008301526120538184611fae565b905092915050565b60008190508160005260206000209050919050565b60006020601f8301049050919050565b600082821b905092915050565b6000600883026120bd7fffffffffffffffffffffffffffffffffffffffffffffffffffffffffffffffff82612080565b6120c78683612080565b95508019841693508086168417925050509392505050565b6000819050919050565b60006121046120ff6120fa84611f09565b6120df565b611f09565b9050919050565b6000819050919050565b61211e836120e9565b61213261212a8261210b565b84845461208d565b825550505050565b600090565b61214761213a565b612152818484612115565b505050565b5b818110156121765761216b60008261213f565b600181019050612158565b5050565b601f8211156121bb5761218c8161205b565b61219584612070565b810160208510156121a4578190505b6121b86121b085612070565b830182612157565b50505b505050565b600082821c905092915050565b60006121de600019846008026121c0565b1980831691505092915050565b60006121f783836121cd565b9150826002028217905092915050565b612210826111ce565b67ffffffffffffffff811115612229576122286113f2565b5b6122338254611c47565b61223e82828561217a565b600060209050601f831160018114612271576000841561225f578287015190505b61226985826121eb565b8655506122d1565b601f19841661227f8661205b565b60005b828110156122a757848901518255600182019150602085019450602081019050612282565b868310156122c457848901516122c0601f8916826121cd565b8355505b6001600288020188555050505b50505050505056fea2646970667358221220d41f0ba476799beb22f154b476e6f858a6774b1f9e4f4bbefe6516856123bd9364736f6c63430008130033",
  "linkReferences": {},
  "deployedLinkReferences": {}
}