{
  "_format": "hh-sol-artifact-1",
  "contractName": "AccessControl",
  "sourceName": "contracts/AccessControl.sol",
  "abi": [
    {
      "inputs": [
        {
          "internalType": "address",
          "name": "fileRegisterContract",
          "type": "address"
        },
        {
          "internalType": "address",
          "name": "userRegisterContract",
          "type": "address"
        },
        {
          "internalType": "address",
          "name": "helperContract",
          "type": "address"
        }
      ],
      "stateMutability": "nonpayable",
      "type": "constructor"
    },
    {
      "anonymous": false,
      "inputs": [
        {
          "indexed": true,
          "internalType": "address",
          "name": "userAccount",
          "type": "address"
        },
        {
          "indexed": false,
          "internalType": "string",
          "name": "fileIpfsCID",
          "type": "string"
        },
        {
          "indexed": false,
          "internalType": "string",
          "name": "permissionsOwner",
          "type": "string"
        },
        {
          "indexed": false,
          "internalType": "string",
          "name": "action",
          "type": "string"
        }
      ],
      "name": "FileActionLog",
      "type": "event"
    },
    {
      "inputs": [
        {
          "internalType": "address",
          "name": "userAccount",
          "type": "address"
        },
        {
          "internalType": "string",
          "name": "fileIpfsCid",
          "type": "string"
        }
      ],
      "name": "deactivateFileUserAssociation",
      "outputs": [],
      "stateMutability": "nonpayable",
      "type": "function"
    },
    {
      "inputs": [
        {
          "internalType": "string",
          "name": "fileIpfsCid",
          "type": "string"
        },
        {
          "internalType": "address",
          "name": "userAccount",
          "type": "address"
        }
      ],
      "name": "downloadFileAudit",
      "outputs": [],
      "stateMutability": "nonpayable",
      "type": "function"
    },
    {
      "inputs": [
        {
          "internalType": "address",
          "name": "userAccount",
          "type": "address"
        },
        {
          "internalType": "string",
          "name": "fileIpfsCID",
          "type": "string"
        }
      ],
      "name": "elegibleToShare",
      "outputs": [
        {
          "internalType": "bool",
          "name": "",
          "type": "bool"
        }
      ],
      "stateMutability": "view",
      "type": "function"
    },
    {
      "inputs": [
        {
          "internalType": "address",
          "name": "userAccount",
          "type": "address"
        },
        {
          "internalType": "string",
          "name": "fileIpfsCID",
          "type": "string"
        }
      ],
      "name": "elegibleToUpdPermissions",
      "outputs": [
        {
          "internalType": "bool",
          "name": "",
          "type": "bool"
        }
      ],
      "stateMutability": "view",
      "type": "function"
    },
    {
      "inputs": [
        {
          "internalType": "address",
          "name": "userAccount",
          "type": "address"
        },
        {
          "internalType": "string",
          "name": "fileIpfsCID",
          "type": "string"
        }
      ],
      "name": "elegibleToUpload",
      "outputs": [
        {
          "internalType": "bool",
          "name": "",
          "type": "bool"
        }
      ],
      "stateMutability": "view",
      "type": "function"
    },
    {
      "inputs": [],
      "name": "getAuditLogControlAddress",
      "outputs": [
        {
          "internalType": "address",
          "name": "",
          "type": "address"
        }
      ],
      "stateMutability": "view",
      "type": "function"
    },
    {
      "inputs": [
        {
          "internalType": "address",
          "name": "accountUser",
          "type": "address"
        },
        {
          "internalType": "string",
          "name": "fileIpfsCID",
          "type": "string"
        }
      ],
      "name": "getEncSymmetricKeyFileUser",
      "outputs": [
        {
          "components": [
            {
              "internalType": "bool",
              "name": "success",
              "type": "bool"
            },
            {
              "internalType": "string",
              "name": "resultString",
              "type": "string"
            }
          ],
          "internalType": "struct Helper.ResultString",
          "name": "",
          "type": "tuple"
        }
      ],
      "stateMutability": "view",
      "type": "function"
    },
    {
      "inputs": [
        {
          "internalType": "string",
          "name": "fileIpfsCid",
          "type": "string"
        }
      ],
      "name": "getFileState",
      "outputs": [
        {
          "components": [
            {
              "internalType": "bool",
              "name": "success",
              "type": "bool"
            },
            {
              "internalType": "string",
              "name": "resultString",
              "type": "string"
            }
          ],
          "internalType": "struct Helper.ResultString",
          "name": "",
          "type": "tuple"
        }
      ],
      "stateMutability": "view",
      "type": "function"
    },
    {
      "inputs": [
        {
          "internalType": "address",
          "name": "userAccount",
          "type": "address"
        },
        {
          "internalType": "string",
          "name": "fileIpfsCID",
          "type": "string"
        }
      ],
      "name": "getPermissionsOverFile",
      "outputs": [
        {
          "components": [
            {
              "internalType": "bool",
              "name": "success",
              "type": "bool"
            },
            {
              "internalType": "string[]",
              "name": "resultStrings",
              "type": "string[]"
            }
          ],
          "internalType": "struct Helper.ResultStringArray",
          "name": "",
          "type": "tuple"
        }
      ],
      "stateMutability": "view",
      "type": "function"
    },
    {
      "inputs": [
        {
          "internalType": "address",
          "name": "account",
          "type": "address"
        },
        {
          "internalType": "string",
          "name": "state",
          "type": "string"
        }
      ],
      "name": "getUserFiles",
      "outputs": [
        {
          "components": [
            {
              "internalType": "bool",
              "name": "success",
              "type": "bool"
            },
            {
              "components": [
                {
                  "internalType": "string",
                  "name": "ipfsCID",
                  "type": "string"
                },
                {
                  "internalType": "string",
                  "name": "fileName",
                  "type": "string"
                },
                {
                  "internalType": "address",
                  "name": "owner",
                  "type": "address"
                },
                {
                  "internalType": "string",
                  "name": "fileType",
                  "type": "string"
                },
                {
                  "internalType": "string",
                  "name": "iv",
                  "type": "string"
                }
              ],
              "internalType": "struct FileRegister.File[]",
              "name": "files",
              "type": "tuple[]"
            }
          ],
          "internalType": "struct FileRegister.ResultFiles",
          "name": "",
          "type": "tuple"
        }
      ],
      "stateMutability": "view",
      "type": "function"
    },
    {
      "inputs": [
        {
          "internalType": "address",
          "name": "accountInput",
          "type": "address"
        },
        {
          "internalType": "address",
          "name": "accountList",
          "type": "address"
        },
        {
          "internalType": "string",
          "name": "ipfsCIDInput",
          "type": "string"
        },
        {
          "internalType": "string",
          "name": "ipfsCIDList",
          "type": "string"
        }
      ],
      "name": "isKeyEqual",
      "outputs": [
        {
          "internalType": "bool",
          "name": "",
          "type": "bool"
        }
      ],
      "stateMutability": "pure",
      "type": "function"
    },
    {
      "inputs": [
        {
          "internalType": "string",
          "name": "fileIpfsCID",
          "type": "string"
        }
      ],
      "name": "messageSenderAssociatedToFile",
      "outputs": [
        {
          "internalType": "bool",
          "name": "",
          "type": "bool"
        }
      ],
      "stateMutability": "view",
      "type": "function"
    },
    {
      "inputs": [
        {
          "internalType": "address",
          "name": "userAccount",
          "type": "address"
        },
        {
          "internalType": "string",
          "name": "fileIpfsCID",
          "type": "string"
        },
        {
          "internalType": "string",
          "name": "encSymmetricKey",
          "type": "string"
        },
        {
          "internalType": "string[]",
          "name": "permissions",
          "type": "string[]"
        }
      ],
      "name": "shareFile",
      "outputs": [],
      "stateMutability": "nonpayable",
      "type": "function"
    },
    {
      "inputs": [
        {
          "internalType": "address",
          "name": "userAccount",
          "type": "address"
        },
        {
          "internalType": "string",
          "name": "fileIpfsCID",
          "type": "string"
        },
        {
          "internalType": "string[]",
          "name": "permissions",
          "type": "string[]"
        }
      ],
      "name": "updateUserFilePermissions",
      "outputs": [],
      "stateMutability": "nonpayable",
      "type": "function"
    },
    {
      "inputs": [
        {
          "internalType": "address",
          "name": "userAccount",
          "type": "address"
        },
        {
          "internalType": "string",
          "name": "fileIpfsCID",
          "type": "string"
        },
        {
          "internalType": "string",
          "name": "encSymmetricKey",
          "type": "string"
        }
      ],
      "name": "uploadFile",
      "outputs": [],
      "stateMutability": "nonpayable",
      "type": "function"
    },
    {
      "inputs": [
        {
          "internalType": "address",
          "name": "userAccount",
          "type": "address"
        },
        {
          "internalType": "string",
          "name": "fileIpfsCID",
          "type": "string"
        }
      ],
      "name": "userAssociatedWithFile",
      "outputs": [
        {
          "internalType": "bool",
          "name": "",
          "type": "bool"
        }
      ],
      "stateMutability": "view",
      "type": "function"
    },
    {
      "inputs": [
        {
          "internalType": "address",
          "name": "userAccount",
          "type": "address"
        },
        {
          "internalType": "string",
          "name": "fileIpfsCID",
          "type": "string"
        },
        {
          "internalType": "string",
          "name": "permission",
          "type": "string"
        }
      ],
      "name": "userHasPermissionOverFile",
      "outputs": [
        {
          "internalType": "bool",
          "name": "",
          "type": "bool"
        }
      ],
      "stateMutability": "view",
      "type": "function"
    }
  ],
  "bytecode": "0x60806040523480156200001157600080fd5b5060405162005a3e38038062005a3e8339818101604052810190620000379190620001e7565b82600160006101000a81548173ffffffffffffffffffffffffffffffffffffffff021916908373ffffffffffffffffffffffffffffffffffffffff16021790555081600260006101000a81548173ffffffffffffffffffffffffffffffffffffffff021916908373ffffffffffffffffffffffffffffffffffffffff16021790555080600460006101000a81548173ffffffffffffffffffffffffffffffffffffffff021916908373ffffffffffffffffffffffffffffffffffffffff16021790555060405162000108906200016f565b604051809103906000f08015801562000125573d6000803e3d6000fd5b50600360006101000a81548173ffffffffffffffffffffffffffffffffffffffff021916908373ffffffffffffffffffffffffffffffffffffffff16021790555050505062000243565b61148380620045bb83390190565b600080fd5b600073ffffffffffffffffffffffffffffffffffffffff82169050919050565b6000620001af8262000182565b9050919050565b620001c181620001a2565b8114620001cd57600080fd5b50565b600081519050620001e181620001b6565b92915050565b6000806000606084860312156200020357620002026200017d565b5b60006200021386828701620001d0565b93505060206200022686828701620001d0565b92505060406200023986828701620001d0565b9150509250925092565b61436880620002536000396000f3fe608060405234801561001057600080fd5b50600436106101095760003560e01c80635c99c71b116100a2578063b58ea3a211610071578063b58ea3a2146102fe578063b6d234df1461032e578063b714fb201461035e578063d13120231461037c578063dee63aa11461039857610109565b80635c99c71b1461026657806367cc916b146102965780638af34fbc146102b2578063a126d94c146102ce57610109565b80631ac47dd0116100de5780631ac47dd0146101ba5780632321f318146101ea578063299768c81461021a5780635784be731461024a57610109565b8062438ceb1461010e578062c5e6141461013e578063097637271461015a578063173cd5581461018a575b600080fd5b61012860048036038101906101239190612cfb565b6103c8565b6040516101359190612e1b565b60405180910390f35b61015860048036038101906101539190612f81565b610576565b005b610174600480360381019061016f919061303c565b6108b8565b6040516101819190613231565b60405180910390f35b6101a4600480360381019061019f919061303c565b610cf0565b6040516101b19190613352565b60405180910390f35b6101d460048036038101906101cf919061303c565b611012565b6040516101e19190613383565b60405180910390f35b61020460048036038101906101ff919061303c565b6111b7565b6040516102119190613383565b60405180910390f35b610234600480360381019061022f9190612cfb565b611352565b6040516102419190613383565b60405180910390f35b610264600480360381019061025f919061303c565b611492565b005b610280600480360381019061027b919061339e565b61178f565b60405161028d9190613383565b60405180910390f35b6102b060048036038101906102ab919061343d565b611821565b005b6102cc60048036038101906102c79190613499565b611994565b005b6102e860048036038101906102e3919061303c565b611c44565b6040516102f59190612e1b565b60405180910390f35b6103186004803603810190610313919061303c565b611f18565b6040516103259190613383565b60405180910390f35b61034860048036038101906103439190613524565b61220e565b6040516103559190613383565b60405180910390f35b610366612325565b60405161037391906135be565b60405180910390f35b61039660048036038101906103919190613524565b61234f565b005b6103b260048036038101906103ad919061303c565b6127e3565b6040516103bf9190613383565b60405180910390f35b6103d0612a2e565b6103d982611352565b156105475760005b60008054905081101561054557826040516020016103ff9190613615565b60405160208183030381529060405280519060200120600082815481106104295761042861362c565b5b906000526020600020906005020160010160405160200161044a9190613753565b60405160208183030381529060405280519060200120036105325760405180604001604052806001151581526020016000838154811061048d5761048c61362c565b5b906000526020600020906005020160040180546104a99061368a565b80601f01602080910402602001604051908101604052809291908181526020018280546104d59061368a565b80156105225780601f106104f757610100808354040283529160200191610522565b820191906000526020600020905b81548152906001019060200180831161050557829003601f168201915b5050505050815250915050610571565b808061053d906137a3565b9150506103e1565b505b60405180604001604052806000151581526020016040518060200160405280600081525081525090505b919050565b6105808484611f18565b156108b2576000600460009054906101000a900473ffffffffffffffffffffffffffffffffffffffff1673ffffffffffffffffffffffffffffffffffffffff1663c1f69fd6868686866040518563ffffffff1660e01b81526004016105e894939291906138bb565b602060405180830381865afa158015610605573d6000803e3d6000fd5b505050506040513d601f19601f820116820180604052508101906106299190613941565b905080156108b05760006040518060a001604052808773ffffffffffffffffffffffffffffffffffffffff1681526020018681526020018581526020018481526020016040518060400160405280600681526020017f61637469766500000000000000000000000000000000000000000000000000008152508152509050600081908060018154018082558091505060019003906000526020600020906005020160009091909190915060008201518160000160006101000a81548173ffffffffffffffffffffffffffffffffffffffff021916908373ffffffffffffffffffffffffffffffffffffffff160217905550602082015181600101908161072f9190613b05565b5060408201518160020190816107459190613b05565b506060820151816003019080519060200190610762929190612a4a565b5060808201518160040190816107789190613b05565b505050600360009054906101000a900473ffffffffffffffffffffffffffffffffffffffff1673ffffffffffffffffffffffffffffffffffffffff1663c47ebddc338789600460009054906101000a900473ffffffffffffffffffffffffffffffffffffffff1673ffffffffffffffffffffffffffffffffffffffff16636bb8d768896040518263ffffffff1660e01b81526004016108179190613bd7565b600060405180830381865afa158015610834573d6000803e3d6000fd5b505050506040513d6000823e3d601f19601f8201168201806040525081019061085d9190613c69565b6040518563ffffffff1660e01b815260040161087c9493929190613cfe565b600060405180830381600087803b15801561089657600080fd5b505af11580156108aa573d6000803e3d6000fd5b50505050505b505b50505050565b6108c0612aa3565b8273ffffffffffffffffffffffffffffffffffffffff163373ffffffffffffffffffffffffffffffffffffffff1603610c7b576000808054905067ffffffffffffffff81111561091357610912612bd0565b5b60405190808252806020026020018201604052801561094c57816020015b610939612abf565b8152602001906001900390816109315790505b5090506000805b600080549050811015610c4b578573ffffffffffffffffffffffffffffffffffffffff166000828154811061098b5761098a61362c565b5b906000526020600020906005020160000160009054906101000a900473ffffffffffffffffffffffffffffffffffffffff1673ffffffffffffffffffffffffffffffffffffffff16148015610aa35750600081815481106109ef576109ee61362c565b5b9060005260206000209060050201600401604051602001610a109190613753565b6040516020818303038152906040528051906020012085604051602001610a379190613615565b604051602081830303815290604052805190602001201480610aa25750604051602001610a6390613d8a565b6040516020818303038152906040528051906020012085604051602001610a8a9190613615565b60405160208183030381529060405280519060200120145b5b15610c38576000808281548110610abd57610abc61362c565b5b90600052602060002090600502016001018054610ad99061368a565b80601f0160208091040260200160405190810160405280929190818152602001828054610b059061368a565b8015610b525780601f10610b2757610100808354040283529160200191610b52565b820191906000526020600020905b815481529060010190602001808311610b3557829003601f168201915b505050505090506000600160009054906101000a900473ffffffffffffffffffffffffffffffffffffffff1673ffffffffffffffffffffffffffffffffffffffff16639f5937f8836040518263ffffffff1660e01b8152600401610bb69190613d9f565b600060405180830381865afa158015610bd3573d6000803e3d6000fd5b505050506040513d6000823e3d601f19601f82011682018060405250810190610bfc9190613f48565b905060008160200151905080868681518110610c1b57610c1a61362c565b5b60200260200101819052508480610c31906137a3565b9550505050505b8080610c43906137a3565b915050610953565b5080825260008114610c785760405180604001604052806001151581526020018381525092505050610cea565b50505b6040518060400160405280600015158152602001600067ffffffffffffffff811115610caa57610ca9612bd0565b5b604051908082528060200260200182016040528015610ce357816020015b610cd0612abf565b815260200190600190039081610cc85790505b5081525090505b92915050565b610cf8612b04565b610d0182611352565b8015610d625750604051602001610d1790613fdd565b60405160208183030381529060405280519060200120610d36836103c8565b60200151604051602001610d4a9190613615565b60405160208183030381529060405280519060200120145b15610fa35760005b600080549050811015610fa157610e758460008381548110610d8f57610d8e61362c565b5b906000526020600020906005020160000160009054906101000a900473ffffffffffffffffffffffffffffffffffffffff168560008581548110610dd657610dd561362c565b5b90600052602060002090600502016001018054610df29061368a565b80601f0160208091040260200160405190810160405280929190818152602001828054610e1e9061368a565b8015610e6b5780601f10610e4057610100808354040283529160200191610e6b565b820191906000526020600020905b815481529060010190602001808311610e4e57829003601f168201915b505050505061178f565b15610f8e57604051806040016040528060011515815260200160008381548110610ea257610ea161362c565b5b9060005260206000209060050201600301805480602002602001604051908101604052809291908181526020016000905b82821015610f7f578382906000526020600020018054610ef29061368a565b80601f0160208091040260200160405190810160405280929190818152602001828054610f1e9061368a565b8015610f6b5780601f10610f4057610100808354040283529160200191610f6b565b820191906000526020600020905b815481529060010190602001808311610f4e57829003601f168201915b505050505081526020019060010190610ed3565b5050505081525091505061100c565b8080610f99906137a3565b915050610d6a565b505b6040518060400160405280600015158152602001600067ffffffffffffffff811115610fd257610fd1612bd0565b5b60405190808252806020026020018201604052801561100557816020015b6060815260200190600190039081610ff05790505b5081525090505b92915050565b600061101d82611352565b806110755750600360009054906101000a900473ffffffffffffffffffffffffffffffffffffffff1673ffffffffffffffffffffffffffffffffffffffff163373ffffffffffffffffffffffffffffffffffffffff16145b156111ac5760005b6000805490508110156111aa5761118884600083815481106110a2576110a161362c565b5b906000526020600020906005020160000160009054906101000a900473ffffffffffffffffffffffffffffffffffffffff1685600085815481106110e9576110e861362c565b5b906000526020600020906005020160010180546111059061368a565b80601f01602080910402602001604051908101604052809291908181526020018280546111319061368a565b801561117e5780601f106111535761010080835404028352916020019161117e565b820191906000526020600020905b81548152906001019060200180831161116157829003601f168201915b505050505061178f565b156111975760019150506111b1565b80806111a2906137a3565b91505061107d565b505b600090505b92915050565b60008273ffffffffffffffffffffffffffffffffffffffff163373ffffffffffffffffffffffffffffffffffffffff16141580156112905750600160009054906101000a900473ffffffffffffffffffffffffffffffffffffffff1673ffffffffffffffffffffffffffffffffffffffff166352a9baef84846040518363ffffffff1660e01b815260040161124d929190613ff2565b602060405180830381865afa15801561126a573d6000803e3d6000fd5b505050506040513d601f19601f8201168201806040525081019061128e9190613941565b155b80156112d857506112d733836040518060400160405280600581526020017f736861726500000000000000000000000000000000000000000000000000000081525061220e565b5b801561133957506040516020016112ee90613fdd565b6040516020818303038152906040528051906020012061130d836103c8565b602001516040516020016113219190613615565b60405160208183030381529060405280519060200120145b15611347576001905061134c565b600090505b92915050565b600080600090505b60008054905081101561148757611465336000838154811061137f5761137e61362c565b5b906000526020600020906005020160000160009054906101000a900473ffffffffffffffffffffffffffffffffffffffff1685600085815481106113c6576113c561362c565b5b906000526020600020906005020160010180546113e29061368a565b80601f016020809104026020016040519081016040528092919081815260200182805461140e9061368a565b801561145b5780601f106114305761010080835404028352916020019161145b565b820191906000526020600020905b81548152906001019060200180831161143e57829003601f168201915b505050505061178f565b1561147457600191505061148d565b808061147f906137a3565b91505061135a565b50600090505b919050565b6114d233826040518060400160405280600681526020017f64656c657465000000000000000000000000000000000000000000000000000081525061220e565b80156115765750600160009054906101000a900473ffffffffffffffffffffffffffffffffffffffff1673ffffffffffffffffffffffffffffffffffffffff16639bccd6ad826040518263ffffffff1660e01b81526004016115349190613d9f565b602060405180830381865afa158015611551573d6000803e3d6000fd5b505050506040513d601f19601f820116820180604052508101906115759190613941565b5b1561178b5760005b6000805490508110156116f8578160405160200161159c9190613615565b60405160208183030381529060405280519060200120600082815481106115c6576115c561362c565b5b90600052602060002090600502016001016040516020016115e79190613753565b60405160208183030381529060405280519060200120148015611677575060405160200161161490613fdd565b604051602081830303815290604052805190602001206000828154811061163e5761163d61362c565b5b906000526020600020906005020160040160405160200161165f9190613753565b60405160208183030381529060405280519060200120145b156116e5576040518060400160405280600881526020017f6465616374697665000000000000000000000000000000000000000000000000815250600082815481106116c6576116c561362c565b5b906000526020600020906005020160040190816116e39190613b05565b505b80806116f0906137a3565b91505061157e565b50600360009054906101000a900473ffffffffffffffffffffffffffffffffffffffff1673ffffffffffffffffffffffffffffffffffffffff1663c47ebddc3383856040518463ffffffff1660e01b8152600401611758939291906140ba565b600060405180830381600087803b15801561177257600080fd5b505af1158015611786573d6000803e3d6000fd5b505050505b5050565b60008473ffffffffffffffffffffffffffffffffffffffff168473ffffffffffffffffffffffffffffffffffffffff161480156118175750826040516020016117d89190613615565b60405160208183030381529060405280519060200120826040516020016117ff9190613615565b60405160208183030381529060405280519060200120145b9050949350505050565b8073ffffffffffffffffffffffffffffffffffffffff163373ffffffffffffffffffffffffffffffffffffffff16148015611898575061189781836040518060400160405280600881526020017f646f776e6c6f616400000000000000000000000000000000000000000000000081525061220e565b5b80156118f957506040516020016118ae90613fdd565b604051602081830303815290604052805190602001206118cd836103c8565b602001516040516020016118e19190613615565b60405160208183030381529060405280519060200120145b1561199057600360009054906101000a900473ffffffffffffffffffffffffffffffffffffffff1673ffffffffffffffffffffffffffffffffffffffff1663c47ebddc3384846040518463ffffffff1660e01b815260040161195d9392919061416a565b600060405180830381600087803b15801561197757600080fd5b505af115801561198b573d6000803e3d6000fd5b505050505b5050565b61199e83836111b7565b15611c3e5760005b600080549050811015611c3c57611ab184600083815481106119cb576119ca61362c565b5b906000526020600020906005020160000160009054906101000a900473ffffffffffffffffffffffffffffffffffffffff168560008581548110611a1257611a1161362c565b5b90600052602060002090600502016001018054611a2e9061368a565b80601f0160208091040260200160405190810160405280929190818152602001828054611a5a9061368a565b8015611aa75780601f10611a7c57610100808354040283529160200191611aa7565b820191906000526020600020905b815481529060010190602001808311611a8a57829003601f168201915b505050505061178f565b15611c29578160008281548110611acb57611aca61362c565b5b90600052602060002090600502016003019080519060200190611aef929190612a4a565b50600360009054906101000a900473ffffffffffffffffffffffffffffffffffffffff1673ffffffffffffffffffffffffffffffffffffffff1663c47ebddc338587600460009054906101000a900473ffffffffffffffffffffffffffffffffffffffff1673ffffffffffffffffffffffffffffffffffffffff16636bb8d768886040518263ffffffff1660e01b8152600401611b8c9190613bd7565b600060405180830381865afa158015611ba9573d6000803e3d6000fd5b505050506040513d6000823e3d601f19601f82011682018060405250810190611bd29190613c69565b6040518563ffffffff1660e01b8152600401611bf1949392919061421a565b600060405180830381600087803b158015611c0b57600080fd5b505af1158015611c1f573d6000803e3d6000fd5b5050505050611c3f565b8080611c34906137a3565b9150506119a6565b505b5b505050565b611c4c612a2e565b8273ffffffffffffffffffffffffffffffffffffffff163373ffffffffffffffffffffffffffffffffffffffff16148015611c8d5750611c8c8383611012565b5b8015611cee5750604051602001611ca390613fdd565b60405160208183030381529060405280519060200120611cc2836103c8565b60200151604051602001611cd69190613615565b60405160208183030381529060405280519060200120145b15611ee85760005b600080549050811015611ee657611e018460008381548110611d1b57611d1a61362c565b5b906000526020600020906005020160000160009054906101000a900473ffffffffffffffffffffffffffffffffffffffff168560008581548110611d6257611d6161362c565b5b90600052602060002090600502016001018054611d7e9061368a565b80601f0160208091040260200160405190810160405280929190818152602001828054611daa9061368a565b8015611df75780601f10611dcc57610100808354040283529160200191611df7565b820191906000526020600020905b815481529060010190602001808311611dda57829003601f168201915b505050505061178f565b15611ed357604051806040016040528060011515815260200160008381548110611e2e57611e2d61362c565b5b90600052602060002090600502016002018054611e4a9061368a565b80601f0160208091040260200160405190810160405280929190818152602001828054611e769061368a565b8015611ec35780601f10611e9857610100808354040283529160200191611ec3565b820191906000526020600020905b815481529060010190602001808311611ea657829003601f168201915b5050505050815250915050611f12565b8080611ede906137a3565b915050611cf6565b505b60405180604001604052806000151581526020016040518060200160405280600081525081525090505b92915050565b60008273ffffffffffffffffffffffffffffffffffffffff163373ffffffffffffffffffffffffffffffffffffffff1614158015611ff15750600160009054906101000a900473ffffffffffffffffffffffffffffffffffffffff1673ffffffffffffffffffffffffffffffffffffffff166352a9baef84846040518363ffffffff1660e01b8152600401611fae929190613ff2565b602060405180830381865afa158015611fcb573d6000803e3d6000fd5b505050506040513d601f19601f82011682018060405250810190611fef9190613941565b155b8015612039575061203833836040518060400160405280600581526020017f736861726500000000000000000000000000000000000000000000000000000081525061220e565b5b801561204c575061204a8383611012565b155b80156120f05750600160009054906101000a900473ffffffffffffffffffffffffffffffffffffffff1673ffffffffffffffffffffffffffffffffffffffff16639bccd6ad836040518263ffffffff1660e01b81526004016120ae9190613d9f565b602060405180830381865afa1580156120cb573d6000803e3d6000fd5b505050506040513d601f19601f820116820180604052508101906120ef9190613941565b5b8015612151575060405160200161210690613fdd565b60405160208183030381529060405280519060200120612125836103c8565b602001516040516020016121399190613615565b60405160208183030381529060405280519060200120145b80156121f55750600260009054906101000a900473ffffffffffffffffffffffffffffffffffffffff1673ffffffffffffffffffffffffffffffffffffffff1663a240e426846040518263ffffffff1660e01b81526004016121b391906135be565b602060405180830381865afa1580156121d0573d6000803e3d6000fd5b505050506040513d601f19601f820116820180604052508101906121f49190613941565b5b156122035760019050612208565b600090505b92915050565b600060405160200161221f90613fdd565b6040516020818303038152906040528051906020012061223e846103c8565b602001516040516020016122529190613615565b60405160208183030381529060405280519060200120036123195760006122798585610cf0565b60200151905060005b8151811015612316578360405160200161229c9190613615565b604051602081830303815290604052805190602001208282815181106122c5576122c461362c565b5b60200260200101516040516020016122dd9190613615565b60405160208183030381529060405280519060200120036123035760019250505061231e565b808061230e906137a3565b915050612282565b50505b600090505b9392505050565b6000600360009054906101000a900473ffffffffffffffffffffffffffffffffffffffff16905090565b61235983836127e3565b156127de576000600367ffffffffffffffff81111561237b5761237a612bd0565b5b6040519080825280602002602001820160405280156123ae57816020015b60608152602001906001900390816123995790505b5090506040518060400160405280600581526020017f7368617265000000000000000000000000000000000000000000000000000000815250816000815181106123fb576123fa61362c565b5b60200260200101819052506040518060400160405280600881526020017f646f776e6c6f6164000000000000000000000000000000000000000000000000815250816001815181106124505761244f61362c565b5b60200260200101819052506040518060400160405280600681526020017f64656c6574650000000000000000000000000000000000000000000000000000815250816002815181106124a5576124a461362c565b5b60200260200101819052506000600460009054906101000a900473ffffffffffffffffffffffffffffffffffffffff1673ffffffffffffffffffffffffffffffffffffffff1663c1f69fd6868686866040518563ffffffff1660e01b815260040161251394939291906138bb565b602060405180830381865afa158015612530573d6000803e3d6000fd5b505050506040513d601f19601f820116820180604052508101906125549190613941565b905080156127db5760006040518060a001604052808773ffffffffffffffffffffffffffffffffffffffff1681526020018681526020018581526020018481526020016040518060400160405280600681526020017f61637469766500000000000000000000000000000000000000000000000000008152508152509050600081908060018154018082558091505060019003906000526020600020906005020160009091909190915060008201518160000160006101000a81548173ffffffffffffffffffffffffffffffffffffffff021916908373ffffffffffffffffffffffffffffffffffffffff160217905550602082015181600101908161265a9190613b05565b5060408201518160020190816126709190613b05565b50606082015181600301908051906020019061268d929190612a4a565b5060808201518160040190816126a39190613b05565b505050600360009054906101000a900473ffffffffffffffffffffffffffffffffffffffff1673ffffffffffffffffffffffffffffffffffffffff1663c47ebddc338789600460009054906101000a900473ffffffffffffffffffffffffffffffffffffffff1673ffffffffffffffffffffffffffffffffffffffff16636bb8d768896040518263ffffffff1660e01b81526004016127429190613bd7565b600060405180830381865afa15801561275f573d6000803e3d6000fd5b505050506040513d6000823e3d601f19601f820116820180604052508101906127889190613c69565b6040518563ffffffff1660e01b81526004016127a794939291906142cc565b600060405180830381600087803b1580156127c157600080fd5b505af11580156127d5573d6000803e3d6000fd5b50505050505b50505b505050565b60008273ffffffffffffffffffffffffffffffffffffffff163373ffffffffffffffffffffffffffffffffffffffff1614801561282757506128258383611012565b155b80156128cd5750600160009054906101000a900473ffffffffffffffffffffffffffffffffffffffff1673ffffffffffffffffffffffffffffffffffffffff166352a9baef84846040518363ffffffff1660e01b815260040161288b929190613ff2565b602060405180830381865afa1580156128a8573d6000803e3d6000fd5b505050506040513d601f19601f820116820180604052508101906128cc9190613941565b5b80156129715750600160009054906101000a900473ffffffffffffffffffffffffffffffffffffffff1673ffffffffffffffffffffffffffffffffffffffff16639bccd6ad836040518263ffffffff1660e01b815260040161292f9190613d9f565b602060405180830381865afa15801561294c573d6000803e3d6000fd5b505050506040513d601f19601f820116820180604052508101906129709190613941565b5b8015612a155750600260009054906101000a900473ffffffffffffffffffffffffffffffffffffffff1673ffffffffffffffffffffffffffffffffffffffff1663a240e426846040518263ffffffff1660e01b81526004016129d391906135be565b602060405180830381865afa1580156129f0573d6000803e3d6000fd5b505050506040513d601f19601f82011682018060405250810190612a149190613941565b5b15612a235760019050612a28565b600090505b92915050565b6040518060400160405280600015158152602001606081525090565b828054828255906000526020600020908101928215612a92579160200282015b82811115612a91578251829081612a819190613b05565b5091602001919060010190612a6a565b5b509050612a9f9190612b20565b5090565b6040518060400160405280600015158152602001606081525090565b6040518060a001604052806060815260200160608152602001600073ffffffffffffffffffffffffffffffffffffffff16815260200160608152602001606081525090565b6040518060400160405280600015158152602001606081525090565b5b80821115612b405760008181612b379190612b44565b50600101612b21565b5090565b508054612b509061368a565b6000825580601f10612b625750612b81565b601f016020900490600052602060002090810190612b809190612b84565b5b50565b5b80821115612b9d576000816000905550600101612b85565b5090565b6000604051905090565b600080fd5b600080fd5b600080fd5b600080fd5b6000601f19601f8301169050919050565b7f4e487b7100000000000000000000000000000000000000000000000000000000600052604160045260246000fd5b612c0882612bbf565b810181811067ffffffffffffffff82111715612c2757612c26612bd0565b5b80604052505050565b6000612c3a612ba1565b9050612c468282612bff565b919050565b600067ffffffffffffffff821115612c6657612c65612bd0565b5b612c6f82612bbf565b9050602081019050919050565b82818337600083830152505050565b6000612c9e612c9984612c4b565b612c30565b905082815260208101848484011115612cba57612cb9612bba565b5b612cc5848285612c7c565b509392505050565b600082601f830112612ce257612ce1612bb5565b5b8135612cf2848260208601612c8b565b91505092915050565b600060208284031215612d1157612d10612bab565b5b600082013567ffffffffffffffff811115612d2f57612d2e612bb0565b5b612d3b84828501612ccd565b91505092915050565b60008115159050919050565b612d5981612d44565b82525050565b600081519050919050565b600082825260208201905092915050565b60005b83811015612d99578082015181840152602081019050612d7e565b60008484015250505050565b6000612db082612d5f565b612dba8185612d6a565b9350612dca818560208601612d7b565b612dd381612bbf565b840191505092915050565b6000604083016000830151612df66000860182612d50565b5060208301518482036020860152612e0e8282612da5565b9150508091505092915050565b60006020820190508181036000830152612e358184612dde565b905092915050565b600073ffffffffffffffffffffffffffffffffffffffff82169050919050565b6000612e6882612e3d565b9050919050565b612e7881612e5d565b8114612e8357600080fd5b50565b600081359050612e9581612e6f565b92915050565b600067ffffffffffffffff821115612eb657612eb5612bd0565b5b602082029050602081019050919050565b600080fd5b6000612edf612eda84612e9b565b612c30565b90508083825260208201905060208402830185811115612f0257612f01612ec7565b5b835b81811015612f4957803567ffffffffffffffff811115612f2757612f26612bb5565b5b808601612f348982612ccd565b85526020850194505050602081019050612f04565b5050509392505050565b600082601f830112612f6857612f67612bb5565b5b8135612f78848260208601612ecc565b91505092915050565b60008060008060808587031215612f9b57612f9a612bab565b5b6000612fa987828801612e86565b945050602085013567ffffffffffffffff811115612fca57612fc9612bb0565b5b612fd687828801612ccd565b935050604085013567ffffffffffffffff811115612ff757612ff6612bb0565b5b61300387828801612ccd565b925050606085013567ffffffffffffffff81111561302457613023612bb0565b5b61303087828801612f53565b91505092959194509250565b6000806040838503121561305357613052612bab565b5b600061306185828601612e86565b925050602083013567ffffffffffffffff81111561308257613081612bb0565b5b61308e85828601612ccd565b9150509250929050565b600081519050919050565b600082825260208201905092915050565b6000819050602082019050919050565b6130cd81612e5d565b82525050565b600060a08301600083015184820360008601526130f08282612da5565b9150506020830151848203602086015261310a8282612da5565b915050604083015161311f60408601826130c4565b50606083015184820360608601526131378282612da5565b915050608083015184820360808601526131518282612da5565b9150508091505092915050565b600061316a83836130d3565b905092915050565b6000602082019050919050565b600061318a82613098565b61319481856130a3565b9350836020820285016131a6856130b4565b8060005b858110156131e257848403895281516131c3858261315e565b94506131ce83613172565b925060208a019950506001810190506131aa565b50829750879550505050505092915050565b600060408301600083015161320c6000860182612d50565b5060208301518482036020860152613224828261317f565b9150508091505092915050565b6000602082019050818103600083015261324b81846131f4565b905092915050565b600081519050919050565b600082825260208201905092915050565b6000819050602082019050919050565b600061328b8383612da5565b905092915050565b6000602082019050919050565b60006132ab82613253565b6132b5818561325e565b9350836020820285016132c78561326f565b8060005b8581101561330357848403895281516132e4858261327f565b94506132ef83613293565b925060208a019950506001810190506132cb565b50829750879550505050505092915050565b600060408301600083015161332d6000860182612d50565b506020830151848203602086015261334582826132a0565b9150508091505092915050565b6000602082019050818103600083015261336c8184613315565b905092915050565b61337d81612d44565b82525050565b60006020820190506133986000830184613374565b92915050565b600080600080608085870312156133b8576133b7612bab565b5b60006133c687828801612e86565b94505060206133d787828801612e86565b935050604085013567ffffffffffffffff8111156133f8576133f7612bb0565b5b61340487828801612ccd565b925050606085013567ffffffffffffffff81111561342557613424612bb0565b5b61343187828801612ccd565b91505092959194509250565b6000806040838503121561345457613453612bab565b5b600083013567ffffffffffffffff81111561347257613471612bb0565b5b61347e85828601612ccd565b925050602061348f85828601612e86565b9150509250929050565b6000806000606084860312156134b2576134b1612bab565b5b60006134c086828701612e86565b935050602084013567ffffffffffffffff8111156134e1576134e0612bb0565b5b6134ed86828701612ccd565b925050604084013567ffffffffffffffff81111561350e5761350d612bb0565b5b61351a86828701612f53565b9150509250925092565b60008060006060848603121561353d5761353c612bab565b5b600061354b86828701612e86565b935050602084013567ffffffffffffffff81111561356c5761356b612bb0565b5b61357886828701612ccd565b925050604084013567ffffffffffffffff81111561359957613598612bb0565b5b6135a586828701612ccd565b9150509250925092565b6135b881612e5d565b82525050565b60006020820190506135d360008301846135af565b92915050565b600081905092915050565b60006135ef82612d5f565b6135f981856135d9565b9350613609818560208601612d7b565b80840191505092915050565b600061362182846135e4565b915081905092915050565b7f4e487b7100000000000000000000000000000000000000000000000000000000600052603260045260246000fd5b7f4e487b7100000000000000000000000000000000000000000000000000000000600052602260045260246000fd5b600060028204905060018216806136a257607f821691505b6020821081036136b5576136b461365b565b5b50919050565b60008190508160005260206000209050919050565b600081546136dd8161368a565b6136e781866135d9565b9450600182166000811461370257600181146137175761374a565b60ff198316865281151582028601935061374a565b613720856136bb565b60005b8381101561374257815481890152600182019150602081019050613723565b838801955050505b50505092915050565b600061375f82846136d0565b915081905092915050565b7f4e487b7100000000000000000000000000000000000000000000000000000000600052601160045260246000fd5b6000819050919050565b60006137ae82613799565b91507fffffffffffffffffffffffffffffffffffffffffffffffffffffffffffffffff82036137e0576137df61376a565b5b600182019050919050565b600082825260208201905092915050565b600061380782612d5f565b61381181856137eb565b9350613821818560208601612d7b565b61382a81612bbf565b840191505092915050565b600082825260208201905092915050565b600061385182613253565b61385b8185613835565b93508360208202850161386d8561326f565b8060005b858110156138a9578484038952815161388a858261327f565b945061389583613293565b925060208a01995050600181019050613871565b50829750879550505050505092915050565b60006080820190506138d060008301876135af565b81810360208301526138e281866137fc565b905081810360408301526138f681856137fc565b9050818103606083015261390a8184613846565b905095945050505050565b61391e81612d44565b811461392957600080fd5b50565b60008151905061393b81613915565b92915050565b60006020828403121561395757613956612bab565b5b60006139658482850161392c565b91505092915050565b60006020601f8301049050919050565b600082821b905092915050565b6000600883026139bb7fffffffffffffffffffffffffffffffffffffffffffffffffffffffffffffffff8261397e565b6139c5868361397e565b95508019841693508086168417925050509392505050565b6000819050919050565b6000613a026139fd6139f884613799565b6139dd565b613799565b9050919050565b6000819050919050565b613a1c836139e7565b613a30613a2882613a09565b84845461398b565b825550505050565b600090565b613a45613a38565b613a50818484613a13565b505050565b5b81811015613a7457613a69600082613a3d565b600181019050613a56565b5050565b601f821115613ab957613a8a816136bb565b613a938461396e565b81016020851015613aa2578190505b613ab6613aae8561396e565b830182613a55565b50505b505050565b600082821c905092915050565b6000613adc60001984600802613abe565b1980831691505092915050565b6000613af58383613acb565b9150826002028217905092915050565b613b0e82612d5f565b67ffffffffffffffff811115613b2757613b26612bd0565b5b613b31825461368a565b613b3c828285613a78565b600060209050601f831160018114613b6f5760008415613b5d578287015190505b613b678582613ae9565b865550613bcf565b601f198416613b7d866136bb565b60005b82811015613ba557848901518255600182019150602085019450602081019050613b80565b86831015613bc25784890151613bbe601f891682613acb565b8355505b6001600288020188555050505b505050505050565b60006020820190508181036000830152613bf18184613846565b905092915050565b6000613c0c613c0784612c4b565b612c30565b905082815260208101848484011115613c2857613c27612bba565b5b613c33848285612d7b565b509392505050565b600082601f830112613c5057613c4f612bb5565b5b8151613c60848260208601613bf9565b91505092915050565b600060208284031215613c7f57613c7e612bab565b5b600082015167ffffffffffffffff811115613c9d57613c9c612bb0565b5b613ca984828501613c3b565b91505092915050565b7f7368617265000000000000000000000000000000000000000000000000000000600082015250565b6000613ce86005836137eb565b9150613cf382613cb2565b602082019050919050565b600060a082019050613d1360008301876135af565b8181036020830152613d2581866137fc565b9050613d3460408301856135af565b8181036060830152613d4681846137fc565b90508181036080830152613d5981613cdb565b905095945050505050565b50565b6000613d746000836135d9565b9150613d7f82613d64565b600082019050919050565b6000613d9582613d67565b9150819050919050565b60006020820190508181036000830152613db981846137fc565b905092915050565b600080fd5b600080fd5b600081519050613dda81612e6f565b92915050565b600060a08284031215613df657613df5613dc1565b5b613e0060a0612c30565b9050600082015167ffffffffffffffff811115613e2057613e1f613dc6565b5b613e2c84828501613c3b565b600083015250602082015167ffffffffffffffff811115613e5057613e4f613dc6565b5b613e5c84828501613c3b565b6020830152506040613e7084828501613dcb565b604083015250606082015167ffffffffffffffff811115613e9457613e93613dc6565b5b613ea084828501613c3b565b606083015250608082015167ffffffffffffffff811115613ec457613ec3613dc6565b5b613ed084828501613c3b565b60808301525092915050565b600060408284031215613ef257613ef1613dc1565b5b613efc6040612c30565b90506000613f0c8482850161392c565b600083015250602082015167ffffffffffffffff811115613f3057613f2f613dc6565b5b613f3c84828501613de0565b60208301525092915050565b600060208284031215613f5e57613f5d612bab565b5b600082015167ffffffffffffffff811115613f7c57613f7b612bb0565b5b613f8884828501613edc565b91505092915050565b7f6163746976650000000000000000000000000000000000000000000000000000600082015250565b6000613fc76006836135d9565b9150613fd282613f91565b600682019050919050565b6000613fe882613fba565b9150819050919050565b600060408201905061400760008301856135af565b818103602083015261401981846137fc565b90509392505050565b7f2d00000000000000000000000000000000000000000000000000000000000000600082015250565b60006140586001836137eb565b915061406382614022565b602082019050919050565b7f64656c6574656400000000000000000000000000000000000000000000000000600082015250565b60006140a46007836137eb565b91506140af8261406e565b602082019050919050565b600060a0820190506140cf60008301866135af565b81810360208301526140e181856137fc565b90506140f060408301846135af565b81810360608301526141018161404b565b9050818103608083015261411481614097565b9050949350505050565b7f646f776e6c6f6164000000000000000000000000000000000000000000000000600082015250565b60006141546008836137eb565b915061415f8261411e565b602082019050919050565b600060a08201905061417f60008301866135af565b818103602083015261419181856137fc565b90506141a060408301846135af565b81810360608301526141b18161404b565b905081810360808301526141c481614147565b9050949350505050565b7f757064617465207065726d697373696f6e730000000000000000000000000000600082015250565b60006142046012836137eb565b915061420f826141ce565b602082019050919050565b600060a08201905061422f60008301876135af565b818103602083015261424181866137fc565b905061425060408301856135af565b818103606083015261426281846137fc565b90508181036080830152614275816141f7565b905095945050505050565b7f75706c6f61640000000000000000000000000000000000000000000000000000600082015250565b60006142b66006836137eb565b91506142c182614280565b602082019050919050565b600060a0820190506142e160008301876135af565b81810360208301526142f381866137fc565b905061430260408301856135af565b818103606083015261431481846137fc565b90508181036080830152614327816142a9565b90509594505050505056fea2646970667358221220f2bad09331d27379b934209f70b3fa044667b35cde730e2ff0aba0eb0d4839ef64736f6c63430008130033608060405234801561001057600080fd5b5033600160006101000a81548173ffffffffffffffffffffffffffffffffffffffff021916908373ffffffffffffffffffffffffffffffffffffffff16021790555033600260006101000a81548173ffffffffffffffffffffffffffffffffffffffff021916908373ffffffffffffffffffffffffffffffffffffffff1602179055506113e1806100a26000396000f3fe608060405234801561001057600080fd5b50600436106100365760003560e01c8063759ab1851461003b578063c47ebddc1461006b575b600080fd5b61005560048036038101906100509190610a68565b610087565b6040516100629190610d3b565b60405180910390f35b61008560048036038101906100809190610d89565b6105e7565b005b61008f6107aa565b6000808054905067ffffffffffffffff8111156100af576100ae610852565b5b6040519080825280602002602001820160405280156100e857816020015b6100d56107c6565b8152602001906001900390816100cd5790505b5090506000805b845181101561054457600160009054906101000a900473ffffffffffffffffffffffffffffffffffffffff1673ffffffffffffffffffffffffffffffffffffffff16631ac47dd03387848151811061014a57610149610e58565b5b60200260200101516040518363ffffffff1660e01b815260040161016f929190610ee0565b602060405180830381865afa15801561018c573d6000803e3d6000fd5b505050506040513d601f19601f820116820180604052508101906101b09190610f3c565b156105315760005b60008054905081101561052f578582815181106101d8576101d7610e58565b5b60200260200101516040516020016101f09190610fa5565b604051602081830303815290604052805190602001206000828154811061021a57610219610e58565b5b906000526020600020906006020160000160405160200161023b91906110b4565b604051602081830303815290604052805190602001200361051c576000818154811061026a57610269610e58565b5b90600052602060002090600602016040518060c001604052908160008201805461029390610feb565b80601f01602080910402602001604051908101604052809291908181526020018280546102bf90610feb565b801561030c5780601f106102e15761010080835404028352916020019161030c565b820191906000526020600020905b8154815290600101906020018083116102ef57829003601f168201915b505050505081526020016001820160009054906101000a900473ffffffffffffffffffffffffffffffffffffffff1673ffffffffffffffffffffffffffffffffffffffff1673ffffffffffffffffffffffffffffffffffffffff1681526020016002820154815260200160038201805461038590610feb565b80601f01602080910402602001604051908101604052809291908181526020018280546103b190610feb565b80156103fe5780601f106103d3576101008083540402835291602001916103fe565b820191906000526020600020905b8154815290600101906020018083116103e157829003601f168201915b5050505050815260200160048201805461041790610feb565b80601f016020809104026020016040519081016040528092919081815260200182805461044390610feb565b80156104905780601f1061046557610100808354040283529160200191610490565b820191906000526020600020905b81548152906001019060200180831161047357829003601f168201915b505050505081526020016005820160009054906101000a900473ffffffffffffffffffffffffffffffffffffffff1673ffffffffffffffffffffffffffffffffffffffff1673ffffffffffffffffffffffffffffffffffffffff168152505084848151811061050257610501610e58565b5b60200260200101819052508280610518906110fa565b9350505b8080610527906110fa565b9150506101b8565b505b808061053c906110fa565b9150506100ef565b508082526000811461057157604051806040016040528060011515815260200183815250925050506105e2565b6040518060400160405280600015158152602001600067ffffffffffffffff8111156105a05761059f610852565b5b6040519080825280602002602001820160405280156105d957816020015b6105c66107c6565b8152602001906001900390816105be5790505b50815250925050505b919050565b600260009054906101000a900473ffffffffffffffffffffffffffffffffffffffff1673ffffffffffffffffffffffffffffffffffffffff163373ffffffffffffffffffffffffffffffffffffffff16036107a35760006040518060c001604052808681526020018573ffffffffffffffffffffffffffffffffffffffff1681526020014281526020018381526020018481526020018773ffffffffffffffffffffffffffffffffffffffff168152509050600081908060018154018082558091505060019003906000526020600020906006020160009091909190915060008201518160000190816106da91906112d9565b5060208201518160010160006101000a81548173ffffffffffffffffffffffffffffffffffffffff021916908373ffffffffffffffffffffffffffffffffffffffff16021790555060408201518160020155606082015181600301908161074191906112d9565b50608082015181600401908161075791906112d9565b5060a08201518160050160006101000a81548173ffffffffffffffffffffffffffffffffffffffff021916908373ffffffffffffffffffffffffffffffffffffffff1602179055505050505b5050505050565b6040518060400160405280600015158152602001606081525090565b6040518060c0016040528060608152602001600073ffffffffffffffffffffffffffffffffffffffff168152602001600081526020016060815260200160608152602001600073ffffffffffffffffffffffffffffffffffffffff1681525090565b6000604051905090565b600080fd5b600080fd5b600080fd5b6000601f19601f8301169050919050565b7f4e487b7100000000000000000000000000000000000000000000000000000000600052604160045260246000fd5b61088a82610841565b810181811067ffffffffffffffff821117156108a9576108a8610852565b5b80604052505050565b60006108bc610828565b90506108c88282610881565b919050565b600067ffffffffffffffff8211156108e8576108e7610852565b5b602082029050602081019050919050565b600080fd5b600080fd5b600067ffffffffffffffff82111561091e5761091d610852565b5b61092782610841565b9050602081019050919050565b82818337600083830152505050565b600061095661095184610903565b6108b2565b905082815260208101848484011115610972576109716108fe565b5b61097d848285610934565b509392505050565b600082601f83011261099a5761099961083c565b5b81356109aa848260208601610943565b91505092915050565b60006109c66109c1846108cd565b6108b2565b905080838252602082019050602084028301858111156109e9576109e86108f9565b5b835b81811015610a3057803567ffffffffffffffff811115610a0e57610a0d61083c565b5b808601610a1b8982610985565b855260208501945050506020810190506109eb565b5050509392505050565b600082601f830112610a4f57610a4e61083c565b5b8135610a5f8482602086016109b3565b91505092915050565b600060208284031215610a7e57610a7d610832565b5b600082013567ffffffffffffffff811115610a9c57610a9b610837565b5b610aa884828501610a3a565b91505092915050565b60008115159050919050565b610ac681610ab1565b82525050565b600081519050919050565b600082825260208201905092915050565b6000819050602082019050919050565b600081519050919050565b600082825260208201905092915050565b60005b83811015610b32578082015181840152602081019050610b17565b60008484015250505050565b6000610b4982610af8565b610b538185610b03565b9350610b63818560208601610b14565b610b6c81610841565b840191505092915050565b600073ffffffffffffffffffffffffffffffffffffffff82169050919050565b6000610ba282610b77565b9050919050565b610bb281610b97565b82525050565b6000819050919050565b610bcb81610bb8565b82525050565b600060c0830160008301518482036000860152610bee8282610b3e565b9150506020830151610c036020860182610ba9565b506040830151610c166040860182610bc2565b5060608301518482036060860152610c2e8282610b3e565b91505060808301518482036080860152610c488282610b3e565b91505060a0830151610c5d60a0860182610ba9565b508091505092915050565b6000610c748383610bd1565b905092915050565b6000602082019050919050565b6000610c9482610acc565b610c9e8185610ad7565b935083602082028501610cb085610ae8565b8060005b85811015610cec5784840389528151610ccd8582610c68565b9450610cd883610c7c565b925060208a01995050600181019050610cb4565b50829750879550505050505092915050565b6000604083016000830151610d166000860182610abd565b5060208301518482036020860152610d2e8282610c89565b9150508091505092915050565b60006020820190508181036000830152610d558184610cfe565b905092915050565b610d6681610b97565b8114610d7157600080fd5b50565b600081359050610d8381610d5d565b92915050565b600080600080600060a08688031215610da557610da4610832565b5b6000610db388828901610d74565b955050602086013567ffffffffffffffff811115610dd457610dd3610837565b5b610de088828901610985565b9450506040610df188828901610d74565b935050606086013567ffffffffffffffff811115610e1257610e11610837565b5b610e1e88828901610985565b925050608086013567ffffffffffffffff811115610e3f57610e3e610837565b5b610e4b88828901610985565b9150509295509295909350565b7f4e487b7100000000000000000000000000000000000000000000000000000000600052603260045260246000fd5b610e9081610b97565b82525050565b600082825260208201905092915050565b6000610eb282610af8565b610ebc8185610e96565b9350610ecc818560208601610b14565b610ed581610841565b840191505092915050565b6000604082019050610ef56000830185610e87565b8181036020830152610f078184610ea7565b90509392505050565b610f1981610ab1565b8114610f2457600080fd5b50565b600081519050610f3681610f10565b92915050565b600060208284031215610f5257610f51610832565b5b6000610f6084828501610f27565b91505092915050565b600081905092915050565b6000610f7f82610af8565b610f898185610f69565b9350610f99818560208601610b14565b80840191505092915050565b6000610fb18284610f74565b915081905092915050565b7f4e487b7100000000000000000000000000000000000000000000000000000000600052602260045260246000fd5b6000600282049050600182168061100357607f821691505b60208210810361101657611015610fbc565b5b50919050565b60008190508160005260206000209050919050565b6000815461103e81610feb565b6110488186610f69565b945060018216600081146110635760018114611078576110ab565b60ff19831686528115158202860193506110ab565b6110818561101c565b60005b838110156110a357815481890152600182019150602081019050611084565b838801955050505b50505092915050565b60006110c08284611031565b915081905092915050565b7f4e487b7100000000000000000000000000000000000000000000000000000000600052601160045260246000fd5b600061110582610bb8565b91507fffffffffffffffffffffffffffffffffffffffffffffffffffffffffffffffff8203611137576111366110cb565b5b600182019050919050565b60006020601f8301049050919050565b600082821b905092915050565b60006008830261118f7fffffffffffffffffffffffffffffffffffffffffffffffffffffffffffffffff82611152565b6111998683611152565b95508019841693508086168417925050509392505050565b6000819050919050565b60006111d66111d16111cc84610bb8565b6111b1565b610bb8565b9050919050565b6000819050919050565b6111f0836111bb565b6112046111fc826111dd565b84845461115f565b825550505050565b600090565b61121961120c565b6112248184846111e7565b505050565b5b818110156112485761123d600082611211565b60018101905061122a565b5050565b601f82111561128d5761125e8161101c565b61126784611142565b81016020851015611276578190505b61128a61128285611142565b830182611229565b50505b505050565b600082821c905092915050565b60006112b060001984600802611292565b1980831691505092915050565b60006112c9838361129f565b9150826002028217905092915050565b6112e282610af8565b67ffffffffffffffff8111156112fb576112fa610852565b5b6113058254610feb565b61131082828561124c565b600060209050601f8311600181146113435760008415611331578287015190505b61133b85826112bd565b8655506113a3565b601f1984166113518661101c565b60005b8281101561137957848901518255600182019150602085019450602081019050611354565b868310156113965784890151611392601f89168261129f565b8355505b6001600288020188555050505b50505050505056fea264697066735822122032a14d96a164f3eec08653e1934889033de4a3a1b64e48778c2d889f9c52471f64736f6c63430008130033",
  "linkReferences": {},
  "deployedLinkReferences": {}
}