{
  "_format": "hh-sol-artifact-1",
  "contractName": "AccessControl",
  "sourceName": "contracts/AccessControl.sol",
  "abi": [
    {
      "inputs": [
        {
          "internalType": "address",
          "name": "helperContract",
          "type": "address"
        }
      ],
      "stateMutability": "nonpayable",
      "type": "constructor"
    },
    {
      "anonymous": false,
      "inputs": [
        {
          "indexed": true,
          "internalType": "address",
          "name": "userAccount",
          "type": "address"
        },
        {
          "indexed": false,
          "internalType": "string",
          "name": "fileIpfsCID",
          "type": "string"
        },
        {
          "indexed": false,
          "internalType": "string",
          "name": "permissionsOwner",
          "type": "string"
        },
        {
          "indexed": false,
          "internalType": "string",
          "name": "action",
          "type": "string"
        }
      ],
      "name": "FileActionLog",
      "type": "event"
    },
    {
      "inputs": [
        {
          "internalType": "address",
          "name": "userAccount",
          "type": "address"
        },
        {
          "internalType": "string",
          "name": "fileIpfsCid",
          "type": "string"
        }
      ],
      "name": "deactivateFile",
      "outputs": [],
      "stateMutability": "nonpayable",
      "type": "function"
    },
    {
      "inputs": [
        {
          "internalType": "string",
          "name": "fileIpfsCid",
          "type": "string"
        },
        {
          "internalType": "address",
          "name": "userAccount",
          "type": "address"
        }
      ],
      "name": "downloadFileAudit",
      "outputs": [],
      "stateMutability": "nonpayable",
      "type": "function"
    },
    {
      "inputs": [
        {
          "components": [
            {
              "internalType": "string",
              "name": "ipfsCID",
              "type": "string"
            },
            {
              "internalType": "string",
              "name": "fileName",
              "type": "string"
            },
            {
              "internalType": "int256",
              "name": "version",
              "type": "int256"
            },
            {
              "internalType": "string",
              "name": "prevIpfsCID",
              "type": "string"
            },
            {
              "internalType": "address",
              "name": "owner",
              "type": "address"
            },
            {
              "internalType": "string",
              "name": "fileType",
              "type": "string"
            },
            {
              "internalType": "string",
              "name": "iv",
              "type": "string"
            },
            {
              "internalType": "string",
              "name": "state",
              "type": "string"
            },
            {
              "internalType": "string",
              "name": "fileHash",
              "type": "string"
            }
          ],
          "internalType": "struct FileRegister.File",
          "name": "selectedFile",
          "type": "tuple"
        },
        {
          "components": [
            {
              "internalType": "string",
              "name": "ipfsCID",
              "type": "string"
            },
            {
              "internalType": "string",
              "name": "fileName",
              "type": "string"
            },
            {
              "internalType": "int256",
              "name": "version",
              "type": "int256"
            },
            {
              "internalType": "string",
              "name": "prevIpfsCID",
              "type": "string"
            },
            {
              "internalType": "address",
              "name": "owner",
              "type": "address"
            },
            {
              "internalType": "string",
              "name": "fileType",
              "type": "string"
            },
            {
              "internalType": "string",
              "name": "iv",
              "type": "string"
            },
            {
              "internalType": "string",
              "name": "state",
              "type": "string"
            },
            {
              "internalType": "string",
              "name": "fileHash",
              "type": "string"
            }
          ],
          "internalType": "struct FileRegister.File",
          "name": "newFile",
          "type": "tuple"
        },
        {
          "internalType": "address[]",
          "name": "usersWithDownlodPermSelectFile",
          "type": "address[]"
        },
        {
          "internalType": "string[]",
          "name": "pubKeyUsersWithDownloadPermSelectFile",
          "type": "string[]"
        }
      ],
      "name": "editFile",
      "outputs": [],
      "stateMutability": "nonpayable",
      "type": "function"
    },
    {
      "inputs": [],
      "name": "getAuditLogControlAddress",
      "outputs": [
        {
          "internalType": "address",
          "name": "",
          "type": "address"
        }
      ],
      "stateMutability": "view",
      "type": "function"
    },
    {
      "inputs": [
        {
          "internalType": "address",
          "name": "accountUser",
          "type": "address"
        },
        {
          "internalType": "string",
          "name": "fileIpfsCID",
          "type": "string"
        }
      ],
      "name": "getEncSymmetricKeyFileUser",
      "outputs": [
        {
          "components": [
            {
              "internalType": "bool",
              "name": "success",
              "type": "bool"
            },
            {
              "internalType": "string",
              "name": "resultString",
              "type": "string"
            },
            {
              "internalType": "string",
              "name": "message",
              "type": "string"
            }
          ],
          "internalType": "struct Helper.ResultString",
          "name": "",
          "type": "tuple"
        }
      ],
      "stateMutability": "view",
      "type": "function"
    },
    {
      "inputs": [],
      "name": "getFileRegisterAddress",
      "outputs": [
        {
          "internalType": "address",
          "name": "",
          "type": "address"
        }
      ],
      "stateMutability": "view",
      "type": "function"
    },
    {
      "inputs": [
        {
          "internalType": "address",
          "name": "userAccount",
          "type": "address"
        },
        {
          "internalType": "string",
          "name": "fileIpfsCID",
          "type": "string"
        }
      ],
      "name": "getPermissionsOverFile",
      "outputs": [
        {
          "components": [
            {
              "internalType": "bool",
              "name": "success",
              "type": "bool"
            },
            {
              "internalType": "string[]",
              "name": "resultStrings",
              "type": "string[]"
            },
            {
              "internalType": "string",
              "name": "message",
              "type": "string"
            }
          ],
          "internalType": "struct Helper.ResultStringArray",
          "name": "",
          "type": "tuple"
        }
      ],
      "stateMutability": "view",
      "type": "function"
    },
    {
      "inputs": [
        {
          "internalType": "address",
          "name": "account",
          "type": "address"
        },
        {
          "internalType": "string",
          "name": "state",
          "type": "string"
        }
      ],
      "name": "getUserFiles",
      "outputs": [
        {
          "components": [
            {
              "internalType": "bool",
              "name": "success",
              "type": "bool"
            },
            {
              "components": [
                {
                  "internalType": "string",
                  "name": "ipfsCID",
                  "type": "string"
                },
                {
                  "internalType": "string",
                  "name": "fileName",
                  "type": "string"
                },
                {
                  "internalType": "int256",
                  "name": "version",
                  "type": "int256"
                },
                {
                  "internalType": "string",
                  "name": "prevIpfsCID",
                  "type": "string"
                },
                {
                  "internalType": "address",
                  "name": "owner",
                  "type": "address"
                },
                {
                  "internalType": "string",
                  "name": "fileType",
                  "type": "string"
                },
                {
                  "internalType": "string",
                  "name": "iv",
                  "type": "string"
                },
                {
                  "internalType": "string",
                  "name": "state",
                  "type": "string"
                },
                {
                  "internalType": "string",
                  "name": "fileHash",
                  "type": "string"
                }
              ],
              "internalType": "struct FileRegister.File[]",
              "name": "files",
              "type": "tuple[]"
            },
            {
              "internalType": "string",
              "name": "message",
              "type": "string"
            }
          ],
          "internalType": "struct FileRegister.ResultFiles",
          "name": "",
          "type": "tuple"
        }
      ],
      "stateMutability": "view",
      "type": "function"
    },
    {
      "inputs": [],
      "name": "getUserRegisterAddress",
      "outputs": [
        {
          "internalType": "address",
          "name": "",
          "type": "address"
        }
      ],
      "stateMutability": "view",
      "type": "function"
    },
    {
      "inputs": [
        {
          "components": [
            {
              "internalType": "string",
              "name": "ipfsCID",
              "type": "string"
            },
            {
              "internalType": "string",
              "name": "fileName",
              "type": "string"
            },
            {
              "internalType": "int256",
              "name": "version",
              "type": "int256"
            },
            {
              "internalType": "string",
              "name": "prevIpfsCID",
              "type": "string"
            },
            {
              "internalType": "address",
              "name": "owner",
              "type": "address"
            },
            {
              "internalType": "string",
              "name": "fileType",
              "type": "string"
            },
            {
              "internalType": "string",
              "name": "iv",
              "type": "string"
            },
            {
              "internalType": "string",
              "name": "state",
              "type": "string"
            },
            {
              "internalType": "string",
              "name": "fileHash",
              "type": "string"
            }
          ],
          "internalType": "struct FileRegister.File",
          "name": "file",
          "type": "tuple"
        }
      ],
      "name": "getUsersWithDownloadPermissionsFile",
      "outputs": [
        {
          "components": [
            {
              "internalType": "bool",
              "name": "success",
              "type": "bool"
            },
            {
              "internalType": "address[]",
              "name": "resultAddresses",
              "type": "address[]"
            },
            {
              "internalType": "string",
              "name": "message",
              "type": "string"
            }
          ],
          "internalType": "struct Helper.ResultAddressArray",
          "name": "",
          "type": "tuple"
        }
      ],
      "stateMutability": "view",
      "type": "function"
    },
    {
      "inputs": [
        {
          "internalType": "address",
          "name": "userAccount",
          "type": "address"
        },
        {
          "internalType": "string",
          "name": "fileIpfsCID",
          "type": "string"
        }
      ],
      "name": "removeUserFileAssociation",
      "outputs": [],
      "stateMutability": "nonpayable",
      "type": "function"
    },
    {
      "inputs": [
        {
          "internalType": "address",
          "name": "userAccount",
          "type": "address"
        },
        {
          "internalType": "string",
          "name": "fileIpfsCID",
          "type": "string"
        },
        {
          "internalType": "string",
          "name": "encSymmetricKey",
          "type": "string"
        },
        {
          "internalType": "string[]",
          "name": "permissions",
          "type": "string[]"
        }
      ],
      "name": "shareFile",
      "outputs": [],
      "stateMutability": "nonpayable",
      "type": "function"
    },
    {
      "inputs": [
        {
          "internalType": "address",
          "name": "userAccount",
          "type": "address"
        },
        {
          "internalType": "string",
          "name": "fileIpfsCID",
          "type": "string"
        },
        {
          "internalType": "string[]",
          "name": "permissions",
          "type": "string[]"
        }
      ],
      "name": "updateUserFilePermissions",
      "outputs": [],
      "stateMutability": "nonpayable",
      "type": "function"
    },
    {
      "inputs": [
        {
          "internalType": "address",
          "name": "userAccount",
          "type": "address"
        },
        {
          "components": [
            {
              "internalType": "string",
              "name": "ipfsCID",
              "type": "string"
            },
            {
              "internalType": "string",
              "name": "fileName",
              "type": "string"
            },
            {
              "internalType": "int256",
              "name": "version",
              "type": "int256"
            },
            {
              "internalType": "string",
              "name": "prevIpfsCID",
              "type": "string"
            },
            {
              "internalType": "address",
              "name": "owner",
              "type": "address"
            },
            {
              "internalType": "string",
              "name": "fileType",
              "type": "string"
            },
            {
              "internalType": "string",
              "name": "iv",
              "type": "string"
            },
            {
              "internalType": "string",
              "name": "state",
              "type": "string"
            },
            {
              "internalType": "string",
              "name": "fileHash",
              "type": "string"
            }
          ],
          "internalType": "struct FileRegister.File",
          "name": "file",
          "type": "tuple"
        },
        {
          "internalType": "string",
          "name": "encSymmetricKey",
          "type": "string"
        }
      ],
      "name": "uploadFile",
      "outputs": [],
      "stateMutability": "nonpayable",
      "type": "function"
    },
    {
      "inputs": [
        {
          "internalType": "address",
          "name": "userAccount",
          "type": "address"
        },
        {
          "internalType": "string",
          "name": "fileIpfsCID",
          "type": "string"
        }
      ],
      "name": "userAssociatedWithFile",
      "outputs": [
        {
          "internalType": "bool",
          "name": "",
          "type": "bool"
        }
      ],
      "stateMutability": "view",
      "type": "function"
    },
    {
      "inputs": [
        {
          "internalType": "address",
          "name": "userAccount",
          "type": "address"
        },
        {
          "internalType": "string",
          "name": "fileName",
          "type": "string"
        }
      ],
      "name": "userAssociatedWithFileName",
      "outputs": [
        {
          "internalType": "bool",
          "name": "",
          "type": "bool"
        }
      ],
      "stateMutability": "view",
      "type": "function"
    },
    {
      "inputs": [
        {
          "internalType": "address",
          "name": "userAccount",
          "type": "address"
        },
        {
          "internalType": "string",
          "name": "fileHash",
          "type": "string"
        }
      ],
      "name": "verifyValidFile",
      "outputs": [
        {
          "internalType": "bool",
          "name": "",
          "type": "bool"
        }
      ],
      "stateMutability": "view",
      "type": "function"
    }
  ],
  "bytecode": "0x60806040523480156200001157600080fd5b506040516200e2073803806200e20783398181016040528101906200003791906200028c565b80600460006101000a81548173ffffffffffffffffffffffffffffffffffffffff021916908373ffffffffffffffffffffffffffffffffffffffff160217905550806040516200008790620001f8565b620000939190620002cf565b604051809103906000f080158015620000b0573d6000803e3d6000fd5b50600160006101000a81548173ffffffffffffffffffffffffffffffffffffffff021916908373ffffffffffffffffffffffffffffffffffffffff16021790555080604051620001009062000206565b6200010c9190620002cf565b604051809103906000f08015801562000129573d6000803e3d6000fd5b50600260006101000a81548173ffffffffffffffffffffffffffffffffffffffff021916908373ffffffffffffffffffffffffffffffffffffffff160217905550604051620001789062000214565b604051809103906000f08015801562000195573d6000803e3d6000fd5b50600360006101000a81548173ffffffffffffffffffffffffffffffffffffffff021916908373ffffffffffffffffffffffffffffffffffffffff1602179055506000600460146101000a81548160ff02191690831515021790555050620002ec565b61399e80620074b283390190565b611e6c806200ae5083390190565b61154b806200ccbc83390190565b600080fd5b600073ffffffffffffffffffffffffffffffffffffffff82169050919050565b6000620002548262000227565b9050919050565b620002668162000247565b81146200027257600080fd5b50565b60008151905062000286816200025b565b92915050565b600060208284031215620002a557620002a462000222565b5b6000620002b58482850162000275565b91505092915050565b620002c98162000247565b82525050565b6000602082019050620002e66000830184620002be565b92915050565b6171b680620002fc6000396000f3fe608060405234801561001057600080fd5b506004361061010a5760003560e01c8063874a22ed116100a2578063c19dcf8911610071578063c19dcf89146102c9578063c61e6663146102f9578063db54cc8c14610315578063e4ab8e3214610331578063fe17fccc146103615761010a565b8063874a22ed146102415780638af34fbc1461025f578063a126d94c1461027b578063b714fb20146102ab5761010a565b80631ac47dd0116100de5780631ac47dd0146101bb5780634e2fc7d2146101eb5780635dab19e41461020757806367cc916b146102255761010a565b8062c5e6141461010f578063097637271461012b578063173cd5581461015b57806317b5be0f1461018b575b600080fd5b61012960048036038101906101249190614ba6565b61037d565b005b61014560048036038101906101409190614c61565b61076a565b6040516101529190614f87565b60405180910390f35b61017560048036038101906101709190614c61565b610c7a565b60405161018291906150c2565b60405180910390f35b6101a560048036038101906101a09190614c61565b611073565b6040516101b291906150f3565b60405180910390f35b6101d560048036038101906101d09190614c61565b611373565b6040516101e291906150f3565b60405180910390f35b610205600480360381019061020091906153ab565b611525565b005b61020f611a29565b60405161021c9190615491565b60405180910390f35b61023f600480360381019061023a91906154ac565b611a53565b005b610249611c5d565b6040516102569190615491565b60405180910390f35b61027960048036038101906102749190615508565b611c87565b005b61029560048036038101906102909190614c61565b611fec565b6040516102a291906155ea565b60405180910390f35b6102b361248e565b6040516102c09190615491565b60405180910390f35b6102e360048036038101906102de9190614c61565b6124b8565b6040516102f091906150f3565b60405180910390f35b610313600480360381019061030e9190614c61565b6126cc565b005b61032f600480360381019061032a9190614c61565b61292c565b005b61034b6004803603810190610346919061560c565b612c32565b604051610358919061575b565b60405180910390f35b61037b6004803603810190610376919061577d565b6130b8565b005b61038784846135f7565b801561047f575060405160200161039d9061585f565b60405160208183030381529060405280519060200120600160009054906101000a900473ffffffffffffffffffffffffffffffffffffffff1673ffffffffffffffffffffffffffffffffffffffff1662438ceb856040518263ffffffff1660e01b815260040161040d91906158be565b600060405180830381865afa15801561042a573d6000803e3d6000fd5b505050506040513d6000823e3d601f19601f820116820180604052508101906104539190615a18565b602001516040516020016104679190615a92565b60405160208183030381529060405280519060200120145b15610764576000600460009054906101000a900473ffffffffffffffffffffffffffffffffffffffff1673ffffffffffffffffffffffffffffffffffffffff16631c209e7c868686866040518563ffffffff1660e01b81526004016104e79493929190615b55565b602060405180830381865afa158015610504573d6000803e3d6000fd5b505050506040513d601f19601f820116820180604052508101906105289190615bc2565b9050801561076257600060405180608001604052808773ffffffffffffffffffffffffffffffffffffffff168152602001868152602001858152602001848152509050600081908060018154018082558091505060019003906000526020600020906004020160009091909190915060008201518160000160006101000a81548173ffffffffffffffffffffffffffffffffffffffff021916908373ffffffffffffffffffffffffffffffffffffffff16021790555060208201518160010190816105f39190615e05565b5060408201518160020190816106099190615e05565b5060608201518160030190805190602001906106269291906146c2565b505050600360009054906101000a900473ffffffffffffffffffffffffffffffffffffffff1673ffffffffffffffffffffffffffffffffffffffff1663c47ebddc338789600460009054906101000a900473ffffffffffffffffffffffffffffffffffffffff1673ffffffffffffffffffffffffffffffffffffffff16636bb8d768896040518263ffffffff1660e01b81526004016106c59190615ed7565b600060405180830381865afa1580156106e2573d6000803e3d6000fd5b505050506040513d6000823e3d601f19601f8201168201806040525081019061070b9190615a18565b602001516040518563ffffffff1660e01b815260040161072e9493929190615f45565b600060405180830381600087803b15801561074857600080fd5b505af115801561075c573d6000803e3d6000fd5b50505050505b505b50505050565b61077261471b565b8273ffffffffffffffffffffffffffffffffffffffff163373ffffffffffffffffffffffffffffffffffffffff1603610be7576000808054905067ffffffffffffffff8111156107c5576107c4614995565b5b6040519080825280602002602001820160405280156107fe57816020015b6107eb61473e565b8152602001906001900390816107e35790505b5090506000805b600080549050811015610ba2578573ffffffffffffffffffffffffffffffffffffffff166000828154811061083d5761083c615fab565b5b906000526020600020906004020160000160009054906101000a900473ffffffffffffffffffffffffffffffffffffffff1673ffffffffffffffffffffffffffffffffffffffff161480156109f85750600160009054906101000a900473ffffffffffffffffffffffffffffffffffffffff1673ffffffffffffffffffffffffffffffffffffffff1662438ceb600083815481106108de576108dd615fab565b5b90600052602060002090600402016001016040518263ffffffff1660e01b815260040161090b919061605e565b600060405180830381865afa158015610928573d6000803e3d6000fd5b505050506040513d6000823e3d601f19601f820116820180604052508101906109519190615a18565b602001516040516020016109659190615a92565b604051602081830303815290604052805190602001208560405160200161098c9190615a92565b6040516020818303038152906040528051906020012014806109f757506040516020016109b8906160a3565b60405160208183030381529060405280519060200120856040516020016109df9190615a92565b60405160208183030381529060405280519060200120145b5b15610b8f576000808281548110610a1257610a11615fab565b5b90600052602060002090600402016001018054610a2e90615c1e565b80601f0160208091040260200160405190810160405280929190818152602001828054610a5a90615c1e565b8015610aa75780601f10610a7c57610100808354040283529160200191610aa7565b820191906000526020600020905b815481529060010190602001808311610a8a57829003601f168201915b505050505090506000600160009054906101000a900473ffffffffffffffffffffffffffffffffffffffff1673ffffffffffffffffffffffffffffffffffffffff166347eb6fa783896040518363ffffffff1660e01b8152600401610b0d9291906160b8565b600060405180830381865afa158015610b2a573d6000803e3d6000fd5b505050506040513d6000823e3d601f19601f82011682018060405250810190610b539190616359565b905060008160200151905080868681518110610b7257610b71615fab565b5b60200260200101819052508480610b88906163d1565b9550505050505b8080610b9a906163d1565b915050610805565b5080825260008114610be45760405180606001604052806001151581526020018381526020016040518060200160405280600081525081525092505050610c74565b50505b6040518060600160405280600015158152602001600067ffffffffffffffff811115610c1657610c15614995565b5b604051908082528060200260200182016040528015610c4f57816020015b610c3c61473e565b815260200190600190039081610c345790505b5081526020016040518060800160405280604e81526020016170cb604e913981525090505b92915050565b610c826147a0565b610c8b82613984565b8015610d835750604051602001610ca19061585f565b60405160208183030381529060405280519060200120600160009054906101000a900473ffffffffffffffffffffffffffffffffffffffff1673ffffffffffffffffffffffffffffffffffffffff1662438ceb846040518263ffffffff1660e01b8152600401610d1191906158be565b600060405180830381865afa158015610d2e573d6000803e3d6000fd5b505050506040513d6000823e3d601f19601f82011682018060405250810190610d579190615a18565b60200151604051602001610d6b9190615a92565b60405160208183030381529060405280519060200120145b15610fe65760005b600080549050811015610fe457600460009054906101000a900473ffffffffffffffffffffffffffffffffffffffff1673ffffffffffffffffffffffffffffffffffffffff16635c99c71b8560008481548110610deb57610dea615fab565b5b906000526020600020906004020160000160009054906101000a900473ffffffffffffffffffffffffffffffffffffffff168660008681548110610e3257610e31615fab565b5b90600052602060002090600402016001016040518563ffffffff1660e01b8152600401610e629493929190616419565b602060405180830381865afa158015610e7f573d6000803e3d6000fd5b505050506040513d601f19601f82011682018060405250810190610ea39190615bc2565b15610fd157604051806060016040528060011515815260200160008381548110610ed057610ecf615fab565b5b9060005260206000209060040201600301805480602002602001604051908101604052809291908181526020016000905b82821015610fad578382906000526020600020018054610f2090615c1e565b80601f0160208091040260200160405190810160405280929190818152602001828054610f4c90615c1e565b8015610f995780601f10610f6e57610100808354040283529160200191610f99565b820191906000526020600020905b815481529060010190602001808311610f7c57829003601f168201915b505050505081526020019060010190610f01565b5050505081526020016040518060200160405280600081525081525091505061106d565b8080610fdc906163d1565b915050610d8b565b505b6040518060600160405280600015158152602001600067ffffffffffffffff81111561101557611014614995565b5b60405190808252806020026020018201604052801561104857816020015b60608152602001906001900390816110335790505b5081526020016040518060a00160405280606881526020016171196068913981525090505b92915050565b600080600090505b600080549050811015611367576000600160009054906101000a900473ffffffffffffffffffffffffffffffffffffffff1673ffffffffffffffffffffffffffffffffffffffff1663f880680b600084815481106110dc576110db615fab565b5b90600052602060002090600402016001016040518263ffffffff1660e01b8152600401611109919061605e565b600060405180830381865afa158015611126573d6000803e3d6000fd5b505050506040513d6000823e3d601f19601f8201168201806040525081019061114f9190615a18565b6020015190506000600160009054906101000a900473ffffffffffffffffffffffffffffffffffffffff1673ffffffffffffffffffffffffffffffffffffffff1662438ceb600085815481106111a8576111a7615fab565b5b90600052602060002090600402016001016040518263ffffffff1660e01b81526004016111d5919061605e565b600060405180830381865afa1580156111f2573d6000803e3d6000fd5b505050506040513d6000823e3d601f19601f8201168201806040525081019061121b9190615a18565b6020015190508573ffffffffffffffffffffffffffffffffffffffff166000848154811061124c5761124b615fab565b5b906000526020600020906004020160000160009054906101000a900473ffffffffffffffffffffffffffffffffffffffff1673ffffffffffffffffffffffffffffffffffffffff161480156112ec5750846040516020016112ad9190615a92565b60405160208183030381529060405280519060200120826040516020016112d49190615a92565b60405160208183030381529060405280519060200120145b801561134157506040516020016113029061585f565b60405160208183030381529060405280519060200120816040516020016113299190615a92565b60405160208183030381529060405280519060200120145b15611352576001935050505061136d565b5050808061135f906163d1565b91505061107b565b50600090505b92915050565b600061137e82613984565b806113d65750600360009054906101000a900473ffffffffffffffffffffffffffffffffffffffff1673ffffffffffffffffffffffffffffffffffffffff163373ffffffffffffffffffffffffffffffffffffffff16145b1561151a5760005b60008054905081101561151857600460009054906101000a900473ffffffffffffffffffffffffffffffffffffffff1673ffffffffffffffffffffffffffffffffffffffff16635c99c71b856000848154811061143e5761143d615fab565b5b906000526020600020906004020160000160009054906101000a900473ffffffffffffffffffffffffffffffffffffffff16866000868154811061148557611484615fab565b5b90600052602060002090600402016001016040518563ffffffff1660e01b81526004016114b59493929190616419565b602060405180830381865afa1580156114d2573d6000803e3d6000fd5b505050506040513d601f19601f820116820180604052508101906114f69190615bc2565b1561150557600191505061151f565b8080611510906163d1565b9150506113de565b505b600090505b92915050565b6115328460000151613cc0565b8015611546575061154584848484613e12565b5b15611a2357600160009054906101000a900473ffffffffffffffffffffffffffffffffffffffff1673ffffffffffffffffffffffffffffffffffffffff166395f0f0bb85856040518363ffffffff1660e01b81526004016115a892919061655b565b600060405180830381600087803b1580156115c257600080fd5b505af11580156115d6573d6000803e3d6000fd5b5050505060005b60008054905081101561198c5784600001516040516020016115ff9190615a92565b604051602081830303815290604052805190602001206000828154811061162957611628615fab565b5b906000526020600020906004020160010160405160200161164a9190616615565b6040516020818303038152906040528051906020012003611979576000805b845181101561171f576000838154811061168657611685615fab565b5b906000526020600020906004020160000160009054906101000a900473ffffffffffffffffffffffffffffffffffffffff1673ffffffffffffffffffffffffffffffffffffffff168582815181106116e1576116e0615fab565b5b602002602001015173ffffffffffffffffffffffffffffffffffffffff160361170c5780915061171f565b8080611717906163d1565b915050611669565b50600083828151811061173557611734615fab565b5b6020026020010151905060006040518060800160405280600086815481106117605761175f615fab565b5b906000526020600020906004020160000160009054906101000a900473ffffffffffffffffffffffffffffffffffffffff1673ffffffffffffffffffffffffffffffffffffffff16815260200188600001518152602001838152602001600086815481106117d1576117d0615fab565b5b9060005260206000209060040201600301805480602002602001604051908101604052809291908181526020016000905b828210156118ae57838290600052602060002001805461182190615c1e565b80601f016020809104026020016040519081016040528092919081815260200182805461184d90615c1e565b801561189a5780601f1061186f5761010080835404028352916020019161189a565b820191906000526020600020905b81548152906001019060200180831161187d57829003601f168201915b505050505081526020019060010190611802565b505050508152509050600081908060018154018082558091505060019003906000526020600020906004020160009091909190915060008201518160000160006101000a81548173ffffffffffffffffffffffffffffffffffffffff021916908373ffffffffffffffffffffffffffffffffffffffff160217905550602082015181600101908161193f9190615e05565b5060408201518160020190816119559190615e05565b5060608201518160030190805190602001906119729291906146c2565b5050505050505b8080611984906163d1565b9150506115dd565b50600360009054906101000a900473ffffffffffffffffffffffffffffffffffffffff1673ffffffffffffffffffffffffffffffffffffffff1663c47ebddc338660000151336040518463ffffffff1660e01b81526004016119f0939291906166c4565b600060405180830381600087803b158015611a0a57600080fd5b505af1158015611a1e573d6000803e3d6000fd5b505050505b50505050565b6000600160009054906101000a900473ffffffffffffffffffffffffffffffffffffffff16905090565b8073ffffffffffffffffffffffffffffffffffffffff163373ffffffffffffffffffffffffffffffffffffffff16148015611aca5750611ac981836040518060400160405280600881526020017f646f776e6c6f61640000000000000000000000000000000000000000000000008152506141e1565b5b8015611bc25750604051602001611ae09061585f565b60405160208183030381529060405280519060200120600160009054906101000a900473ffffffffffffffffffffffffffffffffffffffff1673ffffffffffffffffffffffffffffffffffffffff1662438ceb846040518263ffffffff1660e01b8152600401611b5091906158be565b600060405180830381865afa158015611b6d573d6000803e3d6000fd5b505050506040513d6000823e3d601f19601f82011682018060405250810190611b969190615a18565b60200151604051602001611baa9190615a92565b60405160208183030381529060405280519060200120145b15611c5957600360009054906101000a900473ffffffffffffffffffffffffffffffffffffffff1673ffffffffffffffffffffffffffffffffffffffff1663c47ebddc3384846040518463ffffffff1660e01b8152600401611c2693929190616774565b600060405180830381600087803b158015611c4057600080fd5b505af1158015611c54573d6000803e3d6000fd5b505050505b5050565b6000600260009054906101000a900473ffffffffffffffffffffffffffffffffffffffff16905090565b611c91838361438f565b8015611d355750600460009054906101000a900473ffffffffffffffffffffffffffffffffffffffff1673ffffffffffffffffffffffffffffffffffffffff1663bda49b1d826040518263ffffffff1660e01b8152600401611cf39190615ed7565b602060405180830381865afa158015611d10573d6000803e3d6000fd5b505050506040513d601f19601f82011682018060405250810190611d349190615bc2565b5b15611fe65760005b600080549050811015611fe457600460009054906101000a900473ffffffffffffffffffffffffffffffffffffffff1673ffffffffffffffffffffffffffffffffffffffff16635c99c71b8560008481548110611d9d57611d9c615fab565b5b906000526020600020906004020160000160009054906101000a900473ffffffffffffffffffffffffffffffffffffffff168660008681548110611de457611de3615fab565b5b90600052602060002090600402016001016040518563ffffffff1660e01b8152600401611e149493929190616419565b602060405180830381865afa158015611e31573d6000803e3d6000fd5b505050506040513d601f19601f82011682018060405250810190611e559190615bc2565b15611fd1578160008281548110611e6f57611e6e615fab565b5b90600052602060002090600402016003019080519060200190611e939291906146c2565b50600360009054906101000a900473ffffffffffffffffffffffffffffffffffffffff1673ffffffffffffffffffffffffffffffffffffffff1663c47ebddc338587600460009054906101000a900473ffffffffffffffffffffffffffffffffffffffff1673ffffffffffffffffffffffffffffffffffffffff16636bb8d768886040518263ffffffff1660e01b8152600401611f309190615ed7565b600060405180830381865afa158015611f4d573d6000803e3d6000fd5b505050506040513d6000823e3d601f19601f82011682018060405250810190611f769190615a18565b602001516040518563ffffffff1660e01b8152600401611f999493929190616824565b600060405180830381600087803b158015611fb357600080fd5b505af1158015611fc7573d6000803e3d6000fd5b5050505050611fe7565b8080611fdc906163d1565b915050611d3d565b505b5b505050565b611ff46147c3565b8273ffffffffffffffffffffffffffffffffffffffff163373ffffffffffffffffffffffffffffffffffffffff1614801561203557506120348383611373565b5b8015612224575060405160200161204b9061585f565b60405160208183030381529060405280519060200120600160009054906101000a900473ffffffffffffffffffffffffffffffffffffffff1673ffffffffffffffffffffffffffffffffffffffff1662438ceb846040518263ffffffff1660e01b81526004016120bb91906158be565b600060405180830381865afa1580156120d8573d6000803e3d6000fd5b505050506040513d6000823e3d601f19601f820116820180604052508101906121019190615a18565b602001516040516020016121159190615a92565b6040516020818303038152906040528051906020012014806122235750604051602001612141906168d6565b60405160208183030381529060405280519060200120600160009054906101000a900473ffffffffffffffffffffffffffffffffffffffff1673ffffffffffffffffffffffffffffffffffffffff1662438ceb846040518263ffffffff1660e01b81526004016121b191906158be565b600060405180830381865afa1580156121ce573d6000803e3d6000fd5b505050506040513d6000823e3d601f19601f820116820180604052508101906121f79190615a18565b6020015160405160200161220b9190615a92565b60405160208183030381529060405280519060200120145b5b156124405760005b60008054905081101561243e57600460009054906101000a900473ffffffffffffffffffffffffffffffffffffffff1673ffffffffffffffffffffffffffffffffffffffff16635c99c71b856000848154811061228c5761228b615fab565b5b906000526020600020906004020160000160009054906101000a900473ffffffffffffffffffffffffffffffffffffffff1686600086815481106122d3576122d2615fab565b5b90600052602060002090600402016001016040518563ffffffff1660e01b81526004016123039493929190616419565b602060405180830381865afa158015612320573d6000803e3d6000fd5b505050506040513d601f19601f820116820180604052508101906123449190615bc2565b1561242b5760405180606001604052806001151581526020016000838154811061237157612370615fab565b5b9060005260206000209060040201600201805461238d90615c1e565b80601f01602080910402602001604051908101604052809291908181526020018280546123b990615c1e565b80156124065780601f106123db57610100808354040283529160200191612406565b820191906000526020600020905b8154815290600101906020018083116123e957829003601f168201915b5050505050815260200160405180602001604052806000815250815250915050612488565b8080612436906163d1565b91505061222c565b505b60405180606001604052806000151581526020016040518060200160405280600081525081526020016040518060e0016040528060a48152602001616fcc60a4913981525090505b92915050565b6000600360009054906101000a900473ffffffffffffffffffffffffffffffffffffffff16905090565b600080600160009054906101000a900473ffffffffffffffffffffffffffffffffffffffff1673ffffffffffffffffffffffffffffffffffffffff1663922243ad846040518263ffffffff1660e01b815260040161251691906158be565b600060405180830381865afa158015612533573d6000803e3d6000fd5b505050506040513d6000823e3d601f19601f8201168201806040525081019061255c9190616a3c565b60200151905060005b6000805490508110156126bf5760005b82518110156126ab578573ffffffffffffffffffffffffffffffffffffffff16600083815481106125a9576125a8615fab565b5b906000526020600020906004020160000160009054906101000a900473ffffffffffffffffffffffffffffffffffffffff1673ffffffffffffffffffffffffffffffffffffffff16148015612687575082818151811061260c5761260b615fab565b5b60200260200101516040516020016126249190615a92565b604051602081830303815290604052805190602001206000838154811061264e5761264d615fab565b5b906000526020600020906004020160010160405160200161266f9190616615565b60405160208183030381529060405280519060200120145b1561269857600193505050506126c6565b80806126a3906163d1565b915050612575565b5080806126b7906163d1565b915050612565565b5060009150505b92915050565b61270c33826040518060400160405280600681526020017f64656c65746500000000000000000000000000000000000000000000000000008152506141e1565b801561280457506040516020016127229061585f565b60405160208183030381529060405280519060200120600160009054906101000a900473ffffffffffffffffffffffffffffffffffffffff1673ffffffffffffffffffffffffffffffffffffffff1662438ceb836040518263ffffffff1660e01b815260040161279291906158be565b600060405180830381865afa1580156127af573d6000803e3d6000fd5b505050506040513d6000823e3d601f19601f820116820180604052508101906127d89190615a18565b602001516040516020016127ec9190615a92565b60405160208183030381529060405280519060200120145b1561292857600160009054906101000a900473ffffffffffffffffffffffffffffffffffffffff1673ffffffffffffffffffffffffffffffffffffffff166374546fdf826040518263ffffffff1660e01b815260040161286491906158be565b600060405180830381600087803b15801561287e57600080fd5b505af1158015612892573d6000803e3d6000fd5b50505050600360009054906101000a900473ffffffffffffffffffffffffffffffffffffffff1673ffffffffffffffffffffffffffffffffffffffff1663c47ebddc3383856040518463ffffffff1660e01b81526004016128f593929190616ad1565b600060405180830381600087803b15801561290f57600080fd5b505af1158015612923573d6000803e3d6000fd5b505050505b5050565b60005b600080549050811015612c2c578273ffffffffffffffffffffffffffffffffffffffff166000828154811061296757612966615fab565b5b906000526020600020906004020160000160009054906101000a900473ffffffffffffffffffffffffffffffffffffffff1673ffffffffffffffffffffffffffffffffffffffff161480156129fb57508180519060200120600082815481106129d3576129d2615fab565b5b90600052602060002090600402016001016040516129f19190616bd8565b6040518091039020145b15612c195760006001600080549050612a149190616bef565b81548110612a2557612a24615fab565b5b906000526020600020906004020160008281548110612a4757612a46615fab565b5b90600052602060002090600402016000820160009054906101000a900473ffffffffffffffffffffffffffffffffffffffff168160000160006101000a81548173ffffffffffffffffffffffffffffffffffffffff021916908373ffffffffffffffffffffffffffffffffffffffff16021790555060018201816001019081612ad09190616c39565b5060028201816002019081612ae59190616c39565b506003820181600301908054612afc9291906147e6565b509050506000805480612b1257612b11616d21565b5b6001900381819060005260206000209060040201600080820160006101000a81549073ffffffffffffffffffffffffffffffffffffffff0219169055600182016000612b5e9190614843565b600282016000612b6e9190614843565b600382016000612b7e9190614883565b50509055600360009054906101000a900473ffffffffffffffffffffffffffffffffffffffff1673ffffffffffffffffffffffffffffffffffffffff1663c47ebddc3384866040518463ffffffff1660e01b8152600401612be193929190616d9c565b600060405180830381600087803b158015612bfb57600080fd5b505af1158015612c0f573d6000803e3d6000fd5b5050505050612c2e565b8080612c24906163d1565b91505061292f565b505b5050565b612c3a6148a4565b612c478260000151613984565b8015612d435750604051602001612c5d9061585f565b60405160208183030381529060405280519060200120600160009054906101000a900473ffffffffffffffffffffffffffffffffffffffff1673ffffffffffffffffffffffffffffffffffffffff1662438ceb84600001516040518263ffffffff1660e01b8152600401612cd191906158be565b600060405180830381865afa158015612cee573d6000803e3d6000fd5b505050506040513d6000823e3d601f19601f82011682018060405250810190612d179190615a18565b60200151604051602001612d2b9190615a92565b60405160208183030381529060405280519060200120145b15613031576000808054905067ffffffffffffffff811115612d6857612d67614995565b5b604051908082528060200260200182016040528015612d965781602001602082028036833780820191505090505b5090506000805b600080549050811015612ff7578460000151604051602001612dbf9190615a92565b6040516020818303038152906040528051906020012060008281548110612de957612de8615fab565b5b9060005260206000209060040201600101604051602001612e0a9190616615565b60405160208183030381529060405280519060200120148015612f3d5750604051602001612e379061585f565b60405160208183030381529060405280519060200120600160009054906101000a900473ffffffffffffffffffffffffffffffffffffffff1673ffffffffffffffffffffffffffffffffffffffff1662438ceb60008481548110612e9e57612e9d615fab565b5b90600052602060002090600402016001016040518263ffffffff1660e01b8152600401612ecb919061605e565b600060405180830381865afa158015612ee8573d6000803e3d6000fd5b505050506040513d6000823e3d601f19601f82011682018060405250810190612f119190615a18565b60200151604051602001612f259190615a92565b60405160208183030381529060405280519060200120145b15612fe45760008181548110612f5657612f55615fab565b5b906000526020600020906004020160000160009054906101000a900473ffffffffffffffffffffffffffffffffffffffff16838381518110612f9b57612f9a615fab565b5b602002602001019073ffffffffffffffffffffffffffffffffffffffff16908173ffffffffffffffffffffffffffffffffffffffff16815250508180612fe0906163d1565b9250505b8080612fef906163d1565b915050612d9d565b50808252604051806060016040528060011515815260200183815260200160405180602001604052806000815250815250925050506130b3565b6040518060600160405280600015158152602001600067ffffffffffffffff8111156130605761305f614995565b5b60405190808252806020026020018201604052801561308e5781602001602082028036833780820191505090505b5081526020016040518060800160405280605b8152602001617070605b913981525090505b919050565b6130c68383600001516145c1565b156135f2576000600467ffffffffffffffff8111156130e8576130e7614995565b5b60405190808252806020026020018201604052801561311b57816020015b60608152602001906001900390816131065790505b5090506040518060400160405280600581526020017f73686172650000000000000000000000000000000000000000000000000000008152508160008151811061316857613167615fab565b5b60200260200101819052506040518060400160405280600881526020017f646f776e6c6f6164000000000000000000000000000000000000000000000000815250816001815181106131bd576131bc615fab565b5b60200260200101819052506040518060400160405280600681526020017f64656c65746500000000000000000000000000000000000000000000000000008152508160028151811061321257613211615fab565b5b60200260200101819052506040518060400160405280600481526020017f65646974000000000000000000000000000000000000000000000000000000008152508160038151811061326757613266615fab565b5b60200260200101819052506000600460009054906101000a900473ffffffffffffffffffffffffffffffffffffffff1673ffffffffffffffffffffffffffffffffffffffff16631c209e7c86866000015186868960e001516040518663ffffffff1660e01b81526004016132df959493929190616e00565b602060405180830381865afa1580156132fc573d6000803e3d6000fd5b505050506040513d601f19601f820116820180604052508101906133209190615bc2565b905080156135ef57600160009054906101000a900473ffffffffffffffffffffffffffffffffffffffff1673ffffffffffffffffffffffffffffffffffffffff1663bfddc42f856040518263ffffffff1660e01b81526004016133839190616e6f565b600060405180830381600087803b15801561339d57600080fd5b505af11580156133b1573d6000803e3d6000fd5b50505050600060405180608001604052808773ffffffffffffffffffffffffffffffffffffffff16815260200186600001518152602001858152602001848152509050600081908060018154018082558091505060019003906000526020600020906004020160009091909190915060008201518160000160006101000a81548173ffffffffffffffffffffffffffffffffffffffff021916908373ffffffffffffffffffffffffffffffffffffffff160217905550602082015181600101908161347c9190615e05565b5060408201518160020190816134929190615e05565b5060608201518160030190805190602001906134af9291906146c2565b505050600360009054906101000a900473ffffffffffffffffffffffffffffffffffffffff1673ffffffffffffffffffffffffffffffffffffffff1663c47ebddc33876000015189600460009054906101000a900473ffffffffffffffffffffffffffffffffffffffff1673ffffffffffffffffffffffffffffffffffffffff16636bb8d768896040518263ffffffff1660e01b81526004016135529190615ed7565b600060405180830381865afa15801561356f573d6000803e3d6000fd5b505050506040513d6000823e3d601f19601f820116820180604052508101906135989190615a18565b602001516040518563ffffffff1660e01b81526004016135bb9493929190616edd565b600060405180830381600087803b1580156135d557600080fd5b505af11580156135e9573d6000803e3d6000fd5b50505050505b50505b505050565b60008273ffffffffffffffffffffffffffffffffffffffff163373ffffffffffffffffffffffffffffffffffffffff16141580156136d05750600160009054906101000a900473ffffffffffffffffffffffffffffffffffffffff1673ffffffffffffffffffffffffffffffffffffffff166352a9baef84846040518363ffffffff1660e01b815260040161368d929190616f43565b602060405180830381865afa1580156136aa573d6000803e3d6000fd5b505050506040513d601f19601f820116820180604052508101906136ce9190615bc2565b155b8015613718575061371733836040518060400160405280600581526020017f73686172650000000000000000000000000000000000000000000000000000008152506141e1565b5b801561372b57506137298383611373565b155b80156137cf5750600160009054906101000a900473ffffffffffffffffffffffffffffffffffffffff1673ffffffffffffffffffffffffffffffffffffffff16639bccd6ad836040518263ffffffff1660e01b815260040161378d91906158be565b602060405180830381865afa1580156137aa573d6000803e3d6000fd5b505050506040513d601f19601f820116820180604052508101906137ce9190615bc2565b5b80156138c757506040516020016137e59061585f565b60405160208183030381529060405280519060200120600160009054906101000a900473ffffffffffffffffffffffffffffffffffffffff1673ffffffffffffffffffffffffffffffffffffffff1662438ceb846040518263ffffffff1660e01b815260040161385591906158be565b600060405180830381865afa158015613872573d6000803e3d6000fd5b505050506040513d6000823e3d601f19601f8201168201806040525081019061389b9190615a18565b602001516040516020016138af9190615a92565b60405160208183030381529060405280519060200120145b801561396b5750600260009054906101000a900473ffffffffffffffffffffffffffffffffffffffff1673ffffffffffffffffffffffffffffffffffffffff1663a240e426846040518263ffffffff1660e01b81526004016139299190615491565b602060405180830381865afa158015613946573d6000803e3d6000fd5b505050506040513d601f19601f8201168201806040525081019061396a9190615bc2565b5b15613979576001905061397e565b600090505b92915050565b600080600090505b600080549050811015613cb557600460009054906101000a900473ffffffffffffffffffffffffffffffffffffffff1673ffffffffffffffffffffffffffffffffffffffff16635c99c71b33600084815481106139ec576139eb615fab565b5b906000526020600020906004020160000160009054906101000a900473ffffffffffffffffffffffffffffffffffffffff168660008681548110613a3357613a32615fab565b5b90600052602060002090600402016001016040518563ffffffff1660e01b8152600401613a639493929190616419565b602060405180830381865afa158015613a80573d6000803e3d6000fd5b505050506040513d601f19601f82011682018060405250810190613aa49190615bc2565b8015613c935750604051602001613aba9061585f565b60405160208183030381529060405280519060200120600160009054906101000a900473ffffffffffffffffffffffffffffffffffffffff1673ffffffffffffffffffffffffffffffffffffffff1662438ceb856040518263ffffffff1660e01b8152600401613b2a91906158be565b600060405180830381865afa158015613b47573d6000803e3d6000fd5b505050506040513d6000823e3d601f19601f82011682018060405250810190613b709190615a18565b60200151604051602001613b849190615a92565b604051602081830303815290604052805190602001201480613c925750604051602001613bb0906168d6565b60405160208183030381529060405280519060200120600160009054906101000a900473ffffffffffffffffffffffffffffffffffffffff1673ffffffffffffffffffffffffffffffffffffffff1662438ceb856040518263ffffffff1660e01b8152600401613c2091906158be565b600060405180830381865afa158015613c3d573d6000803e3d6000fd5b505050506040513d6000823e3d601f19601f82011682018060405250810190613c669190615a18565b60200151604051602001613c7a9190615a92565b60405160208183030381529060405280519060200120145b5b15613ca2576001915050613cbb565b8080613cad906163d1565b91505061398c565b50600090505b919050565b6000613d0233836040518060400160405280600481526020017f65646974000000000000000000000000000000000000000000000000000000008152506141e1565b8015613dfa5750604051602001613d189061585f565b60405160208183030381529060405280519060200120600160009054906101000a900473ffffffffffffffffffffffffffffffffffffffff1673ffffffffffffffffffffffffffffffffffffffff1662438ceb846040518263ffffffff1660e01b8152600401613d8891906158be565b600060405180830381865afa158015613da5573d6000803e3d6000fd5b505050506040513d6000823e3d601f19601f82011682018060405250810190613dce9190615a18565b60200151604051602001613de29190615a92565b60405160208183030381529060405280519060200120145b15613e085760019050613e0d565b600090505b919050565b60008073ffffffffffffffffffffffffffffffffffffffff16600160009054906101000a900473ffffffffffffffffffffffffffffffffffffffff1673ffffffffffffffffffffffffffffffffffffffff166347eb6fa787600001516040518263ffffffff1660e01b8152600401613e8a9190616f96565b600060405180830381865afa158015613ea7573d6000803e3d6000fd5b505050506040513d6000823e3d601f19601f82011682018060405250810190613ed09190616359565b602001516080015173ffffffffffffffffffffffffffffffffffffffff1614158015613fd45750600073ffffffffffffffffffffffffffffffffffffffff16600160009054906101000a900473ffffffffffffffffffffffffffffffffffffffff1673ffffffffffffffffffffffffffffffffffffffff166347eb6fa786600001516040518263ffffffff1660e01b8152600401613f6e9190616f96565b600060405180830381865afa158015613f8b573d6000803e3d6000fd5b505050506040513d6000823e3d601f19601f82011682018060405250810190613fb49190616359565b602001516080015173ffffffffffffffffffffffffffffffffffffffff16145b801561402e5750604051602001613fea906160a3565b6040516020818303038152906040528051906020012084602001516040516020016140159190615a92565b6040516020818303038152906040528051906020012014155b80156140885750604051602001614044906160a3565b604051602081830303815290604052805190602001208460a0015160405160200161406f9190615a92565b6040516020818303038152906040528051906020012014155b80156140e2575060405160200161409e906160a3565b604051602081830303815290604052805190602001208460c001516040516020016140c99190615a92565b6040516020818303038152906040528051906020012014155b801561413d57506040516020016140f8906160a3565b604051602081830303815290604052805190602001208461010001516040516020016141249190615a92565b6040516020818303038152906040528051906020012014155b801561414a575081518351145b80156141895750846080015173ffffffffffffffffffffffffffffffffffffffff16856080015173ffffffffffffffffffffffffffffffffffffffff16145b80156141c65750600073ffffffffffffffffffffffffffffffffffffffff16856080015173ffffffffffffffffffffffffffffffffffffffff1614155b156141d457600190506141d9565b600090505b949350505050565b60006040516020016141f29061585f565b60405160208183030381529060405280519060200120600160009054906101000a900473ffffffffffffffffffffffffffffffffffffffff1673ffffffffffffffffffffffffffffffffffffffff1662438ceb856040518263ffffffff1660e01b815260040161426291906158be565b600060405180830381865afa15801561427f573d6000803e3d6000fd5b505050506040513d6000823e3d601f19601f820116820180604052508101906142a89190615a18565b602001516040516020016142bc9190615a92565b60405160208183030381529060405280519060200120036143835760006142e38585610c7a565b60200151905060005b815181101561438057836040516020016143069190615a92565b6040516020818303038152906040528051906020012082828151811061432f5761432e615fab565b5b60200260200101516040516020016143479190615a92565b604051602081830303815290604052805190602001200361436d57600192505050614388565b8080614378906163d1565b9150506142ec565b50505b600090505b9392505050565b60008273ffffffffffffffffffffffffffffffffffffffff163373ffffffffffffffffffffffffffffffffffffffff16141580156144685750600160009054906101000a900473ffffffffffffffffffffffffffffffffffffffff1673ffffffffffffffffffffffffffffffffffffffff166352a9baef84846040518363ffffffff1660e01b8152600401614425929190616f43565b602060405180830381865afa158015614442573d6000803e3d6000fd5b505050506040513d601f19601f820116820180604052508101906144669190615bc2565b155b80156144b057506144af33836040518060400160405280600581526020017f73686172650000000000000000000000000000000000000000000000000000008152506141e1565b5b80156145a857506040516020016144c69061585f565b60405160208183030381529060405280519060200120600160009054906101000a900473ffffffffffffffffffffffffffffffffffffffff1673ffffffffffffffffffffffffffffffffffffffff1662438ceb846040518263ffffffff1660e01b815260040161453691906158be565b600060405180830381865afa158015614553573d6000803e3d6000fd5b505050506040513d6000823e3d601f19601f8201168201806040525081019061457c9190615a18565b602001516040516020016145909190615a92565b60405160208183030381529060405280519060200120145b156145b657600190506145bb565b600090505b92915050565b60008273ffffffffffffffffffffffffffffffffffffffff163373ffffffffffffffffffffffffffffffffffffffff1614801561460557506146038383611373565b155b80156146a95750600260009054906101000a900473ffffffffffffffffffffffffffffffffffffffff1673ffffffffffffffffffffffffffffffffffffffff1663a240e426846040518263ffffffff1660e01b81526004016146679190615491565b602060405180830381865afa158015614684573d6000803e3d6000fd5b505050506040513d601f19601f820116820180604052508101906146a89190615bc2565b5b156146b757600190506146bc565b600090505b92915050565b82805482825590600052602060002090810192821561470a579160200282015b828111156147095782518290816146f99190615e05565b50916020019190600101906146e2565b5b50905061471791906148c7565b5090565b604051806060016040528060001515815260200160608152602001606081525090565b60405180610120016040528060608152602001606081526020016000815260200160608152602001600073ffffffffffffffffffffffffffffffffffffffff168152602001606081526020016060815260200160608152602001606081525090565b604051806060016040528060001515815260200160608152602001606081525090565b604051806060016040528060001515815260200160608152602001606081525090565b8280548282559060005260206000209081019282156148325760005260206000209182015b8281111561483157828290816148219190616c39565b509160010191906001019061480b565b5b50905061483f91906148c7565b5090565b50805461484f90615c1e565b6000825580601f106148615750614880565b601f01602090049060005260206000209081019061487f91906148eb565b5b50565b50805460008255906000526020600020908101906148a191906148c7565b50565b604051806060016040528060001515815260200160608152602001606081525090565b5b808211156148e757600081816148de9190614843565b506001016148c8565b5090565b5b808211156149045760008160009055506001016148ec565b5090565b6000604051905090565b600080fd5b600080fd5b600073ffffffffffffffffffffffffffffffffffffffff82169050919050565b60006149478261491c565b9050919050565b6149578161493c565b811461496257600080fd5b50565b6000813590506149748161494e565b92915050565b600080fd5b600080fd5b6000601f19601f8301169050919050565b7f4e487b7100000000000000000000000000000000000000000000000000000000600052604160045260246000fd5b6149cd82614984565b810181811067ffffffffffffffff821117156149ec576149eb614995565b5b80604052505050565b60006149ff614908565b9050614a0b82826149c4565b919050565b600067ffffffffffffffff821115614a2b57614a2a614995565b5b614a3482614984565b9050602081019050919050565b82818337600083830152505050565b6000614a63614a5e84614a10565b6149f5565b905082815260208101848484011115614a7f57614a7e61497f565b5b614a8a848285614a41565b509392505050565b600082601f830112614aa757614aa661497a565b5b8135614ab7848260208601614a50565b91505092915050565b600067ffffffffffffffff821115614adb57614ada614995565b5b602082029050602081019050919050565b600080fd5b6000614b04614aff84614ac0565b6149f5565b90508083825260208201905060208402830185811115614b2757614b26614aec565b5b835b81811015614b6e57803567ffffffffffffffff811115614b4c57614b4b61497a565b5b808601614b598982614a92565b85526020850194505050602081019050614b29565b5050509392505050565b600082601f830112614b8d57614b8c61497a565b5b8135614b9d848260208601614af1565b91505092915050565b60008060008060808587031215614bc057614bbf614912565b5b6000614bce87828801614965565b945050602085013567ffffffffffffffff811115614bef57614bee614917565b5b614bfb87828801614a92565b935050604085013567ffffffffffffffff811115614c1c57614c1b614917565b5b614c2887828801614a92565b925050606085013567ffffffffffffffff811115614c4957614c48614917565b5b614c5587828801614b78565b91505092959194509250565b60008060408385031215614c7857614c77614912565b5b6000614c8685828601614965565b925050602083013567ffffffffffffffff811115614ca757614ca6614917565b5b614cb385828601614a92565b9150509250929050565b60008115159050919050565b614cd281614cbd565b82525050565b600081519050919050565b600082825260208201905092915050565b6000819050602082019050919050565b600081519050919050565b600082825260208201905092915050565b60005b83811015614d3e578082015181840152602081019050614d23565b60008484015250505050565b6000614d5582614d04565b614d5f8185614d0f565b9350614d6f818560208601614d20565b614d7881614984565b840191505092915050565b6000819050919050565b614d9681614d83565b82525050565b614da58161493c565b82525050565b6000610120830160008301518482036000860152614dc98282614d4a565b91505060208301518482036020860152614de38282614d4a565b9150506040830151614df86040860182614d8d565b5060608301518482036060860152614e108282614d4a565b9150506080830151614e256080860182614d9c565b5060a083015184820360a0860152614e3d8282614d4a565b91505060c083015184820360c0860152614e578282614d4a565b91505060e083015184820360e0860152614e718282614d4a565b915050610100830151848203610100860152614e8d8282614d4a565b9150508091505092915050565b6000614ea68383614dab565b905092915050565b6000602082019050919050565b6000614ec682614cd8565b614ed08185614ce3565b935083602082028501614ee285614cf4565b8060005b85811015614f1e5784840389528151614eff8582614e9a565b9450614f0a83614eae565b925060208a01995050600181019050614ee6565b50829750879550505050505092915050565b6000606083016000830151614f486000860182614cc9565b5060208301518482036020860152614f608282614ebb565b91505060408301518482036040860152614f7a8282614d4a565b9150508091505092915050565b60006020820190508181036000830152614fa18184614f30565b905092915050565b600081519050919050565b600082825260208201905092915050565b6000819050602082019050919050565b6000614fe18383614d4a565b905092915050565b6000602082019050919050565b600061500182614fa9565b61500b8185614fb4565b93508360208202850161501d85614fc5565b8060005b85811015615059578484038952815161503a8582614fd5565b945061504583614fe9565b925060208a01995050600181019050615021565b50829750879550505050505092915050565b60006060830160008301516150836000860182614cc9565b506020830151848203602086015261509b8282614ff6565b915050604083015184820360408601526150b58282614d4a565b9150508091505092915050565b600060208201905081810360008301526150dc818461506b565b905092915050565b6150ed81614cbd565b82525050565b600060208201905061510860008301846150e4565b92915050565b600080fd5b600080fd5b61512181614d83565b811461512c57600080fd5b50565b60008135905061513e81615118565b92915050565b6000610120828403121561515b5761515a61510e565b5b6151666101206149f5565b9050600082013567ffffffffffffffff81111561518657615185615113565b5b61519284828501614a92565b600083015250602082013567ffffffffffffffff8111156151b6576151b5615113565b5b6151c284828501614a92565b60208301525060406151d68482850161512f565b604083015250606082013567ffffffffffffffff8111156151fa576151f9615113565b5b61520684828501614a92565b606083015250608061521a84828501614965565b60808301525060a082013567ffffffffffffffff81111561523e5761523d615113565b5b61524a84828501614a92565b60a08301525060c082013567ffffffffffffffff81111561526e5761526d615113565b5b61527a84828501614a92565b60c08301525060e082013567ffffffffffffffff81111561529e5761529d615113565b5b6152aa84828501614a92565b60e08301525061010082013567ffffffffffffffff8111156152cf576152ce615113565b5b6152db84828501614a92565b6101008301525092915050565b600067ffffffffffffffff82111561530357615302614995565b5b602082029050602081019050919050565b6000615327615322846152e8565b6149f5565b9050808382526020820190506020840283018581111561534a57615349614aec565b5b835b81811015615373578061535f8882614965565b84526020840193505060208101905061534c565b5050509392505050565b600082601f8301126153925761539161497a565b5b81356153a2848260208601615314565b91505092915050565b600080600080608085870312156153c5576153c4614912565b5b600085013567ffffffffffffffff8111156153e3576153e2614917565b5b6153ef87828801615144565b945050602085013567ffffffffffffffff8111156154105761540f614917565b5b61541c87828801615144565b935050604085013567ffffffffffffffff81111561543d5761543c614917565b5b6154498782880161537d565b925050606085013567ffffffffffffffff81111561546a57615469614917565b5b61547687828801614b78565b91505092959194509250565b61548b8161493c565b82525050565b60006020820190506154a66000830184615482565b92915050565b600080604083850312156154c3576154c2614912565b5b600083013567ffffffffffffffff8111156154e1576154e0614917565b5b6154ed85828601614a92565b92505060206154fe85828601614965565b9150509250929050565b60008060006060848603121561552157615520614912565b5b600061552f86828701614965565b935050602084013567ffffffffffffffff8111156155505761554f614917565b5b61555c86828701614a92565b925050604084013567ffffffffffffffff81111561557d5761557c614917565b5b61558986828701614b78565b9150509250925092565b60006060830160008301516155ab6000860182614cc9565b50602083015184820360208601526155c38282614d4a565b915050604083015184820360408601526155dd8282614d4a565b9150508091505092915050565b600060208201905081810360008301526156048184615593565b905092915050565b60006020828403121561562257615621614912565b5b600082013567ffffffffffffffff8111156156405761563f614917565b5b61564c84828501615144565b91505092915050565b600081519050919050565b600082825260208201905092915050565b6000819050602082019050919050565b600061568d8383614d9c565b60208301905092915050565b6000602082019050919050565b60006156b182615655565b6156bb8185615660565b93506156c683615671565b8060005b838110156156f75781516156de8882615681565b97506156e983615699565b9250506001810190506156ca565b5085935050505092915050565b600060608301600083015161571c6000860182614cc9565b506020830151848203602086015261573482826156a6565b9150506040830151848203604086015261574e8282614d4a565b9150508091505092915050565b600060208201905081810360008301526157758184615704565b905092915050565b60008060006060848603121561579657615795614912565b5b60006157a486828701614965565b935050602084013567ffffffffffffffff8111156157c5576157c4614917565b5b6157d186828701615144565b925050604084013567ffffffffffffffff8111156157f2576157f1614917565b5b6157fe86828701614a92565b9150509250925092565b600081905092915050565b7f6163746976650000000000000000000000000000000000000000000000000000600082015250565b6000615849600683615808565b915061585482615813565b600682019050919050565b600061586a8261583c565b9150819050919050565b600082825260208201905092915050565b600061589082614d04565b61589a8185615874565b93506158aa818560208601614d20565b6158b381614984565b840191505092915050565b600060208201905081810360008301526158d88184615885565b905092915050565b6158e981614cbd565b81146158f457600080fd5b50565b600081519050615906816158e0565b92915050565b600061591f61591a84614a10565b6149f5565b90508281526020810184848401111561593b5761593a61497f565b5b615946848285614d20565b509392505050565b600082601f8301126159635761596261497a565b5b815161597384826020860161590c565b91505092915050565b6000606082840312156159925761599161510e565b5b61599c60606149f5565b905060006159ac848285016158f7565b600083015250602082015167ffffffffffffffff8111156159d0576159cf615113565b5b6159dc8482850161594e565b602083015250604082015167ffffffffffffffff811115615a00576159ff615113565b5b615a0c8482850161594e565b60408301525092915050565b600060208284031215615a2e57615a2d614912565b5b600082015167ffffffffffffffff811115615a4c57615a4b614917565b5b615a588482850161597c565b91505092915050565b6000615a6c82614d04565b615a768185615808565b9350615a86818560208601614d20565b80840191505092915050565b6000615a9e8284615a61565b915081905092915050565b600082825260208201905092915050565b6000615ac582614fa9565b615acf8185615aa9565b935083602082028501615ae185614fc5565b8060005b85811015615b1d5784840389528151615afe8582614fd5565b9450615b0983614fe9565b925060208a01995050600181019050615ae5565b50829750879550505050505092915050565b50565b6000615b3f600083615874565b9150615b4a82615b2f565b600082019050919050565b600060a082019050615b6a6000830187615482565b8181036020830152615b7c8186615885565b90508181036040830152615b908185615885565b90508181036060830152615ba48184615aba565b90508181036080830152615bb781615b32565b905095945050505050565b600060208284031215615bd857615bd7614912565b5b6000615be6848285016158f7565b91505092915050565b7f4e487b7100000000000000000000000000000000000000000000000000000000600052602260045260246000fd5b60006002820490506001821680615c3657607f821691505b602082108103615c4957615c48615bef565b5b50919050565b60008190508160005260206000209050919050565b60006020601f8301049050919050565b600082821b905092915050565b600060088302615cb17fffffffffffffffffffffffffffffffffffffffffffffffffffffffffffffffff82615c74565b615cbb8683615c74565b95508019841693508086168417925050509392505050565b6000819050919050565b6000819050919050565b6000615d02615cfd615cf884615cd3565b615cdd565b615cd3565b9050919050565b6000819050919050565b615d1c83615ce7565b615d30615d2882615d09565b848454615c81565b825550505050565b600090565b615d45615d38565b615d50818484615d13565b505050565b5b81811015615d7457615d69600082615d3d565b600181019050615d56565b5050565b601f821115615db957615d8a81615c4f565b615d9384615c64565b81016020851015615da2578190505b615db6615dae85615c64565b830182615d55565b50505b505050565b600082821c905092915050565b6000615ddc60001984600802615dbe565b1980831691505092915050565b6000615df58383615dcb565b9150826002028217905092915050565b615e0e82614d04565b67ffffffffffffffff811115615e2757615e26614995565b5b615e318254615c1e565b615e3c828285615d78565b600060209050601f831160018114615e6f5760008415615e5d578287015190505b615e678582615de9565b865550615ecf565b601f198416615e7d86615c4f565b60005b82811015615ea557848901518255600182019150602085019450602081019050615e80565b86831015615ec25784890151615ebe601f891682615dcb565b8355505b6001600288020188555050505b505050505050565b60006020820190508181036000830152615ef18184615aba565b905092915050565b7f7368617265000000000000000000000000000000000000000000000000000000600082015250565b6000615f2f600583615874565b9150615f3a82615ef9565b602082019050919050565b600060a082019050615f5a6000830187615482565b8181036020830152615f6c8186615885565b9050615f7b6040830185615482565b8181036060830152615f8d8184615885565b90508181036080830152615fa081615f22565b905095945050505050565b7f4e487b7100000000000000000000000000000000000000000000000000000000600052603260045260246000fd5b60008154615fe781615c1e565b615ff18186615874565b9450600182166000811461600c576001811461602257616055565b60ff198316865281151560200286019350616055565b61602b85615c4f565b60005b8381101561604d5781548189015260018201915060208101905061602e565b808801955050505b50505092915050565b600060208201905081810360008301526160788184615fda565b905092915050565b600061608d600083615808565b915061609882615b2f565b600082019050919050565b60006160ae82616080565b9150819050919050565b600060408201905081810360008301526160d28185615885565b905081810360208301526160e68184615885565b90509392505050565b6000815190506160fe81615118565b92915050565b6000815190506161138161494e565b92915050565b600061012082840312156161305761612f61510e565b5b61613b6101206149f5565b9050600082015167ffffffffffffffff81111561615b5761615a615113565b5b6161678482850161594e565b600083015250602082015167ffffffffffffffff81111561618b5761618a615113565b5b6161978482850161594e565b60208301525060406161ab848285016160ef565b604083015250606082015167ffffffffffffffff8111156161cf576161ce615113565b5b6161db8482850161594e565b60608301525060806161ef84828501616104565b60808301525060a082015167ffffffffffffffff81111561621357616212615113565b5b61621f8482850161594e565b60a08301525060c082015167ffffffffffffffff81111561624357616242615113565b5b61624f8482850161594e565b60c08301525060e082015167ffffffffffffffff81111561627357616272615113565b5b61627f8482850161594e565b60e08301525061010082015167ffffffffffffffff8111156162a4576162a3615113565b5b6162b08482850161594e565b6101008301525092915050565b6000606082840312156162d3576162d261510e565b5b6162dd60606149f5565b905060006162ed848285016158f7565b600083015250602082015167ffffffffffffffff81111561631157616310615113565b5b61631d84828501616119565b602083015250604082015167ffffffffffffffff81111561634157616340615113565b5b61634d8482850161594e565b60408301525092915050565b60006020828403121561636f5761636e614912565b5b600082015167ffffffffffffffff81111561638d5761638c614917565b5b616399848285016162bd565b91505092915050565b7f4e487b7100000000000000000000000000000000000000000000000000000000600052601160045260246000fd5b60006163dc82615cd3565b91507fffffffffffffffffffffffffffffffffffffffffffffffffffffffffffffffff820361640e5761640d6163a2565b5b600182019050919050565b600060808201905061642e6000830187615482565b61643b6020830186615482565b818103604083015261644d8185615885565b905081810360608301526164618184615fda565b905095945050505050565b600061012083016000830151848203600086015261648a8282614d4a565b915050602083015184820360208601526164a48282614d4a565b91505060408301516164b96040860182614d8d565b50606083015184820360608601526164d18282614d4a565b91505060808301516164e66080860182614d9c565b5060a083015184820360a08601526164fe8282614d4a565b91505060c083015184820360c08601526165188282614d4a565b91505060e083015184820360e08601526165328282614d4a565b91505061010083015184820361010086015261654e8282614d4a565b9150508091505092915050565b60006040820190508181036000830152616575818561646c565b90508181036020830152616589818461646c565b90509392505050565b6000815461659f81615c1e565b6165a98186615808565b945060018216600081146165c457600181146165d95761660c565b60ff198316865281151582028601935061660c565b6165e285615c4f565b60005b83811015616604578154818901526001820191506020810190506165e5565b838801955050505b50505092915050565b60006166218284616592565b915081905092915050565b7f2d00000000000000000000000000000000000000000000000000000000000000600082015250565b6000616662600183615874565b915061666d8261662c565b602082019050919050565b7f6564697400000000000000000000000000000000000000000000000000000000600082015250565b60006166ae600483615874565b91506166b982616678565b602082019050919050565b600060a0820190506166d96000830186615482565b81810360208301526166eb8185615885565b90506166fa6040830184615482565b818103606083015261670b81616655565b9050818103608083015261671e816166a1565b9050949350505050565b7f646f776e6c6f6164000000000000000000000000000000000000000000000000600082015250565b600061675e600883615874565b915061676982616728565b602082019050919050565b600060a0820190506167896000830186615482565b818103602083015261679b8185615885565b90506167aa6040830184615482565b81810360608301526167bb81616655565b905081810360808301526167ce81616751565b9050949350505050565b7f757064617465207065726d697373696f6e730000000000000000000000000000600082015250565b600061680e601283615874565b9150616819826167d8565b602082019050919050565b600060a0820190506168396000830187615482565b818103602083015261684b8186615885565b905061685a6040830185615482565b818103606083015261686c8184615885565b9050818103608083015261687f81616801565b905095945050505050565b7f6564697465640000000000000000000000000000000000000000000000000000600082015250565b60006168c0600683615808565b91506168cb8261688a565b600682019050919050565b60006168e1826168b3565b9150819050919050565b60006168fe6168f984614ac0565b6149f5565b9050808382526020820190506020840283018581111561692157616920614aec565b5b835b8181101561696857805167ffffffffffffffff8111156169465761694561497a565b5b808601616953898261594e565b85526020850194505050602081019050616923565b5050509392505050565b600082601f8301126169875761698661497a565b5b81516169978482602086016168eb565b91505092915050565b6000606082840312156169b6576169b561510e565b5b6169c060606149f5565b905060006169d0848285016158f7565b600083015250602082015167ffffffffffffffff8111156169f4576169f3615113565b5b616a0084828501616972565b602083015250604082015167ffffffffffffffff811115616a2457616a23615113565b5b616a308482850161594e565b60408301525092915050565b600060208284031215616a5257616a51614912565b5b600082015167ffffffffffffffff811115616a7057616a6f614917565b5b616a7c848285016169a0565b91505092915050565b7f64656c6574656400000000000000000000000000000000000000000000000000600082015250565b6000616abb600783615874565b9150616ac682616a85565b602082019050919050565b600060a082019050616ae66000830186615482565b8181036020830152616af88185615885565b9050616b076040830184615482565b8181036060830152616b1881616655565b90508181036080830152616b2b81616aae565b9050949350505050565b600081905092915050565b60008190508160005260206000209050919050565b60008154616b6281615c1e565b616b6c8186616b35565b94506001821660008114616b875760018114616b9c57616bcf565b60ff1983168652811515820286019350616bcf565b616ba585616b40565b60005b83811015616bc757815481890152600182019150602081019050616ba8565b838801955050505b50505092915050565b6000616be48284616b55565b915081905092915050565b6000616bfa82615cd3565b9150616c0583615cd3565b9250828203905081811115616c1d57616c1c6163a2565b5b92915050565b600081549050616c3281615c1e565b9050919050565b818103616c47575050616d1f565b616c5082616c23565b67ffffffffffffffff811115616c6957616c68614995565b5b616c738254615c1e565b616c7e828285615d78565b6000601f831160018114616cad5760008415616c9b578287015490505b616ca58582615de9565b865550616d18565b601f198416616cbb87615c4f565b9650616cc686615c4f565b60005b82811015616cee57848901548255600182019150600185019450602081019050616cc9565b86831015616d0b5784890154616d07601f891682615dcb565b8355505b6001600288020188555050505b5050505050505b565b7f4e487b7100000000000000000000000000000000000000000000000000000000600052603160045260246000fd5b7f72656d6f76656420616363657373000000000000000000000000000000000000600082015250565b6000616d86600e83615874565b9150616d9182616d50565b602082019050919050565b600060a082019050616db16000830186615482565b8181036020830152616dc38185615885565b9050616dd26040830184615482565b8181036060830152616de381616655565b90508181036080830152616df681616d79565b9050949350505050565b600060a082019050616e156000830188615482565b8181036020830152616e278187615885565b90508181036040830152616e3b8186615885565b90508181036060830152616e4f8185615aba565b90508181036080830152616e638184615885565b90509695505050505050565b60006020820190508181036000830152616e89818461646c565b905092915050565b7f75706c6f61640000000000000000000000000000000000000000000000000000600082015250565b6000616ec7600683615874565b9150616ed282616e91565b602082019050919050565b600060a082019050616ef26000830187615482565b8181036020830152616f048186615885565b9050616f136040830185615482565b8181036060830152616f258184615885565b90508181036080830152616f3881616eba565b905095945050505050565b6000604082019050616f586000830185615482565b8181036020830152616f6a8184615885565b90509392505050565b6000616f80600683615874565b9150616f8b82615813565b602082019050919050565b60006040820190508181036000830152616fb08184615885565b90508181036020830152616fc381616f73565b90509291505056fe4d616b65207375726520746865207472616e73616374696f6e20657865637574657220617320746f206265207468652073616d652061732074686520757365722c2074686520757365722068617320746f206265206173736f6369617465642077697468207468652066696c652c20616e64207468652066696c652068617320746f20626520696e2074686520616374697665206f72206564697465642073746174652e536f6d657468696e672077656e742077726f6e67207768696c6520747279696e6720746f2067657420746865207573657273207769746820646f776e6c6f6164207065726d697373696f6e73206f766572207468652066696c652e546865207472616e61736374696f6e2065786563757465722073686f756c64206265207468652073616d6520617320746865207573657220746f20676574207468652066696c65732066726f6d2e546865207472616e73616374696f6e2065786563757465722068617320746f206265206173736f6369617465642077697468207468652066696c652c20616e64207468652066696c652073686f756c6420626520696e20746865206163746976652073746174652ea2646970667358221220cd242e232f03ba6c4561818b0932a1125b2cd820d04fa6e923ef39fc5f58db9a64736f6c6343000813003360806040523480156200001157600080fd5b506040516200399e3803806200399e8339818101604052810190620000379190620000e9565b80600260006101000a81548173ffffffffffffffffffffffffffffffffffffffff021916908373ffffffffffffffffffffffffffffffffffffffff160217905550506200011b565b600080fd5b600073ffffffffffffffffffffffffffffffffffffffff82169050919050565b6000620000b18262000084565b9050919050565b620000c381620000a4565b8114620000cf57600080fd5b50565b600081519050620000e381620000b8565b92915050565b6000602082840312156200010257620001016200007f565b5b60006200011284828501620000d2565b91505092915050565b613873806200012b6000396000f3fe608060405234801561001057600080fd5b50600436106100a85760003560e01c806395f0f0bb1161007157806395f0f0bb146101895780639bccd6ad146101a5578063bfddc42f146101d5578063e8d56b8b146101f1578063f880680b1461020d578063fadc54f41461023d576100a8565b8062438ceb146100ad57806347eb6fa7146100dd57806352a9baef1461010d57806374546fdf1461013d578063922243ad14610159575b600080fd5b6100c760048036038101906100c291906126c9565b61026d565b6040516100d49190612803565b60405180910390f35b6100f760048036038101906100f29190612825565b6103f4565b6040516101049190612a3d565b60405180910390f35b61012760048036038101906101229190612a8b565b610ab6565b6040516101349190612af6565b60405180910390f35b610157600480360381019061015291906126c9565b610b9a565b005b610173600480360381019061016e91906126c9565b610c57565b6040516101809190612c2a565b60405180910390f35b6101a3600480360381019061019e9190612e26565b61100c565b005b6101bf60048036038101906101ba91906126c9565b611337565b6040516101cc9190612af6565b60405180910390f35b6101ef60048036038101906101ea9190612e9e565b6113db565b005b61020b60048036038101906102069190612ee7565b61160a565b005b610227600480360381019061022291906126c9565b61175a565b6040516102349190612803565b60405180910390f35b610257600480360381019061025291906126c9565b6118e1565b604051610264919061302d565b60405180910390f35b61027561247b565b600360009054906101000a900473ffffffffffffffffffffffffffffffffffffffff1673ffffffffffffffffffffffffffffffffffffffff163373ffffffffffffffffffffffffffffffffffffffff16036103a75760405180606001604052806001151581526020016000846040516102ee919061308b565b9081526020016040518091039020600701805461030a906130d1565b80601f0160208091040260200160405190810160405280929190818152602001828054610336906130d1565b80156103835780601f1061035857610100808354040283529160200191610383565b820191906000526020600020905b81548152906001019060200180831161036657829003601f168201915b505050505081526020016040518060200160405280600081525081525090506103ef565b60405180606001604052806000151581526020016040518060200160405280600081525081526020016040518060800160405280604481526020016137b76044913981525090505b919050565b6103fc61249e565b6000808460405161040d919061308b565b90815260200160405180910390206001018054610429906130d1565b90501180156104f7575081604051602001610444919061308b565b6040516020818303038152906040528051906020012060008460405161046a919061308b565b908152602001604051809103902060070160405160200161048b919061319a565b6040516020818303038152906040528051906020012014806104f657506040516020016104b7906131d7565b60405160208183030381529060405280519060200120826040516020016104de919061308b565b60405160208183030381529060405280519060200120145b5b156109b7576040518060600160405280600115158152602001600085604051610520919061308b565b90815260200160405180910390206040518061012001604052908160008201805461054a906130d1565b80601f0160208091040260200160405190810160405280929190818152602001828054610576906130d1565b80156105c35780601f10610598576101008083540402835291602001916105c3565b820191906000526020600020905b8154815290600101906020018083116105a657829003601f168201915b505050505081526020016001820180546105dc906130d1565b80601f0160208091040260200160405190810160405280929190818152602001828054610608906130d1565b80156106555780601f1061062a57610100808354040283529160200191610655565b820191906000526020600020905b81548152906001019060200180831161063857829003601f168201915b5050505050815260200160028201548152602001600382018054610678906130d1565b80601f01602080910402602001604051908101604052809291908181526020018280546106a4906130d1565b80156106f15780601f106106c6576101008083540402835291602001916106f1565b820191906000526020600020905b8154815290600101906020018083116106d457829003601f168201915b505050505081526020016004820160009054906101000a900473ffffffffffffffffffffffffffffffffffffffff1673ffffffffffffffffffffffffffffffffffffffff1673ffffffffffffffffffffffffffffffffffffffff168152602001600582018054610760906130d1565b80601f016020809104026020016040519081016040528092919081815260200182805461078c906130d1565b80156107d95780601f106107ae576101008083540402835291602001916107d9565b820191906000526020600020905b8154815290600101906020018083116107bc57829003601f168201915b505050505081526020016006820180546107f2906130d1565b80601f016020809104026020016040519081016040528092919081815260200182805461081e906130d1565b801561086b5780601f106108405761010080835404028352916020019161086b565b820191906000526020600020905b81548152906001019060200180831161084e57829003601f168201915b50505050508152602001600782018054610884906130d1565b80601f01602080910402602001604051908101604052809291908181526020018280546108b0906130d1565b80156108fd5780601f106108d2576101008083540402835291602001916108fd565b820191906000526020600020905b8154815290600101906020018083116108e057829003601f168201915b50505050508152602001600882018054610916906130d1565b80601f0160208091040260200160405190810160405280929190818152602001828054610942906130d1565b801561098f5780601f106109645761010080835404028352916020019161098f565b820191906000526020600020905b81548152906001019060200180831161097257829003601f168201915b5050505050815250508152602001604051806020016040528060008152508152509050610ab0565b604051806060016040528060001515815260200160405180610120016040528060405180602001604052806000815250815260200160405180602001604052806000815250815260200160008152602001604051806020016040528060008152508152602001600073ffffffffffffffffffffffffffffffffffffffff1681526020016040518060200160405280600081525081526020016040518060200160405280600081525081526020016040518060200160405280600081525081526020016040518060200160405280600081525081525081526020016040518060800160405280604181526020016137766041913981525090505b92915050565b60008273ffffffffffffffffffffffffffffffffffffffff16600083604051610adf919061308b565b908152602001604051809103902060040160009054906101000a900473ffffffffffffffffffffffffffffffffffffffff1673ffffffffffffffffffffffffffffffffffffffff16148015610b815750600360009054906101000a900473ffffffffffffffffffffffffffffffffffffffff1673ffffffffffffffffffffffffffffffffffffffff163373ffffffffffffffffffffffffffffffffffffffff16145b15610b8f5760019050610b94565b600090505b92915050565b600360009054906101000a900473ffffffffffffffffffffffffffffffffffffffff1673ffffffffffffffffffffffffffffffffffffffff163373ffffffffffffffffffffffffffffffffffffffff1603610c54576040518060400160405280600881526020017f6465616374697665000000000000000000000000000000000000000000000000815250600082604051610c35919061308b565b90815260200160405180910390206007019081610c52919061338d565b505b50565b610c5f6124c7565b600360009054906101000a900473ffffffffffffffffffffffffffffffffffffffff1673ffffffffffffffffffffffffffffffffffffffff163373ffffffffffffffffffffffffffffffffffffffff1603610f8057600060018054905067ffffffffffffffff811115610cd557610cd461259e565b5b604051908082528060200260200182016040528015610d0857816020015b6060815260200190600190039081610cf35790505b5090506000805b600180549050811015610f465784604051602001610d2d919061308b565b60405160208183030381529060405280519060200120600060018381548110610d5957610d5861345f565b5b90600052602060002001604051610d70919061319a565b9081526020016040518091039020600101604051602001610d91919061319a565b60405160208183030381529060405280519060200120148015610e3a5750604051602001610dbe906134da565b60405160208183030381529060405280519060200120600060018381548110610dea57610de961345f565b5b90600052602060002001604051610e01919061319a565b9081526020016040518091039020600701604051602001610e22919061319a565b60405160208183030381529060405280519060200120145b15610f3357600060018281548110610e5557610e5461345f565b5b90600052602060002001604051610e6c919061319a565b90815260200160405180910390206000018054610e88906130d1565b80601f0160208091040260200160405190810160405280929190818152602001828054610eb4906130d1565b8015610f015780601f10610ed657610100808354040283529160200191610f01565b820191906000526020600020905b815481529060010190602001808311610ee457829003601f168201915b5050505050838381518110610f1957610f1861345f565b5b60200260200101819052508180610f2f9061351e565b9250505b8080610f3e9061351e565b915050610d0f565b5080825260405180606001604052806001151581526020018381526020016040518060200160405280600081525081525092505050611007565b6040518060600160405280600115158152602001600067ffffffffffffffff811115610faf57610fae61259e565b5b604051908082528060200260200182016040528015610fe257816020015b6060815260200190600190039081610fcd5790505b5081526020016040518060800160405280604381526020016137fb6043913981525090505b919050565b600360009054906101000a900473ffffffffffffffffffffffffffffffffffffffff1673ffffffffffffffffffffffffffffffffffffffff163373ffffffffffffffffffffffffffffffffffffffff1614801561109c5750816080015173ffffffffffffffffffffffffffffffffffffffff16826080015173ffffffffffffffffffffffffffffffffffffffff16145b80156110d95750600073ffffffffffffffffffffffffffffffffffffffff16826080015173ffffffffffffffffffffffffffffffffffffffff1614155b15611333576040518060400160405280600681526020017f656469746564000000000000000000000000000000000000000000000000000081525060008360000151604051611128919061308b565b90815260200160405180910390206007019081611145919061338d565b508160800151816080019073ffffffffffffffffffffffffffffffffffffffff16908173ffffffffffffffffffffffffffffffffffffffff168152505081600001518160600181905250600182604001516111a09190613566565b8160400181815250506040518060400160405280600681526020017f61637469766500000000000000000000000000000000000000000000000000008152508160e0018190525080600082600001516040516111fc919061308b565b9081526020016040518091039020600082015181600001908161121f919061338d565b506020820151816001019081611235919061338d565b50604082015181600201556060820151816003019081611255919061338d565b5060808201518160040160006101000a81548173ffffffffffffffffffffffffffffffffffffffff021916908373ffffffffffffffffffffffffffffffffffffffff16021790555060a08201518160050190816112b2919061338d565b5060c08201518160060190816112c8919061338d565b5060e08201518160070190816112de919061338d565b506101008201518160080190816112f5919061338d565b5090505060018160000151908060018154018082558091505060019003906000526020600020016000909190919091509081611331919061338d565b505b5050565b60008060008360405161134a919061308b565b90815260200160405180910390206000018054611366906130d1565b9050141580156113c35750600360009054906101000a900473ffffffffffffffffffffffffffffffffffffffff1673ffffffffffffffffffffffffffffffffffffffff163373ffffffffffffffffffffffffffffffffffffffff16145b156113d157600190506113d6565b600090505b919050565b600360009054906101000a900473ffffffffffffffffffffffffffffffffffffffff1673ffffffffffffffffffffffffffffffffffffffff163373ffffffffffffffffffffffffffffffffffffffff16036116075761143981612356565b15611606576040518060400160405280600681526020017f61637469766500000000000000000000000000000000000000000000000000008152508160e001819052506040518060400160405280600181526020017f3000000000000000000000000000000000000000000000000000000000000000815250816060018190525080600082600001516040516114cf919061308b565b908152602001604051809103902060008201518160000190816114f2919061338d565b506020820151816001019081611508919061338d565b50604082015181600201556060820151816003019081611528919061338d565b5060808201518160040160006101000a81548173ffffffffffffffffffffffffffffffffffffffff021916908373ffffffffffffffffffffffffffffffffffffffff16021790555060a0820151816005019081611585919061338d565b5060c082015181600601908161159b919061338d565b5060e08201518160070190816115b1919061338d565b506101008201518160080190816115c8919061338d565b5090505060018160000151908060018154018082558091505060019003906000526020600020016000909190919091509081611604919061338d565b505b5b50565b600073ffffffffffffffffffffffffffffffffffffffff168173ffffffffffffffffffffffffffffffffffffffff16141580156116955750600073ffffffffffffffffffffffffffffffffffffffff16600360009054906101000a900473ffffffffffffffffffffffffffffffffffffffff1673ffffffffffffffffffffffffffffffffffffffff16145b80156117105750600360009054906101000a900473ffffffffffffffffffffffffffffffffffffffff1673ffffffffffffffffffffffffffffffffffffffff16600360009054906101000a900473ffffffffffffffffffffffffffffffffffffffff1673ffffffffffffffffffffffffffffffffffffffff16145b156117575780600360006101000a81548173ffffffffffffffffffffffffffffffffffffffff021916908373ffffffffffffffffffffffffffffffffffffffff1602179055505b50565b61176261247b565b600360009054906101000a900473ffffffffffffffffffffffffffffffffffffffff1673ffffffffffffffffffffffffffffffffffffffff163373ffffffffffffffffffffffffffffffffffffffff16036118945760405180606001604052806001151581526020016000846040516117db919061308b565b908152602001604051809103902060080180546117f7906130d1565b80601f0160208091040260200160405190810160405280929190818152602001828054611823906130d1565b80156118705780601f1061184557610100808354040283529160200191611870565b820191906000526020600020905b81548152906001019060200180831161185357829003601f168201915b505050505081526020016040518060200160405280600081525081525090506118dc565b60405180606001604052806000151581526020016040518060200160405280600081525081526020016040518060800160405280604481526020016137b76044913981525090505b919050565b6118e96124ea565b600060018054905067ffffffffffffffff81111561190a5761190961259e565b5b60405190808252806020026020018201604052801561194357816020015b61193061250d565b8152602001906001900390816119285790505b50905060008084604051611957919061308b565b908152602001604051809103902060405180610120016040529081600082018054611981906130d1565b80601f01602080910402602001604051908101604052809291908181526020018280546119ad906130d1565b80156119fa5780601f106119cf576101008083540402835291602001916119fa565b820191906000526020600020905b8154815290600101906020018083116119dd57829003601f168201915b50505050508152602001600182018054611a13906130d1565b80601f0160208091040260200160405190810160405280929190818152602001828054611a3f906130d1565b8015611a8c5780601f10611a6157610100808354040283529160200191611a8c565b820191906000526020600020905b815481529060010190602001808311611a6f57829003601f168201915b5050505050815260200160028201548152602001600382018054611aaf906130d1565b80601f0160208091040260200160405190810160405280929190818152602001828054611adb906130d1565b8015611b285780601f10611afd57610100808354040283529160200191611b28565b820191906000526020600020905b815481529060010190602001808311611b0b57829003601f168201915b505050505081526020016004820160009054906101000a900473ffffffffffffffffffffffffffffffffffffffff1673ffffffffffffffffffffffffffffffffffffffff1673ffffffffffffffffffffffffffffffffffffffff168152602001600582018054611b97906130d1565b80601f0160208091040260200160405190810160405280929190818152602001828054611bc3906130d1565b8015611c105780601f10611be557610100808354040283529160200191611c10565b820191906000526020600020905b815481529060010190602001808311611bf357829003601f168201915b50505050508152602001600682018054611c29906130d1565b80601f0160208091040260200160405190810160405280929190818152602001828054611c55906130d1565b8015611ca25780601f10611c7757610100808354040283529160200191611ca2565b820191906000526020600020905b815481529060010190602001808311611c8557829003601f168201915b50505050508152602001600782018054611cbb906130d1565b80601f0160208091040260200160405190810160405280929190818152602001828054611ce7906130d1565b8015611d345780601f10611d0957610100808354040283529160200191611d34565b820191906000526020600020905b815481529060010190602001808311611d1757829003601f168201915b50505050508152602001600882018054611d4d906130d1565b80601f0160208091040260200160405190810160405280929190818152602001828054611d79906130d1565b8015611dc65780601f10611d9b57610100808354040283529160200191611dc6565b820191906000526020600020905b815481529060010190602001808311611da957829003601f168201915b505050505081525050905060005b604051602001611de3906135f6565b604051602081830303815290604052805190602001208260600151604051602001611e0e919061308b565b60405160208183030381529060405280519060200120146122ef5781838281518110611e3d57611e3c61345f565b5b60200260200101819052508080611e539061351e565b915050600082606001519050600081604051611e6f919061308b565b908152602001604051809103902060405180610120016040529081600082018054611e99906130d1565b80601f0160208091040260200160405190810160405280929190818152602001828054611ec5906130d1565b8015611f125780601f10611ee757610100808354040283529160200191611f12565b820191906000526020600020905b815481529060010190602001808311611ef557829003601f168201915b50505050508152602001600182018054611f2b906130d1565b80601f0160208091040260200160405190810160405280929190818152602001828054611f57906130d1565b8015611fa45780601f10611f7957610100808354040283529160200191611fa4565b820191906000526020600020905b815481529060010190602001808311611f8757829003601f168201915b5050505050815260200160028201548152602001600382018054611fc7906130d1565b80601f0160208091040260200160405190810160405280929190818152602001828054611ff3906130d1565b80156120405780601f1061201557610100808354040283529160200191612040565b820191906000526020600020905b81548152906001019060200180831161202357829003601f168201915b505050505081526020016004820160009054906101000a900473ffffffffffffffffffffffffffffffffffffffff1673ffffffffffffffffffffffffffffffffffffffff1673ffffffffffffffffffffffffffffffffffffffff1681526020016005820180546120af906130d1565b80601f01602080910402602001604051908101604052809291908181526020018280546120db906130d1565b80156121285780601f106120fd57610100808354040283529160200191612128565b820191906000526020600020905b81548152906001019060200180831161210b57829003601f168201915b50505050508152602001600682018054612141906130d1565b80601f016020809104026020016040519081016040528092919081815260200182805461216d906130d1565b80156121ba5780601f1061218f576101008083540402835291602001916121ba565b820191906000526020600020905b81548152906001019060200180831161219d57829003601f168201915b505050505081526020016007820180546121d3906130d1565b80601f01602080910402602001604051908101604052809291908181526020018280546121ff906130d1565b801561224c5780601f106122215761010080835404028352916020019161224c565b820191906000526020600020905b81548152906001019060200180831161222f57829003601f168201915b50505050508152602001600882018054612265906130d1565b80601f0160208091040260200160405190810160405280929190818152602001828054612291906130d1565b80156122de5780601f106122b3576101008083540402835291602001916122de565b820191906000526020600020905b8154815290600101906020018083116122c157829003601f168201915b505050505081525050925050611dd4565b818382815181106123035761230261345f565b5b602002602001018190525080806123199061351e565b9150508083526040518060600160405280600115158152602001848152602001604051806020016040528060008152508152509350505050919050565b60006123658260000151611337565b15801561240a5750600260009054906101000a900473ffffffffffffffffffffffffffffffffffffffff1673ffffffffffffffffffffffffffffffffffffffff16634294a5ad836040518263ffffffff1660e01b81526004016123c891906136fa565b602060405180830381865afa1580156123e5573d6000803e3d6000fd5b505050506040513d601f19601f820116820180604052508101906124099190613748565b5b80156124635750600360009054906101000a900473ffffffffffffffffffffffffffffffffffffffff1673ffffffffffffffffffffffffffffffffffffffff163373ffffffffffffffffffffffffffffffffffffffff16145b156124715760019050612476565b600090505b919050565b604051806060016040528060001515815260200160608152602001606081525090565b60405180606001604052806000151581526020016124ba61250d565b8152602001606081525090565b604051806060016040528060001515815260200160608152602001606081525090565b604051806060016040528060001515815260200160608152602001606081525090565b60405180610120016040528060608152602001606081526020016000815260200160608152602001600073ffffffffffffffffffffffffffffffffffffffff168152602001606081526020016060815260200160608152602001606081525090565b6000604051905090565b600080fd5b600080fd5b600080fd5b600080fd5b6000601f19601f8301169050919050565b7f4e487b7100000000000000000000000000000000000000000000000000000000600052604160045260246000fd5b6125d68261258d565b810181811067ffffffffffffffff821117156125f5576125f461259e565b5b80604052505050565b600061260861256f565b905061261482826125cd565b919050565b600067ffffffffffffffff8211156126345761263361259e565b5b61263d8261258d565b9050602081019050919050565b82818337600083830152505050565b600061266c61266784612619565b6125fe565b90508281526020810184848401111561268857612687612588565b5b61269384828561264a565b509392505050565b600082601f8301126126b0576126af612583565b5b81356126c0848260208601612659565b91505092915050565b6000602082840312156126df576126de612579565b5b600082013567ffffffffffffffff8111156126fd576126fc61257e565b5b6127098482850161269b565b91505092915050565b60008115159050919050565b61272781612712565b82525050565b600081519050919050565b600082825260208201905092915050565b60005b8381101561276757808201518184015260208101905061274c565b60008484015250505050565b600061277e8261272d565b6127888185612738565b9350612798818560208601612749565b6127a18161258d565b840191505092915050565b60006060830160008301516127c4600086018261271e565b50602083015184820360208601526127dc8282612773565b915050604083015184820360408601526127f68282612773565b9150508091505092915050565b6000602082019050818103600083015261281d81846127ac565b905092915050565b6000806040838503121561283c5761283b612579565b5b600083013567ffffffffffffffff81111561285a5761285961257e565b5b6128668582860161269b565b925050602083013567ffffffffffffffff8111156128875761288661257e565b5b6128938582860161269b565b9150509250929050565b6000819050919050565b6128b08161289d565b82525050565b600073ffffffffffffffffffffffffffffffffffffffff82169050919050565b60006128e1826128b6565b9050919050565b6128f1816128d6565b82525050565b60006101208301600083015184820360008601526129158282612773565b9150506020830151848203602086015261292f8282612773565b915050604083015161294460408601826128a7565b506060830151848203606086015261295c8282612773565b915050608083015161297160808601826128e8565b5060a083015184820360a08601526129898282612773565b91505060c083015184820360c08601526129a38282612773565b91505060e083015184820360e08601526129bd8282612773565b9150506101008301518482036101008601526129d98282612773565b9150508091505092915050565b60006060830160008301516129fe600086018261271e565b5060208301518482036020860152612a1682826128f7565b91505060408301518482036040860152612a308282612773565b9150508091505092915050565b60006020820190508181036000830152612a5781846129e6565b905092915050565b612a68816128d6565b8114612a7357600080fd5b50565b600081359050612a8581612a5f565b92915050565b60008060408385031215612aa257612aa1612579565b5b6000612ab085828601612a76565b925050602083013567ffffffffffffffff811115612ad157612ad061257e565b5b612add8582860161269b565b9150509250929050565b612af081612712565b82525050565b6000602082019050612b0b6000830184612ae7565b92915050565b600081519050919050565b600082825260208201905092915050565b6000819050602082019050919050565b6000612b498383612773565b905092915050565b6000602082019050919050565b6000612b6982612b11565b612b738185612b1c565b935083602082028501612b8585612b2d565b8060005b85811015612bc15784840389528151612ba28582612b3d565b9450612bad83612b51565b925060208a01995050600181019050612b89565b50829750879550505050505092915050565b6000606083016000830151612beb600086018261271e565b5060208301518482036020860152612c038282612b5e565b91505060408301518482036040860152612c1d8282612773565b9150508091505092915050565b60006020820190508181036000830152612c448184612bd3565b905092915050565b600080fd5b600080fd5b612c5f8161289d565b8114612c6a57600080fd5b50565b600081359050612c7c81612c56565b92915050565b60006101208284031215612c9957612c98612c4c565b5b612ca46101206125fe565b9050600082013567ffffffffffffffff811115612cc457612cc3612c51565b5b612cd08482850161269b565b600083015250602082013567ffffffffffffffff811115612cf457612cf3612c51565b5b612d008482850161269b565b6020830152506040612d1484828501612c6d565b604083015250606082013567ffffffffffffffff811115612d3857612d37612c51565b5b612d448482850161269b565b6060830152506080612d5884828501612a76565b60808301525060a082013567ffffffffffffffff811115612d7c57612d7b612c51565b5b612d888482850161269b565b60a08301525060c082013567ffffffffffffffff811115612dac57612dab612c51565b5b612db88482850161269b565b60c08301525060e082013567ffffffffffffffff811115612ddc57612ddb612c51565b5b612de88482850161269b565b60e08301525061010082013567ffffffffffffffff811115612e0d57612e0c612c51565b5b612e198482850161269b565b6101008301525092915050565b60008060408385031215612e3d57612e3c612579565b5b600083013567ffffffffffffffff811115612e5b57612e5a61257e565b5b612e6785828601612c82565b925050602083013567ffffffffffffffff811115612e8857612e8761257e565b5b612e9485828601612c82565b9150509250929050565b600060208284031215612eb457612eb3612579565b5b600082013567ffffffffffffffff811115612ed257612ed161257e565b5b612ede84828501612c82565b91505092915050565b600060208284031215612efd57612efc612579565b5b6000612f0b84828501612a76565b91505092915050565b600081519050919050565b600082825260208201905092915050565b6000819050602082019050919050565b6000612f4c83836128f7565b905092915050565b6000602082019050919050565b6000612f6c82612f14565b612f768185612f1f565b935083602082028501612f8885612f30565b8060005b85811015612fc45784840389528151612fa58582612f40565b9450612fb083612f54565b925060208a01995050600181019050612f8c565b50829750879550505050505092915050565b6000606083016000830151612fee600086018261271e565b50602083015184820360208601526130068282612f61565b915050604083015184820360408601526130208282612773565b9150508091505092915050565b600060208201905081810360008301526130478184612fd6565b905092915050565b600081905092915050565b60006130658261272d565b61306f818561304f565b935061307f818560208601612749565b80840191505092915050565b6000613097828461305a565b915081905092915050565b7f4e487b7100000000000000000000000000000000000000000000000000000000600052602260045260246000fd5b600060028204905060018216806130e957607f821691505b6020821081036130fc576130fb6130a2565b5b50919050565b60008190508160005260206000209050919050565b60008154613124816130d1565b61312e818661304f565b94506001821660008114613149576001811461315e57613191565b60ff1983168652811515820286019350613191565b61316785613102565b60005b838110156131895781548189015260018201915060208101905061316a565b838801955050505b50505092915050565b60006131a68284613117565b915081905092915050565b50565b60006131c160008361304f565b91506131cc826131b1565b600082019050919050565b60006131e2826131b4565b9150819050919050565b60006020601f8301049050919050565b600082821b905092915050565b6000600883026132397fffffffffffffffffffffffffffffffffffffffffffffffffffffffffffffffff826131fc565b61324386836131fc565b95508019841693508086168417925050509392505050565b6000819050919050565b6000819050919050565b600061328a6132856132808461325b565b613265565b61325b565b9050919050565b6000819050919050565b6132a48361326f565b6132b86132b082613291565b848454613209565b825550505050565b600090565b6132cd6132c0565b6132d881848461329b565b505050565b5b818110156132fc576132f16000826132c5565b6001810190506132de565b5050565b601f8211156133415761331281613102565b61331b846131ec565b8101602085101561332a578190505b61333e613336856131ec565b8301826132dd565b50505b505050565b600082821c905092915050565b600061336460001984600802613346565b1980831691505092915050565b600061337d8383613353565b9150826002028217905092915050565b6133968261272d565b67ffffffffffffffff8111156133af576133ae61259e565b5b6133b982546130d1565b6133c4828285613300565b600060209050601f8311600181146133f757600084156133e5578287015190505b6133ef8582613371565b865550613457565b601f19841661340586613102565b60005b8281101561342d57848901518255600182019150602085019450602081019050613408565b8683101561344a5784890151613446601f891682613353565b8355505b6001600288020188555050505b505050505050565b7f4e487b7100000000000000000000000000000000000000000000000000000000600052603260045260246000fd5b7f6163746976650000000000000000000000000000000000000000000000000000600082015250565b60006134c460068361304f565b91506134cf8261348e565b600682019050919050565b60006134e5826134b7565b9150819050919050565b7f4e487b7100000000000000000000000000000000000000000000000000000000600052601160045260246000fd5b60006135298261325b565b91507fffffffffffffffffffffffffffffffffffffffffffffffffffffffffffffffff820361355b5761355a6134ef565b5b600182019050919050565b60006135718261289d565b915061357c8361289d565b9250828201905082811215600083121683821260008412151617156135a4576135a36134ef565b5b92915050565b7f3000000000000000000000000000000000000000000000000000000000000000600082015250565b60006135e060018361304f565b91506135eb826135aa565b600182019050919050565b6000613601826135d3565b9150819050919050565b60006101208301600083015184820360008601526136298282612773565b915050602083015184820360208601526136438282612773565b915050604083015161365860408601826128a7565b50606083015184820360608601526136708282612773565b915050608083015161368560808601826128e8565b5060a083015184820360a086015261369d8282612773565b91505060c083015184820360c08601526136b78282612773565b91505060e083015184820360e08601526136d18282612773565b9150506101008301518482036101008601526136ed8282612773565b9150508091505092915050565b60006020820190508181036000830152613714818461360b565b905092915050565b61372581612712565b811461373057600080fd5b50565b6000815190506137428161371c565b92915050565b60006020828403121561375e5761375d612579565b5b600061376c84828501613733565b9150509291505056fe54687265206973206e6f2066696c652c20696e2074686520676976656e2073746174652c2074686174206861732074686520676976656e2049504653204349442e546865207472616e73616374696f6e2065786563757465722063616e206f6e6c792062652074686520416363657373436f6e74726f6c2e736f6c20636f6e74726163742e4f6e6c792074686520416363657373436f6e74726f6c2e736f6c20636f6e74726163742069732061626c6520746f20657865637574652074686973206d6574686f642ea2646970667358221220804dc1b5b40cc0a498b992c3eacd6b8e78ba39cf03ecfdd1131ca5d644dbc92964736f6c6343000813003360806040523480156200001157600080fd5b5060405162001e6c38038062001e6c8339818101604052810190620000379190620000e9565b80600360006101000a81548173ffffffffffffffffffffffffffffffffffffffff021916908373ffffffffffffffffffffffffffffffffffffffff160217905550506200011b565b600080fd5b600073ffffffffffffffffffffffffffffffffffffffff82169050919050565b6000620000b18262000084565b9050919050565b620000c381620000a4565b8114620000cf57600080fd5b50565b600081519050620000e381620000b8565b92915050565b6000602082840312156200010257620001016200007f565b5b60006200011284828501620000d2565b91505092915050565b611d41806200012b6000396000f3fe608060405234801561001057600080fd5b50600436106100885760003560e01c8063a240e4261161005b578063a240e42614610139578063b0c22a5614610169578063eeb9ab1814610199578063f14ab0e0146101c957610088565b806367156cf11461008d5780636f77926b146100bd57806375e9493f146100ed578063857cdbb814610109575b600080fd5b6100a760048036038101906100a29190611179565b6101f9565b6040516100b491906112a8565b60405180910390f35b6100d760048036038101906100d29190611179565b6103e0565b6040516100e491906113a1565b60405180910390f35b610107600480360381019061010291906115ce565b6107db565b005b610123600480360381019061011e9190611179565b610a6a565b60405161013091906112a8565b60405180910390f35b610153600480360381019061014e9190611179565b610c51565b6040516101609190611626565b60405180910390f35b610183600480360381019061017e9190611641565b610cfa565b6040516101909190611626565b60405180910390f35b6101b360048036038101906101ae9190611641565b610d2f565b6040516101c091906116da565b60405180910390f35b6101e360048036038101906101de91906116fc565b610e4d565b6040516101f09190611626565b60405180910390f35b610201611044565b600073ffffffffffffffffffffffffffffffffffffffff166000808473ffffffffffffffffffffffffffffffffffffffff1673ffffffffffffffffffffffffffffffffffffffff16815260200190815260200160002060000160009054906101000a900473ffffffffffffffffffffffffffffffffffffffff1673ffffffffffffffffffffffffffffffffffffffff16146103935760405180606001604052806001151581526020016000808573ffffffffffffffffffffffffffffffffffffffff1673ffffffffffffffffffffffffffffffffffffffff16815260200190815260200160002060010180546102f690611787565b80601f016020809104026020016040519081016040528092919081815260200182805461032290611787565b801561036f5780601f106103445761010080835404028352916020019161036f565b820191906000526020600020905b81548152906001019060200180831161035257829003601f168201915b505050505081526020016040518060200160405280600081525081525090506103db565b6040518060600160405280600015158152602001604051806020016040528060008152508152602001604051806060016040528060288152602001611cbb6028913981525090505b919050565b6103e8611067565b3373ffffffffffffffffffffffffffffffffffffffff168273ffffffffffffffffffffffffffffffffffffffff160361073957600073ffffffffffffffffffffffffffffffffffffffff166000808473ffffffffffffffffffffffffffffffffffffffff1673ffffffffffffffffffffffffffffffffffffffff16815260200190815260200160002060000160009054906101000a900473ffffffffffffffffffffffffffffffffffffffff1673ffffffffffffffffffffffffffffffffffffffff16146107385760405180606001604052806001151581526020016000808573ffffffffffffffffffffffffffffffffffffffff1673ffffffffffffffffffffffffffffffffffffffff1681526020019081526020016000206040518060800160405290816000820160009054906101000a900473ffffffffffffffffffffffffffffffffffffffff1673ffffffffffffffffffffffffffffffffffffffff1673ffffffffffffffffffffffffffffffffffffffff16815260200160018201805461057390611787565b80601f016020809104026020016040519081016040528092919081815260200182805461059f90611787565b80156105ec5780601f106105c1576101008083540402835291602001916105ec565b820191906000526020600020905b8154815290600101906020018083116105cf57829003601f168201915b5050505050815260200160028201805461060590611787565b80601f016020809104026020016040519081016040528092919081815260200182805461063190611787565b801561067e5780601f106106535761010080835404028352916020019161067e565b820191906000526020600020905b81548152906001019060200180831161066157829003601f168201915b5050505050815260200160038201805461069790611787565b80601f01602080910402602001604051908101604052809291908181526020018280546106c390611787565b80156107105780601f106106e557610100808354040283529160200191610710565b820191906000526020600020905b8154815290600101906020018083116106f357829003601f168201915b50505050508152505081526020016040518060200160405280600081525081525090506107d6565b5b60405180606001604052806000151581526020016040518060800160405280600073ffffffffffffffffffffffffffffffffffffffff1681526020016040518060200160405280600081525081526020016040518060200160405280600081525081526020016040518060200160405280600081525081525081526020016040518060a0016040528060798152602001611c1a6079913981525090505b919050565b3373ffffffffffffffffffffffffffffffffffffffff16816000015173ffffffffffffffffffffffffffffffffffffffff1603610a675761081b81610f2a565b15610a66576040518060800160405280826000015173ffffffffffffffffffffffffffffffffffffffff16815260200182602001518152602001826040015181526020018260600151815250600080836000015173ffffffffffffffffffffffffffffffffffffffff1673ffffffffffffffffffffffffffffffffffffffff16815260200190815260200160002060008201518160000160006101000a81548173ffffffffffffffffffffffffffffffffffffffff021916908373ffffffffffffffffffffffffffffffffffffffff1602179055506020820151816001019081610905919061196e565b50604082015181600201908161091b919061196e565b506060820151816003019081610931919061196e565b509050506040518060800160405280826000015173ffffffffffffffffffffffffffffffffffffffff16815260200182602001518152602001826040015181526020018260600151815250600182602001516040516109909190611a7c565b908152602001604051809103902060008201518160000160006101000a81548173ffffffffffffffffffffffffffffffffffffffff021916908373ffffffffffffffffffffffffffffffffffffffff16021790555060208201518160010190816109fa919061196e565b506040820151816002019081610a10919061196e565b506060820151816003019081610a26919061196e565b50905050600160028260200151604051610a409190611a7c565b908152602001604051809103902060006101000a81548160ff0219169083151502179055505b5b50565b610a72611044565b600073ffffffffffffffffffffffffffffffffffffffff166000808473ffffffffffffffffffffffffffffffffffffffff1673ffffffffffffffffffffffffffffffffffffffff16815260200190815260200160002060000160009054906101000a900473ffffffffffffffffffffffffffffffffffffffff1673ffffffffffffffffffffffffffffffffffffffff1614610c045760405180606001604052806001151581526020016000808573ffffffffffffffffffffffffffffffffffffffff1673ffffffffffffffffffffffffffffffffffffffff1681526020019081526020016000206003018054610b6790611787565b80601f0160208091040260200160405190810160405280929190818152602001828054610b9390611787565b8015610be05780601f10610bb557610100808354040283529160200191610be0565b820191906000526020600020905b815481529060010190602001808311610bc357829003601f168201915b50505050508152602001604051806020016040528060008152508152509050610c4c565b6040518060600160405280600015158152602001604051806020016040528060008152508152602001604051806060016040528060288152602001611c936028913981525090505b919050565b60008073ffffffffffffffffffffffffffffffffffffffff166000808473ffffffffffffffffffffffffffffffffffffffff1673ffffffffffffffffffffffffffffffffffffffff16815260200190815260200160002060000160009054906101000a900473ffffffffffffffffffffffffffffffffffffffff1673ffffffffffffffffffffffffffffffffffffffff1614610cf05760019050610cf5565b600090505b919050565b6000600282604051610d0c9190611a7c565b908152602001604051809103902060009054906101000a900460ff169050919050565b610d37611090565b6000600183604051610d499190611a7c565b90815260200160405180910390206001018054610d6590611787565b90501115610df8576040518060600160405280600115158152602001600184604051610d919190611a7c565b908152602001604051809103902060000160009054906101000a900473ffffffffffffffffffffffffffffffffffffffff1673ffffffffffffffffffffffffffffffffffffffff168152602001604051806020016040528060008152508152509050610e48565b6040518060600160405280600015158152602001600073ffffffffffffffffffffffffffffffffffffffff168152602001604051806060016040528060298152602001611ce36029913981525090505b919050565b60003373ffffffffffffffffffffffffffffffffffffffff168273ffffffffffffffffffffffffffffffffffffffff1603610f1f5782604051602001610e939190611a7c565b604051602081830303815290604052805190602001206000808473ffffffffffffffffffffffffffffffffffffffff1673ffffffffffffffffffffffffffffffffffffffff168152602001908152602001600020600201604051602001610efa9190611b16565b6040516020818303038152906040528051906020012003610f1e5760019050610f24565b5b600090505b92915050565b60003373ffffffffffffffffffffffffffffffffffffffff16826000015173ffffffffffffffffffffffffffffffffffffffff160361103a57610f708260000151610c51565b158015610f875750610f858260200151610cfa565b155b801561102b5750600360009054906101000a900473ffffffffffffffffffffffffffffffffffffffff1673ffffffffffffffffffffffffffffffffffffffff1663e779f450836040518263ffffffff1660e01b8152600401610fe99190611b9e565b602060405180830381865afa158015611006573d6000803e3d6000fd5b505050506040513d601f19601f8201168201806040525081019061102a9190611bec565b5b15611039576001905061103f565b5b600090505b919050565b604051806060016040528060001515815260200160608152602001606081525090565b60405180606001604052806000151581526020016110836110c9565b8152602001606081525090565b6040518060600160405280600015158152602001600073ffffffffffffffffffffffffffffffffffffffff168152602001606081525090565b6040518060800160405280600073ffffffffffffffffffffffffffffffffffffffff1681526020016060815260200160608152602001606081525090565b6000604051905090565b600080fd5b600080fd5b600073ffffffffffffffffffffffffffffffffffffffff82169050919050565b60006111468261111b565b9050919050565b6111568161113b565b811461116157600080fd5b50565b6000813590506111738161114d565b92915050565b60006020828403121561118f5761118e611111565b5b600061119d84828501611164565b91505092915050565b60008115159050919050565b6111bb816111a6565b82525050565b600081519050919050565b600082825260208201905092915050565b60005b838110156111fb5780820151818401526020810190506111e0565b60008484015250505050565b6000601f19601f8301169050919050565b6000611223826111c1565b61122d81856111cc565b935061123d8185602086016111dd565b61124681611207565b840191505092915050565b600060608301600083015161126960008601826111b2565b50602083015184820360208601526112818282611218565b9150506040830151848203604086015261129b8282611218565b9150508091505092915050565b600060208201905081810360008301526112c28184611251565b905092915050565b6112d38161113b565b82525050565b60006080830160008301516112f160008601826112ca565b50602083015184820360208601526113098282611218565b915050604083015184820360408601526113238282611218565b9150506060830151848203606086015261133d8282611218565b9150508091505092915050565b600060608301600083015161136260008601826111b2565b506020830151848203602086015261137a82826112d9565b915050604083015184820360408601526113948282611218565b9150508091505092915050565b600060208201905081810360008301526113bb818461134a565b905092915050565b600080fd5b7f4e487b7100000000000000000000000000000000000000000000000000000000600052604160045260246000fd5b61140082611207565b810181811067ffffffffffffffff8211171561141f5761141e6113c8565b5b80604052505050565b6000611432611107565b905061143e82826113f7565b919050565b600080fd5b600080fd5b600080fd5b600067ffffffffffffffff82111561146d5761146c6113c8565b5b61147682611207565b9050602081019050919050565b82818337600083830152505050565b60006114a56114a084611452565b611428565b9050828152602081018484840111156114c1576114c061144d565b5b6114cc848285611483565b509392505050565b600082601f8301126114e9576114e8611448565b5b81356114f9848260208601611492565b91505092915050565b600060808284031215611518576115176113c3565b5b6115226080611428565b9050600061153284828501611164565b600083015250602082013567ffffffffffffffff81111561155657611555611443565b5b611562848285016114d4565b602083015250604082013567ffffffffffffffff81111561158657611585611443565b5b611592848285016114d4565b604083015250606082013567ffffffffffffffff8111156115b6576115b5611443565b5b6115c2848285016114d4565b60608301525092915050565b6000602082840312156115e4576115e3611111565b5b600082013567ffffffffffffffff81111561160257611601611116565b5b61160e84828501611502565b91505092915050565b611620816111a6565b82525050565b600060208201905061163b6000830184611617565b92915050565b60006020828403121561165757611656611111565b5b600082013567ffffffffffffffff81111561167557611674611116565b5b611681848285016114d4565b91505092915050565b60006060830160008301516116a260008601826111b2565b5060208301516116b560208601826112ca565b50604083015184820360408601526116cd8282611218565b9150508091505092915050565b600060208201905081810360008301526116f4818461168a565b905092915050565b6000806040838503121561171357611712611111565b5b600083013567ffffffffffffffff81111561173157611730611116565b5b61173d858286016114d4565b925050602061174e85828601611164565b9150509250929050565b7f4e487b7100000000000000000000000000000000000000000000000000000000600052602260045260246000fd5b6000600282049050600182168061179f57607f821691505b6020821081036117b2576117b1611758565b5b50919050565b60008190508160005260206000209050919050565b60006020601f8301049050919050565b600082821b905092915050565b60006008830261181a7fffffffffffffffffffffffffffffffffffffffffffffffffffffffffffffffff826117dd565b61182486836117dd565b95508019841693508086168417925050509392505050565b6000819050919050565b6000819050919050565b600061186b6118666118618461183c565b611846565b61183c565b9050919050565b6000819050919050565b61188583611850565b61189961189182611872565b8484546117ea565b825550505050565b600090565b6118ae6118a1565b6118b981848461187c565b505050565b5b818110156118dd576118d26000826118a6565b6001810190506118bf565b5050565b601f821115611922576118f3816117b8565b6118fc846117cd565b8101602085101561190b578190505b61191f611917856117cd565b8301826118be565b50505b505050565b600082821c905092915050565b600061194560001984600802611927565b1980831691505092915050565b600061195e8383611934565b9150826002028217905092915050565b611977826111c1565b67ffffffffffffffff8111156119905761198f6113c8565b5b61199a8254611787565b6119a58282856118e1565b600060209050601f8311600181146119d857600084156119c6578287015190505b6119d08582611952565b865550611a38565b601f1984166119e6866117b8565b60005b82811015611a0e578489015182556001820191506020850194506020810190506119e9565b86831015611a2b5784890151611a27601f891682611934565b8355505b6001600288020188555050505b505050505050565b600081905092915050565b6000611a56826111c1565b611a608185611a40565b9350611a708185602086016111dd565b80840191505092915050565b6000611a888284611a4b565b915081905092915050565b60008154611aa081611787565b611aaa8186611a40565b94506001821660008114611ac55760018114611ada57611b0d565b60ff1983168652811515820286019350611b0d565b611ae3856117b8565b60005b83811015611b0557815481890152600182019150602081019050611ae6565b838801955050505b50505092915050565b6000611b228284611a93565b915081905092915050565b6000608083016000830151611b4560008601826112ca565b5060208301518482036020860152611b5d8282611218565b91505060408301518482036040860152611b778282611218565b91505060608301518482036060860152611b918282611218565b9150508091505092915050565b60006020820190508181036000830152611bb88184611b2d565b905092915050565b611bc9816111a6565b8114611bd457600080fd5b50565b600081519050611be681611bc0565b92915050565b600060208284031215611c0257611c01611111565b5b6000611c1084828501611bd7565b9150509291505056fe546865206163636f756e74206f6620746865207472616e73616374696f6e2065786563757465722073686f756c64206265207468652073616d65206f6e652061732074686520757365722077686963682074686520696e666f726d6174696f6e206973206265696e67207265717565737465642066726f6d2e5468657265206973206e6f207573657220776974682074686520666976656e206163636f756e742e5468657265206973206e6f207573657220776974682074686520676976656e206163636f756e742e5468657265206973206e6f207573657220776974682074686520676976656e20757365726e616d652ea2646970667358221220f1ec4ffebd2f77fa5d43c863c60cd1195ab1a5ff1b9ba149b6f6b5f61d101caa64736f6c63430008130033608060405234801561001057600080fd5b5033600160006101000a81548173ffffffffffffffffffffffffffffffffffffffff021916908373ffffffffffffffffffffffffffffffffffffffff16021790555033600260006101000a81548173ffffffffffffffffffffffffffffffffffffffff021916908373ffffffffffffffffffffffffffffffffffffffff1602179055506114a9806100a26000396000f3fe608060405234801561001057600080fd5b50600436106100365760003560e01c8063759ab1851461003b578063c47ebddc1461006b575b600080fd5b61005560048036038101906100509190610ada565b610087565b6040516100629190610dc7565b60405180910390f35b61008560048036038101906100809190610e15565b61061a565b005b61008f610815565b6000808054905067ffffffffffffffff8111156100af576100ae6108c4565b5b6040519080825280602002602001820160405280156100e857816020015b6100d5610838565b8152602001906001900390816100cd5790505b5090506000805b845181101561054457600160009054906101000a900473ffffffffffffffffffffffffffffffffffffffff1673ffffffffffffffffffffffffffffffffffffffff16631ac47dd03387848151811061014a57610149610ee4565b5b60200260200101516040518363ffffffff1660e01b815260040161016f929190610f6c565b602060405180830381865afa15801561018c573d6000803e3d6000fd5b505050506040513d601f19601f820116820180604052508101906101b09190610fc8565b156105315760005b60008054905081101561052f578582815181106101d8576101d7610ee4565b5b60200260200101516040516020016101f09190611031565b604051602081830303815290604052805190602001206000828154811061021a57610219610ee4565b5b906000526020600020906006020160000160405160200161023b9190611140565b604051602081830303815290604052805190602001200361051c576000818154811061026a57610269610ee4565b5b90600052602060002090600602016040518060c001604052908160008201805461029390611077565b80601f01602080910402602001604051908101604052809291908181526020018280546102bf90611077565b801561030c5780601f106102e15761010080835404028352916020019161030c565b820191906000526020600020905b8154815290600101906020018083116102ef57829003601f168201915b505050505081526020016001820160009054906101000a900473ffffffffffffffffffffffffffffffffffffffff1673ffffffffffffffffffffffffffffffffffffffff1673ffffffffffffffffffffffffffffffffffffffff1681526020016002820154815260200160038201805461038590611077565b80601f01602080910402602001604051908101604052809291908181526020018280546103b190611077565b80156103fe5780601f106103d3576101008083540402835291602001916103fe565b820191906000526020600020905b8154815290600101906020018083116103e157829003601f168201915b5050505050815260200160048201805461041790611077565b80601f016020809104026020016040519081016040528092919081815260200182805461044390611077565b80156104905780601f1061046557610100808354040283529160200191610490565b820191906000526020600020905b81548152906001019060200180831161047357829003601f168201915b505050505081526020016005820160009054906101000a900473ffffffffffffffffffffffffffffffffffffffff1673ffffffffffffffffffffffffffffffffffffffff1673ffffffffffffffffffffffffffffffffffffffff168152505084848151811061050257610501610ee4565b5b6020026020010181905250828061051890611186565b9350505b808061052790611186565b9150506101b8565b505b808061053c90611186565b9150506100ef565b50808252600081146105865760405180606001604052806001151581526020018381526020016040518060200160405280600081525081525092505050610615565b6040518060600160405280600015158152602001600067ffffffffffffffff8111156105b5576105b46108c4565b5b6040519080825280602002602001820160405280156105ee57816020015b6105db610838565b8152602001906001900390816105d35790505b5081526020016040518060600160405280603c8152602001611438603c9139815250925050505b919050565b600260009054906101000a900473ffffffffffffffffffffffffffffffffffffffff1673ffffffffffffffffffffffffffffffffffffffff163373ffffffffffffffffffffffffffffffffffffffff161480156106a257508273ffffffffffffffffffffffffffffffffffffffff168373ffffffffffffffffffffffffffffffffffffffff16145b1561080e5760006040518060c001604052808681526020018573ffffffffffffffffffffffffffffffffffffffff1681526020014281526020018381526020018481526020018773ffffffffffffffffffffffffffffffffffffffff168152509050600081908060018154018082558091505060019003906000526020600020906006020160009091909190915060008201518160000190816107459190611365565b5060208201518160010160006101000a81548173ffffffffffffffffffffffffffffffffffffffff021916908373ffffffffffffffffffffffffffffffffffffffff1602179055506040820151816002015560608201518160030190816107ac9190611365565b5060808201518160040190816107c29190611365565b5060a08201518160050160006101000a81548173ffffffffffffffffffffffffffffffffffffffff021916908373ffffffffffffffffffffffffffffffffffffffff1602179055505050505b5050505050565b604051806060016040528060001515815260200160608152602001606081525090565b6040518060c0016040528060608152602001600073ffffffffffffffffffffffffffffffffffffffff168152602001600081526020016060815260200160608152602001600073ffffffffffffffffffffffffffffffffffffffff1681525090565b6000604051905090565b600080fd5b600080fd5b600080fd5b6000601f19601f8301169050919050565b7f4e487b7100000000000000000000000000000000000000000000000000000000600052604160045260246000fd5b6108fc826108b3565b810181811067ffffffffffffffff8211171561091b5761091a6108c4565b5b80604052505050565b600061092e61089a565b905061093a82826108f3565b919050565b600067ffffffffffffffff82111561095a576109596108c4565b5b602082029050602081019050919050565b600080fd5b600080fd5b600067ffffffffffffffff8211156109905761098f6108c4565b5b610999826108b3565b9050602081019050919050565b82818337600083830152505050565b60006109c86109c384610975565b610924565b9050828152602081018484840111156109e4576109e3610970565b5b6109ef8482856109a6565b509392505050565b600082601f830112610a0c57610a0b6108ae565b5b8135610a1c8482602086016109b5565b91505092915050565b6000610a38610a338461093f565b610924565b90508083825260208201905060208402830185811115610a5b57610a5a61096b565b5b835b81811015610aa257803567ffffffffffffffff811115610a8057610a7f6108ae565b5b808601610a8d89826109f7565b85526020850194505050602081019050610a5d565b5050509392505050565b600082601f830112610ac157610ac06108ae565b5b8135610ad1848260208601610a25565b91505092915050565b600060208284031215610af057610aef6108a4565b5b600082013567ffffffffffffffff811115610b0e57610b0d6108a9565b5b610b1a84828501610aac565b91505092915050565b60008115159050919050565b610b3881610b23565b82525050565b600081519050919050565b600082825260208201905092915050565b6000819050602082019050919050565b600081519050919050565b600082825260208201905092915050565b60005b83811015610ba4578082015181840152602081019050610b89565b60008484015250505050565b6000610bbb82610b6a565b610bc58185610b75565b9350610bd5818560208601610b86565b610bde816108b3565b840191505092915050565b600073ffffffffffffffffffffffffffffffffffffffff82169050919050565b6000610c1482610be9565b9050919050565b610c2481610c09565b82525050565b6000819050919050565b610c3d81610c2a565b82525050565b600060c0830160008301518482036000860152610c608282610bb0565b9150506020830151610c756020860182610c1b565b506040830151610c886040860182610c34565b5060608301518482036060860152610ca08282610bb0565b91505060808301518482036080860152610cba8282610bb0565b91505060a0830151610ccf60a0860182610c1b565b508091505092915050565b6000610ce68383610c43565b905092915050565b6000602082019050919050565b6000610d0682610b3e565b610d108185610b49565b935083602082028501610d2285610b5a565b8060005b85811015610d5e5784840389528151610d3f8582610cda565b9450610d4a83610cee565b925060208a01995050600181019050610d26565b50829750879550505050505092915050565b6000606083016000830151610d886000860182610b2f565b5060208301518482036020860152610da08282610cfb565b91505060408301518482036040860152610dba8282610bb0565b9150508091505092915050565b60006020820190508181036000830152610de18184610d70565b905092915050565b610df281610c09565b8114610dfd57600080fd5b50565b600081359050610e0f81610de9565b92915050565b600080600080600060a08688031215610e3157610e306108a4565b5b6000610e3f88828901610e00565b955050602086013567ffffffffffffffff811115610e6057610e5f6108a9565b5b610e6c888289016109f7565b9450506040610e7d88828901610e00565b935050606086013567ffffffffffffffff811115610e9e57610e9d6108a9565b5b610eaa888289016109f7565b925050608086013567ffffffffffffffff811115610ecb57610eca6108a9565b5b610ed7888289016109f7565b9150509295509295909350565b7f4e487b7100000000000000000000000000000000000000000000000000000000600052603260045260246000fd5b610f1c81610c09565b82525050565b600082825260208201905092915050565b6000610f3e82610b6a565b610f488185610f22565b9350610f58818560208601610b86565b610f61816108b3565b840191505092915050565b6000604082019050610f816000830185610f13565b8181036020830152610f938184610f33565b90509392505050565b610fa581610b23565b8114610fb057600080fd5b50565b600081519050610fc281610f9c565b92915050565b600060208284031215610fde57610fdd6108a4565b5b6000610fec84828501610fb3565b91505092915050565b600081905092915050565b600061100b82610b6a565b6110158185610ff5565b9350611025818560208601610b86565b80840191505092915050565b600061103d8284611000565b915081905092915050565b7f4e487b7100000000000000000000000000000000000000000000000000000000600052602260045260246000fd5b6000600282049050600182168061108f57607f821691505b6020821081036110a2576110a1611048565b5b50919050565b60008190508160005260206000209050919050565b600081546110ca81611077565b6110d48186610ff5565b945060018216600081146110ef576001811461110457611137565b60ff1983168652811515820286019350611137565b61110d856110a8565b60005b8381101561112f57815481890152600182019150602081019050611110565b838801955050505b50505092915050565b600061114c82846110bd565b915081905092915050565b7f4e487b7100000000000000000000000000000000000000000000000000000000600052601160045260246000fd5b600061119182610c2a565b91507fffffffffffffffffffffffffffffffffffffffffffffffffffffffffffffffff82036111c3576111c2611157565b5b600182019050919050565b60006020601f8301049050919050565b600082821b905092915050565b60006008830261121b7fffffffffffffffffffffffffffffffffffffffffffffffffffffffffffffffff826111de565b61122586836111de565b95508019841693508086168417925050509392505050565b6000819050919050565b600061126261125d61125884610c2a565b61123d565b610c2a565b9050919050565b6000819050919050565b61127c83611247565b61129061128882611269565b8484546111eb565b825550505050565b600090565b6112a5611298565b6112b0818484611273565b505050565b5b818110156112d4576112c960008261129d565b6001810190506112b6565b5050565b601f821115611319576112ea816110a8565b6112f3846111ce565b81016020851015611302578190505b61131661130e856111ce565b8301826112b5565b50505b505050565b600082821c905092915050565b600061133c6000198460080261131e565b1980831691505092915050565b6000611355838361132b565b9150826002028217905092915050565b61136e82610b6a565b67ffffffffffffffff811115611387576113866108c4565b5b6113918254611077565b61139c8282856112d8565b600060209050601f8311600181146113cf57600084156113bd578287015190505b6113c78582611349565b86555061142f565b601f1984166113dd866110a8565b60005b82811015611405578489015182556001820191506020850194506020810190506113e0565b86831015611422578489015161141e601f89168261132b565b8355505b6001600288020188555050505b50505050505056fe546865207472616e73616374696f6e2065786563757465722068617320746f206265206173736f6369617465642077697468207468652066696c652ea2646970667358221220171a275f2ca1e7aedd5ae29f88014c6da9db054b615fb6454469acf78dfed5ee64736f6c63430008130033",
  "linkReferences": {},
  "deployedLinkReferences": {}
}