{
  "_format": "hh-sol-artifact-1",
  "contractName": "AccessControl",
  "sourceName": "contracts/AccessControl.sol",
  "abi": [
    {
      "inputs": [
        {
          "internalType": "address",
          "name": "fileRegisterContract",
          "type": "address"
        }
      ],
      "stateMutability": "nonpayable",
      "type": "constructor"
    },
    {
      "inputs": [
        {
          "components": [
            {
              "internalType": "address",
              "name": "account",
              "type": "address"
            },
            {
              "internalType": "string",
              "name": "userName",
              "type": "string"
            },
            {
              "internalType": "string",
              "name": "publicKey",
              "type": "string"
            },
            {
              "internalType": "string",
              "name": "privateKey",
              "type": "string"
            }
          ],
          "internalType": "struct UserRegister.User",
          "name": "user",
          "type": "tuple"
        },
        {
          "components": [
            {
              "internalType": "string",
              "name": "ipfsCID",
              "type": "string"
            },
            {
              "internalType": "string",
              "name": "fileName",
              "type": "string"
            },
            {
              "internalType": "address",
              "name": "owner",
              "type": "address"
            },
            {
              "internalType": "string",
              "name": "fileType",
              "type": "string"
            },
            {
              "internalType": "string",
              "name": "iv",
              "type": "string"
            }
          ],
          "internalType": "struct FileRegister.File",
          "name": "file",
          "type": "tuple"
        }
      ],
      "name": "getEncSymmetricKeyFileUser",
      "outputs": [
        {
          "internalType": "string",
          "name": "",
          "type": "string"
        }
      ],
      "stateMutability": "view",
      "type": "function"
    },
    {
      "inputs": [
        {
          "components": [
            {
              "internalType": "address",
              "name": "account",
              "type": "address"
            },
            {
              "internalType": "string",
              "name": "userName",
              "type": "string"
            },
            {
              "internalType": "string",
              "name": "publicKey",
              "type": "string"
            },
            {
              "internalType": "string",
              "name": "privateKey",
              "type": "string"
            }
          ],
          "internalType": "struct UserRegister.User",
          "name": "user",
          "type": "tuple"
        },
        {
          "components": [
            {
              "internalType": "string",
              "name": "ipfsCID",
              "type": "string"
            },
            {
              "internalType": "string",
              "name": "fileName",
              "type": "string"
            },
            {
              "internalType": "address",
              "name": "owner",
              "type": "address"
            },
            {
              "internalType": "string",
              "name": "fileType",
              "type": "string"
            },
            {
              "internalType": "string",
              "name": "iv",
              "type": "string"
            }
          ],
          "internalType": "struct FileRegister.File",
          "name": "file",
          "type": "tuple"
        }
      ],
      "name": "getPermissionsOverFile",
      "outputs": [
        {
          "internalType": "string[]",
          "name": "",
          "type": "string[]"
        }
      ],
      "stateMutability": "view",
      "type": "function"
    },
    {
      "inputs": [
        {
          "internalType": "address",
          "name": "account",
          "type": "address"
        }
      ],
      "name": "getUserFiles",
      "outputs": [
        {
          "components": [
            {
              "internalType": "bool",
              "name": "success",
              "type": "bool"
            },
            {
              "components": [
                {
                  "internalType": "string",
                  "name": "ipfsCID",
                  "type": "string"
                },
                {
                  "internalType": "string",
                  "name": "fileName",
                  "type": "string"
                },
                {
                  "internalType": "address",
                  "name": "owner",
                  "type": "address"
                },
                {
                  "internalType": "string",
                  "name": "fileType",
                  "type": "string"
                },
                {
                  "internalType": "string",
                  "name": "iv",
                  "type": "string"
                }
              ],
              "internalType": "struct FileRegister.File[]",
              "name": "files",
              "type": "tuple[]"
            }
          ],
          "internalType": "struct AccessControl.ResultAction",
          "name": "",
          "type": "tuple"
        }
      ],
      "stateMutability": "view",
      "type": "function"
    },
    {
      "inputs": [
        {
          "components": [
            {
              "internalType": "address",
              "name": "account",
              "type": "address"
            },
            {
              "internalType": "string",
              "name": "userName",
              "type": "string"
            },
            {
              "internalType": "string",
              "name": "publicKey",
              "type": "string"
            },
            {
              "internalType": "string",
              "name": "privateKey",
              "type": "string"
            }
          ],
          "internalType": "struct UserRegister.User",
          "name": "user",
          "type": "tuple"
        },
        {
          "components": [
            {
              "internalType": "string",
              "name": "ipfsCID",
              "type": "string"
            },
            {
              "internalType": "string",
              "name": "fileName",
              "type": "string"
            },
            {
              "internalType": "address",
              "name": "owner",
              "type": "address"
            },
            {
              "internalType": "string",
              "name": "fileType",
              "type": "string"
            },
            {
              "internalType": "string",
              "name": "iv",
              "type": "string"
            }
          ],
          "internalType": "struct FileRegister.File",
          "name": "file",
          "type": "tuple"
        },
        {
          "internalType": "string",
          "name": "encSymmetricKey",
          "type": "string"
        }
      ],
      "name": "uploadFile",
      "outputs": [],
      "stateMutability": "nonpayable",
      "type": "function"
    },
    {
      "inputs": [
        {
          "components": [
            {
              "internalType": "address",
              "name": "account",
              "type": "address"
            },
            {
              "internalType": "string",
              "name": "userName",
              "type": "string"
            },
            {
              "internalType": "string",
              "name": "publicKey",
              "type": "string"
            },
            {
              "internalType": "string",
              "name": "privateKey",
              "type": "string"
            }
          ],
          "internalType": "struct UserRegister.User",
          "name": "user",
          "type": "tuple"
        },
        {
          "components": [
            {
              "internalType": "string",
              "name": "ipfsCID",
              "type": "string"
            },
            {
              "internalType": "string",
              "name": "fileName",
              "type": "string"
            },
            {
              "internalType": "address",
              "name": "owner",
              "type": "address"
            },
            {
              "internalType": "string",
              "name": "fileType",
              "type": "string"
            },
            {
              "internalType": "string",
              "name": "iv",
              "type": "string"
            }
          ],
          "internalType": "struct FileRegister.File",
          "name": "file",
          "type": "tuple"
        }
      ],
      "name": "userAssociatedWithFile",
      "outputs": [
        {
          "internalType": "bool",
          "name": "",
          "type": "bool"
        }
      ],
      "stateMutability": "view",
      "type": "function"
    }
  ],
  "bytecode": "0x60806040523480156200001157600080fd5b5060405162001f8738038062001f878339818101604052810190620000379190620000e9565b80600160006101000a81548173ffffffffffffffffffffffffffffffffffffffff021916908373ffffffffffffffffffffffffffffffffffffffff160217905550506200011b565b600080fd5b600073ffffffffffffffffffffffffffffffffffffffff82169050919050565b6000620000b18262000084565b9050919050565b620000c381620000a4565b8114620000cf57600080fd5b50565b600081519050620000e381620000b8565b92915050565b6000602082840312156200010257620001016200007f565b5b60006200011284828501620000d2565b91505092915050565b611e5c806200012b6000396000f3fe608060405234801561001057600080fd5b50600436106100575760003560e01c80631fc379221461005c578063533f21341461008c5780635d02eece146100bc578063ad4d2bb2146100ec578063de6b9f7d1461011c575b600080fd5b61007660048036038101906100719190610e69565b610138565b60405161008391906110da565b60405180910390f35b6100a660048036038101906100a19190611403565b610417565b6040516100b3919061153d565b60405180910390f35b6100d660048036038101906100d19190611403565b61068e565b6040516100e391906115a9565b60405180910390f35b61010660048036038101906101019190611403565b61087f565b60405161011391906115da565b60405180910390f35b610136600480360381019061013191906115f5565b6109b9565b005b610140610cbc565b6000808054905067ffffffffffffffff8111156101605761015f611101565b5b60405190808252806020026020018201604052801561019957816020015b610186610cd8565b81526020019060019003908161017e5790505b5090506000805b6000805490508110156103c8578473ffffffffffffffffffffffffffffffffffffffff16600082815481106101d8576101d761169c565b5b906000526020600020906004020160000160009054906101000a900473ffffffffffffffffffffffffffffffffffffffff1673ffffffffffffffffffffffffffffffffffffffff16036103b557600080828154811061023a5761023961169c565b5b90600052602060002090600402016001018054610256906116fa565b80601f0160208091040260200160405190810160405280929190818152602001828054610282906116fa565b80156102cf5780601f106102a4576101008083540402835291602001916102cf565b820191906000526020600020905b8154815290600101906020018083116102b257829003601f168201915b505050505090506000600160009054906101000a900473ffffffffffffffffffffffffffffffffffffffff1673ffffffffffffffffffffffffffffffffffffffff16639f5937f8836040518263ffffffff1660e01b815260040161033391906115a9565b600060405180830381865afa158015610350573d6000803e3d6000fd5b505050506040513d6000823e3d601f19601f820116820180604052508101906103799190611944565b9050600081602001519050808686815181106103985761039761169c565b5b602002602001018190525084806103ae906119c6565b9550505050505b80806103c0906119c6565b9150506101a0565b50808252600081146103f55760405180604001604052806001151581526020018381525092505050610412565b604051806040016040528060001515815260200183815250925050505b919050565b606060005b60008054905081101561063557836000015173ffffffffffffffffffffffffffffffffffffffff16600082815481106104585761045761169c565b5b906000526020600020906004020160000160009054906101000a900473ffffffffffffffffffffffffffffffffffffffff1673ffffffffffffffffffffffffffffffffffffffff16148015610520575082600001516040516020016104bd9190611a4a565b60405160208183030381529060405280519060200120600082815481106104e7576104e661169c565b5b90600052602060002090600402016001016040516020016105089190611af9565b60405160208183030381529060405280519060200120145b1561062257600081815481106105395761053861169c565b5b9060005260206000209060040201600301805480602002602001604051908101604052809291908181526020016000905b82821015610616578382906000526020600020018054610589906116fa565b80601f01602080910402602001604051908101604052809291908181526020018280546105b5906116fa565b80156106025780601f106105d757610100808354040283529160200191610602565b820191906000526020600020905b8154815290600101906020018083116105e557829003601f168201915b50505050508152602001906001019061056a565b50505050915050610688565b808061062d906119c6565b91505061041c565b50600067ffffffffffffffff81111561065157610650611101565b5b60405190808252806020026020018201604052801561068457816020015b606081526020019060019003908161066f5790505b5090505b92915050565b606060005b60008054905081101561086557836000015173ffffffffffffffffffffffffffffffffffffffff16600082815481106106cf576106ce61169c565b5b906000526020600020906004020160000160009054906101000a900473ffffffffffffffffffffffffffffffffffffffff1673ffffffffffffffffffffffffffffffffffffffff16148015610797575082600001516040516020016107349190611a4a565b604051602081830303815290604052805190602001206000828154811061075e5761075d61169c565b5b906000526020600020906004020160010160405160200161077f9190611af9565b60405160208183030381529060405280519060200120145b1561085257600081815481106107b0576107af61169c565b5b906000526020600020906004020160020180546107cc906116fa565b80601f01602080910402602001604051908101604052809291908181526020018280546107f8906116fa565b80156108455780601f1061081a57610100808354040283529160200191610845565b820191906000526020600020905b81548152906001019060200180831161082857829003601f168201915b5050505050915050610879565b808061085d906119c6565b915050610693565b506040518060200160405280600081525090505b92915050565b600080600090505b6000805490508110156109ad57836000015173ffffffffffffffffffffffffffffffffffffffff16600082815481106108c3576108c261169c565b5b906000526020600020906004020160000160009054906101000a900473ffffffffffffffffffffffffffffffffffffffff1673ffffffffffffffffffffffffffffffffffffffff1614801561098b575082600001516040516020016109289190611a4a565b60405160208183030381529060405280519060200120600082815481106109525761095161169c565b5b90600052602060002090600402016001016040516020016109739190611af9565b60405160208183030381529060405280519060200120145b1561099a5760019150506109b3565b80806109a5906119c6565b915050610887565b50600090505b92915050565b60006109c5848461087f565b905080156109d35750610cb7565b6000600367ffffffffffffffff8111156109f0576109ef611101565b5b604051908082528060200260200182016040528015610a2357816020015b6060815260200190600190039081610a0e5790505b5090506040518060400160405280600881526020017f646f776e6c6f616400000000000000000000000000000000000000000000000081525081600081518110610a7057610a6f61169c565b5b60200260200101819052506040518060400160405280600681526020017f64656c657465000000000000000000000000000000000000000000000000000081525081600181518110610ac557610ac461169c565b5b60200260200101819052506040518060400160405280600581526020017f736861726500000000000000000000000000000000000000000000000000000081525081600281518110610b1a57610b1961169c565b5b602002602001018190525060006040518060800160405280876000015173ffffffffffffffffffffffffffffffffffffffff16815260200186600001518152602001858152602001838152509050600081908060018154018082558091505060019003906000526020600020906004020160009091909190915060008201518160000160006101000a81548173ffffffffffffffffffffffffffffffffffffffff021916908373ffffffffffffffffffffffffffffffffffffffff1602179055506020820151816001019081610bf09190611ca7565b506040820151816002019081610c069190611ca7565b506060820151816003019080519060200190610c23929190610d1d565b505050600160009054906101000a900473ffffffffffffffffffffffffffffffffffffffff1673ffffffffffffffffffffffffffffffffffffffff16639aa7f418866040518263ffffffff1660e01b8152600401610c819190611e04565b600060405180830381600087803b158015610c9b57600080fd5b505af1158015610caf573d6000803e3d6000fd5b505050505050505b505050565b6040518060400160405280600015158152602001606081525090565b6040518060a001604052806060815260200160608152602001600073ffffffffffffffffffffffffffffffffffffffff16815260200160608152602001606081525090565b828054828255906000526020600020908101928215610d65579160200282015b82811115610d64578251829081610d549190611ca7565b5091602001919060010190610d3d565b5b509050610d729190610d76565b5090565b5b80821115610d965760008181610d8d9190610d9a565b50600101610d77565b5090565b508054610da6906116fa565b6000825580601f10610db85750610dd7565b601f016020900490600052602060002090810190610dd69190610dda565b5b50565b5b80821115610df3576000816000905550600101610ddb565b5090565b6000604051905090565b600080fd5b600080fd5b600073ffffffffffffffffffffffffffffffffffffffff82169050919050565b6000610e3682610e0b565b9050919050565b610e4681610e2b565b8114610e5157600080fd5b50565b600081359050610e6381610e3d565b92915050565b600060208284031215610e7f57610e7e610e01565b5b6000610e8d84828501610e54565b91505092915050565b60008115159050919050565b610eab81610e96565b82525050565b600081519050919050565b600082825260208201905092915050565b6000819050602082019050919050565b600081519050919050565b600082825260208201905092915050565b60005b83811015610f17578082015181840152602081019050610efc565b60008484015250505050565b6000601f19601f8301169050919050565b6000610f3f82610edd565b610f498185610ee8565b9350610f59818560208601610ef9565b610f6281610f23565b840191505092915050565b610f7681610e2b565b82525050565b600060a0830160008301518482036000860152610f998282610f34565b91505060208301518482036020860152610fb38282610f34565b9150506040830151610fc86040860182610f6d565b5060608301518482036060860152610fe08282610f34565b91505060808301518482036080860152610ffa8282610f34565b9150508091505092915050565b60006110138383610f7c565b905092915050565b6000602082019050919050565b600061103382610eb1565b61103d8185610ebc565b93508360208202850161104f85610ecd565b8060005b8581101561108b578484038952815161106c8582611007565b94506110778361101b565b925060208a01995050600181019050611053565b50829750879550505050505092915050565b60006040830160008301516110b56000860182610ea2565b50602083015184820360208601526110cd8282611028565b9150508091505092915050565b600060208201905081810360008301526110f4818461109d565b905092915050565b600080fd5b7f4e487b7100000000000000000000000000000000000000000000000000000000600052604160045260246000fd5b61113982610f23565b810181811067ffffffffffffffff8211171561115857611157611101565b5b80604052505050565b600061116b610df7565b90506111778282611130565b919050565b600080fd5b600080fd5b600080fd5b600067ffffffffffffffff8211156111a6576111a5611101565b5b6111af82610f23565b9050602081019050919050565b82818337600083830152505050565b60006111de6111d98461118b565b611161565b9050828152602081018484840111156111fa576111f9611186565b5b6112058482856111bc565b509392505050565b600082601f83011261122257611221611181565b5b81356112328482602086016111cb565b91505092915050565b600060808284031215611251576112506110fc565b5b61125b6080611161565b9050600061126b84828501610e54565b600083015250602082013567ffffffffffffffff81111561128f5761128e61117c565b5b61129b8482850161120d565b602083015250604082013567ffffffffffffffff8111156112bf576112be61117c565b5b6112cb8482850161120d565b604083015250606082013567ffffffffffffffff8111156112ef576112ee61117c565b5b6112fb8482850161120d565b60608301525092915050565b600060a0828403121561131d5761131c6110fc565b5b61132760a0611161565b9050600082013567ffffffffffffffff8111156113475761134661117c565b5b6113538482850161120d565b600083015250602082013567ffffffffffffffff8111156113775761137661117c565b5b6113838482850161120d565b602083015250604061139784828501610e54565b604083015250606082013567ffffffffffffffff8111156113bb576113ba61117c565b5b6113c78482850161120d565b606083015250608082013567ffffffffffffffff8111156113eb576113ea61117c565b5b6113f78482850161120d565b60808301525092915050565b6000806040838503121561141a57611419610e01565b5b600083013567ffffffffffffffff81111561143857611437610e06565b5b6114448582860161123b565b925050602083013567ffffffffffffffff81111561146557611464610e06565b5b61147185828601611307565b9150509250929050565b600081519050919050565b600082825260208201905092915050565b6000819050602082019050919050565b60006114b38383610f34565b905092915050565b6000602082019050919050565b60006114d38261147b565b6114dd8185611486565b9350836020820285016114ef85611497565b8060005b8581101561152b578484038952815161150c85826114a7565b9450611517836114bb565b925060208a019950506001810190506114f3565b50829750879550505050505092915050565b6000602082019050818103600083015261155781846114c8565b905092915050565b600082825260208201905092915050565b600061157b82610edd565b611585818561155f565b9350611595818560208601610ef9565b61159e81610f23565b840191505092915050565b600060208201905081810360008301526115c38184611570565b905092915050565b6115d481610e96565b82525050565b60006020820190506115ef60008301846115cb565b92915050565b60008060006060848603121561160e5761160d610e01565b5b600084013567ffffffffffffffff81111561162c5761162b610e06565b5b6116388682870161123b565b935050602084013567ffffffffffffffff81111561165957611658610e06565b5b61166586828701611307565b925050604084013567ffffffffffffffff81111561168657611685610e06565b5b6116928682870161120d565b9150509250925092565b7f4e487b7100000000000000000000000000000000000000000000000000000000600052603260045260246000fd5b7f4e487b7100000000000000000000000000000000000000000000000000000000600052602260045260246000fd5b6000600282049050600182168061171257607f821691505b602082108103611725576117246116cb565b5b50919050565b61173481610e96565b811461173f57600080fd5b50565b6000815190506117518161172b565b92915050565b600061176a6117658461118b565b611161565b90508281526020810184848401111561178657611785611186565b5b611791848285610ef9565b509392505050565b600082601f8301126117ae576117ad611181565b5b81516117be848260208601611757565b91505092915050565b6000815190506117d681610e3d565b92915050565b600060a082840312156117f2576117f16110fc565b5b6117fc60a0611161565b9050600082015167ffffffffffffffff81111561181c5761181b61117c565b5b61182884828501611799565b600083015250602082015167ffffffffffffffff81111561184c5761184b61117c565b5b61185884828501611799565b602083015250604061186c848285016117c7565b604083015250606082015167ffffffffffffffff8111156118905761188f61117c565b5b61189c84828501611799565b606083015250608082015167ffffffffffffffff8111156118c0576118bf61117c565b5b6118cc84828501611799565b60808301525092915050565b6000604082840312156118ee576118ed6110fc565b5b6118f86040611161565b9050600061190884828501611742565b600083015250602082015167ffffffffffffffff81111561192c5761192b61117c565b5b611938848285016117dc565b60208301525092915050565b60006020828403121561195a57611959610e01565b5b600082015167ffffffffffffffff81111561197857611977610e06565b5b611984848285016118d8565b91505092915050565b7f4e487b7100000000000000000000000000000000000000000000000000000000600052601160045260246000fd5b6000819050919050565b60006119d1826119bc565b91507fffffffffffffffffffffffffffffffffffffffffffffffffffffffffffffffff8203611a0357611a0261198d565b5b600182019050919050565b600081905092915050565b6000611a2482610edd565b611a2e8185611a0e565b9350611a3e818560208601610ef9565b80840191505092915050565b6000611a568284611a19565b915081905092915050565b60008190508160005260206000209050919050565b60008154611a83816116fa565b611a8d8186611a0e565b94506001821660008114611aa85760018114611abd57611af0565b60ff1983168652811515820286019350611af0565b611ac685611a61565b60005b83811015611ae857815481890152600182019150602081019050611ac9565b838801955050505b50505092915050565b6000611b058284611a76565b915081905092915050565b60006020601f8301049050919050565b600082821b905092915050565b600060088302611b5d7fffffffffffffffffffffffffffffffffffffffffffffffffffffffffffffffff82611b20565b611b678683611b20565b95508019841693508086168417925050509392505050565b6000819050919050565b6000611ba4611b9f611b9a846119bc565b611b7f565b6119bc565b9050919050565b6000819050919050565b611bbe83611b89565b611bd2611bca82611bab565b848454611b2d565b825550505050565b600090565b611be7611bda565b611bf2818484611bb5565b505050565b5b81811015611c1657611c0b600082611bdf565b600181019050611bf8565b5050565b601f821115611c5b57611c2c81611a61565b611c3584611b10565b81016020851015611c44578190505b611c58611c5085611b10565b830182611bf7565b50505b505050565b600082821c905092915050565b6000611c7e60001984600802611c60565b1980831691505092915050565b6000611c978383611c6d565b9150826002028217905092915050565b611cb082610edd565b67ffffffffffffffff811115611cc957611cc8611101565b5b611cd382546116fa565b611cde828285611c1a565b600060209050601f831160018114611d115760008415611cff578287015190505b611d098582611c8b565b865550611d71565b601f198416611d1f86611a61565b60005b82811015611d4757848901518255600182019150602085019450602081019050611d22565b86831015611d645784890151611d60601f891682611c6d565b8355505b6001600288020188555050505b505050505050565b600060a0830160008301518482036000860152611d968282610f34565b91505060208301518482036020860152611db08282610f34565b9150506040830151611dc56040860182610f6d565b5060608301518482036060860152611ddd8282610f34565b91505060808301518482036080860152611df78282610f34565b9150508091505092915050565b60006020820190508181036000830152611e1e8184611d79565b90509291505056fea26469706673582212202e05f3fff7a9f8d0af8ea0f28703521b8e15cb0c8be1916d5f28a45ebf47e5b264736f6c63430008130033",
  "linkReferences": {},
  "deployedLinkReferences": {}
}