{
  "_format": "hh-sol-artifact-1",
  "contractName": "AccessControl",
  "sourceName": "contracts/AccessControl.sol",
  "abi": [
    {
      "inputs": [
        {
          "internalType": "address",
          "name": "fileRegisterContract",
          "type": "address"
        },
        {
          "internalType": "address",
          "name": "userRegisterContract",
          "type": "address"
        }
      ],
      "stateMutability": "nonpayable",
      "type": "constructor"
    },
    {
      "inputs": [
        {
          "internalType": "address",
          "name": "userAccount",
          "type": "address"
        },
        {
          "internalType": "string",
          "name": "fileIpfsCID",
          "type": "string"
        }
      ],
      "name": "elegibleToShare",
      "outputs": [
        {
          "internalType": "bool",
          "name": "",
          "type": "bool"
        }
      ],
      "stateMutability": "view",
      "type": "function"
    },
    {
      "inputs": [
        {
          "internalType": "address",
          "name": "userAccount",
          "type": "address"
        },
        {
          "internalType": "string",
          "name": "fileIpfsCID",
          "type": "string"
        }
      ],
      "name": "elegibleToUpdPermissions",
      "outputs": [
        {
          "internalType": "bool",
          "name": "",
          "type": "bool"
        }
      ],
      "stateMutability": "view",
      "type": "function"
    },
    {
      "inputs": [
        {
          "internalType": "address",
          "name": "userAccount",
          "type": "address"
        },
        {
          "internalType": "string",
          "name": "fileIpfsCID",
          "type": "string"
        }
      ],
      "name": "elegibleToUpload",
      "outputs": [
        {
          "internalType": "bool",
          "name": "",
          "type": "bool"
        }
      ],
      "stateMutability": "view",
      "type": "function"
    },
    {
      "inputs": [
        {
          "internalType": "address",
          "name": "accountUser",
          "type": "address"
        },
        {
          "internalType": "string",
          "name": "fileIpfsCID",
          "type": "string"
        }
      ],
      "name": "getEncSymmetricKeyFileUser",
      "outputs": [
        {
          "components": [
            {
              "internalType": "bool",
              "name": "success",
              "type": "bool"
            },
            {
              "internalType": "string",
              "name": "encSymmetricKey",
              "type": "string"
            }
          ],
          "internalType": "struct AccessControl.ResultActionString",
          "name": "",
          "type": "tuple"
        }
      ],
      "stateMutability": "view",
      "type": "function"
    },
    {
      "inputs": [
        {
          "internalType": "address",
          "name": "userAccount",
          "type": "address"
        },
        {
          "internalType": "string",
          "name": "fileIpfsCID",
          "type": "string"
        }
      ],
      "name": "getPermissionsOverFile",
      "outputs": [
        {
          "components": [
            {
              "internalType": "bool",
              "name": "success",
              "type": "bool"
            },
            {
              "internalType": "string[]",
              "name": "permissions",
              "type": "string[]"
            }
          ],
          "internalType": "struct AccessControl.ResultActionStringArray",
          "name": "",
          "type": "tuple"
        }
      ],
      "stateMutability": "view",
      "type": "function"
    },
    {
      "inputs": [
        {
          "internalType": "address",
          "name": "account",
          "type": "address"
        }
      ],
      "name": "getUserFiles",
      "outputs": [
        {
          "components": [
            {
              "internalType": "bool",
              "name": "success",
              "type": "bool"
            },
            {
              "components": [
                {
                  "internalType": "string",
                  "name": "ipfsCID",
                  "type": "string"
                },
                {
                  "internalType": "string",
                  "name": "fileName",
                  "type": "string"
                },
                {
                  "internalType": "address",
                  "name": "owner",
                  "type": "address"
                },
                {
                  "internalType": "string",
                  "name": "fileType",
                  "type": "string"
                },
                {
                  "internalType": "string",
                  "name": "iv",
                  "type": "string"
                }
              ],
              "internalType": "struct FileRegister.File[]",
              "name": "files",
              "type": "tuple[]"
            }
          ],
          "internalType": "struct AccessControl.ResultAction",
          "name": "",
          "type": "tuple"
        }
      ],
      "stateMutability": "view",
      "type": "function"
    },
    {
      "inputs": [
        {
          "internalType": "address",
          "name": "accountInput",
          "type": "address"
        },
        {
          "internalType": "address",
          "name": "accountList",
          "type": "address"
        },
        {
          "internalType": "string",
          "name": "ipfsCIDInput",
          "type": "string"
        },
        {
          "internalType": "string",
          "name": "ipfsCIDList",
          "type": "string"
        }
      ],
      "name": "isKeyEqual",
      "outputs": [
        {
          "internalType": "bool",
          "name": "",
          "type": "bool"
        }
      ],
      "stateMutability": "pure",
      "type": "function"
    },
    {
      "inputs": [
        {
          "internalType": "string",
          "name": "fileIpfsCID",
          "type": "string"
        }
      ],
      "name": "messageSenderAssociatedToFile",
      "outputs": [
        {
          "internalType": "bool",
          "name": "",
          "type": "bool"
        }
      ],
      "stateMutability": "view",
      "type": "function"
    },
    {
      "inputs": [
        {
          "internalType": "address",
          "name": "userAccount",
          "type": "address"
        },
        {
          "internalType": "string",
          "name": "fileIpfsCID",
          "type": "string"
        },
        {
          "internalType": "string",
          "name": "encSymmetricKey",
          "type": "string"
        },
        {
          "internalType": "string[]",
          "name": "permissions",
          "type": "string[]"
        }
      ],
      "name": "shareFile",
      "outputs": [],
      "stateMutability": "nonpayable",
      "type": "function"
    },
    {
      "inputs": [
        {
          "internalType": "address",
          "name": "userAccount",
          "type": "address"
        },
        {
          "internalType": "string",
          "name": "fileIpfsCID",
          "type": "string"
        },
        {
          "internalType": "string[]",
          "name": "permissions",
          "type": "string[]"
        }
      ],
      "name": "updateUserFilePermissions",
      "outputs": [],
      "stateMutability": "nonpayable",
      "type": "function"
    },
    {
      "inputs": [
        {
          "internalType": "address",
          "name": "userAccount",
          "type": "address"
        },
        {
          "internalType": "string",
          "name": "fileIpfsCID",
          "type": "string"
        },
        {
          "internalType": "string",
          "name": "encSymmetricKey",
          "type": "string"
        }
      ],
      "name": "uploadFile",
      "outputs": [],
      "stateMutability": "nonpayable",
      "type": "function"
    },
    {
      "inputs": [
        {
          "internalType": "address",
          "name": "userAccount",
          "type": "address"
        },
        {
          "internalType": "string",
          "name": "fileIpfsCID",
          "type": "string"
        }
      ],
      "name": "userAssociatedWithFile",
      "outputs": [
        {
          "internalType": "bool",
          "name": "",
          "type": "bool"
        }
      ],
      "stateMutability": "view",
      "type": "function"
    },
    {
      "inputs": [
        {
          "internalType": "address",
          "name": "userAccount",
          "type": "address"
        },
        {
          "internalType": "string",
          "name": "fileIpfsCID",
          "type": "string"
        }
      ],
      "name": "userHasSharePermissionOverFile",
      "outputs": [
        {
          "internalType": "bool",
          "name": "",
          "type": "bool"
        }
      ],
      "stateMutability": "view",
      "type": "function"
    },
    {
      "inputs": [
        {
          "internalType": "address",
          "name": "userAccount",
          "type": "address"
        },
        {
          "internalType": "string",
          "name": "fileIpfsCID",
          "type": "string"
        },
        {
          "internalType": "string",
          "name": "encSymmetricKey",
          "type": "string"
        },
        {
          "internalType": "string[]",
          "name": "permissions",
          "type": "string[]"
        }
      ],
      "name": "verifyValidFields",
      "outputs": [
        {
          "internalType": "bool",
          "name": "",
          "type": "bool"
        }
      ],
      "stateMutability": "view",
      "type": "function"
    }
  ],
  "bytecode": "0x60806040523480156200001157600080fd5b5060405162002e6838038062002e6883398181016040528101906200003791906200012b565b81600160006101000a81548173ffffffffffffffffffffffffffffffffffffffff021916908373ffffffffffffffffffffffffffffffffffffffff16021790555080600260006101000a81548173ffffffffffffffffffffffffffffffffffffffff021916908373ffffffffffffffffffffffffffffffffffffffff160217905550505062000172565b600080fd5b600073ffffffffffffffffffffffffffffffffffffffff82169050919050565b6000620000f382620000c6565b9050919050565b6200010581620000e6565b81146200011157600080fd5b50565b6000815190506200012581620000fa565b92915050565b60008060408385031215620001455762000144620000c1565b5b6000620001558582860162000114565b9250506020620001688582860162000114565b9150509250929050565b612ce680620001826000396000f3fe608060405234801561001057600080fd5b50600436106100e95760003560e01c80638af34fbc1161008c578063c1f69fd611610066578063c1f69fd6146102a6578063d1312023146102d6578063dee63aa1146102f2578063f1fcc0bf14610322576100e9565b80638af34fbc1461022a578063a126d94c14610246578063b58ea3a214610276576100e9565b80631fc37922116100c85780631fc379221461016a5780632321f3181461019a578063299768c8146101ca5780635c99c71b146101fa576100e9565b8062c5e614146100ee578063173cd5581461010a5780631ac47dd01461013a575b600080fd5b61010860048036038101906101039190611dce565b610352565b005b610124600480360381019061011f9190611e89565b61047a565b604051610131919061207e565b60405180910390f35b610154600480360381019061014f9190611e89565b61073b565b60405161016191906120af565b60405180910390f35b610184600480360381019061017f91906120ca565b610888565b6040516101919190612290565b60405180910390f35b6101b460048036038101906101af9190611e89565b610bef565b6040516101c191906120af565b60405180910390f35b6101e460048036038101906101df91906122b2565b610cf3565b6040516101f191906120af565b60405180910390f35b610214600480360381019061020f91906122fb565b610e33565b60405161022191906120af565b60405180910390f35b610244600480360381019061023f919061239a565b610ec5565b005b610260600480360381019061025b9190611e89565b611042565b60405161026d9190612462565b60405180910390f35b610290600480360381019061028b9190611e89565b6112b5565b60405161029d91906120af565b60405180910390f35b6102c060048036038101906102bb9190611dce565b6113cc565b6040516102cd91906120af565b60405180910390f35b6102f060048036038101906102eb9190612484565b61158b565b005b61030c60048036038101906103079190611e89565b611805565b60405161031991906120af565b60405180910390f35b61033c60048036038101906103379190611e89565b611908565b60405161034991906120af565b60405180910390f35b61035c84846112b5565b1561047457600061036f858585856113cc565b9050801561047257600060405180608001604052808773ffffffffffffffffffffffffffffffffffffffff168152602001868152602001858152602001848152509050600081908060018154018082558091505060019003906000526020600020906004020160009091909190915060008201518160000160006101000a81548173ffffffffffffffffffffffffffffffffffffffff021916908373ffffffffffffffffffffffffffffffffffffffff160217905550602082015181600101908161043a9190612725565b5060408201518160020190816104509190612725565b50606082015181600301908051906020019061046d9291906119bd565b505050505b505b50505050565b610482611a16565b61048b82610cf3565b156106cc5760005b6000805490508110156106ca5761059e84600083815481106104b8576104b76127f7565b5b906000526020600020906004020160000160009054906101000a900473ffffffffffffffffffffffffffffffffffffffff1685600085815481106104ff576104fe6127f7565b5b9060005260206000209060040201600101805461051b9061253e565b80601f01602080910402602001604051908101604052809291908181526020018280546105479061253e565b80156105945780601f1061056957610100808354040283529160200191610594565b820191906000526020600020905b81548152906001019060200180831161057757829003601f168201915b5050505050610e33565b156106b7576040518060400160405280600115158152602001600083815481106105cb576105ca6127f7565b5b9060005260206000209060040201600301805480602002602001604051908101604052809291908181526020016000905b828210156106a857838290600052602060002001805461061b9061253e565b80601f01602080910402602001604051908101604052809291908181526020018280546106479061253e565b80156106945780601f1061066957610100808354040283529160200191610694565b820191906000526020600020905b81548152906001019060200180831161067757829003601f168201915b5050505050815260200190600101906105fc565b50505050815250915050610735565b80806106c290612855565b915050610493565b505b6040518060400160405280600015158152602001600067ffffffffffffffff8111156106fb576106fa611bbd565b5b60405190808252806020026020018201604052801561072e57816020015b60608152602001906001900390816107195790505b5081525090505b92915050565b600061074682610cf3565b1561087d5760005b60008054905081101561087b576108598460008381548110610773576107726127f7565b5b906000526020600020906004020160000160009054906101000a900473ffffffffffffffffffffffffffffffffffffffff1685600085815481106107ba576107b96127f7565b5b906000526020600020906004020160010180546107d69061253e565b80601f01602080910402602001604051908101604052809291908181526020018280546108029061253e565b801561084f5780601f106108245761010080835404028352916020019161084f565b820191906000526020600020905b81548152906001019060200180831161083257829003601f168201915b5050505050610e33565b15610868576001915050610882565b808061087390612855565b91505061074e565b505b600090505b92915050565b610890611a32565b8173ffffffffffffffffffffffffffffffffffffffff163373ffffffffffffffffffffffffffffffffffffffff1603610b7b576000808054905067ffffffffffffffff8111156108e3576108e2611bbd565b5b60405190808252806020026020018201604052801561091c57816020015b610909611a4e565b8152602001906001900390816109015790505b5090506000805b600080549050811015610b4b578473ffffffffffffffffffffffffffffffffffffffff166000828154811061095b5761095a6127f7565b5b906000526020600020906004020160000160009054906101000a900473ffffffffffffffffffffffffffffffffffffffff1673ffffffffffffffffffffffffffffffffffffffff1603610b385760008082815481106109bd576109bc6127f7565b5b906000526020600020906004020160010180546109d99061253e565b80601f0160208091040260200160405190810160405280929190818152602001828054610a059061253e565b8015610a525780601f10610a2757610100808354040283529160200191610a52565b820191906000526020600020905b815481529060010190602001808311610a3557829003601f168201915b505050505090506000600160009054906101000a900473ffffffffffffffffffffffffffffffffffffffff1673ffffffffffffffffffffffffffffffffffffffff16639f5937f8836040518263ffffffff1660e01b8152600401610ab691906128e7565b600060405180830381865afa158015610ad3573d6000803e3d6000fd5b505050506040513d6000823e3d601f19601f82011682018060405250810190610afc9190612b2c565b905060008160200151905080868681518110610b1b57610b1a6127f7565b5b60200260200101819052508480610b3190612855565b9550505050505b8080610b4390612855565b915050610923565b5080825260008114610b785760405180604001604052806001151581526020018381525092505050610bea565b50505b6040518060400160405280600015158152602001600067ffffffffffffffff811115610baa57610ba9611bbd565b5b604051908082528060200260200182016040528015610be357816020015b610bd0611a4e565b815260200190600190039081610bc85790505b5081525090505b919050565b60008273ffffffffffffffffffffffffffffffffffffffff163373ffffffffffffffffffffffffffffffffffffffff1614158015610cc85750600160009054906101000a900473ffffffffffffffffffffffffffffffffffffffff1673ffffffffffffffffffffffffffffffffffffffff166352a9baef84846040518363ffffffff1660e01b8152600401610c85929190612b84565b602060405180830381865afa158015610ca2573d6000803e3d6000fd5b505050506040513d601f19601f82011682018060405250810190610cc69190612bb4565b155b8015610cda5750610cd93383611908565b5b15610ce85760019050610ced565b600090505b92915050565b600080600090505b600080549050811015610e2857610e063360008381548110610d2057610d1f6127f7565b5b906000526020600020906004020160000160009054906101000a900473ffffffffffffffffffffffffffffffffffffffff168560008581548110610d6757610d666127f7565b5b90600052602060002090600402016001018054610d839061253e565b80601f0160208091040260200160405190810160405280929190818152602001828054610daf9061253e565b8015610dfc5780601f10610dd157610100808354040283529160200191610dfc565b820191906000526020600020905b815481529060010190602001808311610ddf57829003601f168201915b5050505050610e33565b15610e15576001915050610e2e565b8080610e2090612855565b915050610cfb565b50600090505b919050565b60008473ffffffffffffffffffffffffffffffffffffffff168473ffffffffffffffffffffffffffffffffffffffff16148015610ebb575082604051602001610e7c9190612c1d565b6040516020818303038152906040528051906020012082604051602001610ea39190612c1d565b60405160208183030381529060405280519060200120145b9050949350505050565b610ecf8383610bef565b1561103c5760005b60008054905081101561103a57610fe28460008381548110610efc57610efb6127f7565b5b906000526020600020906004020160000160009054906101000a900473ffffffffffffffffffffffffffffffffffffffff168560008581548110610f4357610f426127f7565b5b90600052602060002090600402016001018054610f5f9061253e565b80601f0160208091040260200160405190810160405280929190818152602001828054610f8b9061253e565b8015610fd85780601f10610fad57610100808354040283529160200191610fd8565b820191906000526020600020905b815481529060010190602001808311610fbb57829003601f168201915b5050505050610e33565b15611027578160008281548110610ffc57610ffb6127f7565b5b906000526020600020906004020160030190805190602001906110209291906119bd565b505061103d565b808061103290612855565b915050610ed7565b505b5b505050565b61104a611a93565b8273ffffffffffffffffffffffffffffffffffffffff163373ffffffffffffffffffffffffffffffffffffffff1614801561108b575061108a838361073b565b5b156112855760005b6000805490508110156112835761119e84600083815481106110b8576110b76127f7565b5b906000526020600020906004020160000160009054906101000a900473ffffffffffffffffffffffffffffffffffffffff1685600085815481106110ff576110fe6127f7565b5b9060005260206000209060040201600101805461111b9061253e565b80601f01602080910402602001604051908101604052809291908181526020018280546111479061253e565b80156111945780601f1061116957610100808354040283529160200191611194565b820191906000526020600020905b81548152906001019060200180831161117757829003601f168201915b5050505050610e33565b15611270576040518060400160405280600115158152602001600083815481106111cb576111ca6127f7565b5b906000526020600020906004020160020180546111e79061253e565b80601f01602080910402602001604051908101604052809291908181526020018280546112139061253e565b80156112605780601f1061123557610100808354040283529160200191611260565b820191906000526020600020905b81548152906001019060200180831161124357829003601f168201915b50505050508152509150506112af565b808061127b90612855565b915050611093565b505b60405180604001604052806000151581526020016040518060200160405280600081525081525090505b92915050565b60008273ffffffffffffffffffffffffffffffffffffffff163373ffffffffffffffffffffffffffffffffffffffff161415801561138e5750600160009054906101000a900473ffffffffffffffffffffffffffffffffffffffff1673ffffffffffffffffffffffffffffffffffffffff166352a9baef84846040518363ffffffff1660e01b815260040161134b929190612b84565b602060405180830381865afa158015611368573d6000803e3d6000fd5b505050506040513d601f19601f8201168201806040525081019061138c9190612bb4565b155b80156113a0575061139f3383611908565b5b80156113b357506113b1838361073b565b155b156113c157600190506113c6565b600090505b92915050565b60008073ffffffffffffffffffffffffffffffffffffffff168573ffffffffffffffffffffffffffffffffffffffff16141580156114a25750600260009054906101000a900473ffffffffffffffffffffffffffffffffffffffff1673ffffffffffffffffffffffffffffffffffffffff1663a240e426866040518263ffffffff1660e01b81526004016114609190612c34565b602060405180830381865afa15801561147d573d6000803e3d6000fd5b505050506040513d601f19601f820116820180604052508101906114a19190612bb4565b5b80156114b057506000845114155b80156115545750600160009054906101000a900473ffffffffffffffffffffffffffffffffffffffff1673ffffffffffffffffffffffffffffffffffffffff16639bccd6ad856040518263ffffffff1660e01b815260040161151291906128e7565b602060405180830381865afa15801561152f573d6000803e3d6000fd5b505050506040513d601f19601f820116820180604052508101906115539190612bb4565b5b801561156257506000835114155b801561157057506000825114155b1561157e5760019050611583565b600090505b949350505050565b6115958383611805565b15611800576000600367ffffffffffffffff8111156115b7576115b6611bbd565b5b6040519080825280602002602001820160405280156115ea57816020015b60608152602001906001900390816115d55790505b5090506040518060400160405280600581526020017f736861726500000000000000000000000000000000000000000000000000000081525081600081518110611637576116366127f7565b5b60200260200101819052506040518060400160405280600881526020017f646f776e6c6f61640000000000000000000000000000000000000000000000008152508160018151811061168c5761168b6127f7565b5b60200260200101819052506040518060400160405280600681526020017f64656c6574650000000000000000000000000000000000000000000000000000815250816002815181106116e1576116e06127f7565b5b602002602001018190525060006116fa858585856113cc565b905080156117fd57600060405180608001604052808773ffffffffffffffffffffffffffffffffffffffff168152602001868152602001858152602001848152509050600081908060018154018082558091505060019003906000526020600020906004020160009091909190915060008201518160000160006101000a81548173ffffffffffffffffffffffffffffffffffffffff021916908373ffffffffffffffffffffffffffffffffffffffff16021790555060208201518160010190816117c59190612725565b5060408201518160020190816117db9190612725565b5060608201518160030190805190602001906117f89291906119bd565b505050505b50505b505050565b60008273ffffffffffffffffffffffffffffffffffffffff163373ffffffffffffffffffffffffffffffffffffffff161480156118495750611847838361073b565b155b80156118ef5750600160009054906101000a900473ffffffffffffffffffffffffffffffffffffffff1673ffffffffffffffffffffffffffffffffffffffff166352a9baef84846040518363ffffffff1660e01b81526004016118ad929190612b84565b602060405180830381865afa1580156118ca573d6000803e3d6000fd5b505050506040513d601f19601f820116820180604052508101906118ee9190612bb4565b5b156118fd5760019050611902565b600090505b92915050565b600080611915848461047a565b60200151905060005b81518110156119b05760405160200161193690612c9b565b6040516020818303038152906040528051906020012082828151811061195f5761195e6127f7565b5b60200260200101516040516020016119779190612c1d565b604051602081830303815290604052805190602001200361199d576001925050506119b7565b80806119a890612855565b91505061191e565b5060009150505b92915050565b828054828255906000526020600020908101928215611a05579160200282015b82811115611a045782518290816119f49190612725565b50916020019190600101906119dd565b5b509050611a129190611aaf565b5090565b6040518060400160405280600015158152602001606081525090565b6040518060400160405280600015158152602001606081525090565b6040518060a001604052806060815260200160608152602001600073ffffffffffffffffffffffffffffffffffffffff16815260200160608152602001606081525090565b6040518060400160405280600015158152602001606081525090565b5b80821115611acf5760008181611ac69190611ad3565b50600101611ab0565b5090565b508054611adf9061253e565b6000825580601f10611af15750611b10565b601f016020900490600052602060002090810190611b0f9190611b13565b5b50565b5b80821115611b2c576000816000905550600101611b14565b5090565b6000604051905090565b600080fd5b600080fd5b600073ffffffffffffffffffffffffffffffffffffffff82169050919050565b6000611b6f82611b44565b9050919050565b611b7f81611b64565b8114611b8a57600080fd5b50565b600081359050611b9c81611b76565b92915050565b600080fd5b600080fd5b6000601f19601f8301169050919050565b7f4e487b7100000000000000000000000000000000000000000000000000000000600052604160045260246000fd5b611bf582611bac565b810181811067ffffffffffffffff82111715611c1457611c13611bbd565b5b80604052505050565b6000611c27611b30565b9050611c338282611bec565b919050565b600067ffffffffffffffff821115611c5357611c52611bbd565b5b611c5c82611bac565b9050602081019050919050565b82818337600083830152505050565b6000611c8b611c8684611c38565b611c1d565b905082815260208101848484011115611ca757611ca6611ba7565b5b611cb2848285611c69565b509392505050565b600082601f830112611ccf57611cce611ba2565b5b8135611cdf848260208601611c78565b91505092915050565b600067ffffffffffffffff821115611d0357611d02611bbd565b5b602082029050602081019050919050565b600080fd5b6000611d2c611d2784611ce8565b611c1d565b90508083825260208201905060208402830185811115611d4f57611d4e611d14565b5b835b81811015611d9657803567ffffffffffffffff811115611d7457611d73611ba2565b5b808601611d818982611cba565b85526020850194505050602081019050611d51565b5050509392505050565b600082601f830112611db557611db4611ba2565b5b8135611dc5848260208601611d19565b91505092915050565b60008060008060808587031215611de857611de7611b3a565b5b6000611df687828801611b8d565b945050602085013567ffffffffffffffff811115611e1757611e16611b3f565b5b611e2387828801611cba565b935050604085013567ffffffffffffffff811115611e4457611e43611b3f565b5b611e5087828801611cba565b925050606085013567ffffffffffffffff811115611e7157611e70611b3f565b5b611e7d87828801611da0565b91505092959194509250565b60008060408385031215611ea057611e9f611b3a565b5b6000611eae85828601611b8d565b925050602083013567ffffffffffffffff811115611ecf57611ece611b3f565b5b611edb85828601611cba565b9150509250929050565b60008115159050919050565b611efa81611ee5565b82525050565b600081519050919050565b600082825260208201905092915050565b6000819050602082019050919050565b600081519050919050565b600082825260208201905092915050565b60005b83811015611f66578082015181840152602081019050611f4b565b60008484015250505050565b6000611f7d82611f2c565b611f878185611f37565b9350611f97818560208601611f48565b611fa081611bac565b840191505092915050565b6000611fb78383611f72565b905092915050565b6000602082019050919050565b6000611fd782611f00565b611fe18185611f0b565b935083602082028501611ff385611f1c565b8060005b8581101561202f57848403895281516120108582611fab565b945061201b83611fbf565b925060208a01995050600181019050611ff7565b50829750879550505050505092915050565b60006040830160008301516120596000860182611ef1565b50602083015184820360208601526120718282611fcc565b9150508091505092915050565b600060208201905081810360008301526120988184612041565b905092915050565b6120a981611ee5565b82525050565b60006020820190506120c460008301846120a0565b92915050565b6000602082840312156120e0576120df611b3a565b5b60006120ee84828501611b8d565b91505092915050565b600081519050919050565b600082825260208201905092915050565b6000819050602082019050919050565b61212c81611b64565b82525050565b600060a083016000830151848203600086015261214f8282611f72565b915050602083015184820360208601526121698282611f72565b915050604083015161217e6040860182612123565b50606083015184820360608601526121968282611f72565b915050608083015184820360808601526121b08282611f72565b9150508091505092915050565b60006121c98383612132565b905092915050565b6000602082019050919050565b60006121e9826120f7565b6121f38185612102565b93508360208202850161220585612113565b8060005b85811015612241578484038952815161222285826121bd565b945061222d836121d1565b925060208a01995050600181019050612209565b50829750879550505050505092915050565b600060408301600083015161226b6000860182611ef1565b506020830151848203602086015261228382826121de565b9150508091505092915050565b600060208201905081810360008301526122aa8184612253565b905092915050565b6000602082840312156122c8576122c7611b3a565b5b600082013567ffffffffffffffff8111156122e6576122e5611b3f565b5b6122f284828501611cba565b91505092915050565b6000806000806080858703121561231557612314611b3a565b5b600061232387828801611b8d565b945050602061233487828801611b8d565b935050604085013567ffffffffffffffff81111561235557612354611b3f565b5b61236187828801611cba565b925050606085013567ffffffffffffffff81111561238257612381611b3f565b5b61238e87828801611cba565b91505092959194509250565b6000806000606084860312156123b3576123b2611b3a565b5b60006123c186828701611b8d565b935050602084013567ffffffffffffffff8111156123e2576123e1611b3f565b5b6123ee86828701611cba565b925050604084013567ffffffffffffffff81111561240f5761240e611b3f565b5b61241b86828701611da0565b9150509250925092565b600060408301600083015161243d6000860182611ef1565b50602083015184820360208601526124558282611f72565b9150508091505092915050565b6000602082019050818103600083015261247c8184612425565b905092915050565b60008060006060848603121561249d5761249c611b3a565b5b60006124ab86828701611b8d565b935050602084013567ffffffffffffffff8111156124cc576124cb611b3f565b5b6124d886828701611cba565b925050604084013567ffffffffffffffff8111156124f9576124f8611b3f565b5b61250586828701611cba565b9150509250925092565b7f4e487b7100000000000000000000000000000000000000000000000000000000600052602260045260246000fd5b6000600282049050600182168061255657607f821691505b6020821081036125695761256861250f565b5b50919050565b60008190508160005260206000209050919050565b60006020601f8301049050919050565b600082821b905092915050565b6000600883026125d17fffffffffffffffffffffffffffffffffffffffffffffffffffffffffffffffff82612594565b6125db8683612594565b95508019841693508086168417925050509392505050565b6000819050919050565b6000819050919050565b600061262261261d612618846125f3565b6125fd565b6125f3565b9050919050565b6000819050919050565b61263c83612607565b61265061264882612629565b8484546125a1565b825550505050565b600090565b612665612658565b612670818484612633565b505050565b5b818110156126945761268960008261265d565b600181019050612676565b5050565b601f8211156126d9576126aa8161256f565b6126b384612584565b810160208510156126c2578190505b6126d66126ce85612584565b830182612675565b50505b505050565b600082821c905092915050565b60006126fc600019846008026126de565b1980831691505092915050565b600061271583836126eb565b9150826002028217905092915050565b61272e82611f2c565b67ffffffffffffffff81111561274757612746611bbd565b5b612751825461253e565b61275c828285612698565b600060209050601f83116001811461278f576000841561277d578287015190505b6127878582612709565b8655506127ef565b601f19841661279d8661256f565b60005b828110156127c5578489015182556001820191506020850194506020810190506127a0565b868310156127e257848901516127de601f8916826126eb565b8355505b6001600288020188555050505b505050505050565b7f4e487b7100000000000000000000000000000000000000000000000000000000600052603260045260246000fd5b7f4e487b7100000000000000000000000000000000000000000000000000000000600052601160045260246000fd5b6000612860826125f3565b91507fffffffffffffffffffffffffffffffffffffffffffffffffffffffffffffffff820361289257612891612826565b5b600182019050919050565b600082825260208201905092915050565b60006128b982611f2c565b6128c3818561289d565b93506128d3818560208601611f48565b6128dc81611bac565b840191505092915050565b6000602082019050818103600083015261290181846128ae565b905092915050565b600080fd5b600080fd5b61291c81611ee5565b811461292757600080fd5b50565b60008151905061293981612913565b92915050565b600061295261294d84611c38565b611c1d565b90508281526020810184848401111561296e5761296d611ba7565b5b612979848285611f48565b509392505050565b600082601f83011261299657612995611ba2565b5b81516129a684826020860161293f565b91505092915050565b6000815190506129be81611b76565b92915050565b600060a082840312156129da576129d9612909565b5b6129e460a0611c1d565b9050600082015167ffffffffffffffff811115612a0457612a0361290e565b5b612a1084828501612981565b600083015250602082015167ffffffffffffffff811115612a3457612a3361290e565b5b612a4084828501612981565b6020830152506040612a54848285016129af565b604083015250606082015167ffffffffffffffff811115612a7857612a7761290e565b5b612a8484828501612981565b606083015250608082015167ffffffffffffffff811115612aa857612aa761290e565b5b612ab484828501612981565b60808301525092915050565b600060408284031215612ad657612ad5612909565b5b612ae06040611c1d565b90506000612af08482850161292a565b600083015250602082015167ffffffffffffffff811115612b1457612b1361290e565b5b612b20848285016129c4565b60208301525092915050565b600060208284031215612b4257612b41611b3a565b5b600082015167ffffffffffffffff811115612b6057612b5f611b3f565b5b612b6c84828501612ac0565b91505092915050565b612b7e81611b64565b82525050565b6000604082019050612b996000830185612b75565b8181036020830152612bab81846128ae565b90509392505050565b600060208284031215612bca57612bc9611b3a565b5b6000612bd88482850161292a565b91505092915050565b600081905092915050565b6000612bf782611f2c565b612c018185612be1565b9350612c11818560208601611f48565b80840191505092915050565b6000612c298284612bec565b915081905092915050565b6000602082019050612c496000830184612b75565b92915050565b7f7368617265000000000000000000000000000000000000000000000000000000600082015250565b6000612c85600583612be1565b9150612c9082612c4f565b600582019050919050565b6000612ca682612c78565b915081905091905056fea264697066735822122035db2e8acf2b0b72e3a605f68152205345e7e9c883e1dceb137e85b30806b84764736f6c63430008130033",
  "linkReferences": {},
  "deployedLinkReferences": {}
}