{
  "_format": "hh-sol-artifact-1",
  "contractName": "AccessControl",
  "sourceName": "contracts/AccessControl.sol",
  "abi": [
    {
      "inputs": [
        {
          "internalType": "address",
          "name": "helperContract",
          "type": "address"
        }
      ],
      "stateMutability": "nonpayable",
      "type": "constructor"
    },
    {
      "anonymous": false,
      "inputs": [
        {
          "indexed": true,
          "internalType": "address",
          "name": "userAccount",
          "type": "address"
        },
        {
          "indexed": false,
          "internalType": "string",
          "name": "fileIpfsCID",
          "type": "string"
        },
        {
          "indexed": false,
          "internalType": "string",
          "name": "permissionsOwner",
          "type": "string"
        },
        {
          "indexed": false,
          "internalType": "string",
          "name": "action",
          "type": "string"
        }
      ],
      "name": "FileActionLog",
      "type": "event"
    },
    {
      "inputs": [
        {
          "internalType": "address",
          "name": "userAccount",
          "type": "address"
        },
        {
          "internalType": "string",
          "name": "fileIpfsCid",
          "type": "string"
        }
      ],
      "name": "deactivateFile",
      "outputs": [],
      "stateMutability": "nonpayable",
      "type": "function"
    },
    {
      "inputs": [
        {
          "internalType": "string",
          "name": "fileIpfsCid",
          "type": "string"
        },
        {
          "internalType": "address",
          "name": "userAccount",
          "type": "address"
        }
      ],
      "name": "downloadFileAudit",
      "outputs": [],
      "stateMutability": "nonpayable",
      "type": "function"
    },
    {
      "inputs": [
        {
          "components": [
            {
              "internalType": "string",
              "name": "ipfsCID",
              "type": "string"
            },
            {
              "internalType": "string",
              "name": "fileName",
              "type": "string"
            },
            {
              "internalType": "int256",
              "name": "version",
              "type": "int256"
            },
            {
              "internalType": "string",
              "name": "prevIpfsCID",
              "type": "string"
            },
            {
              "internalType": "address",
              "name": "owner",
              "type": "address"
            },
            {
              "internalType": "string",
              "name": "fileType",
              "type": "string"
            },
            {
              "internalType": "string",
              "name": "iv",
              "type": "string"
            },
            {
              "internalType": "string",
              "name": "state",
              "type": "string"
            },
            {
              "internalType": "string",
              "name": "fileHash",
              "type": "string"
            }
          ],
          "internalType": "struct FileRegister.File",
          "name": "selectedFile",
          "type": "tuple"
        },
        {
          "components": [
            {
              "internalType": "string",
              "name": "ipfsCID",
              "type": "string"
            },
            {
              "internalType": "string",
              "name": "fileName",
              "type": "string"
            },
            {
              "internalType": "int256",
              "name": "version",
              "type": "int256"
            },
            {
              "internalType": "string",
              "name": "prevIpfsCID",
              "type": "string"
            },
            {
              "internalType": "address",
              "name": "owner",
              "type": "address"
            },
            {
              "internalType": "string",
              "name": "fileType",
              "type": "string"
            },
            {
              "internalType": "string",
              "name": "iv",
              "type": "string"
            },
            {
              "internalType": "string",
              "name": "state",
              "type": "string"
            },
            {
              "internalType": "string",
              "name": "fileHash",
              "type": "string"
            }
          ],
          "internalType": "struct FileRegister.File",
          "name": "newFile",
          "type": "tuple"
        },
        {
          "internalType": "address[]",
          "name": "usersWithDownlodPermSelectFile",
          "type": "address[]"
        },
        {
          "internalType": "string[]",
          "name": "pubKeyUsersWithDownloadPermSelectFile",
          "type": "string[]"
        }
      ],
      "name": "editFile",
      "outputs": [],
      "stateMutability": "nonpayable",
      "type": "function"
    },
    {
      "inputs": [
        {
          "internalType": "address",
          "name": "userAccount",
          "type": "address"
        },
        {
          "internalType": "string",
          "name": "fileIpfsCID",
          "type": "string"
        }
      ],
      "name": "elegibleToShare",
      "outputs": [
        {
          "internalType": "bool",
          "name": "",
          "type": "bool"
        }
      ],
      "stateMutability": "view",
      "type": "function"
    },
    {
      "inputs": [
        {
          "internalType": "address",
          "name": "userAccount",
          "type": "address"
        },
        {
          "internalType": "string",
          "name": "fileIpfsCID",
          "type": "string"
        }
      ],
      "name": "elegibleToUpdPermissions",
      "outputs": [
        {
          "internalType": "bool",
          "name": "",
          "type": "bool"
        }
      ],
      "stateMutability": "view",
      "type": "function"
    },
    {
      "inputs": [],
      "name": "getAuditLogControlAddress",
      "outputs": [
        {
          "internalType": "address",
          "name": "",
          "type": "address"
        }
      ],
      "stateMutability": "view",
      "type": "function"
    },
    {
      "inputs": [
        {
          "internalType": "address",
          "name": "accountUser",
          "type": "address"
        },
        {
          "internalType": "string",
          "name": "fileIpfsCID",
          "type": "string"
        }
      ],
      "name": "getEncSymmetricKeyFileUser",
      "outputs": [
        {
          "components": [
            {
              "internalType": "bool",
              "name": "success",
              "type": "bool"
            },
            {
              "internalType": "string",
              "name": "resultString",
              "type": "string"
            },
            {
              "internalType": "string",
              "name": "message",
              "type": "string"
            }
          ],
          "internalType": "struct Helper.ResultString",
          "name": "",
          "type": "tuple"
        }
      ],
      "stateMutability": "view",
      "type": "function"
    },
    {
      "inputs": [],
      "name": "getFileRegisterAddress",
      "outputs": [
        {
          "internalType": "address",
          "name": "",
          "type": "address"
        }
      ],
      "stateMutability": "view",
      "type": "function"
    },
    {
      "inputs": [
        {
          "internalType": "address",
          "name": "userAccount",
          "type": "address"
        },
        {
          "internalType": "string",
          "name": "fileIpfsCID",
          "type": "string"
        }
      ],
      "name": "getPermissionsOverFile",
      "outputs": [
        {
          "components": [
            {
              "internalType": "bool",
              "name": "success",
              "type": "bool"
            },
            {
              "internalType": "string[]",
              "name": "resultStrings",
              "type": "string[]"
            },
            {
              "internalType": "string",
              "name": "message",
              "type": "string"
            }
          ],
          "internalType": "struct Helper.ResultStringArray",
          "name": "",
          "type": "tuple"
        }
      ],
      "stateMutability": "view",
      "type": "function"
    },
    {
      "inputs": [
        {
          "internalType": "address",
          "name": "account",
          "type": "address"
        },
        {
          "internalType": "string",
          "name": "state",
          "type": "string"
        }
      ],
      "name": "getUserFiles",
      "outputs": [
        {
          "components": [
            {
              "internalType": "bool",
              "name": "success",
              "type": "bool"
            },
            {
              "components": [
                {
                  "internalType": "string",
                  "name": "ipfsCID",
                  "type": "string"
                },
                {
                  "internalType": "string",
                  "name": "fileName",
                  "type": "string"
                },
                {
                  "internalType": "int256",
                  "name": "version",
                  "type": "int256"
                },
                {
                  "internalType": "string",
                  "name": "prevIpfsCID",
                  "type": "string"
                },
                {
                  "internalType": "address",
                  "name": "owner",
                  "type": "address"
                },
                {
                  "internalType": "string",
                  "name": "fileType",
                  "type": "string"
                },
                {
                  "internalType": "string",
                  "name": "iv",
                  "type": "string"
                },
                {
                  "internalType": "string",
                  "name": "state",
                  "type": "string"
                },
                {
                  "internalType": "string",
                  "name": "fileHash",
                  "type": "string"
                }
              ],
              "internalType": "struct FileRegister.File[]",
              "name": "files",
              "type": "tuple[]"
            },
            {
              "internalType": "string",
              "name": "message",
              "type": "string"
            }
          ],
          "internalType": "struct FileRegister.ResultFiles",
          "name": "",
          "type": "tuple"
        }
      ],
      "stateMutability": "view",
      "type": "function"
    },
    {
      "inputs": [],
      "name": "getUserRegisterAddress",
      "outputs": [
        {
          "internalType": "address",
          "name": "",
          "type": "address"
        }
      ],
      "stateMutability": "view",
      "type": "function"
    },
    {
      "inputs": [
        {
          "components": [
            {
              "internalType": "string",
              "name": "ipfsCID",
              "type": "string"
            },
            {
              "internalType": "string",
              "name": "fileName",
              "type": "string"
            },
            {
              "internalType": "int256",
              "name": "version",
              "type": "int256"
            },
            {
              "internalType": "string",
              "name": "prevIpfsCID",
              "type": "string"
            },
            {
              "internalType": "address",
              "name": "owner",
              "type": "address"
            },
            {
              "internalType": "string",
              "name": "fileType",
              "type": "string"
            },
            {
              "internalType": "string",
              "name": "iv",
              "type": "string"
            },
            {
              "internalType": "string",
              "name": "state",
              "type": "string"
            },
            {
              "internalType": "string",
              "name": "fileHash",
              "type": "string"
            }
          ],
          "internalType": "struct FileRegister.File",
          "name": "file",
          "type": "tuple"
        }
      ],
      "name": "getUsersWithDownloadPermissionsFile",
      "outputs": [
        {
          "components": [
            {
              "internalType": "bool",
              "name": "success",
              "type": "bool"
            },
            {
              "internalType": "address[]",
              "name": "resultAddresses",
              "type": "address[]"
            },
            {
              "internalType": "string",
              "name": "message",
              "type": "string"
            }
          ],
          "internalType": "struct Helper.ResultAddressArray",
          "name": "",
          "type": "tuple"
        }
      ],
      "stateMutability": "view",
      "type": "function"
    },
    {
      "inputs": [
        {
          "internalType": "address",
          "name": "userAccount",
          "type": "address"
        },
        {
          "internalType": "string",
          "name": "fileIpfsCID",
          "type": "string"
        }
      ],
      "name": "removeUserFileAssociation",
      "outputs": [],
      "stateMutability": "nonpayable",
      "type": "function"
    },
    {
      "inputs": [
        {
          "internalType": "address",
          "name": "userAccount",
          "type": "address"
        },
        {
          "internalType": "string",
          "name": "fileIpfsCID",
          "type": "string"
        },
        {
          "internalType": "string",
          "name": "encSymmetricKey",
          "type": "string"
        },
        {
          "internalType": "string[]",
          "name": "permissions",
          "type": "string[]"
        }
      ],
      "name": "shareFile",
      "outputs": [],
      "stateMutability": "nonpayable",
      "type": "function"
    },
    {
      "inputs": [
        {
          "internalType": "address",
          "name": "userAccount",
          "type": "address"
        },
        {
          "internalType": "string",
          "name": "fileIpfsCID",
          "type": "string"
        },
        {
          "internalType": "string[]",
          "name": "permissions",
          "type": "string[]"
        }
      ],
      "name": "updateUserFilePermissions",
      "outputs": [],
      "stateMutability": "nonpayable",
      "type": "function"
    },
    {
      "inputs": [
        {
          "internalType": "address",
          "name": "userAccount",
          "type": "address"
        },
        {
          "components": [
            {
              "internalType": "string",
              "name": "ipfsCID",
              "type": "string"
            },
            {
              "internalType": "string",
              "name": "fileName",
              "type": "string"
            },
            {
              "internalType": "int256",
              "name": "version",
              "type": "int256"
            },
            {
              "internalType": "string",
              "name": "prevIpfsCID",
              "type": "string"
            },
            {
              "internalType": "address",
              "name": "owner",
              "type": "address"
            },
            {
              "internalType": "string",
              "name": "fileType",
              "type": "string"
            },
            {
              "internalType": "string",
              "name": "iv",
              "type": "string"
            },
            {
              "internalType": "string",
              "name": "state",
              "type": "string"
            },
            {
              "internalType": "string",
              "name": "fileHash",
              "type": "string"
            }
          ],
          "internalType": "struct FileRegister.File",
          "name": "file",
          "type": "tuple"
        },
        {
          "internalType": "string",
          "name": "encSymmetricKey",
          "type": "string"
        }
      ],
      "name": "uploadFile",
      "outputs": [],
      "stateMutability": "nonpayable",
      "type": "function"
    },
    {
      "inputs": [
        {
          "internalType": "address",
          "name": "userAccount",
          "type": "address"
        },
        {
          "internalType": "string",
          "name": "fileIpfsCID",
          "type": "string"
        }
      ],
      "name": "userAssociatedWithFile",
      "outputs": [
        {
          "internalType": "bool",
          "name": "",
          "type": "bool"
        }
      ],
      "stateMutability": "view",
      "type": "function"
    },
    {
      "inputs": [
        {
          "internalType": "address",
          "name": "userAccount",
          "type": "address"
        },
        {
          "internalType": "string",
          "name": "fileName",
          "type": "string"
        }
      ],
      "name": "userAssociatedWithFileName",
      "outputs": [
        {
          "internalType": "bool",
          "name": "",
          "type": "bool"
        }
      ],
      "stateMutability": "view",
      "type": "function"
    },
    {
      "inputs": [
        {
          "internalType": "address",
          "name": "userAccount",
          "type": "address"
        },
        {
          "internalType": "string",
          "name": "fileHash",
          "type": "string"
        }
      ],
      "name": "verifyValidFile",
      "outputs": [
        {
          "internalType": "bool",
          "name": "",
          "type": "bool"
        }
      ],
      "stateMutability": "view",
      "type": "function"
    }
  ],
  "bytecode": "0x60806040523480156200001157600080fd5b506040516200e3563803806200e35683398181016040528101906200003791906200028c565b80600460006101000a81548173ffffffffffffffffffffffffffffffffffffffff021916908373ffffffffffffffffffffffffffffffffffffffff160217905550806040516200008790620001f8565b620000939190620002cf565b604051809103906000f080158015620000b0573d6000803e3d6000fd5b50600160006101000a81548173ffffffffffffffffffffffffffffffffffffffff021916908373ffffffffffffffffffffffffffffffffffffffff16021790555080604051620001009062000206565b6200010c9190620002cf565b604051809103906000f08015801562000129573d6000803e3d6000fd5b50600260006101000a81548173ffffffffffffffffffffffffffffffffffffffff021916908373ffffffffffffffffffffffffffffffffffffffff160217905550604051620001789062000214565b604051809103906000f08015801562000195573d6000803e3d6000fd5b50600360006101000a81548173ffffffffffffffffffffffffffffffffffffffff021916908373ffffffffffffffffffffffffffffffffffffffff1602179055506000600460146101000a81548160ff02191690831515021790555050620002ec565b6138a2806200753883390190565b612031806200adda83390190565b61154b806200ce0b83390190565b600080fd5b600073ffffffffffffffffffffffffffffffffffffffff82169050919050565b6000620002548262000227565b9050919050565b620002668162000247565b81146200027257600080fd5b50565b60008151905062000286816200025b565b92915050565b600060208284031215620002a557620002a462000222565b5b6000620002b58482850162000275565b91505092915050565b620002c98162000247565b82525050565b6000602082019050620002e66000830184620002be565b92915050565b61723c80620002fc6000396000f3fe608060405234801561001057600080fd5b50600436106101205760003560e01c8063874a22ed116100ad578063c19dcf8911610071578063c19dcf891461033f578063c61e66631461036f578063db54cc8c1461038b578063e4ab8e32146103a7578063fe17fccc146103d757610120565b8063874a22ed146102875780638af34fbc146102a5578063a126d94c146102c1578063b58ea3a2146102f1578063b714fb201461032157610120565b80631ac47dd0116100f45780631ac47dd0146101d15780632321f318146102015780634e2fc7d2146102315780635dab19e41461024d57806367cc916b1461026b57610120565b8062c5e614146101255780630976372714610141578063173cd5581461017157806317b5be0f146101a1575b600080fd5b61013f600480360381019061013a9190614c2c565b6103f3565b005b61015b60048036038101906101569190614ce7565b6107e0565b604051610168919061500d565b60405180910390f35b61018b60048036038101906101869190614ce7565b610cf0565b6040516101989190615148565b60405180910390f35b6101bb60048036038101906101b69190614ce7565b6110e9565b6040516101c89190615179565b60405180910390f35b6101eb60048036038101906101e69190614ce7565b6113e9565b6040516101f89190615179565b60405180910390f35b61021b60048036038101906102169190614ce7565b61159b565b6040516102289190615179565b60405180910390f35b61024b60048036038101906102469190615431565b6117cd565b005b610255611cd1565b6040516102629190615517565b60405180910390f35b61028560048036038101906102809190615532565b611cfb565b005b61028f611f05565b60405161029c9190615517565b60405180910390f35b6102bf60048036038101906102ba919061558e565b611f2f565b005b6102db60048036038101906102d69190614ce7565b612294565b6040516102e89190615670565b60405180910390f35b61030b60048036038101906103069190614ce7565b612736565b6040516103189190615179565b60405180910390f35b610329612ac3565b6040516103369190615517565b60405180910390f35b61035960048036038101906103549190614ce7565b612aed565b6040516103669190615179565b60405180910390f35b61038960048036038101906103849190614ce7565b612d01565b005b6103a560048036038101906103a09190614ce7565b612f61565b005b6103c160048036038101906103bc9190615692565b613277565b6040516103ce91906157e1565b60405180910390f35b6103f160048036038101906103ec9190615803565b6136fd565b005b6103fd8484612736565b80156104f55750604051602001610413906158e5565b60405160208183030381529060405280519060200120600160009054906101000a900473ffffffffffffffffffffffffffffffffffffffff1673ffffffffffffffffffffffffffffffffffffffff1662438ceb856040518263ffffffff1660e01b81526004016104839190615944565b600060405180830381865afa1580156104a0573d6000803e3d6000fd5b505050506040513d6000823e3d601f19601f820116820180604052508101906104c99190615a9e565b602001516040516020016104dd9190615b18565b60405160208183030381529060405280519060200120145b156107da576000600460009054906101000a900473ffffffffffffffffffffffffffffffffffffffff1673ffffffffffffffffffffffffffffffffffffffff16631c209e7c868686866040518563ffffffff1660e01b815260040161055d9493929190615bdb565b602060405180830381865afa15801561057a573d6000803e3d6000fd5b505050506040513d601f19601f8201168201806040525081019061059e9190615c48565b905080156107d857600060405180608001604052808773ffffffffffffffffffffffffffffffffffffffff168152602001868152602001858152602001848152509050600081908060018154018082558091505060019003906000526020600020906004020160009091909190915060008201518160000160006101000a81548173ffffffffffffffffffffffffffffffffffffffff021916908373ffffffffffffffffffffffffffffffffffffffff16021790555060208201518160010190816106699190615e8b565b50604082015181600201908161067f9190615e8b565b50606082015181600301908051906020019061069c929190614748565b505050600360009054906101000a900473ffffffffffffffffffffffffffffffffffffffff1673ffffffffffffffffffffffffffffffffffffffff1663c47ebddc338789600460009054906101000a900473ffffffffffffffffffffffffffffffffffffffff1673ffffffffffffffffffffffffffffffffffffffff16636bb8d768896040518263ffffffff1660e01b815260040161073b9190615f5d565b600060405180830381865afa158015610758573d6000803e3d6000fd5b505050506040513d6000823e3d601f19601f820116820180604052508101906107819190615a9e565b602001516040518563ffffffff1660e01b81526004016107a49493929190615fcb565b600060405180830381600087803b1580156107be57600080fd5b505af11580156107d2573d6000803e3d6000fd5b50505050505b505b50505050565b6107e86147a1565b8273ffffffffffffffffffffffffffffffffffffffff163373ffffffffffffffffffffffffffffffffffffffff1603610c5d576000808054905067ffffffffffffffff81111561083b5761083a614a1b565b5b60405190808252806020026020018201604052801561087457816020015b6108616147c4565b8152602001906001900390816108595790505b5090506000805b600080549050811015610c18578573ffffffffffffffffffffffffffffffffffffffff16600082815481106108b3576108b2616031565b5b906000526020600020906004020160000160009054906101000a900473ffffffffffffffffffffffffffffffffffffffff1673ffffffffffffffffffffffffffffffffffffffff16148015610a6e5750600160009054906101000a900473ffffffffffffffffffffffffffffffffffffffff1673ffffffffffffffffffffffffffffffffffffffff1662438ceb6000838154811061095457610953616031565b5b90600052602060002090600402016001016040518263ffffffff1660e01b815260040161098191906160e4565b600060405180830381865afa15801561099e573d6000803e3d6000fd5b505050506040513d6000823e3d601f19601f820116820180604052508101906109c79190615a9e565b602001516040516020016109db9190615b18565b6040516020818303038152906040528051906020012085604051602001610a029190615b18565b604051602081830303815290604052805190602001201480610a6d5750604051602001610a2e90616129565b6040516020818303038152906040528051906020012085604051602001610a559190615b18565b60405160208183030381529060405280519060200120145b5b15610c05576000808281548110610a8857610a87616031565b5b90600052602060002090600402016001018054610aa490615ca4565b80601f0160208091040260200160405190810160405280929190818152602001828054610ad090615ca4565b8015610b1d5780601f10610af257610100808354040283529160200191610b1d565b820191906000526020600020905b815481529060010190602001808311610b0057829003601f168201915b505050505090506000600160009054906101000a900473ffffffffffffffffffffffffffffffffffffffff1673ffffffffffffffffffffffffffffffffffffffff166347eb6fa783896040518363ffffffff1660e01b8152600401610b8392919061613e565b600060405180830381865afa158015610ba0573d6000803e3d6000fd5b505050506040513d6000823e3d601f19601f82011682018060405250810190610bc991906163df565b905060008160200151905080868681518110610be857610be7616031565b5b60200260200101819052508480610bfe90616457565b9550505050505b8080610c1090616457565b91505061087b565b5080825260008114610c5a5760405180606001604052806001151581526020018381526020016040518060200160405280600081525081525092505050610cea565b50505b6040518060600160405280600015158152602001600067ffffffffffffffff811115610c8c57610c8b614a1b565b5b604051908082528060200260200182016040528015610cc557816020015b610cb26147c4565b815260200190600190039081610caa5790505b5081526020016040518060800160405280604e8152602001617151604e913981525090505b92915050565b610cf8614826565b610d0182613c3c565b8015610df95750604051602001610d17906158e5565b60405160208183030381529060405280519060200120600160009054906101000a900473ffffffffffffffffffffffffffffffffffffffff1673ffffffffffffffffffffffffffffffffffffffff1662438ceb846040518263ffffffff1660e01b8152600401610d879190615944565b600060405180830381865afa158015610da4573d6000803e3d6000fd5b505050506040513d6000823e3d601f19601f82011682018060405250810190610dcd9190615a9e565b60200151604051602001610de19190615b18565b60405160208183030381529060405280519060200120145b1561105c5760005b60008054905081101561105a57600460009054906101000a900473ffffffffffffffffffffffffffffffffffffffff1673ffffffffffffffffffffffffffffffffffffffff16635c99c71b8560008481548110610e6157610e60616031565b5b906000526020600020906004020160000160009054906101000a900473ffffffffffffffffffffffffffffffffffffffff168660008681548110610ea857610ea7616031565b5b90600052602060002090600402016001016040518563ffffffff1660e01b8152600401610ed8949392919061649f565b602060405180830381865afa158015610ef5573d6000803e3d6000fd5b505050506040513d601f19601f82011682018060405250810190610f199190615c48565b1561104757604051806060016040528060011515815260200160008381548110610f4657610f45616031565b5b9060005260206000209060040201600301805480602002602001604051908101604052809291908181526020016000905b82821015611023578382906000526020600020018054610f9690615ca4565b80601f0160208091040260200160405190810160405280929190818152602001828054610fc290615ca4565b801561100f5780601f10610fe45761010080835404028352916020019161100f565b820191906000526020600020905b815481529060010190602001808311610ff257829003601f168201915b505050505081526020019060010190610f77565b505050508152602001604051806020016040528060008152508152509150506110e3565b808061105290616457565b915050610e01565b505b6040518060600160405280600015158152602001600067ffffffffffffffff81111561108b5761108a614a1b565b5b6040519080825280602002602001820160405280156110be57816020015b60608152602001906001900390816110a95790505b5081526020016040518060a001604052806068815260200161719f6068913981525090505b92915050565b600080600090505b6000805490508110156113dd576000600160009054906101000a900473ffffffffffffffffffffffffffffffffffffffff1673ffffffffffffffffffffffffffffffffffffffff1663f880680b6000848154811061115257611151616031565b5b90600052602060002090600402016001016040518263ffffffff1660e01b815260040161117f91906160e4565b600060405180830381865afa15801561119c573d6000803e3d6000fd5b505050506040513d6000823e3d601f19601f820116820180604052508101906111c59190615a9e565b6020015190506000600160009054906101000a900473ffffffffffffffffffffffffffffffffffffffff1673ffffffffffffffffffffffffffffffffffffffff1662438ceb6000858154811061121e5761121d616031565b5b90600052602060002090600402016001016040518263ffffffff1660e01b815260040161124b91906160e4565b600060405180830381865afa158015611268573d6000803e3d6000fd5b505050506040513d6000823e3d601f19601f820116820180604052508101906112919190615a9e565b6020015190508573ffffffffffffffffffffffffffffffffffffffff16600084815481106112c2576112c1616031565b5b906000526020600020906004020160000160009054906101000a900473ffffffffffffffffffffffffffffffffffffffff1673ffffffffffffffffffffffffffffffffffffffff161480156113625750846040516020016113239190615b18565b604051602081830303815290604052805190602001208260405160200161134a9190615b18565b60405160208183030381529060405280519060200120145b80156113b75750604051602001611378906158e5565b604051602081830303815290604052805190602001208160405160200161139f9190615b18565b60405160208183030381529060405280519060200120145b156113c857600193505050506113e3565b505080806113d590616457565b9150506110f1565b50600090505b92915050565b60006113f482613c3c565b8061144c5750600360009054906101000a900473ffffffffffffffffffffffffffffffffffffffff1673ffffffffffffffffffffffffffffffffffffffff163373ffffffffffffffffffffffffffffffffffffffff16145b156115905760005b60008054905081101561158e57600460009054906101000a900473ffffffffffffffffffffffffffffffffffffffff1673ffffffffffffffffffffffffffffffffffffffff16635c99c71b85600084815481106114b4576114b3616031565b5b906000526020600020906004020160000160009054906101000a900473ffffffffffffffffffffffffffffffffffffffff1686600086815481106114fb576114fa616031565b5b90600052602060002090600402016001016040518563ffffffff1660e01b815260040161152b949392919061649f565b602060405180830381865afa158015611548573d6000803e3d6000fd5b505050506040513d601f19601f8201168201806040525081019061156c9190615c48565b1561157b576001915050611595565b808061158690616457565b915050611454565b505b600090505b92915050565b60008273ffffffffffffffffffffffffffffffffffffffff163373ffffffffffffffffffffffffffffffffffffffff16141580156116745750600160009054906101000a900473ffffffffffffffffffffffffffffffffffffffff1673ffffffffffffffffffffffffffffffffffffffff166352a9baef84846040518363ffffffff1660e01b81526004016116319291906164f2565b602060405180830381865afa15801561164e573d6000803e3d6000fd5b505050506040513d601f19601f820116820180604052508101906116729190615c48565b155b80156116bc57506116bb33836040518060400160405280600581526020017f7368617265000000000000000000000000000000000000000000000000000000815250613f78565b5b80156117b457506040516020016116d2906158e5565b60405160208183030381529060405280519060200120600160009054906101000a900473ffffffffffffffffffffffffffffffffffffffff1673ffffffffffffffffffffffffffffffffffffffff1662438ceb846040518263ffffffff1660e01b81526004016117429190615944565b600060405180830381865afa15801561175f573d6000803e3d6000fd5b505050506040513d6000823e3d601f19601f820116820180604052508101906117889190615a9e565b6020015160405160200161179c9190615b18565b60405160208183030381529060405280519060200120145b156117c257600190506117c7565b600090505b92915050565b6117da8460000151614126565b80156117ee57506117ed84848484614278565b5b15611ccb57600160009054906101000a900473ffffffffffffffffffffffffffffffffffffffff1673ffffffffffffffffffffffffffffffffffffffff166395f0f0bb85856040518363ffffffff1660e01b8152600401611850929190616611565b600060405180830381600087803b15801561186a57600080fd5b505af115801561187e573d6000803e3d6000fd5b5050505060005b600080549050811015611c345784600001516040516020016118a79190615b18565b60405160208183030381529060405280519060200120600082815481106118d1576118d0616031565b5b90600052602060002090600402016001016040516020016118f291906166cb565b6040516020818303038152906040528051906020012003611c21576000805b84518110156119c7576000838154811061192e5761192d616031565b5b906000526020600020906004020160000160009054906101000a900473ffffffffffffffffffffffffffffffffffffffff1673ffffffffffffffffffffffffffffffffffffffff1685828151811061198957611988616031565b5b602002602001015173ffffffffffffffffffffffffffffffffffffffff16036119b4578091506119c7565b80806119bf90616457565b915050611911565b5060008382815181106119dd576119dc616031565b5b602002602001015190506000604051806080016040528060008681548110611a0857611a07616031565b5b906000526020600020906004020160000160009054906101000a900473ffffffffffffffffffffffffffffffffffffffff1673ffffffffffffffffffffffffffffffffffffffff1681526020018860000151815260200183815260200160008681548110611a7957611a78616031565b5b9060005260206000209060040201600301805480602002602001604051908101604052809291908181526020016000905b82821015611b56578382906000526020600020018054611ac990615ca4565b80601f0160208091040260200160405190810160405280929190818152602001828054611af590615ca4565b8015611b425780601f10611b1757610100808354040283529160200191611b42565b820191906000526020600020905b815481529060010190602001808311611b2557829003601f168201915b505050505081526020019060010190611aaa565b505050508152509050600081908060018154018082558091505060019003906000526020600020906004020160009091909190915060008201518160000160006101000a81548173ffffffffffffffffffffffffffffffffffffffff021916908373ffffffffffffffffffffffffffffffffffffffff1602179055506020820151816001019081611be79190615e8b565b506040820151816002019081611bfd9190615e8b565b506060820151816003019080519060200190611c1a929190614748565b5050505050505b8080611c2c90616457565b915050611885565b50600360009054906101000a900473ffffffffffffffffffffffffffffffffffffffff1673ffffffffffffffffffffffffffffffffffffffff1663c47ebddc338660000151336040518463ffffffff1660e01b8152600401611c989392919061677a565b600060405180830381600087803b158015611cb257600080fd5b505af1158015611cc6573d6000803e3d6000fd5b505050505b50505050565b6000600160009054906101000a900473ffffffffffffffffffffffffffffffffffffffff16905090565b8073ffffffffffffffffffffffffffffffffffffffff163373ffffffffffffffffffffffffffffffffffffffff16148015611d725750611d7181836040518060400160405280600881526020017f646f776e6c6f6164000000000000000000000000000000000000000000000000815250613f78565b5b8015611e6a5750604051602001611d88906158e5565b60405160208183030381529060405280519060200120600160009054906101000a900473ffffffffffffffffffffffffffffffffffffffff1673ffffffffffffffffffffffffffffffffffffffff1662438ceb846040518263ffffffff1660e01b8152600401611df89190615944565b600060405180830381865afa158015611e15573d6000803e3d6000fd5b505050506040513d6000823e3d601f19601f82011682018060405250810190611e3e9190615a9e565b60200151604051602001611e529190615b18565b60405160208183030381529060405280519060200120145b15611f0157600360009054906101000a900473ffffffffffffffffffffffffffffffffffffffff1673ffffffffffffffffffffffffffffffffffffffff1663c47ebddc3384846040518463ffffffff1660e01b8152600401611ece9392919061682a565b600060405180830381600087803b158015611ee857600080fd5b505af1158015611efc573d6000803e3d6000fd5b505050505b5050565b6000600260009054906101000a900473ffffffffffffffffffffffffffffffffffffffff16905090565b611f39838361159b565b8015611fdd5750600460009054906101000a900473ffffffffffffffffffffffffffffffffffffffff1673ffffffffffffffffffffffffffffffffffffffff1663bda49b1d826040518263ffffffff1660e01b8152600401611f9b9190615f5d565b602060405180830381865afa158015611fb8573d6000803e3d6000fd5b505050506040513d601f19601f82011682018060405250810190611fdc9190615c48565b5b1561228e5760005b60008054905081101561228c57600460009054906101000a900473ffffffffffffffffffffffffffffffffffffffff1673ffffffffffffffffffffffffffffffffffffffff16635c99c71b856000848154811061204557612044616031565b5b906000526020600020906004020160000160009054906101000a900473ffffffffffffffffffffffffffffffffffffffff16866000868154811061208c5761208b616031565b5b90600052602060002090600402016001016040518563ffffffff1660e01b81526004016120bc949392919061649f565b602060405180830381865afa1580156120d9573d6000803e3d6000fd5b505050506040513d601f19601f820116820180604052508101906120fd9190615c48565b1561227957816000828154811061211757612116616031565b5b9060005260206000209060040201600301908051906020019061213b929190614748565b50600360009054906101000a900473ffffffffffffffffffffffffffffffffffffffff1673ffffffffffffffffffffffffffffffffffffffff1663c47ebddc338587600460009054906101000a900473ffffffffffffffffffffffffffffffffffffffff1673ffffffffffffffffffffffffffffffffffffffff16636bb8d768886040518263ffffffff1660e01b81526004016121d89190615f5d565b600060405180830381865afa1580156121f5573d6000803e3d6000fd5b505050506040513d6000823e3d601f19601f8201168201806040525081019061221e9190615a9e565b602001516040518563ffffffff1660e01b815260040161224194939291906168da565b600060405180830381600087803b15801561225b57600080fd5b505af115801561226f573d6000803e3d6000fd5b505050505061228f565b808061228490616457565b915050611fe5565b505b5b505050565b61229c614849565b8273ffffffffffffffffffffffffffffffffffffffff163373ffffffffffffffffffffffffffffffffffffffff161480156122dd57506122dc83836113e9565b5b80156124cc57506040516020016122f3906158e5565b60405160208183030381529060405280519060200120600160009054906101000a900473ffffffffffffffffffffffffffffffffffffffff1673ffffffffffffffffffffffffffffffffffffffff1662438ceb846040518263ffffffff1660e01b81526004016123639190615944565b600060405180830381865afa158015612380573d6000803e3d6000fd5b505050506040513d6000823e3d601f19601f820116820180604052508101906123a99190615a9e565b602001516040516020016123bd9190615b18565b6040516020818303038152906040528051906020012014806124cb57506040516020016123e99061698c565b60405160208183030381529060405280519060200120600160009054906101000a900473ffffffffffffffffffffffffffffffffffffffff1673ffffffffffffffffffffffffffffffffffffffff1662438ceb846040518263ffffffff1660e01b81526004016124599190615944565b600060405180830381865afa158015612476573d6000803e3d6000fd5b505050506040513d6000823e3d601f19601f8201168201806040525081019061249f9190615a9e565b602001516040516020016124b39190615b18565b60405160208183030381529060405280519060200120145b5b156126e85760005b6000805490508110156126e657600460009054906101000a900473ffffffffffffffffffffffffffffffffffffffff1673ffffffffffffffffffffffffffffffffffffffff16635c99c71b856000848154811061253457612533616031565b5b906000526020600020906004020160000160009054906101000a900473ffffffffffffffffffffffffffffffffffffffff16866000868154811061257b5761257a616031565b5b90600052602060002090600402016001016040518563ffffffff1660e01b81526004016125ab949392919061649f565b602060405180830381865afa1580156125c8573d6000803e3d6000fd5b505050506040513d601f19601f820116820180604052508101906125ec9190615c48565b156126d35760405180606001604052806001151581526020016000838154811061261957612618616031565b5b9060005260206000209060040201600201805461263590615ca4565b80601f016020809104026020016040519081016040528092919081815260200182805461266190615ca4565b80156126ae5780601f10612683576101008083540402835291602001916126ae565b820191906000526020600020905b81548152906001019060200180831161269157829003601f168201915b5050505050815260200160405180602001604052806000815250815250915050612730565b80806126de90616457565b9150506124d4565b505b60405180606001604052806000151581526020016040518060200160405280600081525081526020016040518060e0016040528060a4815260200161705260a4913981525090505b92915050565b60008273ffffffffffffffffffffffffffffffffffffffff163373ffffffffffffffffffffffffffffffffffffffff161415801561280f5750600160009054906101000a900473ffffffffffffffffffffffffffffffffffffffff1673ffffffffffffffffffffffffffffffffffffffff166352a9baef84846040518363ffffffff1660e01b81526004016127cc9291906164f2565b602060405180830381865afa1580156127e9573d6000803e3d6000fd5b505050506040513d601f19601f8201168201806040525081019061280d9190615c48565b155b8015612857575061285633836040518060400160405280600581526020017f7368617265000000000000000000000000000000000000000000000000000000815250613f78565b5b801561286a575061286883836113e9565b155b801561290e5750600160009054906101000a900473ffffffffffffffffffffffffffffffffffffffff1673ffffffffffffffffffffffffffffffffffffffff16639bccd6ad836040518263ffffffff1660e01b81526004016128cc9190615944565b602060405180830381865afa1580156128e9573d6000803e3d6000fd5b505050506040513d601f19601f8201168201806040525081019061290d9190615c48565b5b8015612a065750604051602001612924906158e5565b60405160208183030381529060405280519060200120600160009054906101000a900473ffffffffffffffffffffffffffffffffffffffff1673ffffffffffffffffffffffffffffffffffffffff1662438ceb846040518263ffffffff1660e01b81526004016129949190615944565b600060405180830381865afa1580156129b1573d6000803e3d6000fd5b505050506040513d6000823e3d601f19601f820116820180604052508101906129da9190615a9e565b602001516040516020016129ee9190615b18565b60405160208183030381529060405280519060200120145b8015612aaa5750600260009054906101000a900473ffffffffffffffffffffffffffffffffffffffff1673ffffffffffffffffffffffffffffffffffffffff1663a240e426846040518263ffffffff1660e01b8152600401612a689190615517565b602060405180830381865afa158015612a85573d6000803e3d6000fd5b505050506040513d601f19601f82011682018060405250810190612aa99190615c48565b5b15612ab85760019050612abd565b600090505b92915050565b6000600360009054906101000a900473ffffffffffffffffffffffffffffffffffffffff16905090565b600080600160009054906101000a900473ffffffffffffffffffffffffffffffffffffffff1673ffffffffffffffffffffffffffffffffffffffff1663922243ad846040518263ffffffff1660e01b8152600401612b4b9190615944565b600060405180830381865afa158015612b68573d6000803e3d6000fd5b505050506040513d6000823e3d601f19601f82011682018060405250810190612b919190616af2565b60200151905060005b600080549050811015612cf45760005b8251811015612ce0578573ffffffffffffffffffffffffffffffffffffffff1660008381548110612bde57612bdd616031565b5b906000526020600020906004020160000160009054906101000a900473ffffffffffffffffffffffffffffffffffffffff1673ffffffffffffffffffffffffffffffffffffffff16148015612cbc5750828181518110612c4157612c40616031565b5b6020026020010151604051602001612c599190615b18565b6040516020818303038152906040528051906020012060008381548110612c8357612c82616031565b5b9060005260206000209060040201600101604051602001612ca491906166cb565b60405160208183030381529060405280519060200120145b15612ccd5760019350505050612cfb565b8080612cd890616457565b915050612baa565b508080612cec90616457565b915050612b9a565b5060009150505b92915050565b612d4133826040518060400160405280600681526020017f64656c6574650000000000000000000000000000000000000000000000000000815250613f78565b8015612e395750604051602001612d57906158e5565b60405160208183030381529060405280519060200120600160009054906101000a900473ffffffffffffffffffffffffffffffffffffffff1673ffffffffffffffffffffffffffffffffffffffff1662438ceb836040518263ffffffff1660e01b8152600401612dc79190615944565b600060405180830381865afa158015612de4573d6000803e3d6000fd5b505050506040513d6000823e3d601f19601f82011682018060405250810190612e0d9190615a9e565b60200151604051602001612e219190615b18565b60405160208183030381529060405280519060200120145b15612f5d57600160009054906101000a900473ffffffffffffffffffffffffffffffffffffffff1673ffffffffffffffffffffffffffffffffffffffff166374546fdf826040518263ffffffff1660e01b8152600401612e999190615944565b600060405180830381600087803b158015612eb357600080fd5b505af1158015612ec7573d6000803e3d6000fd5b50505050600360009054906101000a900473ffffffffffffffffffffffffffffffffffffffff1673ffffffffffffffffffffffffffffffffffffffff1663c47ebddc3383856040518463ffffffff1660e01b8152600401612f2a93929190616b87565b600060405180830381600087803b158015612f4457600080fd5b505af1158015612f58573d6000803e3d6000fd5b505050505b5050565b612f6b828261159b565b156132725760005b600080549050811015613270578273ffffffffffffffffffffffffffffffffffffffff1660008281548110612fab57612faa616031565b5b906000526020600020906004020160000160009054906101000a900473ffffffffffffffffffffffffffffffffffffffff1673ffffffffffffffffffffffffffffffffffffffff1614801561303f575081805190602001206000828154811061301757613016616031565b5b90600052602060002090600402016001016040516130359190616c8e565b6040518091039020145b1561325d57600060016000805490506130589190616ca5565b8154811061306957613068616031565b5b90600052602060002090600402016000828154811061308b5761308a616031565b5b90600052602060002090600402016000820160009054906101000a900473ffffffffffffffffffffffffffffffffffffffff168160000160006101000a81548173ffffffffffffffffffffffffffffffffffffffff021916908373ffffffffffffffffffffffffffffffffffffffff160217905550600182018160010190816131149190616cef565b50600282018160020190816131299190616cef565b50600382018160030190805461314092919061486c565b50905050600080548061315657613155616dd7565b5b6001900381819060005260206000209060040201600080820160006101000a81549073ffffffffffffffffffffffffffffffffffffffff02191690556001820160006131a291906148c9565b6002820160006131b291906148c9565b6003820160006131c29190614909565b50509055600360009054906101000a900473ffffffffffffffffffffffffffffffffffffffff1673ffffffffffffffffffffffffffffffffffffffff1663c47ebddc3384866040518463ffffffff1660e01b815260040161322593929190616e52565b600060405180830381600087803b15801561323f57600080fd5b505af1158015613253573d6000803e3d6000fd5b5050505050613273565b808061326890616457565b915050612f73565b505b5b5050565b61327f61492a565b61328c8260000151613c3c565b801561338857506040516020016132a2906158e5565b60405160208183030381529060405280519060200120600160009054906101000a900473ffffffffffffffffffffffffffffffffffffffff1673ffffffffffffffffffffffffffffffffffffffff1662438ceb84600001516040518263ffffffff1660e01b81526004016133169190615944565b600060405180830381865afa158015613333573d6000803e3d6000fd5b505050506040513d6000823e3d601f19601f8201168201806040525081019061335c9190615a9e565b602001516040516020016133709190615b18565b60405160208183030381529060405280519060200120145b15613676576000808054905067ffffffffffffffff8111156133ad576133ac614a1b565b5b6040519080825280602002602001820160405280156133db5781602001602082028036833780820191505090505b5090506000805b60008054905081101561363c5784600001516040516020016134049190615b18565b604051602081830303815290604052805190602001206000828154811061342e5761342d616031565b5b906000526020600020906004020160010160405160200161344f91906166cb565b60405160208183030381529060405280519060200120148015613582575060405160200161347c906158e5565b60405160208183030381529060405280519060200120600160009054906101000a900473ffffffffffffffffffffffffffffffffffffffff1673ffffffffffffffffffffffffffffffffffffffff1662438ceb600084815481106134e3576134e2616031565b5b90600052602060002090600402016001016040518263ffffffff1660e01b815260040161351091906160e4565b600060405180830381865afa15801561352d573d6000803e3d6000fd5b505050506040513d6000823e3d601f19601f820116820180604052508101906135569190615a9e565b6020015160405160200161356a9190615b18565b60405160208183030381529060405280519060200120145b15613629576000818154811061359b5761359a616031565b5b906000526020600020906004020160000160009054906101000a900473ffffffffffffffffffffffffffffffffffffffff168383815181106135e0576135df616031565b5b602002602001019073ffffffffffffffffffffffffffffffffffffffff16908173ffffffffffffffffffffffffffffffffffffffff1681525050818061362590616457565b9250505b808061363490616457565b9150506133e2565b50808252604051806060016040528060011515815260200183815260200160405180602001604052806000815250815250925050506136f8565b6040518060600160405280600015158152602001600067ffffffffffffffff8111156136a5576136a4614a1b565b5b6040519080825280602002602001820160405280156136d35781602001602082028036833780820191505090505b5081526020016040518060800160405280605b81526020016170f6605b913981525090505b919050565b61370b838360000151614647565b15613c37576000600467ffffffffffffffff81111561372d5761372c614a1b565b5b60405190808252806020026020018201604052801561376057816020015b606081526020019060019003908161374b5790505b5090506040518060400160405280600581526020017f7368617265000000000000000000000000000000000000000000000000000000815250816000815181106137ad576137ac616031565b5b60200260200101819052506040518060400160405280600881526020017f646f776e6c6f61640000000000000000000000000000000000000000000000008152508160018151811061380257613801616031565b5b60200260200101819052506040518060400160405280600681526020017f64656c65746500000000000000000000000000000000000000000000000000008152508160028151811061385757613856616031565b5b60200260200101819052506040518060400160405280600481526020017f6564697400000000000000000000000000000000000000000000000000000000815250816003815181106138ac576138ab616031565b5b60200260200101819052506000600460009054906101000a900473ffffffffffffffffffffffffffffffffffffffff1673ffffffffffffffffffffffffffffffffffffffff16631c209e7c86866000015186868960e001516040518663ffffffff1660e01b8152600401613924959493929190616eb6565b602060405180830381865afa158015613941573d6000803e3d6000fd5b505050506040513d601f19601f820116820180604052508101906139659190615c48565b90508015613c3457600160009054906101000a900473ffffffffffffffffffffffffffffffffffffffff1673ffffffffffffffffffffffffffffffffffffffff1663bfddc42f856040518263ffffffff1660e01b81526004016139c89190616f25565b600060405180830381600087803b1580156139e257600080fd5b505af11580156139f6573d6000803e3d6000fd5b50505050600060405180608001604052808773ffffffffffffffffffffffffffffffffffffffff16815260200186600001518152602001858152602001848152509050600081908060018154018082558091505060019003906000526020600020906004020160009091909190915060008201518160000160006101000a81548173ffffffffffffffffffffffffffffffffffffffff021916908373ffffffffffffffffffffffffffffffffffffffff1602179055506020820151816001019081613ac19190615e8b565b506040820151816002019081613ad79190615e8b565b506060820151816003019080519060200190613af4929190614748565b505050600360009054906101000a900473ffffffffffffffffffffffffffffffffffffffff1673ffffffffffffffffffffffffffffffffffffffff1663c47ebddc33876000015189600460009054906101000a900473ffffffffffffffffffffffffffffffffffffffff1673ffffffffffffffffffffffffffffffffffffffff16636bb8d768896040518263ffffffff1660e01b8152600401613b979190615f5d565b600060405180830381865afa158015613bb4573d6000803e3d6000fd5b505050506040513d6000823e3d601f19601f82011682018060405250810190613bdd9190615a9e565b602001516040518563ffffffff1660e01b8152600401613c009493929190616f93565b600060405180830381600087803b158015613c1a57600080fd5b505af1158015613c2e573d6000803e3d6000fd5b50505050505b50505b505050565b600080600090505b600080549050811015613f6d57600460009054906101000a900473ffffffffffffffffffffffffffffffffffffffff1673ffffffffffffffffffffffffffffffffffffffff16635c99c71b3360008481548110613ca457613ca3616031565b5b906000526020600020906004020160000160009054906101000a900473ffffffffffffffffffffffffffffffffffffffff168660008681548110613ceb57613cea616031565b5b90600052602060002090600402016001016040518563ffffffff1660e01b8152600401613d1b949392919061649f565b602060405180830381865afa158015613d38573d6000803e3d6000fd5b505050506040513d601f19601f82011682018060405250810190613d5c9190615c48565b8015613f4b5750604051602001613d72906158e5565b60405160208183030381529060405280519060200120600160009054906101000a900473ffffffffffffffffffffffffffffffffffffffff1673ffffffffffffffffffffffffffffffffffffffff1662438ceb856040518263ffffffff1660e01b8152600401613de29190615944565b600060405180830381865afa158015613dff573d6000803e3d6000fd5b505050506040513d6000823e3d601f19601f82011682018060405250810190613e289190615a9e565b60200151604051602001613e3c9190615b18565b604051602081830303815290604052805190602001201480613f4a5750604051602001613e689061698c565b60405160208183030381529060405280519060200120600160009054906101000a900473ffffffffffffffffffffffffffffffffffffffff1673ffffffffffffffffffffffffffffffffffffffff1662438ceb856040518263ffffffff1660e01b8152600401613ed89190615944565b600060405180830381865afa158015613ef5573d6000803e3d6000fd5b505050506040513d6000823e3d601f19601f82011682018060405250810190613f1e9190615a9e565b60200151604051602001613f329190615b18565b60405160208183030381529060405280519060200120145b5b15613f5a576001915050613f73565b8080613f6590616457565b915050613c44565b50600090505b919050565b6000604051602001613f89906158e5565b60405160208183030381529060405280519060200120600160009054906101000a900473ffffffffffffffffffffffffffffffffffffffff1673ffffffffffffffffffffffffffffffffffffffff1662438ceb856040518263ffffffff1660e01b8152600401613ff99190615944565b600060405180830381865afa158015614016573d6000803e3d6000fd5b505050506040513d6000823e3d601f19601f8201168201806040525081019061403f9190615a9e565b602001516040516020016140539190615b18565b604051602081830303815290604052805190602001200361411a57600061407a8585610cf0565b60200151905060005b8151811015614117578360405160200161409d9190615b18565b604051602081830303815290604052805190602001208282815181106140c6576140c5616031565b5b60200260200101516040516020016140de9190615b18565b60405160208183030381529060405280519060200120036141045760019250505061411f565b808061410f90616457565b915050614083565b50505b600090505b9392505050565b600061416833836040518060400160405280600481526020017f6564697400000000000000000000000000000000000000000000000000000000815250613f78565b8015614260575060405160200161417e906158e5565b60405160208183030381529060405280519060200120600160009054906101000a900473ffffffffffffffffffffffffffffffffffffffff1673ffffffffffffffffffffffffffffffffffffffff1662438ceb846040518263ffffffff1660e01b81526004016141ee9190615944565b600060405180830381865afa15801561420b573d6000803e3d6000fd5b505050506040513d6000823e3d601f19601f820116820180604052508101906142349190615a9e565b602001516040516020016142489190615b18565b60405160208183030381529060405280519060200120145b1561426e5760019050614273565b600090505b919050565b60008073ffffffffffffffffffffffffffffffffffffffff16600160009054906101000a900473ffffffffffffffffffffffffffffffffffffffff1673ffffffffffffffffffffffffffffffffffffffff166347eb6fa787600001516040518263ffffffff1660e01b81526004016142f0919061701c565b600060405180830381865afa15801561430d573d6000803e3d6000fd5b505050506040513d6000823e3d601f19601f8201168201806040525081019061433691906163df565b602001516080015173ffffffffffffffffffffffffffffffffffffffff161415801561443a5750600073ffffffffffffffffffffffffffffffffffffffff16600160009054906101000a900473ffffffffffffffffffffffffffffffffffffffff1673ffffffffffffffffffffffffffffffffffffffff166347eb6fa786600001516040518263ffffffff1660e01b81526004016143d4919061701c565b600060405180830381865afa1580156143f1573d6000803e3d6000fd5b505050506040513d6000823e3d601f19601f8201168201806040525081019061441a91906163df565b602001516080015173ffffffffffffffffffffffffffffffffffffffff16145b8015614494575060405160200161445090616129565b60405160208183030381529060405280519060200120846020015160405160200161447b9190615b18565b6040516020818303038152906040528051906020012014155b80156144ee57506040516020016144aa90616129565b604051602081830303815290604052805190602001208460a001516040516020016144d59190615b18565b6040516020818303038152906040528051906020012014155b8015614548575060405160200161450490616129565b604051602081830303815290604052805190602001208460c0015160405160200161452f9190615b18565b6040516020818303038152906040528051906020012014155b80156145a3575060405160200161455e90616129565b6040516020818303038152906040528051906020012084610100015160405160200161458a9190615b18565b6040516020818303038152906040528051906020012014155b80156145b0575081518351145b80156145ef5750846080015173ffffffffffffffffffffffffffffffffffffffff16856080015173ffffffffffffffffffffffffffffffffffffffff16145b801561462c5750600073ffffffffffffffffffffffffffffffffffffffff16856080015173ffffffffffffffffffffffffffffffffffffffff1614155b1561463a576001905061463f565b600090505b949350505050565b60008273ffffffffffffffffffffffffffffffffffffffff163373ffffffffffffffffffffffffffffffffffffffff1614801561468b575061468983836113e9565b155b801561472f5750600260009054906101000a900473ffffffffffffffffffffffffffffffffffffffff1673ffffffffffffffffffffffffffffffffffffffff1663a240e426846040518263ffffffff1660e01b81526004016146ed9190615517565b602060405180830381865afa15801561470a573d6000803e3d6000fd5b505050506040513d601f19601f8201168201806040525081019061472e9190615c48565b5b1561473d5760019050614742565b600090505b92915050565b828054828255906000526020600020908101928215614790579160200282015b8281111561478f57825182908161477f9190615e8b565b5091602001919060010190614768565b5b50905061479d919061494d565b5090565b604051806060016040528060001515815260200160608152602001606081525090565b60405180610120016040528060608152602001606081526020016000815260200160608152602001600073ffffffffffffffffffffffffffffffffffffffff168152602001606081526020016060815260200160608152602001606081525090565b604051806060016040528060001515815260200160608152602001606081525090565b604051806060016040528060001515815260200160608152602001606081525090565b8280548282559060005260206000209081019282156148b85760005260206000209182015b828111156148b757828290816148a79190616cef565b5091600101919060010190614891565b5b5090506148c5919061494d565b5090565b5080546148d590615ca4565b6000825580601f106148e75750614906565b601f0160209004906000526020600020908101906149059190614971565b5b50565b5080546000825590600052602060002090810190614927919061494d565b50565b604051806060016040528060001515815260200160608152602001606081525090565b5b8082111561496d576000818161496491906148c9565b5060010161494e565b5090565b5b8082111561498a576000816000905550600101614972565b5090565b6000604051905090565b600080fd5b600080fd5b600073ffffffffffffffffffffffffffffffffffffffff82169050919050565b60006149cd826149a2565b9050919050565b6149dd816149c2565b81146149e857600080fd5b50565b6000813590506149fa816149d4565b92915050565b600080fd5b600080fd5b6000601f19601f8301169050919050565b7f4e487b7100000000000000000000000000000000000000000000000000000000600052604160045260246000fd5b614a5382614a0a565b810181811067ffffffffffffffff82111715614a7257614a71614a1b565b5b80604052505050565b6000614a8561498e565b9050614a918282614a4a565b919050565b600067ffffffffffffffff821115614ab157614ab0614a1b565b5b614aba82614a0a565b9050602081019050919050565b82818337600083830152505050565b6000614ae9614ae484614a96565b614a7b565b905082815260208101848484011115614b0557614b04614a05565b5b614b10848285614ac7565b509392505050565b600082601f830112614b2d57614b2c614a00565b5b8135614b3d848260208601614ad6565b91505092915050565b600067ffffffffffffffff821115614b6157614b60614a1b565b5b602082029050602081019050919050565b600080fd5b6000614b8a614b8584614b46565b614a7b565b90508083825260208201905060208402830185811115614bad57614bac614b72565b5b835b81811015614bf457803567ffffffffffffffff811115614bd257614bd1614a00565b5b808601614bdf8982614b18565b85526020850194505050602081019050614baf565b5050509392505050565b600082601f830112614c1357614c12614a00565b5b8135614c23848260208601614b77565b91505092915050565b60008060008060808587031215614c4657614c45614998565b5b6000614c54878288016149eb565b945050602085013567ffffffffffffffff811115614c7557614c7461499d565b5b614c8187828801614b18565b935050604085013567ffffffffffffffff811115614ca257614ca161499d565b5b614cae87828801614b18565b925050606085013567ffffffffffffffff811115614ccf57614cce61499d565b5b614cdb87828801614bfe565b91505092959194509250565b60008060408385031215614cfe57614cfd614998565b5b6000614d0c858286016149eb565b925050602083013567ffffffffffffffff811115614d2d57614d2c61499d565b5b614d3985828601614b18565b9150509250929050565b60008115159050919050565b614d5881614d43565b82525050565b600081519050919050565b600082825260208201905092915050565b6000819050602082019050919050565b600081519050919050565b600082825260208201905092915050565b60005b83811015614dc4578082015181840152602081019050614da9565b60008484015250505050565b6000614ddb82614d8a565b614de58185614d95565b9350614df5818560208601614da6565b614dfe81614a0a565b840191505092915050565b6000819050919050565b614e1c81614e09565b82525050565b614e2b816149c2565b82525050565b6000610120830160008301518482036000860152614e4f8282614dd0565b91505060208301518482036020860152614e698282614dd0565b9150506040830151614e7e6040860182614e13565b5060608301518482036060860152614e968282614dd0565b9150506080830151614eab6080860182614e22565b5060a083015184820360a0860152614ec38282614dd0565b91505060c083015184820360c0860152614edd8282614dd0565b91505060e083015184820360e0860152614ef78282614dd0565b915050610100830151848203610100860152614f138282614dd0565b9150508091505092915050565b6000614f2c8383614e31565b905092915050565b6000602082019050919050565b6000614f4c82614d5e565b614f568185614d69565b935083602082028501614f6885614d7a565b8060005b85811015614fa45784840389528151614f858582614f20565b9450614f9083614f34565b925060208a01995050600181019050614f6c565b50829750879550505050505092915050565b6000606083016000830151614fce6000860182614d4f565b5060208301518482036020860152614fe68282614f41565b915050604083015184820360408601526150008282614dd0565b9150508091505092915050565b600060208201905081810360008301526150278184614fb6565b905092915050565b600081519050919050565b600082825260208201905092915050565b6000819050602082019050919050565b60006150678383614dd0565b905092915050565b6000602082019050919050565b60006150878261502f565b615091818561503a565b9350836020820285016150a38561504b565b8060005b858110156150df57848403895281516150c0858261505b565b94506150cb8361506f565b925060208a019950506001810190506150a7565b50829750879550505050505092915050565b60006060830160008301516151096000860182614d4f565b5060208301518482036020860152615121828261507c565b9150506040830151848203604086015261513b8282614dd0565b9150508091505092915050565b6000602082019050818103600083015261516281846150f1565b905092915050565b61517381614d43565b82525050565b600060208201905061518e600083018461516a565b92915050565b600080fd5b600080fd5b6151a781614e09565b81146151b257600080fd5b50565b6000813590506151c48161519e565b92915050565b600061012082840312156151e1576151e0615194565b5b6151ec610120614a7b565b9050600082013567ffffffffffffffff81111561520c5761520b615199565b5b61521884828501614b18565b600083015250602082013567ffffffffffffffff81111561523c5761523b615199565b5b61524884828501614b18565b602083015250604061525c848285016151b5565b604083015250606082013567ffffffffffffffff8111156152805761527f615199565b5b61528c84828501614b18565b60608301525060806152a0848285016149eb565b60808301525060a082013567ffffffffffffffff8111156152c4576152c3615199565b5b6152d084828501614b18565b60a08301525060c082013567ffffffffffffffff8111156152f4576152f3615199565b5b61530084828501614b18565b60c08301525060e082013567ffffffffffffffff81111561532457615323615199565b5b61533084828501614b18565b60e08301525061010082013567ffffffffffffffff81111561535557615354615199565b5b61536184828501614b18565b6101008301525092915050565b600067ffffffffffffffff82111561538957615388614a1b565b5b602082029050602081019050919050565b60006153ad6153a88461536e565b614a7b565b905080838252602082019050602084028301858111156153d0576153cf614b72565b5b835b818110156153f957806153e588826149eb565b8452602084019350506020810190506153d2565b5050509392505050565b600082601f83011261541857615417614a00565b5b813561542884826020860161539a565b91505092915050565b6000806000806080858703121561544b5761544a614998565b5b600085013567ffffffffffffffff8111156154695761546861499d565b5b615475878288016151ca565b945050602085013567ffffffffffffffff8111156154965761549561499d565b5b6154a2878288016151ca565b935050604085013567ffffffffffffffff8111156154c3576154c261499d565b5b6154cf87828801615403565b925050606085013567ffffffffffffffff8111156154f0576154ef61499d565b5b6154fc87828801614bfe565b91505092959194509250565b615511816149c2565b82525050565b600060208201905061552c6000830184615508565b92915050565b6000806040838503121561554957615548614998565b5b600083013567ffffffffffffffff8111156155675761556661499d565b5b61557385828601614b18565b9250506020615584858286016149eb565b9150509250929050565b6000806000606084860312156155a7576155a6614998565b5b60006155b5868287016149eb565b935050602084013567ffffffffffffffff8111156155d6576155d561499d565b5b6155e286828701614b18565b925050604084013567ffffffffffffffff8111156156035761560261499d565b5b61560f86828701614bfe565b9150509250925092565b60006060830160008301516156316000860182614d4f565b50602083015184820360208601526156498282614dd0565b915050604083015184820360408601526156638282614dd0565b9150508091505092915050565b6000602082019050818103600083015261568a8184615619565b905092915050565b6000602082840312156156a8576156a7614998565b5b600082013567ffffffffffffffff8111156156c6576156c561499d565b5b6156d2848285016151ca565b91505092915050565b600081519050919050565b600082825260208201905092915050565b6000819050602082019050919050565b60006157138383614e22565b60208301905092915050565b6000602082019050919050565b6000615737826156db565b61574181856156e6565b935061574c836156f7565b8060005b8381101561577d5781516157648882615707565b975061576f8361571f565b925050600181019050615750565b5085935050505092915050565b60006060830160008301516157a26000860182614d4f565b50602083015184820360208601526157ba828261572c565b915050604083015184820360408601526157d48282614dd0565b9150508091505092915050565b600060208201905081810360008301526157fb818461578a565b905092915050565b60008060006060848603121561581c5761581b614998565b5b600061582a868287016149eb565b935050602084013567ffffffffffffffff81111561584b5761584a61499d565b5b615857868287016151ca565b925050604084013567ffffffffffffffff8111156158785761587761499d565b5b61588486828701614b18565b9150509250925092565b600081905092915050565b7f6163746976650000000000000000000000000000000000000000000000000000600082015250565b60006158cf60068361588e565b91506158da82615899565b600682019050919050565b60006158f0826158c2565b9150819050919050565b600082825260208201905092915050565b600061591682614d8a565b61592081856158fa565b9350615930818560208601614da6565b61593981614a0a565b840191505092915050565b6000602082019050818103600083015261595e818461590b565b905092915050565b61596f81614d43565b811461597a57600080fd5b50565b60008151905061598c81615966565b92915050565b60006159a56159a084614a96565b614a7b565b9050828152602081018484840111156159c1576159c0614a05565b5b6159cc848285614da6565b509392505050565b600082601f8301126159e9576159e8614a00565b5b81516159f9848260208601615992565b91505092915050565b600060608284031215615a1857615a17615194565b5b615a226060614a7b565b90506000615a328482850161597d565b600083015250602082015167ffffffffffffffff811115615a5657615a55615199565b5b615a62848285016159d4565b602083015250604082015167ffffffffffffffff811115615a8657615a85615199565b5b615a92848285016159d4565b60408301525092915050565b600060208284031215615ab457615ab3614998565b5b600082015167ffffffffffffffff811115615ad257615ad161499d565b5b615ade84828501615a02565b91505092915050565b6000615af282614d8a565b615afc818561588e565b9350615b0c818560208601614da6565b80840191505092915050565b6000615b248284615ae7565b915081905092915050565b600082825260208201905092915050565b6000615b4b8261502f565b615b558185615b2f565b935083602082028501615b678561504b565b8060005b85811015615ba35784840389528151615b84858261505b565b9450615b8f8361506f565b925060208a01995050600181019050615b6b565b50829750879550505050505092915050565b50565b6000615bc56000836158fa565b9150615bd082615bb5565b600082019050919050565b600060a082019050615bf06000830187615508565b8181036020830152615c02818661590b565b90508181036040830152615c16818561590b565b90508181036060830152615c2a8184615b40565b90508181036080830152615c3d81615bb8565b905095945050505050565b600060208284031215615c5e57615c5d614998565b5b6000615c6c8482850161597d565b91505092915050565b7f4e487b7100000000000000000000000000000000000000000000000000000000600052602260045260246000fd5b60006002820490506001821680615cbc57607f821691505b602082108103615ccf57615cce615c75565b5b50919050565b60008190508160005260206000209050919050565b60006020601f8301049050919050565b600082821b905092915050565b600060088302615d377fffffffffffffffffffffffffffffffffffffffffffffffffffffffffffffffff82615cfa565b615d418683615cfa565b95508019841693508086168417925050509392505050565b6000819050919050565b6000819050919050565b6000615d88615d83615d7e84615d59565b615d63565b615d59565b9050919050565b6000819050919050565b615da283615d6d565b615db6615dae82615d8f565b848454615d07565b825550505050565b600090565b615dcb615dbe565b615dd6818484615d99565b505050565b5b81811015615dfa57615def600082615dc3565b600181019050615ddc565b5050565b601f821115615e3f57615e1081615cd5565b615e1984615cea565b81016020851015615e28578190505b615e3c615e3485615cea565b830182615ddb565b50505b505050565b600082821c905092915050565b6000615e6260001984600802615e44565b1980831691505092915050565b6000615e7b8383615e51565b9150826002028217905092915050565b615e9482614d8a565b67ffffffffffffffff811115615ead57615eac614a1b565b5b615eb78254615ca4565b615ec2828285615dfe565b600060209050601f831160018114615ef55760008415615ee3578287015190505b615eed8582615e6f565b865550615f55565b601f198416615f0386615cd5565b60005b82811015615f2b57848901518255600182019150602085019450602081019050615f06565b86831015615f485784890151615f44601f891682615e51565b8355505b6001600288020188555050505b505050505050565b60006020820190508181036000830152615f778184615b40565b905092915050565b7f7368617265000000000000000000000000000000000000000000000000000000600082015250565b6000615fb56005836158fa565b9150615fc082615f7f565b602082019050919050565b600060a082019050615fe06000830187615508565b8181036020830152615ff2818661590b565b90506160016040830185615508565b8181036060830152616013818461590b565b9050818103608083015261602681615fa8565b905095945050505050565b7f4e487b7100000000000000000000000000000000000000000000000000000000600052603260045260246000fd5b6000815461606d81615ca4565b61607781866158fa565b9450600182166000811461609257600181146160a8576160db565b60ff1983168652811515602002860193506160db565b6160b185615cd5565b60005b838110156160d3578154818901526001820191506020810190506160b4565b808801955050505b50505092915050565b600060208201905081810360008301526160fe8184616060565b905092915050565b600061611360008361588e565b915061611e82615bb5565b600082019050919050565b600061613482616106565b9150819050919050565b60006040820190508181036000830152616158818561590b565b9050818103602083015261616c818461590b565b90509392505050565b6000815190506161848161519e565b92915050565b600081519050616199816149d4565b92915050565b600061012082840312156161b6576161b5615194565b5b6161c1610120614a7b565b9050600082015167ffffffffffffffff8111156161e1576161e0615199565b5b6161ed848285016159d4565b600083015250602082015167ffffffffffffffff81111561621157616210615199565b5b61621d848285016159d4565b602083015250604061623184828501616175565b604083015250606082015167ffffffffffffffff81111561625557616254615199565b5b616261848285016159d4565b60608301525060806162758482850161618a565b60808301525060a082015167ffffffffffffffff81111561629957616298615199565b5b6162a5848285016159d4565b60a08301525060c082015167ffffffffffffffff8111156162c9576162c8615199565b5b6162d5848285016159d4565b60c08301525060e082015167ffffffffffffffff8111156162f9576162f8615199565b5b616305848285016159d4565b60e08301525061010082015167ffffffffffffffff81111561632a57616329615199565b5b616336848285016159d4565b6101008301525092915050565b60006060828403121561635957616358615194565b5b6163636060614a7b565b905060006163738482850161597d565b600083015250602082015167ffffffffffffffff81111561639757616396615199565b5b6163a38482850161619f565b602083015250604082015167ffffffffffffffff8111156163c7576163c6615199565b5b6163d3848285016159d4565b60408301525092915050565b6000602082840312156163f5576163f4614998565b5b600082015167ffffffffffffffff8111156164135761641261499d565b5b61641f84828501616343565b91505092915050565b7f4e487b7100000000000000000000000000000000000000000000000000000000600052601160045260246000fd5b600061646282615d59565b91507fffffffffffffffffffffffffffffffffffffffffffffffffffffffffffffffff820361649457616493616428565b5b600182019050919050565b60006080820190506164b46000830187615508565b6164c16020830186615508565b81810360408301526164d3818561590b565b905081810360608301526164e78184616060565b905095945050505050565b60006040820190506165076000830185615508565b8181036020830152616519818461590b565b90509392505050565b60006101208301600083015184820360008601526165408282614dd0565b9150506020830151848203602086015261655a8282614dd0565b915050604083015161656f6040860182614e13565b50606083015184820360608601526165878282614dd0565b915050608083015161659c6080860182614e22565b5060a083015184820360a08601526165b48282614dd0565b91505060c083015184820360c08601526165ce8282614dd0565b91505060e083015184820360e08601526165e88282614dd0565b9150506101008301518482036101008601526166048282614dd0565b9150508091505092915050565b6000604082019050818103600083015261662b8185616522565b9050818103602083015261663f8184616522565b90509392505050565b6000815461665581615ca4565b61665f818661588e565b9450600182166000811461667a576001811461668f576166c2565b60ff19831686528115158202860193506166c2565b61669885615cd5565b60005b838110156166ba5781548189015260018201915060208101905061669b565b838801955050505b50505092915050565b60006166d78284616648565b915081905092915050565b7f2d00000000000000000000000000000000000000000000000000000000000000600082015250565b60006167186001836158fa565b9150616723826166e2565b602082019050919050565b7f6564697400000000000000000000000000000000000000000000000000000000600082015250565b60006167646004836158fa565b915061676f8261672e565b602082019050919050565b600060a08201905061678f6000830186615508565b81810360208301526167a1818561590b565b90506167b06040830184615508565b81810360608301526167c18161670b565b905081810360808301526167d481616757565b9050949350505050565b7f646f776e6c6f6164000000000000000000000000000000000000000000000000600082015250565b60006168146008836158fa565b915061681f826167de565b602082019050919050565b600060a08201905061683f6000830186615508565b8181036020830152616851818561590b565b90506168606040830184615508565b81810360608301526168718161670b565b9050818103608083015261688481616807565b9050949350505050565b7f757064617465207065726d697373696f6e730000000000000000000000000000600082015250565b60006168c46012836158fa565b91506168cf8261688e565b602082019050919050565b600060a0820190506168ef6000830187615508565b8181036020830152616901818661590b565b90506169106040830185615508565b8181036060830152616922818461590b565b90508181036080830152616935816168b7565b905095945050505050565b7f6564697465640000000000000000000000000000000000000000000000000000600082015250565b600061697660068361588e565b915061698182616940565b600682019050919050565b600061699782616969565b9150819050919050565b60006169b46169af84614b46565b614a7b565b905080838252602082019050602084028301858111156169d7576169d6614b72565b5b835b81811015616a1e57805167ffffffffffffffff8111156169fc576169fb614a00565b5b808601616a0989826159d4565b855260208501945050506020810190506169d9565b5050509392505050565b600082601f830112616a3d57616a3c614a00565b5b8151616a4d8482602086016169a1565b91505092915050565b600060608284031215616a6c57616a6b615194565b5b616a766060614a7b565b90506000616a868482850161597d565b600083015250602082015167ffffffffffffffff811115616aaa57616aa9615199565b5b616ab684828501616a28565b602083015250604082015167ffffffffffffffff811115616ada57616ad9615199565b5b616ae6848285016159d4565b60408301525092915050565b600060208284031215616b0857616b07614998565b5b600082015167ffffffffffffffff811115616b2657616b2561499d565b5b616b3284828501616a56565b91505092915050565b7f64656c6574656400000000000000000000000000000000000000000000000000600082015250565b6000616b716007836158fa565b9150616b7c82616b3b565b602082019050919050565b600060a082019050616b9c6000830186615508565b8181036020830152616bae818561590b565b9050616bbd6040830184615508565b8181036060830152616bce8161670b565b90508181036080830152616be181616b64565b9050949350505050565b600081905092915050565b60008190508160005260206000209050919050565b60008154616c1881615ca4565b616c228186616beb565b94506001821660008114616c3d5760018114616c5257616c85565b60ff1983168652811515820286019350616c85565b616c5b85616bf6565b60005b83811015616c7d57815481890152600182019150602081019050616c5e565b838801955050505b50505092915050565b6000616c9a8284616c0b565b915081905092915050565b6000616cb082615d59565b9150616cbb83615d59565b9250828203905081811115616cd357616cd2616428565b5b92915050565b600081549050616ce881615ca4565b9050919050565b818103616cfd575050616dd5565b616d0682616cd9565b67ffffffffffffffff811115616d1f57616d1e614a1b565b5b616d298254615ca4565b616d34828285615dfe565b6000601f831160018114616d635760008415616d51578287015490505b616d5b8582615e6f565b865550616dce565b601f198416616d7187615cd5565b9650616d7c86615cd5565b60005b82811015616da457848901548255600182019150600185019450602081019050616d7f565b86831015616dc15784890154616dbd601f891682615e51565b8355505b6001600288020188555050505b5050505050505b565b7f4e487b7100000000000000000000000000000000000000000000000000000000600052603160045260246000fd5b7f72656d6f76656420616363657373000000000000000000000000000000000000600082015250565b6000616e3c600e836158fa565b9150616e4782616e06565b602082019050919050565b600060a082019050616e676000830186615508565b8181036020830152616e79818561590b565b9050616e886040830184615508565b8181036060830152616e998161670b565b90508181036080830152616eac81616e2f565b9050949350505050565b600060a082019050616ecb6000830188615508565b8181036020830152616edd818761590b565b90508181036040830152616ef1818661590b565b90508181036060830152616f058185615b40565b90508181036080830152616f19818461590b565b90509695505050505050565b60006020820190508181036000830152616f3f8184616522565b905092915050565b7f75706c6f61640000000000000000000000000000000000000000000000000000600082015250565b6000616f7d6006836158fa565b9150616f8882616f47565b602082019050919050565b600060a082019050616fa86000830187615508565b8181036020830152616fba818661590b565b9050616fc96040830185615508565b8181036060830152616fdb818461590b565b90508181036080830152616fee81616f70565b905095945050505050565b60006170066006836158fa565b915061701182615899565b602082019050919050565b60006040820190508181036000830152617036818461590b565b9050818103602083015261704981616ff9565b90509291505056fe4d616b65207375726520746865207472616e73616374696f6e20657865637574657220617320746f206265207468652073616d652061732074686520757365722c2074686520757365722068617320746f206265206173736f6369617465642077697468207468652066696c652c20616e64207468652066696c652068617320746f20626520696e2074686520616374697665206f72206564697465642073746174652e536f6d657468696e672077656e742077726f6e67207768696c6520747279696e6720746f2067657420746865207573657273207769746820646f776e6c6f6164207065726d697373696f6e73206f766572207468652066696c652e546865207472616e61736374696f6e2065786563757465722073686f756c64206265207468652073616d6520617320746865207573657220746f20676574207468652066696c65732066726f6d2e546865207472616e73616374696f6e2065786563757465722068617320746f206265206173736f6369617465642077697468207468652066696c652c20616e64207468652066696c652073686f756c6420626520696e20746865206163746976652073746174652ea2646970667358221220a387e1d66749d92604081df37b0f48503dab7a0b88566cdb343a8cf56a6c82d364736f6c6343000813003360806040523480156200001157600080fd5b50604051620038a2380380620038a28339818101604052810190620000379190620000e9565b80600260006101000a81548173ffffffffffffffffffffffffffffffffffffffff021916908373ffffffffffffffffffffffffffffffffffffffff160217905550506200011b565b600080fd5b600073ffffffffffffffffffffffffffffffffffffffff82169050919050565b6000620000b18262000084565b9050919050565b620000c381620000a4565b8114620000cf57600080fd5b50565b600081519050620000e381620000b8565b92915050565b6000602082840312156200010257620001016200007f565b5b60006200011284828501620000d2565b91505092915050565b613777806200012b6000396000f3fe608060405234801561001057600080fd5b50600436106100a85760003560e01c806395f0f0bb1161007157806395f0f0bb146101895780639bccd6ad146101a5578063bfddc42f146101d5578063e8d56b8b146101f1578063f880680b1461020d578063fadc54f41461023d576100a8565b8062438ceb146100ad57806347eb6fa7146100dd57806352a9baef1461010d57806374546fdf1461013d578063922243ad14610159575b600080fd5b6100c760048036038101906100c291906125cd565b61026d565b6040516100d49190612707565b60405180910390f35b6100f760048036038101906100f29190612729565b610352565b6040516101049190612941565b60405180910390f35b6101276004803603810190610122919061298f565b610a14565b60405161013491906129fa565b60405180910390f35b610157600480360381019061015291906125cd565b610a9e565b005b610173600480360381019061016e91906125cd565b610b5b565b6040516101809190612b2e565b60405180910390f35b6101a3600480360381019061019e9190612d2a565b610f10565b005b6101bf60048036038101906101ba91906125cd565b61123b565b6040516101cc91906129fa565b60405180910390f35b6101ef60048036038101906101ea9190612da2565b6112df565b005b61020b60048036038101906102069190612deb565b61150e565b005b610227600480360381019061022291906125cd565b61165e565b6040516102349190612707565b60405180910390f35b610257600480360381019061025291906125cd565b6117e5565b6040516102649190612f31565b60405180910390f35b61027561237f565b60405180606001604052806001151581526020016000846040516102999190612f8f565b908152602001604051809103902060070180546102b590612fd5565b80601f01602080910402602001604051908101604052809291908181526020018280546102e190612fd5565b801561032e5780601f106103035761010080835404028352916020019161032e565b820191906000526020600020905b81548152906001019060200180831161031157829003601f168201915b50505050508152602001604051806020016040528060008152508152509050919050565b61035a6123a2565b6000808460405161036b9190612f8f565b9081526020016040518091039020600101805461038790612fd5565b90501180156104555750816040516020016103a29190612f8f565b604051602081830303815290604052805190602001206000846040516103c89190612f8f565b90815260200160405180910390206007016040516020016103e9919061309e565b6040516020818303038152906040528051906020012014806104545750604051602001610415906130db565b604051602081830303815290604052805190602001208260405160200161043c9190612f8f565b60405160208183030381529060405280519060200120145b5b1561091557604051806060016040528060011515815260200160008560405161047e9190612f8f565b9081526020016040518091039020604051806101200160405290816000820180546104a890612fd5565b80601f01602080910402602001604051908101604052809291908181526020018280546104d490612fd5565b80156105215780601f106104f657610100808354040283529160200191610521565b820191906000526020600020905b81548152906001019060200180831161050457829003601f168201915b5050505050815260200160018201805461053a90612fd5565b80601f016020809104026020016040519081016040528092919081815260200182805461056690612fd5565b80156105b35780601f10610588576101008083540402835291602001916105b3565b820191906000526020600020905b81548152906001019060200180831161059657829003601f168201915b50505050508152602001600282015481526020016003820180546105d690612fd5565b80601f016020809104026020016040519081016040528092919081815260200182805461060290612fd5565b801561064f5780601f106106245761010080835404028352916020019161064f565b820191906000526020600020905b81548152906001019060200180831161063257829003601f168201915b505050505081526020016004820160009054906101000a900473ffffffffffffffffffffffffffffffffffffffff1673ffffffffffffffffffffffffffffffffffffffff1673ffffffffffffffffffffffffffffffffffffffff1681526020016005820180546106be90612fd5565b80601f01602080910402602001604051908101604052809291908181526020018280546106ea90612fd5565b80156107375780601f1061070c57610100808354040283529160200191610737565b820191906000526020600020905b81548152906001019060200180831161071a57829003601f168201915b5050505050815260200160068201805461075090612fd5565b80601f016020809104026020016040519081016040528092919081815260200182805461077c90612fd5565b80156107c95780601f1061079e576101008083540402835291602001916107c9565b820191906000526020600020905b8154815290600101906020018083116107ac57829003601f168201915b505050505081526020016007820180546107e290612fd5565b80601f016020809104026020016040519081016040528092919081815260200182805461080e90612fd5565b801561085b5780601f106108305761010080835404028352916020019161085b565b820191906000526020600020905b81548152906001019060200180831161083e57829003601f168201915b5050505050815260200160088201805461087490612fd5565b80601f01602080910402602001604051908101604052809291908181526020018280546108a090612fd5565b80156108ed5780601f106108c2576101008083540402835291602001916108ed565b820191906000526020600020905b8154815290600101906020018083116108d057829003601f168201915b5050505050815250508152602001604051806020016040528060008152508152509050610a0e565b604051806060016040528060001515815260200160405180610120016040528060405180602001604052806000815250815260200160405180602001604052806000815250815260200160008152602001604051806020016040528060008152508152602001600073ffffffffffffffffffffffffffffffffffffffff16815260200160405180602001604052806000815250815260200160405180602001604052806000815250815260200160405180602001604052806000815250815260200160405180602001604052806000815250815250815260200160405180608001604052806041815260200161367a6041913981525090505b92915050565b60008273ffffffffffffffffffffffffffffffffffffffff16600083604051610a3d9190612f8f565b908152602001604051809103902060040160009054906101000a900473ffffffffffffffffffffffffffffffffffffffff1673ffffffffffffffffffffffffffffffffffffffff1603610a935760019050610a98565b600090505b92915050565b600360009054906101000a900473ffffffffffffffffffffffffffffffffffffffff1673ffffffffffffffffffffffffffffffffffffffff163373ffffffffffffffffffffffffffffffffffffffff1603610b58576040518060400160405280600881526020017f6465616374697665000000000000000000000000000000000000000000000000815250600082604051610b399190612f8f565b90815260200160405180910390206007019081610b569190613291565b505b50565b610b636123cb565b600360009054906101000a900473ffffffffffffffffffffffffffffffffffffffff1673ffffffffffffffffffffffffffffffffffffffff163373ffffffffffffffffffffffffffffffffffffffff1603610e8457600060018054905067ffffffffffffffff811115610bd957610bd86124a2565b5b604051908082528060200260200182016040528015610c0c57816020015b6060815260200190600190039081610bf75790505b5090506000805b600180549050811015610e4a5784604051602001610c319190612f8f565b60405160208183030381529060405280519060200120600060018381548110610c5d57610c5c613363565b5b90600052602060002001604051610c74919061309e565b9081526020016040518091039020600101604051602001610c95919061309e565b60405160208183030381529060405280519060200120148015610d3e5750604051602001610cc2906133de565b60405160208183030381529060405280519060200120600060018381548110610cee57610ced613363565b5b90600052602060002001604051610d05919061309e565b9081526020016040518091039020600701604051602001610d26919061309e565b60405160208183030381529060405280519060200120145b15610e3757600060018281548110610d5957610d58613363565b5b90600052602060002001604051610d70919061309e565b90815260200160405180910390206000018054610d8c90612fd5565b80601f0160208091040260200160405190810160405280929190818152602001828054610db890612fd5565b8015610e055780601f10610dda57610100808354040283529160200191610e05565b820191906000526020600020905b815481529060010190602001808311610de857829003601f168201915b5050505050838381518110610e1d57610e1c613363565b5b60200260200101819052508180610e3390613422565b9250505b8080610e4290613422565b915050610c13565b5080825260405180606001604052806001151581526020018381526020016040518060200160405280600081525081525092505050610f0b565b6040518060600160405280600115158152602001600067ffffffffffffffff811115610eb357610eb26124a2565b5b604051908082528060200260200182016040528015610ee657816020015b6060815260200190600190039081610ed15790505b5081526020016040518060800160405280604381526020016136ff6043913981525090505b919050565b600360009054906101000a900473ffffffffffffffffffffffffffffffffffffffff1673ffffffffffffffffffffffffffffffffffffffff163373ffffffffffffffffffffffffffffffffffffffff16148015610fa05750816080015173ffffffffffffffffffffffffffffffffffffffff16826080015173ffffffffffffffffffffffffffffffffffffffff16145b8015610fdd5750600073ffffffffffffffffffffffffffffffffffffffff16826080015173ffffffffffffffffffffffffffffffffffffffff1614155b15611237576040518060400160405280600681526020017f65646974656400000000000000000000000000000000000000000000000000008152506000836000015160405161102c9190612f8f565b908152602001604051809103902060070190816110499190613291565b508160800151816080019073ffffffffffffffffffffffffffffffffffffffff16908173ffffffffffffffffffffffffffffffffffffffff168152505081600001518160600181905250600182604001516110a4919061346a565b8160400181815250506040518060400160405280600681526020017f61637469766500000000000000000000000000000000000000000000000000008152508160e0018190525080600082600001516040516111009190612f8f565b908152602001604051809103902060008201518160000190816111239190613291565b5060208201518160010190816111399190613291565b506040820151816002015560608201518160030190816111599190613291565b5060808201518160040160006101000a81548173ffffffffffffffffffffffffffffffffffffffff021916908373ffffffffffffffffffffffffffffffffffffffff16021790555060a08201518160050190816111b69190613291565b5060c08201518160060190816111cc9190613291565b5060e08201518160070190816111e29190613291565b506101008201518160080190816111f99190613291565b50905050600181600001519080600181540180825580915050600190039060005260206000200160009091909190915090816112359190613291565b505b5050565b60008060008360405161124e9190612f8f565b9081526020016040518091039020600001805461126a90612fd5565b9050141580156112c75750600360009054906101000a900473ffffffffffffffffffffffffffffffffffffffff1673ffffffffffffffffffffffffffffffffffffffff163373ffffffffffffffffffffffffffffffffffffffff16145b156112d557600190506112da565b600090505b919050565b600360009054906101000a900473ffffffffffffffffffffffffffffffffffffffff1673ffffffffffffffffffffffffffffffffffffffff163373ffffffffffffffffffffffffffffffffffffffff160361150b5761133d8161225a565b1561150a576040518060400160405280600681526020017f61637469766500000000000000000000000000000000000000000000000000008152508160e001819052506040518060400160405280600181526020017f3000000000000000000000000000000000000000000000000000000000000000815250816060018190525080600082600001516040516113d39190612f8f565b908152602001604051809103902060008201518160000190816113f69190613291565b50602082015181600101908161140c9190613291565b5060408201518160020155606082015181600301908161142c9190613291565b5060808201518160040160006101000a81548173ffffffffffffffffffffffffffffffffffffffff021916908373ffffffffffffffffffffffffffffffffffffffff16021790555060a08201518160050190816114899190613291565b5060c082015181600601908161149f9190613291565b5060e08201518160070190816114b59190613291565b506101008201518160080190816114cc9190613291565b50905050600181600001519080600181540180825580915050600190039060005260206000200160009091909190915090816115089190613291565b505b5b50565b600073ffffffffffffffffffffffffffffffffffffffff168173ffffffffffffffffffffffffffffffffffffffff16141580156115995750600073ffffffffffffffffffffffffffffffffffffffff16600360009054906101000a900473ffffffffffffffffffffffffffffffffffffffff1673ffffffffffffffffffffffffffffffffffffffff16145b80156116145750600360009054906101000a900473ffffffffffffffffffffffffffffffffffffffff1673ffffffffffffffffffffffffffffffffffffffff16600360009054906101000a900473ffffffffffffffffffffffffffffffffffffffff1673ffffffffffffffffffffffffffffffffffffffff16145b1561165b5780600360006101000a81548173ffffffffffffffffffffffffffffffffffffffff021916908373ffffffffffffffffffffffffffffffffffffffff1602179055505b50565b61166661237f565b600360009054906101000a900473ffffffffffffffffffffffffffffffffffffffff1673ffffffffffffffffffffffffffffffffffffffff163373ffffffffffffffffffffffffffffffffffffffff16036117985760405180606001604052806001151581526020016000846040516116df9190612f8f565b908152602001604051809103902060080180546116fb90612fd5565b80601f016020809104026020016040519081016040528092919081815260200182805461172790612fd5565b80156117745780601f1061174957610100808354040283529160200191611774565b820191906000526020600020905b81548152906001019060200180831161175757829003601f168201915b505050505081526020016040518060200160405280600081525081525090506117e0565b60405180606001604052806000151581526020016040518060200160405280600081525081526020016040518060800160405280604481526020016136bb6044913981525090505b919050565b6117ed6123ee565b600060018054905067ffffffffffffffff81111561180e5761180d6124a2565b5b60405190808252806020026020018201604052801561184757816020015b611834612411565b81526020019060019003908161182c5790505b5090506000808460405161185b9190612f8f565b90815260200160405180910390206040518061012001604052908160008201805461188590612fd5565b80601f01602080910402602001604051908101604052809291908181526020018280546118b190612fd5565b80156118fe5780601f106118d3576101008083540402835291602001916118fe565b820191906000526020600020905b8154815290600101906020018083116118e157829003601f168201915b5050505050815260200160018201805461191790612fd5565b80601f016020809104026020016040519081016040528092919081815260200182805461194390612fd5565b80156119905780601f1061196557610100808354040283529160200191611990565b820191906000526020600020905b81548152906001019060200180831161197357829003601f168201915b50505050508152602001600282015481526020016003820180546119b390612fd5565b80601f01602080910402602001604051908101604052809291908181526020018280546119df90612fd5565b8015611a2c5780601f10611a0157610100808354040283529160200191611a2c565b820191906000526020600020905b815481529060010190602001808311611a0f57829003601f168201915b505050505081526020016004820160009054906101000a900473ffffffffffffffffffffffffffffffffffffffff1673ffffffffffffffffffffffffffffffffffffffff1673ffffffffffffffffffffffffffffffffffffffff168152602001600582018054611a9b90612fd5565b80601f0160208091040260200160405190810160405280929190818152602001828054611ac790612fd5565b8015611b145780601f10611ae957610100808354040283529160200191611b14565b820191906000526020600020905b815481529060010190602001808311611af757829003601f168201915b50505050508152602001600682018054611b2d90612fd5565b80601f0160208091040260200160405190810160405280929190818152602001828054611b5990612fd5565b8015611ba65780601f10611b7b57610100808354040283529160200191611ba6565b820191906000526020600020905b815481529060010190602001808311611b8957829003601f168201915b50505050508152602001600782018054611bbf90612fd5565b80601f0160208091040260200160405190810160405280929190818152602001828054611beb90612fd5565b8015611c385780601f10611c0d57610100808354040283529160200191611c38565b820191906000526020600020905b815481529060010190602001808311611c1b57829003601f168201915b50505050508152602001600882018054611c5190612fd5565b80601f0160208091040260200160405190810160405280929190818152602001828054611c7d90612fd5565b8015611cca5780601f10611c9f57610100808354040283529160200191611cca565b820191906000526020600020905b815481529060010190602001808311611cad57829003601f168201915b505050505081525050905060005b604051602001611ce7906134fa565b604051602081830303815290604052805190602001208260600151604051602001611d129190612f8f565b60405160208183030381529060405280519060200120146121f35781838281518110611d4157611d40613363565b5b60200260200101819052508080611d5790613422565b915050600082606001519050600081604051611d739190612f8f565b908152602001604051809103902060405180610120016040529081600082018054611d9d90612fd5565b80601f0160208091040260200160405190810160405280929190818152602001828054611dc990612fd5565b8015611e165780601f10611deb57610100808354040283529160200191611e16565b820191906000526020600020905b815481529060010190602001808311611df957829003601f168201915b50505050508152602001600182018054611e2f90612fd5565b80601f0160208091040260200160405190810160405280929190818152602001828054611e5b90612fd5565b8015611ea85780601f10611e7d57610100808354040283529160200191611ea8565b820191906000526020600020905b815481529060010190602001808311611e8b57829003601f168201915b5050505050815260200160028201548152602001600382018054611ecb90612fd5565b80601f0160208091040260200160405190810160405280929190818152602001828054611ef790612fd5565b8015611f445780601f10611f1957610100808354040283529160200191611f44565b820191906000526020600020905b815481529060010190602001808311611f2757829003601f168201915b505050505081526020016004820160009054906101000a900473ffffffffffffffffffffffffffffffffffffffff1673ffffffffffffffffffffffffffffffffffffffff1673ffffffffffffffffffffffffffffffffffffffff168152602001600582018054611fb390612fd5565b80601f0160208091040260200160405190810160405280929190818152602001828054611fdf90612fd5565b801561202c5780601f106120015761010080835404028352916020019161202c565b820191906000526020600020905b81548152906001019060200180831161200f57829003601f168201915b5050505050815260200160068201805461204590612fd5565b80601f016020809104026020016040519081016040528092919081815260200182805461207190612fd5565b80156120be5780601f10612093576101008083540402835291602001916120be565b820191906000526020600020905b8154815290600101906020018083116120a157829003601f168201915b505050505081526020016007820180546120d790612fd5565b80601f016020809104026020016040519081016040528092919081815260200182805461210390612fd5565b80156121505780601f1061212557610100808354040283529160200191612150565b820191906000526020600020905b81548152906001019060200180831161213357829003601f168201915b5050505050815260200160088201805461216990612fd5565b80601f016020809104026020016040519081016040528092919081815260200182805461219590612fd5565b80156121e25780601f106121b7576101008083540402835291602001916121e2565b820191906000526020600020905b8154815290600101906020018083116121c557829003601f168201915b505050505081525050925050611cd8565b8183828151811061220757612206613363565b5b6020026020010181905250808061221d90613422565b9150508083526040518060600160405280600115158152602001848152602001604051806020016040528060008152508152509350505050919050565b6000612269826000015161123b565b15801561230e5750600260009054906101000a900473ffffffffffffffffffffffffffffffffffffffff1673ffffffffffffffffffffffffffffffffffffffff16634294a5ad836040518263ffffffff1660e01b81526004016122cc91906135fe565b602060405180830381865afa1580156122e9573d6000803e3d6000fd5b505050506040513d601f19601f8201168201806040525081019061230d919061364c565b5b80156123675750600360009054906101000a900473ffffffffffffffffffffffffffffffffffffffff1673ffffffffffffffffffffffffffffffffffffffff163373ffffffffffffffffffffffffffffffffffffffff16145b15612375576001905061237a565b600090505b919050565b604051806060016040528060001515815260200160608152602001606081525090565b60405180606001604052806000151581526020016123be612411565b8152602001606081525090565b604051806060016040528060001515815260200160608152602001606081525090565b604051806060016040528060001515815260200160608152602001606081525090565b60405180610120016040528060608152602001606081526020016000815260200160608152602001600073ffffffffffffffffffffffffffffffffffffffff168152602001606081526020016060815260200160608152602001606081525090565b6000604051905090565b600080fd5b600080fd5b600080fd5b600080fd5b6000601f19601f8301169050919050565b7f4e487b7100000000000000000000000000000000000000000000000000000000600052604160045260246000fd5b6124da82612491565b810181811067ffffffffffffffff821117156124f9576124f86124a2565b5b80604052505050565b600061250c612473565b905061251882826124d1565b919050565b600067ffffffffffffffff821115612538576125376124a2565b5b61254182612491565b9050602081019050919050565b82818337600083830152505050565b600061257061256b8461251d565b612502565b90508281526020810184848401111561258c5761258b61248c565b5b61259784828561254e565b509392505050565b600082601f8301126125b4576125b3612487565b5b81356125c484826020860161255d565b91505092915050565b6000602082840312156125e3576125e261247d565b5b600082013567ffffffffffffffff81111561260157612600612482565b5b61260d8482850161259f565b91505092915050565b60008115159050919050565b61262b81612616565b82525050565b600081519050919050565b600082825260208201905092915050565b60005b8381101561266b578082015181840152602081019050612650565b60008484015250505050565b600061268282612631565b61268c818561263c565b935061269c81856020860161264d565b6126a581612491565b840191505092915050565b60006060830160008301516126c86000860182612622565b50602083015184820360208601526126e08282612677565b915050604083015184820360408601526126fa8282612677565b9150508091505092915050565b6000602082019050818103600083015261272181846126b0565b905092915050565b600080604083850312156127405761273f61247d565b5b600083013567ffffffffffffffff81111561275e5761275d612482565b5b61276a8582860161259f565b925050602083013567ffffffffffffffff81111561278b5761278a612482565b5b6127978582860161259f565b9150509250929050565b6000819050919050565b6127b4816127a1565b82525050565b600073ffffffffffffffffffffffffffffffffffffffff82169050919050565b60006127e5826127ba565b9050919050565b6127f5816127da565b82525050565b60006101208301600083015184820360008601526128198282612677565b915050602083015184820360208601526128338282612677565b915050604083015161284860408601826127ab565b50606083015184820360608601526128608282612677565b915050608083015161287560808601826127ec565b5060a083015184820360a086015261288d8282612677565b91505060c083015184820360c08601526128a78282612677565b91505060e083015184820360e08601526128c18282612677565b9150506101008301518482036101008601526128dd8282612677565b9150508091505092915050565b60006060830160008301516129026000860182612622565b506020830151848203602086015261291a82826127fb565b915050604083015184820360408601526129348282612677565b9150508091505092915050565b6000602082019050818103600083015261295b81846128ea565b905092915050565b61296c816127da565b811461297757600080fd5b50565b60008135905061298981612963565b92915050565b600080604083850312156129a6576129a561247d565b5b60006129b48582860161297a565b925050602083013567ffffffffffffffff8111156129d5576129d4612482565b5b6129e18582860161259f565b9150509250929050565b6129f481612616565b82525050565b6000602082019050612a0f60008301846129eb565b92915050565b600081519050919050565b600082825260208201905092915050565b6000819050602082019050919050565b6000612a4d8383612677565b905092915050565b6000602082019050919050565b6000612a6d82612a15565b612a778185612a20565b935083602082028501612a8985612a31565b8060005b85811015612ac55784840389528151612aa68582612a41565b9450612ab183612a55565b925060208a01995050600181019050612a8d565b50829750879550505050505092915050565b6000606083016000830151612aef6000860182612622565b5060208301518482036020860152612b078282612a62565b91505060408301518482036040860152612b218282612677565b9150508091505092915050565b60006020820190508181036000830152612b488184612ad7565b905092915050565b600080fd5b600080fd5b612b63816127a1565b8114612b6e57600080fd5b50565b600081359050612b8081612b5a565b92915050565b60006101208284031215612b9d57612b9c612b50565b5b612ba8610120612502565b9050600082013567ffffffffffffffff811115612bc857612bc7612b55565b5b612bd48482850161259f565b600083015250602082013567ffffffffffffffff811115612bf857612bf7612b55565b5b612c048482850161259f565b6020830152506040612c1884828501612b71565b604083015250606082013567ffffffffffffffff811115612c3c57612c3b612b55565b5b612c488482850161259f565b6060830152506080612c5c8482850161297a565b60808301525060a082013567ffffffffffffffff811115612c8057612c7f612b55565b5b612c8c8482850161259f565b60a08301525060c082013567ffffffffffffffff811115612cb057612caf612b55565b5b612cbc8482850161259f565b60c08301525060e082013567ffffffffffffffff811115612ce057612cdf612b55565b5b612cec8482850161259f565b60e08301525061010082013567ffffffffffffffff811115612d1157612d10612b55565b5b612d1d8482850161259f565b6101008301525092915050565b60008060408385031215612d4157612d4061247d565b5b600083013567ffffffffffffffff811115612d5f57612d5e612482565b5b612d6b85828601612b86565b925050602083013567ffffffffffffffff811115612d8c57612d8b612482565b5b612d9885828601612b86565b9150509250929050565b600060208284031215612db857612db761247d565b5b600082013567ffffffffffffffff811115612dd657612dd5612482565b5b612de284828501612b86565b91505092915050565b600060208284031215612e0157612e0061247d565b5b6000612e0f8482850161297a565b91505092915050565b600081519050919050565b600082825260208201905092915050565b6000819050602082019050919050565b6000612e5083836127fb565b905092915050565b6000602082019050919050565b6000612e7082612e18565b612e7a8185612e23565b935083602082028501612e8c85612e34565b8060005b85811015612ec85784840389528151612ea98582612e44565b9450612eb483612e58565b925060208a01995050600181019050612e90565b50829750879550505050505092915050565b6000606083016000830151612ef26000860182612622565b5060208301518482036020860152612f0a8282612e65565b91505060408301518482036040860152612f248282612677565b9150508091505092915050565b60006020820190508181036000830152612f4b8184612eda565b905092915050565b600081905092915050565b6000612f6982612631565b612f738185612f53565b9350612f8381856020860161264d565b80840191505092915050565b6000612f9b8284612f5e565b915081905092915050565b7f4e487b7100000000000000000000000000000000000000000000000000000000600052602260045260246000fd5b60006002820490506001821680612fed57607f821691505b60208210810361300057612fff612fa6565b5b50919050565b60008190508160005260206000209050919050565b6000815461302881612fd5565b6130328186612f53565b9450600182166000811461304d576001811461306257613095565b60ff1983168652811515820286019350613095565b61306b85613006565b60005b8381101561308d5781548189015260018201915060208101905061306e565b838801955050505b50505092915050565b60006130aa828461301b565b915081905092915050565b50565b60006130c5600083612f53565b91506130d0826130b5565b600082019050919050565b60006130e6826130b8565b9150819050919050565b60006020601f8301049050919050565b600082821b905092915050565b60006008830261313d7fffffffffffffffffffffffffffffffffffffffffffffffffffffffffffffffff82613100565b6131478683613100565b95508019841693508086168417925050509392505050565b6000819050919050565b6000819050919050565b600061318e6131896131848461315f565b613169565b61315f565b9050919050565b6000819050919050565b6131a883613173565b6131bc6131b482613195565b84845461310d565b825550505050565b600090565b6131d16131c4565b6131dc81848461319f565b505050565b5b81811015613200576131f56000826131c9565b6001810190506131e2565b5050565b601f8211156132455761321681613006565b61321f846130f0565b8101602085101561322e578190505b61324261323a856130f0565b8301826131e1565b50505b505050565b600082821c905092915050565b60006132686000198460080261324a565b1980831691505092915050565b60006132818383613257565b9150826002028217905092915050565b61329a82612631565b67ffffffffffffffff8111156132b3576132b26124a2565b5b6132bd8254612fd5565b6132c8828285613204565b600060209050601f8311600181146132fb57600084156132e9578287015190505b6132f38582613275565b86555061335b565b601f19841661330986613006565b60005b828110156133315784890151825560018201915060208501945060208101905061330c565b8683101561334e578489015161334a601f891682613257565b8355505b6001600288020188555050505b505050505050565b7f4e487b7100000000000000000000000000000000000000000000000000000000600052603260045260246000fd5b7f6163746976650000000000000000000000000000000000000000000000000000600082015250565b60006133c8600683612f53565b91506133d382613392565b600682019050919050565b60006133e9826133bb565b9150819050919050565b7f4e487b7100000000000000000000000000000000000000000000000000000000600052601160045260246000fd5b600061342d8261315f565b91507fffffffffffffffffffffffffffffffffffffffffffffffffffffffffffffffff820361345f5761345e6133f3565b5b600182019050919050565b6000613475826127a1565b9150613480836127a1565b9250828201905082811215600083121683821260008412151617156134a8576134a76133f3565b5b92915050565b7f3000000000000000000000000000000000000000000000000000000000000000600082015250565b60006134e4600183612f53565b91506134ef826134ae565b600182019050919050565b6000613505826134d7565b9150819050919050565b600061012083016000830151848203600086015261352d8282612677565b915050602083015184820360208601526135478282612677565b915050604083015161355c60408601826127ab565b50606083015184820360608601526135748282612677565b915050608083015161358960808601826127ec565b5060a083015184820360a08601526135a18282612677565b91505060c083015184820360c08601526135bb8282612677565b91505060e083015184820360e08601526135d58282612677565b9150506101008301518482036101008601526135f18282612677565b9150508091505092915050565b60006020820190508181036000830152613618818461350f565b905092915050565b61362981612616565b811461363457600080fd5b50565b60008151905061364681613620565b92915050565b6000602082840312156136625761366161247d565b5b600061367084828501613637565b9150509291505056fe54687265206973206e6f2066696c652c20696e2074686520676976656e2073746174652c2074686174206861732074686520676976656e2049504653204349442e546865207472616e73616374696f6e2065786563757465722063616e206f6e6c792062652074686520416363657373436f6e74726f6c2e736f6c20636f6e74726163742e4f6e6c792074686520416363657373436f6e74726f6c2e736f6c20636f6e74726163742069732061626c6520746f20657865637574652074686973206d6574686f642ea2646970667358221220b283ff77044da2bfa2ecd9a4aea8478697f8622f45ab3445246e40123feb9cfc64736f6c6343000813003360806040523480156200001157600080fd5b5060405162002031380380620020318339818101604052810190620000379190620000e9565b80600360006101000a81548173ffffffffffffffffffffffffffffffffffffffff021916908373ffffffffffffffffffffffffffffffffffffffff160217905550506200011b565b600080fd5b600073ffffffffffffffffffffffffffffffffffffffff82169050919050565b6000620000b18262000084565b9050919050565b620000c381620000a4565b8114620000cf57600080fd5b50565b600081519050620000e381620000b8565b92915050565b6000602082840312156200010257620001016200007f565b5b60006200011284828501620000d2565b91505092915050565b611f06806200012b6000396000f3fe608060405234801561001057600080fd5b50600436106100885760003560e01c8063a240e4261161005b578063a240e42614610139578063b0c22a5614610169578063eeb9ab1814610199578063f14ab0e0146101c957610088565b806367156cf11461008d5780636f77926b146100bd57806375e9493f146100ed578063857cdbb814610109575b600080fd5b6100a760048036038101906100a29190611219565b6101f9565b6040516100b49190611348565b60405180910390f35b6100d760048036038101906100d29190611219565b6103e0565b6040516100e49190611441565b60405180910390f35b6101076004803603810190610102919061166e565b6107db565b005b610123600480360381019061011e9190611219565b610b0a565b6040516101309190611348565b60405180910390f35b610153600480360381019061014e9190611219565b610cf1565b60405161016091906116c6565b60405180910390f35b610183600480360381019061017e91906116e1565b610d9a565b60405161019091906116c6565b60405180910390f35b6101b360048036038101906101ae91906116e1565b610dcf565b6040516101c0919061177a565b60405180910390f35b6101e360048036038101906101de919061179c565b610eed565b6040516101f091906116c6565b60405180910390f35b6102016110e4565b600073ffffffffffffffffffffffffffffffffffffffff166000808473ffffffffffffffffffffffffffffffffffffffff1673ffffffffffffffffffffffffffffffffffffffff16815260200190815260200160002060000160009054906101000a900473ffffffffffffffffffffffffffffffffffffffff1673ffffffffffffffffffffffffffffffffffffffff16146103935760405180606001604052806001151581526020016000808573ffffffffffffffffffffffffffffffffffffffff1673ffffffffffffffffffffffffffffffffffffffff16815260200190815260200160002060010180546102f690611827565b80601f016020809104026020016040519081016040528092919081815260200182805461032290611827565b801561036f5780601f106103445761010080835404028352916020019161036f565b820191906000526020600020905b81548152906001019060200180831161035257829003601f168201915b505050505081526020016040518060200160405280600081525081525090506103db565b6040518060600160405280600015158152602001604051806020016040528060008152508152602001604051806060016040528060288152602001611e806028913981525090505b919050565b6103e8611107565b3373ffffffffffffffffffffffffffffffffffffffff168273ffffffffffffffffffffffffffffffffffffffff160361073957600073ffffffffffffffffffffffffffffffffffffffff166000808473ffffffffffffffffffffffffffffffffffffffff1673ffffffffffffffffffffffffffffffffffffffff16815260200190815260200160002060000160009054906101000a900473ffffffffffffffffffffffffffffffffffffffff1673ffffffffffffffffffffffffffffffffffffffff16146107385760405180606001604052806001151581526020016000808573ffffffffffffffffffffffffffffffffffffffff1673ffffffffffffffffffffffffffffffffffffffff1681526020019081526020016000206040518060800160405290816000820160009054906101000a900473ffffffffffffffffffffffffffffffffffffffff1673ffffffffffffffffffffffffffffffffffffffff1673ffffffffffffffffffffffffffffffffffffffff16815260200160018201805461057390611827565b80601f016020809104026020016040519081016040528092919081815260200182805461059f90611827565b80156105ec5780601f106105c1576101008083540402835291602001916105ec565b820191906000526020600020905b8154815290600101906020018083116105cf57829003601f168201915b5050505050815260200160028201805461060590611827565b80601f016020809104026020016040519081016040528092919081815260200182805461063190611827565b801561067e5780601f106106535761010080835404028352916020019161067e565b820191906000526020600020905b81548152906001019060200180831161066157829003601f168201915b5050505050815260200160038201805461069790611827565b80601f01602080910402602001604051908101604052809291908181526020018280546106c390611827565b80156107105780601f106106e557610100808354040283529160200191610710565b820191906000526020600020905b8154815290600101906020018083116106f357829003601f168201915b50505050508152505081526020016040518060200160405280600081525081525090506107d6565b5b60405180606001604052806000151581526020016040518060800160405280600073ffffffffffffffffffffffffffffffffffffffff1681526020016040518060200160405280600081525081526020016040518060200160405280600081525081526020016040518060200160405280600081525081525081526020016040518060a0016040528060798152602001611ddf6079913981525090505b919050565b3373ffffffffffffffffffffffffffffffffffffffff16816000015173ffffffffffffffffffffffffffffffffffffffff1603610b075761081b81610fca565b15610b06576040518060800160405280826000015173ffffffffffffffffffffffffffffffffffffffff168152602001600360009054906101000a900473ffffffffffffffffffffffffffffffffffffffff1673ffffffffffffffffffffffffffffffffffffffff16639416b42384602001516040518263ffffffff1660e01b81526004016108aa91906118a2565b600060405180830381865afa1580156108c7573d6000803e3d6000fd5b505050506040513d6000823e3d601f19601f820116820180604052508101906108f09190611934565b8152602001826040015181526020018260600151815250600080836000015173ffffffffffffffffffffffffffffffffffffffff1673ffffffffffffffffffffffffffffffffffffffff16815260200190815260200160002060008201518160000160006101000a81548173ffffffffffffffffffffffffffffffffffffffff021916908373ffffffffffffffffffffffffffffffffffffffff16021790555060208201518160010190816109a59190611b33565b5060408201518160020190816109bb9190611b33565b5060608201518160030190816109d19190611b33565b509050506040518060800160405280826000015173ffffffffffffffffffffffffffffffffffffffff1681526020018260200151815260200182604001518152602001826060015181525060018260200151604051610a309190611c41565b908152602001604051809103902060008201518160000160006101000a81548173ffffffffffffffffffffffffffffffffffffffff021916908373ffffffffffffffffffffffffffffffffffffffff1602179055506020820151816001019081610a9a9190611b33565b506040820151816002019081610ab09190611b33565b506060820151816003019081610ac69190611b33565b50905050600160028260200151604051610ae09190611c41565b908152602001604051809103902060006101000a81548160ff0219169083151502179055505b5b50565b610b126110e4565b600073ffffffffffffffffffffffffffffffffffffffff166000808473ffffffffffffffffffffffffffffffffffffffff1673ffffffffffffffffffffffffffffffffffffffff16815260200190815260200160002060000160009054906101000a900473ffffffffffffffffffffffffffffffffffffffff1673ffffffffffffffffffffffffffffffffffffffff1614610ca45760405180606001604052806001151581526020016000808573ffffffffffffffffffffffffffffffffffffffff1673ffffffffffffffffffffffffffffffffffffffff1681526020019081526020016000206003018054610c0790611827565b80601f0160208091040260200160405190810160405280929190818152602001828054610c3390611827565b8015610c805780601f10610c5557610100808354040283529160200191610c80565b820191906000526020600020905b815481529060010190602001808311610c6357829003601f168201915b50505050508152602001604051806020016040528060008152508152509050610cec565b6040518060600160405280600015158152602001604051806020016040528060008152508152602001604051806060016040528060288152602001611e586028913981525090505b919050565b60008073ffffffffffffffffffffffffffffffffffffffff166000808473ffffffffffffffffffffffffffffffffffffffff1673ffffffffffffffffffffffffffffffffffffffff16815260200190815260200160002060000160009054906101000a900473ffffffffffffffffffffffffffffffffffffffff1673ffffffffffffffffffffffffffffffffffffffff1614610d905760019050610d95565b600090505b919050565b6000600282604051610dac9190611c41565b908152602001604051809103902060009054906101000a900460ff169050919050565b610dd7611130565b6000600183604051610de99190611c41565b90815260200160405180910390206001018054610e0590611827565b90501115610e98576040518060600160405280600115158152602001600184604051610e319190611c41565b908152602001604051809103902060000160009054906101000a900473ffffffffffffffffffffffffffffffffffffffff1673ffffffffffffffffffffffffffffffffffffffff168152602001604051806020016040528060008152508152509050610ee8565b6040518060600160405280600015158152602001600073ffffffffffffffffffffffffffffffffffffffff168152602001604051806060016040528060298152602001611ea86029913981525090505b919050565b60003373ffffffffffffffffffffffffffffffffffffffff168273ffffffffffffffffffffffffffffffffffffffff1603610fbf5782604051602001610f339190611c41565b604051602081830303815290604052805190602001206000808473ffffffffffffffffffffffffffffffffffffffff1673ffffffffffffffffffffffffffffffffffffffff168152602001908152602001600020600201604051602001610f9a9190611cdb565b6040516020818303038152906040528051906020012003610fbe5760019050610fc4565b5b600090505b92915050565b60003373ffffffffffffffffffffffffffffffffffffffff16826000015173ffffffffffffffffffffffffffffffffffffffff16036110da576110108260000151610cf1565b15801561102757506110258260200151610d9a565b155b80156110cb5750600360009054906101000a900473ffffffffffffffffffffffffffffffffffffffff1673ffffffffffffffffffffffffffffffffffffffff1663e779f450836040518263ffffffff1660e01b81526004016110899190611d63565b602060405180830381865afa1580156110a6573d6000803e3d6000fd5b505050506040513d601f19601f820116820180604052508101906110ca9190611db1565b5b156110d957600190506110df565b5b600090505b919050565b604051806060016040528060001515815260200160608152602001606081525090565b6040518060600160405280600015158152602001611123611169565b8152602001606081525090565b6040518060600160405280600015158152602001600073ffffffffffffffffffffffffffffffffffffffff168152602001606081525090565b6040518060800160405280600073ffffffffffffffffffffffffffffffffffffffff1681526020016060815260200160608152602001606081525090565b6000604051905090565b600080fd5b600080fd5b600073ffffffffffffffffffffffffffffffffffffffff82169050919050565b60006111e6826111bb565b9050919050565b6111f6816111db565b811461120157600080fd5b50565b600081359050611213816111ed565b92915050565b60006020828403121561122f5761122e6111b1565b5b600061123d84828501611204565b91505092915050565b60008115159050919050565b61125b81611246565b82525050565b600081519050919050565b600082825260208201905092915050565b60005b8381101561129b578082015181840152602081019050611280565b60008484015250505050565b6000601f19601f8301169050919050565b60006112c382611261565b6112cd818561126c565b93506112dd81856020860161127d565b6112e6816112a7565b840191505092915050565b60006060830160008301516113096000860182611252565b506020830151848203602086015261132182826112b8565b9150506040830151848203604086015261133b82826112b8565b9150508091505092915050565b6000602082019050818103600083015261136281846112f1565b905092915050565b611373816111db565b82525050565b6000608083016000830151611391600086018261136a565b50602083015184820360208601526113a982826112b8565b915050604083015184820360408601526113c382826112b8565b915050606083015184820360608601526113dd82826112b8565b9150508091505092915050565b60006060830160008301516114026000860182611252565b506020830151848203602086015261141a8282611379565b9150506040830151848203604086015261143482826112b8565b9150508091505092915050565b6000602082019050818103600083015261145b81846113ea565b905092915050565b600080fd5b7f4e487b7100000000000000000000000000000000000000000000000000000000600052604160045260246000fd5b6114a0826112a7565b810181811067ffffffffffffffff821117156114bf576114be611468565b5b80604052505050565b60006114d26111a7565b90506114de8282611497565b919050565b600080fd5b600080fd5b600080fd5b600067ffffffffffffffff82111561150d5761150c611468565b5b611516826112a7565b9050602081019050919050565b82818337600083830152505050565b6000611545611540846114f2565b6114c8565b905082815260208101848484011115611561576115606114ed565b5b61156c848285611523565b509392505050565b600082601f830112611589576115886114e8565b5b8135611599848260208601611532565b91505092915050565b6000608082840312156115b8576115b7611463565b5b6115c260806114c8565b905060006115d284828501611204565b600083015250602082013567ffffffffffffffff8111156115f6576115f56114e3565b5b61160284828501611574565b602083015250604082013567ffffffffffffffff811115611626576116256114e3565b5b61163284828501611574565b604083015250606082013567ffffffffffffffff811115611656576116556114e3565b5b61166284828501611574565b60608301525092915050565b600060208284031215611684576116836111b1565b5b600082013567ffffffffffffffff8111156116a2576116a16111b6565b5b6116ae848285016115a2565b91505092915050565b6116c081611246565b82525050565b60006020820190506116db60008301846116b7565b92915050565b6000602082840312156116f7576116f66111b1565b5b600082013567ffffffffffffffff811115611715576117146111b6565b5b61172184828501611574565b91505092915050565b60006060830160008301516117426000860182611252565b506020830151611755602086018261136a565b506040830151848203604086015261176d82826112b8565b9150508091505092915050565b60006020820190508181036000830152611794818461172a565b905092915050565b600080604083850312156117b3576117b26111b1565b5b600083013567ffffffffffffffff8111156117d1576117d06111b6565b5b6117dd85828601611574565b92505060206117ee85828601611204565b9150509250929050565b7f4e487b7100000000000000000000000000000000000000000000000000000000600052602260045260246000fd5b6000600282049050600182168061183f57607f821691505b602082108103611852576118516117f8565b5b50919050565b600082825260208201905092915050565b600061187482611261565b61187e8185611858565b935061188e81856020860161127d565b611897816112a7565b840191505092915050565b600060208201905081810360008301526118bc8184611869565b905092915050565b60006118d76118d2846114f2565b6114c8565b9050828152602081018484840111156118f3576118f26114ed565b5b6118fe84828561127d565b509392505050565b600082601f83011261191b5761191a6114e8565b5b815161192b8482602086016118c4565b91505092915050565b60006020828403121561194a576119496111b1565b5b600082015167ffffffffffffffff811115611968576119676111b6565b5b61197484828501611906565b91505092915050565b60008190508160005260206000209050919050565b60006020601f8301049050919050565b600082821b905092915050565b6000600883026119df7fffffffffffffffffffffffffffffffffffffffffffffffffffffffffffffffff826119a2565b6119e986836119a2565b95508019841693508086168417925050509392505050565b6000819050919050565b6000819050919050565b6000611a30611a2b611a2684611a01565b611a0b565b611a01565b9050919050565b6000819050919050565b611a4a83611a15565b611a5e611a5682611a37565b8484546119af565b825550505050565b600090565b611a73611a66565b611a7e818484611a41565b505050565b5b81811015611aa257611a97600082611a6b565b600181019050611a84565b5050565b601f821115611ae757611ab88161197d565b611ac184611992565b81016020851015611ad0578190505b611ae4611adc85611992565b830182611a83565b50505b505050565b600082821c905092915050565b6000611b0a60001984600802611aec565b1980831691505092915050565b6000611b238383611af9565b9150826002028217905092915050565b611b3c82611261565b67ffffffffffffffff811115611b5557611b54611468565b5b611b5f8254611827565b611b6a828285611aa6565b600060209050601f831160018114611b9d5760008415611b8b578287015190505b611b958582611b17565b865550611bfd565b601f198416611bab8661197d565b60005b82811015611bd357848901518255600182019150602085019450602081019050611bae565b86831015611bf05784890151611bec601f891682611af9565b8355505b6001600288020188555050505b505050505050565b600081905092915050565b6000611c1b82611261565b611c258185611c05565b9350611c3581856020860161127d565b80840191505092915050565b6000611c4d8284611c10565b915081905092915050565b60008154611c6581611827565b611c6f8186611c05565b94506001821660008114611c8a5760018114611c9f57611cd2565b60ff1983168652811515820286019350611cd2565b611ca88561197d565b60005b83811015611cca57815481890152600182019150602081019050611cab565b838801955050505b50505092915050565b6000611ce78284611c58565b915081905092915050565b6000608083016000830151611d0a600086018261136a565b5060208301518482036020860152611d2282826112b8565b91505060408301518482036040860152611d3c82826112b8565b91505060608301518482036060860152611d5682826112b8565b9150508091505092915050565b60006020820190508181036000830152611d7d8184611cf2565b905092915050565b611d8e81611246565b8114611d9957600080fd5b50565b600081519050611dab81611d85565b92915050565b600060208284031215611dc757611dc66111b1565b5b6000611dd584828501611d9c565b9150509291505056fe546865206163636f756e74206f6620746865207472616e73616374696f6e2065786563757465722073686f756c64206265207468652073616d65206f6e652061732074686520757365722077686963682074686520696e666f726d6174696f6e206973206265696e67207265717565737465642066726f6d2e5468657265206973206e6f207573657220776974682074686520666976656e206163636f756e742e5468657265206973206e6f207573657220776974682074686520676976656e206163636f756e742e5468657265206973206e6f207573657220776974682074686520676976656e20757365726e616d652ea2646970667358221220efe307f5fde2a3f2206a749144b985eed2911b452b0f9c7c71138e6a8002e46f64736f6c63430008130033608060405234801561001057600080fd5b5033600160006101000a81548173ffffffffffffffffffffffffffffffffffffffff021916908373ffffffffffffffffffffffffffffffffffffffff16021790555033600260006101000a81548173ffffffffffffffffffffffffffffffffffffffff021916908373ffffffffffffffffffffffffffffffffffffffff1602179055506114a9806100a26000396000f3fe608060405234801561001057600080fd5b50600436106100365760003560e01c8063759ab1851461003b578063c47ebddc1461006b575b600080fd5b61005560048036038101906100509190610ada565b610087565b6040516100629190610dc7565b60405180910390f35b61008560048036038101906100809190610e15565b61061a565b005b61008f610815565b6000808054905067ffffffffffffffff8111156100af576100ae6108c4565b5b6040519080825280602002602001820160405280156100e857816020015b6100d5610838565b8152602001906001900390816100cd5790505b5090506000805b845181101561054457600160009054906101000a900473ffffffffffffffffffffffffffffffffffffffff1673ffffffffffffffffffffffffffffffffffffffff16631ac47dd03387848151811061014a57610149610ee4565b5b60200260200101516040518363ffffffff1660e01b815260040161016f929190610f6c565b602060405180830381865afa15801561018c573d6000803e3d6000fd5b505050506040513d601f19601f820116820180604052508101906101b09190610fc8565b156105315760005b60008054905081101561052f578582815181106101d8576101d7610ee4565b5b60200260200101516040516020016101f09190611031565b604051602081830303815290604052805190602001206000828154811061021a57610219610ee4565b5b906000526020600020906006020160000160405160200161023b9190611140565b604051602081830303815290604052805190602001200361051c576000818154811061026a57610269610ee4565b5b90600052602060002090600602016040518060c001604052908160008201805461029390611077565b80601f01602080910402602001604051908101604052809291908181526020018280546102bf90611077565b801561030c5780601f106102e15761010080835404028352916020019161030c565b820191906000526020600020905b8154815290600101906020018083116102ef57829003601f168201915b505050505081526020016001820160009054906101000a900473ffffffffffffffffffffffffffffffffffffffff1673ffffffffffffffffffffffffffffffffffffffff1673ffffffffffffffffffffffffffffffffffffffff1681526020016002820154815260200160038201805461038590611077565b80601f01602080910402602001604051908101604052809291908181526020018280546103b190611077565b80156103fe5780601f106103d3576101008083540402835291602001916103fe565b820191906000526020600020905b8154815290600101906020018083116103e157829003601f168201915b5050505050815260200160048201805461041790611077565b80601f016020809104026020016040519081016040528092919081815260200182805461044390611077565b80156104905780601f1061046557610100808354040283529160200191610490565b820191906000526020600020905b81548152906001019060200180831161047357829003601f168201915b505050505081526020016005820160009054906101000a900473ffffffffffffffffffffffffffffffffffffffff1673ffffffffffffffffffffffffffffffffffffffff1673ffffffffffffffffffffffffffffffffffffffff168152505084848151811061050257610501610ee4565b5b6020026020010181905250828061051890611186565b9350505b808061052790611186565b9150506101b8565b505b808061053c90611186565b9150506100ef565b50808252600081146105865760405180606001604052806001151581526020018381526020016040518060200160405280600081525081525092505050610615565b6040518060600160405280600015158152602001600067ffffffffffffffff8111156105b5576105b46108c4565b5b6040519080825280602002602001820160405280156105ee57816020015b6105db610838565b8152602001906001900390816105d35790505b5081526020016040518060600160405280603c8152602001611438603c9139815250925050505b919050565b600260009054906101000a900473ffffffffffffffffffffffffffffffffffffffff1673ffffffffffffffffffffffffffffffffffffffff163373ffffffffffffffffffffffffffffffffffffffff161480156106a257508273ffffffffffffffffffffffffffffffffffffffff168373ffffffffffffffffffffffffffffffffffffffff16145b1561080e5760006040518060c001604052808681526020018573ffffffffffffffffffffffffffffffffffffffff1681526020014281526020018381526020018481526020018773ffffffffffffffffffffffffffffffffffffffff168152509050600081908060018154018082558091505060019003906000526020600020906006020160009091909190915060008201518160000190816107459190611365565b5060208201518160010160006101000a81548173ffffffffffffffffffffffffffffffffffffffff021916908373ffffffffffffffffffffffffffffffffffffffff1602179055506040820151816002015560608201518160030190816107ac9190611365565b5060808201518160040190816107c29190611365565b5060a08201518160050160006101000a81548173ffffffffffffffffffffffffffffffffffffffff021916908373ffffffffffffffffffffffffffffffffffffffff1602179055505050505b5050505050565b604051806060016040528060001515815260200160608152602001606081525090565b6040518060c0016040528060608152602001600073ffffffffffffffffffffffffffffffffffffffff168152602001600081526020016060815260200160608152602001600073ffffffffffffffffffffffffffffffffffffffff1681525090565b6000604051905090565b600080fd5b600080fd5b600080fd5b6000601f19601f8301169050919050565b7f4e487b7100000000000000000000000000000000000000000000000000000000600052604160045260246000fd5b6108fc826108b3565b810181811067ffffffffffffffff8211171561091b5761091a6108c4565b5b80604052505050565b600061092e61089a565b905061093a82826108f3565b919050565b600067ffffffffffffffff82111561095a576109596108c4565b5b602082029050602081019050919050565b600080fd5b600080fd5b600067ffffffffffffffff8211156109905761098f6108c4565b5b610999826108b3565b9050602081019050919050565b82818337600083830152505050565b60006109c86109c384610975565b610924565b9050828152602081018484840111156109e4576109e3610970565b5b6109ef8482856109a6565b509392505050565b600082601f830112610a0c57610a0b6108ae565b5b8135610a1c8482602086016109b5565b91505092915050565b6000610a38610a338461093f565b610924565b90508083825260208201905060208402830185811115610a5b57610a5a61096b565b5b835b81811015610aa257803567ffffffffffffffff811115610a8057610a7f6108ae565b5b808601610a8d89826109f7565b85526020850194505050602081019050610a5d565b5050509392505050565b600082601f830112610ac157610ac06108ae565b5b8135610ad1848260208601610a25565b91505092915050565b600060208284031215610af057610aef6108a4565b5b600082013567ffffffffffffffff811115610b0e57610b0d6108a9565b5b610b1a84828501610aac565b91505092915050565b60008115159050919050565b610b3881610b23565b82525050565b600081519050919050565b600082825260208201905092915050565b6000819050602082019050919050565b600081519050919050565b600082825260208201905092915050565b60005b83811015610ba4578082015181840152602081019050610b89565b60008484015250505050565b6000610bbb82610b6a565b610bc58185610b75565b9350610bd5818560208601610b86565b610bde816108b3565b840191505092915050565b600073ffffffffffffffffffffffffffffffffffffffff82169050919050565b6000610c1482610be9565b9050919050565b610c2481610c09565b82525050565b6000819050919050565b610c3d81610c2a565b82525050565b600060c0830160008301518482036000860152610c608282610bb0565b9150506020830151610c756020860182610c1b565b506040830151610c886040860182610c34565b5060608301518482036060860152610ca08282610bb0565b91505060808301518482036080860152610cba8282610bb0565b91505060a0830151610ccf60a0860182610c1b565b508091505092915050565b6000610ce68383610c43565b905092915050565b6000602082019050919050565b6000610d0682610b3e565b610d108185610b49565b935083602082028501610d2285610b5a565b8060005b85811015610d5e5784840389528151610d3f8582610cda565b9450610d4a83610cee565b925060208a01995050600181019050610d26565b50829750879550505050505092915050565b6000606083016000830151610d886000860182610b2f565b5060208301518482036020860152610da08282610cfb565b91505060408301518482036040860152610dba8282610bb0565b9150508091505092915050565b60006020820190508181036000830152610de18184610d70565b905092915050565b610df281610c09565b8114610dfd57600080fd5b50565b600081359050610e0f81610de9565b92915050565b600080600080600060a08688031215610e3157610e306108a4565b5b6000610e3f88828901610e00565b955050602086013567ffffffffffffffff811115610e6057610e5f6108a9565b5b610e6c888289016109f7565b9450506040610e7d88828901610e00565b935050606086013567ffffffffffffffff811115610e9e57610e9d6108a9565b5b610eaa888289016109f7565b925050608086013567ffffffffffffffff811115610ecb57610eca6108a9565b5b610ed7888289016109f7565b9150509295509295909350565b7f4e487b7100000000000000000000000000000000000000000000000000000000600052603260045260246000fd5b610f1c81610c09565b82525050565b600082825260208201905092915050565b6000610f3e82610b6a565b610f488185610f22565b9350610f58818560208601610b86565b610f61816108b3565b840191505092915050565b6000604082019050610f816000830185610f13565b8181036020830152610f938184610f33565b90509392505050565b610fa581610b23565b8114610fb057600080fd5b50565b600081519050610fc281610f9c565b92915050565b600060208284031215610fde57610fdd6108a4565b5b6000610fec84828501610fb3565b91505092915050565b600081905092915050565b600061100b82610b6a565b6110158185610ff5565b9350611025818560208601610b86565b80840191505092915050565b600061103d8284611000565b915081905092915050565b7f4e487b7100000000000000000000000000000000000000000000000000000000600052602260045260246000fd5b6000600282049050600182168061108f57607f821691505b6020821081036110a2576110a1611048565b5b50919050565b60008190508160005260206000209050919050565b600081546110ca81611077565b6110d48186610ff5565b945060018216600081146110ef576001811461110457611137565b60ff1983168652811515820286019350611137565b61110d856110a8565b60005b8381101561112f57815481890152600182019150602081019050611110565b838801955050505b50505092915050565b600061114c82846110bd565b915081905092915050565b7f4e487b7100000000000000000000000000000000000000000000000000000000600052601160045260246000fd5b600061119182610c2a565b91507fffffffffffffffffffffffffffffffffffffffffffffffffffffffffffffffff82036111c3576111c2611157565b5b600182019050919050565b60006020601f8301049050919050565b600082821b905092915050565b60006008830261121b7fffffffffffffffffffffffffffffffffffffffffffffffffffffffffffffffff826111de565b61122586836111de565b95508019841693508086168417925050509392505050565b6000819050919050565b600061126261125d61125884610c2a565b61123d565b610c2a565b9050919050565b6000819050919050565b61127c83611247565b61129061128882611269565b8484546111eb565b825550505050565b600090565b6112a5611298565b6112b0818484611273565b505050565b5b818110156112d4576112c960008261129d565b6001810190506112b6565b5050565b601f821115611319576112ea816110a8565b6112f3846111ce565b81016020851015611302578190505b61131661130e856111ce565b8301826112b5565b50505b505050565b600082821c905092915050565b600061133c6000198460080261131e565b1980831691505092915050565b6000611355838361132b565b9150826002028217905092915050565b61136e82610b6a565b67ffffffffffffffff811115611387576113866108c4565b5b6113918254611077565b61139c8282856112d8565b600060209050601f8311600181146113cf57600084156113bd578287015190505b6113c78582611349565b86555061142f565b601f1984166113dd866110a8565b60005b82811015611405578489015182556001820191506020850194506020810190506113e0565b86831015611422578489015161141e601f89168261132b565b8355505b6001600288020188555050505b50505050505056fe546865207472616e73616374696f6e2065786563757465722068617320746f206265206173736f6369617465642077697468207468652066696c652ea2646970667358221220225cc21dea552c822d291528453d75bf63514f8cd22b42d4eea4ef873e2c275464736f6c63430008130033",
  "linkReferences": {},
  "deployedLinkReferences": {}
}