{
  "_format": "hh-sol-artifact-1",
  "contractName": "AccessControl",
  "sourceName": "contracts/AccessControl.sol",
  "abi": [
    {
      "inputs": [
        {
          "internalType": "address",
          "name": "fileRegisterContract",
          "type": "address"
        }
      ],
      "stateMutability": "nonpayable",
      "type": "constructor"
    },
    {
      "inputs": [
        {
          "components": [
            {
              "internalType": "address",
              "name": "account",
              "type": "address"
            },
            {
              "internalType": "string",
              "name": "userName",
              "type": "string"
            },
            {
              "internalType": "string",
              "name": "publicKey",
              "type": "string"
            },
            {
              "internalType": "string",
              "name": "privateKey",
              "type": "string"
            }
          ],
          "internalType": "struct UserRegister.User",
          "name": "user",
          "type": "tuple"
        },
        {
          "components": [
            {
              "internalType": "string",
              "name": "ipfsCID",
              "type": "string"
            },
            {
              "internalType": "string",
              "name": "fileName",
              "type": "string"
            },
            {
              "internalType": "address",
              "name": "owner",
              "type": "address"
            },
            {
              "internalType": "string",
              "name": "fileType",
              "type": "string"
            },
            {
              "internalType": "string",
              "name": "iv",
              "type": "string"
            }
          ],
          "internalType": "struct FileRegister.File",
          "name": "file",
          "type": "tuple"
        }
      ],
      "name": "getEncSymmetricKeyFileUser",
      "outputs": [
        {
          "components": [
            {
              "internalType": "bool",
              "name": "success",
              "type": "bool"
            },
            {
              "internalType": "string",
              "name": "encSymmetricKey",
              "type": "string"
            }
          ],
          "internalType": "struct AccessControl.ResultActionString",
          "name": "",
          "type": "tuple"
        }
      ],
      "stateMutability": "view",
      "type": "function"
    },
    {
      "inputs": [
        {
          "components": [
            {
              "internalType": "address",
              "name": "account",
              "type": "address"
            },
            {
              "internalType": "string",
              "name": "userName",
              "type": "string"
            },
            {
              "internalType": "string",
              "name": "publicKey",
              "type": "string"
            },
            {
              "internalType": "string",
              "name": "privateKey",
              "type": "string"
            }
          ],
          "internalType": "struct UserRegister.User",
          "name": "user",
          "type": "tuple"
        },
        {
          "components": [
            {
              "internalType": "string",
              "name": "ipfsCID",
              "type": "string"
            },
            {
              "internalType": "string",
              "name": "fileName",
              "type": "string"
            },
            {
              "internalType": "address",
              "name": "owner",
              "type": "address"
            },
            {
              "internalType": "string",
              "name": "fileType",
              "type": "string"
            },
            {
              "internalType": "string",
              "name": "iv",
              "type": "string"
            }
          ],
          "internalType": "struct FileRegister.File",
          "name": "file",
          "type": "tuple"
        }
      ],
      "name": "getPermissionsOverFile",
      "outputs": [
        {
          "components": [
            {
              "internalType": "bool",
              "name": "success",
              "type": "bool"
            },
            {
              "internalType": "string[]",
              "name": "permissions",
              "type": "string[]"
            }
          ],
          "internalType": "struct AccessControl.ResultActionStringArray",
          "name": "",
          "type": "tuple"
        }
      ],
      "stateMutability": "view",
      "type": "function"
    },
    {
      "inputs": [
        {
          "internalType": "address",
          "name": "account",
          "type": "address"
        }
      ],
      "name": "getUserFiles",
      "outputs": [
        {
          "components": [
            {
              "internalType": "bool",
              "name": "success",
              "type": "bool"
            },
            {
              "components": [
                {
                  "internalType": "string",
                  "name": "ipfsCID",
                  "type": "string"
                },
                {
                  "internalType": "string",
                  "name": "fileName",
                  "type": "string"
                },
                {
                  "internalType": "address",
                  "name": "owner",
                  "type": "address"
                },
                {
                  "internalType": "string",
                  "name": "fileType",
                  "type": "string"
                },
                {
                  "internalType": "string",
                  "name": "iv",
                  "type": "string"
                }
              ],
              "internalType": "struct FileRegister.File[]",
              "name": "files",
              "type": "tuple[]"
            }
          ],
          "internalType": "struct AccessControl.ResultAction",
          "name": "",
          "type": "tuple"
        }
      ],
      "stateMutability": "view",
      "type": "function"
    },
    {
      "inputs": [
        {
          "internalType": "address",
          "name": "accountInput",
          "type": "address"
        },
        {
          "internalType": "address",
          "name": "accountList",
          "type": "address"
        },
        {
          "internalType": "string",
          "name": "ipfsCIDInput",
          "type": "string"
        },
        {
          "internalType": "string",
          "name": "ipfsCIDList",
          "type": "string"
        }
      ],
      "name": "isKeyEqual",
      "outputs": [
        {
          "internalType": "bool",
          "name": "",
          "type": "bool"
        }
      ],
      "stateMutability": "pure",
      "type": "function"
    },
    {
      "inputs": [
        {
          "components": [
            {
              "internalType": "address",
              "name": "account",
              "type": "address"
            },
            {
              "internalType": "string",
              "name": "userName",
              "type": "string"
            },
            {
              "internalType": "string",
              "name": "publicKey",
              "type": "string"
            },
            {
              "internalType": "string",
              "name": "privateKey",
              "type": "string"
            }
          ],
          "internalType": "struct UserRegister.User",
          "name": "user",
          "type": "tuple"
        },
        {
          "components": [
            {
              "internalType": "string",
              "name": "ipfsCID",
              "type": "string"
            },
            {
              "internalType": "string",
              "name": "fileName",
              "type": "string"
            },
            {
              "internalType": "address",
              "name": "owner",
              "type": "address"
            },
            {
              "internalType": "string",
              "name": "fileType",
              "type": "string"
            },
            {
              "internalType": "string",
              "name": "iv",
              "type": "string"
            }
          ],
          "internalType": "struct FileRegister.File",
          "name": "file",
          "type": "tuple"
        },
        {
          "internalType": "string",
          "name": "encSymmetricKey",
          "type": "string"
        },
        {
          "internalType": "string[]",
          "name": "permissions",
          "type": "string[]"
        }
      ],
      "name": "shareFile",
      "outputs": [],
      "stateMutability": "nonpayable",
      "type": "function"
    },
    {
      "inputs": [
        {
          "components": [
            {
              "internalType": "address",
              "name": "account",
              "type": "address"
            },
            {
              "internalType": "string",
              "name": "userName",
              "type": "string"
            },
            {
              "internalType": "string",
              "name": "publicKey",
              "type": "string"
            },
            {
              "internalType": "string",
              "name": "privateKey",
              "type": "string"
            }
          ],
          "internalType": "struct UserRegister.User",
          "name": "user",
          "type": "tuple"
        },
        {
          "components": [
            {
              "internalType": "string",
              "name": "ipfsCID",
              "type": "string"
            },
            {
              "internalType": "string",
              "name": "fileName",
              "type": "string"
            },
            {
              "internalType": "address",
              "name": "owner",
              "type": "address"
            },
            {
              "internalType": "string",
              "name": "fileType",
              "type": "string"
            },
            {
              "internalType": "string",
              "name": "iv",
              "type": "string"
            }
          ],
          "internalType": "struct FileRegister.File",
          "name": "file",
          "type": "tuple"
        },
        {
          "internalType": "string[]",
          "name": "permissions",
          "type": "string[]"
        }
      ],
      "name": "updateUserFilePermissions",
      "outputs": [],
      "stateMutability": "nonpayable",
      "type": "function"
    },
    {
      "inputs": [
        {
          "components": [
            {
              "internalType": "address",
              "name": "account",
              "type": "address"
            },
            {
              "internalType": "string",
              "name": "userName",
              "type": "string"
            },
            {
              "internalType": "string",
              "name": "publicKey",
              "type": "string"
            },
            {
              "internalType": "string",
              "name": "privateKey",
              "type": "string"
            }
          ],
          "internalType": "struct UserRegister.User",
          "name": "user",
          "type": "tuple"
        },
        {
          "components": [
            {
              "internalType": "string",
              "name": "ipfsCID",
              "type": "string"
            },
            {
              "internalType": "string",
              "name": "fileName",
              "type": "string"
            },
            {
              "internalType": "address",
              "name": "owner",
              "type": "address"
            },
            {
              "internalType": "string",
              "name": "fileType",
              "type": "string"
            },
            {
              "internalType": "string",
              "name": "iv",
              "type": "string"
            }
          ],
          "internalType": "struct FileRegister.File",
          "name": "file",
          "type": "tuple"
        },
        {
          "internalType": "string",
          "name": "encSymmetricKey",
          "type": "string"
        }
      ],
      "name": "uploadFile",
      "outputs": [],
      "stateMutability": "nonpayable",
      "type": "function"
    },
    {
      "inputs": [
        {
          "components": [
            {
              "internalType": "address",
              "name": "account",
              "type": "address"
            },
            {
              "internalType": "string",
              "name": "userName",
              "type": "string"
            },
            {
              "internalType": "string",
              "name": "publicKey",
              "type": "string"
            },
            {
              "internalType": "string",
              "name": "privateKey",
              "type": "string"
            }
          ],
          "internalType": "struct UserRegister.User",
          "name": "user",
          "type": "tuple"
        },
        {
          "components": [
            {
              "internalType": "string",
              "name": "ipfsCID",
              "type": "string"
            },
            {
              "internalType": "string",
              "name": "fileName",
              "type": "string"
            },
            {
              "internalType": "address",
              "name": "owner",
              "type": "address"
            },
            {
              "internalType": "string",
              "name": "fileType",
              "type": "string"
            },
            {
              "internalType": "string",
              "name": "iv",
              "type": "string"
            }
          ],
          "internalType": "struct FileRegister.File",
          "name": "file",
          "type": "tuple"
        }
      ],
      "name": "userAssociatedWithFile",
      "outputs": [
        {
          "internalType": "bool",
          "name": "",
          "type": "bool"
        }
      ],
      "stateMutability": "view",
      "type": "function"
    }
  ],
  "bytecode": "0x60806040523480156200001157600080fd5b5060405162002639380380620026398339818101604052810190620000379190620000e9565b80600160006101000a81548173ffffffffffffffffffffffffffffffffffffffff021916908373ffffffffffffffffffffffffffffffffffffffff160217905550506200011b565b600080fd5b600073ffffffffffffffffffffffffffffffffffffffff82169050919050565b6000620000b18262000084565b9050919050565b620000c381620000a4565b8114620000cf57600080fd5b50565b600081519050620000e381620000b8565b92915050565b6000602082840312156200010257620001016200007f565b5b60006200011284828501620000d2565b91505092915050565b61250e806200012b6000396000f3fe608060405234801561001057600080fd5b50600436106100885760003560e01c80639468a12e1161005b5780639468a12e1461014d5780639e93635f14610169578063ad4d2bb214610185578063de6b9f7d146101b557610088565b80631fc379221461008d578063533f2134146100bd5780635c99c71b146100ed5780635d02eece1461011d575b600080fd5b6100a760048036038101906100a29190611216565b6101d1565b6040516100b49190611487565b60405180910390f35b6100d760048036038101906100d291906117b0565b6104b0565b6040516100e49190611927565b60405180910390f35b61010760048036038101906101029190611949565b61076a565b60405161011491906119f7565b60405180910390f35b610137600480360381019061013291906117b0565b6107fc565b6040516101449190611a4f565b60405180910390f35b61016760048036038101906101629190611b57565b610a30565b005b610183600480360381019061017e9190611c2e565b610a5e565b005b61019f600480360381019061019a91906117b0565b610bd3565b6040516101ac91906119f7565b60405180910390f35b6101cf60048036038101906101ca9190611cd5565b610d1c565b005b6101d9611031565b6000808054905067ffffffffffffffff8111156101f9576101f86114ae565b5b60405190808252806020026020018201604052801561023257816020015b61021f61104d565b8152602001906001900390816102175790505b5090506000805b600080549050811015610461578473ffffffffffffffffffffffffffffffffffffffff166000828154811061027157610270611d7c565b5b906000526020600020906004020160000160009054906101000a900473ffffffffffffffffffffffffffffffffffffffff1673ffffffffffffffffffffffffffffffffffffffff160361044e5760008082815481106102d3576102d2611d7c565b5b906000526020600020906004020160010180546102ef90611dda565b80601f016020809104026020016040519081016040528092919081815260200182805461031b90611dda565b80156103685780601f1061033d57610100808354040283529160200191610368565b820191906000526020600020905b81548152906001019060200180831161034b57829003601f168201915b505050505090506000600160009054906101000a900473ffffffffffffffffffffffffffffffffffffffff1673ffffffffffffffffffffffffffffffffffffffff16639f5937f8836040518263ffffffff1660e01b81526004016103cc9190611e55565b600060405180830381865afa1580156103e9573d6000803e3d6000fd5b505050506040513d6000823e3d601f19601f820116820180604052508101906104129190612090565b90506000816020015190508086868151811061043157610430611d7c565b5b6020026020010181905250848061044790612112565b9550505050505b808061045990612112565b915050610239565b508082526000811461048e57604051806040016040528060011515815260200183815250925050506104ab565b604051806040016040528060001515815260200183815250925050505b919050565b6104b8611092565b60005b6000805490508110156106fa576105ce8460000151600083815481106104e4576104e3611d7c565b5b906000526020600020906004020160000160009054906101000a900473ffffffffffffffffffffffffffffffffffffffff1685600001516000858154811061052f5761052e611d7c565b5b9060005260206000209060040201600101805461054b90611dda565b80601f016020809104026020016040519081016040528092919081815260200182805461057790611dda565b80156105c45780601f10610599576101008083540402835291602001916105c4565b820191906000526020600020905b8154815290600101906020018083116105a757829003601f168201915b505050505061076a565b156106e7576040518060400160405280600115158152602001600083815481106105fb576105fa611d7c565b5b9060005260206000209060040201600301805480602002602001604051908101604052809291908181526020016000905b828210156106d857838290600052602060002001805461064b90611dda565b80601f016020809104026020016040519081016040528092919081815260200182805461067790611dda565b80156106c45780601f10610699576101008083540402835291602001916106c4565b820191906000526020600020905b8154815290600101906020018083116106a757829003601f168201915b50505050508152602001906001019061062c565b50505050815250915050610764565b80806106f290612112565b9150506104bb565b506040518060400160405280600015158152602001600067ffffffffffffffff81111561072a576107296114ae565b5b60405190808252806020026020018201604052801561075d57816020015b60608152602001906001900390816107485790505b5081525090505b92915050565b60008473ffffffffffffffffffffffffffffffffffffffff168473ffffffffffffffffffffffffffffffffffffffff161480156107f25750826040516020016107b39190612196565b60405160208183030381529060405280519060200120826040516020016107da9190612196565b60405160208183030381529060405280519060200120145b9050949350505050565b6108046110ae565b60005b6000805490508110156109ff5761091a8460000151600083815481106108305761082f611d7c565b5b906000526020600020906004020160000160009054906101000a900473ffffffffffffffffffffffffffffffffffffffff1685600001516000858154811061087b5761087a611d7c565b5b9060005260206000209060040201600101805461089790611dda565b80601f01602080910402602001604051908101604052809291908181526020018280546108c390611dda565b80156109105780601f106108e557610100808354040283529160200191610910565b820191906000526020600020905b8154815290600101906020018083116108f357829003601f168201915b505050505061076a565b156109ec5760405180604001604052806001151581526020016000838154811061094757610946611d7c565b5b9060005260206000209060040201600201805461096390611dda565b80601f016020809104026020016040519081016040528092919081815260200182805461098f90611dda565b80156109dc5780601f106109b1576101008083540402835291602001916109dc565b820191906000526020600020905b8154815290600101906020018083116109bf57829003601f168201915b5050505050815250915050610a2a565b80806109f790612112565b915050610807565b5060405180604001604052806000151581526020016040518060200160405280600081525081525090505b92915050565b6000610a3c8585610bd3565b90508015610a4a5750610a58565b610a5685858585610f29565b505b50505050565b60005b600080549050811015610bcc57610b74846000015160008381548110610a8a57610a89611d7c565b5b906000526020600020906004020160000160009054906101000a900473ffffffffffffffffffffffffffffffffffffffff16856000015160008581548110610ad557610ad4611d7c565b5b90600052602060002090600402016001018054610af190611dda565b80601f0160208091040260200160405190810160405280929190818152602001828054610b1d90611dda565b8015610b6a5780601f10610b3f57610100808354040283529160200191610b6a565b820191906000526020600020905b815481529060010190602001808311610b4d57829003601f168201915b505050505061076a565b15610bb9578160008281548110610b8e57610b8d611d7c565b5b90600052602060002090600402016003019080519060200190610bb29291906110ca565b5050610bce565b8080610bc490612112565b915050610a61565b505b505050565b600080600090505b600080549050811015610d1057610cee846000015160008381548110610c0457610c03611d7c565b5b906000526020600020906004020160000160009054906101000a900473ffffffffffffffffffffffffffffffffffffffff16856000015160008581548110610c4f57610c4e611d7c565b5b90600052602060002090600402016001018054610c6b90611dda565b80601f0160208091040260200160405190810160405280929190818152602001828054610c9790611dda565b8015610ce45780601f10610cb957610100808354040283529160200191610ce4565b820191906000526020600020905b815481529060010190602001808311610cc757829003601f168201915b505050505061076a565b15610cfd576001915050610d16565b8080610d0890612112565b915050610bdb565b50600090505b92915050565b6000610d288484610bd3565b90508015610d365750610f24565b6000600367ffffffffffffffff811115610d5357610d526114ae565b5b604051908082528060200260200182016040528015610d8657816020015b6060815260200190600190039081610d715790505b5090506040518060400160405280600881526020017f646f776e6c6f616400000000000000000000000000000000000000000000000081525081600081518110610dd357610dd2611d7c565b5b60200260200101819052506040518060400160405280600681526020017f64656c657465000000000000000000000000000000000000000000000000000081525081600181518110610e2857610e27611d7c565b5b60200260200101819052506040518060400160405280600581526020017f736861726500000000000000000000000000000000000000000000000000000081525081600281518110610e7d57610e7c611d7c565b5b6020026020010181905250610e9485858584610f29565b600160009054906101000a900473ffffffffffffffffffffffffffffffffffffffff1673ffffffffffffffffffffffffffffffffffffffff16639aa7f418856040518263ffffffff1660e01b8152600401610eef9190612238565b600060405180830381600087803b158015610f0957600080fd5b505af1158015610f1d573d6000803e3d6000fd5b5050505050505b505050565b60006040518060800160405280866000015173ffffffffffffffffffffffffffffffffffffffff16815260200185600001518152602001848152602001838152509050600081908060018154018082558091505060019003906000526020600020906004020160009091909190915060008201518160000160006101000a81548173ffffffffffffffffffffffffffffffffffffffff021916908373ffffffffffffffffffffffffffffffffffffffff1602179055506020820151816001019081610ff49190612406565b50604082015181600201908161100a9190612406565b5060608201518160030190805190602001906110279291906110ca565b5050505050505050565b6040518060400160405280600015158152602001606081525090565b6040518060a001604052806060815260200160608152602001600073ffffffffffffffffffffffffffffffffffffffff16815260200160608152602001606081525090565b6040518060400160405280600015158152602001606081525090565b6040518060400160405280600015158152602001606081525090565b828054828255906000526020600020908101928215611112579160200282015b828111156111115782518290816111019190612406565b50916020019190600101906110ea565b5b50905061111f9190611123565b5090565b5b80821115611143576000818161113a9190611147565b50600101611124565b5090565b50805461115390611dda565b6000825580601f106111655750611184565b601f0160209004906000526020600020908101906111839190611187565b5b50565b5b808211156111a0576000816000905550600101611188565b5090565b6000604051905090565b600080fd5b600080fd5b600073ffffffffffffffffffffffffffffffffffffffff82169050919050565b60006111e3826111b8565b9050919050565b6111f3816111d8565b81146111fe57600080fd5b50565b600081359050611210816111ea565b92915050565b60006020828403121561122c5761122b6111ae565b5b600061123a84828501611201565b91505092915050565b60008115159050919050565b61125881611243565b82525050565b600081519050919050565b600082825260208201905092915050565b6000819050602082019050919050565b600081519050919050565b600082825260208201905092915050565b60005b838110156112c45780820151818401526020810190506112a9565b60008484015250505050565b6000601f19601f8301169050919050565b60006112ec8261128a565b6112f68185611295565b93506113068185602086016112a6565b61130f816112d0565b840191505092915050565b611323816111d8565b82525050565b600060a083016000830151848203600086015261134682826112e1565b9150506020830151848203602086015261136082826112e1565b9150506040830151611375604086018261131a565b506060830151848203606086015261138d82826112e1565b915050608083015184820360808601526113a782826112e1565b9150508091505092915050565b60006113c08383611329565b905092915050565b6000602082019050919050565b60006113e08261125e565b6113ea8185611269565b9350836020820285016113fc8561127a565b8060005b85811015611438578484038952815161141985826113b4565b9450611424836113c8565b925060208a01995050600181019050611400565b50829750879550505050505092915050565b6000604083016000830151611462600086018261124f565b506020830151848203602086015261147a82826113d5565b9150508091505092915050565b600060208201905081810360008301526114a1818461144a565b905092915050565b600080fd5b7f4e487b7100000000000000000000000000000000000000000000000000000000600052604160045260246000fd5b6114e6826112d0565b810181811067ffffffffffffffff82111715611505576115046114ae565b5b80604052505050565b60006115186111a4565b905061152482826114dd565b919050565b600080fd5b600080fd5b600080fd5b600067ffffffffffffffff821115611553576115526114ae565b5b61155c826112d0565b9050602081019050919050565b82818337600083830152505050565b600061158b61158684611538565b61150e565b9050828152602081018484840111156115a7576115a6611533565b5b6115b2848285611569565b509392505050565b600082601f8301126115cf576115ce61152e565b5b81356115df848260208601611578565b91505092915050565b6000608082840312156115fe576115fd6114a9565b5b611608608061150e565b9050600061161884828501611201565b600083015250602082013567ffffffffffffffff81111561163c5761163b611529565b5b611648848285016115ba565b602083015250604082013567ffffffffffffffff81111561166c5761166b611529565b5b611678848285016115ba565b604083015250606082013567ffffffffffffffff81111561169c5761169b611529565b5b6116a8848285016115ba565b60608301525092915050565b600060a082840312156116ca576116c96114a9565b5b6116d460a061150e565b9050600082013567ffffffffffffffff8111156116f4576116f3611529565b5b611700848285016115ba565b600083015250602082013567ffffffffffffffff81111561172457611723611529565b5b611730848285016115ba565b602083015250604061174484828501611201565b604083015250606082013567ffffffffffffffff81111561176857611767611529565b5b611774848285016115ba565b606083015250608082013567ffffffffffffffff81111561179857611797611529565b5b6117a4848285016115ba565b60808301525092915050565b600080604083850312156117c7576117c66111ae565b5b600083013567ffffffffffffffff8111156117e5576117e46111b3565b5b6117f1858286016115e8565b925050602083013567ffffffffffffffff811115611812576118116111b3565b5b61181e858286016116b4565b9150509250929050565b600081519050919050565b600082825260208201905092915050565b6000819050602082019050919050565b600061186083836112e1565b905092915050565b6000602082019050919050565b600061188082611828565b61188a8185611833565b93508360208202850161189c85611844565b8060005b858110156118d857848403895281516118b98582611854565b94506118c483611868565b925060208a019950506001810190506118a0565b50829750879550505050505092915050565b6000604083016000830151611902600086018261124f565b506020830151848203602086015261191a8282611875565b9150508091505092915050565b6000602082019050818103600083015261194181846118ea565b905092915050565b60008060008060808587031215611963576119626111ae565b5b600061197187828801611201565b945050602061198287828801611201565b935050604085013567ffffffffffffffff8111156119a3576119a26111b3565b5b6119af878288016115ba565b925050606085013567ffffffffffffffff8111156119d0576119cf6111b3565b5b6119dc878288016115ba565b91505092959194509250565b6119f181611243565b82525050565b6000602082019050611a0c60008301846119e8565b92915050565b6000604083016000830151611a2a600086018261124f565b5060208301518482036020860152611a4282826112e1565b9150508091505092915050565b60006020820190508181036000830152611a698184611a12565b905092915050565b600067ffffffffffffffff821115611a8c57611a8b6114ae565b5b602082029050602081019050919050565b600080fd5b6000611ab5611ab084611a71565b61150e565b90508083825260208201905060208402830185811115611ad857611ad7611a9d565b5b835b81811015611b1f57803567ffffffffffffffff811115611afd57611afc61152e565b5b808601611b0a89826115ba565b85526020850194505050602081019050611ada565b5050509392505050565b600082601f830112611b3e57611b3d61152e565b5b8135611b4e848260208601611aa2565b91505092915050565b60008060008060808587031215611b7157611b706111ae565b5b600085013567ffffffffffffffff811115611b8f57611b8e6111b3565b5b611b9b878288016115e8565b945050602085013567ffffffffffffffff811115611bbc57611bbb6111b3565b5b611bc8878288016116b4565b935050604085013567ffffffffffffffff811115611be957611be86111b3565b5b611bf5878288016115ba565b925050606085013567ffffffffffffffff811115611c1657611c156111b3565b5b611c2287828801611b29565b91505092959194509250565b600080600060608486031215611c4757611c466111ae565b5b600084013567ffffffffffffffff811115611c6557611c646111b3565b5b611c71868287016115e8565b935050602084013567ffffffffffffffff811115611c9257611c916111b3565b5b611c9e868287016116b4565b925050604084013567ffffffffffffffff811115611cbf57611cbe6111b3565b5b611ccb86828701611b29565b9150509250925092565b600080600060608486031215611cee57611ced6111ae565b5b600084013567ffffffffffffffff811115611d0c57611d0b6111b3565b5b611d18868287016115e8565b935050602084013567ffffffffffffffff811115611d3957611d386111b3565b5b611d45868287016116b4565b925050604084013567ffffffffffffffff811115611d6657611d656111b3565b5b611d72868287016115ba565b9150509250925092565b7f4e487b7100000000000000000000000000000000000000000000000000000000600052603260045260246000fd5b7f4e487b7100000000000000000000000000000000000000000000000000000000600052602260045260246000fd5b60006002820490506001821680611df257607f821691505b602082108103611e0557611e04611dab565b5b50919050565b600082825260208201905092915050565b6000611e278261128a565b611e318185611e0b565b9350611e418185602086016112a6565b611e4a816112d0565b840191505092915050565b60006020820190508181036000830152611e6f8184611e1c565b905092915050565b611e8081611243565b8114611e8b57600080fd5b50565b600081519050611e9d81611e77565b92915050565b6000611eb6611eb184611538565b61150e565b905082815260208101848484011115611ed257611ed1611533565b5b611edd8482856112a6565b509392505050565b600082601f830112611efa57611ef961152e565b5b8151611f0a848260208601611ea3565b91505092915050565b600081519050611f22816111ea565b92915050565b600060a08284031215611f3e57611f3d6114a9565b5b611f4860a061150e565b9050600082015167ffffffffffffffff811115611f6857611f67611529565b5b611f7484828501611ee5565b600083015250602082015167ffffffffffffffff811115611f9857611f97611529565b5b611fa484828501611ee5565b6020830152506040611fb884828501611f13565b604083015250606082015167ffffffffffffffff811115611fdc57611fdb611529565b5b611fe884828501611ee5565b606083015250608082015167ffffffffffffffff81111561200c5761200b611529565b5b61201884828501611ee5565b60808301525092915050565b60006040828403121561203a576120396114a9565b5b612044604061150e565b9050600061205484828501611e8e565b600083015250602082015167ffffffffffffffff81111561207857612077611529565b5b61208484828501611f28565b60208301525092915050565b6000602082840312156120a6576120a56111ae565b5b600082015167ffffffffffffffff8111156120c4576120c36111b3565b5b6120d084828501612024565b91505092915050565b7f4e487b7100000000000000000000000000000000000000000000000000000000600052601160045260246000fd5b6000819050919050565b600061211d82612108565b91507fffffffffffffffffffffffffffffffffffffffffffffffffffffffffffffffff820361214f5761214e6120d9565b5b600182019050919050565b600081905092915050565b60006121708261128a565b61217a818561215a565b935061218a8185602086016112a6565b80840191505092915050565b60006121a28284612165565b915081905092915050565b600060a08301600083015184820360008601526121ca82826112e1565b915050602083015184820360208601526121e482826112e1565b91505060408301516121f9604086018261131a565b506060830151848203606086015261221182826112e1565b9150506080830151848203608086015261222b82826112e1565b9150508091505092915050565b6000602082019050818103600083015261225281846121ad565b905092915050565b60008190508160005260206000209050919050565b60006020601f8301049050919050565b600082821b905092915050565b6000600883026122bc7fffffffffffffffffffffffffffffffffffffffffffffffffffffffffffffffff8261227f565b6122c6868361227f565b95508019841693508086168417925050509392505050565b6000819050919050565b60006123036122fe6122f984612108565b6122de565b612108565b9050919050565b6000819050919050565b61231d836122e8565b6123316123298261230a565b84845461228c565b825550505050565b600090565b612346612339565b612351818484612314565b505050565b5b818110156123755761236a60008261233e565b600181019050612357565b5050565b601f8211156123ba5761238b8161225a565b6123948461226f565b810160208510156123a3578190505b6123b76123af8561226f565b830182612356565b50505b505050565b600082821c905092915050565b60006123dd600019846008026123bf565b1980831691505092915050565b60006123f683836123cc565b9150826002028217905092915050565b61240f8261128a565b67ffffffffffffffff811115612428576124276114ae565b5b6124328254611dda565b61243d828285612379565b600060209050601f831160018114612470576000841561245e578287015190505b61246885826123ea565b8655506124d0565b601f19841661247e8661225a565b60005b828110156124a657848901518255600182019150602085019450602081019050612481565b868310156124c357848901516124bf601f8916826123cc565b8355505b6001600288020188555050505b50505050505056fea2646970667358221220a1fafb3c459572d950aeced01acbdb17763e7365091ad5133b83694a3221c2dc64736f6c63430008130033",
  "linkReferences": {},
  "deployedLinkReferences": {}
}