{
  "_format": "hh-sol-artifact-1",
  "contractName": "AccessControl",
  "sourceName": "contracts/AccessControl.sol",
  "abi": [
    {
      "inputs": [
        {
          "internalType": "address",
          "name": "helperContract",
          "type": "address"
        }
      ],
      "stateMutability": "nonpayable",
      "type": "constructor"
    },
    {
      "anonymous": false,
      "inputs": [
        {
          "indexed": true,
          "internalType": "address",
          "name": "userAccount",
          "type": "address"
        },
        {
          "indexed": false,
          "internalType": "string",
          "name": "fileIpfsCID",
          "type": "string"
        },
        {
          "indexed": false,
          "internalType": "string",
          "name": "permissionsOwner",
          "type": "string"
        },
        {
          "indexed": false,
          "internalType": "string",
          "name": "action",
          "type": "string"
        }
      ],
      "name": "FileActionLog",
      "type": "event"
    },
    {
      "inputs": [
        {
          "internalType": "address",
          "name": "userAccount",
          "type": "address"
        },
        {
          "internalType": "string",
          "name": "fileIpfsCid",
          "type": "string"
        }
      ],
      "name": "deactivateFile",
      "outputs": [],
      "stateMutability": "nonpayable",
      "type": "function"
    },
    {
      "inputs": [
        {
          "internalType": "string",
          "name": "fileIpfsCid",
          "type": "string"
        },
        {
          "internalType": "address",
          "name": "userAccount",
          "type": "address"
        }
      ],
      "name": "downloadFileAudit",
      "outputs": [],
      "stateMutability": "nonpayable",
      "type": "function"
    },
    {
      "inputs": [
        {
          "internalType": "address",
          "name": "userAccount",
          "type": "address"
        },
        {
          "internalType": "string",
          "name": "fileIpfsCID",
          "type": "string"
        }
      ],
      "name": "elegibleToShare",
      "outputs": [
        {
          "internalType": "bool",
          "name": "",
          "type": "bool"
        }
      ],
      "stateMutability": "view",
      "type": "function"
    },
    {
      "inputs": [
        {
          "internalType": "address",
          "name": "userAccount",
          "type": "address"
        },
        {
          "internalType": "string",
          "name": "fileIpfsCID",
          "type": "string"
        }
      ],
      "name": "elegibleToUpdPermissions",
      "outputs": [
        {
          "internalType": "bool",
          "name": "",
          "type": "bool"
        }
      ],
      "stateMutability": "view",
      "type": "function"
    },
    {
      "inputs": [
        {
          "internalType": "address",
          "name": "userAccount",
          "type": "address"
        },
        {
          "internalType": "string",
          "name": "fileIpfsCID",
          "type": "string"
        }
      ],
      "name": "elegibleToUpload",
      "outputs": [
        {
          "internalType": "bool",
          "name": "",
          "type": "bool"
        }
      ],
      "stateMutability": "view",
      "type": "function"
    },
    {
      "inputs": [],
      "name": "getAuditLogControlAddress",
      "outputs": [
        {
          "internalType": "address",
          "name": "",
          "type": "address"
        }
      ],
      "stateMutability": "view",
      "type": "function"
    },
    {
      "inputs": [
        {
          "internalType": "address",
          "name": "accountUser",
          "type": "address"
        },
        {
          "internalType": "string",
          "name": "fileIpfsCID",
          "type": "string"
        }
      ],
      "name": "getEncSymmetricKeyFileUser",
      "outputs": [
        {
          "components": [
            {
              "internalType": "bool",
              "name": "success",
              "type": "bool"
            },
            {
              "internalType": "string",
              "name": "resultString",
              "type": "string"
            }
          ],
          "internalType": "struct Helper.ResultString",
          "name": "",
          "type": "tuple"
        }
      ],
      "stateMutability": "view",
      "type": "function"
    },
    {
      "inputs": [],
      "name": "getFileRegisterAddress",
      "outputs": [
        {
          "internalType": "address",
          "name": "",
          "type": "address"
        }
      ],
      "stateMutability": "view",
      "type": "function"
    },
    {
      "inputs": [
        {
          "internalType": "address",
          "name": "userAccount",
          "type": "address"
        },
        {
          "internalType": "string",
          "name": "fileIpfsCID",
          "type": "string"
        }
      ],
      "name": "getPermissionsOverFile",
      "outputs": [
        {
          "components": [
            {
              "internalType": "bool",
              "name": "success",
              "type": "bool"
            },
            {
              "internalType": "string[]",
              "name": "resultStrings",
              "type": "string[]"
            }
          ],
          "internalType": "struct Helper.ResultStringArray",
          "name": "",
          "type": "tuple"
        }
      ],
      "stateMutability": "view",
      "type": "function"
    },
    {
      "inputs": [
        {
          "internalType": "address",
          "name": "account",
          "type": "address"
        },
        {
          "internalType": "string",
          "name": "state",
          "type": "string"
        }
      ],
      "name": "getUserFiles",
      "outputs": [
        {
          "components": [
            {
              "internalType": "bool",
              "name": "success",
              "type": "bool"
            },
            {
              "components": [
                {
                  "internalType": "string",
                  "name": "ipfsCID",
                  "type": "string"
                },
                {
                  "internalType": "string",
                  "name": "fileName",
                  "type": "string"
                },
                {
                  "internalType": "int256",
                  "name": "version",
                  "type": "int256"
                },
                {
                  "internalType": "address",
                  "name": "owner",
                  "type": "address"
                },
                {
                  "internalType": "string",
                  "name": "fileType",
                  "type": "string"
                },
                {
                  "internalType": "string",
                  "name": "iv",
                  "type": "string"
                },
                {
                  "internalType": "string",
                  "name": "state",
                  "type": "string"
                }
              ],
              "internalType": "struct FileRegister.File[]",
              "name": "files",
              "type": "tuple[]"
            }
          ],
          "internalType": "struct FileRegister.ResultFiles",
          "name": "",
          "type": "tuple"
        }
      ],
      "stateMutability": "view",
      "type": "function"
    },
    {
      "inputs": [],
      "name": "getUserRegisterAddress",
      "outputs": [
        {
          "internalType": "address",
          "name": "",
          "type": "address"
        }
      ],
      "stateMutability": "view",
      "type": "function"
    },
    {
      "inputs": [
        {
          "internalType": "address",
          "name": "accountInput",
          "type": "address"
        },
        {
          "internalType": "address",
          "name": "accountList",
          "type": "address"
        },
        {
          "internalType": "string",
          "name": "ipfsCIDInput",
          "type": "string"
        },
        {
          "internalType": "string",
          "name": "ipfsCIDList",
          "type": "string"
        }
      ],
      "name": "isKeyEqual",
      "outputs": [
        {
          "internalType": "bool",
          "name": "",
          "type": "bool"
        }
      ],
      "stateMutability": "pure",
      "type": "function"
    },
    {
      "inputs": [
        {
          "internalType": "string",
          "name": "fileIpfsCID",
          "type": "string"
        }
      ],
      "name": "messageSenderAssociatedToFile",
      "outputs": [
        {
          "internalType": "bool",
          "name": "",
          "type": "bool"
        }
      ],
      "stateMutability": "view",
      "type": "function"
    },
    {
      "inputs": [
        {
          "internalType": "address",
          "name": "userAccount",
          "type": "address"
        },
        {
          "internalType": "string",
          "name": "fileIpfsCID",
          "type": "string"
        }
      ],
      "name": "removeUserFileAssociation",
      "outputs": [],
      "stateMutability": "nonpayable",
      "type": "function"
    },
    {
      "inputs": [
        {
          "internalType": "address",
          "name": "userAccount",
          "type": "address"
        },
        {
          "internalType": "string",
          "name": "fileIpfsCID",
          "type": "string"
        },
        {
          "internalType": "string",
          "name": "encSymmetricKey",
          "type": "string"
        },
        {
          "internalType": "string[]",
          "name": "permissions",
          "type": "string[]"
        }
      ],
      "name": "shareFile",
      "outputs": [],
      "stateMutability": "nonpayable",
      "type": "function"
    },
    {
      "inputs": [
        {
          "internalType": "address",
          "name": "userAccount",
          "type": "address"
        },
        {
          "internalType": "string",
          "name": "fileIpfsCID",
          "type": "string"
        },
        {
          "internalType": "string[]",
          "name": "permissions",
          "type": "string[]"
        }
      ],
      "name": "updateUserFilePermissions",
      "outputs": [],
      "stateMutability": "nonpayable",
      "type": "function"
    },
    {
      "inputs": [
        {
          "internalType": "address",
          "name": "userAccount",
          "type": "address"
        },
        {
          "components": [
            {
              "internalType": "string",
              "name": "ipfsCID",
              "type": "string"
            },
            {
              "internalType": "string",
              "name": "fileName",
              "type": "string"
            },
            {
              "internalType": "int256",
              "name": "version",
              "type": "int256"
            },
            {
              "internalType": "address",
              "name": "owner",
              "type": "address"
            },
            {
              "internalType": "string",
              "name": "fileType",
              "type": "string"
            },
            {
              "internalType": "string",
              "name": "iv",
              "type": "string"
            },
            {
              "internalType": "string",
              "name": "state",
              "type": "string"
            }
          ],
          "internalType": "struct FileRegister.File",
          "name": "file",
          "type": "tuple"
        },
        {
          "internalType": "string",
          "name": "encSymmetricKey",
          "type": "string"
        }
      ],
      "name": "uploadFile",
      "outputs": [],
      "stateMutability": "nonpayable",
      "type": "function"
    },
    {
      "inputs": [
        {
          "internalType": "address",
          "name": "userAccount",
          "type": "address"
        },
        {
          "internalType": "string",
          "name": "fileIpfsCID",
          "type": "string"
        }
      ],
      "name": "userAssociatedWithFile",
      "outputs": [
        {
          "internalType": "bool",
          "name": "",
          "type": "bool"
        }
      ],
      "stateMutability": "view",
      "type": "function"
    },
    {
      "inputs": [
        {
          "internalType": "address",
          "name": "userAccount",
          "type": "address"
        },
        {
          "internalType": "string",
          "name": "fileName",
          "type": "string"
        }
      ],
      "name": "userAssociatedWithFileName",
      "outputs": [
        {
          "internalType": "bool",
          "name": "",
          "type": "bool"
        }
      ],
      "stateMutability": "view",
      "type": "function"
    },
    {
      "inputs": [
        {
          "internalType": "address",
          "name": "userAccount",
          "type": "address"
        },
        {
          "internalType": "string",
          "name": "fileIpfsCID",
          "type": "string"
        },
        {
          "internalType": "string",
          "name": "permission",
          "type": "string"
        }
      ],
      "name": "userHasPermissionOverFile",
      "outputs": [
        {
          "internalType": "bool",
          "name": "",
          "type": "bool"
        }
      ],
      "stateMutability": "view",
      "type": "function"
    }
  ],
  "bytecode": "0x60806040523480156200001157600080fd5b506040516200ac023803806200ac0283398181016040528101906200003791906200028c565b80600460006101000a81548173ffffffffffffffffffffffffffffffffffffffff021916908373ffffffffffffffffffffffffffffffffffffffff160217905550806040516200008790620001f8565b620000939190620002cf565b604051809103906000f080158015620000b0573d6000803e3d6000fd5b50600160006101000a81548173ffffffffffffffffffffffffffffffffffffffff021916908373ffffffffffffffffffffffffffffffffffffffff16021790555080604051620001009062000206565b6200010c9190620002cf565b604051809103906000f08015801562000129573d6000803e3d6000fd5b50600260006101000a81548173ffffffffffffffffffffffffffffffffffffffff021916908373ffffffffffffffffffffffffffffffffffffffff160217905550604051620001789062000214565b604051809103906000f08015801562000195573d6000803e3d6000fd5b50600360006101000a81548173ffffffffffffffffffffffffffffffffffffffff021916908373ffffffffffffffffffffffffffffffffffffffff1602179055506000600460146101000a81548160ff02191690831515021790555050620002ec565b61253380620057e283390190565b611a6a8062007d1583390190565b611483806200977f83390190565b600080fd5b600073ffffffffffffffffffffffffffffffffffffffff82169050919050565b6000620002548262000227565b9050919050565b620002668162000247565b81146200027257600080fd5b50565b60008151905062000286816200025b565b92915050565b600060208284031215620002a557620002a462000222565b5b6000620002b58482850162000275565b91505092915050565b620002c98162000247565b82525050565b6000602082019050620002e66000830184620002be565b92915050565b6154e680620002fc6000396000f3fe608060405234801561001057600080fd5b506004361061012b5760003560e01c8063874a22ed116100ad578063b714fb2011610071578063b714fb201461038c578063c19dcf89146103aa578063c61e6663146103da578063db54cc8c146103f6578063dee63aa1146104125761012b565b8063874a22ed146102c25780638af34fbc146102e0578063a126d94c146102fc578063b58ea3a21461032c578063b6d234df1461035c5761012b565b8063299768c8116100f4578063299768c81461020c5780635c99c71b1461023c5780635dab19e41461026c578063600d07641461028a57806367cc916b146102a65761012b565b8062c5e61414610130578063097637271461014c578063173cd5581461017c5780631ac47dd0146101ac5780632321f318146101dc575b600080fd5b61014a6004803603810190610145919061364d565b610442565b005b61016660048036038101906101619190613708565b610733565b60405161017391906139dd565b60405180910390f35b61019660048036038101906101919190613708565b610c10565b6040516101a39190613afe565b60405180910390f35b6101c660048036038101906101c19190613708565b610fc9565b6040516101d39190613b2f565b60405180910390f35b6101f660048036038101906101f19190613708565b611266565b6040516102039190613b2f565b60405180910390f35b61022660048036038101906102219190613b4a565b611498565b6040516102339190613b2f565b60405180910390f35b61025660048036038101906102519190613b93565b6116d0565b6040516102639190613b2f565b60405180910390f35b610274611762565b6040516102819190613c41565b60405180910390f35b6102a4600480360381019061029f9190613dd2565b61178c565b005b6102c060048036038101906102bb9190613e5d565b611c72565b005b6102ca611e7c565b6040516102d79190613c41565b60405180910390f35b6102fa60048036038101906102f59190613eb9565b611ea6565b005b61031660048036038101906103119190613708565b612156565b6040516103239190613f81565b60405180910390f35b61034660048036038101906103419190613708565b6124c1565b6040516103539190613b2f565b60405180910390f35b61037660048036038101906103719190613fa3565b61284e565b6040516103839190613b2f565b60405180910390f35b61039461290f565b6040516103a19190613c41565b60405180910390f35b6103c460048036038101906103bf9190613708565b612939565b6040516103d19190613b2f565b60405180910390f35b6103f460048036038101906103ef9190613708565b612b49565b005b610410600480360381019061040b9190613708565b612da9565b005b61042c60048036038101906104279190613708565b6130af565b6040516104399190613b2f565b60405180910390f35b61044c84846124c1565b1561072d576000600460009054906101000a900473ffffffffffffffffffffffffffffffffffffffff1673ffffffffffffffffffffffffffffffffffffffff16631c209e7c868686866040518563ffffffff1660e01b81526004016104b49493929190614124565b602060405180830381865afa1580156104d1573d6000803e3d6000fd5b505050506040513d601f19601f820116820180604052508101906104f591906141bd565b9050801561072b57600060405180608001604052808773ffffffffffffffffffffffffffffffffffffffff168152602001868152602001858152602001848152509050600081908060018154018082558091505060019003906000526020600020906004020160009091909190915060008201518160000160006101000a81548173ffffffffffffffffffffffffffffffffffffffff021916908373ffffffffffffffffffffffffffffffffffffffff16021790555060208201518160010190816105c09190614400565b5060408201518160020190816105d69190614400565b5060608201518160030190805190602001906105f39291906131b0565b505050600360009054906101000a900473ffffffffffffffffffffffffffffffffffffffff1673ffffffffffffffffffffffffffffffffffffffff1663c47ebddc338789600460009054906101000a900473ffffffffffffffffffffffffffffffffffffffff1673ffffffffffffffffffffffffffffffffffffffff16636bb8d768896040518263ffffffff1660e01b815260040161069291906144d2565b600060405180830381865afa1580156106af573d6000803e3d6000fd5b505050506040513d6000823e3d601f19601f820116820180604052508101906106d89190614564565b6040518563ffffffff1660e01b81526004016106f794939291906145f9565b600060405180830381600087803b15801561071157600080fd5b505af1158015610725573d6000803e3d6000fd5b50505050505b505b50505050565b61073b613209565b8273ffffffffffffffffffffffffffffffffffffffff163373ffffffffffffffffffffffffffffffffffffffff1603610b9b576000808054905067ffffffffffffffff81111561078e5761078d61343c565b5b6040519080825280602002602001820160405280156107c757816020015b6107b4613225565b8152602001906001900390816107ac5790505b5090506000805b600080549050811015610b6b578573ffffffffffffffffffffffffffffffffffffffff16600082815481106108065761080561465f565b5b906000526020600020906004020160000160009054906101000a900473ffffffffffffffffffffffffffffffffffffffff1673ffffffffffffffffffffffffffffffffffffffff161480156109c15750600160009054906101000a900473ffffffffffffffffffffffffffffffffffffffff1673ffffffffffffffffffffffffffffffffffffffff1662438ceb600083815481106108a7576108a661465f565b5b90600052602060002090600402016001016040518263ffffffff1660e01b81526004016108d49190614712565b600060405180830381865afa1580156108f1573d6000803e3d6000fd5b505050506040513d6000823e3d601f19601f8201168201806040525081019061091a91906147a0565b6020015160405160200161092e9190614825565b60405160208183030381529060405280519060200120856040516020016109559190614825565b6040516020818303038152906040528051906020012014806109c057506040516020016109819061485f565b60405160208183030381529060405280519060200120856040516020016109a89190614825565b60405160208183030381529060405280519060200120145b5b15610b585760008082815481106109db576109da61465f565b5b906000526020600020906004020160010180546109f790614219565b80601f0160208091040260200160405190810160405280929190818152602001828054610a2390614219565b8015610a705780601f10610a4557610100808354040283529160200191610a70565b820191906000526020600020905b815481529060010190602001808311610a5357829003601f168201915b505050505090506000600160009054906101000a900473ffffffffffffffffffffffffffffffffffffffff1673ffffffffffffffffffffffffffffffffffffffff166347eb6fa783896040518363ffffffff1660e01b8152600401610ad6929190614874565b600060405180830381865afa158015610af3573d6000803e3d6000fd5b505050506040513d6000823e3d601f19601f82011682018060405250810190610b1c9190614a81565b905060008160200151905080868681518110610b3b57610b3a61465f565b5b60200260200101819052508480610b5190614af9565b9550505050505b8080610b6390614af9565b9150506107ce565b5080825260008114610b985760405180604001604052806001151581526020018381525092505050610c0a565b50505b6040518060400160405280600015158152602001600067ffffffffffffffff811115610bca57610bc961343c565b5b604051908082528060200260200182016040528015610c0357816020015b610bf0613225565b815260200190600190039081610be85790505b5081525090505b92915050565b610c18613278565b610c2182611498565b8015610d195750604051602001610c3790614b8d565b60405160208183030381529060405280519060200120600160009054906101000a900473ffffffffffffffffffffffffffffffffffffffff1673ffffffffffffffffffffffffffffffffffffffff1662438ceb846040518263ffffffff1660e01b8152600401610ca79190614ba2565b600060405180830381865afa158015610cc4573d6000803e3d6000fd5b505050506040513d6000823e3d601f19601f82011682018060405250810190610ced91906147a0565b60200151604051602001610d019190614825565b60405160208183030381529060405280519060200120145b15610f5a5760005b600080549050811015610f5857610e2c8460008381548110610d4657610d4561465f565b5b906000526020600020906004020160000160009054906101000a900473ffffffffffffffffffffffffffffffffffffffff168560008581548110610d8d57610d8c61465f565b5b90600052602060002090600402016001018054610da990614219565b80601f0160208091040260200160405190810160405280929190818152602001828054610dd590614219565b8015610e225780601f10610df757610100808354040283529160200191610e22565b820191906000526020600020905b815481529060010190602001808311610e0557829003601f168201915b50505050506116d0565b15610f4557604051806040016040528060011515815260200160008381548110610e5957610e5861465f565b5b9060005260206000209060040201600301805480602002602001604051908101604052809291908181526020016000905b82821015610f36578382906000526020600020018054610ea990614219565b80601f0160208091040260200160405190810160405280929190818152602001828054610ed590614219565b8015610f225780601f10610ef757610100808354040283529160200191610f22565b820191906000526020600020905b815481529060010190602001808311610f0557829003601f168201915b505050505081526020019060010190610e8a565b50505050815250915050610fc3565b8080610f5090614af9565b915050610d21565b505b6040518060400160405280600015158152602001600067ffffffffffffffff811115610f8957610f8861343c565b5b604051908082528060200260200182016040528015610fbc57816020015b6060815260200190600190039081610fa75790505b5081525090505b92915050565b6000610fd482611498565b8061102c5750600360009054906101000a900473ffffffffffffffffffffffffffffffffffffffff1673ffffffffffffffffffffffffffffffffffffffff163373ffffffffffffffffffffffffffffffffffffffff16145b8015611124575060405160200161104290614b8d565b60405160208183030381529060405280519060200120600160009054906101000a900473ffffffffffffffffffffffffffffffffffffffff1673ffffffffffffffffffffffffffffffffffffffff1662438ceb846040518263ffffffff1660e01b81526004016110b29190614ba2565b600060405180830381865afa1580156110cf573d6000803e3d6000fd5b505050506040513d6000823e3d601f19601f820116820180604052508101906110f891906147a0565b6020015160405160200161110c9190614825565b60405160208183030381529060405280519060200120145b1561125b5760005b6000805490508110156112595761123784600083815481106111515761115061465f565b5b906000526020600020906004020160000160009054906101000a900473ffffffffffffffffffffffffffffffffffffffff1685600085815481106111985761119761465f565b5b906000526020600020906004020160010180546111b490614219565b80601f01602080910402602001604051908101604052809291908181526020018280546111e090614219565b801561122d5780601f106112025761010080835404028352916020019161122d565b820191906000526020600020905b81548152906001019060200180831161121057829003601f168201915b50505050506116d0565b15611246576001915050611260565b808061125190614af9565b91505061112c565b505b600090505b92915050565b60008273ffffffffffffffffffffffffffffffffffffffff163373ffffffffffffffffffffffffffffffffffffffff161415801561133f5750600160009054906101000a900473ffffffffffffffffffffffffffffffffffffffff1673ffffffffffffffffffffffffffffffffffffffff166352a9baef84846040518363ffffffff1660e01b81526004016112fc929190614bc4565b602060405180830381865afa158015611319573d6000803e3d6000fd5b505050506040513d601f19601f8201168201806040525081019061133d91906141bd565b155b8015611387575061138633836040518060400160405280600581526020017f736861726500000000000000000000000000000000000000000000000000000081525061284e565b5b801561147f575060405160200161139d90614b8d565b60405160208183030381529060405280519060200120600160009054906101000a900473ffffffffffffffffffffffffffffffffffffffff1673ffffffffffffffffffffffffffffffffffffffff1662438ceb846040518263ffffffff1660e01b815260040161140d9190614ba2565b600060405180830381865afa15801561142a573d6000803e3d6000fd5b505050506040513d6000823e3d601f19601f8201168201806040525081019061145391906147a0565b602001516040516020016114679190614825565b60405160208183030381529060405280519060200120145b1561148d5760019050611492565b600090505b92915050565b600080600090505b6000805490508110156116c5576115ab33600083815481106114c5576114c461465f565b5b906000526020600020906004020160000160009054906101000a900473ffffffffffffffffffffffffffffffffffffffff16856000858154811061150c5761150b61465f565b5b9060005260206000209060040201600101805461152890614219565b80601f016020809104026020016040519081016040528092919081815260200182805461155490614219565b80156115a15780601f10611576576101008083540402835291602001916115a1565b820191906000526020600020905b81548152906001019060200180831161158457829003601f168201915b50505050506116d0565b80156116a357506040516020016115c190614b8d565b60405160208183030381529060405280519060200120600160009054906101000a900473ffffffffffffffffffffffffffffffffffffffff1673ffffffffffffffffffffffffffffffffffffffff1662438ceb856040518263ffffffff1660e01b81526004016116319190614ba2565b600060405180830381865afa15801561164e573d6000803e3d6000fd5b505050506040513d6000823e3d601f19601f8201168201806040525081019061167791906147a0565b6020015160405160200161168b9190614825565b60405160208183030381529060405280519060200120145b156116b25760019150506116cb565b80806116bd90614af9565b9150506114a0565b50600090505b919050565b60008473ffffffffffffffffffffffffffffffffffffffff168473ffffffffffffffffffffffffffffffffffffffff161480156117585750826040516020016117199190614825565b60405160208183030381529060405280519060200120826040516020016117409190614825565b60405160208183030381529060405280519060200120145b9050949350505050565b6000600160009054906101000a900473ffffffffffffffffffffffffffffffffffffffff16905090565b61179a8383600001516130af565b15611c6d576000600367ffffffffffffffff8111156117bc576117bb61343c565b5b6040519080825280602002602001820160405280156117ef57816020015b60608152602001906001900390816117da5790505b5090506040518060400160405280600581526020017f73686172650000000000000000000000000000000000000000000000000000008152508160008151811061183c5761183b61465f565b5b60200260200101819052506040518060400160405280600881526020017f646f776e6c6f6164000000000000000000000000000000000000000000000000815250816001815181106118915761189061465f565b5b60200260200101819052506040518060400160405280600681526020017f64656c6574650000000000000000000000000000000000000000000000000000815250816002815181106118e6576118e561465f565b5b60200260200101819052506000600460009054906101000a900473ffffffffffffffffffffffffffffffffffffffff1673ffffffffffffffffffffffffffffffffffffffff16631c209e7c86866000015186868960c001516040518663ffffffff1660e01b815260040161195e959493929190614bf4565b602060405180830381865afa15801561197b573d6000803e3d6000fd5b505050506040513d601f19601f8201168201806040525081019061199f91906141bd565b90508015611c6a57600160009054906101000a900473ffffffffffffffffffffffffffffffffffffffff1673ffffffffffffffffffffffffffffffffffffffff1663af205f5c856040518263ffffffff1660e01b8152600401611a029190614d1b565b600060405180830381600087803b158015611a1c57600080fd5b505af1158015611a30573d6000803e3d6000fd5b50505050600060405180608001604052808773ffffffffffffffffffffffffffffffffffffffff16815260200186600001518152602001858152602001848152509050600081908060018154018082558091505060019003906000526020600020906004020160009091909190915060008201518160000160006101000a81548173ffffffffffffffffffffffffffffffffffffffff021916908373ffffffffffffffffffffffffffffffffffffffff1602179055506020820151816001019081611afb9190614400565b506040820151816002019081611b119190614400565b506060820151816003019080519060200190611b2e9291906131b0565b505050600360009054906101000a900473ffffffffffffffffffffffffffffffffffffffff1673ffffffffffffffffffffffffffffffffffffffff1663c47ebddc33876000015189600460009054906101000a900473ffffffffffffffffffffffffffffffffffffffff1673ffffffffffffffffffffffffffffffffffffffff16636bb8d768896040518263ffffffff1660e01b8152600401611bd191906144d2565b600060405180830381865afa158015611bee573d6000803e3d6000fd5b505050506040513d6000823e3d601f19601f82011682018060405250810190611c179190614564565b6040518563ffffffff1660e01b8152600401611c369493929190614d89565b600060405180830381600087803b158015611c5057600080fd5b505af1158015611c64573d6000803e3d6000fd5b50505050505b50505b505050565b8073ffffffffffffffffffffffffffffffffffffffff163373ffffffffffffffffffffffffffffffffffffffff16148015611ce95750611ce881836040518060400160405280600881526020017f646f776e6c6f616400000000000000000000000000000000000000000000000081525061284e565b5b8015611de15750604051602001611cff90614b8d565b60405160208183030381529060405280519060200120600160009054906101000a900473ffffffffffffffffffffffffffffffffffffffff1673ffffffffffffffffffffffffffffffffffffffff1662438ceb846040518263ffffffff1660e01b8152600401611d6f9190614ba2565b600060405180830381865afa158015611d8c573d6000803e3d6000fd5b505050506040513d6000823e3d601f19601f82011682018060405250810190611db591906147a0565b60200151604051602001611dc99190614825565b60405160208183030381529060405280519060200120145b15611e7857600360009054906101000a900473ffffffffffffffffffffffffffffffffffffffff1673ffffffffffffffffffffffffffffffffffffffff1663c47ebddc3384846040518463ffffffff1660e01b8152600401611e4593929190614e87565b600060405180830381600087803b158015611e5f57600080fd5b505af1158015611e73573d6000803e3d6000fd5b505050505b5050565b6000600260009054906101000a900473ffffffffffffffffffffffffffffffffffffffff16905090565b611eb08383611266565b156121505760005b60008054905081101561214e57611fc38460008381548110611edd57611edc61465f565b5b906000526020600020906004020160000160009054906101000a900473ffffffffffffffffffffffffffffffffffffffff168560008581548110611f2457611f2361465f565b5b90600052602060002090600402016001018054611f4090614219565b80601f0160208091040260200160405190810160405280929190818152602001828054611f6c90614219565b8015611fb95780601f10611f8e57610100808354040283529160200191611fb9565b820191906000526020600020905b815481529060010190602001808311611f9c57829003601f168201915b50505050506116d0565b1561213b578160008281548110611fdd57611fdc61465f565b5b906000526020600020906004020160030190805190602001906120019291906131b0565b50600360009054906101000a900473ffffffffffffffffffffffffffffffffffffffff1673ffffffffffffffffffffffffffffffffffffffff1663c47ebddc338587600460009054906101000a900473ffffffffffffffffffffffffffffffffffffffff1673ffffffffffffffffffffffffffffffffffffffff16636bb8d768886040518263ffffffff1660e01b815260040161209e91906144d2565b600060405180830381865afa1580156120bb573d6000803e3d6000fd5b505050506040513d6000823e3d601f19601f820116820180604052508101906120e49190614564565b6040518563ffffffff1660e01b81526004016121039493929190614f37565b600060405180830381600087803b15801561211d57600080fd5b505af1158015612131573d6000803e3d6000fd5b5050505050612151565b808061214690614af9565b915050611eb8565b505b5b505050565b61215e613294565b8273ffffffffffffffffffffffffffffffffffffffff163373ffffffffffffffffffffffffffffffffffffffff1614801561219f575061219e8383610fc9565b5b801561229757506040516020016121b590614b8d565b60405160208183030381529060405280519060200120600160009054906101000a900473ffffffffffffffffffffffffffffffffffffffff1673ffffffffffffffffffffffffffffffffffffffff1662438ceb846040518263ffffffff1660e01b81526004016122259190614ba2565b600060405180830381865afa158015612242573d6000803e3d6000fd5b505050506040513d6000823e3d601f19601f8201168201806040525081019061226b91906147a0565b6020015160405160200161227f9190614825565b60405160208183030381529060405280519060200120145b156124915760005b60008054905081101561248f576123aa84600083815481106122c4576122c361465f565b5b906000526020600020906004020160000160009054906101000a900473ffffffffffffffffffffffffffffffffffffffff16856000858154811061230b5761230a61465f565b5b9060005260206000209060040201600101805461232790614219565b80601f016020809104026020016040519081016040528092919081815260200182805461235390614219565b80156123a05780601f10612375576101008083540402835291602001916123a0565b820191906000526020600020905b81548152906001019060200180831161238357829003601f168201915b50505050506116d0565b1561247c576040518060400160405280600115158152602001600083815481106123d7576123d661465f565b5b906000526020600020906004020160020180546123f390614219565b80601f016020809104026020016040519081016040528092919081815260200182805461241f90614219565b801561246c5780601f106124415761010080835404028352916020019161246c565b820191906000526020600020905b81548152906001019060200180831161244f57829003601f168201915b50505050508152509150506124bb565b808061248790614af9565b91505061229f565b505b60405180604001604052806000151581526020016040518060200160405280600081525081525090505b92915050565b60008273ffffffffffffffffffffffffffffffffffffffff163373ffffffffffffffffffffffffffffffffffffffff161415801561259a5750600160009054906101000a900473ffffffffffffffffffffffffffffffffffffffff1673ffffffffffffffffffffffffffffffffffffffff166352a9baef84846040518363ffffffff1660e01b8152600401612557929190614bc4565b602060405180830381865afa158015612574573d6000803e3d6000fd5b505050506040513d601f19601f8201168201806040525081019061259891906141bd565b155b80156125e257506125e133836040518060400160405280600581526020017f736861726500000000000000000000000000000000000000000000000000000081525061284e565b5b80156125f557506125f38383610fc9565b155b80156126995750600160009054906101000a900473ffffffffffffffffffffffffffffffffffffffff1673ffffffffffffffffffffffffffffffffffffffff16639bccd6ad836040518263ffffffff1660e01b81526004016126579190614ba2565b602060405180830381865afa158015612674573d6000803e3d6000fd5b505050506040513d601f19601f8201168201806040525081019061269891906141bd565b5b801561279157506040516020016126af90614b8d565b60405160208183030381529060405280519060200120600160009054906101000a900473ffffffffffffffffffffffffffffffffffffffff1673ffffffffffffffffffffffffffffffffffffffff1662438ceb846040518263ffffffff1660e01b815260040161271f9190614ba2565b600060405180830381865afa15801561273c573d6000803e3d6000fd5b505050506040513d6000823e3d601f19601f8201168201806040525081019061276591906147a0565b602001516040516020016127799190614825565b60405160208183030381529060405280519060200120145b80156128355750600260009054906101000a900473ffffffffffffffffffffffffffffffffffffffff1673ffffffffffffffffffffffffffffffffffffffff1663a240e426846040518263ffffffff1660e01b81526004016127f39190613c41565b602060405180830381865afa158015612810573d6000803e3d6000fd5b505050506040513d601f19601f8201168201806040525081019061283491906141bd565b5b156128435760019050612848565b600090505b92915050565b60006001156129035760006128638585610c10565b60200151905060005b815181101561290057836040516020016128869190614825565b604051602081830303815290604052805190602001208282815181106128af576128ae61465f565b5b60200260200101516040516020016128c79190614825565b60405160208183030381529060405280519060200120036128ed57600192505050612908565b80806128f890614af9565b91505061286c565b50505b600090505b9392505050565b6000600360009054906101000a900473ffffffffffffffffffffffffffffffffffffffff16905090565b600080600160009054906101000a900473ffffffffffffffffffffffffffffffffffffffff1673ffffffffffffffffffffffffffffffffffffffff16637113c4dd846040518263ffffffff1660e01b81526004016129979190614ba2565b600060405180830381865afa1580156129b4573d6000803e3d6000fd5b505050506040513d6000823e3d601f19601f820116820180604052508101906129dd9190615052565b905060005b600080549050811015612b3c5760005b8251811015612b28578573ffffffffffffffffffffffffffffffffffffffff1660008381548110612a2657612a2561465f565b5b906000526020600020906004020160000160009054906101000a900473ffffffffffffffffffffffffffffffffffffffff1673ffffffffffffffffffffffffffffffffffffffff16148015612b045750828181518110612a8957612a8861465f565b5b6020026020010151604051602001612aa19190614825565b6040516020818303038152906040528051906020012060008381548110612acb57612aca61465f565b5b9060005260206000209060040201600101604051602001612aec919061511e565b60405160208183030381529060405280519060200120145b15612b155760019350505050612b43565b8080612b2090614af9565b9150506129f2565b508080612b3490614af9565b9150506129e2565b5060009150505b92915050565b612b8933826040518060400160405280600681526020017f64656c657465000000000000000000000000000000000000000000000000000081525061284e565b8015612c815750604051602001612b9f90614b8d565b60405160208183030381529060405280519060200120600160009054906101000a900473ffffffffffffffffffffffffffffffffffffffff1673ffffffffffffffffffffffffffffffffffffffff1662438ceb836040518263ffffffff1660e01b8152600401612c0f9190614ba2565b600060405180830381865afa158015612c2c573d6000803e3d6000fd5b505050506040513d6000823e3d601f19601f82011682018060405250810190612c5591906147a0565b60200151604051602001612c699190614825565b60405160208183030381529060405280519060200120145b15612da557600160009054906101000a900473ffffffffffffffffffffffffffffffffffffffff1673ffffffffffffffffffffffffffffffffffffffff166374546fdf826040518263ffffffff1660e01b8152600401612ce19190614ba2565b600060405180830381600087803b158015612cfb57600080fd5b505af1158015612d0f573d6000803e3d6000fd5b50505050600360009054906101000a900473ffffffffffffffffffffffffffffffffffffffff1673ffffffffffffffffffffffffffffffffffffffff1663c47ebddc3383856040518463ffffffff1660e01b8152600401612d7293929190615181565b600060405180830381600087803b158015612d8c57600080fd5b505af1158015612da0573d6000803e3d6000fd5b505050505b5050565b60005b6000805490508110156130a9578273ffffffffffffffffffffffffffffffffffffffff1660008281548110612de457612de361465f565b5b906000526020600020906004020160000160009054906101000a900473ffffffffffffffffffffffffffffffffffffffff1673ffffffffffffffffffffffffffffffffffffffff16148015612e785750818051906020012060008281548110612e5057612e4f61465f565b5b9060005260206000209060040201600101604051612e6e9190615288565b6040518091039020145b156130965760006001600080549050612e91919061529f565b81548110612ea257612ea161465f565b5b906000526020600020906004020160008281548110612ec457612ec361465f565b5b90600052602060002090600402016000820160009054906101000a900473ffffffffffffffffffffffffffffffffffffffff168160000160006101000a81548173ffffffffffffffffffffffffffffffffffffffff021916908373ffffffffffffffffffffffffffffffffffffffff16021790555060018201816001019081612f4d91906152e9565b5060028201816002019081612f6291906152e9565b506003820181600301908054612f799291906132b0565b509050506000805480612f8f57612f8e6153d1565b5b6001900381819060005260206000209060040201600080820160006101000a81549073ffffffffffffffffffffffffffffffffffffffff0219169055600182016000612fdb919061330d565b600282016000612feb919061330d565b600382016000612ffb919061334d565b50509055600360009054906101000a900473ffffffffffffffffffffffffffffffffffffffff1673ffffffffffffffffffffffffffffffffffffffff1663c47ebddc3384866040518463ffffffff1660e01b815260040161305e9392919061544c565b600060405180830381600087803b15801561307857600080fd5b505af115801561308c573d6000803e3d6000fd5b50505050506130ab565b80806130a190614af9565b915050612dac565b505b5050565b60008273ffffffffffffffffffffffffffffffffffffffff163373ffffffffffffffffffffffffffffffffffffffff161480156130f357506130f18383610fc9565b155b80156131975750600260009054906101000a900473ffffffffffffffffffffffffffffffffffffffff1673ffffffffffffffffffffffffffffffffffffffff1663a240e426846040518263ffffffff1660e01b81526004016131559190613c41565b602060405180830381865afa158015613172573d6000803e3d6000fd5b505050506040513d601f19601f8201168201806040525081019061319691906141bd565b5b156131a557600190506131aa565b600090505b92915050565b8280548282559060005260206000209081019282156131f8579160200282015b828111156131f75782518290816131e79190614400565b50916020019190600101906131d0565b5b509050613205919061336e565b5090565b6040518060400160405280600015158152602001606081525090565b6040518060e00160405280606081526020016060815260200160008152602001600073ffffffffffffffffffffffffffffffffffffffff1681526020016060815260200160608152602001606081525090565b6040518060400160405280600015158152602001606081525090565b6040518060400160405280600015158152602001606081525090565b8280548282559060005260206000209081019282156132fc5760005260206000209182015b828111156132fb57828290816132eb91906152e9565b50916001019190600101906132d5565b5b509050613309919061336e565b5090565b50805461331990614219565b6000825580601f1061332b575061334a565b601f0160209004906000526020600020908101906133499190613392565b5b50565b508054600082559060005260206000209081019061336b919061336e565b50565b5b8082111561338e5760008181613385919061330d565b5060010161336f565b5090565b5b808211156133ab576000816000905550600101613393565b5090565b6000604051905090565b600080fd5b600080fd5b600073ffffffffffffffffffffffffffffffffffffffff82169050919050565b60006133ee826133c3565b9050919050565b6133fe816133e3565b811461340957600080fd5b50565b60008135905061341b816133f5565b92915050565b600080fd5b600080fd5b6000601f19601f8301169050919050565b7f4e487b7100000000000000000000000000000000000000000000000000000000600052604160045260246000fd5b6134748261342b565b810181811067ffffffffffffffff821117156134935761349261343c565b5b80604052505050565b60006134a66133af565b90506134b2828261346b565b919050565b600067ffffffffffffffff8211156134d2576134d161343c565b5b6134db8261342b565b9050602081019050919050565b82818337600083830152505050565b600061350a613505846134b7565b61349c565b90508281526020810184848401111561352657613525613426565b5b6135318482856134e8565b509392505050565b600082601f83011261354e5761354d613421565b5b813561355e8482602086016134f7565b91505092915050565b600067ffffffffffffffff8211156135825761358161343c565b5b602082029050602081019050919050565b600080fd5b60006135ab6135a684613567565b61349c565b905080838252602082019050602084028301858111156135ce576135cd613593565b5b835b8181101561361557803567ffffffffffffffff8111156135f3576135f2613421565b5b8086016136008982613539565b855260208501945050506020810190506135d0565b5050509392505050565b600082601f83011261363457613633613421565b5b8135613644848260208601613598565b91505092915050565b60008060008060808587031215613667576136666133b9565b5b60006136758782880161340c565b945050602085013567ffffffffffffffff811115613696576136956133be565b5b6136a287828801613539565b935050604085013567ffffffffffffffff8111156136c3576136c26133be565b5b6136cf87828801613539565b925050606085013567ffffffffffffffff8111156136f0576136ef6133be565b5b6136fc8782880161361f565b91505092959194509250565b6000806040838503121561371f5761371e6133b9565b5b600061372d8582860161340c565b925050602083013567ffffffffffffffff81111561374e5761374d6133be565b5b61375a85828601613539565b9150509250929050565b60008115159050919050565b61377981613764565b82525050565b600081519050919050565b600082825260208201905092915050565b6000819050602082019050919050565b600081519050919050565b600082825260208201905092915050565b60005b838110156137e55780820151818401526020810190506137ca565b60008484015250505050565b60006137fc826137ab565b61380681856137b6565b93506138168185602086016137c7565b61381f8161342b565b840191505092915050565b6000819050919050565b61383d8161382a565b82525050565b61384c816133e3565b82525050565b600060e083016000830151848203600086015261386f82826137f1565b9150506020830151848203602086015261388982826137f1565b915050604083015161389e6040860182613834565b5060608301516138b16060860182613843565b50608083015184820360808601526138c982826137f1565b91505060a083015184820360a08601526138e382826137f1565b91505060c083015184820360c08601526138fd82826137f1565b9150508091505092915050565b60006139168383613852565b905092915050565b6000602082019050919050565b60006139368261377f565b613940818561378a565b9350836020820285016139528561379b565b8060005b8581101561398e578484038952815161396f858261390a565b945061397a8361391e565b925060208a01995050600181019050613956565b50829750879550505050505092915050565b60006040830160008301516139b86000860182613770565b50602083015184820360208601526139d0828261392b565b9150508091505092915050565b600060208201905081810360008301526139f781846139a0565b905092915050565b600081519050919050565b600082825260208201905092915050565b6000819050602082019050919050565b6000613a3783836137f1565b905092915050565b6000602082019050919050565b6000613a57826139ff565b613a618185613a0a565b935083602082028501613a7385613a1b565b8060005b85811015613aaf5784840389528151613a908582613a2b565b9450613a9b83613a3f565b925060208a01995050600181019050613a77565b50829750879550505050505092915050565b6000604083016000830151613ad96000860182613770565b5060208301518482036020860152613af18282613a4c565b9150508091505092915050565b60006020820190508181036000830152613b188184613ac1565b905092915050565b613b2981613764565b82525050565b6000602082019050613b446000830184613b20565b92915050565b600060208284031215613b6057613b5f6133b9565b5b600082013567ffffffffffffffff811115613b7e57613b7d6133be565b5b613b8a84828501613539565b91505092915050565b60008060008060808587031215613bad57613bac6133b9565b5b6000613bbb8782880161340c565b9450506020613bcc8782880161340c565b935050604085013567ffffffffffffffff811115613bed57613bec6133be565b5b613bf987828801613539565b925050606085013567ffffffffffffffff811115613c1a57613c196133be565b5b613c2687828801613539565b91505092959194509250565b613c3b816133e3565b82525050565b6000602082019050613c566000830184613c32565b92915050565b600080fd5b600080fd5b613c6f8161382a565b8114613c7a57600080fd5b50565b600081359050613c8c81613c66565b92915050565b600060e08284031215613ca857613ca7613c5c565b5b613cb260e061349c565b9050600082013567ffffffffffffffff811115613cd257613cd1613c61565b5b613cde84828501613539565b600083015250602082013567ffffffffffffffff811115613d0257613d01613c61565b5b613d0e84828501613539565b6020830152506040613d2284828501613c7d565b6040830152506060613d368482850161340c565b606083015250608082013567ffffffffffffffff811115613d5a57613d59613c61565b5b613d6684828501613539565b60808301525060a082013567ffffffffffffffff811115613d8a57613d89613c61565b5b613d9684828501613539565b60a08301525060c082013567ffffffffffffffff811115613dba57613db9613c61565b5b613dc684828501613539565b60c08301525092915050565b600080600060608486031215613deb57613dea6133b9565b5b6000613df98682870161340c565b935050602084013567ffffffffffffffff811115613e1a57613e196133be565b5b613e2686828701613c92565b925050604084013567ffffffffffffffff811115613e4757613e466133be565b5b613e5386828701613539565b9150509250925092565b60008060408385031215613e7457613e736133b9565b5b600083013567ffffffffffffffff811115613e9257613e916133be565b5b613e9e85828601613539565b9250506020613eaf8582860161340c565b9150509250929050565b600080600060608486031215613ed257613ed16133b9565b5b6000613ee08682870161340c565b935050602084013567ffffffffffffffff811115613f0157613f006133be565b5b613f0d86828701613539565b925050604084013567ffffffffffffffff811115613f2e57613f2d6133be565b5b613f3a8682870161361f565b9150509250925092565b6000604083016000830151613f5c6000860182613770565b5060208301518482036020860152613f7482826137f1565b9150508091505092915050565b60006020820190508181036000830152613f9b8184613f44565b905092915050565b600080600060608486031215613fbc57613fbb6133b9565b5b6000613fca8682870161340c565b935050602084013567ffffffffffffffff811115613feb57613fea6133be565b5b613ff786828701613539565b925050604084013567ffffffffffffffff811115614018576140176133be565b5b61402486828701613539565b9150509250925092565b600082825260208201905092915050565b600061404a826137ab565b614054818561402e565b93506140648185602086016137c7565b61406d8161342b565b840191505092915050565b600082825260208201905092915050565b6000614094826139ff565b61409e8185614078565b9350836020820285016140b085613a1b565b8060005b858110156140ec57848403895281516140cd8582613a2b565b94506140d883613a3f565b925060208a019950506001810190506140b4565b50829750879550505050505092915050565b50565b600061410e60008361402e565b9150614119826140fe565b600082019050919050565b600060a0820190506141396000830187613c32565b818103602083015261414b818661403f565b9050818103604083015261415f818561403f565b905081810360608301526141738184614089565b9050818103608083015261418681614101565b905095945050505050565b61419a81613764565b81146141a557600080fd5b50565b6000815190506141b781614191565b92915050565b6000602082840312156141d3576141d26133b9565b5b60006141e1848285016141a8565b91505092915050565b7f4e487b7100000000000000000000000000000000000000000000000000000000600052602260045260246000fd5b6000600282049050600182168061423157607f821691505b602082108103614244576142436141ea565b5b50919050565b60008190508160005260206000209050919050565b60006020601f8301049050919050565b600082821b905092915050565b6000600883026142ac7fffffffffffffffffffffffffffffffffffffffffffffffffffffffffffffffff8261426f565b6142b6868361426f565b95508019841693508086168417925050509392505050565b6000819050919050565b6000819050919050565b60006142fd6142f86142f3846142ce565b6142d8565b6142ce565b9050919050565b6000819050919050565b614317836142e2565b61432b61432382614304565b84845461427c565b825550505050565b600090565b614340614333565b61434b81848461430e565b505050565b5b8181101561436f57614364600082614338565b600181019050614351565b5050565b601f8211156143b4576143858161424a565b61438e8461425f565b8101602085101561439d578190505b6143b16143a98561425f565b830182614350565b50505b505050565b600082821c905092915050565b60006143d7600019846008026143b9565b1980831691505092915050565b60006143f083836143c6565b9150826002028217905092915050565b614409826137ab565b67ffffffffffffffff8111156144225761442161343c565b5b61442c8254614219565b614437828285614373565b600060209050601f83116001811461446a5760008415614458578287015190505b61446285826143e4565b8655506144ca565b601f1984166144788661424a565b60005b828110156144a05784890151825560018201915060208501945060208101905061447b565b868310156144bd57848901516144b9601f8916826143c6565b8355505b6001600288020188555050505b505050505050565b600060208201905081810360008301526144ec8184614089565b905092915050565b6000614507614502846134b7565b61349c565b90508281526020810184848401111561452357614522613426565b5b61452e8482856137c7565b509392505050565b600082601f83011261454b5761454a613421565b5b815161455b8482602086016144f4565b91505092915050565b60006020828403121561457a576145796133b9565b5b600082015167ffffffffffffffff811115614598576145976133be565b5b6145a484828501614536565b91505092915050565b7f7368617265000000000000000000000000000000000000000000000000000000600082015250565b60006145e360058361402e565b91506145ee826145ad565b602082019050919050565b600060a08201905061460e6000830187613c32565b8181036020830152614620818661403f565b905061462f6040830185613c32565b8181036060830152614641818461403f565b90508181036080830152614654816145d6565b905095945050505050565b7f4e487b7100000000000000000000000000000000000000000000000000000000600052603260045260246000fd5b6000815461469b81614219565b6146a5818661402e565b945060018216600081146146c057600181146146d657614709565b60ff198316865281151560200286019350614709565b6146df8561424a565b60005b83811015614701578154818901526001820191506020810190506146e2565b808801955050505b50505092915050565b6000602082019050818103600083015261472c818461468e565b905092915050565b60006040828403121561474a57614749613c5c565b5b614754604061349c565b90506000614764848285016141a8565b600083015250602082015167ffffffffffffffff81111561478857614787613c61565b5b61479484828501614536565b60208301525092915050565b6000602082840312156147b6576147b56133b9565b5b600082015167ffffffffffffffff8111156147d4576147d36133be565b5b6147e084828501614734565b91505092915050565b600081905092915050565b60006147ff826137ab565b61480981856147e9565b93506148198185602086016137c7565b80840191505092915050565b600061483182846147f4565b915081905092915050565b60006148496000836147e9565b9150614854826140fe565b600082019050919050565b600061486a8261483c565b9150819050919050565b6000604082019050818103600083015261488e818561403f565b905081810360208301526148a2818461403f565b90509392505050565b6000815190506148ba81613c66565b92915050565b6000815190506148cf816133f5565b92915050565b600060e082840312156148eb576148ea613c5c565b5b6148f560e061349c565b9050600082015167ffffffffffffffff81111561491557614914613c61565b5b61492184828501614536565b600083015250602082015167ffffffffffffffff81111561494557614944613c61565b5b61495184828501614536565b6020830152506040614965848285016148ab565b6040830152506060614979848285016148c0565b606083015250608082015167ffffffffffffffff81111561499d5761499c613c61565b5b6149a984828501614536565b60808301525060a082015167ffffffffffffffff8111156149cd576149cc613c61565b5b6149d984828501614536565b60a08301525060c082015167ffffffffffffffff8111156149fd576149fc613c61565b5b614a0984828501614536565b60c08301525092915050565b600060408284031215614a2b57614a2a613c5c565b5b614a35604061349c565b90506000614a45848285016141a8565b600083015250602082015167ffffffffffffffff811115614a6957614a68613c61565b5b614a75848285016148d5565b60208301525092915050565b600060208284031215614a9757614a966133b9565b5b600082015167ffffffffffffffff811115614ab557614ab46133be565b5b614ac184828501614a15565b91505092915050565b7f4e487b7100000000000000000000000000000000000000000000000000000000600052601160045260246000fd5b6000614b04826142ce565b91507fffffffffffffffffffffffffffffffffffffffffffffffffffffffffffffffff8203614b3657614b35614aca565b5b600182019050919050565b7f6163746976650000000000000000000000000000000000000000000000000000600082015250565b6000614b776006836147e9565b9150614b8282614b41565b600682019050919050565b6000614b9882614b6a565b9150819050919050565b60006020820190508181036000830152614bbc818461403f565b905092915050565b6000604082019050614bd96000830185613c32565b8181036020830152614beb818461403f565b90509392505050565b600060a082019050614c096000830188613c32565b8181036020830152614c1b818761403f565b90508181036040830152614c2f818661403f565b90508181036060830152614c438185614089565b90508181036080830152614c57818461403f565b90509695505050505050565b600060e0830160008301518482036000860152614c8082826137f1565b91505060208301518482036020860152614c9a82826137f1565b9150506040830151614caf6040860182613834565b506060830151614cc26060860182613843565b5060808301518482036080860152614cda82826137f1565b91505060a083015184820360a0860152614cf482826137f1565b91505060c083015184820360c0860152614d0e82826137f1565b9150508091505092915050565b60006020820190508181036000830152614d358184614c63565b905092915050565b7f75706c6f61640000000000000000000000000000000000000000000000000000600082015250565b6000614d7360068361402e565b9150614d7e82614d3d565b602082019050919050565b600060a082019050614d9e6000830187613c32565b8181036020830152614db0818661403f565b9050614dbf6040830185613c32565b8181036060830152614dd1818461403f565b90508181036080830152614de481614d66565b905095945050505050565b7f2d00000000000000000000000000000000000000000000000000000000000000600082015250565b6000614e2560018361402e565b9150614e3082614def565b602082019050919050565b7f646f776e6c6f6164000000000000000000000000000000000000000000000000600082015250565b6000614e7160088361402e565b9150614e7c82614e3b565b602082019050919050565b600060a082019050614e9c6000830186613c32565b8181036020830152614eae818561403f565b9050614ebd6040830184613c32565b8181036060830152614ece81614e18565b90508181036080830152614ee181614e64565b9050949350505050565b7f757064617465207065726d697373696f6e730000000000000000000000000000600082015250565b6000614f2160128361402e565b9150614f2c82614eeb565b602082019050919050565b600060a082019050614f4c6000830187613c32565b8181036020830152614f5e818661403f565b9050614f6d6040830185613c32565b8181036060830152614f7f818461403f565b90508181036080830152614f9281614f14565b905095945050505050565b6000614fb0614fab84613567565b61349c565b90508083825260208201905060208402830185811115614fd357614fd2613593565b5b835b8181101561501a57805167ffffffffffffffff811115614ff857614ff7613421565b5b8086016150058982614536565b85526020850194505050602081019050614fd5565b5050509392505050565b600082601f83011261503957615038613421565b5b8151615049848260208601614f9d565b91505092915050565b600060208284031215615068576150676133b9565b5b600082015167ffffffffffffffff811115615086576150856133be565b5b61509284828501615024565b91505092915050565b600081546150a881614219565b6150b281866147e9565b945060018216600081146150cd57600181146150e257615115565b60ff1983168652811515820286019350615115565b6150eb8561424a565b60005b8381101561510d578154818901526001820191506020810190506150ee565b838801955050505b50505092915050565b600061512a828461509b565b915081905092915050565b7f64656c6574656400000000000000000000000000000000000000000000000000600082015250565b600061516b60078361402e565b915061517682615135565b602082019050919050565b600060a0820190506151966000830186613c32565b81810360208301526151a8818561403f565b90506151b76040830184613c32565b81810360608301526151c881614e18565b905081810360808301526151db8161515e565b9050949350505050565b600081905092915050565b60008190508160005260206000209050919050565b6000815461521281614219565b61521c81866151e5565b94506001821660008114615237576001811461524c5761527f565b60ff198316865281151582028601935061527f565b615255856151f0565b60005b8381101561527757815481890152600182019150602081019050615258565b838801955050505b50505092915050565b60006152948284615205565b915081905092915050565b60006152aa826142ce565b91506152b5836142ce565b92508282039050818111156152cd576152cc614aca565b5b92915050565b6000815490506152e281614219565b9050919050565b8181036152f75750506153cf565b615300826152d3565b67ffffffffffffffff8111156153195761531861343c565b5b6153238254614219565b61532e828285614373565b6000601f83116001811461535d576000841561534b578287015490505b61535585826143e4565b8655506153c8565b601f19841661536b8761424a565b96506153768661424a565b60005b8281101561539e57848901548255600182019150600185019450602081019050615379565b868310156153bb57848901546153b7601f8916826143c6565b8355505b6001600288020188555050505b5050505050505b565b7f4e487b7100000000000000000000000000000000000000000000000000000000600052603160045260246000fd5b7f72656d6f76656420616363657373000000000000000000000000000000000000600082015250565b6000615436600e8361402e565b915061544182615400565b602082019050919050565b600060a0820190506154616000830186613c32565b8181036020830152615473818561403f565b90506154826040830184613c32565b818103606083015261549381614e18565b905081810360808301526154a681615429565b905094935050505056fea2646970667358221220af070932e8e3742c59eed12c63e04f4884e25f57ce2d9cadd3d5b007a448193f64736f6c6343000813003360806040523480156200001157600080fd5b5060405162002533380380620025338339818101604052810190620000379190620000e9565b80600260006101000a81548173ffffffffffffffffffffffffffffffffffffffff021916908373ffffffffffffffffffffffffffffffffffffffff160217905550506200011b565b600080fd5b600073ffffffffffffffffffffffffffffffffffffffff82169050919050565b6000620000b18262000084565b9050919050565b620000c381620000a4565b8114620000cf57600080fd5b50565b600081519050620000e381620000b8565b92915050565b6000602082840312156200010257620001016200007f565b5b60006200011284828501620000d2565b91505092915050565b612408806200012b6000396000f3fe608060405234801561001057600080fd5b50600436106100a85760003560e01c80637113c4dd116100715780637113c4dd1461019d57806374546fdf146101cd57806384c107ff146101e95780639bccd6ad14610219578063af205f5c14610249578063e8d56b8b14610265576100a8565b8062438ceb146100ad57806338fa8f58146100dd57806347eb6fa71461010d5780634907904b1461013d57806352a9baef1461016d575b600080fd5b6100c760048036038101906100c29190611687565b610281565b6040516100d491906117a7565b60405180910390f35b6100f760048036038101906100f29190611687565b6103d5565b604051610104919061180a565b60405180910390f35b61012760048036038101906101229190611825565b610549565b60405161013491906119ba565b60405180910390f35b61015760048036038101906101529190611687565b610a88565b60405161016491906119eb565b60405180910390f35b61018760048036038101906101829190611a32565b610bf7565b6040516101949190611a9d565b60405180910390f35b6101b760048036038101906101b29190611687565b610cdb565b6040516101c49190611b7a565b60405180910390f35b6101e760048036038101906101e29190611687565b610f7d565b005b61020360048036038101906101fe9190611d12565b61103a565b6040516102109190611a9d565b60405180910390f35b610233600480360381019061022e9190611687565b61115f565b6040516102409190611a9d565b60405180910390f35b610263600480360381019061025e9190611d12565b611203565b005b61027f600480360381019061027a9190611d5b565b6113c7565b005b61028961149c565b600360009054906101000a900473ffffffffffffffffffffffffffffffffffffffff1673ffffffffffffffffffffffffffffffffffffffff163373ffffffffffffffffffffffffffffffffffffffff16036103a65760405180604001604052806001151581526020016000846040516103029190611dc4565b9081526020016040518091039020600601805461031e90611e0a565b80601f016020809104026020016040519081016040528092919081815260200182805461034a90611e0a565b80156103975780601f1061036c57610100808354040283529160200191610397565b820191906000526020600020905b81548152906001019060200180831161037a57829003601f168201915b505050505081525090506103d0565b60405180604001604052806000151581526020016040518060200160405280600081525081525090505b919050565b600080600090505b60018054905081101561053e57826040516020016103fb9190611dc4565b6040516020818303038152906040528051906020012060006001838154811061042757610426611e3b565b5b9060005260206000200160405161043e9190611f02565b908152602001604051809103902060010160405160200161045f9190611f02565b604051602081830303815290604052805190602001201480156104bf57506000806001838154811061049457610493611e3b565b5b906000526020600020016040516104ab9190611f02565b908152602001604051809103902060020154145b1561052b576000600182815481106104da576104d9611e3b565b5b906000526020600020016040516104f19190611f02565b908152602001604051809103902060030160009054906101000a900473ffffffffffffffffffffffffffffffffffffffff16915050610544565b808061053690611f52565b9150506103dd565b50600090505b919050565b6105516114b8565b600080846040516105629190611dc4565b9081526020016040518091039020600101805461057e90611e0a565b905011801561064c5750816040516020016105999190611dc4565b604051602081830303815290604052805190602001206000846040516105bf9190611dc4565b90815260200160405180910390206006016040516020016105e09190611f02565b60405160208183030381529060405280519060200120148061064b575060405160200161060c90611fc0565b60405160208183030381529060405280519060200120826040516020016106339190611dc4565b60405160208183030381529060405280519060200120145b5b156109d25760405180604001604052806001151581526020016000856040516106759190611dc4565b90815260200160405180910390206040518060e001604052908160008201805461069e90611e0a565b80601f01602080910402602001604051908101604052809291908181526020018280546106ca90611e0a565b80156107175780601f106106ec57610100808354040283529160200191610717565b820191906000526020600020905b8154815290600101906020018083116106fa57829003601f168201915b5050505050815260200160018201805461073090611e0a565b80601f016020809104026020016040519081016040528092919081815260200182805461075c90611e0a565b80156107a95780601f1061077e576101008083540402835291602001916107a9565b820191906000526020600020905b81548152906001019060200180831161078c57829003601f168201915b50505050508152602001600282015481526020016003820160009054906101000a900473ffffffffffffffffffffffffffffffffffffffff1673ffffffffffffffffffffffffffffffffffffffff1673ffffffffffffffffffffffffffffffffffffffff16815260200160048201805461082290611e0a565b80601f016020809104026020016040519081016040528092919081815260200182805461084e90611e0a565b801561089b5780601f106108705761010080835404028352916020019161089b565b820191906000526020600020905b81548152906001019060200180831161087e57829003601f168201915b505050505081526020016005820180546108b490611e0a565b80601f01602080910402602001604051908101604052809291908181526020018280546108e090611e0a565b801561092d5780601f106109025761010080835404028352916020019161092d565b820191906000526020600020905b81548152906001019060200180831161091057829003601f168201915b5050505050815260200160068201805461094690611e0a565b80601f016020809104026020016040519081016040528092919081815260200182805461097290611e0a565b80156109bf5780601f10610994576101008083540402835291602001916109bf565b820191906000526020600020905b8154815290600101906020018083116109a257829003601f168201915b5050505050815250508152509050610a82565b60405180604001604052806000151581526020016040518060e0016040528060405180602001604052806000815250815260200160405180602001604052806000815250815260200160008152602001600073ffffffffffffffffffffffffffffffffffffffff1681526020016040518060200160405280600081525081526020016040518060200160405280600081525081526020016040518060200160405280600081525081525081525090505b92915050565b6000807fffffffffffffffffffffffffffffffffffffffffffffffffffffffffffffffff905060005b600180549050811015610bed5783604051602001610acf9190611dc4565b60405160208183030381529060405280519060200120600060018381548110610afb57610afa611e3b565b5b90600052602060002001604051610b129190611f02565b9081526020016040518091039020600101604051602001610b339190611f02565b60405160208183030381529060405280519060200120148015610b93575081600060018381548110610b6857610b67611e3b565b5b90600052602060002001604051610b7f9190611f02565b908152602001604051809103902060020154135b15610bda57600060018281548110610bae57610bad611e3b565b5b90600052602060002001604051610bc59190611f02565b90815260200160405180910390206002015491505b8080610be590611f52565b915050610ab1565b5080915050919050565b60008273ffffffffffffffffffffffffffffffffffffffff16600083604051610c209190611dc4565b908152602001604051809103902060030160009054906101000a900473ffffffffffffffffffffffffffffffffffffffff1673ffffffffffffffffffffffffffffffffffffffff16148015610cc25750600360009054906101000a900473ffffffffffffffffffffffffffffffffffffffff1673ffffffffffffffffffffffffffffffffffffffff163373ffffffffffffffffffffffffffffffffffffffff16145b15610cd05760019050610cd5565b600090505b92915050565b6060600060018054905067ffffffffffffffff811115610cfe57610cfd61155c565b5b604051908082528060200260200182016040528015610d3157816020015b6060815260200190600190039081610d1c5790505b5090506000805b600180549050811015610f6f5784604051602001610d569190611dc4565b60405160208183030381529060405280519060200120600060018381548110610d8257610d81611e3b565b5b90600052602060002001604051610d999190611f02565b9081526020016040518091039020600101604051602001610dba9190611f02565b60405160208183030381529060405280519060200120148015610e635750604051602001610de790612021565b60405160208183030381529060405280519060200120600060018381548110610e1357610e12611e3b565b5b90600052602060002001604051610e2a9190611f02565b9081526020016040518091039020600601604051602001610e4b9190611f02565b60405160208183030381529060405280519060200120145b15610f5c57600060018281548110610e7e57610e7d611e3b565b5b90600052602060002001604051610e959190611f02565b90815260200160405180910390206000018054610eb190611e0a565b80601f0160208091040260200160405190810160405280929190818152602001828054610edd90611e0a565b8015610f2a5780601f10610eff57610100808354040283529160200191610f2a565b820191906000526020600020905b815481529060010190602001808311610f0d57829003601f168201915b5050505050838381518110610f4257610f41611e3b565b5b60200260200101819052508180610f5890611f52565b9250505b8080610f6790611f52565b915050610d38565b508082528192505050919050565b600360009054906101000a900473ffffffffffffffffffffffffffffffffffffffff1673ffffffffffffffffffffffffffffffffffffffff163373ffffffffffffffffffffffffffffffffffffffff1603611037576040518060400160405280600881526020017f64656163746976650000000000000000000000000000000000000000000000008152506000826040516110189190611dc4565b9081526020016040518091039020600601908161103591906121cd565b505b50565b6000611049826000015161115f565b1580156110ee5750600260009054906101000a900473ffffffffffffffffffffffffffffffffffffffff1673ffffffffffffffffffffffffffffffffffffffff166312a8d91c836040518263ffffffff1660e01b81526004016110ac9190612357565b602060405180830381865afa1580156110c9573d6000803e3d6000fd5b505050506040513d601f19601f820116820180604052508101906110ed91906123a5565b5b80156111475750600360009054906101000a900473ffffffffffffffffffffffffffffffffffffffff1673ffffffffffffffffffffffffffffffffffffffff163373ffffffffffffffffffffffffffffffffffffffff16145b15611155576001905061115a565b600090505b919050565b6000806000836040516111729190611dc4565b9081526020016040518091039020600001805461118e90611e0a565b9050141580156111eb5750600360009054906101000a900473ffffffffffffffffffffffffffffffffffffffff1673ffffffffffffffffffffffffffffffffffffffff163373ffffffffffffffffffffffffffffffffffffffff16145b156111f957600190506111fe565b600090505b919050565b600360009054906101000a900473ffffffffffffffffffffffffffffffffffffffff1673ffffffffffffffffffffffffffffffffffffffff163373ffffffffffffffffffffffffffffffffffffffff16036113c4576112618161103a565b156113c3576040518060400160405280600681526020017f61637469766500000000000000000000000000000000000000000000000000008152508160c0018190525080600082600001516040516112b99190611dc4565b908152602001604051809103902060008201518160000190816112dc91906121cd565b5060208201518160010190816112f291906121cd565b506040820151816002015560608201518160030160006101000a81548173ffffffffffffffffffffffffffffffffffffffff021916908373ffffffffffffffffffffffffffffffffffffffff160217905550608082015181600401908161135991906121cd565b5060a082015181600501908161136f91906121cd565b5060c082015181600601908161138591906121cd565b50905050600181600001519080600181540180825580915050600190039060005260206000200160009091909190915090816113c191906121cd565b505b5b50565b600073ffffffffffffffffffffffffffffffffffffffff168173ffffffffffffffffffffffffffffffffffffffff16141580156114525750600073ffffffffffffffffffffffffffffffffffffffff16600360009054906101000a900473ffffffffffffffffffffffffffffffffffffffff1673ffffffffffffffffffffffffffffffffffffffff16145b156114995780600360006101000a81548173ffffffffffffffffffffffffffffffffffffffff021916908373ffffffffffffffffffffffffffffffffffffffff1602179055505b50565b6040518060400160405280600015158152602001606081525090565b60405180604001604052806000151581526020016114d46114da565b81525090565b6040518060e00160405280606081526020016060815260200160008152602001600073ffffffffffffffffffffffffffffffffffffffff1681526020016060815260200160608152602001606081525090565b6000604051905090565b600080fd5b600080fd5b600080fd5b600080fd5b6000601f19601f8301169050919050565b7f4e487b7100000000000000000000000000000000000000000000000000000000600052604160045260246000fd5b6115948261154b565b810181811067ffffffffffffffff821117156115b3576115b261155c565b5b80604052505050565b60006115c661152d565b90506115d2828261158b565b919050565b600067ffffffffffffffff8211156115f2576115f161155c565b5b6115fb8261154b565b9050602081019050919050565b82818337600083830152505050565b600061162a611625846115d7565b6115bc565b90508281526020810184848401111561164657611645611546565b5b611651848285611608565b509392505050565b600082601f83011261166e5761166d611541565b5b813561167e848260208601611617565b91505092915050565b60006020828403121561169d5761169c611537565b5b600082013567ffffffffffffffff8111156116bb576116ba61153c565b5b6116c784828501611659565b91505092915050565b60008115159050919050565b6116e5816116d0565b82525050565b600081519050919050565b600082825260208201905092915050565b60005b8381101561172557808201518184015260208101905061170a565b60008484015250505050565b600061173c826116eb565b61174681856116f6565b9350611756818560208601611707565b61175f8161154b565b840191505092915050565b600060408301600083015161178260008601826116dc565b506020830151848203602086015261179a8282611731565b9150508091505092915050565b600060208201905081810360008301526117c1818461176a565b905092915050565b600073ffffffffffffffffffffffffffffffffffffffff82169050919050565b60006117f4826117c9565b9050919050565b611804816117e9565b82525050565b600060208201905061181f60008301846117fb565b92915050565b6000806040838503121561183c5761183b611537565b5b600083013567ffffffffffffffff81111561185a5761185961153c565b5b61186685828601611659565b925050602083013567ffffffffffffffff8111156118875761188661153c565b5b61189385828601611659565b9150509250929050565b6000819050919050565b6118b08161189d565b82525050565b6118bf816117e9565b82525050565b600060e08301600083015184820360008601526118e28282611731565b915050602083015184820360208601526118fc8282611731565b915050604083015161191160408601826118a7565b50606083015161192460608601826118b6565b506080830151848203608086015261193c8282611731565b91505060a083015184820360a08601526119568282611731565b91505060c083015184820360c08601526119708282611731565b9150508091505092915050565b600060408301600083015161199560008601826116dc565b50602083015184820360208601526119ad82826118c5565b9150508091505092915050565b600060208201905081810360008301526119d4818461197d565b905092915050565b6119e58161189d565b82525050565b6000602082019050611a0060008301846119dc565b92915050565b611a0f816117e9565b8114611a1a57600080fd5b50565b600081359050611a2c81611a06565b92915050565b60008060408385031215611a4957611a48611537565b5b6000611a5785828601611a1d565b925050602083013567ffffffffffffffff811115611a7857611a7761153c565b5b611a8485828601611659565b9150509250929050565b611a97816116d0565b82525050565b6000602082019050611ab26000830184611a8e565b92915050565b600081519050919050565b600082825260208201905092915050565b6000819050602082019050919050565b6000611af08383611731565b905092915050565b6000602082019050919050565b6000611b1082611ab8565b611b1a8185611ac3565b935083602082028501611b2c85611ad4565b8060005b85811015611b685784840389528151611b498582611ae4565b9450611b5483611af8565b925060208a01995050600181019050611b30565b50829750879550505050505092915050565b60006020820190508181036000830152611b948184611b05565b905092915050565b600080fd5b600080fd5b611baf8161189d565b8114611bba57600080fd5b50565b600081359050611bcc81611ba6565b92915050565b600060e08284031215611be857611be7611b9c565b5b611bf260e06115bc565b9050600082013567ffffffffffffffff811115611c1257611c11611ba1565b5b611c1e84828501611659565b600083015250602082013567ffffffffffffffff811115611c4257611c41611ba1565b5b611c4e84828501611659565b6020830152506040611c6284828501611bbd565b6040830152506060611c7684828501611a1d565b606083015250608082013567ffffffffffffffff811115611c9a57611c99611ba1565b5b611ca684828501611659565b60808301525060a082013567ffffffffffffffff811115611cca57611cc9611ba1565b5b611cd684828501611659565b60a08301525060c082013567ffffffffffffffff811115611cfa57611cf9611ba1565b5b611d0684828501611659565b60c08301525092915050565b600060208284031215611d2857611d27611537565b5b600082013567ffffffffffffffff811115611d4657611d4561153c565b5b611d5284828501611bd2565b91505092915050565b600060208284031215611d7157611d70611537565b5b6000611d7f84828501611a1d565b91505092915050565b600081905092915050565b6000611d9e826116eb565b611da88185611d88565b9350611db8818560208601611707565b80840191505092915050565b6000611dd08284611d93565b915081905092915050565b7f4e487b7100000000000000000000000000000000000000000000000000000000600052602260045260246000fd5b60006002820490506001821680611e2257607f821691505b602082108103611e3557611e34611ddb565b5b50919050565b7f4e487b7100000000000000000000000000000000000000000000000000000000600052603260045260246000fd5b60008190508160005260206000209050919050565b60008154611e8c81611e0a565b611e968186611d88565b94506001821660008114611eb15760018114611ec657611ef9565b60ff1983168652811515820286019350611ef9565b611ecf85611e6a565b60005b83811015611ef157815481890152600182019150602081019050611ed2565b838801955050505b50505092915050565b6000611f0e8284611e7f565b915081905092915050565b7f4e487b7100000000000000000000000000000000000000000000000000000000600052601160045260246000fd5b6000819050919050565b6000611f5d82611f48565b91507fffffffffffffffffffffffffffffffffffffffffffffffffffffffffffffffff8203611f8f57611f8e611f19565b5b600182019050919050565b50565b6000611faa600083611d88565b9150611fb582611f9a565b600082019050919050565b6000611fcb82611f9d565b9150819050919050565b7f6163746976650000000000000000000000000000000000000000000000000000600082015250565b600061200b600683611d88565b915061201682611fd5565b600682019050919050565b600061202c82611ffe565b9150819050919050565b60006020601f8301049050919050565b600082821b905092915050565b6000600883026120837fffffffffffffffffffffffffffffffffffffffffffffffffffffffffffffffff82612046565b61208d8683612046565b95508019841693508086168417925050509392505050565b6000819050919050565b60006120ca6120c56120c084611f48565b6120a5565b611f48565b9050919050565b6000819050919050565b6120e4836120af565b6120f86120f0826120d1565b848454612053565b825550505050565b600090565b61210d612100565b6121188184846120db565b505050565b5b8181101561213c57612131600082612105565b60018101905061211e565b5050565b601f8211156121815761215281611e6a565b61215b84612036565b8101602085101561216a578190505b61217e61217685612036565b83018261211d565b50505b505050565b600082821c905092915050565b60006121a460001984600802612186565b1980831691505092915050565b60006121bd8383612193565b9150826002028217905092915050565b6121d6826116eb565b67ffffffffffffffff8111156121ef576121ee61155c565b5b6121f98254611e0a565b612204828285612140565b600060209050601f8311600181146122375760008415612225578287015190505b61222f85826121b1565b865550612297565b601f19841661224586611e6a565b60005b8281101561226d57848901518255600182019150602085019450602081019050612248565b8683101561228a5784890151612286601f891682612193565b8355505b6001600288020188555050505b505050505050565b600060e08301600083015184820360008601526122bc8282611731565b915050602083015184820360208601526122d68282611731565b91505060408301516122eb60408601826118a7565b5060608301516122fe60608601826118b6565b50608083015184820360808601526123168282611731565b91505060a083015184820360a08601526123308282611731565b91505060c083015184820360c086015261234a8282611731565b9150508091505092915050565b60006020820190508181036000830152612371818461229f565b905092915050565b612382816116d0565b811461238d57600080fd5b50565b60008151905061239f81612379565b92915050565b6000602082840312156123bb576123ba611537565b5b60006123c984828501612390565b9150509291505056fea2646970667358221220847e6179804eb4b6a7448064ca1e6763177268856e1c55d94f5641896dee79ae64736f6c6343000813003360806040523480156200001157600080fd5b5060405162001a6a38038062001a6a8339818101604052810190620000379190620000e9565b80600360006101000a81548173ffffffffffffffffffffffffffffffffffffffff021916908373ffffffffffffffffffffffffffffffffffffffff160217905550506200011b565b600080fd5b600073ffffffffffffffffffffffffffffffffffffffff82169050919050565b6000620000b18262000084565b9050919050565b620000c381620000a4565b8114620000cf57600080fd5b50565b600081519050620000e381620000b8565b92915050565b6000602082840312156200010257620001016200007f565b5b60006200011284828501620000d2565b91505092915050565b61193f806200012b6000396000f3fe608060405234801561001057600080fd5b50600436106100885760003560e01c8063857cdbb81161005b578063857cdbb814610139578063a240e42614610169578063b0c22a5614610199578063eeb9ab18146101c957610088565b80632b4bce8b1461008d57806367156cf1146100bd5780636f77926b146100ed57806375e9493f1461011d575b600080fd5b6100a760048036038101906100a291906111d7565b6101f9565b6040516100b4919061123b565b60405180910390f35b6100d760048036038101906100d29190611256565b610313565b6040516100e4919061134e565b60405180910390f35b61010760048036038101906101029190611256565b6104c7565b604051610114919061142d565b60405180910390f35b610137600480360381019061013291906111d7565b61088f565b005b610153600480360381019061014e9190611256565b610b1e565b604051610160919061134e565b60405180910390f35b610183600480360381019061017e9190611256565b610cd2565b604051610190919061123b565b60405180910390f35b6101b360048036038101906101ae919061144f565b610d7b565b6040516101c0919061123b565b60405180910390f35b6101e360048036038101906101de919061144f565b610db0565b6040516101f091906114c7565b60405180910390f35b60003373ffffffffffffffffffffffffffffffffffffffff16826000015173ffffffffffffffffffffffffffffffffffffffff16036103095761023f8260000151610cd2565b15801561025657506102548260200151610d7b565b155b80156102fa5750600360009054906101000a900473ffffffffffffffffffffffffffffffffffffffff1673ffffffffffffffffffffffffffffffffffffffff1663e779f450836040518263ffffffff1660e01b81526004016102b89190611553565b602060405180830381865afa1580156102d5573d6000803e3d6000fd5b505050506040513d601f19601f820116820180604052508101906102f991906115a1565b5b15610308576001905061030e565b5b600090505b919050565b61031b610e9b565b600073ffffffffffffffffffffffffffffffffffffffff166000808473ffffffffffffffffffffffffffffffffffffffff1673ffffffffffffffffffffffffffffffffffffffff16815260200190815260200160002060000160009054906101000a900473ffffffffffffffffffffffffffffffffffffffff1673ffffffffffffffffffffffffffffffffffffffff16146104985760405180604001604052806001151581526020016000808573ffffffffffffffffffffffffffffffffffffffff1673ffffffffffffffffffffffffffffffffffffffff1681526020019081526020016000206001018054610410906115fd565b80601f016020809104026020016040519081016040528092919081815260200182805461043c906115fd565b80156104895780601f1061045e57610100808354040283529160200191610489565b820191906000526020600020905b81548152906001019060200180831161046c57829003601f168201915b505050505081525090506104c2565b60405180604001604052806000151581526020016040518060200160405280600081525081525090505b919050565b6104cf610eb7565b3373ffffffffffffffffffffffffffffffffffffffff168273ffffffffffffffffffffffffffffffffffffffff160361080b57600073ffffffffffffffffffffffffffffffffffffffff166000808473ffffffffffffffffffffffffffffffffffffffff1673ffffffffffffffffffffffffffffffffffffffff16815260200190815260200160002060000160009054906101000a900473ffffffffffffffffffffffffffffffffffffffff1673ffffffffffffffffffffffffffffffffffffffff161461080a5760405180604001604052806001151581526020016000808573ffffffffffffffffffffffffffffffffffffffff1673ffffffffffffffffffffffffffffffffffffffff1681526020019081526020016000206040518060800160405290816000820160009054906101000a900473ffffffffffffffffffffffffffffffffffffffff1673ffffffffffffffffffffffffffffffffffffffff1673ffffffffffffffffffffffffffffffffffffffff16815260200160018201805461065a906115fd565b80601f0160208091040260200160405190810160405280929190818152602001828054610686906115fd565b80156106d35780601f106106a8576101008083540402835291602001916106d3565b820191906000526020600020905b8154815290600101906020018083116106b657829003601f168201915b505050505081526020016002820180546106ec906115fd565b80601f0160208091040260200160405190810160405280929190818152602001828054610718906115fd565b80156107655780601f1061073a57610100808354040283529160200191610765565b820191906000526020600020905b81548152906001019060200180831161074857829003601f168201915b5050505050815260200160038201805461077e906115fd565b80601f01602080910402602001604051908101604052809291908181526020018280546107aa906115fd565b80156107f75780601f106107cc576101008083540402835291602001916107f7565b820191906000526020600020905b8154815290600101906020018083116107da57829003601f168201915b505050505081525050815250905061088a565b5b60405180604001604052806000151581526020016040518060800160405280600073ffffffffffffffffffffffffffffffffffffffff1681526020016040518060200160405280600081525081526020016040518060200160405280600081525081526020016040518060200160405280600081525081525081525090505b919050565b3373ffffffffffffffffffffffffffffffffffffffff16816000015173ffffffffffffffffffffffffffffffffffffffff1603610b1b576108cf816101f9565b15610b1a576040518060800160405280826000015173ffffffffffffffffffffffffffffffffffffffff16815260200182602001518152602001826040015181526020018260600151815250600080836000015173ffffffffffffffffffffffffffffffffffffffff1673ffffffffffffffffffffffffffffffffffffffff16815260200190815260200160002060008201518160000160006101000a81548173ffffffffffffffffffffffffffffffffffffffff021916908373ffffffffffffffffffffffffffffffffffffffff16021790555060208201518160010190816109b991906117e4565b5060408201518160020190816109cf91906117e4565b5060608201518160030190816109e591906117e4565b509050506040518060800160405280826000015173ffffffffffffffffffffffffffffffffffffffff1681526020018260200151815260200182604001518152602001826060015181525060018260200151604051610a4491906118f2565b908152602001604051809103902060008201518160000160006101000a81548173ffffffffffffffffffffffffffffffffffffffff021916908373ffffffffffffffffffffffffffffffffffffffff1602179055506020820151816001019081610aae91906117e4565b506040820151816002019081610ac491906117e4565b506060820151816003019081610ada91906117e4565b50905050600160028260200151604051610af491906118f2565b908152602001604051809103902060006101000a81548160ff0219169083151502179055505b5b50565b610b26610e9b565b600073ffffffffffffffffffffffffffffffffffffffff166000808473ffffffffffffffffffffffffffffffffffffffff1673ffffffffffffffffffffffffffffffffffffffff16815260200190815260200160002060000160009054906101000a900473ffffffffffffffffffffffffffffffffffffffff1673ffffffffffffffffffffffffffffffffffffffff1614610ca35760405180604001604052806001151581526020016000808573ffffffffffffffffffffffffffffffffffffffff1673ffffffffffffffffffffffffffffffffffffffff1681526020019081526020016000206002018054610c1b906115fd565b80601f0160208091040260200160405190810160405280929190818152602001828054610c47906115fd565b8015610c945780601f10610c6957610100808354040283529160200191610c94565b820191906000526020600020905b815481529060010190602001808311610c7757829003601f168201915b50505050508152509050610ccd565b60405180604001604052806000151581526020016040518060200160405280600081525081525090505b919050565b60008073ffffffffffffffffffffffffffffffffffffffff166000808473ffffffffffffffffffffffffffffffffffffffff1673ffffffffffffffffffffffffffffffffffffffff16815260200190815260200160002060000160009054906101000a900473ffffffffffffffffffffffffffffffffffffffff1673ffffffffffffffffffffffffffffffffffffffff1614610d715760019050610d76565b600090505b919050565b6000600282604051610d8d91906118f2565b908152602001604051809103902060009054906101000a900460ff169050919050565b610db8610ed9565b6000600183604051610dca91906118f2565b90815260200160405180910390206001018054610de6906115fd565b90501115610e64576040518060400160405280600115158152602001600184604051610e1291906118f2565b908152602001604051809103902060000160009054906101000a900473ffffffffffffffffffffffffffffffffffffffff1673ffffffffffffffffffffffffffffffffffffffff168152509050610e96565b6040518060400160405280600015158152602001600073ffffffffffffffffffffffffffffffffffffffff1681525090505b919050565b6040518060400160405280600015158152602001606081525090565b6040518060400160405280600015158152602001610ed3610f0b565b81525090565b6040518060400160405280600015158152602001600073ffffffffffffffffffffffffffffffffffffffff1681525090565b6040518060800160405280600073ffffffffffffffffffffffffffffffffffffffff1681526020016060815260200160608152602001606081525090565b6000604051905090565b600080fd5b600080fd5b600080fd5b6000601f19601f8301169050919050565b7f4e487b7100000000000000000000000000000000000000000000000000000000600052604160045260246000fd5b610fab82610f62565b810181811067ffffffffffffffff82111715610fca57610fc9610f73565b5b80604052505050565b6000610fdd610f49565b9050610fe98282610fa2565b919050565b600080fd5b600073ffffffffffffffffffffffffffffffffffffffff82169050919050565b600061101e82610ff3565b9050919050565b61102e81611013565b811461103957600080fd5b50565b60008135905061104b81611025565b92915050565b600080fd5b600080fd5b600067ffffffffffffffff82111561107657611075610f73565b5b61107f82610f62565b9050602081019050919050565b82818337600083830152505050565b60006110ae6110a98461105b565b610fd3565b9050828152602081018484840111156110ca576110c9611056565b5b6110d584828561108c565b509392505050565b600082601f8301126110f2576110f1611051565b5b813561110284826020860161109b565b91505092915050565b60006080828403121561112157611120610f5d565b5b61112b6080610fd3565b9050600061113b8482850161103c565b600083015250602082013567ffffffffffffffff81111561115f5761115e610fee565b5b61116b848285016110dd565b602083015250604082013567ffffffffffffffff81111561118f5761118e610fee565b5b61119b848285016110dd565b604083015250606082013567ffffffffffffffff8111156111bf576111be610fee565b5b6111cb848285016110dd565b60608301525092915050565b6000602082840312156111ed576111ec610f53565b5b600082013567ffffffffffffffff81111561120b5761120a610f58565b5b6112178482850161110b565b91505092915050565b60008115159050919050565b61123581611220565b82525050565b6000602082019050611250600083018461122c565b92915050565b60006020828403121561126c5761126b610f53565b5b600061127a8482850161103c565b91505092915050565b61128c81611220565b82525050565b600081519050919050565b600082825260208201905092915050565b60005b838110156112cc5780820151818401526020810190506112b1565b60008484015250505050565b60006112e382611292565b6112ed818561129d565b93506112fd8185602086016112ae565b61130681610f62565b840191505092915050565b60006040830160008301516113296000860182611283565b506020830151848203602086015261134182826112d8565b9150508091505092915050565b600060208201905081810360008301526113688184611311565b905092915050565b61137981611013565b82525050565b60006080830160008301516113976000860182611370565b50602083015184820360208601526113af82826112d8565b915050604083015184820360408601526113c982826112d8565b915050606083015184820360608601526113e382826112d8565b9150508091505092915050565b60006040830160008301516114086000860182611283565b5060208301518482036020860152611420828261137f565b9150508091505092915050565b6000602082019050818103600083015261144781846113f0565b905092915050565b60006020828403121561146557611464610f53565b5b600082013567ffffffffffffffff81111561148357611482610f58565b5b61148f848285016110dd565b91505092915050565b6040820160008201516114ae6000850182611283565b5060208201516114c16020850182611370565b50505050565b60006040820190506114dc6000830184611498565b92915050565b60006080830160008301516114fa6000860182611370565b506020830151848203602086015261151282826112d8565b9150506040830151848203604086015261152c82826112d8565b9150506060830151848203606086015261154682826112d8565b9150508091505092915050565b6000602082019050818103600083015261156d81846114e2565b905092915050565b61157e81611220565b811461158957600080fd5b50565b60008151905061159b81611575565b92915050565b6000602082840312156115b7576115b6610f53565b5b60006115c58482850161158c565b91505092915050565b7f4e487b7100000000000000000000000000000000000000000000000000000000600052602260045260246000fd5b6000600282049050600182168061161557607f821691505b602082108103611628576116276115ce565b5b50919050565b60008190508160005260206000209050919050565b60006020601f8301049050919050565b600082821b905092915050565b6000600883026116907fffffffffffffffffffffffffffffffffffffffffffffffffffffffffffffffff82611653565b61169a8683611653565b95508019841693508086168417925050509392505050565b6000819050919050565b6000819050919050565b60006116e16116dc6116d7846116b2565b6116bc565b6116b2565b9050919050565b6000819050919050565b6116fb836116c6565b61170f611707826116e8565b848454611660565b825550505050565b600090565b611724611717565b61172f8184846116f2565b505050565b5b818110156117535761174860008261171c565b600181019050611735565b5050565b601f821115611798576117698161162e565b61177284611643565b81016020851015611781578190505b61179561178d85611643565b830182611734565b50505b505050565b600082821c905092915050565b60006117bb6000198460080261179d565b1980831691505092915050565b60006117d483836117aa565b9150826002028217905092915050565b6117ed82611292565b67ffffffffffffffff81111561180657611805610f73565b5b61181082546115fd565b61181b828285611757565b600060209050601f83116001811461184e576000841561183c578287015190505b61184685826117c8565b8655506118ae565b601f19841661185c8661162e565b60005b828110156118845784890151825560018201915060208501945060208101905061185f565b868310156118a1578489015161189d601f8916826117aa565b8355505b6001600288020188555050505b505050505050565b600081905092915050565b60006118cc82611292565b6118d681856118b6565b93506118e68185602086016112ae565b80840191505092915050565b60006118fe82846118c1565b91508190509291505056fea2646970667358221220c3b3da5b1881e4e46f5b3c598e5a09eca32e6853bbe9af477067d2d0377aaf5f64736f6c63430008130033608060405234801561001057600080fd5b5033600160006101000a81548173ffffffffffffffffffffffffffffffffffffffff021916908373ffffffffffffffffffffffffffffffffffffffff16021790555033600260006101000a81548173ffffffffffffffffffffffffffffffffffffffff021916908373ffffffffffffffffffffffffffffffffffffffff1602179055506113e1806100a26000396000f3fe608060405234801561001057600080fd5b50600436106100365760003560e01c8063759ab1851461003b578063c47ebddc1461006b575b600080fd5b61005560048036038101906100509190610a68565b610087565b6040516100629190610d3b565b60405180910390f35b61008560048036038101906100809190610d89565b6105e7565b005b61008f6107aa565b6000808054905067ffffffffffffffff8111156100af576100ae610852565b5b6040519080825280602002602001820160405280156100e857816020015b6100d56107c6565b8152602001906001900390816100cd5790505b5090506000805b845181101561054457600160009054906101000a900473ffffffffffffffffffffffffffffffffffffffff1673ffffffffffffffffffffffffffffffffffffffff16631ac47dd03387848151811061014a57610149610e58565b5b60200260200101516040518363ffffffff1660e01b815260040161016f929190610ee0565b602060405180830381865afa15801561018c573d6000803e3d6000fd5b505050506040513d601f19601f820116820180604052508101906101b09190610f3c565b156105315760005b60008054905081101561052f578582815181106101d8576101d7610e58565b5b60200260200101516040516020016101f09190610fa5565b604051602081830303815290604052805190602001206000828154811061021a57610219610e58565b5b906000526020600020906006020160000160405160200161023b91906110b4565b604051602081830303815290604052805190602001200361051c576000818154811061026a57610269610e58565b5b90600052602060002090600602016040518060c001604052908160008201805461029390610feb565b80601f01602080910402602001604051908101604052809291908181526020018280546102bf90610feb565b801561030c5780601f106102e15761010080835404028352916020019161030c565b820191906000526020600020905b8154815290600101906020018083116102ef57829003601f168201915b505050505081526020016001820160009054906101000a900473ffffffffffffffffffffffffffffffffffffffff1673ffffffffffffffffffffffffffffffffffffffff1673ffffffffffffffffffffffffffffffffffffffff1681526020016002820154815260200160038201805461038590610feb565b80601f01602080910402602001604051908101604052809291908181526020018280546103b190610feb565b80156103fe5780601f106103d3576101008083540402835291602001916103fe565b820191906000526020600020905b8154815290600101906020018083116103e157829003601f168201915b5050505050815260200160048201805461041790610feb565b80601f016020809104026020016040519081016040528092919081815260200182805461044390610feb565b80156104905780601f1061046557610100808354040283529160200191610490565b820191906000526020600020905b81548152906001019060200180831161047357829003601f168201915b505050505081526020016005820160009054906101000a900473ffffffffffffffffffffffffffffffffffffffff1673ffffffffffffffffffffffffffffffffffffffff1673ffffffffffffffffffffffffffffffffffffffff168152505084848151811061050257610501610e58565b5b60200260200101819052508280610518906110fa565b9350505b8080610527906110fa565b9150506101b8565b505b808061053c906110fa565b9150506100ef565b508082526000811461057157604051806040016040528060011515815260200183815250925050506105e2565b6040518060400160405280600015158152602001600067ffffffffffffffff8111156105a05761059f610852565b5b6040519080825280602002602001820160405280156105d957816020015b6105c66107c6565b8152602001906001900390816105be5790505b50815250925050505b919050565b600260009054906101000a900473ffffffffffffffffffffffffffffffffffffffff1673ffffffffffffffffffffffffffffffffffffffff163373ffffffffffffffffffffffffffffffffffffffff16036107a35760006040518060c001604052808681526020018573ffffffffffffffffffffffffffffffffffffffff1681526020014281526020018381526020018481526020018773ffffffffffffffffffffffffffffffffffffffff168152509050600081908060018154018082558091505060019003906000526020600020906006020160009091909190915060008201518160000190816106da91906112d9565b5060208201518160010160006101000a81548173ffffffffffffffffffffffffffffffffffffffff021916908373ffffffffffffffffffffffffffffffffffffffff16021790555060408201518160020155606082015181600301908161074191906112d9565b50608082015181600401908161075791906112d9565b5060a08201518160050160006101000a81548173ffffffffffffffffffffffffffffffffffffffff021916908373ffffffffffffffffffffffffffffffffffffffff1602179055505050505b5050505050565b6040518060400160405280600015158152602001606081525090565b6040518060c0016040528060608152602001600073ffffffffffffffffffffffffffffffffffffffff168152602001600081526020016060815260200160608152602001600073ffffffffffffffffffffffffffffffffffffffff1681525090565b6000604051905090565b600080fd5b600080fd5b600080fd5b6000601f19601f8301169050919050565b7f4e487b7100000000000000000000000000000000000000000000000000000000600052604160045260246000fd5b61088a82610841565b810181811067ffffffffffffffff821117156108a9576108a8610852565b5b80604052505050565b60006108bc610828565b90506108c88282610881565b919050565b600067ffffffffffffffff8211156108e8576108e7610852565b5b602082029050602081019050919050565b600080fd5b600080fd5b600067ffffffffffffffff82111561091e5761091d610852565b5b61092782610841565b9050602081019050919050565b82818337600083830152505050565b600061095661095184610903565b6108b2565b905082815260208101848484011115610972576109716108fe565b5b61097d848285610934565b509392505050565b600082601f83011261099a5761099961083c565b5b81356109aa848260208601610943565b91505092915050565b60006109c66109c1846108cd565b6108b2565b905080838252602082019050602084028301858111156109e9576109e86108f9565b5b835b81811015610a3057803567ffffffffffffffff811115610a0e57610a0d61083c565b5b808601610a1b8982610985565b855260208501945050506020810190506109eb565b5050509392505050565b600082601f830112610a4f57610a4e61083c565b5b8135610a5f8482602086016109b3565b91505092915050565b600060208284031215610a7e57610a7d610832565b5b600082013567ffffffffffffffff811115610a9c57610a9b610837565b5b610aa884828501610a3a565b91505092915050565b60008115159050919050565b610ac681610ab1565b82525050565b600081519050919050565b600082825260208201905092915050565b6000819050602082019050919050565b600081519050919050565b600082825260208201905092915050565b60005b83811015610b32578082015181840152602081019050610b17565b60008484015250505050565b6000610b4982610af8565b610b538185610b03565b9350610b63818560208601610b14565b610b6c81610841565b840191505092915050565b600073ffffffffffffffffffffffffffffffffffffffff82169050919050565b6000610ba282610b77565b9050919050565b610bb281610b97565b82525050565b6000819050919050565b610bcb81610bb8565b82525050565b600060c0830160008301518482036000860152610bee8282610b3e565b9150506020830151610c036020860182610ba9565b506040830151610c166040860182610bc2565b5060608301518482036060860152610c2e8282610b3e565b91505060808301518482036080860152610c488282610b3e565b91505060a0830151610c5d60a0860182610ba9565b508091505092915050565b6000610c748383610bd1565b905092915050565b6000602082019050919050565b6000610c9482610acc565b610c9e8185610ad7565b935083602082028501610cb085610ae8565b8060005b85811015610cec5784840389528151610ccd8582610c68565b9450610cd883610c7c565b925060208a01995050600181019050610cb4565b50829750879550505050505092915050565b6000604083016000830151610d166000860182610abd565b5060208301518482036020860152610d2e8282610c89565b9150508091505092915050565b60006020820190508181036000830152610d558184610cfe565b905092915050565b610d6681610b97565b8114610d7157600080fd5b50565b600081359050610d8381610d5d565b92915050565b600080600080600060a08688031215610da557610da4610832565b5b6000610db388828901610d74565b955050602086013567ffffffffffffffff811115610dd457610dd3610837565b5b610de088828901610985565b9450506040610df188828901610d74565b935050606086013567ffffffffffffffff811115610e1257610e11610837565b5b610e1e88828901610985565b925050608086013567ffffffffffffffff811115610e3f57610e3e610837565b5b610e4b88828901610985565b9150509295509295909350565b7f4e487b7100000000000000000000000000000000000000000000000000000000600052603260045260246000fd5b610e9081610b97565b82525050565b600082825260208201905092915050565b6000610eb282610af8565b610ebc8185610e96565b9350610ecc818560208601610b14565b610ed581610841565b840191505092915050565b6000604082019050610ef56000830185610e87565b8181036020830152610f078184610ea7565b90509392505050565b610f1981610ab1565b8114610f2457600080fd5b50565b600081519050610f3681610f10565b92915050565b600060208284031215610f5257610f51610832565b5b6000610f6084828501610f27565b91505092915050565b600081905092915050565b6000610f7f82610af8565b610f898185610f69565b9350610f99818560208601610b14565b80840191505092915050565b6000610fb18284610f74565b915081905092915050565b7f4e487b7100000000000000000000000000000000000000000000000000000000600052602260045260246000fd5b6000600282049050600182168061100357607f821691505b60208210810361101657611015610fbc565b5b50919050565b60008190508160005260206000209050919050565b6000815461103e81610feb565b6110488186610f69565b945060018216600081146110635760018114611078576110ab565b60ff19831686528115158202860193506110ab565b6110818561101c565b60005b838110156110a357815481890152600182019150602081019050611084565b838801955050505b50505092915050565b60006110c08284611031565b915081905092915050565b7f4e487b7100000000000000000000000000000000000000000000000000000000600052601160045260246000fd5b600061110582610bb8565b91507fffffffffffffffffffffffffffffffffffffffffffffffffffffffffffffffff8203611137576111366110cb565b5b600182019050919050565b60006020601f8301049050919050565b600082821b905092915050565b60006008830261118f7fffffffffffffffffffffffffffffffffffffffffffffffffffffffffffffffff82611152565b6111998683611152565b95508019841693508086168417925050509392505050565b6000819050919050565b60006111d66111d16111cc84610bb8565b6111b1565b610bb8565b9050919050565b6000819050919050565b6111f0836111bb565b6112046111fc826111dd565b84845461115f565b825550505050565b600090565b61121961120c565b6112248184846111e7565b505050565b5b818110156112485761123d600082611211565b60018101905061122a565b5050565b601f82111561128d5761125e8161101c565b61126784611142565b81016020851015611276578190505b61128a61128285611142565b830182611229565b50505b505050565b600082821c905092915050565b60006112b060001984600802611292565b1980831691505092915050565b60006112c9838361129f565b9150826002028217905092915050565b6112e282610af8565b67ffffffffffffffff8111156112fb576112fa610852565b5b6113058254610feb565b61131082828561124c565b600060209050601f8311600181146113435760008415611331578287015190505b61133b85826112bd565b8655506113a3565b601f1984166113518661101c565b60005b8281101561137957848901518255600182019150602085019450602081019050611354565b868310156113965784890151611392601f89168261129f565b8355505b6001600288020188555050505b50505050505056fea26469706673582212200ca69569d9cd8edd733a83eae9cb24c1448a7ffd53d0b87c586838cfceb9a83b64736f6c63430008130033",
  "linkReferences": {},
  "deployedLinkReferences": {}
}