{
  "_format": "hh-sol-artifact-1",
  "contractName": "AccessControl",
  "sourceName": "contracts/AccessControl.sol",
  "abi": [
    {
      "inputs": [
        {
          "internalType": "address",
          "name": "fileRegisterContract",
          "type": "address"
        }
      ],
      "stateMutability": "nonpayable",
      "type": "constructor"
    },
    {
      "inputs": [
        {
          "internalType": "address",
          "name": "account",
          "type": "address"
        }
      ],
      "name": "getUserFiles",
      "outputs": [
        {
          "components": [
            {
              "internalType": "bool",
              "name": "success",
              "type": "bool"
            },
            {
              "components": [
                {
                  "internalType": "string",
                  "name": "ipfsCID",
                  "type": "string"
                },
                {
                  "internalType": "string",
                  "name": "fileName",
                  "type": "string"
                },
                {
                  "internalType": "address",
                  "name": "owner",
                  "type": "address"
                },
                {
                  "internalType": "string",
                  "name": "fileType",
                  "type": "string"
                },
                {
                  "internalType": "string",
                  "name": "iv",
                  "type": "string"
                }
              ],
              "internalType": "struct FileRegister.File[]",
              "name": "files",
              "type": "tuple[]"
            }
          ],
          "internalType": "struct AccessControl.ResultAction",
          "name": "",
          "type": "tuple"
        }
      ],
      "stateMutability": "view",
      "type": "function"
    },
    {
      "inputs": [
        {
          "components": [
            {
              "internalType": "address",
              "name": "account",
              "type": "address"
            },
            {
              "internalType": "string",
              "name": "userName",
              "type": "string"
            },
            {
              "internalType": "string",
              "name": "publicKey",
              "type": "string"
            },
            {
              "internalType": "string",
              "name": "privateKey",
              "type": "string"
            }
          ],
          "internalType": "struct UserRegister.User",
          "name": "user",
          "type": "tuple"
        },
        {
          "components": [
            {
              "internalType": "string",
              "name": "ipfsCID",
              "type": "string"
            },
            {
              "internalType": "string",
              "name": "fileName",
              "type": "string"
            },
            {
              "internalType": "address",
              "name": "owner",
              "type": "address"
            },
            {
              "internalType": "string",
              "name": "fileType",
              "type": "string"
            },
            {
              "internalType": "string",
              "name": "iv",
              "type": "string"
            }
          ],
          "internalType": "struct FileRegister.File",
          "name": "file",
          "type": "tuple"
        },
        {
          "internalType": "string",
          "name": "encSymmetricKey",
          "type": "string"
        }
      ],
      "name": "uploadFile",
      "outputs": [],
      "stateMutability": "nonpayable",
      "type": "function"
    },
    {
      "inputs": [
        {
          "components": [
            {
              "internalType": "address",
              "name": "account",
              "type": "address"
            },
            {
              "internalType": "string",
              "name": "userName",
              "type": "string"
            },
            {
              "internalType": "string",
              "name": "publicKey",
              "type": "string"
            },
            {
              "internalType": "string",
              "name": "privateKey",
              "type": "string"
            }
          ],
          "internalType": "struct UserRegister.User",
          "name": "user",
          "type": "tuple"
        },
        {
          "components": [
            {
              "internalType": "string",
              "name": "ipfsCID",
              "type": "string"
            },
            {
              "internalType": "string",
              "name": "fileName",
              "type": "string"
            },
            {
              "internalType": "address",
              "name": "owner",
              "type": "address"
            },
            {
              "internalType": "string",
              "name": "fileType",
              "type": "string"
            },
            {
              "internalType": "string",
              "name": "iv",
              "type": "string"
            }
          ],
          "internalType": "struct FileRegister.File",
          "name": "file",
          "type": "tuple"
        }
      ],
      "name": "userAssociatedWithFile",
      "outputs": [
        {
          "internalType": "bool",
          "name": "",
          "type": "bool"
        }
      ],
      "stateMutability": "view",
      "type": "function"
    }
  ],
  "bytecode": "0x60806040523480156200001157600080fd5b50604051620019c5380380620019c58339818101604052810190620000379190620000e9565b80600160006101000a81548173ffffffffffffffffffffffffffffffffffffffff021916908373ffffffffffffffffffffffffffffffffffffffff160217905550506200011b565b600080fd5b600073ffffffffffffffffffffffffffffffffffffffff82169050919050565b6000620000b18262000084565b9050919050565b620000c381620000a4565b8114620000cf57600080fd5b50565b600081519050620000e381620000b8565b92915050565b6000602082840312156200010257620001016200007f565b5b60006200011284828501620000d2565b91505092915050565b61189a806200012b6000396000f3fe608060405234801561001057600080fd5b50600436106100415760003560e01c80631fc3792214610046578063ad4d2bb214610076578063de6b9f7d146100a6575b600080fd5b610060600480360381019061005b919061098b565b6100c2565b60405161006d9190610bfc565b60405180910390f35b610090600480360381019061008b9190610f25565b6103a1565b60405161009d9190610fac565b60405180910390f35b6100c060048036038101906100bb9190610fc7565b6104db565b005b6100ca6107de565b6000808054905067ffffffffffffffff8111156100ea576100e9610c23565b5b60405190808252806020026020018201604052801561012357816020015b6101106107fa565b8152602001906001900390816101085790505b5090506000805b600080549050811015610352578473ffffffffffffffffffffffffffffffffffffffff16600082815481106101625761016161106e565b5b906000526020600020906004020160000160009054906101000a900473ffffffffffffffffffffffffffffffffffffffff1673ffffffffffffffffffffffffffffffffffffffff160361033f5760008082815481106101c4576101c361106e565b5b906000526020600020906004020160010180546101e0906110cc565b80601f016020809104026020016040519081016040528092919081815260200182805461020c906110cc565b80156102595780601f1061022e57610100808354040283529160200191610259565b820191906000526020600020905b81548152906001019060200180831161023c57829003601f168201915b505050505090506000600160009054906101000a900473ffffffffffffffffffffffffffffffffffffffff1673ffffffffffffffffffffffffffffffffffffffff16639f5937f8836040518263ffffffff1660e01b81526004016102bd9190611147565b600060405180830381865afa1580156102da573d6000803e3d6000fd5b505050506040513d6000823e3d601f19601f820116820180604052508101906103039190611382565b9050600081602001519050808686815181106103225761032161106e565b5b6020026020010181905250848061033890611404565b9550505050505b808061034a90611404565b91505061012a565b508082526000811461037f576040518060400160405280600115158152602001838152509250505061039c565b604051806040016040528060001515815260200183815250925050505b919050565b600080600090505b6000805490508110156104cf57836000015173ffffffffffffffffffffffffffffffffffffffff16600082815481106103e5576103e461106e565b5b906000526020600020906004020160000160009054906101000a900473ffffffffffffffffffffffffffffffffffffffff1673ffffffffffffffffffffffffffffffffffffffff161480156104ad5750826000015160405160200161044a9190611488565b60405160208183030381529060405280519060200120600082815481106104745761047361106e565b5b90600052602060002090600402016001016040516020016104959190611537565b60405160208183030381529060405280519060200120145b156104bc5760019150506104d5565b80806104c790611404565b9150506103a9565b50600090505b92915050565b60006104e784846103a1565b905080156104f557506107d9565b6000600367ffffffffffffffff81111561051257610511610c23565b5b60405190808252806020026020018201604052801561054557816020015b60608152602001906001900390816105305790505b5090506040518060400160405280600881526020017f646f776e6c6f6164000000000000000000000000000000000000000000000000815250816000815181106105925761059161106e565b5b60200260200101819052506040518060400160405280600681526020017f64656c6574650000000000000000000000000000000000000000000000000000815250816001815181106105e7576105e661106e565b5b60200260200101819052506040518060400160405280600581526020017f73686172650000000000000000000000000000000000000000000000000000008152508160028151811061063c5761063b61106e565b5b602002602001018190525060006040518060800160405280876000015173ffffffffffffffffffffffffffffffffffffffff16815260200186600001518152602001858152602001838152509050600081908060018154018082558091505060019003906000526020600020906004020160009091909190915060008201518160000160006101000a81548173ffffffffffffffffffffffffffffffffffffffff021916908373ffffffffffffffffffffffffffffffffffffffff160217905550602082015181600101908161071291906116e5565b50604082015181600201908161072891906116e5565b50606082015181600301908051906020019061074592919061083f565b505050600160009054906101000a900473ffffffffffffffffffffffffffffffffffffffff1673ffffffffffffffffffffffffffffffffffffffff16639aa7f418866040518263ffffffff1660e01b81526004016107a39190611842565b600060405180830381600087803b1580156107bd57600080fd5b505af11580156107d1573d6000803e3d6000fd5b505050505050505b505050565b6040518060400160405280600015158152602001606081525090565b6040518060a001604052806060815260200160608152602001600073ffffffffffffffffffffffffffffffffffffffff16815260200160608152602001606081525090565b828054828255906000526020600020908101928215610887579160200282015b8281111561088657825182908161087691906116e5565b509160200191906001019061085f565b5b5090506108949190610898565b5090565b5b808211156108b857600081816108af91906108bc565b50600101610899565b5090565b5080546108c8906110cc565b6000825580601f106108da57506108f9565b601f0160209004906000526020600020908101906108f891906108fc565b5b50565b5b808211156109155760008160009055506001016108fd565b5090565b6000604051905090565b600080fd5b600080fd5b600073ffffffffffffffffffffffffffffffffffffffff82169050919050565b60006109588261092d565b9050919050565b6109688161094d565b811461097357600080fd5b50565b6000813590506109858161095f565b92915050565b6000602082840312156109a1576109a0610923565b5b60006109af84828501610976565b91505092915050565b60008115159050919050565b6109cd816109b8565b82525050565b600081519050919050565b600082825260208201905092915050565b6000819050602082019050919050565b600081519050919050565b600082825260208201905092915050565b60005b83811015610a39578082015181840152602081019050610a1e565b60008484015250505050565b6000601f19601f8301169050919050565b6000610a61826109ff565b610a6b8185610a0a565b9350610a7b818560208601610a1b565b610a8481610a45565b840191505092915050565b610a988161094d565b82525050565b600060a0830160008301518482036000860152610abb8282610a56565b91505060208301518482036020860152610ad58282610a56565b9150506040830151610aea6040860182610a8f565b5060608301518482036060860152610b028282610a56565b91505060808301518482036080860152610b1c8282610a56565b9150508091505092915050565b6000610b358383610a9e565b905092915050565b6000602082019050919050565b6000610b55826109d3565b610b5f81856109de565b935083602082028501610b71856109ef565b8060005b85811015610bad5784840389528151610b8e8582610b29565b9450610b9983610b3d565b925060208a01995050600181019050610b75565b50829750879550505050505092915050565b6000604083016000830151610bd760008601826109c4565b5060208301518482036020860152610bef8282610b4a565b9150508091505092915050565b60006020820190508181036000830152610c168184610bbf565b905092915050565b600080fd5b7f4e487b7100000000000000000000000000000000000000000000000000000000600052604160045260246000fd5b610c5b82610a45565b810181811067ffffffffffffffff82111715610c7a57610c79610c23565b5b80604052505050565b6000610c8d610919565b9050610c998282610c52565b919050565b600080fd5b600080fd5b600080fd5b600067ffffffffffffffff821115610cc857610cc7610c23565b5b610cd182610a45565b9050602081019050919050565b82818337600083830152505050565b6000610d00610cfb84610cad565b610c83565b905082815260208101848484011115610d1c57610d1b610ca8565b5b610d27848285610cde565b509392505050565b600082601f830112610d4457610d43610ca3565b5b8135610d54848260208601610ced565b91505092915050565b600060808284031215610d7357610d72610c1e565b5b610d7d6080610c83565b90506000610d8d84828501610976565b600083015250602082013567ffffffffffffffff811115610db157610db0610c9e565b5b610dbd84828501610d2f565b602083015250604082013567ffffffffffffffff811115610de157610de0610c9e565b5b610ded84828501610d2f565b604083015250606082013567ffffffffffffffff811115610e1157610e10610c9e565b5b610e1d84828501610d2f565b60608301525092915050565b600060a08284031215610e3f57610e3e610c1e565b5b610e4960a0610c83565b9050600082013567ffffffffffffffff811115610e6957610e68610c9e565b5b610e7584828501610d2f565b600083015250602082013567ffffffffffffffff811115610e9957610e98610c9e565b5b610ea584828501610d2f565b6020830152506040610eb984828501610976565b604083015250606082013567ffffffffffffffff811115610edd57610edc610c9e565b5b610ee984828501610d2f565b606083015250608082013567ffffffffffffffff811115610f0d57610f0c610c9e565b5b610f1984828501610d2f565b60808301525092915050565b60008060408385031215610f3c57610f3b610923565b5b600083013567ffffffffffffffff811115610f5a57610f59610928565b5b610f6685828601610d5d565b925050602083013567ffffffffffffffff811115610f8757610f86610928565b5b610f9385828601610e29565b9150509250929050565b610fa6816109b8565b82525050565b6000602082019050610fc16000830184610f9d565b92915050565b600080600060608486031215610fe057610fdf610923565b5b600084013567ffffffffffffffff811115610ffe57610ffd610928565b5b61100a86828701610d5d565b935050602084013567ffffffffffffffff81111561102b5761102a610928565b5b61103786828701610e29565b925050604084013567ffffffffffffffff81111561105857611057610928565b5b61106486828701610d2f565b9150509250925092565b7f4e487b7100000000000000000000000000000000000000000000000000000000600052603260045260246000fd5b7f4e487b7100000000000000000000000000000000000000000000000000000000600052602260045260246000fd5b600060028204905060018216806110e457607f821691505b6020821081036110f7576110f661109d565b5b50919050565b600082825260208201905092915050565b6000611119826109ff565b61112381856110fd565b9350611133818560208601610a1b565b61113c81610a45565b840191505092915050565b60006020820190508181036000830152611161818461110e565b905092915050565b611172816109b8565b811461117d57600080fd5b50565b60008151905061118f81611169565b92915050565b60006111a86111a384610cad565b610c83565b9050828152602081018484840111156111c4576111c3610ca8565b5b6111cf848285610a1b565b509392505050565b600082601f8301126111ec576111eb610ca3565b5b81516111fc848260208601611195565b91505092915050565b6000815190506112148161095f565b92915050565b600060a082840312156112305761122f610c1e565b5b61123a60a0610c83565b9050600082015167ffffffffffffffff81111561125a57611259610c9e565b5b611266848285016111d7565b600083015250602082015167ffffffffffffffff81111561128a57611289610c9e565b5b611296848285016111d7565b60208301525060406112aa84828501611205565b604083015250606082015167ffffffffffffffff8111156112ce576112cd610c9e565b5b6112da848285016111d7565b606083015250608082015167ffffffffffffffff8111156112fe576112fd610c9e565b5b61130a848285016111d7565b60808301525092915050565b60006040828403121561132c5761132b610c1e565b5b6113366040610c83565b9050600061134684828501611180565b600083015250602082015167ffffffffffffffff81111561136a57611369610c9e565b5b6113768482850161121a565b60208301525092915050565b60006020828403121561139857611397610923565b5b600082015167ffffffffffffffff8111156113b6576113b5610928565b5b6113c284828501611316565b91505092915050565b7f4e487b7100000000000000000000000000000000000000000000000000000000600052601160045260246000fd5b6000819050919050565b600061140f826113fa565b91507fffffffffffffffffffffffffffffffffffffffffffffffffffffffffffffffff8203611441576114406113cb565b5b600182019050919050565b600081905092915050565b6000611462826109ff565b61146c818561144c565b935061147c818560208601610a1b565b80840191505092915050565b60006114948284611457565b915081905092915050565b60008190508160005260206000209050919050565b600081546114c1816110cc565b6114cb818661144c565b945060018216600081146114e657600181146114fb5761152e565b60ff198316865281151582028601935061152e565b6115048561149f565b60005b8381101561152657815481890152600182019150602081019050611507565b838801955050505b50505092915050565b600061154382846114b4565b915081905092915050565b60006020601f8301049050919050565b600082821b905092915050565b60006008830261159b7fffffffffffffffffffffffffffffffffffffffffffffffffffffffffffffffff8261155e565b6115a5868361155e565b95508019841693508086168417925050509392505050565b6000819050919050565b60006115e26115dd6115d8846113fa565b6115bd565b6113fa565b9050919050565b6000819050919050565b6115fc836115c7565b611610611608826115e9565b84845461156b565b825550505050565b600090565b611625611618565b6116308184846115f3565b505050565b5b818110156116545761164960008261161d565b600181019050611636565b5050565b601f8211156116995761166a8161149f565b6116738461154e565b81016020851015611682578190505b61169661168e8561154e565b830182611635565b50505b505050565b600082821c905092915050565b60006116bc6000198460080261169e565b1980831691505092915050565b60006116d583836116ab565b9150826002028217905092915050565b6116ee826109ff565b67ffffffffffffffff81111561170757611706610c23565b5b61171182546110cc565b61171c828285611658565b600060209050601f83116001811461174f576000841561173d578287015190505b61174785826116c9565b8655506117af565b601f19841661175d8661149f565b60005b8281101561178557848901518255600182019150602085019450602081019050611760565b868310156117a2578489015161179e601f8916826116ab565b8355505b6001600288020188555050505b505050505050565b600060a08301600083015184820360008601526117d48282610a56565b915050602083015184820360208601526117ee8282610a56565b91505060408301516118036040860182610a8f565b506060830151848203606086015261181b8282610a56565b915050608083015184820360808601526118358282610a56565b9150508091505092915050565b6000602082019050818103600083015261185c81846117b7565b90509291505056fea264697066735822122036469170b8b0e4337c09a48ef1c6e136020aad75470a0e0db457b57f461a367e64736f6c63430008130033",
  "linkReferences": {},
  "deployedLinkReferences": {}
}