{
  "_format": "hh-sol-artifact-1",
  "contractName": "AccessControl",
  "sourceName": "contracts/AccessControl.sol",
  "abi": [
    {
      "inputs": [
        {
          "internalType": "address",
          "name": "helperContract",
          "type": "address"
        }
      ],
      "stateMutability": "nonpayable",
      "type": "constructor"
    },
    {
      "anonymous": false,
      "inputs": [
        {
          "indexed": true,
          "internalType": "address",
          "name": "userAccount",
          "type": "address"
        },
        {
          "indexed": false,
          "internalType": "string",
          "name": "fileIpfsCID",
          "type": "string"
        },
        {
          "indexed": false,
          "internalType": "string",
          "name": "permissionsOwner",
          "type": "string"
        },
        {
          "indexed": false,
          "internalType": "string",
          "name": "action",
          "type": "string"
        }
      ],
      "name": "FileActionLog",
      "type": "event"
    },
    {
      "inputs": [
        {
          "internalType": "address",
          "name": "userAccount",
          "type": "address"
        },
        {
          "internalType": "string",
          "name": "fileIpfsCid",
          "type": "string"
        }
      ],
      "name": "deactivateFile",
      "outputs": [],
      "stateMutability": "nonpayable",
      "type": "function"
    },
    {
      "inputs": [
        {
          "internalType": "string",
          "name": "fileIpfsCid",
          "type": "string"
        },
        {
          "internalType": "address",
          "name": "userAccount",
          "type": "address"
        }
      ],
      "name": "downloadFileAudit",
      "outputs": [],
      "stateMutability": "nonpayable",
      "type": "function"
    },
    {
      "inputs": [
        {
          "internalType": "address",
          "name": "userAccount",
          "type": "address"
        },
        {
          "internalType": "string",
          "name": "fileIpfsCID",
          "type": "string"
        }
      ],
      "name": "elegibleToShare",
      "outputs": [
        {
          "internalType": "bool",
          "name": "",
          "type": "bool"
        }
      ],
      "stateMutability": "view",
      "type": "function"
    },
    {
      "inputs": [
        {
          "internalType": "address",
          "name": "userAccount",
          "type": "address"
        },
        {
          "internalType": "string",
          "name": "fileIpfsCID",
          "type": "string"
        }
      ],
      "name": "elegibleToUpdPermissions",
      "outputs": [
        {
          "internalType": "bool",
          "name": "",
          "type": "bool"
        }
      ],
      "stateMutability": "view",
      "type": "function"
    },
    {
      "inputs": [
        {
          "internalType": "address",
          "name": "userAccount",
          "type": "address"
        },
        {
          "internalType": "string",
          "name": "fileIpfsCID",
          "type": "string"
        }
      ],
      "name": "elegibleToUpload",
      "outputs": [
        {
          "internalType": "bool",
          "name": "",
          "type": "bool"
        }
      ],
      "stateMutability": "view",
      "type": "function"
    },
    {
      "inputs": [],
      "name": "getAuditLogControlAddress",
      "outputs": [
        {
          "internalType": "address",
          "name": "",
          "type": "address"
        }
      ],
      "stateMutability": "view",
      "type": "function"
    },
    {
      "inputs": [
        {
          "internalType": "address",
          "name": "accountUser",
          "type": "address"
        },
        {
          "internalType": "string",
          "name": "fileIpfsCID",
          "type": "string"
        }
      ],
      "name": "getEncSymmetricKeyFileUser",
      "outputs": [
        {
          "components": [
            {
              "internalType": "bool",
              "name": "success",
              "type": "bool"
            },
            {
              "internalType": "string",
              "name": "resultString",
              "type": "string"
            }
          ],
          "internalType": "struct Helper.ResultString",
          "name": "",
          "type": "tuple"
        }
      ],
      "stateMutability": "view",
      "type": "function"
    },
    {
      "inputs": [],
      "name": "getFileRegisterAddress",
      "outputs": [
        {
          "internalType": "address",
          "name": "",
          "type": "address"
        }
      ],
      "stateMutability": "view",
      "type": "function"
    },
    {
      "inputs": [
        {
          "internalType": "address",
          "name": "userAccount",
          "type": "address"
        },
        {
          "internalType": "string",
          "name": "fileIpfsCID",
          "type": "string"
        }
      ],
      "name": "getPermissionsOverFile",
      "outputs": [
        {
          "components": [
            {
              "internalType": "bool",
              "name": "success",
              "type": "bool"
            },
            {
              "internalType": "string[]",
              "name": "resultStrings",
              "type": "string[]"
            }
          ],
          "internalType": "struct Helper.ResultStringArray",
          "name": "",
          "type": "tuple"
        }
      ],
      "stateMutability": "view",
      "type": "function"
    },
    {
      "inputs": [
        {
          "internalType": "address",
          "name": "account",
          "type": "address"
        },
        {
          "internalType": "string",
          "name": "state",
          "type": "string"
        }
      ],
      "name": "getUserFiles",
      "outputs": [
        {
          "components": [
            {
              "internalType": "bool",
              "name": "success",
              "type": "bool"
            },
            {
              "components": [
                {
                  "internalType": "string",
                  "name": "ipfsCID",
                  "type": "string"
                },
                {
                  "internalType": "string",
                  "name": "fileName",
                  "type": "string"
                },
                {
                  "internalType": "int256",
                  "name": "version",
                  "type": "int256"
                },
                {
                  "internalType": "address",
                  "name": "owner",
                  "type": "address"
                },
                {
                  "internalType": "string",
                  "name": "fileType",
                  "type": "string"
                },
                {
                  "internalType": "string",
                  "name": "iv",
                  "type": "string"
                },
                {
                  "internalType": "string",
                  "name": "state",
                  "type": "string"
                },
                {
                  "internalType": "string",
                  "name": "fileHash",
                  "type": "string"
                }
              ],
              "internalType": "struct FileRegister.File[]",
              "name": "files",
              "type": "tuple[]"
            }
          ],
          "internalType": "struct FileRegister.ResultFiles",
          "name": "",
          "type": "tuple"
        }
      ],
      "stateMutability": "view",
      "type": "function"
    },
    {
      "inputs": [],
      "name": "getUserRegisterAddress",
      "outputs": [
        {
          "internalType": "address",
          "name": "",
          "type": "address"
        }
      ],
      "stateMutability": "view",
      "type": "function"
    },
    {
      "inputs": [
        {
          "internalType": "address",
          "name": "accountInput",
          "type": "address"
        },
        {
          "internalType": "address",
          "name": "accountList",
          "type": "address"
        },
        {
          "internalType": "string",
          "name": "ipfsCIDInput",
          "type": "string"
        },
        {
          "internalType": "string",
          "name": "ipfsCIDList",
          "type": "string"
        }
      ],
      "name": "isKeyEqual",
      "outputs": [
        {
          "internalType": "bool",
          "name": "",
          "type": "bool"
        }
      ],
      "stateMutability": "pure",
      "type": "function"
    },
    {
      "inputs": [
        {
          "internalType": "string",
          "name": "fileIpfsCID",
          "type": "string"
        }
      ],
      "name": "messageSenderAssociatedToFile",
      "outputs": [
        {
          "internalType": "bool",
          "name": "",
          "type": "bool"
        }
      ],
      "stateMutability": "view",
      "type": "function"
    },
    {
      "inputs": [
        {
          "internalType": "address",
          "name": "userAccount",
          "type": "address"
        },
        {
          "internalType": "string",
          "name": "fileIpfsCID",
          "type": "string"
        }
      ],
      "name": "removeUserFileAssociation",
      "outputs": [],
      "stateMutability": "nonpayable",
      "type": "function"
    },
    {
      "inputs": [
        {
          "internalType": "address",
          "name": "userAccount",
          "type": "address"
        },
        {
          "internalType": "string",
          "name": "fileIpfsCID",
          "type": "string"
        },
        {
          "internalType": "string",
          "name": "encSymmetricKey",
          "type": "string"
        },
        {
          "internalType": "string[]",
          "name": "permissions",
          "type": "string[]"
        }
      ],
      "name": "shareFile",
      "outputs": [],
      "stateMutability": "nonpayable",
      "type": "function"
    },
    {
      "inputs": [
        {
          "internalType": "address",
          "name": "userAccount",
          "type": "address"
        },
        {
          "internalType": "string",
          "name": "fileIpfsCID",
          "type": "string"
        },
        {
          "internalType": "string[]",
          "name": "permissions",
          "type": "string[]"
        }
      ],
      "name": "updateUserFilePermissions",
      "outputs": [],
      "stateMutability": "nonpayable",
      "type": "function"
    },
    {
      "inputs": [
        {
          "internalType": "address",
          "name": "userAccount",
          "type": "address"
        },
        {
          "components": [
            {
              "internalType": "string",
              "name": "ipfsCID",
              "type": "string"
            },
            {
              "internalType": "string",
              "name": "fileName",
              "type": "string"
            },
            {
              "internalType": "int256",
              "name": "version",
              "type": "int256"
            },
            {
              "internalType": "address",
              "name": "owner",
              "type": "address"
            },
            {
              "internalType": "string",
              "name": "fileType",
              "type": "string"
            },
            {
              "internalType": "string",
              "name": "iv",
              "type": "string"
            },
            {
              "internalType": "string",
              "name": "state",
              "type": "string"
            },
            {
              "internalType": "string",
              "name": "fileHash",
              "type": "string"
            }
          ],
          "internalType": "struct FileRegister.File",
          "name": "file",
          "type": "tuple"
        },
        {
          "internalType": "string",
          "name": "encSymmetricKey",
          "type": "string"
        }
      ],
      "name": "uploadFile",
      "outputs": [],
      "stateMutability": "nonpayable",
      "type": "function"
    },
    {
      "inputs": [
        {
          "internalType": "address",
          "name": "userAccount",
          "type": "address"
        },
        {
          "internalType": "string",
          "name": "fileIpfsCID",
          "type": "string"
        }
      ],
      "name": "userAssociatedWithFile",
      "outputs": [
        {
          "internalType": "bool",
          "name": "",
          "type": "bool"
        }
      ],
      "stateMutability": "view",
      "type": "function"
    },
    {
      "inputs": [
        {
          "internalType": "address",
          "name": "userAccount",
          "type": "address"
        },
        {
          "internalType": "string",
          "name": "fileName",
          "type": "string"
        }
      ],
      "name": "userAssociatedWithFileName",
      "outputs": [
        {
          "internalType": "bool",
          "name": "",
          "type": "bool"
        }
      ],
      "stateMutability": "view",
      "type": "function"
    },
    {
      "inputs": [
        {
          "internalType": "address",
          "name": "userAccount",
          "type": "address"
        },
        {
          "internalType": "string",
          "name": "fileIpfsCID",
          "type": "string"
        },
        {
          "internalType": "string",
          "name": "permission",
          "type": "string"
        }
      ],
      "name": "userHasPermissionOverFile",
      "outputs": [
        {
          "internalType": "bool",
          "name": "",
          "type": "bool"
        }
      ],
      "stateMutability": "view",
      "type": "function"
    },
    {
      "inputs": [
        {
          "internalType": "address",
          "name": "userAccount",
          "type": "address"
        },
        {
          "internalType": "string",
          "name": "fileHash",
          "type": "string"
        }
      ],
      "name": "verifyValidFile",
      "outputs": [
        {
          "internalType": "bool",
          "name": "",
          "type": "bool"
        }
      ],
      "stateMutability": "view",
      "type": "function"
    }
  ],
  "bytecode": "0x60806040523480156200001157600080fd5b506040516200b37f3803806200b37f83398181016040528101906200003791906200028c565b80600460006101000a81548173ffffffffffffffffffffffffffffffffffffffff021916908373ffffffffffffffffffffffffffffffffffffffff160217905550806040516200008790620001f8565b620000939190620002cf565b604051809103906000f080158015620000b0573d6000803e3d6000fd5b50600160006101000a81548173ffffffffffffffffffffffffffffffffffffffff021916908373ffffffffffffffffffffffffffffffffffffffff16021790555080604051620001009062000206565b6200010c9190620002cf565b604051809103906000f08015801562000129573d6000803e3d6000fd5b50600260006101000a81548173ffffffffffffffffffffffffffffffffffffffff021916908373ffffffffffffffffffffffffffffffffffffffff160217905550604051620001789062000214565b604051809103906000f08015801562000195573d6000803e3d6000fd5b50600360006101000a81548173ffffffffffffffffffffffffffffffffffffffff021916908373ffffffffffffffffffffffffffffffffffffffff1602179055506000600460146101000a81548160ff02191690831515021790555050620002ec565b6127f18062005ac783390190565b611c4480620082b883390190565b6114838062009efc83390190565b600080fd5b600073ffffffffffffffffffffffffffffffffffffffff82169050919050565b6000620002548262000227565b9050919050565b620002668162000247565b81146200027257600080fd5b50565b60008151905062000286816200025b565b92915050565b600060208284031215620002a557620002a462000222565b5b6000620002b58482850162000275565b91505092915050565b620002c98162000247565b82525050565b6000602082019050620002e66000830184620002be565b92915050565b6157cb80620002fc6000396000f3fe608060405234801561001057600080fd5b50600436106101365760003560e01c8063874a22ed116100b8578063b714fb201161007c578063b714fb20146103ab578063c19dcf89146103c9578063c61e6663146103f9578063db54cc8c14610415578063dee63aa114610431578063f8505dd81461046157610136565b8063874a22ed146102e15780638af34fbc146102ff578063a126d94c1461031b578063b58ea3a21461034b578063b6d234df1461037b57610136565b80632321f318116100ff5780632321f31814610217578063299768c8146102475780635c99c71b146102775780635dab19e4146102a757806367cc916b146102c557610136565b8062c5e6141461013b5780630976372714610157578063173cd5581461018757806317b5be0f146101b75780631ac47dd0146101e7575b600080fd5b61015560048036038101906101509190613898565b61047d565b005b610171600480360381019061016c9190613953565b61076e565b60405161017e9190613c43565b60405180910390f35b6101a1600480360381019061019c9190613953565b610c4b565b6040516101ae9190613d64565b60405180910390f35b6101d160048036038101906101cc9190613953565b611004565b6040516101de9190613d95565b60405180910390f35b61020160048036038101906101fc9190613953565b611304565b60405161020e9190613d95565b60405180910390f35b610231600480360381019061022c9190613953565b6114a9565b60405161023e9190613d95565b60405180910390f35b610261600480360381019061025c9190613db0565b6116db565b60405161026e9190613d95565b60405180910390f35b610291600480360381019061028c9190613df9565b611913565b60405161029e9190613d95565b60405180910390f35b6102af6119a5565b6040516102bc9190613ea7565b60405180910390f35b6102df60048036038101906102da9190613ec2565b6119cf565b005b6102e9611bd9565b6040516102f69190613ea7565b60405180910390f35b61031960048036038101906103149190613f1e565b611c03565b005b61033560048036038101906103309190613953565b611eb3565b6040516103429190613fe6565b60405180910390f35b61036560048036038101906103609190613953565b61221e565b6040516103729190613d95565b60405180910390f35b61039560048036038101906103909190614008565b6125ab565b6040516103a29190613d95565b60405180910390f35b6103b361266c565b6040516103c09190613ea7565b60405180910390f35b6103e360048036038101906103de9190613953565b612696565b6040516103f09190613d95565b60405180910390f35b610413600480360381019061040e9190613953565b6128a6565b005b61042f600480360381019061042a9190613953565b612b06565b005b61044b60048036038101906104469190613953565b612e0c565b6040516104589190613d95565b60405180910390f35b61047b6004803603810190610476919061423b565b612f0d565b005b610487848461221e565b15610768576000600460009054906101000a900473ffffffffffffffffffffffffffffffffffffffff1673ffffffffffffffffffffffffffffffffffffffff16631c209e7c868686866040518563ffffffff1660e01b81526004016104ef94939291906143bc565b602060405180830381865afa15801561050c573d6000803e3d6000fd5b505050506040513d601f19601f820116820180604052508101906105309190614455565b9050801561076657600060405180608001604052808773ffffffffffffffffffffffffffffffffffffffff168152602001868152602001858152602001848152509050600081908060018154018082558091505060019003906000526020600020906004020160009091909190915060008201518160000160006101000a81548173ffffffffffffffffffffffffffffffffffffffff021916908373ffffffffffffffffffffffffffffffffffffffff16021790555060208201518160010190816105fb9190614698565b5060408201518160020190816106119190614698565b50606082015181600301908051906020019061062e9291906133f3565b505050600360009054906101000a900473ffffffffffffffffffffffffffffffffffffffff1673ffffffffffffffffffffffffffffffffffffffff1663c47ebddc338789600460009054906101000a900473ffffffffffffffffffffffffffffffffffffffff1673ffffffffffffffffffffffffffffffffffffffff16636bb8d768896040518263ffffffff1660e01b81526004016106cd919061476a565b600060405180830381865afa1580156106ea573d6000803e3d6000fd5b505050506040513d6000823e3d601f19601f8201168201806040525081019061071391906147fc565b6040518563ffffffff1660e01b81526004016107329493929190614891565b600060405180830381600087803b15801561074c57600080fd5b505af1158015610760573d6000803e3d6000fd5b50505050505b505b50505050565b61077661344c565b8273ffffffffffffffffffffffffffffffffffffffff163373ffffffffffffffffffffffffffffffffffffffff1603610bd6576000808054905067ffffffffffffffff8111156107c9576107c8613687565b5b60405190808252806020026020018201604052801561080257816020015b6107ef613468565b8152602001906001900390816107e75790505b5090506000805b600080549050811015610ba6578573ffffffffffffffffffffffffffffffffffffffff1660008281548110610841576108406148f7565b5b906000526020600020906004020160000160009054906101000a900473ffffffffffffffffffffffffffffffffffffffff1673ffffffffffffffffffffffffffffffffffffffff161480156109fc5750600160009054906101000a900473ffffffffffffffffffffffffffffffffffffffff1673ffffffffffffffffffffffffffffffffffffffff1662438ceb600083815481106108e2576108e16148f7565b5b90600052602060002090600402016001016040518263ffffffff1660e01b815260040161090f91906149aa565b600060405180830381865afa15801561092c573d6000803e3d6000fd5b505050506040513d6000823e3d601f19601f820116820180604052508101906109559190614a38565b602001516040516020016109699190614abd565b60405160208183030381529060405280519060200120856040516020016109909190614abd565b6040516020818303038152906040528051906020012014806109fb57506040516020016109bc90614af7565b60405160208183030381529060405280519060200120856040516020016109e39190614abd565b60405160208183030381529060405280519060200120145b5b15610b93576000808281548110610a1657610a156148f7565b5b90600052602060002090600402016001018054610a32906144b1565b80601f0160208091040260200160405190810160405280929190818152602001828054610a5e906144b1565b8015610aab5780601f10610a8057610100808354040283529160200191610aab565b820191906000526020600020905b815481529060010190602001808311610a8e57829003601f168201915b505050505090506000600160009054906101000a900473ffffffffffffffffffffffffffffffffffffffff1673ffffffffffffffffffffffffffffffffffffffff166347eb6fa783896040518363ffffffff1660e01b8152600401610b11929190614b0c565b600060405180830381865afa158015610b2e573d6000803e3d6000fd5b505050506040513d6000823e3d601f19601f82011682018060405250810190610b579190614d4b565b905060008160200151905080868681518110610b7657610b756148f7565b5b60200260200101819052508480610b8c90614dc3565b9550505050505b8080610b9e90614dc3565b915050610809565b5080825260008114610bd35760405180604001604052806001151581526020018381525092505050610c45565b50505b6040518060400160405280600015158152602001600067ffffffffffffffff811115610c0557610c04613687565b5b604051908082528060200260200182016040528015610c3e57816020015b610c2b613468565b815260200190600190039081610c235790505b5081525090505b92915050565b610c536134c3565b610c5c826116db565b8015610d545750604051602001610c7290614e57565b60405160208183030381529060405280519060200120600160009054906101000a900473ffffffffffffffffffffffffffffffffffffffff1673ffffffffffffffffffffffffffffffffffffffff1662438ceb846040518263ffffffff1660e01b8152600401610ce29190614e6c565b600060405180830381865afa158015610cff573d6000803e3d6000fd5b505050506040513d6000823e3d601f19601f82011682018060405250810190610d289190614a38565b60200151604051602001610d3c9190614abd565b60405160208183030381529060405280519060200120145b15610f955760005b600080549050811015610f9357610e678460008381548110610d8157610d806148f7565b5b906000526020600020906004020160000160009054906101000a900473ffffffffffffffffffffffffffffffffffffffff168560008581548110610dc857610dc76148f7565b5b90600052602060002090600402016001018054610de4906144b1565b80601f0160208091040260200160405190810160405280929190818152602001828054610e10906144b1565b8015610e5d5780601f10610e3257610100808354040283529160200191610e5d565b820191906000526020600020905b815481529060010190602001808311610e4057829003601f168201915b5050505050611913565b15610f8057604051806040016040528060011515815260200160008381548110610e9457610e936148f7565b5b9060005260206000209060040201600301805480602002602001604051908101604052809291908181526020016000905b82821015610f71578382906000526020600020018054610ee4906144b1565b80601f0160208091040260200160405190810160405280929190818152602001828054610f10906144b1565b8015610f5d5780601f10610f3257610100808354040283529160200191610f5d565b820191906000526020600020905b815481529060010190602001808311610f4057829003601f168201915b505050505081526020019060010190610ec5565b50505050815250915050610ffe565b8080610f8b90614dc3565b915050610d5c565b505b6040518060400160405280600015158152602001600067ffffffffffffffff811115610fc457610fc3613687565b5b604051908082528060200260200182016040528015610ff757816020015b6060815260200190600190039081610fe25790505b5081525090505b92915050565b600080600090505b6000805490508110156112f8576000600160009054906101000a900473ffffffffffffffffffffffffffffffffffffffff1673ffffffffffffffffffffffffffffffffffffffff1663f880680b6000848154811061106d5761106c6148f7565b5b90600052602060002090600402016001016040518263ffffffff1660e01b815260040161109a91906149aa565b600060405180830381865afa1580156110b7573d6000803e3d6000fd5b505050506040513d6000823e3d601f19601f820116820180604052508101906110e09190614a38565b6020015190506000600160009054906101000a900473ffffffffffffffffffffffffffffffffffffffff1673ffffffffffffffffffffffffffffffffffffffff1662438ceb60008581548110611139576111386148f7565b5b90600052602060002090600402016001016040518263ffffffff1660e01b815260040161116691906149aa565b600060405180830381865afa158015611183573d6000803e3d6000fd5b505050506040513d6000823e3d601f19601f820116820180604052508101906111ac9190614a38565b6020015190508573ffffffffffffffffffffffffffffffffffffffff16600084815481106111dd576111dc6148f7565b5b906000526020600020906004020160000160009054906101000a900473ffffffffffffffffffffffffffffffffffffffff1673ffffffffffffffffffffffffffffffffffffffff1614801561127d57508460405160200161123e9190614abd565b60405160208183030381529060405280519060200120826040516020016112659190614abd565b60405160208183030381529060405280519060200120145b80156112d2575060405160200161129390614e57565b60405160208183030381529060405280519060200120816040516020016112ba9190614abd565b60405160208183030381529060405280519060200120145b156112e357600193505050506112fe565b505080806112f090614dc3565b91505061100c565b50600090505b92915050565b600061130f826116db565b806113675750600360009054906101000a900473ffffffffffffffffffffffffffffffffffffffff1673ffffffffffffffffffffffffffffffffffffffff163373ffffffffffffffffffffffffffffffffffffffff16145b1561149e5760005b60008054905081101561149c5761147a8460008381548110611394576113936148f7565b5b906000526020600020906004020160000160009054906101000a900473ffffffffffffffffffffffffffffffffffffffff1685600085815481106113db576113da6148f7565b5b906000526020600020906004020160010180546113f7906144b1565b80601f0160208091040260200160405190810160405280929190818152602001828054611423906144b1565b80156114705780601f1061144557610100808354040283529160200191611470565b820191906000526020600020905b81548152906001019060200180831161145357829003601f168201915b5050505050611913565b156114895760019150506114a3565b808061149490614dc3565b91505061136f565b505b600090505b92915050565b60008273ffffffffffffffffffffffffffffffffffffffff163373ffffffffffffffffffffffffffffffffffffffff16141580156115825750600160009054906101000a900473ffffffffffffffffffffffffffffffffffffffff1673ffffffffffffffffffffffffffffffffffffffff166352a9baef84846040518363ffffffff1660e01b815260040161153f929190614e8e565b602060405180830381865afa15801561155c573d6000803e3d6000fd5b505050506040513d601f19601f820116820180604052508101906115809190614455565b155b80156115ca57506115c933836040518060400160405280600581526020017f73686172650000000000000000000000000000000000000000000000000000008152506125ab565b5b80156116c257506040516020016115e090614e57565b60405160208183030381529060405280519060200120600160009054906101000a900473ffffffffffffffffffffffffffffffffffffffff1673ffffffffffffffffffffffffffffffffffffffff1662438ceb846040518263ffffffff1660e01b81526004016116509190614e6c565b600060405180830381865afa15801561166d573d6000803e3d6000fd5b505050506040513d6000823e3d601f19601f820116820180604052508101906116969190614a38565b602001516040516020016116aa9190614abd565b60405160208183030381529060405280519060200120145b156116d057600190506116d5565b600090505b92915050565b600080600090505b600080549050811015611908576117ee3360008381548110611708576117076148f7565b5b906000526020600020906004020160000160009054906101000a900473ffffffffffffffffffffffffffffffffffffffff16856000858154811061174f5761174e6148f7565b5b9060005260206000209060040201600101805461176b906144b1565b80601f0160208091040260200160405190810160405280929190818152602001828054611797906144b1565b80156117e45780601f106117b9576101008083540402835291602001916117e4565b820191906000526020600020905b8154815290600101906020018083116117c757829003601f168201915b5050505050611913565b80156118e6575060405160200161180490614e57565b60405160208183030381529060405280519060200120600160009054906101000a900473ffffffffffffffffffffffffffffffffffffffff1673ffffffffffffffffffffffffffffffffffffffff1662438ceb856040518263ffffffff1660e01b81526004016118749190614e6c565b600060405180830381865afa158015611891573d6000803e3d6000fd5b505050506040513d6000823e3d601f19601f820116820180604052508101906118ba9190614a38565b602001516040516020016118ce9190614abd565b60405160208183030381529060405280519060200120145b156118f557600191505061190e565b808061190090614dc3565b9150506116e3565b50600090505b919050565b60008473ffffffffffffffffffffffffffffffffffffffff168473ffffffffffffffffffffffffffffffffffffffff1614801561199b57508260405160200161195c9190614abd565b60405160208183030381529060405280519060200120826040516020016119839190614abd565b60405160208183030381529060405280519060200120145b9050949350505050565b6000600160009054906101000a900473ffffffffffffffffffffffffffffffffffffffff16905090565b8073ffffffffffffffffffffffffffffffffffffffff163373ffffffffffffffffffffffffffffffffffffffff16148015611a465750611a4581836040518060400160405280600881526020017f646f776e6c6f61640000000000000000000000000000000000000000000000008152506125ab565b5b8015611b3e5750604051602001611a5c90614e57565b60405160208183030381529060405280519060200120600160009054906101000a900473ffffffffffffffffffffffffffffffffffffffff1673ffffffffffffffffffffffffffffffffffffffff1662438ceb846040518263ffffffff1660e01b8152600401611acc9190614e6c565b600060405180830381865afa158015611ae9573d6000803e3d6000fd5b505050506040513d6000823e3d601f19601f82011682018060405250810190611b129190614a38565b60200151604051602001611b269190614abd565b60405160208183030381529060405280519060200120145b15611bd557600360009054906101000a900473ffffffffffffffffffffffffffffffffffffffff1673ffffffffffffffffffffffffffffffffffffffff1663c47ebddc3384846040518463ffffffff1660e01b8152600401611ba293929190614f56565b600060405180830381600087803b158015611bbc57600080fd5b505af1158015611bd0573d6000803e3d6000fd5b505050505b5050565b6000600260009054906101000a900473ffffffffffffffffffffffffffffffffffffffff16905090565b611c0d83836114a9565b15611ead5760005b600080549050811015611eab57611d208460008381548110611c3a57611c396148f7565b5b906000526020600020906004020160000160009054906101000a900473ffffffffffffffffffffffffffffffffffffffff168560008581548110611c8157611c806148f7565b5b90600052602060002090600402016001018054611c9d906144b1565b80601f0160208091040260200160405190810160405280929190818152602001828054611cc9906144b1565b8015611d165780601f10611ceb57610100808354040283529160200191611d16565b820191906000526020600020905b815481529060010190602001808311611cf957829003601f168201915b5050505050611913565b15611e98578160008281548110611d3a57611d396148f7565b5b90600052602060002090600402016003019080519060200190611d5e9291906133f3565b50600360009054906101000a900473ffffffffffffffffffffffffffffffffffffffff1673ffffffffffffffffffffffffffffffffffffffff1663c47ebddc338587600460009054906101000a900473ffffffffffffffffffffffffffffffffffffffff1673ffffffffffffffffffffffffffffffffffffffff16636bb8d768886040518263ffffffff1660e01b8152600401611dfb919061476a565b600060405180830381865afa158015611e18573d6000803e3d6000fd5b505050506040513d6000823e3d601f19601f82011682018060405250810190611e4191906147fc565b6040518563ffffffff1660e01b8152600401611e609493929190615006565b600060405180830381600087803b158015611e7a57600080fd5b505af1158015611e8e573d6000803e3d6000fd5b5050505050611eae565b8080611ea390614dc3565b915050611c15565b505b5b505050565b611ebb6134df565b8273ffffffffffffffffffffffffffffffffffffffff163373ffffffffffffffffffffffffffffffffffffffff16148015611efc5750611efb8383611304565b5b8015611ff45750604051602001611f1290614e57565b60405160208183030381529060405280519060200120600160009054906101000a900473ffffffffffffffffffffffffffffffffffffffff1673ffffffffffffffffffffffffffffffffffffffff1662438ceb846040518263ffffffff1660e01b8152600401611f829190614e6c565b600060405180830381865afa158015611f9f573d6000803e3d6000fd5b505050506040513d6000823e3d601f19601f82011682018060405250810190611fc89190614a38565b60200151604051602001611fdc9190614abd565b60405160208183030381529060405280519060200120145b156121ee5760005b6000805490508110156121ec576121078460008381548110612021576120206148f7565b5b906000526020600020906004020160000160009054906101000a900473ffffffffffffffffffffffffffffffffffffffff168560008581548110612068576120676148f7565b5b90600052602060002090600402016001018054612084906144b1565b80601f01602080910402602001604051908101604052809291908181526020018280546120b0906144b1565b80156120fd5780601f106120d2576101008083540402835291602001916120fd565b820191906000526020600020905b8154815290600101906020018083116120e057829003601f168201915b5050505050611913565b156121d957604051806040016040528060011515815260200160008381548110612134576121336148f7565b5b90600052602060002090600402016002018054612150906144b1565b80601f016020809104026020016040519081016040528092919081815260200182805461217c906144b1565b80156121c95780601f1061219e576101008083540402835291602001916121c9565b820191906000526020600020905b8154815290600101906020018083116121ac57829003601f168201915b5050505050815250915050612218565b80806121e490614dc3565b915050611ffc565b505b60405180604001604052806000151581526020016040518060200160405280600081525081525090505b92915050565b60008273ffffffffffffffffffffffffffffffffffffffff163373ffffffffffffffffffffffffffffffffffffffff16141580156122f75750600160009054906101000a900473ffffffffffffffffffffffffffffffffffffffff1673ffffffffffffffffffffffffffffffffffffffff166352a9baef84846040518363ffffffff1660e01b81526004016122b4929190614e8e565b602060405180830381865afa1580156122d1573d6000803e3d6000fd5b505050506040513d601f19601f820116820180604052508101906122f59190614455565b155b801561233f575061233e33836040518060400160405280600581526020017f73686172650000000000000000000000000000000000000000000000000000008152506125ab565b5b801561235257506123508383611304565b155b80156123f65750600160009054906101000a900473ffffffffffffffffffffffffffffffffffffffff1673ffffffffffffffffffffffffffffffffffffffff16639bccd6ad836040518263ffffffff1660e01b81526004016123b49190614e6c565b602060405180830381865afa1580156123d1573d6000803e3d6000fd5b505050506040513d601f19601f820116820180604052508101906123f59190614455565b5b80156124ee575060405160200161240c90614e57565b60405160208183030381529060405280519060200120600160009054906101000a900473ffffffffffffffffffffffffffffffffffffffff1673ffffffffffffffffffffffffffffffffffffffff1662438ceb846040518263ffffffff1660e01b815260040161247c9190614e6c565b600060405180830381865afa158015612499573d6000803e3d6000fd5b505050506040513d6000823e3d601f19601f820116820180604052508101906124c29190614a38565b602001516040516020016124d69190614abd565b60405160208183030381529060405280519060200120145b80156125925750600260009054906101000a900473ffffffffffffffffffffffffffffffffffffffff1673ffffffffffffffffffffffffffffffffffffffff1663a240e426846040518263ffffffff1660e01b81526004016125509190613ea7565b602060405180830381865afa15801561256d573d6000803e3d6000fd5b505050506040513d601f19601f820116820180604052508101906125919190614455565b5b156125a057600190506125a5565b600090505b92915050565b60006001156126605760006125c08585610c4b565b60200151905060005b815181101561265d57836040516020016125e39190614abd565b6040516020818303038152906040528051906020012082828151811061260c5761260b6148f7565b5b60200260200101516040516020016126249190614abd565b604051602081830303815290604052805190602001200361264a57600192505050612665565b808061265590614dc3565b9150506125c9565b50505b600090505b9392505050565b6000600360009054906101000a900473ffffffffffffffffffffffffffffffffffffffff16905090565b600080600160009054906101000a900473ffffffffffffffffffffffffffffffffffffffff1673ffffffffffffffffffffffffffffffffffffffff16637113c4dd846040518263ffffffff1660e01b81526004016126f49190614e6c565b600060405180830381865afa158015612711573d6000803e3d6000fd5b505050506040513d6000823e3d601f19601f8201168201806040525081019061273a9190615121565b905060005b6000805490508110156128995760005b8251811015612885578573ffffffffffffffffffffffffffffffffffffffff1660008381548110612783576127826148f7565b5b906000526020600020906004020160000160009054906101000a900473ffffffffffffffffffffffffffffffffffffffff1673ffffffffffffffffffffffffffffffffffffffff1614801561286157508281815181106127e6576127e56148f7565b5b60200260200101516040516020016127fe9190614abd565b6040516020818303038152906040528051906020012060008381548110612828576128276148f7565b5b906000526020600020906004020160010160405160200161284991906151ed565b60405160208183030381529060405280519060200120145b1561287257600193505050506128a0565b808061287d90614dc3565b91505061274f565b50808061289190614dc3565b91505061273f565b5060009150505b92915050565b6128e633826040518060400160405280600681526020017f64656c65746500000000000000000000000000000000000000000000000000008152506125ab565b80156129de57506040516020016128fc90614e57565b60405160208183030381529060405280519060200120600160009054906101000a900473ffffffffffffffffffffffffffffffffffffffff1673ffffffffffffffffffffffffffffffffffffffff1662438ceb836040518263ffffffff1660e01b815260040161296c9190614e6c565b600060405180830381865afa158015612989573d6000803e3d6000fd5b505050506040513d6000823e3d601f19601f820116820180604052508101906129b29190614a38565b602001516040516020016129c69190614abd565b60405160208183030381529060405280519060200120145b15612b0257600160009054906101000a900473ffffffffffffffffffffffffffffffffffffffff1673ffffffffffffffffffffffffffffffffffffffff166374546fdf826040518263ffffffff1660e01b8152600401612a3e9190614e6c565b600060405180830381600087803b158015612a5857600080fd5b505af1158015612a6c573d6000803e3d6000fd5b50505050600360009054906101000a900473ffffffffffffffffffffffffffffffffffffffff1673ffffffffffffffffffffffffffffffffffffffff1663c47ebddc3383856040518463ffffffff1660e01b8152600401612acf93929190615250565b600060405180830381600087803b158015612ae957600080fd5b505af1158015612afd573d6000803e3d6000fd5b505050505b5050565b60005b600080549050811015612e06578273ffffffffffffffffffffffffffffffffffffffff1660008281548110612b4157612b406148f7565b5b906000526020600020906004020160000160009054906101000a900473ffffffffffffffffffffffffffffffffffffffff1673ffffffffffffffffffffffffffffffffffffffff16148015612bd55750818051906020012060008281548110612bad57612bac6148f7565b5b9060005260206000209060040201600101604051612bcb9190615357565b6040518091039020145b15612df35760006001600080549050612bee919061536e565b81548110612bff57612bfe6148f7565b5b906000526020600020906004020160008281548110612c2157612c206148f7565b5b90600052602060002090600402016000820160009054906101000a900473ffffffffffffffffffffffffffffffffffffffff168160000160006101000a81548173ffffffffffffffffffffffffffffffffffffffff021916908373ffffffffffffffffffffffffffffffffffffffff16021790555060018201816001019081612caa91906153b8565b5060028201816002019081612cbf91906153b8565b506003820181600301908054612cd69291906134fb565b509050506000805480612cec57612ceb6154a0565b5b6001900381819060005260206000209060040201600080820160006101000a81549073ffffffffffffffffffffffffffffffffffffffff0219169055600182016000612d389190613558565b600282016000612d489190613558565b600382016000612d589190613598565b50509055600360009054906101000a900473ffffffffffffffffffffffffffffffffffffffff1673ffffffffffffffffffffffffffffffffffffffff1663c47ebddc3384866040518463ffffffff1660e01b8152600401612dbb9392919061551b565b600060405180830381600087803b158015612dd557600080fd5b505af1158015612de9573d6000803e3d6000fd5b5050505050612e08565b8080612dfe90614dc3565b915050612b09565b505b5050565b60008273ffffffffffffffffffffffffffffffffffffffff163373ffffffffffffffffffffffffffffffffffffffff16148015612e505750612e4e8383611304565b155b8015612ef45750600260009054906101000a900473ffffffffffffffffffffffffffffffffffffffff1673ffffffffffffffffffffffffffffffffffffffff1663a240e426846040518263ffffffff1660e01b8152600401612eb29190613ea7565b602060405180830381865afa158015612ecf573d6000803e3d6000fd5b505050506040513d601f19601f82011682018060405250810190612ef39190614455565b5b15612f025760019050612f07565b600090505b92915050565b612f1b838360000151612e0c565b156133ee576000600367ffffffffffffffff811115612f3d57612f3c613687565b5b604051908082528060200260200182016040528015612f7057816020015b6060815260200190600190039081612f5b5790505b5090506040518060400160405280600581526020017f736861726500000000000000000000000000000000000000000000000000000081525081600081518110612fbd57612fbc6148f7565b5b60200260200101819052506040518060400160405280600881526020017f646f776e6c6f616400000000000000000000000000000000000000000000000081525081600181518110613012576130116148f7565b5b60200260200101819052506040518060400160405280600681526020017f64656c657465000000000000000000000000000000000000000000000000000081525081600281518110613067576130666148f7565b5b60200260200101819052506000600460009054906101000a900473ffffffffffffffffffffffffffffffffffffffff1673ffffffffffffffffffffffffffffffffffffffff16631c209e7c86866000015186868960c001516040518663ffffffff1660e01b81526004016130df95949392919061557f565b602060405180830381865afa1580156130fc573d6000803e3d6000fd5b505050506040513d601f19601f820116820180604052508101906131209190614455565b905080156133eb57600160009054906101000a900473ffffffffffffffffffffffffffffffffffffffff1673ffffffffffffffffffffffffffffffffffffffff1663c7d6585d856040518263ffffffff1660e01b815260040161318391906156c1565b600060405180830381600087803b15801561319d57600080fd5b505af11580156131b1573d6000803e3d6000fd5b50505050600060405180608001604052808773ffffffffffffffffffffffffffffffffffffffff16815260200186600001518152602001858152602001848152509050600081908060018154018082558091505060019003906000526020600020906004020160009091909190915060008201518160000160006101000a81548173ffffffffffffffffffffffffffffffffffffffff021916908373ffffffffffffffffffffffffffffffffffffffff160217905550602082015181600101908161327c9190614698565b5060408201518160020190816132929190614698565b5060608201518160030190805190602001906132af9291906133f3565b505050600360009054906101000a900473ffffffffffffffffffffffffffffffffffffffff1673ffffffffffffffffffffffffffffffffffffffff1663c47ebddc33876000015189600460009054906101000a900473ffffffffffffffffffffffffffffffffffffffff1673ffffffffffffffffffffffffffffffffffffffff16636bb8d768896040518263ffffffff1660e01b8152600401613352919061476a565b600060405180830381865afa15801561336f573d6000803e3d6000fd5b505050506040513d6000823e3d601f19601f8201168201806040525081019061339891906147fc565b6040518563ffffffff1660e01b81526004016133b7949392919061572f565b600060405180830381600087803b1580156133d157600080fd5b505af11580156133e5573d6000803e3d6000fd5b50505050505b50505b505050565b82805482825590600052602060002090810192821561343b579160200282015b8281111561343a57825182908161342a9190614698565b5091602001919060010190613413565b5b50905061344891906135b9565b5090565b6040518060400160405280600015158152602001606081525090565b604051806101000160405280606081526020016060815260200160008152602001600073ffffffffffffffffffffffffffffffffffffffff168152602001606081526020016060815260200160608152602001606081525090565b6040518060400160405280600015158152602001606081525090565b6040518060400160405280600015158152602001606081525090565b8280548282559060005260206000209081019282156135475760005260206000209182015b82811115613546578282908161353691906153b8565b5091600101919060010190613520565b5b50905061355491906135b9565b5090565b508054613564906144b1565b6000825580601f106135765750613595565b601f01602090049060005260206000209081019061359491906135dd565b5b50565b50805460008255906000526020600020908101906135b691906135b9565b50565b5b808211156135d957600081816135d09190613558565b506001016135ba565b5090565b5b808211156135f65760008160009055506001016135de565b5090565b6000604051905090565b600080fd5b600080fd5b600073ffffffffffffffffffffffffffffffffffffffff82169050919050565b60006136398261360e565b9050919050565b6136498161362e565b811461365457600080fd5b50565b60008135905061366681613640565b92915050565b600080fd5b600080fd5b6000601f19601f8301169050919050565b7f4e487b7100000000000000000000000000000000000000000000000000000000600052604160045260246000fd5b6136bf82613676565b810181811067ffffffffffffffff821117156136de576136dd613687565b5b80604052505050565b60006136f16135fa565b90506136fd82826136b6565b919050565b600067ffffffffffffffff82111561371d5761371c613687565b5b61372682613676565b9050602081019050919050565b82818337600083830152505050565b600061375561375084613702565b6136e7565b90508281526020810184848401111561377157613770613671565b5b61377c848285613733565b509392505050565b600082601f8301126137995761379861366c565b5b81356137a9848260208601613742565b91505092915050565b600067ffffffffffffffff8211156137cd576137cc613687565b5b602082029050602081019050919050565b600080fd5b60006137f66137f1846137b2565b6136e7565b90508083825260208201905060208402830185811115613819576138186137de565b5b835b8181101561386057803567ffffffffffffffff81111561383e5761383d61366c565b5b80860161384b8982613784565b8552602085019450505060208101905061381b565b5050509392505050565b600082601f83011261387f5761387e61366c565b5b813561388f8482602086016137e3565b91505092915050565b600080600080608085870312156138b2576138b1613604565b5b60006138c087828801613657565b945050602085013567ffffffffffffffff8111156138e1576138e0613609565b5b6138ed87828801613784565b935050604085013567ffffffffffffffff81111561390e5761390d613609565b5b61391a87828801613784565b925050606085013567ffffffffffffffff81111561393b5761393a613609565b5b6139478782880161386a565b91505092959194509250565b6000806040838503121561396a57613969613604565b5b600061397885828601613657565b925050602083013567ffffffffffffffff81111561399957613998613609565b5b6139a585828601613784565b9150509250929050565b60008115159050919050565b6139c4816139af565b82525050565b600081519050919050565b600082825260208201905092915050565b6000819050602082019050919050565b600081519050919050565b600082825260208201905092915050565b60005b83811015613a30578082015181840152602081019050613a15565b60008484015250505050565b6000613a47826139f6565b613a518185613a01565b9350613a61818560208601613a12565b613a6a81613676565b840191505092915050565b6000819050919050565b613a8881613a75565b82525050565b613a978161362e565b82525050565b6000610100830160008301518482036000860152613abb8282613a3c565b91505060208301518482036020860152613ad58282613a3c565b9150506040830151613aea6040860182613a7f565b506060830151613afd6060860182613a8e565b5060808301518482036080860152613b158282613a3c565b91505060a083015184820360a0860152613b2f8282613a3c565b91505060c083015184820360c0860152613b498282613a3c565b91505060e083015184820360e0860152613b638282613a3c565b9150508091505092915050565b6000613b7c8383613a9d565b905092915050565b6000602082019050919050565b6000613b9c826139ca565b613ba681856139d5565b935083602082028501613bb8856139e6565b8060005b85811015613bf45784840389528151613bd58582613b70565b9450613be083613b84565b925060208a01995050600181019050613bbc565b50829750879550505050505092915050565b6000604083016000830151613c1e60008601826139bb565b5060208301518482036020860152613c368282613b91565b9150508091505092915050565b60006020820190508181036000830152613c5d8184613c06565b905092915050565b600081519050919050565b600082825260208201905092915050565b6000819050602082019050919050565b6000613c9d8383613a3c565b905092915050565b6000602082019050919050565b6000613cbd82613c65565b613cc78185613c70565b935083602082028501613cd985613c81565b8060005b85811015613d155784840389528151613cf68582613c91565b9450613d0183613ca5565b925060208a01995050600181019050613cdd565b50829750879550505050505092915050565b6000604083016000830151613d3f60008601826139bb565b5060208301518482036020860152613d578282613cb2565b9150508091505092915050565b60006020820190508181036000830152613d7e8184613d27565b905092915050565b613d8f816139af565b82525050565b6000602082019050613daa6000830184613d86565b92915050565b600060208284031215613dc657613dc5613604565b5b600082013567ffffffffffffffff811115613de457613de3613609565b5b613df084828501613784565b91505092915050565b60008060008060808587031215613e1357613e12613604565b5b6000613e2187828801613657565b9450506020613e3287828801613657565b935050604085013567ffffffffffffffff811115613e5357613e52613609565b5b613e5f87828801613784565b925050606085013567ffffffffffffffff811115613e8057613e7f613609565b5b613e8c87828801613784565b91505092959194509250565b613ea18161362e565b82525050565b6000602082019050613ebc6000830184613e98565b92915050565b60008060408385031215613ed957613ed8613604565b5b600083013567ffffffffffffffff811115613ef757613ef6613609565b5b613f0385828601613784565b9250506020613f1485828601613657565b9150509250929050565b600080600060608486031215613f3757613f36613604565b5b6000613f4586828701613657565b935050602084013567ffffffffffffffff811115613f6657613f65613609565b5b613f7286828701613784565b925050604084013567ffffffffffffffff811115613f9357613f92613609565b5b613f9f8682870161386a565b9150509250925092565b6000604083016000830151613fc160008601826139bb565b5060208301518482036020860152613fd98282613a3c565b9150508091505092915050565b600060208201905081810360008301526140008184613fa9565b905092915050565b60008060006060848603121561402157614020613604565b5b600061402f86828701613657565b935050602084013567ffffffffffffffff8111156140505761404f613609565b5b61405c86828701613784565b925050604084013567ffffffffffffffff81111561407d5761407c613609565b5b61408986828701613784565b9150509250925092565b600080fd5b600080fd5b6140a681613a75565b81146140b157600080fd5b50565b6000813590506140c38161409d565b92915050565b600061010082840312156140e0576140df614093565b5b6140eb6101006136e7565b9050600082013567ffffffffffffffff81111561410b5761410a614098565b5b61411784828501613784565b600083015250602082013567ffffffffffffffff81111561413b5761413a614098565b5b61414784828501613784565b602083015250604061415b848285016140b4565b604083015250606061416f84828501613657565b606083015250608082013567ffffffffffffffff81111561419357614192614098565b5b61419f84828501613784565b60808301525060a082013567ffffffffffffffff8111156141c3576141c2614098565b5b6141cf84828501613784565b60a08301525060c082013567ffffffffffffffff8111156141f3576141f2614098565b5b6141ff84828501613784565b60c08301525060e082013567ffffffffffffffff81111561422357614222614098565b5b61422f84828501613784565b60e08301525092915050565b60008060006060848603121561425457614253613604565b5b600061426286828701613657565b935050602084013567ffffffffffffffff81111561428357614282613609565b5b61428f868287016140c9565b925050604084013567ffffffffffffffff8111156142b0576142af613609565b5b6142bc86828701613784565b9150509250925092565b600082825260208201905092915050565b60006142e2826139f6565b6142ec81856142c6565b93506142fc818560208601613a12565b61430581613676565b840191505092915050565b600082825260208201905092915050565b600061432c82613c65565b6143368185614310565b93508360208202850161434885613c81565b8060005b8581101561438457848403895281516143658582613c91565b945061437083613ca5565b925060208a0199505060018101905061434c565b50829750879550505050505092915050565b50565b60006143a66000836142c6565b91506143b182614396565b600082019050919050565b600060a0820190506143d16000830187613e98565b81810360208301526143e381866142d7565b905081810360408301526143f781856142d7565b9050818103606083015261440b8184614321565b9050818103608083015261441e81614399565b905095945050505050565b614432816139af565b811461443d57600080fd5b50565b60008151905061444f81614429565b92915050565b60006020828403121561446b5761446a613604565b5b600061447984828501614440565b91505092915050565b7f4e487b7100000000000000000000000000000000000000000000000000000000600052602260045260246000fd5b600060028204905060018216806144c957607f821691505b6020821081036144dc576144db614482565b5b50919050565b60008190508160005260206000209050919050565b60006020601f8301049050919050565b600082821b905092915050565b6000600883026145447fffffffffffffffffffffffffffffffffffffffffffffffffffffffffffffffff82614507565b61454e8683614507565b95508019841693508086168417925050509392505050565b6000819050919050565b6000819050919050565b600061459561459061458b84614566565b614570565b614566565b9050919050565b6000819050919050565b6145af8361457a565b6145c36145bb8261459c565b848454614514565b825550505050565b600090565b6145d86145cb565b6145e38184846145a6565b505050565b5b81811015614607576145fc6000826145d0565b6001810190506145e9565b5050565b601f82111561464c5761461d816144e2565b614626846144f7565b81016020851015614635578190505b614649614641856144f7565b8301826145e8565b50505b505050565b600082821c905092915050565b600061466f60001984600802614651565b1980831691505092915050565b6000614688838361465e565b9150826002028217905092915050565b6146a1826139f6565b67ffffffffffffffff8111156146ba576146b9613687565b5b6146c482546144b1565b6146cf82828561460b565b600060209050601f83116001811461470257600084156146f0578287015190505b6146fa858261467c565b865550614762565b601f198416614710866144e2565b60005b8281101561473857848901518255600182019150602085019450602081019050614713565b868310156147555784890151614751601f89168261465e565b8355505b6001600288020188555050505b505050505050565b600060208201905081810360008301526147848184614321565b905092915050565b600061479f61479a84613702565b6136e7565b9050828152602081018484840111156147bb576147ba613671565b5b6147c6848285613a12565b509392505050565b600082601f8301126147e3576147e261366c565b5b81516147f384826020860161478c565b91505092915050565b60006020828403121561481257614811613604565b5b600082015167ffffffffffffffff8111156148305761482f613609565b5b61483c848285016147ce565b91505092915050565b7f7368617265000000000000000000000000000000000000000000000000000000600082015250565b600061487b6005836142c6565b915061488682614845565b602082019050919050565b600060a0820190506148a66000830187613e98565b81810360208301526148b881866142d7565b90506148c76040830185613e98565b81810360608301526148d981846142d7565b905081810360808301526148ec8161486e565b905095945050505050565b7f4e487b7100000000000000000000000000000000000000000000000000000000600052603260045260246000fd5b60008154614933816144b1565b61493d81866142c6565b94506001821660008114614958576001811461496e576149a1565b60ff1983168652811515602002860193506149a1565b614977856144e2565b60005b838110156149995781548189015260018201915060208101905061497a565b808801955050505b50505092915050565b600060208201905081810360008301526149c48184614926565b905092915050565b6000604082840312156149e2576149e1614093565b5b6149ec60406136e7565b905060006149fc84828501614440565b600083015250602082015167ffffffffffffffff811115614a2057614a1f614098565b5b614a2c848285016147ce565b60208301525092915050565b600060208284031215614a4e57614a4d613604565b5b600082015167ffffffffffffffff811115614a6c57614a6b613609565b5b614a78848285016149cc565b91505092915050565b600081905092915050565b6000614a97826139f6565b614aa18185614a81565b9350614ab1818560208601613a12565b80840191505092915050565b6000614ac98284614a8c565b915081905092915050565b6000614ae1600083614a81565b9150614aec82614396565b600082019050919050565b6000614b0282614ad4565b9150819050919050565b60006040820190508181036000830152614b2681856142d7565b90508181036020830152614b3a81846142d7565b90509392505050565b600081519050614b528161409d565b92915050565b600081519050614b6781613640565b92915050565b60006101008284031215614b8457614b83614093565b5b614b8f6101006136e7565b9050600082015167ffffffffffffffff811115614baf57614bae614098565b5b614bbb848285016147ce565b600083015250602082015167ffffffffffffffff811115614bdf57614bde614098565b5b614beb848285016147ce565b6020830152506040614bff84828501614b43565b6040830152506060614c1384828501614b58565b606083015250608082015167ffffffffffffffff811115614c3757614c36614098565b5b614c43848285016147ce565b60808301525060a082015167ffffffffffffffff811115614c6757614c66614098565b5b614c73848285016147ce565b60a08301525060c082015167ffffffffffffffff811115614c9757614c96614098565b5b614ca3848285016147ce565b60c08301525060e082015167ffffffffffffffff811115614cc757614cc6614098565b5b614cd3848285016147ce565b60e08301525092915050565b600060408284031215614cf557614cf4614093565b5b614cff60406136e7565b90506000614d0f84828501614440565b600083015250602082015167ffffffffffffffff811115614d3357614d32614098565b5b614d3f84828501614b6d565b60208301525092915050565b600060208284031215614d6157614d60613604565b5b600082015167ffffffffffffffff811115614d7f57614d7e613609565b5b614d8b84828501614cdf565b91505092915050565b7f4e487b7100000000000000000000000000000000000000000000000000000000600052601160045260246000fd5b6000614dce82614566565b91507fffffffffffffffffffffffffffffffffffffffffffffffffffffffffffffffff8203614e0057614dff614d94565b5b600182019050919050565b7f6163746976650000000000000000000000000000000000000000000000000000600082015250565b6000614e41600683614a81565b9150614e4c82614e0b565b600682019050919050565b6000614e6282614e34565b9150819050919050565b60006020820190508181036000830152614e8681846142d7565b905092915050565b6000604082019050614ea36000830185613e98565b8181036020830152614eb581846142d7565b90509392505050565b7f2d00000000000000000000000000000000000000000000000000000000000000600082015250565b6000614ef46001836142c6565b9150614eff82614ebe565b602082019050919050565b7f646f776e6c6f6164000000000000000000000000000000000000000000000000600082015250565b6000614f406008836142c6565b9150614f4b82614f0a565b602082019050919050565b600060a082019050614f6b6000830186613e98565b8181036020830152614f7d81856142d7565b9050614f8c6040830184613e98565b8181036060830152614f9d81614ee7565b90508181036080830152614fb081614f33565b9050949350505050565b7f757064617465207065726d697373696f6e730000000000000000000000000000600082015250565b6000614ff06012836142c6565b9150614ffb82614fba565b602082019050919050565b600060a08201905061501b6000830187613e98565b818103602083015261502d81866142d7565b905061503c6040830185613e98565b818103606083015261504e81846142d7565b9050818103608083015261506181614fe3565b905095945050505050565b600061507f61507a846137b2565b6136e7565b905080838252602082019050602084028301858111156150a2576150a16137de565b5b835b818110156150e957805167ffffffffffffffff8111156150c7576150c661366c565b5b8086016150d489826147ce565b855260208501945050506020810190506150a4565b5050509392505050565b600082601f8301126151085761510761366c565b5b815161511884826020860161506c565b91505092915050565b60006020828403121561513757615136613604565b5b600082015167ffffffffffffffff81111561515557615154613609565b5b615161848285016150f3565b91505092915050565b60008154615177816144b1565b6151818186614a81565b9450600182166000811461519c57600181146151b1576151e4565b60ff19831686528115158202860193506151e4565b6151ba856144e2565b60005b838110156151dc578154818901526001820191506020810190506151bd565b838801955050505b50505092915050565b60006151f9828461516a565b915081905092915050565b7f64656c6574656400000000000000000000000000000000000000000000000000600082015250565b600061523a6007836142c6565b915061524582615204565b602082019050919050565b600060a0820190506152656000830186613e98565b818103602083015261527781856142d7565b90506152866040830184613e98565b818103606083015261529781614ee7565b905081810360808301526152aa8161522d565b9050949350505050565b600081905092915050565b60008190508160005260206000209050919050565b600081546152e1816144b1565b6152eb81866152b4565b94506001821660008114615306576001811461531b5761534e565b60ff198316865281151582028601935061534e565b615324856152bf565b60005b8381101561534657815481890152600182019150602081019050615327565b838801955050505b50505092915050565b600061536382846152d4565b915081905092915050565b600061537982614566565b915061538483614566565b925082820390508181111561539c5761539b614d94565b5b92915050565b6000815490506153b1816144b1565b9050919050565b8181036153c657505061549e565b6153cf826153a2565b67ffffffffffffffff8111156153e8576153e7613687565b5b6153f282546144b1565b6153fd82828561460b565b6000601f83116001811461542c576000841561541a578287015490505b615424858261467c565b865550615497565b601f19841661543a876144e2565b9650615445866144e2565b60005b8281101561546d57848901548255600182019150600185019450602081019050615448565b8683101561548a5784890154615486601f89168261465e565b8355505b6001600288020188555050505b5050505050505b565b7f4e487b7100000000000000000000000000000000000000000000000000000000600052603160045260246000fd5b7f72656d6f76656420616363657373000000000000000000000000000000000000600082015250565b6000615505600e836142c6565b9150615510826154cf565b602082019050919050565b600060a0820190506155306000830186613e98565b818103602083015261554281856142d7565b90506155516040830184613e98565b818103606083015261556281614ee7565b90508181036080830152615575816154f8565b9050949350505050565b600060a0820190506155946000830188613e98565b81810360208301526155a681876142d7565b905081810360408301526155ba81866142d7565b905081810360608301526155ce8185614321565b905081810360808301526155e281846142d7565b90509695505050505050565b600061010083016000830151848203600086015261560c8282613a3c565b915050602083015184820360208601526156268282613a3c565b915050604083015161563b6040860182613a7f565b50606083015161564e6060860182613a8e565b50608083015184820360808601526156668282613a3c565b91505060a083015184820360a08601526156808282613a3c565b91505060c083015184820360c086015261569a8282613a3c565b91505060e083015184820360e08601526156b48282613a3c565b9150508091505092915050565b600060208201905081810360008301526156db81846155ee565b905092915050565b7f75706c6f61640000000000000000000000000000000000000000000000000000600082015250565b60006157196006836142c6565b9150615724826156e3565b602082019050919050565b600060a0820190506157446000830187613e98565b818103602083015261575681866142d7565b90506157656040830185613e98565b818103606083015261577781846142d7565b9050818103608083015261578a8161570c565b90509594505050505056fea2646970667358221220ce2d07fc4a1b45e978cb599f4c5abf3a6e7b32843ad1c915bab603e5c8a11f2e64736f6c6343000813003360806040523480156200001157600080fd5b50604051620027f1380380620027f18339818101604052810190620000379190620000e9565b80600260006101000a81548173ffffffffffffffffffffffffffffffffffffffff021916908373ffffffffffffffffffffffffffffffffffffffff160217905550506200011b565b600080fd5b600073ffffffffffffffffffffffffffffffffffffffff82169050919050565b6000620000b18262000084565b9050919050565b620000c381620000a4565b8114620000cf57600080fd5b50565b600081519050620000e381620000b8565b92915050565b6000602082840312156200010257620001016200007f565b5b60006200011284828501620000d2565b91505092915050565b6126c6806200012b6000396000f3fe608060405234801561001057600080fd5b50600436106100b35760003560e01c806374546fdf1161007157806374546fdf146101d85780639bccd6ad146101f45780639ed0f66614610224578063c7d6585d14610254578063e8d56b8b14610270578063f880680b1461028c576100b3565b8062438ceb146100b857806338fa8f58146100e857806347eb6fa7146101185780634907904b1461014857806352a9baef146101785780637113c4dd146101a8575b600080fd5b6100d260048036038101906100cd91906118dd565b6102bc565b6040516100df91906119fd565b60405180910390f35b61010260048036038101906100fd91906118dd565b610410565b60405161010f9190611a60565b60405180910390f35b610132600480360381019061012d9190611a7b565b610584565b60405161013f9190611c2b565b60405180910390f35b610162600480360381019061015d91906118dd565b610b6c565b60405161016f9190611c5c565b60405180910390f35b610192600480360381019061018d9190611ca3565b610cdb565b60405161019f9190611d0e565b60405180910390f35b6101c260048036038101906101bd91906118dd565b610dbf565b6040516101cf9190611deb565b60405180910390f35b6101f260048036038101906101ed91906118dd565b611061565b005b61020e600480360381019061020991906118dd565b61111e565b60405161021b9190611d0e565b60405180910390f35b61023e60048036038101906102399190611fb5565b6111c2565b60405161024b9190611d0e565b60405180910390f35b61026e60048036038101906102699190611fb5565b6112e7565b005b61028a60048036038101906102859190611ffe565b6114c1565b005b6102a660048036038101906102a191906118dd565b611596565b6040516102b391906119fd565b60405180910390f35b6102c46116ea565b600360009054906101000a900473ffffffffffffffffffffffffffffffffffffffff1673ffffffffffffffffffffffffffffffffffffffff163373ffffffffffffffffffffffffffffffffffffffff16036103e157604051806040016040528060011515815260200160008460405161033d9190612067565b90815260200160405180910390206006018054610359906120ad565b80601f0160208091040260200160405190810160405280929190818152602001828054610385906120ad565b80156103d25780601f106103a7576101008083540402835291602001916103d2565b820191906000526020600020905b8154815290600101906020018083116103b557829003601f168201915b5050505050815250905061040b565b60405180604001604052806000151581526020016040518060200160405280600081525081525090505b919050565b600080600090505b60018054905081101561057957826040516020016104369190612067565b60405160208183030381529060405280519060200120600060018381548110610462576104616120de565b5b9060005260206000200160405161047991906121a5565b908152602001604051809103902060010160405160200161049a91906121a5565b604051602081830303815290604052805190602001201480156104fa5750600080600183815481106104cf576104ce6120de565b5b906000526020600020016040516104e691906121a5565b908152602001604051809103902060020154145b1561056657600060018281548110610515576105146120de565b5b9060005260206000200160405161052c91906121a5565b908152602001604051809103902060030160009054906101000a900473ffffffffffffffffffffffffffffffffffffffff1691505061057f565b8080610571906121f5565b915050610418565b50600090505b919050565b61058c611706565b6000808460405161059d9190612067565b908152602001604051809103902060010180546105b9906120ad565b90501180156106875750816040516020016105d49190612067565b604051602081830303815290604052805190602001206000846040516105fa9190612067565b908152602001604051809103902060060160405160200161061b91906121a5565b604051602081830303815290604052805190602001201480610686575060405160200161064790612263565b604051602081830303815290604052805190602001208260405160200161066e9190612067565b60405160208183030381529060405280519060200120145b5b15610aa05760405180604001604052806001151581526020016000856040516106b09190612067565b9081526020016040518091039020604051806101000160405290816000820180546106da906120ad565b80601f0160208091040260200160405190810160405280929190818152602001828054610706906120ad565b80156107535780601f1061072857610100808354040283529160200191610753565b820191906000526020600020905b81548152906001019060200180831161073657829003601f168201915b5050505050815260200160018201805461076c906120ad565b80601f0160208091040260200160405190810160405280929190818152602001828054610798906120ad565b80156107e55780601f106107ba576101008083540402835291602001916107e5565b820191906000526020600020905b8154815290600101906020018083116107c857829003601f168201915b50505050508152602001600282015481526020016003820160009054906101000a900473ffffffffffffffffffffffffffffffffffffffff1673ffffffffffffffffffffffffffffffffffffffff1673ffffffffffffffffffffffffffffffffffffffff16815260200160048201805461085e906120ad565b80601f016020809104026020016040519081016040528092919081815260200182805461088a906120ad565b80156108d75780601f106108ac576101008083540402835291602001916108d7565b820191906000526020600020905b8154815290600101906020018083116108ba57829003601f168201915b505050505081526020016005820180546108f0906120ad565b80601f016020809104026020016040519081016040528092919081815260200182805461091c906120ad565b80156109695780601f1061093e57610100808354040283529160200191610969565b820191906000526020600020905b81548152906001019060200180831161094c57829003601f168201915b50505050508152602001600682018054610982906120ad565b80601f01602080910402602001604051908101604052809291908181526020018280546109ae906120ad565b80156109fb5780601f106109d0576101008083540402835291602001916109fb565b820191906000526020600020905b8154815290600101906020018083116109de57829003601f168201915b50505050508152602001600782018054610a14906120ad565b80601f0160208091040260200160405190810160405280929190818152602001828054610a40906120ad565b8015610a8d5780601f10610a6257610100808354040283529160200191610a8d565b820191906000526020600020905b815481529060010190602001808311610a7057829003601f168201915b5050505050815250508152509050610b66565b604051806040016040528060001515815260200160405180610100016040528060405180602001604052806000815250815260200160405180602001604052806000815250815260200160008152602001600073ffffffffffffffffffffffffffffffffffffffff1681526020016040518060200160405280600081525081526020016040518060200160405280600081525081526020016040518060200160405280600081525081526020016040518060200160405280600081525081525081525090505b92915050565b6000807fffffffffffffffffffffffffffffffffffffffffffffffffffffffffffffffff905060005b600180549050811015610cd15783604051602001610bb39190612067565b60405160208183030381529060405280519060200120600060018381548110610bdf57610bde6120de565b5b90600052602060002001604051610bf691906121a5565b9081526020016040518091039020600101604051602001610c1791906121a5565b60405160208183030381529060405280519060200120148015610c77575081600060018381548110610c4c57610c4b6120de565b5b90600052602060002001604051610c6391906121a5565b908152602001604051809103902060020154135b15610cbe57600060018281548110610c9257610c916120de565b5b90600052602060002001604051610ca991906121a5565b90815260200160405180910390206002015491505b8080610cc9906121f5565b915050610b95565b5080915050919050565b60008273ffffffffffffffffffffffffffffffffffffffff16600083604051610d049190612067565b908152602001604051809103902060030160009054906101000a900473ffffffffffffffffffffffffffffffffffffffff1673ffffffffffffffffffffffffffffffffffffffff16148015610da65750600360009054906101000a900473ffffffffffffffffffffffffffffffffffffffff1673ffffffffffffffffffffffffffffffffffffffff163373ffffffffffffffffffffffffffffffffffffffff16145b15610db45760019050610db9565b600090505b92915050565b6060600060018054905067ffffffffffffffff811115610de257610de16117b2565b5b604051908082528060200260200182016040528015610e1557816020015b6060815260200190600190039081610e005790505b5090506000805b6001805490508110156110535784604051602001610e3a9190612067565b60405160208183030381529060405280519060200120600060018381548110610e6657610e656120de565b5b90600052602060002001604051610e7d91906121a5565b9081526020016040518091039020600101604051602001610e9e91906121a5565b60405160208183030381529060405280519060200120148015610f475750604051602001610ecb906122c4565b60405160208183030381529060405280519060200120600060018381548110610ef757610ef66120de565b5b90600052602060002001604051610f0e91906121a5565b9081526020016040518091039020600601604051602001610f2f91906121a5565b60405160208183030381529060405280519060200120145b1561104057600060018281548110610f6257610f616120de565b5b90600052602060002001604051610f7991906121a5565b90815260200160405180910390206000018054610f95906120ad565b80601f0160208091040260200160405190810160405280929190818152602001828054610fc1906120ad565b801561100e5780601f10610fe35761010080835404028352916020019161100e565b820191906000526020600020905b815481529060010190602001808311610ff157829003601f168201915b5050505050838381518110611026576110256120de565b5b6020026020010181905250818061103c906121f5565b9250505b808061104b906121f5565b915050610e1c565b508082528192505050919050565b600360009054906101000a900473ffffffffffffffffffffffffffffffffffffffff1673ffffffffffffffffffffffffffffffffffffffff163373ffffffffffffffffffffffffffffffffffffffff160361111b576040518060400160405280600881526020017f64656163746976650000000000000000000000000000000000000000000000008152506000826040516110fc9190612067565b908152602001604051809103902060060190816111199190612470565b505b50565b6000806000836040516111319190612067565b9081526020016040518091039020600001805461114d906120ad565b9050141580156111aa5750600360009054906101000a900473ffffffffffffffffffffffffffffffffffffffff1673ffffffffffffffffffffffffffffffffffffffff163373ffffffffffffffffffffffffffffffffffffffff16145b156111b857600190506111bd565b600090505b919050565b60006111d1826000015161111e565b1580156112765750600260009054906101000a900473ffffffffffffffffffffffffffffffffffffffff1673ffffffffffffffffffffffffffffffffffffffff1663488977b8836040518263ffffffff1660e01b81526004016112349190612615565b602060405180830381865afa158015611251573d6000803e3d6000fd5b505050506040513d601f19601f820116820180604052508101906112759190612663565b5b80156112cf5750600360009054906101000a900473ffffffffffffffffffffffffffffffffffffffff1673ffffffffffffffffffffffffffffffffffffffff163373ffffffffffffffffffffffffffffffffffffffff16145b156112dd57600190506112e2565b600090505b919050565b600360009054906101000a900473ffffffffffffffffffffffffffffffffffffffff1673ffffffffffffffffffffffffffffffffffffffff163373ffffffffffffffffffffffffffffffffffffffff16036114be57611345816111c2565b156114bd576040518060400160405280600681526020017f61637469766500000000000000000000000000000000000000000000000000008152508160c00181905250806000826000015160405161139d9190612067565b908152602001604051809103902060008201518160000190816113c09190612470565b5060208201518160010190816113d69190612470565b506040820151816002015560608201518160030160006101000a81548173ffffffffffffffffffffffffffffffffffffffff021916908373ffffffffffffffffffffffffffffffffffffffff160217905550608082015181600401908161143d9190612470565b5060a08201518160050190816114539190612470565b5060c08201518160060190816114699190612470565b5060e082015181600701908161147f9190612470565b50905050600181600001519080600181540180825580915050600190039060005260206000200160009091909190915090816114bb9190612470565b505b5b50565b600073ffffffffffffffffffffffffffffffffffffffff168173ffffffffffffffffffffffffffffffffffffffff161415801561154c5750600073ffffffffffffffffffffffffffffffffffffffff16600360009054906101000a900473ffffffffffffffffffffffffffffffffffffffff1673ffffffffffffffffffffffffffffffffffffffff16145b156115935780600360006101000a81548173ffffffffffffffffffffffffffffffffffffffff021916908373ffffffffffffffffffffffffffffffffffffffff1602179055505b50565b61159e6116ea565b600360009054906101000a900473ffffffffffffffffffffffffffffffffffffffff1673ffffffffffffffffffffffffffffffffffffffff163373ffffffffffffffffffffffffffffffffffffffff16036116bb5760405180604001604052806001151581526020016000846040516116179190612067565b90815260200160405180910390206007018054611633906120ad565b80601f016020809104026020016040519081016040528092919081815260200182805461165f906120ad565b80156116ac5780601f10611681576101008083540402835291602001916116ac565b820191906000526020600020905b81548152906001019060200180831161168f57829003601f168201915b505050505081525090506116e5565b60405180604001604052806000151581526020016040518060200160405280600081525081525090505b919050565b6040518060400160405280600015158152602001606081525090565b6040518060400160405280600015158152602001611722611728565b81525090565b604051806101000160405280606081526020016060815260200160008152602001600073ffffffffffffffffffffffffffffffffffffffff168152602001606081526020016060815260200160608152602001606081525090565b6000604051905090565b600080fd5b600080fd5b600080fd5b600080fd5b6000601f19601f8301169050919050565b7f4e487b7100000000000000000000000000000000000000000000000000000000600052604160045260246000fd5b6117ea826117a1565b810181811067ffffffffffffffff82111715611809576118086117b2565b5b80604052505050565b600061181c611783565b905061182882826117e1565b919050565b600067ffffffffffffffff821115611848576118476117b2565b5b611851826117a1565b9050602081019050919050565b82818337600083830152505050565b600061188061187b8461182d565b611812565b90508281526020810184848401111561189c5761189b61179c565b5b6118a784828561185e565b509392505050565b600082601f8301126118c4576118c3611797565b5b81356118d484826020860161186d565b91505092915050565b6000602082840312156118f3576118f261178d565b5b600082013567ffffffffffffffff81111561191157611910611792565b5b61191d848285016118af565b91505092915050565b60008115159050919050565b61193b81611926565b82525050565b600081519050919050565b600082825260208201905092915050565b60005b8381101561197b578082015181840152602081019050611960565b60008484015250505050565b600061199282611941565b61199c818561194c565b93506119ac81856020860161195d565b6119b5816117a1565b840191505092915050565b60006040830160008301516119d86000860182611932565b50602083015184820360208601526119f08282611987565b9150508091505092915050565b60006020820190508181036000830152611a1781846119c0565b905092915050565b600073ffffffffffffffffffffffffffffffffffffffff82169050919050565b6000611a4a82611a1f565b9050919050565b611a5a81611a3f565b82525050565b6000602082019050611a756000830184611a51565b92915050565b60008060408385031215611a9257611a9161178d565b5b600083013567ffffffffffffffff811115611ab057611aaf611792565b5b611abc858286016118af565b925050602083013567ffffffffffffffff811115611add57611adc611792565b5b611ae9858286016118af565b9150509250929050565b6000819050919050565b611b0681611af3565b82525050565b611b1581611a3f565b82525050565b6000610100830160008301518482036000860152611b398282611987565b91505060208301518482036020860152611b538282611987565b9150506040830151611b686040860182611afd565b506060830151611b7b6060860182611b0c565b5060808301518482036080860152611b938282611987565b91505060a083015184820360a0860152611bad8282611987565b91505060c083015184820360c0860152611bc78282611987565b91505060e083015184820360e0860152611be18282611987565b9150508091505092915050565b6000604083016000830151611c066000860182611932565b5060208301518482036020860152611c1e8282611b1b565b9150508091505092915050565b60006020820190508181036000830152611c458184611bee565b905092915050565b611c5681611af3565b82525050565b6000602082019050611c716000830184611c4d565b92915050565b611c8081611a3f565b8114611c8b57600080fd5b50565b600081359050611c9d81611c77565b92915050565b60008060408385031215611cba57611cb961178d565b5b6000611cc885828601611c8e565b925050602083013567ffffffffffffffff811115611ce957611ce8611792565b5b611cf5858286016118af565b9150509250929050565b611d0881611926565b82525050565b6000602082019050611d236000830184611cff565b92915050565b600081519050919050565b600082825260208201905092915050565b6000819050602082019050919050565b6000611d618383611987565b905092915050565b6000602082019050919050565b6000611d8182611d29565b611d8b8185611d34565b935083602082028501611d9d85611d45565b8060005b85811015611dd95784840389528151611dba8582611d55565b9450611dc583611d69565b925060208a01995050600181019050611da1565b50829750879550505050505092915050565b60006020820190508181036000830152611e058184611d76565b905092915050565b600080fd5b600080fd5b611e2081611af3565b8114611e2b57600080fd5b50565b600081359050611e3d81611e17565b92915050565b60006101008284031215611e5a57611e59611e0d565b5b611e65610100611812565b9050600082013567ffffffffffffffff811115611e8557611e84611e12565b5b611e91848285016118af565b600083015250602082013567ffffffffffffffff811115611eb557611eb4611e12565b5b611ec1848285016118af565b6020830152506040611ed584828501611e2e565b6040830152506060611ee984828501611c8e565b606083015250608082013567ffffffffffffffff811115611f0d57611f0c611e12565b5b611f19848285016118af565b60808301525060a082013567ffffffffffffffff811115611f3d57611f3c611e12565b5b611f49848285016118af565b60a08301525060c082013567ffffffffffffffff811115611f6d57611f6c611e12565b5b611f79848285016118af565b60c08301525060e082013567ffffffffffffffff811115611f9d57611f9c611e12565b5b611fa9848285016118af565b60e08301525092915050565b600060208284031215611fcb57611fca61178d565b5b600082013567ffffffffffffffff811115611fe957611fe8611792565b5b611ff584828501611e43565b91505092915050565b6000602082840312156120145761201361178d565b5b600061202284828501611c8e565b91505092915050565b600081905092915050565b600061204182611941565b61204b818561202b565b935061205b81856020860161195d565b80840191505092915050565b60006120738284612036565b915081905092915050565b7f4e487b7100000000000000000000000000000000000000000000000000000000600052602260045260246000fd5b600060028204905060018216806120c557607f821691505b6020821081036120d8576120d761207e565b5b50919050565b7f4e487b7100000000000000000000000000000000000000000000000000000000600052603260045260246000fd5b60008190508160005260206000209050919050565b6000815461212f816120ad565b612139818661202b565b9450600182166000811461215457600181146121695761219c565b60ff198316865281151582028601935061219c565b6121728561210d565b60005b8381101561219457815481890152600182019150602081019050612175565b838801955050505b50505092915050565b60006121b18284612122565b915081905092915050565b7f4e487b7100000000000000000000000000000000000000000000000000000000600052601160045260246000fd5b6000819050919050565b6000612200826121eb565b91507fffffffffffffffffffffffffffffffffffffffffffffffffffffffffffffffff8203612232576122316121bc565b5b600182019050919050565b50565b600061224d60008361202b565b91506122588261223d565b600082019050919050565b600061226e82612240565b9150819050919050565b7f6163746976650000000000000000000000000000000000000000000000000000600082015250565b60006122ae60068361202b565b91506122b982612278565b600682019050919050565b60006122cf826122a1565b9150819050919050565b60006020601f8301049050919050565b600082821b905092915050565b6000600883026123267fffffffffffffffffffffffffffffffffffffffffffffffffffffffffffffffff826122e9565b61233086836122e9565b95508019841693508086168417925050509392505050565b6000819050919050565b600061236d612368612363846121eb565b612348565b6121eb565b9050919050565b6000819050919050565b61238783612352565b61239b61239382612374565b8484546122f6565b825550505050565b600090565b6123b06123a3565b6123bb81848461237e565b505050565b5b818110156123df576123d46000826123a8565b6001810190506123c1565b5050565b601f821115612424576123f58161210d565b6123fe846122d9565b8101602085101561240d578190505b612421612419856122d9565b8301826123c0565b50505b505050565b600082821c905092915050565b600061244760001984600802612429565b1980831691505092915050565b60006124608383612436565b9150826002028217905092915050565b61247982611941565b67ffffffffffffffff811115612492576124916117b2565b5b61249c82546120ad565b6124a78282856123e3565b600060209050601f8311600181146124da57600084156124c8578287015190505b6124d28582612454565b86555061253a565b601f1984166124e88661210d565b60005b82811015612510578489015182556001820191506020850194506020810190506124eb565b8683101561252d5784890151612529601f891682612436565b8355505b6001600288020188555050505b505050505050565b60006101008301600083015184820360008601526125608282611987565b9150506020830151848203602086015261257a8282611987565b915050604083015161258f6040860182611afd565b5060608301516125a26060860182611b0c565b50608083015184820360808601526125ba8282611987565b91505060a083015184820360a08601526125d48282611987565b91505060c083015184820360c08601526125ee8282611987565b91505060e083015184820360e08601526126088282611987565b9150508091505092915050565b6000602082019050818103600083015261262f8184612542565b905092915050565b61264081611926565b811461264b57600080fd5b50565b60008151905061265d81612637565b92915050565b6000602082840312156126795761267861178d565b5b60006126878482850161264e565b9150509291505056fea26469706673582212206c07d49f639d9b9604705ad3654ca5a67ae9cbc983a421f27c92a379c5cb9aac64736f6c6343000813003360806040523480156200001157600080fd5b5060405162001c4438038062001c448339818101604052810190620000379190620000e9565b80600360006101000a81548173ffffffffffffffffffffffffffffffffffffffff021916908373ffffffffffffffffffffffffffffffffffffffff160217905550506200011b565b600080fd5b600073ffffffffffffffffffffffffffffffffffffffff82169050919050565b6000620000b18262000084565b9050919050565b620000c381620000a4565b8114620000cf57600080fd5b50565b600081519050620000e381620000b8565b92915050565b6000602082840312156200010257620001016200007f565b5b60006200011284828501620000d2565b91505092915050565b611b19806200012b6000396000f3fe608060405234801561001057600080fd5b50600436106100935760003560e01c8063857cdbb811610066578063857cdbb814610144578063a240e42614610174578063b0c22a56146101a4578063eeb9ab18146101d4578063f14ab0e01461020457610093565b80632b4bce8b1461009857806367156cf1146100c85780636f77926b146100f857806375e9493f14610128575b600080fd5b6100b260048036038101906100ad91906112bb565b610234565b6040516100bf919061131f565b60405180910390f35b6100e260048036038101906100dd919061133a565b61034e565b6040516100ef9190611432565b60405180910390f35b610112600480360381019061010d919061133a565b610502565b60405161011f9190611511565b60405180910390f35b610142600480360381019061013d91906112bb565b6108ca565b005b61015e6004803603810190610159919061133a565b610b59565b60405161016b9190611432565b60405180910390f35b61018e6004803603810190610189919061133a565b610d0d565b60405161019b919061131f565b60405180910390f35b6101be60048036038101906101b99190611533565b610db6565b6040516101cb919061131f565b60405180910390f35b6101ee60048036038101906101e99190611533565b610deb565b6040516101fb91906115ab565b60405180910390f35b61021e600480360381019061021991906115c6565b610ed6565b60405161022b919061131f565b60405180910390f35b60003373ffffffffffffffffffffffffffffffffffffffff16826000015173ffffffffffffffffffffffffffffffffffffffff16036103445761027a8260000151610d0d565b158015610291575061028f8260200151610db6565b155b80156103355750600360009054906101000a900473ffffffffffffffffffffffffffffffffffffffff1673ffffffffffffffffffffffffffffffffffffffff1663e779f450836040518263ffffffff1660e01b81526004016102f39190611693565b602060405180830381865afa158015610310573d6000803e3d6000fd5b505050506040513d601f19601f8201168201806040525081019061033491906116e1565b5b156103435760019050610349565b5b600090505b919050565b610356610f7f565b600073ffffffffffffffffffffffffffffffffffffffff166000808473ffffffffffffffffffffffffffffffffffffffff1673ffffffffffffffffffffffffffffffffffffffff16815260200190815260200160002060000160009054906101000a900473ffffffffffffffffffffffffffffffffffffffff1673ffffffffffffffffffffffffffffffffffffffff16146104d35760405180604001604052806001151581526020016000808573ffffffffffffffffffffffffffffffffffffffff1673ffffffffffffffffffffffffffffffffffffffff168152602001908152602001600020600101805461044b9061173d565b80601f01602080910402602001604051908101604052809291908181526020018280546104779061173d565b80156104c45780601f10610499576101008083540402835291602001916104c4565b820191906000526020600020905b8154815290600101906020018083116104a757829003601f168201915b505050505081525090506104fd565b60405180604001604052806000151581526020016040518060200160405280600081525081525090505b919050565b61050a610f9b565b3373ffffffffffffffffffffffffffffffffffffffff168273ffffffffffffffffffffffffffffffffffffffff160361084657600073ffffffffffffffffffffffffffffffffffffffff166000808473ffffffffffffffffffffffffffffffffffffffff1673ffffffffffffffffffffffffffffffffffffffff16815260200190815260200160002060000160009054906101000a900473ffffffffffffffffffffffffffffffffffffffff1673ffffffffffffffffffffffffffffffffffffffff16146108455760405180604001604052806001151581526020016000808573ffffffffffffffffffffffffffffffffffffffff1673ffffffffffffffffffffffffffffffffffffffff1681526020019081526020016000206040518060800160405290816000820160009054906101000a900473ffffffffffffffffffffffffffffffffffffffff1673ffffffffffffffffffffffffffffffffffffffff1673ffffffffffffffffffffffffffffffffffffffff1681526020016001820180546106959061173d565b80601f01602080910402602001604051908101604052809291908181526020018280546106c19061173d565b801561070e5780601f106106e35761010080835404028352916020019161070e565b820191906000526020600020905b8154815290600101906020018083116106f157829003601f168201915b505050505081526020016002820180546107279061173d565b80601f01602080910402602001604051908101604052809291908181526020018280546107539061173d565b80156107a05780601f10610775576101008083540402835291602001916107a0565b820191906000526020600020905b81548152906001019060200180831161078357829003601f168201915b505050505081526020016003820180546107b99061173d565b80601f01602080910402602001604051908101604052809291908181526020018280546107e59061173d565b80156108325780601f1061080757610100808354040283529160200191610832565b820191906000526020600020905b81548152906001019060200180831161081557829003601f168201915b50505050508152505081525090506108c5565b5b60405180604001604052806000151581526020016040518060800160405280600073ffffffffffffffffffffffffffffffffffffffff1681526020016040518060200160405280600081525081526020016040518060200160405280600081525081526020016040518060200160405280600081525081525081525090505b919050565b3373ffffffffffffffffffffffffffffffffffffffff16816000015173ffffffffffffffffffffffffffffffffffffffff1603610b565761090a81610234565b15610b55576040518060800160405280826000015173ffffffffffffffffffffffffffffffffffffffff16815260200182602001518152602001826040015181526020018260600151815250600080836000015173ffffffffffffffffffffffffffffffffffffffff1673ffffffffffffffffffffffffffffffffffffffff16815260200190815260200160002060008201518160000160006101000a81548173ffffffffffffffffffffffffffffffffffffffff021916908373ffffffffffffffffffffffffffffffffffffffff16021790555060208201518160010190816109f49190611924565b506040820151816002019081610a0a9190611924565b506060820151816003019081610a209190611924565b509050506040518060800160405280826000015173ffffffffffffffffffffffffffffffffffffffff1681526020018260200151815260200182604001518152602001826060015181525060018260200151604051610a7f9190611a32565b908152602001604051809103902060008201518160000160006101000a81548173ffffffffffffffffffffffffffffffffffffffff021916908373ffffffffffffffffffffffffffffffffffffffff1602179055506020820151816001019081610ae99190611924565b506040820151816002019081610aff9190611924565b506060820151816003019081610b159190611924565b50905050600160028260200151604051610b2f9190611a32565b908152602001604051809103902060006101000a81548160ff0219169083151502179055505b5b50565b610b61610f7f565b600073ffffffffffffffffffffffffffffffffffffffff166000808473ffffffffffffffffffffffffffffffffffffffff1673ffffffffffffffffffffffffffffffffffffffff16815260200190815260200160002060000160009054906101000a900473ffffffffffffffffffffffffffffffffffffffff1673ffffffffffffffffffffffffffffffffffffffff1614610cde5760405180604001604052806001151581526020016000808573ffffffffffffffffffffffffffffffffffffffff1673ffffffffffffffffffffffffffffffffffffffff1681526020019081526020016000206003018054610c569061173d565b80601f0160208091040260200160405190810160405280929190818152602001828054610c829061173d565b8015610ccf5780601f10610ca457610100808354040283529160200191610ccf565b820191906000526020600020905b815481529060010190602001808311610cb257829003601f168201915b50505050508152509050610d08565b60405180604001604052806000151581526020016040518060200160405280600081525081525090505b919050565b60008073ffffffffffffffffffffffffffffffffffffffff166000808473ffffffffffffffffffffffffffffffffffffffff1673ffffffffffffffffffffffffffffffffffffffff16815260200190815260200160002060000160009054906101000a900473ffffffffffffffffffffffffffffffffffffffff1673ffffffffffffffffffffffffffffffffffffffff1614610dac5760019050610db1565b600090505b919050565b6000600282604051610dc89190611a32565b908152602001604051809103902060009054906101000a900460ff169050919050565b610df3610fbd565b6000600183604051610e059190611a32565b90815260200160405180910390206001018054610e219061173d565b90501115610e9f576040518060400160405280600115158152602001600184604051610e4d9190611a32565b908152602001604051809103902060000160009054906101000a900473ffffffffffffffffffffffffffffffffffffffff1673ffffffffffffffffffffffffffffffffffffffff168152509050610ed1565b6040518060400160405280600015158152602001600073ffffffffffffffffffffffffffffffffffffffff1681525090505b919050565b600082604051602001610ee99190611a32565b604051602081830303815290604052805190602001206000808473ffffffffffffffffffffffffffffffffffffffff1673ffffffffffffffffffffffffffffffffffffffff168152602001908152602001600020600201604051602001610f509190611acc565b6040516020818303038152906040528051906020012003610f745760019050610f79565b600090505b92915050565b6040518060400160405280600015158152602001606081525090565b6040518060400160405280600015158152602001610fb7610fef565b81525090565b6040518060400160405280600015158152602001600073ffffffffffffffffffffffffffffffffffffffff1681525090565b6040518060800160405280600073ffffffffffffffffffffffffffffffffffffffff1681526020016060815260200160608152602001606081525090565b6000604051905090565b600080fd5b600080fd5b600080fd5b6000601f19601f8301169050919050565b7f4e487b7100000000000000000000000000000000000000000000000000000000600052604160045260246000fd5b61108f82611046565b810181811067ffffffffffffffff821117156110ae576110ad611057565b5b80604052505050565b60006110c161102d565b90506110cd8282611086565b919050565b600080fd5b600073ffffffffffffffffffffffffffffffffffffffff82169050919050565b6000611102826110d7565b9050919050565b611112816110f7565b811461111d57600080fd5b50565b60008135905061112f81611109565b92915050565b600080fd5b600080fd5b600067ffffffffffffffff82111561115a57611159611057565b5b61116382611046565b9050602081019050919050565b82818337600083830152505050565b600061119261118d8461113f565b6110b7565b9050828152602081018484840111156111ae576111ad61113a565b5b6111b9848285611170565b509392505050565b600082601f8301126111d6576111d5611135565b5b81356111e684826020860161117f565b91505092915050565b60006080828403121561120557611204611041565b5b61120f60806110b7565b9050600061121f84828501611120565b600083015250602082013567ffffffffffffffff811115611243576112426110d2565b5b61124f848285016111c1565b602083015250604082013567ffffffffffffffff811115611273576112726110d2565b5b61127f848285016111c1565b604083015250606082013567ffffffffffffffff8111156112a3576112a26110d2565b5b6112af848285016111c1565b60608301525092915050565b6000602082840312156112d1576112d0611037565b5b600082013567ffffffffffffffff8111156112ef576112ee61103c565b5b6112fb848285016111ef565b91505092915050565b60008115159050919050565b61131981611304565b82525050565b60006020820190506113346000830184611310565b92915050565b6000602082840312156113505761134f611037565b5b600061135e84828501611120565b91505092915050565b61137081611304565b82525050565b600081519050919050565b600082825260208201905092915050565b60005b838110156113b0578082015181840152602081019050611395565b60008484015250505050565b60006113c782611376565b6113d18185611381565b93506113e1818560208601611392565b6113ea81611046565b840191505092915050565b600060408301600083015161140d6000860182611367565b506020830151848203602086015261142582826113bc565b9150508091505092915050565b6000602082019050818103600083015261144c81846113f5565b905092915050565b61145d816110f7565b82525050565b600060808301600083015161147b6000860182611454565b506020830151848203602086015261149382826113bc565b915050604083015184820360408601526114ad82826113bc565b915050606083015184820360608601526114c782826113bc565b9150508091505092915050565b60006040830160008301516114ec6000860182611367565b50602083015184820360208601526115048282611463565b9150508091505092915050565b6000602082019050818103600083015261152b81846114d4565b905092915050565b60006020828403121561154957611548611037565b5b600082013567ffffffffffffffff8111156115675761156661103c565b5b611573848285016111c1565b91505092915050565b6040820160008201516115926000850182611367565b5060208201516115a56020850182611454565b50505050565b60006040820190506115c0600083018461157c565b92915050565b600080604083850312156115dd576115dc611037565b5b600083013567ffffffffffffffff8111156115fb576115fa61103c565b5b611607858286016111c1565b925050602061161885828601611120565b9150509250929050565b600060808301600083015161163a6000860182611454565b506020830151848203602086015261165282826113bc565b9150506040830151848203604086015261166c82826113bc565b9150506060830151848203606086015261168682826113bc565b9150508091505092915050565b600060208201905081810360008301526116ad8184611622565b905092915050565b6116be81611304565b81146116c957600080fd5b50565b6000815190506116db816116b5565b92915050565b6000602082840312156116f7576116f6611037565b5b6000611705848285016116cc565b91505092915050565b7f4e487b7100000000000000000000000000000000000000000000000000000000600052602260045260246000fd5b6000600282049050600182168061175557607f821691505b6020821081036117685761176761170e565b5b50919050565b60008190508160005260206000209050919050565b60006020601f8301049050919050565b600082821b905092915050565b6000600883026117d07fffffffffffffffffffffffffffffffffffffffffffffffffffffffffffffffff82611793565b6117da8683611793565b95508019841693508086168417925050509392505050565b6000819050919050565b6000819050919050565b600061182161181c611817846117f2565b6117fc565b6117f2565b9050919050565b6000819050919050565b61183b83611806565b61184f61184782611828565b8484546117a0565b825550505050565b600090565b611864611857565b61186f818484611832565b505050565b5b818110156118935761188860008261185c565b600181019050611875565b5050565b601f8211156118d8576118a98161176e565b6118b284611783565b810160208510156118c1578190505b6118d56118cd85611783565b830182611874565b50505b505050565b600082821c905092915050565b60006118fb600019846008026118dd565b1980831691505092915050565b600061191483836118ea565b9150826002028217905092915050565b61192d82611376565b67ffffffffffffffff81111561194657611945611057565b5b611950825461173d565b61195b828285611897565b600060209050601f83116001811461198e576000841561197c578287015190505b6119868582611908565b8655506119ee565b601f19841661199c8661176e565b60005b828110156119c45784890151825560018201915060208501945060208101905061199f565b868310156119e157848901516119dd601f8916826118ea565b8355505b6001600288020188555050505b505050505050565b600081905092915050565b6000611a0c82611376565b611a1681856119f6565b9350611a26818560208601611392565b80840191505092915050565b6000611a3e8284611a01565b915081905092915050565b60008154611a568161173d565b611a6081866119f6565b94506001821660008114611a7b5760018114611a9057611ac3565b60ff1983168652811515820286019350611ac3565b611a998561176e565b60005b83811015611abb57815481890152600182019150602081019050611a9c565b838801955050505b50505092915050565b6000611ad88284611a49565b91508190509291505056fea264697066735822122002f0324861db677ecf02268b4eed83fdbb8de15e4315e3ccceefd5f4ba14e6bb64736f6c63430008130033608060405234801561001057600080fd5b5033600160006101000a81548173ffffffffffffffffffffffffffffffffffffffff021916908373ffffffffffffffffffffffffffffffffffffffff16021790555033600260006101000a81548173ffffffffffffffffffffffffffffffffffffffff021916908373ffffffffffffffffffffffffffffffffffffffff1602179055506113e1806100a26000396000f3fe608060405234801561001057600080fd5b50600436106100365760003560e01c8063759ab1851461003b578063c47ebddc1461006b575b600080fd5b61005560048036038101906100509190610a68565b610087565b6040516100629190610d3b565b60405180910390f35b61008560048036038101906100809190610d89565b6105e7565b005b61008f6107aa565b6000808054905067ffffffffffffffff8111156100af576100ae610852565b5b6040519080825280602002602001820160405280156100e857816020015b6100d56107c6565b8152602001906001900390816100cd5790505b5090506000805b845181101561054457600160009054906101000a900473ffffffffffffffffffffffffffffffffffffffff1673ffffffffffffffffffffffffffffffffffffffff16631ac47dd03387848151811061014a57610149610e58565b5b60200260200101516040518363ffffffff1660e01b815260040161016f929190610ee0565b602060405180830381865afa15801561018c573d6000803e3d6000fd5b505050506040513d601f19601f820116820180604052508101906101b09190610f3c565b156105315760005b60008054905081101561052f578582815181106101d8576101d7610e58565b5b60200260200101516040516020016101f09190610fa5565b604051602081830303815290604052805190602001206000828154811061021a57610219610e58565b5b906000526020600020906006020160000160405160200161023b91906110b4565b604051602081830303815290604052805190602001200361051c576000818154811061026a57610269610e58565b5b90600052602060002090600602016040518060c001604052908160008201805461029390610feb565b80601f01602080910402602001604051908101604052809291908181526020018280546102bf90610feb565b801561030c5780601f106102e15761010080835404028352916020019161030c565b820191906000526020600020905b8154815290600101906020018083116102ef57829003601f168201915b505050505081526020016001820160009054906101000a900473ffffffffffffffffffffffffffffffffffffffff1673ffffffffffffffffffffffffffffffffffffffff1673ffffffffffffffffffffffffffffffffffffffff1681526020016002820154815260200160038201805461038590610feb565b80601f01602080910402602001604051908101604052809291908181526020018280546103b190610feb565b80156103fe5780601f106103d3576101008083540402835291602001916103fe565b820191906000526020600020905b8154815290600101906020018083116103e157829003601f168201915b5050505050815260200160048201805461041790610feb565b80601f016020809104026020016040519081016040528092919081815260200182805461044390610feb565b80156104905780601f1061046557610100808354040283529160200191610490565b820191906000526020600020905b81548152906001019060200180831161047357829003601f168201915b505050505081526020016005820160009054906101000a900473ffffffffffffffffffffffffffffffffffffffff1673ffffffffffffffffffffffffffffffffffffffff1673ffffffffffffffffffffffffffffffffffffffff168152505084848151811061050257610501610e58565b5b60200260200101819052508280610518906110fa565b9350505b8080610527906110fa565b9150506101b8565b505b808061053c906110fa565b9150506100ef565b508082526000811461057157604051806040016040528060011515815260200183815250925050506105e2565b6040518060400160405280600015158152602001600067ffffffffffffffff8111156105a05761059f610852565b5b6040519080825280602002602001820160405280156105d957816020015b6105c66107c6565b8152602001906001900390816105be5790505b50815250925050505b919050565b600260009054906101000a900473ffffffffffffffffffffffffffffffffffffffff1673ffffffffffffffffffffffffffffffffffffffff163373ffffffffffffffffffffffffffffffffffffffff16036107a35760006040518060c001604052808681526020018573ffffffffffffffffffffffffffffffffffffffff1681526020014281526020018381526020018481526020018773ffffffffffffffffffffffffffffffffffffffff168152509050600081908060018154018082558091505060019003906000526020600020906006020160009091909190915060008201518160000190816106da91906112d9565b5060208201518160010160006101000a81548173ffffffffffffffffffffffffffffffffffffffff021916908373ffffffffffffffffffffffffffffffffffffffff16021790555060408201518160020155606082015181600301908161074191906112d9565b50608082015181600401908161075791906112d9565b5060a08201518160050160006101000a81548173ffffffffffffffffffffffffffffffffffffffff021916908373ffffffffffffffffffffffffffffffffffffffff1602179055505050505b5050505050565b6040518060400160405280600015158152602001606081525090565b6040518060c0016040528060608152602001600073ffffffffffffffffffffffffffffffffffffffff168152602001600081526020016060815260200160608152602001600073ffffffffffffffffffffffffffffffffffffffff1681525090565b6000604051905090565b600080fd5b600080fd5b600080fd5b6000601f19601f8301169050919050565b7f4e487b7100000000000000000000000000000000000000000000000000000000600052604160045260246000fd5b61088a82610841565b810181811067ffffffffffffffff821117156108a9576108a8610852565b5b80604052505050565b60006108bc610828565b90506108c88282610881565b919050565b600067ffffffffffffffff8211156108e8576108e7610852565b5b602082029050602081019050919050565b600080fd5b600080fd5b600067ffffffffffffffff82111561091e5761091d610852565b5b61092782610841565b9050602081019050919050565b82818337600083830152505050565b600061095661095184610903565b6108b2565b905082815260208101848484011115610972576109716108fe565b5b61097d848285610934565b509392505050565b600082601f83011261099a5761099961083c565b5b81356109aa848260208601610943565b91505092915050565b60006109c66109c1846108cd565b6108b2565b905080838252602082019050602084028301858111156109e9576109e86108f9565b5b835b81811015610a3057803567ffffffffffffffff811115610a0e57610a0d61083c565b5b808601610a1b8982610985565b855260208501945050506020810190506109eb565b5050509392505050565b600082601f830112610a4f57610a4e61083c565b5b8135610a5f8482602086016109b3565b91505092915050565b600060208284031215610a7e57610a7d610832565b5b600082013567ffffffffffffffff811115610a9c57610a9b610837565b5b610aa884828501610a3a565b91505092915050565b60008115159050919050565b610ac681610ab1565b82525050565b600081519050919050565b600082825260208201905092915050565b6000819050602082019050919050565b600081519050919050565b600082825260208201905092915050565b60005b83811015610b32578082015181840152602081019050610b17565b60008484015250505050565b6000610b4982610af8565b610b538185610b03565b9350610b63818560208601610b14565b610b6c81610841565b840191505092915050565b600073ffffffffffffffffffffffffffffffffffffffff82169050919050565b6000610ba282610b77565b9050919050565b610bb281610b97565b82525050565b6000819050919050565b610bcb81610bb8565b82525050565b600060c0830160008301518482036000860152610bee8282610b3e565b9150506020830151610c036020860182610ba9565b506040830151610c166040860182610bc2565b5060608301518482036060860152610c2e8282610b3e565b91505060808301518482036080860152610c488282610b3e565b91505060a0830151610c5d60a0860182610ba9565b508091505092915050565b6000610c748383610bd1565b905092915050565b6000602082019050919050565b6000610c9482610acc565b610c9e8185610ad7565b935083602082028501610cb085610ae8565b8060005b85811015610cec5784840389528151610ccd8582610c68565b9450610cd883610c7c565b925060208a01995050600181019050610cb4565b50829750879550505050505092915050565b6000604083016000830151610d166000860182610abd565b5060208301518482036020860152610d2e8282610c89565b9150508091505092915050565b60006020820190508181036000830152610d558184610cfe565b905092915050565b610d6681610b97565b8114610d7157600080fd5b50565b600081359050610d8381610d5d565b92915050565b600080600080600060a08688031215610da557610da4610832565b5b6000610db388828901610d74565b955050602086013567ffffffffffffffff811115610dd457610dd3610837565b5b610de088828901610985565b9450506040610df188828901610d74565b935050606086013567ffffffffffffffff811115610e1257610e11610837565b5b610e1e88828901610985565b925050608086013567ffffffffffffffff811115610e3f57610e3e610837565b5b610e4b88828901610985565b9150509295509295909350565b7f4e487b7100000000000000000000000000000000000000000000000000000000600052603260045260246000fd5b610e9081610b97565b82525050565b600082825260208201905092915050565b6000610eb282610af8565b610ebc8185610e96565b9350610ecc818560208601610b14565b610ed581610841565b840191505092915050565b6000604082019050610ef56000830185610e87565b8181036020830152610f078184610ea7565b90509392505050565b610f1981610ab1565b8114610f2457600080fd5b50565b600081519050610f3681610f10565b92915050565b600060208284031215610f5257610f51610832565b5b6000610f6084828501610f27565b91505092915050565b600081905092915050565b6000610f7f82610af8565b610f898185610f69565b9350610f99818560208601610b14565b80840191505092915050565b6000610fb18284610f74565b915081905092915050565b7f4e487b7100000000000000000000000000000000000000000000000000000000600052602260045260246000fd5b6000600282049050600182168061100357607f821691505b60208210810361101657611015610fbc565b5b50919050565b60008190508160005260206000209050919050565b6000815461103e81610feb565b6110488186610f69565b945060018216600081146110635760018114611078576110ab565b60ff19831686528115158202860193506110ab565b6110818561101c565b60005b838110156110a357815481890152600182019150602081019050611084565b838801955050505b50505092915050565b60006110c08284611031565b915081905092915050565b7f4e487b7100000000000000000000000000000000000000000000000000000000600052601160045260246000fd5b600061110582610bb8565b91507fffffffffffffffffffffffffffffffffffffffffffffffffffffffffffffffff8203611137576111366110cb565b5b600182019050919050565b60006020601f8301049050919050565b600082821b905092915050565b60006008830261118f7fffffffffffffffffffffffffffffffffffffffffffffffffffffffffffffffff82611152565b6111998683611152565b95508019841693508086168417925050509392505050565b6000819050919050565b60006111d66111d16111cc84610bb8565b6111b1565b610bb8565b9050919050565b6000819050919050565b6111f0836111bb565b6112046111fc826111dd565b84845461115f565b825550505050565b600090565b61121961120c565b6112248184846111e7565b505050565b5b818110156112485761123d600082611211565b60018101905061122a565b5050565b601f82111561128d5761125e8161101c565b61126784611142565b81016020851015611276578190505b61128a61128285611142565b830182611229565b50505b505050565b600082821c905092915050565b60006112b060001984600802611292565b1980831691505092915050565b60006112c9838361129f565b9150826002028217905092915050565b6112e282610af8565b67ffffffffffffffff8111156112fb576112fa610852565b5b6113058254610feb565b61131082828561124c565b600060209050601f8311600181146113435760008415611331578287015190505b61133b85826112bd565b8655506113a3565b601f1984166113518661101c565b60005b8281101561137957848901518255600182019150602085019450602081019050611354565b868310156113965784890151611392601f89168261129f565b8355505b6001600288020188555050505b50505050505056fea2646970667358221220f71301b82c3747a85bf5fb7e5f715d5c9f6c3d10cfbf810cfac122c1b0386eec64736f6c63430008130033",
  "linkReferences": {},
  "deployedLinkReferences": {}
}