{
  "_format": "hh-sol-artifact-1",
  "contractName": "AccessControl",
  "sourceName": "contracts/AccessControl.sol",
  "abi": [
    {
      "inputs": [
        {
          "internalType": "address",
          "name": "fileRegisterContract",
          "type": "address"
        }
      ],
      "stateMutability": "nonpayable",
      "type": "constructor"
    },
    {
      "anonymous": false,
      "inputs": [
        {
          "indexed": false,
          "internalType": "bool",
          "name": "success",
          "type": "bool"
        },
        {
          "indexed": false,
          "internalType": "string",
          "name": "message",
          "type": "string"
        }
      ],
      "name": "UploadFileResult",
      "type": "event"
    },
    {
      "inputs": [
        {
          "internalType": "address",
          "name": "account",
          "type": "address"
        }
      ],
      "name": "getUserFiles",
      "outputs": [
        {
          "components": [
            {
              "internalType": "bool",
              "name": "success",
              "type": "bool"
            },
            {
              "components": [
                {
                  "internalType": "string",
                  "name": "ipfsCID",
                  "type": "string"
                },
                {
                  "internalType": "string",
                  "name": "fileName",
                  "type": "string"
                },
                {
                  "internalType": "address",
                  "name": "owner",
                  "type": "address"
                },
                {
                  "internalType": "string",
                  "name": "fileType",
                  "type": "string"
                },
                {
                  "internalType": "string",
                  "name": "iv",
                  "type": "string"
                }
              ],
              "internalType": "struct FileRegister.File[]",
              "name": "File",
              "type": "tuple[]"
            }
          ],
          "internalType": "struct AccessControl.ResultAction",
          "name": "",
          "type": "tuple"
        }
      ],
      "stateMutability": "view",
      "type": "function"
    }
  ],
  "bytecode": "0x608060405234801561001057600080fd5b50604051610c91380380610c91833981810160405281019061003291906100dc565b80600160006101000a81548173ffffffffffffffffffffffffffffffffffffffff021916908373ffffffffffffffffffffffffffffffffffffffff16021790555050610109565b600080fd5b600073ffffffffffffffffffffffffffffffffffffffff82169050919050565b60006100a98261007e565b9050919050565b6100b98161009e565b81146100c457600080fd5b50565b6000815190506100d6816100b0565b92915050565b6000602082840312156100f2576100f1610079565b5b6000610100848285016100c7565b91505092915050565b610b79806101186000396000f3fe608060405234801561001057600080fd5b506004361061002b5760003560e01c80631fc3792214610030575b600080fd5b61004a60048036038101906100459190610412565b610060565b6040516100579190610683565b60405180910390f35b61006861033f565b6000808054905067ffffffffffffffff811115610088576100876106a5565b5b6040519080825280602002602001820160405280156100c157816020015b6100ae61035b565b8152602001906001900390816100a65790505b5090506000805b6000805490508110156102f0578473ffffffffffffffffffffffffffffffffffffffff1660008281548110610100576100ff6106d4565b5b906000526020600020906004020160000160009054906101000a900473ffffffffffffffffffffffffffffffffffffffff1673ffffffffffffffffffffffffffffffffffffffff16036102dd576000808281548110610162576101616106d4565b5b9060005260206000209060040201600101805461017e90610732565b80601f01602080910402602001604051908101604052809291908181526020018280546101aa90610732565b80156101f75780601f106101cc576101008083540402835291602001916101f7565b820191906000526020600020905b8154815290600101906020018083116101da57829003601f168201915b505050505090506000600160009054906101000a900473ffffffffffffffffffffffffffffffffffffffff1673ffffffffffffffffffffffffffffffffffffffff16639f5937f8836040518263ffffffff1660e01b815260040161025b91906107ad565b600060405180830381865afa158015610278573d6000803e3d6000fd5b505050506040513d6000823e3d601f19601f820116820180604052508101906102a19190610a79565b9050600081602001519050808686815181106102c0576102bf6106d4565b5b602002602001018190525084806102d690610afb565b9550505050505b80806102e890610afb565b9150506100c8565b508082526000811461031d576040518060400160405280600115158152602001838152509250505061033a565b604051806040016040528060001515815260200183815250925050505b919050565b6040518060400160405280600015158152602001606081525090565b6040518060a001604052806060815260200160608152602001600073ffffffffffffffffffffffffffffffffffffffff16815260200160608152602001606081525090565b6000604051905090565b600080fd5b600080fd5b600073ffffffffffffffffffffffffffffffffffffffff82169050919050565b60006103df826103b4565b9050919050565b6103ef816103d4565b81146103fa57600080fd5b50565b60008135905061040c816103e6565b92915050565b600060208284031215610428576104276103aa565b5b6000610436848285016103fd565b91505092915050565b60008115159050919050565b6104548161043f565b82525050565b600081519050919050565b600082825260208201905092915050565b6000819050602082019050919050565b600081519050919050565b600082825260208201905092915050565b60005b838110156104c05780820151818401526020810190506104a5565b60008484015250505050565b6000601f19601f8301169050919050565b60006104e882610486565b6104f28185610491565b93506105028185602086016104a2565b61050b816104cc565b840191505092915050565b61051f816103d4565b82525050565b600060a083016000830151848203600086015261054282826104dd565b9150506020830151848203602086015261055c82826104dd565b91505060408301516105716040860182610516565b506060830151848203606086015261058982826104dd565b915050608083015184820360808601526105a382826104dd565b9150508091505092915050565b60006105bc8383610525565b905092915050565b6000602082019050919050565b60006105dc8261045a565b6105e68185610465565b9350836020820285016105f885610476565b8060005b85811015610634578484038952815161061585826105b0565b9450610620836105c4565b925060208a019950506001810190506105fc565b50829750879550505050505092915050565b600060408301600083015161065e600086018261044b565b506020830151848203602086015261067682826105d1565b9150508091505092915050565b6000602082019050818103600083015261069d8184610646565b905092915050565b7f4e487b7100000000000000000000000000000000000000000000000000000000600052604160045260246000fd5b7f4e487b7100000000000000000000000000000000000000000000000000000000600052603260045260246000fd5b7f4e487b7100000000000000000000000000000000000000000000000000000000600052602260045260246000fd5b6000600282049050600182168061074a57607f821691505b60208210810361075d5761075c610703565b5b50919050565b600082825260208201905092915050565b600061077f82610486565b6107898185610763565b93506107998185602086016104a2565b6107a2816104cc565b840191505092915050565b600060208201905081810360008301526107c78184610774565b905092915050565b600080fd5b6107dd826104cc565b810181811067ffffffffffffffff821117156107fc576107fb6106a5565b5b80604052505050565b600061080f6103a0565b905061081b82826107d4565b919050565b600080fd5b61082e8161043f565b811461083957600080fd5b50565b60008151905061084b81610825565b92915050565b600080fd5b600080fd5b600067ffffffffffffffff821115610876576108756106a5565b5b61087f826104cc565b9050602081019050919050565b600061089f61089a8461085b565b610805565b9050828152602081018484840111156108bb576108ba610856565b5b6108c68482856104a2565b509392505050565b600082601f8301126108e3576108e2610851565b5b81516108f384826020860161088c565b91505092915050565b60008151905061090b816103e6565b92915050565b600060a08284031215610927576109266107cf565b5b61093160a0610805565b9050600082015167ffffffffffffffff81111561095157610950610820565b5b61095d848285016108ce565b600083015250602082015167ffffffffffffffff81111561098157610980610820565b5b61098d848285016108ce565b60208301525060406109a1848285016108fc565b604083015250606082015167ffffffffffffffff8111156109c5576109c4610820565b5b6109d1848285016108ce565b606083015250608082015167ffffffffffffffff8111156109f5576109f4610820565b5b610a01848285016108ce565b60808301525092915050565b600060408284031215610a2357610a226107cf565b5b610a2d6040610805565b90506000610a3d8482850161083c565b600083015250602082015167ffffffffffffffff811115610a6157610a60610820565b5b610a6d84828501610911565b60208301525092915050565b600060208284031215610a8f57610a8e6103aa565b5b600082015167ffffffffffffffff811115610aad57610aac6103af565b5b610ab984828501610a0d565b91505092915050565b7f4e487b7100000000000000000000000000000000000000000000000000000000600052601160045260246000fd5b6000819050919050565b6000610b0682610af1565b91507fffffffffffffffffffffffffffffffffffffffffffffffffffffffffffffffff8203610b3857610b37610ac2565b5b60018201905091905056fea264697066735822122063d7bd7b89826724b8845c7402be9fd9dafccf8368729b1e97022f303288d56e64736f6c63430008130033",
  "linkReferences": {},
  "deployedLinkReferences": {}
}