{
  "_format": "hh-sol-artifact-1",
  "contractName": "AccessControl",
  "sourceName": "contracts/AccessControl.sol",
  "abi": [
    {
      "inputs": [
        {
          "internalType": "address",
          "name": "helperContract",
          "type": "address"
        }
      ],
      "stateMutability": "nonpayable",
      "type": "constructor"
    },
    {
      "anonymous": false,
      "inputs": [
        {
          "indexed": true,
          "internalType": "address",
          "name": "userAccount",
          "type": "address"
        },
        {
          "indexed": false,
          "internalType": "string",
          "name": "fileIpfsCID",
          "type": "string"
        },
        {
          "indexed": false,
          "internalType": "string",
          "name": "permissionsOwner",
          "type": "string"
        },
        {
          "indexed": false,
          "internalType": "string",
          "name": "action",
          "type": "string"
        }
      ],
      "name": "FileActionLog",
      "type": "event"
    },
    {
      "inputs": [
        {
          "internalType": "address",
          "name": "userAccount",
          "type": "address"
        },
        {
          "internalType": "string",
          "name": "fileIpfsCid",
          "type": "string"
        }
      ],
      "name": "deactivateFile",
      "outputs": [],
      "stateMutability": "nonpayable",
      "type": "function"
    },
    {
      "inputs": [
        {
          "internalType": "string",
          "name": "fileIpfsCid",
          "type": "string"
        },
        {
          "internalType": "address",
          "name": "userAccount",
          "type": "address"
        }
      ],
      "name": "downloadFileAudit",
      "outputs": [],
      "stateMutability": "nonpayable",
      "type": "function"
    },
    {
      "inputs": [
        {
          "components": [
            {
              "internalType": "string",
              "name": "ipfsCID",
              "type": "string"
            },
            {
              "internalType": "string",
              "name": "fileName",
              "type": "string"
            },
            {
              "internalType": "int256",
              "name": "version",
              "type": "int256"
            },
            {
              "internalType": "string",
              "name": "prevIpfsCID",
              "type": "string"
            },
            {
              "internalType": "address",
              "name": "owner",
              "type": "address"
            },
            {
              "internalType": "string",
              "name": "fileType",
              "type": "string"
            },
            {
              "internalType": "string",
              "name": "iv",
              "type": "string"
            },
            {
              "internalType": "string",
              "name": "state",
              "type": "string"
            },
            {
              "internalType": "string",
              "name": "fileHash",
              "type": "string"
            }
          ],
          "internalType": "struct FileRegister.File",
          "name": "selectedFile",
          "type": "tuple"
        },
        {
          "components": [
            {
              "internalType": "string",
              "name": "ipfsCID",
              "type": "string"
            },
            {
              "internalType": "string",
              "name": "fileName",
              "type": "string"
            },
            {
              "internalType": "int256",
              "name": "version",
              "type": "int256"
            },
            {
              "internalType": "string",
              "name": "prevIpfsCID",
              "type": "string"
            },
            {
              "internalType": "address",
              "name": "owner",
              "type": "address"
            },
            {
              "internalType": "string",
              "name": "fileType",
              "type": "string"
            },
            {
              "internalType": "string",
              "name": "iv",
              "type": "string"
            },
            {
              "internalType": "string",
              "name": "state",
              "type": "string"
            },
            {
              "internalType": "string",
              "name": "fileHash",
              "type": "string"
            }
          ],
          "internalType": "struct FileRegister.File",
          "name": "newFile",
          "type": "tuple"
        },
        {
          "internalType": "address[]",
          "name": "usersWithDownlodPermSelectFile",
          "type": "address[]"
        },
        {
          "internalType": "string[]",
          "name": "pubKeyUsersWithDownloadPermSelectFile",
          "type": "string[]"
        }
      ],
      "name": "editFile",
      "outputs": [],
      "stateMutability": "nonpayable",
      "type": "function"
    },
    {
      "inputs": [
        {
          "internalType": "address",
          "name": "userAccount",
          "type": "address"
        },
        {
          "internalType": "string",
          "name": "fileIpfsCID",
          "type": "string"
        }
      ],
      "name": "elegibleToShare",
      "outputs": [
        {
          "internalType": "bool",
          "name": "",
          "type": "bool"
        }
      ],
      "stateMutability": "view",
      "type": "function"
    },
    {
      "inputs": [
        {
          "internalType": "address",
          "name": "userAccount",
          "type": "address"
        },
        {
          "internalType": "string",
          "name": "fileIpfsCID",
          "type": "string"
        }
      ],
      "name": "elegibleToUpdPermissions",
      "outputs": [
        {
          "internalType": "bool",
          "name": "",
          "type": "bool"
        }
      ],
      "stateMutability": "view",
      "type": "function"
    },
    {
      "inputs": [
        {
          "internalType": "address",
          "name": "accountUser",
          "type": "address"
        },
        {
          "internalType": "string",
          "name": "fileIpfsCID",
          "type": "string"
        }
      ],
      "name": "getAllEncSymmetricKeyFileUser",
      "outputs": [
        {
          "components": [
            {
              "internalType": "bool",
              "name": "success",
              "type": "bool"
            },
            {
              "internalType": "string[]",
              "name": "resultStrings",
              "type": "string[]"
            },
            {
              "internalType": "string",
              "name": "message",
              "type": "string"
            }
          ],
          "internalType": "struct Helper.ResultStringArray",
          "name": "",
          "type": "tuple"
        }
      ],
      "stateMutability": "view",
      "type": "function"
    },
    {
      "inputs": [],
      "name": "getAuditLogControlAddress",
      "outputs": [
        {
          "internalType": "address",
          "name": "",
          "type": "address"
        }
      ],
      "stateMutability": "view",
      "type": "function"
    },
    {
      "inputs": [
        {
          "internalType": "address",
          "name": "accountUser",
          "type": "address"
        },
        {
          "internalType": "string",
          "name": "fileIpfsCID",
          "type": "string"
        }
      ],
      "name": "getEncSymmetricKeyFileUser",
      "outputs": [
        {
          "components": [
            {
              "internalType": "bool",
              "name": "success",
              "type": "bool"
            },
            {
              "internalType": "string",
              "name": "resultString",
              "type": "string"
            },
            {
              "internalType": "string",
              "name": "message",
              "type": "string"
            }
          ],
          "internalType": "struct Helper.ResultString",
          "name": "",
          "type": "tuple"
        }
      ],
      "stateMutability": "view",
      "type": "function"
    },
    {
      "inputs": [],
      "name": "getFileRegisterAddress",
      "outputs": [
        {
          "internalType": "address",
          "name": "",
          "type": "address"
        }
      ],
      "stateMutability": "view",
      "type": "function"
    },
    {
      "inputs": [
        {
          "internalType": "address",
          "name": "userAccount",
          "type": "address"
        },
        {
          "internalType": "string",
          "name": "fileIpfsCID",
          "type": "string"
        }
      ],
      "name": "getPermissionsOverFile",
      "outputs": [
        {
          "components": [
            {
              "internalType": "bool",
              "name": "success",
              "type": "bool"
            },
            {
              "internalType": "string[]",
              "name": "resultStrings",
              "type": "string[]"
            },
            {
              "internalType": "string",
              "name": "message",
              "type": "string"
            }
          ],
          "internalType": "struct Helper.ResultStringArray",
          "name": "",
          "type": "tuple"
        }
      ],
      "stateMutability": "view",
      "type": "function"
    },
    {
      "inputs": [
        {
          "internalType": "address",
          "name": "account",
          "type": "address"
        },
        {
          "internalType": "string",
          "name": "state",
          "type": "string"
        }
      ],
      "name": "getUserFiles",
      "outputs": [
        {
          "components": [
            {
              "internalType": "bool",
              "name": "success",
              "type": "bool"
            },
            {
              "components": [
                {
                  "internalType": "string",
                  "name": "ipfsCID",
                  "type": "string"
                },
                {
                  "internalType": "string",
                  "name": "fileName",
                  "type": "string"
                },
                {
                  "internalType": "int256",
                  "name": "version",
                  "type": "int256"
                },
                {
                  "internalType": "string",
                  "name": "prevIpfsCID",
                  "type": "string"
                },
                {
                  "internalType": "address",
                  "name": "owner",
                  "type": "address"
                },
                {
                  "internalType": "string",
                  "name": "fileType",
                  "type": "string"
                },
                {
                  "internalType": "string",
                  "name": "iv",
                  "type": "string"
                },
                {
                  "internalType": "string",
                  "name": "state",
                  "type": "string"
                },
                {
                  "internalType": "string",
                  "name": "fileHash",
                  "type": "string"
                }
              ],
              "internalType": "struct FileRegister.File[]",
              "name": "files",
              "type": "tuple[]"
            },
            {
              "internalType": "string",
              "name": "message",
              "type": "string"
            }
          ],
          "internalType": "struct FileRegister.ResultFiles",
          "name": "",
          "type": "tuple"
        }
      ],
      "stateMutability": "view",
      "type": "function"
    },
    {
      "inputs": [],
      "name": "getUserRegisterAddress",
      "outputs": [
        {
          "internalType": "address",
          "name": "",
          "type": "address"
        }
      ],
      "stateMutability": "view",
      "type": "function"
    },
    {
      "inputs": [
        {
          "components": [
            {
              "internalType": "string",
              "name": "ipfsCID",
              "type": "string"
            },
            {
              "internalType": "string",
              "name": "fileName",
              "type": "string"
            },
            {
              "internalType": "int256",
              "name": "version",
              "type": "int256"
            },
            {
              "internalType": "string",
              "name": "prevIpfsCID",
              "type": "string"
            },
            {
              "internalType": "address",
              "name": "owner",
              "type": "address"
            },
            {
              "internalType": "string",
              "name": "fileType",
              "type": "string"
            },
            {
              "internalType": "string",
              "name": "iv",
              "type": "string"
            },
            {
              "internalType": "string",
              "name": "state",
              "type": "string"
            },
            {
              "internalType": "string",
              "name": "fileHash",
              "type": "string"
            }
          ],
          "internalType": "struct FileRegister.File",
          "name": "file",
          "type": "tuple"
        }
      ],
      "name": "getUsersWithDownloadPermissionsFile",
      "outputs": [
        {
          "components": [
            {
              "internalType": "bool",
              "name": "success",
              "type": "bool"
            },
            {
              "internalType": "address[]",
              "name": "resultAddresses",
              "type": "address[]"
            },
            {
              "internalType": "string",
              "name": "message",
              "type": "string"
            }
          ],
          "internalType": "struct Helper.ResultAddressArray",
          "name": "",
          "type": "tuple"
        }
      ],
      "stateMutability": "view",
      "type": "function"
    },
    {
      "inputs": [
        {
          "internalType": "address",
          "name": "userAccount",
          "type": "address"
        },
        {
          "internalType": "string",
          "name": "fileHash",
          "type": "string"
        }
      ],
      "name": "recordFileVerification",
      "outputs": [],
      "stateMutability": "nonpayable",
      "type": "function"
    },
    {
      "inputs": [
        {
          "internalType": "address",
          "name": "userAccount",
          "type": "address"
        },
        {
          "internalType": "string",
          "name": "fileIpfsCID",
          "type": "string"
        }
      ],
      "name": "removeUserFileAssociation",
      "outputs": [],
      "stateMutability": "nonpayable",
      "type": "function"
    },
    {
      "inputs": [
        {
          "internalType": "address",
          "name": "userAccount",
          "type": "address"
        },
        {
          "internalType": "string",
          "name": "fileIpfsCID",
          "type": "string"
        },
        {
          "internalType": "string[]",
          "name": "encSymmetricKeys",
          "type": "string[]"
        },
        {
          "internalType": "string[]",
          "name": "permissions",
          "type": "string[]"
        }
      ],
      "name": "shareFile",
      "outputs": [],
      "stateMutability": "nonpayable",
      "type": "function"
    },
    {
      "inputs": [
        {
          "internalType": "address",
          "name": "userAccount",
          "type": "address"
        },
        {
          "internalType": "string",
          "name": "fileIpfsCID",
          "type": "string"
        },
        {
          "internalType": "string[]",
          "name": "permissions",
          "type": "string[]"
        }
      ],
      "name": "updateUserFilePermissions",
      "outputs": [],
      "stateMutability": "nonpayable",
      "type": "function"
    },
    {
      "inputs": [
        {
          "internalType": "address",
          "name": "userAccount",
          "type": "address"
        },
        {
          "components": [
            {
              "internalType": "string",
              "name": "ipfsCID",
              "type": "string"
            },
            {
              "internalType": "string",
              "name": "fileName",
              "type": "string"
            },
            {
              "internalType": "int256",
              "name": "version",
              "type": "int256"
            },
            {
              "internalType": "string",
              "name": "prevIpfsCID",
              "type": "string"
            },
            {
              "internalType": "address",
              "name": "owner",
              "type": "address"
            },
            {
              "internalType": "string",
              "name": "fileType",
              "type": "string"
            },
            {
              "internalType": "string",
              "name": "iv",
              "type": "string"
            },
            {
              "internalType": "string",
              "name": "state",
              "type": "string"
            },
            {
              "internalType": "string",
              "name": "fileHash",
              "type": "string"
            }
          ],
          "internalType": "struct FileRegister.File",
          "name": "file",
          "type": "tuple"
        },
        {
          "internalType": "string",
          "name": "encSymmetricKey",
          "type": "string"
        }
      ],
      "name": "uploadFile",
      "outputs": [],
      "stateMutability": "nonpayable",
      "type": "function"
    },
    {
      "inputs": [
        {
          "internalType": "address",
          "name": "userAccount",
          "type": "address"
        },
        {
          "internalType": "string",
          "name": "fileIpfsCID",
          "type": "string"
        }
      ],
      "name": "userAssociatedWithFile",
      "outputs": [
        {
          "internalType": "bool",
          "name": "",
          "type": "bool"
        }
      ],
      "stateMutability": "view",
      "type": "function"
    },
    {
      "inputs": [
        {
          "internalType": "address",
          "name": "userAccount",
          "type": "address"
        },
        {
          "internalType": "string",
          "name": "fileName",
          "type": "string"
        }
      ],
      "name": "userAssociatedWithFileName",
      "outputs": [
        {
          "internalType": "bool",
          "name": "",
          "type": "bool"
        }
      ],
      "stateMutability": "view",
      "type": "function"
    },
    {
      "inputs": [
        {
          "internalType": "address",
          "name": "userAccount",
          "type": "address"
        },
        {
          "internalType": "string",
          "name": "fileHash",
          "type": "string"
        }
      ],
      "name": "verifyValidFile",
      "outputs": [
        {
          "internalType": "bool",
          "name": "",
          "type": "bool"
        }
      ],
      "stateMutability": "view",
      "type": "function"
    }
  ],
  "bytecode": "0x60806040523480156200001157600080fd5b506040516200f1b53803806200f1b583398181016040528101906200003791906200028c565b80600460006101000a81548173ffffffffffffffffffffffffffffffffffffffff021916908373ffffffffffffffffffffffffffffffffffffffff160217905550806040516200008790620001f8565b620000939190620002cf565b604051809103906000f080158015620000b0573d6000803e3d6000fd5b50600160006101000a81548173ffffffffffffffffffffffffffffffffffffffff021916908373ffffffffffffffffffffffffffffffffffffffff16021790555080604051620001009062000206565b6200010c9190620002cf565b604051809103906000f08015801562000129573d6000803e3d6000fd5b50600260006101000a81548173ffffffffffffffffffffffffffffffffffffffff021916908373ffffffffffffffffffffffffffffffffffffffff160217905550604051620001789062000214565b604051809103906000f08015801562000195573d6000803e3d6000fd5b50600360006101000a81548173ffffffffffffffffffffffffffffffffffffffff021916908373ffffffffffffffffffffffffffffffffffffffff1602179055506000600460146101000a81548160ff02191690831515021790555050620002ec565b6138a280620081e483390190565b612031806200ba8683390190565b6116fe806200dab783390190565b600080fd5b600073ffffffffffffffffffffffffffffffffffffffff82169050919050565b6000620002548262000227565b9050919050565b620002668162000247565b81146200027257600080fd5b50565b60008151905062000286816200025b565b92915050565b600060208284031215620002a557620002a462000222565b5b6000620002b58482850162000275565b91505092915050565b620002c98162000247565b82525050565b6000602082019050620002e66000830184620002be565b92915050565b617ee880620002fc6000396000f3fe608060405234801561001057600080fd5b50600436106101375760003560e01c8063a126d94c116100b8578063c5f5a2321161007c578063c5f5a23214610386578063c61e6663146103a2578063d2ab62b4146103be578063db54cc8c146103ee578063e4ab8e321461040a578063fe17fccc1461043a57610137565b8063a126d94c146102bc578063af00c05d146102ec578063b58ea3a214610308578063b714fb2014610338578063c19dcf891461035657610137565b80634e2fc7d2116100ff5780634e2fc7d21461022c5780635dab19e41461024857806367cc916b14610266578063874a22ed146102825780638af34fbc146102a057610137565b8063097637271461013c578063173cd5581461016c57806317b5be0f1461019c5780631ac47dd0146101cc5780632321f318146101fc575b600080fd5b610156600480360381019061015191906155a6565b610456565b60405161016391906158cc565b60405180910390f35b610186600480360381019061018191906155a6565b610966565b6040516101939190615a07565b60405180910390f35b6101b660048036038101906101b191906155a6565b610d5f565b6040516101c39190615a38565b60405180910390f35b6101e660048036038101906101e191906155a6565b61105f565b6040516101f39190615a38565b60405180910390f35b610216600480360381019061021191906155a6565b611211565b6040516102239190615a38565b60405180910390f35b61024660048036038101906102419190615dd6565b611443565b005b610250611947565b60405161025d9190615ebc565b60405180910390f35b610280600480360381019061027b9190615ed7565b611971565b005b61028a611b7b565b6040516102979190615ebc565b60405180910390f35b6102ba60048036038101906102b59190615f33565b611ba5565b005b6102d660048036038101906102d191906155a6565b611f0a565b6040516102e39190616015565b60405180910390f35b610306600480360381019061030191906155a6565b6123ac565b005b610322600480360381019061031d91906155a6565b612752565b60405161032f9190615a38565b60405180910390f35b610340612adf565b60405161034d9190615ebc565b60405180910390f35b610370600480360381019061036b91906155a6565b612b09565b60405161037d9190615a38565b60405180910390f35b6103a0600480360381019061039b9190616037565b612d1d565b005b6103bc60048036038101906103b791906155a6565b613210565b005b6103d860048036038101906103d391906155a6565b613470565b6040516103e59190615a07565b60405180910390f35b610408600480360381019061040391906155a6565b6138dc565b005b610424600480360381019061041f91906160f2565b613cd9565b6040516104319190616241565b60405180910390f35b610454600480360381019061044f9190616263565b61415f565b005b61045e6151a8565b8273ffffffffffffffffffffffffffffffffffffffff163373ffffffffffffffffffffffffffffffffffffffff16036108d3576000808054905067ffffffffffffffff8111156104b1576104b061547b565b5b6040519080825280602002602001820160405280156104ea57816020015b6104d76151cb565b8152602001906001900390816104cf5790505b5090506000805b60008054905081101561088e578573ffffffffffffffffffffffffffffffffffffffff1660008281548110610529576105286162ee565b5b906000526020600020906004020160000160009054906101000a900473ffffffffffffffffffffffffffffffffffffffff1673ffffffffffffffffffffffffffffffffffffffff161480156106e45750600160009054906101000a900473ffffffffffffffffffffffffffffffffffffffff1673ffffffffffffffffffffffffffffffffffffffff1662438ceb600083815481106105ca576105c96162ee565b5b90600052602060002090600402016001016040518263ffffffff1660e01b81526004016105f79190616427565b600060405180830381865afa158015610614573d6000803e3d6000fd5b505050506040513d6000823e3d601f19601f8201168201806040525081019061063d9190616581565b602001516040516020016106519190616606565b60405160208183030381529060405280519060200120856040516020016106789190616606565b6040516020818303038152906040528051906020012014806106e357506040516020016106a490616643565b60405160208183030381529060405280519060200120856040516020016106cb9190616606565b60405160208183030381529060405280519060200120145b5b1561087b5760008082815481106106fe576106fd6162ee565b5b9060005260206000209060040201600101805461071a9061634c565b80601f01602080910402602001604051908101604052809291908181526020018280546107469061634c565b80156107935780601f1061076857610100808354040283529160200191610793565b820191906000526020600020905b81548152906001019060200180831161077657829003601f168201915b505050505090506000600160009054906101000a900473ffffffffffffffffffffffffffffffffffffffff1673ffffffffffffffffffffffffffffffffffffffff166347eb6fa783896040518363ffffffff1660e01b81526004016107f9929190616691565b600060405180830381865afa158015610816573d6000803e3d6000fd5b505050506040513d6000823e3d601f19601f8201168201806040525081019061083f9190616932565b90506000816020015190508086868151811061085e5761085d6162ee565b5b60200260200101819052508480610874906169b4565b9550505050505b8080610886906169b4565b9150506104f1565b50808252600081146108d05760405180606001604052806001151581526020018381526020016040518060200160405280600081525081525092505050610960565b50505b6040518060600160405280600015158152602001600067ffffffffffffffff8111156109025761090161547b565b5b60405190808252806020026020018201604052801561093b57816020015b6109286151cb565b8152602001906001900390816109205790505b5081526020016040518060800160405280604e8152602001617dfd604e913981525090505b92915050565b61096e61522d565b6109778261469c565b8015610a6f575060405160200161098d90616a48565b60405160208183030381529060405280519060200120600160009054906101000a900473ffffffffffffffffffffffffffffffffffffffff1673ffffffffffffffffffffffffffffffffffffffff1662438ceb846040518263ffffffff1660e01b81526004016109fd9190616a5d565b600060405180830381865afa158015610a1a573d6000803e3d6000fd5b505050506040513d6000823e3d601f19601f82011682018060405250810190610a439190616581565b60200151604051602001610a579190616606565b60405160208183030381529060405280519060200120145b15610cd25760005b600080549050811015610cd057600460009054906101000a900473ffffffffffffffffffffffffffffffffffffffff1673ffffffffffffffffffffffffffffffffffffffff16635c99c71b8560008481548110610ad757610ad66162ee565b5b906000526020600020906004020160000160009054906101000a900473ffffffffffffffffffffffffffffffffffffffff168660008681548110610b1e57610b1d6162ee565b5b90600052602060002090600402016001016040518563ffffffff1660e01b8152600401610b4e9493929190616a7f565b602060405180830381865afa158015610b6b573d6000803e3d6000fd5b505050506040513d601f19601f82011682018060405250810190610b8f9190616ad2565b15610cbd57604051806060016040528060011515815260200160008381548110610bbc57610bbb6162ee565b5b9060005260206000209060040201600301805480602002602001604051908101604052809291908181526020016000905b82821015610c99578382906000526020600020018054610c0c9061634c565b80601f0160208091040260200160405190810160405280929190818152602001828054610c389061634c565b8015610c855780601f10610c5a57610100808354040283529160200191610c85565b820191906000526020600020905b815481529060010190602001808311610c6857829003601f168201915b505050505081526020019060010190610bed565b50505050815260200160405180602001604052806000815250815250915050610d59565b8080610cc8906169b4565b915050610a77565b505b6040518060600160405280600015158152602001600067ffffffffffffffff811115610d0157610d0061547b565b5b604051908082528060200260200182016040528015610d3457816020015b6060815260200190600190039081610d1f5790505b5081526020016040518060a0016040528060688152602001617e4b6068913981525090505b92915050565b600080600090505b600080549050811015611053576000600160009054906101000a900473ffffffffffffffffffffffffffffffffffffffff1673ffffffffffffffffffffffffffffffffffffffff1663f880680b60008481548110610dc857610dc76162ee565b5b90600052602060002090600402016001016040518263ffffffff1660e01b8152600401610df59190616427565b600060405180830381865afa158015610e12573d6000803e3d6000fd5b505050506040513d6000823e3d601f19601f82011682018060405250810190610e3b9190616581565b6020015190506000600160009054906101000a900473ffffffffffffffffffffffffffffffffffffffff1673ffffffffffffffffffffffffffffffffffffffff1662438ceb60008581548110610e9457610e936162ee565b5b90600052602060002090600402016001016040518263ffffffff1660e01b8152600401610ec19190616427565b600060405180830381865afa158015610ede573d6000803e3d6000fd5b505050506040513d6000823e3d601f19601f82011682018060405250810190610f079190616581565b6020015190508573ffffffffffffffffffffffffffffffffffffffff1660008481548110610f3857610f376162ee565b5b906000526020600020906004020160000160009054906101000a900473ffffffffffffffffffffffffffffffffffffffff1673ffffffffffffffffffffffffffffffffffffffff16148015610fd8575084604051602001610f999190616606565b6040516020818303038152906040528051906020012082604051602001610fc09190616606565b60405160208183030381529060405280519060200120145b801561102d5750604051602001610fee90616a48565b60405160208183030381529060405280519060200120816040516020016110159190616606565b60405160208183030381529060405280519060200120145b1561103e5760019350505050611059565b5050808061104b906169b4565b915050610d67565b50600090505b92915050565b600061106a8261469c565b806110c25750600360009054906101000a900473ffffffffffffffffffffffffffffffffffffffff1673ffffffffffffffffffffffffffffffffffffffff163373ffffffffffffffffffffffffffffffffffffffff16145b156112065760005b60008054905081101561120457600460009054906101000a900473ffffffffffffffffffffffffffffffffffffffff1673ffffffffffffffffffffffffffffffffffffffff16635c99c71b856000848154811061112a576111296162ee565b5b906000526020600020906004020160000160009054906101000a900473ffffffffffffffffffffffffffffffffffffffff168660008681548110611171576111706162ee565b5b90600052602060002090600402016001016040518563ffffffff1660e01b81526004016111a19493929190616a7f565b602060405180830381865afa1580156111be573d6000803e3d6000fd5b505050506040513d601f19601f820116820180604052508101906111e29190616ad2565b156111f157600191505061120b565b80806111fc906169b4565b9150506110ca565b505b600090505b92915050565b60008273ffffffffffffffffffffffffffffffffffffffff163373ffffffffffffffffffffffffffffffffffffffff16141580156112ea5750600160009054906101000a900473ffffffffffffffffffffffffffffffffffffffff1673ffffffffffffffffffffffffffffffffffffffff166352a9baef84846040518363ffffffff1660e01b81526004016112a7929190616aff565b602060405180830381865afa1580156112c4573d6000803e3d6000fd5b505050506040513d601f19601f820116820180604052508101906112e89190616ad2565b155b8015611332575061133133836040518060400160405280600581526020017f73686172650000000000000000000000000000000000000000000000000000008152506149d8565b5b801561142a575060405160200161134890616a48565b60405160208183030381529060405280519060200120600160009054906101000a900473ffffffffffffffffffffffffffffffffffffffff1673ffffffffffffffffffffffffffffffffffffffff1662438ceb846040518263ffffffff1660e01b81526004016113b89190616a5d565b600060405180830381865afa1580156113d5573d6000803e3d6000fd5b505050506040513d6000823e3d601f19601f820116820180604052508101906113fe9190616581565b602001516040516020016114129190616606565b60405160208183030381529060405280519060200120145b15611438576001905061143d565b600090505b92915050565b6114508460000151614b86565b8015611464575061146384848484614cd8565b5b1561194157600160009054906101000a900473ffffffffffffffffffffffffffffffffffffffff1673ffffffffffffffffffffffffffffffffffffffff166395f0f0bb85856040518363ffffffff1660e01b81526004016114c6929190616c1e565b600060405180830381600087803b1580156114e057600080fd5b505af11580156114f4573d6000803e3d6000fd5b5050505060005b6000805490508110156118aa57846000015160405160200161151d9190616606565b6040516020818303038152906040528051906020012060008281548110611547576115466162ee565b5b90600052602060002090600402016001016040516020016115689190616cd8565b6040516020818303038152906040528051906020012003611897576000805b845181101561163d57600083815481106115a4576115a36162ee565b5b906000526020600020906004020160000160009054906101000a900473ffffffffffffffffffffffffffffffffffffffff1673ffffffffffffffffffffffffffffffffffffffff168582815181106115ff576115fe6162ee565b5b602002602001015173ffffffffffffffffffffffffffffffffffffffff160361162a5780915061163d565b8080611635906169b4565b915050611587565b506000838281518110611653576116526162ee565b5b60200260200101519050600060405180608001604052806000868154811061167e5761167d6162ee565b5b906000526020600020906004020160000160009054906101000a900473ffffffffffffffffffffffffffffffffffffffff1673ffffffffffffffffffffffffffffffffffffffff16815260200188600001518152602001838152602001600086815481106116ef576116ee6162ee565b5b9060005260206000209060040201600301805480602002602001604051908101604052809291908181526020016000905b828210156117cc57838290600052602060002001805461173f9061634c565b80601f016020809104026020016040519081016040528092919081815260200182805461176b9061634c565b80156117b85780601f1061178d576101008083540402835291602001916117b8565b820191906000526020600020905b81548152906001019060200180831161179b57829003601f168201915b505050505081526020019060010190611720565b505050508152509050600081908060018154018082558091505060019003906000526020600020906004020160009091909190915060008201518160000160006101000a81548173ffffffffffffffffffffffffffffffffffffffff021916908373ffffffffffffffffffffffffffffffffffffffff160217905550602082015181600101908161185d9190616e86565b5060408201518160020190816118739190616e86565b506060820151816003019080519060200190611890929190615250565b5050505050505b80806118a2906169b4565b9150506114fb565b50600360009054906101000a900473ffffffffffffffffffffffffffffffffffffffff1673ffffffffffffffffffffffffffffffffffffffff1663c47ebddc338660000151336040518463ffffffff1660e01b815260040161190e93929190616ff0565b600060405180830381600087803b15801561192857600080fd5b505af115801561193c573d6000803e3d6000fd5b505050505b50505050565b6000600160009054906101000a900473ffffffffffffffffffffffffffffffffffffffff16905090565b8073ffffffffffffffffffffffffffffffffffffffff163373ffffffffffffffffffffffffffffffffffffffff161480156119e857506119e781836040518060400160405280600881526020017f646f776e6c6f61640000000000000000000000000000000000000000000000008152506149d8565b5b8015611ae057506040516020016119fe90616a48565b60405160208183030381529060405280519060200120600160009054906101000a900473ffffffffffffffffffffffffffffffffffffffff1673ffffffffffffffffffffffffffffffffffffffff1662438ceb846040518263ffffffff1660e01b8152600401611a6e9190616a5d565b600060405180830381865afa158015611a8b573d6000803e3d6000fd5b505050506040513d6000823e3d601f19601f82011682018060405250810190611ab49190616581565b60200151604051602001611ac89190616606565b60405160208183030381529060405280519060200120145b15611b7757600360009054906101000a900473ffffffffffffffffffffffffffffffffffffffff1673ffffffffffffffffffffffffffffffffffffffff1663c47ebddc3384846040518463ffffffff1660e01b8152600401611b44939291906170a0565b600060405180830381600087803b158015611b5e57600080fd5b505af1158015611b72573d6000803e3d6000fd5b505050505b5050565b6000600260009054906101000a900473ffffffffffffffffffffffffffffffffffffffff16905090565b611baf8383611211565b8015611c535750600460009054906101000a900473ffffffffffffffffffffffffffffffffffffffff1673ffffffffffffffffffffffffffffffffffffffff1663bda49b1d826040518263ffffffff1660e01b8152600401611c11919061718a565b602060405180830381865afa158015611c2e573d6000803e3d6000fd5b505050506040513d601f19601f82011682018060405250810190611c529190616ad2565b5b15611f045760005b600080549050811015611f0257600460009054906101000a900473ffffffffffffffffffffffffffffffffffffffff1673ffffffffffffffffffffffffffffffffffffffff16635c99c71b8560008481548110611cbb57611cba6162ee565b5b906000526020600020906004020160000160009054906101000a900473ffffffffffffffffffffffffffffffffffffffff168660008681548110611d0257611d016162ee565b5b90600052602060002090600402016001016040518563ffffffff1660e01b8152600401611d329493929190616a7f565b602060405180830381865afa158015611d4f573d6000803e3d6000fd5b505050506040513d601f19601f82011682018060405250810190611d739190616ad2565b15611eef578160008281548110611d8d57611d8c6162ee565b5b90600052602060002090600402016003019080519060200190611db1929190615250565b50600360009054906101000a900473ffffffffffffffffffffffffffffffffffffffff1673ffffffffffffffffffffffffffffffffffffffff1663c47ebddc338587600460009054906101000a900473ffffffffffffffffffffffffffffffffffffffff1673ffffffffffffffffffffffffffffffffffffffff16636bb8d768886040518263ffffffff1660e01b8152600401611e4e919061718a565b600060405180830381865afa158015611e6b573d6000803e3d6000fd5b505050506040513d6000823e3d601f19601f82011682018060405250810190611e949190616581565b602001516040518563ffffffff1660e01b8152600401611eb794939291906171f8565b600060405180830381600087803b158015611ed157600080fd5b505af1158015611ee5573d6000803e3d6000fd5b5050505050611f05565b8080611efa906169b4565b915050611c5b565b505b5b505050565b611f126152a9565b8273ffffffffffffffffffffffffffffffffffffffff163373ffffffffffffffffffffffffffffffffffffffff16148015611f535750611f52838361105f565b5b80156121425750604051602001611f6990616a48565b60405160208183030381529060405280519060200120600160009054906101000a900473ffffffffffffffffffffffffffffffffffffffff1673ffffffffffffffffffffffffffffffffffffffff1662438ceb846040518263ffffffff1660e01b8152600401611fd99190616a5d565b600060405180830381865afa158015611ff6573d6000803e3d6000fd5b505050506040513d6000823e3d601f19601f8201168201806040525081019061201f9190616581565b602001516040516020016120339190616606565b604051602081830303815290604052805190602001201480612141575060405160200161205f906172aa565b60405160208183030381529060405280519060200120600160009054906101000a900473ffffffffffffffffffffffffffffffffffffffff1673ffffffffffffffffffffffffffffffffffffffff1662438ceb846040518263ffffffff1660e01b81526004016120cf9190616a5d565b600060405180830381865afa1580156120ec573d6000803e3d6000fd5b505050506040513d6000823e3d601f19601f820116820180604052508101906121159190616581565b602001516040516020016121299190616606565b60405160208183030381529060405280519060200120145b5b1561235e5760005b60008054905081101561235c57600460009054906101000a900473ffffffffffffffffffffffffffffffffffffffff1673ffffffffffffffffffffffffffffffffffffffff16635c99c71b85600084815481106121aa576121a96162ee565b5b906000526020600020906004020160000160009054906101000a900473ffffffffffffffffffffffffffffffffffffffff1686600086815481106121f1576121f06162ee565b5b90600052602060002090600402016001016040518563ffffffff1660e01b81526004016122219493929190616a7f565b602060405180830381865afa15801561223e573d6000803e3d6000fd5b505050506040513d601f19601f820116820180604052508101906122629190616ad2565b156123495760405180606001604052806001151581526020016000838154811061228f5761228e6162ee565b5b906000526020600020906004020160020180546122ab9061634c565b80601f01602080910402602001604051908101604052809291908181526020018280546122d79061634c565b80156123245780601f106122f957610100808354040283529160200191612324565b820191906000526020600020905b81548152906001019060200180831161230757829003601f168201915b50505050508152602001604051806020016040528060008152508152509150506123a6565b8080612354906169b4565b91505061214a565b505b60405180606001604052806000151581526020016040518060200160405280600081525081526020016040518060e0016040528060a48152602001617cfe60a4913981525090505b92915050565b60005b60008054905081101561274c576000600160009054906101000a900473ffffffffffffffffffffffffffffffffffffffff1673ffffffffffffffffffffffffffffffffffffffff1663f880680b600084815481106124105761240f6162ee565b5b90600052602060002090600402016001016040518263ffffffff1660e01b815260040161243d9190616427565b600060405180830381865afa15801561245a573d6000803e3d6000fd5b505050506040513d6000823e3d601f19601f820116820180604052508101906124839190616581565b6020015190506000600160009054906101000a900473ffffffffffffffffffffffffffffffffffffffff1673ffffffffffffffffffffffffffffffffffffffff1662438ceb600085815481106124dc576124db6162ee565b5b90600052602060002090600402016001016040518263ffffffff1660e01b81526004016125099190616427565b600060405180830381865afa158015612526573d6000803e3d6000fd5b505050506040513d6000823e3d601f19601f8201168201806040525081019061254f9190616581565b6020015190508473ffffffffffffffffffffffffffffffffffffffff16600084815481106125805761257f6162ee565b5b906000526020600020906004020160000160009054906101000a900473ffffffffffffffffffffffffffffffffffffffff1673ffffffffffffffffffffffffffffffffffffffff161480156126205750836040516020016125e19190616606565b60405160208183030381529060405280519060200120826040516020016126089190616606565b60405160208183030381529060405280519060200120145b8015612675575060405160200161263690616a48565b604051602081830303815290604052805190602001208160405160200161265d9190616606565b60405160208183030381529060405280519060200120145b1561273757600360009054906101000a900473ffffffffffffffffffffffffffffffffffffffff1673ffffffffffffffffffffffffffffffffffffffff1663c47ebddc33600086815481106126cd576126cc6162ee565b5b9060005260206000209060040201600101886040518463ffffffff1660e01b81526004016126fd9392919061730b565b600060405180830381600087803b15801561271757600080fd5b505af115801561272b573d6000803e3d6000fd5b5050505050505061274e565b50508080612744906169b4565b9150506123af565b505b5050565b60008273ffffffffffffffffffffffffffffffffffffffff163373ffffffffffffffffffffffffffffffffffffffff161415801561282b5750600160009054906101000a900473ffffffffffffffffffffffffffffffffffffffff1673ffffffffffffffffffffffffffffffffffffffff166352a9baef84846040518363ffffffff1660e01b81526004016127e8929190616aff565b602060405180830381865afa158015612805573d6000803e3d6000fd5b505050506040513d601f19601f820116820180604052508101906128299190616ad2565b155b8015612873575061287233836040518060400160405280600581526020017f73686172650000000000000000000000000000000000000000000000000000008152506149d8565b5b80156128865750612884838361105f565b155b801561292a5750600160009054906101000a900473ffffffffffffffffffffffffffffffffffffffff1673ffffffffffffffffffffffffffffffffffffffff16639bccd6ad836040518263ffffffff1660e01b81526004016128e89190616a5d565b602060405180830381865afa158015612905573d6000803e3d6000fd5b505050506040513d601f19601f820116820180604052508101906129299190616ad2565b5b8015612a22575060405160200161294090616a48565b60405160208183030381529060405280519060200120600160009054906101000a900473ffffffffffffffffffffffffffffffffffffffff1673ffffffffffffffffffffffffffffffffffffffff1662438ceb846040518263ffffffff1660e01b81526004016129b09190616a5d565b600060405180830381865afa1580156129cd573d6000803e3d6000fd5b505050506040513d6000823e3d601f19601f820116820180604052508101906129f69190616581565b60200151604051602001612a0a9190616606565b60405160208183030381529060405280519060200120145b8015612ac65750600260009054906101000a900473ffffffffffffffffffffffffffffffffffffffff1673ffffffffffffffffffffffffffffffffffffffff1663a240e426846040518263ffffffff1660e01b8152600401612a849190615ebc565b602060405180830381865afa158015612aa1573d6000803e3d6000fd5b505050506040513d601f19601f82011682018060405250810190612ac59190616ad2565b5b15612ad45760019050612ad9565b600090505b92915050565b6000600360009054906101000a900473ffffffffffffffffffffffffffffffffffffffff16905090565b600080600160009054906101000a900473ffffffffffffffffffffffffffffffffffffffff1673ffffffffffffffffffffffffffffffffffffffff1663922243ad846040518263ffffffff1660e01b8152600401612b679190616a5d565b600060405180830381865afa158015612b84573d6000803e3d6000fd5b505050506040513d6000823e3d601f19601f82011682018060405250810190612bad91906174c0565b60200151905060005b600080549050811015612d105760005b8251811015612cfc578573ffffffffffffffffffffffffffffffffffffffff1660008381548110612bfa57612bf96162ee565b5b906000526020600020906004020160000160009054906101000a900473ffffffffffffffffffffffffffffffffffffffff1673ffffffffffffffffffffffffffffffffffffffff16148015612cd85750828181518110612c5d57612c5c6162ee565b5b6020026020010151604051602001612c759190616606565b6040516020818303038152906040528051906020012060008381548110612c9f57612c9e6162ee565b5b9060005260206000209060040201600101604051602001612cc09190616cd8565b60405160208183030381529060405280519060200120145b15612ce95760019350505050612d17565b8080612cf4906169b4565b915050612bc6565b508080612d08906169b4565b915050612bb6565b5060009150505b92915050565b612d278484612752565b8015612e1f5750604051602001612d3d90616a48565b60405160208183030381529060405280519060200120600160009054906101000a900473ffffffffffffffffffffffffffffffffffffffff1673ffffffffffffffffffffffffffffffffffffffff1662438ceb856040518263ffffffff1660e01b8152600401612dad9190616a5d565b600060405180830381865afa158015612dca573d6000803e3d6000fd5b505050506040513d6000823e3d601f19601f82011682018060405250810190612df39190616581565b60200151604051602001612e079190616606565b60405160208183030381529060405280519060200120145b1561320a576000600460009054906101000a900473ffffffffffffffffffffffffffffffffffffffff1673ffffffffffffffffffffffffffffffffffffffff1663872e35a98686856040518463ffffffff1660e01b8152600401612e859392919061752c565b602060405180830381865afa158015612ea2573d6000803e3d6000fd5b505050506040513d601f19601f82011682018060405250810190612ec69190616ad2565b90508015613208576000600160009054906101000a900473ffffffffffffffffffffffffffffffffffffffff1673ffffffffffffffffffffffffffffffffffffffff1663fadc54f4866040518263ffffffff1660e01b8152600401612f2b9190616a5d565b600060405180830381865afa158015612f48573d6000803e3d6000fd5b505050506040513d6000823e3d601f19601f82011682018060405250810190612f719190617701565b60200151905060005b81518110156130ce576000828281518110612f9857612f976162ee565b5b6020026020010151600001519050600060405180608001604052808a73ffffffffffffffffffffffffffffffffffffffff168152602001838152602001888581518110612fe857612fe76162ee565b5b60200260200101518152602001878152509050600081908060018154018082558091505060019003906000526020600020906004020160009091909190915060008201518160000160006101000a81548173ffffffffffffffffffffffffffffffffffffffff021916908373ffffffffffffffffffffffffffffffffffffffff16021790555060208201518160010190816130839190616e86565b5060408201518160020190816130999190616e86565b5060608201518160030190805190602001906130b6929190615250565b505050505080806130c6906169b4565b915050612f7a565b50600360009054906101000a900473ffffffffffffffffffffffffffffffffffffffff1673ffffffffffffffffffffffffffffffffffffffff1663c47ebddc338789600460009054906101000a900473ffffffffffffffffffffffffffffffffffffffff1673ffffffffffffffffffffffffffffffffffffffff16636bb8d768896040518263ffffffff1660e01b815260040161316b919061718a565b600060405180830381865afa158015613188573d6000803e3d6000fd5b505050506040513d6000823e3d601f19601f820116820180604052508101906131b19190616581565b602001516040518563ffffffff1660e01b81526004016131d49493929190617796565b600060405180830381600087803b1580156131ee57600080fd5b505af1158015613202573d6000803e3d6000fd5b50505050505b505b50505050565b61325033826040518060400160405280600681526020017f64656c65746500000000000000000000000000000000000000000000000000008152506149d8565b8015613348575060405160200161326690616a48565b60405160208183030381529060405280519060200120600160009054906101000a900473ffffffffffffffffffffffffffffffffffffffff1673ffffffffffffffffffffffffffffffffffffffff1662438ceb836040518263ffffffff1660e01b81526004016132d69190616a5d565b600060405180830381865afa1580156132f3573d6000803e3d6000fd5b505050506040513d6000823e3d601f19601f8201168201806040525081019061331c9190616581565b602001516040516020016133309190616606565b60405160208183030381529060405280519060200120145b1561346c57600160009054906101000a900473ffffffffffffffffffffffffffffffffffffffff1673ffffffffffffffffffffffffffffffffffffffff166374546fdf826040518263ffffffff1660e01b81526004016133a89190616a5d565b600060405180830381600087803b1580156133c257600080fd5b505af11580156133d6573d6000803e3d6000fd5b50505050600360009054906101000a900473ffffffffffffffffffffffffffffffffffffffff1673ffffffffffffffffffffffffffffffffffffffff1663c47ebddc3383856040518463ffffffff1660e01b815260040161343993929190617848565b600060405180830381600087803b15801561345357600080fd5b505af1158015613467573d6000803e3d6000fd5b505050505b5050565b61347861522d565b8273ffffffffffffffffffffffffffffffffffffffff163373ffffffffffffffffffffffffffffffffffffffff161480156134b957506134b8838361105f565b5b80156136a857506040516020016134cf90616a48565b60405160208183030381529060405280519060200120600160009054906101000a900473ffffffffffffffffffffffffffffffffffffffff1673ffffffffffffffffffffffffffffffffffffffff1662438ceb846040518263ffffffff1660e01b815260040161353f9190616a5d565b600060405180830381865afa15801561355c573d6000803e3d6000fd5b505050506040513d6000823e3d601f19601f820116820180604052508101906135859190616581565b602001516040516020016135999190616606565b6040516020818303038152906040528051906020012014806136a757506040516020016135c5906172aa565b60405160208183030381529060405280519060200120600160009054906101000a900473ffffffffffffffffffffffffffffffffffffffff1673ffffffffffffffffffffffffffffffffffffffff1662438ceb846040518263ffffffff1660e01b81526004016136359190616a5d565b600060405180830381865afa158015613652573d6000803e3d6000fd5b505050506040513d6000823e3d601f19601f8201168201806040525081019061367b9190616581565b6020015160405160200161368f9190616606565b60405160208183030381529060405280519060200120145b5b1561384f576000600160009054906101000a900473ffffffffffffffffffffffffffffffffffffffff1673ffffffffffffffffffffffffffffffffffffffff1663fadc54f4846040518263ffffffff1660e01b815260040161370a9190616a5d565b600060405180830381865afa158015613727573d6000803e3d6000fd5b505050506040513d6000823e3d601f19601f820116820180604052508101906137509190617701565b6020015190506000815167ffffffffffffffff8111156137735761377261547b565b5b6040519080825280602002602001820160405280156137a657816020015b60608152602001906001900390816137915790505b50905060005b82518110156138185760006137df878584815181106137ce576137cd6162ee565b5b602002602001015160000151611f0a565b602001519050808383815181106137f9576137f86162ee565b5b6020026020010181905250508080613810906169b4565b9150506137ac565b50604051806060016040528060011515815260200182815260200160405180602001604052806000815250815250925050506138d6565b6040518060600160405280600015158152602001600067ffffffffffffffff81111561387e5761387d61547b565b5b6040519080825280602002602001820160405280156138b157816020015b606081526020019060019003908161389c5790505b5081526020016040518060e0016040528060a48152602001617cfe60a4913981525090505b92915050565b6138e68282611211565b15613cd4576000600160009054906101000a900473ffffffffffffffffffffffffffffffffffffffff1673ffffffffffffffffffffffffffffffffffffffff1663fadc54f4836040518263ffffffff1660e01b81526004016139489190616a5d565b600060405180830381865afa158015613965573d6000803e3d6000fd5b505050506040513d6000823e3d601f19601f8201168201806040525081019061398e9190617701565b60200151905060005b8151811015613c3c5760005b600080549050811015613c28578473ffffffffffffffffffffffffffffffffffffffff16600082815481106139db576139da6162ee565b5b906000526020600020906004020160000160009054906101000a900473ffffffffffffffffffffffffffffffffffffffff1673ffffffffffffffffffffffffffffffffffffffff16148015613a8d5750828281518110613a3e57613a3d6162ee565b5b6020026020010151600001518051906020012060008281548110613a6557613a646162ee565b5b9060005260206000209060040201600101604051613a83919061794f565b6040518091039020145b15613c155760006001600080549050613aa69190617966565b81548110613ab757613ab66162ee565b5b906000526020600020906004020160008281548110613ad957613ad86162ee565b5b90600052602060002090600402016000820160009054906101000a900473ffffffffffffffffffffffffffffffffffffffff168160000160006101000a81548173ffffffffffffffffffffffffffffffffffffffff021916908373ffffffffffffffffffffffffffffffffffffffff16021790555060018201816001019081613b6291906179b0565b5060028201816002019081613b7791906179b0565b506003820181600301908054613b8e9291906152cc565b509050506000805480613ba457613ba3617a98565b5b6001900381819060005260206000209060040201600080820160006101000a81549073ffffffffffffffffffffffffffffffffffffffff0219169055600182016000613bf09190615329565b600282016000613c009190615329565b600382016000613c109190615369565b505090555b8080613c20906169b4565b9150506139a3565b508080613c34906169b4565b915050613997565b50600360009054906101000a900473ffffffffffffffffffffffffffffffffffffffff1673ffffffffffffffffffffffffffffffffffffffff1663c47ebddc3384866040518463ffffffff1660e01b8152600401613c9c93929190617b13565b600060405180830381600087803b158015613cb657600080fd5b505af1158015613cca573d6000803e3d6000fd5b5050505050613cd5565b5b5050565b613ce161538a565b613cee826000015161469c565b8015613dea5750604051602001613d0490616a48565b60405160208183030381529060405280519060200120600160009054906101000a900473ffffffffffffffffffffffffffffffffffffffff1673ffffffffffffffffffffffffffffffffffffffff1662438ceb84600001516040518263ffffffff1660e01b8152600401613d789190616a5d565b600060405180830381865afa158015613d95573d6000803e3d6000fd5b505050506040513d6000823e3d601f19601f82011682018060405250810190613dbe9190616581565b60200151604051602001613dd29190616606565b60405160208183030381529060405280519060200120145b156140d8576000808054905067ffffffffffffffff811115613e0f57613e0e61547b565b5b604051908082528060200260200182016040528015613e3d5781602001602082028036833780820191505090505b5090506000805b60008054905081101561409e578460000151604051602001613e669190616606565b6040516020818303038152906040528051906020012060008281548110613e9057613e8f6162ee565b5b9060005260206000209060040201600101604051602001613eb19190616cd8565b60405160208183030381529060405280519060200120148015613fe45750604051602001613ede90616a48565b60405160208183030381529060405280519060200120600160009054906101000a900473ffffffffffffffffffffffffffffffffffffffff1673ffffffffffffffffffffffffffffffffffffffff1662438ceb60008481548110613f4557613f446162ee565b5b90600052602060002090600402016001016040518263ffffffff1660e01b8152600401613f729190616427565b600060405180830381865afa158015613f8f573d6000803e3d6000fd5b505050506040513d6000823e3d601f19601f82011682018060405250810190613fb89190616581565b60200151604051602001613fcc9190616606565b60405160208183030381529060405280519060200120145b1561408b5760008181548110613ffd57613ffc6162ee565b5b906000526020600020906004020160000160009054906101000a900473ffffffffffffffffffffffffffffffffffffffff16838381518110614042576140416162ee565b5b602002602001019073ffffffffffffffffffffffffffffffffffffffff16908173ffffffffffffffffffffffffffffffffffffffff16815250508180614087906169b4565b9250505b8080614096906169b4565b915050613e44565b508082526040518060600160405280600115158152602001838152602001604051806020016040528060008152508152509250505061415a565b6040518060600160405280600015158152602001600067ffffffffffffffff8111156141075761410661547b565b5b6040519080825280602002602001820160405280156141355781602001602082028036833780820191505090505b5081526020016040518060800160405280605b8152602001617da2605b913981525090505b919050565b61416d8383600001516150a7565b15614697576000600467ffffffffffffffff81111561418f5761418e61547b565b5b6040519080825280602002602001820160405280156141c257816020015b60608152602001906001900390816141ad5790505b5090506040518060400160405280600581526020017f73686172650000000000000000000000000000000000000000000000000000008152508160008151811061420f5761420e6162ee565b5b60200260200101819052506040518060400160405280600881526020017f646f776e6c6f616400000000000000000000000000000000000000000000000081525081600181518110614264576142636162ee565b5b60200260200101819052506040518060400160405280600681526020017f64656c6574650000000000000000000000000000000000000000000000000000815250816002815181106142b9576142b86162ee565b5b60200260200101819052506040518060400160405280600481526020017f65646974000000000000000000000000000000000000000000000000000000008152508160038151811061430e5761430d6162ee565b5b60200260200101819052506000600460009054906101000a900473ffffffffffffffffffffffffffffffffffffffff1673ffffffffffffffffffffffffffffffffffffffff1663872e35a9868660000151858860e001516040518563ffffffff1660e01b81526004016143849493929190617b77565b602060405180830381865afa1580156143a1573d6000803e3d6000fd5b505050506040513d601f19601f820116820180604052508101906143c59190616ad2565b9050801561469457600160009054906101000a900473ffffffffffffffffffffffffffffffffffffffff1673ffffffffffffffffffffffffffffffffffffffff1663bfddc42f856040518263ffffffff1660e01b81526004016144289190617bd1565b600060405180830381600087803b15801561444257600080fd5b505af1158015614456573d6000803e3d6000fd5b50505050600060405180608001604052808773ffffffffffffffffffffffffffffffffffffffff16815260200186600001518152602001858152602001848152509050600081908060018154018082558091505060019003906000526020600020906004020160009091909190915060008201518160000160006101000a81548173ffffffffffffffffffffffffffffffffffffffff021916908373ffffffffffffffffffffffffffffffffffffffff16021790555060208201518160010190816145219190616e86565b5060408201518160020190816145379190616e86565b506060820151816003019080519060200190614554929190615250565b505050600360009054906101000a900473ffffffffffffffffffffffffffffffffffffffff1673ffffffffffffffffffffffffffffffffffffffff1663c47ebddc33876000015189600460009054906101000a900473ffffffffffffffffffffffffffffffffffffffff1673ffffffffffffffffffffffffffffffffffffffff16636bb8d768896040518263ffffffff1660e01b81526004016145f7919061718a565b600060405180830381865afa158015614614573d6000803e3d6000fd5b505050506040513d6000823e3d601f19601f8201168201806040525081019061463d9190616581565b602001516040518563ffffffff1660e01b81526004016146609493929190617c3f565b600060405180830381600087803b15801561467a57600080fd5b505af115801561468e573d6000803e3d6000fd5b50505050505b50505b505050565b600080600090505b6000805490508110156149cd57600460009054906101000a900473ffffffffffffffffffffffffffffffffffffffff1673ffffffffffffffffffffffffffffffffffffffff16635c99c71b3360008481548110614704576147036162ee565b5b906000526020600020906004020160000160009054906101000a900473ffffffffffffffffffffffffffffffffffffffff16866000868154811061474b5761474a6162ee565b5b90600052602060002090600402016001016040518563ffffffff1660e01b815260040161477b9493929190616a7f565b602060405180830381865afa158015614798573d6000803e3d6000fd5b505050506040513d601f19601f820116820180604052508101906147bc9190616ad2565b80156149ab57506040516020016147d290616a48565b60405160208183030381529060405280519060200120600160009054906101000a900473ffffffffffffffffffffffffffffffffffffffff1673ffffffffffffffffffffffffffffffffffffffff1662438ceb856040518263ffffffff1660e01b81526004016148429190616a5d565b600060405180830381865afa15801561485f573d6000803e3d6000fd5b505050506040513d6000823e3d601f19601f820116820180604052508101906148889190616581565b6020015160405160200161489c9190616606565b6040516020818303038152906040528051906020012014806149aa57506040516020016148c8906172aa565b60405160208183030381529060405280519060200120600160009054906101000a900473ffffffffffffffffffffffffffffffffffffffff1673ffffffffffffffffffffffffffffffffffffffff1662438ceb856040518263ffffffff1660e01b81526004016149389190616a5d565b600060405180830381865afa158015614955573d6000803e3d6000fd5b505050506040513d6000823e3d601f19601f8201168201806040525081019061497e9190616581565b602001516040516020016149929190616606565b60405160208183030381529060405280519060200120145b5b156149ba5760019150506149d3565b80806149c5906169b4565b9150506146a4565b50600090505b919050565b60006040516020016149e990616a48565b60405160208183030381529060405280519060200120600160009054906101000a900473ffffffffffffffffffffffffffffffffffffffff1673ffffffffffffffffffffffffffffffffffffffff1662438ceb856040518263ffffffff1660e01b8152600401614a599190616a5d565b600060405180830381865afa158015614a76573d6000803e3d6000fd5b505050506040513d6000823e3d601f19601f82011682018060405250810190614a9f9190616581565b60200151604051602001614ab39190616606565b6040516020818303038152906040528051906020012003614b7a576000614ada8585610966565b60200151905060005b8151811015614b775783604051602001614afd9190616606565b60405160208183030381529060405280519060200120828281518110614b2657614b256162ee565b5b6020026020010151604051602001614b3e9190616606565b6040516020818303038152906040528051906020012003614b6457600192505050614b7f565b8080614b6f906169b4565b915050614ae3565b50505b600090505b9392505050565b6000614bc833836040518060400160405280600481526020017f65646974000000000000000000000000000000000000000000000000000000008152506149d8565b8015614cc05750604051602001614bde90616a48565b60405160208183030381529060405280519060200120600160009054906101000a900473ffffffffffffffffffffffffffffffffffffffff1673ffffffffffffffffffffffffffffffffffffffff1662438ceb846040518263ffffffff1660e01b8152600401614c4e9190616a5d565b600060405180830381865afa158015614c6b573d6000803e3d6000fd5b505050506040513d6000823e3d601f19601f82011682018060405250810190614c949190616581565b60200151604051602001614ca89190616606565b60405160208183030381529060405280519060200120145b15614cce5760019050614cd3565b600090505b919050565b60008073ffffffffffffffffffffffffffffffffffffffff16600160009054906101000a900473ffffffffffffffffffffffffffffffffffffffff1673ffffffffffffffffffffffffffffffffffffffff166347eb6fa787600001516040518263ffffffff1660e01b8152600401614d509190617cc8565b600060405180830381865afa158015614d6d573d6000803e3d6000fd5b505050506040513d6000823e3d601f19601f82011682018060405250810190614d969190616932565b602001516080015173ffffffffffffffffffffffffffffffffffffffff1614158015614e9a5750600073ffffffffffffffffffffffffffffffffffffffff16600160009054906101000a900473ffffffffffffffffffffffffffffffffffffffff1673ffffffffffffffffffffffffffffffffffffffff166347eb6fa786600001516040518263ffffffff1660e01b8152600401614e349190617cc8565b600060405180830381865afa158015614e51573d6000803e3d6000fd5b505050506040513d6000823e3d601f19601f82011682018060405250810190614e7a9190616932565b602001516080015173ffffffffffffffffffffffffffffffffffffffff16145b8015614ef45750604051602001614eb090616643565b604051602081830303815290604052805190602001208460200151604051602001614edb9190616606565b6040516020818303038152906040528051906020012014155b8015614f4e5750604051602001614f0a90616643565b604051602081830303815290604052805190602001208460a00151604051602001614f359190616606565b6040516020818303038152906040528051906020012014155b8015614fa85750604051602001614f6490616643565b604051602081830303815290604052805190602001208460c00151604051602001614f8f9190616606565b6040516020818303038152906040528051906020012014155b80156150035750604051602001614fbe90616643565b60405160208183030381529060405280519060200120846101000151604051602001614fea9190616606565b6040516020818303038152906040528051906020012014155b8015615010575081518351145b801561504f5750846080015173ffffffffffffffffffffffffffffffffffffffff16856080015173ffffffffffffffffffffffffffffffffffffffff16145b801561508c5750600073ffffffffffffffffffffffffffffffffffffffff16856080015173ffffffffffffffffffffffffffffffffffffffff1614155b1561509a576001905061509f565b600090505b949350505050565b60008273ffffffffffffffffffffffffffffffffffffffff163373ffffffffffffffffffffffffffffffffffffffff161480156150eb57506150e9838361105f565b155b801561518f5750600260009054906101000a900473ffffffffffffffffffffffffffffffffffffffff1673ffffffffffffffffffffffffffffffffffffffff1663a240e426846040518263ffffffff1660e01b815260040161514d9190615ebc565b602060405180830381865afa15801561516a573d6000803e3d6000fd5b505050506040513d601f19601f8201168201806040525081019061518e9190616ad2565b5b1561519d57600190506151a2565b600090505b92915050565b604051806060016040528060001515815260200160608152602001606081525090565b60405180610120016040528060608152602001606081526020016000815260200160608152602001600073ffffffffffffffffffffffffffffffffffffffff168152602001606081526020016060815260200160608152602001606081525090565b604051806060016040528060001515815260200160608152602001606081525090565b828054828255906000526020600020908101928215615298579160200282015b828111156152975782518290816152879190616e86565b5091602001919060010190615270565b5b5090506152a591906153ad565b5090565b604051806060016040528060001515815260200160608152602001606081525090565b8280548282559060005260206000209081019282156153185760005260206000209182015b82811115615317578282908161530791906179b0565b50916001019190600101906152f1565b5b50905061532591906153ad565b5090565b5080546153359061634c565b6000825580601f106153475750615366565b601f01602090049060005260206000209081019061536591906153d1565b5b50565b508054600082559060005260206000209081019061538791906153ad565b50565b604051806060016040528060001515815260200160608152602001606081525090565b5b808211156153cd57600081816153c49190615329565b506001016153ae565b5090565b5b808211156153ea5760008160009055506001016153d2565b5090565b6000604051905090565b600080fd5b600080fd5b600073ffffffffffffffffffffffffffffffffffffffff82169050919050565b600061542d82615402565b9050919050565b61543d81615422565b811461544857600080fd5b50565b60008135905061545a81615434565b92915050565b600080fd5b600080fd5b6000601f19601f8301169050919050565b7f4e487b7100000000000000000000000000000000000000000000000000000000600052604160045260246000fd5b6154b38261546a565b810181811067ffffffffffffffff821117156154d2576154d161547b565b5b80604052505050565b60006154e56153ee565b90506154f182826154aa565b919050565b600067ffffffffffffffff8211156155115761551061547b565b5b61551a8261546a565b9050602081019050919050565b82818337600083830152505050565b6000615549615544846154f6565b6154db565b90508281526020810184848401111561556557615564615465565b5b615570848285615527565b509392505050565b600082601f83011261558d5761558c615460565b5b813561559d848260208601615536565b91505092915050565b600080604083850312156155bd576155bc6153f8565b5b60006155cb8582860161544b565b925050602083013567ffffffffffffffff8111156155ec576155eb6153fd565b5b6155f885828601615578565b9150509250929050565b60008115159050919050565b61561781615602565b82525050565b600081519050919050565b600082825260208201905092915050565b6000819050602082019050919050565b600081519050919050565b600082825260208201905092915050565b60005b83811015615683578082015181840152602081019050615668565b60008484015250505050565b600061569a82615649565b6156a48185615654565b93506156b4818560208601615665565b6156bd8161546a565b840191505092915050565b6000819050919050565b6156db816156c8565b82525050565b6156ea81615422565b82525050565b600061012083016000830151848203600086015261570e828261568f565b91505060208301518482036020860152615728828261568f565b915050604083015161573d60408601826156d2565b5060608301518482036060860152615755828261568f565b915050608083015161576a60808601826156e1565b5060a083015184820360a0860152615782828261568f565b91505060c083015184820360c086015261579c828261568f565b91505060e083015184820360e08601526157b6828261568f565b9150506101008301518482036101008601526157d2828261568f565b9150508091505092915050565b60006157eb83836156f0565b905092915050565b6000602082019050919050565b600061580b8261561d565b6158158185615628565b93508360208202850161582785615639565b8060005b85811015615863578484038952815161584485826157df565b945061584f836157f3565b925060208a0199505060018101905061582b565b50829750879550505050505092915050565b600060608301600083015161588d600086018261560e565b50602083015184820360208601526158a58282615800565b915050604083015184820360408601526158bf828261568f565b9150508091505092915050565b600060208201905081810360008301526158e68184615875565b905092915050565b600081519050919050565b600082825260208201905092915050565b6000819050602082019050919050565b6000615926838361568f565b905092915050565b6000602082019050919050565b6000615946826158ee565b61595081856158f9565b9350836020820285016159628561590a565b8060005b8581101561599e578484038952815161597f858261591a565b945061598a8361592e565b925060208a01995050600181019050615966565b50829750879550505050505092915050565b60006060830160008301516159c8600086018261560e565b50602083015184820360208601526159e0828261593b565b915050604083015184820360408601526159fa828261568f565b9150508091505092915050565b60006020820190508181036000830152615a2181846159b0565b905092915050565b615a3281615602565b82525050565b6000602082019050615a4d6000830184615a29565b92915050565b600080fd5b600080fd5b615a66816156c8565b8114615a7157600080fd5b50565b600081359050615a8381615a5d565b92915050565b60006101208284031215615aa057615a9f615a53565b5b615aab6101206154db565b9050600082013567ffffffffffffffff811115615acb57615aca615a58565b5b615ad784828501615578565b600083015250602082013567ffffffffffffffff811115615afb57615afa615a58565b5b615b0784828501615578565b6020830152506040615b1b84828501615a74565b604083015250606082013567ffffffffffffffff811115615b3f57615b3e615a58565b5b615b4b84828501615578565b6060830152506080615b5f8482850161544b565b60808301525060a082013567ffffffffffffffff811115615b8357615b82615a58565b5b615b8f84828501615578565b60a08301525060c082013567ffffffffffffffff811115615bb357615bb2615a58565b5b615bbf84828501615578565b60c08301525060e082013567ffffffffffffffff811115615be357615be2615a58565b5b615bef84828501615578565b60e08301525061010082013567ffffffffffffffff811115615c1457615c13615a58565b5b615c2084828501615578565b6101008301525092915050565b600067ffffffffffffffff821115615c4857615c4761547b565b5b602082029050602081019050919050565b600080fd5b6000615c71615c6c84615c2d565b6154db565b90508083825260208201905060208402830185811115615c9457615c93615c59565b5b835b81811015615cbd5780615ca9888261544b565b845260208401935050602081019050615c96565b5050509392505050565b600082601f830112615cdc57615cdb615460565b5b8135615cec848260208601615c5e565b91505092915050565b600067ffffffffffffffff821115615d1057615d0f61547b565b5b602082029050602081019050919050565b6000615d34615d2f84615cf5565b6154db565b90508083825260208201905060208402830185811115615d5757615d56615c59565b5b835b81811015615d9e57803567ffffffffffffffff811115615d7c57615d7b615460565b5b808601615d898982615578565b85526020850194505050602081019050615d59565b5050509392505050565b600082601f830112615dbd57615dbc615460565b5b8135615dcd848260208601615d21565b91505092915050565b60008060008060808587031215615df057615def6153f8565b5b600085013567ffffffffffffffff811115615e0e57615e0d6153fd565b5b615e1a87828801615a89565b945050602085013567ffffffffffffffff811115615e3b57615e3a6153fd565b5b615e4787828801615a89565b935050604085013567ffffffffffffffff811115615e6857615e676153fd565b5b615e7487828801615cc7565b925050606085013567ffffffffffffffff811115615e9557615e946153fd565b5b615ea187828801615da8565b91505092959194509250565b615eb681615422565b82525050565b6000602082019050615ed16000830184615ead565b92915050565b60008060408385031215615eee57615eed6153f8565b5b600083013567ffffffffffffffff811115615f0c57615f0b6153fd565b5b615f1885828601615578565b9250506020615f298582860161544b565b9150509250929050565b600080600060608486031215615f4c57615f4b6153f8565b5b6000615f5a8682870161544b565b935050602084013567ffffffffffffffff811115615f7b57615f7a6153fd565b5b615f8786828701615578565b925050604084013567ffffffffffffffff811115615fa857615fa76153fd565b5b615fb486828701615da8565b9150509250925092565b6000606083016000830151615fd6600086018261560e565b5060208301518482036020860152615fee828261568f565b91505060408301518482036040860152616008828261568f565b9150508091505092915050565b6000602082019050818103600083015261602f8184615fbe565b905092915050565b60008060008060808587031215616051576160506153f8565b5b600061605f8782880161544b565b945050602085013567ffffffffffffffff8111156160805761607f6153fd565b5b61608c87828801615578565b935050604085013567ffffffffffffffff8111156160ad576160ac6153fd565b5b6160b987828801615da8565b925050606085013567ffffffffffffffff8111156160da576160d96153fd565b5b6160e687828801615da8565b91505092959194509250565b600060208284031215616108576161076153f8565b5b600082013567ffffffffffffffff811115616126576161256153fd565b5b61613284828501615a89565b91505092915050565b600081519050919050565b600082825260208201905092915050565b6000819050602082019050919050565b600061617383836156e1565b60208301905092915050565b6000602082019050919050565b60006161978261613b565b6161a18185616146565b93506161ac83616157565b8060005b838110156161dd5781516161c48882616167565b97506161cf8361617f565b9250506001810190506161b0565b5085935050505092915050565b6000606083016000830151616202600086018261560e565b506020830151848203602086015261621a828261618c565b91505060408301518482036040860152616234828261568f565b9150508091505092915050565b6000602082019050818103600083015261625b81846161ea565b905092915050565b60008060006060848603121561627c5761627b6153f8565b5b600061628a8682870161544b565b935050602084013567ffffffffffffffff8111156162ab576162aa6153fd565b5b6162b786828701615a89565b925050604084013567ffffffffffffffff8111156162d8576162d76153fd565b5b6162e486828701615578565b9150509250925092565b7f4e487b7100000000000000000000000000000000000000000000000000000000600052603260045260246000fd5b7f4e487b7100000000000000000000000000000000000000000000000000000000600052602260045260246000fd5b6000600282049050600182168061636457607f821691505b6020821081036163775761637661631d565b5b50919050565b600082825260208201905092915050565b60008190508160005260206000209050919050565b600081546163b08161634c565b6163ba818661637d565b945060018216600081146163d557600181146163eb5761641e565b60ff19831686528115156020028601935061641e565b6163f48561638e565b60005b83811015616416578154818901526001820191506020810190506163f7565b808801955050505b50505092915050565b6000602082019050818103600083015261644181846163a3565b905092915050565b61645281615602565b811461645d57600080fd5b50565b60008151905061646f81616449565b92915050565b6000616488616483846154f6565b6154db565b9050828152602081018484840111156164a4576164a3615465565b5b6164af848285615665565b509392505050565b600082601f8301126164cc576164cb615460565b5b81516164dc848260208601616475565b91505092915050565b6000606082840312156164fb576164fa615a53565b5b61650560606154db565b9050600061651584828501616460565b600083015250602082015167ffffffffffffffff81111561653957616538615a58565b5b616545848285016164b7565b602083015250604082015167ffffffffffffffff81111561656957616568615a58565b5b616575848285016164b7565b60408301525092915050565b600060208284031215616597576165966153f8565b5b600082015167ffffffffffffffff8111156165b5576165b46153fd565b5b6165c1848285016164e5565b91505092915050565b600081905092915050565b60006165e082615649565b6165ea81856165ca565b93506165fa818560208601615665565b80840191505092915050565b600061661282846165d5565b915081905092915050565b50565b600061662d6000836165ca565b91506166388261661d565b600082019050919050565b600061664e82616620565b9150819050919050565b600061666382615649565b61666d818561637d565b935061667d818560208601615665565b6166868161546a565b840191505092915050565b600060408201905081810360008301526166ab8185616658565b905081810360208301526166bf8184616658565b90509392505050565b6000815190506166d781615a5d565b92915050565b6000815190506166ec81615434565b92915050565b6000610120828403121561670957616708615a53565b5b6167146101206154db565b9050600082015167ffffffffffffffff81111561673457616733615a58565b5b616740848285016164b7565b600083015250602082015167ffffffffffffffff81111561676457616763615a58565b5b616770848285016164b7565b6020830152506040616784848285016166c8565b604083015250606082015167ffffffffffffffff8111156167a8576167a7615a58565b5b6167b4848285016164b7565b60608301525060806167c8848285016166dd565b60808301525060a082015167ffffffffffffffff8111156167ec576167eb615a58565b5b6167f8848285016164b7565b60a08301525060c082015167ffffffffffffffff81111561681c5761681b615a58565b5b616828848285016164b7565b60c08301525060e082015167ffffffffffffffff81111561684c5761684b615a58565b5b616858848285016164b7565b60e08301525061010082015167ffffffffffffffff81111561687d5761687c615a58565b5b616889848285016164b7565b6101008301525092915050565b6000606082840312156168ac576168ab615a53565b5b6168b660606154db565b905060006168c684828501616460565b600083015250602082015167ffffffffffffffff8111156168ea576168e9615a58565b5b6168f6848285016166f2565b602083015250604082015167ffffffffffffffff81111561691a57616919615a58565b5b616926848285016164b7565b60408301525092915050565b600060208284031215616948576169476153f8565b5b600082015167ffffffffffffffff811115616966576169656153fd565b5b61697284828501616896565b91505092915050565b7f4e487b7100000000000000000000000000000000000000000000000000000000600052601160045260246000fd5b6000819050919050565b60006169bf826169aa565b91507fffffffffffffffffffffffffffffffffffffffffffffffffffffffffffffffff82036169f1576169f061697b565b5b600182019050919050565b7f6163746976650000000000000000000000000000000000000000000000000000600082015250565b6000616a326006836165ca565b9150616a3d826169fc565b600682019050919050565b6000616a5382616a25565b9150819050919050565b60006020820190508181036000830152616a778184616658565b905092915050565b6000608082019050616a946000830187615ead565b616aa16020830186615ead565b8181036040830152616ab38185616658565b90508181036060830152616ac781846163a3565b905095945050505050565b600060208284031215616ae857616ae76153f8565b5b6000616af684828501616460565b91505092915050565b6000604082019050616b146000830185615ead565b8181036020830152616b268184616658565b90509392505050565b6000610120830160008301518482036000860152616b4d828261568f565b91505060208301518482036020860152616b67828261568f565b9150506040830151616b7c60408601826156d2565b5060608301518482036060860152616b94828261568f565b9150506080830151616ba960808601826156e1565b5060a083015184820360a0860152616bc1828261568f565b91505060c083015184820360c0860152616bdb828261568f565b91505060e083015184820360e0860152616bf5828261568f565b915050610100830151848203610100860152616c11828261568f565b9150508091505092915050565b60006040820190508181036000830152616c388185616b2f565b90508181036020830152616c4c8184616b2f565b90509392505050565b60008154616c628161634c565b616c6c81866165ca565b94506001821660008114616c875760018114616c9c57616ccf565b60ff1983168652811515820286019350616ccf565b616ca58561638e565b60005b83811015616cc757815481890152600182019150602081019050616ca8565b838801955050505b50505092915050565b6000616ce48284616c55565b915081905092915050565b60006020601f8301049050919050565b600082821b905092915050565b600060088302616d3c7fffffffffffffffffffffffffffffffffffffffffffffffffffffffffffffffff82616cff565b616d468683616cff565b95508019841693508086168417925050509392505050565b6000819050919050565b6000616d83616d7e616d79846169aa565b616d5e565b6169aa565b9050919050565b6000819050919050565b616d9d83616d68565b616db1616da982616d8a565b848454616d0c565b825550505050565b600090565b616dc6616db9565b616dd1818484616d94565b505050565b5b81811015616df557616dea600082616dbe565b600181019050616dd7565b5050565b601f821115616e3a57616e0b8161638e565b616e1484616cef565b81016020851015616e23578190505b616e37616e2f85616cef565b830182616dd6565b50505b505050565b600082821c905092915050565b6000616e5d60001984600802616e3f565b1980831691505092915050565b6000616e768383616e4c565b9150826002028217905092915050565b616e8f82615649565b67ffffffffffffffff811115616ea857616ea761547b565b5b616eb2825461634c565b616ebd828285616df9565b600060209050601f831160018114616ef05760008415616ede578287015190505b616ee88582616e6a565b865550616f50565b601f198416616efe8661638e565b60005b82811015616f2657848901518255600182019150602085019450602081019050616f01565b86831015616f435784890151616f3f601f891682616e4c565b8355505b6001600288020188555050505b505050505050565b7f2d00000000000000000000000000000000000000000000000000000000000000600082015250565b6000616f8e60018361637d565b9150616f9982616f58565b602082019050919050565b7f6564697400000000000000000000000000000000000000000000000000000000600082015250565b6000616fda60048361637d565b9150616fe582616fa4565b602082019050919050565b600060a0820190506170056000830186615ead565b81810360208301526170178185616658565b90506170266040830184615ead565b818103606083015261703781616f81565b9050818103608083015261704a81616fcd565b9050949350505050565b7f646f776e6c6f6164000000000000000000000000000000000000000000000000600082015250565b600061708a60088361637d565b915061709582617054565b602082019050919050565b600060a0820190506170b56000830186615ead565b81810360208301526170c78185616658565b90506170d66040830184615ead565b81810360608301526170e781616f81565b905081810360808301526170fa8161707d565b9050949350505050565b600082825260208201905092915050565b6000617120826158ee565b61712a8185617104565b93508360208202850161713c8561590a565b8060005b858110156171785784840389528151617159858261591a565b94506171648361592e565b925060208a01995050600181019050617140565b50829750879550505050505092915050565b600060208201905081810360008301526171a48184617115565b905092915050565b7f757064617465207065726d697373696f6e730000000000000000000000000000600082015250565b60006171e260128361637d565b91506171ed826171ac565b602082019050919050565b600060a08201905061720d6000830187615ead565b818103602083015261721f8186616658565b905061722e6040830185615ead565b81810360608301526172408184616658565b90508181036080830152617253816171d5565b905095945050505050565b7f6564697465640000000000000000000000000000000000000000000000000000600082015250565b60006172946006836165ca565b915061729f8261725e565b600682019050919050565b60006172b582617287565b9150819050919050565b7f7375636365737320766572696669636174696f6e000000000000000000000000600082015250565b60006172f560148361637d565b9150617300826172bf565b602082019050919050565b600060a0820190506173206000830186615ead565b818103602083015261733281856163a3565b90506173416040830184615ead565b818103606083015261735281616f81565b90508181036080830152617365816172e8565b9050949350505050565b600061738261737d84615cf5565b6154db565b905080838252602082019050602084028301858111156173a5576173a4615c59565b5b835b818110156173ec57805167ffffffffffffffff8111156173ca576173c9615460565b5b8086016173d789826164b7565b855260208501945050506020810190506173a7565b5050509392505050565b600082601f83011261740b5761740a615460565b5b815161741b84826020860161736f565b91505092915050565b60006060828403121561743a57617439615a53565b5b61744460606154db565b9050600061745484828501616460565b600083015250602082015167ffffffffffffffff81111561747857617477615a58565b5b617484848285016173f6565b602083015250604082015167ffffffffffffffff8111156174a8576174a7615a58565b5b6174b4848285016164b7565b60408301525092915050565b6000602082840312156174d6576174d56153f8565b5b600082015167ffffffffffffffff8111156174f4576174f36153fd565b5b61750084828501617424565b91505092915050565b600061751660008361637d565b91506175218261661d565b600082019050919050565b60006080820190506175416000830186615ead565b81810360208301526175538185616658565b905081810360408301526175678184617115565b9050818103606083015261757a81617509565b9050949350505050565b600067ffffffffffffffff82111561759f5761759e61547b565b5b602082029050602081019050919050565b60006175c36175be84617584565b6154db565b905080838252602082019050602084028301858111156175e6576175e5615c59565b5b835b8181101561762d57805167ffffffffffffffff81111561760b5761760a615460565b5b80860161761889826166f2565b855260208501945050506020810190506175e8565b5050509392505050565b600082601f83011261764c5761764b615460565b5b815161765c8482602086016175b0565b91505092915050565b60006060828403121561767b5761767a615a53565b5b61768560606154db565b9050600061769584828501616460565b600083015250602082015167ffffffffffffffff8111156176b9576176b8615a58565b5b6176c584828501617637565b602083015250604082015167ffffffffffffffff8111156176e9576176e8615a58565b5b6176f5848285016164b7565b60408301525092915050565b600060208284031215617717576177166153f8565b5b600082015167ffffffffffffffff811115617735576177346153fd565b5b61774184828501617665565b91505092915050565b7f7368617265000000000000000000000000000000000000000000000000000000600082015250565b600061778060058361637d565b915061778b8261774a565b602082019050919050565b600060a0820190506177ab6000830187615ead565b81810360208301526177bd8186616658565b90506177cc6040830185615ead565b81810360608301526177de8184616658565b905081810360808301526177f181617773565b905095945050505050565b7f64656c6574656400000000000000000000000000000000000000000000000000600082015250565b600061783260078361637d565b915061783d826177fc565b602082019050919050565b600060a08201905061785d6000830186615ead565b818103602083015261786f8185616658565b905061787e6040830184615ead565b818103606083015261788f81616f81565b905081810360808301526178a281617825565b9050949350505050565b600081905092915050565b60008190508160005260206000209050919050565b600081546178d98161634c565b6178e381866178ac565b945060018216600081146178fe576001811461791357617946565b60ff1983168652811515820286019350617946565b61791c856178b7565b60005b8381101561793e5781548189015260018201915060208101905061791f565b838801955050505b50505092915050565b600061795b82846178cc565b915081905092915050565b6000617971826169aa565b915061797c836169aa565b92508282039050818111156179945761799361697b565b5b92915050565b6000815490506179a98161634c565b9050919050565b8181036179be575050617a96565b6179c78261799a565b67ffffffffffffffff8111156179e0576179df61547b565b5b6179ea825461634c565b6179f5828285616df9565b6000601f831160018114617a245760008415617a12578287015490505b617a1c8582616e6a565b865550617a8f565b601f198416617a328761638e565b9650617a3d8661638e565b60005b82811015617a6557848901548255600182019150600185019450602081019050617a40565b86831015617a825784890154617a7e601f891682616e4c565b8355505b6001600288020188555050505b5050505050505b565b7f4e487b7100000000000000000000000000000000000000000000000000000000600052603160045260246000fd5b7f72656d6f76656420616363657373000000000000000000000000000000000000600082015250565b6000617afd600e8361637d565b9150617b0882617ac7565b602082019050919050565b600060a082019050617b286000830186615ead565b8181036020830152617b3a8185616658565b9050617b496040830184615ead565b8181036060830152617b5a81616f81565b90508181036080830152617b6d81617af0565b9050949350505050565b6000608082019050617b8c6000830187615ead565b8181036020830152617b9e8186616658565b90508181036040830152617bb28185617115565b90508181036060830152617bc68184616658565b905095945050505050565b60006020820190508181036000830152617beb8184616b2f565b905092915050565b7f75706c6f61640000000000000000000000000000000000000000000000000000600082015250565b6000617c2960068361637d565b9150617c3482617bf3565b602082019050919050565b600060a082019050617c546000830187615ead565b8181036020830152617c668186616658565b9050617c756040830185615ead565b8181036060830152617c878184616658565b90508181036080830152617c9a81617c1c565b905095945050505050565b6000617cb260068361637d565b9150617cbd826169fc565b602082019050919050565b60006040820190508181036000830152617ce28184616658565b90508181036020830152617cf581617ca5565b90509291505056fe4d616b65207375726520746865207472616e73616374696f6e20657865637574657220617320746f206265207468652073616d652061732074686520757365722c2074686520757365722068617320746f206265206173736f6369617465642077697468207468652066696c652c20616e64207468652066696c652068617320746f20626520696e2074686520616374697665206f72206564697465642073746174652e536f6d657468696e672077656e742077726f6e67207768696c6520747279696e6720746f2067657420746865207573657273207769746820646f776e6c6f6164207065726d697373696f6e73206f766572207468652066696c652e546865207472616e61736374696f6e2065786563757465722073686f756c64206265207468652073616d6520617320746865207573657220746f20676574207468652066696c65732066726f6d2e546865207472616e73616374696f6e2065786563757465722068617320746f206265206173736f6369617465642077697468207468652066696c652c20616e64207468652066696c652073686f756c6420626520696e20746865206163746976652073746174652ea264697066735822122086b6dc80312ae27744406e1057f5cccdb81e5d589380aed991d7d03685eefe8764736f6c6343000813003360806040523480156200001157600080fd5b50604051620038a2380380620038a28339818101604052810190620000379190620000e9565b80600260006101000a81548173ffffffffffffffffffffffffffffffffffffffff021916908373ffffffffffffffffffffffffffffffffffffffff160217905550506200011b565b600080fd5b600073ffffffffffffffffffffffffffffffffffffffff82169050919050565b6000620000b18262000084565b9050919050565b620000c381620000a4565b8114620000cf57600080fd5b50565b600081519050620000e381620000b8565b92915050565b6000602082840312156200010257620001016200007f565b5b60006200011284828501620000d2565b91505092915050565b613777806200012b6000396000f3fe608060405234801561001057600080fd5b50600436106100a85760003560e01c806395f0f0bb1161007157806395f0f0bb146101895780639bccd6ad146101a5578063bfddc42f146101d5578063e8d56b8b146101f1578063f880680b1461020d578063fadc54f41461023d576100a8565b8062438ceb146100ad57806347eb6fa7146100dd57806352a9baef1461010d57806374546fdf1461013d578063922243ad14610159575b600080fd5b6100c760048036038101906100c291906125cd565b61026d565b6040516100d49190612707565b60405180910390f35b6100f760048036038101906100f29190612729565b610352565b6040516101049190612941565b60405180910390f35b6101276004803603810190610122919061298f565b610a14565b60405161013491906129fa565b60405180910390f35b610157600480360381019061015291906125cd565b610a9e565b005b610173600480360381019061016e91906125cd565b610b5b565b6040516101809190612b2e565b60405180910390f35b6101a3600480360381019061019e9190612d2a565b610f10565b005b6101bf60048036038101906101ba91906125cd565b61123b565b6040516101cc91906129fa565b60405180910390f35b6101ef60048036038101906101ea9190612da2565b6112df565b005b61020b60048036038101906102069190612deb565b61150e565b005b610227600480360381019061022291906125cd565b61165e565b6040516102349190612707565b60405180910390f35b610257600480360381019061025291906125cd565b6117e5565b6040516102649190612f31565b60405180910390f35b61027561237f565b60405180606001604052806001151581526020016000846040516102999190612f8f565b908152602001604051809103902060070180546102b590612fd5565b80601f01602080910402602001604051908101604052809291908181526020018280546102e190612fd5565b801561032e5780601f106103035761010080835404028352916020019161032e565b820191906000526020600020905b81548152906001019060200180831161031157829003601f168201915b50505050508152602001604051806020016040528060008152508152509050919050565b61035a6123a2565b6000808460405161036b9190612f8f565b9081526020016040518091039020600101805461038790612fd5565b90501180156104555750816040516020016103a29190612f8f565b604051602081830303815290604052805190602001206000846040516103c89190612f8f565b90815260200160405180910390206007016040516020016103e9919061309e565b6040516020818303038152906040528051906020012014806104545750604051602001610415906130db565b604051602081830303815290604052805190602001208260405160200161043c9190612f8f565b60405160208183030381529060405280519060200120145b5b1561091557604051806060016040528060011515815260200160008560405161047e9190612f8f565b9081526020016040518091039020604051806101200160405290816000820180546104a890612fd5565b80601f01602080910402602001604051908101604052809291908181526020018280546104d490612fd5565b80156105215780601f106104f657610100808354040283529160200191610521565b820191906000526020600020905b81548152906001019060200180831161050457829003601f168201915b5050505050815260200160018201805461053a90612fd5565b80601f016020809104026020016040519081016040528092919081815260200182805461056690612fd5565b80156105b35780601f10610588576101008083540402835291602001916105b3565b820191906000526020600020905b81548152906001019060200180831161059657829003601f168201915b50505050508152602001600282015481526020016003820180546105d690612fd5565b80601f016020809104026020016040519081016040528092919081815260200182805461060290612fd5565b801561064f5780601f106106245761010080835404028352916020019161064f565b820191906000526020600020905b81548152906001019060200180831161063257829003601f168201915b505050505081526020016004820160009054906101000a900473ffffffffffffffffffffffffffffffffffffffff1673ffffffffffffffffffffffffffffffffffffffff1673ffffffffffffffffffffffffffffffffffffffff1681526020016005820180546106be90612fd5565b80601f01602080910402602001604051908101604052809291908181526020018280546106ea90612fd5565b80156107375780601f1061070c57610100808354040283529160200191610737565b820191906000526020600020905b81548152906001019060200180831161071a57829003601f168201915b5050505050815260200160068201805461075090612fd5565b80601f016020809104026020016040519081016040528092919081815260200182805461077c90612fd5565b80156107c95780601f1061079e576101008083540402835291602001916107c9565b820191906000526020600020905b8154815290600101906020018083116107ac57829003601f168201915b505050505081526020016007820180546107e290612fd5565b80601f016020809104026020016040519081016040528092919081815260200182805461080e90612fd5565b801561085b5780601f106108305761010080835404028352916020019161085b565b820191906000526020600020905b81548152906001019060200180831161083e57829003601f168201915b5050505050815260200160088201805461087490612fd5565b80601f01602080910402602001604051908101604052809291908181526020018280546108a090612fd5565b80156108ed5780601f106108c2576101008083540402835291602001916108ed565b820191906000526020600020905b8154815290600101906020018083116108d057829003601f168201915b5050505050815250508152602001604051806020016040528060008152508152509050610a0e565b604051806060016040528060001515815260200160405180610120016040528060405180602001604052806000815250815260200160405180602001604052806000815250815260200160008152602001604051806020016040528060008152508152602001600073ffffffffffffffffffffffffffffffffffffffff16815260200160405180602001604052806000815250815260200160405180602001604052806000815250815260200160405180602001604052806000815250815260200160405180602001604052806000815250815250815260200160405180608001604052806041815260200161367a6041913981525090505b92915050565b60008273ffffffffffffffffffffffffffffffffffffffff16600083604051610a3d9190612f8f565b908152602001604051809103902060040160009054906101000a900473ffffffffffffffffffffffffffffffffffffffff1673ffffffffffffffffffffffffffffffffffffffff1603610a935760019050610a98565b600090505b92915050565b600360009054906101000a900473ffffffffffffffffffffffffffffffffffffffff1673ffffffffffffffffffffffffffffffffffffffff163373ffffffffffffffffffffffffffffffffffffffff1603610b58576040518060400160405280600881526020017f6465616374697665000000000000000000000000000000000000000000000000815250600082604051610b399190612f8f565b90815260200160405180910390206007019081610b569190613291565b505b50565b610b636123cb565b600360009054906101000a900473ffffffffffffffffffffffffffffffffffffffff1673ffffffffffffffffffffffffffffffffffffffff163373ffffffffffffffffffffffffffffffffffffffff1603610e8457600060018054905067ffffffffffffffff811115610bd957610bd86124a2565b5b604051908082528060200260200182016040528015610c0c57816020015b6060815260200190600190039081610bf75790505b5090506000805b600180549050811015610e4a5784604051602001610c319190612f8f565b60405160208183030381529060405280519060200120600060018381548110610c5d57610c5c613363565b5b90600052602060002001604051610c74919061309e565b9081526020016040518091039020600101604051602001610c95919061309e565b60405160208183030381529060405280519060200120148015610d3e5750604051602001610cc2906133de565b60405160208183030381529060405280519060200120600060018381548110610cee57610ced613363565b5b90600052602060002001604051610d05919061309e565b9081526020016040518091039020600701604051602001610d26919061309e565b60405160208183030381529060405280519060200120145b15610e3757600060018281548110610d5957610d58613363565b5b90600052602060002001604051610d70919061309e565b90815260200160405180910390206000018054610d8c90612fd5565b80601f0160208091040260200160405190810160405280929190818152602001828054610db890612fd5565b8015610e055780601f10610dda57610100808354040283529160200191610e05565b820191906000526020600020905b815481529060010190602001808311610de857829003601f168201915b5050505050838381518110610e1d57610e1c613363565b5b60200260200101819052508180610e3390613422565b9250505b8080610e4290613422565b915050610c13565b5080825260405180606001604052806001151581526020018381526020016040518060200160405280600081525081525092505050610f0b565b6040518060600160405280600015158152602001600067ffffffffffffffff811115610eb357610eb26124a2565b5b604051908082528060200260200182016040528015610ee657816020015b6060815260200190600190039081610ed15790505b5081526020016040518060800160405280604381526020016136ff6043913981525090505b919050565b600360009054906101000a900473ffffffffffffffffffffffffffffffffffffffff1673ffffffffffffffffffffffffffffffffffffffff163373ffffffffffffffffffffffffffffffffffffffff16148015610fa05750816080015173ffffffffffffffffffffffffffffffffffffffff16826080015173ffffffffffffffffffffffffffffffffffffffff16145b8015610fdd5750600073ffffffffffffffffffffffffffffffffffffffff16826080015173ffffffffffffffffffffffffffffffffffffffff1614155b15611237576040518060400160405280600681526020017f65646974656400000000000000000000000000000000000000000000000000008152506000836000015160405161102c9190612f8f565b908152602001604051809103902060070190816110499190613291565b508160800151816080019073ffffffffffffffffffffffffffffffffffffffff16908173ffffffffffffffffffffffffffffffffffffffff168152505081600001518160600181905250600182604001516110a4919061346a565b8160400181815250506040518060400160405280600681526020017f61637469766500000000000000000000000000000000000000000000000000008152508160e0018190525080600082600001516040516111009190612f8f565b908152602001604051809103902060008201518160000190816111239190613291565b5060208201518160010190816111399190613291565b506040820151816002015560608201518160030190816111599190613291565b5060808201518160040160006101000a81548173ffffffffffffffffffffffffffffffffffffffff021916908373ffffffffffffffffffffffffffffffffffffffff16021790555060a08201518160050190816111b69190613291565b5060c08201518160060190816111cc9190613291565b5060e08201518160070190816111e29190613291565b506101008201518160080190816111f99190613291565b50905050600181600001519080600181540180825580915050600190039060005260206000200160009091909190915090816112359190613291565b505b5050565b60008060008360405161124e9190612f8f565b9081526020016040518091039020600001805461126a90612fd5565b9050141580156112c75750600360009054906101000a900473ffffffffffffffffffffffffffffffffffffffff1673ffffffffffffffffffffffffffffffffffffffff163373ffffffffffffffffffffffffffffffffffffffff16145b156112d557600190506112da565b600090505b919050565b600360009054906101000a900473ffffffffffffffffffffffffffffffffffffffff1673ffffffffffffffffffffffffffffffffffffffff163373ffffffffffffffffffffffffffffffffffffffff160361150b5761133d8161225a565b1561150a576040518060400160405280600681526020017f61637469766500000000000000000000000000000000000000000000000000008152508160e001819052506040518060400160405280600181526020017f3000000000000000000000000000000000000000000000000000000000000000815250816060018190525080600082600001516040516113d39190612f8f565b908152602001604051809103902060008201518160000190816113f69190613291565b50602082015181600101908161140c9190613291565b5060408201518160020155606082015181600301908161142c9190613291565b5060808201518160040160006101000a81548173ffffffffffffffffffffffffffffffffffffffff021916908373ffffffffffffffffffffffffffffffffffffffff16021790555060a08201518160050190816114899190613291565b5060c082015181600601908161149f9190613291565b5060e08201518160070190816114b59190613291565b506101008201518160080190816114cc9190613291565b50905050600181600001519080600181540180825580915050600190039060005260206000200160009091909190915090816115089190613291565b505b5b50565b600073ffffffffffffffffffffffffffffffffffffffff168173ffffffffffffffffffffffffffffffffffffffff16141580156115995750600073ffffffffffffffffffffffffffffffffffffffff16600360009054906101000a900473ffffffffffffffffffffffffffffffffffffffff1673ffffffffffffffffffffffffffffffffffffffff16145b80156116145750600360009054906101000a900473ffffffffffffffffffffffffffffffffffffffff1673ffffffffffffffffffffffffffffffffffffffff16600360009054906101000a900473ffffffffffffffffffffffffffffffffffffffff1673ffffffffffffffffffffffffffffffffffffffff16145b1561165b5780600360006101000a81548173ffffffffffffffffffffffffffffffffffffffff021916908373ffffffffffffffffffffffffffffffffffffffff1602179055505b50565b61166661237f565b600360009054906101000a900473ffffffffffffffffffffffffffffffffffffffff1673ffffffffffffffffffffffffffffffffffffffff163373ffffffffffffffffffffffffffffffffffffffff16036117985760405180606001604052806001151581526020016000846040516116df9190612f8f565b908152602001604051809103902060080180546116fb90612fd5565b80601f016020809104026020016040519081016040528092919081815260200182805461172790612fd5565b80156117745780601f1061174957610100808354040283529160200191611774565b820191906000526020600020905b81548152906001019060200180831161175757829003601f168201915b505050505081526020016040518060200160405280600081525081525090506117e0565b60405180606001604052806000151581526020016040518060200160405280600081525081526020016040518060800160405280604481526020016136bb6044913981525090505b919050565b6117ed6123ee565b600060018054905067ffffffffffffffff81111561180e5761180d6124a2565b5b60405190808252806020026020018201604052801561184757816020015b611834612411565b81526020019060019003908161182c5790505b5090506000808460405161185b9190612f8f565b90815260200160405180910390206040518061012001604052908160008201805461188590612fd5565b80601f01602080910402602001604051908101604052809291908181526020018280546118b190612fd5565b80156118fe5780601f106118d3576101008083540402835291602001916118fe565b820191906000526020600020905b8154815290600101906020018083116118e157829003601f168201915b5050505050815260200160018201805461191790612fd5565b80601f016020809104026020016040519081016040528092919081815260200182805461194390612fd5565b80156119905780601f1061196557610100808354040283529160200191611990565b820191906000526020600020905b81548152906001019060200180831161197357829003601f168201915b50505050508152602001600282015481526020016003820180546119b390612fd5565b80601f01602080910402602001604051908101604052809291908181526020018280546119df90612fd5565b8015611a2c5780601f10611a0157610100808354040283529160200191611a2c565b820191906000526020600020905b815481529060010190602001808311611a0f57829003601f168201915b505050505081526020016004820160009054906101000a900473ffffffffffffffffffffffffffffffffffffffff1673ffffffffffffffffffffffffffffffffffffffff1673ffffffffffffffffffffffffffffffffffffffff168152602001600582018054611a9b90612fd5565b80601f0160208091040260200160405190810160405280929190818152602001828054611ac790612fd5565b8015611b145780601f10611ae957610100808354040283529160200191611b14565b820191906000526020600020905b815481529060010190602001808311611af757829003601f168201915b50505050508152602001600682018054611b2d90612fd5565b80601f0160208091040260200160405190810160405280929190818152602001828054611b5990612fd5565b8015611ba65780601f10611b7b57610100808354040283529160200191611ba6565b820191906000526020600020905b815481529060010190602001808311611b8957829003601f168201915b50505050508152602001600782018054611bbf90612fd5565b80601f0160208091040260200160405190810160405280929190818152602001828054611beb90612fd5565b8015611c385780601f10611c0d57610100808354040283529160200191611c38565b820191906000526020600020905b815481529060010190602001808311611c1b57829003601f168201915b50505050508152602001600882018054611c5190612fd5565b80601f0160208091040260200160405190810160405280929190818152602001828054611c7d90612fd5565b8015611cca5780601f10611c9f57610100808354040283529160200191611cca565b820191906000526020600020905b815481529060010190602001808311611cad57829003601f168201915b505050505081525050905060005b604051602001611ce7906134fa565b604051602081830303815290604052805190602001208260600151604051602001611d129190612f8f565b60405160208183030381529060405280519060200120146121f35781838281518110611d4157611d40613363565b5b60200260200101819052508080611d5790613422565b915050600082606001519050600081604051611d739190612f8f565b908152602001604051809103902060405180610120016040529081600082018054611d9d90612fd5565b80601f0160208091040260200160405190810160405280929190818152602001828054611dc990612fd5565b8015611e165780601f10611deb57610100808354040283529160200191611e16565b820191906000526020600020905b815481529060010190602001808311611df957829003601f168201915b50505050508152602001600182018054611e2f90612fd5565b80601f0160208091040260200160405190810160405280929190818152602001828054611e5b90612fd5565b8015611ea85780601f10611e7d57610100808354040283529160200191611ea8565b820191906000526020600020905b815481529060010190602001808311611e8b57829003601f168201915b5050505050815260200160028201548152602001600382018054611ecb90612fd5565b80601f0160208091040260200160405190810160405280929190818152602001828054611ef790612fd5565b8015611f445780601f10611f1957610100808354040283529160200191611f44565b820191906000526020600020905b815481529060010190602001808311611f2757829003601f168201915b505050505081526020016004820160009054906101000a900473ffffffffffffffffffffffffffffffffffffffff1673ffffffffffffffffffffffffffffffffffffffff1673ffffffffffffffffffffffffffffffffffffffff168152602001600582018054611fb390612fd5565b80601f0160208091040260200160405190810160405280929190818152602001828054611fdf90612fd5565b801561202c5780601f106120015761010080835404028352916020019161202c565b820191906000526020600020905b81548152906001019060200180831161200f57829003601f168201915b5050505050815260200160068201805461204590612fd5565b80601f016020809104026020016040519081016040528092919081815260200182805461207190612fd5565b80156120be5780601f10612093576101008083540402835291602001916120be565b820191906000526020600020905b8154815290600101906020018083116120a157829003601f168201915b505050505081526020016007820180546120d790612fd5565b80601f016020809104026020016040519081016040528092919081815260200182805461210390612fd5565b80156121505780601f1061212557610100808354040283529160200191612150565b820191906000526020600020905b81548152906001019060200180831161213357829003601f168201915b5050505050815260200160088201805461216990612fd5565b80601f016020809104026020016040519081016040528092919081815260200182805461219590612fd5565b80156121e25780601f106121b7576101008083540402835291602001916121e2565b820191906000526020600020905b8154815290600101906020018083116121c557829003601f168201915b505050505081525050925050611cd8565b8183828151811061220757612206613363565b5b6020026020010181905250808061221d90613422565b9150508083526040518060600160405280600115158152602001848152602001604051806020016040528060008152508152509350505050919050565b6000612269826000015161123b565b15801561230e5750600260009054906101000a900473ffffffffffffffffffffffffffffffffffffffff1673ffffffffffffffffffffffffffffffffffffffff16634294a5ad836040518263ffffffff1660e01b81526004016122cc91906135fe565b602060405180830381865afa1580156122e9573d6000803e3d6000fd5b505050506040513d601f19601f8201168201806040525081019061230d919061364c565b5b80156123675750600360009054906101000a900473ffffffffffffffffffffffffffffffffffffffff1673ffffffffffffffffffffffffffffffffffffffff163373ffffffffffffffffffffffffffffffffffffffff16145b15612375576001905061237a565b600090505b919050565b604051806060016040528060001515815260200160608152602001606081525090565b60405180606001604052806000151581526020016123be612411565b8152602001606081525090565b604051806060016040528060001515815260200160608152602001606081525090565b604051806060016040528060001515815260200160608152602001606081525090565b60405180610120016040528060608152602001606081526020016000815260200160608152602001600073ffffffffffffffffffffffffffffffffffffffff168152602001606081526020016060815260200160608152602001606081525090565b6000604051905090565b600080fd5b600080fd5b600080fd5b600080fd5b6000601f19601f8301169050919050565b7f4e487b7100000000000000000000000000000000000000000000000000000000600052604160045260246000fd5b6124da82612491565b810181811067ffffffffffffffff821117156124f9576124f86124a2565b5b80604052505050565b600061250c612473565b905061251882826124d1565b919050565b600067ffffffffffffffff821115612538576125376124a2565b5b61254182612491565b9050602081019050919050565b82818337600083830152505050565b600061257061256b8461251d565b612502565b90508281526020810184848401111561258c5761258b61248c565b5b61259784828561254e565b509392505050565b600082601f8301126125b4576125b3612487565b5b81356125c484826020860161255d565b91505092915050565b6000602082840312156125e3576125e261247d565b5b600082013567ffffffffffffffff81111561260157612600612482565b5b61260d8482850161259f565b91505092915050565b60008115159050919050565b61262b81612616565b82525050565b600081519050919050565b600082825260208201905092915050565b60005b8381101561266b578082015181840152602081019050612650565b60008484015250505050565b600061268282612631565b61268c818561263c565b935061269c81856020860161264d565b6126a581612491565b840191505092915050565b60006060830160008301516126c86000860182612622565b50602083015184820360208601526126e08282612677565b915050604083015184820360408601526126fa8282612677565b9150508091505092915050565b6000602082019050818103600083015261272181846126b0565b905092915050565b600080604083850312156127405761273f61247d565b5b600083013567ffffffffffffffff81111561275e5761275d612482565b5b61276a8582860161259f565b925050602083013567ffffffffffffffff81111561278b5761278a612482565b5b6127978582860161259f565b9150509250929050565b6000819050919050565b6127b4816127a1565b82525050565b600073ffffffffffffffffffffffffffffffffffffffff82169050919050565b60006127e5826127ba565b9050919050565b6127f5816127da565b82525050565b60006101208301600083015184820360008601526128198282612677565b915050602083015184820360208601526128338282612677565b915050604083015161284860408601826127ab565b50606083015184820360608601526128608282612677565b915050608083015161287560808601826127ec565b5060a083015184820360a086015261288d8282612677565b91505060c083015184820360c08601526128a78282612677565b91505060e083015184820360e08601526128c18282612677565b9150506101008301518482036101008601526128dd8282612677565b9150508091505092915050565b60006060830160008301516129026000860182612622565b506020830151848203602086015261291a82826127fb565b915050604083015184820360408601526129348282612677565b9150508091505092915050565b6000602082019050818103600083015261295b81846128ea565b905092915050565b61296c816127da565b811461297757600080fd5b50565b60008135905061298981612963565b92915050565b600080604083850312156129a6576129a561247d565b5b60006129b48582860161297a565b925050602083013567ffffffffffffffff8111156129d5576129d4612482565b5b6129e18582860161259f565b9150509250929050565b6129f481612616565b82525050565b6000602082019050612a0f60008301846129eb565b92915050565b600081519050919050565b600082825260208201905092915050565b6000819050602082019050919050565b6000612a4d8383612677565b905092915050565b6000602082019050919050565b6000612a6d82612a15565b612a778185612a20565b935083602082028501612a8985612a31565b8060005b85811015612ac55784840389528151612aa68582612a41565b9450612ab183612a55565b925060208a01995050600181019050612a8d565b50829750879550505050505092915050565b6000606083016000830151612aef6000860182612622565b5060208301518482036020860152612b078282612a62565b91505060408301518482036040860152612b218282612677565b9150508091505092915050565b60006020820190508181036000830152612b488184612ad7565b905092915050565b600080fd5b600080fd5b612b63816127a1565b8114612b6e57600080fd5b50565b600081359050612b8081612b5a565b92915050565b60006101208284031215612b9d57612b9c612b50565b5b612ba8610120612502565b9050600082013567ffffffffffffffff811115612bc857612bc7612b55565b5b612bd48482850161259f565b600083015250602082013567ffffffffffffffff811115612bf857612bf7612b55565b5b612c048482850161259f565b6020830152506040612c1884828501612b71565b604083015250606082013567ffffffffffffffff811115612c3c57612c3b612b55565b5b612c488482850161259f565b6060830152506080612c5c8482850161297a565b60808301525060a082013567ffffffffffffffff811115612c8057612c7f612b55565b5b612c8c8482850161259f565b60a08301525060c082013567ffffffffffffffff811115612cb057612caf612b55565b5b612cbc8482850161259f565b60c08301525060e082013567ffffffffffffffff811115612ce057612cdf612b55565b5b612cec8482850161259f565b60e08301525061010082013567ffffffffffffffff811115612d1157612d10612b55565b5b612d1d8482850161259f565b6101008301525092915050565b60008060408385031215612d4157612d4061247d565b5b600083013567ffffffffffffffff811115612d5f57612d5e612482565b5b612d6b85828601612b86565b925050602083013567ffffffffffffffff811115612d8c57612d8b612482565b5b612d9885828601612b86565b9150509250929050565b600060208284031215612db857612db761247d565b5b600082013567ffffffffffffffff811115612dd657612dd5612482565b5b612de284828501612b86565b91505092915050565b600060208284031215612e0157612e0061247d565b5b6000612e0f8482850161297a565b91505092915050565b600081519050919050565b600082825260208201905092915050565b6000819050602082019050919050565b6000612e5083836127fb565b905092915050565b6000602082019050919050565b6000612e7082612e18565b612e7a8185612e23565b935083602082028501612e8c85612e34565b8060005b85811015612ec85784840389528151612ea98582612e44565b9450612eb483612e58565b925060208a01995050600181019050612e90565b50829750879550505050505092915050565b6000606083016000830151612ef26000860182612622565b5060208301518482036020860152612f0a8282612e65565b91505060408301518482036040860152612f248282612677565b9150508091505092915050565b60006020820190508181036000830152612f4b8184612eda565b905092915050565b600081905092915050565b6000612f6982612631565b612f738185612f53565b9350612f8381856020860161264d565b80840191505092915050565b6000612f9b8284612f5e565b915081905092915050565b7f4e487b7100000000000000000000000000000000000000000000000000000000600052602260045260246000fd5b60006002820490506001821680612fed57607f821691505b60208210810361300057612fff612fa6565b5b50919050565b60008190508160005260206000209050919050565b6000815461302881612fd5565b6130328186612f53565b9450600182166000811461304d576001811461306257613095565b60ff1983168652811515820286019350613095565b61306b85613006565b60005b8381101561308d5781548189015260018201915060208101905061306e565b838801955050505b50505092915050565b60006130aa828461301b565b915081905092915050565b50565b60006130c5600083612f53565b91506130d0826130b5565b600082019050919050565b60006130e6826130b8565b9150819050919050565b60006020601f8301049050919050565b600082821b905092915050565b60006008830261313d7fffffffffffffffffffffffffffffffffffffffffffffffffffffffffffffffff82613100565b6131478683613100565b95508019841693508086168417925050509392505050565b6000819050919050565b6000819050919050565b600061318e6131896131848461315f565b613169565b61315f565b9050919050565b6000819050919050565b6131a883613173565b6131bc6131b482613195565b84845461310d565b825550505050565b600090565b6131d16131c4565b6131dc81848461319f565b505050565b5b81811015613200576131f56000826131c9565b6001810190506131e2565b5050565b601f8211156132455761321681613006565b61321f846130f0565b8101602085101561322e578190505b61324261323a856130f0565b8301826131e1565b50505b505050565b600082821c905092915050565b60006132686000198460080261324a565b1980831691505092915050565b60006132818383613257565b9150826002028217905092915050565b61329a82612631565b67ffffffffffffffff8111156132b3576132b26124a2565b5b6132bd8254612fd5565b6132c8828285613204565b600060209050601f8311600181146132fb57600084156132e9578287015190505b6132f38582613275565b86555061335b565b601f19841661330986613006565b60005b828110156133315784890151825560018201915060208501945060208101905061330c565b8683101561334e578489015161334a601f891682613257565b8355505b6001600288020188555050505b505050505050565b7f4e487b7100000000000000000000000000000000000000000000000000000000600052603260045260246000fd5b7f6163746976650000000000000000000000000000000000000000000000000000600082015250565b60006133c8600683612f53565b91506133d382613392565b600682019050919050565b60006133e9826133bb565b9150819050919050565b7f4e487b7100000000000000000000000000000000000000000000000000000000600052601160045260246000fd5b600061342d8261315f565b91507fffffffffffffffffffffffffffffffffffffffffffffffffffffffffffffffff820361345f5761345e6133f3565b5b600182019050919050565b6000613475826127a1565b9150613480836127a1565b9250828201905082811215600083121683821260008412151617156134a8576134a76133f3565b5b92915050565b7f3000000000000000000000000000000000000000000000000000000000000000600082015250565b60006134e4600183612f53565b91506134ef826134ae565b600182019050919050565b6000613505826134d7565b9150819050919050565b600061012083016000830151848203600086015261352d8282612677565b915050602083015184820360208601526135478282612677565b915050604083015161355c60408601826127ab565b50606083015184820360608601526135748282612677565b915050608083015161358960808601826127ec565b5060a083015184820360a08601526135a18282612677565b91505060c083015184820360c08601526135bb8282612677565b91505060e083015184820360e08601526135d58282612677565b9150506101008301518482036101008601526135f18282612677565b9150508091505092915050565b60006020820190508181036000830152613618818461350f565b905092915050565b61362981612616565b811461363457600080fd5b50565b60008151905061364681613620565b92915050565b6000602082840312156136625761366161247d565b5b600061367084828501613637565b9150509291505056fe54687265206973206e6f2066696c652c20696e2074686520676976656e2073746174652c2074686174206861732074686520676976656e2049504653204349442e546865207472616e73616374696f6e2065786563757465722063616e206f6e6c792062652074686520416363657373436f6e74726f6c2e736f6c20636f6e74726163742e4f6e6c792074686520416363657373436f6e74726f6c2e736f6c20636f6e74726163742069732061626c6520746f20657865637574652074686973206d6574686f642ea264697066735822122069607a7778f472b5ea49e9ec0b9fefc707036b6aaa91897c4cfbd5f23632e3b564736f6c6343000813003360806040523480156200001157600080fd5b5060405162002031380380620020318339818101604052810190620000379190620000e9565b80600360006101000a81548173ffffffffffffffffffffffffffffffffffffffff021916908373ffffffffffffffffffffffffffffffffffffffff160217905550506200011b565b600080fd5b600073ffffffffffffffffffffffffffffffffffffffff82169050919050565b6000620000b18262000084565b9050919050565b620000c381620000a4565b8114620000cf57600080fd5b50565b600081519050620000e381620000b8565b92915050565b6000602082840312156200010257620001016200007f565b5b60006200011284828501620000d2565b91505092915050565b611f06806200012b6000396000f3fe608060405234801561001057600080fd5b50600436106100885760003560e01c8063a240e4261161005b578063a240e42614610139578063b0c22a5614610169578063eeb9ab1814610199578063f14ab0e0146101c957610088565b806367156cf11461008d5780636f77926b146100bd57806375e9493f146100ed578063857cdbb814610109575b600080fd5b6100a760048036038101906100a29190611219565b6101f9565b6040516100b49190611348565b60405180910390f35b6100d760048036038101906100d29190611219565b6103e0565b6040516100e49190611441565b60405180910390f35b6101076004803603810190610102919061166e565b6107db565b005b610123600480360381019061011e9190611219565b610b0a565b6040516101309190611348565b60405180910390f35b610153600480360381019061014e9190611219565b610cf1565b60405161016091906116c6565b60405180910390f35b610183600480360381019061017e91906116e1565b610d9a565b60405161019091906116c6565b60405180910390f35b6101b360048036038101906101ae91906116e1565b610dcf565b6040516101c0919061177a565b60405180910390f35b6101e360048036038101906101de919061179c565b610eed565b6040516101f091906116c6565b60405180910390f35b6102016110e4565b600073ffffffffffffffffffffffffffffffffffffffff166000808473ffffffffffffffffffffffffffffffffffffffff1673ffffffffffffffffffffffffffffffffffffffff16815260200190815260200160002060000160009054906101000a900473ffffffffffffffffffffffffffffffffffffffff1673ffffffffffffffffffffffffffffffffffffffff16146103935760405180606001604052806001151581526020016000808573ffffffffffffffffffffffffffffffffffffffff1673ffffffffffffffffffffffffffffffffffffffff16815260200190815260200160002060010180546102f690611827565b80601f016020809104026020016040519081016040528092919081815260200182805461032290611827565b801561036f5780601f106103445761010080835404028352916020019161036f565b820191906000526020600020905b81548152906001019060200180831161035257829003601f168201915b505050505081526020016040518060200160405280600081525081525090506103db565b6040518060600160405280600015158152602001604051806020016040528060008152508152602001604051806060016040528060288152602001611e806028913981525090505b919050565b6103e8611107565b3373ffffffffffffffffffffffffffffffffffffffff168273ffffffffffffffffffffffffffffffffffffffff160361073957600073ffffffffffffffffffffffffffffffffffffffff166000808473ffffffffffffffffffffffffffffffffffffffff1673ffffffffffffffffffffffffffffffffffffffff16815260200190815260200160002060000160009054906101000a900473ffffffffffffffffffffffffffffffffffffffff1673ffffffffffffffffffffffffffffffffffffffff16146107385760405180606001604052806001151581526020016000808573ffffffffffffffffffffffffffffffffffffffff1673ffffffffffffffffffffffffffffffffffffffff1681526020019081526020016000206040518060800160405290816000820160009054906101000a900473ffffffffffffffffffffffffffffffffffffffff1673ffffffffffffffffffffffffffffffffffffffff1673ffffffffffffffffffffffffffffffffffffffff16815260200160018201805461057390611827565b80601f016020809104026020016040519081016040528092919081815260200182805461059f90611827565b80156105ec5780601f106105c1576101008083540402835291602001916105ec565b820191906000526020600020905b8154815290600101906020018083116105cf57829003601f168201915b5050505050815260200160028201805461060590611827565b80601f016020809104026020016040519081016040528092919081815260200182805461063190611827565b801561067e5780601f106106535761010080835404028352916020019161067e565b820191906000526020600020905b81548152906001019060200180831161066157829003601f168201915b5050505050815260200160038201805461069790611827565b80601f01602080910402602001604051908101604052809291908181526020018280546106c390611827565b80156107105780601f106106e557610100808354040283529160200191610710565b820191906000526020600020905b8154815290600101906020018083116106f357829003601f168201915b50505050508152505081526020016040518060200160405280600081525081525090506107d6565b5b60405180606001604052806000151581526020016040518060800160405280600073ffffffffffffffffffffffffffffffffffffffff1681526020016040518060200160405280600081525081526020016040518060200160405280600081525081526020016040518060200160405280600081525081525081526020016040518060a0016040528060798152602001611ddf6079913981525090505b919050565b3373ffffffffffffffffffffffffffffffffffffffff16816000015173ffffffffffffffffffffffffffffffffffffffff1603610b075761081b81610fca565b15610b06576040518060800160405280826000015173ffffffffffffffffffffffffffffffffffffffff168152602001600360009054906101000a900473ffffffffffffffffffffffffffffffffffffffff1673ffffffffffffffffffffffffffffffffffffffff16639416b42384602001516040518263ffffffff1660e01b81526004016108aa91906118a2565b600060405180830381865afa1580156108c7573d6000803e3d6000fd5b505050506040513d6000823e3d601f19601f820116820180604052508101906108f09190611934565b8152602001826040015181526020018260600151815250600080836000015173ffffffffffffffffffffffffffffffffffffffff1673ffffffffffffffffffffffffffffffffffffffff16815260200190815260200160002060008201518160000160006101000a81548173ffffffffffffffffffffffffffffffffffffffff021916908373ffffffffffffffffffffffffffffffffffffffff16021790555060208201518160010190816109a59190611b33565b5060408201518160020190816109bb9190611b33565b5060608201518160030190816109d19190611b33565b509050506040518060800160405280826000015173ffffffffffffffffffffffffffffffffffffffff1681526020018260200151815260200182604001518152602001826060015181525060018260200151604051610a309190611c41565b908152602001604051809103902060008201518160000160006101000a81548173ffffffffffffffffffffffffffffffffffffffff021916908373ffffffffffffffffffffffffffffffffffffffff1602179055506020820151816001019081610a9a9190611b33565b506040820151816002019081610ab09190611b33565b506060820151816003019081610ac69190611b33565b50905050600160028260200151604051610ae09190611c41565b908152602001604051809103902060006101000a81548160ff0219169083151502179055505b5b50565b610b126110e4565b600073ffffffffffffffffffffffffffffffffffffffff166000808473ffffffffffffffffffffffffffffffffffffffff1673ffffffffffffffffffffffffffffffffffffffff16815260200190815260200160002060000160009054906101000a900473ffffffffffffffffffffffffffffffffffffffff1673ffffffffffffffffffffffffffffffffffffffff1614610ca45760405180606001604052806001151581526020016000808573ffffffffffffffffffffffffffffffffffffffff1673ffffffffffffffffffffffffffffffffffffffff1681526020019081526020016000206003018054610c0790611827565b80601f0160208091040260200160405190810160405280929190818152602001828054610c3390611827565b8015610c805780601f10610c5557610100808354040283529160200191610c80565b820191906000526020600020905b815481529060010190602001808311610c6357829003601f168201915b50505050508152602001604051806020016040528060008152508152509050610cec565b6040518060600160405280600015158152602001604051806020016040528060008152508152602001604051806060016040528060288152602001611e586028913981525090505b919050565b60008073ffffffffffffffffffffffffffffffffffffffff166000808473ffffffffffffffffffffffffffffffffffffffff1673ffffffffffffffffffffffffffffffffffffffff16815260200190815260200160002060000160009054906101000a900473ffffffffffffffffffffffffffffffffffffffff1673ffffffffffffffffffffffffffffffffffffffff1614610d905760019050610d95565b600090505b919050565b6000600282604051610dac9190611c41565b908152602001604051809103902060009054906101000a900460ff169050919050565b610dd7611130565b6000600183604051610de99190611c41565b90815260200160405180910390206001018054610e0590611827565b90501115610e98576040518060600160405280600115158152602001600184604051610e319190611c41565b908152602001604051809103902060000160009054906101000a900473ffffffffffffffffffffffffffffffffffffffff1673ffffffffffffffffffffffffffffffffffffffff168152602001604051806020016040528060008152508152509050610ee8565b6040518060600160405280600015158152602001600073ffffffffffffffffffffffffffffffffffffffff168152602001604051806060016040528060298152602001611ea86029913981525090505b919050565b60003373ffffffffffffffffffffffffffffffffffffffff168273ffffffffffffffffffffffffffffffffffffffff1603610fbf5782604051602001610f339190611c41565b604051602081830303815290604052805190602001206000808473ffffffffffffffffffffffffffffffffffffffff1673ffffffffffffffffffffffffffffffffffffffff168152602001908152602001600020600201604051602001610f9a9190611cdb565b6040516020818303038152906040528051906020012003610fbe5760019050610fc4565b5b600090505b92915050565b60003373ffffffffffffffffffffffffffffffffffffffff16826000015173ffffffffffffffffffffffffffffffffffffffff16036110da576110108260000151610cf1565b15801561102757506110258260200151610d9a565b155b80156110cb5750600360009054906101000a900473ffffffffffffffffffffffffffffffffffffffff1673ffffffffffffffffffffffffffffffffffffffff1663e779f450836040518263ffffffff1660e01b81526004016110899190611d63565b602060405180830381865afa1580156110a6573d6000803e3d6000fd5b505050506040513d601f19601f820116820180604052508101906110ca9190611db1565b5b156110d957600190506110df565b5b600090505b919050565b604051806060016040528060001515815260200160608152602001606081525090565b6040518060600160405280600015158152602001611123611169565b8152602001606081525090565b6040518060600160405280600015158152602001600073ffffffffffffffffffffffffffffffffffffffff168152602001606081525090565b6040518060800160405280600073ffffffffffffffffffffffffffffffffffffffff1681526020016060815260200160608152602001606081525090565b6000604051905090565b600080fd5b600080fd5b600073ffffffffffffffffffffffffffffffffffffffff82169050919050565b60006111e6826111bb565b9050919050565b6111f6816111db565b811461120157600080fd5b50565b600081359050611213816111ed565b92915050565b60006020828403121561122f5761122e6111b1565b5b600061123d84828501611204565b91505092915050565b60008115159050919050565b61125b81611246565b82525050565b600081519050919050565b600082825260208201905092915050565b60005b8381101561129b578082015181840152602081019050611280565b60008484015250505050565b6000601f19601f8301169050919050565b60006112c382611261565b6112cd818561126c565b93506112dd81856020860161127d565b6112e6816112a7565b840191505092915050565b60006060830160008301516113096000860182611252565b506020830151848203602086015261132182826112b8565b9150506040830151848203604086015261133b82826112b8565b9150508091505092915050565b6000602082019050818103600083015261136281846112f1565b905092915050565b611373816111db565b82525050565b6000608083016000830151611391600086018261136a565b50602083015184820360208601526113a982826112b8565b915050604083015184820360408601526113c382826112b8565b915050606083015184820360608601526113dd82826112b8565b9150508091505092915050565b60006060830160008301516114026000860182611252565b506020830151848203602086015261141a8282611379565b9150506040830151848203604086015261143482826112b8565b9150508091505092915050565b6000602082019050818103600083015261145b81846113ea565b905092915050565b600080fd5b7f4e487b7100000000000000000000000000000000000000000000000000000000600052604160045260246000fd5b6114a0826112a7565b810181811067ffffffffffffffff821117156114bf576114be611468565b5b80604052505050565b60006114d26111a7565b90506114de8282611497565b919050565b600080fd5b600080fd5b600080fd5b600067ffffffffffffffff82111561150d5761150c611468565b5b611516826112a7565b9050602081019050919050565b82818337600083830152505050565b6000611545611540846114f2565b6114c8565b905082815260208101848484011115611561576115606114ed565b5b61156c848285611523565b509392505050565b600082601f830112611589576115886114e8565b5b8135611599848260208601611532565b91505092915050565b6000608082840312156115b8576115b7611463565b5b6115c260806114c8565b905060006115d284828501611204565b600083015250602082013567ffffffffffffffff8111156115f6576115f56114e3565b5b61160284828501611574565b602083015250604082013567ffffffffffffffff811115611626576116256114e3565b5b61163284828501611574565b604083015250606082013567ffffffffffffffff811115611656576116556114e3565b5b61166284828501611574565b60608301525092915050565b600060208284031215611684576116836111b1565b5b600082013567ffffffffffffffff8111156116a2576116a16111b6565b5b6116ae848285016115a2565b91505092915050565b6116c081611246565b82525050565b60006020820190506116db60008301846116b7565b92915050565b6000602082840312156116f7576116f66111b1565b5b600082013567ffffffffffffffff811115611715576117146111b6565b5b61172184828501611574565b91505092915050565b60006060830160008301516117426000860182611252565b506020830151611755602086018261136a565b506040830151848203604086015261176d82826112b8565b9150508091505092915050565b60006020820190508181036000830152611794818461172a565b905092915050565b600080604083850312156117b3576117b26111b1565b5b600083013567ffffffffffffffff8111156117d1576117d06111b6565b5b6117dd85828601611574565b92505060206117ee85828601611204565b9150509250929050565b7f4e487b7100000000000000000000000000000000000000000000000000000000600052602260045260246000fd5b6000600282049050600182168061183f57607f821691505b602082108103611852576118516117f8565b5b50919050565b600082825260208201905092915050565b600061187482611261565b61187e8185611858565b935061188e81856020860161127d565b611897816112a7565b840191505092915050565b600060208201905081810360008301526118bc8184611869565b905092915050565b60006118d76118d2846114f2565b6114c8565b9050828152602081018484840111156118f3576118f26114ed565b5b6118fe84828561127d565b509392505050565b600082601f83011261191b5761191a6114e8565b5b815161192b8482602086016118c4565b91505092915050565b60006020828403121561194a576119496111b1565b5b600082015167ffffffffffffffff811115611968576119676111b6565b5b61197484828501611906565b91505092915050565b60008190508160005260206000209050919050565b60006020601f8301049050919050565b600082821b905092915050565b6000600883026119df7fffffffffffffffffffffffffffffffffffffffffffffffffffffffffffffffff826119a2565b6119e986836119a2565b95508019841693508086168417925050509392505050565b6000819050919050565b6000819050919050565b6000611a30611a2b611a2684611a01565b611a0b565b611a01565b9050919050565b6000819050919050565b611a4a83611a15565b611a5e611a5682611a37565b8484546119af565b825550505050565b600090565b611a73611a66565b611a7e818484611a41565b505050565b5b81811015611aa257611a97600082611a6b565b600181019050611a84565b5050565b601f821115611ae757611ab88161197d565b611ac184611992565b81016020851015611ad0578190505b611ae4611adc85611992565b830182611a83565b50505b505050565b600082821c905092915050565b6000611b0a60001984600802611aec565b1980831691505092915050565b6000611b238383611af9565b9150826002028217905092915050565b611b3c82611261565b67ffffffffffffffff811115611b5557611b54611468565b5b611b5f8254611827565b611b6a828285611aa6565b600060209050601f831160018114611b9d5760008415611b8b578287015190505b611b958582611b17565b865550611bfd565b601f198416611bab8661197d565b60005b82811015611bd357848901518255600182019150602085019450602081019050611bae565b86831015611bf05784890151611bec601f891682611af9565b8355505b6001600288020188555050505b505050505050565b600081905092915050565b6000611c1b82611261565b611c258185611c05565b9350611c3581856020860161127d565b80840191505092915050565b6000611c4d8284611c10565b915081905092915050565b60008154611c6581611827565b611c6f8186611c05565b94506001821660008114611c8a5760018114611c9f57611cd2565b60ff1983168652811515820286019350611cd2565b611ca88561197d565b60005b83811015611cca57815481890152600182019150602081019050611cab565b838801955050505b50505092915050565b6000611ce78284611c58565b915081905092915050565b6000608083016000830151611d0a600086018261136a565b5060208301518482036020860152611d2282826112b8565b91505060408301518482036040860152611d3c82826112b8565b91505060608301518482036060860152611d5682826112b8565b9150508091505092915050565b60006020820190508181036000830152611d7d8184611cf2565b905092915050565b611d8e81611246565b8114611d9957600080fd5b50565b600081519050611dab81611d85565b92915050565b600060208284031215611dc757611dc66111b1565b5b6000611dd584828501611d9c565b9150509291505056fe546865206163636f756e74206f6620746865207472616e73616374696f6e2065786563757465722073686f756c64206265207468652073616d65206f6e652061732074686520757365722077686963682074686520696e666f726d6174696f6e206973206265696e67207265717565737465642066726f6d2e5468657265206973206e6f207573657220776974682074686520666976656e206163636f756e742e5468657265206973206e6f207573657220776974682074686520676976656e206163636f756e742e5468657265206973206e6f207573657220776974682074686520676976656e20757365726e616d652ea264697066735822122031e8cfc6779ae90224082f0b92792ba574f289ebb4000f2acda7292e052576e764736f6c63430008130033608060405234801561001057600080fd5b5033600160006101000a81548173ffffffffffffffffffffffffffffffffffffffff021916908373ffffffffffffffffffffffffffffffffffffffff16021790555033600260006101000a81548173ffffffffffffffffffffffffffffffffffffffff021916908373ffffffffffffffffffffffffffffffffffffffff16021790555061165c806100a26000396000f3fe608060405234801561001057600080fd5b50600436106100365760003560e01c8063759ab1851461003b578063c47ebddc1461006b575b600080fd5b61005560048036038101906100509190610c25565b610087565b6040516100629190610f12565b60405180910390f35b61008560048036038101906100809190610f60565b610765565b005b61008f610960565b6000808054905067ffffffffffffffff8111156100af576100ae610a0f565b5b6040519080825280602002602001820160405280156100e857816020015b6100d5610983565b8152602001906001900390816100cd5790505b5090506000805b845181101561054457600160009054906101000a900473ffffffffffffffffffffffffffffffffffffffff1673ffffffffffffffffffffffffffffffffffffffff16631ac47dd03387848151811061014a5761014961102f565b5b60200260200101516040518363ffffffff1660e01b815260040161016f9291906110b7565b602060405180830381865afa15801561018c573d6000803e3d6000fd5b505050506040513d601f19601f820116820180604052508101906101b09190611113565b156105315760005b60008054905081101561052f578582815181106101d8576101d761102f565b5b60200260200101516040516020016101f0919061117c565b604051602081830303815290604052805190602001206000828154811061021a5761021961102f565b5b906000526020600020906006020160000160405160200161023b919061128b565b604051602081830303815290604052805190602001200361051c576000818154811061026a5761026961102f565b5b90600052602060002090600602016040518060c0016040529081600082018054610293906111c2565b80601f01602080910402602001604051908101604052809291908181526020018280546102bf906111c2565b801561030c5780601f106102e15761010080835404028352916020019161030c565b820191906000526020600020905b8154815290600101906020018083116102ef57829003601f168201915b505050505081526020016001820160009054906101000a900473ffffffffffffffffffffffffffffffffffffffff1673ffffffffffffffffffffffffffffffffffffffff1673ffffffffffffffffffffffffffffffffffffffff16815260200160028201548152602001600382018054610385906111c2565b80601f01602080910402602001604051908101604052809291908181526020018280546103b1906111c2565b80156103fe5780601f106103d3576101008083540402835291602001916103fe565b820191906000526020600020905b8154815290600101906020018083116103e157829003601f168201915b50505050508152602001600482018054610417906111c2565b80601f0160208091040260200160405190810160405280929190818152602001828054610443906111c2565b80156104905780601f1061046557610100808354040283529160200191610490565b820191906000526020600020905b81548152906001019060200180831161047357829003601f168201915b505050505081526020016005820160009054906101000a900473ffffffffffffffffffffffffffffffffffffffff1673ffffffffffffffffffffffffffffffffffffffff1673ffffffffffffffffffffffffffffffffffffffff16815250508484815181106105025761050161102f565b5b60200260200101819052508280610518906112d1565b9350505b8080610527906112d1565b9150506101b8565b505b808061053c906112d1565b9150506100ef565b50600081146106905760005b60018261055d9190611319565b81101561068e5760005b600182846105759190611319565b61057f9190611319565b81101561067a5783600182610594919061134d565b815181106105a5576105a461102f565b5b6020026020010151604001518482815181106105c4576105c361102f565b5b60200260200101516040015111156106675760008482815181106105eb576105ea61102f565b5b6020026020010151905084600183610603919061134d565b815181106106145761061361102f565b5b602002602001015185838151811061062f5761062e61102f565b5b60200260200101819052508085600184610649919061134d565b8151811061065a5761065961102f565b5b6020026020010181905250505b8080610672906112d1565b915050610567565b508080610686906112d1565b915050610550565b505b808252600081146106d15760405180606001604052806001151581526020018381526020016040518060200160405280600081525081525092505050610760565b6040518060600160405280600015158152602001600067ffffffffffffffff811115610700576106ff610a0f565b5b60405190808252806020026020018201604052801561073957816020015b610726610983565b81526020019060019003908161071e5790505b5081526020016040518060600160405280603c81526020016115eb603c9139815250925050505b919050565b600260009054906101000a900473ffffffffffffffffffffffffffffffffffffffff1673ffffffffffffffffffffffffffffffffffffffff163373ffffffffffffffffffffffffffffffffffffffff161480156107ed57508273ffffffffffffffffffffffffffffffffffffffff168373ffffffffffffffffffffffffffffffffffffffff16145b156109595760006040518060c001604052808681526020018573ffffffffffffffffffffffffffffffffffffffff1681526020014281526020018381526020018481526020018773ffffffffffffffffffffffffffffffffffffffff168152509050600081908060018154018082558091505060019003906000526020600020906006020160009091909190915060008201518160000190816108909190611518565b5060208201518160010160006101000a81548173ffffffffffffffffffffffffffffffffffffffff021916908373ffffffffffffffffffffffffffffffffffffffff1602179055506040820151816002015560608201518160030190816108f79190611518565b50608082015181600401908161090d9190611518565b5060a08201518160050160006101000a81548173ffffffffffffffffffffffffffffffffffffffff021916908373ffffffffffffffffffffffffffffffffffffffff1602179055505050505b5050505050565b604051806060016040528060001515815260200160608152602001606081525090565b6040518060c0016040528060608152602001600073ffffffffffffffffffffffffffffffffffffffff168152602001600081526020016060815260200160608152602001600073ffffffffffffffffffffffffffffffffffffffff1681525090565b6000604051905090565b600080fd5b600080fd5b600080fd5b6000601f19601f8301169050919050565b7f4e487b7100000000000000000000000000000000000000000000000000000000600052604160045260246000fd5b610a47826109fe565b810181811067ffffffffffffffff82111715610a6657610a65610a0f565b5b80604052505050565b6000610a796109e5565b9050610a858282610a3e565b919050565b600067ffffffffffffffff821115610aa557610aa4610a0f565b5b602082029050602081019050919050565b600080fd5b600080fd5b600067ffffffffffffffff821115610adb57610ada610a0f565b5b610ae4826109fe565b9050602081019050919050565b82818337600083830152505050565b6000610b13610b0e84610ac0565b610a6f565b905082815260208101848484011115610b2f57610b2e610abb565b5b610b3a848285610af1565b509392505050565b600082601f830112610b5757610b566109f9565b5b8135610b67848260208601610b00565b91505092915050565b6000610b83610b7e84610a8a565b610a6f565b90508083825260208201905060208402830185811115610ba657610ba5610ab6565b5b835b81811015610bed57803567ffffffffffffffff811115610bcb57610bca6109f9565b5b808601610bd88982610b42565b85526020850194505050602081019050610ba8565b5050509392505050565b600082601f830112610c0c57610c0b6109f9565b5b8135610c1c848260208601610b70565b91505092915050565b600060208284031215610c3b57610c3a6109ef565b5b600082013567ffffffffffffffff811115610c5957610c586109f4565b5b610c6584828501610bf7565b91505092915050565b60008115159050919050565b610c8381610c6e565b82525050565b600081519050919050565b600082825260208201905092915050565b6000819050602082019050919050565b600081519050919050565b600082825260208201905092915050565b60005b83811015610cef578082015181840152602081019050610cd4565b60008484015250505050565b6000610d0682610cb5565b610d108185610cc0565b9350610d20818560208601610cd1565b610d29816109fe565b840191505092915050565b600073ffffffffffffffffffffffffffffffffffffffff82169050919050565b6000610d5f82610d34565b9050919050565b610d6f81610d54565b82525050565b6000819050919050565b610d8881610d75565b82525050565b600060c0830160008301518482036000860152610dab8282610cfb565b9150506020830151610dc06020860182610d66565b506040830151610dd36040860182610d7f565b5060608301518482036060860152610deb8282610cfb565b91505060808301518482036080860152610e058282610cfb565b91505060a0830151610e1a60a0860182610d66565b508091505092915050565b6000610e318383610d8e565b905092915050565b6000602082019050919050565b6000610e5182610c89565b610e5b8185610c94565b935083602082028501610e6d85610ca5565b8060005b85811015610ea95784840389528151610e8a8582610e25565b9450610e9583610e39565b925060208a01995050600181019050610e71565b50829750879550505050505092915050565b6000606083016000830151610ed36000860182610c7a565b5060208301518482036020860152610eeb8282610e46565b91505060408301518482036040860152610f058282610cfb565b9150508091505092915050565b60006020820190508181036000830152610f2c8184610ebb565b905092915050565b610f3d81610d54565b8114610f4857600080fd5b50565b600081359050610f5a81610f34565b92915050565b600080600080600060a08688031215610f7c57610f7b6109ef565b5b6000610f8a88828901610f4b565b955050602086013567ffffffffffffffff811115610fab57610faa6109f4565b5b610fb788828901610b42565b9450506040610fc888828901610f4b565b935050606086013567ffffffffffffffff811115610fe957610fe86109f4565b5b610ff588828901610b42565b925050608086013567ffffffffffffffff811115611016576110156109f4565b5b61102288828901610b42565b9150509295509295909350565b7f4e487b7100000000000000000000000000000000000000000000000000000000600052603260045260246000fd5b61106781610d54565b82525050565b600082825260208201905092915050565b600061108982610cb5565b611093818561106d565b93506110a3818560208601610cd1565b6110ac816109fe565b840191505092915050565b60006040820190506110cc600083018561105e565b81810360208301526110de818461107e565b90509392505050565b6110f081610c6e565b81146110fb57600080fd5b50565b60008151905061110d816110e7565b92915050565b600060208284031215611129576111286109ef565b5b6000611137848285016110fe565b91505092915050565b600081905092915050565b600061115682610cb5565b6111608185611140565b9350611170818560208601610cd1565b80840191505092915050565b6000611188828461114b565b915081905092915050565b7f4e487b7100000000000000000000000000000000000000000000000000000000600052602260045260246000fd5b600060028204905060018216806111da57607f821691505b6020821081036111ed576111ec611193565b5b50919050565b60008190508160005260206000209050919050565b60008154611215816111c2565b61121f8186611140565b9450600182166000811461123a576001811461124f57611282565b60ff1983168652811515820286019350611282565b611258856111f3565b60005b8381101561127a5781548189015260018201915060208101905061125b565b838801955050505b50505092915050565b60006112978284611208565b915081905092915050565b7f4e487b7100000000000000000000000000000000000000000000000000000000600052601160045260246000fd5b60006112dc82610d75565b91507fffffffffffffffffffffffffffffffffffffffffffffffffffffffffffffffff820361130e5761130d6112a2565b5b600182019050919050565b600061132482610d75565b915061132f83610d75565b9250828203905081811115611347576113466112a2565b5b92915050565b600061135882610d75565b915061136383610d75565b925082820190508082111561137b5761137a6112a2565b5b92915050565b60006020601f8301049050919050565b600082821b905092915050565b6000600883026113ce7fffffffffffffffffffffffffffffffffffffffffffffffffffffffffffffffff82611391565b6113d88683611391565b95508019841693508086168417925050509392505050565b6000819050919050565b600061141561141061140b84610d75565b6113f0565b610d75565b9050919050565b6000819050919050565b61142f836113fa565b61144361143b8261141c565b84845461139e565b825550505050565b600090565b61145861144b565b611463818484611426565b505050565b5b818110156114875761147c600082611450565b600181019050611469565b5050565b601f8211156114cc5761149d816111f3565b6114a684611381565b810160208510156114b5578190505b6114c96114c185611381565b830182611468565b50505b505050565b600082821c905092915050565b60006114ef600019846008026114d1565b1980831691505092915050565b600061150883836114de565b9150826002028217905092915050565b61152182610cb5565b67ffffffffffffffff81111561153a57611539610a0f565b5b61154482546111c2565b61154f82828561148b565b600060209050601f8311600181146115825760008415611570578287015190505b61157a85826114fc565b8655506115e2565b601f198416611590866111f3565b60005b828110156115b857848901518255600182019150602085019450602081019050611593565b868310156115d557848901516115d1601f8916826114de565b8355505b6001600288020188555050505b50505050505056fe546865207472616e73616374696f6e2065786563757465722068617320746f206265206173736f6369617465642077697468207468652066696c652ea26469706673582212208bf25c737a8d6ca01194d11289309abfedb170d874795ce2309c0b35f437955564736f6c63430008130033",
  "linkReferences": {},
  "deployedLinkReferences": {}
}