{
  "_format": "hh-sol-artifact-1",
  "contractName": "AccessControl",
  "sourceName": "contracts/AccessControl.sol",
  "abi": [
    {
      "inputs": [
        {
          "internalType": "address",
          "name": "helperContract",
          "type": "address"
        }
      ],
      "stateMutability": "nonpayable",
      "type": "constructor"
    },
    {
      "anonymous": false,
      "inputs": [
        {
          "indexed": true,
          "internalType": "address",
          "name": "userAccount",
          "type": "address"
        },
        {
          "indexed": false,
          "internalType": "string",
          "name": "fileIpfsCID",
          "type": "string"
        },
        {
          "indexed": false,
          "internalType": "string",
          "name": "permissionsOwner",
          "type": "string"
        },
        {
          "indexed": false,
          "internalType": "string",
          "name": "action",
          "type": "string"
        }
      ],
      "name": "FileActionLog",
      "type": "event"
    },
    {
      "inputs": [
        {
          "internalType": "address",
          "name": "userAccount",
          "type": "address"
        },
        {
          "internalType": "string",
          "name": "fileIpfsCid",
          "type": "string"
        }
      ],
      "name": "deactivateFile",
      "outputs": [],
      "stateMutability": "nonpayable",
      "type": "function"
    },
    {
      "inputs": [
        {
          "internalType": "string",
          "name": "fileIpfsCid",
          "type": "string"
        },
        {
          "internalType": "address",
          "name": "userAccount",
          "type": "address"
        }
      ],
      "name": "downloadFileAudit",
      "outputs": [],
      "stateMutability": "nonpayable",
      "type": "function"
    },
    {
      "inputs": [
        {
          "components": [
            {
              "internalType": "string",
              "name": "ipfsCID",
              "type": "string"
            },
            {
              "internalType": "string",
              "name": "fileName",
              "type": "string"
            },
            {
              "internalType": "int256",
              "name": "version",
              "type": "int256"
            },
            {
              "internalType": "string",
              "name": "prevIpfsCID",
              "type": "string"
            },
            {
              "internalType": "address",
              "name": "owner",
              "type": "address"
            },
            {
              "internalType": "string",
              "name": "fileType",
              "type": "string"
            },
            {
              "internalType": "string",
              "name": "iv",
              "type": "string"
            },
            {
              "internalType": "string",
              "name": "state",
              "type": "string"
            },
            {
              "internalType": "string",
              "name": "fileHash",
              "type": "string"
            }
          ],
          "internalType": "struct FileRegister.File",
          "name": "selectedFile",
          "type": "tuple"
        },
        {
          "components": [
            {
              "internalType": "string",
              "name": "ipfsCID",
              "type": "string"
            },
            {
              "internalType": "string",
              "name": "fileName",
              "type": "string"
            },
            {
              "internalType": "int256",
              "name": "version",
              "type": "int256"
            },
            {
              "internalType": "string",
              "name": "prevIpfsCID",
              "type": "string"
            },
            {
              "internalType": "address",
              "name": "owner",
              "type": "address"
            },
            {
              "internalType": "string",
              "name": "fileType",
              "type": "string"
            },
            {
              "internalType": "string",
              "name": "iv",
              "type": "string"
            },
            {
              "internalType": "string",
              "name": "state",
              "type": "string"
            },
            {
              "internalType": "string",
              "name": "fileHash",
              "type": "string"
            }
          ],
          "internalType": "struct FileRegister.File",
          "name": "newFile",
          "type": "tuple"
        },
        {
          "internalType": "address[]",
          "name": "usersWithDownlodPermSelectFile",
          "type": "address[]"
        },
        {
          "internalType": "string[]",
          "name": "pubKeyUsersWithDownloadPermSelectFile",
          "type": "string[]"
        }
      ],
      "name": "editFile",
      "outputs": [],
      "stateMutability": "nonpayable",
      "type": "function"
    },
    {
      "inputs": [
        {
          "internalType": "address",
          "name": "userAccount",
          "type": "address"
        },
        {
          "internalType": "string",
          "name": "fileIpfsCID",
          "type": "string"
        }
      ],
      "name": "elegibleToShare",
      "outputs": [
        {
          "internalType": "bool",
          "name": "",
          "type": "bool"
        }
      ],
      "stateMutability": "view",
      "type": "function"
    },
    {
      "inputs": [
        {
          "internalType": "address",
          "name": "userAccount",
          "type": "address"
        },
        {
          "internalType": "string",
          "name": "fileIpfsCID",
          "type": "string"
        }
      ],
      "name": "elegibleToUpdPermissions",
      "outputs": [
        {
          "internalType": "bool",
          "name": "",
          "type": "bool"
        }
      ],
      "stateMutability": "view",
      "type": "function"
    },
    {
      "inputs": [
        {
          "internalType": "address",
          "name": "accountUser",
          "type": "address"
        },
        {
          "internalType": "string",
          "name": "fileIpfsCID",
          "type": "string"
        }
      ],
      "name": "getAllEncSymmetricKeyFileUser",
      "outputs": [
        {
          "components": [
            {
              "internalType": "bool",
              "name": "success",
              "type": "bool"
            },
            {
              "internalType": "string[]",
              "name": "resultStrings",
              "type": "string[]"
            },
            {
              "internalType": "string",
              "name": "message",
              "type": "string"
            }
          ],
          "internalType": "struct Helper.ResultStringArray",
          "name": "",
          "type": "tuple"
        }
      ],
      "stateMutability": "view",
      "type": "function"
    },
    {
      "inputs": [],
      "name": "getAuditLogControlAddress",
      "outputs": [
        {
          "internalType": "address",
          "name": "",
          "type": "address"
        }
      ],
      "stateMutability": "view",
      "type": "function"
    },
    {
      "inputs": [
        {
          "internalType": "address",
          "name": "accountUser",
          "type": "address"
        },
        {
          "internalType": "string",
          "name": "fileIpfsCID",
          "type": "string"
        }
      ],
      "name": "getEncSymmetricKeyFileUser",
      "outputs": [
        {
          "components": [
            {
              "internalType": "bool",
              "name": "success",
              "type": "bool"
            },
            {
              "internalType": "string",
              "name": "resultString",
              "type": "string"
            },
            {
              "internalType": "string",
              "name": "message",
              "type": "string"
            }
          ],
          "internalType": "struct Helper.ResultString",
          "name": "",
          "type": "tuple"
        }
      ],
      "stateMutability": "view",
      "type": "function"
    },
    {
      "inputs": [],
      "name": "getFileRegisterAddress",
      "outputs": [
        {
          "internalType": "address",
          "name": "",
          "type": "address"
        }
      ],
      "stateMutability": "view",
      "type": "function"
    },
    {
      "inputs": [],
      "name": "getLoginRegister",
      "outputs": [
        {
          "internalType": "address",
          "name": "",
          "type": "address"
        }
      ],
      "stateMutability": "view",
      "type": "function"
    },
    {
      "inputs": [
        {
          "internalType": "address",
          "name": "userAccount",
          "type": "address"
        },
        {
          "internalType": "string",
          "name": "fileIpfsCID",
          "type": "string"
        }
      ],
      "name": "getPermissionsOverFile",
      "outputs": [
        {
          "components": [
            {
              "internalType": "bool",
              "name": "success",
              "type": "bool"
            },
            {
              "internalType": "string[]",
              "name": "resultStrings",
              "type": "string[]"
            },
            {
              "internalType": "string",
              "name": "message",
              "type": "string"
            }
          ],
          "internalType": "struct Helper.ResultStringArray",
          "name": "",
          "type": "tuple"
        }
      ],
      "stateMutability": "view",
      "type": "function"
    },
    {
      "inputs": [
        {
          "internalType": "address",
          "name": "account",
          "type": "address"
        },
        {
          "internalType": "string",
          "name": "state",
          "type": "string"
        }
      ],
      "name": "getUserFiles",
      "outputs": [
        {
          "components": [
            {
              "internalType": "bool",
              "name": "success",
              "type": "bool"
            },
            {
              "components": [
                {
                  "internalType": "string",
                  "name": "ipfsCID",
                  "type": "string"
                },
                {
                  "internalType": "string",
                  "name": "fileName",
                  "type": "string"
                },
                {
                  "internalType": "int256",
                  "name": "version",
                  "type": "int256"
                },
                {
                  "internalType": "string",
                  "name": "prevIpfsCID",
                  "type": "string"
                },
                {
                  "internalType": "address",
                  "name": "owner",
                  "type": "address"
                },
                {
                  "internalType": "string",
                  "name": "fileType",
                  "type": "string"
                },
                {
                  "internalType": "string",
                  "name": "iv",
                  "type": "string"
                },
                {
                  "internalType": "string",
                  "name": "state",
                  "type": "string"
                },
                {
                  "internalType": "string",
                  "name": "fileHash",
                  "type": "string"
                }
              ],
              "internalType": "struct FileRegister.File[]",
              "name": "files",
              "type": "tuple[]"
            },
            {
              "internalType": "string",
              "name": "message",
              "type": "string"
            }
          ],
          "internalType": "struct FileRegister.ResultFiles",
          "name": "",
          "type": "tuple"
        }
      ],
      "stateMutability": "view",
      "type": "function"
    },
    {
      "inputs": [],
      "name": "getUserRegisterAddress",
      "outputs": [
        {
          "internalType": "address",
          "name": "",
          "type": "address"
        }
      ],
      "stateMutability": "view",
      "type": "function"
    },
    {
      "inputs": [
        {
          "internalType": "string",
          "name": "fileIpfsCID",
          "type": "string"
        }
      ],
      "name": "getUsersAssociatedWithFile",
      "outputs": [
        {
          "components": [
            {
              "internalType": "bool",
              "name": "success",
              "type": "bool"
            },
            {
              "internalType": "address[]",
              "name": "resultAddresses",
              "type": "address[]"
            },
            {
              "internalType": "string",
              "name": "message",
              "type": "string"
            }
          ],
          "internalType": "struct Helper.ResultAddressArray",
          "name": "",
          "type": "tuple"
        }
      ],
      "stateMutability": "view",
      "type": "function"
    },
    {
      "inputs": [
        {
          "internalType": "address",
          "name": "userAccount",
          "type": "address"
        },
        {
          "internalType": "string",
          "name": "fileHash",
          "type": "string"
        }
      ],
      "name": "recordFileVerification",
      "outputs": [],
      "stateMutability": "nonpayable",
      "type": "function"
    },
    {
      "inputs": [
        {
          "internalType": "address",
          "name": "userAccount",
          "type": "address"
        },
        {
          "internalType": "string",
          "name": "fileIpfsCID",
          "type": "string"
        }
      ],
      "name": "removeUserFileAssociation",
      "outputs": [],
      "stateMutability": "nonpayable",
      "type": "function"
    },
    {
      "inputs": [
        {
          "internalType": "address",
          "name": "userAccount",
          "type": "address"
        },
        {
          "internalType": "string",
          "name": "fileIpfsCID",
          "type": "string"
        },
        {
          "internalType": "string[]",
          "name": "encSymmetricKeys",
          "type": "string[]"
        },
        {
          "internalType": "string[]",
          "name": "permissions",
          "type": "string[]"
        }
      ],
      "name": "shareFile",
      "outputs": [],
      "stateMutability": "nonpayable",
      "type": "function"
    },
    {
      "inputs": [
        {
          "internalType": "address",
          "name": "userAccount",
          "type": "address"
        },
        {
          "internalType": "string",
          "name": "fileIpfsCID",
          "type": "string"
        },
        {
          "internalType": "string[]",
          "name": "permissions",
          "type": "string[]"
        }
      ],
      "name": "updateUserFilePermissions",
      "outputs": [],
      "stateMutability": "nonpayable",
      "type": "function"
    },
    {
      "inputs": [
        {
          "internalType": "address",
          "name": "userAccount",
          "type": "address"
        },
        {
          "components": [
            {
              "internalType": "string",
              "name": "ipfsCID",
              "type": "string"
            },
            {
              "internalType": "string",
              "name": "fileName",
              "type": "string"
            },
            {
              "internalType": "int256",
              "name": "version",
              "type": "int256"
            },
            {
              "internalType": "string",
              "name": "prevIpfsCID",
              "type": "string"
            },
            {
              "internalType": "address",
              "name": "owner",
              "type": "address"
            },
            {
              "internalType": "string",
              "name": "fileType",
              "type": "string"
            },
            {
              "internalType": "string",
              "name": "iv",
              "type": "string"
            },
            {
              "internalType": "string",
              "name": "state",
              "type": "string"
            },
            {
              "internalType": "string",
              "name": "fileHash",
              "type": "string"
            }
          ],
          "internalType": "struct FileRegister.File",
          "name": "file",
          "type": "tuple"
        },
        {
          "internalType": "string",
          "name": "encSymmetricKey",
          "type": "string"
        }
      ],
      "name": "uploadFile",
      "outputs": [],
      "stateMutability": "nonpayable",
      "type": "function"
    },
    {
      "inputs": [
        {
          "internalType": "address",
          "name": "userAccount",
          "type": "address"
        },
        {
          "internalType": "string",
          "name": "fileIpfsCID",
          "type": "string"
        }
      ],
      "name": "userAssociatedWithFile",
      "outputs": [
        {
          "internalType": "bool",
          "name": "",
          "type": "bool"
        }
      ],
      "stateMutability": "view",
      "type": "function"
    },
    {
      "inputs": [
        {
          "internalType": "address",
          "name": "userAccount",
          "type": "address"
        },
        {
          "internalType": "string",
          "name": "fileName",
          "type": "string"
        }
      ],
      "name": "userAssociatedWithFileName",
      "outputs": [
        {
          "internalType": "bool",
          "name": "",
          "type": "bool"
        }
      ],
      "stateMutability": "view",
      "type": "function"
    },
    {
      "inputs": [
        {
          "internalType": "address",
          "name": "userAccount",
          "type": "address"
        },
        {
          "internalType": "string",
          "name": "fileHash",
          "type": "string"
        }
      ],
      "name": "verifyValidFile",
      "outputs": [
        {
          "internalType": "bool",
          "name": "",
          "type": "bool"
        }
      ],
      "stateMutability": "view",
      "type": "function"
    }
  ],
  "bytecode": "0x60806040523480156200001157600080fd5b50604051620109b4380380620109b48339818101604052810190620000379190620003e8565b80600460006101000a81548173ffffffffffffffffffffffffffffffffffffffff021916908373ffffffffffffffffffffffffffffffffffffffff16021790555080604051620000879062000346565b6200009391906200042b565b604051809103906000f080158015620000b0573d6000803e3d6000fd5b50600160006101000a81548173ffffffffffffffffffffffffffffffffffffffff021916908373ffffffffffffffffffffffffffffffffffffffff16021790555080604051620001009062000354565b6200010c91906200042b565b604051809103906000f08015801562000129573d6000803e3d6000fd5b50600260006101000a81548173ffffffffffffffffffffffffffffffffffffffff021916908373ffffffffffffffffffffffffffffffffffffffff160217905550600260009054906101000a900473ffffffffffffffffffffffffffffffffffffffff166040516200019b9062000362565b620001a791906200042b565b604051809103906000f080158015620001c4573d6000803e3d6000fd5b50600560006101000a81548173ffffffffffffffffffffffffffffffffffffffff021916908373ffffffffffffffffffffffffffffffffffffffff160217905550604051620002139062000370565b604051809103906000f08015801562000230573d6000803e3d6000fd5b50600360006101000a81548173ffffffffffffffffffffffffffffffffffffffff021916908373ffffffffffffffffffffffffffffffffffffffff1602179055506000600560146101000a81548160ff021916908315150217905550600260009054906101000a900473ffffffffffffffffffffffffffffffffffffffff1673ffffffffffffffffffffffffffffffffffffffff16638d060a9e600560009054906101000a900473ffffffffffffffffffffffffffffffffffffffff166040518263ffffffff1660e01b81526004016200030b91906200042b565b600060405180830381600087803b1580156200032657600080fd5b505af11580156200033b573d6000803e3d6000fd5b505050505062000448565b6138a28062008dc583390190565b612155806200c66783390190565b610afa806200e7bc83390190565b6116fe806200f2b683390190565b600080fd5b600073ffffffffffffffffffffffffffffffffffffffff82169050919050565b6000620003b08262000383565b9050919050565b620003c281620003a3565b8114620003ce57600080fd5b50565b600081519050620003e281620003b7565b92915050565b6000602082840312156200040157620004006200037e565b5b60006200041184828501620003d1565b91505092915050565b6200042581620003a3565b82525050565b60006020820190506200044260008301846200041a565b92915050565b61896d80620004586000396000f3fe608060405234801561001057600080fd5b50600436106101425760003560e01c806398956de9116100b8578063c19dcf891161007c578063c19dcf89146103af578063c5f5a232146103df578063c61e6663146103fb578063d2ab62b414610417578063db54cc8c14610447578063fe17fccc1461046357610142565b806398956de9146102f7578063a126d94c14610315578063af00c05d14610345578063b58ea3a214610361578063b714fb201461039157610142565b80634c23fe991161010a5780634c23fe99146102375780634e2fc7d2146102675780635dab19e41461028357806367cc916b146102a1578063874a22ed146102bd5780638af34fbc146102db57610142565b80630976372714610147578063173cd5581461017757806317b5be0f146101a75780631ac47dd0146101d75780632321f31814610207575b600080fd5b610161600480360381019061015c919061602b565b61047f565b60405161016e9190616351565b60405180910390f35b610191600480360381019061018c919061602b565b61098f565b60405161019e919061648c565b60405180910390f35b6101c160048036038101906101bc919061602b565b610d88565b6040516101ce91906164bd565b60405180910390f35b6101f160048036038101906101ec919061602b565b611088565b6040516101fe91906164bd565b60405180910390f35b610221600480360381019061021c919061602b565b61123a565b60405161022e91906164bd565b60405180910390f35b610251600480360381019061024c91906164d8565b61146c565b60405161025e9190616627565b60405180910390f35b610281600480360381019061027c91906169cc565b6118e6565b005b61028b611f32565b6040516102989190616ab2565b60405180910390f35b6102bb60048036038101906102b69190616acd565b611f5c565b005b6102c56122ae565b6040516102d29190616ab2565b60405180910390f35b6102f560048036038101906102f09190616b29565b6122d8565b005b6102ff612785565b60405161030c9190616ab2565b60405180910390f35b61032f600480360381019061032a919061602b565b6127af565b60405161033c9190616c0b565b60405180910390f35b61035f600480360381019061035a919061602b565b612c51565b005b61037b6004803603810190610376919061602b565b61313d565b60405161038891906164bd565b60405180910390f35b6103996134ca565b6040516103a69190616ab2565b60405180910390f35b6103c960048036038101906103c4919061602b565b6134f4565b6040516103d691906164bd565b60405180910390f35b6103f960048036038101906103f49190616c2d565b613708565b005b6104156004803603810190610410919061602b565b613d43565b005b610431600480360381019061042c919061602b565b6140eb565b60405161043e919061648c565b60405180910390f35b610461600480360381019061045c919061602b565b614557565b005b61047d60048036038101906104789190616ce8565b614a9c565b005b610487615c2d565b8273ffffffffffffffffffffffffffffffffffffffff163373ffffffffffffffffffffffffffffffffffffffff16036108fc576000808054905067ffffffffffffffff8111156104da576104d9615f00565b5b60405190808252806020026020018201604052801561051357816020015b610500615c50565b8152602001906001900390816104f85790505b5090506000805b6000805490508110156108b7578573ffffffffffffffffffffffffffffffffffffffff166000828154811061055257610551616d73565b5b906000526020600020906004020160000160009054906101000a900473ffffffffffffffffffffffffffffffffffffffff1673ffffffffffffffffffffffffffffffffffffffff1614801561070d5750600160009054906101000a900473ffffffffffffffffffffffffffffffffffffffff1673ffffffffffffffffffffffffffffffffffffffff1662438ceb600083815481106105f3576105f2616d73565b5b90600052602060002090600402016001016040518263ffffffff1660e01b81526004016106209190616eac565b600060405180830381865afa15801561063d573d6000803e3d6000fd5b505050506040513d6000823e3d601f19601f820116820180604052508101906106669190617006565b6020015160405160200161067a919061708b565b60405160208183030381529060405280519060200120856040516020016106a1919061708b565b60405160208183030381529060405280519060200120148061070c57506040516020016106cd906170c8565b60405160208183030381529060405280519060200120856040516020016106f4919061708b565b60405160208183030381529060405280519060200120145b5b156108a457600080828154811061072757610726616d73565b5b9060005260206000209060040201600101805461074390616dd1565b80601f016020809104026020016040519081016040528092919081815260200182805461076f90616dd1565b80156107bc5780601f10610791576101008083540402835291602001916107bc565b820191906000526020600020905b81548152906001019060200180831161079f57829003601f168201915b505050505090506000600160009054906101000a900473ffffffffffffffffffffffffffffffffffffffff1673ffffffffffffffffffffffffffffffffffffffff166347eb6fa783896040518363ffffffff1660e01b8152600401610822929190617116565b600060405180830381865afa15801561083f573d6000803e3d6000fd5b505050506040513d6000823e3d601f19601f8201168201806040525081019061086891906173b7565b90506000816020015190508086868151811061088757610886616d73565b5b6020026020010181905250848061089d90617439565b9550505050505b80806108af90617439565b91505061051a565b50808252600081146108f95760405180606001604052806001151581526020018381526020016040518060200160405280600081525081525092505050610989565b50505b6040518060600160405280600015158152602001600067ffffffffffffffff81111561092b5761092a615f00565b5b60405190808252806020026020018201604052801561096457816020015b610951615c50565b8152602001906001900390816109495790505b5081526020016040518060800160405280604e8152602001618882604e913981525090505b92915050565b610997615cb2565b6109a082615121565b8015610a9857506040516020016109b6906174cd565b60405160208183030381529060405280519060200120600160009054906101000a900473ffffffffffffffffffffffffffffffffffffffff1673ffffffffffffffffffffffffffffffffffffffff1662438ceb846040518263ffffffff1660e01b8152600401610a2691906174e2565b600060405180830381865afa158015610a43573d6000803e3d6000fd5b505050506040513d6000823e3d601f19601f82011682018060405250810190610a6c9190617006565b60200151604051602001610a80919061708b565b60405160208183030381529060405280519060200120145b15610cfb5760005b600080549050811015610cf957600460009054906101000a900473ffffffffffffffffffffffffffffffffffffffff1673ffffffffffffffffffffffffffffffffffffffff16635c99c71b8560008481548110610b0057610aff616d73565b5b906000526020600020906004020160000160009054906101000a900473ffffffffffffffffffffffffffffffffffffffff168660008681548110610b4757610b46616d73565b5b90600052602060002090600402016001016040518563ffffffff1660e01b8152600401610b779493929190617504565b602060405180830381865afa158015610b94573d6000803e3d6000fd5b505050506040513d601f19601f82011682018060405250810190610bb89190617557565b15610ce657604051806060016040528060011515815260200160008381548110610be557610be4616d73565b5b9060005260206000209060040201600301805480602002602001604051908101604052809291908181526020016000905b82821015610cc2578382906000526020600020018054610c3590616dd1565b80601f0160208091040260200160405190810160405280929190818152602001828054610c6190616dd1565b8015610cae5780601f10610c8357610100808354040283529160200191610cae565b820191906000526020600020905b815481529060010190602001808311610c9157829003601f168201915b505050505081526020019060010190610c16565b50505050815260200160405180602001604052806000815250815250915050610d82565b8080610cf190617439565b915050610aa0565b505b6040518060600160405280600015158152602001600067ffffffffffffffff811115610d2a57610d29615f00565b5b604051908082528060200260200182016040528015610d5d57816020015b6060815260200190600190039081610d485790505b5081526020016040518060a00160405280606881526020016188d06068913981525090505b92915050565b600080600090505b60008054905081101561107c576000600160009054906101000a900473ffffffffffffffffffffffffffffffffffffffff1673ffffffffffffffffffffffffffffffffffffffff1663f880680b60008481548110610df157610df0616d73565b5b90600052602060002090600402016001016040518263ffffffff1660e01b8152600401610e1e9190616eac565b600060405180830381865afa158015610e3b573d6000803e3d6000fd5b505050506040513d6000823e3d601f19601f82011682018060405250810190610e649190617006565b6020015190506000600160009054906101000a900473ffffffffffffffffffffffffffffffffffffffff1673ffffffffffffffffffffffffffffffffffffffff1662438ceb60008581548110610ebd57610ebc616d73565b5b90600052602060002090600402016001016040518263ffffffff1660e01b8152600401610eea9190616eac565b600060405180830381865afa158015610f07573d6000803e3d6000fd5b505050506040513d6000823e3d601f19601f82011682018060405250810190610f309190617006565b6020015190508573ffffffffffffffffffffffffffffffffffffffff1660008481548110610f6157610f60616d73565b5b906000526020600020906004020160000160009054906101000a900473ffffffffffffffffffffffffffffffffffffffff1673ffffffffffffffffffffffffffffffffffffffff16148015611001575084604051602001610fc2919061708b565b6040516020818303038152906040528051906020012082604051602001610fe9919061708b565b60405160208183030381529060405280519060200120145b80156110565750604051602001611017906174cd565b604051602081830303815290604052805190602001208160405160200161103e919061708b565b60405160208183030381529060405280519060200120145b156110675760019350505050611082565b5050808061107490617439565b915050610d90565b50600090505b92915050565b600061109382615121565b806110eb5750600360009054906101000a900473ffffffffffffffffffffffffffffffffffffffff1673ffffffffffffffffffffffffffffffffffffffff163373ffffffffffffffffffffffffffffffffffffffff16145b1561122f5760005b60008054905081101561122d57600460009054906101000a900473ffffffffffffffffffffffffffffffffffffffff1673ffffffffffffffffffffffffffffffffffffffff16635c99c71b856000848154811061115357611152616d73565b5b906000526020600020906004020160000160009054906101000a900473ffffffffffffffffffffffffffffffffffffffff16866000868154811061119a57611199616d73565b5b90600052602060002090600402016001016040518563ffffffff1660e01b81526004016111ca9493929190617504565b602060405180830381865afa1580156111e7573d6000803e3d6000fd5b505050506040513d601f19601f8201168201806040525081019061120b9190617557565b1561121a576001915050611234565b808061122590617439565b9150506110f3565b505b600090505b92915050565b60008273ffffffffffffffffffffffffffffffffffffffff163373ffffffffffffffffffffffffffffffffffffffff16141580156113135750600160009054906101000a900473ffffffffffffffffffffffffffffffffffffffff1673ffffffffffffffffffffffffffffffffffffffff166352a9baef84846040518363ffffffff1660e01b81526004016112d0929190617584565b602060405180830381865afa1580156112ed573d6000803e3d6000fd5b505050506040513d601f19601f820116820180604052508101906113119190617557565b155b801561135b575061135a33836040518060400160405280600581526020017f736861726500000000000000000000000000000000000000000000000000000081525061545d565b5b80156114535750604051602001611371906174cd565b60405160208183030381529060405280519060200120600160009054906101000a900473ffffffffffffffffffffffffffffffffffffffff1673ffffffffffffffffffffffffffffffffffffffff1662438ceb846040518263ffffffff1660e01b81526004016113e191906174e2565b600060405180830381865afa1580156113fe573d6000803e3d6000fd5b505050506040513d6000823e3d601f19601f820116820180604052508101906114279190617006565b6020015160405160200161143b919061708b565b60405160208183030381529060405280519060200120145b156114615760019050611466565b600090505b92915050565b611474615cd5565b61147d82615121565b80156115755750604051602001611493906174cd565b60405160208183030381529060405280519060200120600160009054906101000a900473ffffffffffffffffffffffffffffffffffffffff1673ffffffffffffffffffffffffffffffffffffffff1662438ceb846040518263ffffffff1660e01b815260040161150391906174e2565b600060405180830381865afa158015611520573d6000803e3d6000fd5b505050506040513d6000823e3d601f19601f820116820180604052508101906115499190617006565b6020015160405160200161155d919061708b565b60405160208183030381529060405280519060200120145b1561185f576000808054905067ffffffffffffffff81111561159a57611599615f00565b5b6040519080825280602002602001820160405280156115c85781602001602082028036833780820191505090505b5090506000805b60008054905081101561182557846040516020016115ed919061708b565b604051602081830303815290604052805190602001206000828154811061161757611616616d73565b5b90600052602060002090600402016001016040516020016116389190617637565b6040516020818303038152906040528051906020012014801561176b5750604051602001611665906174cd565b60405160208183030381529060405280519060200120600160009054906101000a900473ffffffffffffffffffffffffffffffffffffffff1673ffffffffffffffffffffffffffffffffffffffff1662438ceb600084815481106116cc576116cb616d73565b5b90600052602060002090600402016001016040518263ffffffff1660e01b81526004016116f99190616eac565b600060405180830381865afa158015611716573d6000803e3d6000fd5b505050506040513d6000823e3d601f19601f8201168201806040525081019061173f9190617006565b60200151604051602001611753919061708b565b60405160208183030381529060405280519060200120145b15611812576000818154811061178457611783616d73565b5b906000526020600020906004020160000160009054906101000a900473ffffffffffffffffffffffffffffffffffffffff168383815181106117c9576117c8616d73565b5b602002602001019073ffffffffffffffffffffffffffffffffffffffff16908173ffffffffffffffffffffffffffffffffffffffff1681525050818061180e90617439565b9250505b808061181d90617439565b9150506115cf565b50808252604051806060016040528060011515815260200183815260200160405180602001604052806000815250815250925050506118e1565b6040518060600160405280600015158152602001600067ffffffffffffffff81111561188e5761188d615f00565b5b6040519080825280602002602001820160405280156118bc5781602001602082028036833780820191505090505b5081526020016040518060800160405280605b8152602001618827605b913981525090505b919050565b6118f3846000015161560b565b801561190757506119068484848461575d565b5b80156119ab5750600560009054906101000a900473ffffffffffffffffffffffffffffffffffffffff1673ffffffffffffffffffffffffffffffffffffffff16638aaa7370336040518263ffffffff1660e01b81526004016119699190616ab2565b602060405180830381865afa158015611986573d6000803e3d6000fd5b505050506040513d601f19601f820116820180604052508101906119aa9190617557565b5b8015611a4f5750600560009054906101000a900473ffffffffffffffffffffffffffffffffffffffff1673ffffffffffffffffffffffffffffffffffffffff16639506d9e3336040518263ffffffff1660e01b8152600401611a0d9190616ab2565b602060405180830381865afa158015611a2a573d6000803e3d6000fd5b505050506040513d601f19601f82011682018060405250810190611a4e9190617557565b5b15611f2c5760005b600080549050811015611e06578460000151604051602001611a79919061708b565b6040516020818303038152906040528051906020012060008281548110611aa357611aa2616d73565b5b9060005260206000209060040201600101604051602001611ac49190617637565b6040516020818303038152906040528051906020012003611df3576000805b8451811015611b995760008381548110611b0057611aff616d73565b5b906000526020600020906004020160000160009054906101000a900473ffffffffffffffffffffffffffffffffffffffff1673ffffffffffffffffffffffffffffffffffffffff16858281518110611b5b57611b5a616d73565b5b602002602001015173ffffffffffffffffffffffffffffffffffffffff1603611b8657809150611b99565b8080611b9190617439565b915050611ae3565b506000838281518110611baf57611bae616d73565b5b602002602001015190506000604051806080016040528060008681548110611bda57611bd9616d73565b5b906000526020600020906004020160000160009054906101000a900473ffffffffffffffffffffffffffffffffffffffff1673ffffffffffffffffffffffffffffffffffffffff1681526020018860000151815260200183815260200160008681548110611c4b57611c4a616d73565b5b9060005260206000209060040201600301805480602002602001604051908101604052809291908181526020016000905b82821015611d28578382906000526020600020018054611c9b90616dd1565b80601f0160208091040260200160405190810160405280929190818152602001828054611cc790616dd1565b8015611d145780601f10611ce957610100808354040283529160200191611d14565b820191906000526020600020905b815481529060010190602001808311611cf757829003601f168201915b505050505081526020019060010190611c7c565b505050508152509050600081908060018154018082558091505060019003906000526020600020906004020160009091909190915060008201518160000160006101000a81548173ffffffffffffffffffffffffffffffffffffffff021916908373ffffffffffffffffffffffffffffffffffffffff1602179055506020820151816001019081611db991906177e5565b506040820151816002019081611dcf91906177e5565b506060820151816003019080519060200190611dec929190615cf8565b5050505050505b8080611dfe90617439565b915050611a57565b50600160009054906101000a900473ffffffffffffffffffffffffffffffffffffffff1673ffffffffffffffffffffffffffffffffffffffff166395f0f0bb85856040518363ffffffff1660e01b8152600401611e649291906179a6565b600060405180830381600087803b158015611e7e57600080fd5b505af1158015611e92573d6000803e3d6000fd5b50505050600360009054906101000a900473ffffffffffffffffffffffffffffffffffffffff1673ffffffffffffffffffffffffffffffffffffffff1663c47ebddc338660000151336040518463ffffffff1660e01b8152600401611ef993929190617a75565b600060405180830381600087803b158015611f1357600080fd5b505af1158015611f27573d6000803e3d6000fd5b505050505b50505050565b6000600160009054906101000a900473ffffffffffffffffffffffffffffffffffffffff16905090565b8073ffffffffffffffffffffffffffffffffffffffff163373ffffffffffffffffffffffffffffffffffffffff16148015611fd35750611fd281836040518060400160405280600881526020017f646f776e6c6f616400000000000000000000000000000000000000000000000081525061545d565b5b80156120cb5750604051602001611fe9906174cd565b60405160208183030381529060405280519060200120600160009054906101000a900473ffffffffffffffffffffffffffffffffffffffff1673ffffffffffffffffffffffffffffffffffffffff1662438ceb846040518263ffffffff1660e01b815260040161205991906174e2565b600060405180830381865afa158015612076573d6000803e3d6000fd5b505050506040513d6000823e3d601f19601f8201168201806040525081019061209f9190617006565b602001516040516020016120b3919061708b565b60405160208183030381529060405280519060200120145b801561216f5750600560009054906101000a900473ffffffffffffffffffffffffffffffffffffffff1673ffffffffffffffffffffffffffffffffffffffff16638aaa7370826040518263ffffffff1660e01b815260040161212d9190616ab2565b602060405180830381865afa15801561214a573d6000803e3d6000fd5b505050506040513d601f19601f8201168201806040525081019061216e9190617557565b5b80156122135750600560009054906101000a900473ffffffffffffffffffffffffffffffffffffffff1673ffffffffffffffffffffffffffffffffffffffff16639506d9e3826040518263ffffffff1660e01b81526004016121d19190616ab2565b602060405180830381865afa1580156121ee573d6000803e3d6000fd5b505050506040513d601f19601f820116820180604052508101906122129190617557565b5b156122aa57600360009054906101000a900473ffffffffffffffffffffffffffffffffffffffff1673ffffffffffffffffffffffffffffffffffffffff1663c47ebddc3384846040518463ffffffff1660e01b815260040161227793929190617b25565b600060405180830381600087803b15801561229157600080fd5b505af11580156122a5573d6000803e3d6000fd5b505050505b5050565b6000600260009054906101000a900473ffffffffffffffffffffffffffffffffffffffff16905090565b6122e2838361123a565b80156123865750600460009054906101000a900473ffffffffffffffffffffffffffffffffffffffff1673ffffffffffffffffffffffffffffffffffffffff1663bda49b1d826040518263ffffffff1660e01b81526004016123449190617c0f565b602060405180830381865afa158015612361573d6000803e3d6000fd5b505050506040513d601f19601f820116820180604052508101906123859190617557565b5b801561242a5750600560009054906101000a900473ffffffffffffffffffffffffffffffffffffffff1673ffffffffffffffffffffffffffffffffffffffff16638aaa7370846040518263ffffffff1660e01b81526004016123e89190616ab2565b602060405180830381865afa158015612405573d6000803e3d6000fd5b505050506040513d601f19601f820116820180604052508101906124299190617557565b5b80156124ce5750600560009054906101000a900473ffffffffffffffffffffffffffffffffffffffff1673ffffffffffffffffffffffffffffffffffffffff16639506d9e3846040518263ffffffff1660e01b815260040161248c9190616ab2565b602060405180830381865afa1580156124a9573d6000803e3d6000fd5b505050506040513d601f19601f820116820180604052508101906124cd9190617557565b5b1561277f5760005b60008054905081101561277d57600460009054906101000a900473ffffffffffffffffffffffffffffffffffffffff1673ffffffffffffffffffffffffffffffffffffffff16635c99c71b856000848154811061253657612535616d73565b5b906000526020600020906004020160000160009054906101000a900473ffffffffffffffffffffffffffffffffffffffff16866000868154811061257d5761257c616d73565b5b90600052602060002090600402016001016040518563ffffffff1660e01b81526004016125ad9493929190617504565b602060405180830381865afa1580156125ca573d6000803e3d6000fd5b505050506040513d601f19601f820116820180604052508101906125ee9190617557565b1561276a57816000828154811061260857612607616d73565b5b9060005260206000209060040201600301908051906020019061262c929190615cf8565b50600360009054906101000a900473ffffffffffffffffffffffffffffffffffffffff1673ffffffffffffffffffffffffffffffffffffffff1663c47ebddc338587600460009054906101000a900473ffffffffffffffffffffffffffffffffffffffff1673ffffffffffffffffffffffffffffffffffffffff16636bb8d768886040518263ffffffff1660e01b81526004016126c99190617c0f565b600060405180830381865afa1580156126e6573d6000803e3d6000fd5b505050506040513d6000823e3d601f19601f8201168201806040525081019061270f9190617006565b602001516040518563ffffffff1660e01b81526004016127329493929190617c7d565b600060405180830381600087803b15801561274c57600080fd5b505af1158015612760573d6000803e3d6000fd5b5050505050612780565b808061277590617439565b9150506124d6565b505b5b505050565b6000600560009054906101000a900473ffffffffffffffffffffffffffffffffffffffff16905090565b6127b7615d51565b8273ffffffffffffffffffffffffffffffffffffffff163373ffffffffffffffffffffffffffffffffffffffff161480156127f857506127f78383611088565b5b80156129e7575060405160200161280e906174cd565b60405160208183030381529060405280519060200120600160009054906101000a900473ffffffffffffffffffffffffffffffffffffffff1673ffffffffffffffffffffffffffffffffffffffff1662438ceb846040518263ffffffff1660e01b815260040161287e91906174e2565b600060405180830381865afa15801561289b573d6000803e3d6000fd5b505050506040513d6000823e3d601f19601f820116820180604052508101906128c49190617006565b602001516040516020016128d8919061708b565b6040516020818303038152906040528051906020012014806129e6575060405160200161290490617d2f565b60405160208183030381529060405280519060200120600160009054906101000a900473ffffffffffffffffffffffffffffffffffffffff1673ffffffffffffffffffffffffffffffffffffffff1662438ceb846040518263ffffffff1660e01b815260040161297491906174e2565b600060405180830381865afa158015612991573d6000803e3d6000fd5b505050506040513d6000823e3d601f19601f820116820180604052508101906129ba9190617006565b602001516040516020016129ce919061708b565b60405160208183030381529060405280519060200120145b5b15612c035760005b600080549050811015612c0157600460009054906101000a900473ffffffffffffffffffffffffffffffffffffffff1673ffffffffffffffffffffffffffffffffffffffff16635c99c71b8560008481548110612a4f57612a4e616d73565b5b906000526020600020906004020160000160009054906101000a900473ffffffffffffffffffffffffffffffffffffffff168660008681548110612a9657612a95616d73565b5b90600052602060002090600402016001016040518563ffffffff1660e01b8152600401612ac69493929190617504565b602060405180830381865afa158015612ae3573d6000803e3d6000fd5b505050506040513d601f19601f82011682018060405250810190612b079190617557565b15612bee57604051806060016040528060011515815260200160008381548110612b3457612b33616d73565b5b90600052602060002090600402016002018054612b5090616dd1565b80601f0160208091040260200160405190810160405280929190818152602001828054612b7c90616dd1565b8015612bc95780601f10612b9e57610100808354040283529160200191612bc9565b820191906000526020600020905b815481529060010190602001808311612bac57829003601f168201915b5050505050815260200160405180602001604052806000815250815250915050612c4b565b8080612bf990617439565b9150506129ef565b505b60405180606001604052806000151581526020016040518060200160405280600081525081526020016040518060e0016040528060a4815260200161878360a4913981525090505b92915050565b600560009054906101000a900473ffffffffffffffffffffffffffffffffffffffff1673ffffffffffffffffffffffffffffffffffffffff16638aaa7370836040518263ffffffff1660e01b8152600401612cac9190616ab2565b602060405180830381865afa158015612cc9573d6000803e3d6000fd5b505050506040513d601f19601f82011682018060405250810190612ced9190617557565b8015612d915750600560009054906101000a900473ffffffffffffffffffffffffffffffffffffffff1673ffffffffffffffffffffffffffffffffffffffff16639506d9e3836040518263ffffffff1660e01b8152600401612d4f9190616ab2565b602060405180830381865afa158015612d6c573d6000803e3d6000fd5b505050506040513d601f19601f82011682018060405250810190612d909190617557565b5b156131385760005b600080549050811015613136576000600160009054906101000a900473ffffffffffffffffffffffffffffffffffffffff1673ffffffffffffffffffffffffffffffffffffffff1663f880680b60008481548110612dfa57612df9616d73565b5b90600052602060002090600402016001016040518263ffffffff1660e01b8152600401612e279190616eac565b600060405180830381865afa158015612e44573d6000803e3d6000fd5b505050506040513d6000823e3d601f19601f82011682018060405250810190612e6d9190617006565b6020015190506000600160009054906101000a900473ffffffffffffffffffffffffffffffffffffffff1673ffffffffffffffffffffffffffffffffffffffff1662438ceb60008581548110612ec657612ec5616d73565b5b90600052602060002090600402016001016040518263ffffffff1660e01b8152600401612ef39190616eac565b600060405180830381865afa158015612f10573d6000803e3d6000fd5b505050506040513d6000823e3d601f19601f82011682018060405250810190612f399190617006565b6020015190508473ffffffffffffffffffffffffffffffffffffffff1660008481548110612f6a57612f69616d73565b5b906000526020600020906004020160000160009054906101000a900473ffffffffffffffffffffffffffffffffffffffff1673ffffffffffffffffffffffffffffffffffffffff1614801561300a575083604051602001612fcb919061708b565b6040516020818303038152906040528051906020012082604051602001612ff2919061708b565b60405160208183030381529060405280519060200120145b801561305f5750604051602001613020906174cd565b6040516020818303038152906040528051906020012081604051602001613047919061708b565b60405160208183030381529060405280519060200120145b1561312157600360009054906101000a900473ffffffffffffffffffffffffffffffffffffffff1673ffffffffffffffffffffffffffffffffffffffff1663c47ebddc33600086815481106130b7576130b6616d73565b5b9060005260206000209060040201600101886040518463ffffffff1660e01b81526004016130e793929190617d90565b600060405180830381600087803b15801561310157600080fd5b505af1158015613115573d6000803e3d6000fd5b50505050505050613139565b5050808061312e90617439565b915050612d99565b505b5b5050565b60008273ffffffffffffffffffffffffffffffffffffffff163373ffffffffffffffffffffffffffffffffffffffff16141580156132165750600160009054906101000a900473ffffffffffffffffffffffffffffffffffffffff1673ffffffffffffffffffffffffffffffffffffffff166352a9baef84846040518363ffffffff1660e01b81526004016131d3929190617584565b602060405180830381865afa1580156131f0573d6000803e3d6000fd5b505050506040513d601f19601f820116820180604052508101906132149190617557565b155b801561325e575061325d33836040518060400160405280600581526020017f736861726500000000000000000000000000000000000000000000000000000081525061545d565b5b8015613271575061326f8383611088565b155b80156133155750600160009054906101000a900473ffffffffffffffffffffffffffffffffffffffff1673ffffffffffffffffffffffffffffffffffffffff16639bccd6ad836040518263ffffffff1660e01b81526004016132d391906174e2565b602060405180830381865afa1580156132f0573d6000803e3d6000fd5b505050506040513d601f19601f820116820180604052508101906133149190617557565b5b801561340d575060405160200161332b906174cd565b60405160208183030381529060405280519060200120600160009054906101000a900473ffffffffffffffffffffffffffffffffffffffff1673ffffffffffffffffffffffffffffffffffffffff1662438ceb846040518263ffffffff1660e01b815260040161339b91906174e2565b600060405180830381865afa1580156133b8573d6000803e3d6000fd5b505050506040513d6000823e3d601f19601f820116820180604052508101906133e19190617006565b602001516040516020016133f5919061708b565b60405160208183030381529060405280519060200120145b80156134b15750600260009054906101000a900473ffffffffffffffffffffffffffffffffffffffff1673ffffffffffffffffffffffffffffffffffffffff1663a240e426846040518263ffffffff1660e01b815260040161346f9190616ab2565b602060405180830381865afa15801561348c573d6000803e3d6000fd5b505050506040513d601f19601f820116820180604052508101906134b09190617557565b5b156134bf57600190506134c4565b600090505b92915050565b6000600360009054906101000a900473ffffffffffffffffffffffffffffffffffffffff16905090565b600080600160009054906101000a900473ffffffffffffffffffffffffffffffffffffffff1673ffffffffffffffffffffffffffffffffffffffff1663922243ad846040518263ffffffff1660e01b815260040161355291906174e2565b600060405180830381865afa15801561356f573d6000803e3d6000fd5b505050506040513d6000823e3d601f19601f820116820180604052508101906135989190617f45565b60200151905060005b6000805490508110156136fb5760005b82518110156136e7578573ffffffffffffffffffffffffffffffffffffffff16600083815481106135e5576135e4616d73565b5b906000526020600020906004020160000160009054906101000a900473ffffffffffffffffffffffffffffffffffffffff1673ffffffffffffffffffffffffffffffffffffffff161480156136c3575082818151811061364857613647616d73565b5b6020026020010151604051602001613660919061708b565b604051602081830303815290604052805190602001206000838154811061368a57613689616d73565b5b90600052602060002090600402016001016040516020016136ab9190617637565b60405160208183030381529060405280519060200120145b156136d45760019350505050613702565b80806136df90617439565b9150506135b1565b5080806136f390617439565b9150506135a1565b5060009150505b92915050565b613712848461313d565b801561380a5750604051602001613728906174cd565b60405160208183030381529060405280519060200120600160009054906101000a900473ffffffffffffffffffffffffffffffffffffffff1673ffffffffffffffffffffffffffffffffffffffff1662438ceb856040518263ffffffff1660e01b815260040161379891906174e2565b600060405180830381865afa1580156137b5573d6000803e3d6000fd5b505050506040513d6000823e3d601f19601f820116820180604052508101906137de9190617006565b602001516040516020016137f2919061708b565b60405160208183030381529060405280519060200120145b80156138ae5750600560009054906101000a900473ffffffffffffffffffffffffffffffffffffffff1673ffffffffffffffffffffffffffffffffffffffff16638aaa7370856040518263ffffffff1660e01b815260040161386c9190616ab2565b602060405180830381865afa158015613889573d6000803e3d6000fd5b505050506040513d601f19601f820116820180604052508101906138ad9190617557565b5b80156139525750600560009054906101000a900473ffffffffffffffffffffffffffffffffffffffff1673ffffffffffffffffffffffffffffffffffffffff16639506d9e3856040518263ffffffff1660e01b81526004016139109190616ab2565b602060405180830381865afa15801561392d573d6000803e3d6000fd5b505050506040513d601f19601f820116820180604052508101906139519190617557565b5b15613d3d576000600460009054906101000a900473ffffffffffffffffffffffffffffffffffffffff1673ffffffffffffffffffffffffffffffffffffffff1663872e35a98686856040518463ffffffff1660e01b81526004016139b893929190617fb1565b602060405180830381865afa1580156139d5573d6000803e3d6000fd5b505050506040513d601f19601f820116820180604052508101906139f99190617557565b90508015613d3b576000600160009054906101000a900473ffffffffffffffffffffffffffffffffffffffff1673ffffffffffffffffffffffffffffffffffffffff1663fadc54f4866040518263ffffffff1660e01b8152600401613a5e91906174e2565b600060405180830381865afa158015613a7b573d6000803e3d6000fd5b505050506040513d6000823e3d601f19601f82011682018060405250810190613aa49190618186565b60200151905060005b8151811015613c01576000828281518110613acb57613aca616d73565b5b6020026020010151600001519050600060405180608001604052808a73ffffffffffffffffffffffffffffffffffffffff168152602001838152602001888581518110613b1b57613b1a616d73565b5b60200260200101518152602001878152509050600081908060018154018082558091505060019003906000526020600020906004020160009091909190915060008201518160000160006101000a81548173ffffffffffffffffffffffffffffffffffffffff021916908373ffffffffffffffffffffffffffffffffffffffff1602179055506020820151816001019081613bb691906177e5565b506040820151816002019081613bcc91906177e5565b506060820151816003019080519060200190613be9929190615cf8565b50505050508080613bf990617439565b915050613aad565b50600360009054906101000a900473ffffffffffffffffffffffffffffffffffffffff1673ffffffffffffffffffffffffffffffffffffffff1663c47ebddc338789600460009054906101000a900473ffffffffffffffffffffffffffffffffffffffff1673ffffffffffffffffffffffffffffffffffffffff16636bb8d768896040518263ffffffff1660e01b8152600401613c9e9190617c0f565b600060405180830381865afa158015613cbb573d6000803e3d6000fd5b505050506040513d6000823e3d601f19601f82011682018060405250810190613ce49190617006565b602001516040518563ffffffff1660e01b8152600401613d07949392919061821b565b600060405180830381600087803b158015613d2157600080fd5b505af1158015613d35573d6000803e3d6000fd5b50505050505b505b50505050565b613d8333826040518060400160405280600681526020017f64656c657465000000000000000000000000000000000000000000000000000081525061545d565b8015613e7b5750604051602001613d99906174cd565b60405160208183030381529060405280519060200120600160009054906101000a900473ffffffffffffffffffffffffffffffffffffffff1673ffffffffffffffffffffffffffffffffffffffff1662438ceb836040518263ffffffff1660e01b8152600401613e0991906174e2565b600060405180830381865afa158015613e26573d6000803e3d6000fd5b505050506040513d6000823e3d601f19601f82011682018060405250810190613e4f9190617006565b60200151604051602001613e63919061708b565b60405160208183030381529060405280519060200120145b8015613f1f5750600560009054906101000a900473ffffffffffffffffffffffffffffffffffffffff1673ffffffffffffffffffffffffffffffffffffffff16638aaa7370836040518263ffffffff1660e01b8152600401613edd9190616ab2565b602060405180830381865afa158015613efa573d6000803e3d6000fd5b505050506040513d601f19601f82011682018060405250810190613f1e9190617557565b5b8015613fc35750600560009054906101000a900473ffffffffffffffffffffffffffffffffffffffff1673ffffffffffffffffffffffffffffffffffffffff16639506d9e3836040518263ffffffff1660e01b8152600401613f819190616ab2565b602060405180830381865afa158015613f9e573d6000803e3d6000fd5b505050506040513d601f19601f82011682018060405250810190613fc29190617557565b5b156140e757600160009054906101000a900473ffffffffffffffffffffffffffffffffffffffff1673ffffffffffffffffffffffffffffffffffffffff166374546fdf826040518263ffffffff1660e01b815260040161402391906174e2565b600060405180830381600087803b15801561403d57600080fd5b505af1158015614051573d6000803e3d6000fd5b50505050600360009054906101000a900473ffffffffffffffffffffffffffffffffffffffff1673ffffffffffffffffffffffffffffffffffffffff1663c47ebddc3383856040518463ffffffff1660e01b81526004016140b4939291906182cd565b600060405180830381600087803b1580156140ce57600080fd5b505af11580156140e2573d6000803e3d6000fd5b505050505b5050565b6140f3615cb2565b8273ffffffffffffffffffffffffffffffffffffffff163373ffffffffffffffffffffffffffffffffffffffff1614801561413457506141338383611088565b5b8015614323575060405160200161414a906174cd565b60405160208183030381529060405280519060200120600160009054906101000a900473ffffffffffffffffffffffffffffffffffffffff1673ffffffffffffffffffffffffffffffffffffffff1662438ceb846040518263ffffffff1660e01b81526004016141ba91906174e2565b600060405180830381865afa1580156141d7573d6000803e3d6000fd5b505050506040513d6000823e3d601f19601f820116820180604052508101906142009190617006565b60200151604051602001614214919061708b565b604051602081830303815290604052805190602001201480614322575060405160200161424090617d2f565b60405160208183030381529060405280519060200120600160009054906101000a900473ffffffffffffffffffffffffffffffffffffffff1673ffffffffffffffffffffffffffffffffffffffff1662438ceb846040518263ffffffff1660e01b81526004016142b091906174e2565b600060405180830381865afa1580156142cd573d6000803e3d6000fd5b505050506040513d6000823e3d601f19601f820116820180604052508101906142f69190617006565b6020015160405160200161430a919061708b565b60405160208183030381529060405280519060200120145b5b156144ca576000600160009054906101000a900473ffffffffffffffffffffffffffffffffffffffff1673ffffffffffffffffffffffffffffffffffffffff1663fadc54f4846040518263ffffffff1660e01b815260040161438591906174e2565b600060405180830381865afa1580156143a2573d6000803e3d6000fd5b505050506040513d6000823e3d601f19601f820116820180604052508101906143cb9190618186565b6020015190506000815167ffffffffffffffff8111156143ee576143ed615f00565b5b60405190808252806020026020018201604052801561442157816020015b606081526020019060019003908161440c5790505b50905060005b825181101561449357600061445a8785848151811061444957614448616d73565b5b6020026020010151600001516127af565b6020015190508083838151811061447457614473616d73565b5b602002602001018190525050808061448b90617439565b915050614427565b5060405180606001604052806001151581526020018281526020016040518060200160405280600081525081525092505050614551565b6040518060600160405280600015158152602001600067ffffffffffffffff8111156144f9576144f8615f00565b5b60405190808252806020026020018201604052801561452c57816020015b60608152602001906001900390816145175790505b5081526020016040518060e0016040528060a4815260200161878360a4913981525090505b92915050565b614561828261123a565b80156146055750600560009054906101000a900473ffffffffffffffffffffffffffffffffffffffff1673ffffffffffffffffffffffffffffffffffffffff16638aaa7370836040518263ffffffff1660e01b81526004016145c39190616ab2565b602060405180830381865afa1580156145e0573d6000803e3d6000fd5b505050506040513d601f19601f820116820180604052508101906146049190617557565b5b80156146a95750600560009054906101000a900473ffffffffffffffffffffffffffffffffffffffff1673ffffffffffffffffffffffffffffffffffffffff16639506d9e3836040518263ffffffff1660e01b81526004016146679190616ab2565b602060405180830381865afa158015614684573d6000803e3d6000fd5b505050506040513d601f19601f820116820180604052508101906146a89190617557565b5b15614a97576000600160009054906101000a900473ffffffffffffffffffffffffffffffffffffffff1673ffffffffffffffffffffffffffffffffffffffff1663fadc54f4836040518263ffffffff1660e01b815260040161470b91906174e2565b600060405180830381865afa158015614728573d6000803e3d6000fd5b505050506040513d6000823e3d601f19601f820116820180604052508101906147519190618186565b60200151905060005b81518110156149ff5760005b6000805490508110156149eb578473ffffffffffffffffffffffffffffffffffffffff166000828154811061479e5761479d616d73565b5b906000526020600020906004020160000160009054906101000a900473ffffffffffffffffffffffffffffffffffffffff1673ffffffffffffffffffffffffffffffffffffffff16148015614850575082828151811061480157614800616d73565b5b602002602001015160000151805190602001206000828154811061482857614827616d73565b5b906000526020600020906004020160010160405161484691906183d4565b6040518091039020145b156149d8576000600160008054905061486991906183eb565b8154811061487a57614879616d73565b5b90600052602060002090600402016000828154811061489c5761489b616d73565b5b90600052602060002090600402016000820160009054906101000a900473ffffffffffffffffffffffffffffffffffffffff168160000160006101000a81548173ffffffffffffffffffffffffffffffffffffffff021916908373ffffffffffffffffffffffffffffffffffffffff160217905550600182018160010190816149259190618435565b506002820181600201908161493a9190618435565b506003820181600301908054614951929190615d74565b5090505060008054806149675761496661851d565b5b6001900381819060005260206000209060040201600080820160006101000a81549073ffffffffffffffffffffffffffffffffffffffff02191690556001820160006149b39190615dd1565b6002820160006149c39190615dd1565b6003820160006149d39190615e11565b505090555b80806149e390617439565b915050614766565b5080806149f790617439565b91505061475a565b50600360009054906101000a900473ffffffffffffffffffffffffffffffffffffffff1673ffffffffffffffffffffffffffffffffffffffff1663c47ebddc3384866040518463ffffffff1660e01b8152600401614a5f93929190618598565b600060405180830381600087803b158015614a7957600080fd5b505af1158015614a8d573d6000803e3d6000fd5b5050505050614a98565b5b5050565b614aaa838360000151615b2c565b8015614b4e5750600560009054906101000a900473ffffffffffffffffffffffffffffffffffffffff1673ffffffffffffffffffffffffffffffffffffffff16638aaa7370846040518263ffffffff1660e01b8152600401614b0c9190616ab2565b602060405180830381865afa158015614b29573d6000803e3d6000fd5b505050506040513d601f19601f82011682018060405250810190614b4d9190617557565b5b8015614bf25750600560009054906101000a900473ffffffffffffffffffffffffffffffffffffffff1673ffffffffffffffffffffffffffffffffffffffff16639506d9e3846040518263ffffffff1660e01b8152600401614bb09190616ab2565b602060405180830381865afa158015614bcd573d6000803e3d6000fd5b505050506040513d601f19601f82011682018060405250810190614bf19190617557565b5b1561511c576000600467ffffffffffffffff811115614c1457614c13615f00565b5b604051908082528060200260200182016040528015614c4757816020015b6060815260200190600190039081614c325790505b5090506040518060400160405280600581526020017f736861726500000000000000000000000000000000000000000000000000000081525081600081518110614c9457614c93616d73565b5b60200260200101819052506040518060400160405280600881526020017f646f776e6c6f616400000000000000000000000000000000000000000000000081525081600181518110614ce957614ce8616d73565b5b60200260200101819052506040518060400160405280600681526020017f64656c657465000000000000000000000000000000000000000000000000000081525081600281518110614d3e57614d3d616d73565b5b60200260200101819052506040518060400160405280600481526020017f656469740000000000000000000000000000000000000000000000000000000081525081600381518110614d9357614d92616d73565b5b60200260200101819052506000600460009054906101000a900473ffffffffffffffffffffffffffffffffffffffff1673ffffffffffffffffffffffffffffffffffffffff1663872e35a9868660000151858860e001516040518563ffffffff1660e01b8152600401614e0994939291906185fc565b602060405180830381865afa158015614e26573d6000803e3d6000fd5b505050506040513d601f19601f82011682018060405250810190614e4a9190617557565b9050801561511957600060405180608001604052808773ffffffffffffffffffffffffffffffffffffffff16815260200186600001518152602001858152602001848152509050600081908060018154018082558091505060019003906000526020600020906004020160009091909190915060008201518160000160006101000a81548173ffffffffffffffffffffffffffffffffffffffff021916908373ffffffffffffffffffffffffffffffffffffffff1602179055506020820151816001019081614f1991906177e5565b506040820151816002019081614f2f91906177e5565b506060820151816003019080519060200190614f4c929190615cf8565b505050600160009054906101000a900473ffffffffffffffffffffffffffffffffffffffff1673ffffffffffffffffffffffffffffffffffffffff1663bfddc42f866040518263ffffffff1660e01b8152600401614faa9190618656565b600060405180830381600087803b158015614fc457600080fd5b505af1158015614fd8573d6000803e3d6000fd5b50505050600360009054906101000a900473ffffffffffffffffffffffffffffffffffffffff1673ffffffffffffffffffffffffffffffffffffffff1663c47ebddc33876000015189600460009054906101000a900473ffffffffffffffffffffffffffffffffffffffff1673ffffffffffffffffffffffffffffffffffffffff16636bb8d768896040518263ffffffff1660e01b815260040161507c9190617c0f565b600060405180830381865afa158015615099573d6000803e3d6000fd5b505050506040513d6000823e3d601f19601f820116820180604052508101906150c29190617006565b602001516040518563ffffffff1660e01b81526004016150e594939291906186c4565b600060405180830381600087803b1580156150ff57600080fd5b505af1158015615113573d6000803e3d6000fd5b50505050505b50505b505050565b600080600090505b60008054905081101561545257600460009054906101000a900473ffffffffffffffffffffffffffffffffffffffff1673ffffffffffffffffffffffffffffffffffffffff16635c99c71b336000848154811061518957615188616d73565b5b906000526020600020906004020160000160009054906101000a900473ffffffffffffffffffffffffffffffffffffffff1686600086815481106151d0576151cf616d73565b5b90600052602060002090600402016001016040518563ffffffff1660e01b81526004016152009493929190617504565b602060405180830381865afa15801561521d573d6000803e3d6000fd5b505050506040513d601f19601f820116820180604052508101906152419190617557565b80156154305750604051602001615257906174cd565b60405160208183030381529060405280519060200120600160009054906101000a900473ffffffffffffffffffffffffffffffffffffffff1673ffffffffffffffffffffffffffffffffffffffff1662438ceb856040518263ffffffff1660e01b81526004016152c791906174e2565b600060405180830381865afa1580156152e4573d6000803e3d6000fd5b505050506040513d6000823e3d601f19601f8201168201806040525081019061530d9190617006565b60200151604051602001615321919061708b565b60405160208183030381529060405280519060200120148061542f575060405160200161534d90617d2f565b60405160208183030381529060405280519060200120600160009054906101000a900473ffffffffffffffffffffffffffffffffffffffff1673ffffffffffffffffffffffffffffffffffffffff1662438ceb856040518263ffffffff1660e01b81526004016153bd91906174e2565b600060405180830381865afa1580156153da573d6000803e3d6000fd5b505050506040513d6000823e3d601f19601f820116820180604052508101906154039190617006565b60200151604051602001615417919061708b565b60405160208183030381529060405280519060200120145b5b1561543f576001915050615458565b808061544a90617439565b915050615129565b50600090505b919050565b600060405160200161546e906174cd565b60405160208183030381529060405280519060200120600160009054906101000a900473ffffffffffffffffffffffffffffffffffffffff1673ffffffffffffffffffffffffffffffffffffffff1662438ceb856040518263ffffffff1660e01b81526004016154de91906174e2565b600060405180830381865afa1580156154fb573d6000803e3d6000fd5b505050506040513d6000823e3d601f19601f820116820180604052508101906155249190617006565b60200151604051602001615538919061708b565b60405160208183030381529060405280519060200120036155ff57600061555f858561098f565b60200151905060005b81518110156155fc5783604051602001615582919061708b565b604051602081830303815290604052805190602001208282815181106155ab576155aa616d73565b5b60200260200101516040516020016155c3919061708b565b60405160208183030381529060405280519060200120036155e957600192505050615604565b80806155f490617439565b915050615568565b50505b600090505b9392505050565b600061564d33836040518060400160405280600481526020017f656469740000000000000000000000000000000000000000000000000000000081525061545d565b80156157455750604051602001615663906174cd565b60405160208183030381529060405280519060200120600160009054906101000a900473ffffffffffffffffffffffffffffffffffffffff1673ffffffffffffffffffffffffffffffffffffffff1662438ceb846040518263ffffffff1660e01b81526004016156d391906174e2565b600060405180830381865afa1580156156f0573d6000803e3d6000fd5b505050506040513d6000823e3d601f19601f820116820180604052508101906157199190617006565b6020015160405160200161572d919061708b565b60405160208183030381529060405280519060200120145b156157535760019050615758565b600090505b919050565b60008073ffffffffffffffffffffffffffffffffffffffff16600160009054906101000a900473ffffffffffffffffffffffffffffffffffffffff1673ffffffffffffffffffffffffffffffffffffffff166347eb6fa787600001516040518263ffffffff1660e01b81526004016157d5919061874d565b600060405180830381865afa1580156157f2573d6000803e3d6000fd5b505050506040513d6000823e3d601f19601f8201168201806040525081019061581b91906173b7565b602001516080015173ffffffffffffffffffffffffffffffffffffffff161415801561591f5750600073ffffffffffffffffffffffffffffffffffffffff16600160009054906101000a900473ffffffffffffffffffffffffffffffffffffffff1673ffffffffffffffffffffffffffffffffffffffff166347eb6fa786600001516040518263ffffffff1660e01b81526004016158b9919061874d565b600060405180830381865afa1580156158d6573d6000803e3d6000fd5b505050506040513d6000823e3d601f19601f820116820180604052508101906158ff91906173b7565b602001516080015173ffffffffffffffffffffffffffffffffffffffff16145b80156159795750604051602001615935906170c8565b604051602081830303815290604052805190602001208460200151604051602001615960919061708b565b6040516020818303038152906040528051906020012014155b80156159d3575060405160200161598f906170c8565b604051602081830303815290604052805190602001208460a001516040516020016159ba919061708b565b6040516020818303038152906040528051906020012014155b8015615a2d57506040516020016159e9906170c8565b604051602081830303815290604052805190602001208460c00151604051602001615a14919061708b565b6040516020818303038152906040528051906020012014155b8015615a885750604051602001615a43906170c8565b60405160208183030381529060405280519060200120846101000151604051602001615a6f919061708b565b6040516020818303038152906040528051906020012014155b8015615a95575081518351145b8015615ad45750846080015173ffffffffffffffffffffffffffffffffffffffff16856080015173ffffffffffffffffffffffffffffffffffffffff16145b8015615b115750600073ffffffffffffffffffffffffffffffffffffffff16856080015173ffffffffffffffffffffffffffffffffffffffff1614155b15615b1f5760019050615b24565b600090505b949350505050565b60008273ffffffffffffffffffffffffffffffffffffffff163373ffffffffffffffffffffffffffffffffffffffff16148015615b705750615b6e8383611088565b155b8015615c145750600260009054906101000a900473ffffffffffffffffffffffffffffffffffffffff1673ffffffffffffffffffffffffffffffffffffffff1663a240e426846040518263ffffffff1660e01b8152600401615bd29190616ab2565b602060405180830381865afa158015615bef573d6000803e3d6000fd5b505050506040513d601f19601f82011682018060405250810190615c139190617557565b5b15615c225760019050615c27565b600090505b92915050565b604051806060016040528060001515815260200160608152602001606081525090565b60405180610120016040528060608152602001606081526020016000815260200160608152602001600073ffffffffffffffffffffffffffffffffffffffff168152602001606081526020016060815260200160608152602001606081525090565b604051806060016040528060001515815260200160608152602001606081525090565b604051806060016040528060001515815260200160608152602001606081525090565b828054828255906000526020600020908101928215615d40579160200282015b82811115615d3f578251829081615d2f91906177e5565b5091602001919060010190615d18565b5b509050615d4d9190615e32565b5090565b604051806060016040528060001515815260200160608152602001606081525090565b828054828255906000526020600020908101928215615dc05760005260206000209182015b82811115615dbf5782829081615daf9190618435565b5091600101919060010190615d99565b5b509050615dcd9190615e32565b5090565b508054615ddd90616dd1565b6000825580601f10615def5750615e0e565b601f016020900490600052602060002090810190615e0d9190615e56565b5b50565b5080546000825590600052602060002090810190615e2f9190615e32565b50565b5b80821115615e525760008181615e499190615dd1565b50600101615e33565b5090565b5b80821115615e6f576000816000905550600101615e57565b5090565b6000604051905090565b600080fd5b600080fd5b600073ffffffffffffffffffffffffffffffffffffffff82169050919050565b6000615eb282615e87565b9050919050565b615ec281615ea7565b8114615ecd57600080fd5b50565b600081359050615edf81615eb9565b92915050565b600080fd5b600080fd5b6000601f19601f8301169050919050565b7f4e487b7100000000000000000000000000000000000000000000000000000000600052604160045260246000fd5b615f3882615eef565b810181811067ffffffffffffffff82111715615f5757615f56615f00565b5b80604052505050565b6000615f6a615e73565b9050615f768282615f2f565b919050565b600067ffffffffffffffff821115615f9657615f95615f00565b5b615f9f82615eef565b9050602081019050919050565b82818337600083830152505050565b6000615fce615fc984615f7b565b615f60565b905082815260208101848484011115615fea57615fe9615eea565b5b615ff5848285615fac565b509392505050565b600082601f83011261601257616011615ee5565b5b8135616022848260208601615fbb565b91505092915050565b6000806040838503121561604257616041615e7d565b5b600061605085828601615ed0565b925050602083013567ffffffffffffffff81111561607157616070615e82565b5b61607d85828601615ffd565b9150509250929050565b60008115159050919050565b61609c81616087565b82525050565b600081519050919050565b600082825260208201905092915050565b6000819050602082019050919050565b600081519050919050565b600082825260208201905092915050565b60005b838110156161085780820151818401526020810190506160ed565b60008484015250505050565b600061611f826160ce565b61612981856160d9565b93506161398185602086016160ea565b61614281615eef565b840191505092915050565b6000819050919050565b6161608161614d565b82525050565b61616f81615ea7565b82525050565b60006101208301600083015184820360008601526161938282616114565b915050602083015184820360208601526161ad8282616114565b91505060408301516161c26040860182616157565b50606083015184820360608601526161da8282616114565b91505060808301516161ef6080860182616166565b5060a083015184820360a08601526162078282616114565b91505060c083015184820360c08601526162218282616114565b91505060e083015184820360e086015261623b8282616114565b9150506101008301518482036101008601526162578282616114565b9150508091505092915050565b60006162708383616175565b905092915050565b6000602082019050919050565b6000616290826160a2565b61629a81856160ad565b9350836020820285016162ac856160be565b8060005b858110156162e857848403895281516162c98582616264565b94506162d483616278565b925060208a019950506001810190506162b0565b50829750879550505050505092915050565b60006060830160008301516163126000860182616093565b506020830151848203602086015261632a8282616285565b915050604083015184820360408601526163448282616114565b9150508091505092915050565b6000602082019050818103600083015261636b81846162fa565b905092915050565b600081519050919050565b600082825260208201905092915050565b6000819050602082019050919050565b60006163ab8383616114565b905092915050565b6000602082019050919050565b60006163cb82616373565b6163d5818561637e565b9350836020820285016163e78561638f565b8060005b858110156164235784840389528151616404858261639f565b945061640f836163b3565b925060208a019950506001810190506163eb565b50829750879550505050505092915050565b600060608301600083015161644d6000860182616093565b506020830151848203602086015261646582826163c0565b9150506040830151848203604086015261647f8282616114565b9150508091505092915050565b600060208201905081810360008301526164a68184616435565b905092915050565b6164b781616087565b82525050565b60006020820190506164d260008301846164ae565b92915050565b6000602082840312156164ee576164ed615e7d565b5b600082013567ffffffffffffffff81111561650c5761650b615e82565b5b61651884828501615ffd565b91505092915050565b600081519050919050565b600082825260208201905092915050565b6000819050602082019050919050565b60006165598383616166565b60208301905092915050565b6000602082019050919050565b600061657d82616521565b616587818561652c565b93506165928361653d565b8060005b838110156165c35781516165aa888261654d565b97506165b583616565565b925050600181019050616596565b5085935050505092915050565b60006060830160008301516165e86000860182616093565b50602083015184820360208601526166008282616572565b9150506040830151848203604086015261661a8282616114565b9150508091505092915050565b6000602082019050818103600083015261664181846165d0565b905092915050565b600080fd5b600080fd5b61665c8161614d565b811461666757600080fd5b50565b60008135905061667981616653565b92915050565b6000610120828403121561669657616695616649565b5b6166a1610120615f60565b9050600082013567ffffffffffffffff8111156166c1576166c061664e565b5b6166cd84828501615ffd565b600083015250602082013567ffffffffffffffff8111156166f1576166f061664e565b5b6166fd84828501615ffd565b60208301525060406167118482850161666a565b604083015250606082013567ffffffffffffffff8111156167355761673461664e565b5b61674184828501615ffd565b606083015250608061675584828501615ed0565b60808301525060a082013567ffffffffffffffff8111156167795761677861664e565b5b61678584828501615ffd565b60a08301525060c082013567ffffffffffffffff8111156167a9576167a861664e565b5b6167b584828501615ffd565b60c08301525060e082013567ffffffffffffffff8111156167d9576167d861664e565b5b6167e584828501615ffd565b60e08301525061010082013567ffffffffffffffff81111561680a5761680961664e565b5b61681684828501615ffd565b6101008301525092915050565b600067ffffffffffffffff82111561683e5761683d615f00565b5b602082029050602081019050919050565b600080fd5b600061686761686284616823565b615f60565b9050808382526020820190506020840283018581111561688a5761688961684f565b5b835b818110156168b3578061689f8882615ed0565b84526020840193505060208101905061688c565b5050509392505050565b600082601f8301126168d2576168d1615ee5565b5b81356168e2848260208601616854565b91505092915050565b600067ffffffffffffffff82111561690657616905615f00565b5b602082029050602081019050919050565b600061692a616925846168eb565b615f60565b9050808382526020820190506020840283018581111561694d5761694c61684f565b5b835b8181101561699457803567ffffffffffffffff81111561697257616971615ee5565b5b80860161697f8982615ffd565b8552602085019450505060208101905061694f565b5050509392505050565b600082601f8301126169b3576169b2615ee5565b5b81356169c3848260208601616917565b91505092915050565b600080600080608085870312156169e6576169e5615e7d565b5b600085013567ffffffffffffffff811115616a0457616a03615e82565b5b616a108782880161667f565b945050602085013567ffffffffffffffff811115616a3157616a30615e82565b5b616a3d8782880161667f565b935050604085013567ffffffffffffffff811115616a5e57616a5d615e82565b5b616a6a878288016168bd565b925050606085013567ffffffffffffffff811115616a8b57616a8a615e82565b5b616a978782880161699e565b91505092959194509250565b616aac81615ea7565b82525050565b6000602082019050616ac76000830184616aa3565b92915050565b60008060408385031215616ae457616ae3615e7d565b5b600083013567ffffffffffffffff811115616b0257616b01615e82565b5b616b0e85828601615ffd565b9250506020616b1f85828601615ed0565b9150509250929050565b600080600060608486031215616b4257616b41615e7d565b5b6000616b5086828701615ed0565b935050602084013567ffffffffffffffff811115616b7157616b70615e82565b5b616b7d86828701615ffd565b925050604084013567ffffffffffffffff811115616b9e57616b9d615e82565b5b616baa8682870161699e565b9150509250925092565b6000606083016000830151616bcc6000860182616093565b5060208301518482036020860152616be48282616114565b91505060408301518482036040860152616bfe8282616114565b9150508091505092915050565b60006020820190508181036000830152616c258184616bb4565b905092915050565b60008060008060808587031215616c4757616c46615e7d565b5b6000616c5587828801615ed0565b945050602085013567ffffffffffffffff811115616c7657616c75615e82565b5b616c8287828801615ffd565b935050604085013567ffffffffffffffff811115616ca357616ca2615e82565b5b616caf8782880161699e565b925050606085013567ffffffffffffffff811115616cd057616ccf615e82565b5b616cdc8782880161699e565b91505092959194509250565b600080600060608486031215616d0157616d00615e7d565b5b6000616d0f86828701615ed0565b935050602084013567ffffffffffffffff811115616d3057616d2f615e82565b5b616d3c8682870161667f565b925050604084013567ffffffffffffffff811115616d5d57616d5c615e82565b5b616d6986828701615ffd565b9150509250925092565b7f4e487b7100000000000000000000000000000000000000000000000000000000600052603260045260246000fd5b7f4e487b7100000000000000000000000000000000000000000000000000000000600052602260045260246000fd5b60006002820490506001821680616de957607f821691505b602082108103616dfc57616dfb616da2565b5b50919050565b600082825260208201905092915050565b60008190508160005260206000209050919050565b60008154616e3581616dd1565b616e3f8186616e02565b94506001821660008114616e5a5760018114616e7057616ea3565b60ff198316865281151560200286019350616ea3565b616e7985616e13565b60005b83811015616e9b57815481890152600182019150602081019050616e7c565b808801955050505b50505092915050565b60006020820190508181036000830152616ec68184616e28565b905092915050565b616ed781616087565b8114616ee257600080fd5b50565b600081519050616ef481616ece565b92915050565b6000616f0d616f0884615f7b565b615f60565b905082815260208101848484011115616f2957616f28615eea565b5b616f348482856160ea565b509392505050565b600082601f830112616f5157616f50615ee5565b5b8151616f61848260208601616efa565b91505092915050565b600060608284031215616f8057616f7f616649565b5b616f8a6060615f60565b90506000616f9a84828501616ee5565b600083015250602082015167ffffffffffffffff811115616fbe57616fbd61664e565b5b616fca84828501616f3c565b602083015250604082015167ffffffffffffffff811115616fee57616fed61664e565b5b616ffa84828501616f3c565b60408301525092915050565b60006020828403121561701c5761701b615e7d565b5b600082015167ffffffffffffffff81111561703a57617039615e82565b5b61704684828501616f6a565b91505092915050565b600081905092915050565b6000617065826160ce565b61706f818561704f565b935061707f8185602086016160ea565b80840191505092915050565b6000617097828461705a565b915081905092915050565b50565b60006170b260008361704f565b91506170bd826170a2565b600082019050919050565b60006170d3826170a5565b9150819050919050565b60006170e8826160ce565b6170f28185616e02565b93506171028185602086016160ea565b61710b81615eef565b840191505092915050565b6000604082019050818103600083015261713081856170dd565b9050818103602083015261714481846170dd565b90509392505050565b60008151905061715c81616653565b92915050565b60008151905061717181615eb9565b92915050565b6000610120828403121561718e5761718d616649565b5b617199610120615f60565b9050600082015167ffffffffffffffff8111156171b9576171b861664e565b5b6171c584828501616f3c565b600083015250602082015167ffffffffffffffff8111156171e9576171e861664e565b5b6171f584828501616f3c565b60208301525060406172098482850161714d565b604083015250606082015167ffffffffffffffff81111561722d5761722c61664e565b5b61723984828501616f3c565b606083015250608061724d84828501617162565b60808301525060a082015167ffffffffffffffff8111156172715761727061664e565b5b61727d84828501616f3c565b60a08301525060c082015167ffffffffffffffff8111156172a1576172a061664e565b5b6172ad84828501616f3c565b60c08301525060e082015167ffffffffffffffff8111156172d1576172d061664e565b5b6172dd84828501616f3c565b60e08301525061010082015167ffffffffffffffff8111156173025761730161664e565b5b61730e84828501616f3c565b6101008301525092915050565b60006060828403121561733157617330616649565b5b61733b6060615f60565b9050600061734b84828501616ee5565b600083015250602082015167ffffffffffffffff81111561736f5761736e61664e565b5b61737b84828501617177565b602083015250604082015167ffffffffffffffff81111561739f5761739e61664e565b5b6173ab84828501616f3c565b60408301525092915050565b6000602082840312156173cd576173cc615e7d565b5b600082015167ffffffffffffffff8111156173eb576173ea615e82565b5b6173f78482850161731b565b91505092915050565b7f4e487b7100000000000000000000000000000000000000000000000000000000600052601160045260246000fd5b6000819050919050565b60006174448261742f565b91507fffffffffffffffffffffffffffffffffffffffffffffffffffffffffffffffff820361747657617475617400565b5b600182019050919050565b7f6163746976650000000000000000000000000000000000000000000000000000600082015250565b60006174b760068361704f565b91506174c282617481565b600682019050919050565b60006174d8826174aa565b9150819050919050565b600060208201905081810360008301526174fc81846170dd565b905092915050565b60006080820190506175196000830187616aa3565b6175266020830186616aa3565b818103604083015261753881856170dd565b9050818103606083015261754c8184616e28565b905095945050505050565b60006020828403121561756d5761756c615e7d565b5b600061757b84828501616ee5565b91505092915050565b60006040820190506175996000830185616aa3565b81810360208301526175ab81846170dd565b90509392505050565b600081546175c181616dd1565b6175cb818661704f565b945060018216600081146175e657600181146175fb5761762e565b60ff198316865281151582028601935061762e565b61760485616e13565b60005b8381101561762657815481890152600182019150602081019050617607565b838801955050505b50505092915050565b600061764382846175b4565b915081905092915050565b60006020601f8301049050919050565b600082821b905092915050565b60006008830261769b7fffffffffffffffffffffffffffffffffffffffffffffffffffffffffffffffff8261765e565b6176a5868361765e565b95508019841693508086168417925050509392505050565b6000819050919050565b60006176e26176dd6176d88461742f565b6176bd565b61742f565b9050919050565b6000819050919050565b6176fc836176c7565b617710617708826176e9565b84845461766b565b825550505050565b600090565b617725617718565b6177308184846176f3565b505050565b5b818110156177545761774960008261771d565b600181019050617736565b5050565b601f8211156177995761776a81616e13565b6177738461764e565b81016020851015617782578190505b61779661778e8561764e565b830182617735565b50505b505050565b600082821c905092915050565b60006177bc6000198460080261779e565b1980831691505092915050565b60006177d583836177ab565b9150826002028217905092915050565b6177ee826160ce565b67ffffffffffffffff81111561780757617806615f00565b5b6178118254616dd1565b61781c828285617758565b600060209050601f83116001811461784f576000841561783d578287015190505b61784785826177c9565b8655506178af565b601f19841661785d86616e13565b60005b8281101561788557848901518255600182019150602085019450602081019050617860565b868310156178a2578489015161789e601f8916826177ab565b8355505b6001600288020188555050505b505050505050565b60006101208301600083015184820360008601526178d58282616114565b915050602083015184820360208601526178ef8282616114565b91505060408301516179046040860182616157565b506060830151848203606086015261791c8282616114565b91505060808301516179316080860182616166565b5060a083015184820360a08601526179498282616114565b91505060c083015184820360c08601526179638282616114565b91505060e083015184820360e086015261797d8282616114565b9150506101008301518482036101008601526179998282616114565b9150508091505092915050565b600060408201905081810360008301526179c081856178b7565b905081810360208301526179d481846178b7565b90509392505050565b7f2d00000000000000000000000000000000000000000000000000000000000000600082015250565b6000617a13600183616e02565b9150617a1e826179dd565b602082019050919050565b7f6564697400000000000000000000000000000000000000000000000000000000600082015250565b6000617a5f600483616e02565b9150617a6a82617a29565b602082019050919050565b600060a082019050617a8a6000830186616aa3565b8181036020830152617a9c81856170dd565b9050617aab6040830184616aa3565b8181036060830152617abc81617a06565b90508181036080830152617acf81617a52565b9050949350505050565b7f646f776e6c6f6164000000000000000000000000000000000000000000000000600082015250565b6000617b0f600883616e02565b9150617b1a82617ad9565b602082019050919050565b600060a082019050617b3a6000830186616aa3565b8181036020830152617b4c81856170dd565b9050617b5b6040830184616aa3565b8181036060830152617b6c81617a06565b90508181036080830152617b7f81617b02565b9050949350505050565b600082825260208201905092915050565b6000617ba582616373565b617baf8185617b89565b935083602082028501617bc18561638f565b8060005b85811015617bfd5784840389528151617bde858261639f565b9450617be9836163b3565b925060208a01995050600181019050617bc5565b50829750879550505050505092915050565b60006020820190508181036000830152617c298184617b9a565b905092915050565b7f757064617465207065726d697373696f6e730000000000000000000000000000600082015250565b6000617c67601283616e02565b9150617c7282617c31565b602082019050919050565b600060a082019050617c926000830187616aa3565b8181036020830152617ca481866170dd565b9050617cb36040830185616aa3565b8181036060830152617cc581846170dd565b90508181036080830152617cd881617c5a565b905095945050505050565b7f6564697465640000000000000000000000000000000000000000000000000000600082015250565b6000617d1960068361704f565b9150617d2482617ce3565b600682019050919050565b6000617d3a82617d0c565b9150819050919050565b7f7375636365737320766572696669636174696f6e000000000000000000000000600082015250565b6000617d7a601483616e02565b9150617d8582617d44565b602082019050919050565b600060a082019050617da56000830186616aa3565b8181036020830152617db78185616e28565b9050617dc66040830184616aa3565b8181036060830152617dd781617a06565b90508181036080830152617dea81617d6d565b9050949350505050565b6000617e07617e02846168eb565b615f60565b90508083825260208201905060208402830185811115617e2a57617e2961684f565b5b835b81811015617e7157805167ffffffffffffffff811115617e4f57617e4e615ee5565b5b808601617e5c8982616f3c565b85526020850194505050602081019050617e2c565b5050509392505050565b600082601f830112617e9057617e8f615ee5565b5b8151617ea0848260208601617df4565b91505092915050565b600060608284031215617ebf57617ebe616649565b5b617ec96060615f60565b90506000617ed984828501616ee5565b600083015250602082015167ffffffffffffffff811115617efd57617efc61664e565b5b617f0984828501617e7b565b602083015250604082015167ffffffffffffffff811115617f2d57617f2c61664e565b5b617f3984828501616f3c565b60408301525092915050565b600060208284031215617f5b57617f5a615e7d565b5b600082015167ffffffffffffffff811115617f7957617f78615e82565b5b617f8584828501617ea9565b91505092915050565b6000617f9b600083616e02565b9150617fa6826170a2565b600082019050919050565b6000608082019050617fc66000830186616aa3565b8181036020830152617fd881856170dd565b90508181036040830152617fec8184617b9a565b90508181036060830152617fff81617f8e565b9050949350505050565b600067ffffffffffffffff82111561802457618023615f00565b5b602082029050602081019050919050565b600061804861804384618009565b615f60565b9050808382526020820190506020840283018581111561806b5761806a61684f565b5b835b818110156180b257805167ffffffffffffffff8111156180905761808f615ee5565b5b80860161809d8982617177565b8552602085019450505060208101905061806d565b5050509392505050565b600082601f8301126180d1576180d0615ee5565b5b81516180e1848260208601618035565b91505092915050565b600060608284031215618100576180ff616649565b5b61810a6060615f60565b9050600061811a84828501616ee5565b600083015250602082015167ffffffffffffffff81111561813e5761813d61664e565b5b61814a848285016180bc565b602083015250604082015167ffffffffffffffff81111561816e5761816d61664e565b5b61817a84828501616f3c565b60408301525092915050565b60006020828403121561819c5761819b615e7d565b5b600082015167ffffffffffffffff8111156181ba576181b9615e82565b5b6181c6848285016180ea565b91505092915050565b7f7368617265000000000000000000000000000000000000000000000000000000600082015250565b6000618205600583616e02565b9150618210826181cf565b602082019050919050565b600060a0820190506182306000830187616aa3565b818103602083015261824281866170dd565b90506182516040830185616aa3565b818103606083015261826381846170dd565b90508181036080830152618276816181f8565b905095945050505050565b7f64656c6574656400000000000000000000000000000000000000000000000000600082015250565b60006182b7600783616e02565b91506182c282618281565b602082019050919050565b600060a0820190506182e26000830186616aa3565b81810360208301526182f481856170dd565b90506183036040830184616aa3565b818103606083015261831481617a06565b90508181036080830152618327816182aa565b9050949350505050565b600081905092915050565b60008190508160005260206000209050919050565b6000815461835e81616dd1565b6183688186618331565b945060018216600081146183835760018114618398576183cb565b60ff19831686528115158202860193506183cb565b6183a18561833c565b60005b838110156183c3578154818901526001820191506020810190506183a4565b838801955050505b50505092915050565b60006183e08284618351565b915081905092915050565b60006183f68261742f565b91506184018361742f565b925082820390508181111561841957618418617400565b5b92915050565b60008154905061842e81616dd1565b9050919050565b81810361844357505061851b565b61844c8261841f565b67ffffffffffffffff81111561846557618464615f00565b5b61846f8254616dd1565b61847a828285617758565b6000601f8311600181146184a95760008415618497578287015490505b6184a185826177c9565b865550618514565b601f1984166184b787616e13565b96506184c286616e13565b60005b828110156184ea578489015482556001820191506001850194506020810190506184c5565b868310156185075784890154618503601f8916826177ab565b8355505b6001600288020188555050505b5050505050505b565b7f4e487b7100000000000000000000000000000000000000000000000000000000600052603160045260246000fd5b7f72656d6f76656420616363657373000000000000000000000000000000000000600082015250565b6000618582600e83616e02565b915061858d8261854c565b602082019050919050565b600060a0820190506185ad6000830186616aa3565b81810360208301526185bf81856170dd565b90506185ce6040830184616aa3565b81810360608301526185df81617a06565b905081810360808301526185f281618575565b9050949350505050565b60006080820190506186116000830187616aa3565b818103602083015261862381866170dd565b905081810360408301526186378185617b9a565b9050818103606083015261864b81846170dd565b905095945050505050565b6000602082019050818103600083015261867081846178b7565b905092915050565b7f75706c6f61640000000000000000000000000000000000000000000000000000600082015250565b60006186ae600683616e02565b91506186b982618678565b602082019050919050565b600060a0820190506186d96000830187616aa3565b81810360208301526186eb81866170dd565b90506186fa6040830185616aa3565b818103606083015261870c81846170dd565b9050818103608083015261871f816186a1565b905095945050505050565b6000618737600683616e02565b915061874282617481565b602082019050919050565b6000604082019050818103600083015261876781846170dd565b9050818103602083015261877a8161872a565b90509291505056fe4d616b65207375726520746865207472616e73616374696f6e20657865637574657220617320746f206265207468652073616d652061732074686520757365722c2074686520757365722068617320746f206265206173736f6369617465642077697468207468652066696c652c20616e64207468652066696c652068617320746f20626520696e2074686520616374697665206f72206564697465642073746174652e536f6d657468696e672077656e742077726f6e67207768696c6520747279696e6720746f2067657420746865207573657273207769746820646f776e6c6f6164207065726d697373696f6e73206f766572207468652066696c652e546865207472616e61736374696f6e2065786563757465722073686f756c64206265207468652073616d6520617320746865207573657220746f20676574207468652066696c65732066726f6d2e546865207472616e73616374696f6e2065786563757465722068617320746f206265206173736f6369617465642077697468207468652066696c652c20616e64207468652066696c652073686f756c6420626520696e20746865206163746976652073746174652ea2646970667358221220cb805d8ab80248d8ff45e2332bbe6ce4d7242f704e555c94b331f919207dec3f64736f6c6343000813003360806040523480156200001157600080fd5b50604051620038a2380380620038a28339818101604052810190620000379190620000e9565b80600260006101000a81548173ffffffffffffffffffffffffffffffffffffffff021916908373ffffffffffffffffffffffffffffffffffffffff160217905550506200011b565b600080fd5b600073ffffffffffffffffffffffffffffffffffffffff82169050919050565b6000620000b18262000084565b9050919050565b620000c381620000a4565b8114620000cf57600080fd5b50565b600081519050620000e381620000b8565b92915050565b6000602082840312156200010257620001016200007f565b5b60006200011284828501620000d2565b91505092915050565b613777806200012b6000396000f3fe608060405234801561001057600080fd5b50600436106100a85760003560e01c806395f0f0bb1161007157806395f0f0bb146101895780639bccd6ad146101a5578063bfddc42f146101d5578063e8d56b8b146101f1578063f880680b1461020d578063fadc54f41461023d576100a8565b8062438ceb146100ad57806347eb6fa7146100dd57806352a9baef1461010d57806374546fdf1461013d578063922243ad14610159575b600080fd5b6100c760048036038101906100c291906125cd565b61026d565b6040516100d49190612707565b60405180910390f35b6100f760048036038101906100f29190612729565b610352565b6040516101049190612941565b60405180910390f35b6101276004803603810190610122919061298f565b610a14565b60405161013491906129fa565b60405180910390f35b610157600480360381019061015291906125cd565b610a9e565b005b610173600480360381019061016e91906125cd565b610b5b565b6040516101809190612b2e565b60405180910390f35b6101a3600480360381019061019e9190612d2a565b610f10565b005b6101bf60048036038101906101ba91906125cd565b61123b565b6040516101cc91906129fa565b60405180910390f35b6101ef60048036038101906101ea9190612da2565b6112df565b005b61020b60048036038101906102069190612deb565b61150e565b005b610227600480360381019061022291906125cd565b61165e565b6040516102349190612707565b60405180910390f35b610257600480360381019061025291906125cd565b6117e5565b6040516102649190612f31565b60405180910390f35b61027561237f565b60405180606001604052806001151581526020016000846040516102999190612f8f565b908152602001604051809103902060070180546102b590612fd5565b80601f01602080910402602001604051908101604052809291908181526020018280546102e190612fd5565b801561032e5780601f106103035761010080835404028352916020019161032e565b820191906000526020600020905b81548152906001019060200180831161031157829003601f168201915b50505050508152602001604051806020016040528060008152508152509050919050565b61035a6123a2565b6000808460405161036b9190612f8f565b9081526020016040518091039020600101805461038790612fd5565b90501180156104555750816040516020016103a29190612f8f565b604051602081830303815290604052805190602001206000846040516103c89190612f8f565b90815260200160405180910390206007016040516020016103e9919061309e565b6040516020818303038152906040528051906020012014806104545750604051602001610415906130db565b604051602081830303815290604052805190602001208260405160200161043c9190612f8f565b60405160208183030381529060405280519060200120145b5b1561091557604051806060016040528060011515815260200160008560405161047e9190612f8f565b9081526020016040518091039020604051806101200160405290816000820180546104a890612fd5565b80601f01602080910402602001604051908101604052809291908181526020018280546104d490612fd5565b80156105215780601f106104f657610100808354040283529160200191610521565b820191906000526020600020905b81548152906001019060200180831161050457829003601f168201915b5050505050815260200160018201805461053a90612fd5565b80601f016020809104026020016040519081016040528092919081815260200182805461056690612fd5565b80156105b35780601f10610588576101008083540402835291602001916105b3565b820191906000526020600020905b81548152906001019060200180831161059657829003601f168201915b50505050508152602001600282015481526020016003820180546105d690612fd5565b80601f016020809104026020016040519081016040528092919081815260200182805461060290612fd5565b801561064f5780601f106106245761010080835404028352916020019161064f565b820191906000526020600020905b81548152906001019060200180831161063257829003601f168201915b505050505081526020016004820160009054906101000a900473ffffffffffffffffffffffffffffffffffffffff1673ffffffffffffffffffffffffffffffffffffffff1673ffffffffffffffffffffffffffffffffffffffff1681526020016005820180546106be90612fd5565b80601f01602080910402602001604051908101604052809291908181526020018280546106ea90612fd5565b80156107375780601f1061070c57610100808354040283529160200191610737565b820191906000526020600020905b81548152906001019060200180831161071a57829003601f168201915b5050505050815260200160068201805461075090612fd5565b80601f016020809104026020016040519081016040528092919081815260200182805461077c90612fd5565b80156107c95780601f1061079e576101008083540402835291602001916107c9565b820191906000526020600020905b8154815290600101906020018083116107ac57829003601f168201915b505050505081526020016007820180546107e290612fd5565b80601f016020809104026020016040519081016040528092919081815260200182805461080e90612fd5565b801561085b5780601f106108305761010080835404028352916020019161085b565b820191906000526020600020905b81548152906001019060200180831161083e57829003601f168201915b5050505050815260200160088201805461087490612fd5565b80601f01602080910402602001604051908101604052809291908181526020018280546108a090612fd5565b80156108ed5780601f106108c2576101008083540402835291602001916108ed565b820191906000526020600020905b8154815290600101906020018083116108d057829003601f168201915b5050505050815250508152602001604051806020016040528060008152508152509050610a0e565b604051806060016040528060001515815260200160405180610120016040528060405180602001604052806000815250815260200160405180602001604052806000815250815260200160008152602001604051806020016040528060008152508152602001600073ffffffffffffffffffffffffffffffffffffffff16815260200160405180602001604052806000815250815260200160405180602001604052806000815250815260200160405180602001604052806000815250815260200160405180602001604052806000815250815250815260200160405180608001604052806041815260200161367a6041913981525090505b92915050565b60008273ffffffffffffffffffffffffffffffffffffffff16600083604051610a3d9190612f8f565b908152602001604051809103902060040160009054906101000a900473ffffffffffffffffffffffffffffffffffffffff1673ffffffffffffffffffffffffffffffffffffffff1603610a935760019050610a98565b600090505b92915050565b600360009054906101000a900473ffffffffffffffffffffffffffffffffffffffff1673ffffffffffffffffffffffffffffffffffffffff163373ffffffffffffffffffffffffffffffffffffffff1603610b58576040518060400160405280600881526020017f6465616374697665000000000000000000000000000000000000000000000000815250600082604051610b399190612f8f565b90815260200160405180910390206007019081610b569190613291565b505b50565b610b636123cb565b600360009054906101000a900473ffffffffffffffffffffffffffffffffffffffff1673ffffffffffffffffffffffffffffffffffffffff163373ffffffffffffffffffffffffffffffffffffffff1603610e8457600060018054905067ffffffffffffffff811115610bd957610bd86124a2565b5b604051908082528060200260200182016040528015610c0c57816020015b6060815260200190600190039081610bf75790505b5090506000805b600180549050811015610e4a5784604051602001610c319190612f8f565b60405160208183030381529060405280519060200120600060018381548110610c5d57610c5c613363565b5b90600052602060002001604051610c74919061309e565b9081526020016040518091039020600101604051602001610c95919061309e565b60405160208183030381529060405280519060200120148015610d3e5750604051602001610cc2906133de565b60405160208183030381529060405280519060200120600060018381548110610cee57610ced613363565b5b90600052602060002001604051610d05919061309e565b9081526020016040518091039020600701604051602001610d26919061309e565b60405160208183030381529060405280519060200120145b15610e3757600060018281548110610d5957610d58613363565b5b90600052602060002001604051610d70919061309e565b90815260200160405180910390206000018054610d8c90612fd5565b80601f0160208091040260200160405190810160405280929190818152602001828054610db890612fd5565b8015610e055780601f10610dda57610100808354040283529160200191610e05565b820191906000526020600020905b815481529060010190602001808311610de857829003601f168201915b5050505050838381518110610e1d57610e1c613363565b5b60200260200101819052508180610e3390613422565b9250505b8080610e4290613422565b915050610c13565b5080825260405180606001604052806001151581526020018381526020016040518060200160405280600081525081525092505050610f0b565b6040518060600160405280600015158152602001600067ffffffffffffffff811115610eb357610eb26124a2565b5b604051908082528060200260200182016040528015610ee657816020015b6060815260200190600190039081610ed15790505b5081526020016040518060800160405280604381526020016136ff6043913981525090505b919050565b600360009054906101000a900473ffffffffffffffffffffffffffffffffffffffff1673ffffffffffffffffffffffffffffffffffffffff163373ffffffffffffffffffffffffffffffffffffffff16148015610fa05750816080015173ffffffffffffffffffffffffffffffffffffffff16826080015173ffffffffffffffffffffffffffffffffffffffff16145b8015610fdd5750600073ffffffffffffffffffffffffffffffffffffffff16826080015173ffffffffffffffffffffffffffffffffffffffff1614155b15611237576040518060400160405280600681526020017f65646974656400000000000000000000000000000000000000000000000000008152506000836000015160405161102c9190612f8f565b908152602001604051809103902060070190816110499190613291565b508160800151816080019073ffffffffffffffffffffffffffffffffffffffff16908173ffffffffffffffffffffffffffffffffffffffff168152505081600001518160600181905250600182604001516110a4919061346a565b8160400181815250506040518060400160405280600681526020017f61637469766500000000000000000000000000000000000000000000000000008152508160e0018190525080600082600001516040516111009190612f8f565b908152602001604051809103902060008201518160000190816111239190613291565b5060208201518160010190816111399190613291565b506040820151816002015560608201518160030190816111599190613291565b5060808201518160040160006101000a81548173ffffffffffffffffffffffffffffffffffffffff021916908373ffffffffffffffffffffffffffffffffffffffff16021790555060a08201518160050190816111b69190613291565b5060c08201518160060190816111cc9190613291565b5060e08201518160070190816111e29190613291565b506101008201518160080190816111f99190613291565b50905050600181600001519080600181540180825580915050600190039060005260206000200160009091909190915090816112359190613291565b505b5050565b60008060008360405161124e9190612f8f565b9081526020016040518091039020600001805461126a90612fd5565b9050141580156112c75750600360009054906101000a900473ffffffffffffffffffffffffffffffffffffffff1673ffffffffffffffffffffffffffffffffffffffff163373ffffffffffffffffffffffffffffffffffffffff16145b156112d557600190506112da565b600090505b919050565b600360009054906101000a900473ffffffffffffffffffffffffffffffffffffffff1673ffffffffffffffffffffffffffffffffffffffff163373ffffffffffffffffffffffffffffffffffffffff160361150b5761133d8161225a565b1561150a576040518060400160405280600681526020017f61637469766500000000000000000000000000000000000000000000000000008152508160e001819052506040518060400160405280600181526020017f3000000000000000000000000000000000000000000000000000000000000000815250816060018190525080600082600001516040516113d39190612f8f565b908152602001604051809103902060008201518160000190816113f69190613291565b50602082015181600101908161140c9190613291565b5060408201518160020155606082015181600301908161142c9190613291565b5060808201518160040160006101000a81548173ffffffffffffffffffffffffffffffffffffffff021916908373ffffffffffffffffffffffffffffffffffffffff16021790555060a08201518160050190816114899190613291565b5060c082015181600601908161149f9190613291565b5060e08201518160070190816114b59190613291565b506101008201518160080190816114cc9190613291565b50905050600181600001519080600181540180825580915050600190039060005260206000200160009091909190915090816115089190613291565b505b5b50565b600073ffffffffffffffffffffffffffffffffffffffff168173ffffffffffffffffffffffffffffffffffffffff16141580156115995750600073ffffffffffffffffffffffffffffffffffffffff16600360009054906101000a900473ffffffffffffffffffffffffffffffffffffffff1673ffffffffffffffffffffffffffffffffffffffff16145b80156116145750600360009054906101000a900473ffffffffffffffffffffffffffffffffffffffff1673ffffffffffffffffffffffffffffffffffffffff16600360009054906101000a900473ffffffffffffffffffffffffffffffffffffffff1673ffffffffffffffffffffffffffffffffffffffff16145b1561165b5780600360006101000a81548173ffffffffffffffffffffffffffffffffffffffff021916908373ffffffffffffffffffffffffffffffffffffffff1602179055505b50565b61166661237f565b600360009054906101000a900473ffffffffffffffffffffffffffffffffffffffff1673ffffffffffffffffffffffffffffffffffffffff163373ffffffffffffffffffffffffffffffffffffffff16036117985760405180606001604052806001151581526020016000846040516116df9190612f8f565b908152602001604051809103902060080180546116fb90612fd5565b80601f016020809104026020016040519081016040528092919081815260200182805461172790612fd5565b80156117745780601f1061174957610100808354040283529160200191611774565b820191906000526020600020905b81548152906001019060200180831161175757829003601f168201915b505050505081526020016040518060200160405280600081525081525090506117e0565b60405180606001604052806000151581526020016040518060200160405280600081525081526020016040518060800160405280604481526020016136bb6044913981525090505b919050565b6117ed6123ee565b600060018054905067ffffffffffffffff81111561180e5761180d6124a2565b5b60405190808252806020026020018201604052801561184757816020015b611834612411565b81526020019060019003908161182c5790505b5090506000808460405161185b9190612f8f565b90815260200160405180910390206040518061012001604052908160008201805461188590612fd5565b80601f01602080910402602001604051908101604052809291908181526020018280546118b190612fd5565b80156118fe5780601f106118d3576101008083540402835291602001916118fe565b820191906000526020600020905b8154815290600101906020018083116118e157829003601f168201915b5050505050815260200160018201805461191790612fd5565b80601f016020809104026020016040519081016040528092919081815260200182805461194390612fd5565b80156119905780601f1061196557610100808354040283529160200191611990565b820191906000526020600020905b81548152906001019060200180831161197357829003601f168201915b50505050508152602001600282015481526020016003820180546119b390612fd5565b80601f01602080910402602001604051908101604052809291908181526020018280546119df90612fd5565b8015611a2c5780601f10611a0157610100808354040283529160200191611a2c565b820191906000526020600020905b815481529060010190602001808311611a0f57829003601f168201915b505050505081526020016004820160009054906101000a900473ffffffffffffffffffffffffffffffffffffffff1673ffffffffffffffffffffffffffffffffffffffff1673ffffffffffffffffffffffffffffffffffffffff168152602001600582018054611a9b90612fd5565b80601f0160208091040260200160405190810160405280929190818152602001828054611ac790612fd5565b8015611b145780601f10611ae957610100808354040283529160200191611b14565b820191906000526020600020905b815481529060010190602001808311611af757829003601f168201915b50505050508152602001600682018054611b2d90612fd5565b80601f0160208091040260200160405190810160405280929190818152602001828054611b5990612fd5565b8015611ba65780601f10611b7b57610100808354040283529160200191611ba6565b820191906000526020600020905b815481529060010190602001808311611b8957829003601f168201915b50505050508152602001600782018054611bbf90612fd5565b80601f0160208091040260200160405190810160405280929190818152602001828054611beb90612fd5565b8015611c385780601f10611c0d57610100808354040283529160200191611c38565b820191906000526020600020905b815481529060010190602001808311611c1b57829003601f168201915b50505050508152602001600882018054611c5190612fd5565b80601f0160208091040260200160405190810160405280929190818152602001828054611c7d90612fd5565b8015611cca5780601f10611c9f57610100808354040283529160200191611cca565b820191906000526020600020905b815481529060010190602001808311611cad57829003601f168201915b505050505081525050905060005b604051602001611ce7906134fa565b604051602081830303815290604052805190602001208260600151604051602001611d129190612f8f565b60405160208183030381529060405280519060200120146121f35781838281518110611d4157611d40613363565b5b60200260200101819052508080611d5790613422565b915050600082606001519050600081604051611d739190612f8f565b908152602001604051809103902060405180610120016040529081600082018054611d9d90612fd5565b80601f0160208091040260200160405190810160405280929190818152602001828054611dc990612fd5565b8015611e165780601f10611deb57610100808354040283529160200191611e16565b820191906000526020600020905b815481529060010190602001808311611df957829003601f168201915b50505050508152602001600182018054611e2f90612fd5565b80601f0160208091040260200160405190810160405280929190818152602001828054611e5b90612fd5565b8015611ea85780601f10611e7d57610100808354040283529160200191611ea8565b820191906000526020600020905b815481529060010190602001808311611e8b57829003601f168201915b5050505050815260200160028201548152602001600382018054611ecb90612fd5565b80601f0160208091040260200160405190810160405280929190818152602001828054611ef790612fd5565b8015611f445780601f10611f1957610100808354040283529160200191611f44565b820191906000526020600020905b815481529060010190602001808311611f2757829003601f168201915b505050505081526020016004820160009054906101000a900473ffffffffffffffffffffffffffffffffffffffff1673ffffffffffffffffffffffffffffffffffffffff1673ffffffffffffffffffffffffffffffffffffffff168152602001600582018054611fb390612fd5565b80601f0160208091040260200160405190810160405280929190818152602001828054611fdf90612fd5565b801561202c5780601f106120015761010080835404028352916020019161202c565b820191906000526020600020905b81548152906001019060200180831161200f57829003601f168201915b5050505050815260200160068201805461204590612fd5565b80601f016020809104026020016040519081016040528092919081815260200182805461207190612fd5565b80156120be5780601f10612093576101008083540402835291602001916120be565b820191906000526020600020905b8154815290600101906020018083116120a157829003601f168201915b505050505081526020016007820180546120d790612fd5565b80601f016020809104026020016040519081016040528092919081815260200182805461210390612fd5565b80156121505780601f1061212557610100808354040283529160200191612150565b820191906000526020600020905b81548152906001019060200180831161213357829003601f168201915b5050505050815260200160088201805461216990612fd5565b80601f016020809104026020016040519081016040528092919081815260200182805461219590612fd5565b80156121e25780601f106121b7576101008083540402835291602001916121e2565b820191906000526020600020905b8154815290600101906020018083116121c557829003601f168201915b505050505081525050925050611cd8565b8183828151811061220757612206613363565b5b6020026020010181905250808061221d90613422565b9150508083526040518060600160405280600115158152602001848152602001604051806020016040528060008152508152509350505050919050565b6000612269826000015161123b565b15801561230e5750600260009054906101000a900473ffffffffffffffffffffffffffffffffffffffff1673ffffffffffffffffffffffffffffffffffffffff16634294a5ad836040518263ffffffff1660e01b81526004016122cc91906135fe565b602060405180830381865afa1580156122e9573d6000803e3d6000fd5b505050506040513d601f19601f8201168201806040525081019061230d919061364c565b5b80156123675750600360009054906101000a900473ffffffffffffffffffffffffffffffffffffffff1673ffffffffffffffffffffffffffffffffffffffff163373ffffffffffffffffffffffffffffffffffffffff16145b15612375576001905061237a565b600090505b919050565b604051806060016040528060001515815260200160608152602001606081525090565b60405180606001604052806000151581526020016123be612411565b8152602001606081525090565b604051806060016040528060001515815260200160608152602001606081525090565b604051806060016040528060001515815260200160608152602001606081525090565b60405180610120016040528060608152602001606081526020016000815260200160608152602001600073ffffffffffffffffffffffffffffffffffffffff168152602001606081526020016060815260200160608152602001606081525090565b6000604051905090565b600080fd5b600080fd5b600080fd5b600080fd5b6000601f19601f8301169050919050565b7f4e487b7100000000000000000000000000000000000000000000000000000000600052604160045260246000fd5b6124da82612491565b810181811067ffffffffffffffff821117156124f9576124f86124a2565b5b80604052505050565b600061250c612473565b905061251882826124d1565b919050565b600067ffffffffffffffff821115612538576125376124a2565b5b61254182612491565b9050602081019050919050565b82818337600083830152505050565b600061257061256b8461251d565b612502565b90508281526020810184848401111561258c5761258b61248c565b5b61259784828561254e565b509392505050565b600082601f8301126125b4576125b3612487565b5b81356125c484826020860161255d565b91505092915050565b6000602082840312156125e3576125e261247d565b5b600082013567ffffffffffffffff81111561260157612600612482565b5b61260d8482850161259f565b91505092915050565b60008115159050919050565b61262b81612616565b82525050565b600081519050919050565b600082825260208201905092915050565b60005b8381101561266b578082015181840152602081019050612650565b60008484015250505050565b600061268282612631565b61268c818561263c565b935061269c81856020860161264d565b6126a581612491565b840191505092915050565b60006060830160008301516126c86000860182612622565b50602083015184820360208601526126e08282612677565b915050604083015184820360408601526126fa8282612677565b9150508091505092915050565b6000602082019050818103600083015261272181846126b0565b905092915050565b600080604083850312156127405761273f61247d565b5b600083013567ffffffffffffffff81111561275e5761275d612482565b5b61276a8582860161259f565b925050602083013567ffffffffffffffff81111561278b5761278a612482565b5b6127978582860161259f565b9150509250929050565b6000819050919050565b6127b4816127a1565b82525050565b600073ffffffffffffffffffffffffffffffffffffffff82169050919050565b60006127e5826127ba565b9050919050565b6127f5816127da565b82525050565b60006101208301600083015184820360008601526128198282612677565b915050602083015184820360208601526128338282612677565b915050604083015161284860408601826127ab565b50606083015184820360608601526128608282612677565b915050608083015161287560808601826127ec565b5060a083015184820360a086015261288d8282612677565b91505060c083015184820360c08601526128a78282612677565b91505060e083015184820360e08601526128c18282612677565b9150506101008301518482036101008601526128dd8282612677565b9150508091505092915050565b60006060830160008301516129026000860182612622565b506020830151848203602086015261291a82826127fb565b915050604083015184820360408601526129348282612677565b9150508091505092915050565b6000602082019050818103600083015261295b81846128ea565b905092915050565b61296c816127da565b811461297757600080fd5b50565b60008135905061298981612963565b92915050565b600080604083850312156129a6576129a561247d565b5b60006129b48582860161297a565b925050602083013567ffffffffffffffff8111156129d5576129d4612482565b5b6129e18582860161259f565b9150509250929050565b6129f481612616565b82525050565b6000602082019050612a0f60008301846129eb565b92915050565b600081519050919050565b600082825260208201905092915050565b6000819050602082019050919050565b6000612a4d8383612677565b905092915050565b6000602082019050919050565b6000612a6d82612a15565b612a778185612a20565b935083602082028501612a8985612a31565b8060005b85811015612ac55784840389528151612aa68582612a41565b9450612ab183612a55565b925060208a01995050600181019050612a8d565b50829750879550505050505092915050565b6000606083016000830151612aef6000860182612622565b5060208301518482036020860152612b078282612a62565b91505060408301518482036040860152612b218282612677565b9150508091505092915050565b60006020820190508181036000830152612b488184612ad7565b905092915050565b600080fd5b600080fd5b612b63816127a1565b8114612b6e57600080fd5b50565b600081359050612b8081612b5a565b92915050565b60006101208284031215612b9d57612b9c612b50565b5b612ba8610120612502565b9050600082013567ffffffffffffffff811115612bc857612bc7612b55565b5b612bd48482850161259f565b600083015250602082013567ffffffffffffffff811115612bf857612bf7612b55565b5b612c048482850161259f565b6020830152506040612c1884828501612b71565b604083015250606082013567ffffffffffffffff811115612c3c57612c3b612b55565b5b612c488482850161259f565b6060830152506080612c5c8482850161297a565b60808301525060a082013567ffffffffffffffff811115612c8057612c7f612b55565b5b612c8c8482850161259f565b60a08301525060c082013567ffffffffffffffff811115612cb057612caf612b55565b5b612cbc8482850161259f565b60c08301525060e082013567ffffffffffffffff811115612ce057612cdf612b55565b5b612cec8482850161259f565b60e08301525061010082013567ffffffffffffffff811115612d1157612d10612b55565b5b612d1d8482850161259f565b6101008301525092915050565b60008060408385031215612d4157612d4061247d565b5b600083013567ffffffffffffffff811115612d5f57612d5e612482565b5b612d6b85828601612b86565b925050602083013567ffffffffffffffff811115612d8c57612d8b612482565b5b612d9885828601612b86565b9150509250929050565b600060208284031215612db857612db761247d565b5b600082013567ffffffffffffffff811115612dd657612dd5612482565b5b612de284828501612b86565b91505092915050565b600060208284031215612e0157612e0061247d565b5b6000612e0f8482850161297a565b91505092915050565b600081519050919050565b600082825260208201905092915050565b6000819050602082019050919050565b6000612e5083836127fb565b905092915050565b6000602082019050919050565b6000612e7082612e18565b612e7a8185612e23565b935083602082028501612e8c85612e34565b8060005b85811015612ec85784840389528151612ea98582612e44565b9450612eb483612e58565b925060208a01995050600181019050612e90565b50829750879550505050505092915050565b6000606083016000830151612ef26000860182612622565b5060208301518482036020860152612f0a8282612e65565b91505060408301518482036040860152612f248282612677565b9150508091505092915050565b60006020820190508181036000830152612f4b8184612eda565b905092915050565b600081905092915050565b6000612f6982612631565b612f738185612f53565b9350612f8381856020860161264d565b80840191505092915050565b6000612f9b8284612f5e565b915081905092915050565b7f4e487b7100000000000000000000000000000000000000000000000000000000600052602260045260246000fd5b60006002820490506001821680612fed57607f821691505b60208210810361300057612fff612fa6565b5b50919050565b60008190508160005260206000209050919050565b6000815461302881612fd5565b6130328186612f53565b9450600182166000811461304d576001811461306257613095565b60ff1983168652811515820286019350613095565b61306b85613006565b60005b8381101561308d5781548189015260018201915060208101905061306e565b838801955050505b50505092915050565b60006130aa828461301b565b915081905092915050565b50565b60006130c5600083612f53565b91506130d0826130b5565b600082019050919050565b60006130e6826130b8565b9150819050919050565b60006020601f8301049050919050565b600082821b905092915050565b60006008830261313d7fffffffffffffffffffffffffffffffffffffffffffffffffffffffffffffffff82613100565b6131478683613100565b95508019841693508086168417925050509392505050565b6000819050919050565b6000819050919050565b600061318e6131896131848461315f565b613169565b61315f565b9050919050565b6000819050919050565b6131a883613173565b6131bc6131b482613195565b84845461310d565b825550505050565b600090565b6131d16131c4565b6131dc81848461319f565b505050565b5b81811015613200576131f56000826131c9565b6001810190506131e2565b5050565b601f8211156132455761321681613006565b61321f846130f0565b8101602085101561322e578190505b61324261323a856130f0565b8301826131e1565b50505b505050565b600082821c905092915050565b60006132686000198460080261324a565b1980831691505092915050565b60006132818383613257565b9150826002028217905092915050565b61329a82612631565b67ffffffffffffffff8111156132b3576132b26124a2565b5b6132bd8254612fd5565b6132c8828285613204565b600060209050601f8311600181146132fb57600084156132e9578287015190505b6132f38582613275565b86555061335b565b601f19841661330986613006565b60005b828110156133315784890151825560018201915060208501945060208101905061330c565b8683101561334e578489015161334a601f891682613257565b8355505b6001600288020188555050505b505050505050565b7f4e487b7100000000000000000000000000000000000000000000000000000000600052603260045260246000fd5b7f6163746976650000000000000000000000000000000000000000000000000000600082015250565b60006133c8600683612f53565b91506133d382613392565b600682019050919050565b60006133e9826133bb565b9150819050919050565b7f4e487b7100000000000000000000000000000000000000000000000000000000600052601160045260246000fd5b600061342d8261315f565b91507fffffffffffffffffffffffffffffffffffffffffffffffffffffffffffffffff820361345f5761345e6133f3565b5b600182019050919050565b6000613475826127a1565b9150613480836127a1565b9250828201905082811215600083121683821260008412151617156134a8576134a76133f3565b5b92915050565b7f3000000000000000000000000000000000000000000000000000000000000000600082015250565b60006134e4600183612f53565b91506134ef826134ae565b600182019050919050565b6000613505826134d7565b9150819050919050565b600061012083016000830151848203600086015261352d8282612677565b915050602083015184820360208601526135478282612677565b915050604083015161355c60408601826127ab565b50606083015184820360608601526135748282612677565b915050608083015161358960808601826127ec565b5060a083015184820360a08601526135a18282612677565b91505060c083015184820360c08601526135bb8282612677565b91505060e083015184820360e08601526135d58282612677565b9150506101008301518482036101008601526135f18282612677565b9150508091505092915050565b60006020820190508181036000830152613618818461350f565b905092915050565b61362981612616565b811461363457600080fd5b50565b60008151905061364681613620565b92915050565b6000602082840312156136625761366161247d565b5b600061367084828501613637565b9150509291505056fe54687265206973206e6f2066696c652c20696e2074686520676976656e2073746174652c2074686174206861732074686520676976656e2049504653204349442e546865207472616e73616374696f6e2065786563757465722063616e206f6e6c792062652074686520416363657373436f6e74726f6c2e736f6c20636f6e74726163742e4f6e6c792074686520416363657373436f6e74726f6c2e736f6c20636f6e74726163742069732061626c6520746f20657865637574652074686973206d6574686f642ea2646970667358221220c2819a493aefdecab93b575eea3ab830d11f20a85431602c447b535f9c3ab23f64736f6c6343000813003360806040523480156200001157600080fd5b5060405162002155380380620021558339818101604052810190620000379190620000e9565b80600360006101000a81548173ffffffffffffffffffffffffffffffffffffffff021916908373ffffffffffffffffffffffffffffffffffffffff160217905550506200011b565b600080fd5b600073ffffffffffffffffffffffffffffffffffffffff82169050919050565b6000620000b18262000084565b9050919050565b620000c381620000a4565b8114620000cf57600080fd5b50565b600081519050620000e381620000b8565b92915050565b6000602082840312156200010257620001016200007f565b5b60006200011284828501620000d2565b91505092915050565b61202a806200012b6000396000f3fe608060405234801561001057600080fd5b506004361061009e5760003560e01c80638d060a9e116100665780638d060a9e1461016d578063a240e42614610189578063b0c22a56146101b9578063eeb9ab18146101e9578063f14ab0e0146102195761009e565b80630d310723146100a357806367156cf1146100c15780636f77926b146100f157806375e9493f14610121578063857cdbb81461013d575b600080fd5b6100ab610249565b6040516100b891906112e2565b60405180910390f35b6100db60048036038101906100d6919061133d565b610273565b6040516100e8919061146c565b60405180910390f35b61010b6004803603810190610106919061133d565b61045a565b6040516101189190611565565b60405180910390f35b61013b60048036038101906101369190611792565b610855565b005b6101576004803603810190610152919061133d565b610ba2565b604051610164919061146c565b60405180910390f35b6101876004803603810190610182919061133d565b610d89565b005b6101a3600480360381019061019e919061133d565b610dcd565b6040516101b091906117ea565b60405180910390f35b6101d360048036038101906101ce9190611805565b610e76565b6040516101e091906117ea565b60405180910390f35b61020360048036038101906101fe9190611805565b610eab565b604051610210919061189e565b60405180910390f35b610233600480360381019061022e91906118c0565b610fc9565b60405161024091906117ea565b60405180910390f35b6000600460009054906101000a900473ffffffffffffffffffffffffffffffffffffffff16905090565b61027b6111de565b600073ffffffffffffffffffffffffffffffffffffffff166000808473ffffffffffffffffffffffffffffffffffffffff1673ffffffffffffffffffffffffffffffffffffffff16815260200190815260200160002060000160009054906101000a900473ffffffffffffffffffffffffffffffffffffffff1673ffffffffffffffffffffffffffffffffffffffff161461040d5760405180606001604052806001151581526020016000808573ffffffffffffffffffffffffffffffffffffffff1673ffffffffffffffffffffffffffffffffffffffff16815260200190815260200160002060010180546103709061194b565b80601f016020809104026020016040519081016040528092919081815260200182805461039c9061194b565b80156103e95780601f106103be576101008083540402835291602001916103e9565b820191906000526020600020905b8154815290600101906020018083116103cc57829003601f168201915b50505050508152602001604051806020016040528060008152508152509050610455565b6040518060600160405280600015158152602001604051806020016040528060008152508152602001604051806060016040528060288152602001611fa46028913981525090505b919050565b610462611201565b3373ffffffffffffffffffffffffffffffffffffffff168273ffffffffffffffffffffffffffffffffffffffff16036107b357600073ffffffffffffffffffffffffffffffffffffffff166000808473ffffffffffffffffffffffffffffffffffffffff1673ffffffffffffffffffffffffffffffffffffffff16815260200190815260200160002060000160009054906101000a900473ffffffffffffffffffffffffffffffffffffffff1673ffffffffffffffffffffffffffffffffffffffff16146107b25760405180606001604052806001151581526020016000808573ffffffffffffffffffffffffffffffffffffffff1673ffffffffffffffffffffffffffffffffffffffff1681526020019081526020016000206040518060800160405290816000820160009054906101000a900473ffffffffffffffffffffffffffffffffffffffff1673ffffffffffffffffffffffffffffffffffffffff1673ffffffffffffffffffffffffffffffffffffffff1681526020016001820180546105ed9061194b565b80601f01602080910402602001604051908101604052809291908181526020018280546106199061194b565b80156106665780601f1061063b57610100808354040283529160200191610666565b820191906000526020600020905b81548152906001019060200180831161064957829003601f168201915b5050505050815260200160028201805461067f9061194b565b80601f01602080910402602001604051908101604052809291908181526020018280546106ab9061194b565b80156106f85780601f106106cd576101008083540402835291602001916106f8565b820191906000526020600020905b8154815290600101906020018083116106db57829003601f168201915b505050505081526020016003820180546107119061194b565b80601f016020809104026020016040519081016040528092919081815260200182805461073d9061194b565b801561078a5780601f1061075f5761010080835404028352916020019161078a565b820191906000526020600020905b81548152906001019060200180831161076d57829003601f168201915b5050505050815250508152602001604051806020016040528060008152508152509050610850565b5b60405180606001604052806000151581526020016040518060800160405280600073ffffffffffffffffffffffffffffffffffffffff1681526020016040518060200160405280600081525081526020016040518060200160405280600081525081526020016040518060200160405280600081525081525081526020016040518060a0016040528060798152602001611f036079913981525090505b919050565b3373ffffffffffffffffffffffffffffffffffffffff16600460009054906101000a900473ffffffffffffffffffffffffffffffffffffffff1673ffffffffffffffffffffffffffffffffffffffff1603610b9f576108b3816110a6565b15610b9e576040518060800160405280826000015173ffffffffffffffffffffffffffffffffffffffff168152602001600360009054906101000a900473ffffffffffffffffffffffffffffffffffffffff1673ffffffffffffffffffffffffffffffffffffffff16639416b42384602001516040518263ffffffff1660e01b815260040161094291906119c6565b600060405180830381865afa15801561095f573d6000803e3d6000fd5b505050506040513d6000823e3d601f19601f820116820180604052508101906109889190611a58565b8152602001826040015181526020018260600151815250600080836000015173ffffffffffffffffffffffffffffffffffffffff1673ffffffffffffffffffffffffffffffffffffffff16815260200190815260200160002060008201518160000160006101000a81548173ffffffffffffffffffffffffffffffffffffffff021916908373ffffffffffffffffffffffffffffffffffffffff1602179055506020820151816001019081610a3d9190611c57565b506040820151816002019081610a539190611c57565b506060820151816003019081610a699190611c57565b509050506040518060800160405280826000015173ffffffffffffffffffffffffffffffffffffffff1681526020018260200151815260200182604001518152602001826060015181525060018260200151604051610ac89190611d65565b908152602001604051809103902060008201518160000160006101000a81548173ffffffffffffffffffffffffffffffffffffffff021916908373ffffffffffffffffffffffffffffffffffffffff1602179055506020820151816001019081610b329190611c57565b506040820151816002019081610b489190611c57565b506060820151816003019081610b5e9190611c57565b50905050600160028260200151604051610b789190611d65565b908152602001604051809103902060006101000a81548160ff0219169083151502179055505b5b50565b610baa6111de565b600073ffffffffffffffffffffffffffffffffffffffff166000808473ffffffffffffffffffffffffffffffffffffffff1673ffffffffffffffffffffffffffffffffffffffff16815260200190815260200160002060000160009054906101000a900473ffffffffffffffffffffffffffffffffffffffff1673ffffffffffffffffffffffffffffffffffffffff1614610d3c5760405180606001604052806001151581526020016000808573ffffffffffffffffffffffffffffffffffffffff1673ffffffffffffffffffffffffffffffffffffffff1681526020019081526020016000206003018054610c9f9061194b565b80601f0160208091040260200160405190810160405280929190818152602001828054610ccb9061194b565b8015610d185780601f10610ced57610100808354040283529160200191610d18565b820191906000526020600020905b815481529060010190602001808311610cfb57829003601f168201915b50505050508152602001604051806020016040528060008152508152509050610d84565b6040518060600160405280600015158152602001604051806020016040528060008152508152602001604051806060016040528060288152602001611f7c6028913981525090505b919050565b80600460006101000a81548173ffffffffffffffffffffffffffffffffffffffff021916908373ffffffffffffffffffffffffffffffffffffffff16021790555050565b60008073ffffffffffffffffffffffffffffffffffffffff166000808473ffffffffffffffffffffffffffffffffffffffff1673ffffffffffffffffffffffffffffffffffffffff16815260200190815260200160002060000160009054906101000a900473ffffffffffffffffffffffffffffffffffffffff1673ffffffffffffffffffffffffffffffffffffffff1614610e6c5760019050610e71565b600090505b919050565b6000600282604051610e889190611d65565b908152602001604051809103902060009054906101000a900460ff169050919050565b610eb361122a565b6000600183604051610ec59190611d65565b90815260200160405180910390206001018054610ee19061194b565b90501115610f74576040518060600160405280600115158152602001600184604051610f0d9190611d65565b908152602001604051809103902060000160009054906101000a900473ffffffffffffffffffffffffffffffffffffffff1673ffffffffffffffffffffffffffffffffffffffff168152602001604051806020016040528060008152508152509050610fc4565b6040518060600160405280600015158152602001600073ffffffffffffffffffffffffffffffffffffffff168152602001604051806060016040528060298152602001611fcc6029913981525090505b919050565b60003373ffffffffffffffffffffffffffffffffffffffff168273ffffffffffffffffffffffffffffffffffffffff160361109b578260405160200161100f9190611d65565b604051602081830303815290604052805190602001206000808473ffffffffffffffffffffffffffffffffffffffff1673ffffffffffffffffffffffffffffffffffffffff1681526020019081526020016000206002016040516020016110769190611dff565b604051602081830303815290604052805190602001200361109a57600190506110a0565b5b600090505b92915050565b60003373ffffffffffffffffffffffffffffffffffffffff16600460009054906101000a900473ffffffffffffffffffffffffffffffffffffffff1673ffffffffffffffffffffffffffffffffffffffff16036111d45761110a8260000151610dcd565b158015611121575061111f8260200151610e76565b155b80156111c55750600360009054906101000a900473ffffffffffffffffffffffffffffffffffffffff1673ffffffffffffffffffffffffffffffffffffffff1663e779f450836040518263ffffffff1660e01b81526004016111839190611e87565b602060405180830381865afa1580156111a0573d6000803e3d6000fd5b505050506040513d601f19601f820116820180604052508101906111c49190611ed5565b5b156111d357600190506111d9565b5b600090505b919050565b604051806060016040528060001515815260200160608152602001606081525090565b604051806060016040528060001515815260200161121d611263565b8152602001606081525090565b6040518060600160405280600015158152602001600073ffffffffffffffffffffffffffffffffffffffff168152602001606081525090565b6040518060800160405280600073ffffffffffffffffffffffffffffffffffffffff1681526020016060815260200160608152602001606081525090565b600073ffffffffffffffffffffffffffffffffffffffff82169050919050565b60006112cc826112a1565b9050919050565b6112dc816112c1565b82525050565b60006020820190506112f760008301846112d3565b92915050565b6000604051905090565b600080fd5b600080fd5b61131a816112c1565b811461132557600080fd5b50565b60008135905061133781611311565b92915050565b60006020828403121561135357611352611307565b5b600061136184828501611328565b91505092915050565b60008115159050919050565b61137f8161136a565b82525050565b600081519050919050565b600082825260208201905092915050565b60005b838110156113bf5780820151818401526020810190506113a4565b60008484015250505050565b6000601f19601f8301169050919050565b60006113e782611385565b6113f18185611390565b93506114018185602086016113a1565b61140a816113cb565b840191505092915050565b600060608301600083015161142d6000860182611376565b506020830151848203602086015261144582826113dc565b9150506040830151848203604086015261145f82826113dc565b9150508091505092915050565b600060208201905081810360008301526114868184611415565b905092915050565b611497816112c1565b82525050565b60006080830160008301516114b5600086018261148e565b50602083015184820360208601526114cd82826113dc565b915050604083015184820360408601526114e782826113dc565b9150506060830151848203606086015261150182826113dc565b9150508091505092915050565b60006060830160008301516115266000860182611376565b506020830151848203602086015261153e828261149d565b9150506040830151848203604086015261155882826113dc565b9150508091505092915050565b6000602082019050818103600083015261157f818461150e565b905092915050565b600080fd5b7f4e487b7100000000000000000000000000000000000000000000000000000000600052604160045260246000fd5b6115c4826113cb565b810181811067ffffffffffffffff821117156115e3576115e261158c565b5b80604052505050565b60006115f66112fd565b905061160282826115bb565b919050565b600080fd5b600080fd5b600080fd5b600067ffffffffffffffff8211156116315761163061158c565b5b61163a826113cb565b9050602081019050919050565b82818337600083830152505050565b600061166961166484611616565b6115ec565b90508281526020810184848401111561168557611684611611565b5b611690848285611647565b509392505050565b600082601f8301126116ad576116ac61160c565b5b81356116bd848260208601611656565b91505092915050565b6000608082840312156116dc576116db611587565b5b6116e660806115ec565b905060006116f684828501611328565b600083015250602082013567ffffffffffffffff81111561171a57611719611607565b5b61172684828501611698565b602083015250604082013567ffffffffffffffff81111561174a57611749611607565b5b61175684828501611698565b604083015250606082013567ffffffffffffffff81111561177a57611779611607565b5b61178684828501611698565b60608301525092915050565b6000602082840312156117a8576117a7611307565b5b600082013567ffffffffffffffff8111156117c6576117c561130c565b5b6117d2848285016116c6565b91505092915050565b6117e48161136a565b82525050565b60006020820190506117ff60008301846117db565b92915050565b60006020828403121561181b5761181a611307565b5b600082013567ffffffffffffffff8111156118395761183861130c565b5b61184584828501611698565b91505092915050565b60006060830160008301516118666000860182611376565b506020830151611879602086018261148e565b506040830151848203604086015261189182826113dc565b9150508091505092915050565b600060208201905081810360008301526118b8818461184e565b905092915050565b600080604083850312156118d7576118d6611307565b5b600083013567ffffffffffffffff8111156118f5576118f461130c565b5b61190185828601611698565b925050602061191285828601611328565b9150509250929050565b7f4e487b7100000000000000000000000000000000000000000000000000000000600052602260045260246000fd5b6000600282049050600182168061196357607f821691505b6020821081036119765761197561191c565b5b50919050565b600082825260208201905092915050565b600061199882611385565b6119a2818561197c565b93506119b28185602086016113a1565b6119bb816113cb565b840191505092915050565b600060208201905081810360008301526119e0818461198d565b905092915050565b60006119fb6119f684611616565b6115ec565b905082815260208101848484011115611a1757611a16611611565b5b611a228482856113a1565b509392505050565b600082601f830112611a3f57611a3e61160c565b5b8151611a4f8482602086016119e8565b91505092915050565b600060208284031215611a6e57611a6d611307565b5b600082015167ffffffffffffffff811115611a8c57611a8b61130c565b5b611a9884828501611a2a565b91505092915050565b60008190508160005260206000209050919050565b60006020601f8301049050919050565b600082821b905092915050565b600060088302611b037fffffffffffffffffffffffffffffffffffffffffffffffffffffffffffffffff82611ac6565b611b0d8683611ac6565b95508019841693508086168417925050509392505050565b6000819050919050565b6000819050919050565b6000611b54611b4f611b4a84611b25565b611b2f565b611b25565b9050919050565b6000819050919050565b611b6e83611b39565b611b82611b7a82611b5b565b848454611ad3565b825550505050565b600090565b611b97611b8a565b611ba2818484611b65565b505050565b5b81811015611bc657611bbb600082611b8f565b600181019050611ba8565b5050565b601f821115611c0b57611bdc81611aa1565b611be584611ab6565b81016020851015611bf4578190505b611c08611c0085611ab6565b830182611ba7565b50505b505050565b600082821c905092915050565b6000611c2e60001984600802611c10565b1980831691505092915050565b6000611c478383611c1d565b9150826002028217905092915050565b611c6082611385565b67ffffffffffffffff811115611c7957611c7861158c565b5b611c83825461194b565b611c8e828285611bca565b600060209050601f831160018114611cc15760008415611caf578287015190505b611cb98582611c3b565b865550611d21565b601f198416611ccf86611aa1565b60005b82811015611cf757848901518255600182019150602085019450602081019050611cd2565b86831015611d145784890151611d10601f891682611c1d565b8355505b6001600288020188555050505b505050505050565b600081905092915050565b6000611d3f82611385565b611d498185611d29565b9350611d598185602086016113a1565b80840191505092915050565b6000611d718284611d34565b915081905092915050565b60008154611d898161194b565b611d938186611d29565b94506001821660008114611dae5760018114611dc357611df6565b60ff1983168652811515820286019350611df6565b611dcc85611aa1565b60005b83811015611dee57815481890152600182019150602081019050611dcf565b838801955050505b50505092915050565b6000611e0b8284611d7c565b915081905092915050565b6000608083016000830151611e2e600086018261148e565b5060208301518482036020860152611e4682826113dc565b91505060408301518482036040860152611e6082826113dc565b91505060608301518482036060860152611e7a82826113dc565b9150508091505092915050565b60006020820190508181036000830152611ea18184611e16565b905092915050565b611eb28161136a565b8114611ebd57600080fd5b50565b600081519050611ecf81611ea9565b92915050565b600060208284031215611eeb57611eea611307565b5b6000611ef984828501611ec0565b9150509291505056fe546865206163636f756e74206f6620746865207472616e73616374696f6e2065786563757465722073686f756c64206265207468652073616d65206f6e652061732074686520757365722077686963682074686520696e666f726d6174696f6e206973206265696e67207265717565737465642066726f6d2e5468657265206973206e6f207573657220776974682074686520666976656e206163636f756e742e5468657265206973206e6f207573657220776974682074686520676976656e206163636f756e742e5468657265206973206e6f207573657220776974682074686520676976656e20757365726e616d652ea26469706673582212204757fffca5f854d6d8d3f95cbc2ad38e3559ede8c57ec307825f99eda88b60d264736f6c63430008130033608060405234801561001057600080fd5b50604051610afa380380610afa833981810160405281019061003291906100dc565b80600260006101000a81548173ffffffffffffffffffffffffffffffffffffffff021916908373ffffffffffffffffffffffffffffffffffffffff16021790555050610109565b600080fd5b600073ffffffffffffffffffffffffffffffffffffffff82169050919050565b60006100a98261007e565b9050919050565b6100b98161009e565b81146100c457600080fd5b50565b6000815190506100d6816100b0565b92915050565b6000602082840312156100f2576100f1610079565b5b6000610100848285016100c7565b91505092915050565b6109e2806101186000396000f3fe608060405234801561001057600080fd5b50600436106100625760003560e01c806353d5981814610067578063587ff0ff146100715780638aaa73701461007b5780639506d9e3146100ab578063a4e07ee4146100db578063b65bd925146100f7575b600080fd5b61006f610115565b005b6100796101c2565b005b6100956004803603810190610090919061052c565b6102b0565b6040516100a29190610574565b60405180910390f35b6100c560048036038101906100c0919061052c565b610317565b6040516100d29190610574565b60405180910390f35b6100f560048036038101906100f091906107ab565b610385565b005b6100ff6104af565b60405161010c919061080d565b60405180910390f35b600160003373ffffffffffffffffffffffffffffffffffffffff1673ffffffffffffffffffffffffffffffffffffffff16815260200190815260200160002060009054906101000a900460ff16156101c0576000600160003373ffffffffffffffffffffffffffffffffffffffff1673ffffffffffffffffffffffffffffffffffffffff16815260200190815260200160002060006101000a81548160ff0219169083151502179055505b565b600160003373ffffffffffffffffffffffffffffffffffffffff1673ffffffffffffffffffffffffffffffffffffffff16815260200190815260200160002060009054906101000a900460ff166102ae5760018060003373ffffffffffffffffffffffffffffffffffffffff1673ffffffffffffffffffffffffffffffffffffffff16815260200190815260200160002060006101000a81548160ff021916908315150217905550426000803373ffffffffffffffffffffffffffffffffffffffff1673ffffffffffffffffffffffffffffffffffffffff168152602001908152602001600020819055505b565b6000600160008373ffffffffffffffffffffffffffffffffffffffff1673ffffffffffffffffffffffffffffffffffffffff16815260200190815260200160002060009054906101000a900460ff161561030d5760019050610312565b600090505b919050565b6000806000808473ffffffffffffffffffffffffffffffffffffffff1673ffffffffffffffffffffffffffffffffffffffff16815260200190815260200160002054426103649190610857565b905062015f90811161037a576001915050610380565b60009150505b919050565b600260009054906101000a900473ffffffffffffffffffffffffffffffffffffffff1673ffffffffffffffffffffffffffffffffffffffff166375e9493f826040518263ffffffff1660e01b81526004016103e0919061098a565b600060405180830381600087803b1580156103fa57600080fd5b505af115801561040e573d6000803e3d6000fd5b5050505060018060003373ffffffffffffffffffffffffffffffffffffffff1673ffffffffffffffffffffffffffffffffffffffff16815260200190815260200160002060006101000a81548160ff021916908315150217905550426000803373ffffffffffffffffffffffffffffffffffffffff1673ffffffffffffffffffffffffffffffffffffffff1681526020019081526020016000208190555050565b600062015f90905090565b6000604051905090565b600080fd5b600080fd5b600073ffffffffffffffffffffffffffffffffffffffff82169050919050565b60006104f9826104ce565b9050919050565b610509816104ee565b811461051457600080fd5b50565b60008135905061052681610500565b92915050565b600060208284031215610542576105416104c4565b5b600061055084828501610517565b91505092915050565b60008115159050919050565b61056e81610559565b82525050565b60006020820190506105896000830184610565565b92915050565b600080fd5b6000601f19601f8301169050919050565b7f4e487b7100000000000000000000000000000000000000000000000000000000600052604160045260246000fd5b6105dd82610594565b810181811067ffffffffffffffff821117156105fc576105fb6105a5565b5b80604052505050565b600061060f6104ba565b905061061b82826105d4565b919050565b600080fd5b600080fd5b600080fd5b600067ffffffffffffffff82111561064a576106496105a5565b5b61065382610594565b9050602081019050919050565b82818337600083830152505050565b600061068261067d8461062f565b610605565b90508281526020810184848401111561069e5761069d61062a565b5b6106a9848285610660565b509392505050565b600082601f8301126106c6576106c5610625565b5b81356106d684826020860161066f565b91505092915050565b6000608082840312156106f5576106f461058f565b5b6106ff6080610605565b9050600061070f84828501610517565b600083015250602082013567ffffffffffffffff81111561073357610732610620565b5b61073f848285016106b1565b602083015250604082013567ffffffffffffffff81111561076357610762610620565b5b61076f848285016106b1565b604083015250606082013567ffffffffffffffff81111561079357610792610620565b5b61079f848285016106b1565b60608301525092915050565b6000602082840312156107c1576107c06104c4565b5b600082013567ffffffffffffffff8111156107df576107de6104c9565b5b6107eb848285016106df565b91505092915050565b6000819050919050565b610807816107f4565b82525050565b600060208201905061082260008301846107fe565b92915050565b7f4e487b7100000000000000000000000000000000000000000000000000000000600052601160045260246000fd5b6000610862826107f4565b915061086d836107f4565b925082820390508181111561088557610884610828565b5b92915050565b610894816104ee565b82525050565b600081519050919050565b600082825260208201905092915050565b60005b838110156108d45780820151818401526020810190506108b9565b60008484015250505050565b60006108eb8261089a565b6108f581856108a5565b93506109058185602086016108b6565b61090e81610594565b840191505092915050565b6000608083016000830151610931600086018261088b565b506020830151848203602086015261094982826108e0565b9150506040830151848203604086015261096382826108e0565b9150506060830151848203606086015261097d82826108e0565b9150508091505092915050565b600060208201905081810360008301526109a48184610919565b90509291505056fea264697066735822122006cd6c19aef97b3b9233c6fb338534592a6c8ffc473ce21a5f2d4269012f009064736f6c63430008130033608060405234801561001057600080fd5b5033600160006101000a81548173ffffffffffffffffffffffffffffffffffffffff021916908373ffffffffffffffffffffffffffffffffffffffff16021790555033600260006101000a81548173ffffffffffffffffffffffffffffffffffffffff021916908373ffffffffffffffffffffffffffffffffffffffff16021790555061165c806100a26000396000f3fe608060405234801561001057600080fd5b50600436106100365760003560e01c8063759ab1851461003b578063c47ebddc1461006b575b600080fd5b61005560048036038101906100509190610c25565b610087565b6040516100629190610f12565b60405180910390f35b61008560048036038101906100809190610f60565b610765565b005b61008f610960565b6000808054905067ffffffffffffffff8111156100af576100ae610a0f565b5b6040519080825280602002602001820160405280156100e857816020015b6100d5610983565b8152602001906001900390816100cd5790505b5090506000805b845181101561054457600160009054906101000a900473ffffffffffffffffffffffffffffffffffffffff1673ffffffffffffffffffffffffffffffffffffffff16631ac47dd03387848151811061014a5761014961102f565b5b60200260200101516040518363ffffffff1660e01b815260040161016f9291906110b7565b602060405180830381865afa15801561018c573d6000803e3d6000fd5b505050506040513d601f19601f820116820180604052508101906101b09190611113565b156105315760005b60008054905081101561052f578582815181106101d8576101d761102f565b5b60200260200101516040516020016101f0919061117c565b604051602081830303815290604052805190602001206000828154811061021a5761021961102f565b5b906000526020600020906006020160000160405160200161023b919061128b565b604051602081830303815290604052805190602001200361051c576000818154811061026a5761026961102f565b5b90600052602060002090600602016040518060c0016040529081600082018054610293906111c2565b80601f01602080910402602001604051908101604052809291908181526020018280546102bf906111c2565b801561030c5780601f106102e15761010080835404028352916020019161030c565b820191906000526020600020905b8154815290600101906020018083116102ef57829003601f168201915b505050505081526020016001820160009054906101000a900473ffffffffffffffffffffffffffffffffffffffff1673ffffffffffffffffffffffffffffffffffffffff1673ffffffffffffffffffffffffffffffffffffffff16815260200160028201548152602001600382018054610385906111c2565b80601f01602080910402602001604051908101604052809291908181526020018280546103b1906111c2565b80156103fe5780601f106103d3576101008083540402835291602001916103fe565b820191906000526020600020905b8154815290600101906020018083116103e157829003601f168201915b50505050508152602001600482018054610417906111c2565b80601f0160208091040260200160405190810160405280929190818152602001828054610443906111c2565b80156104905780601f1061046557610100808354040283529160200191610490565b820191906000526020600020905b81548152906001019060200180831161047357829003601f168201915b505050505081526020016005820160009054906101000a900473ffffffffffffffffffffffffffffffffffffffff1673ffffffffffffffffffffffffffffffffffffffff1673ffffffffffffffffffffffffffffffffffffffff16815250508484815181106105025761050161102f565b5b60200260200101819052508280610518906112d1565b9350505b8080610527906112d1565b9150506101b8565b505b808061053c906112d1565b9150506100ef565b50600081146106905760005b60018261055d9190611319565b81101561068e5760005b600182846105759190611319565b61057f9190611319565b81101561067a5783600182610594919061134d565b815181106105a5576105a461102f565b5b6020026020010151604001518482815181106105c4576105c361102f565b5b60200260200101516040015111156106675760008482815181106105eb576105ea61102f565b5b6020026020010151905084600183610603919061134d565b815181106106145761061361102f565b5b602002602001015185838151811061062f5761062e61102f565b5b60200260200101819052508085600184610649919061134d565b8151811061065a5761065961102f565b5b6020026020010181905250505b8080610672906112d1565b915050610567565b508080610686906112d1565b915050610550565b505b808252600081146106d15760405180606001604052806001151581526020018381526020016040518060200160405280600081525081525092505050610760565b6040518060600160405280600015158152602001600067ffffffffffffffff811115610700576106ff610a0f565b5b60405190808252806020026020018201604052801561073957816020015b610726610983565b81526020019060019003908161071e5790505b5081526020016040518060600160405280603c81526020016115eb603c9139815250925050505b919050565b600260009054906101000a900473ffffffffffffffffffffffffffffffffffffffff1673ffffffffffffffffffffffffffffffffffffffff163373ffffffffffffffffffffffffffffffffffffffff161480156107ed57508273ffffffffffffffffffffffffffffffffffffffff168373ffffffffffffffffffffffffffffffffffffffff16145b156109595760006040518060c001604052808681526020018573ffffffffffffffffffffffffffffffffffffffff1681526020014281526020018381526020018481526020018773ffffffffffffffffffffffffffffffffffffffff168152509050600081908060018154018082558091505060019003906000526020600020906006020160009091909190915060008201518160000190816108909190611518565b5060208201518160010160006101000a81548173ffffffffffffffffffffffffffffffffffffffff021916908373ffffffffffffffffffffffffffffffffffffffff1602179055506040820151816002015560608201518160030190816108f79190611518565b50608082015181600401908161090d9190611518565b5060a08201518160050160006101000a81548173ffffffffffffffffffffffffffffffffffffffff021916908373ffffffffffffffffffffffffffffffffffffffff1602179055505050505b5050505050565b604051806060016040528060001515815260200160608152602001606081525090565b6040518060c0016040528060608152602001600073ffffffffffffffffffffffffffffffffffffffff168152602001600081526020016060815260200160608152602001600073ffffffffffffffffffffffffffffffffffffffff1681525090565b6000604051905090565b600080fd5b600080fd5b600080fd5b6000601f19601f8301169050919050565b7f4e487b7100000000000000000000000000000000000000000000000000000000600052604160045260246000fd5b610a47826109fe565b810181811067ffffffffffffffff82111715610a6657610a65610a0f565b5b80604052505050565b6000610a796109e5565b9050610a858282610a3e565b919050565b600067ffffffffffffffff821115610aa557610aa4610a0f565b5b602082029050602081019050919050565b600080fd5b600080fd5b600067ffffffffffffffff821115610adb57610ada610a0f565b5b610ae4826109fe565b9050602081019050919050565b82818337600083830152505050565b6000610b13610b0e84610ac0565b610a6f565b905082815260208101848484011115610b2f57610b2e610abb565b5b610b3a848285610af1565b509392505050565b600082601f830112610b5757610b566109f9565b5b8135610b67848260208601610b00565b91505092915050565b6000610b83610b7e84610a8a565b610a6f565b90508083825260208201905060208402830185811115610ba657610ba5610ab6565b5b835b81811015610bed57803567ffffffffffffffff811115610bcb57610bca6109f9565b5b808601610bd88982610b42565b85526020850194505050602081019050610ba8565b5050509392505050565b600082601f830112610c0c57610c0b6109f9565b5b8135610c1c848260208601610b70565b91505092915050565b600060208284031215610c3b57610c3a6109ef565b5b600082013567ffffffffffffffff811115610c5957610c586109f4565b5b610c6584828501610bf7565b91505092915050565b60008115159050919050565b610c8381610c6e565b82525050565b600081519050919050565b600082825260208201905092915050565b6000819050602082019050919050565b600081519050919050565b600082825260208201905092915050565b60005b83811015610cef578082015181840152602081019050610cd4565b60008484015250505050565b6000610d0682610cb5565b610d108185610cc0565b9350610d20818560208601610cd1565b610d29816109fe565b840191505092915050565b600073ffffffffffffffffffffffffffffffffffffffff82169050919050565b6000610d5f82610d34565b9050919050565b610d6f81610d54565b82525050565b6000819050919050565b610d8881610d75565b82525050565b600060c0830160008301518482036000860152610dab8282610cfb565b9150506020830151610dc06020860182610d66565b506040830151610dd36040860182610d7f565b5060608301518482036060860152610deb8282610cfb565b91505060808301518482036080860152610e058282610cfb565b91505060a0830151610e1a60a0860182610d66565b508091505092915050565b6000610e318383610d8e565b905092915050565b6000602082019050919050565b6000610e5182610c89565b610e5b8185610c94565b935083602082028501610e6d85610ca5565b8060005b85811015610ea95784840389528151610e8a8582610e25565b9450610e9583610e39565b925060208a01995050600181019050610e71565b50829750879550505050505092915050565b6000606083016000830151610ed36000860182610c7a565b5060208301518482036020860152610eeb8282610e46565b91505060408301518482036040860152610f058282610cfb565b9150508091505092915050565b60006020820190508181036000830152610f2c8184610ebb565b905092915050565b610f3d81610d54565b8114610f4857600080fd5b50565b600081359050610f5a81610f34565b92915050565b600080600080600060a08688031215610f7c57610f7b6109ef565b5b6000610f8a88828901610f4b565b955050602086013567ffffffffffffffff811115610fab57610faa6109f4565b5b610fb788828901610b42565b9450506040610fc888828901610f4b565b935050606086013567ffffffffffffffff811115610fe957610fe86109f4565b5b610ff588828901610b42565b925050608086013567ffffffffffffffff811115611016576110156109f4565b5b61102288828901610b42565b9150509295509295909350565b7f4e487b7100000000000000000000000000000000000000000000000000000000600052603260045260246000fd5b61106781610d54565b82525050565b600082825260208201905092915050565b600061108982610cb5565b611093818561106d565b93506110a3818560208601610cd1565b6110ac816109fe565b840191505092915050565b60006040820190506110cc600083018561105e565b81810360208301526110de818461107e565b90509392505050565b6110f081610c6e565b81146110fb57600080fd5b50565b60008151905061110d816110e7565b92915050565b600060208284031215611129576111286109ef565b5b6000611137848285016110fe565b91505092915050565b600081905092915050565b600061115682610cb5565b6111608185611140565b9350611170818560208601610cd1565b80840191505092915050565b6000611188828461114b565b915081905092915050565b7f4e487b7100000000000000000000000000000000000000000000000000000000600052602260045260246000fd5b600060028204905060018216806111da57607f821691505b6020821081036111ed576111ec611193565b5b50919050565b60008190508160005260206000209050919050565b60008154611215816111c2565b61121f8186611140565b9450600182166000811461123a576001811461124f57611282565b60ff1983168652811515820286019350611282565b611258856111f3565b60005b8381101561127a5781548189015260018201915060208101905061125b565b838801955050505b50505092915050565b60006112978284611208565b915081905092915050565b7f4e487b7100000000000000000000000000000000000000000000000000000000600052601160045260246000fd5b60006112dc82610d75565b91507fffffffffffffffffffffffffffffffffffffffffffffffffffffffffffffffff820361130e5761130d6112a2565b5b600182019050919050565b600061132482610d75565b915061132f83610d75565b9250828203905081811115611347576113466112a2565b5b92915050565b600061135882610d75565b915061136383610d75565b925082820190508082111561137b5761137a6112a2565b5b92915050565b60006020601f8301049050919050565b600082821b905092915050565b6000600883026113ce7fffffffffffffffffffffffffffffffffffffffffffffffffffffffffffffffff82611391565b6113d88683611391565b95508019841693508086168417925050509392505050565b6000819050919050565b600061141561141061140b84610d75565b6113f0565b610d75565b9050919050565b6000819050919050565b61142f836113fa565b61144361143b8261141c565b84845461139e565b825550505050565b600090565b61145861144b565b611463818484611426565b505050565b5b818110156114875761147c600082611450565b600181019050611469565b5050565b601f8211156114cc5761149d816111f3565b6114a684611381565b810160208510156114b5578190505b6114c96114c185611381565b830182611468565b50505b505050565b600082821c905092915050565b60006114ef600019846008026114d1565b1980831691505092915050565b600061150883836114de565b9150826002028217905092915050565b61152182610cb5565b67ffffffffffffffff81111561153a57611539610a0f565b5b61154482546111c2565b61154f82828561148b565b600060209050601f8311600181146115825760008415611570578287015190505b61157a85826114fc565b8655506115e2565b601f198416611590866111f3565b60005b828110156115b857848901518255600182019150602085019450602081019050611593565b868310156115d557848901516115d1601f8916826114de565b8355505b6001600288020188555050505b50505050505056fe546865207472616e73616374696f6e2065786563757465722068617320746f206265206173736f6369617465642077697468207468652066696c652ea26469706673582212204fbdbf50d438e821fcc0931588e7336926a3b736d8eb4df32bdf937b71a4e86264736f6c63430008130033",
  "linkReferences": {},
  "deployedLinkReferences": {}
}