{
  "_format": "hh-sol-artifact-1",
  "contractName": "AccessControl",
  "sourceName": "contracts/AccessControl.sol",
  "abi": [
    {
      "inputs": [
        {
          "internalType": "address",
          "name": "helperContract",
          "type": "address"
        }
      ],
      "stateMutability": "nonpayable",
      "type": "constructor"
    },
    {
      "anonymous": false,
      "inputs": [
        {
          "indexed": true,
          "internalType": "address",
          "name": "userAccount",
          "type": "address"
        },
        {
          "indexed": false,
          "internalType": "string",
          "name": "fileIpfsCID",
          "type": "string"
        },
        {
          "indexed": false,
          "internalType": "string",
          "name": "permissionsOwner",
          "type": "string"
        },
        {
          "indexed": false,
          "internalType": "string",
          "name": "action",
          "type": "string"
        }
      ],
      "name": "FileActionLog",
      "type": "event"
    },
    {
      "inputs": [
        {
          "internalType": "address",
          "name": "userAccount",
          "type": "address"
        },
        {
          "internalType": "string",
          "name": "fileIpfsCid",
          "type": "string"
        }
      ],
      "name": "deactivateFile",
      "outputs": [],
      "stateMutability": "nonpayable",
      "type": "function"
    },
    {
      "inputs": [
        {
          "internalType": "string",
          "name": "fileIpfsCid",
          "type": "string"
        },
        {
          "internalType": "address",
          "name": "userAccount",
          "type": "address"
        }
      ],
      "name": "downloadFileAudit",
      "outputs": [],
      "stateMutability": "nonpayable",
      "type": "function"
    },
    {
      "inputs": [
        {
          "components": [
            {
              "internalType": "string",
              "name": "ipfsCID",
              "type": "string"
            },
            {
              "internalType": "string",
              "name": "fileName",
              "type": "string"
            },
            {
              "internalType": "int256",
              "name": "version",
              "type": "int256"
            },
            {
              "internalType": "string",
              "name": "prevIpfsCID",
              "type": "string"
            },
            {
              "internalType": "address",
              "name": "owner",
              "type": "address"
            },
            {
              "internalType": "string",
              "name": "fileType",
              "type": "string"
            },
            {
              "internalType": "string",
              "name": "iv",
              "type": "string"
            },
            {
              "internalType": "string",
              "name": "state",
              "type": "string"
            },
            {
              "internalType": "string",
              "name": "fileHash",
              "type": "string"
            }
          ],
          "internalType": "struct FileRegister.File",
          "name": "selectedFile",
          "type": "tuple"
        },
        {
          "components": [
            {
              "internalType": "string",
              "name": "ipfsCID",
              "type": "string"
            },
            {
              "internalType": "string",
              "name": "fileName",
              "type": "string"
            },
            {
              "internalType": "int256",
              "name": "version",
              "type": "int256"
            },
            {
              "internalType": "string",
              "name": "prevIpfsCID",
              "type": "string"
            },
            {
              "internalType": "address",
              "name": "owner",
              "type": "address"
            },
            {
              "internalType": "string",
              "name": "fileType",
              "type": "string"
            },
            {
              "internalType": "string",
              "name": "iv",
              "type": "string"
            },
            {
              "internalType": "string",
              "name": "state",
              "type": "string"
            },
            {
              "internalType": "string",
              "name": "fileHash",
              "type": "string"
            }
          ],
          "internalType": "struct FileRegister.File",
          "name": "newFile",
          "type": "tuple"
        },
        {
          "internalType": "address[]",
          "name": "usersWithDownlodPermSelectFile",
          "type": "address[]"
        },
        {
          "internalType": "string[]",
          "name": "pubKeyUsersWithDownloadPermSelectFile",
          "type": "string[]"
        }
      ],
      "name": "editFile",
      "outputs": [],
      "stateMutability": "nonpayable",
      "type": "function"
    },
    {
      "inputs": [
        {
          "internalType": "address",
          "name": "userAccount",
          "type": "address"
        },
        {
          "internalType": "string",
          "name": "fileIpfsCID",
          "type": "string"
        }
      ],
      "name": "elegibleToShare",
      "outputs": [
        {
          "internalType": "bool",
          "name": "",
          "type": "bool"
        }
      ],
      "stateMutability": "view",
      "type": "function"
    },
    {
      "inputs": [
        {
          "internalType": "address",
          "name": "userAccount",
          "type": "address"
        },
        {
          "internalType": "string",
          "name": "fileIpfsCID",
          "type": "string"
        }
      ],
      "name": "elegibleToUpdPermissions",
      "outputs": [
        {
          "internalType": "bool",
          "name": "",
          "type": "bool"
        }
      ],
      "stateMutability": "view",
      "type": "function"
    },
    {
      "inputs": [
        {
          "internalType": "address",
          "name": "accountUser",
          "type": "address"
        },
        {
          "internalType": "string",
          "name": "fileIpfsCID",
          "type": "string"
        }
      ],
      "name": "getAllEncSymmetricKeyFileUser",
      "outputs": [
        {
          "components": [
            {
              "internalType": "bool",
              "name": "success",
              "type": "bool"
            },
            {
              "internalType": "string[]",
              "name": "resultStrings",
              "type": "string[]"
            },
            {
              "internalType": "string",
              "name": "message",
              "type": "string"
            }
          ],
          "internalType": "struct Helper.ResultStringArray",
          "name": "",
          "type": "tuple"
        }
      ],
      "stateMutability": "view",
      "type": "function"
    },
    {
      "inputs": [],
      "name": "getAuditLogControlAddress",
      "outputs": [
        {
          "internalType": "address",
          "name": "",
          "type": "address"
        }
      ],
      "stateMutability": "view",
      "type": "function"
    },
    {
      "inputs": [
        {
          "internalType": "address",
          "name": "accountUser",
          "type": "address"
        },
        {
          "internalType": "string",
          "name": "fileIpfsCID",
          "type": "string"
        }
      ],
      "name": "getEncSymmetricKeyFileUser",
      "outputs": [
        {
          "components": [
            {
              "internalType": "bool",
              "name": "success",
              "type": "bool"
            },
            {
              "internalType": "string",
              "name": "resultString",
              "type": "string"
            },
            {
              "internalType": "string",
              "name": "message",
              "type": "string"
            }
          ],
          "internalType": "struct Helper.ResultString",
          "name": "",
          "type": "tuple"
        }
      ],
      "stateMutability": "view",
      "type": "function"
    },
    {
      "inputs": [],
      "name": "getFileRegisterAddress",
      "outputs": [
        {
          "internalType": "address",
          "name": "",
          "type": "address"
        }
      ],
      "stateMutability": "view",
      "type": "function"
    },
    {
      "inputs": [
        {
          "internalType": "address",
          "name": "userAccount",
          "type": "address"
        },
        {
          "internalType": "string",
          "name": "fileIpfsCID",
          "type": "string"
        }
      ],
      "name": "getPermissionsOverFile",
      "outputs": [
        {
          "components": [
            {
              "internalType": "bool",
              "name": "success",
              "type": "bool"
            },
            {
              "internalType": "string[]",
              "name": "resultStrings",
              "type": "string[]"
            },
            {
              "internalType": "string",
              "name": "message",
              "type": "string"
            }
          ],
          "internalType": "struct Helper.ResultStringArray",
          "name": "",
          "type": "tuple"
        }
      ],
      "stateMutability": "view",
      "type": "function"
    },
    {
      "inputs": [
        {
          "internalType": "address",
          "name": "account",
          "type": "address"
        },
        {
          "internalType": "string",
          "name": "state",
          "type": "string"
        }
      ],
      "name": "getUserFiles",
      "outputs": [
        {
          "components": [
            {
              "internalType": "bool",
              "name": "success",
              "type": "bool"
            },
            {
              "components": [
                {
                  "internalType": "string",
                  "name": "ipfsCID",
                  "type": "string"
                },
                {
                  "internalType": "string",
                  "name": "fileName",
                  "type": "string"
                },
                {
                  "internalType": "int256",
                  "name": "version",
                  "type": "int256"
                },
                {
                  "internalType": "string",
                  "name": "prevIpfsCID",
                  "type": "string"
                },
                {
                  "internalType": "address",
                  "name": "owner",
                  "type": "address"
                },
                {
                  "internalType": "string",
                  "name": "fileType",
                  "type": "string"
                },
                {
                  "internalType": "string",
                  "name": "iv",
                  "type": "string"
                },
                {
                  "internalType": "string",
                  "name": "state",
                  "type": "string"
                },
                {
                  "internalType": "string",
                  "name": "fileHash",
                  "type": "string"
                }
              ],
              "internalType": "struct FileRegister.File[]",
              "name": "files",
              "type": "tuple[]"
            },
            {
              "internalType": "string",
              "name": "message",
              "type": "string"
            }
          ],
          "internalType": "struct FileRegister.ResultFiles",
          "name": "",
          "type": "tuple"
        }
      ],
      "stateMutability": "view",
      "type": "function"
    },
    {
      "inputs": [],
      "name": "getUserRegisterAddress",
      "outputs": [
        {
          "internalType": "address",
          "name": "",
          "type": "address"
        }
      ],
      "stateMutability": "view",
      "type": "function"
    },
    {
      "inputs": [
        {
          "components": [
            {
              "internalType": "string",
              "name": "ipfsCID",
              "type": "string"
            },
            {
              "internalType": "string",
              "name": "fileName",
              "type": "string"
            },
            {
              "internalType": "int256",
              "name": "version",
              "type": "int256"
            },
            {
              "internalType": "string",
              "name": "prevIpfsCID",
              "type": "string"
            },
            {
              "internalType": "address",
              "name": "owner",
              "type": "address"
            },
            {
              "internalType": "string",
              "name": "fileType",
              "type": "string"
            },
            {
              "internalType": "string",
              "name": "iv",
              "type": "string"
            },
            {
              "internalType": "string",
              "name": "state",
              "type": "string"
            },
            {
              "internalType": "string",
              "name": "fileHash",
              "type": "string"
            }
          ],
          "internalType": "struct FileRegister.File",
          "name": "file",
          "type": "tuple"
        }
      ],
      "name": "getUsersWithDownloadPermissionsFile",
      "outputs": [
        {
          "components": [
            {
              "internalType": "bool",
              "name": "success",
              "type": "bool"
            },
            {
              "internalType": "address[]",
              "name": "resultAddresses",
              "type": "address[]"
            },
            {
              "internalType": "string",
              "name": "message",
              "type": "string"
            }
          ],
          "internalType": "struct Helper.ResultAddressArray",
          "name": "",
          "type": "tuple"
        }
      ],
      "stateMutability": "view",
      "type": "function"
    },
    {
      "inputs": [
        {
          "internalType": "address",
          "name": "userAccount",
          "type": "address"
        },
        {
          "internalType": "string",
          "name": "fileIpfsCID",
          "type": "string"
        }
      ],
      "name": "removeUserFileAssociation",
      "outputs": [],
      "stateMutability": "nonpayable",
      "type": "function"
    },
    {
      "inputs": [
        {
          "internalType": "address",
          "name": "userAccount",
          "type": "address"
        },
        {
          "internalType": "string",
          "name": "fileIpfsCID",
          "type": "string"
        },
        {
          "internalType": "string[]",
          "name": "encSymmetricKeys",
          "type": "string[]"
        },
        {
          "internalType": "string[]",
          "name": "permissions",
          "type": "string[]"
        }
      ],
      "name": "shareFile",
      "outputs": [],
      "stateMutability": "nonpayable",
      "type": "function"
    },
    {
      "inputs": [
        {
          "internalType": "address",
          "name": "userAccount",
          "type": "address"
        },
        {
          "internalType": "string",
          "name": "fileIpfsCID",
          "type": "string"
        },
        {
          "internalType": "string[]",
          "name": "permissions",
          "type": "string[]"
        }
      ],
      "name": "updateUserFilePermissions",
      "outputs": [],
      "stateMutability": "nonpayable",
      "type": "function"
    },
    {
      "inputs": [
        {
          "internalType": "address",
          "name": "userAccount",
          "type": "address"
        },
        {
          "components": [
            {
              "internalType": "string",
              "name": "ipfsCID",
              "type": "string"
            },
            {
              "internalType": "string",
              "name": "fileName",
              "type": "string"
            },
            {
              "internalType": "int256",
              "name": "version",
              "type": "int256"
            },
            {
              "internalType": "string",
              "name": "prevIpfsCID",
              "type": "string"
            },
            {
              "internalType": "address",
              "name": "owner",
              "type": "address"
            },
            {
              "internalType": "string",
              "name": "fileType",
              "type": "string"
            },
            {
              "internalType": "string",
              "name": "iv",
              "type": "string"
            },
            {
              "internalType": "string",
              "name": "state",
              "type": "string"
            },
            {
              "internalType": "string",
              "name": "fileHash",
              "type": "string"
            }
          ],
          "internalType": "struct FileRegister.File",
          "name": "file",
          "type": "tuple"
        },
        {
          "internalType": "string",
          "name": "encSymmetricKey",
          "type": "string"
        }
      ],
      "name": "uploadFile",
      "outputs": [],
      "stateMutability": "nonpayable",
      "type": "function"
    },
    {
      "inputs": [
        {
          "internalType": "address",
          "name": "userAccount",
          "type": "address"
        },
        {
          "internalType": "string",
          "name": "fileIpfsCID",
          "type": "string"
        }
      ],
      "name": "userAssociatedWithFile",
      "outputs": [
        {
          "internalType": "bool",
          "name": "",
          "type": "bool"
        }
      ],
      "stateMutability": "view",
      "type": "function"
    },
    {
      "inputs": [
        {
          "internalType": "address",
          "name": "userAccount",
          "type": "address"
        },
        {
          "internalType": "string",
          "name": "fileName",
          "type": "string"
        }
      ],
      "name": "userAssociatedWithFileName",
      "outputs": [
        {
          "internalType": "bool",
          "name": "",
          "type": "bool"
        }
      ],
      "stateMutability": "view",
      "type": "function"
    },
    {
      "inputs": [
        {
          "internalType": "address",
          "name": "userAccount",
          "type": "address"
        },
        {
          "internalType": "string",
          "name": "fileHash",
          "type": "string"
        }
      ],
      "name": "verifyValidFile",
      "outputs": [
        {
          "internalType": "bool",
          "name": "",
          "type": "bool"
        }
      ],
      "stateMutability": "view",
      "type": "function"
    }
  ],
  "bytecode": "0x60806040523480156200001157600080fd5b506040516200ed383803806200ed3883398181016040528101906200003791906200028c565b80600460006101000a81548173ffffffffffffffffffffffffffffffffffffffff021916908373ffffffffffffffffffffffffffffffffffffffff160217905550806040516200008790620001f8565b620000939190620002cf565b604051809103906000f080158015620000b0573d6000803e3d6000fd5b50600160006101000a81548173ffffffffffffffffffffffffffffffffffffffff021916908373ffffffffffffffffffffffffffffffffffffffff16021790555080604051620001009062000206565b6200010c9190620002cf565b604051809103906000f08015801562000129573d6000803e3d6000fd5b50600260006101000a81548173ffffffffffffffffffffffffffffffffffffffff021916908373ffffffffffffffffffffffffffffffffffffffff160217905550604051620001789062000214565b604051809103906000f08015801562000195573d6000803e3d6000fd5b50600360006101000a81548173ffffffffffffffffffffffffffffffffffffffff021916908373ffffffffffffffffffffffffffffffffffffffff1602179055506000600460146101000a81548160ff02191690831515021790555050620002ec565b6138a28062007d6783390190565b612031806200b60983390190565b6116fe806200d63a83390190565b600080fd5b600073ffffffffffffffffffffffffffffffffffffffff82169050919050565b6000620002548262000227565b9050919050565b620002668162000247565b81146200027257600080fd5b50565b60008151905062000286816200025b565b92915050565b600060208284031215620002a557620002a462000222565b5b6000620002b58482850162000275565b91505092915050565b620002c98162000247565b82525050565b6000602082019050620002e66000830184620002be565b92915050565b617a6b80620002fc6000396000f3fe608060405234801561001057600080fd5b506004361061012c5760003560e01c8063a126d94c116100ad578063c61e666311610071578063c61e66631461037b578063d2ab62b414610397578063db54cc8c146103c7578063e4ab8e32146103e3578063fe17fccc146104135761012c565b8063a126d94c146102b1578063b58ea3a2146102e1578063b714fb2014610311578063c19dcf891461032f578063c5f5a2321461035f5761012c565b80634e2fc7d2116100f45780634e2fc7d2146102215780635dab19e41461023d57806367cc916b1461025b578063874a22ed146102775780638af34fbc146102955761012c565b80630976372714610131578063173cd5581461016157806317b5be0f146101915780631ac47dd0146101c15780632321f318146101f1575b600080fd5b61014b600480360381019061014691906151d9565b61042f565b60405161015891906154ff565b60405180910390f35b61017b600480360381019061017691906151d9565b61093f565b604051610188919061563a565b60405180910390f35b6101ab60048036038101906101a691906151d9565b610d38565b6040516101b8919061566b565b60405180910390f35b6101db60048036038101906101d691906151d9565b611038565b6040516101e8919061566b565b60405180910390f35b61020b600480360381019061020691906151d9565b6111ea565b604051610218919061566b565b60405180910390f35b61023b60048036038101906102369190615a09565b61141c565b005b610245611920565b6040516102529190615aef565b60405180910390f35b61027560048036038101906102709190615b0a565b61194a565b005b61027f611b54565b60405161028c9190615aef565b60405180910390f35b6102af60048036038101906102aa9190615b66565b611b7e565b005b6102cb60048036038101906102c691906151d9565b611ee3565b6040516102d89190615c48565b60405180910390f35b6102fb60048036038101906102f691906151d9565b612385565b604051610308919061566b565b60405180910390f35b610319612712565b6040516103269190615aef565b60405180910390f35b610349600480360381019061034491906151d9565b61273c565b604051610356919061566b565b60405180910390f35b61037960048036038101906103749190615c6a565b612950565b005b610395600480360381019061039091906151d9565b612e43565b005b6103b160048036038101906103ac91906151d9565b6130a3565b6040516103be919061563a565b60405180910390f35b6103e160048036038101906103dc91906151d9565b61350f565b005b6103fd60048036038101906103f89190615d25565b61390c565b60405161040a9190615e74565b60405180910390f35b61042d60048036038101906104289190615e96565b613d92565b005b610437614ddb565b8273ffffffffffffffffffffffffffffffffffffffff163373ffffffffffffffffffffffffffffffffffffffff16036108ac576000808054905067ffffffffffffffff81111561048a576104896150ae565b5b6040519080825280602002602001820160405280156104c357816020015b6104b0614dfe565b8152602001906001900390816104a85790505b5090506000805b600080549050811015610867578573ffffffffffffffffffffffffffffffffffffffff166000828154811061050257610501615f21565b5b906000526020600020906004020160000160009054906101000a900473ffffffffffffffffffffffffffffffffffffffff1673ffffffffffffffffffffffffffffffffffffffff161480156106bd5750600160009054906101000a900473ffffffffffffffffffffffffffffffffffffffff1673ffffffffffffffffffffffffffffffffffffffff1662438ceb600083815481106105a3576105a2615f21565b5b90600052602060002090600402016001016040518263ffffffff1660e01b81526004016105d0919061605a565b600060405180830381865afa1580156105ed573d6000803e3d6000fd5b505050506040513d6000823e3d601f19601f8201168201806040525081019061061691906161b4565b6020015160405160200161062a9190616239565b60405160208183030381529060405280519060200120856040516020016106519190616239565b6040516020818303038152906040528051906020012014806106bc575060405160200161067d90616276565b60405160208183030381529060405280519060200120856040516020016106a49190616239565b60405160208183030381529060405280519060200120145b5b156108545760008082815481106106d7576106d6615f21565b5b906000526020600020906004020160010180546106f390615f7f565b80601f016020809104026020016040519081016040528092919081815260200182805461071f90615f7f565b801561076c5780601f106107415761010080835404028352916020019161076c565b820191906000526020600020905b81548152906001019060200180831161074f57829003601f168201915b505050505090506000600160009054906101000a900473ffffffffffffffffffffffffffffffffffffffff1673ffffffffffffffffffffffffffffffffffffffff166347eb6fa783896040518363ffffffff1660e01b81526004016107d29291906162c4565b600060405180830381865afa1580156107ef573d6000803e3d6000fd5b505050506040513d6000823e3d601f19601f820116820180604052508101906108189190616565565b90506000816020015190508086868151811061083757610836615f21565b5b6020026020010181905250848061084d906165e7565b9550505050505b808061085f906165e7565b9150506104ca565b50808252600081146108a95760405180606001604052806001151581526020018381526020016040518060200160405280600081525081525092505050610939565b50505b6040518060600160405280600015158152602001600067ffffffffffffffff8111156108db576108da6150ae565b5b60405190808252806020026020018201604052801561091457816020015b610901614dfe565b8152602001906001900390816108f95790505b5081526020016040518060800160405280604e8152602001617980604e913981525090505b92915050565b610947614e60565b610950826142cf565b8015610a4857506040516020016109669061667b565b60405160208183030381529060405280519060200120600160009054906101000a900473ffffffffffffffffffffffffffffffffffffffff1673ffffffffffffffffffffffffffffffffffffffff1662438ceb846040518263ffffffff1660e01b81526004016109d69190616690565b600060405180830381865afa1580156109f3573d6000803e3d6000fd5b505050506040513d6000823e3d601f19601f82011682018060405250810190610a1c91906161b4565b60200151604051602001610a309190616239565b60405160208183030381529060405280519060200120145b15610cab5760005b600080549050811015610ca957600460009054906101000a900473ffffffffffffffffffffffffffffffffffffffff1673ffffffffffffffffffffffffffffffffffffffff16635c99c71b8560008481548110610ab057610aaf615f21565b5b906000526020600020906004020160000160009054906101000a900473ffffffffffffffffffffffffffffffffffffffff168660008681548110610af757610af6615f21565b5b90600052602060002090600402016001016040518563ffffffff1660e01b8152600401610b2794939291906166b2565b602060405180830381865afa158015610b44573d6000803e3d6000fd5b505050506040513d601f19601f82011682018060405250810190610b689190616705565b15610c9657604051806060016040528060011515815260200160008381548110610b9557610b94615f21565b5b9060005260206000209060040201600301805480602002602001604051908101604052809291908181526020016000905b82821015610c72578382906000526020600020018054610be590615f7f565b80601f0160208091040260200160405190810160405280929190818152602001828054610c1190615f7f565b8015610c5e5780601f10610c3357610100808354040283529160200191610c5e565b820191906000526020600020905b815481529060010190602001808311610c4157829003601f168201915b505050505081526020019060010190610bc6565b50505050815260200160405180602001604052806000815250815250915050610d32565b8080610ca1906165e7565b915050610a50565b505b6040518060600160405280600015158152602001600067ffffffffffffffff811115610cda57610cd96150ae565b5b604051908082528060200260200182016040528015610d0d57816020015b6060815260200190600190039081610cf85790505b5081526020016040518060a00160405280606881526020016179ce6068913981525090505b92915050565b600080600090505b60008054905081101561102c576000600160009054906101000a900473ffffffffffffffffffffffffffffffffffffffff1673ffffffffffffffffffffffffffffffffffffffff1663f880680b60008481548110610da157610da0615f21565b5b90600052602060002090600402016001016040518263ffffffff1660e01b8152600401610dce919061605a565b600060405180830381865afa158015610deb573d6000803e3d6000fd5b505050506040513d6000823e3d601f19601f82011682018060405250810190610e1491906161b4565b6020015190506000600160009054906101000a900473ffffffffffffffffffffffffffffffffffffffff1673ffffffffffffffffffffffffffffffffffffffff1662438ceb60008581548110610e6d57610e6c615f21565b5b90600052602060002090600402016001016040518263ffffffff1660e01b8152600401610e9a919061605a565b600060405180830381865afa158015610eb7573d6000803e3d6000fd5b505050506040513d6000823e3d601f19601f82011682018060405250810190610ee091906161b4565b6020015190508573ffffffffffffffffffffffffffffffffffffffff1660008481548110610f1157610f10615f21565b5b906000526020600020906004020160000160009054906101000a900473ffffffffffffffffffffffffffffffffffffffff1673ffffffffffffffffffffffffffffffffffffffff16148015610fb1575084604051602001610f729190616239565b6040516020818303038152906040528051906020012082604051602001610f999190616239565b60405160208183030381529060405280519060200120145b80156110065750604051602001610fc79061667b565b6040516020818303038152906040528051906020012081604051602001610fee9190616239565b60405160208183030381529060405280519060200120145b156110175760019350505050611032565b50508080611024906165e7565b915050610d40565b50600090505b92915050565b6000611043826142cf565b8061109b5750600360009054906101000a900473ffffffffffffffffffffffffffffffffffffffff1673ffffffffffffffffffffffffffffffffffffffff163373ffffffffffffffffffffffffffffffffffffffff16145b156111df5760005b6000805490508110156111dd57600460009054906101000a900473ffffffffffffffffffffffffffffffffffffffff1673ffffffffffffffffffffffffffffffffffffffff16635c99c71b856000848154811061110357611102615f21565b5b906000526020600020906004020160000160009054906101000a900473ffffffffffffffffffffffffffffffffffffffff16866000868154811061114a57611149615f21565b5b90600052602060002090600402016001016040518563ffffffff1660e01b815260040161117a94939291906166b2565b602060405180830381865afa158015611197573d6000803e3d6000fd5b505050506040513d601f19601f820116820180604052508101906111bb9190616705565b156111ca5760019150506111e4565b80806111d5906165e7565b9150506110a3565b505b600090505b92915050565b60008273ffffffffffffffffffffffffffffffffffffffff163373ffffffffffffffffffffffffffffffffffffffff16141580156112c35750600160009054906101000a900473ffffffffffffffffffffffffffffffffffffffff1673ffffffffffffffffffffffffffffffffffffffff166352a9baef84846040518363ffffffff1660e01b8152600401611280929190616732565b602060405180830381865afa15801561129d573d6000803e3d6000fd5b505050506040513d601f19601f820116820180604052508101906112c19190616705565b155b801561130b575061130a33836040518060400160405280600581526020017f736861726500000000000000000000000000000000000000000000000000000081525061460b565b5b801561140357506040516020016113219061667b565b60405160208183030381529060405280519060200120600160009054906101000a900473ffffffffffffffffffffffffffffffffffffffff1673ffffffffffffffffffffffffffffffffffffffff1662438ceb846040518263ffffffff1660e01b81526004016113919190616690565b600060405180830381865afa1580156113ae573d6000803e3d6000fd5b505050506040513d6000823e3d601f19601f820116820180604052508101906113d791906161b4565b602001516040516020016113eb9190616239565b60405160208183030381529060405280519060200120145b156114115760019050611416565b600090505b92915050565b61142984600001516147b9565b801561143d575061143c8484848461490b565b5b1561191a57600160009054906101000a900473ffffffffffffffffffffffffffffffffffffffff1673ffffffffffffffffffffffffffffffffffffffff166395f0f0bb85856040518363ffffffff1660e01b815260040161149f929190616851565b600060405180830381600087803b1580156114b957600080fd5b505af11580156114cd573d6000803e3d6000fd5b5050505060005b6000805490508110156118835784600001516040516020016114f69190616239565b60405160208183030381529060405280519060200120600082815481106115205761151f615f21565b5b9060005260206000209060040201600101604051602001611541919061690b565b6040516020818303038152906040528051906020012003611870576000805b8451811015611616576000838154811061157d5761157c615f21565b5b906000526020600020906004020160000160009054906101000a900473ffffffffffffffffffffffffffffffffffffffff1673ffffffffffffffffffffffffffffffffffffffff168582815181106115d8576115d7615f21565b5b602002602001015173ffffffffffffffffffffffffffffffffffffffff160361160357809150611616565b808061160e906165e7565b915050611560565b50600083828151811061162c5761162b615f21565b5b60200260200101519050600060405180608001604052806000868154811061165757611656615f21565b5b906000526020600020906004020160000160009054906101000a900473ffffffffffffffffffffffffffffffffffffffff1673ffffffffffffffffffffffffffffffffffffffff16815260200188600001518152602001838152602001600086815481106116c8576116c7615f21565b5b9060005260206000209060040201600301805480602002602001604051908101604052809291908181526020016000905b828210156117a557838290600052602060002001805461171890615f7f565b80601f016020809104026020016040519081016040528092919081815260200182805461174490615f7f565b80156117915780601f1061176657610100808354040283529160200191611791565b820191906000526020600020905b81548152906001019060200180831161177457829003601f168201915b5050505050815260200190600101906116f9565b505050508152509050600081908060018154018082558091505060019003906000526020600020906004020160009091909190915060008201518160000160006101000a81548173ffffffffffffffffffffffffffffffffffffffff021916908373ffffffffffffffffffffffffffffffffffffffff16021790555060208201518160010190816118369190616ab9565b50604082015181600201908161184c9190616ab9565b506060820151816003019080519060200190611869929190614e83565b5050505050505b808061187b906165e7565b9150506114d4565b50600360009054906101000a900473ffffffffffffffffffffffffffffffffffffffff1673ffffffffffffffffffffffffffffffffffffffff1663c47ebddc338660000151336040518463ffffffff1660e01b81526004016118e793929190616c23565b600060405180830381600087803b15801561190157600080fd5b505af1158015611915573d6000803e3d6000fd5b505050505b50505050565b6000600160009054906101000a900473ffffffffffffffffffffffffffffffffffffffff16905090565b8073ffffffffffffffffffffffffffffffffffffffff163373ffffffffffffffffffffffffffffffffffffffff161480156119c157506119c081836040518060400160405280600881526020017f646f776e6c6f616400000000000000000000000000000000000000000000000081525061460b565b5b8015611ab957506040516020016119d79061667b565b60405160208183030381529060405280519060200120600160009054906101000a900473ffffffffffffffffffffffffffffffffffffffff1673ffffffffffffffffffffffffffffffffffffffff1662438ceb846040518263ffffffff1660e01b8152600401611a479190616690565b600060405180830381865afa158015611a64573d6000803e3d6000fd5b505050506040513d6000823e3d601f19601f82011682018060405250810190611a8d91906161b4565b60200151604051602001611aa19190616239565b60405160208183030381529060405280519060200120145b15611b5057600360009054906101000a900473ffffffffffffffffffffffffffffffffffffffff1673ffffffffffffffffffffffffffffffffffffffff1663c47ebddc3384846040518463ffffffff1660e01b8152600401611b1d93929190616cd3565b600060405180830381600087803b158015611b3757600080fd5b505af1158015611b4b573d6000803e3d6000fd5b505050505b5050565b6000600260009054906101000a900473ffffffffffffffffffffffffffffffffffffffff16905090565b611b8883836111ea565b8015611c2c5750600460009054906101000a900473ffffffffffffffffffffffffffffffffffffffff1673ffffffffffffffffffffffffffffffffffffffff1663bda49b1d826040518263ffffffff1660e01b8152600401611bea9190616dbd565b602060405180830381865afa158015611c07573d6000803e3d6000fd5b505050506040513d601f19601f82011682018060405250810190611c2b9190616705565b5b15611edd5760005b600080549050811015611edb57600460009054906101000a900473ffffffffffffffffffffffffffffffffffffffff1673ffffffffffffffffffffffffffffffffffffffff16635c99c71b8560008481548110611c9457611c93615f21565b5b906000526020600020906004020160000160009054906101000a900473ffffffffffffffffffffffffffffffffffffffff168660008681548110611cdb57611cda615f21565b5b90600052602060002090600402016001016040518563ffffffff1660e01b8152600401611d0b94939291906166b2565b602060405180830381865afa158015611d28573d6000803e3d6000fd5b505050506040513d601f19601f82011682018060405250810190611d4c9190616705565b15611ec8578160008281548110611d6657611d65615f21565b5b90600052602060002090600402016003019080519060200190611d8a929190614e83565b50600360009054906101000a900473ffffffffffffffffffffffffffffffffffffffff1673ffffffffffffffffffffffffffffffffffffffff1663c47ebddc338587600460009054906101000a900473ffffffffffffffffffffffffffffffffffffffff1673ffffffffffffffffffffffffffffffffffffffff16636bb8d768886040518263ffffffff1660e01b8152600401611e279190616dbd565b600060405180830381865afa158015611e44573d6000803e3d6000fd5b505050506040513d6000823e3d601f19601f82011682018060405250810190611e6d91906161b4565b602001516040518563ffffffff1660e01b8152600401611e909493929190616e2b565b600060405180830381600087803b158015611eaa57600080fd5b505af1158015611ebe573d6000803e3d6000fd5b5050505050611ede565b8080611ed3906165e7565b915050611c34565b505b5b505050565b611eeb614edc565b8273ffffffffffffffffffffffffffffffffffffffff163373ffffffffffffffffffffffffffffffffffffffff16148015611f2c5750611f2b8383611038565b5b801561211b5750604051602001611f429061667b565b60405160208183030381529060405280519060200120600160009054906101000a900473ffffffffffffffffffffffffffffffffffffffff1673ffffffffffffffffffffffffffffffffffffffff1662438ceb846040518263ffffffff1660e01b8152600401611fb29190616690565b600060405180830381865afa158015611fcf573d6000803e3d6000fd5b505050506040513d6000823e3d601f19601f82011682018060405250810190611ff891906161b4565b6020015160405160200161200c9190616239565b60405160208183030381529060405280519060200120148061211a575060405160200161203890616edd565b60405160208183030381529060405280519060200120600160009054906101000a900473ffffffffffffffffffffffffffffffffffffffff1673ffffffffffffffffffffffffffffffffffffffff1662438ceb846040518263ffffffff1660e01b81526004016120a89190616690565b600060405180830381865afa1580156120c5573d6000803e3d6000fd5b505050506040513d6000823e3d601f19601f820116820180604052508101906120ee91906161b4565b602001516040516020016121029190616239565b60405160208183030381529060405280519060200120145b5b156123375760005b60008054905081101561233557600460009054906101000a900473ffffffffffffffffffffffffffffffffffffffff1673ffffffffffffffffffffffffffffffffffffffff16635c99c71b856000848154811061218357612182615f21565b5b906000526020600020906004020160000160009054906101000a900473ffffffffffffffffffffffffffffffffffffffff1686600086815481106121ca576121c9615f21565b5b90600052602060002090600402016001016040518563ffffffff1660e01b81526004016121fa94939291906166b2565b602060405180830381865afa158015612217573d6000803e3d6000fd5b505050506040513d601f19601f8201168201806040525081019061223b9190616705565b156123225760405180606001604052806001151581526020016000838154811061226857612267615f21565b5b9060005260206000209060040201600201805461228490615f7f565b80601f01602080910402602001604051908101604052809291908181526020018280546122b090615f7f565b80156122fd5780601f106122d2576101008083540402835291602001916122fd565b820191906000526020600020905b8154815290600101906020018083116122e057829003601f168201915b505050505081526020016040518060200160405280600081525081525091505061237f565b808061232d906165e7565b915050612123565b505b60405180606001604052806000151581526020016040518060200160405280600081525081526020016040518060e0016040528060a4815260200161788160a4913981525090505b92915050565b60008273ffffffffffffffffffffffffffffffffffffffff163373ffffffffffffffffffffffffffffffffffffffff161415801561245e5750600160009054906101000a900473ffffffffffffffffffffffffffffffffffffffff1673ffffffffffffffffffffffffffffffffffffffff166352a9baef84846040518363ffffffff1660e01b815260040161241b929190616732565b602060405180830381865afa158015612438573d6000803e3d6000fd5b505050506040513d601f19601f8201168201806040525081019061245c9190616705565b155b80156124a657506124a533836040518060400160405280600581526020017f736861726500000000000000000000000000000000000000000000000000000081525061460b565b5b80156124b957506124b78383611038565b155b801561255d5750600160009054906101000a900473ffffffffffffffffffffffffffffffffffffffff1673ffffffffffffffffffffffffffffffffffffffff16639bccd6ad836040518263ffffffff1660e01b815260040161251b9190616690565b602060405180830381865afa158015612538573d6000803e3d6000fd5b505050506040513d601f19601f8201168201806040525081019061255c9190616705565b5b801561265557506040516020016125739061667b565b60405160208183030381529060405280519060200120600160009054906101000a900473ffffffffffffffffffffffffffffffffffffffff1673ffffffffffffffffffffffffffffffffffffffff1662438ceb846040518263ffffffff1660e01b81526004016125e39190616690565b600060405180830381865afa158015612600573d6000803e3d6000fd5b505050506040513d6000823e3d601f19601f8201168201806040525081019061262991906161b4565b6020015160405160200161263d9190616239565b60405160208183030381529060405280519060200120145b80156126f95750600260009054906101000a900473ffffffffffffffffffffffffffffffffffffffff1673ffffffffffffffffffffffffffffffffffffffff1663a240e426846040518263ffffffff1660e01b81526004016126b79190615aef565b602060405180830381865afa1580156126d4573d6000803e3d6000fd5b505050506040513d601f19601f820116820180604052508101906126f89190616705565b5b15612707576001905061270c565b600090505b92915050565b6000600360009054906101000a900473ffffffffffffffffffffffffffffffffffffffff16905090565b600080600160009054906101000a900473ffffffffffffffffffffffffffffffffffffffff1673ffffffffffffffffffffffffffffffffffffffff1663922243ad846040518263ffffffff1660e01b815260040161279a9190616690565b600060405180830381865afa1580156127b7573d6000803e3d6000fd5b505050506040513d6000823e3d601f19601f820116820180604052508101906127e09190617043565b60200151905060005b6000805490508110156129435760005b825181101561292f578573ffffffffffffffffffffffffffffffffffffffff166000838154811061282d5761282c615f21565b5b906000526020600020906004020160000160009054906101000a900473ffffffffffffffffffffffffffffffffffffffff1673ffffffffffffffffffffffffffffffffffffffff1614801561290b57508281815181106128905761288f615f21565b5b60200260200101516040516020016128a89190616239565b60405160208183030381529060405280519060200120600083815481106128d2576128d1615f21565b5b90600052602060002090600402016001016040516020016128f3919061690b565b60405160208183030381529060405280519060200120145b1561291c576001935050505061294a565b8080612927906165e7565b9150506127f9565b50808061293b906165e7565b9150506127e9565b5060009150505b92915050565b61295a8484612385565b8015612a5257506040516020016129709061667b565b60405160208183030381529060405280519060200120600160009054906101000a900473ffffffffffffffffffffffffffffffffffffffff1673ffffffffffffffffffffffffffffffffffffffff1662438ceb856040518263ffffffff1660e01b81526004016129e09190616690565b600060405180830381865afa1580156129fd573d6000803e3d6000fd5b505050506040513d6000823e3d601f19601f82011682018060405250810190612a2691906161b4565b60200151604051602001612a3a9190616239565b60405160208183030381529060405280519060200120145b15612e3d576000600460009054906101000a900473ffffffffffffffffffffffffffffffffffffffff1673ffffffffffffffffffffffffffffffffffffffff1663872e35a98686856040518463ffffffff1660e01b8152600401612ab8939291906170af565b602060405180830381865afa158015612ad5573d6000803e3d6000fd5b505050506040513d601f19601f82011682018060405250810190612af99190616705565b90508015612e3b576000600160009054906101000a900473ffffffffffffffffffffffffffffffffffffffff1673ffffffffffffffffffffffffffffffffffffffff1663fadc54f4866040518263ffffffff1660e01b8152600401612b5e9190616690565b600060405180830381865afa158015612b7b573d6000803e3d6000fd5b505050506040513d6000823e3d601f19601f82011682018060405250810190612ba49190617284565b60200151905060005b8151811015612d01576000828281518110612bcb57612bca615f21565b5b6020026020010151600001519050600060405180608001604052808a73ffffffffffffffffffffffffffffffffffffffff168152602001838152602001888581518110612c1b57612c1a615f21565b5b60200260200101518152602001878152509050600081908060018154018082558091505060019003906000526020600020906004020160009091909190915060008201518160000160006101000a81548173ffffffffffffffffffffffffffffffffffffffff021916908373ffffffffffffffffffffffffffffffffffffffff1602179055506020820151816001019081612cb69190616ab9565b506040820151816002019081612ccc9190616ab9565b506060820151816003019080519060200190612ce9929190614e83565b50505050508080612cf9906165e7565b915050612bad565b50600360009054906101000a900473ffffffffffffffffffffffffffffffffffffffff1673ffffffffffffffffffffffffffffffffffffffff1663c47ebddc338789600460009054906101000a900473ffffffffffffffffffffffffffffffffffffffff1673ffffffffffffffffffffffffffffffffffffffff16636bb8d768896040518263ffffffff1660e01b8152600401612d9e9190616dbd565b600060405180830381865afa158015612dbb573d6000803e3d6000fd5b505050506040513d6000823e3d601f19601f82011682018060405250810190612de491906161b4565b602001516040518563ffffffff1660e01b8152600401612e079493929190617319565b600060405180830381600087803b158015612e2157600080fd5b505af1158015612e35573d6000803e3d6000fd5b50505050505b505b50505050565b612e8333826040518060400160405280600681526020017f64656c657465000000000000000000000000000000000000000000000000000081525061460b565b8015612f7b5750604051602001612e999061667b565b60405160208183030381529060405280519060200120600160009054906101000a900473ffffffffffffffffffffffffffffffffffffffff1673ffffffffffffffffffffffffffffffffffffffff1662438ceb836040518263ffffffff1660e01b8152600401612f099190616690565b600060405180830381865afa158015612f26573d6000803e3d6000fd5b505050506040513d6000823e3d601f19601f82011682018060405250810190612f4f91906161b4565b60200151604051602001612f639190616239565b60405160208183030381529060405280519060200120145b1561309f57600160009054906101000a900473ffffffffffffffffffffffffffffffffffffffff1673ffffffffffffffffffffffffffffffffffffffff166374546fdf826040518263ffffffff1660e01b8152600401612fdb9190616690565b600060405180830381600087803b158015612ff557600080fd5b505af1158015613009573d6000803e3d6000fd5b50505050600360009054906101000a900473ffffffffffffffffffffffffffffffffffffffff1673ffffffffffffffffffffffffffffffffffffffff1663c47ebddc3383856040518463ffffffff1660e01b815260040161306c939291906173cb565b600060405180830381600087803b15801561308657600080fd5b505af115801561309a573d6000803e3d6000fd5b505050505b5050565b6130ab614e60565b8273ffffffffffffffffffffffffffffffffffffffff163373ffffffffffffffffffffffffffffffffffffffff161480156130ec57506130eb8383611038565b5b80156132db57506040516020016131029061667b565b60405160208183030381529060405280519060200120600160009054906101000a900473ffffffffffffffffffffffffffffffffffffffff1673ffffffffffffffffffffffffffffffffffffffff1662438ceb846040518263ffffffff1660e01b81526004016131729190616690565b600060405180830381865afa15801561318f573d6000803e3d6000fd5b505050506040513d6000823e3d601f19601f820116820180604052508101906131b891906161b4565b602001516040516020016131cc9190616239565b6040516020818303038152906040528051906020012014806132da57506040516020016131f890616edd565b60405160208183030381529060405280519060200120600160009054906101000a900473ffffffffffffffffffffffffffffffffffffffff1673ffffffffffffffffffffffffffffffffffffffff1662438ceb846040518263ffffffff1660e01b81526004016132689190616690565b600060405180830381865afa158015613285573d6000803e3d6000fd5b505050506040513d6000823e3d601f19601f820116820180604052508101906132ae91906161b4565b602001516040516020016132c29190616239565b60405160208183030381529060405280519060200120145b5b15613482576000600160009054906101000a900473ffffffffffffffffffffffffffffffffffffffff1673ffffffffffffffffffffffffffffffffffffffff1663fadc54f4846040518263ffffffff1660e01b815260040161333d9190616690565b600060405180830381865afa15801561335a573d6000803e3d6000fd5b505050506040513d6000823e3d601f19601f820116820180604052508101906133839190617284565b6020015190506000815167ffffffffffffffff8111156133a6576133a56150ae565b5b6040519080825280602002602001820160405280156133d957816020015b60608152602001906001900390816133c45790505b50905060005b825181101561344b5760006134128785848151811061340157613400615f21565b5b602002602001015160000151611ee3565b6020015190508083838151811061342c5761342b615f21565b5b6020026020010181905250508080613443906165e7565b9150506133df565b5060405180606001604052806001151581526020018281526020016040518060200160405280600081525081525092505050613509565b6040518060600160405280600015158152602001600067ffffffffffffffff8111156134b1576134b06150ae565b5b6040519080825280602002602001820160405280156134e457816020015b60608152602001906001900390816134cf5790505b5081526020016040518060e0016040528060a4815260200161788160a4913981525090505b92915050565b61351982826111ea565b15613907576000600160009054906101000a900473ffffffffffffffffffffffffffffffffffffffff1673ffffffffffffffffffffffffffffffffffffffff1663fadc54f4836040518263ffffffff1660e01b815260040161357b9190616690565b600060405180830381865afa158015613598573d6000803e3d6000fd5b505050506040513d6000823e3d601f19601f820116820180604052508101906135c19190617284565b60200151905060005b815181101561386f5760005b60008054905081101561385b578473ffffffffffffffffffffffffffffffffffffffff166000828154811061360e5761360d615f21565b5b906000526020600020906004020160000160009054906101000a900473ffffffffffffffffffffffffffffffffffffffff1673ffffffffffffffffffffffffffffffffffffffff161480156136c0575082828151811061367157613670615f21565b5b602002602001015160000151805190602001206000828154811061369857613697615f21565b5b90600052602060002090600402016001016040516136b691906174d2565b6040518091039020145b1561384857600060016000805490506136d991906174e9565b815481106136ea576136e9615f21565b5b90600052602060002090600402016000828154811061370c5761370b615f21565b5b90600052602060002090600402016000820160009054906101000a900473ffffffffffffffffffffffffffffffffffffffff168160000160006101000a81548173ffffffffffffffffffffffffffffffffffffffff021916908373ffffffffffffffffffffffffffffffffffffffff160217905550600182018160010190816137959190617533565b50600282018160020190816137aa9190617533565b5060038201816003019080546137c1929190614eff565b5090505060008054806137d7576137d661761b565b5b6001900381819060005260206000209060040201600080820160006101000a81549073ffffffffffffffffffffffffffffffffffffffff02191690556001820160006138239190614f5c565b6002820160006138339190614f5c565b6003820160006138439190614f9c565b505090555b8080613853906165e7565b9150506135d6565b508080613867906165e7565b9150506135ca565b50600360009054906101000a900473ffffffffffffffffffffffffffffffffffffffff1673ffffffffffffffffffffffffffffffffffffffff1663c47ebddc3384866040518463ffffffff1660e01b81526004016138cf93929190617696565b600060405180830381600087803b1580156138e957600080fd5b505af11580156138fd573d6000803e3d6000fd5b5050505050613908565b5b5050565b613914614fbd565b61392182600001516142cf565b8015613a1d57506040516020016139379061667b565b60405160208183030381529060405280519060200120600160009054906101000a900473ffffffffffffffffffffffffffffffffffffffff1673ffffffffffffffffffffffffffffffffffffffff1662438ceb84600001516040518263ffffffff1660e01b81526004016139ab9190616690565b600060405180830381865afa1580156139c8573d6000803e3d6000fd5b505050506040513d6000823e3d601f19601f820116820180604052508101906139f191906161b4565b60200151604051602001613a059190616239565b60405160208183030381529060405280519060200120145b15613d0b576000808054905067ffffffffffffffff811115613a4257613a416150ae565b5b604051908082528060200260200182016040528015613a705781602001602082028036833780820191505090505b5090506000805b600080549050811015613cd1578460000151604051602001613a999190616239565b6040516020818303038152906040528051906020012060008281548110613ac357613ac2615f21565b5b9060005260206000209060040201600101604051602001613ae4919061690b565b60405160208183030381529060405280519060200120148015613c175750604051602001613b119061667b565b60405160208183030381529060405280519060200120600160009054906101000a900473ffffffffffffffffffffffffffffffffffffffff1673ffffffffffffffffffffffffffffffffffffffff1662438ceb60008481548110613b7857613b77615f21565b5b90600052602060002090600402016001016040518263ffffffff1660e01b8152600401613ba5919061605a565b600060405180830381865afa158015613bc2573d6000803e3d6000fd5b505050506040513d6000823e3d601f19601f82011682018060405250810190613beb91906161b4565b60200151604051602001613bff9190616239565b60405160208183030381529060405280519060200120145b15613cbe5760008181548110613c3057613c2f615f21565b5b906000526020600020906004020160000160009054906101000a900473ffffffffffffffffffffffffffffffffffffffff16838381518110613c7557613c74615f21565b5b602002602001019073ffffffffffffffffffffffffffffffffffffffff16908173ffffffffffffffffffffffffffffffffffffffff16815250508180613cba906165e7565b9250505b8080613cc9906165e7565b915050613a77565b5080825260405180606001604052806001151581526020018381526020016040518060200160405280600081525081525092505050613d8d565b6040518060600160405280600015158152602001600067ffffffffffffffff811115613d3a57613d396150ae565b5b604051908082528060200260200182016040528015613d685781602001602082028036833780820191505090505b5081526020016040518060800160405280605b8152602001617925605b913981525090505b919050565b613da0838360000151614cda565b156142ca576000600467ffffffffffffffff811115613dc257613dc16150ae565b5b604051908082528060200260200182016040528015613df557816020015b6060815260200190600190039081613de05790505b5090506040518060400160405280600581526020017f736861726500000000000000000000000000000000000000000000000000000081525081600081518110613e4257613e41615f21565b5b60200260200101819052506040518060400160405280600881526020017f646f776e6c6f616400000000000000000000000000000000000000000000000081525081600181518110613e9757613e96615f21565b5b60200260200101819052506040518060400160405280600681526020017f64656c657465000000000000000000000000000000000000000000000000000081525081600281518110613eec57613eeb615f21565b5b60200260200101819052506040518060400160405280600481526020017f656469740000000000000000000000000000000000000000000000000000000081525081600381518110613f4157613f40615f21565b5b60200260200101819052506000600460009054906101000a900473ffffffffffffffffffffffffffffffffffffffff1673ffffffffffffffffffffffffffffffffffffffff1663872e35a9868660000151858860e001516040518563ffffffff1660e01b8152600401613fb794939291906176fa565b602060405180830381865afa158015613fd4573d6000803e3d6000fd5b505050506040513d601f19601f82011682018060405250810190613ff89190616705565b905080156142c757600160009054906101000a900473ffffffffffffffffffffffffffffffffffffffff1673ffffffffffffffffffffffffffffffffffffffff1663bfddc42f856040518263ffffffff1660e01b815260040161405b9190617754565b600060405180830381600087803b15801561407557600080fd5b505af1158015614089573d6000803e3d6000fd5b50505050600060405180608001604052808773ffffffffffffffffffffffffffffffffffffffff16815260200186600001518152602001858152602001848152509050600081908060018154018082558091505060019003906000526020600020906004020160009091909190915060008201518160000160006101000a81548173ffffffffffffffffffffffffffffffffffffffff021916908373ffffffffffffffffffffffffffffffffffffffff16021790555060208201518160010190816141549190616ab9565b50604082015181600201908161416a9190616ab9565b506060820151816003019080519060200190614187929190614e83565b505050600360009054906101000a900473ffffffffffffffffffffffffffffffffffffffff1673ffffffffffffffffffffffffffffffffffffffff1663c47ebddc33876000015189600460009054906101000a900473ffffffffffffffffffffffffffffffffffffffff1673ffffffffffffffffffffffffffffffffffffffff16636bb8d768896040518263ffffffff1660e01b815260040161422a9190616dbd565b600060405180830381865afa158015614247573d6000803e3d6000fd5b505050506040513d6000823e3d601f19601f8201168201806040525081019061427091906161b4565b602001516040518563ffffffff1660e01b815260040161429394939291906177c2565b600060405180830381600087803b1580156142ad57600080fd5b505af11580156142c1573d6000803e3d6000fd5b50505050505b50505b505050565b600080600090505b60008054905081101561460057600460009054906101000a900473ffffffffffffffffffffffffffffffffffffffff1673ffffffffffffffffffffffffffffffffffffffff16635c99c71b336000848154811061433757614336615f21565b5b906000526020600020906004020160000160009054906101000a900473ffffffffffffffffffffffffffffffffffffffff16866000868154811061437e5761437d615f21565b5b90600052602060002090600402016001016040518563ffffffff1660e01b81526004016143ae94939291906166b2565b602060405180830381865afa1580156143cb573d6000803e3d6000fd5b505050506040513d601f19601f820116820180604052508101906143ef9190616705565b80156145de57506040516020016144059061667b565b60405160208183030381529060405280519060200120600160009054906101000a900473ffffffffffffffffffffffffffffffffffffffff1673ffffffffffffffffffffffffffffffffffffffff1662438ceb856040518263ffffffff1660e01b81526004016144759190616690565b600060405180830381865afa158015614492573d6000803e3d6000fd5b505050506040513d6000823e3d601f19601f820116820180604052508101906144bb91906161b4565b602001516040516020016144cf9190616239565b6040516020818303038152906040528051906020012014806145dd57506040516020016144fb90616edd565b60405160208183030381529060405280519060200120600160009054906101000a900473ffffffffffffffffffffffffffffffffffffffff1673ffffffffffffffffffffffffffffffffffffffff1662438ceb856040518263ffffffff1660e01b815260040161456b9190616690565b600060405180830381865afa158015614588573d6000803e3d6000fd5b505050506040513d6000823e3d601f19601f820116820180604052508101906145b191906161b4565b602001516040516020016145c59190616239565b60405160208183030381529060405280519060200120145b5b156145ed576001915050614606565b80806145f8906165e7565b9150506142d7565b50600090505b919050565b600060405160200161461c9061667b565b60405160208183030381529060405280519060200120600160009054906101000a900473ffffffffffffffffffffffffffffffffffffffff1673ffffffffffffffffffffffffffffffffffffffff1662438ceb856040518263ffffffff1660e01b815260040161468c9190616690565b600060405180830381865afa1580156146a9573d6000803e3d6000fd5b505050506040513d6000823e3d601f19601f820116820180604052508101906146d291906161b4565b602001516040516020016146e69190616239565b60405160208183030381529060405280519060200120036147ad57600061470d858561093f565b60200151905060005b81518110156147aa57836040516020016147309190616239565b6040516020818303038152906040528051906020012082828151811061475957614758615f21565b5b60200260200101516040516020016147719190616239565b6040516020818303038152906040528051906020012003614797576001925050506147b2565b80806147a2906165e7565b915050614716565b50505b600090505b9392505050565b60006147fb33836040518060400160405280600481526020017f656469740000000000000000000000000000000000000000000000000000000081525061460b565b80156148f357506040516020016148119061667b565b60405160208183030381529060405280519060200120600160009054906101000a900473ffffffffffffffffffffffffffffffffffffffff1673ffffffffffffffffffffffffffffffffffffffff1662438ceb846040518263ffffffff1660e01b81526004016148819190616690565b600060405180830381865afa15801561489e573d6000803e3d6000fd5b505050506040513d6000823e3d601f19601f820116820180604052508101906148c791906161b4565b602001516040516020016148db9190616239565b60405160208183030381529060405280519060200120145b156149015760019050614906565b600090505b919050565b60008073ffffffffffffffffffffffffffffffffffffffff16600160009054906101000a900473ffffffffffffffffffffffffffffffffffffffff1673ffffffffffffffffffffffffffffffffffffffff166347eb6fa787600001516040518263ffffffff1660e01b8152600401614983919061784b565b600060405180830381865afa1580156149a0573d6000803e3d6000fd5b505050506040513d6000823e3d601f19601f820116820180604052508101906149c99190616565565b602001516080015173ffffffffffffffffffffffffffffffffffffffff1614158015614acd5750600073ffffffffffffffffffffffffffffffffffffffff16600160009054906101000a900473ffffffffffffffffffffffffffffffffffffffff1673ffffffffffffffffffffffffffffffffffffffff166347eb6fa786600001516040518263ffffffff1660e01b8152600401614a67919061784b565b600060405180830381865afa158015614a84573d6000803e3d6000fd5b505050506040513d6000823e3d601f19601f82011682018060405250810190614aad9190616565565b602001516080015173ffffffffffffffffffffffffffffffffffffffff16145b8015614b275750604051602001614ae390616276565b604051602081830303815290604052805190602001208460200151604051602001614b0e9190616239565b6040516020818303038152906040528051906020012014155b8015614b815750604051602001614b3d90616276565b604051602081830303815290604052805190602001208460a00151604051602001614b689190616239565b6040516020818303038152906040528051906020012014155b8015614bdb5750604051602001614b9790616276565b604051602081830303815290604052805190602001208460c00151604051602001614bc29190616239565b6040516020818303038152906040528051906020012014155b8015614c365750604051602001614bf190616276565b60405160208183030381529060405280519060200120846101000151604051602001614c1d9190616239565b6040516020818303038152906040528051906020012014155b8015614c43575081518351145b8015614c825750846080015173ffffffffffffffffffffffffffffffffffffffff16856080015173ffffffffffffffffffffffffffffffffffffffff16145b8015614cbf5750600073ffffffffffffffffffffffffffffffffffffffff16856080015173ffffffffffffffffffffffffffffffffffffffff1614155b15614ccd5760019050614cd2565b600090505b949350505050565b60008273ffffffffffffffffffffffffffffffffffffffff163373ffffffffffffffffffffffffffffffffffffffff16148015614d1e5750614d1c8383611038565b155b8015614dc25750600260009054906101000a900473ffffffffffffffffffffffffffffffffffffffff1673ffffffffffffffffffffffffffffffffffffffff1663a240e426846040518263ffffffff1660e01b8152600401614d809190615aef565b602060405180830381865afa158015614d9d573d6000803e3d6000fd5b505050506040513d601f19601f82011682018060405250810190614dc19190616705565b5b15614dd05760019050614dd5565b600090505b92915050565b604051806060016040528060001515815260200160608152602001606081525090565b60405180610120016040528060608152602001606081526020016000815260200160608152602001600073ffffffffffffffffffffffffffffffffffffffff168152602001606081526020016060815260200160608152602001606081525090565b604051806060016040528060001515815260200160608152602001606081525090565b828054828255906000526020600020908101928215614ecb579160200282015b82811115614eca578251829081614eba9190616ab9565b5091602001919060010190614ea3565b5b509050614ed89190614fe0565b5090565b604051806060016040528060001515815260200160608152602001606081525090565b828054828255906000526020600020908101928215614f4b5760005260206000209182015b82811115614f4a5782829081614f3a9190617533565b5091600101919060010190614f24565b5b509050614f589190614fe0565b5090565b508054614f6890615f7f565b6000825580601f10614f7a5750614f99565b601f016020900490600052602060002090810190614f989190615004565b5b50565b5080546000825590600052602060002090810190614fba9190614fe0565b50565b604051806060016040528060001515815260200160608152602001606081525090565b5b808211156150005760008181614ff79190614f5c565b50600101614fe1565b5090565b5b8082111561501d576000816000905550600101615005565b5090565b6000604051905090565b600080fd5b600080fd5b600073ffffffffffffffffffffffffffffffffffffffff82169050919050565b600061506082615035565b9050919050565b61507081615055565b811461507b57600080fd5b50565b60008135905061508d81615067565b92915050565b600080fd5b600080fd5b6000601f19601f8301169050919050565b7f4e487b7100000000000000000000000000000000000000000000000000000000600052604160045260246000fd5b6150e68261509d565b810181811067ffffffffffffffff82111715615105576151046150ae565b5b80604052505050565b6000615118615021565b905061512482826150dd565b919050565b600067ffffffffffffffff821115615144576151436150ae565b5b61514d8261509d565b9050602081019050919050565b82818337600083830152505050565b600061517c61517784615129565b61510e565b90508281526020810184848401111561519857615197615098565b5b6151a384828561515a565b509392505050565b600082601f8301126151c0576151bf615093565b5b81356151d0848260208601615169565b91505092915050565b600080604083850312156151f0576151ef61502b565b5b60006151fe8582860161507e565b925050602083013567ffffffffffffffff81111561521f5761521e615030565b5b61522b858286016151ab565b9150509250929050565b60008115159050919050565b61524a81615235565b82525050565b600081519050919050565b600082825260208201905092915050565b6000819050602082019050919050565b600081519050919050565b600082825260208201905092915050565b60005b838110156152b657808201518184015260208101905061529b565b60008484015250505050565b60006152cd8261527c565b6152d78185615287565b93506152e7818560208601615298565b6152f08161509d565b840191505092915050565b6000819050919050565b61530e816152fb565b82525050565b61531d81615055565b82525050565b600061012083016000830151848203600086015261534182826152c2565b9150506020830151848203602086015261535b82826152c2565b91505060408301516153706040860182615305565b506060830151848203606086015261538882826152c2565b915050608083015161539d6080860182615314565b5060a083015184820360a08601526153b582826152c2565b91505060c083015184820360c08601526153cf82826152c2565b91505060e083015184820360e08601526153e982826152c2565b91505061010083015184820361010086015261540582826152c2565b9150508091505092915050565b600061541e8383615323565b905092915050565b6000602082019050919050565b600061543e82615250565b615448818561525b565b93508360208202850161545a8561526c565b8060005b8581101561549657848403895281516154778582615412565b945061548283615426565b925060208a0199505060018101905061545e565b50829750879550505050505092915050565b60006060830160008301516154c06000860182615241565b50602083015184820360208601526154d88282615433565b915050604083015184820360408601526154f282826152c2565b9150508091505092915050565b6000602082019050818103600083015261551981846154a8565b905092915050565b600081519050919050565b600082825260208201905092915050565b6000819050602082019050919050565b600061555983836152c2565b905092915050565b6000602082019050919050565b600061557982615521565b615583818561552c565b9350836020820285016155958561553d565b8060005b858110156155d157848403895281516155b2858261554d565b94506155bd83615561565b925060208a01995050600181019050615599565b50829750879550505050505092915050565b60006060830160008301516155fb6000860182615241565b5060208301518482036020860152615613828261556e565b9150506040830151848203604086015261562d82826152c2565b9150508091505092915050565b6000602082019050818103600083015261565481846155e3565b905092915050565b61566581615235565b82525050565b6000602082019050615680600083018461565c565b92915050565b600080fd5b600080fd5b615699816152fb565b81146156a457600080fd5b50565b6000813590506156b681615690565b92915050565b600061012082840312156156d3576156d2615686565b5b6156de61012061510e565b9050600082013567ffffffffffffffff8111156156fe576156fd61568b565b5b61570a848285016151ab565b600083015250602082013567ffffffffffffffff81111561572e5761572d61568b565b5b61573a848285016151ab565b602083015250604061574e848285016156a7565b604083015250606082013567ffffffffffffffff8111156157725761577161568b565b5b61577e848285016151ab565b60608301525060806157928482850161507e565b60808301525060a082013567ffffffffffffffff8111156157b6576157b561568b565b5b6157c2848285016151ab565b60a08301525060c082013567ffffffffffffffff8111156157e6576157e561568b565b5b6157f2848285016151ab565b60c08301525060e082013567ffffffffffffffff8111156158165761581561568b565b5b615822848285016151ab565b60e08301525061010082013567ffffffffffffffff8111156158475761584661568b565b5b615853848285016151ab565b6101008301525092915050565b600067ffffffffffffffff82111561587b5761587a6150ae565b5b602082029050602081019050919050565b600080fd5b60006158a461589f84615860565b61510e565b905080838252602082019050602084028301858111156158c7576158c661588c565b5b835b818110156158f057806158dc888261507e565b8452602084019350506020810190506158c9565b5050509392505050565b600082601f83011261590f5761590e615093565b5b813561591f848260208601615891565b91505092915050565b600067ffffffffffffffff821115615943576159426150ae565b5b602082029050602081019050919050565b600061596761596284615928565b61510e565b9050808382526020820190506020840283018581111561598a5761598961588c565b5b835b818110156159d157803567ffffffffffffffff8111156159af576159ae615093565b5b8086016159bc89826151ab565b8552602085019450505060208101905061598c565b5050509392505050565b600082601f8301126159f0576159ef615093565b5b8135615a00848260208601615954565b91505092915050565b60008060008060808587031215615a2357615a2261502b565b5b600085013567ffffffffffffffff811115615a4157615a40615030565b5b615a4d878288016156bc565b945050602085013567ffffffffffffffff811115615a6e57615a6d615030565b5b615a7a878288016156bc565b935050604085013567ffffffffffffffff811115615a9b57615a9a615030565b5b615aa7878288016158fa565b925050606085013567ffffffffffffffff811115615ac857615ac7615030565b5b615ad4878288016159db565b91505092959194509250565b615ae981615055565b82525050565b6000602082019050615b046000830184615ae0565b92915050565b60008060408385031215615b2157615b2061502b565b5b600083013567ffffffffffffffff811115615b3f57615b3e615030565b5b615b4b858286016151ab565b9250506020615b5c8582860161507e565b9150509250929050565b600080600060608486031215615b7f57615b7e61502b565b5b6000615b8d8682870161507e565b935050602084013567ffffffffffffffff811115615bae57615bad615030565b5b615bba868287016151ab565b925050604084013567ffffffffffffffff811115615bdb57615bda615030565b5b615be7868287016159db565b9150509250925092565b6000606083016000830151615c096000860182615241565b5060208301518482036020860152615c2182826152c2565b91505060408301518482036040860152615c3b82826152c2565b9150508091505092915050565b60006020820190508181036000830152615c628184615bf1565b905092915050565b60008060008060808587031215615c8457615c8361502b565b5b6000615c928782880161507e565b945050602085013567ffffffffffffffff811115615cb357615cb2615030565b5b615cbf878288016151ab565b935050604085013567ffffffffffffffff811115615ce057615cdf615030565b5b615cec878288016159db565b925050606085013567ffffffffffffffff811115615d0d57615d0c615030565b5b615d19878288016159db565b91505092959194509250565b600060208284031215615d3b57615d3a61502b565b5b600082013567ffffffffffffffff811115615d5957615d58615030565b5b615d65848285016156bc565b91505092915050565b600081519050919050565b600082825260208201905092915050565b6000819050602082019050919050565b6000615da68383615314565b60208301905092915050565b6000602082019050919050565b6000615dca82615d6e565b615dd48185615d79565b9350615ddf83615d8a565b8060005b83811015615e10578151615df78882615d9a565b9750615e0283615db2565b925050600181019050615de3565b5085935050505092915050565b6000606083016000830151615e356000860182615241565b5060208301518482036020860152615e4d8282615dbf565b91505060408301518482036040860152615e6782826152c2565b9150508091505092915050565b60006020820190508181036000830152615e8e8184615e1d565b905092915050565b600080600060608486031215615eaf57615eae61502b565b5b6000615ebd8682870161507e565b935050602084013567ffffffffffffffff811115615ede57615edd615030565b5b615eea868287016156bc565b925050604084013567ffffffffffffffff811115615f0b57615f0a615030565b5b615f17868287016151ab565b9150509250925092565b7f4e487b7100000000000000000000000000000000000000000000000000000000600052603260045260246000fd5b7f4e487b7100000000000000000000000000000000000000000000000000000000600052602260045260246000fd5b60006002820490506001821680615f9757607f821691505b602082108103615faa57615fa9615f50565b5b50919050565b600082825260208201905092915050565b60008190508160005260206000209050919050565b60008154615fe381615f7f565b615fed8186615fb0565b94506001821660008114616008576001811461601e57616051565b60ff198316865281151560200286019350616051565b61602785615fc1565b60005b838110156160495781548189015260018201915060208101905061602a565b808801955050505b50505092915050565b600060208201905081810360008301526160748184615fd6565b905092915050565b61608581615235565b811461609057600080fd5b50565b6000815190506160a28161607c565b92915050565b60006160bb6160b684615129565b61510e565b9050828152602081018484840111156160d7576160d6615098565b5b6160e2848285615298565b509392505050565b600082601f8301126160ff576160fe615093565b5b815161610f8482602086016160a8565b91505092915050565b60006060828403121561612e5761612d615686565b5b616138606061510e565b9050600061614884828501616093565b600083015250602082015167ffffffffffffffff81111561616c5761616b61568b565b5b616178848285016160ea565b602083015250604082015167ffffffffffffffff81111561619c5761619b61568b565b5b6161a8848285016160ea565b60408301525092915050565b6000602082840312156161ca576161c961502b565b5b600082015167ffffffffffffffff8111156161e8576161e7615030565b5b6161f484828501616118565b91505092915050565b600081905092915050565b60006162138261527c565b61621d81856161fd565b935061622d818560208601615298565b80840191505092915050565b60006162458284616208565b915081905092915050565b50565b60006162606000836161fd565b915061626b82616250565b600082019050919050565b600061628182616253565b9150819050919050565b60006162968261527c565b6162a08185615fb0565b93506162b0818560208601615298565b6162b98161509d565b840191505092915050565b600060408201905081810360008301526162de818561628b565b905081810360208301526162f2818461628b565b90509392505050565b60008151905061630a81615690565b92915050565b60008151905061631f81615067565b92915050565b6000610120828403121561633c5761633b615686565b5b61634761012061510e565b9050600082015167ffffffffffffffff8111156163675761636661568b565b5b616373848285016160ea565b600083015250602082015167ffffffffffffffff8111156163975761639661568b565b5b6163a3848285016160ea565b60208301525060406163b7848285016162fb565b604083015250606082015167ffffffffffffffff8111156163db576163da61568b565b5b6163e7848285016160ea565b60608301525060806163fb84828501616310565b60808301525060a082015167ffffffffffffffff81111561641f5761641e61568b565b5b61642b848285016160ea565b60a08301525060c082015167ffffffffffffffff81111561644f5761644e61568b565b5b61645b848285016160ea565b60c08301525060e082015167ffffffffffffffff81111561647f5761647e61568b565b5b61648b848285016160ea565b60e08301525061010082015167ffffffffffffffff8111156164b0576164af61568b565b5b6164bc848285016160ea565b6101008301525092915050565b6000606082840312156164df576164de615686565b5b6164e9606061510e565b905060006164f984828501616093565b600083015250602082015167ffffffffffffffff81111561651d5761651c61568b565b5b61652984828501616325565b602083015250604082015167ffffffffffffffff81111561654d5761654c61568b565b5b616559848285016160ea565b60408301525092915050565b60006020828403121561657b5761657a61502b565b5b600082015167ffffffffffffffff81111561659957616598615030565b5b6165a5848285016164c9565b91505092915050565b7f4e487b7100000000000000000000000000000000000000000000000000000000600052601160045260246000fd5b6000819050919050565b60006165f2826165dd565b91507fffffffffffffffffffffffffffffffffffffffffffffffffffffffffffffffff8203616624576166236165ae565b5b600182019050919050565b7f6163746976650000000000000000000000000000000000000000000000000000600082015250565b60006166656006836161fd565b91506166708261662f565b600682019050919050565b600061668682616658565b9150819050919050565b600060208201905081810360008301526166aa818461628b565b905092915050565b60006080820190506166c76000830187615ae0565b6166d46020830186615ae0565b81810360408301526166e6818561628b565b905081810360608301526166fa8184615fd6565b905095945050505050565b60006020828403121561671b5761671a61502b565b5b600061672984828501616093565b91505092915050565b60006040820190506167476000830185615ae0565b8181036020830152616759818461628b565b90509392505050565b600061012083016000830151848203600086015261678082826152c2565b9150506020830151848203602086015261679a82826152c2565b91505060408301516167af6040860182615305565b50606083015184820360608601526167c782826152c2565b91505060808301516167dc6080860182615314565b5060a083015184820360a08601526167f482826152c2565b91505060c083015184820360c086015261680e82826152c2565b91505060e083015184820360e086015261682882826152c2565b91505061010083015184820361010086015261684482826152c2565b9150508091505092915050565b6000604082019050818103600083015261686b8185616762565b9050818103602083015261687f8184616762565b90509392505050565b6000815461689581615f7f565b61689f81866161fd565b945060018216600081146168ba57600181146168cf57616902565b60ff1983168652811515820286019350616902565b6168d885615fc1565b60005b838110156168fa578154818901526001820191506020810190506168db565b838801955050505b50505092915050565b60006169178284616888565b915081905092915050565b60006020601f8301049050919050565b600082821b905092915050565b60006008830261696f7fffffffffffffffffffffffffffffffffffffffffffffffffffffffffffffffff82616932565b6169798683616932565b95508019841693508086168417925050509392505050565b6000819050919050565b60006169b66169b16169ac846165dd565b616991565b6165dd565b9050919050565b6000819050919050565b6169d08361699b565b6169e46169dc826169bd565b84845461693f565b825550505050565b600090565b6169f96169ec565b616a048184846169c7565b505050565b5b81811015616a2857616a1d6000826169f1565b600181019050616a0a565b5050565b601f821115616a6d57616a3e81615fc1565b616a4784616922565b81016020851015616a56578190505b616a6a616a6285616922565b830182616a09565b50505b505050565b600082821c905092915050565b6000616a9060001984600802616a72565b1980831691505092915050565b6000616aa98383616a7f565b9150826002028217905092915050565b616ac28261527c565b67ffffffffffffffff811115616adb57616ada6150ae565b5b616ae58254615f7f565b616af0828285616a2c565b600060209050601f831160018114616b235760008415616b11578287015190505b616b1b8582616a9d565b865550616b83565b601f198416616b3186615fc1565b60005b82811015616b5957848901518255600182019150602085019450602081019050616b34565b86831015616b765784890151616b72601f891682616a7f565b8355505b6001600288020188555050505b505050505050565b7f2d00000000000000000000000000000000000000000000000000000000000000600082015250565b6000616bc1600183615fb0565b9150616bcc82616b8b565b602082019050919050565b7f6564697400000000000000000000000000000000000000000000000000000000600082015250565b6000616c0d600483615fb0565b9150616c1882616bd7565b602082019050919050565b600060a082019050616c386000830186615ae0565b8181036020830152616c4a818561628b565b9050616c596040830184615ae0565b8181036060830152616c6a81616bb4565b90508181036080830152616c7d81616c00565b9050949350505050565b7f646f776e6c6f6164000000000000000000000000000000000000000000000000600082015250565b6000616cbd600883615fb0565b9150616cc882616c87565b602082019050919050565b600060a082019050616ce86000830186615ae0565b8181036020830152616cfa818561628b565b9050616d096040830184615ae0565b8181036060830152616d1a81616bb4565b90508181036080830152616d2d81616cb0565b9050949350505050565b600082825260208201905092915050565b6000616d5382615521565b616d5d8185616d37565b935083602082028501616d6f8561553d565b8060005b85811015616dab5784840389528151616d8c858261554d565b9450616d9783615561565b925060208a01995050600181019050616d73565b50829750879550505050505092915050565b60006020820190508181036000830152616dd78184616d48565b905092915050565b7f757064617465207065726d697373696f6e730000000000000000000000000000600082015250565b6000616e15601283615fb0565b9150616e2082616ddf565b602082019050919050565b600060a082019050616e406000830187615ae0565b8181036020830152616e52818661628b565b9050616e616040830185615ae0565b8181036060830152616e73818461628b565b90508181036080830152616e8681616e08565b905095945050505050565b7f6564697465640000000000000000000000000000000000000000000000000000600082015250565b6000616ec76006836161fd565b9150616ed282616e91565b600682019050919050565b6000616ee882616eba565b9150819050919050565b6000616f05616f0084615928565b61510e565b90508083825260208201905060208402830185811115616f2857616f2761588c565b5b835b81811015616f6f57805167ffffffffffffffff811115616f4d57616f4c615093565b5b808601616f5a89826160ea565b85526020850194505050602081019050616f2a565b5050509392505050565b600082601f830112616f8e57616f8d615093565b5b8151616f9e848260208601616ef2565b91505092915050565b600060608284031215616fbd57616fbc615686565b5b616fc7606061510e565b90506000616fd784828501616093565b600083015250602082015167ffffffffffffffff811115616ffb57616ffa61568b565b5b61700784828501616f79565b602083015250604082015167ffffffffffffffff81111561702b5761702a61568b565b5b617037848285016160ea565b60408301525092915050565b6000602082840312156170595761705861502b565b5b600082015167ffffffffffffffff81111561707757617076615030565b5b61708384828501616fa7565b91505092915050565b6000617099600083615fb0565b91506170a482616250565b600082019050919050565b60006080820190506170c46000830186615ae0565b81810360208301526170d6818561628b565b905081810360408301526170ea8184616d48565b905081810360608301526170fd8161708c565b9050949350505050565b600067ffffffffffffffff821115617122576171216150ae565b5b602082029050602081019050919050565b600061714661714184617107565b61510e565b905080838252602082019050602084028301858111156171695761716861588c565b5b835b818110156171b057805167ffffffffffffffff81111561718e5761718d615093565b5b80860161719b8982616325565b8552602085019450505060208101905061716b565b5050509392505050565b600082601f8301126171cf576171ce615093565b5b81516171df848260208601617133565b91505092915050565b6000606082840312156171fe576171fd615686565b5b617208606061510e565b9050600061721884828501616093565b600083015250602082015167ffffffffffffffff81111561723c5761723b61568b565b5b617248848285016171ba565b602083015250604082015167ffffffffffffffff81111561726c5761726b61568b565b5b617278848285016160ea565b60408301525092915050565b60006020828403121561729a5761729961502b565b5b600082015167ffffffffffffffff8111156172b8576172b7615030565b5b6172c4848285016171e8565b91505092915050565b7f7368617265000000000000000000000000000000000000000000000000000000600082015250565b6000617303600583615fb0565b915061730e826172cd565b602082019050919050565b600060a08201905061732e6000830187615ae0565b8181036020830152617340818661628b565b905061734f6040830185615ae0565b8181036060830152617361818461628b565b90508181036080830152617374816172f6565b905095945050505050565b7f64656c6574656400000000000000000000000000000000000000000000000000600082015250565b60006173b5600783615fb0565b91506173c08261737f565b602082019050919050565b600060a0820190506173e06000830186615ae0565b81810360208301526173f2818561628b565b90506174016040830184615ae0565b818103606083015261741281616bb4565b90508181036080830152617425816173a8565b9050949350505050565b600081905092915050565b60008190508160005260206000209050919050565b6000815461745c81615f7f565b617466818661742f565b945060018216600081146174815760018114617496576174c9565b60ff19831686528115158202860193506174c9565b61749f8561743a565b60005b838110156174c1578154818901526001820191506020810190506174a2565b838801955050505b50505092915050565b60006174de828461744f565b915081905092915050565b60006174f4826165dd565b91506174ff836165dd565b9250828203905081811115617517576175166165ae565b5b92915050565b60008154905061752c81615f7f565b9050919050565b818103617541575050617619565b61754a8261751d565b67ffffffffffffffff811115617563576175626150ae565b5b61756d8254615f7f565b617578828285616a2c565b6000601f8311600181146175a75760008415617595578287015490505b61759f8582616a9d565b865550617612565b601f1984166175b587615fc1565b96506175c086615fc1565b60005b828110156175e8578489015482556001820191506001850194506020810190506175c3565b868310156176055784890154617601601f891682616a7f565b8355505b6001600288020188555050505b5050505050505b565b7f4e487b7100000000000000000000000000000000000000000000000000000000600052603160045260246000fd5b7f72656d6f76656420616363657373000000000000000000000000000000000000600082015250565b6000617680600e83615fb0565b915061768b8261764a565b602082019050919050565b600060a0820190506176ab6000830186615ae0565b81810360208301526176bd818561628b565b90506176cc6040830184615ae0565b81810360608301526176dd81616bb4565b905081810360808301526176f081617673565b9050949350505050565b600060808201905061770f6000830187615ae0565b8181036020830152617721818661628b565b905081810360408301526177358185616d48565b90508181036060830152617749818461628b565b905095945050505050565b6000602082019050818103600083015261776e8184616762565b905092915050565b7f75706c6f61640000000000000000000000000000000000000000000000000000600082015250565b60006177ac600683615fb0565b91506177b782617776565b602082019050919050565b600060a0820190506177d76000830187615ae0565b81810360208301526177e9818661628b565b90506177f86040830185615ae0565b818103606083015261780a818461628b565b9050818103608083015261781d8161779f565b905095945050505050565b6000617835600683615fb0565b91506178408261662f565b602082019050919050565b60006040820190508181036000830152617865818461628b565b9050818103602083015261787881617828565b90509291505056fe4d616b65207375726520746865207472616e73616374696f6e20657865637574657220617320746f206265207468652073616d652061732074686520757365722c2074686520757365722068617320746f206265206173736f6369617465642077697468207468652066696c652c20616e64207468652066696c652068617320746f20626520696e2074686520616374697665206f72206564697465642073746174652e536f6d657468696e672077656e742077726f6e67207768696c6520747279696e6720746f2067657420746865207573657273207769746820646f776e6c6f6164207065726d697373696f6e73206f766572207468652066696c652e546865207472616e61736374696f6e2065786563757465722073686f756c64206265207468652073616d6520617320746865207573657220746f20676574207468652066696c65732066726f6d2e546865207472616e73616374696f6e2065786563757465722068617320746f206265206173736f6369617465642077697468207468652066696c652c20616e64207468652066696c652073686f756c6420626520696e20746865206163746976652073746174652ea264697066735822122060377bb3414af247d183030f5a7422344b54768f13f997c86379f9b30a1ec2b664736f6c6343000813003360806040523480156200001157600080fd5b50604051620038a2380380620038a28339818101604052810190620000379190620000e9565b80600260006101000a81548173ffffffffffffffffffffffffffffffffffffffff021916908373ffffffffffffffffffffffffffffffffffffffff160217905550506200011b565b600080fd5b600073ffffffffffffffffffffffffffffffffffffffff82169050919050565b6000620000b18262000084565b9050919050565b620000c381620000a4565b8114620000cf57600080fd5b50565b600081519050620000e381620000b8565b92915050565b6000602082840312156200010257620001016200007f565b5b60006200011284828501620000d2565b91505092915050565b613777806200012b6000396000f3fe608060405234801561001057600080fd5b50600436106100a85760003560e01c806395f0f0bb1161007157806395f0f0bb146101895780639bccd6ad146101a5578063bfddc42f146101d5578063e8d56b8b146101f1578063f880680b1461020d578063fadc54f41461023d576100a8565b8062438ceb146100ad57806347eb6fa7146100dd57806352a9baef1461010d57806374546fdf1461013d578063922243ad14610159575b600080fd5b6100c760048036038101906100c291906125cd565b61026d565b6040516100d49190612707565b60405180910390f35b6100f760048036038101906100f29190612729565b610352565b6040516101049190612941565b60405180910390f35b6101276004803603810190610122919061298f565b610a14565b60405161013491906129fa565b60405180910390f35b610157600480360381019061015291906125cd565b610a9e565b005b610173600480360381019061016e91906125cd565b610b5b565b6040516101809190612b2e565b60405180910390f35b6101a3600480360381019061019e9190612d2a565b610f10565b005b6101bf60048036038101906101ba91906125cd565b61123b565b6040516101cc91906129fa565b60405180910390f35b6101ef60048036038101906101ea9190612da2565b6112df565b005b61020b60048036038101906102069190612deb565b61150e565b005b610227600480360381019061022291906125cd565b61165e565b6040516102349190612707565b60405180910390f35b610257600480360381019061025291906125cd565b6117e5565b6040516102649190612f31565b60405180910390f35b61027561237f565b60405180606001604052806001151581526020016000846040516102999190612f8f565b908152602001604051809103902060070180546102b590612fd5565b80601f01602080910402602001604051908101604052809291908181526020018280546102e190612fd5565b801561032e5780601f106103035761010080835404028352916020019161032e565b820191906000526020600020905b81548152906001019060200180831161031157829003601f168201915b50505050508152602001604051806020016040528060008152508152509050919050565b61035a6123a2565b6000808460405161036b9190612f8f565b9081526020016040518091039020600101805461038790612fd5565b90501180156104555750816040516020016103a29190612f8f565b604051602081830303815290604052805190602001206000846040516103c89190612f8f565b90815260200160405180910390206007016040516020016103e9919061309e565b6040516020818303038152906040528051906020012014806104545750604051602001610415906130db565b604051602081830303815290604052805190602001208260405160200161043c9190612f8f565b60405160208183030381529060405280519060200120145b5b1561091557604051806060016040528060011515815260200160008560405161047e9190612f8f565b9081526020016040518091039020604051806101200160405290816000820180546104a890612fd5565b80601f01602080910402602001604051908101604052809291908181526020018280546104d490612fd5565b80156105215780601f106104f657610100808354040283529160200191610521565b820191906000526020600020905b81548152906001019060200180831161050457829003601f168201915b5050505050815260200160018201805461053a90612fd5565b80601f016020809104026020016040519081016040528092919081815260200182805461056690612fd5565b80156105b35780601f10610588576101008083540402835291602001916105b3565b820191906000526020600020905b81548152906001019060200180831161059657829003601f168201915b50505050508152602001600282015481526020016003820180546105d690612fd5565b80601f016020809104026020016040519081016040528092919081815260200182805461060290612fd5565b801561064f5780601f106106245761010080835404028352916020019161064f565b820191906000526020600020905b81548152906001019060200180831161063257829003601f168201915b505050505081526020016004820160009054906101000a900473ffffffffffffffffffffffffffffffffffffffff1673ffffffffffffffffffffffffffffffffffffffff1673ffffffffffffffffffffffffffffffffffffffff1681526020016005820180546106be90612fd5565b80601f01602080910402602001604051908101604052809291908181526020018280546106ea90612fd5565b80156107375780601f1061070c57610100808354040283529160200191610737565b820191906000526020600020905b81548152906001019060200180831161071a57829003601f168201915b5050505050815260200160068201805461075090612fd5565b80601f016020809104026020016040519081016040528092919081815260200182805461077c90612fd5565b80156107c95780601f1061079e576101008083540402835291602001916107c9565b820191906000526020600020905b8154815290600101906020018083116107ac57829003601f168201915b505050505081526020016007820180546107e290612fd5565b80601f016020809104026020016040519081016040528092919081815260200182805461080e90612fd5565b801561085b5780601f106108305761010080835404028352916020019161085b565b820191906000526020600020905b81548152906001019060200180831161083e57829003601f168201915b5050505050815260200160088201805461087490612fd5565b80601f01602080910402602001604051908101604052809291908181526020018280546108a090612fd5565b80156108ed5780601f106108c2576101008083540402835291602001916108ed565b820191906000526020600020905b8154815290600101906020018083116108d057829003601f168201915b5050505050815250508152602001604051806020016040528060008152508152509050610a0e565b604051806060016040528060001515815260200160405180610120016040528060405180602001604052806000815250815260200160405180602001604052806000815250815260200160008152602001604051806020016040528060008152508152602001600073ffffffffffffffffffffffffffffffffffffffff16815260200160405180602001604052806000815250815260200160405180602001604052806000815250815260200160405180602001604052806000815250815260200160405180602001604052806000815250815250815260200160405180608001604052806041815260200161367a6041913981525090505b92915050565b60008273ffffffffffffffffffffffffffffffffffffffff16600083604051610a3d9190612f8f565b908152602001604051809103902060040160009054906101000a900473ffffffffffffffffffffffffffffffffffffffff1673ffffffffffffffffffffffffffffffffffffffff1603610a935760019050610a98565b600090505b92915050565b600360009054906101000a900473ffffffffffffffffffffffffffffffffffffffff1673ffffffffffffffffffffffffffffffffffffffff163373ffffffffffffffffffffffffffffffffffffffff1603610b58576040518060400160405280600881526020017f6465616374697665000000000000000000000000000000000000000000000000815250600082604051610b399190612f8f565b90815260200160405180910390206007019081610b569190613291565b505b50565b610b636123cb565b600360009054906101000a900473ffffffffffffffffffffffffffffffffffffffff1673ffffffffffffffffffffffffffffffffffffffff163373ffffffffffffffffffffffffffffffffffffffff1603610e8457600060018054905067ffffffffffffffff811115610bd957610bd86124a2565b5b604051908082528060200260200182016040528015610c0c57816020015b6060815260200190600190039081610bf75790505b5090506000805b600180549050811015610e4a5784604051602001610c319190612f8f565b60405160208183030381529060405280519060200120600060018381548110610c5d57610c5c613363565b5b90600052602060002001604051610c74919061309e565b9081526020016040518091039020600101604051602001610c95919061309e565b60405160208183030381529060405280519060200120148015610d3e5750604051602001610cc2906133de565b60405160208183030381529060405280519060200120600060018381548110610cee57610ced613363565b5b90600052602060002001604051610d05919061309e565b9081526020016040518091039020600701604051602001610d26919061309e565b60405160208183030381529060405280519060200120145b15610e3757600060018281548110610d5957610d58613363565b5b90600052602060002001604051610d70919061309e565b90815260200160405180910390206000018054610d8c90612fd5565b80601f0160208091040260200160405190810160405280929190818152602001828054610db890612fd5565b8015610e055780601f10610dda57610100808354040283529160200191610e05565b820191906000526020600020905b815481529060010190602001808311610de857829003601f168201915b5050505050838381518110610e1d57610e1c613363565b5b60200260200101819052508180610e3390613422565b9250505b8080610e4290613422565b915050610c13565b5080825260405180606001604052806001151581526020018381526020016040518060200160405280600081525081525092505050610f0b565b6040518060600160405280600015158152602001600067ffffffffffffffff811115610eb357610eb26124a2565b5b604051908082528060200260200182016040528015610ee657816020015b6060815260200190600190039081610ed15790505b5081526020016040518060800160405280604381526020016136ff6043913981525090505b919050565b600360009054906101000a900473ffffffffffffffffffffffffffffffffffffffff1673ffffffffffffffffffffffffffffffffffffffff163373ffffffffffffffffffffffffffffffffffffffff16148015610fa05750816080015173ffffffffffffffffffffffffffffffffffffffff16826080015173ffffffffffffffffffffffffffffffffffffffff16145b8015610fdd5750600073ffffffffffffffffffffffffffffffffffffffff16826080015173ffffffffffffffffffffffffffffffffffffffff1614155b15611237576040518060400160405280600681526020017f65646974656400000000000000000000000000000000000000000000000000008152506000836000015160405161102c9190612f8f565b908152602001604051809103902060070190816110499190613291565b508160800151816080019073ffffffffffffffffffffffffffffffffffffffff16908173ffffffffffffffffffffffffffffffffffffffff168152505081600001518160600181905250600182604001516110a4919061346a565b8160400181815250506040518060400160405280600681526020017f61637469766500000000000000000000000000000000000000000000000000008152508160e0018190525080600082600001516040516111009190612f8f565b908152602001604051809103902060008201518160000190816111239190613291565b5060208201518160010190816111399190613291565b506040820151816002015560608201518160030190816111599190613291565b5060808201518160040160006101000a81548173ffffffffffffffffffffffffffffffffffffffff021916908373ffffffffffffffffffffffffffffffffffffffff16021790555060a08201518160050190816111b69190613291565b5060c08201518160060190816111cc9190613291565b5060e08201518160070190816111e29190613291565b506101008201518160080190816111f99190613291565b50905050600181600001519080600181540180825580915050600190039060005260206000200160009091909190915090816112359190613291565b505b5050565b60008060008360405161124e9190612f8f565b9081526020016040518091039020600001805461126a90612fd5565b9050141580156112c75750600360009054906101000a900473ffffffffffffffffffffffffffffffffffffffff1673ffffffffffffffffffffffffffffffffffffffff163373ffffffffffffffffffffffffffffffffffffffff16145b156112d557600190506112da565b600090505b919050565b600360009054906101000a900473ffffffffffffffffffffffffffffffffffffffff1673ffffffffffffffffffffffffffffffffffffffff163373ffffffffffffffffffffffffffffffffffffffff160361150b5761133d8161225a565b1561150a576040518060400160405280600681526020017f61637469766500000000000000000000000000000000000000000000000000008152508160e001819052506040518060400160405280600181526020017f3000000000000000000000000000000000000000000000000000000000000000815250816060018190525080600082600001516040516113d39190612f8f565b908152602001604051809103902060008201518160000190816113f69190613291565b50602082015181600101908161140c9190613291565b5060408201518160020155606082015181600301908161142c9190613291565b5060808201518160040160006101000a81548173ffffffffffffffffffffffffffffffffffffffff021916908373ffffffffffffffffffffffffffffffffffffffff16021790555060a08201518160050190816114899190613291565b5060c082015181600601908161149f9190613291565b5060e08201518160070190816114b59190613291565b506101008201518160080190816114cc9190613291565b50905050600181600001519080600181540180825580915050600190039060005260206000200160009091909190915090816115089190613291565b505b5b50565b600073ffffffffffffffffffffffffffffffffffffffff168173ffffffffffffffffffffffffffffffffffffffff16141580156115995750600073ffffffffffffffffffffffffffffffffffffffff16600360009054906101000a900473ffffffffffffffffffffffffffffffffffffffff1673ffffffffffffffffffffffffffffffffffffffff16145b80156116145750600360009054906101000a900473ffffffffffffffffffffffffffffffffffffffff1673ffffffffffffffffffffffffffffffffffffffff16600360009054906101000a900473ffffffffffffffffffffffffffffffffffffffff1673ffffffffffffffffffffffffffffffffffffffff16145b1561165b5780600360006101000a81548173ffffffffffffffffffffffffffffffffffffffff021916908373ffffffffffffffffffffffffffffffffffffffff1602179055505b50565b61166661237f565b600360009054906101000a900473ffffffffffffffffffffffffffffffffffffffff1673ffffffffffffffffffffffffffffffffffffffff163373ffffffffffffffffffffffffffffffffffffffff16036117985760405180606001604052806001151581526020016000846040516116df9190612f8f565b908152602001604051809103902060080180546116fb90612fd5565b80601f016020809104026020016040519081016040528092919081815260200182805461172790612fd5565b80156117745780601f1061174957610100808354040283529160200191611774565b820191906000526020600020905b81548152906001019060200180831161175757829003601f168201915b505050505081526020016040518060200160405280600081525081525090506117e0565b60405180606001604052806000151581526020016040518060200160405280600081525081526020016040518060800160405280604481526020016136bb6044913981525090505b919050565b6117ed6123ee565b600060018054905067ffffffffffffffff81111561180e5761180d6124a2565b5b60405190808252806020026020018201604052801561184757816020015b611834612411565b81526020019060019003908161182c5790505b5090506000808460405161185b9190612f8f565b90815260200160405180910390206040518061012001604052908160008201805461188590612fd5565b80601f01602080910402602001604051908101604052809291908181526020018280546118b190612fd5565b80156118fe5780601f106118d3576101008083540402835291602001916118fe565b820191906000526020600020905b8154815290600101906020018083116118e157829003601f168201915b5050505050815260200160018201805461191790612fd5565b80601f016020809104026020016040519081016040528092919081815260200182805461194390612fd5565b80156119905780601f1061196557610100808354040283529160200191611990565b820191906000526020600020905b81548152906001019060200180831161197357829003601f168201915b50505050508152602001600282015481526020016003820180546119b390612fd5565b80601f01602080910402602001604051908101604052809291908181526020018280546119df90612fd5565b8015611a2c5780601f10611a0157610100808354040283529160200191611a2c565b820191906000526020600020905b815481529060010190602001808311611a0f57829003601f168201915b505050505081526020016004820160009054906101000a900473ffffffffffffffffffffffffffffffffffffffff1673ffffffffffffffffffffffffffffffffffffffff1673ffffffffffffffffffffffffffffffffffffffff168152602001600582018054611a9b90612fd5565b80601f0160208091040260200160405190810160405280929190818152602001828054611ac790612fd5565b8015611b145780601f10611ae957610100808354040283529160200191611b14565b820191906000526020600020905b815481529060010190602001808311611af757829003601f168201915b50505050508152602001600682018054611b2d90612fd5565b80601f0160208091040260200160405190810160405280929190818152602001828054611b5990612fd5565b8015611ba65780601f10611b7b57610100808354040283529160200191611ba6565b820191906000526020600020905b815481529060010190602001808311611b8957829003601f168201915b50505050508152602001600782018054611bbf90612fd5565b80601f0160208091040260200160405190810160405280929190818152602001828054611beb90612fd5565b8015611c385780601f10611c0d57610100808354040283529160200191611c38565b820191906000526020600020905b815481529060010190602001808311611c1b57829003601f168201915b50505050508152602001600882018054611c5190612fd5565b80601f0160208091040260200160405190810160405280929190818152602001828054611c7d90612fd5565b8015611cca5780601f10611c9f57610100808354040283529160200191611cca565b820191906000526020600020905b815481529060010190602001808311611cad57829003601f168201915b505050505081525050905060005b604051602001611ce7906134fa565b604051602081830303815290604052805190602001208260600151604051602001611d129190612f8f565b60405160208183030381529060405280519060200120146121f35781838281518110611d4157611d40613363565b5b60200260200101819052508080611d5790613422565b915050600082606001519050600081604051611d739190612f8f565b908152602001604051809103902060405180610120016040529081600082018054611d9d90612fd5565b80601f0160208091040260200160405190810160405280929190818152602001828054611dc990612fd5565b8015611e165780601f10611deb57610100808354040283529160200191611e16565b820191906000526020600020905b815481529060010190602001808311611df957829003601f168201915b50505050508152602001600182018054611e2f90612fd5565b80601f0160208091040260200160405190810160405280929190818152602001828054611e5b90612fd5565b8015611ea85780601f10611e7d57610100808354040283529160200191611ea8565b820191906000526020600020905b815481529060010190602001808311611e8b57829003601f168201915b5050505050815260200160028201548152602001600382018054611ecb90612fd5565b80601f0160208091040260200160405190810160405280929190818152602001828054611ef790612fd5565b8015611f445780601f10611f1957610100808354040283529160200191611f44565b820191906000526020600020905b815481529060010190602001808311611f2757829003601f168201915b505050505081526020016004820160009054906101000a900473ffffffffffffffffffffffffffffffffffffffff1673ffffffffffffffffffffffffffffffffffffffff1673ffffffffffffffffffffffffffffffffffffffff168152602001600582018054611fb390612fd5565b80601f0160208091040260200160405190810160405280929190818152602001828054611fdf90612fd5565b801561202c5780601f106120015761010080835404028352916020019161202c565b820191906000526020600020905b81548152906001019060200180831161200f57829003601f168201915b5050505050815260200160068201805461204590612fd5565b80601f016020809104026020016040519081016040528092919081815260200182805461207190612fd5565b80156120be5780601f10612093576101008083540402835291602001916120be565b820191906000526020600020905b8154815290600101906020018083116120a157829003601f168201915b505050505081526020016007820180546120d790612fd5565b80601f016020809104026020016040519081016040528092919081815260200182805461210390612fd5565b80156121505780601f1061212557610100808354040283529160200191612150565b820191906000526020600020905b81548152906001019060200180831161213357829003601f168201915b5050505050815260200160088201805461216990612fd5565b80601f016020809104026020016040519081016040528092919081815260200182805461219590612fd5565b80156121e25780601f106121b7576101008083540402835291602001916121e2565b820191906000526020600020905b8154815290600101906020018083116121c557829003601f168201915b505050505081525050925050611cd8565b8183828151811061220757612206613363565b5b6020026020010181905250808061221d90613422565b9150508083526040518060600160405280600115158152602001848152602001604051806020016040528060008152508152509350505050919050565b6000612269826000015161123b565b15801561230e5750600260009054906101000a900473ffffffffffffffffffffffffffffffffffffffff1673ffffffffffffffffffffffffffffffffffffffff16634294a5ad836040518263ffffffff1660e01b81526004016122cc91906135fe565b602060405180830381865afa1580156122e9573d6000803e3d6000fd5b505050506040513d601f19601f8201168201806040525081019061230d919061364c565b5b80156123675750600360009054906101000a900473ffffffffffffffffffffffffffffffffffffffff1673ffffffffffffffffffffffffffffffffffffffff163373ffffffffffffffffffffffffffffffffffffffff16145b15612375576001905061237a565b600090505b919050565b604051806060016040528060001515815260200160608152602001606081525090565b60405180606001604052806000151581526020016123be612411565b8152602001606081525090565b604051806060016040528060001515815260200160608152602001606081525090565b604051806060016040528060001515815260200160608152602001606081525090565b60405180610120016040528060608152602001606081526020016000815260200160608152602001600073ffffffffffffffffffffffffffffffffffffffff168152602001606081526020016060815260200160608152602001606081525090565b6000604051905090565b600080fd5b600080fd5b600080fd5b600080fd5b6000601f19601f8301169050919050565b7f4e487b7100000000000000000000000000000000000000000000000000000000600052604160045260246000fd5b6124da82612491565b810181811067ffffffffffffffff821117156124f9576124f86124a2565b5b80604052505050565b600061250c612473565b905061251882826124d1565b919050565b600067ffffffffffffffff821115612538576125376124a2565b5b61254182612491565b9050602081019050919050565b82818337600083830152505050565b600061257061256b8461251d565b612502565b90508281526020810184848401111561258c5761258b61248c565b5b61259784828561254e565b509392505050565b600082601f8301126125b4576125b3612487565b5b81356125c484826020860161255d565b91505092915050565b6000602082840312156125e3576125e261247d565b5b600082013567ffffffffffffffff81111561260157612600612482565b5b61260d8482850161259f565b91505092915050565b60008115159050919050565b61262b81612616565b82525050565b600081519050919050565b600082825260208201905092915050565b60005b8381101561266b578082015181840152602081019050612650565b60008484015250505050565b600061268282612631565b61268c818561263c565b935061269c81856020860161264d565b6126a581612491565b840191505092915050565b60006060830160008301516126c86000860182612622565b50602083015184820360208601526126e08282612677565b915050604083015184820360408601526126fa8282612677565b9150508091505092915050565b6000602082019050818103600083015261272181846126b0565b905092915050565b600080604083850312156127405761273f61247d565b5b600083013567ffffffffffffffff81111561275e5761275d612482565b5b61276a8582860161259f565b925050602083013567ffffffffffffffff81111561278b5761278a612482565b5b6127978582860161259f565b9150509250929050565b6000819050919050565b6127b4816127a1565b82525050565b600073ffffffffffffffffffffffffffffffffffffffff82169050919050565b60006127e5826127ba565b9050919050565b6127f5816127da565b82525050565b60006101208301600083015184820360008601526128198282612677565b915050602083015184820360208601526128338282612677565b915050604083015161284860408601826127ab565b50606083015184820360608601526128608282612677565b915050608083015161287560808601826127ec565b5060a083015184820360a086015261288d8282612677565b91505060c083015184820360c08601526128a78282612677565b91505060e083015184820360e08601526128c18282612677565b9150506101008301518482036101008601526128dd8282612677565b9150508091505092915050565b60006060830160008301516129026000860182612622565b506020830151848203602086015261291a82826127fb565b915050604083015184820360408601526129348282612677565b9150508091505092915050565b6000602082019050818103600083015261295b81846128ea565b905092915050565b61296c816127da565b811461297757600080fd5b50565b60008135905061298981612963565b92915050565b600080604083850312156129a6576129a561247d565b5b60006129b48582860161297a565b925050602083013567ffffffffffffffff8111156129d5576129d4612482565b5b6129e18582860161259f565b9150509250929050565b6129f481612616565b82525050565b6000602082019050612a0f60008301846129eb565b92915050565b600081519050919050565b600082825260208201905092915050565b6000819050602082019050919050565b6000612a4d8383612677565b905092915050565b6000602082019050919050565b6000612a6d82612a15565b612a778185612a20565b935083602082028501612a8985612a31565b8060005b85811015612ac55784840389528151612aa68582612a41565b9450612ab183612a55565b925060208a01995050600181019050612a8d565b50829750879550505050505092915050565b6000606083016000830151612aef6000860182612622565b5060208301518482036020860152612b078282612a62565b91505060408301518482036040860152612b218282612677565b9150508091505092915050565b60006020820190508181036000830152612b488184612ad7565b905092915050565b600080fd5b600080fd5b612b63816127a1565b8114612b6e57600080fd5b50565b600081359050612b8081612b5a565b92915050565b60006101208284031215612b9d57612b9c612b50565b5b612ba8610120612502565b9050600082013567ffffffffffffffff811115612bc857612bc7612b55565b5b612bd48482850161259f565b600083015250602082013567ffffffffffffffff811115612bf857612bf7612b55565b5b612c048482850161259f565b6020830152506040612c1884828501612b71565b604083015250606082013567ffffffffffffffff811115612c3c57612c3b612b55565b5b612c488482850161259f565b6060830152506080612c5c8482850161297a565b60808301525060a082013567ffffffffffffffff811115612c8057612c7f612b55565b5b612c8c8482850161259f565b60a08301525060c082013567ffffffffffffffff811115612cb057612caf612b55565b5b612cbc8482850161259f565b60c08301525060e082013567ffffffffffffffff811115612ce057612cdf612b55565b5b612cec8482850161259f565b60e08301525061010082013567ffffffffffffffff811115612d1157612d10612b55565b5b612d1d8482850161259f565b6101008301525092915050565b60008060408385031215612d4157612d4061247d565b5b600083013567ffffffffffffffff811115612d5f57612d5e612482565b5b612d6b85828601612b86565b925050602083013567ffffffffffffffff811115612d8c57612d8b612482565b5b612d9885828601612b86565b9150509250929050565b600060208284031215612db857612db761247d565b5b600082013567ffffffffffffffff811115612dd657612dd5612482565b5b612de284828501612b86565b91505092915050565b600060208284031215612e0157612e0061247d565b5b6000612e0f8482850161297a565b91505092915050565b600081519050919050565b600082825260208201905092915050565b6000819050602082019050919050565b6000612e5083836127fb565b905092915050565b6000602082019050919050565b6000612e7082612e18565b612e7a8185612e23565b935083602082028501612e8c85612e34565b8060005b85811015612ec85784840389528151612ea98582612e44565b9450612eb483612e58565b925060208a01995050600181019050612e90565b50829750879550505050505092915050565b6000606083016000830151612ef26000860182612622565b5060208301518482036020860152612f0a8282612e65565b91505060408301518482036040860152612f248282612677565b9150508091505092915050565b60006020820190508181036000830152612f4b8184612eda565b905092915050565b600081905092915050565b6000612f6982612631565b612f738185612f53565b9350612f8381856020860161264d565b80840191505092915050565b6000612f9b8284612f5e565b915081905092915050565b7f4e487b7100000000000000000000000000000000000000000000000000000000600052602260045260246000fd5b60006002820490506001821680612fed57607f821691505b60208210810361300057612fff612fa6565b5b50919050565b60008190508160005260206000209050919050565b6000815461302881612fd5565b6130328186612f53565b9450600182166000811461304d576001811461306257613095565b60ff1983168652811515820286019350613095565b61306b85613006565b60005b8381101561308d5781548189015260018201915060208101905061306e565b838801955050505b50505092915050565b60006130aa828461301b565b915081905092915050565b50565b60006130c5600083612f53565b91506130d0826130b5565b600082019050919050565b60006130e6826130b8565b9150819050919050565b60006020601f8301049050919050565b600082821b905092915050565b60006008830261313d7fffffffffffffffffffffffffffffffffffffffffffffffffffffffffffffffff82613100565b6131478683613100565b95508019841693508086168417925050509392505050565b6000819050919050565b6000819050919050565b600061318e6131896131848461315f565b613169565b61315f565b9050919050565b6000819050919050565b6131a883613173565b6131bc6131b482613195565b84845461310d565b825550505050565b600090565b6131d16131c4565b6131dc81848461319f565b505050565b5b81811015613200576131f56000826131c9565b6001810190506131e2565b5050565b601f8211156132455761321681613006565b61321f846130f0565b8101602085101561322e578190505b61324261323a856130f0565b8301826131e1565b50505b505050565b600082821c905092915050565b60006132686000198460080261324a565b1980831691505092915050565b60006132818383613257565b9150826002028217905092915050565b61329a82612631565b67ffffffffffffffff8111156132b3576132b26124a2565b5b6132bd8254612fd5565b6132c8828285613204565b600060209050601f8311600181146132fb57600084156132e9578287015190505b6132f38582613275565b86555061335b565b601f19841661330986613006565b60005b828110156133315784890151825560018201915060208501945060208101905061330c565b8683101561334e578489015161334a601f891682613257565b8355505b6001600288020188555050505b505050505050565b7f4e487b7100000000000000000000000000000000000000000000000000000000600052603260045260246000fd5b7f6163746976650000000000000000000000000000000000000000000000000000600082015250565b60006133c8600683612f53565b91506133d382613392565b600682019050919050565b60006133e9826133bb565b9150819050919050565b7f4e487b7100000000000000000000000000000000000000000000000000000000600052601160045260246000fd5b600061342d8261315f565b91507fffffffffffffffffffffffffffffffffffffffffffffffffffffffffffffffff820361345f5761345e6133f3565b5b600182019050919050565b6000613475826127a1565b9150613480836127a1565b9250828201905082811215600083121683821260008412151617156134a8576134a76133f3565b5b92915050565b7f3000000000000000000000000000000000000000000000000000000000000000600082015250565b60006134e4600183612f53565b91506134ef826134ae565b600182019050919050565b6000613505826134d7565b9150819050919050565b600061012083016000830151848203600086015261352d8282612677565b915050602083015184820360208601526135478282612677565b915050604083015161355c60408601826127ab565b50606083015184820360608601526135748282612677565b915050608083015161358960808601826127ec565b5060a083015184820360a08601526135a18282612677565b91505060c083015184820360c08601526135bb8282612677565b91505060e083015184820360e08601526135d58282612677565b9150506101008301518482036101008601526135f18282612677565b9150508091505092915050565b60006020820190508181036000830152613618818461350f565b905092915050565b61362981612616565b811461363457600080fd5b50565b60008151905061364681613620565b92915050565b6000602082840312156136625761366161247d565b5b600061367084828501613637565b9150509291505056fe54687265206973206e6f2066696c652c20696e2074686520676976656e2073746174652c2074686174206861732074686520676976656e2049504653204349442e546865207472616e73616374696f6e2065786563757465722063616e206f6e6c792062652074686520416363657373436f6e74726f6c2e736f6c20636f6e74726163742e4f6e6c792074686520416363657373436f6e74726f6c2e736f6c20636f6e74726163742069732061626c6520746f20657865637574652074686973206d6574686f642ea26469706673582212205e75529f936a24b0623ba20f8fc5371e6c7c5c1c08f562a9850d5a1499de23dc64736f6c6343000813003360806040523480156200001157600080fd5b5060405162002031380380620020318339818101604052810190620000379190620000e9565b80600360006101000a81548173ffffffffffffffffffffffffffffffffffffffff021916908373ffffffffffffffffffffffffffffffffffffffff160217905550506200011b565b600080fd5b600073ffffffffffffffffffffffffffffffffffffffff82169050919050565b6000620000b18262000084565b9050919050565b620000c381620000a4565b8114620000cf57600080fd5b50565b600081519050620000e381620000b8565b92915050565b6000602082840312156200010257620001016200007f565b5b60006200011284828501620000d2565b91505092915050565b611f06806200012b6000396000f3fe608060405234801561001057600080fd5b50600436106100885760003560e01c8063a240e4261161005b578063a240e42614610139578063b0c22a5614610169578063eeb9ab1814610199578063f14ab0e0146101c957610088565b806367156cf11461008d5780636f77926b146100bd57806375e9493f146100ed578063857cdbb814610109575b600080fd5b6100a760048036038101906100a29190611219565b6101f9565b6040516100b49190611348565b60405180910390f35b6100d760048036038101906100d29190611219565b6103e0565b6040516100e49190611441565b60405180910390f35b6101076004803603810190610102919061166e565b6107db565b005b610123600480360381019061011e9190611219565b610b0a565b6040516101309190611348565b60405180910390f35b610153600480360381019061014e9190611219565b610cf1565b60405161016091906116c6565b60405180910390f35b610183600480360381019061017e91906116e1565b610d9a565b60405161019091906116c6565b60405180910390f35b6101b360048036038101906101ae91906116e1565b610dcf565b6040516101c0919061177a565b60405180910390f35b6101e360048036038101906101de919061179c565b610eed565b6040516101f091906116c6565b60405180910390f35b6102016110e4565b600073ffffffffffffffffffffffffffffffffffffffff166000808473ffffffffffffffffffffffffffffffffffffffff1673ffffffffffffffffffffffffffffffffffffffff16815260200190815260200160002060000160009054906101000a900473ffffffffffffffffffffffffffffffffffffffff1673ffffffffffffffffffffffffffffffffffffffff16146103935760405180606001604052806001151581526020016000808573ffffffffffffffffffffffffffffffffffffffff1673ffffffffffffffffffffffffffffffffffffffff16815260200190815260200160002060010180546102f690611827565b80601f016020809104026020016040519081016040528092919081815260200182805461032290611827565b801561036f5780601f106103445761010080835404028352916020019161036f565b820191906000526020600020905b81548152906001019060200180831161035257829003601f168201915b505050505081526020016040518060200160405280600081525081525090506103db565b6040518060600160405280600015158152602001604051806020016040528060008152508152602001604051806060016040528060288152602001611e806028913981525090505b919050565b6103e8611107565b3373ffffffffffffffffffffffffffffffffffffffff168273ffffffffffffffffffffffffffffffffffffffff160361073957600073ffffffffffffffffffffffffffffffffffffffff166000808473ffffffffffffffffffffffffffffffffffffffff1673ffffffffffffffffffffffffffffffffffffffff16815260200190815260200160002060000160009054906101000a900473ffffffffffffffffffffffffffffffffffffffff1673ffffffffffffffffffffffffffffffffffffffff16146107385760405180606001604052806001151581526020016000808573ffffffffffffffffffffffffffffffffffffffff1673ffffffffffffffffffffffffffffffffffffffff1681526020019081526020016000206040518060800160405290816000820160009054906101000a900473ffffffffffffffffffffffffffffffffffffffff1673ffffffffffffffffffffffffffffffffffffffff1673ffffffffffffffffffffffffffffffffffffffff16815260200160018201805461057390611827565b80601f016020809104026020016040519081016040528092919081815260200182805461059f90611827565b80156105ec5780601f106105c1576101008083540402835291602001916105ec565b820191906000526020600020905b8154815290600101906020018083116105cf57829003601f168201915b5050505050815260200160028201805461060590611827565b80601f016020809104026020016040519081016040528092919081815260200182805461063190611827565b801561067e5780601f106106535761010080835404028352916020019161067e565b820191906000526020600020905b81548152906001019060200180831161066157829003601f168201915b5050505050815260200160038201805461069790611827565b80601f01602080910402602001604051908101604052809291908181526020018280546106c390611827565b80156107105780601f106106e557610100808354040283529160200191610710565b820191906000526020600020905b8154815290600101906020018083116106f357829003601f168201915b50505050508152505081526020016040518060200160405280600081525081525090506107d6565b5b60405180606001604052806000151581526020016040518060800160405280600073ffffffffffffffffffffffffffffffffffffffff1681526020016040518060200160405280600081525081526020016040518060200160405280600081525081526020016040518060200160405280600081525081525081526020016040518060a0016040528060798152602001611ddf6079913981525090505b919050565b3373ffffffffffffffffffffffffffffffffffffffff16816000015173ffffffffffffffffffffffffffffffffffffffff1603610b075761081b81610fca565b15610b06576040518060800160405280826000015173ffffffffffffffffffffffffffffffffffffffff168152602001600360009054906101000a900473ffffffffffffffffffffffffffffffffffffffff1673ffffffffffffffffffffffffffffffffffffffff16639416b42384602001516040518263ffffffff1660e01b81526004016108aa91906118a2565b600060405180830381865afa1580156108c7573d6000803e3d6000fd5b505050506040513d6000823e3d601f19601f820116820180604052508101906108f09190611934565b8152602001826040015181526020018260600151815250600080836000015173ffffffffffffffffffffffffffffffffffffffff1673ffffffffffffffffffffffffffffffffffffffff16815260200190815260200160002060008201518160000160006101000a81548173ffffffffffffffffffffffffffffffffffffffff021916908373ffffffffffffffffffffffffffffffffffffffff16021790555060208201518160010190816109a59190611b33565b5060408201518160020190816109bb9190611b33565b5060608201518160030190816109d19190611b33565b509050506040518060800160405280826000015173ffffffffffffffffffffffffffffffffffffffff1681526020018260200151815260200182604001518152602001826060015181525060018260200151604051610a309190611c41565b908152602001604051809103902060008201518160000160006101000a81548173ffffffffffffffffffffffffffffffffffffffff021916908373ffffffffffffffffffffffffffffffffffffffff1602179055506020820151816001019081610a9a9190611b33565b506040820151816002019081610ab09190611b33565b506060820151816003019081610ac69190611b33565b50905050600160028260200151604051610ae09190611c41565b908152602001604051809103902060006101000a81548160ff0219169083151502179055505b5b50565b610b126110e4565b600073ffffffffffffffffffffffffffffffffffffffff166000808473ffffffffffffffffffffffffffffffffffffffff1673ffffffffffffffffffffffffffffffffffffffff16815260200190815260200160002060000160009054906101000a900473ffffffffffffffffffffffffffffffffffffffff1673ffffffffffffffffffffffffffffffffffffffff1614610ca45760405180606001604052806001151581526020016000808573ffffffffffffffffffffffffffffffffffffffff1673ffffffffffffffffffffffffffffffffffffffff1681526020019081526020016000206003018054610c0790611827565b80601f0160208091040260200160405190810160405280929190818152602001828054610c3390611827565b8015610c805780601f10610c5557610100808354040283529160200191610c80565b820191906000526020600020905b815481529060010190602001808311610c6357829003601f168201915b50505050508152602001604051806020016040528060008152508152509050610cec565b6040518060600160405280600015158152602001604051806020016040528060008152508152602001604051806060016040528060288152602001611e586028913981525090505b919050565b60008073ffffffffffffffffffffffffffffffffffffffff166000808473ffffffffffffffffffffffffffffffffffffffff1673ffffffffffffffffffffffffffffffffffffffff16815260200190815260200160002060000160009054906101000a900473ffffffffffffffffffffffffffffffffffffffff1673ffffffffffffffffffffffffffffffffffffffff1614610d905760019050610d95565b600090505b919050565b6000600282604051610dac9190611c41565b908152602001604051809103902060009054906101000a900460ff169050919050565b610dd7611130565b6000600183604051610de99190611c41565b90815260200160405180910390206001018054610e0590611827565b90501115610e98576040518060600160405280600115158152602001600184604051610e319190611c41565b908152602001604051809103902060000160009054906101000a900473ffffffffffffffffffffffffffffffffffffffff1673ffffffffffffffffffffffffffffffffffffffff168152602001604051806020016040528060008152508152509050610ee8565b6040518060600160405280600015158152602001600073ffffffffffffffffffffffffffffffffffffffff168152602001604051806060016040528060298152602001611ea86029913981525090505b919050565b60003373ffffffffffffffffffffffffffffffffffffffff168273ffffffffffffffffffffffffffffffffffffffff1603610fbf5782604051602001610f339190611c41565b604051602081830303815290604052805190602001206000808473ffffffffffffffffffffffffffffffffffffffff1673ffffffffffffffffffffffffffffffffffffffff168152602001908152602001600020600201604051602001610f9a9190611cdb565b6040516020818303038152906040528051906020012003610fbe5760019050610fc4565b5b600090505b92915050565b60003373ffffffffffffffffffffffffffffffffffffffff16826000015173ffffffffffffffffffffffffffffffffffffffff16036110da576110108260000151610cf1565b15801561102757506110258260200151610d9a565b155b80156110cb5750600360009054906101000a900473ffffffffffffffffffffffffffffffffffffffff1673ffffffffffffffffffffffffffffffffffffffff1663e779f450836040518263ffffffff1660e01b81526004016110899190611d63565b602060405180830381865afa1580156110a6573d6000803e3d6000fd5b505050506040513d601f19601f820116820180604052508101906110ca9190611db1565b5b156110d957600190506110df565b5b600090505b919050565b604051806060016040528060001515815260200160608152602001606081525090565b6040518060600160405280600015158152602001611123611169565b8152602001606081525090565b6040518060600160405280600015158152602001600073ffffffffffffffffffffffffffffffffffffffff168152602001606081525090565b6040518060800160405280600073ffffffffffffffffffffffffffffffffffffffff1681526020016060815260200160608152602001606081525090565b6000604051905090565b600080fd5b600080fd5b600073ffffffffffffffffffffffffffffffffffffffff82169050919050565b60006111e6826111bb565b9050919050565b6111f6816111db565b811461120157600080fd5b50565b600081359050611213816111ed565b92915050565b60006020828403121561122f5761122e6111b1565b5b600061123d84828501611204565b91505092915050565b60008115159050919050565b61125b81611246565b82525050565b600081519050919050565b600082825260208201905092915050565b60005b8381101561129b578082015181840152602081019050611280565b60008484015250505050565b6000601f19601f8301169050919050565b60006112c382611261565b6112cd818561126c565b93506112dd81856020860161127d565b6112e6816112a7565b840191505092915050565b60006060830160008301516113096000860182611252565b506020830151848203602086015261132182826112b8565b9150506040830151848203604086015261133b82826112b8565b9150508091505092915050565b6000602082019050818103600083015261136281846112f1565b905092915050565b611373816111db565b82525050565b6000608083016000830151611391600086018261136a565b50602083015184820360208601526113a982826112b8565b915050604083015184820360408601526113c382826112b8565b915050606083015184820360608601526113dd82826112b8565b9150508091505092915050565b60006060830160008301516114026000860182611252565b506020830151848203602086015261141a8282611379565b9150506040830151848203604086015261143482826112b8565b9150508091505092915050565b6000602082019050818103600083015261145b81846113ea565b905092915050565b600080fd5b7f4e487b7100000000000000000000000000000000000000000000000000000000600052604160045260246000fd5b6114a0826112a7565b810181811067ffffffffffffffff821117156114bf576114be611468565b5b80604052505050565b60006114d26111a7565b90506114de8282611497565b919050565b600080fd5b600080fd5b600080fd5b600067ffffffffffffffff82111561150d5761150c611468565b5b611516826112a7565b9050602081019050919050565b82818337600083830152505050565b6000611545611540846114f2565b6114c8565b905082815260208101848484011115611561576115606114ed565b5b61156c848285611523565b509392505050565b600082601f830112611589576115886114e8565b5b8135611599848260208601611532565b91505092915050565b6000608082840312156115b8576115b7611463565b5b6115c260806114c8565b905060006115d284828501611204565b600083015250602082013567ffffffffffffffff8111156115f6576115f56114e3565b5b61160284828501611574565b602083015250604082013567ffffffffffffffff811115611626576116256114e3565b5b61163284828501611574565b604083015250606082013567ffffffffffffffff811115611656576116556114e3565b5b61166284828501611574565b60608301525092915050565b600060208284031215611684576116836111b1565b5b600082013567ffffffffffffffff8111156116a2576116a16111b6565b5b6116ae848285016115a2565b91505092915050565b6116c081611246565b82525050565b60006020820190506116db60008301846116b7565b92915050565b6000602082840312156116f7576116f66111b1565b5b600082013567ffffffffffffffff811115611715576117146111b6565b5b61172184828501611574565b91505092915050565b60006060830160008301516117426000860182611252565b506020830151611755602086018261136a565b506040830151848203604086015261176d82826112b8565b9150508091505092915050565b60006020820190508181036000830152611794818461172a565b905092915050565b600080604083850312156117b3576117b26111b1565b5b600083013567ffffffffffffffff8111156117d1576117d06111b6565b5b6117dd85828601611574565b92505060206117ee85828601611204565b9150509250929050565b7f4e487b7100000000000000000000000000000000000000000000000000000000600052602260045260246000fd5b6000600282049050600182168061183f57607f821691505b602082108103611852576118516117f8565b5b50919050565b600082825260208201905092915050565b600061187482611261565b61187e8185611858565b935061188e81856020860161127d565b611897816112a7565b840191505092915050565b600060208201905081810360008301526118bc8184611869565b905092915050565b60006118d76118d2846114f2565b6114c8565b9050828152602081018484840111156118f3576118f26114ed565b5b6118fe84828561127d565b509392505050565b600082601f83011261191b5761191a6114e8565b5b815161192b8482602086016118c4565b91505092915050565b60006020828403121561194a576119496111b1565b5b600082015167ffffffffffffffff811115611968576119676111b6565b5b61197484828501611906565b91505092915050565b60008190508160005260206000209050919050565b60006020601f8301049050919050565b600082821b905092915050565b6000600883026119df7fffffffffffffffffffffffffffffffffffffffffffffffffffffffffffffffff826119a2565b6119e986836119a2565b95508019841693508086168417925050509392505050565b6000819050919050565b6000819050919050565b6000611a30611a2b611a2684611a01565b611a0b565b611a01565b9050919050565b6000819050919050565b611a4a83611a15565b611a5e611a5682611a37565b8484546119af565b825550505050565b600090565b611a73611a66565b611a7e818484611a41565b505050565b5b81811015611aa257611a97600082611a6b565b600181019050611a84565b5050565b601f821115611ae757611ab88161197d565b611ac184611992565b81016020851015611ad0578190505b611ae4611adc85611992565b830182611a83565b50505b505050565b600082821c905092915050565b6000611b0a60001984600802611aec565b1980831691505092915050565b6000611b238383611af9565b9150826002028217905092915050565b611b3c82611261565b67ffffffffffffffff811115611b5557611b54611468565b5b611b5f8254611827565b611b6a828285611aa6565b600060209050601f831160018114611b9d5760008415611b8b578287015190505b611b958582611b17565b865550611bfd565b601f198416611bab8661197d565b60005b82811015611bd357848901518255600182019150602085019450602081019050611bae565b86831015611bf05784890151611bec601f891682611af9565b8355505b6001600288020188555050505b505050505050565b600081905092915050565b6000611c1b82611261565b611c258185611c05565b9350611c3581856020860161127d565b80840191505092915050565b6000611c4d8284611c10565b915081905092915050565b60008154611c6581611827565b611c6f8186611c05565b94506001821660008114611c8a5760018114611c9f57611cd2565b60ff1983168652811515820286019350611cd2565b611ca88561197d565b60005b83811015611cca57815481890152600182019150602081019050611cab565b838801955050505b50505092915050565b6000611ce78284611c58565b915081905092915050565b6000608083016000830151611d0a600086018261136a565b5060208301518482036020860152611d2282826112b8565b91505060408301518482036040860152611d3c82826112b8565b91505060608301518482036060860152611d5682826112b8565b9150508091505092915050565b60006020820190508181036000830152611d7d8184611cf2565b905092915050565b611d8e81611246565b8114611d9957600080fd5b50565b600081519050611dab81611d85565b92915050565b600060208284031215611dc757611dc66111b1565b5b6000611dd584828501611d9c565b9150509291505056fe546865206163636f756e74206f6620746865207472616e73616374696f6e2065786563757465722073686f756c64206265207468652073616d65206f6e652061732074686520757365722077686963682074686520696e666f726d6174696f6e206973206265696e67207265717565737465642066726f6d2e5468657265206973206e6f207573657220776974682074686520666976656e206163636f756e742e5468657265206973206e6f207573657220776974682074686520676976656e206163636f756e742e5468657265206973206e6f207573657220776974682074686520676976656e20757365726e616d652ea26469706673582212206e592f34b0ddda0dca1824d0324df681bb271ad272fe9d6d53eadebd7b3391e564736f6c63430008130033608060405234801561001057600080fd5b5033600160006101000a81548173ffffffffffffffffffffffffffffffffffffffff021916908373ffffffffffffffffffffffffffffffffffffffff16021790555033600260006101000a81548173ffffffffffffffffffffffffffffffffffffffff021916908373ffffffffffffffffffffffffffffffffffffffff16021790555061165c806100a26000396000f3fe608060405234801561001057600080fd5b50600436106100365760003560e01c8063759ab1851461003b578063c47ebddc1461006b575b600080fd5b61005560048036038101906100509190610c25565b610087565b6040516100629190610f12565b60405180910390f35b61008560048036038101906100809190610f60565b610765565b005b61008f610960565b6000808054905067ffffffffffffffff8111156100af576100ae610a0f565b5b6040519080825280602002602001820160405280156100e857816020015b6100d5610983565b8152602001906001900390816100cd5790505b5090506000805b845181101561054457600160009054906101000a900473ffffffffffffffffffffffffffffffffffffffff1673ffffffffffffffffffffffffffffffffffffffff16631ac47dd03387848151811061014a5761014961102f565b5b60200260200101516040518363ffffffff1660e01b815260040161016f9291906110b7565b602060405180830381865afa15801561018c573d6000803e3d6000fd5b505050506040513d601f19601f820116820180604052508101906101b09190611113565b156105315760005b60008054905081101561052f578582815181106101d8576101d761102f565b5b60200260200101516040516020016101f0919061117c565b604051602081830303815290604052805190602001206000828154811061021a5761021961102f565b5b906000526020600020906006020160000160405160200161023b919061128b565b604051602081830303815290604052805190602001200361051c576000818154811061026a5761026961102f565b5b90600052602060002090600602016040518060c0016040529081600082018054610293906111c2565b80601f01602080910402602001604051908101604052809291908181526020018280546102bf906111c2565b801561030c5780601f106102e15761010080835404028352916020019161030c565b820191906000526020600020905b8154815290600101906020018083116102ef57829003601f168201915b505050505081526020016001820160009054906101000a900473ffffffffffffffffffffffffffffffffffffffff1673ffffffffffffffffffffffffffffffffffffffff1673ffffffffffffffffffffffffffffffffffffffff16815260200160028201548152602001600382018054610385906111c2565b80601f01602080910402602001604051908101604052809291908181526020018280546103b1906111c2565b80156103fe5780601f106103d3576101008083540402835291602001916103fe565b820191906000526020600020905b8154815290600101906020018083116103e157829003601f168201915b50505050508152602001600482018054610417906111c2565b80601f0160208091040260200160405190810160405280929190818152602001828054610443906111c2565b80156104905780601f1061046557610100808354040283529160200191610490565b820191906000526020600020905b81548152906001019060200180831161047357829003601f168201915b505050505081526020016005820160009054906101000a900473ffffffffffffffffffffffffffffffffffffffff1673ffffffffffffffffffffffffffffffffffffffff1673ffffffffffffffffffffffffffffffffffffffff16815250508484815181106105025761050161102f565b5b60200260200101819052508280610518906112d1565b9350505b8080610527906112d1565b9150506101b8565b505b808061053c906112d1565b9150506100ef565b50600081146106905760005b60018261055d9190611319565b81101561068e5760005b600182846105759190611319565b61057f9190611319565b81101561067a5783600182610594919061134d565b815181106105a5576105a461102f565b5b6020026020010151604001518482815181106105c4576105c361102f565b5b60200260200101516040015111156106675760008482815181106105eb576105ea61102f565b5b6020026020010151905084600183610603919061134d565b815181106106145761061361102f565b5b602002602001015185838151811061062f5761062e61102f565b5b60200260200101819052508085600184610649919061134d565b8151811061065a5761065961102f565b5b6020026020010181905250505b8080610672906112d1565b915050610567565b508080610686906112d1565b915050610550565b505b808252600081146106d15760405180606001604052806001151581526020018381526020016040518060200160405280600081525081525092505050610760565b6040518060600160405280600015158152602001600067ffffffffffffffff811115610700576106ff610a0f565b5b60405190808252806020026020018201604052801561073957816020015b610726610983565b81526020019060019003908161071e5790505b5081526020016040518060600160405280603c81526020016115eb603c9139815250925050505b919050565b600260009054906101000a900473ffffffffffffffffffffffffffffffffffffffff1673ffffffffffffffffffffffffffffffffffffffff163373ffffffffffffffffffffffffffffffffffffffff161480156107ed57508273ffffffffffffffffffffffffffffffffffffffff168373ffffffffffffffffffffffffffffffffffffffff16145b156109595760006040518060c001604052808681526020018573ffffffffffffffffffffffffffffffffffffffff1681526020014281526020018381526020018481526020018773ffffffffffffffffffffffffffffffffffffffff168152509050600081908060018154018082558091505060019003906000526020600020906006020160009091909190915060008201518160000190816108909190611518565b5060208201518160010160006101000a81548173ffffffffffffffffffffffffffffffffffffffff021916908373ffffffffffffffffffffffffffffffffffffffff1602179055506040820151816002015560608201518160030190816108f79190611518565b50608082015181600401908161090d9190611518565b5060a08201518160050160006101000a81548173ffffffffffffffffffffffffffffffffffffffff021916908373ffffffffffffffffffffffffffffffffffffffff1602179055505050505b5050505050565b604051806060016040528060001515815260200160608152602001606081525090565b6040518060c0016040528060608152602001600073ffffffffffffffffffffffffffffffffffffffff168152602001600081526020016060815260200160608152602001600073ffffffffffffffffffffffffffffffffffffffff1681525090565b6000604051905090565b600080fd5b600080fd5b600080fd5b6000601f19601f8301169050919050565b7f4e487b7100000000000000000000000000000000000000000000000000000000600052604160045260246000fd5b610a47826109fe565b810181811067ffffffffffffffff82111715610a6657610a65610a0f565b5b80604052505050565b6000610a796109e5565b9050610a858282610a3e565b919050565b600067ffffffffffffffff821115610aa557610aa4610a0f565b5b602082029050602081019050919050565b600080fd5b600080fd5b600067ffffffffffffffff821115610adb57610ada610a0f565b5b610ae4826109fe565b9050602081019050919050565b82818337600083830152505050565b6000610b13610b0e84610ac0565b610a6f565b905082815260208101848484011115610b2f57610b2e610abb565b5b610b3a848285610af1565b509392505050565b600082601f830112610b5757610b566109f9565b5b8135610b67848260208601610b00565b91505092915050565b6000610b83610b7e84610a8a565b610a6f565b90508083825260208201905060208402830185811115610ba657610ba5610ab6565b5b835b81811015610bed57803567ffffffffffffffff811115610bcb57610bca6109f9565b5b808601610bd88982610b42565b85526020850194505050602081019050610ba8565b5050509392505050565b600082601f830112610c0c57610c0b6109f9565b5b8135610c1c848260208601610b70565b91505092915050565b600060208284031215610c3b57610c3a6109ef565b5b600082013567ffffffffffffffff811115610c5957610c586109f4565b5b610c6584828501610bf7565b91505092915050565b60008115159050919050565b610c8381610c6e565b82525050565b600081519050919050565b600082825260208201905092915050565b6000819050602082019050919050565b600081519050919050565b600082825260208201905092915050565b60005b83811015610cef578082015181840152602081019050610cd4565b60008484015250505050565b6000610d0682610cb5565b610d108185610cc0565b9350610d20818560208601610cd1565b610d29816109fe565b840191505092915050565b600073ffffffffffffffffffffffffffffffffffffffff82169050919050565b6000610d5f82610d34565b9050919050565b610d6f81610d54565b82525050565b6000819050919050565b610d8881610d75565b82525050565b600060c0830160008301518482036000860152610dab8282610cfb565b9150506020830151610dc06020860182610d66565b506040830151610dd36040860182610d7f565b5060608301518482036060860152610deb8282610cfb565b91505060808301518482036080860152610e058282610cfb565b91505060a0830151610e1a60a0860182610d66565b508091505092915050565b6000610e318383610d8e565b905092915050565b6000602082019050919050565b6000610e5182610c89565b610e5b8185610c94565b935083602082028501610e6d85610ca5565b8060005b85811015610ea95784840389528151610e8a8582610e25565b9450610e9583610e39565b925060208a01995050600181019050610e71565b50829750879550505050505092915050565b6000606083016000830151610ed36000860182610c7a565b5060208301518482036020860152610eeb8282610e46565b91505060408301518482036040860152610f058282610cfb565b9150508091505092915050565b60006020820190508181036000830152610f2c8184610ebb565b905092915050565b610f3d81610d54565b8114610f4857600080fd5b50565b600081359050610f5a81610f34565b92915050565b600080600080600060a08688031215610f7c57610f7b6109ef565b5b6000610f8a88828901610f4b565b955050602086013567ffffffffffffffff811115610fab57610faa6109f4565b5b610fb788828901610b42565b9450506040610fc888828901610f4b565b935050606086013567ffffffffffffffff811115610fe957610fe86109f4565b5b610ff588828901610b42565b925050608086013567ffffffffffffffff811115611016576110156109f4565b5b61102288828901610b42565b9150509295509295909350565b7f4e487b7100000000000000000000000000000000000000000000000000000000600052603260045260246000fd5b61106781610d54565b82525050565b600082825260208201905092915050565b600061108982610cb5565b611093818561106d565b93506110a3818560208601610cd1565b6110ac816109fe565b840191505092915050565b60006040820190506110cc600083018561105e565b81810360208301526110de818461107e565b90509392505050565b6110f081610c6e565b81146110fb57600080fd5b50565b60008151905061110d816110e7565b92915050565b600060208284031215611129576111286109ef565b5b6000611137848285016110fe565b91505092915050565b600081905092915050565b600061115682610cb5565b6111608185611140565b9350611170818560208601610cd1565b80840191505092915050565b6000611188828461114b565b915081905092915050565b7f4e487b7100000000000000000000000000000000000000000000000000000000600052602260045260246000fd5b600060028204905060018216806111da57607f821691505b6020821081036111ed576111ec611193565b5b50919050565b60008190508160005260206000209050919050565b60008154611215816111c2565b61121f8186611140565b9450600182166000811461123a576001811461124f57611282565b60ff1983168652811515820286019350611282565b611258856111f3565b60005b8381101561127a5781548189015260018201915060208101905061125b565b838801955050505b50505092915050565b60006112978284611208565b915081905092915050565b7f4e487b7100000000000000000000000000000000000000000000000000000000600052601160045260246000fd5b60006112dc82610d75565b91507fffffffffffffffffffffffffffffffffffffffffffffffffffffffffffffffff820361130e5761130d6112a2565b5b600182019050919050565b600061132482610d75565b915061132f83610d75565b9250828203905081811115611347576113466112a2565b5b92915050565b600061135882610d75565b915061136383610d75565b925082820190508082111561137b5761137a6112a2565b5b92915050565b60006020601f8301049050919050565b600082821b905092915050565b6000600883026113ce7fffffffffffffffffffffffffffffffffffffffffffffffffffffffffffffffff82611391565b6113d88683611391565b95508019841693508086168417925050509392505050565b6000819050919050565b600061141561141061140b84610d75565b6113f0565b610d75565b9050919050565b6000819050919050565b61142f836113fa565b61144361143b8261141c565b84845461139e565b825550505050565b600090565b61145861144b565b611463818484611426565b505050565b5b818110156114875761147c600082611450565b600181019050611469565b5050565b601f8211156114cc5761149d816111f3565b6114a684611381565b810160208510156114b5578190505b6114c96114c185611381565b830182611468565b50505b505050565b600082821c905092915050565b60006114ef600019846008026114d1565b1980831691505092915050565b600061150883836114de565b9150826002028217905092915050565b61152182610cb5565b67ffffffffffffffff81111561153a57611539610a0f565b5b61154482546111c2565b61154f82828561148b565b600060209050601f8311600181146115825760008415611570578287015190505b61157a85826114fc565b8655506115e2565b601f198416611590866111f3565b60005b828110156115b857848901518255600182019150602085019450602081019050611593565b868310156115d557848901516115d1601f8916826114de565b8355505b6001600288020188555050505b50505050505056fe546865207472616e73616374696f6e2065786563757465722068617320746f206265206173736f6369617465642077697468207468652066696c652ea26469706673582212202b6af99ee7469d13b34ce5750ee85aee809eab7aa443842d3c6d439754aa890764736f6c63430008130033",
  "linkReferences": {},
  "deployedLinkReferences": {}
}