{
  "_format": "hh-sol-artifact-1",
  "contractName": "AccessControl",
  "sourceName": "contracts/AccessControl.sol",
  "abi": [
    {
      "inputs": [
        {
          "internalType": "address",
          "name": "fileRegisterContract",
          "type": "address"
        }
      ],
      "stateMutability": "nonpayable",
      "type": "constructor"
    },
    {
      "inputs": [
        {
          "internalType": "address",
          "name": "userAccount",
          "type": "address"
        },
        {
          "components": [
            {
              "internalType": "string",
              "name": "ipfsCID",
              "type": "string"
            },
            {
              "internalType": "string",
              "name": "fileName",
              "type": "string"
            },
            {
              "internalType": "address",
              "name": "owner",
              "type": "address"
            },
            {
              "internalType": "string",
              "name": "fileType",
              "type": "string"
            },
            {
              "internalType": "string",
              "name": "iv",
              "type": "string"
            }
          ],
          "internalType": "struct FileRegister.File",
          "name": "file",
          "type": "tuple"
        },
        {
          "internalType": "string",
          "name": "encSymmetricKey",
          "type": "string"
        },
        {
          "internalType": "string[]",
          "name": "permissions",
          "type": "string[]"
        }
      ],
      "name": "addUserHasFile",
      "outputs": [],
      "stateMutability": "nonpayable",
      "type": "function"
    },
    {
      "inputs": [
        {
          "components": [
            {
              "internalType": "address",
              "name": "account",
              "type": "address"
            },
            {
              "internalType": "string",
              "name": "userName",
              "type": "string"
            },
            {
              "internalType": "string",
              "name": "publicKey",
              "type": "string"
            },
            {
              "internalType": "string",
              "name": "privateKey",
              "type": "string"
            }
          ],
          "internalType": "struct UserRegister.User",
          "name": "user",
          "type": "tuple"
        },
        {
          "components": [
            {
              "internalType": "string",
              "name": "ipfsCID",
              "type": "string"
            },
            {
              "internalType": "string",
              "name": "fileName",
              "type": "string"
            },
            {
              "internalType": "address",
              "name": "owner",
              "type": "address"
            },
            {
              "internalType": "string",
              "name": "fileType",
              "type": "string"
            },
            {
              "internalType": "string",
              "name": "iv",
              "type": "string"
            }
          ],
          "internalType": "struct FileRegister.File",
          "name": "file",
          "type": "tuple"
        }
      ],
      "name": "getEncSymmetricKeyFileUser",
      "outputs": [
        {
          "components": [
            {
              "internalType": "bool",
              "name": "success",
              "type": "bool"
            },
            {
              "internalType": "string",
              "name": "encSymmetricKey",
              "type": "string"
            }
          ],
          "internalType": "struct AccessControl.ResultActionString",
          "name": "",
          "type": "tuple"
        }
      ],
      "stateMutability": "view",
      "type": "function"
    },
    {
      "inputs": [
        {
          "internalType": "address",
          "name": "userAccount",
          "type": "address"
        },
        {
          "components": [
            {
              "internalType": "string",
              "name": "ipfsCID",
              "type": "string"
            },
            {
              "internalType": "string",
              "name": "fileName",
              "type": "string"
            },
            {
              "internalType": "address",
              "name": "owner",
              "type": "address"
            },
            {
              "internalType": "string",
              "name": "fileType",
              "type": "string"
            },
            {
              "internalType": "string",
              "name": "iv",
              "type": "string"
            }
          ],
          "internalType": "struct FileRegister.File",
          "name": "file",
          "type": "tuple"
        }
      ],
      "name": "getPermissionsOverFile",
      "outputs": [
        {
          "components": [
            {
              "internalType": "bool",
              "name": "success",
              "type": "bool"
            },
            {
              "internalType": "string[]",
              "name": "permissions",
              "type": "string[]"
            }
          ],
          "internalType": "struct AccessControl.ResultActionStringArray",
          "name": "",
          "type": "tuple"
        }
      ],
      "stateMutability": "view",
      "type": "function"
    },
    {
      "inputs": [
        {
          "internalType": "address",
          "name": "account",
          "type": "address"
        }
      ],
      "name": "getUserFiles",
      "outputs": [
        {
          "components": [
            {
              "internalType": "bool",
              "name": "success",
              "type": "bool"
            },
            {
              "components": [
                {
                  "internalType": "string",
                  "name": "ipfsCID",
                  "type": "string"
                },
                {
                  "internalType": "string",
                  "name": "fileName",
                  "type": "string"
                },
                {
                  "internalType": "address",
                  "name": "owner",
                  "type": "address"
                },
                {
                  "internalType": "string",
                  "name": "fileType",
                  "type": "string"
                },
                {
                  "internalType": "string",
                  "name": "iv",
                  "type": "string"
                }
              ],
              "internalType": "struct FileRegister.File[]",
              "name": "files",
              "type": "tuple[]"
            }
          ],
          "internalType": "struct AccessControl.ResultAction",
          "name": "",
          "type": "tuple"
        }
      ],
      "stateMutability": "view",
      "type": "function"
    },
    {
      "inputs": [
        {
          "internalType": "address",
          "name": "accountInput",
          "type": "address"
        },
        {
          "internalType": "address",
          "name": "accountList",
          "type": "address"
        },
        {
          "internalType": "string",
          "name": "ipfsCIDInput",
          "type": "string"
        },
        {
          "internalType": "string",
          "name": "ipfsCIDList",
          "type": "string"
        }
      ],
      "name": "isKeyEqual",
      "outputs": [
        {
          "internalType": "bool",
          "name": "",
          "type": "bool"
        }
      ],
      "stateMutability": "pure",
      "type": "function"
    },
    {
      "inputs": [
        {
          "internalType": "address",
          "name": "userAccount",
          "type": "address"
        },
        {
          "components": [
            {
              "internalType": "string",
              "name": "ipfsCID",
              "type": "string"
            },
            {
              "internalType": "string",
              "name": "fileName",
              "type": "string"
            },
            {
              "internalType": "address",
              "name": "owner",
              "type": "address"
            },
            {
              "internalType": "string",
              "name": "fileType",
              "type": "string"
            },
            {
              "internalType": "string",
              "name": "iv",
              "type": "string"
            }
          ],
          "internalType": "struct FileRegister.File",
          "name": "file",
          "type": "tuple"
        },
        {
          "internalType": "string",
          "name": "encSymmetricKey",
          "type": "string"
        },
        {
          "internalType": "string[]",
          "name": "permissions",
          "type": "string[]"
        }
      ],
      "name": "shareFile",
      "outputs": [],
      "stateMutability": "nonpayable",
      "type": "function"
    },
    {
      "inputs": [
        {
          "internalType": "address",
          "name": "userAccount",
          "type": "address"
        },
        {
          "components": [
            {
              "internalType": "string",
              "name": "ipfsCID",
              "type": "string"
            },
            {
              "internalType": "string",
              "name": "fileName",
              "type": "string"
            },
            {
              "internalType": "address",
              "name": "owner",
              "type": "address"
            },
            {
              "internalType": "string",
              "name": "fileType",
              "type": "string"
            },
            {
              "internalType": "string",
              "name": "iv",
              "type": "string"
            }
          ],
          "internalType": "struct FileRegister.File",
          "name": "file",
          "type": "tuple"
        },
        {
          "internalType": "string[]",
          "name": "permissions",
          "type": "string[]"
        }
      ],
      "name": "updateUserFilePermissions",
      "outputs": [],
      "stateMutability": "nonpayable",
      "type": "function"
    },
    {
      "inputs": [
        {
          "internalType": "address",
          "name": "userAccount",
          "type": "address"
        },
        {
          "components": [
            {
              "internalType": "string",
              "name": "ipfsCID",
              "type": "string"
            },
            {
              "internalType": "string",
              "name": "fileName",
              "type": "string"
            },
            {
              "internalType": "address",
              "name": "owner",
              "type": "address"
            },
            {
              "internalType": "string",
              "name": "fileType",
              "type": "string"
            },
            {
              "internalType": "string",
              "name": "iv",
              "type": "string"
            }
          ],
          "internalType": "struct FileRegister.File",
          "name": "file",
          "type": "tuple"
        },
        {
          "internalType": "string",
          "name": "encSymmetricKey",
          "type": "string"
        }
      ],
      "name": "uploadFile",
      "outputs": [],
      "stateMutability": "nonpayable",
      "type": "function"
    },
    {
      "inputs": [
        {
          "internalType": "address",
          "name": "userAccount",
          "type": "address"
        },
        {
          "components": [
            {
              "internalType": "string",
              "name": "ipfsCID",
              "type": "string"
            },
            {
              "internalType": "string",
              "name": "fileName",
              "type": "string"
            },
            {
              "internalType": "address",
              "name": "owner",
              "type": "address"
            },
            {
              "internalType": "string",
              "name": "fileType",
              "type": "string"
            },
            {
              "internalType": "string",
              "name": "iv",
              "type": "string"
            }
          ],
          "internalType": "struct FileRegister.File",
          "name": "file",
          "type": "tuple"
        }
      ],
      "name": "userAssociatedWithFile",
      "outputs": [
        {
          "internalType": "bool",
          "name": "",
          "type": "bool"
        }
      ],
      "stateMutability": "view",
      "type": "function"
    }
  ],
  "bytecode": "0x60806040523480156200001157600080fd5b5060405162002658380380620026588339818101604052810190620000379190620000e9565b80600160006101000a81548173ffffffffffffffffffffffffffffffffffffffff021916908373ffffffffffffffffffffffffffffffffffffffff160217905550506200011b565b600080fd5b600073ffffffffffffffffffffffffffffffffffffffff82169050919050565b6000620000b18262000084565b9050919050565b620000c381620000a4565b8114620000cf57600080fd5b50565b600081519050620000e381620000b8565b92915050565b6000602082840312156200010257620001016200007f565b5b60006200011284828501620000d2565b91505092915050565b61252d806200012b6000396000f3fe608060405234801561001057600080fd5b50600436106100935760003560e01c80635d02eece116100665780635d02eece146101445780637b371f7514610174578063a2a0307d146101a4578063b509210c146101c0578063e886e6e3146101dc57610093565b80631c0c2891146100985780631fc37922146100c857806325b97d6c146100f85780635c99c71b14610114575b600080fd5b6100b260048036038101906100ad9190611479565b6101f8565b6040516100bf919061166e565b60405180910390f35b6100e260048036038101906100dd9190611690565b6104ae565b6040516100ef9190611856565b60405180910390f35b610112600480360381019061010d9190611878565b61078d565b005b61012e60048036038101906101299190611903565b61099a565b60405161013b91906119b1565b60405180910390f35b61015e60048036038101906101599190611a98565b610a2c565b60405161016b9190611b4d565b60405180910390f35b61018e60048036038101906101899190611479565b610c60565b60405161019b91906119b1565b60405180910390f35b6101be60048036038101906101b99190611c55565b610da5565b005b6101da60048036038101906101d59190611d10565b610dd3565b005b6101f660048036038101906101f19190611c55565b610f44565b005b610200611048565b60005b60008054905081101561043e57610312846000838154811061022857610227611d9b565b5b906000526020600020906004020160000160009054906101000a900473ffffffffffffffffffffffffffffffffffffffff1685600001516000858154811061027357610272611d9b565b5b9060005260206000209060040201600101805461028f90611df9565b80601f01602080910402602001604051908101604052809291908181526020018280546102bb90611df9565b80156103085780601f106102dd57610100808354040283529160200191610308565b820191906000526020600020905b8154815290600101906020018083116102eb57829003601f168201915b505050505061099a565b1561042b5760405180604001604052806001151581526020016000838154811061033f5761033e611d9b565b5b9060005260206000209060040201600301805480602002602001604051908101604052809291908181526020016000905b8282101561041c57838290600052602060002001805461038f90611df9565b80601f01602080910402602001604051908101604052809291908181526020018280546103bb90611df9565b80156104085780601f106103dd57610100808354040283529160200191610408565b820191906000526020600020905b8154815290600101906020018083116103eb57829003601f168201915b505050505081526020019060010190610370565b505050508152509150506104a8565b808061043690611e63565b915050610203565b506040518060400160405280600015158152602001600067ffffffffffffffff81111561046e5761046d611243565b5b6040519080825280602002602001820160405280156104a157816020015b606081526020019060019003908161048c5790505b5081525090505b92915050565b6104b6611064565b6000808054905067ffffffffffffffff8111156104d6576104d5611243565b5b60405190808252806020026020018201604052801561050f57816020015b6104fc611080565b8152602001906001900390816104f45790505b5090506000805b60008054905081101561073e578473ffffffffffffffffffffffffffffffffffffffff166000828154811061054e5761054d611d9b565b5b906000526020600020906004020160000160009054906101000a900473ffffffffffffffffffffffffffffffffffffffff1673ffffffffffffffffffffffffffffffffffffffff160361072b5760008082815481106105b0576105af611d9b565b5b906000526020600020906004020160010180546105cc90611df9565b80601f01602080910402602001604051908101604052809291908181526020018280546105f890611df9565b80156106455780601f1061061a57610100808354040283529160200191610645565b820191906000526020600020905b81548152906001019060200180831161062857829003601f168201915b505050505090506000600160009054906101000a900473ffffffffffffffffffffffffffffffffffffffff1673ffffffffffffffffffffffffffffffffffffffff16639f5937f8836040518263ffffffff1660e01b81526004016106a99190611ef5565b600060405180830381865afa1580156106c6573d6000803e3d6000fd5b505050506040513d6000823e3d601f19601f820116820180604052508101906106ef9190612130565b90506000816020015190508086868151811061070e5761070d611d9b565b5b6020026020010181905250848061072490611e63565b9550505050505b808061073690611e63565b915050610516565b508082526000811461076b5760405180604001604052806001151581526020018381525092505050610788565b604051806040016040528060001515815260200183815250925050505b919050565b60006107998484610c60565b905080156107a75750610995565b6000600367ffffffffffffffff8111156107c4576107c3611243565b5b6040519080825280602002602001820160405280156107f757816020015b60608152602001906001900390816107e25790505b5090506040518060400160405280600881526020017f646f776e6c6f61640000000000000000000000000000000000000000000000008152508160008151811061084457610843611d9b565b5b60200260200101819052506040518060400160405280600681526020017f64656c65746500000000000000000000000000000000000000000000000000008152508160018151811061089957610898611d9b565b5b60200260200101819052506040518060400160405280600581526020017f7368617265000000000000000000000000000000000000000000000000000000815250816002815181106108ee576108ed611d9b565b5b602002602001018190525061090585858584610f44565b600160009054906101000a900473ffffffffffffffffffffffffffffffffffffffff1673ffffffffffffffffffffffffffffffffffffffff16639aa7f418856040518263ffffffff1660e01b81526004016109609190612204565b600060405180830381600087803b15801561097a57600080fd5b505af115801561098e573d6000803e3d6000fd5b5050505050505b505050565b60008473ffffffffffffffffffffffffffffffffffffffff168473ffffffffffffffffffffffffffffffffffffffff16148015610a225750826040516020016109e39190612262565b6040516020818303038152906040528051906020012082604051602001610a0a9190612262565b60405160208183030381529060405280519060200120145b9050949350505050565b610a346110c5565b60005b600080549050811015610c2f57610b4a846000015160008381548110610a6057610a5f611d9b565b5b906000526020600020906004020160000160009054906101000a900473ffffffffffffffffffffffffffffffffffffffff16856000015160008581548110610aab57610aaa611d9b565b5b90600052602060002090600402016001018054610ac790611df9565b80601f0160208091040260200160405190810160405280929190818152602001828054610af390611df9565b8015610b405780601f10610b1557610100808354040283529160200191610b40565b820191906000526020600020905b815481529060010190602001808311610b2357829003601f168201915b505050505061099a565b15610c1c57604051806040016040528060011515815260200160008381548110610b7757610b76611d9b565b5b90600052602060002090600402016002018054610b9390611df9565b80601f0160208091040260200160405190810160405280929190818152602001828054610bbf90611df9565b8015610c0c5780601f10610be157610100808354040283529160200191610c0c565b820191906000526020600020905b815481529060010190602001808311610bef57829003601f168201915b5050505050815250915050610c5a565b8080610c2790611e63565b915050610a37565b5060405180604001604052806000151581526020016040518060200160405280600081525081525090505b92915050565b600080600090505b600080549050811015610d9957610d778460008381548110610c8d57610c8c611d9b565b5b906000526020600020906004020160000160009054906101000a900473ffffffffffffffffffffffffffffffffffffffff16856000015160008581548110610cd857610cd7611d9b565b5b90600052602060002090600402016001018054610cf490611df9565b80601f0160208091040260200160405190810160405280929190818152602001828054610d2090611df9565b8015610d6d5780601f10610d4257610100808354040283529160200191610d6d565b820191906000526020600020905b815481529060010190602001808311610d5057829003601f168201915b505050505061099a565b15610d86576001915050610d9f565b8080610d9190611e63565b915050610c68565b50600090505b92915050565b6000610db18585610c60565b90508015610dbf5750610dcd565b610dcb85858585610f44565b505b50505050565b60005b600080549050811015610f3d57610ee58460008381548110610dfb57610dfa611d9b565b5b906000526020600020906004020160000160009054906101000a900473ffffffffffffffffffffffffffffffffffffffff16856000015160008581548110610e4657610e45611d9b565b5b90600052602060002090600402016001018054610e6290611df9565b80601f0160208091040260200160405190810160405280929190818152602001828054610e8e90611df9565b8015610edb5780601f10610eb057610100808354040283529160200191610edb565b820191906000526020600020905b815481529060010190602001808311610ebe57829003601f168201915b505050505061099a565b15610f2a578160008281548110610eff57610efe611d9b565b5b90600052602060002090600402016003019080519060200190610f239291906110e1565b5050610f3f565b8080610f3590611e63565b915050610dd6565b505b505050565b600060405180608001604052808673ffffffffffffffffffffffffffffffffffffffff16815260200185600001518152602001848152602001838152509050600081908060018154018082558091505060019003906000526020600020906004020160009091909190915060008201518160000160006101000a81548173ffffffffffffffffffffffffffffffffffffffff021916908373ffffffffffffffffffffffffffffffffffffffff160217905550602082015181600101908161100b9190612425565b5060408201518160020190816110219190612425565b50606082015181600301908051906020019061103e9291906110e1565b5050505050505050565b6040518060400160405280600015158152602001606081525090565b6040518060400160405280600015158152602001606081525090565b6040518060a001604052806060815260200160608152602001600073ffffffffffffffffffffffffffffffffffffffff16815260200160608152602001606081525090565b6040518060400160405280600015158152602001606081525090565b828054828255906000526020600020908101928215611129579160200282015b828111156111285782518290816111189190612425565b5091602001919060010190611101565b5b509050611136919061113a565b5090565b5b8082111561115a5760008181611151919061115e565b5060010161113b565b5090565b50805461116a90611df9565b6000825580601f1061117c575061119b565b601f01602090049060005260206000209081019061119a919061119e565b5b50565b5b808211156111b757600081600090555060010161119f565b5090565b6000604051905090565b600080fd5b600080fd5b600073ffffffffffffffffffffffffffffffffffffffff82169050919050565b60006111fa826111cf565b9050919050565b61120a816111ef565b811461121557600080fd5b50565b60008135905061122781611201565b92915050565b600080fd5b6000601f19601f8301169050919050565b7f4e487b7100000000000000000000000000000000000000000000000000000000600052604160045260246000fd5b61127b82611232565b810181811067ffffffffffffffff8211171561129a57611299611243565b5b80604052505050565b60006112ad6111bb565b90506112b98282611272565b919050565b600080fd5b600080fd5b600080fd5b600067ffffffffffffffff8211156112e8576112e7611243565b5b6112f182611232565b9050602081019050919050565b82818337600083830152505050565b600061132061131b846112cd565b6112a3565b90508281526020810184848401111561133c5761133b6112c8565b5b6113478482856112fe565b509392505050565b600082601f830112611364576113636112c3565b5b813561137484826020860161130d565b91505092915050565b600060a082840312156113935761139261122d565b5b61139d60a06112a3565b9050600082013567ffffffffffffffff8111156113bd576113bc6112be565b5b6113c98482850161134f565b600083015250602082013567ffffffffffffffff8111156113ed576113ec6112be565b5b6113f98482850161134f565b602083015250604061140d84828501611218565b604083015250606082013567ffffffffffffffff811115611431576114306112be565b5b61143d8482850161134f565b606083015250608082013567ffffffffffffffff811115611461576114606112be565b5b61146d8482850161134f565b60808301525092915050565b600080604083850312156114905761148f6111c5565b5b600061149e85828601611218565b925050602083013567ffffffffffffffff8111156114bf576114be6111ca565b5b6114cb8582860161137d565b9150509250929050565b60008115159050919050565b6114ea816114d5565b82525050565b600081519050919050565b600082825260208201905092915050565b6000819050602082019050919050565b600081519050919050565b600082825260208201905092915050565b60005b8381101561155657808201518184015260208101905061153b565b60008484015250505050565b600061156d8261151c565b6115778185611527565b9350611587818560208601611538565b61159081611232565b840191505092915050565b60006115a78383611562565b905092915050565b6000602082019050919050565b60006115c7826114f0565b6115d181856114fb565b9350836020820285016115e38561150c565b8060005b8581101561161f5784840389528151611600858261159b565b945061160b836115af565b925060208a019950506001810190506115e7565b50829750879550505050505092915050565b600060408301600083015161164960008601826114e1565b506020830151848203602086015261166182826115bc565b9150508091505092915050565b600060208201905081810360008301526116888184611631565b905092915050565b6000602082840312156116a6576116a56111c5565b5b60006116b484828501611218565b91505092915050565b600081519050919050565b600082825260208201905092915050565b6000819050602082019050919050565b6116f2816111ef565b82525050565b600060a08301600083015184820360008601526117158282611562565b9150506020830151848203602086015261172f8282611562565b915050604083015161174460408601826116e9565b506060830151848203606086015261175c8282611562565b915050608083015184820360808601526117768282611562565b9150508091505092915050565b600061178f83836116f8565b905092915050565b6000602082019050919050565b60006117af826116bd565b6117b981856116c8565b9350836020820285016117cb856116d9565b8060005b8581101561180757848403895281516117e88582611783565b94506117f383611797565b925060208a019950506001810190506117cf565b50829750879550505050505092915050565b600060408301600083015161183160008601826114e1565b506020830151848203602086015261184982826117a4565b9150508091505092915050565b600060208201905081810360008301526118708184611819565b905092915050565b600080600060608486031215611891576118906111c5565b5b600061189f86828701611218565b935050602084013567ffffffffffffffff8111156118c0576118bf6111ca565b5b6118cc8682870161137d565b925050604084013567ffffffffffffffff8111156118ed576118ec6111ca565b5b6118f98682870161134f565b9150509250925092565b6000806000806080858703121561191d5761191c6111c5565b5b600061192b87828801611218565b945050602061193c87828801611218565b935050604085013567ffffffffffffffff81111561195d5761195c6111ca565b5b6119698782880161134f565b925050606085013567ffffffffffffffff81111561198a576119896111ca565b5b6119968782880161134f565b91505092959194509250565b6119ab816114d5565b82525050565b60006020820190506119c660008301846119a2565b92915050565b6000608082840312156119e2576119e161122d565b5b6119ec60806112a3565b905060006119fc84828501611218565b600083015250602082013567ffffffffffffffff811115611a2057611a1f6112be565b5b611a2c8482850161134f565b602083015250604082013567ffffffffffffffff811115611a5057611a4f6112be565b5b611a5c8482850161134f565b604083015250606082013567ffffffffffffffff811115611a8057611a7f6112be565b5b611a8c8482850161134f565b60608301525092915050565b60008060408385031215611aaf57611aae6111c5565b5b600083013567ffffffffffffffff811115611acd57611acc6111ca565b5b611ad9858286016119cc565b925050602083013567ffffffffffffffff811115611afa57611af96111ca565b5b611b068582860161137d565b9150509250929050565b6000604083016000830151611b2860008601826114e1565b5060208301518482036020860152611b408282611562565b9150508091505092915050565b60006020820190508181036000830152611b678184611b10565b905092915050565b600067ffffffffffffffff821115611b8a57611b89611243565b5b602082029050602081019050919050565b600080fd5b6000611bb3611bae84611b6f565b6112a3565b90508083825260208201905060208402830185811115611bd657611bd5611b9b565b5b835b81811015611c1d57803567ffffffffffffffff811115611bfb57611bfa6112c3565b5b808601611c08898261134f565b85526020850194505050602081019050611bd8565b5050509392505050565b600082601f830112611c3c57611c3b6112c3565b5b8135611c4c848260208601611ba0565b91505092915050565b60008060008060808587031215611c6f57611c6e6111c5565b5b6000611c7d87828801611218565b945050602085013567ffffffffffffffff811115611c9e57611c9d6111ca565b5b611caa8782880161137d565b935050604085013567ffffffffffffffff811115611ccb57611cca6111ca565b5b611cd78782880161134f565b925050606085013567ffffffffffffffff811115611cf857611cf76111ca565b5b611d0487828801611c27565b91505092959194509250565b600080600060608486031215611d2957611d286111c5565b5b6000611d3786828701611218565b935050602084013567ffffffffffffffff811115611d5857611d576111ca565b5b611d648682870161137d565b925050604084013567ffffffffffffffff811115611d8557611d846111ca565b5b611d9186828701611c27565b9150509250925092565b7f4e487b7100000000000000000000000000000000000000000000000000000000600052603260045260246000fd5b7f4e487b7100000000000000000000000000000000000000000000000000000000600052602260045260246000fd5b60006002820490506001821680611e1157607f821691505b602082108103611e2457611e23611dca565b5b50919050565b7f4e487b7100000000000000000000000000000000000000000000000000000000600052601160045260246000fd5b6000819050919050565b6000611e6e82611e59565b91507fffffffffffffffffffffffffffffffffffffffffffffffffffffffffffffffff8203611ea057611e9f611e2a565b5b600182019050919050565b600082825260208201905092915050565b6000611ec78261151c565b611ed18185611eab565b9350611ee1818560208601611538565b611eea81611232565b840191505092915050565b60006020820190508181036000830152611f0f8184611ebc565b905092915050565b611f20816114d5565b8114611f2b57600080fd5b50565b600081519050611f3d81611f17565b92915050565b6000611f56611f51846112cd565b6112a3565b905082815260208101848484011115611f7257611f716112c8565b5b611f7d848285611538565b509392505050565b600082601f830112611f9a57611f996112c3565b5b8151611faa848260208601611f43565b91505092915050565b600081519050611fc281611201565b92915050565b600060a08284031215611fde57611fdd61122d565b5b611fe860a06112a3565b9050600082015167ffffffffffffffff811115612008576120076112be565b5b61201484828501611f85565b600083015250602082015167ffffffffffffffff811115612038576120376112be565b5b61204484828501611f85565b602083015250604061205884828501611fb3565b604083015250606082015167ffffffffffffffff81111561207c5761207b6112be565b5b61208884828501611f85565b606083015250608082015167ffffffffffffffff8111156120ac576120ab6112be565b5b6120b884828501611f85565b60808301525092915050565b6000604082840312156120da576120d961122d565b5b6120e460406112a3565b905060006120f484828501611f2e565b600083015250602082015167ffffffffffffffff811115612118576121176112be565b5b61212484828501611fc8565b60208301525092915050565b600060208284031215612146576121456111c5565b5b600082015167ffffffffffffffff811115612164576121636111ca565b5b612170848285016120c4565b91505092915050565b600060a08301600083015184820360008601526121968282611562565b915050602083015184820360208601526121b08282611562565b91505060408301516121c560408601826116e9565b50606083015184820360608601526121dd8282611562565b915050608083015184820360808601526121f78282611562565b9150508091505092915050565b6000602082019050818103600083015261221e8184612179565b905092915050565b600081905092915050565b600061223c8261151c565b6122468185612226565b9350612256818560208601611538565b80840191505092915050565b600061226e8284612231565b915081905092915050565b60008190508160005260206000209050919050565b60006020601f8301049050919050565b600082821b905092915050565b6000600883026122db7fffffffffffffffffffffffffffffffffffffffffffffffffffffffffffffffff8261229e565b6122e5868361229e565b95508019841693508086168417925050509392505050565b6000819050919050565b600061232261231d61231884611e59565b6122fd565b611e59565b9050919050565b6000819050919050565b61233c83612307565b61235061234882612329565b8484546122ab565b825550505050565b600090565b612365612358565b612370818484612333565b505050565b5b818110156123945761238960008261235d565b600181019050612376565b5050565b601f8211156123d9576123aa81612279565b6123b38461228e565b810160208510156123c2578190505b6123d66123ce8561228e565b830182612375565b50505b505050565b600082821c905092915050565b60006123fc600019846008026123de565b1980831691505092915050565b600061241583836123eb565b9150826002028217905092915050565b61242e8261151c565b67ffffffffffffffff81111561244757612446611243565b5b6124518254611df9565b61245c828285612398565b600060209050601f83116001811461248f576000841561247d578287015190505b6124878582612409565b8655506124ef565b601f19841661249d86612279565b60005b828110156124c5578489015182556001820191506020850194506020810190506124a0565b868310156124e257848901516124de601f8916826123eb565b8355505b6001600288020188555050505b50505050505056fea26469706673582212207ebc4bfc79aed9b1f80c6b914e830f2466ca82610df3d26b16a0fbc219e168f064736f6c63430008130033",
  "linkReferences": {},
  "deployedLinkReferences": {}
}