{
  "_format": "hh-sol-artifact-1",
  "contractName": "AccessControl",
  "sourceName": "contracts/AccessControl.sol",
  "abi": [
    {
      "inputs": [
        {
          "internalType": "address",
          "name": "fileRegisterContract",
          "type": "address"
        },
        {
          "internalType": "address",
          "name": "userRegisterContract",
          "type": "address"
        }
      ],
      "stateMutability": "nonpayable",
      "type": "constructor"
    },
    {
      "inputs": [
        {
          "internalType": "address",
          "name": "userAccount",
          "type": "address"
        },
        {
          "internalType": "string",
          "name": "fileIpfsCID",
          "type": "string"
        }
      ],
      "name": "elegibleToShare",
      "outputs": [
        {
          "internalType": "bool",
          "name": "",
          "type": "bool"
        }
      ],
      "stateMutability": "view",
      "type": "function"
    },
    {
      "inputs": [
        {
          "internalType": "address",
          "name": "userAccount",
          "type": "address"
        },
        {
          "internalType": "string",
          "name": "fileIpfsCID",
          "type": "string"
        }
      ],
      "name": "elegibleToUpdPermissions",
      "outputs": [
        {
          "internalType": "bool",
          "name": "",
          "type": "bool"
        }
      ],
      "stateMutability": "view",
      "type": "function"
    },
    {
      "inputs": [
        {
          "internalType": "address",
          "name": "userAccount",
          "type": "address"
        },
        {
          "internalType": "string",
          "name": "fileIpfsCID",
          "type": "string"
        }
      ],
      "name": "elegibleToUpload",
      "outputs": [
        {
          "internalType": "bool",
          "name": "",
          "type": "bool"
        }
      ],
      "stateMutability": "view",
      "type": "function"
    },
    {
      "inputs": [
        {
          "internalType": "address",
          "name": "accountUser",
          "type": "address"
        },
        {
          "internalType": "string",
          "name": "fileIpfsCID",
          "type": "string"
        }
      ],
      "name": "getEncSymmetricKeyFileUser",
      "outputs": [
        {
          "components": [
            {
              "internalType": "bool",
              "name": "success",
              "type": "bool"
            },
            {
              "internalType": "string",
              "name": "encSymmetricKey",
              "type": "string"
            }
          ],
          "internalType": "struct AccessControl.ResultActionString",
          "name": "",
          "type": "tuple"
        }
      ],
      "stateMutability": "view",
      "type": "function"
    },
    {
      "inputs": [
        {
          "internalType": "address",
          "name": "userAccount",
          "type": "address"
        },
        {
          "internalType": "string",
          "name": "fileIpfsCID",
          "type": "string"
        }
      ],
      "name": "getPermissionsOverFile",
      "outputs": [
        {
          "components": [
            {
              "internalType": "bool",
              "name": "success",
              "type": "bool"
            },
            {
              "internalType": "string[]",
              "name": "permissions",
              "type": "string[]"
            }
          ],
          "internalType": "struct AccessControl.ResultActionStringArray",
          "name": "",
          "type": "tuple"
        }
      ],
      "stateMutability": "view",
      "type": "function"
    },
    {
      "inputs": [
        {
          "internalType": "address",
          "name": "account",
          "type": "address"
        }
      ],
      "name": "getUserFiles",
      "outputs": [
        {
          "components": [
            {
              "internalType": "bool",
              "name": "success",
              "type": "bool"
            },
            {
              "components": [
                {
                  "internalType": "string",
                  "name": "ipfsCID",
                  "type": "string"
                },
                {
                  "internalType": "string",
                  "name": "fileName",
                  "type": "string"
                },
                {
                  "internalType": "address",
                  "name": "owner",
                  "type": "address"
                },
                {
                  "internalType": "string",
                  "name": "fileType",
                  "type": "string"
                },
                {
                  "internalType": "string",
                  "name": "iv",
                  "type": "string"
                }
              ],
              "internalType": "struct FileRegister.File[]",
              "name": "files",
              "type": "tuple[]"
            }
          ],
          "internalType": "struct AccessControl.ResultAction",
          "name": "",
          "type": "tuple"
        }
      ],
      "stateMutability": "view",
      "type": "function"
    },
    {
      "inputs": [
        {
          "internalType": "address",
          "name": "accountInput",
          "type": "address"
        },
        {
          "internalType": "address",
          "name": "accountList",
          "type": "address"
        },
        {
          "internalType": "string",
          "name": "ipfsCIDInput",
          "type": "string"
        },
        {
          "internalType": "string",
          "name": "ipfsCIDList",
          "type": "string"
        }
      ],
      "name": "isKeyEqual",
      "outputs": [
        {
          "internalType": "bool",
          "name": "",
          "type": "bool"
        }
      ],
      "stateMutability": "pure",
      "type": "function"
    },
    {
      "inputs": [
        {
          "internalType": "string",
          "name": "fileIpfsCID",
          "type": "string"
        }
      ],
      "name": "messageSenderAssociatedToFile",
      "outputs": [
        {
          "internalType": "bool",
          "name": "",
          "type": "bool"
        }
      ],
      "stateMutability": "view",
      "type": "function"
    },
    {
      "inputs": [
        {
          "internalType": "address",
          "name": "userAccount",
          "type": "address"
        },
        {
          "internalType": "string",
          "name": "fileIpfsCID",
          "type": "string"
        },
        {
          "internalType": "string",
          "name": "encSymmetricKey",
          "type": "string"
        },
        {
          "internalType": "string[]",
          "name": "permissions",
          "type": "string[]"
        }
      ],
      "name": "shareFile",
      "outputs": [],
      "stateMutability": "nonpayable",
      "type": "function"
    },
    {
      "inputs": [
        {
          "internalType": "address",
          "name": "userAccount",
          "type": "address"
        },
        {
          "internalType": "string",
          "name": "fileIpfsCID",
          "type": "string"
        },
        {
          "internalType": "string[]",
          "name": "permissions",
          "type": "string[]"
        }
      ],
      "name": "updateUserFilePermissions",
      "outputs": [],
      "stateMutability": "nonpayable",
      "type": "function"
    },
    {
      "inputs": [
        {
          "internalType": "address",
          "name": "userAccount",
          "type": "address"
        },
        {
          "internalType": "string",
          "name": "fileIpfsCID",
          "type": "string"
        },
        {
          "internalType": "string",
          "name": "encSymmetricKey",
          "type": "string"
        }
      ],
      "name": "uploadFile",
      "outputs": [],
      "stateMutability": "nonpayable",
      "type": "function"
    },
    {
      "inputs": [
        {
          "internalType": "address",
          "name": "userAccount",
          "type": "address"
        },
        {
          "internalType": "string",
          "name": "fileIpfsCID",
          "type": "string"
        }
      ],
      "name": "userAssociatedWithFile",
      "outputs": [
        {
          "internalType": "bool",
          "name": "",
          "type": "bool"
        }
      ],
      "stateMutability": "view",
      "type": "function"
    },
    {
      "inputs": [
        {
          "internalType": "address",
          "name": "userAccount",
          "type": "address"
        },
        {
          "internalType": "string",
          "name": "fileIpfsCID",
          "type": "string"
        }
      ],
      "name": "userHasSharePermissionOverFile",
      "outputs": [
        {
          "internalType": "bool",
          "name": "",
          "type": "bool"
        }
      ],
      "stateMutability": "view",
      "type": "function"
    },
    {
      "inputs": [
        {
          "internalType": "address",
          "name": "userAccount",
          "type": "address"
        },
        {
          "internalType": "string",
          "name": "fileIpfsCID",
          "type": "string"
        },
        {
          "internalType": "string",
          "name": "encSymmetricKey",
          "type": "string"
        },
        {
          "internalType": "string[]",
          "name": "permissions",
          "type": "string[]"
        }
      ],
      "name": "verifyValidFields",
      "outputs": [
        {
          "internalType": "bool",
          "name": "",
          "type": "bool"
        }
      ],
      "stateMutability": "view",
      "type": "function"
    }
  ],
  "bytecode": "0x60806040523480156200001157600080fd5b5060405162002e3138038062002e3183398181016040528101906200003791906200012b565b81600160006101000a81548173ffffffffffffffffffffffffffffffffffffffff021916908373ffffffffffffffffffffffffffffffffffffffff16021790555080600260006101000a81548173ffffffffffffffffffffffffffffffffffffffff021916908373ffffffffffffffffffffffffffffffffffffffff160217905550505062000172565b600080fd5b600073ffffffffffffffffffffffffffffffffffffffff82169050919050565b6000620000f382620000c6565b9050919050565b6200010581620000e6565b81146200011157600080fd5b50565b6000815190506200012581620000fa565b92915050565b60008060408385031215620001455762000144620000c1565b5b6000620001558582860162000114565b9250506020620001688582860162000114565b9150509250929050565b612caf80620001826000396000f3fe608060405234801561001057600080fd5b50600436106100e95760003560e01c80638af34fbc1161008c578063c1f69fd611610066578063c1f69fd6146102a6578063d1312023146102d6578063dee63aa1146102f2578063f1fcc0bf14610322576100e9565b80638af34fbc1461022a578063a126d94c14610246578063b58ea3a214610276576100e9565b80631fc37922116100c85780631fc379221461016a5780632321f3181461019a578063299768c8146101ca5780635c99c71b146101fa576100e9565b8062c5e614146100ee578063173cd5581461010a5780631ac47dd01461013a575b600080fd5b61010860048036038101906101039190611d97565b610352565b005b610124600480360381019061011f9190611e52565b61047a565b6040516101319190612047565b60405180910390f35b610154600480360381019061014f9190611e52565b61073b565b6040516101619190612078565b60405180910390f35b610184600480360381019061017f9190612093565b610888565b6040516101919190612259565b60405180910390f35b6101b460048036038101906101af9190611e52565b610bef565b6040516101c19190612078565b60405180910390f35b6101e460048036038101906101df919061227b565b610cf3565b6040516101f19190612078565b60405180910390f35b610214600480360381019061020f91906122c4565b610e33565b6040516102219190612078565b60405180910390f35b610244600480360381019061023f9190612363565b610ec5565b005b610260600480360381019061025b9190611e52565b611042565b60405161026d919061242b565b60405180910390f35b610290600480360381019061028b9190611e52565b61127e565b60405161029d9190612078565b60405180910390f35b6102c060048036038101906102bb9190611d97565b611395565b6040516102cd9190612078565b60405180910390f35b6102f060048036038101906102eb919061244d565b611554565b005b61030c60048036038101906103079190611e52565b6117ce565b6040516103199190612078565b60405180910390f35b61033c60048036038101906103379190611e52565b6118d1565b6040516103499190612078565b60405180910390f35b61035c848461127e565b1561047457600061036f85858585611395565b9050801561047257600060405180608001604052808773ffffffffffffffffffffffffffffffffffffffff168152602001868152602001858152602001848152509050600081908060018154018082558091505060019003906000526020600020906004020160009091909190915060008201518160000160006101000a81548173ffffffffffffffffffffffffffffffffffffffff021916908373ffffffffffffffffffffffffffffffffffffffff160217905550602082015181600101908161043a91906126ee565b50604082015181600201908161045091906126ee565b50606082015181600301908051906020019061046d929190611986565b505050505b505b50505050565b6104826119df565b61048b82610cf3565b156106cc5760005b6000805490508110156106ca5761059e84600083815481106104b8576104b76127c0565b5b906000526020600020906004020160000160009054906101000a900473ffffffffffffffffffffffffffffffffffffffff1685600085815481106104ff576104fe6127c0565b5b9060005260206000209060040201600101805461051b90612507565b80601f016020809104026020016040519081016040528092919081815260200182805461054790612507565b80156105945780601f1061056957610100808354040283529160200191610594565b820191906000526020600020905b81548152906001019060200180831161057757829003601f168201915b5050505050610e33565b156106b7576040518060400160405280600115158152602001600083815481106105cb576105ca6127c0565b5b9060005260206000209060040201600301805480602002602001604051908101604052809291908181526020016000905b828210156106a857838290600052602060002001805461061b90612507565b80601f016020809104026020016040519081016040528092919081815260200182805461064790612507565b80156106945780601f1061066957610100808354040283529160200191610694565b820191906000526020600020905b81548152906001019060200180831161067757829003601f168201915b5050505050815260200190600101906105fc565b50505050815250915050610735565b80806106c29061281e565b915050610493565b505b6040518060400160405280600015158152602001600067ffffffffffffffff8111156106fb576106fa611b86565b5b60405190808252806020026020018201604052801561072e57816020015b60608152602001906001900390816107195790505b5081525090505b92915050565b600061074682610cf3565b1561087d5760005b60008054905081101561087b576108598460008381548110610773576107726127c0565b5b906000526020600020906004020160000160009054906101000a900473ffffffffffffffffffffffffffffffffffffffff1685600085815481106107ba576107b96127c0565b5b906000526020600020906004020160010180546107d690612507565b80601f016020809104026020016040519081016040528092919081815260200182805461080290612507565b801561084f5780601f106108245761010080835404028352916020019161084f565b820191906000526020600020905b81548152906001019060200180831161083257829003601f168201915b5050505050610e33565b15610868576001915050610882565b80806108739061281e565b91505061074e565b505b600090505b92915050565b6108906119fb565b8173ffffffffffffffffffffffffffffffffffffffff163373ffffffffffffffffffffffffffffffffffffffff1603610b7b576000808054905067ffffffffffffffff8111156108e3576108e2611b86565b5b60405190808252806020026020018201604052801561091c57816020015b610909611a17565b8152602001906001900390816109015790505b5090506000805b600080549050811015610b4b578473ffffffffffffffffffffffffffffffffffffffff166000828154811061095b5761095a6127c0565b5b906000526020600020906004020160000160009054906101000a900473ffffffffffffffffffffffffffffffffffffffff1673ffffffffffffffffffffffffffffffffffffffff1603610b385760008082815481106109bd576109bc6127c0565b5b906000526020600020906004020160010180546109d990612507565b80601f0160208091040260200160405190810160405280929190818152602001828054610a0590612507565b8015610a525780601f10610a2757610100808354040283529160200191610a52565b820191906000526020600020905b815481529060010190602001808311610a3557829003601f168201915b505050505090506000600160009054906101000a900473ffffffffffffffffffffffffffffffffffffffff1673ffffffffffffffffffffffffffffffffffffffff16639f5937f8836040518263ffffffff1660e01b8152600401610ab691906128b0565b600060405180830381865afa158015610ad3573d6000803e3d6000fd5b505050506040513d6000823e3d601f19601f82011682018060405250810190610afc9190612af5565b905060008160200151905080868681518110610b1b57610b1a6127c0565b5b60200260200101819052508480610b319061281e565b9550505050505b8080610b439061281e565b915050610923565b5080825260008114610b785760405180604001604052806001151581526020018381525092505050610bea565b50505b6040518060400160405280600015158152602001600067ffffffffffffffff811115610baa57610ba9611b86565b5b604051908082528060200260200182016040528015610be357816020015b610bd0611a17565b815260200190600190039081610bc85790505b5081525090505b919050565b60008273ffffffffffffffffffffffffffffffffffffffff163373ffffffffffffffffffffffffffffffffffffffff1614158015610cc85750600160009054906101000a900473ffffffffffffffffffffffffffffffffffffffff1673ffffffffffffffffffffffffffffffffffffffff166352a9baef84846040518363ffffffff1660e01b8152600401610c85929190612b4d565b602060405180830381865afa158015610ca2573d6000803e3d6000fd5b505050506040513d601f19601f82011682018060405250810190610cc69190612b7d565b155b8015610cda5750610cd933836118d1565b5b15610ce85760019050610ced565b600090505b92915050565b600080600090505b600080549050811015610e2857610e063360008381548110610d2057610d1f6127c0565b5b906000526020600020906004020160000160009054906101000a900473ffffffffffffffffffffffffffffffffffffffff168560008581548110610d6757610d666127c0565b5b90600052602060002090600402016001018054610d8390612507565b80601f0160208091040260200160405190810160405280929190818152602001828054610daf90612507565b8015610dfc5780601f10610dd157610100808354040283529160200191610dfc565b820191906000526020600020905b815481529060010190602001808311610ddf57829003601f168201915b5050505050610e33565b15610e15576001915050610e2e565b8080610e209061281e565b915050610cfb565b50600090505b919050565b60008473ffffffffffffffffffffffffffffffffffffffff168473ffffffffffffffffffffffffffffffffffffffff16148015610ebb575082604051602001610e7c9190612be6565b6040516020818303038152906040528051906020012082604051602001610ea39190612be6565b60405160208183030381529060405280519060200120145b9050949350505050565b610ecf8383610bef565b1561103c5760005b60008054905081101561103a57610fe28460008381548110610efc57610efb6127c0565b5b906000526020600020906004020160000160009054906101000a900473ffffffffffffffffffffffffffffffffffffffff168560008581548110610f4357610f426127c0565b5b90600052602060002090600402016001018054610f5f90612507565b80601f0160208091040260200160405190810160405280929190818152602001828054610f8b90612507565b8015610fd85780601f10610fad57610100808354040283529160200191610fd8565b820191906000526020600020905b815481529060010190602001808311610fbb57829003601f168201915b5050505050610e33565b15611027578160008281548110610ffc57610ffb6127c0565b5b90600052602060002090600402016003019080519060200190611020929190611986565b505061103d565b80806110329061281e565b915050610ed7565b505b5b505050565b61104a611a5c565b611054838361073b565b1561124e5760005b60008054905081101561124c576111678460008381548110611081576110806127c0565b5b906000526020600020906004020160000160009054906101000a900473ffffffffffffffffffffffffffffffffffffffff1685600085815481106110c8576110c76127c0565b5b906000526020600020906004020160010180546110e490612507565b80601f016020809104026020016040519081016040528092919081815260200182805461111090612507565b801561115d5780601f106111325761010080835404028352916020019161115d565b820191906000526020600020905b81548152906001019060200180831161114057829003601f168201915b5050505050610e33565b1561123957604051806040016040528060011515815260200160008381548110611194576111936127c0565b5b906000526020600020906004020160020180546111b090612507565b80601f01602080910402602001604051908101604052809291908181526020018280546111dc90612507565b80156112295780601f106111fe57610100808354040283529160200191611229565b820191906000526020600020905b81548152906001019060200180831161120c57829003601f168201915b5050505050815250915050611278565b80806112449061281e565b91505061105c565b505b60405180604001604052806000151581526020016040518060200160405280600081525081525090505b92915050565b60008273ffffffffffffffffffffffffffffffffffffffff163373ffffffffffffffffffffffffffffffffffffffff16141580156113575750600160009054906101000a900473ffffffffffffffffffffffffffffffffffffffff1673ffffffffffffffffffffffffffffffffffffffff166352a9baef84846040518363ffffffff1660e01b8152600401611314929190612b4d565b602060405180830381865afa158015611331573d6000803e3d6000fd5b505050506040513d601f19601f820116820180604052508101906113559190612b7d565b155b8015611369575061136833836118d1565b5b801561137c575061137a838361073b565b155b1561138a576001905061138f565b600090505b92915050565b60008073ffffffffffffffffffffffffffffffffffffffff168573ffffffffffffffffffffffffffffffffffffffff161415801561146b5750600260009054906101000a900473ffffffffffffffffffffffffffffffffffffffff1673ffffffffffffffffffffffffffffffffffffffff1663a240e426866040518263ffffffff1660e01b81526004016114299190612bfd565b602060405180830381865afa158015611446573d6000803e3d6000fd5b505050506040513d601f19601f8201168201806040525081019061146a9190612b7d565b5b801561147957506000845114155b801561151d5750600160009054906101000a900473ffffffffffffffffffffffffffffffffffffffff1673ffffffffffffffffffffffffffffffffffffffff16639bccd6ad856040518263ffffffff1660e01b81526004016114db91906128b0565b602060405180830381865afa1580156114f8573d6000803e3d6000fd5b505050506040513d601f19601f8201168201806040525081019061151c9190612b7d565b5b801561152b57506000835114155b801561153957506000825114155b15611547576001905061154c565b600090505b949350505050565b6000600367ffffffffffffffff81111561157157611570611b86565b5b6040519080825280602002602001820160405280156115a457816020015b606081526020019060019003908161158f5790505b5090506040518060400160405280600581526020017f7368617265000000000000000000000000000000000000000000000000000000815250816000815181106115f1576115f06127c0565b5b60200260200101819052506040518060400160405280600881526020017f646f776e6c6f616400000000000000000000000000000000000000000000000081525081600181518110611646576116456127c0565b5b60200260200101819052506040518060400160405280600681526020017f64656c65746500000000000000000000000000000000000000000000000000008152508160028151811061169b5761169a6127c0565b5b60200260200101819052506116b084846117ce565b156117c85760006116c385858585611395565b905080156117c657600060405180608001604052808773ffffffffffffffffffffffffffffffffffffffff168152602001868152602001858152602001848152509050600081908060018154018082558091505060019003906000526020600020906004020160009091909190915060008201518160000160006101000a81548173ffffffffffffffffffffffffffffffffffffffff021916908373ffffffffffffffffffffffffffffffffffffffff160217905550602082015181600101908161178e91906126ee565b5060408201518160020190816117a491906126ee565b5060608201518160030190805190602001906117c1929190611986565b505050505b505b50505050565b60008273ffffffffffffffffffffffffffffffffffffffff163373ffffffffffffffffffffffffffffffffffffffff161480156118125750611810838361073b565b155b80156118b85750600160009054906101000a900473ffffffffffffffffffffffffffffffffffffffff1673ffffffffffffffffffffffffffffffffffffffff166352a9baef84846040518363ffffffff1660e01b8152600401611876929190612b4d565b602060405180830381865afa158015611893573d6000803e3d6000fd5b505050506040513d601f19601f820116820180604052508101906118b79190612b7d565b5b156118c657600190506118cb565b600090505b92915050565b6000806118de848461047a565b60200151905060005b8151811015611979576040516020016118ff90612c64565b60405160208183030381529060405280519060200120828281518110611928576119276127c0565b5b60200260200101516040516020016119409190612be6565b604051602081830303815290604052805190602001200361196657600192505050611980565b80806119719061281e565b9150506118e7565b5060009150505b92915050565b8280548282559060005260206000209081019282156119ce579160200282015b828111156119cd5782518290816119bd91906126ee565b50916020019190600101906119a6565b5b5090506119db9190611a78565b5090565b6040518060400160405280600015158152602001606081525090565b6040518060400160405280600015158152602001606081525090565b6040518060a001604052806060815260200160608152602001600073ffffffffffffffffffffffffffffffffffffffff16815260200160608152602001606081525090565b6040518060400160405280600015158152602001606081525090565b5b80821115611a985760008181611a8f9190611a9c565b50600101611a79565b5090565b508054611aa890612507565b6000825580601f10611aba5750611ad9565b601f016020900490600052602060002090810190611ad89190611adc565b5b50565b5b80821115611af5576000816000905550600101611add565b5090565b6000604051905090565b600080fd5b600080fd5b600073ffffffffffffffffffffffffffffffffffffffff82169050919050565b6000611b3882611b0d565b9050919050565b611b4881611b2d565b8114611b5357600080fd5b50565b600081359050611b6581611b3f565b92915050565b600080fd5b600080fd5b6000601f19601f8301169050919050565b7f4e487b7100000000000000000000000000000000000000000000000000000000600052604160045260246000fd5b611bbe82611b75565b810181811067ffffffffffffffff82111715611bdd57611bdc611b86565b5b80604052505050565b6000611bf0611af9565b9050611bfc8282611bb5565b919050565b600067ffffffffffffffff821115611c1c57611c1b611b86565b5b611c2582611b75565b9050602081019050919050565b82818337600083830152505050565b6000611c54611c4f84611c01565b611be6565b905082815260208101848484011115611c7057611c6f611b70565b5b611c7b848285611c32565b509392505050565b600082601f830112611c9857611c97611b6b565b5b8135611ca8848260208601611c41565b91505092915050565b600067ffffffffffffffff821115611ccc57611ccb611b86565b5b602082029050602081019050919050565b600080fd5b6000611cf5611cf084611cb1565b611be6565b90508083825260208201905060208402830185811115611d1857611d17611cdd565b5b835b81811015611d5f57803567ffffffffffffffff811115611d3d57611d3c611b6b565b5b808601611d4a8982611c83565b85526020850194505050602081019050611d1a565b5050509392505050565b600082601f830112611d7e57611d7d611b6b565b5b8135611d8e848260208601611ce2565b91505092915050565b60008060008060808587031215611db157611db0611b03565b5b6000611dbf87828801611b56565b945050602085013567ffffffffffffffff811115611de057611ddf611b08565b5b611dec87828801611c83565b935050604085013567ffffffffffffffff811115611e0d57611e0c611b08565b5b611e1987828801611c83565b925050606085013567ffffffffffffffff811115611e3a57611e39611b08565b5b611e4687828801611d69565b91505092959194509250565b60008060408385031215611e6957611e68611b03565b5b6000611e7785828601611b56565b925050602083013567ffffffffffffffff811115611e9857611e97611b08565b5b611ea485828601611c83565b9150509250929050565b60008115159050919050565b611ec381611eae565b82525050565b600081519050919050565b600082825260208201905092915050565b6000819050602082019050919050565b600081519050919050565b600082825260208201905092915050565b60005b83811015611f2f578082015181840152602081019050611f14565b60008484015250505050565b6000611f4682611ef5565b611f508185611f00565b9350611f60818560208601611f11565b611f6981611b75565b840191505092915050565b6000611f808383611f3b565b905092915050565b6000602082019050919050565b6000611fa082611ec9565b611faa8185611ed4565b935083602082028501611fbc85611ee5565b8060005b85811015611ff85784840389528151611fd98582611f74565b9450611fe483611f88565b925060208a01995050600181019050611fc0565b50829750879550505050505092915050565b60006040830160008301516120226000860182611eba565b506020830151848203602086015261203a8282611f95565b9150508091505092915050565b60006020820190508181036000830152612061818461200a565b905092915050565b61207281611eae565b82525050565b600060208201905061208d6000830184612069565b92915050565b6000602082840312156120a9576120a8611b03565b5b60006120b784828501611b56565b91505092915050565b600081519050919050565b600082825260208201905092915050565b6000819050602082019050919050565b6120f581611b2d565b82525050565b600060a08301600083015184820360008601526121188282611f3b565b915050602083015184820360208601526121328282611f3b565b915050604083015161214760408601826120ec565b506060830151848203606086015261215f8282611f3b565b915050608083015184820360808601526121798282611f3b565b9150508091505092915050565b600061219283836120fb565b905092915050565b6000602082019050919050565b60006121b2826120c0565b6121bc81856120cb565b9350836020820285016121ce856120dc565b8060005b8581101561220a57848403895281516121eb8582612186565b94506121f68361219a565b925060208a019950506001810190506121d2565b50829750879550505050505092915050565b60006040830160008301516122346000860182611eba565b506020830151848203602086015261224c82826121a7565b9150508091505092915050565b60006020820190508181036000830152612273818461221c565b905092915050565b60006020828403121561229157612290611b03565b5b600082013567ffffffffffffffff8111156122af576122ae611b08565b5b6122bb84828501611c83565b91505092915050565b600080600080608085870312156122de576122dd611b03565b5b60006122ec87828801611b56565b94505060206122fd87828801611b56565b935050604085013567ffffffffffffffff81111561231e5761231d611b08565b5b61232a87828801611c83565b925050606085013567ffffffffffffffff81111561234b5761234a611b08565b5b61235787828801611c83565b91505092959194509250565b60008060006060848603121561237c5761237b611b03565b5b600061238a86828701611b56565b935050602084013567ffffffffffffffff8111156123ab576123aa611b08565b5b6123b786828701611c83565b925050604084013567ffffffffffffffff8111156123d8576123d7611b08565b5b6123e486828701611d69565b9150509250925092565b60006040830160008301516124066000860182611eba565b506020830151848203602086015261241e8282611f3b565b9150508091505092915050565b6000602082019050818103600083015261244581846123ee565b905092915050565b60008060006060848603121561246657612465611b03565b5b600061247486828701611b56565b935050602084013567ffffffffffffffff81111561249557612494611b08565b5b6124a186828701611c83565b925050604084013567ffffffffffffffff8111156124c2576124c1611b08565b5b6124ce86828701611c83565b9150509250925092565b7f4e487b7100000000000000000000000000000000000000000000000000000000600052602260045260246000fd5b6000600282049050600182168061251f57607f821691505b602082108103612532576125316124d8565b5b50919050565b60008190508160005260206000209050919050565b60006020601f8301049050919050565b600082821b905092915050565b60006008830261259a7fffffffffffffffffffffffffffffffffffffffffffffffffffffffffffffffff8261255d565b6125a4868361255d565b95508019841693508086168417925050509392505050565b6000819050919050565b6000819050919050565b60006125eb6125e66125e1846125bc565b6125c6565b6125bc565b9050919050565b6000819050919050565b612605836125d0565b612619612611826125f2565b84845461256a565b825550505050565b600090565b61262e612621565b6126398184846125fc565b505050565b5b8181101561265d57612652600082612626565b60018101905061263f565b5050565b601f8211156126a25761267381612538565b61267c8461254d565b8101602085101561268b578190505b61269f6126978561254d565b83018261263e565b50505b505050565b600082821c905092915050565b60006126c5600019846008026126a7565b1980831691505092915050565b60006126de83836126b4565b9150826002028217905092915050565b6126f782611ef5565b67ffffffffffffffff8111156127105761270f611b86565b5b61271a8254612507565b612725828285612661565b600060209050601f8311600181146127585760008415612746578287015190505b61275085826126d2565b8655506127b8565b601f19841661276686612538565b60005b8281101561278e57848901518255600182019150602085019450602081019050612769565b868310156127ab57848901516127a7601f8916826126b4565b8355505b6001600288020188555050505b505050505050565b7f4e487b7100000000000000000000000000000000000000000000000000000000600052603260045260246000fd5b7f4e487b7100000000000000000000000000000000000000000000000000000000600052601160045260246000fd5b6000612829826125bc565b91507fffffffffffffffffffffffffffffffffffffffffffffffffffffffffffffffff820361285b5761285a6127ef565b5b600182019050919050565b600082825260208201905092915050565b600061288282611ef5565b61288c8185612866565b935061289c818560208601611f11565b6128a581611b75565b840191505092915050565b600060208201905081810360008301526128ca8184612877565b905092915050565b600080fd5b600080fd5b6128e581611eae565b81146128f057600080fd5b50565b600081519050612902816128dc565b92915050565b600061291b61291684611c01565b611be6565b90508281526020810184848401111561293757612936611b70565b5b612942848285611f11565b509392505050565b600082601f83011261295f5761295e611b6b565b5b815161296f848260208601612908565b91505092915050565b60008151905061298781611b3f565b92915050565b600060a082840312156129a3576129a26128d2565b5b6129ad60a0611be6565b9050600082015167ffffffffffffffff8111156129cd576129cc6128d7565b5b6129d98482850161294a565b600083015250602082015167ffffffffffffffff8111156129fd576129fc6128d7565b5b612a098482850161294a565b6020830152506040612a1d84828501612978565b604083015250606082015167ffffffffffffffff811115612a4157612a406128d7565b5b612a4d8482850161294a565b606083015250608082015167ffffffffffffffff811115612a7157612a706128d7565b5b612a7d8482850161294a565b60808301525092915050565b600060408284031215612a9f57612a9e6128d2565b5b612aa96040611be6565b90506000612ab9848285016128f3565b600083015250602082015167ffffffffffffffff811115612add57612adc6128d7565b5b612ae98482850161298d565b60208301525092915050565b600060208284031215612b0b57612b0a611b03565b5b600082015167ffffffffffffffff811115612b2957612b28611b08565b5b612b3584828501612a89565b91505092915050565b612b4781611b2d565b82525050565b6000604082019050612b626000830185612b3e565b8181036020830152612b748184612877565b90509392505050565b600060208284031215612b9357612b92611b03565b5b6000612ba1848285016128f3565b91505092915050565b600081905092915050565b6000612bc082611ef5565b612bca8185612baa565b9350612bda818560208601611f11565b80840191505092915050565b6000612bf28284612bb5565b915081905092915050565b6000602082019050612c126000830184612b3e565b92915050565b7f7368617265000000000000000000000000000000000000000000000000000000600082015250565b6000612c4e600583612baa565b9150612c5982612c18565b600582019050919050565b6000612c6f82612c41565b915081905091905056fea264697066735822122097b1078e09563e2af63db3ab2b7850fcf200b98ce1a978d31515c339707190dd64736f6c63430008130033",
  "linkReferences": {},
  "deployedLinkReferences": {}
}