{
  "_format": "hh-sol-artifact-1",
  "contractName": "AccessControl",
  "sourceName": "contracts/AccessControl.sol",
  "abi": [
    {
      "inputs": [
        {
          "internalType": "address",
          "name": "helperContract",
          "type": "address"
        }
      ],
      "stateMutability": "nonpayable",
      "type": "constructor"
    },
    {
      "anonymous": false,
      "inputs": [
        {
          "indexed": true,
          "internalType": "address",
          "name": "userAccount",
          "type": "address"
        },
        {
          "indexed": false,
          "internalType": "string",
          "name": "fileIpfsCID",
          "type": "string"
        },
        {
          "indexed": false,
          "internalType": "string",
          "name": "permissionsOwner",
          "type": "string"
        },
        {
          "indexed": false,
          "internalType": "string",
          "name": "action",
          "type": "string"
        }
      ],
      "name": "FileActionLog",
      "type": "event"
    },
    {
      "inputs": [
        {
          "internalType": "address",
          "name": "userAccount",
          "type": "address"
        },
        {
          "internalType": "string",
          "name": "fileIpfsCid",
          "type": "string"
        }
      ],
      "name": "deactivateFile",
      "outputs": [],
      "stateMutability": "nonpayable",
      "type": "function"
    },
    {
      "inputs": [
        {
          "internalType": "string",
          "name": "fileIpfsCid",
          "type": "string"
        },
        {
          "internalType": "address",
          "name": "userAccount",
          "type": "address"
        }
      ],
      "name": "downloadFileAudit",
      "outputs": [],
      "stateMutability": "nonpayable",
      "type": "function"
    },
    {
      "inputs": [
        {
          "internalType": "address",
          "name": "userAccount",
          "type": "address"
        },
        {
          "internalType": "string",
          "name": "fileIpfsCID",
          "type": "string"
        }
      ],
      "name": "elegibleToShare",
      "outputs": [
        {
          "internalType": "bool",
          "name": "",
          "type": "bool"
        }
      ],
      "stateMutability": "view",
      "type": "function"
    },
    {
      "inputs": [
        {
          "internalType": "address",
          "name": "userAccount",
          "type": "address"
        },
        {
          "internalType": "string",
          "name": "fileIpfsCID",
          "type": "string"
        }
      ],
      "name": "elegibleToUpdPermissions",
      "outputs": [
        {
          "internalType": "bool",
          "name": "",
          "type": "bool"
        }
      ],
      "stateMutability": "view",
      "type": "function"
    },
    {
      "inputs": [
        {
          "internalType": "address",
          "name": "userAccount",
          "type": "address"
        },
        {
          "internalType": "string",
          "name": "fileIpfsCID",
          "type": "string"
        }
      ],
      "name": "elegibleToUpload",
      "outputs": [
        {
          "internalType": "bool",
          "name": "",
          "type": "bool"
        }
      ],
      "stateMutability": "view",
      "type": "function"
    },
    {
      "inputs": [],
      "name": "getAuditLogControlAddress",
      "outputs": [
        {
          "internalType": "address",
          "name": "",
          "type": "address"
        }
      ],
      "stateMutability": "view",
      "type": "function"
    },
    {
      "inputs": [
        {
          "internalType": "address",
          "name": "accountUser",
          "type": "address"
        },
        {
          "internalType": "string",
          "name": "fileIpfsCID",
          "type": "string"
        }
      ],
      "name": "getEncSymmetricKeyFileUser",
      "outputs": [
        {
          "components": [
            {
              "internalType": "bool",
              "name": "success",
              "type": "bool"
            },
            {
              "internalType": "string",
              "name": "resultString",
              "type": "string"
            }
          ],
          "internalType": "struct Helper.ResultString",
          "name": "",
          "type": "tuple"
        }
      ],
      "stateMutability": "view",
      "type": "function"
    },
    {
      "inputs": [],
      "name": "getFileRegisterAddress",
      "outputs": [
        {
          "internalType": "address",
          "name": "",
          "type": "address"
        }
      ],
      "stateMutability": "view",
      "type": "function"
    },
    {
      "inputs": [
        {
          "internalType": "address",
          "name": "userAccount",
          "type": "address"
        },
        {
          "internalType": "string",
          "name": "fileIpfsCID",
          "type": "string"
        }
      ],
      "name": "getPermissionsOverFile",
      "outputs": [
        {
          "components": [
            {
              "internalType": "bool",
              "name": "success",
              "type": "bool"
            },
            {
              "internalType": "string[]",
              "name": "resultStrings",
              "type": "string[]"
            }
          ],
          "internalType": "struct Helper.ResultStringArray",
          "name": "",
          "type": "tuple"
        }
      ],
      "stateMutability": "view",
      "type": "function"
    },
    {
      "inputs": [
        {
          "internalType": "address",
          "name": "account",
          "type": "address"
        },
        {
          "internalType": "string",
          "name": "state",
          "type": "string"
        }
      ],
      "name": "getUserFiles",
      "outputs": [
        {
          "components": [
            {
              "internalType": "bool",
              "name": "success",
              "type": "bool"
            },
            {
              "components": [
                {
                  "internalType": "string",
                  "name": "ipfsCID",
                  "type": "string"
                },
                {
                  "internalType": "string",
                  "name": "fileName",
                  "type": "string"
                },
                {
                  "internalType": "int256",
                  "name": "version",
                  "type": "int256"
                },
                {
                  "internalType": "address",
                  "name": "owner",
                  "type": "address"
                },
                {
                  "internalType": "string",
                  "name": "fileType",
                  "type": "string"
                },
                {
                  "internalType": "string",
                  "name": "iv",
                  "type": "string"
                },
                {
                  "internalType": "string",
                  "name": "state",
                  "type": "string"
                }
              ],
              "internalType": "struct FileRegister.File[]",
              "name": "files",
              "type": "tuple[]"
            }
          ],
          "internalType": "struct FileRegister.ResultFiles",
          "name": "",
          "type": "tuple"
        }
      ],
      "stateMutability": "view",
      "type": "function"
    },
    {
      "inputs": [],
      "name": "getUserRegisterAddress",
      "outputs": [
        {
          "internalType": "address",
          "name": "",
          "type": "address"
        }
      ],
      "stateMutability": "view",
      "type": "function"
    },
    {
      "inputs": [
        {
          "internalType": "address",
          "name": "accountInput",
          "type": "address"
        },
        {
          "internalType": "address",
          "name": "accountList",
          "type": "address"
        },
        {
          "internalType": "string",
          "name": "ipfsCIDInput",
          "type": "string"
        },
        {
          "internalType": "string",
          "name": "ipfsCIDList",
          "type": "string"
        }
      ],
      "name": "isKeyEqual",
      "outputs": [
        {
          "internalType": "bool",
          "name": "",
          "type": "bool"
        }
      ],
      "stateMutability": "pure",
      "type": "function"
    },
    {
      "inputs": [
        {
          "internalType": "string",
          "name": "fileIpfsCID",
          "type": "string"
        }
      ],
      "name": "messageSenderAssociatedToFile",
      "outputs": [
        {
          "internalType": "bool",
          "name": "",
          "type": "bool"
        }
      ],
      "stateMutability": "view",
      "type": "function"
    },
    {
      "inputs": [
        {
          "internalType": "address",
          "name": "userAccount",
          "type": "address"
        },
        {
          "internalType": "string",
          "name": "fileIpfsCID",
          "type": "string"
        },
        {
          "internalType": "string",
          "name": "encSymmetricKey",
          "type": "string"
        },
        {
          "internalType": "string[]",
          "name": "permissions",
          "type": "string[]"
        }
      ],
      "name": "shareFile",
      "outputs": [],
      "stateMutability": "nonpayable",
      "type": "function"
    },
    {
      "inputs": [
        {
          "internalType": "address",
          "name": "userAccount",
          "type": "address"
        },
        {
          "internalType": "string",
          "name": "fileIpfsCID",
          "type": "string"
        },
        {
          "internalType": "string[]",
          "name": "permissions",
          "type": "string[]"
        }
      ],
      "name": "updateUserFilePermissions",
      "outputs": [],
      "stateMutability": "nonpayable",
      "type": "function"
    },
    {
      "inputs": [
        {
          "internalType": "address",
          "name": "userAccount",
          "type": "address"
        },
        {
          "components": [
            {
              "internalType": "string",
              "name": "ipfsCID",
              "type": "string"
            },
            {
              "internalType": "string",
              "name": "fileName",
              "type": "string"
            },
            {
              "internalType": "int256",
              "name": "version",
              "type": "int256"
            },
            {
              "internalType": "address",
              "name": "owner",
              "type": "address"
            },
            {
              "internalType": "string",
              "name": "fileType",
              "type": "string"
            },
            {
              "internalType": "string",
              "name": "iv",
              "type": "string"
            },
            {
              "internalType": "string",
              "name": "state",
              "type": "string"
            }
          ],
          "internalType": "struct FileRegister.File",
          "name": "file",
          "type": "tuple"
        },
        {
          "internalType": "string",
          "name": "encSymmetricKey",
          "type": "string"
        }
      ],
      "name": "uploadFile",
      "outputs": [],
      "stateMutability": "nonpayable",
      "type": "function"
    },
    {
      "inputs": [
        {
          "internalType": "address",
          "name": "userAccount",
          "type": "address"
        },
        {
          "internalType": "string",
          "name": "fileIpfsCID",
          "type": "string"
        }
      ],
      "name": "userAssociatedWithFile",
      "outputs": [
        {
          "internalType": "bool",
          "name": "",
          "type": "bool"
        }
      ],
      "stateMutability": "view",
      "type": "function"
    },
    {
      "inputs": [
        {
          "internalType": "address",
          "name": "userAccount",
          "type": "address"
        },
        {
          "internalType": "string",
          "name": "fileName",
          "type": "string"
        }
      ],
      "name": "userAssociatedWithFileName",
      "outputs": [
        {
          "internalType": "bool",
          "name": "",
          "type": "bool"
        }
      ],
      "stateMutability": "view",
      "type": "function"
    },
    {
      "inputs": [
        {
          "internalType": "address",
          "name": "userAccount",
          "type": "address"
        },
        {
          "internalType": "string",
          "name": "fileIpfsCID",
          "type": "string"
        },
        {
          "internalType": "string",
          "name": "permission",
          "type": "string"
        }
      ],
      "name": "userHasPermissionOverFile",
      "outputs": [
        {
          "internalType": "bool",
          "name": "",
          "type": "bool"
        }
      ],
      "stateMutability": "view",
      "type": "function"
    }
  ],
  "bytecode": "0x60806040523480156200001157600080fd5b5060405162009fd338038062009fd383398181016040528101906200003791906200028c565b80600460006101000a81548173ffffffffffffffffffffffffffffffffffffffff021916908373ffffffffffffffffffffffffffffffffffffffff160217905550806040516200008790620001f8565b620000939190620002cf565b604051809103906000f080158015620000b0573d6000803e3d6000fd5b50600160006101000a81548173ffffffffffffffffffffffffffffffffffffffff021916908373ffffffffffffffffffffffffffffffffffffffff16021790555080604051620001009062000206565b6200010c9190620002cf565b604051809103906000f08015801562000129573d6000803e3d6000fd5b50600260006101000a81548173ffffffffffffffffffffffffffffffffffffffff021916908373ffffffffffffffffffffffffffffffffffffffff160217905550604051620001789062000214565b604051809103906000f08015801562000195573d6000803e3d6000fd5b50600360006101000a81548173ffffffffffffffffffffffffffffffffffffffff021916908373ffffffffffffffffffffffffffffffffffffffff1602179055506000600460146101000a81548160ff02191690831515021790555050620002ec565b61235a8062004d8c83390190565b611a6a80620070e683390190565b6114838062008b5083390190565b600080fd5b600073ffffffffffffffffffffffffffffffffffffffff82169050919050565b6000620002548262000227565b9050919050565b620002668162000247565b81146200027257600080fd5b50565b60008151905062000286816200025b565b92915050565b600060208284031215620002a557620002a462000222565b5b6000620002b58482850162000275565b91505092915050565b620002c98162000247565b82525050565b6000602082019050620002e66000830184620002be565b92915050565b614a9080620002fc6000396000f3fe608060405234801561001057600080fd5b50600436106101205760003560e01c806367cc916b116100ad578063b6d234df11610071578063b6d234df14610351578063b714fb2014610381578063c19dcf891461039f578063c61e6663146103cf578063dee63aa1146103eb57610120565b806367cc916b1461029b578063874a22ed146102b75780638af34fbc146102d5578063a126d94c146102f1578063b58ea3a21461032157610120565b80632321f318116100f45780632321f318146101d1578063299768c8146102015780635c99c71b146102315780635dab19e414610261578063600d07641461027f57610120565b8062c5e614146101255780630976372714610141578063173cd558146101715780631ac47dd0146101a1575b600080fd5b61013f600480360381019061013a9190612ec2565b61041b565b005b61015b60048036038101906101569190612f7d565b61070c565b6040516101689190613252565b60405180910390f35b61018b60048036038101906101869190612f7d565b610be9565b6040516101989190613373565b60405180910390f35b6101bb60048036038101906101b69190612f7d565b610fa2565b6040516101c891906133a4565b60405180910390f35b6101eb60048036038101906101e69190612f7d565b611147565b6040516101f891906133a4565b60405180910390f35b61021b600480360381019061021691906133bf565b611281565b60405161022891906133a4565b60405180910390f35b61024b60048036038101906102469190613408565b6114b9565b60405161025891906133a4565b60405180910390f35b61026961154b565b60405161027691906134b6565b60405180910390f35b61029960048036038101906102949190613647565b611575565b005b6102b560048036038101906102b091906136d2565b611a5b565b005b6102bf611c65565b6040516102cc91906134b6565b60405180910390f35b6102ef60048036038101906102ea919061372e565b611c8f565b005b61030b60048036038101906103069190612f7d565b611f3f565b60405161031891906137f6565b60405180910390f35b61033b60048036038101906103369190612f7d565b6121b2565b60405161034891906133a4565b60405180910390f35b61036b60048036038101906103669190613818565b612447565b60405161037891906133a4565b60405180910390f35b610389612508565b60405161039691906134b6565b60405180910390f35b6103b960048036038101906103b49190612f7d565b612532565b6040516103c691906133a4565b60405180910390f35b6103e960048036038101906103e49190612f7d565b612742565b005b61040560048036038101906104009190612f7d565b6129a2565b60405161041291906133a4565b60405180910390f35b61042584846121b2565b15610706576000600460009054906101000a900473ffffffffffffffffffffffffffffffffffffffff1673ffffffffffffffffffffffffffffffffffffffff16631c209e7c868686866040518563ffffffff1660e01b815260040161048d9493929190613999565b602060405180830381865afa1580156104aa573d6000803e3d6000fd5b505050506040513d601f19601f820116820180604052508101906104ce9190613a32565b9050801561070457600060405180608001604052808773ffffffffffffffffffffffffffffffffffffffff168152602001868152602001858152602001848152509050600081908060018154018082558091505060019003906000526020600020906004020160009091909190915060008201518160000160006101000a81548173ffffffffffffffffffffffffffffffffffffffff021916908373ffffffffffffffffffffffffffffffffffffffff16021790555060208201518160010190816105999190613c75565b5060408201518160020190816105af9190613c75565b5060608201518160030190805190602001906105cc929190612aa3565b505050600360009054906101000a900473ffffffffffffffffffffffffffffffffffffffff1673ffffffffffffffffffffffffffffffffffffffff1663c47ebddc338789600460009054906101000a900473ffffffffffffffffffffffffffffffffffffffff1673ffffffffffffffffffffffffffffffffffffffff16636bb8d768896040518263ffffffff1660e01b815260040161066b9190613d47565b600060405180830381865afa158015610688573d6000803e3d6000fd5b505050506040513d6000823e3d601f19601f820116820180604052508101906106b19190613dd9565b6040518563ffffffff1660e01b81526004016106d09493929190613e6e565b600060405180830381600087803b1580156106ea57600080fd5b505af11580156106fe573d6000803e3d6000fd5b50505050505b505b50505050565b610714612afc565b8273ffffffffffffffffffffffffffffffffffffffff163373ffffffffffffffffffffffffffffffffffffffff1603610b74576000808054905067ffffffffffffffff81111561076757610766612cb1565b5b6040519080825280602002602001820160405280156107a057816020015b61078d612b18565b8152602001906001900390816107855790505b5090506000805b600080549050811015610b44578573ffffffffffffffffffffffffffffffffffffffff16600082815481106107df576107de613ed4565b5b906000526020600020906004020160000160009054906101000a900473ffffffffffffffffffffffffffffffffffffffff1673ffffffffffffffffffffffffffffffffffffffff1614801561099a5750600160009054906101000a900473ffffffffffffffffffffffffffffffffffffffff1673ffffffffffffffffffffffffffffffffffffffff1662438ceb600083815481106108805761087f613ed4565b5b90600052602060002090600402016001016040518263ffffffff1660e01b81526004016108ad9190613f87565b600060405180830381865afa1580156108ca573d6000803e3d6000fd5b505050506040513d6000823e3d601f19601f820116820180604052508101906108f39190614015565b60200151604051602001610907919061409a565b604051602081830303815290604052805190602001208560405160200161092e919061409a565b604051602081830303815290604052805190602001201480610999575060405160200161095a906140d4565b6040516020818303038152906040528051906020012085604051602001610981919061409a565b60405160208183030381529060405280519060200120145b5b15610b315760008082815481106109b4576109b3613ed4565b5b906000526020600020906004020160010180546109d090613a8e565b80601f01602080910402602001604051908101604052809291908181526020018280546109fc90613a8e565b8015610a495780601f10610a1e57610100808354040283529160200191610a49565b820191906000526020600020905b815481529060010190602001808311610a2c57829003601f168201915b505050505090506000600160009054906101000a900473ffffffffffffffffffffffffffffffffffffffff1673ffffffffffffffffffffffffffffffffffffffff166347eb6fa783896040518363ffffffff1660e01b8152600401610aaf9291906140e9565b600060405180830381865afa158015610acc573d6000803e3d6000fd5b505050506040513d6000823e3d601f19601f82011682018060405250810190610af591906142f6565b905060008160200151905080868681518110610b1457610b13613ed4565b5b60200260200101819052508480610b2a9061436e565b9550505050505b8080610b3c9061436e565b9150506107a7565b5080825260008114610b715760405180604001604052806001151581526020018381525092505050610be3565b50505b6040518060400160405280600015158152602001600067ffffffffffffffff811115610ba357610ba2612cb1565b5b604051908082528060200260200182016040528015610bdc57816020015b610bc9612b18565b815260200190600190039081610bc15790505b5081525090505b92915050565b610bf1612b6b565b610bfa82611281565b8015610cf25750604051602001610c1090614402565b60405160208183030381529060405280519060200120600160009054906101000a900473ffffffffffffffffffffffffffffffffffffffff1673ffffffffffffffffffffffffffffffffffffffff1662438ceb846040518263ffffffff1660e01b8152600401610c809190614417565b600060405180830381865afa158015610c9d573d6000803e3d6000fd5b505050506040513d6000823e3d601f19601f82011682018060405250810190610cc69190614015565b60200151604051602001610cda919061409a565b60405160208183030381529060405280519060200120145b15610f335760005b600080549050811015610f3157610e058460008381548110610d1f57610d1e613ed4565b5b906000526020600020906004020160000160009054906101000a900473ffffffffffffffffffffffffffffffffffffffff168560008581548110610d6657610d65613ed4565b5b90600052602060002090600402016001018054610d8290613a8e565b80601f0160208091040260200160405190810160405280929190818152602001828054610dae90613a8e565b8015610dfb5780601f10610dd057610100808354040283529160200191610dfb565b820191906000526020600020905b815481529060010190602001808311610dde57829003601f168201915b50505050506114b9565b15610f1e57604051806040016040528060011515815260200160008381548110610e3257610e31613ed4565b5b9060005260206000209060040201600301805480602002602001604051908101604052809291908181526020016000905b82821015610f0f578382906000526020600020018054610e8290613a8e565b80601f0160208091040260200160405190810160405280929190818152602001828054610eae90613a8e565b8015610efb5780601f10610ed057610100808354040283529160200191610efb565b820191906000526020600020905b815481529060010190602001808311610ede57829003601f168201915b505050505081526020019060010190610e63565b50505050815250915050610f9c565b8080610f299061436e565b915050610cfa565b505b6040518060400160405280600015158152602001600067ffffffffffffffff811115610f6257610f61612cb1565b5b604051908082528060200260200182016040528015610f9557816020015b6060815260200190600190039081610f805790505b5081525090505b92915050565b6000610fad82611281565b806110055750600360009054906101000a900473ffffffffffffffffffffffffffffffffffffffff1673ffffffffffffffffffffffffffffffffffffffff163373ffffffffffffffffffffffffffffffffffffffff16145b1561113c5760005b60008054905081101561113a57611118846000838154811061103257611031613ed4565b5b906000526020600020906004020160000160009054906101000a900473ffffffffffffffffffffffffffffffffffffffff16856000858154811061107957611078613ed4565b5b9060005260206000209060040201600101805461109590613a8e565b80601f01602080910402602001604051908101604052809291908181526020018280546110c190613a8e565b801561110e5780601f106110e35761010080835404028352916020019161110e565b820191906000526020600020905b8154815290600101906020018083116110f157829003601f168201915b50505050506114b9565b15611127576001915050611141565b80806111329061436e565b91505061100d565b505b600090505b92915050565b60008273ffffffffffffffffffffffffffffffffffffffff163373ffffffffffffffffffffffffffffffffffffffff16141580156112205750600160009054906101000a900473ffffffffffffffffffffffffffffffffffffffff1673ffffffffffffffffffffffffffffffffffffffff166352a9baef84846040518363ffffffff1660e01b81526004016111dd929190614439565b602060405180830381865afa1580156111fa573d6000803e3d6000fd5b505050506040513d601f19601f8201168201806040525081019061121e9190613a32565b155b8015611268575061126733836040518060400160405280600581526020017f7368617265000000000000000000000000000000000000000000000000000000815250612447565b5b15611276576001905061127b565b600090505b92915050565b600080600090505b6000805490508110156114ae5761139433600083815481106112ae576112ad613ed4565b5b906000526020600020906004020160000160009054906101000a900473ffffffffffffffffffffffffffffffffffffffff1685600085815481106112f5576112f4613ed4565b5b9060005260206000209060040201600101805461131190613a8e565b80601f016020809104026020016040519081016040528092919081815260200182805461133d90613a8e565b801561138a5780601f1061135f5761010080835404028352916020019161138a565b820191906000526020600020905b81548152906001019060200180831161136d57829003601f168201915b50505050506114b9565b801561148c57506040516020016113aa90614402565b60405160208183030381529060405280519060200120600160009054906101000a900473ffffffffffffffffffffffffffffffffffffffff1673ffffffffffffffffffffffffffffffffffffffff1662438ceb856040518263ffffffff1660e01b815260040161141a9190614417565b600060405180830381865afa158015611437573d6000803e3d6000fd5b505050506040513d6000823e3d601f19601f820116820180604052508101906114609190614015565b60200151604051602001611474919061409a565b60405160208183030381529060405280519060200120145b1561149b5760019150506114b4565b80806114a69061436e565b915050611289565b50600090505b919050565b60008473ffffffffffffffffffffffffffffffffffffffff168473ffffffffffffffffffffffffffffffffffffffff16148015611541575082604051602001611502919061409a565b6040516020818303038152906040528051906020012082604051602001611529919061409a565b60405160208183030381529060405280519060200120145b9050949350505050565b6000600160009054906101000a900473ffffffffffffffffffffffffffffffffffffffff16905090565b6115838383600001516129a2565b15611a56576000600367ffffffffffffffff8111156115a5576115a4612cb1565b5b6040519080825280602002602001820160405280156115d857816020015b60608152602001906001900390816115c35790505b5090506040518060400160405280600581526020017f73686172650000000000000000000000000000000000000000000000000000008152508160008151811061162557611624613ed4565b5b60200260200101819052506040518060400160405280600881526020017f646f776e6c6f61640000000000000000000000000000000000000000000000008152508160018151811061167a57611679613ed4565b5b60200260200101819052506040518060400160405280600681526020017f64656c6574650000000000000000000000000000000000000000000000000000815250816002815181106116cf576116ce613ed4565b5b60200260200101819052506000600460009054906101000a900473ffffffffffffffffffffffffffffffffffffffff1673ffffffffffffffffffffffffffffffffffffffff16631c209e7c86866000015186868960c001516040518663ffffffff1660e01b8152600401611747959493929190614469565b602060405180830381865afa158015611764573d6000803e3d6000fd5b505050506040513d601f19601f820116820180604052508101906117889190613a32565b90508015611a5357600160009054906101000a900473ffffffffffffffffffffffffffffffffffffffff1673ffffffffffffffffffffffffffffffffffffffff1663af205f5c856040518263ffffffff1660e01b81526004016117eb9190614590565b600060405180830381600087803b15801561180557600080fd5b505af1158015611819573d6000803e3d6000fd5b50505050600060405180608001604052808773ffffffffffffffffffffffffffffffffffffffff16815260200186600001518152602001858152602001848152509050600081908060018154018082558091505060019003906000526020600020906004020160009091909190915060008201518160000160006101000a81548173ffffffffffffffffffffffffffffffffffffffff021916908373ffffffffffffffffffffffffffffffffffffffff16021790555060208201518160010190816118e49190613c75565b5060408201518160020190816118fa9190613c75565b506060820151816003019080519060200190611917929190612aa3565b505050600360009054906101000a900473ffffffffffffffffffffffffffffffffffffffff1673ffffffffffffffffffffffffffffffffffffffff1663c47ebddc33876000015189600460009054906101000a900473ffffffffffffffffffffffffffffffffffffffff1673ffffffffffffffffffffffffffffffffffffffff16636bb8d768896040518263ffffffff1660e01b81526004016119ba9190613d47565b600060405180830381865afa1580156119d7573d6000803e3d6000fd5b505050506040513d6000823e3d601f19601f82011682018060405250810190611a009190613dd9565b6040518563ffffffff1660e01b8152600401611a1f94939291906145fe565b600060405180830381600087803b158015611a3957600080fd5b505af1158015611a4d573d6000803e3d6000fd5b50505050505b50505b505050565b8073ffffffffffffffffffffffffffffffffffffffff163373ffffffffffffffffffffffffffffffffffffffff16148015611ad25750611ad181836040518060400160405280600881526020017f646f776e6c6f6164000000000000000000000000000000000000000000000000815250612447565b5b8015611bca5750604051602001611ae890614402565b60405160208183030381529060405280519060200120600160009054906101000a900473ffffffffffffffffffffffffffffffffffffffff1673ffffffffffffffffffffffffffffffffffffffff1662438ceb846040518263ffffffff1660e01b8152600401611b589190614417565b600060405180830381865afa158015611b75573d6000803e3d6000fd5b505050506040513d6000823e3d601f19601f82011682018060405250810190611b9e9190614015565b60200151604051602001611bb2919061409a565b60405160208183030381529060405280519060200120145b15611c6157600360009054906101000a900473ffffffffffffffffffffffffffffffffffffffff1673ffffffffffffffffffffffffffffffffffffffff1663c47ebddc3384846040518463ffffffff1660e01b8152600401611c2e939291906146fc565b600060405180830381600087803b158015611c4857600080fd5b505af1158015611c5c573d6000803e3d6000fd5b505050505b5050565b6000600260009054906101000a900473ffffffffffffffffffffffffffffffffffffffff16905090565b611c998383611147565b15611f395760005b600080549050811015611f3757611dac8460008381548110611cc657611cc5613ed4565b5b906000526020600020906004020160000160009054906101000a900473ffffffffffffffffffffffffffffffffffffffff168560008581548110611d0d57611d0c613ed4565b5b90600052602060002090600402016001018054611d2990613a8e565b80601f0160208091040260200160405190810160405280929190818152602001828054611d5590613a8e565b8015611da25780601f10611d7757610100808354040283529160200191611da2565b820191906000526020600020905b815481529060010190602001808311611d8557829003601f168201915b50505050506114b9565b15611f24578160008281548110611dc657611dc5613ed4565b5b90600052602060002090600402016003019080519060200190611dea929190612aa3565b50600360009054906101000a900473ffffffffffffffffffffffffffffffffffffffff1673ffffffffffffffffffffffffffffffffffffffff1663c47ebddc338587600460009054906101000a900473ffffffffffffffffffffffffffffffffffffffff1673ffffffffffffffffffffffffffffffffffffffff16636bb8d768886040518263ffffffff1660e01b8152600401611e879190613d47565b600060405180830381865afa158015611ea4573d6000803e3d6000fd5b505050506040513d6000823e3d601f19601f82011682018060405250810190611ecd9190613dd9565b6040518563ffffffff1660e01b8152600401611eec94939291906147ac565b600060405180830381600087803b158015611f0657600080fd5b505af1158015611f1a573d6000803e3d6000fd5b5050505050611f3a565b8080611f2f9061436e565b915050611ca1565b505b5b505050565b611f47612b87565b8273ffffffffffffffffffffffffffffffffffffffff163373ffffffffffffffffffffffffffffffffffffffff16148015611f885750611f878383610fa2565b5b156121825760005b6000805490508110156121805761209b8460008381548110611fb557611fb4613ed4565b5b906000526020600020906004020160000160009054906101000a900473ffffffffffffffffffffffffffffffffffffffff168560008581548110611ffc57611ffb613ed4565b5b9060005260206000209060040201600101805461201890613a8e565b80601f016020809104026020016040519081016040528092919081815260200182805461204490613a8e565b80156120915780601f1061206657610100808354040283529160200191612091565b820191906000526020600020905b81548152906001019060200180831161207457829003601f168201915b50505050506114b9565b1561216d576040518060400160405280600115158152602001600083815481106120c8576120c7613ed4565b5b906000526020600020906004020160020180546120e490613a8e565b80601f016020809104026020016040519081016040528092919081815260200182805461211090613a8e565b801561215d5780601f106121325761010080835404028352916020019161215d565b820191906000526020600020905b81548152906001019060200180831161214057829003601f168201915b50505050508152509150506121ac565b80806121789061436e565b915050611f90565b505b60405180604001604052806000151581526020016040518060200160405280600081525081525090505b92915050565b60008273ffffffffffffffffffffffffffffffffffffffff163373ffffffffffffffffffffffffffffffffffffffff161415801561228b5750600160009054906101000a900473ffffffffffffffffffffffffffffffffffffffff1673ffffffffffffffffffffffffffffffffffffffff166352a9baef84846040518363ffffffff1660e01b8152600401612248929190614439565b602060405180830381865afa158015612265573d6000803e3d6000fd5b505050506040513d601f19601f820116820180604052508101906122899190613a32565b155b80156122d357506122d233836040518060400160405280600581526020017f7368617265000000000000000000000000000000000000000000000000000000815250612447565b5b80156122e657506122e48383610fa2565b155b801561238a5750600160009054906101000a900473ffffffffffffffffffffffffffffffffffffffff1673ffffffffffffffffffffffffffffffffffffffff16639bccd6ad836040518263ffffffff1660e01b81526004016123489190614417565b602060405180830381865afa158015612365573d6000803e3d6000fd5b505050506040513d601f19601f820116820180604052508101906123899190613a32565b5b801561242e5750600260009054906101000a900473ffffffffffffffffffffffffffffffffffffffff1673ffffffffffffffffffffffffffffffffffffffff1663a240e426846040518263ffffffff1660e01b81526004016123ec91906134b6565b602060405180830381865afa158015612409573d6000803e3d6000fd5b505050506040513d601f19601f8201168201806040525081019061242d9190613a32565b5b1561243c5760019050612441565b600090505b92915050565b60006001156124fc57600061245c8585610be9565b60200151905060005b81518110156124f9578360405160200161247f919061409a565b604051602081830303815290604052805190602001208282815181106124a8576124a7613ed4565b5b60200260200101516040516020016124c0919061409a565b60405160208183030381529060405280519060200120036124e657600192505050612501565b80806124f19061436e565b915050612465565b50505b600090505b9392505050565b6000600360009054906101000a900473ffffffffffffffffffffffffffffffffffffffff16905090565b600080600160009054906101000a900473ffffffffffffffffffffffffffffffffffffffff1673ffffffffffffffffffffffffffffffffffffffff16637113c4dd846040518263ffffffff1660e01b81526004016125909190614417565b600060405180830381865afa1580156125ad573d6000803e3d6000fd5b505050506040513d6000823e3d601f19601f820116820180604052508101906125d691906148c7565b905060005b6000805490508110156127355760005b8251811015612721578573ffffffffffffffffffffffffffffffffffffffff166000838154811061261f5761261e613ed4565b5b906000526020600020906004020160000160009054906101000a900473ffffffffffffffffffffffffffffffffffffffff1673ffffffffffffffffffffffffffffffffffffffff161480156126fd575082818151811061268257612681613ed4565b5b602002602001015160405160200161269a919061409a565b60405160208183030381529060405280519060200120600083815481106126c4576126c3613ed4565b5b90600052602060002090600402016001016040516020016126e59190614993565b60405160208183030381529060405280519060200120145b1561270e576001935050505061273c565b80806127199061436e565b9150506125eb565b50808061272d9061436e565b9150506125db565b5060009150505b92915050565b61278233826040518060400160405280600681526020017f64656c6574650000000000000000000000000000000000000000000000000000815250612447565b801561287a575060405160200161279890614402565b60405160208183030381529060405280519060200120600160009054906101000a900473ffffffffffffffffffffffffffffffffffffffff1673ffffffffffffffffffffffffffffffffffffffff1662438ceb836040518263ffffffff1660e01b81526004016128089190614417565b600060405180830381865afa158015612825573d6000803e3d6000fd5b505050506040513d6000823e3d601f19601f8201168201806040525081019061284e9190614015565b60200151604051602001612862919061409a565b60405160208183030381529060405280519060200120145b1561299e57600160009054906101000a900473ffffffffffffffffffffffffffffffffffffffff1673ffffffffffffffffffffffffffffffffffffffff166374546fdf826040518263ffffffff1660e01b81526004016128da9190614417565b600060405180830381600087803b1580156128f457600080fd5b505af1158015612908573d6000803e3d6000fd5b50505050600360009054906101000a900473ffffffffffffffffffffffffffffffffffffffff1673ffffffffffffffffffffffffffffffffffffffff1663c47ebddc3383856040518463ffffffff1660e01b815260040161296b939291906149f6565b600060405180830381600087803b15801561298557600080fd5b505af1158015612999573d6000803e3d6000fd5b505050505b5050565b60008273ffffffffffffffffffffffffffffffffffffffff163373ffffffffffffffffffffffffffffffffffffffff161480156129e657506129e48383610fa2565b155b8015612a8a5750600260009054906101000a900473ffffffffffffffffffffffffffffffffffffffff1673ffffffffffffffffffffffffffffffffffffffff1663a240e426846040518263ffffffff1660e01b8152600401612a4891906134b6565b602060405180830381865afa158015612a65573d6000803e3d6000fd5b505050506040513d601f19601f82011682018060405250810190612a899190613a32565b5b15612a985760019050612a9d565b600090505b92915050565b828054828255906000526020600020908101928215612aeb579160200282015b82811115612aea578251829081612ada9190613c75565b5091602001919060010190612ac3565b5b509050612af89190612ba3565b5090565b6040518060400160405280600015158152602001606081525090565b6040518060e00160405280606081526020016060815260200160008152602001600073ffffffffffffffffffffffffffffffffffffffff1681526020016060815260200160608152602001606081525090565b6040518060400160405280600015158152602001606081525090565b6040518060400160405280600015158152602001606081525090565b5b80821115612bc35760008181612bba9190612bc7565b50600101612ba4565b5090565b508054612bd390613a8e565b6000825580601f10612be55750612c04565b601f016020900490600052602060002090810190612c039190612c07565b5b50565b5b80821115612c20576000816000905550600101612c08565b5090565b6000604051905090565b600080fd5b600080fd5b600073ffffffffffffffffffffffffffffffffffffffff82169050919050565b6000612c6382612c38565b9050919050565b612c7381612c58565b8114612c7e57600080fd5b50565b600081359050612c9081612c6a565b92915050565b600080fd5b600080fd5b6000601f19601f8301169050919050565b7f4e487b7100000000000000000000000000000000000000000000000000000000600052604160045260246000fd5b612ce982612ca0565b810181811067ffffffffffffffff82111715612d0857612d07612cb1565b5b80604052505050565b6000612d1b612c24565b9050612d278282612ce0565b919050565b600067ffffffffffffffff821115612d4757612d46612cb1565b5b612d5082612ca0565b9050602081019050919050565b82818337600083830152505050565b6000612d7f612d7a84612d2c565b612d11565b905082815260208101848484011115612d9b57612d9a612c9b565b5b612da6848285612d5d565b509392505050565b600082601f830112612dc357612dc2612c96565b5b8135612dd3848260208601612d6c565b91505092915050565b600067ffffffffffffffff821115612df757612df6612cb1565b5b602082029050602081019050919050565b600080fd5b6000612e20612e1b84612ddc565b612d11565b90508083825260208201905060208402830185811115612e4357612e42612e08565b5b835b81811015612e8a57803567ffffffffffffffff811115612e6857612e67612c96565b5b808601612e758982612dae565b85526020850194505050602081019050612e45565b5050509392505050565b600082601f830112612ea957612ea8612c96565b5b8135612eb9848260208601612e0d565b91505092915050565b60008060008060808587031215612edc57612edb612c2e565b5b6000612eea87828801612c81565b945050602085013567ffffffffffffffff811115612f0b57612f0a612c33565b5b612f1787828801612dae565b935050604085013567ffffffffffffffff811115612f3857612f37612c33565b5b612f4487828801612dae565b925050606085013567ffffffffffffffff811115612f6557612f64612c33565b5b612f7187828801612e94565b91505092959194509250565b60008060408385031215612f9457612f93612c2e565b5b6000612fa285828601612c81565b925050602083013567ffffffffffffffff811115612fc357612fc2612c33565b5b612fcf85828601612dae565b9150509250929050565b60008115159050919050565b612fee81612fd9565b82525050565b600081519050919050565b600082825260208201905092915050565b6000819050602082019050919050565b600081519050919050565b600082825260208201905092915050565b60005b8381101561305a57808201518184015260208101905061303f565b60008484015250505050565b600061307182613020565b61307b818561302b565b935061308b81856020860161303c565b61309481612ca0565b840191505092915050565b6000819050919050565b6130b28161309f565b82525050565b6130c181612c58565b82525050565b600060e08301600083015184820360008601526130e48282613066565b915050602083015184820360208601526130fe8282613066565b915050604083015161311360408601826130a9565b50606083015161312660608601826130b8565b506080830151848203608086015261313e8282613066565b91505060a083015184820360a08601526131588282613066565b91505060c083015184820360c08601526131728282613066565b9150508091505092915050565b600061318b83836130c7565b905092915050565b6000602082019050919050565b60006131ab82612ff4565b6131b58185612fff565b9350836020820285016131c785613010565b8060005b8581101561320357848403895281516131e4858261317f565b94506131ef83613193565b925060208a019950506001810190506131cb565b50829750879550505050505092915050565b600060408301600083015161322d6000860182612fe5565b506020830151848203602086015261324582826131a0565b9150508091505092915050565b6000602082019050818103600083015261326c8184613215565b905092915050565b600081519050919050565b600082825260208201905092915050565b6000819050602082019050919050565b60006132ac8383613066565b905092915050565b6000602082019050919050565b60006132cc82613274565b6132d6818561327f565b9350836020820285016132e885613290565b8060005b85811015613324578484038952815161330585826132a0565b9450613310836132b4565b925060208a019950506001810190506132ec565b50829750879550505050505092915050565b600060408301600083015161334e6000860182612fe5565b506020830151848203602086015261336682826132c1565b9150508091505092915050565b6000602082019050818103600083015261338d8184613336565b905092915050565b61339e81612fd9565b82525050565b60006020820190506133b96000830184613395565b92915050565b6000602082840312156133d5576133d4612c2e565b5b600082013567ffffffffffffffff8111156133f3576133f2612c33565b5b6133ff84828501612dae565b91505092915050565b6000806000806080858703121561342257613421612c2e565b5b600061343087828801612c81565b945050602061344187828801612c81565b935050604085013567ffffffffffffffff81111561346257613461612c33565b5b61346e87828801612dae565b925050606085013567ffffffffffffffff81111561348f5761348e612c33565b5b61349b87828801612dae565b91505092959194509250565b6134b081612c58565b82525050565b60006020820190506134cb60008301846134a7565b92915050565b600080fd5b600080fd5b6134e48161309f565b81146134ef57600080fd5b50565b600081359050613501816134db565b92915050565b600060e0828403121561351d5761351c6134d1565b5b61352760e0612d11565b9050600082013567ffffffffffffffff811115613547576135466134d6565b5b61355384828501612dae565b600083015250602082013567ffffffffffffffff811115613577576135766134d6565b5b61358384828501612dae565b6020830152506040613597848285016134f2565b60408301525060606135ab84828501612c81565b606083015250608082013567ffffffffffffffff8111156135cf576135ce6134d6565b5b6135db84828501612dae565b60808301525060a082013567ffffffffffffffff8111156135ff576135fe6134d6565b5b61360b84828501612dae565b60a08301525060c082013567ffffffffffffffff81111561362f5761362e6134d6565b5b61363b84828501612dae565b60c08301525092915050565b6000806000606084860312156136605761365f612c2e565b5b600061366e86828701612c81565b935050602084013567ffffffffffffffff81111561368f5761368e612c33565b5b61369b86828701613507565b925050604084013567ffffffffffffffff8111156136bc576136bb612c33565b5b6136c886828701612dae565b9150509250925092565b600080604083850312156136e9576136e8612c2e565b5b600083013567ffffffffffffffff81111561370757613706612c33565b5b61371385828601612dae565b925050602061372485828601612c81565b9150509250929050565b60008060006060848603121561374757613746612c2e565b5b600061375586828701612c81565b935050602084013567ffffffffffffffff81111561377657613775612c33565b5b61378286828701612dae565b925050604084013567ffffffffffffffff8111156137a3576137a2612c33565b5b6137af86828701612e94565b9150509250925092565b60006040830160008301516137d16000860182612fe5565b50602083015184820360208601526137e98282613066565b9150508091505092915050565b6000602082019050818103600083015261381081846137b9565b905092915050565b60008060006060848603121561383157613830612c2e565b5b600061383f86828701612c81565b935050602084013567ffffffffffffffff8111156138605761385f612c33565b5b61386c86828701612dae565b925050604084013567ffffffffffffffff81111561388d5761388c612c33565b5b61389986828701612dae565b9150509250925092565b600082825260208201905092915050565b60006138bf82613020565b6138c981856138a3565b93506138d981856020860161303c565b6138e281612ca0565b840191505092915050565b600082825260208201905092915050565b600061390982613274565b61391381856138ed565b93508360208202850161392585613290565b8060005b85811015613961578484038952815161394285826132a0565b945061394d836132b4565b925060208a01995050600181019050613929565b50829750879550505050505092915050565b50565b60006139836000836138a3565b915061398e82613973565b600082019050919050565b600060a0820190506139ae60008301876134a7565b81810360208301526139c081866138b4565b905081810360408301526139d481856138b4565b905081810360608301526139e881846138fe565b905081810360808301526139fb81613976565b905095945050505050565b613a0f81612fd9565b8114613a1a57600080fd5b50565b600081519050613a2c81613a06565b92915050565b600060208284031215613a4857613a47612c2e565b5b6000613a5684828501613a1d565b91505092915050565b7f4e487b7100000000000000000000000000000000000000000000000000000000600052602260045260246000fd5b60006002820490506001821680613aa657607f821691505b602082108103613ab957613ab8613a5f565b5b50919050565b60008190508160005260206000209050919050565b60006020601f8301049050919050565b600082821b905092915050565b600060088302613b217fffffffffffffffffffffffffffffffffffffffffffffffffffffffffffffffff82613ae4565b613b2b8683613ae4565b95508019841693508086168417925050509392505050565b6000819050919050565b6000819050919050565b6000613b72613b6d613b6884613b43565b613b4d565b613b43565b9050919050565b6000819050919050565b613b8c83613b57565b613ba0613b9882613b79565b848454613af1565b825550505050565b600090565b613bb5613ba8565b613bc0818484613b83565b505050565b5b81811015613be457613bd9600082613bad565b600181019050613bc6565b5050565b601f821115613c2957613bfa81613abf565b613c0384613ad4565b81016020851015613c12578190505b613c26613c1e85613ad4565b830182613bc5565b50505b505050565b600082821c905092915050565b6000613c4c60001984600802613c2e565b1980831691505092915050565b6000613c658383613c3b565b9150826002028217905092915050565b613c7e82613020565b67ffffffffffffffff811115613c9757613c96612cb1565b5b613ca18254613a8e565b613cac828285613be8565b600060209050601f831160018114613cdf5760008415613ccd578287015190505b613cd78582613c59565b865550613d3f565b601f198416613ced86613abf565b60005b82811015613d1557848901518255600182019150602085019450602081019050613cf0565b86831015613d325784890151613d2e601f891682613c3b565b8355505b6001600288020188555050505b505050505050565b60006020820190508181036000830152613d6181846138fe565b905092915050565b6000613d7c613d7784612d2c565b612d11565b905082815260208101848484011115613d9857613d97612c9b565b5b613da384828561303c565b509392505050565b600082601f830112613dc057613dbf612c96565b5b8151613dd0848260208601613d69565b91505092915050565b600060208284031215613def57613dee612c2e565b5b600082015167ffffffffffffffff811115613e0d57613e0c612c33565b5b613e1984828501613dab565b91505092915050565b7f7368617265000000000000000000000000000000000000000000000000000000600082015250565b6000613e586005836138a3565b9150613e6382613e22565b602082019050919050565b600060a082019050613e8360008301876134a7565b8181036020830152613e9581866138b4565b9050613ea460408301856134a7565b8181036060830152613eb681846138b4565b90508181036080830152613ec981613e4b565b905095945050505050565b7f4e487b7100000000000000000000000000000000000000000000000000000000600052603260045260246000fd5b60008154613f1081613a8e565b613f1a81866138a3565b94506001821660008114613f355760018114613f4b57613f7e565b60ff198316865281151560200286019350613f7e565b613f5485613abf565b60005b83811015613f7657815481890152600182019150602081019050613f57565b808801955050505b50505092915050565b60006020820190508181036000830152613fa18184613f03565b905092915050565b600060408284031215613fbf57613fbe6134d1565b5b613fc96040612d11565b90506000613fd984828501613a1d565b600083015250602082015167ffffffffffffffff811115613ffd57613ffc6134d6565b5b61400984828501613dab565b60208301525092915050565b60006020828403121561402b5761402a612c2e565b5b600082015167ffffffffffffffff81111561404957614048612c33565b5b61405584828501613fa9565b91505092915050565b600081905092915050565b600061407482613020565b61407e818561405e565b935061408e81856020860161303c565b80840191505092915050565b60006140a68284614069565b915081905092915050565b60006140be60008361405e565b91506140c982613973565b600082019050919050565b60006140df826140b1565b9150819050919050565b6000604082019050818103600083015261410381856138b4565b9050818103602083015261411781846138b4565b90509392505050565b60008151905061412f816134db565b92915050565b60008151905061414481612c6a565b92915050565b600060e082840312156141605761415f6134d1565b5b61416a60e0612d11565b9050600082015167ffffffffffffffff81111561418a576141896134d6565b5b61419684828501613dab565b600083015250602082015167ffffffffffffffff8111156141ba576141b96134d6565b5b6141c684828501613dab565b60208301525060406141da84828501614120565b60408301525060606141ee84828501614135565b606083015250608082015167ffffffffffffffff811115614212576142116134d6565b5b61421e84828501613dab565b60808301525060a082015167ffffffffffffffff811115614242576142416134d6565b5b61424e84828501613dab565b60a08301525060c082015167ffffffffffffffff811115614272576142716134d6565b5b61427e84828501613dab565b60c08301525092915050565b6000604082840312156142a05761429f6134d1565b5b6142aa6040612d11565b905060006142ba84828501613a1d565b600083015250602082015167ffffffffffffffff8111156142de576142dd6134d6565b5b6142ea8482850161414a565b60208301525092915050565b60006020828403121561430c5761430b612c2e565b5b600082015167ffffffffffffffff81111561432a57614329612c33565b5b6143368482850161428a565b91505092915050565b7f4e487b7100000000000000000000000000000000000000000000000000000000600052601160045260246000fd5b600061437982613b43565b91507fffffffffffffffffffffffffffffffffffffffffffffffffffffffffffffffff82036143ab576143aa61433f565b5b600182019050919050565b7f6163746976650000000000000000000000000000000000000000000000000000600082015250565b60006143ec60068361405e565b91506143f7826143b6565b600682019050919050565b600061440d826143df565b9150819050919050565b6000602082019050818103600083015261443181846138b4565b905092915050565b600060408201905061444e60008301856134a7565b818103602083015261446081846138b4565b90509392505050565b600060a08201905061447e60008301886134a7565b818103602083015261449081876138b4565b905081810360408301526144a481866138b4565b905081810360608301526144b881856138fe565b905081810360808301526144cc81846138b4565b90509695505050505050565b600060e08301600083015184820360008601526144f58282613066565b9150506020830151848203602086015261450f8282613066565b915050604083015161452460408601826130a9565b50606083015161453760608601826130b8565b506080830151848203608086015261454f8282613066565b91505060a083015184820360a08601526145698282613066565b91505060c083015184820360c08601526145838282613066565b9150508091505092915050565b600060208201905081810360008301526145aa81846144d8565b905092915050565b7f75706c6f61640000000000000000000000000000000000000000000000000000600082015250565b60006145e86006836138a3565b91506145f3826145b2565b602082019050919050565b600060a08201905061461360008301876134a7565b818103602083015261462581866138b4565b905061463460408301856134a7565b818103606083015261464681846138b4565b90508181036080830152614659816145db565b905095945050505050565b7f2d00000000000000000000000000000000000000000000000000000000000000600082015250565b600061469a6001836138a3565b91506146a582614664565b602082019050919050565b7f646f776e6c6f6164000000000000000000000000000000000000000000000000600082015250565b60006146e66008836138a3565b91506146f1826146b0565b602082019050919050565b600060a08201905061471160008301866134a7565b818103602083015261472381856138b4565b905061473260408301846134a7565b81810360608301526147438161468d565b90508181036080830152614756816146d9565b9050949350505050565b7f757064617465207065726d697373696f6e730000000000000000000000000000600082015250565b60006147966012836138a3565b91506147a182614760565b602082019050919050565b600060a0820190506147c160008301876134a7565b81810360208301526147d381866138b4565b90506147e260408301856134a7565b81810360608301526147f481846138b4565b9050818103608083015261480781614789565b905095945050505050565b600061482561482084612ddc565b612d11565b9050808382526020820190506020840283018581111561484857614847612e08565b5b835b8181101561488f57805167ffffffffffffffff81111561486d5761486c612c96565b5b80860161487a8982613dab565b8552602085019450505060208101905061484a565b5050509392505050565b600082601f8301126148ae576148ad612c96565b5b81516148be848260208601614812565b91505092915050565b6000602082840312156148dd576148dc612c2e565b5b600082015167ffffffffffffffff8111156148fb576148fa612c33565b5b61490784828501614899565b91505092915050565b6000815461491d81613a8e565b614927818661405e565b9450600182166000811461494257600181146149575761498a565b60ff198316865281151582028601935061498a565b61496085613abf565b60005b8381101561498257815481890152600182019150602081019050614963565b838801955050505b50505092915050565b600061499f8284614910565b915081905092915050565b7f64656c6574656400000000000000000000000000000000000000000000000000600082015250565b60006149e06007836138a3565b91506149eb826149aa565b602082019050919050565b600060a082019050614a0b60008301866134a7565b8181036020830152614a1d81856138b4565b9050614a2c60408301846134a7565b8181036060830152614a3d8161468d565b90508181036080830152614a50816149d3565b905094935050505056fea2646970667358221220257a9da2d0d1213b7afa8bd89b6580215a23518901ff895937ad5b920819967c64736f6c6343000813003360806040523480156200001157600080fd5b506040516200235a3803806200235a8339818101604052810190620000379190620000e9565b80600260006101000a81548173ffffffffffffffffffffffffffffffffffffffff021916908373ffffffffffffffffffffffffffffffffffffffff160217905550506200011b565b600080fd5b600073ffffffffffffffffffffffffffffffffffffffff82169050919050565b6000620000b18262000084565b9050919050565b620000c381620000a4565b8114620000cf57600080fd5b50565b600081519050620000e381620000b8565b92915050565b6000602082840312156200010257620001016200007f565b5b60006200011284828501620000d2565b91505092915050565b61222f806200012b6000396000f3fe608060405234801561001057600080fd5b506004361061009d5760003560e01c806374546fdf1161006657806374546fdf1461019257806384c107ff146101ae5780639bccd6ad146101de578063af205f5c1461020e578063e8d56b8b1461022a5761009d565b8062438ceb146100a257806347eb6fa7146100d25780634907904b1461010257806352a9baef146101325780637113c4dd14610162575b600080fd5b6100bc60048036038101906100b791906114d8565b610246565b6040516100c991906115f8565b60405180910390f35b6100ec60048036038101906100e7919061161a565b61039a565b6040516100f991906117e1565b60405180910390f35b61011c600480360381019061011791906114d8565b6108d9565b6040516101299190611812565b60405180910390f35b61014c60048036038101906101479190611859565b610a48565b60405161015991906118c4565b60405180910390f35b61017c600480360381019061017791906114d8565b610b2c565b60405161018991906119a1565b60405180910390f35b6101ac60048036038101906101a791906114d8565b610dce565b005b6101c860048036038101906101c39190611b39565b610e8b565b6040516101d591906118c4565b60405180910390f35b6101f860048036038101906101f391906114d8565b610fb0565b60405161020591906118c4565b60405180910390f35b61022860048036038101906102239190611b39565b611054565b005b610244600480360381019061023f9190611b82565b611218565b005b61024e6112ed565b600360009054906101000a900473ffffffffffffffffffffffffffffffffffffffff1673ffffffffffffffffffffffffffffffffffffffff163373ffffffffffffffffffffffffffffffffffffffff160361036b5760405180604001604052806001151581526020016000846040516102c79190611beb565b908152602001604051809103902060060180546102e390611c31565b80601f016020809104026020016040519081016040528092919081815260200182805461030f90611c31565b801561035c5780601f106103315761010080835404028352916020019161035c565b820191906000526020600020905b81548152906001019060200180831161033f57829003601f168201915b50505050508152509050610395565b60405180604001604052806000151581526020016040518060200160405280600081525081525090505b919050565b6103a2611309565b600080846040516103b39190611beb565b908152602001604051809103902060010180546103cf90611c31565b905011801561049d5750816040516020016103ea9190611beb565b604051602081830303815290604052805190602001206000846040516104109190611beb565b90815260200160405180910390206006016040516020016104319190611cfa565b60405160208183030381529060405280519060200120148061049c575060405160200161045d90611d37565b60405160208183030381529060405280519060200120826040516020016104849190611beb565b60405160208183030381529060405280519060200120145b5b156108235760405180604001604052806001151581526020016000856040516104c69190611beb565b90815260200160405180910390206040518060e00160405290816000820180546104ef90611c31565b80601f016020809104026020016040519081016040528092919081815260200182805461051b90611c31565b80156105685780601f1061053d57610100808354040283529160200191610568565b820191906000526020600020905b81548152906001019060200180831161054b57829003601f168201915b5050505050815260200160018201805461058190611c31565b80601f01602080910402602001604051908101604052809291908181526020018280546105ad90611c31565b80156105fa5780601f106105cf576101008083540402835291602001916105fa565b820191906000526020600020905b8154815290600101906020018083116105dd57829003601f168201915b50505050508152602001600282015481526020016003820160009054906101000a900473ffffffffffffffffffffffffffffffffffffffff1673ffffffffffffffffffffffffffffffffffffffff1673ffffffffffffffffffffffffffffffffffffffff16815260200160048201805461067390611c31565b80601f016020809104026020016040519081016040528092919081815260200182805461069f90611c31565b80156106ec5780601f106106c1576101008083540402835291602001916106ec565b820191906000526020600020905b8154815290600101906020018083116106cf57829003601f168201915b5050505050815260200160058201805461070590611c31565b80601f016020809104026020016040519081016040528092919081815260200182805461073190611c31565b801561077e5780601f106107535761010080835404028352916020019161077e565b820191906000526020600020905b81548152906001019060200180831161076157829003601f168201915b5050505050815260200160068201805461079790611c31565b80601f01602080910402602001604051908101604052809291908181526020018280546107c390611c31565b80156108105780601f106107e557610100808354040283529160200191610810565b820191906000526020600020905b8154815290600101906020018083116107f357829003601f168201915b50505050508152505081525090506108d3565b60405180604001604052806000151581526020016040518060e0016040528060405180602001604052806000815250815260200160405180602001604052806000815250815260200160008152602001600073ffffffffffffffffffffffffffffffffffffffff1681526020016040518060200160405280600081525081526020016040518060200160405280600081525081526020016040518060200160405280600081525081525081525090505b92915050565b6000807fffffffffffffffffffffffffffffffffffffffffffffffffffffffffffffffff905060005b600180549050811015610a3e57836040516020016109209190611beb565b6040516020818303038152906040528051906020012060006001838154811061094c5761094b611d4c565b5b906000526020600020016040516109639190611cfa565b90815260200160405180910390206001016040516020016109849190611cfa565b604051602081830303815290604052805190602001201480156109e45750816000600183815481106109b9576109b8611d4c565b5b906000526020600020016040516109d09190611cfa565b908152602001604051809103902060020154135b15610a2b576000600182815481106109ff576109fe611d4c565b5b90600052602060002001604051610a169190611cfa565b90815260200160405180910390206002015491505b8080610a3690611db4565b915050610902565b5080915050919050565b60008273ffffffffffffffffffffffffffffffffffffffff16600083604051610a719190611beb565b908152602001604051809103902060030160009054906101000a900473ffffffffffffffffffffffffffffffffffffffff1673ffffffffffffffffffffffffffffffffffffffff16148015610b135750600360009054906101000a900473ffffffffffffffffffffffffffffffffffffffff1673ffffffffffffffffffffffffffffffffffffffff163373ffffffffffffffffffffffffffffffffffffffff16145b15610b215760019050610b26565b600090505b92915050565b6060600060018054905067ffffffffffffffff811115610b4f57610b4e6113ad565b5b604051908082528060200260200182016040528015610b8257816020015b6060815260200190600190039081610b6d5790505b5090506000805b600180549050811015610dc05784604051602001610ba79190611beb565b60405160208183030381529060405280519060200120600060018381548110610bd357610bd2611d4c565b5b90600052602060002001604051610bea9190611cfa565b9081526020016040518091039020600101604051602001610c0b9190611cfa565b60405160208183030381529060405280519060200120148015610cb45750604051602001610c3890611e48565b60405160208183030381529060405280519060200120600060018381548110610c6457610c63611d4c565b5b90600052602060002001604051610c7b9190611cfa565b9081526020016040518091039020600601604051602001610c9c9190611cfa565b60405160208183030381529060405280519060200120145b15610dad57600060018281548110610ccf57610cce611d4c565b5b90600052602060002001604051610ce69190611cfa565b90815260200160405180910390206000018054610d0290611c31565b80601f0160208091040260200160405190810160405280929190818152602001828054610d2e90611c31565b8015610d7b5780601f10610d5057610100808354040283529160200191610d7b565b820191906000526020600020905b815481529060010190602001808311610d5e57829003601f168201915b5050505050838381518110610d9357610d92611d4c565b5b60200260200101819052508180610da990611db4565b9250505b8080610db890611db4565b915050610b89565b508082528192505050919050565b600360009054906101000a900473ffffffffffffffffffffffffffffffffffffffff1673ffffffffffffffffffffffffffffffffffffffff163373ffffffffffffffffffffffffffffffffffffffff1603610e88576040518060400160405280600881526020017f6465616374697665000000000000000000000000000000000000000000000000815250600082604051610e699190611beb565b90815260200160405180910390206006019081610e869190611ff4565b505b50565b6000610e9a8260000151610fb0565b158015610f3f5750600260009054906101000a900473ffffffffffffffffffffffffffffffffffffffff1673ffffffffffffffffffffffffffffffffffffffff166312a8d91c836040518263ffffffff1660e01b8152600401610efd919061217e565b602060405180830381865afa158015610f1a573d6000803e3d6000fd5b505050506040513d601f19601f82011682018060405250810190610f3e91906121cc565b5b8015610f985750600360009054906101000a900473ffffffffffffffffffffffffffffffffffffffff1673ffffffffffffffffffffffffffffffffffffffff163373ffffffffffffffffffffffffffffffffffffffff16145b15610fa65760019050610fab565b600090505b919050565b600080600083604051610fc39190611beb565b90815260200160405180910390206000018054610fdf90611c31565b90501415801561103c5750600360009054906101000a900473ffffffffffffffffffffffffffffffffffffffff1673ffffffffffffffffffffffffffffffffffffffff163373ffffffffffffffffffffffffffffffffffffffff16145b1561104a576001905061104f565b600090505b919050565b600360009054906101000a900473ffffffffffffffffffffffffffffffffffffffff1673ffffffffffffffffffffffffffffffffffffffff163373ffffffffffffffffffffffffffffffffffffffff1603611215576110b281610e8b565b15611214576040518060400160405280600681526020017f61637469766500000000000000000000000000000000000000000000000000008152508160c00181905250806000826000015160405161110a9190611beb565b9081526020016040518091039020600082015181600001908161112d9190611ff4565b5060208201518160010190816111439190611ff4565b506040820151816002015560608201518160030160006101000a81548173ffffffffffffffffffffffffffffffffffffffff021916908373ffffffffffffffffffffffffffffffffffffffff16021790555060808201518160040190816111aa9190611ff4565b5060a08201518160050190816111c09190611ff4565b5060c08201518160060190816111d69190611ff4565b50905050600181600001519080600181540180825580915050600190039060005260206000200160009091909190915090816112129190611ff4565b505b5b50565b600073ffffffffffffffffffffffffffffffffffffffff168173ffffffffffffffffffffffffffffffffffffffff16141580156112a35750600073ffffffffffffffffffffffffffffffffffffffff16600360009054906101000a900473ffffffffffffffffffffffffffffffffffffffff1673ffffffffffffffffffffffffffffffffffffffff16145b156112ea5780600360006101000a81548173ffffffffffffffffffffffffffffffffffffffff021916908373ffffffffffffffffffffffffffffffffffffffff1602179055505b50565b6040518060400160405280600015158152602001606081525090565b604051806040016040528060001515815260200161132561132b565b81525090565b6040518060e00160405280606081526020016060815260200160008152602001600073ffffffffffffffffffffffffffffffffffffffff1681526020016060815260200160608152602001606081525090565b6000604051905090565b600080fd5b600080fd5b600080fd5b600080fd5b6000601f19601f8301169050919050565b7f4e487b7100000000000000000000000000000000000000000000000000000000600052604160045260246000fd5b6113e58261139c565b810181811067ffffffffffffffff82111715611404576114036113ad565b5b80604052505050565b600061141761137e565b905061142382826113dc565b919050565b600067ffffffffffffffff821115611443576114426113ad565b5b61144c8261139c565b9050602081019050919050565b82818337600083830152505050565b600061147b61147684611428565b61140d565b90508281526020810184848401111561149757611496611397565b5b6114a2848285611459565b509392505050565b600082601f8301126114bf576114be611392565b5b81356114cf848260208601611468565b91505092915050565b6000602082840312156114ee576114ed611388565b5b600082013567ffffffffffffffff81111561150c5761150b61138d565b5b611518848285016114aa565b91505092915050565b60008115159050919050565b61153681611521565b82525050565b600081519050919050565b600082825260208201905092915050565b60005b8381101561157657808201518184015260208101905061155b565b60008484015250505050565b600061158d8261153c565b6115978185611547565b93506115a7818560208601611558565b6115b08161139c565b840191505092915050565b60006040830160008301516115d3600086018261152d565b50602083015184820360208601526115eb8282611582565b9150508091505092915050565b6000602082019050818103600083015261161281846115bb565b905092915050565b6000806040838503121561163157611630611388565b5b600083013567ffffffffffffffff81111561164f5761164e61138d565b5b61165b858286016114aa565b925050602083013567ffffffffffffffff81111561167c5761167b61138d565b5b611688858286016114aa565b9150509250929050565b6000819050919050565b6116a581611692565b82525050565b600073ffffffffffffffffffffffffffffffffffffffff82169050919050565b60006116d6826116ab565b9050919050565b6116e6816116cb565b82525050565b600060e08301600083015184820360008601526117098282611582565b915050602083015184820360208601526117238282611582565b9150506040830151611738604086018261169c565b50606083015161174b60608601826116dd565b50608083015184820360808601526117638282611582565b91505060a083015184820360a086015261177d8282611582565b91505060c083015184820360c08601526117978282611582565b9150508091505092915050565b60006040830160008301516117bc600086018261152d565b50602083015184820360208601526117d482826116ec565b9150508091505092915050565b600060208201905081810360008301526117fb81846117a4565b905092915050565b61180c81611692565b82525050565b60006020820190506118276000830184611803565b92915050565b611836816116cb565b811461184157600080fd5b50565b6000813590506118538161182d565b92915050565b600080604083850312156118705761186f611388565b5b600061187e85828601611844565b925050602083013567ffffffffffffffff81111561189f5761189e61138d565b5b6118ab858286016114aa565b9150509250929050565b6118be81611521565b82525050565b60006020820190506118d960008301846118b5565b92915050565b600081519050919050565b600082825260208201905092915050565b6000819050602082019050919050565b60006119178383611582565b905092915050565b6000602082019050919050565b6000611937826118df565b61194181856118ea565b935083602082028501611953856118fb565b8060005b8581101561198f5784840389528151611970858261190b565b945061197b8361191f565b925060208a01995050600181019050611957565b50829750879550505050505092915050565b600060208201905081810360008301526119bb818461192c565b905092915050565b600080fd5b600080fd5b6119d681611692565b81146119e157600080fd5b50565b6000813590506119f3816119cd565b92915050565b600060e08284031215611a0f57611a0e6119c3565b5b611a1960e061140d565b9050600082013567ffffffffffffffff811115611a3957611a386119c8565b5b611a45848285016114aa565b600083015250602082013567ffffffffffffffff811115611a6957611a686119c8565b5b611a75848285016114aa565b6020830152506040611a89848285016119e4565b6040830152506060611a9d84828501611844565b606083015250608082013567ffffffffffffffff811115611ac157611ac06119c8565b5b611acd848285016114aa565b60808301525060a082013567ffffffffffffffff811115611af157611af06119c8565b5b611afd848285016114aa565b60a08301525060c082013567ffffffffffffffff811115611b2157611b206119c8565b5b611b2d848285016114aa565b60c08301525092915050565b600060208284031215611b4f57611b4e611388565b5b600082013567ffffffffffffffff811115611b6d57611b6c61138d565b5b611b79848285016119f9565b91505092915050565b600060208284031215611b9857611b97611388565b5b6000611ba684828501611844565b91505092915050565b600081905092915050565b6000611bc58261153c565b611bcf8185611baf565b9350611bdf818560208601611558565b80840191505092915050565b6000611bf78284611bba565b915081905092915050565b7f4e487b7100000000000000000000000000000000000000000000000000000000600052602260045260246000fd5b60006002820490506001821680611c4957607f821691505b602082108103611c5c57611c5b611c02565b5b50919050565b60008190508160005260206000209050919050565b60008154611c8481611c31565b611c8e8186611baf565b94506001821660008114611ca95760018114611cbe57611cf1565b60ff1983168652811515820286019350611cf1565b611cc785611c62565b60005b83811015611ce957815481890152600182019150602081019050611cca565b838801955050505b50505092915050565b6000611d068284611c77565b915081905092915050565b50565b6000611d21600083611baf565b9150611d2c82611d11565b600082019050919050565b6000611d4282611d14565b9150819050919050565b7f4e487b7100000000000000000000000000000000000000000000000000000000600052603260045260246000fd5b7f4e487b7100000000000000000000000000000000000000000000000000000000600052601160045260246000fd5b6000819050919050565b6000611dbf82611daa565b91507fffffffffffffffffffffffffffffffffffffffffffffffffffffffffffffffff8203611df157611df0611d7b565b5b600182019050919050565b7f6163746976650000000000000000000000000000000000000000000000000000600082015250565b6000611e32600683611baf565b9150611e3d82611dfc565b600682019050919050565b6000611e5382611e25565b9150819050919050565b60006020601f8301049050919050565b600082821b905092915050565b600060088302611eaa7fffffffffffffffffffffffffffffffffffffffffffffffffffffffffffffffff82611e6d565b611eb48683611e6d565b95508019841693508086168417925050509392505050565b6000819050919050565b6000611ef1611eec611ee784611daa565b611ecc565b611daa565b9050919050565b6000819050919050565b611f0b83611ed6565b611f1f611f1782611ef8565b848454611e7a565b825550505050565b600090565b611f34611f27565b611f3f818484611f02565b505050565b5b81811015611f6357611f58600082611f2c565b600181019050611f45565b5050565b601f821115611fa857611f7981611c62565b611f8284611e5d565b81016020851015611f91578190505b611fa5611f9d85611e5d565b830182611f44565b50505b505050565b600082821c905092915050565b6000611fcb60001984600802611fad565b1980831691505092915050565b6000611fe48383611fba565b9150826002028217905092915050565b611ffd8261153c565b67ffffffffffffffff811115612016576120156113ad565b5b6120208254611c31565b61202b828285611f67565b600060209050601f83116001811461205e576000841561204c578287015190505b6120568582611fd8565b8655506120be565b601f19841661206c86611c62565b60005b828110156120945784890151825560018201915060208501945060208101905061206f565b868310156120b157848901516120ad601f891682611fba565b8355505b6001600288020188555050505b505050505050565b600060e08301600083015184820360008601526120e38282611582565b915050602083015184820360208601526120fd8282611582565b9150506040830151612112604086018261169c565b50606083015161212560608601826116dd565b506080830151848203608086015261213d8282611582565b91505060a083015184820360a08601526121578282611582565b91505060c083015184820360c08601526121718282611582565b9150508091505092915050565b6000602082019050818103600083015261219881846120c6565b905092915050565b6121a981611521565b81146121b457600080fd5b50565b6000815190506121c6816121a0565b92915050565b6000602082840312156121e2576121e1611388565b5b60006121f0848285016121b7565b9150509291505056fea2646970667358221220e99e1245621a6d64c7343419ddb3425e0ec508f76c213520fe4a047a2cf73aba64736f6c6343000813003360806040523480156200001157600080fd5b5060405162001a6a38038062001a6a8339818101604052810190620000379190620000e9565b80600360006101000a81548173ffffffffffffffffffffffffffffffffffffffff021916908373ffffffffffffffffffffffffffffffffffffffff160217905550506200011b565b600080fd5b600073ffffffffffffffffffffffffffffffffffffffff82169050919050565b6000620000b18262000084565b9050919050565b620000c381620000a4565b8114620000cf57600080fd5b50565b600081519050620000e381620000b8565b92915050565b6000602082840312156200010257620001016200007f565b5b60006200011284828501620000d2565b91505092915050565b61193f806200012b6000396000f3fe608060405234801561001057600080fd5b50600436106100885760003560e01c8063857cdbb81161005b578063857cdbb814610139578063a240e42614610169578063b0c22a5614610199578063eeb9ab18146101c957610088565b80632b4bce8b1461008d57806367156cf1146100bd5780636f77926b146100ed57806375e9493f1461011d575b600080fd5b6100a760048036038101906100a291906111d7565b6101f9565b6040516100b4919061123b565b60405180910390f35b6100d760048036038101906100d29190611256565b610313565b6040516100e4919061134e565b60405180910390f35b61010760048036038101906101029190611256565b6104c7565b604051610114919061142d565b60405180910390f35b610137600480360381019061013291906111d7565b61088f565b005b610153600480360381019061014e9190611256565b610b1e565b604051610160919061134e565b60405180910390f35b610183600480360381019061017e9190611256565b610cd2565b604051610190919061123b565b60405180910390f35b6101b360048036038101906101ae919061144f565b610d7b565b6040516101c0919061123b565b60405180910390f35b6101e360048036038101906101de919061144f565b610db0565b6040516101f091906114c7565b60405180910390f35b60003373ffffffffffffffffffffffffffffffffffffffff16826000015173ffffffffffffffffffffffffffffffffffffffff16036103095761023f8260000151610cd2565b15801561025657506102548260200151610d7b565b155b80156102fa5750600360009054906101000a900473ffffffffffffffffffffffffffffffffffffffff1673ffffffffffffffffffffffffffffffffffffffff1663e779f450836040518263ffffffff1660e01b81526004016102b89190611553565b602060405180830381865afa1580156102d5573d6000803e3d6000fd5b505050506040513d601f19601f820116820180604052508101906102f991906115a1565b5b15610308576001905061030e565b5b600090505b919050565b61031b610e9b565b600073ffffffffffffffffffffffffffffffffffffffff166000808473ffffffffffffffffffffffffffffffffffffffff1673ffffffffffffffffffffffffffffffffffffffff16815260200190815260200160002060000160009054906101000a900473ffffffffffffffffffffffffffffffffffffffff1673ffffffffffffffffffffffffffffffffffffffff16146104985760405180604001604052806001151581526020016000808573ffffffffffffffffffffffffffffffffffffffff1673ffffffffffffffffffffffffffffffffffffffff1681526020019081526020016000206001018054610410906115fd565b80601f016020809104026020016040519081016040528092919081815260200182805461043c906115fd565b80156104895780601f1061045e57610100808354040283529160200191610489565b820191906000526020600020905b81548152906001019060200180831161046c57829003601f168201915b505050505081525090506104c2565b60405180604001604052806000151581526020016040518060200160405280600081525081525090505b919050565b6104cf610eb7565b3373ffffffffffffffffffffffffffffffffffffffff168273ffffffffffffffffffffffffffffffffffffffff160361080b57600073ffffffffffffffffffffffffffffffffffffffff166000808473ffffffffffffffffffffffffffffffffffffffff1673ffffffffffffffffffffffffffffffffffffffff16815260200190815260200160002060000160009054906101000a900473ffffffffffffffffffffffffffffffffffffffff1673ffffffffffffffffffffffffffffffffffffffff161461080a5760405180604001604052806001151581526020016000808573ffffffffffffffffffffffffffffffffffffffff1673ffffffffffffffffffffffffffffffffffffffff1681526020019081526020016000206040518060800160405290816000820160009054906101000a900473ffffffffffffffffffffffffffffffffffffffff1673ffffffffffffffffffffffffffffffffffffffff1673ffffffffffffffffffffffffffffffffffffffff16815260200160018201805461065a906115fd565b80601f0160208091040260200160405190810160405280929190818152602001828054610686906115fd565b80156106d35780601f106106a8576101008083540402835291602001916106d3565b820191906000526020600020905b8154815290600101906020018083116106b657829003601f168201915b505050505081526020016002820180546106ec906115fd565b80601f0160208091040260200160405190810160405280929190818152602001828054610718906115fd565b80156107655780601f1061073a57610100808354040283529160200191610765565b820191906000526020600020905b81548152906001019060200180831161074857829003601f168201915b5050505050815260200160038201805461077e906115fd565b80601f01602080910402602001604051908101604052809291908181526020018280546107aa906115fd565b80156107f75780601f106107cc576101008083540402835291602001916107f7565b820191906000526020600020905b8154815290600101906020018083116107da57829003601f168201915b505050505081525050815250905061088a565b5b60405180604001604052806000151581526020016040518060800160405280600073ffffffffffffffffffffffffffffffffffffffff1681526020016040518060200160405280600081525081526020016040518060200160405280600081525081526020016040518060200160405280600081525081525081525090505b919050565b3373ffffffffffffffffffffffffffffffffffffffff16816000015173ffffffffffffffffffffffffffffffffffffffff1603610b1b576108cf816101f9565b15610b1a576040518060800160405280826000015173ffffffffffffffffffffffffffffffffffffffff16815260200182602001518152602001826040015181526020018260600151815250600080836000015173ffffffffffffffffffffffffffffffffffffffff1673ffffffffffffffffffffffffffffffffffffffff16815260200190815260200160002060008201518160000160006101000a81548173ffffffffffffffffffffffffffffffffffffffff021916908373ffffffffffffffffffffffffffffffffffffffff16021790555060208201518160010190816109b991906117e4565b5060408201518160020190816109cf91906117e4565b5060608201518160030190816109e591906117e4565b509050506040518060800160405280826000015173ffffffffffffffffffffffffffffffffffffffff1681526020018260200151815260200182604001518152602001826060015181525060018260200151604051610a4491906118f2565b908152602001604051809103902060008201518160000160006101000a81548173ffffffffffffffffffffffffffffffffffffffff021916908373ffffffffffffffffffffffffffffffffffffffff1602179055506020820151816001019081610aae91906117e4565b506040820151816002019081610ac491906117e4565b506060820151816003019081610ada91906117e4565b50905050600160028260200151604051610af491906118f2565b908152602001604051809103902060006101000a81548160ff0219169083151502179055505b5b50565b610b26610e9b565b600073ffffffffffffffffffffffffffffffffffffffff166000808473ffffffffffffffffffffffffffffffffffffffff1673ffffffffffffffffffffffffffffffffffffffff16815260200190815260200160002060000160009054906101000a900473ffffffffffffffffffffffffffffffffffffffff1673ffffffffffffffffffffffffffffffffffffffff1614610ca35760405180604001604052806001151581526020016000808573ffffffffffffffffffffffffffffffffffffffff1673ffffffffffffffffffffffffffffffffffffffff1681526020019081526020016000206002018054610c1b906115fd565b80601f0160208091040260200160405190810160405280929190818152602001828054610c47906115fd565b8015610c945780601f10610c6957610100808354040283529160200191610c94565b820191906000526020600020905b815481529060010190602001808311610c7757829003601f168201915b50505050508152509050610ccd565b60405180604001604052806000151581526020016040518060200160405280600081525081525090505b919050565b60008073ffffffffffffffffffffffffffffffffffffffff166000808473ffffffffffffffffffffffffffffffffffffffff1673ffffffffffffffffffffffffffffffffffffffff16815260200190815260200160002060000160009054906101000a900473ffffffffffffffffffffffffffffffffffffffff1673ffffffffffffffffffffffffffffffffffffffff1614610d715760019050610d76565b600090505b919050565b6000600282604051610d8d91906118f2565b908152602001604051809103902060009054906101000a900460ff169050919050565b610db8610ed9565b6000600183604051610dca91906118f2565b90815260200160405180910390206001018054610de6906115fd565b90501115610e64576040518060400160405280600115158152602001600184604051610e1291906118f2565b908152602001604051809103902060000160009054906101000a900473ffffffffffffffffffffffffffffffffffffffff1673ffffffffffffffffffffffffffffffffffffffff168152509050610e96565b6040518060400160405280600015158152602001600073ffffffffffffffffffffffffffffffffffffffff1681525090505b919050565b6040518060400160405280600015158152602001606081525090565b6040518060400160405280600015158152602001610ed3610f0b565b81525090565b6040518060400160405280600015158152602001600073ffffffffffffffffffffffffffffffffffffffff1681525090565b6040518060800160405280600073ffffffffffffffffffffffffffffffffffffffff1681526020016060815260200160608152602001606081525090565b6000604051905090565b600080fd5b600080fd5b600080fd5b6000601f19601f8301169050919050565b7f4e487b7100000000000000000000000000000000000000000000000000000000600052604160045260246000fd5b610fab82610f62565b810181811067ffffffffffffffff82111715610fca57610fc9610f73565b5b80604052505050565b6000610fdd610f49565b9050610fe98282610fa2565b919050565b600080fd5b600073ffffffffffffffffffffffffffffffffffffffff82169050919050565b600061101e82610ff3565b9050919050565b61102e81611013565b811461103957600080fd5b50565b60008135905061104b81611025565b92915050565b600080fd5b600080fd5b600067ffffffffffffffff82111561107657611075610f73565b5b61107f82610f62565b9050602081019050919050565b82818337600083830152505050565b60006110ae6110a98461105b565b610fd3565b9050828152602081018484840111156110ca576110c9611056565b5b6110d584828561108c565b509392505050565b600082601f8301126110f2576110f1611051565b5b813561110284826020860161109b565b91505092915050565b60006080828403121561112157611120610f5d565b5b61112b6080610fd3565b9050600061113b8482850161103c565b600083015250602082013567ffffffffffffffff81111561115f5761115e610fee565b5b61116b848285016110dd565b602083015250604082013567ffffffffffffffff81111561118f5761118e610fee565b5b61119b848285016110dd565b604083015250606082013567ffffffffffffffff8111156111bf576111be610fee565b5b6111cb848285016110dd565b60608301525092915050565b6000602082840312156111ed576111ec610f53565b5b600082013567ffffffffffffffff81111561120b5761120a610f58565b5b6112178482850161110b565b91505092915050565b60008115159050919050565b61123581611220565b82525050565b6000602082019050611250600083018461122c565b92915050565b60006020828403121561126c5761126b610f53565b5b600061127a8482850161103c565b91505092915050565b61128c81611220565b82525050565b600081519050919050565b600082825260208201905092915050565b60005b838110156112cc5780820151818401526020810190506112b1565b60008484015250505050565b60006112e382611292565b6112ed818561129d565b93506112fd8185602086016112ae565b61130681610f62565b840191505092915050565b60006040830160008301516113296000860182611283565b506020830151848203602086015261134182826112d8565b9150508091505092915050565b600060208201905081810360008301526113688184611311565b905092915050565b61137981611013565b82525050565b60006080830160008301516113976000860182611370565b50602083015184820360208601526113af82826112d8565b915050604083015184820360408601526113c982826112d8565b915050606083015184820360608601526113e382826112d8565b9150508091505092915050565b60006040830160008301516114086000860182611283565b5060208301518482036020860152611420828261137f565b9150508091505092915050565b6000602082019050818103600083015261144781846113f0565b905092915050565b60006020828403121561146557611464610f53565b5b600082013567ffffffffffffffff81111561148357611482610f58565b5b61148f848285016110dd565b91505092915050565b6040820160008201516114ae6000850182611283565b5060208201516114c16020850182611370565b50505050565b60006040820190506114dc6000830184611498565b92915050565b60006080830160008301516114fa6000860182611370565b506020830151848203602086015261151282826112d8565b9150506040830151848203604086015261152c82826112d8565b9150506060830151848203606086015261154682826112d8565b9150508091505092915050565b6000602082019050818103600083015261156d81846114e2565b905092915050565b61157e81611220565b811461158957600080fd5b50565b60008151905061159b81611575565b92915050565b6000602082840312156115b7576115b6610f53565b5b60006115c58482850161158c565b91505092915050565b7f4e487b7100000000000000000000000000000000000000000000000000000000600052602260045260246000fd5b6000600282049050600182168061161557607f821691505b602082108103611628576116276115ce565b5b50919050565b60008190508160005260206000209050919050565b60006020601f8301049050919050565b600082821b905092915050565b6000600883026116907fffffffffffffffffffffffffffffffffffffffffffffffffffffffffffffffff82611653565b61169a8683611653565b95508019841693508086168417925050509392505050565b6000819050919050565b6000819050919050565b60006116e16116dc6116d7846116b2565b6116bc565b6116b2565b9050919050565b6000819050919050565b6116fb836116c6565b61170f611707826116e8565b848454611660565b825550505050565b600090565b611724611717565b61172f8184846116f2565b505050565b5b818110156117535761174860008261171c565b600181019050611735565b5050565b601f821115611798576117698161162e565b61177284611643565b81016020851015611781578190505b61179561178d85611643565b830182611734565b50505b505050565b600082821c905092915050565b60006117bb6000198460080261179d565b1980831691505092915050565b60006117d483836117aa565b9150826002028217905092915050565b6117ed82611292565b67ffffffffffffffff81111561180657611805610f73565b5b61181082546115fd565b61181b828285611757565b600060209050601f83116001811461184e576000841561183c578287015190505b61184685826117c8565b8655506118ae565b601f19841661185c8661162e565b60005b828110156118845784890151825560018201915060208501945060208101905061185f565b868310156118a1578489015161189d601f8916826117aa565b8355505b6001600288020188555050505b505050505050565b600081905092915050565b60006118cc82611292565b6118d681856118b6565b93506118e68185602086016112ae565b80840191505092915050565b60006118fe82846118c1565b91508190509291505056fea264697066735822122047cb13b98916935228d413ca1fc0355a90bc4f45a83a32b0a760a32cd3e0540764736f6c63430008130033608060405234801561001057600080fd5b5033600160006101000a81548173ffffffffffffffffffffffffffffffffffffffff021916908373ffffffffffffffffffffffffffffffffffffffff16021790555033600260006101000a81548173ffffffffffffffffffffffffffffffffffffffff021916908373ffffffffffffffffffffffffffffffffffffffff1602179055506113e1806100a26000396000f3fe608060405234801561001057600080fd5b50600436106100365760003560e01c8063759ab1851461003b578063c47ebddc1461006b575b600080fd5b61005560048036038101906100509190610a68565b610087565b6040516100629190610d3b565b60405180910390f35b61008560048036038101906100809190610d89565b6105e7565b005b61008f6107aa565b6000808054905067ffffffffffffffff8111156100af576100ae610852565b5b6040519080825280602002602001820160405280156100e857816020015b6100d56107c6565b8152602001906001900390816100cd5790505b5090506000805b845181101561054457600160009054906101000a900473ffffffffffffffffffffffffffffffffffffffff1673ffffffffffffffffffffffffffffffffffffffff16631ac47dd03387848151811061014a57610149610e58565b5b60200260200101516040518363ffffffff1660e01b815260040161016f929190610ee0565b602060405180830381865afa15801561018c573d6000803e3d6000fd5b505050506040513d601f19601f820116820180604052508101906101b09190610f3c565b156105315760005b60008054905081101561052f578582815181106101d8576101d7610e58565b5b60200260200101516040516020016101f09190610fa5565b604051602081830303815290604052805190602001206000828154811061021a57610219610e58565b5b906000526020600020906006020160000160405160200161023b91906110b4565b604051602081830303815290604052805190602001200361051c576000818154811061026a57610269610e58565b5b90600052602060002090600602016040518060c001604052908160008201805461029390610feb565b80601f01602080910402602001604051908101604052809291908181526020018280546102bf90610feb565b801561030c5780601f106102e15761010080835404028352916020019161030c565b820191906000526020600020905b8154815290600101906020018083116102ef57829003601f168201915b505050505081526020016001820160009054906101000a900473ffffffffffffffffffffffffffffffffffffffff1673ffffffffffffffffffffffffffffffffffffffff1673ffffffffffffffffffffffffffffffffffffffff1681526020016002820154815260200160038201805461038590610feb565b80601f01602080910402602001604051908101604052809291908181526020018280546103b190610feb565b80156103fe5780601f106103d3576101008083540402835291602001916103fe565b820191906000526020600020905b8154815290600101906020018083116103e157829003601f168201915b5050505050815260200160048201805461041790610feb565b80601f016020809104026020016040519081016040528092919081815260200182805461044390610feb565b80156104905780601f1061046557610100808354040283529160200191610490565b820191906000526020600020905b81548152906001019060200180831161047357829003601f168201915b505050505081526020016005820160009054906101000a900473ffffffffffffffffffffffffffffffffffffffff1673ffffffffffffffffffffffffffffffffffffffff1673ffffffffffffffffffffffffffffffffffffffff168152505084848151811061050257610501610e58565b5b60200260200101819052508280610518906110fa565b9350505b8080610527906110fa565b9150506101b8565b505b808061053c906110fa565b9150506100ef565b508082526000811461057157604051806040016040528060011515815260200183815250925050506105e2565b6040518060400160405280600015158152602001600067ffffffffffffffff8111156105a05761059f610852565b5b6040519080825280602002602001820160405280156105d957816020015b6105c66107c6565b8152602001906001900390816105be5790505b50815250925050505b919050565b600260009054906101000a900473ffffffffffffffffffffffffffffffffffffffff1673ffffffffffffffffffffffffffffffffffffffff163373ffffffffffffffffffffffffffffffffffffffff16036107a35760006040518060c001604052808681526020018573ffffffffffffffffffffffffffffffffffffffff1681526020014281526020018381526020018481526020018773ffffffffffffffffffffffffffffffffffffffff168152509050600081908060018154018082558091505060019003906000526020600020906006020160009091909190915060008201518160000190816106da91906112d9565b5060208201518160010160006101000a81548173ffffffffffffffffffffffffffffffffffffffff021916908373ffffffffffffffffffffffffffffffffffffffff16021790555060408201518160020155606082015181600301908161074191906112d9565b50608082015181600401908161075791906112d9565b5060a08201518160050160006101000a81548173ffffffffffffffffffffffffffffffffffffffff021916908373ffffffffffffffffffffffffffffffffffffffff1602179055505050505b5050505050565b6040518060400160405280600015158152602001606081525090565b6040518060c0016040528060608152602001600073ffffffffffffffffffffffffffffffffffffffff168152602001600081526020016060815260200160608152602001600073ffffffffffffffffffffffffffffffffffffffff1681525090565b6000604051905090565b600080fd5b600080fd5b600080fd5b6000601f19601f8301169050919050565b7f4e487b7100000000000000000000000000000000000000000000000000000000600052604160045260246000fd5b61088a82610841565b810181811067ffffffffffffffff821117156108a9576108a8610852565b5b80604052505050565b60006108bc610828565b90506108c88282610881565b919050565b600067ffffffffffffffff8211156108e8576108e7610852565b5b602082029050602081019050919050565b600080fd5b600080fd5b600067ffffffffffffffff82111561091e5761091d610852565b5b61092782610841565b9050602081019050919050565b82818337600083830152505050565b600061095661095184610903565b6108b2565b905082815260208101848484011115610972576109716108fe565b5b61097d848285610934565b509392505050565b600082601f83011261099a5761099961083c565b5b81356109aa848260208601610943565b91505092915050565b60006109c66109c1846108cd565b6108b2565b905080838252602082019050602084028301858111156109e9576109e86108f9565b5b835b81811015610a3057803567ffffffffffffffff811115610a0e57610a0d61083c565b5b808601610a1b8982610985565b855260208501945050506020810190506109eb565b5050509392505050565b600082601f830112610a4f57610a4e61083c565b5b8135610a5f8482602086016109b3565b91505092915050565b600060208284031215610a7e57610a7d610832565b5b600082013567ffffffffffffffff811115610a9c57610a9b610837565b5b610aa884828501610a3a565b91505092915050565b60008115159050919050565b610ac681610ab1565b82525050565b600081519050919050565b600082825260208201905092915050565b6000819050602082019050919050565b600081519050919050565b600082825260208201905092915050565b60005b83811015610b32578082015181840152602081019050610b17565b60008484015250505050565b6000610b4982610af8565b610b538185610b03565b9350610b63818560208601610b14565b610b6c81610841565b840191505092915050565b600073ffffffffffffffffffffffffffffffffffffffff82169050919050565b6000610ba282610b77565b9050919050565b610bb281610b97565b82525050565b6000819050919050565b610bcb81610bb8565b82525050565b600060c0830160008301518482036000860152610bee8282610b3e565b9150506020830151610c036020860182610ba9565b506040830151610c166040860182610bc2565b5060608301518482036060860152610c2e8282610b3e565b91505060808301518482036080860152610c488282610b3e565b91505060a0830151610c5d60a0860182610ba9565b508091505092915050565b6000610c748383610bd1565b905092915050565b6000602082019050919050565b6000610c9482610acc565b610c9e8185610ad7565b935083602082028501610cb085610ae8565b8060005b85811015610cec5784840389528151610ccd8582610c68565b9450610cd883610c7c565b925060208a01995050600181019050610cb4565b50829750879550505050505092915050565b6000604083016000830151610d166000860182610abd565b5060208301518482036020860152610d2e8282610c89565b9150508091505092915050565b60006020820190508181036000830152610d558184610cfe565b905092915050565b610d6681610b97565b8114610d7157600080fd5b50565b600081359050610d8381610d5d565b92915050565b600080600080600060a08688031215610da557610da4610832565b5b6000610db388828901610d74565b955050602086013567ffffffffffffffff811115610dd457610dd3610837565b5b610de088828901610985565b9450506040610df188828901610d74565b935050606086013567ffffffffffffffff811115610e1257610e11610837565b5b610e1e88828901610985565b925050608086013567ffffffffffffffff811115610e3f57610e3e610837565b5b610e4b88828901610985565b9150509295509295909350565b7f4e487b7100000000000000000000000000000000000000000000000000000000600052603260045260246000fd5b610e9081610b97565b82525050565b600082825260208201905092915050565b6000610eb282610af8565b610ebc8185610e96565b9350610ecc818560208601610b14565b610ed581610841565b840191505092915050565b6000604082019050610ef56000830185610e87565b8181036020830152610f078184610ea7565b90509392505050565b610f1981610ab1565b8114610f2457600080fd5b50565b600081519050610f3681610f10565b92915050565b600060208284031215610f5257610f51610832565b5b6000610f6084828501610f27565b91505092915050565b600081905092915050565b6000610f7f82610af8565b610f898185610f69565b9350610f99818560208601610b14565b80840191505092915050565b6000610fb18284610f74565b915081905092915050565b7f4e487b7100000000000000000000000000000000000000000000000000000000600052602260045260246000fd5b6000600282049050600182168061100357607f821691505b60208210810361101657611015610fbc565b5b50919050565b60008190508160005260206000209050919050565b6000815461103e81610feb565b6110488186610f69565b945060018216600081146110635760018114611078576110ab565b60ff19831686528115158202860193506110ab565b6110818561101c565b60005b838110156110a357815481890152600182019150602081019050611084565b838801955050505b50505092915050565b60006110c08284611031565b915081905092915050565b7f4e487b7100000000000000000000000000000000000000000000000000000000600052601160045260246000fd5b600061110582610bb8565b91507fffffffffffffffffffffffffffffffffffffffffffffffffffffffffffffffff8203611137576111366110cb565b5b600182019050919050565b60006020601f8301049050919050565b600082821b905092915050565b60006008830261118f7fffffffffffffffffffffffffffffffffffffffffffffffffffffffffffffffff82611152565b6111998683611152565b95508019841693508086168417925050509392505050565b6000819050919050565b60006111d66111d16111cc84610bb8565b6111b1565b610bb8565b9050919050565b6000819050919050565b6111f0836111bb565b6112046111fc826111dd565b84845461115f565b825550505050565b600090565b61121961120c565b6112248184846111e7565b505050565b5b818110156112485761123d600082611211565b60018101905061122a565b5050565b601f82111561128d5761125e8161101c565b61126784611142565b81016020851015611276578190505b61128a61128285611142565b830182611229565b50505b505050565b600082821c905092915050565b60006112b060001984600802611292565b1980831691505092915050565b60006112c9838361129f565b9150826002028217905092915050565b6112e282610af8565b67ffffffffffffffff8111156112fb576112fa610852565b5b6113058254610feb565b61131082828561124c565b600060209050601f8311600181146113435760008415611331578287015190505b61133b85826112bd565b8655506113a3565b601f1984166113518661101c565b60005b8281101561137957848901518255600182019150602085019450602081019050611354565b868310156113965784890151611392601f89168261129f565b8355505b6001600288020188555050505b50505050505056fea2646970667358221220974d2272292321d72a41c6578fd823bda17a9cc543f705e5a3cc7c9d7c291c1e64736f6c63430008130033",
  "linkReferences": {},
  "deployedLinkReferences": {}
}