{
  "_format": "hh-sol-artifact-1",
  "contractName": "LoginRegister",
  "sourceName": "contracts/LoginRegister.sol",
  "abi": [
    {
      "inputs": [
        {
          "internalType": "address",
          "name": "userRegisterContract",
          "type": "address"
        }
      ],
      "stateMutability": "nonpayable",
      "type": "constructor"
    },
    {
      "inputs": [],
      "name": "logOutUser",
      "outputs": [],
      "stateMutability": "nonpayable",
      "type": "function"
    },
    {
      "inputs": [],
      "name": "logsInUser",
      "outputs": [],
      "stateMutability": "nonpayable",
      "type": "function"
    },
    {
      "inputs": [
        {
          "internalType": "address",
          "name": "userAccount",
          "type": "address"
        }
      ],
      "name": "noTimeOut",
      "outputs": [
        {
          "internalType": "bool",
          "name": "",
          "type": "bool"
        }
      ],
      "stateMutability": "view",
      "type": "function"
    },
    {
      "inputs": [
        {
          "components": [
            {
              "internalType": "address",
              "name": "account",
              "type": "address"
            },
            {
              "internalType": "string",
              "name": "userName",
              "type": "string"
            },
            {
              "internalType": "string",
              "name": "mnemonic",
              "type": "string"
            },
            {
              "internalType": "string",
              "name": "publicKey",
              "type": "string"
            }
          ],
          "internalType": "struct UserRegister.User",
          "name": "user",
          "type": "tuple"
        }
      ],
      "name": "registerUser",
      "outputs": [],
      "stateMutability": "nonpayable",
      "type": "function"
    },
    {
      "inputs": [
        {
          "internalType": "address",
          "name": "userAccount",
          "type": "address"
        }
      ],
      "name": "userLoggedIn",
      "outputs": [
        {
          "internalType": "bool",
          "name": "",
          "type": "bool"
        }
      ],
      "stateMutability": "view",
      "type": "function"
    }
  ],
  "bytecode": "0x608060405234801561001057600080fd5b50604051610a9b380380610a9b833981810160405281019061003291906100dc565b80600260006101000a81548173ffffffffffffffffffffffffffffffffffffffff021916908373ffffffffffffffffffffffffffffffffffffffff16021790555050610109565b600080fd5b600073ffffffffffffffffffffffffffffffffffffffff82169050919050565b60006100a98261007e565b9050919050565b6100b98161009e565b81146100c457600080fd5b50565b6000815190506100d6816100b0565b92915050565b6000602082840312156100f2576100f1610079565b5b6000610100848285016100c7565b91505092915050565b610983806101186000396000f3fe608060405234801561001057600080fd5b50600436106100575760003560e01c806353d598181461005c578063587ff0ff146100665780638aaa7370146100705780639506d9e3146100a0578063a4e07ee4146100d0575b600080fd5b6100646100ec565b005b61006e610199565b005b61008a600480360381019061008591906104f7565b610287565b604051610097919061053f565b60405180910390f35b6100ba60048036038101906100b591906104f7565b6102ee565b6040516100c7919061053f565b60405180910390f35b6100ea60048036038101906100e59190610776565b61035b565b005b600160003373ffffffffffffffffffffffffffffffffffffffff1673ffffffffffffffffffffffffffffffffffffffff16815260200190815260200160002060009054906101000a900460ff1615610197576000600160003373ffffffffffffffffffffffffffffffffffffffff1673ffffffffffffffffffffffffffffffffffffffff16815260200190815260200160002060006101000a81548160ff0219169083151502179055505b565b600160003373ffffffffffffffffffffffffffffffffffffffff1673ffffffffffffffffffffffffffffffffffffffff16815260200190815260200160002060009054906101000a900460ff166102855760018060003373ffffffffffffffffffffffffffffffffffffffff1673ffffffffffffffffffffffffffffffffffffffff16815260200190815260200160002060006101000a81548160ff021916908315150217905550426000803373ffffffffffffffffffffffffffffffffffffffff1673ffffffffffffffffffffffffffffffffffffffff168152602001908152602001600020819055505b565b6000600160008373ffffffffffffffffffffffffffffffffffffffff1673ffffffffffffffffffffffffffffffffffffffff16815260200190815260200160002060009054906101000a900460ff16156102e457600190506102e9565b600090505b919050565b6000806000808473ffffffffffffffffffffffffffffffffffffffff1673ffffffffffffffffffffffffffffffffffffffff168152602001908152602001600020544261033b91906107f8565b90506127108111610350576001915050610356565b60009150505b919050565b600260009054906101000a900473ffffffffffffffffffffffffffffffffffffffff1673ffffffffffffffffffffffffffffffffffffffff166375e9493f826040518263ffffffff1660e01b81526004016103b6919061092b565b600060405180830381600087803b1580156103d057600080fd5b505af11580156103e4573d6000803e3d6000fd5b5050505060018060003373ffffffffffffffffffffffffffffffffffffffff1673ffffffffffffffffffffffffffffffffffffffff16815260200190815260200160002060006101000a81548160ff021916908315150217905550426000803373ffffffffffffffffffffffffffffffffffffffff1673ffffffffffffffffffffffffffffffffffffffff1681526020019081526020016000208190555050565b6000604051905090565b600080fd5b600080fd5b600073ffffffffffffffffffffffffffffffffffffffff82169050919050565b60006104c482610499565b9050919050565b6104d4816104b9565b81146104df57600080fd5b50565b6000813590506104f1816104cb565b92915050565b60006020828403121561050d5761050c61048f565b5b600061051b848285016104e2565b91505092915050565b60008115159050919050565b61053981610524565b82525050565b60006020820190506105546000830184610530565b92915050565b600080fd5b6000601f19601f8301169050919050565b7f4e487b7100000000000000000000000000000000000000000000000000000000600052604160045260246000fd5b6105a88261055f565b810181811067ffffffffffffffff821117156105c7576105c6610570565b5b80604052505050565b60006105da610485565b90506105e6828261059f565b919050565b600080fd5b600080fd5b600080fd5b600067ffffffffffffffff82111561061557610614610570565b5b61061e8261055f565b9050602081019050919050565b82818337600083830152505050565b600061064d610648846105fa565b6105d0565b905082815260208101848484011115610669576106686105f5565b5b61067484828561062b565b509392505050565b600082601f830112610691576106906105f0565b5b81356106a184826020860161063a565b91505092915050565b6000608082840312156106c0576106bf61055a565b5b6106ca60806105d0565b905060006106da848285016104e2565b600083015250602082013567ffffffffffffffff8111156106fe576106fd6105eb565b5b61070a8482850161067c565b602083015250604082013567ffffffffffffffff81111561072e5761072d6105eb565b5b61073a8482850161067c565b604083015250606082013567ffffffffffffffff81111561075e5761075d6105eb565b5b61076a8482850161067c565b60608301525092915050565b60006020828403121561078c5761078b61048f565b5b600082013567ffffffffffffffff8111156107aa576107a9610494565b5b6107b6848285016106aa565b91505092915050565b6000819050919050565b7f4e487b7100000000000000000000000000000000000000000000000000000000600052601160045260246000fd5b6000610803826107bf565b915061080e836107bf565b9250828203905081811115610826576108256107c9565b5b92915050565b610835816104b9565b82525050565b600081519050919050565b600082825260208201905092915050565b60005b8381101561087557808201518184015260208101905061085a565b60008484015250505050565b600061088c8261083b565b6108968185610846565b93506108a6818560208601610857565b6108af8161055f565b840191505092915050565b60006080830160008301516108d2600086018261082c565b50602083015184820360208601526108ea8282610881565b915050604083015184820360408601526109048282610881565b9150506060830151848203606086015261091e8282610881565b9150508091505092915050565b6000602082019050818103600083015261094581846108ba565b90509291505056fea264697066735822122005ffa44fe45f0abad3da5d1de3a5513c7be84495ed8ecfb36149019718bd419f64736f6c63430008130033",
  "linkReferences": {},
  "deployedLinkReferences": {}
}