{
  "_format": "hh-sol-artifact-1",
  "contractName": "LoginRegister",
  "sourceName": "contracts/LoginRegister.sol",
  "abi": [
    {
      "inputs": [
        {
          "internalType": "address",
          "name": "userRegisterContract",
          "type": "address"
        }
      ],
      "stateMutability": "nonpayable",
      "type": "constructor"
    },
    {
      "inputs": [],
      "name": "getTimeOutLimit",
      "outputs": [
        {
          "internalType": "uint256",
          "name": "",
          "type": "uint256"
        }
      ],
      "stateMutability": "pure",
      "type": "function"
    },
    {
      "inputs": [],
      "name": "logOutUser",
      "outputs": [],
      "stateMutability": "nonpayable",
      "type": "function"
    },
    {
      "inputs": [],
      "name": "logsInUser",
      "outputs": [],
      "stateMutability": "nonpayable",
      "type": "function"
    },
    {
      "inputs": [
        {
          "internalType": "address",
          "name": "userAccount",
          "type": "address"
        }
      ],
      "name": "noTimeOut",
      "outputs": [
        {
          "internalType": "bool",
          "name": "",
          "type": "bool"
        }
      ],
      "stateMutability": "view",
      "type": "function"
    },
    {
      "inputs": [
        {
          "components": [
            {
              "internalType": "address",
              "name": "account",
              "type": "address"
            },
            {
              "internalType": "string",
              "name": "userName",
              "type": "string"
            },
            {
              "internalType": "string",
              "name": "mnemonic",
              "type": "string"
            },
            {
              "internalType": "string",
              "name": "publicKey",
              "type": "string"
            }
          ],
          "internalType": "struct UserRegister.User",
          "name": "user",
          "type": "tuple"
        }
      ],
      "name": "registerUser",
      "outputs": [],
      "stateMutability": "nonpayable",
      "type": "function"
    },
    {
      "inputs": [
        {
          "internalType": "address",
          "name": "userAccount",
          "type": "address"
        }
      ],
      "name": "userLoggedIn",
      "outputs": [
        {
          "internalType": "bool",
          "name": "",
          "type": "bool"
        }
      ],
      "stateMutability": "view",
      "type": "function"
    }
  ],
  "bytecode": "0x608060405234801561001057600080fd5b50604051610afa380380610afa833981810160405281019061003291906100dc565b80600260006101000a81548173ffffffffffffffffffffffffffffffffffffffff021916908373ffffffffffffffffffffffffffffffffffffffff16021790555050610109565b600080fd5b600073ffffffffffffffffffffffffffffffffffffffff82169050919050565b60006100a98261007e565b9050919050565b6100b98161009e565b81146100c457600080fd5b50565b6000815190506100d6816100b0565b92915050565b6000602082840312156100f2576100f1610079565b5b6000610100848285016100c7565b91505092915050565b6109e2806101186000396000f3fe608060405234801561001057600080fd5b50600436106100625760003560e01c806353d5981814610067578063587ff0ff146100715780638aaa73701461007b5780639506d9e3146100ab578063a4e07ee4146100db578063b65bd925146100f7575b600080fd5b61006f610115565b005b6100796101c2565b005b6100956004803603810190610090919061052c565b6102b0565b6040516100a29190610574565b60405180910390f35b6100c560048036038101906100c0919061052c565b610317565b6040516100d29190610574565b60405180910390f35b6100f560048036038101906100f091906107ab565b610385565b005b6100ff6104af565b60405161010c919061080d565b60405180910390f35b600160003373ffffffffffffffffffffffffffffffffffffffff1673ffffffffffffffffffffffffffffffffffffffff16815260200190815260200160002060009054906101000a900460ff16156101c0576000600160003373ffffffffffffffffffffffffffffffffffffffff1673ffffffffffffffffffffffffffffffffffffffff16815260200190815260200160002060006101000a81548160ff0219169083151502179055505b565b600160003373ffffffffffffffffffffffffffffffffffffffff1673ffffffffffffffffffffffffffffffffffffffff16815260200190815260200160002060009054906101000a900460ff166102ae5760018060003373ffffffffffffffffffffffffffffffffffffffff1673ffffffffffffffffffffffffffffffffffffffff16815260200190815260200160002060006101000a81548160ff021916908315150217905550426000803373ffffffffffffffffffffffffffffffffffffffff1673ffffffffffffffffffffffffffffffffffffffff168152602001908152602001600020819055505b565b6000600160008373ffffffffffffffffffffffffffffffffffffffff1673ffffffffffffffffffffffffffffffffffffffff16815260200190815260200160002060009054906101000a900460ff161561030d5760019050610312565b600090505b919050565b6000806000808473ffffffffffffffffffffffffffffffffffffffff1673ffffffffffffffffffffffffffffffffffffffff16815260200190815260200160002054426103649190610857565b905062015f90811161037a576001915050610380565b60009150505b919050565b600260009054906101000a900473ffffffffffffffffffffffffffffffffffffffff1673ffffffffffffffffffffffffffffffffffffffff166375e9493f826040518263ffffffff1660e01b81526004016103e0919061098a565b600060405180830381600087803b1580156103fa57600080fd5b505af115801561040e573d6000803e3d6000fd5b5050505060018060003373ffffffffffffffffffffffffffffffffffffffff1673ffffffffffffffffffffffffffffffffffffffff16815260200190815260200160002060006101000a81548160ff021916908315150217905550426000803373ffffffffffffffffffffffffffffffffffffffff1673ffffffffffffffffffffffffffffffffffffffff1681526020019081526020016000208190555050565b600062015f90905090565b6000604051905090565b600080fd5b600080fd5b600073ffffffffffffffffffffffffffffffffffffffff82169050919050565b60006104f9826104ce565b9050919050565b610509816104ee565b811461051457600080fd5b50565b60008135905061052681610500565b92915050565b600060208284031215610542576105416104c4565b5b600061055084828501610517565b91505092915050565b60008115159050919050565b61056e81610559565b82525050565b60006020820190506105896000830184610565565b92915050565b600080fd5b6000601f19601f8301169050919050565b7f4e487b7100000000000000000000000000000000000000000000000000000000600052604160045260246000fd5b6105dd82610594565b810181811067ffffffffffffffff821117156105fc576105fb6105a5565b5b80604052505050565b600061060f6104ba565b905061061b82826105d4565b919050565b600080fd5b600080fd5b600080fd5b600067ffffffffffffffff82111561064a576106496105a5565b5b61065382610594565b9050602081019050919050565b82818337600083830152505050565b600061068261067d8461062f565b610605565b90508281526020810184848401111561069e5761069d61062a565b5b6106a9848285610660565b509392505050565b600082601f8301126106c6576106c5610625565b5b81356106d684826020860161066f565b91505092915050565b6000608082840312156106f5576106f461058f565b5b6106ff6080610605565b9050600061070f84828501610517565b600083015250602082013567ffffffffffffffff81111561073357610732610620565b5b61073f848285016106b1565b602083015250604082013567ffffffffffffffff81111561076357610762610620565b5b61076f848285016106b1565b604083015250606082013567ffffffffffffffff81111561079357610792610620565b5b61079f848285016106b1565b60608301525092915050565b6000602082840312156107c1576107c06104c4565b5b600082013567ffffffffffffffff8111156107df576107de6104c9565b5b6107eb848285016106df565b91505092915050565b6000819050919050565b610807816107f4565b82525050565b600060208201905061082260008301846107fe565b92915050565b7f4e487b7100000000000000000000000000000000000000000000000000000000600052601160045260246000fd5b6000610862826107f4565b915061086d836107f4565b925082820390508181111561088557610884610828565b5b92915050565b610894816104ee565b82525050565b600081519050919050565b600082825260208201905092915050565b60005b838110156108d45780820151818401526020810190506108b9565b60008484015250505050565b60006108eb8261089a565b6108f581856108a5565b93506109058185602086016108b6565b61090e81610594565b840191505092915050565b6000608083016000830151610931600086018261088b565b506020830151848203602086015261094982826108e0565b9150506040830151848203604086015261096382826108e0565b9150506060830151848203606086015261097d82826108e0565b9150508091505092915050565b600060208201905081810360008301526109a48184610919565b90509291505056fea26469706673582212209ef409e8775545e92d54a56bc66e811f498b6f8960a21a2e5c1fab221aa4920c64736f6c63430008130033",
  "linkReferences": {},
  "deployedLinkReferences": {}
}