{
  "_format": "hh-sol-artifact-1",
  "contractName": "LoginRegister",
  "sourceName": "contracts/LoginRegister.sol",
  "abi": [
    {
      "inputs": [
        {
          "internalType": "address",
          "name": "userRegisterContract",
          "type": "address"
        }
      ],
      "stateMutability": "nonpayable",
      "type": "constructor"
    },
    {
      "inputs": [],
      "name": "getTimeOutLimit",
      "outputs": [
        {
          "internalType": "uint256",
          "name": "",
          "type": "uint256"
        }
      ],
      "stateMutability": "pure",
      "type": "function"
    },
    {
      "inputs": [],
      "name": "logOutUser",
      "outputs": [],
      "stateMutability": "nonpayable",
      "type": "function"
    },
    {
      "inputs": [],
      "name": "logsInUser",
      "outputs": [],
      "stateMutability": "nonpayable",
      "type": "function"
    },
    {
      "inputs": [
        {
          "internalType": "address",
          "name": "userAccount",
          "type": "address"
        }
      ],
      "name": "noTimeOut",
      "outputs": [
        {
          "internalType": "bool",
          "name": "",
          "type": "bool"
        }
      ],
      "stateMutability": "view",
      "type": "function"
    },
    {
      "inputs": [
        {
          "components": [
            {
              "internalType": "address",
              "name": "account",
              "type": "address"
            },
            {
              "internalType": "string",
              "name": "userName",
              "type": "string"
            },
            {
              "internalType": "string",
              "name": "mnemonic",
              "type": "string"
            },
            {
              "internalType": "string",
              "name": "publicKey",
              "type": "string"
            }
          ],
          "internalType": "struct UserRegister.User",
          "name": "user",
          "type": "tuple"
        }
      ],
      "name": "registerUser",
      "outputs": [],
      "stateMutability": "nonpayable",
      "type": "function"
    },
    {
      "inputs": [
        {
          "internalType": "address",
          "name": "userAccount",
          "type": "address"
        }
      ],
      "name": "userLoggedIn",
      "outputs": [
        {
          "internalType": "bool",
          "name": "",
          "type": "bool"
        }
      ],
      "stateMutability": "view",
      "type": "function"
    }
  ],
  "bytecode": "0x60806040523480156200001157600080fd5b5060405162000e8838038062000e88833981810160405281019062000037919062000124565b62000053672b6c1237c7787ca260c01b620000b760201b60201c565b6200006f672983e76c07a318d360c01b620000b760201b60201c565b80600260006101000a81548173ffffffffffffffffffffffffffffffffffffffff021916908373ffffffffffffffffffffffffffffffffffffffff1602179055505062000156565b50565b600080fd5b600073ffffffffffffffffffffffffffffffffffffffff82169050919050565b6000620000ec82620000bf565b9050919050565b620000fe81620000df565b81146200010a57600080fd5b50565b6000815190506200011e81620000f3565b92915050565b6000602082840312156200013d576200013c620000ba565b5b60006200014d848285016200010d565b91505092915050565b610d2280620001666000396000f3fe608060405234801561001057600080fd5b50600436106100625760003560e01c806353d5981814610067578063587ff0ff146100715780638aaa73701461007b5780639506d9e3146100ab578063a4e07ee4146100db578063b65bd925146100f7575b600080fd5b61006f610115565b005b61007961023f565b005b6100956004803603810190610090919061086c565b6103be565b6040516100a291906108b4565b60405180910390f35b6100c560048036038101906100c0919061086c565b6104d9565b6040516100d291906108b4565b60405180910390f35b6100f560048036038101906100f09190610aeb565b610623565b005b6100ff6107b1565b60405161010c9190610b4d565b60405180910390f35b6101296703ef8907fcc4377560c01b6107f7565b61013d67c795660e51106ef060c01b6107f7565b610151672536d85b3258fb8b60c01b6107f7565b600160003373ffffffffffffffffffffffffffffffffffffffff1673ffffffffffffffffffffffffffffffffffffffff16815260200190815260200160002060009054906101000a900460ff1615610228576101b767403a32a4b312b1b360c01b6107f7565b6101cb6724ea3fe992d1dfb060c01b6107f7565b6000600160003373ffffffffffffffffffffffffffffffffffffffff1673ffffffffffffffffffffffffffffffffffffffff16815260200190815260200160002060006101000a81548160ff02191690831515021790555061023d565b61023c67519720d5cba52b2860c01b6107f7565b5b565b610253672e9054c8a36f057760c01b6107f7565b610267677b906fbe2e62ee6160c01b6107f7565b61027b673e22bd9caed105bd60c01b6107f7565b600160003373ffffffffffffffffffffffffffffffffffffffff1673ffffffffffffffffffffffffffffffffffffffff16815260200190815260200160002060009054906101000a900460ff166103a7576102e067487862fae8c9c9ee60c01b6107f7565b6102f467dd321cc0ade6629d60c01b6107f7565b60018060003373ffffffffffffffffffffffffffffffffffffffff1673ffffffffffffffffffffffffffffffffffffffff16815260200190815260200160002060006101000a81548160ff02191690831515021790555061035f67c6751c6c3920db6a60c01b6107f7565b426000803373ffffffffffffffffffffffffffffffffffffffff1673ffffffffffffffffffffffffffffffffffffffff168152602001908152602001600020819055506103bc565b6103bb670e5d2c257f78002d60c01b6107f7565b5b565b60006103d4678bcce266717edb9860c01b6107f7565b6103e867f3c1d6e6867c0f3c60c01b6107f7565b6103fc67f4af5886a87649d760c01b6107f7565b600160008373ffffffffffffffffffffffffffffffffffffffff1673ffffffffffffffffffffffffffffffffffffffff16815260200190815260200160002060009054906101000a900460ff161561049357610462675f67b3f6239bc13a60c01b6107f7565b61047667bbf395d92c66ab8e60c01b6107f7565b61048a67b0e1d5ad27d6cc8560c01b6107f7565b600190506104d4565b6104a767081dcd0679b2d4b860c01b6107f7565b6104bb67042571a41d09b72860c01b6107f7565b6104cf67e140e64db4ec3eb560c01b6107f7565b600090505b919050565b60006104ef67db7939d6179995e760c01b6107f7565b61050367f0d7570f6061c94b60c01b6107f7565b61051767efe372438499fcec60c01b6107f7565b60008060008473ffffffffffffffffffffffffffffffffffffffff1673ffffffffffffffffffffffffffffffffffffffff16815260200190815260200160002054426105639190610b97565b9050610579671f3c8e0320f007fe60c01b6107f7565b61058d67c8cbd33c0f26c17560c01b6107f7565b61271081116105dc576105aa67f77493f10cf0a4c660c01b6107f7565b6105be674a05bef781bcfb4660c01b6107f7565b6105d267260f2b628131ee0d60c01b6107f7565b600191505061061e565b6105f0674f18faedfaa62c4560c01b6107f7565b61060467fcddb0cde9f637b560c01b6107f7565b61061867b9ae0b3f43f8331360c01b6107f7565b60009150505b919050565b610637676ab465e47899413060c01b6107f7565b61064b67bdb878daf50d326960c01b6107f7565b61065f678500b68e40e278bd60c01b6107f7565b600260009054906101000a900473ffffffffffffffffffffffffffffffffffffffff1673ffffffffffffffffffffffffffffffffffffffff166375e9493f826040518263ffffffff1660e01b81526004016106ba9190610cca565b600060405180830381600087803b1580156106d457600080fd5b505af11580156106e8573d6000803e3d6000fd5b50505050610700679175dbea84e2168760c01b6107f7565b60018060003373ffffffffffffffffffffffffffffffffffffffff1673ffffffffffffffffffffffffffffffffffffffff16815260200190815260200160002060006101000a81548160ff02191690831515021790555061076b673517fe7bc72d3e9c60c01b6107f7565b426000803373ffffffffffffffffffffffffffffffffffffffff1673ffffffffffffffffffffffffffffffffffffffff1681526020019081526020016000208190555050565b60006107c7679330bd6f6033ffab60c01b6107f7565b6107db678211952f4fea732860c01b6107f7565b6107ef6713dd82e0959319a160c01b6107f7565b612710905090565b50565b6000604051905090565b600080fd5b600080fd5b600073ffffffffffffffffffffffffffffffffffffffff82169050919050565b60006108398261080e565b9050919050565b6108498161082e565b811461085457600080fd5b50565b60008135905061086681610840565b92915050565b60006020828403121561088257610881610804565b5b600061089084828501610857565b91505092915050565b60008115159050919050565b6108ae81610899565b82525050565b60006020820190506108c960008301846108a5565b92915050565b600080fd5b6000601f19601f8301169050919050565b7f4e487b7100000000000000000000000000000000000000000000000000000000600052604160045260246000fd5b61091d826108d4565b810181811067ffffffffffffffff8211171561093c5761093b6108e5565b5b80604052505050565b600061094f6107fa565b905061095b8282610914565b919050565b600080fd5b600080fd5b600080fd5b600067ffffffffffffffff82111561098a576109896108e5565b5b610993826108d4565b9050602081019050919050565b82818337600083830152505050565b60006109c26109bd8461096f565b610945565b9050828152602081018484840111156109de576109dd61096a565b5b6109e98482856109a0565b509392505050565b600082601f830112610a0657610a05610965565b5b8135610a168482602086016109af565b91505092915050565b600060808284031215610a3557610a346108cf565b5b610a3f6080610945565b90506000610a4f84828501610857565b600083015250602082013567ffffffffffffffff811115610a7357610a72610960565b5b610a7f848285016109f1565b602083015250604082013567ffffffffffffffff811115610aa357610aa2610960565b5b610aaf848285016109f1565b604083015250606082013567ffffffffffffffff811115610ad357610ad2610960565b5b610adf848285016109f1565b60608301525092915050565b600060208284031215610b0157610b00610804565b5b600082013567ffffffffffffffff811115610b1f57610b1e610809565b5b610b2b84828501610a1f565b91505092915050565b6000819050919050565b610b4781610b34565b82525050565b6000602082019050610b626000830184610b3e565b92915050565b7f4e487b7100000000000000000000000000000000000000000000000000000000600052601160045260246000fd5b6000610ba282610b34565b9150610bad83610b34565b9250828203905081811115610bc557610bc4610b68565b5b92915050565b610bd48161082e565b82525050565b600081519050919050565b600082825260208201905092915050565b60005b83811015610c14578082015181840152602081019050610bf9565b60008484015250505050565b6000610c2b82610bda565b610c358185610be5565b9350610c45818560208601610bf6565b610c4e816108d4565b840191505092915050565b6000608083016000830151610c716000860182610bcb565b5060208301518482036020860152610c898282610c20565b91505060408301518482036040860152610ca38282610c20565b91505060608301518482036060860152610cbd8282610c20565b9150508091505092915050565b60006020820190508181036000830152610ce48184610c59565b90509291505056fea264697066735822122004d0c6e92f5d4071534bc113b6a0d981a3c23438081dc143d99aeaa2653be01964736f6c63430008130033",
  "linkReferences": {},
  "deployedLinkReferences": {}
}