{
  "_format": "hh-sol-artifact-1",
  "contractName": "LoginRegister",
  "sourceName": "contracts/LoginRegister.sol",
  "abi": [
    {
      "inputs": [
        {
          "internalType": "address",
          "name": "userRegisterContract",
          "type": "address"
        }
      ],
      "stateMutability": "nonpayable",
      "type": "constructor"
    },
    {
      "inputs": [],
      "name": "logOutUser",
      "outputs": [],
      "stateMutability": "nonpayable",
      "type": "function"
    },
    {
      "inputs": [],
      "name": "logsInUser",
      "outputs": [],
      "stateMutability": "nonpayable",
      "type": "function"
    },
    {
      "inputs": [
        {
          "internalType": "address",
          "name": "userAccount",
          "type": "address"
        }
      ],
      "name": "noTimeOut",
      "outputs": [
        {
          "internalType": "bool",
          "name": "",
          "type": "bool"
        }
      ],
      "stateMutability": "view",
      "type": "function"
    },
    {
      "inputs": [
        {
          "components": [
            {
              "internalType": "address",
              "name": "account",
              "type": "address"
            },
            {
              "internalType": "string",
              "name": "userName",
              "type": "string"
            },
            {
              "internalType": "string",
              "name": "mnemonic",
              "type": "string"
            },
            {
              "internalType": "string",
              "name": "publicKey",
              "type": "string"
            }
          ],
          "internalType": "struct UserRegister.User",
          "name": "user",
          "type": "tuple"
        }
      ],
      "name": "registerUser",
      "outputs": [],
      "stateMutability": "nonpayable",
      "type": "function"
    },
    {
      "inputs": [
        {
          "internalType": "address",
          "name": "userAccount",
          "type": "address"
        }
      ],
      "name": "userLoggedIn",
      "outputs": [
        {
          "internalType": "bool",
          "name": "",
          "type": "bool"
        }
      ],
      "stateMutability": "view",
      "type": "function"
    }
  ],
  "bytecode": "0x608060405234801561001057600080fd5b50604051610a9a380380610a9a833981810160405281019061003291906100dc565b80600260006101000a81548173ffffffffffffffffffffffffffffffffffffffff021916908373ffffffffffffffffffffffffffffffffffffffff16021790555050610109565b600080fd5b600073ffffffffffffffffffffffffffffffffffffffff82169050919050565b60006100a98261007e565b9050919050565b6100b98161009e565b81146100c457600080fd5b50565b6000815190506100d6816100b0565b92915050565b6000602082840312156100f2576100f1610079565b5b6000610100848285016100c7565b91505092915050565b610982806101186000396000f3fe608060405234801561001057600080fd5b50600436106100575760003560e01c806353d598181461005c578063587ff0ff146100665780638aaa7370146100705780639506d9e3146100a0578063a4e07ee4146100d0575b600080fd5b6100646100ec565b005b61006e610199565b005b61008a600480360381019061008591906104f6565b610287565b604051610097919061053e565b60405180910390f35b6100ba60048036038101906100b591906104f6565b6102ee565b6040516100c7919061053e565b60405180910390f35b6100ea60048036038101906100e59190610775565b61035a565b005b600160003373ffffffffffffffffffffffffffffffffffffffff1673ffffffffffffffffffffffffffffffffffffffff16815260200190815260200160002060009054906101000a900460ff1615610197576000600160003373ffffffffffffffffffffffffffffffffffffffff1673ffffffffffffffffffffffffffffffffffffffff16815260200190815260200160002060006101000a81548160ff0219169083151502179055505b565b600160003373ffffffffffffffffffffffffffffffffffffffff1673ffffffffffffffffffffffffffffffffffffffff16815260200190815260200160002060009054906101000a900460ff166102855760018060003373ffffffffffffffffffffffffffffffffffffffff1673ffffffffffffffffffffffffffffffffffffffff16815260200190815260200160002060006101000a81548160ff021916908315150217905550426000803373ffffffffffffffffffffffffffffffffffffffff1673ffffffffffffffffffffffffffffffffffffffff168152602001908152602001600020819055505b565b6000600160008373ffffffffffffffffffffffffffffffffffffffff1673ffffffffffffffffffffffffffffffffffffffff16815260200190815260200160002060009054906101000a900460ff16156102e457600190506102e9565b600090505b919050565b6000806000808473ffffffffffffffffffffffffffffffffffffffff1673ffffffffffffffffffffffffffffffffffffffff168152602001908152602001600020544261033b91906107f7565b90506014811161034f576001915050610355565b60009150505b919050565b600260009054906101000a900473ffffffffffffffffffffffffffffffffffffffff1673ffffffffffffffffffffffffffffffffffffffff166375e9493f826040518263ffffffff1660e01b81526004016103b5919061092a565b600060405180830381600087803b1580156103cf57600080fd5b505af11580156103e3573d6000803e3d6000fd5b5050505060018060003373ffffffffffffffffffffffffffffffffffffffff1673ffffffffffffffffffffffffffffffffffffffff16815260200190815260200160002060006101000a81548160ff021916908315150217905550426000803373ffffffffffffffffffffffffffffffffffffffff1673ffffffffffffffffffffffffffffffffffffffff1681526020019081526020016000208190555050565b6000604051905090565b600080fd5b600080fd5b600073ffffffffffffffffffffffffffffffffffffffff82169050919050565b60006104c382610498565b9050919050565b6104d3816104b8565b81146104de57600080fd5b50565b6000813590506104f0816104ca565b92915050565b60006020828403121561050c5761050b61048e565b5b600061051a848285016104e1565b91505092915050565b60008115159050919050565b61053881610523565b82525050565b6000602082019050610553600083018461052f565b92915050565b600080fd5b6000601f19601f8301169050919050565b7f4e487b7100000000000000000000000000000000000000000000000000000000600052604160045260246000fd5b6105a78261055e565b810181811067ffffffffffffffff821117156105c6576105c561056f565b5b80604052505050565b60006105d9610484565b90506105e5828261059e565b919050565b600080fd5b600080fd5b600080fd5b600067ffffffffffffffff8211156106145761061361056f565b5b61061d8261055e565b9050602081019050919050565b82818337600083830152505050565b600061064c610647846105f9565b6105cf565b905082815260208101848484011115610668576106676105f4565b5b61067384828561062a565b509392505050565b600082601f8301126106905761068f6105ef565b5b81356106a0848260208601610639565b91505092915050565b6000608082840312156106bf576106be610559565b5b6106c960806105cf565b905060006106d9848285016104e1565b600083015250602082013567ffffffffffffffff8111156106fd576106fc6105ea565b5b6107098482850161067b565b602083015250604082013567ffffffffffffffff81111561072d5761072c6105ea565b5b6107398482850161067b565b604083015250606082013567ffffffffffffffff81111561075d5761075c6105ea565b5b6107698482850161067b565b60608301525092915050565b60006020828403121561078b5761078a61048e565b5b600082013567ffffffffffffffff8111156107a9576107a8610493565b5b6107b5848285016106a9565b91505092915050565b6000819050919050565b7f4e487b7100000000000000000000000000000000000000000000000000000000600052601160045260246000fd5b6000610802826107be565b915061080d836107be565b9250828203905081811115610825576108246107c8565b5b92915050565b610834816104b8565b82525050565b600081519050919050565b600082825260208201905092915050565b60005b83811015610874578082015181840152602081019050610859565b60008484015250505050565b600061088b8261083a565b6108958185610845565b93506108a5818560208601610856565b6108ae8161055e565b840191505092915050565b60006080830160008301516108d1600086018261082b565b50602083015184820360208601526108e98282610880565b915050604083015184820360408601526109038282610880565b9150506060830151848203606086015261091d8282610880565b9150508091505092915050565b6000602082019050818103600083015261094481846108b9565b90509291505056fea26469706673582212205743204dff15f96c054e8a9c6e9edaa0dffc98f031b45f52fcfc0d3d32fd164264736f6c63430008130033",
  "linkReferences": {},
  "deployedLinkReferences": {}
}