{
  "_format": "hh-sol-artifact-1",
  "contractName": "AccessManager",
  "sourceName": "contracts/AccessManager.sol",
  "abi": [
    {
      "inputs": [],
      "stateMutability": "nonpayable",
      "type": "constructor"
    },
    {
      "inputs": [
        {
          "components": [
            {
              "internalType": "address",
              "name": "account",
              "type": "address"
            },
            {
              "internalType": "string",
              "name": "name",
              "type": "string"
            },
            {
              "internalType": "string",
              "name": "publicKey",
              "type": "string"
            },
            {
              "internalType": "string",
              "name": "privateKey",
              "type": "string"
            }
          ],
          "internalType": "struct UserManager.User",
          "name": "user",
          "type": "tuple"
        },
        {
          "components": [
            {
              "internalType": "string",
              "name": "fileName",
              "type": "string"
            },
            {
              "internalType": "address",
              "name": "owner",
              "type": "address"
            },
            {
              "internalType": "string",
              "name": "ipfsCID",
              "type": "string"
            },
            {
              "internalType": "string",
              "name": "fileType",
              "type": "string"
            },
            {
              "internalType": "string",
              "name": "iv",
              "type": "string"
            }
          ],
          "internalType": "struct FileManager.File",
          "name": "file",
          "type": "tuple"
        }
      ],
      "name": "getEncSymmetricKeyFileUser",
      "outputs": [
        {
          "internalType": "string",
          "name": "",
          "type": "string"
        }
      ],
      "stateMutability": "view",
      "type": "function"
    },
    {
      "inputs": [
        {
          "components": [
            {
              "internalType": "address",
              "name": "account",
              "type": "address"
            },
            {
              "internalType": "string",
              "name": "name",
              "type": "string"
            },
            {
              "internalType": "string",
              "name": "publicKey",
              "type": "string"
            },
            {
              "internalType": "string",
              "name": "privateKey",
              "type": "string"
            }
          ],
          "internalType": "struct UserManager.User",
          "name": "user",
          "type": "tuple"
        },
        {
          "components": [
            {
              "internalType": "string",
              "name": "fileName",
              "type": "string"
            },
            {
              "internalType": "address",
              "name": "owner",
              "type": "address"
            },
            {
              "internalType": "string",
              "name": "ipfsCID",
              "type": "string"
            },
            {
              "internalType": "string",
              "name": "fileType",
              "type": "string"
            },
            {
              "internalType": "string",
              "name": "iv",
              "type": "string"
            }
          ],
          "internalType": "struct FileManager.File",
          "name": "file",
          "type": "tuple"
        }
      ],
      "name": "getPermissionsOverFile",
      "outputs": [
        {
          "internalType": "string[]",
          "name": "",
          "type": "string[]"
        }
      ],
      "stateMutability": "view",
      "type": "function"
    },
    {
      "inputs": [],
      "name": "getUserHasFileArray",
      "outputs": [
        {
          "components": [
            {
              "internalType": "address",
              "name": "userAccount",
              "type": "address"
            },
            {
              "internalType": "string",
              "name": "fileName",
              "type": "string"
            },
            {
              "internalType": "string",
              "name": "encSymmetricKey",
              "type": "string"
            },
            {
              "internalType": "string[]",
              "name": "permissions",
              "type": "string[]"
            }
          ],
          "internalType": "struct AccessManager.UserHasFile[]",
          "name": "",
          "type": "tuple[]"
        }
      ],
      "stateMutability": "view",
      "type": "function"
    },
    {
      "inputs": [
        {
          "components": [
            {
              "internalType": "address",
              "name": "account",
              "type": "address"
            },
            {
              "internalType": "string",
              "name": "name",
              "type": "string"
            },
            {
              "internalType": "string",
              "name": "publicKey",
              "type": "string"
            },
            {
              "internalType": "string",
              "name": "privateKey",
              "type": "string"
            }
          ],
          "internalType": "struct UserManager.User",
          "name": "user",
          "type": "tuple"
        },
        {
          "components": [
            {
              "internalType": "string",
              "name": "fileName",
              "type": "string"
            },
            {
              "internalType": "address",
              "name": "owner",
              "type": "address"
            },
            {
              "internalType": "string",
              "name": "ipfsCID",
              "type": "string"
            },
            {
              "internalType": "string",
              "name": "fileType",
              "type": "string"
            },
            {
              "internalType": "string",
              "name": "iv",
              "type": "string"
            }
          ],
          "internalType": "struct FileManager.File",
          "name": "file",
          "type": "tuple"
        },
        {
          "internalType": "string",
          "name": "encSymmetricKey",
          "type": "string"
        },
        {
          "internalType": "string[]",
          "name": "permissions",
          "type": "string[]"
        }
      ],
      "name": "storeUserHasFile",
      "outputs": [],
      "stateMutability": "nonpayable",
      "type": "function"
    }
  ],
  "bytecode": "0x608060405234801561001057600080fd5b5061197b806100206000396000f3fe608060405234801561001057600080fd5b506004361061004c5760003560e01c806336d4bc6f146100515780637ddd92251461006d578063a49420011461008b578063e0c317cf146100bb575b600080fd5b61006b60048036038101906100669190610fc2565b6100eb565b005b61007561035e565b604051610082919061131c565b60405180910390f35b6100a560048036038101906100a0919061133e565b610610565b6040516100b29190611400565b60405180910390f35b6100d560048036038101906100d0919061133e565b610801565b6040516100e291906114a8565b60405180910390f35b6000805b60008054905081101561024e57856000015173ffffffffffffffffffffffffffffffffffffffff166000828154811061012b5761012a6114ca565b5b906000526020600020906004020160000160009054906101000a900473ffffffffffffffffffffffffffffffffffffffff1673ffffffffffffffffffffffffffffffffffffffff161480156101f3575084600001516040516020016101909190611535565b60405160208183030381529060405280519060200120600082815481106101ba576101b96114ca565b5b90600052602060002090600402016001016040516020016101db9190611644565b60405160208183030381529060405280519060200120145b1561023b57826000828154811061020d5761020c6114ca565b5b90600052602060002090600402016003019080519060200190610231929190610a78565b506001915061024e565b808061024690611694565b9150506100ef565b50806103575760006040518060800160405280876000015173ffffffffffffffffffffffffffffffffffffffff16815260200186600001518152602001858152602001848152509050600081908060018154018082558091505060019003906000526020600020906004020160009091909190915060008201518160000160006101000a81548173ffffffffffffffffffffffffffffffffffffffff021916908373ffffffffffffffffffffffffffffffffffffffff160217905550602082015181600101908161031f9190611873565b5060408201518160020190816103359190611873565b506060820151816003019080519060200190610352929190610a78565b505050505b5050505050565b60606000805480602002602001604051908101604052809291908181526020016000905b8282101561060757838290600052602060002090600402016040518060800160405290816000820160009054906101000a900473ffffffffffffffffffffffffffffffffffffffff1673ffffffffffffffffffffffffffffffffffffffff1673ffffffffffffffffffffffffffffffffffffffff16815260200160018201805461040b9061157b565b80601f01602080910402602001604051908101604052809291908181526020018280546104379061157b565b80156104845780601f1061045957610100808354040283529160200191610484565b820191906000526020600020905b81548152906001019060200180831161046757829003601f168201915b5050505050815260200160028201805461049d9061157b565b80601f01602080910402602001604051908101604052809291908181526020018280546104c99061157b565b80156105165780601f106104eb57610100808354040283529160200191610516565b820191906000526020600020905b8154815290600101906020018083116104f957829003601f168201915b5050505050815260200160038201805480602002602001604051908101604052809291908181526020016000905b828210156105f05783829060005260206000200180546105639061157b565b80601f016020809104026020016040519081016040528092919081815260200182805461058f9061157b565b80156105dc5780601f106105b1576101008083540402835291602001916105dc565b820191906000526020600020905b8154815290600101906020018083116105bf57829003601f168201915b505050505081526020019060010190610544565b505050508152505081526020019060010190610382565b50505050905090565b606060005b6000805490508110156107e757836000015173ffffffffffffffffffffffffffffffffffffffff1660008281548110610651576106506114ca565b5b906000526020600020906004020160000160009054906101000a900473ffffffffffffffffffffffffffffffffffffffff1673ffffffffffffffffffffffffffffffffffffffff16148015610719575082600001516040516020016106b69190611535565b60405160208183030381529060405280519060200120600082815481106106e0576106df6114ca565b5b90600052602060002090600402016001016040516020016107019190611644565b60405160208183030381529060405280519060200120145b156107d45760008181548110610732576107316114ca565b5b9060005260206000209060040201600201805461074e9061157b565b80601f016020809104026020016040519081016040528092919081815260200182805461077a9061157b565b80156107c75780601f1061079c576101008083540402835291602001916107c7565b820191906000526020600020905b8154815290600101906020018083116107aa57829003601f168201915b50505050509150506107fb565b80806107df90611694565b915050610615565b506040518060200160405280600081525090505b92915050565b606060005b600080549050811015610a1f57836000015173ffffffffffffffffffffffffffffffffffffffff1660008281548110610842576108416114ca565b5b906000526020600020906004020160000160009054906101000a900473ffffffffffffffffffffffffffffffffffffffff1673ffffffffffffffffffffffffffffffffffffffff1614801561090a575082600001516040516020016108a79190611535565b60405160208183030381529060405280519060200120600082815481106108d1576108d06114ca565b5b90600052602060002090600402016001016040516020016108f29190611644565b60405160208183030381529060405280519060200120145b15610a0c5760008181548110610923576109226114ca565b5b9060005260206000209060040201600301805480602002602001604051908101604052809291908181526020016000905b82821015610a005783829060005260206000200180546109739061157b565b80601f016020809104026020016040519081016040528092919081815260200182805461099f9061157b565b80156109ec5780601f106109c1576101008083540402835291602001916109ec565b820191906000526020600020905b8154815290600101906020018083116109cf57829003601f168201915b505050505081526020019060010190610954565b50505050915050610a72565b8080610a1790611694565b915050610806565b50600067ffffffffffffffff811115610a3b57610a3a610b7c565b5b604051908082528060200260200182016040528015610a6e57816020015b6060815260200190600190039081610a595790505b5090505b92915050565b828054828255906000526020600020908101928215610ac0579160200282015b82811115610abf578251829081610aaf9190611873565b5091602001919060010190610a98565b5b509050610acd9190610ad1565b5090565b5b80821115610af15760008181610ae89190610af5565b50600101610ad2565b5090565b508054610b019061157b565b6000825580601f10610b135750610b32565b601f016020900490600052602060002090810190610b319190610b35565b5b50565b5b80821115610b4e576000816000905550600101610b36565b5090565b6000604051905090565b600080fd5b600080fd5b600080fd5b6000601f19601f8301169050919050565b7f4e487b7100000000000000000000000000000000000000000000000000000000600052604160045260246000fd5b610bb482610b6b565b810181811067ffffffffffffffff82111715610bd357610bd2610b7c565b5b80604052505050565b6000610be6610b52565b9050610bf28282610bab565b919050565b600080fd5b600073ffffffffffffffffffffffffffffffffffffffff82169050919050565b6000610c2782610bfc565b9050919050565b610c3781610c1c565b8114610c4257600080fd5b50565b600081359050610c5481610c2e565b92915050565b600080fd5b600080fd5b600067ffffffffffffffff821115610c7f57610c7e610b7c565b5b610c8882610b6b565b9050602081019050919050565b82818337600083830152505050565b6000610cb7610cb284610c64565b610bdc565b905082815260208101848484011115610cd357610cd2610c5f565b5b610cde848285610c95565b509392505050565b600082601f830112610cfb57610cfa610c5a565b5b8135610d0b848260208601610ca4565b91505092915050565b600060808284031215610d2a57610d29610b66565b5b610d346080610bdc565b90506000610d4484828501610c45565b600083015250602082013567ffffffffffffffff811115610d6857610d67610bf7565b5b610d7484828501610ce6565b602083015250604082013567ffffffffffffffff811115610d9857610d97610bf7565b5b610da484828501610ce6565b604083015250606082013567ffffffffffffffff811115610dc857610dc7610bf7565b5b610dd484828501610ce6565b60608301525092915050565b600060a08284031215610df657610df5610b66565b5b610e0060a0610bdc565b9050600082013567ffffffffffffffff811115610e2057610e1f610bf7565b5b610e2c84828501610ce6565b6000830152506020610e4084828501610c45565b602083015250604082013567ffffffffffffffff811115610e6457610e63610bf7565b5b610e7084828501610ce6565b604083015250606082013567ffffffffffffffff811115610e9457610e93610bf7565b5b610ea084828501610ce6565b606083015250608082013567ffffffffffffffff811115610ec457610ec3610bf7565b5b610ed084828501610ce6565b60808301525092915050565b600067ffffffffffffffff821115610ef757610ef6610b7c565b5b602082029050602081019050919050565b600080fd5b6000610f20610f1b84610edc565b610bdc565b90508083825260208201905060208402830185811115610f4357610f42610f08565b5b835b81811015610f8a57803567ffffffffffffffff811115610f6857610f67610c5a565b5b808601610f758982610ce6565b85526020850194505050602081019050610f45565b5050509392505050565b600082601f830112610fa957610fa8610c5a565b5b8135610fb9848260208601610f0d565b91505092915050565b60008060008060808587031215610fdc57610fdb610b5c565b5b600085013567ffffffffffffffff811115610ffa57610ff9610b61565b5b61100687828801610d14565b945050602085013567ffffffffffffffff81111561102757611026610b61565b5b61103387828801610de0565b935050604085013567ffffffffffffffff81111561105457611053610b61565b5b61106087828801610ce6565b925050606085013567ffffffffffffffff81111561108157611080610b61565b5b61108d87828801610f94565b91505092959194509250565b600081519050919050565b600082825260208201905092915050565b6000819050602082019050919050565b6110ce81610c1c565b82525050565b600081519050919050565b600082825260208201905092915050565b60005b8381101561110e5780820151818401526020810190506110f3565b60008484015250505050565b6000611125826110d4565b61112f81856110df565b935061113f8185602086016110f0565b61114881610b6b565b840191505092915050565b600081519050919050565b600082825260208201905092915050565b6000819050602082019050919050565b600061118b838361111a565b905092915050565b6000602082019050919050565b60006111ab82611153565b6111b5818561115e565b9350836020820285016111c78561116f565b8060005b8581101561120357848403895281516111e4858261117f565b94506111ef83611193565b925060208a019950506001810190506111cb565b50829750879550505050505092915050565b600060808301600083015161122d60008601826110c5565b5060208301518482036020860152611245828261111a565b9150506040830151848203604086015261125f828261111a565b9150506060830151848203606086015261127982826111a0565b9150508091505092915050565b60006112928383611215565b905092915050565b6000602082019050919050565b60006112b282611099565b6112bc81856110a4565b9350836020820285016112ce856110b5565b8060005b8581101561130a57848403895281516112eb8582611286565b94506112f68361129a565b925060208a019950506001810190506112d2565b50829750879550505050505092915050565b6000602082019050818103600083015261133681846112a7565b905092915050565b6000806040838503121561135557611354610b5c565b5b600083013567ffffffffffffffff81111561137357611372610b61565b5b61137f85828601610d14565b925050602083013567ffffffffffffffff8111156113a05761139f610b61565b5b6113ac85828601610de0565b9150509250929050565b600082825260208201905092915050565b60006113d2826110d4565b6113dc81856113b6565b93506113ec8185602086016110f0565b6113f581610b6b565b840191505092915050565b6000602082019050818103600083015261141a81846113c7565b905092915050565b600082825260208201905092915050565b600061143e82611153565b6114488185611422565b93508360208202850161145a8561116f565b8060005b858110156114965784840389528151611477858261117f565b945061148283611193565b925060208a0199505060018101905061145e565b50829750879550505050505092915050565b600060208201905081810360008301526114c28184611433565b905092915050565b7f4e487b7100000000000000000000000000000000000000000000000000000000600052603260045260246000fd5b600081905092915050565b600061150f826110d4565b61151981856114f9565b93506115298185602086016110f0565b80840191505092915050565b60006115418284611504565b915081905092915050565b7f4e487b7100000000000000000000000000000000000000000000000000000000600052602260045260246000fd5b6000600282049050600182168061159357607f821691505b6020821081036115a6576115a561154c565b5b50919050565b60008190508160005260206000209050919050565b600081546115ce8161157b565b6115d881866114f9565b945060018216600081146115f357600181146116085761163b565b60ff198316865281151582028601935061163b565b611611856115ac565b60005b8381101561163357815481890152600182019150602081019050611614565b838801955050505b50505092915050565b600061165082846115c1565b915081905092915050565b7f4e487b7100000000000000000000000000000000000000000000000000000000600052601160045260246000fd5b6000819050919050565b600061169f8261168a565b91507fffffffffffffffffffffffffffffffffffffffffffffffffffffffffffffffff82036116d1576116d061165b565b5b600182019050919050565b60006020601f8301049050919050565b600082821b905092915050565b6000600883026117297fffffffffffffffffffffffffffffffffffffffffffffffffffffffffffffffff826116ec565b61173386836116ec565b95508019841693508086168417925050509392505050565b6000819050919050565b600061177061176b6117668461168a565b61174b565b61168a565b9050919050565b6000819050919050565b61178a83611755565b61179e61179682611777565b8484546116f9565b825550505050565b600090565b6117b36117a6565b6117be818484611781565b505050565b5b818110156117e2576117d76000826117ab565b6001810190506117c4565b5050565b601f821115611827576117f8816115ac565b611801846116dc565b81016020851015611810578190505b61182461181c856116dc565b8301826117c3565b50505b505050565b600082821c905092915050565b600061184a6000198460080261182c565b1980831691505092915050565b60006118638383611839565b9150826002028217905092915050565b61187c826110d4565b67ffffffffffffffff81111561189557611894610b7c565b5b61189f825461157b565b6118aa8282856117e6565b600060209050601f8311600181146118dd57600084156118cb578287015190505b6118d58582611857565b86555061193d565b601f1984166118eb866115ac565b60005b82811015611913578489015182556001820191506020850194506020810190506118ee565b86831015611930578489015161192c601f891682611839565b8355505b6001600288020188555050505b50505050505056fea26469706673582212203c5207fc4f1791a1840f405e637e8ae8c1df0076ba34ea2986d748e6cb9e86b264736f6c63430008130033",
  "linkReferences": {},
  "deployedLinkReferences": {}
}