{
  "_format": "hh-sol-artifact-1",
  "contractName": "FileManager",
  "sourceName": "contracts/FileManager.sol",
  "abi": [
    {
      "inputs": [
        {
          "internalType": "address",
          "name": "accessManagerAddress",
          "type": "address"
        }
      ],
      "stateMutability": "nonpayable",
      "type": "constructor"
    },
    {
      "anonymous": false,
      "inputs": [
        {
          "indexed": false,
          "internalType": "bool",
          "name": "success",
          "type": "bool"
        },
        {
          "indexed": false,
          "internalType": "string",
          "name": "message",
          "type": "string"
        }
      ],
      "name": "UploadFileResult",
      "type": "event"
    },
    {
      "inputs": [
        {
          "components": [
            {
              "internalType": "string",
              "name": "fileName",
              "type": "string"
            },
            {
              "internalType": "address",
              "name": "owner",
              "type": "address"
            },
            {
              "internalType": "string",
              "name": "ipfsCID",
              "type": "string"
            },
            {
              "internalType": "string",
              "name": "fileType",
              "type": "string"
            },
            {
              "internalType": "string",
              "name": "iv",
              "type": "string"
            }
          ],
          "internalType": "struct FileManager.File",
          "name": "file",
          "type": "tuple"
        },
        {
          "components": [
            {
              "internalType": "address",
              "name": "account",
              "type": "address"
            },
            {
              "internalType": "string",
              "name": "name",
              "type": "string"
            },
            {
              "internalType": "string",
              "name": "publicKey",
              "type": "string"
            },
            {
              "internalType": "string",
              "name": "privateKey",
              "type": "string"
            }
          ],
          "internalType": "struct UserManager.User",
          "name": "user",
          "type": "tuple"
        }
      ],
      "name": "fileExists",
      "outputs": [
        {
          "internalType": "string",
          "name": "",
          "type": "string"
        }
      ],
      "stateMutability": "view",
      "type": "function"
    },
    {
      "inputs": [
        {
          "internalType": "string",
          "name": "name",
          "type": "string"
        },
        {
          "components": [
            {
              "internalType": "string",
              "name": "fileName",
              "type": "string"
            },
            {
              "internalType": "address",
              "name": "owner",
              "type": "address"
            },
            {
              "internalType": "string",
              "name": "ipfsCID",
              "type": "string"
            },
            {
              "internalType": "string",
              "name": "fileType",
              "type": "string"
            },
            {
              "internalType": "string",
              "name": "iv",
              "type": "string"
            }
          ],
          "internalType": "struct FileManager.File[]",
          "name": "files",
          "type": "tuple[]"
        }
      ],
      "name": "getFileByName",
      "outputs": [
        {
          "components": [
            {
              "internalType": "string",
              "name": "fileName",
              "type": "string"
            },
            {
              "internalType": "address",
              "name": "owner",
              "type": "address"
            },
            {
              "internalType": "string",
              "name": "ipfsCID",
              "type": "string"
            },
            {
              "internalType": "string",
              "name": "fileType",
              "type": "string"
            },
            {
              "internalType": "string",
              "name": "iv",
              "type": "string"
            }
          ],
          "internalType": "struct FileManager.File",
          "name": "",
          "type": "tuple"
        }
      ],
      "stateMutability": "pure",
      "type": "function"
    },
    {
      "inputs": [],
      "name": "getFiles",
      "outputs": [
        {
          "components": [
            {
              "internalType": "string",
              "name": "fileName",
              "type": "string"
            },
            {
              "internalType": "address",
              "name": "owner",
              "type": "address"
            },
            {
              "internalType": "string",
              "name": "ipfsCID",
              "type": "string"
            },
            {
              "internalType": "string",
              "name": "fileType",
              "type": "string"
            },
            {
              "internalType": "string",
              "name": "iv",
              "type": "string"
            }
          ],
          "internalType": "struct FileManager.File[]",
          "name": "",
          "type": "tuple[]"
        }
      ],
      "stateMutability": "view",
      "type": "function"
    },
    {
      "inputs": [
        {
          "internalType": "address",
          "name": "account",
          "type": "address"
        }
      ],
      "name": "getUserFiles",
      "outputs": [
        {
          "components": [
            {
              "internalType": "string",
              "name": "fileName",
              "type": "string"
            },
            {
              "internalType": "address",
              "name": "owner",
              "type": "address"
            },
            {
              "internalType": "string",
              "name": "ipfsCID",
              "type": "string"
            },
            {
              "internalType": "string",
              "name": "fileType",
              "type": "string"
            },
            {
              "internalType": "string",
              "name": "iv",
              "type": "string"
            }
          ],
          "internalType": "struct FileManager.File[]",
          "name": "",
          "type": "tuple[]"
        }
      ],
      "stateMutability": "view",
      "type": "function"
    },
    {
      "inputs": [
        {
          "components": [
            {
              "internalType": "string",
              "name": "fileName",
              "type": "string"
            },
            {
              "internalType": "address",
              "name": "owner",
              "type": "address"
            },
            {
              "internalType": "string",
              "name": "ipfsCID",
              "type": "string"
            },
            {
              "internalType": "string",
              "name": "fileType",
              "type": "string"
            },
            {
              "internalType": "string",
              "name": "iv",
              "type": "string"
            }
          ],
          "internalType": "struct FileManager.File",
          "name": "file",
          "type": "tuple"
        },
        {
          "internalType": "string",
          "name": "encSymmetricKey",
          "type": "string"
        },
        {
          "components": [
            {
              "internalType": "address",
              "name": "account",
              "type": "address"
            },
            {
              "internalType": "string",
              "name": "name",
              "type": "string"
            },
            {
              "internalType": "string",
              "name": "publicKey",
              "type": "string"
            },
            {
              "internalType": "string",
              "name": "privateKey",
              "type": "string"
            }
          ],
          "internalType": "struct UserManager.User",
          "name": "user",
          "type": "tuple"
        }
      ],
      "name": "uploadFile",
      "outputs": [],
      "stateMutability": "nonpayable",
      "type": "function"
    }
  ],
  "bytecode": "0x60806040523480156200001157600080fd5b5060405162002317380380620023178339818101604052810190620000379190620000e9565b80600160006101000a81548173ffffffffffffffffffffffffffffffffffffffff021916908373ffffffffffffffffffffffffffffffffffffffff160217905550506200011b565b600080fd5b600073ffffffffffffffffffffffffffffffffffffffff82169050919050565b6000620000b18262000084565b9050919050565b620000c381620000a4565b8114620000cf57600080fd5b50565b600081519050620000e381620000b8565b92915050565b6000602082840312156200010257620001016200007f565b5b60006200011284828501620000d2565b91505092915050565b6121ec806200012b6000396000f3fe608060405234801561001057600080fd5b50600436106100575760003560e01c80631fc379221461005c5780632da96d731461008c5780637cfbac0a146100aa578063c041a425146100da578063fb629ff11461010a575b600080fd5b61007660048036038101906100719190610ee7565b610126565b6040516100839190611100565b60405180910390f35b6100946105f4565b6040516100a19190611100565b60405180910390f35b6100c460048036038101906100bf9190611443565b6108f1565b6040516100d19190611546565b60405180910390f35b6100f460048036038101906100ef9190611634565b610a30565b60405161010191906116f6565b60405180910390f35b610124600480360381019061011f9190611718565b610ae7565b005b60606000808054905067ffffffffffffffff8111156101485761014761112c565b5b60405190808252806020026020018201604052801561018157816020015b61016e610e30565b8152602001906001900390816101665790505b509050600080600160009054906101000a900473ffffffffffffffffffffffffffffffffffffffff1673ffffffffffffffffffffffffffffffffffffffff16637ddd92256040518163ffffffff1660e01b8152600401600060405180830381865afa1580156101f4573d6000803e3d6000fd5b505050506040513d6000823e3d601f19601f8201168201806040525081019061021d9190611ad2565b905060005b81518110156105e5578573ffffffffffffffffffffffffffffffffffffffff1682828151811061025557610254611b1b565b5b60200260200101516000015173ffffffffffffffffffffffffffffffffffffffff16036105d257600082828151811061029157610290611b1b565b5b602002602001015160200151905060006105a0826000805480602002602001604051908101604052809291908181526020016000905b8282101561059757838290600052602060002090600502016040518060a00160405290816000820180546102fa90611b79565b80601f016020809104026020016040519081016040528092919081815260200182805461032690611b79565b80156103735780601f1061034857610100808354040283529160200191610373565b820191906000526020600020905b81548152906001019060200180831161035657829003601f168201915b505050505081526020016001820160009054906101000a900473ffffffffffffffffffffffffffffffffffffffff1673ffffffffffffffffffffffffffffffffffffffff1673ffffffffffffffffffffffffffffffffffffffff1681526020016002820180546103e290611b79565b80601f016020809104026020016040519081016040528092919081815260200182805461040e90611b79565b801561045b5780601f106104305761010080835404028352916020019161045b565b820191906000526020600020905b81548152906001019060200180831161043e57829003601f168201915b5050505050815260200160038201805461047490611b79565b80601f01602080910402602001604051908101604052809291908181526020018280546104a090611b79565b80156104ed5780601f106104c2576101008083540402835291602001916104ed565b820191906000526020600020905b8154815290600101906020018083116104d057829003601f168201915b5050505050815260200160048201805461050690611b79565b80601f016020809104026020016040519081016040528092919081815260200182805461053290611b79565b801561057f5780601f106105545761010080835404028352916020019161057f565b820191906000526020600020905b81548152906001019060200180831161056257829003601f168201915b505050505081525050815260200190600101906102c7565b505050506108f1565b9050808686815181106105b6576105b5611b1b565b5b602002602001018190525084806105cc90611be3565b95505050505b80806105dd90611be3565b915050610222565b50818352829350505050919050565b60606000805480602002602001604051908101604052809291908181526020016000905b828210156108e857838290600052602060002090600502016040518060a001604052908160008201805461064b90611b79565b80601f016020809104026020016040519081016040528092919081815260200182805461067790611b79565b80156106c45780601f10610699576101008083540402835291602001916106c4565b820191906000526020600020905b8154815290600101906020018083116106a757829003601f168201915b505050505081526020016001820160009054906101000a900473ffffffffffffffffffffffffffffffffffffffff1673ffffffffffffffffffffffffffffffffffffffff1673ffffffffffffffffffffffffffffffffffffffff16815260200160028201805461073390611b79565b80601f016020809104026020016040519081016040528092919081815260200182805461075f90611b79565b80156107ac5780601f10610781576101008083540402835291602001916107ac565b820191906000526020600020905b81548152906001019060200180831161078f57829003601f168201915b505050505081526020016003820180546107c590611b79565b80601f01602080910402602001604051908101604052809291908181526020018280546107f190611b79565b801561083e5780601f106108135761010080835404028352916020019161083e565b820191906000526020600020905b81548152906001019060200180831161082157829003601f168201915b5050505050815260200160048201805461085790611b79565b80601f016020809104026020016040519081016040528092919081815260200182805461088390611b79565b80156108d05780601f106108a5576101008083540402835291602001916108d0565b820191906000526020600020905b8154815290600101906020018083116108b357829003601f168201915b50505050508152505081526020019060010190610618565b50505050905090565b6108f9610e30565b60005b82518110156109ac57836040516020016109169190611c67565b6040516020818303038152906040528051906020012083828151811061093f5761093e611b1b565b5b60200260200101516000015160405160200161095b9190611c67565b60405160208183030381529060405280519060200120036109995782818151811061098957610988611b1b565b5b6020026020010151915050610a2a565b80806109a490611be3565b9150506108fc565b506040518060a00160405280604051806020016040528060008152508152602001600073ffffffffffffffffffffffffffffffffffffffff1681526020016040518060200160405280600081525081526020016040518060200160405280600081525081526020016040518060200160405280600081525081525090505b92915050565b60606000610a418360000151610126565b90506000610a538560000151836108f1565b9050604051602001610a6490611ca4565b604051602081830303815290604052805190602001208160000151604051602001610a8f9190611c67565b6040516020818303038152906040528051906020012014610acc576040518060600160405280602681526020016121916026913992505050610ae1565b60405180602001604052806000815250925050505b92915050565b6000610af38483610a30565b90506000815103610def5760008490806001815401808255809150506001900390600052602060002090600502016000909190919091506000820151816000019081610b3f9190611e65565b5060208201518160010160006101000a81548173ffffffffffffffffffffffffffffffffffffffff021916908373ffffffffffffffffffffffffffffffffffffffff1602179055506040820151816002019081610b9c9190611e65565b506060820151816003019081610bb29190611e65565b506080820151816004019081610bc89190611e65565b5050506000600367ffffffffffffffff811115610be857610be761112c565b5b604051908082528060200260200182016040528015610c1b57816020015b6060815260200190600190039081610c065790505b5090506040518060400160405280600881526020017f646f776e6c6f616400000000000000000000000000000000000000000000000081525081600081518110610c6857610c67611b1b565b5b60200260200101819052506040518060400160405280600681526020017f64656c657465000000000000000000000000000000000000000000000000000081525081600181518110610cbd57610cbc611b1b565b5b60200260200101819052506040518060400160405280600581526020017f736861726500000000000000000000000000000000000000000000000000000081525081600281518110610d1257610d11611b1b565b5b6020026020010181905250600160009054906101000a900473ffffffffffffffffffffffffffffffffffffffff1673ffffffffffffffffffffffffffffffffffffffff166336d4bc6f848787856040518563ffffffff1660e01b8152600401610d7e949392919061206a565b600060405180830381600087803b158015610d9857600080fd5b505af1158015610dac573d6000803e3d6000fd5b505050507f6c863839cfd32d0f6385600bd22dfa35736ff518a92acb2bc960cacad49fb9bf6001604051610de09190612132565b60405180910390a15050610e2b565b7f6c863839cfd32d0f6385600bd22dfa35736ff518a92acb2bc960cacad49fb9bf600082604051610e21929190612160565b60405180910390a1505b505050565b6040518060a0016040528060608152602001600073ffffffffffffffffffffffffffffffffffffffff1681526020016060815260200160608152602001606081525090565b6000604051905090565b600080fd5b600080fd5b600073ffffffffffffffffffffffffffffffffffffffff82169050919050565b6000610eb482610e89565b9050919050565b610ec481610ea9565b8114610ecf57600080fd5b50565b600081359050610ee181610ebb565b92915050565b600060208284031215610efd57610efc610e7f565b5b6000610f0b84828501610ed2565b91505092915050565b600081519050919050565b600082825260208201905092915050565b6000819050602082019050919050565b600081519050919050565b600082825260208201905092915050565b60005b83811015610f7a578082015181840152602081019050610f5f565b60008484015250505050565b6000601f19601f8301169050919050565b6000610fa282610f40565b610fac8185610f4b565b9350610fbc818560208601610f5c565b610fc581610f86565b840191505092915050565b610fd981610ea9565b82525050565b600060a0830160008301518482036000860152610ffc8282610f97565b91505060208301516110116020860182610fd0565b50604083015184820360408601526110298282610f97565b915050606083015184820360608601526110438282610f97565b9150506080830151848203608086015261105d8282610f97565b9150508091505092915050565b60006110768383610fdf565b905092915050565b6000602082019050919050565b600061109682610f14565b6110a08185610f1f565b9350836020820285016110b285610f30565b8060005b858110156110ee57848403895281516110cf858261106a565b94506110da8361107e565b925060208a019950506001810190506110b6565b50829750879550505050505092915050565b6000602082019050818103600083015261111a818461108b565b905092915050565b600080fd5b600080fd5b7f4e487b7100000000000000000000000000000000000000000000000000000000600052604160045260246000fd5b61116482610f86565b810181811067ffffffffffffffff821117156111835761118261112c565b5b80604052505050565b6000611196610e75565b90506111a2828261115b565b919050565b600067ffffffffffffffff8211156111c2576111c161112c565b5b6111cb82610f86565b9050602081019050919050565b82818337600083830152505050565b60006111fa6111f5846111a7565b61118c565b90508281526020810184848401111561121657611215611127565b5b6112218482856111d8565b509392505050565b600082601f83011261123e5761123d611122565b5b813561124e8482602086016111e7565b91505092915050565b600067ffffffffffffffff8211156112725761127161112c565b5b602082029050602081019050919050565b600080fd5b600080fd5b600080fd5b600060a082840312156112a8576112a7611288565b5b6112b260a061118c565b9050600082013567ffffffffffffffff8111156112d2576112d161128d565b5b6112de84828501611229565b60008301525060206112f284828501610ed2565b602083015250604082013567ffffffffffffffff8111156113165761131561128d565b5b61132284828501611229565b604083015250606082013567ffffffffffffffff8111156113465761134561128d565b5b61135284828501611229565b606083015250608082013567ffffffffffffffff8111156113765761137561128d565b5b61138284828501611229565b60808301525092915050565b60006113a161139c84611257565b61118c565b905080838252602082019050602084028301858111156113c4576113c3611283565b5b835b8181101561140b57803567ffffffffffffffff8111156113e9576113e8611122565b5b8086016113f68982611292565b855260208501945050506020810190506113c6565b5050509392505050565b600082601f83011261142a57611429611122565b5b813561143a84826020860161138e565b91505092915050565b6000806040838503121561145a57611459610e7f565b5b600083013567ffffffffffffffff81111561147857611477610e84565b5b61148485828601611229565b925050602083013567ffffffffffffffff8111156114a5576114a4610e84565b5b6114b185828601611415565b9150509250929050565b600060a08301600083015184820360008601526114d88282610f97565b91505060208301516114ed6020860182610fd0565b50604083015184820360408601526115058282610f97565b9150506060830151848203606086015261151f8282610f97565b915050608083015184820360808601526115398282610f97565b9150508091505092915050565b6000602082019050818103600083015261156081846114bb565b905092915050565b60006080828403121561157e5761157d611288565b5b611588608061118c565b9050600061159884828501610ed2565b600083015250602082013567ffffffffffffffff8111156115bc576115bb61128d565b5b6115c884828501611229565b602083015250604082013567ffffffffffffffff8111156115ec576115eb61128d565b5b6115f884828501611229565b604083015250606082013567ffffffffffffffff81111561161c5761161b61128d565b5b61162884828501611229565b60608301525092915050565b6000806040838503121561164b5761164a610e7f565b5b600083013567ffffffffffffffff81111561166957611668610e84565b5b61167585828601611292565b925050602083013567ffffffffffffffff81111561169657611695610e84565b5b6116a285828601611568565b9150509250929050565b600082825260208201905092915050565b60006116c882610f40565b6116d281856116ac565b93506116e2818560208601610f5c565b6116eb81610f86565b840191505092915050565b6000602082019050818103600083015261171081846116bd565b905092915050565b60008060006060848603121561173157611730610e7f565b5b600084013567ffffffffffffffff81111561174f5761174e610e84565b5b61175b86828701611292565b935050602084013567ffffffffffffffff81111561177c5761177b610e84565b5b61178886828701611229565b925050604084013567ffffffffffffffff8111156117a9576117a8610e84565b5b6117b586828701611568565b9150509250925092565b600067ffffffffffffffff8211156117da576117d961112c565b5b602082029050602081019050919050565b6000815190506117fa81610ebb565b92915050565b600061181361180e846111a7565b61118c565b90508281526020810184848401111561182f5761182e611127565b5b61183a848285610f5c565b509392505050565b600082601f83011261185757611856611122565b5b8151611867848260208601611800565b91505092915050565b600067ffffffffffffffff82111561188b5761188a61112c565b5b602082029050602081019050919050565b60006118af6118aa84611870565b61118c565b905080838252602082019050602084028301858111156118d2576118d1611283565b5b835b8181101561191957805167ffffffffffffffff8111156118f7576118f6611122565b5b8086016119048982611842565b855260208501945050506020810190506118d4565b5050509392505050565b600082601f83011261193857611937611122565b5b815161194884826020860161189c565b91505092915050565b60006080828403121561196757611966611288565b5b611971608061118c565b90506000611981848285016117eb565b600083015250602082015167ffffffffffffffff8111156119a5576119a461128d565b5b6119b184828501611842565b602083015250604082015167ffffffffffffffff8111156119d5576119d461128d565b5b6119e184828501611842565b604083015250606082015167ffffffffffffffff811115611a0557611a0461128d565b5b611a1184828501611923565b60608301525092915050565b6000611a30611a2b846117bf565b61118c565b90508083825260208201905060208402830185811115611a5357611a52611283565b5b835b81811015611a9a57805167ffffffffffffffff811115611a7857611a77611122565b5b808601611a858982611951565b85526020850194505050602081019050611a55565b5050509392505050565b600082601f830112611ab957611ab8611122565b5b8151611ac9848260208601611a1d565b91505092915050565b600060208284031215611ae857611ae7610e7f565b5b600082015167ffffffffffffffff811115611b0657611b05610e84565b5b611b1284828501611aa4565b91505092915050565b7f4e487b7100000000000000000000000000000000000000000000000000000000600052603260045260246000fd5b7f4e487b7100000000000000000000000000000000000000000000000000000000600052602260045260246000fd5b60006002820490506001821680611b9157607f821691505b602082108103611ba457611ba3611b4a565b5b50919050565b7f4e487b7100000000000000000000000000000000000000000000000000000000600052601160045260246000fd5b6000819050919050565b6000611bee82611bd9565b91507fffffffffffffffffffffffffffffffffffffffffffffffffffffffffffffffff8203611c2057611c1f611baa565b5b600182019050919050565b600081905092915050565b6000611c4182610f40565b611c4b8185611c2b565b9350611c5b818560208601610f5c565b80840191505092915050565b6000611c738284611c36565b915081905092915050565b50565b6000611c8e600083611c2b565b9150611c9982611c7e565b600082019050919050565b6000611caf82611c81565b9150819050919050565b60008190508160005260206000209050919050565b60006020601f8301049050919050565b600082821b905092915050565b600060088302611d1b7fffffffffffffffffffffffffffffffffffffffffffffffffffffffffffffffff82611cde565b611d258683611cde565b95508019841693508086168417925050509392505050565b6000819050919050565b6000611d62611d5d611d5884611bd9565b611d3d565b611bd9565b9050919050565b6000819050919050565b611d7c83611d47565b611d90611d8882611d69565b848454611ceb565b825550505050565b600090565b611da5611d98565b611db0818484611d73565b505050565b5b81811015611dd457611dc9600082611d9d565b600181019050611db6565b5050565b601f821115611e1957611dea81611cb9565b611df384611cce565b81016020851015611e02578190505b611e16611e0e85611cce565b830182611db5565b50505b505050565b600082821c905092915050565b6000611e3c60001984600802611e1e565b1980831691505092915050565b6000611e558383611e2b565b9150826002028217905092915050565b611e6e82610f40565b67ffffffffffffffff811115611e8757611e8661112c565b5b611e918254611b79565b611e9c828285611dd8565b600060209050601f831160018114611ecf5760008415611ebd578287015190505b611ec78582611e49565b865550611f2f565b601f198416611edd86611cb9565b60005b82811015611f0557848901518255600182019150602085019450602081019050611ee0565b86831015611f225784890151611f1e601f891682611e2b565b8355505b6001600288020188555050505b505050505050565b6000608083016000830151611f4f6000860182610fd0565b5060208301518482036020860152611f678282610f97565b91505060408301518482036040860152611f818282610f97565b91505060608301518482036060860152611f9b8282610f97565b9150508091505092915050565b600081519050919050565b600082825260208201905092915050565b6000819050602082019050919050565b6000611fe08383610f97565b905092915050565b6000602082019050919050565b600061200082611fa8565b61200a8185611fb3565b93508360208202850161201c85611fc4565b8060005b8581101561205857848403895281516120398582611fd4565b945061204483611fe8565b925060208a01995050600181019050612020565b50829750879550505050505092915050565b600060808201905081810360008301526120848187611f37565b9050818103602083015261209881866114bb565b905081810360408301526120ac81856116bd565b905081810360608301526120c08184611ff5565b905095945050505050565b60008115159050919050565b6120e0816120cb565b82525050565b7f46696c652075706c6f61646564207375636365737366756c6c792e0000000000600082015250565b600061211c601b836116ac565b9150612127826120e6565b602082019050919050565b600060408201905061214760008301846120d7565b81810360208301526121588161210f565b905092915050565b600060408201905061217560008301856120d7565b818103602083015261218781846116bd565b9050939250505056fe5573657220616c7265616479206173736f6369617465642077697468207468652066696c652ea2646970667358221220a0728f274b4a5aece59b64f4d3d247eec1f6eac7d091a60908a525490141742264736f6c63430008130033",
  "linkReferences": {},
  "deployedLinkReferences": {}
}