{
  "_format": "hh-sol-artifact-1",
  "contractName": "StoreUser",
  "sourceName": "contracts/StoreUser.sol",
  "abi": [
    {
      "inputs": [
        {
          "internalType": "address",
          "name": "user",
          "type": "address"
        }
      ],
      "name": "getUser",
      "outputs": [
        {
          "components": [
            {
              "internalType": "address",
              "name": "account",
              "type": "address"
            },
            {
              "internalType": "string",
              "name": "publicKey",
              "type": "string"
            }
          ],
          "internalType": "struct User",
          "name": "",
          "type": "tuple"
        }
      ],
      "stateMutability": "view",
      "type": "function"
    },
    {
      "inputs": [
        {
          "components": [
            {
              "internalType": "address",
              "name": "account",
              "type": "address"
            },
            {
              "internalType": "string",
              "name": "publicKey",
              "type": "string"
            }
          ],
          "internalType": "struct User",
          "name": "user",
          "type": "tuple"
        }
      ],
      "name": "set",
      "outputs": [],
      "stateMutability": "nonpayable",
      "type": "function"
    }
  ],
  "bytecode": "0x608060405234801561001057600080fd5b50610abf806100206000396000f3fe608060405234801561001057600080fd5b50600436106100365760003560e01c80636f77926b1461003b57806382001a451461006b575b600080fd5b610055600480360381019061005091906103df565b610087565b60405161006291906104e8565b60405180910390f35b610085600480360381019061008091906106b5565b6101c7565b005b61008f61033d565b6000808373ffffffffffffffffffffffffffffffffffffffff1673ffffffffffffffffffffffffffffffffffffffff1681526020019081526020016000206040518060400160405290816000820160009054906101000a900473ffffffffffffffffffffffffffffffffffffffff1673ffffffffffffffffffffffffffffffffffffffff1673ffffffffffffffffffffffffffffffffffffffff16815260200160018201805461013e9061072d565b80601f016020809104026020016040519081016040528092919081815260200182805461016a9061072d565b80156101b75780601f1061018c576101008083540402835291602001916101b7565b820191906000526020600020905b81548152906001019060200180831161019a57829003601f168201915b5050505050815250509050919050565b600073ffffffffffffffffffffffffffffffffffffffff16600080836000015173ffffffffffffffffffffffffffffffffffffffff1673ffffffffffffffffffffffffffffffffffffffff16815260200190815260200160002060000160009054906101000a900473ffffffffffffffffffffffffffffffffffffffff1673ffffffffffffffffffffffffffffffffffffffff161461029b576040517f08c379a0000000000000000000000000000000000000000000000000000000008152600401610292906107e1565b60405180910390fd5b806000803373ffffffffffffffffffffffffffffffffffffffff1673ffffffffffffffffffffffffffffffffffffffff16815260200190815260200160002060008201518160000160006101000a81548173ffffffffffffffffffffffffffffffffffffffff021916908373ffffffffffffffffffffffffffffffffffffffff160217905550602082015181600101908161033691906109b7565b5090505050565b6040518060400160405280600073ffffffffffffffffffffffffffffffffffffffff168152602001606081525090565b6000604051905090565b600080fd5b600080fd5b600073ffffffffffffffffffffffffffffffffffffffff82169050919050565b60006103ac82610381565b9050919050565b6103bc816103a1565b81146103c757600080fd5b50565b6000813590506103d9816103b3565b92915050565b6000602082840312156103f5576103f4610377565b5b6000610403848285016103ca565b91505092915050565b610415816103a1565b82525050565b600081519050919050565b600082825260208201905092915050565b60005b8381101561045557808201518184015260208101905061043a565b60008484015250505050565b6000601f19601f8301169050919050565b600061047d8261041b565b6104878185610426565b9350610497818560208601610437565b6104a081610461565b840191505092915050565b60006040830160008301516104c3600086018261040c565b50602083015184820360208601526104db8282610472565b9150508091505092915050565b6000602082019050818103600083015261050281846104ab565b905092915050565b600080fd5b7f4e487b7100000000000000000000000000000000000000000000000000000000600052604160045260246000fd5b61054782610461565b810181811067ffffffffffffffff821117156105665761056561050f565b5b80604052505050565b600061057961036d565b9050610585828261053e565b919050565b600080fd5b600080fd5b600080fd5b600067ffffffffffffffff8211156105b4576105b361050f565b5b6105bd82610461565b9050602081019050919050565b82818337600083830152505050565b60006105ec6105e784610599565b61056f565b90508281526020810184848401111561060857610607610594565b5b6106138482856105ca565b509392505050565b600082601f8301126106305761062f61058f565b5b81356106408482602086016105d9565b91505092915050565b60006040828403121561065f5761065e61050a565b5b610669604061056f565b90506000610679848285016103ca565b600083015250602082013567ffffffffffffffff81111561069d5761069c61058a565b5b6106a98482850161061b565b60208301525092915050565b6000602082840312156106cb576106ca610377565b5b600082013567ffffffffffffffff8111156106e9576106e861037c565b5b6106f584828501610649565b91505092915050565b7f4e487b7100000000000000000000000000000000000000000000000000000000600052602260045260246000fd5b6000600282049050600182168061074557607f821691505b602082108103610758576107576106fe565b5b50919050565b600082825260208201905092915050565b7f5573657220616c72656164792065786973747320666f7220746869732061646460008201527f7265737300000000000000000000000000000000000000000000000000000000602082015250565b60006107cb60248361075e565b91506107d68261076f565b604082019050919050565b600060208201905081810360008301526107fa816107be565b9050919050565b60008190508160005260206000209050919050565b60006020601f8301049050919050565b600082821b905092915050565b6000600883026108637fffffffffffffffffffffffffffffffffffffffffffffffffffffffffffffffff82610826565b61086d8683610826565b95508019841693508086168417925050509392505050565b6000819050919050565b6000819050919050565b60006108b46108af6108aa84610885565b61088f565b610885565b9050919050565b6000819050919050565b6108ce83610899565b6108e26108da826108bb565b848454610833565b825550505050565b600090565b6108f76108ea565b6109028184846108c5565b505050565b5b818110156109265761091b6000826108ef565b600181019050610908565b5050565b601f82111561096b5761093c81610801565b61094584610816565b81016020851015610954578190505b61096861096085610816565b830182610907565b50505b505050565b600082821c905092915050565b600061098e60001984600802610970565b1980831691505092915050565b60006109a7838361097d565b9150826002028217905092915050565b6109c08261041b565b67ffffffffffffffff8111156109d9576109d861050f565b5b6109e3825461072d565b6109ee82828561092a565b600060209050601f831160018114610a215760008415610a0f578287015190505b610a19858261099b565b865550610a81565b601f198416610a2f86610801565b60005b82811015610a5757848901518255600182019150602085019450602081019050610a32565b86831015610a745784890151610a70601f89168261097d565b8355505b6001600288020188555050505b50505050505056fea2646970667358221220f8902936f1934c5392a26dd3bf80597d4aac8893ae176d225a0204f40f82e1cf64736f6c63430008130033",
  "linkReferences": {},
  "deployedLinkReferences": {}
}