{
  "_format": "hh-sol-artifact-1",
  "contractName": "StoreUser",
  "sourceName": "contracts/StoreUser.sol",
  "abi": [
    {
      "anonymous": false,
      "inputs": [
        {
          "indexed": false,
          "internalType": "bool",
          "name": "success",
          "type": "bool"
        },
        {
          "indexed": false,
          "internalType": "string",
          "name": "message",
          "type": "string"
        }
      ],
      "name": "RegistrationResult",
      "type": "event"
    },
    {
      "inputs": [
        {
          "components": [
            {
              "internalType": "address",
              "name": "account",
              "type": "address"
            },
            {
              "internalType": "string",
              "name": "name",
              "type": "string"
            },
            {
              "internalType": "string",
              "name": "publicKey",
              "type": "string"
            },
            {
              "internalType": "string",
              "name": "privateKey",
              "type": "string"
            }
          ],
          "internalType": "struct User",
          "name": "user",
          "type": "tuple"
        }
      ],
      "name": "checkRegistration",
      "outputs": [
        {
          "internalType": "string",
          "name": "",
          "type": "string"
        }
      ],
      "stateMutability": "view",
      "type": "function"
    },
    {
      "inputs": [
        {
          "internalType": "address",
          "name": "account",
          "type": "address"
        }
      ],
      "name": "getUser",
      "outputs": [
        {
          "components": [
            {
              "internalType": "address",
              "name": "account",
              "type": "address"
            },
            {
              "internalType": "string",
              "name": "name",
              "type": "string"
            },
            {
              "internalType": "string",
              "name": "publicKey",
              "type": "string"
            },
            {
              "internalType": "string",
              "name": "privateKey",
              "type": "string"
            }
          ],
          "internalType": "struct User",
          "name": "",
          "type": "tuple"
        }
      ],
      "stateMutability": "view",
      "type": "function"
    },
    {
      "inputs": [
        {
          "components": [
            {
              "internalType": "address",
              "name": "account",
              "type": "address"
            },
            {
              "internalType": "string",
              "name": "name",
              "type": "string"
            },
            {
              "internalType": "string",
              "name": "publicKey",
              "type": "string"
            },
            {
              "internalType": "string",
              "name": "privateKey",
              "type": "string"
            }
          ],
          "internalType": "struct User",
          "name": "user",
          "type": "tuple"
        }
      ],
      "name": "register",
      "outputs": [],
      "stateMutability": "nonpayable",
      "type": "function"
    }
  ],
  "bytecode": "0x608060405234801561001057600080fd5b5061109e806100206000396000f3fe608060405234801561001057600080fd5b50600436106100415760003560e01c8063610273da1461004657806362629bef146100765780636f77926b14610092575b600080fd5b610060600480360381019061005b9190610933565b6100c2565b60405161006d91906109fb565b60405180910390f35b610090600480360381019061008b9190610933565b610226565b005b6100ac60048036038101906100a79190610a1d565b610370565b6040516100b99190610b14565b60405180910390f35b606060005b60008054905081101561020d57826000015173ffffffffffffffffffffffffffffffffffffffff166000828154811061010357610102610b36565b5b906000526020600020906004020160000160009054906101000a900473ffffffffffffffffffffffffffffffffffffffff1673ffffffffffffffffffffffffffffffffffffffff16036101715760405180606001604052806025815260200161104460259139915050610221565b8260200151805190602001206000828154811061019157610190610b36565b5b90600052602060002090600402016001016040516101af9190610c68565b6040518091039020036101fa576040518060400160405280601f81526020017f557365722068617320746f2068617665206120756e69717565206e616d652e00815250915050610221565b808061020590610cb8565b9150506100c7565b506040518060200160405280600081525090505b919050565b6000610231826100c2565b9050600081510361033157600082908060018154018082558091505060019003906000526020600020906004020160009091909190915060008201518160000160006101000a81548173ffffffffffffffffffffffffffffffffffffffff021916908373ffffffffffffffffffffffffffffffffffffffff16021790555060208201518160010190816102c49190610eac565b5060408201518160020190816102da9190610eac565b5060608201518160030190816102f09190610eac565b5050507f40590457641da6c4e096f4ca29eb26968297d549f04209fa29e48fa5e22405cb60016040516103239190610fe5565b60405180910390a15061036d565b7f40590457641da6c4e096f4ca29eb26968297d549f04209fa29e48fa5e22405cb600082604051610363929190611013565b60405180910390a1505b50565b610378610667565b60005b600080549050811015610654578273ffffffffffffffffffffffffffffffffffffffff16600082815481106103b3576103b2610b36565b5b906000526020600020906004020160000160009054906101000a900473ffffffffffffffffffffffffffffffffffffffff1673ffffffffffffffffffffffffffffffffffffffff1603610641576000818154811061041457610413610b36565b5b90600052602060002090600402016040518060800160405290816000820160009054906101000a900473ffffffffffffffffffffffffffffffffffffffff1673ffffffffffffffffffffffffffffffffffffffff1673ffffffffffffffffffffffffffffffffffffffff16815260200160018201805461049390610b94565b80601f01602080910402602001604051908101604052809291908181526020018280546104bf90610b94565b801561050c5780601f106104e15761010080835404028352916020019161050c565b820191906000526020600020905b8154815290600101906020018083116104ef57829003601f168201915b5050505050815260200160028201805461052590610b94565b80601f016020809104026020016040519081016040528092919081815260200182805461055190610b94565b801561059e5780601f106105735761010080835404028352916020019161059e565b820191906000526020600020905b81548152906001019060200180831161058157829003601f168201915b505050505081526020016003820180546105b790610b94565b80601f01602080910402602001604051908101604052809291908181526020018280546105e390610b94565b80156106305780601f1061060557610100808354040283529160200191610630565b820191906000526020600020905b81548152906001019060200180831161061357829003601f168201915b505050505081525050915050610662565b808061064c90610cb8565b91505061037b565b5061065d610667565b809150505b919050565b6040518060800160405280600073ffffffffffffffffffffffffffffffffffffffff1681526020016060815260200160608152602001606081525090565b6000604051905090565b600080fd5b600080fd5b600080fd5b6000601f19601f8301169050919050565b7f4e487b7100000000000000000000000000000000000000000000000000000000600052604160045260246000fd5b610707826106be565b810181811067ffffffffffffffff82111715610726576107256106cf565b5b80604052505050565b60006107396106a5565b905061074582826106fe565b919050565b600080fd5b600073ffffffffffffffffffffffffffffffffffffffff82169050919050565b600061077a8261074f565b9050919050565b61078a8161076f565b811461079557600080fd5b50565b6000813590506107a781610781565b92915050565b600080fd5b600080fd5b600067ffffffffffffffff8211156107d2576107d16106cf565b5b6107db826106be565b9050602081019050919050565b82818337600083830152505050565b600061080a610805846107b7565b61072f565b905082815260208101848484011115610826576108256107b2565b5b6108318482856107e8565b509392505050565b600082601f83011261084e5761084d6107ad565b5b813561085e8482602086016107f7565b91505092915050565b60006080828403121561087d5761087c6106b9565b5b610887608061072f565b9050600061089784828501610798565b600083015250602082013567ffffffffffffffff8111156108bb576108ba61074a565b5b6108c784828501610839565b602083015250604082013567ffffffffffffffff8111156108eb576108ea61074a565b5b6108f784828501610839565b604083015250606082013567ffffffffffffffff81111561091b5761091a61074a565b5b61092784828501610839565b60608301525092915050565b600060208284031215610949576109486106af565b5b600082013567ffffffffffffffff811115610967576109666106b4565b5b61097384828501610867565b91505092915050565b600081519050919050565b600082825260208201905092915050565b60005b838110156109b657808201518184015260208101905061099b565b60008484015250505050565b60006109cd8261097c565b6109d78185610987565b93506109e7818560208601610998565b6109f0816106be565b840191505092915050565b60006020820190508181036000830152610a1581846109c2565b905092915050565b600060208284031215610a3357610a326106af565b5b6000610a4184828501610798565b91505092915050565b610a538161076f565b82525050565b600082825260208201905092915050565b6000610a758261097c565b610a7f8185610a59565b9350610a8f818560208601610998565b610a98816106be565b840191505092915050565b6000608083016000830151610abb6000860182610a4a565b5060208301518482036020860152610ad38282610a6a565b91505060408301518482036040860152610aed8282610a6a565b91505060608301518482036060860152610b078282610a6a565b9150508091505092915050565b60006020820190508181036000830152610b2e8184610aa3565b905092915050565b7f4e487b7100000000000000000000000000000000000000000000000000000000600052603260045260246000fd5b7f4e487b7100000000000000000000000000000000000000000000000000000000600052602260045260246000fd5b60006002820490506001821680610bac57607f821691505b602082108103610bbf57610bbe610b65565b5b50919050565b600081905092915050565b60008190508160005260206000209050919050565b60008154610bf281610b94565b610bfc8186610bc5565b94506001821660008114610c175760018114610c2c57610c5f565b60ff1983168652811515820286019350610c5f565b610c3585610bd0565b60005b83811015610c5757815481890152600182019150602081019050610c38565b838801955050505b50505092915050565b6000610c748284610be5565b915081905092915050565b7f4e487b7100000000000000000000000000000000000000000000000000000000600052601160045260246000fd5b6000819050919050565b6000610cc382610cae565b91507fffffffffffffffffffffffffffffffffffffffffffffffffffffffffffffffff8203610cf557610cf4610c7f565b5b600182019050919050565b60008190508160005260206000209050919050565b60006020601f8301049050919050565b600082821b905092915050565b600060088302610d627fffffffffffffffffffffffffffffffffffffffffffffffffffffffffffffffff82610d25565b610d6c8683610d25565b95508019841693508086168417925050509392505050565b6000819050919050565b6000610da9610da4610d9f84610cae565b610d84565b610cae565b9050919050565b6000819050919050565b610dc383610d8e565b610dd7610dcf82610db0565b848454610d32565b825550505050565b600090565b610dec610ddf565b610df7818484610dba565b505050565b5b81811015610e1b57610e10600082610de4565b600181019050610dfd565b5050565b601f821115610e6057610e3181610d00565b610e3a84610d15565b81016020851015610e49578190505b610e5d610e5585610d15565b830182610dfc565b50505b505050565b600082821c905092915050565b6000610e8360001984600802610e65565b1980831691505092915050565b6000610e9c8383610e72565b9150826002028217905092915050565b610eb58261097c565b67ffffffffffffffff811115610ece57610ecd6106cf565b5b610ed88254610b94565b610ee3828285610e1f565b600060209050601f831160018114610f165760008415610f04578287015190505b610f0e8582610e90565b865550610f76565b601f198416610f2486610d00565b60005b82811015610f4c57848901518255600182019150602085019450602081019050610f27565b86831015610f695784890151610f65601f891682610e72565b8355505b6001600288020188555050505b505050505050565b60008115159050919050565b610f9381610f7e565b82525050565b7f557365722072656769737465726564207375636365737366756c6c7900000000600082015250565b6000610fcf601c83610987565b9150610fda82610f99565b602082019050919050565b6000604082019050610ffa6000830184610f8a565b818103602083015261100b81610fc2565b905092915050565b60006040820190506110286000830185610f8a565b818103602083015261103a81846109c2565b9050939250505056fe5573657220616c72656164792065786973747320666f72207468697320616464726573732ea26469706673582212207bee3708fd6da8fad446ac51e9545a8d33ce394e31d880dac925da73d1567af664736f6c63430008130033",
  "linkReferences": {},
  "deployedLinkReferences": {}
}