{
  "_format": "hh-sol-artifact-1",
  "contractName": "Helper",
  "sourceName": "contracts/Helper.sol",
  "abi": [
    {
      "inputs": [
        {
          "components": [
            {
              "internalType": "string",
              "name": "ipfsCID",
              "type": "string"
            },
            {
              "internalType": "string",
              "name": "fileName",
              "type": "string"
            },
            {
              "internalType": "address",
              "name": "owner",
              "type": "address"
            },
            {
              "internalType": "string",
              "name": "fileType",
              "type": "string"
            },
            {
              "internalType": "string",
              "name": "iv",
              "type": "string"
            }
          ],
          "internalType": "struct FileRegister.File",
          "name": "file",
          "type": "tuple"
        }
      ],
      "name": "fileParamValid",
      "outputs": [
        {
          "internalType": "bool",
          "name": "",
          "type": "bool"
        }
      ],
      "stateMutability": "pure",
      "type": "function"
    },
    {
      "inputs": [
        {
          "components": [
            {
              "internalType": "address",
              "name": "account",
              "type": "address"
            },
            {
              "internalType": "string",
              "name": "userName",
              "type": "string"
            },
            {
              "internalType": "string",
              "name": "publicKey",
              "type": "string"
            },
            {
              "internalType": "string",
              "name": "privateKey",
              "type": "string"
            }
          ],
          "internalType": "struct UserRegister.User",
          "name": "user",
          "type": "tuple"
        }
      ],
      "name": "validUserFields",
      "outputs": [
        {
          "internalType": "bool",
          "name": "",
          "type": "bool"
        }
      ],
      "stateMutability": "pure",
      "type": "function"
    },
    {
      "inputs": [
        {
          "internalType": "address",
          "name": "userAccount",
          "type": "address"
        },
        {
          "internalType": "string",
          "name": "fileIpfsCID",
          "type": "string"
        },
        {
          "internalType": "string",
          "name": "encSymmetricKey",
          "type": "string"
        },
        {
          "internalType": "string[]",
          "name": "permissions",
          "type": "string[]"
        }
      ],
      "name": "verifyValidFields",
      "outputs": [
        {
          "internalType": "bool",
          "name": "",
          "type": "bool"
        }
      ],
      "stateMutability": "pure",
      "type": "function"
    }
  ],
  "bytecode": "0x608060405234801561001057600080fd5b50610890806100206000396000f3fe608060405234801561001057600080fd5b50600436106100415760003560e01c8063c1f69fd614610046578063e779f45014610076578063f4520b2c146100a6575b600080fd5b610060600480360381019061005b9190610505565b6100d6565b60405161006d91906105db565b60405180910390f35b610090600480360381019061008b91906106cc565b61014d565b60405161009d91906105db565b60405180910390f35b6100c060048036038101906100bb9190610811565b6101d1565b6040516100cd91906105db565b60405180910390f35b60008073ffffffffffffffffffffffffffffffffffffffff168573ffffffffffffffffffffffffffffffffffffffff161415801561011657506000845114155b801561012457506000835114155b801561013257506000825114155b156101405760019050610145565b600090505b949350505050565b60008073ffffffffffffffffffffffffffffffffffffffff16826000015173ffffffffffffffffffffffffffffffffffffffff16141580156101955750600082602001515114155b80156101a75750600082604001515114155b80156101b95750600082606001515114155b156101c757600190506101cc565b600090505b919050565b600080826000015151141580156101ee5750600082602001515114155b80156102005750600082606001515114155b80156102125750600082608001515114155b801561024f5750600073ffffffffffffffffffffffffffffffffffffffff16826040015173ffffffffffffffffffffffffffffffffffffffff1614155b1561025d5760019050610262565b600090505b919050565b6000604051905090565b600080fd5b600080fd5b600073ffffffffffffffffffffffffffffffffffffffff82169050919050565b60006102a68261027b565b9050919050565b6102b68161029b565b81146102c157600080fd5b50565b6000813590506102d3816102ad565b92915050565b600080fd5b600080fd5b6000601f19601f8301169050919050565b7f4e487b7100000000000000000000000000000000000000000000000000000000600052604160045260246000fd5b61032c826102e3565b810181811067ffffffffffffffff8211171561034b5761034a6102f4565b5b80604052505050565b600061035e610267565b905061036a8282610323565b919050565b600067ffffffffffffffff82111561038a576103896102f4565b5b610393826102e3565b9050602081019050919050565b82818337600083830152505050565b60006103c26103bd8461036f565b610354565b9050828152602081018484840111156103de576103dd6102de565b5b6103e98482856103a0565b509392505050565b600082601f830112610406576104056102d9565b5b81356104168482602086016103af565b91505092915050565b600067ffffffffffffffff82111561043a576104396102f4565b5b602082029050602081019050919050565b600080fd5b600061046361045e8461041f565b610354565b905080838252602082019050602084028301858111156104865761048561044b565b5b835b818110156104cd57803567ffffffffffffffff8111156104ab576104aa6102d9565b5b8086016104b889826103f1565b85526020850194505050602081019050610488565b5050509392505050565b600082601f8301126104ec576104eb6102d9565b5b81356104fc848260208601610450565b91505092915050565b6000806000806080858703121561051f5761051e610271565b5b600061052d878288016102c4565b945050602085013567ffffffffffffffff81111561054e5761054d610276565b5b61055a878288016103f1565b935050604085013567ffffffffffffffff81111561057b5761057a610276565b5b610587878288016103f1565b925050606085013567ffffffffffffffff8111156105a8576105a7610276565b5b6105b4878288016104d7565b91505092959194509250565b60008115159050919050565b6105d5816105c0565b82525050565b60006020820190506105f060008301846105cc565b92915050565b600080fd5b600080fd5b600060808284031215610616576106156105f6565b5b6106206080610354565b90506000610630848285016102c4565b600083015250602082013567ffffffffffffffff811115610654576106536105fb565b5b610660848285016103f1565b602083015250604082013567ffffffffffffffff811115610684576106836105fb565b5b610690848285016103f1565b604083015250606082013567ffffffffffffffff8111156106b4576106b36105fb565b5b6106c0848285016103f1565b60608301525092915050565b6000602082840312156106e2576106e1610271565b5b600082013567ffffffffffffffff811115610700576106ff610276565b5b61070c84828501610600565b91505092915050565b600060a0828403121561072b5761072a6105f6565b5b61073560a0610354565b9050600082013567ffffffffffffffff811115610755576107546105fb565b5b610761848285016103f1565b600083015250602082013567ffffffffffffffff811115610785576107846105fb565b5b610791848285016103f1565b60208301525060406107a5848285016102c4565b604083015250606082013567ffffffffffffffff8111156107c9576107c86105fb565b5b6107d5848285016103f1565b606083015250608082013567ffffffffffffffff8111156107f9576107f86105fb565b5b610805848285016103f1565b60808301525092915050565b60006020828403121561082757610826610271565b5b600082013567ffffffffffffffff81111561084557610844610276565b5b61085184828501610715565b9150509291505056fea26469706673582212204b81a614d6f3bb9ca17786b0e57bb2fb8cd62fea026a81f8c25737007806271364736f6c63430008130033",
  "linkReferences": {},
  "deployedLinkReferences": {}
}