{
  "_format": "hh-sol-artifact-1",
  "contractName": "Helper",
  "sourceName": "contracts/Helper.sol",
  "abi": [
    {
      "inputs": [
        {
          "components": [
            {
              "internalType": "string",
              "name": "ipfsCID",
              "type": "string"
            },
            {
              "internalType": "string",
              "name": "fileName",
              "type": "string"
            },
            {
              "internalType": "int256",
              "name": "version",
              "type": "int256"
            },
            {
              "internalType": "string",
              "name": "prevIpfsCID",
              "type": "string"
            },
            {
              "internalType": "address",
              "name": "owner",
              "type": "address"
            },
            {
              "internalType": "string",
              "name": "fileType",
              "type": "string"
            },
            {
              "internalType": "string",
              "name": "iv",
              "type": "string"
            },
            {
              "internalType": "string",
              "name": "state",
              "type": "string"
            },
            {
              "internalType": "string",
              "name": "fileHash",
              "type": "string"
            }
          ],
          "internalType": "struct FileRegister.File",
          "name": "file",
          "type": "tuple"
        }
      ],
      "name": "fileParamValid",
      "outputs": [
        {
          "internalType": "bool",
          "name": "",
          "type": "bool"
        }
      ],
      "stateMutability": "pure",
      "type": "function"
    },
    {
      "inputs": [
        {
          "internalType": "address",
          "name": "accountInput",
          "type": "address"
        },
        {
          "internalType": "address",
          "name": "accountList",
          "type": "address"
        },
        {
          "internalType": "string",
          "name": "ipfsCIDInput",
          "type": "string"
        },
        {
          "internalType": "string",
          "name": "ipfsCIDList",
          "type": "string"
        }
      ],
      "name": "isKeyEqual",
      "outputs": [
        {
          "internalType": "bool",
          "name": "",
          "type": "bool"
        }
      ],
      "stateMutability": "pure",
      "type": "function"
    },
    {
      "inputs": [
        {
          "internalType": "string[]",
          "name": "permissions",
          "type": "string[]"
        }
      ],
      "name": "stringArrayToString",
      "outputs": [
        {
          "components": [
            {
              "internalType": "bool",
              "name": "success",
              "type": "bool"
            },
            {
              "internalType": "string",
              "name": "resultString",
              "type": "string"
            },
            {
              "internalType": "string",
              "name": "message",
              "type": "string"
            }
          ],
          "internalType": "struct Helper.ResultString",
          "name": "",
          "type": "tuple"
        }
      ],
      "stateMutability": "pure",
      "type": "function"
    },
    {
      "inputs": [
        {
          "internalType": "string",
          "name": "_str",
          "type": "string"
        }
      ],
      "name": "toLower",
      "outputs": [
        {
          "internalType": "string",
          "name": "",
          "type": "string"
        }
      ],
      "stateMutability": "pure",
      "type": "function"
    },
    {
      "inputs": [
        {
          "internalType": "string[]",
          "name": "permissions",
          "type": "string[]"
        }
      ],
      "name": "validPermissions",
      "outputs": [
        {
          "internalType": "bool",
          "name": "",
          "type": "bool"
        }
      ],
      "stateMutability": "pure",
      "type": "function"
    },
    {
      "inputs": [
        {
          "components": [
            {
              "internalType": "address",
              "name": "account",
              "type": "address"
            },
            {
              "internalType": "string",
              "name": "userName",
              "type": "string"
            },
            {
              "internalType": "string",
              "name": "mnemonic",
              "type": "string"
            },
            {
              "internalType": "string",
              "name": "publicKey",
              "type": "string"
            }
          ],
          "internalType": "struct UserRegister.User",
          "name": "user",
          "type": "tuple"
        }
      ],
      "name": "validUserFields",
      "outputs": [
        {
          "internalType": "bool",
          "name": "",
          "type": "bool"
        }
      ],
      "stateMutability": "pure",
      "type": "function"
    },
    {
      "inputs": [
        {
          "internalType": "address",
          "name": "userAccount",
          "type": "address"
        },
        {
          "internalType": "string",
          "name": "fileIpfsCID",
          "type": "string"
        },
        {
          "internalType": "string[]",
          "name": "permissions",
          "type": "string[]"
        },
        {
          "internalType": "string",
          "name": "state",
          "type": "string"
        }
      ],
      "name": "verifyValidFields",
      "outputs": [
        {
          "internalType": "bool",
          "name": "",
          "type": "bool"
        }
      ],
      "stateMutability": "pure",
      "type": "function"
    }
  ],
  "bytecode": "0x608060405234801561001057600080fd5b50611c83806100206000396000f3fe608060405234801561001057600080fd5b506004361061007d5760003560e01c8063872e35a91161005b578063872e35a9146101125780639416b42314610142578063bda49b1d14610172578063e779f450146101a25761007d565b80634294a5ad146100825780635c99c71b146100b25780636bb8d768146100e2575b600080fd5b61009c60048036038101906100979190611223565b6101d2565b6040516100a99190611287565b60405180910390f35b6100cc60048036038101906100c791906112a2565b61035c565b6040516100d99190611287565b60405180910390f35b6100fc60048036038101906100f79190611427565b61042a565b6040516101099190611555565b60405180910390f35b61012c60048036038101906101279190611577565b610608565b6040516101399190611287565b60405180910390f35b61015c60048036038101906101579190611632565b61076a565b60405161016991906116c5565b60405180910390f35b61018c60048036038101906101879190611427565b61095f565b6040516101999190611287565b60405180910390f35b6101bc60048036038101906101b791906117b3565b610d0d565b6040516101c99190611287565b60405180910390f35b60006101e867bde95fc9650a1f3d60c01b610e61565b6101fc67eb56d063ff545eba60c01b610e61565b61021067bbb4fb210fc6f39e60c01b610e61565b60008260000151511415801561022c5750600082602001515114155b801561023e575060008260a001515114155b8015610250575060008260c001515114155b801561028d5750600073ffffffffffffffffffffffffffffffffffffffff16826080015173ffffffffffffffffffffffffffffffffffffffff1614155b80156102cc5750816080015173ffffffffffffffffffffffffffffffffffffffff16826080015173ffffffffffffffffffffffffffffffffffffffff16145b15610316576102e5675dd040cda9f690fa60c01b610e61565b6102f96708c4011818e5988560c01b610e61565b61030d67d401d54c3d6513e260c01b610e61565b60019050610357565b61032a67e87ae91a6fc2144a60c01b610e61565b61033e6781eb915b629ef01b60c01b610e61565b610352673e229a5c93ed4a0f60c01b610e61565b600090505b919050565b6000610372679324233637b53eb560c01b610e61565b61038667d6952f549a124b4160c01b610e61565b61039a6795f6f2586e1896cc60c01b610e61565b8473ffffffffffffffffffffffffffffffffffffffff168473ffffffffffffffffffffffffffffffffffffffff161480156104205750826040516020016103e19190611838565b60405160208183030381529060405280519060200120826040516020016104089190611838565b60405160208183030381529060405280519060200120145b9050949350505050565b610432610e64565b61044667de780091e6969cb060c01b610e61565b61045a677afcc9f5522dc34c60c01b610e61565b61046e67f204d372b35a4d3060c01b610e61565b606061048467dfa6ef8ebe846d8e60c01b610e61565b61049867a6fe7087393106ff60c01b610e61565b60005b83518110156105aa576104b8671420252929fc07f260c01b610e61565b818482815181106104cc576104cb61184f565b5b60200260200101516040516020016104e592919061187e565b604051602081830303815290604052915061050a67fe64cd1538d635ad60c01b610e61565b61051e676c17b180c9142f6560c01b610e61565b6001845161052c91906118db565b8110156105825761054767e6326549f7eae19a60c01b610e61565b61055b67e00834dbca4c902560c01b610e61565b8160405160200161056c919061195b565b6040516020818303038152906040529150610597565b610596676a6e856429d2561060c01b610e61565b5b80806105a29061197d565b91505061049b565b506105bf676b426804b500134060c01b610e61565b6105d367b0d1ffaf39a2dd4560c01b610e61565b604051806060016040528060011515815260200182815260200160405180602001604052806000815250815250915050919050565b600061061e675daed920a2c2e24160c01b610e61565b6106326729ff0f0b96da4c7460c01b610e61565b610646677167f794a75a242360c01b610e61565b600073ffffffffffffffffffffffffffffffffffffffff168573ffffffffffffffffffffffffffffffffffffffff16141580156106ae57508473ffffffffffffffffffffffffffffffffffffffff168573ffffffffffffffffffffffffffffffffffffffff16145b80156106bc57506000845114155b80156106ca57506000835114155b80156106d7575060008251145b15610721576106f067095cf6cd88283f1860c01b610e61565b61070467982e53ae5879871860c01b610e61565b610718675db36025d46f09f660c01b610e61565b60019050610762565b61073567bf1d5a6d1c041a7360c01b610e61565b610749673e14169e3eeee45f60c01b610e61565b61075d6709abcbb74ebfeb0d60c01b610e61565b600090505b949350505050565b606061078067bb751523e61aab8460c01b610e61565b6107946783f7a7a6c4052ed060c01b610e61565b6107a867e0cde416d9bb8f7960c01b610e61565b60008290506107c16707d8946d7321ed9560c01b610e61565b6107d5676f7978e8577de0cb60c01b610e61565b60005b815181101561092d576107f567eda96a6cd66842ea60c01b610e61565b610809670f7a412c075eb44b60c01b610e61565b604182828151811061081e5761081d61184f565b5b602001015160f81c60f81b60f81c60ff16101580156108615750605a82828151811061084d5761084c61184f565b5b602001015160f81c60f81b60f81c60ff1611155b156109055761087a67596e402c677fae1860c01b610e61565b61088e6704622db17afbd5cc60c01b610e61565b60208282815181106108a3576108a261184f565b5b602001015160f81c60f81b60f81c6108bb91906119d2565b60f81b8282815181106108d1576108d061184f565b5b60200101907effffffffffffffffffffffffffffffffffffffffffffffffffffffffffffff1916908160001a90535061091a565b610919672176d9101984e48960c01b610e61565b5b80806109259061197d565b9150506107d8565b5061094267e829e547b4e1cb5560c01b610e61565b610956672c6f53b16d4e27c860c01b610e61565b80915050919050565b600061097567791fcd20410449b960c01b610e61565b61098967e45dfc77fefbf32760c01b610e61565b61099d671fe4f021a238f22160c01b610e61565b60005b8251811015610cda576109bc66ea0575f0d57a1760c01b610e61565b6109d06771f1ec9699a1068d60c01b610e61565b6040516020016109df90611a53565b60405160208183030381529060405280519060200120838281518110610a0857610a0761184f565b5b6020026020010151604051602001610a209190611838565b6040516020818303038152906040528051906020012014158015610aa85750604051602001610a4e90611ab4565b60405160208183030381529060405280519060200120838281518110610a7757610a7661184f565b5b6020026020010151604051602001610a8f9190611838565b6040516020818303038152906040528051906020012014155b8015610b185750604051602001610abe90611b15565b60405160208183030381529060405280519060200120838281518110610ae757610ae661184f565b5b6020026020010151604051602001610aff9190611838565b6040516020818303038152906040528051906020012014155b8015610b885750604051602001610b2e90611b76565b60405160208183030381529060405280519060200120838281518110610b5757610b5661184f565b5b6020026020010151604051602001610b6f9190611838565b6040516020818303038152906040528051906020012014155b8015610bf85750604051602001610b9e90611bd7565b60405160208183030381529060405280519060200120838281518110610bc757610bc661184f565b5b6020026020010151604051602001610bdf9190611838565b6040516020818303038152906040528051906020012014155b8015610c685750604051602001610c0e90611c38565b60405160208183030381529060405280519060200120838281518110610c3757610c3661184f565b5b6020026020010151604051602001610c4f9190611838565b6040516020818303038152906040528051906020012014155b15610cb357610c816704b842d9360fd18260c01b610e61565b610c9567ef994fd38d9544f860c01b610e61565b610ca967c00b4319c56bae2b60c01b610e61565b6000915050610d08565b610cc767508d92fe8650cd2360c01b610e61565b8080610cd29061197d565b9150506109a0565b50610cef67160ed6ae2c9b19f560c01b610e61565b610d0367f23057034f600b8860c01b610e61565b600190505b919050565b6000610d236768b0f8800f5d03e660c01b610e61565b610d3767fa2f5d5bf26abf0a60c01b610e61565b610d4b677442f93116ee9f9e60c01b610e61565b600073ffffffffffffffffffffffffffffffffffffffff16826000015173ffffffffffffffffffffffffffffffffffffffff1614158015610dbf5750816000015173ffffffffffffffffffffffffffffffffffffffff16826000015173ffffffffffffffffffffffffffffffffffffffff16145b8015610dd15750600082602001515114155b15610e1b57610dea67f0cf758e70dd065760c01b610e61565b610dfe6717cb0968e21533f760c01b610e61565b610e12679c75dd2fbd9a3f8a60c01b610e61565b60019050610e5c565b610e2f67311cfbf8c836b21260c01b610e61565b610e436709238f2ce7c773bc60c01b610e61565b610e57677a9b282fd6ad799960c01b610e61565b600090505b919050565b50565b604051806060016040528060001515815260200160608152602001606081525090565b6000604051905090565b600080fd5b600080fd5b600080fd5b6000601f19601f8301169050919050565b7f4e487b7100000000000000000000000000000000000000000000000000000000600052604160045260246000fd5b610ee982610ea0565b810181811067ffffffffffffffff82111715610f0857610f07610eb1565b5b80604052505050565b6000610f1b610e87565b9050610f278282610ee0565b919050565b600080fd5b600080fd5b600080fd5b600067ffffffffffffffff821115610f5657610f55610eb1565b5b610f5f82610ea0565b9050602081019050919050565b82818337600083830152505050565b6000610f8e610f8984610f3b565b610f11565b905082815260208101848484011115610faa57610fa9610f36565b5b610fb5848285610f6c565b509392505050565b600082601f830112610fd257610fd1610f31565b5b8135610fe2848260208601610f7b565b91505092915050565b6000819050919050565b610ffe81610feb565b811461100957600080fd5b50565b60008135905061101b81610ff5565b92915050565b600073ffffffffffffffffffffffffffffffffffffffff82169050919050565b600061104c82611021565b9050919050565b61105c81611041565b811461106757600080fd5b50565b60008135905061107981611053565b92915050565b6000610120828403121561109657611095610e9b565b5b6110a1610120610f11565b9050600082013567ffffffffffffffff8111156110c1576110c0610f2c565b5b6110cd84828501610fbd565b600083015250602082013567ffffffffffffffff8111156110f1576110f0610f2c565b5b6110fd84828501610fbd565b60208301525060406111118482850161100c565b604083015250606082013567ffffffffffffffff81111561113557611134610f2c565b5b61114184828501610fbd565b60608301525060806111558482850161106a565b60808301525060a082013567ffffffffffffffff81111561117957611178610f2c565b5b61118584828501610fbd565b60a08301525060c082013567ffffffffffffffff8111156111a9576111a8610f2c565b5b6111b584828501610fbd565b60c08301525060e082013567ffffffffffffffff8111156111d9576111d8610f2c565b5b6111e584828501610fbd565b60e08301525061010082013567ffffffffffffffff81111561120a57611209610f2c565b5b61121684828501610fbd565b6101008301525092915050565b60006020828403121561123957611238610e91565b5b600082013567ffffffffffffffff81111561125757611256610e96565b5b6112638482850161107f565b91505092915050565b60008115159050919050565b6112818161126c565b82525050565b600060208201905061129c6000830184611278565b92915050565b600080600080608085870312156112bc576112bb610e91565b5b60006112ca8782880161106a565b94505060206112db8782880161106a565b935050604085013567ffffffffffffffff8111156112fc576112fb610e96565b5b61130887828801610fbd565b925050606085013567ffffffffffffffff81111561132957611328610e96565b5b61133587828801610fbd565b91505092959194509250565b600067ffffffffffffffff82111561135c5761135b610eb1565b5b602082029050602081019050919050565b600080fd5b600061138561138084611341565b610f11565b905080838252602082019050602084028301858111156113a8576113a761136d565b5b835b818110156113ef57803567ffffffffffffffff8111156113cd576113cc610f31565b5b8086016113da8982610fbd565b855260208501945050506020810190506113aa565b5050509392505050565b600082601f83011261140e5761140d610f31565b5b813561141e848260208601611372565b91505092915050565b60006020828403121561143d5761143c610e91565b5b600082013567ffffffffffffffff81111561145b5761145a610e96565b5b611467848285016113f9565b91505092915050565b6114798161126c565b82525050565b600081519050919050565b600082825260208201905092915050565b60005b838110156114b957808201518184015260208101905061149e565b60008484015250505050565b60006114d08261147f565b6114da818561148a565b93506114ea81856020860161149b565b6114f381610ea0565b840191505092915050565b60006060830160008301516115166000860182611470565b506020830151848203602086015261152e82826114c5565b9150506040830151848203604086015261154882826114c5565b9150508091505092915050565b6000602082019050818103600083015261156f81846114fe565b905092915050565b6000806000806080858703121561159157611590610e91565b5b600061159f8782880161106a565b945050602085013567ffffffffffffffff8111156115c0576115bf610e96565b5b6115cc87828801610fbd565b935050604085013567ffffffffffffffff8111156115ed576115ec610e96565b5b6115f9878288016113f9565b925050606085013567ffffffffffffffff81111561161a57611619610e96565b5b61162687828801610fbd565b91505092959194509250565b60006020828403121561164857611647610e91565b5b600082013567ffffffffffffffff81111561166657611665610e96565b5b61167284828501610fbd565b91505092915050565b600082825260208201905092915050565b60006116978261147f565b6116a1818561167b565b93506116b181856020860161149b565b6116ba81610ea0565b840191505092915050565b600060208201905081810360008301526116df818461168c565b905092915050565b6000608082840312156116fd576116fc610e9b565b5b6117076080610f11565b905060006117178482850161106a565b600083015250602082013567ffffffffffffffff81111561173b5761173a610f2c565b5b61174784828501610fbd565b602083015250604082013567ffffffffffffffff81111561176b5761176a610f2c565b5b61177784828501610fbd565b604083015250606082013567ffffffffffffffff81111561179b5761179a610f2c565b5b6117a784828501610fbd565b60608301525092915050565b6000602082840312156117c9576117c8610e91565b5b600082013567ffffffffffffffff8111156117e7576117e6610e96565b5b6117f3848285016116e7565b91505092915050565b600081905092915050565b60006118128261147f565b61181c81856117fc565b935061182c81856020860161149b565b80840191505092915050565b60006118448284611807565b915081905092915050565b7f4e487b7100000000000000000000000000000000000000000000000000000000600052603260045260246000fd5b600061188a8285611807565b91506118968284611807565b91508190509392505050565b6000819050919050565b7f4e487b7100000000000000000000000000000000000000000000000000000000600052601160045260246000fd5b60006118e6826118a2565b91506118f1836118a2565b9250828203905081811115611909576119086118ac565b5b92915050565b7f2c20000000000000000000000000000000000000000000000000000000000000600082015250565b60006119456002836117fc565b91506119508261190f565b600282019050919050565b60006119678284611807565b915061197282611938565b915081905092915050565b6000611988826118a2565b91507fffffffffffffffffffffffffffffffffffffffffffffffffffffffffffffffff82036119ba576119b96118ac565b5b600182019050919050565b600060ff82169050919050565b60006119dd826119c5565b91506119e8836119c5565b9250828201905060ff811115611a0157611a006118ac565b5b92915050565b7f646f776e6c6f6164000000000000000000000000000000000000000000000000600082015250565b6000611a3d6008836117fc565b9150611a4882611a07565b600882019050919050565b6000611a5e82611a30565b9150819050919050565b7f6564697400000000000000000000000000000000000000000000000000000000600082015250565b6000611a9e6004836117fc565b9150611aa982611a68565b600482019050919050565b6000611abf82611a91565b9150819050919050565b7f64656c6574650000000000000000000000000000000000000000000000000000600082015250565b6000611aff6006836117fc565b9150611b0a82611ac9565b600682019050919050565b6000611b2082611af2565b9150819050919050565b7f7368617265000000000000000000000000000000000000000000000000000000600082015250565b6000611b606005836117fc565b9150611b6b82611b2a565b600582019050919050565b6000611b8182611b53565b9150819050919050565b7f7665726966790000000000000000000000000000000000000000000000000000600082015250565b6000611bc16006836117fc565b9150611bcc82611b8b565b600682019050919050565b6000611be282611bb4565b9150819050919050565b7f696e666f00000000000000000000000000000000000000000000000000000000600082015250565b6000611c226004836117fc565b9150611c2d82611bec565b600482019050919050565b6000611c4382611c15565b915081905091905056fea2646970667358221220493fa493c3f2abe5c544a9f43c046ce6817f7a35b89fe4553487945079199db464736f6c63430008130033",
  "linkReferences": {},
  "deployedLinkReferences": {}
}