{
  "_format": "hh-sol-artifact-1",
  "contractName": "Helper",
  "sourceName": "contracts/Helper.sol",
  "abi": [
    {
      "inputs": [
        {
          "components": [
            {
              "internalType": "string",
              "name": "ipfsCID",
              "type": "string"
            },
            {
              "internalType": "string",
              "name": "fileName",
              "type": "string"
            },
            {
              "internalType": "int256",
              "name": "version",
              "type": "int256"
            },
            {
              "internalType": "address",
              "name": "owner",
              "type": "address"
            },
            {
              "internalType": "string",
              "name": "fileType",
              "type": "string"
            },
            {
              "internalType": "string",
              "name": "iv",
              "type": "string"
            },
            {
              "internalType": "string",
              "name": "state",
              "type": "string"
            },
            {
              "internalType": "string",
              "name": "fileHash",
              "type": "string"
            }
          ],
          "internalType": "struct FileRegister.File",
          "name": "file",
          "type": "tuple"
        }
      ],
      "name": "fileParamValid",
      "outputs": [
        {
          "internalType": "bool",
          "name": "",
          "type": "bool"
        }
      ],
      "stateMutability": "pure",
      "type": "function"
    },
    {
      "inputs": [
        {
          "internalType": "string[]",
          "name": "permissions",
          "type": "string[]"
        }
      ],
      "name": "stringArrayToString",
      "outputs": [
        {
          "internalType": "string",
          "name": "",
          "type": "string"
        }
      ],
      "stateMutability": "pure",
      "type": "function"
    },
    {
      "inputs": [
        {
          "components": [
            {
              "internalType": "address",
              "name": "account",
              "type": "address"
            },
            {
              "internalType": "string",
              "name": "userName",
              "type": "string"
            },
            {
              "internalType": "string",
              "name": "publicKey",
              "type": "string"
            },
            {
              "internalType": "string",
              "name": "privateKey",
              "type": "string"
            }
          ],
          "internalType": "struct UserRegister.User",
          "name": "user",
          "type": "tuple"
        }
      ],
      "name": "validUserFields",
      "outputs": [
        {
          "internalType": "bool",
          "name": "",
          "type": "bool"
        }
      ],
      "stateMutability": "pure",
      "type": "function"
    },
    {
      "inputs": [
        {
          "internalType": "address",
          "name": "userAccount",
          "type": "address"
        },
        {
          "internalType": "string",
          "name": "fileIpfsCID",
          "type": "string"
        },
        {
          "internalType": "string",
          "name": "encSymmetricKey",
          "type": "string"
        },
        {
          "internalType": "string[]",
          "name": "permissions",
          "type": "string[]"
        },
        {
          "internalType": "string",
          "name": "state",
          "type": "string"
        }
      ],
      "name": "verifyValidFields",
      "outputs": [
        {
          "internalType": "bool",
          "name": "",
          "type": "bool"
        }
      ],
      "stateMutability": "pure",
      "type": "function"
    }
  ],
  "bytecode": "0x608060405234801561001057600080fd5b50610cf3806100206000396000f3fe608060405234801561001057600080fd5b506004361061004c5760003560e01c80631c209e7c14610051578063488977b8146100815780636bb8d768146100b1578063e779f450146100e1575b600080fd5b61006b600480360381019061006691906105f0565b610111565b60405161007891906106f6565b60405180910390f35b61009b600480360381019061009691906108c3565b610196565b6040516100a891906106f6565b60405180910390f35b6100cb60048036038101906100c6919061090c565b61022c565b6040516100d891906109d4565b60405180910390f35b6100fb60048036038101906100f69190610ac2565b6102ce565b60405161010891906106f6565b60405180910390f35b60008073ffffffffffffffffffffffffffffffffffffffff168673ffffffffffffffffffffffffffffffffffffffff161415801561015157506000855114155b801561015f57506000845114155b801561016d57506000835114155b801561017a575060008251145b15610188576001905061018d565b600090505b95945050505050565b600080826000015151141580156101b35750600082602001515114155b80156101c55750600082608001515114155b80156101d7575060008260a001515114155b80156102145750600073ffffffffffffffffffffffffffffffffffffffff16826060015173ffffffffffffffffffffffffffffffffffffffff1614155b156102225760019050610227565b600090505b919050565b60608060005b83518110156102c4578184828151811061024f5761024e610b0b565b5b6020026020010151604051602001610268929190610b76565b6040516020818303038152906040529150600184516102879190610bd3565b8110156102b1578160405160200161029f9190610c53565b60405160208183030381529060405291505b80806102bc90610c75565b915050610232565b5080915050919050565b60008073ffffffffffffffffffffffffffffffffffffffff16826000015173ffffffffffffffffffffffffffffffffffffffff16141580156103165750600082602001515114155b80156103285750600082604001515114155b801561033a5750600082606001515114155b15610348576001905061034d565b600090505b919050565b6000604051905090565b600080fd5b600080fd5b600073ffffffffffffffffffffffffffffffffffffffff82169050919050565b600061039182610366565b9050919050565b6103a181610386565b81146103ac57600080fd5b50565b6000813590506103be81610398565b92915050565b600080fd5b600080fd5b6000601f19601f8301169050919050565b7f4e487b7100000000000000000000000000000000000000000000000000000000600052604160045260246000fd5b610417826103ce565b810181811067ffffffffffffffff82111715610436576104356103df565b5b80604052505050565b6000610449610352565b9050610455828261040e565b919050565b600067ffffffffffffffff821115610475576104746103df565b5b61047e826103ce565b9050602081019050919050565b82818337600083830152505050565b60006104ad6104a88461045a565b61043f565b9050828152602081018484840111156104c9576104c86103c9565b5b6104d484828561048b565b509392505050565b600082601f8301126104f1576104f06103c4565b5b813561050184826020860161049a565b91505092915050565b600067ffffffffffffffff821115610525576105246103df565b5b602082029050602081019050919050565b600080fd5b600061054e6105498461050a565b61043f565b9050808382526020820190506020840283018581111561057157610570610536565b5b835b818110156105b857803567ffffffffffffffff811115610596576105956103c4565b5b8086016105a389826104dc565b85526020850194505050602081019050610573565b5050509392505050565b600082601f8301126105d7576105d66103c4565b5b81356105e784826020860161053b565b91505092915050565b600080600080600060a0868803121561060c5761060b61035c565b5b600061061a888289016103af565b955050602086013567ffffffffffffffff81111561063b5761063a610361565b5b610647888289016104dc565b945050604086013567ffffffffffffffff81111561066857610667610361565b5b610674888289016104dc565b935050606086013567ffffffffffffffff81111561069557610694610361565b5b6106a1888289016105c2565b925050608086013567ffffffffffffffff8111156106c2576106c1610361565b5b6106ce888289016104dc565b9150509295509295909350565b60008115159050919050565b6106f0816106db565b82525050565b600060208201905061070b60008301846106e7565b92915050565b600080fd5b600080fd5b6000819050919050565b61072e8161071b565b811461073957600080fd5b50565b60008135905061074b81610725565b92915050565b6000610100828403121561076857610767610711565b5b61077361010061043f565b9050600082013567ffffffffffffffff81111561079357610792610716565b5b61079f848285016104dc565b600083015250602082013567ffffffffffffffff8111156107c3576107c2610716565b5b6107cf848285016104dc565b60208301525060406107e38482850161073c565b60408301525060606107f7848285016103af565b606083015250608082013567ffffffffffffffff81111561081b5761081a610716565b5b610827848285016104dc565b60808301525060a082013567ffffffffffffffff81111561084b5761084a610716565b5b610857848285016104dc565b60a08301525060c082013567ffffffffffffffff81111561087b5761087a610716565b5b610887848285016104dc565b60c08301525060e082013567ffffffffffffffff8111156108ab576108aa610716565b5b6108b7848285016104dc565b60e08301525092915050565b6000602082840312156108d9576108d861035c565b5b600082013567ffffffffffffffff8111156108f7576108f6610361565b5b61090384828501610751565b91505092915050565b6000602082840312156109225761092161035c565b5b600082013567ffffffffffffffff8111156109405761093f610361565b5b61094c848285016105c2565b91505092915050565b600081519050919050565b600082825260208201905092915050565b60005b8381101561098f578082015181840152602081019050610974565b60008484015250505050565b60006109a682610955565b6109b08185610960565b93506109c0818560208601610971565b6109c9816103ce565b840191505092915050565b600060208201905081810360008301526109ee818461099b565b905092915050565b600060808284031215610a0c57610a0b610711565b5b610a16608061043f565b90506000610a26848285016103af565b600083015250602082013567ffffffffffffffff811115610a4a57610a49610716565b5b610a56848285016104dc565b602083015250604082013567ffffffffffffffff811115610a7a57610a79610716565b5b610a86848285016104dc565b604083015250606082013567ffffffffffffffff811115610aaa57610aa9610716565b5b610ab6848285016104dc565b60608301525092915050565b600060208284031215610ad857610ad761035c565b5b600082013567ffffffffffffffff811115610af657610af5610361565b5b610b02848285016109f6565b91505092915050565b7f4e487b7100000000000000000000000000000000000000000000000000000000600052603260045260246000fd5b600081905092915050565b6000610b5082610955565b610b5a8185610b3a565b9350610b6a818560208601610971565b80840191505092915050565b6000610b828285610b45565b9150610b8e8284610b45565b91508190509392505050565b6000819050919050565b7f4e487b7100000000000000000000000000000000000000000000000000000000600052601160045260246000fd5b6000610bde82610b9a565b9150610be983610b9a565b9250828203905081811115610c0157610c00610ba4565b5b92915050565b7f2c20000000000000000000000000000000000000000000000000000000000000600082015250565b6000610c3d600283610b3a565b9150610c4882610c07565b600282019050919050565b6000610c5f8284610b45565b9150610c6a82610c30565b915081905092915050565b6000610c8082610b9a565b91507fffffffffffffffffffffffffffffffffffffffffffffffffffffffffffffffff8203610cb257610cb1610ba4565b5b60018201905091905056fea2646970667358221220cdc911a9c67e8a31938d9d3eec61ca5110951d2f9f78da6066d433ede696210064736f6c63430008130033",
  "linkReferences": {},
  "deployedLinkReferences": {}
}