{
  "_format": "hh-sol-artifact-1",
  "contractName": "Helper",
  "sourceName": "contracts/Helper.sol",
  "abi": [
    {
      "inputs": [
        {
          "components": [
            {
              "internalType": "string",
              "name": "ipfsCID",
              "type": "string"
            },
            {
              "internalType": "string",
              "name": "fileName",
              "type": "string"
            },
            {
              "internalType": "int256",
              "name": "version",
              "type": "int256"
            },
            {
              "internalType": "string",
              "name": "prevIpfsCID",
              "type": "string"
            },
            {
              "internalType": "address",
              "name": "owner",
              "type": "address"
            },
            {
              "internalType": "string",
              "name": "fileType",
              "type": "string"
            },
            {
              "internalType": "string",
              "name": "iv",
              "type": "string"
            },
            {
              "internalType": "string",
              "name": "state",
              "type": "string"
            },
            {
              "internalType": "string",
              "name": "fileHash",
              "type": "string"
            }
          ],
          "internalType": "struct FileRegister.File",
          "name": "file",
          "type": "tuple"
        }
      ],
      "name": "fileParamValid",
      "outputs": [
        {
          "internalType": "bool",
          "name": "",
          "type": "bool"
        }
      ],
      "stateMutability": "pure",
      "type": "function"
    },
    {
      "inputs": [
        {
          "internalType": "string[]",
          "name": "permissions",
          "type": "string[]"
        }
      ],
      "name": "stringArrayToString",
      "outputs": [
        {
          "internalType": "string",
          "name": "",
          "type": "string"
        }
      ],
      "stateMutability": "pure",
      "type": "function"
    },
    {
      "inputs": [
        {
          "components": [
            {
              "internalType": "address",
              "name": "account",
              "type": "address"
            },
            {
              "internalType": "string",
              "name": "userName",
              "type": "string"
            },
            {
              "internalType": "string",
              "name": "mnemonic",
              "type": "string"
            },
            {
              "internalType": "string",
              "name": "publicKey",
              "type": "string"
            }
          ],
          "internalType": "struct UserRegister.User",
          "name": "user",
          "type": "tuple"
        }
      ],
      "name": "validUserFields",
      "outputs": [
        {
          "internalType": "bool",
          "name": "",
          "type": "bool"
        }
      ],
      "stateMutability": "pure",
      "type": "function"
    },
    {
      "inputs": [
        {
          "internalType": "address",
          "name": "userAccount",
          "type": "address"
        },
        {
          "internalType": "string",
          "name": "fileIpfsCID",
          "type": "string"
        },
        {
          "internalType": "string",
          "name": "encSymmetricKey",
          "type": "string"
        },
        {
          "internalType": "string[]",
          "name": "permissions",
          "type": "string[]"
        },
        {
          "internalType": "string",
          "name": "state",
          "type": "string"
        }
      ],
      "name": "verifyValidFields",
      "outputs": [
        {
          "internalType": "bool",
          "name": "",
          "type": "bool"
        }
      ],
      "stateMutability": "pure",
      "type": "function"
    }
  ],
  "bytecode": "0x608060405234801561001057600080fd5b50610d01806100206000396000f3fe608060405234801561001057600080fd5b506004361061004c5760003560e01c80631c209e7c146100515780634294a5ad146100815780636bb8d768146100b1578063e779f450146100e1575b600080fd5b61006b600480360381019061006691906105cc565b610111565b60405161007891906106d2565b60405180910390f35b61009b600480360381019061009691906108d1565b610196565b6040516100a891906106d2565b60405180910390f35b6100cb60048036038101906100c6919061091a565b61022c565b6040516100d891906109e2565b60405180910390f35b6100fb60048036038101906100f69190610ad0565b6102ce565b60405161010891906106d2565b60405180910390f35b60008073ffffffffffffffffffffffffffffffffffffffff168673ffffffffffffffffffffffffffffffffffffffff161415801561015157506000855114155b801561015f57506000845114155b801561016d57506000835114155b801561017a575060008251145b15610188576001905061018d565b600090505b95945050505050565b600080826000015151141580156101b35750600082602001515114155b80156101c5575060008260a001515114155b80156101d7575060008260c001515114155b80156102145750600073ffffffffffffffffffffffffffffffffffffffff16826080015173ffffffffffffffffffffffffffffffffffffffff1614155b156102225760019050610227565b600090505b919050565b60608060005b83518110156102c4578184828151811061024f5761024e610b19565b5b6020026020010151604051602001610268929190610b84565b6040516020818303038152906040529150600184516102879190610be1565b8110156102b1578160405160200161029f9190610c61565b60405160208183030381529060405291505b80806102bc90610c83565b915050610232565b5080915050919050565b60008073ffffffffffffffffffffffffffffffffffffffff16826000015173ffffffffffffffffffffffffffffffffffffffff16141580156103165750600082602001515114155b156103245760019050610329565b600090505b919050565b6000604051905090565b600080fd5b600080fd5b600073ffffffffffffffffffffffffffffffffffffffff82169050919050565b600061036d82610342565b9050919050565b61037d81610362565b811461038857600080fd5b50565b60008135905061039a81610374565b92915050565b600080fd5b600080fd5b6000601f19601f8301169050919050565b7f4e487b7100000000000000000000000000000000000000000000000000000000600052604160045260246000fd5b6103f3826103aa565b810181811067ffffffffffffffff82111715610412576104116103bb565b5b80604052505050565b600061042561032e565b905061043182826103ea565b919050565b600067ffffffffffffffff821115610451576104506103bb565b5b61045a826103aa565b9050602081019050919050565b82818337600083830152505050565b600061048961048484610436565b61041b565b9050828152602081018484840111156104a5576104a46103a5565b5b6104b0848285610467565b509392505050565b600082601f8301126104cd576104cc6103a0565b5b81356104dd848260208601610476565b91505092915050565b600067ffffffffffffffff821115610501576105006103bb565b5b602082029050602081019050919050565b600080fd5b600061052a610525846104e6565b61041b565b9050808382526020820190506020840283018581111561054d5761054c610512565b5b835b8181101561059457803567ffffffffffffffff811115610572576105716103a0565b5b80860161057f89826104b8565b8552602085019450505060208101905061054f565b5050509392505050565b600082601f8301126105b3576105b26103a0565b5b81356105c3848260208601610517565b91505092915050565b600080600080600060a086880312156105e8576105e7610338565b5b60006105f68882890161038b565b955050602086013567ffffffffffffffff8111156106175761061661033d565b5b610623888289016104b8565b945050604086013567ffffffffffffffff8111156106445761064361033d565b5b610650888289016104b8565b935050606086013567ffffffffffffffff8111156106715761067061033d565b5b61067d8882890161059e565b925050608086013567ffffffffffffffff81111561069e5761069d61033d565b5b6106aa888289016104b8565b9150509295509295909350565b60008115159050919050565b6106cc816106b7565b82525050565b60006020820190506106e760008301846106c3565b92915050565b600080fd5b600080fd5b6000819050919050565b61070a816106f7565b811461071557600080fd5b50565b60008135905061072781610701565b92915050565b60006101208284031215610744576107436106ed565b5b61074f61012061041b565b9050600082013567ffffffffffffffff81111561076f5761076e6106f2565b5b61077b848285016104b8565b600083015250602082013567ffffffffffffffff81111561079f5761079e6106f2565b5b6107ab848285016104b8565b60208301525060406107bf84828501610718565b604083015250606082013567ffffffffffffffff8111156107e3576107e26106f2565b5b6107ef848285016104b8565b60608301525060806108038482850161038b565b60808301525060a082013567ffffffffffffffff811115610827576108266106f2565b5b610833848285016104b8565b60a08301525060c082013567ffffffffffffffff811115610857576108566106f2565b5b610863848285016104b8565b60c08301525060e082013567ffffffffffffffff811115610887576108866106f2565b5b610893848285016104b8565b60e08301525061010082013567ffffffffffffffff8111156108b8576108b76106f2565b5b6108c4848285016104b8565b6101008301525092915050565b6000602082840312156108e7576108e6610338565b5b600082013567ffffffffffffffff8111156109055761090461033d565b5b6109118482850161072d565b91505092915050565b6000602082840312156109305761092f610338565b5b600082013567ffffffffffffffff81111561094e5761094d61033d565b5b61095a8482850161059e565b91505092915050565b600081519050919050565b600082825260208201905092915050565b60005b8381101561099d578082015181840152602081019050610982565b60008484015250505050565b60006109b482610963565b6109be818561096e565b93506109ce81856020860161097f565b6109d7816103aa565b840191505092915050565b600060208201905081810360008301526109fc81846109a9565b905092915050565b600060808284031215610a1a57610a196106ed565b5b610a24608061041b565b90506000610a348482850161038b565b600083015250602082013567ffffffffffffffff811115610a5857610a576106f2565b5b610a64848285016104b8565b602083015250604082013567ffffffffffffffff811115610a8857610a876106f2565b5b610a94848285016104b8565b604083015250606082013567ffffffffffffffff811115610ab857610ab76106f2565b5b610ac4848285016104b8565b60608301525092915050565b600060208284031215610ae657610ae5610338565b5b600082013567ffffffffffffffff811115610b0457610b0361033d565b5b610b1084828501610a04565b91505092915050565b7f4e487b7100000000000000000000000000000000000000000000000000000000600052603260045260246000fd5b600081905092915050565b6000610b5e82610963565b610b688185610b48565b9350610b7881856020860161097f565b80840191505092915050565b6000610b908285610b53565b9150610b9c8284610b53565b91508190509392505050565b6000819050919050565b7f4e487b7100000000000000000000000000000000000000000000000000000000600052601160045260246000fd5b6000610bec82610ba8565b9150610bf783610ba8565b9250828203905081811115610c0f57610c0e610bb2565b5b92915050565b7f2c20000000000000000000000000000000000000000000000000000000000000600082015250565b6000610c4b600283610b48565b9150610c5682610c15565b600282019050919050565b6000610c6d8284610b53565b9150610c7882610c3e565b915081905092915050565b6000610c8e82610ba8565b91507fffffffffffffffffffffffffffffffffffffffffffffffffffffffffffffffff8203610cc057610cbf610bb2565b5b60018201905091905056fea2646970667358221220c29b7b81770a87ff5d55a1309e677f2d960b10120ab54dbbbbcb44229eb42fa764736f6c63430008130033",
  "linkReferences": {},
  "deployedLinkReferences": {}
}