{
  "_format": "hh-sol-artifact-1",
  "contractName": "Helper",
  "sourceName": "contracts/Helper.sol",
  "abi": [
    {
      "inputs": [
        {
          "components": [
            {
              "internalType": "string",
              "name": "ipfsCID",
              "type": "string"
            },
            {
              "internalType": "string",
              "name": "fileName",
              "type": "string"
            },
            {
              "internalType": "int256",
              "name": "version",
              "type": "int256"
            },
            {
              "internalType": "string",
              "name": "prevIpfsCID",
              "type": "string"
            },
            {
              "internalType": "address",
              "name": "owner",
              "type": "address"
            },
            {
              "internalType": "string",
              "name": "fileType",
              "type": "string"
            },
            {
              "internalType": "string",
              "name": "iv",
              "type": "string"
            },
            {
              "internalType": "string",
              "name": "state",
              "type": "string"
            },
            {
              "internalType": "string",
              "name": "fileHash",
              "type": "string"
            }
          ],
          "internalType": "struct FileRegister.File",
          "name": "file",
          "type": "tuple"
        }
      ],
      "name": "fileParamValid",
      "outputs": [
        {
          "internalType": "bool",
          "name": "",
          "type": "bool"
        }
      ],
      "stateMutability": "pure",
      "type": "function"
    },
    {
      "inputs": [
        {
          "internalType": "address",
          "name": "accountInput",
          "type": "address"
        },
        {
          "internalType": "address",
          "name": "accountList",
          "type": "address"
        },
        {
          "internalType": "string",
          "name": "ipfsCIDInput",
          "type": "string"
        },
        {
          "internalType": "string",
          "name": "ipfsCIDList",
          "type": "string"
        }
      ],
      "name": "isKeyEqual",
      "outputs": [
        {
          "internalType": "bool",
          "name": "",
          "type": "bool"
        }
      ],
      "stateMutability": "pure",
      "type": "function"
    },
    {
      "inputs": [
        {
          "internalType": "string[]",
          "name": "permissions",
          "type": "string[]"
        }
      ],
      "name": "stringArrayToString",
      "outputs": [
        {
          "components": [
            {
              "internalType": "bool",
              "name": "success",
              "type": "bool"
            },
            {
              "internalType": "string",
              "name": "resultString",
              "type": "string"
            },
            {
              "internalType": "string",
              "name": "message",
              "type": "string"
            }
          ],
          "internalType": "struct Helper.ResultString",
          "name": "",
          "type": "tuple"
        }
      ],
      "stateMutability": "pure",
      "type": "function"
    },
    {
      "inputs": [
        {
          "internalType": "string",
          "name": "_str",
          "type": "string"
        }
      ],
      "name": "toLower",
      "outputs": [
        {
          "internalType": "string",
          "name": "",
          "type": "string"
        }
      ],
      "stateMutability": "pure",
      "type": "function"
    },
    {
      "inputs": [
        {
          "internalType": "string[]",
          "name": "permissions",
          "type": "string[]"
        }
      ],
      "name": "validPermissions",
      "outputs": [
        {
          "internalType": "bool",
          "name": "",
          "type": "bool"
        }
      ],
      "stateMutability": "pure",
      "type": "function"
    },
    {
      "inputs": [
        {
          "components": [
            {
              "internalType": "address",
              "name": "account",
              "type": "address"
            },
            {
              "internalType": "string",
              "name": "userName",
              "type": "string"
            },
            {
              "internalType": "string",
              "name": "mnemonic",
              "type": "string"
            },
            {
              "internalType": "string",
              "name": "publicKey",
              "type": "string"
            }
          ],
          "internalType": "struct UserRegister.User",
          "name": "user",
          "type": "tuple"
        }
      ],
      "name": "validUserFields",
      "outputs": [
        {
          "internalType": "bool",
          "name": "",
          "type": "bool"
        }
      ],
      "stateMutability": "pure",
      "type": "function"
    },
    {
      "inputs": [
        {
          "internalType": "address",
          "name": "userAccount",
          "type": "address"
        },
        {
          "internalType": "string",
          "name": "fileIpfsCID",
          "type": "string"
        },
        {
          "internalType": "string",
          "name": "encSymmetricKey",
          "type": "string"
        },
        {
          "internalType": "string[]",
          "name": "permissions",
          "type": "string[]"
        },
        {
          "internalType": "string",
          "name": "state",
          "type": "string"
        }
      ],
      "name": "verifyValidFields",
      "outputs": [
        {
          "internalType": "bool",
          "name": "",
          "type": "bool"
        }
      ],
      "stateMutability": "pure",
      "type": "function"
    }
  ],
  "bytecode": "0x608060405234801561001057600080fd5b5061178e806100206000396000f3fe608060405234801561001057600080fd5b506004361061007d5760003560e01c80636bb8d7681161005b5780636bb8d768146101125780639416b42314610142578063bda49b1d14610172578063e779f450146101a25761007d565b80631c209e7c146100825780634294a5ad146100b25780635c99c71b146100e2575b600080fd5b61009c60048036038101906100979190610c00565b6101d2565b6040516100a99190610d06565b60405180910390f35b6100cc60048036038101906100c79190610f05565b61028e565b6040516100d99190610d06565b60405180910390f35b6100fc60048036038101906100f79190610f4e565b610363565b6040516101099190610d06565b60405180910390f35b61012c60048036038101906101279190610fed565b6103f5565b604051610139919061111b565b60405180910390f35b61015c6004803603810190610157919061113d565b6104ca565b60405161016991906111d0565b60405180910390f35b61018c60048036038101906101879190610fed565b6105ca565b6040516101999190610d06565b60405180910390f35b6101bc60048036038101906101b791906112be565b6108a0565b6040516101c99190610d06565b60405180910390f35b60008073ffffffffffffffffffffffffffffffffffffffff168673ffffffffffffffffffffffffffffffffffffffff161415801561023b57508573ffffffffffffffffffffffffffffffffffffffff168673ffffffffffffffffffffffffffffffffffffffff16145b801561024957506000855114155b801561025757506000845114155b801561026557506000835114155b8015610272575060008251145b156102805760019050610285565b600090505b95945050505050565b600080826000015151141580156102ab5750600082602001515114155b80156102bd575060008260a001515114155b80156102cf575060008260c001515114155b801561030c5750600073ffffffffffffffffffffffffffffffffffffffff16826080015173ffffffffffffffffffffffffffffffffffffffff1614155b801561034b5750816080015173ffffffffffffffffffffffffffffffffffffffff16826080015173ffffffffffffffffffffffffffffffffffffffff16145b15610359576001905061035e565b600090505b919050565b60008473ffffffffffffffffffffffffffffffffffffffff168473ffffffffffffffffffffffffffffffffffffffff161480156103eb5750826040516020016103ac9190611343565b60405160208183030381529060405280519060200120826040516020016103d39190611343565b60405160208183030381529060405280519060200120145b9050949350505050565b6103fd61093f565b606060005b8351811015610494578184828151811061041f5761041e61135a565b5b6020026020010151604051602001610438929190611389565b60405160208183030381529060405291506001845161045791906113e6565b811015610481578160405160200161046f9190611466565b60405160208183030381529060405291505b808061048c90611488565b915050610402565b50604051806060016040528060011515815260200182815260200160405180602001604052806000815250815250915050919050565b6060600082905060005b81518110156105c05760418282815181106104f2576104f161135a565b5b602001015160f81c60f81b60f81c60ff16101580156105355750605a8282815181106105215761052061135a565b5b602001015160f81c60f81b60f81c60ff1611155b156105ad57602082828151811061054f5761054e61135a565b5b602001015160f81c60f81b60f81c61056791906114dd565b60f81b82828151811061057d5761057c61135a565b5b60200101907effffffffffffffffffffffffffffffffffffffffffffffffffffffffffffff1916908160001a9053505b80806105b890611488565b9150506104d4565b5080915050919050565b600080600090505b8251811015610895576040516020016105ea9061155e565b604051602081830303815290604052805190602001208382815181106106135761061261135a565b5b602002602001015160405160200161062b9190611343565b60405160208183030381529060405280519060200120141580156106b35750604051602001610659906115bf565b604051602081830303815290604052805190602001208382815181106106825761068161135a565b5b602002602001015160405160200161069a9190611343565b6040516020818303038152906040528051906020012014155b801561072357506040516020016106c990611620565b604051602081830303815290604052805190602001208382815181106106f2576106f161135a565b5b602002602001015160405160200161070a9190611343565b6040516020818303038152906040528051906020012014155b8015610793575060405160200161073990611681565b604051602081830303815290604052805190602001208382815181106107625761076161135a565b5b602002602001015160405160200161077a9190611343565b6040516020818303038152906040528051906020012014155b801561080357506040516020016107a9906116e2565b604051602081830303815290604052805190602001208382815181106107d2576107d161135a565b5b60200260200101516040516020016107ea9190611343565b6040516020818303038152906040528051906020012014155b8015610873575060405160200161081990611743565b604051602081830303815290604052805190602001208382815181106108425761084161135a565b5b602002602001015160405160200161085a9190611343565b6040516020818303038152906040528051906020012014155b1561088257600091505061089b565b808061088d90611488565b9150506105d2565b50600190505b919050565b60008073ffffffffffffffffffffffffffffffffffffffff16826000015173ffffffffffffffffffffffffffffffffffffffff16141580156109155750816000015173ffffffffffffffffffffffffffffffffffffffff16826000015173ffffffffffffffffffffffffffffffffffffffff16145b80156109275750600082602001515114155b15610935576001905061093a565b600090505b919050565b604051806060016040528060001515815260200160608152602001606081525090565b6000604051905090565b600080fd5b600080fd5b600073ffffffffffffffffffffffffffffffffffffffff82169050919050565b60006109a182610976565b9050919050565b6109b181610996565b81146109bc57600080fd5b50565b6000813590506109ce816109a8565b92915050565b600080fd5b600080fd5b6000601f19601f8301169050919050565b7f4e487b7100000000000000000000000000000000000000000000000000000000600052604160045260246000fd5b610a27826109de565b810181811067ffffffffffffffff82111715610a4657610a456109ef565b5b80604052505050565b6000610a59610962565b9050610a658282610a1e565b919050565b600067ffffffffffffffff821115610a8557610a846109ef565b5b610a8e826109de565b9050602081019050919050565b82818337600083830152505050565b6000610abd610ab884610a6a565b610a4f565b905082815260208101848484011115610ad957610ad86109d9565b5b610ae4848285610a9b565b509392505050565b600082601f830112610b0157610b006109d4565b5b8135610b11848260208601610aaa565b91505092915050565b600067ffffffffffffffff821115610b3557610b346109ef565b5b602082029050602081019050919050565b600080fd5b6000610b5e610b5984610b1a565b610a4f565b90508083825260208201905060208402830185811115610b8157610b80610b46565b5b835b81811015610bc857803567ffffffffffffffff811115610ba657610ba56109d4565b5b808601610bb38982610aec565b85526020850194505050602081019050610b83565b5050509392505050565b600082601f830112610be757610be66109d4565b5b8135610bf7848260208601610b4b565b91505092915050565b600080600080600060a08688031215610c1c57610c1b61096c565b5b6000610c2a888289016109bf565b955050602086013567ffffffffffffffff811115610c4b57610c4a610971565b5b610c5788828901610aec565b945050604086013567ffffffffffffffff811115610c7857610c77610971565b5b610c8488828901610aec565b935050606086013567ffffffffffffffff811115610ca557610ca4610971565b5b610cb188828901610bd2565b925050608086013567ffffffffffffffff811115610cd257610cd1610971565b5b610cde88828901610aec565b9150509295509295909350565b60008115159050919050565b610d0081610ceb565b82525050565b6000602082019050610d1b6000830184610cf7565b92915050565b600080fd5b600080fd5b6000819050919050565b610d3e81610d2b565b8114610d4957600080fd5b50565b600081359050610d5b81610d35565b92915050565b60006101208284031215610d7857610d77610d21565b5b610d83610120610a4f565b9050600082013567ffffffffffffffff811115610da357610da2610d26565b5b610daf84828501610aec565b600083015250602082013567ffffffffffffffff811115610dd357610dd2610d26565b5b610ddf84828501610aec565b6020830152506040610df384828501610d4c565b604083015250606082013567ffffffffffffffff811115610e1757610e16610d26565b5b610e2384828501610aec565b6060830152506080610e37848285016109bf565b60808301525060a082013567ffffffffffffffff811115610e5b57610e5a610d26565b5b610e6784828501610aec565b60a08301525060c082013567ffffffffffffffff811115610e8b57610e8a610d26565b5b610e9784828501610aec565b60c08301525060e082013567ffffffffffffffff811115610ebb57610eba610d26565b5b610ec784828501610aec565b60e08301525061010082013567ffffffffffffffff811115610eec57610eeb610d26565b5b610ef884828501610aec565b6101008301525092915050565b600060208284031215610f1b57610f1a61096c565b5b600082013567ffffffffffffffff811115610f3957610f38610971565b5b610f4584828501610d61565b91505092915050565b60008060008060808587031215610f6857610f6761096c565b5b6000610f76878288016109bf565b9450506020610f87878288016109bf565b935050604085013567ffffffffffffffff811115610fa857610fa7610971565b5b610fb487828801610aec565b925050606085013567ffffffffffffffff811115610fd557610fd4610971565b5b610fe187828801610aec565b91505092959194509250565b6000602082840312156110035761100261096c565b5b600082013567ffffffffffffffff81111561102157611020610971565b5b61102d84828501610bd2565b91505092915050565b61103f81610ceb565b82525050565b600081519050919050565b600082825260208201905092915050565b60005b8381101561107f578082015181840152602081019050611064565b60008484015250505050565b600061109682611045565b6110a08185611050565b93506110b0818560208601611061565b6110b9816109de565b840191505092915050565b60006060830160008301516110dc6000860182611036565b50602083015184820360208601526110f4828261108b565b9150506040830151848203604086015261110e828261108b565b9150508091505092915050565b6000602082019050818103600083015261113581846110c4565b905092915050565b6000602082840312156111535761115261096c565b5b600082013567ffffffffffffffff81111561117157611170610971565b5b61117d84828501610aec565b91505092915050565b600082825260208201905092915050565b60006111a282611045565b6111ac8185611186565b93506111bc818560208601611061565b6111c5816109de565b840191505092915050565b600060208201905081810360008301526111ea8184611197565b905092915050565b60006080828403121561120857611207610d21565b5b6112126080610a4f565b90506000611222848285016109bf565b600083015250602082013567ffffffffffffffff81111561124657611245610d26565b5b61125284828501610aec565b602083015250604082013567ffffffffffffffff81111561127657611275610d26565b5b61128284828501610aec565b604083015250606082013567ffffffffffffffff8111156112a6576112a5610d26565b5b6112b284828501610aec565b60608301525092915050565b6000602082840312156112d4576112d361096c565b5b600082013567ffffffffffffffff8111156112f2576112f1610971565b5b6112fe848285016111f2565b91505092915050565b600081905092915050565b600061131d82611045565b6113278185611307565b9350611337818560208601611061565b80840191505092915050565b600061134f8284611312565b915081905092915050565b7f4e487b7100000000000000000000000000000000000000000000000000000000600052603260045260246000fd5b60006113958285611312565b91506113a18284611312565b91508190509392505050565b6000819050919050565b7f4e487b7100000000000000000000000000000000000000000000000000000000600052601160045260246000fd5b60006113f1826113ad565b91506113fc836113ad565b9250828203905081811115611414576114136113b7565b5b92915050565b7f2c20000000000000000000000000000000000000000000000000000000000000600082015250565b6000611450600283611307565b915061145b8261141a565b600282019050919050565b60006114728284611312565b915061147d82611443565b915081905092915050565b6000611493826113ad565b91507fffffffffffffffffffffffffffffffffffffffffffffffffffffffffffffffff82036114c5576114c46113b7565b5b600182019050919050565b600060ff82169050919050565b60006114e8826114d0565b91506114f3836114d0565b9250828201905060ff81111561150c5761150b6113b7565b5b92915050565b7f646f776e6c6f6164000000000000000000000000000000000000000000000000600082015250565b6000611548600883611307565b915061155382611512565b600882019050919050565b60006115698261153b565b9150819050919050565b7f6564697400000000000000000000000000000000000000000000000000000000600082015250565b60006115a9600483611307565b91506115b482611573565b600482019050919050565b60006115ca8261159c565b9150819050919050565b7f64656c6574650000000000000000000000000000000000000000000000000000600082015250565b600061160a600683611307565b9150611615826115d4565b600682019050919050565b600061162b826115fd565b9150819050919050565b7f7368617265000000000000000000000000000000000000000000000000000000600082015250565b600061166b600583611307565b915061167682611635565b600582019050919050565b600061168c8261165e565b9150819050919050565b7f7665726966790000000000000000000000000000000000000000000000000000600082015250565b60006116cc600683611307565b91506116d782611696565b600682019050919050565b60006116ed826116bf565b9150819050919050565b7f696e666f00000000000000000000000000000000000000000000000000000000600082015250565b600061172d600483611307565b9150611738826116f7565b600482019050919050565b600061174e82611720565b915081905091905056fea2646970667358221220aba6159fd7628349093bbeb5aa6f114fbf382d81c0b1510690341d3dbe07301d64736f6c63430008130033",
  "linkReferences": {},
  "deployedLinkReferences": {}
}