{
  "_format": "hh-sol-artifact-1",
  "contractName": "Helper",
  "sourceName": "contracts/Helper.sol",
  "abi": [
    {
      "inputs": [
        {
          "components": [
            {
              "internalType": "string",
              "name": "ipfsCID",
              "type": "string"
            },
            {
              "internalType": "string",
              "name": "fileName",
              "type": "string"
            },
            {
              "internalType": "int256",
              "name": "version",
              "type": "int256"
            },
            {
              "internalType": "string",
              "name": "prevIpfsCID",
              "type": "string"
            },
            {
              "internalType": "address",
              "name": "owner",
              "type": "address"
            },
            {
              "internalType": "string",
              "name": "fileType",
              "type": "string"
            },
            {
              "internalType": "string",
              "name": "iv",
              "type": "string"
            },
            {
              "internalType": "string",
              "name": "state",
              "type": "string"
            },
            {
              "internalType": "string",
              "name": "fileHash",
              "type": "string"
            }
          ],
          "internalType": "struct FileRegister.File",
          "name": "file",
          "type": "tuple"
        }
      ],
      "name": "fileParamValid",
      "outputs": [
        {
          "internalType": "bool",
          "name": "",
          "type": "bool"
        }
      ],
      "stateMutability": "pure",
      "type": "function"
    },
    {
      "inputs": [
        {
          "internalType": "address",
          "name": "accountInput",
          "type": "address"
        },
        {
          "internalType": "address",
          "name": "accountList",
          "type": "address"
        },
        {
          "internalType": "string",
          "name": "ipfsCIDInput",
          "type": "string"
        },
        {
          "internalType": "string",
          "name": "ipfsCIDList",
          "type": "string"
        }
      ],
      "name": "isKeyEqual",
      "outputs": [
        {
          "internalType": "bool",
          "name": "",
          "type": "bool"
        }
      ],
      "stateMutability": "pure",
      "type": "function"
    },
    {
      "inputs": [
        {
          "internalType": "string[]",
          "name": "permissions",
          "type": "string[]"
        }
      ],
      "name": "stringArrayToString",
      "outputs": [
        {
          "components": [
            {
              "internalType": "bool",
              "name": "success",
              "type": "bool"
            },
            {
              "internalType": "string",
              "name": "resultString",
              "type": "string"
            },
            {
              "internalType": "string",
              "name": "message",
              "type": "string"
            }
          ],
          "internalType": "struct Helper.ResultString",
          "name": "",
          "type": "tuple"
        }
      ],
      "stateMutability": "pure",
      "type": "function"
    },
    {
      "inputs": [
        {
          "internalType": "string[]",
          "name": "permissions",
          "type": "string[]"
        }
      ],
      "name": "validPermissions",
      "outputs": [
        {
          "internalType": "bool",
          "name": "",
          "type": "bool"
        }
      ],
      "stateMutability": "pure",
      "type": "function"
    },
    {
      "inputs": [
        {
          "components": [
            {
              "internalType": "address",
              "name": "account",
              "type": "address"
            },
            {
              "internalType": "string",
              "name": "userName",
              "type": "string"
            },
            {
              "internalType": "string",
              "name": "mnemonic",
              "type": "string"
            },
            {
              "internalType": "string",
              "name": "publicKey",
              "type": "string"
            }
          ],
          "internalType": "struct UserRegister.User",
          "name": "user",
          "type": "tuple"
        }
      ],
      "name": "validUserFields",
      "outputs": [
        {
          "internalType": "bool",
          "name": "",
          "type": "bool"
        }
      ],
      "stateMutability": "pure",
      "type": "function"
    },
    {
      "inputs": [
        {
          "internalType": "address",
          "name": "userAccount",
          "type": "address"
        },
        {
          "internalType": "string",
          "name": "fileIpfsCID",
          "type": "string"
        },
        {
          "internalType": "string",
          "name": "encSymmetricKey",
          "type": "string"
        },
        {
          "internalType": "string[]",
          "name": "permissions",
          "type": "string[]"
        },
        {
          "internalType": "string",
          "name": "state",
          "type": "string"
        }
      ],
      "name": "verifyValidFields",
      "outputs": [
        {
          "internalType": "bool",
          "name": "",
          "type": "bool"
        }
      ],
      "stateMutability": "pure",
      "type": "function"
    }
  ],
  "bytecode": "0x608060405234801561001057600080fd5b50611541806100206000396000f3fe608060405234801561001057600080fd5b50600436106100625760003560e01c80631c209e7c146100675780634294a5ad146100975780635c99c71b146100c75780636bb8d768146100f7578063bda49b1d14610127578063e779f45014610157575b600080fd5b610081600480360381019061007c9190610aaa565b610187565b60405161008e9190610bb0565b60405180910390f35b6100b160048036038101906100ac9190610daf565b610243565b6040516100be9190610bb0565b60405180910390f35b6100e160048036038101906100dc9190610df8565b610318565b6040516100ee9190610bb0565b60405180910390f35b610111600480360381019061010c9190610e97565b6103aa565b60405161011e9190610fc5565b60405180910390f35b610141600480360381019061013c9190610e97565b61047f565b60405161014e9190610bb0565b60405180910390f35b610171600480360381019061016c91906110b3565b61074a565b60405161017e9190610bb0565b60405180910390f35b60008073ffffffffffffffffffffffffffffffffffffffff168673ffffffffffffffffffffffffffffffffffffffff16141580156101f057508573ffffffffffffffffffffffffffffffffffffffff168673ffffffffffffffffffffffffffffffffffffffff16145b80156101fe57506000855114155b801561020c57506000845114155b801561021a57506000835114155b8015610227575060008251145b15610235576001905061023a565b600090505b95945050505050565b600080826000015151141580156102605750600082602001515114155b8015610272575060008260a001515114155b8015610284575060008260c001515114155b80156102c15750600073ffffffffffffffffffffffffffffffffffffffff16826080015173ffffffffffffffffffffffffffffffffffffffff1614155b80156103005750816080015173ffffffffffffffffffffffffffffffffffffffff16826080015173ffffffffffffffffffffffffffffffffffffffff16145b1561030e5760019050610313565b600090505b919050565b60008473ffffffffffffffffffffffffffffffffffffffff168473ffffffffffffffffffffffffffffffffffffffff161480156103a05750826040516020016103619190611138565b60405160208183030381529060405280519060200120826040516020016103889190611138565b60405160208183030381529060405280519060200120145b9050949350505050565b6103b26107e9565b606060005b835181101561044957818482815181106103d4576103d361114f565b5b60200260200101516040516020016103ed92919061117e565b60405160208183030381529060405291506001845161040c91906111db565b8110156104365781604051602001610424919061125b565b60405160208183030381529060405291505b80806104419061127d565b9150506103b7565b50604051806060016040528060011515815260200182815260200160405180602001604052806000815250815250915050919050565b600080600090505b825181101561073f5760405160200161049f90611311565b604051602081830303815290604052805190602001208382815181106104c8576104c761114f565b5b60200260200101516040516020016104e09190611138565b604051602081830303815290604052805190602001201480610565575060405160200161050c90611372565b604051602081830303815290604052805190602001208382815181106105355761053461114f565b5b602002602001015160405160200161054d9190611138565b60405160208183030381529060405280519060200120145b806105d3575060405160200161057a906113d3565b604051602081830303815290604052805190602001208382815181106105a3576105a261114f565b5b60200260200101516040516020016105bb9190611138565b60405160208183030381529060405280519060200120145b8061064157506040516020016105e890611434565b604051602081830303815290604052805190602001208382815181106106115761061061114f565b5b60200260200101516040516020016106299190611138565b60405160208183030381529060405280519060200120145b806106af575060405160200161065690611495565b6040516020818303038152906040528051906020012083828151811061067f5761067e61114f565b5b60200260200101516040516020016106979190611138565b60405160208183030381529060405280519060200120145b8061071d57506040516020016106c4906114f6565b604051602081830303815290604052805190602001208382815181106106ed576106ec61114f565b5b60200260200101516040516020016107059190611138565b60405160208183030381529060405280519060200120145b1561072c576001915050610745565b80806107379061127d565b915050610487565b50600090505b919050565b60008073ffffffffffffffffffffffffffffffffffffffff16826000015173ffffffffffffffffffffffffffffffffffffffff16141580156107bf5750816000015173ffffffffffffffffffffffffffffffffffffffff16826000015173ffffffffffffffffffffffffffffffffffffffff16145b80156107d15750600082602001515114155b156107df57600190506107e4565b600090505b919050565b604051806060016040528060001515815260200160608152602001606081525090565b6000604051905090565b600080fd5b600080fd5b600073ffffffffffffffffffffffffffffffffffffffff82169050919050565b600061084b82610820565b9050919050565b61085b81610840565b811461086657600080fd5b50565b60008135905061087881610852565b92915050565b600080fd5b600080fd5b6000601f19601f8301169050919050565b7f4e487b7100000000000000000000000000000000000000000000000000000000600052604160045260246000fd5b6108d182610888565b810181811067ffffffffffffffff821117156108f0576108ef610899565b5b80604052505050565b600061090361080c565b905061090f82826108c8565b919050565b600067ffffffffffffffff82111561092f5761092e610899565b5b61093882610888565b9050602081019050919050565b82818337600083830152505050565b600061096761096284610914565b6108f9565b90508281526020810184848401111561098357610982610883565b5b61098e848285610945565b509392505050565b600082601f8301126109ab576109aa61087e565b5b81356109bb848260208601610954565b91505092915050565b600067ffffffffffffffff8211156109df576109de610899565b5b602082029050602081019050919050565b600080fd5b6000610a08610a03846109c4565b6108f9565b90508083825260208201905060208402830185811115610a2b57610a2a6109f0565b5b835b81811015610a7257803567ffffffffffffffff811115610a5057610a4f61087e565b5b808601610a5d8982610996565b85526020850194505050602081019050610a2d565b5050509392505050565b600082601f830112610a9157610a9061087e565b5b8135610aa18482602086016109f5565b91505092915050565b600080600080600060a08688031215610ac657610ac5610816565b5b6000610ad488828901610869565b955050602086013567ffffffffffffffff811115610af557610af461081b565b5b610b0188828901610996565b945050604086013567ffffffffffffffff811115610b2257610b2161081b565b5b610b2e88828901610996565b935050606086013567ffffffffffffffff811115610b4f57610b4e61081b565b5b610b5b88828901610a7c565b925050608086013567ffffffffffffffff811115610b7c57610b7b61081b565b5b610b8888828901610996565b9150509295509295909350565b60008115159050919050565b610baa81610b95565b82525050565b6000602082019050610bc56000830184610ba1565b92915050565b600080fd5b600080fd5b6000819050919050565b610be881610bd5565b8114610bf357600080fd5b50565b600081359050610c0581610bdf565b92915050565b60006101208284031215610c2257610c21610bcb565b5b610c2d6101206108f9565b9050600082013567ffffffffffffffff811115610c4d57610c4c610bd0565b5b610c5984828501610996565b600083015250602082013567ffffffffffffffff811115610c7d57610c7c610bd0565b5b610c8984828501610996565b6020830152506040610c9d84828501610bf6565b604083015250606082013567ffffffffffffffff811115610cc157610cc0610bd0565b5b610ccd84828501610996565b6060830152506080610ce184828501610869565b60808301525060a082013567ffffffffffffffff811115610d0557610d04610bd0565b5b610d1184828501610996565b60a08301525060c082013567ffffffffffffffff811115610d3557610d34610bd0565b5b610d4184828501610996565b60c08301525060e082013567ffffffffffffffff811115610d6557610d64610bd0565b5b610d7184828501610996565b60e08301525061010082013567ffffffffffffffff811115610d9657610d95610bd0565b5b610da284828501610996565b6101008301525092915050565b600060208284031215610dc557610dc4610816565b5b600082013567ffffffffffffffff811115610de357610de261081b565b5b610def84828501610c0b565b91505092915050565b60008060008060808587031215610e1257610e11610816565b5b6000610e2087828801610869565b9450506020610e3187828801610869565b935050604085013567ffffffffffffffff811115610e5257610e5161081b565b5b610e5e87828801610996565b925050606085013567ffffffffffffffff811115610e7f57610e7e61081b565b5b610e8b87828801610996565b91505092959194509250565b600060208284031215610ead57610eac610816565b5b600082013567ffffffffffffffff811115610ecb57610eca61081b565b5b610ed784828501610a7c565b91505092915050565b610ee981610b95565b82525050565b600081519050919050565b600082825260208201905092915050565b60005b83811015610f29578082015181840152602081019050610f0e565b60008484015250505050565b6000610f4082610eef565b610f4a8185610efa565b9350610f5a818560208601610f0b565b610f6381610888565b840191505092915050565b6000606083016000830151610f866000860182610ee0565b5060208301518482036020860152610f9e8282610f35565b91505060408301518482036040860152610fb88282610f35565b9150508091505092915050565b60006020820190508181036000830152610fdf8184610f6e565b905092915050565b600060808284031215610ffd57610ffc610bcb565b5b61100760806108f9565b9050600061101784828501610869565b600083015250602082013567ffffffffffffffff81111561103b5761103a610bd0565b5b61104784828501610996565b602083015250604082013567ffffffffffffffff81111561106b5761106a610bd0565b5b61107784828501610996565b604083015250606082013567ffffffffffffffff81111561109b5761109a610bd0565b5b6110a784828501610996565b60608301525092915050565b6000602082840312156110c9576110c8610816565b5b600082013567ffffffffffffffff8111156110e7576110e661081b565b5b6110f384828501610fe7565b91505092915050565b600081905092915050565b600061111282610eef565b61111c81856110fc565b935061112c818560208601610f0b565b80840191505092915050565b60006111448284611107565b915081905092915050565b7f4e487b7100000000000000000000000000000000000000000000000000000000600052603260045260246000fd5b600061118a8285611107565b91506111968284611107565b91508190509392505050565b6000819050919050565b7f4e487b7100000000000000000000000000000000000000000000000000000000600052601160045260246000fd5b60006111e6826111a2565b91506111f1836111a2565b9250828203905081811115611209576112086111ac565b5b92915050565b7f2c20000000000000000000000000000000000000000000000000000000000000600082015250565b60006112456002836110fc565b91506112508261120f565b600282019050919050565b60006112678284611107565b915061127282611238565b915081905092915050565b6000611288826111a2565b91507fffffffffffffffffffffffffffffffffffffffffffffffffffffffffffffffff82036112ba576112b96111ac565b5b600182019050919050565b7f646f776e6c6f6164000000000000000000000000000000000000000000000000600082015250565b60006112fb6008836110fc565b9150611306826112c5565b600882019050919050565b600061131c826112ee565b9150819050919050565b7f6564697400000000000000000000000000000000000000000000000000000000600082015250565b600061135c6004836110fc565b915061136782611326565b600482019050919050565b600061137d8261134f565b9150819050919050565b7f64656c6574650000000000000000000000000000000000000000000000000000600082015250565b60006113bd6006836110fc565b91506113c882611387565b600682019050919050565b60006113de826113b0565b9150819050919050565b7f7368617265000000000000000000000000000000000000000000000000000000600082015250565b600061141e6005836110fc565b9150611429826113e8565b600582019050919050565b600061143f82611411565b9150819050919050565b7f7665726966790000000000000000000000000000000000000000000000000000600082015250565b600061147f6006836110fc565b915061148a82611449565b600682019050919050565b60006114a082611472565b9150819050919050565b7f696e666f00000000000000000000000000000000000000000000000000000000600082015250565b60006114e06004836110fc565b91506114eb826114aa565b600482019050919050565b6000611501826114d3565b915081905091905056fea26469706673582212200c1e1366a942fa781c94843fcf7a1f4307e1f50fe4d268e2a7eea9be4939ea0a64736f6c63430008130033",
  "linkReferences": {},
  "deployedLinkReferences": {}
}